{
	"Practical6-Apply-TTT-Token.sol": {
		"TickTackToe": {
			"abi": [
				{
					"inputs": [],
					"stateMutability": "nonpayable",
					"type": "constructor"
				},
				{
					"anonymous": false,
					"inputs": [
						{
							"indexed": false,
							"internalType": "uint256",
							"name": "gameId",
							"type": "uint256"
						}
					],
					"name": "createRoom",
					"type": "event"
				},
				{
					"anonymous": false,
					"inputs": [
						{
							"components": [
								{
									"internalType": "bool",
									"name": "_activate",
									"type": "bool"
								},
								{
									"internalType": "string",
									"name": "_currentPlayer",
									"type": "string"
								},
								{
									"internalType": "string[]",
									"name": "_options",
									"type": "string[]"
								},
								{
									"internalType": "uint256[]",
									"name": "_finalWinOption",
									"type": "uint256[]"
								},
								{
									"internalType": "address",
									"name": "_player1address",
									"type": "address"
								},
								{
									"internalType": "address",
									"name": "_player2address",
									"type": "address"
								},
								{
									"internalType": "uint256",
									"name": "_playerCount",
									"type": "uint256"
								},
								{
									"internalType": "address",
									"name": "_winer",
									"type": "address"
								},
								{
									"internalType": "uint256",
									"name": "_player1Bet",
									"type": "uint256"
								},
								{
									"internalType": "uint256",
									"name": "_player2Bet",
									"type": "uint256"
								},
								{
									"internalType": "uint256",
									"name": "_rewardAmount",
									"type": "uint256"
								}
							],
							"indexed": false,
							"internalType": "struct TickTackToe.GameInfo",
							"name": "gameinfo",
							"type": "tuple"
						},
						{
							"indexed": false,
							"internalType": "uint256",
							"name": "gameId",
							"type": "uint256"
						}
					],
					"name": "joinRoom",
					"type": "event"
				},
				{
					"anonymous": false,
					"inputs": [
						{
							"indexed": false,
							"internalType": "string",
							"name": "next",
							"type": "string"
						},
						{
							"indexed": false,
							"internalType": "uint256",
							"name": "gameId",
							"type": "uint256"
						}
					],
					"name": "nextUesrStr",
					"type": "event"
				},
				{
					"anonymous": false,
					"inputs": [
						{
							"indexed": false,
							"internalType": "address",
							"name": "nextUser",
							"type": "address"
						},
						{
							"indexed": false,
							"internalType": "uint256",
							"name": "gameId",
							"type": "uint256"
						}
					],
					"name": "nextUser",
					"type": "event"
				},
				{
					"anonymous": false,
					"inputs": [
						{
							"indexed": false,
							"internalType": "uint256",
							"name": "gameId",
							"type": "uint256"
						}
					],
					"name": "resetUI",
					"type": "event"
				},
				{
					"anonymous": false,
					"inputs": [
						{
							"indexed": false,
							"internalType": "address",
							"name": "player1Address",
							"type": "address"
						},
						{
							"indexed": false,
							"internalType": "uint256",
							"name": "gameId",
							"type": "uint256"
						}
					],
					"name": "showFirstPlayer",
					"type": "event"
				},
				{
					"anonymous": false,
					"inputs": [
						{
							"indexed": false,
							"internalType": "string",
							"name": "result",
							"type": "string"
						},
						{
							"indexed": false,
							"internalType": "uint256",
							"name": "gameId",
							"type": "uint256"
						}
					],
					"name": "showResult",
					"type": "event"
				},
				{
					"anonymous": false,
					"inputs": [
						{
							"indexed": false,
							"internalType": "string",
							"name": "message",
							"type": "string"
						},
						{
							"indexed": false,
							"internalType": "address",
							"name": "player1",
							"type": "address"
						},
						{
							"indexed": false,
							"internalType": "address",
							"name": "player2",
							"type": "address"
						},
						{
							"indexed": false,
							"internalType": "uint256",
							"name": "gameId",
							"type": "uint256"
						}
					],
					"name": "startGame",
					"type": "event"
				},
				{
					"anonymous": false,
					"inputs": [
						{
							"indexed": false,
							"internalType": "string[]",
							"name": "options",
							"type": "string[]"
						},
						{
							"indexed": false,
							"internalType": "uint256",
							"name": "gameId",
							"type": "uint256"
						}
					],
					"name": "updateUI",
					"type": "event"
				},
				{
					"inputs": [],
					"name": "TTTToken",
					"outputs": [
						{
							"internalType": "contract IERC20",
							"name": "",
							"type": "address"
						}
					],
					"stateMutability": "view",
					"type": "function"
				},
				{
					"inputs": [],
					"name": "burnFee",
					"outputs": [
						{
							"internalType": "uint256",
							"name": "",
							"type": "uint256"
						}
					],
					"stateMutability": "view",
					"type": "function"
				},
				{
					"inputs": [
						{
							"internalType": "string",
							"name": "a",
							"type": "string"
						},
						{
							"internalType": "string",
							"name": "b",
							"type": "string"
						}
					],
					"name": "compareStrings",
					"outputs": [
						{
							"internalType": "bool",
							"name": "",
							"type": "bool"
						}
					],
					"stateMutability": "pure",
					"type": "function"
				},
				{
					"inputs": [
						{
							"internalType": "uint256",
							"name": "betAmount",
							"type": "uint256"
						}
					],
					"name": "createGameRoom",
					"outputs": [],
					"stateMutability": "nonpayable",
					"type": "function"
				},
				{
					"inputs": [
						{
							"internalType": "uint256",
							"name": "",
							"type": "uint256"
						}
					],
					"name": "gameInformation",
					"outputs": [
						{
							"internalType": "bool",
							"name": "_activate",
							"type": "bool"
						},
						{
							"internalType": "string",
							"name": "_currentPlayer",
							"type": "string"
						},
						{
							"internalType": "address",
							"name": "_player1address",
							"type": "address"
						},
						{
							"internalType": "address",
							"name": "_player2address",
							"type": "address"
						},
						{
							"internalType": "uint256",
							"name": "_playerCount",
							"type": "uint256"
						},
						{
							"internalType": "address",
							"name": "_winer",
							"type": "address"
						},
						{
							"internalType": "uint256",
							"name": "_player1Bet",
							"type": "uint256"
						},
						{
							"internalType": "uint256",
							"name": "_player2Bet",
							"type": "uint256"
						},
						{
							"internalType": "uint256",
							"name": "_rewardAmount",
							"type": "uint256"
						}
					],
					"stateMutability": "view",
					"type": "function"
				},
				{
					"inputs": [],
					"name": "getAllGameInformation",
					"outputs": [
						{
							"components": [
								{
									"internalType": "bool",
									"name": "_activate",
									"type": "bool"
								},
								{
									"internalType": "string",
									"name": "_currentPlayer",
									"type": "string"
								},
								{
									"internalType": "string[]",
									"name": "_options",
									"type": "string[]"
								},
								{
									"internalType": "uint256[]",
									"name": "_finalWinOption",
									"type": "uint256[]"
								},
								{
									"internalType": "address",
									"name": "_player1address",
									"type": "address"
								},
								{
									"internalType": "address",
									"name": "_player2address",
									"type": "address"
								},
								{
									"internalType": "uint256",
									"name": "_playerCount",
									"type": "uint256"
								},
								{
									"internalType": "address",
									"name": "_winer",
									"type": "address"
								},
								{
									"internalType": "uint256",
									"name": "_player1Bet",
									"type": "uint256"
								},
								{
									"internalType": "uint256",
									"name": "_player2Bet",
									"type": "uint256"
								},
								{
									"internalType": "uint256",
									"name": "_rewardAmount",
									"type": "uint256"
								}
							],
							"internalType": "struct TickTackToe.GameInfo[]",
							"name": "",
							"type": "tuple[]"
						}
					],
					"stateMutability": "view",
					"type": "function"
				},
				{
					"inputs": [],
					"name": "getAllMoney",
					"outputs": [],
					"stateMutability": "nonpayable",
					"type": "function"
				},
				{
					"inputs": [],
					"name": "getExcessBalance",
					"outputs": [],
					"stateMutability": "nonpayable",
					"type": "function"
				},
				{
					"inputs": [
						{
							"internalType": "uint256",
							"name": "gameId",
							"type": "uint256"
						}
					],
					"name": "getFinalWinOption",
					"outputs": [
						{
							"internalType": "uint256[]",
							"name": "",
							"type": "uint256[]"
						}
					],
					"stateMutability": "view",
					"type": "function"
				},
				{
					"inputs": [
						{
							"internalType": "uint256",
							"name": "gameId",
							"type": "uint256"
						}
					],
					"name": "getGameInformation",
					"outputs": [
						{
							"components": [
								{
									"internalType": "bool",
									"name": "_activate",
									"type": "bool"
								},
								{
									"internalType": "string",
									"name": "_currentPlayer",
									"type": "string"
								},
								{
									"internalType": "string[]",
									"name": "_options",
									"type": "string[]"
								},
								{
									"internalType": "uint256[]",
									"name": "_finalWinOption",
									"type": "uint256[]"
								},
								{
									"internalType": "address",
									"name": "_player1address",
									"type": "address"
								},
								{
									"internalType": "address",
									"name": "_player2address",
									"type": "address"
								},
								{
									"internalType": "uint256",
									"name": "_playerCount",
									"type": "uint256"
								},
								{
									"internalType": "address",
									"name": "_winer",
									"type": "address"
								},
								{
									"internalType": "uint256",
									"name": "_player1Bet",
									"type": "uint256"
								},
								{
									"internalType": "uint256",
									"name": "_player2Bet",
									"type": "uint256"
								},
								{
									"internalType": "uint256",
									"name": "_rewardAmount",
									"type": "uint256"
								}
							],
							"internalType": "struct TickTackToe.GameInfo",
							"name": "",
							"type": "tuple"
						}
					],
					"stateMutability": "view",
					"type": "function"
				},
				{
					"inputs": [
						{
							"internalType": "uint256",
							"name": "gameId",
							"type": "uint256"
						}
					],
					"name": "getoption",
					"outputs": [
						{
							"internalType": "string[]",
							"name": "",
							"type": "string[]"
						}
					],
					"stateMutability": "view",
					"type": "function"
				},
				{
					"inputs": [
						{
							"internalType": "uint256",
							"name": "gameId",
							"type": "uint256"
						},
						{
							"internalType": "uint256",
							"name": "betAmount",
							"type": "uint256"
						}
					],
					"name": "joinGame",
					"outputs": [],
					"stateMutability": "nonpayable",
					"type": "function"
				},
				{
					"inputs": [],
					"name": "minBetAmount",
					"outputs": [
						{
							"internalType": "uint256",
							"name": "",
							"type": "uint256"
						}
					],
					"stateMutability": "view",
					"type": "function"
				},
				{
					"inputs": [],
					"name": "owner",
					"outputs": [
						{
							"internalType": "address",
							"name": "",
							"type": "address"
						}
					],
					"stateMutability": "view",
					"type": "function"
				},
				{
					"inputs": [
						{
							"internalType": "uint256",
							"name": "gameId",
							"type": "uint256"
						}
					],
					"name": "restartGame",
					"outputs": [],
					"stateMutability": "nonpayable",
					"type": "function"
				},
				{
					"inputs": [],
					"name": "totalAmount",
					"outputs": [
						{
							"internalType": "uint256",
							"name": "",
							"type": "uint256"
						}
					],
					"stateMutability": "view",
					"type": "function"
				},
				{
					"inputs": [],
					"name": "treasury",
					"outputs": [
						{
							"internalType": "address",
							"name": "",
							"type": "address"
						}
					],
					"stateMutability": "view",
					"type": "function"
				},
				{
					"inputs": [],
					"name": "treasuryFee",
					"outputs": [
						{
							"internalType": "uint256",
							"name": "",
							"type": "uint256"
						}
					],
					"stateMutability": "view",
					"type": "function"
				},
				{
					"inputs": [
						{
							"internalType": "uint256",
							"name": "input",
							"type": "uint256"
						},
						{
							"internalType": "uint256",
							"name": "gameId",
							"type": "uint256"
						}
					],
					"name": "userInput",
					"outputs": [],
					"stateMutability": "nonpayable",
					"type": "function"
				},
				{
					"inputs": [
						{
							"internalType": "uint256",
							"name": "gameId",
							"type": "uint256"
						}
					],
					"name": "validateRestartPlayer",
					"outputs": [],
					"stateMutability": "nonpayable",
					"type": "function"
				}
			],
			"devdoc": {
				"kind": "dev",
				"methods": {},
				"version": 1
			},
			"evm": {
				"assembly": "    /* \"Practical6-Apply-TTT-Token.sol\":169:244  IERC20 public TTTToken = IERC20(0xc6bDdCd0DA1c50281f02a57B8D2ada2ebF76AEC7) */\n  0x00\n  dup1\n  sload\n  not(sub(shl(0xa0, 0x01), 0x01))\n  swap1\n  dup2\n  and\n    /* \"Practical6-Apply-TTT-Token.sol\":201:243  0xc6bDdCd0DA1c50281f02a57B8D2ada2ebF76AEC7 */\n  0xc6bddcd0da1c50281f02a57b8d2ada2ebf76aec7\n    /* \"Practical6-Apply-TTT-Token.sol\":169:244  IERC20 public TTTToken = IERC20(0xc6bDdCd0DA1c50281f02a57B8D2ada2ebF76AEC7) */\n  or\n  dup3\n  sstore\n    /* \"Practical6-Apply-TTT-Token.sol\":313:321  10 ether */\n  0x8ac7230489e80000\n    /* \"Practical6-Apply-TTT-Token.sol\":169:244  IERC20 public TTTToken = IERC20(0xc6bDdCd0DA1c50281f02a57B8D2ada2ebF76AEC7) */\n  0x01\n    /* \"Practical6-Apply-TTT-Token.sol\":283:321  uint256 public minBetAmount = 10 ether */\n  swap1\n  dup2\n  sstore\n    /* \"Practical6-Apply-TTT-Token.sol\":334:402  address public treasury = 0x3cE5a8a72820585C60F659896338D57347196991 */\n  0x02\n  dup1\n  sload\n  swap1\n  swap3\n  and\n    /* \"Practical6-Apply-TTT-Token.sol\":360:402  0x3cE5a8a72820585C60F659896338D57347196991 */\n  0x3ce5a8a72820585c60f659896338d57347196991\n    /* \"Practical6-Apply-TTT-Token.sol\":334:402  address public treasury = 0x3cE5a8a72820585C60F659896338D57347196991 */\n  or\n  dup3\n  sstore\n    /* \"Practical6-Apply-TTT-Token.sol\":438:439  5 */\n  0x05\n    /* \"Practical6-Apply-TTT-Token.sol\":413:439  uint256 public burnFee = 5 */\n  0x03\n  dup2\n  dup2\n  sstore\n    /* \"Practical6-Apply-TTT-Token.sol\":450:480  uint256 public treasuryFee = 5 */\n  0x04\n  dup3\n  dup2\n  sstore\n    /* \"Practical6-Apply-TTT-Token.sol\":1715:2010  uint[][] private winConditionSet=  ... */\n  0x0180\n  dup7\n  dup2\n  mstore\n  0x01a0\n  dup6\n  swap1\n  mstore\n  0x01c0\n  dup7\n  swap1\n  mstore\n    /* \"Practical6-Apply-TTT-Token.sol\":138:14669  contract TickTackToe{... */\n  0x80\n    /* \"Practical6-Apply-TTT-Token.sol\":1715:2010  uint[][] private winConditionSet=  ... */\n  swap1\n  dup2\n  mstore\n  0x01e0\n  dup4\n  dup2\n  mstore\n  0x0200\n  dup4\n  swap1\n  mstore\n  0x0220\n  dup6\n  swap1\n  mstore\n  0xa0\n  mstore\n    /* \"Practical6-Apply-TTT-Token.sol\":1832:1833  6 */\n  0x06\n    /* \"Practical6-Apply-TTT-Token.sol\":1715:2010  uint[][] private winConditionSet=  ... */\n  0x0240\n  dup2\n  dup2\n  mstore\n    /* \"Practical6-Apply-TTT-Token.sol\":1835:1836  7 */\n  0x07\n    /* \"Practical6-Apply-TTT-Token.sol\":1715:2010  uint[][] private winConditionSet=  ... */\n  0x0260\n  dup2\n  swap1\n  mstore\n    /* \"Practical6-Apply-TTT-Token.sol\":1838:1839  8 */\n  0x08\n    /* \"Practical6-Apply-TTT-Token.sol\":1715:2010  uint[][] private winConditionSet=  ... */\n  0x0280\n  dup2\n  swap1\n  mstore\n  0xc0\n  swap3\n  swap1\n  swap3\n  mstore\n  0x02a0\n  dup11\n  dup2\n  mstore\n  0x02c0\n  swap7\n  swap1\n  swap7\n  mstore\n  0x02e0\n  dup4\n  swap1\n  mstore\n  0xe0\n  swap6\n  swap1\n  swap6\n  mstore\n  0x0300\n  swap7\n  dup8\n  mstore\n  0x0320\n  dup5\n  swap1\n  mstore\n  0x0340\n  swap5\n  swap1\n  swap5\n  mstore\n    /* \"Practical6-Apply-TTT-Token.sol\":169:244  IERC20 public TTTToken = IERC20(0xc6bDdCd0DA1c50281f02a57B8D2ada2ebF76AEC7) */\n  0x0100\n    /* \"Practical6-Apply-TTT-Token.sol\":1715:2010  uint[][] private winConditionSet=  ... */\n  swap6\n  swap1\n  swap6\n  mstore\n  0x0360\n  dup7\n  dup2\n  mstore\n  0x0380\n  swap5\n  swap1\n  swap5\n  mstore\n  0x03a0\n  dup4\n  swap1\n  mstore\n  0x0120\n  swap4\n  swap1\n  swap4\n  mstore\n  0x03c0\n  swap6\n  dup7\n  mstore\n  0x03e0\n  dup2\n  swap1\n  mstore\n  0x0400\n  dup3\n  swap1\n  mstore\n  0x0140\n  swap6\n  swap1\n  swap6\n  mstore\n  0x0480\n    /* \"Practical6-Apply-TTT-Token.sol\":138:14669  contract TickTackToe{... */\n  0x40\n    /* \"Practical6-Apply-TTT-Token.sol\":1715:2010  uint[][] private winConditionSet=  ... */\n  mstore\n  0x0420\n  swap4\n  dup5\n  mstore\n  0x0440\n  swap5\n  swap1\n  swap5\n  mstore\n  0x0460\n  swap2\n  swap1\n  swap2\n  mstore\n  0x0160\n  swap2\n  swap1\n  swap2\n  mstore\n  tag_1\n  swap2\n    /* \"Practical6-Apply-TTT-Token.sol\":1838:1839  8 */\n  swap1\n  dup2\n    /* \"Practical6-Apply-TTT-Token.sol\":1715:2010  uint[][] private winConditionSet=  ... */\n  tag_2\n  jump\t// in\ntag_1:\n  pop\n    /* \"Practical6-Apply-TTT-Token.sol\":2727:2786  constructor() {... */\n  callvalue\n  dup1\n  iszero\n  tag_3\n  jumpi\n  0x00\n  dup1\n  revert\ntag_3:\n  pop\n    /* \"Practical6-Apply-TTT-Token.sol\":2756:2761  owner */\n  0x06\n    /* \"Practical6-Apply-TTT-Token.sol\":2756:2774  owner = msg.sender */\n  dup1\n  sload\n  not(sub(shl(0xa0, 0x01), 0x01))\n  and\n    /* \"Practical6-Apply-TTT-Token.sol\":2764:2774  msg.sender */\n  caller\n    /* \"Practical6-Apply-TTT-Token.sol\":2756:2774  owner = msg.sender */\n  or\n  swap1\n  sstore\n    /* \"Practical6-Apply-TTT-Token.sol\":138:14669  contract TickTackToe{... */\n  jump(tag_6)\ntag_2:\n  dup3\n  dup1\n  sload\n  dup3\n  dup3\n  sstore\n  swap1\n  0x00\n  mstore\n  keccak256(0x00, 0x20)\n  swap1\n  dup2\n  add\n  swap3\n  dup3\n  iszero\n  tag_9\n  jumpi\n  swap2\n  0x20\n  mul\n  dup3\n  add\ntag_8:\n  dup3\n  dup2\n  gt\n  iszero\n  tag_9\n  jumpi\n  dup3\n  mload\n  tag_10\n  swap1\n  dup4\n  swap1\n  0x03\n  tag_11\n  jump\t// in\ntag_10:\n  pop\n  swap2\n  0x20\n  add\n  swap2\n  swap1\n  0x01\n  add\n  swap1\n  jump(tag_8)\ntag_9:\n  pop\n  tag_12\n  swap3\n  swap2\n  pop\n  tag_13\n  jump\t// in\ntag_12:\n  pop\n  swap1\n  jump\t// out\ntag_11:\n  dup3\n  dup1\n  sload\n  dup3\n  dup3\n  sstore\n  swap1\n  0x00\n  mstore\n  keccak256(0x00, 0x20)\n  swap1\n  dup2\n  add\n  swap3\n  dup3\n  iszero\n  tag_16\n  jumpi\n  swap2\n  0x20\n  mul\n  dup3\n  add\ntag_15:\n  dup3\n  dup2\n  gt\n  iszero\n  tag_16\n  jumpi\n  dup3\n  mload\n  dup3\n  swap1\n  0xff\n  and\n  swap1\n  sstore\n  swap2\n  0x20\n  add\n  swap2\n  swap1\n  0x01\n  add\n  swap1\n  jump(tag_15)\ntag_16:\n  pop\n  tag_12\n  swap3\n  swap2\n  pop\n  tag_18\n  jump\t// in\ntag_13:\n  dup1\n  dup3\n  gt\n  iszero\n  tag_12\n  jumpi\n  0x00\n  tag_21\n  dup3\n  dup3\n  tag_22\n  jump\t// in\ntag_21:\n  pop\n  0x01\n  add\n  jump(tag_13)\ntag_18:\ntag_23:\n  dup1\n  dup3\n  gt\n  iszero\n  tag_12\n  jumpi\n  0x00\n  dup2\n  sstore\n  0x01\n  add\n  jump(tag_23)\ntag_22:\n  pop\n  dup1\n  sload\n  0x00\n  dup3\n  sstore\n  swap1\n  0x00\n  mstore\n  keccak256(0x00, 0x20)\n  swap1\n  dup2\n  add\n  swap1\n  tag_26\n  swap2\n  swap1\n  tag_18\n  jump\t// in\ntag_26:\n  pop\n  jump\t// out\ntag_6:\n  dataSize(sub_0)\n  dup1\n  dataOffset(sub_0)\n  0x00\n  codecopy\n  0x00\n  return\nstop\n\nsub_0: assembly {\n        /* \"Practical6-Apply-TTT-Token.sol\":138:14669  contract TickTackToe{... */\n      mstore(0x40, 0x80)\n      callvalue\n      dup1\n      iszero\n      tag_1\n      jumpi\n      0x00\n      dup1\n      revert\n    tag_1:\n      pop\n      jumpi(tag_2, lt(calldatasize, 0x04))\n      shr(0xe0, calldataload(0x00))\n      dup1\n      0x888b042f\n      gt\n      tag_23\n      jumpi\n      dup1\n      0xcc32d176\n      gt\n      tag_24\n      jumpi\n      dup1\n      0xcc32d176\n      eq\n      tag_18\n      jumpi\n      dup1\n      0xdc572c6e\n      eq\n      tag_19\n      jumpi\n      dup1\n      0xedb84ff7\n      eq\n      tag_20\n      jumpi\n      dup1\n      0xfa968eea\n      eq\n      tag_21\n      jumpi\n      dup1\n      0xfce589d8\n      eq\n      tag_22\n      jumpi\n      0x00\n      dup1\n      revert\n    tag_24:\n      dup1\n      0x888b042f\n      eq\n      tag_13\n      jumpi\n      dup1\n      0x8da5cb5b\n      eq\n      tag_14\n      jumpi\n      dup1\n      0xb2182be4\n      eq\n      tag_15\n      jumpi\n      dup1\n      0xb60b9fcb\n      eq\n      tag_16\n      jumpi\n      dup1\n      0xbed34bba\n      eq\n      tag_17\n      jumpi\n      0x00\n      dup1\n      revert\n    tag_23:\n      dup1\n      0x4a968391\n      gt\n      tag_25\n      jumpi\n      dup1\n      0x4a968391\n      eq\n      tag_8\n      jumpi\n      dup1\n      0x52bc3410\n      eq\n      tag_9\n      jumpi\n      dup1\n      0x61d027b3\n      eq\n      tag_10\n      jumpi\n      dup1\n      0x7effb427\n      eq\n      tag_11\n      jumpi\n      dup1\n      0x87052fab\n      eq\n      tag_12\n      jumpi\n      0x00\n      dup1\n      revert\n    tag_25:\n      dup1\n      0x06139e8d\n      eq\n      tag_3\n      jumpi\n      dup1\n      0x17b44960\n      eq\n      tag_4\n      jumpi\n      dup1\n      0x1a39d8ef\n      eq\n      tag_5\n      jumpi\n      dup1\n      0x34fd3518\n      eq\n      tag_6\n      jumpi\n      dup1\n      0x491f0136\n      eq\n      tag_7\n      jumpi\n    tag_2:\n      0x00\n      dup1\n      revert\n        /* \"Practical6-Apply-TTT-Token.sol\":4331:5845  function createGameRoom(uint256 betAmount) external noReentrancy {... */\n    tag_3:\n      tag_26\n      tag_27\n      calldatasize\n      0x04\n      tag_28\n      jump\t// in\n    tag_27:\n      tag_29\n      jump\t// in\n    tag_26:\n      stop\n        /* \"Practical6-Apply-TTT-Token.sol\":3842:3993  function getFinalWinOption (uint gameId) external view returns (uint[] memory){... */\n    tag_4:\n      tag_30\n      tag_31\n      calldatasize\n      0x04\n      tag_28\n      jump\t// in\n    tag_31:\n      tag_32\n      jump\t// in\n    tag_30:\n      mload(0x40)\n      tag_33\n      swap2\n      swap1\n      tag_34\n      jump\t// in\n    tag_33:\n      mload(0x40)\n      dup1\n      swap2\n      sub\n      swap1\n      return\n        /* \"Practical6-Apply-TTT-Token.sol\":493:519  uint256 public totalAmount */\n    tag_5:\n      tag_35\n      sload(0x05)\n      dup2\n      jump\n    tag_35:\n      mload(0x40)\n        /* \"#utility.yul\":982:1007   */\n      swap1\n      dup2\n      mstore\n        /* \"#utility.yul\":970:972   */\n      0x20\n        /* \"#utility.yul\":955:973   */\n      add\n        /* \"Practical6-Apply-TTT-Token.sol\":493:519  uint256 public totalAmount */\n      tag_33\n        /* \"#utility.yul\":836:1013   */\n      jump\n        /* \"Practical6-Apply-TTT-Token.sol\":13679:14021  function validateRestartPlayer (uint gameId) public {... */\n    tag_6:\n      tag_26\n      tag_40\n      calldatasize\n      0x04\n      tag_28\n      jump\t// in\n    tag_40:\n      tag_41\n      jump\t// in\n        /* \"Practical6-Apply-TTT-Token.sol\":4163:4287  function getAllGameInformation () external view returns (GameInfo[] memory){... */\n    tag_7:\n      tag_42\n      tag_43\n      jump\t// in\n    tag_42:\n      mload(0x40)\n      tag_33\n      swap2\n      swap1\n      tag_45\n      jump\t// in\n        /* \"Practical6-Apply-TTT-Token.sol\":14372:14660  function restartGame(uint gameId) public {... */\n    tag_8:\n      tag_26\n      tag_47\n      calldatasize\n      0x04\n      tag_28\n      jump\t// in\n    tag_47:\n      tag_48\n      jump\t// in\n        /* \"Practical6-Apply-TTT-Token.sol\":7992:9038  function userInput(uint input, uint gameId) external {... */\n    tag_9:\n      tag_26\n      tag_50\n      calldatasize\n      0x04\n      tag_51\n      jump\t// in\n    tag_50:\n      tag_52\n      jump\t// in\n        /* \"Practical6-Apply-TTT-Token.sol\":334:402  address public treasury = 0x3cE5a8a72820585C60F659896338D57347196991 */\n    tag_10:\n      sload(0x02)\n      tag_53\n      swap1\n      sub(shl(0xa0, 0x01), 0x01)\n      and\n      dup2\n      jump\n    tag_53:\n      mload(0x40)\n      sub(shl(0xa0, 0x01), 0x01)\n        /* \"#utility.yul\":5346:5378   */\n      swap1\n      swap2\n      and\n        /* \"#utility.yul\":5328:5379   */\n      dup2\n      mstore\n        /* \"#utility.yul\":5316:5318   */\n      0x20\n        /* \"#utility.yul\":5301:5319   */\n      add\n        /* \"Practical6-Apply-TTT-Token.sol\":334:402  address public treasury = 0x3cE5a8a72820585C60F659896338D57347196991 */\n      tag_33\n        /* \"#utility.yul\":5182:5385   */\n      jump\n        /* \"Practical6-Apply-TTT-Token.sol\":169:244  IERC20 public TTTToken = IERC20(0xc6bDdCd0DA1c50281f02a57B8D2ada2ebF76AEC7) */\n    tag_11:\n      sload(0x00)\n      tag_53\n      swap1\n      sub(shl(0xa0, 0x01), 0x01)\n      and\n      dup2\n      jump\n        /* \"Practical6-Apply-TTT-Token.sol\":1065:1098  GameInfo[] public gameInformation */\n    tag_12:\n      tag_61\n      tag_62\n      calldatasize\n      0x04\n      tag_28\n      jump\t// in\n    tag_62:\n      tag_63\n      jump\t// in\n    tag_61:\n      mload(0x40)\n      tag_33\n      swap10\n      swap9\n      swap8\n      swap7\n      swap6\n      swap5\n      swap4\n      swap3\n      swap2\n      swap1\n      tag_65\n      jump\t// in\n        /* \"Practical6-Apply-TTT-Token.sol\":2973:3220  function getExcessBalance() external onlyOwner{... */\n    tag_13:\n      tag_26\n      tag_67\n      jump\t// in\n        /* \"Practical6-Apply-TTT-Token.sol\":532:552  address public owner */\n    tag_14:\n      sload(0x06)\n      tag_53\n      swap1\n      sub(shl(0xa0, 0x01), 0x01)\n      and\n      dup2\n      jump\n        /* \"Practical6-Apply-TTT-Token.sol\":4005:4143  function getGameInformation (uint gameId) external view returns (GameInfo memory){... */\n    tag_15:\n      tag_71\n      tag_72\n      calldatasize\n      0x04\n      tag_28\n      jump\t// in\n    tag_72:\n      tag_73\n      jump\t// in\n    tag_71:\n      mload(0x40)\n      tag_33\n      swap2\n      swap1\n      tag_75\n      jump\t// in\n        /* \"Practical6-Apply-TTT-Token.sol\":5880:7874  function joinGame (uint gameId, uint256 betAmount) external noReentrancy {... */\n    tag_16:\n      tag_26\n      tag_77\n      calldatasize\n      0x04\n      tag_51\n      jump\t// in\n    tag_77:\n      tag_78\n      jump\t// in\n        /* \"Practical6-Apply-TTT-Token.sol\":13400:13659  function compareStrings(string memory a, string memory b) public pure returns (bool) {... */\n    tag_17:\n      tag_79\n      tag_80\n      calldatasize\n      0x04\n      tag_81\n      jump\t// in\n    tag_80:\n      tag_82\n      jump\t// in\n    tag_79:\n      mload(0x40)\n        /* \"#utility.yul\":8339:8353   */\n      swap1\n      iszero\n        /* \"#utility.yul\":8332:8354   */\n      iszero\n        /* \"#utility.yul\":8314:8355   */\n      dup2\n      mstore\n        /* \"#utility.yul\":8302:8304   */\n      0x20\n        /* \"#utility.yul\":8287:8305   */\n      add\n        /* \"Practical6-Apply-TTT-Token.sol\":13400:13659  function compareStrings(string memory a, string memory b) public pure returns (bool) {... */\n      tag_33\n        /* \"#utility.yul\":8174:8361   */\n      jump\n        /* \"Practical6-Apply-TTT-Token.sol\":450:480  uint256 public treasuryFee = 5 */\n    tag_18:\n      tag_35\n      sload(0x04)\n      dup2\n      jump\n        /* \"Practical6-Apply-TTT-Token.sol\":3645:3783  function getoption (uint gameId) external view returns (string[] memory){... */\n    tag_19:\n      tag_88\n      tag_89\n      calldatasize\n      0x04\n      tag_28\n      jump\t// in\n    tag_89:\n      tag_90\n      jump\t// in\n    tag_88:\n      mload(0x40)\n      tag_33\n      swap2\n      swap1\n      tag_92\n      jump\t// in\n        /* \"Practical6-Apply-TTT-Token.sol\":2834:2961  function getAllMoney() external onlyOwner{... */\n    tag_20:\n      tag_26\n      tag_94\n      jump\t// in\n        /* \"Practical6-Apply-TTT-Token.sol\":283:321  uint256 public minBetAmount = 10 ether */\n    tag_21:\n      tag_35\n      sload(0x01)\n      dup2\n      jump\n        /* \"Practical6-Apply-TTT-Token.sol\":413:439  uint256 public burnFee = 5 */\n    tag_22:\n      tag_35\n      sload(0x03)\n      dup2\n      jump\n        /* \"Practical6-Apply-TTT-Token.sol\":4331:5845  function createGameRoom(uint256 betAmount) external noReentrancy {... */\n    tag_29:\n        /* \"Practical6-Apply-TTT-Token.sol\":3478:3484  locked */\n      sload(0x06)\n      shl(0xa0, 0x01)\n      swap1\n      div\n      0xff\n      and\n        /* \"Practical6-Apply-TTT-Token.sol\":3477:3484  !locked */\n      iszero\n        /* \"Practical6-Apply-TTT-Token.sol\":3469:3510  require(!locked, \"Error: Reentrant call\") */\n      tag_102\n      jumpi\n      mload(0x40)\n      shl(0xe5, 0x461bcd)\n      dup2\n      mstore\n        /* \"#utility.yul\":9376:9378   */\n      0x20\n        /* \"Practical6-Apply-TTT-Token.sol\":3469:3510  require(!locked, \"Error: Reentrant call\") */\n      0x04\n      dup3\n      add\n        /* \"#utility.yul\":9358:9379   */\n      mstore\n        /* \"#utility.yul\":9415:9417   */\n      0x15\n        /* \"#utility.yul\":9395:9413   */\n      0x24\n      dup3\n      add\n        /* \"#utility.yul\":9388:9418   */\n      mstore\n      shl(0x5a, 0x115c9c9bdc8e881499595b9d1c985b9d0818d85b1b)\n        /* \"#utility.yul\":9434:9452   */\n      0x44\n      dup3\n      add\n        /* \"#utility.yul\":9427:9478   */\n      mstore\n        /* \"#utility.yul\":9495:9513   */\n      0x64\n      add\n        /* \"Practical6-Apply-TTT-Token.sol\":3469:3510  require(!locked, \"Error: Reentrant call\") */\n    tag_103:\n      mload(0x40)\n      dup1\n      swap2\n      sub\n      swap1\n      revert\n    tag_102:\n        /* \"Practical6-Apply-TTT-Token.sol\":3525:3531  locked */\n      0x06\n        /* \"Practical6-Apply-TTT-Token.sol\":3525:3538  locked = true */\n      dup1\n      sload\n      not(shl(0xa0, 0xff))\n      and\n      shl(0xa0, 0x01)\n      or\n      swap1\n      sstore\n      0x00\n        /* \"Practical6-Apply-TTT-Token.sol\":4419:4427  TTTToken */\n      sload\n        /* \"Practical6-Apply-TTT-Token.sol\":4419:4449  TTTToken.balanceOf(msg.sender) */\n      mload(0x40)\n      shl(0xe0, 0x70a08231)\n      dup2\n      mstore\n        /* \"Practical6-Apply-TTT-Token.sol\":4438:4448  msg.sender */\n      caller\n        /* \"Practical6-Apply-TTT-Token.sol\":4419:4449  TTTToken.balanceOf(msg.sender) */\n      0x04\n      dup3\n      add\n        /* \"#utility.yul\":5328:5379   */\n      mstore\n        /* \"Practical6-Apply-TTT-Token.sol\":4453:4462  betAmount */\n      dup3\n      swap2\n      sub(shl(0xa0, 0x01), 0x01)\n        /* \"Practical6-Apply-TTT-Token.sol\":4419:4427  TTTToken */\n      and\n      swap1\n        /* \"Practical6-Apply-TTT-Token.sol\":4419:4437  TTTToken.balanceOf */\n      0x70a08231\n      swap1\n        /* \"#utility.yul\":5301:5319   */\n      0x24\n      add\n        /* \"Practical6-Apply-TTT-Token.sol\":4419:4449  TTTToken.balanceOf(msg.sender) */\n      0x20\n      mload(0x40)\n      dup1\n      dup4\n      sub\n      dup2\n      dup7\n      gas\n      staticcall\n      iszero\n      dup1\n      iszero\n      tag_108\n      jumpi\n      returndatasize\n      0x00\n      dup1\n      returndatacopy\n      revert(0x00, returndatasize)\n    tag_108:\n      pop\n      pop\n      pop\n      pop\n      mload(0x40)\n      returndatasize\n      not(0x1f)\n      0x1f\n      dup3\n      add\n      and\n      dup3\n      add\n      dup1\n      0x40\n      mstore\n      pop\n      dup2\n      add\n      swap1\n      tag_109\n      swap2\n      swap1\n      tag_110\n      jump\t// in\n    tag_109:\n        /* \"Practical6-Apply-TTT-Token.sol\":4419:4462  TTTToken.balanceOf(msg.sender) >= betAmount */\n      lt\n      iszero\n        /* \"Practical6-Apply-TTT-Token.sol\":4411:4485  require(TTTToken.balanceOf(msg.sender) >= betAmount, \"Not enough balance\") */\n      tag_111\n      jumpi\n      mload(0x40)\n      shl(0xe5, 0x461bcd)\n      dup2\n      mstore\n        /* \"#utility.yul\":9915:9917   */\n      0x20\n        /* \"Practical6-Apply-TTT-Token.sol\":4411:4485  require(TTTToken.balanceOf(msg.sender) >= betAmount, \"Not enough balance\") */\n      0x04\n      dup3\n      add\n        /* \"#utility.yul\":9897:9918   */\n      mstore\n        /* \"#utility.yul\":9954:9956   */\n      0x12\n        /* \"#utility.yul\":9934:9952   */\n      0x24\n      dup3\n      add\n        /* \"#utility.yul\":9927:9957   */\n      mstore\n      shl(0x70, 0x4e6f7420656e6f7567682062616c616e6365)\n        /* \"#utility.yul\":9973:9991   */\n      0x44\n      dup3\n      add\n        /* \"#utility.yul\":9966:10014   */\n      mstore\n        /* \"#utility.yul\":10031:10049   */\n      0x64\n      add\n        /* \"Practical6-Apply-TTT-Token.sol\":4411:4485  require(TTTToken.balanceOf(msg.sender) >= betAmount, \"Not enough balance\") */\n      tag_103\n        /* \"#utility.yul\":9713:10055   */\n      jump\n        /* \"Practical6-Apply-TTT-Token.sol\":4411:4485  require(TTTToken.balanceOf(msg.sender) >= betAmount, \"Not enough balance\") */\n    tag_111:\n        /* \"Practical6-Apply-TTT-Token.sol\":4521:4533  minBetAmount */\n      sload(0x01)\n        /* \"Practical6-Apply-TTT-Token.sol\":4508:4517  betAmount */\n      dup2\n        /* \"Practical6-Apply-TTT-Token.sol\":4508:4533  betAmount >= minBetAmount */\n      lt\n      iszero\n        /* \"Practical6-Apply-TTT-Token.sol\":4500:4564  require(betAmount >= minBetAmount, \"Need to pay min bet amount\") */\n      tag_114\n      jumpi\n      mload(0x40)\n      shl(0xe5, 0x461bcd)\n      dup2\n      mstore\n        /* \"#utility.yul\":10262:10264   */\n      0x20\n        /* \"Practical6-Apply-TTT-Token.sol\":4500:4564  require(betAmount >= minBetAmount, \"Need to pay min bet amount\") */\n      0x04\n      dup3\n      add\n        /* \"#utility.yul\":10244:10265   */\n      mstore\n        /* \"#utility.yul\":10301:10303   */\n      0x1a\n        /* \"#utility.yul\":10281:10299   */\n      0x24\n      dup3\n      add\n        /* \"#utility.yul\":10274:10304   */\n      mstore\n        /* \"#utility.yul\":10340:10368   */\n      0x4e65656420746f20706179206d696e2062657420616d6f756e74000000000000\n        /* \"#utility.yul\":10320:10338   */\n      0x44\n      dup3\n      add\n        /* \"#utility.yul\":10313:10369   */\n      mstore\n        /* \"#utility.yul\":10386:10404   */\n      0x64\n      add\n        /* \"Practical6-Apply-TTT-Token.sol\":4500:4564  require(betAmount >= minBetAmount, \"Need to pay min bet amount\") */\n      tag_103\n        /* \"#utility.yul\":10060:10410   */\n      jump\n        /* \"Practical6-Apply-TTT-Token.sol\":4500:4564  require(betAmount >= minBetAmount, \"Need to pay min bet amount\") */\n    tag_114:\n        /* \"Practical6-Apply-TTT-Token.sol\":4581:4589  TTTToken */\n      sload(0x00)\n        /* \"Practical6-Apply-TTT-Token.sol\":4581:4620  TTTToken.approve(msg.sender, betAmount) */\n      mload(0x40)\n      shl(0xe0, 0x095ea7b3)\n      dup2\n      mstore\n        /* \"Practical6-Apply-TTT-Token.sol\":4598:4608  msg.sender */\n      caller\n        /* \"Practical6-Apply-TTT-Token.sol\":4581:4620  TTTToken.approve(msg.sender, betAmount) */\n      0x04\n      dup3\n      add\n        /* \"#utility.yul\":10589:10640   */\n      mstore\n        /* \"#utility.yul\":10656:10674   */\n      0x24\n      dup2\n      add\n        /* \"#utility.yul\":10649:10683   */\n      dup4\n      swap1\n      mstore\n      sub(shl(0xa0, 0x01), 0x01)\n        /* \"Practical6-Apply-TTT-Token.sol\":4581:4589  TTTToken */\n      swap1\n      swap2\n      and\n      swap1\n        /* \"Practical6-Apply-TTT-Token.sol\":4581:4597  TTTToken.approve */\n      0x095ea7b3\n      swap1\n        /* \"#utility.yul\":10562:10580   */\n      0x44\n      add\n        /* \"Practical6-Apply-TTT-Token.sol\":4581:4620  TTTToken.approve(msg.sender, betAmount) */\n      0x20\n      mload(0x40)\n      dup1\n      dup4\n      sub\n      dup2\n      0x00\n      dup8\n      gas\n      call\n      iszero\n      dup1\n      iszero\n      tag_120\n      jumpi\n      returndatasize\n      0x00\n      dup1\n      returndatacopy\n      revert(0x00, returndatasize)\n    tag_120:\n      pop\n      pop\n      pop\n      pop\n      mload(0x40)\n      returndatasize\n      not(0x1f)\n      0x1f\n      dup3\n      add\n      and\n      dup3\n      add\n      dup1\n      0x40\n      mstore\n      pop\n      dup2\n      add\n      swap1\n      tag_121\n      swap2\n      swap1\n      tag_122\n      jump\t// in\n    tag_121:\n      pop\n        /* \"Practical6-Apply-TTT-Token.sol\":4637:4655  uint256 burnAmount */\n      0x00\n        /* \"Practical6-Apply-TTT-Token.sol\":4682:4685  100 */\n      0x64\n        /* \"Practical6-Apply-TTT-Token.sol\":4671:4678  burnFee */\n      sload(0x03)\n        /* \"Practical6-Apply-TTT-Token.sol\":4659:4668  betAmount */\n      dup4\n        /* \"Practical6-Apply-TTT-Token.sol\":4659:4678  betAmount * burnFee */\n      tag_123\n      swap2\n      swap1\n      tag_124\n      jump\t// in\n    tag_123:\n        /* \"Practical6-Apply-TTT-Token.sol\":4658:4685  (betAmount * burnFee) / 100 */\n      tag_125\n      swap2\n      swap1\n      tag_126\n      jump\t// in\n    tag_125:\n        /* \"Practical6-Apply-TTT-Token.sol\":4637:4685  uint256 burnAmount = (betAmount * burnFee) / 100 */\n      swap1\n      pop\n        /* \"Practical6-Apply-TTT-Token.sol\":4700:4722  uint256 treasuryAmount */\n      0x00\n        /* \"Practical6-Apply-TTT-Token.sol\":4753:4756  100 */\n      0x64\n        /* \"Practical6-Apply-TTT-Token.sol\":4738:4749  treasuryFee */\n      sload(0x04)\n        /* \"Practical6-Apply-TTT-Token.sol\":4726:4735  betAmount */\n      dup5\n        /* \"Practical6-Apply-TTT-Token.sol\":4726:4749  betAmount * treasuryFee */\n      tag_127\n      swap2\n      swap1\n      tag_124\n      jump\t// in\n    tag_127:\n        /* \"Practical6-Apply-TTT-Token.sol\":4725:4756  (betAmount * treasuryFee) / 100 */\n      tag_128\n      swap2\n      swap1\n      tag_126\n      jump\t// in\n    tag_128:\n        /* \"Practical6-Apply-TTT-Token.sol\":4700:4756  uint256 treasuryAmount = (betAmount * treasuryFee) / 100 */\n      swap1\n      pop\n        /* \"Practical6-Apply-TTT-Token.sol\":4771:4791  uint256 rewardAmount */\n      0x00\n        /* \"Practical6-Apply-TTT-Token.sol\":4700:4756  uint256 treasuryAmount = (betAmount * treasuryFee) / 100 */\n      dup2\n        /* \"Practical6-Apply-TTT-Token.sol\":4794:4816  betAmount - burnAmount */\n      tag_129\n        /* \"Practical6-Apply-TTT-Token.sol\":4806:4816  burnAmount */\n      dup5\n        /* \"Practical6-Apply-TTT-Token.sol\":4794:4803  betAmount */\n      dup7\n        /* \"Practical6-Apply-TTT-Token.sol\":4794:4816  betAmount - burnAmount */\n      tag_130\n      jump\t// in\n    tag_129:\n        /* \"Practical6-Apply-TTT-Token.sol\":4794:4833  betAmount - burnAmount - treasuryAmount */\n      tag_131\n      swap2\n      swap1\n      tag_130\n      jump\t// in\n    tag_131:\n        /* \"Practical6-Apply-TTT-Token.sol\":4850:4858  TTTToken */\n      sload(0x00)\n        /* \"Practical6-Apply-TTT-Token.sol\":4850:4912  TTTToken.transferFrom(msg.sender, address(0xdead), burnAmount) */\n      mload(0x40)\n      shl(0xe0, 0x23b872dd)\n      dup2\n      mstore\n        /* \"Practical6-Apply-TTT-Token.sol\":4771:4833  uint256 rewardAmount = betAmount - burnAmount - treasuryAmount */\n      swap2\n      swap3\n      pop\n      sub(shl(0xa0, 0x01), 0x01)\n        /* \"Practical6-Apply-TTT-Token.sol\":4850:4858  TTTToken */\n      and\n      swap1\n        /* \"Practical6-Apply-TTT-Token.sol\":4850:4871  TTTToken.transferFrom */\n      0x23b872dd\n      swap1\n        /* \"Practical6-Apply-TTT-Token.sol\":4850:4912  TTTToken.transferFrom(msg.sender, address(0xdead), burnAmount) */\n      tag_132\n      swap1\n        /* \"Practical6-Apply-TTT-Token.sol\":4872:4882  msg.sender */\n      caller\n      swap1\n        /* \"Practical6-Apply-TTT-Token.sol\":4892:4898  0xdead */\n      0xdead\n      swap1\n        /* \"Practical6-Apply-TTT-Token.sol\":4901:4911  burnAmount */\n      dup9\n      swap1\n        /* \"Practical6-Apply-TTT-Token.sol\":4850:4912  TTTToken.transferFrom(msg.sender, address(0xdead), burnAmount) */\n      0x04\n      add\n      tag_133\n      jump\t// in\n    tag_132:\n      0x20\n      mload(0x40)\n      dup1\n      dup4\n      sub\n      dup2\n      0x00\n      dup8\n      gas\n      call\n      iszero\n      dup1\n      iszero\n      tag_135\n      jumpi\n      returndatasize\n      0x00\n      dup1\n      returndatacopy\n      revert(0x00, returndatasize)\n    tag_135:\n      pop\n      pop\n      pop\n      pop\n      mload(0x40)\n      returndatasize\n      not(0x1f)\n      0x1f\n      dup3\n      add\n      and\n      dup3\n      add\n      dup1\n      0x40\n      mstore\n      pop\n      dup2\n      add\n      swap1\n      tag_136\n      swap2\n      swap1\n      tag_122\n      jump\t// in\n    tag_136:\n      pop\n        /* \"Practical6-Apply-TTT-Token.sol\":4927:4935  TTTToken */\n      sload(0x00)\n        /* \"Practical6-Apply-TTT-Token.sol\":4961:4969  treasury */\n      sload(0x02)\n        /* \"Practical6-Apply-TTT-Token.sol\":4927:4986  TTTToken.transferFrom(msg.sender, treasury, treasuryAmount) */\n      mload(0x40)\n      shl(0xe0, 0x23b872dd)\n      dup2\n      mstore\n      sub(shl(0xa0, 0x01), 0x01)\n        /* \"Practical6-Apply-TTT-Token.sol\":4927:4935  TTTToken */\n      swap3\n      dup4\n      and\n      swap3\n        /* \"Practical6-Apply-TTT-Token.sol\":4927:4948  TTTToken.transferFrom */\n      0x23b872dd\n      swap3\n        /* \"Practical6-Apply-TTT-Token.sol\":4927:4986  TTTToken.transferFrom(msg.sender, treasury, treasuryAmount) */\n      tag_137\n      swap3\n        /* \"Practical6-Apply-TTT-Token.sol\":4949:4959  msg.sender */\n      caller\n      swap3\n        /* \"Practical6-Apply-TTT-Token.sol\":4961:4969  treasury */\n      swap1\n      swap2\n      and\n      swap1\n        /* \"Practical6-Apply-TTT-Token.sol\":4971:4985  treasuryAmount */\n      dup8\n      swap1\n        /* \"Practical6-Apply-TTT-Token.sol\":4927:4986  TTTToken.transferFrom(msg.sender, treasury, treasuryAmount) */\n      0x04\n      add\n      tag_133\n      jump\t// in\n    tag_137:\n      0x20\n      mload(0x40)\n      dup1\n      dup4\n      sub\n      dup2\n      0x00\n      dup8\n      gas\n      call\n      iszero\n      dup1\n      iszero\n      tag_139\n      jumpi\n      returndatasize\n      0x00\n      dup1\n      returndatacopy\n      revert(0x00, returndatasize)\n    tag_139:\n      pop\n      pop\n      pop\n      pop\n      mload(0x40)\n      returndatasize\n      not(0x1f)\n      0x1f\n      dup3\n      add\n      and\n      dup3\n      add\n      dup1\n      0x40\n      mstore\n      pop\n      dup2\n      add\n      swap1\n      tag_140\n      swap2\n      swap1\n      tag_122\n      jump\t// in\n    tag_140:\n      pop\n        /* \"Practical6-Apply-TTT-Token.sol\":5001:5009  TTTToken */\n      sload(0x00)\n        /* \"Practical6-Apply-TTT-Token.sol\":5001:5063  TTTToken.transferFrom(msg.sender, address(this), rewardAmount) */\n      mload(0x40)\n      shl(0xe0, 0x23b872dd)\n      dup2\n      mstore\n      sub(shl(0xa0, 0x01), 0x01)\n        /* \"Practical6-Apply-TTT-Token.sol\":5001:5009  TTTToken */\n      swap1\n      swap2\n      and\n      swap1\n        /* \"Practical6-Apply-TTT-Token.sol\":5001:5022  TTTToken.transferFrom */\n      0x23b872dd\n      swap1\n        /* \"Practical6-Apply-TTT-Token.sol\":5001:5063  TTTToken.transferFrom(msg.sender, address(this), rewardAmount) */\n      tag_141\n      swap1\n        /* \"Practical6-Apply-TTT-Token.sol\":5023:5033  msg.sender */\n      caller\n      swap1\n        /* \"Practical6-Apply-TTT-Token.sol\":5043:5047  this */\n      address\n      swap1\n        /* \"Practical6-Apply-TTT-Token.sol\":5050:5062  rewardAmount */\n      dup7\n      swap1\n        /* \"Practical6-Apply-TTT-Token.sol\":5001:5063  TTTToken.transferFrom(msg.sender, address(this), rewardAmount) */\n      0x04\n      add\n      tag_133\n      jump\t// in\n    tag_141:\n      0x20\n      mload(0x40)\n      dup1\n      dup4\n      sub\n      dup2\n      0x00\n      dup8\n      gas\n      call\n      iszero\n      dup1\n      iszero\n      tag_143\n      jumpi\n      returndatasize\n      0x00\n      dup1\n      returndatacopy\n      revert(0x00, returndatasize)\n    tag_143:\n      pop\n      pop\n      pop\n      pop\n      mload(0x40)\n      returndatasize\n      not(0x1f)\n      0x1f\n      dup3\n      add\n      and\n      dup3\n      add\n      dup1\n      0x40\n      mstore\n      pop\n      dup2\n      add\n      swap1\n      tag_144\n      swap2\n      swap1\n      tag_122\n      jump\t// in\n    tag_144:\n      pop\n        /* \"Practical6-Apply-TTT-Token.sol\":5095:5107  rewardAmount */\n      dup1\n        /* \"Practical6-Apply-TTT-Token.sol\":5080:5091  totalAmount */\n      0x05\n      0x00\n        /* \"Practical6-Apply-TTT-Token.sol\":5080:5107  totalAmount += rewardAmount */\n      dup3\n      dup3\n      sload\n      tag_145\n      swap2\n      swap1\n      tag_146\n      jump\t// in\n    tag_145:\n      swap1\n      swap2\n      sstore\n      pop\n        /* \"Practical6-Apply-TTT-Token.sol\":5124:5148  GameInfo memory gameInfo */\n      tag_147\n      swap1\n      pop\n      tag_148\n      jump\t// in\n    tag_147:\n        /* \"Practical6-Apply-TTT-Token.sol\":5163:5178  gameInformation */\n      0x07\n        /* \"Practical6-Apply-TTT-Token.sol\":5163:5193  gameInformation.push(gameInfo) */\n      dup1\n      sload\n      0x01\n      dup2\n      add\n      dup3\n      sstore\n      0x00\n      swap2\n      swap1\n      swap2\n      mstore\n      dup2\n      mload\n      0xa66cc928b5edb82af9bd49922954155ab7b0942694bea4ce44661d9a8736c688\n      0x0b\n      swap1\n      swap3\n      mul\n      swap2\n      dup3\n      add\n      dup1\n      sload\n      not(0xff)\n      and\n      swap2\n      iszero\n      iszero\n      swap2\n      swap1\n      swap2\n      or\n      dup2\n      sstore\n      0x20\n      dup4\n      add\n      mload\n      dup4\n      swap3\n      0xa66cc928b5edb82af9bd49922954155ab7b0942694bea4ce44661d9a8736c689\n      add\n      swap1\n      tag_150\n      swap1\n      dup3\n      tag_151\n      jump\t// in\n    tag_150:\n      pop\n      0x40\n      dup3\n      add\n      mload\n      dup1\n      mload\n      tag_152\n      swap2\n      0x02\n      dup5\n      add\n      swap2\n      0x20\n      swap1\n      swap2\n      add\n      swap1\n      tag_153\n      jump\t// in\n    tag_152:\n      pop\n      0x60\n      dup3\n      add\n      mload\n      dup1\n      mload\n      tag_154\n      swap2\n      0x03\n      dup5\n      add\n      swap2\n      0x20\n      swap1\n      swap2\n      add\n      swap1\n      tag_155\n      jump\t// in\n    tag_154:\n      pop\n      0x80\n      dup3\n      add\n      mload\n      0x04\n      dup3\n      add\n      dup1\n      sload\n      not(sub(shl(0xa0, 0x01), 0x01))\n      swap1\n      dup2\n      and\n      sub(shl(0xa0, 0x01), 0x01)\n      swap4\n      dup5\n      and\n      or\n      swap1\n      swap2\n      sstore\n      0xa0\n      dup5\n      add\n      mload\n      0x05\n      dup5\n      add\n      dup1\n      sload\n      dup4\n      and\n      swap2\n      dup5\n      and\n      swap2\n      swap1\n      swap2\n      or\n      swap1\n      sstore\n      0xc0\n      dup5\n      add\n      mload\n      0x06\n      dup5\n      add\n      sstore\n      0xe0\n      dup5\n      add\n      mload\n      0x07\n      dup1\n      dup6\n      add\n      dup1\n      sload\n      swap1\n      swap4\n      and\n      swap2\n      swap1\n      swap4\n      and\n      or\n      swap1\n      sstore\n      0x0100\n      dup4\n      add\n      mload\n      0x08\n      dup4\n      add\n      sstore\n      0x0120\n      dup4\n      add\n      mload\n      0x09\n      dup4\n      add\n      sstore\n      0x0140\n      swap1\n      swap3\n      add\n      mload\n      0x0a\n      swap1\n      swap2\n      add\n      sstore\n        /* \"Practical6-Apply-TTT-Token.sol\":5226:5248  gameInformation.length */\n      dup1\n      sload\n      swap1\n        /* \"Practical6-Apply-TTT-Token.sol\":5313:5323  msg.sender */\n      caller\n      swap1\n        /* \"Practical6-Apply-TTT-Token.sol\":5281:5293  gameLength-1 */\n      tag_156\n      0x01\n        /* \"Practical6-Apply-TTT-Token.sol\":5226:5248  gameInformation.length */\n      dup5\n        /* \"Practical6-Apply-TTT-Token.sol\":5281:5293  gameLength-1 */\n      tag_130\n      jump\t// in\n    tag_156:\n        /* \"Practical6-Apply-TTT-Token.sol\":5265:5294  gameInformation[gameLength-1] */\n      dup2\n      sload\n      dup2\n      lt\n      tag_158\n      jumpi\n      tag_158\n      tag_159\n      jump\t// in\n    tag_158:\n      0x00\n      swap2\n      dup3\n      mstore\n      0x20\n      dup3\n      keccak256\n      0x0b\n      swap2\n      swap1\n      swap2\n      mul\n      add\n        /* \"Practical6-Apply-TTT-Token.sol\":5265:5310  gameInformation[gameLength-1]._player1address */\n      0x04\n      add\n        /* \"Practical6-Apply-TTT-Token.sol\":5265:5323  gameInformation[gameLength-1]._player1address = msg.sender */\n      dup1\n      sload\n      not(sub(shl(0xa0, 0x01), 0x01))\n      and\n      sub(shl(0xa0, 0x01), 0x01)\n      swap4\n      swap1\n      swap4\n      and\n      swap3\n      swap1\n      swap3\n      or\n      swap1\n      swap2\n      sstore\n        /* \"Practical6-Apply-TTT-Token.sol\":5338:5353  gameInformation */\n      0x07\n        /* \"Practical6-Apply-TTT-Token.sol\":5354:5366  gameLength-1 */\n      tag_161\n      0x01\n        /* \"Practical6-Apply-TTT-Token.sol\":5354:5364  gameLength */\n      dup5\n        /* \"Practical6-Apply-TTT-Token.sol\":5354:5366  gameLength-1 */\n      tag_130\n      jump\t// in\n    tag_161:\n        /* \"Practical6-Apply-TTT-Token.sol\":5338:5367  gameInformation[gameLength-1] */\n      dup2\n      sload\n      dup2\n      lt\n      tag_163\n      jumpi\n      tag_163\n      tag_159\n      jump\t// in\n    tag_163:\n      0x00\n      swap2\n      dup3\n      mstore\n      0x20\n      swap1\n      swap2\n      keccak256\n      0x0b\n      swap1\n      swap2\n      mul\n      add\n        /* \"Practical6-Apply-TTT-Token.sol\":5338:5385  gameInformation[gameLength-1]._activate = false */\n      dup1\n      sload\n      not(0xff)\n      and\n      swap2\n      iszero\n      iszero\n      swap2\n      swap1\n      swap2\n      or\n      swap1\n      sstore\n      0x01\n        /* \"Practical6-Apply-TTT-Token.sol\":5400:5415  gameInformation */\n      0x07\n        /* \"Practical6-Apply-TTT-Token.sol\":5416:5428  gameLength-1 */\n      tag_165\n      dup3\n        /* \"Practical6-Apply-TTT-Token.sol\":5416:5426  gameLength */\n      dup5\n        /* \"Practical6-Apply-TTT-Token.sol\":5416:5428  gameLength-1 */\n      tag_130\n      jump\t// in\n    tag_165:\n        /* \"Practical6-Apply-TTT-Token.sol\":5400:5429  gameInformation[gameLength-1] */\n      dup2\n      sload\n      dup2\n      lt\n      tag_167\n      jumpi\n      tag_167\n      tag_159\n      jump\t// in\n    tag_167:\n      swap1\n      0x00\n      mstore\n      keccak256(0x00, 0x20)\n      swap1\n      0x0b\n      mul\n      add\n        /* \"Practical6-Apply-TTT-Token.sol\":5400:5442  gameInformation[gameLength-1]._playerCount */\n      0x06\n      add\n        /* \"Practical6-Apply-TTT-Token.sol\":5400:5446  gameInformation[gameLength-1]._playerCount = 1 */\n      dup2\n      swap1\n      sstore\n      pop\n        /* \"Practical6-Apply-TTT-Token.sol\":5461:5511  gameInformation[gameLength-1]._currentPlayer = \"X\" */\n      mload(0x40)\n      dup1\n      0x40\n      add\n      0x40\n      mstore\n      dup1\n      0x01\n      dup2\n      mstore\n      0x20\n      add\n      shl(0xfb, 0x0b)\n      dup2\n      mstore\n      pop\n        /* \"Practical6-Apply-TTT-Token.sol\":5461:5476  gameInformation */\n      0x07\n        /* \"Practical6-Apply-TTT-Token.sol\":5488:5489  1 */\n      0x01\n        /* \"Practical6-Apply-TTT-Token.sol\":5477:5487  gameLength */\n      dup4\n        /* \"Practical6-Apply-TTT-Token.sol\":5477:5489  gameLength-1 */\n      tag_169\n      swap2\n      swap1\n      tag_130\n      jump\t// in\n    tag_169:\n        /* \"Practical6-Apply-TTT-Token.sol\":5461:5490  gameInformation[gameLength-1] */\n      dup2\n      sload\n      dup2\n      lt\n      tag_171\n      jumpi\n      tag_171\n      tag_159\n      jump\t// in\n    tag_171:\n      swap1\n      0x00\n      mstore\n      keccak256(0x00, 0x20)\n      swap1\n      0x0b\n      mul\n      add\n        /* \"Practical6-Apply-TTT-Token.sol\":5461:5505  gameInformation[gameLength-1]._currentPlayer */\n      0x01\n      add\n        /* \"Practical6-Apply-TTT-Token.sol\":5461:5511  gameInformation[gameLength-1]._currentPlayer = \"X\" */\n      swap1\n      dup2\n      tag_173\n      swap2\n      swap1\n      tag_151\n      jump\t// in\n    tag_173:\n      pop\n        /* \"Practical6-Apply-TTT-Token.sol\":5570:5579  betAmount */\n      dup6\n        /* \"Practical6-Apply-TTT-Token.sol\":5526:5541  gameInformation */\n      0x07\n        /* \"Practical6-Apply-TTT-Token.sol\":5542:5554  gameLength-1 */\n      tag_174\n        /* \"Practical6-Apply-TTT-Token.sol\":5553:5554  1 */\n      0x01\n        /* \"Practical6-Apply-TTT-Token.sol\":5542:5552  gameLength */\n      dup5\n        /* \"Practical6-Apply-TTT-Token.sol\":5542:5554  gameLength-1 */\n      tag_130\n      jump\t// in\n    tag_174:\n        /* \"Practical6-Apply-TTT-Token.sol\":5526:5555  gameInformation[gameLength-1] */\n      dup2\n      sload\n      dup2\n      lt\n      tag_176\n      jumpi\n      tag_176\n      tag_159\n      jump\t// in\n    tag_176:\n      0x00\n      swap2\n      dup3\n      mstore\n      0x20\n      swap1\n      swap2\n      keccak256\n        /* \"Practical6-Apply-TTT-Token.sol\":5526:5567  gameInformation[gameLength-1]._player1Bet */\n      0x08\n        /* \"Practical6-Apply-TTT-Token.sol\":5526:5555  gameInformation[gameLength-1] */\n      0x0b\n      swap1\n      swap3\n      mul\n      add\n        /* \"Practical6-Apply-TTT-Token.sol\":5526:5567  gameInformation[gameLength-1]._player1Bet */\n      add\n        /* \"Practical6-Apply-TTT-Token.sol\":5526:5579  gameInformation[gameLength-1]._player1Bet = betAmount */\n      sstore\n        /* \"Practical6-Apply-TTT-Token.sol\":5640:5652  rewardAmount */\n      dup3\n        /* \"Practical6-Apply-TTT-Token.sol\":5594:5609  gameInformation */\n      0x07\n        /* \"Practical6-Apply-TTT-Token.sol\":5610:5622  gameLength-1 */\n      tag_178\n        /* \"Practical6-Apply-TTT-Token.sol\":5621:5622  1 */\n      0x01\n        /* \"Practical6-Apply-TTT-Token.sol\":5610:5620  gameLength */\n      dup5\n        /* \"Practical6-Apply-TTT-Token.sol\":5610:5622  gameLength-1 */\n      tag_130\n      jump\t// in\n    tag_178:\n        /* \"Practical6-Apply-TTT-Token.sol\":5594:5623  gameInformation[gameLength-1] */\n      dup2\n      sload\n      dup2\n      lt\n      tag_180\n      jumpi\n      tag_180\n      tag_159\n      jump\t// in\n    tag_180:\n      swap1\n      0x00\n      mstore\n      keccak256(0x00, 0x20)\n      swap1\n      0x0b\n      mul\n      add\n        /* \"Practical6-Apply-TTT-Token.sol\":5594:5637  gameInformation[gameLength-1]._rewardAmount */\n      0x0a\n      add\n        /* \"Practical6-Apply-TTT-Token.sol\":5594:5652  gameInformation[gameLength-1]._rewardAmount = rewardAmount */\n      dup2\n      swap1\n      sstore\n      pop\n        /* \"Practical6-Apply-TTT-Token.sol\":5671:5677  uint i */\n      0x00\n        /* \"Practical6-Apply-TTT-Token.sol\":5667:5776  for(uint i = 0; i < 9; i++){... */\n    tag_182:\n        /* \"Practical6-Apply-TTT-Token.sol\":5687:5688  9 */\n      0x09\n        /* \"Practical6-Apply-TTT-Token.sol\":5683:5684  i */\n      dup2\n        /* \"Practical6-Apply-TTT-Token.sol\":5683:5688  i < 9 */\n      lt\n        /* \"Practical6-Apply-TTT-Token.sol\":5667:5776  for(uint i = 0; i < 9; i++){... */\n      iszero\n      tag_183\n      jumpi\n        /* \"Practical6-Apply-TTT-Token.sol\":5713:5728  gameInformation */\n      0x07\n        /* \"Practical6-Apply-TTT-Token.sol\":5729:5741  gameLength-1 */\n      tag_185\n        /* \"Practical6-Apply-TTT-Token.sol\":5740:5741  1 */\n      0x01\n        /* \"Practical6-Apply-TTT-Token.sol\":5729:5739  gameLength */\n      dup5\n        /* \"Practical6-Apply-TTT-Token.sol\":5729:5741  gameLength-1 */\n      tag_130\n      jump\t// in\n    tag_185:\n        /* \"Practical6-Apply-TTT-Token.sol\":5713:5742  gameInformation[gameLength-1] */\n      dup2\n      sload\n      dup2\n      lt\n      tag_187\n      jumpi\n      tag_187\n      tag_159\n      jump\t// in\n    tag_187:\n      0x00\n      swap2\n      dup3\n      mstore\n      0x20\n      dup1\n      dup4\n      keccak256\n        /* \"Practical6-Apply-TTT-Token.sol\":5713:5751  gameInformation[gameLength-1]._options */\n      0x02\n        /* \"Practical6-Apply-TTT-Token.sol\":5713:5742  gameInformation[gameLength-1] */\n      0x0b\n      swap1\n      swap4\n      mul\n      add\n        /* \"Practical6-Apply-TTT-Token.sol\":5713:5751  gameInformation[gameLength-1]._options */\n      swap2\n      swap1\n      swap2\n      add\n        /* \"Practical6-Apply-TTT-Token.sol\":5713:5760  gameInformation[gameLength-1]._options.push(\"\") */\n      dup1\n      sload\n      0x01\n      dup2\n      add\n      dup3\n      sstore\n      swap1\n      dup4\n      mstore\n      dup2\n      dup4\n      keccak256\n      0x40\n      dup1\n      mload\n      swap4\n      dup5\n      add\n      swap1\n      mstore\n      swap3\n      dup3\n      mstore\n      swap2\n      swap1\n      swap2\n      add\n      swap1\n      tag_190\n      swap1\n      dup3\n      tag_151\n      jump\t// in\n    tag_190:\n      pop\n        /* \"Practical6-Apply-TTT-Token.sol\":5690:5693  i++ */\n      dup1\n      tag_191\n      dup2\n      tag_192\n      jump\t// in\n    tag_191:\n      swap2\n      pop\n      pop\n        /* \"Practical6-Apply-TTT-Token.sol\":5667:5776  for(uint i = 0; i < 9; i++){... */\n      jump(tag_182)\n    tag_183:\n      pop\n        /* \"Practical6-Apply-TTT-Token.sol\":5795:5819  createRoom(gameLength-1) */\n      0xbbba82573073a1190d559566d39447b5e1ad7724b88b63bc98867d229a645b6b\n        /* \"Practical6-Apply-TTT-Token.sol\":5806:5818  gameLength-1 */\n      tag_193\n        /* \"Practical6-Apply-TTT-Token.sol\":5817:5818  1 */\n      0x01\n        /* \"Practical6-Apply-TTT-Token.sol\":5806:5816  gameLength */\n      dup4\n        /* \"Practical6-Apply-TTT-Token.sol\":5806:5818  gameLength-1 */\n      tag_130\n      jump\t// in\n    tag_193:\n        /* \"Practical6-Apply-TTT-Token.sol\":5795:5819  createRoom(gameLength-1) */\n      mload(0x40)\n        /* \"#utility.yul\":982:1007   */\n      swap1\n      dup2\n      mstore\n        /* \"#utility.yul\":970:972   */\n      0x20\n        /* \"#utility.yul\":955:973   */\n      add\n        /* \"Practical6-Apply-TTT-Token.sol\":5795:5819  createRoom(gameLength-1) */\n      mload(0x40)\n      dup1\n      swap2\n      sub\n      swap1\n      log1\n      pop\n      pop\n        /* \"Practical6-Apply-TTT-Token.sol\":3569:3575  locked */\n      0x06\n        /* \"Practical6-Apply-TTT-Token.sol\":3569:3583  locked = false */\n      dup1\n      sload\n      not(shl(0xa0, 0xff))\n      and\n      swap1\n      sstore\n      pop\n      pop\n      pop\n      pop\n        /* \"Practical6-Apply-TTT-Token.sol\":4331:5845  function createGameRoom(uint256 betAmount) external noReentrancy {... */\n      jump\t// out\n        /* \"Practical6-Apply-TTT-Token.sol\":3842:3993  function getFinalWinOption (uint gameId) external view returns (uint[] memory){... */\n    tag_32:\n        /* \"Practical6-Apply-TTT-Token.sol\":3906:3919  uint[] memory */\n      0x60\n        /* \"Practical6-Apply-TTT-Token.sol\":3942:3957  gameInformation */\n      0x07\n        /* \"Practical6-Apply-TTT-Token.sol\":3958:3964  gameId */\n      dup3\n        /* \"Practical6-Apply-TTT-Token.sol\":3942:3965  gameInformation[gameId] */\n      dup2\n      sload\n      dup2\n      lt\n      tag_197\n      jumpi\n      tag_197\n      tag_159\n      jump\t// in\n    tag_197:\n      swap1\n      0x00\n      mstore\n      keccak256(0x00, 0x20)\n      swap1\n      0x0b\n      mul\n      add\n        /* \"Practical6-Apply-TTT-Token.sol\":3942:3981  gameInformation[gameId]._finalWinOption */\n      0x03\n      add\n        /* \"Practical6-Apply-TTT-Token.sol\":3935:3981  return gameInformation[gameId]._finalWinOption */\n      dup1\n      sload\n      dup1\n      0x20\n      mul\n      0x20\n      add\n      mload(0x40)\n      swap1\n      dup2\n      add\n      0x40\n      mstore\n      dup1\n      swap3\n      swap2\n      swap1\n      dup2\n      dup2\n      mstore\n      0x20\n      add\n      dup3\n      dup1\n      sload\n      dup1\n      iszero\n      tag_199\n      jumpi\n      0x20\n      mul\n      dup3\n      add\n      swap2\n      swap1\n      0x00\n      mstore\n      keccak256(0x00, 0x20)\n      swap1\n    tag_200:\n      dup2\n      sload\n      dup2\n      mstore\n      0x20\n      add\n      swap1\n      0x01\n      add\n      swap1\n      dup1\n      dup4\n      gt\n      tag_200\n      jumpi\n    tag_199:\n      pop\n      pop\n      pop\n      pop\n      pop\n      swap1\n      pop\n        /* \"Practical6-Apply-TTT-Token.sol\":3842:3993  function getFinalWinOption (uint gameId) external view returns (uint[] memory){... */\n      swap2\n      swap1\n      pop\n      jump\t// out\n        /* \"Practical6-Apply-TTT-Token.sol\":13679:14021  function validateRestartPlayer (uint gameId) public {... */\n    tag_41:\n        /* \"Practical6-Apply-TTT-Token.sol\":13834:13854  checkAddress(gameId) */\n      tag_202\n        /* \"Practical6-Apply-TTT-Token.sol\":13847:13853  gameId */\n      dup2\n        /* \"Practical6-Apply-TTT-Token.sol\":13834:13846  checkAddress */\n      tag_203\n        /* \"Practical6-Apply-TTT-Token.sol\":13834:13854  checkAddress(gameId) */\n      jump\t// in\n    tag_202:\n        /* \"Practical6-Apply-TTT-Token.sol\":13826:13887  require(checkAddress(gameId), \"you are not this game player\") */\n      tag_204\n      jumpi\n      mload(0x40)\n      shl(0xe5, 0x461bcd)\n      dup2\n      mstore\n        /* \"#utility.yul\":15209:15211   */\n      0x20\n        /* \"Practical6-Apply-TTT-Token.sol\":13826:13887  require(checkAddress(gameId), \"you are not this game player\") */\n      0x04\n      dup3\n      add\n        /* \"#utility.yul\":15191:15212   */\n      mstore\n        /* \"#utility.yul\":15248:15250   */\n      0x1c\n        /* \"#utility.yul\":15228:15246   */\n      0x24\n      dup3\n      add\n        /* \"#utility.yul\":15221:15251   */\n      mstore\n        /* \"#utility.yul\":15287:15317   */\n      0x796f7520617265206e6f7420746869732067616d6520706c6179657200000000\n        /* \"#utility.yul\":15267:15285   */\n      0x44\n      dup3\n      add\n        /* \"#utility.yul\":15260:15318   */\n      mstore\n        /* \"#utility.yul\":15335:15353   */\n      0x64\n      add\n        /* \"Practical6-Apply-TTT-Token.sol\":13826:13887  require(checkAddress(gameId), \"you are not this game player\") */\n      tag_103\n        /* \"#utility.yul\":15007:15359   */\n      jump\n        /* \"Practical6-Apply-TTT-Token.sol\":13826:13887  require(checkAddress(gameId), \"you are not this game player\") */\n    tag_204:\n        /* \"Practical6-Apply-TTT-Token.sol\":13910:13925  gameInformation */\n      0x07\n        /* \"Practical6-Apply-TTT-Token.sol\":13926:13932  gameId */\n      dup2\n        /* \"Practical6-Apply-TTT-Token.sol\":13910:13933  gameInformation[gameId] */\n      dup2\n      sload\n      dup2\n      lt\n      tag_208\n      jumpi\n      tag_208\n      tag_159\n      jump\t// in\n    tag_208:\n      0x00\n      swap2\n      dup3\n      mstore\n      0x20\n      swap1\n      swap2\n      keccak256\n      0x0b\n      swap1\n      swap2\n      mul\n      add\n        /* \"Practical6-Apply-TTT-Token.sol\":13910:13943  gameInformation[gameId]._activate */\n      sload\n      0xff\n      and\n        /* \"Practical6-Apply-TTT-Token.sol\":13910:13952  gameInformation[gameId]._activate == false */\n      iszero\n        /* \"Practical6-Apply-TTT-Token.sol\":13902:13975  require(gameInformation[gameId]._activate == false, \"Game still playing\") */\n      tag_210\n      jumpi\n      mload(0x40)\n      shl(0xe5, 0x461bcd)\n      dup2\n      mstore\n        /* \"#utility.yul\":15566:15568   */\n      0x20\n        /* \"Practical6-Apply-TTT-Token.sol\":13902:13975  require(gameInformation[gameId]._activate == false, \"Game still playing\") */\n      0x04\n      dup3\n      add\n        /* \"#utility.yul\":15548:15569   */\n      mstore\n        /* \"#utility.yul\":15605:15607   */\n      0x12\n        /* \"#utility.yul\":15585:15603   */\n      0x24\n      dup3\n      add\n        /* \"#utility.yul\":15578:15608   */\n      mstore\n      shl(0x70, 0x47616d65207374696c6c20706c6179696e67)\n        /* \"#utility.yul\":15624:15642   */\n      0x44\n      dup3\n      add\n        /* \"#utility.yul\":15617:15665   */\n      mstore\n        /* \"#utility.yul\":15682:15700   */\n      0x64\n      add\n        /* \"Practical6-Apply-TTT-Token.sol\":13902:13975  require(gameInformation[gameId]._activate == false, \"Game still playing\") */\n      tag_103\n        /* \"#utility.yul\":15364:15706   */\n      jump\n        /* \"Practical6-Apply-TTT-Token.sol\":13902:13975  require(gameInformation[gameId]._activate == false, \"Game still playing\") */\n    tag_210:\n        /* \"Practical6-Apply-TTT-Token.sol\":13990:14009  restartGame(gameId) */\n      tag_213\n        /* \"Practical6-Apply-TTT-Token.sol\":14002:14008  gameId */\n      dup2\n        /* \"Practical6-Apply-TTT-Token.sol\":13990:14001  restartGame */\n      tag_48\n        /* \"Practical6-Apply-TTT-Token.sol\":13990:14009  restartGame(gameId) */\n      jump\t// in\n    tag_213:\n        /* \"Practical6-Apply-TTT-Token.sol\":13679:14021  function validateRestartPlayer (uint gameId) public {... */\n      pop\n      jump\t// out\n        /* \"Practical6-Apply-TTT-Token.sol\":4163:4287  function getAllGameInformation () external view returns (GameInfo[] memory){... */\n    tag_43:\n        /* \"Practical6-Apply-TTT-Token.sol\":4220:4237  GameInfo[] memory */\n      0x60\n        /* \"Practical6-Apply-TTT-Token.sol\":4260:4275  gameInformation */\n      0x07\n        /* \"Practical6-Apply-TTT-Token.sol\":4253:4275  return gameInformation */\n      dup1\n      sload\n      dup1\n      0x20\n      mul\n      0x20\n      add\n      mload(0x40)\n      swap1\n      dup2\n      add\n      0x40\n      mstore\n      dup1\n      swap3\n      swap2\n      swap1\n      dup2\n      dup2\n      mstore\n      0x20\n      add\n      0x00\n      swap1\n    tag_215:\n      dup3\n      dup3\n      lt\n      iszero\n      tag_216\n      jumpi\n      0x00\n      dup5\n      dup2\n      mstore\n      0x20\n      swap1\n      dup2\n      swap1\n      keccak256\n      0x40\n      dup1\n      mload\n      0x0160\n      dup2\n      add\n      swap1\n      swap2\n      mstore\n      0x0b\n      dup6\n      mul\n      swap1\n      swap2\n      add\n      dup1\n      sload\n      0xff\n      and\n      iszero\n      iszero\n      dup3\n      mstore\n      0x01\n      dup2\n      add\n      dup1\n      sload\n      swap3\n      swap4\n      swap2\n      swap3\n      swap2\n      dup5\n      add\n      swap2\n      tag_218\n      swap1\n      tag_219\n      jump\t// in\n    tag_218:\n      dup1\n      0x1f\n      add\n      0x20\n      dup1\n      swap2\n      div\n      mul\n      0x20\n      add\n      mload(0x40)\n      swap1\n      dup2\n      add\n      0x40\n      mstore\n      dup1\n      swap3\n      swap2\n      swap1\n      dup2\n      dup2\n      mstore\n      0x20\n      add\n      dup3\n      dup1\n      sload\n      tag_220\n      swap1\n      tag_219\n      jump\t// in\n    tag_220:\n      dup1\n      iszero\n      tag_221\n      jumpi\n      dup1\n      0x1f\n      lt\n      tag_222\n      jumpi\n      0x0100\n      dup1\n      dup4\n      sload\n      div\n      mul\n      dup4\n      mstore\n      swap2\n      0x20\n      add\n      swap2\n      jump(tag_221)\n    tag_222:\n      dup3\n      add\n      swap2\n      swap1\n      0x00\n      mstore\n      keccak256(0x00, 0x20)\n      swap1\n    tag_223:\n      dup2\n      sload\n      dup2\n      mstore\n      swap1\n      0x01\n      add\n      swap1\n      0x20\n      add\n      dup1\n      dup4\n      gt\n      tag_223\n      jumpi\n      dup3\n      swap1\n      sub\n      0x1f\n      and\n      dup3\n      add\n      swap2\n    tag_221:\n      pop\n      pop\n      pop\n      pop\n      pop\n      dup2\n      mstore\n      0x20\n      add\n      0x02\n      dup3\n      add\n      dup1\n      sload\n      dup1\n      0x20\n      mul\n      0x20\n      add\n      mload(0x40)\n      swap1\n      dup2\n      add\n      0x40\n      mstore\n      dup1\n      swap3\n      swap2\n      swap1\n      dup2\n      dup2\n      mstore\n      0x20\n      add\n      0x00\n      swap1\n    tag_224:\n      dup3\n      dup3\n      lt\n      iszero\n      tag_225\n      jumpi\n      dup4\n      dup3\n      swap1\n      0x00\n      mstore\n      keccak256(0x00, 0x20)\n      add\n      dup1\n      sload\n      tag_227\n      swap1\n      tag_219\n      jump\t// in\n    tag_227:\n      dup1\n      0x1f\n      add\n      0x20\n      dup1\n      swap2\n      div\n      mul\n      0x20\n      add\n      mload(0x40)\n      swap1\n      dup2\n      add\n      0x40\n      mstore\n      dup1\n      swap3\n      swap2\n      swap1\n      dup2\n      dup2\n      mstore\n      0x20\n      add\n      dup3\n      dup1\n      sload\n      tag_228\n      swap1\n      tag_219\n      jump\t// in\n    tag_228:\n      dup1\n      iszero\n      tag_229\n      jumpi\n      dup1\n      0x1f\n      lt\n      tag_230\n      jumpi\n      0x0100\n      dup1\n      dup4\n      sload\n      div\n      mul\n      dup4\n      mstore\n      swap2\n      0x20\n      add\n      swap2\n      jump(tag_229)\n    tag_230:\n      dup3\n      add\n      swap2\n      swap1\n      0x00\n      mstore\n      keccak256(0x00, 0x20)\n      swap1\n    tag_231:\n      dup2\n      sload\n      dup2\n      mstore\n      swap1\n      0x01\n      add\n      swap1\n      0x20\n      add\n      dup1\n      dup4\n      gt\n      tag_231\n      jumpi\n      dup3\n      swap1\n      sub\n      0x1f\n      and\n      dup3\n      add\n      swap2\n    tag_229:\n      pop\n      pop\n      pop\n      pop\n      pop\n      dup2\n      mstore\n      0x20\n      add\n      swap1\n      0x01\n      add\n      swap1\n      jump(tag_224)\n    tag_225:\n      pop\n      pop\n      pop\n      pop\n      dup2\n      mstore\n      0x20\n      add\n      0x03\n      dup3\n      add\n      dup1\n      sload\n      dup1\n      0x20\n      mul\n      0x20\n      add\n      mload(0x40)\n      swap1\n      dup2\n      add\n      0x40\n      mstore\n      dup1\n      swap3\n      swap2\n      swap1\n      dup2\n      dup2\n      mstore\n      0x20\n      add\n      dup3\n      dup1\n      sload\n      dup1\n      iszero\n      tag_232\n      jumpi\n      0x20\n      mul\n      dup3\n      add\n      swap2\n      swap1\n      0x00\n      mstore\n      keccak256(0x00, 0x20)\n      swap1\n    tag_233:\n      dup2\n      sload\n      dup2\n      mstore\n      0x20\n      add\n      swap1\n      0x01\n      add\n      swap1\n      dup1\n      dup4\n      gt\n      tag_233\n      jumpi\n    tag_232:\n      pop\n      pop\n      pop\n      swap2\n      dup4\n      mstore\n      pop\n      pop\n      0x04\n      dup3\n      add\n      sload\n      sub(shl(0xa0, 0x01), 0x01)\n      swap1\n      dup2\n      and\n      0x20\n      dup1\n      dup5\n      add\n      swap2\n      swap1\n      swap2\n      mstore\n      0x05\n      dup5\n      add\n      sload\n      dup3\n      and\n      0x40\n      dup5\n      add\n      mstore\n      0x06\n      dup5\n      add\n      sload\n      0x60\n      dup5\n      add\n      mstore\n      0x07\n      dup5\n      add\n      sload\n      swap1\n      swap2\n      and\n      0x80\n      dup4\n      add\n      mstore\n      0x08\n      dup4\n      add\n      sload\n      0xa0\n      dup4\n      add\n      mstore\n      0x09\n      dup4\n      add\n      sload\n      0xc0\n      dup4\n      add\n      mstore\n      0x0a\n      swap1\n      swap3\n      add\n      sload\n      0xe0\n      swap1\n      swap2\n      add\n      mstore\n      swap1\n      dup3\n      mstore\n      0x01\n      swap3\n      swap1\n      swap3\n      add\n      swap2\n      add\n      jump(tag_215)\n    tag_216:\n      pop\n      pop\n      pop\n      pop\n      swap1\n      pop\n        /* \"Practical6-Apply-TTT-Token.sol\":4163:4287  function getAllGameInformation () external view returns (GameInfo[] memory){... */\n      swap1\n      jump\t// out\n        /* \"Practical6-Apply-TTT-Token.sol\":14372:14660  function restartGame(uint gameId) public {... */\n    tag_48:\n        /* \"Practical6-Apply-TTT-Token.sol\":14428:14472  gameInformation[gameId]._currentPlayer = \"X\" */\n      mload(0x40)\n      dup1\n      0x40\n      add\n      0x40\n      mstore\n      dup1\n      0x01\n      dup2\n      mstore\n      0x20\n      add\n      shl(0xfb, 0x0b)\n      dup2\n      mstore\n      pop\n        /* \"Practical6-Apply-TTT-Token.sol\":14428:14443  gameInformation */\n      0x07\n        /* \"Practical6-Apply-TTT-Token.sol\":14444:14450  gameId */\n      dup3\n        /* \"Practical6-Apply-TTT-Token.sol\":14428:14451  gameInformation[gameId] */\n      dup2\n      sload\n      dup2\n      lt\n      tag_236\n      jumpi\n      tag_236\n      tag_159\n      jump\t// in\n    tag_236:\n      swap1\n      0x00\n      mstore\n      keccak256(0x00, 0x20)\n      swap1\n      0x0b\n      mul\n      add\n        /* \"Practical6-Apply-TTT-Token.sol\":14428:14466  gameInformation[gameId]._currentPlayer */\n      0x01\n      add\n        /* \"Practical6-Apply-TTT-Token.sol\":14428:14472  gameInformation[gameId]._currentPlayer = \"X\" */\n      swap1\n      dup2\n      tag_238\n      swap2\n      swap1\n      tag_151\n      jump\t// in\n    tag_238:\n      pop\n        /* \"Practical6-Apply-TTT-Token.sol\":14487:14558  gameInformation[gameId]._options = [\"\", \"\", \"\", \"\", \"\", \"\", \"\", \"\", \"\"] */\n      0x40\n      dup1\n      mload\n      0x0140\n      dup2\n      add\n      dup3\n      mstore\n      0x00\n      0x0120\n      dup3\n      add\n      dup2\n      dup2\n      mstore\n      dup3\n      mstore\n      dup3\n      mload\n      0x20\n      dup2\n      dup2\n      add\n      dup6\n      mstore\n      dup3\n      dup3\n      mstore\n      dup1\n      dup5\n      add\n      swap2\n      swap1\n      swap2\n      mstore\n      dup4\n      mload\n      dup1\n      dup3\n      add\n      dup6\n      mstore\n      dup3\n      dup2\n      mstore\n      dup4\n      dup6\n      add\n      mstore\n      dup4\n      mload\n      dup1\n      dup3\n      add\n      dup6\n      mstore\n      dup3\n      dup2\n      mstore\n      0x60\n      dup5\n      add\n      mstore\n      dup4\n      mload\n      dup1\n      dup3\n      add\n      dup6\n      mstore\n      dup3\n      dup2\n      mstore\n      0x80\n      dup5\n      add\n      mstore\n      dup4\n      mload\n      dup1\n      dup3\n      add\n      dup6\n      mstore\n      dup3\n      dup2\n      mstore\n      0xa0\n      dup5\n      add\n      mstore\n      dup4\n      mload\n      dup1\n      dup3\n      add\n      dup6\n      mstore\n      dup3\n      dup2\n      mstore\n      0xc0\n      dup5\n      add\n      mstore\n      dup4\n      mload\n      dup1\n      dup3\n      add\n      dup6\n      mstore\n      dup3\n      dup2\n      mstore\n      0xe0\n      dup5\n      add\n      mstore\n      dup4\n      mload\n      swap1\n      dup2\n      add\n      swap1\n      swap4\n      mstore\n      dup3\n      mstore\n      0x0100\n      dup2\n      add\n      swap2\n      swap1\n      swap2\n      mstore\n        /* \"Practical6-Apply-TTT-Token.sol\":14487:14502  gameInformation */\n      0x07\n        /* \"Practical6-Apply-TTT-Token.sol\":14487:14510  gameInformation[gameId] */\n      dup1\n      sload\n        /* \"Practical6-Apply-TTT-Token.sol\":14503:14509  gameId */\n      dup4\n      swap1\n        /* \"Practical6-Apply-TTT-Token.sol\":14487:14510  gameInformation[gameId] */\n      dup2\n      lt\n      tag_240\n      jumpi\n      tag_240\n      tag_159\n      jump\t// in\n    tag_240:\n      swap1\n      0x00\n      mstore\n      keccak256(0x00, 0x20)\n      swap1\n      0x0b\n      mul\n      add\n        /* \"Practical6-Apply-TTT-Token.sol\":14487:14519  gameInformation[gameId]._options */\n      0x02\n      add\n        /* \"Practical6-Apply-TTT-Token.sol\":14487:14558  gameInformation[gameId]._options = [\"\", \"\", \"\", \"\", \"\", \"\", \"\", \"\", \"\"] */\n      swap1\n      0x09\n      tag_242\n      swap3\n      swap2\n      swap1\n      tag_243\n      jump\t// in\n    tag_242:\n      pop\n        /* \"Practical6-Apply-TTT-Token.sol\":14609:14613  true */\n      0x01\n        /* \"Practical6-Apply-TTT-Token.sol\":14573:14588  gameInformation */\n      0x07\n        /* \"Practical6-Apply-TTT-Token.sol\":14589:14595  gameId */\n      dup3\n        /* \"Practical6-Apply-TTT-Token.sol\":14573:14596  gameInformation[gameId] */\n      dup2\n      sload\n      dup2\n      lt\n      tag_245\n      jumpi\n      tag_245\n      tag_159\n      jump\t// in\n    tag_245:\n      0x00\n      swap2\n      dup3\n      mstore\n      0x20\n      swap2\n      dup3\n      swap1\n      keccak256\n      0x0b\n      swap1\n      swap2\n      mul\n      add\n        /* \"Practical6-Apply-TTT-Token.sol\":14573:14613  gameInformation[gameId]._activate = true */\n      dup1\n      sload\n      not(0xff)\n      and\n      swap3\n      iszero\n      iszero\n      swap3\n      swap1\n      swap3\n      or\n      swap1\n      swap2\n      sstore\n        /* \"Practical6-Apply-TTT-Token.sol\":14633:14648  resetUI(gameId) */\n      mload(0x40)\n        /* \"#utility.yul\":982:1007   */\n      dup3\n      dup2\n      mstore\n        /* \"Practical6-Apply-TTT-Token.sol\":14633:14648  resetUI(gameId) */\n      0xc5478e3fe602c65e5cdd37abe42a8e007ff762d266b9e8256769194c1fa1361e\n      swap2\n        /* \"#utility.yul\":955:973   */\n      add\n        /* \"Practical6-Apply-TTT-Token.sol\":14633:14648  resetUI(gameId) */\n    tag_247:\n      mload(0x40)\n      dup1\n      swap2\n      sub\n      swap1\n      log1\n        /* \"Practical6-Apply-TTT-Token.sol\":14372:14660  function restartGame(uint gameId) public {... */\n      pop\n      jump\t// out\n        /* \"Practical6-Apply-TTT-Token.sol\":7992:9038  function userInput(uint input, uint gameId) external {... */\n    tag_52:\n        /* \"Practical6-Apply-TTT-Token.sol\":8068:8083  gameInformation */\n      0x07\n        /* \"Practical6-Apply-TTT-Token.sol\":8084:8090  gameId */\n      dup2\n        /* \"Practical6-Apply-TTT-Token.sol\":8068:8091  gameInformation[gameId] */\n      dup2\n      sload\n      dup2\n      lt\n      tag_250\n      jumpi\n      tag_250\n      tag_159\n      jump\t// in\n    tag_250:\n      0x00\n      swap2\n      dup3\n      mstore\n      0x20\n      swap1\n      swap2\n      keccak256\n      0x0b\n      swap1\n      swap2\n      mul\n      add\n        /* \"Practical6-Apply-TTT-Token.sol\":8068:8101  gameInformation[gameId]._activate */\n      sload\n      0xff\n      and\n        /* \"Practical6-Apply-TTT-Token.sol\":8060:8133  require(gameInformation[gameId]._activate,\"The game still not start yet\") */\n      tag_252\n      jumpi\n      mload(0x40)\n      shl(0xe5, 0x461bcd)\n      dup2\n      mstore\n        /* \"#utility.yul\":15913:15915   */\n      0x20\n        /* \"Practical6-Apply-TTT-Token.sol\":8060:8133  require(gameInformation[gameId]._activate,\"The game still not start yet\") */\n      0x04\n      dup3\n      add\n        /* \"#utility.yul\":15895:15916   */\n      mstore\n        /* \"#utility.yul\":15952:15954   */\n      0x1c\n        /* \"#utility.yul\":15932:15950   */\n      0x24\n      dup3\n      add\n        /* \"#utility.yul\":15925:15955   */\n      mstore\n        /* \"#utility.yul\":15991:16021   */\n      0x5468652067616d65207374696c6c206e6f742073746172742079657400000000\n        /* \"#utility.yul\":15971:15989   */\n      0x44\n      dup3\n      add\n        /* \"#utility.yul\":15964:16022   */\n      mstore\n        /* \"#utility.yul\":16039:16057   */\n      0x64\n      add\n        /* \"Practical6-Apply-TTT-Token.sol\":8060:8133  require(gameInformation[gameId]._activate,\"The game still not start yet\") */\n      tag_103\n        /* \"#utility.yul\":15711:16063   */\n      jump\n        /* \"Practical6-Apply-TTT-Token.sol\":8060:8133  require(gameInformation[gameId]._activate,\"The game still not start yet\") */\n    tag_252:\n        /* \"Practical6-Apply-TTT-Token.sol\":8193:8251  compareStrings(gameInformation[gameId]._options[input],\"\") */\n      tag_255\n        /* \"Practical6-Apply-TTT-Token.sol\":8208:8223  gameInformation */\n      0x07\n        /* \"Practical6-Apply-TTT-Token.sol\":8224:8230  gameId */\n      dup3\n        /* \"Practical6-Apply-TTT-Token.sol\":8208:8231  gameInformation[gameId] */\n      dup2\n      sload\n      dup2\n      lt\n      tag_257\n      jumpi\n      tag_257\n      tag_159\n      jump\t// in\n    tag_257:\n      swap1\n      0x00\n      mstore\n      keccak256(0x00, 0x20)\n      swap1\n      0x0b\n      mul\n      add\n        /* \"Practical6-Apply-TTT-Token.sol\":8208:8240  gameInformation[gameId]._options */\n      0x02\n      add\n        /* \"Practical6-Apply-TTT-Token.sol\":8241:8246  input */\n      dup4\n        /* \"Practical6-Apply-TTT-Token.sol\":8208:8247  gameInformation[gameId]._options[input] */\n      dup2\n      sload\n      dup2\n      lt\n      tag_260\n      jumpi\n      tag_260\n      tag_159\n      jump\t// in\n    tag_260:\n      swap1\n      0x00\n      mstore\n      keccak256(0x00, 0x20)\n      add\n        /* \"Practical6-Apply-TTT-Token.sol\":8193:8251  compareStrings(gameInformation[gameId]._options[input],\"\") */\n      dup1\n      sload\n      tag_262\n      swap1\n      tag_219\n      jump\t// in\n    tag_262:\n      dup1\n      0x1f\n      add\n      0x20\n      dup1\n      swap2\n      div\n      mul\n      0x20\n      add\n      mload(0x40)\n      swap1\n      dup2\n      add\n      0x40\n      mstore\n      dup1\n      swap3\n      swap2\n      swap1\n      dup2\n      dup2\n      mstore\n      0x20\n      add\n      dup3\n      dup1\n      sload\n      tag_263\n      swap1\n      tag_219\n      jump\t// in\n    tag_263:\n      dup1\n      iszero\n      tag_264\n      jumpi\n      dup1\n      0x1f\n      lt\n      tag_265\n      jumpi\n      0x0100\n      dup1\n      dup4\n      sload\n      div\n      mul\n      dup4\n      mstore\n      swap2\n      0x20\n      add\n      swap2\n      jump(tag_264)\n    tag_265:\n      dup3\n      add\n      swap2\n      swap1\n      0x00\n      mstore\n      keccak256(0x00, 0x20)\n      swap1\n    tag_266:\n      dup2\n      sload\n      dup2\n      mstore\n      swap1\n      0x01\n      add\n      swap1\n      0x20\n      add\n      dup1\n      dup4\n      gt\n      tag_266\n      jumpi\n      dup3\n      swap1\n      sub\n      0x1f\n      and\n      dup3\n      add\n      swap2\n    tag_264:\n      pop\n      pop\n      pop\n      pop\n      pop\n      mload(0x40)\n      dup1\n      0x20\n      add\n      0x40\n      mstore\n      dup1\n      0x00\n      dup2\n      mstore\n      pop\n        /* \"Practical6-Apply-TTT-Token.sol\":8193:8207  compareStrings */\n      tag_82\n        /* \"Practical6-Apply-TTT-Token.sol\":8193:8251  compareStrings(gameInformation[gameId]._options[input],\"\") */\n      jump\t// in\n    tag_255:\n        /* \"Practical6-Apply-TTT-Token.sol\":8185:8268  require(compareStrings(gameInformation[gameId]._options[input],\"\"),\"Invalid input\") */\n      tag_267\n      jumpi\n      mload(0x40)\n      shl(0xe5, 0x461bcd)\n      dup2\n      mstore\n        /* \"#utility.yul\":16270:16272   */\n      0x20\n        /* \"Practical6-Apply-TTT-Token.sol\":8185:8268  require(compareStrings(gameInformation[gameId]._options[input],\"\"),\"Invalid input\") */\n      0x04\n      dup3\n      add\n        /* \"#utility.yul\":16252:16273   */\n      mstore\n        /* \"#utility.yul\":16309:16311   */\n      0x0d\n        /* \"#utility.yul\":16289:16307   */\n      0x24\n      dup3\n      add\n        /* \"#utility.yul\":16282:16312   */\n      mstore\n      shl(0x9a, 0x125b9d985b1a59081a5b9c1d5d)\n        /* \"#utility.yul\":16328:16346   */\n      0x44\n      dup3\n      add\n        /* \"#utility.yul\":16321:16364   */\n      mstore\n        /* \"#utility.yul\":16381:16399   */\n      0x64\n      add\n        /* \"Practical6-Apply-TTT-Token.sol\":8185:8268  require(compareStrings(gameInformation[gameId]._options[input],\"\"),\"Invalid input\") */\n      tag_103\n        /* \"#utility.yul\":16068:16405   */\n      jump\n        /* \"Practical6-Apply-TTT-Token.sol\":8185:8268  require(compareStrings(gameInformation[gameId]._options[input],\"\"),\"Invalid input\") */\n    tag_267:\n        /* \"Practical6-Apply-TTT-Token.sol\":8339:8398  compareStrings(gameInformation[gameId]._currentPlayer, \"X\") */\n      tag_270\n        /* \"Practical6-Apply-TTT-Token.sol\":8354:8369  gameInformation */\n      0x07\n        /* \"Practical6-Apply-TTT-Token.sol\":8370:8376  gameId */\n      dup3\n        /* \"Practical6-Apply-TTT-Token.sol\":8354:8377  gameInformation[gameId] */\n      dup2\n      sload\n      dup2\n      lt\n      tag_272\n      jumpi\n      tag_272\n      tag_159\n      jump\t// in\n    tag_272:\n      swap1\n      0x00\n      mstore\n      keccak256(0x00, 0x20)\n      swap1\n      0x0b\n      mul\n      add\n        /* \"Practical6-Apply-TTT-Token.sol\":8354:8392  gameInformation[gameId]._currentPlayer */\n      0x01\n      add\n        /* \"Practical6-Apply-TTT-Token.sol\":8339:8398  compareStrings(gameInformation[gameId]._currentPlayer, \"X\") */\n      dup1\n      sload\n      tag_274\n      swap1\n      tag_219\n      jump\t// in\n    tag_274:\n      dup1\n      0x1f\n      add\n      0x20\n      dup1\n      swap2\n      div\n      mul\n      0x20\n      add\n      mload(0x40)\n      swap1\n      dup2\n      add\n      0x40\n      mstore\n      dup1\n      swap3\n      swap2\n      swap1\n      dup2\n      dup2\n      mstore\n      0x20\n      add\n      dup3\n      dup1\n      sload\n      tag_275\n      swap1\n      tag_219\n      jump\t// in\n    tag_275:\n      dup1\n      iszero\n      tag_276\n      jumpi\n      dup1\n      0x1f\n      lt\n      tag_277\n      jumpi\n      0x0100\n      dup1\n      dup4\n      sload\n      div\n      mul\n      dup4\n      mstore\n      swap2\n      0x20\n      add\n      swap2\n      jump(tag_276)\n    tag_277:\n      dup3\n      add\n      swap2\n      swap1\n      0x00\n      mstore\n      keccak256(0x00, 0x20)\n      swap1\n    tag_278:\n      dup2\n      sload\n      dup2\n      mstore\n      swap1\n      0x01\n      add\n      swap1\n      0x20\n      add\n      dup1\n      dup4\n      gt\n      tag_278\n      jumpi\n      dup3\n      swap1\n      sub\n      0x1f\n      and\n      dup3\n      add\n      swap2\n    tag_276:\n      pop\n      pop\n      pop\n      pop\n      pop\n      mload(0x40)\n      dup1\n      0x40\n      add\n      0x40\n      mstore\n      dup1\n      0x01\n      dup2\n      mstore\n      0x20\n      add\n      shl(0xfb, 0x0b)\n      dup2\n      mstore\n      pop\n        /* \"Practical6-Apply-TTT-Token.sol\":8339:8353  compareStrings */\n      tag_82\n        /* \"Practical6-Apply-TTT-Token.sol\":8339:8398  compareStrings(gameInformation[gameId]._currentPlayer, \"X\") */\n      jump\t// in\n    tag_270:\n        /* \"Practical6-Apply-TTT-Token.sol\":8336:8643  if(compareStrings(gameInformation[gameId]._currentPlayer, \"X\")){... */\n      iszero\n      tag_279\n      jumpi\n        /* \"Practical6-Apply-TTT-Token.sol\":8440:8455  gameInformation */\n      0x07\n        /* \"Practical6-Apply-TTT-Token.sol\":8456:8462  gameId */\n      dup2\n        /* \"Practical6-Apply-TTT-Token.sol\":8440:8463  gameInformation[gameId] */\n      dup2\n      sload\n      dup2\n      lt\n      tag_281\n      jumpi\n      tag_281\n      tag_159\n      jump\t// in\n    tag_281:\n      0x00\n      swap2\n      dup3\n      mstore\n      0x20\n      swap1\n      swap2\n      keccak256\n      0x0b\n      swap1\n      swap2\n      mul\n      add\n        /* \"Practical6-Apply-TTT-Token.sol\":8440:8479  gameInformation[gameId]._player1address */\n      0x04\n      add\n      sload\n      sub(shl(0xa0, 0x01), 0x01)\n      and\n        /* \"Practical6-Apply-TTT-Token.sol\":8426:8436  msg.sender */\n      caller\n        /* \"Practical6-Apply-TTT-Token.sol\":8426:8479  msg.sender == gameInformation[gameId]._player1address */\n      eq\n        /* \"Practical6-Apply-TTT-Token.sol\":8418:8503  require(msg.sender == gameInformation[gameId]._player1address,\"You are not player 1\") */\n      tag_283\n      jumpi\n      mload(0x40)\n      shl(0xe5, 0x461bcd)\n      dup2\n      mstore\n        /* \"#utility.yul\":16612:16614   */\n      0x20\n        /* \"Practical6-Apply-TTT-Token.sol\":8418:8503  require(msg.sender == gameInformation[gameId]._player1address,\"You are not player 1\") */\n      0x04\n      dup3\n      add\n        /* \"#utility.yul\":16594:16615   */\n      mstore\n        /* \"#utility.yul\":16651:16653   */\n      0x14\n        /* \"#utility.yul\":16631:16649   */\n      0x24\n      dup3\n      add\n        /* \"#utility.yul\":16624:16654   */\n      mstore\n      shl(0x60, 0x596f7520617265206e6f7420706c617965722031)\n        /* \"#utility.yul\":16670:16688   */\n      0x44\n      dup3\n      add\n        /* \"#utility.yul\":16663:16713   */\n      mstore\n        /* \"#utility.yul\":16730:16748   */\n      0x64\n      add\n        /* \"Practical6-Apply-TTT-Token.sol\":8418:8503  require(msg.sender == gameInformation[gameId]._player1address,\"You are not player 1\") */\n      tag_103\n        /* \"#utility.yul\":16410:16754   */\n      jump\n        /* \"Practical6-Apply-TTT-Token.sol\":8418:8503  require(msg.sender == gameInformation[gameId]._player1address,\"You are not player 1\") */\n    tag_283:\n        /* \"Practical6-Apply-TTT-Token.sol\":8336:8643  if(compareStrings(gameInformation[gameId]._currentPlayer, \"X\")){... */\n      jump(tag_290)\n    tag_279:\n        /* \"Practical6-Apply-TTT-Token.sol\":8564:8579  gameInformation */\n      0x07\n        /* \"Practical6-Apply-TTT-Token.sol\":8580:8586  gameId */\n      dup2\n        /* \"Practical6-Apply-TTT-Token.sol\":8564:8587  gameInformation[gameId] */\n      dup2\n      sload\n      dup2\n      lt\n      tag_288\n      jumpi\n      tag_288\n      tag_159\n      jump\t// in\n    tag_288:\n      0x00\n      swap2\n      dup3\n      mstore\n      0x20\n      swap1\n      swap2\n      keccak256\n      0x0b\n      swap1\n      swap2\n      mul\n      add\n        /* \"Practical6-Apply-TTT-Token.sol\":8564:8603  gameInformation[gameId]._player2address */\n      0x05\n      add\n      sload\n      sub(shl(0xa0, 0x01), 0x01)\n      and\n        /* \"Practical6-Apply-TTT-Token.sol\":8550:8560  msg.sender */\n      caller\n        /* \"Practical6-Apply-TTT-Token.sol\":8550:8603  msg.sender == gameInformation[gameId]._player2address */\n      eq\n        /* \"Practical6-Apply-TTT-Token.sol\":8542:8627  require(msg.sender == gameInformation[gameId]._player2address,\"You are not player 2\") */\n      tag_290\n      jumpi\n      mload(0x40)\n      shl(0xe5, 0x461bcd)\n      dup2\n      mstore\n        /* \"#utility.yul\":16961:16963   */\n      0x20\n        /* \"Practical6-Apply-TTT-Token.sol\":8542:8627  require(msg.sender == gameInformation[gameId]._player2address,\"You are not player 2\") */\n      0x04\n      dup3\n      add\n        /* \"#utility.yul\":16943:16964   */\n      mstore\n        /* \"#utility.yul\":17000:17002   */\n      0x14\n        /* \"#utility.yul\":16980:16998   */\n      0x24\n      dup3\n      add\n        /* \"#utility.yul\":16973:17003   */\n      mstore\n      shl(0x61, 0x2cb7ba9030b932903737ba10383630bcb2b91019)\n        /* \"#utility.yul\":17019:17037   */\n      0x44\n      dup3\n      add\n        /* \"#utility.yul\":17012:17062   */\n      mstore\n        /* \"#utility.yul\":17079:17097   */\n      0x64\n      add\n        /* \"Practical6-Apply-TTT-Token.sol\":8542:8627  require(msg.sender == gameInformation[gameId]._player2address,\"You are not player 2\") */\n      tag_103\n        /* \"#utility.yul\":16759:17103   */\n      jump\n        /* \"Practical6-Apply-TTT-Token.sol\":8542:8627  require(msg.sender == gameInformation[gameId]._player2address,\"You are not player 2\") */\n    tag_290:\n        /* \"Practical6-Apply-TTT-Token.sol\":8713:8728  gameInformation */\n      0x07\n        /* \"Practical6-Apply-TTT-Token.sol\":8729:8735  gameId */\n      dup2\n        /* \"Practical6-Apply-TTT-Token.sol\":8713:8736  gameInformation[gameId] */\n      dup2\n      sload\n      dup2\n      lt\n      tag_294\n      jumpi\n      tag_294\n      tag_159\n      jump\t// in\n    tag_294:\n      swap1\n      0x00\n      mstore\n      keccak256(0x00, 0x20)\n      swap1\n      0x0b\n      mul\n      add\n        /* \"Practical6-Apply-TTT-Token.sol\":8713:8751  gameInformation[gameId]._currentPlayer */\n      0x01\n      add\n        /* \"Practical6-Apply-TTT-Token.sol\":8671:8686  gameInformation */\n      0x07\n        /* \"Practical6-Apply-TTT-Token.sol\":8687:8693  gameId */\n      dup3\n        /* \"Practical6-Apply-TTT-Token.sol\":8671:8694  gameInformation[gameId] */\n      dup2\n      sload\n      dup2\n      lt\n      tag_297\n      jumpi\n      tag_297\n      tag_159\n      jump\t// in\n    tag_297:\n      swap1\n      0x00\n      mstore\n      keccak256(0x00, 0x20)\n      swap1\n      0x0b\n      mul\n      add\n        /* \"Practical6-Apply-TTT-Token.sol\":8671:8703  gameInformation[gameId]._options */\n      0x02\n      add\n        /* \"Practical6-Apply-TTT-Token.sol\":8704:8709  input */\n      dup4\n        /* \"Practical6-Apply-TTT-Token.sol\":8671:8710  gameInformation[gameId]._options[input] */\n      dup2\n      sload\n      dup2\n      lt\n      tag_300\n      jumpi\n      tag_300\n      tag_159\n      jump\t// in\n    tag_300:\n      swap1\n      0x00\n      mstore\n      keccak256(0x00, 0x20)\n      add\n        /* \"Practical6-Apply-TTT-Token.sol\":8671:8751  gameInformation[gameId]._options[input] = gameInformation[gameId]._currentPlayer */\n      swap1\n      dup2\n      tag_302\n      swap2\n      swap1\n      tag_303\n      jump\t// in\n    tag_302:\n      pop\n        /* \"Practical6-Apply-TTT-Token.sol\":8817:8867  updateUI(gameInformation[gameId]._options, gameId) */\n      0x9659242f3970136bf08cba261398ae9f0bc58a676137d79d3c2040dcdacbc18b\n        /* \"Practical6-Apply-TTT-Token.sol\":8826:8841  gameInformation */\n      0x07\n        /* \"Practical6-Apply-TTT-Token.sol\":8842:8848  gameId */\n      dup3\n        /* \"Practical6-Apply-TTT-Token.sol\":8826:8849  gameInformation[gameId] */\n      dup2\n      sload\n      dup2\n      lt\n      tag_305\n      jumpi\n      tag_305\n      tag_159\n      jump\t// in\n    tag_305:\n      swap1\n      0x00\n      mstore\n      keccak256(0x00, 0x20)\n      swap1\n      0x0b\n      mul\n      add\n        /* \"Practical6-Apply-TTT-Token.sol\":8826:8858  gameInformation[gameId]._options */\n      0x02\n      add\n        /* \"Practical6-Apply-TTT-Token.sol\":8860:8866  gameId */\n      dup3\n        /* \"Practical6-Apply-TTT-Token.sol\":8817:8867  updateUI(gameInformation[gameId]._options, gameId) */\n      mload(0x40)\n      tag_307\n      swap3\n      swap2\n      swap1\n      tag_308\n      jump\t// in\n    tag_307:\n      mload(0x40)\n      dup1\n      swap2\n      sub\n      swap1\n      log1\n        /* \"Practical6-Apply-TTT-Token.sol\":8975:8994  checkWinner(gameId) */\n      tag_309\n        /* \"Practical6-Apply-TTT-Token.sol\":8987:8993  gameId */\n      dup2\n        /* \"Practical6-Apply-TTT-Token.sol\":8975:8986  checkWinner */\n      tag_310\n        /* \"Practical6-Apply-TTT-Token.sol\":8975:8994  checkWinner(gameId) */\n      jump\t// in\n    tag_309:\n        /* \"Practical6-Apply-TTT-Token.sol\":7992:9038  function userInput(uint input, uint gameId) external {... */\n      pop\n      pop\n      jump\t// out\n        /* \"Practical6-Apply-TTT-Token.sol\":1065:1098  GameInfo[] public gameInformation */\n    tag_63:\n      0x07\n      dup2\n      dup2\n      sload\n      dup2\n      lt\n      tag_311\n      jumpi\n      0x00\n      dup1\n      revert\n    tag_311:\n      0x00\n      swap2\n      dup3\n      mstore\n      0x20\n      swap1\n      swap2\n      keccak256\n      0x0b\n      swap1\n      swap2\n      mul\n      add\n      dup1\n      sload\n      0x01\n      dup3\n      add\n      dup1\n      sload\n      0xff\n      swap1\n      swap3\n      and\n      swap4\n      pop\n      swap1\n      tag_313\n      swap1\n      tag_219\n      jump\t// in\n    tag_313:\n      dup1\n      0x1f\n      add\n      0x20\n      dup1\n      swap2\n      div\n      mul\n      0x20\n      add\n      mload(0x40)\n      swap1\n      dup2\n      add\n      0x40\n      mstore\n      dup1\n      swap3\n      swap2\n      swap1\n      dup2\n      dup2\n      mstore\n      0x20\n      add\n      dup3\n      dup1\n      sload\n      tag_314\n      swap1\n      tag_219\n      jump\t// in\n    tag_314:\n      dup1\n      iszero\n      tag_315\n      jumpi\n      dup1\n      0x1f\n      lt\n      tag_316\n      jumpi\n      0x0100\n      dup1\n      dup4\n      sload\n      div\n      mul\n      dup4\n      mstore\n      swap2\n      0x20\n      add\n      swap2\n      jump(tag_315)\n    tag_316:\n      dup3\n      add\n      swap2\n      swap1\n      0x00\n      mstore\n      keccak256(0x00, 0x20)\n      swap1\n    tag_317:\n      dup2\n      sload\n      dup2\n      mstore\n      swap1\n      0x01\n      add\n      swap1\n      0x20\n      add\n      dup1\n      dup4\n      gt\n      tag_317\n      jumpi\n      dup3\n      swap1\n      sub\n      0x1f\n      and\n      dup3\n      add\n      swap2\n    tag_315:\n      pop\n      pop\n      pop\n      0x04\n      dup5\n      add\n      sload\n      0x05\n      dup6\n      add\n      sload\n      0x06\n      dup7\n      add\n      sload\n      0x07\n      dup8\n      add\n      sload\n      0x08\n      dup9\n      add\n      sload\n      0x09\n      dup10\n      add\n      sload\n      0x0a\n      swap1\n      swap10\n      add\n      sload\n      swap8\n      swap9\n      sub(shl(0xa0, 0x01), 0x01)\n      swap6\n      dup7\n      and\n      swap9\n      swap5\n      dup7\n      and\n      swap8\n      pop\n      swap3\n      swap6\n      pop\n      swap4\n      and\n      swap3\n      swap2\n      dup10\n      jump\t// out\n        /* \"Practical6-Apply-TTT-Token.sol\":2973:3220  function getExcessBalance() external onlyOwner{... */\n    tag_67:\n        /* \"Practical6-Apply-TTT-Token.sol\":3342:3347  owner */\n      and(sub(shl(0xa0, 0x01), 0x01), sload(0x06))\n        /* \"Practical6-Apply-TTT-Token.sol\":3328:3338  msg.sender */\n      caller\n        /* \"Practical6-Apply-TTT-Token.sol\":3328:3347  msg.sender == owner */\n      eq\n        /* \"Practical6-Apply-TTT-Token.sol\":3320:3365  require(msg.sender == owner, \"Not the owner\") */\n      tag_319\n      jumpi\n      mload(0x40)\n      shl(0xe5, 0x461bcd)\n      dup2\n      mstore\n        /* \"#utility.yul\":20541:20543   */\n      0x20\n        /* \"Practical6-Apply-TTT-Token.sol\":3320:3365  require(msg.sender == owner, \"Not the owner\") */\n      0x04\n      dup3\n      add\n        /* \"#utility.yul\":20523:20544   */\n      mstore\n        /* \"#utility.yul\":20580:20582   */\n      0x0d\n        /* \"#utility.yul\":20560:20578   */\n      0x24\n      dup3\n      add\n        /* \"#utility.yul\":20553:20583   */\n      mstore\n      shl(0x99, 0x2737ba103a34329037bbb732b9)\n        /* \"#utility.yul\":20599:20617   */\n      0x44\n      dup3\n      add\n        /* \"#utility.yul\":20592:20635   */\n      mstore\n        /* \"#utility.yul\":20652:20670   */\n      0x64\n      add\n        /* \"Practical6-Apply-TTT-Token.sol\":3320:3365  require(msg.sender == owner, \"Not the owner\") */\n      tag_103\n        /* \"#utility.yul\":20339:20676   */\n      jump\n        /* \"Practical6-Apply-TTT-Token.sol\":3320:3365  require(msg.sender == owner, \"Not the owner\") */\n    tag_319:\n        /* \"Practical6-Apply-TTT-Token.sol\":3078:3089  totalAmount */\n      sload(0x05)\n        /* \"Practical6-Apply-TTT-Token.sol\":3092:3093  0 */\n      0x00\n        /* \"Practical6-Apply-TTT-Token.sol\":3042:3050  TTTToken */\n      dup1\n      sload\n        /* \"Practical6-Apply-TTT-Token.sol\":3042:3075  TTTToken.balanceOf(address(this)) */\n      mload(0x40)\n      shl(0xe0, 0x70a08231)\n      dup2\n      mstore\n        /* \"Practical6-Apply-TTT-Token.sol\":3069:3073  this */\n      address\n        /* \"Practical6-Apply-TTT-Token.sol\":3042:3075  TTTToken.balanceOf(address(this)) */\n      0x04\n      dup3\n      add\n        /* \"#utility.yul\":5328:5379   */\n      mstore\n        /* \"Practical6-Apply-TTT-Token.sol\":3092:3093  0 */\n      swap2\n      swap3\n        /* \"Practical6-Apply-TTT-Token.sol\":3078:3089  totalAmount */\n      swap2\n      sub(shl(0xa0, 0x01), 0x01)\n        /* \"Practical6-Apply-TTT-Token.sol\":3042:3050  TTTToken */\n      swap1\n      swap2\n      and\n      swap1\n        /* \"Practical6-Apply-TTT-Token.sol\":3042:3060  TTTToken.balanceOf */\n      0x70a08231\n      swap1\n        /* \"#utility.yul\":5301:5319   */\n      0x24\n      add\n        /* \"Practical6-Apply-TTT-Token.sol\":3042:3075  TTTToken.balanceOf(address(this)) */\n      0x20\n      mload(0x40)\n      dup1\n      dup4\n      sub\n      dup2\n      dup7\n      gas\n      staticcall\n      iszero\n      dup1\n      iszero\n      tag_325\n      jumpi\n      returndatasize\n      0x00\n      dup1\n      returndatacopy\n      revert(0x00, returndatasize)\n    tag_325:\n      pop\n      pop\n      pop\n      pop\n      mload(0x40)\n      returndatasize\n      not(0x1f)\n      0x1f\n      dup3\n      add\n      and\n      dup3\n      add\n      dup1\n      0x40\n      mstore\n      pop\n      dup2\n      add\n      swap1\n      tag_326\n      swap2\n      swap1\n      tag_110\n      jump\t// in\n    tag_326:\n        /* \"Practical6-Apply-TTT-Token.sol\":3042:3089  TTTToken.balanceOf(address(this)) - totalAmount */\n      tag_327\n      swap2\n      swap1\n      tag_130\n      jump\t// in\n    tag_327:\n        /* \"Practical6-Apply-TTT-Token.sol\":3042:3093  TTTToken.balanceOf(address(this)) - totalAmount > 0 */\n      gt\n        /* \"Practical6-Apply-TTT-Token.sol\":3034:3120  require(TTTToken.balanceOf(address(this)) - totalAmount > 0, \"The token is not extra\") */\n      tag_328\n      jumpi\n      mload(0x40)\n      shl(0xe5, 0x461bcd)\n      dup2\n      mstore\n        /* \"#utility.yul\":20883:20885   */\n      0x20\n        /* \"Practical6-Apply-TTT-Token.sol\":3034:3120  require(TTTToken.balanceOf(address(this)) - totalAmount > 0, \"The token is not extra\") */\n      0x04\n      dup3\n      add\n        /* \"#utility.yul\":20865:20886   */\n      mstore\n        /* \"#utility.yul\":20922:20924   */\n      0x16\n        /* \"#utility.yul\":20902:20920   */\n      0x24\n      dup3\n      add\n        /* \"#utility.yul\":20895:20925   */\n      mstore\n      shl(0x50, 0x54686520746f6b656e206973206e6f74206578747261)\n        /* \"#utility.yul\":20941:20959   */\n      0x44\n      dup3\n      add\n        /* \"#utility.yul\":20934:20986   */\n      mstore\n        /* \"#utility.yul\":21003:21021   */\n      0x64\n      add\n        /* \"Practical6-Apply-TTT-Token.sol\":3034:3120  require(TTTToken.balanceOf(address(this)) - totalAmount > 0, \"The token is not extra\") */\n      tag_103\n        /* \"#utility.yul\":20681:21027   */\n      jump\n        /* \"Practical6-Apply-TTT-Token.sol\":3034:3120  require(TTTToken.balanceOf(address(this)) - totalAmount > 0, \"The token is not extra\") */\n    tag_328:\n        /* \"Practical6-Apply-TTT-Token.sol\":3135:3143  TTTToken */\n      sload(0x00)\n        /* \"Practical6-Apply-TTT-Token.sol\":3153:3158  owner */\n      sload(0x06)\n        /* \"Practical6-Apply-TTT-Token.sol\":3196:3207  totalAmount */\n      sload(0x05)\n        /* \"Practical6-Apply-TTT-Token.sol\":3160:3193  TTTToken.balanceOf(address(this)) */\n      mload(0x40)\n      shl(0xe0, 0x70a08231)\n      dup2\n      mstore\n        /* \"Practical6-Apply-TTT-Token.sol\":3187:3191  this */\n      address\n        /* \"Practical6-Apply-TTT-Token.sol\":3160:3193  TTTToken.balanceOf(address(this)) */\n      0x04\n      dup3\n      add\n        /* \"#utility.yul\":5328:5379   */\n      mstore\n      sub(shl(0xa0, 0x01), 0x01)\n        /* \"Practical6-Apply-TTT-Token.sol\":3135:3143  TTTToken */\n      swap4\n      dup5\n      and\n      swap4\n        /* \"Practical6-Apply-TTT-Token.sol\":3135:3152  TTTToken.transfer */\n      0xa9059cbb\n      swap4\n        /* \"Practical6-Apply-TTT-Token.sol\":3153:3158  owner */\n      and\n      swap2\n        /* \"Practical6-Apply-TTT-Token.sol\":3196:3207  totalAmount */\n      swap1\n        /* \"Practical6-Apply-TTT-Token.sol\":3135:3143  TTTToken */\n      dup5\n      swap1\n        /* \"Practical6-Apply-TTT-Token.sol\":3160:3178  TTTToken.balanceOf */\n      0x70a08231\n      swap1\n        /* \"#utility.yul\":5301:5319   */\n      0x24\n      add\n        /* \"Practical6-Apply-TTT-Token.sol\":3160:3193  TTTToken.balanceOf(address(this)) */\n      0x20\n      mload(0x40)\n      dup1\n      dup4\n      sub\n      dup2\n      dup7\n      gas\n      staticcall\n      iszero\n      dup1\n      iszero\n      tag_333\n      jumpi\n      returndatasize\n      0x00\n      dup1\n      returndatacopy\n      revert(0x00, returndatasize)\n    tag_333:\n      pop\n      pop\n      pop\n      pop\n      mload(0x40)\n      returndatasize\n      not(0x1f)\n      0x1f\n      dup3\n      add\n      and\n      dup3\n      add\n      dup1\n      0x40\n      mstore\n      pop\n      dup2\n      add\n      swap1\n      tag_334\n      swap2\n      swap1\n      tag_110\n      jump\t// in\n    tag_334:\n        /* \"Practical6-Apply-TTT-Token.sol\":3160:3207  TTTToken.balanceOf(address(this)) - totalAmount */\n      tag_335\n      swap2\n      swap1\n      tag_130\n      jump\t// in\n    tag_335:\n        /* \"Practical6-Apply-TTT-Token.sol\":3135:3208  TTTToken.transfer(owner, TTTToken.balanceOf(address(this)) - totalAmount) */\n      mload(0x40)\n      not(sub(shl(0xe0, 0x01), 0x01))\n      0xe0\n      dup6\n      swap1\n      shl\n      and\n      dup2\n      mstore\n      sub(shl(0xa0, 0x01), 0x01)\n        /* \"#utility.yul\":10607:10639   */\n      swap1\n      swap3\n      and\n        /* \"Practical6-Apply-TTT-Token.sol\":3135:3208  TTTToken.transfer(owner, TTTToken.balanceOf(address(this)) - totalAmount) */\n      0x04\n      dup4\n      add\n        /* \"#utility.yul\":10589:10640   */\n      mstore\n        /* \"#utility.yul\":10656:10674   */\n      0x24\n      dup3\n      add\n        /* \"#utility.yul\":10649:10683   */\n      mstore\n        /* \"#utility.yul\":10562:10580   */\n      0x44\n      add\n        /* \"Practical6-Apply-TTT-Token.sol\":3135:3208  TTTToken.transfer(owner, TTTToken.balanceOf(address(this)) - totalAmount) */\n      0x20\n      mload(0x40)\n      dup1\n      dup4\n      sub\n      dup2\n      0x00\n      dup8\n      gas\n      call\n      iszero\n      dup1\n      iszero\n      tag_338\n      jumpi\n      returndatasize\n      0x00\n      dup1\n      returndatacopy\n      revert(0x00, returndatasize)\n    tag_338:\n      pop\n      pop\n      pop\n      pop\n      mload(0x40)\n      returndatasize\n      not(0x1f)\n      0x1f\n      dup3\n      add\n      and\n      dup3\n      add\n      dup1\n      0x40\n      mstore\n      pop\n      dup2\n      add\n      swap1\n      tag_213\n      swap2\n      swap1\n      tag_122\n      jump\t// in\n        /* \"Practical6-Apply-TTT-Token.sol\":4005:4143  function getGameInformation (uint gameId) external view returns (GameInfo memory){... */\n    tag_73:\n        /* \"Practical6-Apply-TTT-Token.sol\":4070:4085  GameInfo memory */\n      tag_340\n      tag_148\n      jump\t// in\n    tag_340:\n        /* \"Practical6-Apply-TTT-Token.sol\":4108:4123  gameInformation */\n      0x07\n        /* \"Practical6-Apply-TTT-Token.sol\":4124:4130  gameId */\n      dup3\n        /* \"Practical6-Apply-TTT-Token.sol\":4108:4131  gameInformation[gameId] */\n      dup2\n      sload\n      dup2\n      lt\n      tag_343\n      jumpi\n      tag_343\n      tag_159\n      jump\t// in\n    tag_343:\n      0x00\n      swap2\n      dup3\n      mstore\n      0x20\n      swap2\n      dup3\n      swap1\n      keccak256\n        /* \"Practical6-Apply-TTT-Token.sol\":4101:4131  return gameInformation[gameId] */\n      0x40\n      dup1\n      mload\n      0x0160\n      dup2\n      add\n      swap1\n      swap2\n      mstore\n        /* \"Practical6-Apply-TTT-Token.sol\":4108:4131  gameInformation[gameId] */\n      0x0b\n      swap1\n      swap3\n      mul\n      add\n        /* \"Practical6-Apply-TTT-Token.sol\":4101:4131  return gameInformation[gameId] */\n      dup1\n      sload\n      0xff\n      and\n      iszero\n      iszero\n      dup3\n      mstore\n      0x01\n      dup2\n      add\n      dup1\n      sload\n      swap3\n      swap4\n        /* \"Practical6-Apply-TTT-Token.sol\":4108:4131  gameInformation[gameId] */\n      swap2\n      swap3\n        /* \"Practical6-Apply-TTT-Token.sol\":4101:4131  return gameInformation[gameId] */\n      swap2\n      dup5\n      add\n      swap2\n      tag_345\n      swap1\n      tag_219\n      jump\t// in\n    tag_345:\n      dup1\n      0x1f\n      add\n      0x20\n      dup1\n      swap2\n      div\n      mul\n      0x20\n      add\n      mload(0x40)\n      swap1\n      dup2\n      add\n      0x40\n      mstore\n      dup1\n      swap3\n      swap2\n      swap1\n      dup2\n      dup2\n      mstore\n      0x20\n      add\n      dup3\n      dup1\n      sload\n      tag_346\n      swap1\n      tag_219\n      jump\t// in\n    tag_346:\n      dup1\n      iszero\n      tag_347\n      jumpi\n      dup1\n      0x1f\n      lt\n      tag_348\n      jumpi\n      0x0100\n      dup1\n      dup4\n      sload\n      div\n      mul\n      dup4\n      mstore\n      swap2\n      0x20\n      add\n      swap2\n      jump(tag_347)\n    tag_348:\n      dup3\n      add\n      swap2\n      swap1\n      0x00\n      mstore\n      keccak256(0x00, 0x20)\n      swap1\n    tag_349:\n      dup2\n      sload\n      dup2\n      mstore\n      swap1\n      0x01\n      add\n      swap1\n      0x20\n      add\n      dup1\n      dup4\n      gt\n      tag_349\n      jumpi\n      dup3\n      swap1\n      sub\n      0x1f\n      and\n      dup3\n      add\n      swap2\n    tag_347:\n      pop\n      pop\n      pop\n      pop\n      pop\n      dup2\n      mstore\n      0x20\n      add\n      0x02\n      dup3\n      add\n      dup1\n      sload\n      dup1\n      0x20\n      mul\n      0x20\n      add\n      mload(0x40)\n      swap1\n      dup2\n      add\n      0x40\n      mstore\n      dup1\n      swap3\n      swap2\n      swap1\n      dup2\n      dup2\n      mstore\n      0x20\n      add\n      0x00\n      swap1\n    tag_350:\n      dup3\n      dup3\n      lt\n      iszero\n      tag_351\n      jumpi\n      dup4\n      dup3\n      swap1\n      0x00\n      mstore\n      keccak256(0x00, 0x20)\n      add\n      dup1\n      sload\n      tag_353\n      swap1\n      tag_219\n      jump\t// in\n    tag_353:\n      dup1\n      0x1f\n      add\n      0x20\n      dup1\n      swap2\n      div\n      mul\n      0x20\n      add\n      mload(0x40)\n      swap1\n      dup2\n      add\n      0x40\n      mstore\n      dup1\n      swap3\n      swap2\n      swap1\n      dup2\n      dup2\n      mstore\n      0x20\n      add\n      dup3\n      dup1\n      sload\n      tag_354\n      swap1\n      tag_219\n      jump\t// in\n    tag_354:\n      dup1\n      iszero\n      tag_355\n      jumpi\n      dup1\n      0x1f\n      lt\n      tag_356\n      jumpi\n      0x0100\n      dup1\n      dup4\n      sload\n      div\n      mul\n      dup4\n      mstore\n      swap2\n      0x20\n      add\n      swap2\n      jump(tag_355)\n    tag_356:\n      dup3\n      add\n      swap2\n      swap1\n      0x00\n      mstore\n      keccak256(0x00, 0x20)\n      swap1\n    tag_357:\n      dup2\n      sload\n      dup2\n      mstore\n      swap1\n      0x01\n      add\n      swap1\n      0x20\n      add\n      dup1\n      dup4\n      gt\n      tag_357\n      jumpi\n      dup3\n      swap1\n      sub\n      0x1f\n      and\n      dup3\n      add\n      swap2\n    tag_355:\n      pop\n      pop\n      pop\n      pop\n      pop\n      dup2\n      mstore\n      0x20\n      add\n      swap1\n      0x01\n      add\n      swap1\n      jump(tag_350)\n    tag_351:\n      pop\n      pop\n      pop\n      pop\n      dup2\n      mstore\n      0x20\n      add\n      0x03\n      dup3\n      add\n      dup1\n      sload\n      dup1\n      0x20\n      mul\n      0x20\n      add\n      mload(0x40)\n      swap1\n      dup2\n      add\n      0x40\n      mstore\n      dup1\n      swap3\n      swap2\n      swap1\n      dup2\n      dup2\n      mstore\n      0x20\n      add\n      dup3\n      dup1\n      sload\n      dup1\n      iszero\n      tag_358\n      jumpi\n      0x20\n      mul\n      dup3\n      add\n      swap2\n      swap1\n      0x00\n      mstore\n      keccak256(0x00, 0x20)\n      swap1\n    tag_359:\n      dup2\n      sload\n      dup2\n      mstore\n      0x20\n      add\n      swap1\n      0x01\n      add\n      swap1\n      dup1\n      dup4\n      gt\n      tag_359\n      jumpi\n    tag_358:\n      pop\n      pop\n      pop\n      swap2\n      dup4\n      mstore\n      pop\n      pop\n      0x04\n      dup3\n      add\n      sload\n      sub(shl(0xa0, 0x01), 0x01)\n      swap1\n      dup2\n      and\n      0x20\n      dup4\n      add\n      mstore\n      0x05\n      dup4\n      add\n      sload\n      dup2\n      and\n      0x40\n      dup4\n      add\n      mstore\n      0x06\n      dup4\n      add\n      sload\n      0x60\n      dup4\n      add\n      mstore\n      0x07\n      dup4\n      add\n      sload\n      and\n      0x80\n      dup3\n      add\n      mstore\n      0x08\n      dup3\n      add\n      sload\n      0xa0\n      dup3\n      add\n      mstore\n      0x09\n      dup3\n      add\n      sload\n      0xc0\n      dup3\n      add\n      mstore\n      0x0a\n      swap1\n      swap2\n      add\n      sload\n      0xe0\n      swap1\n      swap2\n      add\n      mstore\n      swap3\n        /* \"Practical6-Apply-TTT-Token.sol\":4005:4143  function getGameInformation (uint gameId) external view returns (GameInfo memory){... */\n      swap2\n      pop\n      pop\n      jump\t// out\n        /* \"Practical6-Apply-TTT-Token.sol\":5880:7874  function joinGame (uint gameId, uint256 betAmount) external noReentrancy {... */\n    tag_78:\n        /* \"Practical6-Apply-TTT-Token.sol\":3478:3484  locked */\n      sload(0x06)\n      shl(0xa0, 0x01)\n      swap1\n      div\n      0xff\n      and\n        /* \"Practical6-Apply-TTT-Token.sol\":3477:3484  !locked */\n      iszero\n        /* \"Practical6-Apply-TTT-Token.sol\":3469:3510  require(!locked, \"Error: Reentrant call\") */\n      tag_361\n      jumpi\n      mload(0x40)\n      shl(0xe5, 0x461bcd)\n      dup2\n      mstore\n        /* \"#utility.yul\":9376:9378   */\n      0x20\n        /* \"Practical6-Apply-TTT-Token.sol\":3469:3510  require(!locked, \"Error: Reentrant call\") */\n      0x04\n      dup3\n      add\n        /* \"#utility.yul\":9358:9379   */\n      mstore\n        /* \"#utility.yul\":9415:9417   */\n      0x15\n        /* \"#utility.yul\":9395:9413   */\n      0x24\n      dup3\n      add\n        /* \"#utility.yul\":9388:9418   */\n      mstore\n      shl(0x5a, 0x115c9c9bdc8e881499595b9d1c985b9d0818d85b1b)\n        /* \"#utility.yul\":9434:9452   */\n      0x44\n      dup3\n      add\n        /* \"#utility.yul\":9427:9478   */\n      mstore\n        /* \"#utility.yul\":9495:9513   */\n      0x64\n      add\n        /* \"Practical6-Apply-TTT-Token.sol\":3469:3510  require(!locked, \"Error: Reentrant call\") */\n      tag_103\n        /* \"#utility.yul\":9174:9519   */\n      jump\n        /* \"Practical6-Apply-TTT-Token.sol\":3469:3510  require(!locked, \"Error: Reentrant call\") */\n    tag_361:\n        /* \"Practical6-Apply-TTT-Token.sol\":3525:3531  locked */\n      0x06\n        /* \"Practical6-Apply-TTT-Token.sol\":3525:3538  locked = true */\n      dup1\n      sload\n      not(shl(0xa0, 0xff))\n      and\n      shl(0xa0, 0x01)\n      or\n      swap1\n      sstore\n        /* \"Practical6-Apply-TTT-Token.sol\":6046:6061  gameInformation */\n      0x07\n        /* \"Practical6-Apply-TTT-Token.sol\":6046:6069  gameInformation[gameId] */\n      dup1\n      sload\n        /* \"Practical6-Apply-TTT-Token.sol\":6062:6068  gameId */\n      dup4\n      swap1\n        /* \"Practical6-Apply-TTT-Token.sol\":6046:6069  gameInformation[gameId] */\n      dup2\n      lt\n      tag_365\n      jumpi\n      tag_365\n      tag_159\n      jump\t// in\n    tag_365:\n      swap1\n      0x00\n      mstore\n      keccak256(0x00, 0x20)\n      swap1\n      0x0b\n      mul\n      add\n        /* \"Practical6-Apply-TTT-Token.sol\":6046:6082  gameInformation[gameId]._playerCount */\n      0x06\n      add\n      sload\n        /* \"Practical6-Apply-TTT-Token.sol\":6086:6087  1 */\n      0x01\n        /* \"Practical6-Apply-TTT-Token.sol\":6046:6087  gameInformation[gameId]._playerCount == 1 */\n      sub\n        /* \"Practical6-Apply-TTT-Token.sol\":6043:7757  if(gameInformation[gameId]._playerCount == 1){... */\n      tag_367\n      jumpi\n        /* \"Practical6-Apply-TTT-Token.sol\":6149:6164  gameInformation */\n      0x07\n        /* \"Practical6-Apply-TTT-Token.sol\":6165:6171  gameId */\n      dup3\n        /* \"Practical6-Apply-TTT-Token.sol\":6149:6172  gameInformation[gameId] */\n      dup2\n      sload\n      dup2\n      lt\n      tag_369\n      jumpi\n      tag_369\n      tag_159\n      jump\t// in\n    tag_369:\n      0x00\n      swap2\n      dup3\n      mstore\n      0x20\n      dup3\n      keccak256\n      0x0b\n      swap2\n      swap1\n      swap2\n      mul\n      add\n        /* \"Practical6-Apply-TTT-Token.sol\":6149:6184  gameInformation[gameId]._player1Bet */\n      0x08\n      add\n      sload\n        /* \"Practical6-Apply-TTT-Token.sol\":6115:6123  TTTToken */\n      swap1\n      sload\n        /* \"Practical6-Apply-TTT-Token.sol\":6115:6145  TTTToken.balanceOf(msg.sender) */\n      mload(0x40)\n      shl(0xe0, 0x70a08231)\n      dup2\n      mstore\n        /* \"Practical6-Apply-TTT-Token.sol\":6134:6144  msg.sender */\n      caller\n        /* \"Practical6-Apply-TTT-Token.sol\":6115:6145  TTTToken.balanceOf(msg.sender) */\n      0x04\n      dup3\n      add\n        /* \"#utility.yul\":5328:5379   */\n      mstore\n      sub(shl(0xa0, 0x01), 0x01)\n        /* \"Practical6-Apply-TTT-Token.sol\":6115:6123  TTTToken */\n      swap1\n      swap2\n      and\n      swap1\n        /* \"Practical6-Apply-TTT-Token.sol\":6115:6133  TTTToken.balanceOf */\n      0x70a08231\n      swap1\n        /* \"#utility.yul\":5301:5319   */\n      0x24\n      add\n        /* \"Practical6-Apply-TTT-Token.sol\":6115:6145  TTTToken.balanceOf(msg.sender) */\n      0x20\n      mload(0x40)\n      dup1\n      dup4\n      sub\n      dup2\n      dup7\n      gas\n      staticcall\n      iszero\n      dup1\n      iszero\n      tag_373\n      jumpi\n      returndatasize\n      0x00\n      dup1\n      returndatacopy\n      revert(0x00, returndatasize)\n    tag_373:\n      pop\n      pop\n      pop\n      pop\n      mload(0x40)\n      returndatasize\n      not(0x1f)\n      0x1f\n      dup3\n      add\n      and\n      dup3\n      add\n      dup1\n      0x40\n      mstore\n      pop\n      dup2\n      add\n      swap1\n      tag_374\n      swap2\n      swap1\n      tag_110\n      jump\t// in\n    tag_374:\n        /* \"Practical6-Apply-TTT-Token.sol\":6115:6184  TTTToken.balanceOf(msg.sender) >= gameInformation[gameId]._player1Bet */\n      lt\n      iszero\n        /* \"Practical6-Apply-TTT-Token.sol\":6107:6207  require(TTTToken.balanceOf(msg.sender) >= gameInformation[gameId]._player1Bet, \"Not enough balance\") */\n      tag_375\n      jumpi\n      mload(0x40)\n      shl(0xe5, 0x461bcd)\n      dup2\n      mstore\n        /* \"#utility.yul\":9915:9917   */\n      0x20\n        /* \"Practical6-Apply-TTT-Token.sol\":6107:6207  require(TTTToken.balanceOf(msg.sender) >= gameInformation[gameId]._player1Bet, \"Not enough balance\") */\n      0x04\n      dup3\n      add\n        /* \"#utility.yul\":9897:9918   */\n      mstore\n        /* \"#utility.yul\":9954:9956   */\n      0x12\n        /* \"#utility.yul\":9934:9952   */\n      0x24\n      dup3\n      add\n        /* \"#utility.yul\":9927:9957   */\n      mstore\n      shl(0x70, 0x4e6f7420656e6f7567682062616c616e6365)\n        /* \"#utility.yul\":9973:9991   */\n      0x44\n      dup3\n      add\n        /* \"#utility.yul\":9966:10014   */\n      mstore\n        /* \"#utility.yul\":10031:10049   */\n      0x64\n      add\n        /* \"Practical6-Apply-TTT-Token.sol\":6107:6207  require(TTTToken.balanceOf(msg.sender) >= gameInformation[gameId]._player1Bet, \"Not enough balance\") */\n      tag_103\n        /* \"#utility.yul\":9713:10055   */\n      jump\n        /* \"Practical6-Apply-TTT-Token.sol\":6107:6207  require(TTTToken.balanceOf(msg.sender) >= gameInformation[gameId]._player1Bet, \"Not enough balance\") */\n    tag_375:\n        /* \"Practical6-Apply-TTT-Token.sol\":6247:6262  gameInformation */\n      0x07\n        /* \"Practical6-Apply-TTT-Token.sol\":6263:6269  gameId */\n      dup3\n        /* \"Practical6-Apply-TTT-Token.sol\":6247:6270  gameInformation[gameId] */\n      dup2\n      sload\n      dup2\n      lt\n      tag_378\n      jumpi\n      tag_378\n      tag_159\n      jump\t// in\n    tag_378:\n      swap1\n      0x00\n      mstore\n      keccak256(0x00, 0x20)\n      swap1\n      0x0b\n      mul\n      add\n        /* \"Practical6-Apply-TTT-Token.sol\":6247:6282  gameInformation[gameId]._player1Bet */\n      0x08\n      add\n      sload\n        /* \"Practical6-Apply-TTT-Token.sol\":6234:6243  betAmount */\n      dup2\n        /* \"Practical6-Apply-TTT-Token.sol\":6234:6282  betAmount == gameInformation[gameId]._player1Bet */\n      eq\n        /* \"Practical6-Apply-TTT-Token.sol\":6226:6313  require(betAmount == gameInformation[gameId]._player1Bet, \"Need to pay min bet amount\") */\n      tag_380\n      jumpi\n      mload(0x40)\n      shl(0xe5, 0x461bcd)\n      dup2\n      mstore\n        /* \"#utility.yul\":10262:10264   */\n      0x20\n        /* \"Practical6-Apply-TTT-Token.sol\":6226:6313  require(betAmount == gameInformation[gameId]._player1Bet, \"Need to pay min bet amount\") */\n      0x04\n      dup3\n      add\n        /* \"#utility.yul\":10244:10265   */\n      mstore\n        /* \"#utility.yul\":10301:10303   */\n      0x1a\n        /* \"#utility.yul\":10281:10299   */\n      0x24\n      dup3\n      add\n        /* \"#utility.yul\":10274:10304   */\n      mstore\n        /* \"#utility.yul\":10340:10368   */\n      0x4e65656420746f20706179206d696e2062657420616d6f756e74000000000000\n        /* \"#utility.yul\":10320:10338   */\n      0x44\n      dup3\n      add\n        /* \"#utility.yul\":10313:10369   */\n      mstore\n        /* \"#utility.yul\":10386:10404   */\n      0x64\n      add\n        /* \"Practical6-Apply-TTT-Token.sol\":6226:6313  require(betAmount == gameInformation[gameId]._player1Bet, \"Need to pay min bet amount\") */\n      tag_103\n        /* \"#utility.yul\":10060:10410   */\n      jump\n        /* \"Practical6-Apply-TTT-Token.sol\":6226:6313  require(betAmount == gameInformation[gameId]._player1Bet, \"Need to pay min bet amount\") */\n    tag_380:\n        /* \"Practical6-Apply-TTT-Token.sol\":6334:6342  TTTToken */\n      sload(0x00)\n        /* \"Practical6-Apply-TTT-Token.sol\":6334:6373  TTTToken.approve(msg.sender, betAmount) */\n      mload(0x40)\n      shl(0xe0, 0x095ea7b3)\n      dup2\n      mstore\n        /* \"Practical6-Apply-TTT-Token.sol\":6351:6361  msg.sender */\n      caller\n        /* \"Practical6-Apply-TTT-Token.sol\":6334:6373  TTTToken.approve(msg.sender, betAmount) */\n      0x04\n      dup3\n      add\n        /* \"#utility.yul\":10589:10640   */\n      mstore\n        /* \"#utility.yul\":10656:10674   */\n      0x24\n      dup2\n      add\n        /* \"#utility.yul\":10649:10683   */\n      dup4\n      swap1\n      mstore\n      sub(shl(0xa0, 0x01), 0x01)\n        /* \"Practical6-Apply-TTT-Token.sol\":6334:6342  TTTToken */\n      swap1\n      swap2\n      and\n      swap1\n        /* \"Practical6-Apply-TTT-Token.sol\":6334:6350  TTTToken.approve */\n      0x095ea7b3\n      swap1\n        /* \"#utility.yul\":10562:10580   */\n      0x44\n      add\n        /* \"Practical6-Apply-TTT-Token.sol\":6334:6373  TTTToken.approve(msg.sender, betAmount) */\n      0x20\n      mload(0x40)\n      dup1\n      dup4\n      sub\n      dup2\n      0x00\n      dup8\n      gas\n      call\n      iszero\n      dup1\n      iszero\n      tag_384\n      jumpi\n      returndatasize\n      0x00\n      dup1\n      returndatacopy\n      revert(0x00, returndatasize)\n    tag_384:\n      pop\n      pop\n      pop\n      pop\n      mload(0x40)\n      returndatasize\n      not(0x1f)\n      0x1f\n      dup3\n      add\n      and\n      dup3\n      add\n      dup1\n      0x40\n      mstore\n      pop\n      dup2\n      add\n      swap1\n      tag_385\n      swap2\n      swap1\n      tag_122\n      jump\t// in\n    tag_385:\n      pop\n        /* \"Practical6-Apply-TTT-Token.sol\":6394:6412  uint256 burnAmount */\n      0x00\n        /* \"Practical6-Apply-TTT-Token.sol\":6439:6442  100 */\n      0x64\n        /* \"Practical6-Apply-TTT-Token.sol\":6428:6435  burnFee */\n      sload(0x03)\n        /* \"Practical6-Apply-TTT-Token.sol\":6416:6425  betAmount */\n      dup4\n        /* \"Practical6-Apply-TTT-Token.sol\":6416:6435  betAmount * burnFee */\n      tag_386\n      swap2\n      swap1\n      tag_124\n      jump\t// in\n    tag_386:\n        /* \"Practical6-Apply-TTT-Token.sol\":6415:6442  (betAmount * burnFee) / 100 */\n      tag_387\n      swap2\n      swap1\n      tag_126\n      jump\t// in\n    tag_387:\n        /* \"Practical6-Apply-TTT-Token.sol\":6394:6442  uint256 burnAmount = (betAmount * burnFee) / 100 */\n      swap1\n      pop\n        /* \"Practical6-Apply-TTT-Token.sol\":6461:6483  uint256 treasuryAmount */\n      0x00\n        /* \"Practical6-Apply-TTT-Token.sol\":6514:6517  100 */\n      0x64\n        /* \"Practical6-Apply-TTT-Token.sol\":6499:6510  treasuryFee */\n      sload(0x04)\n        /* \"Practical6-Apply-TTT-Token.sol\":6487:6496  betAmount */\n      dup5\n        /* \"Practical6-Apply-TTT-Token.sol\":6487:6510  betAmount * treasuryFee */\n      tag_388\n      swap2\n      swap1\n      tag_124\n      jump\t// in\n    tag_388:\n        /* \"Practical6-Apply-TTT-Token.sol\":6486:6517  (betAmount * treasuryFee) / 100 */\n      tag_389\n      swap2\n      swap1\n      tag_126\n      jump\t// in\n    tag_389:\n        /* \"Practical6-Apply-TTT-Token.sol\":6461:6517  uint256 treasuryAmount = (betAmount * treasuryFee) / 100 */\n      swap1\n      pop\n        /* \"Practical6-Apply-TTT-Token.sol\":6536:6556  uint256 rewardAmount */\n      0x00\n        /* \"Practical6-Apply-TTT-Token.sol\":6461:6517  uint256 treasuryAmount = (betAmount * treasuryFee) / 100 */\n      dup2\n        /* \"Practical6-Apply-TTT-Token.sol\":6559:6581  betAmount - burnAmount */\n      tag_390\n        /* \"Practical6-Apply-TTT-Token.sol\":6571:6581  burnAmount */\n      dup5\n        /* \"Practical6-Apply-TTT-Token.sol\":6559:6568  betAmount */\n      dup7\n        /* \"Practical6-Apply-TTT-Token.sol\":6559:6581  betAmount - burnAmount */\n      tag_130\n      jump\t// in\n    tag_390:\n        /* \"Practical6-Apply-TTT-Token.sol\":6559:6598  betAmount - burnAmount - treasuryAmount */\n      tag_391\n      swap2\n      swap1\n      tag_130\n      jump\t// in\n    tag_391:\n        /* \"Practical6-Apply-TTT-Token.sol\":6619:6627  TTTToken */\n      sload(0x00)\n        /* \"Practical6-Apply-TTT-Token.sol\":6619:6681  TTTToken.transferFrom(msg.sender, address(0xdead), burnAmount) */\n      mload(0x40)\n      shl(0xe0, 0x23b872dd)\n      dup2\n      mstore\n        /* \"Practical6-Apply-TTT-Token.sol\":6536:6598  uint256 rewardAmount = betAmount - burnAmount - treasuryAmount */\n      swap2\n      swap3\n      pop\n      sub(shl(0xa0, 0x01), 0x01)\n        /* \"Practical6-Apply-TTT-Token.sol\":6619:6627  TTTToken */\n      and\n      swap1\n        /* \"Practical6-Apply-TTT-Token.sol\":6619:6640  TTTToken.transferFrom */\n      0x23b872dd\n      swap1\n        /* \"Practical6-Apply-TTT-Token.sol\":6619:6681  TTTToken.transferFrom(msg.sender, address(0xdead), burnAmount) */\n      tag_392\n      swap1\n        /* \"Practical6-Apply-TTT-Token.sol\":6641:6651  msg.sender */\n      caller\n      swap1\n        /* \"Practical6-Apply-TTT-Token.sol\":6661:6667  0xdead */\n      0xdead\n      swap1\n        /* \"Practical6-Apply-TTT-Token.sol\":6670:6680  burnAmount */\n      dup9\n      swap1\n        /* \"Practical6-Apply-TTT-Token.sol\":6619:6681  TTTToken.transferFrom(msg.sender, address(0xdead), burnAmount) */\n      0x04\n      add\n      tag_133\n      jump\t// in\n    tag_392:\n      0x20\n      mload(0x40)\n      dup1\n      dup4\n      sub\n      dup2\n      0x00\n      dup8\n      gas\n      call\n      iszero\n      dup1\n      iszero\n      tag_394\n      jumpi\n      returndatasize\n      0x00\n      dup1\n      returndatacopy\n      revert(0x00, returndatasize)\n    tag_394:\n      pop\n      pop\n      pop\n      pop\n      mload(0x40)\n      returndatasize\n      not(0x1f)\n      0x1f\n      dup3\n      add\n      and\n      dup3\n      add\n      dup1\n      0x40\n      mstore\n      pop\n      dup2\n      add\n      swap1\n      tag_395\n      swap2\n      swap1\n      tag_122\n      jump\t// in\n    tag_395:\n      pop\n        /* \"Practical6-Apply-TTT-Token.sol\":6700:6708  TTTToken */\n      sload(0x00)\n        /* \"Practical6-Apply-TTT-Token.sol\":6734:6742  treasury */\n      sload(0x02)\n        /* \"Practical6-Apply-TTT-Token.sol\":6700:6759  TTTToken.transferFrom(msg.sender, treasury, treasuryAmount) */\n      mload(0x40)\n      shl(0xe0, 0x23b872dd)\n      dup2\n      mstore\n      sub(shl(0xa0, 0x01), 0x01)\n        /* \"Practical6-Apply-TTT-Token.sol\":6700:6708  TTTToken */\n      swap3\n      dup4\n      and\n      swap3\n        /* \"Practical6-Apply-TTT-Token.sol\":6700:6721  TTTToken.transferFrom */\n      0x23b872dd\n      swap3\n        /* \"Practical6-Apply-TTT-Token.sol\":6700:6759  TTTToken.transferFrom(msg.sender, treasury, treasuryAmount) */\n      tag_396\n      swap3\n        /* \"Practical6-Apply-TTT-Token.sol\":6722:6732  msg.sender */\n      caller\n      swap3\n        /* \"Practical6-Apply-TTT-Token.sol\":6734:6742  treasury */\n      swap1\n      swap2\n      and\n      swap1\n        /* \"Practical6-Apply-TTT-Token.sol\":6744:6758  treasuryAmount */\n      dup8\n      swap1\n        /* \"Practical6-Apply-TTT-Token.sol\":6700:6759  TTTToken.transferFrom(msg.sender, treasury, treasuryAmount) */\n      0x04\n      add\n      tag_133\n      jump\t// in\n    tag_396:\n      0x20\n      mload(0x40)\n      dup1\n      dup4\n      sub\n      dup2\n      0x00\n      dup8\n      gas\n      call\n      iszero\n      dup1\n      iszero\n      tag_398\n      jumpi\n      returndatasize\n      0x00\n      dup1\n      returndatacopy\n      revert(0x00, returndatasize)\n    tag_398:\n      pop\n      pop\n      pop\n      pop\n      mload(0x40)\n      returndatasize\n      not(0x1f)\n      0x1f\n      dup3\n      add\n      and\n      dup3\n      add\n      dup1\n      0x40\n      mstore\n      pop\n      dup2\n      add\n      swap1\n      tag_399\n      swap2\n      swap1\n      tag_122\n      jump\t// in\n    tag_399:\n      pop\n        /* \"Practical6-Apply-TTT-Token.sol\":6778:6786  TTTToken */\n      sload(0x00)\n        /* \"Practical6-Apply-TTT-Token.sol\":6778:6840  TTTToken.transferFrom(msg.sender, address(this), rewardAmount) */\n      mload(0x40)\n      shl(0xe0, 0x23b872dd)\n      dup2\n      mstore\n      sub(shl(0xa0, 0x01), 0x01)\n        /* \"Practical6-Apply-TTT-Token.sol\":6778:6786  TTTToken */\n      swap1\n      swap2\n      and\n      swap1\n        /* \"Practical6-Apply-TTT-Token.sol\":6778:6799  TTTToken.transferFrom */\n      0x23b872dd\n      swap1\n        /* \"Practical6-Apply-TTT-Token.sol\":6778:6840  TTTToken.transferFrom(msg.sender, address(this), rewardAmount) */\n      tag_400\n      swap1\n        /* \"Practical6-Apply-TTT-Token.sol\":6800:6810  msg.sender */\n      caller\n      swap1\n        /* \"Practical6-Apply-TTT-Token.sol\":6820:6824  this */\n      address\n      swap1\n        /* \"Practical6-Apply-TTT-Token.sol\":6827:6839  rewardAmount */\n      dup7\n      swap1\n        /* \"Practical6-Apply-TTT-Token.sol\":6778:6840  TTTToken.transferFrom(msg.sender, address(this), rewardAmount) */\n      0x04\n      add\n      tag_133\n      jump\t// in\n    tag_400:\n      0x20\n      mload(0x40)\n      dup1\n      dup4\n      sub\n      dup2\n      0x00\n      dup8\n      gas\n      call\n      iszero\n      dup1\n      iszero\n      tag_402\n      jumpi\n      returndatasize\n      0x00\n      dup1\n      returndatacopy\n      revert(0x00, returndatasize)\n    tag_402:\n      pop\n      pop\n      pop\n      pop\n      mload(0x40)\n      returndatasize\n      not(0x1f)\n      0x1f\n      dup3\n      add\n      and\n      dup3\n      add\n      dup1\n      0x40\n      mstore\n      pop\n      dup2\n      add\n      swap1\n      tag_403\n      swap2\n      swap1\n      tag_122\n      jump\t// in\n    tag_403:\n      pop\n        /* \"Practical6-Apply-TTT-Token.sol\":6876:6888  rewardAmount */\n      dup1\n        /* \"Practical6-Apply-TTT-Token.sol\":6861:6872  totalAmount */\n      0x05\n      0x00\n        /* \"Practical6-Apply-TTT-Token.sol\":6861:6888  totalAmount += rewardAmount */\n      dup3\n      dup3\n      sload\n      tag_404\n      swap2\n      swap1\n      tag_146\n      jump\t// in\n    tag_404:\n      swap1\n      swap2\n      sstore\n      pop\n      pop\n        /* \"Practical6-Apply-TTT-Token.sol\":6933:6948  gameInformation */\n      0x07\n        /* \"Practical6-Apply-TTT-Token.sol\":6933:6956  gameInformation[gameId] */\n      dup1\n      sload\n        /* \"Practical6-Apply-TTT-Token.sol\":6949:6955  gameId */\n      dup7\n      swap1\n        /* \"Practical6-Apply-TTT-Token.sol\":6933:6956  gameInformation[gameId] */\n      dup2\n      lt\n      tag_406\n      jumpi\n      tag_406\n      tag_159\n      jump\t// in\n    tag_406:\n      0x00\n      swap2\n      dup3\n      mstore\n      0x20\n      swap1\n      swap2\n      keccak256\n        /* \"Practical6-Apply-TTT-Token.sol\":6933:6972  gameInformation[gameId]._player1address */\n      0x04\n        /* \"Practical6-Apply-TTT-Token.sol\":6933:6956  gameInformation[gameId] */\n      0x0b\n      swap1\n      swap3\n      mul\n      add\n        /* \"Practical6-Apply-TTT-Token.sol\":6933:6972  gameInformation[gameId]._player1address */\n      add\n      sload\n      sub(shl(0xa0, 0x01), 0x01)\n      and\n        /* \"Practical6-Apply-TTT-Token.sol\":6918:6928  msg.sender */\n      caller\n        /* \"Practical6-Apply-TTT-Token.sol\":6918:6972  msg.sender !=  gameInformation[gameId]._player1address */\n      sub\n        /* \"Practical6-Apply-TTT-Token.sol\":6909:7014  require((msg.sender !=  gameInformation[gameId]._player1address), \"Error: You cannot play with yourself\") */\n      tag_408\n      jumpi\n      mload(0x40)\n      shl(0xe5, 0x461bcd)\n      dup2\n      mstore\n        /* \"#utility.yul\":21234:21236   */\n      0x20\n        /* \"Practical6-Apply-TTT-Token.sol\":6909:7014  require((msg.sender !=  gameInformation[gameId]._player1address), \"Error: You cannot play with yourself\") */\n      0x04\n      dup3\n      add\n        /* \"#utility.yul\":21216:21237   */\n      mstore\n        /* \"#utility.yul\":21273:21275   */\n      0x24\n        /* \"#utility.yul\":21253:21271   */\n      dup1\n      dup3\n      add\n        /* \"#utility.yul\":21246:21276   */\n      mstore\n        /* \"#utility.yul\":21312:21346   */\n      0x4572726f723a20596f752063616e6e6f7420706c6179207769746820796f7572\n        /* \"#utility.yul\":21292:21310   */\n      0x44\n      dup3\n      add\n        /* \"#utility.yul\":21285:21347   */\n      mstore\n      shl(0xe1, 0x39b2b633)\n        /* \"#utility.yul\":21363:21381   */\n      0x64\n      dup3\n      add\n        /* \"#utility.yul\":21356:21390   */\n      mstore\n        /* \"#utility.yul\":21407:21426   */\n      0x84\n      add\n        /* \"Practical6-Apply-TTT-Token.sol\":6909:7014  require((msg.sender !=  gameInformation[gameId]._player1address), \"Error: You cannot play with yourself\") */\n      tag_103\n        /* \"#utility.yul\":21032:21432   */\n      jump\n        /* \"Practical6-Apply-TTT-Token.sol\":6909:7014  require((msg.sender !=  gameInformation[gameId]._player1address), \"Error: You cannot play with yourself\") */\n    tag_408:\n        /* \"Practical6-Apply-TTT-Token.sol\":7075:7085  msg.sender */\n      caller\n        /* \"Practical6-Apply-TTT-Token.sol\":7033:7048  gameInformation */\n      0x07\n        /* \"Practical6-Apply-TTT-Token.sol\":7049:7055  gameId */\n      dup7\n        /* \"Practical6-Apply-TTT-Token.sol\":7033:7056  gameInformation[gameId] */\n      dup2\n      sload\n      dup2\n      lt\n      tag_412\n      jumpi\n      tag_412\n      tag_159\n      jump\t// in\n    tag_412:\n      swap1\n      0x00\n      mstore\n      keccak256(0x00, 0x20)\n      swap1\n      0x0b\n      mul\n      add\n        /* \"Practical6-Apply-TTT-Token.sol\":7033:7072  gameInformation[gameId]._player2address */\n      0x05\n      add\n      0x00\n        /* \"Practical6-Apply-TTT-Token.sol\":7033:7085  gameInformation[gameId]._player2address = msg.sender */\n      0x0100\n      exp\n      dup2\n      sload\n      dup2\n      sub(shl(0xa0, 0x01), 0x01)\n      mul\n      not\n      and\n      swap1\n      dup4\n      sub(shl(0xa0, 0x01), 0x01)\n      and\n      mul\n      or\n      swap1\n      sstore\n      pop\n        /* \"Practical6-Apply-TTT-Token.sol\":7143:7144  2 */\n      0x02\n        /* \"Practical6-Apply-TTT-Token.sol\":7104:7119  gameInformation */\n      0x07\n        /* \"Practical6-Apply-TTT-Token.sol\":7120:7126  gameId */\n      dup7\n        /* \"Practical6-Apply-TTT-Token.sol\":7104:7127  gameInformation[gameId] */\n      dup2\n      sload\n      dup2\n      lt\n      tag_415\n      jumpi\n      tag_415\n      tag_159\n      jump\t// in\n    tag_415:\n      swap1\n      0x00\n      mstore\n      keccak256(0x00, 0x20)\n      swap1\n      0x0b\n      mul\n      add\n        /* \"Practical6-Apply-TTT-Token.sol\":7104:7140  gameInformation[gameId]._playerCount */\n      0x06\n      add\n        /* \"Practical6-Apply-TTT-Token.sol\":7104:7144  gameInformation[gameId]._playerCount = 2 */\n      dup2\n      swap1\n      sstore\n      pop\n        /* \"Practical6-Apply-TTT-Token.sol\":7199:7203  true */\n      0x01\n        /* \"Practical6-Apply-TTT-Token.sol\":7163:7178  gameInformation */\n      0x07\n        /* \"Practical6-Apply-TTT-Token.sol\":7179:7185  gameId */\n      dup7\n        /* \"Practical6-Apply-TTT-Token.sol\":7163:7186  gameInformation[gameId] */\n      dup2\n      sload\n      dup2\n      lt\n      tag_418\n      jumpi\n      tag_418\n      tag_159\n      jump\t// in\n    tag_418:\n      swap1\n      0x00\n      mstore\n      keccak256(0x00, 0x20)\n      swap1\n      0x0b\n      mul\n      add\n        /* \"Practical6-Apply-TTT-Token.sol\":7163:7196  gameInformation[gameId]._activate */\n      0x00\n      add\n      0x00\n        /* \"Practical6-Apply-TTT-Token.sol\":7163:7203  gameInformation[gameId]._activate = true */\n      0x0100\n      exp\n      dup2\n      sload\n      dup2\n      0xff\n      mul\n      not\n      and\n      swap1\n      dup4\n      iszero\n      iszero\n      mul\n      or\n      swap1\n      sstore\n      pop\n        /* \"Practical6-Apply-TTT-Token.sol\":7260:7269  betAmount */\n      dup4\n        /* \"Practical6-Apply-TTT-Token.sol\":7222:7237  gameInformation */\n      0x07\n        /* \"Practical6-Apply-TTT-Token.sol\":7238:7244  gameId */\n      dup7\n        /* \"Practical6-Apply-TTT-Token.sol\":7222:7245  gameInformation[gameId] */\n      dup2\n      sload\n      dup2\n      lt\n      tag_421\n      jumpi\n      tag_421\n      tag_159\n      jump\t// in\n    tag_421:\n      swap1\n      0x00\n      mstore\n      keccak256(0x00, 0x20)\n      swap1\n      0x0b\n      mul\n      add\n        /* \"Practical6-Apply-TTT-Token.sol\":7222:7257  gameInformation[gameId]._player2Bet */\n      0x09\n      add\n        /* \"Practical6-Apply-TTT-Token.sol\":7222:7269  gameInformation[gameId]._player2Bet = betAmount */\n      dup2\n      swap1\n      sstore\n      pop\n        /* \"Practical6-Apply-TTT-Token.sol\":7404:7518  startGame(\"Start game!\", gameInformation[gameId]._player1address, gameInformation[gameId]._player2address, gameId) */\n      0x2f78808c539fd07cb45456a5d5561c76d3d4005246faccb297481e511abc321a\n        /* \"Practical6-Apply-TTT-Token.sol\":7429:7444  gameInformation */\n      0x07\n        /* \"Practical6-Apply-TTT-Token.sol\":7445:7451  gameId */\n      dup7\n        /* \"Practical6-Apply-TTT-Token.sol\":7429:7452  gameInformation[gameId] */\n      dup2\n      sload\n      dup2\n      lt\n      tag_424\n      jumpi\n      tag_424\n      tag_159\n      jump\t// in\n    tag_424:\n      swap1\n      0x00\n      mstore\n      keccak256(0x00, 0x20)\n      swap1\n      0x0b\n      mul\n      add\n        /* \"Practical6-Apply-TTT-Token.sol\":7429:7468  gameInformation[gameId]._player1address */\n      0x04\n      add\n      0x00\n      swap1\n      sload\n      swap1\n      0x0100\n      exp\n      swap1\n      div\n      sub(shl(0xa0, 0x01), 0x01)\n      and\n        /* \"Practical6-Apply-TTT-Token.sol\":7470:7485  gameInformation */\n      0x07\n        /* \"Practical6-Apply-TTT-Token.sol\":7486:7492  gameId */\n      dup8\n        /* \"Practical6-Apply-TTT-Token.sol\":7470:7493  gameInformation[gameId] */\n      dup2\n      sload\n      dup2\n      lt\n      tag_427\n      jumpi\n      tag_427\n      tag_159\n      jump\t// in\n    tag_427:\n      0x00\n      swap2\n      dup3\n      mstore\n      0x20\n      swap2\n      dup3\n      swap1\n      keccak256\n      0x0b\n      swap2\n      dup3\n      mul\n      add\n        /* \"Practical6-Apply-TTT-Token.sol\":7470:7509  gameInformation[gameId]._player2address */\n      0x05\n      add\n      sload\n        /* \"Practical6-Apply-TTT-Token.sol\":7404:7518  startGame(\"Start game!\", gameInformation[gameId]._player1address, gameInformation[gameId]._player2address, gameId) */\n      0x40\n      dup1\n      mload\n        /* \"#utility.yul\":21723:21726   */\n      0x80\n        /* \"#utility.yul\":21705:21727   */\n      dup1\n      dup3\n      mstore\n        /* \"#utility.yul\":21743:21762   */\n      dup2\n      add\n        /* \"#utility.yul\":21736:21767   */\n      swap4\n      swap1\n      swap4\n      mstore\n      shl(0xa8, 0x53746172742067616d6521)\n        /* \"#utility.yul\":21798:21801   */\n      0xa0\n        /* \"#utility.yul\":21783:21802   */\n      dup5\n      add\n        /* \"#utility.yul\":21776:21818   */\n      mstore\n      sub(shl(0xa0, 0x01), 0x01)\n        /* \"#utility.yul\":21930:21945   */\n      swap5\n      dup6\n      and\n        /* \"#utility.yul\":21908:21928   */\n      swap4\n      dup4\n      add\n        /* \"#utility.yul\":21901:21946   */\n      swap4\n      swap1\n      swap4\n      mstore\n        /* \"Practical6-Apply-TTT-Token.sol\":7470:7509  gameInformation[gameId]._player2address */\n      swap3\n      swap1\n      swap3\n      and\n        /* \"#utility.yul\":21962:21980   */\n      swap1\n      dup3\n      add\n        /* \"#utility.yul\":21955:21998   */\n      mstore\n      0x60\n        /* \"#utility.yul\":22014:22032   */\n      dup2\n      add\n        /* \"#utility.yul\":22007:22041   */\n      dup8\n      swap1\n      mstore\n        /* \"#utility.yul\":21850:21853   */\n      0xc0\n        /* \"#utility.yul\":21835:21854   */\n      add\n        /* \"Practical6-Apply-TTT-Token.sol\":7404:7518  startGame(\"Start game!\", gameInformation[gameId]._player1address, gameInformation[gameId]._player2address, gameId) */\n      mload(0x40)\n      dup1\n      swap2\n      sub\n      swap1\n      log1\n        /* \"Practical6-Apply-TTT-Token.sol\":6088:7536  {... */\n      pop\n      pop\n      pop\n        /* \"Practical6-Apply-TTT-Token.sol\":6043:7757  if(gameInformation[gameId]._playerCount == 1){... */\n      jump(tag_435)\n    tag_367:\n        /* \"Practical6-Apply-TTT-Token.sol\":7634:7649  gameInformation */\n      0x07\n        /* \"Practical6-Apply-TTT-Token.sol\":7650:7656  gameId */\n      dup3\n        /* \"Practical6-Apply-TTT-Token.sol\":7634:7657  gameInformation[gameId] */\n      dup2\n      sload\n      dup2\n      lt\n      tag_433\n      jumpi\n      tag_433\n      tag_159\n      jump\t// in\n    tag_433:\n      swap1\n      0x00\n      mstore\n      keccak256(0x00, 0x20)\n      swap1\n      0x0b\n      mul\n      add\n        /* \"Practical6-Apply-TTT-Token.sol\":7634:7670  gameInformation[gameId]._playerCount */\n      0x06\n      add\n      sload\n        /* \"Practical6-Apply-TTT-Token.sol\":7674:7675  2 */\n      0x02\n        /* \"Practical6-Apply-TTT-Token.sol\":7634:7675  gameInformation[gameId]._playerCount == 2 */\n      eq\n        /* \"Practical6-Apply-TTT-Token.sol\":7626:7741  require(gameInformation[gameId]._playerCount == 2,\"Now queue is full, try later. Game already full pls join other\") */\n      tag_435\n      jumpi\n      mload(0x40)\n      shl(0xe5, 0x461bcd)\n      dup2\n      mstore\n        /* \"#utility.yul\":22254:22256   */\n      0x20\n        /* \"Practical6-Apply-TTT-Token.sol\":7626:7741  require(gameInformation[gameId]._playerCount == 2,\"Now queue is full, try later. Game already full pls join other\") */\n      0x04\n      dup3\n      add\n        /* \"#utility.yul\":22236:22257   */\n      mstore\n        /* \"#utility.yul\":22293:22295   */\n      0x3e\n        /* \"#utility.yul\":22273:22291   */\n      0x24\n      dup3\n      add\n        /* \"#utility.yul\":22266:22296   */\n      mstore\n        /* \"#utility.yul\":22332:22366   */\n      0x4e6f772071756575652069732066756c6c2c20747279206c617465722e204761\n        /* \"#utility.yul\":22312:22330   */\n      0x44\n      dup3\n      add\n        /* \"#utility.yul\":22305:22367   */\n      mstore\n        /* \"#utility.yul\":22403:22435   */\n      0x6d6520616c72656164792066756c6c20706c73206a6f696e206f746865720000\n        /* \"#utility.yul\":22383:22401   */\n      0x64\n      dup3\n      add\n        /* \"#utility.yul\":22376:22436   */\n      mstore\n        /* \"#utility.yul\":22453:22472   */\n      0x84\n      add\n        /* \"Practical6-Apply-TTT-Token.sol\":7626:7741  require(gameInformation[gameId]._playerCount == 2,\"Now queue is full, try later. Game already full pls join other\") */\n      tag_103\n        /* \"#utility.yul\":22052:22478   */\n      jump\n        /* \"Practical6-Apply-TTT-Token.sol\":7626:7741  require(gameInformation[gameId]._playerCount == 2,\"Now queue is full, try later. Game already full pls join other\") */\n    tag_435:\n        /* \"Practical6-Apply-TTT-Token.sol\":7821:7862  joinRoom(gameInformation[gameId], gameId) */\n      0x50370b40bd566613cb1b12508c3114409e62c5c8de11be443cafc84462cf5699\n        /* \"Practical6-Apply-TTT-Token.sol\":7830:7845  gameInformation */\n      0x07\n        /* \"Practical6-Apply-TTT-Token.sol\":7846:7852  gameId */\n      dup4\n        /* \"Practical6-Apply-TTT-Token.sol\":7830:7853  gameInformation[gameId] */\n      dup2\n      sload\n      dup2\n      lt\n      tag_439\n      jumpi\n      tag_439\n      tag_159\n      jump\t// in\n    tag_439:\n      swap1\n      0x00\n      mstore\n      keccak256(0x00, 0x20)\n      swap1\n      0x0b\n      mul\n      add\n        /* \"Practical6-Apply-TTT-Token.sol\":7855:7861  gameId */\n      dup4\n        /* \"Practical6-Apply-TTT-Token.sol\":7821:7862  joinRoom(gameInformation[gameId], gameId) */\n      mload(0x40)\n      tag_441\n      swap3\n      swap2\n      swap1\n      tag_442\n      jump\t// in\n    tag_441:\n      mload(0x40)\n      dup1\n      swap2\n      sub\n      swap1\n      log1\n      pop\n      pop\n        /* \"Practical6-Apply-TTT-Token.sol\":3569:3575  locked */\n      0x06\n        /* \"Practical6-Apply-TTT-Token.sol\":3569:3583  locked = false */\n      dup1\n      sload\n      not(shl(0xa0, 0xff))\n      and\n      swap1\n      sstore\n        /* \"Practical6-Apply-TTT-Token.sol\":5880:7874  function joinGame (uint gameId, uint256 betAmount) external noReentrancy {... */\n      jump\t// out\n        /* \"Practical6-Apply-TTT-Token.sol\":13400:13659  function compareStrings(string memory a, string memory b) public pure returns (bool) {... */\n    tag_82:\n        /* \"Practical6-Apply-TTT-Token.sol\":13479:13483  bool */\n      0x00\n        /* \"Practical6-Apply-TTT-Token.sol\":13644:13645  b */\n      dup2\n        /* \"Practical6-Apply-TTT-Token.sol\":13627:13646  abi.encodePacked(b) */\n      add(0x20, mload(0x40))\n      tag_444\n      swap2\n      swap1\n      tag_445\n      jump\t// in\n    tag_444:\n      mload(0x40)\n      0x20\n      dup2\n      dup4\n      sub\n      sub\n      dup2\n      mstore\n      swap1\n      0x40\n      mstore\n        /* \"Practical6-Apply-TTT-Token.sol\":13617:13647  keccak256(abi.encodePacked(b)) */\n      dup1\n      mload\n      swap1\n      0x20\n      add\n      keccak256\n        /* \"Practical6-Apply-TTT-Token.sol\":13610:13611  a */\n      dup4\n        /* \"Practical6-Apply-TTT-Token.sol\":13593:13612  abi.encodePacked(a) */\n      add(0x20, mload(0x40))\n      tag_446\n      swap2\n      swap1\n      tag_445\n      jump\t// in\n    tag_446:\n      mload(0x40)\n      0x20\n      dup2\n      dup4\n      sub\n      sub\n      dup2\n      mstore\n      swap1\n      0x40\n      mstore\n        /* \"Practical6-Apply-TTT-Token.sol\":13583:13613  keccak256(abi.encodePacked(a)) */\n      dup1\n      mload\n      swap1\n      0x20\n      add\n      keccak256\n        /* \"Practical6-Apply-TTT-Token.sol\":13583:13647  keccak256(abi.encodePacked(a)) == keccak256(abi.encodePacked(b)) */\n      eq\n        /* \"Practical6-Apply-TTT-Token.sol\":13576:13647  return keccak256(abi.encodePacked(a)) == keccak256(abi.encodePacked(b)) */\n      swap1\n      pop\n        /* \"Practical6-Apply-TTT-Token.sol\":13400:13659  function compareStrings(string memory a, string memory b) public pure returns (bool) {... */\n    tag_443:\n      swap3\n      swap2\n      pop\n      pop\n      jump\t// out\n        /* \"Practical6-Apply-TTT-Token.sol\":3645:3783  function getoption (uint gameId) external view returns (string[] memory){... */\n    tag_90:\n        /* \"Practical6-Apply-TTT-Token.sol\":3701:3716  string[] memory */\n      0x60\n        /* \"Practical6-Apply-TTT-Token.sol\":3739:3754  gameInformation */\n      0x07\n        /* \"Practical6-Apply-TTT-Token.sol\":3755:3761  gameId */\n      dup3\n        /* \"Practical6-Apply-TTT-Token.sol\":3739:3762  gameInformation[gameId] */\n      dup2\n      sload\n      dup2\n      lt\n      tag_449\n      jumpi\n      tag_449\n      tag_159\n      jump\t// in\n    tag_449:\n      swap1\n      0x00\n      mstore\n      keccak256(0x00, 0x20)\n      swap1\n      0x0b\n      mul\n      add\n        /* \"Practical6-Apply-TTT-Token.sol\":3739:3771  gameInformation[gameId]._options */\n      0x02\n      add\n        /* \"Practical6-Apply-TTT-Token.sol\":3732:3771  return gameInformation[gameId]._options */\n      dup1\n      sload\n      dup1\n      0x20\n      mul\n      0x20\n      add\n      mload(0x40)\n      swap1\n      dup2\n      add\n      0x40\n      mstore\n      dup1\n      swap3\n      swap2\n      swap1\n      dup2\n      dup2\n      mstore\n      0x20\n      add\n      0x00\n      swap1\n    tag_451:\n      dup3\n      dup3\n      lt\n      iszero\n      tag_452\n      jumpi\n      dup4\n      dup3\n      swap1\n      0x00\n      mstore\n      keccak256(0x00, 0x20)\n      add\n      dup1\n      sload\n      tag_454\n      swap1\n      tag_219\n      jump\t// in\n    tag_454:\n      dup1\n      0x1f\n      add\n      0x20\n      dup1\n      swap2\n      div\n      mul\n      0x20\n      add\n      mload(0x40)\n      swap1\n      dup2\n      add\n      0x40\n      mstore\n      dup1\n      swap3\n      swap2\n      swap1\n      dup2\n      dup2\n      mstore\n      0x20\n      add\n      dup3\n      dup1\n      sload\n      tag_455\n      swap1\n      tag_219\n      jump\t// in\n    tag_455:\n      dup1\n      iszero\n      tag_456\n      jumpi\n      dup1\n      0x1f\n      lt\n      tag_457\n      jumpi\n      0x0100\n      dup1\n      dup4\n      sload\n      div\n      mul\n      dup4\n      mstore\n      swap2\n      0x20\n      add\n      swap2\n      jump(tag_456)\n    tag_457:\n      dup3\n      add\n      swap2\n      swap1\n      0x00\n      mstore\n      keccak256(0x00, 0x20)\n      swap1\n    tag_458:\n      dup2\n      sload\n      dup2\n      mstore\n      swap1\n      0x01\n      add\n      swap1\n      0x20\n      add\n      dup1\n      dup4\n      gt\n      tag_458\n      jumpi\n      dup3\n      swap1\n      sub\n      0x1f\n      and\n      dup3\n      add\n      swap2\n    tag_456:\n      pop\n      pop\n      pop\n      pop\n      pop\n      dup2\n      mstore\n      0x20\n      add\n      swap1\n      0x01\n      add\n      swap1\n      jump(tag_451)\n    tag_452:\n      pop\n      pop\n      pop\n      pop\n      swap1\n      pop\n        /* \"Practical6-Apply-TTT-Token.sol\":3645:3783  function getoption (uint gameId) external view returns (string[] memory){... */\n      swap2\n      swap1\n      pop\n      jump\t// out\n        /* \"Practical6-Apply-TTT-Token.sol\":2834:2961  function getAllMoney() external onlyOwner{... */\n    tag_94:\n        /* \"Practical6-Apply-TTT-Token.sol\":3342:3347  owner */\n      and(sub(shl(0xa0, 0x01), 0x01), sload(0x06))\n        /* \"Practical6-Apply-TTT-Token.sol\":3328:3338  msg.sender */\n      caller\n        /* \"Practical6-Apply-TTT-Token.sol\":3328:3347  msg.sender == owner */\n      eq\n        /* \"Practical6-Apply-TTT-Token.sol\":3320:3365  require(msg.sender == owner, \"Not the owner\") */\n      tag_460\n      jumpi\n      mload(0x40)\n      shl(0xe5, 0x461bcd)\n      dup2\n      mstore\n        /* \"#utility.yul\":20541:20543   */\n      0x20\n        /* \"Practical6-Apply-TTT-Token.sol\":3320:3365  require(msg.sender == owner, \"Not the owner\") */\n      0x04\n      dup3\n      add\n        /* \"#utility.yul\":20523:20544   */\n      mstore\n        /* \"#utility.yul\":20580:20582   */\n      0x0d\n        /* \"#utility.yul\":20560:20578   */\n      0x24\n      dup3\n      add\n        /* \"#utility.yul\":20553:20583   */\n      mstore\n      shl(0x99, 0x2737ba103a34329037bbb732b9)\n        /* \"#utility.yul\":20599:20617   */\n      0x44\n      dup3\n      add\n        /* \"#utility.yul\":20592:20635   */\n      mstore\n        /* \"#utility.yul\":20652:20670   */\n      0x64\n      add\n        /* \"Practical6-Apply-TTT-Token.sol\":3320:3365  require(msg.sender == owner, \"Not the owner\") */\n      tag_103\n        /* \"#utility.yul\":20339:20676   */\n      jump\n        /* \"Practical6-Apply-TTT-Token.sol\":3320:3365  require(msg.sender == owner, \"Not the owner\") */\n    tag_460:\n        /* \"Practical6-Apply-TTT-Token.sol\":2890:2898  TTTToken */\n      sload(0x00)\n        /* \"Practical6-Apply-TTT-Token.sol\":2908:2913  owner */\n      sload(0x06)\n        /* \"Practical6-Apply-TTT-Token.sol\":2915:2948  TTTToken.balanceOf(address(this)) */\n      mload(0x40)\n      shl(0xe0, 0x70a08231)\n      dup2\n      mstore\n        /* \"Practical6-Apply-TTT-Token.sol\":2942:2946  this */\n      address\n        /* \"Practical6-Apply-TTT-Token.sol\":2915:2948  TTTToken.balanceOf(address(this)) */\n      0x04\n      dup3\n      add\n        /* \"#utility.yul\":5328:5379   */\n      mstore\n      sub(shl(0xa0, 0x01), 0x01)\n        /* \"Practical6-Apply-TTT-Token.sol\":2890:2898  TTTToken */\n      swap3\n      dup4\n      and\n      swap3\n        /* \"Practical6-Apply-TTT-Token.sol\":2890:2907  TTTToken.transfer */\n      0xa9059cbb\n      swap3\n        /* \"Practical6-Apply-TTT-Token.sol\":2908:2913  owner */\n      and\n      swap1\n        /* \"Practical6-Apply-TTT-Token.sol\":2890:2898  TTTToken */\n      dup4\n      swap1\n        /* \"Practical6-Apply-TTT-Token.sol\":2915:2933  TTTToken.balanceOf */\n      0x70a08231\n      swap1\n        /* \"#utility.yul\":5301:5319   */\n      0x24\n      add\n        /* \"Practical6-Apply-TTT-Token.sol\":2915:2948  TTTToken.balanceOf(address(this)) */\n      0x20\n      mload(0x40)\n      dup1\n      dup4\n      sub\n      dup2\n      dup7\n      gas\n      staticcall\n      iszero\n      dup1\n      iszero\n      tag_465\n      jumpi\n      returndatasize\n      0x00\n      dup1\n      returndatacopy\n      revert(0x00, returndatasize)\n    tag_465:\n      pop\n      pop\n      pop\n      pop\n      mload(0x40)\n      returndatasize\n      not(0x1f)\n      0x1f\n      dup3\n      add\n      and\n      dup3\n      add\n      dup1\n      0x40\n      mstore\n      pop\n      dup2\n      add\n      swap1\n      tag_335\n      swap2\n      swap1\n      tag_110\n      jump\t// in\n        /* \"Practical6-Apply-TTT-Token.sol\":14095:14319  function checkAddress (uint gameId) private view returns (bool) {... */\n    tag_203:\n        /* \"Practical6-Apply-TTT-Token.sol\":14153:14157  bool */\n      0x00\n        /* \"Practical6-Apply-TTT-Token.sol\":14195:14210  gameInformation */\n      0x07\n        /* \"Practical6-Apply-TTT-Token.sol\":14211:14217  gameId */\n      dup3\n        /* \"Practical6-Apply-TTT-Token.sol\":14195:14218  gameInformation[gameId] */\n      dup2\n      sload\n      dup2\n      lt\n      tag_473\n      jumpi\n      tag_473\n      tag_159\n      jump\t// in\n    tag_473:\n      0x00\n      swap2\n      dup3\n      mstore\n      0x20\n      swap1\n      swap2\n      keccak256\n      0x0b\n      swap1\n      swap2\n      mul\n      add\n        /* \"Practical6-Apply-TTT-Token.sol\":14195:14234  gameInformation[gameId]._player1address */\n      0x04\n      add\n      sload\n      sub(shl(0xa0, 0x01), 0x01)\n      and\n        /* \"Practical6-Apply-TTT-Token.sol\":14181:14191  msg.sender */\n      caller\n        /* \"Practical6-Apply-TTT-Token.sol\":14181:14234  msg.sender == gameInformation[gameId]._player1address */\n      eq\n      dup1\n        /* \"Practical6-Apply-TTT-Token.sol\":14181:14291  msg.sender == gameInformation[gameId]._player1address || msg.sender == gameInformation[gameId]._player2address */\n      tag_475\n      jumpi\n      pop\n        /* \"Practical6-Apply-TTT-Token.sol\":14252:14267  gameInformation */\n      0x07\n        /* \"Practical6-Apply-TTT-Token.sol\":14268:14274  gameId */\n      dup3\n        /* \"Practical6-Apply-TTT-Token.sol\":14252:14275  gameInformation[gameId] */\n      dup2\n      sload\n      dup2\n      lt\n      tag_477\n      jumpi\n      tag_477\n      tag_159\n      jump\t// in\n    tag_477:\n      0x00\n      swap2\n      dup3\n      mstore\n      0x20\n      swap1\n      swap2\n      keccak256\n      0x0b\n      swap1\n      swap2\n      mul\n      add\n        /* \"Practical6-Apply-TTT-Token.sol\":14252:14291  gameInformation[gameId]._player2address */\n      0x05\n      add\n      sload\n      sub(shl(0xa0, 0x01), 0x01)\n      and\n        /* \"Practical6-Apply-TTT-Token.sol\":14238:14248  msg.sender */\n      caller\n        /* \"Practical6-Apply-TTT-Token.sol\":14238:14291  msg.sender == gameInformation[gameId]._player2address */\n      eq\n        /* \"Practical6-Apply-TTT-Token.sol\":14181:14291  msg.sender == gameInformation[gameId]._player1address || msg.sender == gameInformation[gameId]._player2address */\n    tag_475:\n        /* \"Practical6-Apply-TTT-Token.sol\":14181:14306  msg.sender == gameInformation[gameId]._player1address || msg.sender == gameInformation[gameId]._player2address ? true : false */\n      tag_479\n      jumpi\n        /* \"Practical6-Apply-TTT-Token.sol\":14301:14306  false */\n      0x00\n        /* \"Practical6-Apply-TTT-Token.sol\":14181:14306  msg.sender == gameInformation[gameId]._player1address || msg.sender == gameInformation[gameId]._player2address ? true : false */\n      jump(tag_443)\n    tag_479:\n        /* \"Practical6-Apply-TTT-Token.sol\":14294:14298  true */\n      0x01\n        /* \"Practical6-Apply-TTT-Token.sol\":14174:14306  return msg.sender == gameInformation[gameId]._player1address || msg.sender == gameInformation[gameId]._player2address ? true : false */\n      swap3\n        /* \"Practical6-Apply-TTT-Token.sol\":14095:14319  function checkAddress (uint gameId) private view returns (bool) {... */\n      swap2\n      pop\n      pop\n      jump\t// out\n        /* \"Practical6-Apply-TTT-Token.sol\":9089:12066  function checkWinner (uint gameId) private {... */\n    tag_310:\n        /* \"Practical6-Apply-TTT-Token.sol\":9147:9159  bool userWon */\n      0x00\n        /* \"Practical6-Apply-TTT-Token.sol\":9293:9299  uint i */\n      dup1\n        /* \"Practical6-Apply-TTT-Token.sol\":9289:10772  for(uint i = 0 ; i < winConditionSet.length; i++){... */\n    tag_482:\n        /* \"Practical6-Apply-TTT-Token.sol\":9310:9325  winConditionSet */\n      0x08\n        /* \"Practical6-Apply-TTT-Token.sol\":9310:9332  winConditionSet.length */\n      sload\n        /* \"Practical6-Apply-TTT-Token.sol\":9306:9332  i < winConditionSet.length */\n      dup2\n      lt\n        /* \"Practical6-Apply-TTT-Token.sol\":9289:10772  for(uint i = 0 ; i < winConditionSet.length; i++){... */\n      iszero\n      tag_483\n      jumpi\n        /* \"Practical6-Apply-TTT-Token.sol\":9357:9383  uint[] memory winCondition */\n      0x00\n        /* \"Practical6-Apply-TTT-Token.sol\":9386:9401  winConditionSet */\n      0x08\n        /* \"Practical6-Apply-TTT-Token.sol\":9402:9403  i */\n      dup3\n        /* \"Practical6-Apply-TTT-Token.sol\":9386:9404  winConditionSet[i] */\n      dup2\n      sload\n      dup2\n      lt\n      tag_486\n      jumpi\n      tag_486\n      tag_159\n      jump\t// in\n    tag_486:\n      swap1\n      0x00\n      mstore\n      keccak256(0x00, 0x20)\n      add\n        /* \"Practical6-Apply-TTT-Token.sol\":9357:9404  uint[] memory winCondition = winConditionSet[i] */\n      dup1\n      sload\n      dup1\n      0x20\n      mul\n      0x20\n      add\n      mload(0x40)\n      swap1\n      dup2\n      add\n      0x40\n      mstore\n      dup1\n      swap3\n      swap2\n      swap1\n      dup2\n      dup2\n      mstore\n      0x20\n      add\n      dup3\n      dup1\n      sload\n      dup1\n      iszero\n      tag_488\n      jumpi\n      0x20\n      mul\n      dup3\n      add\n      swap2\n      swap1\n      0x00\n      mstore\n      keccak256(0x00, 0x20)\n      swap1\n    tag_489:\n      dup2\n      sload\n      dup2\n      mstore\n      0x20\n      add\n      swap1\n      0x01\n      add\n      swap1\n      dup1\n      dup4\n      gt\n      tag_489\n      jumpi\n    tag_488:\n      pop\n      pop\n      pop\n      pop\n      pop\n      swap1\n      pop\n        /* \"Practical6-Apply-TTT-Token.sol\":9486:9507  string memory resultA */\n      0x00\n        /* \"Practical6-Apply-TTT-Token.sol\":9509:9524  gameInformation */\n      0x07\n        /* \"Practical6-Apply-TTT-Token.sol\":9525:9531  gameId */\n      dup6\n        /* \"Practical6-Apply-TTT-Token.sol\":9509:9532  gameInformation[gameId] */\n      dup2\n      sload\n      dup2\n      lt\n      tag_491\n      jumpi\n      tag_491\n      tag_159\n      jump\t// in\n    tag_491:\n      swap1\n      0x00\n      mstore\n      keccak256(0x00, 0x20)\n      swap1\n      0x0b\n      mul\n      add\n        /* \"Practical6-Apply-TTT-Token.sol\":9509:9541  gameInformation[gameId]._options */\n      0x02\n      add\n        /* \"Practical6-Apply-TTT-Token.sol\":9542:9554  winCondition */\n      dup3\n        /* \"Practical6-Apply-TTT-Token.sol\":9555:9556  0 */\n      0x00\n        /* \"Practical6-Apply-TTT-Token.sol\":9542:9557  winCondition[0] */\n      dup2\n      mload\n      dup2\n      lt\n      tag_494\n      jumpi\n      tag_494\n      tag_159\n      jump\t// in\n    tag_494:\n      0x20\n      mul\n      0x20\n      add\n      add\n      mload\n        /* \"Practical6-Apply-TTT-Token.sol\":9509:9558  gameInformation[gameId]._options[winCondition[0]] */\n      dup2\n      sload\n      dup2\n      lt\n      tag_496\n      jumpi\n      tag_496\n      tag_159\n      jump\t// in\n    tag_496:\n      swap1\n      0x00\n      mstore\n      keccak256(0x00, 0x20)\n      add\n        /* \"Practical6-Apply-TTT-Token.sol\":9486:9558  string memory resultA= gameInformation[gameId]._options[winCondition[0]] */\n      dup1\n      sload\n      tag_498\n      swap1\n      tag_219\n      jump\t// in\n    tag_498:\n      dup1\n      0x1f\n      add\n      0x20\n      dup1\n      swap2\n      div\n      mul\n      0x20\n      add\n      mload(0x40)\n      swap1\n      dup2\n      add\n      0x40\n      mstore\n      dup1\n      swap3\n      swap2\n      swap1\n      dup2\n      dup2\n      mstore\n      0x20\n      add\n      dup3\n      dup1\n      sload\n      tag_499\n      swap1\n      tag_219\n      jump\t// in\n    tag_499:\n      dup1\n      iszero\n      tag_500\n      jumpi\n      dup1\n      0x1f\n      lt\n      tag_501\n      jumpi\n      0x0100\n      dup1\n      dup4\n      sload\n      div\n      mul\n      dup4\n      mstore\n      swap2\n      0x20\n      add\n      swap2\n      jump(tag_500)\n    tag_501:\n      dup3\n      add\n      swap2\n      swap1\n      0x00\n      mstore\n      keccak256(0x00, 0x20)\n      swap1\n    tag_502:\n      dup2\n      sload\n      dup2\n      mstore\n      swap1\n      0x01\n      add\n      swap1\n      0x20\n      add\n      dup1\n      dup4\n      gt\n      tag_502\n      jumpi\n      dup3\n      swap1\n      sub\n      0x1f\n      and\n      dup3\n      add\n      swap2\n    tag_500:\n      pop\n      pop\n      pop\n      pop\n      pop\n      swap1\n      pop\n        /* \"Practical6-Apply-TTT-Token.sol\":9577:9598  string memory resultB */\n      0x00\n        /* \"Practical6-Apply-TTT-Token.sol\":9600:9615  gameInformation */\n      0x07\n        /* \"Practical6-Apply-TTT-Token.sol\":9616:9622  gameId */\n      dup7\n        /* \"Practical6-Apply-TTT-Token.sol\":9600:9623  gameInformation[gameId] */\n      dup2\n      sload\n      dup2\n      lt\n      tag_504\n      jumpi\n      tag_504\n      tag_159\n      jump\t// in\n    tag_504:\n      swap1\n      0x00\n      mstore\n      keccak256(0x00, 0x20)\n      swap1\n      0x0b\n      mul\n      add\n        /* \"Practical6-Apply-TTT-Token.sol\":9600:9632  gameInformation[gameId]._options */\n      0x02\n      add\n        /* \"Practical6-Apply-TTT-Token.sol\":9633:9645  winCondition */\n      dup4\n        /* \"Practical6-Apply-TTT-Token.sol\":9646:9647  1 */\n      0x01\n        /* \"Practical6-Apply-TTT-Token.sol\":9633:9648  winCondition[1] */\n      dup2\n      mload\n      dup2\n      lt\n      tag_507\n      jumpi\n      tag_507\n      tag_159\n      jump\t// in\n    tag_507:\n      0x20\n      mul\n      0x20\n      add\n      add\n      mload\n        /* \"Practical6-Apply-TTT-Token.sol\":9600:9649  gameInformation[gameId]._options[winCondition[1]] */\n      dup2\n      sload\n      dup2\n      lt\n      tag_509\n      jumpi\n      tag_509\n      tag_159\n      jump\t// in\n    tag_509:\n      swap1\n      0x00\n      mstore\n      keccak256(0x00, 0x20)\n      add\n        /* \"Practical6-Apply-TTT-Token.sol\":9577:9649  string memory resultB= gameInformation[gameId]._options[winCondition[1]] */\n      dup1\n      sload\n      tag_511\n      swap1\n      tag_219\n      jump\t// in\n    tag_511:\n      dup1\n      0x1f\n      add\n      0x20\n      dup1\n      swap2\n      div\n      mul\n      0x20\n      add\n      mload(0x40)\n      swap1\n      dup2\n      add\n      0x40\n      mstore\n      dup1\n      swap3\n      swap2\n      swap1\n      dup2\n      dup2\n      mstore\n      0x20\n      add\n      dup3\n      dup1\n      sload\n      tag_512\n      swap1\n      tag_219\n      jump\t// in\n    tag_512:\n      dup1\n      iszero\n      tag_513\n      jumpi\n      dup1\n      0x1f\n      lt\n      tag_514\n      jumpi\n      0x0100\n      dup1\n      dup4\n      sload\n      div\n      mul\n      dup4\n      mstore\n      swap2\n      0x20\n      add\n      swap2\n      jump(tag_513)\n    tag_514:\n      dup3\n      add\n      swap2\n      swap1\n      0x00\n      mstore\n      keccak256(0x00, 0x20)\n      swap1\n    tag_515:\n      dup2\n      sload\n      dup2\n      mstore\n      swap1\n      0x01\n      add\n      swap1\n      0x20\n      add\n      dup1\n      dup4\n      gt\n      tag_515\n      jumpi\n      dup3\n      swap1\n      sub\n      0x1f\n      and\n      dup3\n      add\n      swap2\n    tag_513:\n      pop\n      pop\n      pop\n      pop\n      pop\n      swap1\n      pop\n        /* \"Practical6-Apply-TTT-Token.sol\":9668:9689  string memory resultC */\n      0x00\n        /* \"Practical6-Apply-TTT-Token.sol\":9691:9706  gameInformation */\n      0x07\n        /* \"Practical6-Apply-TTT-Token.sol\":9707:9713  gameId */\n      dup8\n        /* \"Practical6-Apply-TTT-Token.sol\":9691:9714  gameInformation[gameId] */\n      dup2\n      sload\n      dup2\n      lt\n      tag_517\n      jumpi\n      tag_517\n      tag_159\n      jump\t// in\n    tag_517:\n      swap1\n      0x00\n      mstore\n      keccak256(0x00, 0x20)\n      swap1\n      0x0b\n      mul\n      add\n        /* \"Practical6-Apply-TTT-Token.sol\":9691:9723  gameInformation[gameId]._options */\n      0x02\n      add\n        /* \"Practical6-Apply-TTT-Token.sol\":9724:9736  winCondition */\n      dup5\n        /* \"Practical6-Apply-TTT-Token.sol\":9737:9738  2 */\n      0x02\n        /* \"Practical6-Apply-TTT-Token.sol\":9724:9739  winCondition[2] */\n      dup2\n      mload\n      dup2\n      lt\n      tag_520\n      jumpi\n      tag_520\n      tag_159\n      jump\t// in\n    tag_520:\n      0x20\n      mul\n      0x20\n      add\n      add\n      mload\n        /* \"Practical6-Apply-TTT-Token.sol\":9691:9740  gameInformation[gameId]._options[winCondition[2]] */\n      dup2\n      sload\n      dup2\n      lt\n      tag_522\n      jumpi\n      tag_522\n      tag_159\n      jump\t// in\n    tag_522:\n      swap1\n      0x00\n      mstore\n      keccak256(0x00, 0x20)\n      add\n        /* \"Practical6-Apply-TTT-Token.sol\":9668:9740  string memory resultC= gameInformation[gameId]._options[winCondition[2]] */\n      dup1\n      sload\n      tag_524\n      swap1\n      tag_219\n      jump\t// in\n    tag_524:\n      dup1\n      0x1f\n      add\n      0x20\n      dup1\n      swap2\n      div\n      mul\n      0x20\n      add\n      mload(0x40)\n      swap1\n      dup2\n      add\n      0x40\n      mstore\n      dup1\n      swap3\n      swap2\n      swap1\n      dup2\n      dup2\n      mstore\n      0x20\n      add\n      dup3\n      dup1\n      sload\n      tag_525\n      swap1\n      tag_219\n      jump\t// in\n    tag_525:\n      dup1\n      iszero\n      tag_526\n      jumpi\n      dup1\n      0x1f\n      lt\n      tag_527\n      jumpi\n      0x0100\n      dup1\n      dup4\n      sload\n      div\n      mul\n      dup4\n      mstore\n      swap2\n      0x20\n      add\n      swap2\n      jump(tag_526)\n    tag_527:\n      dup3\n      add\n      swap2\n      swap1\n      0x00\n      mstore\n      keccak256(0x00, 0x20)\n      swap1\n    tag_528:\n      dup2\n      sload\n      dup2\n      mstore\n      swap1\n      0x01\n      add\n      swap1\n      0x20\n      add\n      dup1\n      dup4\n      gt\n      tag_528\n      jumpi\n      dup3\n      swap1\n      sub\n      0x1f\n      and\n      dup3\n      add\n      swap2\n    tag_526:\n      pop\n      pop\n      pop\n      pop\n      pop\n      swap1\n      pop\n        /* \"Practical6-Apply-TTT-Token.sol\":9987:10014  compareStrings(resultA, \"\") */\n      tag_529\n        /* \"Practical6-Apply-TTT-Token.sol\":10002:10009  resultA */\n      dup4\n        /* \"Practical6-Apply-TTT-Token.sol\":9987:10014  compareStrings(resultA, \"\") */\n      mload(0x40)\n      dup1\n      0x20\n      add\n      0x40\n      mstore\n      dup1\n      0x00\n      dup2\n      mstore\n      pop\n        /* \"Practical6-Apply-TTT-Token.sol\":9987:10001  compareStrings */\n      tag_82\n        /* \"Practical6-Apply-TTT-Token.sol\":9987:10014  compareStrings(resultA, \"\") */\n      jump\t// in\n    tag_529:\n        /* \"Practical6-Apply-TTT-Token.sol\":9987:10043  compareStrings(resultA, \"\")||compareStrings(resultB, \"\") */\n      dup1\n      tag_531\n      jumpi\n      pop\n        /* \"Practical6-Apply-TTT-Token.sol\":10016:10043  compareStrings(resultB, \"\") */\n      tag_531\n        /* \"Practical6-Apply-TTT-Token.sol\":10031:10038  resultB */\n      dup3\n        /* \"Practical6-Apply-TTT-Token.sol\":10016:10043  compareStrings(resultB, \"\") */\n      mload(0x40)\n      dup1\n      0x20\n      add\n      0x40\n      mstore\n      dup1\n      0x00\n      dup2\n      mstore\n      pop\n        /* \"Practical6-Apply-TTT-Token.sol\":10016:10030  compareStrings */\n      tag_82\n        /* \"Practical6-Apply-TTT-Token.sol\":10016:10043  compareStrings(resultB, \"\") */\n      jump\t// in\n    tag_531:\n        /* \"Practical6-Apply-TTT-Token.sol\":9987:10072  compareStrings(resultA, \"\")||compareStrings(resultB, \"\")||compareStrings(resultC, \"\") */\n      dup1\n      tag_533\n      jumpi\n      pop\n        /* \"Practical6-Apply-TTT-Token.sol\":10045:10072  compareStrings(resultC, \"\") */\n      tag_533\n        /* \"Practical6-Apply-TTT-Token.sol\":10060:10067  resultC */\n      dup2\n        /* \"Practical6-Apply-TTT-Token.sol\":10045:10072  compareStrings(resultC, \"\") */\n      mload(0x40)\n      dup1\n      0x20\n      add\n      0x40\n      mstore\n      dup1\n      0x00\n      dup2\n      mstore\n      pop\n        /* \"Practical6-Apply-TTT-Token.sol\":10045:10059  compareStrings */\n      tag_82\n        /* \"Practical6-Apply-TTT-Token.sol\":10045:10072  compareStrings(resultC, \"\") */\n      jump\t// in\n    tag_533:\n        /* \"Practical6-Apply-TTT-Token.sol\":9984:10124  if(compareStrings(resultA, \"\")||compareStrings(resultB, \"\")||compareStrings(resultC, \"\")){... */\n      iszero\n      tag_534\n      jumpi\n        /* \"Practical6-Apply-TTT-Token.sol\":10096:10104  continue */\n      pop\n      pop\n      pop\n      pop\n      jump(tag_484)\n        /* \"Practical6-Apply-TTT-Token.sol\":9984:10124  if(compareStrings(resultA, \"\")||compareStrings(resultB, \"\")||compareStrings(resultC, \"\")){... */\n    tag_534:\n        /* \"Practical6-Apply-TTT-Token.sol\":10145:10177  compareStrings(resultA, resultB) */\n      tag_535\n        /* \"Practical6-Apply-TTT-Token.sol\":10160:10167  resultA */\n      dup4\n        /* \"Practical6-Apply-TTT-Token.sol\":10169:10176  resultB */\n      dup4\n        /* \"Practical6-Apply-TTT-Token.sol\":10145:10159  compareStrings */\n      tag_82\n        /* \"Practical6-Apply-TTT-Token.sol\":10145:10177  compareStrings(resultA, resultB) */\n      jump\t// in\n    tag_535:\n        /* \"Practical6-Apply-TTT-Token.sol\":10145:10213  compareStrings(resultA, resultB) && compareStrings(resultB, resultC) */\n      dup1\n      iszero\n      tag_537\n      jumpi\n      pop\n        /* \"Practical6-Apply-TTT-Token.sol\":10181:10213  compareStrings(resultB, resultC) */\n      tag_537\n        /* \"Practical6-Apply-TTT-Token.sol\":10196:10203  resultB */\n      dup3\n        /* \"Practical6-Apply-TTT-Token.sol\":10205:10212  resultC */\n      dup3\n        /* \"Practical6-Apply-TTT-Token.sol\":10181:10195  compareStrings */\n      tag_82\n        /* \"Practical6-Apply-TTT-Token.sol\":10181:10213  compareStrings(resultB, resultC) */\n      jump\t// in\n    tag_537:\n        /* \"Practical6-Apply-TTT-Token.sol\":10142:10757  if(compareStrings(resultA, resultB) && compareStrings(resultB, resultC)){... */\n      iszero\n      tag_538\n      jumpi\n        /* \"Practical6-Apply-TTT-Token.sol\":10279:10291  winCondition */\n      dup4\n        /* \"Practical6-Apply-TTT-Token.sol\":10237:10252  gameInformation */\n      0x07\n        /* \"Practical6-Apply-TTT-Token.sol\":10253:10259  gameId */\n      dup9\n        /* \"Practical6-Apply-TTT-Token.sol\":10237:10260  gameInformation[gameId] */\n      dup2\n      sload\n      dup2\n      lt\n      tag_540\n      jumpi\n      tag_540\n      tag_159\n      jump\t// in\n    tag_540:\n      swap1\n      0x00\n      mstore\n      keccak256(0x00, 0x20)\n      swap1\n      0x0b\n      mul\n      add\n        /* \"Practical6-Apply-TTT-Token.sol\":10237:10276  gameInformation[gameId]._finalWinOption */\n      0x03\n      add\n        /* \"Practical6-Apply-TTT-Token.sol\":10237:10291  gameInformation[gameId]._finalWinOption = winCondition */\n      swap1\n      dup1\n      mload\n      swap1\n      0x20\n      add\n      swap1\n      tag_542\n      swap3\n      swap2\n      swap1\n      tag_155\n      jump\t// in\n    tag_542:\n      pop\n        /* \"Practical6-Apply-TTT-Token.sol\":10339:10398  compareStrings(gameInformation[gameId]._currentPlayer, \"X\") */\n      tag_543\n        /* \"Practical6-Apply-TTT-Token.sol\":10354:10369  gameInformation */\n      0x07\n        /* \"Practical6-Apply-TTT-Token.sol\":10370:10376  gameId */\n      dup9\n        /* \"Practical6-Apply-TTT-Token.sol\":10354:10377  gameInformation[gameId] */\n      dup2\n      sload\n      dup2\n      lt\n      tag_272\n      jumpi\n      tag_272\n      tag_159\n      jump\t// in\n        /* \"Practical6-Apply-TTT-Token.sol\":10339:10398  compareStrings(gameInformation[gameId]._currentPlayer, \"X\") */\n    tag_543:\n        /* \"Practical6-Apply-TTT-Token.sol\":10336:10651  if(compareStrings(gameInformation[gameId]._currentPlayer, \"X\")){... */\n      iszero\n      tag_552\n      jumpi\n        /* \"Practical6-Apply-TTT-Token.sol\":10459:10474  gameInformation */\n      0x07\n        /* \"Practical6-Apply-TTT-Token.sol\":10475:10481  gameId */\n      dup8\n        /* \"Practical6-Apply-TTT-Token.sol\":10459:10482  gameInformation[gameId] */\n      dup2\n      sload\n      dup2\n      lt\n      tag_554\n      jumpi\n      tag_554\n      tag_159\n      jump\t// in\n    tag_554:\n      swap1\n      0x00\n      mstore\n      keccak256(0x00, 0x20)\n      swap1\n      0x0b\n      mul\n      add\n        /* \"Practical6-Apply-TTT-Token.sol\":10459:10498  gameInformation[gameId]._player1address */\n      0x04\n      add\n      0x00\n      swap1\n      sload\n      swap1\n      0x0100\n      exp\n      swap1\n      div\n      sub(shl(0xa0, 0x01), 0x01)\n      and\n        /* \"Practical6-Apply-TTT-Token.sol\":10426:10441  gameInformation */\n      0x07\n        /* \"Practical6-Apply-TTT-Token.sol\":10442:10448  gameId */\n      dup9\n        /* \"Practical6-Apply-TTT-Token.sol\":10426:10449  gameInformation[gameId] */\n      dup2\n      sload\n      dup2\n      lt\n      tag_557\n      jumpi\n      tag_557\n      tag_159\n      jump\t// in\n    tag_557:\n      swap1\n      0x00\n      mstore\n      keccak256(0x00, 0x20)\n      swap1\n      0x0b\n      mul\n      add\n        /* \"Practical6-Apply-TTT-Token.sol\":10426:10456  gameInformation[gameId]._winer */\n      0x07\n      add\n      0x00\n        /* \"Practical6-Apply-TTT-Token.sol\":10426:10498  gameInformation[gameId]._winer = gameInformation[gameId]._player1address */\n      0x0100\n      exp\n      dup2\n      sload\n      dup2\n      sub(shl(0xa0, 0x01), 0x01)\n      mul\n      not\n      and\n      swap1\n      dup4\n      sub(shl(0xa0, 0x01), 0x01)\n      and\n      mul\n      or\n      swap1\n      sstore\n      pop\n        /* \"Practical6-Apply-TTT-Token.sol\":10336:10651  if(compareStrings(gameInformation[gameId]._currentPlayer, \"X\")){... */\n      jump(tag_559)\n    tag_552:\n        /* \"Practical6-Apply-TTT-Token.sol\":10588:10603  gameInformation */\n      0x07\n        /* \"Practical6-Apply-TTT-Token.sol\":10604:10610  gameId */\n      dup8\n        /* \"Practical6-Apply-TTT-Token.sol\":10588:10611  gameInformation[gameId] */\n      dup2\n      sload\n      dup2\n      lt\n      tag_561\n      jumpi\n      tag_561\n      tag_159\n      jump\t// in\n    tag_561:\n      swap1\n      0x00\n      mstore\n      keccak256(0x00, 0x20)\n      swap1\n      0x0b\n      mul\n      add\n        /* \"Practical6-Apply-TTT-Token.sol\":10588:10627  gameInformation[gameId]._player2address */\n      0x05\n      add\n      0x00\n      swap1\n      sload\n      swap1\n      0x0100\n      exp\n      swap1\n      div\n      sub(shl(0xa0, 0x01), 0x01)\n      and\n        /* \"Practical6-Apply-TTT-Token.sol\":10555:10570  gameInformation */\n      0x07\n        /* \"Practical6-Apply-TTT-Token.sol\":10571:10577  gameId */\n      dup9\n        /* \"Practical6-Apply-TTT-Token.sol\":10555:10578  gameInformation[gameId] */\n      dup2\n      sload\n      dup2\n      lt\n      tag_564\n      jumpi\n      tag_564\n      tag_159\n      jump\t// in\n    tag_564:\n      swap1\n      0x00\n      mstore\n      keccak256(0x00, 0x20)\n      swap1\n      0x0b\n      mul\n      add\n        /* \"Practical6-Apply-TTT-Token.sol\":10555:10585  gameInformation[gameId]._winer */\n      0x07\n      add\n      0x00\n        /* \"Practical6-Apply-TTT-Token.sol\":10555:10627  gameInformation[gameId]._winer = gameInformation[gameId]._player2address */\n      0x0100\n      exp\n      dup2\n      sload\n      dup2\n      sub(shl(0xa0, 0x01), 0x01)\n      mul\n      not\n      and\n      swap1\n      dup4\n      sub(shl(0xa0, 0x01), 0x01)\n      and\n      mul\n      or\n      swap1\n      sstore\n      pop\n        /* \"Practical6-Apply-TTT-Token.sol\":10336:10651  if(compareStrings(gameInformation[gameId]._currentPlayer, \"X\")){... */\n    tag_559:\n        /* \"Practical6-Apply-TTT-Token.sol\":10705:10709  true */\n      0x01\n        /* \"Practical6-Apply-TTT-Token.sol\":10695:10709  userWon = true */\n      swap6\n      pop\n        /* \"Practical6-Apply-TTT-Token.sol\":10732:10737  break */\n      pop\n      pop\n      pop\n      pop\n      jump(tag_483)\n        /* \"Practical6-Apply-TTT-Token.sol\":10142:10757  if(compareStrings(resultA, resultB) && compareStrings(resultB, resultC)){... */\n    tag_538:\n        /* \"Practical6-Apply-TTT-Token.sol\":9338:10772  {... */\n      pop\n      pop\n      pop\n      pop\n        /* \"Practical6-Apply-TTT-Token.sol\":9289:10772  for(uint i = 0 ; i < winConditionSet.length; i++){... */\n    tag_484:\n        /* \"Practical6-Apply-TTT-Token.sol\":9334:9337  i++ */\n      dup1\n      tag_566\n      dup2\n      tag_192\n      jump\t// in\n    tag_566:\n      swap2\n      pop\n      pop\n        /* \"Practical6-Apply-TTT-Token.sol\":9289:10772  for(uint i = 0 ; i < winConditionSet.length; i++){... */\n      jump(tag_482)\n    tag_483:\n      pop\n        /* \"Practical6-Apply-TTT-Token.sol\":10902:10909  userWon */\n      dup1\n        /* \"Practical6-Apply-TTT-Token.sol\":10899:12055  if(userWon){... */\n      iszero\n      tag_567\n      jumpi\n        /* \"Practical6-Apply-TTT-Token.sol\":10976:11035  compareStrings(gameInformation[gameId]._currentPlayer, \"X\") */\n      tag_568\n        /* \"Practical6-Apply-TTT-Token.sol\":10991:11006  gameInformation */\n      0x07\n        /* \"Practical6-Apply-TTT-Token.sol\":11007:11013  gameId */\n      dup4\n        /* \"Practical6-Apply-TTT-Token.sol\":10991:11014  gameInformation[gameId] */\n      dup2\n      sload\n      dup2\n      lt\n      tag_272\n      jumpi\n      tag_272\n      tag_159\n      jump\t// in\n        /* \"Practical6-Apply-TTT-Token.sol\":10976:11035  compareStrings(gameInformation[gameId]._currentPlayer, \"X\") */\n    tag_568:\n        /* \"Practical6-Apply-TTT-Token.sol\":10973:11322  if(compareStrings(gameInformation[gameId]._currentPlayer, \"X\")){... */\n      iszero\n      tag_577\n      jumpi\n        /* \"Practical6-Apply-TTT-Token.sol\":11059:11067  TTTToken */\n      sload(0x00)\n        /* \"Practical6-Apply-TTT-Token.sol\":11077:11092  gameInformation */\n      0x07\n        /* \"Practical6-Apply-TTT-Token.sol\":11077:11100  gameInformation[gameId] */\n      dup1\n      sload\n      sub(shl(0xa0, 0x01), 0x01)\n        /* \"Practical6-Apply-TTT-Token.sol\":11059:11067  TTTToken */\n      swap1\n      swap3\n      and\n      swap2\n        /* \"Practical6-Apply-TTT-Token.sol\":11059:11076  TTTToken.transfer */\n      0xa9059cbb\n      swap2\n        /* \"Practical6-Apply-TTT-Token.sol\":11077:11092  gameInformation */\n      swap1\n        /* \"Practical6-Apply-TTT-Token.sol\":11093:11099  gameId */\n      dup6\n      swap1\n        /* \"Practical6-Apply-TTT-Token.sol\":11077:11100  gameInformation[gameId] */\n      dup2\n      lt\n      tag_579\n      jumpi\n      tag_579\n      tag_159\n      jump\t// in\n    tag_579:\n      swap1\n      0x00\n      mstore\n      keccak256(0x00, 0x20)\n      swap1\n      0x0b\n      mul\n      add\n        /* \"Practical6-Apply-TTT-Token.sol\":11077:11116  gameInformation[gameId]._player1address */\n      0x04\n      add\n      0x00\n      swap1\n      sload\n      swap1\n      0x0100\n      exp\n      swap1\n      div\n      sub(shl(0xa0, 0x01), 0x01)\n      and\n        /* \"Practical6-Apply-TTT-Token.sol\":11118:11133  gameInformation */\n      0x07\n        /* \"Practical6-Apply-TTT-Token.sol\":11134:11140  gameId */\n      dup6\n        /* \"Practical6-Apply-TTT-Token.sol\":11118:11141  gameInformation[gameId] */\n      dup2\n      sload\n      dup2\n      lt\n      tag_582\n      jumpi\n      tag_582\n      tag_159\n      jump\t// in\n    tag_582:\n      0x00\n      swap2\n      dup3\n      mstore\n      0x20\n      swap1\n      swap2\n      keccak256\n        /* \"Practical6-Apply-TTT-Token.sol\":11118:11155  gameInformation[gameId]._rewardAmount */\n      0x0a\n        /* \"Practical6-Apply-TTT-Token.sol\":11118:11141  gameInformation[gameId] */\n      0x0b\n      swap1\n      swap3\n      mul\n      add\n        /* \"Practical6-Apply-TTT-Token.sol\":11118:11155  gameInformation[gameId]._rewardAmount */\n      add\n      sload\n        /* \"Practical6-Apply-TTT-Token.sol\":11059:11156  TTTToken.transfer(gameInformation[gameId]._player1address, gameInformation[gameId]._rewardAmount) */\n      mload(0x40)\n      not(sub(shl(0xe0, 0x01), 0x01))\n      0xe0\n      dup6\n      swap1\n      shl\n      and\n      dup2\n      mstore\n      sub(shl(0xa0, 0x01), 0x01)\n        /* \"#utility.yul\":10607:10639   */\n      swap1\n      swap3\n      and\n        /* \"Practical6-Apply-TTT-Token.sol\":11059:11156  TTTToken.transfer(gameInformation[gameId]._player1address, gameInformation[gameId]._rewardAmount) */\n      0x04\n      dup4\n      add\n        /* \"#utility.yul\":10589:10640   */\n      mstore\n        /* \"#utility.yul\":10656:10674   */\n      0x24\n      dup3\n      add\n        /* \"#utility.yul\":10649:10683   */\n      mstore\n        /* \"#utility.yul\":10562:10580   */\n      0x44\n      add\n        /* \"Practical6-Apply-TTT-Token.sol\":11059:11156  TTTToken.transfer(gameInformation[gameId]._player1address, gameInformation[gameId]._rewardAmount) */\n      0x20\n      mload(0x40)\n      dup1\n      dup4\n      sub\n      dup2\n      0x00\n      dup8\n      gas\n      call\n      iszero\n      dup1\n      iszero\n      tag_586\n      jumpi\n      returndatasize\n      0x00\n      dup1\n      returndatacopy\n      revert(0x00, returndatasize)\n    tag_586:\n      pop\n      pop\n      pop\n      pop\n      mload(0x40)\n      returndatasize\n      not(0x1f)\n      0x1f\n      dup3\n      add\n      and\n      dup3\n      add\n      dup1\n      0x40\n      mstore\n      pop\n      dup2\n      add\n      swap1\n      tag_587\n      swap2\n      swap1\n      tag_122\n      jump\t// in\n    tag_587:\n      pop\n        /* \"Practical6-Apply-TTT-Token.sol\":10973:11322  if(compareStrings(gameInformation[gameId]._currentPlayer, \"X\")){... */\n      jump(tag_588)\n    tag_577:\n        /* \"Practical6-Apply-TTT-Token.sol\":11205:11213  TTTToken */\n      sload(0x00)\n        /* \"Practical6-Apply-TTT-Token.sol\":11223:11238  gameInformation */\n      0x07\n        /* \"Practical6-Apply-TTT-Token.sol\":11223:11246  gameInformation[gameId] */\n      dup1\n      sload\n      sub(shl(0xa0, 0x01), 0x01)\n        /* \"Practical6-Apply-TTT-Token.sol\":11205:11213  TTTToken */\n      swap1\n      swap3\n      and\n      swap2\n        /* \"Practical6-Apply-TTT-Token.sol\":11205:11222  TTTToken.transfer */\n      0xa9059cbb\n      swap2\n        /* \"Practical6-Apply-TTT-Token.sol\":11223:11238  gameInformation */\n      swap1\n        /* \"Practical6-Apply-TTT-Token.sol\":11239:11245  gameId */\n      dup6\n      swap1\n        /* \"Practical6-Apply-TTT-Token.sol\":11223:11246  gameInformation[gameId] */\n      dup2\n      lt\n      tag_590\n      jumpi\n      tag_590\n      tag_159\n      jump\t// in\n    tag_590:\n      swap1\n      0x00\n      mstore\n      keccak256(0x00, 0x20)\n      swap1\n      0x0b\n      mul\n      add\n        /* \"Practical6-Apply-TTT-Token.sol\":11223:11262  gameInformation[gameId]._player2address */\n      0x05\n      add\n      0x00\n      swap1\n      sload\n      swap1\n      0x0100\n      exp\n      swap1\n      div\n      sub(shl(0xa0, 0x01), 0x01)\n      and\n        /* \"Practical6-Apply-TTT-Token.sol\":11264:11279  gameInformation */\n      0x07\n        /* \"Practical6-Apply-TTT-Token.sol\":11280:11286  gameId */\n      dup6\n        /* \"Practical6-Apply-TTT-Token.sol\":11264:11287  gameInformation[gameId] */\n      dup2\n      sload\n      dup2\n      lt\n      tag_593\n      jumpi\n      tag_593\n      tag_159\n      jump\t// in\n    tag_593:\n      0x00\n      swap2\n      dup3\n      mstore\n      0x20\n      swap1\n      swap2\n      keccak256\n        /* \"Practical6-Apply-TTT-Token.sol\":11264:11301  gameInformation[gameId]._rewardAmount */\n      0x0a\n        /* \"Practical6-Apply-TTT-Token.sol\":11264:11287  gameInformation[gameId] */\n      0x0b\n      swap1\n      swap3\n      mul\n      add\n        /* \"Practical6-Apply-TTT-Token.sol\":11264:11301  gameInformation[gameId]._rewardAmount */\n      add\n      sload\n        /* \"Practical6-Apply-TTT-Token.sol\":11205:11302  TTTToken.transfer(gameInformation[gameId]._player2address, gameInformation[gameId]._rewardAmount) */\n      mload(0x40)\n      not(sub(shl(0xe0, 0x01), 0x01))\n      0xe0\n      dup6\n      swap1\n      shl\n      and\n      dup2\n      mstore\n      sub(shl(0xa0, 0x01), 0x01)\n        /* \"#utility.yul\":10607:10639   */\n      swap1\n      swap3\n      and\n        /* \"Practical6-Apply-TTT-Token.sol\":11205:11302  TTTToken.transfer(gameInformation[gameId]._player2address, gameInformation[gameId]._rewardAmount) */\n      0x04\n      dup4\n      add\n        /* \"#utility.yul\":10589:10640   */\n      mstore\n        /* \"#utility.yul\":10656:10674   */\n      0x24\n      dup3\n      add\n        /* \"#utility.yul\":10649:10683   */\n      mstore\n        /* \"#utility.yul\":10562:10580   */\n      0x44\n      add\n        /* \"Practical6-Apply-TTT-Token.sol\":11205:11302  TTTToken.transfer(gameInformation[gameId]._player2address, gameInformation[gameId]._rewardAmount) */\n      0x20\n      mload(0x40)\n      dup1\n      dup4\n      sub\n      dup2\n      0x00\n      dup8\n      gas\n      call\n      iszero\n      dup1\n      iszero\n      tag_597\n      jumpi\n      returndatasize\n      0x00\n      dup1\n      returndatacopy\n      revert(0x00, returndatasize)\n    tag_597:\n      pop\n      pop\n      pop\n      pop\n      mload(0x40)\n      returndatasize\n      not(0x1f)\n      0x1f\n      dup3\n      add\n      and\n      dup3\n      add\n      dup1\n      0x40\n      mstore\n      pop\n      dup2\n      add\n      swap1\n      tag_598\n      swap2\n      swap1\n      tag_122\n      jump\t// in\n    tag_598:\n      pop\n        /* \"Practical6-Apply-TTT-Token.sol\":10973:11322  if(compareStrings(gameInformation[gameId]._currentPlayer, \"X\")){... */\n    tag_588:\n        /* \"Practical6-Apply-TTT-Token.sol\":11355:11370  gameInformation */\n      0x07\n        /* \"Practical6-Apply-TTT-Token.sol\":11371:11377  gameId */\n      dup3\n        /* \"Practical6-Apply-TTT-Token.sol\":11355:11378  gameInformation[gameId] */\n      dup2\n      sload\n      dup2\n      lt\n      tag_600\n      jumpi\n      tag_600\n      tag_159\n      jump\t// in\n    tag_600:\n      swap1\n      0x00\n      mstore\n      keccak256(0x00, 0x20)\n      swap1\n      0x0b\n      mul\n      add\n        /* \"Practical6-Apply-TTT-Token.sol\":11355:11392  gameInformation[gameId]._rewardAmount */\n      0x0a\n      add\n      sload\n        /* \"Practical6-Apply-TTT-Token.sol\":11340:11351  totalAmount */\n      0x05\n      0x00\n        /* \"Practical6-Apply-TTT-Token.sol\":11340:11392  totalAmount -= gameInformation[gameId]._rewardAmount */\n      dup3\n      dup3\n      sload\n      tag_602\n      swap2\n      swap1\n      tag_130\n      jump\t// in\n    tag_602:\n      swap3\n      pop\n      pop\n      dup2\n      swap1\n      sstore\n      pop\n        /* \"Practical6-Apply-TTT-Token.sol\":11457:11515  showResult(gameInformation[gameId]._currentPlayer, gameId) */\n      0x938a1c44580c51d01225d61fb97878104148b1cdc734eb45bc5b5b50533a492d\n        /* \"Practical6-Apply-TTT-Token.sol\":11468:11483  gameInformation */\n      0x07\n        /* \"Practical6-Apply-TTT-Token.sol\":11484:11490  gameId */\n      dup4\n        /* \"Practical6-Apply-TTT-Token.sol\":11468:11491  gameInformation[gameId] */\n      dup2\n      sload\n      dup2\n      lt\n      tag_604\n      jumpi\n      tag_604\n      tag_159\n      jump\t// in\n    tag_604:\n      swap1\n      0x00\n      mstore\n      keccak256(0x00, 0x20)\n      swap1\n      0x0b\n      mul\n      add\n        /* \"Practical6-Apply-TTT-Token.sol\":11468:11506  gameInformation[gameId]._currentPlayer */\n      0x01\n      add\n        /* \"Practical6-Apply-TTT-Token.sol\":11508:11514  gameId */\n      dup4\n        /* \"Practical6-Apply-TTT-Token.sol\":11457:11515  showResult(gameInformation[gameId]._currentPlayer, gameId) */\n      mload(0x40)\n      tag_606\n      swap3\n      swap2\n      swap1\n      tag_607\n      jump\t// in\n    tag_606:\n      mload(0x40)\n      dup1\n      swap2\n      sub\n      swap1\n      log1\n        /* \"Practical6-Apply-TTT-Token.sol\":11631:11636  false */\n      0x00\n        /* \"Practical6-Apply-TTT-Token.sol\":11595:11610  gameInformation */\n      0x07\n        /* \"Practical6-Apply-TTT-Token.sol\":11611:11617  gameId */\n      dup4\n        /* \"Practical6-Apply-TTT-Token.sol\":11595:11618  gameInformation[gameId] */\n      dup2\n      sload\n      dup2\n      lt\n      tag_609\n      jumpi\n      tag_609\n      tag_159\n      jump\t// in\n    tag_609:\n      0x00\n      swap2\n      dup3\n      mstore\n      0x20\n      swap1\n      swap2\n      keccak256\n      0x0b\n      swap1\n      swap2\n      mul\n      add\n        /* \"Practical6-Apply-TTT-Token.sol\":11595:11636  gameInformation[gameId]._activate = false */\n      dup1\n      sload\n      not(0xff)\n      and\n      swap2\n      iszero\n      iszero\n      swap2\n      swap1\n      swap2\n      or\n      swap1\n      sstore\n      pop\n      pop\n        /* \"Practical6-Apply-TTT-Token.sol\":7992:9038  function userInput(uint input, uint gameId) external {... */\n      jump\t// out\n        /* \"Practical6-Apply-TTT-Token.sol\":10899:12055  if(userWon){... */\n    tag_567:\n        /* \"Practical6-Apply-TTT-Token.sol\":11665:11685  checkOptions(gameId) */\n      tag_612\n        /* \"Practical6-Apply-TTT-Token.sol\":11678:11684  gameId */\n      dup3\n        /* \"Practical6-Apply-TTT-Token.sol\":11665:11677  checkOptions */\n      tag_613\n        /* \"Practical6-Apply-TTT-Token.sol\":11665:11685  checkOptions(gameId) */\n      jump\t// in\n    tag_612:\n        /* \"Practical6-Apply-TTT-Token.sol\":11662:12055  if(checkOptions(gameId)){... */\n      iszero\n      tag_614\n      jumpi\n        /* \"Practical6-Apply-TTT-Token.sol\":11754:11780  showResult(\"Draw\", gameId) */\n      0x40\n      dup1\n      mload\n        /* \"#utility.yul\":25637:25658   */\n      dup2\n      dup2\n      mstore\n        /* \"#utility.yul\":25694:25695   */\n      0x04\n        /* \"#utility.yul\":25674:25692   */\n      swap2\n      dup2\n      add\n        /* \"#utility.yul\":25667:25696   */\n      swap2\n      swap1\n      swap2\n      mstore\n      shl(0xe0, 0x44726177)\n        /* \"#utility.yul\":25727:25729   */\n      0x60\n        /* \"#utility.yul\":25712:25730   */\n      dup3\n      add\n        /* \"#utility.yul\":25705:25739   */\n      mstore\n        /* \"#utility.yul\":25806:25810   */\n      0x20\n        /* \"#utility.yul\":25791:25811   */\n      dup2\n      add\n        /* \"#utility.yul\":25784:25820   */\n      dup4\n      swap1\n      mstore\n        /* \"Practical6-Apply-TTT-Token.sol\":11754:11780  showResult(\"Draw\", gameId) */\n      0x938a1c44580c51d01225d61fb97878104148b1cdc734eb45bc5b5b50533a492d\n      swap1\n        /* \"#utility.yul\":25771:25774   */\n      0x80\n        /* \"#utility.yul\":25756:25775   */\n      add\n        /* \"Practical6-Apply-TTT-Token.sol\":11754:11780  showResult(\"Draw\", gameId) */\n      tag_606\n        /* \"#utility.yul\":25425:25826   */\n      jump\n        /* \"Practical6-Apply-TTT-Token.sol\":11662:12055  if(checkOptions(gameId)){... */\n    tag_614:\n        /* \"Practical6-Apply-TTT-Token.sol\":12019:12039  changePlayer(gameId) */\n      tag_309\n        /* \"Practical6-Apply-TTT-Token.sol\":12032:12038  gameId */\n      dup3\n        /* \"Practical6-Apply-TTT-Token.sol\":12019:12031  changePlayer */\n      tag_622\n        /* \"Practical6-Apply-TTT-Token.sol\":12019:12039  changePlayer(gameId) */\n      jump\t// in\n        /* \"Practical6-Apply-TTT-Token.sol\":12890:13334  function checkOptions(uint gameId) private view returns (bool) {... */\n    tag_613:\n        /* \"Practical6-Apply-TTT-Token.sol\":12947:12951  bool */\n      0x00\n      dup1\n        /* \"Practical6-Apply-TTT-Token.sol\":13083:13297  for(uint i = 0 ; i < gameInformation[gameId]._options.length; i++){... */\n    tag_624:\n        /* \"Practical6-Apply-TTT-Token.sol\":13104:13119  gameInformation */\n      0x07\n        /* \"Practical6-Apply-TTT-Token.sol\":13120:13126  gameId */\n      dup4\n        /* \"Practical6-Apply-TTT-Token.sol\":13104:13127  gameInformation[gameId] */\n      dup2\n      sload\n      dup2\n      lt\n      tag_628\n      jumpi\n      tag_628\n      tag_159\n      jump\t// in\n    tag_628:\n      swap1\n      0x00\n      mstore\n      keccak256(0x00, 0x20)\n      swap1\n      0x0b\n      mul\n      add\n        /* \"Practical6-Apply-TTT-Token.sol\":13104:13136  gameInformation[gameId]._options */\n      0x02\n      add\n        /* \"Practical6-Apply-TTT-Token.sol\":13104:13143  gameInformation[gameId]._options.length */\n      dup1\n      sload\n      swap1\n      pop\n        /* \"Practical6-Apply-TTT-Token.sol\":13100:13101  i */\n      dup2\n        /* \"Practical6-Apply-TTT-Token.sol\":13100:13143  i < gameInformation[gameId]._options.length */\n      lt\n        /* \"Practical6-Apply-TTT-Token.sol\":13083:13297  for(uint i = 0 ; i < gameInformation[gameId]._options.length; i++){... */\n      iszero\n      tag_625\n      jumpi\n        /* \"Practical6-Apply-TTT-Token.sol\":13171:13226  compareStrings(gameInformation[gameId]._options[i], \"\") */\n      tag_630\n        /* \"Practical6-Apply-TTT-Token.sol\":13186:13201  gameInformation */\n      0x07\n        /* \"Practical6-Apply-TTT-Token.sol\":13202:13208  gameId */\n      dup5\n        /* \"Practical6-Apply-TTT-Token.sol\":13186:13209  gameInformation[gameId] */\n      dup2\n      sload\n      dup2\n      lt\n      tag_632\n      jumpi\n      tag_632\n      tag_159\n      jump\t// in\n    tag_632:\n      swap1\n      0x00\n      mstore\n      keccak256(0x00, 0x20)\n      swap1\n      0x0b\n      mul\n      add\n        /* \"Practical6-Apply-TTT-Token.sol\":13186:13218  gameInformation[gameId]._options */\n      0x02\n      add\n        /* \"Practical6-Apply-TTT-Token.sol\":13219:13220  i */\n      dup3\n        /* \"Practical6-Apply-TTT-Token.sol\":13186:13221  gameInformation[gameId]._options[i] */\n      dup2\n      sload\n      dup2\n      lt\n      tag_260\n      jumpi\n      tag_260\n      tag_159\n      jump\t// in\n        /* \"Practical6-Apply-TTT-Token.sol\":13171:13226  compareStrings(gameInformation[gameId]._options[i], \"\") */\n    tag_630:\n        /* \"Practical6-Apply-TTT-Token.sol\":13168:13282  if(compareStrings(gameInformation[gameId]._options[i], \"\")){... */\n      iszero\n      tag_642\n      jumpi\n      pop\n        /* \"Practical6-Apply-TTT-Token.sol\":13257:13262  false */\n      0x00\n      swap3\n        /* \"Practical6-Apply-TTT-Token.sol\":12890:13334  function checkOptions(uint gameId) private view returns (bool) {... */\n      swap2\n      pop\n      pop\n      jump\t// out\n        /* \"Practical6-Apply-TTT-Token.sol\":13168:13282  if(compareStrings(gameInformation[gameId]._options[i], \"\")){... */\n    tag_642:\n        /* \"Practical6-Apply-TTT-Token.sol\":13145:13148  i++ */\n      dup1\n      tag_643\n      dup2\n      tag_192\n      jump\t// in\n    tag_643:\n      swap2\n      pop\n      pop\n        /* \"Practical6-Apply-TTT-Token.sol\":13083:13297  for(uint i = 0 ; i < gameInformation[gameId]._options.length; i++){... */\n      jump(tag_624)\n    tag_625:\n      pop\n        /* \"Practical6-Apply-TTT-Token.sol\":13318:13322  true */\n      0x01\n      swap3\n        /* \"Practical6-Apply-TTT-Token.sol\":12890:13334  function checkOptions(uint gameId) private view returns (bool) {... */\n      swap2\n      pop\n      pop\n      jump\t// out\n        /* \"Practical6-Apply-TTT-Token.sol\":12111:12821  function changePlayer(uint gameId) private {... */\n    tag_622:\n        /* \"Practical6-Apply-TTT-Token.sol\":12217:12276  compareStrings(gameInformation[gameId]._currentPlayer, \"X\") */\n      tag_645\n        /* \"Practical6-Apply-TTT-Token.sol\":12232:12247  gameInformation */\n      0x07\n        /* \"Practical6-Apply-TTT-Token.sol\":12248:12254  gameId */\n      dup3\n        /* \"Practical6-Apply-TTT-Token.sol\":12232:12255  gameInformation[gameId] */\n      dup2\n      sload\n      dup2\n      lt\n      tag_272\n      jumpi\n      tag_272\n      tag_159\n      jump\t// in\n        /* \"Practical6-Apply-TTT-Token.sol\":12217:12276  compareStrings(gameInformation[gameId]._currentPlayer, \"X\") */\n    tag_645:\n        /* \"Practical6-Apply-TTT-Token.sol\":12214:12527  if(compareStrings(gameInformation[gameId]._currentPlayer, \"X\")){... */\n      iszero\n      tag_654\n      jumpi\n        /* \"Practical6-Apply-TTT-Token.sol\":12301:12358  nextUser(gameInformation[gameId]._player2address, gameId) */\n      0xeefc3fd775b975165c9d067e02fcd5bf5889d58041ae6ddaf94f2cc853007272\n        /* \"Practical6-Apply-TTT-Token.sol\":12310:12325  gameInformation */\n      0x07\n        /* \"Practical6-Apply-TTT-Token.sol\":12326:12332  gameId */\n      dup3\n        /* \"Practical6-Apply-TTT-Token.sol\":12310:12333  gameInformation[gameId] */\n      dup2\n      sload\n      dup2\n      lt\n      tag_656\n      jumpi\n      tag_656\n      tag_159\n      jump\t// in\n    tag_656:\n      0x00\n      swap2\n      dup3\n      mstore\n      0x20\n      swap2\n      dup3\n      swap1\n      keccak256\n      0x0b\n      swap1\n      swap2\n      mul\n      add\n        /* \"Practical6-Apply-TTT-Token.sol\":12310:12349  gameInformation[gameId]._player2address */\n      0x05\n      add\n      sload\n        /* \"Practical6-Apply-TTT-Token.sol\":12301:12358  nextUser(gameInformation[gameId]._player2address, gameId) */\n      0x40\n      dup1\n      mload\n      sub(shl(0xa0, 0x01), 0x01)\n        /* \"Practical6-Apply-TTT-Token.sol\":12310:12349  gameInformation[gameId]._player2address */\n      swap1\n      swap3\n      and\n        /* \"#utility.yul\":10589:10640   */\n      dup3\n      mstore\n        /* \"#utility.yul\":10656:10674   */\n      swap2\n      dup2\n      add\n        /* \"#utility.yul\":10649:10683   */\n      dup5\n      swap1\n      mstore\n        /* \"#utility.yul\":10562:10580   */\n      add\n        /* \"Practical6-Apply-TTT-Token.sol\":12301:12358  nextUser(gameInformation[gameId]._player2address, gameId) */\n      mload(0x40)\n      dup1\n      swap2\n      sub\n      swap1\n      log1\n        /* \"Practical6-Apply-TTT-Token.sol\":12214:12527  if(compareStrings(gameInformation[gameId]._currentPlayer, \"X\")){... */\n      jump(tag_659)\n    tag_654:\n        /* \"Practical6-Apply-TTT-Token.sol\":12428:12485  nextUser(gameInformation[gameId]._player1address, gameId) */\n      0xeefc3fd775b975165c9d067e02fcd5bf5889d58041ae6ddaf94f2cc853007272\n        /* \"Practical6-Apply-TTT-Token.sol\":12437:12452  gameInformation */\n      0x07\n        /* \"Practical6-Apply-TTT-Token.sol\":12453:12459  gameId */\n      dup3\n        /* \"Practical6-Apply-TTT-Token.sol\":12437:12460  gameInformation[gameId] */\n      dup2\n      sload\n      dup2\n      lt\n      tag_661\n      jumpi\n      tag_661\n      tag_159\n      jump\t// in\n    tag_661:\n      0x00\n      swap2\n      dup3\n      mstore\n      0x20\n      swap2\n      dup3\n      swap1\n      keccak256\n      0x0b\n      swap1\n      swap2\n      mul\n      add\n        /* \"Practical6-Apply-TTT-Token.sol\":12437:12476  gameInformation[gameId]._player1address */\n      0x04\n      add\n      sload\n        /* \"Practical6-Apply-TTT-Token.sol\":12428:12485  nextUser(gameInformation[gameId]._player1address, gameId) */\n      0x40\n      dup1\n      mload\n      sub(shl(0xa0, 0x01), 0x01)\n        /* \"Practical6-Apply-TTT-Token.sol\":12437:12476  gameInformation[gameId]._player1address */\n      swap1\n      swap3\n      and\n        /* \"#utility.yul\":10589:10640   */\n      dup3\n      mstore\n        /* \"#utility.yul\":10656:10674   */\n      swap2\n      dup2\n      add\n        /* \"#utility.yul\":10649:10683   */\n      dup5\n      swap1\n      mstore\n        /* \"#utility.yul\":10562:10580   */\n      add\n        /* \"Practical6-Apply-TTT-Token.sol\":12428:12485  nextUser(gameInformation[gameId]._player1address, gameId) */\n      mload(0x40)\n      dup1\n      swap2\n      sub\n      swap1\n      log1\n        /* \"Practical6-Apply-TTT-Token.sol\":12214:12527  if(compareStrings(gameInformation[gameId]._currentPlayer, \"X\")){... */\n    tag_659:\n        /* \"Practical6-Apply-TTT-Token.sol\":12616:12675  compareStrings(gameInformation[gameId]._currentPlayer, \"X\") */\n      tag_664\n        /* \"Practical6-Apply-TTT-Token.sol\":12631:12646  gameInformation */\n      0x07\n        /* \"Practical6-Apply-TTT-Token.sol\":12647:12653  gameId */\n      dup3\n        /* \"Practical6-Apply-TTT-Token.sol\":12631:12654  gameInformation[gameId] */\n      dup2\n      sload\n      dup2\n      lt\n      tag_272\n      jumpi\n      tag_272\n      tag_159\n      jump\t// in\n        /* \"Practical6-Apply-TTT-Token.sol\":12616:12675  compareStrings(gameInformation[gameId]._currentPlayer, \"X\") */\n    tag_664:\n        /* \"Practical6-Apply-TTT-Token.sol\":12615:12688  (compareStrings(gameInformation[gameId]._currentPlayer, \"X\")) ? \"O\" : \"X\" */\n      tag_673\n      jumpi\n      mload(0x40)\n      dup1\n      0x40\n      add\n      0x40\n      mstore\n      dup1\n      0x01\n      dup2\n      mstore\n      0x20\n      add\n      shl(0xfb, 0x0b)\n      dup2\n      mstore\n      pop\n      jump(tag_674)\n    tag_673:\n      mload(0x40)\n      dup1\n      0x40\n      add\n      0x40\n      mstore\n      dup1\n      0x01\n      dup2\n      mstore\n      0x20\n      add\n      shl(0xf8, 0x4f)\n      dup2\n      mstore\n      pop\n    tag_674:\n        /* \"Practical6-Apply-TTT-Token.sol\":12574:12589  gameInformation */\n      0x07\n        /* \"Practical6-Apply-TTT-Token.sol\":12590:12596  gameId */\n      dup3\n        /* \"Practical6-Apply-TTT-Token.sol\":12574:12597  gameInformation[gameId] */\n      dup2\n      sload\n      dup2\n      lt\n      tag_676\n      jumpi\n      tag_676\n      tag_159\n      jump\t// in\n    tag_676:\n      swap1\n      0x00\n      mstore\n      keccak256(0x00, 0x20)\n      swap1\n      0x0b\n      mul\n      add\n        /* \"Practical6-Apply-TTT-Token.sol\":12574:12612  gameInformation[gameId]._currentPlayer */\n      0x01\n      add\n        /* \"Practical6-Apply-TTT-Token.sol\":12574:12688  gameInformation[gameId]._currentPlayer = (compareStrings(gameInformation[gameId]._currentPlayer, \"X\")) ? \"O\" : \"X\" */\n      swap1\n      dup2\n      tag_678\n      swap2\n      swap1\n      tag_151\n      jump\t// in\n    tag_678:\n      pop\n        /* \"Practical6-Apply-TTT-Token.sol\":12750:12809  nextUesrStr(gameInformation[gameId]._currentPlayer, gameId) */\n      0xa6d1cb5f730b987124c37c3876130fddba49456449948ec4257360f5ab2851c0\n        /* \"Practical6-Apply-TTT-Token.sol\":12762:12777  gameInformation */\n      0x07\n        /* \"Practical6-Apply-TTT-Token.sol\":12778:12784  gameId */\n      dup3\n        /* \"Practical6-Apply-TTT-Token.sol\":12762:12785  gameInformation[gameId] */\n      dup2\n      sload\n      dup2\n      lt\n      tag_680\n      jumpi\n      tag_680\n      tag_159\n      jump\t// in\n    tag_680:\n      swap1\n      0x00\n      mstore\n      keccak256(0x00, 0x20)\n      swap1\n      0x0b\n      mul\n      add\n        /* \"Practical6-Apply-TTT-Token.sol\":12762:12800  gameInformation[gameId]._currentPlayer */\n      0x01\n      add\n        /* \"Practical6-Apply-TTT-Token.sol\":12802:12808  gameId */\n      dup3\n        /* \"Practical6-Apply-TTT-Token.sol\":12750:12809  nextUesrStr(gameInformation[gameId]._currentPlayer, gameId) */\n      mload(0x40)\n      tag_247\n      swap3\n      swap2\n      swap1\n      tag_607\n      jump\t// in\n    tag_148:\n      mload(0x40)\n      dup1\n      0x0160\n      add\n      0x40\n      mstore\n      dup1\n      iszero(iszero(0x00))\n      dup2\n      mstore\n      0x20\n      add\n      0x60\n      dup2\n      mstore\n      0x20\n      add\n      0x60\n      dup2\n      mstore\n      0x20\n      add\n      0x60\n      dup2\n      mstore\n      0x20\n      add\n      and(sub(shl(0xa0, 0x01), 0x01), 0x00)\n      dup2\n      mstore\n      0x20\n      add\n      and(sub(shl(0xa0, 0x01), 0x01), 0x00)\n      dup2\n      mstore\n      0x20\n      add\n      0x00\n      dup2\n      mstore\n      0x20\n      add\n      and(sub(shl(0xa0, 0x01), 0x01), 0x00)\n      dup2\n      mstore\n      0x20\n      add\n      0x00\n      dup2\n      mstore\n      0x20\n      add\n      0x00\n      dup2\n      mstore\n      0x20\n      add\n      0x00\n      dup2\n      mstore\n      pop\n      swap1\n      jump\t// out\n    tag_153:\n      dup3\n      dup1\n      sload\n      dup3\n      dup3\n      sstore\n      swap1\n      0x00\n      mstore\n      keccak256(0x00, 0x20)\n      swap1\n      dup2\n      add\n      swap3\n      dup3\n      iszero\n      tag_685\n      jumpi\n      swap2\n      0x20\n      mul\n      dup3\n      add\n    tag_684:\n      dup3\n      dup2\n      gt\n      iszero\n      tag_685\n      jumpi\n      dup3\n      mload\n      dup3\n      swap1\n      tag_686\n      swap1\n      dup3\n      tag_151\n      jump\t// in\n    tag_686:\n      pop\n      swap2\n      0x20\n      add\n      swap2\n      swap1\n      0x01\n      add\n      swap1\n      jump(tag_684)\n    tag_685:\n      pop\n      tag_687\n      swap3\n      swap2\n      pop\n      tag_688\n      jump\t// in\n    tag_687:\n      pop\n      swap1\n      jump\t// out\n    tag_155:\n      dup3\n      dup1\n      sload\n      dup3\n      dup3\n      sstore\n      swap1\n      0x00\n      mstore\n      keccak256(0x00, 0x20)\n      swap1\n      dup2\n      add\n      swap3\n      dup3\n      iszero\n      tag_691\n      jumpi\n      swap2\n      0x20\n      mul\n      dup3\n      add\n    tag_690:\n      dup3\n      dup2\n      gt\n      iszero\n      tag_691\n      jumpi\n      dup3\n      mload\n      dup3\n      sstore\n      swap2\n      0x20\n      add\n      swap2\n      swap1\n      0x01\n      add\n      swap1\n      jump(tag_690)\n    tag_691:\n      pop\n      tag_687\n      swap3\n      swap2\n      pop\n      tag_693\n      jump\t// in\n    tag_243:\n      dup3\n      dup1\n      sload\n      dup3\n      dup3\n      sstore\n      swap1\n      0x00\n      mstore\n      keccak256(0x00, 0x20)\n      swap1\n      dup2\n      add\n      swap3\n      dup3\n      iszero\n      tag_685\n      jumpi\n      swap2\n      0x20\n      mul\n      dup3\n      add\n    tag_695:\n      dup3\n      dup2\n      gt\n      iszero\n      tag_685\n      jumpi\n      dup3\n      mload\n      dup3\n      swap1\n      tag_697\n      swap1\n      dup3\n      tag_151\n      jump\t// in\n    tag_697:\n      pop\n      swap2\n      0x20\n      add\n      swap2\n      swap1\n      0x01\n      add\n      swap1\n      jump(tag_695)\n    tag_688:\n      dup1\n      dup3\n      gt\n      iszero\n      tag_687\n      jumpi\n      0x00\n      tag_701\n      dup3\n      dup3\n      tag_702\n      jump\t// in\n    tag_701:\n      pop\n      0x01\n      add\n      jump(tag_688)\n    tag_693:\n    tag_703:\n      dup1\n      dup3\n      gt\n      iszero\n      tag_687\n      jumpi\n      0x00\n      dup2\n      sstore\n      0x01\n      add\n      jump(tag_703)\n    tag_702:\n      pop\n      dup1\n      sload\n      tag_705\n      swap1\n      tag_219\n      jump\t// in\n    tag_705:\n      0x00\n      dup3\n      sstore\n      dup1\n      0x1f\n      lt\n      tag_707\n      jumpi\n      pop\n      pop\n      jump\t// out\n    tag_707:\n      0x1f\n      add\n      0x20\n      swap1\n      div\n      swap1\n      0x00\n      mstore\n      keccak256(0x00, 0x20)\n      swap1\n      dup2\n      add\n      swap1\n      tag_213\n      swap2\n      swap1\n      tag_693\n      jump\t// in\n        /* \"#utility.yul\":14:194   */\n    tag_28:\n        /* \"#utility.yul\":73:79   */\n      0x00\n        /* \"#utility.yul\":126:128   */\n      0x20\n        /* \"#utility.yul\":114:123   */\n      dup3\n        /* \"#utility.yul\":105:112   */\n      dup5\n        /* \"#utility.yul\":101:124   */\n      sub\n        /* \"#utility.yul\":97:129   */\n      slt\n        /* \"#utility.yul\":94:146   */\n      iszero\n      tag_729\n      jumpi\n        /* \"#utility.yul\":142:143   */\n      0x00\n        /* \"#utility.yul\":139:140   */\n      dup1\n        /* \"#utility.yul\":132:144   */\n      revert\n        /* \"#utility.yul\":94:146   */\n    tag_729:\n      pop\n        /* \"#utility.yul\":165:188   */\n      calldataload\n      swap2\n        /* \"#utility.yul\":14:194   */\n      swap1\n      pop\n      jump\t// out\n        /* \"#utility.yul\":199:831   */\n    tag_34:\n        /* \"#utility.yul\":370:372   */\n      0x20\n        /* \"#utility.yul\":422:443   */\n      dup1\n      dup3\n      mstore\n        /* \"#utility.yul\":492:505   */\n      dup3\n      mload\n        /* \"#utility.yul\":395:413   */\n      dup3\n      dup3\n      add\n        /* \"#utility.yul\":514:536   */\n      dup2\n      swap1\n      mstore\n        /* \"#utility.yul\":341:345   */\n      0x00\n      swap2\n        /* \"#utility.yul\":370:372   */\n      swap1\n        /* \"#utility.yul\":593:608   */\n      dup5\n      dup3\n      add\n      swap1\n        /* \"#utility.yul\":567:569   */\n      0x40\n        /* \"#utility.yul\":552:570   */\n      dup6\n      add\n      swap1\n        /* \"#utility.yul\":341:345   */\n      dup5\n        /* \"#utility.yul\":636:805   */\n    tag_731:\n        /* \"#utility.yul\":650:656   */\n      dup2\n        /* \"#utility.yul\":647:648   */\n      dup2\n        /* \"#utility.yul\":644:657   */\n      lt\n        /* \"#utility.yul\":636:805   */\n      iszero\n      tag_733\n      jumpi\n        /* \"#utility.yul\":711:724   */\n      dup4\n      mload\n        /* \"#utility.yul\":699:725   */\n      dup4\n      mstore\n        /* \"#utility.yul\":780:795   */\n      swap3\n      dup5\n      add\n      swap3\n        /* \"#utility.yul\":745:757   */\n      swap2\n      dup5\n      add\n      swap2\n        /* \"#utility.yul\":672:673   */\n      0x01\n        /* \"#utility.yul\":665:674   */\n      add\n        /* \"#utility.yul\":636:805   */\n      jump(tag_731)\n    tag_733:\n      pop\n        /* \"#utility.yul\":822:825   */\n      swap1\n      swap7\n        /* \"#utility.yul\":199:831   */\n      swap6\n      pop\n      pop\n      pop\n      pop\n      pop\n      pop\n      jump\t// out\n        /* \"#utility.yul\":1114:1364   */\n    tag_710:\n        /* \"#utility.yul\":1199:1200   */\n      0x00\n        /* \"#utility.yul\":1209:1322   */\n    tag_737:\n        /* \"#utility.yul\":1223:1229   */\n      dup4\n        /* \"#utility.yul\":1220:1221   */\n      dup2\n        /* \"#utility.yul\":1217:1230   */\n      lt\n        /* \"#utility.yul\":1209:1322   */\n      iszero\n      tag_739\n      jumpi\n        /* \"#utility.yul\":1299:1310   */\n      dup2\n      dup2\n      add\n        /* \"#utility.yul\":1293:1311   */\n      mload\n        /* \"#utility.yul\":1280:1291   */\n      dup4\n      dup3\n      add\n        /* \"#utility.yul\":1273:1312   */\n      mstore\n        /* \"#utility.yul\":1245:1247   */\n      0x20\n        /* \"#utility.yul\":1238:1248   */\n      add\n        /* \"#utility.yul\":1209:1322   */\n      jump(tag_737)\n    tag_739:\n      pop\n      pop\n        /* \"#utility.yul\":1356:1357   */\n      0x00\n        /* \"#utility.yul\":1338:1354   */\n      swap2\n      add\n        /* \"#utility.yul\":1331:1358   */\n      mstore\n        /* \"#utility.yul\":1114:1364   */\n      jump\t// out\n        /* \"#utility.yul\":1369:1640   */\n    tag_711:\n        /* \"#utility.yul\":1411:1414   */\n      0x00\n        /* \"#utility.yul\":1449:1454   */\n      dup2\n        /* \"#utility.yul\":1443:1455   */\n      mload\n        /* \"#utility.yul\":1476:1482   */\n      dup1\n        /* \"#utility.yul\":1471:1474   */\n      dup5\n        /* \"#utility.yul\":1464:1483   */\n      mstore\n        /* \"#utility.yul\":1492:1568   */\n      tag_741\n        /* \"#utility.yul\":1561:1567   */\n      dup2\n        /* \"#utility.yul\":1554:1558   */\n      0x20\n        /* \"#utility.yul\":1549:1552   */\n      dup7\n        /* \"#utility.yul\":1545:1559   */\n      add\n        /* \"#utility.yul\":1538:1542   */\n      0x20\n        /* \"#utility.yul\":1531:1536   */\n      dup7\n        /* \"#utility.yul\":1527:1543   */\n      add\n        /* \"#utility.yul\":1492:1568   */\n      tag_710\n      jump\t// in\n    tag_741:\n        /* \"#utility.yul\":1622:1624   */\n      0x1f\n        /* \"#utility.yul\":1601:1616   */\n      add\n      not(0x1f)\n        /* \"#utility.yul\":1597:1626   */\n      and\n        /* \"#utility.yul\":1588:1627   */\n      swap3\n      swap1\n      swap3\n      add\n        /* \"#utility.yul\":1629:1633   */\n      0x20\n        /* \"#utility.yul\":1584:1634   */\n      add\n      swap3\n        /* \"#utility.yul\":1369:1640   */\n      swap2\n      pop\n      pop\n      jump\t// out\n        /* \"#utility.yul\":1645:2237   */\n    tag_712:\n        /* \"#utility.yul\":1697:1700   */\n      0x00\n        /* \"#utility.yul\":1728:1731   */\n      dup3\n        /* \"#utility.yul\":1760:1765   */\n      dup3\n        /* \"#utility.yul\":1754:1766   */\n      mload\n        /* \"#utility.yul\":1787:1793   */\n      dup1\n        /* \"#utility.yul\":1782:1785   */\n      dup6\n        /* \"#utility.yul\":1775:1794   */\n      mstore\n        /* \"#utility.yul\":1813:1817   */\n      0x20\n        /* \"#utility.yul\":1842:1844   */\n      dup1\n        /* \"#utility.yul\":1837:1840   */\n      dup7\n        /* \"#utility.yul\":1833:1845   */\n      add\n        /* \"#utility.yul\":1826:1845   */\n      swap6\n      pop\n        /* \"#utility.yul\":1898:1900   */\n      dup1\n        /* \"#utility.yul\":1888:1894   */\n      dup3\n        /* \"#utility.yul\":1885:1886   */\n      0x05\n        /* \"#utility.yul\":1881:1895   */\n      shl\n        /* \"#utility.yul\":1874:1879   */\n      dup5\n        /* \"#utility.yul\":1870:1896   */\n      add\n        /* \"#utility.yul\":1866:1901   */\n      add\n        /* \"#utility.yul\":1935:1937   */\n      dup2\n        /* \"#utility.yul\":1928:1933   */\n      dup7\n        /* \"#utility.yul\":1924:1938   */\n      add\n        /* \"#utility.yul\":1956:1957   */\n      0x00\n        /* \"#utility.yul\":1966:2211   */\n    tag_743:\n        /* \"#utility.yul\":1980:1986   */\n      dup5\n        /* \"#utility.yul\":1977:1978   */\n      dup2\n        /* \"#utility.yul\":1974:1987   */\n      lt\n        /* \"#utility.yul\":1966:2211   */\n      iszero\n      tag_745\n      jumpi\n        /* \"#utility.yul\":2067:2069   */\n      0x1f\n        /* \"#utility.yul\":2063:2070   */\n      not\n        /* \"#utility.yul\":2055:2060   */\n      dup7\n        /* \"#utility.yul\":2049:2053   */\n      dup5\n        /* \"#utility.yul\":2045:2061   */\n      sub\n        /* \"#utility.yul\":2041:2071   */\n      add\n        /* \"#utility.yul\":2036:2039   */\n      dup10\n        /* \"#utility.yul\":2029:2072   */\n      mstore\n        /* \"#utility.yul\":2093:2131   */\n      tag_746\n        /* \"#utility.yul\":2126:2130   */\n      dup4\n        /* \"#utility.yul\":2117:2123   */\n      dup4\n        /* \"#utility.yul\":2111:2124   */\n      mload\n        /* \"#utility.yul\":2093:2131   */\n      tag_711\n      jump\t// in\n    tag_746:\n        /* \"#utility.yul\":2189:2201   */\n      swap9\n      dup5\n      add\n      swap9\n        /* \"#utility.yul\":2085:2131   */\n      swap3\n      pop\n        /* \"#utility.yul\":2154:2169   */\n      swap1\n      dup4\n      add\n      swap1\n        /* \"#utility.yul\":2002:2003   */\n      0x01\n        /* \"#utility.yul\":1995:2004   */\n      add\n        /* \"#utility.yul\":1966:2211   */\n      jump(tag_743)\n    tag_745:\n      pop\n        /* \"#utility.yul\":2227:2231   */\n      swap1\n      swap8\n        /* \"#utility.yul\":1645:2237   */\n      swap7\n      pop\n      pop\n      pop\n      pop\n      pop\n      pop\n      pop\n      jump\t// out\n        /* \"#utility.yul\":2242:2677   */\n    tag_713:\n        /* \"#utility.yul\":2295:2298   */\n      0x00\n        /* \"#utility.yul\":2333:2338   */\n      dup2\n        /* \"#utility.yul\":2327:2339   */\n      mload\n        /* \"#utility.yul\":2360:2366   */\n      dup1\n        /* \"#utility.yul\":2355:2358   */\n      dup5\n        /* \"#utility.yul\":2348:2367   */\n      mstore\n        /* \"#utility.yul\":2386:2390   */\n      0x20\n        /* \"#utility.yul\":2415:2417   */\n      dup1\n        /* \"#utility.yul\":2410:2413   */\n      dup6\n        /* \"#utility.yul\":2406:2418   */\n      add\n        /* \"#utility.yul\":2399:2418   */\n      swap5\n      pop\n        /* \"#utility.yul\":2452:2454   */\n      dup1\n        /* \"#utility.yul\":2445:2450   */\n      dup5\n        /* \"#utility.yul\":2441:2455   */\n      add\n        /* \"#utility.yul\":2473:2474   */\n      0x00\n        /* \"#utility.yul\":2483:2652   */\n    tag_748:\n        /* \"#utility.yul\":2497:2503   */\n      dup4\n        /* \"#utility.yul\":2494:2495   */\n      dup2\n        /* \"#utility.yul\":2491:2504   */\n      lt\n        /* \"#utility.yul\":2483:2652   */\n      iszero\n      tag_750\n      jumpi\n        /* \"#utility.yul\":2558:2571   */\n      dup2\n      mload\n        /* \"#utility.yul\":2546:2572   */\n      dup8\n      mstore\n        /* \"#utility.yul\":2592:2604   */\n      swap6\n      dup3\n      add\n      swap6\n        /* \"#utility.yul\":2627:2642   */\n      swap1\n      dup3\n      add\n      swap1\n        /* \"#utility.yul\":2519:2520   */\n      0x01\n        /* \"#utility.yul\":2512:2521   */\n      add\n        /* \"#utility.yul\":2483:2652   */\n      jump(tag_748)\n    tag_750:\n      pop\n        /* \"#utility.yul\":2668:2671   */\n      swap5\n      swap6\n        /* \"#utility.yul\":2242:2677   */\n      swap5\n      pop\n      pop\n      pop\n      pop\n      pop\n      jump\t// out\n        /* \"#utility.yul\":2791:4077   */\n    tag_715:\n        /* \"#utility.yul\":2901:2913   */\n      dup1\n      mload\n        /* \"#utility.yul\":1088:1101   */\n      iszero\n        /* \"#utility.yul\":1081:1102   */\n      iszero\n        /* \"#utility.yul\":1069:1103   */\n      dup3\n      mstore\n        /* \"#utility.yul\":2842:2845   */\n      0x00\n        /* \"#utility.yul\":2870:2876   */\n      0x0160\n        /* \"#utility.yul\":2965:2969   */\n      0x20\n        /* \"#utility.yul\":2958:2963   */\n      dup4\n        /* \"#utility.yul\":2954:2970   */\n      add\n        /* \"#utility.yul\":2948:2971   */\n      mload\n        /* \"#utility.yul\":3003:3005   */\n      dup2\n        /* \"#utility.yul\":2996:3000   */\n      0x20\n        /* \"#utility.yul\":2991:2994   */\n      dup7\n        /* \"#utility.yul\":2987:3001   */\n      add\n        /* \"#utility.yul\":2980:3006   */\n      mstore\n        /* \"#utility.yul\":3027:3072   */\n      tag_754\n        /* \"#utility.yul\":3068:3070   */\n      dup3\n        /* \"#utility.yul\":3063:3066   */\n      dup7\n        /* \"#utility.yul\":3059:3071   */\n      add\n        /* \"#utility.yul\":3045:3057   */\n      dup3\n        /* \"#utility.yul\":3027:3072   */\n      tag_711\n      jump\t// in\n    tag_754:\n        /* \"#utility.yul\":3015:3072   */\n      swap2\n      pop\n      pop\n        /* \"#utility.yul\":3120:3124   */\n      0x40\n        /* \"#utility.yul\":3113:3118   */\n      dup4\n        /* \"#utility.yul\":3109:3125   */\n      add\n        /* \"#utility.yul\":3103:3126   */\n      mload\n        /* \"#utility.yul\":3168:3171   */\n      dup5\n        /* \"#utility.yul\":3162:3166   */\n      dup3\n        /* \"#utility.yul\":3158:3172   */\n      sub\n        /* \"#utility.yul\":3151:3155   */\n      0x40\n        /* \"#utility.yul\":3146:3149   */\n      dup7\n        /* \"#utility.yul\":3142:3156   */\n      add\n        /* \"#utility.yul\":3135:3173   */\n      mstore\n        /* \"#utility.yul\":3196:3245   */\n      tag_755\n        /* \"#utility.yul\":3240:3244   */\n      dup3\n        /* \"#utility.yul\":3224:3238   */\n      dup3\n        /* \"#utility.yul\":3196:3245   */\n      tag_712\n      jump\t// in\n    tag_755:\n        /* \"#utility.yul\":3182:3245   */\n      swap2\n      pop\n      pop\n        /* \"#utility.yul\":3293:3297   */\n      0x60\n        /* \"#utility.yul\":3286:3291   */\n      dup4\n        /* \"#utility.yul\":3282:3298   */\n      add\n        /* \"#utility.yul\":3276:3299   */\n      mload\n        /* \"#utility.yul\":3343:3346   */\n      dup5\n        /* \"#utility.yul\":3335:3341   */\n      dup3\n        /* \"#utility.yul\":3331:3347   */\n      sub\n        /* \"#utility.yul\":3324:3328   */\n      0x60\n        /* \"#utility.yul\":3319:3322   */\n      dup7\n        /* \"#utility.yul\":3315:3329   */\n      add\n        /* \"#utility.yul\":3308:3348   */\n      mstore\n        /* \"#utility.yul\":3371:3423   */\n      tag_756\n        /* \"#utility.yul\":3416:3422   */\n      dup3\n        /* \"#utility.yul\":3400:3414   */\n      dup3\n        /* \"#utility.yul\":3371:3423   */\n      tag_713\n      jump\t// in\n    tag_756:\n        /* \"#utility.yul\":3357:3423   */\n      swap2\n      pop\n      pop\n        /* \"#utility.yul\":3471:3475   */\n      0x80\n        /* \"#utility.yul\":3464:3469   */\n      dup4\n        /* \"#utility.yul\":3460:3476   */\n      add\n        /* \"#utility.yul\":3454:3477   */\n      mload\n        /* \"#utility.yul\":3486:3536   */\n      tag_757\n        /* \"#utility.yul\":3530:3534   */\n      0x80\n        /* \"#utility.yul\":3525:3528   */\n      dup7\n        /* \"#utility.yul\":3521:3535   */\n      add\n        /* \"#utility.yul\":3505:3519   */\n      dup3\n      sub(shl(0xa0, 0x01), 0x01)\n        /* \"#utility.yul\":2748:2779   */\n      and\n        /* \"#utility.yul\":2736:2780   */\n      swap1\n      mstore\n        /* \"#utility.yul\":2682:2786   */\n      jump\n        /* \"#utility.yul\":3486:3536   */\n    tag_757:\n      pop\n        /* \"#utility.yul\":3584:3588   */\n      0xa0\n        /* \"#utility.yul\":3577:3582   */\n      dup4\n        /* \"#utility.yul\":3573:3589   */\n      add\n        /* \"#utility.yul\":3567:3590   */\n      mload\n        /* \"#utility.yul\":3599:3649   */\n      tag_758\n        /* \"#utility.yul\":3643:3647   */\n      0xa0\n        /* \"#utility.yul\":3638:3641   */\n      dup7\n        /* \"#utility.yul\":3634:3648   */\n      add\n        /* \"#utility.yul\":3618:3632   */\n      dup3\n      sub(shl(0xa0, 0x01), 0x01)\n        /* \"#utility.yul\":2748:2779   */\n      and\n        /* \"#utility.yul\":2736:2780   */\n      swap1\n      mstore\n        /* \"#utility.yul\":2682:2786   */\n      jump\n        /* \"#utility.yul\":3599:3649   */\n    tag_758:\n      pop\n        /* \"#utility.yul\":3698:3702   */\n      0xc0\n        /* \"#utility.yul\":3691:3696   */\n      dup4\n        /* \"#utility.yul\":3687:3703   */\n      add\n        /* \"#utility.yul\":3681:3704   */\n      mload\n        /* \"#utility.yul\":3674:3678   */\n      0xc0\n        /* \"#utility.yul\":3669:3672   */\n      dup6\n        /* \"#utility.yul\":3665:3679   */\n      add\n        /* \"#utility.yul\":3658:3705   */\n      mstore\n        /* \"#utility.yul\":3753:3757   */\n      0xe0\n        /* \"#utility.yul\":3746:3751   */\n      dup4\n        /* \"#utility.yul\":3742:3758   */\n      add\n        /* \"#utility.yul\":3736:3759   */\n      mload\n        /* \"#utility.yul\":3768:3818   */\n      tag_759\n        /* \"#utility.yul\":3812:3816   */\n      0xe0\n        /* \"#utility.yul\":3807:3810   */\n      dup7\n        /* \"#utility.yul\":3803:3817   */\n      add\n        /* \"#utility.yul\":3787:3801   */\n      dup3\n      sub(shl(0xa0, 0x01), 0x01)\n        /* \"#utility.yul\":2748:2779   */\n      and\n        /* \"#utility.yul\":2736:2780   */\n      swap1\n      mstore\n        /* \"#utility.yul\":2682:2786   */\n      jump\n        /* \"#utility.yul\":3768:3818   */\n    tag_759:\n      pop\n        /* \"#utility.yul\":3837:3843   */\n      0x0100\n        /* \"#utility.yul\":3879:3893   */\n      dup4\n      dup2\n      add\n        /* \"#utility.yul\":3873:3894   */\n      mload\n        /* \"#utility.yul\":3859:3871   */\n      swap1\n      dup6\n      add\n        /* \"#utility.yul\":3852:3895   */\n      mstore\n        /* \"#utility.yul\":3914:3920   */\n      0x0120\n        /* \"#utility.yul\":3956:3970   */\n      dup1\n      dup5\n      add\n        /* \"#utility.yul\":3950:3971   */\n      mload\n        /* \"#utility.yul\":3936:3948   */\n      swap1\n      dup6\n      add\n        /* \"#utility.yul\":3929:3972   */\n      mstore\n        /* \"#utility.yul\":3991:3997   */\n      0x0140\n        /* \"#utility.yul\":4033:4047   */\n      swap3\n      dup4\n      add\n        /* \"#utility.yul\":4027:4048   */\n      mload\n        /* \"#utility.yul\":4013:4025   */\n      swap3\n      swap1\n      swap4\n      add\n        /* \"#utility.yul\":4006:4049   */\n      swap2\n      swap1\n      swap2\n      mstore\n      pop\n        /* \"#utility.yul\":4065:4071   */\n      swap1\n        /* \"#utility.yul\":2791:4077   */\n      jump\t// out\n        /* \"#utility.yul\":4082:4924   */\n    tag_45:\n        /* \"#utility.yul\":4274:4278   */\n      0x00\n        /* \"#utility.yul\":4303:4305   */\n      0x20\n        /* \"#utility.yul\":4343:4345   */\n      dup1\n        /* \"#utility.yul\":4332:4341   */\n      dup4\n        /* \"#utility.yul\":4328:4346   */\n      add\n        /* \"#utility.yul\":4373:4375   */\n      dup2\n        /* \"#utility.yul\":4362:4371   */\n      dup5\n        /* \"#utility.yul\":4355:4376   */\n      mstore\n        /* \"#utility.yul\":4396:4402   */\n      dup1\n        /* \"#utility.yul\":4431:4437   */\n      dup6\n        /* \"#utility.yul\":4425:4438   */\n      mload\n        /* \"#utility.yul\":4462:4468   */\n      dup1\n        /* \"#utility.yul\":4454:4460   */\n      dup4\n        /* \"#utility.yul\":4447:4469   */\n      mstore\n        /* \"#utility.yul\":4500:4502   */\n      0x40\n        /* \"#utility.yul\":4489:4498   */\n      dup7\n        /* \"#utility.yul\":4485:4503   */\n      add\n        /* \"#utility.yul\":4478:4503   */\n      swap2\n      pop\n        /* \"#utility.yul\":4562:4564   */\n      0x40\n        /* \"#utility.yul\":4552:4558   */\n      dup2\n        /* \"#utility.yul\":4549:4550   */\n      0x05\n        /* \"#utility.yul\":4545:4559   */\n      shl\n        /* \"#utility.yul\":4534:4543   */\n      dup8\n        /* \"#utility.yul\":4530:4560   */\n      add\n        /* \"#utility.yul\":4526:4565   */\n      add\n        /* \"#utility.yul\":4512:4565   */\n      swap3\n      pop\n        /* \"#utility.yul\":4600:4602   */\n      dup4\n        /* \"#utility.yul\":4592:4598   */\n      dup8\n        /* \"#utility.yul\":4588:4603   */\n      add\n        /* \"#utility.yul\":4621:4622   */\n      0x00\n        /* \"#utility.yul\":4631:4895   */\n    tag_761:\n        /* \"#utility.yul\":4645:4651   */\n      dup3\n        /* \"#utility.yul\":4642:4643   */\n      dup2\n        /* \"#utility.yul\":4639:4652   */\n      lt\n        /* \"#utility.yul\":4631:4895   */\n      iszero\n      tag_763\n      jumpi\n        /* \"#utility.yul\":4738:4740   */\n      0x3f\n        /* \"#utility.yul\":4734:4741   */\n      not\n        /* \"#utility.yul\":4722:4731   */\n      dup9\n        /* \"#utility.yul\":4714:4720   */\n      dup7\n        /* \"#utility.yul\":4710:4732   */\n      sub\n        /* \"#utility.yul\":4706:4742   */\n      add\n        /* \"#utility.yul\":4701:4704   */\n      dup5\n        /* \"#utility.yul\":4694:4743   */\n      mstore\n        /* \"#utility.yul\":4766:4815   */\n      tag_764\n        /* \"#utility.yul\":4808:4814   */\n      dup6\n        /* \"#utility.yul\":4799:4805   */\n      dup4\n        /* \"#utility.yul\":4793:4806   */\n      mload\n        /* \"#utility.yul\":4766:4815   */\n      tag_715\n      jump\t// in\n    tag_764:\n        /* \"#utility.yul\":4756:4815   */\n      swap5\n      pop\n        /* \"#utility.yul\":4873:4885   */\n      swap3\n      dup6\n      add\n      swap3\n        /* \"#utility.yul\":4838:4853   */\n      swap1\n      dup6\n      add\n      swap1\n        /* \"#utility.yul\":4667:4668   */\n      0x01\n        /* \"#utility.yul\":4660:4669   */\n      add\n        /* \"#utility.yul\":4631:4895   */\n      jump(tag_761)\n    tag_763:\n      pop\n        /* \"#utility.yul\":4912:4918   */\n      swap3\n      swap8\n        /* \"#utility.yul\":4082:4924   */\n      swap7\n      pop\n      pop\n      pop\n      pop\n      pop\n      pop\n      pop\n      jump\t// out\n        /* \"#utility.yul\":4929:5177   */\n    tag_51:\n        /* \"#utility.yul\":4997:5003   */\n      0x00\n        /* \"#utility.yul\":5005:5011   */\n      dup1\n        /* \"#utility.yul\":5058:5060   */\n      0x40\n        /* \"#utility.yul\":5046:5055   */\n      dup4\n        /* \"#utility.yul\":5037:5044   */\n      dup6\n        /* \"#utility.yul\":5033:5056   */\n      sub\n        /* \"#utility.yul\":5029:5061   */\n      slt\n        /* \"#utility.yul\":5026:5078   */\n      iszero\n      tag_766\n      jumpi\n        /* \"#utility.yul\":5074:5075   */\n      0x00\n        /* \"#utility.yul\":5071:5072   */\n      dup1\n        /* \"#utility.yul\":5064:5076   */\n      revert\n        /* \"#utility.yul\":5026:5078   */\n    tag_766:\n      pop\n      pop\n        /* \"#utility.yul\":5097:5120   */\n      dup1\n      calldataload\n      swap3\n        /* \"#utility.yul\":5167:5169   */\n      0x20\n        /* \"#utility.yul\":5152:5170   */\n      swap1\n      swap2\n      add\n        /* \"#utility.yul\":5139:5171   */\n      calldataload\n      swap2\n      pop\n        /* \"#utility.yul\":4929:5177   */\n      jump\t// out\n        /* \"#utility.yul\":5611:6501   */\n    tag_65:\n        /* \"#utility.yul\":5941:5945   */\n      0x00\n        /* \"#utility.yul\":5970:5973   */\n      0x0120\n        /* \"#utility.yul\":6014:6020   */\n      dup12\n        /* \"#utility.yul\":6007:6021   */\n      iszero\n        /* \"#utility.yul\":6000:6022   */\n      iszero\n        /* \"#utility.yul\":5989:5998   */\n      dup4\n        /* \"#utility.yul\":5982:6023   */\n      mstore\n        /* \"#utility.yul\":6059:6061   */\n      dup1\n        /* \"#utility.yul\":6054:6056   */\n      0x20\n        /* \"#utility.yul\":6043:6052   */\n      dup5\n        /* \"#utility.yul\":6039:6057   */\n      add\n        /* \"#utility.yul\":6032:6062   */\n      mstore\n        /* \"#utility.yul\":6079:6124   */\n      tag_770\n        /* \"#utility.yul\":6120:6122   */\n      dup2\n        /* \"#utility.yul\":6109:6118   */\n      dup5\n        /* \"#utility.yul\":6105:6123   */\n      add\n        /* \"#utility.yul\":6097:6103   */\n      dup13\n        /* \"#utility.yul\":6079:6124   */\n      tag_711\n      jump\t// in\n    tag_770:\n      sub(shl(0xa0, 0x01), 0x01)\n        /* \"#utility.yul\":6198:6213   */\n      swap11\n      dup12\n      and\n        /* \"#utility.yul\":6193:6195   */\n      0x40\n        /* \"#utility.yul\":6178:6196   */\n      dup6\n      add\n        /* \"#utility.yul\":6171:6214   */\n      mstore\n        /* \"#utility.yul\":6250:6265   */\n      swap9\n      dup11\n      and\n        /* \"#utility.yul\":6245:6247   */\n      0x60\n        /* \"#utility.yul\":6230:6248   */\n      dup5\n      add\n        /* \"#utility.yul\":6223:6266   */\n      mstore\n      pop\n      pop\n        /* \"#utility.yul\":6297:6300   */\n      0x80\n        /* \"#utility.yul\":6282:6301   */\n      dup2\n      add\n        /* \"#utility.yul\":6275:6310   */\n      swap6\n      swap1\n      swap6\n      mstore\n        /* \"#utility.yul\":6347:6362   */\n      swap3\n      swap1\n      swap6\n      and\n        /* \"#utility.yul\":6151:6154   */\n      0xa0\n        /* \"#utility.yul\":6326:6345   */\n      dup5\n      add\n        /* \"#utility.yul\":6319:6363   */\n      mstore\n        /* \"#utility.yul\":6394:6397   */\n      0xc0\n        /* \"#utility.yul\":6379:6398   */\n      dup4\n      add\n        /* \"#utility.yul\":6372:6407   */\n      mstore\n        /* \"#utility.yul\":6438:6441   */\n      0xe0\n        /* \"#utility.yul\":6423:6442   */\n      dup3\n      add\n        /* \"#utility.yul\":6416:6451   */\n      swap4\n      swap1\n      swap4\n      mstore\n        /* \"#utility.yul\":6482:6485   */\n      0x0100\n        /* \"#utility.yul\":6467:6486   */\n      add\n        /* \"#utility.yul\":6460:6495   */\n      swap2\n      swap1\n      swap2\n      mstore\n        /* \"#utility.yul\":6071:6124   */\n      swap3\n        /* \"#utility.yul\":5611:6501   */\n      swap2\n      pop\n      pop\n      jump\t// out\n        /* \"#utility.yul\":6506:6765   */\n    tag_75:\n        /* \"#utility.yul\":6685:6687   */\n      0x20\n        /* \"#utility.yul\":6674:6683   */\n      dup2\n        /* \"#utility.yul\":6667:6688   */\n      mstore\n        /* \"#utility.yul\":6648:6652   */\n      0x00\n        /* \"#utility.yul\":6705:6759   */\n      tag_772\n        /* \"#utility.yul\":6755:6757   */\n      0x20\n        /* \"#utility.yul\":6744:6753   */\n      dup4\n        /* \"#utility.yul\":6740:6758   */\n      add\n        /* \"#utility.yul\":6732:6738   */\n      dup5\n        /* \"#utility.yul\":6705:6759   */\n      tag_715\n      jump\t// in\n    tag_772:\n        /* \"#utility.yul\":6697:6759   */\n      swap4\n        /* \"#utility.yul\":6506:6765   */\n      swap3\n      pop\n      pop\n      pop\n      jump\t// out\n        /* \"#utility.yul\":6770:6897   */\n    tag_716:\n        /* \"#utility.yul\":6831:6841   */\n      0x4e487b71\n        /* \"#utility.yul\":6826:6829   */\n      0xe0\n        /* \"#utility.yul\":6822:6842   */\n      shl\n        /* \"#utility.yul\":6819:6820   */\n      0x00\n        /* \"#utility.yul\":6812:6843   */\n      mstore\n        /* \"#utility.yul\":6862:6866   */\n      0x41\n        /* \"#utility.yul\":6859:6860   */\n      0x04\n        /* \"#utility.yul\":6852:6867   */\n      mstore\n        /* \"#utility.yul\":6886:6890   */\n      0x24\n        /* \"#utility.yul\":6883:6884   */\n      0x00\n        /* \"#utility.yul\":6876:6891   */\n      revert\n        /* \"#utility.yul\":6902:7621   */\n    tag_717:\n        /* \"#utility.yul\":6945:6950   */\n      0x00\n        /* \"#utility.yul\":6998:7001   */\n      dup3\n        /* \"#utility.yul\":6991:6995   */\n      0x1f\n        /* \"#utility.yul\":6983:6989   */\n      dup4\n        /* \"#utility.yul\":6979:6996   */\n      add\n        /* \"#utility.yul\":6975:7002   */\n      slt\n        /* \"#utility.yul\":6965:7020   */\n      tag_775\n      jumpi\n        /* \"#utility.yul\":7016:7017   */\n      0x00\n        /* \"#utility.yul\":7013:7014   */\n      dup1\n        /* \"#utility.yul\":7006:7018   */\n      revert\n        /* \"#utility.yul\":6965:7020   */\n    tag_775:\n        /* \"#utility.yul\":7052:7058   */\n      dup2\n        /* \"#utility.yul\":7039:7059   */\n      calldataload\n        /* \"#utility.yul\":7078:7096   */\n      0xffffffffffffffff\n        /* \"#utility.yul\":7115:7117   */\n      dup1\n        /* \"#utility.yul\":7111:7113   */\n      dup3\n        /* \"#utility.yul\":7108:7118   */\n      gt\n        /* \"#utility.yul\":7105:7141   */\n      iszero\n      tag_777\n      jumpi\n        /* \"#utility.yul\":7121:7139   */\n      tag_777\n      tag_716\n      jump\t// in\n    tag_777:\n        /* \"#utility.yul\":7196:7198   */\n      0x40\n        /* \"#utility.yul\":7190:7199   */\n      mload\n        /* \"#utility.yul\":7164:7166   */\n      0x1f\n        /* \"#utility.yul\":7250:7263   */\n      dup4\n      add\n      not(0x1f)\n        /* \"#utility.yul\":7246:7268   */\n      swap1\n      dup2\n      and\n        /* \"#utility.yul\":7270:7272   */\n      0x3f\n        /* \"#utility.yul\":7242:7273   */\n      add\n        /* \"#utility.yul\":7238:7278   */\n      and\n        /* \"#utility.yul\":7226:7279   */\n      dup2\n      add\n      swap1\n        /* \"#utility.yul\":7294:7312   */\n      dup3\n      dup3\n      gt\n        /* \"#utility.yul\":7314:7336   */\n      dup2\n      dup4\n      lt\n        /* \"#utility.yul\":7291:7337   */\n      or\n        /* \"#utility.yul\":7288:7360   */\n      iszero\n      tag_779\n      jumpi\n        /* \"#utility.yul\":7340:7358   */\n      tag_779\n      tag_716\n      jump\t// in\n    tag_779:\n        /* \"#utility.yul\":7380:7390   */\n      dup2\n        /* \"#utility.yul\":7376:7378   */\n      0x40\n        /* \"#utility.yul\":7369:7391   */\n      mstore\n        /* \"#utility.yul\":7415:7417   */\n      dup4\n        /* \"#utility.yul\":7407:7413   */\n      dup2\n        /* \"#utility.yul\":7400:7418   */\n      mstore\n        /* \"#utility.yul\":7461:7464   */\n      dup7\n        /* \"#utility.yul\":7454:7458   */\n      0x20\n        /* \"#utility.yul\":7449:7451   */\n      dup6\n        /* \"#utility.yul\":7441:7447   */\n      dup9\n        /* \"#utility.yul\":7437:7452   */\n      add\n        /* \"#utility.yul\":7433:7459   */\n      add\n        /* \"#utility.yul\":7430:7465   */\n      gt\n        /* \"#utility.yul\":7427:7482   */\n      iszero\n      tag_780\n      jumpi\n        /* \"#utility.yul\":7478:7479   */\n      0x00\n        /* \"#utility.yul\":7475:7476   */\n      dup1\n        /* \"#utility.yul\":7468:7480   */\n      revert\n        /* \"#utility.yul\":7427:7482   */\n    tag_780:\n        /* \"#utility.yul\":7542:7544   */\n      dup4\n        /* \"#utility.yul\":7535:7539   */\n      0x20\n        /* \"#utility.yul\":7527:7533   */\n      dup8\n        /* \"#utility.yul\":7523:7540   */\n      add\n        /* \"#utility.yul\":7516:7520   */\n      0x20\n        /* \"#utility.yul\":7508:7514   */\n      dup4\n        /* \"#utility.yul\":7504:7521   */\n      add\n        /* \"#utility.yul\":7491:7545   */\n      calldatacopy\n        /* \"#utility.yul\":7589:7590   */\n      0x00\n        /* \"#utility.yul\":7582:7586   */\n      0x20\n        /* \"#utility.yul\":7577:7579   */\n      dup6\n        /* \"#utility.yul\":7569:7575   */\n      dup4\n        /* \"#utility.yul\":7565:7580   */\n      add\n        /* \"#utility.yul\":7561:7587   */\n      add\n        /* \"#utility.yul\":7554:7591   */\n      mstore\n        /* \"#utility.yul\":7609:7615   */\n      dup1\n        /* \"#utility.yul\":7600:7615   */\n      swap5\n      pop\n      pop\n      pop\n      pop\n      pop\n        /* \"#utility.yul\":6902:7621   */\n      swap3\n      swap2\n      pop\n      pop\n      jump\t// out\n        /* \"#utility.yul\":7626:8169   */\n    tag_81:\n        /* \"#utility.yul\":7714:7720   */\n      0x00\n        /* \"#utility.yul\":7722:7728   */\n      dup1\n        /* \"#utility.yul\":7775:7777   */\n      0x40\n        /* \"#utility.yul\":7763:7772   */\n      dup4\n        /* \"#utility.yul\":7754:7761   */\n      dup6\n        /* \"#utility.yul\":7750:7773   */\n      sub\n        /* \"#utility.yul\":7746:7778   */\n      slt\n        /* \"#utility.yul\":7743:7795   */\n      iszero\n      tag_782\n      jumpi\n        /* \"#utility.yul\":7791:7792   */\n      0x00\n        /* \"#utility.yul\":7788:7789   */\n      dup1\n        /* \"#utility.yul\":7781:7793   */\n      revert\n        /* \"#utility.yul\":7743:7795   */\n    tag_782:\n        /* \"#utility.yul\":7831:7840   */\n      dup3\n        /* \"#utility.yul\":7818:7841   */\n      calldataload\n        /* \"#utility.yul\":7860:7878   */\n      0xffffffffffffffff\n        /* \"#utility.yul\":7901:7903   */\n      dup1\n        /* \"#utility.yul\":7893:7899   */\n      dup3\n        /* \"#utility.yul\":7890:7904   */\n      gt\n        /* \"#utility.yul\":7887:7921   */\n      iszero\n      tag_783\n      jumpi\n        /* \"#utility.yul\":7917:7918   */\n      0x00\n        /* \"#utility.yul\":7914:7915   */\n      dup1\n        /* \"#utility.yul\":7907:7919   */\n      revert\n        /* \"#utility.yul\":7887:7921   */\n    tag_783:\n        /* \"#utility.yul\":7940:7990   */\n      tag_784\n        /* \"#utility.yul\":7982:7989   */\n      dup7\n        /* \"#utility.yul\":7973:7979   */\n      dup4\n        /* \"#utility.yul\":7962:7971   */\n      dup8\n        /* \"#utility.yul\":7958:7980   */\n      add\n        /* \"#utility.yul\":7940:7990   */\n      tag_717\n      jump\t// in\n    tag_784:\n        /* \"#utility.yul\":7930:7990   */\n      swap4\n      pop\n        /* \"#utility.yul\":8043:8045   */\n      0x20\n        /* \"#utility.yul\":8032:8041   */\n      dup6\n        /* \"#utility.yul\":8028:8046   */\n      add\n        /* \"#utility.yul\":8015:8047   */\n      calldataload\n        /* \"#utility.yul\":7999:8047   */\n      swap2\n      pop\n        /* \"#utility.yul\":8072:8074   */\n      dup1\n        /* \"#utility.yul\":8062:8070   */\n      dup3\n        /* \"#utility.yul\":8059:8075   */\n      gt\n        /* \"#utility.yul\":8056:8092   */\n      iszero\n      tag_785\n      jumpi\n        /* \"#utility.yul\":8088:8089   */\n      0x00\n        /* \"#utility.yul\":8085:8086   */\n      dup1\n        /* \"#utility.yul\":8078:8090   */\n      revert\n        /* \"#utility.yul\":8056:8092   */\n    tag_785:\n      pop\n        /* \"#utility.yul\":8111:8163   */\n      tag_786\n        /* \"#utility.yul\":8155:8162   */\n      dup6\n        /* \"#utility.yul\":8144:8152   */\n      dup3\n        /* \"#utility.yul\":8133:8142   */\n      dup7\n        /* \"#utility.yul\":8129:8153   */\n      add\n        /* \"#utility.yul\":8111:8163   */\n      tag_717\n      jump\t// in\n    tag_786:\n        /* \"#utility.yul\":8101:8163   */\n      swap2\n      pop\n      pop\n        /* \"#utility.yul\":7626:8169   */\n      swap3\n      pop\n      swap3\n      swap1\n      pop\n      jump\t// out\n        /* \"#utility.yul\":8366:9169   */\n    tag_92:\n        /* \"#utility.yul\":8528:8532   */\n      0x00\n        /* \"#utility.yul\":8557:8559   */\n      0x20\n        /* \"#utility.yul\":8597:8599   */\n      dup1\n        /* \"#utility.yul\":8586:8595   */\n      dup4\n        /* \"#utility.yul\":8582:8600   */\n      add\n        /* \"#utility.yul\":8627:8629   */\n      dup2\n        /* \"#utility.yul\":8616:8625   */\n      dup5\n        /* \"#utility.yul\":8609:8630   */\n      mstore\n        /* \"#utility.yul\":8650:8656   */\n      dup1\n        /* \"#utility.yul\":8685:8691   */\n      dup6\n        /* \"#utility.yul\":8679:8692   */\n      mload\n        /* \"#utility.yul\":8716:8722   */\n      dup1\n        /* \"#utility.yul\":8708:8714   */\n      dup4\n        /* \"#utility.yul\":8701:8723   */\n      mstore\n        /* \"#utility.yul\":8754:8756   */\n      0x40\n        /* \"#utility.yul\":8743:8752   */\n      dup7\n        /* \"#utility.yul\":8739:8757   */\n      add\n        /* \"#utility.yul\":8732:8757   */\n      swap2\n      pop\n        /* \"#utility.yul\":8816:8818   */\n      0x40\n        /* \"#utility.yul\":8806:8812   */\n      dup2\n        /* \"#utility.yul\":8803:8804   */\n      0x05\n        /* \"#utility.yul\":8799:8813   */\n      shl\n        /* \"#utility.yul\":8788:8797   */\n      dup8\n        /* \"#utility.yul\":8784:8814   */\n      add\n        /* \"#utility.yul\":8780:8819   */\n      add\n        /* \"#utility.yul\":8766:8819   */\n      swap3\n      pop\n        /* \"#utility.yul\":8854:8856   */\n      dup4\n        /* \"#utility.yul\":8846:8852   */\n      dup8\n        /* \"#utility.yul\":8842:8857   */\n      add\n        /* \"#utility.yul\":8875:8876   */\n      0x00\n        /* \"#utility.yul\":8885:9140   */\n    tag_789:\n        /* \"#utility.yul\":8899:8905   */\n      dup3\n        /* \"#utility.yul\":8896:8897   */\n      dup2\n        /* \"#utility.yul\":8893:8906   */\n      lt\n        /* \"#utility.yul\":8885:9140   */\n      iszero\n      tag_763\n      jumpi\n        /* \"#utility.yul\":8992:8994   */\n      0x3f\n        /* \"#utility.yul\":8988:8995   */\n      not\n        /* \"#utility.yul\":8976:8985   */\n      dup9\n        /* \"#utility.yul\":8968:8974   */\n      dup7\n        /* \"#utility.yul\":8964:8986   */\n      sub\n        /* \"#utility.yul\":8960:8996   */\n      add\n        /* \"#utility.yul\":8955:8958   */\n      dup5\n        /* \"#utility.yul\":8948:8997   */\n      mstore\n        /* \"#utility.yul\":9020:9060   */\n      tag_792\n        /* \"#utility.yul\":9053:9059   */\n      dup6\n        /* \"#utility.yul\":9044:9050   */\n      dup4\n        /* \"#utility.yul\":9038:9051   */\n      mload\n        /* \"#utility.yul\":9020:9060   */\n      tag_711\n      jump\t// in\n    tag_792:\n        /* \"#utility.yul\":9010:9060   */\n      swap5\n      pop\n        /* \"#utility.yul\":9118:9130   */\n      swap3\n      dup6\n      add\n      swap3\n        /* \"#utility.yul\":9083:9098   */\n      swap1\n      dup6\n      add\n      swap1\n        /* \"#utility.yul\":8921:8922   */\n      0x01\n        /* \"#utility.yul\":8914:8923   */\n      add\n        /* \"#utility.yul\":8885:9140   */\n      jump(tag_789)\n        /* \"#utility.yul\":9524:9708   */\n    tag_110:\n        /* \"#utility.yul\":9594:9600   */\n      0x00\n        /* \"#utility.yul\":9647:9649   */\n      0x20\n        /* \"#utility.yul\":9635:9644   */\n      dup3\n        /* \"#utility.yul\":9626:9633   */\n      dup5\n        /* \"#utility.yul\":9622:9645   */\n      sub\n        /* \"#utility.yul\":9618:9650   */\n      slt\n        /* \"#utility.yul\":9615:9667   */\n      iszero\n      tag_795\n      jumpi\n        /* \"#utility.yul\":9663:9664   */\n      0x00\n        /* \"#utility.yul\":9660:9661   */\n      dup1\n        /* \"#utility.yul\":9653:9665   */\n      revert\n        /* \"#utility.yul\":9615:9667   */\n    tag_795:\n      pop\n        /* \"#utility.yul\":9686:9702   */\n      mload\n      swap2\n        /* \"#utility.yul\":9524:9708   */\n      swap1\n      pop\n      jump\t// out\n        /* \"#utility.yul\":10694:10971   */\n    tag_122:\n        /* \"#utility.yul\":10761:10767   */\n      0x00\n        /* \"#utility.yul\":10814:10816   */\n      0x20\n        /* \"#utility.yul\":10802:10811   */\n      dup3\n        /* \"#utility.yul\":10793:10800   */\n      dup5\n        /* \"#utility.yul\":10789:10812   */\n      sub\n        /* \"#utility.yul\":10785:10817   */\n      slt\n        /* \"#utility.yul\":10782:10834   */\n      iszero\n      tag_800\n      jumpi\n        /* \"#utility.yul\":10830:10831   */\n      0x00\n        /* \"#utility.yul\":10827:10828   */\n      dup1\n        /* \"#utility.yul\":10820:10832   */\n      revert\n        /* \"#utility.yul\":10782:10834   */\n    tag_800:\n        /* \"#utility.yul\":10862:10871   */\n      dup2\n        /* \"#utility.yul\":10856:10872   */\n      mload\n        /* \"#utility.yul\":10915:10920   */\n      dup1\n        /* \"#utility.yul\":10908:10921   */\n      iszero\n        /* \"#utility.yul\":10901:10922   */\n      iszero\n        /* \"#utility.yul\":10894:10899   */\n      dup2\n        /* \"#utility.yul\":10891:10923   */\n      eq\n        /* \"#utility.yul\":10881:10941   */\n      tag_772\n      jumpi\n        /* \"#utility.yul\":10937:10938   */\n      0x00\n        /* \"#utility.yul\":10934:10935   */\n      dup1\n        /* \"#utility.yul\":10927:10939   */\n      revert\n        /* \"#utility.yul\":10976:11103   */\n    tag_718:\n        /* \"#utility.yul\":11037:11047   */\n      0x4e487b71\n        /* \"#utility.yul\":11032:11035   */\n      0xe0\n        /* \"#utility.yul\":11028:11048   */\n      shl\n        /* \"#utility.yul\":11025:11026   */\n      0x00\n        /* \"#utility.yul\":11018:11049   */\n      mstore\n        /* \"#utility.yul\":11068:11072   */\n      0x11\n        /* \"#utility.yul\":11065:11066   */\n      0x04\n        /* \"#utility.yul\":11058:11073   */\n      mstore\n        /* \"#utility.yul\":11092:11096   */\n      0x24\n        /* \"#utility.yul\":11089:11090   */\n      0x00\n        /* \"#utility.yul\":11082:11097   */\n      revert\n        /* \"#utility.yul\":11108:11276   */\n    tag_124:\n        /* \"#utility.yul\":11181:11190   */\n      dup1\n      dup3\n      mul\n        /* \"#utility.yul\":11212:11221   */\n      dup2\n      iszero\n        /* \"#utility.yul\":11229:11244   */\n      dup3\n      dup3\n      div\n        /* \"#utility.yul\":11223:11245   */\n      dup5\n      eq\n        /* \"#utility.yul\":11209:11246   */\n      or\n        /* \"#utility.yul\":11199:11270   */\n      tag_443\n      jumpi\n        /* \"#utility.yul\":11250:11268   */\n      tag_443\n      tag_718\n      jump\t// in\n        /* \"#utility.yul\":11281:11498   */\n    tag_126:\n        /* \"#utility.yul\":11321:11322   */\n      0x00\n        /* \"#utility.yul\":11347:11348   */\n      dup3\n        /* \"#utility.yul\":11337:11469   */\n      tag_807\n      jumpi\n        /* \"#utility.yul\":11391:11401   */\n      0x4e487b71\n        /* \"#utility.yul\":11386:11389   */\n      0xe0\n        /* \"#utility.yul\":11382:11402   */\n      shl\n        /* \"#utility.yul\":11379:11380   */\n      0x00\n        /* \"#utility.yul\":11372:11403   */\n      mstore\n        /* \"#utility.yul\":11426:11430   */\n      0x12\n        /* \"#utility.yul\":11423:11424   */\n      0x04\n        /* \"#utility.yul\":11416:11431   */\n      mstore\n        /* \"#utility.yul\":11454:11458   */\n      0x24\n        /* \"#utility.yul\":11451:11452   */\n      0x00\n        /* \"#utility.yul\":11444:11459   */\n      revert\n        /* \"#utility.yul\":11337:11469   */\n    tag_807:\n      pop\n        /* \"#utility.yul\":11483:11492   */\n      div\n      swap1\n        /* \"#utility.yul\":11281:11498   */\n      jump\t// out\n        /* \"#utility.yul\":11503:11631   */\n    tag_130:\n        /* \"#utility.yul\":11570:11579   */\n      dup2\n      dup2\n      sub\n        /* \"#utility.yul\":11591:11602   */\n      dup2\n      dup2\n      gt\n        /* \"#utility.yul\":11588:11625   */\n      iszero\n      tag_443\n      jumpi\n        /* \"#utility.yul\":11605:11623   */\n      tag_443\n      tag_718\n      jump\t// in\n        /* \"#utility.yul\":11636:12011   */\n    tag_133:\n      sub(shl(0xa0, 0x01), 0x01)\n        /* \"#utility.yul\":11894:11909   */\n      swap4\n      dup5\n      and\n        /* \"#utility.yul\":11876:11910   */\n      dup2\n      mstore\n        /* \"#utility.yul\":11946:11961   */\n      swap2\n      swap1\n      swap3\n      and\n        /* \"#utility.yul\":11941:11943   */\n      0x20\n        /* \"#utility.yul\":11926:11944   */\n      dup3\n      add\n        /* \"#utility.yul\":11919:11962   */\n      mstore\n        /* \"#utility.yul\":11993:11995   */\n      0x40\n        /* \"#utility.yul\":11978:11996   */\n      dup2\n      add\n        /* \"#utility.yul\":11971:12005   */\n      swap2\n      swap1\n      swap2\n      mstore\n        /* \"#utility.yul\":11826:11828   */\n      0x60\n        /* \"#utility.yul\":11811:11829   */\n      add\n      swap1\n        /* \"#utility.yul\":11636:12011   */\n      jump\t// out\n        /* \"#utility.yul\":12016:12141   */\n    tag_146:\n        /* \"#utility.yul\":12081:12090   */\n      dup1\n      dup3\n      add\n        /* \"#utility.yul\":12102:12112   */\n      dup1\n      dup3\n      gt\n        /* \"#utility.yul\":12099:12135   */\n      iszero\n      tag_443\n      jumpi\n        /* \"#utility.yul\":12115:12133   */\n      tag_443\n      tag_718\n      jump\t// in\n        /* \"#utility.yul\":12146:12526   */\n    tag_219:\n        /* \"#utility.yul\":12225:12226   */\n      0x01\n        /* \"#utility.yul\":12221:12233   */\n      dup2\n      dup2\n      shr\n      swap1\n        /* \"#utility.yul\":12268:12280   */\n      dup3\n      and\n      dup1\n        /* \"#utility.yul\":12289:12350   */\n      tag_816\n      jumpi\n        /* \"#utility.yul\":12343:12347   */\n      0x7f\n        /* \"#utility.yul\":12335:12341   */\n      dup3\n        /* \"#utility.yul\":12331:12348   */\n      and\n        /* \"#utility.yul\":12321:12348   */\n      swap2\n      pop\n        /* \"#utility.yul\":12289:12350   */\n    tag_816:\n        /* \"#utility.yul\":12396:12398   */\n      0x20\n        /* \"#utility.yul\":12388:12394   */\n      dup3\n        /* \"#utility.yul\":12385:12399   */\n      lt\n        /* \"#utility.yul\":12365:12383   */\n      dup2\n        /* \"#utility.yul\":12362:12400   */\n      sub\n        /* \"#utility.yul\":12359:12520   */\n      tag_817\n      jumpi\n        /* \"#utility.yul\":12442:12452   */\n      0x4e487b71\n        /* \"#utility.yul\":12437:12440   */\n      0xe0\n        /* \"#utility.yul\":12433:12453   */\n      shl\n        /* \"#utility.yul\":12430:12431   */\n      0x00\n        /* \"#utility.yul\":12423:12454   */\n      mstore\n        /* \"#utility.yul\":12477:12481   */\n      0x22\n        /* \"#utility.yul\":12474:12475   */\n      0x04\n        /* \"#utility.yul\":12467:12482   */\n      mstore\n        /* \"#utility.yul\":12505:12509   */\n      0x24\n        /* \"#utility.yul\":12502:12503   */\n      0x00\n        /* \"#utility.yul\":12495:12510   */\n      revert\n        /* \"#utility.yul\":12359:12520   */\n    tag_817:\n      pop\n        /* \"#utility.yul\":12146:12526   */\n      swap2\n      swap1\n      pop\n      jump\t// out\n        /* \"#utility.yul\":12657:13202   */\n    tag_720:\n        /* \"#utility.yul\":12759:12761   */\n      0x1f\n        /* \"#utility.yul\":12754:12757   */\n      dup3\n        /* \"#utility.yul\":12751:12762   */\n      gt\n        /* \"#utility.yul\":12748:13196   */\n      iszero\n      tag_820\n      jumpi\n        /* \"#utility.yul\":12795:12796   */\n      0x00\n        /* \"#utility.yul\":12820:12825   */\n      dup2\n        /* \"#utility.yul\":12816:12818   */\n      dup2\n        /* \"#utility.yul\":12809:12826   */\n      mstore\n        /* \"#utility.yul\":12865:12869   */\n      0x20\n        /* \"#utility.yul\":12861:12863   */\n      dup2\n        /* \"#utility.yul\":12851:12870   */\n      keccak256\n        /* \"#utility.yul\":12935:12937   */\n      0x1f\n        /* \"#utility.yul\":12923:12933   */\n      dup6\n        /* \"#utility.yul\":12919:12938   */\n      add\n        /* \"#utility.yul\":12916:12917   */\n      0x05\n        /* \"#utility.yul\":12912:12939   */\n      shr\n        /* \"#utility.yul\":12906:12910   */\n      dup2\n        /* \"#utility.yul\":12902:12940   */\n      add\n        /* \"#utility.yul\":12971:12975   */\n      0x20\n        /* \"#utility.yul\":12959:12969   */\n      dup7\n        /* \"#utility.yul\":12956:12976   */\n      lt\n        /* \"#utility.yul\":12953:13000   */\n      iszero\n      tag_821\n      jumpi\n      pop\n        /* \"#utility.yul\":12994:12998   */\n      dup1\n        /* \"#utility.yul\":12953:13000   */\n    tag_821:\n        /* \"#utility.yul\":13049:13051   */\n      0x1f\n        /* \"#utility.yul\":13044:13047   */\n      dup6\n        /* \"#utility.yul\":13040:13052   */\n      add\n        /* \"#utility.yul\":13037:13038   */\n      0x05\n        /* \"#utility.yul\":13033:13053   */\n      shr\n        /* \"#utility.yul\":13027:13031   */\n      dup3\n        /* \"#utility.yul\":13023:13054   */\n      add\n        /* \"#utility.yul\":13013:13054   */\n      swap2\n      pop\n        /* \"#utility.yul\":13104:13186   */\n    tag_822:\n        /* \"#utility.yul\":13122:13124   */\n      dup2\n        /* \"#utility.yul\":13115:13120   */\n      dup2\n        /* \"#utility.yul\":13112:13125   */\n      lt\n        /* \"#utility.yul\":13104:13186   */\n      iszero\n      tag_824\n      jumpi\n        /* \"#utility.yul\":13167:13184   */\n      dup3\n      dup2\n      sstore\n        /* \"#utility.yul\":13148:13149   */\n      0x01\n        /* \"#utility.yul\":13137:13150   */\n      add\n        /* \"#utility.yul\":13104:13186   */\n      jump(tag_822)\n    tag_824:\n        /* \"#utility.yul\":13108:13111   */\n      pop\n      pop\n      pop\n        /* \"#utility.yul\":12748:13196   */\n    tag_820:\n        /* \"#utility.yul\":12657:13202   */\n      pop\n      pop\n      pop\n      jump\t// out\n        /* \"#utility.yul\":13378:14730   */\n    tag_151:\n        /* \"#utility.yul\":13504:13507   */\n      dup2\n        /* \"#utility.yul\":13498:13508   */\n      mload\n        /* \"#utility.yul\":13531:13549   */\n      0xffffffffffffffff\n        /* \"#utility.yul\":13523:13529   */\n      dup2\n        /* \"#utility.yul\":13520:13550   */\n      gt\n        /* \"#utility.yul\":13517:13573   */\n      iszero\n      tag_828\n      jumpi\n        /* \"#utility.yul\":13553:13571   */\n      tag_828\n      tag_716\n      jump\t// in\n    tag_828:\n        /* \"#utility.yul\":13582:13679   */\n      tag_829\n        /* \"#utility.yul\":13672:13678   */\n      dup2\n        /* \"#utility.yul\":13632:13670   */\n      tag_830\n        /* \"#utility.yul\":13664:13668   */\n      dup5\n        /* \"#utility.yul\":13658:13669   */\n      sload\n        /* \"#utility.yul\":13632:13670   */\n      tag_219\n      jump\t// in\n    tag_830:\n        /* \"#utility.yul\":13626:13630   */\n      dup5\n        /* \"#utility.yul\":13582:13679   */\n      tag_720\n      jump\t// in\n    tag_829:\n        /* \"#utility.yul\":13734:13738   */\n      0x20\n      dup1\n        /* \"#utility.yul\":13798:13800   */\n      0x1f\n        /* \"#utility.yul\":13787:13801   */\n      dup4\n      gt\n        /* \"#utility.yul\":13815:13816   */\n      0x01\n        /* \"#utility.yul\":13810:14473   */\n      dup2\n      eq\n      tag_832\n      jumpi\n        /* \"#utility.yul\":14517:14518   */\n      0x00\n        /* \"#utility.yul\":14534:14540   */\n      dup5\n        /* \"#utility.yul\":14531:14620   */\n      iszero\n      tag_833\n      jumpi\n      pop\n        /* \"#utility.yul\":14586:14605   */\n      dup6\n      dup4\n      add\n        /* \"#utility.yul\":14580:14606   */\n      mload\n        /* \"#utility.yul\":14531:14620   */\n    tag_833:\n      not(0x00)\n        /* \"#utility.yul\":13335:13336   */\n      0x03\n        /* \"#utility.yul\":13331:13342   */\n      dup7\n      swap1\n      shl\n        /* \"#utility.yul\":13327:13351   */\n      shr\n        /* \"#utility.yul\":13323:13352   */\n      not\n        /* \"#utility.yul\":13313:13353   */\n      and\n        /* \"#utility.yul\":13359:13360   */\n      0x01\n        /* \"#utility.yul\":13355:13366   */\n      dup6\n      swap1\n      shl\n        /* \"#utility.yul\":13310:13367   */\n      or\n        /* \"#utility.yul\":14633:14714   */\n      dup6\n      sstore\n        /* \"#utility.yul\":13780:14724   */\n      jump(tag_824)\n        /* \"#utility.yul\":13810:14473   */\n    tag_832:\n        /* \"#utility.yul\":12604:12605   */\n      0x00\n        /* \"#utility.yul\":12597:12611   */\n      dup6\n      dup2\n      mstore\n        /* \"#utility.yul\":12641:12645   */\n      0x20\n        /* \"#utility.yul\":12628:12646   */\n      dup2\n      keccak256\n      not(0x1f)\n        /* \"#utility.yul\":13846:13866   */\n      dup7\n      and\n      swap2\n        /* \"#utility.yul\":13964:14200   */\n    tag_836:\n        /* \"#utility.yul\":13978:13985   */\n      dup3\n        /* \"#utility.yul\":13975:13976   */\n      dup2\n        /* \"#utility.yul\":13972:13986   */\n      lt\n        /* \"#utility.yul\":13964:14200   */\n      iszero\n      tag_838\n      jumpi\n        /* \"#utility.yul\":14067:14086   */\n      dup9\n      dup7\n      add\n        /* \"#utility.yul\":14061:14087   */\n      mload\n        /* \"#utility.yul\":14046:14088   */\n      dup3\n      sstore\n        /* \"#utility.yul\":14159:14186   */\n      swap5\n      dup5\n      add\n      swap5\n        /* \"#utility.yul\":14127:14128   */\n      0x01\n        /* \"#utility.yul\":14115:14129   */\n      swap1\n      swap2\n      add\n      swap1\n        /* \"#utility.yul\":13994:14013   */\n      dup5\n      add\n        /* \"#utility.yul\":13964:14200   */\n      jump(tag_836)\n    tag_838:\n        /* \"#utility.yul\":13968:13971   */\n      pop\n        /* \"#utility.yul\":14228:14234   */\n      dup6\n        /* \"#utility.yul\":14219:14226   */\n      dup3\n        /* \"#utility.yul\":14216:14235   */\n      lt\n        /* \"#utility.yul\":14213:14414   */\n      iszero\n      tag_839\n      jumpi\n        /* \"#utility.yul\":14289:14308   */\n      dup8\n      dup6\n      add\n        /* \"#utility.yul\":14283:14309   */\n      mload\n      not(0x00)\n        /* \"#utility.yul\":14372:14373   */\n      0x03\n        /* \"#utility.yul\":14368:14382   */\n      dup9\n      swap1\n      shl\n        /* \"#utility.yul\":14384:14387   */\n      0xf8\n        /* \"#utility.yul\":14364:14388   */\n      and\n        /* \"#utility.yul\":14360:14397   */\n      shr\n        /* \"#utility.yul\":14356:14398   */\n      not\n        /* \"#utility.yul\":14341:14399   */\n      and\n        /* \"#utility.yul\":14326:14400   */\n      dup2\n      sstore\n        /* \"#utility.yul\":14213:14414   */\n    tag_839:\n      pop\n      pop\n      pop\n      pop\n      pop\n        /* \"#utility.yul\":14460:14461   */\n      0x01\n        /* \"#utility.yul\":14444:14458   */\n      swap1\n      dup2\n      shl\n        /* \"#utility.yul\":14440:14462   */\n      add\n        /* \"#utility.yul\":14427:14463   */\n      swap1\n      sstore\n      pop\n        /* \"#utility.yul\":13378:14730   */\n      jump\t// out\n        /* \"#utility.yul\":14735:14862   */\n    tag_159:\n        /* \"#utility.yul\":14796:14806   */\n      0x4e487b71\n        /* \"#utility.yul\":14791:14794   */\n      0xe0\n        /* \"#utility.yul\":14787:14807   */\n      shl\n        /* \"#utility.yul\":14784:14785   */\n      0x00\n        /* \"#utility.yul\":14777:14808   */\n      mstore\n        /* \"#utility.yul\":14827:14831   */\n      0x32\n        /* \"#utility.yul\":14824:14825   */\n      0x04\n        /* \"#utility.yul\":14817:14832   */\n      mstore\n        /* \"#utility.yul\":14851:14855   */\n      0x24\n        /* \"#utility.yul\":14848:14849   */\n      0x00\n        /* \"#utility.yul\":14841:14856   */\n      revert\n        /* \"#utility.yul\":14867:15002   */\n    tag_192:\n        /* \"#utility.yul\":14906:14909   */\n      0x00\n        /* \"#utility.yul\":14927:14944   */\n      0x01\n      dup3\n      add\n        /* \"#utility.yul\":14924:14967   */\n      tag_843\n      jumpi\n        /* \"#utility.yul\":14947:14965   */\n      tag_843\n      tag_718\n      jump\t// in\n    tag_843:\n      pop\n        /* \"#utility.yul\":14994:14995   */\n      0x01\n        /* \"#utility.yul\":14983:14996   */\n      add\n      swap1\n        /* \"#utility.yul\":14867:15002   */\n      jump\t// out\n        /* \"#utility.yul\":17108:18543   */\n    tag_303:\n        /* \"#utility.yul\":17227:17230   */\n      dup2\n        /* \"#utility.yul\":17221:17225   */\n      dup2\n        /* \"#utility.yul\":17218:17231   */\n      sub\n        /* \"#utility.yul\":17215:17241   */\n      tag_851\n      jumpi\n        /* \"#utility.yul\":17234:17239   */\n      pop\n      pop\n        /* \"#utility.yul\":17108:18543   */\n      jump\t// out\n        /* \"#utility.yul\":17215:17241   */\n    tag_851:\n        /* \"#utility.yul\":17264:17301   */\n      tag_852\n        /* \"#utility.yul\":17296:17299   */\n      dup3\n        /* \"#utility.yul\":17290:17300   */\n      sload\n        /* \"#utility.yul\":17264:17301   */\n      tag_219\n      jump\t// in\n    tag_852:\n        /* \"#utility.yul\":17324:17342   */\n      0xffffffffffffffff\n        /* \"#utility.yul\":17316:17322   */\n      dup2\n        /* \"#utility.yul\":17313:17343   */\n      gt\n        /* \"#utility.yul\":17310:17366   */\n      iszero\n      tag_854\n      jumpi\n        /* \"#utility.yul\":17346:17364   */\n      tag_854\n      tag_716\n      jump\t// in\n    tag_854:\n        /* \"#utility.yul\":17375:17472   */\n      tag_855\n        /* \"#utility.yul\":17465:17471   */\n      dup2\n        /* \"#utility.yul\":17425:17463   */\n      tag_830\n        /* \"#utility.yul\":17457:17461   */\n      dup5\n        /* \"#utility.yul\":17451:17462   */\n      sload\n        /* \"#utility.yul\":17425:17463   */\n      tag_219\n      jump\t// in\n        /* \"#utility.yul\":17375:17472   */\n    tag_855:\n        /* \"#utility.yul\":17498:17499   */\n      0x00\n        /* \"#utility.yul\":17526:17528   */\n      0x1f\n        /* \"#utility.yul\":17518:17524   */\n      dup3\n        /* \"#utility.yul\":17515:17529   */\n      gt\n        /* \"#utility.yul\":17543:17544   */\n      0x01\n        /* \"#utility.yul\":17538:18286   */\n      dup2\n      eq\n      tag_858\n      jumpi\n        /* \"#utility.yul\":18330:18331   */\n      0x00\n        /* \"#utility.yul\":18347:18353   */\n      dup4\n        /* \"#utility.yul\":18344:18433   */\n      iszero\n      tag_859\n      jumpi\n      pop\n        /* \"#utility.yul\":18399:18418   */\n      dup5\n      dup3\n      add\n        /* \"#utility.yul\":18393:18419   */\n      sload\n        /* \"#utility.yul\":18344:18433   */\n    tag_859:\n      not(0x00)\n        /* \"#utility.yul\":13335:13336   */\n      0x03\n        /* \"#utility.yul\":13331:13342   */\n      dup6\n      swap1\n      shl\n        /* \"#utility.yul\":13327:13351   */\n      shr\n        /* \"#utility.yul\":13323:13352   */\n      not\n        /* \"#utility.yul\":13313:13353   */\n      and\n        /* \"#utility.yul\":13359:13360   */\n      0x01\n        /* \"#utility.yul\":13355:13366   */\n      dup5\n      swap1\n      shl\n        /* \"#utility.yul\":13310:13367   */\n      or\n        /* \"#utility.yul\":18446:18527   */\n      dup5\n      sstore\n        /* \"#utility.yul\":17508:18537   */\n      jump(tag_857)\n        /* \"#utility.yul\":17538:18286   */\n    tag_858:\n        /* \"#utility.yul\":12604:12605   */\n      0x00\n        /* \"#utility.yul\":12597:12611   */\n      dup6\n      dup2\n      mstore\n        /* \"#utility.yul\":12641:12645   */\n      0x20\n        /* \"#utility.yul\":12628:12646   */\n      swap1\n      keccak256\n      not(0x1f)\n        /* \"#utility.yul\":17574:17594   */\n      dup5\n      and\n      swap1\n        /* \"#utility.yul\":12604:12605   */\n      0x00\n        /* \"#utility.yul\":12597:12611   */\n      dup7\n      dup2\n      mstore\n        /* \"#utility.yul\":12641:12645   */\n      0x20\n        /* \"#utility.yul\":12628:12646   */\n      swap1\n      keccak256\n        /* \"#utility.yul\":17738:17747   */\n      dup5\n        /* \"#utility.yul\":17760:18011   */\n    tag_863:\n        /* \"#utility.yul\":17774:17781   */\n      dup4\n        /* \"#utility.yul\":17771:17772   */\n      dup2\n        /* \"#utility.yul\":17768:17782   */\n      lt\n        /* \"#utility.yul\":17760:18011   */\n      iszero\n      tag_865\n      jumpi\n        /* \"#utility.yul\":17856:17877   */\n      dup3\n      dup7\n      add\n        /* \"#utility.yul\":17850:17878   */\n      sload\n        /* \"#utility.yul\":17835:17879   */\n      dup3\n      sstore\n        /* \"#utility.yul\":17906:17907   */\n      0x01\n        /* \"#utility.yul\":17979:17997   */\n      swap6\n      dup7\n      add\n      swap6\n        /* \"#utility.yul\":17934:17949   */\n      swap1\n      swap2\n      add\n      swap1\n        /* \"#utility.yul\":17797:17801   */\n      0x20\n        /* \"#utility.yul\":17790:17802   */\n      add\n        /* \"#utility.yul\":17760:18011   */\n      jump(tag_863)\n    tag_865:\n        /* \"#utility.yul\":17764:17767   */\n      pop\n        /* \"#utility.yul\":18039:18045   */\n      dup6\n        /* \"#utility.yul\":18030:18037   */\n      dup4\n        /* \"#utility.yul\":18027:18046   */\n      lt\n        /* \"#utility.yul\":18024:18227   */\n      iszero\n      tag_866\n      jumpi\n        /* \"#utility.yul\":18100:18121   */\n      dup2\n      dup6\n      add\n        /* \"#utility.yul\":18094:18122   */\n      sload\n      not(0x00)\n        /* \"#utility.yul\":18185:18186   */\n      0x03\n        /* \"#utility.yul\":18181:18195   */\n      dup9\n      swap1\n      shl\n        /* \"#utility.yul\":18197:18200   */\n      0xf8\n        /* \"#utility.yul\":18177:18201   */\n      and\n        /* \"#utility.yul\":18173:18210   */\n      shr\n        /* \"#utility.yul\":18169:18211   */\n      not\n        /* \"#utility.yul\":18154:18212   */\n      and\n        /* \"#utility.yul\":18139:18213   */\n      dup2\n      sstore\n        /* \"#utility.yul\":18024:18227   */\n    tag_866:\n      pop\n      pop\n      pop\n        /* \"#utility.yul\":18273:18274   */\n      0x01\n        /* \"#utility.yul\":18264:18270   */\n      dup4\n        /* \"#utility.yul\":18261:18262   */\n      0x01\n        /* \"#utility.yul\":18257:18271   */\n      shl\n        /* \"#utility.yul\":18253:18275   */\n      add\n        /* \"#utility.yul\":18247:18251   */\n      dup5\n        /* \"#utility.yul\":18240:18276   */\n      sstore\n        /* \"#utility.yul\":17508:18537   */\n    tag_857:\n      pop\n      pop\n      pop\n        /* \"#utility.yul\":17108:18543   */\n      pop\n      pop\n      jump\t// out\n        /* \"#utility.yul\":18548:19320   */\n    tag_722:\n        /* \"#utility.yul\":18598:18601   */\n      0x00\n        /* \"#utility.yul\":18639:18644   */\n      dup2\n        /* \"#utility.yul\":18633:18645   */\n      sload\n        /* \"#utility.yul\":18668:18704   */\n      tag_868\n        /* \"#utility.yul\":18694:18703   */\n      dup2\n        /* \"#utility.yul\":18668:18704   */\n      tag_219\n      jump\t// in\n    tag_868:\n        /* \"#utility.yul\":18713:18732   */\n      dup1\n      dup6\n      mstore\n        /* \"#utility.yul\":18751:18755   */\n      0x20\n        /* \"#utility.yul\":18774:18775   */\n      0x01\n        /* \"#utility.yul\":18791:18809   */\n      dup4\n      dup2\n      and\n        /* \"#utility.yul\":18818:18964   */\n      dup1\n      iszero\n      tag_870\n      jumpi\n        /* \"#utility.yul\":18978:18979   */\n      0x01\n        /* \"#utility.yul\":18973:19314   */\n      dup2\n      eq\n      tag_871\n      jumpi\n        /* \"#utility.yul\":18784:19314   */\n      jump(tag_869)\n        /* \"#utility.yul\":18818:18964   */\n    tag_870:\n      not(0xff)\n        /* \"#utility.yul\":18860:18884   */\n      dup6\n      and\n        /* \"#utility.yul\":18846:18858   */\n      dup9\n      dup5\n      add\n        /* \"#utility.yul\":18839:18885   */\n      mstore\n        /* \"#utility.yul\":18932:18946   */\n      dup4\n      iszero\n        /* \"#utility.yul\":18925:18947   */\n      iszero\n        /* \"#utility.yul\":18922:18923   */\n      0x05\n        /* \"#utility.yul\":18918:18948   */\n      shl\n        /* \"#utility.yul\":18909:18949   */\n      dup9\n      add\n        /* \"#utility.yul\":18905:18954   */\n      dup4\n      add\n      swap6\n      pop\n        /* \"#utility.yul\":18818:18964   */\n      jump(tag_869)\n        /* \"#utility.yul\":18973:19314   */\n    tag_871:\n        /* \"#utility.yul\":19004:19009   */\n      dup7\n        /* \"#utility.yul\":19001:19002   */\n      0x00\n        /* \"#utility.yul\":18994:19010   */\n      mstore\n        /* \"#utility.yul\":19051:19053   */\n      dup3\n        /* \"#utility.yul\":19048:19049   */\n      0x00\n        /* \"#utility.yul\":19038:19054   */\n      keccak256\n        /* \"#utility.yul\":19076:19077   */\n      0x00\n        /* \"#utility.yul\":19090:19264   */\n    tag_872:\n        /* \"#utility.yul\":19104:19110   */\n      dup6\n        /* \"#utility.yul\":19101:19102   */\n      dup2\n        /* \"#utility.yul\":19098:19111   */\n      lt\n        /* \"#utility.yul\":19090:19264   */\n      iszero\n      tag_874\n      jumpi\n        /* \"#utility.yul\":19191:19205   */\n      dup2\n      sload\n        /* \"#utility.yul\":19173:19184   */\n      dup11\n      dup3\n      add\n        /* \"#utility.yul\":19169:19189   */\n      dup7\n      add\n        /* \"#utility.yul\":19162:19206   */\n      mstore\n        /* \"#utility.yul\":19234:19250   */\n      swap1\n      dup4\n      add\n      swap1\n        /* \"#utility.yul\":19119:19129   */\n      dup5\n      add\n        /* \"#utility.yul\":19090:19264   */\n      jump(tag_872)\n    tag_874:\n        /* \"#utility.yul\":19288:19299   */\n      dup10\n      add\n        /* \"#utility.yul\":19284:19304   */\n      dup5\n      add\n      swap7\n      pop\n      pop\n        /* \"#utility.yul\":18784:19314   */\n    tag_869:\n      pop\n      pop\n      pop\n      pop\n      pop\n        /* \"#utility.yul\":18548:19320   */\n      swap3\n      swap2\n      pop\n      pop\n      jump\t// out\n        /* \"#utility.yul\":19325:19976   */\n    tag_723:\n        /* \"#utility.yul\":19385:19388   */\n      0x00\n        /* \"#utility.yul\":19423:19428   */\n      dup2\n        /* \"#utility.yul\":19417:19429   */\n      sload\n        /* \"#utility.yul\":19450:19456   */\n      dup1\n        /* \"#utility.yul\":19445:19448   */\n      dup5\n        /* \"#utility.yul\":19438:19457   */\n      mstore\n        /* \"#utility.yul\":19476:19480   */\n      0x20\n        /* \"#utility.yul\":19517:19519   */\n      dup1\n        /* \"#utility.yul\":19512:19515   */\n      dup6\n        /* \"#utility.yul\":19508:19520   */\n      add\n        /* \"#utility.yul\":19542:19553   */\n      dup1\n        /* \"#utility.yul\":19569:19580   */\n      dup2\n        /* \"#utility.yul\":19562:19580   */\n      swap7\n      pop\n        /* \"#utility.yul\":19619:19625   */\n      dup4\n        /* \"#utility.yul\":19616:19617   */\n      0x05\n        /* \"#utility.yul\":19612:19626   */\n      shl\n        /* \"#utility.yul\":19605:19610   */\n      dup2\n        /* \"#utility.yul\":19601:19627   */\n      add\n        /* \"#utility.yul\":19589:19627   */\n      swap2\n      pop\n        /* \"#utility.yul\":19646:19651   */\n      dup6\n        /* \"#utility.yul\":19643:19644   */\n      0x00\n        /* \"#utility.yul\":19636:19652   */\n      mstore\n        /* \"#utility.yul\":19688:19690   */\n      dup3\n        /* \"#utility.yul\":19685:19686   */\n      0x00\n        /* \"#utility.yul\":19675:19691   */\n      keccak256\n        /* \"#utility.yul\":19709:19710   */\n      0x00\n        /* \"#utility.yul\":19719:19950   */\n    tag_876:\n        /* \"#utility.yul\":19733:19739   */\n      dup6\n        /* \"#utility.yul\":19730:19731   */\n      dup2\n        /* \"#utility.yul\":19727:19740   */\n      lt\n        /* \"#utility.yul\":19719:19950   */\n      iszero\n      tag_878\n      jumpi\n        /* \"#utility.yul\":19804:19809   */\n      dup3\n        /* \"#utility.yul\":19798:19802   */\n      dup5\n        /* \"#utility.yul\":19794:19810   */\n      sub\n        /* \"#utility.yul\":19789:19792   */\n      dup10\n        /* \"#utility.yul\":19782:19811   */\n      mstore\n        /* \"#utility.yul\":19832:19871   */\n      tag_879\n        /* \"#utility.yul\":19866:19870   */\n      dup5\n        /* \"#utility.yul\":19858:19864   */\n      dup4\n        /* \"#utility.yul\":19832:19871   */\n      tag_722\n      jump\t// in\n    tag_879:\n        /* \"#utility.yul\":19928:19940   */\n      swap9\n      dup6\n      add\n      swap9\n        /* \"#utility.yul\":19824:19871   */\n      swap4\n      pop\n        /* \"#utility.yul\":19906:19907   */\n      0x01\n        /* \"#utility.yul\":19894:19908   */\n      swap2\n      dup3\n      add\n      swap2\n        /* \"#utility.yul\":19748:19757   */\n      add\n        /* \"#utility.yul\":19719:19950   */\n      jump(tag_876)\n    tag_878:\n      pop\n        /* \"#utility.yul\":19966:19970   */\n      swap2\n      swap8\n        /* \"#utility.yul\":19325:19976   */\n      swap7\n      pop\n      pop\n      pop\n      pop\n      pop\n      pop\n      pop\n      jump\t// out\n        /* \"#utility.yul\":19981:20334   */\n    tag_308:\n        /* \"#utility.yul\":20202:20204   */\n      0x40\n        /* \"#utility.yul\":20191:20200   */\n      dup2\n        /* \"#utility.yul\":20184:20205   */\n      mstore\n        /* \"#utility.yul\":20165:20169   */\n      0x00\n        /* \"#utility.yul\":20222:20285   */\n      tag_881\n        /* \"#utility.yul\":20281:20283   */\n      0x40\n        /* \"#utility.yul\":20270:20279   */\n      dup4\n        /* \"#utility.yul\":20266:20284   */\n      add\n        /* \"#utility.yul\":20258:20264   */\n      dup6\n        /* \"#utility.yul\":20222:20285   */\n      tag_723\n      jump\t// in\n    tag_881:\n        /* \"#utility.yul\":20214:20285   */\n      swap1\n      pop\n        /* \"#utility.yul\":20321:20327   */\n      dup3\n        /* \"#utility.yul\":20316:20318   */\n      0x20\n        /* \"#utility.yul\":20305:20314   */\n      dup4\n        /* \"#utility.yul\":20301:20319   */\n      add\n        /* \"#utility.yul\":20294:20328   */\n      mstore\n        /* \"#utility.yul\":19981:20334   */\n      swap4\n      swap3\n      pop\n      pop\n      pop\n      jump\t// out\n        /* \"#utility.yul\":22608:23077   */\n    tag_725:\n        /* \"#utility.yul\":22669:22672   */\n      0x00\n        /* \"#utility.yul\":22707:22712   */\n      dup2\n        /* \"#utility.yul\":22701:22713   */\n      sload\n        /* \"#utility.yul\":22734:22740   */\n      dup1\n        /* \"#utility.yul\":22729:22732   */\n      dup5\n        /* \"#utility.yul\":22722:22741   */\n      mstore\n        /* \"#utility.yul\":22760:22764   */\n      0x20\n        /* \"#utility.yul\":22789:22791   */\n      dup1\n        /* \"#utility.yul\":22784:22787   */\n      dup6\n        /* \"#utility.yul\":22780:22792   */\n      add\n        /* \"#utility.yul\":22773:22792   */\n      swap5\n      pop\n        /* \"#utility.yul\":22811:22816   */\n      dup4\n        /* \"#utility.yul\":22808:22809   */\n      0x00\n        /* \"#utility.yul\":22801:22817   */\n      mstore\n        /* \"#utility.yul\":22853:22855   */\n      dup1\n        /* \"#utility.yul\":22850:22851   */\n      0x00\n        /* \"#utility.yul\":22840:22856   */\n      keccak256\n        /* \"#utility.yul\":22874:22875   */\n      0x00\n        /* \"#utility.yul\":22884:23052   */\n    tag_889:\n        /* \"#utility.yul\":22898:22904   */\n      dup4\n        /* \"#utility.yul\":22895:22896   */\n      dup2\n        /* \"#utility.yul\":22892:22905   */\n      lt\n        /* \"#utility.yul\":22884:23052   */\n      iszero\n      tag_750\n      jumpi\n        /* \"#utility.yul\":22959:22972   */\n      dup2\n      sload\n        /* \"#utility.yul\":22947:22973   */\n      dup8\n      mstore\n        /* \"#utility.yul\":22993:23005   */\n      swap6\n      dup3\n      add\n      swap6\n        /* \"#utility.yul\":23040:23041   */\n      0x01\n        /* \"#utility.yul\":23028:23042   */\n      swap2\n      dup3\n      add\n      swap2\n        /* \"#utility.yul\":22913:22922   */\n      add\n        /* \"#utility.yul\":22884:23052   */\n      jump(tag_889)\n        /* \"#utility.yul\":23225:24825   */\n    tag_442:\n        /* \"#utility.yul\":23429:23431   */\n      0x40\n        /* \"#utility.yul\":23418:23427   */\n      dup2\n        /* \"#utility.yul\":23411:23432   */\n      mstore\n        /* \"#utility.yul\":23441:23532   */\n      tag_894\n        /* \"#utility.yul\":23528:23530   */\n      0x40\n        /* \"#utility.yul\":23517:23526   */\n      dup3\n        /* \"#utility.yul\":23513:23531   */\n      add\n        /* \"#utility.yul\":23457:23511   */\n      tag_895\n        /* \"#utility.yul\":23503:23509   */\n      dup6\n        /* \"#utility.yul\":23497:23510   */\n      sload\n        /* \"#utility.yul\":22592:22596   */\n      0xff\n        /* \"#utility.yul\":22576:22597   */\n      and\n      swap1\n        /* \"#utility.yul\":22483:22603   */\n      jump\n        /* \"#utility.yul\":23457:23511   */\n    tag_895:\n        /* \"#utility.yul\":1088:1101   */\n      iszero\n        /* \"#utility.yul\":1081:1102   */\n      iszero\n        /* \"#utility.yul\":1069:1103   */\n      swap1\n      mstore\n        /* \"#utility.yul\":1018:1109   */\n      jump\n        /* \"#utility.yul\":23441:23532   */\n    tag_894:\n        /* \"#utility.yul\":23392:23396   */\n      0x00\n        /* \"#utility.yul\":23551:23557   */\n      0x0160\n        /* \"#utility.yul\":23593:23595   */\n      dup1\n        /* \"#utility.yul\":23588:23590   */\n      0x60\n        /* \"#utility.yul\":23577:23586   */\n      dup5\n        /* \"#utility.yul\":23573:23591   */\n      add\n        /* \"#utility.yul\":23566:23596   */\n      mstore\n        /* \"#utility.yul\":23619:23684   */\n      tag_896\n        /* \"#utility.yul\":23679:23682   */\n      0x01a0\n        /* \"#utility.yul\":23668:23677   */\n      dup5\n        /* \"#utility.yul\":23664:23683   */\n      add\n        /* \"#utility.yul\":23657:23661   */\n      0x01\n        /* \"#utility.yul\":23649:23655   */\n      dup8\n        /* \"#utility.yul\":23645:23662   */\n      add\n        /* \"#utility.yul\":23619:23684   */\n      tag_722\n      jump\t// in\n    tag_896:\n        /* \"#utility.yul\":23707:23709   */\n      0x3f\n        /* \"#utility.yul\":23703:23710   */\n      not\n        /* \"#utility.yul\":23775:23777   */\n      dup1\n        /* \"#utility.yul\":23763:23772   */\n      dup6\n        /* \"#utility.yul\":23755:23761   */\n      dup4\n        /* \"#utility.yul\":23751:23773   */\n      sub\n        /* \"#utility.yul\":23747:23778   */\n      add\n        /* \"#utility.yul\":23741:23744   */\n      0x80\n        /* \"#utility.yul\":23730:23739   */\n      dup7\n        /* \"#utility.yul\":23726:23745   */\n      add\n        /* \"#utility.yul\":23719:23779   */\n      mstore\n        /* \"#utility.yul\":23802:23864   */\n      tag_897\n        /* \"#utility.yul\":23857:23863   */\n      dup3\n        /* \"#utility.yul\":23850:23854   */\n      0x02\n        /* \"#utility.yul\":23842:23848   */\n      dup10\n        /* \"#utility.yul\":23838:23855   */\n      add\n        /* \"#utility.yul\":23802:23864   */\n      tag_723\n      jump\t// in\n    tag_897:\n        /* \"#utility.yul\":23788:23864   */\n      swap2\n      pop\n        /* \"#utility.yul\":23929:23931   */\n      dup1\n        /* \"#utility.yul\":23917:23926   */\n      dup6\n        /* \"#utility.yul\":23909:23915   */\n      dup4\n        /* \"#utility.yul\":23905:23927   */\n      sub\n        /* \"#utility.yul\":23901:23932   */\n      add\n        /* \"#utility.yul\":23895:23898   */\n      0xa0\n        /* \"#utility.yul\":23884:23893   */\n      dup7\n        /* \"#utility.yul\":23880:23899   */\n      add\n        /* \"#utility.yul\":23873:23933   */\n      mstore\n      pop\n        /* \"#utility.yul\":23956:24019   */\n      tag_898\n        /* \"#utility.yul\":24012:24018   */\n      dup2\n        /* \"#utility.yul\":24005:24009   */\n      0x03\n        /* \"#utility.yul\":23997:24003   */\n      dup9\n        /* \"#utility.yul\":23993:24010   */\n      add\n        /* \"#utility.yul\":23956:24019   */\n      tag_725\n      jump\t// in\n    tag_898:\n        /* \"#utility.yul\":23942:24019   */\n      swap1\n      pop\n        /* \"#utility.yul\":24048:24116   */\n      tag_899\n        /* \"#utility.yul\":24109:24113   */\n      0x04\n        /* \"#utility.yul\":24101:24107   */\n      dup8\n        /* \"#utility.yul\":24097:24114   */\n      add\n        /* \"#utility.yul\":24091:24115   */\n      sload\n      sub(shl(0xa0, 0x01), 0x01)\n        /* \"#utility.yul\":23178:23214   */\n      and\n      swap1\n        /* \"#utility.yul\":23082:23220   */\n      jump\n        /* \"#utility.yul\":24048:24116   */\n    tag_899:\n      sub(shl(0xa0, 0x01), 0x01)\n        /* \"#utility.yul\":2748:2779   */\n      swap1\n      dup2\n      and\n        /* \"#utility.yul\":24173:24176   */\n      0xc0\n        /* \"#utility.yul\":24158:24177   */\n      dup7\n      add\n        /* \"#utility.yul\":2736:2780   */\n      mstore\n        /* \"#utility.yul\":24270:24274   */\n      0x05\n        /* \"#utility.yul\":24258:24275   */\n      dup8\n      add\n        /* \"#utility.yul\":24252:24276   */\n      sload\n        /* \"#utility.yul\":23178:23214   */\n      dup2\n      and\n        /* \"#utility.yul\":24336:24339   */\n      0xe0\n        /* \"#utility.yul\":24321:24340   */\n      dup7\n      add\n        /* \"#utility.yul\":2736:2780   */\n      mstore\n        /* \"#utility.yul\":24396:24400   */\n      0x06\n        /* \"#utility.yul\":24384:24401   */\n      dup8\n      add\n        /* \"#utility.yul\":24378:24402   */\n      sload\n        /* \"#utility.yul\":24372:24375   */\n      0x0100\n        /* \"#utility.yul\":24357:24376   */\n      dup7\n      add\n        /* \"#utility.yul\":24350:24403   */\n      mstore\n        /* \"#utility.yul\":24495:24499   */\n      0x07\n        /* \"#utility.yul\":24483:24500   */\n      dup8\n      add\n        /* \"#utility.yul\":24477:24501   */\n      sload\n        /* \"#utility.yul\":23178:23214   */\n      and\n        /* \"#utility.yul\":24561:24564   */\n      0x0120\n        /* \"#utility.yul\":24546:24565   */\n      dup6\n      add\n        /* \"#utility.yul\":2736:2780   */\n      mstore\n        /* \"#utility.yul\":24621:24625   */\n      0x08\n        /* \"#utility.yul\":24609:24626   */\n      dup7\n      add\n        /* \"#utility.yul\":24603:24627   */\n      sload\n        /* \"#utility.yul\":24597:24600   */\n      0x0140\n        /* \"#utility.yul\":24582:24601   */\n      dup6\n      add\n        /* \"#utility.yul\":24575:24628   */\n      mstore\n        /* \"#utility.yul\":24682:24686   */\n      0x09\n        /* \"#utility.yul\":24670:24687   */\n      dup7\n      add\n        /* \"#utility.yul\":24664:24688   */\n      sload\n        /* \"#utility.yul\":24644:24662   */\n      swap2\n      dup5\n      add\n        /* \"#utility.yul\":24637:24689   */\n      swap2\n      swap1\n      swap2\n      mstore\n        /* \"#utility.yul\":24744:24748   */\n      0x0a\n        /* \"#utility.yul\":24732:24749   */\n      swap1\n      swap5\n      add\n        /* \"#utility.yul\":24726:24750   */\n      sload\n        /* \"#utility.yul\":24720:24723   */\n      0x0180\n        /* \"#utility.yul\":24705:24724   */\n      dup4\n      add\n        /* \"#utility.yul\":24698:24751   */\n      mstore\n      pop\n        /* \"#utility.yul\":24805:24809   */\n      0x20\n        /* \"#utility.yul\":24790:24810   */\n      add\n        /* \"#utility.yul\":24783:24819   */\n      mstore\n        /* \"#utility.yul\":24637:24689   */\n      swap1\n        /* \"#utility.yul\":23225:24825   */\n      jump\t// out\n        /* \"#utility.yul\":24830:25119   */\n    tag_445:\n        /* \"#utility.yul\":24961:24964   */\n      0x00\n        /* \"#utility.yul\":24999:25005   */\n      dup3\n        /* \"#utility.yul\":24993:25006   */\n      mload\n        /* \"#utility.yul\":25015:25081   */\n      tag_906\n        /* \"#utility.yul\":25074:25080   */\n      dup2\n        /* \"#utility.yul\":25069:25072   */\n      dup5\n        /* \"#utility.yul\":25062:25066   */\n      0x20\n        /* \"#utility.yul\":25054:25060   */\n      dup8\n        /* \"#utility.yul\":25050:25067   */\n      add\n        /* \"#utility.yul\":25015:25081   */\n      tag_710\n      jump\t// in\n    tag_906:\n        /* \"#utility.yul\":25097:25113   */\n      swap2\n      swap1\n      swap2\n      add\n      swap3\n        /* \"#utility.yul\":24830:25119   */\n      swap2\n      pop\n      pop\n      jump\t// out\n        /* \"#utility.yul\":25124:25420   */\n    tag_607:\n        /* \"#utility.yul\":25298:25300   */\n      0x40\n        /* \"#utility.yul\":25287:25296   */\n      dup2\n        /* \"#utility.yul\":25280:25301   */\n      mstore\n        /* \"#utility.yul\":25261:25265   */\n      0x00\n        /* \"#utility.yul\":25318:25371   */\n      tag_881\n        /* \"#utility.yul\":25367:25369   */\n      0x40\n        /* \"#utility.yul\":25356:25365   */\n      dup4\n        /* \"#utility.yul\":25352:25370   */\n      add\n        /* \"#utility.yul\":25344:25350   */\n      dup6\n        /* \"#utility.yul\":25318:25371   */\n      tag_722\n      jump\t// in\n\n    auxdata: 0xa2646970667358221220d0d48a2aac08f99090ed20b39a83d397543f6a1242350d6dc493733140d0f4e964736f6c63430008130033\n}\n",
				"bytecode": {
					"linkReferences": {},
					"object": "600080546001600160a01b031990811673c6bddcd0da1c50281f02a57b8d2ada2ebf76aec7178255678ac7230489e80000600190815560028054909216733ce5a8a72820585c60f659896338d573471969911782556005600381815560048281556101808681526101a08590526101c086905260809081526101e083815261020083905261022085905260a05260066102408181526007610260819052600861028081905260c0929092526102a08a81526102c0969096526102e083905260e0959095526103009687526103208490526103409490945261010095909552610360868152610380949094526103a0839052610120939093526103c09586526103e0819052610400829052610140959095526104806040526104209384526104409490945261046091909152610160919091526200013e91908162000165565b503480156200014c57600080fd5b50600680546001600160a01b031916331790556200026f565b828054828255906000526020600020908101928215620001b1579160200282015b82811115620001b1578251620001a09083906003620001c3565b509160200191906001019062000186565b50620001bf92915062000214565b5090565b82805482825590600052602060002090810192821562000206579160200282015b8281111562000206578251829060ff16905591602001919060010190620001e4565b50620001bf92915062000235565b80821115620001bf5760006200022b82826200024c565b5060010162000214565b5b80821115620001bf576000815560010162000236565b50805460008255906000526020600020908101906200026c919062000235565b50565b6139ad806200027f6000396000f3fe608060405234801561001057600080fd5b506004361061012c5760003560e01c8063888b042f116100ad578063cc32d17611610071578063cc32d176146102ab578063dc572c6e146102b4578063edb84ff7146102d4578063fa968eea146102dc578063fce589d8146102e557600080fd5b8063888b042f1461023a5780638da5cb5b14610242578063b2182be414610255578063b60b9fcb14610275578063bed34bba1461028857600080fd5b80634a968391116100f45780634a968391146101ae57806352bc3410146101c157806361d027b3146101d45780637effb427146101ff57806387052fab1461021257600080fd5b806306139e8d1461013157806317b44960146101465780631a39d8ef1461016f57806334fd351814610186578063491f013614610199575b600080fd5b61014461013f366004612f9b565b6102ee565b005b610159610154366004612f9b565b610a33565b6040516101669190612fb4565b60405180910390f35b61017860055481565b604051908152602001610166565b610144610194366004612f9b565b610aaf565b6101a1610b79565b60405161016691906131b8565b6101446101bc366004612f9b565b610e0a565b6101446101cf36600461321a565b610f8a565b6002546101e7906001600160a01b031681565b6040516001600160a01b039091168152602001610166565b6000546101e7906001600160a01b031681565b610225610220366004612f9b565b6113b5565b6040516101669998979695949392919061323c565b6101446114ab565b6006546101e7906001600160a01b031681565b610268610263366004612f9b565b6116ae565b604051610166919061329e565b61014461028336600461321a565b611914565b61029b61029636600461335b565b61207e565b6040519015158152602001610166565b61017860045481565b6102c76102c2366004612f9b565b6120d8565b60405161016691906133bf565b6101446121d5565b61017860015481565b61017860035481565b600654600160a01b900460ff16156103455760405162461bcd60e51b8152602060048201526015602482015274115c9c9bdc8e881499595b9d1c985b9d0818d85b1b605a1b60448201526064015b60405180910390fd5b6006805460ff60a01b1916600160a01b1790556000546040516370a0823160e01b815233600482015282916001600160a01b0316906370a0823190602401602060405180830381865afa1580156103a0573d6000803e3d6000fd5b505050506040513d601f19601f820116820180604052508101906103c49190613414565b10156104075760405162461bcd60e51b81526020600482015260126024820152714e6f7420656e6f7567682062616c616e636560701b604482015260640161033c565b6001548110156104595760405162461bcd60e51b815260206004820152601a60248201527f4e65656420746f20706179206d696e2062657420616d6f756e74000000000000604482015260640161033c565b60005460405163095ea7b360e01b8152336004820152602481018390526001600160a01b039091169063095ea7b3906044016020604051808303816000875af11580156104aa573d6000803e3d6000fd5b505050506040513d601f19601f820116820180604052508101906104ce919061342d565b5060006064600354836104e19190613465565b6104eb919061347c565b905060006064600454846104ff9190613465565b610509919061347c565b9050600081610518848661349e565b610522919061349e565b6000546040516323b872dd60e01b81529192506001600160a01b0316906323b872dd9061055990339061dead9088906004016134b1565b6020604051808303816000875af1158015610578573d6000803e3d6000fd5b505050506040513d601f19601f8201168201806040525081019061059c919061342d565b506000546002546040516323b872dd60e01b81526001600160a01b03928316926323b872dd926105d69233929091169087906004016134b1565b6020604051808303816000875af11580156105f5573d6000803e3d6000fd5b505050506040513d601f19601f82011682018060405250810190610619919061342d565b506000546040516323b872dd60e01b81526001600160a01b03909116906323b872dd9061064e903390309086906004016134b1565b6020604051808303816000875af115801561066d573d6000803e3d6000fd5b505050506040513d601f19601f82011682018060405250810190610691919061342d565b5080600560008282546106a491906134d5565b909155506106b29050612dd5565b6007805460018101825560009190915281517fa66cc928b5edb82af9bd49922954155ab7b0942694bea4ce44661d9a8736c688600b909202918201805460ff1916911515919091178155602083015183927fa66cc928b5edb82af9bd49922954155ab7b0942694bea4ce44661d9a8736c68901906107309082613571565b506040820151805161074c916002840191602090910190612e4c565b5060608201518051610768916003840191602090910190612ea2565b5060808201516004820180546001600160a01b03199081166001600160a01b039384161790915560a0840151600584018054831691841691909117905560c0840151600684015560e084015160078085018054909316919093161790556101008301516008830155610120830151600983015561014090920151600a9091015580549033906107f860018461349e565b8154811061080857610808613631565b600091825260208220600b919091020160040180546001600160a01b0319166001600160a01b039390931692909217909155600761084760018461349e565b8154811061085757610857613631565b60009182526020909120600b90910201805460ff191691151591909117905560016007610884828461349e565b8154811061089457610894613631565b90600052602060002090600b020160060181905550604051806040016040528060018152602001600b60fb1b81525060076001836108d2919061349e565b815481106108e2576108e2613631565b90600052602060002090600b020160010190816108ff9190613571565b5085600761090e60018461349e565b8154811061091e5761091e613631565b600091825260209091206008600b90920201015582600761094060018461349e565b8154811061095057610950613631565b90600052602060002090600b0201600a018190555060005b60098110156109e057600761097e60018461349e565b8154811061098e5761098e613631565b600091825260208083206002600b9093020191909101805460018101825590835281832060408051938401905292825291909101906109cd9082613571565b50806109d881613647565b915050610968565b507fbbba82573073a1190d559566d39447b5e1ad7724b88b63bc98867d229a645b6b610a0d60018361349e565b60405190815260200160405180910390a150506006805460ff60a01b1916905550505050565b606060078281548110610a4857610a48613631565b90600052602060002090600b0201600301805480602002602001604051908101604052809291908181526020018280548015610aa357602002820191906000526020600020905b815481526020019060010190808311610a8f575b50505050509050919050565b610ab881612298565b610b045760405162461bcd60e51b815260206004820152601c60248201527f796f7520617265206e6f7420746869732067616d6520706c6179657200000000604482015260640161033c565b60078181548110610b1757610b17613631565b60009182526020909120600b909102015460ff1615610b6d5760405162461bcd60e51b815260206004820152601260248201527147616d65207374696c6c20706c6179696e6760701b604482015260640161033c565b610b7681610e0a565b50565b60606007805480602002602001604051908101604052809291908181526020016000905b82821015610e01576000848152602090819020604080516101608101909152600b8502909101805460ff16151582526001810180549293919291840191610be3906134e8565b80601f0160208091040260200160405190810160405280929190818152602001828054610c0f906134e8565b8015610c5c5780601f10610c3157610100808354040283529160200191610c5c565b820191906000526020600020905b815481529060010190602001808311610c3f57829003601f168201915b5050505050815260200160028201805480602002602001604051908101604052809291908181526020016000905b82821015610d36578382906000526020600020018054610ca9906134e8565b80601f0160208091040260200160405190810160405280929190818152602001828054610cd5906134e8565b8015610d225780601f10610cf757610100808354040283529160200191610d22565b820191906000526020600020905b815481529060010190602001808311610d0557829003601f168201915b505050505081526020019060010190610c8a565b50505050815260200160038201805480602002602001604051908101604052809291908181526020018280548015610d8d57602002820191906000526020600020905b815481526020019060010190808311610d79575b505050918352505060048201546001600160a01b039081166020808401919091526005840154821660408401526006840154606084015260078401549091166080830152600883015460a0830152600983015460c0830152600a9092015460e0909101529082526001929092019101610b9d565b50505050905090565b604051806040016040528060018152602001600b60fb1b81525060078281548110610e3757610e37613631565b90600052602060002090600b02016001019081610e549190613571565b5060408051610140810182526000610120820181815282528251602081810185528282528084019190915283518082018552828152838501528351808201855282815260608401528351808201855282815260808401528351808201855282815260a08401528351808201855282815260c08401528351808201855282815260e0840152835190810190935282526101008101919091526007805483908110610eff57610eff613631565b90600052602060002090600b0201600201906009610f1e929190612ee9565b50600160078281548110610f3457610f34613631565b6000918252602091829020600b90910201805460ff1916921515929092179091556040518281527fc5478e3fe602c65e5cdd37abe42a8e007ff762d266b9e8256769194c1fa1361e91015b60405180910390a150565b60078181548110610f9d57610f9d613631565b60009182526020909120600b909102015460ff16610ffd5760405162461bcd60e51b815260206004820152601c60248201527f5468652067616d65207374696c6c206e6f742073746172742079657400000000604482015260640161033c565b6110dd6007828154811061101357611013613631565b90600052602060002090600b0201600201838154811061103557611035613631565b90600052602060002001805461104a906134e8565b80601f0160208091040260200160405190810160405280929190818152602001828054611076906134e8565b80156110c35780601f10611098576101008083540402835291602001916110c3565b820191906000526020600020905b8154815290600101906020018083116110a657829003601f168201915b50505050506040518060200160405280600081525061207e565b6111195760405162461bcd60e51b815260206004820152600d60248201526c125b9d985b1a59081a5b9c1d5d609a1b604482015260640161033c565b6111e86007828154811061112f5761112f613631565b90600052602060002090600b0201600101805461114b906134e8565b80601f0160208091040260200160405190810160405280929190818152602001828054611177906134e8565b80156111c45780601f10611199576101008083540402835291602001916111c4565b820191906000526020600020905b8154815290600101906020018083116111a757829003601f168201915b5050505050604051806040016040528060018152602001600b60fb1b81525061207e565b15611267576007818154811061120057611200613631565b60009182526020909120600b90910201600401546001600160a01b031633146112625760405162461bcd60e51b8152602060048201526014602482015273596f7520617265206e6f7420706c61796572203160601b604482015260640161033c565b6112dc565b6007818154811061127a5761127a613631565b60009182526020909120600b90910201600501546001600160a01b031633146112dc5760405162461bcd60e51b81526020600482015260146024820152732cb7ba9030b932903737ba10383630bcb2b9101960611b604482015260640161033c565b600781815481106112ef576112ef613631565b90600052602060002090600b02016001016007828154811061131357611313613631565b90600052602060002090600b0201600201838154811061133557611335613631565b90600052602060002001908161134b9190613660565b507f9659242f3970136bf08cba261398ae9f0bc58a676137d79d3c2040dcdacbc18b6007828154811061138057611380613631565b90600052602060002090600b0201600201826040516113a0929190613811565b60405180910390a16113b181612318565b5050565b600781815481106113c557600080fd5b60009182526020909120600b90910201805460018201805460ff9092169350906113ee906134e8565b80601f016020809104026020016040519081016040528092919081815260200182805461141a906134e8565b80156114675780601f1061143c57610100808354040283529160200191611467565b820191906000526020600020905b81548152906001019060200180831161144a57829003601f168201915b505050600484015460058501546006860154600787015460088801546009890154600a9099015497986001600160a01b039586169894861697509295509316929189565b6006546001600160a01b031633146114f55760405162461bcd60e51b815260206004820152600d60248201526c2737ba103a34329037bbb732b960991b604482015260640161033c565b600554600080546040516370a0823160e01b81523060048201529192916001600160a01b03909116906370a0823190602401602060405180830381865afa158015611544573d6000803e3d6000fd5b505050506040513d601f19601f820116820180604052508101906115689190613414565b611572919061349e565b116115b85760405162461bcd60e51b815260206004820152601660248201527554686520746f6b656e206973206e6f7420657874726160501b604482015260640161033c565b6000546006546005546040516370a0823160e01b81523060048201526001600160a01b039384169363a9059cbb9316919084906370a0823190602401602060405180830381865afa158015611611573d6000803e3d6000fd5b505050506040513d601f19601f820116820180604052508101906116359190613414565b61163f919061349e565b6040516001600160e01b031960e085901b1681526001600160a01b03909216600483015260248201526044016020604051808303816000875af115801561168a573d6000803e3d6000fd5b505050506040513d601f19601f82011682018060405250810190610b76919061342d565b6116b6612dd5565b600782815481106116c9576116c9613631565b6000918252602091829020604080516101608101909152600b90920201805460ff16151582526001810180549293919291840191611706906134e8565b80601f0160208091040260200160405190810160405280929190818152602001828054611732906134e8565b801561177f5780601f106117545761010080835404028352916020019161177f565b820191906000526020600020905b81548152906001019060200180831161176257829003601f168201915b5050505050815260200160028201805480602002602001604051908101604052809291908181526020016000905b828210156118595783829060005260206000200180546117cc906134e8565b80601f01602080910402602001604051908101604052809291908181526020018280546117f8906134e8565b80156118455780601f1061181a57610100808354040283529160200191611845565b820191906000526020600020905b81548152906001019060200180831161182857829003601f168201915b5050505050815260200190600101906117ad565b505050508152602001600382018054806020026020016040519081016040528092919081815260200182805480156118b057602002820191906000526020600020905b81548152602001906001019080831161189c575b505050918352505060048201546001600160a01b039081166020830152600583015481166040830152600683015460608301526007830154166080820152600882015460a0820152600982015460c0820152600a9091015460e09091015292915050565b600654600160a01b900460ff16156119665760405162461bcd60e51b8152602060048201526015602482015274115c9c9bdc8e881499595b9d1c985b9d0818d85b1b605a1b604482015260640161033c565b6006805460ff60a01b1916600160a01b179055600780548390811061198d5761198d613631565b90600052602060002090600b020160060154600103611f7a57600782815481106119b9576119b9613631565b600091825260208220600b91909102016008015490546040516370a0823160e01b81523360048201526001600160a01b03909116906370a0823190602401602060405180830381865afa158015611a14573d6000803e3d6000fd5b505050506040513d601f19601f82011682018060405250810190611a389190613414565b1015611a7b5760405162461bcd60e51b81526020600482015260126024820152714e6f7420656e6f7567682062616c616e636560701b604482015260640161033c565b60078281548110611a8e57611a8e613631565b90600052602060002090600b0201600801548114611aee5760405162461bcd60e51b815260206004820152601a60248201527f4e65656420746f20706179206d696e2062657420616d6f756e74000000000000604482015260640161033c565b60005460405163095ea7b360e01b8152336004820152602481018390526001600160a01b039091169063095ea7b3906044016020604051808303816000875af1158015611b3f573d6000803e3d6000fd5b505050506040513d601f19601f82011682018060405250810190611b63919061342d565b506000606460035483611b769190613465565b611b80919061347c565b90506000606460045484611b949190613465565b611b9e919061347c565b9050600081611bad848661349e565b611bb7919061349e565b6000546040516323b872dd60e01b81529192506001600160a01b0316906323b872dd90611bee90339061dead9088906004016134b1565b6020604051808303816000875af1158015611c0d573d6000803e3d6000fd5b505050506040513d601f19601f82011682018060405250810190611c31919061342d565b506000546002546040516323b872dd60e01b81526001600160a01b03928316926323b872dd92611c6b9233929091169087906004016134b1565b6020604051808303816000875af1158015611c8a573d6000803e3d6000fd5b505050506040513d601f19601f82011682018060405250810190611cae919061342d565b506000546040516323b872dd60e01b81526001600160a01b03909116906323b872dd90611ce3903390309086906004016134b1565b6020604051808303816000875af1158015611d02573d6000803e3d6000fd5b505050506040513d601f19601f82011682018060405250810190611d26919061342d565b508060056000828254611d3991906134d5565b90915550506007805486908110611d5257611d52613631565b600091825260209091206004600b9092020101546001600160a01b03163303611dc95760405162461bcd60e51b8152602060048201526024808201527f4572726f723a20596f752063616e6e6f7420706c6179207769746820796f757260448201526339b2b63360e11b606482015260840161033c565b3360078681548110611ddd57611ddd613631565b90600052602060002090600b020160050160006101000a8154816001600160a01b0302191690836001600160a01b03160217905550600260078681548110611e2757611e27613631565b90600052602060002090600b020160060181905550600160078681548110611e5157611e51613631565b90600052602060002090600b020160000160006101000a81548160ff0219169083151502179055508360078681548110611e8d57611e8d613631565b90600052602060002090600b0201600901819055507f2f78808c539fd07cb45456a5d5561c76d3d4005246faccb297481e511abc321a60078681548110611ed657611ed6613631565b90600052602060002090600b020160040160009054906101000a90046001600160a01b031660078781548110611f0e57611f0e613631565b6000918252602091829020600b91820201600501546040805160808082528101939093526a53746172742067616d652160a81b60a08401526001600160a01b039485169383019390935292909216908201526060810187905260c00160405180910390a1505050612014565b60078281548110611f8d57611f8d613631565b90600052602060002090600b0201600601546002146120145760405162461bcd60e51b815260206004820152603e60248201527f4e6f772071756575652069732066756c6c2c20747279206c617465722e20476160448201527f6d6520616c72656164792066756c6c20706c73206a6f696e206f746865720000606482015260840161033c565b7f50370b40bd566613cb1b12508c3114409e62c5c8de11be443cafc84462cf56996007838154811061204857612048613631565b90600052602060002090600b020183604051612065929190613868565b60405180910390a150506006805460ff60a01b19169055565b6000816040516020016120919190613948565b60405160208183030381529060405280519060200120836040516020016120b89190613948565b604051602081830303815290604052805190602001201490505b92915050565b6060600782815481106120ed576120ed613631565b90600052602060002090600b0201600201805480602002602001604051908101604052809291908181526020016000905b828210156121ca57838290600052602060002001805461213d906134e8565b80601f0160208091040260200160405190810160405280929190818152602001828054612169906134e8565b80156121b65780601f1061218b576101008083540402835291602001916121b6565b820191906000526020600020905b81548152906001019060200180831161219957829003601f168201915b50505050508152602001906001019061211e565b505050509050919050565b6006546001600160a01b0316331461221f5760405162461bcd60e51b815260206004820152600d60248201526c2737ba103a34329037bbb732b960991b604482015260640161033c565b6000546006546040516370a0823160e01b81523060048201526001600160a01b039283169263a9059cbb92169083906370a0823190602401602060405180830381865afa158015612274573d6000803e3d6000fd5b505050506040513d601f19601f8201168201806040525081019061163f9190613414565b6000600782815481106122ad576122ad613631565b60009182526020909120600b90910201600401546001600160a01b03163314806123055750600782815481106122e5576122e5613631565b60009182526020909120600b90910201600501546001600160a01b031633145b6123105760006120d2565b600192915050565b6000805b60085481101561284b5760006008828154811061233b5761233b613631565b9060005260206000200180548060200260200160405190810160405280929190818152602001828054801561238f57602002820191906000526020600020905b81548152602001906001019080831161237b575b505050505090506000600785815481106123ab576123ab613631565b90600052602060002090600b0201600201826000815181106123cf576123cf613631565b6020026020010151815481106123e7576123e7613631565b9060005260206000200180546123fc906134e8565b80601f0160208091040260200160405190810160405280929190818152602001828054612428906134e8565b80156124755780601f1061244a57610100808354040283529160200191612475565b820191906000526020600020905b81548152906001019060200180831161245857829003601f168201915b5050505050905060006007868154811061249157612491613631565b90600052602060002090600b0201600201836001815181106124b5576124b5613631565b6020026020010151815481106124cd576124cd613631565b9060005260206000200180546124e2906134e8565b80601f016020809104026020016040519081016040528092919081815260200182805461250e906134e8565b801561255b5780601f106125305761010080835404028352916020019161255b565b820191906000526020600020905b81548152906001019060200180831161253e57829003601f168201915b5050505050905060006007878154811061257757612577613631565b90600052602060002090600b02016002018460028151811061259b5761259b613631565b6020026020010151815481106125b3576125b3613631565b9060005260206000200180546125c8906134e8565b80601f01602080910402602001604051908101604052809291908181526020018280546125f4906134e8565b80156126415780601f1061261657610100808354040283529160200191612641565b820191906000526020600020905b81548152906001019060200180831161262457829003601f168201915b50505050509050612661836040518060200160405280600081525061207e565b806126805750612680826040518060200160405280600081525061207e565b8061269f575061269f816040518060200160405280600081525061207e565b156126ad5750505050612839565b6126b7838361207e565b80156126c857506126c8828261207e565b156128345783600788815481106126e1576126e1613631565b90600052602060002090600b02016003019080519060200190612705929190612ea2565b5061271c6007888154811061112f5761112f613631565b156127a6576007878154811061273457612734613631565b90600052602060002090600b020160040160009054906101000a90046001600160a01b03166007888154811061276c5761276c613631565b90600052602060002090600b020160070160006101000a8154816001600160a01b0302191690836001600160a01b03160217905550612827565b600787815481106127b9576127b9613631565b90600052602060002090600b020160050160009054906101000a90046001600160a01b0316600788815481106127f1576127f1613631565b90600052602060002090600b020160070160006101000a8154816001600160a01b0302191690836001600160a01b031602179055505b600195505050505061284b565b505050505b8061284381613647565b91505061231c565b508015612b10576128686007838154811061112f5761112f613631565b1561295857600054600780546001600160a01b039092169163a9059cbb91908590811061289757612897613631565b90600052602060002090600b020160040160009054906101000a90046001600160a01b0316600785815481106128cf576128cf613631565b60009182526020909120600a600b9092020101546040516001600160e01b031960e085901b1681526001600160a01b03909216600483015260248201526044016020604051808303816000875af115801561292e573d6000803e3d6000fd5b505050506040513d601f19601f82011682018060405250810190612952919061342d565b50612a3f565b600054600780546001600160a01b039092169163a9059cbb91908590811061298257612982613631565b90600052602060002090600b020160050160009054906101000a90046001600160a01b0316600785815481106129ba576129ba613631565b60009182526020909120600a600b9092020101546040516001600160e01b031960e085901b1681526001600160a01b03909216600483015260248201526044016020604051808303816000875af1158015612a19573d6000803e3d6000fd5b505050506040513d601f19601f82011682018060405250810190612a3d919061342d565b505b60078281548110612a5257612a52613631565b90600052602060002090600b0201600a015460056000828254612a75919061349e565b925050819055507f938a1c44580c51d01225d61fb97878104148b1cdc734eb45bc5b5b50533a492d60078381548110612ab057612ab0613631565b90600052602060002090600b020160010183604051612ad0929190613964565b60405180910390a1600060078381548110612aed57612aed613631565b60009182526020909120600b90910201805460ff19169115159190911790555050565b612b1982612b75565b15612b6c5760408051818152600491810191909152634472617760e01b6060820152602081018390527f938a1c44580c51d01225d61fb97878104148b1cdc734eb45bc5b5b50533a492d90608001612ad0565b6113b182612c09565b6000805b60078381548110612b8c57612b8c613631565b90600052602060002090600b020160020180549050811015612c0057612be060078481548110612bbe57612bbe613631565b90600052602060002090600b0201600201828154811061103557611035613631565b15612bee5750600092915050565b80612bf881613647565b915050612b79565b50600192915050565b612c1f6007828154811061112f5761112f613631565b15612c92577feefc3fd775b975165c9d067e02fcd5bf5889d58041ae6ddaf94f2cc85300727260078281548110612c5857612c58613631565b6000918252602091829020600b9091020160050154604080516001600160a01b0390921682529181018490520160405180910390a1612cfc565b7feefc3fd775b975165c9d067e02fcd5bf5889d58041ae6ddaf94f2cc85300727260078281548110612cc657612cc6613631565b6000918252602091829020600b9091020160040154604080516001600160a01b0390921682529181018490520160405180910390a15b612d126007828154811061112f5761112f613631565b612d3557604051806040016040528060018152602001600b60fb1b815250612d50565b604051806040016040528060018152602001604f60f81b8152505b60078281548110612d6357612d63613631565b90600052602060002090600b02016001019081612d809190613571565b507fa6d1cb5f730b987124c37c3876130fddba49456449948ec4257360f5ab2851c060078281548110612db557612db5613631565b90600052602060002090600b020160010182604051610f7f929190613964565b60405180610160016040528060001515815260200160608152602001606081526020016060815260200160006001600160a01b0316815260200160006001600160a01b031681526020016000815260200160006001600160a01b031681526020016000815260200160008152602001600081525090565b828054828255906000526020600020908101928215612e92579160200282015b82811115612e925782518290612e829082613571565b5091602001919060010190612e6c565b50612e9e929150612f2f565b5090565b828054828255906000526020600020908101928215612edd579160200282015b82811115612edd578251825591602001919060010190612ec2565b50612e9e929150612f4c565b828054828255906000526020600020908101928215612e92579160200282015b82811115612e925782518290612f1f9082613571565b5091602001919060010190612f09565b80821115612e9e576000612f438282612f61565b50600101612f2f565b5b80821115612e9e5760008155600101612f4d565b508054612f6d906134e8565b6000825580601f10612f7d575050565b601f016020900490600052602060002090810190610b769190612f4c565b600060208284031215612fad57600080fd5b5035919050565b6020808252825182820181905260009190848201906040850190845b81811015612fec57835183529284019291840191600101612fd0565b50909695505050505050565b60005b83811015613013578181015183820152602001612ffb565b50506000910152565b60008151808452613034816020860160208601612ff8565b601f01601f19169290920160200192915050565b600082825180855260208086019550808260051b84010181860160005b8481101561309357601f1986840301895261308183835161301c565b98840198925090830190600101613065565b5090979650505050505050565b600081518084526020808501945080840160005b838110156130d0578151875295820195908201906001016130b4565b509495945050505050565b805115158252600061016060208301518160208601526130fd8286018261301c565b915050604083015184820360408601526131178282613048565b9150506060830151848203606086015261313182826130a0565b915050608083015161314e60808601826001600160a01b03169052565b5060a083015161316960a08601826001600160a01b03169052565b5060c083015160c085015260e083015161318e60e08601826001600160a01b03169052565b50610100838101519085015261012080840151908501526101409283015192909301919091525090565b6000602080830181845280855180835260408601915060408160051b870101925083870160005b8281101561320d57603f198886030184526131fb8583516130db565b945092850192908501906001016131df565b5092979650505050505050565b6000806040838503121561322d57600080fd5b50508035926020909101359150565b60006101208b151583528060208401526132588184018c61301c565b6001600160a01b039a8b166040850152988a166060840152505060808101959095529290951660a084015260c083015260e0820193909352610100019190915292915050565b6020815260006132b160208301846130db565b9392505050565b634e487b7160e01b600052604160045260246000fd5b600082601f8301126132df57600080fd5b813567ffffffffffffffff808211156132fa576132fa6132b8565b604051601f8301601f19908116603f01168101908282118183101715613322576133226132b8565b8160405283815286602085880101111561333b57600080fd5b836020870160208301376000602085830101528094505050505092915050565b6000806040838503121561336e57600080fd5b823567ffffffffffffffff8082111561338657600080fd5b613392868387016132ce565b935060208501359150808211156133a857600080fd5b506133b5858286016132ce565b9150509250929050565b6000602080830181845280855180835260408601915060408160051b870101925083870160005b8281101561320d57603f1988860301845261340285835161301c565b945092850192908501906001016133e6565b60006020828403121561342657600080fd5b5051919050565b60006020828403121561343f57600080fd5b815180151581146132b157600080fd5b634e487b7160e01b600052601160045260246000fd5b80820281158282048414176120d2576120d261344f565b60008261349957634e487b7160e01b600052601260045260246000fd5b500490565b818103818111156120d2576120d261344f565b6001600160a01b039384168152919092166020820152604081019190915260600190565b808201808211156120d2576120d261344f565b600181811c908216806134fc57607f821691505b60208210810361351c57634e487b7160e01b600052602260045260246000fd5b50919050565b601f82111561356c57600081815260208120601f850160051c810160208610156135495750805b601f850160051c820191505b8181101561356857828155600101613555565b5050505b505050565b815167ffffffffffffffff81111561358b5761358b6132b8565b61359f8161359984546134e8565b84613522565b602080601f8311600181146135d457600084156135bc5750858301515b600019600386901b1c1916600185901b178555613568565b600085815260208120601f198616915b82811015613603578886015182559484019460019091019084016135e4565b50858210156136215787850151600019600388901b60f8161c191681555b5050505050600190811b01905550565b634e487b7160e01b600052603260045260246000fd5b6000600182016136595761365961344f565b5060010190565b81810361366b575050565b61367582546134e8565b67ffffffffffffffff81111561368d5761368d6132b8565b61369b8161359984546134e8565b6000601f8211600181146136cf57600083156136b75750848201545b600019600385901b1c1916600184901b178455613734565b600085815260209020601f19841690600086815260209020845b8381101561370957828601548255600195860195909101906020016136e9565b50858310156137275781850154600019600388901b60f8161c191681555b50505060018360011b0184555b5050505050565b60008154613748816134e8565b808552602060018381168015613765576001811461377f576137ad565b60ff1985168884015283151560051b8801830195506137ad565b866000528260002060005b858110156137a55781548a820186015290830190840161378a565b890184019650505b505050505092915050565b600081548084526020808501808196508360051b81019150856000528260002060005b858110156138045782840389526137f2848361373b565b988501989350600191820191016137db565b5091979650505050505050565b60408152600061382460408301856137b8565b90508260208301529392505050565b6000815480845260208085019450836000528060002060005b838110156130d05781548752958201956001918201910161384c565b604081526138846040820161387e855460ff1690565b15159052565b60006101608060608401526138a06101a084016001870161373b565b603f19808583030160808601526138ba82600289016137b8565b9150808583030160a0860152506138d48160038801613833565b90506138ea60048701546001600160a01b031690565b6001600160a01b0390811660c08601526005870154811660e086015260068701546101008601526007870154166101208501526008860154610140850152600986015491840191909152600a90940154610180830152506020015290565b6000825161395a818460208701612ff8565b9190910192915050565b604081526000613824604083018561373b56fea2646970667358221220d0d48a2aac08f99090ed20b39a83d397543f6a1242350d6dc493733140d0f4e964736f6c63430008130033",
					"opcodes": "PUSH1 0x0 DUP1 SLOAD PUSH1 0x1 PUSH1 0x1 PUSH1 0xA0 SHL SUB NOT SWAP1 DUP2 AND PUSH20 0xC6BDDCD0DA1C50281F02A57B8D2ADA2EBF76AEC7 OR DUP3 SSTORE PUSH8 0x8AC7230489E80000 PUSH1 0x1 SWAP1 DUP2 SSTORE PUSH1 0x2 DUP1 SLOAD SWAP1 SWAP3 AND PUSH20 0x3CE5A8A72820585C60F659896338D57347196991 OR DUP3 SSTORE PUSH1 0x5 PUSH1 0x3 DUP2 DUP2 SSTORE PUSH1 0x4 DUP3 DUP2 SSTORE PUSH2 0x180 DUP7 DUP2 MSTORE PUSH2 0x1A0 DUP6 SWAP1 MSTORE PUSH2 0x1C0 DUP7 SWAP1 MSTORE PUSH1 0x80 SWAP1 DUP2 MSTORE PUSH2 0x1E0 DUP4 DUP2 MSTORE PUSH2 0x200 DUP4 SWAP1 MSTORE PUSH2 0x220 DUP6 SWAP1 MSTORE PUSH1 0xA0 MSTORE PUSH1 0x6 PUSH2 0x240 DUP2 DUP2 MSTORE PUSH1 0x7 PUSH2 0x260 DUP2 SWAP1 MSTORE PUSH1 0x8 PUSH2 0x280 DUP2 SWAP1 MSTORE PUSH1 0xC0 SWAP3 SWAP1 SWAP3 MSTORE PUSH2 0x2A0 DUP11 DUP2 MSTORE PUSH2 0x2C0 SWAP7 SWAP1 SWAP7 MSTORE PUSH2 0x2E0 DUP4 SWAP1 MSTORE PUSH1 0xE0 SWAP6 SWAP1 SWAP6 MSTORE PUSH2 0x300 SWAP7 DUP8 MSTORE PUSH2 0x320 DUP5 SWAP1 MSTORE PUSH2 0x340 SWAP5 SWAP1 SWAP5 MSTORE PUSH2 0x100 SWAP6 SWAP1 SWAP6 MSTORE PUSH2 0x360 DUP7 DUP2 MSTORE PUSH2 0x380 SWAP5 SWAP1 SWAP5 MSTORE PUSH2 0x3A0 DUP4 SWAP1 MSTORE PUSH2 0x120 SWAP4 SWAP1 SWAP4 MSTORE PUSH2 0x3C0 SWAP6 DUP7 MSTORE PUSH2 0x3E0 DUP2 SWAP1 MSTORE PUSH2 0x400 DUP3 SWAP1 MSTORE PUSH2 0x140 SWAP6 SWAP1 SWAP6 MSTORE PUSH2 0x480 PUSH1 0x40 MSTORE PUSH2 0x420 SWAP4 DUP5 MSTORE PUSH2 0x440 SWAP5 SWAP1 SWAP5 MSTORE PUSH2 0x460 SWAP2 SWAP1 SWAP2 MSTORE PUSH2 0x160 SWAP2 SWAP1 SWAP2 MSTORE PUSH3 0x13E SWAP2 SWAP1 DUP2 PUSH3 0x165 JUMP JUMPDEST POP CALLVALUE DUP1 ISZERO PUSH3 0x14C JUMPI PUSH1 0x0 DUP1 REVERT JUMPDEST POP PUSH1 0x6 DUP1 SLOAD PUSH1 0x1 PUSH1 0x1 PUSH1 0xA0 SHL SUB NOT AND CALLER OR SWAP1 SSTORE PUSH3 0x26F JUMP JUMPDEST DUP3 DUP1 SLOAD DUP3 DUP3 SSTORE SWAP1 PUSH1 0x0 MSTORE PUSH1 0x20 PUSH1 0x0 KECCAK256 SWAP1 DUP2 ADD SWAP3 DUP3 ISZERO PUSH3 0x1B1 JUMPI SWAP2 PUSH1 0x20 MUL DUP3 ADD JUMPDEST DUP3 DUP2 GT ISZERO PUSH3 0x1B1 JUMPI DUP3 MLOAD PUSH3 0x1A0 SWAP1 DUP4 SWAP1 PUSH1 0x3 PUSH3 0x1C3 JUMP JUMPDEST POP SWAP2 PUSH1 0x20 ADD SWAP2 SWAP1 PUSH1 0x1 ADD SWAP1 PUSH3 0x186 JUMP JUMPDEST POP PUSH3 0x1BF SWAP3 SWAP2 POP PUSH3 0x214 JUMP JUMPDEST POP SWAP1 JUMP JUMPDEST DUP3 DUP1 SLOAD DUP3 DUP3 SSTORE SWAP1 PUSH1 0x0 MSTORE PUSH1 0x20 PUSH1 0x0 KECCAK256 SWAP1 DUP2 ADD SWAP3 DUP3 ISZERO PUSH3 0x206 JUMPI SWAP2 PUSH1 0x20 MUL DUP3 ADD JUMPDEST DUP3 DUP2 GT ISZERO PUSH3 0x206 JUMPI DUP3 MLOAD DUP3 SWAP1 PUSH1 0xFF AND SWAP1 SSTORE SWAP2 PUSH1 0x20 ADD SWAP2 SWAP1 PUSH1 0x1 ADD SWAP1 PUSH3 0x1E4 JUMP JUMPDEST POP PUSH3 0x1BF SWAP3 SWAP2 POP PUSH3 0x235 JUMP JUMPDEST DUP1 DUP3 GT ISZERO PUSH3 0x1BF JUMPI PUSH1 0x0 PUSH3 0x22B DUP3 DUP3 PUSH3 0x24C JUMP JUMPDEST POP PUSH1 0x1 ADD PUSH3 0x214 JUMP JUMPDEST JUMPDEST DUP1 DUP3 GT ISZERO PUSH3 0x1BF JUMPI PUSH1 0x0 DUP2 SSTORE PUSH1 0x1 ADD PUSH3 0x236 JUMP JUMPDEST POP DUP1 SLOAD PUSH1 0x0 DUP3 SSTORE SWAP1 PUSH1 0x0 MSTORE PUSH1 0x20 PUSH1 0x0 KECCAK256 SWAP1 DUP2 ADD SWAP1 PUSH3 0x26C SWAP2 SWAP1 PUSH3 0x235 JUMP JUMPDEST POP JUMP JUMPDEST PUSH2 0x39AD DUP1 PUSH3 0x27F PUSH1 0x0 CODECOPY PUSH1 0x0 RETURN INVALID PUSH1 0x80 PUSH1 0x40 MSTORE CALLVALUE DUP1 ISZERO PUSH2 0x10 JUMPI PUSH1 0x0 DUP1 REVERT JUMPDEST POP PUSH1 0x4 CALLDATASIZE LT PUSH2 0x12C JUMPI PUSH1 0x0 CALLDATALOAD PUSH1 0xE0 SHR DUP1 PUSH4 0x888B042F GT PUSH2 0xAD JUMPI DUP1 PUSH4 0xCC32D176 GT PUSH2 0x71 JUMPI DUP1 PUSH4 0xCC32D176 EQ PUSH2 0x2AB JUMPI DUP1 PUSH4 0xDC572C6E EQ PUSH2 0x2B4 JUMPI DUP1 PUSH4 0xEDB84FF7 EQ PUSH2 0x2D4 JUMPI DUP1 PUSH4 0xFA968EEA EQ PUSH2 0x2DC JUMPI DUP1 PUSH4 0xFCE589D8 EQ PUSH2 0x2E5 JUMPI PUSH1 0x0 DUP1 REVERT JUMPDEST DUP1 PUSH4 0x888B042F EQ PUSH2 0x23A JUMPI DUP1 PUSH4 0x8DA5CB5B EQ PUSH2 0x242 JUMPI DUP1 PUSH4 0xB2182BE4 EQ PUSH2 0x255 JUMPI DUP1 PUSH4 0xB60B9FCB EQ PUSH2 0x275 JUMPI DUP1 PUSH4 0xBED34BBA EQ PUSH2 0x288 JUMPI PUSH1 0x0 DUP1 REVERT JUMPDEST DUP1 PUSH4 0x4A968391 GT PUSH2 0xF4 JUMPI DUP1 PUSH4 0x4A968391 EQ PUSH2 0x1AE JUMPI DUP1 PUSH4 0x52BC3410 EQ PUSH2 0x1C1 JUMPI DUP1 PUSH4 0x61D027B3 EQ PUSH2 0x1D4 JUMPI DUP1 PUSH4 0x7EFFB427 EQ PUSH2 0x1FF JUMPI DUP1 PUSH4 0x87052FAB EQ PUSH2 0x212 JUMPI PUSH1 0x0 DUP1 REVERT JUMPDEST DUP1 PUSH4 0x6139E8D EQ PUSH2 0x131 JUMPI DUP1 PUSH4 0x17B44960 EQ PUSH2 0x146 JUMPI DUP1 PUSH4 0x1A39D8EF EQ PUSH2 0x16F JUMPI DUP1 PUSH4 0x34FD3518 EQ PUSH2 0x186 JUMPI DUP1 PUSH4 0x491F0136 EQ PUSH2 0x199 JUMPI JUMPDEST PUSH1 0x0 DUP1 REVERT JUMPDEST PUSH2 0x144 PUSH2 0x13F CALLDATASIZE PUSH1 0x4 PUSH2 0x2F9B JUMP JUMPDEST PUSH2 0x2EE JUMP JUMPDEST STOP JUMPDEST PUSH2 0x159 PUSH2 0x154 CALLDATASIZE PUSH1 0x4 PUSH2 0x2F9B JUMP JUMPDEST PUSH2 0xA33 JUMP JUMPDEST PUSH1 0x40 MLOAD PUSH2 0x166 SWAP2 SWAP1 PUSH2 0x2FB4 JUMP JUMPDEST PUSH1 0x40 MLOAD DUP1 SWAP2 SUB SWAP1 RETURN JUMPDEST PUSH2 0x178 PUSH1 0x5 SLOAD DUP2 JUMP JUMPDEST PUSH1 0x40 MLOAD SWAP1 DUP2 MSTORE PUSH1 0x20 ADD PUSH2 0x166 JUMP JUMPDEST PUSH2 0x144 PUSH2 0x194 CALLDATASIZE PUSH1 0x4 PUSH2 0x2F9B JUMP JUMPDEST PUSH2 0xAAF JUMP JUMPDEST PUSH2 0x1A1 PUSH2 0xB79 JUMP JUMPDEST PUSH1 0x40 MLOAD PUSH2 0x166 SWAP2 SWAP1 PUSH2 0x31B8 JUMP JUMPDEST PUSH2 0x144 PUSH2 0x1BC CALLDATASIZE PUSH1 0x4 PUSH2 0x2F9B JUMP JUMPDEST PUSH2 0xE0A JUMP JUMPDEST PUSH2 0x144 PUSH2 0x1CF CALLDATASIZE PUSH1 0x4 PUSH2 0x321A JUMP JUMPDEST PUSH2 0xF8A JUMP JUMPDEST PUSH1 0x2 SLOAD PUSH2 0x1E7 SWAP1 PUSH1 0x1 PUSH1 0x1 PUSH1 0xA0 SHL SUB AND DUP2 JUMP JUMPDEST PUSH1 0x40 MLOAD PUSH1 0x1 PUSH1 0x1 PUSH1 0xA0 SHL SUB SWAP1 SWAP2 AND DUP2 MSTORE PUSH1 0x20 ADD PUSH2 0x166 JUMP JUMPDEST PUSH1 0x0 SLOAD PUSH2 0x1E7 SWAP1 PUSH1 0x1 PUSH1 0x1 PUSH1 0xA0 SHL SUB AND DUP2 JUMP JUMPDEST PUSH2 0x225 PUSH2 0x220 CALLDATASIZE PUSH1 0x4 PUSH2 0x2F9B JUMP JUMPDEST PUSH2 0x13B5 JUMP JUMPDEST PUSH1 0x40 MLOAD PUSH2 0x166 SWAP10 SWAP9 SWAP8 SWAP7 SWAP6 SWAP5 SWAP4 SWAP3 SWAP2 SWAP1 PUSH2 0x323C JUMP JUMPDEST PUSH2 0x144 PUSH2 0x14AB JUMP JUMPDEST PUSH1 0x6 SLOAD PUSH2 0x1E7 SWAP1 PUSH1 0x1 PUSH1 0x1 PUSH1 0xA0 SHL SUB AND DUP2 JUMP JUMPDEST PUSH2 0x268 PUSH2 0x263 CALLDATASIZE PUSH1 0x4 PUSH2 0x2F9B JUMP JUMPDEST PUSH2 0x16AE JUMP JUMPDEST PUSH1 0x40 MLOAD PUSH2 0x166 SWAP2 SWAP1 PUSH2 0x329E JUMP JUMPDEST PUSH2 0x144 PUSH2 0x283 CALLDATASIZE PUSH1 0x4 PUSH2 0x321A JUMP JUMPDEST PUSH2 0x1914 JUMP JUMPDEST PUSH2 0x29B PUSH2 0x296 CALLDATASIZE PUSH1 0x4 PUSH2 0x335B JUMP JUMPDEST PUSH2 0x207E JUMP JUMPDEST PUSH1 0x40 MLOAD SWAP1 ISZERO ISZERO DUP2 MSTORE PUSH1 0x20 ADD PUSH2 0x166 JUMP JUMPDEST PUSH2 0x178 PUSH1 0x4 SLOAD DUP2 JUMP JUMPDEST PUSH2 0x2C7 PUSH2 0x2C2 CALLDATASIZE PUSH1 0x4 PUSH2 0x2F9B JUMP JUMPDEST PUSH2 0x20D8 JUMP JUMPDEST PUSH1 0x40 MLOAD PUSH2 0x166 SWAP2 SWAP1 PUSH2 0x33BF JUMP JUMPDEST PUSH2 0x144 PUSH2 0x21D5 JUMP JUMPDEST PUSH2 0x178 PUSH1 0x1 SLOAD DUP2 JUMP JUMPDEST PUSH2 0x178 PUSH1 0x3 SLOAD DUP2 JUMP JUMPDEST PUSH1 0x6 SLOAD PUSH1 0x1 PUSH1 0xA0 SHL SWAP1 DIV PUSH1 0xFF AND ISZERO PUSH2 0x345 JUMPI PUSH1 0x40 MLOAD PUSH3 0x461BCD PUSH1 0xE5 SHL DUP2 MSTORE PUSH1 0x20 PUSH1 0x4 DUP3 ADD MSTORE PUSH1 0x15 PUSH1 0x24 DUP3 ADD MSTORE PUSH21 0x115C9C9BDC8E881499595B9D1C985B9D0818D85B1B PUSH1 0x5A SHL PUSH1 0x44 DUP3 ADD MSTORE PUSH1 0x64 ADD JUMPDEST PUSH1 0x40 MLOAD DUP1 SWAP2 SUB SWAP1 REVERT JUMPDEST PUSH1 0x6 DUP1 SLOAD PUSH1 0xFF PUSH1 0xA0 SHL NOT AND PUSH1 0x1 PUSH1 0xA0 SHL OR SWAP1 SSTORE PUSH1 0x0 SLOAD PUSH1 0x40 MLOAD PUSH4 0x70A08231 PUSH1 0xE0 SHL DUP2 MSTORE CALLER PUSH1 0x4 DUP3 ADD MSTORE DUP3 SWAP2 PUSH1 0x1 PUSH1 0x1 PUSH1 0xA0 SHL SUB AND SWAP1 PUSH4 0x70A08231 SWAP1 PUSH1 0x24 ADD PUSH1 0x20 PUSH1 0x40 MLOAD DUP1 DUP4 SUB DUP2 DUP7 GAS STATICCALL ISZERO DUP1 ISZERO PUSH2 0x3A0 JUMPI RETURNDATASIZE PUSH1 0x0 DUP1 RETURNDATACOPY RETURNDATASIZE PUSH1 0x0 REVERT JUMPDEST POP POP POP POP PUSH1 0x40 MLOAD RETURNDATASIZE PUSH1 0x1F NOT PUSH1 0x1F DUP3 ADD AND DUP3 ADD DUP1 PUSH1 0x40 MSTORE POP DUP2 ADD SWAP1 PUSH2 0x3C4 SWAP2 SWAP1 PUSH2 0x3414 JUMP JUMPDEST LT ISZERO PUSH2 0x407 JUMPI PUSH1 0x40 MLOAD PUSH3 0x461BCD PUSH1 0xE5 SHL DUP2 MSTORE PUSH1 0x20 PUSH1 0x4 DUP3 ADD MSTORE PUSH1 0x12 PUSH1 0x24 DUP3 ADD MSTORE PUSH18 0x4E6F7420656E6F7567682062616C616E6365 PUSH1 0x70 SHL PUSH1 0x44 DUP3 ADD MSTORE PUSH1 0x64 ADD PUSH2 0x33C JUMP JUMPDEST PUSH1 0x1 SLOAD DUP2 LT ISZERO PUSH2 0x459 JUMPI PUSH1 0x40 MLOAD PUSH3 0x461BCD PUSH1 0xE5 SHL DUP2 MSTORE PUSH1 0x20 PUSH1 0x4 DUP3 ADD MSTORE PUSH1 0x1A PUSH1 0x24 DUP3 ADD MSTORE PUSH32 0x4E65656420746F20706179206D696E2062657420616D6F756E74000000000000 PUSH1 0x44 DUP3 ADD MSTORE PUSH1 0x64 ADD PUSH2 0x33C JUMP JUMPDEST PUSH1 0x0 SLOAD PUSH1 0x40 MLOAD PUSH4 0x95EA7B3 PUSH1 0xE0 SHL DUP2 MSTORE CALLER PUSH1 0x4 DUP3 ADD MSTORE PUSH1 0x24 DUP2 ADD DUP4 SWAP1 MSTORE PUSH1 0x1 PUSH1 0x1 PUSH1 0xA0 SHL SUB SWAP1 SWAP2 AND SWAP1 PUSH4 0x95EA7B3 SWAP1 PUSH1 0x44 ADD PUSH1 0x20 PUSH1 0x40 MLOAD DUP1 DUP4 SUB DUP2 PUSH1 0x0 DUP8 GAS CALL ISZERO DUP1 ISZERO PUSH2 0x4AA JUMPI RETURNDATASIZE PUSH1 0x0 DUP1 RETURNDATACOPY RETURNDATASIZE PUSH1 0x0 REVERT JUMPDEST POP POP POP POP PUSH1 0x40 MLOAD RETURNDATASIZE PUSH1 0x1F NOT PUSH1 0x1F DUP3 ADD AND DUP3 ADD DUP1 PUSH1 0x40 MSTORE POP DUP2 ADD SWAP1 PUSH2 0x4CE SWAP2 SWAP1 PUSH2 0x342D JUMP JUMPDEST POP PUSH1 0x0 PUSH1 0x64 PUSH1 0x3 SLOAD DUP4 PUSH2 0x4E1 SWAP2 SWAP1 PUSH2 0x3465 JUMP JUMPDEST PUSH2 0x4EB SWAP2 SWAP1 PUSH2 0x347C JUMP JUMPDEST SWAP1 POP PUSH1 0x0 PUSH1 0x64 PUSH1 0x4 SLOAD DUP5 PUSH2 0x4FF SWAP2 SWAP1 PUSH2 0x3465 JUMP JUMPDEST PUSH2 0x509 SWAP2 SWAP1 PUSH2 0x347C JUMP JUMPDEST SWAP1 POP PUSH1 0x0 DUP2 PUSH2 0x518 DUP5 DUP7 PUSH2 0x349E JUMP JUMPDEST PUSH2 0x522 SWAP2 SWAP1 PUSH2 0x349E JUMP JUMPDEST PUSH1 0x0 SLOAD PUSH1 0x40 MLOAD PUSH4 0x23B872DD PUSH1 0xE0 SHL DUP2 MSTORE SWAP2 SWAP3 POP PUSH1 0x1 PUSH1 0x1 PUSH1 0xA0 SHL SUB AND SWAP1 PUSH4 0x23B872DD SWAP1 PUSH2 0x559 SWAP1 CALLER SWAP1 PUSH2 0xDEAD SWAP1 DUP9 SWAP1 PUSH1 0x4 ADD PUSH2 0x34B1 JUMP JUMPDEST PUSH1 0x20 PUSH1 0x40 MLOAD DUP1 DUP4 SUB DUP2 PUSH1 0x0 DUP8 GAS CALL ISZERO DUP1 ISZERO PUSH2 0x578 JUMPI RETURNDATASIZE PUSH1 0x0 DUP1 RETURNDATACOPY RETURNDATASIZE PUSH1 0x0 REVERT JUMPDEST POP POP POP POP PUSH1 0x40 MLOAD RETURNDATASIZE PUSH1 0x1F NOT PUSH1 0x1F DUP3 ADD AND DUP3 ADD DUP1 PUSH1 0x40 MSTORE POP DUP2 ADD SWAP1 PUSH2 0x59C SWAP2 SWAP1 PUSH2 0x342D JUMP JUMPDEST POP PUSH1 0x0 SLOAD PUSH1 0x2 SLOAD PUSH1 0x40 MLOAD PUSH4 0x23B872DD PUSH1 0xE0 SHL DUP2 MSTORE PUSH1 0x1 PUSH1 0x1 PUSH1 0xA0 SHL SUB SWAP3 DUP4 AND SWAP3 PUSH4 0x23B872DD SWAP3 PUSH2 0x5D6 SWAP3 CALLER SWAP3 SWAP1 SWAP2 AND SWAP1 DUP8 SWAP1 PUSH1 0x4 ADD PUSH2 0x34B1 JUMP JUMPDEST PUSH1 0x20 PUSH1 0x40 MLOAD DUP1 DUP4 SUB DUP2 PUSH1 0x0 DUP8 GAS CALL ISZERO DUP1 ISZERO PUSH2 0x5F5 JUMPI RETURNDATASIZE PUSH1 0x0 DUP1 RETURNDATACOPY RETURNDATASIZE PUSH1 0x0 REVERT JUMPDEST POP POP POP POP PUSH1 0x40 MLOAD RETURNDATASIZE PUSH1 0x1F NOT PUSH1 0x1F DUP3 ADD AND DUP3 ADD DUP1 PUSH1 0x40 MSTORE POP DUP2 ADD SWAP1 PUSH2 0x619 SWAP2 SWAP1 PUSH2 0x342D JUMP JUMPDEST POP PUSH1 0x0 SLOAD PUSH1 0x40 MLOAD PUSH4 0x23B872DD PUSH1 0xE0 SHL DUP2 MSTORE PUSH1 0x1 PUSH1 0x1 PUSH1 0xA0 SHL SUB SWAP1 SWAP2 AND SWAP1 PUSH4 0x23B872DD SWAP1 PUSH2 0x64E SWAP1 CALLER SWAP1 ADDRESS SWAP1 DUP7 SWAP1 PUSH1 0x4 ADD PUSH2 0x34B1 JUMP JUMPDEST PUSH1 0x20 PUSH1 0x40 MLOAD DUP1 DUP4 SUB DUP2 PUSH1 0x0 DUP8 GAS CALL ISZERO DUP1 ISZERO PUSH2 0x66D JUMPI RETURNDATASIZE PUSH1 0x0 DUP1 RETURNDATACOPY RETURNDATASIZE PUSH1 0x0 REVERT JUMPDEST POP POP POP POP PUSH1 0x40 MLOAD RETURNDATASIZE PUSH1 0x1F NOT PUSH1 0x1F DUP3 ADD AND DUP3 ADD DUP1 PUSH1 0x40 MSTORE POP DUP2 ADD SWAP1 PUSH2 0x691 SWAP2 SWAP1 PUSH2 0x342D JUMP JUMPDEST POP DUP1 PUSH1 0x5 PUSH1 0x0 DUP3 DUP3 SLOAD PUSH2 0x6A4 SWAP2 SWAP1 PUSH2 0x34D5 JUMP JUMPDEST SWAP1 SWAP2 SSTORE POP PUSH2 0x6B2 SWAP1 POP PUSH2 0x2DD5 JUMP JUMPDEST PUSH1 0x7 DUP1 SLOAD PUSH1 0x1 DUP2 ADD DUP3 SSTORE PUSH1 0x0 SWAP2 SWAP1 SWAP2 MSTORE DUP2 MLOAD PUSH32 0xA66CC928B5EDB82AF9BD49922954155AB7B0942694BEA4CE44661D9A8736C688 PUSH1 0xB SWAP1 SWAP3 MUL SWAP2 DUP3 ADD DUP1 SLOAD PUSH1 0xFF NOT AND SWAP2 ISZERO ISZERO SWAP2 SWAP1 SWAP2 OR DUP2 SSTORE PUSH1 0x20 DUP4 ADD MLOAD DUP4 SWAP3 PUSH32 0xA66CC928B5EDB82AF9BD49922954155AB7B0942694BEA4CE44661D9A8736C689 ADD SWAP1 PUSH2 0x730 SWAP1 DUP3 PUSH2 0x3571 JUMP JUMPDEST POP PUSH1 0x40 DUP3 ADD MLOAD DUP1 MLOAD PUSH2 0x74C SWAP2 PUSH1 0x2 DUP5 ADD SWAP2 PUSH1 0x20 SWAP1 SWAP2 ADD SWAP1 PUSH2 0x2E4C JUMP JUMPDEST POP PUSH1 0x60 DUP3 ADD MLOAD DUP1 MLOAD PUSH2 0x768 SWAP2 PUSH1 0x3 DUP5 ADD SWAP2 PUSH1 0x20 SWAP1 SWAP2 ADD SWAP1 PUSH2 0x2EA2 JUMP JUMPDEST POP PUSH1 0x80 DUP3 ADD MLOAD PUSH1 0x4 DUP3 ADD DUP1 SLOAD PUSH1 0x1 PUSH1 0x1 PUSH1 0xA0 SHL SUB NOT SWAP1 DUP2 AND PUSH1 0x1 PUSH1 0x1 PUSH1 0xA0 SHL SUB SWAP4 DUP5 AND OR SWAP1 SWAP2 SSTORE PUSH1 0xA0 DUP5 ADD MLOAD PUSH1 0x5 DUP5 ADD DUP1 SLOAD DUP4 AND SWAP2 DUP5 AND SWAP2 SWAP1 SWAP2 OR SWAP1 SSTORE PUSH1 0xC0 DUP5 ADD MLOAD PUSH1 0x6 DUP5 ADD SSTORE PUSH1 0xE0 DUP5 ADD MLOAD PUSH1 0x7 DUP1 DUP6 ADD DUP1 SLOAD SWAP1 SWAP4 AND SWAP2 SWAP1 SWAP4 AND OR SWAP1 SSTORE PUSH2 0x100 DUP4 ADD MLOAD PUSH1 0x8 DUP4 ADD SSTORE PUSH2 0x120 DUP4 ADD MLOAD PUSH1 0x9 DUP4 ADD SSTORE PUSH2 0x140 SWAP1 SWAP3 ADD MLOAD PUSH1 0xA SWAP1 SWAP2 ADD SSTORE DUP1 SLOAD SWAP1 CALLER SWAP1 PUSH2 0x7F8 PUSH1 0x1 DUP5 PUSH2 0x349E JUMP JUMPDEST DUP2 SLOAD DUP2 LT PUSH2 0x808 JUMPI PUSH2 0x808 PUSH2 0x3631 JUMP JUMPDEST PUSH1 0x0 SWAP2 DUP3 MSTORE PUSH1 0x20 DUP3 KECCAK256 PUSH1 0xB SWAP2 SWAP1 SWAP2 MUL ADD PUSH1 0x4 ADD DUP1 SLOAD PUSH1 0x1 PUSH1 0x1 PUSH1 0xA0 SHL SUB NOT AND PUSH1 0x1 PUSH1 0x1 PUSH1 0xA0 SHL SUB SWAP4 SWAP1 SWAP4 AND SWAP3 SWAP1 SWAP3 OR SWAP1 SWAP2 SSTORE PUSH1 0x7 PUSH2 0x847 PUSH1 0x1 DUP5 PUSH2 0x349E JUMP JUMPDEST DUP2 SLOAD DUP2 LT PUSH2 0x857 JUMPI PUSH2 0x857 PUSH2 0x3631 JUMP JUMPDEST PUSH1 0x0 SWAP2 DUP3 MSTORE PUSH1 0x20 SWAP1 SWAP2 KECCAK256 PUSH1 0xB SWAP1 SWAP2 MUL ADD DUP1 SLOAD PUSH1 0xFF NOT AND SWAP2 ISZERO ISZERO SWAP2 SWAP1 SWAP2 OR SWAP1 SSTORE PUSH1 0x1 PUSH1 0x7 PUSH2 0x884 DUP3 DUP5 PUSH2 0x349E JUMP JUMPDEST DUP2 SLOAD DUP2 LT PUSH2 0x894 JUMPI PUSH2 0x894 PUSH2 0x3631 JUMP JUMPDEST SWAP1 PUSH1 0x0 MSTORE PUSH1 0x20 PUSH1 0x0 KECCAK256 SWAP1 PUSH1 0xB MUL ADD PUSH1 0x6 ADD DUP2 SWAP1 SSTORE POP PUSH1 0x40 MLOAD DUP1 PUSH1 0x40 ADD PUSH1 0x40 MSTORE DUP1 PUSH1 0x1 DUP2 MSTORE PUSH1 0x20 ADD PUSH1 0xB PUSH1 0xFB SHL DUP2 MSTORE POP PUSH1 0x7 PUSH1 0x1 DUP4 PUSH2 0x8D2 SWAP2 SWAP1 PUSH2 0x349E JUMP JUMPDEST DUP2 SLOAD DUP2 LT PUSH2 0x8E2 JUMPI PUSH2 0x8E2 PUSH2 0x3631 JUMP JUMPDEST SWAP1 PUSH1 0x0 MSTORE PUSH1 0x20 PUSH1 0x0 KECCAK256 SWAP1 PUSH1 0xB MUL ADD PUSH1 0x1 ADD SWAP1 DUP2 PUSH2 0x8FF SWAP2 SWAP1 PUSH2 0x3571 JUMP JUMPDEST POP DUP6 PUSH1 0x7 PUSH2 0x90E PUSH1 0x1 DUP5 PUSH2 0x349E JUMP JUMPDEST DUP2 SLOAD DUP2 LT PUSH2 0x91E JUMPI PUSH2 0x91E PUSH2 0x3631 JUMP JUMPDEST PUSH1 0x0 SWAP2 DUP3 MSTORE PUSH1 0x20 SWAP1 SWAP2 KECCAK256 PUSH1 0x8 PUSH1 0xB SWAP1 SWAP3 MUL ADD ADD SSTORE DUP3 PUSH1 0x7 PUSH2 0x940 PUSH1 0x1 DUP5 PUSH2 0x349E JUMP JUMPDEST DUP2 SLOAD DUP2 LT PUSH2 0x950 JUMPI PUSH2 0x950 PUSH2 0x3631 JUMP JUMPDEST SWAP1 PUSH1 0x0 MSTORE PUSH1 0x20 PUSH1 0x0 KECCAK256 SWAP1 PUSH1 0xB MUL ADD PUSH1 0xA ADD DUP2 SWAP1 SSTORE POP PUSH1 0x0 JUMPDEST PUSH1 0x9 DUP2 LT ISZERO PUSH2 0x9E0 JUMPI PUSH1 0x7 PUSH2 0x97E PUSH1 0x1 DUP5 PUSH2 0x349E JUMP JUMPDEST DUP2 SLOAD DUP2 LT PUSH2 0x98E JUMPI PUSH2 0x98E PUSH2 0x3631 JUMP JUMPDEST PUSH1 0x0 SWAP2 DUP3 MSTORE PUSH1 0x20 DUP1 DUP4 KECCAK256 PUSH1 0x2 PUSH1 0xB SWAP1 SWAP4 MUL ADD SWAP2 SWAP1 SWAP2 ADD DUP1 SLOAD PUSH1 0x1 DUP2 ADD DUP3 SSTORE SWAP1 DUP4 MSTORE DUP2 DUP4 KECCAK256 PUSH1 0x40 DUP1 MLOAD SWAP4 DUP5 ADD SWAP1 MSTORE SWAP3 DUP3 MSTORE SWAP2 SWAP1 SWAP2 ADD SWAP1 PUSH2 0x9CD SWAP1 DUP3 PUSH2 0x3571 JUMP JUMPDEST POP DUP1 PUSH2 0x9D8 DUP2 PUSH2 0x3647 JUMP JUMPDEST SWAP2 POP POP PUSH2 0x968 JUMP JUMPDEST POP PUSH32 0xBBBA82573073A1190D559566D39447B5E1AD7724B88B63BC98867D229A645B6B PUSH2 0xA0D PUSH1 0x1 DUP4 PUSH2 0x349E JUMP JUMPDEST PUSH1 0x40 MLOAD SWAP1 DUP2 MSTORE PUSH1 0x20 ADD PUSH1 0x40 MLOAD DUP1 SWAP2 SUB SWAP1 LOG1 POP POP PUSH1 0x6 DUP1 SLOAD PUSH1 0xFF PUSH1 0xA0 SHL NOT AND SWAP1 SSTORE POP POP POP POP JUMP JUMPDEST PUSH1 0x60 PUSH1 0x7 DUP3 DUP2 SLOAD DUP2 LT PUSH2 0xA48 JUMPI PUSH2 0xA48 PUSH2 0x3631 JUMP JUMPDEST SWAP1 PUSH1 0x0 MSTORE PUSH1 0x20 PUSH1 0x0 KECCAK256 SWAP1 PUSH1 0xB MUL ADD PUSH1 0x3 ADD DUP1 SLOAD DUP1 PUSH1 0x20 MUL PUSH1 0x20 ADD PUSH1 0x40 MLOAD SWAP1 DUP2 ADD PUSH1 0x40 MSTORE DUP1 SWAP3 SWAP2 SWAP1 DUP2 DUP2 MSTORE PUSH1 0x20 ADD DUP3 DUP1 SLOAD DUP1 ISZERO PUSH2 0xAA3 JUMPI PUSH1 0x20 MUL DUP3 ADD SWAP2 SWAP1 PUSH1 0x0 MSTORE PUSH1 0x20 PUSH1 0x0 KECCAK256 SWAP1 JUMPDEST DUP2 SLOAD DUP2 MSTORE PUSH1 0x20 ADD SWAP1 PUSH1 0x1 ADD SWAP1 DUP1 DUP4 GT PUSH2 0xA8F JUMPI JUMPDEST POP POP POP POP POP SWAP1 POP SWAP2 SWAP1 POP JUMP JUMPDEST PUSH2 0xAB8 DUP2 PUSH2 0x2298 JUMP JUMPDEST PUSH2 0xB04 JUMPI PUSH1 0x40 MLOAD PUSH3 0x461BCD PUSH1 0xE5 SHL DUP2 MSTORE PUSH1 0x20 PUSH1 0x4 DUP3 ADD MSTORE PUSH1 0x1C PUSH1 0x24 DUP3 ADD MSTORE PUSH32 0x796F7520617265206E6F7420746869732067616D6520706C6179657200000000 PUSH1 0x44 DUP3 ADD MSTORE PUSH1 0x64 ADD PUSH2 0x33C JUMP JUMPDEST PUSH1 0x7 DUP2 DUP2 SLOAD DUP2 LT PUSH2 0xB17 JUMPI PUSH2 0xB17 PUSH2 0x3631 JUMP JUMPDEST PUSH1 0x0 SWAP2 DUP3 MSTORE PUSH1 0x20 SWAP1 SWAP2 KECCAK256 PUSH1 0xB SWAP1 SWAP2 MUL ADD SLOAD PUSH1 0xFF AND ISZERO PUSH2 0xB6D JUMPI PUSH1 0x40 MLOAD PUSH3 0x461BCD PUSH1 0xE5 SHL DUP2 MSTORE PUSH1 0x20 PUSH1 0x4 DUP3 ADD MSTORE PUSH1 0x12 PUSH1 0x24 DUP3 ADD MSTORE PUSH18 0x47616D65207374696C6C20706C6179696E67 PUSH1 0x70 SHL PUSH1 0x44 DUP3 ADD MSTORE PUSH1 0x64 ADD PUSH2 0x33C JUMP JUMPDEST PUSH2 0xB76 DUP2 PUSH2 0xE0A JUMP JUMPDEST POP JUMP JUMPDEST PUSH1 0x60 PUSH1 0x7 DUP1 SLOAD DUP1 PUSH1 0x20 MUL PUSH1 0x20 ADD PUSH1 0x40 MLOAD SWAP1 DUP2 ADD PUSH1 0x40 MSTORE DUP1 SWAP3 SWAP2 SWAP1 DUP2 DUP2 MSTORE PUSH1 0x20 ADD PUSH1 0x0 SWAP1 JUMPDEST DUP3 DUP3 LT ISZERO PUSH2 0xE01 JUMPI PUSH1 0x0 DUP5 DUP2 MSTORE PUSH1 0x20 SWAP1 DUP2 SWAP1 KECCAK256 PUSH1 0x40 DUP1 MLOAD PUSH2 0x160 DUP2 ADD SWAP1 SWAP2 MSTORE PUSH1 0xB DUP6 MUL SWAP1 SWAP2 ADD DUP1 SLOAD PUSH1 0xFF AND ISZERO ISZERO DUP3 MSTORE PUSH1 0x1 DUP2 ADD DUP1 SLOAD SWAP3 SWAP4 SWAP2 SWAP3 SWAP2 DUP5 ADD SWAP2 PUSH2 0xBE3 SWAP1 PUSH2 0x34E8 JUMP JUMPDEST DUP1 PUSH1 0x1F ADD PUSH1 0x20 DUP1 SWAP2 DIV MUL PUSH1 0x20 ADD PUSH1 0x40 MLOAD SWAP1 DUP2 ADD PUSH1 0x40 MSTORE DUP1 SWAP3 SWAP2 SWAP1 DUP2 DUP2 MSTORE PUSH1 0x20 ADD DUP3 DUP1 SLOAD PUSH2 0xC0F SWAP1 PUSH2 0x34E8 JUMP JUMPDEST DUP1 ISZERO PUSH2 0xC5C JUMPI DUP1 PUSH1 0x1F LT PUSH2 0xC31 JUMPI PUSH2 0x100 DUP1 DUP4 SLOAD DIV MUL DUP4 MSTORE SWAP2 PUSH1 0x20 ADD SWAP2 PUSH2 0xC5C JUMP JUMPDEST DUP3 ADD SWAP2 SWAP1 PUSH1 0x0 MSTORE PUSH1 0x20 PUSH1 0x0 KECCAK256 SWAP1 JUMPDEST DUP2 SLOAD DUP2 MSTORE SWAP1 PUSH1 0x1 ADD SWAP1 PUSH1 0x20 ADD DUP1 DUP4 GT PUSH2 0xC3F JUMPI DUP3 SWAP1 SUB PUSH1 0x1F AND DUP3 ADD SWAP2 JUMPDEST POP POP POP POP POP DUP2 MSTORE PUSH1 0x20 ADD PUSH1 0x2 DUP3 ADD DUP1 SLOAD DUP1 PUSH1 0x20 MUL PUSH1 0x20 ADD PUSH1 0x40 MLOAD SWAP1 DUP2 ADD PUSH1 0x40 MSTORE DUP1 SWAP3 SWAP2 SWAP1 DUP2 DUP2 MSTORE PUSH1 0x20 ADD PUSH1 0x0 SWAP1 JUMPDEST DUP3 DUP3 LT ISZERO PUSH2 0xD36 JUMPI DUP4 DUP3 SWAP1 PUSH1 0x0 MSTORE PUSH1 0x20 PUSH1 0x0 KECCAK256 ADD DUP1 SLOAD PUSH2 0xCA9 SWAP1 PUSH2 0x34E8 JUMP JUMPDEST DUP1 PUSH1 0x1F ADD PUSH1 0x20 DUP1 SWAP2 DIV MUL PUSH1 0x20 ADD PUSH1 0x40 MLOAD SWAP1 DUP2 ADD PUSH1 0x40 MSTORE DUP1 SWAP3 SWAP2 SWAP1 DUP2 DUP2 MSTORE PUSH1 0x20 ADD DUP3 DUP1 SLOAD PUSH2 0xCD5 SWAP1 PUSH2 0x34E8 JUMP JUMPDEST DUP1 ISZERO PUSH2 0xD22 JUMPI DUP1 PUSH1 0x1F LT PUSH2 0xCF7 JUMPI PUSH2 0x100 DUP1 DUP4 SLOAD DIV MUL DUP4 MSTORE SWAP2 PUSH1 0x20 ADD SWAP2 PUSH2 0xD22 JUMP JUMPDEST DUP3 ADD SWAP2 SWAP1 PUSH1 0x0 MSTORE PUSH1 0x20 PUSH1 0x0 KECCAK256 SWAP1 JUMPDEST DUP2 SLOAD DUP2 MSTORE SWAP1 PUSH1 0x1 ADD SWAP1 PUSH1 0x20 ADD DUP1 DUP4 GT PUSH2 0xD05 JUMPI DUP3 SWAP1 SUB PUSH1 0x1F AND DUP3 ADD SWAP2 JUMPDEST POP POP POP POP POP DUP2 MSTORE PUSH1 0x20 ADD SWAP1 PUSH1 0x1 ADD SWAP1 PUSH2 0xC8A JUMP JUMPDEST POP POP POP POP DUP2 MSTORE PUSH1 0x20 ADD PUSH1 0x3 DUP3 ADD DUP1 SLOAD DUP1 PUSH1 0x20 MUL PUSH1 0x20 ADD PUSH1 0x40 MLOAD SWAP1 DUP2 ADD PUSH1 0x40 MSTORE DUP1 SWAP3 SWAP2 SWAP1 DUP2 DUP2 MSTORE PUSH1 0x20 ADD DUP3 DUP1 SLOAD DUP1 ISZERO PUSH2 0xD8D JUMPI PUSH1 0x20 MUL DUP3 ADD SWAP2 SWAP1 PUSH1 0x0 MSTORE PUSH1 0x20 PUSH1 0x0 KECCAK256 SWAP1 JUMPDEST DUP2 SLOAD DUP2 MSTORE PUSH1 0x20 ADD SWAP1 PUSH1 0x1 ADD SWAP1 DUP1 DUP4 GT PUSH2 0xD79 JUMPI JUMPDEST POP POP POP SWAP2 DUP4 MSTORE POP POP PUSH1 0x4 DUP3 ADD SLOAD PUSH1 0x1 PUSH1 0x1 PUSH1 0xA0 SHL SUB SWAP1 DUP2 AND PUSH1 0x20 DUP1 DUP5 ADD SWAP2 SWAP1 SWAP2 MSTORE PUSH1 0x5 DUP5 ADD SLOAD DUP3 AND PUSH1 0x40 DUP5 ADD MSTORE PUSH1 0x6 DUP5 ADD SLOAD PUSH1 0x60 DUP5 ADD MSTORE PUSH1 0x7 DUP5 ADD SLOAD SWAP1 SWAP2 AND PUSH1 0x80 DUP4 ADD MSTORE PUSH1 0x8 DUP4 ADD SLOAD PUSH1 0xA0 DUP4 ADD MSTORE PUSH1 0x9 DUP4 ADD SLOAD PUSH1 0xC0 DUP4 ADD MSTORE PUSH1 0xA SWAP1 SWAP3 ADD SLOAD PUSH1 0xE0 SWAP1 SWAP2 ADD MSTORE SWAP1 DUP3 MSTORE PUSH1 0x1 SWAP3 SWAP1 SWAP3 ADD SWAP2 ADD PUSH2 0xB9D JUMP JUMPDEST POP POP POP POP SWAP1 POP SWAP1 JUMP JUMPDEST PUSH1 0x40 MLOAD DUP1 PUSH1 0x40 ADD PUSH1 0x40 MSTORE DUP1 PUSH1 0x1 DUP2 MSTORE PUSH1 0x20 ADD PUSH1 0xB PUSH1 0xFB SHL DUP2 MSTORE POP PUSH1 0x7 DUP3 DUP2 SLOAD DUP2 LT PUSH2 0xE37 JUMPI PUSH2 0xE37 PUSH2 0x3631 JUMP JUMPDEST SWAP1 PUSH1 0x0 MSTORE PUSH1 0x20 PUSH1 0x0 KECCAK256 SWAP1 PUSH1 0xB MUL ADD PUSH1 0x1 ADD SWAP1 DUP2 PUSH2 0xE54 SWAP2 SWAP1 PUSH2 0x3571 JUMP JUMPDEST POP PUSH1 0x40 DUP1 MLOAD PUSH2 0x140 DUP2 ADD DUP3 MSTORE PUSH1 0x0 PUSH2 0x120 DUP3 ADD DUP2 DUP2 MSTORE DUP3 MSTORE DUP3 MLOAD PUSH1 0x20 DUP2 DUP2 ADD DUP6 MSTORE DUP3 DUP3 MSTORE DUP1 DUP5 ADD SWAP2 SWAP1 SWAP2 MSTORE DUP4 MLOAD DUP1 DUP3 ADD DUP6 MSTORE DUP3 DUP2 MSTORE DUP4 DUP6 ADD MSTORE DUP4 MLOAD DUP1 DUP3 ADD DUP6 MSTORE DUP3 DUP2 MSTORE PUSH1 0x60 DUP5 ADD MSTORE DUP4 MLOAD DUP1 DUP3 ADD DUP6 MSTORE DUP3 DUP2 MSTORE PUSH1 0x80 DUP5 ADD MSTORE DUP4 MLOAD DUP1 DUP3 ADD DUP6 MSTORE DUP3 DUP2 MSTORE PUSH1 0xA0 DUP5 ADD MSTORE DUP4 MLOAD DUP1 DUP3 ADD DUP6 MSTORE DUP3 DUP2 MSTORE PUSH1 0xC0 DUP5 ADD MSTORE DUP4 MLOAD DUP1 DUP3 ADD DUP6 MSTORE DUP3 DUP2 MSTORE PUSH1 0xE0 DUP5 ADD MSTORE DUP4 MLOAD SWAP1 DUP2 ADD SWAP1 SWAP4 MSTORE DUP3 MSTORE PUSH2 0x100 DUP2 ADD SWAP2 SWAP1 SWAP2 MSTORE PUSH1 0x7 DUP1 SLOAD DUP4 SWAP1 DUP2 LT PUSH2 0xEFF JUMPI PUSH2 0xEFF PUSH2 0x3631 JUMP JUMPDEST SWAP1 PUSH1 0x0 MSTORE PUSH1 0x20 PUSH1 0x0 KECCAK256 SWAP1 PUSH1 0xB MUL ADD PUSH1 0x2 ADD SWAP1 PUSH1 0x9 PUSH2 0xF1E SWAP3 SWAP2 SWAP1 PUSH2 0x2EE9 JUMP JUMPDEST POP PUSH1 0x1 PUSH1 0x7 DUP3 DUP2 SLOAD DUP2 LT PUSH2 0xF34 JUMPI PUSH2 0xF34 PUSH2 0x3631 JUMP JUMPDEST PUSH1 0x0 SWAP2 DUP3 MSTORE PUSH1 0x20 SWAP2 DUP3 SWAP1 KECCAK256 PUSH1 0xB SWAP1 SWAP2 MUL ADD DUP1 SLOAD PUSH1 0xFF NOT AND SWAP3 ISZERO ISZERO SWAP3 SWAP1 SWAP3 OR SWAP1 SWAP2 SSTORE PUSH1 0x40 MLOAD DUP3 DUP2 MSTORE PUSH32 0xC5478E3FE602C65E5CDD37ABE42A8E007FF762D266B9E8256769194C1FA1361E SWAP2 ADD JUMPDEST PUSH1 0x40 MLOAD DUP1 SWAP2 SUB SWAP1 LOG1 POP JUMP JUMPDEST PUSH1 0x7 DUP2 DUP2 SLOAD DUP2 LT PUSH2 0xF9D JUMPI PUSH2 0xF9D PUSH2 0x3631 JUMP JUMPDEST PUSH1 0x0 SWAP2 DUP3 MSTORE PUSH1 0x20 SWAP1 SWAP2 KECCAK256 PUSH1 0xB SWAP1 SWAP2 MUL ADD SLOAD PUSH1 0xFF AND PUSH2 0xFFD JUMPI PUSH1 0x40 MLOAD PUSH3 0x461BCD PUSH1 0xE5 SHL DUP2 MSTORE PUSH1 0x20 PUSH1 0x4 DUP3 ADD MSTORE PUSH1 0x1C PUSH1 0x24 DUP3 ADD MSTORE PUSH32 0x5468652067616D65207374696C6C206E6F742073746172742079657400000000 PUSH1 0x44 DUP3 ADD MSTORE PUSH1 0x64 ADD PUSH2 0x33C JUMP JUMPDEST PUSH2 0x10DD PUSH1 0x7 DUP3 DUP2 SLOAD DUP2 LT PUSH2 0x1013 JUMPI PUSH2 0x1013 PUSH2 0x3631 JUMP JUMPDEST SWAP1 PUSH1 0x0 MSTORE PUSH1 0x20 PUSH1 0x0 KECCAK256 SWAP1 PUSH1 0xB MUL ADD PUSH1 0x2 ADD DUP4 DUP2 SLOAD DUP2 LT PUSH2 0x1035 JUMPI PUSH2 0x1035 PUSH2 0x3631 JUMP JUMPDEST SWAP1 PUSH1 0x0 MSTORE PUSH1 0x20 PUSH1 0x0 KECCAK256 ADD DUP1 SLOAD PUSH2 0x104A SWAP1 PUSH2 0x34E8 JUMP JUMPDEST DUP1 PUSH1 0x1F ADD PUSH1 0x20 DUP1 SWAP2 DIV MUL PUSH1 0x20 ADD PUSH1 0x40 MLOAD SWAP1 DUP2 ADD PUSH1 0x40 MSTORE DUP1 SWAP3 SWAP2 SWAP1 DUP2 DUP2 MSTORE PUSH1 0x20 ADD DUP3 DUP1 SLOAD PUSH2 0x1076 SWAP1 PUSH2 0x34E8 JUMP JUMPDEST DUP1 ISZERO PUSH2 0x10C3 JUMPI DUP1 PUSH1 0x1F LT PUSH2 0x1098 JUMPI PUSH2 0x100 DUP1 DUP4 SLOAD DIV MUL DUP4 MSTORE SWAP2 PUSH1 0x20 ADD SWAP2 PUSH2 0x10C3 JUMP JUMPDEST DUP3 ADD SWAP2 SWAP1 PUSH1 0x0 MSTORE PUSH1 0x20 PUSH1 0x0 KECCAK256 SWAP1 JUMPDEST DUP2 SLOAD DUP2 MSTORE SWAP1 PUSH1 0x1 ADD SWAP1 PUSH1 0x20 ADD DUP1 DUP4 GT PUSH2 0x10A6 JUMPI DUP3 SWAP1 SUB PUSH1 0x1F AND DUP3 ADD SWAP2 JUMPDEST POP POP POP POP POP PUSH1 0x40 MLOAD DUP1 PUSH1 0x20 ADD PUSH1 0x40 MSTORE DUP1 PUSH1 0x0 DUP2 MSTORE POP PUSH2 0x207E JUMP JUMPDEST PUSH2 0x1119 JUMPI PUSH1 0x40 MLOAD PUSH3 0x461BCD PUSH1 0xE5 SHL DUP2 MSTORE PUSH1 0x20 PUSH1 0x4 DUP3 ADD MSTORE PUSH1 0xD PUSH1 0x24 DUP3 ADD MSTORE PUSH13 0x125B9D985B1A59081A5B9C1D5D PUSH1 0x9A SHL PUSH1 0x44 DUP3 ADD MSTORE PUSH1 0x64 ADD PUSH2 0x33C JUMP JUMPDEST PUSH2 0x11E8 PUSH1 0x7 DUP3 DUP2 SLOAD DUP2 LT PUSH2 0x112F JUMPI PUSH2 0x112F PUSH2 0x3631 JUMP JUMPDEST SWAP1 PUSH1 0x0 MSTORE PUSH1 0x20 PUSH1 0x0 KECCAK256 SWAP1 PUSH1 0xB MUL ADD PUSH1 0x1 ADD DUP1 SLOAD PUSH2 0x114B SWAP1 PUSH2 0x34E8 JUMP JUMPDEST DUP1 PUSH1 0x1F ADD PUSH1 0x20 DUP1 SWAP2 DIV MUL PUSH1 0x20 ADD PUSH1 0x40 MLOAD SWAP1 DUP2 ADD PUSH1 0x40 MSTORE DUP1 SWAP3 SWAP2 SWAP1 DUP2 DUP2 MSTORE PUSH1 0x20 ADD DUP3 DUP1 SLOAD PUSH2 0x1177 SWAP1 PUSH2 0x34E8 JUMP JUMPDEST DUP1 ISZERO PUSH2 0x11C4 JUMPI DUP1 PUSH1 0x1F LT PUSH2 0x1199 JUMPI PUSH2 0x100 DUP1 DUP4 SLOAD DIV MUL DUP4 MSTORE SWAP2 PUSH1 0x20 ADD SWAP2 PUSH2 0x11C4 JUMP JUMPDEST DUP3 ADD SWAP2 SWAP1 PUSH1 0x0 MSTORE PUSH1 0x20 PUSH1 0x0 KECCAK256 SWAP1 JUMPDEST DUP2 SLOAD DUP2 MSTORE SWAP1 PUSH1 0x1 ADD SWAP1 PUSH1 0x20 ADD DUP1 DUP4 GT PUSH2 0x11A7 JUMPI DUP3 SWAP1 SUB PUSH1 0x1F AND DUP3 ADD SWAP2 JUMPDEST POP POP POP POP POP PUSH1 0x40 MLOAD DUP1 PUSH1 0x40 ADD PUSH1 0x40 MSTORE DUP1 PUSH1 0x1 DUP2 MSTORE PUSH1 0x20 ADD PUSH1 0xB PUSH1 0xFB SHL DUP2 MSTORE POP PUSH2 0x207E JUMP JUMPDEST ISZERO PUSH2 0x1267 JUMPI PUSH1 0x7 DUP2 DUP2 SLOAD DUP2 LT PUSH2 0x1200 JUMPI PUSH2 0x1200 PUSH2 0x3631 JUMP JUMPDEST PUSH1 0x0 SWAP2 DUP3 MSTORE PUSH1 0x20 SWAP1 SWAP2 KECCAK256 PUSH1 0xB SWAP1 SWAP2 MUL ADD PUSH1 0x4 ADD SLOAD PUSH1 0x1 PUSH1 0x1 PUSH1 0xA0 SHL SUB AND CALLER EQ PUSH2 0x1262 JUMPI PUSH1 0x40 MLOAD PUSH3 0x461BCD PUSH1 0xE5 SHL DUP2 MSTORE PUSH1 0x20 PUSH1 0x4 DUP3 ADD MSTORE PUSH1 0x14 PUSH1 0x24 DUP3 ADD MSTORE PUSH20 0x596F7520617265206E6F7420706C617965722031 PUSH1 0x60 SHL PUSH1 0x44 DUP3 ADD MSTORE PUSH1 0x64 ADD PUSH2 0x33C JUMP JUMPDEST PUSH2 0x12DC JUMP JUMPDEST PUSH1 0x7 DUP2 DUP2 SLOAD DUP2 LT PUSH2 0x127A JUMPI PUSH2 0x127A PUSH2 0x3631 JUMP JUMPDEST PUSH1 0x0 SWAP2 DUP3 MSTORE PUSH1 0x20 SWAP1 SWAP2 KECCAK256 PUSH1 0xB SWAP1 SWAP2 MUL ADD PUSH1 0x5 ADD SLOAD PUSH1 0x1 PUSH1 0x1 PUSH1 0xA0 SHL SUB AND CALLER EQ PUSH2 0x12DC JUMPI PUSH1 0x40 MLOAD PUSH3 0x461BCD PUSH1 0xE5 SHL DUP2 MSTORE PUSH1 0x20 PUSH1 0x4 DUP3 ADD MSTORE PUSH1 0x14 PUSH1 0x24 DUP3 ADD MSTORE PUSH20 0x2CB7BA9030B932903737BA10383630BCB2B91019 PUSH1 0x61 SHL PUSH1 0x44 DUP3 ADD MSTORE PUSH1 0x64 ADD PUSH2 0x33C JUMP JUMPDEST PUSH1 0x7 DUP2 DUP2 SLOAD DUP2 LT PUSH2 0x12EF JUMPI PUSH2 0x12EF PUSH2 0x3631 JUMP JUMPDEST SWAP1 PUSH1 0x0 MSTORE PUSH1 0x20 PUSH1 0x0 KECCAK256 SWAP1 PUSH1 0xB MUL ADD PUSH1 0x1 ADD PUSH1 0x7 DUP3 DUP2 SLOAD DUP2 LT PUSH2 0x1313 JUMPI PUSH2 0x1313 PUSH2 0x3631 JUMP JUMPDEST SWAP1 PUSH1 0x0 MSTORE PUSH1 0x20 PUSH1 0x0 KECCAK256 SWAP1 PUSH1 0xB MUL ADD PUSH1 0x2 ADD DUP4 DUP2 SLOAD DUP2 LT PUSH2 0x1335 JUMPI PUSH2 0x1335 PUSH2 0x3631 JUMP JUMPDEST SWAP1 PUSH1 0x0 MSTORE PUSH1 0x20 PUSH1 0x0 KECCAK256 ADD SWAP1 DUP2 PUSH2 0x134B SWAP2 SWAP1 PUSH2 0x3660 JUMP JUMPDEST POP PUSH32 0x9659242F3970136BF08CBA261398AE9F0BC58A676137D79D3C2040DCDACBC18B PUSH1 0x7 DUP3 DUP2 SLOAD DUP2 LT PUSH2 0x1380 JUMPI PUSH2 0x1380 PUSH2 0x3631 JUMP JUMPDEST SWAP1 PUSH1 0x0 MSTORE PUSH1 0x20 PUSH1 0x0 KECCAK256 SWAP1 PUSH1 0xB MUL ADD PUSH1 0x2 ADD DUP3 PUSH1 0x40 MLOAD PUSH2 0x13A0 SWAP3 SWAP2 SWAP1 PUSH2 0x3811 JUMP JUMPDEST PUSH1 0x40 MLOAD DUP1 SWAP2 SUB SWAP1 LOG1 PUSH2 0x13B1 DUP2 PUSH2 0x2318 JUMP JUMPDEST POP POP JUMP JUMPDEST PUSH1 0x7 DUP2 DUP2 SLOAD DUP2 LT PUSH2 0x13C5 JUMPI PUSH1 0x0 DUP1 REVERT JUMPDEST PUSH1 0x0 SWAP2 DUP3 MSTORE PUSH1 0x20 SWAP1 SWAP2 KECCAK256 PUSH1 0xB SWAP1 SWAP2 MUL ADD DUP1 SLOAD PUSH1 0x1 DUP3 ADD DUP1 SLOAD PUSH1 0xFF SWAP1 SWAP3 AND SWAP4 POP SWAP1 PUSH2 0x13EE SWAP1 PUSH2 0x34E8 JUMP JUMPDEST DUP1 PUSH1 0x1F ADD PUSH1 0x20 DUP1 SWAP2 DIV MUL PUSH1 0x20 ADD PUSH1 0x40 MLOAD SWAP1 DUP2 ADD PUSH1 0x40 MSTORE DUP1 SWAP3 SWAP2 SWAP1 DUP2 DUP2 MSTORE PUSH1 0x20 ADD DUP3 DUP1 SLOAD PUSH2 0x141A SWAP1 PUSH2 0x34E8 JUMP JUMPDEST DUP1 ISZERO PUSH2 0x1467 JUMPI DUP1 PUSH1 0x1F LT PUSH2 0x143C JUMPI PUSH2 0x100 DUP1 DUP4 SLOAD DIV MUL DUP4 MSTORE SWAP2 PUSH1 0x20 ADD SWAP2 PUSH2 0x1467 JUMP JUMPDEST DUP3 ADD SWAP2 SWAP1 PUSH1 0x0 MSTORE PUSH1 0x20 PUSH1 0x0 KECCAK256 SWAP1 JUMPDEST DUP2 SLOAD DUP2 MSTORE SWAP1 PUSH1 0x1 ADD SWAP1 PUSH1 0x20 ADD DUP1 DUP4 GT PUSH2 0x144A JUMPI DUP3 SWAP1 SUB PUSH1 0x1F AND DUP3 ADD SWAP2 JUMPDEST POP POP POP PUSH1 0x4 DUP5 ADD SLOAD PUSH1 0x5 DUP6 ADD SLOAD PUSH1 0x6 DUP7 ADD SLOAD PUSH1 0x7 DUP8 ADD SLOAD PUSH1 0x8 DUP9 ADD SLOAD PUSH1 0x9 DUP10 ADD SLOAD PUSH1 0xA SWAP1 SWAP10 ADD SLOAD SWAP8 SWAP9 PUSH1 0x1 PUSH1 0x1 PUSH1 0xA0 SHL SUB SWAP6 DUP7 AND SWAP9 SWAP5 DUP7 AND SWAP8 POP SWAP3 SWAP6 POP SWAP4 AND SWAP3 SWAP2 DUP10 JUMP JUMPDEST PUSH1 0x6 SLOAD PUSH1 0x1 PUSH1 0x1 PUSH1 0xA0 SHL SUB AND CALLER EQ PUSH2 0x14F5 JUMPI PUSH1 0x40 MLOAD PUSH3 0x461BCD PUSH1 0xE5 SHL DUP2 MSTORE PUSH1 0x20 PUSH1 0x4 DUP3 ADD MSTORE PUSH1 0xD PUSH1 0x24 DUP3 ADD MSTORE PUSH13 0x2737BA103A34329037BBB732B9 PUSH1 0x99 SHL PUSH1 0x44 DUP3 ADD MSTORE PUSH1 0x64 ADD PUSH2 0x33C JUMP JUMPDEST PUSH1 0x5 SLOAD PUSH1 0x0 DUP1 SLOAD PUSH1 0x40 MLOAD PUSH4 0x70A08231 PUSH1 0xE0 SHL DUP2 MSTORE ADDRESS PUSH1 0x4 DUP3 ADD MSTORE SWAP2 SWAP3 SWAP2 PUSH1 0x1 PUSH1 0x1 PUSH1 0xA0 SHL SUB SWAP1 SWAP2 AND SWAP1 PUSH4 0x70A08231 SWAP1 PUSH1 0x24 ADD PUSH1 0x20 PUSH1 0x40 MLOAD DUP1 DUP4 SUB DUP2 DUP7 GAS STATICCALL ISZERO DUP1 ISZERO PUSH2 0x1544 JUMPI RETURNDATASIZE PUSH1 0x0 DUP1 RETURNDATACOPY RETURNDATASIZE PUSH1 0x0 REVERT JUMPDEST POP POP POP POP PUSH1 0x40 MLOAD RETURNDATASIZE PUSH1 0x1F NOT PUSH1 0x1F DUP3 ADD AND DUP3 ADD DUP1 PUSH1 0x40 MSTORE POP DUP2 ADD SWAP1 PUSH2 0x1568 SWAP2 SWAP1 PUSH2 0x3414 JUMP JUMPDEST PUSH2 0x1572 SWAP2 SWAP1 PUSH2 0x349E JUMP JUMPDEST GT PUSH2 0x15B8 JUMPI PUSH1 0x40 MLOAD PUSH3 0x461BCD PUSH1 0xE5 SHL DUP2 MSTORE PUSH1 0x20 PUSH1 0x4 DUP3 ADD MSTORE PUSH1 0x16 PUSH1 0x24 DUP3 ADD MSTORE PUSH22 0x54686520746F6B656E206973206E6F74206578747261 PUSH1 0x50 SHL PUSH1 0x44 DUP3 ADD MSTORE PUSH1 0x64 ADD PUSH2 0x33C JUMP JUMPDEST PUSH1 0x0 SLOAD PUSH1 0x6 SLOAD PUSH1 0x5 SLOAD PUSH1 0x40 MLOAD PUSH4 0x70A08231 PUSH1 0xE0 SHL DUP2 MSTORE ADDRESS PUSH1 0x4 DUP3 ADD MSTORE PUSH1 0x1 PUSH1 0x1 PUSH1 0xA0 SHL SUB SWAP4 DUP5 AND SWAP4 PUSH4 0xA9059CBB SWAP4 AND SWAP2 SWAP1 DUP5 SWAP1 PUSH4 0x70A08231 SWAP1 PUSH1 0x24 ADD PUSH1 0x20 PUSH1 0x40 MLOAD DUP1 DUP4 SUB DUP2 DUP7 GAS STATICCALL ISZERO DUP1 ISZERO PUSH2 0x1611 JUMPI RETURNDATASIZE PUSH1 0x0 DUP1 RETURNDATACOPY RETURNDATASIZE PUSH1 0x0 REVERT JUMPDEST POP POP POP POP PUSH1 0x40 MLOAD RETURNDATASIZE PUSH1 0x1F NOT PUSH1 0x1F DUP3 ADD AND DUP3 ADD DUP1 PUSH1 0x40 MSTORE POP DUP2 ADD SWAP1 PUSH2 0x1635 SWAP2 SWAP1 PUSH2 0x3414 JUMP JUMPDEST PUSH2 0x163F SWAP2 SWAP1 PUSH2 0x349E JUMP JUMPDEST PUSH1 0x40 MLOAD PUSH1 0x1 PUSH1 0x1 PUSH1 0xE0 SHL SUB NOT PUSH1 0xE0 DUP6 SWAP1 SHL AND DUP2 MSTORE PUSH1 0x1 PUSH1 0x1 PUSH1 0xA0 SHL SUB SWAP1 SWAP3 AND PUSH1 0x4 DUP4 ADD MSTORE PUSH1 0x24 DUP3 ADD MSTORE PUSH1 0x44 ADD PUSH1 0x20 PUSH1 0x40 MLOAD DUP1 DUP4 SUB DUP2 PUSH1 0x0 DUP8 GAS CALL ISZERO DUP1 ISZERO PUSH2 0x168A JUMPI RETURNDATASIZE PUSH1 0x0 DUP1 RETURNDATACOPY RETURNDATASIZE PUSH1 0x0 REVERT JUMPDEST POP POP POP POP PUSH1 0x40 MLOAD RETURNDATASIZE PUSH1 0x1F NOT PUSH1 0x1F DUP3 ADD AND DUP3 ADD DUP1 PUSH1 0x40 MSTORE POP DUP2 ADD SWAP1 PUSH2 0xB76 SWAP2 SWAP1 PUSH2 0x342D JUMP JUMPDEST PUSH2 0x16B6 PUSH2 0x2DD5 JUMP JUMPDEST PUSH1 0x7 DUP3 DUP2 SLOAD DUP2 LT PUSH2 0x16C9 JUMPI PUSH2 0x16C9 PUSH2 0x3631 JUMP JUMPDEST PUSH1 0x0 SWAP2 DUP3 MSTORE PUSH1 0x20 SWAP2 DUP3 SWAP1 KECCAK256 PUSH1 0x40 DUP1 MLOAD PUSH2 0x160 DUP2 ADD SWAP1 SWAP2 MSTORE PUSH1 0xB SWAP1 SWAP3 MUL ADD DUP1 SLOAD PUSH1 0xFF AND ISZERO ISZERO DUP3 MSTORE PUSH1 0x1 DUP2 ADD DUP1 SLOAD SWAP3 SWAP4 SWAP2 SWAP3 SWAP2 DUP5 ADD SWAP2 PUSH2 0x1706 SWAP1 PUSH2 0x34E8 JUMP JUMPDEST DUP1 PUSH1 0x1F ADD PUSH1 0x20 DUP1 SWAP2 DIV MUL PUSH1 0x20 ADD PUSH1 0x40 MLOAD SWAP1 DUP2 ADD PUSH1 0x40 MSTORE DUP1 SWAP3 SWAP2 SWAP1 DUP2 DUP2 MSTORE PUSH1 0x20 ADD DUP3 DUP1 SLOAD PUSH2 0x1732 SWAP1 PUSH2 0x34E8 JUMP JUMPDEST DUP1 ISZERO PUSH2 0x177F JUMPI DUP1 PUSH1 0x1F LT PUSH2 0x1754 JUMPI PUSH2 0x100 DUP1 DUP4 SLOAD DIV MUL DUP4 MSTORE SWAP2 PUSH1 0x20 ADD SWAP2 PUSH2 0x177F JUMP JUMPDEST DUP3 ADD SWAP2 SWAP1 PUSH1 0x0 MSTORE PUSH1 0x20 PUSH1 0x0 KECCAK256 SWAP1 JUMPDEST DUP2 SLOAD DUP2 MSTORE SWAP1 PUSH1 0x1 ADD SWAP1 PUSH1 0x20 ADD DUP1 DUP4 GT PUSH2 0x1762 JUMPI DUP3 SWAP1 SUB PUSH1 0x1F AND DUP3 ADD SWAP2 JUMPDEST POP POP POP POP POP DUP2 MSTORE PUSH1 0x20 ADD PUSH1 0x2 DUP3 ADD DUP1 SLOAD DUP1 PUSH1 0x20 MUL PUSH1 0x20 ADD PUSH1 0x40 MLOAD SWAP1 DUP2 ADD PUSH1 0x40 MSTORE DUP1 SWAP3 SWAP2 SWAP1 DUP2 DUP2 MSTORE PUSH1 0x20 ADD PUSH1 0x0 SWAP1 JUMPDEST DUP3 DUP3 LT ISZERO PUSH2 0x1859 JUMPI DUP4 DUP3 SWAP1 PUSH1 0x0 MSTORE PUSH1 0x20 PUSH1 0x0 KECCAK256 ADD DUP1 SLOAD PUSH2 0x17CC SWAP1 PUSH2 0x34E8 JUMP JUMPDEST DUP1 PUSH1 0x1F ADD PUSH1 0x20 DUP1 SWAP2 DIV MUL PUSH1 0x20 ADD PUSH1 0x40 MLOAD SWAP1 DUP2 ADD PUSH1 0x40 MSTORE DUP1 SWAP3 SWAP2 SWAP1 DUP2 DUP2 MSTORE PUSH1 0x20 ADD DUP3 DUP1 SLOAD PUSH2 0x17F8 SWAP1 PUSH2 0x34E8 JUMP JUMPDEST DUP1 ISZERO PUSH2 0x1845 JUMPI DUP1 PUSH1 0x1F LT PUSH2 0x181A JUMPI PUSH2 0x100 DUP1 DUP4 SLOAD DIV MUL DUP4 MSTORE SWAP2 PUSH1 0x20 ADD SWAP2 PUSH2 0x1845 JUMP JUMPDEST DUP3 ADD SWAP2 SWAP1 PUSH1 0x0 MSTORE PUSH1 0x20 PUSH1 0x0 KECCAK256 SWAP1 JUMPDEST DUP2 SLOAD DUP2 MSTORE SWAP1 PUSH1 0x1 ADD SWAP1 PUSH1 0x20 ADD DUP1 DUP4 GT PUSH2 0x1828 JUMPI DUP3 SWAP1 SUB PUSH1 0x1F AND DUP3 ADD SWAP2 JUMPDEST POP POP POP POP POP DUP2 MSTORE PUSH1 0x20 ADD SWAP1 PUSH1 0x1 ADD SWAP1 PUSH2 0x17AD JUMP JUMPDEST POP POP POP POP DUP2 MSTORE PUSH1 0x20 ADD PUSH1 0x3 DUP3 ADD DUP1 SLOAD DUP1 PUSH1 0x20 MUL PUSH1 0x20 ADD PUSH1 0x40 MLOAD SWAP1 DUP2 ADD PUSH1 0x40 MSTORE DUP1 SWAP3 SWAP2 SWAP1 DUP2 DUP2 MSTORE PUSH1 0x20 ADD DUP3 DUP1 SLOAD DUP1 ISZERO PUSH2 0x18B0 JUMPI PUSH1 0x20 MUL DUP3 ADD SWAP2 SWAP1 PUSH1 0x0 MSTORE PUSH1 0x20 PUSH1 0x0 KECCAK256 SWAP1 JUMPDEST DUP2 SLOAD DUP2 MSTORE PUSH1 0x20 ADD SWAP1 PUSH1 0x1 ADD SWAP1 DUP1 DUP4 GT PUSH2 0x189C JUMPI JUMPDEST POP POP POP SWAP2 DUP4 MSTORE POP POP PUSH1 0x4 DUP3 ADD SLOAD PUSH1 0x1 PUSH1 0x1 PUSH1 0xA0 SHL SUB SWAP1 DUP2 AND PUSH1 0x20 DUP4 ADD MSTORE PUSH1 0x5 DUP4 ADD SLOAD DUP2 AND PUSH1 0x40 DUP4 ADD MSTORE PUSH1 0x6 DUP4 ADD SLOAD PUSH1 0x60 DUP4 ADD MSTORE PUSH1 0x7 DUP4 ADD SLOAD AND PUSH1 0x80 DUP3 ADD MSTORE PUSH1 0x8 DUP3 ADD SLOAD PUSH1 0xA0 DUP3 ADD MSTORE PUSH1 0x9 DUP3 ADD SLOAD PUSH1 0xC0 DUP3 ADD MSTORE PUSH1 0xA SWAP1 SWAP2 ADD SLOAD PUSH1 0xE0 SWAP1 SWAP2 ADD MSTORE SWAP3 SWAP2 POP POP JUMP JUMPDEST PUSH1 0x6 SLOAD PUSH1 0x1 PUSH1 0xA0 SHL SWAP1 DIV PUSH1 0xFF AND ISZERO PUSH2 0x1966 JUMPI PUSH1 0x40 MLOAD PUSH3 0x461BCD PUSH1 0xE5 SHL DUP2 MSTORE PUSH1 0x20 PUSH1 0x4 DUP3 ADD MSTORE PUSH1 0x15 PUSH1 0x24 DUP3 ADD MSTORE PUSH21 0x115C9C9BDC8E881499595B9D1C985B9D0818D85B1B PUSH1 0x5A SHL PUSH1 0x44 DUP3 ADD MSTORE PUSH1 0x64 ADD PUSH2 0x33C JUMP JUMPDEST PUSH1 0x6 DUP1 SLOAD PUSH1 0xFF PUSH1 0xA0 SHL NOT AND PUSH1 0x1 PUSH1 0xA0 SHL OR SWAP1 SSTORE PUSH1 0x7 DUP1 SLOAD DUP4 SWAP1 DUP2 LT PUSH2 0x198D JUMPI PUSH2 0x198D PUSH2 0x3631 JUMP JUMPDEST SWAP1 PUSH1 0x0 MSTORE PUSH1 0x20 PUSH1 0x0 KECCAK256 SWAP1 PUSH1 0xB MUL ADD PUSH1 0x6 ADD SLOAD PUSH1 0x1 SUB PUSH2 0x1F7A JUMPI PUSH1 0x7 DUP3 DUP2 SLOAD DUP2 LT PUSH2 0x19B9 JUMPI PUSH2 0x19B9 PUSH2 0x3631 JUMP JUMPDEST PUSH1 0x0 SWAP2 DUP3 MSTORE PUSH1 0x20 DUP3 KECCAK256 PUSH1 0xB SWAP2 SWAP1 SWAP2 MUL ADD PUSH1 0x8 ADD SLOAD SWAP1 SLOAD PUSH1 0x40 MLOAD PUSH4 0x70A08231 PUSH1 0xE0 SHL DUP2 MSTORE CALLER PUSH1 0x4 DUP3 ADD MSTORE PUSH1 0x1 PUSH1 0x1 PUSH1 0xA0 SHL SUB SWAP1 SWAP2 AND SWAP1 PUSH4 0x70A08231 SWAP1 PUSH1 0x24 ADD PUSH1 0x20 PUSH1 0x40 MLOAD DUP1 DUP4 SUB DUP2 DUP7 GAS STATICCALL ISZERO DUP1 ISZERO PUSH2 0x1A14 JUMPI RETURNDATASIZE PUSH1 0x0 DUP1 RETURNDATACOPY RETURNDATASIZE PUSH1 0x0 REVERT JUMPDEST POP POP POP POP PUSH1 0x40 MLOAD RETURNDATASIZE PUSH1 0x1F NOT PUSH1 0x1F DUP3 ADD AND DUP3 ADD DUP1 PUSH1 0x40 MSTORE POP DUP2 ADD SWAP1 PUSH2 0x1A38 SWAP2 SWAP1 PUSH2 0x3414 JUMP JUMPDEST LT ISZERO PUSH2 0x1A7B JUMPI PUSH1 0x40 MLOAD PUSH3 0x461BCD PUSH1 0xE5 SHL DUP2 MSTORE PUSH1 0x20 PUSH1 0x4 DUP3 ADD MSTORE PUSH1 0x12 PUSH1 0x24 DUP3 ADD MSTORE PUSH18 0x4E6F7420656E6F7567682062616C616E6365 PUSH1 0x70 SHL PUSH1 0x44 DUP3 ADD MSTORE PUSH1 0x64 ADD PUSH2 0x33C JUMP JUMPDEST PUSH1 0x7 DUP3 DUP2 SLOAD DUP2 LT PUSH2 0x1A8E JUMPI PUSH2 0x1A8E PUSH2 0x3631 JUMP JUMPDEST SWAP1 PUSH1 0x0 MSTORE PUSH1 0x20 PUSH1 0x0 KECCAK256 SWAP1 PUSH1 0xB MUL ADD PUSH1 0x8 ADD SLOAD DUP2 EQ PUSH2 0x1AEE JUMPI PUSH1 0x40 MLOAD PUSH3 0x461BCD PUSH1 0xE5 SHL DUP2 MSTORE PUSH1 0x20 PUSH1 0x4 DUP3 ADD MSTORE PUSH1 0x1A PUSH1 0x24 DUP3 ADD MSTORE PUSH32 0x4E65656420746F20706179206D696E2062657420616D6F756E74000000000000 PUSH1 0x44 DUP3 ADD MSTORE PUSH1 0x64 ADD PUSH2 0x33C JUMP JUMPDEST PUSH1 0x0 SLOAD PUSH1 0x40 MLOAD PUSH4 0x95EA7B3 PUSH1 0xE0 SHL DUP2 MSTORE CALLER PUSH1 0x4 DUP3 ADD MSTORE PUSH1 0x24 DUP2 ADD DUP4 SWAP1 MSTORE PUSH1 0x1 PUSH1 0x1 PUSH1 0xA0 SHL SUB SWAP1 SWAP2 AND SWAP1 PUSH4 0x95EA7B3 SWAP1 PUSH1 0x44 ADD PUSH1 0x20 PUSH1 0x40 MLOAD DUP1 DUP4 SUB DUP2 PUSH1 0x0 DUP8 GAS CALL ISZERO DUP1 ISZERO PUSH2 0x1B3F JUMPI RETURNDATASIZE PUSH1 0x0 DUP1 RETURNDATACOPY RETURNDATASIZE PUSH1 0x0 REVERT JUMPDEST POP POP POP POP PUSH1 0x40 MLOAD RETURNDATASIZE PUSH1 0x1F NOT PUSH1 0x1F DUP3 ADD AND DUP3 ADD DUP1 PUSH1 0x40 MSTORE POP DUP2 ADD SWAP1 PUSH2 0x1B63 SWAP2 SWAP1 PUSH2 0x342D JUMP JUMPDEST POP PUSH1 0x0 PUSH1 0x64 PUSH1 0x3 SLOAD DUP4 PUSH2 0x1B76 SWAP2 SWAP1 PUSH2 0x3465 JUMP JUMPDEST PUSH2 0x1B80 SWAP2 SWAP1 PUSH2 0x347C JUMP JUMPDEST SWAP1 POP PUSH1 0x0 PUSH1 0x64 PUSH1 0x4 SLOAD DUP5 PUSH2 0x1B94 SWAP2 SWAP1 PUSH2 0x3465 JUMP JUMPDEST PUSH2 0x1B9E SWAP2 SWAP1 PUSH2 0x347C JUMP JUMPDEST SWAP1 POP PUSH1 0x0 DUP2 PUSH2 0x1BAD DUP5 DUP7 PUSH2 0x349E JUMP JUMPDEST PUSH2 0x1BB7 SWAP2 SWAP1 PUSH2 0x349E JUMP JUMPDEST PUSH1 0x0 SLOAD PUSH1 0x40 MLOAD PUSH4 0x23B872DD PUSH1 0xE0 SHL DUP2 MSTORE SWAP2 SWAP3 POP PUSH1 0x1 PUSH1 0x1 PUSH1 0xA0 SHL SUB AND SWAP1 PUSH4 0x23B872DD SWAP1 PUSH2 0x1BEE SWAP1 CALLER SWAP1 PUSH2 0xDEAD SWAP1 DUP9 SWAP1 PUSH1 0x4 ADD PUSH2 0x34B1 JUMP JUMPDEST PUSH1 0x20 PUSH1 0x40 MLOAD DUP1 DUP4 SUB DUP2 PUSH1 0x0 DUP8 GAS CALL ISZERO DUP1 ISZERO PUSH2 0x1C0D JUMPI RETURNDATASIZE PUSH1 0x0 DUP1 RETURNDATACOPY RETURNDATASIZE PUSH1 0x0 REVERT JUMPDEST POP POP POP POP PUSH1 0x40 MLOAD RETURNDATASIZE PUSH1 0x1F NOT PUSH1 0x1F DUP3 ADD AND DUP3 ADD DUP1 PUSH1 0x40 MSTORE POP DUP2 ADD SWAP1 PUSH2 0x1C31 SWAP2 SWAP1 PUSH2 0x342D JUMP JUMPDEST POP PUSH1 0x0 SLOAD PUSH1 0x2 SLOAD PUSH1 0x40 MLOAD PUSH4 0x23B872DD PUSH1 0xE0 SHL DUP2 MSTORE PUSH1 0x1 PUSH1 0x1 PUSH1 0xA0 SHL SUB SWAP3 DUP4 AND SWAP3 PUSH4 0x23B872DD SWAP3 PUSH2 0x1C6B SWAP3 CALLER SWAP3 SWAP1 SWAP2 AND SWAP1 DUP8 SWAP1 PUSH1 0x4 ADD PUSH2 0x34B1 JUMP JUMPDEST PUSH1 0x20 PUSH1 0x40 MLOAD DUP1 DUP4 SUB DUP2 PUSH1 0x0 DUP8 GAS CALL ISZERO DUP1 ISZERO PUSH2 0x1C8A JUMPI RETURNDATASIZE PUSH1 0x0 DUP1 RETURNDATACOPY RETURNDATASIZE PUSH1 0x0 REVERT JUMPDEST POP POP POP POP PUSH1 0x40 MLOAD RETURNDATASIZE PUSH1 0x1F NOT PUSH1 0x1F DUP3 ADD AND DUP3 ADD DUP1 PUSH1 0x40 MSTORE POP DUP2 ADD SWAP1 PUSH2 0x1CAE SWAP2 SWAP1 PUSH2 0x342D JUMP JUMPDEST POP PUSH1 0x0 SLOAD PUSH1 0x40 MLOAD PUSH4 0x23B872DD PUSH1 0xE0 SHL DUP2 MSTORE PUSH1 0x1 PUSH1 0x1 PUSH1 0xA0 SHL SUB SWAP1 SWAP2 AND SWAP1 PUSH4 0x23B872DD SWAP1 PUSH2 0x1CE3 SWAP1 CALLER SWAP1 ADDRESS SWAP1 DUP7 SWAP1 PUSH1 0x4 ADD PUSH2 0x34B1 JUMP JUMPDEST PUSH1 0x20 PUSH1 0x40 MLOAD DUP1 DUP4 SUB DUP2 PUSH1 0x0 DUP8 GAS CALL ISZERO DUP1 ISZERO PUSH2 0x1D02 JUMPI RETURNDATASIZE PUSH1 0x0 DUP1 RETURNDATACOPY RETURNDATASIZE PUSH1 0x0 REVERT JUMPDEST POP POP POP POP PUSH1 0x40 MLOAD RETURNDATASIZE PUSH1 0x1F NOT PUSH1 0x1F DUP3 ADD AND DUP3 ADD DUP1 PUSH1 0x40 MSTORE POP DUP2 ADD SWAP1 PUSH2 0x1D26 SWAP2 SWAP1 PUSH2 0x342D JUMP JUMPDEST POP DUP1 PUSH1 0x5 PUSH1 0x0 DUP3 DUP3 SLOAD PUSH2 0x1D39 SWAP2 SWAP1 PUSH2 0x34D5 JUMP JUMPDEST SWAP1 SWAP2 SSTORE POP POP PUSH1 0x7 DUP1 SLOAD DUP7 SWAP1 DUP2 LT PUSH2 0x1D52 JUMPI PUSH2 0x1D52 PUSH2 0x3631 JUMP JUMPDEST PUSH1 0x0 SWAP2 DUP3 MSTORE PUSH1 0x20 SWAP1 SWAP2 KECCAK256 PUSH1 0x4 PUSH1 0xB SWAP1 SWAP3 MUL ADD ADD SLOAD PUSH1 0x1 PUSH1 0x1 PUSH1 0xA0 SHL SUB AND CALLER SUB PUSH2 0x1DC9 JUMPI PUSH1 0x40 MLOAD PUSH3 0x461BCD PUSH1 0xE5 SHL DUP2 MSTORE PUSH1 0x20 PUSH1 0x4 DUP3 ADD MSTORE PUSH1 0x24 DUP1 DUP3 ADD MSTORE PUSH32 0x4572726F723A20596F752063616E6E6F7420706C6179207769746820796F7572 PUSH1 0x44 DUP3 ADD MSTORE PUSH4 0x39B2B633 PUSH1 0xE1 SHL PUSH1 0x64 DUP3 ADD MSTORE PUSH1 0x84 ADD PUSH2 0x33C JUMP JUMPDEST CALLER PUSH1 0x7 DUP7 DUP2 SLOAD DUP2 LT PUSH2 0x1DDD JUMPI PUSH2 0x1DDD PUSH2 0x3631 JUMP JUMPDEST SWAP1 PUSH1 0x0 MSTORE PUSH1 0x20 PUSH1 0x0 KECCAK256 SWAP1 PUSH1 0xB MUL ADD PUSH1 0x5 ADD PUSH1 0x0 PUSH2 0x100 EXP DUP2 SLOAD DUP2 PUSH1 0x1 PUSH1 0x1 PUSH1 0xA0 SHL SUB MUL NOT AND SWAP1 DUP4 PUSH1 0x1 PUSH1 0x1 PUSH1 0xA0 SHL SUB AND MUL OR SWAP1 SSTORE POP PUSH1 0x2 PUSH1 0x7 DUP7 DUP2 SLOAD DUP2 LT PUSH2 0x1E27 JUMPI PUSH2 0x1E27 PUSH2 0x3631 JUMP JUMPDEST SWAP1 PUSH1 0x0 MSTORE PUSH1 0x20 PUSH1 0x0 KECCAK256 SWAP1 PUSH1 0xB MUL ADD PUSH1 0x6 ADD DUP2 SWAP1 SSTORE POP PUSH1 0x1 PUSH1 0x7 DUP7 DUP2 SLOAD DUP2 LT PUSH2 0x1E51 JUMPI PUSH2 0x1E51 PUSH2 0x3631 JUMP JUMPDEST SWAP1 PUSH1 0x0 MSTORE PUSH1 0x20 PUSH1 0x0 KECCAK256 SWAP1 PUSH1 0xB MUL ADD PUSH1 0x0 ADD PUSH1 0x0 PUSH2 0x100 EXP DUP2 SLOAD DUP2 PUSH1 0xFF MUL NOT AND SWAP1 DUP4 ISZERO ISZERO MUL OR SWAP1 SSTORE POP DUP4 PUSH1 0x7 DUP7 DUP2 SLOAD DUP2 LT PUSH2 0x1E8D JUMPI PUSH2 0x1E8D PUSH2 0x3631 JUMP JUMPDEST SWAP1 PUSH1 0x0 MSTORE PUSH1 0x20 PUSH1 0x0 KECCAK256 SWAP1 PUSH1 0xB MUL ADD PUSH1 0x9 ADD DUP2 SWAP1 SSTORE POP PUSH32 0x2F78808C539FD07CB45456A5D5561C76D3D4005246FACCB297481E511ABC321A PUSH1 0x7 DUP7 DUP2 SLOAD DUP2 LT PUSH2 0x1ED6 JUMPI PUSH2 0x1ED6 PUSH2 0x3631 JUMP JUMPDEST SWAP1 PUSH1 0x0 MSTORE PUSH1 0x20 PUSH1 0x0 KECCAK256 SWAP1 PUSH1 0xB MUL ADD PUSH1 0x4 ADD PUSH1 0x0 SWAP1 SLOAD SWAP1 PUSH2 0x100 EXP SWAP1 DIV PUSH1 0x1 PUSH1 0x1 PUSH1 0xA0 SHL SUB AND PUSH1 0x7 DUP8 DUP2 SLOAD DUP2 LT PUSH2 0x1F0E JUMPI PUSH2 0x1F0E PUSH2 0x3631 JUMP JUMPDEST PUSH1 0x0 SWAP2 DUP3 MSTORE PUSH1 0x20 SWAP2 DUP3 SWAP1 KECCAK256 PUSH1 0xB SWAP2 DUP3 MUL ADD PUSH1 0x5 ADD SLOAD PUSH1 0x40 DUP1 MLOAD PUSH1 0x80 DUP1 DUP3 MSTORE DUP2 ADD SWAP4 SWAP1 SWAP4 MSTORE PUSH11 0x53746172742067616D6521 PUSH1 0xA8 SHL PUSH1 0xA0 DUP5 ADD MSTORE PUSH1 0x1 PUSH1 0x1 PUSH1 0xA0 SHL SUB SWAP5 DUP6 AND SWAP4 DUP4 ADD SWAP4 SWAP1 SWAP4 MSTORE SWAP3 SWAP1 SWAP3 AND SWAP1 DUP3 ADD MSTORE PUSH1 0x60 DUP2 ADD DUP8 SWAP1 MSTORE PUSH1 0xC0 ADD PUSH1 0x40 MLOAD DUP1 SWAP2 SUB SWAP1 LOG1 POP POP POP PUSH2 0x2014 JUMP JUMPDEST PUSH1 0x7 DUP3 DUP2 SLOAD DUP2 LT PUSH2 0x1F8D JUMPI PUSH2 0x1F8D PUSH2 0x3631 JUMP JUMPDEST SWAP1 PUSH1 0x0 MSTORE PUSH1 0x20 PUSH1 0x0 KECCAK256 SWAP1 PUSH1 0xB MUL ADD PUSH1 0x6 ADD SLOAD PUSH1 0x2 EQ PUSH2 0x2014 JUMPI PUSH1 0x40 MLOAD PUSH3 0x461BCD PUSH1 0xE5 SHL DUP2 MSTORE PUSH1 0x20 PUSH1 0x4 DUP3 ADD MSTORE PUSH1 0x3E PUSH1 0x24 DUP3 ADD MSTORE PUSH32 0x4E6F772071756575652069732066756C6C2C20747279206C617465722E204761 PUSH1 0x44 DUP3 ADD MSTORE PUSH32 0x6D6520616C72656164792066756C6C20706C73206A6F696E206F746865720000 PUSH1 0x64 DUP3 ADD MSTORE PUSH1 0x84 ADD PUSH2 0x33C JUMP JUMPDEST PUSH32 0x50370B40BD566613CB1B12508C3114409E62C5C8DE11BE443CAFC84462CF5699 PUSH1 0x7 DUP4 DUP2 SLOAD DUP2 LT PUSH2 0x2048 JUMPI PUSH2 0x2048 PUSH2 0x3631 JUMP JUMPDEST SWAP1 PUSH1 0x0 MSTORE PUSH1 0x20 PUSH1 0x0 KECCAK256 SWAP1 PUSH1 0xB MUL ADD DUP4 PUSH1 0x40 MLOAD PUSH2 0x2065 SWAP3 SWAP2 SWAP1 PUSH2 0x3868 JUMP JUMPDEST PUSH1 0x40 MLOAD DUP1 SWAP2 SUB SWAP1 LOG1 POP POP PUSH1 0x6 DUP1 SLOAD PUSH1 0xFF PUSH1 0xA0 SHL NOT AND SWAP1 SSTORE JUMP JUMPDEST PUSH1 0x0 DUP2 PUSH1 0x40 MLOAD PUSH1 0x20 ADD PUSH2 0x2091 SWAP2 SWAP1 PUSH2 0x3948 JUMP JUMPDEST PUSH1 0x40 MLOAD PUSH1 0x20 DUP2 DUP4 SUB SUB DUP2 MSTORE SWAP1 PUSH1 0x40 MSTORE DUP1 MLOAD SWAP1 PUSH1 0x20 ADD KECCAK256 DUP4 PUSH1 0x40 MLOAD PUSH1 0x20 ADD PUSH2 0x20B8 SWAP2 SWAP1 PUSH2 0x3948 JUMP JUMPDEST PUSH1 0x40 MLOAD PUSH1 0x20 DUP2 DUP4 SUB SUB DUP2 MSTORE SWAP1 PUSH1 0x40 MSTORE DUP1 MLOAD SWAP1 PUSH1 0x20 ADD KECCAK256 EQ SWAP1 POP JUMPDEST SWAP3 SWAP2 POP POP JUMP JUMPDEST PUSH1 0x60 PUSH1 0x7 DUP3 DUP2 SLOAD DUP2 LT PUSH2 0x20ED JUMPI PUSH2 0x20ED PUSH2 0x3631 JUMP JUMPDEST SWAP1 PUSH1 0x0 MSTORE PUSH1 0x20 PUSH1 0x0 KECCAK256 SWAP1 PUSH1 0xB MUL ADD PUSH1 0x2 ADD DUP1 SLOAD DUP1 PUSH1 0x20 MUL PUSH1 0x20 ADD PUSH1 0x40 MLOAD SWAP1 DUP2 ADD PUSH1 0x40 MSTORE DUP1 SWAP3 SWAP2 SWAP1 DUP2 DUP2 MSTORE PUSH1 0x20 ADD PUSH1 0x0 SWAP1 JUMPDEST DUP3 DUP3 LT ISZERO PUSH2 0x21CA JUMPI DUP4 DUP3 SWAP1 PUSH1 0x0 MSTORE PUSH1 0x20 PUSH1 0x0 KECCAK256 ADD DUP1 SLOAD PUSH2 0x213D SWAP1 PUSH2 0x34E8 JUMP JUMPDEST DUP1 PUSH1 0x1F ADD PUSH1 0x20 DUP1 SWAP2 DIV MUL PUSH1 0x20 ADD PUSH1 0x40 MLOAD SWAP1 DUP2 ADD PUSH1 0x40 MSTORE DUP1 SWAP3 SWAP2 SWAP1 DUP2 DUP2 MSTORE PUSH1 0x20 ADD DUP3 DUP1 SLOAD PUSH2 0x2169 SWAP1 PUSH2 0x34E8 JUMP JUMPDEST DUP1 ISZERO PUSH2 0x21B6 JUMPI DUP1 PUSH1 0x1F LT PUSH2 0x218B JUMPI PUSH2 0x100 DUP1 DUP4 SLOAD DIV MUL DUP4 MSTORE SWAP2 PUSH1 0x20 ADD SWAP2 PUSH2 0x21B6 JUMP JUMPDEST DUP3 ADD SWAP2 SWAP1 PUSH1 0x0 MSTORE PUSH1 0x20 PUSH1 0x0 KECCAK256 SWAP1 JUMPDEST DUP2 SLOAD DUP2 MSTORE SWAP1 PUSH1 0x1 ADD SWAP1 PUSH1 0x20 ADD DUP1 DUP4 GT PUSH2 0x2199 JUMPI DUP3 SWAP1 SUB PUSH1 0x1F AND DUP3 ADD SWAP2 JUMPDEST POP POP POP POP POP DUP2 MSTORE PUSH1 0x20 ADD SWAP1 PUSH1 0x1 ADD SWAP1 PUSH2 0x211E JUMP JUMPDEST POP POP POP POP SWAP1 POP SWAP2 SWAP1 POP JUMP JUMPDEST PUSH1 0x6 SLOAD PUSH1 0x1 PUSH1 0x1 PUSH1 0xA0 SHL SUB AND CALLER EQ PUSH2 0x221F JUMPI PUSH1 0x40 MLOAD PUSH3 0x461BCD PUSH1 0xE5 SHL DUP2 MSTORE PUSH1 0x20 PUSH1 0x4 DUP3 ADD MSTORE PUSH1 0xD PUSH1 0x24 DUP3 ADD MSTORE PUSH13 0x2737BA103A34329037BBB732B9 PUSH1 0x99 SHL PUSH1 0x44 DUP3 ADD MSTORE PUSH1 0x64 ADD PUSH2 0x33C JUMP JUMPDEST PUSH1 0x0 SLOAD PUSH1 0x6 SLOAD PUSH1 0x40 MLOAD PUSH4 0x70A08231 PUSH1 0xE0 SHL DUP2 MSTORE ADDRESS PUSH1 0x4 DUP3 ADD MSTORE PUSH1 0x1 PUSH1 0x1 PUSH1 0xA0 SHL SUB SWAP3 DUP4 AND SWAP3 PUSH4 0xA9059CBB SWAP3 AND SWAP1 DUP4 SWAP1 PUSH4 0x70A08231 SWAP1 PUSH1 0x24 ADD PUSH1 0x20 PUSH1 0x40 MLOAD DUP1 DUP4 SUB DUP2 DUP7 GAS STATICCALL ISZERO DUP1 ISZERO PUSH2 0x2274 JUMPI RETURNDATASIZE PUSH1 0x0 DUP1 RETURNDATACOPY RETURNDATASIZE PUSH1 0x0 REVERT JUMPDEST POP POP POP POP PUSH1 0x40 MLOAD RETURNDATASIZE PUSH1 0x1F NOT PUSH1 0x1F DUP3 ADD AND DUP3 ADD DUP1 PUSH1 0x40 MSTORE POP DUP2 ADD SWAP1 PUSH2 0x163F SWAP2 SWAP1 PUSH2 0x3414 JUMP JUMPDEST PUSH1 0x0 PUSH1 0x7 DUP3 DUP2 SLOAD DUP2 LT PUSH2 0x22AD JUMPI PUSH2 0x22AD PUSH2 0x3631 JUMP JUMPDEST PUSH1 0x0 SWAP2 DUP3 MSTORE PUSH1 0x20 SWAP1 SWAP2 KECCAK256 PUSH1 0xB SWAP1 SWAP2 MUL ADD PUSH1 0x4 ADD SLOAD PUSH1 0x1 PUSH1 0x1 PUSH1 0xA0 SHL SUB AND CALLER EQ DUP1 PUSH2 0x2305 JUMPI POP PUSH1 0x7 DUP3 DUP2 SLOAD DUP2 LT PUSH2 0x22E5 JUMPI PUSH2 0x22E5 PUSH2 0x3631 JUMP JUMPDEST PUSH1 0x0 SWAP2 DUP3 MSTORE PUSH1 0x20 SWAP1 SWAP2 KECCAK256 PUSH1 0xB SWAP1 SWAP2 MUL ADD PUSH1 0x5 ADD SLOAD PUSH1 0x1 PUSH1 0x1 PUSH1 0xA0 SHL SUB AND CALLER EQ JUMPDEST PUSH2 0x2310 JUMPI PUSH1 0x0 PUSH2 0x20D2 JUMP JUMPDEST PUSH1 0x1 SWAP3 SWAP2 POP POP JUMP JUMPDEST PUSH1 0x0 DUP1 JUMPDEST PUSH1 0x8 SLOAD DUP2 LT ISZERO PUSH2 0x284B JUMPI PUSH1 0x0 PUSH1 0x8 DUP3 DUP2 SLOAD DUP2 LT PUSH2 0x233B JUMPI PUSH2 0x233B PUSH2 0x3631 JUMP JUMPDEST SWAP1 PUSH1 0x0 MSTORE PUSH1 0x20 PUSH1 0x0 KECCAK256 ADD DUP1 SLOAD DUP1 PUSH1 0x20 MUL PUSH1 0x20 ADD PUSH1 0x40 MLOAD SWAP1 DUP2 ADD PUSH1 0x40 MSTORE DUP1 SWAP3 SWAP2 SWAP1 DUP2 DUP2 MSTORE PUSH1 0x20 ADD DUP3 DUP1 SLOAD DUP1 ISZERO PUSH2 0x238F JUMPI PUSH1 0x20 MUL DUP3 ADD SWAP2 SWAP1 PUSH1 0x0 MSTORE PUSH1 0x20 PUSH1 0x0 KECCAK256 SWAP1 JUMPDEST DUP2 SLOAD DUP2 MSTORE PUSH1 0x20 ADD SWAP1 PUSH1 0x1 ADD SWAP1 DUP1 DUP4 GT PUSH2 0x237B JUMPI JUMPDEST POP POP POP POP POP SWAP1 POP PUSH1 0x0 PUSH1 0x7 DUP6 DUP2 SLOAD DUP2 LT PUSH2 0x23AB JUMPI PUSH2 0x23AB PUSH2 0x3631 JUMP JUMPDEST SWAP1 PUSH1 0x0 MSTORE PUSH1 0x20 PUSH1 0x0 KECCAK256 SWAP1 PUSH1 0xB MUL ADD PUSH1 0x2 ADD DUP3 PUSH1 0x0 DUP2 MLOAD DUP2 LT PUSH2 0x23CF JUMPI PUSH2 0x23CF PUSH2 0x3631 JUMP JUMPDEST PUSH1 0x20 MUL PUSH1 0x20 ADD ADD MLOAD DUP2 SLOAD DUP2 LT PUSH2 0x23E7 JUMPI PUSH2 0x23E7 PUSH2 0x3631 JUMP JUMPDEST SWAP1 PUSH1 0x0 MSTORE PUSH1 0x20 PUSH1 0x0 KECCAK256 ADD DUP1 SLOAD PUSH2 0x23FC SWAP1 PUSH2 0x34E8 JUMP JUMPDEST DUP1 PUSH1 0x1F ADD PUSH1 0x20 DUP1 SWAP2 DIV MUL PUSH1 0x20 ADD PUSH1 0x40 MLOAD SWAP1 DUP2 ADD PUSH1 0x40 MSTORE DUP1 SWAP3 SWAP2 SWAP1 DUP2 DUP2 MSTORE PUSH1 0x20 ADD DUP3 DUP1 SLOAD PUSH2 0x2428 SWAP1 PUSH2 0x34E8 JUMP JUMPDEST DUP1 ISZERO PUSH2 0x2475 JUMPI DUP1 PUSH1 0x1F LT PUSH2 0x244A JUMPI PUSH2 0x100 DUP1 DUP4 SLOAD DIV MUL DUP4 MSTORE SWAP2 PUSH1 0x20 ADD SWAP2 PUSH2 0x2475 JUMP JUMPDEST DUP3 ADD SWAP2 SWAP1 PUSH1 0x0 MSTORE PUSH1 0x20 PUSH1 0x0 KECCAK256 SWAP1 JUMPDEST DUP2 SLOAD DUP2 MSTORE SWAP1 PUSH1 0x1 ADD SWAP1 PUSH1 0x20 ADD DUP1 DUP4 GT PUSH2 0x2458 JUMPI DUP3 SWAP1 SUB PUSH1 0x1F AND DUP3 ADD SWAP2 JUMPDEST POP POP POP POP POP SWAP1 POP PUSH1 0x0 PUSH1 0x7 DUP7 DUP2 SLOAD DUP2 LT PUSH2 0x2491 JUMPI PUSH2 0x2491 PUSH2 0x3631 JUMP JUMPDEST SWAP1 PUSH1 0x0 MSTORE PUSH1 0x20 PUSH1 0x0 KECCAK256 SWAP1 PUSH1 0xB MUL ADD PUSH1 0x2 ADD DUP4 PUSH1 0x1 DUP2 MLOAD DUP2 LT PUSH2 0x24B5 JUMPI PUSH2 0x24B5 PUSH2 0x3631 JUMP JUMPDEST PUSH1 0x20 MUL PUSH1 0x20 ADD ADD MLOAD DUP2 SLOAD DUP2 LT PUSH2 0x24CD JUMPI PUSH2 0x24CD PUSH2 0x3631 JUMP JUMPDEST SWAP1 PUSH1 0x0 MSTORE PUSH1 0x20 PUSH1 0x0 KECCAK256 ADD DUP1 SLOAD PUSH2 0x24E2 SWAP1 PUSH2 0x34E8 JUMP JUMPDEST DUP1 PUSH1 0x1F ADD PUSH1 0x20 DUP1 SWAP2 DIV MUL PUSH1 0x20 ADD PUSH1 0x40 MLOAD SWAP1 DUP2 ADD PUSH1 0x40 MSTORE DUP1 SWAP3 SWAP2 SWAP1 DUP2 DUP2 MSTORE PUSH1 0x20 ADD DUP3 DUP1 SLOAD PUSH2 0x250E SWAP1 PUSH2 0x34E8 JUMP JUMPDEST DUP1 ISZERO PUSH2 0x255B JUMPI DUP1 PUSH1 0x1F LT PUSH2 0x2530 JUMPI PUSH2 0x100 DUP1 DUP4 SLOAD DIV MUL DUP4 MSTORE SWAP2 PUSH1 0x20 ADD SWAP2 PUSH2 0x255B JUMP JUMPDEST DUP3 ADD SWAP2 SWAP1 PUSH1 0x0 MSTORE PUSH1 0x20 PUSH1 0x0 KECCAK256 SWAP1 JUMPDEST DUP2 SLOAD DUP2 MSTORE SWAP1 PUSH1 0x1 ADD SWAP1 PUSH1 0x20 ADD DUP1 DUP4 GT PUSH2 0x253E JUMPI DUP3 SWAP1 SUB PUSH1 0x1F AND DUP3 ADD SWAP2 JUMPDEST POP POP POP POP POP SWAP1 POP PUSH1 0x0 PUSH1 0x7 DUP8 DUP2 SLOAD DUP2 LT PUSH2 0x2577 JUMPI PUSH2 0x2577 PUSH2 0x3631 JUMP JUMPDEST SWAP1 PUSH1 0x0 MSTORE PUSH1 0x20 PUSH1 0x0 KECCAK256 SWAP1 PUSH1 0xB MUL ADD PUSH1 0x2 ADD DUP5 PUSH1 0x2 DUP2 MLOAD DUP2 LT PUSH2 0x259B JUMPI PUSH2 0x259B PUSH2 0x3631 JUMP JUMPDEST PUSH1 0x20 MUL PUSH1 0x20 ADD ADD MLOAD DUP2 SLOAD DUP2 LT PUSH2 0x25B3 JUMPI PUSH2 0x25B3 PUSH2 0x3631 JUMP JUMPDEST SWAP1 PUSH1 0x0 MSTORE PUSH1 0x20 PUSH1 0x0 KECCAK256 ADD DUP1 SLOAD PUSH2 0x25C8 SWAP1 PUSH2 0x34E8 JUMP JUMPDEST DUP1 PUSH1 0x1F ADD PUSH1 0x20 DUP1 SWAP2 DIV MUL PUSH1 0x20 ADD PUSH1 0x40 MLOAD SWAP1 DUP2 ADD PUSH1 0x40 MSTORE DUP1 SWAP3 SWAP2 SWAP1 DUP2 DUP2 MSTORE PUSH1 0x20 ADD DUP3 DUP1 SLOAD PUSH2 0x25F4 SWAP1 PUSH2 0x34E8 JUMP JUMPDEST DUP1 ISZERO PUSH2 0x2641 JUMPI DUP1 PUSH1 0x1F LT PUSH2 0x2616 JUMPI PUSH2 0x100 DUP1 DUP4 SLOAD DIV MUL DUP4 MSTORE SWAP2 PUSH1 0x20 ADD SWAP2 PUSH2 0x2641 JUMP JUMPDEST DUP3 ADD SWAP2 SWAP1 PUSH1 0x0 MSTORE PUSH1 0x20 PUSH1 0x0 KECCAK256 SWAP1 JUMPDEST DUP2 SLOAD DUP2 MSTORE SWAP1 PUSH1 0x1 ADD SWAP1 PUSH1 0x20 ADD DUP1 DUP4 GT PUSH2 0x2624 JUMPI DUP3 SWAP1 SUB PUSH1 0x1F AND DUP3 ADD SWAP2 JUMPDEST POP POP POP POP POP SWAP1 POP PUSH2 0x2661 DUP4 PUSH1 0x40 MLOAD DUP1 PUSH1 0x20 ADD PUSH1 0x40 MSTORE DUP1 PUSH1 0x0 DUP2 MSTORE POP PUSH2 0x207E JUMP JUMPDEST DUP1 PUSH2 0x2680 JUMPI POP PUSH2 0x2680 DUP3 PUSH1 0x40 MLOAD DUP1 PUSH1 0x20 ADD PUSH1 0x40 MSTORE DUP1 PUSH1 0x0 DUP2 MSTORE POP PUSH2 0x207E JUMP JUMPDEST DUP1 PUSH2 0x269F JUMPI POP PUSH2 0x269F DUP2 PUSH1 0x40 MLOAD DUP1 PUSH1 0x20 ADD PUSH1 0x40 MSTORE DUP1 PUSH1 0x0 DUP2 MSTORE POP PUSH2 0x207E JUMP JUMPDEST ISZERO PUSH2 0x26AD JUMPI POP POP POP POP PUSH2 0x2839 JUMP JUMPDEST PUSH2 0x26B7 DUP4 DUP4 PUSH2 0x207E JUMP JUMPDEST DUP1 ISZERO PUSH2 0x26C8 JUMPI POP PUSH2 0x26C8 DUP3 DUP3 PUSH2 0x207E JUMP JUMPDEST ISZERO PUSH2 0x2834 JUMPI DUP4 PUSH1 0x7 DUP9 DUP2 SLOAD DUP2 LT PUSH2 0x26E1 JUMPI PUSH2 0x26E1 PUSH2 0x3631 JUMP JUMPDEST SWAP1 PUSH1 0x0 MSTORE PUSH1 0x20 PUSH1 0x0 KECCAK256 SWAP1 PUSH1 0xB MUL ADD PUSH1 0x3 ADD SWAP1 DUP1 MLOAD SWAP1 PUSH1 0x20 ADD SWAP1 PUSH2 0x2705 SWAP3 SWAP2 SWAP1 PUSH2 0x2EA2 JUMP JUMPDEST POP PUSH2 0x271C PUSH1 0x7 DUP9 DUP2 SLOAD DUP2 LT PUSH2 0x112F JUMPI PUSH2 0x112F PUSH2 0x3631 JUMP JUMPDEST ISZERO PUSH2 0x27A6 JUMPI PUSH1 0x7 DUP8 DUP2 SLOAD DUP2 LT PUSH2 0x2734 JUMPI PUSH2 0x2734 PUSH2 0x3631 JUMP JUMPDEST SWAP1 PUSH1 0x0 MSTORE PUSH1 0x20 PUSH1 0x0 KECCAK256 SWAP1 PUSH1 0xB MUL ADD PUSH1 0x4 ADD PUSH1 0x0 SWAP1 SLOAD SWAP1 PUSH2 0x100 EXP SWAP1 DIV PUSH1 0x1 PUSH1 0x1 PUSH1 0xA0 SHL SUB AND PUSH1 0x7 DUP9 DUP2 SLOAD DUP2 LT PUSH2 0x276C JUMPI PUSH2 0x276C PUSH2 0x3631 JUMP JUMPDEST SWAP1 PUSH1 0x0 MSTORE PUSH1 0x20 PUSH1 0x0 KECCAK256 SWAP1 PUSH1 0xB MUL ADD PUSH1 0x7 ADD PUSH1 0x0 PUSH2 0x100 EXP DUP2 SLOAD DUP2 PUSH1 0x1 PUSH1 0x1 PUSH1 0xA0 SHL SUB MUL NOT AND SWAP1 DUP4 PUSH1 0x1 PUSH1 0x1 PUSH1 0xA0 SHL SUB AND MUL OR SWAP1 SSTORE POP PUSH2 0x2827 JUMP JUMPDEST PUSH1 0x7 DUP8 DUP2 SLOAD DUP2 LT PUSH2 0x27B9 JUMPI PUSH2 0x27B9 PUSH2 0x3631 JUMP JUMPDEST SWAP1 PUSH1 0x0 MSTORE PUSH1 0x20 PUSH1 0x0 KECCAK256 SWAP1 PUSH1 0xB MUL ADD PUSH1 0x5 ADD PUSH1 0x0 SWAP1 SLOAD SWAP1 PUSH2 0x100 EXP SWAP1 DIV PUSH1 0x1 PUSH1 0x1 PUSH1 0xA0 SHL SUB AND PUSH1 0x7 DUP9 DUP2 SLOAD DUP2 LT PUSH2 0x27F1 JUMPI PUSH2 0x27F1 PUSH2 0x3631 JUMP JUMPDEST SWAP1 PUSH1 0x0 MSTORE PUSH1 0x20 PUSH1 0x0 KECCAK256 SWAP1 PUSH1 0xB MUL ADD PUSH1 0x7 ADD PUSH1 0x0 PUSH2 0x100 EXP DUP2 SLOAD DUP2 PUSH1 0x1 PUSH1 0x1 PUSH1 0xA0 SHL SUB MUL NOT AND SWAP1 DUP4 PUSH1 0x1 PUSH1 0x1 PUSH1 0xA0 SHL SUB AND MUL OR SWAP1 SSTORE POP JUMPDEST PUSH1 0x1 SWAP6 POP POP POP POP POP PUSH2 0x284B JUMP JUMPDEST POP POP POP POP JUMPDEST DUP1 PUSH2 0x2843 DUP2 PUSH2 0x3647 JUMP JUMPDEST SWAP2 POP POP PUSH2 0x231C JUMP JUMPDEST POP DUP1 ISZERO PUSH2 0x2B10 JUMPI PUSH2 0x2868 PUSH1 0x7 DUP4 DUP2 SLOAD DUP2 LT PUSH2 0x112F JUMPI PUSH2 0x112F PUSH2 0x3631 JUMP JUMPDEST ISZERO PUSH2 0x2958 JUMPI PUSH1 0x0 SLOAD PUSH1 0x7 DUP1 SLOAD PUSH1 0x1 PUSH1 0x1 PUSH1 0xA0 SHL SUB SWAP1 SWAP3 AND SWAP2 PUSH4 0xA9059CBB SWAP2 SWAP1 DUP6 SWAP1 DUP2 LT PUSH2 0x2897 JUMPI PUSH2 0x2897 PUSH2 0x3631 JUMP JUMPDEST SWAP1 PUSH1 0x0 MSTORE PUSH1 0x20 PUSH1 0x0 KECCAK256 SWAP1 PUSH1 0xB MUL ADD PUSH1 0x4 ADD PUSH1 0x0 SWAP1 SLOAD SWAP1 PUSH2 0x100 EXP SWAP1 DIV PUSH1 0x1 PUSH1 0x1 PUSH1 0xA0 SHL SUB AND PUSH1 0x7 DUP6 DUP2 SLOAD DUP2 LT PUSH2 0x28CF JUMPI PUSH2 0x28CF PUSH2 0x3631 JUMP JUMPDEST PUSH1 0x0 SWAP2 DUP3 MSTORE PUSH1 0x20 SWAP1 SWAP2 KECCAK256 PUSH1 0xA PUSH1 0xB SWAP1 SWAP3 MUL ADD ADD SLOAD PUSH1 0x40 MLOAD PUSH1 0x1 PUSH1 0x1 PUSH1 0xE0 SHL SUB NOT PUSH1 0xE0 DUP6 SWAP1 SHL AND DUP2 MSTORE PUSH1 0x1 PUSH1 0x1 PUSH1 0xA0 SHL SUB SWAP1 SWAP3 AND PUSH1 0x4 DUP4 ADD MSTORE PUSH1 0x24 DUP3 ADD MSTORE PUSH1 0x44 ADD PUSH1 0x20 PUSH1 0x40 MLOAD DUP1 DUP4 SUB DUP2 PUSH1 0x0 DUP8 GAS CALL ISZERO DUP1 ISZERO PUSH2 0x292E JUMPI RETURNDATASIZE PUSH1 0x0 DUP1 RETURNDATACOPY RETURNDATASIZE PUSH1 0x0 REVERT JUMPDEST POP POP POP POP PUSH1 0x40 MLOAD RETURNDATASIZE PUSH1 0x1F NOT PUSH1 0x1F DUP3 ADD AND DUP3 ADD DUP1 PUSH1 0x40 MSTORE POP DUP2 ADD SWAP1 PUSH2 0x2952 SWAP2 SWAP1 PUSH2 0x342D JUMP JUMPDEST POP PUSH2 0x2A3F JUMP JUMPDEST PUSH1 0x0 SLOAD PUSH1 0x7 DUP1 SLOAD PUSH1 0x1 PUSH1 0x1 PUSH1 0xA0 SHL SUB SWAP1 SWAP3 AND SWAP2 PUSH4 0xA9059CBB SWAP2 SWAP1 DUP6 SWAP1 DUP2 LT PUSH2 0x2982 JUMPI PUSH2 0x2982 PUSH2 0x3631 JUMP JUMPDEST SWAP1 PUSH1 0x0 MSTORE PUSH1 0x20 PUSH1 0x0 KECCAK256 SWAP1 PUSH1 0xB MUL ADD PUSH1 0x5 ADD PUSH1 0x0 SWAP1 SLOAD SWAP1 PUSH2 0x100 EXP SWAP1 DIV PUSH1 0x1 PUSH1 0x1 PUSH1 0xA0 SHL SUB AND PUSH1 0x7 DUP6 DUP2 SLOAD DUP2 LT PUSH2 0x29BA JUMPI PUSH2 0x29BA PUSH2 0x3631 JUMP JUMPDEST PUSH1 0x0 SWAP2 DUP3 MSTORE PUSH1 0x20 SWAP1 SWAP2 KECCAK256 PUSH1 0xA PUSH1 0xB SWAP1 SWAP3 MUL ADD ADD SLOAD PUSH1 0x40 MLOAD PUSH1 0x1 PUSH1 0x1 PUSH1 0xE0 SHL SUB NOT PUSH1 0xE0 DUP6 SWAP1 SHL AND DUP2 MSTORE PUSH1 0x1 PUSH1 0x1 PUSH1 0xA0 SHL SUB SWAP1 SWAP3 AND PUSH1 0x4 DUP4 ADD MSTORE PUSH1 0x24 DUP3 ADD MSTORE PUSH1 0x44 ADD PUSH1 0x20 PUSH1 0x40 MLOAD DUP1 DUP4 SUB DUP2 PUSH1 0x0 DUP8 GAS CALL ISZERO DUP1 ISZERO PUSH2 0x2A19 JUMPI RETURNDATASIZE PUSH1 0x0 DUP1 RETURNDATACOPY RETURNDATASIZE PUSH1 0x0 REVERT JUMPDEST POP POP POP POP PUSH1 0x40 MLOAD RETURNDATASIZE PUSH1 0x1F NOT PUSH1 0x1F DUP3 ADD AND DUP3 ADD DUP1 PUSH1 0x40 MSTORE POP DUP2 ADD SWAP1 PUSH2 0x2A3D SWAP2 SWAP1 PUSH2 0x342D JUMP JUMPDEST POP JUMPDEST PUSH1 0x7 DUP3 DUP2 SLOAD DUP2 LT PUSH2 0x2A52 JUMPI PUSH2 0x2A52 PUSH2 0x3631 JUMP JUMPDEST SWAP1 PUSH1 0x0 MSTORE PUSH1 0x20 PUSH1 0x0 KECCAK256 SWAP1 PUSH1 0xB MUL ADD PUSH1 0xA ADD SLOAD PUSH1 0x5 PUSH1 0x0 DUP3 DUP3 SLOAD PUSH2 0x2A75 SWAP2 SWAP1 PUSH2 0x349E JUMP JUMPDEST SWAP3 POP POP DUP2 SWAP1 SSTORE POP PUSH32 0x938A1C44580C51D01225D61FB97878104148B1CDC734EB45BC5B5B50533A492D PUSH1 0x7 DUP4 DUP2 SLOAD DUP2 LT PUSH2 0x2AB0 JUMPI PUSH2 0x2AB0 PUSH2 0x3631 JUMP JUMPDEST SWAP1 PUSH1 0x0 MSTORE PUSH1 0x20 PUSH1 0x0 KECCAK256 SWAP1 PUSH1 0xB MUL ADD PUSH1 0x1 ADD DUP4 PUSH1 0x40 MLOAD PUSH2 0x2AD0 SWAP3 SWAP2 SWAP1 PUSH2 0x3964 JUMP JUMPDEST PUSH1 0x40 MLOAD DUP1 SWAP2 SUB SWAP1 LOG1 PUSH1 0x0 PUSH1 0x7 DUP4 DUP2 SLOAD DUP2 LT PUSH2 0x2AED JUMPI PUSH2 0x2AED PUSH2 0x3631 JUMP JUMPDEST PUSH1 0x0 SWAP2 DUP3 MSTORE PUSH1 0x20 SWAP1 SWAP2 KECCAK256 PUSH1 0xB SWAP1 SWAP2 MUL ADD DUP1 SLOAD PUSH1 0xFF NOT AND SWAP2 ISZERO ISZERO SWAP2 SWAP1 SWAP2 OR SWAP1 SSTORE POP POP JUMP JUMPDEST PUSH2 0x2B19 DUP3 PUSH2 0x2B75 JUMP JUMPDEST ISZERO PUSH2 0x2B6C JUMPI PUSH1 0x40 DUP1 MLOAD DUP2 DUP2 MSTORE PUSH1 0x4 SWAP2 DUP2 ADD SWAP2 SWAP1 SWAP2 MSTORE PUSH4 0x44726177 PUSH1 0xE0 SHL PUSH1 0x60 DUP3 ADD MSTORE PUSH1 0x20 DUP2 ADD DUP4 SWAP1 MSTORE PUSH32 0x938A1C44580C51D01225D61FB97878104148B1CDC734EB45BC5B5B50533A492D SWAP1 PUSH1 0x80 ADD PUSH2 0x2AD0 JUMP JUMPDEST PUSH2 0x13B1 DUP3 PUSH2 0x2C09 JUMP JUMPDEST PUSH1 0x0 DUP1 JUMPDEST PUSH1 0x7 DUP4 DUP2 SLOAD DUP2 LT PUSH2 0x2B8C JUMPI PUSH2 0x2B8C PUSH2 0x3631 JUMP JUMPDEST SWAP1 PUSH1 0x0 MSTORE PUSH1 0x20 PUSH1 0x0 KECCAK256 SWAP1 PUSH1 0xB MUL ADD PUSH1 0x2 ADD DUP1 SLOAD SWAP1 POP DUP2 LT ISZERO PUSH2 0x2C00 JUMPI PUSH2 0x2BE0 PUSH1 0x7 DUP5 DUP2 SLOAD DUP2 LT PUSH2 0x2BBE JUMPI PUSH2 0x2BBE PUSH2 0x3631 JUMP JUMPDEST SWAP1 PUSH1 0x0 MSTORE PUSH1 0x20 PUSH1 0x0 KECCAK256 SWAP1 PUSH1 0xB MUL ADD PUSH1 0x2 ADD DUP3 DUP2 SLOAD DUP2 LT PUSH2 0x1035 JUMPI PUSH2 0x1035 PUSH2 0x3631 JUMP JUMPDEST ISZERO PUSH2 0x2BEE JUMPI POP PUSH1 0x0 SWAP3 SWAP2 POP POP JUMP JUMPDEST DUP1 PUSH2 0x2BF8 DUP2 PUSH2 0x3647 JUMP JUMPDEST SWAP2 POP POP PUSH2 0x2B79 JUMP JUMPDEST POP PUSH1 0x1 SWAP3 SWAP2 POP POP JUMP JUMPDEST PUSH2 0x2C1F PUSH1 0x7 DUP3 DUP2 SLOAD DUP2 LT PUSH2 0x112F JUMPI PUSH2 0x112F PUSH2 0x3631 JUMP JUMPDEST ISZERO PUSH2 0x2C92 JUMPI PUSH32 0xEEFC3FD775B975165C9D067E02FCD5BF5889D58041AE6DDAF94F2CC853007272 PUSH1 0x7 DUP3 DUP2 SLOAD DUP2 LT PUSH2 0x2C58 JUMPI PUSH2 0x2C58 PUSH2 0x3631 JUMP JUMPDEST PUSH1 0x0 SWAP2 DUP3 MSTORE PUSH1 0x20 SWAP2 DUP3 SWAP1 KECCAK256 PUSH1 0xB SWAP1 SWAP2 MUL ADD PUSH1 0x5 ADD SLOAD PUSH1 0x40 DUP1 MLOAD PUSH1 0x1 PUSH1 0x1 PUSH1 0xA0 SHL SUB SWAP1 SWAP3 AND DUP3 MSTORE SWAP2 DUP2 ADD DUP5 SWAP1 MSTORE ADD PUSH1 0x40 MLOAD DUP1 SWAP2 SUB SWAP1 LOG1 PUSH2 0x2CFC JUMP JUMPDEST PUSH32 0xEEFC3FD775B975165C9D067E02FCD5BF5889D58041AE6DDAF94F2CC853007272 PUSH1 0x7 DUP3 DUP2 SLOAD DUP2 LT PUSH2 0x2CC6 JUMPI PUSH2 0x2CC6 PUSH2 0x3631 JUMP JUMPDEST PUSH1 0x0 SWAP2 DUP3 MSTORE PUSH1 0x20 SWAP2 DUP3 SWAP1 KECCAK256 PUSH1 0xB SWAP1 SWAP2 MUL ADD PUSH1 0x4 ADD SLOAD PUSH1 0x40 DUP1 MLOAD PUSH1 0x1 PUSH1 0x1 PUSH1 0xA0 SHL SUB SWAP1 SWAP3 AND DUP3 MSTORE SWAP2 DUP2 ADD DUP5 SWAP1 MSTORE ADD PUSH1 0x40 MLOAD DUP1 SWAP2 SUB SWAP1 LOG1 JUMPDEST PUSH2 0x2D12 PUSH1 0x7 DUP3 DUP2 SLOAD DUP2 LT PUSH2 0x112F JUMPI PUSH2 0x112F PUSH2 0x3631 JUMP JUMPDEST PUSH2 0x2D35 JUMPI PUSH1 0x40 MLOAD DUP1 PUSH1 0x40 ADD PUSH1 0x40 MSTORE DUP1 PUSH1 0x1 DUP2 MSTORE PUSH1 0x20 ADD PUSH1 0xB PUSH1 0xFB SHL DUP2 MSTORE POP PUSH2 0x2D50 JUMP JUMPDEST PUSH1 0x40 MLOAD DUP1 PUSH1 0x40 ADD PUSH1 0x40 MSTORE DUP1 PUSH1 0x1 DUP2 MSTORE PUSH1 0x20 ADD PUSH1 0x4F PUSH1 0xF8 SHL DUP2 MSTORE POP JUMPDEST PUSH1 0x7 DUP3 DUP2 SLOAD DUP2 LT PUSH2 0x2D63 JUMPI PUSH2 0x2D63 PUSH2 0x3631 JUMP JUMPDEST SWAP1 PUSH1 0x0 MSTORE PUSH1 0x20 PUSH1 0x0 KECCAK256 SWAP1 PUSH1 0xB MUL ADD PUSH1 0x1 ADD SWAP1 DUP2 PUSH2 0x2D80 SWAP2 SWAP1 PUSH2 0x3571 JUMP JUMPDEST POP PUSH32 0xA6D1CB5F730B987124C37C3876130FDDBA49456449948EC4257360F5AB2851C0 PUSH1 0x7 DUP3 DUP2 SLOAD DUP2 LT PUSH2 0x2DB5 JUMPI PUSH2 0x2DB5 PUSH2 0x3631 JUMP JUMPDEST SWAP1 PUSH1 0x0 MSTORE PUSH1 0x20 PUSH1 0x0 KECCAK256 SWAP1 PUSH1 0xB MUL ADD PUSH1 0x1 ADD DUP3 PUSH1 0x40 MLOAD PUSH2 0xF7F SWAP3 SWAP2 SWAP1 PUSH2 0x3964 JUMP JUMPDEST PUSH1 0x40 MLOAD DUP1 PUSH2 0x160 ADD PUSH1 0x40 MSTORE DUP1 PUSH1 0x0 ISZERO ISZERO DUP2 MSTORE PUSH1 0x20 ADD PUSH1 0x60 DUP2 MSTORE PUSH1 0x20 ADD PUSH1 0x60 DUP2 MSTORE PUSH1 0x20 ADD PUSH1 0x60 DUP2 MSTORE PUSH1 0x20 ADD PUSH1 0x0 PUSH1 0x1 PUSH1 0x1 PUSH1 0xA0 SHL SUB AND DUP2 MSTORE PUSH1 0x20 ADD PUSH1 0x0 PUSH1 0x1 PUSH1 0x1 PUSH1 0xA0 SHL SUB AND DUP2 MSTORE PUSH1 0x20 ADD PUSH1 0x0 DUP2 MSTORE PUSH1 0x20 ADD PUSH1 0x0 PUSH1 0x1 PUSH1 0x1 PUSH1 0xA0 SHL SUB AND DUP2 MSTORE PUSH1 0x20 ADD PUSH1 0x0 DUP2 MSTORE PUSH1 0x20 ADD PUSH1 0x0 DUP2 MSTORE PUSH1 0x20 ADD PUSH1 0x0 DUP2 MSTORE POP SWAP1 JUMP JUMPDEST DUP3 DUP1 SLOAD DUP3 DUP3 SSTORE SWAP1 PUSH1 0x0 MSTORE PUSH1 0x20 PUSH1 0x0 KECCAK256 SWAP1 DUP2 ADD SWAP3 DUP3 ISZERO PUSH2 0x2E92 JUMPI SWAP2 PUSH1 0x20 MUL DUP3 ADD JUMPDEST DUP3 DUP2 GT ISZERO PUSH2 0x2E92 JUMPI DUP3 MLOAD DUP3 SWAP1 PUSH2 0x2E82 SWAP1 DUP3 PUSH2 0x3571 JUMP JUMPDEST POP SWAP2 PUSH1 0x20 ADD SWAP2 SWAP1 PUSH1 0x1 ADD SWAP1 PUSH2 0x2E6C JUMP JUMPDEST POP PUSH2 0x2E9E SWAP3 SWAP2 POP PUSH2 0x2F2F JUMP JUMPDEST POP SWAP1 JUMP JUMPDEST DUP3 DUP1 SLOAD DUP3 DUP3 SSTORE SWAP1 PUSH1 0x0 MSTORE PUSH1 0x20 PUSH1 0x0 KECCAK256 SWAP1 DUP2 ADD SWAP3 DUP3 ISZERO PUSH2 0x2EDD JUMPI SWAP2 PUSH1 0x20 MUL DUP3 ADD JUMPDEST DUP3 DUP2 GT ISZERO PUSH2 0x2EDD JUMPI DUP3 MLOAD DUP3 SSTORE SWAP2 PUSH1 0x20 ADD SWAP2 SWAP1 PUSH1 0x1 ADD SWAP1 PUSH2 0x2EC2 JUMP JUMPDEST POP PUSH2 0x2E9E SWAP3 SWAP2 POP PUSH2 0x2F4C JUMP JUMPDEST DUP3 DUP1 SLOAD DUP3 DUP3 SSTORE SWAP1 PUSH1 0x0 MSTORE PUSH1 0x20 PUSH1 0x0 KECCAK256 SWAP1 DUP2 ADD SWAP3 DUP3 ISZERO PUSH2 0x2E92 JUMPI SWAP2 PUSH1 0x20 MUL DUP3 ADD JUMPDEST DUP3 DUP2 GT ISZERO PUSH2 0x2E92 JUMPI DUP3 MLOAD DUP3 SWAP1 PUSH2 0x2F1F SWAP1 DUP3 PUSH2 0x3571 JUMP JUMPDEST POP SWAP2 PUSH1 0x20 ADD SWAP2 SWAP1 PUSH1 0x1 ADD SWAP1 PUSH2 0x2F09 JUMP JUMPDEST DUP1 DUP3 GT ISZERO PUSH2 0x2E9E JUMPI PUSH1 0x0 PUSH2 0x2F43 DUP3 DUP3 PUSH2 0x2F61 JUMP JUMPDEST POP PUSH1 0x1 ADD PUSH2 0x2F2F JUMP JUMPDEST JUMPDEST DUP1 DUP3 GT ISZERO PUSH2 0x2E9E JUMPI PUSH1 0x0 DUP2 SSTORE PUSH1 0x1 ADD PUSH2 0x2F4D JUMP JUMPDEST POP DUP1 SLOAD PUSH2 0x2F6D SWAP1 PUSH2 0x34E8 JUMP JUMPDEST PUSH1 0x0 DUP3 SSTORE DUP1 PUSH1 0x1F LT PUSH2 0x2F7D JUMPI POP POP JUMP JUMPDEST PUSH1 0x1F ADD PUSH1 0x20 SWAP1 DIV SWAP1 PUSH1 0x0 MSTORE PUSH1 0x20 PUSH1 0x0 KECCAK256 SWAP1 DUP2 ADD SWAP1 PUSH2 0xB76 SWAP2 SWAP1 PUSH2 0x2F4C JUMP JUMPDEST PUSH1 0x0 PUSH1 0x20 DUP3 DUP5 SUB SLT ISZERO PUSH2 0x2FAD JUMPI PUSH1 0x0 DUP1 REVERT JUMPDEST POP CALLDATALOAD SWAP2 SWAP1 POP JUMP JUMPDEST PUSH1 0x20 DUP1 DUP3 MSTORE DUP3 MLOAD DUP3 DUP3 ADD DUP2 SWAP1 MSTORE PUSH1 0x0 SWAP2 SWAP1 DUP5 DUP3 ADD SWAP1 PUSH1 0x40 DUP6 ADD SWAP1 DUP5 JUMPDEST DUP2 DUP2 LT ISZERO PUSH2 0x2FEC JUMPI DUP4 MLOAD DUP4 MSTORE SWAP3 DUP5 ADD SWAP3 SWAP2 DUP5 ADD SWAP2 PUSH1 0x1 ADD PUSH2 0x2FD0 JUMP JUMPDEST POP SWAP1 SWAP7 SWAP6 POP POP POP POP POP POP JUMP JUMPDEST PUSH1 0x0 JUMPDEST DUP4 DUP2 LT ISZERO PUSH2 0x3013 JUMPI DUP2 DUP2 ADD MLOAD DUP4 DUP3 ADD MSTORE PUSH1 0x20 ADD PUSH2 0x2FFB JUMP JUMPDEST POP POP PUSH1 0x0 SWAP2 ADD MSTORE JUMP JUMPDEST PUSH1 0x0 DUP2 MLOAD DUP1 DUP5 MSTORE PUSH2 0x3034 DUP2 PUSH1 0x20 DUP7 ADD PUSH1 0x20 DUP7 ADD PUSH2 0x2FF8 JUMP JUMPDEST PUSH1 0x1F ADD PUSH1 0x1F NOT AND SWAP3 SWAP1 SWAP3 ADD PUSH1 0x20 ADD SWAP3 SWAP2 POP POP JUMP JUMPDEST PUSH1 0x0 DUP3 DUP3 MLOAD DUP1 DUP6 MSTORE PUSH1 0x20 DUP1 DUP7 ADD SWAP6 POP DUP1 DUP3 PUSH1 0x5 SHL DUP5 ADD ADD DUP2 DUP7 ADD PUSH1 0x0 JUMPDEST DUP5 DUP2 LT ISZERO PUSH2 0x3093 JUMPI PUSH1 0x1F NOT DUP7 DUP5 SUB ADD DUP10 MSTORE PUSH2 0x3081 DUP4 DUP4 MLOAD PUSH2 0x301C JUMP JUMPDEST SWAP9 DUP5 ADD SWAP9 SWAP3 POP SWAP1 DUP4 ADD SWAP1 PUSH1 0x1 ADD PUSH2 0x3065 JUMP JUMPDEST POP SWAP1 SWAP8 SWAP7 POP POP POP POP POP POP POP JUMP JUMPDEST PUSH1 0x0 DUP2 MLOAD DUP1 DUP5 MSTORE PUSH1 0x20 DUP1 DUP6 ADD SWAP5 POP DUP1 DUP5 ADD PUSH1 0x0 JUMPDEST DUP4 DUP2 LT ISZERO PUSH2 0x30D0 JUMPI DUP2 MLOAD DUP8 MSTORE SWAP6 DUP3 ADD SWAP6 SWAP1 DUP3 ADD SWAP1 PUSH1 0x1 ADD PUSH2 0x30B4 JUMP JUMPDEST POP SWAP5 SWAP6 SWAP5 POP POP POP POP POP JUMP JUMPDEST DUP1 MLOAD ISZERO ISZERO DUP3 MSTORE PUSH1 0x0 PUSH2 0x160 PUSH1 0x20 DUP4 ADD MLOAD DUP2 PUSH1 0x20 DUP7 ADD MSTORE PUSH2 0x30FD DUP3 DUP7 ADD DUP3 PUSH2 0x301C JUMP JUMPDEST SWAP2 POP POP PUSH1 0x40 DUP4 ADD MLOAD DUP5 DUP3 SUB PUSH1 0x40 DUP7 ADD MSTORE PUSH2 0x3117 DUP3 DUP3 PUSH2 0x3048 JUMP JUMPDEST SWAP2 POP POP PUSH1 0x60 DUP4 ADD MLOAD DUP5 DUP3 SUB PUSH1 0x60 DUP7 ADD MSTORE PUSH2 0x3131 DUP3 DUP3 PUSH2 0x30A0 JUMP JUMPDEST SWAP2 POP POP PUSH1 0x80 DUP4 ADD MLOAD PUSH2 0x314E PUSH1 0x80 DUP7 ADD DUP3 PUSH1 0x1 PUSH1 0x1 PUSH1 0xA0 SHL SUB AND SWAP1 MSTORE JUMP JUMPDEST POP PUSH1 0xA0 DUP4 ADD MLOAD PUSH2 0x3169 PUSH1 0xA0 DUP7 ADD DUP3 PUSH1 0x1 PUSH1 0x1 PUSH1 0xA0 SHL SUB AND SWAP1 MSTORE JUMP JUMPDEST POP PUSH1 0xC0 DUP4 ADD MLOAD PUSH1 0xC0 DUP6 ADD MSTORE PUSH1 0xE0 DUP4 ADD MLOAD PUSH2 0x318E PUSH1 0xE0 DUP7 ADD DUP3 PUSH1 0x1 PUSH1 0x1 PUSH1 0xA0 SHL SUB AND SWAP1 MSTORE JUMP JUMPDEST POP PUSH2 0x100 DUP4 DUP2 ADD MLOAD SWAP1 DUP6 ADD MSTORE PUSH2 0x120 DUP1 DUP5 ADD MLOAD SWAP1 DUP6 ADD MSTORE PUSH2 0x140 SWAP3 DUP4 ADD MLOAD SWAP3 SWAP1 SWAP4 ADD SWAP2 SWAP1 SWAP2 MSTORE POP SWAP1 JUMP JUMPDEST PUSH1 0x0 PUSH1 0x20 DUP1 DUP4 ADD DUP2 DUP5 MSTORE DUP1 DUP6 MLOAD DUP1 DUP4 MSTORE PUSH1 0x40 DUP7 ADD SWAP2 POP PUSH1 0x40 DUP2 PUSH1 0x5 SHL DUP8 ADD ADD SWAP3 POP DUP4 DUP8 ADD PUSH1 0x0 JUMPDEST DUP3 DUP2 LT ISZERO PUSH2 0x320D JUMPI PUSH1 0x3F NOT DUP9 DUP7 SUB ADD DUP5 MSTORE PUSH2 0x31FB DUP6 DUP4 MLOAD PUSH2 0x30DB JUMP JUMPDEST SWAP5 POP SWAP3 DUP6 ADD SWAP3 SWAP1 DUP6 ADD SWAP1 PUSH1 0x1 ADD PUSH2 0x31DF JUMP JUMPDEST POP SWAP3 SWAP8 SWAP7 POP POP POP POP POP POP POP JUMP JUMPDEST PUSH1 0x0 DUP1 PUSH1 0x40 DUP4 DUP6 SUB SLT ISZERO PUSH2 0x322D JUMPI PUSH1 0x0 DUP1 REVERT JUMPDEST POP POP DUP1 CALLDATALOAD SWAP3 PUSH1 0x20 SWAP1 SWAP2 ADD CALLDATALOAD SWAP2 POP JUMP JUMPDEST PUSH1 0x0 PUSH2 0x120 DUP12 ISZERO ISZERO DUP4 MSTORE DUP1 PUSH1 0x20 DUP5 ADD MSTORE PUSH2 0x3258 DUP2 DUP5 ADD DUP13 PUSH2 0x301C JUMP JUMPDEST PUSH1 0x1 PUSH1 0x1 PUSH1 0xA0 SHL SUB SWAP11 DUP12 AND PUSH1 0x40 DUP6 ADD MSTORE SWAP9 DUP11 AND PUSH1 0x60 DUP5 ADD MSTORE POP POP PUSH1 0x80 DUP2 ADD SWAP6 SWAP1 SWAP6 MSTORE SWAP3 SWAP1 SWAP6 AND PUSH1 0xA0 DUP5 ADD MSTORE PUSH1 0xC0 DUP4 ADD MSTORE PUSH1 0xE0 DUP3 ADD SWAP4 SWAP1 SWAP4 MSTORE PUSH2 0x100 ADD SWAP2 SWAP1 SWAP2 MSTORE SWAP3 SWAP2 POP POP JUMP JUMPDEST PUSH1 0x20 DUP2 MSTORE PUSH1 0x0 PUSH2 0x32B1 PUSH1 0x20 DUP4 ADD DUP5 PUSH2 0x30DB JUMP JUMPDEST SWAP4 SWAP3 POP POP POP JUMP JUMPDEST PUSH4 0x4E487B71 PUSH1 0xE0 SHL PUSH1 0x0 MSTORE PUSH1 0x41 PUSH1 0x4 MSTORE PUSH1 0x24 PUSH1 0x0 REVERT JUMPDEST PUSH1 0x0 DUP3 PUSH1 0x1F DUP4 ADD SLT PUSH2 0x32DF JUMPI PUSH1 0x0 DUP1 REVERT JUMPDEST DUP2 CALLDATALOAD PUSH8 0xFFFFFFFFFFFFFFFF DUP1 DUP3 GT ISZERO PUSH2 0x32FA JUMPI PUSH2 0x32FA PUSH2 0x32B8 JUMP JUMPDEST PUSH1 0x40 MLOAD PUSH1 0x1F DUP4 ADD PUSH1 0x1F NOT SWAP1 DUP2 AND PUSH1 0x3F ADD AND DUP2 ADD SWAP1 DUP3 DUP3 GT DUP2 DUP4 LT OR ISZERO PUSH2 0x3322 JUMPI PUSH2 0x3322 PUSH2 0x32B8 JUMP JUMPDEST DUP2 PUSH1 0x40 MSTORE DUP4 DUP2 MSTORE DUP7 PUSH1 0x20 DUP6 DUP9 ADD ADD GT ISZERO PUSH2 0x333B JUMPI PUSH1 0x0 DUP1 REVERT JUMPDEST DUP4 PUSH1 0x20 DUP8 ADD PUSH1 0x20 DUP4 ADD CALLDATACOPY PUSH1 0x0 PUSH1 0x20 DUP6 DUP4 ADD ADD MSTORE DUP1 SWAP5 POP POP POP POP POP SWAP3 SWAP2 POP POP JUMP JUMPDEST PUSH1 0x0 DUP1 PUSH1 0x40 DUP4 DUP6 SUB SLT ISZERO PUSH2 0x336E JUMPI PUSH1 0x0 DUP1 REVERT JUMPDEST DUP3 CALLDATALOAD PUSH8 0xFFFFFFFFFFFFFFFF DUP1 DUP3 GT ISZERO PUSH2 0x3386 JUMPI PUSH1 0x0 DUP1 REVERT JUMPDEST PUSH2 0x3392 DUP7 DUP4 DUP8 ADD PUSH2 0x32CE JUMP JUMPDEST SWAP4 POP PUSH1 0x20 DUP6 ADD CALLDATALOAD SWAP2 POP DUP1 DUP3 GT ISZERO PUSH2 0x33A8 JUMPI PUSH1 0x0 DUP1 REVERT JUMPDEST POP PUSH2 0x33B5 DUP6 DUP3 DUP7 ADD PUSH2 0x32CE JUMP JUMPDEST SWAP2 POP POP SWAP3 POP SWAP3 SWAP1 POP JUMP JUMPDEST PUSH1 0x0 PUSH1 0x20 DUP1 DUP4 ADD DUP2 DUP5 MSTORE DUP1 DUP6 MLOAD DUP1 DUP4 MSTORE PUSH1 0x40 DUP7 ADD SWAP2 POP PUSH1 0x40 DUP2 PUSH1 0x5 SHL DUP8 ADD ADD SWAP3 POP DUP4 DUP8 ADD PUSH1 0x0 JUMPDEST DUP3 DUP2 LT ISZERO PUSH2 0x320D JUMPI PUSH1 0x3F NOT DUP9 DUP7 SUB ADD DUP5 MSTORE PUSH2 0x3402 DUP6 DUP4 MLOAD PUSH2 0x301C JUMP JUMPDEST SWAP5 POP SWAP3 DUP6 ADD SWAP3 SWAP1 DUP6 ADD SWAP1 PUSH1 0x1 ADD PUSH2 0x33E6 JUMP JUMPDEST PUSH1 0x0 PUSH1 0x20 DUP3 DUP5 SUB SLT ISZERO PUSH2 0x3426 JUMPI PUSH1 0x0 DUP1 REVERT JUMPDEST POP MLOAD SWAP2 SWAP1 POP JUMP JUMPDEST PUSH1 0x0 PUSH1 0x20 DUP3 DUP5 SUB SLT ISZERO PUSH2 0x343F JUMPI PUSH1 0x0 DUP1 REVERT JUMPDEST DUP2 MLOAD DUP1 ISZERO ISZERO DUP2 EQ PUSH2 0x32B1 JUMPI PUSH1 0x0 DUP1 REVERT JUMPDEST PUSH4 0x4E487B71 PUSH1 0xE0 SHL PUSH1 0x0 MSTORE PUSH1 0x11 PUSH1 0x4 MSTORE PUSH1 0x24 PUSH1 0x0 REVERT JUMPDEST DUP1 DUP3 MUL DUP2 ISZERO DUP3 DUP3 DIV DUP5 EQ OR PUSH2 0x20D2 JUMPI PUSH2 0x20D2 PUSH2 0x344F JUMP JUMPDEST PUSH1 0x0 DUP3 PUSH2 0x3499 JUMPI PUSH4 0x4E487B71 PUSH1 0xE0 SHL PUSH1 0x0 MSTORE PUSH1 0x12 PUSH1 0x4 MSTORE PUSH1 0x24 PUSH1 0x0 REVERT JUMPDEST POP DIV SWAP1 JUMP JUMPDEST DUP2 DUP2 SUB DUP2 DUP2 GT ISZERO PUSH2 0x20D2 JUMPI PUSH2 0x20D2 PUSH2 0x344F JUMP JUMPDEST PUSH1 0x1 PUSH1 0x1 PUSH1 0xA0 SHL SUB SWAP4 DUP5 AND DUP2 MSTORE SWAP2 SWAP1 SWAP3 AND PUSH1 0x20 DUP3 ADD MSTORE PUSH1 0x40 DUP2 ADD SWAP2 SWAP1 SWAP2 MSTORE PUSH1 0x60 ADD SWAP1 JUMP JUMPDEST DUP1 DUP3 ADD DUP1 DUP3 GT ISZERO PUSH2 0x20D2 JUMPI PUSH2 0x20D2 PUSH2 0x344F JUMP JUMPDEST PUSH1 0x1 DUP2 DUP2 SHR SWAP1 DUP3 AND DUP1 PUSH2 0x34FC JUMPI PUSH1 0x7F DUP3 AND SWAP2 POP JUMPDEST PUSH1 0x20 DUP3 LT DUP2 SUB PUSH2 0x351C JUMPI PUSH4 0x4E487B71 PUSH1 0xE0 SHL PUSH1 0x0 MSTORE PUSH1 0x22 PUSH1 0x4 MSTORE PUSH1 0x24 PUSH1 0x0 REVERT JUMPDEST POP SWAP2 SWAP1 POP JUMP JUMPDEST PUSH1 0x1F DUP3 GT ISZERO PUSH2 0x356C JUMPI PUSH1 0x0 DUP2 DUP2 MSTORE PUSH1 0x20 DUP2 KECCAK256 PUSH1 0x1F DUP6 ADD PUSH1 0x5 SHR DUP2 ADD PUSH1 0x20 DUP7 LT ISZERO PUSH2 0x3549 JUMPI POP DUP1 JUMPDEST PUSH1 0x1F DUP6 ADD PUSH1 0x5 SHR DUP3 ADD SWAP2 POP JUMPDEST DUP2 DUP2 LT ISZERO PUSH2 0x3568 JUMPI DUP3 DUP2 SSTORE PUSH1 0x1 ADD PUSH2 0x3555 JUMP JUMPDEST POP POP POP JUMPDEST POP POP POP JUMP JUMPDEST DUP2 MLOAD PUSH8 0xFFFFFFFFFFFFFFFF DUP2 GT ISZERO PUSH2 0x358B JUMPI PUSH2 0x358B PUSH2 0x32B8 JUMP JUMPDEST PUSH2 0x359F DUP2 PUSH2 0x3599 DUP5 SLOAD PUSH2 0x34E8 JUMP JUMPDEST DUP5 PUSH2 0x3522 JUMP JUMPDEST PUSH1 0x20 DUP1 PUSH1 0x1F DUP4 GT PUSH1 0x1 DUP2 EQ PUSH2 0x35D4 JUMPI PUSH1 0x0 DUP5 ISZERO PUSH2 0x35BC JUMPI POP DUP6 DUP4 ADD MLOAD JUMPDEST PUSH1 0x0 NOT PUSH1 0x3 DUP7 SWAP1 SHL SHR NOT AND PUSH1 0x1 DUP6 SWAP1 SHL OR DUP6 SSTORE PUSH2 0x3568 JUMP JUMPDEST PUSH1 0x0 DUP6 DUP2 MSTORE PUSH1 0x20 DUP2 KECCAK256 PUSH1 0x1F NOT DUP7 AND SWAP2 JUMPDEST DUP3 DUP2 LT ISZERO PUSH2 0x3603 JUMPI DUP9 DUP7 ADD MLOAD DUP3 SSTORE SWAP5 DUP5 ADD SWAP5 PUSH1 0x1 SWAP1 SWAP2 ADD SWAP1 DUP5 ADD PUSH2 0x35E4 JUMP JUMPDEST POP DUP6 DUP3 LT ISZERO PUSH2 0x3621 JUMPI DUP8 DUP6 ADD MLOAD PUSH1 0x0 NOT PUSH1 0x3 DUP9 SWAP1 SHL PUSH1 0xF8 AND SHR NOT AND DUP2 SSTORE JUMPDEST POP POP POP POP POP PUSH1 0x1 SWAP1 DUP2 SHL ADD SWAP1 SSTORE POP JUMP JUMPDEST PUSH4 0x4E487B71 PUSH1 0xE0 SHL PUSH1 0x0 MSTORE PUSH1 0x32 PUSH1 0x4 MSTORE PUSH1 0x24 PUSH1 0x0 REVERT JUMPDEST PUSH1 0x0 PUSH1 0x1 DUP3 ADD PUSH2 0x3659 JUMPI PUSH2 0x3659 PUSH2 0x344F JUMP JUMPDEST POP PUSH1 0x1 ADD SWAP1 JUMP JUMPDEST DUP2 DUP2 SUB PUSH2 0x366B JUMPI POP POP JUMP JUMPDEST PUSH2 0x3675 DUP3 SLOAD PUSH2 0x34E8 JUMP JUMPDEST PUSH8 0xFFFFFFFFFFFFFFFF DUP2 GT ISZERO PUSH2 0x368D JUMPI PUSH2 0x368D PUSH2 0x32B8 JUMP JUMPDEST PUSH2 0x369B DUP2 PUSH2 0x3599 DUP5 SLOAD PUSH2 0x34E8 JUMP JUMPDEST PUSH1 0x0 PUSH1 0x1F DUP3 GT PUSH1 0x1 DUP2 EQ PUSH2 0x36CF JUMPI PUSH1 0x0 DUP4 ISZERO PUSH2 0x36B7 JUMPI POP DUP5 DUP3 ADD SLOAD JUMPDEST PUSH1 0x0 NOT PUSH1 0x3 DUP6 SWAP1 SHL SHR NOT AND PUSH1 0x1 DUP5 SWAP1 SHL OR DUP5 SSTORE PUSH2 0x3734 JUMP JUMPDEST PUSH1 0x0 DUP6 DUP2 MSTORE PUSH1 0x20 SWAP1 KECCAK256 PUSH1 0x1F NOT DUP5 AND SWAP1 PUSH1 0x0 DUP7 DUP2 MSTORE PUSH1 0x20 SWAP1 KECCAK256 DUP5 JUMPDEST DUP4 DUP2 LT ISZERO PUSH2 0x3709 JUMPI DUP3 DUP7 ADD SLOAD DUP3 SSTORE PUSH1 0x1 SWAP6 DUP7 ADD SWAP6 SWAP1 SWAP2 ADD SWAP1 PUSH1 0x20 ADD PUSH2 0x36E9 JUMP JUMPDEST POP DUP6 DUP4 LT ISZERO PUSH2 0x3727 JUMPI DUP2 DUP6 ADD SLOAD PUSH1 0x0 NOT PUSH1 0x3 DUP9 SWAP1 SHL PUSH1 0xF8 AND SHR NOT AND DUP2 SSTORE JUMPDEST POP POP POP PUSH1 0x1 DUP4 PUSH1 0x1 SHL ADD DUP5 SSTORE JUMPDEST POP POP POP POP POP JUMP JUMPDEST PUSH1 0x0 DUP2 SLOAD PUSH2 0x3748 DUP2 PUSH2 0x34E8 JUMP JUMPDEST DUP1 DUP6 MSTORE PUSH1 0x20 PUSH1 0x1 DUP4 DUP2 AND DUP1 ISZERO PUSH2 0x3765 JUMPI PUSH1 0x1 DUP2 EQ PUSH2 0x377F JUMPI PUSH2 0x37AD JUMP JUMPDEST PUSH1 0xFF NOT DUP6 AND DUP9 DUP5 ADD MSTORE DUP4 ISZERO ISZERO PUSH1 0x5 SHL DUP9 ADD DUP4 ADD SWAP6 POP PUSH2 0x37AD JUMP JUMPDEST DUP7 PUSH1 0x0 MSTORE DUP3 PUSH1 0x0 KECCAK256 PUSH1 0x0 JUMPDEST DUP6 DUP2 LT ISZERO PUSH2 0x37A5 JUMPI DUP2 SLOAD DUP11 DUP3 ADD DUP7 ADD MSTORE SWAP1 DUP4 ADD SWAP1 DUP5 ADD PUSH2 0x378A JUMP JUMPDEST DUP10 ADD DUP5 ADD SWAP7 POP POP JUMPDEST POP POP POP POP POP SWAP3 SWAP2 POP POP JUMP JUMPDEST PUSH1 0x0 DUP2 SLOAD DUP1 DUP5 MSTORE PUSH1 0x20 DUP1 DUP6 ADD DUP1 DUP2 SWAP7 POP DUP4 PUSH1 0x5 SHL DUP2 ADD SWAP2 POP DUP6 PUSH1 0x0 MSTORE DUP3 PUSH1 0x0 KECCAK256 PUSH1 0x0 JUMPDEST DUP6 DUP2 LT ISZERO PUSH2 0x3804 JUMPI DUP3 DUP5 SUB DUP10 MSTORE PUSH2 0x37F2 DUP5 DUP4 PUSH2 0x373B JUMP JUMPDEST SWAP9 DUP6 ADD SWAP9 SWAP4 POP PUSH1 0x1 SWAP2 DUP3 ADD SWAP2 ADD PUSH2 0x37DB JUMP JUMPDEST POP SWAP2 SWAP8 SWAP7 POP POP POP POP POP POP POP JUMP JUMPDEST PUSH1 0x40 DUP2 MSTORE PUSH1 0x0 PUSH2 0x3824 PUSH1 0x40 DUP4 ADD DUP6 PUSH2 0x37B8 JUMP JUMPDEST SWAP1 POP DUP3 PUSH1 0x20 DUP4 ADD MSTORE SWAP4 SWAP3 POP POP POP JUMP JUMPDEST PUSH1 0x0 DUP2 SLOAD DUP1 DUP5 MSTORE PUSH1 0x20 DUP1 DUP6 ADD SWAP5 POP DUP4 PUSH1 0x0 MSTORE DUP1 PUSH1 0x0 KECCAK256 PUSH1 0x0 JUMPDEST DUP4 DUP2 LT ISZERO PUSH2 0x30D0 JUMPI DUP2 SLOAD DUP8 MSTORE SWAP6 DUP3 ADD SWAP6 PUSH1 0x1 SWAP2 DUP3 ADD SWAP2 ADD PUSH2 0x384C JUMP JUMPDEST PUSH1 0x40 DUP2 MSTORE PUSH2 0x3884 PUSH1 0x40 DUP3 ADD PUSH2 0x387E DUP6 SLOAD PUSH1 0xFF AND SWAP1 JUMP JUMPDEST ISZERO ISZERO SWAP1 MSTORE JUMP JUMPDEST PUSH1 0x0 PUSH2 0x160 DUP1 PUSH1 0x60 DUP5 ADD MSTORE PUSH2 0x38A0 PUSH2 0x1A0 DUP5 ADD PUSH1 0x1 DUP8 ADD PUSH2 0x373B JUMP JUMPDEST PUSH1 0x3F NOT DUP1 DUP6 DUP4 SUB ADD PUSH1 0x80 DUP7 ADD MSTORE PUSH2 0x38BA DUP3 PUSH1 0x2 DUP10 ADD PUSH2 0x37B8 JUMP JUMPDEST SWAP2 POP DUP1 DUP6 DUP4 SUB ADD PUSH1 0xA0 DUP7 ADD MSTORE POP PUSH2 0x38D4 DUP2 PUSH1 0x3 DUP9 ADD PUSH2 0x3833 JUMP JUMPDEST SWAP1 POP PUSH2 0x38EA PUSH1 0x4 DUP8 ADD SLOAD PUSH1 0x1 PUSH1 0x1 PUSH1 0xA0 SHL SUB AND SWAP1 JUMP JUMPDEST PUSH1 0x1 PUSH1 0x1 PUSH1 0xA0 SHL SUB SWAP1 DUP2 AND PUSH1 0xC0 DUP7 ADD MSTORE PUSH1 0x5 DUP8 ADD SLOAD DUP2 AND PUSH1 0xE0 DUP7 ADD MSTORE PUSH1 0x6 DUP8 ADD SLOAD PUSH2 0x100 DUP7 ADD MSTORE PUSH1 0x7 DUP8 ADD SLOAD AND PUSH2 0x120 DUP6 ADD MSTORE PUSH1 0x8 DUP7 ADD SLOAD PUSH2 0x140 DUP6 ADD MSTORE PUSH1 0x9 DUP7 ADD SLOAD SWAP2 DUP5 ADD SWAP2 SWAP1 SWAP2 MSTORE PUSH1 0xA SWAP1 SWAP5 ADD SLOAD PUSH2 0x180 DUP4 ADD MSTORE POP PUSH1 0x20 ADD MSTORE SWAP1 JUMP JUMPDEST PUSH1 0x0 DUP3 MLOAD PUSH2 0x395A DUP2 DUP5 PUSH1 0x20 DUP8 ADD PUSH2 0x2FF8 JUMP JUMPDEST SWAP2 SWAP1 SWAP2 ADD SWAP3 SWAP2 POP POP JUMP JUMPDEST PUSH1 0x40 DUP2 MSTORE PUSH1 0x0 PUSH2 0x3824 PUSH1 0x40 DUP4 ADD DUP6 PUSH2 0x373B JUMP INVALID LOG2 PUSH5 0x6970667358 0x22 SLT KECCAK256 0xD0 0xD4 DUP11 0x2A 0xAC ADDMOD 0xF9 SWAP1 SWAP1 0xED KECCAK256 0xB3 SWAP11 DUP4 0xD3 SWAP8 SLOAD EXTCODEHASH PUSH11 0x1242350D6DC493733140D0 DELEGATECALL 0xE9 PUSH5 0x736F6C6343 STOP ADDMOD SGT STOP CALLER "
				},
				"gasEstimates": {
					"creation": {
						"codeDepositCost": "2953000",
						"executionCost": "infinite",
						"totalCost": "infinite"
					},
					"external": {
						"TTTToken()": "2426",
						"burnFee()": "2405",
						"compareStrings(string,string)": "infinite",
						"createGameRoom(uint256)": "infinite",
						"gameInformation(uint256)": "infinite",
						"getAllGameInformation()": "infinite",
						"getAllMoney()": "infinite",
						"getExcessBalance()": "infinite",
						"getFinalWinOption(uint256)": "infinite",
						"getGameInformation(uint256)": "infinite",
						"getoption(uint256)": "infinite",
						"joinGame(uint256,uint256)": "infinite",
						"minBetAmount()": "2383",
						"owner()": "2382",
						"restartGame(uint256)": "infinite",
						"totalAmount()": "2363",
						"treasury()": "2404",
						"treasuryFee()": "2317",
						"userInput(uint256,uint256)": "infinite",
						"validateRestartPlayer(uint256)": "9183"
					},
					"internal": {
						"changePlayer(uint256)": "infinite",
						"checkAddress(uint256)": "8736",
						"checkOptions(uint256)": "infinite",
						"checkWinner(uint256)": "infinite"
					}
				},
				"methodIdentifiers": {
					"TTTToken()": "7effb427",
					"burnFee()": "fce589d8",
					"compareStrings(string,string)": "bed34bba",
					"createGameRoom(uint256)": "06139e8d",
					"gameInformation(uint256)": "87052fab",
					"getAllGameInformation()": "491f0136",
					"getAllMoney()": "edb84ff7",
					"getExcessBalance()": "888b042f",
					"getFinalWinOption(uint256)": "17b44960",
					"getGameInformation(uint256)": "b2182be4",
					"getoption(uint256)": "dc572c6e",
					"joinGame(uint256,uint256)": "b60b9fcb",
					"minBetAmount()": "fa968eea",
					"owner()": "8da5cb5b",
					"restartGame(uint256)": "4a968391",
					"totalAmount()": "1a39d8ef",
					"treasury()": "61d027b3",
					"treasuryFee()": "cc32d176",
					"userInput(uint256,uint256)": "52bc3410",
					"validateRestartPlayer(uint256)": "34fd3518"
				}
			},
			"storageLayout": {
				"storage": [
					{
						"astId": 86,
						"contract": "Practical6-Apply-TTT-Token.sol:TickTackToe",
						"label": "TTTToken",
						"offset": 0,
						"slot": "0",
						"type": "t_contract(IERC20)77"
					},
					{
						"astId": 89,
						"contract": "Practical6-Apply-TTT-Token.sol:TickTackToe",
						"label": "minBetAmount",
						"offset": 0,
						"slot": "1",
						"type": "t_uint256"
					},
					{
						"astId": 92,
						"contract": "Practical6-Apply-TTT-Token.sol:TickTackToe",
						"label": "treasury",
						"offset": 0,
						"slot": "2",
						"type": "t_address"
					},
					{
						"astId": 95,
						"contract": "Practical6-Apply-TTT-Token.sol:TickTackToe",
						"label": "burnFee",
						"offset": 0,
						"slot": "3",
						"type": "t_uint256"
					},
					{
						"astId": 98,
						"contract": "Practical6-Apply-TTT-Token.sol:TickTackToe",
						"label": "treasuryFee",
						"offset": 0,
						"slot": "4",
						"type": "t_uint256"
					},
					{
						"astId": 100,
						"contract": "Practical6-Apply-TTT-Token.sol:TickTackToe",
						"label": "totalAmount",
						"offset": 0,
						"slot": "5",
						"type": "t_uint256"
					},
					{
						"astId": 102,
						"contract": "Practical6-Apply-TTT-Token.sol:TickTackToe",
						"label": "owner",
						"offset": 0,
						"slot": "6",
						"type": "t_address"
					},
					{
						"astId": 104,
						"contract": "Practical6-Apply-TTT-Token.sol:TickTackToe",
						"label": "locked",
						"offset": 20,
						"slot": "6",
						"type": "t_bool"
					},
					{
						"astId": 133,
						"contract": "Practical6-Apply-TTT-Token.sol:TickTackToe",
						"label": "gameInformation",
						"offset": 0,
						"slot": "7",
						"type": "t_array(t_struct(GameInfo)129_storage)dyn_storage"
					},
					{
						"astId": 170,
						"contract": "Practical6-Apply-TTT-Token.sol:TickTackToe",
						"label": "winConditionSet",
						"offset": 0,
						"slot": "8",
						"type": "t_array(t_array(t_uint256)dyn_storage)dyn_storage"
					}
				],
				"types": {
					"t_address": {
						"encoding": "inplace",
						"label": "address",
						"numberOfBytes": "20"
					},
					"t_array(t_array(t_uint256)dyn_storage)dyn_storage": {
						"base": "t_array(t_uint256)dyn_storage",
						"encoding": "dynamic_array",
						"label": "uint256[][]",
						"numberOfBytes": "32"
					},
					"t_array(t_string_storage)dyn_storage": {
						"base": "t_string_storage",
						"encoding": "dynamic_array",
						"label": "string[]",
						"numberOfBytes": "32"
					},
					"t_array(t_struct(GameInfo)129_storage)dyn_storage": {
						"base": "t_struct(GameInfo)129_storage",
						"encoding": "dynamic_array",
						"label": "struct TickTackToe.GameInfo[]",
						"numberOfBytes": "32"
					},
					"t_array(t_uint256)dyn_storage": {
						"base": "t_uint256",
						"encoding": "dynamic_array",
						"label": "uint256[]",
						"numberOfBytes": "32"
					},
					"t_bool": {
						"encoding": "inplace",
						"label": "bool",
						"numberOfBytes": "1"
					},
					"t_contract(IERC20)77": {
						"encoding": "inplace",
						"label": "contract IERC20",
						"numberOfBytes": "20"
					},
					"t_string_storage": {
						"encoding": "bytes",
						"label": "string",
						"numberOfBytes": "32"
					},
					"t_struct(GameInfo)129_storage": {
						"encoding": "inplace",
						"label": "struct TickTackToe.GameInfo",
						"members": [
							{
								"astId": 106,
								"contract": "Practical6-Apply-TTT-Token.sol:TickTackToe",
								"label": "_activate",
								"offset": 0,
								"slot": "0",
								"type": "t_bool"
							},
							{
								"astId": 108,
								"contract": "Practical6-Apply-TTT-Token.sol:TickTackToe",
								"label": "_currentPlayer",
								"offset": 0,
								"slot": "1",
								"type": "t_string_storage"
							},
							{
								"astId": 111,
								"contract": "Practical6-Apply-TTT-Token.sol:TickTackToe",
								"label": "_options",
								"offset": 0,
								"slot": "2",
								"type": "t_array(t_string_storage)dyn_storage"
							},
							{
								"astId": 114,
								"contract": "Practical6-Apply-TTT-Token.sol:TickTackToe",
								"label": "_finalWinOption",
								"offset": 0,
								"slot": "3",
								"type": "t_array(t_uint256)dyn_storage"
							},
							{
								"astId": 116,
								"contract": "Practical6-Apply-TTT-Token.sol:TickTackToe",
								"label": "_player1address",
								"offset": 0,
								"slot": "4",
								"type": "t_address"
							},
							{
								"astId": 118,
								"contract": "Practical6-Apply-TTT-Token.sol:TickTackToe",
								"label": "_player2address",
								"offset": 0,
								"slot": "5",
								"type": "t_address"
							},
							{
								"astId": 120,
								"contract": "Practical6-Apply-TTT-Token.sol:TickTackToe",
								"label": "_playerCount",
								"offset": 0,
								"slot": "6",
								"type": "t_uint256"
							},
							{
								"astId": 122,
								"contract": "Practical6-Apply-TTT-Token.sol:TickTackToe",
								"label": "_winer",
								"offset": 0,
								"slot": "7",
								"type": "t_address"
							},
							{
								"astId": 124,
								"contract": "Practical6-Apply-TTT-Token.sol:TickTackToe",
								"label": "_player1Bet",
								"offset": 0,
								"slot": "8",
								"type": "t_uint256"
							},
							{
								"astId": 126,
								"contract": "Practical6-Apply-TTT-Token.sol:TickTackToe",
								"label": "_player2Bet",
								"offset": 0,
								"slot": "9",
								"type": "t_uint256"
							},
							{
								"astId": 128,
								"contract": "Practical6-Apply-TTT-Token.sol:TickTackToe",
								"label": "_rewardAmount",
								"offset": 0,
								"slot": "10",
								"type": "t_uint256"
							}
						],
						"numberOfBytes": "352"
					},
					"t_uint256": {
						"encoding": "inplace",
						"label": "uint256",
						"numberOfBytes": "32"
					}
				}
			},
			"userdoc": {
				"kind": "user",
				"methods": {},
				"version": 1
			}
		}
	}
}