{
	"Practical3-Use-UI_Plya-Jason.sol": {
		"RockPaperScissors": {
			"abi": [
				{
					"anonymous": false,
					"inputs": [
						{
							"indexed": false,
							"internalType": "address",
							"name": "user1",
							"type": "address"
						},
						{
							"indexed": false,
							"internalType": "address",
							"name": "user2",
							"type": "address"
						}
					],
					"name": "inputOption",
					"type": "event"
				},
				{
					"anonymous": false,
					"inputs": [
						{
							"indexed": false,
							"internalType": "string",
							"name": "",
							"type": "string"
						}
					],
					"name": "showError",
					"type": "event"
				},
				{
					"anonymous": false,
					"inputs": [
						{
							"indexed": false,
							"internalType": "string",
							"name": "logResult",
							"type": "string"
						}
					],
					"name": "showResult",
					"type": "event"
				},
				{
					"anonymous": false,
					"inputs": [
						{
							"indexed": true,
							"internalType": "address",
							"name": "logUserAddress",
							"type": "address"
						}
					],
					"name": "showUserAddress",
					"type": "event"
				},
				{
					"inputs": [],
					"name": "getGameHistory",
					"outputs": [
						{
							"components": [
								{
									"components": [
										{
											"internalType": "address",
											"name": "userAddress",
											"type": "address"
										},
										{
											"internalType": "uint256",
											"name": "userOption",
											"type": "uint256"
										}
									],
									"internalType": "struct RockPaperScissors.UserInfo",
									"name": "user1",
									"type": "tuple"
								},
								{
									"components": [
										{
											"internalType": "address",
											"name": "userAddress",
											"type": "address"
										},
										{
											"internalType": "uint256",
											"name": "userOption",
											"type": "uint256"
										}
									],
									"internalType": "struct RockPaperScissors.UserInfo",
									"name": "user2",
									"type": "tuple"
								},
								{
									"internalType": "string",
									"name": "finalResult",
									"type": "string"
								}
							],
							"internalType": "struct RockPaperScissors.GameInfo[]",
							"name": "",
							"type": "tuple[]"
						}
					],
					"stateMutability": "view",
					"type": "function"
				},
				{
					"inputs": [
						{
							"internalType": "uint256",
							"name": "index",
							"type": "uint256"
						}
					],
					"name": "getSpecificGameHistory",
					"outputs": [
						{
							"components": [
								{
									"components": [
										{
											"internalType": "address",
											"name": "userAddress",
											"type": "address"
										},
										{
											"internalType": "uint256",
											"name": "userOption",
											"type": "uint256"
										}
									],
									"internalType": "struct RockPaperScissors.UserInfo",
									"name": "user1",
									"type": "tuple"
								},
								{
									"components": [
										{
											"internalType": "address",
											"name": "userAddress",
											"type": "address"
										},
										{
											"internalType": "uint256",
											"name": "userOption",
											"type": "uint256"
										}
									],
									"internalType": "struct RockPaperScissors.UserInfo",
									"name": "user2",
									"type": "tuple"
								},
								{
									"internalType": "string",
									"name": "finalResult",
									"type": "string"
								}
							],
							"internalType": "struct RockPaperScissors.GameInfo",
							"name": "",
							"type": "tuple"
						}
					],
					"stateMutability": "view",
					"type": "function"
				},
				{
					"inputs": [
						{
							"internalType": "uint256",
							"name": "index",
							"type": "uint256"
						}
					],
					"name": "getUser1",
					"outputs": [
						{
							"components": [
								{
									"internalType": "address",
									"name": "userAddress",
									"type": "address"
								},
								{
									"internalType": "uint256",
									"name": "userOption",
									"type": "uint256"
								}
							],
							"internalType": "struct RockPaperScissors.UserInfo",
							"name": "",
							"type": "tuple"
						}
					],
					"stateMutability": "view",
					"type": "function"
				},
				{
					"inputs": [],
					"name": "play",
					"outputs": [],
					"stateMutability": "nonpayable",
					"type": "function"
				},
				{
					"inputs": [],
					"name": "user1address",
					"outputs": [
						{
							"internalType": "address",
							"name": "",
							"type": "address"
						}
					],
					"stateMutability": "view",
					"type": "function"
				},
				{
					"inputs": [],
					"name": "user2address",
					"outputs": [
						{
							"internalType": "address",
							"name": "",
							"type": "address"
						}
					],
					"stateMutability": "view",
					"type": "function"
				},
				{
					"inputs": [
						{
							"internalType": "uint256",
							"name": "option",
							"type": "uint256"
						}
					],
					"name": "userEnterOption",
					"outputs": [],
					"stateMutability": "nonpayable",
					"type": "function"
				}
			],
			"devdoc": {
				"kind": "dev",
				"methods": {},
				"version": 1
			},
			"evm": {
				"assembly": "    /* \"Practical3-Use-UI_Plya-Jason.sol\":60:5304  contract RockPaperScissors {... */\n  mstore(0x40, 0x80)\n    /* \"Practical3-Use-UI_Plya-Jason.sol\":531:532  0 */\n  0x00\n    /* \"Practical3-Use-UI_Plya-Jason.sol\":506:532  uint private userCount = 0 */\n  dup1\n  sstore\n    /* \"Practical3-Use-UI_Plya-Jason.sol\":60:5304  contract RockPaperScissors {... */\n  callvalue\n  dup1\n  iszero\n  tag_1\n  jumpi\n  0x00\n  dup1\n  revert\ntag_1:\n  pop\n  dataSize(sub_0)\n  dup1\n  dataOffset(sub_0)\n  0x00\n  codecopy\n  0x00\n  return\nstop\n\nsub_0: assembly {\n        /* \"Practical3-Use-UI_Plya-Jason.sol\":60:5304  contract RockPaperScissors {... */\n      mstore(0x40, 0x80)\n      callvalue\n      dup1\n      iszero\n      tag_1\n      jumpi\n      0x00\n      dup1\n      revert\n    tag_1:\n      pop\n      jumpi(tag_2, lt(calldatasize, 0x04))\n      shr(0xe0, calldataload(0x00))\n      dup1\n      0x6ef595d8\n      gt\n      tag_10\n      jumpi\n      dup1\n      0x6ef595d8\n      eq\n      tag_6\n      jumpi\n      dup1\n      0x93e84cd9\n      eq\n      tag_7\n      jumpi\n      dup1\n      0xe417f4a3\n      eq\n      tag_8\n      jumpi\n      dup1\n      0xf7c4efbb\n      eq\n      tag_9\n      jumpi\n      0x00\n      dup1\n      revert\n    tag_10:\n      dup1\n      0x2cde7869\n      eq\n      tag_3\n      jumpi\n      dup1\n      0x3d5e9d2d\n      eq\n      tag_4\n      jumpi\n      dup1\n      0x512ec557\n      eq\n      tag_5\n      jumpi\n    tag_2:\n      0x00\n      dup1\n      revert\n        /* \"Practical3-Use-UI_Plya-Jason.sol\":3511:4089  function userEnterOption (uint option) external {... */\n    tag_3:\n      tag_11\n      tag_12\n      calldatasize\n      0x04\n      tag_13\n      jump\t// in\n    tag_12:\n      tag_14\n      jump\t// in\n    tag_11:\n      stop\n        /* \"Practical3-Use-UI_Plya-Jason.sol\":746:773  address public user2address */\n    tag_4:\n      sload(0x03)\n      tag_15\n      swap1\n      sub(shl(0xa0, 0x01), 0x01)\n      and\n      dup2\n      jump\n    tag_15:\n      mload(0x40)\n      sub(shl(0xa0, 0x01), 0x01)\n        /* \"#utility.yul\":363:395   */\n      swap1\n      swap2\n      and\n        /* \"#utility.yul\":345:396   */\n      dup2\n      mstore\n        /* \"#utility.yul\":333:335   */\n      0x20\n        /* \"#utility.yul\":318:336   */\n      add\n        /* \"Practical3-Use-UI_Plya-Jason.sol\":746:773  address public user2address */\n    tag_17:\n      mload(0x40)\n      dup1\n      swap2\n      sub\n      swap1\n      return\n        /* \"Practical3-Use-UI_Plya-Jason.sol\":1317:1474  function getGameHistory () external view returns(GameInfo[] memory){... */\n    tag_5:\n      tag_19\n      tag_20\n      jump\t// in\n    tag_19:\n      mload(0x40)\n      tag_17\n      swap2\n      swap1\n      tag_22\n      jump\t// in\n        /* \"Practical3-Use-UI_Plya-Jason.sol\":712:739  address public user1address */\n    tag_6:\n      sload(0x02)\n      tag_15\n      swap1\n      0x0100\n      swap1\n      div\n      sub(shl(0xa0, 0x01), 0x01)\n      and\n      dup2\n      jump\n        /* \"Practical3-Use-UI_Plya-Jason.sol\":2305:3503  function play () external noReentrancy{... */\n    tag_7:\n      tag_11\n      tag_27\n      jump\t// in\n        /* \"Practical3-Use-UI_Plya-Jason.sol\":1017:1261  function getUser1 (uint index) external view returns(UserInfo memory){... */\n    tag_8:\n      tag_28\n      tag_29\n      calldatasize\n      0x04\n      tag_13\n      jump\t// in\n    tag_29:\n      tag_30\n      jump\t// in\n    tag_28:\n      mload(0x40)\n      tag_17\n      swap2\n      swap1\n      tag_32\n      jump\t// in\n        /* \"Practical3-Use-UI_Plya-Jason.sol\":1482:1951  function getSpecificGameHistory (uint index) external view returns(GameInfo memory){... */\n    tag_9:\n      tag_33\n      tag_34\n      calldatasize\n      0x04\n      tag_13\n      jump\t// in\n    tag_34:\n      tag_35\n      jump\t// in\n    tag_33:\n      mload(0x40)\n      tag_17\n      swap2\n      swap1\n      tag_37\n      jump\t// in\n        /* \"Practical3-Use-UI_Plya-Jason.sol\":3511:4089  function userEnterOption (uint option) external {... */\n    tag_14:\n        /* \"Practical3-Use-UI_Plya-Jason.sol\":3587:3598  gameHistory */\n      0x01\n        /* \"Practical3-Use-UI_Plya-Jason.sol\":3599:3617  gameHistory.length */\n      dup1\n      sload\n        /* \"Practical3-Use-UI_Plya-Jason.sol\":3599:3621  gameHistory.length - 1 */\n      tag_39\n      swap1\n        /* \"Practical3-Use-UI_Plya-Jason.sol\":3587:3598  gameHistory */\n      dup3\n      swap1\n        /* \"Practical3-Use-UI_Plya-Jason.sol\":3599:3621  gameHistory.length - 1 */\n      tag_40\n      jump\t// in\n    tag_39:\n        /* \"Practical3-Use-UI_Plya-Jason.sol\":3587:3622  gameHistory[gameHistory.length - 1] */\n      dup2\n      sload\n      dup2\n      lt\n      tag_42\n      jumpi\n      tag_42\n      tag_43\n      jump\t// in\n    tag_42:\n      0x00\n      swap2\n      dup3\n      mstore\n      0x20\n      swap1\n      swap2\n      keccak256\n      0x05\n      swap1\n      swap2\n      mul\n      add\n        /* \"Practical3-Use-UI_Plya-Jason.sol\":3587:3640  gameHistory[gameHistory.length - 1].user1.userAddress */\n      sload\n      sub(shl(0xa0, 0x01), 0x01)\n      and\n        /* \"Practical3-Use-UI_Plya-Jason.sol\":3573:3583  msg.sender */\n      caller\n        /* \"Practical3-Use-UI_Plya-Jason.sol\":3573:3640  msg.sender == gameHistory[gameHistory.length - 1].user1.userAddress */\n      sub\n        /* \"Practical3-Use-UI_Plya-Jason.sol\":3570:3832  if(msg.sender == gameHistory[gameHistory.length - 1].user1.userAddress){... */\n      tag_45\n      jumpi\n        /* \"Practical3-Use-UI_Plya-Jason.sol\":3656:3667  gameHistory */\n      0x01\n        /* \"Practical3-Use-UI_Plya-Jason.sol\":3668:3686  gameHistory.length */\n      dup1\n      sload\n        /* \"Practical3-Use-UI_Plya-Jason.sol\":3711:3717  option */\n      dup3\n      swap2\n        /* \"Practical3-Use-UI_Plya-Jason.sol\":3656:3667  gameHistory */\n      swap1\n        /* \"Practical3-Use-UI_Plya-Jason.sol\":3668:3690  gameHistory.length - 1 */\n      tag_46\n      swap1\n        /* \"Practical3-Use-UI_Plya-Jason.sol\":3656:3667  gameHistory */\n      dup3\n      swap1\n        /* \"Practical3-Use-UI_Plya-Jason.sol\":3668:3690  gameHistory.length - 1 */\n      tag_40\n      jump\t// in\n    tag_46:\n        /* \"Practical3-Use-UI_Plya-Jason.sol\":3656:3691  gameHistory[gameHistory.length - 1] */\n      dup2\n      sload\n      dup2\n      lt\n      tag_48\n      jumpi\n      tag_48\n      tag_43\n      jump\t// in\n    tag_48:\n      0x00\n      swap2\n      dup3\n      mstore\n      0x20\n      swap1\n      swap2\n      keccak256\n        /* \"Practical3-Use-UI_Plya-Jason.sol\":3656:3708  gameHistory[gameHistory.length - 1].user1.userOption */\n      0x01\n        /* \"Practical3-Use-UI_Plya-Jason.sol\":3656:3691  gameHistory[gameHistory.length - 1] */\n      0x05\n      swap1\n      swap3\n      mul\n      add\n        /* \"Practical3-Use-UI_Plya-Jason.sol\":3656:3708  gameHistory[gameHistory.length - 1].user1.userOption */\n      add\n        /* \"Practical3-Use-UI_Plya-Jason.sol\":3656:3717  gameHistory[gameHistory.length - 1].user1.userOption = option */\n      sstore\n        /* \"Practical3-Use-UI_Plya-Jason.sol\":3570:3832  if(msg.sender == gameHistory[gameHistory.length - 1].user1.userAddress){... */\n      jump(tag_50)\n    tag_45:\n        /* \"Practical3-Use-UI_Plya-Jason.sol\":3759:3770  gameHistory */\n      0x01\n        /* \"Practical3-Use-UI_Plya-Jason.sol\":3771:3789  gameHistory.length */\n      dup1\n      sload\n        /* \"Practical3-Use-UI_Plya-Jason.sol\":3814:3820  option */\n      dup3\n      swap2\n        /* \"Practical3-Use-UI_Plya-Jason.sol\":3759:3770  gameHistory */\n      swap1\n        /* \"Practical3-Use-UI_Plya-Jason.sol\":3771:3793  gameHistory.length - 1 */\n      tag_51\n      swap1\n        /* \"Practical3-Use-UI_Plya-Jason.sol\":3759:3770  gameHistory */\n      dup3\n      swap1\n        /* \"Practical3-Use-UI_Plya-Jason.sol\":3771:3793  gameHistory.length - 1 */\n      tag_40\n      jump\t// in\n    tag_51:\n        /* \"Practical3-Use-UI_Plya-Jason.sol\":3759:3794  gameHistory[gameHistory.length - 1] */\n      dup2\n      sload\n      dup2\n      lt\n      tag_53\n      jumpi\n      tag_53\n      tag_43\n      jump\t// in\n    tag_53:\n      0x00\n      swap2\n      dup3\n      mstore\n      0x20\n      swap1\n      swap2\n      keccak256\n        /* \"Practical3-Use-UI_Plya-Jason.sol\":3759:3811  gameHistory[gameHistory.length - 1].user2.userOption */\n      0x03\n        /* \"Practical3-Use-UI_Plya-Jason.sol\":3759:3794  gameHistory[gameHistory.length - 1] */\n      0x05\n      swap1\n      swap3\n      mul\n      add\n        /* \"Practical3-Use-UI_Plya-Jason.sol\":3759:3811  gameHistory[gameHistory.length - 1].user2.userOption */\n      add\n        /* \"Practical3-Use-UI_Plya-Jason.sol\":3759:3820  gameHistory[gameHistory.length - 1].user2.userOption = option */\n      sstore\n        /* \"Practical3-Use-UI_Plya-Jason.sol\":3570:3832  if(msg.sender == gameHistory[gameHistory.length - 1].user1.userAddress){... */\n    tag_50:\n        /* \"Practical3-Use-UI_Plya-Jason.sol\":3899:3910  gameHistory */\n      0x01\n        /* \"Practical3-Use-UI_Plya-Jason.sol\":3911:3929  gameHistory.length */\n      dup1\n      sload\n        /* \"Practical3-Use-UI_Plya-Jason.sol\":3911:3933  gameHistory.length - 1 */\n      tag_55\n      swap1\n        /* \"Practical3-Use-UI_Plya-Jason.sol\":3899:3910  gameHistory */\n      dup3\n      swap1\n        /* \"Practical3-Use-UI_Plya-Jason.sol\":3911:3933  gameHistory.length - 1 */\n      tag_40\n      jump\t// in\n    tag_55:\n        /* \"Practical3-Use-UI_Plya-Jason.sol\":3899:3934  gameHistory[gameHistory.length - 1] */\n      dup2\n      sload\n      dup2\n      lt\n      tag_57\n      jumpi\n      tag_57\n      tag_43\n      jump\t// in\n    tag_57:\n      swap1\n      0x00\n      mstore\n      keccak256(0x00, 0x20)\n      swap1\n      0x05\n      mul\n      add\n        /* \"Practical3-Use-UI_Plya-Jason.sol\":3899:3940  gameHistory[gameHistory.length - 1].user1 */\n      0x00\n      add\n        /* \"Practical3-Use-UI_Plya-Jason.sol\":3899:3951  gameHistory[gameHistory.length - 1].user1.userOption */\n      0x01\n      add\n      sload\n        /* \"Practical3-Use-UI_Plya-Jason.sol\":3956:3957  0 */\n      0x00\n        /* \"Practical3-Use-UI_Plya-Jason.sol\":3898:3957  (gameHistory[gameHistory.length - 1].user1.userOption) != 0 */\n      eq\n      iszero\n        /* \"Practical3-Use-UI_Plya-Jason.sol\":3898:4020  (gameHistory[gameHistory.length - 1].user1.userOption) != 0 && (gameHistory[gameHistory.length - 1].user2.userOption) != 0 */\n      dup1\n      iszero\n      tag_59\n      jumpi\n      pop\n        /* \"Practical3-Use-UI_Plya-Jason.sol\":3962:3973  gameHistory */\n      0x01\n        /* \"Practical3-Use-UI_Plya-Jason.sol\":3974:3992  gameHistory.length */\n      dup1\n      sload\n        /* \"Practical3-Use-UI_Plya-Jason.sol\":3974:3996  gameHistory.length - 1 */\n      tag_60\n      swap1\n        /* \"Practical3-Use-UI_Plya-Jason.sol\":3962:3973  gameHistory */\n      dup3\n      swap1\n        /* \"Practical3-Use-UI_Plya-Jason.sol\":3974:3996  gameHistory.length - 1 */\n      tag_40\n      jump\t// in\n    tag_60:\n        /* \"Practical3-Use-UI_Plya-Jason.sol\":3962:3997  gameHistory[gameHistory.length - 1] */\n      dup2\n      sload\n      dup2\n      lt\n      tag_62\n      jumpi\n      tag_62\n      tag_43\n      jump\t// in\n    tag_62:\n      swap1\n      0x00\n      mstore\n      keccak256(0x00, 0x20)\n      swap1\n      0x05\n      mul\n      add\n        /* \"Practical3-Use-UI_Plya-Jason.sol\":3962:4003  gameHistory[gameHistory.length - 1].user2 */\n      0x02\n      add\n        /* \"Practical3-Use-UI_Plya-Jason.sol\":3962:4014  gameHistory[gameHistory.length - 1].user2.userOption */\n      0x01\n      add\n      sload\n        /* \"Practical3-Use-UI_Plya-Jason.sol\":4019:4020  0 */\n      0x00\n        /* \"Practical3-Use-UI_Plya-Jason.sol\":3961:4020  (gameHistory[gameHistory.length - 1].user2.userOption) != 0 */\n      eq\n      iszero\n        /* \"Practical3-Use-UI_Plya-Jason.sol\":3898:4020  (gameHistory[gameHistory.length - 1].user1.userOption) != 0 && (gameHistory[gameHistory.length - 1].user2.userOption) != 0 */\n    tag_59:\n        /* \"Practical3-Use-UI_Plya-Jason.sol\":3895:4082  if((gameHistory[gameHistory.length - 1].user1.userOption) != 0 && (gameHistory[gameHistory.length - 1].user2.userOption) != 0){... */\n      iszero\n      tag_64\n      jumpi\n        /* \"Practical3-Use-UI_Plya-Jason.sol\":4036:4042  game() */\n      tag_65\n        /* \"Practical3-Use-UI_Plya-Jason.sol\":4036:4040  game */\n      tag_66\n        /* \"Practical3-Use-UI_Plya-Jason.sol\":4036:4042  game() */\n      jump\t// in\n    tag_65:\n        /* \"Practical3-Use-UI_Plya-Jason.sol\":4069:4070  0 */\n      0x00\n        /* \"Practical3-Use-UI_Plya-Jason.sol\":4057:4070  userCount = 0 */\n      dup1\n      sstore\n        /* \"Practical3-Use-UI_Plya-Jason.sol\":3895:4082  if((gameHistory[gameHistory.length - 1].user1.userOption) != 0 && (gameHistory[gameHistory.length - 1].user2.userOption) != 0){... */\n    tag_64:\n        /* \"Practical3-Use-UI_Plya-Jason.sol\":3511:4089  function userEnterOption (uint option) external {... */\n      pop\n      jump\t// out\n        /* \"Practical3-Use-UI_Plya-Jason.sol\":1317:1474  function getGameHistory () external view returns(GameInfo[] memory){... */\n    tag_20:\n        /* \"Practical3-Use-UI_Plya-Jason.sol\":1366:1383  GameInfo[] memory */\n      0x60\n        /* \"Practical3-Use-UI_Plya-Jason.sol\":1454:1465  gameHistory */\n      0x01\n        /* \"Practical3-Use-UI_Plya-Jason.sol\":1446:1466  return (gameHistory) */\n      dup1\n      sload\n      dup1\n      0x20\n      mul\n      0x20\n      add\n      mload(0x40)\n      swap1\n      dup2\n      add\n      0x40\n      mstore\n      dup1\n      swap3\n      swap2\n      swap1\n      dup2\n      dup2\n      mstore\n      0x20\n      add\n      0x00\n      swap1\n    tag_68:\n      dup3\n      dup3\n      lt\n      iszero\n      tag_69\n      jumpi\n      0x00\n      dup5\n      dup2\n      mstore\n      0x20\n      swap1\n      dup2\n      swap1\n      keccak256\n      0x40\n      dup1\n      mload\n      0xa0\n      dup2\n      add\n      dup3\n      mstore\n      0x05\n      dup7\n      mul\n      swap1\n      swap3\n      add\n      dup1\n      sload\n      sub(shl(0xa0, 0x01), 0x01)\n      swap1\n      dup2\n      and\n      0x60\n      dup6\n      add\n      swap1\n      dup2\n      mstore\n      0x01\n      dup4\n      add\n      sload\n      0x80\n      dup7\n      add\n      mstore\n      dup5\n      mstore\n      dup3\n      mload\n      dup1\n      dup5\n      add\n      dup5\n      mstore\n      0x02\n      dup4\n      add\n      sload\n      swap1\n      swap2\n      and\n      dup2\n      mstore\n      0x03\n      dup3\n      add\n      sload\n      dup2\n      dup7\n      add\n      mstore\n      swap4\n      dup4\n      add\n      swap4\n      swap1\n      swap4\n      mstore\n      0x04\n      dup4\n      add\n      dup1\n      sload\n      swap3\n      swap4\n      swap3\n      swap2\n      dup5\n      add\n      swap2\n      tag_71\n      swap1\n      tag_72\n      jump\t// in\n    tag_71:\n      dup1\n      0x1f\n      add\n      0x20\n      dup1\n      swap2\n      div\n      mul\n      0x20\n      add\n      mload(0x40)\n      swap1\n      dup2\n      add\n      0x40\n      mstore\n      dup1\n      swap3\n      swap2\n      swap1\n      dup2\n      dup2\n      mstore\n      0x20\n      add\n      dup3\n      dup1\n      sload\n      tag_73\n      swap1\n      tag_72\n      jump\t// in\n    tag_73:\n      dup1\n      iszero\n      tag_74\n      jumpi\n      dup1\n      0x1f\n      lt\n      tag_75\n      jumpi\n      0x0100\n      dup1\n      dup4\n      sload\n      div\n      mul\n      dup4\n      mstore\n      swap2\n      0x20\n      add\n      swap2\n      jump(tag_74)\n    tag_75:\n      dup3\n      add\n      swap2\n      swap1\n      0x00\n      mstore\n      keccak256(0x00, 0x20)\n      swap1\n    tag_76:\n      dup2\n      sload\n      dup2\n      mstore\n      swap1\n      0x01\n      add\n      swap1\n      0x20\n      add\n      dup1\n      dup4\n      gt\n      tag_76\n      jumpi\n      dup3\n      swap1\n      sub\n      0x1f\n      and\n      dup3\n      add\n      swap2\n    tag_74:\n      pop\n      pop\n      pop\n      pop\n      pop\n      dup2\n      mstore\n      pop\n      pop\n      dup2\n      mstore\n      0x20\n      add\n      swap1\n      0x01\n      add\n      swap1\n      jump(tag_68)\n    tag_69:\n      pop\n      pop\n      pop\n      pop\n      swap1\n      pop\n        /* \"Practical3-Use-UI_Plya-Jason.sol\":1317:1474  function getGameHistory () external view returns(GameInfo[] memory){... */\n      swap1\n      jump\t// out\n        /* \"Practical3-Use-UI_Plya-Jason.sol\":2305:3503  function play () external noReentrancy{... */\n    tag_27:\n        /* \"Practical3-Use-UI_Plya-Jason.sol\":2092:2098  locked */\n      and(0xff, sload(0x02))\n        /* \"Practical3-Use-UI_Plya-Jason.sol\":2091:2098  !locked */\n      iszero\n        /* \"Practical3-Use-UI_Plya-Jason.sol\":2083:2124  require(!locked, \"Error: Reentrant call\") */\n      tag_78\n      jumpi\n      mload(0x40)\n      shl(0xe5, 0x461bcd)\n      dup2\n      mstore\n        /* \"#utility.yul\":3645:3647   */\n      0x20\n        /* \"Practical3-Use-UI_Plya-Jason.sol\":2083:2124  require(!locked, \"Error: Reentrant call\") */\n      0x04\n      dup3\n      add\n        /* \"#utility.yul\":3627:3648   */\n      mstore\n        /* \"#utility.yul\":3684:3686   */\n      0x15\n        /* \"#utility.yul\":3664:3682   */\n      0x24\n      dup3\n      add\n        /* \"#utility.yul\":3657:3687   */\n      mstore\n      shl(0x5a, 0x115c9c9bdc8e881499595b9d1c985b9d0818d85b1b)\n        /* \"#utility.yul\":3703:3721   */\n      0x44\n      dup3\n      add\n        /* \"#utility.yul\":3696:3747   */\n      mstore\n        /* \"#utility.yul\":3764:3782   */\n      0x64\n      add\n        /* \"Practical3-Use-UI_Plya-Jason.sol\":2083:2124  require(!locked, \"Error: Reentrant call\") */\n    tag_79:\n      mload(0x40)\n      dup1\n      swap2\n      sub\n      swap1\n      revert\n    tag_78:\n        /* \"Practical3-Use-UI_Plya-Jason.sol\":2135:2141  locked */\n      0x02\n        /* \"Practical3-Use-UI_Plya-Jason.sol\":2135:2148  locked = true */\n      dup1\n      sload\n      not(0xff)\n      and\n        /* \"Practical3-Use-UI_Plya-Jason.sol\":2144:2148  true */\n      0x01\n        /* \"Practical3-Use-UI_Plya-Jason.sol\":2135:2148  locked = true */\n      or\n      swap1\n      sstore\n        /* \"Practical3-Use-UI_Plya-Jason.sol\":2135:2141  locked */\n      0x00\n        /* \"Practical3-Use-UI_Plya-Jason.sol\":2359:2368  userCount */\n      dup1\n      sload\n        /* \"Practical3-Use-UI_Plya-Jason.sol\":2359:2373  userCount == 0 */\n      swap1\n      sub\n        /* \"Practical3-Use-UI_Plya-Jason.sol\":2356:3496  if(userCount == 0){... */\n      tag_82\n      jumpi\n        /* \"Practical3-Use-UI_Plya-Jason.sol\":2471:2495  GameInfo memory gameInfo */\n      tag_83\n      tag_84\n      jump\t// in\n    tag_83:\n        /* \"Practical3-Use-UI_Plya-Jason.sol\":2510:2521  gameHistory */\n      0x01\n        /* \"Practical3-Use-UI_Plya-Jason.sol\":2510:2536  gameHistory.push(gameInfo) */\n      dup1\n      sload\n      dup1\n      dup3\n      add\n      dup3\n      sstore\n      0x00\n      swap2\n      swap1\n      swap2\n      mstore\n      dup2\n      mload\n      dup1\n      mload\n      0xb10e2d527612073b26eecdfd717e6a320cf44b4afac2b0732d9fcbe2b7fa0cf6\n      0x05\n      swap1\n      swap4\n      mul\n      swap3\n      dup4\n      add\n      dup1\n      sload\n      not(sub(shl(0xa0, 0x01), 0x01))\n      swap1\n      dup2\n      and\n      sub(shl(0xa0, 0x01), 0x01)\n      swap4\n      dup5\n      and\n      or\n      dup3\n      sstore\n      0x20\n      swap4\n      dup5\n      add\n      mload\n      0xb10e2d527612073b26eecdfd717e6a320cf44b4afac2b0732d9fcbe2b7fa0cf7\n      dup7\n      add\n      sstore\n      dup4\n      dup7\n      add\n      mload\n      dup1\n      mload\n      0xb10e2d527612073b26eecdfd717e6a320cf44b4afac2b0732d9fcbe2b7fa0cf8\n      dup8\n      add\n      dup1\n      sload\n      swap1\n      swap4\n      and\n      swap5\n      and\n      swap4\n      swap1\n      swap4\n      or\n      swap1\n      sstore\n      swap2\n      add\n      mload\n      0xb10e2d527612073b26eecdfd717e6a320cf44b4afac2b0732d9fcbe2b7fa0cf9\n      dup4\n      add\n      sstore\n      0x40\n      dup4\n      add\n      mload\n      dup4\n      swap3\n      0xb10e2d527612073b26eecdfd717e6a320cf44b4afac2b0732d9fcbe2b7fa0cfa\n      add\n      swap1\n      tag_86\n      swap1\n      dup3\n      tag_87\n      jump\t// in\n    tag_86:\n      pop\n      pop\n        /* \"Practical3-Use-UI_Plya-Jason.sol\":2627:2638  gameHistory */\n      0x01\n        /* \"Practical3-Use-UI_Plya-Jason.sol\":2639:2657  gameHistory.length */\n      dup1\n      sload\n        /* \"Practical3-Use-UI_Plya-Jason.sol\":2683:2693  msg.sender */\n      caller\n      swap3\n      pop\n        /* \"Practical3-Use-UI_Plya-Jason.sol\":2639:2661  gameHistory.length - 1 */\n      tag_88\n      swap1\n        /* \"Practical3-Use-UI_Plya-Jason.sol\":2627:2638  gameHistory */\n      dup3\n      swap1\n        /* \"Practical3-Use-UI_Plya-Jason.sol\":2639:2661  gameHistory.length - 1 */\n      tag_40\n      jump\t// in\n    tag_88:\n        /* \"Practical3-Use-UI_Plya-Jason.sol\":2627:2662  gameHistory[gameHistory.length - 1] */\n      dup2\n      sload\n      dup2\n      lt\n      tag_90\n      jumpi\n      tag_90\n      tag_43\n      jump\t// in\n    tag_90:\n      0x00\n      swap2\n      dup3\n      mstore\n      0x20\n      dup3\n      keccak256\n      0x05\n      swap2\n      swap1\n      swap2\n      mul\n      add\n        /* \"Practical3-Use-UI_Plya-Jason.sol\":2627:2693  gameHistory[gameHistory.length - 1].user1.userAddress = msg.sender */\n      dup1\n      sload\n      not(sub(shl(0xa0, 0x01), 0x01))\n      and\n      sub(shl(0xa0, 0x01), 0x01)\n      swap4\n      swap1\n      swap4\n      and\n      swap3\n      swap1\n      swap3\n      or\n      swap1\n      swap2\n      sstore\n        /* \"Practical3-Use-UI_Plya-Jason.sol\":2815:2826  userCount++ */\n      dup1\n      sload\n      swap1\n        /* \"Practical3-Use-UI_Plya-Jason.sol\":2627:2662  gameHistory[gameHistory.length - 1] */\n      dup1\n        /* \"Practical3-Use-UI_Plya-Jason.sol\":2815:2826  userCount++ */\n      tag_92\n      dup4\n      tag_93\n      jump\t// in\n    tag_92:\n      swap2\n      swap1\n      pop\n      sstore\n      pop\n        /* \"Practical3-Use-UI_Plya-Jason.sol\":2374:2838  {... */\n      pop\n        /* \"Practical3-Use-UI_Plya-Jason.sol\":2356:3496  if(userCount == 0){... */\n      jump(tag_94)\n    tag_82:\n        /* \"Practical3-Use-UI_Plya-Jason.sol\":2948:2959  gameHistory */\n      0x01\n        /* \"Practical3-Use-UI_Plya-Jason.sol\":2960:2978  gameHistory.length */\n      dup1\n      sload\n        /* \"Practical3-Use-UI_Plya-Jason.sol\":2960:2982  gameHistory.length - 1 */\n      tag_95\n      swap1\n        /* \"Practical3-Use-UI_Plya-Jason.sol\":2948:2959  gameHistory */\n      dup3\n      swap1\n        /* \"Practical3-Use-UI_Plya-Jason.sol\":2960:2982  gameHistory.length - 1 */\n      tag_40\n      jump\t// in\n    tag_95:\n        /* \"Practical3-Use-UI_Plya-Jason.sol\":2948:2983  gameHistory[gameHistory.length - 1] */\n      dup2\n      sload\n      dup2\n      lt\n      tag_97\n      jumpi\n      tag_97\n      tag_43\n      jump\t// in\n    tag_97:\n      0x00\n      swap2\n      dup3\n      mstore\n      0x20\n      swap1\n      swap2\n      keccak256\n      0x05\n      swap1\n      swap2\n      mul\n      add\n        /* \"Practical3-Use-UI_Plya-Jason.sol\":2948:3001  gameHistory[gameHistory.length - 1].user1.userAddress */\n      sload\n      sub(shl(0xa0, 0x01), 0x01)\n      and\n        /* \"Practical3-Use-UI_Plya-Jason.sol\":2934:2944  msg.sender */\n      caller\n        /* \"Practical3-Use-UI_Plya-Jason.sol\":2934:3001  msg.sender != gameHistory[gameHistory.length - 1].user1.userAddress */\n      sub\n        /* \"Practical3-Use-UI_Plya-Jason.sol\":2926:3041  require(msg.sender != gameHistory[gameHistory.length - 1].user1.userAddress,\"Error: You cannot play with yourself\") */\n      tag_99\n      jumpi\n      mload(0x40)\n      shl(0xe5, 0x461bcd)\n      dup2\n      mstore\n        /* \"#utility.yul\":6471:6473   */\n      0x20\n        /* \"Practical3-Use-UI_Plya-Jason.sol\":2926:3041  require(msg.sender != gameHistory[gameHistory.length - 1].user1.userAddress,\"Error: You cannot play with yourself\") */\n      0x04\n      dup3\n      add\n        /* \"#utility.yul\":6453:6474   */\n      mstore\n        /* \"#utility.yul\":6510:6512   */\n      0x24\n        /* \"#utility.yul\":6490:6508   */\n      dup1\n      dup3\n      add\n        /* \"#utility.yul\":6483:6513   */\n      mstore\n        /* \"#utility.yul\":6549:6583   */\n      0x4572726f723a20596f752063616e6e6f7420706c6179207769746820796f7572\n        /* \"#utility.yul\":6529:6547   */\n      0x44\n      dup3\n      add\n        /* \"#utility.yul\":6522:6584   */\n      mstore\n      shl(0xe1, 0x39b2b633)\n        /* \"#utility.yul\":6600:6618   */\n      0x64\n      dup3\n      add\n        /* \"#utility.yul\":6593:6627   */\n      mstore\n        /* \"#utility.yul\":6644:6663   */\n      0x84\n      add\n        /* \"Practical3-Use-UI_Plya-Jason.sol\":2926:3041  require(msg.sender != gameHistory[gameHistory.length - 1].user1.userAddress,\"Error: You cannot play with yourself\") */\n      tag_79\n        /* \"#utility.yul\":6269:6669   */\n      jump\n        /* \"Practical3-Use-UI_Plya-Jason.sol\":2926:3041  require(msg.sender != gameHistory[gameHistory.length - 1].user1.userAddress,\"Error: You cannot play with yourself\") */\n    tag_99:\n        /* \"Practical3-Use-UI_Plya-Jason.sol\":3111:3122  gameHistory */\n      0x01\n        /* \"Practical3-Use-UI_Plya-Jason.sol\":3123:3141  gameHistory.length */\n      dup1\n      sload\n        /* \"Practical3-Use-UI_Plya-Jason.sol\":3167:3177  msg.sender */\n      caller\n      swap2\n        /* \"Practical3-Use-UI_Plya-Jason.sol\":3111:3122  gameHistory */\n      swap1\n        /* \"Practical3-Use-UI_Plya-Jason.sol\":3123:3145  gameHistory.length - 1 */\n      tag_102\n      swap1\n        /* \"Practical3-Use-UI_Plya-Jason.sol\":3111:3122  gameHistory */\n      dup3\n      swap1\n        /* \"Practical3-Use-UI_Plya-Jason.sol\":3123:3145  gameHistory.length - 1 */\n      tag_40\n      jump\t// in\n    tag_102:\n        /* \"Practical3-Use-UI_Plya-Jason.sol\":3111:3146  gameHistory[gameHistory.length - 1] */\n      dup2\n      sload\n      dup2\n      lt\n      tag_104\n      jumpi\n      tag_104\n      tag_43\n      jump\t// in\n    tag_104:\n      0x00\n      swap2\n      dup3\n      mstore\n      0x20\n      swap1\n      swap2\n      keccak256\n      0x05\n      swap1\n      swap2\n      mul\n      add\n        /* \"Practical3-Use-UI_Plya-Jason.sol\":3111:3152  gameHistory[gameHistory.length - 1].user2 */\n      0x02\n      add\n        /* \"Practical3-Use-UI_Plya-Jason.sol\":3111:3177  gameHistory[gameHistory.length - 1].user2.userAddress = msg.sender */\n      dup1\n      sload\n      not(sub(shl(0xa0, 0x01), 0x01))\n      and\n      sub(shl(0xa0, 0x01), 0x01)\n      swap3\n      swap1\n      swap3\n      and\n      swap2\n      swap1\n      swap2\n      or\n      swap1\n      sstore\n      0x01\n        /* \"Practical3-Use-UI_Plya-Jason.sol\":3354:3372  gameHistory.length */\n      dup1\n      sload\n        /* \"Practical3-Use-UI_Plya-Jason.sol\":3330:3452  inputOption(gameHistory[gameHistory.length - 1].user1.userAddress , gameHistory[gameHistory.length - 1].user2.userAddress) */\n      0xdaa57ee2c04aee347b88819662fcdb8376824fb89a1f9b97a41edb933a3ba7a6\n      swap2\n      swap1\n        /* \"Practical3-Use-UI_Plya-Jason.sol\":3354:3376  gameHistory.length - 1 */\n      tag_106\n      swap1\n      dup3\n      swap1\n      tag_40\n      jump\t// in\n    tag_106:\n        /* \"Practical3-Use-UI_Plya-Jason.sol\":3342:3377  gameHistory[gameHistory.length - 1] */\n      dup2\n      sload\n      dup2\n      lt\n      tag_108\n      jumpi\n      tag_108\n      tag_43\n      jump\t// in\n    tag_108:\n      0x00\n      swap2\n      dup3\n      mstore\n      0x20\n      swap1\n      swap2\n      keccak256\n      0x05\n      swap1\n      swap2\n      mul\n      add\n        /* \"Practical3-Use-UI_Plya-Jason.sol\":3342:3395  gameHistory[gameHistory.length - 1].user1.userAddress */\n      sload\n      0x01\n        /* \"Practical3-Use-UI_Plya-Jason.sol\":3410:3428  gameHistory.length */\n      dup1\n      sload\n      sub(shl(0xa0, 0x01), 0x01)\n        /* \"Practical3-Use-UI_Plya-Jason.sol\":3342:3395  gameHistory[gameHistory.length - 1].user1.userAddress */\n      swap1\n      swap3\n      and\n      swap2\n        /* \"Practical3-Use-UI_Plya-Jason.sol\":3410:3432  gameHistory.length - 1 */\n      tag_110\n      swap1\n        /* \"Practical3-Use-UI_Plya-Jason.sol\":3342:3395  gameHistory[gameHistory.length - 1].user1.userAddress */\n      dup3\n      swap1\n        /* \"Practical3-Use-UI_Plya-Jason.sol\":3410:3432  gameHistory.length - 1 */\n      tag_40\n      jump\t// in\n    tag_110:\n        /* \"Practical3-Use-UI_Plya-Jason.sol\":3398:3433  gameHistory[gameHistory.length - 1] */\n      dup2\n      sload\n      dup2\n      lt\n      tag_112\n      jumpi\n      tag_112\n      tag_43\n      jump\t// in\n    tag_112:\n      0x00\n      swap2\n      dup3\n      mstore\n      0x20\n      swap1\n      swap2\n      keccak256\n        /* \"Practical3-Use-UI_Plya-Jason.sol\":3398:3439  gameHistory[gameHistory.length - 1].user2 */\n      0x02\n        /* \"Practical3-Use-UI_Plya-Jason.sol\":3398:3433  gameHistory[gameHistory.length - 1] */\n      0x05\n      swap1\n      swap3\n      mul\n      add\n        /* \"Practical3-Use-UI_Plya-Jason.sol\":3398:3439  gameHistory[gameHistory.length - 1].user2 */\n      add\n        /* \"Practical3-Use-UI_Plya-Jason.sol\":3398:3451  gameHistory[gameHistory.length - 1].user2.userAddress */\n      sload\n        /* \"Practical3-Use-UI_Plya-Jason.sol\":3330:3452  inputOption(gameHistory[gameHistory.length - 1].user1.userAddress , gameHistory[gameHistory.length - 1].user2.userAddress) */\n      mload(0x40)\n      tag_114\n      swap3\n      swap2\n      sub(shl(0xa0, 0x01), 0x01)\n        /* \"Practical3-Use-UI_Plya-Jason.sol\":3398:3451  gameHistory[gameHistory.length - 1].user2.userAddress */\n      and\n      swap1\n      sub(shl(0xa0, 0x01), 0x01)\n        /* \"#utility.yul\":6904:6919   */\n      swap3\n      dup4\n      and\n        /* \"#utility.yul\":6886:6920   */\n      dup2\n      mstore\n        /* \"#utility.yul\":6956:6971   */\n      swap2\n      and\n        /* \"#utility.yul\":6951:6953   */\n      0x20\n        /* \"#utility.yul\":6936:6954   */\n      dup3\n      add\n        /* \"#utility.yul\":6929:6972   */\n      mstore\n        /* \"#utility.yul\":6836:6838   */\n      0x40\n        /* \"#utility.yul\":6821:6839   */\n      add\n      swap1\n        /* \"#utility.yul\":6674:6978   */\n      jump\n        /* \"Practical3-Use-UI_Plya-Jason.sol\":3330:3452  inputOption(gameHistory[gameHistory.length - 1].user1.userAddress , gameHistory[gameHistory.length - 1].user2.userAddress) */\n    tag_114:\n      mload(0x40)\n      dup1\n      swap2\n      sub\n      swap1\n      log1\n        /* \"Practical3-Use-UI_Plya-Jason.sol\":2356:3496  if(userCount == 0){... */\n    tag_94:\n        /* \"Practical3-Use-UI_Plya-Jason.sol\":2171:2177  locked */\n      0x02\n        /* \"Practical3-Use-UI_Plya-Jason.sol\":2171:2185  locked = false */\n      dup1\n      sload\n      not(0xff)\n      and\n      swap1\n      sstore\n        /* \"Practical3-Use-UI_Plya-Jason.sol\":2305:3503  function play () external noReentrancy{... */\n      jump\t// out\n        /* \"Practical3-Use-UI_Plya-Jason.sol\":1017:1261  function getUser1 (uint index) external view returns(UserInfo memory){... */\n    tag_30:\n      0x40\n      dup1\n      mload\n      dup1\n      dup3\n      add\n      swap1\n      swap2\n      mstore\n      0x00\n      dup1\n      dup3\n      mstore\n      0x20\n      dup3\n      add\n      mstore\n        /* \"Practical3-Use-UI_Plya-Jason.sol\":1165:1176  gameHistory */\n      0x01\n        /* \"Practical3-Use-UI_Plya-Jason.sol\":1165:1183  gameHistory.length */\n      sload\n        /* \"Practical3-Use-UI_Plya-Jason.sol\":1156:1183  index <= gameHistory.length */\n      dup3\n      gt\n      iszero\n        /* \"Practical3-Use-UI_Plya-Jason.sol\":1148:1209  require(index <= gameHistory.length, \"Error: Invalid length\") */\n      tag_119\n      jumpi\n      mload(0x40)\n      shl(0xe5, 0x461bcd)\n      dup2\n      mstore\n        /* \"#utility.yul\":7185:7187   */\n      0x20\n        /* \"Practical3-Use-UI_Plya-Jason.sol\":1148:1209  require(index <= gameHistory.length, \"Error: Invalid length\") */\n      0x04\n      dup3\n      add\n        /* \"#utility.yul\":7167:7188   */\n      mstore\n        /* \"#utility.yul\":7224:7226   */\n      0x15\n        /* \"#utility.yul\":7204:7222   */\n      0x24\n      dup3\n      add\n        /* \"#utility.yul\":7197:7227   */\n      mstore\n      shl(0x5b, 0x08ae4e4dee4744092dcecc2d8d2c840d8cadccee8d)\n        /* \"#utility.yul\":7243:7261   */\n      0x44\n      dup3\n      add\n        /* \"#utility.yul\":7236:7287   */\n      mstore\n        /* \"#utility.yul\":7304:7322   */\n      0x64\n      add\n        /* \"Practical3-Use-UI_Plya-Jason.sol\":1148:1209  require(index <= gameHistory.length, \"Error: Invalid length\") */\n      tag_79\n        /* \"#utility.yul\":6983:7328   */\n      jump\n        /* \"Practical3-Use-UI_Plya-Jason.sol\":1148:1209  require(index <= gameHistory.length, \"Error: Invalid length\") */\n    tag_119:\n        /* \"Practical3-Use-UI_Plya-Jason.sol\":1228:1239  gameHistory */\n      0x01\n        /* \"Practical3-Use-UI_Plya-Jason.sol\":1240:1245  index */\n      dup3\n        /* \"Practical3-Use-UI_Plya-Jason.sol\":1228:1246  gameHistory[index] */\n      dup2\n      sload\n      dup2\n      lt\n      tag_123\n      jumpi\n      tag_123\n      tag_43\n      jump\t// in\n    tag_123:\n      0x00\n      swap2\n      dup3\n      mstore\n      0x20\n      swap2\n      dup3\n      swap1\n      keccak256\n        /* \"Practical3-Use-UI_Plya-Jason.sol\":1220:1253  return (gameHistory[index].user1) */\n      0x40\n      dup1\n      mload\n      dup1\n      dup3\n      add\n      swap1\n      swap2\n      mstore\n        /* \"Practical3-Use-UI_Plya-Jason.sol\":1228:1246  gameHistory[index] */\n      0x05\n      swap1\n      swap3\n      mul\n      add\n        /* \"Practical3-Use-UI_Plya-Jason.sol\":1220:1253  return (gameHistory[index].user1) */\n      dup1\n      sload\n      sub(shl(0xa0, 0x01), 0x01)\n      and\n      dup3\n      mstore\n      0x01\n      add\n      sload\n      swap2\n      dup2\n      add\n      swap2\n      swap1\n      swap2\n      mstore\n      swap3\n        /* \"Practical3-Use-UI_Plya-Jason.sol\":1017:1261  function getUser1 (uint index) external view returns(UserInfo memory){... */\n      swap2\n      pop\n      pop\n      jump\t// out\n        /* \"Practical3-Use-UI_Plya-Jason.sol\":1482:1951  function getSpecificGameHistory (uint index) external view returns(GameInfo memory){... */\n    tag_35:\n        /* \"Practical3-Use-UI_Plya-Jason.sol\":1549:1564  GameInfo memory */\n      tag_125\n      tag_84\n      jump\t// in\n    tag_125:\n        /* \"Practical3-Use-UI_Plya-Jason.sol\":1644:1655  gameHistory */\n      0x01\n        /* \"Practical3-Use-UI_Plya-Jason.sol\":1644:1662  gameHistory.length */\n      sload\n        /* \"Practical3-Use-UI_Plya-Jason.sol\":1635:1662  index <= gameHistory.length */\n      dup3\n      gt\n      iszero\n        /* \"Practical3-Use-UI_Plya-Jason.sol\":1627:1688  require(index <= gameHistory.length, \"Error: Invalid length\") */\n      tag_127\n      jumpi\n      mload(0x40)\n      shl(0xe5, 0x461bcd)\n      dup2\n      mstore\n        /* \"#utility.yul\":7185:7187   */\n      0x20\n        /* \"Practical3-Use-UI_Plya-Jason.sol\":1627:1688  require(index <= gameHistory.length, \"Error: Invalid length\") */\n      0x04\n      dup3\n      add\n        /* \"#utility.yul\":7167:7188   */\n      mstore\n        /* \"#utility.yul\":7224:7226   */\n      0x15\n        /* \"#utility.yul\":7204:7222   */\n      0x24\n      dup3\n      add\n        /* \"#utility.yul\":7197:7227   */\n      mstore\n      shl(0x5b, 0x08ae4e4dee4744092dcecc2d8d2c840d8cadccee8d)\n        /* \"#utility.yul\":7243:7261   */\n      0x44\n      dup3\n      add\n        /* \"#utility.yul\":7236:7287   */\n      mstore\n        /* \"#utility.yul\":7304:7322   */\n      0x64\n      add\n        /* \"Practical3-Use-UI_Plya-Jason.sol\":1627:1688  require(index <= gameHistory.length, \"Error: Invalid length\") */\n      tag_79\n        /* \"#utility.yul\":6983:7328   */\n      jump\n        /* \"Practical3-Use-UI_Plya-Jason.sol\":1627:1688  require(index <= gameHistory.length, \"Error: Invalid length\") */\n    tag_127:\n        /* \"Practical3-Use-UI_Plya-Jason.sol\":1866:1867  0 */\n      0x00\n      sub(shl(0xa0, 0x01), 0x01)\n        /* \"Practical3-Use-UI_Plya-Jason.sol\":1818:1868  gameHistory[index].user2.userAddress != address(0) */\n      and\n        /* \"Practical3-Use-UI_Plya-Jason.sol\":1818:1829  gameHistory */\n      0x01\n        /* \"Practical3-Use-UI_Plya-Jason.sol\":1830:1835  index */\n      dup4\n        /* \"Practical3-Use-UI_Plya-Jason.sol\":1818:1836  gameHistory[index] */\n      dup2\n      sload\n      dup2\n      lt\n      tag_130\n      jumpi\n      tag_130\n      tag_43\n      jump\t// in\n    tag_130:\n      0x00\n      swap2\n      dup3\n      mstore\n      0x20\n      swap1\n      swap2\n      keccak256\n        /* \"Practical3-Use-UI_Plya-Jason.sol\":1818:1842  gameHistory[index].user2 */\n      0x02\n        /* \"Practical3-Use-UI_Plya-Jason.sol\":1818:1836  gameHistory[index] */\n      0x05\n      swap1\n      swap3\n      mul\n      add\n        /* \"Practical3-Use-UI_Plya-Jason.sol\":1818:1842  gameHistory[index].user2 */\n      add\n        /* \"Practical3-Use-UI_Plya-Jason.sol\":1818:1854  gameHistory[index].user2.userAddress */\n      sload\n      sub(shl(0xa0, 0x01), 0x01)\n      and\n        /* \"Practical3-Use-UI_Plya-Jason.sol\":1818:1868  gameHistory[index].user2.userAddress != address(0) */\n      sub\n        /* \"Practical3-Use-UI_Plya-Jason.sol\":1810:1903  require(gameHistory[index].user2.userAddress != address(0), \"Error: The game not finish yet\") */\n      tag_132\n      jumpi\n      mload(0x40)\n      shl(0xe5, 0x461bcd)\n      dup2\n      mstore\n        /* \"#utility.yul\":7535:7537   */\n      0x20\n        /* \"Practical3-Use-UI_Plya-Jason.sol\":1810:1903  require(gameHistory[index].user2.userAddress != address(0), \"Error: The game not finish yet\") */\n      0x04\n      dup3\n      add\n        /* \"#utility.yul\":7517:7538   */\n      mstore\n        /* \"#utility.yul\":7574:7576   */\n      0x1e\n        /* \"#utility.yul\":7554:7572   */\n      0x24\n      dup3\n      add\n        /* \"#utility.yul\":7547:7577   */\n      mstore\n        /* \"#utility.yul\":7613:7645   */\n      0x4572726f723a205468652067616d65206e6f742066696e697368207965740000\n        /* \"#utility.yul\":7593:7611   */\n      0x44\n      dup3\n      add\n        /* \"#utility.yul\":7586:7646   */\n      mstore\n        /* \"#utility.yul\":7663:7681   */\n      0x64\n      add\n        /* \"Practical3-Use-UI_Plya-Jason.sol\":1810:1903  require(gameHistory[index].user2.userAddress != address(0), \"Error: The game not finish yet\") */\n      tag_79\n        /* \"#utility.yul\":7333:7687   */\n      jump\n        /* \"Practical3-Use-UI_Plya-Jason.sol\":1810:1903  require(gameHistory[index].user2.userAddress != address(0), \"Error: The game not finish yet\") */\n    tag_132:\n        /* \"Practical3-Use-UI_Plya-Jason.sol\":1924:1935  gameHistory */\n      0x01\n        /* \"Practical3-Use-UI_Plya-Jason.sol\":1936:1941  index */\n      dup3\n        /* \"Practical3-Use-UI_Plya-Jason.sol\":1924:1942  gameHistory[index] */\n      dup2\n      sload\n      dup2\n      lt\n      tag_136\n      jumpi\n      tag_136\n      tag_43\n      jump\t// in\n    tag_136:\n      0x00\n      swap2\n      dup3\n      mstore\n      0x20\n      swap2\n      dup3\n      swap1\n      keccak256\n        /* \"Practical3-Use-UI_Plya-Jason.sol\":1916:1943  return (gameHistory[index]) */\n      0x40\n      dup1\n      mload\n      0xa0\n      dup2\n      add\n      dup3\n      mstore\n        /* \"Practical3-Use-UI_Plya-Jason.sol\":1924:1942  gameHistory[index] */\n      0x05\n      swap1\n      swap4\n      mul\n      swap1\n      swap2\n      add\n        /* \"Practical3-Use-UI_Plya-Jason.sol\":1916:1943  return (gameHistory[index]) */\n      dup1\n      sload\n      sub(shl(0xa0, 0x01), 0x01)\n      swap1\n      dup2\n      and\n      0x60\n      dup6\n      add\n      swap1\n      dup2\n      mstore\n      0x01\n      dup4\n      add\n      sload\n      0x80\n      dup7\n      add\n      mstore\n      dup5\n      mstore\n      dup3\n      mload\n      dup1\n      dup5\n      add\n      dup5\n      mstore\n      0x02\n      dup4\n      add\n      sload\n      swap1\n      swap2\n      and\n      dup2\n      mstore\n      0x03\n      dup3\n      add\n      sload\n      dup2\n      dup7\n      add\n      mstore\n      swap4\n      dup4\n      add\n      swap4\n      swap1\n      swap4\n      mstore\n      0x04\n      dup4\n      add\n      dup1\n      sload\n      swap3\n      swap4\n        /* \"Practical3-Use-UI_Plya-Jason.sol\":1924:1942  gameHistory[index] */\n      swap3\n      swap2\n      dup5\n      add\n      swap2\n        /* \"Practical3-Use-UI_Plya-Jason.sol\":1916:1943  return (gameHistory[index]) */\n      tag_138\n      swap1\n      tag_72\n      jump\t// in\n    tag_138:\n      dup1\n      0x1f\n      add\n      0x20\n      dup1\n      swap2\n      div\n      mul\n      0x20\n      add\n      mload(0x40)\n      swap1\n      dup2\n      add\n      0x40\n      mstore\n      dup1\n      swap3\n      swap2\n      swap1\n      dup2\n      dup2\n      mstore\n      0x20\n      add\n      dup3\n      dup1\n      sload\n      tag_139\n      swap1\n      tag_72\n      jump\t// in\n    tag_139:\n      dup1\n      iszero\n      tag_140\n      jumpi\n      dup1\n      0x1f\n      lt\n      tag_141\n      jumpi\n      0x0100\n      dup1\n      dup4\n      sload\n      div\n      mul\n      dup4\n      mstore\n      swap2\n      0x20\n      add\n      swap2\n      jump(tag_140)\n    tag_141:\n      dup3\n      add\n      swap2\n      swap1\n      0x00\n      mstore\n      keccak256(0x00, 0x20)\n      swap1\n    tag_142:\n      dup2\n      sload\n      dup2\n      mstore\n      swap1\n      0x01\n      add\n      swap1\n      0x20\n      add\n      dup1\n      dup4\n      gt\n      tag_142\n      jumpi\n      dup3\n      swap1\n      sub\n      0x1f\n      and\n      dup3\n      add\n      swap2\n    tag_140:\n      pop\n      pop\n      pop\n      pop\n      pop\n      dup2\n      mstore\n      pop\n      pop\n      swap1\n      pop\n        /* \"Practical3-Use-UI_Plya-Jason.sol\":1482:1951  function getSpecificGameHistory (uint index) external view returns(GameInfo memory){... */\n      swap2\n      swap1\n      pop\n      jump\t// out\n        /* \"Practical3-Use-UI_Plya-Jason.sol\":4123:5301  function game () private {... */\n    tag_66:\n        /* \"Practical3-Use-UI_Plya-Jason.sol\":4346:4357  gameHistory */\n      0x01\n        /* \"Practical3-Use-UI_Plya-Jason.sol\":4358:4376  gameHistory.length */\n      dup1\n      sload\n        /* \"Practical3-Use-UI_Plya-Jason.sol\":4358:4380  gameHistory.length - 1 */\n      tag_144\n      swap1\n        /* \"Practical3-Use-UI_Plya-Jason.sol\":4346:4357  gameHistory */\n      dup3\n      swap1\n        /* \"Practical3-Use-UI_Plya-Jason.sol\":4358:4380  gameHistory.length - 1 */\n      tag_40\n      jump\t// in\n    tag_144:\n        /* \"Practical3-Use-UI_Plya-Jason.sol\":4346:4381  gameHistory[gameHistory.length - 1] */\n      dup2\n      sload\n      dup2\n      lt\n      tag_146\n      jumpi\n      tag_146\n      tag_43\n      jump\t// in\n    tag_146:\n      0x00\n      swap2\n      dup3\n      mstore\n      0x20\n      swap1\n      swap2\n      keccak256\n        /* \"Practical3-Use-UI_Plya-Jason.sol\":4346:4398  gameHistory[gameHistory.length - 1].user2.userOption */\n      0x03\n        /* \"Practical3-Use-UI_Plya-Jason.sol\":4346:4381  gameHistory[gameHistory.length - 1] */\n      0x05\n      swap1\n      swap3\n      mul\n      add\n        /* \"Practical3-Use-UI_Plya-Jason.sol\":4346:4398  gameHistory[gameHistory.length - 1].user2.userOption */\n      add\n      sload\n      0x01\n        /* \"Practical3-Use-UI_Plya-Jason.sol\":4302:4320  gameHistory.length */\n      dup1\n      sload\n        /* \"Practical3-Use-UI_Plya-Jason.sol\":4302:4324  gameHistory.length - 1 */\n      tag_148\n      swap1\n        /* \"Practical3-Use-UI_Plya-Jason.sol\":4346:4398  gameHistory[gameHistory.length - 1].user2.userOption */\n      dup3\n      swap1\n        /* \"Practical3-Use-UI_Plya-Jason.sol\":4302:4324  gameHistory.length - 1 */\n      tag_40\n      jump\t// in\n    tag_148:\n        /* \"Practical3-Use-UI_Plya-Jason.sol\":4290:4325  gameHistory[gameHistory.length - 1] */\n      dup2\n      sload\n      dup2\n      lt\n      tag_150\n      jumpi\n      tag_150\n      tag_43\n      jump\t// in\n    tag_150:\n      swap1\n      0x00\n      mstore\n      keccak256(0x00, 0x20)\n      swap1\n      0x05\n      mul\n      add\n        /* \"Practical3-Use-UI_Plya-Jason.sol\":4290:4331  gameHistory[gameHistory.length - 1].user1 */\n      0x00\n      add\n        /* \"Practical3-Use-UI_Plya-Jason.sol\":4290:4342  gameHistory[gameHistory.length - 1].user1.userOption */\n      0x01\n      add\n      sload\n        /* \"Practical3-Use-UI_Plya-Jason.sol\":4290:4398  gameHistory[gameHistory.length - 1].user1.userOption == gameHistory[gameHistory.length - 1].user2.userOption */\n      sub\n        /* \"Practical3-Use-UI_Plya-Jason.sol\":4286:5294  if (gameHistory[gameHistory.length - 1].user1.userOption == gameHistory[gameHistory.length - 1].user2.userOption) {... */\n      tag_152\n      jumpi\n        /* \"Practical3-Use-UI_Plya-Jason.sol\":4415:4471  gameHistory[gameHistory.length - 1].finalResult = \"Tied\" */\n      0x40\n      dup1\n      mload\n      dup1\n      dup3\n      add\n      swap1\n      swap2\n      mstore\n      0x04\n      dup2\n      mstore\n      shl(0xe2, 0x151a5959)\n      0x20\n      dup3\n      add\n      mstore\n        /* \"Practical3-Use-UI_Plya-Jason.sol\":4415:4426  gameHistory */\n      0x01\n        /* \"Practical3-Use-UI_Plya-Jason.sol\":4427:4445  gameHistory.length */\n      dup1\n      sload\n        /* \"Practical3-Use-UI_Plya-Jason.sol\":4427:4449  gameHistory.length - 1 */\n      tag_153\n      swap1\n        /* \"Practical3-Use-UI_Plya-Jason.sol\":4415:4426  gameHistory */\n      dup3\n      swap1\n        /* \"Practical3-Use-UI_Plya-Jason.sol\":4427:4449  gameHistory.length - 1 */\n      tag_40\n      jump\t// in\n    tag_153:\n        /* \"Practical3-Use-UI_Plya-Jason.sol\":4415:4450  gameHistory[gameHistory.length - 1] */\n      dup2\n      sload\n      dup2\n      lt\n      tag_155\n      jumpi\n      tag_155\n      tag_43\n      jump\t// in\n    tag_155:\n      swap1\n      0x00\n      mstore\n      keccak256(0x00, 0x20)\n      swap1\n      0x05\n      mul\n      add\n        /* \"Practical3-Use-UI_Plya-Jason.sol\":4415:4462  gameHistory[gameHistory.length - 1].finalResult */\n      0x04\n      add\n        /* \"Practical3-Use-UI_Plya-Jason.sol\":4415:4471  gameHistory[gameHistory.length - 1].finalResult = \"Tied\" */\n      swap1\n      dup2\n      tag_157\n      swap2\n      swap1\n      tag_87\n      jump\t// in\n    tag_157:\n      pop\n        /* \"Practical3-Use-UI_Plya-Jason.sol\":4491:4509  showResult(\"Tied\") */\n      0xcde5c32c0a45fd8aa4b65ea8003fc9da9acd5e2c6c24a9fcce6ab79cabbd9122\n      mload(0x40)\n      tag_158\n      swap1\n        /* \"#utility.yul\":7894:7896   */\n      0x20\n        /* \"#utility.yul\":7876:7897   */\n      dup1\n      dup3\n      mstore\n        /* \"#utility.yul\":7933:7934   */\n      0x04\n        /* \"#utility.yul\":7913:7931   */\n      swap1\n      dup3\n      add\n        /* \"#utility.yul\":7906:7935   */\n      mstore\n      shl(0xe2, 0x151a5959)\n        /* \"#utility.yul\":7966:7968   */\n      0x40\n        /* \"#utility.yul\":7951:7969   */\n      dup3\n      add\n        /* \"#utility.yul\":7944:7978   */\n      mstore\n        /* \"#utility.yul\":8010:8012   */\n      0x60\n        /* \"#utility.yul\":7995:8013   */\n      add\n      swap1\n        /* \"#utility.yul\":7692:8019   */\n      jump\n        /* \"Practical3-Use-UI_Plya-Jason.sol\":4491:4509  showResult(\"Tied\") */\n    tag_158:\n      mload(0x40)\n      dup1\n      swap2\n      sub\n      swap1\n      log1\n        /* \"Practical3-Use-UI_Plya-Jason.sol\":4123:5301  function game () private {... */\n      jump\t// out\n        /* \"Practical3-Use-UI_Plya-Jason.sol\":4286:5294  if (gameHistory[gameHistory.length - 1].user1.userOption == gameHistory[gameHistory.length - 1].user2.userOption) {... */\n    tag_152:\n        /* \"Practical3-Use-UI_Plya-Jason.sol\":4574:4585  gameHistory */\n      0x01\n        /* \"Practical3-Use-UI_Plya-Jason.sol\":4586:4604  gameHistory.length */\n      dup1\n      sload\n        /* \"Practical3-Use-UI_Plya-Jason.sol\":4586:4608  gameHistory.length - 1 */\n      tag_161\n      swap1\n        /* \"Practical3-Use-UI_Plya-Jason.sol\":4574:4585  gameHistory */\n      dup3\n      swap1\n        /* \"Practical3-Use-UI_Plya-Jason.sol\":4586:4608  gameHistory.length - 1 */\n      tag_40\n      jump\t// in\n    tag_161:\n        /* \"Practical3-Use-UI_Plya-Jason.sol\":4574:4609  gameHistory[gameHistory.length - 1] */\n      dup2\n      sload\n      dup2\n      lt\n      tag_163\n      jumpi\n      tag_163\n      tag_43\n      jump\t// in\n    tag_163:\n      swap1\n      0x00\n      mstore\n      keccak256(0x00, 0x20)\n      swap1\n      0x05\n      mul\n      add\n        /* \"Practical3-Use-UI_Plya-Jason.sol\":4574:4615  gameHistory[gameHistory.length - 1].user1 */\n      0x00\n      add\n        /* \"Practical3-Use-UI_Plya-Jason.sol\":4574:4626  gameHistory[gameHistory.length - 1].user1.userOption */\n      0x01\n      add\n      sload\n        /* \"Practical3-Use-UI_Plya-Jason.sol\":4630:4631  1 */\n      0x01\n        /* \"Practical3-Use-UI_Plya-Jason.sol\":4574:4631  gameHistory[gameHistory.length - 1].user1.userOption == 1 */\n      eq\n        /* \"Practical3-Use-UI_Plya-Jason.sol\":4574:4692  gameHistory[gameHistory.length - 1].user1.userOption == 1 && gameHistory[gameHistory.length - 1].user2.userOption == 2 */\n      dup1\n      iszero\n      tag_165\n      jumpi\n      pop\n        /* \"Practical3-Use-UI_Plya-Jason.sol\":4635:4646  gameHistory */\n      0x01\n        /* \"Practical3-Use-UI_Plya-Jason.sol\":4647:4665  gameHistory.length */\n      dup1\n      sload\n        /* \"Practical3-Use-UI_Plya-Jason.sol\":4647:4669  gameHistory.length - 1 */\n      tag_166\n      swap1\n        /* \"Practical3-Use-UI_Plya-Jason.sol\":4635:4646  gameHistory */\n      dup3\n      swap1\n        /* \"Practical3-Use-UI_Plya-Jason.sol\":4647:4669  gameHistory.length - 1 */\n      tag_40\n      jump\t// in\n    tag_166:\n        /* \"Practical3-Use-UI_Plya-Jason.sol\":4635:4670  gameHistory[gameHistory.length - 1] */\n      dup2\n      sload\n      dup2\n      lt\n      tag_168\n      jumpi\n      tag_168\n      tag_43\n      jump\t// in\n    tag_168:\n      swap1\n      0x00\n      mstore\n      keccak256(0x00, 0x20)\n      swap1\n      0x05\n      mul\n      add\n        /* \"Practical3-Use-UI_Plya-Jason.sol\":4635:4676  gameHistory[gameHistory.length - 1].user2 */\n      0x02\n      add\n        /* \"Practical3-Use-UI_Plya-Jason.sol\":4635:4687  gameHistory[gameHistory.length - 1].user2.userOption */\n      0x01\n      add\n      sload\n        /* \"Practical3-Use-UI_Plya-Jason.sol\":4691:4692  2 */\n      0x02\n        /* \"Practical3-Use-UI_Plya-Jason.sol\":4635:4692  gameHistory[gameHistory.length - 1].user2.userOption == 2 */\n      eq\n        /* \"Practical3-Use-UI_Plya-Jason.sol\":4574:4692  gameHistory[gameHistory.length - 1].user1.userOption == 1 && gameHistory[gameHistory.length - 1].user2.userOption == 2 */\n    tag_165:\n        /* \"Practical3-Use-UI_Plya-Jason.sol\":4573:4834  (gameHistory[gameHistory.length - 1].user1.userOption == 1 && gameHistory[gameHistory.length - 1].user2.userOption == 2) ||... */\n      dup1\n      tag_175\n      jumpi\n      pop\n        /* \"Practical3-Use-UI_Plya-Jason.sol\":4715:4726  gameHistory */\n      0x01\n        /* \"Practical3-Use-UI_Plya-Jason.sol\":4727:4745  gameHistory.length */\n      dup1\n      sload\n        /* \"Practical3-Use-UI_Plya-Jason.sol\":4727:4749  gameHistory.length - 1 */\n      tag_171\n      swap1\n        /* \"Practical3-Use-UI_Plya-Jason.sol\":4715:4726  gameHistory */\n      dup3\n      swap1\n        /* \"Practical3-Use-UI_Plya-Jason.sol\":4727:4749  gameHistory.length - 1 */\n      tag_40\n      jump\t// in\n    tag_171:\n        /* \"Practical3-Use-UI_Plya-Jason.sol\":4715:4750  gameHistory[gameHistory.length - 1] */\n      dup2\n      sload\n      dup2\n      lt\n      tag_173\n      jumpi\n      tag_173\n      tag_43\n      jump\t// in\n    tag_173:\n      swap1\n      0x00\n      mstore\n      keccak256(0x00, 0x20)\n      swap1\n      0x05\n      mul\n      add\n        /* \"Practical3-Use-UI_Plya-Jason.sol\":4715:4756  gameHistory[gameHistory.length - 1].user1 */\n      0x00\n      add\n        /* \"Practical3-Use-UI_Plya-Jason.sol\":4715:4767  gameHistory[gameHistory.length - 1].user1.userOption */\n      0x01\n      add\n      sload\n        /* \"Practical3-Use-UI_Plya-Jason.sol\":4771:4772  3 */\n      0x03\n        /* \"Practical3-Use-UI_Plya-Jason.sol\":4715:4772  gameHistory[gameHistory.length - 1].user1.userOption == 3 */\n      eq\n        /* \"Practical3-Use-UI_Plya-Jason.sol\":4715:4833  gameHistory[gameHistory.length - 1].user1.userOption == 3 && gameHistory[gameHistory.length - 1].user2.userOption == 1 */\n      dup1\n      iszero\n      tag_175\n      jumpi\n      pop\n        /* \"Practical3-Use-UI_Plya-Jason.sol\":4776:4787  gameHistory */\n      0x01\n        /* \"Practical3-Use-UI_Plya-Jason.sol\":4788:4806  gameHistory.length */\n      dup1\n      sload\n        /* \"Practical3-Use-UI_Plya-Jason.sol\":4788:4810  gameHistory.length - 1 */\n      tag_176\n      swap1\n        /* \"Practical3-Use-UI_Plya-Jason.sol\":4776:4787  gameHistory */\n      dup3\n      swap1\n        /* \"Practical3-Use-UI_Plya-Jason.sol\":4788:4810  gameHistory.length - 1 */\n      tag_40\n      jump\t// in\n    tag_176:\n        /* \"Practical3-Use-UI_Plya-Jason.sol\":4776:4811  gameHistory[gameHistory.length - 1] */\n      dup2\n      sload\n      dup2\n      lt\n      tag_178\n      jumpi\n      tag_178\n      tag_43\n      jump\t// in\n    tag_178:\n      swap1\n      0x00\n      mstore\n      keccak256(0x00, 0x20)\n      swap1\n      0x05\n      mul\n      add\n        /* \"Practical3-Use-UI_Plya-Jason.sol\":4776:4817  gameHistory[gameHistory.length - 1].user2 */\n      0x02\n      add\n        /* \"Practical3-Use-UI_Plya-Jason.sol\":4776:4828  gameHistory[gameHistory.length - 1].user2.userOption */\n      0x01\n      add\n      sload\n        /* \"Practical3-Use-UI_Plya-Jason.sol\":4832:4833  1 */\n      0x01\n        /* \"Practical3-Use-UI_Plya-Jason.sol\":4776:4833  gameHistory[gameHistory.length - 1].user2.userOption == 1 */\n      eq\n        /* \"Practical3-Use-UI_Plya-Jason.sol\":4715:4833  gameHistory[gameHistory.length - 1].user1.userOption == 3 && gameHistory[gameHistory.length - 1].user2.userOption == 1 */\n    tag_175:\n        /* \"Practical3-Use-UI_Plya-Jason.sol\":4573:4975  (gameHistory[gameHistory.length - 1].user1.userOption == 1 && gameHistory[gameHistory.length - 1].user2.userOption == 2) ||... */\n      dup1\n      tag_185\n      jumpi\n      pop\n        /* \"Practical3-Use-UI_Plya-Jason.sol\":4856:4867  gameHistory */\n      0x01\n        /* \"Practical3-Use-UI_Plya-Jason.sol\":4868:4886  gameHistory.length */\n      dup1\n      sload\n        /* \"Practical3-Use-UI_Plya-Jason.sol\":4868:4890  gameHistory.length - 1 */\n      tag_181\n      swap1\n        /* \"Practical3-Use-UI_Plya-Jason.sol\":4856:4867  gameHistory */\n      dup3\n      swap1\n        /* \"Practical3-Use-UI_Plya-Jason.sol\":4868:4890  gameHistory.length - 1 */\n      tag_40\n      jump\t// in\n    tag_181:\n        /* \"Practical3-Use-UI_Plya-Jason.sol\":4856:4891  gameHistory[gameHistory.length - 1] */\n      dup2\n      sload\n      dup2\n      lt\n      tag_183\n      jumpi\n      tag_183\n      tag_43\n      jump\t// in\n    tag_183:\n      swap1\n      0x00\n      mstore\n      keccak256(0x00, 0x20)\n      swap1\n      0x05\n      mul\n      add\n        /* \"Practical3-Use-UI_Plya-Jason.sol\":4856:4897  gameHistory[gameHistory.length - 1].user1 */\n      0x00\n      add\n        /* \"Practical3-Use-UI_Plya-Jason.sol\":4856:4908  gameHistory[gameHistory.length - 1].user1.userOption */\n      0x01\n      add\n      sload\n        /* \"Practical3-Use-UI_Plya-Jason.sol\":4912:4913  2 */\n      0x02\n        /* \"Practical3-Use-UI_Plya-Jason.sol\":4856:4913  gameHistory[gameHistory.length - 1].user1.userOption == 2 */\n      eq\n        /* \"Practical3-Use-UI_Plya-Jason.sol\":4856:4974  gameHistory[gameHistory.length - 1].user1.userOption == 2 && gameHistory[gameHistory.length - 1].user2.userOption == 3 */\n      dup1\n      iszero\n      tag_185\n      jumpi\n      pop\n        /* \"Practical3-Use-UI_Plya-Jason.sol\":4917:4928  gameHistory */\n      0x01\n        /* \"Practical3-Use-UI_Plya-Jason.sol\":4929:4947  gameHistory.length */\n      dup1\n      sload\n        /* \"Practical3-Use-UI_Plya-Jason.sol\":4929:4951  gameHistory.length - 1 */\n      tag_186\n      swap1\n        /* \"Practical3-Use-UI_Plya-Jason.sol\":4917:4928  gameHistory */\n      dup3\n      swap1\n        /* \"Practical3-Use-UI_Plya-Jason.sol\":4929:4951  gameHistory.length - 1 */\n      tag_40\n      jump\t// in\n    tag_186:\n        /* \"Practical3-Use-UI_Plya-Jason.sol\":4917:4952  gameHistory[gameHistory.length - 1] */\n      dup2\n      sload\n      dup2\n      lt\n      tag_188\n      jumpi\n      tag_188\n      tag_43\n      jump\t// in\n    tag_188:\n      swap1\n      0x00\n      mstore\n      keccak256(0x00, 0x20)\n      swap1\n      0x05\n      mul\n      add\n        /* \"Practical3-Use-UI_Plya-Jason.sol\":4917:4958  gameHistory[gameHistory.length - 1].user2 */\n      0x02\n      add\n        /* \"Practical3-Use-UI_Plya-Jason.sol\":4917:4969  gameHistory[gameHistory.length - 1].user2.userOption */\n      0x01\n      add\n      sload\n        /* \"Practical3-Use-UI_Plya-Jason.sol\":4973:4974  3 */\n      0x03\n        /* \"Practical3-Use-UI_Plya-Jason.sol\":4917:4974  gameHistory[gameHistory.length - 1].user2.userOption == 3 */\n      eq\n        /* \"Practical3-Use-UI_Plya-Jason.sol\":4856:4974  gameHistory[gameHistory.length - 1].user1.userOption == 2 && gameHistory[gameHistory.length - 1].user2.userOption == 3 */\n    tag_185:\n        /* \"Practical3-Use-UI_Plya-Jason.sol\":4551:5283  if (... */\n      iszero\n      tag_190\n      jumpi\n        /* \"Practical3-Use-UI_Plya-Jason.sol\":5010:5071  gameHistory[gameHistory.length - 1].finalResult = \"User2 win\" */\n      0x40\n      dup1\n      mload\n      dup1\n      dup3\n      add\n      swap1\n      swap2\n      mstore\n      0x09\n      dup2\n      mstore\n      shl(0xb9, 0x2ab9b2b919103bb4b7)\n      0x20\n      dup3\n      add\n      mstore\n        /* \"Practical3-Use-UI_Plya-Jason.sol\":5010:5021  gameHistory */\n      0x01\n        /* \"Practical3-Use-UI_Plya-Jason.sol\":5022:5040  gameHistory.length */\n      dup1\n      sload\n        /* \"Practical3-Use-UI_Plya-Jason.sol\":5022:5044  gameHistory.length - 1 */\n      tag_191\n      swap1\n        /* \"Practical3-Use-UI_Plya-Jason.sol\":5010:5021  gameHistory */\n      dup3\n      swap1\n        /* \"Practical3-Use-UI_Plya-Jason.sol\":5022:5044  gameHistory.length - 1 */\n      tag_40\n      jump\t// in\n    tag_191:\n        /* \"Practical3-Use-UI_Plya-Jason.sol\":5010:5045  gameHistory[gameHistory.length - 1] */\n      dup2\n      sload\n      dup2\n      lt\n      tag_193\n      jumpi\n      tag_193\n      tag_43\n      jump\t// in\n    tag_193:\n      swap1\n      0x00\n      mstore\n      keccak256(0x00, 0x20)\n      swap1\n      0x05\n      mul\n      add\n        /* \"Practical3-Use-UI_Plya-Jason.sol\":5010:5057  gameHistory[gameHistory.length - 1].finalResult */\n      0x04\n      add\n        /* \"Practical3-Use-UI_Plya-Jason.sol\":5010:5071  gameHistory[gameHistory.length - 1].finalResult = \"User2 win\" */\n      swap1\n      dup2\n      tag_195\n      swap2\n      swap1\n      tag_87\n      jump\t// in\n    tag_195:\n      pop\n        /* \"Practical3-Use-UI_Plya-Jason.sol\":5095:5118  showResult(\"User2 win\") */\n      0xcde5c32c0a45fd8aa4b65ea8003fc9da9acd5e2c6c24a9fcce6ab79cabbd9122\n      mload(0x40)\n      tag_158\n      swap1\n        /* \"#utility.yul\":8226:8228   */\n      0x20\n        /* \"#utility.yul\":8208:8229   */\n      dup1\n      dup3\n      mstore\n        /* \"#utility.yul\":8265:8266   */\n      0x09\n        /* \"#utility.yul\":8245:8263   */\n      swap1\n      dup3\n      add\n        /* \"#utility.yul\":8238:8267   */\n      mstore\n      shl(0xb9, 0x2ab9b2b919103bb4b7)\n        /* \"#utility.yul\":8298:8300   */\n      0x40\n        /* \"#utility.yul\":8283:8301   */\n      dup3\n      add\n        /* \"#utility.yul\":8276:8315   */\n      mstore\n        /* \"#utility.yul\":8347:8349   */\n      0x60\n        /* \"#utility.yul\":8332:8350   */\n      add\n      swap1\n        /* \"#utility.yul\":8024:8356   */\n      jump\n        /* \"Practical3-Use-UI_Plya-Jason.sol\":4551:5283  if (... */\n    tag_190:\n        /* \"Practical3-Use-UI_Plya-Jason.sol\":5159:5220  gameHistory[gameHistory.length - 1].finalResult = \"User1 win\" */\n      0x40\n      dup1\n      mload\n      dup1\n      dup3\n      add\n      swap1\n      swap2\n      mstore\n      0x09\n      dup2\n      mstore\n      shl(0xb9, 0x2ab9b2b918903bb4b7)\n      0x20\n      dup3\n      add\n      mstore\n        /* \"Practical3-Use-UI_Plya-Jason.sol\":5159:5170  gameHistory */\n      0x01\n        /* \"Practical3-Use-UI_Plya-Jason.sol\":5171:5189  gameHistory.length */\n      dup1\n      sload\n        /* \"Practical3-Use-UI_Plya-Jason.sol\":5171:5193  gameHistory.length - 1 */\n      tag_199\n      swap1\n        /* \"Practical3-Use-UI_Plya-Jason.sol\":5159:5170  gameHistory */\n      dup3\n      swap1\n        /* \"Practical3-Use-UI_Plya-Jason.sol\":5171:5193  gameHistory.length - 1 */\n      tag_40\n      jump\t// in\n    tag_199:\n        /* \"Practical3-Use-UI_Plya-Jason.sol\":5159:5194  gameHistory[gameHistory.length - 1] */\n      dup2\n      sload\n      dup2\n      lt\n      tag_201\n      jumpi\n      tag_201\n      tag_43\n      jump\t// in\n    tag_201:\n      swap1\n      0x00\n      mstore\n      keccak256(0x00, 0x20)\n      swap1\n      0x05\n      mul\n      add\n        /* \"Practical3-Use-UI_Plya-Jason.sol\":5159:5206  gameHistory[gameHistory.length - 1].finalResult */\n      0x04\n      add\n        /* \"Practical3-Use-UI_Plya-Jason.sol\":5159:5220  gameHistory[gameHistory.length - 1].finalResult = \"User1 win\" */\n      swap1\n      dup2\n      tag_203\n      swap2\n      swap1\n      tag_87\n      jump\t// in\n    tag_203:\n      pop\n        /* \"Practical3-Use-UI_Plya-Jason.sol\":5244:5267  showResult(\"User1 win\") */\n      0xcde5c32c0a45fd8aa4b65ea8003fc9da9acd5e2c6c24a9fcce6ab79cabbd9122\n      mload(0x40)\n      tag_158\n      swap1\n        /* \"#utility.yul\":8563:8565   */\n      0x20\n        /* \"#utility.yul\":8545:8566   */\n      dup1\n      dup3\n      mstore\n        /* \"#utility.yul\":8602:8603   */\n      0x09\n        /* \"#utility.yul\":8582:8600   */\n      swap1\n      dup3\n      add\n        /* \"#utility.yul\":8575:8604   */\n      mstore\n      shl(0xb9, 0x2ab9b2b918903bb4b7)\n        /* \"#utility.yul\":8635:8637   */\n      0x40\n        /* \"#utility.yul\":8620:8638   */\n      dup3\n      add\n        /* \"#utility.yul\":8613:8652   */\n      mstore\n        /* \"#utility.yul\":8684:8686   */\n      0x60\n        /* \"#utility.yul\":8669:8687   */\n      add\n      swap1\n        /* \"#utility.yul\":8361:8693   */\n      jump\n    tag_84:\n      0x40\n      dup1\n      mload\n      0xa0\n      dup2\n      add\n      swap1\n      swap2\n      mstore\n      0x00\n      0x60\n      dup3\n      add\n      dup2\n      dup2\n      mstore\n      0x80\n      dup4\n      add\n      swap2\n      swap1\n      swap2\n      mstore\n      dup2\n      swap1\n      dup2\n      mstore\n      0x20\n      add\n      tag_207\n      0x40\n      dup1\n      mload\n      dup1\n      dup3\n      add\n      swap1\n      swap2\n      mstore\n      0x00\n      dup1\n      dup3\n      mstore\n      0x20\n      dup3\n      add\n      mstore\n      swap1\n      jump\n    tag_207:\n      dup2\n      mstore\n      0x20\n      add\n      0x60\n      dup2\n      mstore\n      pop\n      swap1\n      jump\t// out\n        /* \"#utility.yul\":14:194   */\n    tag_13:\n        /* \"#utility.yul\":73:79   */\n      0x00\n        /* \"#utility.yul\":126:128   */\n      0x20\n        /* \"#utility.yul\":114:123   */\n      dup3\n        /* \"#utility.yul\":105:112   */\n      dup5\n        /* \"#utility.yul\":101:124   */\n      sub\n        /* \"#utility.yul\":97:129   */\n      slt\n        /* \"#utility.yul\":94:146   */\n      iszero\n      tag_217\n      jumpi\n        /* \"#utility.yul\":142:143   */\n      0x00\n        /* \"#utility.yul\":139:140   */\n      dup1\n        /* \"#utility.yul\":132:144   */\n      revert\n        /* \"#utility.yul\":94:146   */\n    tag_217:\n      pop\n        /* \"#utility.yul\":165:188   */\n      calldataload\n      swap2\n        /* \"#utility.yul\":14:194   */\n      swap1\n      pop\n      jump\t// out\n        /* \"#utility.yul\":587:1301   */\n    tag_209:\n        /* \"#utility.yul\":656:701   */\n      tag_221\n        /* \"#utility.yul\":697:700   */\n      dup3\n        /* \"#utility.yul\":689:694   */\n      dup3\n        /* \"#utility.yul\":683:695   */\n      mload\n        /* \"#utility.yul\":485:497   */\n      dup1\n      mload\n      sub(shl(0xa0, 0x01), 0x01)\n        /* \"#utility.yul\":481:519   */\n      and\n        /* \"#utility.yul\":469:520   */\n      dup3\n      mstore\n        /* \"#utility.yul\":569:573   */\n      0x20\n        /* \"#utility.yul\":558:574   */\n      swap1\n      dup2\n      add\n        /* \"#utility.yul\":552:575   */\n      mload\n        /* \"#utility.yul\":536:550   */\n      swap2\n      add\n        /* \"#utility.yul\":529:576   */\n      mstore\n        /* \"#utility.yul\":407:582   */\n      jump\n        /* \"#utility.yul\":656:701   */\n    tag_221:\n        /* \"#utility.yul\":638:641   */\n      0x00\n        /* \"#utility.yul\":720:724   */\n      0x20\n        /* \"#utility.yul\":770:772   */\n      dup1\n        /* \"#utility.yul\":763:768   */\n      dup4\n        /* \"#utility.yul\":759:773   */\n      add\n        /* \"#utility.yul\":753:774   */\n      mload\n        /* \"#utility.yul\":783:839   */\n      tag_222\n        /* \"#utility.yul\":833:837   */\n      0x40\n        /* \"#utility.yul\":828:831   */\n      dup7\n        /* \"#utility.yul\":824:838   */\n      add\n        /* \"#utility.yul\":810:822   */\n      dup3\n        /* \"#utility.yul\":485:497   */\n      dup1\n      mload\n      sub(shl(0xa0, 0x01), 0x01)\n        /* \"#utility.yul\":481:519   */\n      and\n        /* \"#utility.yul\":469:520   */\n      dup3\n      mstore\n        /* \"#utility.yul\":569:573   */\n      0x20\n        /* \"#utility.yul\":558:574   */\n      swap1\n      dup2\n      add\n        /* \"#utility.yul\":552:575   */\n      mload\n        /* \"#utility.yul\":536:550   */\n      swap2\n      add\n        /* \"#utility.yul\":529:576   */\n      mstore\n        /* \"#utility.yul\":407:582   */\n      jump\n        /* \"#utility.yul\":783:839   */\n    tag_222:\n      pop\n        /* \"#utility.yul\":887:891   */\n      0x40\n        /* \"#utility.yul\":880:885   */\n      dup4\n        /* \"#utility.yul\":876:892   */\n      add\n        /* \"#utility.yul\":870:893   */\n      mload\n        /* \"#utility.yul\":925:929   */\n      0xa0\n        /* \"#utility.yul\":918:922   */\n      0x80\n        /* \"#utility.yul\":913:916   */\n      dup7\n        /* \"#utility.yul\":909:923   */\n      add\n        /* \"#utility.yul\":902:930   */\n      mstore\n        /* \"#utility.yul\":959:973   */\n      dup1\n        /* \"#utility.yul\":953:974   */\n      mload\n        /* \"#utility.yul\":1006:1012   */\n      dup1\n        /* \"#utility.yul\":999:1003   */\n      0xa0\n        /* \"#utility.yul\":994:997   */\n      dup8\n        /* \"#utility.yul\":990:1004   */\n      add\n        /* \"#utility.yul\":983:1013   */\n      mstore\n        /* \"#utility.yul\":1031:1032   */\n      0x00\n        /* \"#utility.yul\":1041:1184   */\n    tag_223:\n        /* \"#utility.yul\":1055:1061   */\n      dup2\n        /* \"#utility.yul\":1052:1053   */\n      dup2\n        /* \"#utility.yul\":1049:1062   */\n      lt\n        /* \"#utility.yul\":1041:1184   */\n      iszero\n      tag_225\n      jumpi\n        /* \"#utility.yul\":1145:1167   */\n      dup3\n      dup2\n      add\n        /* \"#utility.yul\":1141:1172   */\n      dup5\n      add\n        /* \"#utility.yul\":1135:1173   */\n      mload\n        /* \"#utility.yul\":1116:1127   */\n      dup8\n      dup3\n      add\n        /* \"#utility.yul\":1129:1132   */\n      0xc0\n        /* \"#utility.yul\":1112:1133   */\n      add\n        /* \"#utility.yul\":1105:1174   */\n      mstore\n        /* \"#utility.yul\":1070:1080   */\n      dup4\n      add\n        /* \"#utility.yul\":1041:1184   */\n      jump(tag_223)\n    tag_225:\n        /* \"#utility.yul\":1045:1048   */\n      pop\n        /* \"#utility.yul\":1228:1229   */\n      0x00\n        /* \"#utility.yul\":1222:1225   */\n      0xc0\n        /* \"#utility.yul\":1213:1219   */\n      dup3\n        /* \"#utility.yul\":1208:1211   */\n      dup9\n        /* \"#utility.yul\":1204:1220   */\n      add\n        /* \"#utility.yul\":1200:1226   */\n      add\n        /* \"#utility.yul\":1193:1230   */\n      mstore\n        /* \"#utility.yul\":1291:1294   */\n      0xc0\n        /* \"#utility.yul\":1284:1286   */\n      0x1f\n        /* \"#utility.yul\":1280:1287   */\n      not\n        /* \"#utility.yul\":1275:1277   */\n      0x1f\n        /* \"#utility.yul\":1267:1273   */\n      dup4\n        /* \"#utility.yul\":1263:1278   */\n      add\n        /* \"#utility.yul\":1259:1288   */\n      and\n        /* \"#utility.yul\":1254:1257   */\n      dup8\n        /* \"#utility.yul\":1250:1289   */\n      add\n        /* \"#utility.yul\":1246:1295   */\n      add\n        /* \"#utility.yul\":1239:1295   */\n      swap4\n      pop\n      pop\n      pop\n      pop\n        /* \"#utility.yul\":587:1301   */\n      swap3\n      swap2\n      pop\n      pop\n      jump\t// out\n        /* \"#utility.yul\":1306:2146   */\n    tag_22:\n        /* \"#utility.yul\":1496:1500   */\n      0x00\n        /* \"#utility.yul\":1525:1527   */\n      0x20\n        /* \"#utility.yul\":1565:1567   */\n      dup1\n        /* \"#utility.yul\":1554:1563   */\n      dup4\n        /* \"#utility.yul\":1550:1568   */\n      add\n        /* \"#utility.yul\":1595:1597   */\n      dup2\n        /* \"#utility.yul\":1584:1593   */\n      dup5\n        /* \"#utility.yul\":1577:1598   */\n      mstore\n        /* \"#utility.yul\":1618:1624   */\n      dup1\n        /* \"#utility.yul\":1653:1659   */\n      dup6\n        /* \"#utility.yul\":1647:1660   */\n      mload\n        /* \"#utility.yul\":1684:1690   */\n      dup1\n        /* \"#utility.yul\":1676:1682   */\n      dup4\n        /* \"#utility.yul\":1669:1691   */\n      mstore\n        /* \"#utility.yul\":1722:1724   */\n      0x40\n        /* \"#utility.yul\":1711:1720   */\n      dup7\n        /* \"#utility.yul\":1707:1725   */\n      add\n        /* \"#utility.yul\":1700:1725   */\n      swap2\n      pop\n        /* \"#utility.yul\":1784:1786   */\n      0x40\n        /* \"#utility.yul\":1774:1780   */\n      dup2\n        /* \"#utility.yul\":1771:1772   */\n      0x05\n        /* \"#utility.yul\":1767:1781   */\n      shl\n        /* \"#utility.yul\":1756:1765   */\n      dup8\n        /* \"#utility.yul\":1752:1782   */\n      add\n        /* \"#utility.yul\":1748:1787   */\n      add\n        /* \"#utility.yul\":1734:1787   */\n      swap3\n      pop\n        /* \"#utility.yul\":1822:1824   */\n      dup4\n        /* \"#utility.yul\":1814:1820   */\n      dup8\n        /* \"#utility.yul\":1810:1825   */\n      add\n        /* \"#utility.yul\":1843:1844   */\n      0x00\n        /* \"#utility.yul\":1853:2117   */\n    tag_227:\n        /* \"#utility.yul\":1867:1873   */\n      dup3\n        /* \"#utility.yul\":1864:1865   */\n      dup2\n        /* \"#utility.yul\":1861:1874   */\n      lt\n        /* \"#utility.yul\":1853:2117   */\n      iszero\n      tag_229\n      jumpi\n        /* \"#utility.yul\":1960:1962   */\n      0x3f\n        /* \"#utility.yul\":1956:1963   */\n      not\n        /* \"#utility.yul\":1944:1953   */\n      dup9\n        /* \"#utility.yul\":1936:1942   */\n      dup7\n        /* \"#utility.yul\":1932:1954   */\n      sub\n        /* \"#utility.yul\":1928:1964   */\n      add\n        /* \"#utility.yul\":1923:1926   */\n      dup5\n        /* \"#utility.yul\":1916:1965   */\n      mstore\n        /* \"#utility.yul\":1988:2037   */\n      tag_230\n        /* \"#utility.yul\":2030:2036   */\n      dup6\n        /* \"#utility.yul\":2021:2027   */\n      dup4\n        /* \"#utility.yul\":2015:2028   */\n      mload\n        /* \"#utility.yul\":1988:2037   */\n      tag_209\n      jump\t// in\n    tag_230:\n        /* \"#utility.yul\":1978:2037   */\n      swap5\n      pop\n        /* \"#utility.yul\":2095:2107   */\n      swap3\n      dup6\n      add\n      swap3\n        /* \"#utility.yul\":2060:2075   */\n      swap1\n      dup6\n      add\n      swap1\n        /* \"#utility.yul\":1889:1890   */\n      0x01\n        /* \"#utility.yul\":1882:1891   */\n      add\n        /* \"#utility.yul\":1853:2117   */\n      jump(tag_227)\n    tag_229:\n      pop\n        /* \"#utility.yul\":2134:2140   */\n      swap3\n      swap8\n        /* \"#utility.yul\":1306:2146   */\n      swap7\n      pop\n      pop\n      pop\n      pop\n      pop\n      pop\n      pop\n      jump\t// out\n        /* \"#utility.yul\":2151:2394   */\n    tag_32:\n        /* \"#utility.yul\":485:497   */\n      dup2\n      mload\n      sub(shl(0xa0, 0x01), 0x01)\n        /* \"#utility.yul\":481:519   */\n      and\n        /* \"#utility.yul\":469:520   */\n      dup2\n      mstore\n        /* \"#utility.yul\":569:573   */\n      0x20\n        /* \"#utility.yul\":558:574   */\n      dup1\n      dup4\n      add\n        /* \"#utility.yul\":552:575   */\n      mload\n        /* \"#utility.yul\":536:550   */\n      swap1\n      dup3\n      add\n        /* \"#utility.yul\":529:576   */\n      mstore\n        /* \"#utility.yul\":2331:2333   */\n      0x40\n        /* \"#utility.yul\":2316:2334   */\n      dup2\n      add\n        /* \"#utility.yul\":2343:2388   */\n    tag_232:\n        /* \"#utility.yul\":2151:2394   */\n      swap3\n      swap2\n      pop\n      pop\n      jump\t// out\n        /* \"#utility.yul\":2399:2656   */\n    tag_37:\n        /* \"#utility.yul\":2576:2578   */\n      0x20\n        /* \"#utility.yul\":2565:2574   */\n      dup2\n        /* \"#utility.yul\":2558:2579   */\n      mstore\n        /* \"#utility.yul\":2539:2543   */\n      0x00\n        /* \"#utility.yul\":2596:2650   */\n      tag_234\n        /* \"#utility.yul\":2646:2648   */\n      0x20\n        /* \"#utility.yul\":2635:2644   */\n      dup4\n        /* \"#utility.yul\":2631:2649   */\n      add\n        /* \"#utility.yul\":2623:2629   */\n      dup5\n        /* \"#utility.yul\":2596:2650   */\n      tag_209\n      jump\t// in\n    tag_234:\n        /* \"#utility.yul\":2588:2650   */\n      swap4\n        /* \"#utility.yul\":2399:2656   */\n      swap3\n      pop\n      pop\n      pop\n      jump\t// out\n        /* \"#utility.yul\":2661:2788   */\n    tag_210:\n        /* \"#utility.yul\":2722:2732   */\n      0x4e487b71\n        /* \"#utility.yul\":2717:2720   */\n      0xe0\n        /* \"#utility.yul\":2713:2733   */\n      shl\n        /* \"#utility.yul\":2710:2711   */\n      0x00\n        /* \"#utility.yul\":2703:2734   */\n      mstore\n        /* \"#utility.yul\":2753:2757   */\n      0x11\n        /* \"#utility.yul\":2750:2751   */\n      0x04\n        /* \"#utility.yul\":2743:2758   */\n      mstore\n        /* \"#utility.yul\":2777:2781   */\n      0x24\n        /* \"#utility.yul\":2774:2775   */\n      0x00\n        /* \"#utility.yul\":2767:2782   */\n      revert\n        /* \"#utility.yul\":2793:2921   */\n    tag_40:\n        /* \"#utility.yul\":2860:2869   */\n      dup2\n      dup2\n      sub\n        /* \"#utility.yul\":2881:2892   */\n      dup2\n      dup2\n      gt\n        /* \"#utility.yul\":2878:2915   */\n      iszero\n      tag_232\n      jumpi\n        /* \"#utility.yul\":2895:2913   */\n      tag_232\n      tag_210\n      jump\t// in\n        /* \"#utility.yul\":2926:3053   */\n    tag_43:\n        /* \"#utility.yul\":2987:2997   */\n      0x4e487b71\n        /* \"#utility.yul\":2982:2985   */\n      0xe0\n        /* \"#utility.yul\":2978:2998   */\n      shl\n        /* \"#utility.yul\":2975:2976   */\n      0x00\n        /* \"#utility.yul\":2968:2999   */\n      mstore\n        /* \"#utility.yul\":3018:3022   */\n      0x32\n        /* \"#utility.yul\":3015:3016   */\n      0x04\n        /* \"#utility.yul\":3008:3023   */\n      mstore\n        /* \"#utility.yul\":3042:3046   */\n      0x24\n        /* \"#utility.yul\":3039:3040   */\n      0x00\n        /* \"#utility.yul\":3032:3047   */\n      revert\n        /* \"#utility.yul\":3058:3438   */\n    tag_72:\n        /* \"#utility.yul\":3137:3138   */\n      0x01\n        /* \"#utility.yul\":3133:3145   */\n      dup2\n      dup2\n      shr\n      swap1\n        /* \"#utility.yul\":3180:3192   */\n      dup3\n      and\n      dup1\n        /* \"#utility.yul\":3201:3262   */\n      tag_241\n      jumpi\n        /* \"#utility.yul\":3255:3259   */\n      0x7f\n        /* \"#utility.yul\":3247:3253   */\n      dup3\n        /* \"#utility.yul\":3243:3260   */\n      and\n        /* \"#utility.yul\":3233:3260   */\n      swap2\n      pop\n        /* \"#utility.yul\":3201:3262   */\n    tag_241:\n        /* \"#utility.yul\":3308:3310   */\n      0x20\n        /* \"#utility.yul\":3300:3306   */\n      dup3\n        /* \"#utility.yul\":3297:3311   */\n      lt\n        /* \"#utility.yul\":3277:3295   */\n      dup2\n        /* \"#utility.yul\":3274:3312   */\n      sub\n        /* \"#utility.yul\":3271:3432   */\n      tag_242\n      jumpi\n        /* \"#utility.yul\":3354:3364   */\n      0x4e487b71\n        /* \"#utility.yul\":3349:3352   */\n      0xe0\n        /* \"#utility.yul\":3345:3365   */\n      shl\n        /* \"#utility.yul\":3342:3343   */\n      0x00\n        /* \"#utility.yul\":3335:3366   */\n      mstore\n        /* \"#utility.yul\":3389:3393   */\n      0x22\n        /* \"#utility.yul\":3386:3387   */\n      0x04\n        /* \"#utility.yul\":3379:3394   */\n      mstore\n        /* \"#utility.yul\":3417:3421   */\n      0x24\n        /* \"#utility.yul\":3414:3415   */\n      0x00\n        /* \"#utility.yul\":3407:3422   */\n      revert\n        /* \"#utility.yul\":3271:3432   */\n    tag_242:\n      pop\n        /* \"#utility.yul\":3058:3438   */\n      swap2\n      swap1\n      pop\n      jump\t// out\n        /* \"#utility.yul\":3793:3920   */\n    tag_211:\n        /* \"#utility.yul\":3854:3864   */\n      0x4e487b71\n        /* \"#utility.yul\":3849:3852   */\n      0xe0\n        /* \"#utility.yul\":3845:3865   */\n      shl\n        /* \"#utility.yul\":3842:3843   */\n      0x00\n        /* \"#utility.yul\":3835:3866   */\n      mstore\n        /* \"#utility.yul\":3885:3889   */\n      0x41\n        /* \"#utility.yul\":3882:3883   */\n      0x04\n        /* \"#utility.yul\":3875:3890   */\n      mstore\n        /* \"#utility.yul\":3909:3913   */\n      0x24\n        /* \"#utility.yul\":3906:3907   */\n      0x00\n        /* \"#utility.yul\":3899:3914   */\n      revert\n        /* \"#utility.yul\":4051:4596   */\n    tag_213:\n        /* \"#utility.yul\":4153:4155   */\n      0x1f\n        /* \"#utility.yul\":4148:4151   */\n      dup3\n        /* \"#utility.yul\":4145:4156   */\n      gt\n        /* \"#utility.yul\":4142:4590   */\n      iszero\n      tag_247\n      jumpi\n        /* \"#utility.yul\":4189:4190   */\n      0x00\n        /* \"#utility.yul\":4214:4219   */\n      dup2\n        /* \"#utility.yul\":4210:4212   */\n      dup2\n        /* \"#utility.yul\":4203:4220   */\n      mstore\n        /* \"#utility.yul\":4259:4263   */\n      0x20\n        /* \"#utility.yul\":4255:4257   */\n      dup2\n        /* \"#utility.yul\":4245:4264   */\n      keccak256\n        /* \"#utility.yul\":4329:4331   */\n      0x1f\n        /* \"#utility.yul\":4317:4327   */\n      dup6\n        /* \"#utility.yul\":4313:4332   */\n      add\n        /* \"#utility.yul\":4310:4311   */\n      0x05\n        /* \"#utility.yul\":4306:4333   */\n      shr\n        /* \"#utility.yul\":4300:4304   */\n      dup2\n        /* \"#utility.yul\":4296:4334   */\n      add\n        /* \"#utility.yul\":4365:4369   */\n      0x20\n        /* \"#utility.yul\":4353:4363   */\n      dup7\n        /* \"#utility.yul\":4350:4370   */\n      lt\n        /* \"#utility.yul\":4347:4394   */\n      iszero\n      tag_248\n      jumpi\n      pop\n        /* \"#utility.yul\":4388:4392   */\n      dup1\n        /* \"#utility.yul\":4347:4394   */\n    tag_248:\n        /* \"#utility.yul\":4443:4445   */\n      0x1f\n        /* \"#utility.yul\":4438:4441   */\n      dup6\n        /* \"#utility.yul\":4434:4446   */\n      add\n        /* \"#utility.yul\":4431:4432   */\n      0x05\n        /* \"#utility.yul\":4427:4447   */\n      shr\n        /* \"#utility.yul\":4421:4425   */\n      dup3\n        /* \"#utility.yul\":4417:4448   */\n      add\n        /* \"#utility.yul\":4407:4448   */\n      swap2\n      pop\n        /* \"#utility.yul\":4498:4580   */\n    tag_249:\n        /* \"#utility.yul\":4516:4518   */\n      dup2\n        /* \"#utility.yul\":4509:4514   */\n      dup2\n        /* \"#utility.yul\":4506:4519   */\n      lt\n        /* \"#utility.yul\":4498:4580   */\n      iszero\n      tag_251\n      jumpi\n        /* \"#utility.yul\":4561:4578   */\n      dup3\n      dup2\n      sstore\n        /* \"#utility.yul\":4542:4543   */\n      0x01\n        /* \"#utility.yul\":4531:4544   */\n      add\n        /* \"#utility.yul\":4498:4580   */\n      jump(tag_249)\n    tag_251:\n        /* \"#utility.yul\":4502:4505   */\n      pop\n      pop\n      pop\n        /* \"#utility.yul\":4142:4590   */\n    tag_247:\n        /* \"#utility.yul\":4051:4596   */\n      pop\n      pop\n      pop\n      jump\t// out\n        /* \"#utility.yul\":4772:6124   */\n    tag_87:\n        /* \"#utility.yul\":4898:4901   */\n      dup2\n        /* \"#utility.yul\":4892:4902   */\n      mload\n        /* \"#utility.yul\":4925:4943   */\n      0xffffffffffffffff\n        /* \"#utility.yul\":4917:4923   */\n      dup2\n        /* \"#utility.yul\":4914:4944   */\n      gt\n        /* \"#utility.yul\":4911:4967   */\n      iszero\n      tag_255\n      jumpi\n        /* \"#utility.yul\":4947:4965   */\n      tag_255\n      tag_211\n      jump\t// in\n    tag_255:\n        /* \"#utility.yul\":4976:5073   */\n      tag_256\n        /* \"#utility.yul\":5066:5072   */\n      dup2\n        /* \"#utility.yul\":5026:5064   */\n      tag_257\n        /* \"#utility.yul\":5058:5062   */\n      dup5\n        /* \"#utility.yul\":5052:5063   */\n      sload\n        /* \"#utility.yul\":5026:5064   */\n      tag_72\n      jump\t// in\n    tag_257:\n        /* \"#utility.yul\":5020:5024   */\n      dup5\n        /* \"#utility.yul\":4976:5073   */\n      tag_213\n      jump\t// in\n    tag_256:\n        /* \"#utility.yul\":5128:5132   */\n      0x20\n      dup1\n        /* \"#utility.yul\":5192:5194   */\n      0x1f\n        /* \"#utility.yul\":5181:5195   */\n      dup4\n      gt\n        /* \"#utility.yul\":5209:5210   */\n      0x01\n        /* \"#utility.yul\":5204:5867   */\n      dup2\n      eq\n      tag_259\n      jumpi\n        /* \"#utility.yul\":5911:5912   */\n      0x00\n        /* \"#utility.yul\":5928:5934   */\n      dup5\n        /* \"#utility.yul\":5925:6014   */\n      iszero\n      tag_260\n      jumpi\n      pop\n        /* \"#utility.yul\":5980:5999   */\n      dup6\n      dup4\n      add\n        /* \"#utility.yul\":5974:6000   */\n      mload\n        /* \"#utility.yul\":5925:6014   */\n    tag_260:\n      not(0x00)\n        /* \"#utility.yul\":4729:4730   */\n      0x03\n        /* \"#utility.yul\":4725:4736   */\n      dup7\n      swap1\n      shl\n        /* \"#utility.yul\":4721:4745   */\n      shr\n        /* \"#utility.yul\":4717:4746   */\n      not\n        /* \"#utility.yul\":4707:4747   */\n      and\n        /* \"#utility.yul\":4753:4754   */\n      0x01\n        /* \"#utility.yul\":4749:4760   */\n      dup6\n      swap1\n      shl\n        /* \"#utility.yul\":4704:4761   */\n      or\n        /* \"#utility.yul\":6027:6108   */\n      dup6\n      sstore\n        /* \"#utility.yul\":5174:6118   */\n      jump(tag_251)\n        /* \"#utility.yul\":5204:5867   */\n    tag_259:\n        /* \"#utility.yul\":3998:3999   */\n      0x00\n        /* \"#utility.yul\":3991:4005   */\n      dup6\n      dup2\n      mstore\n        /* \"#utility.yul\":4035:4039   */\n      0x20\n        /* \"#utility.yul\":4022:4040   */\n      dup2\n      keccak256\n      not(0x1f)\n        /* \"#utility.yul\":5240:5260   */\n      dup7\n      and\n      swap2\n        /* \"#utility.yul\":5358:5594   */\n    tag_263:\n        /* \"#utility.yul\":5372:5379   */\n      dup3\n        /* \"#utility.yul\":5369:5370   */\n      dup2\n        /* \"#utility.yul\":5366:5380   */\n      lt\n        /* \"#utility.yul\":5358:5594   */\n      iszero\n      tag_265\n      jumpi\n        /* \"#utility.yul\":5461:5480   */\n      dup9\n      dup7\n      add\n        /* \"#utility.yul\":5455:5481   */\n      mload\n        /* \"#utility.yul\":5440:5482   */\n      dup3\n      sstore\n        /* \"#utility.yul\":5553:5580   */\n      swap5\n      dup5\n      add\n      swap5\n        /* \"#utility.yul\":5521:5522   */\n      0x01\n        /* \"#utility.yul\":5509:5523   */\n      swap1\n      swap2\n      add\n      swap1\n        /* \"#utility.yul\":5388:5407   */\n      dup5\n      add\n        /* \"#utility.yul\":5358:5594   */\n      jump(tag_263)\n    tag_265:\n        /* \"#utility.yul\":5362:5365   */\n      pop\n        /* \"#utility.yul\":5622:5628   */\n      dup6\n        /* \"#utility.yul\":5613:5620   */\n      dup3\n        /* \"#utility.yul\":5610:5629   */\n      lt\n        /* \"#utility.yul\":5607:5808   */\n      iszero\n      tag_266\n      jumpi\n        /* \"#utility.yul\":5683:5702   */\n      dup8\n      dup6\n      add\n        /* \"#utility.yul\":5677:5703   */\n      mload\n      not(0x00)\n        /* \"#utility.yul\":5766:5767   */\n      0x03\n        /* \"#utility.yul\":5762:5776   */\n      dup9\n      swap1\n      shl\n        /* \"#utility.yul\":5778:5781   */\n      0xf8\n        /* \"#utility.yul\":5758:5782   */\n      and\n        /* \"#utility.yul\":5754:5791   */\n      shr\n        /* \"#utility.yul\":5750:5792   */\n      not\n        /* \"#utility.yul\":5735:5793   */\n      and\n        /* \"#utility.yul\":5720:5794   */\n      dup2\n      sstore\n        /* \"#utility.yul\":5607:5808   */\n    tag_266:\n      pop\n      pop\n      pop\n      pop\n      pop\n        /* \"#utility.yul\":5854:5855   */\n      0x01\n        /* \"#utility.yul\":5838:5852   */\n      swap1\n      dup2\n      shl\n        /* \"#utility.yul\":5834:5856   */\n      add\n        /* \"#utility.yul\":5821:5857   */\n      swap1\n      sstore\n      pop\n        /* \"#utility.yul\":4772:6124   */\n      jump\t// out\n        /* \"#utility.yul\":6129:6264   */\n    tag_93:\n        /* \"#utility.yul\":6168:6171   */\n      0x00\n        /* \"#utility.yul\":6189:6206   */\n      0x01\n      dup3\n      add\n        /* \"#utility.yul\":6186:6229   */\n      tag_269\n      jumpi\n        /* \"#utility.yul\":6209:6227   */\n      tag_269\n      tag_210\n      jump\t// in\n    tag_269:\n      pop\n        /* \"#utility.yul\":6256:6257   */\n      0x01\n        /* \"#utility.yul\":6245:6258   */\n      add\n      swap1\n        /* \"#utility.yul\":6129:6264   */\n      jump\t// out\n\n    auxdata: 0xa26469706673582212207a570ee3c8cb61407e73245b07eaef98ea43dada334b52d01d6f90804a8fa9ce64736f6c63430008130033\n}\n",
				"bytecode": {
					"linkReferences": {},
					"object": "60806040526000805534801561001457600080fd5b5061114e806100246000396000f3fe608060405234801561001057600080fd5b506004361061007d5760003560e01c80636ef595d81161005b5780636ef595d8146100dc57806393e84cd9146100f4578063e417f4a3146100fc578063f7c4efbb1461011c57600080fd5b80632cde7869146100825780633d5e9d2d14610097578063512ec557146100c7575b600080fd5b610095610090366004610e0e565b61013c565b005b6003546100aa906001600160a01b031681565b6040516001600160a01b0390911681526020015b60405180910390f35b6100cf61027a565b6040516100be9190610ec3565b6002546100aa9061010090046001600160a01b031681565b6100956103b3565b61010f61010a366004610e0e565b610759565b6040516100be9190610f25565b61012f61012a366004610e0e565b610803565b6040516100be9190610f47565b6001805461014b908290610f77565b8154811061015b5761015b610f8a565b60009182526020909120600590910201546001600160a01b031633036101b6576001805482919061018d908290610f77565b8154811061019d5761019d610f8a565b60009182526020909120600160059092020101556101ed565b600180548291906101c8908290610f77565b815481106101d8576101d8610f8a565b60009182526020909120600360059092020101555b600180546101fc908290610f77565b8154811061020c5761020c610f8a565b90600052602060002090600502016000016001015460001415801561026557506001805461023b908290610f77565b8154811061024b5761024b610f8a565b906000526020600020906005020160020160010154600014155b15610277576102726109ed565b600080555b50565b60606001805480602002602001604051908101604052809291908181526020016000905b828210156103aa5760008481526020908190206040805160a0810182526005860290920180546001600160a01b03908116606085019081526001830154608086015284528251808401845260028301549091168152600382015481860152938301939093526004830180549293929184019161031990610fa0565b80601f016020809104026020016040519081016040528092919081815260200182805461034590610fa0565b80156103925780601f1061036757610100808354040283529160200191610392565b820191906000526020600020905b81548152906001019060200180831161037557829003601f168201915b5050505050815250508152602001906001019061029e565b50505050905090565b60025460ff16156104035760405162461bcd60e51b8152602060048201526015602482015274115c9c9bdc8e881499595b9d1c985b9d0818d85b1b605a1b60448201526064015b60405180910390fd5b6002805460ff191660011790556000805490036105a057610422610dc4565b600180548082018255600091909152815180517fb10e2d527612073b26eecdfd717e6a320cf44b4afac2b0732d9fcbe2b7fa0cf6600590930292830180546001600160a01b03199081166001600160a01b039384161782556020938401517fb10e2d527612073b26eecdfd717e6a320cf44b4afac2b0732d9fcbe2b7fa0cf78601558386015180517fb10e2d527612073b26eecdfd717e6a320cf44b4afac2b0732d9fcbe2b7fa0cf88701805490931694169390931790559101517fb10e2d527612073b26eecdfd717e6a320cf44b4afac2b0732d9fcbe2b7fa0cf9830155604083015183927fb10e2d527612073b26eecdfd717e6a320cf44b4afac2b0732d9fcbe2b7fa0cfa0190610535908261103f565b505060018054339250610549908290610f77565b8154811061055957610559610f8a565b6000918252602082206005919091020180546001600160a01b0319166001600160a01b03939093169290921790915580549080610595836110ff565b91905055505061074d565b600180546105af908290610f77565b815481106105bf576105bf610f8a565b60009182526020909120600590910201546001600160a01b031633036106335760405162461bcd60e51b8152602060048201526024808201527f4572726f723a20596f752063616e6e6f7420706c6179207769746820796f757260448201526339b2b63360e11b60648201526084016103fa565b60018054339190610645908290610f77565b8154811061065557610655610f8a565b6000918252602090912060059091020160020180546001600160a01b0319166001600160a01b0392909216919091179055600180547fdaa57ee2c04aee347b88819662fcdb8376824fb89a1f9b97a41edb933a3ba7a691906106b8908290610f77565b815481106106c8576106c8610f8a565b6000918252602090912060059091020154600180546001600160a01b03909216916106f4908290610f77565b8154811061070457610704610f8a565b600091825260209091206002600590920201015460405161074492916001600160a01b0316906001600160a01b0392831681529116602082015260400190565b60405180910390a15b6002805460ff19169055565b60408051808201909152600080825260208201526001548211156107b75760405162461bcd60e51b815260206004820152601560248201527408ae4e4dee4744092dcecc2d8d2c840d8cadccee8d605b1b60448201526064016103fa565b600182815481106107ca576107ca610f8a565b60009182526020918290206040805180820190915260059092020180546001600160a01b03168252600101549181019190915292915050565b61080b610dc4565b6001548211156108555760405162461bcd60e51b815260206004820152601560248201527408ae4e4dee4744092dcecc2d8d2c840d8cadccee8d605b1b60448201526064016103fa565b60006001600160a01b03166001838154811061087357610873610f8a565b60009182526020909120600260059092020101546001600160a01b0316036108dd5760405162461bcd60e51b815260206004820152601e60248201527f4572726f723a205468652067616d65206e6f742066696e69736820796574000060448201526064016103fa565b600182815481106108f0576108f0610f8a565b60009182526020918290206040805160a081018252600590930290910180546001600160a01b03908116606085019081526001830154608086015284528251808401845260028301549091168152600382015481860152938301939093526004830180549293929184019161096490610fa0565b80601f016020809104026020016040519081016040528092919081815260200182805461099090610fa0565b80156109dd5780601f106109b2576101008083540402835291602001916109dd565b820191906000526020600020905b8154815290600101906020018083116109c057829003601f168201915b5050505050815250509050919050565b600180546109fc908290610f77565b81548110610a0c57610a0c610f8a565b600091825260209091206003600590920201015460018054610a2f908290610f77565b81548110610a3f57610a3f610f8a565b90600052602060002090600502016000016001015403610b0157604080518082019091526004815263151a595960e21b602082015260018054610a83908290610f77565b81548110610a9357610a93610f8a565b90600052602060002090600502016004019081610ab0919061103f565b507fcde5c32c0a45fd8aa4b65ea8003fc9da9acd5e2c6c24a9fcce6ab79cabbd9122604051610af790602080825260049082015263151a595960e21b604082015260600190565b60405180910390a1565b60018054610b10908290610f77565b81548110610b2057610b20610f8a565b9060005260206000209060050201600001600101546001148015610b77575060018054610b4e908290610f77565b81548110610b5e57610b5e610f8a565b9060005260206000209060050201600201600101546002145b80610bf3575060018054610b8c908290610f77565b81548110610b9c57610b9c610f8a565b9060005260206000209060050201600001600101546003148015610bf3575060018054610bca908290610f77565b81548110610bda57610bda610f8a565b9060005260206000209060050201600201600101546001145b80610c6f575060018054610c08908290610f77565b81548110610c1857610c18610f8a565b9060005260206000209060050201600001600101546002148015610c6f575060018054610c46908290610f77565b81548110610c5657610c56610f8a565b9060005260206000209060050201600201600101546003145b15610d1c576040805180820190915260098152682ab9b2b919103bb4b760b91b602082015260018054610ca3908290610f77565b81548110610cb357610cb3610f8a565b90600052602060002090600502016004019081610cd0919061103f565b507fcde5c32c0a45fd8aa4b65ea8003fc9da9acd5e2c6c24a9fcce6ab79cabbd9122604051610af7906020808252600990820152682ab9b2b919103bb4b760b91b604082015260600190565b6040805180820190915260098152682ab9b2b918903bb4b760b91b602082015260018054610d4b908290610f77565b81548110610d5b57610d5b610f8a565b90600052602060002090600502016004019081610d78919061103f565b507fcde5c32c0a45fd8aa4b65ea8003fc9da9acd5e2c6c24a9fcce6ab79cabbd9122604051610af7906020808252600990820152682ab9b2b918903bb4b760b91b604082015260600190565b6040805160a08101909152600060608201818152608083019190915281908152602001610e01604080518082019091526000808252602082015290565b8152602001606081525090565b600060208284031215610e2057600080fd5b5035919050565b610e4582825180516001600160a01b03168252602090810151910152565b6000602080830151610e6d604086018280516001600160a01b03168252602090810151910152565b50604083015160a0608086015280518060a087015260005b81811015610ea15782810184015187820160c001528301610e85565b50600060c0828801015260c0601f19601f830116870101935050505092915050565b6000602080830181845280855180835260408601915060408160051b870101925083870160005b82811015610f1857603f19888603018452610f06858351610e27565b94509285019290850190600101610eea565b5092979650505050505050565b81516001600160a01b0316815260208083015190820152604081015b92915050565b602081526000610f5a6020830184610e27565b9392505050565b634e487b7160e01b600052601160045260246000fd5b81810381811115610f4157610f41610f61565b634e487b7160e01b600052603260045260246000fd5b600181811c90821680610fb457607f821691505b602082108103610fd457634e487b7160e01b600052602260045260246000fd5b50919050565b634e487b7160e01b600052604160045260246000fd5b601f82111561103a57600081815260208120601f850160051c810160208610156110175750805b601f850160051c820191505b8181101561103657828155600101611023565b5050505b505050565b815167ffffffffffffffff81111561105957611059610fda565b61106d816110678454610fa0565b84610ff0565b602080601f8311600181146110a2576000841561108a5750858301515b600019600386901b1c1916600185901b178555611036565b600085815260208120601f198616915b828110156110d1578886015182559484019460019091019084016110b2565b50858210156110ef5787850151600019600388901b60f8161c191681555b5050505050600190811b01905550565b60006001820161111157611111610f61565b506001019056fea26469706673582212207a570ee3c8cb61407e73245b07eaef98ea43dada334b52d01d6f90804a8fa9ce64736f6c63430008130033",
					"opcodes": "PUSH1 0x80 PUSH1 0x40 MSTORE PUSH1 0x0 DUP1 SSTORE CALLVALUE DUP1 ISZERO PUSH2 0x14 JUMPI PUSH1 0x0 DUP1 REVERT JUMPDEST POP PUSH2 0x114E DUP1 PUSH2 0x24 PUSH1 0x0 CODECOPY PUSH1 0x0 RETURN INVALID PUSH1 0x80 PUSH1 0x40 MSTORE CALLVALUE DUP1 ISZERO PUSH2 0x10 JUMPI PUSH1 0x0 DUP1 REVERT JUMPDEST POP PUSH1 0x4 CALLDATASIZE LT PUSH2 0x7D JUMPI PUSH1 0x0 CALLDATALOAD PUSH1 0xE0 SHR DUP1 PUSH4 0x6EF595D8 GT PUSH2 0x5B JUMPI DUP1 PUSH4 0x6EF595D8 EQ PUSH2 0xDC JUMPI DUP1 PUSH4 0x93E84CD9 EQ PUSH2 0xF4 JUMPI DUP1 PUSH4 0xE417F4A3 EQ PUSH2 0xFC JUMPI DUP1 PUSH4 0xF7C4EFBB EQ PUSH2 0x11C JUMPI PUSH1 0x0 DUP1 REVERT JUMPDEST DUP1 PUSH4 0x2CDE7869 EQ PUSH2 0x82 JUMPI DUP1 PUSH4 0x3D5E9D2D EQ PUSH2 0x97 JUMPI DUP1 PUSH4 0x512EC557 EQ PUSH2 0xC7 JUMPI JUMPDEST PUSH1 0x0 DUP1 REVERT JUMPDEST PUSH2 0x95 PUSH2 0x90 CALLDATASIZE PUSH1 0x4 PUSH2 0xE0E JUMP JUMPDEST PUSH2 0x13C JUMP JUMPDEST STOP JUMPDEST PUSH1 0x3 SLOAD PUSH2 0xAA SWAP1 PUSH1 0x1 PUSH1 0x1 PUSH1 0xA0 SHL SUB AND DUP2 JUMP JUMPDEST PUSH1 0x40 MLOAD PUSH1 0x1 PUSH1 0x1 PUSH1 0xA0 SHL SUB SWAP1 SWAP2 AND DUP2 MSTORE PUSH1 0x20 ADD JUMPDEST PUSH1 0x40 MLOAD DUP1 SWAP2 SUB SWAP1 RETURN JUMPDEST PUSH2 0xCF PUSH2 0x27A JUMP JUMPDEST PUSH1 0x40 MLOAD PUSH2 0xBE SWAP2 SWAP1 PUSH2 0xEC3 JUMP JUMPDEST PUSH1 0x2 SLOAD PUSH2 0xAA SWAP1 PUSH2 0x100 SWAP1 DIV PUSH1 0x1 PUSH1 0x1 PUSH1 0xA0 SHL SUB AND DUP2 JUMP JUMPDEST PUSH2 0x95 PUSH2 0x3B3 JUMP JUMPDEST PUSH2 0x10F PUSH2 0x10A CALLDATASIZE PUSH1 0x4 PUSH2 0xE0E JUMP JUMPDEST PUSH2 0x759 JUMP JUMPDEST PUSH1 0x40 MLOAD PUSH2 0xBE SWAP2 SWAP1 PUSH2 0xF25 JUMP JUMPDEST PUSH2 0x12F PUSH2 0x12A CALLDATASIZE PUSH1 0x4 PUSH2 0xE0E JUMP JUMPDEST PUSH2 0x803 JUMP JUMPDEST PUSH1 0x40 MLOAD PUSH2 0xBE SWAP2 SWAP1 PUSH2 0xF47 JUMP JUMPDEST PUSH1 0x1 DUP1 SLOAD PUSH2 0x14B SWAP1 DUP3 SWAP1 PUSH2 0xF77 JUMP JUMPDEST DUP2 SLOAD DUP2 LT PUSH2 0x15B JUMPI PUSH2 0x15B PUSH2 0xF8A JUMP JUMPDEST PUSH1 0x0 SWAP2 DUP3 MSTORE PUSH1 0x20 SWAP1 SWAP2 KECCAK256 PUSH1 0x5 SWAP1 SWAP2 MUL ADD SLOAD PUSH1 0x1 PUSH1 0x1 PUSH1 0xA0 SHL SUB AND CALLER SUB PUSH2 0x1B6 JUMPI PUSH1 0x1 DUP1 SLOAD DUP3 SWAP2 SWAP1 PUSH2 0x18D SWAP1 DUP3 SWAP1 PUSH2 0xF77 JUMP JUMPDEST DUP2 SLOAD DUP2 LT PUSH2 0x19D JUMPI PUSH2 0x19D PUSH2 0xF8A JUMP JUMPDEST PUSH1 0x0 SWAP2 DUP3 MSTORE PUSH1 0x20 SWAP1 SWAP2 KECCAK256 PUSH1 0x1 PUSH1 0x5 SWAP1 SWAP3 MUL ADD ADD SSTORE PUSH2 0x1ED JUMP JUMPDEST PUSH1 0x1 DUP1 SLOAD DUP3 SWAP2 SWAP1 PUSH2 0x1C8 SWAP1 DUP3 SWAP1 PUSH2 0xF77 JUMP JUMPDEST DUP2 SLOAD DUP2 LT PUSH2 0x1D8 JUMPI PUSH2 0x1D8 PUSH2 0xF8A JUMP JUMPDEST PUSH1 0x0 SWAP2 DUP3 MSTORE PUSH1 0x20 SWAP1 SWAP2 KECCAK256 PUSH1 0x3 PUSH1 0x5 SWAP1 SWAP3 MUL ADD ADD SSTORE JUMPDEST PUSH1 0x1 DUP1 SLOAD PUSH2 0x1FC SWAP1 DUP3 SWAP1 PUSH2 0xF77 JUMP JUMPDEST DUP2 SLOAD DUP2 LT PUSH2 0x20C JUMPI PUSH2 0x20C PUSH2 0xF8A JUMP JUMPDEST SWAP1 PUSH1 0x0 MSTORE PUSH1 0x20 PUSH1 0x0 KECCAK256 SWAP1 PUSH1 0x5 MUL ADD PUSH1 0x0 ADD PUSH1 0x1 ADD SLOAD PUSH1 0x0 EQ ISZERO DUP1 ISZERO PUSH2 0x265 JUMPI POP PUSH1 0x1 DUP1 SLOAD PUSH2 0x23B SWAP1 DUP3 SWAP1 PUSH2 0xF77 JUMP JUMPDEST DUP2 SLOAD DUP2 LT PUSH2 0x24B JUMPI PUSH2 0x24B PUSH2 0xF8A JUMP JUMPDEST SWAP1 PUSH1 0x0 MSTORE PUSH1 0x20 PUSH1 0x0 KECCAK256 SWAP1 PUSH1 0x5 MUL ADD PUSH1 0x2 ADD PUSH1 0x1 ADD SLOAD PUSH1 0x0 EQ ISZERO JUMPDEST ISZERO PUSH2 0x277 JUMPI PUSH2 0x272 PUSH2 0x9ED JUMP JUMPDEST PUSH1 0x0 DUP1 SSTORE JUMPDEST POP JUMP JUMPDEST PUSH1 0x60 PUSH1 0x1 DUP1 SLOAD DUP1 PUSH1 0x20 MUL PUSH1 0x20 ADD PUSH1 0x40 MLOAD SWAP1 DUP2 ADD PUSH1 0x40 MSTORE DUP1 SWAP3 SWAP2 SWAP1 DUP2 DUP2 MSTORE PUSH1 0x20 ADD PUSH1 0x0 SWAP1 JUMPDEST DUP3 DUP3 LT ISZERO PUSH2 0x3AA JUMPI PUSH1 0x0 DUP5 DUP2 MSTORE PUSH1 0x20 SWAP1 DUP2 SWAP1 KECCAK256 PUSH1 0x40 DUP1 MLOAD PUSH1 0xA0 DUP2 ADD DUP3 MSTORE PUSH1 0x5 DUP7 MUL SWAP1 SWAP3 ADD DUP1 SLOAD PUSH1 0x1 PUSH1 0x1 PUSH1 0xA0 SHL SUB SWAP1 DUP2 AND PUSH1 0x60 DUP6 ADD SWAP1 DUP2 MSTORE PUSH1 0x1 DUP4 ADD SLOAD PUSH1 0x80 DUP7 ADD MSTORE DUP5 MSTORE DUP3 MLOAD DUP1 DUP5 ADD DUP5 MSTORE PUSH1 0x2 DUP4 ADD SLOAD SWAP1 SWAP2 AND DUP2 MSTORE PUSH1 0x3 DUP3 ADD SLOAD DUP2 DUP7 ADD MSTORE SWAP4 DUP4 ADD SWAP4 SWAP1 SWAP4 MSTORE PUSH1 0x4 DUP4 ADD DUP1 SLOAD SWAP3 SWAP4 SWAP3 SWAP2 DUP5 ADD SWAP2 PUSH2 0x319 SWAP1 PUSH2 0xFA0 JUMP JUMPDEST DUP1 PUSH1 0x1F ADD PUSH1 0x20 DUP1 SWAP2 DIV MUL PUSH1 0x20 ADD PUSH1 0x40 MLOAD SWAP1 DUP2 ADD PUSH1 0x40 MSTORE DUP1 SWAP3 SWAP2 SWAP1 DUP2 DUP2 MSTORE PUSH1 0x20 ADD DUP3 DUP1 SLOAD PUSH2 0x345 SWAP1 PUSH2 0xFA0 JUMP JUMPDEST DUP1 ISZERO PUSH2 0x392 JUMPI DUP1 PUSH1 0x1F LT PUSH2 0x367 JUMPI PUSH2 0x100 DUP1 DUP4 SLOAD DIV MUL DUP4 MSTORE SWAP2 PUSH1 0x20 ADD SWAP2 PUSH2 0x392 JUMP JUMPDEST DUP3 ADD SWAP2 SWAP1 PUSH1 0x0 MSTORE PUSH1 0x20 PUSH1 0x0 KECCAK256 SWAP1 JUMPDEST DUP2 SLOAD DUP2 MSTORE SWAP1 PUSH1 0x1 ADD SWAP1 PUSH1 0x20 ADD DUP1 DUP4 GT PUSH2 0x375 JUMPI DUP3 SWAP1 SUB PUSH1 0x1F AND DUP3 ADD SWAP2 JUMPDEST POP POP POP POP POP DUP2 MSTORE POP POP DUP2 MSTORE PUSH1 0x20 ADD SWAP1 PUSH1 0x1 ADD SWAP1 PUSH2 0x29E JUMP JUMPDEST POP POP POP POP SWAP1 POP SWAP1 JUMP JUMPDEST PUSH1 0x2 SLOAD PUSH1 0xFF AND ISZERO PUSH2 0x403 JUMPI PUSH1 0x40 MLOAD PUSH3 0x461BCD PUSH1 0xE5 SHL DUP2 MSTORE PUSH1 0x20 PUSH1 0x4 DUP3 ADD MSTORE PUSH1 0x15 PUSH1 0x24 DUP3 ADD MSTORE PUSH21 0x115C9C9BDC8E881499595B9D1C985B9D0818D85B1B PUSH1 0x5A SHL PUSH1 0x44 DUP3 ADD MSTORE PUSH1 0x64 ADD JUMPDEST PUSH1 0x40 MLOAD DUP1 SWAP2 SUB SWAP1 REVERT JUMPDEST PUSH1 0x2 DUP1 SLOAD PUSH1 0xFF NOT AND PUSH1 0x1 OR SWAP1 SSTORE PUSH1 0x0 DUP1 SLOAD SWAP1 SUB PUSH2 0x5A0 JUMPI PUSH2 0x422 PUSH2 0xDC4 JUMP JUMPDEST PUSH1 0x1 DUP1 SLOAD DUP1 DUP3 ADD DUP3 SSTORE PUSH1 0x0 SWAP2 SWAP1 SWAP2 MSTORE DUP2 MLOAD DUP1 MLOAD PUSH32 0xB10E2D527612073B26EECDFD717E6A320CF44B4AFAC2B0732D9FCBE2B7FA0CF6 PUSH1 0x5 SWAP1 SWAP4 MUL SWAP3 DUP4 ADD DUP1 SLOAD PUSH1 0x1 PUSH1 0x1 PUSH1 0xA0 SHL SUB NOT SWAP1 DUP2 AND PUSH1 0x1 PUSH1 0x1 PUSH1 0xA0 SHL SUB SWAP4 DUP5 AND OR DUP3 SSTORE PUSH1 0x20 SWAP4 DUP5 ADD MLOAD PUSH32 0xB10E2D527612073B26EECDFD717E6A320CF44B4AFAC2B0732D9FCBE2B7FA0CF7 DUP7 ADD SSTORE DUP4 DUP7 ADD MLOAD DUP1 MLOAD PUSH32 0xB10E2D527612073B26EECDFD717E6A320CF44B4AFAC2B0732D9FCBE2B7FA0CF8 DUP8 ADD DUP1 SLOAD SWAP1 SWAP4 AND SWAP5 AND SWAP4 SWAP1 SWAP4 OR SWAP1 SSTORE SWAP2 ADD MLOAD PUSH32 0xB10E2D527612073B26EECDFD717E6A320CF44B4AFAC2B0732D9FCBE2B7FA0CF9 DUP4 ADD SSTORE PUSH1 0x40 DUP4 ADD MLOAD DUP4 SWAP3 PUSH32 0xB10E2D527612073B26EECDFD717E6A320CF44B4AFAC2B0732D9FCBE2B7FA0CFA ADD SWAP1 PUSH2 0x535 SWAP1 DUP3 PUSH2 0x103F JUMP JUMPDEST POP POP PUSH1 0x1 DUP1 SLOAD CALLER SWAP3 POP PUSH2 0x549 SWAP1 DUP3 SWAP1 PUSH2 0xF77 JUMP JUMPDEST DUP2 SLOAD DUP2 LT PUSH2 0x559 JUMPI PUSH2 0x559 PUSH2 0xF8A JUMP JUMPDEST PUSH1 0x0 SWAP2 DUP3 MSTORE PUSH1 0x20 DUP3 KECCAK256 PUSH1 0x5 SWAP2 SWAP1 SWAP2 MUL ADD DUP1 SLOAD PUSH1 0x1 PUSH1 0x1 PUSH1 0xA0 SHL SUB NOT AND PUSH1 0x1 PUSH1 0x1 PUSH1 0xA0 SHL SUB SWAP4 SWAP1 SWAP4 AND SWAP3 SWAP1 SWAP3 OR SWAP1 SWAP2 SSTORE DUP1 SLOAD SWAP1 DUP1 PUSH2 0x595 DUP4 PUSH2 0x10FF JUMP JUMPDEST SWAP2 SWAP1 POP SSTORE POP POP PUSH2 0x74D JUMP JUMPDEST PUSH1 0x1 DUP1 SLOAD PUSH2 0x5AF SWAP1 DUP3 SWAP1 PUSH2 0xF77 JUMP JUMPDEST DUP2 SLOAD DUP2 LT PUSH2 0x5BF JUMPI PUSH2 0x5BF PUSH2 0xF8A JUMP JUMPDEST PUSH1 0x0 SWAP2 DUP3 MSTORE PUSH1 0x20 SWAP1 SWAP2 KECCAK256 PUSH1 0x5 SWAP1 SWAP2 MUL ADD SLOAD PUSH1 0x1 PUSH1 0x1 PUSH1 0xA0 SHL SUB AND CALLER SUB PUSH2 0x633 JUMPI PUSH1 0x40 MLOAD PUSH3 0x461BCD PUSH1 0xE5 SHL DUP2 MSTORE PUSH1 0x20 PUSH1 0x4 DUP3 ADD MSTORE PUSH1 0x24 DUP1 DUP3 ADD MSTORE PUSH32 0x4572726F723A20596F752063616E6E6F7420706C6179207769746820796F7572 PUSH1 0x44 DUP3 ADD MSTORE PUSH4 0x39B2B633 PUSH1 0xE1 SHL PUSH1 0x64 DUP3 ADD MSTORE PUSH1 0x84 ADD PUSH2 0x3FA JUMP JUMPDEST PUSH1 0x1 DUP1 SLOAD CALLER SWAP2 SWAP1 PUSH2 0x645 SWAP1 DUP3 SWAP1 PUSH2 0xF77 JUMP JUMPDEST DUP2 SLOAD DUP2 LT PUSH2 0x655 JUMPI PUSH2 0x655 PUSH2 0xF8A JUMP JUMPDEST PUSH1 0x0 SWAP2 DUP3 MSTORE PUSH1 0x20 SWAP1 SWAP2 KECCAK256 PUSH1 0x5 SWAP1 SWAP2 MUL ADD PUSH1 0x2 ADD DUP1 SLOAD PUSH1 0x1 PUSH1 0x1 PUSH1 0xA0 SHL SUB NOT AND PUSH1 0x1 PUSH1 0x1 PUSH1 0xA0 SHL SUB SWAP3 SWAP1 SWAP3 AND SWAP2 SWAP1 SWAP2 OR SWAP1 SSTORE PUSH1 0x1 DUP1 SLOAD PUSH32 0xDAA57EE2C04AEE347B88819662FCDB8376824FB89A1F9B97A41EDB933A3BA7A6 SWAP2 SWAP1 PUSH2 0x6B8 SWAP1 DUP3 SWAP1 PUSH2 0xF77 JUMP JUMPDEST DUP2 SLOAD DUP2 LT PUSH2 0x6C8 JUMPI PUSH2 0x6C8 PUSH2 0xF8A JUMP JUMPDEST PUSH1 0x0 SWAP2 DUP3 MSTORE PUSH1 0x20 SWAP1 SWAP2 KECCAK256 PUSH1 0x5 SWAP1 SWAP2 MUL ADD SLOAD PUSH1 0x1 DUP1 SLOAD PUSH1 0x1 PUSH1 0x1 PUSH1 0xA0 SHL SUB SWAP1 SWAP3 AND SWAP2 PUSH2 0x6F4 SWAP1 DUP3 SWAP1 PUSH2 0xF77 JUMP JUMPDEST DUP2 SLOAD DUP2 LT PUSH2 0x704 JUMPI PUSH2 0x704 PUSH2 0xF8A JUMP JUMPDEST PUSH1 0x0 SWAP2 DUP3 MSTORE PUSH1 0x20 SWAP1 SWAP2 KECCAK256 PUSH1 0x2 PUSH1 0x5 SWAP1 SWAP3 MUL ADD ADD SLOAD PUSH1 0x40 MLOAD PUSH2 0x744 SWAP3 SWAP2 PUSH1 0x1 PUSH1 0x1 PUSH1 0xA0 SHL SUB AND SWAP1 PUSH1 0x1 PUSH1 0x1 PUSH1 0xA0 SHL SUB SWAP3 DUP4 AND DUP2 MSTORE SWAP2 AND PUSH1 0x20 DUP3 ADD MSTORE PUSH1 0x40 ADD SWAP1 JUMP JUMPDEST PUSH1 0x40 MLOAD DUP1 SWAP2 SUB SWAP1 LOG1 JUMPDEST PUSH1 0x2 DUP1 SLOAD PUSH1 0xFF NOT AND SWAP1 SSTORE JUMP JUMPDEST PUSH1 0x40 DUP1 MLOAD DUP1 DUP3 ADD SWAP1 SWAP2 MSTORE PUSH1 0x0 DUP1 DUP3 MSTORE PUSH1 0x20 DUP3 ADD MSTORE PUSH1 0x1 SLOAD DUP3 GT ISZERO PUSH2 0x7B7 JUMPI PUSH1 0x40 MLOAD PUSH3 0x461BCD PUSH1 0xE5 SHL DUP2 MSTORE PUSH1 0x20 PUSH1 0x4 DUP3 ADD MSTORE PUSH1 0x15 PUSH1 0x24 DUP3 ADD MSTORE PUSH21 0x8AE4E4DEE4744092DCECC2D8D2C840D8CADCCEE8D PUSH1 0x5B SHL PUSH1 0x44 DUP3 ADD MSTORE PUSH1 0x64 ADD PUSH2 0x3FA JUMP JUMPDEST PUSH1 0x1 DUP3 DUP2 SLOAD DUP2 LT PUSH2 0x7CA JUMPI PUSH2 0x7CA PUSH2 0xF8A JUMP JUMPDEST PUSH1 0x0 SWAP2 DUP3 MSTORE PUSH1 0x20 SWAP2 DUP3 SWAP1 KECCAK256 PUSH1 0x40 DUP1 MLOAD DUP1 DUP3 ADD SWAP1 SWAP2 MSTORE PUSH1 0x5 SWAP1 SWAP3 MUL ADD DUP1 SLOAD PUSH1 0x1 PUSH1 0x1 PUSH1 0xA0 SHL SUB AND DUP3 MSTORE PUSH1 0x1 ADD SLOAD SWAP2 DUP2 ADD SWAP2 SWAP1 SWAP2 MSTORE SWAP3 SWAP2 POP POP JUMP JUMPDEST PUSH2 0x80B PUSH2 0xDC4 JUMP JUMPDEST PUSH1 0x1 SLOAD DUP3 GT ISZERO PUSH2 0x855 JUMPI PUSH1 0x40 MLOAD PUSH3 0x461BCD PUSH1 0xE5 SHL DUP2 MSTORE PUSH1 0x20 PUSH1 0x4 DUP3 ADD MSTORE PUSH1 0x15 PUSH1 0x24 DUP3 ADD MSTORE PUSH21 0x8AE4E4DEE4744092DCECC2D8D2C840D8CADCCEE8D PUSH1 0x5B SHL PUSH1 0x44 DUP3 ADD MSTORE PUSH1 0x64 ADD PUSH2 0x3FA JUMP JUMPDEST PUSH1 0x0 PUSH1 0x1 PUSH1 0x1 PUSH1 0xA0 SHL SUB AND PUSH1 0x1 DUP4 DUP2 SLOAD DUP2 LT PUSH2 0x873 JUMPI PUSH2 0x873 PUSH2 0xF8A JUMP JUMPDEST PUSH1 0x0 SWAP2 DUP3 MSTORE PUSH1 0x20 SWAP1 SWAP2 KECCAK256 PUSH1 0x2 PUSH1 0x5 SWAP1 SWAP3 MUL ADD ADD SLOAD PUSH1 0x1 PUSH1 0x1 PUSH1 0xA0 SHL SUB AND SUB PUSH2 0x8DD JUMPI PUSH1 0x40 MLOAD PUSH3 0x461BCD PUSH1 0xE5 SHL DUP2 MSTORE PUSH1 0x20 PUSH1 0x4 DUP3 ADD MSTORE PUSH1 0x1E PUSH1 0x24 DUP3 ADD MSTORE PUSH32 0x4572726F723A205468652067616D65206E6F742066696E697368207965740000 PUSH1 0x44 DUP3 ADD MSTORE PUSH1 0x64 ADD PUSH2 0x3FA JUMP JUMPDEST PUSH1 0x1 DUP3 DUP2 SLOAD DUP2 LT PUSH2 0x8F0 JUMPI PUSH2 0x8F0 PUSH2 0xF8A JUMP JUMPDEST PUSH1 0x0 SWAP2 DUP3 MSTORE PUSH1 0x20 SWAP2 DUP3 SWAP1 KECCAK256 PUSH1 0x40 DUP1 MLOAD PUSH1 0xA0 DUP2 ADD DUP3 MSTORE PUSH1 0x5 SWAP1 SWAP4 MUL SWAP1 SWAP2 ADD DUP1 SLOAD PUSH1 0x1 PUSH1 0x1 PUSH1 0xA0 SHL SUB SWAP1 DUP2 AND PUSH1 0x60 DUP6 ADD SWAP1 DUP2 MSTORE PUSH1 0x1 DUP4 ADD SLOAD PUSH1 0x80 DUP7 ADD MSTORE DUP5 MSTORE DUP3 MLOAD DUP1 DUP5 ADD DUP5 MSTORE PUSH1 0x2 DUP4 ADD SLOAD SWAP1 SWAP2 AND DUP2 MSTORE PUSH1 0x3 DUP3 ADD SLOAD DUP2 DUP7 ADD MSTORE SWAP4 DUP4 ADD SWAP4 SWAP1 SWAP4 MSTORE PUSH1 0x4 DUP4 ADD DUP1 SLOAD SWAP3 SWAP4 SWAP3 SWAP2 DUP5 ADD SWAP2 PUSH2 0x964 SWAP1 PUSH2 0xFA0 JUMP JUMPDEST DUP1 PUSH1 0x1F ADD PUSH1 0x20 DUP1 SWAP2 DIV MUL PUSH1 0x20 ADD PUSH1 0x40 MLOAD SWAP1 DUP2 ADD PUSH1 0x40 MSTORE DUP1 SWAP3 SWAP2 SWAP1 DUP2 DUP2 MSTORE PUSH1 0x20 ADD DUP3 DUP1 SLOAD PUSH2 0x990 SWAP1 PUSH2 0xFA0 JUMP JUMPDEST DUP1 ISZERO PUSH2 0x9DD JUMPI DUP1 PUSH1 0x1F LT PUSH2 0x9B2 JUMPI PUSH2 0x100 DUP1 DUP4 SLOAD DIV MUL DUP4 MSTORE SWAP2 PUSH1 0x20 ADD SWAP2 PUSH2 0x9DD JUMP JUMPDEST DUP3 ADD SWAP2 SWAP1 PUSH1 0x0 MSTORE PUSH1 0x20 PUSH1 0x0 KECCAK256 SWAP1 JUMPDEST DUP2 SLOAD DUP2 MSTORE SWAP1 PUSH1 0x1 ADD SWAP1 PUSH1 0x20 ADD DUP1 DUP4 GT PUSH2 0x9C0 JUMPI DUP3 SWAP1 SUB PUSH1 0x1F AND DUP3 ADD SWAP2 JUMPDEST POP POP POP POP POP DUP2 MSTORE POP POP SWAP1 POP SWAP2 SWAP1 POP JUMP JUMPDEST PUSH1 0x1 DUP1 SLOAD PUSH2 0x9FC SWAP1 DUP3 SWAP1 PUSH2 0xF77 JUMP JUMPDEST DUP2 SLOAD DUP2 LT PUSH2 0xA0C JUMPI PUSH2 0xA0C PUSH2 0xF8A JUMP JUMPDEST PUSH1 0x0 SWAP2 DUP3 MSTORE PUSH1 0x20 SWAP1 SWAP2 KECCAK256 PUSH1 0x3 PUSH1 0x5 SWAP1 SWAP3 MUL ADD ADD SLOAD PUSH1 0x1 DUP1 SLOAD PUSH2 0xA2F SWAP1 DUP3 SWAP1 PUSH2 0xF77 JUMP JUMPDEST DUP2 SLOAD DUP2 LT PUSH2 0xA3F JUMPI PUSH2 0xA3F PUSH2 0xF8A JUMP JUMPDEST SWAP1 PUSH1 0x0 MSTORE PUSH1 0x20 PUSH1 0x0 KECCAK256 SWAP1 PUSH1 0x5 MUL ADD PUSH1 0x0 ADD PUSH1 0x1 ADD SLOAD SUB PUSH2 0xB01 JUMPI PUSH1 0x40 DUP1 MLOAD DUP1 DUP3 ADD SWAP1 SWAP2 MSTORE PUSH1 0x4 DUP2 MSTORE PUSH4 0x151A5959 PUSH1 0xE2 SHL PUSH1 0x20 DUP3 ADD MSTORE PUSH1 0x1 DUP1 SLOAD PUSH2 0xA83 SWAP1 DUP3 SWAP1 PUSH2 0xF77 JUMP JUMPDEST DUP2 SLOAD DUP2 LT PUSH2 0xA93 JUMPI PUSH2 0xA93 PUSH2 0xF8A JUMP JUMPDEST SWAP1 PUSH1 0x0 MSTORE PUSH1 0x20 PUSH1 0x0 KECCAK256 SWAP1 PUSH1 0x5 MUL ADD PUSH1 0x4 ADD SWAP1 DUP2 PUSH2 0xAB0 SWAP2 SWAP1 PUSH2 0x103F JUMP JUMPDEST POP PUSH32 0xCDE5C32C0A45FD8AA4B65EA8003FC9DA9ACD5E2C6C24A9FCCE6AB79CABBD9122 PUSH1 0x40 MLOAD PUSH2 0xAF7 SWAP1 PUSH1 0x20 DUP1 DUP3 MSTORE PUSH1 0x4 SWAP1 DUP3 ADD MSTORE PUSH4 0x151A5959 PUSH1 0xE2 SHL PUSH1 0x40 DUP3 ADD MSTORE PUSH1 0x60 ADD SWAP1 JUMP JUMPDEST PUSH1 0x40 MLOAD DUP1 SWAP2 SUB SWAP1 LOG1 JUMP JUMPDEST PUSH1 0x1 DUP1 SLOAD PUSH2 0xB10 SWAP1 DUP3 SWAP1 PUSH2 0xF77 JUMP JUMPDEST DUP2 SLOAD DUP2 LT PUSH2 0xB20 JUMPI PUSH2 0xB20 PUSH2 0xF8A JUMP JUMPDEST SWAP1 PUSH1 0x0 MSTORE PUSH1 0x20 PUSH1 0x0 KECCAK256 SWAP1 PUSH1 0x5 MUL ADD PUSH1 0x0 ADD PUSH1 0x1 ADD SLOAD PUSH1 0x1 EQ DUP1 ISZERO PUSH2 0xB77 JUMPI POP PUSH1 0x1 DUP1 SLOAD PUSH2 0xB4E SWAP1 DUP3 SWAP1 PUSH2 0xF77 JUMP JUMPDEST DUP2 SLOAD DUP2 LT PUSH2 0xB5E JUMPI PUSH2 0xB5E PUSH2 0xF8A JUMP JUMPDEST SWAP1 PUSH1 0x0 MSTORE PUSH1 0x20 PUSH1 0x0 KECCAK256 SWAP1 PUSH1 0x5 MUL ADD PUSH1 0x2 ADD PUSH1 0x1 ADD SLOAD PUSH1 0x2 EQ JUMPDEST DUP1 PUSH2 0xBF3 JUMPI POP PUSH1 0x1 DUP1 SLOAD PUSH2 0xB8C SWAP1 DUP3 SWAP1 PUSH2 0xF77 JUMP JUMPDEST DUP2 SLOAD DUP2 LT PUSH2 0xB9C JUMPI PUSH2 0xB9C PUSH2 0xF8A JUMP JUMPDEST SWAP1 PUSH1 0x0 MSTORE PUSH1 0x20 PUSH1 0x0 KECCAK256 SWAP1 PUSH1 0x5 MUL ADD PUSH1 0x0 ADD PUSH1 0x1 ADD SLOAD PUSH1 0x3 EQ DUP1 ISZERO PUSH2 0xBF3 JUMPI POP PUSH1 0x1 DUP1 SLOAD PUSH2 0xBCA SWAP1 DUP3 SWAP1 PUSH2 0xF77 JUMP JUMPDEST DUP2 SLOAD DUP2 LT PUSH2 0xBDA JUMPI PUSH2 0xBDA PUSH2 0xF8A JUMP JUMPDEST SWAP1 PUSH1 0x0 MSTORE PUSH1 0x20 PUSH1 0x0 KECCAK256 SWAP1 PUSH1 0x5 MUL ADD PUSH1 0x2 ADD PUSH1 0x1 ADD SLOAD PUSH1 0x1 EQ JUMPDEST DUP1 PUSH2 0xC6F JUMPI POP PUSH1 0x1 DUP1 SLOAD PUSH2 0xC08 SWAP1 DUP3 SWAP1 PUSH2 0xF77 JUMP JUMPDEST DUP2 SLOAD DUP2 LT PUSH2 0xC18 JUMPI PUSH2 0xC18 PUSH2 0xF8A JUMP JUMPDEST SWAP1 PUSH1 0x0 MSTORE PUSH1 0x20 PUSH1 0x0 KECCAK256 SWAP1 PUSH1 0x5 MUL ADD PUSH1 0x0 ADD PUSH1 0x1 ADD SLOAD PUSH1 0x2 EQ DUP1 ISZERO PUSH2 0xC6F JUMPI POP PUSH1 0x1 DUP1 SLOAD PUSH2 0xC46 SWAP1 DUP3 SWAP1 PUSH2 0xF77 JUMP JUMPDEST DUP2 SLOAD DUP2 LT PUSH2 0xC56 JUMPI PUSH2 0xC56 PUSH2 0xF8A JUMP JUMPDEST SWAP1 PUSH1 0x0 MSTORE PUSH1 0x20 PUSH1 0x0 KECCAK256 SWAP1 PUSH1 0x5 MUL ADD PUSH1 0x2 ADD PUSH1 0x1 ADD SLOAD PUSH1 0x3 EQ JUMPDEST ISZERO PUSH2 0xD1C JUMPI PUSH1 0x40 DUP1 MLOAD DUP1 DUP3 ADD SWAP1 SWAP2 MSTORE PUSH1 0x9 DUP2 MSTORE PUSH9 0x2AB9B2B919103BB4B7 PUSH1 0xB9 SHL PUSH1 0x20 DUP3 ADD MSTORE PUSH1 0x1 DUP1 SLOAD PUSH2 0xCA3 SWAP1 DUP3 SWAP1 PUSH2 0xF77 JUMP JUMPDEST DUP2 SLOAD DUP2 LT PUSH2 0xCB3 JUMPI PUSH2 0xCB3 PUSH2 0xF8A JUMP JUMPDEST SWAP1 PUSH1 0x0 MSTORE PUSH1 0x20 PUSH1 0x0 KECCAK256 SWAP1 PUSH1 0x5 MUL ADD PUSH1 0x4 ADD SWAP1 DUP2 PUSH2 0xCD0 SWAP2 SWAP1 PUSH2 0x103F JUMP JUMPDEST POP PUSH32 0xCDE5C32C0A45FD8AA4B65EA8003FC9DA9ACD5E2C6C24A9FCCE6AB79CABBD9122 PUSH1 0x40 MLOAD PUSH2 0xAF7 SWAP1 PUSH1 0x20 DUP1 DUP3 MSTORE PUSH1 0x9 SWAP1 DUP3 ADD MSTORE PUSH9 0x2AB9B2B919103BB4B7 PUSH1 0xB9 SHL PUSH1 0x40 DUP3 ADD MSTORE PUSH1 0x60 ADD SWAP1 JUMP JUMPDEST PUSH1 0x40 DUP1 MLOAD DUP1 DUP3 ADD SWAP1 SWAP2 MSTORE PUSH1 0x9 DUP2 MSTORE PUSH9 0x2AB9B2B918903BB4B7 PUSH1 0xB9 SHL PUSH1 0x20 DUP3 ADD MSTORE PUSH1 0x1 DUP1 SLOAD PUSH2 0xD4B SWAP1 DUP3 SWAP1 PUSH2 0xF77 JUMP JUMPDEST DUP2 SLOAD DUP2 LT PUSH2 0xD5B JUMPI PUSH2 0xD5B PUSH2 0xF8A JUMP JUMPDEST SWAP1 PUSH1 0x0 MSTORE PUSH1 0x20 PUSH1 0x0 KECCAK256 SWAP1 PUSH1 0x5 MUL ADD PUSH1 0x4 ADD SWAP1 DUP2 PUSH2 0xD78 SWAP2 SWAP1 PUSH2 0x103F JUMP JUMPDEST POP PUSH32 0xCDE5C32C0A45FD8AA4B65EA8003FC9DA9ACD5E2C6C24A9FCCE6AB79CABBD9122 PUSH1 0x40 MLOAD PUSH2 0xAF7 SWAP1 PUSH1 0x20 DUP1 DUP3 MSTORE PUSH1 0x9 SWAP1 DUP3 ADD MSTORE PUSH9 0x2AB9B2B918903BB4B7 PUSH1 0xB9 SHL PUSH1 0x40 DUP3 ADD MSTORE PUSH1 0x60 ADD SWAP1 JUMP JUMPDEST PUSH1 0x40 DUP1 MLOAD PUSH1 0xA0 DUP2 ADD SWAP1 SWAP2 MSTORE PUSH1 0x0 PUSH1 0x60 DUP3 ADD DUP2 DUP2 MSTORE PUSH1 0x80 DUP4 ADD SWAP2 SWAP1 SWAP2 MSTORE DUP2 SWAP1 DUP2 MSTORE PUSH1 0x20 ADD PUSH2 0xE01 PUSH1 0x40 DUP1 MLOAD DUP1 DUP3 ADD SWAP1 SWAP2 MSTORE PUSH1 0x0 DUP1 DUP3 MSTORE PUSH1 0x20 DUP3 ADD MSTORE SWAP1 JUMP JUMPDEST DUP2 MSTORE PUSH1 0x20 ADD PUSH1 0x60 DUP2 MSTORE POP SWAP1 JUMP JUMPDEST PUSH1 0x0 PUSH1 0x20 DUP3 DUP5 SUB SLT ISZERO PUSH2 0xE20 JUMPI PUSH1 0x0 DUP1 REVERT JUMPDEST POP CALLDATALOAD SWAP2 SWAP1 POP JUMP JUMPDEST PUSH2 0xE45 DUP3 DUP3 MLOAD DUP1 MLOAD PUSH1 0x1 PUSH1 0x1 PUSH1 0xA0 SHL SUB AND DUP3 MSTORE PUSH1 0x20 SWAP1 DUP2 ADD MLOAD SWAP2 ADD MSTORE JUMP JUMPDEST PUSH1 0x0 PUSH1 0x20 DUP1 DUP4 ADD MLOAD PUSH2 0xE6D PUSH1 0x40 DUP7 ADD DUP3 DUP1 MLOAD PUSH1 0x1 PUSH1 0x1 PUSH1 0xA0 SHL SUB AND DUP3 MSTORE PUSH1 0x20 SWAP1 DUP2 ADD MLOAD SWAP2 ADD MSTORE JUMP JUMPDEST POP PUSH1 0x40 DUP4 ADD MLOAD PUSH1 0xA0 PUSH1 0x80 DUP7 ADD MSTORE DUP1 MLOAD DUP1 PUSH1 0xA0 DUP8 ADD MSTORE PUSH1 0x0 JUMPDEST DUP2 DUP2 LT ISZERO PUSH2 0xEA1 JUMPI DUP3 DUP2 ADD DUP5 ADD MLOAD DUP8 DUP3 ADD PUSH1 0xC0 ADD MSTORE DUP4 ADD PUSH2 0xE85 JUMP JUMPDEST POP PUSH1 0x0 PUSH1 0xC0 DUP3 DUP9 ADD ADD MSTORE PUSH1 0xC0 PUSH1 0x1F NOT PUSH1 0x1F DUP4 ADD AND DUP8 ADD ADD SWAP4 POP POP POP POP SWAP3 SWAP2 POP POP JUMP JUMPDEST PUSH1 0x0 PUSH1 0x20 DUP1 DUP4 ADD DUP2 DUP5 MSTORE DUP1 DUP6 MLOAD DUP1 DUP4 MSTORE PUSH1 0x40 DUP7 ADD SWAP2 POP PUSH1 0x40 DUP2 PUSH1 0x5 SHL DUP8 ADD ADD SWAP3 POP DUP4 DUP8 ADD PUSH1 0x0 JUMPDEST DUP3 DUP2 LT ISZERO PUSH2 0xF18 JUMPI PUSH1 0x3F NOT DUP9 DUP7 SUB ADD DUP5 MSTORE PUSH2 0xF06 DUP6 DUP4 MLOAD PUSH2 0xE27 JUMP JUMPDEST SWAP5 POP SWAP3 DUP6 ADD SWAP3 SWAP1 DUP6 ADD SWAP1 PUSH1 0x1 ADD PUSH2 0xEEA JUMP JUMPDEST POP SWAP3 SWAP8 SWAP7 POP POP POP POP POP POP POP JUMP JUMPDEST DUP2 MLOAD PUSH1 0x1 PUSH1 0x1 PUSH1 0xA0 SHL SUB AND DUP2 MSTORE PUSH1 0x20 DUP1 DUP4 ADD MLOAD SWAP1 DUP3 ADD MSTORE PUSH1 0x40 DUP2 ADD JUMPDEST SWAP3 SWAP2 POP POP JUMP JUMPDEST PUSH1 0x20 DUP2 MSTORE PUSH1 0x0 PUSH2 0xF5A PUSH1 0x20 DUP4 ADD DUP5 PUSH2 0xE27 JUMP JUMPDEST SWAP4 SWAP3 POP POP POP JUMP JUMPDEST PUSH4 0x4E487B71 PUSH1 0xE0 SHL PUSH1 0x0 MSTORE PUSH1 0x11 PUSH1 0x4 MSTORE PUSH1 0x24 PUSH1 0x0 REVERT JUMPDEST DUP2 DUP2 SUB DUP2 DUP2 GT ISZERO PUSH2 0xF41 JUMPI PUSH2 0xF41 PUSH2 0xF61 JUMP JUMPDEST PUSH4 0x4E487B71 PUSH1 0xE0 SHL PUSH1 0x0 MSTORE PUSH1 0x32 PUSH1 0x4 MSTORE PUSH1 0x24 PUSH1 0x0 REVERT JUMPDEST PUSH1 0x1 DUP2 DUP2 SHR SWAP1 DUP3 AND DUP1 PUSH2 0xFB4 JUMPI PUSH1 0x7F DUP3 AND SWAP2 POP JUMPDEST PUSH1 0x20 DUP3 LT DUP2 SUB PUSH2 0xFD4 JUMPI PUSH4 0x4E487B71 PUSH1 0xE0 SHL PUSH1 0x0 MSTORE PUSH1 0x22 PUSH1 0x4 MSTORE PUSH1 0x24 PUSH1 0x0 REVERT JUMPDEST POP SWAP2 SWAP1 POP JUMP JUMPDEST PUSH4 0x4E487B71 PUSH1 0xE0 SHL PUSH1 0x0 MSTORE PUSH1 0x41 PUSH1 0x4 MSTORE PUSH1 0x24 PUSH1 0x0 REVERT JUMPDEST PUSH1 0x1F DUP3 GT ISZERO PUSH2 0x103A JUMPI PUSH1 0x0 DUP2 DUP2 MSTORE PUSH1 0x20 DUP2 KECCAK256 PUSH1 0x1F DUP6 ADD PUSH1 0x5 SHR DUP2 ADD PUSH1 0x20 DUP7 LT ISZERO PUSH2 0x1017 JUMPI POP DUP1 JUMPDEST PUSH1 0x1F DUP6 ADD PUSH1 0x5 SHR DUP3 ADD SWAP2 POP JUMPDEST DUP2 DUP2 LT ISZERO PUSH2 0x1036 JUMPI DUP3 DUP2 SSTORE PUSH1 0x1 ADD PUSH2 0x1023 JUMP JUMPDEST POP POP POP JUMPDEST POP POP POP JUMP JUMPDEST DUP2 MLOAD PUSH8 0xFFFFFFFFFFFFFFFF DUP2 GT ISZERO PUSH2 0x1059 JUMPI PUSH2 0x1059 PUSH2 0xFDA JUMP JUMPDEST PUSH2 0x106D DUP2 PUSH2 0x1067 DUP5 SLOAD PUSH2 0xFA0 JUMP JUMPDEST DUP5 PUSH2 0xFF0 JUMP JUMPDEST PUSH1 0x20 DUP1 PUSH1 0x1F DUP4 GT PUSH1 0x1 DUP2 EQ PUSH2 0x10A2 JUMPI PUSH1 0x0 DUP5 ISZERO PUSH2 0x108A JUMPI POP DUP6 DUP4 ADD MLOAD JUMPDEST PUSH1 0x0 NOT PUSH1 0x3 DUP7 SWAP1 SHL SHR NOT AND PUSH1 0x1 DUP6 SWAP1 SHL OR DUP6 SSTORE PUSH2 0x1036 JUMP JUMPDEST PUSH1 0x0 DUP6 DUP2 MSTORE PUSH1 0x20 DUP2 KECCAK256 PUSH1 0x1F NOT DUP7 AND SWAP2 JUMPDEST DUP3 DUP2 LT ISZERO PUSH2 0x10D1 JUMPI DUP9 DUP7 ADD MLOAD DUP3 SSTORE SWAP5 DUP5 ADD SWAP5 PUSH1 0x1 SWAP1 SWAP2 ADD SWAP1 DUP5 ADD PUSH2 0x10B2 JUMP JUMPDEST POP DUP6 DUP3 LT ISZERO PUSH2 0x10EF JUMPI DUP8 DUP6 ADD MLOAD PUSH1 0x0 NOT PUSH1 0x3 DUP9 SWAP1 SHL PUSH1 0xF8 AND SHR NOT AND DUP2 SSTORE JUMPDEST POP POP POP POP POP PUSH1 0x1 SWAP1 DUP2 SHL ADD SWAP1 SSTORE POP JUMP JUMPDEST PUSH1 0x0 PUSH1 0x1 DUP3 ADD PUSH2 0x1111 JUMPI PUSH2 0x1111 PUSH2 0xF61 JUMP JUMPDEST POP PUSH1 0x1 ADD SWAP1 JUMP INVALID LOG2 PUSH5 0x6970667358 0x22 SLT KECCAK256 PUSH27 0x570EE3C8CB61407E73245B07EAEF98EA43DADA334B52D01D6F9080 0x4A DUP16 0xA9 0xCE PUSH5 0x736F6C6343 STOP ADDMOD SGT STOP CALLER "
				},
				"gasEstimates": {
					"creation": {
						"codeDepositCost": "886000",
						"executionCost": "5928",
						"totalCost": "891928"
					},
					"external": {
						"getGameHistory()": "infinite",
						"getSpecificGameHistory(uint256)": "infinite",
						"getUser1(uint256)": "9091",
						"play()": "infinite",
						"user1address()": "2337",
						"user2address()": "2349",
						"userEnterOption(uint256)": "infinite"
					},
					"internal": {
						"game()": "infinite"
					}
				},
				"methodIdentifiers": {
					"getGameHistory()": "512ec557",
					"getSpecificGameHistory(uint256)": "f7c4efbb",
					"getUser1(uint256)": "e417f4a3",
					"play()": "93e84cd9",
					"user1address()": "6ef595d8",
					"user2address()": "3d5e9d2d",
					"userEnterOption(uint256)": "2cde7869"
				}
			},
			"storageLayout": {
				"storage": [
					{
						"astId": 18,
						"contract": "Practical3-Use-UI_Plya-Jason.sol:RockPaperScissors",
						"label": "userCount",
						"offset": 0,
						"slot": "0",
						"type": "t_uint256"
					},
					{
						"astId": 22,
						"contract": "Practical3-Use-UI_Plya-Jason.sol:RockPaperScissors",
						"label": "gameHistory",
						"offset": 0,
						"slot": "1",
						"type": "t_array(t_struct(GameInfo)15_storage)dyn_storage"
					},
					{
						"astId": 24,
						"contract": "Practical3-Use-UI_Plya-Jason.sol:RockPaperScissors",
						"label": "locked",
						"offset": 0,
						"slot": "2",
						"type": "t_bool"
					},
					{
						"astId": 26,
						"contract": "Practical3-Use-UI_Plya-Jason.sol:RockPaperScissors",
						"label": "user1address",
						"offset": 1,
						"slot": "2",
						"type": "t_address"
					},
					{
						"astId": 28,
						"contract": "Practical3-Use-UI_Plya-Jason.sol:RockPaperScissors",
						"label": "user2address",
						"offset": 0,
						"slot": "3",
						"type": "t_address"
					}
				],
				"types": {
					"t_address": {
						"encoding": "inplace",
						"label": "address",
						"numberOfBytes": "20"
					},
					"t_array(t_struct(GameInfo)15_storage)dyn_storage": {
						"base": "t_struct(GameInfo)15_storage",
						"encoding": "dynamic_array",
						"label": "struct RockPaperScissors.GameInfo[]",
						"numberOfBytes": "32"
					},
					"t_bool": {
						"encoding": "inplace",
						"label": "bool",
						"numberOfBytes": "1"
					},
					"t_string_storage": {
						"encoding": "bytes",
						"label": "string",
						"numberOfBytes": "32"
					},
					"t_struct(GameInfo)15_storage": {
						"encoding": "inplace",
						"label": "struct RockPaperScissors.GameInfo",
						"members": [
							{
								"astId": 9,
								"contract": "Practical3-Use-UI_Plya-Jason.sol:RockPaperScissors",
								"label": "user1",
								"offset": 0,
								"slot": "0",
								"type": "t_struct(UserInfo)6_storage"
							},
							{
								"astId": 12,
								"contract": "Practical3-Use-UI_Plya-Jason.sol:RockPaperScissors",
								"label": "user2",
								"offset": 0,
								"slot": "2",
								"type": "t_struct(UserInfo)6_storage"
							},
							{
								"astId": 14,
								"contract": "Practical3-Use-UI_Plya-Jason.sol:RockPaperScissors",
								"label": "finalResult",
								"offset": 0,
								"slot": "4",
								"type": "t_string_storage"
							}
						],
						"numberOfBytes": "160"
					},
					"t_struct(UserInfo)6_storage": {
						"encoding": "inplace",
						"label": "struct RockPaperScissors.UserInfo",
						"members": [
							{
								"astId": 3,
								"contract": "Practical3-Use-UI_Plya-Jason.sol:RockPaperScissors",
								"label": "userAddress",
								"offset": 0,
								"slot": "0",
								"type": "t_address"
							},
							{
								"astId": 5,
								"contract": "Practical3-Use-UI_Plya-Jason.sol:RockPaperScissors",
								"label": "userOption",
								"offset": 0,
								"slot": "1",
								"type": "t_uint256"
							}
						],
						"numberOfBytes": "64"
					},
					"t_uint256": {
						"encoding": "inplace",
						"label": "uint256",
						"numberOfBytes": "32"
					}
				}
			},
			"userdoc": {
				"kind": "user",
				"methods": {},
				"version": 1
			}
		}
	}
}