{
	"Practical6-Apply-TTT-Token.sol": {
		"TickTackToe": {
			"abi": [
				{
					"anonymous": false,
					"inputs": [
						{
							"indexed": false,
							"internalType": "uint256",
							"name": "gameId",
							"type": "uint256"
						}
					],
					"name": "createRoom",
					"type": "event"
				},
				{
					"anonymous": false,
					"inputs": [
						{
							"components": [
								{
									"internalType": "bool",
									"name": "_activate",
									"type": "bool"
								},
								{
									"internalType": "string",
									"name": "_currentPlayer",
									"type": "string"
								},
								{
									"internalType": "string[]",
									"name": "_options",
									"type": "string[]"
								},
								{
									"internalType": "uint256[]",
									"name": "_finalWinOption",
									"type": "uint256[]"
								},
								{
									"internalType": "address",
									"name": "_player1address",
									"type": "address"
								},
								{
									"internalType": "address",
									"name": "_player2address",
									"type": "address"
								},
								{
									"internalType": "uint256",
									"name": "_playerCount",
									"type": "uint256"
								},
								{
									"internalType": "address",
									"name": "_winer",
									"type": "address"
								}
							],
							"indexed": false,
							"internalType": "struct TickTackToe.GameInfo",
							"name": "gameinfo",
							"type": "tuple"
						},
						{
							"indexed": false,
							"internalType": "uint256",
							"name": "gameId",
							"type": "uint256"
						}
					],
					"name": "joinRoom",
					"type": "event"
				},
				{
					"anonymous": false,
					"inputs": [
						{
							"indexed": false,
							"internalType": "string",
							"name": "next",
							"type": "string"
						},
						{
							"indexed": false,
							"internalType": "uint256",
							"name": "gameId",
							"type": "uint256"
						}
					],
					"name": "nextUesrStr",
					"type": "event"
				},
				{
					"anonymous": false,
					"inputs": [
						{
							"indexed": false,
							"internalType": "address",
							"name": "nextUser",
							"type": "address"
						},
						{
							"indexed": false,
							"internalType": "uint256",
							"name": "gameId",
							"type": "uint256"
						}
					],
					"name": "nextUser",
					"type": "event"
				},
				{
					"anonymous": false,
					"inputs": [
						{
							"indexed": false,
							"internalType": "uint256",
							"name": "gameId",
							"type": "uint256"
						}
					],
					"name": "resetUI",
					"type": "event"
				},
				{
					"anonymous": false,
					"inputs": [
						{
							"indexed": false,
							"internalType": "address",
							"name": "player1Address",
							"type": "address"
						},
						{
							"indexed": false,
							"internalType": "uint256",
							"name": "gameId",
							"type": "uint256"
						}
					],
					"name": "showFirstPlayer",
					"type": "event"
				},
				{
					"anonymous": false,
					"inputs": [
						{
							"indexed": false,
							"internalType": "string",
							"name": "result",
							"type": "string"
						},
						{
							"indexed": false,
							"internalType": "uint256",
							"name": "gameId",
							"type": "uint256"
						}
					],
					"name": "showResult",
					"type": "event"
				},
				{
					"anonymous": false,
					"inputs": [
						{
							"indexed": false,
							"internalType": "string",
							"name": "message",
							"type": "string"
						},
						{
							"indexed": false,
							"internalType": "address",
							"name": "player1",
							"type": "address"
						},
						{
							"indexed": false,
							"internalType": "address",
							"name": "player2",
							"type": "address"
						},
						{
							"indexed": false,
							"internalType": "uint256",
							"name": "gameId",
							"type": "uint256"
						}
					],
					"name": "startGame",
					"type": "event"
				},
				{
					"anonymous": false,
					"inputs": [
						{
							"indexed": false,
							"internalType": "string[]",
							"name": "options",
							"type": "string[]"
						},
						{
							"indexed": false,
							"internalType": "uint256",
							"name": "gameId",
							"type": "uint256"
						}
					],
					"name": "updateUI",
					"type": "event"
				},
				{
					"inputs": [
						{
							"internalType": "string",
							"name": "a",
							"type": "string"
						},
						{
							"internalType": "string",
							"name": "b",
							"type": "string"
						}
					],
					"name": "compareStrings",
					"outputs": [
						{
							"internalType": "bool",
							"name": "",
							"type": "bool"
						}
					],
					"stateMutability": "pure",
					"type": "function"
				},
				{
					"inputs": [],
					"name": "createGameRoom",
					"outputs": [],
					"stateMutability": "nonpayable",
					"type": "function"
				},
				{
					"inputs": [
						{
							"internalType": "uint256",
							"name": "",
							"type": "uint256"
						}
					],
					"name": "gameInformation",
					"outputs": [
						{
							"internalType": "bool",
							"name": "_activate",
							"type": "bool"
						},
						{
							"internalType": "string",
							"name": "_currentPlayer",
							"type": "string"
						},
						{
							"internalType": "address",
							"name": "_player1address",
							"type": "address"
						},
						{
							"internalType": "address",
							"name": "_player2address",
							"type": "address"
						},
						{
							"internalType": "uint256",
							"name": "_playerCount",
							"type": "uint256"
						},
						{
							"internalType": "address",
							"name": "_winer",
							"type": "address"
						}
					],
					"stateMutability": "view",
					"type": "function"
				},
				{
					"inputs": [],
					"name": "getAllGameInformation",
					"outputs": [
						{
							"components": [
								{
									"internalType": "bool",
									"name": "_activate",
									"type": "bool"
								},
								{
									"internalType": "string",
									"name": "_currentPlayer",
									"type": "string"
								},
								{
									"internalType": "string[]",
									"name": "_options",
									"type": "string[]"
								},
								{
									"internalType": "uint256[]",
									"name": "_finalWinOption",
									"type": "uint256[]"
								},
								{
									"internalType": "address",
									"name": "_player1address",
									"type": "address"
								},
								{
									"internalType": "address",
									"name": "_player2address",
									"type": "address"
								},
								{
									"internalType": "uint256",
									"name": "_playerCount",
									"type": "uint256"
								},
								{
									"internalType": "address",
									"name": "_winer",
									"type": "address"
								}
							],
							"internalType": "struct TickTackToe.GameInfo[]",
							"name": "",
							"type": "tuple[]"
						}
					],
					"stateMutability": "view",
					"type": "function"
				},
				{
					"inputs": [
						{
							"internalType": "uint256",
							"name": "gameId",
							"type": "uint256"
						}
					],
					"name": "getFinalWinOption",
					"outputs": [
						{
							"internalType": "uint256[]",
							"name": "",
							"type": "uint256[]"
						}
					],
					"stateMutability": "view",
					"type": "function"
				},
				{
					"inputs": [
						{
							"internalType": "uint256",
							"name": "gameId",
							"type": "uint256"
						}
					],
					"name": "getGameInformation",
					"outputs": [
						{
							"components": [
								{
									"internalType": "bool",
									"name": "_activate",
									"type": "bool"
								},
								{
									"internalType": "string",
									"name": "_currentPlayer",
									"type": "string"
								},
								{
									"internalType": "string[]",
									"name": "_options",
									"type": "string[]"
								},
								{
									"internalType": "uint256[]",
									"name": "_finalWinOption",
									"type": "uint256[]"
								},
								{
									"internalType": "address",
									"name": "_player1address",
									"type": "address"
								},
								{
									"internalType": "address",
									"name": "_player2address",
									"type": "address"
								},
								{
									"internalType": "uint256",
									"name": "_playerCount",
									"type": "uint256"
								},
								{
									"internalType": "address",
									"name": "_winer",
									"type": "address"
								}
							],
							"internalType": "struct TickTackToe.GameInfo",
							"name": "",
							"type": "tuple"
						}
					],
					"stateMutability": "view",
					"type": "function"
				},
				{
					"inputs": [
						{
							"internalType": "uint256",
							"name": "gameId",
							"type": "uint256"
						}
					],
					"name": "getoption",
					"outputs": [
						{
							"internalType": "string[]",
							"name": "",
							"type": "string[]"
						}
					],
					"stateMutability": "view",
					"type": "function"
				},
				{
					"inputs": [
						{
							"internalType": "uint256",
							"name": "gameId",
							"type": "uint256"
						}
					],
					"name": "joinGame",
					"outputs": [],
					"stateMutability": "nonpayable",
					"type": "function"
				},
				{
					"inputs": [
						{
							"internalType": "uint256",
							"name": "gameId",
							"type": "uint256"
						}
					],
					"name": "restartGame",
					"outputs": [],
					"stateMutability": "nonpayable",
					"type": "function"
				},
				{
					"inputs": [],
					"name": "showbalance",
					"outputs": [
						{
							"internalType": "uint256",
							"name": "",
							"type": "uint256"
						}
					],
					"stateMutability": "view",
					"type": "function"
				},
				{
					"inputs": [
						{
							"internalType": "uint256",
							"name": "input",
							"type": "uint256"
						},
						{
							"internalType": "uint256",
							"name": "gameId",
							"type": "uint256"
						}
					],
					"name": "userInput",
					"outputs": [],
					"stateMutability": "nonpayable",
					"type": "function"
				},
				{
					"inputs": [
						{
							"internalType": "uint256",
							"name": "gameId",
							"type": "uint256"
						}
					],
					"name": "validateRestartPlayer",
					"outputs": [],
					"stateMutability": "nonpayable",
					"type": "function"
				}
			],
			"devdoc": {
				"kind": "dev",
				"methods": {},
				"version": 1
			},
			"evm": {
				"assembly": "    /* \"Practical6-Apply-TTT-Token.sol\":203:279  IERC20 private TTTToken = IERC20(0xc6bDdCd0DA1c50281f02a57B8D2ada2ebF76AEC7) */\n  0x00\n  dup1\n  sload\n  not(sub(shl(0xa0, 0x01), 0x01))\n  and\n    /* \"Practical6-Apply-TTT-Token.sol\":236:278  0xc6bDdCd0DA1c50281f02a57B8D2ada2ebF76AEC7 */\n  0xc6bddcd0da1c50281f02a57b8d2ada2ebf76aec7\n    /* \"Practical6-Apply-TTT-Token.sol\":203:279  IERC20 private TTTToken = IERC20(0xc6bDdCd0DA1c50281f02a57B8D2ada2ebF76AEC7) */\n  or\n  dup2\n  sstore\n    /* \"Practical6-Apply-TTT-Token.sol\":1354:1617  uint[][] private winConditionSet=  ... */\n  0x0180\n  dup2\n  dup2\n  mstore\n    /* \"Practical6-Apply-TTT-Token.sol\":203:279  IERC20 private TTTToken = IERC20(0xc6bDdCd0DA1c50281f02a57B8D2ada2ebF76AEC7) */\n  0x01\n    /* \"Practical6-Apply-TTT-Token.sol\":1354:1617  uint[][] private winConditionSet=  ... */\n  0x01a0\n  dup2\n  swap1\n  mstore\n    /* \"Practical6-Apply-TTT-Token.sol\":1403:1404  2 */\n  0x02\n    /* \"Practical6-Apply-TTT-Token.sol\":1354:1617  uint[][] private winConditionSet=  ... */\n  0x01c0\n  dup2\n  swap1\n  mstore\n    /* \"Practical6-Apply-TTT-Token.sol\":176:10465  contract TickTackToe{... */\n  0x80\n    /* \"Practical6-Apply-TTT-Token.sol\":1354:1617  uint[][] private winConditionSet=  ... */\n  swap3\n  dup4\n  mstore\n    /* \"Practical6-Apply-TTT-Token.sol\":1414:1415  3 */\n  0x03\n    /* \"Practical6-Apply-TTT-Token.sol\":1354:1617  uint[][] private winConditionSet=  ... */\n  0x01e0\n  dup2\n  dup2\n  mstore\n    /* \"Practical6-Apply-TTT-Token.sol\":1417:1418  4 */\n  0x04\n    /* \"Practical6-Apply-TTT-Token.sol\":1354:1617  uint[][] private winConditionSet=  ... */\n  0x0200\n  dup2\n  swap1\n  mstore\n    /* \"Practical6-Apply-TTT-Token.sol\":1420:1421  5 */\n  0x05\n    /* \"Practical6-Apply-TTT-Token.sol\":1354:1617  uint[][] private winConditionSet=  ... */\n  0x0220\n  dup2\n  swap1\n  mstore\n  0xa0\n  swap3\n  swap1\n  swap3\n  mstore\n    /* \"Practical6-Apply-TTT-Token.sol\":1459:1460  6 */\n  0x06\n    /* \"Practical6-Apply-TTT-Token.sol\":1354:1617  uint[][] private winConditionSet=  ... */\n  0x0240\n  dup2\n  dup2\n  mstore\n    /* \"Practical6-Apply-TTT-Token.sol\":1462:1463  7 */\n  0x07\n    /* \"Practical6-Apply-TTT-Token.sol\":1354:1617  uint[][] private winConditionSet=  ... */\n  0x0260\n  dup2\n  swap1\n  mstore\n    /* \"Practical6-Apply-TTT-Token.sol\":1465:1466  8 */\n  0x08\n    /* \"Practical6-Apply-TTT-Token.sol\":1354:1617  uint[][] private winConditionSet=  ... */\n  0x0280\n  dup2\n  swap1\n  mstore\n  0xc0\n  swap3\n  swap1\n  swap3\n  mstore\n  0x02a0\n  dup11\n  dup2\n  mstore\n  0x02c0\n  swap7\n  swap1\n  swap7\n  mstore\n  0x02e0\n  dup4\n  swap1\n  mstore\n  0xe0\n  swap6\n  swap1\n  swap6\n  mstore\n  0x0300\n  swap7\n  dup8\n  mstore\n  0x0320\n  dup4\n  swap1\n  mstore\n  0x0340\n  swap5\n  swap1\n  swap5\n  mstore\n    /* \"Practical6-Apply-TTT-Token.sol\":203:279  IERC20 private TTTToken = IERC20(0xc6bDdCd0DA1c50281f02a57B8D2ada2ebF76AEC7) */\n  0x0100\n    /* \"Practical6-Apply-TTT-Token.sol\":1354:1617  uint[][] private winConditionSet=  ... */\n  swap6\n  swap1\n  swap6\n  mstore\n  0x0360\n  dup5\n  dup2\n  mstore\n  0x0380\n  swap3\n  swap1\n  swap3\n  mstore\n  0x03a0\n  dup4\n  swap1\n  mstore\n  0x0120\n  swap2\n  swap1\n  swap2\n  mstore\n  0x03c0\n  swap6\n  dup7\n  mstore\n  0x03e0\n  dup2\n  swap1\n  mstore\n  0x0400\n  dup3\n  swap1\n  mstore\n  0x0140\n  swap6\n  swap1\n  swap6\n  mstore\n  0x0480\n    /* \"Practical6-Apply-TTT-Token.sol\":176:10465  contract TickTackToe{... */\n  0x40\n    /* \"Practical6-Apply-TTT-Token.sol\":1354:1617  uint[][] private winConditionSet=  ... */\n  mstore\n  0x0420\n  dup3\n  dup2\n  mstore\n  0x0440\n  swap6\n  swap1\n  swap6\n  mstore\n  0x0460\n  swap3\n  swap1\n  swap3\n  mstore\n  0x0160\n  swap4\n  swap1\n  swap4\n  mstore\n  tag_1\n  swap3\n    /* \"Practical6-Apply-TTT-Token.sol\":1403:1404  2 */\n  swap2\n    /* \"Practical6-Apply-TTT-Token.sol\":176:10465  contract TickTackToe{... */\n  swap1\n    /* \"Practical6-Apply-TTT-Token.sol\":1354:1617  uint[][] private winConditionSet=  ... */\n  tag_2\n  jump\t// in\ntag_1:\n  pop\n    /* \"Practical6-Apply-TTT-Token.sol\":176:10465  contract TickTackToe{... */\n  callvalue\n  dup1\n  iszero\n  tag_3\n  jumpi\n  0x00\n  dup1\n  revert\ntag_3:\n  pop\n  jump(tag_4)\ntag_2:\n  dup3\n  dup1\n  sload\n  dup3\n  dup3\n  sstore\n  swap1\n  0x00\n  mstore\n  keccak256(0x00, 0x20)\n  swap1\n  dup2\n  add\n  swap3\n  dup3\n  iszero\n  tag_7\n  jumpi\n  swap2\n  0x20\n  mul\n  dup3\n  add\ntag_6:\n  dup3\n  dup2\n  gt\n  iszero\n  tag_7\n  jumpi\n  dup3\n  mload\n  tag_8\n  swap1\n  dup4\n  swap1\n  0x03\n  tag_9\n  jump\t// in\ntag_8:\n  pop\n  swap2\n  0x20\n  add\n  swap2\n  swap1\n  0x01\n  add\n  swap1\n  jump(tag_6)\ntag_7:\n  pop\n  tag_10\n  swap3\n  swap2\n  pop\n  tag_11\n  jump\t// in\ntag_10:\n  pop\n  swap1\n  jump\t// out\ntag_9:\n  dup3\n  dup1\n  sload\n  dup3\n  dup3\n  sstore\n  swap1\n  0x00\n  mstore\n  keccak256(0x00, 0x20)\n  swap1\n  dup2\n  add\n  swap3\n  dup3\n  iszero\n  tag_14\n  jumpi\n  swap2\n  0x20\n  mul\n  dup3\n  add\ntag_13:\n  dup3\n  dup2\n  gt\n  iszero\n  tag_14\n  jumpi\n  dup3\n  mload\n  dup3\n  swap1\n  0xff\n  and\n  swap1\n  sstore\n  swap2\n  0x20\n  add\n  swap2\n  swap1\n  0x01\n  add\n  swap1\n  jump(tag_13)\ntag_14:\n  pop\n  tag_10\n  swap3\n  swap2\n  pop\n  tag_16\n  jump\t// in\ntag_11:\n  dup1\n  dup3\n  gt\n  iszero\n  tag_10\n  jumpi\n  0x00\n  tag_19\n  dup3\n  dup3\n  tag_20\n  jump\t// in\ntag_19:\n  pop\n  0x01\n  add\n  jump(tag_11)\ntag_16:\ntag_21:\n  dup1\n  dup3\n  gt\n  iszero\n  tag_10\n  jumpi\n  0x00\n  dup2\n  sstore\n  0x01\n  add\n  jump(tag_21)\ntag_20:\n  pop\n  dup1\n  sload\n  0x00\n  dup3\n  sstore\n  swap1\n  0x00\n  mstore\n  keccak256(0x00, 0x20)\n  swap1\n  dup2\n  add\n  swap1\n  tag_24\n  swap2\n  swap1\n  tag_16\n  jump\t// in\ntag_24:\n  pop\n  jump\t// out\ntag_4:\n  dataSize(sub_0)\n  dup1\n  dataOffset(sub_0)\n  0x00\n  codecopy\n  0x00\n  return\nstop\n\nsub_0: assembly {\n        /* \"Practical6-Apply-TTT-Token.sol\":176:10465  contract TickTackToe{... */\n      mstore(0x40, 0x80)\n      callvalue\n      dup1\n      iszero\n      tag_1\n      jumpi\n      0x00\n      dup1\n      revert\n    tag_1:\n      pop\n      jumpi(tag_2, lt(calldatasize, 0x04))\n      shr(0xe0, calldataload(0x00))\n      dup1\n      0x97ca20bf\n      gt\n      tag_15\n      jumpi\n      dup1\n      0x97ca20bf\n      eq\n      tag_9\n      jumpi\n      dup1\n      0xb2182be4\n      eq\n      tag_10\n      jumpi\n      dup1\n      0xbed34bba\n      eq\n      tag_11\n      jumpi\n      dup1\n      0xdc572c6e\n      eq\n      tag_12\n      jumpi\n      dup1\n      0xe8e37354\n      eq\n      tag_13\n      jumpi\n      dup1\n      0xefaa55a0\n      eq\n      tag_14\n      jumpi\n      0x00\n      dup1\n      revert\n    tag_15:\n      dup1\n      0x17b44960\n      eq\n      tag_3\n      jumpi\n      dup1\n      0x34fd3518\n      eq\n      tag_4\n      jumpi\n      dup1\n      0x491f0136\n      eq\n      tag_5\n      jumpi\n      dup1\n      0x4a968391\n      eq\n      tag_6\n      jumpi\n      dup1\n      0x52bc3410\n      eq\n      tag_7\n      jumpi\n      dup1\n      0x87052fab\n      eq\n      tag_8\n      jumpi\n    tag_2:\n      0x00\n      dup1\n      revert\n        /* \"Practical6-Apply-TTT-Token.sol\":2509:2652  function getFinalWinOption (uint gameId) external view returns (uint[] memory){... */\n    tag_3:\n      tag_16\n      tag_17\n      calldatasize\n      0x04\n      tag_18\n      jump\t// in\n    tag_17:\n      tag_19\n      jump\t// in\n    tag_16:\n      mload(0x40)\n      tag_20\n      swap2\n      swap1\n      tag_21\n      jump\t// in\n    tag_20:\n      mload(0x40)\n      dup1\n      swap2\n      sub\n      swap1\n      return\n        /* \"Practical6-Apply-TTT-Token.sol\":9542:9864  function validateRestartPlayer (uint gameId) public {... */\n    tag_4:\n      tag_22\n      tag_23\n      calldatasize\n      0x04\n      tag_18\n      jump\t// in\n    tag_23:\n      tag_24\n      jump\t// in\n    tag_22:\n      stop\n        /* \"Practical6-Apply-TTT-Token.sol\":2802:2918  function getAllGameInformation () external view returns (GameInfo[] memory){... */\n    tag_5:\n      tag_25\n      tag_26\n      jump\t// in\n    tag_25:\n      mload(0x40)\n      tag_20\n      swap2\n      swap1\n      tag_28\n      jump\t// in\n        /* \"Practical6-Apply-TTT-Token.sol\":10191:10460  function restartGame(uint gameId) public {... */\n    tag_6:\n      tag_22\n      tag_30\n      calldatasize\n      0x04\n      tag_18\n      jump\t// in\n    tag_30:\n      tag_31\n      jump\t// in\n        /* \"Practical6-Apply-TTT-Token.sol\":4689:5679  function userInput(uint input, uint gameId) external {... */\n    tag_7:\n      tag_22\n      tag_33\n      calldatasize\n      0x04\n      tag_34\n      jump\t// in\n    tag_33:\n      tag_35\n      jump\t// in\n        /* \"Practical6-Apply-TTT-Token.sol\":748:781  GameInfo[] public gameInformation */\n    tag_8:\n      tag_36\n      tag_37\n      calldatasize\n      0x04\n      tag_18\n      jump\t// in\n    tag_37:\n      tag_38\n      jump\t// in\n    tag_36:\n      mload(0x40)\n      tag_20\n      swap7\n      swap6\n      swap5\n      swap4\n      swap3\n      swap2\n      swap1\n      tag_40\n      jump\t// in\n        /* \"Practical6-Apply-TTT-Token.sol\":2954:3532  function createGameRoom() external {... */\n    tag_9:\n      tag_22\n      tag_42\n      jump\t// in\n        /* \"Practical6-Apply-TTT-Token.sol\":2660:2790  function getGameInformation (uint gameId) external view returns (GameInfo memory){... */\n    tag_10:\n      tag_43\n      tag_44\n      calldatasize\n      0x04\n      tag_18\n      jump\t// in\n    tag_44:\n      tag_45\n      jump\t// in\n    tag_43:\n      mload(0x40)\n      tag_20\n      swap2\n      swap1\n      tag_47\n      jump\t// in\n        /* \"Practical6-Apply-TTT-Token.sol\":9283:9530  function compareStrings(string memory a, string memory b) public pure returns (bool) {... */\n    tag_11:\n      tag_48\n      tag_49\n      calldatasize\n      0x04\n      tag_50\n      jump\t// in\n    tag_49:\n      tag_51\n      jump\t// in\n    tag_48:\n      mload(0x40)\n        /* \"#utility.yul\":7264:7278   */\n      swap1\n      iszero\n        /* \"#utility.yul\":7257:7279   */\n      iszero\n        /* \"#utility.yul\":7239:7280   */\n      dup2\n      mstore\n        /* \"#utility.yul\":7227:7229   */\n      0x20\n        /* \"#utility.yul\":7212:7230   */\n      add\n        /* \"Practical6-Apply-TTT-Token.sol\":9283:9530  function compareStrings(string memory a, string memory b) public pure returns (bool) {... */\n      tag_20\n        /* \"#utility.yul\":7099:7286   */\n      jump\n        /* \"Practical6-Apply-TTT-Token.sol\":2328:2458  function getoption (uint gameId) external view returns (string[] memory){... */\n    tag_12:\n      tag_54\n      tag_55\n      calldatasize\n      0x04\n      tag_18\n      jump\t// in\n    tag_55:\n      tag_56\n      jump\t// in\n    tag_54:\n      mload(0x40)\n      tag_20\n      swap2\n      swap1\n      tag_58\n      jump\t// in\n        /* \"Practical6-Apply-TTT-Token.sol\":312:452  function showbalance () external view returns (uint){... */\n    tag_13:\n      tag_59\n      tag_60\n      jump\t// in\n    tag_59:\n      mload(0x40)\n        /* \"#utility.yul\":8245:8270   */\n      swap1\n      dup2\n      mstore\n        /* \"#utility.yul\":8233:8235   */\n      0x20\n        /* \"#utility.yul\":8218:8236   */\n      add\n        /* \"Practical6-Apply-TTT-Token.sol\":312:452  function showbalance () external view returns (uint){... */\n      tag_20\n        /* \"#utility.yul\":8099:8276   */\n      jump\n        /* \"Practical6-Apply-TTT-Token.sol\":3559:4583  function joinGame (uint gameId) external {... */\n    tag_14:\n      tag_22\n      tag_64\n      calldatasize\n      0x04\n      tag_18\n      jump\t// in\n    tag_64:\n      tag_65\n      jump\t// in\n        /* \"Practical6-Apply-TTT-Token.sol\":2509:2652  function getFinalWinOption (uint gameId) external view returns (uint[] memory){... */\n    tag_19:\n        /* \"Practical6-Apply-TTT-Token.sol\":2573:2586  uint[] memory */\n      0x60\n        /* \"Practical6-Apply-TTT-Token.sol\":2605:2620  gameInformation */\n      0x01\n        /* \"Practical6-Apply-TTT-Token.sol\":2621:2627  gameId */\n      dup3\n        /* \"Practical6-Apply-TTT-Token.sol\":2605:2628  gameInformation[gameId] */\n      dup2\n      sload\n      dup2\n      lt\n      tag_68\n      jumpi\n      tag_68\n      tag_69\n      jump\t// in\n    tag_68:\n      swap1\n      0x00\n      mstore\n      keccak256(0x00, 0x20)\n      swap1\n      0x08\n      mul\n      add\n        /* \"Practical6-Apply-TTT-Token.sol\":2605:2644  gameInformation[gameId]._finalWinOption */\n      0x03\n      add\n        /* \"Practical6-Apply-TTT-Token.sol\":2598:2644  return gameInformation[gameId]._finalWinOption */\n      dup1\n      sload\n      dup1\n      0x20\n      mul\n      0x20\n      add\n      mload(0x40)\n      swap1\n      dup2\n      add\n      0x40\n      mstore\n      dup1\n      swap3\n      swap2\n      swap1\n      dup2\n      dup2\n      mstore\n      0x20\n      add\n      dup3\n      dup1\n      sload\n      dup1\n      iszero\n      tag_71\n      jumpi\n      0x20\n      mul\n      dup3\n      add\n      swap2\n      swap1\n      0x00\n      mstore\n      keccak256(0x00, 0x20)\n      swap1\n    tag_72:\n      dup2\n      sload\n      dup2\n      mstore\n      0x20\n      add\n      swap1\n      0x01\n      add\n      swap1\n      dup1\n      dup4\n      gt\n      tag_72\n      jumpi\n    tag_71:\n      pop\n      pop\n      pop\n      pop\n      pop\n      swap1\n      pop\n        /* \"Practical6-Apply-TTT-Token.sol\":2509:2652  function getFinalWinOption (uint gameId) external view returns (uint[] memory){... */\n      swap2\n      swap1\n      pop\n      jump\t// out\n        /* \"Practical6-Apply-TTT-Token.sol\":9542:9864  function validateRestartPlayer (uint gameId) public {... */\n    tag_24:\n        /* \"Practical6-Apply-TTT-Token.sol\":9689:9709  checkAddress(gameId) */\n      tag_74\n        /* \"Practical6-Apply-TTT-Token.sol\":9702:9708  gameId */\n      dup2\n        /* \"Practical6-Apply-TTT-Token.sol\":9689:9701  checkAddress */\n      tag_75\n        /* \"Practical6-Apply-TTT-Token.sol\":9689:9709  checkAddress(gameId) */\n      jump\t// in\n    tag_74:\n        /* \"Practical6-Apply-TTT-Token.sol\":9681:9742  require(checkAddress(gameId), \"you are not this game player\") */\n      tag_76\n      jumpi\n      mload(0x40)\n      shl(0xe5, 0x461bcd)\n      dup2\n      mstore\n        /* \"#utility.yul\":8615:8617   */\n      0x20\n        /* \"Practical6-Apply-TTT-Token.sol\":9681:9742  require(checkAddress(gameId), \"you are not this game player\") */\n      0x04\n      dup3\n      add\n        /* \"#utility.yul\":8597:8618   */\n      mstore\n        /* \"#utility.yul\":8654:8656   */\n      0x1c\n        /* \"#utility.yul\":8634:8652   */\n      0x24\n      dup3\n      add\n        /* \"#utility.yul\":8627:8657   */\n      mstore\n        /* \"#utility.yul\":8693:8723   */\n      0x796f7520617265206e6f7420746869732067616d6520706c6179657200000000\n        /* \"#utility.yul\":8673:8691   */\n      0x44\n      dup3\n      add\n        /* \"#utility.yul\":8666:8724   */\n      mstore\n        /* \"#utility.yul\":8741:8759   */\n      0x64\n      add\n        /* \"Practical6-Apply-TTT-Token.sol\":9681:9742  require(checkAddress(gameId), \"you are not this game player\") */\n    tag_77:\n      mload(0x40)\n      dup1\n      swap2\n      sub\n      swap1\n      revert\n    tag_76:\n        /* \"Practical6-Apply-TTT-Token.sol\":9761:9776  gameInformation */\n      0x01\n        /* \"Practical6-Apply-TTT-Token.sol\":9777:9783  gameId */\n      dup2\n        /* \"Practical6-Apply-TTT-Token.sol\":9761:9784  gameInformation[gameId] */\n      dup2\n      sload\n      dup2\n      lt\n      tag_80\n      jumpi\n      tag_80\n      tag_69\n      jump\t// in\n    tag_80:\n      0x00\n      swap2\n      dup3\n      mstore\n      0x20\n      swap1\n      swap2\n      keccak256\n      0x08\n      swap1\n      swap2\n      mul\n      add\n        /* \"Practical6-Apply-TTT-Token.sol\":9761:9794  gameInformation[gameId]._activate */\n      sload\n      0xff\n      and\n        /* \"Practical6-Apply-TTT-Token.sol\":9761:9803  gameInformation[gameId]._activate == false */\n      iszero\n        /* \"Practical6-Apply-TTT-Token.sol\":9753:9826  require(gameInformation[gameId]._activate == false, \"Game still playing\") */\n      tag_82\n      jumpi\n      mload(0x40)\n      shl(0xe5, 0x461bcd)\n      dup2\n      mstore\n        /* \"#utility.yul\":8972:8974   */\n      0x20\n        /* \"Practical6-Apply-TTT-Token.sol\":9753:9826  require(gameInformation[gameId]._activate == false, \"Game still playing\") */\n      0x04\n      dup3\n      add\n        /* \"#utility.yul\":8954:8975   */\n      mstore\n        /* \"#utility.yul\":9011:9013   */\n      0x12\n        /* \"#utility.yul\":8991:9009   */\n      0x24\n      dup3\n      add\n        /* \"#utility.yul\":8984:9014   */\n      mstore\n      shl(0x70, 0x47616d65207374696c6c20706c6179696e67)\n        /* \"#utility.yul\":9030:9048   */\n      0x44\n      dup3\n      add\n        /* \"#utility.yul\":9023:9071   */\n      mstore\n        /* \"#utility.yul\":9088:9106   */\n      0x64\n      add\n        /* \"Practical6-Apply-TTT-Token.sol\":9753:9826  require(gameInformation[gameId]._activate == false, \"Game still playing\") */\n      tag_77\n        /* \"#utility.yul\":8770:9112   */\n      jump\n        /* \"Practical6-Apply-TTT-Token.sol\":9753:9826  require(gameInformation[gameId]._activate == false, \"Game still playing\") */\n    tag_82:\n        /* \"Practical6-Apply-TTT-Token.sol\":9837:9856  restartGame(gameId) */\n      tag_85\n        /* \"Practical6-Apply-TTT-Token.sol\":9849:9855  gameId */\n      dup2\n        /* \"Practical6-Apply-TTT-Token.sol\":9837:9848  restartGame */\n      tag_31\n        /* \"Practical6-Apply-TTT-Token.sol\":9837:9856  restartGame(gameId) */\n      jump\t// in\n    tag_85:\n        /* \"Practical6-Apply-TTT-Token.sol\":9542:9864  function validateRestartPlayer (uint gameId) public {... */\n      pop\n      jump\t// out\n        /* \"Practical6-Apply-TTT-Token.sol\":2802:2918  function getAllGameInformation () external view returns (GameInfo[] memory){... */\n    tag_26:\n        /* \"Practical6-Apply-TTT-Token.sol\":2859:2876  GameInfo[] memory */\n      0x60\n        /* \"Practical6-Apply-TTT-Token.sol\":2895:2910  gameInformation */\n      0x01\n        /* \"Practical6-Apply-TTT-Token.sol\":2888:2910  return gameInformation */\n      dup1\n      sload\n      dup1\n      0x20\n      mul\n      0x20\n      add\n      mload(0x40)\n      swap1\n      dup2\n      add\n      0x40\n      mstore\n      dup1\n      swap3\n      swap2\n      swap1\n      dup2\n      dup2\n      mstore\n      0x20\n      add\n      0x00\n      swap1\n    tag_87:\n      dup3\n      dup3\n      lt\n      iszero\n      tag_88\n      jumpi\n      0x00\n      dup5\n      dup2\n      mstore\n      0x20\n      swap1\n      dup2\n      swap1\n      keccak256\n      0x40\n      dup1\n      mload\n      0x0100\n      dup2\n      add\n      swap1\n      swap2\n      mstore\n      0x08\n      dup6\n      mul\n      swap1\n      swap2\n      add\n      dup1\n      sload\n      0xff\n      and\n      iszero\n      iszero\n      dup3\n      mstore\n      0x01\n      dup2\n      add\n      dup1\n      sload\n      swap3\n      swap4\n      swap2\n      swap3\n      swap2\n      dup5\n      add\n      swap2\n      tag_90\n      swap1\n      tag_91\n      jump\t// in\n    tag_90:\n      dup1\n      0x1f\n      add\n      0x20\n      dup1\n      swap2\n      div\n      mul\n      0x20\n      add\n      mload(0x40)\n      swap1\n      dup2\n      add\n      0x40\n      mstore\n      dup1\n      swap3\n      swap2\n      swap1\n      dup2\n      dup2\n      mstore\n      0x20\n      add\n      dup3\n      dup1\n      sload\n      tag_92\n      swap1\n      tag_91\n      jump\t// in\n    tag_92:\n      dup1\n      iszero\n      tag_93\n      jumpi\n      dup1\n      0x1f\n      lt\n      tag_94\n      jumpi\n      0x0100\n      dup1\n      dup4\n      sload\n      div\n      mul\n      dup4\n      mstore\n      swap2\n      0x20\n      add\n      swap2\n      jump(tag_93)\n    tag_94:\n      dup3\n      add\n      swap2\n      swap1\n      0x00\n      mstore\n      keccak256(0x00, 0x20)\n      swap1\n    tag_95:\n      dup2\n      sload\n      dup2\n      mstore\n      swap1\n      0x01\n      add\n      swap1\n      0x20\n      add\n      dup1\n      dup4\n      gt\n      tag_95\n      jumpi\n      dup3\n      swap1\n      sub\n      0x1f\n      and\n      dup3\n      add\n      swap2\n    tag_93:\n      pop\n      pop\n      pop\n      pop\n      pop\n      dup2\n      mstore\n      0x20\n      add\n      0x02\n      dup3\n      add\n      dup1\n      sload\n      dup1\n      0x20\n      mul\n      0x20\n      add\n      mload(0x40)\n      swap1\n      dup2\n      add\n      0x40\n      mstore\n      dup1\n      swap3\n      swap2\n      swap1\n      dup2\n      dup2\n      mstore\n      0x20\n      add\n      0x00\n      swap1\n    tag_96:\n      dup3\n      dup3\n      lt\n      iszero\n      tag_97\n      jumpi\n      dup4\n      dup3\n      swap1\n      0x00\n      mstore\n      keccak256(0x00, 0x20)\n      add\n      dup1\n      sload\n      tag_99\n      swap1\n      tag_91\n      jump\t// in\n    tag_99:\n      dup1\n      0x1f\n      add\n      0x20\n      dup1\n      swap2\n      div\n      mul\n      0x20\n      add\n      mload(0x40)\n      swap1\n      dup2\n      add\n      0x40\n      mstore\n      dup1\n      swap3\n      swap2\n      swap1\n      dup2\n      dup2\n      mstore\n      0x20\n      add\n      dup3\n      dup1\n      sload\n      tag_100\n      swap1\n      tag_91\n      jump\t// in\n    tag_100:\n      dup1\n      iszero\n      tag_101\n      jumpi\n      dup1\n      0x1f\n      lt\n      tag_102\n      jumpi\n      0x0100\n      dup1\n      dup4\n      sload\n      div\n      mul\n      dup4\n      mstore\n      swap2\n      0x20\n      add\n      swap2\n      jump(tag_101)\n    tag_102:\n      dup3\n      add\n      swap2\n      swap1\n      0x00\n      mstore\n      keccak256(0x00, 0x20)\n      swap1\n    tag_103:\n      dup2\n      sload\n      dup2\n      mstore\n      swap1\n      0x01\n      add\n      swap1\n      0x20\n      add\n      dup1\n      dup4\n      gt\n      tag_103\n      jumpi\n      dup3\n      swap1\n      sub\n      0x1f\n      and\n      dup3\n      add\n      swap2\n    tag_101:\n      pop\n      pop\n      pop\n      pop\n      pop\n      dup2\n      mstore\n      0x20\n      add\n      swap1\n      0x01\n      add\n      swap1\n      jump(tag_96)\n    tag_97:\n      pop\n      pop\n      pop\n      pop\n      dup2\n      mstore\n      0x20\n      add\n      0x03\n      dup3\n      add\n      dup1\n      sload\n      dup1\n      0x20\n      mul\n      0x20\n      add\n      mload(0x40)\n      swap1\n      dup2\n      add\n      0x40\n      mstore\n      dup1\n      swap3\n      swap2\n      swap1\n      dup2\n      dup2\n      mstore\n      0x20\n      add\n      dup3\n      dup1\n      sload\n      dup1\n      iszero\n      tag_104\n      jumpi\n      0x20\n      mul\n      dup3\n      add\n      swap2\n      swap1\n      0x00\n      mstore\n      keccak256(0x00, 0x20)\n      swap1\n    tag_105:\n      dup2\n      sload\n      dup2\n      mstore\n      0x20\n      add\n      swap1\n      0x01\n      add\n      swap1\n      dup1\n      dup4\n      gt\n      tag_105\n      jumpi\n    tag_104:\n      pop\n      pop\n      pop\n      swap2\n      dup4\n      mstore\n      pop\n      pop\n      0x04\n      dup3\n      add\n      sload\n      sub(shl(0xa0, 0x01), 0x01)\n      swap1\n      dup2\n      and\n      0x20\n      dup1\n      dup5\n      add\n      swap2\n      swap1\n      swap2\n      mstore\n      0x05\n      dup5\n      add\n      sload\n      dup3\n      and\n      0x40\n      dup5\n      add\n      mstore\n      0x06\n      dup5\n      add\n      sload\n      0x60\n      dup5\n      add\n      mstore\n      0x07\n      swap1\n      swap4\n      add\n      sload\n      and\n      0x80\n      swap1\n      swap2\n      add\n      mstore\n      swap1\n      dup3\n      mstore\n      0x01\n      swap3\n      swap1\n      swap3\n      add\n      swap2\n      add\n      jump(tag_87)\n    tag_88:\n      pop\n      pop\n      pop\n      pop\n      swap1\n      pop\n        /* \"Practical6-Apply-TTT-Token.sol\":2802:2918  function getAllGameInformation () external view returns (GameInfo[] memory){... */\n      swap1\n      jump\t// out\n        /* \"Practical6-Apply-TTT-Token.sol\":10191:10460  function restartGame(uint gameId) public {... */\n    tag_31:\n        /* \"Practical6-Apply-TTT-Token.sol\":10243:10287  gameInformation[gameId]._currentPlayer = \"X\" */\n      mload(0x40)\n      dup1\n      0x40\n      add\n      0x40\n      mstore\n      dup1\n      0x01\n      dup2\n      mstore\n      0x20\n      add\n      shl(0xfb, 0x0b)\n      dup2\n      mstore\n      pop\n        /* \"Practical6-Apply-TTT-Token.sol\":10243:10258  gameInformation */\n      0x01\n        /* \"Practical6-Apply-TTT-Token.sol\":10259:10265  gameId */\n      dup3\n        /* \"Practical6-Apply-TTT-Token.sol\":10243:10266  gameInformation[gameId] */\n      dup2\n      sload\n      dup2\n      lt\n      tag_108\n      jumpi\n      tag_108\n      tag_69\n      jump\t// in\n    tag_108:\n      swap1\n      0x00\n      mstore\n      keccak256(0x00, 0x20)\n      swap1\n      0x08\n      mul\n      add\n        /* \"Practical6-Apply-TTT-Token.sol\":10243:10281  gameInformation[gameId]._currentPlayer */\n      0x01\n      add\n        /* \"Practical6-Apply-TTT-Token.sol\":10243:10287  gameInformation[gameId]._currentPlayer = \"X\" */\n      swap1\n      dup2\n      tag_110\n      swap2\n      swap1\n      tag_111\n      jump\t// in\n    tag_110:\n      pop\n        /* \"Practical6-Apply-TTT-Token.sol\":10298:10369  gameInformation[gameId]._options = [\"\", \"\", \"\", \"\", \"\", \"\", \"\", \"\", \"\"] */\n      0x40\n      dup1\n      mload\n      0x0140\n      dup2\n      add\n      dup3\n      mstore\n      0x00\n      0x0120\n      dup3\n      add\n      dup2\n      dup2\n      mstore\n      dup3\n      mstore\n      dup3\n      mload\n      0x20\n      dup2\n      dup2\n      add\n      dup6\n      mstore\n      dup3\n      dup3\n      mstore\n      dup1\n      dup5\n      add\n      swap2\n      swap1\n      swap2\n      mstore\n      dup4\n      mload\n      dup1\n      dup3\n      add\n      dup6\n      mstore\n      dup3\n      dup2\n      mstore\n      dup4\n      dup6\n      add\n      mstore\n      dup4\n      mload\n      dup1\n      dup3\n      add\n      dup6\n      mstore\n      dup3\n      dup2\n      mstore\n      0x60\n      dup5\n      add\n      mstore\n      dup4\n      mload\n      dup1\n      dup3\n      add\n      dup6\n      mstore\n      dup3\n      dup2\n      mstore\n      0x80\n      dup5\n      add\n      mstore\n      dup4\n      mload\n      dup1\n      dup3\n      add\n      dup6\n      mstore\n      dup3\n      dup2\n      mstore\n      0xa0\n      dup5\n      add\n      mstore\n      dup4\n      mload\n      dup1\n      dup3\n      add\n      dup6\n      mstore\n      dup3\n      dup2\n      mstore\n      0xc0\n      dup5\n      add\n      mstore\n      dup4\n      mload\n      dup1\n      dup3\n      add\n      dup6\n      mstore\n      dup3\n      dup2\n      mstore\n      0xe0\n      dup5\n      add\n      mstore\n      dup4\n      mload\n      swap1\n      dup2\n      add\n      swap1\n      swap4\n      mstore\n      dup3\n      mstore\n      0x0100\n      dup2\n      add\n      swap2\n      swap1\n      swap2\n      mstore\n        /* \"Practical6-Apply-TTT-Token.sol\":10298:10313  gameInformation */\n      0x01\n        /* \"Practical6-Apply-TTT-Token.sol\":10298:10321  gameInformation[gameId] */\n      dup1\n      sload\n        /* \"Practical6-Apply-TTT-Token.sol\":10314:10320  gameId */\n      dup4\n      swap1\n        /* \"Practical6-Apply-TTT-Token.sol\":10298:10321  gameInformation[gameId] */\n      dup2\n      lt\n      tag_113\n      jumpi\n      tag_113\n      tag_69\n      jump\t// in\n    tag_113:\n      swap1\n      0x00\n      mstore\n      keccak256(0x00, 0x20)\n      swap1\n      0x08\n      mul\n      add\n        /* \"Practical6-Apply-TTT-Token.sol\":10298:10330  gameInformation[gameId]._options */\n      0x02\n      add\n        /* \"Practical6-Apply-TTT-Token.sol\":10298:10369  gameInformation[gameId]._options = [\"\", \"\", \"\", \"\", \"\", \"\", \"\", \"\", \"\"] */\n      swap1\n      0x09\n      tag_115\n      swap3\n      swap2\n      swap1\n      tag_116\n      jump\t// in\n    tag_115:\n      pop\n        /* \"Practical6-Apply-TTT-Token.sol\":10417:10421  true */\n      0x01\n        /* \"Practical6-Apply-TTT-Token.sol\":10381:10396  gameInformation */\n      dup1\n        /* \"Practical6-Apply-TTT-Token.sol\":10397:10403  gameId */\n      dup3\n        /* \"Practical6-Apply-TTT-Token.sol\":10381:10404  gameInformation[gameId] */\n      dup2\n      sload\n      dup2\n      lt\n      tag_118\n      jumpi\n      tag_118\n      tag_69\n      jump\t// in\n    tag_118:\n      0x00\n      swap2\n      dup3\n      mstore\n      0x20\n      swap2\n      dup3\n      swap1\n      keccak256\n      0x08\n      swap1\n      swap2\n      mul\n      add\n        /* \"Practical6-Apply-TTT-Token.sol\":10381:10421  gameInformation[gameId]._activate = true */\n      dup1\n      sload\n      not(0xff)\n      and\n      swap3\n      iszero\n      iszero\n      swap3\n      swap1\n      swap3\n      or\n      swap1\n      swap2\n      sstore\n        /* \"Practical6-Apply-TTT-Token.sol\":10437:10452  resetUI(gameId) */\n      mload(0x40)\n        /* \"#utility.yul\":8245:8270   */\n      dup3\n      dup2\n      mstore\n        /* \"Practical6-Apply-TTT-Token.sol\":10437:10452  resetUI(gameId) */\n      0xc5478e3fe602c65e5cdd37abe42a8e007ff762d266b9e8256769194c1fa1361e\n      swap2\n        /* \"#utility.yul\":8218:8236   */\n      add\n        /* \"Practical6-Apply-TTT-Token.sol\":10437:10452  resetUI(gameId) */\n    tag_120:\n      mload(0x40)\n      dup1\n      swap2\n      sub\n      swap1\n      log1\n        /* \"Practical6-Apply-TTT-Token.sol\":10191:10460  function restartGame(uint gameId) public {... */\n      pop\n      jump\t// out\n        /* \"Practical6-Apply-TTT-Token.sol\":4689:5679  function userInput(uint input, uint gameId) external {... */\n    tag_35:\n        /* \"Practical6-Apply-TTT-Token.sol\":4761:4776  gameInformation */\n      0x01\n        /* \"Practical6-Apply-TTT-Token.sol\":4777:4783  gameId */\n      dup2\n        /* \"Practical6-Apply-TTT-Token.sol\":4761:4784  gameInformation[gameId] */\n      dup2\n      sload\n      dup2\n      lt\n      tag_123\n      jumpi\n      tag_123\n      tag_69\n      jump\t// in\n    tag_123:\n      0x00\n      swap2\n      dup3\n      mstore\n      0x20\n      swap1\n      swap2\n      keccak256\n      0x08\n      swap1\n      swap2\n      mul\n      add\n        /* \"Practical6-Apply-TTT-Token.sol\":4761:4794  gameInformation[gameId]._activate */\n      sload\n      0xff\n      and\n        /* \"Practical6-Apply-TTT-Token.sol\":4753:4826  require(gameInformation[gameId]._activate,\"The game still not start yet\") */\n      tag_125\n      jumpi\n      mload(0x40)\n      shl(0xe5, 0x461bcd)\n      dup2\n      mstore\n        /* \"#utility.yul\":11908:11910   */\n      0x20\n        /* \"Practical6-Apply-TTT-Token.sol\":4753:4826  require(gameInformation[gameId]._activate,\"The game still not start yet\") */\n      0x04\n      dup3\n      add\n        /* \"#utility.yul\":11890:11911   */\n      mstore\n        /* \"#utility.yul\":11947:11949   */\n      0x1c\n        /* \"#utility.yul\":11927:11945   */\n      0x24\n      dup3\n      add\n        /* \"#utility.yul\":11920:11950   */\n      mstore\n        /* \"#utility.yul\":11986:12016   */\n      0x5468652067616d65207374696c6c206e6f742073746172742079657400000000\n        /* \"#utility.yul\":11966:11984   */\n      0x44\n      dup3\n      add\n        /* \"#utility.yul\":11959:12017   */\n      mstore\n        /* \"#utility.yul\":12034:12052   */\n      0x64\n      add\n        /* \"Practical6-Apply-TTT-Token.sol\":4753:4826  require(gameInformation[gameId]._activate,\"The game still not start yet\") */\n      tag_77\n        /* \"#utility.yul\":11706:12058   */\n      jump\n        /* \"Practical6-Apply-TTT-Token.sol\":4753:4826  require(gameInformation[gameId]._activate,\"The game still not start yet\") */\n    tag_125:\n        /* \"Practical6-Apply-TTT-Token.sol\":4882:4940  compareStrings(gameInformation[gameId]._options[input],\"\") */\n      tag_128\n        /* \"Practical6-Apply-TTT-Token.sol\":4897:4912  gameInformation */\n      0x01\n        /* \"Practical6-Apply-TTT-Token.sol\":4913:4919  gameId */\n      dup3\n        /* \"Practical6-Apply-TTT-Token.sol\":4897:4920  gameInformation[gameId] */\n      dup2\n      sload\n      dup2\n      lt\n      tag_130\n      jumpi\n      tag_130\n      tag_69\n      jump\t// in\n    tag_130:\n      swap1\n      0x00\n      mstore\n      keccak256(0x00, 0x20)\n      swap1\n      0x08\n      mul\n      add\n        /* \"Practical6-Apply-TTT-Token.sol\":4897:4929  gameInformation[gameId]._options */\n      0x02\n      add\n        /* \"Practical6-Apply-TTT-Token.sol\":4930:4935  input */\n      dup4\n        /* \"Practical6-Apply-TTT-Token.sol\":4897:4936  gameInformation[gameId]._options[input] */\n      dup2\n      sload\n      dup2\n      lt\n      tag_133\n      jumpi\n      tag_133\n      tag_69\n      jump\t// in\n    tag_133:\n      swap1\n      0x00\n      mstore\n      keccak256(0x00, 0x20)\n      add\n        /* \"Practical6-Apply-TTT-Token.sol\":4882:4940  compareStrings(gameInformation[gameId]._options[input],\"\") */\n      dup1\n      sload\n      tag_135\n      swap1\n      tag_91\n      jump\t// in\n    tag_135:\n      dup1\n      0x1f\n      add\n      0x20\n      dup1\n      swap2\n      div\n      mul\n      0x20\n      add\n      mload(0x40)\n      swap1\n      dup2\n      add\n      0x40\n      mstore\n      dup1\n      swap3\n      swap2\n      swap1\n      dup2\n      dup2\n      mstore\n      0x20\n      add\n      dup3\n      dup1\n      sload\n      tag_136\n      swap1\n      tag_91\n      jump\t// in\n    tag_136:\n      dup1\n      iszero\n      tag_137\n      jumpi\n      dup1\n      0x1f\n      lt\n      tag_138\n      jumpi\n      0x0100\n      dup1\n      dup4\n      sload\n      div\n      mul\n      dup4\n      mstore\n      swap2\n      0x20\n      add\n      swap2\n      jump(tag_137)\n    tag_138:\n      dup3\n      add\n      swap2\n      swap1\n      0x00\n      mstore\n      keccak256(0x00, 0x20)\n      swap1\n    tag_139:\n      dup2\n      sload\n      dup2\n      mstore\n      swap1\n      0x01\n      add\n      swap1\n      0x20\n      add\n      dup1\n      dup4\n      gt\n      tag_139\n      jumpi\n      dup3\n      swap1\n      sub\n      0x1f\n      and\n      dup3\n      add\n      swap2\n    tag_137:\n      pop\n      pop\n      pop\n      pop\n      pop\n      mload(0x40)\n      dup1\n      0x20\n      add\n      0x40\n      mstore\n      dup1\n      0x00\n      dup2\n      mstore\n      pop\n        /* \"Practical6-Apply-TTT-Token.sol\":4882:4896  compareStrings */\n      tag_51\n        /* \"Practical6-Apply-TTT-Token.sol\":4882:4940  compareStrings(gameInformation[gameId]._options[input],\"\") */\n      jump\t// in\n    tag_128:\n        /* \"Practical6-Apply-TTT-Token.sol\":4874:4957  require(compareStrings(gameInformation[gameId]._options[input],\"\"),\"Invalid input\") */\n      tag_140\n      jumpi\n      mload(0x40)\n      shl(0xe5, 0x461bcd)\n      dup2\n      mstore\n        /* \"#utility.yul\":12265:12267   */\n      0x20\n        /* \"Practical6-Apply-TTT-Token.sol\":4874:4957  require(compareStrings(gameInformation[gameId]._options[input],\"\"),\"Invalid input\") */\n      0x04\n      dup3\n      add\n        /* \"#utility.yul\":12247:12268   */\n      mstore\n        /* \"#utility.yul\":12304:12306   */\n      0x0d\n        /* \"#utility.yul\":12284:12302   */\n      0x24\n      dup3\n      add\n        /* \"#utility.yul\":12277:12307   */\n      mstore\n      shl(0x9a, 0x125b9d985b1a59081a5b9c1d5d)\n        /* \"#utility.yul\":12323:12341   */\n      0x44\n      dup3\n      add\n        /* \"#utility.yul\":12316:12359   */\n      mstore\n        /* \"#utility.yul\":12376:12394   */\n      0x64\n      add\n        /* \"Practical6-Apply-TTT-Token.sol\":4874:4957  require(compareStrings(gameInformation[gameId]._options[input],\"\"),\"Invalid input\") */\n      tag_77\n        /* \"#utility.yul\":12063:12400   */\n      jump\n        /* \"Practical6-Apply-TTT-Token.sol\":4874:4957  require(compareStrings(gameInformation[gameId]._options[input],\"\"),\"Invalid input\") */\n    tag_140:\n        /* \"Practical6-Apply-TTT-Token.sol\":5020:5079  compareStrings(gameInformation[gameId]._currentPlayer, \"X\") */\n      tag_143\n        /* \"Practical6-Apply-TTT-Token.sol\":5035:5050  gameInformation */\n      0x01\n        /* \"Practical6-Apply-TTT-Token.sol\":5051:5057  gameId */\n      dup3\n        /* \"Practical6-Apply-TTT-Token.sol\":5035:5058  gameInformation[gameId] */\n      dup2\n      sload\n      dup2\n      lt\n      tag_145\n      jumpi\n      tag_145\n      tag_69\n      jump\t// in\n    tag_145:\n      swap1\n      0x00\n      mstore\n      keccak256(0x00, 0x20)\n      swap1\n      0x08\n      mul\n      add\n        /* \"Practical6-Apply-TTT-Token.sol\":5035:5073  gameInformation[gameId]._currentPlayer */\n      0x01\n      add\n        /* \"Practical6-Apply-TTT-Token.sol\":5020:5079  compareStrings(gameInformation[gameId]._currentPlayer, \"X\") */\n      dup1\n      sload\n      tag_147\n      swap1\n      tag_91\n      jump\t// in\n    tag_147:\n      dup1\n      0x1f\n      add\n      0x20\n      dup1\n      swap2\n      div\n      mul\n      0x20\n      add\n      mload(0x40)\n      swap1\n      dup2\n      add\n      0x40\n      mstore\n      dup1\n      swap3\n      swap2\n      swap1\n      dup2\n      dup2\n      mstore\n      0x20\n      add\n      dup3\n      dup1\n      sload\n      tag_148\n      swap1\n      tag_91\n      jump\t// in\n    tag_148:\n      dup1\n      iszero\n      tag_149\n      jumpi\n      dup1\n      0x1f\n      lt\n      tag_150\n      jumpi\n      0x0100\n      dup1\n      dup4\n      sload\n      div\n      mul\n      dup4\n      mstore\n      swap2\n      0x20\n      add\n      swap2\n      jump(tag_149)\n    tag_150:\n      dup3\n      add\n      swap2\n      swap1\n      0x00\n      mstore\n      keccak256(0x00, 0x20)\n      swap1\n    tag_151:\n      dup2\n      sload\n      dup2\n      mstore\n      swap1\n      0x01\n      add\n      swap1\n      0x20\n      add\n      dup1\n      dup4\n      gt\n      tag_151\n      jumpi\n      dup3\n      swap1\n      sub\n      0x1f\n      and\n      dup3\n      add\n      swap2\n    tag_149:\n      pop\n      pop\n      pop\n      pop\n      pop\n      mload(0x40)\n      dup1\n      0x40\n      add\n      0x40\n      mstore\n      dup1\n      0x01\n      dup2\n      mstore\n      0x20\n      add\n      shl(0xfb, 0x0b)\n      dup2\n      mstore\n      pop\n        /* \"Practical6-Apply-TTT-Token.sol\":5020:5034  compareStrings */\n      tag_51\n        /* \"Practical6-Apply-TTT-Token.sol\":5020:5079  compareStrings(gameInformation[gameId]._currentPlayer, \"X\") */\n      jump\t// in\n    tag_143:\n        /* \"Practical6-Apply-TTT-Token.sol\":5017:5308  if(compareStrings(gameInformation[gameId]._currentPlayer, \"X\")){... */\n      iszero\n      tag_152\n      jumpi\n        /* \"Practical6-Apply-TTT-Token.sol\":5117:5132  gameInformation */\n      0x01\n        /* \"Practical6-Apply-TTT-Token.sol\":5133:5139  gameId */\n      dup2\n        /* \"Practical6-Apply-TTT-Token.sol\":5117:5140  gameInformation[gameId] */\n      dup2\n      sload\n      dup2\n      lt\n      tag_154\n      jumpi\n      tag_154\n      tag_69\n      jump\t// in\n    tag_154:\n      0x00\n      swap2\n      dup3\n      mstore\n      0x20\n      swap1\n      swap2\n      keccak256\n      0x08\n      swap1\n      swap2\n      mul\n      add\n        /* \"Practical6-Apply-TTT-Token.sol\":5117:5156  gameInformation[gameId]._player1address */\n      0x04\n      add\n      sload\n      sub(shl(0xa0, 0x01), 0x01)\n      and\n        /* \"Practical6-Apply-TTT-Token.sol\":5103:5113  msg.sender */\n      caller\n        /* \"Practical6-Apply-TTT-Token.sol\":5103:5156  msg.sender == gameInformation[gameId]._player1address */\n      eq\n        /* \"Practical6-Apply-TTT-Token.sol\":5095:5180  require(msg.sender == gameInformation[gameId]._player1address,\"You are not player 1\") */\n      tag_156\n      jumpi\n      mload(0x40)\n      shl(0xe5, 0x461bcd)\n      dup2\n      mstore\n        /* \"#utility.yul\":12607:12609   */\n      0x20\n        /* \"Practical6-Apply-TTT-Token.sol\":5095:5180  require(msg.sender == gameInformation[gameId]._player1address,\"You are not player 1\") */\n      0x04\n      dup3\n      add\n        /* \"#utility.yul\":12589:12610   */\n      mstore\n        /* \"#utility.yul\":12646:12648   */\n      0x14\n        /* \"#utility.yul\":12626:12644   */\n      0x24\n      dup3\n      add\n        /* \"#utility.yul\":12619:12649   */\n      mstore\n      shl(0x60, 0x596f7520617265206e6f7420706c617965722031)\n        /* \"#utility.yul\":12665:12683   */\n      0x44\n      dup3\n      add\n        /* \"#utility.yul\":12658:12708   */\n      mstore\n        /* \"#utility.yul\":12725:12743   */\n      0x64\n      add\n        /* \"Practical6-Apply-TTT-Token.sol\":5095:5180  require(msg.sender == gameInformation[gameId]._player1address,\"You are not player 1\") */\n      tag_77\n        /* \"#utility.yul\":12405:12749   */\n      jump\n        /* \"Practical6-Apply-TTT-Token.sol\":5095:5180  require(msg.sender == gameInformation[gameId]._player1address,\"You are not player 1\") */\n    tag_156:\n        /* \"Practical6-Apply-TTT-Token.sol\":5017:5308  if(compareStrings(gameInformation[gameId]._currentPlayer, \"X\")){... */\n      jump(tag_163)\n    tag_152:\n        /* \"Practical6-Apply-TTT-Token.sol\":5233:5248  gameInformation */\n      0x01\n        /* \"Practical6-Apply-TTT-Token.sol\":5249:5255  gameId */\n      dup2\n        /* \"Practical6-Apply-TTT-Token.sol\":5233:5256  gameInformation[gameId] */\n      dup2\n      sload\n      dup2\n      lt\n      tag_161\n      jumpi\n      tag_161\n      tag_69\n      jump\t// in\n    tag_161:\n      0x00\n      swap2\n      dup3\n      mstore\n      0x20\n      swap1\n      swap2\n      keccak256\n      0x08\n      swap1\n      swap2\n      mul\n      add\n        /* \"Practical6-Apply-TTT-Token.sol\":5233:5272  gameInformation[gameId]._player2address */\n      0x05\n      add\n      sload\n      sub(shl(0xa0, 0x01), 0x01)\n      and\n        /* \"Practical6-Apply-TTT-Token.sol\":5219:5229  msg.sender */\n      caller\n        /* \"Practical6-Apply-TTT-Token.sol\":5219:5272  msg.sender == gameInformation[gameId]._player2address */\n      eq\n        /* \"Practical6-Apply-TTT-Token.sol\":5211:5296  require(msg.sender == gameInformation[gameId]._player2address,\"You are not player 2\") */\n      tag_163\n      jumpi\n      mload(0x40)\n      shl(0xe5, 0x461bcd)\n      dup2\n      mstore\n        /* \"#utility.yul\":12956:12958   */\n      0x20\n        /* \"Practical6-Apply-TTT-Token.sol\":5211:5296  require(msg.sender == gameInformation[gameId]._player2address,\"You are not player 2\") */\n      0x04\n      dup3\n      add\n        /* \"#utility.yul\":12938:12959   */\n      mstore\n        /* \"#utility.yul\":12995:12997   */\n      0x14\n        /* \"#utility.yul\":12975:12993   */\n      0x24\n      dup3\n      add\n        /* \"#utility.yul\":12968:12998   */\n      mstore\n      shl(0x61, 0x2cb7ba9030b932903737ba10383630bcb2b91019)\n        /* \"#utility.yul\":13014:13032   */\n      0x44\n      dup3\n      add\n        /* \"#utility.yul\":13007:13057   */\n      mstore\n        /* \"#utility.yul\":13074:13092   */\n      0x64\n      add\n        /* \"Practical6-Apply-TTT-Token.sol\":5211:5296  require(msg.sender == gameInformation[gameId]._player2address,\"You are not player 2\") */\n      tag_77\n        /* \"#utility.yul\":12754:13098   */\n      jump\n        /* \"Practical6-Apply-TTT-Token.sol\":5211:5296  require(msg.sender == gameInformation[gameId]._player2address,\"You are not player 2\") */\n    tag_163:\n        /* \"Practical6-Apply-TTT-Token.sol\":5370:5385  gameInformation */\n      0x01\n        /* \"Practical6-Apply-TTT-Token.sol\":5386:5392  gameId */\n      dup2\n        /* \"Practical6-Apply-TTT-Token.sol\":5370:5393  gameInformation[gameId] */\n      dup2\n      sload\n      dup2\n      lt\n      tag_167\n      jumpi\n      tag_167\n      tag_69\n      jump\t// in\n    tag_167:\n      swap1\n      0x00\n      mstore\n      keccak256(0x00, 0x20)\n      swap1\n      0x08\n      mul\n      add\n        /* \"Practical6-Apply-TTT-Token.sol\":5370:5408  gameInformation[gameId]._currentPlayer */\n      0x01\n      add\n        /* \"Practical6-Apply-TTT-Token.sol\":5328:5343  gameInformation */\n      0x01\n        /* \"Practical6-Apply-TTT-Token.sol\":5344:5350  gameId */\n      dup3\n        /* \"Practical6-Apply-TTT-Token.sol\":5328:5351  gameInformation[gameId] */\n      dup2\n      sload\n      dup2\n      lt\n      tag_170\n      jumpi\n      tag_170\n      tag_69\n      jump\t// in\n    tag_170:\n      swap1\n      0x00\n      mstore\n      keccak256(0x00, 0x20)\n      swap1\n      0x08\n      mul\n      add\n        /* \"Practical6-Apply-TTT-Token.sol\":5328:5360  gameInformation[gameId]._options */\n      0x02\n      add\n        /* \"Practical6-Apply-TTT-Token.sol\":5361:5366  input */\n      dup4\n        /* \"Practical6-Apply-TTT-Token.sol\":5328:5367  gameInformation[gameId]._options[input] */\n      dup2\n      sload\n      dup2\n      lt\n      tag_173\n      jumpi\n      tag_173\n      tag_69\n      jump\t// in\n    tag_173:\n      swap1\n      0x00\n      mstore\n      keccak256(0x00, 0x20)\n      add\n        /* \"Practical6-Apply-TTT-Token.sol\":5328:5408  gameInformation[gameId]._options[input] = gameInformation[gameId]._currentPlayer */\n      swap1\n      dup2\n      tag_175\n      swap2\n      swap1\n      tag_176\n      jump\t// in\n    tag_175:\n      pop\n        /* \"Practical6-Apply-TTT-Token.sol\":5470:5520  updateUI(gameInformation[gameId]._options, gameId) */\n      0x9659242f3970136bf08cba261398ae9f0bc58a676137d79d3c2040dcdacbc18b\n        /* \"Practical6-Apply-TTT-Token.sol\":5479:5494  gameInformation */\n      0x01\n        /* \"Practical6-Apply-TTT-Token.sol\":5495:5501  gameId */\n      dup3\n        /* \"Practical6-Apply-TTT-Token.sol\":5479:5502  gameInformation[gameId] */\n      dup2\n      sload\n      dup2\n      lt\n      tag_178\n      jumpi\n      tag_178\n      tag_69\n      jump\t// in\n    tag_178:\n      swap1\n      0x00\n      mstore\n      keccak256(0x00, 0x20)\n      swap1\n      0x08\n      mul\n      add\n        /* \"Practical6-Apply-TTT-Token.sol\":5479:5511  gameInformation[gameId]._options */\n      0x02\n      add\n        /* \"Practical6-Apply-TTT-Token.sol\":5513:5519  gameId */\n      dup3\n        /* \"Practical6-Apply-TTT-Token.sol\":5470:5520  updateUI(gameInformation[gameId]._options, gameId) */\n      mload(0x40)\n      tag_180\n      swap3\n      swap2\n      swap1\n      tag_181\n      jump\t// in\n    tag_180:\n      mload(0x40)\n      dup1\n      swap2\n      sub\n      swap1\n      log1\n        /* \"Practical6-Apply-TTT-Token.sol\":5620:5639  checkWinner(gameId) */\n      tag_182\n        /* \"Practical6-Apply-TTT-Token.sol\":5632:5638  gameId */\n      dup2\n        /* \"Practical6-Apply-TTT-Token.sol\":5620:5631  checkWinner */\n      tag_183\n        /* \"Practical6-Apply-TTT-Token.sol\":5620:5639  checkWinner(gameId) */\n      jump\t// in\n    tag_182:\n        /* \"Practical6-Apply-TTT-Token.sol\":4689:5679  function userInput(uint input, uint gameId) external {... */\n      pop\n      pop\n      jump\t// out\n        /* \"Practical6-Apply-TTT-Token.sol\":748:781  GameInfo[] public gameInformation */\n    tag_38:\n      0x01\n      dup2\n      dup2\n      sload\n      dup2\n      lt\n      tag_184\n      jumpi\n      0x00\n      dup1\n      revert\n    tag_184:\n      0x00\n      swap2\n      dup3\n      mstore\n      0x20\n      swap1\n      swap2\n      keccak256\n      0x08\n      swap1\n      swap2\n      mul\n      add\n      dup1\n      sload\n      0x01\n      dup3\n      add\n      dup1\n      sload\n      0xff\n      swap1\n      swap3\n      and\n      swap4\n      pop\n      swap1\n      tag_186\n      swap1\n      tag_91\n      jump\t// in\n    tag_186:\n      dup1\n      0x1f\n      add\n      0x20\n      dup1\n      swap2\n      div\n      mul\n      0x20\n      add\n      mload(0x40)\n      swap1\n      dup2\n      add\n      0x40\n      mstore\n      dup1\n      swap3\n      swap2\n      swap1\n      dup2\n      dup2\n      mstore\n      0x20\n      add\n      dup3\n      dup1\n      sload\n      tag_187\n      swap1\n      tag_91\n      jump\t// in\n    tag_187:\n      dup1\n      iszero\n      tag_188\n      jumpi\n      dup1\n      0x1f\n      lt\n      tag_189\n      jumpi\n      0x0100\n      dup1\n      dup4\n      sload\n      div\n      mul\n      dup4\n      mstore\n      swap2\n      0x20\n      add\n      swap2\n      jump(tag_188)\n    tag_189:\n      dup3\n      add\n      swap2\n      swap1\n      0x00\n      mstore\n      keccak256(0x00, 0x20)\n      swap1\n    tag_190:\n      dup2\n      sload\n      dup2\n      mstore\n      swap1\n      0x01\n      add\n      swap1\n      0x20\n      add\n      dup1\n      dup4\n      gt\n      tag_190\n      jumpi\n      dup3\n      swap1\n      sub\n      0x1f\n      and\n      dup3\n      add\n      swap2\n    tag_188:\n      pop\n      pop\n      pop\n      0x04\n      dup5\n      add\n      sload\n      0x05\n      dup6\n      add\n      sload\n      0x06\n      dup7\n      add\n      sload\n      0x07\n      swap1\n      swap7\n      add\n      sload\n      swap5\n      swap6\n      sub(shl(0xa0, 0x01), 0x01)\n      swap3\n      dup4\n      and\n      swap6\n      swap2\n      dup4\n      and\n      swap5\n      pop\n      swap3\n      pop\n      and\n      dup7\n      jump\t// out\n        /* \"Practical6-Apply-TTT-Token.sol\":2954:3532  function createGameRoom() external {... */\n    tag_42:\n        /* \"Practical6-Apply-TTT-Token.sol\":3000:3024  GameInfo memory gameInfo */\n      tag_192\n      tag_193\n      jump\t// in\n    tag_192:\n        /* \"Practical6-Apply-TTT-Token.sol\":3035:3050  gameInformation */\n      0x01\n        /* \"Practical6-Apply-TTT-Token.sol\":3035:3065  gameInformation.push(gameInfo) */\n      dup1\n      sload\n      dup1\n      dup3\n      add\n      dup3\n      sstore\n      0x00\n      swap2\n      swap1\n      swap2\n      mstore\n      dup2\n      mload\n      0xb10e2d527612073b26eecdfd717e6a320cf44b4afac2b0732d9fcbe2b7fa0cf6\n      0x08\n      swap1\n      swap3\n      mul\n      swap2\n      dup3\n      add\n      dup1\n      sload\n      not(0xff)\n      and\n      swap2\n      iszero\n      iszero\n      swap2\n      swap1\n      swap2\n      or\n      dup2\n      sstore\n      0x20\n      dup4\n      add\n      mload\n      dup4\n      swap3\n      0xb10e2d527612073b26eecdfd717e6a320cf44b4afac2b0732d9fcbe2b7fa0cf7\n      add\n      swap1\n      tag_195\n      swap1\n      dup3\n      tag_111\n      jump\t// in\n    tag_195:\n      pop\n      0x40\n      dup3\n      add\n      mload\n      dup1\n      mload\n      tag_196\n      swap2\n      0x02\n      dup5\n      add\n      swap2\n      0x20\n      swap1\n      swap2\n      add\n      swap1\n      tag_197\n      jump\t// in\n    tag_196:\n      pop\n      0x60\n      dup3\n      add\n      mload\n      dup1\n      mload\n      tag_198\n      swap2\n      0x03\n      dup5\n      add\n      swap2\n      0x20\n      swap1\n      swap2\n      add\n      swap1\n      tag_199\n      jump\t// in\n    tag_198:\n      pop\n      0x80\n      dup3\n      add\n      mload\n      0x04\n      dup3\n      add\n      dup1\n      sload\n      not(sub(shl(0xa0, 0x01), 0x01))\n      swap1\n      dup2\n      and\n      sub(shl(0xa0, 0x01), 0x01)\n      swap4\n      dup5\n      and\n      or\n      swap1\n      swap2\n      sstore\n      0xa0\n      dup5\n      add\n      mload\n      0x05\n      dup5\n      add\n      dup1\n      sload\n      dup4\n      and\n      swap2\n      dup5\n      and\n      swap2\n      swap1\n      swap2\n      or\n      swap1\n      sstore\n      0xc0\n      dup5\n      add\n      mload\n      0x06\n      dup5\n      add\n      sstore\n      0xe0\n      swap1\n      swap4\n      add\n      mload\n      0x07\n      swap1\n      swap3\n      add\n      dup1\n      sload\n      swap1\n      swap4\n      and\n      swap2\n      and\n      or\n      swap1\n      sstore\n      0x01\n        /* \"Practical6-Apply-TTT-Token.sol\":3094:3116  gameInformation.length */\n      dup1\n      sload\n      swap1\n        /* \"Practical6-Apply-TTT-Token.sol\":3177:3187  msg.sender */\n      caller\n      swap1\n        /* \"Practical6-Apply-TTT-Token.sol\":3145:3157  gameLength-1 */\n      tag_200\n      dup2\n        /* \"Practical6-Apply-TTT-Token.sol\":3094:3116  gameInformation.length */\n      dup5\n        /* \"Practical6-Apply-TTT-Token.sol\":3145:3157  gameLength-1 */\n      tag_201\n      jump\t// in\n    tag_200:\n        /* \"Practical6-Apply-TTT-Token.sol\":3129:3158  gameInformation[gameLength-1] */\n      dup2\n      sload\n      dup2\n      lt\n      tag_203\n      jumpi\n      tag_203\n      tag_69\n      jump\t// in\n    tag_203:\n      0x00\n      swap2\n      dup3\n      mstore\n      0x20\n      dup3\n      keccak256\n      0x08\n      swap2\n      swap1\n      swap2\n      mul\n      add\n        /* \"Practical6-Apply-TTT-Token.sol\":3129:3174  gameInformation[gameLength-1]._player1address */\n      0x04\n      add\n        /* \"Practical6-Apply-TTT-Token.sol\":3129:3187  gameInformation[gameLength-1]._player1address = msg.sender */\n      dup1\n      sload\n      not(sub(shl(0xa0, 0x01), 0x01))\n      and\n      sub(shl(0xa0, 0x01), 0x01)\n      swap4\n      swap1\n      swap4\n      and\n      swap3\n      swap1\n      swap3\n      or\n      swap1\n      swap2\n      sstore\n      0x01\n        /* \"Practical6-Apply-TTT-Token.sol\":3214:3226  gameLength-1 */\n      tag_205\n      dup2\n        /* \"Practical6-Apply-TTT-Token.sol\":3214:3224  gameLength */\n      dup5\n        /* \"Practical6-Apply-TTT-Token.sol\":3214:3226  gameLength-1 */\n      tag_201\n      jump\t// in\n    tag_205:\n        /* \"Practical6-Apply-TTT-Token.sol\":3198:3227  gameInformation[gameLength-1] */\n      dup2\n      sload\n      dup2\n      lt\n      tag_207\n      jumpi\n      tag_207\n      tag_69\n      jump\t// in\n    tag_207:\n      0x00\n      swap2\n      dup3\n      mstore\n      0x20\n      swap1\n      swap2\n      keccak256\n      0x08\n      swap1\n      swap2\n      mul\n      add\n        /* \"Practical6-Apply-TTT-Token.sol\":3198:3245  gameInformation[gameLength-1]._activate = false */\n      dup1\n      sload\n      not(0xff)\n      and\n      swap2\n      iszero\n      iszero\n      swap2\n      swap1\n      swap2\n      or\n      swap1\n      sstore\n      0x01\n      dup1\n        /* \"Practical6-Apply-TTT-Token.sol\":3272:3284  gameLength-1 */\n      tag_209\n      dup2\n        /* \"Practical6-Apply-TTT-Token.sol\":3272:3282  gameLength */\n      dup5\n        /* \"Practical6-Apply-TTT-Token.sol\":3272:3284  gameLength-1 */\n      tag_201\n      jump\t// in\n    tag_209:\n        /* \"Practical6-Apply-TTT-Token.sol\":3256:3285  gameInformation[gameLength-1] */\n      dup2\n      sload\n      dup2\n      lt\n      tag_211\n      jumpi\n      tag_211\n      tag_69\n      jump\t// in\n    tag_211:\n      swap1\n      0x00\n      mstore\n      keccak256(0x00, 0x20)\n      swap1\n      0x08\n      mul\n      add\n        /* \"Practical6-Apply-TTT-Token.sol\":3256:3298  gameInformation[gameLength-1]._playerCount */\n      0x06\n      add\n        /* \"Practical6-Apply-TTT-Token.sol\":3256:3302  gameInformation[gameLength-1]._playerCount = 1 */\n      dup2\n      swap1\n      sstore\n      pop\n        /* \"Practical6-Apply-TTT-Token.sol\":3313:3363  gameInformation[gameLength-1]._currentPlayer = \"X\" */\n      mload(0x40)\n      dup1\n      0x40\n      add\n      0x40\n      mstore\n      dup1\n      0x01\n      dup2\n      mstore\n      0x20\n      add\n      shl(0xfb, 0x0b)\n      dup2\n      mstore\n      pop\n        /* \"Practical6-Apply-TTT-Token.sol\":3313:3328  gameInformation */\n      0x01\n        /* \"Practical6-Apply-TTT-Token.sol\":3340:3341  1 */\n      dup1\n        /* \"Practical6-Apply-TTT-Token.sol\":3329:3339  gameLength */\n      dup4\n        /* \"Practical6-Apply-TTT-Token.sol\":3329:3341  gameLength-1 */\n      tag_213\n      swap2\n      swap1\n      tag_201\n      jump\t// in\n    tag_213:\n        /* \"Practical6-Apply-TTT-Token.sol\":3313:3342  gameInformation[gameLength-1] */\n      dup2\n      sload\n      dup2\n      lt\n      tag_215\n      jumpi\n      tag_215\n      tag_69\n      jump\t// in\n    tag_215:\n      swap1\n      0x00\n      mstore\n      keccak256(0x00, 0x20)\n      swap1\n      0x08\n      mul\n      add\n        /* \"Practical6-Apply-TTT-Token.sol\":3313:3357  gameInformation[gameLength-1]._currentPlayer */\n      0x01\n      add\n        /* \"Practical6-Apply-TTT-Token.sol\":3313:3363  gameInformation[gameLength-1]._currentPlayer = \"X\" */\n      swap1\n      dup2\n      tag_217\n      swap2\n      swap1\n      tag_111\n      jump\t// in\n    tag_217:\n      pop\n        /* \"Practical6-Apply-TTT-Token.sol\":3378:3384  uint i */\n      0x00\n        /* \"Practical6-Apply-TTT-Token.sol\":3374:3475  for(uint i = 0; i < 9; i++){... */\n    tag_218:\n        /* \"Practical6-Apply-TTT-Token.sol\":3394:3395  9 */\n      0x09\n        /* \"Practical6-Apply-TTT-Token.sol\":3390:3391  i */\n      dup2\n        /* \"Practical6-Apply-TTT-Token.sol\":3390:3395  i < 9 */\n      lt\n        /* \"Practical6-Apply-TTT-Token.sol\":3374:3475  for(uint i = 0; i < 9; i++){... */\n      iszero\n      tag_219\n      jumpi\n        /* \"Practical6-Apply-TTT-Token.sol\":3416:3431  gameInformation */\n      0x01\n        /* \"Practical6-Apply-TTT-Token.sol\":3432:3444  gameLength-1 */\n      tag_221\n        /* \"Practical6-Apply-TTT-Token.sol\":3416:3431  gameInformation */\n      dup2\n        /* \"Practical6-Apply-TTT-Token.sol\":3432:3442  gameLength */\n      dup5\n        /* \"Practical6-Apply-TTT-Token.sol\":3432:3444  gameLength-1 */\n      tag_201\n      jump\t// in\n    tag_221:\n        /* \"Practical6-Apply-TTT-Token.sol\":3416:3445  gameInformation[gameLength-1] */\n      dup2\n      sload\n      dup2\n      lt\n      tag_223\n      jumpi\n      tag_223\n      tag_69\n      jump\t// in\n    tag_223:\n      0x00\n      swap2\n      dup3\n      mstore\n      0x20\n      dup1\n      dup4\n      keccak256\n        /* \"Practical6-Apply-TTT-Token.sol\":3416:3454  gameInformation[gameLength-1]._options */\n      0x02\n        /* \"Practical6-Apply-TTT-Token.sol\":3416:3445  gameInformation[gameLength-1] */\n      0x08\n      swap1\n      swap4\n      mul\n      add\n        /* \"Practical6-Apply-TTT-Token.sol\":3416:3454  gameInformation[gameLength-1]._options */\n      swap2\n      swap1\n      swap2\n      add\n        /* \"Practical6-Apply-TTT-Token.sol\":3416:3463  gameInformation[gameLength-1]._options.push(\"\") */\n      dup1\n      sload\n      0x01\n      dup2\n      add\n      dup3\n      sstore\n      swap1\n      dup4\n      mstore\n      dup2\n      dup4\n      keccak256\n      0x40\n      dup1\n      mload\n      swap4\n      dup5\n      add\n      swap1\n      mstore\n      swap3\n      dup3\n      mstore\n      swap2\n      swap1\n      swap2\n      add\n      swap1\n      tag_226\n      swap1\n      dup3\n      tag_111\n      jump\t// in\n    tag_226:\n      pop\n        /* \"Practical6-Apply-TTT-Token.sol\":3397:3400  i++ */\n      dup1\n      tag_227\n      dup2\n      tag_228\n      jump\t// in\n    tag_227:\n      swap2\n      pop\n      pop\n        /* \"Practical6-Apply-TTT-Token.sol\":3374:3475  for(uint i = 0; i < 9; i++){... */\n      jump(tag_218)\n    tag_219:\n      pop\n        /* \"Practical6-Apply-TTT-Token.sol\":3490:3514  createRoom(gameLength-1) */\n      0xbbba82573073a1190d559566d39447b5e1ad7724b88b63bc98867d229a645b6b\n        /* \"Practical6-Apply-TTT-Token.sol\":3501:3513  gameLength-1 */\n      tag_229\n        /* \"Practical6-Apply-TTT-Token.sol\":3512:3513  1 */\n      0x01\n        /* \"Practical6-Apply-TTT-Token.sol\":3501:3511  gameLength */\n      dup4\n        /* \"Practical6-Apply-TTT-Token.sol\":3501:3513  gameLength-1 */\n      tag_201\n      jump\t// in\n    tag_229:\n        /* \"Practical6-Apply-TTT-Token.sol\":3490:3514  createRoom(gameLength-1) */\n      mload(0x40)\n        /* \"#utility.yul\":8245:8270   */\n      swap1\n      dup2\n      mstore\n        /* \"#utility.yul\":8233:8235   */\n      0x20\n        /* \"#utility.yul\":8218:8236   */\n      add\n        /* \"Practical6-Apply-TTT-Token.sol\":3490:3514  createRoom(gameLength-1) */\n      mload(0x40)\n      dup1\n      swap2\n      sub\n      swap1\n      log1\n        /* \"Practical6-Apply-TTT-Token.sol\":2989:3532  {... */\n      pop\n      pop\n        /* \"Practical6-Apply-TTT-Token.sol\":2954:3532  function createGameRoom() external {... */\n      jump\t// out\n        /* \"Practical6-Apply-TTT-Token.sol\":2660:2790  function getGameInformation (uint gameId) external view returns (GameInfo memory){... */\n    tag_45:\n        /* \"Practical6-Apply-TTT-Token.sol\":2725:2740  GameInfo memory */\n      tag_231\n      tag_193\n      jump\t// in\n    tag_231:\n        /* \"Practical6-Apply-TTT-Token.sol\":2759:2774  gameInformation */\n      0x01\n        /* \"Practical6-Apply-TTT-Token.sol\":2775:2781  gameId */\n      dup3\n        /* \"Practical6-Apply-TTT-Token.sol\":2759:2782  gameInformation[gameId] */\n      dup2\n      sload\n      dup2\n      lt\n      tag_234\n      jumpi\n      tag_234\n      tag_69\n      jump\t// in\n    tag_234:\n      0x00\n      swap2\n      dup3\n      mstore\n      0x20\n      swap2\n      dup3\n      swap1\n      keccak256\n        /* \"Practical6-Apply-TTT-Token.sol\":2752:2782  return gameInformation[gameId] */\n      0x40\n      dup1\n      mload\n      0x0100\n      dup2\n      add\n      swap1\n      swap2\n      mstore\n        /* \"Practical6-Apply-TTT-Token.sol\":2759:2782  gameInformation[gameId] */\n      0x08\n      swap1\n      swap3\n      mul\n      add\n        /* \"Practical6-Apply-TTT-Token.sol\":2752:2782  return gameInformation[gameId] */\n      dup1\n      sload\n      0xff\n      and\n      iszero\n      iszero\n      dup3\n      mstore\n      0x01\n      dup2\n      add\n      dup1\n      sload\n      swap3\n      swap4\n        /* \"Practical6-Apply-TTT-Token.sol\":2759:2782  gameInformation[gameId] */\n      swap2\n      swap3\n        /* \"Practical6-Apply-TTT-Token.sol\":2752:2782  return gameInformation[gameId] */\n      swap2\n      dup5\n      add\n      swap2\n      tag_236\n      swap1\n      tag_91\n      jump\t// in\n    tag_236:\n      dup1\n      0x1f\n      add\n      0x20\n      dup1\n      swap2\n      div\n      mul\n      0x20\n      add\n      mload(0x40)\n      swap1\n      dup2\n      add\n      0x40\n      mstore\n      dup1\n      swap3\n      swap2\n      swap1\n      dup2\n      dup2\n      mstore\n      0x20\n      add\n      dup3\n      dup1\n      sload\n      tag_237\n      swap1\n      tag_91\n      jump\t// in\n    tag_237:\n      dup1\n      iszero\n      tag_238\n      jumpi\n      dup1\n      0x1f\n      lt\n      tag_239\n      jumpi\n      0x0100\n      dup1\n      dup4\n      sload\n      div\n      mul\n      dup4\n      mstore\n      swap2\n      0x20\n      add\n      swap2\n      jump(tag_238)\n    tag_239:\n      dup3\n      add\n      swap2\n      swap1\n      0x00\n      mstore\n      keccak256(0x00, 0x20)\n      swap1\n    tag_240:\n      dup2\n      sload\n      dup2\n      mstore\n      swap1\n      0x01\n      add\n      swap1\n      0x20\n      add\n      dup1\n      dup4\n      gt\n      tag_240\n      jumpi\n      dup3\n      swap1\n      sub\n      0x1f\n      and\n      dup3\n      add\n      swap2\n    tag_238:\n      pop\n      pop\n      pop\n      pop\n      pop\n      dup2\n      mstore\n      0x20\n      add\n      0x02\n      dup3\n      add\n      dup1\n      sload\n      dup1\n      0x20\n      mul\n      0x20\n      add\n      mload(0x40)\n      swap1\n      dup2\n      add\n      0x40\n      mstore\n      dup1\n      swap3\n      swap2\n      swap1\n      dup2\n      dup2\n      mstore\n      0x20\n      add\n      0x00\n      swap1\n    tag_241:\n      dup3\n      dup3\n      lt\n      iszero\n      tag_242\n      jumpi\n      dup4\n      dup3\n      swap1\n      0x00\n      mstore\n      keccak256(0x00, 0x20)\n      add\n      dup1\n      sload\n      tag_244\n      swap1\n      tag_91\n      jump\t// in\n    tag_244:\n      dup1\n      0x1f\n      add\n      0x20\n      dup1\n      swap2\n      div\n      mul\n      0x20\n      add\n      mload(0x40)\n      swap1\n      dup2\n      add\n      0x40\n      mstore\n      dup1\n      swap3\n      swap2\n      swap1\n      dup2\n      dup2\n      mstore\n      0x20\n      add\n      dup3\n      dup1\n      sload\n      tag_245\n      swap1\n      tag_91\n      jump\t// in\n    tag_245:\n      dup1\n      iszero\n      tag_246\n      jumpi\n      dup1\n      0x1f\n      lt\n      tag_247\n      jumpi\n      0x0100\n      dup1\n      dup4\n      sload\n      div\n      mul\n      dup4\n      mstore\n      swap2\n      0x20\n      add\n      swap2\n      jump(tag_246)\n    tag_247:\n      dup3\n      add\n      swap2\n      swap1\n      0x00\n      mstore\n      keccak256(0x00, 0x20)\n      swap1\n    tag_248:\n      dup2\n      sload\n      dup2\n      mstore\n      swap1\n      0x01\n      add\n      swap1\n      0x20\n      add\n      dup1\n      dup4\n      gt\n      tag_248\n      jumpi\n      dup3\n      swap1\n      sub\n      0x1f\n      and\n      dup3\n      add\n      swap2\n    tag_246:\n      pop\n      pop\n      pop\n      pop\n      pop\n      dup2\n      mstore\n      0x20\n      add\n      swap1\n      0x01\n      add\n      swap1\n      jump(tag_241)\n    tag_242:\n      pop\n      pop\n      pop\n      pop\n      dup2\n      mstore\n      0x20\n      add\n      0x03\n      dup3\n      add\n      dup1\n      sload\n      dup1\n      0x20\n      mul\n      0x20\n      add\n      mload(0x40)\n      swap1\n      dup2\n      add\n      0x40\n      mstore\n      dup1\n      swap3\n      swap2\n      swap1\n      dup2\n      dup2\n      mstore\n      0x20\n      add\n      dup3\n      dup1\n      sload\n      dup1\n      iszero\n      tag_249\n      jumpi\n      0x20\n      mul\n      dup3\n      add\n      swap2\n      swap1\n      0x00\n      mstore\n      keccak256(0x00, 0x20)\n      swap1\n    tag_250:\n      dup2\n      sload\n      dup2\n      mstore\n      0x20\n      add\n      swap1\n      0x01\n      add\n      swap1\n      dup1\n      dup4\n      gt\n      tag_250\n      jumpi\n    tag_249:\n      pop\n      pop\n      pop\n      swap2\n      dup4\n      mstore\n      pop\n      pop\n      0x04\n      dup3\n      add\n      sload\n      sub(shl(0xa0, 0x01), 0x01)\n      swap1\n      dup2\n      and\n      0x20\n      dup4\n      add\n      mstore\n      0x05\n      dup4\n      add\n      sload\n      dup2\n      and\n      0x40\n      dup4\n      add\n      mstore\n      0x06\n      dup4\n      add\n      sload\n      0x60\n      dup4\n      add\n      mstore\n      0x07\n      swap1\n      swap3\n      add\n      sload\n      swap1\n      swap2\n      and\n      0x80\n      swap1\n      swap2\n      add\n      mstore\n      swap3\n        /* \"Practical6-Apply-TTT-Token.sol\":2660:2790  function getGameInformation (uint gameId) external view returns (GameInfo memory){... */\n      swap2\n      pop\n      pop\n      jump\t// out\n        /* \"Practical6-Apply-TTT-Token.sol\":9283:9530  function compareStrings(string memory a, string memory b) public pure returns (bool) {... */\n    tag_51:\n        /* \"Practical6-Apply-TTT-Token.sol\":9362:9366  bool */\n      0x00\n        /* \"Practical6-Apply-TTT-Token.sol\":9519:9520  b */\n      dup2\n        /* \"Practical6-Apply-TTT-Token.sol\":9502:9521  abi.encodePacked(b) */\n      add(0x20, mload(0x40))\n      tag_252\n      swap2\n      swap1\n      tag_253\n      jump\t// in\n    tag_252:\n      mload(0x40)\n      0x20\n      dup2\n      dup4\n      sub\n      sub\n      dup2\n      mstore\n      swap1\n      0x40\n      mstore\n        /* \"Practical6-Apply-TTT-Token.sol\":9492:9522  keccak256(abi.encodePacked(b)) */\n      dup1\n      mload\n      swap1\n      0x20\n      add\n      keccak256\n        /* \"Practical6-Apply-TTT-Token.sol\":9485:9486  a */\n      dup4\n        /* \"Practical6-Apply-TTT-Token.sol\":9468:9487  abi.encodePacked(a) */\n      add(0x20, mload(0x40))\n      tag_254\n      swap2\n      swap1\n      tag_253\n      jump\t// in\n    tag_254:\n      mload(0x40)\n      0x20\n      dup2\n      dup4\n      sub\n      sub\n      dup2\n      mstore\n      swap1\n      0x40\n      mstore\n        /* \"Practical6-Apply-TTT-Token.sol\":9458:9488  keccak256(abi.encodePacked(a)) */\n      dup1\n      mload\n      swap1\n      0x20\n      add\n      keccak256\n        /* \"Practical6-Apply-TTT-Token.sol\":9458:9522  keccak256(abi.encodePacked(a)) == keccak256(abi.encodePacked(b)) */\n      eq\n        /* \"Practical6-Apply-TTT-Token.sol\":9451:9522  return keccak256(abi.encodePacked(a)) == keccak256(abi.encodePacked(b)) */\n      swap1\n      pop\n        /* \"Practical6-Apply-TTT-Token.sol\":9283:9530  function compareStrings(string memory a, string memory b) public pure returns (bool) {... */\n    tag_251:\n      swap3\n      swap2\n      pop\n      pop\n      jump\t// out\n        /* \"Practical6-Apply-TTT-Token.sol\":2328:2458  function getoption (uint gameId) external view returns (string[] memory){... */\n    tag_56:\n        /* \"Practical6-Apply-TTT-Token.sol\":2384:2399  string[] memory */\n      0x60\n        /* \"Practical6-Apply-TTT-Token.sol\":2418:2433  gameInformation */\n      0x01\n        /* \"Practical6-Apply-TTT-Token.sol\":2434:2440  gameId */\n      dup3\n        /* \"Practical6-Apply-TTT-Token.sol\":2418:2441  gameInformation[gameId] */\n      dup2\n      sload\n      dup2\n      lt\n      tag_257\n      jumpi\n      tag_257\n      tag_69\n      jump\t// in\n    tag_257:\n      swap1\n      0x00\n      mstore\n      keccak256(0x00, 0x20)\n      swap1\n      0x08\n      mul\n      add\n        /* \"Practical6-Apply-TTT-Token.sol\":2418:2450  gameInformation[gameId]._options */\n      0x02\n      add\n        /* \"Practical6-Apply-TTT-Token.sol\":2411:2450  return gameInformation[gameId]._options */\n      dup1\n      sload\n      dup1\n      0x20\n      mul\n      0x20\n      add\n      mload(0x40)\n      swap1\n      dup2\n      add\n      0x40\n      mstore\n      dup1\n      swap3\n      swap2\n      swap1\n      dup2\n      dup2\n      mstore\n      0x20\n      add\n      0x00\n      swap1\n    tag_259:\n      dup3\n      dup3\n      lt\n      iszero\n      tag_260\n      jumpi\n      dup4\n      dup3\n      swap1\n      0x00\n      mstore\n      keccak256(0x00, 0x20)\n      add\n      dup1\n      sload\n      tag_262\n      swap1\n      tag_91\n      jump\t// in\n    tag_262:\n      dup1\n      0x1f\n      add\n      0x20\n      dup1\n      swap2\n      div\n      mul\n      0x20\n      add\n      mload(0x40)\n      swap1\n      dup2\n      add\n      0x40\n      mstore\n      dup1\n      swap3\n      swap2\n      swap1\n      dup2\n      dup2\n      mstore\n      0x20\n      add\n      dup3\n      dup1\n      sload\n      tag_263\n      swap1\n      tag_91\n      jump\t// in\n    tag_263:\n      dup1\n      iszero\n      tag_264\n      jumpi\n      dup1\n      0x1f\n      lt\n      tag_265\n      jumpi\n      0x0100\n      dup1\n      dup4\n      sload\n      div\n      mul\n      dup4\n      mstore\n      swap2\n      0x20\n      add\n      swap2\n      jump(tag_264)\n    tag_265:\n      dup3\n      add\n      swap2\n      swap1\n      0x00\n      mstore\n      keccak256(0x00, 0x20)\n      swap1\n    tag_266:\n      dup2\n      sload\n      dup2\n      mstore\n      swap1\n      0x01\n      add\n      swap1\n      0x20\n      add\n      dup1\n      dup4\n      gt\n      tag_266\n      jumpi\n      dup3\n      swap1\n      sub\n      0x1f\n      and\n      dup3\n      add\n      swap2\n    tag_264:\n      pop\n      pop\n      pop\n      pop\n      pop\n      dup2\n      mstore\n      0x20\n      add\n      swap1\n      0x01\n      add\n      swap1\n      jump(tag_259)\n    tag_260:\n      pop\n      pop\n      pop\n      pop\n      swap1\n      pop\n        /* \"Practical6-Apply-TTT-Token.sol\":2328:2458  function getoption (uint gameId) external view returns (string[] memory){... */\n      swap2\n      swap1\n      pop\n      jump\t// out\n        /* \"Practical6-Apply-TTT-Token.sol\":312:452  function showbalance () external view returns (uint){... */\n    tag_60:\n        /* \"Practical6-Apply-TTT-Token.sol\":359:363  uint */\n      0x00\n        /* \"Practical6-Apply-TTT-Token.sol\":382:390  TTTToken */\n      dup1\n      sload\n        /* \"Practical6-Apply-TTT-Token.sol\":382:444  TTTToken.balanceOf(0x9163f6f9A843827aB2fC1B0fBd95B7eF77763129) */\n      mload(0x40)\n      shl(0xe0, 0x70a08231)\n      dup2\n      mstore\n        /* \"Practical6-Apply-TTT-Token.sol\":401:443  0x9163f6f9A843827aB2fC1B0fBd95B7eF77763129 */\n      0x9163f6f9a843827ab2fc1b0fbd95b7ef77763129\n        /* \"Practical6-Apply-TTT-Token.sol\":382:444  TTTToken.balanceOf(0x9163f6f9A843827aB2fC1B0fBd95B7eF77763129) */\n      0x04\n      dup3\n      add\n        /* \"#utility.yul\":17179:17230   */\n      mstore\n      sub(shl(0xa0, 0x01), 0x01)\n        /* \"Practical6-Apply-TTT-Token.sol\":382:390  TTTToken */\n      swap1\n      swap2\n      and\n      swap1\n        /* \"Practical6-Apply-TTT-Token.sol\":382:400  TTTToken.balanceOf */\n      0x70a08231\n      swap1\n        /* \"#utility.yul\":17152:17170   */\n      0x24\n      add\n        /* \"Practical6-Apply-TTT-Token.sol\":382:444  TTTToken.balanceOf(0x9163f6f9A843827aB2fC1B0fBd95B7eF77763129) */\n      0x20\n      mload(0x40)\n      dup1\n      dup4\n      sub\n      dup2\n      dup7\n      gas\n      staticcall\n      iszero\n      dup1\n      iszero\n      tag_271\n      jumpi\n      returndatasize\n      0x00\n      dup1\n      returndatacopy\n      revert(0x00, returndatasize)\n    tag_271:\n      pop\n      pop\n      pop\n      pop\n      mload(0x40)\n      returndatasize\n      not(0x1f)\n      0x1f\n      dup3\n      add\n      and\n      dup3\n      add\n      dup1\n      0x40\n      mstore\n      pop\n      dup2\n      add\n      swap1\n      tag_272\n      swap2\n      swap1\n      tag_273\n      jump\t// in\n    tag_272:\n        /* \"Practical6-Apply-TTT-Token.sol\":375:444  return TTTToken.balanceOf(0x9163f6f9A843827aB2fC1B0fBd95B7eF77763129) */\n      swap1\n      pop\n        /* \"Practical6-Apply-TTT-Token.sol\":312:452  function showbalance () external view returns (uint){... */\n      swap1\n      jump\t// out\n        /* \"Practical6-Apply-TTT-Token.sol\":3559:4583  function joinGame (uint gameId) external {... */\n    tag_65:\n        /* \"Practical6-Apply-TTT-Token.sol\":3679:3694  gameInformation */\n      0x01\n        /* \"Practical6-Apply-TTT-Token.sol\":3695:3701  gameId */\n      dup2\n        /* \"Practical6-Apply-TTT-Token.sol\":3679:3702  gameInformation[gameId] */\n      dup2\n      sload\n      dup2\n      lt\n      tag_276\n      jumpi\n      tag_276\n      tag_69\n      jump\t// in\n    tag_276:\n      swap1\n      0x00\n      mstore\n      keccak256(0x00, 0x20)\n      swap1\n      0x08\n      mul\n      add\n        /* \"Practical6-Apply-TTT-Token.sol\":3679:3715  gameInformation[gameId]._playerCount */\n      0x06\n      add\n      sload\n        /* \"Practical6-Apply-TTT-Token.sol\":3719:3720  1 */\n      0x01\n        /* \"Practical6-Apply-TTT-Token.sol\":3679:3720  gameInformation[gameId]._playerCount == 1 */\n      sub\n        /* \"Practical6-Apply-TTT-Token.sol\":3676:4478  if(gameInformation[gameId]._playerCount == 1){... */\n      tag_278\n      jumpi\n        /* \"Practical6-Apply-TTT-Token.sol\":3760:3775  gameInformation */\n      0x01\n        /* \"Practical6-Apply-TTT-Token.sol\":3776:3782  gameId */\n      dup2\n        /* \"Practical6-Apply-TTT-Token.sol\":3760:3783  gameInformation[gameId] */\n      dup2\n      sload\n      dup2\n      lt\n      tag_280\n      jumpi\n      tag_280\n      tag_69\n      jump\t// in\n    tag_280:\n      0x00\n      swap2\n      dup3\n      mstore\n      0x20\n      swap1\n      swap2\n      keccak256\n        /* \"Practical6-Apply-TTT-Token.sol\":3760:3799  gameInformation[gameId]._player1address */\n      0x04\n        /* \"Practical6-Apply-TTT-Token.sol\":3760:3783  gameInformation[gameId] */\n      0x08\n      swap1\n      swap3\n      mul\n      add\n        /* \"Practical6-Apply-TTT-Token.sol\":3760:3799  gameInformation[gameId]._player1address */\n      add\n      sload\n      sub(shl(0xa0, 0x01), 0x01)\n      and\n        /* \"Practical6-Apply-TTT-Token.sol\":3745:3755  msg.sender */\n      caller\n        /* \"Practical6-Apply-TTT-Token.sol\":3745:3799  msg.sender !=  gameInformation[gameId]._player1address */\n      sub\n        /* \"Practical6-Apply-TTT-Token.sol\":3736:3841  require((msg.sender !=  gameInformation[gameId]._player1address), \"Error: You cannot play with yourself\") */\n      tag_282\n      jumpi\n      mload(0x40)\n      shl(0xe5, 0x461bcd)\n      dup2\n      mstore\n        /* \"#utility.yul\":17632:17634   */\n      0x20\n        /* \"Practical6-Apply-TTT-Token.sol\":3736:3841  require((msg.sender !=  gameInformation[gameId]._player1address), \"Error: You cannot play with yourself\") */\n      0x04\n      dup3\n      add\n        /* \"#utility.yul\":17614:17635   */\n      mstore\n        /* \"#utility.yul\":17671:17673   */\n      0x24\n        /* \"#utility.yul\":17651:17669   */\n      dup1\n      dup3\n      add\n        /* \"#utility.yul\":17644:17674   */\n      mstore\n        /* \"#utility.yul\":17710:17744   */\n      0x4572726f723a20596f752063616e6e6f7420706c6179207769746820796f7572\n        /* \"#utility.yul\":17690:17708   */\n      0x44\n      dup3\n      add\n        /* \"#utility.yul\":17683:17745   */\n      mstore\n      shl(0xe1, 0x39b2b633)\n        /* \"#utility.yul\":17761:17779   */\n      0x64\n      dup3\n      add\n        /* \"#utility.yul\":17754:17788   */\n      mstore\n        /* \"#utility.yul\":17805:17824   */\n      0x84\n      add\n        /* \"Practical6-Apply-TTT-Token.sol\":3736:3841  require((msg.sender !=  gameInformation[gameId]._player1address), \"Error: You cannot play with yourself\") */\n      tag_77\n        /* \"#utility.yul\":17430:17830   */\n      jump\n        /* \"Practical6-Apply-TTT-Token.sol\":3736:3841  require((msg.sender !=  gameInformation[gameId]._player1address), \"Error: You cannot play with yourself\") */\n    tag_282:\n        /* \"Practical6-Apply-TTT-Token.sol\":3898:3908  msg.sender */\n      caller\n        /* \"Practical6-Apply-TTT-Token.sol\":3856:3871  gameInformation */\n      0x01\n        /* \"Practical6-Apply-TTT-Token.sol\":3872:3878  gameId */\n      dup3\n        /* \"Practical6-Apply-TTT-Token.sol\":3856:3879  gameInformation[gameId] */\n      dup2\n      sload\n      dup2\n      lt\n      tag_286\n      jumpi\n      tag_286\n      tag_69\n      jump\t// in\n    tag_286:\n      swap1\n      0x00\n      mstore\n      keccak256(0x00, 0x20)\n      swap1\n      0x08\n      mul\n      add\n        /* \"Practical6-Apply-TTT-Token.sol\":3856:3895  gameInformation[gameId]._player2address */\n      0x05\n      add\n      0x00\n        /* \"Practical6-Apply-TTT-Token.sol\":3856:3908  gameInformation[gameId]._player2address = msg.sender */\n      0x0100\n      exp\n      dup2\n      sload\n      dup2\n      sub(shl(0xa0, 0x01), 0x01)\n      mul\n      not\n      and\n      swap1\n      dup4\n      sub(shl(0xa0, 0x01), 0x01)\n      and\n      mul\n      or\n      swap1\n      sstore\n      pop\n        /* \"Practical6-Apply-TTT-Token.sol\":3962:3963  2 */\n      0x02\n        /* \"Practical6-Apply-TTT-Token.sol\":3923:3938  gameInformation */\n      0x01\n        /* \"Practical6-Apply-TTT-Token.sol\":3939:3945  gameId */\n      dup3\n        /* \"Practical6-Apply-TTT-Token.sol\":3923:3946  gameInformation[gameId] */\n      dup2\n      sload\n      dup2\n      lt\n      tag_289\n      jumpi\n      tag_289\n      tag_69\n      jump\t// in\n    tag_289:\n      swap1\n      0x00\n      mstore\n      keccak256(0x00, 0x20)\n      swap1\n      0x08\n      mul\n      add\n        /* \"Practical6-Apply-TTT-Token.sol\":3923:3959  gameInformation[gameId]._playerCount */\n      0x06\n      add\n        /* \"Practical6-Apply-TTT-Token.sol\":3923:3963  gameInformation[gameId]._playerCount = 2 */\n      dup2\n      swap1\n      sstore\n      pop\n        /* \"Practical6-Apply-TTT-Token.sol\":4014:4018  true */\n      0x01\n        /* \"Practical6-Apply-TTT-Token.sol\":3978:3993  gameInformation */\n      dup1\n        /* \"Practical6-Apply-TTT-Token.sol\":3994:4000  gameId */\n      dup3\n        /* \"Practical6-Apply-TTT-Token.sol\":3978:4001  gameInformation[gameId] */\n      dup2\n      sload\n      dup2\n      lt\n      tag_292\n      jumpi\n      tag_292\n      tag_69\n      jump\t// in\n    tag_292:\n      swap1\n      0x00\n      mstore\n      keccak256(0x00, 0x20)\n      swap1\n      0x08\n      mul\n      add\n        /* \"Practical6-Apply-TTT-Token.sol\":3978:4011  gameInformation[gameId]._activate */\n      0x00\n      add\n      0x00\n        /* \"Practical6-Apply-TTT-Token.sol\":3978:4018  gameInformation[gameId]._activate = true */\n      0x0100\n      exp\n      dup2\n      sload\n      dup2\n      0xff\n      mul\n      not\n      and\n      swap1\n      dup4\n      iszero\n      iszero\n      mul\n      or\n      swap1\n      sstore\n      pop\n        /* \"Practical6-Apply-TTT-Token.sol\":4141:4255  startGame(\"Start game!\", gameInformation[gameId]._player1address, gameInformation[gameId]._player2address, gameId) */\n      0x2f78808c539fd07cb45456a5d5561c76d3d4005246faccb297481e511abc321a\n        /* \"Practical6-Apply-TTT-Token.sol\":4166:4181  gameInformation */\n      0x01\n        /* \"Practical6-Apply-TTT-Token.sol\":4182:4188  gameId */\n      dup3\n        /* \"Practical6-Apply-TTT-Token.sol\":4166:4189  gameInformation[gameId] */\n      dup2\n      sload\n      dup2\n      lt\n      tag_295\n      jumpi\n      tag_295\n      tag_69\n      jump\t// in\n    tag_295:\n      swap1\n      0x00\n      mstore\n      keccak256(0x00, 0x20)\n      swap1\n      0x08\n      mul\n      add\n        /* \"Practical6-Apply-TTT-Token.sol\":4166:4205  gameInformation[gameId]._player1address */\n      0x04\n      add\n      0x00\n      swap1\n      sload\n      swap1\n      0x0100\n      exp\n      swap1\n      div\n      sub(shl(0xa0, 0x01), 0x01)\n      and\n        /* \"Practical6-Apply-TTT-Token.sol\":4207:4222  gameInformation */\n      0x01\n        /* \"Practical6-Apply-TTT-Token.sol\":4223:4229  gameId */\n      dup4\n        /* \"Practical6-Apply-TTT-Token.sol\":4207:4230  gameInformation[gameId] */\n      dup2\n      sload\n      dup2\n      lt\n      tag_298\n      jumpi\n      tag_298\n      tag_69\n      jump\t// in\n    tag_298:\n      0x00\n      swap2\n      dup3\n      mstore\n      0x20\n      swap2\n      dup3\n      swap1\n      keccak256\n        /* \"Practical6-Apply-TTT-Token.sol\":4207:4246  gameInformation[gameId]._player2address */\n      0x05\n        /* \"Practical6-Apply-TTT-Token.sol\":4207:4230  gameInformation[gameId] */\n      0x08\n      swap3\n      swap1\n      swap3\n      mul\n      add\n        /* \"Practical6-Apply-TTT-Token.sol\":4207:4246  gameInformation[gameId]._player2address */\n      add\n      sload\n        /* \"Practical6-Apply-TTT-Token.sol\":4141:4255  startGame(\"Start game!\", gameInformation[gameId]._player1address, gameInformation[gameId]._player2address, gameId) */\n      0x40\n      dup1\n      mload\n        /* \"#utility.yul\":18121:18124   */\n      0x80\n        /* \"#utility.yul\":18103:18125   */\n      dup1\n      dup3\n      mstore\n        /* \"#utility.yul\":18162:18164   */\n      0x0b\n        /* \"#utility.yul\":18141:18160   */\n      swap1\n      dup3\n      add\n        /* \"#utility.yul\":18134:18165   */\n      mstore\n      shl(0xa8, 0x53746172742067616d6521)\n        /* \"#utility.yul\":18196:18199   */\n      0xa0\n        /* \"#utility.yul\":18181:18200   */\n      dup3\n      add\n        /* \"#utility.yul\":18174:18216   */\n      mstore\n      sub(shl(0xa0, 0x01), 0x01)\n        /* \"#utility.yul\":18328:18343   */\n      swap5\n      dup6\n      and\n        /* \"#utility.yul\":18306:18326   */\n      swap4\n      dup2\n      add\n        /* \"#utility.yul\":18299:18344   */\n      swap4\n      swap1\n      swap4\n      mstore\n        /* \"Practical6-Apply-TTT-Token.sol\":4207:4246  gameInformation[gameId]._player2address */\n      swap3\n      and\n        /* \"#utility.yul\":18360:18378   */\n      dup2\n      dup4\n      add\n        /* \"#utility.yul\":18353:18396   */\n      mstore\n      0x60\n        /* \"#utility.yul\":18412:18430   */\n      dup2\n      add\n        /* \"#utility.yul\":18405:18439   */\n      dup5\n      swap1\n      mstore\n        /* \"Practical6-Apply-TTT-Token.sol\":4141:4255  startGame(\"Start game!\", gameInformation[gameId]._player1address, gameInformation[gameId]._player2address, gameId) */\n      swap1\n      mload\n      swap1\n      dup2\n      swap1\n      sub\n        /* \"#utility.yul\":18248:18251   */\n      0xc0\n        /* \"Practical6-Apply-TTT-Token.sol\":4141:4255  startGame(\"Start game!\", gameInformation[gameId]._player1address, gameInformation[gameId]._player2address, gameId) */\n      add\n      swap1\n      log1\n        /* \"Practical6-Apply-TTT-Token.sol\":3676:4478  if(gameInformation[gameId]._playerCount == 1){... */\n      jump(tag_306)\n    tag_278:\n        /* \"Practical6-Apply-TTT-Token.sol\":4359:4374  gameInformation */\n      0x01\n        /* \"Practical6-Apply-TTT-Token.sol\":4375:4381  gameId */\n      dup2\n        /* \"Practical6-Apply-TTT-Token.sol\":4359:4382  gameInformation[gameId] */\n      dup2\n      sload\n      dup2\n      lt\n      tag_304\n      jumpi\n      tag_304\n      tag_69\n      jump\t// in\n    tag_304:\n      swap1\n      0x00\n      mstore\n      keccak256(0x00, 0x20)\n      swap1\n      0x08\n      mul\n      add\n        /* \"Practical6-Apply-TTT-Token.sol\":4359:4395  gameInformation[gameId]._playerCount */\n      0x06\n      add\n      sload\n        /* \"Practical6-Apply-TTT-Token.sol\":4399:4400  2 */\n      0x02\n        /* \"Practical6-Apply-TTT-Token.sol\":4359:4400  gameInformation[gameId]._playerCount == 2 */\n      eq\n        /* \"Practical6-Apply-TTT-Token.sol\":4351:4466  require(gameInformation[gameId]._playerCount == 2,\"Now queue is full, try later. Game already full pls join other\") */\n      tag_306\n      jumpi\n      mload(0x40)\n      shl(0xe5, 0x461bcd)\n      dup2\n      mstore\n        /* \"#utility.yul\":18652:18654   */\n      0x20\n        /* \"Practical6-Apply-TTT-Token.sol\":4351:4466  require(gameInformation[gameId]._playerCount == 2,\"Now queue is full, try later. Game already full pls join other\") */\n      0x04\n      dup3\n      add\n        /* \"#utility.yul\":18634:18655   */\n      mstore\n        /* \"#utility.yul\":18691:18693   */\n      0x3e\n        /* \"#utility.yul\":18671:18689   */\n      0x24\n      dup3\n      add\n        /* \"#utility.yul\":18664:18694   */\n      mstore\n        /* \"#utility.yul\":18730:18764   */\n      0x4e6f772071756575652069732066756c6c2c20747279206c617465722e204761\n        /* \"#utility.yul\":18710:18728   */\n      0x44\n      dup3\n      add\n        /* \"#utility.yul\":18703:18765   */\n      mstore\n        /* \"#utility.yul\":18801:18833   */\n      0x6d6520616c72656164792066756c6c20706c73206a6f696e206f746865720000\n        /* \"#utility.yul\":18781:18799   */\n      0x64\n      dup3\n      add\n        /* \"#utility.yul\":18774:18834   */\n      mstore\n        /* \"#utility.yul\":18851:18870   */\n      0x84\n      add\n        /* \"Practical6-Apply-TTT-Token.sol\":4351:4466  require(gameInformation[gameId]._playerCount == 2,\"Now queue is full, try later. Game already full pls join other\") */\n      tag_77\n        /* \"#utility.yul\":18450:18876   */\n      jump\n        /* \"Practical6-Apply-TTT-Token.sol\":4351:4466  require(gameInformation[gameId]._playerCount == 2,\"Now queue is full, try later. Game already full pls join other\") */\n    tag_306:\n        /* \"Practical6-Apply-TTT-Token.sol\":4534:4575  joinRoom(gameInformation[gameId], gameId) */\n      0xe5fec41b03dea13e32365d514866799a1ea13b31ed7df1eed2092b1dbdb7abe7\n        /* \"Practical6-Apply-TTT-Token.sol\":4543:4558  gameInformation */\n      0x01\n        /* \"Practical6-Apply-TTT-Token.sol\":4559:4565  gameId */\n      dup3\n        /* \"Practical6-Apply-TTT-Token.sol\":4543:4566  gameInformation[gameId] */\n      dup2\n      sload\n      dup2\n      lt\n      tag_310\n      jumpi\n      tag_310\n      tag_69\n      jump\t// in\n    tag_310:\n      swap1\n      0x00\n      mstore\n      keccak256(0x00, 0x20)\n      swap1\n      0x08\n      mul\n      add\n        /* \"Practical6-Apply-TTT-Token.sol\":4568:4574  gameId */\n      dup3\n        /* \"Practical6-Apply-TTT-Token.sol\":4534:4575  joinRoom(gameInformation[gameId], gameId) */\n      mload(0x40)\n      tag_120\n      swap3\n      swap2\n      swap1\n      tag_313\n      jump\t// in\n        /* \"Practical6-Apply-TTT-Token.sol\":9930:10146  function checkAddress (uint gameId) private view returns (bool) {... */\n    tag_75:\n        /* \"Practical6-Apply-TTT-Token.sol\":9988:9992  bool */\n      0x00\n        /* \"Practical6-Apply-TTT-Token.sol\":10026:10041  gameInformation */\n      0x01\n        /* \"Practical6-Apply-TTT-Token.sol\":10042:10048  gameId */\n      dup3\n        /* \"Practical6-Apply-TTT-Token.sol\":10026:10049  gameInformation[gameId] */\n      dup2\n      sload\n      dup2\n      lt\n      tag_316\n      jumpi\n      tag_316\n      tag_69\n      jump\t// in\n    tag_316:\n      0x00\n      swap2\n      dup3\n      mstore\n      0x20\n      swap1\n      swap2\n      keccak256\n      0x08\n      swap1\n      swap2\n      mul\n      add\n        /* \"Practical6-Apply-TTT-Token.sol\":10026:10065  gameInformation[gameId]._player1address */\n      0x04\n      add\n      sload\n      sub(shl(0xa0, 0x01), 0x01)\n      and\n        /* \"Practical6-Apply-TTT-Token.sol\":10012:10022  msg.sender */\n      caller\n        /* \"Practical6-Apply-TTT-Token.sol\":10012:10065  msg.sender == gameInformation[gameId]._player1address */\n      eq\n      dup1\n        /* \"Practical6-Apply-TTT-Token.sol\":10012:10122  msg.sender == gameInformation[gameId]._player1address || msg.sender == gameInformation[gameId]._player2address */\n      tag_318\n      jumpi\n      pop\n        /* \"Practical6-Apply-TTT-Token.sol\":10083:10098  gameInformation */\n      0x01\n        /* \"Practical6-Apply-TTT-Token.sol\":10099:10105  gameId */\n      dup3\n        /* \"Practical6-Apply-TTT-Token.sol\":10083:10106  gameInformation[gameId] */\n      dup2\n      sload\n      dup2\n      lt\n      tag_320\n      jumpi\n      tag_320\n      tag_69\n      jump\t// in\n    tag_320:\n      0x00\n      swap2\n      dup3\n      mstore\n      0x20\n      swap1\n      swap2\n      keccak256\n      0x08\n      swap1\n      swap2\n      mul\n      add\n        /* \"Practical6-Apply-TTT-Token.sol\":10083:10122  gameInformation[gameId]._player2address */\n      0x05\n      add\n      sload\n      sub(shl(0xa0, 0x01), 0x01)\n      and\n        /* \"Practical6-Apply-TTT-Token.sol\":10069:10079  msg.sender */\n      caller\n        /* \"Practical6-Apply-TTT-Token.sol\":10069:10122  msg.sender == gameInformation[gameId]._player2address */\n      eq\n        /* \"Practical6-Apply-TTT-Token.sol\":10012:10122  msg.sender == gameInformation[gameId]._player1address || msg.sender == gameInformation[gameId]._player2address */\n    tag_318:\n        /* \"Practical6-Apply-TTT-Token.sol\":10012:10137  msg.sender == gameInformation[gameId]._player1address || msg.sender == gameInformation[gameId]._player2address ? true : false */\n      tag_322\n      jumpi\n        /* \"Practical6-Apply-TTT-Token.sol\":10132:10137  false */\n      0x00\n        /* \"Practical6-Apply-TTT-Token.sol\":10012:10137  msg.sender == gameInformation[gameId]._player1address || msg.sender == gameInformation[gameId]._player2address ? true : false */\n      jump(tag_251)\n    tag_322:\n        /* \"Practical6-Apply-TTT-Token.sol\":10125:10129  true */\n      0x01\n        /* \"Practical6-Apply-TTT-Token.sol\":10005:10137  return msg.sender == gameInformation[gameId]._player1address || msg.sender == gameInformation[gameId]._player2address ? true : false */\n      swap3\n        /* \"Practical6-Apply-TTT-Token.sol\":9930:10146  function checkAddress (uint gameId) private view returns (bool) {... */\n      swap2\n      pop\n      pop\n      jump\t// out\n        /* \"Practical6-Apply-TTT-Token.sol\":5722:8053  function checkWinner (uint gameId) private {... */\n    tag_183:\n        /* \"Practical6-Apply-TTT-Token.sol\":5776:5788  bool userWon */\n      0x00\n        /* \"Practical6-Apply-TTT-Token.sol\":5914:5920  uint i */\n      dup1\n        /* \"Practical6-Apply-TTT-Token.sol\":5910:7285  for(uint i = 0 ; i < winConditionSet.length; i++){... */\n    tag_325:\n        /* \"Practical6-Apply-TTT-Token.sol\":5931:5946  winConditionSet */\n      0x02\n        /* \"Practical6-Apply-TTT-Token.sol\":5931:5953  winConditionSet.length */\n      sload\n        /* \"Practical6-Apply-TTT-Token.sol\":5927:5953  i < winConditionSet.length */\n      dup2\n      lt\n        /* \"Practical6-Apply-TTT-Token.sol\":5910:7285  for(uint i = 0 ; i < winConditionSet.length; i++){... */\n      iszero\n      tag_326\n      jumpi\n        /* \"Practical6-Apply-TTT-Token.sol\":5974:6000  uint[] memory winCondition */\n      0x00\n        /* \"Practical6-Apply-TTT-Token.sol\":6003:6018  winConditionSet */\n      0x02\n        /* \"Practical6-Apply-TTT-Token.sol\":6019:6020  i */\n      dup3\n        /* \"Practical6-Apply-TTT-Token.sol\":6003:6021  winConditionSet[i] */\n      dup2\n      sload\n      dup2\n      lt\n      tag_329\n      jumpi\n      tag_329\n      tag_69\n      jump\t// in\n    tag_329:\n      swap1\n      0x00\n      mstore\n      keccak256(0x00, 0x20)\n      add\n        /* \"Practical6-Apply-TTT-Token.sol\":5974:6021  uint[] memory winCondition = winConditionSet[i] */\n      dup1\n      sload\n      dup1\n      0x20\n      mul\n      0x20\n      add\n      mload(0x40)\n      swap1\n      dup2\n      add\n      0x40\n      mstore\n      dup1\n      swap3\n      swap2\n      swap1\n      dup2\n      dup2\n      mstore\n      0x20\n      add\n      dup3\n      dup1\n      sload\n      dup1\n      iszero\n      tag_331\n      jumpi\n      0x20\n      mul\n      dup3\n      add\n      swap2\n      swap1\n      0x00\n      mstore\n      keccak256(0x00, 0x20)\n      swap1\n    tag_332:\n      dup2\n      sload\n      dup2\n      mstore\n      0x20\n      add\n      swap1\n      0x01\n      add\n      swap1\n      dup1\n      dup4\n      gt\n      tag_332\n      jumpi\n    tag_331:\n      pop\n      pop\n      pop\n      pop\n      pop\n      swap1\n      pop\n        /* \"Practical6-Apply-TTT-Token.sol\":6095:6116  string memory resultA */\n      0x00\n        /* \"Practical6-Apply-TTT-Token.sol\":6118:6133  gameInformation */\n      0x01\n        /* \"Practical6-Apply-TTT-Token.sol\":6134:6140  gameId */\n      dup6\n        /* \"Practical6-Apply-TTT-Token.sol\":6118:6141  gameInformation[gameId] */\n      dup2\n      sload\n      dup2\n      lt\n      tag_334\n      jumpi\n      tag_334\n      tag_69\n      jump\t// in\n    tag_334:\n      swap1\n      0x00\n      mstore\n      keccak256(0x00, 0x20)\n      swap1\n      0x08\n      mul\n      add\n        /* \"Practical6-Apply-TTT-Token.sol\":6118:6150  gameInformation[gameId]._options */\n      0x02\n      add\n        /* \"Practical6-Apply-TTT-Token.sol\":6151:6163  winCondition */\n      dup3\n        /* \"Practical6-Apply-TTT-Token.sol\":6164:6165  0 */\n      0x00\n        /* \"Practical6-Apply-TTT-Token.sol\":6151:6166  winCondition[0] */\n      dup2\n      mload\n      dup2\n      lt\n      tag_337\n      jumpi\n      tag_337\n      tag_69\n      jump\t// in\n    tag_337:\n      0x20\n      mul\n      0x20\n      add\n      add\n      mload\n        /* \"Practical6-Apply-TTT-Token.sol\":6118:6167  gameInformation[gameId]._options[winCondition[0]] */\n      dup2\n      sload\n      dup2\n      lt\n      tag_339\n      jumpi\n      tag_339\n      tag_69\n      jump\t// in\n    tag_339:\n      swap1\n      0x00\n      mstore\n      keccak256(0x00, 0x20)\n      add\n        /* \"Practical6-Apply-TTT-Token.sol\":6095:6167  string memory resultA= gameInformation[gameId]._options[winCondition[0]] */\n      dup1\n      sload\n      tag_341\n      swap1\n      tag_91\n      jump\t// in\n    tag_341:\n      dup1\n      0x1f\n      add\n      0x20\n      dup1\n      swap2\n      div\n      mul\n      0x20\n      add\n      mload(0x40)\n      swap1\n      dup2\n      add\n      0x40\n      mstore\n      dup1\n      swap3\n      swap2\n      swap1\n      dup2\n      dup2\n      mstore\n      0x20\n      add\n      dup3\n      dup1\n      sload\n      tag_342\n      swap1\n      tag_91\n      jump\t// in\n    tag_342:\n      dup1\n      iszero\n      tag_343\n      jumpi\n      dup1\n      0x1f\n      lt\n      tag_344\n      jumpi\n      0x0100\n      dup1\n      dup4\n      sload\n      div\n      mul\n      dup4\n      mstore\n      swap2\n      0x20\n      add\n      swap2\n      jump(tag_343)\n    tag_344:\n      dup3\n      add\n      swap2\n      swap1\n      0x00\n      mstore\n      keccak256(0x00, 0x20)\n      swap1\n    tag_345:\n      dup2\n      sload\n      dup2\n      mstore\n      swap1\n      0x01\n      add\n      swap1\n      0x20\n      add\n      dup1\n      dup4\n      gt\n      tag_345\n      jumpi\n      dup3\n      swap1\n      sub\n      0x1f\n      and\n      dup3\n      add\n      swap2\n    tag_343:\n      pop\n      pop\n      pop\n      pop\n      pop\n      swap1\n      pop\n        /* \"Practical6-Apply-TTT-Token.sol\":6182:6203  string memory resultB */\n      0x00\n        /* \"Practical6-Apply-TTT-Token.sol\":6205:6220  gameInformation */\n      0x01\n        /* \"Practical6-Apply-TTT-Token.sol\":6221:6227  gameId */\n      dup7\n        /* \"Practical6-Apply-TTT-Token.sol\":6205:6228  gameInformation[gameId] */\n      dup2\n      sload\n      dup2\n      lt\n      tag_347\n      jumpi\n      tag_347\n      tag_69\n      jump\t// in\n    tag_347:\n      swap1\n      0x00\n      mstore\n      keccak256(0x00, 0x20)\n      swap1\n      0x08\n      mul\n      add\n        /* \"Practical6-Apply-TTT-Token.sol\":6205:6237  gameInformation[gameId]._options */\n      0x02\n      add\n        /* \"Practical6-Apply-TTT-Token.sol\":6238:6250  winCondition */\n      dup4\n        /* \"Practical6-Apply-TTT-Token.sol\":6251:6252  1 */\n      0x01\n        /* \"Practical6-Apply-TTT-Token.sol\":6238:6253  winCondition[1] */\n      dup2\n      mload\n      dup2\n      lt\n      tag_350\n      jumpi\n      tag_350\n      tag_69\n      jump\t// in\n    tag_350:\n      0x20\n      mul\n      0x20\n      add\n      add\n      mload\n        /* \"Practical6-Apply-TTT-Token.sol\":6205:6254  gameInformation[gameId]._options[winCondition[1]] */\n      dup2\n      sload\n      dup2\n      lt\n      tag_352\n      jumpi\n      tag_352\n      tag_69\n      jump\t// in\n    tag_352:\n      swap1\n      0x00\n      mstore\n      keccak256(0x00, 0x20)\n      add\n        /* \"Practical6-Apply-TTT-Token.sol\":6182:6254  string memory resultB= gameInformation[gameId]._options[winCondition[1]] */\n      dup1\n      sload\n      tag_354\n      swap1\n      tag_91\n      jump\t// in\n    tag_354:\n      dup1\n      0x1f\n      add\n      0x20\n      dup1\n      swap2\n      div\n      mul\n      0x20\n      add\n      mload(0x40)\n      swap1\n      dup2\n      add\n      0x40\n      mstore\n      dup1\n      swap3\n      swap2\n      swap1\n      dup2\n      dup2\n      mstore\n      0x20\n      add\n      dup3\n      dup1\n      sload\n      tag_355\n      swap1\n      tag_91\n      jump\t// in\n    tag_355:\n      dup1\n      iszero\n      tag_356\n      jumpi\n      dup1\n      0x1f\n      lt\n      tag_357\n      jumpi\n      0x0100\n      dup1\n      dup4\n      sload\n      div\n      mul\n      dup4\n      mstore\n      swap2\n      0x20\n      add\n      swap2\n      jump(tag_356)\n    tag_357:\n      dup3\n      add\n      swap2\n      swap1\n      0x00\n      mstore\n      keccak256(0x00, 0x20)\n      swap1\n    tag_358:\n      dup2\n      sload\n      dup2\n      mstore\n      swap1\n      0x01\n      add\n      swap1\n      0x20\n      add\n      dup1\n      dup4\n      gt\n      tag_358\n      jumpi\n      dup3\n      swap1\n      sub\n      0x1f\n      and\n      dup3\n      add\n      swap2\n    tag_356:\n      pop\n      pop\n      pop\n      pop\n      pop\n      swap1\n      pop\n        /* \"Practical6-Apply-TTT-Token.sol\":6269:6290  string memory resultC */\n      0x00\n        /* \"Practical6-Apply-TTT-Token.sol\":6292:6307  gameInformation */\n      0x01\n        /* \"Practical6-Apply-TTT-Token.sol\":6308:6314  gameId */\n      dup8\n        /* \"Practical6-Apply-TTT-Token.sol\":6292:6315  gameInformation[gameId] */\n      dup2\n      sload\n      dup2\n      lt\n      tag_360\n      jumpi\n      tag_360\n      tag_69\n      jump\t// in\n    tag_360:\n      swap1\n      0x00\n      mstore\n      keccak256(0x00, 0x20)\n      swap1\n      0x08\n      mul\n      add\n        /* \"Practical6-Apply-TTT-Token.sol\":6292:6324  gameInformation[gameId]._options */\n      0x02\n      add\n        /* \"Practical6-Apply-TTT-Token.sol\":6325:6337  winCondition */\n      dup5\n        /* \"Practical6-Apply-TTT-Token.sol\":6338:6339  2 */\n      0x02\n        /* \"Practical6-Apply-TTT-Token.sol\":6325:6340  winCondition[2] */\n      dup2\n      mload\n      dup2\n      lt\n      tag_363\n      jumpi\n      tag_363\n      tag_69\n      jump\t// in\n    tag_363:\n      0x20\n      mul\n      0x20\n      add\n      add\n      mload\n        /* \"Practical6-Apply-TTT-Token.sol\":6292:6341  gameInformation[gameId]._options[winCondition[2]] */\n      dup2\n      sload\n      dup2\n      lt\n      tag_365\n      jumpi\n      tag_365\n      tag_69\n      jump\t// in\n    tag_365:\n      swap1\n      0x00\n      mstore\n      keccak256(0x00, 0x20)\n      add\n        /* \"Practical6-Apply-TTT-Token.sol\":6269:6341  string memory resultC= gameInformation[gameId]._options[winCondition[2]] */\n      dup1\n      sload\n      tag_367\n      swap1\n      tag_91\n      jump\t// in\n    tag_367:\n      dup1\n      0x1f\n      add\n      0x20\n      dup1\n      swap2\n      div\n      mul\n      0x20\n      add\n      mload(0x40)\n      swap1\n      dup2\n      add\n      0x40\n      mstore\n      dup1\n      swap3\n      swap2\n      swap1\n      dup2\n      dup2\n      mstore\n      0x20\n      add\n      dup3\n      dup1\n      sload\n      tag_368\n      swap1\n      tag_91\n      jump\t// in\n    tag_368:\n      dup1\n      iszero\n      tag_369\n      jumpi\n      dup1\n      0x1f\n      lt\n      tag_370\n      jumpi\n      0x0100\n      dup1\n      dup4\n      sload\n      div\n      mul\n      dup4\n      mstore\n      swap2\n      0x20\n      add\n      swap2\n      jump(tag_369)\n    tag_370:\n      dup3\n      add\n      swap2\n      swap1\n      0x00\n      mstore\n      keccak256(0x00, 0x20)\n      swap1\n    tag_371:\n      dup2\n      sload\n      dup2\n      mstore\n      swap1\n      0x01\n      add\n      swap1\n      0x20\n      add\n      dup1\n      dup4\n      gt\n      tag_371\n      jumpi\n      dup3\n      swap1\n      sub\n      0x1f\n      and\n      dup3\n      add\n      swap2\n    tag_369:\n      pop\n      pop\n      pop\n      pop\n      pop\n      swap1\n      pop\n        /* \"Practical6-Apply-TTT-Token.sol\":6560:6587  compareStrings(resultA, \"\") */\n      tag_372\n        /* \"Practical6-Apply-TTT-Token.sol\":6575:6582  resultA */\n      dup4\n        /* \"Practical6-Apply-TTT-Token.sol\":6560:6587  compareStrings(resultA, \"\") */\n      mload(0x40)\n      dup1\n      0x20\n      add\n      0x40\n      mstore\n      dup1\n      0x00\n      dup2\n      mstore\n      pop\n        /* \"Practical6-Apply-TTT-Token.sol\":6560:6574  compareStrings */\n      tag_51\n        /* \"Practical6-Apply-TTT-Token.sol\":6560:6587  compareStrings(resultA, \"\") */\n      jump\t// in\n    tag_372:\n        /* \"Practical6-Apply-TTT-Token.sol\":6560:6616  compareStrings(resultA, \"\")||compareStrings(resultB, \"\") */\n      dup1\n      tag_374\n      jumpi\n      pop\n        /* \"Practical6-Apply-TTT-Token.sol\":6589:6616  compareStrings(resultB, \"\") */\n      tag_374\n        /* \"Practical6-Apply-TTT-Token.sol\":6604:6611  resultB */\n      dup3\n        /* \"Practical6-Apply-TTT-Token.sol\":6589:6616  compareStrings(resultB, \"\") */\n      mload(0x40)\n      dup1\n      0x20\n      add\n      0x40\n      mstore\n      dup1\n      0x00\n      dup2\n      mstore\n      pop\n        /* \"Practical6-Apply-TTT-Token.sol\":6589:6603  compareStrings */\n      tag_51\n        /* \"Practical6-Apply-TTT-Token.sol\":6589:6616  compareStrings(resultB, \"\") */\n      jump\t// in\n    tag_374:\n        /* \"Practical6-Apply-TTT-Token.sol\":6560:6645  compareStrings(resultA, \"\")||compareStrings(resultB, \"\")||compareStrings(resultC, \"\") */\n      dup1\n      tag_376\n      jumpi\n      pop\n        /* \"Practical6-Apply-TTT-Token.sol\":6618:6645  compareStrings(resultC, \"\") */\n      tag_376\n        /* \"Practical6-Apply-TTT-Token.sol\":6633:6640  resultC */\n      dup2\n        /* \"Practical6-Apply-TTT-Token.sol\":6618:6645  compareStrings(resultC, \"\") */\n      mload(0x40)\n      dup1\n      0x20\n      add\n      0x40\n      mstore\n      dup1\n      0x00\n      dup2\n      mstore\n      pop\n        /* \"Practical6-Apply-TTT-Token.sol\":6618:6632  compareStrings */\n      tag_51\n        /* \"Practical6-Apply-TTT-Token.sol\":6618:6645  compareStrings(resultC, \"\") */\n      jump\t// in\n    tag_376:\n        /* \"Practical6-Apply-TTT-Token.sol\":6557:6689  if(compareStrings(resultA, \"\")||compareStrings(resultB, \"\")||compareStrings(resultC, \"\")){... */\n      iszero\n      tag_377\n      jumpi\n        /* \"Practical6-Apply-TTT-Token.sol\":6665:6673  continue */\n      pop\n      pop\n      pop\n      pop\n      jump(tag_327)\n        /* \"Practical6-Apply-TTT-Token.sol\":6557:6689  if(compareStrings(resultA, \"\")||compareStrings(resultB, \"\")||compareStrings(resultC, \"\")){... */\n    tag_377:\n        /* \"Practical6-Apply-TTT-Token.sol\":6706:6738  compareStrings(resultA, resultB) */\n      tag_378\n        /* \"Practical6-Apply-TTT-Token.sol\":6721:6728  resultA */\n      dup4\n        /* \"Practical6-Apply-TTT-Token.sol\":6730:6737  resultB */\n      dup4\n        /* \"Practical6-Apply-TTT-Token.sol\":6706:6720  compareStrings */\n      tag_51\n        /* \"Practical6-Apply-TTT-Token.sol\":6706:6738  compareStrings(resultA, resultB) */\n      jump\t// in\n    tag_378:\n        /* \"Practical6-Apply-TTT-Token.sol\":6706:6774  compareStrings(resultA, resultB) && compareStrings(resultB, resultC) */\n      dup1\n      iszero\n      tag_380\n      jumpi\n      pop\n        /* \"Practical6-Apply-TTT-Token.sol\":6742:6774  compareStrings(resultB, resultC) */\n      tag_380\n        /* \"Practical6-Apply-TTT-Token.sol\":6757:6764  resultB */\n      dup3\n        /* \"Practical6-Apply-TTT-Token.sol\":6766:6773  resultC */\n      dup3\n        /* \"Practical6-Apply-TTT-Token.sol\":6742:6756  compareStrings */\n      tag_51\n        /* \"Practical6-Apply-TTT-Token.sol\":6742:6774  compareStrings(resultB, resultC) */\n      jump\t// in\n    tag_380:\n        /* \"Practical6-Apply-TTT-Token.sol\":6703:7274  if(compareStrings(resultA, resultB) && compareStrings(resultB, resultC)){... */\n      iszero\n      tag_381\n      jumpi\n        /* \"Practical6-Apply-TTT-Token.sol\":6836:6848  winCondition */\n      dup4\n        /* \"Practical6-Apply-TTT-Token.sol\":6794:6809  gameInformation */\n      0x01\n        /* \"Practical6-Apply-TTT-Token.sol\":6810:6816  gameId */\n      dup9\n        /* \"Practical6-Apply-TTT-Token.sol\":6794:6817  gameInformation[gameId] */\n      dup2\n      sload\n      dup2\n      lt\n      tag_383\n      jumpi\n      tag_383\n      tag_69\n      jump\t// in\n    tag_383:\n      swap1\n      0x00\n      mstore\n      keccak256(0x00, 0x20)\n      swap1\n      0x08\n      mul\n      add\n        /* \"Practical6-Apply-TTT-Token.sol\":6794:6833  gameInformation[gameId]._finalWinOption */\n      0x03\n      add\n        /* \"Practical6-Apply-TTT-Token.sol\":6794:6848  gameInformation[gameId]._finalWinOption = winCondition */\n      swap1\n      dup1\n      mload\n      swap1\n      0x20\n      add\n      swap1\n      tag_385\n      swap3\n      swap2\n      swap1\n      tag_199\n      jump\t// in\n    tag_385:\n      pop\n        /* \"Practical6-Apply-TTT-Token.sol\":6888:6947  compareStrings(gameInformation[gameId]._currentPlayer, \"X\") */\n      tag_386\n        /* \"Practical6-Apply-TTT-Token.sol\":6903:6918  gameInformation */\n      0x01\n        /* \"Practical6-Apply-TTT-Token.sol\":6919:6925  gameId */\n      dup9\n        /* \"Practical6-Apply-TTT-Token.sol\":6903:6926  gameInformation[gameId] */\n      dup2\n      sload\n      dup2\n      lt\n      tag_145\n      jumpi\n      tag_145\n      tag_69\n      jump\t// in\n        /* \"Practical6-Apply-TTT-Token.sol\":6888:6947  compareStrings(gameInformation[gameId]._currentPlayer, \"X\") */\n    tag_386:\n        /* \"Practical6-Apply-TTT-Token.sol\":6885:7184  if(compareStrings(gameInformation[gameId]._currentPlayer, \"X\")){... */\n      iszero\n      tag_395\n      jumpi\n        /* \"Practical6-Apply-TTT-Token.sol\":7004:7019  gameInformation */\n      0x01\n        /* \"Practical6-Apply-TTT-Token.sol\":7020:7026  gameId */\n      dup8\n        /* \"Practical6-Apply-TTT-Token.sol\":7004:7027  gameInformation[gameId] */\n      dup2\n      sload\n      dup2\n      lt\n      tag_397\n      jumpi\n      tag_397\n      tag_69\n      jump\t// in\n    tag_397:\n      swap1\n      0x00\n      mstore\n      keccak256(0x00, 0x20)\n      swap1\n      0x08\n      mul\n      add\n        /* \"Practical6-Apply-TTT-Token.sol\":7004:7043  gameInformation[gameId]._player1address */\n      0x04\n      add\n      0x00\n      swap1\n      sload\n      swap1\n      0x0100\n      exp\n      swap1\n      div\n      sub(shl(0xa0, 0x01), 0x01)\n      and\n        /* \"Practical6-Apply-TTT-Token.sol\":6971:6986  gameInformation */\n      0x01\n        /* \"Practical6-Apply-TTT-Token.sol\":6987:6993  gameId */\n      dup9\n        /* \"Practical6-Apply-TTT-Token.sol\":6971:6994  gameInformation[gameId] */\n      dup2\n      sload\n      dup2\n      lt\n      tag_400\n      jumpi\n      tag_400\n      tag_69\n      jump\t// in\n    tag_400:\n      swap1\n      0x00\n      mstore\n      keccak256(0x00, 0x20)\n      swap1\n      0x08\n      mul\n      add\n        /* \"Practical6-Apply-TTT-Token.sol\":6971:7001  gameInformation[gameId]._winer */\n      0x07\n      add\n      0x00\n        /* \"Practical6-Apply-TTT-Token.sol\":6971:7043  gameInformation[gameId]._winer = gameInformation[gameId]._player1address */\n      0x0100\n      exp\n      dup2\n      sload\n      dup2\n      sub(shl(0xa0, 0x01), 0x01)\n      mul\n      not\n      and\n      swap1\n      dup4\n      sub(shl(0xa0, 0x01), 0x01)\n      and\n      mul\n      or\n      swap1\n      sstore\n      pop\n        /* \"Practical6-Apply-TTT-Token.sol\":6885:7184  if(compareStrings(gameInformation[gameId]._currentPlayer, \"X\")){... */\n      jump(tag_402)\n    tag_395:\n        /* \"Practical6-Apply-TTT-Token.sol\":7125:7140  gameInformation */\n      0x01\n        /* \"Practical6-Apply-TTT-Token.sol\":7141:7147  gameId */\n      dup8\n        /* \"Practical6-Apply-TTT-Token.sol\":7125:7148  gameInformation[gameId] */\n      dup2\n      sload\n      dup2\n      lt\n      tag_404\n      jumpi\n      tag_404\n      tag_69\n      jump\t// in\n    tag_404:\n      swap1\n      0x00\n      mstore\n      keccak256(0x00, 0x20)\n      swap1\n      0x08\n      mul\n      add\n        /* \"Practical6-Apply-TTT-Token.sol\":7125:7164  gameInformation[gameId]._player2address */\n      0x05\n      add\n      0x00\n      swap1\n      sload\n      swap1\n      0x0100\n      exp\n      swap1\n      div\n      sub(shl(0xa0, 0x01), 0x01)\n      and\n        /* \"Practical6-Apply-TTT-Token.sol\":7092:7107  gameInformation */\n      0x01\n        /* \"Practical6-Apply-TTT-Token.sol\":7108:7114  gameId */\n      dup9\n        /* \"Practical6-Apply-TTT-Token.sol\":7092:7115  gameInformation[gameId] */\n      dup2\n      sload\n      dup2\n      lt\n      tag_407\n      jumpi\n      tag_407\n      tag_69\n      jump\t// in\n    tag_407:\n      swap1\n      0x00\n      mstore\n      keccak256(0x00, 0x20)\n      swap1\n      0x08\n      mul\n      add\n        /* \"Practical6-Apply-TTT-Token.sol\":7092:7122  gameInformation[gameId]._winer */\n      0x07\n      add\n      0x00\n        /* \"Practical6-Apply-TTT-Token.sol\":7092:7164  gameInformation[gameId]._winer = gameInformation[gameId]._player2address */\n      0x0100\n      exp\n      dup2\n      sload\n      dup2\n      sub(shl(0xa0, 0x01), 0x01)\n      mul\n      not\n      and\n      swap1\n      dup4\n      sub(shl(0xa0, 0x01), 0x01)\n      and\n      mul\n      or\n      swap1\n      sstore\n      pop\n        /* \"Practical6-Apply-TTT-Token.sol\":6885:7184  if(compareStrings(gameInformation[gameId]._currentPlayer, \"X\")){... */\n    tag_402:\n        /* \"Practical6-Apply-TTT-Token.sol\":7230:7234  true */\n      0x01\n        /* \"Practical6-Apply-TTT-Token.sol\":7220:7234  userWon = true */\n      swap6\n      pop\n        /* \"Practical6-Apply-TTT-Token.sol\":7253:7258  break */\n      pop\n      pop\n      pop\n      pop\n      jump(tag_326)\n        /* \"Practical6-Apply-TTT-Token.sol\":6703:7274  if(compareStrings(resultA, resultB) && compareStrings(resultB, resultC)){... */\n    tag_381:\n        /* \"Practical6-Apply-TTT-Token.sol\":5959:7285  {... */\n      pop\n      pop\n      pop\n      pop\n        /* \"Practical6-Apply-TTT-Token.sol\":5910:7285  for(uint i = 0 ; i < winConditionSet.length; i++){... */\n    tag_327:\n        /* \"Practical6-Apply-TTT-Token.sol\":5955:5958  i++ */\n      dup1\n      tag_409\n      dup2\n      tag_228\n      jump\t// in\n    tag_409:\n      swap2\n      pop\n      pop\n        /* \"Practical6-Apply-TTT-Token.sol\":5910:7285  for(uint i = 0 ; i < winConditionSet.length; i++){... */\n      jump(tag_325)\n    tag_326:\n      pop\n        /* \"Practical6-Apply-TTT-Token.sol\":7403:7410  userWon */\n      dup1\n        /* \"Practical6-Apply-TTT-Token.sol\":7400:8046  if(userWon){... */\n      iszero\n      tag_410\n      jumpi\n        /* \"Practical6-Apply-TTT-Token.sol\":7468:7526  showResult(gameInformation[gameId]._currentPlayer, gameId) */\n      0x938a1c44580c51d01225d61fb97878104148b1cdc734eb45bc5b5b50533a492d\n        /* \"Practical6-Apply-TTT-Token.sol\":7479:7494  gameInformation */\n      0x01\n        /* \"Practical6-Apply-TTT-Token.sol\":7495:7501  gameId */\n      dup4\n        /* \"Practical6-Apply-TTT-Token.sol\":7479:7502  gameInformation[gameId] */\n      dup2\n      sload\n      dup2\n      lt\n      tag_412\n      jumpi\n      tag_412\n      tag_69\n      jump\t// in\n    tag_412:\n      swap1\n      0x00\n      mstore\n      keccak256(0x00, 0x20)\n      swap1\n      0x08\n      mul\n      add\n        /* \"Practical6-Apply-TTT-Token.sol\":7479:7517  gameInformation[gameId]._currentPlayer */\n      0x01\n      add\n        /* \"Practical6-Apply-TTT-Token.sol\":7519:7525  gameId */\n      dup4\n        /* \"Practical6-Apply-TTT-Token.sol\":7468:7526  showResult(gameInformation[gameId]._currentPlayer, gameId) */\n      mload(0x40)\n      tag_414\n      swap3\n      swap2\n      swap1\n      tag_415\n      jump\t// in\n    tag_414:\n      mload(0x40)\n      dup1\n      swap2\n      sub\n      swap1\n      log1\n        /* \"Practical6-Apply-TTT-Token.sol\":7634:7639  false */\n      0x00\n        /* \"Practical6-Apply-TTT-Token.sol\":7598:7613  gameInformation */\n      0x01\n        /* \"Practical6-Apply-TTT-Token.sol\":7614:7620  gameId */\n      dup4\n        /* \"Practical6-Apply-TTT-Token.sol\":7598:7621  gameInformation[gameId] */\n      dup2\n      sload\n      dup2\n      lt\n      tag_417\n      jumpi\n      tag_417\n      tag_69\n      jump\t// in\n    tag_417:\n      0x00\n      swap2\n      dup3\n      mstore\n      0x20\n      swap1\n      swap2\n      keccak256\n      0x08\n      swap1\n      swap2\n      mul\n      add\n        /* \"Practical6-Apply-TTT-Token.sol\":7598:7639  gameInformation[gameId]._activate = false */\n      dup1\n      sload\n      not(0xff)\n      and\n      swap2\n      iszero\n      iszero\n      swap2\n      swap1\n      swap2\n      or\n      swap1\n      sstore\n      pop\n      pop\n        /* \"Practical6-Apply-TTT-Token.sol\":4689:5679  function userInput(uint input, uint gameId) external {... */\n      jump\t// out\n        /* \"Practical6-Apply-TTT-Token.sol\":7400:8046  if(userWon){... */\n    tag_410:\n        /* \"Practical6-Apply-TTT-Token.sol\":7692:7712  checkOptions(gameId) */\n      tag_420\n        /* \"Practical6-Apply-TTT-Token.sol\":7705:7711  gameId */\n      dup3\n        /* \"Practical6-Apply-TTT-Token.sol\":7692:7704  checkOptions */\n      tag_421\n        /* \"Practical6-Apply-TTT-Token.sol\":7692:7712  checkOptions(gameId) */\n      jump\t// in\n    tag_420:\n        /* \"Practical6-Apply-TTT-Token.sol\":7689:8046  if(checkOptions(gameId)){... */\n      iszero\n      tag_422\n      jumpi\n        /* \"Practical6-Apply-TTT-Token.sol\":7773:7799  showResult(\"Draw\", gameId) */\n      0x40\n      dup1\n      mload\n        /* \"#utility.yul\":21553:21574   */\n      dup2\n      dup2\n      mstore\n        /* \"#utility.yul\":21610:21611   */\n      0x04\n        /* \"#utility.yul\":21590:21608   */\n      swap2\n      dup2\n      add\n        /* \"#utility.yul\":21583:21612   */\n      swap2\n      swap1\n      swap2\n      mstore\n      shl(0xe0, 0x44726177)\n        /* \"#utility.yul\":21643:21645   */\n      0x60\n        /* \"#utility.yul\":21628:21646   */\n      dup3\n      add\n        /* \"#utility.yul\":21621:21655   */\n      mstore\n        /* \"#utility.yul\":21722:21726   */\n      0x20\n        /* \"#utility.yul\":21707:21727   */\n      dup2\n      add\n        /* \"#utility.yul\":21700:21736   */\n      dup4\n      swap1\n      mstore\n        /* \"Practical6-Apply-TTT-Token.sol\":7773:7799  showResult(\"Draw\", gameId) */\n      0x938a1c44580c51d01225d61fb97878104148b1cdc734eb45bc5b5b50533a492d\n      swap1\n        /* \"#utility.yul\":21687:21690   */\n      0x80\n        /* \"#utility.yul\":21672:21691   */\n      add\n        /* \"Practical6-Apply-TTT-Token.sol\":7773:7799  showResult(\"Draw\", gameId) */\n      tag_414\n        /* \"#utility.yul\":21341:21742   */\n      jump\n        /* \"Practical6-Apply-TTT-Token.sol\":7689:8046  if(checkOptions(gameId)){... */\n    tag_422:\n        /* \"Practical6-Apply-TTT-Token.sol\":8014:8034  changePlayer(gameId) */\n      tag_182\n        /* \"Practical6-Apply-TTT-Token.sol\":8027:8033  gameId */\n      dup3\n        /* \"Practical6-Apply-TTT-Token.sol\":8014:8026  changePlayer */\n      tag_430\n        /* \"Practical6-Apply-TTT-Token.sol\":8014:8034  changePlayer(gameId) */\n      jump\t// in\n        /* \"Practical6-Apply-TTT-Token.sol\":8817:9225  function checkOptions(uint gameId) private view returns (bool) {... */\n    tag_421:\n        /* \"Practical6-Apply-TTT-Token.sol\":8874:8878  bool */\n      0x00\n      dup1\n        /* \"Practical6-Apply-TTT-Token.sol\":8998:9196  for(uint i = 0 ; i < gameInformation[gameId]._options.length; i++){... */\n    tag_432:\n        /* \"Practical6-Apply-TTT-Token.sol\":9019:9034  gameInformation */\n      0x01\n        /* \"Practical6-Apply-TTT-Token.sol\":9035:9041  gameId */\n      dup4\n        /* \"Practical6-Apply-TTT-Token.sol\":9019:9042  gameInformation[gameId] */\n      dup2\n      sload\n      dup2\n      lt\n      tag_436\n      jumpi\n      tag_436\n      tag_69\n      jump\t// in\n    tag_436:\n      swap1\n      0x00\n      mstore\n      keccak256(0x00, 0x20)\n      swap1\n      0x08\n      mul\n      add\n        /* \"Practical6-Apply-TTT-Token.sol\":9019:9051  gameInformation[gameId]._options */\n      0x02\n      add\n        /* \"Practical6-Apply-TTT-Token.sol\":9019:9058  gameInformation[gameId]._options.length */\n      dup1\n      sload\n      swap1\n      pop\n        /* \"Practical6-Apply-TTT-Token.sol\":9015:9016  i */\n      dup2\n        /* \"Practical6-Apply-TTT-Token.sol\":9015:9058  i < gameInformation[gameId]._options.length */\n      lt\n        /* \"Practical6-Apply-TTT-Token.sol\":8998:9196  for(uint i = 0 ; i < gameInformation[gameId]._options.length; i++){... */\n      iszero\n      tag_433\n      jumpi\n        /* \"Practical6-Apply-TTT-Token.sol\":9082:9137  compareStrings(gameInformation[gameId]._options[i], \"\") */\n      tag_438\n        /* \"Practical6-Apply-TTT-Token.sol\":9097:9112  gameInformation */\n      0x01\n        /* \"Practical6-Apply-TTT-Token.sol\":9113:9119  gameId */\n      dup5\n        /* \"Practical6-Apply-TTT-Token.sol\":9097:9120  gameInformation[gameId] */\n      dup2\n      sload\n      dup2\n      lt\n      tag_440\n      jumpi\n      tag_440\n      tag_69\n      jump\t// in\n    tag_440:\n      swap1\n      0x00\n      mstore\n      keccak256(0x00, 0x20)\n      swap1\n      0x08\n      mul\n      add\n        /* \"Practical6-Apply-TTT-Token.sol\":9097:9129  gameInformation[gameId]._options */\n      0x02\n      add\n        /* \"Practical6-Apply-TTT-Token.sol\":9130:9131  i */\n      dup3\n        /* \"Practical6-Apply-TTT-Token.sol\":9097:9132  gameInformation[gameId]._options[i] */\n      dup2\n      sload\n      dup2\n      lt\n      tag_133\n      jumpi\n      tag_133\n      tag_69\n      jump\t// in\n        /* \"Practical6-Apply-TTT-Token.sol\":9082:9137  compareStrings(gameInformation[gameId]._options[i], \"\") */\n    tag_438:\n        /* \"Practical6-Apply-TTT-Token.sol\":9079:9185  if(compareStrings(gameInformation[gameId]._options[i], \"\")){... */\n      iszero\n      tag_450\n      jumpi\n      pop\n        /* \"Practical6-Apply-TTT-Token.sol\":9164:9169  false */\n      0x00\n      swap3\n        /* \"Practical6-Apply-TTT-Token.sol\":8817:9225  function checkOptions(uint gameId) private view returns (bool) {... */\n      swap2\n      pop\n      pop\n      jump\t// out\n        /* \"Practical6-Apply-TTT-Token.sol\":9079:9185  if(compareStrings(gameInformation[gameId]._options[i], \"\")){... */\n    tag_450:\n        /* \"Practical6-Apply-TTT-Token.sol\":9060:9063  i++ */\n      dup1\n      tag_451\n      dup2\n      tag_228\n      jump\t// in\n    tag_451:\n      swap2\n      pop\n      pop\n        /* \"Practical6-Apply-TTT-Token.sol\":8998:9196  for(uint i = 0 ; i < gameInformation[gameId]._options.length; i++){... */\n      jump(tag_432)\n    tag_433:\n      pop\n        /* \"Practical6-Apply-TTT-Token.sol\":9213:9217  true */\n      0x01\n      swap3\n        /* \"Practical6-Apply-TTT-Token.sol\":8817:9225  function checkOptions(uint gameId) private view returns (bool) {... */\n      swap2\n      pop\n      pop\n      jump\t// out\n        /* \"Practical6-Apply-TTT-Token.sol\":8090:8756  function changePlayer(uint gameId) private {... */\n    tag_430:\n        /* \"Practical6-Apply-TTT-Token.sol\":8188:8247  compareStrings(gameInformation[gameId]._currentPlayer, \"X\") */\n      tag_453\n        /* \"Practical6-Apply-TTT-Token.sol\":8203:8218  gameInformation */\n      0x01\n        /* \"Practical6-Apply-TTT-Token.sol\":8219:8225  gameId */\n      dup3\n        /* \"Practical6-Apply-TTT-Token.sol\":8203:8226  gameInformation[gameId] */\n      dup2\n      sload\n      dup2\n      lt\n      tag_145\n      jumpi\n      tag_145\n      tag_69\n      jump\t// in\n        /* \"Practical6-Apply-TTT-Token.sol\":8188:8247  compareStrings(gameInformation[gameId]._currentPlayer, \"X\") */\n    tag_453:\n        /* \"Practical6-Apply-TTT-Token.sol\":8185:8482  if(compareStrings(gameInformation[gameId]._currentPlayer, \"X\")){... */\n      iszero\n      tag_462\n      jumpi\n        /* \"Practical6-Apply-TTT-Token.sol\":8268:8325  nextUser(gameInformation[gameId]._player2address, gameId) */\n      0xeefc3fd775b975165c9d067e02fcd5bf5889d58041ae6ddaf94f2cc853007272\n        /* \"Practical6-Apply-TTT-Token.sol\":8277:8292  gameInformation */\n      0x01\n        /* \"Practical6-Apply-TTT-Token.sol\":8293:8299  gameId */\n      dup3\n        /* \"Practical6-Apply-TTT-Token.sol\":8277:8300  gameInformation[gameId] */\n      dup2\n      sload\n      dup2\n      lt\n      tag_464\n      jumpi\n      tag_464\n      tag_69\n      jump\t// in\n    tag_464:\n      0x00\n      swap2\n      dup3\n      mstore\n      0x20\n      swap2\n      dup3\n      swap1\n      keccak256\n      0x08\n      swap1\n      swap2\n      mul\n      add\n        /* \"Practical6-Apply-TTT-Token.sol\":8277:8316  gameInformation[gameId]._player2address */\n      0x05\n      add\n      sload\n        /* \"Practical6-Apply-TTT-Token.sol\":8268:8325  nextUser(gameInformation[gameId]._player2address, gameId) */\n      0x40\n      dup1\n      mload\n      sub(shl(0xa0, 0x01), 0x01)\n        /* \"Practical6-Apply-TTT-Token.sol\":8277:8316  gameInformation[gameId]._player2address */\n      swap1\n      swap3\n      and\n        /* \"#utility.yul\":21921:21972   */\n      dup3\n      mstore\n        /* \"#utility.yul\":21988:22006   */\n      swap2\n      dup2\n      add\n        /* \"#utility.yul\":21981:22015   */\n      dup5\n      swap1\n      mstore\n        /* \"#utility.yul\":21894:21912   */\n      add\n        /* \"Practical6-Apply-TTT-Token.sol\":8268:8325  nextUser(gameInformation[gameId]._player2address, gameId) */\n      mload(0x40)\n      dup1\n      swap2\n      sub\n      swap1\n      log1\n        /* \"Practical6-Apply-TTT-Token.sol\":8185:8482  if(compareStrings(gameInformation[gameId]._currentPlayer, \"X\")){... */\n      jump(tag_468)\n    tag_462:\n        /* \"Practical6-Apply-TTT-Token.sol\":8387:8444  nextUser(gameInformation[gameId]._player1address, gameId) */\n      0xeefc3fd775b975165c9d067e02fcd5bf5889d58041ae6ddaf94f2cc853007272\n        /* \"Practical6-Apply-TTT-Token.sol\":8396:8411  gameInformation */\n      0x01\n        /* \"Practical6-Apply-TTT-Token.sol\":8412:8418  gameId */\n      dup3\n        /* \"Practical6-Apply-TTT-Token.sol\":8396:8419  gameInformation[gameId] */\n      dup2\n      sload\n      dup2\n      lt\n      tag_470\n      jumpi\n      tag_470\n      tag_69\n      jump\t// in\n    tag_470:\n      0x00\n      swap2\n      dup3\n      mstore\n      0x20\n      swap2\n      dup3\n      swap1\n      keccak256\n      0x08\n      swap1\n      swap2\n      mul\n      add\n        /* \"Practical6-Apply-TTT-Token.sol\":8396:8435  gameInformation[gameId]._player1address */\n      0x04\n      add\n      sload\n        /* \"Practical6-Apply-TTT-Token.sol\":8387:8444  nextUser(gameInformation[gameId]._player1address, gameId) */\n      0x40\n      dup1\n      mload\n      sub(shl(0xa0, 0x01), 0x01)\n        /* \"Practical6-Apply-TTT-Token.sol\":8396:8435  gameInformation[gameId]._player1address */\n      swap1\n      swap3\n      and\n        /* \"#utility.yul\":21921:21972   */\n      dup3\n      mstore\n        /* \"#utility.yul\":21988:22006   */\n      swap2\n      dup2\n      add\n        /* \"#utility.yul\":21981:22015   */\n      dup5\n      swap1\n      mstore\n        /* \"#utility.yul\":21894:21912   */\n      add\n        /* \"Practical6-Apply-TTT-Token.sol\":8387:8444  nextUser(gameInformation[gameId]._player1address, gameId) */\n      mload(0x40)\n      dup1\n      swap2\n      sub\n      swap1\n      log1\n        /* \"Practical6-Apply-TTT-Token.sol\":8185:8482  if(compareStrings(gameInformation[gameId]._currentPlayer, \"X\")){... */\n    tag_468:\n        /* \"Practical6-Apply-TTT-Token.sol\":8563:8622  compareStrings(gameInformation[gameId]._currentPlayer, \"X\") */\n      tag_473\n        /* \"Practical6-Apply-TTT-Token.sol\":8578:8593  gameInformation */\n      0x01\n        /* \"Practical6-Apply-TTT-Token.sol\":8594:8600  gameId */\n      dup3\n        /* \"Practical6-Apply-TTT-Token.sol\":8578:8601  gameInformation[gameId] */\n      dup2\n      sload\n      dup2\n      lt\n      tag_145\n      jumpi\n      tag_145\n      tag_69\n      jump\t// in\n        /* \"Practical6-Apply-TTT-Token.sol\":8563:8622  compareStrings(gameInformation[gameId]._currentPlayer, \"X\") */\n    tag_473:\n        /* \"Practical6-Apply-TTT-Token.sol\":8562:8635  (compareStrings(gameInformation[gameId]._currentPlayer, \"X\")) ? \"O\" : \"X\" */\n      tag_482\n      jumpi\n      mload(0x40)\n      dup1\n      0x40\n      add\n      0x40\n      mstore\n      dup1\n      0x01\n      dup2\n      mstore\n      0x20\n      add\n      shl(0xfb, 0x0b)\n      dup2\n      mstore\n      pop\n      jump(tag_483)\n    tag_482:\n      mload(0x40)\n      dup1\n      0x40\n      add\n      0x40\n      mstore\n      dup1\n      0x01\n      dup2\n      mstore\n      0x20\n      add\n      shl(0xf8, 0x4f)\n      dup2\n      mstore\n      pop\n    tag_483:\n        /* \"Practical6-Apply-TTT-Token.sol\":8521:8536  gameInformation */\n      0x01\n        /* \"Practical6-Apply-TTT-Token.sol\":8537:8543  gameId */\n      dup3\n        /* \"Practical6-Apply-TTT-Token.sol\":8521:8544  gameInformation[gameId] */\n      dup2\n      sload\n      dup2\n      lt\n      tag_485\n      jumpi\n      tag_485\n      tag_69\n      jump\t// in\n    tag_485:\n      swap1\n      0x00\n      mstore\n      keccak256(0x00, 0x20)\n      swap1\n      0x08\n      mul\n      add\n        /* \"Practical6-Apply-TTT-Token.sol\":8521:8559  gameInformation[gameId]._currentPlayer */\n      0x01\n      add\n        /* \"Practical6-Apply-TTT-Token.sol\":8521:8635  gameInformation[gameId]._currentPlayer = (compareStrings(gameInformation[gameId]._currentPlayer, \"X\")) ? \"O\" : \"X\" */\n      swap1\n      dup2\n      tag_487\n      swap2\n      swap1\n      tag_111\n      jump\t// in\n    tag_487:\n      pop\n        /* \"Practical6-Apply-TTT-Token.sol\":8689:8748  nextUesrStr(gameInformation[gameId]._currentPlayer, gameId) */\n      0xa6d1cb5f730b987124c37c3876130fddba49456449948ec4257360f5ab2851c0\n        /* \"Practical6-Apply-TTT-Token.sol\":8701:8716  gameInformation */\n      0x01\n        /* \"Practical6-Apply-TTT-Token.sol\":8717:8723  gameId */\n      dup3\n        /* \"Practical6-Apply-TTT-Token.sol\":8701:8724  gameInformation[gameId] */\n      dup2\n      sload\n      dup2\n      lt\n      tag_489\n      jumpi\n      tag_489\n      tag_69\n      jump\t// in\n    tag_489:\n      swap1\n      0x00\n      mstore\n      keccak256(0x00, 0x20)\n      swap1\n      0x08\n      mul\n      add\n        /* \"Practical6-Apply-TTT-Token.sol\":8701:8739  gameInformation[gameId]._currentPlayer */\n      0x01\n      add\n        /* \"Practical6-Apply-TTT-Token.sol\":8741:8747  gameId */\n      dup3\n        /* \"Practical6-Apply-TTT-Token.sol\":8689:8748  nextUesrStr(gameInformation[gameId]._currentPlayer, gameId) */\n      mload(0x40)\n      tag_120\n      swap3\n      swap2\n      swap1\n      tag_415\n      jump\t// in\n    tag_116:\n      dup3\n      dup1\n      sload\n      dup3\n      dup3\n      sstore\n      swap1\n      0x00\n      mstore\n      keccak256(0x00, 0x20)\n      swap1\n      dup2\n      add\n      swap3\n      dup3\n      iszero\n      tag_494\n      jumpi\n      swap2\n      0x20\n      mul\n      dup3\n      add\n    tag_493:\n      dup3\n      dup2\n      gt\n      iszero\n      tag_494\n      jumpi\n      dup3\n      mload\n      dup3\n      swap1\n      tag_495\n      swap1\n      dup3\n      tag_111\n      jump\t// in\n    tag_495:\n      pop\n      swap2\n      0x20\n      add\n      swap2\n      swap1\n      0x01\n      add\n      swap1\n      jump(tag_493)\n    tag_494:\n      pop\n      tag_496\n      swap3\n      swap2\n      pop\n      tag_497\n      jump\t// in\n    tag_496:\n      pop\n      swap1\n      jump\t// out\n    tag_193:\n      mload(0x40)\n      dup1\n      0x0100\n      add\n      0x40\n      mstore\n      dup1\n      iszero(iszero(0x00))\n      dup2\n      mstore\n      0x20\n      add\n      0x60\n      dup2\n      mstore\n      0x20\n      add\n      0x60\n      dup2\n      mstore\n      0x20\n      add\n      0x60\n      dup2\n      mstore\n      0x20\n      add\n      and(sub(shl(0xa0, 0x01), 0x01), 0x00)\n      dup2\n      mstore\n      0x20\n      add\n      and(sub(shl(0xa0, 0x01), 0x01), 0x00)\n      dup2\n      mstore\n      0x20\n      add\n      0x00\n      dup2\n      mstore\n      0x20\n      add\n      and(sub(shl(0xa0, 0x01), 0x01), 0x00)\n      dup2\n      mstore\n      pop\n      swap1\n      jump\t// out\n    tag_197:\n      dup3\n      dup1\n      sload\n      dup3\n      dup3\n      sstore\n      swap1\n      0x00\n      mstore\n      keccak256(0x00, 0x20)\n      swap1\n      dup2\n      add\n      swap3\n      dup3\n      iszero\n      tag_494\n      jumpi\n      swap2\n      0x20\n      mul\n      dup3\n      add\n    tag_499:\n      dup3\n      dup2\n      gt\n      iszero\n      tag_494\n      jumpi\n      dup3\n      mload\n      dup3\n      swap1\n      tag_501\n      swap1\n      dup3\n      tag_111\n      jump\t// in\n    tag_501:\n      pop\n      swap2\n      0x20\n      add\n      swap2\n      swap1\n      0x01\n      add\n      swap1\n      jump(tag_499)\n    tag_199:\n      dup3\n      dup1\n      sload\n      dup3\n      dup3\n      sstore\n      swap1\n      0x00\n      mstore\n      keccak256(0x00, 0x20)\n      swap1\n      dup2\n      add\n      swap3\n      dup3\n      iszero\n      tag_505\n      jumpi\n      swap2\n      0x20\n      mul\n      dup3\n      add\n    tag_504:\n      dup3\n      dup2\n      gt\n      iszero\n      tag_505\n      jumpi\n      dup3\n      mload\n      dup3\n      sstore\n      swap2\n      0x20\n      add\n      swap2\n      swap1\n      0x01\n      add\n      swap1\n      jump(tag_504)\n    tag_505:\n      pop\n      tag_496\n      swap3\n      swap2\n      pop\n      tag_507\n      jump\t// in\n    tag_497:\n      dup1\n      dup3\n      gt\n      iszero\n      tag_496\n      jumpi\n      0x00\n      tag_510\n      dup3\n      dup3\n      tag_511\n      jump\t// in\n    tag_510:\n      pop\n      0x01\n      add\n      jump(tag_497)\n    tag_507:\n    tag_512:\n      dup1\n      dup3\n      gt\n      iszero\n      tag_496\n      jumpi\n      0x00\n      dup2\n      sstore\n      0x01\n      add\n      jump(tag_512)\n    tag_511:\n      pop\n      dup1\n      sload\n      tag_514\n      swap1\n      tag_91\n      jump\t// in\n    tag_514:\n      0x00\n      dup3\n      sstore\n      dup1\n      0x1f\n      lt\n      tag_516\n      jumpi\n      pop\n      pop\n      jump\t// out\n    tag_516:\n      0x1f\n      add\n      0x20\n      swap1\n      div\n      swap1\n      0x00\n      mstore\n      keccak256(0x00, 0x20)\n      swap1\n      dup2\n      add\n      swap1\n      tag_85\n      swap2\n      swap1\n      tag_507\n      jump\t// in\n        /* \"#utility.yul\":14:194   */\n    tag_18:\n        /* \"#utility.yul\":73:79   */\n      0x00\n        /* \"#utility.yul\":126:128   */\n      0x20\n        /* \"#utility.yul\":114:123   */\n      dup3\n        /* \"#utility.yul\":105:112   */\n      dup5\n        /* \"#utility.yul\":101:124   */\n      sub\n        /* \"#utility.yul\":97:129   */\n      slt\n        /* \"#utility.yul\":94:146   */\n      iszero\n      tag_538\n      jumpi\n        /* \"#utility.yul\":142:143   */\n      0x00\n        /* \"#utility.yul\":139:140   */\n      dup1\n        /* \"#utility.yul\":132:144   */\n      revert\n        /* \"#utility.yul\":94:146   */\n    tag_538:\n      pop\n        /* \"#utility.yul\":165:188   */\n      calldataload\n      swap2\n        /* \"#utility.yul\":14:194   */\n      swap1\n      pop\n      jump\t// out\n        /* \"#utility.yul\":199:831   */\n    tag_21:\n        /* \"#utility.yul\":370:372   */\n      0x20\n        /* \"#utility.yul\":422:443   */\n      dup1\n      dup3\n      mstore\n        /* \"#utility.yul\":492:505   */\n      dup3\n      mload\n        /* \"#utility.yul\":395:413   */\n      dup3\n      dup3\n      add\n        /* \"#utility.yul\":514:536   */\n      dup2\n      swap1\n      mstore\n        /* \"#utility.yul\":341:345   */\n      0x00\n      swap2\n        /* \"#utility.yul\":370:372   */\n      swap1\n        /* \"#utility.yul\":593:608   */\n      dup5\n      dup3\n      add\n      swap1\n        /* \"#utility.yul\":567:569   */\n      0x40\n        /* \"#utility.yul\":552:570   */\n      dup6\n      add\n      swap1\n        /* \"#utility.yul\":341:345   */\n      dup5\n        /* \"#utility.yul\":636:805   */\n    tag_540:\n        /* \"#utility.yul\":650:656   */\n      dup2\n        /* \"#utility.yul\":647:648   */\n      dup2\n        /* \"#utility.yul\":644:657   */\n      lt\n        /* \"#utility.yul\":636:805   */\n      iszero\n      tag_542\n      jumpi\n        /* \"#utility.yul\":711:724   */\n      dup4\n      mload\n        /* \"#utility.yul\":699:725   */\n      dup4\n      mstore\n        /* \"#utility.yul\":780:795   */\n      swap3\n      dup5\n      add\n      swap3\n        /* \"#utility.yul\":745:757   */\n      swap2\n      dup5\n      add\n      swap2\n        /* \"#utility.yul\":672:673   */\n      0x01\n        /* \"#utility.yul\":665:674   */\n      add\n        /* \"#utility.yul\":636:805   */\n      jump(tag_540)\n    tag_542:\n      pop\n        /* \"#utility.yul\":822:825   */\n      swap1\n      swap7\n        /* \"#utility.yul\":199:831   */\n      swap6\n      pop\n      pop\n      pop\n      pop\n      pop\n      pop\n      jump\t// out\n        /* \"#utility.yul\":932:1182   */\n    tag_519:\n        /* \"#utility.yul\":1017:1018   */\n      0x00\n        /* \"#utility.yul\":1027:1140   */\n    tag_545:\n        /* \"#utility.yul\":1041:1047   */\n      dup4\n        /* \"#utility.yul\":1038:1039   */\n      dup2\n        /* \"#utility.yul\":1035:1048   */\n      lt\n        /* \"#utility.yul\":1027:1140   */\n      iszero\n      tag_547\n      jumpi\n        /* \"#utility.yul\":1117:1128   */\n      dup2\n      dup2\n      add\n        /* \"#utility.yul\":1111:1129   */\n      mload\n        /* \"#utility.yul\":1098:1109   */\n      dup4\n      dup3\n      add\n        /* \"#utility.yul\":1091:1130   */\n      mstore\n        /* \"#utility.yul\":1063:1065   */\n      0x20\n        /* \"#utility.yul\":1056:1066   */\n      add\n        /* \"#utility.yul\":1027:1140   */\n      jump(tag_545)\n    tag_547:\n      pop\n      pop\n        /* \"#utility.yul\":1174:1175   */\n      0x00\n        /* \"#utility.yul\":1156:1172   */\n      swap2\n      add\n        /* \"#utility.yul\":1149:1176   */\n      mstore\n        /* \"#utility.yul\":932:1182   */\n      jump\t// out\n        /* \"#utility.yul\":1187:1458   */\n    tag_520:\n        /* \"#utility.yul\":1229:1232   */\n      0x00\n        /* \"#utility.yul\":1267:1272   */\n      dup2\n        /* \"#utility.yul\":1261:1273   */\n      mload\n        /* \"#utility.yul\":1294:1300   */\n      dup1\n        /* \"#utility.yul\":1289:1292   */\n      dup5\n        /* \"#utility.yul\":1282:1301   */\n      mstore\n        /* \"#utility.yul\":1310:1386   */\n      tag_549\n        /* \"#utility.yul\":1379:1385   */\n      dup2\n        /* \"#utility.yul\":1372:1376   */\n      0x20\n        /* \"#utility.yul\":1367:1370   */\n      dup7\n        /* \"#utility.yul\":1363:1377   */\n      add\n        /* \"#utility.yul\":1356:1360   */\n      0x20\n        /* \"#utility.yul\":1349:1354   */\n      dup7\n        /* \"#utility.yul\":1345:1361   */\n      add\n        /* \"#utility.yul\":1310:1386   */\n      tag_519\n      jump\t// in\n    tag_549:\n        /* \"#utility.yul\":1440:1442   */\n      0x1f\n        /* \"#utility.yul\":1419:1434   */\n      add\n      not(0x1f)\n        /* \"#utility.yul\":1415:1444   */\n      and\n        /* \"#utility.yul\":1406:1445   */\n      swap3\n      swap1\n      swap3\n      add\n        /* \"#utility.yul\":1447:1451   */\n      0x20\n        /* \"#utility.yul\":1402:1452   */\n      add\n      swap3\n        /* \"#utility.yul\":1187:1458   */\n      swap2\n      pop\n      pop\n      jump\t// out\n        /* \"#utility.yul\":1463:2055   */\n    tag_521:\n        /* \"#utility.yul\":1515:1518   */\n      0x00\n        /* \"#utility.yul\":1546:1549   */\n      dup3\n        /* \"#utility.yul\":1578:1583   */\n      dup3\n        /* \"#utility.yul\":1572:1584   */\n      mload\n        /* \"#utility.yul\":1605:1611   */\n      dup1\n        /* \"#utility.yul\":1600:1603   */\n      dup6\n        /* \"#utility.yul\":1593:1612   */\n      mstore\n        /* \"#utility.yul\":1631:1635   */\n      0x20\n        /* \"#utility.yul\":1660:1662   */\n      dup1\n        /* \"#utility.yul\":1655:1658   */\n      dup7\n        /* \"#utility.yul\":1651:1663   */\n      add\n        /* \"#utility.yul\":1644:1663   */\n      swap6\n      pop\n        /* \"#utility.yul\":1716:1718   */\n      dup1\n        /* \"#utility.yul\":1706:1712   */\n      dup3\n        /* \"#utility.yul\":1703:1704   */\n      0x05\n        /* \"#utility.yul\":1699:1713   */\n      shl\n        /* \"#utility.yul\":1692:1697   */\n      dup5\n        /* \"#utility.yul\":1688:1714   */\n      add\n        /* \"#utility.yul\":1684:1719   */\n      add\n        /* \"#utility.yul\":1753:1755   */\n      dup2\n        /* \"#utility.yul\":1746:1751   */\n      dup7\n        /* \"#utility.yul\":1742:1756   */\n      add\n        /* \"#utility.yul\":1774:1775   */\n      0x00\n        /* \"#utility.yul\":1784:2029   */\n    tag_551:\n        /* \"#utility.yul\":1798:1804   */\n      dup5\n        /* \"#utility.yul\":1795:1796   */\n      dup2\n        /* \"#utility.yul\":1792:1805   */\n      lt\n        /* \"#utility.yul\":1784:2029   */\n      iszero\n      tag_553\n      jumpi\n        /* \"#utility.yul\":1885:1887   */\n      0x1f\n        /* \"#utility.yul\":1881:1888   */\n      not\n        /* \"#utility.yul\":1873:1878   */\n      dup7\n        /* \"#utility.yul\":1867:1871   */\n      dup5\n        /* \"#utility.yul\":1863:1879   */\n      sub\n        /* \"#utility.yul\":1859:1889   */\n      add\n        /* \"#utility.yul\":1854:1857   */\n      dup10\n        /* \"#utility.yul\":1847:1890   */\n      mstore\n        /* \"#utility.yul\":1911:1949   */\n      tag_554\n        /* \"#utility.yul\":1944:1948   */\n      dup4\n        /* \"#utility.yul\":1935:1941   */\n      dup4\n        /* \"#utility.yul\":1929:1942   */\n      mload\n        /* \"#utility.yul\":1911:1949   */\n      tag_520\n      jump\t// in\n    tag_554:\n        /* \"#utility.yul\":2007:2019   */\n      swap9\n      dup5\n      add\n      swap9\n        /* \"#utility.yul\":1903:1949   */\n      swap3\n      pop\n        /* \"#utility.yul\":1972:1987   */\n      swap1\n      dup4\n      add\n      swap1\n        /* \"#utility.yul\":1820:1821   */\n      0x01\n        /* \"#utility.yul\":1813:1822   */\n      add\n        /* \"#utility.yul\":1784:2029   */\n      jump(tag_551)\n    tag_553:\n      pop\n        /* \"#utility.yul\":2045:2049   */\n      swap1\n      swap8\n        /* \"#utility.yul\":1463:2055   */\n      swap7\n      pop\n      pop\n      pop\n      pop\n      pop\n      pop\n      pop\n      jump\t// out\n        /* \"#utility.yul\":2060:2495   */\n    tag_522:\n        /* \"#utility.yul\":2113:2116   */\n      0x00\n        /* \"#utility.yul\":2151:2156   */\n      dup2\n        /* \"#utility.yul\":2145:2157   */\n      mload\n        /* \"#utility.yul\":2178:2184   */\n      dup1\n        /* \"#utility.yul\":2173:2176   */\n      dup5\n        /* \"#utility.yul\":2166:2185   */\n      mstore\n        /* \"#utility.yul\":2204:2208   */\n      0x20\n        /* \"#utility.yul\":2233:2235   */\n      dup1\n        /* \"#utility.yul\":2228:2231   */\n      dup6\n        /* \"#utility.yul\":2224:2236   */\n      add\n        /* \"#utility.yul\":2217:2236   */\n      swap5\n      pop\n        /* \"#utility.yul\":2270:2272   */\n      dup1\n        /* \"#utility.yul\":2263:2268   */\n      dup5\n        /* \"#utility.yul\":2259:2273   */\n      add\n        /* \"#utility.yul\":2291:2292   */\n      0x00\n        /* \"#utility.yul\":2301:2470   */\n    tag_556:\n        /* \"#utility.yul\":2315:2321   */\n      dup4\n        /* \"#utility.yul\":2312:2313   */\n      dup2\n        /* \"#utility.yul\":2309:2322   */\n      lt\n        /* \"#utility.yul\":2301:2470   */\n      iszero\n      tag_558\n      jumpi\n        /* \"#utility.yul\":2376:2389   */\n      dup2\n      mload\n        /* \"#utility.yul\":2364:2390   */\n      dup8\n      mstore\n        /* \"#utility.yul\":2410:2422   */\n      swap6\n      dup3\n      add\n      swap6\n        /* \"#utility.yul\":2445:2460   */\n      swap1\n      dup3\n      add\n      swap1\n        /* \"#utility.yul\":2337:2338   */\n      0x01\n        /* \"#utility.yul\":2330:2339   */\n      add\n        /* \"#utility.yul\":2301:2470   */\n      jump(tag_556)\n    tag_558:\n      pop\n        /* \"#utility.yul\":2486:2489   */\n      swap5\n      swap6\n        /* \"#utility.yul\":2060:2495   */\n      swap5\n      pop\n      pop\n      pop\n      pop\n      pop\n      jump\t// out\n        /* \"#utility.yul\":2609:3671   */\n    tag_524:\n        /* \"#utility.yul\":2660:2663   */\n      0x00\n        /* \"#utility.yul\":2688:2694   */\n      0x0100\n        /* \"#utility.yul\":2735:2740   */\n      dup3\n        /* \"#utility.yul\":2729:2741   */\n      mload\n        /* \"#utility.yul\":2722:2742   */\n      iszero\n        /* \"#utility.yul\":2715:2743   */\n      iszero\n        /* \"#utility.yul\":2710:2713   */\n      dup5\n        /* \"#utility.yul\":2703:2744   */\n      mstore\n        /* \"#utility.yul\":2790:2794   */\n      0x20\n        /* \"#utility.yul\":2783:2788   */\n      dup4\n        /* \"#utility.yul\":2779:2795   */\n      add\n        /* \"#utility.yul\":2773:2796   */\n      mload\n        /* \"#utility.yul\":2828:2830   */\n      dup2\n        /* \"#utility.yul\":2821:2825   */\n      0x20\n        /* \"#utility.yul\":2816:2819   */\n      dup7\n        /* \"#utility.yul\":2812:2826   */\n      add\n        /* \"#utility.yul\":2805:2831   */\n      mstore\n        /* \"#utility.yul\":2852:2897   */\n      tag_561\n        /* \"#utility.yul\":2893:2895   */\n      dup3\n        /* \"#utility.yul\":2888:2891   */\n      dup7\n        /* \"#utility.yul\":2884:2896   */\n      add\n        /* \"#utility.yul\":2870:2882   */\n      dup3\n        /* \"#utility.yul\":2852:2897   */\n      tag_520\n      jump\t// in\n    tag_561:\n        /* \"#utility.yul\":2840:2897   */\n      swap2\n      pop\n      pop\n        /* \"#utility.yul\":2945:2949   */\n      0x40\n        /* \"#utility.yul\":2938:2943   */\n      dup4\n        /* \"#utility.yul\":2934:2950   */\n      add\n        /* \"#utility.yul\":2928:2951   */\n      mload\n        /* \"#utility.yul\":2993:2996   */\n      dup5\n        /* \"#utility.yul\":2987:2991   */\n      dup3\n        /* \"#utility.yul\":2983:2997   */\n      sub\n        /* \"#utility.yul\":2976:2980   */\n      0x40\n        /* \"#utility.yul\":2971:2974   */\n      dup7\n        /* \"#utility.yul\":2967:2981   */\n      add\n        /* \"#utility.yul\":2960:2998   */\n      mstore\n        /* \"#utility.yul\":3021:3070   */\n      tag_562\n        /* \"#utility.yul\":3065:3069   */\n      dup3\n        /* \"#utility.yul\":3049:3063   */\n      dup3\n        /* \"#utility.yul\":3021:3070   */\n      tag_521\n      jump\t// in\n    tag_562:\n        /* \"#utility.yul\":3007:3070   */\n      swap2\n      pop\n      pop\n        /* \"#utility.yul\":3118:3122   */\n      0x60\n        /* \"#utility.yul\":3111:3116   */\n      dup4\n        /* \"#utility.yul\":3107:3123   */\n      add\n        /* \"#utility.yul\":3101:3124   */\n      mload\n        /* \"#utility.yul\":3168:3171   */\n      dup5\n        /* \"#utility.yul\":3160:3166   */\n      dup3\n        /* \"#utility.yul\":3156:3172   */\n      sub\n        /* \"#utility.yul\":3149:3153   */\n      0x60\n        /* \"#utility.yul\":3144:3147   */\n      dup7\n        /* \"#utility.yul\":3140:3154   */\n      add\n        /* \"#utility.yul\":3133:3173   */\n      mstore\n        /* \"#utility.yul\":3196:3248   */\n      tag_563\n        /* \"#utility.yul\":3241:3247   */\n      dup3\n        /* \"#utility.yul\":3225:3239   */\n      dup3\n        /* \"#utility.yul\":3196:3248   */\n      tag_522\n      jump\t// in\n    tag_563:\n        /* \"#utility.yul\":3182:3248   */\n      swap2\n      pop\n      pop\n        /* \"#utility.yul\":3296:3300   */\n      0x80\n        /* \"#utility.yul\":3289:3294   */\n      dup4\n        /* \"#utility.yul\":3285:3301   */\n      add\n        /* \"#utility.yul\":3279:3302   */\n      mload\n        /* \"#utility.yul\":3311:3361   */\n      tag_564\n        /* \"#utility.yul\":3355:3359   */\n      0x80\n        /* \"#utility.yul\":3350:3353   */\n      dup7\n        /* \"#utility.yul\":3346:3360   */\n      add\n        /* \"#utility.yul\":3330:3344   */\n      dup3\n      sub(shl(0xa0, 0x01), 0x01)\n        /* \"#utility.yul\":2566:2597   */\n      and\n        /* \"#utility.yul\":2554:2598   */\n      swap1\n      mstore\n        /* \"#utility.yul\":2500:2604   */\n      jump\n        /* \"#utility.yul\":3311:3361   */\n    tag_564:\n      pop\n        /* \"#utility.yul\":3409:3413   */\n      0xa0\n        /* \"#utility.yul\":3402:3407   */\n      dup4\n        /* \"#utility.yul\":3398:3414   */\n      add\n        /* \"#utility.yul\":3392:3415   */\n      mload\n        /* \"#utility.yul\":3424:3474   */\n      tag_565\n        /* \"#utility.yul\":3468:3472   */\n      0xa0\n        /* \"#utility.yul\":3463:3466   */\n      dup7\n        /* \"#utility.yul\":3459:3473   */\n      add\n        /* \"#utility.yul\":3443:3457   */\n      dup3\n      sub(shl(0xa0, 0x01), 0x01)\n        /* \"#utility.yul\":2566:2597   */\n      and\n        /* \"#utility.yul\":2554:2598   */\n      swap1\n      mstore\n        /* \"#utility.yul\":2500:2604   */\n      jump\n        /* \"#utility.yul\":3424:3474   */\n    tag_565:\n      pop\n        /* \"#utility.yul\":3523:3527   */\n      0xc0\n        /* \"#utility.yul\":3516:3521   */\n      dup4\n        /* \"#utility.yul\":3512:3528   */\n      add\n        /* \"#utility.yul\":3506:3529   */\n      mload\n        /* \"#utility.yul\":3499:3503   */\n      0xc0\n        /* \"#utility.yul\":3494:3497   */\n      dup6\n        /* \"#utility.yul\":3490:3504   */\n      add\n        /* \"#utility.yul\":3483:3530   */\n      mstore\n        /* \"#utility.yul\":3578:3582   */\n      0xe0\n        /* \"#utility.yul\":3571:3576   */\n      dup4\n        /* \"#utility.yul\":3567:3583   */\n      add\n        /* \"#utility.yul\":3561:3584   */\n      mload\n        /* \"#utility.yul\":3593:3643   */\n      tag_566\n        /* \"#utility.yul\":3637:3641   */\n      0xe0\n        /* \"#utility.yul\":3632:3635   */\n      dup7\n        /* \"#utility.yul\":3628:3642   */\n      add\n        /* \"#utility.yul\":3612:3626   */\n      dup3\n      sub(shl(0xa0, 0x01), 0x01)\n        /* \"#utility.yul\":2566:2597   */\n      and\n        /* \"#utility.yul\":2554:2598   */\n      swap1\n      mstore\n        /* \"#utility.yul\":2500:2604   */\n      jump\n        /* \"#utility.yul\":3593:3643   */\n    tag_566:\n      pop\n        /* \"#utility.yul\":3659:3665   */\n      swap4\n        /* \"#utility.yul\":2609:3671   */\n      swap3\n      pop\n      pop\n      pop\n      jump\t// out\n        /* \"#utility.yul\":3676:4516   */\n    tag_28:\n        /* \"#utility.yul\":3866:3870   */\n      0x00\n        /* \"#utility.yul\":3895:3897   */\n      0x20\n        /* \"#utility.yul\":3935:3937   */\n      dup1\n        /* \"#utility.yul\":3924:3933   */\n      dup4\n        /* \"#utility.yul\":3920:3938   */\n      add\n        /* \"#utility.yul\":3965:3967   */\n      dup2\n        /* \"#utility.yul\":3954:3963   */\n      dup5\n        /* \"#utility.yul\":3947:3968   */\n      mstore\n        /* \"#utility.yul\":3988:3994   */\n      dup1\n        /* \"#utility.yul\":4023:4029   */\n      dup6\n        /* \"#utility.yul\":4017:4030   */\n      mload\n        /* \"#utility.yul\":4054:4060   */\n      dup1\n        /* \"#utility.yul\":4046:4052   */\n      dup4\n        /* \"#utility.yul\":4039:4061   */\n      mstore\n        /* \"#utility.yul\":4092:4094   */\n      0x40\n        /* \"#utility.yul\":4081:4090   */\n      dup7\n        /* \"#utility.yul\":4077:4095   */\n      add\n        /* \"#utility.yul\":4070:4095   */\n      swap2\n      pop\n        /* \"#utility.yul\":4154:4156   */\n      0x40\n        /* \"#utility.yul\":4144:4150   */\n      dup2\n        /* \"#utility.yul\":4141:4142   */\n      0x05\n        /* \"#utility.yul\":4137:4151   */\n      shl\n        /* \"#utility.yul\":4126:4135   */\n      dup8\n        /* \"#utility.yul\":4122:4152   */\n      add\n        /* \"#utility.yul\":4118:4157   */\n      add\n        /* \"#utility.yul\":4104:4157   */\n      swap3\n      pop\n        /* \"#utility.yul\":4192:4194   */\n      dup4\n        /* \"#utility.yul\":4184:4190   */\n      dup8\n        /* \"#utility.yul\":4180:4195   */\n      add\n        /* \"#utility.yul\":4213:4214   */\n      0x00\n        /* \"#utility.yul\":4223:4487   */\n    tag_568:\n        /* \"#utility.yul\":4237:4243   */\n      dup3\n        /* \"#utility.yul\":4234:4235   */\n      dup2\n        /* \"#utility.yul\":4231:4244   */\n      lt\n        /* \"#utility.yul\":4223:4487   */\n      iszero\n      tag_570\n      jumpi\n        /* \"#utility.yul\":4330:4332   */\n      0x3f\n        /* \"#utility.yul\":4326:4333   */\n      not\n        /* \"#utility.yul\":4314:4323   */\n      dup9\n        /* \"#utility.yul\":4306:4312   */\n      dup7\n        /* \"#utility.yul\":4302:4324   */\n      sub\n        /* \"#utility.yul\":4298:4334   */\n      add\n        /* \"#utility.yul\":4293:4296   */\n      dup5\n        /* \"#utility.yul\":4286:4335   */\n      mstore\n        /* \"#utility.yul\":4358:4407   */\n      tag_571\n        /* \"#utility.yul\":4400:4406   */\n      dup6\n        /* \"#utility.yul\":4391:4397   */\n      dup4\n        /* \"#utility.yul\":4385:4398   */\n      mload\n        /* \"#utility.yul\":4358:4407   */\n      tag_524\n      jump\t// in\n    tag_571:\n        /* \"#utility.yul\":4348:4407   */\n      swap5\n      pop\n        /* \"#utility.yul\":4465:4477   */\n      swap3\n      dup6\n      add\n      swap3\n        /* \"#utility.yul\":4430:4445   */\n      swap1\n      dup6\n      add\n      swap1\n        /* \"#utility.yul\":4259:4260   */\n      0x01\n        /* \"#utility.yul\":4252:4261   */\n      add\n        /* \"#utility.yul\":4223:4487   */\n      jump(tag_568)\n    tag_570:\n      pop\n        /* \"#utility.yul\":4504:4510   */\n      swap3\n      swap8\n        /* \"#utility.yul\":3676:4516   */\n      swap7\n      pop\n      pop\n      pop\n      pop\n      pop\n      pop\n      pop\n      jump\t// out\n        /* \"#utility.yul\":4521:4769   */\n    tag_34:\n        /* \"#utility.yul\":4589:4595   */\n      0x00\n        /* \"#utility.yul\":4597:4603   */\n      dup1\n        /* \"#utility.yul\":4650:4652   */\n      0x40\n        /* \"#utility.yul\":4638:4647   */\n      dup4\n        /* \"#utility.yul\":4629:4636   */\n      dup6\n        /* \"#utility.yul\":4625:4648   */\n      sub\n        /* \"#utility.yul\":4621:4653   */\n      slt\n        /* \"#utility.yul\":4618:4670   */\n      iszero\n      tag_573\n      jumpi\n        /* \"#utility.yul\":4666:4667   */\n      0x00\n        /* \"#utility.yul\":4663:4664   */\n      dup1\n        /* \"#utility.yul\":4656:4668   */\n      revert\n        /* \"#utility.yul\":4618:4670   */\n    tag_573:\n      pop\n      pop\n        /* \"#utility.yul\":4689:4712   */\n      dup1\n      calldataload\n      swap3\n        /* \"#utility.yul\":4759:4761   */\n      0x20\n        /* \"#utility.yul\":4744:4762   */\n      swap1\n      swap2\n      add\n        /* \"#utility.yul\":4731:4763   */\n      calldataload\n      swap2\n      pop\n        /* \"#utility.yul\":4521:4769   */\n      jump\t// out\n        /* \"#utility.yul\":4774:5428   */\n    tag_40:\n        /* \"#utility.yul\":5071:5077   */\n      dup7\n        /* \"#utility.yul\":5064:5078   */\n      iszero\n        /* \"#utility.yul\":5057:5079   */\n      iszero\n        /* \"#utility.yul\":5046:5055   */\n      dup2\n        /* \"#utility.yul\":5039:5080   */\n      mstore\n        /* \"#utility.yul\":5116:5119   */\n      0xc0\n        /* \"#utility.yul\":5111:5113   */\n      0x20\n        /* \"#utility.yul\":5100:5109   */\n      dup3\n        /* \"#utility.yul\":5096:5114   */\n      add\n        /* \"#utility.yul\":5089:5120   */\n      mstore\n        /* \"#utility.yul\":5020:5024   */\n      0x00\n        /* \"#utility.yul\":5137:5183   */\n      tag_575\n        /* \"#utility.yul\":5178:5181   */\n      0xc0\n        /* \"#utility.yul\":5167:5176   */\n      dup4\n        /* \"#utility.yul\":5163:5182   */\n      add\n        /* \"#utility.yul\":5155:5161   */\n      dup9\n        /* \"#utility.yul\":5137:5183   */\n      tag_520\n      jump\t// in\n    tag_575:\n      sub(shl(0xa0, 0x01), 0x01)\n        /* \"#utility.yul\":5257:5272   */\n      swap7\n      dup8\n      and\n        /* \"#utility.yul\":5252:5254   */\n      0x40\n        /* \"#utility.yul\":5237:5255   */\n      dup5\n      add\n        /* \"#utility.yul\":5230:5273   */\n      mstore\n        /* \"#utility.yul\":5309:5324   */\n      swap5\n      dup7\n      and\n        /* \"#utility.yul\":5304:5306   */\n      0x60\n        /* \"#utility.yul\":5289:5307   */\n      dup4\n      add\n        /* \"#utility.yul\":5282:5325   */\n      mstore\n      pop\n        /* \"#utility.yul\":5356:5359   */\n      0x80\n        /* \"#utility.yul\":5341:5360   */\n      dup2\n      add\n        /* \"#utility.yul\":5334:5369   */\n      swap3\n      swap1\n      swap3\n      mstore\n        /* \"#utility.yul\":5406:5421   */\n      swap1\n      swap3\n      and\n        /* \"#utility.yul\":5210:5213   */\n      0xa0\n        /* \"#utility.yul\":5385:5404   */\n      swap1\n      swap3\n      add\n        /* \"#utility.yul\":5378:5422   */\n      swap2\n      swap1\n      swap2\n      mstore\n        /* \"#utility.yul\":5309:5324   */\n      swap3\n        /* \"#utility.yul\":5129:5183   */\n      swap2\n      pop\n      pop\n        /* \"#utility.yul\":4774:5428   */\n      jump\t// out\n        /* \"#utility.yul\":5433:5690   */\n    tag_47:\n        /* \"#utility.yul\":5610:5612   */\n      0x20\n        /* \"#utility.yul\":5599:5608   */\n      dup2\n        /* \"#utility.yul\":5592:5613   */\n      mstore\n        /* \"#utility.yul\":5573:5577   */\n      0x00\n        /* \"#utility.yul\":5630:5684   */\n      tag_577\n        /* \"#utility.yul\":5680:5682   */\n      0x20\n        /* \"#utility.yul\":5669:5678   */\n      dup4\n        /* \"#utility.yul\":5665:5683   */\n      add\n        /* \"#utility.yul\":5657:5663   */\n      dup5\n        /* \"#utility.yul\":5630:5684   */\n      tag_524\n      jump\t// in\n    tag_577:\n        /* \"#utility.yul\":5622:5684   */\n      swap4\n        /* \"#utility.yul\":5433:5690   */\n      swap3\n      pop\n      pop\n      pop\n      jump\t// out\n        /* \"#utility.yul\":5695:5822   */\n    tag_525:\n        /* \"#utility.yul\":5756:5766   */\n      0x4e487b71\n        /* \"#utility.yul\":5751:5754   */\n      0xe0\n        /* \"#utility.yul\":5747:5767   */\n      shl\n        /* \"#utility.yul\":5744:5745   */\n      0x00\n        /* \"#utility.yul\":5737:5768   */\n      mstore\n        /* \"#utility.yul\":5787:5791   */\n      0x41\n        /* \"#utility.yul\":5784:5785   */\n      0x04\n        /* \"#utility.yul\":5777:5792   */\n      mstore\n        /* \"#utility.yul\":5811:5815   */\n      0x24\n        /* \"#utility.yul\":5808:5809   */\n      0x00\n        /* \"#utility.yul\":5801:5816   */\n      revert\n        /* \"#utility.yul\":5827:6546   */\n    tag_526:\n        /* \"#utility.yul\":5870:5875   */\n      0x00\n        /* \"#utility.yul\":5923:5926   */\n      dup3\n        /* \"#utility.yul\":5916:5920   */\n      0x1f\n        /* \"#utility.yul\":5908:5914   */\n      dup4\n        /* \"#utility.yul\":5904:5921   */\n      add\n        /* \"#utility.yul\":5900:5927   */\n      slt\n        /* \"#utility.yul\":5890:5945   */\n      tag_580\n      jumpi\n        /* \"#utility.yul\":5941:5942   */\n      0x00\n        /* \"#utility.yul\":5938:5939   */\n      dup1\n        /* \"#utility.yul\":5931:5943   */\n      revert\n        /* \"#utility.yul\":5890:5945   */\n    tag_580:\n        /* \"#utility.yul\":5977:5983   */\n      dup2\n        /* \"#utility.yul\":5964:5984   */\n      calldataload\n        /* \"#utility.yul\":6003:6021   */\n      0xffffffffffffffff\n        /* \"#utility.yul\":6040:6042   */\n      dup1\n        /* \"#utility.yul\":6036:6038   */\n      dup3\n        /* \"#utility.yul\":6033:6043   */\n      gt\n        /* \"#utility.yul\":6030:6066   */\n      iszero\n      tag_582\n      jumpi\n        /* \"#utility.yul\":6046:6064   */\n      tag_582\n      tag_525\n      jump\t// in\n    tag_582:\n        /* \"#utility.yul\":6121:6123   */\n      0x40\n        /* \"#utility.yul\":6115:6124   */\n      mload\n        /* \"#utility.yul\":6089:6091   */\n      0x1f\n        /* \"#utility.yul\":6175:6188   */\n      dup4\n      add\n      not(0x1f)\n        /* \"#utility.yul\":6171:6193   */\n      swap1\n      dup2\n      and\n        /* \"#utility.yul\":6195:6197   */\n      0x3f\n        /* \"#utility.yul\":6167:6198   */\n      add\n        /* \"#utility.yul\":6163:6203   */\n      and\n        /* \"#utility.yul\":6151:6204   */\n      dup2\n      add\n      swap1\n        /* \"#utility.yul\":6219:6237   */\n      dup3\n      dup3\n      gt\n        /* \"#utility.yul\":6239:6261   */\n      dup2\n      dup4\n      lt\n        /* \"#utility.yul\":6216:6262   */\n      or\n        /* \"#utility.yul\":6213:6285   */\n      iszero\n      tag_584\n      jumpi\n        /* \"#utility.yul\":6265:6283   */\n      tag_584\n      tag_525\n      jump\t// in\n    tag_584:\n        /* \"#utility.yul\":6305:6315   */\n      dup2\n        /* \"#utility.yul\":6301:6303   */\n      0x40\n        /* \"#utility.yul\":6294:6316   */\n      mstore\n        /* \"#utility.yul\":6340:6342   */\n      dup4\n        /* \"#utility.yul\":6332:6338   */\n      dup2\n        /* \"#utility.yul\":6325:6343   */\n      mstore\n        /* \"#utility.yul\":6386:6389   */\n      dup7\n        /* \"#utility.yul\":6379:6383   */\n      0x20\n        /* \"#utility.yul\":6374:6376   */\n      dup6\n        /* \"#utility.yul\":6366:6372   */\n      dup9\n        /* \"#utility.yul\":6362:6377   */\n      add\n        /* \"#utility.yul\":6358:6384   */\n      add\n        /* \"#utility.yul\":6355:6390   */\n      gt\n        /* \"#utility.yul\":6352:6407   */\n      iszero\n      tag_585\n      jumpi\n        /* \"#utility.yul\":6403:6404   */\n      0x00\n        /* \"#utility.yul\":6400:6401   */\n      dup1\n        /* \"#utility.yul\":6393:6405   */\n      revert\n        /* \"#utility.yul\":6352:6407   */\n    tag_585:\n        /* \"#utility.yul\":6467:6469   */\n      dup4\n        /* \"#utility.yul\":6460:6464   */\n      0x20\n        /* \"#utility.yul\":6452:6458   */\n      dup8\n        /* \"#utility.yul\":6448:6465   */\n      add\n        /* \"#utility.yul\":6441:6445   */\n      0x20\n        /* \"#utility.yul\":6433:6439   */\n      dup4\n        /* \"#utility.yul\":6429:6446   */\n      add\n        /* \"#utility.yul\":6416:6470   */\n      calldatacopy\n        /* \"#utility.yul\":6514:6515   */\n      0x00\n        /* \"#utility.yul\":6507:6511   */\n      0x20\n        /* \"#utility.yul\":6502:6504   */\n      dup6\n        /* \"#utility.yul\":6494:6500   */\n      dup4\n        /* \"#utility.yul\":6490:6505   */\n      add\n        /* \"#utility.yul\":6486:6512   */\n      add\n        /* \"#utility.yul\":6479:6516   */\n      mstore\n        /* \"#utility.yul\":6534:6540   */\n      dup1\n        /* \"#utility.yul\":6525:6540   */\n      swap5\n      pop\n      pop\n      pop\n      pop\n      pop\n        /* \"#utility.yul\":5827:6546   */\n      swap3\n      swap2\n      pop\n      pop\n      jump\t// out\n        /* \"#utility.yul\":6551:7094   */\n    tag_50:\n        /* \"#utility.yul\":6639:6645   */\n      0x00\n        /* \"#utility.yul\":6647:6653   */\n      dup1\n        /* \"#utility.yul\":6700:6702   */\n      0x40\n        /* \"#utility.yul\":6688:6697   */\n      dup4\n        /* \"#utility.yul\":6679:6686   */\n      dup6\n        /* \"#utility.yul\":6675:6698   */\n      sub\n        /* \"#utility.yul\":6671:6703   */\n      slt\n        /* \"#utility.yul\":6668:6720   */\n      iszero\n      tag_587\n      jumpi\n        /* \"#utility.yul\":6716:6717   */\n      0x00\n        /* \"#utility.yul\":6713:6714   */\n      dup1\n        /* \"#utility.yul\":6706:6718   */\n      revert\n        /* \"#utility.yul\":6668:6720   */\n    tag_587:\n        /* \"#utility.yul\":6756:6765   */\n      dup3\n        /* \"#utility.yul\":6743:6766   */\n      calldataload\n        /* \"#utility.yul\":6785:6803   */\n      0xffffffffffffffff\n        /* \"#utility.yul\":6826:6828   */\n      dup1\n        /* \"#utility.yul\":6818:6824   */\n      dup3\n        /* \"#utility.yul\":6815:6829   */\n      gt\n        /* \"#utility.yul\":6812:6846   */\n      iszero\n      tag_588\n      jumpi\n        /* \"#utility.yul\":6842:6843   */\n      0x00\n        /* \"#utility.yul\":6839:6840   */\n      dup1\n        /* \"#utility.yul\":6832:6844   */\n      revert\n        /* \"#utility.yul\":6812:6846   */\n    tag_588:\n        /* \"#utility.yul\":6865:6915   */\n      tag_589\n        /* \"#utility.yul\":6907:6914   */\n      dup7\n        /* \"#utility.yul\":6898:6904   */\n      dup4\n        /* \"#utility.yul\":6887:6896   */\n      dup8\n        /* \"#utility.yul\":6883:6905   */\n      add\n        /* \"#utility.yul\":6865:6915   */\n      tag_526\n      jump\t// in\n    tag_589:\n        /* \"#utility.yul\":6855:6915   */\n      swap4\n      pop\n        /* \"#utility.yul\":6968:6970   */\n      0x20\n        /* \"#utility.yul\":6957:6966   */\n      dup6\n        /* \"#utility.yul\":6953:6971   */\n      add\n        /* \"#utility.yul\":6940:6972   */\n      calldataload\n        /* \"#utility.yul\":6924:6972   */\n      swap2\n      pop\n        /* \"#utility.yul\":6997:6999   */\n      dup1\n        /* \"#utility.yul\":6987:6995   */\n      dup3\n        /* \"#utility.yul\":6984:7000   */\n      gt\n        /* \"#utility.yul\":6981:7017   */\n      iszero\n      tag_590\n      jumpi\n        /* \"#utility.yul\":7013:7014   */\n      0x00\n        /* \"#utility.yul\":7010:7011   */\n      dup1\n        /* \"#utility.yul\":7003:7015   */\n      revert\n        /* \"#utility.yul\":6981:7017   */\n    tag_590:\n      pop\n        /* \"#utility.yul\":7036:7088   */\n      tag_591\n        /* \"#utility.yul\":7080:7087   */\n      dup6\n        /* \"#utility.yul\":7069:7077   */\n      dup3\n        /* \"#utility.yul\":7058:7067   */\n      dup7\n        /* \"#utility.yul\":7054:7078   */\n      add\n        /* \"#utility.yul\":7036:7088   */\n      tag_526\n      jump\t// in\n    tag_591:\n        /* \"#utility.yul\":7026:7088   */\n      swap2\n      pop\n      pop\n        /* \"#utility.yul\":6551:7094   */\n      swap3\n      pop\n      swap3\n      swap1\n      pop\n      jump\t// out\n        /* \"#utility.yul\":7291:8094   */\n    tag_58:\n        /* \"#utility.yul\":7453:7457   */\n      0x00\n        /* \"#utility.yul\":7482:7484   */\n      0x20\n        /* \"#utility.yul\":7522:7524   */\n      dup1\n        /* \"#utility.yul\":7511:7520   */\n      dup4\n        /* \"#utility.yul\":7507:7525   */\n      add\n        /* \"#utility.yul\":7552:7554   */\n      dup2\n        /* \"#utility.yul\":7541:7550   */\n      dup5\n        /* \"#utility.yul\":7534:7555   */\n      mstore\n        /* \"#utility.yul\":7575:7581   */\n      dup1\n        /* \"#utility.yul\":7610:7616   */\n      dup6\n        /* \"#utility.yul\":7604:7617   */\n      mload\n        /* \"#utility.yul\":7641:7647   */\n      dup1\n        /* \"#utility.yul\":7633:7639   */\n      dup4\n        /* \"#utility.yul\":7626:7648   */\n      mstore\n        /* \"#utility.yul\":7679:7681   */\n      0x40\n        /* \"#utility.yul\":7668:7677   */\n      dup7\n        /* \"#utility.yul\":7664:7682   */\n      add\n        /* \"#utility.yul\":7657:7682   */\n      swap2\n      pop\n        /* \"#utility.yul\":7741:7743   */\n      0x40\n        /* \"#utility.yul\":7731:7737   */\n      dup2\n        /* \"#utility.yul\":7728:7729   */\n      0x05\n        /* \"#utility.yul\":7724:7738   */\n      shl\n        /* \"#utility.yul\":7713:7722   */\n      dup8\n        /* \"#utility.yul\":7709:7739   */\n      add\n        /* \"#utility.yul\":7705:7744   */\n      add\n        /* \"#utility.yul\":7691:7744   */\n      swap3\n      pop\n        /* \"#utility.yul\":7779:7781   */\n      dup4\n        /* \"#utility.yul\":7771:7777   */\n      dup8\n        /* \"#utility.yul\":7767:7782   */\n      add\n        /* \"#utility.yul\":7800:7801   */\n      0x00\n        /* \"#utility.yul\":7810:8065   */\n    tag_594:\n        /* \"#utility.yul\":7824:7830   */\n      dup3\n        /* \"#utility.yul\":7821:7822   */\n      dup2\n        /* \"#utility.yul\":7818:7831   */\n      lt\n        /* \"#utility.yul\":7810:8065   */\n      iszero\n      tag_570\n      jumpi\n        /* \"#utility.yul\":7917:7919   */\n      0x3f\n        /* \"#utility.yul\":7913:7920   */\n      not\n        /* \"#utility.yul\":7901:7910   */\n      dup9\n        /* \"#utility.yul\":7893:7899   */\n      dup7\n        /* \"#utility.yul\":7889:7911   */\n      sub\n        /* \"#utility.yul\":7885:7921   */\n      add\n        /* \"#utility.yul\":7880:7883   */\n      dup5\n        /* \"#utility.yul\":7873:7922   */\n      mstore\n        /* \"#utility.yul\":7945:7985   */\n      tag_597\n        /* \"#utility.yul\":7978:7984   */\n      dup6\n        /* \"#utility.yul\":7969:7975   */\n      dup4\n        /* \"#utility.yul\":7963:7976   */\n      mload\n        /* \"#utility.yul\":7945:7985   */\n      tag_520\n      jump\t// in\n    tag_597:\n        /* \"#utility.yul\":7935:7985   */\n      swap5\n      pop\n        /* \"#utility.yul\":8043:8055   */\n      swap3\n      dup6\n      add\n      swap3\n        /* \"#utility.yul\":8008:8023   */\n      swap1\n      dup6\n      add\n      swap1\n        /* \"#utility.yul\":7846:7847   */\n      0x01\n        /* \"#utility.yul\":7839:7848   */\n      add\n        /* \"#utility.yul\":7810:8065   */\n      jump(tag_594)\n        /* \"#utility.yul\":8281:8408   */\n    tag_69:\n        /* \"#utility.yul\":8342:8352   */\n      0x4e487b71\n        /* \"#utility.yul\":8337:8340   */\n      0xe0\n        /* \"#utility.yul\":8333:8353   */\n      shl\n        /* \"#utility.yul\":8330:8331   */\n      0x00\n        /* \"#utility.yul\":8323:8354   */\n      mstore\n        /* \"#utility.yul\":8373:8377   */\n      0x32\n        /* \"#utility.yul\":8370:8371   */\n      0x04\n        /* \"#utility.yul\":8363:8378   */\n      mstore\n        /* \"#utility.yul\":8397:8401   */\n      0x24\n        /* \"#utility.yul\":8394:8395   */\n      0x00\n        /* \"#utility.yul\":8387:8402   */\n      revert\n        /* \"#utility.yul\":9117:9497   */\n    tag_91:\n        /* \"#utility.yul\":9196:9197   */\n      0x01\n        /* \"#utility.yul\":9192:9204   */\n      dup2\n      dup2\n      shr\n      swap1\n        /* \"#utility.yul\":9239:9251   */\n      dup3\n      and\n      dup1\n        /* \"#utility.yul\":9260:9321   */\n      tag_603\n      jumpi\n        /* \"#utility.yul\":9314:9318   */\n      0x7f\n        /* \"#utility.yul\":9306:9312   */\n      dup3\n        /* \"#utility.yul\":9302:9319   */\n      and\n        /* \"#utility.yul\":9292:9319   */\n      swap2\n      pop\n        /* \"#utility.yul\":9260:9321   */\n    tag_603:\n        /* \"#utility.yul\":9367:9369   */\n      0x20\n        /* \"#utility.yul\":9359:9365   */\n      dup3\n        /* \"#utility.yul\":9356:9370   */\n      lt\n        /* \"#utility.yul\":9336:9354   */\n      dup2\n        /* \"#utility.yul\":9333:9371   */\n      sub\n        /* \"#utility.yul\":9330:9491   */\n      tag_604\n      jumpi\n        /* \"#utility.yul\":9413:9423   */\n      0x4e487b71\n        /* \"#utility.yul\":9408:9411   */\n      0xe0\n        /* \"#utility.yul\":9404:9424   */\n      shl\n        /* \"#utility.yul\":9401:9402   */\n      0x00\n        /* \"#utility.yul\":9394:9425   */\n      mstore\n        /* \"#utility.yul\":9448:9452   */\n      0x22\n        /* \"#utility.yul\":9445:9446   */\n      0x04\n        /* \"#utility.yul\":9438:9453   */\n      mstore\n        /* \"#utility.yul\":9476:9480   */\n      0x24\n        /* \"#utility.yul\":9473:9474   */\n      0x00\n        /* \"#utility.yul\":9466:9481   */\n      revert\n        /* \"#utility.yul\":9330:9491   */\n    tag_604:\n      pop\n        /* \"#utility.yul\":9117:9497   */\n      swap2\n      swap1\n      pop\n      jump\t// out\n        /* \"#utility.yul\":9628:10173   */\n    tag_528:\n        /* \"#utility.yul\":9730:9732   */\n      0x1f\n        /* \"#utility.yul\":9725:9728   */\n      dup3\n        /* \"#utility.yul\":9722:9733   */\n      gt\n        /* \"#utility.yul\":9719:10167   */\n      iszero\n      tag_607\n      jumpi\n        /* \"#utility.yul\":9766:9767   */\n      0x00\n        /* \"#utility.yul\":9791:9796   */\n      dup2\n        /* \"#utility.yul\":9787:9789   */\n      dup2\n        /* \"#utility.yul\":9780:9797   */\n      mstore\n        /* \"#utility.yul\":9836:9840   */\n      0x20\n        /* \"#utility.yul\":9832:9834   */\n      dup2\n        /* \"#utility.yul\":9822:9841   */\n      keccak256\n        /* \"#utility.yul\":9906:9908   */\n      0x1f\n        /* \"#utility.yul\":9894:9904   */\n      dup6\n        /* \"#utility.yul\":9890:9909   */\n      add\n        /* \"#utility.yul\":9887:9888   */\n      0x05\n        /* \"#utility.yul\":9883:9910   */\n      shr\n        /* \"#utility.yul\":9877:9881   */\n      dup2\n        /* \"#utility.yul\":9873:9911   */\n      add\n        /* \"#utility.yul\":9942:9946   */\n      0x20\n        /* \"#utility.yul\":9930:9940   */\n      dup7\n        /* \"#utility.yul\":9927:9947   */\n      lt\n        /* \"#utility.yul\":9924:9971   */\n      iszero\n      tag_608\n      jumpi\n      pop\n        /* \"#utility.yul\":9965:9969   */\n      dup1\n        /* \"#utility.yul\":9924:9971   */\n    tag_608:\n        /* \"#utility.yul\":10020:10022   */\n      0x1f\n        /* \"#utility.yul\":10015:10018   */\n      dup6\n        /* \"#utility.yul\":10011:10023   */\n      add\n        /* \"#utility.yul\":10008:10009   */\n      0x05\n        /* \"#utility.yul\":10004:10024   */\n      shr\n        /* \"#utility.yul\":9998:10002   */\n      dup3\n        /* \"#utility.yul\":9994:10025   */\n      add\n        /* \"#utility.yul\":9984:10025   */\n      swap2\n      pop\n        /* \"#utility.yul\":10075:10157   */\n    tag_609:\n        /* \"#utility.yul\":10093:10095   */\n      dup2\n        /* \"#utility.yul\":10086:10091   */\n      dup2\n        /* \"#utility.yul\":10083:10096   */\n      lt\n        /* \"#utility.yul\":10075:10157   */\n      iszero\n      tag_611\n      jumpi\n        /* \"#utility.yul\":10138:10155   */\n      dup3\n      dup2\n      sstore\n        /* \"#utility.yul\":10119:10120   */\n      0x01\n        /* \"#utility.yul\":10108:10121   */\n      add\n        /* \"#utility.yul\":10075:10157   */\n      jump(tag_609)\n    tag_611:\n        /* \"#utility.yul\":10079:10082   */\n      pop\n      pop\n      pop\n        /* \"#utility.yul\":9719:10167   */\n    tag_607:\n        /* \"#utility.yul\":9628:10173   */\n      pop\n      pop\n      pop\n      jump\t// out\n        /* \"#utility.yul\":10349:11701   */\n    tag_111:\n        /* \"#utility.yul\":10475:10478   */\n      dup2\n        /* \"#utility.yul\":10469:10479   */\n      mload\n        /* \"#utility.yul\":10502:10520   */\n      0xffffffffffffffff\n        /* \"#utility.yul\":10494:10500   */\n      dup2\n        /* \"#utility.yul\":10491:10521   */\n      gt\n        /* \"#utility.yul\":10488:10544   */\n      iszero\n      tag_615\n      jumpi\n        /* \"#utility.yul\":10524:10542   */\n      tag_615\n      tag_525\n      jump\t// in\n    tag_615:\n        /* \"#utility.yul\":10553:10650   */\n      tag_616\n        /* \"#utility.yul\":10643:10649   */\n      dup2\n        /* \"#utility.yul\":10603:10641   */\n      tag_617\n        /* \"#utility.yul\":10635:10639   */\n      dup5\n        /* \"#utility.yul\":10629:10640   */\n      sload\n        /* \"#utility.yul\":10603:10641   */\n      tag_91\n      jump\t// in\n    tag_617:\n        /* \"#utility.yul\":10597:10601   */\n      dup5\n        /* \"#utility.yul\":10553:10650   */\n      tag_528\n      jump\t// in\n    tag_616:\n        /* \"#utility.yul\":10705:10709   */\n      0x20\n      dup1\n        /* \"#utility.yul\":10769:10771   */\n      0x1f\n        /* \"#utility.yul\":10758:10772   */\n      dup4\n      gt\n        /* \"#utility.yul\":10786:10787   */\n      0x01\n        /* \"#utility.yul\":10781:11444   */\n      dup2\n      eq\n      tag_619\n      jumpi\n        /* \"#utility.yul\":11488:11489   */\n      0x00\n        /* \"#utility.yul\":11505:11511   */\n      dup5\n        /* \"#utility.yul\":11502:11591   */\n      iszero\n      tag_620\n      jumpi\n      pop\n        /* \"#utility.yul\":11557:11576   */\n      dup6\n      dup4\n      add\n        /* \"#utility.yul\":11551:11577   */\n      mload\n        /* \"#utility.yul\":11502:11591   */\n    tag_620:\n      not(0x00)\n        /* \"#utility.yul\":10306:10307   */\n      0x03\n        /* \"#utility.yul\":10302:10313   */\n      dup7\n      swap1\n      shl\n        /* \"#utility.yul\":10298:10322   */\n      shr\n        /* \"#utility.yul\":10294:10323   */\n      not\n        /* \"#utility.yul\":10284:10324   */\n      and\n        /* \"#utility.yul\":10330:10331   */\n      0x01\n        /* \"#utility.yul\":10326:10337   */\n      dup6\n      swap1\n      shl\n        /* \"#utility.yul\":10281:10338   */\n      or\n        /* \"#utility.yul\":11604:11685   */\n      dup6\n      sstore\n        /* \"#utility.yul\":10751:11695   */\n      jump(tag_611)\n        /* \"#utility.yul\":10781:11444   */\n    tag_619:\n        /* \"#utility.yul\":9575:9576   */\n      0x00\n        /* \"#utility.yul\":9568:9582   */\n      dup6\n      dup2\n      mstore\n        /* \"#utility.yul\":9612:9616   */\n      0x20\n        /* \"#utility.yul\":9599:9617   */\n      dup2\n      keccak256\n      not(0x1f)\n        /* \"#utility.yul\":10817:10837   */\n      dup7\n      and\n      swap2\n        /* \"#utility.yul\":10935:11171   */\n    tag_623:\n        /* \"#utility.yul\":10949:10956   */\n      dup3\n        /* \"#utility.yul\":10946:10947   */\n      dup2\n        /* \"#utility.yul\":10943:10957   */\n      lt\n        /* \"#utility.yul\":10935:11171   */\n      iszero\n      tag_625\n      jumpi\n        /* \"#utility.yul\":11038:11057   */\n      dup9\n      dup7\n      add\n        /* \"#utility.yul\":11032:11058   */\n      mload\n        /* \"#utility.yul\":11017:11059   */\n      dup3\n      sstore\n        /* \"#utility.yul\":11130:11157   */\n      swap5\n      dup5\n      add\n      swap5\n        /* \"#utility.yul\":11098:11099   */\n      0x01\n        /* \"#utility.yul\":11086:11100   */\n      swap1\n      swap2\n      add\n      swap1\n        /* \"#utility.yul\":10965:10984   */\n      dup5\n      add\n        /* \"#utility.yul\":10935:11171   */\n      jump(tag_623)\n    tag_625:\n        /* \"#utility.yul\":10939:10942   */\n      pop\n        /* \"#utility.yul\":11199:11205   */\n      dup6\n        /* \"#utility.yul\":11190:11197   */\n      dup3\n        /* \"#utility.yul\":11187:11206   */\n      lt\n        /* \"#utility.yul\":11184:11385   */\n      iszero\n      tag_626\n      jumpi\n        /* \"#utility.yul\":11260:11279   */\n      dup8\n      dup6\n      add\n        /* \"#utility.yul\":11254:11280   */\n      mload\n      not(0x00)\n        /* \"#utility.yul\":11343:11344   */\n      0x03\n        /* \"#utility.yul\":11339:11353   */\n      dup9\n      swap1\n      shl\n        /* \"#utility.yul\":11355:11358   */\n      0xf8\n        /* \"#utility.yul\":11335:11359   */\n      and\n        /* \"#utility.yul\":11331:11368   */\n      shr\n        /* \"#utility.yul\":11327:11369   */\n      not\n        /* \"#utility.yul\":11312:11370   */\n      and\n        /* \"#utility.yul\":11297:11371   */\n      dup2\n      sstore\n        /* \"#utility.yul\":11184:11385   */\n    tag_626:\n      pop\n      pop\n      pop\n      pop\n      pop\n        /* \"#utility.yul\":11431:11432   */\n      0x01\n        /* \"#utility.yul\":11415:11429   */\n      swap1\n      dup2\n      shl\n        /* \"#utility.yul\":11411:11433   */\n      add\n        /* \"#utility.yul\":11398:11434   */\n      swap1\n      sstore\n      pop\n        /* \"#utility.yul\":10349:11701   */\n      jump\t// out\n        /* \"#utility.yul\":13103:14538   */\n    tag_176:\n        /* \"#utility.yul\":13222:13225   */\n      dup2\n        /* \"#utility.yul\":13216:13220   */\n      dup2\n        /* \"#utility.yul\":13213:13226   */\n      sub\n        /* \"#utility.yul\":13210:13236   */\n      tag_632\n      jumpi\n        /* \"#utility.yul\":13229:13234   */\n      pop\n      pop\n        /* \"#utility.yul\":13103:14538   */\n      jump\t// out\n        /* \"#utility.yul\":13210:13236   */\n    tag_632:\n        /* \"#utility.yul\":13259:13296   */\n      tag_633\n        /* \"#utility.yul\":13291:13294   */\n      dup3\n        /* \"#utility.yul\":13285:13295   */\n      sload\n        /* \"#utility.yul\":13259:13296   */\n      tag_91\n      jump\t// in\n    tag_633:\n        /* \"#utility.yul\":13319:13337   */\n      0xffffffffffffffff\n        /* \"#utility.yul\":13311:13317   */\n      dup2\n        /* \"#utility.yul\":13308:13338   */\n      gt\n        /* \"#utility.yul\":13305:13361   */\n      iszero\n      tag_635\n      jumpi\n        /* \"#utility.yul\":13341:13359   */\n      tag_635\n      tag_525\n      jump\t// in\n    tag_635:\n        /* \"#utility.yul\":13370:13467   */\n      tag_636\n        /* \"#utility.yul\":13460:13466   */\n      dup2\n        /* \"#utility.yul\":13420:13458   */\n      tag_617\n        /* \"#utility.yul\":13452:13456   */\n      dup5\n        /* \"#utility.yul\":13446:13457   */\n      sload\n        /* \"#utility.yul\":13420:13458   */\n      tag_91\n      jump\t// in\n        /* \"#utility.yul\":13370:13467   */\n    tag_636:\n        /* \"#utility.yul\":13493:13494   */\n      0x00\n        /* \"#utility.yul\":13521:13523   */\n      0x1f\n        /* \"#utility.yul\":13513:13519   */\n      dup3\n        /* \"#utility.yul\":13510:13524   */\n      gt\n        /* \"#utility.yul\":13538:13539   */\n      0x01\n        /* \"#utility.yul\":13533:14281   */\n      dup2\n      eq\n      tag_639\n      jumpi\n        /* \"#utility.yul\":14325:14326   */\n      0x00\n        /* \"#utility.yul\":14342:14348   */\n      dup4\n        /* \"#utility.yul\":14339:14428   */\n      iszero\n      tag_640\n      jumpi\n      pop\n        /* \"#utility.yul\":14394:14413   */\n      dup5\n      dup3\n      add\n        /* \"#utility.yul\":14388:14414   */\n      sload\n        /* \"#utility.yul\":14339:14428   */\n    tag_640:\n      not(0x00)\n        /* \"#utility.yul\":10306:10307   */\n      0x03\n        /* \"#utility.yul\":10302:10313   */\n      dup6\n      swap1\n      shl\n        /* \"#utility.yul\":10298:10322   */\n      shr\n        /* \"#utility.yul\":10294:10323   */\n      not\n        /* \"#utility.yul\":10284:10324   */\n      and\n        /* \"#utility.yul\":10330:10331   */\n      0x01\n        /* \"#utility.yul\":10326:10337   */\n      dup5\n      swap1\n      shl\n        /* \"#utility.yul\":10281:10338   */\n      or\n        /* \"#utility.yul\":14441:14522   */\n      dup5\n      sstore\n        /* \"#utility.yul\":13503:14532   */\n      jump(tag_638)\n        /* \"#utility.yul\":13533:14281   */\n    tag_639:\n        /* \"#utility.yul\":9575:9576   */\n      0x00\n        /* \"#utility.yul\":9568:9582   */\n      dup6\n      dup2\n      mstore\n        /* \"#utility.yul\":9612:9616   */\n      0x20\n        /* \"#utility.yul\":9599:9617   */\n      swap1\n      keccak256\n      not(0x1f)\n        /* \"#utility.yul\":13569:13589   */\n      dup5\n      and\n      swap1\n        /* \"#utility.yul\":9575:9576   */\n      0x00\n        /* \"#utility.yul\":9568:9582   */\n      dup7\n      dup2\n      mstore\n        /* \"#utility.yul\":9612:9616   */\n      0x20\n        /* \"#utility.yul\":9599:9617   */\n      swap1\n      keccak256\n        /* \"#utility.yul\":13733:13742   */\n      dup5\n        /* \"#utility.yul\":13755:14006   */\n    tag_644:\n        /* \"#utility.yul\":13769:13776   */\n      dup4\n        /* \"#utility.yul\":13766:13767   */\n      dup2\n        /* \"#utility.yul\":13763:13777   */\n      lt\n        /* \"#utility.yul\":13755:14006   */\n      iszero\n      tag_646\n      jumpi\n        /* \"#utility.yul\":13851:13872   */\n      dup3\n      dup7\n      add\n        /* \"#utility.yul\":13845:13873   */\n      sload\n        /* \"#utility.yul\":13830:13874   */\n      dup3\n      sstore\n        /* \"#utility.yul\":13901:13902   */\n      0x01\n        /* \"#utility.yul\":13974:13992   */\n      swap6\n      dup7\n      add\n      swap6\n        /* \"#utility.yul\":13929:13944   */\n      swap1\n      swap2\n      add\n      swap1\n        /* \"#utility.yul\":13792:13796   */\n      0x20\n        /* \"#utility.yul\":13785:13797   */\n      add\n        /* \"#utility.yul\":13755:14006   */\n      jump(tag_644)\n    tag_646:\n        /* \"#utility.yul\":13759:13762   */\n      pop\n        /* \"#utility.yul\":14034:14040   */\n      dup6\n        /* \"#utility.yul\":14025:14032   */\n      dup4\n        /* \"#utility.yul\":14022:14041   */\n      lt\n        /* \"#utility.yul\":14019:14222   */\n      iszero\n      tag_647\n      jumpi\n        /* \"#utility.yul\":14095:14116   */\n      dup2\n      dup6\n      add\n        /* \"#utility.yul\":14089:14117   */\n      sload\n      not(0x00)\n        /* \"#utility.yul\":14180:14181   */\n      0x03\n        /* \"#utility.yul\":14176:14190   */\n      dup9\n      swap1\n      shl\n        /* \"#utility.yul\":14192:14195   */\n      0xf8\n        /* \"#utility.yul\":14172:14196   */\n      and\n        /* \"#utility.yul\":14168:14205   */\n      shr\n        /* \"#utility.yul\":14164:14206   */\n      not\n        /* \"#utility.yul\":14149:14207   */\n      and\n        /* \"#utility.yul\":14134:14208   */\n      dup2\n      sstore\n        /* \"#utility.yul\":14019:14222   */\n    tag_647:\n      pop\n      pop\n      pop\n        /* \"#utility.yul\":14268:14269   */\n      0x01\n        /* \"#utility.yul\":14259:14265   */\n      dup4\n        /* \"#utility.yul\":14256:14257   */\n      0x01\n        /* \"#utility.yul\":14252:14266   */\n      shl\n        /* \"#utility.yul\":14248:14270   */\n      add\n        /* \"#utility.yul\":14242:14246   */\n      dup5\n        /* \"#utility.yul\":14235:14271   */\n      sstore\n        /* \"#utility.yul\":13503:14532   */\n    tag_638:\n      pop\n      pop\n      pop\n        /* \"#utility.yul\":13103:14538   */\n      pop\n      pop\n      jump\t// out\n        /* \"#utility.yul\":14543:15315   */\n    tag_530:\n        /* \"#utility.yul\":14593:14596   */\n      0x00\n        /* \"#utility.yul\":14634:14639   */\n      dup2\n        /* \"#utility.yul\":14628:14640   */\n      sload\n        /* \"#utility.yul\":14663:14699   */\n      tag_649\n        /* \"#utility.yul\":14689:14698   */\n      dup2\n        /* \"#utility.yul\":14663:14699   */\n      tag_91\n      jump\t// in\n    tag_649:\n        /* \"#utility.yul\":14708:14727   */\n      dup1\n      dup6\n      mstore\n        /* \"#utility.yul\":14746:14750   */\n      0x20\n        /* \"#utility.yul\":14769:14770   */\n      0x01\n        /* \"#utility.yul\":14786:14804   */\n      dup4\n      dup2\n      and\n        /* \"#utility.yul\":14813:14959   */\n      dup1\n      iszero\n      tag_651\n      jumpi\n        /* \"#utility.yul\":14973:14974   */\n      0x01\n        /* \"#utility.yul\":14968:15309   */\n      dup2\n      eq\n      tag_652\n      jumpi\n        /* \"#utility.yul\":14779:15309   */\n      jump(tag_650)\n        /* \"#utility.yul\":14813:14959   */\n    tag_651:\n      not(0xff)\n        /* \"#utility.yul\":14855:14879   */\n      dup6\n      and\n        /* \"#utility.yul\":14841:14853   */\n      dup9\n      dup5\n      add\n        /* \"#utility.yul\":14834:14880   */\n      mstore\n        /* \"#utility.yul\":14927:14941   */\n      dup4\n      iszero\n        /* \"#utility.yul\":14920:14942   */\n      iszero\n        /* \"#utility.yul\":14917:14918   */\n      0x05\n        /* \"#utility.yul\":14913:14943   */\n      shl\n        /* \"#utility.yul\":14904:14944   */\n      dup9\n      add\n        /* \"#utility.yul\":14900:14949   */\n      dup4\n      add\n      swap6\n      pop\n        /* \"#utility.yul\":14813:14959   */\n      jump(tag_650)\n        /* \"#utility.yul\":14968:15309   */\n    tag_652:\n        /* \"#utility.yul\":14999:15004   */\n      dup7\n        /* \"#utility.yul\":14996:14997   */\n      0x00\n        /* \"#utility.yul\":14989:15005   */\n      mstore\n        /* \"#utility.yul\":15046:15048   */\n      dup3\n        /* \"#utility.yul\":15043:15044   */\n      0x00\n        /* \"#utility.yul\":15033:15049   */\n      keccak256\n        /* \"#utility.yul\":15071:15072   */\n      0x00\n        /* \"#utility.yul\":15085:15259   */\n    tag_653:\n        /* \"#utility.yul\":15099:15105   */\n      dup6\n        /* \"#utility.yul\":15096:15097   */\n      dup2\n        /* \"#utility.yul\":15093:15106   */\n      lt\n        /* \"#utility.yul\":15085:15259   */\n      iszero\n      tag_655\n      jumpi\n        /* \"#utility.yul\":15186:15200   */\n      dup2\n      sload\n        /* \"#utility.yul\":15168:15179   */\n      dup11\n      dup3\n      add\n        /* \"#utility.yul\":15164:15184   */\n      dup7\n      add\n        /* \"#utility.yul\":15157:15201   */\n      mstore\n        /* \"#utility.yul\":15229:15245   */\n      swap1\n      dup4\n      add\n      swap1\n        /* \"#utility.yul\":15114:15124   */\n      dup5\n      add\n        /* \"#utility.yul\":15085:15259   */\n      jump(tag_653)\n    tag_655:\n        /* \"#utility.yul\":15283:15294   */\n      dup10\n      add\n        /* \"#utility.yul\":15279:15299   */\n      dup5\n      add\n      swap7\n      pop\n      pop\n        /* \"#utility.yul\":14779:15309   */\n    tag_650:\n      pop\n      pop\n      pop\n      pop\n      pop\n        /* \"#utility.yul\":14543:15315   */\n      swap3\n      swap2\n      pop\n      pop\n      jump\t// out\n        /* \"#utility.yul\":15320:15971   */\n    tag_531:\n        /* \"#utility.yul\":15380:15383   */\n      0x00\n        /* \"#utility.yul\":15418:15423   */\n      dup2\n        /* \"#utility.yul\":15412:15424   */\n      sload\n        /* \"#utility.yul\":15445:15451   */\n      dup1\n        /* \"#utility.yul\":15440:15443   */\n      dup5\n        /* \"#utility.yul\":15433:15452   */\n      mstore\n        /* \"#utility.yul\":15471:15475   */\n      0x20\n        /* \"#utility.yul\":15512:15514   */\n      dup1\n        /* \"#utility.yul\":15507:15510   */\n      dup6\n        /* \"#utility.yul\":15503:15515   */\n      add\n        /* \"#utility.yul\":15537:15548   */\n      dup1\n        /* \"#utility.yul\":15564:15575   */\n      dup2\n        /* \"#utility.yul\":15557:15575   */\n      swap7\n      pop\n        /* \"#utility.yul\":15614:15620   */\n      dup4\n        /* \"#utility.yul\":15611:15612   */\n      0x05\n        /* \"#utility.yul\":15607:15621   */\n      shl\n        /* \"#utility.yul\":15600:15605   */\n      dup2\n        /* \"#utility.yul\":15596:15622   */\n      add\n        /* \"#utility.yul\":15584:15622   */\n      swap2\n      pop\n        /* \"#utility.yul\":15641:15646   */\n      dup6\n        /* \"#utility.yul\":15638:15639   */\n      0x00\n        /* \"#utility.yul\":15631:15647   */\n      mstore\n        /* \"#utility.yul\":15683:15685   */\n      dup3\n        /* \"#utility.yul\":15680:15681   */\n      0x00\n        /* \"#utility.yul\":15670:15686   */\n      keccak256\n        /* \"#utility.yul\":15704:15705   */\n      0x00\n        /* \"#utility.yul\":15714:15945   */\n    tag_657:\n        /* \"#utility.yul\":15728:15734   */\n      dup6\n        /* \"#utility.yul\":15725:15726   */\n      dup2\n        /* \"#utility.yul\":15722:15735   */\n      lt\n        /* \"#utility.yul\":15714:15945   */\n      iszero\n      tag_659\n      jumpi\n        /* \"#utility.yul\":15799:15804   */\n      dup3\n        /* \"#utility.yul\":15793:15797   */\n      dup5\n        /* \"#utility.yul\":15789:15805   */\n      sub\n        /* \"#utility.yul\":15784:15787   */\n      dup10\n        /* \"#utility.yul\":15777:15806   */\n      mstore\n        /* \"#utility.yul\":15827:15866   */\n      tag_660\n        /* \"#utility.yul\":15861:15865   */\n      dup5\n        /* \"#utility.yul\":15853:15859   */\n      dup4\n        /* \"#utility.yul\":15827:15866   */\n      tag_530\n      jump\t// in\n    tag_660:\n        /* \"#utility.yul\":15923:15935   */\n      swap9\n      dup6\n      add\n      swap9\n        /* \"#utility.yul\":15819:15866   */\n      swap4\n      pop\n        /* \"#utility.yul\":15901:15902   */\n      0x01\n        /* \"#utility.yul\":15889:15903   */\n      swap2\n      dup3\n      add\n      swap2\n        /* \"#utility.yul\":15743:15752   */\n      add\n        /* \"#utility.yul\":15714:15945   */\n      jump(tag_657)\n    tag_659:\n      pop\n        /* \"#utility.yul\":15961:15965   */\n      swap2\n      swap8\n        /* \"#utility.yul\":15320:15971   */\n      swap7\n      pop\n      pop\n      pop\n      pop\n      pop\n      pop\n      pop\n      jump\t// out\n        /* \"#utility.yul\":15976:16329   */\n    tag_181:\n        /* \"#utility.yul\":16197:16199   */\n      0x40\n        /* \"#utility.yul\":16186:16195   */\n      dup2\n        /* \"#utility.yul\":16179:16200   */\n      mstore\n        /* \"#utility.yul\":16160:16164   */\n      0x00\n        /* \"#utility.yul\":16217:16280   */\n      tag_662\n        /* \"#utility.yul\":16276:16278   */\n      0x40\n        /* \"#utility.yul\":16265:16274   */\n      dup4\n        /* \"#utility.yul\":16261:16279   */\n      add\n        /* \"#utility.yul\":16253:16259   */\n      dup6\n        /* \"#utility.yul\":16217:16280   */\n      tag_531\n      jump\t// in\n    tag_662:\n        /* \"#utility.yul\":16209:16280   */\n      swap1\n      pop\n        /* \"#utility.yul\":16316:16322   */\n      dup3\n        /* \"#utility.yul\":16311:16313   */\n      0x20\n        /* \"#utility.yul\":16300:16309   */\n      dup4\n        /* \"#utility.yul\":16296:16314   */\n      add\n        /* \"#utility.yul\":16289:16323   */\n      mstore\n        /* \"#utility.yul\":15976:16329   */\n      swap4\n      swap3\n      pop\n      pop\n      pop\n      jump\t// out\n        /* \"#utility.yul\":16334:16461   */\n    tag_532:\n        /* \"#utility.yul\":16395:16405   */\n      0x4e487b71\n        /* \"#utility.yul\":16390:16393   */\n      0xe0\n        /* \"#utility.yul\":16386:16406   */\n      shl\n        /* \"#utility.yul\":16383:16384   */\n      0x00\n        /* \"#utility.yul\":16376:16407   */\n      mstore\n        /* \"#utility.yul\":16426:16430   */\n      0x11\n        /* \"#utility.yul\":16423:16424   */\n      0x04\n        /* \"#utility.yul\":16416:16431   */\n      mstore\n        /* \"#utility.yul\":16450:16454   */\n      0x24\n        /* \"#utility.yul\":16447:16448   */\n      0x00\n        /* \"#utility.yul\":16440:16455   */\n      revert\n        /* \"#utility.yul\":16466:16594   */\n    tag_201:\n        /* \"#utility.yul\":16533:16542   */\n      dup2\n      dup2\n      sub\n        /* \"#utility.yul\":16554:16565   */\n      dup2\n      dup2\n      gt\n        /* \"#utility.yul\":16551:16588   */\n      iszero\n      tag_251\n      jumpi\n        /* \"#utility.yul\":16568:16586   */\n      tag_251\n      tag_532\n      jump\t// in\n        /* \"#utility.yul\":16599:16734   */\n    tag_228:\n        /* \"#utility.yul\":16638:16641   */\n      0x00\n        /* \"#utility.yul\":16659:16676   */\n      0x01\n      dup3\n      add\n        /* \"#utility.yul\":16656:16699   */\n      tag_669\n      jumpi\n        /* \"#utility.yul\":16679:16697   */\n      tag_669\n      tag_532\n      jump\t// in\n    tag_669:\n      pop\n        /* \"#utility.yul\":16726:16727   */\n      0x01\n        /* \"#utility.yul\":16715:16728   */\n      add\n      swap1\n        /* \"#utility.yul\":16599:16734   */\n      jump\t// out\n        /* \"#utility.yul\":16739:17028   */\n    tag_253:\n        /* \"#utility.yul\":16870:16873   */\n      0x00\n        /* \"#utility.yul\":16908:16914   */\n      dup3\n        /* \"#utility.yul\":16902:16915   */\n      mload\n        /* \"#utility.yul\":16924:16990   */\n      tag_671\n        /* \"#utility.yul\":16983:16989   */\n      dup2\n        /* \"#utility.yul\":16978:16981   */\n      dup5\n        /* \"#utility.yul\":16971:16975   */\n      0x20\n        /* \"#utility.yul\":16963:16969   */\n      dup8\n        /* \"#utility.yul\":16959:16976   */\n      add\n        /* \"#utility.yul\":16924:16990   */\n      tag_519\n      jump\t// in\n    tag_671:\n        /* \"#utility.yul\":17006:17022   */\n      swap2\n      swap1\n      swap2\n      add\n      swap3\n        /* \"#utility.yul\":16739:17028   */\n      swap2\n      pop\n      pop\n      jump\t// out\n        /* \"#utility.yul\":17241:17425   */\n    tag_273:\n        /* \"#utility.yul\":17311:17317   */\n      0x00\n        /* \"#utility.yul\":17364:17366   */\n      0x20\n        /* \"#utility.yul\":17352:17361   */\n      dup3\n        /* \"#utility.yul\":17343:17350   */\n      dup5\n        /* \"#utility.yul\":17339:17362   */\n      sub\n        /* \"#utility.yul\":17335:17367   */\n      slt\n        /* \"#utility.yul\":17332:17384   */\n      iszero\n      tag_674\n      jumpi\n        /* \"#utility.yul\":17380:17381   */\n      0x00\n        /* \"#utility.yul\":17377:17378   */\n      dup1\n        /* \"#utility.yul\":17370:17382   */\n      revert\n        /* \"#utility.yul\":17332:17384   */\n    tag_674:\n      pop\n        /* \"#utility.yul\":17403:17419   */\n      mload\n      swap2\n        /* \"#utility.yul\":17241:17425   */\n      swap1\n      pop\n      jump\t// out\n        /* \"#utility.yul\":19006:19475   */\n    tag_534:\n        /* \"#utility.yul\":19067:19070   */\n      0x00\n        /* \"#utility.yul\":19105:19110   */\n      dup2\n        /* \"#utility.yul\":19099:19111   */\n      sload\n        /* \"#utility.yul\":19132:19138   */\n      dup1\n        /* \"#utility.yul\":19127:19130   */\n      dup5\n        /* \"#utility.yul\":19120:19139   */\n      mstore\n        /* \"#utility.yul\":19158:19162   */\n      0x20\n        /* \"#utility.yul\":19187:19189   */\n      dup1\n        /* \"#utility.yul\":19182:19185   */\n      dup6\n        /* \"#utility.yul\":19178:19190   */\n      add\n        /* \"#utility.yul\":19171:19190   */\n      swap5\n      pop\n        /* \"#utility.yul\":19209:19214   */\n      dup4\n        /* \"#utility.yul\":19206:19207   */\n      0x00\n        /* \"#utility.yul\":19199:19215   */\n      mstore\n        /* \"#utility.yul\":19251:19253   */\n      dup1\n        /* \"#utility.yul\":19248:19249   */\n      0x00\n        /* \"#utility.yul\":19238:19254   */\n      keccak256\n        /* \"#utility.yul\":19272:19273   */\n      0x00\n        /* \"#utility.yul\":19282:19450   */\n    tag_680:\n        /* \"#utility.yul\":19296:19302   */\n      dup4\n        /* \"#utility.yul\":19293:19294   */\n      dup2\n        /* \"#utility.yul\":19290:19303   */\n      lt\n        /* \"#utility.yul\":19282:19450   */\n      iszero\n      tag_558\n      jumpi\n        /* \"#utility.yul\":19357:19370   */\n      dup2\n      sload\n        /* \"#utility.yul\":19345:19371   */\n      dup8\n      mstore\n        /* \"#utility.yul\":19391:19403   */\n      swap6\n      dup3\n      add\n      swap6\n        /* \"#utility.yul\":19438:19439   */\n      0x01\n        /* \"#utility.yul\":19426:19440   */\n      swap2\n      dup3\n      add\n      swap2\n        /* \"#utility.yul\":19311:19320   */\n      add\n        /* \"#utility.yul\":19282:19450   */\n      jump(tag_680)\n        /* \"#utility.yul\":19623:21035   */\n    tag_313:\n        /* \"#utility.yul\":19825:19827   */\n      0x40\n        /* \"#utility.yul\":19814:19823   */\n      dup2\n        /* \"#utility.yul\":19807:19828   */\n      mstore\n        /* \"#utility.yul\":19837:19928   */\n      tag_685\n        /* \"#utility.yul\":19924:19926   */\n      0x40\n        /* \"#utility.yul\":19913:19922   */\n      dup3\n        /* \"#utility.yul\":19909:19927   */\n      add\n        /* \"#utility.yul\":19853:19907   */\n      tag_686\n        /* \"#utility.yul\":19899:19905   */\n      dup6\n        /* \"#utility.yul\":19893:19906   */\n      sload\n        /* \"#utility.yul\":18990:18994   */\n      0xff\n        /* \"#utility.yul\":18974:18995   */\n      and\n      swap1\n        /* \"#utility.yul\":18881:19001   */\n      jump\n        /* \"#utility.yul\":19853:19907   */\n    tag_686:\n        /* \"#utility.yul\":906:919   */\n      iszero\n        /* \"#utility.yul\":899:920   */\n      iszero\n        /* \"#utility.yul\":887:921   */\n      swap1\n      mstore\n        /* \"#utility.yul\":836:927   */\n      jump\n        /* \"#utility.yul\":19837:19928   */\n    tag_685:\n        /* \"#utility.yul\":19788:19792   */\n      0x00\n        /* \"#utility.yul\":19947:19953   */\n      0x0100\n        /* \"#utility.yul\":19989:19991   */\n      dup1\n        /* \"#utility.yul\":19984:19986   */\n      0x60\n        /* \"#utility.yul\":19973:19982   */\n      dup5\n        /* \"#utility.yul\":19969:19987   */\n      add\n        /* \"#utility.yul\":19962:19992   */\n      mstore\n        /* \"#utility.yul\":20015:20080   */\n      tag_687\n        /* \"#utility.yul\":20075:20078   */\n      0x0140\n        /* \"#utility.yul\":20064:20073   */\n      dup5\n        /* \"#utility.yul\":20060:20079   */\n      add\n        /* \"#utility.yul\":20053:20057   */\n      0x01\n        /* \"#utility.yul\":20045:20051   */\n      dup8\n        /* \"#utility.yul\":20041:20058   */\n      add\n        /* \"#utility.yul\":20015:20080   */\n      tag_530\n      jump\t// in\n    tag_687:\n        /* \"#utility.yul\":20103:20105   */\n      0x3f\n        /* \"#utility.yul\":20099:20106   */\n      not\n        /* \"#utility.yul\":20171:20173   */\n      dup1\n        /* \"#utility.yul\":20159:20168   */\n      dup6\n        /* \"#utility.yul\":20151:20157   */\n      dup4\n        /* \"#utility.yul\":20147:20169   */\n      sub\n        /* \"#utility.yul\":20143:20174   */\n      add\n        /* \"#utility.yul\":20137:20140   */\n      0x80\n        /* \"#utility.yul\":20126:20135   */\n      dup7\n        /* \"#utility.yul\":20122:20141   */\n      add\n        /* \"#utility.yul\":20115:20175   */\n      mstore\n        /* \"#utility.yul\":20198:20260   */\n      tag_688\n        /* \"#utility.yul\":20253:20259   */\n      dup3\n        /* \"#utility.yul\":20246:20250   */\n      0x02\n        /* \"#utility.yul\":20238:20244   */\n      dup10\n        /* \"#utility.yul\":20234:20251   */\n      add\n        /* \"#utility.yul\":20198:20260   */\n      tag_531\n      jump\t// in\n    tag_688:\n        /* \"#utility.yul\":20184:20260   */\n      swap2\n      pop\n        /* \"#utility.yul\":20325:20327   */\n      dup1\n        /* \"#utility.yul\":20313:20322   */\n      dup6\n        /* \"#utility.yul\":20305:20311   */\n      dup4\n        /* \"#utility.yul\":20301:20323   */\n      sub\n        /* \"#utility.yul\":20297:20328   */\n      add\n        /* \"#utility.yul\":20291:20294   */\n      0xa0\n        /* \"#utility.yul\":20280:20289   */\n      dup7\n        /* \"#utility.yul\":20276:20295   */\n      add\n        /* \"#utility.yul\":20269:20329   */\n      mstore\n      pop\n        /* \"#utility.yul\":20352:20415   */\n      tag_689\n        /* \"#utility.yul\":20408:20414   */\n      dup2\n        /* \"#utility.yul\":20401:20405   */\n      0x03\n        /* \"#utility.yul\":20393:20399   */\n      dup9\n        /* \"#utility.yul\":20389:20406   */\n      add\n        /* \"#utility.yul\":20352:20415   */\n      tag_534\n      jump\t// in\n    tag_689:\n        /* \"#utility.yul\":20338:20415   */\n      swap1\n      pop\n        /* \"#utility.yul\":20444:20512   */\n      tag_690\n        /* \"#utility.yul\":20505:20509   */\n      0x04\n        /* \"#utility.yul\":20497:20503   */\n      dup8\n        /* \"#utility.yul\":20493:20510   */\n      add\n        /* \"#utility.yul\":20487:20511   */\n      sload\n      sub(shl(0xa0, 0x01), 0x01)\n        /* \"#utility.yul\":19576:19612   */\n      and\n      swap1\n        /* \"#utility.yul\":19480:19618   */\n      jump\n        /* \"#utility.yul\":20444:20512   */\n    tag_690:\n      sub(shl(0xa0, 0x01), 0x01)\n        /* \"#utility.yul\":2566:2597   */\n      swap1\n      dup2\n      and\n        /* \"#utility.yul\":20569:20572   */\n      0xc0\n        /* \"#utility.yul\":20554:20573   */\n      dup7\n      add\n        /* \"#utility.yul\":2554:2598   */\n      mstore\n        /* \"#utility.yul\":20666:20670   */\n      0x05\n        /* \"#utility.yul\":20654:20671   */\n      dup8\n      add\n        /* \"#utility.yul\":20648:20672   */\n      sload\n        /* \"#utility.yul\":19576:19612   */\n      dup2\n      and\n        /* \"#utility.yul\":20732:20735   */\n      0xe0\n        /* \"#utility.yul\":20717:20736   */\n      dup7\n      add\n        /* \"#utility.yul\":2554:2598   */\n      mstore\n        /* \"#utility.yul\":20791:20795   */\n      0x06\n        /* \"#utility.yul\":20779:20796   */\n      dup8\n      add\n        /* \"#utility.yul\":20773:20797   */\n      sload\n        /* \"#utility.yul\":20753:20771   */\n      swap3\n      dup6\n      add\n        /* \"#utility.yul\":20746:20798   */\n      swap3\n      swap1\n      swap3\n      mstore\n        /* \"#utility.yul\":20890:20894   */\n      0x07\n        /* \"#utility.yul\":20878:20895   */\n      swap1\n      swap6\n      add\n        /* \"#utility.yul\":20872:20896   */\n      sload\n        /* \"#utility.yul\":19576:19612   */\n      and\n        /* \"#utility.yul\":20956:20959   */\n      0x0120\n        /* \"#utility.yul\":20941:20960   */\n      dup4\n      add\n        /* \"#utility.yul\":2554:2598   */\n      mstore\n      pop\n        /* \"#utility.yul\":21015:21019   */\n      0x20\n        /* \"#utility.yul\":21000:21020   */\n      add\n        /* \"#utility.yul\":20993:21029   */\n      mstore\n        /* \"#utility.yul\":21000:21020   */\n      swap1\n        /* \"#utility.yul\":19623:21035   */\n      jump\t// out\n        /* \"#utility.yul\":21040:21336   */\n    tag_415:\n        /* \"#utility.yul\":21214:21216   */\n      0x40\n        /* \"#utility.yul\":21203:21212   */\n      dup2\n        /* \"#utility.yul\":21196:21217   */\n      mstore\n        /* \"#utility.yul\":21177:21181   */\n      0x00\n        /* \"#utility.yul\":21234:21287   */\n      tag_662\n        /* \"#utility.yul\":21283:21285   */\n      0x40\n        /* \"#utility.yul\":21272:21281   */\n      dup4\n        /* \"#utility.yul\":21268:21286   */\n      add\n        /* \"#utility.yul\":21260:21266   */\n      dup6\n        /* \"#utility.yul\":21234:21287   */\n      tag_530\n      jump\t// in\n\n    auxdata: 0xa2646970667358221220c0f5bad35a9eb0ca9d7d26cfa7a92364217c6699e394ceacad29700793b77ff564736f6c63430008130033\n}\n",
				"bytecode": {
					"linkReferences": {},
					"object": "600080546001600160a01b03191673c6bddcd0da1c50281f02a57b8d2ada2ebf76aec717815561018081815260016101a081905260026101c0819052608092835260036101e08181526004610200819052600561022081905260a09290925260066102408181526007610260819052600861028081905260c0929092526102a08a81526102c0969096526102e083905260e0959095526103009687526103208390526103409490945261010095909552610360848152610380929092526103a0839052610120919091526103c09586526103e0819052610400829052610140959095526104806040526104208281526104409590955261046092909252610160939093526200011092919062000125565b503480156200011e57600080fd5b506200022f565b82805482825590600052602060002090810192821562000171579160200282015b828111156200017157825162000160908390600362000183565b509160200191906001019062000146565b506200017f929150620001d4565b5090565b828054828255906000526020600020908101928215620001c6579160200282015b82811115620001c6578251829060ff16905591602001919060010190620001a4565b506200017f929150620001f5565b808211156200017f576000620001eb82826200020c565b50600101620001d4565b5b808211156200017f5760008155600101620001f6565b50805460008255906000526020600020908101906200022c9190620001f5565b50565b612a57806200023f6000396000f3fe608060405234801561001057600080fd5b50600436106100b45760003560e01c806397ca20bf1161007157806397ca20bf14610157578063b2182be41461015f578063bed34bba1461017f578063dc572c6e146101a2578063e8e37354146101c2578063efaa55a0146101d857600080fd5b806317b44960146100b957806334fd3518146100e2578063491f0136146100f75780634a9683911461010c57806352bc34101461011f57806387052fab14610132575b600080fd5b6100cc6100c736600461212e565b6101eb565b6040516100d99190612147565b60405180910390f35b6100f56100f036600461212e565b610267565b005b6100ff610336565b6040516100d99190612329565b6100f561011a36600461212e565b6105a7565b6100f561012d36600461238b565b610726565b61014561014036600461212e565b610b51565b6040516100d9969594939291906123ad565b6100f5610c34565b61017261016d36600461212e565b610f1f565b6040516100d991906123fb565b61019261018d3660046124b8565b611169565b60405190151581526020016100d9565b6101b56101b036600461212e565b6111c3565b6040516100d9919061251c565b6101ca6112c0565b6040519081526020016100d9565b6100f56101e636600461212e565b611346565b60606001828154811061020057610200612571565b906000526020600020906008020160030180548060200260200160405190810160405280929190818152602001828054801561025b57602002820191906000526020600020905b815481526020019060010190808311610247575b50505050509050919050565b6102708161166a565b6102c15760405162461bcd60e51b815260206004820152601c60248201527f796f7520617265206e6f7420746869732067616d6520706c617965720000000060448201526064015b60405180910390fd5b600181815481106102d4576102d4612571565b600091825260209091206008909102015460ff161561032a5760405162461bcd60e51b815260206004820152601260248201527147616d65207374696c6c20706c6179696e6760701b60448201526064016102b8565b610333816105a7565b50565b60606001805480602002602001604051908101604052809291908181526020016000905b8282101561059e57600084815260209081902060408051610100810190915260088502909101805460ff161515825260018101805492939192918401916103a090612587565b80601f01602080910402602001604051908101604052809291908181526020018280546103cc90612587565b80156104195780601f106103ee57610100808354040283529160200191610419565b820191906000526020600020905b8154815290600101906020018083116103fc57829003601f168201915b5050505050815260200160028201805480602002602001604051908101604052809291908181526020016000905b828210156104f357838290600052602060002001805461046690612587565b80601f016020809104026020016040519081016040528092919081815260200182805461049290612587565b80156104df5780601f106104b4576101008083540402835291602001916104df565b820191906000526020600020905b8154815290600101906020018083116104c257829003601f168201915b505050505081526020019060010190610447565b5050505081526020016003820180548060200260200160405190810160405280929190818152602001828054801561054a57602002820191906000526020600020905b815481526020019060010190808311610536575b505050918352505060048201546001600160a01b039081166020808401919091526005840154821660408401526006840154606084015260079093015416608090910152908252600192909201910161035a565b50505050905090565b604051806040016040528060018152602001600b60fb1b815250600182815481106105d4576105d4612571565b906000526020600020906008020160010190816105f19190612610565b5060408051610140810182526000610120820181815282528251602081810185528282528084019190915283518082018552828152838501528351808201855282815260608401528351808201855282815260808401528351808201855282815260a08401528351808201855282815260c08401528351808201855282815260e084015283519081019093528252610100810191909152600180548390811061069c5761069c612571565b90600052602060002090600802016002019060096106bb929190611f7d565b5060018082815481106106d0576106d0612571565b6000918252602091829020600890910201805460ff1916921515929092179091556040518281527fc5478e3fe602c65e5cdd37abe42a8e007ff762d266b9e8256769194c1fa1361e91015b60405180910390a150565b6001818154811061073957610739612571565b600091825260209091206008909102015460ff166107995760405162461bcd60e51b815260206004820152601c60248201527f5468652067616d65207374696c6c206e6f74207374617274207965740000000060448201526064016102b8565b610879600182815481106107af576107af612571565b906000526020600020906008020160020183815481106107d1576107d1612571565b9060005260206000200180546107e690612587565b80601f016020809104026020016040519081016040528092919081815260200182805461081290612587565b801561085f5780601f106108345761010080835404028352916020019161085f565b820191906000526020600020905b81548152906001019060200180831161084257829003601f168201915b505050505060405180602001604052806000815250611169565b6108b55760405162461bcd60e51b815260206004820152600d60248201526c125b9d985b1a59081a5b9c1d5d609a1b60448201526064016102b8565b610984600182815481106108cb576108cb612571565b906000526020600020906008020160010180546108e790612587565b80601f016020809104026020016040519081016040528092919081815260200182805461091390612587565b80156109605780601f1061093557610100808354040283529160200191610960565b820191906000526020600020905b81548152906001019060200180831161094357829003601f168201915b5050505050604051806040016040528060018152602001600b60fb1b815250611169565b15610a03576001818154811061099c5761099c612571565b60009182526020909120600890910201600401546001600160a01b031633146109fe5760405162461bcd60e51b8152602060048201526014602482015273596f7520617265206e6f7420706c61796572203160601b60448201526064016102b8565b610a78565b60018181548110610a1657610a16612571565b60009182526020909120600890910201600501546001600160a01b03163314610a785760405162461bcd60e51b81526020600482015260146024820152732cb7ba9030b932903737ba10383630bcb2b9101960611b60448201526064016102b8565b60018181548110610a8b57610a8b612571565b906000526020600020906008020160010160018281548110610aaf57610aaf612571565b90600052602060002090600802016002018381548110610ad157610ad1612571565b906000526020600020019081610ae791906126d0565b507f9659242f3970136bf08cba261398ae9f0bc58a676137d79d3c2040dcdacbc18b60018281548110610b1c57610b1c612571565b906000526020600020906008020160020182604051610b3c929190612881565b60405180910390a1610b4d816116ea565b5050565b60018181548110610b6157600080fd5b60009182526020909120600890910201805460018201805460ff909216935090610b8a90612587565b80601f0160208091040260200160405190810160405280929190818152602001828054610bb690612587565b8015610c035780601f10610bd857610100808354040283529160200191610c03565b820191906000526020600020905b815481529060010190602001808311610be657829003601f168201915b50505060048401546005850154600686015460079096015494956001600160a01b0392831695918316945092501686565b610c3c611fd3565b60018054808201825560009190915281517fb10e2d527612073b26eecdfd717e6a320cf44b4afac2b0732d9fcbe2b7fa0cf66008909202918201805460ff1916911515919091178155602083015183927fb10e2d527612073b26eecdfd717e6a320cf44b4afac2b0732d9fcbe2b7fa0cf70190610cb99082612610565b5060408201518051610cd5916002840191602090910190612035565b5060608201518051610cf191600384019160209091019061207b565b5060808201516004820180546001600160a01b03199081166001600160a01b039384161790915560a0840151600584018054831691841691909117905560c0840151600684015560e09093015160079092018054909316911617905560018054903390610d5e81846128b9565b81548110610d6e57610d6e612571565b6000918252602082206008919091020160040180546001600160a01b0319166001600160a01b0393909316929092179091556001610dac81846128b9565b81548110610dbc57610dbc612571565b60009182526020909120600890910201805460ff1916911515919091179055600180610de881846128b9565b81548110610df857610df8612571565b906000526020600020906008020160060181905550604051806040016040528060018152602001600b60fb1b81525060018083610e3591906128b9565b81548110610e4557610e45612571565b90600052602060002090600802016001019081610e629190612610565b5060005b6009811015610edd576001610e7b81846128b9565b81548110610e8b57610e8b612571565b6000918252602080832060026008909302019190910180546001810182559083528183206040805193840190529282529190910190610eca9082612610565b5080610ed5816128cc565b915050610e66565b507fbbba82573073a1190d559566d39447b5e1ad7724b88b63bc98867d229a645b6b610f0a6001836128b9565b60405190815260200160405180910390a15050565b610f27611fd3565b60018281548110610f3a57610f3a612571565b6000918252602091829020604080516101008101909152600890920201805460ff16151582526001810180549293919291840191610f7790612587565b80601f0160208091040260200160405190810160405280929190818152602001828054610fa390612587565b8015610ff05780601f10610fc557610100808354040283529160200191610ff0565b820191906000526020600020905b815481529060010190602001808311610fd357829003601f168201915b5050505050815260200160028201805480602002602001604051908101604052809291908181526020016000905b828210156110ca57838290600052602060002001805461103d90612587565b80601f016020809104026020016040519081016040528092919081815260200182805461106990612587565b80156110b65780601f1061108b576101008083540402835291602001916110b6565b820191906000526020600020905b81548152906001019060200180831161109957829003601f168201915b50505050508152602001906001019061101e565b5050505081526020016003820180548060200260200160405190810160405280929190818152602001828054801561112157602002820191906000526020600020905b81548152602001906001019080831161110d575b505050918352505060048201546001600160a01b0390811660208301526005830154811660408301526006830154606083015260079092015490911660809091015292915050565b60008160405160200161117c91906128e5565b60405160208183030381529060405280519060200120836040516020016111a391906128e5565b604051602081830303815290604052805190602001201490505b92915050565b6060600182815481106111d8576111d8612571565b9060005260206000209060080201600201805480602002602001604051908101604052809291908181526020016000905b828210156112b557838290600052602060002001805461122890612587565b80601f016020809104026020016040519081016040528092919081815260200182805461125490612587565b80156112a15780601f10611276576101008083540402835291602001916112a1565b820191906000526020600020905b81548152906001019060200180831161128457829003601f168201915b505050505081526020019060010190611209565b505050509050919050565b600080546040516370a0823160e01b8152739163f6f9a843827ab2fc1b0fbd95b7ef7776312960048201526001600160a01b03909116906370a0823190602401602060405180830381865afa15801561131d573d6000803e3d6000fd5b505050506040513d601f19601f820116820180604052508101906113419190612901565b905090565b6001818154811061135957611359612571565b90600052602060002090600802016006015460010361157f576001818154811061138557611385612571565b60009182526020909120600460089092020101546001600160a01b031633036113fc5760405162461bcd60e51b8152602060048201526024808201527f4572726f723a20596f752063616e6e6f7420706c6179207769746820796f757260448201526339b2b63360e11b60648201526084016102b8565b336001828154811061141057611410612571565b906000526020600020906008020160050160006101000a8154816001600160a01b0302191690836001600160a01b0316021790555060026001828154811061145a5761145a612571565b906000526020600020906008020160060181905550600180828154811061148357611483612571565b906000526020600020906008020160000160006101000a81548160ff0219169083151502179055507f2f78808c539fd07cb45456a5d5561c76d3d4005246faccb297481e511abc321a600182815481106114df576114df612571565b906000526020600020906008020160040160009054906101000a90046001600160a01b03166001838154811061151757611517612571565b60009182526020918290206005600892909202010154604080516080808252600b908201526a53746172742067616d652160a81b60a08201526001600160a01b03948516938101939093529216818301526060810184905290519081900360c00190a1611619565b6001818154811061159257611592612571565b9060005260206000209060080201600601546002146116195760405162461bcd60e51b815260206004820152603e60248201527f4e6f772071756575652069732066756c6c2c20747279206c617465722e20476160448201527f6d6520616c72656164792066756c6c20706c73206a6f696e206f74686572000060648201526084016102b8565b7fe5fec41b03dea13e32365d514866799a1ea13b31ed7df1eed2092b1dbdb7abe76001828154811061164d5761164d612571565b90600052602060002090600802018260405161071b92919061294f565b60006001828154811061167f5761167f612571565b60009182526020909120600890910201600401546001600160a01b03163314806116d75750600182815481106116b7576116b7612571565b60009182526020909120600890910201600501546001600160a01b031633145b6116e25760006111bd565b600192915050565b6000805b600254811015611c1d5760006002828154811061170d5761170d612571565b9060005260206000200180548060200260200160405190810160405280929190818152602001828054801561176157602002820191906000526020600020905b81548152602001906001019080831161174d575b5050505050905060006001858154811061177d5761177d612571565b9060005260206000209060080201600201826000815181106117a1576117a1612571565b6020026020010151815481106117b9576117b9612571565b9060005260206000200180546117ce90612587565b80601f01602080910402602001604051908101604052809291908181526020018280546117fa90612587565b80156118475780601f1061181c57610100808354040283529160200191611847565b820191906000526020600020905b81548152906001019060200180831161182a57829003601f168201915b5050505050905060006001868154811061186357611863612571565b90600052602060002090600802016002018360018151811061188757611887612571565b60200260200101518154811061189f5761189f612571565b9060005260206000200180546118b490612587565b80601f01602080910402602001604051908101604052809291908181526020018280546118e090612587565b801561192d5780601f106119025761010080835404028352916020019161192d565b820191906000526020600020905b81548152906001019060200180831161191057829003601f168201915b5050505050905060006001878154811061194957611949612571565b90600052602060002090600802016002018460028151811061196d5761196d612571565b60200260200101518154811061198557611985612571565b90600052602060002001805461199a90612587565b80601f01602080910402602001604051908101604052809291908181526020018280546119c690612587565b8015611a135780601f106119e857610100808354040283529160200191611a13565b820191906000526020600020905b8154815290600101906020018083116119f657829003601f168201915b50505050509050611a338360405180602001604052806000815250611169565b80611a525750611a528260405180602001604052806000815250611169565b80611a715750611a718160405180602001604052806000815250611169565b15611a7f5750505050611c0b565b611a898383611169565b8015611a9a5750611a9a8282611169565b15611c06578360018881548110611ab357611ab3612571565b90600052602060002090600802016003019080519060200190611ad792919061207b565b50611aee600188815481106108cb576108cb612571565b15611b785760018781548110611b0657611b06612571565b906000526020600020906008020160040160009054906101000a90046001600160a01b031660018881548110611b3e57611b3e612571565b906000526020600020906008020160070160006101000a8154816001600160a01b0302191690836001600160a01b03160217905550611bf9565b60018781548110611b8b57611b8b612571565b906000526020600020906008020160050160009054906101000a90046001600160a01b031660018881548110611bc357611bc3612571565b906000526020600020906008020160070160006101000a8154816001600160a01b0302191690836001600160a01b031602179055505b6001955050505050611c1d565b505050505b80611c15816128cc565b9150506116ee565b508015611cb8577f938a1c44580c51d01225d61fb97878104148b1cdc734eb45bc5b5b50533a492d60018381548110611c5857611c58612571565b906000526020600020906008020160010183604051611c78929190612a0e565b60405180910390a1600060018381548110611c9557611c95612571565b60009182526020909120600890910201805460ff19169115159190911790555050565b611cc182611d1d565b15611d145760408051818152600491810191909152634472617760e01b6060820152602081018390527f938a1c44580c51d01225d61fb97878104148b1cdc734eb45bc5b5b50533a492d90608001611c78565b610b4d82611db1565b6000805b60018381548110611d3457611d34612571565b906000526020600020906008020160020180549050811015611da857611d8860018481548110611d6657611d66612571565b906000526020600020906008020160020182815481106107d1576107d1612571565b15611d965750600092915050565b80611da0816128cc565b915050611d21565b50600192915050565b611dc7600182815481106108cb576108cb612571565b15611e3a577feefc3fd775b975165c9d067e02fcd5bf5889d58041ae6ddaf94f2cc85300727260018281548110611e0057611e00612571565b600091825260209182902060089091020160050154604080516001600160a01b0390921682529181018490520160405180910390a1611ea4565b7feefc3fd775b975165c9d067e02fcd5bf5889d58041ae6ddaf94f2cc85300727260018281548110611e6e57611e6e612571565b600091825260209182902060089091020160040154604080516001600160a01b0390921682529181018490520160405180910390a15b611eba600182815481106108cb576108cb612571565b611edd57604051806040016040528060018152602001600b60fb1b815250611ef8565b604051806040016040528060018152602001604f60f81b8152505b60018281548110611f0b57611f0b612571565b90600052602060002090600802016001019081611f289190612610565b507fa6d1cb5f730b987124c37c3876130fddba49456449948ec4257360f5ab2851c060018281548110611f5d57611f5d612571565b90600052602060002090600802016001018260405161071b929190612a0e565b828054828255906000526020600020908101928215611fc3579160200282015b82811115611fc35782518290611fb39082612610565b5091602001919060010190611f9d565b50611fcf9291506120c2565b5090565b60405180610100016040528060001515815260200160608152602001606081526020016060815260200160006001600160a01b0316815260200160006001600160a01b031681526020016000815260200160006001600160a01b031681525090565b828054828255906000526020600020908101928215611fc3579160200282015b82811115611fc3578251829061206b9082612610565b5091602001919060010190612055565b8280548282559060005260206000209081019282156120b6579160200282015b828111156120b657825182559160200191906001019061209b565b50611fcf9291506120df565b80821115611fcf5760006120d682826120f4565b506001016120c2565b5b80821115611fcf57600081556001016120e0565b50805461210090612587565b6000825580601f10612110575050565b601f01602090049060005260206000209081019061033391906120df565b60006020828403121561214057600080fd5b5035919050565b6020808252825182820181905260009190848201906040850190845b8181101561217f57835183529284019291840191600101612163565b50909695505050505050565b60005b838110156121a657818101518382015260200161218e565b50506000910152565b600081518084526121c781602086016020860161218b565b601f01601f19169290920160200192915050565b600082825180855260208086019550808260051b84010181860160005b8481101561222657601f198684030189526122148383516121af565b988401989250908301906001016121f8565b5090979650505050505050565b600081518084526020808501945080840160005b8381101561226357815187529582019590820190600101612247565b509495945050505050565b60006101008251151584526020830151816020860152612290828601826121af565b915050604083015184820360408601526122aa82826121db565b915050606083015184820360608601526122c48282612233565b91505060808301516122e160808601826001600160a01b03169052565b5060a08301516122fc60a08601826001600160a01b03169052565b5060c083015160c085015260e083015161232160e08601826001600160a01b03169052565b509392505050565b6000602080830181845280855180835260408601915060408160051b870101925083870160005b8281101561237e57603f1988860301845261236c85835161226e565b94509285019290850190600101612350565b5092979650505050505050565b6000806040838503121561239e57600080fd5b50508035926020909101359150565b861515815260c0602082015260006123c860c08301886121af565b6001600160a01b039687166040840152948616606083015250608081019290925290921660a09092019190915292915050565b60208152600061240e602083018461226e565b9392505050565b634e487b7160e01b600052604160045260246000fd5b600082601f83011261243c57600080fd5b813567ffffffffffffffff8082111561245757612457612415565b604051601f8301601f19908116603f0116810190828211818310171561247f5761247f612415565b8160405283815286602085880101111561249857600080fd5b836020870160208301376000602085830101528094505050505092915050565b600080604083850312156124cb57600080fd5b823567ffffffffffffffff808211156124e357600080fd5b6124ef8683870161242b565b9350602085013591508082111561250557600080fd5b506125128582860161242b565b9150509250929050565b6000602080830181845280855180835260408601915060408160051b870101925083870160005b8281101561237e57603f1988860301845261255f8583516121af565b94509285019290850190600101612543565b634e487b7160e01b600052603260045260246000fd5b600181811c9082168061259b57607f821691505b6020821081036125bb57634e487b7160e01b600052602260045260246000fd5b50919050565b601f82111561260b57600081815260208120601f850160051c810160208610156125e85750805b601f850160051c820191505b81811015612607578281556001016125f4565b5050505b505050565b815167ffffffffffffffff81111561262a5761262a612415565b61263e816126388454612587565b846125c1565b602080601f831160018114612673576000841561265b5750858301515b600019600386901b1c1916600185901b178555612607565b600085815260208120601f198616915b828110156126a257888601518255948401946001909101908401612683565b50858210156126c05787850151600019600388901b60f8161c191681555b5050505050600190811b01905550565b8181036126db575050565b6126e58254612587565b67ffffffffffffffff8111156126fd576126fd612415565b61270b816126388454612587565b6000601f82116001811461273f57600083156127275750848201545b600019600385901b1c1916600184901b1784556127a4565b600085815260209020601f19841690600086815260209020845b838110156127795782860154825560019586019590910190602001612759565b50858310156127975781850154600019600388901b60f8161c191681555b50505060018360011b0184555b5050505050565b600081546127b881612587565b8085526020600183811680156127d557600181146127ef5761281d565b60ff1985168884015283151560051b88018301955061281d565b866000528260002060005b858110156128155781548a82018601529083019084016127fa565b890184019650505b505050505092915050565b600081548084526020808501808196508360051b81019150856000528260002060005b8581101561287457828403895261286284836127ab565b9885019893506001918201910161284b565b5091979650505050505050565b6040815260006128946040830185612828565b90508260208301529392505050565b634e487b7160e01b600052601160045260246000fd5b818103818111156111bd576111bd6128a3565b6000600182016128de576128de6128a3565b5060010190565b600082516128f781846020870161218b565b9190910192915050565b60006020828403121561291357600080fd5b5051919050565b6000815480845260208085019450836000528060002060005b8381101561226357815487529582019560019182019101612933565b6040815261296b60408201612965855460ff1690565b15159052565b60006101008060608401526129876101408401600187016127ab565b603f19808583030160808601526129a18260028901612828565b9150808583030160a0860152506129bb816003880161291a565b90506129d160048701546001600160a01b031690565b6001600160a01b0390811660c08601526005870154811660e086015260068701549285019290925260079095015416610120830152506020015290565b60408152600061289460408301856127ab56fea2646970667358221220c0f5bad35a9eb0ca9d7d26cfa7a92364217c6699e394ceacad29700793b77ff564736f6c63430008130033",
					"opcodes": "PUSH1 0x0 DUP1 SLOAD PUSH1 0x1 PUSH1 0x1 PUSH1 0xA0 SHL SUB NOT AND PUSH20 0xC6BDDCD0DA1C50281F02A57B8D2ADA2EBF76AEC7 OR DUP2 SSTORE PUSH2 0x180 DUP2 DUP2 MSTORE PUSH1 0x1 PUSH2 0x1A0 DUP2 SWAP1 MSTORE PUSH1 0x2 PUSH2 0x1C0 DUP2 SWAP1 MSTORE PUSH1 0x80 SWAP3 DUP4 MSTORE PUSH1 0x3 PUSH2 0x1E0 DUP2 DUP2 MSTORE PUSH1 0x4 PUSH2 0x200 DUP2 SWAP1 MSTORE PUSH1 0x5 PUSH2 0x220 DUP2 SWAP1 MSTORE PUSH1 0xA0 SWAP3 SWAP1 SWAP3 MSTORE PUSH1 0x6 PUSH2 0x240 DUP2 DUP2 MSTORE PUSH1 0x7 PUSH2 0x260 DUP2 SWAP1 MSTORE PUSH1 0x8 PUSH2 0x280 DUP2 SWAP1 MSTORE PUSH1 0xC0 SWAP3 SWAP1 SWAP3 MSTORE PUSH2 0x2A0 DUP11 DUP2 MSTORE PUSH2 0x2C0 SWAP7 SWAP1 SWAP7 MSTORE PUSH2 0x2E0 DUP4 SWAP1 MSTORE PUSH1 0xE0 SWAP6 SWAP1 SWAP6 MSTORE PUSH2 0x300 SWAP7 DUP8 MSTORE PUSH2 0x320 DUP4 SWAP1 MSTORE PUSH2 0x340 SWAP5 SWAP1 SWAP5 MSTORE PUSH2 0x100 SWAP6 SWAP1 SWAP6 MSTORE PUSH2 0x360 DUP5 DUP2 MSTORE PUSH2 0x380 SWAP3 SWAP1 SWAP3 MSTORE PUSH2 0x3A0 DUP4 SWAP1 MSTORE PUSH2 0x120 SWAP2 SWAP1 SWAP2 MSTORE PUSH2 0x3C0 SWAP6 DUP7 MSTORE PUSH2 0x3E0 DUP2 SWAP1 MSTORE PUSH2 0x400 DUP3 SWAP1 MSTORE PUSH2 0x140 SWAP6 SWAP1 SWAP6 MSTORE PUSH2 0x480 PUSH1 0x40 MSTORE PUSH2 0x420 DUP3 DUP2 MSTORE PUSH2 0x440 SWAP6 SWAP1 SWAP6 MSTORE PUSH2 0x460 SWAP3 SWAP1 SWAP3 MSTORE PUSH2 0x160 SWAP4 SWAP1 SWAP4 MSTORE PUSH3 0x110 SWAP3 SWAP2 SWAP1 PUSH3 0x125 JUMP JUMPDEST POP CALLVALUE DUP1 ISZERO PUSH3 0x11E JUMPI PUSH1 0x0 DUP1 REVERT JUMPDEST POP PUSH3 0x22F JUMP JUMPDEST DUP3 DUP1 SLOAD DUP3 DUP3 SSTORE SWAP1 PUSH1 0x0 MSTORE PUSH1 0x20 PUSH1 0x0 KECCAK256 SWAP1 DUP2 ADD SWAP3 DUP3 ISZERO PUSH3 0x171 JUMPI SWAP2 PUSH1 0x20 MUL DUP3 ADD JUMPDEST DUP3 DUP2 GT ISZERO PUSH3 0x171 JUMPI DUP3 MLOAD PUSH3 0x160 SWAP1 DUP4 SWAP1 PUSH1 0x3 PUSH3 0x183 JUMP JUMPDEST POP SWAP2 PUSH1 0x20 ADD SWAP2 SWAP1 PUSH1 0x1 ADD SWAP1 PUSH3 0x146 JUMP JUMPDEST POP PUSH3 0x17F SWAP3 SWAP2 POP PUSH3 0x1D4 JUMP JUMPDEST POP SWAP1 JUMP JUMPDEST DUP3 DUP1 SLOAD DUP3 DUP3 SSTORE SWAP1 PUSH1 0x0 MSTORE PUSH1 0x20 PUSH1 0x0 KECCAK256 SWAP1 DUP2 ADD SWAP3 DUP3 ISZERO PUSH3 0x1C6 JUMPI SWAP2 PUSH1 0x20 MUL DUP3 ADD JUMPDEST DUP3 DUP2 GT ISZERO PUSH3 0x1C6 JUMPI DUP3 MLOAD DUP3 SWAP1 PUSH1 0xFF AND SWAP1 SSTORE SWAP2 PUSH1 0x20 ADD SWAP2 SWAP1 PUSH1 0x1 ADD SWAP1 PUSH3 0x1A4 JUMP JUMPDEST POP PUSH3 0x17F SWAP3 SWAP2 POP PUSH3 0x1F5 JUMP JUMPDEST DUP1 DUP3 GT ISZERO PUSH3 0x17F JUMPI PUSH1 0x0 PUSH3 0x1EB DUP3 DUP3 PUSH3 0x20C JUMP JUMPDEST POP PUSH1 0x1 ADD PUSH3 0x1D4 JUMP JUMPDEST JUMPDEST DUP1 DUP3 GT ISZERO PUSH3 0x17F JUMPI PUSH1 0x0 DUP2 SSTORE PUSH1 0x1 ADD PUSH3 0x1F6 JUMP JUMPDEST POP DUP1 SLOAD PUSH1 0x0 DUP3 SSTORE SWAP1 PUSH1 0x0 MSTORE PUSH1 0x20 PUSH1 0x0 KECCAK256 SWAP1 DUP2 ADD SWAP1 PUSH3 0x22C SWAP2 SWAP1 PUSH3 0x1F5 JUMP JUMPDEST POP JUMP JUMPDEST PUSH2 0x2A57 DUP1 PUSH3 0x23F PUSH1 0x0 CODECOPY PUSH1 0x0 RETURN INVALID PUSH1 0x80 PUSH1 0x40 MSTORE CALLVALUE DUP1 ISZERO PUSH2 0x10 JUMPI PUSH1 0x0 DUP1 REVERT JUMPDEST POP PUSH1 0x4 CALLDATASIZE LT PUSH2 0xB4 JUMPI PUSH1 0x0 CALLDATALOAD PUSH1 0xE0 SHR DUP1 PUSH4 0x97CA20BF GT PUSH2 0x71 JUMPI DUP1 PUSH4 0x97CA20BF EQ PUSH2 0x157 JUMPI DUP1 PUSH4 0xB2182BE4 EQ PUSH2 0x15F JUMPI DUP1 PUSH4 0xBED34BBA EQ PUSH2 0x17F JUMPI DUP1 PUSH4 0xDC572C6E EQ PUSH2 0x1A2 JUMPI DUP1 PUSH4 0xE8E37354 EQ PUSH2 0x1C2 JUMPI DUP1 PUSH4 0xEFAA55A0 EQ PUSH2 0x1D8 JUMPI PUSH1 0x0 DUP1 REVERT JUMPDEST DUP1 PUSH4 0x17B44960 EQ PUSH2 0xB9 JUMPI DUP1 PUSH4 0x34FD3518 EQ PUSH2 0xE2 JUMPI DUP1 PUSH4 0x491F0136 EQ PUSH2 0xF7 JUMPI DUP1 PUSH4 0x4A968391 EQ PUSH2 0x10C JUMPI DUP1 PUSH4 0x52BC3410 EQ PUSH2 0x11F JUMPI DUP1 PUSH4 0x87052FAB EQ PUSH2 0x132 JUMPI JUMPDEST PUSH1 0x0 DUP1 REVERT JUMPDEST PUSH2 0xCC PUSH2 0xC7 CALLDATASIZE PUSH1 0x4 PUSH2 0x212E JUMP JUMPDEST PUSH2 0x1EB JUMP JUMPDEST PUSH1 0x40 MLOAD PUSH2 0xD9 SWAP2 SWAP1 PUSH2 0x2147 JUMP JUMPDEST PUSH1 0x40 MLOAD DUP1 SWAP2 SUB SWAP1 RETURN JUMPDEST PUSH2 0xF5 PUSH2 0xF0 CALLDATASIZE PUSH1 0x4 PUSH2 0x212E JUMP JUMPDEST PUSH2 0x267 JUMP JUMPDEST STOP JUMPDEST PUSH2 0xFF PUSH2 0x336 JUMP JUMPDEST PUSH1 0x40 MLOAD PUSH2 0xD9 SWAP2 SWAP1 PUSH2 0x2329 JUMP JUMPDEST PUSH2 0xF5 PUSH2 0x11A CALLDATASIZE PUSH1 0x4 PUSH2 0x212E JUMP JUMPDEST PUSH2 0x5A7 JUMP JUMPDEST PUSH2 0xF5 PUSH2 0x12D CALLDATASIZE PUSH1 0x4 PUSH2 0x238B JUMP JUMPDEST PUSH2 0x726 JUMP JUMPDEST PUSH2 0x145 PUSH2 0x140 CALLDATASIZE PUSH1 0x4 PUSH2 0x212E JUMP JUMPDEST PUSH2 0xB51 JUMP JUMPDEST PUSH1 0x40 MLOAD PUSH2 0xD9 SWAP7 SWAP6 SWAP5 SWAP4 SWAP3 SWAP2 SWAP1 PUSH2 0x23AD JUMP JUMPDEST PUSH2 0xF5 PUSH2 0xC34 JUMP JUMPDEST PUSH2 0x172 PUSH2 0x16D CALLDATASIZE PUSH1 0x4 PUSH2 0x212E JUMP JUMPDEST PUSH2 0xF1F JUMP JUMPDEST PUSH1 0x40 MLOAD PUSH2 0xD9 SWAP2 SWAP1 PUSH2 0x23FB JUMP JUMPDEST PUSH2 0x192 PUSH2 0x18D CALLDATASIZE PUSH1 0x4 PUSH2 0x24B8 JUMP JUMPDEST PUSH2 0x1169 JUMP JUMPDEST PUSH1 0x40 MLOAD SWAP1 ISZERO ISZERO DUP2 MSTORE PUSH1 0x20 ADD PUSH2 0xD9 JUMP JUMPDEST PUSH2 0x1B5 PUSH2 0x1B0 CALLDATASIZE PUSH1 0x4 PUSH2 0x212E JUMP JUMPDEST PUSH2 0x11C3 JUMP JUMPDEST PUSH1 0x40 MLOAD PUSH2 0xD9 SWAP2 SWAP1 PUSH2 0x251C JUMP JUMPDEST PUSH2 0x1CA PUSH2 0x12C0 JUMP JUMPDEST PUSH1 0x40 MLOAD SWAP1 DUP2 MSTORE PUSH1 0x20 ADD PUSH2 0xD9 JUMP JUMPDEST PUSH2 0xF5 PUSH2 0x1E6 CALLDATASIZE PUSH1 0x4 PUSH2 0x212E JUMP JUMPDEST PUSH2 0x1346 JUMP JUMPDEST PUSH1 0x60 PUSH1 0x1 DUP3 DUP2 SLOAD DUP2 LT PUSH2 0x200 JUMPI PUSH2 0x200 PUSH2 0x2571 JUMP JUMPDEST SWAP1 PUSH1 0x0 MSTORE PUSH1 0x20 PUSH1 0x0 KECCAK256 SWAP1 PUSH1 0x8 MUL ADD PUSH1 0x3 ADD DUP1 SLOAD DUP1 PUSH1 0x20 MUL PUSH1 0x20 ADD PUSH1 0x40 MLOAD SWAP1 DUP2 ADD PUSH1 0x40 MSTORE DUP1 SWAP3 SWAP2 SWAP1 DUP2 DUP2 MSTORE PUSH1 0x20 ADD DUP3 DUP1 SLOAD DUP1 ISZERO PUSH2 0x25B JUMPI PUSH1 0x20 MUL DUP3 ADD SWAP2 SWAP1 PUSH1 0x0 MSTORE PUSH1 0x20 PUSH1 0x0 KECCAK256 SWAP1 JUMPDEST DUP2 SLOAD DUP2 MSTORE PUSH1 0x20 ADD SWAP1 PUSH1 0x1 ADD SWAP1 DUP1 DUP4 GT PUSH2 0x247 JUMPI JUMPDEST POP POP POP POP POP SWAP1 POP SWAP2 SWAP1 POP JUMP JUMPDEST PUSH2 0x270 DUP2 PUSH2 0x166A JUMP JUMPDEST PUSH2 0x2C1 JUMPI PUSH1 0x40 MLOAD PUSH3 0x461BCD PUSH1 0xE5 SHL DUP2 MSTORE PUSH1 0x20 PUSH1 0x4 DUP3 ADD MSTORE PUSH1 0x1C PUSH1 0x24 DUP3 ADD MSTORE PUSH32 0x796F7520617265206E6F7420746869732067616D6520706C6179657200000000 PUSH1 0x44 DUP3 ADD MSTORE PUSH1 0x64 ADD JUMPDEST PUSH1 0x40 MLOAD DUP1 SWAP2 SUB SWAP1 REVERT JUMPDEST PUSH1 0x1 DUP2 DUP2 SLOAD DUP2 LT PUSH2 0x2D4 JUMPI PUSH2 0x2D4 PUSH2 0x2571 JUMP JUMPDEST PUSH1 0x0 SWAP2 DUP3 MSTORE PUSH1 0x20 SWAP1 SWAP2 KECCAK256 PUSH1 0x8 SWAP1 SWAP2 MUL ADD SLOAD PUSH1 0xFF AND ISZERO PUSH2 0x32A JUMPI PUSH1 0x40 MLOAD PUSH3 0x461BCD PUSH1 0xE5 SHL DUP2 MSTORE PUSH1 0x20 PUSH1 0x4 DUP3 ADD MSTORE PUSH1 0x12 PUSH1 0x24 DUP3 ADD MSTORE PUSH18 0x47616D65207374696C6C20706C6179696E67 PUSH1 0x70 SHL PUSH1 0x44 DUP3 ADD MSTORE PUSH1 0x64 ADD PUSH2 0x2B8 JUMP JUMPDEST PUSH2 0x333 DUP2 PUSH2 0x5A7 JUMP JUMPDEST POP JUMP JUMPDEST PUSH1 0x60 PUSH1 0x1 DUP1 SLOAD DUP1 PUSH1 0x20 MUL PUSH1 0x20 ADD PUSH1 0x40 MLOAD SWAP1 DUP2 ADD PUSH1 0x40 MSTORE DUP1 SWAP3 SWAP2 SWAP1 DUP2 DUP2 MSTORE PUSH1 0x20 ADD PUSH1 0x0 SWAP1 JUMPDEST DUP3 DUP3 LT ISZERO PUSH2 0x59E JUMPI PUSH1 0x0 DUP5 DUP2 MSTORE PUSH1 0x20 SWAP1 DUP2 SWAP1 KECCAK256 PUSH1 0x40 DUP1 MLOAD PUSH2 0x100 DUP2 ADD SWAP1 SWAP2 MSTORE PUSH1 0x8 DUP6 MUL SWAP1 SWAP2 ADD DUP1 SLOAD PUSH1 0xFF AND ISZERO ISZERO DUP3 MSTORE PUSH1 0x1 DUP2 ADD DUP1 SLOAD SWAP3 SWAP4 SWAP2 SWAP3 SWAP2 DUP5 ADD SWAP2 PUSH2 0x3A0 SWAP1 PUSH2 0x2587 JUMP JUMPDEST DUP1 PUSH1 0x1F ADD PUSH1 0x20 DUP1 SWAP2 DIV MUL PUSH1 0x20 ADD PUSH1 0x40 MLOAD SWAP1 DUP2 ADD PUSH1 0x40 MSTORE DUP1 SWAP3 SWAP2 SWAP1 DUP2 DUP2 MSTORE PUSH1 0x20 ADD DUP3 DUP1 SLOAD PUSH2 0x3CC SWAP1 PUSH2 0x2587 JUMP JUMPDEST DUP1 ISZERO PUSH2 0x419 JUMPI DUP1 PUSH1 0x1F LT PUSH2 0x3EE JUMPI PUSH2 0x100 DUP1 DUP4 SLOAD DIV MUL DUP4 MSTORE SWAP2 PUSH1 0x20 ADD SWAP2 PUSH2 0x419 JUMP JUMPDEST DUP3 ADD SWAP2 SWAP1 PUSH1 0x0 MSTORE PUSH1 0x20 PUSH1 0x0 KECCAK256 SWAP1 JUMPDEST DUP2 SLOAD DUP2 MSTORE SWAP1 PUSH1 0x1 ADD SWAP1 PUSH1 0x20 ADD DUP1 DUP4 GT PUSH2 0x3FC JUMPI DUP3 SWAP1 SUB PUSH1 0x1F AND DUP3 ADD SWAP2 JUMPDEST POP POP POP POP POP DUP2 MSTORE PUSH1 0x20 ADD PUSH1 0x2 DUP3 ADD DUP1 SLOAD DUP1 PUSH1 0x20 MUL PUSH1 0x20 ADD PUSH1 0x40 MLOAD SWAP1 DUP2 ADD PUSH1 0x40 MSTORE DUP1 SWAP3 SWAP2 SWAP1 DUP2 DUP2 MSTORE PUSH1 0x20 ADD PUSH1 0x0 SWAP1 JUMPDEST DUP3 DUP3 LT ISZERO PUSH2 0x4F3 JUMPI DUP4 DUP3 SWAP1 PUSH1 0x0 MSTORE PUSH1 0x20 PUSH1 0x0 KECCAK256 ADD DUP1 SLOAD PUSH2 0x466 SWAP1 PUSH2 0x2587 JUMP JUMPDEST DUP1 PUSH1 0x1F ADD PUSH1 0x20 DUP1 SWAP2 DIV MUL PUSH1 0x20 ADD PUSH1 0x40 MLOAD SWAP1 DUP2 ADD PUSH1 0x40 MSTORE DUP1 SWAP3 SWAP2 SWAP1 DUP2 DUP2 MSTORE PUSH1 0x20 ADD DUP3 DUP1 SLOAD PUSH2 0x492 SWAP1 PUSH2 0x2587 JUMP JUMPDEST DUP1 ISZERO PUSH2 0x4DF JUMPI DUP1 PUSH1 0x1F LT PUSH2 0x4B4 JUMPI PUSH2 0x100 DUP1 DUP4 SLOAD DIV MUL DUP4 MSTORE SWAP2 PUSH1 0x20 ADD SWAP2 PUSH2 0x4DF JUMP JUMPDEST DUP3 ADD SWAP2 SWAP1 PUSH1 0x0 MSTORE PUSH1 0x20 PUSH1 0x0 KECCAK256 SWAP1 JUMPDEST DUP2 SLOAD DUP2 MSTORE SWAP1 PUSH1 0x1 ADD SWAP1 PUSH1 0x20 ADD DUP1 DUP4 GT PUSH2 0x4C2 JUMPI DUP3 SWAP1 SUB PUSH1 0x1F AND DUP3 ADD SWAP2 JUMPDEST POP POP POP POP POP DUP2 MSTORE PUSH1 0x20 ADD SWAP1 PUSH1 0x1 ADD SWAP1 PUSH2 0x447 JUMP JUMPDEST POP POP POP POP DUP2 MSTORE PUSH1 0x20 ADD PUSH1 0x3 DUP3 ADD DUP1 SLOAD DUP1 PUSH1 0x20 MUL PUSH1 0x20 ADD PUSH1 0x40 MLOAD SWAP1 DUP2 ADD PUSH1 0x40 MSTORE DUP1 SWAP3 SWAP2 SWAP1 DUP2 DUP2 MSTORE PUSH1 0x20 ADD DUP3 DUP1 SLOAD DUP1 ISZERO PUSH2 0x54A JUMPI PUSH1 0x20 MUL DUP3 ADD SWAP2 SWAP1 PUSH1 0x0 MSTORE PUSH1 0x20 PUSH1 0x0 KECCAK256 SWAP1 JUMPDEST DUP2 SLOAD DUP2 MSTORE PUSH1 0x20 ADD SWAP1 PUSH1 0x1 ADD SWAP1 DUP1 DUP4 GT PUSH2 0x536 JUMPI JUMPDEST POP POP POP SWAP2 DUP4 MSTORE POP POP PUSH1 0x4 DUP3 ADD SLOAD PUSH1 0x1 PUSH1 0x1 PUSH1 0xA0 SHL SUB SWAP1 DUP2 AND PUSH1 0x20 DUP1 DUP5 ADD SWAP2 SWAP1 SWAP2 MSTORE PUSH1 0x5 DUP5 ADD SLOAD DUP3 AND PUSH1 0x40 DUP5 ADD MSTORE PUSH1 0x6 DUP5 ADD SLOAD PUSH1 0x60 DUP5 ADD MSTORE PUSH1 0x7 SWAP1 SWAP4 ADD SLOAD AND PUSH1 0x80 SWAP1 SWAP2 ADD MSTORE SWAP1 DUP3 MSTORE PUSH1 0x1 SWAP3 SWAP1 SWAP3 ADD SWAP2 ADD PUSH2 0x35A JUMP JUMPDEST POP POP POP POP SWAP1 POP SWAP1 JUMP JUMPDEST PUSH1 0x40 MLOAD DUP1 PUSH1 0x40 ADD PUSH1 0x40 MSTORE DUP1 PUSH1 0x1 DUP2 MSTORE PUSH1 0x20 ADD PUSH1 0xB PUSH1 0xFB SHL DUP2 MSTORE POP PUSH1 0x1 DUP3 DUP2 SLOAD DUP2 LT PUSH2 0x5D4 JUMPI PUSH2 0x5D4 PUSH2 0x2571 JUMP JUMPDEST SWAP1 PUSH1 0x0 MSTORE PUSH1 0x20 PUSH1 0x0 KECCAK256 SWAP1 PUSH1 0x8 MUL ADD PUSH1 0x1 ADD SWAP1 DUP2 PUSH2 0x5F1 SWAP2 SWAP1 PUSH2 0x2610 JUMP JUMPDEST POP PUSH1 0x40 DUP1 MLOAD PUSH2 0x140 DUP2 ADD DUP3 MSTORE PUSH1 0x0 PUSH2 0x120 DUP3 ADD DUP2 DUP2 MSTORE DUP3 MSTORE DUP3 MLOAD PUSH1 0x20 DUP2 DUP2 ADD DUP6 MSTORE DUP3 DUP3 MSTORE DUP1 DUP5 ADD SWAP2 SWAP1 SWAP2 MSTORE DUP4 MLOAD DUP1 DUP3 ADD DUP6 MSTORE DUP3 DUP2 MSTORE DUP4 DUP6 ADD MSTORE DUP4 MLOAD DUP1 DUP3 ADD DUP6 MSTORE DUP3 DUP2 MSTORE PUSH1 0x60 DUP5 ADD MSTORE DUP4 MLOAD DUP1 DUP3 ADD DUP6 MSTORE DUP3 DUP2 MSTORE PUSH1 0x80 DUP5 ADD MSTORE DUP4 MLOAD DUP1 DUP3 ADD DUP6 MSTORE DUP3 DUP2 MSTORE PUSH1 0xA0 DUP5 ADD MSTORE DUP4 MLOAD DUP1 DUP3 ADD DUP6 MSTORE DUP3 DUP2 MSTORE PUSH1 0xC0 DUP5 ADD MSTORE DUP4 MLOAD DUP1 DUP3 ADD DUP6 MSTORE DUP3 DUP2 MSTORE PUSH1 0xE0 DUP5 ADD MSTORE DUP4 MLOAD SWAP1 DUP2 ADD SWAP1 SWAP4 MSTORE DUP3 MSTORE PUSH2 0x100 DUP2 ADD SWAP2 SWAP1 SWAP2 MSTORE PUSH1 0x1 DUP1 SLOAD DUP4 SWAP1 DUP2 LT PUSH2 0x69C JUMPI PUSH2 0x69C PUSH2 0x2571 JUMP JUMPDEST SWAP1 PUSH1 0x0 MSTORE PUSH1 0x20 PUSH1 0x0 KECCAK256 SWAP1 PUSH1 0x8 MUL ADD PUSH1 0x2 ADD SWAP1 PUSH1 0x9 PUSH2 0x6BB SWAP3 SWAP2 SWAP1 PUSH2 0x1F7D JUMP JUMPDEST POP PUSH1 0x1 DUP1 DUP3 DUP2 SLOAD DUP2 LT PUSH2 0x6D0 JUMPI PUSH2 0x6D0 PUSH2 0x2571 JUMP JUMPDEST PUSH1 0x0 SWAP2 DUP3 MSTORE PUSH1 0x20 SWAP2 DUP3 SWAP1 KECCAK256 PUSH1 0x8 SWAP1 SWAP2 MUL ADD DUP1 SLOAD PUSH1 0xFF NOT AND SWAP3 ISZERO ISZERO SWAP3 SWAP1 SWAP3 OR SWAP1 SWAP2 SSTORE PUSH1 0x40 MLOAD DUP3 DUP2 MSTORE PUSH32 0xC5478E3FE602C65E5CDD37ABE42A8E007FF762D266B9E8256769194C1FA1361E SWAP2 ADD JUMPDEST PUSH1 0x40 MLOAD DUP1 SWAP2 SUB SWAP1 LOG1 POP JUMP JUMPDEST PUSH1 0x1 DUP2 DUP2 SLOAD DUP2 LT PUSH2 0x739 JUMPI PUSH2 0x739 PUSH2 0x2571 JUMP JUMPDEST PUSH1 0x0 SWAP2 DUP3 MSTORE PUSH1 0x20 SWAP1 SWAP2 KECCAK256 PUSH1 0x8 SWAP1 SWAP2 MUL ADD SLOAD PUSH1 0xFF AND PUSH2 0x799 JUMPI PUSH1 0x40 MLOAD PUSH3 0x461BCD PUSH1 0xE5 SHL DUP2 MSTORE PUSH1 0x20 PUSH1 0x4 DUP3 ADD MSTORE PUSH1 0x1C PUSH1 0x24 DUP3 ADD MSTORE PUSH32 0x5468652067616D65207374696C6C206E6F742073746172742079657400000000 PUSH1 0x44 DUP3 ADD MSTORE PUSH1 0x64 ADD PUSH2 0x2B8 JUMP JUMPDEST PUSH2 0x879 PUSH1 0x1 DUP3 DUP2 SLOAD DUP2 LT PUSH2 0x7AF JUMPI PUSH2 0x7AF PUSH2 0x2571 JUMP JUMPDEST SWAP1 PUSH1 0x0 MSTORE PUSH1 0x20 PUSH1 0x0 KECCAK256 SWAP1 PUSH1 0x8 MUL ADD PUSH1 0x2 ADD DUP4 DUP2 SLOAD DUP2 LT PUSH2 0x7D1 JUMPI PUSH2 0x7D1 PUSH2 0x2571 JUMP JUMPDEST SWAP1 PUSH1 0x0 MSTORE PUSH1 0x20 PUSH1 0x0 KECCAK256 ADD DUP1 SLOAD PUSH2 0x7E6 SWAP1 PUSH2 0x2587 JUMP JUMPDEST DUP1 PUSH1 0x1F ADD PUSH1 0x20 DUP1 SWAP2 DIV MUL PUSH1 0x20 ADD PUSH1 0x40 MLOAD SWAP1 DUP2 ADD PUSH1 0x40 MSTORE DUP1 SWAP3 SWAP2 SWAP1 DUP2 DUP2 MSTORE PUSH1 0x20 ADD DUP3 DUP1 SLOAD PUSH2 0x812 SWAP1 PUSH2 0x2587 JUMP JUMPDEST DUP1 ISZERO PUSH2 0x85F JUMPI DUP1 PUSH1 0x1F LT PUSH2 0x834 JUMPI PUSH2 0x100 DUP1 DUP4 SLOAD DIV MUL DUP4 MSTORE SWAP2 PUSH1 0x20 ADD SWAP2 PUSH2 0x85F JUMP JUMPDEST DUP3 ADD SWAP2 SWAP1 PUSH1 0x0 MSTORE PUSH1 0x20 PUSH1 0x0 KECCAK256 SWAP1 JUMPDEST DUP2 SLOAD DUP2 MSTORE SWAP1 PUSH1 0x1 ADD SWAP1 PUSH1 0x20 ADD DUP1 DUP4 GT PUSH2 0x842 JUMPI DUP3 SWAP1 SUB PUSH1 0x1F AND DUP3 ADD SWAP2 JUMPDEST POP POP POP POP POP PUSH1 0x40 MLOAD DUP1 PUSH1 0x20 ADD PUSH1 0x40 MSTORE DUP1 PUSH1 0x0 DUP2 MSTORE POP PUSH2 0x1169 JUMP JUMPDEST PUSH2 0x8B5 JUMPI PUSH1 0x40 MLOAD PUSH3 0x461BCD PUSH1 0xE5 SHL DUP2 MSTORE PUSH1 0x20 PUSH1 0x4 DUP3 ADD MSTORE PUSH1 0xD PUSH1 0x24 DUP3 ADD MSTORE PUSH13 0x125B9D985B1A59081A5B9C1D5D PUSH1 0x9A SHL PUSH1 0x44 DUP3 ADD MSTORE PUSH1 0x64 ADD PUSH2 0x2B8 JUMP JUMPDEST PUSH2 0x984 PUSH1 0x1 DUP3 DUP2 SLOAD DUP2 LT PUSH2 0x8CB JUMPI PUSH2 0x8CB PUSH2 0x2571 JUMP JUMPDEST SWAP1 PUSH1 0x0 MSTORE PUSH1 0x20 PUSH1 0x0 KECCAK256 SWAP1 PUSH1 0x8 MUL ADD PUSH1 0x1 ADD DUP1 SLOAD PUSH2 0x8E7 SWAP1 PUSH2 0x2587 JUMP JUMPDEST DUP1 PUSH1 0x1F ADD PUSH1 0x20 DUP1 SWAP2 DIV MUL PUSH1 0x20 ADD PUSH1 0x40 MLOAD SWAP1 DUP2 ADD PUSH1 0x40 MSTORE DUP1 SWAP3 SWAP2 SWAP1 DUP2 DUP2 MSTORE PUSH1 0x20 ADD DUP3 DUP1 SLOAD PUSH2 0x913 SWAP1 PUSH2 0x2587 JUMP JUMPDEST DUP1 ISZERO PUSH2 0x960 JUMPI DUP1 PUSH1 0x1F LT PUSH2 0x935 JUMPI PUSH2 0x100 DUP1 DUP4 SLOAD DIV MUL DUP4 MSTORE SWAP2 PUSH1 0x20 ADD SWAP2 PUSH2 0x960 JUMP JUMPDEST DUP3 ADD SWAP2 SWAP1 PUSH1 0x0 MSTORE PUSH1 0x20 PUSH1 0x0 KECCAK256 SWAP1 JUMPDEST DUP2 SLOAD DUP2 MSTORE SWAP1 PUSH1 0x1 ADD SWAP1 PUSH1 0x20 ADD DUP1 DUP4 GT PUSH2 0x943 JUMPI DUP3 SWAP1 SUB PUSH1 0x1F AND DUP3 ADD SWAP2 JUMPDEST POP POP POP POP POP PUSH1 0x40 MLOAD DUP1 PUSH1 0x40 ADD PUSH1 0x40 MSTORE DUP1 PUSH1 0x1 DUP2 MSTORE PUSH1 0x20 ADD PUSH1 0xB PUSH1 0xFB SHL DUP2 MSTORE POP PUSH2 0x1169 JUMP JUMPDEST ISZERO PUSH2 0xA03 JUMPI PUSH1 0x1 DUP2 DUP2 SLOAD DUP2 LT PUSH2 0x99C JUMPI PUSH2 0x99C PUSH2 0x2571 JUMP JUMPDEST PUSH1 0x0 SWAP2 DUP3 MSTORE PUSH1 0x20 SWAP1 SWAP2 KECCAK256 PUSH1 0x8 SWAP1 SWAP2 MUL ADD PUSH1 0x4 ADD SLOAD PUSH1 0x1 PUSH1 0x1 PUSH1 0xA0 SHL SUB AND CALLER EQ PUSH2 0x9FE JUMPI PUSH1 0x40 MLOAD PUSH3 0x461BCD PUSH1 0xE5 SHL DUP2 MSTORE PUSH1 0x20 PUSH1 0x4 DUP3 ADD MSTORE PUSH1 0x14 PUSH1 0x24 DUP3 ADD MSTORE PUSH20 0x596F7520617265206E6F7420706C617965722031 PUSH1 0x60 SHL PUSH1 0x44 DUP3 ADD MSTORE PUSH1 0x64 ADD PUSH2 0x2B8 JUMP JUMPDEST PUSH2 0xA78 JUMP JUMPDEST PUSH1 0x1 DUP2 DUP2 SLOAD DUP2 LT PUSH2 0xA16 JUMPI PUSH2 0xA16 PUSH2 0x2571 JUMP JUMPDEST PUSH1 0x0 SWAP2 DUP3 MSTORE PUSH1 0x20 SWAP1 SWAP2 KECCAK256 PUSH1 0x8 SWAP1 SWAP2 MUL ADD PUSH1 0x5 ADD SLOAD PUSH1 0x1 PUSH1 0x1 PUSH1 0xA0 SHL SUB AND CALLER EQ PUSH2 0xA78 JUMPI PUSH1 0x40 MLOAD PUSH3 0x461BCD PUSH1 0xE5 SHL DUP2 MSTORE PUSH1 0x20 PUSH1 0x4 DUP3 ADD MSTORE PUSH1 0x14 PUSH1 0x24 DUP3 ADD MSTORE PUSH20 0x2CB7BA9030B932903737BA10383630BCB2B91019 PUSH1 0x61 SHL PUSH1 0x44 DUP3 ADD MSTORE PUSH1 0x64 ADD PUSH2 0x2B8 JUMP JUMPDEST PUSH1 0x1 DUP2 DUP2 SLOAD DUP2 LT PUSH2 0xA8B JUMPI PUSH2 0xA8B PUSH2 0x2571 JUMP JUMPDEST SWAP1 PUSH1 0x0 MSTORE PUSH1 0x20 PUSH1 0x0 KECCAK256 SWAP1 PUSH1 0x8 MUL ADD PUSH1 0x1 ADD PUSH1 0x1 DUP3 DUP2 SLOAD DUP2 LT PUSH2 0xAAF JUMPI PUSH2 0xAAF PUSH2 0x2571 JUMP JUMPDEST SWAP1 PUSH1 0x0 MSTORE PUSH1 0x20 PUSH1 0x0 KECCAK256 SWAP1 PUSH1 0x8 MUL ADD PUSH1 0x2 ADD DUP4 DUP2 SLOAD DUP2 LT PUSH2 0xAD1 JUMPI PUSH2 0xAD1 PUSH2 0x2571 JUMP JUMPDEST SWAP1 PUSH1 0x0 MSTORE PUSH1 0x20 PUSH1 0x0 KECCAK256 ADD SWAP1 DUP2 PUSH2 0xAE7 SWAP2 SWAP1 PUSH2 0x26D0 JUMP JUMPDEST POP PUSH32 0x9659242F3970136BF08CBA261398AE9F0BC58A676137D79D3C2040DCDACBC18B PUSH1 0x1 DUP3 DUP2 SLOAD DUP2 LT PUSH2 0xB1C JUMPI PUSH2 0xB1C PUSH2 0x2571 JUMP JUMPDEST SWAP1 PUSH1 0x0 MSTORE PUSH1 0x20 PUSH1 0x0 KECCAK256 SWAP1 PUSH1 0x8 MUL ADD PUSH1 0x2 ADD DUP3 PUSH1 0x40 MLOAD PUSH2 0xB3C SWAP3 SWAP2 SWAP1 PUSH2 0x2881 JUMP JUMPDEST PUSH1 0x40 MLOAD DUP1 SWAP2 SUB SWAP1 LOG1 PUSH2 0xB4D DUP2 PUSH2 0x16EA JUMP JUMPDEST POP POP JUMP JUMPDEST PUSH1 0x1 DUP2 DUP2 SLOAD DUP2 LT PUSH2 0xB61 JUMPI PUSH1 0x0 DUP1 REVERT JUMPDEST PUSH1 0x0 SWAP2 DUP3 MSTORE PUSH1 0x20 SWAP1 SWAP2 KECCAK256 PUSH1 0x8 SWAP1 SWAP2 MUL ADD DUP1 SLOAD PUSH1 0x1 DUP3 ADD DUP1 SLOAD PUSH1 0xFF SWAP1 SWAP3 AND SWAP4 POP SWAP1 PUSH2 0xB8A SWAP1 PUSH2 0x2587 JUMP JUMPDEST DUP1 PUSH1 0x1F ADD PUSH1 0x20 DUP1 SWAP2 DIV MUL PUSH1 0x20 ADD PUSH1 0x40 MLOAD SWAP1 DUP2 ADD PUSH1 0x40 MSTORE DUP1 SWAP3 SWAP2 SWAP1 DUP2 DUP2 MSTORE PUSH1 0x20 ADD DUP3 DUP1 SLOAD PUSH2 0xBB6 SWAP1 PUSH2 0x2587 JUMP JUMPDEST DUP1 ISZERO PUSH2 0xC03 JUMPI DUP1 PUSH1 0x1F LT PUSH2 0xBD8 JUMPI PUSH2 0x100 DUP1 DUP4 SLOAD DIV MUL DUP4 MSTORE SWAP2 PUSH1 0x20 ADD SWAP2 PUSH2 0xC03 JUMP JUMPDEST DUP3 ADD SWAP2 SWAP1 PUSH1 0x0 MSTORE PUSH1 0x20 PUSH1 0x0 KECCAK256 SWAP1 JUMPDEST DUP2 SLOAD DUP2 MSTORE SWAP1 PUSH1 0x1 ADD SWAP1 PUSH1 0x20 ADD DUP1 DUP4 GT PUSH2 0xBE6 JUMPI DUP3 SWAP1 SUB PUSH1 0x1F AND DUP3 ADD SWAP2 JUMPDEST POP POP POP PUSH1 0x4 DUP5 ADD SLOAD PUSH1 0x5 DUP6 ADD SLOAD PUSH1 0x6 DUP7 ADD SLOAD PUSH1 0x7 SWAP1 SWAP7 ADD SLOAD SWAP5 SWAP6 PUSH1 0x1 PUSH1 0x1 PUSH1 0xA0 SHL SUB SWAP3 DUP4 AND SWAP6 SWAP2 DUP4 AND SWAP5 POP SWAP3 POP AND DUP7 JUMP JUMPDEST PUSH2 0xC3C PUSH2 0x1FD3 JUMP JUMPDEST PUSH1 0x1 DUP1 SLOAD DUP1 DUP3 ADD DUP3 SSTORE PUSH1 0x0 SWAP2 SWAP1 SWAP2 MSTORE DUP2 MLOAD PUSH32 0xB10E2D527612073B26EECDFD717E6A320CF44B4AFAC2B0732D9FCBE2B7FA0CF6 PUSH1 0x8 SWAP1 SWAP3 MUL SWAP2 DUP3 ADD DUP1 SLOAD PUSH1 0xFF NOT AND SWAP2 ISZERO ISZERO SWAP2 SWAP1 SWAP2 OR DUP2 SSTORE PUSH1 0x20 DUP4 ADD MLOAD DUP4 SWAP3 PUSH32 0xB10E2D527612073B26EECDFD717E6A320CF44B4AFAC2B0732D9FCBE2B7FA0CF7 ADD SWAP1 PUSH2 0xCB9 SWAP1 DUP3 PUSH2 0x2610 JUMP JUMPDEST POP PUSH1 0x40 DUP3 ADD MLOAD DUP1 MLOAD PUSH2 0xCD5 SWAP2 PUSH1 0x2 DUP5 ADD SWAP2 PUSH1 0x20 SWAP1 SWAP2 ADD SWAP1 PUSH2 0x2035 JUMP JUMPDEST POP PUSH1 0x60 DUP3 ADD MLOAD DUP1 MLOAD PUSH2 0xCF1 SWAP2 PUSH1 0x3 DUP5 ADD SWAP2 PUSH1 0x20 SWAP1 SWAP2 ADD SWAP1 PUSH2 0x207B JUMP JUMPDEST POP PUSH1 0x80 DUP3 ADD MLOAD PUSH1 0x4 DUP3 ADD DUP1 SLOAD PUSH1 0x1 PUSH1 0x1 PUSH1 0xA0 SHL SUB NOT SWAP1 DUP2 AND PUSH1 0x1 PUSH1 0x1 PUSH1 0xA0 SHL SUB SWAP4 DUP5 AND OR SWAP1 SWAP2 SSTORE PUSH1 0xA0 DUP5 ADD MLOAD PUSH1 0x5 DUP5 ADD DUP1 SLOAD DUP4 AND SWAP2 DUP5 AND SWAP2 SWAP1 SWAP2 OR SWAP1 SSTORE PUSH1 0xC0 DUP5 ADD MLOAD PUSH1 0x6 DUP5 ADD SSTORE PUSH1 0xE0 SWAP1 SWAP4 ADD MLOAD PUSH1 0x7 SWAP1 SWAP3 ADD DUP1 SLOAD SWAP1 SWAP4 AND SWAP2 AND OR SWAP1 SSTORE PUSH1 0x1 DUP1 SLOAD SWAP1 CALLER SWAP1 PUSH2 0xD5E DUP2 DUP5 PUSH2 0x28B9 JUMP JUMPDEST DUP2 SLOAD DUP2 LT PUSH2 0xD6E JUMPI PUSH2 0xD6E PUSH2 0x2571 JUMP JUMPDEST PUSH1 0x0 SWAP2 DUP3 MSTORE PUSH1 0x20 DUP3 KECCAK256 PUSH1 0x8 SWAP2 SWAP1 SWAP2 MUL ADD PUSH1 0x4 ADD DUP1 SLOAD PUSH1 0x1 PUSH1 0x1 PUSH1 0xA0 SHL SUB NOT AND PUSH1 0x1 PUSH1 0x1 PUSH1 0xA0 SHL SUB SWAP4 SWAP1 SWAP4 AND SWAP3 SWAP1 SWAP3 OR SWAP1 SWAP2 SSTORE PUSH1 0x1 PUSH2 0xDAC DUP2 DUP5 PUSH2 0x28B9 JUMP JUMPDEST DUP2 SLOAD DUP2 LT PUSH2 0xDBC JUMPI PUSH2 0xDBC PUSH2 0x2571 JUMP JUMPDEST PUSH1 0x0 SWAP2 DUP3 MSTORE PUSH1 0x20 SWAP1 SWAP2 KECCAK256 PUSH1 0x8 SWAP1 SWAP2 MUL ADD DUP1 SLOAD PUSH1 0xFF NOT AND SWAP2 ISZERO ISZERO SWAP2 SWAP1 SWAP2 OR SWAP1 SSTORE PUSH1 0x1 DUP1 PUSH2 0xDE8 DUP2 DUP5 PUSH2 0x28B9 JUMP JUMPDEST DUP2 SLOAD DUP2 LT PUSH2 0xDF8 JUMPI PUSH2 0xDF8 PUSH2 0x2571 JUMP JUMPDEST SWAP1 PUSH1 0x0 MSTORE PUSH1 0x20 PUSH1 0x0 KECCAK256 SWAP1 PUSH1 0x8 MUL ADD PUSH1 0x6 ADD DUP2 SWAP1 SSTORE POP PUSH1 0x40 MLOAD DUP1 PUSH1 0x40 ADD PUSH1 0x40 MSTORE DUP1 PUSH1 0x1 DUP2 MSTORE PUSH1 0x20 ADD PUSH1 0xB PUSH1 0xFB SHL DUP2 MSTORE POP PUSH1 0x1 DUP1 DUP4 PUSH2 0xE35 SWAP2 SWAP1 PUSH2 0x28B9 JUMP JUMPDEST DUP2 SLOAD DUP2 LT PUSH2 0xE45 JUMPI PUSH2 0xE45 PUSH2 0x2571 JUMP JUMPDEST SWAP1 PUSH1 0x0 MSTORE PUSH1 0x20 PUSH1 0x0 KECCAK256 SWAP1 PUSH1 0x8 MUL ADD PUSH1 0x1 ADD SWAP1 DUP2 PUSH2 0xE62 SWAP2 SWAP1 PUSH2 0x2610 JUMP JUMPDEST POP PUSH1 0x0 JUMPDEST PUSH1 0x9 DUP2 LT ISZERO PUSH2 0xEDD JUMPI PUSH1 0x1 PUSH2 0xE7B DUP2 DUP5 PUSH2 0x28B9 JUMP JUMPDEST DUP2 SLOAD DUP2 LT PUSH2 0xE8B JUMPI PUSH2 0xE8B PUSH2 0x2571 JUMP JUMPDEST PUSH1 0x0 SWAP2 DUP3 MSTORE PUSH1 0x20 DUP1 DUP4 KECCAK256 PUSH1 0x2 PUSH1 0x8 SWAP1 SWAP4 MUL ADD SWAP2 SWAP1 SWAP2 ADD DUP1 SLOAD PUSH1 0x1 DUP2 ADD DUP3 SSTORE SWAP1 DUP4 MSTORE DUP2 DUP4 KECCAK256 PUSH1 0x40 DUP1 MLOAD SWAP4 DUP5 ADD SWAP1 MSTORE SWAP3 DUP3 MSTORE SWAP2 SWAP1 SWAP2 ADD SWAP1 PUSH2 0xECA SWAP1 DUP3 PUSH2 0x2610 JUMP JUMPDEST POP DUP1 PUSH2 0xED5 DUP2 PUSH2 0x28CC JUMP JUMPDEST SWAP2 POP POP PUSH2 0xE66 JUMP JUMPDEST POP PUSH32 0xBBBA82573073A1190D559566D39447B5E1AD7724B88B63BC98867D229A645B6B PUSH2 0xF0A PUSH1 0x1 DUP4 PUSH2 0x28B9 JUMP JUMPDEST PUSH1 0x40 MLOAD SWAP1 DUP2 MSTORE PUSH1 0x20 ADD PUSH1 0x40 MLOAD DUP1 SWAP2 SUB SWAP1 LOG1 POP POP JUMP JUMPDEST PUSH2 0xF27 PUSH2 0x1FD3 JUMP JUMPDEST PUSH1 0x1 DUP3 DUP2 SLOAD DUP2 LT PUSH2 0xF3A JUMPI PUSH2 0xF3A PUSH2 0x2571 JUMP JUMPDEST PUSH1 0x0 SWAP2 DUP3 MSTORE PUSH1 0x20 SWAP2 DUP3 SWAP1 KECCAK256 PUSH1 0x40 DUP1 MLOAD PUSH2 0x100 DUP2 ADD SWAP1 SWAP2 MSTORE PUSH1 0x8 SWAP1 SWAP3 MUL ADD DUP1 SLOAD PUSH1 0xFF AND ISZERO ISZERO DUP3 MSTORE PUSH1 0x1 DUP2 ADD DUP1 SLOAD SWAP3 SWAP4 SWAP2 SWAP3 SWAP2 DUP5 ADD SWAP2 PUSH2 0xF77 SWAP1 PUSH2 0x2587 JUMP JUMPDEST DUP1 PUSH1 0x1F ADD PUSH1 0x20 DUP1 SWAP2 DIV MUL PUSH1 0x20 ADD PUSH1 0x40 MLOAD SWAP1 DUP2 ADD PUSH1 0x40 MSTORE DUP1 SWAP3 SWAP2 SWAP1 DUP2 DUP2 MSTORE PUSH1 0x20 ADD DUP3 DUP1 SLOAD PUSH2 0xFA3 SWAP1 PUSH2 0x2587 JUMP JUMPDEST DUP1 ISZERO PUSH2 0xFF0 JUMPI DUP1 PUSH1 0x1F LT PUSH2 0xFC5 JUMPI PUSH2 0x100 DUP1 DUP4 SLOAD DIV MUL DUP4 MSTORE SWAP2 PUSH1 0x20 ADD SWAP2 PUSH2 0xFF0 JUMP JUMPDEST DUP3 ADD SWAP2 SWAP1 PUSH1 0x0 MSTORE PUSH1 0x20 PUSH1 0x0 KECCAK256 SWAP1 JUMPDEST DUP2 SLOAD DUP2 MSTORE SWAP1 PUSH1 0x1 ADD SWAP1 PUSH1 0x20 ADD DUP1 DUP4 GT PUSH2 0xFD3 JUMPI DUP3 SWAP1 SUB PUSH1 0x1F AND DUP3 ADD SWAP2 JUMPDEST POP POP POP POP POP DUP2 MSTORE PUSH1 0x20 ADD PUSH1 0x2 DUP3 ADD DUP1 SLOAD DUP1 PUSH1 0x20 MUL PUSH1 0x20 ADD PUSH1 0x40 MLOAD SWAP1 DUP2 ADD PUSH1 0x40 MSTORE DUP1 SWAP3 SWAP2 SWAP1 DUP2 DUP2 MSTORE PUSH1 0x20 ADD PUSH1 0x0 SWAP1 JUMPDEST DUP3 DUP3 LT ISZERO PUSH2 0x10CA JUMPI DUP4 DUP3 SWAP1 PUSH1 0x0 MSTORE PUSH1 0x20 PUSH1 0x0 KECCAK256 ADD DUP1 SLOAD PUSH2 0x103D SWAP1 PUSH2 0x2587 JUMP JUMPDEST DUP1 PUSH1 0x1F ADD PUSH1 0x20 DUP1 SWAP2 DIV MUL PUSH1 0x20 ADD PUSH1 0x40 MLOAD SWAP1 DUP2 ADD PUSH1 0x40 MSTORE DUP1 SWAP3 SWAP2 SWAP1 DUP2 DUP2 MSTORE PUSH1 0x20 ADD DUP3 DUP1 SLOAD PUSH2 0x1069 SWAP1 PUSH2 0x2587 JUMP JUMPDEST DUP1 ISZERO PUSH2 0x10B6 JUMPI DUP1 PUSH1 0x1F LT PUSH2 0x108B JUMPI PUSH2 0x100 DUP1 DUP4 SLOAD DIV MUL DUP4 MSTORE SWAP2 PUSH1 0x20 ADD SWAP2 PUSH2 0x10B6 JUMP JUMPDEST DUP3 ADD SWAP2 SWAP1 PUSH1 0x0 MSTORE PUSH1 0x20 PUSH1 0x0 KECCAK256 SWAP1 JUMPDEST DUP2 SLOAD DUP2 MSTORE SWAP1 PUSH1 0x1 ADD SWAP1 PUSH1 0x20 ADD DUP1 DUP4 GT PUSH2 0x1099 JUMPI DUP3 SWAP1 SUB PUSH1 0x1F AND DUP3 ADD SWAP2 JUMPDEST POP POP POP POP POP DUP2 MSTORE PUSH1 0x20 ADD SWAP1 PUSH1 0x1 ADD SWAP1 PUSH2 0x101E JUMP JUMPDEST POP POP POP POP DUP2 MSTORE PUSH1 0x20 ADD PUSH1 0x3 DUP3 ADD DUP1 SLOAD DUP1 PUSH1 0x20 MUL PUSH1 0x20 ADD PUSH1 0x40 MLOAD SWAP1 DUP2 ADD PUSH1 0x40 MSTORE DUP1 SWAP3 SWAP2 SWAP1 DUP2 DUP2 MSTORE PUSH1 0x20 ADD DUP3 DUP1 SLOAD DUP1 ISZERO PUSH2 0x1121 JUMPI PUSH1 0x20 MUL DUP3 ADD SWAP2 SWAP1 PUSH1 0x0 MSTORE PUSH1 0x20 PUSH1 0x0 KECCAK256 SWAP1 JUMPDEST DUP2 SLOAD DUP2 MSTORE PUSH1 0x20 ADD SWAP1 PUSH1 0x1 ADD SWAP1 DUP1 DUP4 GT PUSH2 0x110D JUMPI JUMPDEST POP POP POP SWAP2 DUP4 MSTORE POP POP PUSH1 0x4 DUP3 ADD SLOAD PUSH1 0x1 PUSH1 0x1 PUSH1 0xA0 SHL SUB SWAP1 DUP2 AND PUSH1 0x20 DUP4 ADD MSTORE PUSH1 0x5 DUP4 ADD SLOAD DUP2 AND PUSH1 0x40 DUP4 ADD MSTORE PUSH1 0x6 DUP4 ADD SLOAD PUSH1 0x60 DUP4 ADD MSTORE PUSH1 0x7 SWAP1 SWAP3 ADD SLOAD SWAP1 SWAP2 AND PUSH1 0x80 SWAP1 SWAP2 ADD MSTORE SWAP3 SWAP2 POP POP JUMP JUMPDEST PUSH1 0x0 DUP2 PUSH1 0x40 MLOAD PUSH1 0x20 ADD PUSH2 0x117C SWAP2 SWAP1 PUSH2 0x28E5 JUMP JUMPDEST PUSH1 0x40 MLOAD PUSH1 0x20 DUP2 DUP4 SUB SUB DUP2 MSTORE SWAP1 PUSH1 0x40 MSTORE DUP1 MLOAD SWAP1 PUSH1 0x20 ADD KECCAK256 DUP4 PUSH1 0x40 MLOAD PUSH1 0x20 ADD PUSH2 0x11A3 SWAP2 SWAP1 PUSH2 0x28E5 JUMP JUMPDEST PUSH1 0x40 MLOAD PUSH1 0x20 DUP2 DUP4 SUB SUB DUP2 MSTORE SWAP1 PUSH1 0x40 MSTORE DUP1 MLOAD SWAP1 PUSH1 0x20 ADD KECCAK256 EQ SWAP1 POP JUMPDEST SWAP3 SWAP2 POP POP JUMP JUMPDEST PUSH1 0x60 PUSH1 0x1 DUP3 DUP2 SLOAD DUP2 LT PUSH2 0x11D8 JUMPI PUSH2 0x11D8 PUSH2 0x2571 JUMP JUMPDEST SWAP1 PUSH1 0x0 MSTORE PUSH1 0x20 PUSH1 0x0 KECCAK256 SWAP1 PUSH1 0x8 MUL ADD PUSH1 0x2 ADD DUP1 SLOAD DUP1 PUSH1 0x20 MUL PUSH1 0x20 ADD PUSH1 0x40 MLOAD SWAP1 DUP2 ADD PUSH1 0x40 MSTORE DUP1 SWAP3 SWAP2 SWAP1 DUP2 DUP2 MSTORE PUSH1 0x20 ADD PUSH1 0x0 SWAP1 JUMPDEST DUP3 DUP3 LT ISZERO PUSH2 0x12B5 JUMPI DUP4 DUP3 SWAP1 PUSH1 0x0 MSTORE PUSH1 0x20 PUSH1 0x0 KECCAK256 ADD DUP1 SLOAD PUSH2 0x1228 SWAP1 PUSH2 0x2587 JUMP JUMPDEST DUP1 PUSH1 0x1F ADD PUSH1 0x20 DUP1 SWAP2 DIV MUL PUSH1 0x20 ADD PUSH1 0x40 MLOAD SWAP1 DUP2 ADD PUSH1 0x40 MSTORE DUP1 SWAP3 SWAP2 SWAP1 DUP2 DUP2 MSTORE PUSH1 0x20 ADD DUP3 DUP1 SLOAD PUSH2 0x1254 SWAP1 PUSH2 0x2587 JUMP JUMPDEST DUP1 ISZERO PUSH2 0x12A1 JUMPI DUP1 PUSH1 0x1F LT PUSH2 0x1276 JUMPI PUSH2 0x100 DUP1 DUP4 SLOAD DIV MUL DUP4 MSTORE SWAP2 PUSH1 0x20 ADD SWAP2 PUSH2 0x12A1 JUMP JUMPDEST DUP3 ADD SWAP2 SWAP1 PUSH1 0x0 MSTORE PUSH1 0x20 PUSH1 0x0 KECCAK256 SWAP1 JUMPDEST DUP2 SLOAD DUP2 MSTORE SWAP1 PUSH1 0x1 ADD SWAP1 PUSH1 0x20 ADD DUP1 DUP4 GT PUSH2 0x1284 JUMPI DUP3 SWAP1 SUB PUSH1 0x1F AND DUP3 ADD SWAP2 JUMPDEST POP POP POP POP POP DUP2 MSTORE PUSH1 0x20 ADD SWAP1 PUSH1 0x1 ADD SWAP1 PUSH2 0x1209 JUMP JUMPDEST POP POP POP POP SWAP1 POP SWAP2 SWAP1 POP JUMP JUMPDEST PUSH1 0x0 DUP1 SLOAD PUSH1 0x40 MLOAD PUSH4 0x70A08231 PUSH1 0xE0 SHL DUP2 MSTORE PUSH20 0x9163F6F9A843827AB2FC1B0FBD95B7EF77763129 PUSH1 0x4 DUP3 ADD MSTORE PUSH1 0x1 PUSH1 0x1 PUSH1 0xA0 SHL SUB SWAP1 SWAP2 AND SWAP1 PUSH4 0x70A08231 SWAP1 PUSH1 0x24 ADD PUSH1 0x20 PUSH1 0x40 MLOAD DUP1 DUP4 SUB DUP2 DUP7 GAS STATICCALL ISZERO DUP1 ISZERO PUSH2 0x131D JUMPI RETURNDATASIZE PUSH1 0x0 DUP1 RETURNDATACOPY RETURNDATASIZE PUSH1 0x0 REVERT JUMPDEST POP POP POP POP PUSH1 0x40 MLOAD RETURNDATASIZE PUSH1 0x1F NOT PUSH1 0x1F DUP3 ADD AND DUP3 ADD DUP1 PUSH1 0x40 MSTORE POP DUP2 ADD SWAP1 PUSH2 0x1341 SWAP2 SWAP1 PUSH2 0x2901 JUMP JUMPDEST SWAP1 POP SWAP1 JUMP JUMPDEST PUSH1 0x1 DUP2 DUP2 SLOAD DUP2 LT PUSH2 0x1359 JUMPI PUSH2 0x1359 PUSH2 0x2571 JUMP JUMPDEST SWAP1 PUSH1 0x0 MSTORE PUSH1 0x20 PUSH1 0x0 KECCAK256 SWAP1 PUSH1 0x8 MUL ADD PUSH1 0x6 ADD SLOAD PUSH1 0x1 SUB PUSH2 0x157F JUMPI PUSH1 0x1 DUP2 DUP2 SLOAD DUP2 LT PUSH2 0x1385 JUMPI PUSH2 0x1385 PUSH2 0x2571 JUMP JUMPDEST PUSH1 0x0 SWAP2 DUP3 MSTORE PUSH1 0x20 SWAP1 SWAP2 KECCAK256 PUSH1 0x4 PUSH1 0x8 SWAP1 SWAP3 MUL ADD ADD SLOAD PUSH1 0x1 PUSH1 0x1 PUSH1 0xA0 SHL SUB AND CALLER SUB PUSH2 0x13FC JUMPI PUSH1 0x40 MLOAD PUSH3 0x461BCD PUSH1 0xE5 SHL DUP2 MSTORE PUSH1 0x20 PUSH1 0x4 DUP3 ADD MSTORE PUSH1 0x24 DUP1 DUP3 ADD MSTORE PUSH32 0x4572726F723A20596F752063616E6E6F7420706C6179207769746820796F7572 PUSH1 0x44 DUP3 ADD MSTORE PUSH4 0x39B2B633 PUSH1 0xE1 SHL PUSH1 0x64 DUP3 ADD MSTORE PUSH1 0x84 ADD PUSH2 0x2B8 JUMP JUMPDEST CALLER PUSH1 0x1 DUP3 DUP2 SLOAD DUP2 LT PUSH2 0x1410 JUMPI PUSH2 0x1410 PUSH2 0x2571 JUMP JUMPDEST SWAP1 PUSH1 0x0 MSTORE PUSH1 0x20 PUSH1 0x0 KECCAK256 SWAP1 PUSH1 0x8 MUL ADD PUSH1 0x5 ADD PUSH1 0x0 PUSH2 0x100 EXP DUP2 SLOAD DUP2 PUSH1 0x1 PUSH1 0x1 PUSH1 0xA0 SHL SUB MUL NOT AND SWAP1 DUP4 PUSH1 0x1 PUSH1 0x1 PUSH1 0xA0 SHL SUB AND MUL OR SWAP1 SSTORE POP PUSH1 0x2 PUSH1 0x1 DUP3 DUP2 SLOAD DUP2 LT PUSH2 0x145A JUMPI PUSH2 0x145A PUSH2 0x2571 JUMP JUMPDEST SWAP1 PUSH1 0x0 MSTORE PUSH1 0x20 PUSH1 0x0 KECCAK256 SWAP1 PUSH1 0x8 MUL ADD PUSH1 0x6 ADD DUP2 SWAP1 SSTORE POP PUSH1 0x1 DUP1 DUP3 DUP2 SLOAD DUP2 LT PUSH2 0x1483 JUMPI PUSH2 0x1483 PUSH2 0x2571 JUMP JUMPDEST SWAP1 PUSH1 0x0 MSTORE PUSH1 0x20 PUSH1 0x0 KECCAK256 SWAP1 PUSH1 0x8 MUL ADD PUSH1 0x0 ADD PUSH1 0x0 PUSH2 0x100 EXP DUP2 SLOAD DUP2 PUSH1 0xFF MUL NOT AND SWAP1 DUP4 ISZERO ISZERO MUL OR SWAP1 SSTORE POP PUSH32 0x2F78808C539FD07CB45456A5D5561C76D3D4005246FACCB297481E511ABC321A PUSH1 0x1 DUP3 DUP2 SLOAD DUP2 LT PUSH2 0x14DF JUMPI PUSH2 0x14DF PUSH2 0x2571 JUMP JUMPDEST SWAP1 PUSH1 0x0 MSTORE PUSH1 0x20 PUSH1 0x0 KECCAK256 SWAP1 PUSH1 0x8 MUL ADD PUSH1 0x4 ADD PUSH1 0x0 SWAP1 SLOAD SWAP1 PUSH2 0x100 EXP SWAP1 DIV PUSH1 0x1 PUSH1 0x1 PUSH1 0xA0 SHL SUB AND PUSH1 0x1 DUP4 DUP2 SLOAD DUP2 LT PUSH2 0x1517 JUMPI PUSH2 0x1517 PUSH2 0x2571 JUMP JUMPDEST PUSH1 0x0 SWAP2 DUP3 MSTORE PUSH1 0x20 SWAP2 DUP3 SWAP1 KECCAK256 PUSH1 0x5 PUSH1 0x8 SWAP3 SWAP1 SWAP3 MUL ADD ADD SLOAD PUSH1 0x40 DUP1 MLOAD PUSH1 0x80 DUP1 DUP3 MSTORE PUSH1 0xB SWAP1 DUP3 ADD MSTORE PUSH11 0x53746172742067616D6521 PUSH1 0xA8 SHL PUSH1 0xA0 DUP3 ADD MSTORE PUSH1 0x1 PUSH1 0x1 PUSH1 0xA0 SHL SUB SWAP5 DUP6 AND SWAP4 DUP2 ADD SWAP4 SWAP1 SWAP4 MSTORE SWAP3 AND DUP2 DUP4 ADD MSTORE PUSH1 0x60 DUP2 ADD DUP5 SWAP1 MSTORE SWAP1 MLOAD SWAP1 DUP2 SWAP1 SUB PUSH1 0xC0 ADD SWAP1 LOG1 PUSH2 0x1619 JUMP JUMPDEST PUSH1 0x1 DUP2 DUP2 SLOAD DUP2 LT PUSH2 0x1592 JUMPI PUSH2 0x1592 PUSH2 0x2571 JUMP JUMPDEST SWAP1 PUSH1 0x0 MSTORE PUSH1 0x20 PUSH1 0x0 KECCAK256 SWAP1 PUSH1 0x8 MUL ADD PUSH1 0x6 ADD SLOAD PUSH1 0x2 EQ PUSH2 0x1619 JUMPI PUSH1 0x40 MLOAD PUSH3 0x461BCD PUSH1 0xE5 SHL DUP2 MSTORE PUSH1 0x20 PUSH1 0x4 DUP3 ADD MSTORE PUSH1 0x3E PUSH1 0x24 DUP3 ADD MSTORE PUSH32 0x4E6F772071756575652069732066756C6C2C20747279206C617465722E204761 PUSH1 0x44 DUP3 ADD MSTORE PUSH32 0x6D6520616C72656164792066756C6C20706C73206A6F696E206F746865720000 PUSH1 0x64 DUP3 ADD MSTORE PUSH1 0x84 ADD PUSH2 0x2B8 JUMP JUMPDEST PUSH32 0xE5FEC41B03DEA13E32365D514866799A1EA13B31ED7DF1EED2092B1DBDB7ABE7 PUSH1 0x1 DUP3 DUP2 SLOAD DUP2 LT PUSH2 0x164D JUMPI PUSH2 0x164D PUSH2 0x2571 JUMP JUMPDEST SWAP1 PUSH1 0x0 MSTORE PUSH1 0x20 PUSH1 0x0 KECCAK256 SWAP1 PUSH1 0x8 MUL ADD DUP3 PUSH1 0x40 MLOAD PUSH2 0x71B SWAP3 SWAP2 SWAP1 PUSH2 0x294F JUMP JUMPDEST PUSH1 0x0 PUSH1 0x1 DUP3 DUP2 SLOAD DUP2 LT PUSH2 0x167F JUMPI PUSH2 0x167F PUSH2 0x2571 JUMP JUMPDEST PUSH1 0x0 SWAP2 DUP3 MSTORE PUSH1 0x20 SWAP1 SWAP2 KECCAK256 PUSH1 0x8 SWAP1 SWAP2 MUL ADD PUSH1 0x4 ADD SLOAD PUSH1 0x1 PUSH1 0x1 PUSH1 0xA0 SHL SUB AND CALLER EQ DUP1 PUSH2 0x16D7 JUMPI POP PUSH1 0x1 DUP3 DUP2 SLOAD DUP2 LT PUSH2 0x16B7 JUMPI PUSH2 0x16B7 PUSH2 0x2571 JUMP JUMPDEST PUSH1 0x0 SWAP2 DUP3 MSTORE PUSH1 0x20 SWAP1 SWAP2 KECCAK256 PUSH1 0x8 SWAP1 SWAP2 MUL ADD PUSH1 0x5 ADD SLOAD PUSH1 0x1 PUSH1 0x1 PUSH1 0xA0 SHL SUB AND CALLER EQ JUMPDEST PUSH2 0x16E2 JUMPI PUSH1 0x0 PUSH2 0x11BD JUMP JUMPDEST PUSH1 0x1 SWAP3 SWAP2 POP POP JUMP JUMPDEST PUSH1 0x0 DUP1 JUMPDEST PUSH1 0x2 SLOAD DUP2 LT ISZERO PUSH2 0x1C1D JUMPI PUSH1 0x0 PUSH1 0x2 DUP3 DUP2 SLOAD DUP2 LT PUSH2 0x170D JUMPI PUSH2 0x170D PUSH2 0x2571 JUMP JUMPDEST SWAP1 PUSH1 0x0 MSTORE PUSH1 0x20 PUSH1 0x0 KECCAK256 ADD DUP1 SLOAD DUP1 PUSH1 0x20 MUL PUSH1 0x20 ADD PUSH1 0x40 MLOAD SWAP1 DUP2 ADD PUSH1 0x40 MSTORE DUP1 SWAP3 SWAP2 SWAP1 DUP2 DUP2 MSTORE PUSH1 0x20 ADD DUP3 DUP1 SLOAD DUP1 ISZERO PUSH2 0x1761 JUMPI PUSH1 0x20 MUL DUP3 ADD SWAP2 SWAP1 PUSH1 0x0 MSTORE PUSH1 0x20 PUSH1 0x0 KECCAK256 SWAP1 JUMPDEST DUP2 SLOAD DUP2 MSTORE PUSH1 0x20 ADD SWAP1 PUSH1 0x1 ADD SWAP1 DUP1 DUP4 GT PUSH2 0x174D JUMPI JUMPDEST POP POP POP POP POP SWAP1 POP PUSH1 0x0 PUSH1 0x1 DUP6 DUP2 SLOAD DUP2 LT PUSH2 0x177D JUMPI PUSH2 0x177D PUSH2 0x2571 JUMP JUMPDEST SWAP1 PUSH1 0x0 MSTORE PUSH1 0x20 PUSH1 0x0 KECCAK256 SWAP1 PUSH1 0x8 MUL ADD PUSH1 0x2 ADD DUP3 PUSH1 0x0 DUP2 MLOAD DUP2 LT PUSH2 0x17A1 JUMPI PUSH2 0x17A1 PUSH2 0x2571 JUMP JUMPDEST PUSH1 0x20 MUL PUSH1 0x20 ADD ADD MLOAD DUP2 SLOAD DUP2 LT PUSH2 0x17B9 JUMPI PUSH2 0x17B9 PUSH2 0x2571 JUMP JUMPDEST SWAP1 PUSH1 0x0 MSTORE PUSH1 0x20 PUSH1 0x0 KECCAK256 ADD DUP1 SLOAD PUSH2 0x17CE SWAP1 PUSH2 0x2587 JUMP JUMPDEST DUP1 PUSH1 0x1F ADD PUSH1 0x20 DUP1 SWAP2 DIV MUL PUSH1 0x20 ADD PUSH1 0x40 MLOAD SWAP1 DUP2 ADD PUSH1 0x40 MSTORE DUP1 SWAP3 SWAP2 SWAP1 DUP2 DUP2 MSTORE PUSH1 0x20 ADD DUP3 DUP1 SLOAD PUSH2 0x17FA SWAP1 PUSH2 0x2587 JUMP JUMPDEST DUP1 ISZERO PUSH2 0x1847 JUMPI DUP1 PUSH1 0x1F LT PUSH2 0x181C JUMPI PUSH2 0x100 DUP1 DUP4 SLOAD DIV MUL DUP4 MSTORE SWAP2 PUSH1 0x20 ADD SWAP2 PUSH2 0x1847 JUMP JUMPDEST DUP3 ADD SWAP2 SWAP1 PUSH1 0x0 MSTORE PUSH1 0x20 PUSH1 0x0 KECCAK256 SWAP1 JUMPDEST DUP2 SLOAD DUP2 MSTORE SWAP1 PUSH1 0x1 ADD SWAP1 PUSH1 0x20 ADD DUP1 DUP4 GT PUSH2 0x182A JUMPI DUP3 SWAP1 SUB PUSH1 0x1F AND DUP3 ADD SWAP2 JUMPDEST POP POP POP POP POP SWAP1 POP PUSH1 0x0 PUSH1 0x1 DUP7 DUP2 SLOAD DUP2 LT PUSH2 0x1863 JUMPI PUSH2 0x1863 PUSH2 0x2571 JUMP JUMPDEST SWAP1 PUSH1 0x0 MSTORE PUSH1 0x20 PUSH1 0x0 KECCAK256 SWAP1 PUSH1 0x8 MUL ADD PUSH1 0x2 ADD DUP4 PUSH1 0x1 DUP2 MLOAD DUP2 LT PUSH2 0x1887 JUMPI PUSH2 0x1887 PUSH2 0x2571 JUMP JUMPDEST PUSH1 0x20 MUL PUSH1 0x20 ADD ADD MLOAD DUP2 SLOAD DUP2 LT PUSH2 0x189F JUMPI PUSH2 0x189F PUSH2 0x2571 JUMP JUMPDEST SWAP1 PUSH1 0x0 MSTORE PUSH1 0x20 PUSH1 0x0 KECCAK256 ADD DUP1 SLOAD PUSH2 0x18B4 SWAP1 PUSH2 0x2587 JUMP JUMPDEST DUP1 PUSH1 0x1F ADD PUSH1 0x20 DUP1 SWAP2 DIV MUL PUSH1 0x20 ADD PUSH1 0x40 MLOAD SWAP1 DUP2 ADD PUSH1 0x40 MSTORE DUP1 SWAP3 SWAP2 SWAP1 DUP2 DUP2 MSTORE PUSH1 0x20 ADD DUP3 DUP1 SLOAD PUSH2 0x18E0 SWAP1 PUSH2 0x2587 JUMP JUMPDEST DUP1 ISZERO PUSH2 0x192D JUMPI DUP1 PUSH1 0x1F LT PUSH2 0x1902 JUMPI PUSH2 0x100 DUP1 DUP4 SLOAD DIV MUL DUP4 MSTORE SWAP2 PUSH1 0x20 ADD SWAP2 PUSH2 0x192D JUMP JUMPDEST DUP3 ADD SWAP2 SWAP1 PUSH1 0x0 MSTORE PUSH1 0x20 PUSH1 0x0 KECCAK256 SWAP1 JUMPDEST DUP2 SLOAD DUP2 MSTORE SWAP1 PUSH1 0x1 ADD SWAP1 PUSH1 0x20 ADD DUP1 DUP4 GT PUSH2 0x1910 JUMPI DUP3 SWAP1 SUB PUSH1 0x1F AND DUP3 ADD SWAP2 JUMPDEST POP POP POP POP POP SWAP1 POP PUSH1 0x0 PUSH1 0x1 DUP8 DUP2 SLOAD DUP2 LT PUSH2 0x1949 JUMPI PUSH2 0x1949 PUSH2 0x2571 JUMP JUMPDEST SWAP1 PUSH1 0x0 MSTORE PUSH1 0x20 PUSH1 0x0 KECCAK256 SWAP1 PUSH1 0x8 MUL ADD PUSH1 0x2 ADD DUP5 PUSH1 0x2 DUP2 MLOAD DUP2 LT PUSH2 0x196D JUMPI PUSH2 0x196D PUSH2 0x2571 JUMP JUMPDEST PUSH1 0x20 MUL PUSH1 0x20 ADD ADD MLOAD DUP2 SLOAD DUP2 LT PUSH2 0x1985 JUMPI PUSH2 0x1985 PUSH2 0x2571 JUMP JUMPDEST SWAP1 PUSH1 0x0 MSTORE PUSH1 0x20 PUSH1 0x0 KECCAK256 ADD DUP1 SLOAD PUSH2 0x199A SWAP1 PUSH2 0x2587 JUMP JUMPDEST DUP1 PUSH1 0x1F ADD PUSH1 0x20 DUP1 SWAP2 DIV MUL PUSH1 0x20 ADD PUSH1 0x40 MLOAD SWAP1 DUP2 ADD PUSH1 0x40 MSTORE DUP1 SWAP3 SWAP2 SWAP1 DUP2 DUP2 MSTORE PUSH1 0x20 ADD DUP3 DUP1 SLOAD PUSH2 0x19C6 SWAP1 PUSH2 0x2587 JUMP JUMPDEST DUP1 ISZERO PUSH2 0x1A13 JUMPI DUP1 PUSH1 0x1F LT PUSH2 0x19E8 JUMPI PUSH2 0x100 DUP1 DUP4 SLOAD DIV MUL DUP4 MSTORE SWAP2 PUSH1 0x20 ADD SWAP2 PUSH2 0x1A13 JUMP JUMPDEST DUP3 ADD SWAP2 SWAP1 PUSH1 0x0 MSTORE PUSH1 0x20 PUSH1 0x0 KECCAK256 SWAP1 JUMPDEST DUP2 SLOAD DUP2 MSTORE SWAP1 PUSH1 0x1 ADD SWAP1 PUSH1 0x20 ADD DUP1 DUP4 GT PUSH2 0x19F6 JUMPI DUP3 SWAP1 SUB PUSH1 0x1F AND DUP3 ADD SWAP2 JUMPDEST POP POP POP POP POP SWAP1 POP PUSH2 0x1A33 DUP4 PUSH1 0x40 MLOAD DUP1 PUSH1 0x20 ADD PUSH1 0x40 MSTORE DUP1 PUSH1 0x0 DUP2 MSTORE POP PUSH2 0x1169 JUMP JUMPDEST DUP1 PUSH2 0x1A52 JUMPI POP PUSH2 0x1A52 DUP3 PUSH1 0x40 MLOAD DUP1 PUSH1 0x20 ADD PUSH1 0x40 MSTORE DUP1 PUSH1 0x0 DUP2 MSTORE POP PUSH2 0x1169 JUMP JUMPDEST DUP1 PUSH2 0x1A71 JUMPI POP PUSH2 0x1A71 DUP2 PUSH1 0x40 MLOAD DUP1 PUSH1 0x20 ADD PUSH1 0x40 MSTORE DUP1 PUSH1 0x0 DUP2 MSTORE POP PUSH2 0x1169 JUMP JUMPDEST ISZERO PUSH2 0x1A7F JUMPI POP POP POP POP PUSH2 0x1C0B JUMP JUMPDEST PUSH2 0x1A89 DUP4 DUP4 PUSH2 0x1169 JUMP JUMPDEST DUP1 ISZERO PUSH2 0x1A9A JUMPI POP PUSH2 0x1A9A DUP3 DUP3 PUSH2 0x1169 JUMP JUMPDEST ISZERO PUSH2 0x1C06 JUMPI DUP4 PUSH1 0x1 DUP9 DUP2 SLOAD DUP2 LT PUSH2 0x1AB3 JUMPI PUSH2 0x1AB3 PUSH2 0x2571 JUMP JUMPDEST SWAP1 PUSH1 0x0 MSTORE PUSH1 0x20 PUSH1 0x0 KECCAK256 SWAP1 PUSH1 0x8 MUL ADD PUSH1 0x3 ADD SWAP1 DUP1 MLOAD SWAP1 PUSH1 0x20 ADD SWAP1 PUSH2 0x1AD7 SWAP3 SWAP2 SWAP1 PUSH2 0x207B JUMP JUMPDEST POP PUSH2 0x1AEE PUSH1 0x1 DUP9 DUP2 SLOAD DUP2 LT PUSH2 0x8CB JUMPI PUSH2 0x8CB PUSH2 0x2571 JUMP JUMPDEST ISZERO PUSH2 0x1B78 JUMPI PUSH1 0x1 DUP8 DUP2 SLOAD DUP2 LT PUSH2 0x1B06 JUMPI PUSH2 0x1B06 PUSH2 0x2571 JUMP JUMPDEST SWAP1 PUSH1 0x0 MSTORE PUSH1 0x20 PUSH1 0x0 KECCAK256 SWAP1 PUSH1 0x8 MUL ADD PUSH1 0x4 ADD PUSH1 0x0 SWAP1 SLOAD SWAP1 PUSH2 0x100 EXP SWAP1 DIV PUSH1 0x1 PUSH1 0x1 PUSH1 0xA0 SHL SUB AND PUSH1 0x1 DUP9 DUP2 SLOAD DUP2 LT PUSH2 0x1B3E JUMPI PUSH2 0x1B3E PUSH2 0x2571 JUMP JUMPDEST SWAP1 PUSH1 0x0 MSTORE PUSH1 0x20 PUSH1 0x0 KECCAK256 SWAP1 PUSH1 0x8 MUL ADD PUSH1 0x7 ADD PUSH1 0x0 PUSH2 0x100 EXP DUP2 SLOAD DUP2 PUSH1 0x1 PUSH1 0x1 PUSH1 0xA0 SHL SUB MUL NOT AND SWAP1 DUP4 PUSH1 0x1 PUSH1 0x1 PUSH1 0xA0 SHL SUB AND MUL OR SWAP1 SSTORE POP PUSH2 0x1BF9 JUMP JUMPDEST PUSH1 0x1 DUP8 DUP2 SLOAD DUP2 LT PUSH2 0x1B8B JUMPI PUSH2 0x1B8B PUSH2 0x2571 JUMP JUMPDEST SWAP1 PUSH1 0x0 MSTORE PUSH1 0x20 PUSH1 0x0 KECCAK256 SWAP1 PUSH1 0x8 MUL ADD PUSH1 0x5 ADD PUSH1 0x0 SWAP1 SLOAD SWAP1 PUSH2 0x100 EXP SWAP1 DIV PUSH1 0x1 PUSH1 0x1 PUSH1 0xA0 SHL SUB AND PUSH1 0x1 DUP9 DUP2 SLOAD DUP2 LT PUSH2 0x1BC3 JUMPI PUSH2 0x1BC3 PUSH2 0x2571 JUMP JUMPDEST SWAP1 PUSH1 0x0 MSTORE PUSH1 0x20 PUSH1 0x0 KECCAK256 SWAP1 PUSH1 0x8 MUL ADD PUSH1 0x7 ADD PUSH1 0x0 PUSH2 0x100 EXP DUP2 SLOAD DUP2 PUSH1 0x1 PUSH1 0x1 PUSH1 0xA0 SHL SUB MUL NOT AND SWAP1 DUP4 PUSH1 0x1 PUSH1 0x1 PUSH1 0xA0 SHL SUB AND MUL OR SWAP1 SSTORE POP JUMPDEST PUSH1 0x1 SWAP6 POP POP POP POP POP PUSH2 0x1C1D JUMP JUMPDEST POP POP POP POP JUMPDEST DUP1 PUSH2 0x1C15 DUP2 PUSH2 0x28CC JUMP JUMPDEST SWAP2 POP POP PUSH2 0x16EE JUMP JUMPDEST POP DUP1 ISZERO PUSH2 0x1CB8 JUMPI PUSH32 0x938A1C44580C51D01225D61FB97878104148B1CDC734EB45BC5B5B50533A492D PUSH1 0x1 DUP4 DUP2 SLOAD DUP2 LT PUSH2 0x1C58 JUMPI PUSH2 0x1C58 PUSH2 0x2571 JUMP JUMPDEST SWAP1 PUSH1 0x0 MSTORE PUSH1 0x20 PUSH1 0x0 KECCAK256 SWAP1 PUSH1 0x8 MUL ADD PUSH1 0x1 ADD DUP4 PUSH1 0x40 MLOAD PUSH2 0x1C78 SWAP3 SWAP2 SWAP1 PUSH2 0x2A0E JUMP JUMPDEST PUSH1 0x40 MLOAD DUP1 SWAP2 SUB SWAP1 LOG1 PUSH1 0x0 PUSH1 0x1 DUP4 DUP2 SLOAD DUP2 LT PUSH2 0x1C95 JUMPI PUSH2 0x1C95 PUSH2 0x2571 JUMP JUMPDEST PUSH1 0x0 SWAP2 DUP3 MSTORE PUSH1 0x20 SWAP1 SWAP2 KECCAK256 PUSH1 0x8 SWAP1 SWAP2 MUL ADD DUP1 SLOAD PUSH1 0xFF NOT AND SWAP2 ISZERO ISZERO SWAP2 SWAP1 SWAP2 OR SWAP1 SSTORE POP POP JUMP JUMPDEST PUSH2 0x1CC1 DUP3 PUSH2 0x1D1D JUMP JUMPDEST ISZERO PUSH2 0x1D14 JUMPI PUSH1 0x40 DUP1 MLOAD DUP2 DUP2 MSTORE PUSH1 0x4 SWAP2 DUP2 ADD SWAP2 SWAP1 SWAP2 MSTORE PUSH4 0x44726177 PUSH1 0xE0 SHL PUSH1 0x60 DUP3 ADD MSTORE PUSH1 0x20 DUP2 ADD DUP4 SWAP1 MSTORE PUSH32 0x938A1C44580C51D01225D61FB97878104148B1CDC734EB45BC5B5B50533A492D SWAP1 PUSH1 0x80 ADD PUSH2 0x1C78 JUMP JUMPDEST PUSH2 0xB4D DUP3 PUSH2 0x1DB1 JUMP JUMPDEST PUSH1 0x0 DUP1 JUMPDEST PUSH1 0x1 DUP4 DUP2 SLOAD DUP2 LT PUSH2 0x1D34 JUMPI PUSH2 0x1D34 PUSH2 0x2571 JUMP JUMPDEST SWAP1 PUSH1 0x0 MSTORE PUSH1 0x20 PUSH1 0x0 KECCAK256 SWAP1 PUSH1 0x8 MUL ADD PUSH1 0x2 ADD DUP1 SLOAD SWAP1 POP DUP2 LT ISZERO PUSH2 0x1DA8 JUMPI PUSH2 0x1D88 PUSH1 0x1 DUP5 DUP2 SLOAD DUP2 LT PUSH2 0x1D66 JUMPI PUSH2 0x1D66 PUSH2 0x2571 JUMP JUMPDEST SWAP1 PUSH1 0x0 MSTORE PUSH1 0x20 PUSH1 0x0 KECCAK256 SWAP1 PUSH1 0x8 MUL ADD PUSH1 0x2 ADD DUP3 DUP2 SLOAD DUP2 LT PUSH2 0x7D1 JUMPI PUSH2 0x7D1 PUSH2 0x2571 JUMP JUMPDEST ISZERO PUSH2 0x1D96 JUMPI POP PUSH1 0x0 SWAP3 SWAP2 POP POP JUMP JUMPDEST DUP1 PUSH2 0x1DA0 DUP2 PUSH2 0x28CC JUMP JUMPDEST SWAP2 POP POP PUSH2 0x1D21 JUMP JUMPDEST POP PUSH1 0x1 SWAP3 SWAP2 POP POP JUMP JUMPDEST PUSH2 0x1DC7 PUSH1 0x1 DUP3 DUP2 SLOAD DUP2 LT PUSH2 0x8CB JUMPI PUSH2 0x8CB PUSH2 0x2571 JUMP JUMPDEST ISZERO PUSH2 0x1E3A JUMPI PUSH32 0xEEFC3FD775B975165C9D067E02FCD5BF5889D58041AE6DDAF94F2CC853007272 PUSH1 0x1 DUP3 DUP2 SLOAD DUP2 LT PUSH2 0x1E00 JUMPI PUSH2 0x1E00 PUSH2 0x2571 JUMP JUMPDEST PUSH1 0x0 SWAP2 DUP3 MSTORE PUSH1 0x20 SWAP2 DUP3 SWAP1 KECCAK256 PUSH1 0x8 SWAP1 SWAP2 MUL ADD PUSH1 0x5 ADD SLOAD PUSH1 0x40 DUP1 MLOAD PUSH1 0x1 PUSH1 0x1 PUSH1 0xA0 SHL SUB SWAP1 SWAP3 AND DUP3 MSTORE SWAP2 DUP2 ADD DUP5 SWAP1 MSTORE ADD PUSH1 0x40 MLOAD DUP1 SWAP2 SUB SWAP1 LOG1 PUSH2 0x1EA4 JUMP JUMPDEST PUSH32 0xEEFC3FD775B975165C9D067E02FCD5BF5889D58041AE6DDAF94F2CC853007272 PUSH1 0x1 DUP3 DUP2 SLOAD DUP2 LT PUSH2 0x1E6E JUMPI PUSH2 0x1E6E PUSH2 0x2571 JUMP JUMPDEST PUSH1 0x0 SWAP2 DUP3 MSTORE PUSH1 0x20 SWAP2 DUP3 SWAP1 KECCAK256 PUSH1 0x8 SWAP1 SWAP2 MUL ADD PUSH1 0x4 ADD SLOAD PUSH1 0x40 DUP1 MLOAD PUSH1 0x1 PUSH1 0x1 PUSH1 0xA0 SHL SUB SWAP1 SWAP3 AND DUP3 MSTORE SWAP2 DUP2 ADD DUP5 SWAP1 MSTORE ADD PUSH1 0x40 MLOAD DUP1 SWAP2 SUB SWAP1 LOG1 JUMPDEST PUSH2 0x1EBA PUSH1 0x1 DUP3 DUP2 SLOAD DUP2 LT PUSH2 0x8CB JUMPI PUSH2 0x8CB PUSH2 0x2571 JUMP JUMPDEST PUSH2 0x1EDD JUMPI PUSH1 0x40 MLOAD DUP1 PUSH1 0x40 ADD PUSH1 0x40 MSTORE DUP1 PUSH1 0x1 DUP2 MSTORE PUSH1 0x20 ADD PUSH1 0xB PUSH1 0xFB SHL DUP2 MSTORE POP PUSH2 0x1EF8 JUMP JUMPDEST PUSH1 0x40 MLOAD DUP1 PUSH1 0x40 ADD PUSH1 0x40 MSTORE DUP1 PUSH1 0x1 DUP2 MSTORE PUSH1 0x20 ADD PUSH1 0x4F PUSH1 0xF8 SHL DUP2 MSTORE POP JUMPDEST PUSH1 0x1 DUP3 DUP2 SLOAD DUP2 LT PUSH2 0x1F0B JUMPI PUSH2 0x1F0B PUSH2 0x2571 JUMP JUMPDEST SWAP1 PUSH1 0x0 MSTORE PUSH1 0x20 PUSH1 0x0 KECCAK256 SWAP1 PUSH1 0x8 MUL ADD PUSH1 0x1 ADD SWAP1 DUP2 PUSH2 0x1F28 SWAP2 SWAP1 PUSH2 0x2610 JUMP JUMPDEST POP PUSH32 0xA6D1CB5F730B987124C37C3876130FDDBA49456449948EC4257360F5AB2851C0 PUSH1 0x1 DUP3 DUP2 SLOAD DUP2 LT PUSH2 0x1F5D JUMPI PUSH2 0x1F5D PUSH2 0x2571 JUMP JUMPDEST SWAP1 PUSH1 0x0 MSTORE PUSH1 0x20 PUSH1 0x0 KECCAK256 SWAP1 PUSH1 0x8 MUL ADD PUSH1 0x1 ADD DUP3 PUSH1 0x40 MLOAD PUSH2 0x71B SWAP3 SWAP2 SWAP1 PUSH2 0x2A0E JUMP JUMPDEST DUP3 DUP1 SLOAD DUP3 DUP3 SSTORE SWAP1 PUSH1 0x0 MSTORE PUSH1 0x20 PUSH1 0x0 KECCAK256 SWAP1 DUP2 ADD SWAP3 DUP3 ISZERO PUSH2 0x1FC3 JUMPI SWAP2 PUSH1 0x20 MUL DUP3 ADD JUMPDEST DUP3 DUP2 GT ISZERO PUSH2 0x1FC3 JUMPI DUP3 MLOAD DUP3 SWAP1 PUSH2 0x1FB3 SWAP1 DUP3 PUSH2 0x2610 JUMP JUMPDEST POP SWAP2 PUSH1 0x20 ADD SWAP2 SWAP1 PUSH1 0x1 ADD SWAP1 PUSH2 0x1F9D JUMP JUMPDEST POP PUSH2 0x1FCF SWAP3 SWAP2 POP PUSH2 0x20C2 JUMP JUMPDEST POP SWAP1 JUMP JUMPDEST PUSH1 0x40 MLOAD DUP1 PUSH2 0x100 ADD PUSH1 0x40 MSTORE DUP1 PUSH1 0x0 ISZERO ISZERO DUP2 MSTORE PUSH1 0x20 ADD PUSH1 0x60 DUP2 MSTORE PUSH1 0x20 ADD PUSH1 0x60 DUP2 MSTORE PUSH1 0x20 ADD PUSH1 0x60 DUP2 MSTORE PUSH1 0x20 ADD PUSH1 0x0 PUSH1 0x1 PUSH1 0x1 PUSH1 0xA0 SHL SUB AND DUP2 MSTORE PUSH1 0x20 ADD PUSH1 0x0 PUSH1 0x1 PUSH1 0x1 PUSH1 0xA0 SHL SUB AND DUP2 MSTORE PUSH1 0x20 ADD PUSH1 0x0 DUP2 MSTORE PUSH1 0x20 ADD PUSH1 0x0 PUSH1 0x1 PUSH1 0x1 PUSH1 0xA0 SHL SUB AND DUP2 MSTORE POP SWAP1 JUMP JUMPDEST DUP3 DUP1 SLOAD DUP3 DUP3 SSTORE SWAP1 PUSH1 0x0 MSTORE PUSH1 0x20 PUSH1 0x0 KECCAK256 SWAP1 DUP2 ADD SWAP3 DUP3 ISZERO PUSH2 0x1FC3 JUMPI SWAP2 PUSH1 0x20 MUL DUP3 ADD JUMPDEST DUP3 DUP2 GT ISZERO PUSH2 0x1FC3 JUMPI DUP3 MLOAD DUP3 SWAP1 PUSH2 0x206B SWAP1 DUP3 PUSH2 0x2610 JUMP JUMPDEST POP SWAP2 PUSH1 0x20 ADD SWAP2 SWAP1 PUSH1 0x1 ADD SWAP1 PUSH2 0x2055 JUMP JUMPDEST DUP3 DUP1 SLOAD DUP3 DUP3 SSTORE SWAP1 PUSH1 0x0 MSTORE PUSH1 0x20 PUSH1 0x0 KECCAK256 SWAP1 DUP2 ADD SWAP3 DUP3 ISZERO PUSH2 0x20B6 JUMPI SWAP2 PUSH1 0x20 MUL DUP3 ADD JUMPDEST DUP3 DUP2 GT ISZERO PUSH2 0x20B6 JUMPI DUP3 MLOAD DUP3 SSTORE SWAP2 PUSH1 0x20 ADD SWAP2 SWAP1 PUSH1 0x1 ADD SWAP1 PUSH2 0x209B JUMP JUMPDEST POP PUSH2 0x1FCF SWAP3 SWAP2 POP PUSH2 0x20DF JUMP JUMPDEST DUP1 DUP3 GT ISZERO PUSH2 0x1FCF JUMPI PUSH1 0x0 PUSH2 0x20D6 DUP3 DUP3 PUSH2 0x20F4 JUMP JUMPDEST POP PUSH1 0x1 ADD PUSH2 0x20C2 JUMP JUMPDEST JUMPDEST DUP1 DUP3 GT ISZERO PUSH2 0x1FCF JUMPI PUSH1 0x0 DUP2 SSTORE PUSH1 0x1 ADD PUSH2 0x20E0 JUMP JUMPDEST POP DUP1 SLOAD PUSH2 0x2100 SWAP1 PUSH2 0x2587 JUMP JUMPDEST PUSH1 0x0 DUP3 SSTORE DUP1 PUSH1 0x1F LT PUSH2 0x2110 JUMPI POP POP JUMP JUMPDEST PUSH1 0x1F ADD PUSH1 0x20 SWAP1 DIV SWAP1 PUSH1 0x0 MSTORE PUSH1 0x20 PUSH1 0x0 KECCAK256 SWAP1 DUP2 ADD SWAP1 PUSH2 0x333 SWAP2 SWAP1 PUSH2 0x20DF JUMP JUMPDEST PUSH1 0x0 PUSH1 0x20 DUP3 DUP5 SUB SLT ISZERO PUSH2 0x2140 JUMPI PUSH1 0x0 DUP1 REVERT JUMPDEST POP CALLDATALOAD SWAP2 SWAP1 POP JUMP JUMPDEST PUSH1 0x20 DUP1 DUP3 MSTORE DUP3 MLOAD DUP3 DUP3 ADD DUP2 SWAP1 MSTORE PUSH1 0x0 SWAP2 SWAP1 DUP5 DUP3 ADD SWAP1 PUSH1 0x40 DUP6 ADD SWAP1 DUP5 JUMPDEST DUP2 DUP2 LT ISZERO PUSH2 0x217F JUMPI DUP4 MLOAD DUP4 MSTORE SWAP3 DUP5 ADD SWAP3 SWAP2 DUP5 ADD SWAP2 PUSH1 0x1 ADD PUSH2 0x2163 JUMP JUMPDEST POP SWAP1 SWAP7 SWAP6 POP POP POP POP POP POP JUMP JUMPDEST PUSH1 0x0 JUMPDEST DUP4 DUP2 LT ISZERO PUSH2 0x21A6 JUMPI DUP2 DUP2 ADD MLOAD DUP4 DUP3 ADD MSTORE PUSH1 0x20 ADD PUSH2 0x218E JUMP JUMPDEST POP POP PUSH1 0x0 SWAP2 ADD MSTORE JUMP JUMPDEST PUSH1 0x0 DUP2 MLOAD DUP1 DUP5 MSTORE PUSH2 0x21C7 DUP2 PUSH1 0x20 DUP7 ADD PUSH1 0x20 DUP7 ADD PUSH2 0x218B JUMP JUMPDEST PUSH1 0x1F ADD PUSH1 0x1F NOT AND SWAP3 SWAP1 SWAP3 ADD PUSH1 0x20 ADD SWAP3 SWAP2 POP POP JUMP JUMPDEST PUSH1 0x0 DUP3 DUP3 MLOAD DUP1 DUP6 MSTORE PUSH1 0x20 DUP1 DUP7 ADD SWAP6 POP DUP1 DUP3 PUSH1 0x5 SHL DUP5 ADD ADD DUP2 DUP7 ADD PUSH1 0x0 JUMPDEST DUP5 DUP2 LT ISZERO PUSH2 0x2226 JUMPI PUSH1 0x1F NOT DUP7 DUP5 SUB ADD DUP10 MSTORE PUSH2 0x2214 DUP4 DUP4 MLOAD PUSH2 0x21AF JUMP JUMPDEST SWAP9 DUP5 ADD SWAP9 SWAP3 POP SWAP1 DUP4 ADD SWAP1 PUSH1 0x1 ADD PUSH2 0x21F8 JUMP JUMPDEST POP SWAP1 SWAP8 SWAP7 POP POP POP POP POP POP POP JUMP JUMPDEST PUSH1 0x0 DUP2 MLOAD DUP1 DUP5 MSTORE PUSH1 0x20 DUP1 DUP6 ADD SWAP5 POP DUP1 DUP5 ADD PUSH1 0x0 JUMPDEST DUP4 DUP2 LT ISZERO PUSH2 0x2263 JUMPI DUP2 MLOAD DUP8 MSTORE SWAP6 DUP3 ADD SWAP6 SWAP1 DUP3 ADD SWAP1 PUSH1 0x1 ADD PUSH2 0x2247 JUMP JUMPDEST POP SWAP5 SWAP6 SWAP5 POP POP POP POP POP JUMP JUMPDEST PUSH1 0x0 PUSH2 0x100 DUP3 MLOAD ISZERO ISZERO DUP5 MSTORE PUSH1 0x20 DUP4 ADD MLOAD DUP2 PUSH1 0x20 DUP7 ADD MSTORE PUSH2 0x2290 DUP3 DUP7 ADD DUP3 PUSH2 0x21AF JUMP JUMPDEST SWAP2 POP POP PUSH1 0x40 DUP4 ADD MLOAD DUP5 DUP3 SUB PUSH1 0x40 DUP7 ADD MSTORE PUSH2 0x22AA DUP3 DUP3 PUSH2 0x21DB JUMP JUMPDEST SWAP2 POP POP PUSH1 0x60 DUP4 ADD MLOAD DUP5 DUP3 SUB PUSH1 0x60 DUP7 ADD MSTORE PUSH2 0x22C4 DUP3 DUP3 PUSH2 0x2233 JUMP JUMPDEST SWAP2 POP POP PUSH1 0x80 DUP4 ADD MLOAD PUSH2 0x22E1 PUSH1 0x80 DUP7 ADD DUP3 PUSH1 0x1 PUSH1 0x1 PUSH1 0xA0 SHL SUB AND SWAP1 MSTORE JUMP JUMPDEST POP PUSH1 0xA0 DUP4 ADD MLOAD PUSH2 0x22FC PUSH1 0xA0 DUP7 ADD DUP3 PUSH1 0x1 PUSH1 0x1 PUSH1 0xA0 SHL SUB AND SWAP1 MSTORE JUMP JUMPDEST POP PUSH1 0xC0 DUP4 ADD MLOAD PUSH1 0xC0 DUP6 ADD MSTORE PUSH1 0xE0 DUP4 ADD MLOAD PUSH2 0x2321 PUSH1 0xE0 DUP7 ADD DUP3 PUSH1 0x1 PUSH1 0x1 PUSH1 0xA0 SHL SUB AND SWAP1 MSTORE JUMP JUMPDEST POP SWAP4 SWAP3 POP POP POP JUMP JUMPDEST PUSH1 0x0 PUSH1 0x20 DUP1 DUP4 ADD DUP2 DUP5 MSTORE DUP1 DUP6 MLOAD DUP1 DUP4 MSTORE PUSH1 0x40 DUP7 ADD SWAP2 POP PUSH1 0x40 DUP2 PUSH1 0x5 SHL DUP8 ADD ADD SWAP3 POP DUP4 DUP8 ADD PUSH1 0x0 JUMPDEST DUP3 DUP2 LT ISZERO PUSH2 0x237E JUMPI PUSH1 0x3F NOT DUP9 DUP7 SUB ADD DUP5 MSTORE PUSH2 0x236C DUP6 DUP4 MLOAD PUSH2 0x226E JUMP JUMPDEST SWAP5 POP SWAP3 DUP6 ADD SWAP3 SWAP1 DUP6 ADD SWAP1 PUSH1 0x1 ADD PUSH2 0x2350 JUMP JUMPDEST POP SWAP3 SWAP8 SWAP7 POP POP POP POP POP POP POP JUMP JUMPDEST PUSH1 0x0 DUP1 PUSH1 0x40 DUP4 DUP6 SUB SLT ISZERO PUSH2 0x239E JUMPI PUSH1 0x0 DUP1 REVERT JUMPDEST POP POP DUP1 CALLDATALOAD SWAP3 PUSH1 0x20 SWAP1 SWAP2 ADD CALLDATALOAD SWAP2 POP JUMP JUMPDEST DUP7 ISZERO ISZERO DUP2 MSTORE PUSH1 0xC0 PUSH1 0x20 DUP3 ADD MSTORE PUSH1 0x0 PUSH2 0x23C8 PUSH1 0xC0 DUP4 ADD DUP9 PUSH2 0x21AF JUMP JUMPDEST PUSH1 0x1 PUSH1 0x1 PUSH1 0xA0 SHL SUB SWAP7 DUP8 AND PUSH1 0x40 DUP5 ADD MSTORE SWAP5 DUP7 AND PUSH1 0x60 DUP4 ADD MSTORE POP PUSH1 0x80 DUP2 ADD SWAP3 SWAP1 SWAP3 MSTORE SWAP1 SWAP3 AND PUSH1 0xA0 SWAP1 SWAP3 ADD SWAP2 SWAP1 SWAP2 MSTORE SWAP3 SWAP2 POP POP JUMP JUMPDEST PUSH1 0x20 DUP2 MSTORE PUSH1 0x0 PUSH2 0x240E PUSH1 0x20 DUP4 ADD DUP5 PUSH2 0x226E JUMP JUMPDEST SWAP4 SWAP3 POP POP POP JUMP JUMPDEST PUSH4 0x4E487B71 PUSH1 0xE0 SHL PUSH1 0x0 MSTORE PUSH1 0x41 PUSH1 0x4 MSTORE PUSH1 0x24 PUSH1 0x0 REVERT JUMPDEST PUSH1 0x0 DUP3 PUSH1 0x1F DUP4 ADD SLT PUSH2 0x243C JUMPI PUSH1 0x0 DUP1 REVERT JUMPDEST DUP2 CALLDATALOAD PUSH8 0xFFFFFFFFFFFFFFFF DUP1 DUP3 GT ISZERO PUSH2 0x2457 JUMPI PUSH2 0x2457 PUSH2 0x2415 JUMP JUMPDEST PUSH1 0x40 MLOAD PUSH1 0x1F DUP4 ADD PUSH1 0x1F NOT SWAP1 DUP2 AND PUSH1 0x3F ADD AND DUP2 ADD SWAP1 DUP3 DUP3 GT DUP2 DUP4 LT OR ISZERO PUSH2 0x247F JUMPI PUSH2 0x247F PUSH2 0x2415 JUMP JUMPDEST DUP2 PUSH1 0x40 MSTORE DUP4 DUP2 MSTORE DUP7 PUSH1 0x20 DUP6 DUP9 ADD ADD GT ISZERO PUSH2 0x2498 JUMPI PUSH1 0x0 DUP1 REVERT JUMPDEST DUP4 PUSH1 0x20 DUP8 ADD PUSH1 0x20 DUP4 ADD CALLDATACOPY PUSH1 0x0 PUSH1 0x20 DUP6 DUP4 ADD ADD MSTORE DUP1 SWAP5 POP POP POP POP POP SWAP3 SWAP2 POP POP JUMP JUMPDEST PUSH1 0x0 DUP1 PUSH1 0x40 DUP4 DUP6 SUB SLT ISZERO PUSH2 0x24CB JUMPI PUSH1 0x0 DUP1 REVERT JUMPDEST DUP3 CALLDATALOAD PUSH8 0xFFFFFFFFFFFFFFFF DUP1 DUP3 GT ISZERO PUSH2 0x24E3 JUMPI PUSH1 0x0 DUP1 REVERT JUMPDEST PUSH2 0x24EF DUP7 DUP4 DUP8 ADD PUSH2 0x242B JUMP JUMPDEST SWAP4 POP PUSH1 0x20 DUP6 ADD CALLDATALOAD SWAP2 POP DUP1 DUP3 GT ISZERO PUSH2 0x2505 JUMPI PUSH1 0x0 DUP1 REVERT JUMPDEST POP PUSH2 0x2512 DUP6 DUP3 DUP7 ADD PUSH2 0x242B JUMP JUMPDEST SWAP2 POP POP SWAP3 POP SWAP3 SWAP1 POP JUMP JUMPDEST PUSH1 0x0 PUSH1 0x20 DUP1 DUP4 ADD DUP2 DUP5 MSTORE DUP1 DUP6 MLOAD DUP1 DUP4 MSTORE PUSH1 0x40 DUP7 ADD SWAP2 POP PUSH1 0x40 DUP2 PUSH1 0x5 SHL DUP8 ADD ADD SWAP3 POP DUP4 DUP8 ADD PUSH1 0x0 JUMPDEST DUP3 DUP2 LT ISZERO PUSH2 0x237E JUMPI PUSH1 0x3F NOT DUP9 DUP7 SUB ADD DUP5 MSTORE PUSH2 0x255F DUP6 DUP4 MLOAD PUSH2 0x21AF JUMP JUMPDEST SWAP5 POP SWAP3 DUP6 ADD SWAP3 SWAP1 DUP6 ADD SWAP1 PUSH1 0x1 ADD PUSH2 0x2543 JUMP JUMPDEST PUSH4 0x4E487B71 PUSH1 0xE0 SHL PUSH1 0x0 MSTORE PUSH1 0x32 PUSH1 0x4 MSTORE PUSH1 0x24 PUSH1 0x0 REVERT JUMPDEST PUSH1 0x1 DUP2 DUP2 SHR SWAP1 DUP3 AND DUP1 PUSH2 0x259B JUMPI PUSH1 0x7F DUP3 AND SWAP2 POP JUMPDEST PUSH1 0x20 DUP3 LT DUP2 SUB PUSH2 0x25BB JUMPI PUSH4 0x4E487B71 PUSH1 0xE0 SHL PUSH1 0x0 MSTORE PUSH1 0x22 PUSH1 0x4 MSTORE PUSH1 0x24 PUSH1 0x0 REVERT JUMPDEST POP SWAP2 SWAP1 POP JUMP JUMPDEST PUSH1 0x1F DUP3 GT ISZERO PUSH2 0x260B JUMPI PUSH1 0x0 DUP2 DUP2 MSTORE PUSH1 0x20 DUP2 KECCAK256 PUSH1 0x1F DUP6 ADD PUSH1 0x5 SHR DUP2 ADD PUSH1 0x20 DUP7 LT ISZERO PUSH2 0x25E8 JUMPI POP DUP1 JUMPDEST PUSH1 0x1F DUP6 ADD PUSH1 0x5 SHR DUP3 ADD SWAP2 POP JUMPDEST DUP2 DUP2 LT ISZERO PUSH2 0x2607 JUMPI DUP3 DUP2 SSTORE PUSH1 0x1 ADD PUSH2 0x25F4 JUMP JUMPDEST POP POP POP JUMPDEST POP POP POP JUMP JUMPDEST DUP2 MLOAD PUSH8 0xFFFFFFFFFFFFFFFF DUP2 GT ISZERO PUSH2 0x262A JUMPI PUSH2 0x262A PUSH2 0x2415 JUMP JUMPDEST PUSH2 0x263E DUP2 PUSH2 0x2638 DUP5 SLOAD PUSH2 0x2587 JUMP JUMPDEST DUP5 PUSH2 0x25C1 JUMP JUMPDEST PUSH1 0x20 DUP1 PUSH1 0x1F DUP4 GT PUSH1 0x1 DUP2 EQ PUSH2 0x2673 JUMPI PUSH1 0x0 DUP5 ISZERO PUSH2 0x265B JUMPI POP DUP6 DUP4 ADD MLOAD JUMPDEST PUSH1 0x0 NOT PUSH1 0x3 DUP7 SWAP1 SHL SHR NOT AND PUSH1 0x1 DUP6 SWAP1 SHL OR DUP6 SSTORE PUSH2 0x2607 JUMP JUMPDEST PUSH1 0x0 DUP6 DUP2 MSTORE PUSH1 0x20 DUP2 KECCAK256 PUSH1 0x1F NOT DUP7 AND SWAP2 JUMPDEST DUP3 DUP2 LT ISZERO PUSH2 0x26A2 JUMPI DUP9 DUP7 ADD MLOAD DUP3 SSTORE SWAP5 DUP5 ADD SWAP5 PUSH1 0x1 SWAP1 SWAP2 ADD SWAP1 DUP5 ADD PUSH2 0x2683 JUMP JUMPDEST POP DUP6 DUP3 LT ISZERO PUSH2 0x26C0 JUMPI DUP8 DUP6 ADD MLOAD PUSH1 0x0 NOT PUSH1 0x3 DUP9 SWAP1 SHL PUSH1 0xF8 AND SHR NOT AND DUP2 SSTORE JUMPDEST POP POP POP POP POP PUSH1 0x1 SWAP1 DUP2 SHL ADD SWAP1 SSTORE POP JUMP JUMPDEST DUP2 DUP2 SUB PUSH2 0x26DB JUMPI POP POP JUMP JUMPDEST PUSH2 0x26E5 DUP3 SLOAD PUSH2 0x2587 JUMP JUMPDEST PUSH8 0xFFFFFFFFFFFFFFFF DUP2 GT ISZERO PUSH2 0x26FD JUMPI PUSH2 0x26FD PUSH2 0x2415 JUMP JUMPDEST PUSH2 0x270B DUP2 PUSH2 0x2638 DUP5 SLOAD PUSH2 0x2587 JUMP JUMPDEST PUSH1 0x0 PUSH1 0x1F DUP3 GT PUSH1 0x1 DUP2 EQ PUSH2 0x273F JUMPI PUSH1 0x0 DUP4 ISZERO PUSH2 0x2727 JUMPI POP DUP5 DUP3 ADD SLOAD JUMPDEST PUSH1 0x0 NOT PUSH1 0x3 DUP6 SWAP1 SHL SHR NOT AND PUSH1 0x1 DUP5 SWAP1 SHL OR DUP5 SSTORE PUSH2 0x27A4 JUMP JUMPDEST PUSH1 0x0 DUP6 DUP2 MSTORE PUSH1 0x20 SWAP1 KECCAK256 PUSH1 0x1F NOT DUP5 AND SWAP1 PUSH1 0x0 DUP7 DUP2 MSTORE PUSH1 0x20 SWAP1 KECCAK256 DUP5 JUMPDEST DUP4 DUP2 LT ISZERO PUSH2 0x2779 JUMPI DUP3 DUP7 ADD SLOAD DUP3 SSTORE PUSH1 0x1 SWAP6 DUP7 ADD SWAP6 SWAP1 SWAP2 ADD SWAP1 PUSH1 0x20 ADD PUSH2 0x2759 JUMP JUMPDEST POP DUP6 DUP4 LT ISZERO PUSH2 0x2797 JUMPI DUP2 DUP6 ADD SLOAD PUSH1 0x0 NOT PUSH1 0x3 DUP9 SWAP1 SHL PUSH1 0xF8 AND SHR NOT AND DUP2 SSTORE JUMPDEST POP POP POP PUSH1 0x1 DUP4 PUSH1 0x1 SHL ADD DUP5 SSTORE JUMPDEST POP POP POP POP POP JUMP JUMPDEST PUSH1 0x0 DUP2 SLOAD PUSH2 0x27B8 DUP2 PUSH2 0x2587 JUMP JUMPDEST DUP1 DUP6 MSTORE PUSH1 0x20 PUSH1 0x1 DUP4 DUP2 AND DUP1 ISZERO PUSH2 0x27D5 JUMPI PUSH1 0x1 DUP2 EQ PUSH2 0x27EF JUMPI PUSH2 0x281D JUMP JUMPDEST PUSH1 0xFF NOT DUP6 AND DUP9 DUP5 ADD MSTORE DUP4 ISZERO ISZERO PUSH1 0x5 SHL DUP9 ADD DUP4 ADD SWAP6 POP PUSH2 0x281D JUMP JUMPDEST DUP7 PUSH1 0x0 MSTORE DUP3 PUSH1 0x0 KECCAK256 PUSH1 0x0 JUMPDEST DUP6 DUP2 LT ISZERO PUSH2 0x2815 JUMPI DUP2 SLOAD DUP11 DUP3 ADD DUP7 ADD MSTORE SWAP1 DUP4 ADD SWAP1 DUP5 ADD PUSH2 0x27FA JUMP JUMPDEST DUP10 ADD DUP5 ADD SWAP7 POP POP JUMPDEST POP POP POP POP POP SWAP3 SWAP2 POP POP JUMP JUMPDEST PUSH1 0x0 DUP2 SLOAD DUP1 DUP5 MSTORE PUSH1 0x20 DUP1 DUP6 ADD DUP1 DUP2 SWAP7 POP DUP4 PUSH1 0x5 SHL DUP2 ADD SWAP2 POP DUP6 PUSH1 0x0 MSTORE DUP3 PUSH1 0x0 KECCAK256 PUSH1 0x0 JUMPDEST DUP6 DUP2 LT ISZERO PUSH2 0x2874 JUMPI DUP3 DUP5 SUB DUP10 MSTORE PUSH2 0x2862 DUP5 DUP4 PUSH2 0x27AB JUMP JUMPDEST SWAP9 DUP6 ADD SWAP9 SWAP4 POP PUSH1 0x1 SWAP2 DUP3 ADD SWAP2 ADD PUSH2 0x284B JUMP JUMPDEST POP SWAP2 SWAP8 SWAP7 POP POP POP POP POP POP POP JUMP JUMPDEST PUSH1 0x40 DUP2 MSTORE PUSH1 0x0 PUSH2 0x2894 PUSH1 0x40 DUP4 ADD DUP6 PUSH2 0x2828 JUMP JUMPDEST SWAP1 POP DUP3 PUSH1 0x20 DUP4 ADD MSTORE SWAP4 SWAP3 POP POP POP JUMP JUMPDEST PUSH4 0x4E487B71 PUSH1 0xE0 SHL PUSH1 0x0 MSTORE PUSH1 0x11 PUSH1 0x4 MSTORE PUSH1 0x24 PUSH1 0x0 REVERT JUMPDEST DUP2 DUP2 SUB DUP2 DUP2 GT ISZERO PUSH2 0x11BD JUMPI PUSH2 0x11BD PUSH2 0x28A3 JUMP JUMPDEST PUSH1 0x0 PUSH1 0x1 DUP3 ADD PUSH2 0x28DE JUMPI PUSH2 0x28DE PUSH2 0x28A3 JUMP JUMPDEST POP PUSH1 0x1 ADD SWAP1 JUMP JUMPDEST PUSH1 0x0 DUP3 MLOAD PUSH2 0x28F7 DUP2 DUP5 PUSH1 0x20 DUP8 ADD PUSH2 0x218B JUMP JUMPDEST SWAP2 SWAP1 SWAP2 ADD SWAP3 SWAP2 POP POP JUMP JUMPDEST PUSH1 0x0 PUSH1 0x20 DUP3 DUP5 SUB SLT ISZERO PUSH2 0x2913 JUMPI PUSH1 0x0 DUP1 REVERT JUMPDEST POP MLOAD SWAP2 SWAP1 POP JUMP JUMPDEST PUSH1 0x0 DUP2 SLOAD DUP1 DUP5 MSTORE PUSH1 0x20 DUP1 DUP6 ADD SWAP5 POP DUP4 PUSH1 0x0 MSTORE DUP1 PUSH1 0x0 KECCAK256 PUSH1 0x0 JUMPDEST DUP4 DUP2 LT ISZERO PUSH2 0x2263 JUMPI DUP2 SLOAD DUP8 MSTORE SWAP6 DUP3 ADD SWAP6 PUSH1 0x1 SWAP2 DUP3 ADD SWAP2 ADD PUSH2 0x2933 JUMP JUMPDEST PUSH1 0x40 DUP2 MSTORE PUSH2 0x296B PUSH1 0x40 DUP3 ADD PUSH2 0x2965 DUP6 SLOAD PUSH1 0xFF AND SWAP1 JUMP JUMPDEST ISZERO ISZERO SWAP1 MSTORE JUMP JUMPDEST PUSH1 0x0 PUSH2 0x100 DUP1 PUSH1 0x60 DUP5 ADD MSTORE PUSH2 0x2987 PUSH2 0x140 DUP5 ADD PUSH1 0x1 DUP8 ADD PUSH2 0x27AB JUMP JUMPDEST PUSH1 0x3F NOT DUP1 DUP6 DUP4 SUB ADD PUSH1 0x80 DUP7 ADD MSTORE PUSH2 0x29A1 DUP3 PUSH1 0x2 DUP10 ADD PUSH2 0x2828 JUMP JUMPDEST SWAP2 POP DUP1 DUP6 DUP4 SUB ADD PUSH1 0xA0 DUP7 ADD MSTORE POP PUSH2 0x29BB DUP2 PUSH1 0x3 DUP9 ADD PUSH2 0x291A JUMP JUMPDEST SWAP1 POP PUSH2 0x29D1 PUSH1 0x4 DUP8 ADD SLOAD PUSH1 0x1 PUSH1 0x1 PUSH1 0xA0 SHL SUB AND SWAP1 JUMP JUMPDEST PUSH1 0x1 PUSH1 0x1 PUSH1 0xA0 SHL SUB SWAP1 DUP2 AND PUSH1 0xC0 DUP7 ADD MSTORE PUSH1 0x5 DUP8 ADD SLOAD DUP2 AND PUSH1 0xE0 DUP7 ADD MSTORE PUSH1 0x6 DUP8 ADD SLOAD SWAP3 DUP6 ADD SWAP3 SWAP1 SWAP3 MSTORE PUSH1 0x7 SWAP1 SWAP6 ADD SLOAD AND PUSH2 0x120 DUP4 ADD MSTORE POP PUSH1 0x20 ADD MSTORE SWAP1 JUMP JUMPDEST PUSH1 0x40 DUP2 MSTORE PUSH1 0x0 PUSH2 0x2894 PUSH1 0x40 DUP4 ADD DUP6 PUSH2 0x27AB JUMP INVALID LOG2 PUSH5 0x6970667358 0x22 SLT KECCAK256 0xC0 CREATE2 0xBA 0xD3 GAS SWAP15 0xB0 0xCA SWAP14 PUSH30 0x26CFA7A92364217C6699E394CEACAD29700793B77FF564736F6C63430008 SGT STOP CALLER "
				},
				"gasEstimates": {
					"creation": {
						"codeDepositCost": "2167800",
						"executionCost": "infinite",
						"totalCost": "infinite"
					},
					"external": {
						"compareStrings(string,string)": "infinite",
						"createGameRoom()": "infinite",
						"gameInformation(uint256)": "infinite",
						"getAllGameInformation()": "infinite",
						"getFinalWinOption(uint256)": "infinite",
						"getGameInformation(uint256)": "infinite",
						"getoption(uint256)": "infinite",
						"joinGame(uint256)": "infinite",
						"restartGame(uint256)": "infinite",
						"showbalance()": "infinite",
						"userInput(uint256,uint256)": "infinite",
						"validateRestartPlayer(uint256)": "9105"
					},
					"internal": {
						"changePlayer(uint256)": "infinite",
						"checkAddress(uint256)": "8736",
						"checkOptions(uint256)": "infinite",
						"checkWinner(uint256)": "infinite"
					}
				},
				"methodIdentifiers": {
					"compareStrings(string,string)": "bed34bba",
					"createGameRoom()": "97ca20bf",
					"gameInformation(uint256)": "87052fab",
					"getAllGameInformation()": "491f0136",
					"getFinalWinOption(uint256)": "17b44960",
					"getGameInformation(uint256)": "b2182be4",
					"getoption(uint256)": "dc572c6e",
					"joinGame(uint256)": "efaa55a0",
					"restartGame(uint256)": "4a968391",
					"showbalance()": "e8e37354",
					"userInput(uint256,uint256)": "52bc3410",
					"validateRestartPlayer(uint256)": "34fd3518"
				}
			},
			"storageLayout": {
				"storage": [
					{
						"astId": 8,
						"contract": "Practical6-Apply-TTT-Token.sol:TickTackToe",
						"label": "TTTToken",
						"offset": 0,
						"slot": "0",
						"type": "t_contract(IERC20)901"
					},
					{
						"astId": 42,
						"contract": "Practical6-Apply-TTT-Token.sol:TickTackToe",
						"label": "gameInformation",
						"offset": 0,
						"slot": "1",
						"type": "t_array(t_struct(GameInfo)38_storage)dyn_storage"
					},
					{
						"astId": 79,
						"contract": "Practical6-Apply-TTT-Token.sol:TickTackToe",
						"label": "winConditionSet",
						"offset": 0,
						"slot": "2",
						"type": "t_array(t_array(t_uint256)dyn_storage)dyn_storage"
					}
				],
				"types": {
					"t_address": {
						"encoding": "inplace",
						"label": "address",
						"numberOfBytes": "20"
					},
					"t_array(t_array(t_uint256)dyn_storage)dyn_storage": {
						"base": "t_array(t_uint256)dyn_storage",
						"encoding": "dynamic_array",
						"label": "uint256[][]",
						"numberOfBytes": "32"
					},
					"t_array(t_string_storage)dyn_storage": {
						"base": "t_string_storage",
						"encoding": "dynamic_array",
						"label": "string[]",
						"numberOfBytes": "32"
					},
					"t_array(t_struct(GameInfo)38_storage)dyn_storage": {
						"base": "t_struct(GameInfo)38_storage",
						"encoding": "dynamic_array",
						"label": "struct TickTackToe.GameInfo[]",
						"numberOfBytes": "32"
					},
					"t_array(t_uint256)dyn_storage": {
						"base": "t_uint256",
						"encoding": "dynamic_array",
						"label": "uint256[]",
						"numberOfBytes": "32"
					},
					"t_bool": {
						"encoding": "inplace",
						"label": "bool",
						"numberOfBytes": "1"
					},
					"t_contract(IERC20)901": {
						"encoding": "inplace",
						"label": "contract IERC20",
						"numberOfBytes": "20"
					},
					"t_string_storage": {
						"encoding": "bytes",
						"label": "string",
						"numberOfBytes": "32"
					},
					"t_struct(GameInfo)38_storage": {
						"encoding": "inplace",
						"label": "struct TickTackToe.GameInfo",
						"members": [
							{
								"astId": 21,
								"contract": "Practical6-Apply-TTT-Token.sol:TickTackToe",
								"label": "_activate",
								"offset": 0,
								"slot": "0",
								"type": "t_bool"
							},
							{
								"astId": 23,
								"contract": "Practical6-Apply-TTT-Token.sol:TickTackToe",
								"label": "_currentPlayer",
								"offset": 0,
								"slot": "1",
								"type": "t_string_storage"
							},
							{
								"astId": 26,
								"contract": "Practical6-Apply-TTT-Token.sol:TickTackToe",
								"label": "_options",
								"offset": 0,
								"slot": "2",
								"type": "t_array(t_string_storage)dyn_storage"
							},
							{
								"astId": 29,
								"contract": "Practical6-Apply-TTT-Token.sol:TickTackToe",
								"label": "_finalWinOption",
								"offset": 0,
								"slot": "3",
								"type": "t_array(t_uint256)dyn_storage"
							},
							{
								"astId": 31,
								"contract": "Practical6-Apply-TTT-Token.sol:TickTackToe",
								"label": "_player1address",
								"offset": 0,
								"slot": "4",
								"type": "t_address"
							},
							{
								"astId": 33,
								"contract": "Practical6-Apply-TTT-Token.sol:TickTackToe",
								"label": "_player2address",
								"offset": 0,
								"slot": "5",
								"type": "t_address"
							},
							{
								"astId": 35,
								"contract": "Practical6-Apply-TTT-Token.sol:TickTackToe",
								"label": "_playerCount",
								"offset": 0,
								"slot": "6",
								"type": "t_uint256"
							},
							{
								"astId": 37,
								"contract": "Practical6-Apply-TTT-Token.sol:TickTackToe",
								"label": "_winer",
								"offset": 0,
								"slot": "7",
								"type": "t_address"
							}
						],
						"numberOfBytes": "256"
					},
					"t_uint256": {
						"encoding": "inplace",
						"label": "uint256",
						"numberOfBytes": "32"
					}
				}
			},
			"userdoc": {
				"kind": "user",
				"methods": {},
				"version": 1
			}
		}
	}
}