{
	"TTT_token.sol": {
		"StandardToken": {
			"abi": [
				{
					"inputs": [],
					"stateMutability": "nonpayable",
					"type": "constructor"
				},
				{
					"anonymous": false,
					"inputs": [
						{
							"indexed": true,
							"internalType": "address",
							"name": "owner",
							"type": "address"
						},
						{
							"indexed": true,
							"internalType": "address",
							"name": "spender",
							"type": "address"
						},
						{
							"indexed": false,
							"internalType": "uint256",
							"name": "value",
							"type": "uint256"
						}
					],
					"name": "Approval",
					"type": "event"
				},
				{
					"anonymous": false,
					"inputs": [
						{
							"indexed": true,
							"internalType": "address",
							"name": "previousOwner",
							"type": "address"
						},
						{
							"indexed": true,
							"internalType": "address",
							"name": "newOwner",
							"type": "address"
						}
					],
					"name": "OwnershipTransferred",
					"type": "event"
				},
				{
					"anonymous": false,
					"inputs": [
						{
							"indexed": true,
							"internalType": "address",
							"name": "from",
							"type": "address"
						},
						{
							"indexed": true,
							"internalType": "address",
							"name": "to",
							"type": "address"
						},
						{
							"indexed": false,
							"internalType": "uint256",
							"name": "value",
							"type": "uint256"
						}
					],
					"name": "Transfer",
					"type": "event"
				},
				{
					"inputs": [
						{
							"internalType": "address",
							"name": "owner",
							"type": "address"
						},
						{
							"internalType": "address",
							"name": "spender",
							"type": "address"
						}
					],
					"name": "allowance",
					"outputs": [
						{
							"internalType": "uint256",
							"name": "",
							"type": "uint256"
						}
					],
					"stateMutability": "view",
					"type": "function"
				},
				{
					"inputs": [
						{
							"internalType": "address",
							"name": "spender",
							"type": "address"
						},
						{
							"internalType": "uint256",
							"name": "amount",
							"type": "uint256"
						}
					],
					"name": "approve",
					"outputs": [
						{
							"internalType": "bool",
							"name": "",
							"type": "bool"
						}
					],
					"stateMutability": "nonpayable",
					"type": "function"
				},
				{
					"inputs": [
						{
							"internalType": "address",
							"name": "account",
							"type": "address"
						}
					],
					"name": "balanceOf",
					"outputs": [
						{
							"internalType": "uint256",
							"name": "",
							"type": "uint256"
						}
					],
					"stateMutability": "view",
					"type": "function"
				},
				{
					"inputs": [],
					"name": "decimals",
					"outputs": [
						{
							"internalType": "uint8",
							"name": "",
							"type": "uint8"
						}
					],
					"stateMutability": "view",
					"type": "function"
				},
				{
					"inputs": [
						{
							"internalType": "address",
							"name": "spender",
							"type": "address"
						},
						{
							"internalType": "uint256",
							"name": "subtractedValue",
							"type": "uint256"
						}
					],
					"name": "decreaseAllowance",
					"outputs": [
						{
							"internalType": "bool",
							"name": "",
							"type": "bool"
						}
					],
					"stateMutability": "nonpayable",
					"type": "function"
				},
				{
					"inputs": [
						{
							"internalType": "address",
							"name": "spender",
							"type": "address"
						},
						{
							"internalType": "uint256",
							"name": "addedValue",
							"type": "uint256"
						}
					],
					"name": "increaseAllowance",
					"outputs": [
						{
							"internalType": "bool",
							"name": "",
							"type": "bool"
						}
					],
					"stateMutability": "nonpayable",
					"type": "function"
				},
				{
					"inputs": [],
					"name": "name",
					"outputs": [
						{
							"internalType": "string",
							"name": "",
							"type": "string"
						}
					],
					"stateMutability": "view",
					"type": "function"
				},
				{
					"inputs": [],
					"name": "owner",
					"outputs": [
						{
							"internalType": "address",
							"name": "",
							"type": "address"
						}
					],
					"stateMutability": "view",
					"type": "function"
				},
				{
					"inputs": [],
					"name": "renounceOwnership",
					"outputs": [],
					"stateMutability": "nonpayable",
					"type": "function"
				},
				{
					"inputs": [],
					"name": "symbol",
					"outputs": [
						{
							"internalType": "string",
							"name": "",
							"type": "string"
						}
					],
					"stateMutability": "view",
					"type": "function"
				},
				{
					"inputs": [],
					"name": "totalSupply",
					"outputs": [
						{
							"internalType": "uint256",
							"name": "",
							"type": "uint256"
						}
					],
					"stateMutability": "view",
					"type": "function"
				},
				{
					"inputs": [],
					"name": "tradeOpen",
					"outputs": [
						{
							"internalType": "bool",
							"name": "",
							"type": "bool"
						}
					],
					"stateMutability": "view",
					"type": "function"
				},
				{
					"inputs": [
						{
							"internalType": "address",
							"name": "recipient",
							"type": "address"
						},
						{
							"internalType": "uint256",
							"name": "amount",
							"type": "uint256"
						}
					],
					"name": "transfer",
					"outputs": [
						{
							"internalType": "bool",
							"name": "",
							"type": "bool"
						}
					],
					"stateMutability": "nonpayable",
					"type": "function"
				},
				{
					"inputs": [
						{
							"internalType": "address",
							"name": "sender",
							"type": "address"
						},
						{
							"internalType": "address",
							"name": "recipient",
							"type": "address"
						},
						{
							"internalType": "uint256",
							"name": "amount",
							"type": "uint256"
						}
					],
					"name": "transferFrom",
					"outputs": [
						{
							"internalType": "bool",
							"name": "",
							"type": "bool"
						}
					],
					"stateMutability": "nonpayable",
					"type": "function"
				},
				{
					"inputs": [
						{
							"internalType": "address",
							"name": "newOwner",
							"type": "address"
						}
					],
					"name": "transferOwnership",
					"outputs": [],
					"stateMutability": "nonpayable",
					"type": "function"
				},
				{
					"inputs": [
						{
							"internalType": "address",
							"name": "",
							"type": "address"
						}
					],
					"name": "whitelisted",
					"outputs": [
						{
							"internalType": "bool",
							"name": "",
							"type": "bool"
						}
					],
					"stateMutability": "view",
					"type": "function"
				}
			],
			"devdoc": {
				"events": {
					"Approval(address,address,uint256)": {
						"details": "Emitted when the allowance of a `spender` for an `owner` is set by a call to {approve}. `value` is the new allowance."
					},
					"Transfer(address,address,uint256)": {
						"details": "Emitted when `value` tokens are moved from one account (`from`) to another (`to`). Note that `value` may be zero."
					}
				},
				"kind": "dev",
				"methods": {
					"allowance(address,address)": {
						"details": "See {IERC20-allowance}."
					},
					"approve(address,uint256)": {
						"details": "See {IERC20-approve}. Requirements: - `spender` cannot be the zero address."
					},
					"balanceOf(address)": {
						"details": "See {IERC20-balanceOf}."
					},
					"constructor": {
						"details": "Sets the values for {name} and {symbol}. The defaut value of {decimals} is 18. To select a different value for {decimals} you should overload it. All two of these values are immutable: they can only be set once during construction."
					},
					"decimals()": {
						"details": "Returns the number of decimals used to get its user representation. For example, if `decimals` equals `2`, a balance of `505` tokens should be displayed to a user as `5,05` (`505 / 10 ** 2`). Tokens usually opt for a value of 18, imitating the relationship between Ether and Wei. This is the value {ERC20} uses, unless this function is overridden; NOTE: This information is only used for _display_ purposes: it in no way affects any of the arithmetic of the contract, including {IERC20-balanceOf} and {IERC20-transfer}."
					},
					"decreaseAllowance(address,uint256)": {
						"details": "Atomically decreases the allowance granted to `spender` by the caller. This is an alternative to {approve} that can be used as a mitigation for problems described in {IERC20-approve}. Emits an {Approval} event indicating the updated allowance. Requirements: - `spender` cannot be the zero address. - `spender` must have allowance for the caller of at least `subtractedValue`."
					},
					"increaseAllowance(address,uint256)": {
						"details": "Atomically increases the allowance granted to `spender` by the caller. This is an alternative to {approve} that can be used as a mitigation for problems described in {IERC20-approve}. Emits an {Approval} event indicating the updated allowance. Requirements: - `spender` cannot be the zero address."
					},
					"name()": {
						"details": "Returns the name of the token."
					},
					"owner()": {
						"details": "Returns the address of the current owner."
					},
					"renounceOwnership()": {
						"details": "Leaves the contract without owner. It will not be possible to call `onlyOwner` functions anymore. Can only be called by the current owner. NOTE: Renouncing ownership will leave the contract without an owner, thereby removing any functionality that is only available to the owner."
					},
					"symbol()": {
						"details": "Returns the symbol of the token, usually a shorter version of the name."
					},
					"totalSupply()": {
						"details": "See {IERC20-totalSupply}."
					},
					"transfer(address,uint256)": {
						"details": "See {IERC20-transfer}. Requirements: - `recipient` cannot be the zero address. - the caller must have a balance of at least `amount`."
					},
					"transferFrom(address,address,uint256)": {
						"details": "See {IERC20-transferFrom}. Emits an {Approval} event indicating the updated allowance. This is not required by the EIP. See the note at the beginning of {ERC20}. Requirements: - `sender` and `recipient` cannot be the zero address. - `sender` must have a balance of at least `amount`. - the caller must have allowance for ``sender``'s tokens of at least `amount`."
					},
					"transferOwnership(address)": {
						"details": "Transfers ownership of the contract to a new account (`newOwner`). Can only be called by the current owner."
					}
				},
				"version": 1
			},
			"evm": {
				"assembly": "    /* \"TTT_token.sol\":5365:15283  contract StandardToken is Ownable, IERC20, IERC20Metadata {... */\n  mstore(0x40, 0x80)\n    /* \"TTT_token.sol\":6050:6198  constructor() {... */\n  callvalue\n  dup1\n  iszero\n  tag_1\n  jumpi\n  0x00\n  dup1\n  revert\ntag_1:\n  pop\n    /* \"TTT_token.sol\":3923:3940  address msgSender */\n  0x00\n    /* \"TTT_token.sol\":3966:3984  _owner = msgSender */\n  dup1\n  sload\n  not(sub(shl(0xa0, 0x01), 0x01))\n  and\n    /* \"TTT_token.sol\":3403:3413  msg.sender */\n  caller\n    /* \"TTT_token.sol\":3966:3984  _owner = msgSender */\n  swap1\n  dup2\n  or\n  dup3\n  sstore\n    /* \"TTT_token.sol\":4000:4043  OwnershipTransferred(address(0), msgSender) */\n  mload(0x40)\n    /* \"TTT_token.sol\":3403:3413  msg.sender */\n  swap1\n  swap2\n  dup3\n  swap2\n    /* \"TTT_token.sol\":4000:4043  OwnershipTransferred(address(0), msgSender) */\n  0x8be0079c531659141344cd1fd0a4f28419497f9722a3daafe3b4186f6b6457e0\n  swap1\n    /* \"TTT_token.sol\":3923:3940  address msgSender */\n  dup3\n  swap1\n    /* \"TTT_token.sol\":4000:4043  OwnershipTransferred(address(0), msgSender) */\n  log3\n  pop\n    /* \"TTT_token.sol\":6075:6096  _name = \"TickTackToe\" */\n  0x40\n  dup1\n  mload\n  dup1\n  dup3\n  add\n  swap1\n  swap2\n  mstore\n  0x0b\n  dup2\n  mstore\n  shl(0xa8, 0x5469636b5461636b546f65)\n  0x20\n  dup3\n  add\n  mstore\n    /* \"TTT_token.sol\":6075:6080  _name */\n  0x06\n  swap1\n    /* \"TTT_token.sol\":6075:6096  _name = \"TickTackToe\" */\n  tag_8\n  swap1\n    /* \"TTT_token.sol\":6075:6080  _name */\n  dup3\n    /* \"TTT_token.sol\":6075:6096  _name = \"TickTackToe\" */\n  tag_9\n  jump\t// in\ntag_8:\n  pop\n    /* \"TTT_token.sol\":6107:6122  _symbol = \"TTT\" */\n  0x40\n  dup1\n  mload\n  dup1\n  dup3\n  add\n  swap1\n  swap2\n  mstore\n  0x03\n  dup2\n  mstore\n  shl(0xea, 0x151515)\n  0x20\n  dup3\n  add\n  mstore\n    /* \"TTT_token.sol\":6107:6114  _symbol */\n  0x07\n  swap1\n    /* \"TTT_token.sol\":6107:6122  _symbol = \"TTT\" */\n  tag_10\n  swap1\n    /* \"TTT_token.sol\":6107:6114  _symbol */\n  dup3\n    /* \"TTT_token.sol\":6107:6122  _symbol = \"TTT\" */\n  tag_9\n  jump\t// in\ntag_10:\n  pop\n    /* \"TTT_token.sol\":6143:6190  _mint(msg.sender, 10 * 1e19 * (10**decimals())) */\n  tag_11\n    /* \"TTT_token.sol\":6149:6159  msg.sender */\n  caller\n    /* \"TTT_token.sol\":6174:6188  10**decimals() */\n  tag_14\n    /* \"TTT_token.sol\":7321:7322  9 */\n  0x09\n    /* \"TTT_token.sol\":6174:6176  10 */\n  0x0a\n    /* \"TTT_token.sol\":6174:6188  10**decimals() */\n  tag_15\n  jump\t// in\ntag_14:\n    /* \"TTT_token.sol\":6161:6189  10 * 1e19 * (10**decimals()) */\n  tag_16\n  swap1\n    /* \"TTT_token.sol\":6161:6170  10 * 1e19 */\n  0x056bc75e2d63100000\n    /* \"TTT_token.sol\":6161:6189  10 * 1e19 * (10**decimals()) */\n  tag_17\n  jump\t// in\ntag_16:\n    /* \"TTT_token.sol\":6143:6148  _mint */\n  tag_18\n    /* \"TTT_token.sol\":6143:6190  _mint(msg.sender, 10 * 1e19 * (10**decimals())) */\n  jump\t// in\ntag_11:\n    /* \"TTT_token.sol\":5365:15283  contract StandardToken is Ownable, IERC20, IERC20Metadata {... */\n  jump(tag_45)\n    /* \"TTT_token.sol\":14282:14681  function _mint(address account, uint256 amount) internal virtual {... */\ntag_18:\n  sub(shl(0xa0, 0x01), 0x01)\n    /* \"TTT_token.sol\":14366:14387  account != address(0) */\n  dup3\n  and\n    /* \"TTT_token.sol\":14358:14423  require(account != address(0), \"ERC20: mint to the zero address\") */\n  tag_23\n  jumpi\n  mload(0x40)\n  shl(0xe5, 0x461bcd)\n  dup2\n  mstore\n    /* \"#utility.yul\":4625:4627   */\n  0x20\n    /* \"TTT_token.sol\":14358:14423  require(account != address(0), \"ERC20: mint to the zero address\") */\n  0x04\n  dup3\n  add\n    /* \"#utility.yul\":4607:4628   */\n  mstore\n    /* \"#utility.yul\":4664:4666   */\n  0x1f\n    /* \"#utility.yul\":4644:4662   */\n  0x24\n  dup3\n  add\n    /* \"#utility.yul\":4637:4667   */\n  mstore\n    /* \"#utility.yul\":4703:4736   */\n  0x45524332303a206d696e7420746f20746865207a65726f206164647265737300\n    /* \"#utility.yul\":4683:4701   */\n  0x44\n  dup3\n  add\n    /* \"#utility.yul\":4676:4737   */\n  mstore\n    /* \"#utility.yul\":4754:4772   */\n  0x64\n  add\n    /* \"TTT_token.sol\":14358:14423  require(account != address(0), \"ERC20: mint to the zero address\") */\n  mload(0x40)\n  dup1\n  swap2\n  sub\n  swap1\n  revert\ntag_23:\n    /* \"TTT_token.sol\":14514:14520  amount */\n  dup1\n    /* \"TTT_token.sol\":14498:14510  _totalSupply */\n  0x03\n  0x00\n    /* \"TTT_token.sol\":14498:14520  _totalSupply += amount */\n  dup3\n  dup3\n  sload\n  tag_28\n  swap2\n  swap1\n  tag_29\n  jump\t// in\ntag_28:\n  swap1\n  swap2\n  sstore\n  pop\n  pop\n  sub(shl(0xa0, 0x01), 0x01)\n    /* \"TTT_token.sol\":14531:14549  _balances[account] */\n  dup3\n  and\n  0x00\n  swap1\n  dup2\n  mstore\n    /* \"TTT_token.sol\":14531:14540  _balances */\n  0x01\n    /* \"TTT_token.sol\":14531:14549  _balances[account] */\n  0x20\n  mstore\n  0x40\n  dup2\n  keccak256\n    /* \"TTT_token.sol\":14531:14559  _balances[account] += amount */\n  dup1\n  sload\n    /* \"TTT_token.sol\":14553:14559  amount */\n  dup4\n  swap3\n    /* \"TTT_token.sol\":14531:14549  _balances[account] */\n  swap1\n    /* \"TTT_token.sol\":14531:14559  _balances[account] += amount */\n  tag_30\n  swap1\n    /* \"TTT_token.sol\":14553:14559  amount */\n  dup5\n  swap1\n    /* \"TTT_token.sol\":14531:14559  _balances[account] += amount */\n  tag_29\n  jump\t// in\ntag_30:\n  swap1\n  swap2\n  sstore\n  pop\n  pop\n    /* \"TTT_token.sol\":14575:14612  Transfer(address(0), account, amount) */\n  mload(0x40)\n    /* \"#utility.yul\":5059:5084   */\n  dup2\n  dup2\n  mstore\n  sub(shl(0xa0, 0x01), 0x01)\n    /* \"TTT_token.sol\":14575:14612  Transfer(address(0), account, amount) */\n  dup4\n  and\n  swap1\n    /* \"TTT_token.sol\":14592:14593  0 */\n  0x00\n  swap1\n    /* \"TTT_token.sol\":14575:14612  Transfer(address(0), account, amount) */\n  0xddf252ad1be2c89b69c2b068fc378daa952ba7f163c4a11628f55a4df523b3ef\n  swap1\n    /* \"#utility.yul\":5047:5049   */\n  0x20\n    /* \"#utility.yul\":5032:5050   */\n  add\n    /* \"TTT_token.sol\":14575:14612  Transfer(address(0), account, amount) */\n  mload(0x40)\n  dup1\n  swap2\n  sub\n  swap1\n  log3\n    /* \"TTT_token.sol\":14282:14681  function _mint(address account, uint256 amount) internal virtual {... */\n  pop\n  pop\n  jump\t// out\n    /* \"TTT_token.sol\":14013:14138  function _beforeTokenTransfer(... */\ntag_27:\n  pop\n  pop\n  pop\n  jump\t// out\n    /* \"#utility.yul\":14:141   */\ntag_37:\n    /* \"#utility.yul\":75:85   */\n  0x4e487b71\n    /* \"#utility.yul\":70:73   */\n  0xe0\n    /* \"#utility.yul\":66:86   */\n  shl\n    /* \"#utility.yul\":63:64   */\n  0x00\n    /* \"#utility.yul\":56:87   */\n  mstore\n    /* \"#utility.yul\":106:110   */\n  0x41\n    /* \"#utility.yul\":103:104   */\n  0x04\n    /* \"#utility.yul\":96:111   */\n  mstore\n    /* \"#utility.yul\":130:134   */\n  0x24\n    /* \"#utility.yul\":127:128   */\n  0x00\n    /* \"#utility.yul\":120:135   */\n  revert\n    /* \"#utility.yul\":146:526   */\ntag_38:\n    /* \"#utility.yul\":225:226   */\n  0x01\n    /* \"#utility.yul\":221:233   */\n  dup2\n  dup2\n  shr\n  swap1\n    /* \"#utility.yul\":268:280   */\n  dup3\n  and\n  dup1\n    /* \"#utility.yul\":289:350   */\n  tag_48\n  jumpi\n    /* \"#utility.yul\":343:347   */\n  0x7f\n    /* \"#utility.yul\":335:341   */\n  dup3\n    /* \"#utility.yul\":331:348   */\n  and\n    /* \"#utility.yul\":321:348   */\n  swap2\n  pop\n    /* \"#utility.yul\":289:350   */\ntag_48:\n    /* \"#utility.yul\":396:398   */\n  0x20\n    /* \"#utility.yul\":388:394   */\n  dup3\n    /* \"#utility.yul\":385:399   */\n  lt\n    /* \"#utility.yul\":365:383   */\n  dup2\n    /* \"#utility.yul\":362:400   */\n  sub\n    /* \"#utility.yul\":359:520   */\n  tag_49\n  jumpi\n    /* \"#utility.yul\":442:452   */\n  0x4e487b71\n    /* \"#utility.yul\":437:440   */\n  0xe0\n    /* \"#utility.yul\":433:453   */\n  shl\n    /* \"#utility.yul\":430:431   */\n  0x00\n    /* \"#utility.yul\":423:454   */\n  mstore\n    /* \"#utility.yul\":477:481   */\n  0x22\n    /* \"#utility.yul\":474:475   */\n  0x04\n    /* \"#utility.yul\":467:482   */\n  mstore\n    /* \"#utility.yul\":505:509   */\n  0x24\n    /* \"#utility.yul\":502:503   */\n  0x00\n    /* \"#utility.yul\":495:510   */\n  revert\n    /* \"#utility.yul\":359:520   */\ntag_49:\n  pop\n    /* \"#utility.yul\":146:526   */\n  swap2\n  swap1\n  pop\n  jump\t// out\n    /* \"#utility.yul\":657:1202   */\ntag_40:\n    /* \"#utility.yul\":759:761   */\n  0x1f\n    /* \"#utility.yul\":754:757   */\n  dup3\n    /* \"#utility.yul\":751:762   */\n  gt\n    /* \"#utility.yul\":748:1196   */\n  iszero\n  tag_27\n  jumpi\n    /* \"#utility.yul\":795:796   */\n  0x00\n    /* \"#utility.yul\":820:825   */\n  dup2\n    /* \"#utility.yul\":816:818   */\n  dup2\n    /* \"#utility.yul\":809:826   */\n  mstore\n    /* \"#utility.yul\":865:869   */\n  0x20\n    /* \"#utility.yul\":861:863   */\n  dup2\n    /* \"#utility.yul\":851:870   */\n  keccak256\n    /* \"#utility.yul\":935:937   */\n  0x1f\n    /* \"#utility.yul\":923:933   */\n  dup6\n    /* \"#utility.yul\":919:938   */\n  add\n    /* \"#utility.yul\":916:917   */\n  0x05\n    /* \"#utility.yul\":912:939   */\n  shr\n    /* \"#utility.yul\":906:910   */\n  dup2\n    /* \"#utility.yul\":902:940   */\n  add\n    /* \"#utility.yul\":971:975   */\n  0x20\n    /* \"#utility.yul\":959:969   */\n  dup7\n    /* \"#utility.yul\":956:976   */\n  lt\n    /* \"#utility.yul\":953:1000   */\n  iszero\n  tag_53\n  jumpi\n  pop\n    /* \"#utility.yul\":994:998   */\n  dup1\n    /* \"#utility.yul\":953:1000   */\ntag_53:\n    /* \"#utility.yul\":1049:1051   */\n  0x1f\n    /* \"#utility.yul\":1044:1047   */\n  dup6\n    /* \"#utility.yul\":1040:1052   */\n  add\n    /* \"#utility.yul\":1037:1038   */\n  0x05\n    /* \"#utility.yul\":1033:1053   */\n  shr\n    /* \"#utility.yul\":1027:1031   */\n  dup3\n    /* \"#utility.yul\":1023:1054   */\n  add\n    /* \"#utility.yul\":1013:1054   */\n  swap2\n  pop\n    /* \"#utility.yul\":1104:1186   */\ntag_54:\n    /* \"#utility.yul\":1122:1124   */\n  dup2\n    /* \"#utility.yul\":1115:1120   */\n  dup2\n    /* \"#utility.yul\":1112:1125   */\n  lt\n    /* \"#utility.yul\":1104:1186   */\n  iszero\n  tag_56\n  jumpi\n    /* \"#utility.yul\":1167:1184   */\n  dup3\n  dup2\n  sstore\n    /* \"#utility.yul\":1148:1149   */\n  0x01\n    /* \"#utility.yul\":1137:1150   */\n  add\n    /* \"#utility.yul\":1104:1186   */\n  jump(tag_54)\ntag_56:\n    /* \"#utility.yul\":1108:1111   */\n  pop\n  pop\n  pop\n    /* \"#utility.yul\":657:1202   */\n  pop\n  pop\n  pop\n  jump\t// out\n    /* \"#utility.yul\":1378:2730   */\ntag_9:\n    /* \"#utility.yul\":1498:1508   */\n  dup2\n  mload\n  sub(shl(0x40, 0x01), 0x01)\n    /* \"#utility.yul\":1520:1550   */\n  dup2\n  gt\n    /* \"#utility.yul\":1517:1573   */\n  iszero\n  tag_60\n  jumpi\n    /* \"#utility.yul\":1553:1571   */\n  tag_60\n  tag_37\n  jump\t// in\ntag_60:\n    /* \"#utility.yul\":1582:1679   */\n  tag_61\n    /* \"#utility.yul\":1672:1678   */\n  dup2\n    /* \"#utility.yul\":1632:1670   */\n  tag_62\n    /* \"#utility.yul\":1664:1668   */\n  dup5\n    /* \"#utility.yul\":1658:1669   */\n  sload\n    /* \"#utility.yul\":1632:1670   */\n  tag_38\n  jump\t// in\ntag_62:\n    /* \"#utility.yul\":1626:1630   */\n  dup5\n    /* \"#utility.yul\":1582:1679   */\n  tag_40\n  jump\t// in\ntag_61:\n    /* \"#utility.yul\":1734:1738   */\n  0x20\n  dup1\n    /* \"#utility.yul\":1798:1800   */\n  0x1f\n    /* \"#utility.yul\":1787:1801   */\n  dup4\n  gt\n    /* \"#utility.yul\":1815:1816   */\n  0x01\n    /* \"#utility.yul\":1810:2473   */\n  dup2\n  eq\n  tag_64\n  jumpi\n    /* \"#utility.yul\":2517:2518   */\n  0x00\n    /* \"#utility.yul\":2534:2540   */\n  dup5\n    /* \"#utility.yul\":2531:2620   */\n  iszero\n  tag_65\n  jumpi\n  pop\n    /* \"#utility.yul\":2586:2605   */\n  dup6\n  dup4\n  add\n    /* \"#utility.yul\":2580:2606   */\n  mload\n    /* \"#utility.yul\":2531:2620   */\ntag_65:\n  not(0x00)\n    /* \"#utility.yul\":1335:1336   */\n  0x03\n    /* \"#utility.yul\":1331:1342   */\n  dup7\n  swap1\n  shl\n    /* \"#utility.yul\":1327:1351   */\n  shr\n    /* \"#utility.yul\":1323:1352   */\n  not\n    /* \"#utility.yul\":1313:1353   */\n  and\n    /* \"#utility.yul\":1359:1360   */\n  0x01\n    /* \"#utility.yul\":1355:1366   */\n  dup6\n  swap1\n  shl\n    /* \"#utility.yul\":1310:1367   */\n  or\n    /* \"#utility.yul\":2633:2714   */\n  dup6\n  sstore\n    /* \"#utility.yul\":1780:2724   */\n  jump(tag_56)\n    /* \"#utility.yul\":1810:2473   */\ntag_64:\n    /* \"#utility.yul\":604:605   */\n  0x00\n    /* \"#utility.yul\":597:611   */\n  dup6\n  dup2\n  mstore\n    /* \"#utility.yul\":641:645   */\n  0x20\n    /* \"#utility.yul\":628:646   */\n  dup2\n  keccak256\n  not(0x1f)\n    /* \"#utility.yul\":1846:1866   */\n  dup7\n  and\n  swap2\n    /* \"#utility.yul\":1964:2200   */\ntag_68:\n    /* \"#utility.yul\":1978:1985   */\n  dup3\n    /* \"#utility.yul\":1975:1976   */\n  dup2\n    /* \"#utility.yul\":1972:1986   */\n  lt\n    /* \"#utility.yul\":1964:2200   */\n  iszero\n  tag_70\n  jumpi\n    /* \"#utility.yul\":2067:2086   */\n  dup9\n  dup7\n  add\n    /* \"#utility.yul\":2061:2087   */\n  mload\n    /* \"#utility.yul\":2046:2088   */\n  dup3\n  sstore\n    /* \"#utility.yul\":2159:2186   */\n  swap5\n  dup5\n  add\n  swap5\n    /* \"#utility.yul\":2127:2128   */\n  0x01\n    /* \"#utility.yul\":2115:2129   */\n  swap1\n  swap2\n  add\n  swap1\n    /* \"#utility.yul\":1994:2013   */\n  dup5\n  add\n    /* \"#utility.yul\":1964:2200   */\n  jump(tag_68)\ntag_70:\n    /* \"#utility.yul\":1968:1971   */\n  pop\n    /* \"#utility.yul\":2228:2234   */\n  dup6\n    /* \"#utility.yul\":2219:2226   */\n  dup3\n    /* \"#utility.yul\":2216:2235   */\n  lt\n    /* \"#utility.yul\":2213:2414   */\n  iszero\n  tag_71\n  jumpi\n    /* \"#utility.yul\":2289:2308   */\n  dup8\n  dup6\n  add\n    /* \"#utility.yul\":2283:2309   */\n  mload\n  not(0x00)\n    /* \"#utility.yul\":2372:2373   */\n  0x03\n    /* \"#utility.yul\":2368:2382   */\n  dup9\n  swap1\n  shl\n    /* \"#utility.yul\":2384:2387   */\n  0xf8\n    /* \"#utility.yul\":2364:2388   */\n  and\n    /* \"#utility.yul\":2360:2397   */\n  shr\n    /* \"#utility.yul\":2356:2398   */\n  not\n    /* \"#utility.yul\":2341:2399   */\n  and\n    /* \"#utility.yul\":2326:2400   */\n  dup2\n  sstore\n    /* \"#utility.yul\":2213:2414   */\ntag_71:\n  pop\n  pop\n  pop\n  pop\n  pop\n    /* \"#utility.yul\":2460:2461   */\n  0x01\n    /* \"#utility.yul\":2444:2458   */\n  swap1\n  dup2\n  shl\n    /* \"#utility.yul\":2440:2462   */\n  add\n    /* \"#utility.yul\":2427:2463   */\n  swap1\n  sstore\n  pop\n    /* \"#utility.yul\":1378:2730   */\n  jump\t// out\n    /* \"#utility.yul\":2735:2862   */\ntag_42:\n    /* \"#utility.yul\":2796:2806   */\n  0x4e487b71\n    /* \"#utility.yul\":2791:2794   */\n  0xe0\n    /* \"#utility.yul\":2787:2807   */\n  shl\n    /* \"#utility.yul\":2784:2785   */\n  0x00\n    /* \"#utility.yul\":2777:2808   */\n  mstore\n    /* \"#utility.yul\":2827:2831   */\n  0x11\n    /* \"#utility.yul\":2824:2825   */\n  0x04\n    /* \"#utility.yul\":2817:2832   */\n  mstore\n    /* \"#utility.yul\":2851:2855   */\n  0x24\n    /* \"#utility.yul\":2848:2849   */\n  0x00\n    /* \"#utility.yul\":2841:2856   */\n  revert\n    /* \"#utility.yul\":2867:3289   */\ntag_43:\n    /* \"#utility.yul\":2956:2957   */\n  0x01\n    /* \"#utility.yul\":2999:3004   */\n  dup2\n    /* \"#utility.yul\":2956:2957   */\n  dup2\n    /* \"#utility.yul\":3013:3283   */\ntag_74:\n    /* \"#utility.yul\":3034:3041   */\n  dup1\n    /* \"#utility.yul\":3024:3032   */\n  dup6\n    /* \"#utility.yul\":3021:3042   */\n  gt\n    /* \"#utility.yul\":3013:3283   */\n  iszero\n  tag_76\n  jumpi\n    /* \"#utility.yul\":3093:3097   */\n  dup2\n    /* \"#utility.yul\":3089:3090   */\n  0x00\n    /* \"#utility.yul\":3085:3091   */\n  not\n    /* \"#utility.yul\":3081:3098   */\n  div\n    /* \"#utility.yul\":3075:3079   */\n  dup3\n    /* \"#utility.yul\":3072:3099   */\n  gt\n    /* \"#utility.yul\":3069:3122   */\n  iszero\n  tag_78\n  jumpi\n    /* \"#utility.yul\":3102:3120   */\n  tag_78\n  tag_42\n  jump\t// in\ntag_78:\n    /* \"#utility.yul\":3152:3159   */\n  dup1\n    /* \"#utility.yul\":3142:3150   */\n  dup6\n    /* \"#utility.yul\":3138:3160   */\n  and\n    /* \"#utility.yul\":3135:3190   */\n  iszero\n  tag_79\n  jumpi\n    /* \"#utility.yul\":3172:3188   */\n  swap2\n  dup2\n  mul\n  swap2\n    /* \"#utility.yul\":3135:3190   */\ntag_79:\n    /* \"#utility.yul\":3251:3273   */\n  swap4\n  dup5\n  shr\n  swap4\n    /* \"#utility.yul\":3211:3226   */\n  swap1\n  dup1\n  mul\n  swap1\n    /* \"#utility.yul\":3013:3283   */\n  jump(tag_74)\ntag_76:\n    /* \"#utility.yul\":3017:3020   */\n  pop\n    /* \"#utility.yul\":2867:3289   */\n  swap3\n  pop\n  swap3\n  swap1\n  pop\n  jump\t// out\n    /* \"#utility.yul\":3294:4100   */\ntag_44:\n    /* \"#utility.yul\":3343:3348   */\n  0x00\n    /* \"#utility.yul\":3373:3381   */\n  dup3\n    /* \"#utility.yul\":3363:3443   */\n  tag_81\n  jumpi\n  pop\n    /* \"#utility.yul\":3414:3415   */\n  0x01\n    /* \"#utility.yul\":3428:3433   */\n  jump(tag_80)\n    /* \"#utility.yul\":3363:3443   */\ntag_81:\n    /* \"#utility.yul\":3462:3466   */\n  dup2\n    /* \"#utility.yul\":3452:3528   */\n  tag_82\n  jumpi\n  pop\n    /* \"#utility.yul\":3499:3500   */\n  0x00\n    /* \"#utility.yul\":3513:3518   */\n  jump(tag_80)\n    /* \"#utility.yul\":3452:3528   */\ntag_82:\n    /* \"#utility.yul\":3544:3548   */\n  dup2\n    /* \"#utility.yul\":3562:3563   */\n  0x01\n    /* \"#utility.yul\":3557:3616   */\n  dup2\n  eq\n  tag_84\n  jumpi\n    /* \"#utility.yul\":3630:3631   */\n  0x02\n    /* \"#utility.yul\":3625:3755   */\n  dup2\n  eq\n  tag_85\n  jumpi\n    /* \"#utility.yul\":3537:3755   */\n  jump(tag_83)\n    /* \"#utility.yul\":3557:3616   */\ntag_84:\n    /* \"#utility.yul\":3587:3588   */\n  0x01\n    /* \"#utility.yul\":3578:3588   */\n  swap2\n  pop\n    /* \"#utility.yul\":3601:3606   */\n  pop\n  jump(tag_80)\n    /* \"#utility.yul\":3625:3755   */\ntag_85:\n    /* \"#utility.yul\":3662:3665   */\n  0xff\n    /* \"#utility.yul\":3652:3660   */\n  dup5\n    /* \"#utility.yul\":3649:3666   */\n  gt\n    /* \"#utility.yul\":3646:3689   */\n  iszero\n  tag_87\n  jumpi\n    /* \"#utility.yul\":3669:3687   */\n  tag_87\n  tag_42\n  jump\t// in\ntag_87:\n  pop\n  pop\n    /* \"#utility.yul\":3725:3726   */\n  0x01\n    /* \"#utility.yul\":3711:3727   */\n  dup3\n  shl\n    /* \"#utility.yul\":3740:3745   */\n  jump(tag_80)\n    /* \"#utility.yul\":3537:3755   */\ntag_83:\n  pop\n    /* \"#utility.yul\":3839:3841   */\n  0x20\n    /* \"#utility.yul\":3829:3837   */\n  dup4\n    /* \"#utility.yul\":3826:3842   */\n  lt\n    /* \"#utility.yul\":3820:3823   */\n  0x0133\n    /* \"#utility.yul\":3814:3818   */\n  dup4\n    /* \"#utility.yul\":3811:3824   */\n  lt\n    /* \"#utility.yul\":3807:3843   */\n  and\n    /* \"#utility.yul\":3801:3803   */\n  0x4e\n    /* \"#utility.yul\":3791:3799   */\n  dup5\n    /* \"#utility.yul\":3788:3804   */\n  lt\n    /* \"#utility.yul\":3783:3785   */\n  0x0b\n    /* \"#utility.yul\":3777:3781   */\n  dup5\n    /* \"#utility.yul\":3774:3786   */\n  lt\n    /* \"#utility.yul\":3770:3805   */\n  and\n    /* \"#utility.yul\":3767:3844   */\n  or\n    /* \"#utility.yul\":3764:3923   */\n  iszero\n  tag_88\n  jumpi\n  pop\n    /* \"#utility.yul\":3876:3895   */\n  dup2\n  dup2\n  exp\n    /* \"#utility.yul\":3908:3913   */\n  jump(tag_80)\n    /* \"#utility.yul\":3764:3923   */\ntag_88:\n    /* \"#utility.yul\":3955:3989   */\n  tag_89\n    /* \"#utility.yul\":3980:3988   */\n  dup4\n    /* \"#utility.yul\":3974:3978   */\n  dup4\n    /* \"#utility.yul\":3955:3989   */\n  tag_43\n  jump\t// in\ntag_89:\n    /* \"#utility.yul\":4025:4031   */\n  dup1\n    /* \"#utility.yul\":4021:4022   */\n  0x00\n    /* \"#utility.yul\":4017:4023   */\n  not\n    /* \"#utility.yul\":4013:4032   */\n  div\n    /* \"#utility.yul\":4004:4011   */\n  dup3\n    /* \"#utility.yul\":4001:4033   */\n  gt\n    /* \"#utility.yul\":3998:4056   */\n  iszero\n  tag_91\n  jumpi\n    /* \"#utility.yul\":4036:4054   */\n  tag_91\n  tag_42\n  jump\t// in\ntag_91:\n    /* \"#utility.yul\":4074:4094   */\n  mul\n  swap1\n  pop\n    /* \"#utility.yul\":3294:4100   */\ntag_80:\n  swap3\n  swap2\n  pop\n  pop\n  jump\t// out\n    /* \"#utility.yul\":4105:4245   */\ntag_15:\n    /* \"#utility.yul\":4163:4168   */\n  0x00\n    /* \"#utility.yul\":4192:4239   */\n  tag_93\n    /* \"#utility.yul\":4233:4237   */\n  0xff\n    /* \"#utility.yul\":4223:4231   */\n  dup5\n    /* \"#utility.yul\":4219:4238   */\n  and\n    /* \"#utility.yul\":4213:4217   */\n  dup4\n    /* \"#utility.yul\":4192:4239   */\n  tag_44\n  jump\t// in\ntag_93:\n    /* \"#utility.yul\":4183:4239   */\n  swap4\n    /* \"#utility.yul\":4105:4245   */\n  swap3\n  pop\n  pop\n  pop\n  jump\t// out\n    /* \"#utility.yul\":4250:4418   */\ntag_17:\n    /* \"#utility.yul\":4323:4332   */\n  dup1\n  dup3\n  mul\n    /* \"#utility.yul\":4354:4363   */\n  dup2\n  iszero\n    /* \"#utility.yul\":4371:4386   */\n  dup3\n  dup3\n  div\n    /* \"#utility.yul\":4365:4387   */\n  dup5\n  eq\n    /* \"#utility.yul\":4351:4388   */\n  or\n    /* \"#utility.yul\":4341:4412   */\n  tag_80\n  jumpi\n    /* \"#utility.yul\":4392:4410   */\n  tag_80\n  tag_42\n  jump\t// in\n    /* \"#utility.yul\":4783:4908   */\ntag_29:\n    /* \"#utility.yul\":4848:4857   */\n  dup1\n  dup3\n  add\n    /* \"#utility.yul\":4869:4879   */\n  dup1\n  dup3\n  gt\n    /* \"#utility.yul\":4866:4902   */\n  iszero\n  tag_80\n  jumpi\n    /* \"#utility.yul\":4882:4900   */\n  tag_80\n  tag_42\n  jump\t// in\n    /* \"#utility.yul\":4913:5090   */\ntag_45:\n    /* \"TTT_token.sol\":5365:15283  contract StandardToken is Ownable, IERC20, IERC20Metadata {... */\n  dataSize(sub_0)\n  dup1\n  dataOffset(sub_0)\n  0x00\n  codecopy\n  0x00\n  return\nstop\n\nsub_0: assembly {\n        /* \"TTT_token.sol\":5365:15283  contract StandardToken is Ownable, IERC20, IERC20Metadata {... */\n      mstore(0x40, 0x80)\n      callvalue\n      dup1\n      iszero\n      tag_1\n      jumpi\n      0x00\n      dup1\n      revert\n    tag_1:\n      pop\n      jumpi(tag_2, lt(calldatasize, 0x04))\n      shr(0xe0, calldataload(0x00))\n      dup1\n      0x715018a6\n      gt\n      tag_19\n      jumpi\n      dup1\n      0xa9059cbb\n      gt\n      tag_20\n      jumpi\n      dup1\n      0xa9059cbb\n      eq\n      tag_15\n      jumpi\n      dup1\n      0xd936547e\n      eq\n      tag_16\n      jumpi\n      dup1\n      0xdd62ed3e\n      eq\n      tag_17\n      jumpi\n      dup1\n      0xf2fde38b\n      eq\n      tag_18\n      jumpi\n      0x00\n      dup1\n      revert\n    tag_20:\n      dup1\n      0x715018a6\n      eq\n      tag_11\n      jumpi\n      dup1\n      0x8da5cb5b\n      eq\n      tag_12\n      jumpi\n      dup1\n      0x95d89b41\n      eq\n      tag_13\n      jumpi\n      dup1\n      0xa457c2d7\n      eq\n      tag_14\n      jumpi\n      0x00\n      dup1\n      revert\n    tag_19:\n      dup1\n      0x25fa0b98\n      gt\n      tag_21\n      jumpi\n      dup1\n      0x25fa0b98\n      eq\n      tag_7\n      jumpi\n      dup1\n      0x313ce567\n      eq\n      tag_8\n      jumpi\n      dup1\n      0x39509351\n      eq\n      tag_9\n      jumpi\n      dup1\n      0x70a08231\n      eq\n      tag_10\n      jumpi\n      0x00\n      dup1\n      revert\n    tag_21:\n      dup1\n      0x06fdde03\n      eq\n      tag_3\n      jumpi\n      dup1\n      0x095ea7b3\n      eq\n      tag_4\n      jumpi\n      dup1\n      0x18160ddd\n      eq\n      tag_5\n      jumpi\n      dup1\n      0x23b872dd\n      eq\n      tag_6\n      jumpi\n    tag_2:\n      0x00\n      dup1\n      revert\n        /* \"TTT_token.sol\":6276:6376  function name() public view virtual override returns (string memory) {... */\n    tag_3:\n      tag_22\n      tag_23\n      jump\t// in\n    tag_22:\n      mload(0x40)\n      tag_24\n      swap2\n      swap1\n      tag_25\n      jump\t// in\n    tag_24:\n      mload(0x40)\n      dup1\n      swap2\n      sub\n      swap1\n      return\n        /* \"TTT_token.sol\":8583:8793  function approve(address spender, uint256 amount)... */\n    tag_4:\n      tag_26\n      tag_27\n      calldatasize\n      0x04\n      tag_28\n      jump\t// in\n    tag_27:\n      tag_29\n      jump\t// in\n    tag_26:\n      mload(0x40)\n        /* \"#utility.yul\":1169:1183   */\n      swap1\n      iszero\n        /* \"#utility.yul\":1162:1184   */\n      iszero\n        /* \"#utility.yul\":1144:1185   */\n      dup2\n      mstore\n        /* \"#utility.yul\":1132:1134   */\n      0x20\n        /* \"#utility.yul\":1117:1135   */\n      add\n        /* \"TTT_token.sol\":8583:8793  function approve(address spender, uint256 amount)... */\n      tag_24\n        /* \"#utility.yul\":1004:1191   */\n      jump\n        /* \"TTT_token.sol\":7395:7503  function totalSupply() public view virtual override returns (uint256) {... */\n    tag_5:\n        /* \"TTT_token.sol\":7483:7495  _totalSupply */\n      sload(0x03)\n        /* \"TTT_token.sol\":7395:7503  function totalSupply() public view virtual override returns (uint256) {... */\n    tag_32:\n      mload(0x40)\n        /* \"#utility.yul\":1342:1367   */\n      swap1\n      dup2\n      mstore\n        /* \"#utility.yul\":1330:1332   */\n      0x20\n        /* \"#utility.yul\":1315:1333   */\n      add\n        /* \"TTT_token.sol\":7395:7503  function totalSupply() public view virtual override returns (uint256) {... */\n      tag_24\n        /* \"#utility.yul\":1196:1373   */\n      jump\n        /* \"TTT_token.sol\":9275:9768  function transferFrom(... */\n    tag_6:\n      tag_26\n      tag_37\n      calldatasize\n      0x04\n      tag_38\n      jump\t// in\n    tag_37:\n      tag_39\n      jump\t// in\n        /* \"TTT_token.sol\":5599:5620  bool public tradeOpen */\n    tag_7:\n      sload(0x04)\n      tag_26\n      swap1\n      0xff\n      and\n      dup2\n      jump\n        /* \"TTT_token.sol\":7238:7330  function decimals() public view virtual override returns (uint8) {... */\n    tag_8:\n      mload(0x40)\n        /* \"TTT_token.sol\":7321:7322  9 */\n      0x09\n        /* \"#utility.yul\":1853:1889   */\n      dup2\n      mstore\n        /* \"#utility.yul\":1841:1843   */\n      0x20\n        /* \"#utility.yul\":1826:1844   */\n      add\n        /* \"TTT_token.sol\":7238:7330  function decimals() public view virtual override returns (uint8) {... */\n      tag_24\n        /* \"#utility.yul\":1711:1895   */\n      jump\n        /* \"TTT_token.sol\":10177:10474  function increaseAllowance(address spender, uint256 addedValue)... */\n    tag_9:\n      tag_26\n      tag_49\n      calldatasize\n      0x04\n      tag_28\n      jump\t// in\n    tag_49:\n      tag_50\n      jump\t// in\n        /* \"TTT_token.sol\":7566:7743  function balanceOf(address account)... */\n    tag_10:\n      tag_32\n      tag_53\n      calldatasize\n      0x04\n      tag_54\n      jump\t// in\n    tag_53:\n      sub(shl(0xa0, 0x01), 0x01)\n        /* \"TTT_token.sol\":7717:7735  _balances[account] */\n      and\n        /* \"TTT_token.sol\":7685:7692  uint256 */\n      0x00\n        /* \"TTT_token.sol\":7717:7735  _balances[account] */\n      swap1\n      dup2\n      mstore\n        /* \"TTT_token.sol\":7717:7726  _balances */\n      0x01\n        /* \"TTT_token.sol\":7717:7735  _balances[account] */\n      0x20\n      mstore\n      0x40\n      swap1\n      keccak256\n      sload\n      swap1\n        /* \"TTT_token.sol\":7566:7743  function balanceOf(address account)... */\n      jump\n        /* \"TTT_token.sol\":4774:4922  function renounceOwnership() public virtual onlyOwner {... */\n    tag_11:\n      tag_57\n      tag_58\n      jump\t// in\n    tag_57:\n      stop\n        /* \"TTT_token.sol\":4132:4211  function owner() public view returns (address) {... */\n    tag_12:\n        /* \"TTT_token.sol\":4170:4177  address */\n      0x00\n        /* \"TTT_token.sol\":4197:4203  _owner */\n      sload\n        /* \"TTT_token.sol\":4132:4211  function owner() public view returns (address) {... */\n      mload(0x40)\n      sub(shl(0xa0, 0x01), 0x01)\n        /* \"TTT_token.sol\":4197:4203  _owner */\n      swap1\n      swap2\n      and\n        /* \"#utility.yul\":2237:2288   */\n      dup2\n      mstore\n        /* \"#utility.yul\":2225:2227   */\n      0x20\n        /* \"#utility.yul\":2210:2228   */\n      add\n        /* \"TTT_token.sol\":4132:4211  function owner() public view returns (address) {... */\n      tag_24\n        /* \"#utility.yul\":2091:2294   */\n      jump\n        /* \"TTT_token.sol\":6495:6599  function symbol() public view virtual override returns (string memory) {... */\n    tag_13:\n      tag_22\n      tag_64\n      jump\t// in\n        /* \"TTT_token.sol\":10977:11423  function decreaseAllowance(address spender, uint256 subtractedValue)... */\n    tag_14:\n      tag_26\n      tag_67\n      calldatasize\n      0x04\n      tag_28\n      jump\t// in\n    tag_67:\n      tag_68\n      jump\t// in\n        /* \"TTT_token.sol\":7956:8172  function transfer(address recipient, uint256 amount)... */\n    tag_15:\n      tag_26\n      tag_71\n      calldatasize\n      0x04\n      tag_28\n      jump\t// in\n    tag_71:\n      tag_72\n      jump\t// in\n        /* \"TTT_token.sol\":5629:5672  mapping(address => bool) public whitelisted */\n    tag_16:\n      tag_26\n      tag_75\n      calldatasize\n      0x04\n      tag_54\n      jump\t// in\n    tag_75:\n      mstore(0x20, 0x05)\n      0x00\n      swap1\n      dup2\n      mstore\n      0x40\n      swap1\n      keccak256\n      sload\n      0xff\n      and\n      dup2\n      jump\n        /* \"TTT_token.sol\":8235:8436  function allowance(address owner, address spender)... */\n    tag_17:\n      tag_32\n      tag_79\n      calldatasize\n      0x04\n      tag_80\n      jump\t// in\n    tag_79:\n      sub(shl(0xa0, 0x01), 0x01)\n        /* \"TTT_token.sol\":8401:8419  _allowances[owner] */\n      swap2\n      dup3\n      and\n        /* \"TTT_token.sol\":8369:8376  uint256 */\n      0x00\n        /* \"TTT_token.sol\":8401:8419  _allowances[owner] */\n      swap1\n      dup2\n      mstore\n        /* \"TTT_token.sol\":8401:8412  _allowances */\n      0x02\n        /* \"TTT_token.sol\":8401:8419  _allowances[owner] */\n      0x20\n      swap1\n      dup2\n      mstore\n      0x40\n      dup1\n      dup4\n      keccak256\n        /* \"TTT_token.sol\":8401:8428  _allowances[owner][spender] */\n      swap4\n      swap1\n      swap5\n      and\n      dup3\n      mstore\n      swap2\n      swap1\n      swap2\n      mstore\n      keccak256\n      sload\n      swap1\n        /* \"TTT_token.sol\":8235:8436  function allowance(address owner, address spender)... */\n      jump\n        /* \"TTT_token.sol\":5077:5358  function transferOwnership(address newOwner) public virtual onlyOwner {... */\n    tag_18:\n      tag_57\n      tag_84\n      calldatasize\n      0x04\n      tag_54\n      jump\t// in\n    tag_84:\n      tag_85\n      jump\t// in\n        /* \"TTT_token.sol\":6276:6376  function name() public view virtual override returns (string memory) {... */\n    tag_23:\n        /* \"TTT_token.sol\":6330:6343  string memory */\n      0x60\n        /* \"TTT_token.sol\":6363:6368  _name */\n      0x06\n        /* \"TTT_token.sol\":6356:6368  return _name */\n      dup1\n      sload\n      tag_87\n      swap1\n      tag_88\n      jump\t// in\n    tag_87:\n      dup1\n      0x1f\n      add\n      0x20\n      dup1\n      swap2\n      div\n      mul\n      0x20\n      add\n      mload(0x40)\n      swap1\n      dup2\n      add\n      0x40\n      mstore\n      dup1\n      swap3\n      swap2\n      swap1\n      dup2\n      dup2\n      mstore\n      0x20\n      add\n      dup3\n      dup1\n      sload\n      tag_89\n      swap1\n      tag_88\n      jump\t// in\n    tag_89:\n      dup1\n      iszero\n      tag_90\n      jumpi\n      dup1\n      0x1f\n      lt\n      tag_91\n      jumpi\n      0x0100\n      dup1\n      dup4\n      sload\n      div\n      mul\n      dup4\n      mstore\n      swap2\n      0x20\n      add\n      swap2\n      jump(tag_90)\n    tag_91:\n      dup3\n      add\n      swap2\n      swap1\n      0x00\n      mstore\n      keccak256(0x00, 0x20)\n      swap1\n    tag_92:\n      dup2\n      sload\n      dup2\n      mstore\n      swap1\n      0x01\n      add\n      swap1\n      0x20\n      add\n      dup1\n      dup4\n      gt\n      tag_92\n      jumpi\n      dup3\n      swap1\n      sub\n      0x1f\n      and\n      dup3\n      add\n      swap2\n    tag_90:\n      pop\n      pop\n      pop\n      pop\n      pop\n      swap1\n      pop\n        /* \"TTT_token.sol\":6276:6376  function name() public view virtual override returns (string memory) {... */\n      swap1\n      jump\t// out\n        /* \"TTT_token.sol\":8583:8793  function approve(address spender, uint256 amount)... */\n    tag_29:\n        /* \"TTT_token.sol\":8702:8706  bool */\n      0x00\n        /* \"TTT_token.sol\":8724:8763  _approve(_msgSender(), spender, amount) */\n      tag_94\n        /* \"TTT_token.sol\":3403:3413  msg.sender */\n      caller\n        /* \"TTT_token.sol\":8747:8754  spender */\n      dup5\n        /* \"TTT_token.sol\":8756:8762  amount */\n      dup5\n        /* \"TTT_token.sol\":8724:8732  _approve */\n      tag_97\n        /* \"TTT_token.sol\":8724:8763  _approve(_msgSender(), spender, amount) */\n      jump\t// in\n    tag_94:\n      pop\n        /* \"TTT_token.sol\":8781:8785  true */\n      0x01\n        /* \"TTT_token.sol\":8583:8793  function approve(address spender, uint256 amount)... */\n    tag_93:\n      swap3\n      swap2\n      pop\n      pop\n      jump\t// out\n        /* \"TTT_token.sol\":9275:9768  function transferFrom(... */\n    tag_39:\n        /* \"TTT_token.sol\":9415:9419  bool */\n      0x00\n        /* \"TTT_token.sol\":9432:9468  _transfer(sender, recipient, amount) */\n      tag_100\n        /* \"TTT_token.sol\":9442:9448  sender */\n      dup5\n        /* \"TTT_token.sol\":9450:9459  recipient */\n      dup5\n        /* \"TTT_token.sol\":9461:9467  amount */\n      dup5\n        /* \"TTT_token.sol\":9432:9441  _transfer */\n      tag_101\n        /* \"TTT_token.sol\":9432:9468  _transfer(sender, recipient, amount) */\n      jump\t// in\n    tag_100:\n      sub(shl(0xa0, 0x01), 0x01)\n        /* \"TTT_token.sol\":9508:9527  _allowances[sender] */\n      dup5\n      and\n        /* \"TTT_token.sol\":9481:9505  uint256 currentAllowance */\n      0x00\n        /* \"TTT_token.sol\":9508:9527  _allowances[sender] */\n      swap1\n      dup2\n      mstore\n        /* \"TTT_token.sol\":9508:9519  _allowances */\n      0x02\n        /* \"TTT_token.sol\":9508:9527  _allowances[sender] */\n      0x20\n      swap1\n      dup2\n      mstore\n      0x40\n      dup1\n      dup4\n      keccak256\n        /* \"TTT_token.sol\":3403:3413  msg.sender */\n      caller\n        /* \"TTT_token.sol\":9508:9541  _allowances[sender][_msgSender()] */\n      dup5\n      mstore\n      swap1\n      swap2\n      mstore\n      swap1\n      keccak256\n      sload\n        /* \"TTT_token.sol\":9574:9600  currentAllowance >= amount */\n      dup3\n      dup2\n      lt\n      iszero\n        /* \"TTT_token.sol\":9552:9668  require(... */\n      tag_103\n      jumpi\n      mload(0x40)\n      shl(0xe5, 0x461bcd)\n      dup2\n      mstore\n        /* \"#utility.yul\":3151:3153   */\n      0x20\n        /* \"TTT_token.sol\":9552:9668  require(... */\n      0x04\n      dup3\n      add\n        /* \"#utility.yul\":3133:3154   */\n      mstore\n        /* \"#utility.yul\":3190:3192   */\n      0x28\n        /* \"#utility.yul\":3170:3188   */\n      0x24\n      dup3\n      add\n        /* \"#utility.yul\":3163:3193   */\n      mstore\n        /* \"#utility.yul\":3229:3263   */\n      0x45524332303a207472616e7366657220616d6f756e7420657863656564732061\n        /* \"#utility.yul\":3209:3227   */\n      0x44\n      dup3\n      add\n        /* \"#utility.yul\":3202:3264   */\n      mstore\n      shl(0xc0, 0x6c6c6f77616e6365)\n        /* \"#utility.yul\":3280:3298   */\n      0x64\n      dup3\n      add\n        /* \"#utility.yul\":3273:3311   */\n      mstore\n        /* \"#utility.yul\":3328:3347   */\n      0x84\n      add\n        /* \"TTT_token.sol\":9552:9668  require(... */\n    tag_104:\n      mload(0x40)\n      dup1\n      swap2\n      sub\n      swap1\n      revert\n    tag_103:\n        /* \"TTT_token.sol\":9679:9736  _approve(sender, _msgSender(), currentAllowance - amount) */\n      tag_106\n        /* \"TTT_token.sol\":9688:9694  sender */\n      dup6\n        /* \"TTT_token.sol\":3403:3413  msg.sender */\n      caller\n        /* \"TTT_token.sol\":9710:9735  currentAllowance - amount */\n      tag_108\n        /* \"TTT_token.sol\":9729:9735  amount */\n      dup7\n        /* \"TTT_token.sol\":9710:9726  currentAllowance */\n      dup6\n        /* \"TTT_token.sol\":9710:9735  currentAllowance - amount */\n      tag_109\n      jump\t// in\n    tag_108:\n        /* \"TTT_token.sol\":9679:9687  _approve */\n      tag_97\n        /* \"TTT_token.sol\":9679:9736  _approve(sender, _msgSender(), currentAllowance - amount) */\n      jump\t// in\n    tag_106:\n      pop\n        /* \"TTT_token.sol\":9756:9760  true */\n      0x01\n      swap5\n        /* \"TTT_token.sol\":9275:9768  function transferFrom(... */\n      swap4\n      pop\n      pop\n      pop\n      pop\n      jump\t// out\n        /* \"TTT_token.sol\":10177:10474  function increaseAllowance(address spender, uint256 addedValue)... */\n    tag_50:\n        /* \"TTT_token.sol\":3403:3413  msg.sender */\n      caller\n        /* \"TTT_token.sol\":10292:10296  bool */\n      0x00\n        /* \"TTT_token.sol\":10386:10411  _allowances[_msgSender()] */\n      dup2\n      dup2\n      mstore\n        /* \"TTT_token.sol\":10386:10397  _allowances */\n      0x02\n        /* \"TTT_token.sol\":10386:10411  _allowances[_msgSender()] */\n      0x20\n      swap1\n      dup2\n      mstore\n      0x40\n      dup1\n      dup4\n      keccak256\n      sub(shl(0xa0, 0x01), 0x01)\n        /* \"TTT_token.sol\":10386:10420  _allowances[_msgSender()][spender] */\n      dup8\n      and\n      dup5\n      mstore\n      swap1\n      swap2\n      mstore\n      dup2\n      keccak256\n      sload\n        /* \"TTT_token.sol\":10292:10296  bool */\n      swap1\n      swap2\n        /* \"TTT_token.sol\":10314:10444  _approve(... */\n      tag_94\n      swap2\n        /* \"TTT_token.sol\":10364:10371  spender */\n      dup6\n      swap1\n        /* \"TTT_token.sol\":10386:10433  _allowances[_msgSender()][spender] + addedValue */\n      tag_108\n      swap1\n        /* \"TTT_token.sol\":10423:10433  addedValue */\n      dup7\n      swap1\n        /* \"TTT_token.sol\":10386:10433  _allowances[_msgSender()][spender] + addedValue */\n      tag_116\n      jump\t// in\n        /* \"TTT_token.sol\":4774:4922  function renounceOwnership() public virtual onlyOwner {... */\n    tag_58:\n        /* \"TTT_token.sol\":4344:4350  _owner */\n      and(sub(shl(0xa0, 0x01), 0x01), sload(0x00))\n        /* \"TTT_token.sol\":3403:3413  msg.sender */\n      caller\n        /* \"TTT_token.sol\":4344:4366  _owner == _msgSender() */\n      eq\n        /* \"TTT_token.sol\":4336:4403  require(_owner == _msgSender(), \"Ownable: caller is not the owner\") */\n      tag_120\n      jumpi\n      mload(0x40)\n      shl(0xe5, 0x461bcd)\n      dup2\n      mstore\n        /* \"#utility.yul\":3955:3957   */\n      0x20\n        /* \"TTT_token.sol\":4336:4403  require(_owner == _msgSender(), \"Ownable: caller is not the owner\") */\n      0x04\n      dup3\n      add\n        /* \"#utility.yul\":3937:3958   */\n      dup2\n      swap1\n      mstore\n        /* \"#utility.yul\":3974:3992   */\n      0x24\n      dup3\n      add\n        /* \"#utility.yul\":3967:3997   */\n      mstore\n        /* \"#utility.yul\":4033:4067   */\n      0x4f776e61626c653a2063616c6c6572206973206e6f7420746865206f776e6572\n        /* \"#utility.yul\":4013:4031   */\n      0x44\n      dup3\n      add\n        /* \"#utility.yul\":4006:4068   */\n      mstore\n        /* \"#utility.yul\":4085:4103   */\n      0x64\n      add\n        /* \"TTT_token.sol\":4336:4403  require(_owner == _msgSender(), \"Ownable: caller is not the owner\") */\n      tag_104\n        /* \"#utility.yul\":3753:4109   */\n      jump\n        /* \"TTT_token.sol\":4336:4403  require(_owner == _msgSender(), \"Ownable: caller is not the owner\") */\n    tag_120:\n        /* \"TTT_token.sol\":4881:4882  0 */\n      0x00\n        /* \"TTT_token.sol\":4865:4871  _owner */\n      dup1\n      sload\n        /* \"TTT_token.sol\":4844:4884  OwnershipTransferred(_owner, address(0)) */\n      mload(0x40)\n      sub(shl(0xa0, 0x01), 0x01)\n        /* \"TTT_token.sol\":4865:4871  _owner */\n      swap1\n      swap2\n      and\n      swap1\n        /* \"TTT_token.sol\":4844:4884  OwnershipTransferred(_owner, address(0)) */\n      0x8be0079c531659141344cd1fd0a4f28419497f9722a3daafe3b4186f6b6457e0\n      swap1\n        /* \"TTT_token.sol\":4881:4882  0 */\n      dup4\n      swap1\n        /* \"TTT_token.sol\":4844:4884  OwnershipTransferred(_owner, address(0)) */\n      log3\n        /* \"TTT_token.sol\":4912:4913  0 */\n      0x00\n        /* \"TTT_token.sol\":4895:4914  _owner = address(0) */\n      dup1\n      sload\n      not(sub(shl(0xa0, 0x01), 0x01))\n      and\n      swap1\n      sstore\n        /* \"TTT_token.sol\":4774:4922  function renounceOwnership() public virtual onlyOwner {... */\n      jump\t// out\n        /* \"TTT_token.sol\":6495:6599  function symbol() public view virtual override returns (string memory) {... */\n    tag_64:\n        /* \"TTT_token.sol\":6551:6564  string memory */\n      0x60\n        /* \"TTT_token.sol\":6584:6591  _symbol */\n      0x07\n        /* \"TTT_token.sol\":6577:6591  return _symbol */\n      dup1\n      sload\n      tag_87\n      swap1\n      tag_88\n      jump\t// in\n        /* \"TTT_token.sol\":10977:11423  function decreaseAllowance(address spender, uint256 subtractedValue)... */\n    tag_68:\n        /* \"TTT_token.sol\":3403:3413  msg.sender */\n      caller\n        /* \"TTT_token.sol\":11097:11101  bool */\n      0x00\n        /* \"TTT_token.sol\":11146:11171  _allowances[_msgSender()] */\n      swap1\n      dup2\n      mstore\n        /* \"TTT_token.sol\":11146:11157  _allowances */\n      0x02\n        /* \"TTT_token.sol\":11146:11171  _allowances[_msgSender()] */\n      0x20\n      swap1\n      dup2\n      mstore\n      0x40\n      dup1\n      dup4\n      keccak256\n      sub(shl(0xa0, 0x01), 0x01)\n        /* \"TTT_token.sol\":11146:11180  _allowances[_msgSender()][spender] */\n      dup7\n      and\n      dup5\n      mstore\n      swap1\n      swap2\n      mstore\n      dup2\n      keccak256\n      sload\n        /* \"TTT_token.sol\":11213:11248  currentAllowance >= subtractedValue */\n      dup3\n      dup2\n      lt\n      iszero\n        /* \"TTT_token.sol\":11191:11313  require(... */\n      tag_133\n      jumpi\n      mload(0x40)\n      shl(0xe5, 0x461bcd)\n      dup2\n      mstore\n        /* \"#utility.yul\":4316:4318   */\n      0x20\n        /* \"TTT_token.sol\":11191:11313  require(... */\n      0x04\n      dup3\n      add\n        /* \"#utility.yul\":4298:4319   */\n      mstore\n        /* \"#utility.yul\":4355:4357   */\n      0x25\n        /* \"#utility.yul\":4335:4353   */\n      0x24\n      dup3\n      add\n        /* \"#utility.yul\":4328:4358   */\n      mstore\n        /* \"#utility.yul\":4394:4428   */\n      0x45524332303a2064656372656173656420616c6c6f77616e63652062656c6f77\n        /* \"#utility.yul\":4374:4392   */\n      0x44\n      dup3\n      add\n        /* \"#utility.yul\":4367:4429   */\n      mstore\n      shl(0xd8, 0x207a65726f)\n        /* \"#utility.yul\":4445:4463   */\n      0x64\n      dup3\n      add\n        /* \"#utility.yul\":4438:4473   */\n      mstore\n        /* \"#utility.yul\":4490:4509   */\n      0x84\n      add\n        /* \"TTT_token.sol\":11191:11313  require(... */\n      tag_104\n        /* \"#utility.yul\":4114:4515   */\n      jump\n        /* \"TTT_token.sol\":11191:11313  require(... */\n    tag_133:\n        /* \"TTT_token.sol\":11324:11391  _approve(_msgSender(), spender, currentAllowance - subtractedValue) */\n      tag_136\n        /* \"TTT_token.sol\":3403:3413  msg.sender */\n      caller\n        /* \"TTT_token.sol\":11347:11354  spender */\n      dup6\n        /* \"TTT_token.sol\":11356:11390  currentAllowance - subtractedValue */\n      tag_108\n        /* \"TTT_token.sol\":11375:11390  subtractedValue */\n      dup7\n        /* \"TTT_token.sol\":11356:11372  currentAllowance */\n      dup6\n        /* \"TTT_token.sol\":11356:11390  currentAllowance - subtractedValue */\n      tag_109\n      jump\t// in\n        /* \"TTT_token.sol\":11324:11391  _approve(_msgSender(), spender, currentAllowance - subtractedValue) */\n    tag_136:\n      pop\n        /* \"TTT_token.sol\":11411:11415  true */\n      0x01\n      swap4\n        /* \"TTT_token.sol\":10977:11423  function decreaseAllowance(address spender, uint256 subtractedValue)... */\n      swap3\n      pop\n      pop\n      pop\n      jump\t// out\n        /* \"TTT_token.sol\":7956:8172  function transfer(address recipient, uint256 amount)... */\n    tag_72:\n        /* \"TTT_token.sol\":8078:8082  bool */\n      0x00\n        /* \"TTT_token.sol\":8100:8142  _transfer(_msgSender(), recipient, amount) */\n      tag_94\n        /* \"TTT_token.sol\":3403:3413  msg.sender */\n      caller\n        /* \"TTT_token.sol\":8124:8133  recipient */\n      dup5\n        /* \"TTT_token.sol\":8135:8141  amount */\n      dup5\n        /* \"TTT_token.sol\":8100:8109  _transfer */\n      tag_101\n        /* \"TTT_token.sol\":8100:8142  _transfer(_msgSender(), recipient, amount) */\n      jump\t// in\n        /* \"TTT_token.sol\":5077:5358  function transferOwnership(address newOwner) public virtual onlyOwner {... */\n    tag_85:\n        /* \"TTT_token.sol\":4344:4350  _owner */\n      and(sub(shl(0xa0, 0x01), 0x01), sload(0x00))\n        /* \"TTT_token.sol\":3403:3413  msg.sender */\n      caller\n        /* \"TTT_token.sol\":4344:4366  _owner == _msgSender() */\n      eq\n        /* \"TTT_token.sol\":4336:4403  require(_owner == _msgSender(), \"Ownable: caller is not the owner\") */\n      tag_145\n      jumpi\n      mload(0x40)\n      shl(0xe5, 0x461bcd)\n      dup2\n      mstore\n        /* \"#utility.yul\":3955:3957   */\n      0x20\n        /* \"TTT_token.sol\":4336:4403  require(_owner == _msgSender(), \"Ownable: caller is not the owner\") */\n      0x04\n      dup3\n      add\n        /* \"#utility.yul\":3937:3958   */\n      dup2\n      swap1\n      mstore\n        /* \"#utility.yul\":3974:3992   */\n      0x24\n      dup3\n      add\n        /* \"#utility.yul\":3967:3997   */\n      mstore\n        /* \"#utility.yul\":4033:4067   */\n      0x4f776e61626c653a2063616c6c6572206973206e6f7420746865206f776e6572\n        /* \"#utility.yul\":4013:4031   */\n      0x44\n      dup3\n      add\n        /* \"#utility.yul\":4006:4068   */\n      mstore\n        /* \"#utility.yul\":4085:4103   */\n      0x64\n      add\n        /* \"TTT_token.sol\":4336:4403  require(_owner == _msgSender(), \"Ownable: caller is not the owner\") */\n      tag_104\n        /* \"#utility.yul\":3753:4109   */\n      jump\n        /* \"TTT_token.sol\":4336:4403  require(_owner == _msgSender(), \"Ownable: caller is not the owner\") */\n    tag_145:\n      sub(shl(0xa0, 0x01), 0x01)\n        /* \"TTT_token.sol\":5180:5202  newOwner != address(0) */\n      dup2\n      and\n        /* \"TTT_token.sol\":5158:5268  require(... */\n      tag_148\n      jumpi\n      mload(0x40)\n      shl(0xe5, 0x461bcd)\n      dup2\n      mstore\n        /* \"#utility.yul\":4722:4724   */\n      0x20\n        /* \"TTT_token.sol\":5158:5268  require(... */\n      0x04\n      dup3\n      add\n        /* \"#utility.yul\":4704:4725   */\n      mstore\n        /* \"#utility.yul\":4761:4763   */\n      0x26\n        /* \"#utility.yul\":4741:4759   */\n      0x24\n      dup3\n      add\n        /* \"#utility.yul\":4734:4764   */\n      mstore\n        /* \"#utility.yul\":4800:4834   */\n      0x4f776e61626c653a206e6577206f776e657220697320746865207a65726f2061\n        /* \"#utility.yul\":4780:4798   */\n      0x44\n      dup3\n      add\n        /* \"#utility.yul\":4773:4835   */\n      mstore\n      shl(0xd0, 0x646472657373)\n        /* \"#utility.yul\":4851:4869   */\n      0x64\n      dup3\n      add\n        /* \"#utility.yul\":4844:4880   */\n      mstore\n        /* \"#utility.yul\":4897:4916   */\n      0x84\n      add\n        /* \"TTT_token.sol\":5158:5268  require(... */\n      tag_104\n        /* \"#utility.yul\":4520:4922   */\n      jump\n        /* \"TTT_token.sol\":5158:5268  require(... */\n    tag_148:\n        /* \"TTT_token.sol\":5305:5311  _owner */\n      0x00\n      dup1\n      sload\n        /* \"TTT_token.sol\":5284:5322  OwnershipTransferred(_owner, newOwner) */\n      mload(0x40)\n      sub(shl(0xa0, 0x01), 0x01)\n      dup1\n      dup6\n      and\n      swap4\n        /* \"TTT_token.sol\":5305:5311  _owner */\n      swap3\n      and\n      swap2\n        /* \"TTT_token.sol\":5284:5322  OwnershipTransferred(_owner, newOwner) */\n      0x8be0079c531659141344cd1fd0a4f28419497f9722a3daafe3b4186f6b6457e0\n      swap2\n      log3\n        /* \"TTT_token.sol\":5333:5339  _owner */\n      0x00\n        /* \"TTT_token.sol\":5333:5350  _owner = newOwner */\n      dup1\n      sload\n      not(sub(shl(0xa0, 0x01), 0x01))\n      and\n      sub(shl(0xa0, 0x01), 0x01)\n      swap3\n      swap1\n      swap3\n      and\n      swap2\n      swap1\n      swap2\n      or\n      swap1\n      sstore\n        /* \"TTT_token.sol\":5077:5358  function transferOwnership(address newOwner) public virtual onlyOwner {... */\n      jump\t// out\n        /* \"TTT_token.sol\":13030:13410  function _approve(... */\n    tag_97:\n      sub(shl(0xa0, 0x01), 0x01)\n        /* \"TTT_token.sol\":13166:13185  owner != address(0) */\n      dup4\n      and\n        /* \"TTT_token.sol\":13158:13226  require(owner != address(0), \"ERC20: approve from the zero address\") */\n      tag_153\n      jumpi\n      mload(0x40)\n      shl(0xe5, 0x461bcd)\n      dup2\n      mstore\n        /* \"#utility.yul\":5129:5131   */\n      0x20\n        /* \"TTT_token.sol\":13158:13226  require(owner != address(0), \"ERC20: approve from the zero address\") */\n      0x04\n      dup3\n      add\n        /* \"#utility.yul\":5111:5132   */\n      mstore\n        /* \"#utility.yul\":5168:5170   */\n      0x24\n        /* \"#utility.yul\":5148:5166   */\n      dup1\n      dup3\n      add\n        /* \"#utility.yul\":5141:5171   */\n      mstore\n        /* \"#utility.yul\":5207:5241   */\n      0x45524332303a20617070726f76652066726f6d20746865207a65726f20616464\n        /* \"#utility.yul\":5187:5205   */\n      0x44\n      dup3\n      add\n        /* \"#utility.yul\":5180:5242   */\n      mstore\n      shl(0xe0, 0x72657373)\n        /* \"#utility.yul\":5258:5276   */\n      0x64\n      dup3\n      add\n        /* \"#utility.yul\":5251:5285   */\n      mstore\n        /* \"#utility.yul\":5302:5321   */\n      0x84\n      add\n        /* \"TTT_token.sol\":13158:13226  require(owner != address(0), \"ERC20: approve from the zero address\") */\n      tag_104\n        /* \"#utility.yul\":4927:5327   */\n      jump\n        /* \"TTT_token.sol\":13158:13226  require(owner != address(0), \"ERC20: approve from the zero address\") */\n    tag_153:\n      sub(shl(0xa0, 0x01), 0x01)\n        /* \"TTT_token.sol\":13245:13266  spender != address(0) */\n      dup3\n      and\n        /* \"TTT_token.sol\":13237:13305  require(spender != address(0), \"ERC20: approve to the zero address\") */\n      tag_156\n      jumpi\n      mload(0x40)\n      shl(0xe5, 0x461bcd)\n      dup2\n      mstore\n        /* \"#utility.yul\":5534:5536   */\n      0x20\n        /* \"TTT_token.sol\":13237:13305  require(spender != address(0), \"ERC20: approve to the zero address\") */\n      0x04\n      dup3\n      add\n        /* \"#utility.yul\":5516:5537   */\n      mstore\n        /* \"#utility.yul\":5573:5575   */\n      0x22\n        /* \"#utility.yul\":5553:5571   */\n      0x24\n      dup3\n      add\n        /* \"#utility.yul\":5546:5576   */\n      mstore\n        /* \"#utility.yul\":5612:5646   */\n      0x45524332303a20617070726f766520746f20746865207a65726f206164647265\n        /* \"#utility.yul\":5592:5610   */\n      0x44\n      dup3\n      add\n        /* \"#utility.yul\":5585:5647   */\n      mstore\n      shl(0xf0, 0x7373)\n        /* \"#utility.yul\":5663:5681   */\n      0x64\n      dup3\n      add\n        /* \"#utility.yul\":5656:5688   */\n      mstore\n        /* \"#utility.yul\":5705:5724   */\n      0x84\n      add\n        /* \"TTT_token.sol\":13237:13305  require(spender != address(0), \"ERC20: approve to the zero address\") */\n      tag_104\n        /* \"#utility.yul\":5332:5730   */\n      jump\n        /* \"TTT_token.sol\":13237:13305  require(spender != address(0), \"ERC20: approve to the zero address\") */\n    tag_156:\n      sub(shl(0xa0, 0x01), 0x01)\n        /* \"TTT_token.sol\":13318:13336  _allowances[owner] */\n      dup4\n      dup2\n      and\n      0x00\n      dup2\n      dup2\n      mstore\n        /* \"TTT_token.sol\":13318:13329  _allowances */\n      0x02\n        /* \"TTT_token.sol\":13318:13336  _allowances[owner] */\n      0x20\n      swap1\n      dup2\n      mstore\n      0x40\n      dup1\n      dup4\n      keccak256\n        /* \"TTT_token.sol\":13318:13345  _allowances[owner][spender] */\n      swap5\n      dup8\n      and\n      dup1\n      dup5\n      mstore\n      swap5\n      dup3\n      mstore\n      swap2\n      dup3\n      swap1\n      keccak256\n        /* \"TTT_token.sol\":13318:13354  _allowances[owner][spender] = amount */\n      dup6\n      swap1\n      sstore\n        /* \"TTT_token.sol\":13370:13402  Approval(owner, spender, amount) */\n      swap1\n      mload\n        /* \"#utility.yul\":1342:1367   */\n      dup5\n      dup2\n      mstore\n        /* \"TTT_token.sol\":13370:13402  Approval(owner, spender, amount) */\n      0x8c5be1e5ebec7d5bd14f71427d1e84f3dd0314c0f7b2291e5b200ac8c7c3b925\n      swap2\n        /* \"#utility.yul\":1315:1333   */\n      add\n        /* \"TTT_token.sol\":13370:13402  Approval(owner, spender, amount) */\n      mload(0x40)\n      dup1\n      swap2\n      sub\n      swap1\n      log3\n        /* \"TTT_token.sol\":13030:13410  function _approve(... */\n      pop\n      pop\n      pop\n      jump\t// out\n        /* \"TTT_token.sol\":11917:12592  function _transfer(... */\n    tag_101:\n      sub(shl(0xa0, 0x01), 0x01)\n        /* \"TTT_token.sol\":12057:12077  sender != address(0) */\n      dup4\n      and\n        /* \"TTT_token.sol\":12049:12119  require(sender != address(0), \"ERC20: transfer from the zero address\") */\n      tag_161\n      jumpi\n      mload(0x40)\n      shl(0xe5, 0x461bcd)\n      dup2\n      mstore\n        /* \"#utility.yul\":5937:5939   */\n      0x20\n        /* \"TTT_token.sol\":12049:12119  require(sender != address(0), \"ERC20: transfer from the zero address\") */\n      0x04\n      dup3\n      add\n        /* \"#utility.yul\":5919:5940   */\n      mstore\n        /* \"#utility.yul\":5976:5978   */\n      0x25\n        /* \"#utility.yul\":5956:5974   */\n      0x24\n      dup3\n      add\n        /* \"#utility.yul\":5949:5979   */\n      mstore\n        /* \"#utility.yul\":6015:6049   */\n      0x45524332303a207472616e736665722066726f6d20746865207a65726f206164\n        /* \"#utility.yul\":5995:6013   */\n      0x44\n      dup3\n      add\n        /* \"#utility.yul\":5988:6050   */\n      mstore\n      shl(0xd8, 0x6472657373)\n        /* \"#utility.yul\":6066:6084   */\n      0x64\n      dup3\n      add\n        /* \"#utility.yul\":6059:6094   */\n      mstore\n        /* \"#utility.yul\":6111:6130   */\n      0x84\n      add\n        /* \"TTT_token.sol\":12049:12119  require(sender != address(0), \"ERC20: transfer from the zero address\") */\n      tag_104\n        /* \"#utility.yul\":5735:6136   */\n      jump\n        /* \"TTT_token.sol\":12049:12119  require(sender != address(0), \"ERC20: transfer from the zero address\") */\n    tag_161:\n      sub(shl(0xa0, 0x01), 0x01)\n        /* \"TTT_token.sol\":12138:12161  recipient != address(0) */\n      dup3\n      and\n        /* \"TTT_token.sol\":12130:12201  require(recipient != address(0), \"ERC20: transfer to the zero address\") */\n      tag_164\n      jumpi\n      mload(0x40)\n      shl(0xe5, 0x461bcd)\n      dup2\n      mstore\n        /* \"#utility.yul\":6343:6345   */\n      0x20\n        /* \"TTT_token.sol\":12130:12201  require(recipient != address(0), \"ERC20: transfer to the zero address\") */\n      0x04\n      dup3\n      add\n        /* \"#utility.yul\":6325:6346   */\n      mstore\n        /* \"#utility.yul\":6382:6384   */\n      0x23\n        /* \"#utility.yul\":6362:6380   */\n      0x24\n      dup3\n      add\n        /* \"#utility.yul\":6355:6385   */\n      mstore\n        /* \"#utility.yul\":6421:6455   */\n      0x45524332303a207472616e7366657220746f20746865207a65726f2061646472\n        /* \"#utility.yul\":6401:6419   */\n      0x44\n      dup3\n      add\n        /* \"#utility.yul\":6394:6456   */\n      mstore\n      shl(0xe8, 0x657373)\n        /* \"#utility.yul\":6472:6490   */\n      0x64\n      dup3\n      add\n        /* \"#utility.yul\":6465:6498   */\n      mstore\n        /* \"#utility.yul\":6515:6534   */\n      0x84\n      add\n        /* \"TTT_token.sol\":12130:12201  require(recipient != address(0), \"ERC20: transfer to the zero address\") */\n      tag_104\n        /* \"#utility.yul\":6141:6540   */\n      jump\n        /* \"TTT_token.sol\":12130:12201  require(recipient != address(0), \"ERC20: transfer to the zero address\") */\n    tag_164:\n      sub(shl(0xa0, 0x01), 0x01)\n        /* \"TTT_token.sol\":12298:12315  _balances[sender] */\n      dup4\n      and\n        /* \"TTT_token.sol\":12274:12295  uint256 senderBalance */\n      0x00\n        /* \"TTT_token.sol\":12298:12315  _balances[sender] */\n      swap1\n      dup2\n      mstore\n        /* \"TTT_token.sol\":12298:12307  _balances */\n      0x01\n        /* \"TTT_token.sol\":12298:12315  _balances[sender] */\n      0x20\n      mstore\n      0x40\n      swap1\n      keccak256\n      sload\n        /* \"TTT_token.sol\":12348:12371  senderBalance >= amount */\n      dup2\n      dup2\n      lt\n      iszero\n        /* \"TTT_token.sol\":12326:12437  require(... */\n      tag_169\n      jumpi\n      mload(0x40)\n      shl(0xe5, 0x461bcd)\n      dup2\n      mstore\n        /* \"#utility.yul\":6747:6749   */\n      0x20\n        /* \"TTT_token.sol\":12326:12437  require(... */\n      0x04\n      dup3\n      add\n        /* \"#utility.yul\":6729:6750   */\n      mstore\n        /* \"#utility.yul\":6786:6788   */\n      0x26\n        /* \"#utility.yul\":6766:6784   */\n      0x24\n      dup3\n      add\n        /* \"#utility.yul\":6759:6789   */\n      mstore\n        /* \"#utility.yul\":6825:6859   */\n      0x45524332303a207472616e7366657220616d6f756e7420657863656564732062\n        /* \"#utility.yul\":6805:6823   */\n      0x44\n      dup3\n      add\n        /* \"#utility.yul\":6798:6860   */\n      mstore\n      shl(0xd0, 0x616c616e6365)\n        /* \"#utility.yul\":6876:6894   */\n      0x64\n      dup3\n      add\n        /* \"#utility.yul\":6869:6905   */\n      mstore\n        /* \"#utility.yul\":6922:6941   */\n      0x84\n      add\n        /* \"TTT_token.sol\":12326:12437  require(... */\n      tag_104\n        /* \"#utility.yul\":6545:6947   */\n      jump\n        /* \"TTT_token.sol\":12326:12437  require(... */\n    tag_169:\n        /* \"TTT_token.sol\":12468:12490  senderBalance - amount */\n      tag_172\n        /* \"TTT_token.sol\":12484:12490  amount */\n      dup3\n        /* \"TTT_token.sol\":12468:12481  senderBalance */\n      dup3\n        /* \"TTT_token.sol\":12468:12490  senderBalance - amount */\n      tag_109\n      jump\t// in\n    tag_172:\n      sub(shl(0xa0, 0x01), 0x01)\n        /* \"TTT_token.sol\":12448:12465  _balances[sender] */\n      dup1\n      dup7\n      and\n      0x00\n      swap1\n      dup2\n      mstore\n        /* \"TTT_token.sol\":12448:12457  _balances */\n      0x01\n        /* \"TTT_token.sol\":12448:12465  _balances[sender] */\n      0x20\n      mstore\n      0x40\n      dup1\n      dup3\n      keccak256\n        /* \"TTT_token.sol\":12448:12490  _balances[sender] = senderBalance - amount */\n      swap4\n      swap1\n      swap4\n      sstore\n        /* \"TTT_token.sol\":12501:12521  _balances[recipient] */\n      swap1\n      dup6\n      and\n      dup2\n      mstore\n      swap1\n      dup2\n      keccak256\n        /* \"TTT_token.sol\":12501:12531  _balances[recipient] += amount */\n      dup1\n      sload\n        /* \"TTT_token.sol\":12525:12531  amount */\n      dup5\n      swap3\n        /* \"TTT_token.sol\":12448:12465  _balances[sender] */\n      swap1\n        /* \"TTT_token.sol\":12501:12531  _balances[recipient] += amount */\n      tag_173\n      swap1\n        /* \"TTT_token.sol\":12525:12531  amount */\n      dup5\n      swap1\n        /* \"TTT_token.sol\":12501:12531  _balances[recipient] += amount */\n      tag_116\n      jump\t// in\n    tag_173:\n      swap3\n      pop\n      pop\n      dup2\n      swap1\n      sstore\n      pop\n        /* \"TTT_token.sol\":12566:12575  recipient */\n      dup3\n      sub(shl(0xa0, 0x01), 0x01)\n        /* \"TTT_token.sol\":12549:12584  Transfer(sender, recipient, amount) */\n      and\n        /* \"TTT_token.sol\":12558:12564  sender */\n      dup5\n      sub(shl(0xa0, 0x01), 0x01)\n        /* \"TTT_token.sol\":12549:12584  Transfer(sender, recipient, amount) */\n      and\n      0xddf252ad1be2c89b69c2b068fc378daa952ba7f163c4a11628f55a4df523b3ef\n        /* \"TTT_token.sol\":12577:12583  amount */\n      dup5\n        /* \"TTT_token.sol\":12549:12584  Transfer(sender, recipient, amount) */\n      mload(0x40)\n      tag_174\n      swap2\n        /* \"#utility.yul\":1342:1367   */\n      dup2\n      mstore\n        /* \"#utility.yul\":1330:1332   */\n      0x20\n        /* \"#utility.yul\":1315:1333   */\n      add\n      swap1\n        /* \"#utility.yul\":1196:1373   */\n      jump\n        /* \"TTT_token.sol\":12549:12584  Transfer(sender, recipient, amount) */\n    tag_174:\n      mload(0x40)\n      dup1\n      swap2\n      sub\n      swap1\n      log3\n        /* \"TTT_token.sol\":12038:12592  {... */\n      pop\n        /* \"TTT_token.sol\":11917:12592  function _transfer(... */\n      pop\n      pop\n      pop\n      jump\t// out\n        /* \"#utility.yul\":14:562   */\n    tag_25:\n        /* \"#utility.yul\":126:130   */\n      0x00\n        /* \"#utility.yul\":155:157   */\n      0x20\n        /* \"#utility.yul\":184:186   */\n      dup1\n        /* \"#utility.yul\":173:182   */\n      dup4\n        /* \"#utility.yul\":166:187   */\n      mstore\n        /* \"#utility.yul\":216:222   */\n      dup4\n        /* \"#utility.yul\":210:223   */\n      mload\n        /* \"#utility.yul\":259:265   */\n      dup1\n        /* \"#utility.yul\":254:256   */\n      dup3\n        /* \"#utility.yul\":243:252   */\n      dup6\n        /* \"#utility.yul\":239:257   */\n      add\n        /* \"#utility.yul\":232:266   */\n      mstore\n        /* \"#utility.yul\":284:285   */\n      0x00\n        /* \"#utility.yul\":294:434   */\n    tag_180:\n        /* \"#utility.yul\":308:314   */\n      dup2\n        /* \"#utility.yul\":305:306   */\n      dup2\n        /* \"#utility.yul\":302:315   */\n      lt\n        /* \"#utility.yul\":294:434   */\n      iszero\n      tag_182\n      jumpi\n        /* \"#utility.yul\":403:417   */\n      dup6\n      dup2\n      add\n        /* \"#utility.yul\":399:422   */\n      dup4\n      add\n        /* \"#utility.yul\":393:423   */\n      mload\n        /* \"#utility.yul\":369:386   */\n      dup6\n      dup3\n      add\n        /* \"#utility.yul\":388:390   */\n      0x40\n        /* \"#utility.yul\":365:391   */\n      add\n        /* \"#utility.yul\":358:424   */\n      mstore\n        /* \"#utility.yul\":323:333   */\n      dup3\n      add\n        /* \"#utility.yul\":294:434   */\n      jump(tag_180)\n    tag_182:\n        /* \"#utility.yul\":298:301   */\n      pop\n        /* \"#utility.yul\":483:484   */\n      0x00\n        /* \"#utility.yul\":478:480   */\n      0x40\n        /* \"#utility.yul\":469:475   */\n      dup3\n        /* \"#utility.yul\":458:467   */\n      dup7\n        /* \"#utility.yul\":454:476   */\n      add\n        /* \"#utility.yul\":450:481   */\n      add\n        /* \"#utility.yul\":443:485   */\n      mstore\n        /* \"#utility.yul\":553:555   */\n      0x40\n        /* \"#utility.yul\":546:548   */\n      0x1f\n        /* \"#utility.yul\":542:549   */\n      not\n        /* \"#utility.yul\":537:539   */\n      0x1f\n        /* \"#utility.yul\":529:535   */\n      dup4\n        /* \"#utility.yul\":525:540   */\n      add\n        /* \"#utility.yul\":521:550   */\n      and\n        /* \"#utility.yul\":510:519   */\n      dup6\n        /* \"#utility.yul\":506:551   */\n      add\n        /* \"#utility.yul\":502:556   */\n      add\n        /* \"#utility.yul\":494:556   */\n      swap3\n      pop\n      pop\n      pop\n        /* \"#utility.yul\":14:562   */\n      swap3\n      swap2\n      pop\n      pop\n      jump\t// out\n        /* \"#utility.yul\":567:740   */\n    tag_176:\n        /* \"#utility.yul\":635:655   */\n      dup1\n      calldataload\n      sub(shl(0xa0, 0x01), 0x01)\n        /* \"#utility.yul\":684:715   */\n      dup2\n      and\n        /* \"#utility.yul\":674:716   */\n      dup2\n      eq\n        /* \"#utility.yul\":664:734   */\n      tag_184\n      jumpi\n        /* \"#utility.yul\":730:731   */\n      0x00\n        /* \"#utility.yul\":727:728   */\n      dup1\n        /* \"#utility.yul\":720:732   */\n      revert\n        /* \"#utility.yul\":664:734   */\n    tag_184:\n        /* \"#utility.yul\":567:740   */\n      swap2\n      swap1\n      pop\n      jump\t// out\n        /* \"#utility.yul\":745:999   */\n    tag_28:\n        /* \"#utility.yul\":813:819   */\n      0x00\n        /* \"#utility.yul\":821:827   */\n      dup1\n        /* \"#utility.yul\":874:876   */\n      0x40\n        /* \"#utility.yul\":862:871   */\n      dup4\n        /* \"#utility.yul\":853:860   */\n      dup6\n        /* \"#utility.yul\":849:872   */\n      sub\n        /* \"#utility.yul\":845:877   */\n      slt\n        /* \"#utility.yul\":842:894   */\n      iszero\n      tag_186\n      jumpi\n        /* \"#utility.yul\":890:891   */\n      0x00\n        /* \"#utility.yul\":887:888   */\n      dup1\n        /* \"#utility.yul\":880:892   */\n      revert\n        /* \"#utility.yul\":842:894   */\n    tag_186:\n        /* \"#utility.yul\":913:942   */\n      tag_187\n        /* \"#utility.yul\":932:941   */\n      dup4\n        /* \"#utility.yul\":913:942   */\n      tag_176\n      jump\t// in\n    tag_187:\n        /* \"#utility.yul\":903:942   */\n      swap5\n        /* \"#utility.yul\":989:991   */\n      0x20\n        /* \"#utility.yul\":974:992   */\n      swap4\n      swap1\n      swap4\n      add\n        /* \"#utility.yul\":961:993   */\n      calldataload\n      swap4\n      pop\n      pop\n      pop\n        /* \"#utility.yul\":745:999   */\n      jump\t// out\n        /* \"#utility.yul\":1378:1706   */\n    tag_38:\n        /* \"#utility.yul\":1455:1461   */\n      0x00\n        /* \"#utility.yul\":1463:1469   */\n      dup1\n        /* \"#utility.yul\":1471:1477   */\n      0x00\n        /* \"#utility.yul\":1524:1526   */\n      0x60\n        /* \"#utility.yul\":1512:1521   */\n      dup5\n        /* \"#utility.yul\":1503:1510   */\n      dup7\n        /* \"#utility.yul\":1499:1522   */\n      sub\n        /* \"#utility.yul\":1495:1527   */\n      slt\n        /* \"#utility.yul\":1492:1544   */\n      iszero\n      tag_191\n      jumpi\n        /* \"#utility.yul\":1540:1541   */\n      0x00\n        /* \"#utility.yul\":1537:1538   */\n      dup1\n        /* \"#utility.yul\":1530:1542   */\n      revert\n        /* \"#utility.yul\":1492:1544   */\n    tag_191:\n        /* \"#utility.yul\":1563:1592   */\n      tag_192\n        /* \"#utility.yul\":1582:1591   */\n      dup5\n        /* \"#utility.yul\":1563:1592   */\n      tag_176\n      jump\t// in\n    tag_192:\n        /* \"#utility.yul\":1553:1592   */\n      swap3\n      pop\n        /* \"#utility.yul\":1611:1649   */\n      tag_193\n        /* \"#utility.yul\":1645:1647   */\n      0x20\n        /* \"#utility.yul\":1634:1643   */\n      dup6\n        /* \"#utility.yul\":1630:1648   */\n      add\n        /* \"#utility.yul\":1611:1649   */\n      tag_176\n      jump\t// in\n    tag_193:\n        /* \"#utility.yul\":1601:1649   */\n      swap2\n      pop\n        /* \"#utility.yul\":1696:1698   */\n      0x40\n        /* \"#utility.yul\":1685:1694   */\n      dup5\n        /* \"#utility.yul\":1681:1699   */\n      add\n        /* \"#utility.yul\":1668:1700   */\n      calldataload\n        /* \"#utility.yul\":1658:1700   */\n      swap1\n      pop\n        /* \"#utility.yul\":1378:1706   */\n      swap3\n      pop\n      swap3\n      pop\n      swap3\n      jump\t// out\n        /* \"#utility.yul\":1900:2086   */\n    tag_54:\n        /* \"#utility.yul\":1959:1965   */\n      0x00\n        /* \"#utility.yul\":2012:2014   */\n      0x20\n        /* \"#utility.yul\":2000:2009   */\n      dup3\n        /* \"#utility.yul\":1991:1998   */\n      dup5\n        /* \"#utility.yul\":1987:2010   */\n      sub\n        /* \"#utility.yul\":1983:2015   */\n      slt\n        /* \"#utility.yul\":1980:2032   */\n      iszero\n      tag_196\n      jumpi\n        /* \"#utility.yul\":2028:2029   */\n      0x00\n        /* \"#utility.yul\":2025:2026   */\n      dup1\n        /* \"#utility.yul\":2018:2030   */\n      revert\n        /* \"#utility.yul\":1980:2032   */\n    tag_196:\n        /* \"#utility.yul\":2051:2080   */\n      tag_197\n        /* \"#utility.yul\":2070:2079   */\n      dup3\n        /* \"#utility.yul\":2051:2080   */\n      tag_176\n      jump\t// in\n    tag_197:\n        /* \"#utility.yul\":2041:2080   */\n      swap4\n        /* \"#utility.yul\":1900:2086   */\n      swap3\n      pop\n      pop\n      pop\n      jump\t// out\n        /* \"#utility.yul\":2299:2559   */\n    tag_80:\n        /* \"#utility.yul\":2367:2373   */\n      0x00\n        /* \"#utility.yul\":2375:2381   */\n      dup1\n        /* \"#utility.yul\":2428:2430   */\n      0x40\n        /* \"#utility.yul\":2416:2425   */\n      dup4\n        /* \"#utility.yul\":2407:2414   */\n      dup6\n        /* \"#utility.yul\":2403:2426   */\n      sub\n        /* \"#utility.yul\":2399:2431   */\n      slt\n        /* \"#utility.yul\":2396:2448   */\n      iszero\n      tag_200\n      jumpi\n        /* \"#utility.yul\":2444:2445   */\n      0x00\n        /* \"#utility.yul\":2441:2442   */\n      dup1\n        /* \"#utility.yul\":2434:2446   */\n      revert\n        /* \"#utility.yul\":2396:2448   */\n    tag_200:\n        /* \"#utility.yul\":2467:2496   */\n      tag_201\n        /* \"#utility.yul\":2486:2495   */\n      dup4\n        /* \"#utility.yul\":2467:2496   */\n      tag_176\n      jump\t// in\n    tag_201:\n        /* \"#utility.yul\":2457:2496   */\n      swap2\n      pop\n        /* \"#utility.yul\":2515:2553   */\n      tag_202\n        /* \"#utility.yul\":2549:2551   */\n      0x20\n        /* \"#utility.yul\":2538:2547   */\n      dup5\n        /* \"#utility.yul\":2534:2552   */\n      add\n        /* \"#utility.yul\":2515:2553   */\n      tag_176\n      jump\t// in\n    tag_202:\n        /* \"#utility.yul\":2505:2553   */\n      swap1\n      pop\n        /* \"#utility.yul\":2299:2559   */\n      swap3\n      pop\n      swap3\n      swap1\n      pop\n      jump\t// out\n        /* \"#utility.yul\":2564:2944   */\n    tag_88:\n        /* \"#utility.yul\":2643:2644   */\n      0x01\n        /* \"#utility.yul\":2639:2651   */\n      dup2\n      dup2\n      shr\n      swap1\n        /* \"#utility.yul\":2686:2698   */\n      dup3\n      and\n      dup1\n        /* \"#utility.yul\":2707:2768   */\n      tag_204\n      jumpi\n        /* \"#utility.yul\":2761:2765   */\n      0x7f\n        /* \"#utility.yul\":2753:2759   */\n      dup3\n        /* \"#utility.yul\":2749:2766   */\n      and\n        /* \"#utility.yul\":2739:2766   */\n      swap2\n      pop\n        /* \"#utility.yul\":2707:2768   */\n    tag_204:\n        /* \"#utility.yul\":2814:2816   */\n      0x20\n        /* \"#utility.yul\":2806:2812   */\n      dup3\n        /* \"#utility.yul\":2803:2817   */\n      lt\n        /* \"#utility.yul\":2783:2801   */\n      dup2\n        /* \"#utility.yul\":2780:2818   */\n      sub\n        /* \"#utility.yul\":2777:2938   */\n      tag_205\n      jumpi\n        /* \"#utility.yul\":2860:2870   */\n      0x4e487b71\n        /* \"#utility.yul\":2855:2858   */\n      0xe0\n        /* \"#utility.yul\":2851:2871   */\n      shl\n        /* \"#utility.yul\":2848:2849   */\n      0x00\n        /* \"#utility.yul\":2841:2872   */\n      mstore\n        /* \"#utility.yul\":2895:2899   */\n      0x22\n        /* \"#utility.yul\":2892:2893   */\n      0x04\n        /* \"#utility.yul\":2885:2900   */\n      mstore\n        /* \"#utility.yul\":2923:2927   */\n      0x24\n        /* \"#utility.yul\":2920:2921   */\n      0x00\n        /* \"#utility.yul\":2913:2928   */\n      revert\n        /* \"#utility.yul\":2777:2938   */\n    tag_205:\n      pop\n        /* \"#utility.yul\":2564:2944   */\n      swap2\n      swap1\n      pop\n      jump\t// out\n        /* \"#utility.yul\":3358:3485   */\n    tag_177:\n        /* \"#utility.yul\":3419:3429   */\n      0x4e487b71\n        /* \"#utility.yul\":3414:3417   */\n      0xe0\n        /* \"#utility.yul\":3410:3430   */\n      shl\n        /* \"#utility.yul\":3407:3408   */\n      0x00\n        /* \"#utility.yul\":3400:3431   */\n      mstore\n        /* \"#utility.yul\":3450:3454   */\n      0x11\n        /* \"#utility.yul\":3447:3448   */\n      0x04\n        /* \"#utility.yul\":3440:3455   */\n      mstore\n        /* \"#utility.yul\":3474:3478   */\n      0x24\n        /* \"#utility.yul\":3471:3472   */\n      0x00\n        /* \"#utility.yul\":3464:3479   */\n      revert\n        /* \"#utility.yul\":3490:3618   */\n    tag_109:\n        /* \"#utility.yul\":3557:3566   */\n      dup2\n      dup2\n      sub\n        /* \"#utility.yul\":3578:3589   */\n      dup2\n      dup2\n      gt\n        /* \"#utility.yul\":3575:3612   */\n      iszero\n      tag_93\n      jumpi\n        /* \"#utility.yul\":3592:3610   */\n      tag_93\n      tag_177\n      jump\t// in\n        /* \"#utility.yul\":3623:3748   */\n    tag_116:\n        /* \"#utility.yul\":3688:3697   */\n      dup1\n      dup3\n      add\n        /* \"#utility.yul\":3709:3719   */\n      dup1\n      dup3\n      gt\n        /* \"#utility.yul\":3706:3742   */\n      iszero\n      tag_93\n      jumpi\n        /* \"#utility.yul\":3722:3740   */\n      tag_93\n      tag_177\n      jump\t// in\n\n    auxdata: 0xa26469706673582212202cc622ba6927eedb260810925773ec5e8c7323be24fdc16b4dc96617c7b009da64736f6c63430008130033\n}\n",
				"bytecode": {
					"linkReferences": {},
					"object": "60806040523480156200001157600080fd5b50600080546001600160a01b031916339081178255604051909182917f8be0079c531659141344cd1fd0a4f28419497f9722a3daafe3b4186f6b6457e0908290a35060408051808201909152600b81526a5469636b5461636b546f6560a81b602082015260069062000084908262000274565b5060408051808201909152600381526215151560ea1b6020820152600790620000ae908262000274565b50620000dd33620000c26009600a62000455565b620000d79068056bc75e2d631000006200046d565b620000e3565b6200049d565b6001600160a01b0382166200013e5760405162461bcd60e51b815260206004820152601f60248201527f45524332303a206d696e7420746f20746865207a65726f206164647265737300604482015260640160405180910390fd5b806003600082825462000152919062000487565b90915550506001600160a01b038216600090815260016020526040812080548392906200018190849062000487565b90915550506040518181526001600160a01b038316906000907fddf252ad1be2c89b69c2b068fc378daa952ba7f163c4a11628f55a4df523b3ef9060200160405180910390a35050565b505050565b634e487b7160e01b600052604160045260246000fd5b600181811c90821680620001fb57607f821691505b6020821081036200021c57634e487b7160e01b600052602260045260246000fd5b50919050565b601f821115620001cb57600081815260208120601f850160051c810160208610156200024b5750805b601f850160051c820191505b818110156200026c5782815560010162000257565b505050505050565b81516001600160401b03811115620002905762000290620001d0565b620002a881620002a18454620001e6565b8462000222565b602080601f831160018114620002e05760008415620002c75750858301515b600019600386901b1c1916600185901b1785556200026c565b600085815260208120601f198616915b828110156200031157888601518255948401946001909101908401620002f0565b5085821015620003305787850151600019600388901b60f8161c191681555b5050505050600190811b01905550565b634e487b7160e01b600052601160045260246000fd5b600181815b80851115620003975781600019048211156200037b576200037b62000340565b808516156200038957918102915b93841c93908002906200035b565b509250929050565b600082620003b0575060016200044f565b81620003bf575060006200044f565b8160018114620003d85760028114620003e35762000403565b60019150506200044f565b60ff841115620003f757620003f762000340565b50506001821b6200044f565b5060208310610133831016604e8410600b841016171562000428575081810a6200044f565b62000434838362000356565b80600019048211156200044b576200044b62000340565b0290505b92915050565b60006200046660ff8416836200039f565b9392505050565b80820281158282048414176200044f576200044f62000340565b808201808211156200044f576200044f62000340565b610b5d80620004ad6000396000f3fe608060405234801561001057600080fd5b50600436106101005760003560e01c8063715018a611610097578063a9059cbb11610066578063a9059cbb14610203578063d936547e14610216578063dd62ed3e14610239578063f2fde38b1461027257600080fd5b8063715018a6146101c35780638da5cb5b146101cd57806395d89b41146101e8578063a457c2d7146101f057600080fd5b806325fa0b98116100d357806325fa0b981461016b578063313ce56714610178578063395093511461018757806370a082311461019a57600080fd5b806306fdde0314610105578063095ea7b31461012357806318160ddd1461014657806323b872dd14610158575b600080fd5b61010d610285565b60405161011a919061098c565b60405180910390f35b6101366101313660046109f6565b610317565b604051901515815260200161011a565b6003545b60405190815260200161011a565b610136610166366004610a20565b61032e565b6004546101369060ff1681565b6040516009815260200161011a565b6101366101953660046109f6565b6103e4565b61014a6101a8366004610a5c565b6001600160a01b031660009081526001602052604090205490565b6101cb61041b565b005b6000546040516001600160a01b03909116815260200161011a565b61010d6104bf565b6101366101fe3660046109f6565b6104ce565b6101366102113660046109f6565b610569565b610136610224366004610a5c565b60056020526000908152604090205460ff1681565b61014a610247366004610a7e565b6001600160a01b03918216600090815260026020908152604080832093909416825291909152205490565b6101cb610280366004610a5c565b610576565b60606006805461029490610ab1565b80601f01602080910402602001604051908101604052809291908181526020018280546102c090610ab1565b801561030d5780601f106102e25761010080835404028352916020019161030d565b820191906000526020600020905b8154815290600101906020018083116102f057829003601f168201915b5050505050905090565b6000610324338484610690565b5060015b92915050565b600061033b8484846107b4565b6001600160a01b0384166000908152600260209081526040808320338452909152902054828110156103c55760405162461bcd60e51b815260206004820152602860248201527f45524332303a207472616e7366657220616d6f756e74206578636565647320616044820152676c6c6f77616e636560c01b60648201526084015b60405180910390fd5b6103d985336103d48685610b01565b610690565b506001949350505050565b3360008181526002602090815260408083206001600160a01b038716845290915281205490916103249185906103d4908690610b14565b6000546001600160a01b031633146104755760405162461bcd60e51b815260206004820181905260248201527f4f776e61626c653a2063616c6c6572206973206e6f7420746865206f776e657260448201526064016103bc565b600080546040516001600160a01b03909116907f8be0079c531659141344cd1fd0a4f28419497f9722a3daafe3b4186f6b6457e0908390a3600080546001600160a01b0319169055565b60606007805461029490610ab1565b3360009081526002602090815260408083206001600160a01b0386168452909152812054828110156105505760405162461bcd60e51b815260206004820152602560248201527f45524332303a2064656372656173656420616c6c6f77616e63652062656c6f77604482015264207a65726f60d81b60648201526084016103bc565b61055f33856103d48685610b01565b5060019392505050565b60006103243384846107b4565b6000546001600160a01b031633146105d05760405162461bcd60e51b815260206004820181905260248201527f4f776e61626c653a2063616c6c6572206973206e6f7420746865206f776e657260448201526064016103bc565b6001600160a01b0381166106355760405162461bcd60e51b815260206004820152602660248201527f4f776e61626c653a206e6577206f776e657220697320746865207a65726f206160448201526564647265737360d01b60648201526084016103bc565b600080546040516001600160a01b03808516939216917f8be0079c531659141344cd1fd0a4f28419497f9722a3daafe3b4186f6b6457e091a3600080546001600160a01b0319166001600160a01b0392909216919091179055565b6001600160a01b0383166106f25760405162461bcd60e51b8152602060048201526024808201527f45524332303a20617070726f76652066726f6d20746865207a65726f206164646044820152637265737360e01b60648201526084016103bc565b6001600160a01b0382166107535760405162461bcd60e51b815260206004820152602260248201527f45524332303a20617070726f766520746f20746865207a65726f206164647265604482015261737360f01b60648201526084016103bc565b6001600160a01b0383811660008181526002602090815260408083209487168084529482529182902085905590518481527f8c5be1e5ebec7d5bd14f71427d1e84f3dd0314c0f7b2291e5b200ac8c7c3b925910160405180910390a3505050565b6001600160a01b0383166108185760405162461bcd60e51b815260206004820152602560248201527f45524332303a207472616e736665722066726f6d20746865207a65726f206164604482015264647265737360d81b60648201526084016103bc565b6001600160a01b03821661087a5760405162461bcd60e51b815260206004820152602360248201527f45524332303a207472616e7366657220746f20746865207a65726f206164647260448201526265737360e81b60648201526084016103bc565b6001600160a01b038316600090815260016020526040902054818110156108f25760405162461bcd60e51b815260206004820152602660248201527f45524332303a207472616e7366657220616d6f756e7420657863656564732062604482015265616c616e636560d01b60648201526084016103bc565b6108fc8282610b01565b6001600160a01b038086166000908152600160205260408082209390935590851681529081208054849290610932908490610b14565b92505081905550826001600160a01b0316846001600160a01b03167fddf252ad1be2c89b69c2b068fc378daa952ba7f163c4a11628f55a4df523b3ef8460405161097e91815260200190565b60405180910390a350505050565b600060208083528351808285015260005b818110156109b95785810183015185820160400152820161099d565b506000604082860101526040601f19601f8301168501019250505092915050565b80356001600160a01b03811681146109f157600080fd5b919050565b60008060408385031215610a0957600080fd5b610a12836109da565b946020939093013593505050565b600080600060608486031215610a3557600080fd5b610a3e846109da565b9250610a4c602085016109da565b9150604084013590509250925092565b600060208284031215610a6e57600080fd5b610a77826109da565b9392505050565b60008060408385031215610a9157600080fd5b610a9a836109da565b9150610aa8602084016109da565b90509250929050565b600181811c90821680610ac557607f821691505b602082108103610ae557634e487b7160e01b600052602260045260246000fd5b50919050565b634e487b7160e01b600052601160045260246000fd5b8181038181111561032857610328610aeb565b8082018082111561032857610328610aeb56fea26469706673582212202cc622ba6927eedb260810925773ec5e8c7323be24fdc16b4dc96617c7b009da64736f6c63430008130033",
					"opcodes": "PUSH1 0x80 PUSH1 0x40 MSTORE CALLVALUE DUP1 ISZERO PUSH3 0x11 JUMPI PUSH1 0x0 DUP1 REVERT JUMPDEST POP PUSH1 0x0 DUP1 SLOAD PUSH1 0x1 PUSH1 0x1 PUSH1 0xA0 SHL SUB NOT AND CALLER SWAP1 DUP2 OR DUP3 SSTORE PUSH1 0x40 MLOAD SWAP1 SWAP2 DUP3 SWAP2 PUSH32 0x8BE0079C531659141344CD1FD0A4F28419497F9722A3DAAFE3B4186F6B6457E0 SWAP1 DUP3 SWAP1 LOG3 POP PUSH1 0x40 DUP1 MLOAD DUP1 DUP3 ADD SWAP1 SWAP2 MSTORE PUSH1 0xB DUP2 MSTORE PUSH11 0x5469636B5461636B546F65 PUSH1 0xA8 SHL PUSH1 0x20 DUP3 ADD MSTORE PUSH1 0x6 SWAP1 PUSH3 0x84 SWAP1 DUP3 PUSH3 0x274 JUMP JUMPDEST POP PUSH1 0x40 DUP1 MLOAD DUP1 DUP3 ADD SWAP1 SWAP2 MSTORE PUSH1 0x3 DUP2 MSTORE PUSH3 0x151515 PUSH1 0xEA SHL PUSH1 0x20 DUP3 ADD MSTORE PUSH1 0x7 SWAP1 PUSH3 0xAE SWAP1 DUP3 PUSH3 0x274 JUMP JUMPDEST POP PUSH3 0xDD CALLER PUSH3 0xC2 PUSH1 0x9 PUSH1 0xA PUSH3 0x455 JUMP JUMPDEST PUSH3 0xD7 SWAP1 PUSH9 0x56BC75E2D63100000 PUSH3 0x46D JUMP JUMPDEST PUSH3 0xE3 JUMP JUMPDEST PUSH3 0x49D JUMP JUMPDEST PUSH1 0x1 PUSH1 0x1 PUSH1 0xA0 SHL SUB DUP3 AND PUSH3 0x13E JUMPI PUSH1 0x40 MLOAD PUSH3 0x461BCD PUSH1 0xE5 SHL DUP2 MSTORE PUSH1 0x20 PUSH1 0x4 DUP3 ADD MSTORE PUSH1 0x1F PUSH1 0x24 DUP3 ADD MSTORE PUSH32 0x45524332303A206D696E7420746F20746865207A65726F206164647265737300 PUSH1 0x44 DUP3 ADD MSTORE PUSH1 0x64 ADD PUSH1 0x40 MLOAD DUP1 SWAP2 SUB SWAP1 REVERT JUMPDEST DUP1 PUSH1 0x3 PUSH1 0x0 DUP3 DUP3 SLOAD PUSH3 0x152 SWAP2 SWAP1 PUSH3 0x487 JUMP JUMPDEST SWAP1 SWAP2 SSTORE POP POP PUSH1 0x1 PUSH1 0x1 PUSH1 0xA0 SHL SUB DUP3 AND PUSH1 0x0 SWAP1 DUP2 MSTORE PUSH1 0x1 PUSH1 0x20 MSTORE PUSH1 0x40 DUP2 KECCAK256 DUP1 SLOAD DUP4 SWAP3 SWAP1 PUSH3 0x181 SWAP1 DUP5 SWAP1 PUSH3 0x487 JUMP JUMPDEST SWAP1 SWAP2 SSTORE POP POP PUSH1 0x40 MLOAD DUP2 DUP2 MSTORE PUSH1 0x1 PUSH1 0x1 PUSH1 0xA0 SHL SUB DUP4 AND SWAP1 PUSH1 0x0 SWAP1 PUSH32 0xDDF252AD1BE2C89B69C2B068FC378DAA952BA7F163C4A11628F55A4DF523B3EF SWAP1 PUSH1 0x20 ADD PUSH1 0x40 MLOAD DUP1 SWAP2 SUB SWAP1 LOG3 POP POP JUMP JUMPDEST POP POP POP JUMP JUMPDEST PUSH4 0x4E487B71 PUSH1 0xE0 SHL PUSH1 0x0 MSTORE PUSH1 0x41 PUSH1 0x4 MSTORE PUSH1 0x24 PUSH1 0x0 REVERT JUMPDEST PUSH1 0x1 DUP2 DUP2 SHR SWAP1 DUP3 AND DUP1 PUSH3 0x1FB JUMPI PUSH1 0x7F DUP3 AND SWAP2 POP JUMPDEST PUSH1 0x20 DUP3 LT DUP2 SUB PUSH3 0x21C JUMPI PUSH4 0x4E487B71 PUSH1 0xE0 SHL PUSH1 0x0 MSTORE PUSH1 0x22 PUSH1 0x4 MSTORE PUSH1 0x24 PUSH1 0x0 REVERT JUMPDEST POP SWAP2 SWAP1 POP JUMP JUMPDEST PUSH1 0x1F DUP3 GT ISZERO PUSH3 0x1CB JUMPI PUSH1 0x0 DUP2 DUP2 MSTORE PUSH1 0x20 DUP2 KECCAK256 PUSH1 0x1F DUP6 ADD PUSH1 0x5 SHR DUP2 ADD PUSH1 0x20 DUP7 LT ISZERO PUSH3 0x24B JUMPI POP DUP1 JUMPDEST PUSH1 0x1F DUP6 ADD PUSH1 0x5 SHR DUP3 ADD SWAP2 POP JUMPDEST DUP2 DUP2 LT ISZERO PUSH3 0x26C JUMPI DUP3 DUP2 SSTORE PUSH1 0x1 ADD PUSH3 0x257 JUMP JUMPDEST POP POP POP POP POP POP JUMP JUMPDEST DUP2 MLOAD PUSH1 0x1 PUSH1 0x1 PUSH1 0x40 SHL SUB DUP2 GT ISZERO PUSH3 0x290 JUMPI PUSH3 0x290 PUSH3 0x1D0 JUMP JUMPDEST PUSH3 0x2A8 DUP2 PUSH3 0x2A1 DUP5 SLOAD PUSH3 0x1E6 JUMP JUMPDEST DUP5 PUSH3 0x222 JUMP JUMPDEST PUSH1 0x20 DUP1 PUSH1 0x1F DUP4 GT PUSH1 0x1 DUP2 EQ PUSH3 0x2E0 JUMPI PUSH1 0x0 DUP5 ISZERO PUSH3 0x2C7 JUMPI POP DUP6 DUP4 ADD MLOAD JUMPDEST PUSH1 0x0 NOT PUSH1 0x3 DUP7 SWAP1 SHL SHR NOT AND PUSH1 0x1 DUP6 SWAP1 SHL OR DUP6 SSTORE PUSH3 0x26C JUMP JUMPDEST PUSH1 0x0 DUP6 DUP2 MSTORE PUSH1 0x20 DUP2 KECCAK256 PUSH1 0x1F NOT DUP7 AND SWAP2 JUMPDEST DUP3 DUP2 LT ISZERO PUSH3 0x311 JUMPI DUP9 DUP7 ADD MLOAD DUP3 SSTORE SWAP5 DUP5 ADD SWAP5 PUSH1 0x1 SWAP1 SWAP2 ADD SWAP1 DUP5 ADD PUSH3 0x2F0 JUMP JUMPDEST POP DUP6 DUP3 LT ISZERO PUSH3 0x330 JUMPI DUP8 DUP6 ADD MLOAD PUSH1 0x0 NOT PUSH1 0x3 DUP9 SWAP1 SHL PUSH1 0xF8 AND SHR NOT AND DUP2 SSTORE JUMPDEST POP POP POP POP POP PUSH1 0x1 SWAP1 DUP2 SHL ADD SWAP1 SSTORE POP JUMP JUMPDEST PUSH4 0x4E487B71 PUSH1 0xE0 SHL PUSH1 0x0 MSTORE PUSH1 0x11 PUSH1 0x4 MSTORE PUSH1 0x24 PUSH1 0x0 REVERT JUMPDEST PUSH1 0x1 DUP2 DUP2 JUMPDEST DUP1 DUP6 GT ISZERO PUSH3 0x397 JUMPI DUP2 PUSH1 0x0 NOT DIV DUP3 GT ISZERO PUSH3 0x37B JUMPI PUSH3 0x37B PUSH3 0x340 JUMP JUMPDEST DUP1 DUP6 AND ISZERO PUSH3 0x389 JUMPI SWAP2 DUP2 MUL SWAP2 JUMPDEST SWAP4 DUP5 SHR SWAP4 SWAP1 DUP1 MUL SWAP1 PUSH3 0x35B JUMP JUMPDEST POP SWAP3 POP SWAP3 SWAP1 POP JUMP JUMPDEST PUSH1 0x0 DUP3 PUSH3 0x3B0 JUMPI POP PUSH1 0x1 PUSH3 0x44F JUMP JUMPDEST DUP2 PUSH3 0x3BF JUMPI POP PUSH1 0x0 PUSH3 0x44F JUMP JUMPDEST DUP2 PUSH1 0x1 DUP2 EQ PUSH3 0x3D8 JUMPI PUSH1 0x2 DUP2 EQ PUSH3 0x3E3 JUMPI PUSH3 0x403 JUMP JUMPDEST PUSH1 0x1 SWAP2 POP POP PUSH3 0x44F JUMP JUMPDEST PUSH1 0xFF DUP5 GT ISZERO PUSH3 0x3F7 JUMPI PUSH3 0x3F7 PUSH3 0x340 JUMP JUMPDEST POP POP PUSH1 0x1 DUP3 SHL PUSH3 0x44F JUMP JUMPDEST POP PUSH1 0x20 DUP4 LT PUSH2 0x133 DUP4 LT AND PUSH1 0x4E DUP5 LT PUSH1 0xB DUP5 LT AND OR ISZERO PUSH3 0x428 JUMPI POP DUP2 DUP2 EXP PUSH3 0x44F JUMP JUMPDEST PUSH3 0x434 DUP4 DUP4 PUSH3 0x356 JUMP JUMPDEST DUP1 PUSH1 0x0 NOT DIV DUP3 GT ISZERO PUSH3 0x44B JUMPI PUSH3 0x44B PUSH3 0x340 JUMP JUMPDEST MUL SWAP1 POP JUMPDEST SWAP3 SWAP2 POP POP JUMP JUMPDEST PUSH1 0x0 PUSH3 0x466 PUSH1 0xFF DUP5 AND DUP4 PUSH3 0x39F JUMP JUMPDEST SWAP4 SWAP3 POP POP POP JUMP JUMPDEST DUP1 DUP3 MUL DUP2 ISZERO DUP3 DUP3 DIV DUP5 EQ OR PUSH3 0x44F JUMPI PUSH3 0x44F PUSH3 0x340 JUMP JUMPDEST DUP1 DUP3 ADD DUP1 DUP3 GT ISZERO PUSH3 0x44F JUMPI PUSH3 0x44F PUSH3 0x340 JUMP JUMPDEST PUSH2 0xB5D DUP1 PUSH3 0x4AD PUSH1 0x0 CODECOPY PUSH1 0x0 RETURN INVALID PUSH1 0x80 PUSH1 0x40 MSTORE CALLVALUE DUP1 ISZERO PUSH2 0x10 JUMPI PUSH1 0x0 DUP1 REVERT JUMPDEST POP PUSH1 0x4 CALLDATASIZE LT PUSH2 0x100 JUMPI PUSH1 0x0 CALLDATALOAD PUSH1 0xE0 SHR DUP1 PUSH4 0x715018A6 GT PUSH2 0x97 JUMPI DUP1 PUSH4 0xA9059CBB GT PUSH2 0x66 JUMPI DUP1 PUSH4 0xA9059CBB EQ PUSH2 0x203 JUMPI DUP1 PUSH4 0xD936547E EQ PUSH2 0x216 JUMPI DUP1 PUSH4 0xDD62ED3E EQ PUSH2 0x239 JUMPI DUP1 PUSH4 0xF2FDE38B EQ PUSH2 0x272 JUMPI PUSH1 0x0 DUP1 REVERT JUMPDEST DUP1 PUSH4 0x715018A6 EQ PUSH2 0x1C3 JUMPI DUP1 PUSH4 0x8DA5CB5B EQ PUSH2 0x1CD JUMPI DUP1 PUSH4 0x95D89B41 EQ PUSH2 0x1E8 JUMPI DUP1 PUSH4 0xA457C2D7 EQ PUSH2 0x1F0 JUMPI PUSH1 0x0 DUP1 REVERT JUMPDEST DUP1 PUSH4 0x25FA0B98 GT PUSH2 0xD3 JUMPI DUP1 PUSH4 0x25FA0B98 EQ PUSH2 0x16B JUMPI DUP1 PUSH4 0x313CE567 EQ PUSH2 0x178 JUMPI DUP1 PUSH4 0x39509351 EQ PUSH2 0x187 JUMPI DUP1 PUSH4 0x70A08231 EQ PUSH2 0x19A JUMPI PUSH1 0x0 DUP1 REVERT JUMPDEST DUP1 PUSH4 0x6FDDE03 EQ PUSH2 0x105 JUMPI DUP1 PUSH4 0x95EA7B3 EQ PUSH2 0x123 JUMPI DUP1 PUSH4 0x18160DDD EQ PUSH2 0x146 JUMPI DUP1 PUSH4 0x23B872DD EQ PUSH2 0x158 JUMPI JUMPDEST PUSH1 0x0 DUP1 REVERT JUMPDEST PUSH2 0x10D PUSH2 0x285 JUMP JUMPDEST PUSH1 0x40 MLOAD PUSH2 0x11A SWAP2 SWAP1 PUSH2 0x98C JUMP JUMPDEST PUSH1 0x40 MLOAD DUP1 SWAP2 SUB SWAP1 RETURN JUMPDEST PUSH2 0x136 PUSH2 0x131 CALLDATASIZE PUSH1 0x4 PUSH2 0x9F6 JUMP JUMPDEST PUSH2 0x317 JUMP JUMPDEST PUSH1 0x40 MLOAD SWAP1 ISZERO ISZERO DUP2 MSTORE PUSH1 0x20 ADD PUSH2 0x11A JUMP JUMPDEST PUSH1 0x3 SLOAD JUMPDEST PUSH1 0x40 MLOAD SWAP1 DUP2 MSTORE PUSH1 0x20 ADD PUSH2 0x11A JUMP JUMPDEST PUSH2 0x136 PUSH2 0x166 CALLDATASIZE PUSH1 0x4 PUSH2 0xA20 JUMP JUMPDEST PUSH2 0x32E JUMP JUMPDEST PUSH1 0x4 SLOAD PUSH2 0x136 SWAP1 PUSH1 0xFF AND DUP2 JUMP JUMPDEST PUSH1 0x40 MLOAD PUSH1 0x9 DUP2 MSTORE PUSH1 0x20 ADD PUSH2 0x11A JUMP JUMPDEST PUSH2 0x136 PUSH2 0x195 CALLDATASIZE PUSH1 0x4 PUSH2 0x9F6 JUMP JUMPDEST PUSH2 0x3E4 JUMP JUMPDEST PUSH2 0x14A PUSH2 0x1A8 CALLDATASIZE PUSH1 0x4 PUSH2 0xA5C JUMP JUMPDEST PUSH1 0x1 PUSH1 0x1 PUSH1 0xA0 SHL SUB AND PUSH1 0x0 SWAP1 DUP2 MSTORE PUSH1 0x1 PUSH1 0x20 MSTORE PUSH1 0x40 SWAP1 KECCAK256 SLOAD SWAP1 JUMP JUMPDEST PUSH2 0x1CB PUSH2 0x41B JUMP JUMPDEST STOP JUMPDEST PUSH1 0x0 SLOAD PUSH1 0x40 MLOAD PUSH1 0x1 PUSH1 0x1 PUSH1 0xA0 SHL SUB SWAP1 SWAP2 AND DUP2 MSTORE PUSH1 0x20 ADD PUSH2 0x11A JUMP JUMPDEST PUSH2 0x10D PUSH2 0x4BF JUMP JUMPDEST PUSH2 0x136 PUSH2 0x1FE CALLDATASIZE PUSH1 0x4 PUSH2 0x9F6 JUMP JUMPDEST PUSH2 0x4CE JUMP JUMPDEST PUSH2 0x136 PUSH2 0x211 CALLDATASIZE PUSH1 0x4 PUSH2 0x9F6 JUMP JUMPDEST PUSH2 0x569 JUMP JUMPDEST PUSH2 0x136 PUSH2 0x224 CALLDATASIZE PUSH1 0x4 PUSH2 0xA5C JUMP JUMPDEST PUSH1 0x5 PUSH1 0x20 MSTORE PUSH1 0x0 SWAP1 DUP2 MSTORE PUSH1 0x40 SWAP1 KECCAK256 SLOAD PUSH1 0xFF AND DUP2 JUMP JUMPDEST PUSH2 0x14A PUSH2 0x247 CALLDATASIZE PUSH1 0x4 PUSH2 0xA7E JUMP JUMPDEST PUSH1 0x1 PUSH1 0x1 PUSH1 0xA0 SHL SUB SWAP2 DUP3 AND PUSH1 0x0 SWAP1 DUP2 MSTORE PUSH1 0x2 PUSH1 0x20 SWAP1 DUP2 MSTORE PUSH1 0x40 DUP1 DUP4 KECCAK256 SWAP4 SWAP1 SWAP5 AND DUP3 MSTORE SWAP2 SWAP1 SWAP2 MSTORE KECCAK256 SLOAD SWAP1 JUMP JUMPDEST PUSH2 0x1CB PUSH2 0x280 CALLDATASIZE PUSH1 0x4 PUSH2 0xA5C JUMP JUMPDEST PUSH2 0x576 JUMP JUMPDEST PUSH1 0x60 PUSH1 0x6 DUP1 SLOAD PUSH2 0x294 SWAP1 PUSH2 0xAB1 JUMP JUMPDEST DUP1 PUSH1 0x1F ADD PUSH1 0x20 DUP1 SWAP2 DIV MUL PUSH1 0x20 ADD PUSH1 0x40 MLOAD SWAP1 DUP2 ADD PUSH1 0x40 MSTORE DUP1 SWAP3 SWAP2 SWAP1 DUP2 DUP2 MSTORE PUSH1 0x20 ADD DUP3 DUP1 SLOAD PUSH2 0x2C0 SWAP1 PUSH2 0xAB1 JUMP JUMPDEST DUP1 ISZERO PUSH2 0x30D JUMPI DUP1 PUSH1 0x1F LT PUSH2 0x2E2 JUMPI PUSH2 0x100 DUP1 DUP4 SLOAD DIV MUL DUP4 MSTORE SWAP2 PUSH1 0x20 ADD SWAP2 PUSH2 0x30D JUMP JUMPDEST DUP3 ADD SWAP2 SWAP1 PUSH1 0x0 MSTORE PUSH1 0x20 PUSH1 0x0 KECCAK256 SWAP1 JUMPDEST DUP2 SLOAD DUP2 MSTORE SWAP1 PUSH1 0x1 ADD SWAP1 PUSH1 0x20 ADD DUP1 DUP4 GT PUSH2 0x2F0 JUMPI DUP3 SWAP1 SUB PUSH1 0x1F AND DUP3 ADD SWAP2 JUMPDEST POP POP POP POP POP SWAP1 POP SWAP1 JUMP JUMPDEST PUSH1 0x0 PUSH2 0x324 CALLER DUP5 DUP5 PUSH2 0x690 JUMP JUMPDEST POP PUSH1 0x1 JUMPDEST SWAP3 SWAP2 POP POP JUMP JUMPDEST PUSH1 0x0 PUSH2 0x33B DUP5 DUP5 DUP5 PUSH2 0x7B4 JUMP JUMPDEST PUSH1 0x1 PUSH1 0x1 PUSH1 0xA0 SHL SUB DUP5 AND PUSH1 0x0 SWAP1 DUP2 MSTORE PUSH1 0x2 PUSH1 0x20 SWAP1 DUP2 MSTORE PUSH1 0x40 DUP1 DUP4 KECCAK256 CALLER DUP5 MSTORE SWAP1 SWAP2 MSTORE SWAP1 KECCAK256 SLOAD DUP3 DUP2 LT ISZERO PUSH2 0x3C5 JUMPI PUSH1 0x40 MLOAD PUSH3 0x461BCD PUSH1 0xE5 SHL DUP2 MSTORE PUSH1 0x20 PUSH1 0x4 DUP3 ADD MSTORE PUSH1 0x28 PUSH1 0x24 DUP3 ADD MSTORE PUSH32 0x45524332303A207472616E7366657220616D6F756E7420657863656564732061 PUSH1 0x44 DUP3 ADD MSTORE PUSH8 0x6C6C6F77616E6365 PUSH1 0xC0 SHL PUSH1 0x64 DUP3 ADD MSTORE PUSH1 0x84 ADD JUMPDEST PUSH1 0x40 MLOAD DUP1 SWAP2 SUB SWAP1 REVERT JUMPDEST PUSH2 0x3D9 DUP6 CALLER PUSH2 0x3D4 DUP7 DUP6 PUSH2 0xB01 JUMP JUMPDEST PUSH2 0x690 JUMP JUMPDEST POP PUSH1 0x1 SWAP5 SWAP4 POP POP POP POP JUMP JUMPDEST CALLER PUSH1 0x0 DUP2 DUP2 MSTORE PUSH1 0x2 PUSH1 0x20 SWAP1 DUP2 MSTORE PUSH1 0x40 DUP1 DUP4 KECCAK256 PUSH1 0x1 PUSH1 0x1 PUSH1 0xA0 SHL SUB DUP8 AND DUP5 MSTORE SWAP1 SWAP2 MSTORE DUP2 KECCAK256 SLOAD SWAP1 SWAP2 PUSH2 0x324 SWAP2 DUP6 SWAP1 PUSH2 0x3D4 SWAP1 DUP7 SWAP1 PUSH2 0xB14 JUMP JUMPDEST PUSH1 0x0 SLOAD PUSH1 0x1 PUSH1 0x1 PUSH1 0xA0 SHL SUB AND CALLER EQ PUSH2 0x475 JUMPI PUSH1 0x40 MLOAD PUSH3 0x461BCD PUSH1 0xE5 SHL DUP2 MSTORE PUSH1 0x20 PUSH1 0x4 DUP3 ADD DUP2 SWAP1 MSTORE PUSH1 0x24 DUP3 ADD MSTORE PUSH32 0x4F776E61626C653A2063616C6C6572206973206E6F7420746865206F776E6572 PUSH1 0x44 DUP3 ADD MSTORE PUSH1 0x64 ADD PUSH2 0x3BC JUMP JUMPDEST PUSH1 0x0 DUP1 SLOAD PUSH1 0x40 MLOAD PUSH1 0x1 PUSH1 0x1 PUSH1 0xA0 SHL SUB SWAP1 SWAP2 AND SWAP1 PUSH32 0x8BE0079C531659141344CD1FD0A4F28419497F9722A3DAAFE3B4186F6B6457E0 SWAP1 DUP4 SWAP1 LOG3 PUSH1 0x0 DUP1 SLOAD PUSH1 0x1 PUSH1 0x1 PUSH1 0xA0 SHL SUB NOT AND SWAP1 SSTORE JUMP JUMPDEST PUSH1 0x60 PUSH1 0x7 DUP1 SLOAD PUSH2 0x294 SWAP1 PUSH2 0xAB1 JUMP JUMPDEST CALLER PUSH1 0x0 SWAP1 DUP2 MSTORE PUSH1 0x2 PUSH1 0x20 SWAP1 DUP2 MSTORE PUSH1 0x40 DUP1 DUP4 KECCAK256 PUSH1 0x1 PUSH1 0x1 PUSH1 0xA0 SHL SUB DUP7 AND DUP5 MSTORE SWAP1 SWAP2 MSTORE DUP2 KECCAK256 SLOAD DUP3 DUP2 LT ISZERO PUSH2 0x550 JUMPI PUSH1 0x40 MLOAD PUSH3 0x461BCD PUSH1 0xE5 SHL DUP2 MSTORE PUSH1 0x20 PUSH1 0x4 DUP3 ADD MSTORE PUSH1 0x25 PUSH1 0x24 DUP3 ADD MSTORE PUSH32 0x45524332303A2064656372656173656420616C6C6F77616E63652062656C6F77 PUSH1 0x44 DUP3 ADD MSTORE PUSH5 0x207A65726F PUSH1 0xD8 SHL PUSH1 0x64 DUP3 ADD MSTORE PUSH1 0x84 ADD PUSH2 0x3BC JUMP JUMPDEST PUSH2 0x55F CALLER DUP6 PUSH2 0x3D4 DUP7 DUP6 PUSH2 0xB01 JUMP JUMPDEST POP PUSH1 0x1 SWAP4 SWAP3 POP POP POP JUMP JUMPDEST PUSH1 0x0 PUSH2 0x324 CALLER DUP5 DUP5 PUSH2 0x7B4 JUMP JUMPDEST PUSH1 0x0 SLOAD PUSH1 0x1 PUSH1 0x1 PUSH1 0xA0 SHL SUB AND CALLER EQ PUSH2 0x5D0 JUMPI PUSH1 0x40 MLOAD PUSH3 0x461BCD PUSH1 0xE5 SHL DUP2 MSTORE PUSH1 0x20 PUSH1 0x4 DUP3 ADD DUP2 SWAP1 MSTORE PUSH1 0x24 DUP3 ADD MSTORE PUSH32 0x4F776E61626C653A2063616C6C6572206973206E6F7420746865206F776E6572 PUSH1 0x44 DUP3 ADD MSTORE PUSH1 0x64 ADD PUSH2 0x3BC JUMP JUMPDEST PUSH1 0x1 PUSH1 0x1 PUSH1 0xA0 SHL SUB DUP2 AND PUSH2 0x635 JUMPI PUSH1 0x40 MLOAD PUSH3 0x461BCD PUSH1 0xE5 SHL DUP2 MSTORE PUSH1 0x20 PUSH1 0x4 DUP3 ADD MSTORE PUSH1 0x26 PUSH1 0x24 DUP3 ADD MSTORE PUSH32 0x4F776E61626C653A206E6577206F776E657220697320746865207A65726F2061 PUSH1 0x44 DUP3 ADD MSTORE PUSH6 0x646472657373 PUSH1 0xD0 SHL PUSH1 0x64 DUP3 ADD MSTORE PUSH1 0x84 ADD PUSH2 0x3BC JUMP JUMPDEST PUSH1 0x0 DUP1 SLOAD PUSH1 0x40 MLOAD PUSH1 0x1 PUSH1 0x1 PUSH1 0xA0 SHL SUB DUP1 DUP6 AND SWAP4 SWAP3 AND SWAP2 PUSH32 0x8BE0079C531659141344CD1FD0A4F28419497F9722A3DAAFE3B4186F6B6457E0 SWAP2 LOG3 PUSH1 0x0 DUP1 SLOAD PUSH1 0x1 PUSH1 0x1 PUSH1 0xA0 SHL SUB NOT AND PUSH1 0x1 PUSH1 0x1 PUSH1 0xA0 SHL SUB SWAP3 SWAP1 SWAP3 AND SWAP2 SWAP1 SWAP2 OR SWAP1 SSTORE JUMP JUMPDEST PUSH1 0x1 PUSH1 0x1 PUSH1 0xA0 SHL SUB DUP4 AND PUSH2 0x6F2 JUMPI PUSH1 0x40 MLOAD PUSH3 0x461BCD PUSH1 0xE5 SHL DUP2 MSTORE PUSH1 0x20 PUSH1 0x4 DUP3 ADD MSTORE PUSH1 0x24 DUP1 DUP3 ADD MSTORE PUSH32 0x45524332303A20617070726F76652066726F6D20746865207A65726F20616464 PUSH1 0x44 DUP3 ADD MSTORE PUSH4 0x72657373 PUSH1 0xE0 SHL PUSH1 0x64 DUP3 ADD MSTORE PUSH1 0x84 ADD PUSH2 0x3BC JUMP JUMPDEST PUSH1 0x1 PUSH1 0x1 PUSH1 0xA0 SHL SUB DUP3 AND PUSH2 0x753 JUMPI PUSH1 0x40 MLOAD PUSH3 0x461BCD PUSH1 0xE5 SHL DUP2 MSTORE PUSH1 0x20 PUSH1 0x4 DUP3 ADD MSTORE PUSH1 0x22 PUSH1 0x24 DUP3 ADD MSTORE PUSH32 0x45524332303A20617070726F766520746F20746865207A65726F206164647265 PUSH1 0x44 DUP3 ADD MSTORE PUSH2 0x7373 PUSH1 0xF0 SHL PUSH1 0x64 DUP3 ADD MSTORE PUSH1 0x84 ADD PUSH2 0x3BC JUMP JUMPDEST PUSH1 0x1 PUSH1 0x1 PUSH1 0xA0 SHL SUB DUP4 DUP2 AND PUSH1 0x0 DUP2 DUP2 MSTORE PUSH1 0x2 PUSH1 0x20 SWAP1 DUP2 MSTORE PUSH1 0x40 DUP1 DUP4 KECCAK256 SWAP5 DUP8 AND DUP1 DUP5 MSTORE SWAP5 DUP3 MSTORE SWAP2 DUP3 SWAP1 KECCAK256 DUP6 SWAP1 SSTORE SWAP1 MLOAD DUP5 DUP2 MSTORE PUSH32 0x8C5BE1E5EBEC7D5BD14F71427D1E84F3DD0314C0F7B2291E5B200AC8C7C3B925 SWAP2 ADD PUSH1 0x40 MLOAD DUP1 SWAP2 SUB SWAP1 LOG3 POP POP POP JUMP JUMPDEST PUSH1 0x1 PUSH1 0x1 PUSH1 0xA0 SHL SUB DUP4 AND PUSH2 0x818 JUMPI PUSH1 0x40 MLOAD PUSH3 0x461BCD PUSH1 0xE5 SHL DUP2 MSTORE PUSH1 0x20 PUSH1 0x4 DUP3 ADD MSTORE PUSH1 0x25 PUSH1 0x24 DUP3 ADD MSTORE PUSH32 0x45524332303A207472616E736665722066726F6D20746865207A65726F206164 PUSH1 0x44 DUP3 ADD MSTORE PUSH5 0x6472657373 PUSH1 0xD8 SHL PUSH1 0x64 DUP3 ADD MSTORE PUSH1 0x84 ADD PUSH2 0x3BC JUMP JUMPDEST PUSH1 0x1 PUSH1 0x1 PUSH1 0xA0 SHL SUB DUP3 AND PUSH2 0x87A JUMPI PUSH1 0x40 MLOAD PUSH3 0x461BCD PUSH1 0xE5 SHL DUP2 MSTORE PUSH1 0x20 PUSH1 0x4 DUP3 ADD MSTORE PUSH1 0x23 PUSH1 0x24 DUP3 ADD MSTORE PUSH32 0x45524332303A207472616E7366657220746F20746865207A65726F2061646472 PUSH1 0x44 DUP3 ADD MSTORE PUSH3 0x657373 PUSH1 0xE8 SHL PUSH1 0x64 DUP3 ADD MSTORE PUSH1 0x84 ADD PUSH2 0x3BC JUMP JUMPDEST PUSH1 0x1 PUSH1 0x1 PUSH1 0xA0 SHL SUB DUP4 AND PUSH1 0x0 SWAP1 DUP2 MSTORE PUSH1 0x1 PUSH1 0x20 MSTORE PUSH1 0x40 SWAP1 KECCAK256 SLOAD DUP2 DUP2 LT ISZERO PUSH2 0x8F2 JUMPI PUSH1 0x40 MLOAD PUSH3 0x461BCD PUSH1 0xE5 SHL DUP2 MSTORE PUSH1 0x20 PUSH1 0x4 DUP3 ADD MSTORE PUSH1 0x26 PUSH1 0x24 DUP3 ADD MSTORE PUSH32 0x45524332303A207472616E7366657220616D6F756E7420657863656564732062 PUSH1 0x44 DUP3 ADD MSTORE PUSH6 0x616C616E6365 PUSH1 0xD0 SHL PUSH1 0x64 DUP3 ADD MSTORE PUSH1 0x84 ADD PUSH2 0x3BC JUMP JUMPDEST PUSH2 0x8FC DUP3 DUP3 PUSH2 0xB01 JUMP JUMPDEST PUSH1 0x1 PUSH1 0x1 PUSH1 0xA0 SHL SUB DUP1 DUP7 AND PUSH1 0x0 SWAP1 DUP2 MSTORE PUSH1 0x1 PUSH1 0x20 MSTORE PUSH1 0x40 DUP1 DUP3 KECCAK256 SWAP4 SWAP1 SWAP4 SSTORE SWAP1 DUP6 AND DUP2 MSTORE SWAP1 DUP2 KECCAK256 DUP1 SLOAD DUP5 SWAP3 SWAP1 PUSH2 0x932 SWAP1 DUP5 SWAP1 PUSH2 0xB14 JUMP JUMPDEST SWAP3 POP POP DUP2 SWAP1 SSTORE POP DUP3 PUSH1 0x1 PUSH1 0x1 PUSH1 0xA0 SHL SUB AND DUP5 PUSH1 0x1 PUSH1 0x1 PUSH1 0xA0 SHL SUB AND PUSH32 0xDDF252AD1BE2C89B69C2B068FC378DAA952BA7F163C4A11628F55A4DF523B3EF DUP5 PUSH1 0x40 MLOAD PUSH2 0x97E SWAP2 DUP2 MSTORE PUSH1 0x20 ADD SWAP1 JUMP JUMPDEST PUSH1 0x40 MLOAD DUP1 SWAP2 SUB SWAP1 LOG3 POP POP POP POP JUMP JUMPDEST PUSH1 0x0 PUSH1 0x20 DUP1 DUP4 MSTORE DUP4 MLOAD DUP1 DUP3 DUP6 ADD MSTORE PUSH1 0x0 JUMPDEST DUP2 DUP2 LT ISZERO PUSH2 0x9B9 JUMPI DUP6 DUP2 ADD DUP4 ADD MLOAD DUP6 DUP3 ADD PUSH1 0x40 ADD MSTORE DUP3 ADD PUSH2 0x99D JUMP JUMPDEST POP PUSH1 0x0 PUSH1 0x40 DUP3 DUP7 ADD ADD MSTORE PUSH1 0x40 PUSH1 0x1F NOT PUSH1 0x1F DUP4 ADD AND DUP6 ADD ADD SWAP3 POP POP POP SWAP3 SWAP2 POP POP JUMP JUMPDEST DUP1 CALLDATALOAD PUSH1 0x1 PUSH1 0x1 PUSH1 0xA0 SHL SUB DUP2 AND DUP2 EQ PUSH2 0x9F1 JUMPI PUSH1 0x0 DUP1 REVERT JUMPDEST SWAP2 SWAP1 POP JUMP JUMPDEST PUSH1 0x0 DUP1 PUSH1 0x40 DUP4 DUP6 SUB SLT ISZERO PUSH2 0xA09 JUMPI PUSH1 0x0 DUP1 REVERT JUMPDEST PUSH2 0xA12 DUP4 PUSH2 0x9DA JUMP JUMPDEST SWAP5 PUSH1 0x20 SWAP4 SWAP1 SWAP4 ADD CALLDATALOAD SWAP4 POP POP POP JUMP JUMPDEST PUSH1 0x0 DUP1 PUSH1 0x0 PUSH1 0x60 DUP5 DUP7 SUB SLT ISZERO PUSH2 0xA35 JUMPI PUSH1 0x0 DUP1 REVERT JUMPDEST PUSH2 0xA3E DUP5 PUSH2 0x9DA JUMP JUMPDEST SWAP3 POP PUSH2 0xA4C PUSH1 0x20 DUP6 ADD PUSH2 0x9DA JUMP JUMPDEST SWAP2 POP PUSH1 0x40 DUP5 ADD CALLDATALOAD SWAP1 POP SWAP3 POP SWAP3 POP SWAP3 JUMP JUMPDEST PUSH1 0x0 PUSH1 0x20 DUP3 DUP5 SUB SLT ISZERO PUSH2 0xA6E JUMPI PUSH1 0x0 DUP1 REVERT JUMPDEST PUSH2 0xA77 DUP3 PUSH2 0x9DA JUMP JUMPDEST SWAP4 SWAP3 POP POP POP JUMP JUMPDEST PUSH1 0x0 DUP1 PUSH1 0x40 DUP4 DUP6 SUB SLT ISZERO PUSH2 0xA91 JUMPI PUSH1 0x0 DUP1 REVERT JUMPDEST PUSH2 0xA9A DUP4 PUSH2 0x9DA JUMP JUMPDEST SWAP2 POP PUSH2 0xAA8 PUSH1 0x20 DUP5 ADD PUSH2 0x9DA JUMP JUMPDEST SWAP1 POP SWAP3 POP SWAP3 SWAP1 POP JUMP JUMPDEST PUSH1 0x1 DUP2 DUP2 SHR SWAP1 DUP3 AND DUP1 PUSH2 0xAC5 JUMPI PUSH1 0x7F DUP3 AND SWAP2 POP JUMPDEST PUSH1 0x20 DUP3 LT DUP2 SUB PUSH2 0xAE5 JUMPI PUSH4 0x4E487B71 PUSH1 0xE0 SHL PUSH1 0x0 MSTORE PUSH1 0x22 PUSH1 0x4 MSTORE PUSH1 0x24 PUSH1 0x0 REVERT JUMPDEST POP SWAP2 SWAP1 POP JUMP JUMPDEST PUSH4 0x4E487B71 PUSH1 0xE0 SHL PUSH1 0x0 MSTORE PUSH1 0x11 PUSH1 0x4 MSTORE PUSH1 0x24 PUSH1 0x0 REVERT JUMPDEST DUP2 DUP2 SUB DUP2 DUP2 GT ISZERO PUSH2 0x328 JUMPI PUSH2 0x328 PUSH2 0xAEB JUMP JUMPDEST DUP1 DUP3 ADD DUP1 DUP3 GT ISZERO PUSH2 0x328 JUMPI PUSH2 0x328 PUSH2 0xAEB JUMP INVALID LOG2 PUSH5 0x6970667358 0x22 SLT KECCAK256 0x2C 0xC6 0x22 0xBA PUSH10 0x27EEDB260810925773EC 0x5E DUP13 PUSH20 0x23BE24FDC16B4DC96617C7B009DA64736F6C6343 STOP ADDMOD SGT STOP CALLER "
				},
				"gasEstimates": {
					"creation": {
						"codeDepositCost": "581800",
						"executionCost": "infinite",
						"totalCost": "infinite"
					},
					"external": {
						"allowance(address,address)": "infinite",
						"approve(address,uint256)": "24643",
						"balanceOf(address)": "2626",
						"decimals()": "222",
						"decreaseAllowance(address,uint256)": "27043",
						"increaseAllowance(address,uint256)": "infinite",
						"name()": "infinite",
						"owner()": "2346",
						"renounceOwnership()": "30188",
						"symbol()": "infinite",
						"totalSupply()": "2349",
						"tradeOpen()": "2333",
						"transfer(address,uint256)": "infinite",
						"transferFrom(address,address,uint256)": "infinite",
						"transferOwnership(address)": "30488",
						"whitelisted(address)": "2575"
					},
					"internal": {
						"_afterTokenTransfer(address,address,uint256)": "infinite",
						"_approve(address,address,uint256)": "infinite",
						"_beforeTokenTransfer(address,address,uint256)": "infinite",
						"_burn(address,uint256)": "infinite",
						"_mint(address,uint256)": "infinite",
						"_transfer(address,address,uint256)": "infinite"
					}
				},
				"methodIdentifiers": {
					"allowance(address,address)": "dd62ed3e",
					"approve(address,uint256)": "095ea7b3",
					"balanceOf(address)": "70a08231",
					"decimals()": "313ce567",
					"decreaseAllowance(address,uint256)": "a457c2d7",
					"increaseAllowance(address,uint256)": "39509351",
					"name()": "06fdde03",
					"owner()": "8da5cb5b",
					"renounceOwnership()": "715018a6",
					"symbol()": "95d89b41",
					"totalSupply()": "18160ddd",
					"tradeOpen()": "25fa0b98",
					"transfer(address,uint256)": "a9059cbb",
					"transferFrom(address,address,uint256)": "23b872dd",
					"transferOwnership(address)": "f2fde38b",
					"whitelisted(address)": "d936547e"
				}
			},
			"storageLayout": {
				"storage": [
					{
						"astId": 947,
						"contract": "TTT_token.sol:StandardToken",
						"label": "_owner",
						"offset": 0,
						"slot": "0",
						"type": "t_address"
					},
					{
						"astId": 1058,
						"contract": "TTT_token.sol:StandardToken",
						"label": "_balances",
						"offset": 0,
						"slot": "1",
						"type": "t_mapping(t_address,t_uint256)"
					},
					{
						"astId": 1064,
						"contract": "TTT_token.sol:StandardToken",
						"label": "_allowances",
						"offset": 0,
						"slot": "2",
						"type": "t_mapping(t_address,t_mapping(t_address,t_uint256))"
					},
					{
						"astId": 1066,
						"contract": "TTT_token.sol:StandardToken",
						"label": "_totalSupply",
						"offset": 0,
						"slot": "3",
						"type": "t_uint256"
					},
					{
						"astId": 1068,
						"contract": "TTT_token.sol:StandardToken",
						"label": "tradeOpen",
						"offset": 0,
						"slot": "4",
						"type": "t_bool"
					},
					{
						"astId": 1072,
						"contract": "TTT_token.sol:StandardToken",
						"label": "whitelisted",
						"offset": 0,
						"slot": "5",
						"type": "t_mapping(t_address,t_bool)"
					},
					{
						"astId": 1074,
						"contract": "TTT_token.sol:StandardToken",
						"label": "_name",
						"offset": 0,
						"slot": "6",
						"type": "t_string_storage"
					},
					{
						"astId": 1076,
						"contract": "TTT_token.sol:StandardToken",
						"label": "_symbol",
						"offset": 0,
						"slot": "7",
						"type": "t_string_storage"
					}
				],
				"types": {
					"t_address": {
						"encoding": "inplace",
						"label": "address",
						"numberOfBytes": "20"
					},
					"t_bool": {
						"encoding": "inplace",
						"label": "bool",
						"numberOfBytes": "1"
					},
					"t_mapping(t_address,t_bool)": {
						"encoding": "mapping",
						"key": "t_address",
						"label": "mapping(address => bool)",
						"numberOfBytes": "32",
						"value": "t_bool"
					},
					"t_mapping(t_address,t_mapping(t_address,t_uint256))": {
						"encoding": "mapping",
						"key": "t_address",
						"label": "mapping(address => mapping(address => uint256))",
						"numberOfBytes": "32",
						"value": "t_mapping(t_address,t_uint256)"
					},
					"t_mapping(t_address,t_uint256)": {
						"encoding": "mapping",
						"key": "t_address",
						"label": "mapping(address => uint256)",
						"numberOfBytes": "32",
						"value": "t_uint256"
					},
					"t_string_storage": {
						"encoding": "bytes",
						"label": "string",
						"numberOfBytes": "32"
					},
					"t_uint256": {
						"encoding": "inplace",
						"label": "uint256",
						"numberOfBytes": "32"
					}
				}
			},
			"userdoc": {
				"kind": "user",
				"methods": {},
				"version": 1
			}
		}
	}
}