{
	"Practical6-Apply-TTT-Token.sol": {
		"TickTackToe": {
			"abi": [
				{
					"inputs": [],
					"stateMutability": "nonpayable",
					"type": "constructor"
				},
				{
					"anonymous": false,
					"inputs": [
						{
							"indexed": false,
							"internalType": "uint256",
							"name": "gameId",
							"type": "uint256"
						}
					],
					"name": "createRoom",
					"type": "event"
				},
				{
					"anonymous": false,
					"inputs": [
						{
							"indexed": false,
							"internalType": "address",
							"name": "msgSender",
							"type": "address"
						},
						{
							"indexed": false,
							"internalType": "bool",
							"name": "successful",
							"type": "bool"
						}
					],
					"name": "faucet",
					"type": "event"
				},
				{
					"anonymous": false,
					"inputs": [
						{
							"components": [
								{
									"internalType": "bool",
									"name": "_activate",
									"type": "bool"
								},
								{
									"internalType": "string",
									"name": "_currentPlayer",
									"type": "string"
								},
								{
									"internalType": "string[]",
									"name": "_options",
									"type": "string[]"
								},
								{
									"internalType": "uint256[]",
									"name": "_finalWinOption",
									"type": "uint256[]"
								},
								{
									"internalType": "address",
									"name": "_player1address",
									"type": "address"
								},
								{
									"internalType": "address",
									"name": "_player2address",
									"type": "address"
								},
								{
									"internalType": "uint256",
									"name": "_playerCount",
									"type": "uint256"
								},
								{
									"internalType": "address",
									"name": "_winer",
									"type": "address"
								},
								{
									"internalType": "uint256",
									"name": "_player1Bet",
									"type": "uint256"
								},
								{
									"internalType": "uint256",
									"name": "_player2Bet",
									"type": "uint256"
								},
								{
									"internalType": "uint256",
									"name": "_rewardAmount",
									"type": "uint256"
								}
							],
							"indexed": false,
							"internalType": "struct TickTackToe.GameInfo",
							"name": "gameinfo",
							"type": "tuple"
						},
						{
							"indexed": false,
							"internalType": "uint256",
							"name": "gameId",
							"type": "uint256"
						}
					],
					"name": "joinRoom",
					"type": "event"
				},
				{
					"anonymous": false,
					"inputs": [
						{
							"indexed": false,
							"internalType": "string",
							"name": "next",
							"type": "string"
						},
						{
							"indexed": false,
							"internalType": "uint256",
							"name": "gameId",
							"type": "uint256"
						}
					],
					"name": "nextUesrStr",
					"type": "event"
				},
				{
					"anonymous": false,
					"inputs": [
						{
							"indexed": false,
							"internalType": "address",
							"name": "nextUser",
							"type": "address"
						},
						{
							"indexed": false,
							"internalType": "uint256",
							"name": "gameId",
							"type": "uint256"
						}
					],
					"name": "nextUser",
					"type": "event"
				},
				{
					"anonymous": false,
					"inputs": [
						{
							"indexed": false,
							"internalType": "uint256",
							"name": "gameId",
							"type": "uint256"
						}
					],
					"name": "resetUI",
					"type": "event"
				},
				{
					"anonymous": false,
					"inputs": [
						{
							"indexed": false,
							"internalType": "address",
							"name": "player1Address",
							"type": "address"
						},
						{
							"indexed": false,
							"internalType": "uint256",
							"name": "gameId",
							"type": "uint256"
						}
					],
					"name": "showFirstPlayer",
					"type": "event"
				},
				{
					"anonymous": false,
					"inputs": [
						{
							"indexed": false,
							"internalType": "string",
							"name": "result",
							"type": "string"
						},
						{
							"indexed": false,
							"internalType": "uint256",
							"name": "gameId",
							"type": "uint256"
						}
					],
					"name": "showResult",
					"type": "event"
				},
				{
					"anonymous": false,
					"inputs": [
						{
							"indexed": false,
							"internalType": "string",
							"name": "message",
							"type": "string"
						},
						{
							"indexed": false,
							"internalType": "address",
							"name": "player1",
							"type": "address"
						},
						{
							"indexed": false,
							"internalType": "address",
							"name": "player2",
							"type": "address"
						},
						{
							"indexed": false,
							"internalType": "uint256",
							"name": "gameId",
							"type": "uint256"
						}
					],
					"name": "startGame",
					"type": "event"
				},
				{
					"anonymous": false,
					"inputs": [
						{
							"indexed": false,
							"internalType": "string[]",
							"name": "options",
							"type": "string[]"
						},
						{
							"indexed": false,
							"internalType": "uint256",
							"name": "gameId",
							"type": "uint256"
						}
					],
					"name": "updateUI",
					"type": "event"
				},
				{
					"inputs": [],
					"name": "TTTToken",
					"outputs": [
						{
							"internalType": "contract IERC20",
							"name": "",
							"type": "address"
						}
					],
					"stateMutability": "view",
					"type": "function"
				},
				{
					"inputs": [],
					"name": "burnFee",
					"outputs": [
						{
							"internalType": "uint256",
							"name": "",
							"type": "uint256"
						}
					],
					"stateMutability": "view",
					"type": "function"
				},
				{
					"inputs": [
						{
							"internalType": "string",
							"name": "a",
							"type": "string"
						},
						{
							"internalType": "string",
							"name": "b",
							"type": "string"
						}
					],
					"name": "compareStrings",
					"outputs": [
						{
							"internalType": "bool",
							"name": "",
							"type": "bool"
						}
					],
					"stateMutability": "pure",
					"type": "function"
				},
				{
					"inputs": [
						{
							"internalType": "uint256",
							"name": "betAmount",
							"type": "uint256"
						}
					],
					"name": "createGameRoom",
					"outputs": [],
					"stateMutability": "nonpayable",
					"type": "function"
				},
				{
					"inputs": [],
					"name": "faucetToken",
					"outputs": [],
					"stateMutability": "nonpayable",
					"type": "function"
				},
				{
					"inputs": [
						{
							"internalType": "uint256",
							"name": "",
							"type": "uint256"
						}
					],
					"name": "gameInformation",
					"outputs": [
						{
							"internalType": "bool",
							"name": "_activate",
							"type": "bool"
						},
						{
							"internalType": "string",
							"name": "_currentPlayer",
							"type": "string"
						},
						{
							"internalType": "address",
							"name": "_player1address",
							"type": "address"
						},
						{
							"internalType": "address",
							"name": "_player2address",
							"type": "address"
						},
						{
							"internalType": "uint256",
							"name": "_playerCount",
							"type": "uint256"
						},
						{
							"internalType": "address",
							"name": "_winer",
							"type": "address"
						},
						{
							"internalType": "uint256",
							"name": "_player1Bet",
							"type": "uint256"
						},
						{
							"internalType": "uint256",
							"name": "_player2Bet",
							"type": "uint256"
						},
						{
							"internalType": "uint256",
							"name": "_rewardAmount",
							"type": "uint256"
						}
					],
					"stateMutability": "view",
					"type": "function"
				},
				{
					"inputs": [],
					"name": "getAllGameInformation",
					"outputs": [
						{
							"components": [
								{
									"internalType": "bool",
									"name": "_activate",
									"type": "bool"
								},
								{
									"internalType": "string",
									"name": "_currentPlayer",
									"type": "string"
								},
								{
									"internalType": "string[]",
									"name": "_options",
									"type": "string[]"
								},
								{
									"internalType": "uint256[]",
									"name": "_finalWinOption",
									"type": "uint256[]"
								},
								{
									"internalType": "address",
									"name": "_player1address",
									"type": "address"
								},
								{
									"internalType": "address",
									"name": "_player2address",
									"type": "address"
								},
								{
									"internalType": "uint256",
									"name": "_playerCount",
									"type": "uint256"
								},
								{
									"internalType": "address",
									"name": "_winer",
									"type": "address"
								},
								{
									"internalType": "uint256",
									"name": "_player1Bet",
									"type": "uint256"
								},
								{
									"internalType": "uint256",
									"name": "_player2Bet",
									"type": "uint256"
								},
								{
									"internalType": "uint256",
									"name": "_rewardAmount",
									"type": "uint256"
								}
							],
							"internalType": "struct TickTackToe.GameInfo[]",
							"name": "",
							"type": "tuple[]"
						}
					],
					"stateMutability": "view",
					"type": "function"
				},
				{
					"inputs": [],
					"name": "getAllMoney",
					"outputs": [],
					"stateMutability": "nonpayable",
					"type": "function"
				},
				{
					"inputs": [],
					"name": "getExcessBalance",
					"outputs": [],
					"stateMutability": "nonpayable",
					"type": "function"
				},
				{
					"inputs": [
						{
							"internalType": "uint256",
							"name": "gameId",
							"type": "uint256"
						}
					],
					"name": "getFinalWinOption",
					"outputs": [
						{
							"internalType": "uint256[]",
							"name": "",
							"type": "uint256[]"
						}
					],
					"stateMutability": "view",
					"type": "function"
				},
				{
					"inputs": [
						{
							"internalType": "uint256",
							"name": "gameId",
							"type": "uint256"
						}
					],
					"name": "getGameInformation",
					"outputs": [
						{
							"components": [
								{
									"internalType": "bool",
									"name": "_activate",
									"type": "bool"
								},
								{
									"internalType": "string",
									"name": "_currentPlayer",
									"type": "string"
								},
								{
									"internalType": "string[]",
									"name": "_options",
									"type": "string[]"
								},
								{
									"internalType": "uint256[]",
									"name": "_finalWinOption",
									"type": "uint256[]"
								},
								{
									"internalType": "address",
									"name": "_player1address",
									"type": "address"
								},
								{
									"internalType": "address",
									"name": "_player2address",
									"type": "address"
								},
								{
									"internalType": "uint256",
									"name": "_playerCount",
									"type": "uint256"
								},
								{
									"internalType": "address",
									"name": "_winer",
									"type": "address"
								},
								{
									"internalType": "uint256",
									"name": "_player1Bet",
									"type": "uint256"
								},
								{
									"internalType": "uint256",
									"name": "_player2Bet",
									"type": "uint256"
								},
								{
									"internalType": "uint256",
									"name": "_rewardAmount",
									"type": "uint256"
								}
							],
							"internalType": "struct TickTackToe.GameInfo",
							"name": "",
							"type": "tuple"
						}
					],
					"stateMutability": "view",
					"type": "function"
				},
				{
					"inputs": [
						{
							"internalType": "uint256",
							"name": "gameId",
							"type": "uint256"
						}
					],
					"name": "getoption",
					"outputs": [
						{
							"internalType": "string[]",
							"name": "",
							"type": "string[]"
						}
					],
					"stateMutability": "view",
					"type": "function"
				},
				{
					"inputs": [
						{
							"internalType": "uint256",
							"name": "gameId",
							"type": "uint256"
						},
						{
							"internalType": "uint256",
							"name": "betAmount",
							"type": "uint256"
						}
					],
					"name": "joinGame",
					"outputs": [],
					"stateMutability": "nonpayable",
					"type": "function"
				},
				{
					"inputs": [],
					"name": "minBetAmount",
					"outputs": [
						{
							"internalType": "uint256",
							"name": "",
							"type": "uint256"
						}
					],
					"stateMutability": "view",
					"type": "function"
				},
				{
					"inputs": [],
					"name": "owner",
					"outputs": [
						{
							"internalType": "address",
							"name": "",
							"type": "address"
						}
					],
					"stateMutability": "view",
					"type": "function"
				},
				{
					"inputs": [
						{
							"internalType": "uint256",
							"name": "gameId",
							"type": "uint256"
						}
					],
					"name": "restartGame",
					"outputs": [],
					"stateMutability": "nonpayable",
					"type": "function"
				},
				{
					"inputs": [],
					"name": "totalAmount",
					"outputs": [
						{
							"internalType": "uint256",
							"name": "",
							"type": "uint256"
						}
					],
					"stateMutability": "view",
					"type": "function"
				},
				{
					"inputs": [],
					"name": "treasury",
					"outputs": [
						{
							"internalType": "address",
							"name": "",
							"type": "address"
						}
					],
					"stateMutability": "view",
					"type": "function"
				},
				{
					"inputs": [],
					"name": "treasuryFee",
					"outputs": [
						{
							"internalType": "uint256",
							"name": "",
							"type": "uint256"
						}
					],
					"stateMutability": "view",
					"type": "function"
				},
				{
					"inputs": [
						{
							"internalType": "uint256",
							"name": "input",
							"type": "uint256"
						},
						{
							"internalType": "uint256",
							"name": "gameId",
							"type": "uint256"
						}
					],
					"name": "userInput",
					"outputs": [],
					"stateMutability": "nonpayable",
					"type": "function"
				},
				{
					"inputs": [
						{
							"internalType": "uint256",
							"name": "gameId",
							"type": "uint256"
						}
					],
					"name": "validateRestartPlayer",
					"outputs": [],
					"stateMutability": "nonpayable",
					"type": "function"
				}
			],
			"devdoc": {
				"kind": "dev",
				"methods": {},
				"version": 1
			},
			"evm": {
				"assembly": "    /* \"Practical6-Apply-TTT-Token.sol\":169:244  IERC20 public TTTToken = IERC20(0x927E818dDCaB12d025495B228A4ce1dAE82798Ec) */\n  0x00\n  dup1\n  sload\n  not(sub(shl(0xa0, 0x01), 0x01))\n  swap1\n  dup2\n  and\n    /* \"Practical6-Apply-TTT-Token.sol\":201:243  0x927E818dDCaB12d025495B228A4ce1dAE82798Ec */\n  0x927e818ddcab12d025495b228a4ce1dae82798ec\n    /* \"Practical6-Apply-TTT-Token.sol\":169:244  IERC20 public TTTToken = IERC20(0x927E818dDCaB12d025495B228A4ce1dAE82798Ec) */\n  or\n  dup3\n  sstore\n    /* \"Practical6-Apply-TTT-Token.sol\":365:373  10 ether */\n  0x8ac7230489e80000\n    /* \"Practical6-Apply-TTT-Token.sol\":169:244  IERC20 public TTTToken = IERC20(0x927E818dDCaB12d025495B228A4ce1dAE82798Ec) */\n  0x01\n    /* \"Practical6-Apply-TTT-Token.sol\":335:373  uint256 public minBetAmount = 10 ether */\n  swap1\n  dup2\n  sstore\n    /* \"Practical6-Apply-TTT-Token.sol\":386:454  address public treasury = 0x3cE5a8a72820585C60F659896338D57347196991 */\n  0x02\n  dup1\n  sload\n  swap1\n  swap3\n  and\n    /* \"Practical6-Apply-TTT-Token.sol\":412:454  0x3cE5a8a72820585C60F659896338D57347196991 */\n  0x3ce5a8a72820585c60f659896338d57347196991\n    /* \"Practical6-Apply-TTT-Token.sol\":386:454  address public treasury = 0x3cE5a8a72820585C60F659896338D57347196991 */\n  or\n  dup3\n  sstore\n    /* \"Practical6-Apply-TTT-Token.sol\":490:491  5 */\n  0x05\n    /* \"Practical6-Apply-TTT-Token.sol\":465:491  uint256 public burnFee = 5 */\n  0x03\n  dup2\n  dup2\n  sstore\n    /* \"Practical6-Apply-TTT-Token.sol\":502:532  uint256 public treasuryFee = 5 */\n  0x04\n  dup3\n  dup2\n  sstore\n    /* \"Practical6-Apply-TTT-Token.sol\":1139:1434  uint[][] private winConditionSet=  ... */\n  0x0180\n  dup7\n  dup2\n  mstore\n  0x01a0\n  dup6\n  swap1\n  mstore\n  0x01c0\n  dup7\n  swap1\n  mstore\n    /* \"Practical6-Apply-TTT-Token.sol\":138:14465  contract TickTackToe{... */\n  0x80\n    /* \"Practical6-Apply-TTT-Token.sol\":1139:1434  uint[][] private winConditionSet=  ... */\n  swap1\n  dup2\n  mstore\n  0x01e0\n  dup4\n  dup2\n  mstore\n  0x0200\n  dup4\n  swap1\n  mstore\n  0x0220\n  dup6\n  swap1\n  mstore\n  0xa0\n  mstore\n    /* \"Practical6-Apply-TTT-Token.sol\":1256:1257  6 */\n  0x06\n    /* \"Practical6-Apply-TTT-Token.sol\":1139:1434  uint[][] private winConditionSet=  ... */\n  0x0240\n  dup2\n  dup2\n  mstore\n    /* \"Practical6-Apply-TTT-Token.sol\":1259:1260  7 */\n  0x07\n    /* \"Practical6-Apply-TTT-Token.sol\":1139:1434  uint[][] private winConditionSet=  ... */\n  0x0260\n  dup2\n  swap1\n  mstore\n    /* \"Practical6-Apply-TTT-Token.sol\":1262:1263  8 */\n  0x08\n    /* \"Practical6-Apply-TTT-Token.sol\":1139:1434  uint[][] private winConditionSet=  ... */\n  0x0280\n  dup2\n  swap1\n  mstore\n  0xc0\n  swap3\n  swap1\n  swap3\n  mstore\n  0x02a0\n  dup11\n  dup2\n  mstore\n  0x02c0\n  swap7\n  swap1\n  swap7\n  mstore\n  0x02e0\n  dup4\n  swap1\n  mstore\n  0xe0\n  swap6\n  swap1\n  swap6\n  mstore\n  0x0300\n  swap7\n  dup8\n  mstore\n  0x0320\n  dup5\n  swap1\n  mstore\n  0x0340\n  swap5\n  swap1\n  swap5\n  mstore\n    /* \"Practical6-Apply-TTT-Token.sol\":169:244  IERC20 public TTTToken = IERC20(0x927E818dDCaB12d025495B228A4ce1dAE82798Ec) */\n  0x0100\n    /* \"Practical6-Apply-TTT-Token.sol\":1139:1434  uint[][] private winConditionSet=  ... */\n  swap6\n  swap1\n  swap6\n  mstore\n  0x0360\n  dup7\n  dup2\n  mstore\n  0x0380\n  swap5\n  swap1\n  swap5\n  mstore\n  0x03a0\n  dup4\n  swap1\n  mstore\n  0x0120\n  swap4\n  swap1\n  swap4\n  mstore\n  0x03c0\n  swap6\n  dup7\n  mstore\n  0x03e0\n  dup2\n  swap1\n  mstore\n  0x0400\n  dup3\n  swap1\n  mstore\n  0x0140\n  swap6\n  swap1\n  swap6\n  mstore\n  0x0480\n    /* \"Practical6-Apply-TTT-Token.sol\":138:14465  contract TickTackToe{... */\n  0x40\n    /* \"Practical6-Apply-TTT-Token.sol\":1139:1434  uint[][] private winConditionSet=  ... */\n  mstore\n  0x0420\n  swap4\n  dup5\n  mstore\n  0x0440\n  swap5\n  swap1\n  swap5\n  mstore\n  0x0460\n  swap2\n  swap1\n  swap2\n  mstore\n  0x0160\n  swap2\n  swap1\n  swap2\n  mstore\n  tag_1\n  swap2\n    /* \"Practical6-Apply-TTT-Token.sol\":1262:1263  8 */\n  swap1\n  dup2\n    /* \"Practical6-Apply-TTT-Token.sol\":1139:1434  uint[][] private winConditionSet=  ... */\n  tag_2\n  jump\t// in\ntag_1:\n  pop\n    /* \"Practical6-Apply-TTT-Token.sol\":2210:2269  constructor() {... */\n  callvalue\n  dup1\n  iszero\n  tag_3\n  jumpi\n  0x00\n  dup1\n  revert\ntag_3:\n  pop\n    /* \"Practical6-Apply-TTT-Token.sol\":2239:2244  owner */\n  0x06\n    /* \"Practical6-Apply-TTT-Token.sol\":2239:2257  owner = msg.sender */\n  dup1\n  sload\n  not(sub(shl(0xa0, 0x01), 0x01))\n  and\n    /* \"Practical6-Apply-TTT-Token.sol\":2247:2257  msg.sender */\n  caller\n    /* \"Practical6-Apply-TTT-Token.sol\":2239:2257  owner = msg.sender */\n  or\n  swap1\n  sstore\n    /* \"Practical6-Apply-TTT-Token.sol\":138:14465  contract TickTackToe{... */\n  jump(tag_6)\ntag_2:\n  dup3\n  dup1\n  sload\n  dup3\n  dup3\n  sstore\n  swap1\n  0x00\n  mstore\n  keccak256(0x00, 0x20)\n  swap1\n  dup2\n  add\n  swap3\n  dup3\n  iszero\n  tag_9\n  jumpi\n  swap2\n  0x20\n  mul\n  dup3\n  add\ntag_8:\n  dup3\n  dup2\n  gt\n  iszero\n  tag_9\n  jumpi\n  dup3\n  mload\n  tag_10\n  swap1\n  dup4\n  swap1\n  0x03\n  tag_11\n  jump\t// in\ntag_10:\n  pop\n  swap2\n  0x20\n  add\n  swap2\n  swap1\n  0x01\n  add\n  swap1\n  jump(tag_8)\ntag_9:\n  pop\n  tag_12\n  swap3\n  swap2\n  pop\n  tag_13\n  jump\t// in\ntag_12:\n  pop\n  swap1\n  jump\t// out\ntag_11:\n  dup3\n  dup1\n  sload\n  dup3\n  dup3\n  sstore\n  swap1\n  0x00\n  mstore\n  keccak256(0x00, 0x20)\n  swap1\n  dup2\n  add\n  swap3\n  dup3\n  iszero\n  tag_16\n  jumpi\n  swap2\n  0x20\n  mul\n  dup3\n  add\ntag_15:\n  dup3\n  dup2\n  gt\n  iszero\n  tag_16\n  jumpi\n  dup3\n  mload\n  dup3\n  swap1\n  0xff\n  and\n  swap1\n  sstore\n  swap2\n  0x20\n  add\n  swap2\n  swap1\n  0x01\n  add\n  swap1\n  jump(tag_15)\ntag_16:\n  pop\n  tag_12\n  swap3\n  swap2\n  pop\n  tag_18\n  jump\t// in\ntag_13:\n  dup1\n  dup3\n  gt\n  iszero\n  tag_12\n  jumpi\n  0x00\n  tag_21\n  dup3\n  dup3\n  tag_22\n  jump\t// in\ntag_21:\n  pop\n  0x01\n  add\n  jump(tag_13)\ntag_18:\ntag_23:\n  dup1\n  dup3\n  gt\n  iszero\n  tag_12\n  jumpi\n  0x00\n  dup2\n  sstore\n  0x01\n  add\n  jump(tag_23)\ntag_22:\n  pop\n  dup1\n  sload\n  0x00\n  dup3\n  sstore\n  swap1\n  0x00\n  mstore\n  keccak256(0x00, 0x20)\n  swap1\n  dup2\n  add\n  swap1\n  tag_26\n  swap2\n  swap1\n  tag_18\n  jump\t// in\ntag_26:\n  pop\n  jump\t// out\ntag_6:\n  dataSize(sub_0)\n  dup1\n  dataOffset(sub_0)\n  0x00\n  codecopy\n  0x00\n  return\nstop\n\nsub_0: assembly {\n        /* \"Practical6-Apply-TTT-Token.sol\":138:14465  contract TickTackToe{... */\n      mstore(0x40, 0x80)\n      callvalue\n      dup1\n      iszero\n      tag_1\n      jumpi\n      0x00\n      dup1\n      revert\n    tag_1:\n      pop\n      jumpi(tag_2, lt(calldatasize, 0x04))\n      shr(0xe0, calldataload(0x00))\n      dup1\n      0x888b042f\n      gt\n      tag_24\n      jumpi\n      dup1\n      0xbed34bba\n      gt\n      tag_25\n      jumpi\n      dup1\n      0xbed34bba\n      eq\n      tag_18\n      jumpi\n      dup1\n      0xcc32d176\n      eq\n      tag_19\n      jumpi\n      dup1\n      0xdc572c6e\n      eq\n      tag_20\n      jumpi\n      dup1\n      0xedb84ff7\n      eq\n      tag_21\n      jumpi\n      dup1\n      0xfa968eea\n      eq\n      tag_22\n      jumpi\n      dup1\n      0xfce589d8\n      eq\n      tag_23\n      jumpi\n      0x00\n      dup1\n      revert\n    tag_25:\n      dup1\n      0x888b042f\n      eq\n      tag_13\n      jumpi\n      dup1\n      0x8da5cb5b\n      eq\n      tag_14\n      jumpi\n      dup1\n      0xb2182be4\n      eq\n      tag_15\n      jumpi\n      dup1\n      0xb60b9fcb\n      eq\n      tag_16\n      jumpi\n      dup1\n      0xb7b524a1\n      eq\n      tag_17\n      jumpi\n      0x00\n      dup1\n      revert\n    tag_24:\n      dup1\n      0x4a968391\n      gt\n      tag_26\n      jumpi\n      dup1\n      0x4a968391\n      eq\n      tag_8\n      jumpi\n      dup1\n      0x52bc3410\n      eq\n      tag_9\n      jumpi\n      dup1\n      0x61d027b3\n      eq\n      tag_10\n      jumpi\n      dup1\n      0x7effb427\n      eq\n      tag_11\n      jumpi\n      dup1\n      0x87052fab\n      eq\n      tag_12\n      jumpi\n      0x00\n      dup1\n      revert\n    tag_26:\n      dup1\n      0x06139e8d\n      eq\n      tag_3\n      jumpi\n      dup1\n      0x17b44960\n      eq\n      tag_4\n      jumpi\n      dup1\n      0x1a39d8ef\n      eq\n      tag_5\n      jumpi\n      dup1\n      0x34fd3518\n      eq\n      tag_6\n      jumpi\n      dup1\n      0x491f0136\n      eq\n      tag_7\n      jumpi\n    tag_2:\n      0x00\n      dup1\n      revert\n        /* \"Practical6-Apply-TTT-Token.sol\":4218:5676  function createGameRoom(uint256 betAmount) external noReentrancy {... */\n    tag_3:\n      tag_27\n      tag_28\n      calldatasize\n      0x04\n      tag_29\n      jump\t// in\n    tag_28:\n      tag_30\n      jump\t// in\n    tag_27:\n      stop\n        /* \"Practical6-Apply-TTT-Token.sol\":3729:3880  function getFinalWinOption (uint gameId) external view returns (uint[] memory){... */\n    tag_4:\n      tag_31\n      tag_32\n      calldatasize\n      0x04\n      tag_29\n      jump\t// in\n    tag_32:\n      tag_33\n      jump\t// in\n    tag_31:\n      mload(0x40)\n      tag_34\n      swap2\n      swap1\n      tag_35\n      jump\t// in\n    tag_34:\n      mload(0x40)\n      dup1\n      swap2\n      sub\n      swap1\n      return\n        /* \"Practical6-Apply-TTT-Token.sol\":545:571  uint256 public totalAmount */\n    tag_5:\n      tag_36\n      sload(0x05)\n      dup2\n      jump\n    tag_36:\n      mload(0x40)\n        /* \"#utility.yul\":982:1007   */\n      swap1\n      dup2\n      mstore\n        /* \"#utility.yul\":970:972   */\n      0x20\n        /* \"#utility.yul\":955:973   */\n      add\n        /* \"Practical6-Apply-TTT-Token.sol\":545:571  uint256 public totalAmount */\n      tag_34\n        /* \"#utility.yul\":836:1013   */\n      jump\n        /* \"Practical6-Apply-TTT-Token.sol\":13456:13798  function validateRestartPlayer (uint gameId) public {... */\n    tag_6:\n      tag_27\n      tag_41\n      calldatasize\n      0x04\n      tag_29\n      jump\t// in\n    tag_41:\n      tag_42\n      jump\t// in\n        /* \"Practical6-Apply-TTT-Token.sol\":4050:4174  function getAllGameInformation () external view returns (GameInfo[] memory){... */\n    tag_7:\n      tag_43\n      tag_44\n      jump\t// in\n    tag_43:\n      mload(0x40)\n      tag_34\n      swap2\n      swap1\n      tag_46\n      jump\t// in\n        /* \"Practical6-Apply-TTT-Token.sol\":14168:14456  function restartGame(uint gameId) public {... */\n    tag_8:\n      tag_27\n      tag_48\n      calldatasize\n      0x04\n      tag_29\n      jump\t// in\n    tag_48:\n      tag_49\n      jump\t// in\n        /* \"Practical6-Apply-TTT-Token.sol\":7763:8809  function userInput(uint input, uint gameId) external {... */\n    tag_9:\n      tag_27\n      tag_51\n      calldatasize\n      0x04\n      tag_52\n      jump\t// in\n    tag_51:\n      tag_53\n      jump\t// in\n        /* \"Practical6-Apply-TTT-Token.sol\":386:454  address public treasury = 0x3cE5a8a72820585C60F659896338D57347196991 */\n    tag_10:\n      sload(0x02)\n      tag_54\n      swap1\n      sub(shl(0xa0, 0x01), 0x01)\n      and\n      dup2\n      jump\n    tag_54:\n      mload(0x40)\n      sub(shl(0xa0, 0x01), 0x01)\n        /* \"#utility.yul\":5346:5378   */\n      swap1\n      swap2\n      and\n        /* \"#utility.yul\":5328:5379   */\n      dup2\n      mstore\n        /* \"#utility.yul\":5316:5318   */\n      0x20\n        /* \"#utility.yul\":5301:5319   */\n      add\n        /* \"Practical6-Apply-TTT-Token.sol\":386:454  address public treasury = 0x3cE5a8a72820585C60F659896338D57347196991 */\n      tag_34\n        /* \"#utility.yul\":5182:5385   */\n      jump\n        /* \"Practical6-Apply-TTT-Token.sol\":169:244  IERC20 public TTTToken = IERC20(0x927E818dDCaB12d025495B228A4ce1dAE82798Ec) */\n    tag_11:\n      sload(0x00)\n      tag_54\n      swap1\n      sub(shl(0xa0, 0x01), 0x01)\n      and\n      dup2\n      jump\n        /* \"Practical6-Apply-TTT-Token.sol\":1093:1126  GameInfo[] public gameInformation */\n    tag_12:\n      tag_62\n      tag_63\n      calldatasize\n      0x04\n      tag_29\n      jump\t// in\n    tag_63:\n      tag_64\n      jump\t// in\n    tag_62:\n      mload(0x40)\n      tag_34\n      swap10\n      swap9\n      swap8\n      swap7\n      swap6\n      swap5\n      swap4\n      swap3\n      swap2\n      swap1\n      tag_66\n      jump\t// in\n        /* \"Practical6-Apply-TTT-Token.sol\":2860:3107  function getExcessBalance() external onlyOwner{... */\n    tag_13:\n      tag_27\n      tag_68\n      jump\t// in\n        /* \"Practical6-Apply-TTT-Token.sol\":584:604  address public owner */\n    tag_14:\n      sload(0x06)\n      tag_54\n      swap1\n      sub(shl(0xa0, 0x01), 0x01)\n      and\n      dup2\n      jump\n        /* \"Practical6-Apply-TTT-Token.sol\":3892:4030  function getGameInformation (uint gameId) external view returns (GameInfo memory){... */\n    tag_15:\n      tag_72\n      tag_73\n      calldatasize\n      0x04\n      tag_29\n      jump\t// in\n    tag_73:\n      tag_74\n      jump\t// in\n    tag_72:\n      mload(0x40)\n      tag_34\n      swap2\n      swap1\n      tag_76\n      jump\t// in\n        /* \"Practical6-Apply-TTT-Token.sol\":5711:7645  function joinGame (uint gameId, uint256 betAmount) external noReentrancy {... */\n    tag_16:\n      tag_27\n      tag_78\n      calldatasize\n      0x04\n      tag_52\n      jump\t// in\n    tag_78:\n      tag_79\n      jump\t// in\n        /* \"Practical6-Apply-TTT-Token.sol\":2307:2675  function faucetToken() external {... */\n    tag_17:\n      tag_27\n      tag_81\n      jump\t// in\n        /* \"Practical6-Apply-TTT-Token.sol\":13177:13436  function compareStrings(string memory a, string memory b) public pure returns (bool) {... */\n    tag_18:\n      tag_82\n      tag_83\n      calldatasize\n      0x04\n      tag_84\n      jump\t// in\n    tag_83:\n      tag_85\n      jump\t// in\n    tag_82:\n      mload(0x40)\n        /* \"#utility.yul\":8339:8353   */\n      swap1\n      iszero\n        /* \"#utility.yul\":8332:8354   */\n      iszero\n        /* \"#utility.yul\":8314:8355   */\n      dup2\n      mstore\n        /* \"#utility.yul\":8302:8304   */\n      0x20\n        /* \"#utility.yul\":8287:8305   */\n      add\n        /* \"Practical6-Apply-TTT-Token.sol\":13177:13436  function compareStrings(string memory a, string memory b) public pure returns (bool) {... */\n      tag_34\n        /* \"#utility.yul\":8174:8361   */\n      jump\n        /* \"Practical6-Apply-TTT-Token.sol\":502:532  uint256 public treasuryFee = 5 */\n    tag_19:\n      tag_36\n      sload(0x04)\n      dup2\n      jump\n        /* \"Practical6-Apply-TTT-Token.sol\":3532:3670  function getoption (uint gameId) external view returns (string[] memory){... */\n    tag_20:\n      tag_91\n      tag_92\n      calldatasize\n      0x04\n      tag_29\n      jump\t// in\n    tag_92:\n      tag_93\n      jump\t// in\n    tag_91:\n      mload(0x40)\n      tag_34\n      swap2\n      swap1\n      tag_95\n      jump\t// in\n        /* \"Practical6-Apply-TTT-Token.sol\":2721:2848  function getAllMoney() external onlyOwner{... */\n    tag_21:\n      tag_27\n      tag_97\n      jump\t// in\n        /* \"Practical6-Apply-TTT-Token.sol\":335:373  uint256 public minBetAmount = 10 ether */\n    tag_22:\n      tag_36\n      sload(0x01)\n      dup2\n      jump\n        /* \"Practical6-Apply-TTT-Token.sol\":465:491  uint256 public burnFee = 5 */\n    tag_23:\n      tag_36\n      sload(0x03)\n      dup2\n      jump\n        /* \"Practical6-Apply-TTT-Token.sol\":4218:5676  function createGameRoom(uint256 betAmount) external noReentrancy {... */\n    tag_30:\n        /* \"Practical6-Apply-TTT-Token.sol\":3365:3371  locked */\n      sload(0x06)\n      shl(0xa0, 0x01)\n      swap1\n      div\n      0xff\n      and\n        /* \"Practical6-Apply-TTT-Token.sol\":3364:3371  !locked */\n      iszero\n        /* \"Practical6-Apply-TTT-Token.sol\":3356:3397  require(!locked, \"Error: Reentrant call\") */\n      tag_105\n      jumpi\n      mload(0x40)\n      shl(0xe5, 0x461bcd)\n      dup2\n      mstore\n        /* \"#utility.yul\":9376:9378   */\n      0x20\n        /* \"Practical6-Apply-TTT-Token.sol\":3356:3397  require(!locked, \"Error: Reentrant call\") */\n      0x04\n      dup3\n      add\n        /* \"#utility.yul\":9358:9379   */\n      mstore\n        /* \"#utility.yul\":9415:9417   */\n      0x15\n        /* \"#utility.yul\":9395:9413   */\n      0x24\n      dup3\n      add\n        /* \"#utility.yul\":9388:9418   */\n      mstore\n      shl(0x5a, 0x115c9c9bdc8e881499595b9d1c985b9d0818d85b1b)\n        /* \"#utility.yul\":9434:9452   */\n      0x44\n      dup3\n      add\n        /* \"#utility.yul\":9427:9478   */\n      mstore\n        /* \"#utility.yul\":9495:9513   */\n      0x64\n      add\n        /* \"Practical6-Apply-TTT-Token.sol\":3356:3397  require(!locked, \"Error: Reentrant call\") */\n    tag_106:\n      mload(0x40)\n      dup1\n      swap2\n      sub\n      swap1\n      revert\n    tag_105:\n        /* \"Practical6-Apply-TTT-Token.sol\":3412:3418  locked */\n      0x06\n        /* \"Practical6-Apply-TTT-Token.sol\":3412:3425  locked = true */\n      dup1\n      sload\n      not(shl(0xa0, 0xff))\n      and\n      shl(0xa0, 0x01)\n      or\n      swap1\n      sstore\n      0x00\n        /* \"Practical6-Apply-TTT-Token.sol\":4306:4314  TTTToken */\n      sload\n        /* \"Practical6-Apply-TTT-Token.sol\":4306:4336  TTTToken.balanceOf(msg.sender) */\n      mload(0x40)\n      shl(0xe0, 0x70a08231)\n      dup2\n      mstore\n        /* \"Practical6-Apply-TTT-Token.sol\":4325:4335  msg.sender */\n      caller\n        /* \"Practical6-Apply-TTT-Token.sol\":4306:4336  TTTToken.balanceOf(msg.sender) */\n      0x04\n      dup3\n      add\n        /* \"#utility.yul\":5328:5379   */\n      mstore\n        /* \"Practical6-Apply-TTT-Token.sol\":4340:4349  betAmount */\n      dup3\n      swap2\n      sub(shl(0xa0, 0x01), 0x01)\n        /* \"Practical6-Apply-TTT-Token.sol\":4306:4314  TTTToken */\n      and\n      swap1\n        /* \"Practical6-Apply-TTT-Token.sol\":4306:4324  TTTToken.balanceOf */\n      0x70a08231\n      swap1\n        /* \"#utility.yul\":5301:5319   */\n      0x24\n      add\n        /* \"Practical6-Apply-TTT-Token.sol\":4306:4336  TTTToken.balanceOf(msg.sender) */\n      0x20\n      mload(0x40)\n      dup1\n      dup4\n      sub\n      dup2\n      dup7\n      gas\n      staticcall\n      iszero\n      dup1\n      iszero\n      tag_111\n      jumpi\n      returndatasize\n      0x00\n      dup1\n      returndatacopy\n      revert(0x00, returndatasize)\n    tag_111:\n      pop\n      pop\n      pop\n      pop\n      mload(0x40)\n      returndatasize\n      not(0x1f)\n      0x1f\n      dup3\n      add\n      and\n      dup3\n      add\n      dup1\n      0x40\n      mstore\n      pop\n      dup2\n      add\n      swap1\n      tag_112\n      swap2\n      swap1\n      tag_113\n      jump\t// in\n    tag_112:\n        /* \"Practical6-Apply-TTT-Token.sol\":4306:4349  TTTToken.balanceOf(msg.sender) >= betAmount */\n      lt\n      iszero\n        /* \"Practical6-Apply-TTT-Token.sol\":4298:4372  require(TTTToken.balanceOf(msg.sender) >= betAmount, \"Not enough balance\") */\n      tag_114\n      jumpi\n      mload(0x40)\n      shl(0xe5, 0x461bcd)\n      dup2\n      mstore\n        /* \"#utility.yul\":9915:9917   */\n      0x20\n        /* \"Practical6-Apply-TTT-Token.sol\":4298:4372  require(TTTToken.balanceOf(msg.sender) >= betAmount, \"Not enough balance\") */\n      0x04\n      dup3\n      add\n        /* \"#utility.yul\":9897:9918   */\n      mstore\n        /* \"#utility.yul\":9954:9956   */\n      0x12\n        /* \"#utility.yul\":9934:9952   */\n      0x24\n      dup3\n      add\n        /* \"#utility.yul\":9927:9957   */\n      mstore\n      shl(0x70, 0x4e6f7420656e6f7567682062616c616e6365)\n        /* \"#utility.yul\":9973:9991   */\n      0x44\n      dup3\n      add\n        /* \"#utility.yul\":9966:10014   */\n      mstore\n        /* \"#utility.yul\":10031:10049   */\n      0x64\n      add\n        /* \"Practical6-Apply-TTT-Token.sol\":4298:4372  require(TTTToken.balanceOf(msg.sender) >= betAmount, \"Not enough balance\") */\n      tag_106\n        /* \"#utility.yul\":9713:10055   */\n      jump\n        /* \"Practical6-Apply-TTT-Token.sol\":4298:4372  require(TTTToken.balanceOf(msg.sender) >= betAmount, \"Not enough balance\") */\n    tag_114:\n        /* \"Practical6-Apply-TTT-Token.sol\":4408:4420  minBetAmount */\n      sload(0x01)\n        /* \"Practical6-Apply-TTT-Token.sol\":4395:4404  betAmount */\n      dup2\n        /* \"Practical6-Apply-TTT-Token.sol\":4395:4420  betAmount >= minBetAmount */\n      lt\n      iszero\n        /* \"Practical6-Apply-TTT-Token.sol\":4387:4451  require(betAmount >= minBetAmount, \"Need to pay min bet amount\") */\n      tag_117\n      jumpi\n      mload(0x40)\n      shl(0xe5, 0x461bcd)\n      dup2\n      mstore\n        /* \"#utility.yul\":10262:10264   */\n      0x20\n        /* \"Practical6-Apply-TTT-Token.sol\":4387:4451  require(betAmount >= minBetAmount, \"Need to pay min bet amount\") */\n      0x04\n      dup3\n      add\n        /* \"#utility.yul\":10244:10265   */\n      mstore\n        /* \"#utility.yul\":10301:10303   */\n      0x1a\n        /* \"#utility.yul\":10281:10299   */\n      0x24\n      dup3\n      add\n        /* \"#utility.yul\":10274:10304   */\n      mstore\n        /* \"#utility.yul\":10340:10368   */\n      0x4e65656420746f20706179206d696e2062657420616d6f756e74000000000000\n        /* \"#utility.yul\":10320:10338   */\n      0x44\n      dup3\n      add\n        /* \"#utility.yul\":10313:10369   */\n      mstore\n        /* \"#utility.yul\":10386:10404   */\n      0x64\n      add\n        /* \"Practical6-Apply-TTT-Token.sol\":4387:4451  require(betAmount >= minBetAmount, \"Need to pay min bet amount\") */\n      tag_106\n        /* \"#utility.yul\":10060:10410   */\n      jump\n        /* \"Practical6-Apply-TTT-Token.sol\":4387:4451  require(betAmount >= minBetAmount, \"Need to pay min bet amount\") */\n    tag_117:\n        /* \"Practical6-Apply-TTT-Token.sol\":4468:4486  uint256 burnAmount */\n      0x00\n        /* \"Practical6-Apply-TTT-Token.sol\":4513:4516  100 */\n      0x64\n        /* \"Practical6-Apply-TTT-Token.sol\":4502:4509  burnFee */\n      sload(0x03)\n        /* \"Practical6-Apply-TTT-Token.sol\":4490:4499  betAmount */\n      dup4\n        /* \"Practical6-Apply-TTT-Token.sol\":4490:4509  betAmount * burnFee */\n      tag_120\n      swap2\n      swap1\n      tag_121\n      jump\t// in\n    tag_120:\n        /* \"Practical6-Apply-TTT-Token.sol\":4489:4516  (betAmount * burnFee) / 100 */\n      tag_122\n      swap2\n      swap1\n      tag_123\n      jump\t// in\n    tag_122:\n        /* \"Practical6-Apply-TTT-Token.sol\":4468:4516  uint256 burnAmount = (betAmount * burnFee) / 100 */\n      swap1\n      pop\n        /* \"Practical6-Apply-TTT-Token.sol\":4531:4553  uint256 treasuryAmount */\n      0x00\n        /* \"Practical6-Apply-TTT-Token.sol\":4584:4587  100 */\n      0x64\n        /* \"Practical6-Apply-TTT-Token.sol\":4569:4580  treasuryFee */\n      sload(0x04)\n        /* \"Practical6-Apply-TTT-Token.sol\":4557:4566  betAmount */\n      dup5\n        /* \"Practical6-Apply-TTT-Token.sol\":4557:4580  betAmount * treasuryFee */\n      tag_124\n      swap2\n      swap1\n      tag_121\n      jump\t// in\n    tag_124:\n        /* \"Practical6-Apply-TTT-Token.sol\":4556:4587  (betAmount * treasuryFee) / 100 */\n      tag_125\n      swap2\n      swap1\n      tag_123\n      jump\t// in\n    tag_125:\n        /* \"Practical6-Apply-TTT-Token.sol\":4531:4587  uint256 treasuryAmount = (betAmount * treasuryFee) / 100 */\n      swap1\n      pop\n        /* \"Practical6-Apply-TTT-Token.sol\":4602:4622  uint256 rewardAmount */\n      0x00\n        /* \"Practical6-Apply-TTT-Token.sol\":4531:4587  uint256 treasuryAmount = (betAmount * treasuryFee) / 100 */\n      dup2\n        /* \"Practical6-Apply-TTT-Token.sol\":4625:4647  betAmount - burnAmount */\n      tag_126\n        /* \"Practical6-Apply-TTT-Token.sol\":4637:4647  burnAmount */\n      dup5\n        /* \"Practical6-Apply-TTT-Token.sol\":4625:4634  betAmount */\n      dup7\n        /* \"Practical6-Apply-TTT-Token.sol\":4625:4647  betAmount - burnAmount */\n      tag_127\n      jump\t// in\n    tag_126:\n        /* \"Practical6-Apply-TTT-Token.sol\":4625:4664  betAmount - burnAmount - treasuryAmount */\n      tag_128\n      swap2\n      swap1\n      tag_127\n      jump\t// in\n    tag_128:\n        /* \"Practical6-Apply-TTT-Token.sol\":4681:4689  TTTToken */\n      sload(0x00)\n        /* \"Practical6-Apply-TTT-Token.sol\":4681:4743  TTTToken.transferFrom(msg.sender, address(0xdead), burnAmount) */\n      mload(0x40)\n      shl(0xe0, 0x23b872dd)\n      dup2\n      mstore\n        /* \"Practical6-Apply-TTT-Token.sol\":4602:4664  uint256 rewardAmount = betAmount - burnAmount - treasuryAmount */\n      swap2\n      swap3\n      pop\n      sub(shl(0xa0, 0x01), 0x01)\n        /* \"Practical6-Apply-TTT-Token.sol\":4681:4689  TTTToken */\n      and\n      swap1\n        /* \"Practical6-Apply-TTT-Token.sol\":4681:4702  TTTToken.transferFrom */\n      0x23b872dd\n      swap1\n        /* \"Practical6-Apply-TTT-Token.sol\":4681:4743  TTTToken.transferFrom(msg.sender, address(0xdead), burnAmount) */\n      tag_129\n      swap1\n        /* \"Practical6-Apply-TTT-Token.sol\":4703:4713  msg.sender */\n      caller\n      swap1\n        /* \"Practical6-Apply-TTT-Token.sol\":4723:4729  0xdead */\n      0xdead\n      swap1\n        /* \"Practical6-Apply-TTT-Token.sol\":4732:4742  burnAmount */\n      dup9\n      swap1\n        /* \"Practical6-Apply-TTT-Token.sol\":4681:4743  TTTToken.transferFrom(msg.sender, address(0xdead), burnAmount) */\n      0x04\n      add\n      tag_130\n      jump\t// in\n    tag_129:\n      0x20\n      mload(0x40)\n      dup1\n      dup4\n      sub\n      dup2\n      0x00\n      dup8\n      gas\n      call\n      iszero\n      dup1\n      iszero\n      tag_132\n      jumpi\n      returndatasize\n      0x00\n      dup1\n      returndatacopy\n      revert(0x00, returndatasize)\n    tag_132:\n      pop\n      pop\n      pop\n      pop\n      mload(0x40)\n      returndatasize\n      not(0x1f)\n      0x1f\n      dup3\n      add\n      and\n      dup3\n      add\n      dup1\n      0x40\n      mstore\n      pop\n      dup2\n      add\n      swap1\n      tag_133\n      swap2\n      swap1\n      tag_134\n      jump\t// in\n    tag_133:\n      pop\n        /* \"Practical6-Apply-TTT-Token.sol\":4758:4766  TTTToken */\n      sload(0x00)\n        /* \"Practical6-Apply-TTT-Token.sol\":4792:4800  treasury */\n      sload(0x02)\n        /* \"Practical6-Apply-TTT-Token.sol\":4758:4817  TTTToken.transferFrom(msg.sender, treasury, treasuryAmount) */\n      mload(0x40)\n      shl(0xe0, 0x23b872dd)\n      dup2\n      mstore\n      sub(shl(0xa0, 0x01), 0x01)\n        /* \"Practical6-Apply-TTT-Token.sol\":4758:4766  TTTToken */\n      swap3\n      dup4\n      and\n      swap3\n        /* \"Practical6-Apply-TTT-Token.sol\":4758:4779  TTTToken.transferFrom */\n      0x23b872dd\n      swap3\n        /* \"Practical6-Apply-TTT-Token.sol\":4758:4817  TTTToken.transferFrom(msg.sender, treasury, treasuryAmount) */\n      tag_135\n      swap3\n        /* \"Practical6-Apply-TTT-Token.sol\":4780:4790  msg.sender */\n      caller\n      swap3\n        /* \"Practical6-Apply-TTT-Token.sol\":4792:4800  treasury */\n      swap1\n      swap2\n      and\n      swap1\n        /* \"Practical6-Apply-TTT-Token.sol\":4802:4816  treasuryAmount */\n      dup8\n      swap1\n        /* \"Practical6-Apply-TTT-Token.sol\":4758:4817  TTTToken.transferFrom(msg.sender, treasury, treasuryAmount) */\n      0x04\n      add\n      tag_130\n      jump\t// in\n    tag_135:\n      0x20\n      mload(0x40)\n      dup1\n      dup4\n      sub\n      dup2\n      0x00\n      dup8\n      gas\n      call\n      iszero\n      dup1\n      iszero\n      tag_137\n      jumpi\n      returndatasize\n      0x00\n      dup1\n      returndatacopy\n      revert(0x00, returndatasize)\n    tag_137:\n      pop\n      pop\n      pop\n      pop\n      mload(0x40)\n      returndatasize\n      not(0x1f)\n      0x1f\n      dup3\n      add\n      and\n      dup3\n      add\n      dup1\n      0x40\n      mstore\n      pop\n      dup2\n      add\n      swap1\n      tag_138\n      swap2\n      swap1\n      tag_134\n      jump\t// in\n    tag_138:\n      pop\n        /* \"Practical6-Apply-TTT-Token.sol\":4832:4840  TTTToken */\n      sload(0x00)\n        /* \"Practical6-Apply-TTT-Token.sol\":4832:4894  TTTToken.transferFrom(msg.sender, address(this), rewardAmount) */\n      mload(0x40)\n      shl(0xe0, 0x23b872dd)\n      dup2\n      mstore\n      sub(shl(0xa0, 0x01), 0x01)\n        /* \"Practical6-Apply-TTT-Token.sol\":4832:4840  TTTToken */\n      swap1\n      swap2\n      and\n      swap1\n        /* \"Practical6-Apply-TTT-Token.sol\":4832:4853  TTTToken.transferFrom */\n      0x23b872dd\n      swap1\n        /* \"Practical6-Apply-TTT-Token.sol\":4832:4894  TTTToken.transferFrom(msg.sender, address(this), rewardAmount) */\n      tag_139\n      swap1\n        /* \"Practical6-Apply-TTT-Token.sol\":4854:4864  msg.sender */\n      caller\n      swap1\n        /* \"Practical6-Apply-TTT-Token.sol\":4874:4878  this */\n      address\n      swap1\n        /* \"Practical6-Apply-TTT-Token.sol\":4881:4893  rewardAmount */\n      dup7\n      swap1\n        /* \"Practical6-Apply-TTT-Token.sol\":4832:4894  TTTToken.transferFrom(msg.sender, address(this), rewardAmount) */\n      0x04\n      add\n      tag_130\n      jump\t// in\n    tag_139:\n      0x20\n      mload(0x40)\n      dup1\n      dup4\n      sub\n      dup2\n      0x00\n      dup8\n      gas\n      call\n      iszero\n      dup1\n      iszero\n      tag_141\n      jumpi\n      returndatasize\n      0x00\n      dup1\n      returndatacopy\n      revert(0x00, returndatasize)\n    tag_141:\n      pop\n      pop\n      pop\n      pop\n      mload(0x40)\n      returndatasize\n      not(0x1f)\n      0x1f\n      dup3\n      add\n      and\n      dup3\n      add\n      dup1\n      0x40\n      mstore\n      pop\n      dup2\n      add\n      swap1\n      tag_142\n      swap2\n      swap1\n      tag_134\n      jump\t// in\n    tag_142:\n      pop\n        /* \"Practical6-Apply-TTT-Token.sol\":4926:4938  rewardAmount */\n      dup1\n        /* \"Practical6-Apply-TTT-Token.sol\":4911:4922  totalAmount */\n      0x05\n      0x00\n        /* \"Practical6-Apply-TTT-Token.sol\":4911:4938  totalAmount += rewardAmount */\n      dup3\n      dup3\n      sload\n      tag_143\n      swap2\n      swap1\n      tag_144\n      jump\t// in\n    tag_143:\n      swap1\n      swap2\n      sstore\n      pop\n        /* \"Practical6-Apply-TTT-Token.sol\":4955:4979  GameInfo memory gameInfo */\n      tag_145\n      swap1\n      pop\n      tag_146\n      jump\t// in\n    tag_145:\n        /* \"Practical6-Apply-TTT-Token.sol\":4994:5009  gameInformation */\n      0x07\n        /* \"Practical6-Apply-TTT-Token.sol\":4994:5024  gameInformation.push(gameInfo) */\n      dup1\n      sload\n      0x01\n      dup2\n      add\n      dup3\n      sstore\n      0x00\n      swap2\n      swap1\n      swap2\n      mstore\n      dup2\n      mload\n      0xa66cc928b5edb82af9bd49922954155ab7b0942694bea4ce44661d9a8736c688\n      0x0b\n      swap1\n      swap3\n      mul\n      swap2\n      dup3\n      add\n      dup1\n      sload\n      not(0xff)\n      and\n      swap2\n      iszero\n      iszero\n      swap2\n      swap1\n      swap2\n      or\n      dup2\n      sstore\n      0x20\n      dup4\n      add\n      mload\n      dup4\n      swap3\n      0xa66cc928b5edb82af9bd49922954155ab7b0942694bea4ce44661d9a8736c689\n      add\n      swap1\n      tag_148\n      swap1\n      dup3\n      tag_149\n      jump\t// in\n    tag_148:\n      pop\n      0x40\n      dup3\n      add\n      mload\n      dup1\n      mload\n      tag_150\n      swap2\n      0x02\n      dup5\n      add\n      swap2\n      0x20\n      swap1\n      swap2\n      add\n      swap1\n      tag_151\n      jump\t// in\n    tag_150:\n      pop\n      0x60\n      dup3\n      add\n      mload\n      dup1\n      mload\n      tag_152\n      swap2\n      0x03\n      dup5\n      add\n      swap2\n      0x20\n      swap1\n      swap2\n      add\n      swap1\n      tag_153\n      jump\t// in\n    tag_152:\n      pop\n      0x80\n      dup3\n      add\n      mload\n      0x04\n      dup3\n      add\n      dup1\n      sload\n      not(sub(shl(0xa0, 0x01), 0x01))\n      swap1\n      dup2\n      and\n      sub(shl(0xa0, 0x01), 0x01)\n      swap4\n      dup5\n      and\n      or\n      swap1\n      swap2\n      sstore\n      0xa0\n      dup5\n      add\n      mload\n      0x05\n      dup5\n      add\n      dup1\n      sload\n      dup4\n      and\n      swap2\n      dup5\n      and\n      swap2\n      swap1\n      swap2\n      or\n      swap1\n      sstore\n      0xc0\n      dup5\n      add\n      mload\n      0x06\n      dup5\n      add\n      sstore\n      0xe0\n      dup5\n      add\n      mload\n      0x07\n      dup1\n      dup6\n      add\n      dup1\n      sload\n      swap1\n      swap4\n      and\n      swap2\n      swap1\n      swap4\n      and\n      or\n      swap1\n      sstore\n      0x0100\n      dup4\n      add\n      mload\n      0x08\n      dup4\n      add\n      sstore\n      0x0120\n      dup4\n      add\n      mload\n      0x09\n      dup4\n      add\n      sstore\n      0x0140\n      swap1\n      swap3\n      add\n      mload\n      0x0a\n      swap1\n      swap2\n      add\n      sstore\n        /* \"Practical6-Apply-TTT-Token.sol\":5057:5079  gameInformation.length */\n      dup1\n      sload\n      swap1\n        /* \"Practical6-Apply-TTT-Token.sol\":5144:5154  msg.sender */\n      caller\n      swap1\n        /* \"Practical6-Apply-TTT-Token.sol\":5112:5124  gameLength-1 */\n      tag_154\n      0x01\n        /* \"Practical6-Apply-TTT-Token.sol\":5057:5079  gameInformation.length */\n      dup5\n        /* \"Practical6-Apply-TTT-Token.sol\":5112:5124  gameLength-1 */\n      tag_127\n      jump\t// in\n    tag_154:\n        /* \"Practical6-Apply-TTT-Token.sol\":5096:5125  gameInformation[gameLength-1] */\n      dup2\n      sload\n      dup2\n      lt\n      tag_156\n      jumpi\n      tag_156\n      tag_157\n      jump\t// in\n    tag_156:\n      0x00\n      swap2\n      dup3\n      mstore\n      0x20\n      dup3\n      keccak256\n      0x0b\n      swap2\n      swap1\n      swap2\n      mul\n      add\n        /* \"Practical6-Apply-TTT-Token.sol\":5096:5141  gameInformation[gameLength-1]._player1address */\n      0x04\n      add\n        /* \"Practical6-Apply-TTT-Token.sol\":5096:5154  gameInformation[gameLength-1]._player1address = msg.sender */\n      dup1\n      sload\n      not(sub(shl(0xa0, 0x01), 0x01))\n      and\n      sub(shl(0xa0, 0x01), 0x01)\n      swap4\n      swap1\n      swap4\n      and\n      swap3\n      swap1\n      swap3\n      or\n      swap1\n      swap2\n      sstore\n        /* \"Practical6-Apply-TTT-Token.sol\":5169:5184  gameInformation */\n      0x07\n        /* \"Practical6-Apply-TTT-Token.sol\":5185:5197  gameLength-1 */\n      tag_159\n      0x01\n        /* \"Practical6-Apply-TTT-Token.sol\":5185:5195  gameLength */\n      dup5\n        /* \"Practical6-Apply-TTT-Token.sol\":5185:5197  gameLength-1 */\n      tag_127\n      jump\t// in\n    tag_159:\n        /* \"Practical6-Apply-TTT-Token.sol\":5169:5198  gameInformation[gameLength-1] */\n      dup2\n      sload\n      dup2\n      lt\n      tag_161\n      jumpi\n      tag_161\n      tag_157\n      jump\t// in\n    tag_161:\n      0x00\n      swap2\n      dup3\n      mstore\n      0x20\n      swap1\n      swap2\n      keccak256\n      0x0b\n      swap1\n      swap2\n      mul\n      add\n        /* \"Practical6-Apply-TTT-Token.sol\":5169:5216  gameInformation[gameLength-1]._activate = false */\n      dup1\n      sload\n      not(0xff)\n      and\n      swap2\n      iszero\n      iszero\n      swap2\n      swap1\n      swap2\n      or\n      swap1\n      sstore\n      0x01\n        /* \"Practical6-Apply-TTT-Token.sol\":5231:5246  gameInformation */\n      0x07\n        /* \"Practical6-Apply-TTT-Token.sol\":5247:5259  gameLength-1 */\n      tag_163\n      dup3\n        /* \"Practical6-Apply-TTT-Token.sol\":5247:5257  gameLength */\n      dup5\n        /* \"Practical6-Apply-TTT-Token.sol\":5247:5259  gameLength-1 */\n      tag_127\n      jump\t// in\n    tag_163:\n        /* \"Practical6-Apply-TTT-Token.sol\":5231:5260  gameInformation[gameLength-1] */\n      dup2\n      sload\n      dup2\n      lt\n      tag_165\n      jumpi\n      tag_165\n      tag_157\n      jump\t// in\n    tag_165:\n      swap1\n      0x00\n      mstore\n      keccak256(0x00, 0x20)\n      swap1\n      0x0b\n      mul\n      add\n        /* \"Practical6-Apply-TTT-Token.sol\":5231:5273  gameInformation[gameLength-1]._playerCount */\n      0x06\n      add\n        /* \"Practical6-Apply-TTT-Token.sol\":5231:5277  gameInformation[gameLength-1]._playerCount = 1 */\n      dup2\n      swap1\n      sstore\n      pop\n        /* \"Practical6-Apply-TTT-Token.sol\":5292:5342  gameInformation[gameLength-1]._currentPlayer = \"X\" */\n      mload(0x40)\n      dup1\n      0x40\n      add\n      0x40\n      mstore\n      dup1\n      0x01\n      dup2\n      mstore\n      0x20\n      add\n      shl(0xfb, 0x0b)\n      dup2\n      mstore\n      pop\n        /* \"Practical6-Apply-TTT-Token.sol\":5292:5307  gameInformation */\n      0x07\n        /* \"Practical6-Apply-TTT-Token.sol\":5319:5320  1 */\n      0x01\n        /* \"Practical6-Apply-TTT-Token.sol\":5308:5318  gameLength */\n      dup4\n        /* \"Practical6-Apply-TTT-Token.sol\":5308:5320  gameLength-1 */\n      tag_167\n      swap2\n      swap1\n      tag_127\n      jump\t// in\n    tag_167:\n        /* \"Practical6-Apply-TTT-Token.sol\":5292:5321  gameInformation[gameLength-1] */\n      dup2\n      sload\n      dup2\n      lt\n      tag_169\n      jumpi\n      tag_169\n      tag_157\n      jump\t// in\n    tag_169:\n      swap1\n      0x00\n      mstore\n      keccak256(0x00, 0x20)\n      swap1\n      0x0b\n      mul\n      add\n        /* \"Practical6-Apply-TTT-Token.sol\":5292:5336  gameInformation[gameLength-1]._currentPlayer */\n      0x01\n      add\n        /* \"Practical6-Apply-TTT-Token.sol\":5292:5342  gameInformation[gameLength-1]._currentPlayer = \"X\" */\n      swap1\n      dup2\n      tag_171\n      swap2\n      swap1\n      tag_149\n      jump\t// in\n    tag_171:\n      pop\n        /* \"Practical6-Apply-TTT-Token.sol\":5401:5410  betAmount */\n      dup6\n        /* \"Practical6-Apply-TTT-Token.sol\":5357:5372  gameInformation */\n      0x07\n        /* \"Practical6-Apply-TTT-Token.sol\":5373:5385  gameLength-1 */\n      tag_172\n        /* \"Practical6-Apply-TTT-Token.sol\":5384:5385  1 */\n      0x01\n        /* \"Practical6-Apply-TTT-Token.sol\":5373:5383  gameLength */\n      dup5\n        /* \"Practical6-Apply-TTT-Token.sol\":5373:5385  gameLength-1 */\n      tag_127\n      jump\t// in\n    tag_172:\n        /* \"Practical6-Apply-TTT-Token.sol\":5357:5386  gameInformation[gameLength-1] */\n      dup2\n      sload\n      dup2\n      lt\n      tag_174\n      jumpi\n      tag_174\n      tag_157\n      jump\t// in\n    tag_174:\n      0x00\n      swap2\n      dup3\n      mstore\n      0x20\n      swap1\n      swap2\n      keccak256\n        /* \"Practical6-Apply-TTT-Token.sol\":5357:5398  gameInformation[gameLength-1]._player1Bet */\n      0x08\n        /* \"Practical6-Apply-TTT-Token.sol\":5357:5386  gameInformation[gameLength-1] */\n      0x0b\n      swap1\n      swap3\n      mul\n      add\n        /* \"Practical6-Apply-TTT-Token.sol\":5357:5398  gameInformation[gameLength-1]._player1Bet */\n      add\n        /* \"Practical6-Apply-TTT-Token.sol\":5357:5410  gameInformation[gameLength-1]._player1Bet = betAmount */\n      sstore\n        /* \"Practical6-Apply-TTT-Token.sol\":5471:5483  rewardAmount */\n      dup3\n        /* \"Practical6-Apply-TTT-Token.sol\":5425:5440  gameInformation */\n      0x07\n        /* \"Practical6-Apply-TTT-Token.sol\":5441:5453  gameLength-1 */\n      tag_176\n        /* \"Practical6-Apply-TTT-Token.sol\":5452:5453  1 */\n      0x01\n        /* \"Practical6-Apply-TTT-Token.sol\":5441:5451  gameLength */\n      dup5\n        /* \"Practical6-Apply-TTT-Token.sol\":5441:5453  gameLength-1 */\n      tag_127\n      jump\t// in\n    tag_176:\n        /* \"Practical6-Apply-TTT-Token.sol\":5425:5454  gameInformation[gameLength-1] */\n      dup2\n      sload\n      dup2\n      lt\n      tag_178\n      jumpi\n      tag_178\n      tag_157\n      jump\t// in\n    tag_178:\n      swap1\n      0x00\n      mstore\n      keccak256(0x00, 0x20)\n      swap1\n      0x0b\n      mul\n      add\n        /* \"Practical6-Apply-TTT-Token.sol\":5425:5468  gameInformation[gameLength-1]._rewardAmount */\n      0x0a\n      add\n        /* \"Practical6-Apply-TTT-Token.sol\":5425:5483  gameInformation[gameLength-1]._rewardAmount = rewardAmount */\n      dup2\n      swap1\n      sstore\n      pop\n        /* \"Practical6-Apply-TTT-Token.sol\":5502:5508  uint i */\n      0x00\n        /* \"Practical6-Apply-TTT-Token.sol\":5498:5607  for(uint i = 0; i < 9; i++){... */\n    tag_180:\n        /* \"Practical6-Apply-TTT-Token.sol\":5518:5519  9 */\n      0x09\n        /* \"Practical6-Apply-TTT-Token.sol\":5514:5515  i */\n      dup2\n        /* \"Practical6-Apply-TTT-Token.sol\":5514:5519  i < 9 */\n      lt\n        /* \"Practical6-Apply-TTT-Token.sol\":5498:5607  for(uint i = 0; i < 9; i++){... */\n      iszero\n      tag_181\n      jumpi\n        /* \"Practical6-Apply-TTT-Token.sol\":5544:5559  gameInformation */\n      0x07\n        /* \"Practical6-Apply-TTT-Token.sol\":5560:5572  gameLength-1 */\n      tag_183\n        /* \"Practical6-Apply-TTT-Token.sol\":5571:5572  1 */\n      0x01\n        /* \"Practical6-Apply-TTT-Token.sol\":5560:5570  gameLength */\n      dup5\n        /* \"Practical6-Apply-TTT-Token.sol\":5560:5572  gameLength-1 */\n      tag_127\n      jump\t// in\n    tag_183:\n        /* \"Practical6-Apply-TTT-Token.sol\":5544:5573  gameInformation[gameLength-1] */\n      dup2\n      sload\n      dup2\n      lt\n      tag_185\n      jumpi\n      tag_185\n      tag_157\n      jump\t// in\n    tag_185:\n      0x00\n      swap2\n      dup3\n      mstore\n      0x20\n      dup1\n      dup4\n      keccak256\n        /* \"Practical6-Apply-TTT-Token.sol\":5544:5582  gameInformation[gameLength-1]._options */\n      0x02\n        /* \"Practical6-Apply-TTT-Token.sol\":5544:5573  gameInformation[gameLength-1] */\n      0x0b\n      swap1\n      swap4\n      mul\n      add\n        /* \"Practical6-Apply-TTT-Token.sol\":5544:5582  gameInformation[gameLength-1]._options */\n      swap2\n      swap1\n      swap2\n      add\n        /* \"Practical6-Apply-TTT-Token.sol\":5544:5591  gameInformation[gameLength-1]._options.push(\"\") */\n      dup1\n      sload\n      0x01\n      dup2\n      add\n      dup3\n      sstore\n      swap1\n      dup4\n      mstore\n      dup2\n      dup4\n      keccak256\n      0x40\n      dup1\n      mload\n      swap4\n      dup5\n      add\n      swap1\n      mstore\n      swap3\n      dup3\n      mstore\n      swap2\n      swap1\n      swap2\n      add\n      swap1\n      tag_188\n      swap1\n      dup3\n      tag_149\n      jump\t// in\n    tag_188:\n      pop\n        /* \"Practical6-Apply-TTT-Token.sol\":5521:5524  i++ */\n      dup1\n      tag_189\n      dup2\n      tag_190\n      jump\t// in\n    tag_189:\n      swap2\n      pop\n      pop\n        /* \"Practical6-Apply-TTT-Token.sol\":5498:5607  for(uint i = 0; i < 9; i++){... */\n      jump(tag_180)\n    tag_181:\n      pop\n        /* \"Practical6-Apply-TTT-Token.sol\":5626:5650  createRoom(gameLength-1) */\n      0xbbba82573073a1190d559566d39447b5e1ad7724b88b63bc98867d229a645b6b\n        /* \"Practical6-Apply-TTT-Token.sol\":5637:5649  gameLength-1 */\n      tag_191\n        /* \"Practical6-Apply-TTT-Token.sol\":5648:5649  1 */\n      0x01\n        /* \"Practical6-Apply-TTT-Token.sol\":5637:5647  gameLength */\n      dup4\n        /* \"Practical6-Apply-TTT-Token.sol\":5637:5649  gameLength-1 */\n      tag_127\n      jump\t// in\n    tag_191:\n        /* \"Practical6-Apply-TTT-Token.sol\":5626:5650  createRoom(gameLength-1) */\n      mload(0x40)\n        /* \"#utility.yul\":982:1007   */\n      swap1\n      dup2\n      mstore\n        /* \"#utility.yul\":970:972   */\n      0x20\n        /* \"#utility.yul\":955:973   */\n      add\n        /* \"Practical6-Apply-TTT-Token.sol\":5626:5650  createRoom(gameLength-1) */\n      mload(0x40)\n      dup1\n      swap2\n      sub\n      swap1\n      log1\n      pop\n      pop\n        /* \"Practical6-Apply-TTT-Token.sol\":3456:3462  locked */\n      0x06\n        /* \"Practical6-Apply-TTT-Token.sol\":3456:3470  locked = false */\n      dup1\n      sload\n      not(shl(0xa0, 0xff))\n      and\n      swap1\n      sstore\n      pop\n      pop\n      pop\n      pop\n        /* \"Practical6-Apply-TTT-Token.sol\":4218:5676  function createGameRoom(uint256 betAmount) external noReentrancy {... */\n      jump\t// out\n        /* \"Practical6-Apply-TTT-Token.sol\":3729:3880  function getFinalWinOption (uint gameId) external view returns (uint[] memory){... */\n    tag_33:\n        /* \"Practical6-Apply-TTT-Token.sol\":3793:3806  uint[] memory */\n      0x60\n        /* \"Practical6-Apply-TTT-Token.sol\":3829:3844  gameInformation */\n      0x07\n        /* \"Practical6-Apply-TTT-Token.sol\":3845:3851  gameId */\n      dup3\n        /* \"Practical6-Apply-TTT-Token.sol\":3829:3852  gameInformation[gameId] */\n      dup2\n      sload\n      dup2\n      lt\n      tag_195\n      jumpi\n      tag_195\n      tag_157\n      jump\t// in\n    tag_195:\n      swap1\n      0x00\n      mstore\n      keccak256(0x00, 0x20)\n      swap1\n      0x0b\n      mul\n      add\n        /* \"Practical6-Apply-TTT-Token.sol\":3829:3868  gameInformation[gameId]._finalWinOption */\n      0x03\n      add\n        /* \"Practical6-Apply-TTT-Token.sol\":3822:3868  return gameInformation[gameId]._finalWinOption */\n      dup1\n      sload\n      dup1\n      0x20\n      mul\n      0x20\n      add\n      mload(0x40)\n      swap1\n      dup2\n      add\n      0x40\n      mstore\n      dup1\n      swap3\n      swap2\n      swap1\n      dup2\n      dup2\n      mstore\n      0x20\n      add\n      dup3\n      dup1\n      sload\n      dup1\n      iszero\n      tag_197\n      jumpi\n      0x20\n      mul\n      dup3\n      add\n      swap2\n      swap1\n      0x00\n      mstore\n      keccak256(0x00, 0x20)\n      swap1\n    tag_198:\n      dup2\n      sload\n      dup2\n      mstore\n      0x20\n      add\n      swap1\n      0x01\n      add\n      swap1\n      dup1\n      dup4\n      gt\n      tag_198\n      jumpi\n    tag_197:\n      pop\n      pop\n      pop\n      pop\n      pop\n      swap1\n      pop\n        /* \"Practical6-Apply-TTT-Token.sol\":3729:3880  function getFinalWinOption (uint gameId) external view returns (uint[] memory){... */\n      swap2\n      swap1\n      pop\n      jump\t// out\n        /* \"Practical6-Apply-TTT-Token.sol\":13456:13798  function validateRestartPlayer (uint gameId) public {... */\n    tag_42:\n        /* \"Practical6-Apply-TTT-Token.sol\":13611:13631  checkAddress(gameId) */\n      tag_200\n        /* \"Practical6-Apply-TTT-Token.sol\":13624:13630  gameId */\n      dup2\n        /* \"Practical6-Apply-TTT-Token.sol\":13611:13623  checkAddress */\n      tag_201\n        /* \"Practical6-Apply-TTT-Token.sol\":13611:13631  checkAddress(gameId) */\n      jump\t// in\n    tag_200:\n        /* \"Practical6-Apply-TTT-Token.sol\":13603:13664  require(checkAddress(gameId), \"you are not this game player\") */\n      tag_202\n      jumpi\n      mload(0x40)\n      shl(0xe5, 0x461bcd)\n      dup2\n      mstore\n        /* \"#utility.yul\":14930:14932   */\n      0x20\n        /* \"Practical6-Apply-TTT-Token.sol\":13603:13664  require(checkAddress(gameId), \"you are not this game player\") */\n      0x04\n      dup3\n      add\n        /* \"#utility.yul\":14912:14933   */\n      mstore\n        /* \"#utility.yul\":14969:14971   */\n      0x1c\n        /* \"#utility.yul\":14949:14967   */\n      0x24\n      dup3\n      add\n        /* \"#utility.yul\":14942:14972   */\n      mstore\n        /* \"#utility.yul\":15008:15038   */\n      0x796f7520617265206e6f7420746869732067616d6520706c6179657200000000\n        /* \"#utility.yul\":14988:15006   */\n      0x44\n      dup3\n      add\n        /* \"#utility.yul\":14981:15039   */\n      mstore\n        /* \"#utility.yul\":15056:15074   */\n      0x64\n      add\n        /* \"Practical6-Apply-TTT-Token.sol\":13603:13664  require(checkAddress(gameId), \"you are not this game player\") */\n      tag_106\n        /* \"#utility.yul\":14728:15080   */\n      jump\n        /* \"Practical6-Apply-TTT-Token.sol\":13603:13664  require(checkAddress(gameId), \"you are not this game player\") */\n    tag_202:\n        /* \"Practical6-Apply-TTT-Token.sol\":13687:13702  gameInformation */\n      0x07\n        /* \"Practical6-Apply-TTT-Token.sol\":13703:13709  gameId */\n      dup2\n        /* \"Practical6-Apply-TTT-Token.sol\":13687:13710  gameInformation[gameId] */\n      dup2\n      sload\n      dup2\n      lt\n      tag_206\n      jumpi\n      tag_206\n      tag_157\n      jump\t// in\n    tag_206:\n      0x00\n      swap2\n      dup3\n      mstore\n      0x20\n      swap1\n      swap2\n      keccak256\n      0x0b\n      swap1\n      swap2\n      mul\n      add\n        /* \"Practical6-Apply-TTT-Token.sol\":13687:13720  gameInformation[gameId]._activate */\n      sload\n      0xff\n      and\n        /* \"Practical6-Apply-TTT-Token.sol\":13687:13729  gameInformation[gameId]._activate == false */\n      iszero\n        /* \"Practical6-Apply-TTT-Token.sol\":13679:13752  require(gameInformation[gameId]._activate == false, \"Game still playing\") */\n      tag_208\n      jumpi\n      mload(0x40)\n      shl(0xe5, 0x461bcd)\n      dup2\n      mstore\n        /* \"#utility.yul\":15287:15289   */\n      0x20\n        /* \"Practical6-Apply-TTT-Token.sol\":13679:13752  require(gameInformation[gameId]._activate == false, \"Game still playing\") */\n      0x04\n      dup3\n      add\n        /* \"#utility.yul\":15269:15290   */\n      mstore\n        /* \"#utility.yul\":15326:15328   */\n      0x12\n        /* \"#utility.yul\":15306:15324   */\n      0x24\n      dup3\n      add\n        /* \"#utility.yul\":15299:15329   */\n      mstore\n      shl(0x70, 0x47616d65207374696c6c20706c6179696e67)\n        /* \"#utility.yul\":15345:15363   */\n      0x44\n      dup3\n      add\n        /* \"#utility.yul\":15338:15386   */\n      mstore\n        /* \"#utility.yul\":15403:15421   */\n      0x64\n      add\n        /* \"Practical6-Apply-TTT-Token.sol\":13679:13752  require(gameInformation[gameId]._activate == false, \"Game still playing\") */\n      tag_106\n        /* \"#utility.yul\":15085:15427   */\n      jump\n        /* \"Practical6-Apply-TTT-Token.sol\":13679:13752  require(gameInformation[gameId]._activate == false, \"Game still playing\") */\n    tag_208:\n        /* \"Practical6-Apply-TTT-Token.sol\":13767:13786  restartGame(gameId) */\n      tag_211\n        /* \"Practical6-Apply-TTT-Token.sol\":13779:13785  gameId */\n      dup2\n        /* \"Practical6-Apply-TTT-Token.sol\":13767:13778  restartGame */\n      tag_49\n        /* \"Practical6-Apply-TTT-Token.sol\":13767:13786  restartGame(gameId) */\n      jump\t// in\n    tag_211:\n        /* \"Practical6-Apply-TTT-Token.sol\":13456:13798  function validateRestartPlayer (uint gameId) public {... */\n      pop\n      jump\t// out\n        /* \"Practical6-Apply-TTT-Token.sol\":4050:4174  function getAllGameInformation () external view returns (GameInfo[] memory){... */\n    tag_44:\n        /* \"Practical6-Apply-TTT-Token.sol\":4107:4124  GameInfo[] memory */\n      0x60\n        /* \"Practical6-Apply-TTT-Token.sol\":4147:4162  gameInformation */\n      0x07\n        /* \"Practical6-Apply-TTT-Token.sol\":4140:4162  return gameInformation */\n      dup1\n      sload\n      dup1\n      0x20\n      mul\n      0x20\n      add\n      mload(0x40)\n      swap1\n      dup2\n      add\n      0x40\n      mstore\n      dup1\n      swap3\n      swap2\n      swap1\n      dup2\n      dup2\n      mstore\n      0x20\n      add\n      0x00\n      swap1\n    tag_213:\n      dup3\n      dup3\n      lt\n      iszero\n      tag_214\n      jumpi\n      0x00\n      dup5\n      dup2\n      mstore\n      0x20\n      swap1\n      dup2\n      swap1\n      keccak256\n      0x40\n      dup1\n      mload\n      0x0160\n      dup2\n      add\n      swap1\n      swap2\n      mstore\n      0x0b\n      dup6\n      mul\n      swap1\n      swap2\n      add\n      dup1\n      sload\n      0xff\n      and\n      iszero\n      iszero\n      dup3\n      mstore\n      0x01\n      dup2\n      add\n      dup1\n      sload\n      swap3\n      swap4\n      swap2\n      swap3\n      swap2\n      dup5\n      add\n      swap2\n      tag_216\n      swap1\n      tag_217\n      jump\t// in\n    tag_216:\n      dup1\n      0x1f\n      add\n      0x20\n      dup1\n      swap2\n      div\n      mul\n      0x20\n      add\n      mload(0x40)\n      swap1\n      dup2\n      add\n      0x40\n      mstore\n      dup1\n      swap3\n      swap2\n      swap1\n      dup2\n      dup2\n      mstore\n      0x20\n      add\n      dup3\n      dup1\n      sload\n      tag_218\n      swap1\n      tag_217\n      jump\t// in\n    tag_218:\n      dup1\n      iszero\n      tag_219\n      jumpi\n      dup1\n      0x1f\n      lt\n      tag_220\n      jumpi\n      0x0100\n      dup1\n      dup4\n      sload\n      div\n      mul\n      dup4\n      mstore\n      swap2\n      0x20\n      add\n      swap2\n      jump(tag_219)\n    tag_220:\n      dup3\n      add\n      swap2\n      swap1\n      0x00\n      mstore\n      keccak256(0x00, 0x20)\n      swap1\n    tag_221:\n      dup2\n      sload\n      dup2\n      mstore\n      swap1\n      0x01\n      add\n      swap1\n      0x20\n      add\n      dup1\n      dup4\n      gt\n      tag_221\n      jumpi\n      dup3\n      swap1\n      sub\n      0x1f\n      and\n      dup3\n      add\n      swap2\n    tag_219:\n      pop\n      pop\n      pop\n      pop\n      pop\n      dup2\n      mstore\n      0x20\n      add\n      0x02\n      dup3\n      add\n      dup1\n      sload\n      dup1\n      0x20\n      mul\n      0x20\n      add\n      mload(0x40)\n      swap1\n      dup2\n      add\n      0x40\n      mstore\n      dup1\n      swap3\n      swap2\n      swap1\n      dup2\n      dup2\n      mstore\n      0x20\n      add\n      0x00\n      swap1\n    tag_222:\n      dup3\n      dup3\n      lt\n      iszero\n      tag_223\n      jumpi\n      dup4\n      dup3\n      swap1\n      0x00\n      mstore\n      keccak256(0x00, 0x20)\n      add\n      dup1\n      sload\n      tag_225\n      swap1\n      tag_217\n      jump\t// in\n    tag_225:\n      dup1\n      0x1f\n      add\n      0x20\n      dup1\n      swap2\n      div\n      mul\n      0x20\n      add\n      mload(0x40)\n      swap1\n      dup2\n      add\n      0x40\n      mstore\n      dup1\n      swap3\n      swap2\n      swap1\n      dup2\n      dup2\n      mstore\n      0x20\n      add\n      dup3\n      dup1\n      sload\n      tag_226\n      swap1\n      tag_217\n      jump\t// in\n    tag_226:\n      dup1\n      iszero\n      tag_227\n      jumpi\n      dup1\n      0x1f\n      lt\n      tag_228\n      jumpi\n      0x0100\n      dup1\n      dup4\n      sload\n      div\n      mul\n      dup4\n      mstore\n      swap2\n      0x20\n      add\n      swap2\n      jump(tag_227)\n    tag_228:\n      dup3\n      add\n      swap2\n      swap1\n      0x00\n      mstore\n      keccak256(0x00, 0x20)\n      swap1\n    tag_229:\n      dup2\n      sload\n      dup2\n      mstore\n      swap1\n      0x01\n      add\n      swap1\n      0x20\n      add\n      dup1\n      dup4\n      gt\n      tag_229\n      jumpi\n      dup3\n      swap1\n      sub\n      0x1f\n      and\n      dup3\n      add\n      swap2\n    tag_227:\n      pop\n      pop\n      pop\n      pop\n      pop\n      dup2\n      mstore\n      0x20\n      add\n      swap1\n      0x01\n      add\n      swap1\n      jump(tag_222)\n    tag_223:\n      pop\n      pop\n      pop\n      pop\n      dup2\n      mstore\n      0x20\n      add\n      0x03\n      dup3\n      add\n      dup1\n      sload\n      dup1\n      0x20\n      mul\n      0x20\n      add\n      mload(0x40)\n      swap1\n      dup2\n      add\n      0x40\n      mstore\n      dup1\n      swap3\n      swap2\n      swap1\n      dup2\n      dup2\n      mstore\n      0x20\n      add\n      dup3\n      dup1\n      sload\n      dup1\n      iszero\n      tag_230\n      jumpi\n      0x20\n      mul\n      dup3\n      add\n      swap2\n      swap1\n      0x00\n      mstore\n      keccak256(0x00, 0x20)\n      swap1\n    tag_231:\n      dup2\n      sload\n      dup2\n      mstore\n      0x20\n      add\n      swap1\n      0x01\n      add\n      swap1\n      dup1\n      dup4\n      gt\n      tag_231\n      jumpi\n    tag_230:\n      pop\n      pop\n      pop\n      swap2\n      dup4\n      mstore\n      pop\n      pop\n      0x04\n      dup3\n      add\n      sload\n      sub(shl(0xa0, 0x01), 0x01)\n      swap1\n      dup2\n      and\n      0x20\n      dup1\n      dup5\n      add\n      swap2\n      swap1\n      swap2\n      mstore\n      0x05\n      dup5\n      add\n      sload\n      dup3\n      and\n      0x40\n      dup5\n      add\n      mstore\n      0x06\n      dup5\n      add\n      sload\n      0x60\n      dup5\n      add\n      mstore\n      0x07\n      dup5\n      add\n      sload\n      swap1\n      swap2\n      and\n      0x80\n      dup4\n      add\n      mstore\n      0x08\n      dup4\n      add\n      sload\n      0xa0\n      dup4\n      add\n      mstore\n      0x09\n      dup4\n      add\n      sload\n      0xc0\n      dup4\n      add\n      mstore\n      0x0a\n      swap1\n      swap3\n      add\n      sload\n      0xe0\n      swap1\n      swap2\n      add\n      mstore\n      swap1\n      dup3\n      mstore\n      0x01\n      swap3\n      swap1\n      swap3\n      add\n      swap2\n      add\n      jump(tag_213)\n    tag_214:\n      pop\n      pop\n      pop\n      pop\n      swap1\n      pop\n        /* \"Practical6-Apply-TTT-Token.sol\":4050:4174  function getAllGameInformation () external view returns (GameInfo[] memory){... */\n      swap1\n      jump\t// out\n        /* \"Practical6-Apply-TTT-Token.sol\":14168:14456  function restartGame(uint gameId) public {... */\n    tag_49:\n        /* \"Practical6-Apply-TTT-Token.sol\":14224:14268  gameInformation[gameId]._currentPlayer = \"X\" */\n      mload(0x40)\n      dup1\n      0x40\n      add\n      0x40\n      mstore\n      dup1\n      0x01\n      dup2\n      mstore\n      0x20\n      add\n      shl(0xfb, 0x0b)\n      dup2\n      mstore\n      pop\n        /* \"Practical6-Apply-TTT-Token.sol\":14224:14239  gameInformation */\n      0x07\n        /* \"Practical6-Apply-TTT-Token.sol\":14240:14246  gameId */\n      dup3\n        /* \"Practical6-Apply-TTT-Token.sol\":14224:14247  gameInformation[gameId] */\n      dup2\n      sload\n      dup2\n      lt\n      tag_234\n      jumpi\n      tag_234\n      tag_157\n      jump\t// in\n    tag_234:\n      swap1\n      0x00\n      mstore\n      keccak256(0x00, 0x20)\n      swap1\n      0x0b\n      mul\n      add\n        /* \"Practical6-Apply-TTT-Token.sol\":14224:14262  gameInformation[gameId]._currentPlayer */\n      0x01\n      add\n        /* \"Practical6-Apply-TTT-Token.sol\":14224:14268  gameInformation[gameId]._currentPlayer = \"X\" */\n      swap1\n      dup2\n      tag_236\n      swap2\n      swap1\n      tag_149\n      jump\t// in\n    tag_236:\n      pop\n        /* \"Practical6-Apply-TTT-Token.sol\":14283:14354  gameInformation[gameId]._options = [\"\", \"\", \"\", \"\", \"\", \"\", \"\", \"\", \"\"] */\n      0x40\n      dup1\n      mload\n      0x0140\n      dup2\n      add\n      dup3\n      mstore\n      0x00\n      0x0120\n      dup3\n      add\n      dup2\n      dup2\n      mstore\n      dup3\n      mstore\n      dup3\n      mload\n      0x20\n      dup2\n      dup2\n      add\n      dup6\n      mstore\n      dup3\n      dup3\n      mstore\n      dup1\n      dup5\n      add\n      swap2\n      swap1\n      swap2\n      mstore\n      dup4\n      mload\n      dup1\n      dup3\n      add\n      dup6\n      mstore\n      dup3\n      dup2\n      mstore\n      dup4\n      dup6\n      add\n      mstore\n      dup4\n      mload\n      dup1\n      dup3\n      add\n      dup6\n      mstore\n      dup3\n      dup2\n      mstore\n      0x60\n      dup5\n      add\n      mstore\n      dup4\n      mload\n      dup1\n      dup3\n      add\n      dup6\n      mstore\n      dup3\n      dup2\n      mstore\n      0x80\n      dup5\n      add\n      mstore\n      dup4\n      mload\n      dup1\n      dup3\n      add\n      dup6\n      mstore\n      dup3\n      dup2\n      mstore\n      0xa0\n      dup5\n      add\n      mstore\n      dup4\n      mload\n      dup1\n      dup3\n      add\n      dup6\n      mstore\n      dup3\n      dup2\n      mstore\n      0xc0\n      dup5\n      add\n      mstore\n      dup4\n      mload\n      dup1\n      dup3\n      add\n      dup6\n      mstore\n      dup3\n      dup2\n      mstore\n      0xe0\n      dup5\n      add\n      mstore\n      dup4\n      mload\n      swap1\n      dup2\n      add\n      swap1\n      swap4\n      mstore\n      dup3\n      mstore\n      0x0100\n      dup2\n      add\n      swap2\n      swap1\n      swap2\n      mstore\n        /* \"Practical6-Apply-TTT-Token.sol\":14283:14298  gameInformation */\n      0x07\n        /* \"Practical6-Apply-TTT-Token.sol\":14283:14306  gameInformation[gameId] */\n      dup1\n      sload\n        /* \"Practical6-Apply-TTT-Token.sol\":14299:14305  gameId */\n      dup4\n      swap1\n        /* \"Practical6-Apply-TTT-Token.sol\":14283:14306  gameInformation[gameId] */\n      dup2\n      lt\n      tag_238\n      jumpi\n      tag_238\n      tag_157\n      jump\t// in\n    tag_238:\n      swap1\n      0x00\n      mstore\n      keccak256(0x00, 0x20)\n      swap1\n      0x0b\n      mul\n      add\n        /* \"Practical6-Apply-TTT-Token.sol\":14283:14315  gameInformation[gameId]._options */\n      0x02\n      add\n        /* \"Practical6-Apply-TTT-Token.sol\":14283:14354  gameInformation[gameId]._options = [\"\", \"\", \"\", \"\", \"\", \"\", \"\", \"\", \"\"] */\n      swap1\n      0x09\n      tag_240\n      swap3\n      swap2\n      swap1\n      tag_241\n      jump\t// in\n    tag_240:\n      pop\n        /* \"Practical6-Apply-TTT-Token.sol\":14405:14409  true */\n      0x01\n        /* \"Practical6-Apply-TTT-Token.sol\":14369:14384  gameInformation */\n      0x07\n        /* \"Practical6-Apply-TTT-Token.sol\":14385:14391  gameId */\n      dup3\n        /* \"Practical6-Apply-TTT-Token.sol\":14369:14392  gameInformation[gameId] */\n      dup2\n      sload\n      dup2\n      lt\n      tag_243\n      jumpi\n      tag_243\n      tag_157\n      jump\t// in\n    tag_243:\n      0x00\n      swap2\n      dup3\n      mstore\n      0x20\n      swap2\n      dup3\n      swap1\n      keccak256\n      0x0b\n      swap1\n      swap2\n      mul\n      add\n        /* \"Practical6-Apply-TTT-Token.sol\":14369:14409  gameInformation[gameId]._activate = true */\n      dup1\n      sload\n      not(0xff)\n      and\n      swap3\n      iszero\n      iszero\n      swap3\n      swap1\n      swap3\n      or\n      swap1\n      swap2\n      sstore\n        /* \"Practical6-Apply-TTT-Token.sol\":14429:14444  resetUI(gameId) */\n      mload(0x40)\n        /* \"#utility.yul\":982:1007   */\n      dup3\n      dup2\n      mstore\n        /* \"Practical6-Apply-TTT-Token.sol\":14429:14444  resetUI(gameId) */\n      0xc5478e3fe602c65e5cdd37abe42a8e007ff762d266b9e8256769194c1fa1361e\n      swap2\n        /* \"#utility.yul\":955:973   */\n      add\n        /* \"Practical6-Apply-TTT-Token.sol\":14429:14444  resetUI(gameId) */\n    tag_245:\n      mload(0x40)\n      dup1\n      swap2\n      sub\n      swap1\n      log1\n        /* \"Practical6-Apply-TTT-Token.sol\":14168:14456  function restartGame(uint gameId) public {... */\n      pop\n      jump\t// out\n        /* \"Practical6-Apply-TTT-Token.sol\":7763:8809  function userInput(uint input, uint gameId) external {... */\n    tag_53:\n        /* \"Practical6-Apply-TTT-Token.sol\":7839:7854  gameInformation */\n      0x07\n        /* \"Practical6-Apply-TTT-Token.sol\":7855:7861  gameId */\n      dup2\n        /* \"Practical6-Apply-TTT-Token.sol\":7839:7862  gameInformation[gameId] */\n      dup2\n      sload\n      dup2\n      lt\n      tag_248\n      jumpi\n      tag_248\n      tag_157\n      jump\t// in\n    tag_248:\n      0x00\n      swap2\n      dup3\n      mstore\n      0x20\n      swap1\n      swap2\n      keccak256\n      0x0b\n      swap1\n      swap2\n      mul\n      add\n        /* \"Practical6-Apply-TTT-Token.sol\":7839:7872  gameInformation[gameId]._activate */\n      sload\n      0xff\n      and\n        /* \"Practical6-Apply-TTT-Token.sol\":7831:7904  require(gameInformation[gameId]._activate,\"The game still not start yet\") */\n      tag_250\n      jumpi\n      mload(0x40)\n      shl(0xe5, 0x461bcd)\n      dup2\n      mstore\n        /* \"#utility.yul\":15634:15636   */\n      0x20\n        /* \"Practical6-Apply-TTT-Token.sol\":7831:7904  require(gameInformation[gameId]._activate,\"The game still not start yet\") */\n      0x04\n      dup3\n      add\n        /* \"#utility.yul\":15616:15637   */\n      mstore\n        /* \"#utility.yul\":15673:15675   */\n      0x1c\n        /* \"#utility.yul\":15653:15671   */\n      0x24\n      dup3\n      add\n        /* \"#utility.yul\":15646:15676   */\n      mstore\n        /* \"#utility.yul\":15712:15742   */\n      0x5468652067616d65207374696c6c206e6f742073746172742079657400000000\n        /* \"#utility.yul\":15692:15710   */\n      0x44\n      dup3\n      add\n        /* \"#utility.yul\":15685:15743   */\n      mstore\n        /* \"#utility.yul\":15760:15778   */\n      0x64\n      add\n        /* \"Practical6-Apply-TTT-Token.sol\":7831:7904  require(gameInformation[gameId]._activate,\"The game still not start yet\") */\n      tag_106\n        /* \"#utility.yul\":15432:15784   */\n      jump\n        /* \"Practical6-Apply-TTT-Token.sol\":7831:7904  require(gameInformation[gameId]._activate,\"The game still not start yet\") */\n    tag_250:\n        /* \"Practical6-Apply-TTT-Token.sol\":7964:8022  compareStrings(gameInformation[gameId]._options[input],\"\") */\n      tag_253\n        /* \"Practical6-Apply-TTT-Token.sol\":7979:7994  gameInformation */\n      0x07\n        /* \"Practical6-Apply-TTT-Token.sol\":7995:8001  gameId */\n      dup3\n        /* \"Practical6-Apply-TTT-Token.sol\":7979:8002  gameInformation[gameId] */\n      dup2\n      sload\n      dup2\n      lt\n      tag_255\n      jumpi\n      tag_255\n      tag_157\n      jump\t// in\n    tag_255:\n      swap1\n      0x00\n      mstore\n      keccak256(0x00, 0x20)\n      swap1\n      0x0b\n      mul\n      add\n        /* \"Practical6-Apply-TTT-Token.sol\":7979:8011  gameInformation[gameId]._options */\n      0x02\n      add\n        /* \"Practical6-Apply-TTT-Token.sol\":8012:8017  input */\n      dup4\n        /* \"Practical6-Apply-TTT-Token.sol\":7979:8018  gameInformation[gameId]._options[input] */\n      dup2\n      sload\n      dup2\n      lt\n      tag_258\n      jumpi\n      tag_258\n      tag_157\n      jump\t// in\n    tag_258:\n      swap1\n      0x00\n      mstore\n      keccak256(0x00, 0x20)\n      add\n        /* \"Practical6-Apply-TTT-Token.sol\":7964:8022  compareStrings(gameInformation[gameId]._options[input],\"\") */\n      dup1\n      sload\n      tag_260\n      swap1\n      tag_217\n      jump\t// in\n    tag_260:\n      dup1\n      0x1f\n      add\n      0x20\n      dup1\n      swap2\n      div\n      mul\n      0x20\n      add\n      mload(0x40)\n      swap1\n      dup2\n      add\n      0x40\n      mstore\n      dup1\n      swap3\n      swap2\n      swap1\n      dup2\n      dup2\n      mstore\n      0x20\n      add\n      dup3\n      dup1\n      sload\n      tag_261\n      swap1\n      tag_217\n      jump\t// in\n    tag_261:\n      dup1\n      iszero\n      tag_262\n      jumpi\n      dup1\n      0x1f\n      lt\n      tag_263\n      jumpi\n      0x0100\n      dup1\n      dup4\n      sload\n      div\n      mul\n      dup4\n      mstore\n      swap2\n      0x20\n      add\n      swap2\n      jump(tag_262)\n    tag_263:\n      dup3\n      add\n      swap2\n      swap1\n      0x00\n      mstore\n      keccak256(0x00, 0x20)\n      swap1\n    tag_264:\n      dup2\n      sload\n      dup2\n      mstore\n      swap1\n      0x01\n      add\n      swap1\n      0x20\n      add\n      dup1\n      dup4\n      gt\n      tag_264\n      jumpi\n      dup3\n      swap1\n      sub\n      0x1f\n      and\n      dup3\n      add\n      swap2\n    tag_262:\n      pop\n      pop\n      pop\n      pop\n      pop\n      mload(0x40)\n      dup1\n      0x20\n      add\n      0x40\n      mstore\n      dup1\n      0x00\n      dup2\n      mstore\n      pop\n        /* \"Practical6-Apply-TTT-Token.sol\":7964:7978  compareStrings */\n      tag_85\n        /* \"Practical6-Apply-TTT-Token.sol\":7964:8022  compareStrings(gameInformation[gameId]._options[input],\"\") */\n      jump\t// in\n    tag_253:\n        /* \"Practical6-Apply-TTT-Token.sol\":7956:8039  require(compareStrings(gameInformation[gameId]._options[input],\"\"),\"Invalid input\") */\n      tag_265\n      jumpi\n      mload(0x40)\n      shl(0xe5, 0x461bcd)\n      dup2\n      mstore\n        /* \"#utility.yul\":15991:15993   */\n      0x20\n        /* \"Practical6-Apply-TTT-Token.sol\":7956:8039  require(compareStrings(gameInformation[gameId]._options[input],\"\"),\"Invalid input\") */\n      0x04\n      dup3\n      add\n        /* \"#utility.yul\":15973:15994   */\n      mstore\n        /* \"#utility.yul\":16030:16032   */\n      0x0d\n        /* \"#utility.yul\":16010:16028   */\n      0x24\n      dup3\n      add\n        /* \"#utility.yul\":16003:16033   */\n      mstore\n      shl(0x9a, 0x125b9d985b1a59081a5b9c1d5d)\n        /* \"#utility.yul\":16049:16067   */\n      0x44\n      dup3\n      add\n        /* \"#utility.yul\":16042:16085   */\n      mstore\n        /* \"#utility.yul\":16102:16120   */\n      0x64\n      add\n        /* \"Practical6-Apply-TTT-Token.sol\":7956:8039  require(compareStrings(gameInformation[gameId]._options[input],\"\"),\"Invalid input\") */\n      tag_106\n        /* \"#utility.yul\":15789:16126   */\n      jump\n        /* \"Practical6-Apply-TTT-Token.sol\":7956:8039  require(compareStrings(gameInformation[gameId]._options[input],\"\"),\"Invalid input\") */\n    tag_265:\n        /* \"Practical6-Apply-TTT-Token.sol\":8110:8169  compareStrings(gameInformation[gameId]._currentPlayer, \"X\") */\n      tag_268\n        /* \"Practical6-Apply-TTT-Token.sol\":8125:8140  gameInformation */\n      0x07\n        /* \"Practical6-Apply-TTT-Token.sol\":8141:8147  gameId */\n      dup3\n        /* \"Practical6-Apply-TTT-Token.sol\":8125:8148  gameInformation[gameId] */\n      dup2\n      sload\n      dup2\n      lt\n      tag_270\n      jumpi\n      tag_270\n      tag_157\n      jump\t// in\n    tag_270:\n      swap1\n      0x00\n      mstore\n      keccak256(0x00, 0x20)\n      swap1\n      0x0b\n      mul\n      add\n        /* \"Practical6-Apply-TTT-Token.sol\":8125:8163  gameInformation[gameId]._currentPlayer */\n      0x01\n      add\n        /* \"Practical6-Apply-TTT-Token.sol\":8110:8169  compareStrings(gameInformation[gameId]._currentPlayer, \"X\") */\n      dup1\n      sload\n      tag_272\n      swap1\n      tag_217\n      jump\t// in\n    tag_272:\n      dup1\n      0x1f\n      add\n      0x20\n      dup1\n      swap2\n      div\n      mul\n      0x20\n      add\n      mload(0x40)\n      swap1\n      dup2\n      add\n      0x40\n      mstore\n      dup1\n      swap3\n      swap2\n      swap1\n      dup2\n      dup2\n      mstore\n      0x20\n      add\n      dup3\n      dup1\n      sload\n      tag_273\n      swap1\n      tag_217\n      jump\t// in\n    tag_273:\n      dup1\n      iszero\n      tag_274\n      jumpi\n      dup1\n      0x1f\n      lt\n      tag_275\n      jumpi\n      0x0100\n      dup1\n      dup4\n      sload\n      div\n      mul\n      dup4\n      mstore\n      swap2\n      0x20\n      add\n      swap2\n      jump(tag_274)\n    tag_275:\n      dup3\n      add\n      swap2\n      swap1\n      0x00\n      mstore\n      keccak256(0x00, 0x20)\n      swap1\n    tag_276:\n      dup2\n      sload\n      dup2\n      mstore\n      swap1\n      0x01\n      add\n      swap1\n      0x20\n      add\n      dup1\n      dup4\n      gt\n      tag_276\n      jumpi\n      dup3\n      swap1\n      sub\n      0x1f\n      and\n      dup3\n      add\n      swap2\n    tag_274:\n      pop\n      pop\n      pop\n      pop\n      pop\n      mload(0x40)\n      dup1\n      0x40\n      add\n      0x40\n      mstore\n      dup1\n      0x01\n      dup2\n      mstore\n      0x20\n      add\n      shl(0xfb, 0x0b)\n      dup2\n      mstore\n      pop\n        /* \"Practical6-Apply-TTT-Token.sol\":8110:8124  compareStrings */\n      tag_85\n        /* \"Practical6-Apply-TTT-Token.sol\":8110:8169  compareStrings(gameInformation[gameId]._currentPlayer, \"X\") */\n      jump\t// in\n    tag_268:\n        /* \"Practical6-Apply-TTT-Token.sol\":8107:8414  if(compareStrings(gameInformation[gameId]._currentPlayer, \"X\")){... */\n      iszero\n      tag_277\n      jumpi\n        /* \"Practical6-Apply-TTT-Token.sol\":8211:8226  gameInformation */\n      0x07\n        /* \"Practical6-Apply-TTT-Token.sol\":8227:8233  gameId */\n      dup2\n        /* \"Practical6-Apply-TTT-Token.sol\":8211:8234  gameInformation[gameId] */\n      dup2\n      sload\n      dup2\n      lt\n      tag_279\n      jumpi\n      tag_279\n      tag_157\n      jump\t// in\n    tag_279:\n      0x00\n      swap2\n      dup3\n      mstore\n      0x20\n      swap1\n      swap2\n      keccak256\n      0x0b\n      swap1\n      swap2\n      mul\n      add\n        /* \"Practical6-Apply-TTT-Token.sol\":8211:8250  gameInformation[gameId]._player1address */\n      0x04\n      add\n      sload\n      sub(shl(0xa0, 0x01), 0x01)\n      and\n        /* \"Practical6-Apply-TTT-Token.sol\":8197:8207  msg.sender */\n      caller\n        /* \"Practical6-Apply-TTT-Token.sol\":8197:8250  msg.sender == gameInformation[gameId]._player1address */\n      eq\n        /* \"Practical6-Apply-TTT-Token.sol\":8189:8274  require(msg.sender == gameInformation[gameId]._player1address,\"You are not player 1\") */\n      tag_281\n      jumpi\n      mload(0x40)\n      shl(0xe5, 0x461bcd)\n      dup2\n      mstore\n        /* \"#utility.yul\":16333:16335   */\n      0x20\n        /* \"Practical6-Apply-TTT-Token.sol\":8189:8274  require(msg.sender == gameInformation[gameId]._player1address,\"You are not player 1\") */\n      0x04\n      dup3\n      add\n        /* \"#utility.yul\":16315:16336   */\n      mstore\n        /* \"#utility.yul\":16372:16374   */\n      0x14\n        /* \"#utility.yul\":16352:16370   */\n      0x24\n      dup3\n      add\n        /* \"#utility.yul\":16345:16375   */\n      mstore\n      shl(0x60, 0x596f7520617265206e6f7420706c617965722031)\n        /* \"#utility.yul\":16391:16409   */\n      0x44\n      dup3\n      add\n        /* \"#utility.yul\":16384:16434   */\n      mstore\n        /* \"#utility.yul\":16451:16469   */\n      0x64\n      add\n        /* \"Practical6-Apply-TTT-Token.sol\":8189:8274  require(msg.sender == gameInformation[gameId]._player1address,\"You are not player 1\") */\n      tag_106\n        /* \"#utility.yul\":16131:16475   */\n      jump\n        /* \"Practical6-Apply-TTT-Token.sol\":8189:8274  require(msg.sender == gameInformation[gameId]._player1address,\"You are not player 1\") */\n    tag_281:\n        /* \"Practical6-Apply-TTT-Token.sol\":8107:8414  if(compareStrings(gameInformation[gameId]._currentPlayer, \"X\")){... */\n      jump(tag_288)\n    tag_277:\n        /* \"Practical6-Apply-TTT-Token.sol\":8335:8350  gameInformation */\n      0x07\n        /* \"Practical6-Apply-TTT-Token.sol\":8351:8357  gameId */\n      dup2\n        /* \"Practical6-Apply-TTT-Token.sol\":8335:8358  gameInformation[gameId] */\n      dup2\n      sload\n      dup2\n      lt\n      tag_286\n      jumpi\n      tag_286\n      tag_157\n      jump\t// in\n    tag_286:\n      0x00\n      swap2\n      dup3\n      mstore\n      0x20\n      swap1\n      swap2\n      keccak256\n      0x0b\n      swap1\n      swap2\n      mul\n      add\n        /* \"Practical6-Apply-TTT-Token.sol\":8335:8374  gameInformation[gameId]._player2address */\n      0x05\n      add\n      sload\n      sub(shl(0xa0, 0x01), 0x01)\n      and\n        /* \"Practical6-Apply-TTT-Token.sol\":8321:8331  msg.sender */\n      caller\n        /* \"Practical6-Apply-TTT-Token.sol\":8321:8374  msg.sender == gameInformation[gameId]._player2address */\n      eq\n        /* \"Practical6-Apply-TTT-Token.sol\":8313:8398  require(msg.sender == gameInformation[gameId]._player2address,\"You are not player 2\") */\n      tag_288\n      jumpi\n      mload(0x40)\n      shl(0xe5, 0x461bcd)\n      dup2\n      mstore\n        /* \"#utility.yul\":16682:16684   */\n      0x20\n        /* \"Practical6-Apply-TTT-Token.sol\":8313:8398  require(msg.sender == gameInformation[gameId]._player2address,\"You are not player 2\") */\n      0x04\n      dup3\n      add\n        /* \"#utility.yul\":16664:16685   */\n      mstore\n        /* \"#utility.yul\":16721:16723   */\n      0x14\n        /* \"#utility.yul\":16701:16719   */\n      0x24\n      dup3\n      add\n        /* \"#utility.yul\":16694:16724   */\n      mstore\n      shl(0x61, 0x2cb7ba9030b932903737ba10383630bcb2b91019)\n        /* \"#utility.yul\":16740:16758   */\n      0x44\n      dup3\n      add\n        /* \"#utility.yul\":16733:16783   */\n      mstore\n        /* \"#utility.yul\":16800:16818   */\n      0x64\n      add\n        /* \"Practical6-Apply-TTT-Token.sol\":8313:8398  require(msg.sender == gameInformation[gameId]._player2address,\"You are not player 2\") */\n      tag_106\n        /* \"#utility.yul\":16480:16824   */\n      jump\n        /* \"Practical6-Apply-TTT-Token.sol\":8313:8398  require(msg.sender == gameInformation[gameId]._player2address,\"You are not player 2\") */\n    tag_288:\n        /* \"Practical6-Apply-TTT-Token.sol\":8484:8499  gameInformation */\n      0x07\n        /* \"Practical6-Apply-TTT-Token.sol\":8500:8506  gameId */\n      dup2\n        /* \"Practical6-Apply-TTT-Token.sol\":8484:8507  gameInformation[gameId] */\n      dup2\n      sload\n      dup2\n      lt\n      tag_292\n      jumpi\n      tag_292\n      tag_157\n      jump\t// in\n    tag_292:\n      swap1\n      0x00\n      mstore\n      keccak256(0x00, 0x20)\n      swap1\n      0x0b\n      mul\n      add\n        /* \"Practical6-Apply-TTT-Token.sol\":8484:8522  gameInformation[gameId]._currentPlayer */\n      0x01\n      add\n        /* \"Practical6-Apply-TTT-Token.sol\":8442:8457  gameInformation */\n      0x07\n        /* \"Practical6-Apply-TTT-Token.sol\":8458:8464  gameId */\n      dup3\n        /* \"Practical6-Apply-TTT-Token.sol\":8442:8465  gameInformation[gameId] */\n      dup2\n      sload\n      dup2\n      lt\n      tag_295\n      jumpi\n      tag_295\n      tag_157\n      jump\t// in\n    tag_295:\n      swap1\n      0x00\n      mstore\n      keccak256(0x00, 0x20)\n      swap1\n      0x0b\n      mul\n      add\n        /* \"Practical6-Apply-TTT-Token.sol\":8442:8474  gameInformation[gameId]._options */\n      0x02\n      add\n        /* \"Practical6-Apply-TTT-Token.sol\":8475:8480  input */\n      dup4\n        /* \"Practical6-Apply-TTT-Token.sol\":8442:8481  gameInformation[gameId]._options[input] */\n      dup2\n      sload\n      dup2\n      lt\n      tag_298\n      jumpi\n      tag_298\n      tag_157\n      jump\t// in\n    tag_298:\n      swap1\n      0x00\n      mstore\n      keccak256(0x00, 0x20)\n      add\n        /* \"Practical6-Apply-TTT-Token.sol\":8442:8522  gameInformation[gameId]._options[input] = gameInformation[gameId]._currentPlayer */\n      swap1\n      dup2\n      tag_300\n      swap2\n      swap1\n      tag_301\n      jump\t// in\n    tag_300:\n      pop\n        /* \"Practical6-Apply-TTT-Token.sol\":8588:8638  updateUI(gameInformation[gameId]._options, gameId) */\n      0x9659242f3970136bf08cba261398ae9f0bc58a676137d79d3c2040dcdacbc18b\n        /* \"Practical6-Apply-TTT-Token.sol\":8597:8612  gameInformation */\n      0x07\n        /* \"Practical6-Apply-TTT-Token.sol\":8613:8619  gameId */\n      dup3\n        /* \"Practical6-Apply-TTT-Token.sol\":8597:8620  gameInformation[gameId] */\n      dup2\n      sload\n      dup2\n      lt\n      tag_303\n      jumpi\n      tag_303\n      tag_157\n      jump\t// in\n    tag_303:\n      swap1\n      0x00\n      mstore\n      keccak256(0x00, 0x20)\n      swap1\n      0x0b\n      mul\n      add\n        /* \"Practical6-Apply-TTT-Token.sol\":8597:8629  gameInformation[gameId]._options */\n      0x02\n      add\n        /* \"Practical6-Apply-TTT-Token.sol\":8631:8637  gameId */\n      dup3\n        /* \"Practical6-Apply-TTT-Token.sol\":8588:8638  updateUI(gameInformation[gameId]._options, gameId) */\n      mload(0x40)\n      tag_305\n      swap3\n      swap2\n      swap1\n      tag_306\n      jump\t// in\n    tag_305:\n      mload(0x40)\n      dup1\n      swap2\n      sub\n      swap1\n      log1\n        /* \"Practical6-Apply-TTT-Token.sol\":8746:8765  checkWinner(gameId) */\n      tag_307\n        /* \"Practical6-Apply-TTT-Token.sol\":8758:8764  gameId */\n      dup2\n        /* \"Practical6-Apply-TTT-Token.sol\":8746:8757  checkWinner */\n      tag_308\n        /* \"Practical6-Apply-TTT-Token.sol\":8746:8765  checkWinner(gameId) */\n      jump\t// in\n    tag_307:\n        /* \"Practical6-Apply-TTT-Token.sol\":7763:8809  function userInput(uint input, uint gameId) external {... */\n      pop\n      pop\n      jump\t// out\n        /* \"Practical6-Apply-TTT-Token.sol\":1093:1126  GameInfo[] public gameInformation */\n    tag_64:\n      0x07\n      dup2\n      dup2\n      sload\n      dup2\n      lt\n      tag_309\n      jumpi\n      0x00\n      dup1\n      revert\n    tag_309:\n      0x00\n      swap2\n      dup3\n      mstore\n      0x20\n      swap1\n      swap2\n      keccak256\n      0x0b\n      swap1\n      swap2\n      mul\n      add\n      dup1\n      sload\n      0x01\n      dup3\n      add\n      dup1\n      sload\n      0xff\n      swap1\n      swap3\n      and\n      swap4\n      pop\n      swap1\n      tag_311\n      swap1\n      tag_217\n      jump\t// in\n    tag_311:\n      dup1\n      0x1f\n      add\n      0x20\n      dup1\n      swap2\n      div\n      mul\n      0x20\n      add\n      mload(0x40)\n      swap1\n      dup2\n      add\n      0x40\n      mstore\n      dup1\n      swap3\n      swap2\n      swap1\n      dup2\n      dup2\n      mstore\n      0x20\n      add\n      dup3\n      dup1\n      sload\n      tag_312\n      swap1\n      tag_217\n      jump\t// in\n    tag_312:\n      dup1\n      iszero\n      tag_313\n      jumpi\n      dup1\n      0x1f\n      lt\n      tag_314\n      jumpi\n      0x0100\n      dup1\n      dup4\n      sload\n      div\n      mul\n      dup4\n      mstore\n      swap2\n      0x20\n      add\n      swap2\n      jump(tag_313)\n    tag_314:\n      dup3\n      add\n      swap2\n      swap1\n      0x00\n      mstore\n      keccak256(0x00, 0x20)\n      swap1\n    tag_315:\n      dup2\n      sload\n      dup2\n      mstore\n      swap1\n      0x01\n      add\n      swap1\n      0x20\n      add\n      dup1\n      dup4\n      gt\n      tag_315\n      jumpi\n      dup3\n      swap1\n      sub\n      0x1f\n      and\n      dup3\n      add\n      swap2\n    tag_313:\n      pop\n      pop\n      pop\n      0x04\n      dup5\n      add\n      sload\n      0x05\n      dup6\n      add\n      sload\n      0x06\n      dup7\n      add\n      sload\n      0x07\n      dup8\n      add\n      sload\n      0x08\n      dup9\n      add\n      sload\n      0x09\n      dup10\n      add\n      sload\n      0x0a\n      swap1\n      swap10\n      add\n      sload\n      swap8\n      swap9\n      sub(shl(0xa0, 0x01), 0x01)\n      swap6\n      dup7\n      and\n      swap9\n      swap5\n      dup7\n      and\n      swap8\n      pop\n      swap3\n      swap6\n      pop\n      swap4\n      and\n      swap3\n      swap2\n      dup10\n      jump\t// out\n        /* \"Practical6-Apply-TTT-Token.sol\":2860:3107  function getExcessBalance() external onlyOwner{... */\n    tag_68:\n        /* \"Practical6-Apply-TTT-Token.sol\":3229:3234  owner */\n      and(sub(shl(0xa0, 0x01), 0x01), sload(0x06))\n        /* \"Practical6-Apply-TTT-Token.sol\":3215:3225  msg.sender */\n      caller\n        /* \"Practical6-Apply-TTT-Token.sol\":3215:3234  msg.sender == owner */\n      eq\n        /* \"Practical6-Apply-TTT-Token.sol\":3207:3252  require(msg.sender == owner, \"Not the owner\") */\n      tag_317\n      jumpi\n      mload(0x40)\n      shl(0xe5, 0x461bcd)\n      dup2\n      mstore\n        /* \"#utility.yul\":20262:20264   */\n      0x20\n        /* \"Practical6-Apply-TTT-Token.sol\":3207:3252  require(msg.sender == owner, \"Not the owner\") */\n      0x04\n      dup3\n      add\n        /* \"#utility.yul\":20244:20265   */\n      mstore\n        /* \"#utility.yul\":20301:20303   */\n      0x0d\n        /* \"#utility.yul\":20281:20299   */\n      0x24\n      dup3\n      add\n        /* \"#utility.yul\":20274:20304   */\n      mstore\n      shl(0x99, 0x2737ba103a34329037bbb732b9)\n        /* \"#utility.yul\":20320:20338   */\n      0x44\n      dup3\n      add\n        /* \"#utility.yul\":20313:20356   */\n      mstore\n        /* \"#utility.yul\":20373:20391   */\n      0x64\n      add\n        /* \"Practical6-Apply-TTT-Token.sol\":3207:3252  require(msg.sender == owner, \"Not the owner\") */\n      tag_106\n        /* \"#utility.yul\":20060:20397   */\n      jump\n        /* \"Practical6-Apply-TTT-Token.sol\":3207:3252  require(msg.sender == owner, \"Not the owner\") */\n    tag_317:\n        /* \"Practical6-Apply-TTT-Token.sol\":2965:2976  totalAmount */\n      sload(0x05)\n        /* \"Practical6-Apply-TTT-Token.sol\":2979:2980  0 */\n      0x00\n        /* \"Practical6-Apply-TTT-Token.sol\":2929:2937  TTTToken */\n      dup1\n      sload\n        /* \"Practical6-Apply-TTT-Token.sol\":2929:2962  TTTToken.balanceOf(address(this)) */\n      mload(0x40)\n      shl(0xe0, 0x70a08231)\n      dup2\n      mstore\n        /* \"Practical6-Apply-TTT-Token.sol\":2956:2960  this */\n      address\n        /* \"Practical6-Apply-TTT-Token.sol\":2929:2962  TTTToken.balanceOf(address(this)) */\n      0x04\n      dup3\n      add\n        /* \"#utility.yul\":5328:5379   */\n      mstore\n        /* \"Practical6-Apply-TTT-Token.sol\":2979:2980  0 */\n      swap2\n      swap3\n        /* \"Practical6-Apply-TTT-Token.sol\":2965:2976  totalAmount */\n      swap2\n      sub(shl(0xa0, 0x01), 0x01)\n        /* \"Practical6-Apply-TTT-Token.sol\":2929:2937  TTTToken */\n      swap1\n      swap2\n      and\n      swap1\n        /* \"Practical6-Apply-TTT-Token.sol\":2929:2947  TTTToken.balanceOf */\n      0x70a08231\n      swap1\n        /* \"#utility.yul\":5301:5319   */\n      0x24\n      add\n        /* \"Practical6-Apply-TTT-Token.sol\":2929:2962  TTTToken.balanceOf(address(this)) */\n      0x20\n      mload(0x40)\n      dup1\n      dup4\n      sub\n      dup2\n      dup7\n      gas\n      staticcall\n      iszero\n      dup1\n      iszero\n      tag_323\n      jumpi\n      returndatasize\n      0x00\n      dup1\n      returndatacopy\n      revert(0x00, returndatasize)\n    tag_323:\n      pop\n      pop\n      pop\n      pop\n      mload(0x40)\n      returndatasize\n      not(0x1f)\n      0x1f\n      dup3\n      add\n      and\n      dup3\n      add\n      dup1\n      0x40\n      mstore\n      pop\n      dup2\n      add\n      swap1\n      tag_324\n      swap2\n      swap1\n      tag_113\n      jump\t// in\n    tag_324:\n        /* \"Practical6-Apply-TTT-Token.sol\":2929:2976  TTTToken.balanceOf(address(this)) - totalAmount */\n      tag_325\n      swap2\n      swap1\n      tag_127\n      jump\t// in\n    tag_325:\n        /* \"Practical6-Apply-TTT-Token.sol\":2929:2980  TTTToken.balanceOf(address(this)) - totalAmount > 0 */\n      gt\n        /* \"Practical6-Apply-TTT-Token.sol\":2921:3007  require(TTTToken.balanceOf(address(this)) - totalAmount > 0, \"The token is not extra\") */\n      tag_326\n      jumpi\n      mload(0x40)\n      shl(0xe5, 0x461bcd)\n      dup2\n      mstore\n        /* \"#utility.yul\":20604:20606   */\n      0x20\n        /* \"Practical6-Apply-TTT-Token.sol\":2921:3007  require(TTTToken.balanceOf(address(this)) - totalAmount > 0, \"The token is not extra\") */\n      0x04\n      dup3\n      add\n        /* \"#utility.yul\":20586:20607   */\n      mstore\n        /* \"#utility.yul\":20643:20645   */\n      0x16\n        /* \"#utility.yul\":20623:20641   */\n      0x24\n      dup3\n      add\n        /* \"#utility.yul\":20616:20646   */\n      mstore\n      shl(0x50, 0x54686520746f6b656e206973206e6f74206578747261)\n        /* \"#utility.yul\":20662:20680   */\n      0x44\n      dup3\n      add\n        /* \"#utility.yul\":20655:20707   */\n      mstore\n        /* \"#utility.yul\":20724:20742   */\n      0x64\n      add\n        /* \"Practical6-Apply-TTT-Token.sol\":2921:3007  require(TTTToken.balanceOf(address(this)) - totalAmount > 0, \"The token is not extra\") */\n      tag_106\n        /* \"#utility.yul\":20402:20748   */\n      jump\n        /* \"Practical6-Apply-TTT-Token.sol\":2921:3007  require(TTTToken.balanceOf(address(this)) - totalAmount > 0, \"The token is not extra\") */\n    tag_326:\n        /* \"Practical6-Apply-TTT-Token.sol\":3022:3030  TTTToken */\n      sload(0x00)\n        /* \"Practical6-Apply-TTT-Token.sol\":3040:3045  owner */\n      sload(0x06)\n        /* \"Practical6-Apply-TTT-Token.sol\":3083:3094  totalAmount */\n      sload(0x05)\n        /* \"Practical6-Apply-TTT-Token.sol\":3047:3080  TTTToken.balanceOf(address(this)) */\n      mload(0x40)\n      shl(0xe0, 0x70a08231)\n      dup2\n      mstore\n        /* \"Practical6-Apply-TTT-Token.sol\":3074:3078  this */\n      address\n        /* \"Practical6-Apply-TTT-Token.sol\":3047:3080  TTTToken.balanceOf(address(this)) */\n      0x04\n      dup3\n      add\n        /* \"#utility.yul\":5328:5379   */\n      mstore\n      sub(shl(0xa0, 0x01), 0x01)\n        /* \"Practical6-Apply-TTT-Token.sol\":3022:3030  TTTToken */\n      swap4\n      dup5\n      and\n      swap4\n        /* \"Practical6-Apply-TTT-Token.sol\":3022:3039  TTTToken.transfer */\n      0xa9059cbb\n      swap4\n        /* \"Practical6-Apply-TTT-Token.sol\":3040:3045  owner */\n      and\n      swap2\n        /* \"Practical6-Apply-TTT-Token.sol\":3083:3094  totalAmount */\n      swap1\n        /* \"Practical6-Apply-TTT-Token.sol\":3022:3030  TTTToken */\n      dup5\n      swap1\n        /* \"Practical6-Apply-TTT-Token.sol\":3047:3065  TTTToken.balanceOf */\n      0x70a08231\n      swap1\n        /* \"#utility.yul\":5301:5319   */\n      0x24\n      add\n        /* \"Practical6-Apply-TTT-Token.sol\":3047:3080  TTTToken.balanceOf(address(this)) */\n      0x20\n      mload(0x40)\n      dup1\n      dup4\n      sub\n      dup2\n      dup7\n      gas\n      staticcall\n      iszero\n      dup1\n      iszero\n      tag_331\n      jumpi\n      returndatasize\n      0x00\n      dup1\n      returndatacopy\n      revert(0x00, returndatasize)\n    tag_331:\n      pop\n      pop\n      pop\n      pop\n      mload(0x40)\n      returndatasize\n      not(0x1f)\n      0x1f\n      dup3\n      add\n      and\n      dup3\n      add\n      dup1\n      0x40\n      mstore\n      pop\n      dup2\n      add\n      swap1\n      tag_332\n      swap2\n      swap1\n      tag_113\n      jump\t// in\n    tag_332:\n        /* \"Practical6-Apply-TTT-Token.sol\":3047:3094  TTTToken.balanceOf(address(this)) - totalAmount */\n      tag_333\n      swap2\n      swap1\n      tag_127\n      jump\t// in\n    tag_333:\n        /* \"Practical6-Apply-TTT-Token.sol\":3022:3095  TTTToken.transfer(owner, TTTToken.balanceOf(address(this)) - totalAmount) */\n      mload(0x40)\n      not(sub(shl(0xe0, 0x01), 0x01))\n      0xe0\n      dup6\n      swap1\n      shl\n      and\n      dup2\n      mstore\n      sub(shl(0xa0, 0x01), 0x01)\n        /* \"#utility.yul\":20945:20977   */\n      swap1\n      swap3\n      and\n        /* \"Practical6-Apply-TTT-Token.sol\":3022:3095  TTTToken.transfer(owner, TTTToken.balanceOf(address(this)) - totalAmount) */\n      0x04\n      dup4\n      add\n        /* \"#utility.yul\":20927:20978   */\n      mstore\n        /* \"#utility.yul\":20994:21012   */\n      0x24\n      dup3\n      add\n        /* \"#utility.yul\":20987:21021   */\n      mstore\n        /* \"#utility.yul\":20900:20918   */\n      0x44\n      add\n        /* \"Practical6-Apply-TTT-Token.sol\":3022:3095  TTTToken.transfer(owner, TTTToken.balanceOf(address(this)) - totalAmount) */\n      0x20\n      mload(0x40)\n      dup1\n      dup4\n      sub\n      dup2\n      0x00\n      dup8\n      gas\n      call\n      iszero\n      dup1\n      iszero\n      tag_337\n      jumpi\n      returndatasize\n      0x00\n      dup1\n      returndatacopy\n      revert(0x00, returndatasize)\n    tag_337:\n      pop\n      pop\n      pop\n      pop\n      mload(0x40)\n      returndatasize\n      not(0x1f)\n      0x1f\n      dup3\n      add\n      and\n      dup3\n      add\n      dup1\n      0x40\n      mstore\n      pop\n      dup2\n      add\n      swap1\n      tag_211\n      swap2\n      swap1\n      tag_134\n      jump\t// in\n        /* \"Practical6-Apply-TTT-Token.sol\":3892:4030  function getGameInformation (uint gameId) external view returns (GameInfo memory){... */\n    tag_74:\n        /* \"Practical6-Apply-TTT-Token.sol\":3957:3972  GameInfo memory */\n      tag_339\n      tag_146\n      jump\t// in\n    tag_339:\n        /* \"Practical6-Apply-TTT-Token.sol\":3995:4010  gameInformation */\n      0x07\n        /* \"Practical6-Apply-TTT-Token.sol\":4011:4017  gameId */\n      dup3\n        /* \"Practical6-Apply-TTT-Token.sol\":3995:4018  gameInformation[gameId] */\n      dup2\n      sload\n      dup2\n      lt\n      tag_342\n      jumpi\n      tag_342\n      tag_157\n      jump\t// in\n    tag_342:\n      0x00\n      swap2\n      dup3\n      mstore\n      0x20\n      swap2\n      dup3\n      swap1\n      keccak256\n        /* \"Practical6-Apply-TTT-Token.sol\":3988:4018  return gameInformation[gameId] */\n      0x40\n      dup1\n      mload\n      0x0160\n      dup2\n      add\n      swap1\n      swap2\n      mstore\n        /* \"Practical6-Apply-TTT-Token.sol\":3995:4018  gameInformation[gameId] */\n      0x0b\n      swap1\n      swap3\n      mul\n      add\n        /* \"Practical6-Apply-TTT-Token.sol\":3988:4018  return gameInformation[gameId] */\n      dup1\n      sload\n      0xff\n      and\n      iszero\n      iszero\n      dup3\n      mstore\n      0x01\n      dup2\n      add\n      dup1\n      sload\n      swap3\n      swap4\n        /* \"Practical6-Apply-TTT-Token.sol\":3995:4018  gameInformation[gameId] */\n      swap2\n      swap3\n        /* \"Practical6-Apply-TTT-Token.sol\":3988:4018  return gameInformation[gameId] */\n      swap2\n      dup5\n      add\n      swap2\n      tag_344\n      swap1\n      tag_217\n      jump\t// in\n    tag_344:\n      dup1\n      0x1f\n      add\n      0x20\n      dup1\n      swap2\n      div\n      mul\n      0x20\n      add\n      mload(0x40)\n      swap1\n      dup2\n      add\n      0x40\n      mstore\n      dup1\n      swap3\n      swap2\n      swap1\n      dup2\n      dup2\n      mstore\n      0x20\n      add\n      dup3\n      dup1\n      sload\n      tag_345\n      swap1\n      tag_217\n      jump\t// in\n    tag_345:\n      dup1\n      iszero\n      tag_346\n      jumpi\n      dup1\n      0x1f\n      lt\n      tag_347\n      jumpi\n      0x0100\n      dup1\n      dup4\n      sload\n      div\n      mul\n      dup4\n      mstore\n      swap2\n      0x20\n      add\n      swap2\n      jump(tag_346)\n    tag_347:\n      dup3\n      add\n      swap2\n      swap1\n      0x00\n      mstore\n      keccak256(0x00, 0x20)\n      swap1\n    tag_348:\n      dup2\n      sload\n      dup2\n      mstore\n      swap1\n      0x01\n      add\n      swap1\n      0x20\n      add\n      dup1\n      dup4\n      gt\n      tag_348\n      jumpi\n      dup3\n      swap1\n      sub\n      0x1f\n      and\n      dup3\n      add\n      swap2\n    tag_346:\n      pop\n      pop\n      pop\n      pop\n      pop\n      dup2\n      mstore\n      0x20\n      add\n      0x02\n      dup3\n      add\n      dup1\n      sload\n      dup1\n      0x20\n      mul\n      0x20\n      add\n      mload(0x40)\n      swap1\n      dup2\n      add\n      0x40\n      mstore\n      dup1\n      swap3\n      swap2\n      swap1\n      dup2\n      dup2\n      mstore\n      0x20\n      add\n      0x00\n      swap1\n    tag_349:\n      dup3\n      dup3\n      lt\n      iszero\n      tag_350\n      jumpi\n      dup4\n      dup3\n      swap1\n      0x00\n      mstore\n      keccak256(0x00, 0x20)\n      add\n      dup1\n      sload\n      tag_352\n      swap1\n      tag_217\n      jump\t// in\n    tag_352:\n      dup1\n      0x1f\n      add\n      0x20\n      dup1\n      swap2\n      div\n      mul\n      0x20\n      add\n      mload(0x40)\n      swap1\n      dup2\n      add\n      0x40\n      mstore\n      dup1\n      swap3\n      swap2\n      swap1\n      dup2\n      dup2\n      mstore\n      0x20\n      add\n      dup3\n      dup1\n      sload\n      tag_353\n      swap1\n      tag_217\n      jump\t// in\n    tag_353:\n      dup1\n      iszero\n      tag_354\n      jumpi\n      dup1\n      0x1f\n      lt\n      tag_355\n      jumpi\n      0x0100\n      dup1\n      dup4\n      sload\n      div\n      mul\n      dup4\n      mstore\n      swap2\n      0x20\n      add\n      swap2\n      jump(tag_354)\n    tag_355:\n      dup3\n      add\n      swap2\n      swap1\n      0x00\n      mstore\n      keccak256(0x00, 0x20)\n      swap1\n    tag_356:\n      dup2\n      sload\n      dup2\n      mstore\n      swap1\n      0x01\n      add\n      swap1\n      0x20\n      add\n      dup1\n      dup4\n      gt\n      tag_356\n      jumpi\n      dup3\n      swap1\n      sub\n      0x1f\n      and\n      dup3\n      add\n      swap2\n    tag_354:\n      pop\n      pop\n      pop\n      pop\n      pop\n      dup2\n      mstore\n      0x20\n      add\n      swap1\n      0x01\n      add\n      swap1\n      jump(tag_349)\n    tag_350:\n      pop\n      pop\n      pop\n      pop\n      dup2\n      mstore\n      0x20\n      add\n      0x03\n      dup3\n      add\n      dup1\n      sload\n      dup1\n      0x20\n      mul\n      0x20\n      add\n      mload(0x40)\n      swap1\n      dup2\n      add\n      0x40\n      mstore\n      dup1\n      swap3\n      swap2\n      swap1\n      dup2\n      dup2\n      mstore\n      0x20\n      add\n      dup3\n      dup1\n      sload\n      dup1\n      iszero\n      tag_357\n      jumpi\n      0x20\n      mul\n      dup3\n      add\n      swap2\n      swap1\n      0x00\n      mstore\n      keccak256(0x00, 0x20)\n      swap1\n    tag_358:\n      dup2\n      sload\n      dup2\n      mstore\n      0x20\n      add\n      swap1\n      0x01\n      add\n      swap1\n      dup1\n      dup4\n      gt\n      tag_358\n      jumpi\n    tag_357:\n      pop\n      pop\n      pop\n      swap2\n      dup4\n      mstore\n      pop\n      pop\n      0x04\n      dup3\n      add\n      sload\n      sub(shl(0xa0, 0x01), 0x01)\n      swap1\n      dup2\n      and\n      0x20\n      dup4\n      add\n      mstore\n      0x05\n      dup4\n      add\n      sload\n      dup2\n      and\n      0x40\n      dup4\n      add\n      mstore\n      0x06\n      dup4\n      add\n      sload\n      0x60\n      dup4\n      add\n      mstore\n      0x07\n      dup4\n      add\n      sload\n      and\n      0x80\n      dup3\n      add\n      mstore\n      0x08\n      dup3\n      add\n      sload\n      0xa0\n      dup3\n      add\n      mstore\n      0x09\n      dup3\n      add\n      sload\n      0xc0\n      dup3\n      add\n      mstore\n      0x0a\n      swap1\n      swap2\n      add\n      sload\n      0xe0\n      swap1\n      swap2\n      add\n      mstore\n      swap3\n        /* \"Practical6-Apply-TTT-Token.sol\":3892:4030  function getGameInformation (uint gameId) external view returns (GameInfo memory){... */\n      swap2\n      pop\n      pop\n      jump\t// out\n        /* \"Practical6-Apply-TTT-Token.sol\":5711:7645  function joinGame (uint gameId, uint256 betAmount) external noReentrancy {... */\n    tag_79:\n        /* \"Practical6-Apply-TTT-Token.sol\":3365:3371  locked */\n      sload(0x06)\n      shl(0xa0, 0x01)\n      swap1\n      div\n      0xff\n      and\n        /* \"Practical6-Apply-TTT-Token.sol\":3364:3371  !locked */\n      iszero\n        /* \"Practical6-Apply-TTT-Token.sol\":3356:3397  require(!locked, \"Error: Reentrant call\") */\n      tag_360\n      jumpi\n      mload(0x40)\n      shl(0xe5, 0x461bcd)\n      dup2\n      mstore\n        /* \"#utility.yul\":9376:9378   */\n      0x20\n        /* \"Practical6-Apply-TTT-Token.sol\":3356:3397  require(!locked, \"Error: Reentrant call\") */\n      0x04\n      dup3\n      add\n        /* \"#utility.yul\":9358:9379   */\n      mstore\n        /* \"#utility.yul\":9415:9417   */\n      0x15\n        /* \"#utility.yul\":9395:9413   */\n      0x24\n      dup3\n      add\n        /* \"#utility.yul\":9388:9418   */\n      mstore\n      shl(0x5a, 0x115c9c9bdc8e881499595b9d1c985b9d0818d85b1b)\n        /* \"#utility.yul\":9434:9452   */\n      0x44\n      dup3\n      add\n        /* \"#utility.yul\":9427:9478   */\n      mstore\n        /* \"#utility.yul\":9495:9513   */\n      0x64\n      add\n        /* \"Practical6-Apply-TTT-Token.sol\":3356:3397  require(!locked, \"Error: Reentrant call\") */\n      tag_106\n        /* \"#utility.yul\":9174:9519   */\n      jump\n        /* \"Practical6-Apply-TTT-Token.sol\":3356:3397  require(!locked, \"Error: Reentrant call\") */\n    tag_360:\n        /* \"Practical6-Apply-TTT-Token.sol\":3412:3418  locked */\n      0x06\n        /* \"Practical6-Apply-TTT-Token.sol\":3412:3425  locked = true */\n      dup1\n      sload\n      not(shl(0xa0, 0xff))\n      and\n      shl(0xa0, 0x01)\n      or\n      swap1\n      sstore\n        /* \"Practical6-Apply-TTT-Token.sol\":5877:5892  gameInformation */\n      0x07\n        /* \"Practical6-Apply-TTT-Token.sol\":5877:5900  gameInformation[gameId] */\n      dup1\n      sload\n        /* \"Practical6-Apply-TTT-Token.sol\":5893:5899  gameId */\n      dup4\n      swap1\n        /* \"Practical6-Apply-TTT-Token.sol\":5877:5900  gameInformation[gameId] */\n      dup2\n      lt\n      tag_364\n      jumpi\n      tag_364\n      tag_157\n      jump\t// in\n    tag_364:\n      swap1\n      0x00\n      mstore\n      keccak256(0x00, 0x20)\n      swap1\n      0x0b\n      mul\n      add\n        /* \"Practical6-Apply-TTT-Token.sol\":5877:5913  gameInformation[gameId]._playerCount */\n      0x06\n      add\n      sload\n        /* \"Practical6-Apply-TTT-Token.sol\":5917:5918  1 */\n      0x01\n        /* \"Practical6-Apply-TTT-Token.sol\":5877:5918  gameInformation[gameId]._playerCount == 1 */\n      sub\n        /* \"Practical6-Apply-TTT-Token.sol\":5874:7528  if(gameInformation[gameId]._playerCount == 1){... */\n      tag_366\n      jumpi\n        /* \"Practical6-Apply-TTT-Token.sol\":5980:5995  gameInformation */\n      0x07\n        /* \"Practical6-Apply-TTT-Token.sol\":5996:6002  gameId */\n      dup3\n        /* \"Practical6-Apply-TTT-Token.sol\":5980:6003  gameInformation[gameId] */\n      dup2\n      sload\n      dup2\n      lt\n      tag_368\n      jumpi\n      tag_368\n      tag_157\n      jump\t// in\n    tag_368:\n      0x00\n      swap2\n      dup3\n      mstore\n      0x20\n      dup3\n      keccak256\n      0x0b\n      swap2\n      swap1\n      swap2\n      mul\n      add\n        /* \"Practical6-Apply-TTT-Token.sol\":5980:6015  gameInformation[gameId]._player1Bet */\n      0x08\n      add\n      sload\n        /* \"Practical6-Apply-TTT-Token.sol\":5946:5954  TTTToken */\n      swap1\n      sload\n        /* \"Practical6-Apply-TTT-Token.sol\":5946:5976  TTTToken.balanceOf(msg.sender) */\n      mload(0x40)\n      shl(0xe0, 0x70a08231)\n      dup2\n      mstore\n        /* \"Practical6-Apply-TTT-Token.sol\":5965:5975  msg.sender */\n      caller\n        /* \"Practical6-Apply-TTT-Token.sol\":5946:5976  TTTToken.balanceOf(msg.sender) */\n      0x04\n      dup3\n      add\n        /* \"#utility.yul\":5328:5379   */\n      mstore\n      sub(shl(0xa0, 0x01), 0x01)\n        /* \"Practical6-Apply-TTT-Token.sol\":5946:5954  TTTToken */\n      swap1\n      swap2\n      and\n      swap1\n        /* \"Practical6-Apply-TTT-Token.sol\":5946:5964  TTTToken.balanceOf */\n      0x70a08231\n      swap1\n        /* \"#utility.yul\":5301:5319   */\n      0x24\n      add\n        /* \"Practical6-Apply-TTT-Token.sol\":5946:5976  TTTToken.balanceOf(msg.sender) */\n      0x20\n      mload(0x40)\n      dup1\n      dup4\n      sub\n      dup2\n      dup7\n      gas\n      staticcall\n      iszero\n      dup1\n      iszero\n      tag_372\n      jumpi\n      returndatasize\n      0x00\n      dup1\n      returndatacopy\n      revert(0x00, returndatasize)\n    tag_372:\n      pop\n      pop\n      pop\n      pop\n      mload(0x40)\n      returndatasize\n      not(0x1f)\n      0x1f\n      dup3\n      add\n      and\n      dup3\n      add\n      dup1\n      0x40\n      mstore\n      pop\n      dup2\n      add\n      swap1\n      tag_373\n      swap2\n      swap1\n      tag_113\n      jump\t// in\n    tag_373:\n        /* \"Practical6-Apply-TTT-Token.sol\":5946:6015  TTTToken.balanceOf(msg.sender) >= gameInformation[gameId]._player1Bet */\n      lt\n      iszero\n        /* \"Practical6-Apply-TTT-Token.sol\":5938:6038  require(TTTToken.balanceOf(msg.sender) >= gameInformation[gameId]._player1Bet, \"Not enough balance\") */\n      tag_374\n      jumpi\n      mload(0x40)\n      shl(0xe5, 0x461bcd)\n      dup2\n      mstore\n        /* \"#utility.yul\":9915:9917   */\n      0x20\n        /* \"Practical6-Apply-TTT-Token.sol\":5938:6038  require(TTTToken.balanceOf(msg.sender) >= gameInformation[gameId]._player1Bet, \"Not enough balance\") */\n      0x04\n      dup3\n      add\n        /* \"#utility.yul\":9897:9918   */\n      mstore\n        /* \"#utility.yul\":9954:9956   */\n      0x12\n        /* \"#utility.yul\":9934:9952   */\n      0x24\n      dup3\n      add\n        /* \"#utility.yul\":9927:9957   */\n      mstore\n      shl(0x70, 0x4e6f7420656e6f7567682062616c616e6365)\n        /* \"#utility.yul\":9973:9991   */\n      0x44\n      dup3\n      add\n        /* \"#utility.yul\":9966:10014   */\n      mstore\n        /* \"#utility.yul\":10031:10049   */\n      0x64\n      add\n        /* \"Practical6-Apply-TTT-Token.sol\":5938:6038  require(TTTToken.balanceOf(msg.sender) >= gameInformation[gameId]._player1Bet, \"Not enough balance\") */\n      tag_106\n        /* \"#utility.yul\":9713:10055   */\n      jump\n        /* \"Practical6-Apply-TTT-Token.sol\":5938:6038  require(TTTToken.balanceOf(msg.sender) >= gameInformation[gameId]._player1Bet, \"Not enough balance\") */\n    tag_374:\n        /* \"Practical6-Apply-TTT-Token.sol\":6078:6093  gameInformation */\n      0x07\n        /* \"Practical6-Apply-TTT-Token.sol\":6094:6100  gameId */\n      dup3\n        /* \"Practical6-Apply-TTT-Token.sol\":6078:6101  gameInformation[gameId] */\n      dup2\n      sload\n      dup2\n      lt\n      tag_377\n      jumpi\n      tag_377\n      tag_157\n      jump\t// in\n    tag_377:\n      swap1\n      0x00\n      mstore\n      keccak256(0x00, 0x20)\n      swap1\n      0x0b\n      mul\n      add\n        /* \"Practical6-Apply-TTT-Token.sol\":6078:6113  gameInformation[gameId]._player1Bet */\n      0x08\n      add\n      sload\n        /* \"Practical6-Apply-TTT-Token.sol\":6065:6074  betAmount */\n      dup2\n        /* \"Practical6-Apply-TTT-Token.sol\":6065:6113  betAmount == gameInformation[gameId]._player1Bet */\n      eq\n        /* \"Practical6-Apply-TTT-Token.sol\":6057:6144  require(betAmount == gameInformation[gameId]._player1Bet, \"Need to pay min bet amount\") */\n      tag_379\n      jumpi\n      mload(0x40)\n      shl(0xe5, 0x461bcd)\n      dup2\n      mstore\n        /* \"#utility.yul\":10262:10264   */\n      0x20\n        /* \"Practical6-Apply-TTT-Token.sol\":6057:6144  require(betAmount == gameInformation[gameId]._player1Bet, \"Need to pay min bet amount\") */\n      0x04\n      dup3\n      add\n        /* \"#utility.yul\":10244:10265   */\n      mstore\n        /* \"#utility.yul\":10301:10303   */\n      0x1a\n        /* \"#utility.yul\":10281:10299   */\n      0x24\n      dup3\n      add\n        /* \"#utility.yul\":10274:10304   */\n      mstore\n        /* \"#utility.yul\":10340:10368   */\n      0x4e65656420746f20706179206d696e2062657420616d6f756e74000000000000\n        /* \"#utility.yul\":10320:10338   */\n      0x44\n      dup3\n      add\n        /* \"#utility.yul\":10313:10369   */\n      mstore\n        /* \"#utility.yul\":10386:10404   */\n      0x64\n      add\n        /* \"Practical6-Apply-TTT-Token.sol\":6057:6144  require(betAmount == gameInformation[gameId]._player1Bet, \"Need to pay min bet amount\") */\n      tag_106\n        /* \"#utility.yul\":10060:10410   */\n      jump\n        /* \"Practical6-Apply-TTT-Token.sol\":6057:6144  require(betAmount == gameInformation[gameId]._player1Bet, \"Need to pay min bet amount\") */\n    tag_379:\n        /* \"Practical6-Apply-TTT-Token.sol\":6165:6183  uint256 burnAmount */\n      0x00\n        /* \"Practical6-Apply-TTT-Token.sol\":6210:6213  100 */\n      0x64\n        /* \"Practical6-Apply-TTT-Token.sol\":6199:6206  burnFee */\n      sload(0x03)\n        /* \"Practical6-Apply-TTT-Token.sol\":6187:6196  betAmount */\n      dup4\n        /* \"Practical6-Apply-TTT-Token.sol\":6187:6206  betAmount * burnFee */\n      tag_381\n      swap2\n      swap1\n      tag_121\n      jump\t// in\n    tag_381:\n        /* \"Practical6-Apply-TTT-Token.sol\":6186:6213  (betAmount * burnFee) / 100 */\n      tag_382\n      swap2\n      swap1\n      tag_123\n      jump\t// in\n    tag_382:\n        /* \"Practical6-Apply-TTT-Token.sol\":6165:6213  uint256 burnAmount = (betAmount * burnFee) / 100 */\n      swap1\n      pop\n        /* \"Practical6-Apply-TTT-Token.sol\":6232:6254  uint256 treasuryAmount */\n      0x00\n        /* \"Practical6-Apply-TTT-Token.sol\":6285:6288  100 */\n      0x64\n        /* \"Practical6-Apply-TTT-Token.sol\":6270:6281  treasuryFee */\n      sload(0x04)\n        /* \"Practical6-Apply-TTT-Token.sol\":6258:6267  betAmount */\n      dup5\n        /* \"Practical6-Apply-TTT-Token.sol\":6258:6281  betAmount * treasuryFee */\n      tag_383\n      swap2\n      swap1\n      tag_121\n      jump\t// in\n    tag_383:\n        /* \"Practical6-Apply-TTT-Token.sol\":6257:6288  (betAmount * treasuryFee) / 100 */\n      tag_384\n      swap2\n      swap1\n      tag_123\n      jump\t// in\n    tag_384:\n        /* \"Practical6-Apply-TTT-Token.sol\":6232:6288  uint256 treasuryAmount = (betAmount * treasuryFee) / 100 */\n      swap1\n      pop\n        /* \"Practical6-Apply-TTT-Token.sol\":6307:6327  uint256 rewardAmount */\n      0x00\n        /* \"Practical6-Apply-TTT-Token.sol\":6232:6288  uint256 treasuryAmount = (betAmount * treasuryFee) / 100 */\n      dup2\n        /* \"Practical6-Apply-TTT-Token.sol\":6330:6352  betAmount - burnAmount */\n      tag_385\n        /* \"Practical6-Apply-TTT-Token.sol\":6342:6352  burnAmount */\n      dup5\n        /* \"Practical6-Apply-TTT-Token.sol\":6330:6339  betAmount */\n      dup7\n        /* \"Practical6-Apply-TTT-Token.sol\":6330:6352  betAmount - burnAmount */\n      tag_127\n      jump\t// in\n    tag_385:\n        /* \"Practical6-Apply-TTT-Token.sol\":6330:6369  betAmount - burnAmount - treasuryAmount */\n      tag_386\n      swap2\n      swap1\n      tag_127\n      jump\t// in\n    tag_386:\n        /* \"Practical6-Apply-TTT-Token.sol\":6390:6398  TTTToken */\n      sload(0x00)\n        /* \"Practical6-Apply-TTT-Token.sol\":6390:6452  TTTToken.transferFrom(msg.sender, address(0xdead), burnAmount) */\n      mload(0x40)\n      shl(0xe0, 0x23b872dd)\n      dup2\n      mstore\n        /* \"Practical6-Apply-TTT-Token.sol\":6307:6369  uint256 rewardAmount = betAmount - burnAmount - treasuryAmount */\n      swap2\n      swap3\n      pop\n      sub(shl(0xa0, 0x01), 0x01)\n        /* \"Practical6-Apply-TTT-Token.sol\":6390:6398  TTTToken */\n      and\n      swap1\n        /* \"Practical6-Apply-TTT-Token.sol\":6390:6411  TTTToken.transferFrom */\n      0x23b872dd\n      swap1\n        /* \"Practical6-Apply-TTT-Token.sol\":6390:6452  TTTToken.transferFrom(msg.sender, address(0xdead), burnAmount) */\n      tag_387\n      swap1\n        /* \"Practical6-Apply-TTT-Token.sol\":6412:6422  msg.sender */\n      caller\n      swap1\n        /* \"Practical6-Apply-TTT-Token.sol\":6432:6438  0xdead */\n      0xdead\n      swap1\n        /* \"Practical6-Apply-TTT-Token.sol\":6441:6451  burnAmount */\n      dup9\n      swap1\n        /* \"Practical6-Apply-TTT-Token.sol\":6390:6452  TTTToken.transferFrom(msg.sender, address(0xdead), burnAmount) */\n      0x04\n      add\n      tag_130\n      jump\t// in\n    tag_387:\n      0x20\n      mload(0x40)\n      dup1\n      dup4\n      sub\n      dup2\n      0x00\n      dup8\n      gas\n      call\n      iszero\n      dup1\n      iszero\n      tag_389\n      jumpi\n      returndatasize\n      0x00\n      dup1\n      returndatacopy\n      revert(0x00, returndatasize)\n    tag_389:\n      pop\n      pop\n      pop\n      pop\n      mload(0x40)\n      returndatasize\n      not(0x1f)\n      0x1f\n      dup3\n      add\n      and\n      dup3\n      add\n      dup1\n      0x40\n      mstore\n      pop\n      dup2\n      add\n      swap1\n      tag_390\n      swap2\n      swap1\n      tag_134\n      jump\t// in\n    tag_390:\n      pop\n        /* \"Practical6-Apply-TTT-Token.sol\":6471:6479  TTTToken */\n      sload(0x00)\n        /* \"Practical6-Apply-TTT-Token.sol\":6505:6513  treasury */\n      sload(0x02)\n        /* \"Practical6-Apply-TTT-Token.sol\":6471:6530  TTTToken.transferFrom(msg.sender, treasury, treasuryAmount) */\n      mload(0x40)\n      shl(0xe0, 0x23b872dd)\n      dup2\n      mstore\n      sub(shl(0xa0, 0x01), 0x01)\n        /* \"Practical6-Apply-TTT-Token.sol\":6471:6479  TTTToken */\n      swap3\n      dup4\n      and\n      swap3\n        /* \"Practical6-Apply-TTT-Token.sol\":6471:6492  TTTToken.transferFrom */\n      0x23b872dd\n      swap3\n        /* \"Practical6-Apply-TTT-Token.sol\":6471:6530  TTTToken.transferFrom(msg.sender, treasury, treasuryAmount) */\n      tag_391\n      swap3\n        /* \"Practical6-Apply-TTT-Token.sol\":6493:6503  msg.sender */\n      caller\n      swap3\n        /* \"Practical6-Apply-TTT-Token.sol\":6505:6513  treasury */\n      swap1\n      swap2\n      and\n      swap1\n        /* \"Practical6-Apply-TTT-Token.sol\":6515:6529  treasuryAmount */\n      dup8\n      swap1\n        /* \"Practical6-Apply-TTT-Token.sol\":6471:6530  TTTToken.transferFrom(msg.sender, treasury, treasuryAmount) */\n      0x04\n      add\n      tag_130\n      jump\t// in\n    tag_391:\n      0x20\n      mload(0x40)\n      dup1\n      dup4\n      sub\n      dup2\n      0x00\n      dup8\n      gas\n      call\n      iszero\n      dup1\n      iszero\n      tag_393\n      jumpi\n      returndatasize\n      0x00\n      dup1\n      returndatacopy\n      revert(0x00, returndatasize)\n    tag_393:\n      pop\n      pop\n      pop\n      pop\n      mload(0x40)\n      returndatasize\n      not(0x1f)\n      0x1f\n      dup3\n      add\n      and\n      dup3\n      add\n      dup1\n      0x40\n      mstore\n      pop\n      dup2\n      add\n      swap1\n      tag_394\n      swap2\n      swap1\n      tag_134\n      jump\t// in\n    tag_394:\n      pop\n        /* \"Practical6-Apply-TTT-Token.sol\":6549:6557  TTTToken */\n      sload(0x00)\n        /* \"Practical6-Apply-TTT-Token.sol\":6549:6611  TTTToken.transferFrom(msg.sender, address(this), rewardAmount) */\n      mload(0x40)\n      shl(0xe0, 0x23b872dd)\n      dup2\n      mstore\n      sub(shl(0xa0, 0x01), 0x01)\n        /* \"Practical6-Apply-TTT-Token.sol\":6549:6557  TTTToken */\n      swap1\n      swap2\n      and\n      swap1\n        /* \"Practical6-Apply-TTT-Token.sol\":6549:6570  TTTToken.transferFrom */\n      0x23b872dd\n      swap1\n        /* \"Practical6-Apply-TTT-Token.sol\":6549:6611  TTTToken.transferFrom(msg.sender, address(this), rewardAmount) */\n      tag_395\n      swap1\n        /* \"Practical6-Apply-TTT-Token.sol\":6571:6581  msg.sender */\n      caller\n      swap1\n        /* \"Practical6-Apply-TTT-Token.sol\":6591:6595  this */\n      address\n      swap1\n        /* \"Practical6-Apply-TTT-Token.sol\":6598:6610  rewardAmount */\n      dup7\n      swap1\n        /* \"Practical6-Apply-TTT-Token.sol\":6549:6611  TTTToken.transferFrom(msg.sender, address(this), rewardAmount) */\n      0x04\n      add\n      tag_130\n      jump\t// in\n    tag_395:\n      0x20\n      mload(0x40)\n      dup1\n      dup4\n      sub\n      dup2\n      0x00\n      dup8\n      gas\n      call\n      iszero\n      dup1\n      iszero\n      tag_397\n      jumpi\n      returndatasize\n      0x00\n      dup1\n      returndatacopy\n      revert(0x00, returndatasize)\n    tag_397:\n      pop\n      pop\n      pop\n      pop\n      mload(0x40)\n      returndatasize\n      not(0x1f)\n      0x1f\n      dup3\n      add\n      and\n      dup3\n      add\n      dup1\n      0x40\n      mstore\n      pop\n      dup2\n      add\n      swap1\n      tag_398\n      swap2\n      swap1\n      tag_134\n      jump\t// in\n    tag_398:\n      pop\n        /* \"Practical6-Apply-TTT-Token.sol\":6647:6659  rewardAmount */\n      dup1\n        /* \"Practical6-Apply-TTT-Token.sol\":6632:6643  totalAmount */\n      0x05\n      0x00\n        /* \"Practical6-Apply-TTT-Token.sol\":6632:6659  totalAmount += rewardAmount */\n      dup3\n      dup3\n      sload\n      tag_399\n      swap2\n      swap1\n      tag_144\n      jump\t// in\n    tag_399:\n      swap1\n      swap2\n      sstore\n      pop\n      pop\n        /* \"Practical6-Apply-TTT-Token.sol\":6704:6719  gameInformation */\n      0x07\n        /* \"Practical6-Apply-TTT-Token.sol\":6704:6727  gameInformation[gameId] */\n      dup1\n      sload\n        /* \"Practical6-Apply-TTT-Token.sol\":6720:6726  gameId */\n      dup7\n      swap1\n        /* \"Practical6-Apply-TTT-Token.sol\":6704:6727  gameInformation[gameId] */\n      dup2\n      lt\n      tag_401\n      jumpi\n      tag_401\n      tag_157\n      jump\t// in\n    tag_401:\n      0x00\n      swap2\n      dup3\n      mstore\n      0x20\n      swap1\n      swap2\n      keccak256\n        /* \"Practical6-Apply-TTT-Token.sol\":6704:6743  gameInformation[gameId]._player1address */\n      0x04\n        /* \"Practical6-Apply-TTT-Token.sol\":6704:6727  gameInformation[gameId] */\n      0x0b\n      swap1\n      swap3\n      mul\n      add\n        /* \"Practical6-Apply-TTT-Token.sol\":6704:6743  gameInformation[gameId]._player1address */\n      add\n      sload\n      sub(shl(0xa0, 0x01), 0x01)\n      and\n        /* \"Practical6-Apply-TTT-Token.sol\":6689:6699  msg.sender */\n      caller\n        /* \"Practical6-Apply-TTT-Token.sol\":6689:6743  msg.sender !=  gameInformation[gameId]._player1address */\n      sub\n        /* \"Practical6-Apply-TTT-Token.sol\":6680:6785  require((msg.sender !=  gameInformation[gameId]._player1address), \"Error: You cannot play with yourself\") */\n      tag_403\n      jumpi\n      mload(0x40)\n      shl(0xe5, 0x461bcd)\n      dup2\n      mstore\n        /* \"#utility.yul\":21234:21236   */\n      0x20\n        /* \"Practical6-Apply-TTT-Token.sol\":6680:6785  require((msg.sender !=  gameInformation[gameId]._player1address), \"Error: You cannot play with yourself\") */\n      0x04\n      dup3\n      add\n        /* \"#utility.yul\":21216:21237   */\n      mstore\n        /* \"#utility.yul\":21273:21275   */\n      0x24\n        /* \"#utility.yul\":21253:21271   */\n      dup1\n      dup3\n      add\n        /* \"#utility.yul\":21246:21276   */\n      mstore\n        /* \"#utility.yul\":21312:21346   */\n      0x4572726f723a20596f752063616e6e6f7420706c6179207769746820796f7572\n        /* \"#utility.yul\":21292:21310   */\n      0x44\n      dup3\n      add\n        /* \"#utility.yul\":21285:21347   */\n      mstore\n      shl(0xe1, 0x39b2b633)\n        /* \"#utility.yul\":21363:21381   */\n      0x64\n      dup3\n      add\n        /* \"#utility.yul\":21356:21390   */\n      mstore\n        /* \"#utility.yul\":21407:21426   */\n      0x84\n      add\n        /* \"Practical6-Apply-TTT-Token.sol\":6680:6785  require((msg.sender !=  gameInformation[gameId]._player1address), \"Error: You cannot play with yourself\") */\n      tag_106\n        /* \"#utility.yul\":21032:21432   */\n      jump\n        /* \"Practical6-Apply-TTT-Token.sol\":6680:6785  require((msg.sender !=  gameInformation[gameId]._player1address), \"Error: You cannot play with yourself\") */\n    tag_403:\n        /* \"Practical6-Apply-TTT-Token.sol\":6846:6856  msg.sender */\n      caller\n        /* \"Practical6-Apply-TTT-Token.sol\":6804:6819  gameInformation */\n      0x07\n        /* \"Practical6-Apply-TTT-Token.sol\":6820:6826  gameId */\n      dup7\n        /* \"Practical6-Apply-TTT-Token.sol\":6804:6827  gameInformation[gameId] */\n      dup2\n      sload\n      dup2\n      lt\n      tag_407\n      jumpi\n      tag_407\n      tag_157\n      jump\t// in\n    tag_407:\n      swap1\n      0x00\n      mstore\n      keccak256(0x00, 0x20)\n      swap1\n      0x0b\n      mul\n      add\n        /* \"Practical6-Apply-TTT-Token.sol\":6804:6843  gameInformation[gameId]._player2address */\n      0x05\n      add\n      0x00\n        /* \"Practical6-Apply-TTT-Token.sol\":6804:6856  gameInformation[gameId]._player2address = msg.sender */\n      0x0100\n      exp\n      dup2\n      sload\n      dup2\n      sub(shl(0xa0, 0x01), 0x01)\n      mul\n      not\n      and\n      swap1\n      dup4\n      sub(shl(0xa0, 0x01), 0x01)\n      and\n      mul\n      or\n      swap1\n      sstore\n      pop\n        /* \"Practical6-Apply-TTT-Token.sol\":6914:6915  2 */\n      0x02\n        /* \"Practical6-Apply-TTT-Token.sol\":6875:6890  gameInformation */\n      0x07\n        /* \"Practical6-Apply-TTT-Token.sol\":6891:6897  gameId */\n      dup7\n        /* \"Practical6-Apply-TTT-Token.sol\":6875:6898  gameInformation[gameId] */\n      dup2\n      sload\n      dup2\n      lt\n      tag_410\n      jumpi\n      tag_410\n      tag_157\n      jump\t// in\n    tag_410:\n      swap1\n      0x00\n      mstore\n      keccak256(0x00, 0x20)\n      swap1\n      0x0b\n      mul\n      add\n        /* \"Practical6-Apply-TTT-Token.sol\":6875:6911  gameInformation[gameId]._playerCount */\n      0x06\n      add\n        /* \"Practical6-Apply-TTT-Token.sol\":6875:6915  gameInformation[gameId]._playerCount = 2 */\n      dup2\n      swap1\n      sstore\n      pop\n        /* \"Practical6-Apply-TTT-Token.sol\":6970:6974  true */\n      0x01\n        /* \"Practical6-Apply-TTT-Token.sol\":6934:6949  gameInformation */\n      0x07\n        /* \"Practical6-Apply-TTT-Token.sol\":6950:6956  gameId */\n      dup7\n        /* \"Practical6-Apply-TTT-Token.sol\":6934:6957  gameInformation[gameId] */\n      dup2\n      sload\n      dup2\n      lt\n      tag_413\n      jumpi\n      tag_413\n      tag_157\n      jump\t// in\n    tag_413:\n      swap1\n      0x00\n      mstore\n      keccak256(0x00, 0x20)\n      swap1\n      0x0b\n      mul\n      add\n        /* \"Practical6-Apply-TTT-Token.sol\":6934:6967  gameInformation[gameId]._activate */\n      0x00\n      add\n      0x00\n        /* \"Practical6-Apply-TTT-Token.sol\":6934:6974  gameInformation[gameId]._activate = true */\n      0x0100\n      exp\n      dup2\n      sload\n      dup2\n      0xff\n      mul\n      not\n      and\n      swap1\n      dup4\n      iszero\n      iszero\n      mul\n      or\n      swap1\n      sstore\n      pop\n        /* \"Practical6-Apply-TTT-Token.sol\":7031:7040  betAmount */\n      dup4\n        /* \"Practical6-Apply-TTT-Token.sol\":6993:7008  gameInformation */\n      0x07\n        /* \"Practical6-Apply-TTT-Token.sol\":7009:7015  gameId */\n      dup7\n        /* \"Practical6-Apply-TTT-Token.sol\":6993:7016  gameInformation[gameId] */\n      dup2\n      sload\n      dup2\n      lt\n      tag_416\n      jumpi\n      tag_416\n      tag_157\n      jump\t// in\n    tag_416:\n      swap1\n      0x00\n      mstore\n      keccak256(0x00, 0x20)\n      swap1\n      0x0b\n      mul\n      add\n        /* \"Practical6-Apply-TTT-Token.sol\":6993:7028  gameInformation[gameId]._player2Bet */\n      0x09\n      add\n        /* \"Practical6-Apply-TTT-Token.sol\":6993:7040  gameInformation[gameId]._player2Bet = betAmount */\n      dup2\n      swap1\n      sstore\n      pop\n        /* \"Practical6-Apply-TTT-Token.sol\":7175:7289  startGame(\"Start game!\", gameInformation[gameId]._player1address, gameInformation[gameId]._player2address, gameId) */\n      0x2f78808c539fd07cb45456a5d5561c76d3d4005246faccb297481e511abc321a\n        /* \"Practical6-Apply-TTT-Token.sol\":7200:7215  gameInformation */\n      0x07\n        /* \"Practical6-Apply-TTT-Token.sol\":7216:7222  gameId */\n      dup7\n        /* \"Practical6-Apply-TTT-Token.sol\":7200:7223  gameInformation[gameId] */\n      dup2\n      sload\n      dup2\n      lt\n      tag_419\n      jumpi\n      tag_419\n      tag_157\n      jump\t// in\n    tag_419:\n      swap1\n      0x00\n      mstore\n      keccak256(0x00, 0x20)\n      swap1\n      0x0b\n      mul\n      add\n        /* \"Practical6-Apply-TTT-Token.sol\":7200:7239  gameInformation[gameId]._player1address */\n      0x04\n      add\n      0x00\n      swap1\n      sload\n      swap1\n      0x0100\n      exp\n      swap1\n      div\n      sub(shl(0xa0, 0x01), 0x01)\n      and\n        /* \"Practical6-Apply-TTT-Token.sol\":7241:7256  gameInformation */\n      0x07\n        /* \"Practical6-Apply-TTT-Token.sol\":7257:7263  gameId */\n      dup8\n        /* \"Practical6-Apply-TTT-Token.sol\":7241:7264  gameInformation[gameId] */\n      dup2\n      sload\n      dup2\n      lt\n      tag_422\n      jumpi\n      tag_422\n      tag_157\n      jump\t// in\n    tag_422:\n      0x00\n      swap2\n      dup3\n      mstore\n      0x20\n      swap2\n      dup3\n      swap1\n      keccak256\n      0x0b\n      swap2\n      dup3\n      mul\n      add\n        /* \"Practical6-Apply-TTT-Token.sol\":7241:7280  gameInformation[gameId]._player2address */\n      0x05\n      add\n      sload\n        /* \"Practical6-Apply-TTT-Token.sol\":7175:7289  startGame(\"Start game!\", gameInformation[gameId]._player1address, gameInformation[gameId]._player2address, gameId) */\n      0x40\n      dup1\n      mload\n        /* \"#utility.yul\":21723:21726   */\n      0x80\n        /* \"#utility.yul\":21705:21727   */\n      dup1\n      dup3\n      mstore\n        /* \"#utility.yul\":21743:21762   */\n      dup2\n      add\n        /* \"#utility.yul\":21736:21767   */\n      swap4\n      swap1\n      swap4\n      mstore\n      shl(0xa8, 0x53746172742067616d6521)\n        /* \"#utility.yul\":21798:21801   */\n      0xa0\n        /* \"#utility.yul\":21783:21802   */\n      dup5\n      add\n        /* \"#utility.yul\":21776:21818   */\n      mstore\n      sub(shl(0xa0, 0x01), 0x01)\n        /* \"#utility.yul\":21930:21945   */\n      swap5\n      dup6\n      and\n        /* \"#utility.yul\":21908:21928   */\n      swap4\n      dup4\n      add\n        /* \"#utility.yul\":21901:21946   */\n      swap4\n      swap1\n      swap4\n      mstore\n        /* \"Practical6-Apply-TTT-Token.sol\":7241:7280  gameInformation[gameId]._player2address */\n      swap3\n      swap1\n      swap3\n      and\n        /* \"#utility.yul\":21962:21980   */\n      swap1\n      dup3\n      add\n        /* \"#utility.yul\":21955:21998   */\n      mstore\n      0x60\n        /* \"#utility.yul\":22014:22032   */\n      dup2\n      add\n        /* \"#utility.yul\":22007:22041   */\n      dup8\n      swap1\n      mstore\n        /* \"#utility.yul\":21850:21853   */\n      0xc0\n        /* \"#utility.yul\":21835:21854   */\n      add\n        /* \"Practical6-Apply-TTT-Token.sol\":7175:7289  startGame(\"Start game!\", gameInformation[gameId]._player1address, gameInformation[gameId]._player2address, gameId) */\n      mload(0x40)\n      dup1\n      swap2\n      sub\n      swap1\n      log1\n        /* \"Practical6-Apply-TTT-Token.sol\":5919:7307  {... */\n      pop\n      pop\n      pop\n        /* \"Practical6-Apply-TTT-Token.sol\":5874:7528  if(gameInformation[gameId]._playerCount == 1){... */\n      jump(tag_430)\n    tag_366:\n        /* \"Practical6-Apply-TTT-Token.sol\":7405:7420  gameInformation */\n      0x07\n        /* \"Practical6-Apply-TTT-Token.sol\":7421:7427  gameId */\n      dup3\n        /* \"Practical6-Apply-TTT-Token.sol\":7405:7428  gameInformation[gameId] */\n      dup2\n      sload\n      dup2\n      lt\n      tag_428\n      jumpi\n      tag_428\n      tag_157\n      jump\t// in\n    tag_428:\n      swap1\n      0x00\n      mstore\n      keccak256(0x00, 0x20)\n      swap1\n      0x0b\n      mul\n      add\n        /* \"Practical6-Apply-TTT-Token.sol\":7405:7441  gameInformation[gameId]._playerCount */\n      0x06\n      add\n      sload\n        /* \"Practical6-Apply-TTT-Token.sol\":7445:7446  2 */\n      0x02\n        /* \"Practical6-Apply-TTT-Token.sol\":7405:7446  gameInformation[gameId]._playerCount == 2 */\n      eq\n        /* \"Practical6-Apply-TTT-Token.sol\":7397:7512  require(gameInformation[gameId]._playerCount == 2,\"Now queue is full, try later. Game already full pls join other\") */\n      tag_430\n      jumpi\n      mload(0x40)\n      shl(0xe5, 0x461bcd)\n      dup2\n      mstore\n        /* \"#utility.yul\":22254:22256   */\n      0x20\n        /* \"Practical6-Apply-TTT-Token.sol\":7397:7512  require(gameInformation[gameId]._playerCount == 2,\"Now queue is full, try later. Game already full pls join other\") */\n      0x04\n      dup3\n      add\n        /* \"#utility.yul\":22236:22257   */\n      mstore\n        /* \"#utility.yul\":22293:22295   */\n      0x3e\n        /* \"#utility.yul\":22273:22291   */\n      0x24\n      dup3\n      add\n        /* \"#utility.yul\":22266:22296   */\n      mstore\n        /* \"#utility.yul\":22332:22366   */\n      0x4e6f772071756575652069732066756c6c2c20747279206c617465722e204761\n        /* \"#utility.yul\":22312:22330   */\n      0x44\n      dup3\n      add\n        /* \"#utility.yul\":22305:22367   */\n      mstore\n        /* \"#utility.yul\":22403:22435   */\n      0x6d6520616c72656164792066756c6c20706c73206a6f696e206f746865720000\n        /* \"#utility.yul\":22383:22401   */\n      0x64\n      dup3\n      add\n        /* \"#utility.yul\":22376:22436   */\n      mstore\n        /* \"#utility.yul\":22453:22472   */\n      0x84\n      add\n        /* \"Practical6-Apply-TTT-Token.sol\":7397:7512  require(gameInformation[gameId]._playerCount == 2,\"Now queue is full, try later. Game already full pls join other\") */\n      tag_106\n        /* \"#utility.yul\":22052:22478   */\n      jump\n        /* \"Practical6-Apply-TTT-Token.sol\":7397:7512  require(gameInformation[gameId]._playerCount == 2,\"Now queue is full, try later. Game already full pls join other\") */\n    tag_430:\n        /* \"Practical6-Apply-TTT-Token.sol\":7592:7633  joinRoom(gameInformation[gameId], gameId) */\n      0x50370b40bd566613cb1b12508c3114409e62c5c8de11be443cafc84462cf5699\n        /* \"Practical6-Apply-TTT-Token.sol\":7601:7616  gameInformation */\n      0x07\n        /* \"Practical6-Apply-TTT-Token.sol\":7617:7623  gameId */\n      dup4\n        /* \"Practical6-Apply-TTT-Token.sol\":7601:7624  gameInformation[gameId] */\n      dup2\n      sload\n      dup2\n      lt\n      tag_434\n      jumpi\n      tag_434\n      tag_157\n      jump\t// in\n    tag_434:\n      swap1\n      0x00\n      mstore\n      keccak256(0x00, 0x20)\n      swap1\n      0x0b\n      mul\n      add\n        /* \"Practical6-Apply-TTT-Token.sol\":7626:7632  gameId */\n      dup4\n        /* \"Practical6-Apply-TTT-Token.sol\":7592:7633  joinRoom(gameInformation[gameId], gameId) */\n      mload(0x40)\n      tag_436\n      swap3\n      swap2\n      swap1\n      tag_437\n      jump\t// in\n    tag_436:\n      mload(0x40)\n      dup1\n      swap2\n      sub\n      swap1\n      log1\n      pop\n      pop\n        /* \"Practical6-Apply-TTT-Token.sol\":3456:3462  locked */\n      0x06\n        /* \"Practical6-Apply-TTT-Token.sol\":3456:3470  locked = false */\n      dup1\n      sload\n      not(shl(0xa0, 0xff))\n      and\n      swap1\n      sstore\n        /* \"Practical6-Apply-TTT-Token.sol\":5711:7645  function joinGame (uint gameId, uint256 betAmount) external noReentrancy {... */\n      jump\t// out\n        /* \"Practical6-Apply-TTT-Token.sol\":2307:2675  function faucetToken() external {... */\n    tag_81:\n        /* \"Practical6-Apply-TTT-Token.sol\":2362:2370  TTTToken */\n      sload(0x00)\n        /* \"Practical6-Apply-TTT-Token.sol\":2362:2395  TTTToken.balanceOf(address(this)) */\n      mload(0x40)\n      shl(0xe0, 0x70a08231)\n      dup2\n      mstore\n        /* \"Practical6-Apply-TTT-Token.sol\":2389:2393  this */\n      address\n        /* \"Practical6-Apply-TTT-Token.sol\":2362:2395  TTTToken.balanceOf(address(this)) */\n      0x04\n      dup3\n      add\n        /* \"#utility.yul\":5328:5379   */\n      mstore\n        /* \"Practical6-Apply-TTT-Token.sol\":2398:2401  100 */\n      0x64\n      swap2\n      sub(shl(0xa0, 0x01), 0x01)\n        /* \"Practical6-Apply-TTT-Token.sol\":2362:2370  TTTToken */\n      and\n      swap1\n        /* \"Practical6-Apply-TTT-Token.sol\":2362:2380  TTTToken.balanceOf */\n      0x70a08231\n      swap1\n        /* \"#utility.yul\":5301:5319   */\n      0x24\n      add\n        /* \"Practical6-Apply-TTT-Token.sol\":2362:2395  TTTToken.balanceOf(address(this)) */\n      0x20\n      mload(0x40)\n      dup1\n      dup4\n      sub\n      dup2\n      dup7\n      gas\n      staticcall\n      iszero\n      dup1\n      iszero\n      tag_441\n      jumpi\n      returndatasize\n      0x00\n      dup1\n      returndatacopy\n      revert(0x00, returndatasize)\n    tag_441:\n      pop\n      pop\n      pop\n      pop\n      mload(0x40)\n      returndatasize\n      not(0x1f)\n      0x1f\n      dup3\n      add\n      and\n      dup3\n      add\n      dup1\n      0x40\n      mstore\n      pop\n      dup2\n      add\n      swap1\n      tag_442\n      swap2\n      swap1\n      tag_113\n      jump\t// in\n    tag_442:\n        /* \"Practical6-Apply-TTT-Token.sol\":2362:2401  TTTToken.balanceOf(address(this)) > 100 */\n      gt\n        /* \"Practical6-Apply-TTT-Token.sol\":2354:2451  require(TTTToken.balanceOf(address(this)) > 100, \"The contract does not have tokens to provide.\") */\n      tag_443\n      jumpi\n      mload(0x40)\n      shl(0xe5, 0x461bcd)\n      dup2\n      mstore\n        /* \"#utility.yul\":25032:25034   */\n      0x20\n        /* \"Practical6-Apply-TTT-Token.sol\":2354:2451  require(TTTToken.balanceOf(address(this)) > 100, \"The contract does not have tokens to provide.\") */\n      0x04\n      dup3\n      add\n        /* \"#utility.yul\":25014:25035   */\n      mstore\n        /* \"#utility.yul\":25071:25073   */\n      0x2d\n        /* \"#utility.yul\":25051:25069   */\n      0x24\n      dup3\n      add\n        /* \"#utility.yul\":25044:25074   */\n      mstore\n        /* \"#utility.yul\":25110:25144   */\n      0x54686520636f6e747261637420646f6573206e6f74206861766520746f6b656e\n        /* \"#utility.yul\":25090:25108   */\n      0x44\n      dup3\n      add\n        /* \"#utility.yul\":25083:25145   */\n      mstore\n      shl(0x99, 0x39903a3790383937bb34b23297)\n        /* \"#utility.yul\":25161:25179   */\n      0x64\n      dup3\n      add\n        /* \"#utility.yul\":25154:25197   */\n      mstore\n        /* \"#utility.yul\":25214:25233   */\n      0x84\n      add\n        /* \"Practical6-Apply-TTT-Token.sol\":2354:2451  require(TTTToken.balanceOf(address(this)) > 100, \"The contract does not have tokens to provide.\") */\n      tag_106\n        /* \"#utility.yul\":24830:25239   */\n      jump\n        /* \"Practical6-Apply-TTT-Token.sol\":2354:2451  require(TTTToken.balanceOf(address(this)) > 100, \"The contract does not have tokens to provide.\") */\n    tag_443:\n        /* \"Practical6-Apply-TTT-Token.sol\":2474:2482  TTTToken */\n      sload(0x00)\n        /* \"Practical6-Apply-TTT-Token.sol\":2474:2504  TTTToken.balanceOf(msg.sender) */\n      mload(0x40)\n      shl(0xe0, 0x70a08231)\n      dup2\n      mstore\n        /* \"Practical6-Apply-TTT-Token.sol\":2493:2503  msg.sender */\n      caller\n        /* \"Practical6-Apply-TTT-Token.sol\":2474:2504  TTTToken.balanceOf(msg.sender) */\n      0x04\n      dup3\n      add\n        /* \"#utility.yul\":5328:5379   */\n      mstore\n        /* \"Practical6-Apply-TTT-Token.sol\":2507:2509  10 */\n      0x0a\n      swap2\n      sub(shl(0xa0, 0x01), 0x01)\n        /* \"Practical6-Apply-TTT-Token.sol\":2474:2482  TTTToken */\n      and\n      swap1\n        /* \"Practical6-Apply-TTT-Token.sol\":2474:2492  TTTToken.balanceOf */\n      0x70a08231\n      swap1\n        /* \"#utility.yul\":5301:5319   */\n      0x24\n      add\n        /* \"Practical6-Apply-TTT-Token.sol\":2474:2504  TTTToken.balanceOf(msg.sender) */\n      0x20\n      mload(0x40)\n      dup1\n      dup4\n      sub\n      dup2\n      dup7\n      gas\n      staticcall\n      iszero\n      dup1\n      iszero\n      tag_448\n      jumpi\n      returndatasize\n      0x00\n      dup1\n      returndatacopy\n      revert(0x00, returndatasize)\n    tag_448:\n      pop\n      pop\n      pop\n      pop\n      mload(0x40)\n      returndatasize\n      not(0x1f)\n      0x1f\n      dup3\n      add\n      and\n      dup3\n      add\n      dup1\n      0x40\n      mstore\n      pop\n      dup2\n      add\n      swap1\n      tag_449\n      swap2\n      swap1\n      tag_113\n      jump\t// in\n    tag_449:\n        /* \"Practical6-Apply-TTT-Token.sol\":2474:2509  TTTToken.balanceOf(msg.sender) < 10 */\n      lt\n        /* \"Practical6-Apply-TTT-Token.sol\":2466:2540  require(TTTToken.balanceOf(msg.sender) < 10, \"You still got enough token\") */\n      tag_450\n      jumpi\n      mload(0x40)\n      shl(0xe5, 0x461bcd)\n      dup2\n      mstore\n        /* \"#utility.yul\":25446:25448   */\n      0x20\n        /* \"Practical6-Apply-TTT-Token.sol\":2466:2540  require(TTTToken.balanceOf(msg.sender) < 10, \"You still got enough token\") */\n      0x04\n      dup3\n      add\n        /* \"#utility.yul\":25428:25449   */\n      mstore\n        /* \"#utility.yul\":25485:25487   */\n      0x1a\n        /* \"#utility.yul\":25465:25483   */\n      0x24\n      dup3\n      add\n        /* \"#utility.yul\":25458:25488   */\n      mstore\n        /* \"#utility.yul\":25524:25552   */\n      0x596f75207374696c6c20676f7420656e6f75676820746f6b656e000000000000\n        /* \"#utility.yul\":25504:25522   */\n      0x44\n      dup3\n      add\n        /* \"#utility.yul\":25497:25553   */\n      mstore\n        /* \"#utility.yul\":25570:25588   */\n      0x64\n      add\n        /* \"Practical6-Apply-TTT-Token.sol\":2466:2540  require(TTTToken.balanceOf(msg.sender) < 10, \"You still got enough token\") */\n      tag_106\n        /* \"#utility.yul\":25244:25594   */\n      jump\n        /* \"Practical6-Apply-TTT-Token.sol\":2466:2540  require(TTTToken.balanceOf(msg.sender) < 10, \"You still got enough token\") */\n    tag_450:\n        /* \"Practical6-Apply-TTT-Token.sol\":2555:2570  bool successful */\n      0x00\n        /* \"Practical6-Apply-TTT-Token.sol\":2573:2581  TTTToken */\n      dup1\n      sload\n        /* \"Practical6-Apply-TTT-Token.sol\":2573:2613  TTTToken.transfer(msg.sender, 100 ether) */\n      mload(0x40)\n      shl(0xe0, 0xa9059cbb)\n      dup2\n      mstore\n        /* \"Practical6-Apply-TTT-Token.sol\":2591:2601  msg.sender */\n      caller\n        /* \"Practical6-Apply-TTT-Token.sol\":2573:2613  TTTToken.transfer(msg.sender, 100 ether) */\n      0x04\n      dup3\n      add\n        /* \"#utility.yul\":20927:20978   */\n      mstore\n        /* \"Practical6-Apply-TTT-Token.sol\":2603:2612  100 ether */\n      0x056bc75e2d63100000\n        /* \"#utility.yul\":20994:21012   */\n      0x24\n      dup3\n      add\n        /* \"#utility.yul\":20987:21021   */\n      mstore\n      sub(shl(0xa0, 0x01), 0x01)\n        /* \"Practical6-Apply-TTT-Token.sol\":2573:2581  TTTToken */\n      swap1\n      swap2\n      and\n      swap1\n        /* \"Practical6-Apply-TTT-Token.sol\":2573:2590  TTTToken.transfer */\n      0xa9059cbb\n      swap1\n        /* \"#utility.yul\":20900:20918   */\n      0x44\n      add\n        /* \"Practical6-Apply-TTT-Token.sol\":2573:2613  TTTToken.transfer(msg.sender, 100 ether) */\n      0x20\n      mload(0x40)\n      dup1\n      dup4\n      sub\n      dup2\n      0x00\n      dup8\n      gas\n      call\n      iszero\n      dup1\n      iszero\n      tag_456\n      jumpi\n      returndatasize\n      0x00\n      dup1\n      returndatacopy\n      revert(0x00, returndatasize)\n    tag_456:\n      pop\n      pop\n      pop\n      pop\n      mload(0x40)\n      returndatasize\n      not(0x1f)\n      0x1f\n      dup3\n      add\n      and\n      dup3\n      add\n      dup1\n      0x40\n      mstore\n      pop\n      dup2\n      add\n      swap1\n      tag_457\n      swap2\n      swap1\n      tag_134\n      jump\t// in\n    tag_457:\n        /* \"Practical6-Apply-TTT-Token.sol\":2633:2663  faucet(msg.sender, successful) */\n      0x40\n      dup1\n      mload\n        /* \"Practical6-Apply-TTT-Token.sol\":2640:2650  msg.sender */\n      caller\n        /* \"#utility.yul\":26074:26125   */\n      dup2\n      mstore\n        /* \"#utility.yul\":26168:26182   */\n      dup3\n      iszero\n        /* \"#utility.yul\":26161:26183   */\n      iszero\n        /* \"#utility.yul\":26156:26158   */\n      0x20\n        /* \"#utility.yul\":26141:26159   */\n      dup3\n      add\n        /* \"#utility.yul\":26134:26184   */\n      mstore\n        /* \"Practical6-Apply-TTT-Token.sol\":2555:2613  bool successful = TTTToken.transfer(msg.sender, 100 ether) */\n      swap2\n      swap3\n      pop\n        /* \"Practical6-Apply-TTT-Token.sol\":2633:2663  faucet(msg.sender, successful) */\n      0x1d67794760bb3ea2174b2ccc7b8aa2d786ef61a72e7be363dab04929e3510b1c\n      swap2\n        /* \"#utility.yul\":26047:26065   */\n      add\n        /* \"Practical6-Apply-TTT-Token.sol\":2633:2663  faucet(msg.sender, successful) */\n      tag_245\n        /* \"#utility.yul\":25906:26190   */\n      jump\n        /* \"Practical6-Apply-TTT-Token.sol\":13177:13436  function compareStrings(string memory a, string memory b) public pure returns (bool) {... */\n    tag_85:\n        /* \"Practical6-Apply-TTT-Token.sol\":13256:13260  bool */\n      0x00\n        /* \"Practical6-Apply-TTT-Token.sol\":13421:13422  b */\n      dup2\n        /* \"Practical6-Apply-TTT-Token.sol\":13404:13423  abi.encodePacked(b) */\n      add(0x20, mload(0x40))\n      tag_461\n      swap2\n      swap1\n      tag_462\n      jump\t// in\n    tag_461:\n      mload(0x40)\n      0x20\n      dup2\n      dup4\n      sub\n      sub\n      dup2\n      mstore\n      swap1\n      0x40\n      mstore\n        /* \"Practical6-Apply-TTT-Token.sol\":13394:13424  keccak256(abi.encodePacked(b)) */\n      dup1\n      mload\n      swap1\n      0x20\n      add\n      keccak256\n        /* \"Practical6-Apply-TTT-Token.sol\":13387:13388  a */\n      dup4\n        /* \"Practical6-Apply-TTT-Token.sol\":13370:13389  abi.encodePacked(a) */\n      add(0x20, mload(0x40))\n      tag_463\n      swap2\n      swap1\n      tag_462\n      jump\t// in\n    tag_463:\n      mload(0x40)\n      0x20\n      dup2\n      dup4\n      sub\n      sub\n      dup2\n      mstore\n      swap1\n      0x40\n      mstore\n        /* \"Practical6-Apply-TTT-Token.sol\":13360:13390  keccak256(abi.encodePacked(a)) */\n      dup1\n      mload\n      swap1\n      0x20\n      add\n      keccak256\n        /* \"Practical6-Apply-TTT-Token.sol\":13360:13424  keccak256(abi.encodePacked(a)) == keccak256(abi.encodePacked(b)) */\n      eq\n        /* \"Practical6-Apply-TTT-Token.sol\":13353:13424  return keccak256(abi.encodePacked(a)) == keccak256(abi.encodePacked(b)) */\n      swap1\n      pop\n        /* \"Practical6-Apply-TTT-Token.sol\":13177:13436  function compareStrings(string memory a, string memory b) public pure returns (bool) {... */\n    tag_460:\n      swap3\n      swap2\n      pop\n      pop\n      jump\t// out\n        /* \"Practical6-Apply-TTT-Token.sol\":3532:3670  function getoption (uint gameId) external view returns (string[] memory){... */\n    tag_93:\n        /* \"Practical6-Apply-TTT-Token.sol\":3588:3603  string[] memory */\n      0x60\n        /* \"Practical6-Apply-TTT-Token.sol\":3626:3641  gameInformation */\n      0x07\n        /* \"Practical6-Apply-TTT-Token.sol\":3642:3648  gameId */\n      dup3\n        /* \"Practical6-Apply-TTT-Token.sol\":3626:3649  gameInformation[gameId] */\n      dup2\n      sload\n      dup2\n      lt\n      tag_466\n      jumpi\n      tag_466\n      tag_157\n      jump\t// in\n    tag_466:\n      swap1\n      0x00\n      mstore\n      keccak256(0x00, 0x20)\n      swap1\n      0x0b\n      mul\n      add\n        /* \"Practical6-Apply-TTT-Token.sol\":3626:3658  gameInformation[gameId]._options */\n      0x02\n      add\n        /* \"Practical6-Apply-TTT-Token.sol\":3619:3658  return gameInformation[gameId]._options */\n      dup1\n      sload\n      dup1\n      0x20\n      mul\n      0x20\n      add\n      mload(0x40)\n      swap1\n      dup2\n      add\n      0x40\n      mstore\n      dup1\n      swap3\n      swap2\n      swap1\n      dup2\n      dup2\n      mstore\n      0x20\n      add\n      0x00\n      swap1\n    tag_468:\n      dup3\n      dup3\n      lt\n      iszero\n      tag_469\n      jumpi\n      dup4\n      dup3\n      swap1\n      0x00\n      mstore\n      keccak256(0x00, 0x20)\n      add\n      dup1\n      sload\n      tag_471\n      swap1\n      tag_217\n      jump\t// in\n    tag_471:\n      dup1\n      0x1f\n      add\n      0x20\n      dup1\n      swap2\n      div\n      mul\n      0x20\n      add\n      mload(0x40)\n      swap1\n      dup2\n      add\n      0x40\n      mstore\n      dup1\n      swap3\n      swap2\n      swap1\n      dup2\n      dup2\n      mstore\n      0x20\n      add\n      dup3\n      dup1\n      sload\n      tag_472\n      swap1\n      tag_217\n      jump\t// in\n    tag_472:\n      dup1\n      iszero\n      tag_473\n      jumpi\n      dup1\n      0x1f\n      lt\n      tag_474\n      jumpi\n      0x0100\n      dup1\n      dup4\n      sload\n      div\n      mul\n      dup4\n      mstore\n      swap2\n      0x20\n      add\n      swap2\n      jump(tag_473)\n    tag_474:\n      dup3\n      add\n      swap2\n      swap1\n      0x00\n      mstore\n      keccak256(0x00, 0x20)\n      swap1\n    tag_475:\n      dup2\n      sload\n      dup2\n      mstore\n      swap1\n      0x01\n      add\n      swap1\n      0x20\n      add\n      dup1\n      dup4\n      gt\n      tag_475\n      jumpi\n      dup3\n      swap1\n      sub\n      0x1f\n      and\n      dup3\n      add\n      swap2\n    tag_473:\n      pop\n      pop\n      pop\n      pop\n      pop\n      dup2\n      mstore\n      0x20\n      add\n      swap1\n      0x01\n      add\n      swap1\n      jump(tag_468)\n    tag_469:\n      pop\n      pop\n      pop\n      pop\n      swap1\n      pop\n        /* \"Practical6-Apply-TTT-Token.sol\":3532:3670  function getoption (uint gameId) external view returns (string[] memory){... */\n      swap2\n      swap1\n      pop\n      jump\t// out\n        /* \"Practical6-Apply-TTT-Token.sol\":2721:2848  function getAllMoney() external onlyOwner{... */\n    tag_97:\n        /* \"Practical6-Apply-TTT-Token.sol\":3229:3234  owner */\n      and(sub(shl(0xa0, 0x01), 0x01), sload(0x06))\n        /* \"Practical6-Apply-TTT-Token.sol\":3215:3225  msg.sender */\n      caller\n        /* \"Practical6-Apply-TTT-Token.sol\":3215:3234  msg.sender == owner */\n      eq\n        /* \"Practical6-Apply-TTT-Token.sol\":3207:3252  require(msg.sender == owner, \"Not the owner\") */\n      tag_477\n      jumpi\n      mload(0x40)\n      shl(0xe5, 0x461bcd)\n      dup2\n      mstore\n        /* \"#utility.yul\":20262:20264   */\n      0x20\n        /* \"Practical6-Apply-TTT-Token.sol\":3207:3252  require(msg.sender == owner, \"Not the owner\") */\n      0x04\n      dup3\n      add\n        /* \"#utility.yul\":20244:20265   */\n      mstore\n        /* \"#utility.yul\":20301:20303   */\n      0x0d\n        /* \"#utility.yul\":20281:20299   */\n      0x24\n      dup3\n      add\n        /* \"#utility.yul\":20274:20304   */\n      mstore\n      shl(0x99, 0x2737ba103a34329037bbb732b9)\n        /* \"#utility.yul\":20320:20338   */\n      0x44\n      dup3\n      add\n        /* \"#utility.yul\":20313:20356   */\n      mstore\n        /* \"#utility.yul\":20373:20391   */\n      0x64\n      add\n        /* \"Practical6-Apply-TTT-Token.sol\":3207:3252  require(msg.sender == owner, \"Not the owner\") */\n      tag_106\n        /* \"#utility.yul\":20060:20397   */\n      jump\n        /* \"Practical6-Apply-TTT-Token.sol\":3207:3252  require(msg.sender == owner, \"Not the owner\") */\n    tag_477:\n        /* \"Practical6-Apply-TTT-Token.sol\":2777:2785  TTTToken */\n      sload(0x00)\n        /* \"Practical6-Apply-TTT-Token.sol\":2795:2800  owner */\n      sload(0x06)\n        /* \"Practical6-Apply-TTT-Token.sol\":2802:2835  TTTToken.balanceOf(address(this)) */\n      mload(0x40)\n      shl(0xe0, 0x70a08231)\n      dup2\n      mstore\n        /* \"Practical6-Apply-TTT-Token.sol\":2829:2833  this */\n      address\n        /* \"Practical6-Apply-TTT-Token.sol\":2802:2835  TTTToken.balanceOf(address(this)) */\n      0x04\n      dup3\n      add\n        /* \"#utility.yul\":5328:5379   */\n      mstore\n      sub(shl(0xa0, 0x01), 0x01)\n        /* \"Practical6-Apply-TTT-Token.sol\":2777:2785  TTTToken */\n      swap3\n      dup4\n      and\n      swap3\n        /* \"Practical6-Apply-TTT-Token.sol\":2777:2794  TTTToken.transfer */\n      0xa9059cbb\n      swap3\n        /* \"Practical6-Apply-TTT-Token.sol\":2795:2800  owner */\n      and\n      swap1\n        /* \"Practical6-Apply-TTT-Token.sol\":2777:2785  TTTToken */\n      dup4\n      swap1\n        /* \"Practical6-Apply-TTT-Token.sol\":2802:2820  TTTToken.balanceOf */\n      0x70a08231\n      swap1\n        /* \"#utility.yul\":5301:5319   */\n      0x24\n      add\n        /* \"Practical6-Apply-TTT-Token.sol\":2802:2835  TTTToken.balanceOf(address(this)) */\n      0x20\n      mload(0x40)\n      dup1\n      dup4\n      sub\n      dup2\n      dup7\n      gas\n      staticcall\n      iszero\n      dup1\n      iszero\n      tag_482\n      jumpi\n      returndatasize\n      0x00\n      dup1\n      returndatacopy\n      revert(0x00, returndatasize)\n    tag_482:\n      pop\n      pop\n      pop\n      pop\n      mload(0x40)\n      returndatasize\n      not(0x1f)\n      0x1f\n      dup3\n      add\n      and\n      dup3\n      add\n      dup1\n      0x40\n      mstore\n      pop\n      dup2\n      add\n      swap1\n      tag_333\n      swap2\n      swap1\n      tag_113\n      jump\t// in\n        /* \"Practical6-Apply-TTT-Token.sol\":13872:14096  function checkAddress (uint gameId) private view returns (bool) {... */\n    tag_201:\n        /* \"Practical6-Apply-TTT-Token.sol\":13930:13934  bool */\n      0x00\n        /* \"Practical6-Apply-TTT-Token.sol\":13972:13987  gameInformation */\n      0x07\n        /* \"Practical6-Apply-TTT-Token.sol\":13988:13994  gameId */\n      dup3\n        /* \"Practical6-Apply-TTT-Token.sol\":13972:13995  gameInformation[gameId] */\n      dup2\n      sload\n      dup2\n      lt\n      tag_490\n      jumpi\n      tag_490\n      tag_157\n      jump\t// in\n    tag_490:\n      0x00\n      swap2\n      dup3\n      mstore\n      0x20\n      swap1\n      swap2\n      keccak256\n      0x0b\n      swap1\n      swap2\n      mul\n      add\n        /* \"Practical6-Apply-TTT-Token.sol\":13972:14011  gameInformation[gameId]._player1address */\n      0x04\n      add\n      sload\n      sub(shl(0xa0, 0x01), 0x01)\n      and\n        /* \"Practical6-Apply-TTT-Token.sol\":13958:13968  msg.sender */\n      caller\n        /* \"Practical6-Apply-TTT-Token.sol\":13958:14011  msg.sender == gameInformation[gameId]._player1address */\n      eq\n      dup1\n        /* \"Practical6-Apply-TTT-Token.sol\":13958:14068  msg.sender == gameInformation[gameId]._player1address || msg.sender == gameInformation[gameId]._player2address */\n      tag_492\n      jumpi\n      pop\n        /* \"Practical6-Apply-TTT-Token.sol\":14029:14044  gameInformation */\n      0x07\n        /* \"Practical6-Apply-TTT-Token.sol\":14045:14051  gameId */\n      dup3\n        /* \"Practical6-Apply-TTT-Token.sol\":14029:14052  gameInformation[gameId] */\n      dup2\n      sload\n      dup2\n      lt\n      tag_494\n      jumpi\n      tag_494\n      tag_157\n      jump\t// in\n    tag_494:\n      0x00\n      swap2\n      dup3\n      mstore\n      0x20\n      swap1\n      swap2\n      keccak256\n      0x0b\n      swap1\n      swap2\n      mul\n      add\n        /* \"Practical6-Apply-TTT-Token.sol\":14029:14068  gameInformation[gameId]._player2address */\n      0x05\n      add\n      sload\n      sub(shl(0xa0, 0x01), 0x01)\n      and\n        /* \"Practical6-Apply-TTT-Token.sol\":14015:14025  msg.sender */\n      caller\n        /* \"Practical6-Apply-TTT-Token.sol\":14015:14068  msg.sender == gameInformation[gameId]._player2address */\n      eq\n        /* \"Practical6-Apply-TTT-Token.sol\":13958:14068  msg.sender == gameInformation[gameId]._player1address || msg.sender == gameInformation[gameId]._player2address */\n    tag_492:\n        /* \"Practical6-Apply-TTT-Token.sol\":13958:14083  msg.sender == gameInformation[gameId]._player1address || msg.sender == gameInformation[gameId]._player2address ? true : false */\n      tag_496\n      jumpi\n        /* \"Practical6-Apply-TTT-Token.sol\":14078:14083  false */\n      0x00\n        /* \"Practical6-Apply-TTT-Token.sol\":13958:14083  msg.sender == gameInformation[gameId]._player1address || msg.sender == gameInformation[gameId]._player2address ? true : false */\n      jump(tag_460)\n    tag_496:\n        /* \"Practical6-Apply-TTT-Token.sol\":14071:14075  true */\n      0x01\n        /* \"Practical6-Apply-TTT-Token.sol\":13951:14083  return msg.sender == gameInformation[gameId]._player1address || msg.sender == gameInformation[gameId]._player2address ? true : false */\n      swap3\n        /* \"Practical6-Apply-TTT-Token.sol\":13872:14096  function checkAddress (uint gameId) private view returns (bool) {... */\n      swap2\n      pop\n      pop\n      jump\t// out\n        /* \"Practical6-Apply-TTT-Token.sol\":8860:11843  function checkWinner (uint gameId) private {... */\n    tag_308:\n        /* \"Practical6-Apply-TTT-Token.sol\":8918:8930  bool userWon */\n      0x00\n        /* \"Practical6-Apply-TTT-Token.sol\":9064:9070  uint i */\n      dup1\n        /* \"Practical6-Apply-TTT-Token.sol\":9060:10543  for(uint i = 0 ; i < winConditionSet.length; i++){... */\n    tag_499:\n        /* \"Practical6-Apply-TTT-Token.sol\":9081:9096  winConditionSet */\n      0x08\n        /* \"Practical6-Apply-TTT-Token.sol\":9081:9103  winConditionSet.length */\n      sload\n        /* \"Practical6-Apply-TTT-Token.sol\":9077:9103  i < winConditionSet.length */\n      dup2\n      lt\n        /* \"Practical6-Apply-TTT-Token.sol\":9060:10543  for(uint i = 0 ; i < winConditionSet.length; i++){... */\n      iszero\n      tag_500\n      jumpi\n        /* \"Practical6-Apply-TTT-Token.sol\":9128:9154  uint[] memory winCondition */\n      0x00\n        /* \"Practical6-Apply-TTT-Token.sol\":9157:9172  winConditionSet */\n      0x08\n        /* \"Practical6-Apply-TTT-Token.sol\":9173:9174  i */\n      dup3\n        /* \"Practical6-Apply-TTT-Token.sol\":9157:9175  winConditionSet[i] */\n      dup2\n      sload\n      dup2\n      lt\n      tag_503\n      jumpi\n      tag_503\n      tag_157\n      jump\t// in\n    tag_503:\n      swap1\n      0x00\n      mstore\n      keccak256(0x00, 0x20)\n      add\n        /* \"Practical6-Apply-TTT-Token.sol\":9128:9175  uint[] memory winCondition = winConditionSet[i] */\n      dup1\n      sload\n      dup1\n      0x20\n      mul\n      0x20\n      add\n      mload(0x40)\n      swap1\n      dup2\n      add\n      0x40\n      mstore\n      dup1\n      swap3\n      swap2\n      swap1\n      dup2\n      dup2\n      mstore\n      0x20\n      add\n      dup3\n      dup1\n      sload\n      dup1\n      iszero\n      tag_505\n      jumpi\n      0x20\n      mul\n      dup3\n      add\n      swap2\n      swap1\n      0x00\n      mstore\n      keccak256(0x00, 0x20)\n      swap1\n    tag_506:\n      dup2\n      sload\n      dup2\n      mstore\n      0x20\n      add\n      swap1\n      0x01\n      add\n      swap1\n      dup1\n      dup4\n      gt\n      tag_506\n      jumpi\n    tag_505:\n      pop\n      pop\n      pop\n      pop\n      pop\n      swap1\n      pop\n        /* \"Practical6-Apply-TTT-Token.sol\":9257:9278  string memory resultA */\n      0x00\n        /* \"Practical6-Apply-TTT-Token.sol\":9280:9295  gameInformation */\n      0x07\n        /* \"Practical6-Apply-TTT-Token.sol\":9296:9302  gameId */\n      dup6\n        /* \"Practical6-Apply-TTT-Token.sol\":9280:9303  gameInformation[gameId] */\n      dup2\n      sload\n      dup2\n      lt\n      tag_508\n      jumpi\n      tag_508\n      tag_157\n      jump\t// in\n    tag_508:\n      swap1\n      0x00\n      mstore\n      keccak256(0x00, 0x20)\n      swap1\n      0x0b\n      mul\n      add\n        /* \"Practical6-Apply-TTT-Token.sol\":9280:9312  gameInformation[gameId]._options */\n      0x02\n      add\n        /* \"Practical6-Apply-TTT-Token.sol\":9313:9325  winCondition */\n      dup3\n        /* \"Practical6-Apply-TTT-Token.sol\":9326:9327  0 */\n      0x00\n        /* \"Practical6-Apply-TTT-Token.sol\":9313:9328  winCondition[0] */\n      dup2\n      mload\n      dup2\n      lt\n      tag_511\n      jumpi\n      tag_511\n      tag_157\n      jump\t// in\n    tag_511:\n      0x20\n      mul\n      0x20\n      add\n      add\n      mload\n        /* \"Practical6-Apply-TTT-Token.sol\":9280:9329  gameInformation[gameId]._options[winCondition[0]] */\n      dup2\n      sload\n      dup2\n      lt\n      tag_513\n      jumpi\n      tag_513\n      tag_157\n      jump\t// in\n    tag_513:\n      swap1\n      0x00\n      mstore\n      keccak256(0x00, 0x20)\n      add\n        /* \"Practical6-Apply-TTT-Token.sol\":9257:9329  string memory resultA= gameInformation[gameId]._options[winCondition[0]] */\n      dup1\n      sload\n      tag_515\n      swap1\n      tag_217\n      jump\t// in\n    tag_515:\n      dup1\n      0x1f\n      add\n      0x20\n      dup1\n      swap2\n      div\n      mul\n      0x20\n      add\n      mload(0x40)\n      swap1\n      dup2\n      add\n      0x40\n      mstore\n      dup1\n      swap3\n      swap2\n      swap1\n      dup2\n      dup2\n      mstore\n      0x20\n      add\n      dup3\n      dup1\n      sload\n      tag_516\n      swap1\n      tag_217\n      jump\t// in\n    tag_516:\n      dup1\n      iszero\n      tag_517\n      jumpi\n      dup1\n      0x1f\n      lt\n      tag_518\n      jumpi\n      0x0100\n      dup1\n      dup4\n      sload\n      div\n      mul\n      dup4\n      mstore\n      swap2\n      0x20\n      add\n      swap2\n      jump(tag_517)\n    tag_518:\n      dup3\n      add\n      swap2\n      swap1\n      0x00\n      mstore\n      keccak256(0x00, 0x20)\n      swap1\n    tag_519:\n      dup2\n      sload\n      dup2\n      mstore\n      swap1\n      0x01\n      add\n      swap1\n      0x20\n      add\n      dup1\n      dup4\n      gt\n      tag_519\n      jumpi\n      dup3\n      swap1\n      sub\n      0x1f\n      and\n      dup3\n      add\n      swap2\n    tag_517:\n      pop\n      pop\n      pop\n      pop\n      pop\n      swap1\n      pop\n        /* \"Practical6-Apply-TTT-Token.sol\":9348:9369  string memory resultB */\n      0x00\n        /* \"Practical6-Apply-TTT-Token.sol\":9371:9386  gameInformation */\n      0x07\n        /* \"Practical6-Apply-TTT-Token.sol\":9387:9393  gameId */\n      dup7\n        /* \"Practical6-Apply-TTT-Token.sol\":9371:9394  gameInformation[gameId] */\n      dup2\n      sload\n      dup2\n      lt\n      tag_521\n      jumpi\n      tag_521\n      tag_157\n      jump\t// in\n    tag_521:\n      swap1\n      0x00\n      mstore\n      keccak256(0x00, 0x20)\n      swap1\n      0x0b\n      mul\n      add\n        /* \"Practical6-Apply-TTT-Token.sol\":9371:9403  gameInformation[gameId]._options */\n      0x02\n      add\n        /* \"Practical6-Apply-TTT-Token.sol\":9404:9416  winCondition */\n      dup4\n        /* \"Practical6-Apply-TTT-Token.sol\":9417:9418  1 */\n      0x01\n        /* \"Practical6-Apply-TTT-Token.sol\":9404:9419  winCondition[1] */\n      dup2\n      mload\n      dup2\n      lt\n      tag_524\n      jumpi\n      tag_524\n      tag_157\n      jump\t// in\n    tag_524:\n      0x20\n      mul\n      0x20\n      add\n      add\n      mload\n        /* \"Practical6-Apply-TTT-Token.sol\":9371:9420  gameInformation[gameId]._options[winCondition[1]] */\n      dup2\n      sload\n      dup2\n      lt\n      tag_526\n      jumpi\n      tag_526\n      tag_157\n      jump\t// in\n    tag_526:\n      swap1\n      0x00\n      mstore\n      keccak256(0x00, 0x20)\n      add\n        /* \"Practical6-Apply-TTT-Token.sol\":9348:9420  string memory resultB= gameInformation[gameId]._options[winCondition[1]] */\n      dup1\n      sload\n      tag_528\n      swap1\n      tag_217\n      jump\t// in\n    tag_528:\n      dup1\n      0x1f\n      add\n      0x20\n      dup1\n      swap2\n      div\n      mul\n      0x20\n      add\n      mload(0x40)\n      swap1\n      dup2\n      add\n      0x40\n      mstore\n      dup1\n      swap3\n      swap2\n      swap1\n      dup2\n      dup2\n      mstore\n      0x20\n      add\n      dup3\n      dup1\n      sload\n      tag_529\n      swap1\n      tag_217\n      jump\t// in\n    tag_529:\n      dup1\n      iszero\n      tag_530\n      jumpi\n      dup1\n      0x1f\n      lt\n      tag_531\n      jumpi\n      0x0100\n      dup1\n      dup4\n      sload\n      div\n      mul\n      dup4\n      mstore\n      swap2\n      0x20\n      add\n      swap2\n      jump(tag_530)\n    tag_531:\n      dup3\n      add\n      swap2\n      swap1\n      0x00\n      mstore\n      keccak256(0x00, 0x20)\n      swap1\n    tag_532:\n      dup2\n      sload\n      dup2\n      mstore\n      swap1\n      0x01\n      add\n      swap1\n      0x20\n      add\n      dup1\n      dup4\n      gt\n      tag_532\n      jumpi\n      dup3\n      swap1\n      sub\n      0x1f\n      and\n      dup3\n      add\n      swap2\n    tag_530:\n      pop\n      pop\n      pop\n      pop\n      pop\n      swap1\n      pop\n        /* \"Practical6-Apply-TTT-Token.sol\":9439:9460  string memory resultC */\n      0x00\n        /* \"Practical6-Apply-TTT-Token.sol\":9462:9477  gameInformation */\n      0x07\n        /* \"Practical6-Apply-TTT-Token.sol\":9478:9484  gameId */\n      dup8\n        /* \"Practical6-Apply-TTT-Token.sol\":9462:9485  gameInformation[gameId] */\n      dup2\n      sload\n      dup2\n      lt\n      tag_534\n      jumpi\n      tag_534\n      tag_157\n      jump\t// in\n    tag_534:\n      swap1\n      0x00\n      mstore\n      keccak256(0x00, 0x20)\n      swap1\n      0x0b\n      mul\n      add\n        /* \"Practical6-Apply-TTT-Token.sol\":9462:9494  gameInformation[gameId]._options */\n      0x02\n      add\n        /* \"Practical6-Apply-TTT-Token.sol\":9495:9507  winCondition */\n      dup5\n        /* \"Practical6-Apply-TTT-Token.sol\":9508:9509  2 */\n      0x02\n        /* \"Practical6-Apply-TTT-Token.sol\":9495:9510  winCondition[2] */\n      dup2\n      mload\n      dup2\n      lt\n      tag_537\n      jumpi\n      tag_537\n      tag_157\n      jump\t// in\n    tag_537:\n      0x20\n      mul\n      0x20\n      add\n      add\n      mload\n        /* \"Practical6-Apply-TTT-Token.sol\":9462:9511  gameInformation[gameId]._options[winCondition[2]] */\n      dup2\n      sload\n      dup2\n      lt\n      tag_539\n      jumpi\n      tag_539\n      tag_157\n      jump\t// in\n    tag_539:\n      swap1\n      0x00\n      mstore\n      keccak256(0x00, 0x20)\n      add\n        /* \"Practical6-Apply-TTT-Token.sol\":9439:9511  string memory resultC= gameInformation[gameId]._options[winCondition[2]] */\n      dup1\n      sload\n      tag_541\n      swap1\n      tag_217\n      jump\t// in\n    tag_541:\n      dup1\n      0x1f\n      add\n      0x20\n      dup1\n      swap2\n      div\n      mul\n      0x20\n      add\n      mload(0x40)\n      swap1\n      dup2\n      add\n      0x40\n      mstore\n      dup1\n      swap3\n      swap2\n      swap1\n      dup2\n      dup2\n      mstore\n      0x20\n      add\n      dup3\n      dup1\n      sload\n      tag_542\n      swap1\n      tag_217\n      jump\t// in\n    tag_542:\n      dup1\n      iszero\n      tag_543\n      jumpi\n      dup1\n      0x1f\n      lt\n      tag_544\n      jumpi\n      0x0100\n      dup1\n      dup4\n      sload\n      div\n      mul\n      dup4\n      mstore\n      swap2\n      0x20\n      add\n      swap2\n      jump(tag_543)\n    tag_544:\n      dup3\n      add\n      swap2\n      swap1\n      0x00\n      mstore\n      keccak256(0x00, 0x20)\n      swap1\n    tag_545:\n      dup2\n      sload\n      dup2\n      mstore\n      swap1\n      0x01\n      add\n      swap1\n      0x20\n      add\n      dup1\n      dup4\n      gt\n      tag_545\n      jumpi\n      dup3\n      swap1\n      sub\n      0x1f\n      and\n      dup3\n      add\n      swap2\n    tag_543:\n      pop\n      pop\n      pop\n      pop\n      pop\n      swap1\n      pop\n        /* \"Practical6-Apply-TTT-Token.sol\":9758:9785  compareStrings(resultA, \"\") */\n      tag_546\n        /* \"Practical6-Apply-TTT-Token.sol\":9773:9780  resultA */\n      dup4\n        /* \"Practical6-Apply-TTT-Token.sol\":9758:9785  compareStrings(resultA, \"\") */\n      mload(0x40)\n      dup1\n      0x20\n      add\n      0x40\n      mstore\n      dup1\n      0x00\n      dup2\n      mstore\n      pop\n        /* \"Practical6-Apply-TTT-Token.sol\":9758:9772  compareStrings */\n      tag_85\n        /* \"Practical6-Apply-TTT-Token.sol\":9758:9785  compareStrings(resultA, \"\") */\n      jump\t// in\n    tag_546:\n        /* \"Practical6-Apply-TTT-Token.sol\":9758:9814  compareStrings(resultA, \"\")||compareStrings(resultB, \"\") */\n      dup1\n      tag_548\n      jumpi\n      pop\n        /* \"Practical6-Apply-TTT-Token.sol\":9787:9814  compareStrings(resultB, \"\") */\n      tag_548\n        /* \"Practical6-Apply-TTT-Token.sol\":9802:9809  resultB */\n      dup3\n        /* \"Practical6-Apply-TTT-Token.sol\":9787:9814  compareStrings(resultB, \"\") */\n      mload(0x40)\n      dup1\n      0x20\n      add\n      0x40\n      mstore\n      dup1\n      0x00\n      dup2\n      mstore\n      pop\n        /* \"Practical6-Apply-TTT-Token.sol\":9787:9801  compareStrings */\n      tag_85\n        /* \"Practical6-Apply-TTT-Token.sol\":9787:9814  compareStrings(resultB, \"\") */\n      jump\t// in\n    tag_548:\n        /* \"Practical6-Apply-TTT-Token.sol\":9758:9843  compareStrings(resultA, \"\")||compareStrings(resultB, \"\")||compareStrings(resultC, \"\") */\n      dup1\n      tag_550\n      jumpi\n      pop\n        /* \"Practical6-Apply-TTT-Token.sol\":9816:9843  compareStrings(resultC, \"\") */\n      tag_550\n        /* \"Practical6-Apply-TTT-Token.sol\":9831:9838  resultC */\n      dup2\n        /* \"Practical6-Apply-TTT-Token.sol\":9816:9843  compareStrings(resultC, \"\") */\n      mload(0x40)\n      dup1\n      0x20\n      add\n      0x40\n      mstore\n      dup1\n      0x00\n      dup2\n      mstore\n      pop\n        /* \"Practical6-Apply-TTT-Token.sol\":9816:9830  compareStrings */\n      tag_85\n        /* \"Practical6-Apply-TTT-Token.sol\":9816:9843  compareStrings(resultC, \"\") */\n      jump\t// in\n    tag_550:\n        /* \"Practical6-Apply-TTT-Token.sol\":9755:9895  if(compareStrings(resultA, \"\")||compareStrings(resultB, \"\")||compareStrings(resultC, \"\")){... */\n      iszero\n      tag_551\n      jumpi\n        /* \"Practical6-Apply-TTT-Token.sol\":9867:9875  continue */\n      pop\n      pop\n      pop\n      pop\n      jump(tag_501)\n        /* \"Practical6-Apply-TTT-Token.sol\":9755:9895  if(compareStrings(resultA, \"\")||compareStrings(resultB, \"\")||compareStrings(resultC, \"\")){... */\n    tag_551:\n        /* \"Practical6-Apply-TTT-Token.sol\":9916:9948  compareStrings(resultA, resultB) */\n      tag_552\n        /* \"Practical6-Apply-TTT-Token.sol\":9931:9938  resultA */\n      dup4\n        /* \"Practical6-Apply-TTT-Token.sol\":9940:9947  resultB */\n      dup4\n        /* \"Practical6-Apply-TTT-Token.sol\":9916:9930  compareStrings */\n      tag_85\n        /* \"Practical6-Apply-TTT-Token.sol\":9916:9948  compareStrings(resultA, resultB) */\n      jump\t// in\n    tag_552:\n        /* \"Practical6-Apply-TTT-Token.sol\":9916:9984  compareStrings(resultA, resultB) && compareStrings(resultB, resultC) */\n      dup1\n      iszero\n      tag_554\n      jumpi\n      pop\n        /* \"Practical6-Apply-TTT-Token.sol\":9952:9984  compareStrings(resultB, resultC) */\n      tag_554\n        /* \"Practical6-Apply-TTT-Token.sol\":9967:9974  resultB */\n      dup3\n        /* \"Practical6-Apply-TTT-Token.sol\":9976:9983  resultC */\n      dup3\n        /* \"Practical6-Apply-TTT-Token.sol\":9952:9966  compareStrings */\n      tag_85\n        /* \"Practical6-Apply-TTT-Token.sol\":9952:9984  compareStrings(resultB, resultC) */\n      jump\t// in\n    tag_554:\n        /* \"Practical6-Apply-TTT-Token.sol\":9913:10528  if(compareStrings(resultA, resultB) && compareStrings(resultB, resultC)){... */\n      iszero\n      tag_555\n      jumpi\n        /* \"Practical6-Apply-TTT-Token.sol\":10050:10062  winCondition */\n      dup4\n        /* \"Practical6-Apply-TTT-Token.sol\":10008:10023  gameInformation */\n      0x07\n        /* \"Practical6-Apply-TTT-Token.sol\":10024:10030  gameId */\n      dup9\n        /* \"Practical6-Apply-TTT-Token.sol\":10008:10031  gameInformation[gameId] */\n      dup2\n      sload\n      dup2\n      lt\n      tag_557\n      jumpi\n      tag_557\n      tag_157\n      jump\t// in\n    tag_557:\n      swap1\n      0x00\n      mstore\n      keccak256(0x00, 0x20)\n      swap1\n      0x0b\n      mul\n      add\n        /* \"Practical6-Apply-TTT-Token.sol\":10008:10047  gameInformation[gameId]._finalWinOption */\n      0x03\n      add\n        /* \"Practical6-Apply-TTT-Token.sol\":10008:10062  gameInformation[gameId]._finalWinOption = winCondition */\n      swap1\n      dup1\n      mload\n      swap1\n      0x20\n      add\n      swap1\n      tag_559\n      swap3\n      swap2\n      swap1\n      tag_153\n      jump\t// in\n    tag_559:\n      pop\n        /* \"Practical6-Apply-TTT-Token.sol\":10110:10169  compareStrings(gameInformation[gameId]._currentPlayer, \"X\") */\n      tag_560\n        /* \"Practical6-Apply-TTT-Token.sol\":10125:10140  gameInformation */\n      0x07\n        /* \"Practical6-Apply-TTT-Token.sol\":10141:10147  gameId */\n      dup9\n        /* \"Practical6-Apply-TTT-Token.sol\":10125:10148  gameInformation[gameId] */\n      dup2\n      sload\n      dup2\n      lt\n      tag_270\n      jumpi\n      tag_270\n      tag_157\n      jump\t// in\n        /* \"Practical6-Apply-TTT-Token.sol\":10110:10169  compareStrings(gameInformation[gameId]._currentPlayer, \"X\") */\n    tag_560:\n        /* \"Practical6-Apply-TTT-Token.sol\":10107:10422  if(compareStrings(gameInformation[gameId]._currentPlayer, \"X\")){... */\n      iszero\n      tag_569\n      jumpi\n        /* \"Practical6-Apply-TTT-Token.sol\":10230:10245  gameInformation */\n      0x07\n        /* \"Practical6-Apply-TTT-Token.sol\":10246:10252  gameId */\n      dup8\n        /* \"Practical6-Apply-TTT-Token.sol\":10230:10253  gameInformation[gameId] */\n      dup2\n      sload\n      dup2\n      lt\n      tag_571\n      jumpi\n      tag_571\n      tag_157\n      jump\t// in\n    tag_571:\n      swap1\n      0x00\n      mstore\n      keccak256(0x00, 0x20)\n      swap1\n      0x0b\n      mul\n      add\n        /* \"Practical6-Apply-TTT-Token.sol\":10230:10269  gameInformation[gameId]._player1address */\n      0x04\n      add\n      0x00\n      swap1\n      sload\n      swap1\n      0x0100\n      exp\n      swap1\n      div\n      sub(shl(0xa0, 0x01), 0x01)\n      and\n        /* \"Practical6-Apply-TTT-Token.sol\":10197:10212  gameInformation */\n      0x07\n        /* \"Practical6-Apply-TTT-Token.sol\":10213:10219  gameId */\n      dup9\n        /* \"Practical6-Apply-TTT-Token.sol\":10197:10220  gameInformation[gameId] */\n      dup2\n      sload\n      dup2\n      lt\n      tag_574\n      jumpi\n      tag_574\n      tag_157\n      jump\t// in\n    tag_574:\n      swap1\n      0x00\n      mstore\n      keccak256(0x00, 0x20)\n      swap1\n      0x0b\n      mul\n      add\n        /* \"Practical6-Apply-TTT-Token.sol\":10197:10227  gameInformation[gameId]._winer */\n      0x07\n      add\n      0x00\n        /* \"Practical6-Apply-TTT-Token.sol\":10197:10269  gameInformation[gameId]._winer = gameInformation[gameId]._player1address */\n      0x0100\n      exp\n      dup2\n      sload\n      dup2\n      sub(shl(0xa0, 0x01), 0x01)\n      mul\n      not\n      and\n      swap1\n      dup4\n      sub(shl(0xa0, 0x01), 0x01)\n      and\n      mul\n      or\n      swap1\n      sstore\n      pop\n        /* \"Practical6-Apply-TTT-Token.sol\":10107:10422  if(compareStrings(gameInformation[gameId]._currentPlayer, \"X\")){... */\n      jump(tag_576)\n    tag_569:\n        /* \"Practical6-Apply-TTT-Token.sol\":10359:10374  gameInformation */\n      0x07\n        /* \"Practical6-Apply-TTT-Token.sol\":10375:10381  gameId */\n      dup8\n        /* \"Practical6-Apply-TTT-Token.sol\":10359:10382  gameInformation[gameId] */\n      dup2\n      sload\n      dup2\n      lt\n      tag_578\n      jumpi\n      tag_578\n      tag_157\n      jump\t// in\n    tag_578:\n      swap1\n      0x00\n      mstore\n      keccak256(0x00, 0x20)\n      swap1\n      0x0b\n      mul\n      add\n        /* \"Practical6-Apply-TTT-Token.sol\":10359:10398  gameInformation[gameId]._player2address */\n      0x05\n      add\n      0x00\n      swap1\n      sload\n      swap1\n      0x0100\n      exp\n      swap1\n      div\n      sub(shl(0xa0, 0x01), 0x01)\n      and\n        /* \"Practical6-Apply-TTT-Token.sol\":10326:10341  gameInformation */\n      0x07\n        /* \"Practical6-Apply-TTT-Token.sol\":10342:10348  gameId */\n      dup9\n        /* \"Practical6-Apply-TTT-Token.sol\":10326:10349  gameInformation[gameId] */\n      dup2\n      sload\n      dup2\n      lt\n      tag_581\n      jumpi\n      tag_581\n      tag_157\n      jump\t// in\n    tag_581:\n      swap1\n      0x00\n      mstore\n      keccak256(0x00, 0x20)\n      swap1\n      0x0b\n      mul\n      add\n        /* \"Practical6-Apply-TTT-Token.sol\":10326:10356  gameInformation[gameId]._winer */\n      0x07\n      add\n      0x00\n        /* \"Practical6-Apply-TTT-Token.sol\":10326:10398  gameInformation[gameId]._winer = gameInformation[gameId]._player2address */\n      0x0100\n      exp\n      dup2\n      sload\n      dup2\n      sub(shl(0xa0, 0x01), 0x01)\n      mul\n      not\n      and\n      swap1\n      dup4\n      sub(shl(0xa0, 0x01), 0x01)\n      and\n      mul\n      or\n      swap1\n      sstore\n      pop\n        /* \"Practical6-Apply-TTT-Token.sol\":10107:10422  if(compareStrings(gameInformation[gameId]._currentPlayer, \"X\")){... */\n    tag_576:\n        /* \"Practical6-Apply-TTT-Token.sol\":10476:10480  true */\n      0x01\n        /* \"Practical6-Apply-TTT-Token.sol\":10466:10480  userWon = true */\n      swap6\n      pop\n        /* \"Practical6-Apply-TTT-Token.sol\":10503:10508  break */\n      pop\n      pop\n      pop\n      pop\n      jump(tag_500)\n        /* \"Practical6-Apply-TTT-Token.sol\":9913:10528  if(compareStrings(resultA, resultB) && compareStrings(resultB, resultC)){... */\n    tag_555:\n        /* \"Practical6-Apply-TTT-Token.sol\":9109:10543  {... */\n      pop\n      pop\n      pop\n      pop\n        /* \"Practical6-Apply-TTT-Token.sol\":9060:10543  for(uint i = 0 ; i < winConditionSet.length; i++){... */\n    tag_501:\n        /* \"Practical6-Apply-TTT-Token.sol\":9105:9108  i++ */\n      dup1\n      tag_583\n      dup2\n      tag_190\n      jump\t// in\n    tag_583:\n      swap2\n      pop\n      pop\n        /* \"Practical6-Apply-TTT-Token.sol\":9060:10543  for(uint i = 0 ; i < winConditionSet.length; i++){... */\n      jump(tag_499)\n    tag_500:\n      pop\n        /* \"Practical6-Apply-TTT-Token.sol\":10673:10680  userWon */\n      dup1\n        /* \"Practical6-Apply-TTT-Token.sol\":10670:11832  if(userWon){... */\n      iszero\n      tag_584\n      jumpi\n        /* \"Practical6-Apply-TTT-Token.sol\":10747:10806  compareStrings(gameInformation[gameId]._currentPlayer, \"X\") */\n      tag_585\n        /* \"Practical6-Apply-TTT-Token.sol\":10762:10777  gameInformation */\n      0x07\n        /* \"Practical6-Apply-TTT-Token.sol\":10778:10784  gameId */\n      dup4\n        /* \"Practical6-Apply-TTT-Token.sol\":10762:10785  gameInformation[gameId] */\n      dup2\n      sload\n      dup2\n      lt\n      tag_270\n      jumpi\n      tag_270\n      tag_157\n      jump\t// in\n        /* \"Practical6-Apply-TTT-Token.sol\":10747:10806  compareStrings(gameInformation[gameId]._currentPlayer, \"X\") */\n    tag_585:\n        /* \"Practical6-Apply-TTT-Token.sol\":10744:11097  if(compareStrings(gameInformation[gameId]._currentPlayer, \"X\")){... */\n      iszero\n      tag_594\n      jumpi\n        /* \"Practical6-Apply-TTT-Token.sol\":10830:10838  TTTToken */\n      sload(0x00)\n        /* \"Practical6-Apply-TTT-Token.sol\":10848:10863  gameInformation */\n      0x07\n        /* \"Practical6-Apply-TTT-Token.sol\":10848:10871  gameInformation[gameId] */\n      dup1\n      sload\n      sub(shl(0xa0, 0x01), 0x01)\n        /* \"Practical6-Apply-TTT-Token.sol\":10830:10838  TTTToken */\n      swap1\n      swap3\n      and\n      swap2\n        /* \"Practical6-Apply-TTT-Token.sol\":10830:10847  TTTToken.transfer */\n      0xa9059cbb\n      swap2\n        /* \"Practical6-Apply-TTT-Token.sol\":10848:10863  gameInformation */\n      swap1\n        /* \"Practical6-Apply-TTT-Token.sol\":10864:10870  gameId */\n      dup6\n      swap1\n        /* \"Practical6-Apply-TTT-Token.sol\":10848:10871  gameInformation[gameId] */\n      dup2\n      lt\n      tag_596\n      jumpi\n      tag_596\n      tag_157\n      jump\t// in\n    tag_596:\n      swap1\n      0x00\n      mstore\n      keccak256(0x00, 0x20)\n      swap1\n      0x0b\n      mul\n      add\n        /* \"Practical6-Apply-TTT-Token.sol\":10848:10887  gameInformation[gameId]._player1address */\n      0x04\n      add\n      0x00\n      swap1\n      sload\n      swap1\n      0x0100\n      exp\n      swap1\n      div\n      sub(shl(0xa0, 0x01), 0x01)\n      and\n        /* \"Practical6-Apply-TTT-Token.sol\":10889:10904  gameInformation */\n      0x07\n        /* \"Practical6-Apply-TTT-Token.sol\":10905:10911  gameId */\n      dup6\n        /* \"Practical6-Apply-TTT-Token.sol\":10889:10912  gameInformation[gameId] */\n      dup2\n      sload\n      dup2\n      lt\n      tag_599\n      jumpi\n      tag_599\n      tag_157\n      jump\t// in\n    tag_599:\n      swap1\n      0x00\n      mstore\n      keccak256(0x00, 0x20)\n      swap1\n      0x0b\n      mul\n      add\n        /* \"Practical6-Apply-TTT-Token.sol\":10889:10926  gameInformation[gameId]._rewardAmount */\n      0x0a\n      add\n      sload\n        /* \"Practical6-Apply-TTT-Token.sol\":10927:10928  2 */\n      0x02\n        /* \"Practical6-Apply-TTT-Token.sol\":10889:10928  gameInformation[gameId]._rewardAmount*2 */\n      tag_601\n      swap2\n      swap1\n      tag_121\n      jump\t// in\n    tag_601:\n        /* \"Practical6-Apply-TTT-Token.sol\":10830:10929  TTTToken.transfer(gameInformation[gameId]._player1address, gameInformation[gameId]._rewardAmount*2) */\n      mload(0x40)\n      not(sub(shl(0xe0, 0x01), 0x01))\n      0xe0\n      dup6\n      swap1\n      shl\n      and\n      dup2\n      mstore\n      sub(shl(0xa0, 0x01), 0x01)\n        /* \"#utility.yul\":20945:20977   */\n      swap1\n      swap3\n      and\n        /* \"Practical6-Apply-TTT-Token.sol\":10830:10929  TTTToken.transfer(gameInformation[gameId]._player1address, gameInformation[gameId]._rewardAmount*2) */\n      0x04\n      dup4\n      add\n        /* \"#utility.yul\":20927:20978   */\n      mstore\n        /* \"#utility.yul\":20994:21012   */\n      0x24\n      dup3\n      add\n        /* \"#utility.yul\":20987:21021   */\n      mstore\n        /* \"#utility.yul\":20900:20918   */\n      0x44\n      add\n        /* \"Practical6-Apply-TTT-Token.sol\":10830:10929  TTTToken.transfer(gameInformation[gameId]._player1address, gameInformation[gameId]._rewardAmount*2) */\n      0x20\n      mload(0x40)\n      dup1\n      dup4\n      sub\n      dup2\n      0x00\n      dup8\n      gas\n      call\n      iszero\n      dup1\n      iszero\n      tag_604\n      jumpi\n      returndatasize\n      0x00\n      dup1\n      returndatacopy\n      revert(0x00, returndatasize)\n    tag_604:\n      pop\n      pop\n      pop\n      pop\n      mload(0x40)\n      returndatasize\n      not(0x1f)\n      0x1f\n      dup3\n      add\n      and\n      dup3\n      add\n      dup1\n      0x40\n      mstore\n      pop\n      dup2\n      add\n      swap1\n      tag_605\n      swap2\n      swap1\n      tag_134\n      jump\t// in\n    tag_605:\n      pop\n        /* \"Practical6-Apply-TTT-Token.sol\":10744:11097  if(compareStrings(gameInformation[gameId]._currentPlayer, \"X\")){... */\n      jump(tag_606)\n    tag_594:\n        /* \"Practical6-Apply-TTT-Token.sol\":10978:10986  TTTToken */\n      sload(0x00)\n        /* \"Practical6-Apply-TTT-Token.sol\":10996:11011  gameInformation */\n      0x07\n        /* \"Practical6-Apply-TTT-Token.sol\":10996:11019  gameInformation[gameId] */\n      dup1\n      sload\n      sub(shl(0xa0, 0x01), 0x01)\n        /* \"Practical6-Apply-TTT-Token.sol\":10978:10986  TTTToken */\n      swap1\n      swap3\n      and\n      swap2\n        /* \"Practical6-Apply-TTT-Token.sol\":10978:10995  TTTToken.transfer */\n      0xa9059cbb\n      swap2\n        /* \"Practical6-Apply-TTT-Token.sol\":10996:11011  gameInformation */\n      swap1\n        /* \"Practical6-Apply-TTT-Token.sol\":11012:11018  gameId */\n      dup6\n      swap1\n        /* \"Practical6-Apply-TTT-Token.sol\":10996:11019  gameInformation[gameId] */\n      dup2\n      lt\n      tag_608\n      jumpi\n      tag_608\n      tag_157\n      jump\t// in\n    tag_608:\n      swap1\n      0x00\n      mstore\n      keccak256(0x00, 0x20)\n      swap1\n      0x0b\n      mul\n      add\n        /* \"Practical6-Apply-TTT-Token.sol\":10996:11035  gameInformation[gameId]._player2address */\n      0x05\n      add\n      0x00\n      swap1\n      sload\n      swap1\n      0x0100\n      exp\n      swap1\n      div\n      sub(shl(0xa0, 0x01), 0x01)\n      and\n        /* \"Practical6-Apply-TTT-Token.sol\":11037:11052  gameInformation */\n      0x07\n        /* \"Practical6-Apply-TTT-Token.sol\":11053:11059  gameId */\n      dup6\n        /* \"Practical6-Apply-TTT-Token.sol\":11037:11060  gameInformation[gameId] */\n      dup2\n      sload\n      dup2\n      lt\n      tag_611\n      jumpi\n      tag_611\n      tag_157\n      jump\t// in\n    tag_611:\n      swap1\n      0x00\n      mstore\n      keccak256(0x00, 0x20)\n      swap1\n      0x0b\n      mul\n      add\n        /* \"Practical6-Apply-TTT-Token.sol\":11037:11074  gameInformation[gameId]._rewardAmount */\n      0x0a\n      add\n      sload\n        /* \"Practical6-Apply-TTT-Token.sol\":11075:11076  2 */\n      0x02\n        /* \"Practical6-Apply-TTT-Token.sol\":11037:11076  gameInformation[gameId]._rewardAmount*2 */\n      tag_613\n      swap2\n      swap1\n      tag_121\n      jump\t// in\n    tag_613:\n        /* \"Practical6-Apply-TTT-Token.sol\":10978:11077  TTTToken.transfer(gameInformation[gameId]._player2address, gameInformation[gameId]._rewardAmount*2) */\n      mload(0x40)\n      not(sub(shl(0xe0, 0x01), 0x01))\n      0xe0\n      dup6\n      swap1\n      shl\n      and\n      dup2\n      mstore\n      sub(shl(0xa0, 0x01), 0x01)\n        /* \"#utility.yul\":20945:20977   */\n      swap1\n      swap3\n      and\n        /* \"Practical6-Apply-TTT-Token.sol\":10978:11077  TTTToken.transfer(gameInformation[gameId]._player2address, gameInformation[gameId]._rewardAmount*2) */\n      0x04\n      dup4\n      add\n        /* \"#utility.yul\":20927:20978   */\n      mstore\n        /* \"#utility.yul\":20994:21012   */\n      0x24\n      dup3\n      add\n        /* \"#utility.yul\":20987:21021   */\n      mstore\n        /* \"#utility.yul\":20900:20918   */\n      0x44\n      add\n        /* \"Practical6-Apply-TTT-Token.sol\":10978:11077  TTTToken.transfer(gameInformation[gameId]._player2address, gameInformation[gameId]._rewardAmount*2) */\n      0x20\n      mload(0x40)\n      dup1\n      dup4\n      sub\n      dup2\n      0x00\n      dup8\n      gas\n      call\n      iszero\n      dup1\n      iszero\n      tag_616\n      jumpi\n      returndatasize\n      0x00\n      dup1\n      returndatacopy\n      revert(0x00, returndatasize)\n    tag_616:\n      pop\n      pop\n      pop\n      pop\n      mload(0x40)\n      returndatasize\n      not(0x1f)\n      0x1f\n      dup3\n      add\n      and\n      dup3\n      add\n      dup1\n      0x40\n      mstore\n      pop\n      dup2\n      add\n      swap1\n      tag_617\n      swap2\n      swap1\n      tag_134\n      jump\t// in\n    tag_617:\n      pop\n        /* \"Practical6-Apply-TTT-Token.sol\":10744:11097  if(compareStrings(gameInformation[gameId]._currentPlayer, \"X\")){... */\n    tag_606:\n        /* \"Practical6-Apply-TTT-Token.sol\":11130:11145  gameInformation */\n      0x07\n        /* \"Practical6-Apply-TTT-Token.sol\":11146:11152  gameId */\n      dup3\n        /* \"Practical6-Apply-TTT-Token.sol\":11130:11153  gameInformation[gameId] */\n      dup2\n      sload\n      dup2\n      lt\n      tag_619\n      jumpi\n      tag_619\n      tag_157\n      jump\t// in\n    tag_619:\n      swap1\n      0x00\n      mstore\n      keccak256(0x00, 0x20)\n      swap1\n      0x0b\n      mul\n      add\n        /* \"Practical6-Apply-TTT-Token.sol\":11130:11167  gameInformation[gameId]._rewardAmount */\n      0x0a\n      add\n      sload\n        /* \"Practical6-Apply-TTT-Token.sol\":11168:11169  2 */\n      0x02\n        /* \"Practical6-Apply-TTT-Token.sol\":11130:11169  gameInformation[gameId]._rewardAmount*2 */\n      tag_621\n      swap2\n      swap1\n      tag_121\n      jump\t// in\n    tag_621:\n        /* \"Practical6-Apply-TTT-Token.sol\":11115:11126  totalAmount */\n      0x05\n      0x00\n        /* \"Practical6-Apply-TTT-Token.sol\":11115:11169  totalAmount -= gameInformation[gameId]._rewardAmount*2 */\n      dup3\n      dup3\n      sload\n      tag_622\n      swap2\n      swap1\n      tag_127\n      jump\t// in\n    tag_622:\n      swap3\n      pop\n      pop\n      dup2\n      swap1\n      sstore\n      pop\n        /* \"Practical6-Apply-TTT-Token.sol\":11234:11292  showResult(gameInformation[gameId]._currentPlayer, gameId) */\n      0x938a1c44580c51d01225d61fb97878104148b1cdc734eb45bc5b5b50533a492d\n        /* \"Practical6-Apply-TTT-Token.sol\":11245:11260  gameInformation */\n      0x07\n        /* \"Practical6-Apply-TTT-Token.sol\":11261:11267  gameId */\n      dup4\n        /* \"Practical6-Apply-TTT-Token.sol\":11245:11268  gameInformation[gameId] */\n      dup2\n      sload\n      dup2\n      lt\n      tag_624\n      jumpi\n      tag_624\n      tag_157\n      jump\t// in\n    tag_624:\n      swap1\n      0x00\n      mstore\n      keccak256(0x00, 0x20)\n      swap1\n      0x0b\n      mul\n      add\n        /* \"Practical6-Apply-TTT-Token.sol\":11245:11283  gameInformation[gameId]._currentPlayer */\n      0x01\n      add\n        /* \"Practical6-Apply-TTT-Token.sol\":11285:11291  gameId */\n      dup4\n        /* \"Practical6-Apply-TTT-Token.sol\":11234:11292  showResult(gameInformation[gameId]._currentPlayer, gameId) */\n      mload(0x40)\n      tag_626\n      swap3\n      swap2\n      swap1\n      tag_627\n      jump\t// in\n    tag_626:\n      mload(0x40)\n      dup1\n      swap2\n      sub\n      swap1\n      log1\n        /* \"Practical6-Apply-TTT-Token.sol\":11408:11413  false */\n      0x00\n        /* \"Practical6-Apply-TTT-Token.sol\":11372:11387  gameInformation */\n      0x07\n        /* \"Practical6-Apply-TTT-Token.sol\":11388:11394  gameId */\n      dup4\n        /* \"Practical6-Apply-TTT-Token.sol\":11372:11395  gameInformation[gameId] */\n      dup2\n      sload\n      dup2\n      lt\n      tag_629\n      jumpi\n      tag_629\n      tag_157\n      jump\t// in\n    tag_629:\n      0x00\n      swap2\n      dup3\n      mstore\n      0x20\n      swap1\n      swap2\n      keccak256\n      0x0b\n      swap1\n      swap2\n      mul\n      add\n        /* \"Practical6-Apply-TTT-Token.sol\":11372:11413  gameInformation[gameId]._activate = false */\n      dup1\n      sload\n      not(0xff)\n      and\n      swap2\n      iszero\n      iszero\n      swap2\n      swap1\n      swap2\n      or\n      swap1\n      sstore\n      pop\n      pop\n        /* \"Practical6-Apply-TTT-Token.sol\":7763:8809  function userInput(uint input, uint gameId) external {... */\n      jump\t// out\n        /* \"Practical6-Apply-TTT-Token.sol\":10670:11832  if(userWon){... */\n    tag_584:\n        /* \"Practical6-Apply-TTT-Token.sol\":11442:11462  checkOptions(gameId) */\n      tag_632\n        /* \"Practical6-Apply-TTT-Token.sol\":11455:11461  gameId */\n      dup3\n        /* \"Practical6-Apply-TTT-Token.sol\":11442:11454  checkOptions */\n      tag_633\n        /* \"Practical6-Apply-TTT-Token.sol\":11442:11462  checkOptions(gameId) */\n      jump\t// in\n    tag_632:\n        /* \"Practical6-Apply-TTT-Token.sol\":11439:11832  if(checkOptions(gameId)){... */\n      iszero\n      tag_634\n      jumpi\n        /* \"Practical6-Apply-TTT-Token.sol\":11531:11557  showResult(\"Draw\", gameId) */\n      0x40\n      dup1\n      mload\n        /* \"#utility.yul\":27002:27023   */\n      dup2\n      dup2\n      mstore\n        /* \"#utility.yul\":27059:27060   */\n      0x04\n        /* \"#utility.yul\":27039:27057   */\n      swap2\n      dup2\n      add\n        /* \"#utility.yul\":27032:27061   */\n      swap2\n      swap1\n      swap2\n      mstore\n      shl(0xe0, 0x44726177)\n        /* \"#utility.yul\":27092:27094   */\n      0x60\n        /* \"#utility.yul\":27077:27095   */\n      dup3\n      add\n        /* \"#utility.yul\":27070:27104   */\n      mstore\n        /* \"#utility.yul\":27171:27175   */\n      0x20\n        /* \"#utility.yul\":27156:27176   */\n      dup2\n      add\n        /* \"#utility.yul\":27149:27185   */\n      dup4\n      swap1\n      mstore\n        /* \"Practical6-Apply-TTT-Token.sol\":11531:11557  showResult(\"Draw\", gameId) */\n      0x938a1c44580c51d01225d61fb97878104148b1cdc734eb45bc5b5b50533a492d\n      swap1\n        /* \"#utility.yul\":27136:27139   */\n      0x80\n        /* \"#utility.yul\":27121:27140   */\n      add\n        /* \"Practical6-Apply-TTT-Token.sol\":11531:11557  showResult(\"Draw\", gameId) */\n      tag_626\n        /* \"#utility.yul\":26790:27191   */\n      jump\n        /* \"Practical6-Apply-TTT-Token.sol\":11439:11832  if(checkOptions(gameId)){... */\n    tag_634:\n        /* \"Practical6-Apply-TTT-Token.sol\":11796:11816  changePlayer(gameId) */\n      tag_307\n        /* \"Practical6-Apply-TTT-Token.sol\":11809:11815  gameId */\n      dup3\n        /* \"Practical6-Apply-TTT-Token.sol\":11796:11808  changePlayer */\n      tag_642\n        /* \"Practical6-Apply-TTT-Token.sol\":11796:11816  changePlayer(gameId) */\n      jump\t// in\n        /* \"Practical6-Apply-TTT-Token.sol\":12667:13111  function checkOptions(uint gameId) private view returns (bool) {... */\n    tag_633:\n        /* \"Practical6-Apply-TTT-Token.sol\":12724:12728  bool */\n      0x00\n      dup1\n        /* \"Practical6-Apply-TTT-Token.sol\":12860:13074  for(uint i = 0 ; i < gameInformation[gameId]._options.length; i++){... */\n    tag_644:\n        /* \"Practical6-Apply-TTT-Token.sol\":12881:12896  gameInformation */\n      0x07\n        /* \"Practical6-Apply-TTT-Token.sol\":12897:12903  gameId */\n      dup4\n        /* \"Practical6-Apply-TTT-Token.sol\":12881:12904  gameInformation[gameId] */\n      dup2\n      sload\n      dup2\n      lt\n      tag_648\n      jumpi\n      tag_648\n      tag_157\n      jump\t// in\n    tag_648:\n      swap1\n      0x00\n      mstore\n      keccak256(0x00, 0x20)\n      swap1\n      0x0b\n      mul\n      add\n        /* \"Practical6-Apply-TTT-Token.sol\":12881:12913  gameInformation[gameId]._options */\n      0x02\n      add\n        /* \"Practical6-Apply-TTT-Token.sol\":12881:12920  gameInformation[gameId]._options.length */\n      dup1\n      sload\n      swap1\n      pop\n        /* \"Practical6-Apply-TTT-Token.sol\":12877:12878  i */\n      dup2\n        /* \"Practical6-Apply-TTT-Token.sol\":12877:12920  i < gameInformation[gameId]._options.length */\n      lt\n        /* \"Practical6-Apply-TTT-Token.sol\":12860:13074  for(uint i = 0 ; i < gameInformation[gameId]._options.length; i++){... */\n      iszero\n      tag_645\n      jumpi\n        /* \"Practical6-Apply-TTT-Token.sol\":12948:13003  compareStrings(gameInformation[gameId]._options[i], \"\") */\n      tag_650\n        /* \"Practical6-Apply-TTT-Token.sol\":12963:12978  gameInformation */\n      0x07\n        /* \"Practical6-Apply-TTT-Token.sol\":12979:12985  gameId */\n      dup5\n        /* \"Practical6-Apply-TTT-Token.sol\":12963:12986  gameInformation[gameId] */\n      dup2\n      sload\n      dup2\n      lt\n      tag_652\n      jumpi\n      tag_652\n      tag_157\n      jump\t// in\n    tag_652:\n      swap1\n      0x00\n      mstore\n      keccak256(0x00, 0x20)\n      swap1\n      0x0b\n      mul\n      add\n        /* \"Practical6-Apply-TTT-Token.sol\":12963:12995  gameInformation[gameId]._options */\n      0x02\n      add\n        /* \"Practical6-Apply-TTT-Token.sol\":12996:12997  i */\n      dup3\n        /* \"Practical6-Apply-TTT-Token.sol\":12963:12998  gameInformation[gameId]._options[i] */\n      dup2\n      sload\n      dup2\n      lt\n      tag_258\n      jumpi\n      tag_258\n      tag_157\n      jump\t// in\n        /* \"Practical6-Apply-TTT-Token.sol\":12948:13003  compareStrings(gameInformation[gameId]._options[i], \"\") */\n    tag_650:\n        /* \"Practical6-Apply-TTT-Token.sol\":12945:13059  if(compareStrings(gameInformation[gameId]._options[i], \"\")){... */\n      iszero\n      tag_662\n      jumpi\n      pop\n        /* \"Practical6-Apply-TTT-Token.sol\":13034:13039  false */\n      0x00\n      swap3\n        /* \"Practical6-Apply-TTT-Token.sol\":12667:13111  function checkOptions(uint gameId) private view returns (bool) {... */\n      swap2\n      pop\n      pop\n      jump\t// out\n        /* \"Practical6-Apply-TTT-Token.sol\":12945:13059  if(compareStrings(gameInformation[gameId]._options[i], \"\")){... */\n    tag_662:\n        /* \"Practical6-Apply-TTT-Token.sol\":12922:12925  i++ */\n      dup1\n      tag_663\n      dup2\n      tag_190\n      jump\t// in\n    tag_663:\n      swap2\n      pop\n      pop\n        /* \"Practical6-Apply-TTT-Token.sol\":12860:13074  for(uint i = 0 ; i < gameInformation[gameId]._options.length; i++){... */\n      jump(tag_644)\n    tag_645:\n      pop\n        /* \"Practical6-Apply-TTT-Token.sol\":13095:13099  true */\n      0x01\n      swap3\n        /* \"Practical6-Apply-TTT-Token.sol\":12667:13111  function checkOptions(uint gameId) private view returns (bool) {... */\n      swap2\n      pop\n      pop\n      jump\t// out\n        /* \"Practical6-Apply-TTT-Token.sol\":11888:12598  function changePlayer(uint gameId) private {... */\n    tag_642:\n        /* \"Practical6-Apply-TTT-Token.sol\":11994:12053  compareStrings(gameInformation[gameId]._currentPlayer, \"X\") */\n      tag_665\n        /* \"Practical6-Apply-TTT-Token.sol\":12009:12024  gameInformation */\n      0x07\n        /* \"Practical6-Apply-TTT-Token.sol\":12025:12031  gameId */\n      dup3\n        /* \"Practical6-Apply-TTT-Token.sol\":12009:12032  gameInformation[gameId] */\n      dup2\n      sload\n      dup2\n      lt\n      tag_270\n      jumpi\n      tag_270\n      tag_157\n      jump\t// in\n        /* \"Practical6-Apply-TTT-Token.sol\":11994:12053  compareStrings(gameInformation[gameId]._currentPlayer, \"X\") */\n    tag_665:\n        /* \"Practical6-Apply-TTT-Token.sol\":11991:12304  if(compareStrings(gameInformation[gameId]._currentPlayer, \"X\")){... */\n      iszero\n      tag_674\n      jumpi\n        /* \"Practical6-Apply-TTT-Token.sol\":12078:12135  nextUser(gameInformation[gameId]._player2address, gameId) */\n      0xeefc3fd775b975165c9d067e02fcd5bf5889d58041ae6ddaf94f2cc853007272\n        /* \"Practical6-Apply-TTT-Token.sol\":12087:12102  gameInformation */\n      0x07\n        /* \"Practical6-Apply-TTT-Token.sol\":12103:12109  gameId */\n      dup3\n        /* \"Practical6-Apply-TTT-Token.sol\":12087:12110  gameInformation[gameId] */\n      dup2\n      sload\n      dup2\n      lt\n      tag_676\n      jumpi\n      tag_676\n      tag_157\n      jump\t// in\n    tag_676:\n      0x00\n      swap2\n      dup3\n      mstore\n      0x20\n      swap2\n      dup3\n      swap1\n      keccak256\n      0x0b\n      swap1\n      swap2\n      mul\n      add\n        /* \"Practical6-Apply-TTT-Token.sol\":12087:12126  gameInformation[gameId]._player2address */\n      0x05\n      add\n      sload\n        /* \"Practical6-Apply-TTT-Token.sol\":12078:12135  nextUser(gameInformation[gameId]._player2address, gameId) */\n      0x40\n      dup1\n      mload\n      sub(shl(0xa0, 0x01), 0x01)\n        /* \"Practical6-Apply-TTT-Token.sol\":12087:12126  gameInformation[gameId]._player2address */\n      swap1\n      swap3\n      and\n        /* \"#utility.yul\":20927:20978   */\n      dup3\n      mstore\n        /* \"#utility.yul\":20994:21012   */\n      swap2\n      dup2\n      add\n        /* \"#utility.yul\":20987:21021   */\n      dup5\n      swap1\n      mstore\n        /* \"#utility.yul\":20900:20918   */\n      add\n        /* \"Practical6-Apply-TTT-Token.sol\":12078:12135  nextUser(gameInformation[gameId]._player2address, gameId) */\n      mload(0x40)\n      dup1\n      swap2\n      sub\n      swap1\n      log1\n        /* \"Practical6-Apply-TTT-Token.sol\":11991:12304  if(compareStrings(gameInformation[gameId]._currentPlayer, \"X\")){... */\n      jump(tag_679)\n    tag_674:\n        /* \"Practical6-Apply-TTT-Token.sol\":12205:12262  nextUser(gameInformation[gameId]._player1address, gameId) */\n      0xeefc3fd775b975165c9d067e02fcd5bf5889d58041ae6ddaf94f2cc853007272\n        /* \"Practical6-Apply-TTT-Token.sol\":12214:12229  gameInformation */\n      0x07\n        /* \"Practical6-Apply-TTT-Token.sol\":12230:12236  gameId */\n      dup3\n        /* \"Practical6-Apply-TTT-Token.sol\":12214:12237  gameInformation[gameId] */\n      dup2\n      sload\n      dup2\n      lt\n      tag_681\n      jumpi\n      tag_681\n      tag_157\n      jump\t// in\n    tag_681:\n      0x00\n      swap2\n      dup3\n      mstore\n      0x20\n      swap2\n      dup3\n      swap1\n      keccak256\n      0x0b\n      swap1\n      swap2\n      mul\n      add\n        /* \"Practical6-Apply-TTT-Token.sol\":12214:12253  gameInformation[gameId]._player1address */\n      0x04\n      add\n      sload\n        /* \"Practical6-Apply-TTT-Token.sol\":12205:12262  nextUser(gameInformation[gameId]._player1address, gameId) */\n      0x40\n      dup1\n      mload\n      sub(shl(0xa0, 0x01), 0x01)\n        /* \"Practical6-Apply-TTT-Token.sol\":12214:12253  gameInformation[gameId]._player1address */\n      swap1\n      swap3\n      and\n        /* \"#utility.yul\":20927:20978   */\n      dup3\n      mstore\n        /* \"#utility.yul\":20994:21012   */\n      swap2\n      dup2\n      add\n        /* \"#utility.yul\":20987:21021   */\n      dup5\n      swap1\n      mstore\n        /* \"#utility.yul\":20900:20918   */\n      add\n        /* \"Practical6-Apply-TTT-Token.sol\":12205:12262  nextUser(gameInformation[gameId]._player1address, gameId) */\n      mload(0x40)\n      dup1\n      swap2\n      sub\n      swap1\n      log1\n        /* \"Practical6-Apply-TTT-Token.sol\":11991:12304  if(compareStrings(gameInformation[gameId]._currentPlayer, \"X\")){... */\n    tag_679:\n        /* \"Practical6-Apply-TTT-Token.sol\":12393:12452  compareStrings(gameInformation[gameId]._currentPlayer, \"X\") */\n      tag_684\n        /* \"Practical6-Apply-TTT-Token.sol\":12408:12423  gameInformation */\n      0x07\n        /* \"Practical6-Apply-TTT-Token.sol\":12424:12430  gameId */\n      dup3\n        /* \"Practical6-Apply-TTT-Token.sol\":12408:12431  gameInformation[gameId] */\n      dup2\n      sload\n      dup2\n      lt\n      tag_270\n      jumpi\n      tag_270\n      tag_157\n      jump\t// in\n        /* \"Practical6-Apply-TTT-Token.sol\":12393:12452  compareStrings(gameInformation[gameId]._currentPlayer, \"X\") */\n    tag_684:\n        /* \"Practical6-Apply-TTT-Token.sol\":12392:12465  (compareStrings(gameInformation[gameId]._currentPlayer, \"X\")) ? \"O\" : \"X\" */\n      tag_693\n      jumpi\n      mload(0x40)\n      dup1\n      0x40\n      add\n      0x40\n      mstore\n      dup1\n      0x01\n      dup2\n      mstore\n      0x20\n      add\n      shl(0xfb, 0x0b)\n      dup2\n      mstore\n      pop\n      jump(tag_694)\n    tag_693:\n      mload(0x40)\n      dup1\n      0x40\n      add\n      0x40\n      mstore\n      dup1\n      0x01\n      dup2\n      mstore\n      0x20\n      add\n      shl(0xf8, 0x4f)\n      dup2\n      mstore\n      pop\n    tag_694:\n        /* \"Practical6-Apply-TTT-Token.sol\":12351:12366  gameInformation */\n      0x07\n        /* \"Practical6-Apply-TTT-Token.sol\":12367:12373  gameId */\n      dup3\n        /* \"Practical6-Apply-TTT-Token.sol\":12351:12374  gameInformation[gameId] */\n      dup2\n      sload\n      dup2\n      lt\n      tag_696\n      jumpi\n      tag_696\n      tag_157\n      jump\t// in\n    tag_696:\n      swap1\n      0x00\n      mstore\n      keccak256(0x00, 0x20)\n      swap1\n      0x0b\n      mul\n      add\n        /* \"Practical6-Apply-TTT-Token.sol\":12351:12389  gameInformation[gameId]._currentPlayer */\n      0x01\n      add\n        /* \"Practical6-Apply-TTT-Token.sol\":12351:12465  gameInformation[gameId]._currentPlayer = (compareStrings(gameInformation[gameId]._currentPlayer, \"X\")) ? \"O\" : \"X\" */\n      swap1\n      dup2\n      tag_698\n      swap2\n      swap1\n      tag_149\n      jump\t// in\n    tag_698:\n      pop\n        /* \"Practical6-Apply-TTT-Token.sol\":12527:12586  nextUesrStr(gameInformation[gameId]._currentPlayer, gameId) */\n      0xa6d1cb5f730b987124c37c3876130fddba49456449948ec4257360f5ab2851c0\n        /* \"Practical6-Apply-TTT-Token.sol\":12539:12554  gameInformation */\n      0x07\n        /* \"Practical6-Apply-TTT-Token.sol\":12555:12561  gameId */\n      dup3\n        /* \"Practical6-Apply-TTT-Token.sol\":12539:12562  gameInformation[gameId] */\n      dup2\n      sload\n      dup2\n      lt\n      tag_700\n      jumpi\n      tag_700\n      tag_157\n      jump\t// in\n    tag_700:\n      swap1\n      0x00\n      mstore\n      keccak256(0x00, 0x20)\n      swap1\n      0x0b\n      mul\n      add\n        /* \"Practical6-Apply-TTT-Token.sol\":12539:12577  gameInformation[gameId]._currentPlayer */\n      0x01\n      add\n        /* \"Practical6-Apply-TTT-Token.sol\":12579:12585  gameId */\n      dup3\n        /* \"Practical6-Apply-TTT-Token.sol\":12527:12586  nextUesrStr(gameInformation[gameId]._currentPlayer, gameId) */\n      mload(0x40)\n      tag_245\n      swap3\n      swap2\n      swap1\n      tag_627\n      jump\t// in\n    tag_146:\n      mload(0x40)\n      dup1\n      0x0160\n      add\n      0x40\n      mstore\n      dup1\n      iszero(iszero(0x00))\n      dup2\n      mstore\n      0x20\n      add\n      0x60\n      dup2\n      mstore\n      0x20\n      add\n      0x60\n      dup2\n      mstore\n      0x20\n      add\n      0x60\n      dup2\n      mstore\n      0x20\n      add\n      and(sub(shl(0xa0, 0x01), 0x01), 0x00)\n      dup2\n      mstore\n      0x20\n      add\n      and(sub(shl(0xa0, 0x01), 0x01), 0x00)\n      dup2\n      mstore\n      0x20\n      add\n      0x00\n      dup2\n      mstore\n      0x20\n      add\n      and(sub(shl(0xa0, 0x01), 0x01), 0x00)\n      dup2\n      mstore\n      0x20\n      add\n      0x00\n      dup2\n      mstore\n      0x20\n      add\n      0x00\n      dup2\n      mstore\n      0x20\n      add\n      0x00\n      dup2\n      mstore\n      pop\n      swap1\n      jump\t// out\n    tag_151:\n      dup3\n      dup1\n      sload\n      dup3\n      dup3\n      sstore\n      swap1\n      0x00\n      mstore\n      keccak256(0x00, 0x20)\n      swap1\n      dup2\n      add\n      swap3\n      dup3\n      iszero\n      tag_705\n      jumpi\n      swap2\n      0x20\n      mul\n      dup3\n      add\n    tag_704:\n      dup3\n      dup2\n      gt\n      iszero\n      tag_705\n      jumpi\n      dup3\n      mload\n      dup3\n      swap1\n      tag_706\n      swap1\n      dup3\n      tag_149\n      jump\t// in\n    tag_706:\n      pop\n      swap2\n      0x20\n      add\n      swap2\n      swap1\n      0x01\n      add\n      swap1\n      jump(tag_704)\n    tag_705:\n      pop\n      tag_707\n      swap3\n      swap2\n      pop\n      tag_708\n      jump\t// in\n    tag_707:\n      pop\n      swap1\n      jump\t// out\n    tag_153:\n      dup3\n      dup1\n      sload\n      dup3\n      dup3\n      sstore\n      swap1\n      0x00\n      mstore\n      keccak256(0x00, 0x20)\n      swap1\n      dup2\n      add\n      swap3\n      dup3\n      iszero\n      tag_711\n      jumpi\n      swap2\n      0x20\n      mul\n      dup3\n      add\n    tag_710:\n      dup3\n      dup2\n      gt\n      iszero\n      tag_711\n      jumpi\n      dup3\n      mload\n      dup3\n      sstore\n      swap2\n      0x20\n      add\n      swap2\n      swap1\n      0x01\n      add\n      swap1\n      jump(tag_710)\n    tag_711:\n      pop\n      tag_707\n      swap3\n      swap2\n      pop\n      tag_713\n      jump\t// in\n    tag_241:\n      dup3\n      dup1\n      sload\n      dup3\n      dup3\n      sstore\n      swap1\n      0x00\n      mstore\n      keccak256(0x00, 0x20)\n      swap1\n      dup2\n      add\n      swap3\n      dup3\n      iszero\n      tag_705\n      jumpi\n      swap2\n      0x20\n      mul\n      dup3\n      add\n    tag_715:\n      dup3\n      dup2\n      gt\n      iszero\n      tag_705\n      jumpi\n      dup3\n      mload\n      dup3\n      swap1\n      tag_717\n      swap1\n      dup3\n      tag_149\n      jump\t// in\n    tag_717:\n      pop\n      swap2\n      0x20\n      add\n      swap2\n      swap1\n      0x01\n      add\n      swap1\n      jump(tag_715)\n    tag_708:\n      dup1\n      dup3\n      gt\n      iszero\n      tag_707\n      jumpi\n      0x00\n      tag_721\n      dup3\n      dup3\n      tag_722\n      jump\t// in\n    tag_721:\n      pop\n      0x01\n      add\n      jump(tag_708)\n    tag_713:\n    tag_723:\n      dup1\n      dup3\n      gt\n      iszero\n      tag_707\n      jumpi\n      0x00\n      dup2\n      sstore\n      0x01\n      add\n      jump(tag_723)\n    tag_722:\n      pop\n      dup1\n      sload\n      tag_725\n      swap1\n      tag_217\n      jump\t// in\n    tag_725:\n      0x00\n      dup3\n      sstore\n      dup1\n      0x1f\n      lt\n      tag_727\n      jumpi\n      pop\n      pop\n      jump\t// out\n    tag_727:\n      0x1f\n      add\n      0x20\n      swap1\n      div\n      swap1\n      0x00\n      mstore\n      keccak256(0x00, 0x20)\n      swap1\n      dup2\n      add\n      swap1\n      tag_211\n      swap2\n      swap1\n      tag_713\n      jump\t// in\n        /* \"#utility.yul\":14:194   */\n    tag_29:\n        /* \"#utility.yul\":73:79   */\n      0x00\n        /* \"#utility.yul\":126:128   */\n      0x20\n        /* \"#utility.yul\":114:123   */\n      dup3\n        /* \"#utility.yul\":105:112   */\n      dup5\n        /* \"#utility.yul\":101:124   */\n      sub\n        /* \"#utility.yul\":97:129   */\n      slt\n        /* \"#utility.yul\":94:146   */\n      iszero\n      tag_749\n      jumpi\n        /* \"#utility.yul\":142:143   */\n      0x00\n        /* \"#utility.yul\":139:140   */\n      dup1\n        /* \"#utility.yul\":132:144   */\n      revert\n        /* \"#utility.yul\":94:146   */\n    tag_749:\n      pop\n        /* \"#utility.yul\":165:188   */\n      calldataload\n      swap2\n        /* \"#utility.yul\":14:194   */\n      swap1\n      pop\n      jump\t// out\n        /* \"#utility.yul\":199:831   */\n    tag_35:\n        /* \"#utility.yul\":370:372   */\n      0x20\n        /* \"#utility.yul\":422:443   */\n      dup1\n      dup3\n      mstore\n        /* \"#utility.yul\":492:505   */\n      dup3\n      mload\n        /* \"#utility.yul\":395:413   */\n      dup3\n      dup3\n      add\n        /* \"#utility.yul\":514:536   */\n      dup2\n      swap1\n      mstore\n        /* \"#utility.yul\":341:345   */\n      0x00\n      swap2\n        /* \"#utility.yul\":370:372   */\n      swap1\n        /* \"#utility.yul\":593:608   */\n      dup5\n      dup3\n      add\n      swap1\n        /* \"#utility.yul\":567:569   */\n      0x40\n        /* \"#utility.yul\":552:570   */\n      dup6\n      add\n      swap1\n        /* \"#utility.yul\":341:345   */\n      dup5\n        /* \"#utility.yul\":636:805   */\n    tag_751:\n        /* \"#utility.yul\":650:656   */\n      dup2\n        /* \"#utility.yul\":647:648   */\n      dup2\n        /* \"#utility.yul\":644:657   */\n      lt\n        /* \"#utility.yul\":636:805   */\n      iszero\n      tag_753\n      jumpi\n        /* \"#utility.yul\":711:724   */\n      dup4\n      mload\n        /* \"#utility.yul\":699:725   */\n      dup4\n      mstore\n        /* \"#utility.yul\":780:795   */\n      swap3\n      dup5\n      add\n      swap3\n        /* \"#utility.yul\":745:757   */\n      swap2\n      dup5\n      add\n      swap2\n        /* \"#utility.yul\":672:673   */\n      0x01\n        /* \"#utility.yul\":665:674   */\n      add\n        /* \"#utility.yul\":636:805   */\n      jump(tag_751)\n    tag_753:\n      pop\n        /* \"#utility.yul\":822:825   */\n      swap1\n      swap7\n        /* \"#utility.yul\":199:831   */\n      swap6\n      pop\n      pop\n      pop\n      pop\n      pop\n      pop\n      jump\t// out\n        /* \"#utility.yul\":1114:1364   */\n    tag_730:\n        /* \"#utility.yul\":1199:1200   */\n      0x00\n        /* \"#utility.yul\":1209:1322   */\n    tag_757:\n        /* \"#utility.yul\":1223:1229   */\n      dup4\n        /* \"#utility.yul\":1220:1221   */\n      dup2\n        /* \"#utility.yul\":1217:1230   */\n      lt\n        /* \"#utility.yul\":1209:1322   */\n      iszero\n      tag_759\n      jumpi\n        /* \"#utility.yul\":1299:1310   */\n      dup2\n      dup2\n      add\n        /* \"#utility.yul\":1293:1311   */\n      mload\n        /* \"#utility.yul\":1280:1291   */\n      dup4\n      dup3\n      add\n        /* \"#utility.yul\":1273:1312   */\n      mstore\n        /* \"#utility.yul\":1245:1247   */\n      0x20\n        /* \"#utility.yul\":1238:1248   */\n      add\n        /* \"#utility.yul\":1209:1322   */\n      jump(tag_757)\n    tag_759:\n      pop\n      pop\n        /* \"#utility.yul\":1356:1357   */\n      0x00\n        /* \"#utility.yul\":1338:1354   */\n      swap2\n      add\n        /* \"#utility.yul\":1331:1358   */\n      mstore\n        /* \"#utility.yul\":1114:1364   */\n      jump\t// out\n        /* \"#utility.yul\":1369:1640   */\n    tag_731:\n        /* \"#utility.yul\":1411:1414   */\n      0x00\n        /* \"#utility.yul\":1449:1454   */\n      dup2\n        /* \"#utility.yul\":1443:1455   */\n      mload\n        /* \"#utility.yul\":1476:1482   */\n      dup1\n        /* \"#utility.yul\":1471:1474   */\n      dup5\n        /* \"#utility.yul\":1464:1483   */\n      mstore\n        /* \"#utility.yul\":1492:1568   */\n      tag_761\n        /* \"#utility.yul\":1561:1567   */\n      dup2\n        /* \"#utility.yul\":1554:1558   */\n      0x20\n        /* \"#utility.yul\":1549:1552   */\n      dup7\n        /* \"#utility.yul\":1545:1559   */\n      add\n        /* \"#utility.yul\":1538:1542   */\n      0x20\n        /* \"#utility.yul\":1531:1536   */\n      dup7\n        /* \"#utility.yul\":1527:1543   */\n      add\n        /* \"#utility.yul\":1492:1568   */\n      tag_730\n      jump\t// in\n    tag_761:\n        /* \"#utility.yul\":1622:1624   */\n      0x1f\n        /* \"#utility.yul\":1601:1616   */\n      add\n      not(0x1f)\n        /* \"#utility.yul\":1597:1626   */\n      and\n        /* \"#utility.yul\":1588:1627   */\n      swap3\n      swap1\n      swap3\n      add\n        /* \"#utility.yul\":1629:1633   */\n      0x20\n        /* \"#utility.yul\":1584:1634   */\n      add\n      swap3\n        /* \"#utility.yul\":1369:1640   */\n      swap2\n      pop\n      pop\n      jump\t// out\n        /* \"#utility.yul\":1645:2237   */\n    tag_732:\n        /* \"#utility.yul\":1697:1700   */\n      0x00\n        /* \"#utility.yul\":1728:1731   */\n      dup3\n        /* \"#utility.yul\":1760:1765   */\n      dup3\n        /* \"#utility.yul\":1754:1766   */\n      mload\n        /* \"#utility.yul\":1787:1793   */\n      dup1\n        /* \"#utility.yul\":1782:1785   */\n      dup6\n        /* \"#utility.yul\":1775:1794   */\n      mstore\n        /* \"#utility.yul\":1813:1817   */\n      0x20\n        /* \"#utility.yul\":1842:1844   */\n      dup1\n        /* \"#utility.yul\":1837:1840   */\n      dup7\n        /* \"#utility.yul\":1833:1845   */\n      add\n        /* \"#utility.yul\":1826:1845   */\n      swap6\n      pop\n        /* \"#utility.yul\":1898:1900   */\n      dup1\n        /* \"#utility.yul\":1888:1894   */\n      dup3\n        /* \"#utility.yul\":1885:1886   */\n      0x05\n        /* \"#utility.yul\":1881:1895   */\n      shl\n        /* \"#utility.yul\":1874:1879   */\n      dup5\n        /* \"#utility.yul\":1870:1896   */\n      add\n        /* \"#utility.yul\":1866:1901   */\n      add\n        /* \"#utility.yul\":1935:1937   */\n      dup2\n        /* \"#utility.yul\":1928:1933   */\n      dup7\n        /* \"#utility.yul\":1924:1938   */\n      add\n        /* \"#utility.yul\":1956:1957   */\n      0x00\n        /* \"#utility.yul\":1966:2211   */\n    tag_763:\n        /* \"#utility.yul\":1980:1986   */\n      dup5\n        /* \"#utility.yul\":1977:1978   */\n      dup2\n        /* \"#utility.yul\":1974:1987   */\n      lt\n        /* \"#utility.yul\":1966:2211   */\n      iszero\n      tag_765\n      jumpi\n        /* \"#utility.yul\":2067:2069   */\n      0x1f\n        /* \"#utility.yul\":2063:2070   */\n      not\n        /* \"#utility.yul\":2055:2060   */\n      dup7\n        /* \"#utility.yul\":2049:2053   */\n      dup5\n        /* \"#utility.yul\":2045:2061   */\n      sub\n        /* \"#utility.yul\":2041:2071   */\n      add\n        /* \"#utility.yul\":2036:2039   */\n      dup10\n        /* \"#utility.yul\":2029:2072   */\n      mstore\n        /* \"#utility.yul\":2093:2131   */\n      tag_766\n        /* \"#utility.yul\":2126:2130   */\n      dup4\n        /* \"#utility.yul\":2117:2123   */\n      dup4\n        /* \"#utility.yul\":2111:2124   */\n      mload\n        /* \"#utility.yul\":2093:2131   */\n      tag_731\n      jump\t// in\n    tag_766:\n        /* \"#utility.yul\":2189:2201   */\n      swap9\n      dup5\n      add\n      swap9\n        /* \"#utility.yul\":2085:2131   */\n      swap3\n      pop\n        /* \"#utility.yul\":2154:2169   */\n      swap1\n      dup4\n      add\n      swap1\n        /* \"#utility.yul\":2002:2003   */\n      0x01\n        /* \"#utility.yul\":1995:2004   */\n      add\n        /* \"#utility.yul\":1966:2211   */\n      jump(tag_763)\n    tag_765:\n      pop\n        /* \"#utility.yul\":2227:2231   */\n      swap1\n      swap8\n        /* \"#utility.yul\":1645:2237   */\n      swap7\n      pop\n      pop\n      pop\n      pop\n      pop\n      pop\n      pop\n      jump\t// out\n        /* \"#utility.yul\":2242:2677   */\n    tag_733:\n        /* \"#utility.yul\":2295:2298   */\n      0x00\n        /* \"#utility.yul\":2333:2338   */\n      dup2\n        /* \"#utility.yul\":2327:2339   */\n      mload\n        /* \"#utility.yul\":2360:2366   */\n      dup1\n        /* \"#utility.yul\":2355:2358   */\n      dup5\n        /* \"#utility.yul\":2348:2367   */\n      mstore\n        /* \"#utility.yul\":2386:2390   */\n      0x20\n        /* \"#utility.yul\":2415:2417   */\n      dup1\n        /* \"#utility.yul\":2410:2413   */\n      dup6\n        /* \"#utility.yul\":2406:2418   */\n      add\n        /* \"#utility.yul\":2399:2418   */\n      swap5\n      pop\n        /* \"#utility.yul\":2452:2454   */\n      dup1\n        /* \"#utility.yul\":2445:2450   */\n      dup5\n        /* \"#utility.yul\":2441:2455   */\n      add\n        /* \"#utility.yul\":2473:2474   */\n      0x00\n        /* \"#utility.yul\":2483:2652   */\n    tag_768:\n        /* \"#utility.yul\":2497:2503   */\n      dup4\n        /* \"#utility.yul\":2494:2495   */\n      dup2\n        /* \"#utility.yul\":2491:2504   */\n      lt\n        /* \"#utility.yul\":2483:2652   */\n      iszero\n      tag_770\n      jumpi\n        /* \"#utility.yul\":2558:2571   */\n      dup2\n      mload\n        /* \"#utility.yul\":2546:2572   */\n      dup8\n      mstore\n        /* \"#utility.yul\":2592:2604   */\n      swap6\n      dup3\n      add\n      swap6\n        /* \"#utility.yul\":2627:2642   */\n      swap1\n      dup3\n      add\n      swap1\n        /* \"#utility.yul\":2519:2520   */\n      0x01\n        /* \"#utility.yul\":2512:2521   */\n      add\n        /* \"#utility.yul\":2483:2652   */\n      jump(tag_768)\n    tag_770:\n      pop\n        /* \"#utility.yul\":2668:2671   */\n      swap5\n      swap6\n        /* \"#utility.yul\":2242:2677   */\n      swap5\n      pop\n      pop\n      pop\n      pop\n      pop\n      jump\t// out\n        /* \"#utility.yul\":2791:4077   */\n    tag_735:\n        /* \"#utility.yul\":2901:2913   */\n      dup1\n      mload\n        /* \"#utility.yul\":1088:1101   */\n      iszero\n        /* \"#utility.yul\":1081:1102   */\n      iszero\n        /* \"#utility.yul\":1069:1103   */\n      dup3\n      mstore\n        /* \"#utility.yul\":2842:2845   */\n      0x00\n        /* \"#utility.yul\":2870:2876   */\n      0x0160\n        /* \"#utility.yul\":2965:2969   */\n      0x20\n        /* \"#utility.yul\":2958:2963   */\n      dup4\n        /* \"#utility.yul\":2954:2970   */\n      add\n        /* \"#utility.yul\":2948:2971   */\n      mload\n        /* \"#utility.yul\":3003:3005   */\n      dup2\n        /* \"#utility.yul\":2996:3000   */\n      0x20\n        /* \"#utility.yul\":2991:2994   */\n      dup7\n        /* \"#utility.yul\":2987:3001   */\n      add\n        /* \"#utility.yul\":2980:3006   */\n      mstore\n        /* \"#utility.yul\":3027:3072   */\n      tag_774\n        /* \"#utility.yul\":3068:3070   */\n      dup3\n        /* \"#utility.yul\":3063:3066   */\n      dup7\n        /* \"#utility.yul\":3059:3071   */\n      add\n        /* \"#utility.yul\":3045:3057   */\n      dup3\n        /* \"#utility.yul\":3027:3072   */\n      tag_731\n      jump\t// in\n    tag_774:\n        /* \"#utility.yul\":3015:3072   */\n      swap2\n      pop\n      pop\n        /* \"#utility.yul\":3120:3124   */\n      0x40\n        /* \"#utility.yul\":3113:3118   */\n      dup4\n        /* \"#utility.yul\":3109:3125   */\n      add\n        /* \"#utility.yul\":3103:3126   */\n      mload\n        /* \"#utility.yul\":3168:3171   */\n      dup5\n        /* \"#utility.yul\":3162:3166   */\n      dup3\n        /* \"#utility.yul\":3158:3172   */\n      sub\n        /* \"#utility.yul\":3151:3155   */\n      0x40\n        /* \"#utility.yul\":3146:3149   */\n      dup7\n        /* \"#utility.yul\":3142:3156   */\n      add\n        /* \"#utility.yul\":3135:3173   */\n      mstore\n        /* \"#utility.yul\":3196:3245   */\n      tag_775\n        /* \"#utility.yul\":3240:3244   */\n      dup3\n        /* \"#utility.yul\":3224:3238   */\n      dup3\n        /* \"#utility.yul\":3196:3245   */\n      tag_732\n      jump\t// in\n    tag_775:\n        /* \"#utility.yul\":3182:3245   */\n      swap2\n      pop\n      pop\n        /* \"#utility.yul\":3293:3297   */\n      0x60\n        /* \"#utility.yul\":3286:3291   */\n      dup4\n        /* \"#utility.yul\":3282:3298   */\n      add\n        /* \"#utility.yul\":3276:3299   */\n      mload\n        /* \"#utility.yul\":3343:3346   */\n      dup5\n        /* \"#utility.yul\":3335:3341   */\n      dup3\n        /* \"#utility.yul\":3331:3347   */\n      sub\n        /* \"#utility.yul\":3324:3328   */\n      0x60\n        /* \"#utility.yul\":3319:3322   */\n      dup7\n        /* \"#utility.yul\":3315:3329   */\n      add\n        /* \"#utility.yul\":3308:3348   */\n      mstore\n        /* \"#utility.yul\":3371:3423   */\n      tag_776\n        /* \"#utility.yul\":3416:3422   */\n      dup3\n        /* \"#utility.yul\":3400:3414   */\n      dup3\n        /* \"#utility.yul\":3371:3423   */\n      tag_733\n      jump\t// in\n    tag_776:\n        /* \"#utility.yul\":3357:3423   */\n      swap2\n      pop\n      pop\n        /* \"#utility.yul\":3471:3475   */\n      0x80\n        /* \"#utility.yul\":3464:3469   */\n      dup4\n        /* \"#utility.yul\":3460:3476   */\n      add\n        /* \"#utility.yul\":3454:3477   */\n      mload\n        /* \"#utility.yul\":3486:3536   */\n      tag_777\n        /* \"#utility.yul\":3530:3534   */\n      0x80\n        /* \"#utility.yul\":3525:3528   */\n      dup7\n        /* \"#utility.yul\":3521:3535   */\n      add\n        /* \"#utility.yul\":3505:3519   */\n      dup3\n      sub(shl(0xa0, 0x01), 0x01)\n        /* \"#utility.yul\":2748:2779   */\n      and\n        /* \"#utility.yul\":2736:2780   */\n      swap1\n      mstore\n        /* \"#utility.yul\":2682:2786   */\n      jump\n        /* \"#utility.yul\":3486:3536   */\n    tag_777:\n      pop\n        /* \"#utility.yul\":3584:3588   */\n      0xa0\n        /* \"#utility.yul\":3577:3582   */\n      dup4\n        /* \"#utility.yul\":3573:3589   */\n      add\n        /* \"#utility.yul\":3567:3590   */\n      mload\n        /* \"#utility.yul\":3599:3649   */\n      tag_778\n        /* \"#utility.yul\":3643:3647   */\n      0xa0\n        /* \"#utility.yul\":3638:3641   */\n      dup7\n        /* \"#utility.yul\":3634:3648   */\n      add\n        /* \"#utility.yul\":3618:3632   */\n      dup3\n      sub(shl(0xa0, 0x01), 0x01)\n        /* \"#utility.yul\":2748:2779   */\n      and\n        /* \"#utility.yul\":2736:2780   */\n      swap1\n      mstore\n        /* \"#utility.yul\":2682:2786   */\n      jump\n        /* \"#utility.yul\":3599:3649   */\n    tag_778:\n      pop\n        /* \"#utility.yul\":3698:3702   */\n      0xc0\n        /* \"#utility.yul\":3691:3696   */\n      dup4\n        /* \"#utility.yul\":3687:3703   */\n      add\n        /* \"#utility.yul\":3681:3704   */\n      mload\n        /* \"#utility.yul\":3674:3678   */\n      0xc0\n        /* \"#utility.yul\":3669:3672   */\n      dup6\n        /* \"#utility.yul\":3665:3679   */\n      add\n        /* \"#utility.yul\":3658:3705   */\n      mstore\n        /* \"#utility.yul\":3753:3757   */\n      0xe0\n        /* \"#utility.yul\":3746:3751   */\n      dup4\n        /* \"#utility.yul\":3742:3758   */\n      add\n        /* \"#utility.yul\":3736:3759   */\n      mload\n        /* \"#utility.yul\":3768:3818   */\n      tag_779\n        /* \"#utility.yul\":3812:3816   */\n      0xe0\n        /* \"#utility.yul\":3807:3810   */\n      dup7\n        /* \"#utility.yul\":3803:3817   */\n      add\n        /* \"#utility.yul\":3787:3801   */\n      dup3\n      sub(shl(0xa0, 0x01), 0x01)\n        /* \"#utility.yul\":2748:2779   */\n      and\n        /* \"#utility.yul\":2736:2780   */\n      swap1\n      mstore\n        /* \"#utility.yul\":2682:2786   */\n      jump\n        /* \"#utility.yul\":3768:3818   */\n    tag_779:\n      pop\n        /* \"#utility.yul\":3837:3843   */\n      0x0100\n        /* \"#utility.yul\":3879:3893   */\n      dup4\n      dup2\n      add\n        /* \"#utility.yul\":3873:3894   */\n      mload\n        /* \"#utility.yul\":3859:3871   */\n      swap1\n      dup6\n      add\n        /* \"#utility.yul\":3852:3895   */\n      mstore\n        /* \"#utility.yul\":3914:3920   */\n      0x0120\n        /* \"#utility.yul\":3956:3970   */\n      dup1\n      dup5\n      add\n        /* \"#utility.yul\":3950:3971   */\n      mload\n        /* \"#utility.yul\":3936:3948   */\n      swap1\n      dup6\n      add\n        /* \"#utility.yul\":3929:3972   */\n      mstore\n        /* \"#utility.yul\":3991:3997   */\n      0x0140\n        /* \"#utility.yul\":4033:4047   */\n      swap3\n      dup4\n      add\n        /* \"#utility.yul\":4027:4048   */\n      mload\n        /* \"#utility.yul\":4013:4025   */\n      swap3\n      swap1\n      swap4\n      add\n        /* \"#utility.yul\":4006:4049   */\n      swap2\n      swap1\n      swap2\n      mstore\n      pop\n        /* \"#utility.yul\":4065:4071   */\n      swap1\n        /* \"#utility.yul\":2791:4077   */\n      jump\t// out\n        /* \"#utility.yul\":4082:4924   */\n    tag_46:\n        /* \"#utility.yul\":4274:4278   */\n      0x00\n        /* \"#utility.yul\":4303:4305   */\n      0x20\n        /* \"#utility.yul\":4343:4345   */\n      dup1\n        /* \"#utility.yul\":4332:4341   */\n      dup4\n        /* \"#utility.yul\":4328:4346   */\n      add\n        /* \"#utility.yul\":4373:4375   */\n      dup2\n        /* \"#utility.yul\":4362:4371   */\n      dup5\n        /* \"#utility.yul\":4355:4376   */\n      mstore\n        /* \"#utility.yul\":4396:4402   */\n      dup1\n        /* \"#utility.yul\":4431:4437   */\n      dup6\n        /* \"#utility.yul\":4425:4438   */\n      mload\n        /* \"#utility.yul\":4462:4468   */\n      dup1\n        /* \"#utility.yul\":4454:4460   */\n      dup4\n        /* \"#utility.yul\":4447:4469   */\n      mstore\n        /* \"#utility.yul\":4500:4502   */\n      0x40\n        /* \"#utility.yul\":4489:4498   */\n      dup7\n        /* \"#utility.yul\":4485:4503   */\n      add\n        /* \"#utility.yul\":4478:4503   */\n      swap2\n      pop\n        /* \"#utility.yul\":4562:4564   */\n      0x40\n        /* \"#utility.yul\":4552:4558   */\n      dup2\n        /* \"#utility.yul\":4549:4550   */\n      0x05\n        /* \"#utility.yul\":4545:4559   */\n      shl\n        /* \"#utility.yul\":4534:4543   */\n      dup8\n        /* \"#utility.yul\":4530:4560   */\n      add\n        /* \"#utility.yul\":4526:4565   */\n      add\n        /* \"#utility.yul\":4512:4565   */\n      swap3\n      pop\n        /* \"#utility.yul\":4600:4602   */\n      dup4\n        /* \"#utility.yul\":4592:4598   */\n      dup8\n        /* \"#utility.yul\":4588:4603   */\n      add\n        /* \"#utility.yul\":4621:4622   */\n      0x00\n        /* \"#utility.yul\":4631:4895   */\n    tag_781:\n        /* \"#utility.yul\":4645:4651   */\n      dup3\n        /* \"#utility.yul\":4642:4643   */\n      dup2\n        /* \"#utility.yul\":4639:4652   */\n      lt\n        /* \"#utility.yul\":4631:4895   */\n      iszero\n      tag_783\n      jumpi\n        /* \"#utility.yul\":4738:4740   */\n      0x3f\n        /* \"#utility.yul\":4734:4741   */\n      not\n        /* \"#utility.yul\":4722:4731   */\n      dup9\n        /* \"#utility.yul\":4714:4720   */\n      dup7\n        /* \"#utility.yul\":4710:4732   */\n      sub\n        /* \"#utility.yul\":4706:4742   */\n      add\n        /* \"#utility.yul\":4701:4704   */\n      dup5\n        /* \"#utility.yul\":4694:4743   */\n      mstore\n        /* \"#utility.yul\":4766:4815   */\n      tag_784\n        /* \"#utility.yul\":4808:4814   */\n      dup6\n        /* \"#utility.yul\":4799:4805   */\n      dup4\n        /* \"#utility.yul\":4793:4806   */\n      mload\n        /* \"#utility.yul\":4766:4815   */\n      tag_735\n      jump\t// in\n    tag_784:\n        /* \"#utility.yul\":4756:4815   */\n      swap5\n      pop\n        /* \"#utility.yul\":4873:4885   */\n      swap3\n      dup6\n      add\n      swap3\n        /* \"#utility.yul\":4838:4853   */\n      swap1\n      dup6\n      add\n      swap1\n        /* \"#utility.yul\":4667:4668   */\n      0x01\n        /* \"#utility.yul\":4660:4669   */\n      add\n        /* \"#utility.yul\":4631:4895   */\n      jump(tag_781)\n    tag_783:\n      pop\n        /* \"#utility.yul\":4912:4918   */\n      swap3\n      swap8\n        /* \"#utility.yul\":4082:4924   */\n      swap7\n      pop\n      pop\n      pop\n      pop\n      pop\n      pop\n      pop\n      jump\t// out\n        /* \"#utility.yul\":4929:5177   */\n    tag_52:\n        /* \"#utility.yul\":4997:5003   */\n      0x00\n        /* \"#utility.yul\":5005:5011   */\n      dup1\n        /* \"#utility.yul\":5058:5060   */\n      0x40\n        /* \"#utility.yul\":5046:5055   */\n      dup4\n        /* \"#utility.yul\":5037:5044   */\n      dup6\n        /* \"#utility.yul\":5033:5056   */\n      sub\n        /* \"#utility.yul\":5029:5061   */\n      slt\n        /* \"#utility.yul\":5026:5078   */\n      iszero\n      tag_786\n      jumpi\n        /* \"#utility.yul\":5074:5075   */\n      0x00\n        /* \"#utility.yul\":5071:5072   */\n      dup1\n        /* \"#utility.yul\":5064:5076   */\n      revert\n        /* \"#utility.yul\":5026:5078   */\n    tag_786:\n      pop\n      pop\n        /* \"#utility.yul\":5097:5120   */\n      dup1\n      calldataload\n      swap3\n        /* \"#utility.yul\":5167:5169   */\n      0x20\n        /* \"#utility.yul\":5152:5170   */\n      swap1\n      swap2\n      add\n        /* \"#utility.yul\":5139:5171   */\n      calldataload\n      swap2\n      pop\n        /* \"#utility.yul\":4929:5177   */\n      jump\t// out\n        /* \"#utility.yul\":5611:6501   */\n    tag_66:\n        /* \"#utility.yul\":5941:5945   */\n      0x00\n        /* \"#utility.yul\":5970:5973   */\n      0x0120\n        /* \"#utility.yul\":6014:6020   */\n      dup12\n        /* \"#utility.yul\":6007:6021   */\n      iszero\n        /* \"#utility.yul\":6000:6022   */\n      iszero\n        /* \"#utility.yul\":5989:5998   */\n      dup4\n        /* \"#utility.yul\":5982:6023   */\n      mstore\n        /* \"#utility.yul\":6059:6061   */\n      dup1\n        /* \"#utility.yul\":6054:6056   */\n      0x20\n        /* \"#utility.yul\":6043:6052   */\n      dup5\n        /* \"#utility.yul\":6039:6057   */\n      add\n        /* \"#utility.yul\":6032:6062   */\n      mstore\n        /* \"#utility.yul\":6079:6124   */\n      tag_790\n        /* \"#utility.yul\":6120:6122   */\n      dup2\n        /* \"#utility.yul\":6109:6118   */\n      dup5\n        /* \"#utility.yul\":6105:6123   */\n      add\n        /* \"#utility.yul\":6097:6103   */\n      dup13\n        /* \"#utility.yul\":6079:6124   */\n      tag_731\n      jump\t// in\n    tag_790:\n      sub(shl(0xa0, 0x01), 0x01)\n        /* \"#utility.yul\":6198:6213   */\n      swap11\n      dup12\n      and\n        /* \"#utility.yul\":6193:6195   */\n      0x40\n        /* \"#utility.yul\":6178:6196   */\n      dup6\n      add\n        /* \"#utility.yul\":6171:6214   */\n      mstore\n        /* \"#utility.yul\":6250:6265   */\n      swap9\n      dup11\n      and\n        /* \"#utility.yul\":6245:6247   */\n      0x60\n        /* \"#utility.yul\":6230:6248   */\n      dup5\n      add\n        /* \"#utility.yul\":6223:6266   */\n      mstore\n      pop\n      pop\n        /* \"#utility.yul\":6297:6300   */\n      0x80\n        /* \"#utility.yul\":6282:6301   */\n      dup2\n      add\n        /* \"#utility.yul\":6275:6310   */\n      swap6\n      swap1\n      swap6\n      mstore\n        /* \"#utility.yul\":6347:6362   */\n      swap3\n      swap1\n      swap6\n      and\n        /* \"#utility.yul\":6151:6154   */\n      0xa0\n        /* \"#utility.yul\":6326:6345   */\n      dup5\n      add\n        /* \"#utility.yul\":6319:6363   */\n      mstore\n        /* \"#utility.yul\":6394:6397   */\n      0xc0\n        /* \"#utility.yul\":6379:6398   */\n      dup4\n      add\n        /* \"#utility.yul\":6372:6407   */\n      mstore\n        /* \"#utility.yul\":6438:6441   */\n      0xe0\n        /* \"#utility.yul\":6423:6442   */\n      dup3\n      add\n        /* \"#utility.yul\":6416:6451   */\n      swap4\n      swap1\n      swap4\n      mstore\n        /* \"#utility.yul\":6482:6485   */\n      0x0100\n        /* \"#utility.yul\":6467:6486   */\n      add\n        /* \"#utility.yul\":6460:6495   */\n      swap2\n      swap1\n      swap2\n      mstore\n        /* \"#utility.yul\":6071:6124   */\n      swap3\n        /* \"#utility.yul\":5611:6501   */\n      swap2\n      pop\n      pop\n      jump\t// out\n        /* \"#utility.yul\":6506:6765   */\n    tag_76:\n        /* \"#utility.yul\":6685:6687   */\n      0x20\n        /* \"#utility.yul\":6674:6683   */\n      dup2\n        /* \"#utility.yul\":6667:6688   */\n      mstore\n        /* \"#utility.yul\":6648:6652   */\n      0x00\n        /* \"#utility.yul\":6705:6759   */\n      tag_792\n        /* \"#utility.yul\":6755:6757   */\n      0x20\n        /* \"#utility.yul\":6744:6753   */\n      dup4\n        /* \"#utility.yul\":6740:6758   */\n      add\n        /* \"#utility.yul\":6732:6738   */\n      dup5\n        /* \"#utility.yul\":6705:6759   */\n      tag_735\n      jump\t// in\n    tag_792:\n        /* \"#utility.yul\":6697:6759   */\n      swap4\n        /* \"#utility.yul\":6506:6765   */\n      swap3\n      pop\n      pop\n      pop\n      jump\t// out\n        /* \"#utility.yul\":6770:6897   */\n    tag_736:\n        /* \"#utility.yul\":6831:6841   */\n      0x4e487b71\n        /* \"#utility.yul\":6826:6829   */\n      0xe0\n        /* \"#utility.yul\":6822:6842   */\n      shl\n        /* \"#utility.yul\":6819:6820   */\n      0x00\n        /* \"#utility.yul\":6812:6843   */\n      mstore\n        /* \"#utility.yul\":6862:6866   */\n      0x41\n        /* \"#utility.yul\":6859:6860   */\n      0x04\n        /* \"#utility.yul\":6852:6867   */\n      mstore\n        /* \"#utility.yul\":6886:6890   */\n      0x24\n        /* \"#utility.yul\":6883:6884   */\n      0x00\n        /* \"#utility.yul\":6876:6891   */\n      revert\n        /* \"#utility.yul\":6902:7621   */\n    tag_737:\n        /* \"#utility.yul\":6945:6950   */\n      0x00\n        /* \"#utility.yul\":6998:7001   */\n      dup3\n        /* \"#utility.yul\":6991:6995   */\n      0x1f\n        /* \"#utility.yul\":6983:6989   */\n      dup4\n        /* \"#utility.yul\":6979:6996   */\n      add\n        /* \"#utility.yul\":6975:7002   */\n      slt\n        /* \"#utility.yul\":6965:7020   */\n      tag_795\n      jumpi\n        /* \"#utility.yul\":7016:7017   */\n      0x00\n        /* \"#utility.yul\":7013:7014   */\n      dup1\n        /* \"#utility.yul\":7006:7018   */\n      revert\n        /* \"#utility.yul\":6965:7020   */\n    tag_795:\n        /* \"#utility.yul\":7052:7058   */\n      dup2\n        /* \"#utility.yul\":7039:7059   */\n      calldataload\n        /* \"#utility.yul\":7078:7096   */\n      0xffffffffffffffff\n        /* \"#utility.yul\":7115:7117   */\n      dup1\n        /* \"#utility.yul\":7111:7113   */\n      dup3\n        /* \"#utility.yul\":7108:7118   */\n      gt\n        /* \"#utility.yul\":7105:7141   */\n      iszero\n      tag_797\n      jumpi\n        /* \"#utility.yul\":7121:7139   */\n      tag_797\n      tag_736\n      jump\t// in\n    tag_797:\n        /* \"#utility.yul\":7196:7198   */\n      0x40\n        /* \"#utility.yul\":7190:7199   */\n      mload\n        /* \"#utility.yul\":7164:7166   */\n      0x1f\n        /* \"#utility.yul\":7250:7263   */\n      dup4\n      add\n      not(0x1f)\n        /* \"#utility.yul\":7246:7268   */\n      swap1\n      dup2\n      and\n        /* \"#utility.yul\":7270:7272   */\n      0x3f\n        /* \"#utility.yul\":7242:7273   */\n      add\n        /* \"#utility.yul\":7238:7278   */\n      and\n        /* \"#utility.yul\":7226:7279   */\n      dup2\n      add\n      swap1\n        /* \"#utility.yul\":7294:7312   */\n      dup3\n      dup3\n      gt\n        /* \"#utility.yul\":7314:7336   */\n      dup2\n      dup4\n      lt\n        /* \"#utility.yul\":7291:7337   */\n      or\n        /* \"#utility.yul\":7288:7360   */\n      iszero\n      tag_799\n      jumpi\n        /* \"#utility.yul\":7340:7358   */\n      tag_799\n      tag_736\n      jump\t// in\n    tag_799:\n        /* \"#utility.yul\":7380:7390   */\n      dup2\n        /* \"#utility.yul\":7376:7378   */\n      0x40\n        /* \"#utility.yul\":7369:7391   */\n      mstore\n        /* \"#utility.yul\":7415:7417   */\n      dup4\n        /* \"#utility.yul\":7407:7413   */\n      dup2\n        /* \"#utility.yul\":7400:7418   */\n      mstore\n        /* \"#utility.yul\":7461:7464   */\n      dup7\n        /* \"#utility.yul\":7454:7458   */\n      0x20\n        /* \"#utility.yul\":7449:7451   */\n      dup6\n        /* \"#utility.yul\":7441:7447   */\n      dup9\n        /* \"#utility.yul\":7437:7452   */\n      add\n        /* \"#utility.yul\":7433:7459   */\n      add\n        /* \"#utility.yul\":7430:7465   */\n      gt\n        /* \"#utility.yul\":7427:7482   */\n      iszero\n      tag_800\n      jumpi\n        /* \"#utility.yul\":7478:7479   */\n      0x00\n        /* \"#utility.yul\":7475:7476   */\n      dup1\n        /* \"#utility.yul\":7468:7480   */\n      revert\n        /* \"#utility.yul\":7427:7482   */\n    tag_800:\n        /* \"#utility.yul\":7542:7544   */\n      dup4\n        /* \"#utility.yul\":7535:7539   */\n      0x20\n        /* \"#utility.yul\":7527:7533   */\n      dup8\n        /* \"#utility.yul\":7523:7540   */\n      add\n        /* \"#utility.yul\":7516:7520   */\n      0x20\n        /* \"#utility.yul\":7508:7514   */\n      dup4\n        /* \"#utility.yul\":7504:7521   */\n      add\n        /* \"#utility.yul\":7491:7545   */\n      calldatacopy\n        /* \"#utility.yul\":7589:7590   */\n      0x00\n        /* \"#utility.yul\":7582:7586   */\n      0x20\n        /* \"#utility.yul\":7577:7579   */\n      dup6\n        /* \"#utility.yul\":7569:7575   */\n      dup4\n        /* \"#utility.yul\":7565:7580   */\n      add\n        /* \"#utility.yul\":7561:7587   */\n      add\n        /* \"#utility.yul\":7554:7591   */\n      mstore\n        /* \"#utility.yul\":7609:7615   */\n      dup1\n        /* \"#utility.yul\":7600:7615   */\n      swap5\n      pop\n      pop\n      pop\n      pop\n      pop\n        /* \"#utility.yul\":6902:7621   */\n      swap3\n      swap2\n      pop\n      pop\n      jump\t// out\n        /* \"#utility.yul\":7626:8169   */\n    tag_84:\n        /* \"#utility.yul\":7714:7720   */\n      0x00\n        /* \"#utility.yul\":7722:7728   */\n      dup1\n        /* \"#utility.yul\":7775:7777   */\n      0x40\n        /* \"#utility.yul\":7763:7772   */\n      dup4\n        /* \"#utility.yul\":7754:7761   */\n      dup6\n        /* \"#utility.yul\":7750:7773   */\n      sub\n        /* \"#utility.yul\":7746:7778   */\n      slt\n        /* \"#utility.yul\":7743:7795   */\n      iszero\n      tag_802\n      jumpi\n        /* \"#utility.yul\":7791:7792   */\n      0x00\n        /* \"#utility.yul\":7788:7789   */\n      dup1\n        /* \"#utility.yul\":7781:7793   */\n      revert\n        /* \"#utility.yul\":7743:7795   */\n    tag_802:\n        /* \"#utility.yul\":7831:7840   */\n      dup3\n        /* \"#utility.yul\":7818:7841   */\n      calldataload\n        /* \"#utility.yul\":7860:7878   */\n      0xffffffffffffffff\n        /* \"#utility.yul\":7901:7903   */\n      dup1\n        /* \"#utility.yul\":7893:7899   */\n      dup3\n        /* \"#utility.yul\":7890:7904   */\n      gt\n        /* \"#utility.yul\":7887:7921   */\n      iszero\n      tag_803\n      jumpi\n        /* \"#utility.yul\":7917:7918   */\n      0x00\n        /* \"#utility.yul\":7914:7915   */\n      dup1\n        /* \"#utility.yul\":7907:7919   */\n      revert\n        /* \"#utility.yul\":7887:7921   */\n    tag_803:\n        /* \"#utility.yul\":7940:7990   */\n      tag_804\n        /* \"#utility.yul\":7982:7989   */\n      dup7\n        /* \"#utility.yul\":7973:7979   */\n      dup4\n        /* \"#utility.yul\":7962:7971   */\n      dup8\n        /* \"#utility.yul\":7958:7980   */\n      add\n        /* \"#utility.yul\":7940:7990   */\n      tag_737\n      jump\t// in\n    tag_804:\n        /* \"#utility.yul\":7930:7990   */\n      swap4\n      pop\n        /* \"#utility.yul\":8043:8045   */\n      0x20\n        /* \"#utility.yul\":8032:8041   */\n      dup6\n        /* \"#utility.yul\":8028:8046   */\n      add\n        /* \"#utility.yul\":8015:8047   */\n      calldataload\n        /* \"#utility.yul\":7999:8047   */\n      swap2\n      pop\n        /* \"#utility.yul\":8072:8074   */\n      dup1\n        /* \"#utility.yul\":8062:8070   */\n      dup3\n        /* \"#utility.yul\":8059:8075   */\n      gt\n        /* \"#utility.yul\":8056:8092   */\n      iszero\n      tag_805\n      jumpi\n        /* \"#utility.yul\":8088:8089   */\n      0x00\n        /* \"#utility.yul\":8085:8086   */\n      dup1\n        /* \"#utility.yul\":8078:8090   */\n      revert\n        /* \"#utility.yul\":8056:8092   */\n    tag_805:\n      pop\n        /* \"#utility.yul\":8111:8163   */\n      tag_806\n        /* \"#utility.yul\":8155:8162   */\n      dup6\n        /* \"#utility.yul\":8144:8152   */\n      dup3\n        /* \"#utility.yul\":8133:8142   */\n      dup7\n        /* \"#utility.yul\":8129:8153   */\n      add\n        /* \"#utility.yul\":8111:8163   */\n      tag_737\n      jump\t// in\n    tag_806:\n        /* \"#utility.yul\":8101:8163   */\n      swap2\n      pop\n      pop\n        /* \"#utility.yul\":7626:8169   */\n      swap3\n      pop\n      swap3\n      swap1\n      pop\n      jump\t// out\n        /* \"#utility.yul\":8366:9169   */\n    tag_95:\n        /* \"#utility.yul\":8528:8532   */\n      0x00\n        /* \"#utility.yul\":8557:8559   */\n      0x20\n        /* \"#utility.yul\":8597:8599   */\n      dup1\n        /* \"#utility.yul\":8586:8595   */\n      dup4\n        /* \"#utility.yul\":8582:8600   */\n      add\n        /* \"#utility.yul\":8627:8629   */\n      dup2\n        /* \"#utility.yul\":8616:8625   */\n      dup5\n        /* \"#utility.yul\":8609:8630   */\n      mstore\n        /* \"#utility.yul\":8650:8656   */\n      dup1\n        /* \"#utility.yul\":8685:8691   */\n      dup6\n        /* \"#utility.yul\":8679:8692   */\n      mload\n        /* \"#utility.yul\":8716:8722   */\n      dup1\n        /* \"#utility.yul\":8708:8714   */\n      dup4\n        /* \"#utility.yul\":8701:8723   */\n      mstore\n        /* \"#utility.yul\":8754:8756   */\n      0x40\n        /* \"#utility.yul\":8743:8752   */\n      dup7\n        /* \"#utility.yul\":8739:8757   */\n      add\n        /* \"#utility.yul\":8732:8757   */\n      swap2\n      pop\n        /* \"#utility.yul\":8816:8818   */\n      0x40\n        /* \"#utility.yul\":8806:8812   */\n      dup2\n        /* \"#utility.yul\":8803:8804   */\n      0x05\n        /* \"#utility.yul\":8799:8813   */\n      shl\n        /* \"#utility.yul\":8788:8797   */\n      dup8\n        /* \"#utility.yul\":8784:8814   */\n      add\n        /* \"#utility.yul\":8780:8819   */\n      add\n        /* \"#utility.yul\":8766:8819   */\n      swap3\n      pop\n        /* \"#utility.yul\":8854:8856   */\n      dup4\n        /* \"#utility.yul\":8846:8852   */\n      dup8\n        /* \"#utility.yul\":8842:8857   */\n      add\n        /* \"#utility.yul\":8875:8876   */\n      0x00\n        /* \"#utility.yul\":8885:9140   */\n    tag_809:\n        /* \"#utility.yul\":8899:8905   */\n      dup3\n        /* \"#utility.yul\":8896:8897   */\n      dup2\n        /* \"#utility.yul\":8893:8906   */\n      lt\n        /* \"#utility.yul\":8885:9140   */\n      iszero\n      tag_783\n      jumpi\n        /* \"#utility.yul\":8992:8994   */\n      0x3f\n        /* \"#utility.yul\":8988:8995   */\n      not\n        /* \"#utility.yul\":8976:8985   */\n      dup9\n        /* \"#utility.yul\":8968:8974   */\n      dup7\n        /* \"#utility.yul\":8964:8986   */\n      sub\n        /* \"#utility.yul\":8960:8996   */\n      add\n        /* \"#utility.yul\":8955:8958   */\n      dup5\n        /* \"#utility.yul\":8948:8997   */\n      mstore\n        /* \"#utility.yul\":9020:9060   */\n      tag_812\n        /* \"#utility.yul\":9053:9059   */\n      dup6\n        /* \"#utility.yul\":9044:9050   */\n      dup4\n        /* \"#utility.yul\":9038:9051   */\n      mload\n        /* \"#utility.yul\":9020:9060   */\n      tag_731\n      jump\t// in\n    tag_812:\n        /* \"#utility.yul\":9010:9060   */\n      swap5\n      pop\n        /* \"#utility.yul\":9118:9130   */\n      swap3\n      dup6\n      add\n      swap3\n        /* \"#utility.yul\":9083:9098   */\n      swap1\n      dup6\n      add\n      swap1\n        /* \"#utility.yul\":8921:8922   */\n      0x01\n        /* \"#utility.yul\":8914:8923   */\n      add\n        /* \"#utility.yul\":8885:9140   */\n      jump(tag_809)\n        /* \"#utility.yul\":9524:9708   */\n    tag_113:\n        /* \"#utility.yul\":9594:9600   */\n      0x00\n        /* \"#utility.yul\":9647:9649   */\n      0x20\n        /* \"#utility.yul\":9635:9644   */\n      dup3\n        /* \"#utility.yul\":9626:9633   */\n      dup5\n        /* \"#utility.yul\":9622:9645   */\n      sub\n        /* \"#utility.yul\":9618:9650   */\n      slt\n        /* \"#utility.yul\":9615:9667   */\n      iszero\n      tag_815\n      jumpi\n        /* \"#utility.yul\":9663:9664   */\n      0x00\n        /* \"#utility.yul\":9660:9661   */\n      dup1\n        /* \"#utility.yul\":9653:9665   */\n      revert\n        /* \"#utility.yul\":9615:9667   */\n    tag_815:\n      pop\n        /* \"#utility.yul\":9686:9702   */\n      mload\n      swap2\n        /* \"#utility.yul\":9524:9708   */\n      swap1\n      pop\n      jump\t// out\n        /* \"#utility.yul\":10415:10542   */\n    tag_738:\n        /* \"#utility.yul\":10476:10486   */\n      0x4e487b71\n        /* \"#utility.yul\":10471:10474   */\n      0xe0\n        /* \"#utility.yul\":10467:10487   */\n      shl\n        /* \"#utility.yul\":10464:10465   */\n      0x00\n        /* \"#utility.yul\":10457:10488   */\n      mstore\n        /* \"#utility.yul\":10507:10511   */\n      0x11\n        /* \"#utility.yul\":10504:10505   */\n      0x04\n        /* \"#utility.yul\":10497:10512   */\n      mstore\n        /* \"#utility.yul\":10531:10535   */\n      0x24\n        /* \"#utility.yul\":10528:10529   */\n      0x00\n        /* \"#utility.yul\":10521:10536   */\n      revert\n        /* \"#utility.yul\":10547:10715   */\n    tag_121:\n        /* \"#utility.yul\":10620:10629   */\n      dup1\n      dup3\n      mul\n        /* \"#utility.yul\":10651:10660   */\n      dup2\n      iszero\n        /* \"#utility.yul\":10668:10683   */\n      dup3\n      dup3\n      div\n        /* \"#utility.yul\":10662:10684   */\n      dup5\n      eq\n        /* \"#utility.yul\":10648:10685   */\n      or\n        /* \"#utility.yul\":10638:10709   */\n      tag_460\n      jumpi\n        /* \"#utility.yul\":10689:10707   */\n      tag_460\n      tag_738\n      jump\t// in\n        /* \"#utility.yul\":10720:10937   */\n    tag_123:\n        /* \"#utility.yul\":10760:10761   */\n      0x00\n        /* \"#utility.yul\":10786:10787   */\n      dup3\n        /* \"#utility.yul\":10776:10908   */\n      tag_823\n      jumpi\n        /* \"#utility.yul\":10830:10840   */\n      0x4e487b71\n        /* \"#utility.yul\":10825:10828   */\n      0xe0\n        /* \"#utility.yul\":10821:10841   */\n      shl\n        /* \"#utility.yul\":10818:10819   */\n      0x00\n        /* \"#utility.yul\":10811:10842   */\n      mstore\n        /* \"#utility.yul\":10865:10869   */\n      0x12\n        /* \"#utility.yul\":10862:10863   */\n      0x04\n        /* \"#utility.yul\":10855:10870   */\n      mstore\n        /* \"#utility.yul\":10893:10897   */\n      0x24\n        /* \"#utility.yul\":10890:10891   */\n      0x00\n        /* \"#utility.yul\":10883:10898   */\n      revert\n        /* \"#utility.yul\":10776:10908   */\n    tag_823:\n      pop\n        /* \"#utility.yul\":10922:10931   */\n      div\n      swap1\n        /* \"#utility.yul\":10720:10937   */\n      jump\t// out\n        /* \"#utility.yul\":10942:11070   */\n    tag_127:\n        /* \"#utility.yul\":11009:11018   */\n      dup2\n      dup2\n      sub\n        /* \"#utility.yul\":11030:11041   */\n      dup2\n      dup2\n      gt\n        /* \"#utility.yul\":11027:11064   */\n      iszero\n      tag_460\n      jumpi\n        /* \"#utility.yul\":11044:11062   */\n      tag_460\n      tag_738\n      jump\t// in\n        /* \"#utility.yul\":11075:11450   */\n    tag_130:\n      sub(shl(0xa0, 0x01), 0x01)\n        /* \"#utility.yul\":11333:11348   */\n      swap4\n      dup5\n      and\n        /* \"#utility.yul\":11315:11349   */\n      dup2\n      mstore\n        /* \"#utility.yul\":11385:11400   */\n      swap2\n      swap1\n      swap3\n      and\n        /* \"#utility.yul\":11380:11382   */\n      0x20\n        /* \"#utility.yul\":11365:11383   */\n      dup3\n      add\n        /* \"#utility.yul\":11358:11401   */\n      mstore\n        /* \"#utility.yul\":11432:11434   */\n      0x40\n        /* \"#utility.yul\":11417:11435   */\n      dup2\n      add\n        /* \"#utility.yul\":11410:11444   */\n      swap2\n      swap1\n      swap2\n      mstore\n        /* \"#utility.yul\":11265:11267   */\n      0x60\n        /* \"#utility.yul\":11250:11268   */\n      add\n      swap1\n        /* \"#utility.yul\":11075:11450   */\n      jump\t// out\n        /* \"#utility.yul\":11455:11732   */\n    tag_134:\n        /* \"#utility.yul\":11522:11528   */\n      0x00\n        /* \"#utility.yul\":11575:11577   */\n      0x20\n        /* \"#utility.yul\":11563:11572   */\n      dup3\n        /* \"#utility.yul\":11554:11561   */\n      dup5\n        /* \"#utility.yul\":11550:11573   */\n      sub\n        /* \"#utility.yul\":11546:11578   */\n      slt\n        /* \"#utility.yul\":11543:11595   */\n      iszero\n      tag_829\n      jumpi\n        /* \"#utility.yul\":11591:11592   */\n      0x00\n        /* \"#utility.yul\":11588:11589   */\n      dup1\n        /* \"#utility.yul\":11581:11593   */\n      revert\n        /* \"#utility.yul\":11543:11595   */\n    tag_829:\n        /* \"#utility.yul\":11623:11632   */\n      dup2\n        /* \"#utility.yul\":11617:11633   */\n      mload\n        /* \"#utility.yul\":11676:11681   */\n      dup1\n        /* \"#utility.yul\":11669:11682   */\n      iszero\n        /* \"#utility.yul\":11662:11683   */\n      iszero\n        /* \"#utility.yul\":11655:11660   */\n      dup2\n        /* \"#utility.yul\":11652:11684   */\n      eq\n        /* \"#utility.yul\":11642:11702   */\n      tag_792\n      jumpi\n        /* \"#utility.yul\":11698:11699   */\n      0x00\n        /* \"#utility.yul\":11695:11696   */\n      dup1\n        /* \"#utility.yul\":11688:11700   */\n      revert\n        /* \"#utility.yul\":11737:11862   */\n    tag_144:\n        /* \"#utility.yul\":11802:11811   */\n      dup1\n      dup3\n      add\n        /* \"#utility.yul\":11823:11833   */\n      dup1\n      dup3\n      gt\n        /* \"#utility.yul\":11820:11856   */\n      iszero\n      tag_460\n      jumpi\n        /* \"#utility.yul\":11836:11854   */\n      tag_460\n      tag_738\n      jump\t// in\n        /* \"#utility.yul\":11867:12247   */\n    tag_217:\n        /* \"#utility.yul\":11946:11947   */\n      0x01\n        /* \"#utility.yul\":11942:11954   */\n      dup2\n      dup2\n      shr\n      swap1\n        /* \"#utility.yul\":11989:12001   */\n      dup3\n      and\n      dup1\n        /* \"#utility.yul\":12010:12071   */\n      tag_835\n      jumpi\n        /* \"#utility.yul\":12064:12068   */\n      0x7f\n        /* \"#utility.yul\":12056:12062   */\n      dup3\n        /* \"#utility.yul\":12052:12069   */\n      and\n        /* \"#utility.yul\":12042:12069   */\n      swap2\n      pop\n        /* \"#utility.yul\":12010:12071   */\n    tag_835:\n        /* \"#utility.yul\":12117:12119   */\n      0x20\n        /* \"#utility.yul\":12109:12115   */\n      dup3\n        /* \"#utility.yul\":12106:12120   */\n      lt\n        /* \"#utility.yul\":12086:12104   */\n      dup2\n        /* \"#utility.yul\":12083:12121   */\n      sub\n        /* \"#utility.yul\":12080:12241   */\n      tag_836\n      jumpi\n        /* \"#utility.yul\":12163:12173   */\n      0x4e487b71\n        /* \"#utility.yul\":12158:12161   */\n      0xe0\n        /* \"#utility.yul\":12154:12174   */\n      shl\n        /* \"#utility.yul\":12151:12152   */\n      0x00\n        /* \"#utility.yul\":12144:12175   */\n      mstore\n        /* \"#utility.yul\":12198:12202   */\n      0x22\n        /* \"#utility.yul\":12195:12196   */\n      0x04\n        /* \"#utility.yul\":12188:12203   */\n      mstore\n        /* \"#utility.yul\":12226:12230   */\n      0x24\n        /* \"#utility.yul\":12223:12224   */\n      0x00\n        /* \"#utility.yul\":12216:12231   */\n      revert\n        /* \"#utility.yul\":12080:12241   */\n    tag_836:\n      pop\n        /* \"#utility.yul\":11867:12247   */\n      swap2\n      swap1\n      pop\n      jump\t// out\n        /* \"#utility.yul\":12378:12923   */\n    tag_740:\n        /* \"#utility.yul\":12480:12482   */\n      0x1f\n        /* \"#utility.yul\":12475:12478   */\n      dup3\n        /* \"#utility.yul\":12472:12483   */\n      gt\n        /* \"#utility.yul\":12469:12917   */\n      iszero\n      tag_839\n      jumpi\n        /* \"#utility.yul\":12516:12517   */\n      0x00\n        /* \"#utility.yul\":12541:12546   */\n      dup2\n        /* \"#utility.yul\":12537:12539   */\n      dup2\n        /* \"#utility.yul\":12530:12547   */\n      mstore\n        /* \"#utility.yul\":12586:12590   */\n      0x20\n        /* \"#utility.yul\":12582:12584   */\n      dup2\n        /* \"#utility.yul\":12572:12591   */\n      keccak256\n        /* \"#utility.yul\":12656:12658   */\n      0x1f\n        /* \"#utility.yul\":12644:12654   */\n      dup6\n        /* \"#utility.yul\":12640:12659   */\n      add\n        /* \"#utility.yul\":12637:12638   */\n      0x05\n        /* \"#utility.yul\":12633:12660   */\n      shr\n        /* \"#utility.yul\":12627:12631   */\n      dup2\n        /* \"#utility.yul\":12623:12661   */\n      add\n        /* \"#utility.yul\":12692:12696   */\n      0x20\n        /* \"#utility.yul\":12680:12690   */\n      dup7\n        /* \"#utility.yul\":12677:12697   */\n      lt\n        /* \"#utility.yul\":12674:12721   */\n      iszero\n      tag_840\n      jumpi\n      pop\n        /* \"#utility.yul\":12715:12719   */\n      dup1\n        /* \"#utility.yul\":12674:12721   */\n    tag_840:\n        /* \"#utility.yul\":12770:12772   */\n      0x1f\n        /* \"#utility.yul\":12765:12768   */\n      dup6\n        /* \"#utility.yul\":12761:12773   */\n      add\n        /* \"#utility.yul\":12758:12759   */\n      0x05\n        /* \"#utility.yul\":12754:12774   */\n      shr\n        /* \"#utility.yul\":12748:12752   */\n      dup3\n        /* \"#utility.yul\":12744:12775   */\n      add\n        /* \"#utility.yul\":12734:12775   */\n      swap2\n      pop\n        /* \"#utility.yul\":12825:12907   */\n    tag_841:\n        /* \"#utility.yul\":12843:12845   */\n      dup2\n        /* \"#utility.yul\":12836:12841   */\n      dup2\n        /* \"#utility.yul\":12833:12846   */\n      lt\n        /* \"#utility.yul\":12825:12907   */\n      iszero\n      tag_843\n      jumpi\n        /* \"#utility.yul\":12888:12905   */\n      dup3\n      dup2\n      sstore\n        /* \"#utility.yul\":12869:12870   */\n      0x01\n        /* \"#utility.yul\":12858:12871   */\n      add\n        /* \"#utility.yul\":12825:12907   */\n      jump(tag_841)\n    tag_843:\n        /* \"#utility.yul\":12829:12832   */\n      pop\n      pop\n      pop\n        /* \"#utility.yul\":12469:12917   */\n    tag_839:\n        /* \"#utility.yul\":12378:12923   */\n      pop\n      pop\n      pop\n      jump\t// out\n        /* \"#utility.yul\":13099:14451   */\n    tag_149:\n        /* \"#utility.yul\":13225:13228   */\n      dup2\n        /* \"#utility.yul\":13219:13229   */\n      mload\n        /* \"#utility.yul\":13252:13270   */\n      0xffffffffffffffff\n        /* \"#utility.yul\":13244:13250   */\n      dup2\n        /* \"#utility.yul\":13241:13271   */\n      gt\n        /* \"#utility.yul\":13238:13294   */\n      iszero\n      tag_847\n      jumpi\n        /* \"#utility.yul\":13274:13292   */\n      tag_847\n      tag_736\n      jump\t// in\n    tag_847:\n        /* \"#utility.yul\":13303:13400   */\n      tag_848\n        /* \"#utility.yul\":13393:13399   */\n      dup2\n        /* \"#utility.yul\":13353:13391   */\n      tag_849\n        /* \"#utility.yul\":13385:13389   */\n      dup5\n        /* \"#utility.yul\":13379:13390   */\n      sload\n        /* \"#utility.yul\":13353:13391   */\n      tag_217\n      jump\t// in\n    tag_849:\n        /* \"#utility.yul\":13347:13351   */\n      dup5\n        /* \"#utility.yul\":13303:13400   */\n      tag_740\n      jump\t// in\n    tag_848:\n        /* \"#utility.yul\":13455:13459   */\n      0x20\n      dup1\n        /* \"#utility.yul\":13519:13521   */\n      0x1f\n        /* \"#utility.yul\":13508:13522   */\n      dup4\n      gt\n        /* \"#utility.yul\":13536:13537   */\n      0x01\n        /* \"#utility.yul\":13531:14194   */\n      dup2\n      eq\n      tag_851\n      jumpi\n        /* \"#utility.yul\":14238:14239   */\n      0x00\n        /* \"#utility.yul\":14255:14261   */\n      dup5\n        /* \"#utility.yul\":14252:14341   */\n      iszero\n      tag_852\n      jumpi\n      pop\n        /* \"#utility.yul\":14307:14326   */\n      dup6\n      dup4\n      add\n        /* \"#utility.yul\":14301:14327   */\n      mload\n        /* \"#utility.yul\":14252:14341   */\n    tag_852:\n      not(0x00)\n        /* \"#utility.yul\":13056:13057   */\n      0x03\n        /* \"#utility.yul\":13052:13063   */\n      dup7\n      swap1\n      shl\n        /* \"#utility.yul\":13048:13072   */\n      shr\n        /* \"#utility.yul\":13044:13073   */\n      not\n        /* \"#utility.yul\":13034:13074   */\n      and\n        /* \"#utility.yul\":13080:13081   */\n      0x01\n        /* \"#utility.yul\":13076:13087   */\n      dup6\n      swap1\n      shl\n        /* \"#utility.yul\":13031:13088   */\n      or\n        /* \"#utility.yul\":14354:14435   */\n      dup6\n      sstore\n        /* \"#utility.yul\":13501:14445   */\n      jump(tag_843)\n        /* \"#utility.yul\":13531:14194   */\n    tag_851:\n        /* \"#utility.yul\":12325:12326   */\n      0x00\n        /* \"#utility.yul\":12318:12332   */\n      dup6\n      dup2\n      mstore\n        /* \"#utility.yul\":12362:12366   */\n      0x20\n        /* \"#utility.yul\":12349:12367   */\n      dup2\n      keccak256\n      not(0x1f)\n        /* \"#utility.yul\":13567:13587   */\n      dup7\n      and\n      swap2\n        /* \"#utility.yul\":13685:13921   */\n    tag_855:\n        /* \"#utility.yul\":13699:13706   */\n      dup3\n        /* \"#utility.yul\":13696:13697   */\n      dup2\n        /* \"#utility.yul\":13693:13707   */\n      lt\n        /* \"#utility.yul\":13685:13921   */\n      iszero\n      tag_857\n      jumpi\n        /* \"#utility.yul\":13788:13807   */\n      dup9\n      dup7\n      add\n        /* \"#utility.yul\":13782:13808   */\n      mload\n        /* \"#utility.yul\":13767:13809   */\n      dup3\n      sstore\n        /* \"#utility.yul\":13880:13907   */\n      swap5\n      dup5\n      add\n      swap5\n        /* \"#utility.yul\":13848:13849   */\n      0x01\n        /* \"#utility.yul\":13836:13850   */\n      swap1\n      swap2\n      add\n      swap1\n        /* \"#utility.yul\":13715:13734   */\n      dup5\n      add\n        /* \"#utility.yul\":13685:13921   */\n      jump(tag_855)\n    tag_857:\n        /* \"#utility.yul\":13689:13692   */\n      pop\n        /* \"#utility.yul\":13949:13955   */\n      dup6\n        /* \"#utility.yul\":13940:13947   */\n      dup3\n        /* \"#utility.yul\":13937:13956   */\n      lt\n        /* \"#utility.yul\":13934:14135   */\n      iszero\n      tag_858\n      jumpi\n        /* \"#utility.yul\":14010:14029   */\n      dup8\n      dup6\n      add\n        /* \"#utility.yul\":14004:14030   */\n      mload\n      not(0x00)\n        /* \"#utility.yul\":14093:14094   */\n      0x03\n        /* \"#utility.yul\":14089:14103   */\n      dup9\n      swap1\n      shl\n        /* \"#utility.yul\":14105:14108   */\n      0xf8\n        /* \"#utility.yul\":14085:14109   */\n      and\n        /* \"#utility.yul\":14081:14118   */\n      shr\n        /* \"#utility.yul\":14077:14119   */\n      not\n        /* \"#utility.yul\":14062:14120   */\n      and\n        /* \"#utility.yul\":14047:14121   */\n      dup2\n      sstore\n        /* \"#utility.yul\":13934:14135   */\n    tag_858:\n      pop\n      pop\n      pop\n      pop\n      pop\n        /* \"#utility.yul\":14181:14182   */\n      0x01\n        /* \"#utility.yul\":14165:14179   */\n      swap1\n      dup2\n      shl\n        /* \"#utility.yul\":14161:14183   */\n      add\n        /* \"#utility.yul\":14148:14184   */\n      swap1\n      sstore\n      pop\n        /* \"#utility.yul\":13099:14451   */\n      jump\t// out\n        /* \"#utility.yul\":14456:14583   */\n    tag_157:\n        /* \"#utility.yul\":14517:14527   */\n      0x4e487b71\n        /* \"#utility.yul\":14512:14515   */\n      0xe0\n        /* \"#utility.yul\":14508:14528   */\n      shl\n        /* \"#utility.yul\":14505:14506   */\n      0x00\n        /* \"#utility.yul\":14498:14529   */\n      mstore\n        /* \"#utility.yul\":14548:14552   */\n      0x32\n        /* \"#utility.yul\":14545:14546   */\n      0x04\n        /* \"#utility.yul\":14538:14553   */\n      mstore\n        /* \"#utility.yul\":14572:14576   */\n      0x24\n        /* \"#utility.yul\":14569:14570   */\n      0x00\n        /* \"#utility.yul\":14562:14577   */\n      revert\n        /* \"#utility.yul\":14588:14723   */\n    tag_190:\n        /* \"#utility.yul\":14627:14630   */\n      0x00\n        /* \"#utility.yul\":14648:14665   */\n      0x01\n      dup3\n      add\n        /* \"#utility.yul\":14645:14688   */\n      tag_862\n      jumpi\n        /* \"#utility.yul\":14668:14686   */\n      tag_862\n      tag_738\n      jump\t// in\n    tag_862:\n      pop\n        /* \"#utility.yul\":14715:14716   */\n      0x01\n        /* \"#utility.yul\":14704:14717   */\n      add\n      swap1\n        /* \"#utility.yul\":14588:14723   */\n      jump\t// out\n        /* \"#utility.yul\":16829:18264   */\n    tag_301:\n        /* \"#utility.yul\":16948:16951   */\n      dup2\n        /* \"#utility.yul\":16942:16946   */\n      dup2\n        /* \"#utility.yul\":16939:16952   */\n      sub\n        /* \"#utility.yul\":16936:16962   */\n      tag_870\n      jumpi\n        /* \"#utility.yul\":16955:16960   */\n      pop\n      pop\n        /* \"#utility.yul\":16829:18264   */\n      jump\t// out\n        /* \"#utility.yul\":16936:16962   */\n    tag_870:\n        /* \"#utility.yul\":16985:17022   */\n      tag_871\n        /* \"#utility.yul\":17017:17020   */\n      dup3\n        /* \"#utility.yul\":17011:17021   */\n      sload\n        /* \"#utility.yul\":16985:17022   */\n      tag_217\n      jump\t// in\n    tag_871:\n        /* \"#utility.yul\":17045:17063   */\n      0xffffffffffffffff\n        /* \"#utility.yul\":17037:17043   */\n      dup2\n        /* \"#utility.yul\":17034:17064   */\n      gt\n        /* \"#utility.yul\":17031:17087   */\n      iszero\n      tag_873\n      jumpi\n        /* \"#utility.yul\":17067:17085   */\n      tag_873\n      tag_736\n      jump\t// in\n    tag_873:\n        /* \"#utility.yul\":17096:17193   */\n      tag_874\n        /* \"#utility.yul\":17186:17192   */\n      dup2\n        /* \"#utility.yul\":17146:17184   */\n      tag_849\n        /* \"#utility.yul\":17178:17182   */\n      dup5\n        /* \"#utility.yul\":17172:17183   */\n      sload\n        /* \"#utility.yul\":17146:17184   */\n      tag_217\n      jump\t// in\n        /* \"#utility.yul\":17096:17193   */\n    tag_874:\n        /* \"#utility.yul\":17219:17220   */\n      0x00\n        /* \"#utility.yul\":17247:17249   */\n      0x1f\n        /* \"#utility.yul\":17239:17245   */\n      dup3\n        /* \"#utility.yul\":17236:17250   */\n      gt\n        /* \"#utility.yul\":17264:17265   */\n      0x01\n        /* \"#utility.yul\":17259:18007   */\n      dup2\n      eq\n      tag_877\n      jumpi\n        /* \"#utility.yul\":18051:18052   */\n      0x00\n        /* \"#utility.yul\":18068:18074   */\n      dup4\n        /* \"#utility.yul\":18065:18154   */\n      iszero\n      tag_878\n      jumpi\n      pop\n        /* \"#utility.yul\":18120:18139   */\n      dup5\n      dup3\n      add\n        /* \"#utility.yul\":18114:18140   */\n      sload\n        /* \"#utility.yul\":18065:18154   */\n    tag_878:\n      not(0x00)\n        /* \"#utility.yul\":13056:13057   */\n      0x03\n        /* \"#utility.yul\":13052:13063   */\n      dup6\n      swap1\n      shl\n        /* \"#utility.yul\":13048:13072   */\n      shr\n        /* \"#utility.yul\":13044:13073   */\n      not\n        /* \"#utility.yul\":13034:13074   */\n      and\n        /* \"#utility.yul\":13080:13081   */\n      0x01\n        /* \"#utility.yul\":13076:13087   */\n      dup5\n      swap1\n      shl\n        /* \"#utility.yul\":13031:13088   */\n      or\n        /* \"#utility.yul\":18167:18248   */\n      dup5\n      sstore\n        /* \"#utility.yul\":17229:18258   */\n      jump(tag_876)\n        /* \"#utility.yul\":17259:18007   */\n    tag_877:\n        /* \"#utility.yul\":12325:12326   */\n      0x00\n        /* \"#utility.yul\":12318:12332   */\n      dup6\n      dup2\n      mstore\n        /* \"#utility.yul\":12362:12366   */\n      0x20\n        /* \"#utility.yul\":12349:12367   */\n      swap1\n      keccak256\n      not(0x1f)\n        /* \"#utility.yul\":17295:17315   */\n      dup5\n      and\n      swap1\n        /* \"#utility.yul\":12325:12326   */\n      0x00\n        /* \"#utility.yul\":12318:12332   */\n      dup7\n      dup2\n      mstore\n        /* \"#utility.yul\":12362:12366   */\n      0x20\n        /* \"#utility.yul\":12349:12367   */\n      swap1\n      keccak256\n        /* \"#utility.yul\":17459:17468   */\n      dup5\n        /* \"#utility.yul\":17481:17732   */\n    tag_882:\n        /* \"#utility.yul\":17495:17502   */\n      dup4\n        /* \"#utility.yul\":17492:17493   */\n      dup2\n        /* \"#utility.yul\":17489:17503   */\n      lt\n        /* \"#utility.yul\":17481:17732   */\n      iszero\n      tag_884\n      jumpi\n        /* \"#utility.yul\":17577:17598   */\n      dup3\n      dup7\n      add\n        /* \"#utility.yul\":17571:17599   */\n      sload\n        /* \"#utility.yul\":17556:17600   */\n      dup3\n      sstore\n        /* \"#utility.yul\":17627:17628   */\n      0x01\n        /* \"#utility.yul\":17700:17718   */\n      swap6\n      dup7\n      add\n      swap6\n        /* \"#utility.yul\":17655:17670   */\n      swap1\n      swap2\n      add\n      swap1\n        /* \"#utility.yul\":17518:17522   */\n      0x20\n        /* \"#utility.yul\":17511:17523   */\n      add\n        /* \"#utility.yul\":17481:17732   */\n      jump(tag_882)\n    tag_884:\n        /* \"#utility.yul\":17485:17488   */\n      pop\n        /* \"#utility.yul\":17760:17766   */\n      dup6\n        /* \"#utility.yul\":17751:17758   */\n      dup4\n        /* \"#utility.yul\":17748:17767   */\n      lt\n        /* \"#utility.yul\":17745:17948   */\n      iszero\n      tag_885\n      jumpi\n        /* \"#utility.yul\":17821:17842   */\n      dup2\n      dup6\n      add\n        /* \"#utility.yul\":17815:17843   */\n      sload\n      not(0x00)\n        /* \"#utility.yul\":17906:17907   */\n      0x03\n        /* \"#utility.yul\":17902:17916   */\n      dup9\n      swap1\n      shl\n        /* \"#utility.yul\":17918:17921   */\n      0xf8\n        /* \"#utility.yul\":17898:17922   */\n      and\n        /* \"#utility.yul\":17894:17931   */\n      shr\n        /* \"#utility.yul\":17890:17932   */\n      not\n        /* \"#utility.yul\":17875:17933   */\n      and\n        /* \"#utility.yul\":17860:17934   */\n      dup2\n      sstore\n        /* \"#utility.yul\":17745:17948   */\n    tag_885:\n      pop\n      pop\n      pop\n        /* \"#utility.yul\":17994:17995   */\n      0x01\n        /* \"#utility.yul\":17985:17991   */\n      dup4\n        /* \"#utility.yul\":17982:17983   */\n      0x01\n        /* \"#utility.yul\":17978:17992   */\n      shl\n        /* \"#utility.yul\":17974:17996   */\n      add\n        /* \"#utility.yul\":17968:17972   */\n      dup5\n        /* \"#utility.yul\":17961:17997   */\n      sstore\n        /* \"#utility.yul\":17229:18258   */\n    tag_876:\n      pop\n      pop\n      pop\n        /* \"#utility.yul\":16829:18264   */\n      pop\n      pop\n      jump\t// out\n        /* \"#utility.yul\":18269:19041   */\n    tag_742:\n        /* \"#utility.yul\":18319:18322   */\n      0x00\n        /* \"#utility.yul\":18360:18365   */\n      dup2\n        /* \"#utility.yul\":18354:18366   */\n      sload\n        /* \"#utility.yul\":18389:18425   */\n      tag_887\n        /* \"#utility.yul\":18415:18424   */\n      dup2\n        /* \"#utility.yul\":18389:18425   */\n      tag_217\n      jump\t// in\n    tag_887:\n        /* \"#utility.yul\":18434:18453   */\n      dup1\n      dup6\n      mstore\n        /* \"#utility.yul\":18472:18476   */\n      0x20\n        /* \"#utility.yul\":18495:18496   */\n      0x01\n        /* \"#utility.yul\":18512:18530   */\n      dup4\n      dup2\n      and\n        /* \"#utility.yul\":18539:18685   */\n      dup1\n      iszero\n      tag_889\n      jumpi\n        /* \"#utility.yul\":18699:18700   */\n      0x01\n        /* \"#utility.yul\":18694:19035   */\n      dup2\n      eq\n      tag_890\n      jumpi\n        /* \"#utility.yul\":18505:19035   */\n      jump(tag_888)\n        /* \"#utility.yul\":18539:18685   */\n    tag_889:\n      not(0xff)\n        /* \"#utility.yul\":18581:18605   */\n      dup6\n      and\n        /* \"#utility.yul\":18567:18579   */\n      dup9\n      dup5\n      add\n        /* \"#utility.yul\":18560:18606   */\n      mstore\n        /* \"#utility.yul\":18653:18667   */\n      dup4\n      iszero\n        /* \"#utility.yul\":18646:18668   */\n      iszero\n        /* \"#utility.yul\":18643:18644   */\n      0x05\n        /* \"#utility.yul\":18639:18669   */\n      shl\n        /* \"#utility.yul\":18630:18670   */\n      dup9\n      add\n        /* \"#utility.yul\":18626:18675   */\n      dup4\n      add\n      swap6\n      pop\n        /* \"#utility.yul\":18539:18685   */\n      jump(tag_888)\n        /* \"#utility.yul\":18694:19035   */\n    tag_890:\n        /* \"#utility.yul\":18725:18730   */\n      dup7\n        /* \"#utility.yul\":18722:18723   */\n      0x00\n        /* \"#utility.yul\":18715:18731   */\n      mstore\n        /* \"#utility.yul\":18772:18774   */\n      dup3\n        /* \"#utility.yul\":18769:18770   */\n      0x00\n        /* \"#utility.yul\":18759:18775   */\n      keccak256\n        /* \"#utility.yul\":18797:18798   */\n      0x00\n        /* \"#utility.yul\":18811:18985   */\n    tag_891:\n        /* \"#utility.yul\":18825:18831   */\n      dup6\n        /* \"#utility.yul\":18822:18823   */\n      dup2\n        /* \"#utility.yul\":18819:18832   */\n      lt\n        /* \"#utility.yul\":18811:18985   */\n      iszero\n      tag_893\n      jumpi\n        /* \"#utility.yul\":18912:18926   */\n      dup2\n      sload\n        /* \"#utility.yul\":18894:18905   */\n      dup11\n      dup3\n      add\n        /* \"#utility.yul\":18890:18910   */\n      dup7\n      add\n        /* \"#utility.yul\":18883:18927   */\n      mstore\n        /* \"#utility.yul\":18955:18971   */\n      swap1\n      dup4\n      add\n      swap1\n        /* \"#utility.yul\":18840:18850   */\n      dup5\n      add\n        /* \"#utility.yul\":18811:18985   */\n      jump(tag_891)\n    tag_893:\n        /* \"#utility.yul\":19009:19020   */\n      dup10\n      add\n        /* \"#utility.yul\":19005:19025   */\n      dup5\n      add\n      swap7\n      pop\n      pop\n        /* \"#utility.yul\":18505:19035   */\n    tag_888:\n      pop\n      pop\n      pop\n      pop\n      pop\n        /* \"#utility.yul\":18269:19041   */\n      swap3\n      swap2\n      pop\n      pop\n      jump\t// out\n        /* \"#utility.yul\":19046:19697   */\n    tag_743:\n        /* \"#utility.yul\":19106:19109   */\n      0x00\n        /* \"#utility.yul\":19144:19149   */\n      dup2\n        /* \"#utility.yul\":19138:19150   */\n      sload\n        /* \"#utility.yul\":19171:19177   */\n      dup1\n        /* \"#utility.yul\":19166:19169   */\n      dup5\n        /* \"#utility.yul\":19159:19178   */\n      mstore\n        /* \"#utility.yul\":19197:19201   */\n      0x20\n        /* \"#utility.yul\":19238:19240   */\n      dup1\n        /* \"#utility.yul\":19233:19236   */\n      dup6\n        /* \"#utility.yul\":19229:19241   */\n      add\n        /* \"#utility.yul\":19263:19274   */\n      dup1\n        /* \"#utility.yul\":19290:19301   */\n      dup2\n        /* \"#utility.yul\":19283:19301   */\n      swap7\n      pop\n        /* \"#utility.yul\":19340:19346   */\n      dup4\n        /* \"#utility.yul\":19337:19338   */\n      0x05\n        /* \"#utility.yul\":19333:19347   */\n      shl\n        /* \"#utility.yul\":19326:19331   */\n      dup2\n        /* \"#utility.yul\":19322:19348   */\n      add\n        /* \"#utility.yul\":19310:19348   */\n      swap2\n      pop\n        /* \"#utility.yul\":19367:19372   */\n      dup6\n        /* \"#utility.yul\":19364:19365   */\n      0x00\n        /* \"#utility.yul\":19357:19373   */\n      mstore\n        /* \"#utility.yul\":19409:19411   */\n      dup3\n        /* \"#utility.yul\":19406:19407   */\n      0x00\n        /* \"#utility.yul\":19396:19412   */\n      keccak256\n        /* \"#utility.yul\":19430:19431   */\n      0x00\n        /* \"#utility.yul\":19440:19671   */\n    tag_895:\n        /* \"#utility.yul\":19454:19460   */\n      dup6\n        /* \"#utility.yul\":19451:19452   */\n      dup2\n        /* \"#utility.yul\":19448:19461   */\n      lt\n        /* \"#utility.yul\":19440:19671   */\n      iszero\n      tag_897\n      jumpi\n        /* \"#utility.yul\":19525:19530   */\n      dup3\n        /* \"#utility.yul\":19519:19523   */\n      dup5\n        /* \"#utility.yul\":19515:19531   */\n      sub\n        /* \"#utility.yul\":19510:19513   */\n      dup10\n        /* \"#utility.yul\":19503:19532   */\n      mstore\n        /* \"#utility.yul\":19553:19592   */\n      tag_898\n        /* \"#utility.yul\":19587:19591   */\n      dup5\n        /* \"#utility.yul\":19579:19585   */\n      dup4\n        /* \"#utility.yul\":19553:19592   */\n      tag_742\n      jump\t// in\n    tag_898:\n        /* \"#utility.yul\":19649:19661   */\n      swap9\n      dup6\n      add\n      swap9\n        /* \"#utility.yul\":19545:19592   */\n      swap4\n      pop\n        /* \"#utility.yul\":19627:19628   */\n      0x01\n        /* \"#utility.yul\":19615:19629   */\n      swap2\n      dup3\n      add\n      swap2\n        /* \"#utility.yul\":19469:19478   */\n      add\n        /* \"#utility.yul\":19440:19671   */\n      jump(tag_895)\n    tag_897:\n      pop\n        /* \"#utility.yul\":19687:19691   */\n      swap2\n      swap8\n        /* \"#utility.yul\":19046:19697   */\n      swap7\n      pop\n      pop\n      pop\n      pop\n      pop\n      pop\n      pop\n      jump\t// out\n        /* \"#utility.yul\":19702:20055   */\n    tag_306:\n        /* \"#utility.yul\":19923:19925   */\n      0x40\n        /* \"#utility.yul\":19912:19921   */\n      dup2\n        /* \"#utility.yul\":19905:19926   */\n      mstore\n        /* \"#utility.yul\":19886:19890   */\n      0x00\n        /* \"#utility.yul\":19943:20006   */\n      tag_900\n        /* \"#utility.yul\":20002:20004   */\n      0x40\n        /* \"#utility.yul\":19991:20000   */\n      dup4\n        /* \"#utility.yul\":19987:20005   */\n      add\n        /* \"#utility.yul\":19979:19985   */\n      dup6\n        /* \"#utility.yul\":19943:20006   */\n      tag_743\n      jump\t// in\n    tag_900:\n        /* \"#utility.yul\":19935:20006   */\n      swap1\n      pop\n        /* \"#utility.yul\":20042:20048   */\n      dup3\n        /* \"#utility.yul\":20037:20039   */\n      0x20\n        /* \"#utility.yul\":20026:20035   */\n      dup4\n        /* \"#utility.yul\":20022:20040   */\n      add\n        /* \"#utility.yul\":20015:20049   */\n      mstore\n        /* \"#utility.yul\":19702:20055   */\n      swap4\n      swap3\n      pop\n      pop\n      pop\n      jump\t// out\n        /* \"#utility.yul\":22608:23077   */\n    tag_745:\n        /* \"#utility.yul\":22669:22672   */\n      0x00\n        /* \"#utility.yul\":22707:22712   */\n      dup2\n        /* \"#utility.yul\":22701:22713   */\n      sload\n        /* \"#utility.yul\":22734:22740   */\n      dup1\n        /* \"#utility.yul\":22729:22732   */\n      dup5\n        /* \"#utility.yul\":22722:22741   */\n      mstore\n        /* \"#utility.yul\":22760:22764   */\n      0x20\n        /* \"#utility.yul\":22789:22791   */\n      dup1\n        /* \"#utility.yul\":22784:22787   */\n      dup6\n        /* \"#utility.yul\":22780:22792   */\n      add\n        /* \"#utility.yul\":22773:22792   */\n      swap5\n      pop\n        /* \"#utility.yul\":22811:22816   */\n      dup4\n        /* \"#utility.yul\":22808:22809   */\n      0x00\n        /* \"#utility.yul\":22801:22817   */\n      mstore\n        /* \"#utility.yul\":22853:22855   */\n      dup1\n        /* \"#utility.yul\":22850:22851   */\n      0x00\n        /* \"#utility.yul\":22840:22856   */\n      keccak256\n        /* \"#utility.yul\":22874:22875   */\n      0x00\n        /* \"#utility.yul\":22884:23052   */\n    tag_909:\n        /* \"#utility.yul\":22898:22904   */\n      dup4\n        /* \"#utility.yul\":22895:22896   */\n      dup2\n        /* \"#utility.yul\":22892:22905   */\n      lt\n        /* \"#utility.yul\":22884:23052   */\n      iszero\n      tag_770\n      jumpi\n        /* \"#utility.yul\":22959:22972   */\n      dup2\n      sload\n        /* \"#utility.yul\":22947:22973   */\n      dup8\n      mstore\n        /* \"#utility.yul\":22993:23005   */\n      swap6\n      dup3\n      add\n      swap6\n        /* \"#utility.yul\":23040:23041   */\n      0x01\n        /* \"#utility.yul\":23028:23042   */\n      swap2\n      dup3\n      add\n      swap2\n        /* \"#utility.yul\":22913:22922   */\n      add\n        /* \"#utility.yul\":22884:23052   */\n      jump(tag_909)\n        /* \"#utility.yul\":23225:24825   */\n    tag_437:\n        /* \"#utility.yul\":23429:23431   */\n      0x40\n        /* \"#utility.yul\":23418:23427   */\n      dup2\n        /* \"#utility.yul\":23411:23432   */\n      mstore\n        /* \"#utility.yul\":23441:23532   */\n      tag_914\n        /* \"#utility.yul\":23528:23530   */\n      0x40\n        /* \"#utility.yul\":23517:23526   */\n      dup3\n        /* \"#utility.yul\":23513:23531   */\n      add\n        /* \"#utility.yul\":23457:23511   */\n      tag_915\n        /* \"#utility.yul\":23503:23509   */\n      dup6\n        /* \"#utility.yul\":23497:23510   */\n      sload\n        /* \"#utility.yul\":22592:22596   */\n      0xff\n        /* \"#utility.yul\":22576:22597   */\n      and\n      swap1\n        /* \"#utility.yul\":22483:22603   */\n      jump\n        /* \"#utility.yul\":23457:23511   */\n    tag_915:\n        /* \"#utility.yul\":1088:1101   */\n      iszero\n        /* \"#utility.yul\":1081:1102   */\n      iszero\n        /* \"#utility.yul\":1069:1103   */\n      swap1\n      mstore\n        /* \"#utility.yul\":1018:1109   */\n      jump\n        /* \"#utility.yul\":23441:23532   */\n    tag_914:\n        /* \"#utility.yul\":23392:23396   */\n      0x00\n        /* \"#utility.yul\":23551:23557   */\n      0x0160\n        /* \"#utility.yul\":23593:23595   */\n      dup1\n        /* \"#utility.yul\":23588:23590   */\n      0x60\n        /* \"#utility.yul\":23577:23586   */\n      dup5\n        /* \"#utility.yul\":23573:23591   */\n      add\n        /* \"#utility.yul\":23566:23596   */\n      mstore\n        /* \"#utility.yul\":23619:23684   */\n      tag_916\n        /* \"#utility.yul\":23679:23682   */\n      0x01a0\n        /* \"#utility.yul\":23668:23677   */\n      dup5\n        /* \"#utility.yul\":23664:23683   */\n      add\n        /* \"#utility.yul\":23657:23661   */\n      0x01\n        /* \"#utility.yul\":23649:23655   */\n      dup8\n        /* \"#utility.yul\":23645:23662   */\n      add\n        /* \"#utility.yul\":23619:23684   */\n      tag_742\n      jump\t// in\n    tag_916:\n        /* \"#utility.yul\":23707:23709   */\n      0x3f\n        /* \"#utility.yul\":23703:23710   */\n      not\n        /* \"#utility.yul\":23775:23777   */\n      dup1\n        /* \"#utility.yul\":23763:23772   */\n      dup6\n        /* \"#utility.yul\":23755:23761   */\n      dup4\n        /* \"#utility.yul\":23751:23773   */\n      sub\n        /* \"#utility.yul\":23747:23778   */\n      add\n        /* \"#utility.yul\":23741:23744   */\n      0x80\n        /* \"#utility.yul\":23730:23739   */\n      dup7\n        /* \"#utility.yul\":23726:23745   */\n      add\n        /* \"#utility.yul\":23719:23779   */\n      mstore\n        /* \"#utility.yul\":23802:23864   */\n      tag_917\n        /* \"#utility.yul\":23857:23863   */\n      dup3\n        /* \"#utility.yul\":23850:23854   */\n      0x02\n        /* \"#utility.yul\":23842:23848   */\n      dup10\n        /* \"#utility.yul\":23838:23855   */\n      add\n        /* \"#utility.yul\":23802:23864   */\n      tag_743\n      jump\t// in\n    tag_917:\n        /* \"#utility.yul\":23788:23864   */\n      swap2\n      pop\n        /* \"#utility.yul\":23929:23931   */\n      dup1\n        /* \"#utility.yul\":23917:23926   */\n      dup6\n        /* \"#utility.yul\":23909:23915   */\n      dup4\n        /* \"#utility.yul\":23905:23927   */\n      sub\n        /* \"#utility.yul\":23901:23932   */\n      add\n        /* \"#utility.yul\":23895:23898   */\n      0xa0\n        /* \"#utility.yul\":23884:23893   */\n      dup7\n        /* \"#utility.yul\":23880:23899   */\n      add\n        /* \"#utility.yul\":23873:23933   */\n      mstore\n      pop\n        /* \"#utility.yul\":23956:24019   */\n      tag_918\n        /* \"#utility.yul\":24012:24018   */\n      dup2\n        /* \"#utility.yul\":24005:24009   */\n      0x03\n        /* \"#utility.yul\":23997:24003   */\n      dup9\n        /* \"#utility.yul\":23993:24010   */\n      add\n        /* \"#utility.yul\":23956:24019   */\n      tag_745\n      jump\t// in\n    tag_918:\n        /* \"#utility.yul\":23942:24019   */\n      swap1\n      pop\n        /* \"#utility.yul\":24048:24116   */\n      tag_919\n        /* \"#utility.yul\":24109:24113   */\n      0x04\n        /* \"#utility.yul\":24101:24107   */\n      dup8\n        /* \"#utility.yul\":24097:24114   */\n      add\n        /* \"#utility.yul\":24091:24115   */\n      sload\n      sub(shl(0xa0, 0x01), 0x01)\n        /* \"#utility.yul\":23178:23214   */\n      and\n      swap1\n        /* \"#utility.yul\":23082:23220   */\n      jump\n        /* \"#utility.yul\":24048:24116   */\n    tag_919:\n      sub(shl(0xa0, 0x01), 0x01)\n        /* \"#utility.yul\":2748:2779   */\n      swap1\n      dup2\n      and\n        /* \"#utility.yul\":24173:24176   */\n      0xc0\n        /* \"#utility.yul\":24158:24177   */\n      dup7\n      add\n        /* \"#utility.yul\":2736:2780   */\n      mstore\n        /* \"#utility.yul\":24270:24274   */\n      0x05\n        /* \"#utility.yul\":24258:24275   */\n      dup8\n      add\n        /* \"#utility.yul\":24252:24276   */\n      sload\n        /* \"#utility.yul\":23178:23214   */\n      dup2\n      and\n        /* \"#utility.yul\":24336:24339   */\n      0xe0\n        /* \"#utility.yul\":24321:24340   */\n      dup7\n      add\n        /* \"#utility.yul\":2736:2780   */\n      mstore\n        /* \"#utility.yul\":24396:24400   */\n      0x06\n        /* \"#utility.yul\":24384:24401   */\n      dup8\n      add\n        /* \"#utility.yul\":24378:24402   */\n      sload\n        /* \"#utility.yul\":24372:24375   */\n      0x0100\n        /* \"#utility.yul\":24357:24376   */\n      dup7\n      add\n        /* \"#utility.yul\":24350:24403   */\n      mstore\n        /* \"#utility.yul\":24495:24499   */\n      0x07\n        /* \"#utility.yul\":24483:24500   */\n      dup8\n      add\n        /* \"#utility.yul\":24477:24501   */\n      sload\n        /* \"#utility.yul\":23178:23214   */\n      and\n        /* \"#utility.yul\":24561:24564   */\n      0x0120\n        /* \"#utility.yul\":24546:24565   */\n      dup6\n      add\n        /* \"#utility.yul\":2736:2780   */\n      mstore\n        /* \"#utility.yul\":24621:24625   */\n      0x08\n        /* \"#utility.yul\":24609:24626   */\n      dup7\n      add\n        /* \"#utility.yul\":24603:24627   */\n      sload\n        /* \"#utility.yul\":24597:24600   */\n      0x0140\n        /* \"#utility.yul\":24582:24601   */\n      dup6\n      add\n        /* \"#utility.yul\":24575:24628   */\n      mstore\n        /* \"#utility.yul\":24682:24686   */\n      0x09\n        /* \"#utility.yul\":24670:24687   */\n      dup7\n      add\n        /* \"#utility.yul\":24664:24688   */\n      sload\n        /* \"#utility.yul\":24644:24662   */\n      swap2\n      dup5\n      add\n        /* \"#utility.yul\":24637:24689   */\n      swap2\n      swap1\n      swap2\n      mstore\n        /* \"#utility.yul\":24744:24748   */\n      0x0a\n        /* \"#utility.yul\":24732:24749   */\n      swap1\n      swap5\n      add\n        /* \"#utility.yul\":24726:24750   */\n      sload\n        /* \"#utility.yul\":24720:24723   */\n      0x0180\n        /* \"#utility.yul\":24705:24724   */\n      dup4\n      add\n        /* \"#utility.yul\":24698:24751   */\n      mstore\n      pop\n        /* \"#utility.yul\":24805:24809   */\n      0x20\n        /* \"#utility.yul\":24790:24810   */\n      add\n        /* \"#utility.yul\":24783:24819   */\n      mstore\n        /* \"#utility.yul\":24637:24689   */\n      swap1\n        /* \"#utility.yul\":23225:24825   */\n      jump\t// out\n        /* \"#utility.yul\":26195:26484   */\n    tag_462:\n        /* \"#utility.yul\":26326:26329   */\n      0x00\n        /* \"#utility.yul\":26364:26370   */\n      dup3\n        /* \"#utility.yul\":26358:26371   */\n      mload\n        /* \"#utility.yul\":26380:26446   */\n      tag_930\n        /* \"#utility.yul\":26439:26445   */\n      dup2\n        /* \"#utility.yul\":26434:26437   */\n      dup5\n        /* \"#utility.yul\":26427:26431   */\n      0x20\n        /* \"#utility.yul\":26419:26425   */\n      dup8\n        /* \"#utility.yul\":26415:26432   */\n      add\n        /* \"#utility.yul\":26380:26446   */\n      tag_730\n      jump\t// in\n    tag_930:\n        /* \"#utility.yul\":26462:26478   */\n      swap2\n      swap1\n      swap2\n      add\n      swap3\n        /* \"#utility.yul\":26195:26484   */\n      swap2\n      pop\n      pop\n      jump\t// out\n        /* \"#utility.yul\":26489:26785   */\n    tag_627:\n        /* \"#utility.yul\":26663:26665   */\n      0x40\n        /* \"#utility.yul\":26652:26661   */\n      dup2\n        /* \"#utility.yul\":26645:26666   */\n      mstore\n        /* \"#utility.yul\":26626:26630   */\n      0x00\n        /* \"#utility.yul\":26683:26736   */\n      tag_900\n        /* \"#utility.yul\":26732:26734   */\n      0x40\n        /* \"#utility.yul\":26721:26730   */\n      dup4\n        /* \"#utility.yul\":26717:26735   */\n      add\n        /* \"#utility.yul\":26709:26715   */\n      dup6\n        /* \"#utility.yul\":26683:26736   */\n      tag_742\n      jump\t// in\n\n    auxdata: 0xa2646970667358221220c228eb6b1b7490ebd3c10f6d9ea9beefb7362b2d2a00ddf9423c5c3ebad40bdf64736f6c63430008130033\n}\n",
				"bytecode": {
					"linkReferences": {},
					"object": "600080546001600160a01b031990811673927e818ddcab12d025495b228a4ce1dae82798ec178255678ac7230489e80000600190815560028054909216733ce5a8a72820585c60f659896338d573471969911782556005600381815560048281556101808681526101a08590526101c086905260809081526101e083815261020083905261022085905260a05260066102408181526007610260819052600861028081905260c0929092526102a08a81526102c0969096526102e083905260e0959095526103009687526103208490526103409490945261010095909552610360868152610380949094526103a0839052610120939093526103c09586526103e0819052610400829052610140959095526104806040526104209384526104409490945261046091909152610160919091526200013e91908162000165565b503480156200014c57600080fd5b50600680546001600160a01b031916331790556200026f565b828054828255906000526020600020908101928215620001b1579160200282015b82811115620001b1578251620001a09083906003620001c3565b509160200191906001019062000186565b50620001bf92915062000214565b5090565b82805482825590600052602060002090810192821562000206579160200282015b8281111562000206578251829060ff16905591602001919060010190620001e4565b50620001bf92915062000235565b80821115620001bf5760006200022b82826200024c565b5060010162000214565b5b80821115620001bf576000815560010162000236565b50805460008255906000526020600020908101906200026c919062000235565b50565b613b36806200027f6000396000f3fe608060405234801561001057600080fd5b50600436106101375760003560e01c8063888b042f116100b8578063bed34bba1161007c578063bed34bba1461029b578063cc32d176146102be578063dc572c6e146102c7578063edb84ff7146102e7578063fa968eea146102ef578063fce589d8146102f857600080fd5b8063888b042f146102455780638da5cb5b1461024d578063b2182be414610260578063b60b9fcb14610280578063b7b524a11461029357600080fd5b80634a968391116100ff5780634a968391146101b957806352bc3410146101cc57806361d027b3146101df5780637effb4271461020a57806387052fab1461021d57600080fd5b806306139e8d1461013c57806317b44960146101515780631a39d8ef1461017a57806334fd351814610191578063491f0136146101a4575b600080fd5b61014f61014a366004613124565b610301565b005b61016461015f366004613124565b6109d0565b604051610171919061313d565b60405180910390f35b61018360055481565b604051908152602001610171565b61014f61019f366004613124565b610a4c565b6101ac610b16565b6040516101719190613341565b61014f6101c7366004613124565b610da7565b61014f6101da3660046133a3565b610f27565b6002546101f2906001600160a01b031681565b6040516001600160a01b039091168152602001610171565b6000546101f2906001600160a01b031681565b61023061022b366004613124565b611352565b604051610171999897969594939291906133c5565b61014f611448565b6006546101f2906001600160a01b031681565b61027361026e366004613124565b61164b565b6040516101719190613427565b61014f61028e3660046133a3565b6118b1565b61014f611fa5565b6102ae6102a93660046134e4565b6121e7565b6040519015158152602001610171565b61018360045481565b6102da6102d5366004613124565b612241565b6040516101719190613548565b61014f61233e565b61018360015481565b61018360035481565b600654600160a01b900460ff16156103585760405162461bcd60e51b8152602060048201526015602482015274115c9c9bdc8e881499595b9d1c985b9d0818d85b1b605a1b60448201526064015b60405180910390fd5b6006805460ff60a01b1916600160a01b1790556000546040516370a0823160e01b815233600482015282916001600160a01b0316906370a0823190602401602060405180830381865afa1580156103b3573d6000803e3d6000fd5b505050506040513d601f19601f820116820180604052508101906103d7919061359d565b101561041a5760405162461bcd60e51b81526020600482015260126024820152714e6f7420656e6f7567682062616c616e636560701b604482015260640161034f565b60015481101561046c5760405162461bcd60e51b815260206004820152601a60248201527f4e65656420746f20706179206d696e2062657420616d6f756e74000000000000604482015260640161034f565b600060646003548361047e91906135cc565b61048891906135e3565b9050600060646004548461049c91906135cc565b6104a691906135e3565b90506000816104b58486613605565b6104bf9190613605565b6000546040516323b872dd60e01b81529192506001600160a01b0316906323b872dd906104f690339061dead908890600401613618565b6020604051808303816000875af1158015610515573d6000803e3d6000fd5b505050506040513d601f19601f82011682018060405250810190610539919061363c565b506000546002546040516323b872dd60e01b81526001600160a01b03928316926323b872dd92610573923392909116908790600401613618565b6020604051808303816000875af1158015610592573d6000803e3d6000fd5b505050506040513d601f19601f820116820180604052508101906105b6919061363c565b506000546040516323b872dd60e01b81526001600160a01b03909116906323b872dd906105eb90339030908690600401613618565b6020604051808303816000875af115801561060a573d6000803e3d6000fd5b505050506040513d601f19601f8201168201806040525081019061062e919061363c565b508060056000828254610641919061365e565b9091555061064f9050612f5e565b6007805460018101825560009190915281517fa66cc928b5edb82af9bd49922954155ab7b0942694bea4ce44661d9a8736c688600b909202918201805460ff1916911515919091178155602083015183927fa66cc928b5edb82af9bd49922954155ab7b0942694bea4ce44661d9a8736c68901906106cd90826136fa565b50604082015180516106e9916002840191602090910190612fd5565b506060820151805161070591600384019160209091019061302b565b5060808201516004820180546001600160a01b03199081166001600160a01b039384161790915560a0840151600584018054831691841691909117905560c0840151600684015560e084015160078085018054909316919093161790556101008301516008830155610120830151600983015561014090920151600a909101558054903390610795600184613605565b815481106107a5576107a56137ba565b600091825260208220600b919091020160040180546001600160a01b0319166001600160a01b03939093169290921790915560076107e4600184613605565b815481106107f4576107f46137ba565b60009182526020909120600b90910201805460ff1916911515919091179055600160076108218284613605565b81548110610831576108316137ba565b90600052602060002090600b020160060181905550604051806040016040528060018152602001600b60fb1b815250600760018361086f9190613605565b8154811061087f5761087f6137ba565b90600052602060002090600b0201600101908161089c91906136fa565b508560076108ab600184613605565b815481106108bb576108bb6137ba565b600091825260209091206008600b9092020101558260076108dd600184613605565b815481106108ed576108ed6137ba565b90600052602060002090600b0201600a018190555060005b600981101561097d57600761091b600184613605565b8154811061092b5761092b6137ba565b600091825260208083206002600b90930201919091018054600181018255908352818320604080519384019052928252919091019061096a90826136fa565b5080610975816137d0565b915050610905565b507fbbba82573073a1190d559566d39447b5e1ad7724b88b63bc98867d229a645b6b6109aa600183613605565b60405190815260200160405180910390a150506006805460ff60a01b1916905550505050565b6060600782815481106109e5576109e56137ba565b90600052602060002090600b0201600301805480602002602001604051908101604052809291908181526020018280548015610a4057602002820191906000526020600020905b815481526020019060010190808311610a2c575b50505050509050919050565b610a5581612401565b610aa15760405162461bcd60e51b815260206004820152601c60248201527f796f7520617265206e6f7420746869732067616d6520706c6179657200000000604482015260640161034f565b60078181548110610ab457610ab46137ba565b60009182526020909120600b909102015460ff1615610b0a5760405162461bcd60e51b815260206004820152601260248201527147616d65207374696c6c20706c6179696e6760701b604482015260640161034f565b610b1381610da7565b50565b60606007805480602002602001604051908101604052809291908181526020016000905b82821015610d9e576000848152602090819020604080516101608101909152600b8502909101805460ff16151582526001810180549293919291840191610b8090613671565b80601f0160208091040260200160405190810160405280929190818152602001828054610bac90613671565b8015610bf95780601f10610bce57610100808354040283529160200191610bf9565b820191906000526020600020905b815481529060010190602001808311610bdc57829003601f168201915b5050505050815260200160028201805480602002602001604051908101604052809291908181526020016000905b82821015610cd3578382906000526020600020018054610c4690613671565b80601f0160208091040260200160405190810160405280929190818152602001828054610c7290613671565b8015610cbf5780601f10610c9457610100808354040283529160200191610cbf565b820191906000526020600020905b815481529060010190602001808311610ca257829003601f168201915b505050505081526020019060010190610c27565b50505050815260200160038201805480602002602001604051908101604052809291908181526020018280548015610d2a57602002820191906000526020600020905b815481526020019060010190808311610d16575b505050918352505060048201546001600160a01b039081166020808401919091526005840154821660408401526006840154606084015260078401549091166080830152600883015460a0830152600983015460c0830152600a9092015460e0909101529082526001929092019101610b3a565b50505050905090565b604051806040016040528060018152602001600b60fb1b81525060078281548110610dd457610dd46137ba565b90600052602060002090600b02016001019081610df191906136fa565b5060408051610140810182526000610120820181815282528251602081810185528282528084019190915283518082018552828152838501528351808201855282815260608401528351808201855282815260808401528351808201855282815260a08401528351808201855282815260c08401528351808201855282815260e0840152835190810190935282526101008101919091526007805483908110610e9c57610e9c6137ba565b90600052602060002090600b0201600201906009610ebb929190613072565b50600160078281548110610ed157610ed16137ba565b6000918252602091829020600b90910201805460ff1916921515929092179091556040518281527fc5478e3fe602c65e5cdd37abe42a8e007ff762d266b9e8256769194c1fa1361e91015b60405180910390a150565b60078181548110610f3a57610f3a6137ba565b60009182526020909120600b909102015460ff16610f9a5760405162461bcd60e51b815260206004820152601c60248201527f5468652067616d65207374696c6c206e6f742073746172742079657400000000604482015260640161034f565b61107a60078281548110610fb057610fb06137ba565b90600052602060002090600b02016002018381548110610fd257610fd26137ba565b906000526020600020018054610fe790613671565b80601f016020809104026020016040519081016040528092919081815260200182805461101390613671565b80156110605780601f1061103557610100808354040283529160200191611060565b820191906000526020600020905b81548152906001019060200180831161104357829003601f168201915b5050505050604051806020016040528060008152506121e7565b6110b65760405162461bcd60e51b815260206004820152600d60248201526c125b9d985b1a59081a5b9c1d5d609a1b604482015260640161034f565b611185600782815481106110cc576110cc6137ba565b90600052602060002090600b020160010180546110e890613671565b80601f016020809104026020016040519081016040528092919081815260200182805461111490613671565b80156111615780601f1061113657610100808354040283529160200191611161565b820191906000526020600020905b81548152906001019060200180831161114457829003601f168201915b5050505050604051806040016040528060018152602001600b60fb1b8152506121e7565b15611204576007818154811061119d5761119d6137ba565b60009182526020909120600b90910201600401546001600160a01b031633146111ff5760405162461bcd60e51b8152602060048201526014602482015273596f7520617265206e6f7420706c61796572203160601b604482015260640161034f565b611279565b60078181548110611217576112176137ba565b60009182526020909120600b90910201600501546001600160a01b031633146112795760405162461bcd60e51b81526020600482015260146024820152732cb7ba9030b932903737ba10383630bcb2b9101960611b604482015260640161034f565b6007818154811061128c5761128c6137ba565b90600052602060002090600b0201600101600782815481106112b0576112b06137ba565b90600052602060002090600b020160020183815481106112d2576112d26137ba565b9060005260206000200190816112e891906137e9565b507f9659242f3970136bf08cba261398ae9f0bc58a676137d79d3c2040dcdacbc18b6007828154811061131d5761131d6137ba565b90600052602060002090600b02016002018260405161133d92919061399a565b60405180910390a161134e81612481565b5050565b6007818154811061136257600080fd5b60009182526020909120600b90910201805460018201805460ff90921693509061138b90613671565b80601f01602080910402602001604051908101604052809291908181526020018280546113b790613671565b80156114045780601f106113d957610100808354040283529160200191611404565b820191906000526020600020905b8154815290600101906020018083116113e757829003601f168201915b505050600484015460058501546006860154600787015460088801546009890154600a9099015497986001600160a01b039586169894861697509295509316929189565b6006546001600160a01b031633146114925760405162461bcd60e51b815260206004820152600d60248201526c2737ba103a34329037bbb732b960991b604482015260640161034f565b600554600080546040516370a0823160e01b81523060048201529192916001600160a01b03909116906370a0823190602401602060405180830381865afa1580156114e1573d6000803e3d6000fd5b505050506040513d601f19601f82011682018060405250810190611505919061359d565b61150f9190613605565b116115555760405162461bcd60e51b815260206004820152601660248201527554686520746f6b656e206973206e6f7420657874726160501b604482015260640161034f565b6000546006546005546040516370a0823160e01b81523060048201526001600160a01b039384169363a9059cbb9316919084906370a0823190602401602060405180830381865afa1580156115ae573d6000803e3d6000fd5b505050506040513d601f19601f820116820180604052508101906115d2919061359d565b6115dc9190613605565b6040516001600160e01b031960e085901b1681526001600160a01b03909216600483015260248201526044016020604051808303816000875af1158015611627573d6000803e3d6000fd5b505050506040513d601f19601f82011682018060405250810190610b13919061363c565b611653612f5e565b60078281548110611666576116666137ba565b6000918252602091829020604080516101608101909152600b90920201805460ff161515825260018101805492939192918401916116a390613671565b80601f01602080910402602001604051908101604052809291908181526020018280546116cf90613671565b801561171c5780601f106116f15761010080835404028352916020019161171c565b820191906000526020600020905b8154815290600101906020018083116116ff57829003601f168201915b5050505050815260200160028201805480602002602001604051908101604052809291908181526020016000905b828210156117f657838290600052602060002001805461176990613671565b80601f016020809104026020016040519081016040528092919081815260200182805461179590613671565b80156117e25780601f106117b7576101008083540402835291602001916117e2565b820191906000526020600020905b8154815290600101906020018083116117c557829003601f168201915b50505050508152602001906001019061174a565b5050505081526020016003820180548060200260200160405190810160405280929190818152602001828054801561184d57602002820191906000526020600020905b815481526020019060010190808311611839575b505050918352505060048201546001600160a01b039081166020830152600583015481166040830152600683015460608301526007830154166080820152600882015460a0820152600982015460c0820152600a9091015460e09091015292915050565b600654600160a01b900460ff16156119035760405162461bcd60e51b8152602060048201526015602482015274115c9c9bdc8e881499595b9d1c985b9d0818d85b1b605a1b604482015260640161034f565b6006805460ff60a01b1916600160a01b179055600780548390811061192a5761192a6137ba565b90600052602060002090600b020160060154600103611ea15760078281548110611956576119566137ba565b600091825260208220600b91909102016008015490546040516370a0823160e01b81523360048201526001600160a01b03909116906370a0823190602401602060405180830381865afa1580156119b1573d6000803e3d6000fd5b505050506040513d601f19601f820116820180604052508101906119d5919061359d565b1015611a185760405162461bcd60e51b81526020600482015260126024820152714e6f7420656e6f7567682062616c616e636560701b604482015260640161034f565b60078281548110611a2b57611a2b6137ba565b90600052602060002090600b0201600801548114611a8b5760405162461bcd60e51b815260206004820152601a60248201527f4e65656420746f20706179206d696e2062657420616d6f756e74000000000000604482015260640161034f565b6000606460035483611a9d91906135cc565b611aa791906135e3565b90506000606460045484611abb91906135cc565b611ac591906135e3565b9050600081611ad48486613605565b611ade9190613605565b6000546040516323b872dd60e01b81529192506001600160a01b0316906323b872dd90611b1590339061dead908890600401613618565b6020604051808303816000875af1158015611b34573d6000803e3d6000fd5b505050506040513d601f19601f82011682018060405250810190611b58919061363c565b506000546002546040516323b872dd60e01b81526001600160a01b03928316926323b872dd92611b92923392909116908790600401613618565b6020604051808303816000875af1158015611bb1573d6000803e3d6000fd5b505050506040513d601f19601f82011682018060405250810190611bd5919061363c565b506000546040516323b872dd60e01b81526001600160a01b03909116906323b872dd90611c0a90339030908690600401613618565b6020604051808303816000875af1158015611c29573d6000803e3d6000fd5b505050506040513d601f19601f82011682018060405250810190611c4d919061363c565b508060056000828254611c60919061365e565b90915550506007805486908110611c7957611c796137ba565b600091825260209091206004600b9092020101546001600160a01b03163303611cf05760405162461bcd60e51b8152602060048201526024808201527f4572726f723a20596f752063616e6e6f7420706c6179207769746820796f757260448201526339b2b63360e11b606482015260840161034f565b3360078681548110611d0457611d046137ba565b90600052602060002090600b020160050160006101000a8154816001600160a01b0302191690836001600160a01b03160217905550600260078681548110611d4e57611d4e6137ba565b90600052602060002090600b020160060181905550600160078681548110611d7857611d786137ba565b90600052602060002090600b020160000160006101000a81548160ff0219169083151502179055508360078681548110611db457611db46137ba565b90600052602060002090600b0201600901819055507f2f78808c539fd07cb45456a5d5561c76d3d4005246faccb297481e511abc321a60078681548110611dfd57611dfd6137ba565b90600052602060002090600b020160040160009054906101000a90046001600160a01b031660078781548110611e3557611e356137ba565b6000918252602091829020600b91820201600501546040805160808082528101939093526a53746172742067616d652160a81b60a08401526001600160a01b039485169383019390935292909216908201526060810187905260c00160405180910390a1505050611f3b565b60078281548110611eb457611eb46137ba565b90600052602060002090600b020160060154600214611f3b5760405162461bcd60e51b815260206004820152603e60248201527f4e6f772071756575652069732066756c6c2c20747279206c617465722e20476160448201527f6d6520616c72656164792066756c6c20706c73206a6f696e206f746865720000606482015260840161034f565b7f50370b40bd566613cb1b12508c3114409e62c5c8de11be443cafc84462cf569960078381548110611f6f57611f6f6137ba565b90600052602060002090600b020183604051611f8c9291906139f1565b60405180910390a150506006805460ff60a01b19169055565b6000546040516370a0823160e01b81523060048201526064916001600160a01b0316906370a0823190602401602060405180830381865afa158015611fee573d6000803e3d6000fd5b505050506040513d601f19601f82011682018060405250810190612012919061359d565b116120755760405162461bcd60e51b815260206004820152602d60248201527f54686520636f6e747261637420646f6573206e6f74206861766520746f6b656e60448201526c39903a3790383937bb34b2329760991b606482015260840161034f565b6000546040516370a0823160e01b8152336004820152600a916001600160a01b0316906370a0823190602401602060405180830381865afa1580156120be573d6000803e3d6000fd5b505050506040513d601f19601f820116820180604052508101906120e2919061359d565b1061212f5760405162461bcd60e51b815260206004820152601a60248201527f596f75207374696c6c20676f7420656e6f75676820746f6b656e000000000000604482015260640161034f565b6000805460405163a9059cbb60e01b815233600482015268056bc75e2d6310000060248201526001600160a01b039091169063a9059cbb906044016020604051808303816000875af1158015612189573d6000803e3d6000fd5b505050506040513d601f19601f820116820180604052508101906121ad919061363c565b6040805133815282151560208201529192507f1d67794760bb3ea2174b2ccc7b8aa2d786ef61a72e7be363dab04929e3510b1c9101610f1c565b6000816040516020016121fa9190613ad1565b60405160208183030381529060405280519060200120836040516020016122219190613ad1565b604051602081830303815290604052805190602001201490505b92915050565b606060078281548110612256576122566137ba565b90600052602060002090600b0201600201805480602002602001604051908101604052809291908181526020016000905b828210156123335783829060005260206000200180546122a690613671565b80601f01602080910402602001604051908101604052809291908181526020018280546122d290613671565b801561231f5780601f106122f45761010080835404028352916020019161231f565b820191906000526020600020905b81548152906001019060200180831161230257829003601f168201915b505050505081526020019060010190612287565b505050509050919050565b6006546001600160a01b031633146123885760405162461bcd60e51b815260206004820152600d60248201526c2737ba103a34329037bbb732b960991b604482015260640161034f565b6000546006546040516370a0823160e01b81523060048201526001600160a01b039283169263a9059cbb92169083906370a0823190602401602060405180830381865afa1580156123dd573d6000803e3d6000fd5b505050506040513d601f19601f820116820180604052508101906115dc919061359d565b600060078281548110612416576124166137ba565b60009182526020909120600b90910201600401546001600160a01b031633148061246e57506007828154811061244e5761244e6137ba565b60009182526020909120600b90910201600501546001600160a01b031633145b61247957600061223b565b600192915050565b6000805b6008548110156129b4576000600882815481106124a4576124a46137ba565b906000526020600020018054806020026020016040519081016040528092919081815260200182805480156124f857602002820191906000526020600020905b8154815260200190600101908083116124e4575b50505050509050600060078581548110612514576125146137ba565b90600052602060002090600b020160020182600081518110612538576125386137ba565b602002602001015181548110612550576125506137ba565b90600052602060002001805461256590613671565b80601f016020809104026020016040519081016040528092919081815260200182805461259190613671565b80156125de5780601f106125b3576101008083540402835291602001916125de565b820191906000526020600020905b8154815290600101906020018083116125c157829003601f168201915b505050505090506000600786815481106125fa576125fa6137ba565b90600052602060002090600b02016002018360018151811061261e5761261e6137ba565b602002602001015181548110612636576126366137ba565b90600052602060002001805461264b90613671565b80601f016020809104026020016040519081016040528092919081815260200182805461267790613671565b80156126c45780601f10612699576101008083540402835291602001916126c4565b820191906000526020600020905b8154815290600101906020018083116126a757829003601f168201915b505050505090506000600787815481106126e0576126e06137ba565b90600052602060002090600b020160020184600281518110612704576127046137ba565b60200260200101518154811061271c5761271c6137ba565b90600052602060002001805461273190613671565b80601f016020809104026020016040519081016040528092919081815260200182805461275d90613671565b80156127aa5780601f1061277f576101008083540402835291602001916127aa565b820191906000526020600020905b81548152906001019060200180831161278d57829003601f168201915b505050505090506127ca83604051806020016040528060008152506121e7565b806127e957506127e982604051806020016040528060008152506121e7565b80612808575061280881604051806020016040528060008152506121e7565b1561281657505050506129a2565b61282083836121e7565b8015612831575061283182826121e7565b1561299d57836007888154811061284a5761284a6137ba565b90600052602060002090600b0201600301908051906020019061286e92919061302b565b50612885600788815481106110cc576110cc6137ba565b1561290f576007878154811061289d5761289d6137ba565b90600052602060002090600b020160040160009054906101000a90046001600160a01b0316600788815481106128d5576128d56137ba565b90600052602060002090600b020160070160006101000a8154816001600160a01b0302191690836001600160a01b03160217905550612990565b60078781548110612922576129226137ba565b90600052602060002090600b020160050160009054906101000a90046001600160a01b03166007888154811061295a5761295a6137ba565b90600052602060002090600b020160070160006101000a8154816001600160a01b0302191690836001600160a01b031602179055505b60019550505050506129b4565b505050505b806129ac816137d0565b915050612485565b508015612c99576129d1600783815481106110cc576110cc6137ba565b15612acb57600054600780546001600160a01b039092169163a9059cbb919085908110612a0057612a006137ba565b90600052602060002090600b020160040160009054906101000a90046001600160a01b031660078581548110612a3857612a386137ba565b90600052602060002090600b0201600a01546002612a5691906135cc565b6040516001600160e01b031960e085901b1681526001600160a01b03909216600483015260248201526044016020604051808303816000875af1158015612aa1573d6000803e3d6000fd5b505050506040513d601f19601f82011682018060405250810190612ac5919061363c565b50612bbc565b600054600780546001600160a01b039092169163a9059cbb919085908110612af557612af56137ba565b90600052602060002090600b020160050160009054906101000a90046001600160a01b031660078581548110612b2d57612b2d6137ba565b90600052602060002090600b0201600a01546002612b4b91906135cc565b6040516001600160e01b031960e085901b1681526001600160a01b03909216600483015260248201526044016020604051808303816000875af1158015612b96573d6000803e3d6000fd5b505050506040513d601f19601f82011682018060405250810190612bba919061363c565b505b60078281548110612bcf57612bcf6137ba565b90600052602060002090600b0201600a01546002612bed91906135cc565b60056000828254612bfe9190613605565b925050819055507f938a1c44580c51d01225d61fb97878104148b1cdc734eb45bc5b5b50533a492d60078381548110612c3957612c396137ba565b90600052602060002090600b020160010183604051612c59929190613aed565b60405180910390a1600060078381548110612c7657612c766137ba565b60009182526020909120600b90910201805460ff19169115159190911790555050565b612ca282612cfe565b15612cf55760408051818152600491810191909152634472617760e01b6060820152602081018390527f938a1c44580c51d01225d61fb97878104148b1cdc734eb45bc5b5b50533a492d90608001612c59565b61134e82612d92565b6000805b60078381548110612d1557612d156137ba565b90600052602060002090600b020160020180549050811015612d8957612d6960078481548110612d4757612d476137ba565b90600052602060002090600b02016002018281548110610fd257610fd26137ba565b15612d775750600092915050565b80612d81816137d0565b915050612d02565b50600192915050565b612da8600782815481106110cc576110cc6137ba565b15612e1b577feefc3fd775b975165c9d067e02fcd5bf5889d58041ae6ddaf94f2cc85300727260078281548110612de157612de16137ba565b6000918252602091829020600b9091020160050154604080516001600160a01b0390921682529181018490520160405180910390a1612e85565b7feefc3fd775b975165c9d067e02fcd5bf5889d58041ae6ddaf94f2cc85300727260078281548110612e4f57612e4f6137ba565b6000918252602091829020600b9091020160040154604080516001600160a01b0390921682529181018490520160405180910390a15b612e9b600782815481106110cc576110cc6137ba565b612ebe57604051806040016040528060018152602001600b60fb1b815250612ed9565b604051806040016040528060018152602001604f60f81b8152505b60078281548110612eec57612eec6137ba565b90600052602060002090600b02016001019081612f0991906136fa565b507fa6d1cb5f730b987124c37c3876130fddba49456449948ec4257360f5ab2851c060078281548110612f3e57612f3e6137ba565b90600052602060002090600b020160010182604051610f1c929190613aed565b60405180610160016040528060001515815260200160608152602001606081526020016060815260200160006001600160a01b0316815260200160006001600160a01b031681526020016000815260200160006001600160a01b031681526020016000815260200160008152602001600081525090565b82805482825590600052602060002090810192821561301b579160200282015b8281111561301b578251829061300b90826136fa565b5091602001919060010190612ff5565b506130279291506130b8565b5090565b828054828255906000526020600020908101928215613066579160200282015b8281111561306657825182559160200191906001019061304b565b506130279291506130d5565b82805482825590600052602060002090810192821561301b579160200282015b8281111561301b57825182906130a890826136fa565b5091602001919060010190613092565b808211156130275760006130cc82826130ea565b506001016130b8565b5b8082111561302757600081556001016130d6565b5080546130f690613671565b6000825580601f10613106575050565b601f016020900490600052602060002090810190610b1391906130d5565b60006020828403121561313657600080fd5b5035919050565b6020808252825182820181905260009190848201906040850190845b8181101561317557835183529284019291840191600101613159565b50909695505050505050565b60005b8381101561319c578181015183820152602001613184565b50506000910152565b600081518084526131bd816020860160208601613181565b601f01601f19169290920160200192915050565b600082825180855260208086019550808260051b84010181860160005b8481101561321c57601f1986840301895261320a8383516131a5565b988401989250908301906001016131ee565b5090979650505050505050565b600081518084526020808501945080840160005b838110156132595781518752958201959082019060010161323d565b509495945050505050565b80511515825260006101606020830151816020860152613286828601826131a5565b915050604083015184820360408601526132a082826131d1565b915050606083015184820360608601526132ba8282613229565b91505060808301516132d760808601826001600160a01b03169052565b5060a08301516132f260a08601826001600160a01b03169052565b5060c083015160c085015260e083015161331760e08601826001600160a01b03169052565b50610100838101519085015261012080840151908501526101409283015192909301919091525090565b6000602080830181845280855180835260408601915060408160051b870101925083870160005b8281101561339657603f19888603018452613384858351613264565b94509285019290850190600101613368565b5092979650505050505050565b600080604083850312156133b657600080fd5b50508035926020909101359150565b60006101208b151583528060208401526133e18184018c6131a5565b6001600160a01b039a8b166040850152988a166060840152505060808101959095529290951660a084015260c083015260e0820193909352610100019190915292915050565b60208152600061343a6020830184613264565b9392505050565b634e487b7160e01b600052604160045260246000fd5b600082601f83011261346857600080fd5b813567ffffffffffffffff8082111561348357613483613441565b604051601f8301601f19908116603f011681019082821181831017156134ab576134ab613441565b816040528381528660208588010111156134c457600080fd5b836020870160208301376000602085830101528094505050505092915050565b600080604083850312156134f757600080fd5b823567ffffffffffffffff8082111561350f57600080fd5b61351b86838701613457565b9350602085013591508082111561353157600080fd5b5061353e85828601613457565b9150509250929050565b6000602080830181845280855180835260408601915060408160051b870101925083870160005b8281101561339657603f1988860301845261358b8583516131a5565b9450928501929085019060010161356f565b6000602082840312156135af57600080fd5b5051919050565b634e487b7160e01b600052601160045260246000fd5b808202811582820484141761223b5761223b6135b6565b60008261360057634e487b7160e01b600052601260045260246000fd5b500490565b8181038181111561223b5761223b6135b6565b6001600160a01b039384168152919092166020820152604081019190915260600190565b60006020828403121561364e57600080fd5b8151801515811461343a57600080fd5b8082018082111561223b5761223b6135b6565b600181811c9082168061368557607f821691505b6020821081036136a557634e487b7160e01b600052602260045260246000fd5b50919050565b601f8211156136f557600081815260208120601f850160051c810160208610156136d25750805b601f850160051c820191505b818110156136f1578281556001016136de565b5050505b505050565b815167ffffffffffffffff81111561371457613714613441565b613728816137228454613671565b846136ab565b602080601f83116001811461375d57600084156137455750858301515b600019600386901b1c1916600185901b1785556136f1565b600085815260208120601f198616915b8281101561378c5788860151825594840194600190910190840161376d565b50858210156137aa5787850151600019600388901b60f8161c191681555b5050505050600190811b01905550565b634e487b7160e01b600052603260045260246000fd5b6000600182016137e2576137e26135b6565b5060010190565b8181036137f4575050565b6137fe8254613671565b67ffffffffffffffff81111561381657613816613441565b613824816137228454613671565b6000601f82116001811461385857600083156138405750848201545b600019600385901b1c1916600184901b1784556138bd565b600085815260209020601f19841690600086815260209020845b838110156138925782860154825560019586019590910190602001613872565b50858310156138b05781850154600019600388901b60f8161c191681555b50505060018360011b0184555b5050505050565b600081546138d181613671565b8085526020600183811680156138ee576001811461390857613936565b60ff1985168884015283151560051b880183019550613936565b866000528260002060005b8581101561392e5781548a8201860152908301908401613913565b890184019650505b505050505092915050565b600081548084526020808501808196508360051b81019150856000528260002060005b8581101561398d57828403895261397b84836138c4565b98850198935060019182019101613964565b5091979650505050505050565b6040815260006139ad6040830185613941565b90508260208301529392505050565b6000815480845260208085019450836000528060002060005b83811015613259578154875295820195600191820191016139d5565b60408152613a0d60408201613a07855460ff1690565b15159052565b6000610160806060840152613a296101a08401600187016138c4565b603f1980858303016080860152613a438260028901613941565b9150808583030160a086015250613a5d81600388016139bc565b9050613a7360048701546001600160a01b031690565b6001600160a01b0390811660c08601526005870154811660e086015260068701546101008601526007870154166101208501526008860154610140850152600986015491840191909152600a90940154610180830152506020015290565b60008251613ae3818460208701613181565b9190910192915050565b6040815260006139ad60408301856138c456fea2646970667358221220c228eb6b1b7490ebd3c10f6d9ea9beefb7362b2d2a00ddf9423c5c3ebad40bdf64736f6c63430008130033",
					"opcodes": "PUSH1 0x0 DUP1 SLOAD PUSH1 0x1 PUSH1 0x1 PUSH1 0xA0 SHL SUB NOT SWAP1 DUP2 AND PUSH20 0x927E818DDCAB12D025495B228A4CE1DAE82798EC OR DUP3 SSTORE PUSH8 0x8AC7230489E80000 PUSH1 0x1 SWAP1 DUP2 SSTORE PUSH1 0x2 DUP1 SLOAD SWAP1 SWAP3 AND PUSH20 0x3CE5A8A72820585C60F659896338D57347196991 OR DUP3 SSTORE PUSH1 0x5 PUSH1 0x3 DUP2 DUP2 SSTORE PUSH1 0x4 DUP3 DUP2 SSTORE PUSH2 0x180 DUP7 DUP2 MSTORE PUSH2 0x1A0 DUP6 SWAP1 MSTORE PUSH2 0x1C0 DUP7 SWAP1 MSTORE PUSH1 0x80 SWAP1 DUP2 MSTORE PUSH2 0x1E0 DUP4 DUP2 MSTORE PUSH2 0x200 DUP4 SWAP1 MSTORE PUSH2 0x220 DUP6 SWAP1 MSTORE PUSH1 0xA0 MSTORE PUSH1 0x6 PUSH2 0x240 DUP2 DUP2 MSTORE PUSH1 0x7 PUSH2 0x260 DUP2 SWAP1 MSTORE PUSH1 0x8 PUSH2 0x280 DUP2 SWAP1 MSTORE PUSH1 0xC0 SWAP3 SWAP1 SWAP3 MSTORE PUSH2 0x2A0 DUP11 DUP2 MSTORE PUSH2 0x2C0 SWAP7 SWAP1 SWAP7 MSTORE PUSH2 0x2E0 DUP4 SWAP1 MSTORE PUSH1 0xE0 SWAP6 SWAP1 SWAP6 MSTORE PUSH2 0x300 SWAP7 DUP8 MSTORE PUSH2 0x320 DUP5 SWAP1 MSTORE PUSH2 0x340 SWAP5 SWAP1 SWAP5 MSTORE PUSH2 0x100 SWAP6 SWAP1 SWAP6 MSTORE PUSH2 0x360 DUP7 DUP2 MSTORE PUSH2 0x380 SWAP5 SWAP1 SWAP5 MSTORE PUSH2 0x3A0 DUP4 SWAP1 MSTORE PUSH2 0x120 SWAP4 SWAP1 SWAP4 MSTORE PUSH2 0x3C0 SWAP6 DUP7 MSTORE PUSH2 0x3E0 DUP2 SWAP1 MSTORE PUSH2 0x400 DUP3 SWAP1 MSTORE PUSH2 0x140 SWAP6 SWAP1 SWAP6 MSTORE PUSH2 0x480 PUSH1 0x40 MSTORE PUSH2 0x420 SWAP4 DUP5 MSTORE PUSH2 0x440 SWAP5 SWAP1 SWAP5 MSTORE PUSH2 0x460 SWAP2 SWAP1 SWAP2 MSTORE PUSH2 0x160 SWAP2 SWAP1 SWAP2 MSTORE PUSH3 0x13E SWAP2 SWAP1 DUP2 PUSH3 0x165 JUMP JUMPDEST POP CALLVALUE DUP1 ISZERO PUSH3 0x14C JUMPI PUSH1 0x0 DUP1 REVERT JUMPDEST POP PUSH1 0x6 DUP1 SLOAD PUSH1 0x1 PUSH1 0x1 PUSH1 0xA0 SHL SUB NOT AND CALLER OR SWAP1 SSTORE PUSH3 0x26F JUMP JUMPDEST DUP3 DUP1 SLOAD DUP3 DUP3 SSTORE SWAP1 PUSH1 0x0 MSTORE PUSH1 0x20 PUSH1 0x0 KECCAK256 SWAP1 DUP2 ADD SWAP3 DUP3 ISZERO PUSH3 0x1B1 JUMPI SWAP2 PUSH1 0x20 MUL DUP3 ADD JUMPDEST DUP3 DUP2 GT ISZERO PUSH3 0x1B1 JUMPI DUP3 MLOAD PUSH3 0x1A0 SWAP1 DUP4 SWAP1 PUSH1 0x3 PUSH3 0x1C3 JUMP JUMPDEST POP SWAP2 PUSH1 0x20 ADD SWAP2 SWAP1 PUSH1 0x1 ADD SWAP1 PUSH3 0x186 JUMP JUMPDEST POP PUSH3 0x1BF SWAP3 SWAP2 POP PUSH3 0x214 JUMP JUMPDEST POP SWAP1 JUMP JUMPDEST DUP3 DUP1 SLOAD DUP3 DUP3 SSTORE SWAP1 PUSH1 0x0 MSTORE PUSH1 0x20 PUSH1 0x0 KECCAK256 SWAP1 DUP2 ADD SWAP3 DUP3 ISZERO PUSH3 0x206 JUMPI SWAP2 PUSH1 0x20 MUL DUP3 ADD JUMPDEST DUP3 DUP2 GT ISZERO PUSH3 0x206 JUMPI DUP3 MLOAD DUP3 SWAP1 PUSH1 0xFF AND SWAP1 SSTORE SWAP2 PUSH1 0x20 ADD SWAP2 SWAP1 PUSH1 0x1 ADD SWAP1 PUSH3 0x1E4 JUMP JUMPDEST POP PUSH3 0x1BF SWAP3 SWAP2 POP PUSH3 0x235 JUMP JUMPDEST DUP1 DUP3 GT ISZERO PUSH3 0x1BF JUMPI PUSH1 0x0 PUSH3 0x22B DUP3 DUP3 PUSH3 0x24C JUMP JUMPDEST POP PUSH1 0x1 ADD PUSH3 0x214 JUMP JUMPDEST JUMPDEST DUP1 DUP3 GT ISZERO PUSH3 0x1BF JUMPI PUSH1 0x0 DUP2 SSTORE PUSH1 0x1 ADD PUSH3 0x236 JUMP JUMPDEST POP DUP1 SLOAD PUSH1 0x0 DUP3 SSTORE SWAP1 PUSH1 0x0 MSTORE PUSH1 0x20 PUSH1 0x0 KECCAK256 SWAP1 DUP2 ADD SWAP1 PUSH3 0x26C SWAP2 SWAP1 PUSH3 0x235 JUMP JUMPDEST POP JUMP JUMPDEST PUSH2 0x3B36 DUP1 PUSH3 0x27F PUSH1 0x0 CODECOPY PUSH1 0x0 RETURN INVALID PUSH1 0x80 PUSH1 0x40 MSTORE CALLVALUE DUP1 ISZERO PUSH2 0x10 JUMPI PUSH1 0x0 DUP1 REVERT JUMPDEST POP PUSH1 0x4 CALLDATASIZE LT PUSH2 0x137 JUMPI PUSH1 0x0 CALLDATALOAD PUSH1 0xE0 SHR DUP1 PUSH4 0x888B042F GT PUSH2 0xB8 JUMPI DUP1 PUSH4 0xBED34BBA GT PUSH2 0x7C JUMPI DUP1 PUSH4 0xBED34BBA EQ PUSH2 0x29B JUMPI DUP1 PUSH4 0xCC32D176 EQ PUSH2 0x2BE JUMPI DUP1 PUSH4 0xDC572C6E EQ PUSH2 0x2C7 JUMPI DUP1 PUSH4 0xEDB84FF7 EQ PUSH2 0x2E7 JUMPI DUP1 PUSH4 0xFA968EEA EQ PUSH2 0x2EF JUMPI DUP1 PUSH4 0xFCE589D8 EQ PUSH2 0x2F8 JUMPI PUSH1 0x0 DUP1 REVERT JUMPDEST DUP1 PUSH4 0x888B042F EQ PUSH2 0x245 JUMPI DUP1 PUSH4 0x8DA5CB5B EQ PUSH2 0x24D JUMPI DUP1 PUSH4 0xB2182BE4 EQ PUSH2 0x260 JUMPI DUP1 PUSH4 0xB60B9FCB EQ PUSH2 0x280 JUMPI DUP1 PUSH4 0xB7B524A1 EQ PUSH2 0x293 JUMPI PUSH1 0x0 DUP1 REVERT JUMPDEST DUP1 PUSH4 0x4A968391 GT PUSH2 0xFF JUMPI DUP1 PUSH4 0x4A968391 EQ PUSH2 0x1B9 JUMPI DUP1 PUSH4 0x52BC3410 EQ PUSH2 0x1CC JUMPI DUP1 PUSH4 0x61D027B3 EQ PUSH2 0x1DF JUMPI DUP1 PUSH4 0x7EFFB427 EQ PUSH2 0x20A JUMPI DUP1 PUSH4 0x87052FAB EQ PUSH2 0x21D JUMPI PUSH1 0x0 DUP1 REVERT JUMPDEST DUP1 PUSH4 0x6139E8D EQ PUSH2 0x13C JUMPI DUP1 PUSH4 0x17B44960 EQ PUSH2 0x151 JUMPI DUP1 PUSH4 0x1A39D8EF EQ PUSH2 0x17A JUMPI DUP1 PUSH4 0x34FD3518 EQ PUSH2 0x191 JUMPI DUP1 PUSH4 0x491F0136 EQ PUSH2 0x1A4 JUMPI JUMPDEST PUSH1 0x0 DUP1 REVERT JUMPDEST PUSH2 0x14F PUSH2 0x14A CALLDATASIZE PUSH1 0x4 PUSH2 0x3124 JUMP JUMPDEST PUSH2 0x301 JUMP JUMPDEST STOP JUMPDEST PUSH2 0x164 PUSH2 0x15F CALLDATASIZE PUSH1 0x4 PUSH2 0x3124 JUMP JUMPDEST PUSH2 0x9D0 JUMP JUMPDEST PUSH1 0x40 MLOAD PUSH2 0x171 SWAP2 SWAP1 PUSH2 0x313D JUMP JUMPDEST PUSH1 0x40 MLOAD DUP1 SWAP2 SUB SWAP1 RETURN JUMPDEST PUSH2 0x183 PUSH1 0x5 SLOAD DUP2 JUMP JUMPDEST PUSH1 0x40 MLOAD SWAP1 DUP2 MSTORE PUSH1 0x20 ADD PUSH2 0x171 JUMP JUMPDEST PUSH2 0x14F PUSH2 0x19F CALLDATASIZE PUSH1 0x4 PUSH2 0x3124 JUMP JUMPDEST PUSH2 0xA4C JUMP JUMPDEST PUSH2 0x1AC PUSH2 0xB16 JUMP JUMPDEST PUSH1 0x40 MLOAD PUSH2 0x171 SWAP2 SWAP1 PUSH2 0x3341 JUMP JUMPDEST PUSH2 0x14F PUSH2 0x1C7 CALLDATASIZE PUSH1 0x4 PUSH2 0x3124 JUMP JUMPDEST PUSH2 0xDA7 JUMP JUMPDEST PUSH2 0x14F PUSH2 0x1DA CALLDATASIZE PUSH1 0x4 PUSH2 0x33A3 JUMP JUMPDEST PUSH2 0xF27 JUMP JUMPDEST PUSH1 0x2 SLOAD PUSH2 0x1F2 SWAP1 PUSH1 0x1 PUSH1 0x1 PUSH1 0xA0 SHL SUB AND DUP2 JUMP JUMPDEST PUSH1 0x40 MLOAD PUSH1 0x1 PUSH1 0x1 PUSH1 0xA0 SHL SUB SWAP1 SWAP2 AND DUP2 MSTORE PUSH1 0x20 ADD PUSH2 0x171 JUMP JUMPDEST PUSH1 0x0 SLOAD PUSH2 0x1F2 SWAP1 PUSH1 0x1 PUSH1 0x1 PUSH1 0xA0 SHL SUB AND DUP2 JUMP JUMPDEST PUSH2 0x230 PUSH2 0x22B CALLDATASIZE PUSH1 0x4 PUSH2 0x3124 JUMP JUMPDEST PUSH2 0x1352 JUMP JUMPDEST PUSH1 0x40 MLOAD PUSH2 0x171 SWAP10 SWAP9 SWAP8 SWAP7 SWAP6 SWAP5 SWAP4 SWAP3 SWAP2 SWAP1 PUSH2 0x33C5 JUMP JUMPDEST PUSH2 0x14F PUSH2 0x1448 JUMP JUMPDEST PUSH1 0x6 SLOAD PUSH2 0x1F2 SWAP1 PUSH1 0x1 PUSH1 0x1 PUSH1 0xA0 SHL SUB AND DUP2 JUMP JUMPDEST PUSH2 0x273 PUSH2 0x26E CALLDATASIZE PUSH1 0x4 PUSH2 0x3124 JUMP JUMPDEST PUSH2 0x164B JUMP JUMPDEST PUSH1 0x40 MLOAD PUSH2 0x171 SWAP2 SWAP1 PUSH2 0x3427 JUMP JUMPDEST PUSH2 0x14F PUSH2 0x28E CALLDATASIZE PUSH1 0x4 PUSH2 0x33A3 JUMP JUMPDEST PUSH2 0x18B1 JUMP JUMPDEST PUSH2 0x14F PUSH2 0x1FA5 JUMP JUMPDEST PUSH2 0x2AE PUSH2 0x2A9 CALLDATASIZE PUSH1 0x4 PUSH2 0x34E4 JUMP JUMPDEST PUSH2 0x21E7 JUMP JUMPDEST PUSH1 0x40 MLOAD SWAP1 ISZERO ISZERO DUP2 MSTORE PUSH1 0x20 ADD PUSH2 0x171 JUMP JUMPDEST PUSH2 0x183 PUSH1 0x4 SLOAD DUP2 JUMP JUMPDEST PUSH2 0x2DA PUSH2 0x2D5 CALLDATASIZE PUSH1 0x4 PUSH2 0x3124 JUMP JUMPDEST PUSH2 0x2241 JUMP JUMPDEST PUSH1 0x40 MLOAD PUSH2 0x171 SWAP2 SWAP1 PUSH2 0x3548 JUMP JUMPDEST PUSH2 0x14F PUSH2 0x233E JUMP JUMPDEST PUSH2 0x183 PUSH1 0x1 SLOAD DUP2 JUMP JUMPDEST PUSH2 0x183 PUSH1 0x3 SLOAD DUP2 JUMP JUMPDEST PUSH1 0x6 SLOAD PUSH1 0x1 PUSH1 0xA0 SHL SWAP1 DIV PUSH1 0xFF AND ISZERO PUSH2 0x358 JUMPI PUSH1 0x40 MLOAD PUSH3 0x461BCD PUSH1 0xE5 SHL DUP2 MSTORE PUSH1 0x20 PUSH1 0x4 DUP3 ADD MSTORE PUSH1 0x15 PUSH1 0x24 DUP3 ADD MSTORE PUSH21 0x115C9C9BDC8E881499595B9D1C985B9D0818D85B1B PUSH1 0x5A SHL PUSH1 0x44 DUP3 ADD MSTORE PUSH1 0x64 ADD JUMPDEST PUSH1 0x40 MLOAD DUP1 SWAP2 SUB SWAP1 REVERT JUMPDEST PUSH1 0x6 DUP1 SLOAD PUSH1 0xFF PUSH1 0xA0 SHL NOT AND PUSH1 0x1 PUSH1 0xA0 SHL OR SWAP1 SSTORE PUSH1 0x0 SLOAD PUSH1 0x40 MLOAD PUSH4 0x70A08231 PUSH1 0xE0 SHL DUP2 MSTORE CALLER PUSH1 0x4 DUP3 ADD MSTORE DUP3 SWAP2 PUSH1 0x1 PUSH1 0x1 PUSH1 0xA0 SHL SUB AND SWAP1 PUSH4 0x70A08231 SWAP1 PUSH1 0x24 ADD PUSH1 0x20 PUSH1 0x40 MLOAD DUP1 DUP4 SUB DUP2 DUP7 GAS STATICCALL ISZERO DUP1 ISZERO PUSH2 0x3B3 JUMPI RETURNDATASIZE PUSH1 0x0 DUP1 RETURNDATACOPY RETURNDATASIZE PUSH1 0x0 REVERT JUMPDEST POP POP POP POP PUSH1 0x40 MLOAD RETURNDATASIZE PUSH1 0x1F NOT PUSH1 0x1F DUP3 ADD AND DUP3 ADD DUP1 PUSH1 0x40 MSTORE POP DUP2 ADD SWAP1 PUSH2 0x3D7 SWAP2 SWAP1 PUSH2 0x359D JUMP JUMPDEST LT ISZERO PUSH2 0x41A JUMPI PUSH1 0x40 MLOAD PUSH3 0x461BCD PUSH1 0xE5 SHL DUP2 MSTORE PUSH1 0x20 PUSH1 0x4 DUP3 ADD MSTORE PUSH1 0x12 PUSH1 0x24 DUP3 ADD MSTORE PUSH18 0x4E6F7420656E6F7567682062616C616E6365 PUSH1 0x70 SHL PUSH1 0x44 DUP3 ADD MSTORE PUSH1 0x64 ADD PUSH2 0x34F JUMP JUMPDEST PUSH1 0x1 SLOAD DUP2 LT ISZERO PUSH2 0x46C JUMPI PUSH1 0x40 MLOAD PUSH3 0x461BCD PUSH1 0xE5 SHL DUP2 MSTORE PUSH1 0x20 PUSH1 0x4 DUP3 ADD MSTORE PUSH1 0x1A PUSH1 0x24 DUP3 ADD MSTORE PUSH32 0x4E65656420746F20706179206D696E2062657420616D6F756E74000000000000 PUSH1 0x44 DUP3 ADD MSTORE PUSH1 0x64 ADD PUSH2 0x34F JUMP JUMPDEST PUSH1 0x0 PUSH1 0x64 PUSH1 0x3 SLOAD DUP4 PUSH2 0x47E SWAP2 SWAP1 PUSH2 0x35CC JUMP JUMPDEST PUSH2 0x488 SWAP2 SWAP1 PUSH2 0x35E3 JUMP JUMPDEST SWAP1 POP PUSH1 0x0 PUSH1 0x64 PUSH1 0x4 SLOAD DUP5 PUSH2 0x49C SWAP2 SWAP1 PUSH2 0x35CC JUMP JUMPDEST PUSH2 0x4A6 SWAP2 SWAP1 PUSH2 0x35E3 JUMP JUMPDEST SWAP1 POP PUSH1 0x0 DUP2 PUSH2 0x4B5 DUP5 DUP7 PUSH2 0x3605 JUMP JUMPDEST PUSH2 0x4BF SWAP2 SWAP1 PUSH2 0x3605 JUMP JUMPDEST PUSH1 0x0 SLOAD PUSH1 0x40 MLOAD PUSH4 0x23B872DD PUSH1 0xE0 SHL DUP2 MSTORE SWAP2 SWAP3 POP PUSH1 0x1 PUSH1 0x1 PUSH1 0xA0 SHL SUB AND SWAP1 PUSH4 0x23B872DD SWAP1 PUSH2 0x4F6 SWAP1 CALLER SWAP1 PUSH2 0xDEAD SWAP1 DUP9 SWAP1 PUSH1 0x4 ADD PUSH2 0x3618 JUMP JUMPDEST PUSH1 0x20 PUSH1 0x40 MLOAD DUP1 DUP4 SUB DUP2 PUSH1 0x0 DUP8 GAS CALL ISZERO DUP1 ISZERO PUSH2 0x515 JUMPI RETURNDATASIZE PUSH1 0x0 DUP1 RETURNDATACOPY RETURNDATASIZE PUSH1 0x0 REVERT JUMPDEST POP POP POP POP PUSH1 0x40 MLOAD RETURNDATASIZE PUSH1 0x1F NOT PUSH1 0x1F DUP3 ADD AND DUP3 ADD DUP1 PUSH1 0x40 MSTORE POP DUP2 ADD SWAP1 PUSH2 0x539 SWAP2 SWAP1 PUSH2 0x363C JUMP JUMPDEST POP PUSH1 0x0 SLOAD PUSH1 0x2 SLOAD PUSH1 0x40 MLOAD PUSH4 0x23B872DD PUSH1 0xE0 SHL DUP2 MSTORE PUSH1 0x1 PUSH1 0x1 PUSH1 0xA0 SHL SUB SWAP3 DUP4 AND SWAP3 PUSH4 0x23B872DD SWAP3 PUSH2 0x573 SWAP3 CALLER SWAP3 SWAP1 SWAP2 AND SWAP1 DUP8 SWAP1 PUSH1 0x4 ADD PUSH2 0x3618 JUMP JUMPDEST PUSH1 0x20 PUSH1 0x40 MLOAD DUP1 DUP4 SUB DUP2 PUSH1 0x0 DUP8 GAS CALL ISZERO DUP1 ISZERO PUSH2 0x592 JUMPI RETURNDATASIZE PUSH1 0x0 DUP1 RETURNDATACOPY RETURNDATASIZE PUSH1 0x0 REVERT JUMPDEST POP POP POP POP PUSH1 0x40 MLOAD RETURNDATASIZE PUSH1 0x1F NOT PUSH1 0x1F DUP3 ADD AND DUP3 ADD DUP1 PUSH1 0x40 MSTORE POP DUP2 ADD SWAP1 PUSH2 0x5B6 SWAP2 SWAP1 PUSH2 0x363C JUMP JUMPDEST POP PUSH1 0x0 SLOAD PUSH1 0x40 MLOAD PUSH4 0x23B872DD PUSH1 0xE0 SHL DUP2 MSTORE PUSH1 0x1 PUSH1 0x1 PUSH1 0xA0 SHL SUB SWAP1 SWAP2 AND SWAP1 PUSH4 0x23B872DD SWAP1 PUSH2 0x5EB SWAP1 CALLER SWAP1 ADDRESS SWAP1 DUP7 SWAP1 PUSH1 0x4 ADD PUSH2 0x3618 JUMP JUMPDEST PUSH1 0x20 PUSH1 0x40 MLOAD DUP1 DUP4 SUB DUP2 PUSH1 0x0 DUP8 GAS CALL ISZERO DUP1 ISZERO PUSH2 0x60A JUMPI RETURNDATASIZE PUSH1 0x0 DUP1 RETURNDATACOPY RETURNDATASIZE PUSH1 0x0 REVERT JUMPDEST POP POP POP POP PUSH1 0x40 MLOAD RETURNDATASIZE PUSH1 0x1F NOT PUSH1 0x1F DUP3 ADD AND DUP3 ADD DUP1 PUSH1 0x40 MSTORE POP DUP2 ADD SWAP1 PUSH2 0x62E SWAP2 SWAP1 PUSH2 0x363C JUMP JUMPDEST POP DUP1 PUSH1 0x5 PUSH1 0x0 DUP3 DUP3 SLOAD PUSH2 0x641 SWAP2 SWAP1 PUSH2 0x365E JUMP JUMPDEST SWAP1 SWAP2 SSTORE POP PUSH2 0x64F SWAP1 POP PUSH2 0x2F5E JUMP JUMPDEST PUSH1 0x7 DUP1 SLOAD PUSH1 0x1 DUP2 ADD DUP3 SSTORE PUSH1 0x0 SWAP2 SWAP1 SWAP2 MSTORE DUP2 MLOAD PUSH32 0xA66CC928B5EDB82AF9BD49922954155AB7B0942694BEA4CE44661D9A8736C688 PUSH1 0xB SWAP1 SWAP3 MUL SWAP2 DUP3 ADD DUP1 SLOAD PUSH1 0xFF NOT AND SWAP2 ISZERO ISZERO SWAP2 SWAP1 SWAP2 OR DUP2 SSTORE PUSH1 0x20 DUP4 ADD MLOAD DUP4 SWAP3 PUSH32 0xA66CC928B5EDB82AF9BD49922954155AB7B0942694BEA4CE44661D9A8736C689 ADD SWAP1 PUSH2 0x6CD SWAP1 DUP3 PUSH2 0x36FA JUMP JUMPDEST POP PUSH1 0x40 DUP3 ADD MLOAD DUP1 MLOAD PUSH2 0x6E9 SWAP2 PUSH1 0x2 DUP5 ADD SWAP2 PUSH1 0x20 SWAP1 SWAP2 ADD SWAP1 PUSH2 0x2FD5 JUMP JUMPDEST POP PUSH1 0x60 DUP3 ADD MLOAD DUP1 MLOAD PUSH2 0x705 SWAP2 PUSH1 0x3 DUP5 ADD SWAP2 PUSH1 0x20 SWAP1 SWAP2 ADD SWAP1 PUSH2 0x302B JUMP JUMPDEST POP PUSH1 0x80 DUP3 ADD MLOAD PUSH1 0x4 DUP3 ADD DUP1 SLOAD PUSH1 0x1 PUSH1 0x1 PUSH1 0xA0 SHL SUB NOT SWAP1 DUP2 AND PUSH1 0x1 PUSH1 0x1 PUSH1 0xA0 SHL SUB SWAP4 DUP5 AND OR SWAP1 SWAP2 SSTORE PUSH1 0xA0 DUP5 ADD MLOAD PUSH1 0x5 DUP5 ADD DUP1 SLOAD DUP4 AND SWAP2 DUP5 AND SWAP2 SWAP1 SWAP2 OR SWAP1 SSTORE PUSH1 0xC0 DUP5 ADD MLOAD PUSH1 0x6 DUP5 ADD SSTORE PUSH1 0xE0 DUP5 ADD MLOAD PUSH1 0x7 DUP1 DUP6 ADD DUP1 SLOAD SWAP1 SWAP4 AND SWAP2 SWAP1 SWAP4 AND OR SWAP1 SSTORE PUSH2 0x100 DUP4 ADD MLOAD PUSH1 0x8 DUP4 ADD SSTORE PUSH2 0x120 DUP4 ADD MLOAD PUSH1 0x9 DUP4 ADD SSTORE PUSH2 0x140 SWAP1 SWAP3 ADD MLOAD PUSH1 0xA SWAP1 SWAP2 ADD SSTORE DUP1 SLOAD SWAP1 CALLER SWAP1 PUSH2 0x795 PUSH1 0x1 DUP5 PUSH2 0x3605 JUMP JUMPDEST DUP2 SLOAD DUP2 LT PUSH2 0x7A5 JUMPI PUSH2 0x7A5 PUSH2 0x37BA JUMP JUMPDEST PUSH1 0x0 SWAP2 DUP3 MSTORE PUSH1 0x20 DUP3 KECCAK256 PUSH1 0xB SWAP2 SWAP1 SWAP2 MUL ADD PUSH1 0x4 ADD DUP1 SLOAD PUSH1 0x1 PUSH1 0x1 PUSH1 0xA0 SHL SUB NOT AND PUSH1 0x1 PUSH1 0x1 PUSH1 0xA0 SHL SUB SWAP4 SWAP1 SWAP4 AND SWAP3 SWAP1 SWAP3 OR SWAP1 SWAP2 SSTORE PUSH1 0x7 PUSH2 0x7E4 PUSH1 0x1 DUP5 PUSH2 0x3605 JUMP JUMPDEST DUP2 SLOAD DUP2 LT PUSH2 0x7F4 JUMPI PUSH2 0x7F4 PUSH2 0x37BA JUMP JUMPDEST PUSH1 0x0 SWAP2 DUP3 MSTORE PUSH1 0x20 SWAP1 SWAP2 KECCAK256 PUSH1 0xB SWAP1 SWAP2 MUL ADD DUP1 SLOAD PUSH1 0xFF NOT AND SWAP2 ISZERO ISZERO SWAP2 SWAP1 SWAP2 OR SWAP1 SSTORE PUSH1 0x1 PUSH1 0x7 PUSH2 0x821 DUP3 DUP5 PUSH2 0x3605 JUMP JUMPDEST DUP2 SLOAD DUP2 LT PUSH2 0x831 JUMPI PUSH2 0x831 PUSH2 0x37BA JUMP JUMPDEST SWAP1 PUSH1 0x0 MSTORE PUSH1 0x20 PUSH1 0x0 KECCAK256 SWAP1 PUSH1 0xB MUL ADD PUSH1 0x6 ADD DUP2 SWAP1 SSTORE POP PUSH1 0x40 MLOAD DUP1 PUSH1 0x40 ADD PUSH1 0x40 MSTORE DUP1 PUSH1 0x1 DUP2 MSTORE PUSH1 0x20 ADD PUSH1 0xB PUSH1 0xFB SHL DUP2 MSTORE POP PUSH1 0x7 PUSH1 0x1 DUP4 PUSH2 0x86F SWAP2 SWAP1 PUSH2 0x3605 JUMP JUMPDEST DUP2 SLOAD DUP2 LT PUSH2 0x87F JUMPI PUSH2 0x87F PUSH2 0x37BA JUMP JUMPDEST SWAP1 PUSH1 0x0 MSTORE PUSH1 0x20 PUSH1 0x0 KECCAK256 SWAP1 PUSH1 0xB MUL ADD PUSH1 0x1 ADD SWAP1 DUP2 PUSH2 0x89C SWAP2 SWAP1 PUSH2 0x36FA JUMP JUMPDEST POP DUP6 PUSH1 0x7 PUSH2 0x8AB PUSH1 0x1 DUP5 PUSH2 0x3605 JUMP JUMPDEST DUP2 SLOAD DUP2 LT PUSH2 0x8BB JUMPI PUSH2 0x8BB PUSH2 0x37BA JUMP JUMPDEST PUSH1 0x0 SWAP2 DUP3 MSTORE PUSH1 0x20 SWAP1 SWAP2 KECCAK256 PUSH1 0x8 PUSH1 0xB SWAP1 SWAP3 MUL ADD ADD SSTORE DUP3 PUSH1 0x7 PUSH2 0x8DD PUSH1 0x1 DUP5 PUSH2 0x3605 JUMP JUMPDEST DUP2 SLOAD DUP2 LT PUSH2 0x8ED JUMPI PUSH2 0x8ED PUSH2 0x37BA JUMP JUMPDEST SWAP1 PUSH1 0x0 MSTORE PUSH1 0x20 PUSH1 0x0 KECCAK256 SWAP1 PUSH1 0xB MUL ADD PUSH1 0xA ADD DUP2 SWAP1 SSTORE POP PUSH1 0x0 JUMPDEST PUSH1 0x9 DUP2 LT ISZERO PUSH2 0x97D JUMPI PUSH1 0x7 PUSH2 0x91B PUSH1 0x1 DUP5 PUSH2 0x3605 JUMP JUMPDEST DUP2 SLOAD DUP2 LT PUSH2 0x92B JUMPI PUSH2 0x92B PUSH2 0x37BA JUMP JUMPDEST PUSH1 0x0 SWAP2 DUP3 MSTORE PUSH1 0x20 DUP1 DUP4 KECCAK256 PUSH1 0x2 PUSH1 0xB SWAP1 SWAP4 MUL ADD SWAP2 SWAP1 SWAP2 ADD DUP1 SLOAD PUSH1 0x1 DUP2 ADD DUP3 SSTORE SWAP1 DUP4 MSTORE DUP2 DUP4 KECCAK256 PUSH1 0x40 DUP1 MLOAD SWAP4 DUP5 ADD SWAP1 MSTORE SWAP3 DUP3 MSTORE SWAP2 SWAP1 SWAP2 ADD SWAP1 PUSH2 0x96A SWAP1 DUP3 PUSH2 0x36FA JUMP JUMPDEST POP DUP1 PUSH2 0x975 DUP2 PUSH2 0x37D0 JUMP JUMPDEST SWAP2 POP POP PUSH2 0x905 JUMP JUMPDEST POP PUSH32 0xBBBA82573073A1190D559566D39447B5E1AD7724B88B63BC98867D229A645B6B PUSH2 0x9AA PUSH1 0x1 DUP4 PUSH2 0x3605 JUMP JUMPDEST PUSH1 0x40 MLOAD SWAP1 DUP2 MSTORE PUSH1 0x20 ADD PUSH1 0x40 MLOAD DUP1 SWAP2 SUB SWAP1 LOG1 POP POP PUSH1 0x6 DUP1 SLOAD PUSH1 0xFF PUSH1 0xA0 SHL NOT AND SWAP1 SSTORE POP POP POP POP JUMP JUMPDEST PUSH1 0x60 PUSH1 0x7 DUP3 DUP2 SLOAD DUP2 LT PUSH2 0x9E5 JUMPI PUSH2 0x9E5 PUSH2 0x37BA JUMP JUMPDEST SWAP1 PUSH1 0x0 MSTORE PUSH1 0x20 PUSH1 0x0 KECCAK256 SWAP1 PUSH1 0xB MUL ADD PUSH1 0x3 ADD DUP1 SLOAD DUP1 PUSH1 0x20 MUL PUSH1 0x20 ADD PUSH1 0x40 MLOAD SWAP1 DUP2 ADD PUSH1 0x40 MSTORE DUP1 SWAP3 SWAP2 SWAP1 DUP2 DUP2 MSTORE PUSH1 0x20 ADD DUP3 DUP1 SLOAD DUP1 ISZERO PUSH2 0xA40 JUMPI PUSH1 0x20 MUL DUP3 ADD SWAP2 SWAP1 PUSH1 0x0 MSTORE PUSH1 0x20 PUSH1 0x0 KECCAK256 SWAP1 JUMPDEST DUP2 SLOAD DUP2 MSTORE PUSH1 0x20 ADD SWAP1 PUSH1 0x1 ADD SWAP1 DUP1 DUP4 GT PUSH2 0xA2C JUMPI JUMPDEST POP POP POP POP POP SWAP1 POP SWAP2 SWAP1 POP JUMP JUMPDEST PUSH2 0xA55 DUP2 PUSH2 0x2401 JUMP JUMPDEST PUSH2 0xAA1 JUMPI PUSH1 0x40 MLOAD PUSH3 0x461BCD PUSH1 0xE5 SHL DUP2 MSTORE PUSH1 0x20 PUSH1 0x4 DUP3 ADD MSTORE PUSH1 0x1C PUSH1 0x24 DUP3 ADD MSTORE PUSH32 0x796F7520617265206E6F7420746869732067616D6520706C6179657200000000 PUSH1 0x44 DUP3 ADD MSTORE PUSH1 0x64 ADD PUSH2 0x34F JUMP JUMPDEST PUSH1 0x7 DUP2 DUP2 SLOAD DUP2 LT PUSH2 0xAB4 JUMPI PUSH2 0xAB4 PUSH2 0x37BA JUMP JUMPDEST PUSH1 0x0 SWAP2 DUP3 MSTORE PUSH1 0x20 SWAP1 SWAP2 KECCAK256 PUSH1 0xB SWAP1 SWAP2 MUL ADD SLOAD PUSH1 0xFF AND ISZERO PUSH2 0xB0A JUMPI PUSH1 0x40 MLOAD PUSH3 0x461BCD PUSH1 0xE5 SHL DUP2 MSTORE PUSH1 0x20 PUSH1 0x4 DUP3 ADD MSTORE PUSH1 0x12 PUSH1 0x24 DUP3 ADD MSTORE PUSH18 0x47616D65207374696C6C20706C6179696E67 PUSH1 0x70 SHL PUSH1 0x44 DUP3 ADD MSTORE PUSH1 0x64 ADD PUSH2 0x34F JUMP JUMPDEST PUSH2 0xB13 DUP2 PUSH2 0xDA7 JUMP JUMPDEST POP JUMP JUMPDEST PUSH1 0x60 PUSH1 0x7 DUP1 SLOAD DUP1 PUSH1 0x20 MUL PUSH1 0x20 ADD PUSH1 0x40 MLOAD SWAP1 DUP2 ADD PUSH1 0x40 MSTORE DUP1 SWAP3 SWAP2 SWAP1 DUP2 DUP2 MSTORE PUSH1 0x20 ADD PUSH1 0x0 SWAP1 JUMPDEST DUP3 DUP3 LT ISZERO PUSH2 0xD9E JUMPI PUSH1 0x0 DUP5 DUP2 MSTORE PUSH1 0x20 SWAP1 DUP2 SWAP1 KECCAK256 PUSH1 0x40 DUP1 MLOAD PUSH2 0x160 DUP2 ADD SWAP1 SWAP2 MSTORE PUSH1 0xB DUP6 MUL SWAP1 SWAP2 ADD DUP1 SLOAD PUSH1 0xFF AND ISZERO ISZERO DUP3 MSTORE PUSH1 0x1 DUP2 ADD DUP1 SLOAD SWAP3 SWAP4 SWAP2 SWAP3 SWAP2 DUP5 ADD SWAP2 PUSH2 0xB80 SWAP1 PUSH2 0x3671 JUMP JUMPDEST DUP1 PUSH1 0x1F ADD PUSH1 0x20 DUP1 SWAP2 DIV MUL PUSH1 0x20 ADD PUSH1 0x40 MLOAD SWAP1 DUP2 ADD PUSH1 0x40 MSTORE DUP1 SWAP3 SWAP2 SWAP1 DUP2 DUP2 MSTORE PUSH1 0x20 ADD DUP3 DUP1 SLOAD PUSH2 0xBAC SWAP1 PUSH2 0x3671 JUMP JUMPDEST DUP1 ISZERO PUSH2 0xBF9 JUMPI DUP1 PUSH1 0x1F LT PUSH2 0xBCE JUMPI PUSH2 0x100 DUP1 DUP4 SLOAD DIV MUL DUP4 MSTORE SWAP2 PUSH1 0x20 ADD SWAP2 PUSH2 0xBF9 JUMP JUMPDEST DUP3 ADD SWAP2 SWAP1 PUSH1 0x0 MSTORE PUSH1 0x20 PUSH1 0x0 KECCAK256 SWAP1 JUMPDEST DUP2 SLOAD DUP2 MSTORE SWAP1 PUSH1 0x1 ADD SWAP1 PUSH1 0x20 ADD DUP1 DUP4 GT PUSH2 0xBDC JUMPI DUP3 SWAP1 SUB PUSH1 0x1F AND DUP3 ADD SWAP2 JUMPDEST POP POP POP POP POP DUP2 MSTORE PUSH1 0x20 ADD PUSH1 0x2 DUP3 ADD DUP1 SLOAD DUP1 PUSH1 0x20 MUL PUSH1 0x20 ADD PUSH1 0x40 MLOAD SWAP1 DUP2 ADD PUSH1 0x40 MSTORE DUP1 SWAP3 SWAP2 SWAP1 DUP2 DUP2 MSTORE PUSH1 0x20 ADD PUSH1 0x0 SWAP1 JUMPDEST DUP3 DUP3 LT ISZERO PUSH2 0xCD3 JUMPI DUP4 DUP3 SWAP1 PUSH1 0x0 MSTORE PUSH1 0x20 PUSH1 0x0 KECCAK256 ADD DUP1 SLOAD PUSH2 0xC46 SWAP1 PUSH2 0x3671 JUMP JUMPDEST DUP1 PUSH1 0x1F ADD PUSH1 0x20 DUP1 SWAP2 DIV MUL PUSH1 0x20 ADD PUSH1 0x40 MLOAD SWAP1 DUP2 ADD PUSH1 0x40 MSTORE DUP1 SWAP3 SWAP2 SWAP1 DUP2 DUP2 MSTORE PUSH1 0x20 ADD DUP3 DUP1 SLOAD PUSH2 0xC72 SWAP1 PUSH2 0x3671 JUMP JUMPDEST DUP1 ISZERO PUSH2 0xCBF JUMPI DUP1 PUSH1 0x1F LT PUSH2 0xC94 JUMPI PUSH2 0x100 DUP1 DUP4 SLOAD DIV MUL DUP4 MSTORE SWAP2 PUSH1 0x20 ADD SWAP2 PUSH2 0xCBF JUMP JUMPDEST DUP3 ADD SWAP2 SWAP1 PUSH1 0x0 MSTORE PUSH1 0x20 PUSH1 0x0 KECCAK256 SWAP1 JUMPDEST DUP2 SLOAD DUP2 MSTORE SWAP1 PUSH1 0x1 ADD SWAP1 PUSH1 0x20 ADD DUP1 DUP4 GT PUSH2 0xCA2 JUMPI DUP3 SWAP1 SUB PUSH1 0x1F AND DUP3 ADD SWAP2 JUMPDEST POP POP POP POP POP DUP2 MSTORE PUSH1 0x20 ADD SWAP1 PUSH1 0x1 ADD SWAP1 PUSH2 0xC27 JUMP JUMPDEST POP POP POP POP DUP2 MSTORE PUSH1 0x20 ADD PUSH1 0x3 DUP3 ADD DUP1 SLOAD DUP1 PUSH1 0x20 MUL PUSH1 0x20 ADD PUSH1 0x40 MLOAD SWAP1 DUP2 ADD PUSH1 0x40 MSTORE DUP1 SWAP3 SWAP2 SWAP1 DUP2 DUP2 MSTORE PUSH1 0x20 ADD DUP3 DUP1 SLOAD DUP1 ISZERO PUSH2 0xD2A JUMPI PUSH1 0x20 MUL DUP3 ADD SWAP2 SWAP1 PUSH1 0x0 MSTORE PUSH1 0x20 PUSH1 0x0 KECCAK256 SWAP1 JUMPDEST DUP2 SLOAD DUP2 MSTORE PUSH1 0x20 ADD SWAP1 PUSH1 0x1 ADD SWAP1 DUP1 DUP4 GT PUSH2 0xD16 JUMPI JUMPDEST POP POP POP SWAP2 DUP4 MSTORE POP POP PUSH1 0x4 DUP3 ADD SLOAD PUSH1 0x1 PUSH1 0x1 PUSH1 0xA0 SHL SUB SWAP1 DUP2 AND PUSH1 0x20 DUP1 DUP5 ADD SWAP2 SWAP1 SWAP2 MSTORE PUSH1 0x5 DUP5 ADD SLOAD DUP3 AND PUSH1 0x40 DUP5 ADD MSTORE PUSH1 0x6 DUP5 ADD SLOAD PUSH1 0x60 DUP5 ADD MSTORE PUSH1 0x7 DUP5 ADD SLOAD SWAP1 SWAP2 AND PUSH1 0x80 DUP4 ADD MSTORE PUSH1 0x8 DUP4 ADD SLOAD PUSH1 0xA0 DUP4 ADD MSTORE PUSH1 0x9 DUP4 ADD SLOAD PUSH1 0xC0 DUP4 ADD MSTORE PUSH1 0xA SWAP1 SWAP3 ADD SLOAD PUSH1 0xE0 SWAP1 SWAP2 ADD MSTORE SWAP1 DUP3 MSTORE PUSH1 0x1 SWAP3 SWAP1 SWAP3 ADD SWAP2 ADD PUSH2 0xB3A JUMP JUMPDEST POP POP POP POP SWAP1 POP SWAP1 JUMP JUMPDEST PUSH1 0x40 MLOAD DUP1 PUSH1 0x40 ADD PUSH1 0x40 MSTORE DUP1 PUSH1 0x1 DUP2 MSTORE PUSH1 0x20 ADD PUSH1 0xB PUSH1 0xFB SHL DUP2 MSTORE POP PUSH1 0x7 DUP3 DUP2 SLOAD DUP2 LT PUSH2 0xDD4 JUMPI PUSH2 0xDD4 PUSH2 0x37BA JUMP JUMPDEST SWAP1 PUSH1 0x0 MSTORE PUSH1 0x20 PUSH1 0x0 KECCAK256 SWAP1 PUSH1 0xB MUL ADD PUSH1 0x1 ADD SWAP1 DUP2 PUSH2 0xDF1 SWAP2 SWAP1 PUSH2 0x36FA JUMP JUMPDEST POP PUSH1 0x40 DUP1 MLOAD PUSH2 0x140 DUP2 ADD DUP3 MSTORE PUSH1 0x0 PUSH2 0x120 DUP3 ADD DUP2 DUP2 MSTORE DUP3 MSTORE DUP3 MLOAD PUSH1 0x20 DUP2 DUP2 ADD DUP6 MSTORE DUP3 DUP3 MSTORE DUP1 DUP5 ADD SWAP2 SWAP1 SWAP2 MSTORE DUP4 MLOAD DUP1 DUP3 ADD DUP6 MSTORE DUP3 DUP2 MSTORE DUP4 DUP6 ADD MSTORE DUP4 MLOAD DUP1 DUP3 ADD DUP6 MSTORE DUP3 DUP2 MSTORE PUSH1 0x60 DUP5 ADD MSTORE DUP4 MLOAD DUP1 DUP3 ADD DUP6 MSTORE DUP3 DUP2 MSTORE PUSH1 0x80 DUP5 ADD MSTORE DUP4 MLOAD DUP1 DUP3 ADD DUP6 MSTORE DUP3 DUP2 MSTORE PUSH1 0xA0 DUP5 ADD MSTORE DUP4 MLOAD DUP1 DUP3 ADD DUP6 MSTORE DUP3 DUP2 MSTORE PUSH1 0xC0 DUP5 ADD MSTORE DUP4 MLOAD DUP1 DUP3 ADD DUP6 MSTORE DUP3 DUP2 MSTORE PUSH1 0xE0 DUP5 ADD MSTORE DUP4 MLOAD SWAP1 DUP2 ADD SWAP1 SWAP4 MSTORE DUP3 MSTORE PUSH2 0x100 DUP2 ADD SWAP2 SWAP1 SWAP2 MSTORE PUSH1 0x7 DUP1 SLOAD DUP4 SWAP1 DUP2 LT PUSH2 0xE9C JUMPI PUSH2 0xE9C PUSH2 0x37BA JUMP JUMPDEST SWAP1 PUSH1 0x0 MSTORE PUSH1 0x20 PUSH1 0x0 KECCAK256 SWAP1 PUSH1 0xB MUL ADD PUSH1 0x2 ADD SWAP1 PUSH1 0x9 PUSH2 0xEBB SWAP3 SWAP2 SWAP1 PUSH2 0x3072 JUMP JUMPDEST POP PUSH1 0x1 PUSH1 0x7 DUP3 DUP2 SLOAD DUP2 LT PUSH2 0xED1 JUMPI PUSH2 0xED1 PUSH2 0x37BA JUMP JUMPDEST PUSH1 0x0 SWAP2 DUP3 MSTORE PUSH1 0x20 SWAP2 DUP3 SWAP1 KECCAK256 PUSH1 0xB SWAP1 SWAP2 MUL ADD DUP1 SLOAD PUSH1 0xFF NOT AND SWAP3 ISZERO ISZERO SWAP3 SWAP1 SWAP3 OR SWAP1 SWAP2 SSTORE PUSH1 0x40 MLOAD DUP3 DUP2 MSTORE PUSH32 0xC5478E3FE602C65E5CDD37ABE42A8E007FF762D266B9E8256769194C1FA1361E SWAP2 ADD JUMPDEST PUSH1 0x40 MLOAD DUP1 SWAP2 SUB SWAP1 LOG1 POP JUMP JUMPDEST PUSH1 0x7 DUP2 DUP2 SLOAD DUP2 LT PUSH2 0xF3A JUMPI PUSH2 0xF3A PUSH2 0x37BA JUMP JUMPDEST PUSH1 0x0 SWAP2 DUP3 MSTORE PUSH1 0x20 SWAP1 SWAP2 KECCAK256 PUSH1 0xB SWAP1 SWAP2 MUL ADD SLOAD PUSH1 0xFF AND PUSH2 0xF9A JUMPI PUSH1 0x40 MLOAD PUSH3 0x461BCD PUSH1 0xE5 SHL DUP2 MSTORE PUSH1 0x20 PUSH1 0x4 DUP3 ADD MSTORE PUSH1 0x1C PUSH1 0x24 DUP3 ADD MSTORE PUSH32 0x5468652067616D65207374696C6C206E6F742073746172742079657400000000 PUSH1 0x44 DUP3 ADD MSTORE PUSH1 0x64 ADD PUSH2 0x34F JUMP JUMPDEST PUSH2 0x107A PUSH1 0x7 DUP3 DUP2 SLOAD DUP2 LT PUSH2 0xFB0 JUMPI PUSH2 0xFB0 PUSH2 0x37BA JUMP JUMPDEST SWAP1 PUSH1 0x0 MSTORE PUSH1 0x20 PUSH1 0x0 KECCAK256 SWAP1 PUSH1 0xB MUL ADD PUSH1 0x2 ADD DUP4 DUP2 SLOAD DUP2 LT PUSH2 0xFD2 JUMPI PUSH2 0xFD2 PUSH2 0x37BA JUMP JUMPDEST SWAP1 PUSH1 0x0 MSTORE PUSH1 0x20 PUSH1 0x0 KECCAK256 ADD DUP1 SLOAD PUSH2 0xFE7 SWAP1 PUSH2 0x3671 JUMP JUMPDEST DUP1 PUSH1 0x1F ADD PUSH1 0x20 DUP1 SWAP2 DIV MUL PUSH1 0x20 ADD PUSH1 0x40 MLOAD SWAP1 DUP2 ADD PUSH1 0x40 MSTORE DUP1 SWAP3 SWAP2 SWAP1 DUP2 DUP2 MSTORE PUSH1 0x20 ADD DUP3 DUP1 SLOAD PUSH2 0x1013 SWAP1 PUSH2 0x3671 JUMP JUMPDEST DUP1 ISZERO PUSH2 0x1060 JUMPI DUP1 PUSH1 0x1F LT PUSH2 0x1035 JUMPI PUSH2 0x100 DUP1 DUP4 SLOAD DIV MUL DUP4 MSTORE SWAP2 PUSH1 0x20 ADD SWAP2 PUSH2 0x1060 JUMP JUMPDEST DUP3 ADD SWAP2 SWAP1 PUSH1 0x0 MSTORE PUSH1 0x20 PUSH1 0x0 KECCAK256 SWAP1 JUMPDEST DUP2 SLOAD DUP2 MSTORE SWAP1 PUSH1 0x1 ADD SWAP1 PUSH1 0x20 ADD DUP1 DUP4 GT PUSH2 0x1043 JUMPI DUP3 SWAP1 SUB PUSH1 0x1F AND DUP3 ADD SWAP2 JUMPDEST POP POP POP POP POP PUSH1 0x40 MLOAD DUP1 PUSH1 0x20 ADD PUSH1 0x40 MSTORE DUP1 PUSH1 0x0 DUP2 MSTORE POP PUSH2 0x21E7 JUMP JUMPDEST PUSH2 0x10B6 JUMPI PUSH1 0x40 MLOAD PUSH3 0x461BCD PUSH1 0xE5 SHL DUP2 MSTORE PUSH1 0x20 PUSH1 0x4 DUP3 ADD MSTORE PUSH1 0xD PUSH1 0x24 DUP3 ADD MSTORE PUSH13 0x125B9D985B1A59081A5B9C1D5D PUSH1 0x9A SHL PUSH1 0x44 DUP3 ADD MSTORE PUSH1 0x64 ADD PUSH2 0x34F JUMP JUMPDEST PUSH2 0x1185 PUSH1 0x7 DUP3 DUP2 SLOAD DUP2 LT PUSH2 0x10CC JUMPI PUSH2 0x10CC PUSH2 0x37BA JUMP JUMPDEST SWAP1 PUSH1 0x0 MSTORE PUSH1 0x20 PUSH1 0x0 KECCAK256 SWAP1 PUSH1 0xB MUL ADD PUSH1 0x1 ADD DUP1 SLOAD PUSH2 0x10E8 SWAP1 PUSH2 0x3671 JUMP JUMPDEST DUP1 PUSH1 0x1F ADD PUSH1 0x20 DUP1 SWAP2 DIV MUL PUSH1 0x20 ADD PUSH1 0x40 MLOAD SWAP1 DUP2 ADD PUSH1 0x40 MSTORE DUP1 SWAP3 SWAP2 SWAP1 DUP2 DUP2 MSTORE PUSH1 0x20 ADD DUP3 DUP1 SLOAD PUSH2 0x1114 SWAP1 PUSH2 0x3671 JUMP JUMPDEST DUP1 ISZERO PUSH2 0x1161 JUMPI DUP1 PUSH1 0x1F LT PUSH2 0x1136 JUMPI PUSH2 0x100 DUP1 DUP4 SLOAD DIV MUL DUP4 MSTORE SWAP2 PUSH1 0x20 ADD SWAP2 PUSH2 0x1161 JUMP JUMPDEST DUP3 ADD SWAP2 SWAP1 PUSH1 0x0 MSTORE PUSH1 0x20 PUSH1 0x0 KECCAK256 SWAP1 JUMPDEST DUP2 SLOAD DUP2 MSTORE SWAP1 PUSH1 0x1 ADD SWAP1 PUSH1 0x20 ADD DUP1 DUP4 GT PUSH2 0x1144 JUMPI DUP3 SWAP1 SUB PUSH1 0x1F AND DUP3 ADD SWAP2 JUMPDEST POP POP POP POP POP PUSH1 0x40 MLOAD DUP1 PUSH1 0x40 ADD PUSH1 0x40 MSTORE DUP1 PUSH1 0x1 DUP2 MSTORE PUSH1 0x20 ADD PUSH1 0xB PUSH1 0xFB SHL DUP2 MSTORE POP PUSH2 0x21E7 JUMP JUMPDEST ISZERO PUSH2 0x1204 JUMPI PUSH1 0x7 DUP2 DUP2 SLOAD DUP2 LT PUSH2 0x119D JUMPI PUSH2 0x119D PUSH2 0x37BA JUMP JUMPDEST PUSH1 0x0 SWAP2 DUP3 MSTORE PUSH1 0x20 SWAP1 SWAP2 KECCAK256 PUSH1 0xB SWAP1 SWAP2 MUL ADD PUSH1 0x4 ADD SLOAD PUSH1 0x1 PUSH1 0x1 PUSH1 0xA0 SHL SUB AND CALLER EQ PUSH2 0x11FF JUMPI PUSH1 0x40 MLOAD PUSH3 0x461BCD PUSH1 0xE5 SHL DUP2 MSTORE PUSH1 0x20 PUSH1 0x4 DUP3 ADD MSTORE PUSH1 0x14 PUSH1 0x24 DUP3 ADD MSTORE PUSH20 0x596F7520617265206E6F7420706C617965722031 PUSH1 0x60 SHL PUSH1 0x44 DUP3 ADD MSTORE PUSH1 0x64 ADD PUSH2 0x34F JUMP JUMPDEST PUSH2 0x1279 JUMP JUMPDEST PUSH1 0x7 DUP2 DUP2 SLOAD DUP2 LT PUSH2 0x1217 JUMPI PUSH2 0x1217 PUSH2 0x37BA JUMP JUMPDEST PUSH1 0x0 SWAP2 DUP3 MSTORE PUSH1 0x20 SWAP1 SWAP2 KECCAK256 PUSH1 0xB SWAP1 SWAP2 MUL ADD PUSH1 0x5 ADD SLOAD PUSH1 0x1 PUSH1 0x1 PUSH1 0xA0 SHL SUB AND CALLER EQ PUSH2 0x1279 JUMPI PUSH1 0x40 MLOAD PUSH3 0x461BCD PUSH1 0xE5 SHL DUP2 MSTORE PUSH1 0x20 PUSH1 0x4 DUP3 ADD MSTORE PUSH1 0x14 PUSH1 0x24 DUP3 ADD MSTORE PUSH20 0x2CB7BA9030B932903737BA10383630BCB2B91019 PUSH1 0x61 SHL PUSH1 0x44 DUP3 ADD MSTORE PUSH1 0x64 ADD PUSH2 0x34F JUMP JUMPDEST PUSH1 0x7 DUP2 DUP2 SLOAD DUP2 LT PUSH2 0x128C JUMPI PUSH2 0x128C PUSH2 0x37BA JUMP JUMPDEST SWAP1 PUSH1 0x0 MSTORE PUSH1 0x20 PUSH1 0x0 KECCAK256 SWAP1 PUSH1 0xB MUL ADD PUSH1 0x1 ADD PUSH1 0x7 DUP3 DUP2 SLOAD DUP2 LT PUSH2 0x12B0 JUMPI PUSH2 0x12B0 PUSH2 0x37BA JUMP JUMPDEST SWAP1 PUSH1 0x0 MSTORE PUSH1 0x20 PUSH1 0x0 KECCAK256 SWAP1 PUSH1 0xB MUL ADD PUSH1 0x2 ADD DUP4 DUP2 SLOAD DUP2 LT PUSH2 0x12D2 JUMPI PUSH2 0x12D2 PUSH2 0x37BA JUMP JUMPDEST SWAP1 PUSH1 0x0 MSTORE PUSH1 0x20 PUSH1 0x0 KECCAK256 ADD SWAP1 DUP2 PUSH2 0x12E8 SWAP2 SWAP1 PUSH2 0x37E9 JUMP JUMPDEST POP PUSH32 0x9659242F3970136BF08CBA261398AE9F0BC58A676137D79D3C2040DCDACBC18B PUSH1 0x7 DUP3 DUP2 SLOAD DUP2 LT PUSH2 0x131D JUMPI PUSH2 0x131D PUSH2 0x37BA JUMP JUMPDEST SWAP1 PUSH1 0x0 MSTORE PUSH1 0x20 PUSH1 0x0 KECCAK256 SWAP1 PUSH1 0xB MUL ADD PUSH1 0x2 ADD DUP3 PUSH1 0x40 MLOAD PUSH2 0x133D SWAP3 SWAP2 SWAP1 PUSH2 0x399A JUMP JUMPDEST PUSH1 0x40 MLOAD DUP1 SWAP2 SUB SWAP1 LOG1 PUSH2 0x134E DUP2 PUSH2 0x2481 JUMP JUMPDEST POP POP JUMP JUMPDEST PUSH1 0x7 DUP2 DUP2 SLOAD DUP2 LT PUSH2 0x1362 JUMPI PUSH1 0x0 DUP1 REVERT JUMPDEST PUSH1 0x0 SWAP2 DUP3 MSTORE PUSH1 0x20 SWAP1 SWAP2 KECCAK256 PUSH1 0xB SWAP1 SWAP2 MUL ADD DUP1 SLOAD PUSH1 0x1 DUP3 ADD DUP1 SLOAD PUSH1 0xFF SWAP1 SWAP3 AND SWAP4 POP SWAP1 PUSH2 0x138B SWAP1 PUSH2 0x3671 JUMP JUMPDEST DUP1 PUSH1 0x1F ADD PUSH1 0x20 DUP1 SWAP2 DIV MUL PUSH1 0x20 ADD PUSH1 0x40 MLOAD SWAP1 DUP2 ADD PUSH1 0x40 MSTORE DUP1 SWAP3 SWAP2 SWAP1 DUP2 DUP2 MSTORE PUSH1 0x20 ADD DUP3 DUP1 SLOAD PUSH2 0x13B7 SWAP1 PUSH2 0x3671 JUMP JUMPDEST DUP1 ISZERO PUSH2 0x1404 JUMPI DUP1 PUSH1 0x1F LT PUSH2 0x13D9 JUMPI PUSH2 0x100 DUP1 DUP4 SLOAD DIV MUL DUP4 MSTORE SWAP2 PUSH1 0x20 ADD SWAP2 PUSH2 0x1404 JUMP JUMPDEST DUP3 ADD SWAP2 SWAP1 PUSH1 0x0 MSTORE PUSH1 0x20 PUSH1 0x0 KECCAK256 SWAP1 JUMPDEST DUP2 SLOAD DUP2 MSTORE SWAP1 PUSH1 0x1 ADD SWAP1 PUSH1 0x20 ADD DUP1 DUP4 GT PUSH2 0x13E7 JUMPI DUP3 SWAP1 SUB PUSH1 0x1F AND DUP3 ADD SWAP2 JUMPDEST POP POP POP PUSH1 0x4 DUP5 ADD SLOAD PUSH1 0x5 DUP6 ADD SLOAD PUSH1 0x6 DUP7 ADD SLOAD PUSH1 0x7 DUP8 ADD SLOAD PUSH1 0x8 DUP9 ADD SLOAD PUSH1 0x9 DUP10 ADD SLOAD PUSH1 0xA SWAP1 SWAP10 ADD SLOAD SWAP8 SWAP9 PUSH1 0x1 PUSH1 0x1 PUSH1 0xA0 SHL SUB SWAP6 DUP7 AND SWAP9 SWAP5 DUP7 AND SWAP8 POP SWAP3 SWAP6 POP SWAP4 AND SWAP3 SWAP2 DUP10 JUMP JUMPDEST PUSH1 0x6 SLOAD PUSH1 0x1 PUSH1 0x1 PUSH1 0xA0 SHL SUB AND CALLER EQ PUSH2 0x1492 JUMPI PUSH1 0x40 MLOAD PUSH3 0x461BCD PUSH1 0xE5 SHL DUP2 MSTORE PUSH1 0x20 PUSH1 0x4 DUP3 ADD MSTORE PUSH1 0xD PUSH1 0x24 DUP3 ADD MSTORE PUSH13 0x2737BA103A34329037BBB732B9 PUSH1 0x99 SHL PUSH1 0x44 DUP3 ADD MSTORE PUSH1 0x64 ADD PUSH2 0x34F JUMP JUMPDEST PUSH1 0x5 SLOAD PUSH1 0x0 DUP1 SLOAD PUSH1 0x40 MLOAD PUSH4 0x70A08231 PUSH1 0xE0 SHL DUP2 MSTORE ADDRESS PUSH1 0x4 DUP3 ADD MSTORE SWAP2 SWAP3 SWAP2 PUSH1 0x1 PUSH1 0x1 PUSH1 0xA0 SHL SUB SWAP1 SWAP2 AND SWAP1 PUSH4 0x70A08231 SWAP1 PUSH1 0x24 ADD PUSH1 0x20 PUSH1 0x40 MLOAD DUP1 DUP4 SUB DUP2 DUP7 GAS STATICCALL ISZERO DUP1 ISZERO PUSH2 0x14E1 JUMPI RETURNDATASIZE PUSH1 0x0 DUP1 RETURNDATACOPY RETURNDATASIZE PUSH1 0x0 REVERT JUMPDEST POP POP POP POP PUSH1 0x40 MLOAD RETURNDATASIZE PUSH1 0x1F NOT PUSH1 0x1F DUP3 ADD AND DUP3 ADD DUP1 PUSH1 0x40 MSTORE POP DUP2 ADD SWAP1 PUSH2 0x1505 SWAP2 SWAP1 PUSH2 0x359D JUMP JUMPDEST PUSH2 0x150F SWAP2 SWAP1 PUSH2 0x3605 JUMP JUMPDEST GT PUSH2 0x1555 JUMPI PUSH1 0x40 MLOAD PUSH3 0x461BCD PUSH1 0xE5 SHL DUP2 MSTORE PUSH1 0x20 PUSH1 0x4 DUP3 ADD MSTORE PUSH1 0x16 PUSH1 0x24 DUP3 ADD MSTORE PUSH22 0x54686520746F6B656E206973206E6F74206578747261 PUSH1 0x50 SHL PUSH1 0x44 DUP3 ADD MSTORE PUSH1 0x64 ADD PUSH2 0x34F JUMP JUMPDEST PUSH1 0x0 SLOAD PUSH1 0x6 SLOAD PUSH1 0x5 SLOAD PUSH1 0x40 MLOAD PUSH4 0x70A08231 PUSH1 0xE0 SHL DUP2 MSTORE ADDRESS PUSH1 0x4 DUP3 ADD MSTORE PUSH1 0x1 PUSH1 0x1 PUSH1 0xA0 SHL SUB SWAP4 DUP5 AND SWAP4 PUSH4 0xA9059CBB SWAP4 AND SWAP2 SWAP1 DUP5 SWAP1 PUSH4 0x70A08231 SWAP1 PUSH1 0x24 ADD PUSH1 0x20 PUSH1 0x40 MLOAD DUP1 DUP4 SUB DUP2 DUP7 GAS STATICCALL ISZERO DUP1 ISZERO PUSH2 0x15AE JUMPI RETURNDATASIZE PUSH1 0x0 DUP1 RETURNDATACOPY RETURNDATASIZE PUSH1 0x0 REVERT JUMPDEST POP POP POP POP PUSH1 0x40 MLOAD RETURNDATASIZE PUSH1 0x1F NOT PUSH1 0x1F DUP3 ADD AND DUP3 ADD DUP1 PUSH1 0x40 MSTORE POP DUP2 ADD SWAP1 PUSH2 0x15D2 SWAP2 SWAP1 PUSH2 0x359D JUMP JUMPDEST PUSH2 0x15DC SWAP2 SWAP1 PUSH2 0x3605 JUMP JUMPDEST PUSH1 0x40 MLOAD PUSH1 0x1 PUSH1 0x1 PUSH1 0xE0 SHL SUB NOT PUSH1 0xE0 DUP6 SWAP1 SHL AND DUP2 MSTORE PUSH1 0x1 PUSH1 0x1 PUSH1 0xA0 SHL SUB SWAP1 SWAP3 AND PUSH1 0x4 DUP4 ADD MSTORE PUSH1 0x24 DUP3 ADD MSTORE PUSH1 0x44 ADD PUSH1 0x20 PUSH1 0x40 MLOAD DUP1 DUP4 SUB DUP2 PUSH1 0x0 DUP8 GAS CALL ISZERO DUP1 ISZERO PUSH2 0x1627 JUMPI RETURNDATASIZE PUSH1 0x0 DUP1 RETURNDATACOPY RETURNDATASIZE PUSH1 0x0 REVERT JUMPDEST POP POP POP POP PUSH1 0x40 MLOAD RETURNDATASIZE PUSH1 0x1F NOT PUSH1 0x1F DUP3 ADD AND DUP3 ADD DUP1 PUSH1 0x40 MSTORE POP DUP2 ADD SWAP1 PUSH2 0xB13 SWAP2 SWAP1 PUSH2 0x363C JUMP JUMPDEST PUSH2 0x1653 PUSH2 0x2F5E JUMP JUMPDEST PUSH1 0x7 DUP3 DUP2 SLOAD DUP2 LT PUSH2 0x1666 JUMPI PUSH2 0x1666 PUSH2 0x37BA JUMP JUMPDEST PUSH1 0x0 SWAP2 DUP3 MSTORE PUSH1 0x20 SWAP2 DUP3 SWAP1 KECCAK256 PUSH1 0x40 DUP1 MLOAD PUSH2 0x160 DUP2 ADD SWAP1 SWAP2 MSTORE PUSH1 0xB SWAP1 SWAP3 MUL ADD DUP1 SLOAD PUSH1 0xFF AND ISZERO ISZERO DUP3 MSTORE PUSH1 0x1 DUP2 ADD DUP1 SLOAD SWAP3 SWAP4 SWAP2 SWAP3 SWAP2 DUP5 ADD SWAP2 PUSH2 0x16A3 SWAP1 PUSH2 0x3671 JUMP JUMPDEST DUP1 PUSH1 0x1F ADD PUSH1 0x20 DUP1 SWAP2 DIV MUL PUSH1 0x20 ADD PUSH1 0x40 MLOAD SWAP1 DUP2 ADD PUSH1 0x40 MSTORE DUP1 SWAP3 SWAP2 SWAP1 DUP2 DUP2 MSTORE PUSH1 0x20 ADD DUP3 DUP1 SLOAD PUSH2 0x16CF SWAP1 PUSH2 0x3671 JUMP JUMPDEST DUP1 ISZERO PUSH2 0x171C JUMPI DUP1 PUSH1 0x1F LT PUSH2 0x16F1 JUMPI PUSH2 0x100 DUP1 DUP4 SLOAD DIV MUL DUP4 MSTORE SWAP2 PUSH1 0x20 ADD SWAP2 PUSH2 0x171C JUMP JUMPDEST DUP3 ADD SWAP2 SWAP1 PUSH1 0x0 MSTORE PUSH1 0x20 PUSH1 0x0 KECCAK256 SWAP1 JUMPDEST DUP2 SLOAD DUP2 MSTORE SWAP1 PUSH1 0x1 ADD SWAP1 PUSH1 0x20 ADD DUP1 DUP4 GT PUSH2 0x16FF JUMPI DUP3 SWAP1 SUB PUSH1 0x1F AND DUP3 ADD SWAP2 JUMPDEST POP POP POP POP POP DUP2 MSTORE PUSH1 0x20 ADD PUSH1 0x2 DUP3 ADD DUP1 SLOAD DUP1 PUSH1 0x20 MUL PUSH1 0x20 ADD PUSH1 0x40 MLOAD SWAP1 DUP2 ADD PUSH1 0x40 MSTORE DUP1 SWAP3 SWAP2 SWAP1 DUP2 DUP2 MSTORE PUSH1 0x20 ADD PUSH1 0x0 SWAP1 JUMPDEST DUP3 DUP3 LT ISZERO PUSH2 0x17F6 JUMPI DUP4 DUP3 SWAP1 PUSH1 0x0 MSTORE PUSH1 0x20 PUSH1 0x0 KECCAK256 ADD DUP1 SLOAD PUSH2 0x1769 SWAP1 PUSH2 0x3671 JUMP JUMPDEST DUP1 PUSH1 0x1F ADD PUSH1 0x20 DUP1 SWAP2 DIV MUL PUSH1 0x20 ADD PUSH1 0x40 MLOAD SWAP1 DUP2 ADD PUSH1 0x40 MSTORE DUP1 SWAP3 SWAP2 SWAP1 DUP2 DUP2 MSTORE PUSH1 0x20 ADD DUP3 DUP1 SLOAD PUSH2 0x1795 SWAP1 PUSH2 0x3671 JUMP JUMPDEST DUP1 ISZERO PUSH2 0x17E2 JUMPI DUP1 PUSH1 0x1F LT PUSH2 0x17B7 JUMPI PUSH2 0x100 DUP1 DUP4 SLOAD DIV MUL DUP4 MSTORE SWAP2 PUSH1 0x20 ADD SWAP2 PUSH2 0x17E2 JUMP JUMPDEST DUP3 ADD SWAP2 SWAP1 PUSH1 0x0 MSTORE PUSH1 0x20 PUSH1 0x0 KECCAK256 SWAP1 JUMPDEST DUP2 SLOAD DUP2 MSTORE SWAP1 PUSH1 0x1 ADD SWAP1 PUSH1 0x20 ADD DUP1 DUP4 GT PUSH2 0x17C5 JUMPI DUP3 SWAP1 SUB PUSH1 0x1F AND DUP3 ADD SWAP2 JUMPDEST POP POP POP POP POP DUP2 MSTORE PUSH1 0x20 ADD SWAP1 PUSH1 0x1 ADD SWAP1 PUSH2 0x174A JUMP JUMPDEST POP POP POP POP DUP2 MSTORE PUSH1 0x20 ADD PUSH1 0x3 DUP3 ADD DUP1 SLOAD DUP1 PUSH1 0x20 MUL PUSH1 0x20 ADD PUSH1 0x40 MLOAD SWAP1 DUP2 ADD PUSH1 0x40 MSTORE DUP1 SWAP3 SWAP2 SWAP1 DUP2 DUP2 MSTORE PUSH1 0x20 ADD DUP3 DUP1 SLOAD DUP1 ISZERO PUSH2 0x184D JUMPI PUSH1 0x20 MUL DUP3 ADD SWAP2 SWAP1 PUSH1 0x0 MSTORE PUSH1 0x20 PUSH1 0x0 KECCAK256 SWAP1 JUMPDEST DUP2 SLOAD DUP2 MSTORE PUSH1 0x20 ADD SWAP1 PUSH1 0x1 ADD SWAP1 DUP1 DUP4 GT PUSH2 0x1839 JUMPI JUMPDEST POP POP POP SWAP2 DUP4 MSTORE POP POP PUSH1 0x4 DUP3 ADD SLOAD PUSH1 0x1 PUSH1 0x1 PUSH1 0xA0 SHL SUB SWAP1 DUP2 AND PUSH1 0x20 DUP4 ADD MSTORE PUSH1 0x5 DUP4 ADD SLOAD DUP2 AND PUSH1 0x40 DUP4 ADD MSTORE PUSH1 0x6 DUP4 ADD SLOAD PUSH1 0x60 DUP4 ADD MSTORE PUSH1 0x7 DUP4 ADD SLOAD AND PUSH1 0x80 DUP3 ADD MSTORE PUSH1 0x8 DUP3 ADD SLOAD PUSH1 0xA0 DUP3 ADD MSTORE PUSH1 0x9 DUP3 ADD SLOAD PUSH1 0xC0 DUP3 ADD MSTORE PUSH1 0xA SWAP1 SWAP2 ADD SLOAD PUSH1 0xE0 SWAP1 SWAP2 ADD MSTORE SWAP3 SWAP2 POP POP JUMP JUMPDEST PUSH1 0x6 SLOAD PUSH1 0x1 PUSH1 0xA0 SHL SWAP1 DIV PUSH1 0xFF AND ISZERO PUSH2 0x1903 JUMPI PUSH1 0x40 MLOAD PUSH3 0x461BCD PUSH1 0xE5 SHL DUP2 MSTORE PUSH1 0x20 PUSH1 0x4 DUP3 ADD MSTORE PUSH1 0x15 PUSH1 0x24 DUP3 ADD MSTORE PUSH21 0x115C9C9BDC8E881499595B9D1C985B9D0818D85B1B PUSH1 0x5A SHL PUSH1 0x44 DUP3 ADD MSTORE PUSH1 0x64 ADD PUSH2 0x34F JUMP JUMPDEST PUSH1 0x6 DUP1 SLOAD PUSH1 0xFF PUSH1 0xA0 SHL NOT AND PUSH1 0x1 PUSH1 0xA0 SHL OR SWAP1 SSTORE PUSH1 0x7 DUP1 SLOAD DUP4 SWAP1 DUP2 LT PUSH2 0x192A JUMPI PUSH2 0x192A PUSH2 0x37BA JUMP JUMPDEST SWAP1 PUSH1 0x0 MSTORE PUSH1 0x20 PUSH1 0x0 KECCAK256 SWAP1 PUSH1 0xB MUL ADD PUSH1 0x6 ADD SLOAD PUSH1 0x1 SUB PUSH2 0x1EA1 JUMPI PUSH1 0x7 DUP3 DUP2 SLOAD DUP2 LT PUSH2 0x1956 JUMPI PUSH2 0x1956 PUSH2 0x37BA JUMP JUMPDEST PUSH1 0x0 SWAP2 DUP3 MSTORE PUSH1 0x20 DUP3 KECCAK256 PUSH1 0xB SWAP2 SWAP1 SWAP2 MUL ADD PUSH1 0x8 ADD SLOAD SWAP1 SLOAD PUSH1 0x40 MLOAD PUSH4 0x70A08231 PUSH1 0xE0 SHL DUP2 MSTORE CALLER PUSH1 0x4 DUP3 ADD MSTORE PUSH1 0x1 PUSH1 0x1 PUSH1 0xA0 SHL SUB SWAP1 SWAP2 AND SWAP1 PUSH4 0x70A08231 SWAP1 PUSH1 0x24 ADD PUSH1 0x20 PUSH1 0x40 MLOAD DUP1 DUP4 SUB DUP2 DUP7 GAS STATICCALL ISZERO DUP1 ISZERO PUSH2 0x19B1 JUMPI RETURNDATASIZE PUSH1 0x0 DUP1 RETURNDATACOPY RETURNDATASIZE PUSH1 0x0 REVERT JUMPDEST POP POP POP POP PUSH1 0x40 MLOAD RETURNDATASIZE PUSH1 0x1F NOT PUSH1 0x1F DUP3 ADD AND DUP3 ADD DUP1 PUSH1 0x40 MSTORE POP DUP2 ADD SWAP1 PUSH2 0x19D5 SWAP2 SWAP1 PUSH2 0x359D JUMP JUMPDEST LT ISZERO PUSH2 0x1A18 JUMPI PUSH1 0x40 MLOAD PUSH3 0x461BCD PUSH1 0xE5 SHL DUP2 MSTORE PUSH1 0x20 PUSH1 0x4 DUP3 ADD MSTORE PUSH1 0x12 PUSH1 0x24 DUP3 ADD MSTORE PUSH18 0x4E6F7420656E6F7567682062616C616E6365 PUSH1 0x70 SHL PUSH1 0x44 DUP3 ADD MSTORE PUSH1 0x64 ADD PUSH2 0x34F JUMP JUMPDEST PUSH1 0x7 DUP3 DUP2 SLOAD DUP2 LT PUSH2 0x1A2B JUMPI PUSH2 0x1A2B PUSH2 0x37BA JUMP JUMPDEST SWAP1 PUSH1 0x0 MSTORE PUSH1 0x20 PUSH1 0x0 KECCAK256 SWAP1 PUSH1 0xB MUL ADD PUSH1 0x8 ADD SLOAD DUP2 EQ PUSH2 0x1A8B JUMPI PUSH1 0x40 MLOAD PUSH3 0x461BCD PUSH1 0xE5 SHL DUP2 MSTORE PUSH1 0x20 PUSH1 0x4 DUP3 ADD MSTORE PUSH1 0x1A PUSH1 0x24 DUP3 ADD MSTORE PUSH32 0x4E65656420746F20706179206D696E2062657420616D6F756E74000000000000 PUSH1 0x44 DUP3 ADD MSTORE PUSH1 0x64 ADD PUSH2 0x34F JUMP JUMPDEST PUSH1 0x0 PUSH1 0x64 PUSH1 0x3 SLOAD DUP4 PUSH2 0x1A9D SWAP2 SWAP1 PUSH2 0x35CC JUMP JUMPDEST PUSH2 0x1AA7 SWAP2 SWAP1 PUSH2 0x35E3 JUMP JUMPDEST SWAP1 POP PUSH1 0x0 PUSH1 0x64 PUSH1 0x4 SLOAD DUP5 PUSH2 0x1ABB SWAP2 SWAP1 PUSH2 0x35CC JUMP JUMPDEST PUSH2 0x1AC5 SWAP2 SWAP1 PUSH2 0x35E3 JUMP JUMPDEST SWAP1 POP PUSH1 0x0 DUP2 PUSH2 0x1AD4 DUP5 DUP7 PUSH2 0x3605 JUMP JUMPDEST PUSH2 0x1ADE SWAP2 SWAP1 PUSH2 0x3605 JUMP JUMPDEST PUSH1 0x0 SLOAD PUSH1 0x40 MLOAD PUSH4 0x23B872DD PUSH1 0xE0 SHL DUP2 MSTORE SWAP2 SWAP3 POP PUSH1 0x1 PUSH1 0x1 PUSH1 0xA0 SHL SUB AND SWAP1 PUSH4 0x23B872DD SWAP1 PUSH2 0x1B15 SWAP1 CALLER SWAP1 PUSH2 0xDEAD SWAP1 DUP9 SWAP1 PUSH1 0x4 ADD PUSH2 0x3618 JUMP JUMPDEST PUSH1 0x20 PUSH1 0x40 MLOAD DUP1 DUP4 SUB DUP2 PUSH1 0x0 DUP8 GAS CALL ISZERO DUP1 ISZERO PUSH2 0x1B34 JUMPI RETURNDATASIZE PUSH1 0x0 DUP1 RETURNDATACOPY RETURNDATASIZE PUSH1 0x0 REVERT JUMPDEST POP POP POP POP PUSH1 0x40 MLOAD RETURNDATASIZE PUSH1 0x1F NOT PUSH1 0x1F DUP3 ADD AND DUP3 ADD DUP1 PUSH1 0x40 MSTORE POP DUP2 ADD SWAP1 PUSH2 0x1B58 SWAP2 SWAP1 PUSH2 0x363C JUMP JUMPDEST POP PUSH1 0x0 SLOAD PUSH1 0x2 SLOAD PUSH1 0x40 MLOAD PUSH4 0x23B872DD PUSH1 0xE0 SHL DUP2 MSTORE PUSH1 0x1 PUSH1 0x1 PUSH1 0xA0 SHL SUB SWAP3 DUP4 AND SWAP3 PUSH4 0x23B872DD SWAP3 PUSH2 0x1B92 SWAP3 CALLER SWAP3 SWAP1 SWAP2 AND SWAP1 DUP8 SWAP1 PUSH1 0x4 ADD PUSH2 0x3618 JUMP JUMPDEST PUSH1 0x20 PUSH1 0x40 MLOAD DUP1 DUP4 SUB DUP2 PUSH1 0x0 DUP8 GAS CALL ISZERO DUP1 ISZERO PUSH2 0x1BB1 JUMPI RETURNDATASIZE PUSH1 0x0 DUP1 RETURNDATACOPY RETURNDATASIZE PUSH1 0x0 REVERT JUMPDEST POP POP POP POP PUSH1 0x40 MLOAD RETURNDATASIZE PUSH1 0x1F NOT PUSH1 0x1F DUP3 ADD AND DUP3 ADD DUP1 PUSH1 0x40 MSTORE POP DUP2 ADD SWAP1 PUSH2 0x1BD5 SWAP2 SWAP1 PUSH2 0x363C JUMP JUMPDEST POP PUSH1 0x0 SLOAD PUSH1 0x40 MLOAD PUSH4 0x23B872DD PUSH1 0xE0 SHL DUP2 MSTORE PUSH1 0x1 PUSH1 0x1 PUSH1 0xA0 SHL SUB SWAP1 SWAP2 AND SWAP1 PUSH4 0x23B872DD SWAP1 PUSH2 0x1C0A SWAP1 CALLER SWAP1 ADDRESS SWAP1 DUP7 SWAP1 PUSH1 0x4 ADD PUSH2 0x3618 JUMP JUMPDEST PUSH1 0x20 PUSH1 0x40 MLOAD DUP1 DUP4 SUB DUP2 PUSH1 0x0 DUP8 GAS CALL ISZERO DUP1 ISZERO PUSH2 0x1C29 JUMPI RETURNDATASIZE PUSH1 0x0 DUP1 RETURNDATACOPY RETURNDATASIZE PUSH1 0x0 REVERT JUMPDEST POP POP POP POP PUSH1 0x40 MLOAD RETURNDATASIZE PUSH1 0x1F NOT PUSH1 0x1F DUP3 ADD AND DUP3 ADD DUP1 PUSH1 0x40 MSTORE POP DUP2 ADD SWAP1 PUSH2 0x1C4D SWAP2 SWAP1 PUSH2 0x363C JUMP JUMPDEST POP DUP1 PUSH1 0x5 PUSH1 0x0 DUP3 DUP3 SLOAD PUSH2 0x1C60 SWAP2 SWAP1 PUSH2 0x365E JUMP JUMPDEST SWAP1 SWAP2 SSTORE POP POP PUSH1 0x7 DUP1 SLOAD DUP7 SWAP1 DUP2 LT PUSH2 0x1C79 JUMPI PUSH2 0x1C79 PUSH2 0x37BA JUMP JUMPDEST PUSH1 0x0 SWAP2 DUP3 MSTORE PUSH1 0x20 SWAP1 SWAP2 KECCAK256 PUSH1 0x4 PUSH1 0xB SWAP1 SWAP3 MUL ADD ADD SLOAD PUSH1 0x1 PUSH1 0x1 PUSH1 0xA0 SHL SUB AND CALLER SUB PUSH2 0x1CF0 JUMPI PUSH1 0x40 MLOAD PUSH3 0x461BCD PUSH1 0xE5 SHL DUP2 MSTORE PUSH1 0x20 PUSH1 0x4 DUP3 ADD MSTORE PUSH1 0x24 DUP1 DUP3 ADD MSTORE PUSH32 0x4572726F723A20596F752063616E6E6F7420706C6179207769746820796F7572 PUSH1 0x44 DUP3 ADD MSTORE PUSH4 0x39B2B633 PUSH1 0xE1 SHL PUSH1 0x64 DUP3 ADD MSTORE PUSH1 0x84 ADD PUSH2 0x34F JUMP JUMPDEST CALLER PUSH1 0x7 DUP7 DUP2 SLOAD DUP2 LT PUSH2 0x1D04 JUMPI PUSH2 0x1D04 PUSH2 0x37BA JUMP JUMPDEST SWAP1 PUSH1 0x0 MSTORE PUSH1 0x20 PUSH1 0x0 KECCAK256 SWAP1 PUSH1 0xB MUL ADD PUSH1 0x5 ADD PUSH1 0x0 PUSH2 0x100 EXP DUP2 SLOAD DUP2 PUSH1 0x1 PUSH1 0x1 PUSH1 0xA0 SHL SUB MUL NOT AND SWAP1 DUP4 PUSH1 0x1 PUSH1 0x1 PUSH1 0xA0 SHL SUB AND MUL OR SWAP1 SSTORE POP PUSH1 0x2 PUSH1 0x7 DUP7 DUP2 SLOAD DUP2 LT PUSH2 0x1D4E JUMPI PUSH2 0x1D4E PUSH2 0x37BA JUMP JUMPDEST SWAP1 PUSH1 0x0 MSTORE PUSH1 0x20 PUSH1 0x0 KECCAK256 SWAP1 PUSH1 0xB MUL ADD PUSH1 0x6 ADD DUP2 SWAP1 SSTORE POP PUSH1 0x1 PUSH1 0x7 DUP7 DUP2 SLOAD DUP2 LT PUSH2 0x1D78 JUMPI PUSH2 0x1D78 PUSH2 0x37BA JUMP JUMPDEST SWAP1 PUSH1 0x0 MSTORE PUSH1 0x20 PUSH1 0x0 KECCAK256 SWAP1 PUSH1 0xB MUL ADD PUSH1 0x0 ADD PUSH1 0x0 PUSH2 0x100 EXP DUP2 SLOAD DUP2 PUSH1 0xFF MUL NOT AND SWAP1 DUP4 ISZERO ISZERO MUL OR SWAP1 SSTORE POP DUP4 PUSH1 0x7 DUP7 DUP2 SLOAD DUP2 LT PUSH2 0x1DB4 JUMPI PUSH2 0x1DB4 PUSH2 0x37BA JUMP JUMPDEST SWAP1 PUSH1 0x0 MSTORE PUSH1 0x20 PUSH1 0x0 KECCAK256 SWAP1 PUSH1 0xB MUL ADD PUSH1 0x9 ADD DUP2 SWAP1 SSTORE POP PUSH32 0x2F78808C539FD07CB45456A5D5561C76D3D4005246FACCB297481E511ABC321A PUSH1 0x7 DUP7 DUP2 SLOAD DUP2 LT PUSH2 0x1DFD JUMPI PUSH2 0x1DFD PUSH2 0x37BA JUMP JUMPDEST SWAP1 PUSH1 0x0 MSTORE PUSH1 0x20 PUSH1 0x0 KECCAK256 SWAP1 PUSH1 0xB MUL ADD PUSH1 0x4 ADD PUSH1 0x0 SWAP1 SLOAD SWAP1 PUSH2 0x100 EXP SWAP1 DIV PUSH1 0x1 PUSH1 0x1 PUSH1 0xA0 SHL SUB AND PUSH1 0x7 DUP8 DUP2 SLOAD DUP2 LT PUSH2 0x1E35 JUMPI PUSH2 0x1E35 PUSH2 0x37BA JUMP JUMPDEST PUSH1 0x0 SWAP2 DUP3 MSTORE PUSH1 0x20 SWAP2 DUP3 SWAP1 KECCAK256 PUSH1 0xB SWAP2 DUP3 MUL ADD PUSH1 0x5 ADD SLOAD PUSH1 0x40 DUP1 MLOAD PUSH1 0x80 DUP1 DUP3 MSTORE DUP2 ADD SWAP4 SWAP1 SWAP4 MSTORE PUSH11 0x53746172742067616D6521 PUSH1 0xA8 SHL PUSH1 0xA0 DUP5 ADD MSTORE PUSH1 0x1 PUSH1 0x1 PUSH1 0xA0 SHL SUB SWAP5 DUP6 AND SWAP4 DUP4 ADD SWAP4 SWAP1 SWAP4 MSTORE SWAP3 SWAP1 SWAP3 AND SWAP1 DUP3 ADD MSTORE PUSH1 0x60 DUP2 ADD DUP8 SWAP1 MSTORE PUSH1 0xC0 ADD PUSH1 0x40 MLOAD DUP1 SWAP2 SUB SWAP1 LOG1 POP POP POP PUSH2 0x1F3B JUMP JUMPDEST PUSH1 0x7 DUP3 DUP2 SLOAD DUP2 LT PUSH2 0x1EB4 JUMPI PUSH2 0x1EB4 PUSH2 0x37BA JUMP JUMPDEST SWAP1 PUSH1 0x0 MSTORE PUSH1 0x20 PUSH1 0x0 KECCAK256 SWAP1 PUSH1 0xB MUL ADD PUSH1 0x6 ADD SLOAD PUSH1 0x2 EQ PUSH2 0x1F3B JUMPI PUSH1 0x40 MLOAD PUSH3 0x461BCD PUSH1 0xE5 SHL DUP2 MSTORE PUSH1 0x20 PUSH1 0x4 DUP3 ADD MSTORE PUSH1 0x3E PUSH1 0x24 DUP3 ADD MSTORE PUSH32 0x4E6F772071756575652069732066756C6C2C20747279206C617465722E204761 PUSH1 0x44 DUP3 ADD MSTORE PUSH32 0x6D6520616C72656164792066756C6C20706C73206A6F696E206F746865720000 PUSH1 0x64 DUP3 ADD MSTORE PUSH1 0x84 ADD PUSH2 0x34F JUMP JUMPDEST PUSH32 0x50370B40BD566613CB1B12508C3114409E62C5C8DE11BE443CAFC84462CF5699 PUSH1 0x7 DUP4 DUP2 SLOAD DUP2 LT PUSH2 0x1F6F JUMPI PUSH2 0x1F6F PUSH2 0x37BA JUMP JUMPDEST SWAP1 PUSH1 0x0 MSTORE PUSH1 0x20 PUSH1 0x0 KECCAK256 SWAP1 PUSH1 0xB MUL ADD DUP4 PUSH1 0x40 MLOAD PUSH2 0x1F8C SWAP3 SWAP2 SWAP1 PUSH2 0x39F1 JUMP JUMPDEST PUSH1 0x40 MLOAD DUP1 SWAP2 SUB SWAP1 LOG1 POP POP PUSH1 0x6 DUP1 SLOAD PUSH1 0xFF PUSH1 0xA0 SHL NOT AND SWAP1 SSTORE JUMP JUMPDEST PUSH1 0x0 SLOAD PUSH1 0x40 MLOAD PUSH4 0x70A08231 PUSH1 0xE0 SHL DUP2 MSTORE ADDRESS PUSH1 0x4 DUP3 ADD MSTORE PUSH1 0x64 SWAP2 PUSH1 0x1 PUSH1 0x1 PUSH1 0xA0 SHL SUB AND SWAP1 PUSH4 0x70A08231 SWAP1 PUSH1 0x24 ADD PUSH1 0x20 PUSH1 0x40 MLOAD DUP1 DUP4 SUB DUP2 DUP7 GAS STATICCALL ISZERO DUP1 ISZERO PUSH2 0x1FEE JUMPI RETURNDATASIZE PUSH1 0x0 DUP1 RETURNDATACOPY RETURNDATASIZE PUSH1 0x0 REVERT JUMPDEST POP POP POP POP PUSH1 0x40 MLOAD RETURNDATASIZE PUSH1 0x1F NOT PUSH1 0x1F DUP3 ADD AND DUP3 ADD DUP1 PUSH1 0x40 MSTORE POP DUP2 ADD SWAP1 PUSH2 0x2012 SWAP2 SWAP1 PUSH2 0x359D JUMP JUMPDEST GT PUSH2 0x2075 JUMPI PUSH1 0x40 MLOAD PUSH3 0x461BCD PUSH1 0xE5 SHL DUP2 MSTORE PUSH1 0x20 PUSH1 0x4 DUP3 ADD MSTORE PUSH1 0x2D PUSH1 0x24 DUP3 ADD MSTORE PUSH32 0x54686520636F6E747261637420646F6573206E6F74206861766520746F6B656E PUSH1 0x44 DUP3 ADD MSTORE PUSH13 0x39903A3790383937BB34B23297 PUSH1 0x99 SHL PUSH1 0x64 DUP3 ADD MSTORE PUSH1 0x84 ADD PUSH2 0x34F JUMP JUMPDEST PUSH1 0x0 SLOAD PUSH1 0x40 MLOAD PUSH4 0x70A08231 PUSH1 0xE0 SHL DUP2 MSTORE CALLER PUSH1 0x4 DUP3 ADD MSTORE PUSH1 0xA SWAP2 PUSH1 0x1 PUSH1 0x1 PUSH1 0xA0 SHL SUB AND SWAP1 PUSH4 0x70A08231 SWAP1 PUSH1 0x24 ADD PUSH1 0x20 PUSH1 0x40 MLOAD DUP1 DUP4 SUB DUP2 DUP7 GAS STATICCALL ISZERO DUP1 ISZERO PUSH2 0x20BE JUMPI RETURNDATASIZE PUSH1 0x0 DUP1 RETURNDATACOPY RETURNDATASIZE PUSH1 0x0 REVERT JUMPDEST POP POP POP POP PUSH1 0x40 MLOAD RETURNDATASIZE PUSH1 0x1F NOT PUSH1 0x1F DUP3 ADD AND DUP3 ADD DUP1 PUSH1 0x40 MSTORE POP DUP2 ADD SWAP1 PUSH2 0x20E2 SWAP2 SWAP1 PUSH2 0x359D JUMP JUMPDEST LT PUSH2 0x212F JUMPI PUSH1 0x40 MLOAD PUSH3 0x461BCD PUSH1 0xE5 SHL DUP2 MSTORE PUSH1 0x20 PUSH1 0x4 DUP3 ADD MSTORE PUSH1 0x1A PUSH1 0x24 DUP3 ADD MSTORE PUSH32 0x596F75207374696C6C20676F7420656E6F75676820746F6B656E000000000000 PUSH1 0x44 DUP3 ADD MSTORE PUSH1 0x64 ADD PUSH2 0x34F JUMP JUMPDEST PUSH1 0x0 DUP1 SLOAD PUSH1 0x40 MLOAD PUSH4 0xA9059CBB PUSH1 0xE0 SHL DUP2 MSTORE CALLER PUSH1 0x4 DUP3 ADD MSTORE PUSH9 0x56BC75E2D63100000 PUSH1 0x24 DUP3 ADD MSTORE PUSH1 0x1 PUSH1 0x1 PUSH1 0xA0 SHL SUB SWAP1 SWAP2 AND SWAP1 PUSH4 0xA9059CBB SWAP1 PUSH1 0x44 ADD PUSH1 0x20 PUSH1 0x40 MLOAD DUP1 DUP4 SUB DUP2 PUSH1 0x0 DUP8 GAS CALL ISZERO DUP1 ISZERO PUSH2 0x2189 JUMPI RETURNDATASIZE PUSH1 0x0 DUP1 RETURNDATACOPY RETURNDATASIZE PUSH1 0x0 REVERT JUMPDEST POP POP POP POP PUSH1 0x40 MLOAD RETURNDATASIZE PUSH1 0x1F NOT PUSH1 0x1F DUP3 ADD AND DUP3 ADD DUP1 PUSH1 0x40 MSTORE POP DUP2 ADD SWAP1 PUSH2 0x21AD SWAP2 SWAP1 PUSH2 0x363C JUMP JUMPDEST PUSH1 0x40 DUP1 MLOAD CALLER DUP2 MSTORE DUP3 ISZERO ISZERO PUSH1 0x20 DUP3 ADD MSTORE SWAP2 SWAP3 POP PUSH32 0x1D67794760BB3EA2174B2CCC7B8AA2D786EF61A72E7BE363DAB04929E3510B1C SWAP2 ADD PUSH2 0xF1C JUMP JUMPDEST PUSH1 0x0 DUP2 PUSH1 0x40 MLOAD PUSH1 0x20 ADD PUSH2 0x21FA SWAP2 SWAP1 PUSH2 0x3AD1 JUMP JUMPDEST PUSH1 0x40 MLOAD PUSH1 0x20 DUP2 DUP4 SUB SUB DUP2 MSTORE SWAP1 PUSH1 0x40 MSTORE DUP1 MLOAD SWAP1 PUSH1 0x20 ADD KECCAK256 DUP4 PUSH1 0x40 MLOAD PUSH1 0x20 ADD PUSH2 0x2221 SWAP2 SWAP1 PUSH2 0x3AD1 JUMP JUMPDEST PUSH1 0x40 MLOAD PUSH1 0x20 DUP2 DUP4 SUB SUB DUP2 MSTORE SWAP1 PUSH1 0x40 MSTORE DUP1 MLOAD SWAP1 PUSH1 0x20 ADD KECCAK256 EQ SWAP1 POP JUMPDEST SWAP3 SWAP2 POP POP JUMP JUMPDEST PUSH1 0x60 PUSH1 0x7 DUP3 DUP2 SLOAD DUP2 LT PUSH2 0x2256 JUMPI PUSH2 0x2256 PUSH2 0x37BA JUMP JUMPDEST SWAP1 PUSH1 0x0 MSTORE PUSH1 0x20 PUSH1 0x0 KECCAK256 SWAP1 PUSH1 0xB MUL ADD PUSH1 0x2 ADD DUP1 SLOAD DUP1 PUSH1 0x20 MUL PUSH1 0x20 ADD PUSH1 0x40 MLOAD SWAP1 DUP2 ADD PUSH1 0x40 MSTORE DUP1 SWAP3 SWAP2 SWAP1 DUP2 DUP2 MSTORE PUSH1 0x20 ADD PUSH1 0x0 SWAP1 JUMPDEST DUP3 DUP3 LT ISZERO PUSH2 0x2333 JUMPI DUP4 DUP3 SWAP1 PUSH1 0x0 MSTORE PUSH1 0x20 PUSH1 0x0 KECCAK256 ADD DUP1 SLOAD PUSH2 0x22A6 SWAP1 PUSH2 0x3671 JUMP JUMPDEST DUP1 PUSH1 0x1F ADD PUSH1 0x20 DUP1 SWAP2 DIV MUL PUSH1 0x20 ADD PUSH1 0x40 MLOAD SWAP1 DUP2 ADD PUSH1 0x40 MSTORE DUP1 SWAP3 SWAP2 SWAP1 DUP2 DUP2 MSTORE PUSH1 0x20 ADD DUP3 DUP1 SLOAD PUSH2 0x22D2 SWAP1 PUSH2 0x3671 JUMP JUMPDEST DUP1 ISZERO PUSH2 0x231F JUMPI DUP1 PUSH1 0x1F LT PUSH2 0x22F4 JUMPI PUSH2 0x100 DUP1 DUP4 SLOAD DIV MUL DUP4 MSTORE SWAP2 PUSH1 0x20 ADD SWAP2 PUSH2 0x231F JUMP JUMPDEST DUP3 ADD SWAP2 SWAP1 PUSH1 0x0 MSTORE PUSH1 0x20 PUSH1 0x0 KECCAK256 SWAP1 JUMPDEST DUP2 SLOAD DUP2 MSTORE SWAP1 PUSH1 0x1 ADD SWAP1 PUSH1 0x20 ADD DUP1 DUP4 GT PUSH2 0x2302 JUMPI DUP3 SWAP1 SUB PUSH1 0x1F AND DUP3 ADD SWAP2 JUMPDEST POP POP POP POP POP DUP2 MSTORE PUSH1 0x20 ADD SWAP1 PUSH1 0x1 ADD SWAP1 PUSH2 0x2287 JUMP JUMPDEST POP POP POP POP SWAP1 POP SWAP2 SWAP1 POP JUMP JUMPDEST PUSH1 0x6 SLOAD PUSH1 0x1 PUSH1 0x1 PUSH1 0xA0 SHL SUB AND CALLER EQ PUSH2 0x2388 JUMPI PUSH1 0x40 MLOAD PUSH3 0x461BCD PUSH1 0xE5 SHL DUP2 MSTORE PUSH1 0x20 PUSH1 0x4 DUP3 ADD MSTORE PUSH1 0xD PUSH1 0x24 DUP3 ADD MSTORE PUSH13 0x2737BA103A34329037BBB732B9 PUSH1 0x99 SHL PUSH1 0x44 DUP3 ADD MSTORE PUSH1 0x64 ADD PUSH2 0x34F JUMP JUMPDEST PUSH1 0x0 SLOAD PUSH1 0x6 SLOAD PUSH1 0x40 MLOAD PUSH4 0x70A08231 PUSH1 0xE0 SHL DUP2 MSTORE ADDRESS PUSH1 0x4 DUP3 ADD MSTORE PUSH1 0x1 PUSH1 0x1 PUSH1 0xA0 SHL SUB SWAP3 DUP4 AND SWAP3 PUSH4 0xA9059CBB SWAP3 AND SWAP1 DUP4 SWAP1 PUSH4 0x70A08231 SWAP1 PUSH1 0x24 ADD PUSH1 0x20 PUSH1 0x40 MLOAD DUP1 DUP4 SUB DUP2 DUP7 GAS STATICCALL ISZERO DUP1 ISZERO PUSH2 0x23DD JUMPI RETURNDATASIZE PUSH1 0x0 DUP1 RETURNDATACOPY RETURNDATASIZE PUSH1 0x0 REVERT JUMPDEST POP POP POP POP PUSH1 0x40 MLOAD RETURNDATASIZE PUSH1 0x1F NOT PUSH1 0x1F DUP3 ADD AND DUP3 ADD DUP1 PUSH1 0x40 MSTORE POP DUP2 ADD SWAP1 PUSH2 0x15DC SWAP2 SWAP1 PUSH2 0x359D JUMP JUMPDEST PUSH1 0x0 PUSH1 0x7 DUP3 DUP2 SLOAD DUP2 LT PUSH2 0x2416 JUMPI PUSH2 0x2416 PUSH2 0x37BA JUMP JUMPDEST PUSH1 0x0 SWAP2 DUP3 MSTORE PUSH1 0x20 SWAP1 SWAP2 KECCAK256 PUSH1 0xB SWAP1 SWAP2 MUL ADD PUSH1 0x4 ADD SLOAD PUSH1 0x1 PUSH1 0x1 PUSH1 0xA0 SHL SUB AND CALLER EQ DUP1 PUSH2 0x246E JUMPI POP PUSH1 0x7 DUP3 DUP2 SLOAD DUP2 LT PUSH2 0x244E JUMPI PUSH2 0x244E PUSH2 0x37BA JUMP JUMPDEST PUSH1 0x0 SWAP2 DUP3 MSTORE PUSH1 0x20 SWAP1 SWAP2 KECCAK256 PUSH1 0xB SWAP1 SWAP2 MUL ADD PUSH1 0x5 ADD SLOAD PUSH1 0x1 PUSH1 0x1 PUSH1 0xA0 SHL SUB AND CALLER EQ JUMPDEST PUSH2 0x2479 JUMPI PUSH1 0x0 PUSH2 0x223B JUMP JUMPDEST PUSH1 0x1 SWAP3 SWAP2 POP POP JUMP JUMPDEST PUSH1 0x0 DUP1 JUMPDEST PUSH1 0x8 SLOAD DUP2 LT ISZERO PUSH2 0x29B4 JUMPI PUSH1 0x0 PUSH1 0x8 DUP3 DUP2 SLOAD DUP2 LT PUSH2 0x24A4 JUMPI PUSH2 0x24A4 PUSH2 0x37BA JUMP JUMPDEST SWAP1 PUSH1 0x0 MSTORE PUSH1 0x20 PUSH1 0x0 KECCAK256 ADD DUP1 SLOAD DUP1 PUSH1 0x20 MUL PUSH1 0x20 ADD PUSH1 0x40 MLOAD SWAP1 DUP2 ADD PUSH1 0x40 MSTORE DUP1 SWAP3 SWAP2 SWAP1 DUP2 DUP2 MSTORE PUSH1 0x20 ADD DUP3 DUP1 SLOAD DUP1 ISZERO PUSH2 0x24F8 JUMPI PUSH1 0x20 MUL DUP3 ADD SWAP2 SWAP1 PUSH1 0x0 MSTORE PUSH1 0x20 PUSH1 0x0 KECCAK256 SWAP1 JUMPDEST DUP2 SLOAD DUP2 MSTORE PUSH1 0x20 ADD SWAP1 PUSH1 0x1 ADD SWAP1 DUP1 DUP4 GT PUSH2 0x24E4 JUMPI JUMPDEST POP POP POP POP POP SWAP1 POP PUSH1 0x0 PUSH1 0x7 DUP6 DUP2 SLOAD DUP2 LT PUSH2 0x2514 JUMPI PUSH2 0x2514 PUSH2 0x37BA JUMP JUMPDEST SWAP1 PUSH1 0x0 MSTORE PUSH1 0x20 PUSH1 0x0 KECCAK256 SWAP1 PUSH1 0xB MUL ADD PUSH1 0x2 ADD DUP3 PUSH1 0x0 DUP2 MLOAD DUP2 LT PUSH2 0x2538 JUMPI PUSH2 0x2538 PUSH2 0x37BA JUMP JUMPDEST PUSH1 0x20 MUL PUSH1 0x20 ADD ADD MLOAD DUP2 SLOAD DUP2 LT PUSH2 0x2550 JUMPI PUSH2 0x2550 PUSH2 0x37BA JUMP JUMPDEST SWAP1 PUSH1 0x0 MSTORE PUSH1 0x20 PUSH1 0x0 KECCAK256 ADD DUP1 SLOAD PUSH2 0x2565 SWAP1 PUSH2 0x3671 JUMP JUMPDEST DUP1 PUSH1 0x1F ADD PUSH1 0x20 DUP1 SWAP2 DIV MUL PUSH1 0x20 ADD PUSH1 0x40 MLOAD SWAP1 DUP2 ADD PUSH1 0x40 MSTORE DUP1 SWAP3 SWAP2 SWAP1 DUP2 DUP2 MSTORE PUSH1 0x20 ADD DUP3 DUP1 SLOAD PUSH2 0x2591 SWAP1 PUSH2 0x3671 JUMP JUMPDEST DUP1 ISZERO PUSH2 0x25DE JUMPI DUP1 PUSH1 0x1F LT PUSH2 0x25B3 JUMPI PUSH2 0x100 DUP1 DUP4 SLOAD DIV MUL DUP4 MSTORE SWAP2 PUSH1 0x20 ADD SWAP2 PUSH2 0x25DE JUMP JUMPDEST DUP3 ADD SWAP2 SWAP1 PUSH1 0x0 MSTORE PUSH1 0x20 PUSH1 0x0 KECCAK256 SWAP1 JUMPDEST DUP2 SLOAD DUP2 MSTORE SWAP1 PUSH1 0x1 ADD SWAP1 PUSH1 0x20 ADD DUP1 DUP4 GT PUSH2 0x25C1 JUMPI DUP3 SWAP1 SUB PUSH1 0x1F AND DUP3 ADD SWAP2 JUMPDEST POP POP POP POP POP SWAP1 POP PUSH1 0x0 PUSH1 0x7 DUP7 DUP2 SLOAD DUP2 LT PUSH2 0x25FA JUMPI PUSH2 0x25FA PUSH2 0x37BA JUMP JUMPDEST SWAP1 PUSH1 0x0 MSTORE PUSH1 0x20 PUSH1 0x0 KECCAK256 SWAP1 PUSH1 0xB MUL ADD PUSH1 0x2 ADD DUP4 PUSH1 0x1 DUP2 MLOAD DUP2 LT PUSH2 0x261E JUMPI PUSH2 0x261E PUSH2 0x37BA JUMP JUMPDEST PUSH1 0x20 MUL PUSH1 0x20 ADD ADD MLOAD DUP2 SLOAD DUP2 LT PUSH2 0x2636 JUMPI PUSH2 0x2636 PUSH2 0x37BA JUMP JUMPDEST SWAP1 PUSH1 0x0 MSTORE PUSH1 0x20 PUSH1 0x0 KECCAK256 ADD DUP1 SLOAD PUSH2 0x264B SWAP1 PUSH2 0x3671 JUMP JUMPDEST DUP1 PUSH1 0x1F ADD PUSH1 0x20 DUP1 SWAP2 DIV MUL PUSH1 0x20 ADD PUSH1 0x40 MLOAD SWAP1 DUP2 ADD PUSH1 0x40 MSTORE DUP1 SWAP3 SWAP2 SWAP1 DUP2 DUP2 MSTORE PUSH1 0x20 ADD DUP3 DUP1 SLOAD PUSH2 0x2677 SWAP1 PUSH2 0x3671 JUMP JUMPDEST DUP1 ISZERO PUSH2 0x26C4 JUMPI DUP1 PUSH1 0x1F LT PUSH2 0x2699 JUMPI PUSH2 0x100 DUP1 DUP4 SLOAD DIV MUL DUP4 MSTORE SWAP2 PUSH1 0x20 ADD SWAP2 PUSH2 0x26C4 JUMP JUMPDEST DUP3 ADD SWAP2 SWAP1 PUSH1 0x0 MSTORE PUSH1 0x20 PUSH1 0x0 KECCAK256 SWAP1 JUMPDEST DUP2 SLOAD DUP2 MSTORE SWAP1 PUSH1 0x1 ADD SWAP1 PUSH1 0x20 ADD DUP1 DUP4 GT PUSH2 0x26A7 JUMPI DUP3 SWAP1 SUB PUSH1 0x1F AND DUP3 ADD SWAP2 JUMPDEST POP POP POP POP POP SWAP1 POP PUSH1 0x0 PUSH1 0x7 DUP8 DUP2 SLOAD DUP2 LT PUSH2 0x26E0 JUMPI PUSH2 0x26E0 PUSH2 0x37BA JUMP JUMPDEST SWAP1 PUSH1 0x0 MSTORE PUSH1 0x20 PUSH1 0x0 KECCAK256 SWAP1 PUSH1 0xB MUL ADD PUSH1 0x2 ADD DUP5 PUSH1 0x2 DUP2 MLOAD DUP2 LT PUSH2 0x2704 JUMPI PUSH2 0x2704 PUSH2 0x37BA JUMP JUMPDEST PUSH1 0x20 MUL PUSH1 0x20 ADD ADD MLOAD DUP2 SLOAD DUP2 LT PUSH2 0x271C JUMPI PUSH2 0x271C PUSH2 0x37BA JUMP JUMPDEST SWAP1 PUSH1 0x0 MSTORE PUSH1 0x20 PUSH1 0x0 KECCAK256 ADD DUP1 SLOAD PUSH2 0x2731 SWAP1 PUSH2 0x3671 JUMP JUMPDEST DUP1 PUSH1 0x1F ADD PUSH1 0x20 DUP1 SWAP2 DIV MUL PUSH1 0x20 ADD PUSH1 0x40 MLOAD SWAP1 DUP2 ADD PUSH1 0x40 MSTORE DUP1 SWAP3 SWAP2 SWAP1 DUP2 DUP2 MSTORE PUSH1 0x20 ADD DUP3 DUP1 SLOAD PUSH2 0x275D SWAP1 PUSH2 0x3671 JUMP JUMPDEST DUP1 ISZERO PUSH2 0x27AA JUMPI DUP1 PUSH1 0x1F LT PUSH2 0x277F JUMPI PUSH2 0x100 DUP1 DUP4 SLOAD DIV MUL DUP4 MSTORE SWAP2 PUSH1 0x20 ADD SWAP2 PUSH2 0x27AA JUMP JUMPDEST DUP3 ADD SWAP2 SWAP1 PUSH1 0x0 MSTORE PUSH1 0x20 PUSH1 0x0 KECCAK256 SWAP1 JUMPDEST DUP2 SLOAD DUP2 MSTORE SWAP1 PUSH1 0x1 ADD SWAP1 PUSH1 0x20 ADD DUP1 DUP4 GT PUSH2 0x278D JUMPI DUP3 SWAP1 SUB PUSH1 0x1F AND DUP3 ADD SWAP2 JUMPDEST POP POP POP POP POP SWAP1 POP PUSH2 0x27CA DUP4 PUSH1 0x40 MLOAD DUP1 PUSH1 0x20 ADD PUSH1 0x40 MSTORE DUP1 PUSH1 0x0 DUP2 MSTORE POP PUSH2 0x21E7 JUMP JUMPDEST DUP1 PUSH2 0x27E9 JUMPI POP PUSH2 0x27E9 DUP3 PUSH1 0x40 MLOAD DUP1 PUSH1 0x20 ADD PUSH1 0x40 MSTORE DUP1 PUSH1 0x0 DUP2 MSTORE POP PUSH2 0x21E7 JUMP JUMPDEST DUP1 PUSH2 0x2808 JUMPI POP PUSH2 0x2808 DUP2 PUSH1 0x40 MLOAD DUP1 PUSH1 0x20 ADD PUSH1 0x40 MSTORE DUP1 PUSH1 0x0 DUP2 MSTORE POP PUSH2 0x21E7 JUMP JUMPDEST ISZERO PUSH2 0x2816 JUMPI POP POP POP POP PUSH2 0x29A2 JUMP JUMPDEST PUSH2 0x2820 DUP4 DUP4 PUSH2 0x21E7 JUMP JUMPDEST DUP1 ISZERO PUSH2 0x2831 JUMPI POP PUSH2 0x2831 DUP3 DUP3 PUSH2 0x21E7 JUMP JUMPDEST ISZERO PUSH2 0x299D JUMPI DUP4 PUSH1 0x7 DUP9 DUP2 SLOAD DUP2 LT PUSH2 0x284A JUMPI PUSH2 0x284A PUSH2 0x37BA JUMP JUMPDEST SWAP1 PUSH1 0x0 MSTORE PUSH1 0x20 PUSH1 0x0 KECCAK256 SWAP1 PUSH1 0xB MUL ADD PUSH1 0x3 ADD SWAP1 DUP1 MLOAD SWAP1 PUSH1 0x20 ADD SWAP1 PUSH2 0x286E SWAP3 SWAP2 SWAP1 PUSH2 0x302B JUMP JUMPDEST POP PUSH2 0x2885 PUSH1 0x7 DUP9 DUP2 SLOAD DUP2 LT PUSH2 0x10CC JUMPI PUSH2 0x10CC PUSH2 0x37BA JUMP JUMPDEST ISZERO PUSH2 0x290F JUMPI PUSH1 0x7 DUP8 DUP2 SLOAD DUP2 LT PUSH2 0x289D JUMPI PUSH2 0x289D PUSH2 0x37BA JUMP JUMPDEST SWAP1 PUSH1 0x0 MSTORE PUSH1 0x20 PUSH1 0x0 KECCAK256 SWAP1 PUSH1 0xB MUL ADD PUSH1 0x4 ADD PUSH1 0x0 SWAP1 SLOAD SWAP1 PUSH2 0x100 EXP SWAP1 DIV PUSH1 0x1 PUSH1 0x1 PUSH1 0xA0 SHL SUB AND PUSH1 0x7 DUP9 DUP2 SLOAD DUP2 LT PUSH2 0x28D5 JUMPI PUSH2 0x28D5 PUSH2 0x37BA JUMP JUMPDEST SWAP1 PUSH1 0x0 MSTORE PUSH1 0x20 PUSH1 0x0 KECCAK256 SWAP1 PUSH1 0xB MUL ADD PUSH1 0x7 ADD PUSH1 0x0 PUSH2 0x100 EXP DUP2 SLOAD DUP2 PUSH1 0x1 PUSH1 0x1 PUSH1 0xA0 SHL SUB MUL NOT AND SWAP1 DUP4 PUSH1 0x1 PUSH1 0x1 PUSH1 0xA0 SHL SUB AND MUL OR SWAP1 SSTORE POP PUSH2 0x2990 JUMP JUMPDEST PUSH1 0x7 DUP8 DUP2 SLOAD DUP2 LT PUSH2 0x2922 JUMPI PUSH2 0x2922 PUSH2 0x37BA JUMP JUMPDEST SWAP1 PUSH1 0x0 MSTORE PUSH1 0x20 PUSH1 0x0 KECCAK256 SWAP1 PUSH1 0xB MUL ADD PUSH1 0x5 ADD PUSH1 0x0 SWAP1 SLOAD SWAP1 PUSH2 0x100 EXP SWAP1 DIV PUSH1 0x1 PUSH1 0x1 PUSH1 0xA0 SHL SUB AND PUSH1 0x7 DUP9 DUP2 SLOAD DUP2 LT PUSH2 0x295A JUMPI PUSH2 0x295A PUSH2 0x37BA JUMP JUMPDEST SWAP1 PUSH1 0x0 MSTORE PUSH1 0x20 PUSH1 0x0 KECCAK256 SWAP1 PUSH1 0xB MUL ADD PUSH1 0x7 ADD PUSH1 0x0 PUSH2 0x100 EXP DUP2 SLOAD DUP2 PUSH1 0x1 PUSH1 0x1 PUSH1 0xA0 SHL SUB MUL NOT AND SWAP1 DUP4 PUSH1 0x1 PUSH1 0x1 PUSH1 0xA0 SHL SUB AND MUL OR SWAP1 SSTORE POP JUMPDEST PUSH1 0x1 SWAP6 POP POP POP POP POP PUSH2 0x29B4 JUMP JUMPDEST POP POP POP POP JUMPDEST DUP1 PUSH2 0x29AC DUP2 PUSH2 0x37D0 JUMP JUMPDEST SWAP2 POP POP PUSH2 0x2485 JUMP JUMPDEST POP DUP1 ISZERO PUSH2 0x2C99 JUMPI PUSH2 0x29D1 PUSH1 0x7 DUP4 DUP2 SLOAD DUP2 LT PUSH2 0x10CC JUMPI PUSH2 0x10CC PUSH2 0x37BA JUMP JUMPDEST ISZERO PUSH2 0x2ACB JUMPI PUSH1 0x0 SLOAD PUSH1 0x7 DUP1 SLOAD PUSH1 0x1 PUSH1 0x1 PUSH1 0xA0 SHL SUB SWAP1 SWAP3 AND SWAP2 PUSH4 0xA9059CBB SWAP2 SWAP1 DUP6 SWAP1 DUP2 LT PUSH2 0x2A00 JUMPI PUSH2 0x2A00 PUSH2 0x37BA JUMP JUMPDEST SWAP1 PUSH1 0x0 MSTORE PUSH1 0x20 PUSH1 0x0 KECCAK256 SWAP1 PUSH1 0xB MUL ADD PUSH1 0x4 ADD PUSH1 0x0 SWAP1 SLOAD SWAP1 PUSH2 0x100 EXP SWAP1 DIV PUSH1 0x1 PUSH1 0x1 PUSH1 0xA0 SHL SUB AND PUSH1 0x7 DUP6 DUP2 SLOAD DUP2 LT PUSH2 0x2A38 JUMPI PUSH2 0x2A38 PUSH2 0x37BA JUMP JUMPDEST SWAP1 PUSH1 0x0 MSTORE PUSH1 0x20 PUSH1 0x0 KECCAK256 SWAP1 PUSH1 0xB MUL ADD PUSH1 0xA ADD SLOAD PUSH1 0x2 PUSH2 0x2A56 SWAP2 SWAP1 PUSH2 0x35CC JUMP JUMPDEST PUSH1 0x40 MLOAD PUSH1 0x1 PUSH1 0x1 PUSH1 0xE0 SHL SUB NOT PUSH1 0xE0 DUP6 SWAP1 SHL AND DUP2 MSTORE PUSH1 0x1 PUSH1 0x1 PUSH1 0xA0 SHL SUB SWAP1 SWAP3 AND PUSH1 0x4 DUP4 ADD MSTORE PUSH1 0x24 DUP3 ADD MSTORE PUSH1 0x44 ADD PUSH1 0x20 PUSH1 0x40 MLOAD DUP1 DUP4 SUB DUP2 PUSH1 0x0 DUP8 GAS CALL ISZERO DUP1 ISZERO PUSH2 0x2AA1 JUMPI RETURNDATASIZE PUSH1 0x0 DUP1 RETURNDATACOPY RETURNDATASIZE PUSH1 0x0 REVERT JUMPDEST POP POP POP POP PUSH1 0x40 MLOAD RETURNDATASIZE PUSH1 0x1F NOT PUSH1 0x1F DUP3 ADD AND DUP3 ADD DUP1 PUSH1 0x40 MSTORE POP DUP2 ADD SWAP1 PUSH2 0x2AC5 SWAP2 SWAP1 PUSH2 0x363C JUMP JUMPDEST POP PUSH2 0x2BBC JUMP JUMPDEST PUSH1 0x0 SLOAD PUSH1 0x7 DUP1 SLOAD PUSH1 0x1 PUSH1 0x1 PUSH1 0xA0 SHL SUB SWAP1 SWAP3 AND SWAP2 PUSH4 0xA9059CBB SWAP2 SWAP1 DUP6 SWAP1 DUP2 LT PUSH2 0x2AF5 JUMPI PUSH2 0x2AF5 PUSH2 0x37BA JUMP JUMPDEST SWAP1 PUSH1 0x0 MSTORE PUSH1 0x20 PUSH1 0x0 KECCAK256 SWAP1 PUSH1 0xB MUL ADD PUSH1 0x5 ADD PUSH1 0x0 SWAP1 SLOAD SWAP1 PUSH2 0x100 EXP SWAP1 DIV PUSH1 0x1 PUSH1 0x1 PUSH1 0xA0 SHL SUB AND PUSH1 0x7 DUP6 DUP2 SLOAD DUP2 LT PUSH2 0x2B2D JUMPI PUSH2 0x2B2D PUSH2 0x37BA JUMP JUMPDEST SWAP1 PUSH1 0x0 MSTORE PUSH1 0x20 PUSH1 0x0 KECCAK256 SWAP1 PUSH1 0xB MUL ADD PUSH1 0xA ADD SLOAD PUSH1 0x2 PUSH2 0x2B4B SWAP2 SWAP1 PUSH2 0x35CC JUMP JUMPDEST PUSH1 0x40 MLOAD PUSH1 0x1 PUSH1 0x1 PUSH1 0xE0 SHL SUB NOT PUSH1 0xE0 DUP6 SWAP1 SHL AND DUP2 MSTORE PUSH1 0x1 PUSH1 0x1 PUSH1 0xA0 SHL SUB SWAP1 SWAP3 AND PUSH1 0x4 DUP4 ADD MSTORE PUSH1 0x24 DUP3 ADD MSTORE PUSH1 0x44 ADD PUSH1 0x20 PUSH1 0x40 MLOAD DUP1 DUP4 SUB DUP2 PUSH1 0x0 DUP8 GAS CALL ISZERO DUP1 ISZERO PUSH2 0x2B96 JUMPI RETURNDATASIZE PUSH1 0x0 DUP1 RETURNDATACOPY RETURNDATASIZE PUSH1 0x0 REVERT JUMPDEST POP POP POP POP PUSH1 0x40 MLOAD RETURNDATASIZE PUSH1 0x1F NOT PUSH1 0x1F DUP3 ADD AND DUP3 ADD DUP1 PUSH1 0x40 MSTORE POP DUP2 ADD SWAP1 PUSH2 0x2BBA SWAP2 SWAP1 PUSH2 0x363C JUMP JUMPDEST POP JUMPDEST PUSH1 0x7 DUP3 DUP2 SLOAD DUP2 LT PUSH2 0x2BCF JUMPI PUSH2 0x2BCF PUSH2 0x37BA JUMP JUMPDEST SWAP1 PUSH1 0x0 MSTORE PUSH1 0x20 PUSH1 0x0 KECCAK256 SWAP1 PUSH1 0xB MUL ADD PUSH1 0xA ADD SLOAD PUSH1 0x2 PUSH2 0x2BED SWAP2 SWAP1 PUSH2 0x35CC JUMP JUMPDEST PUSH1 0x5 PUSH1 0x0 DUP3 DUP3 SLOAD PUSH2 0x2BFE SWAP2 SWAP1 PUSH2 0x3605 JUMP JUMPDEST SWAP3 POP POP DUP2 SWAP1 SSTORE POP PUSH32 0x938A1C44580C51D01225D61FB97878104148B1CDC734EB45BC5B5B50533A492D PUSH1 0x7 DUP4 DUP2 SLOAD DUP2 LT PUSH2 0x2C39 JUMPI PUSH2 0x2C39 PUSH2 0x37BA JUMP JUMPDEST SWAP1 PUSH1 0x0 MSTORE PUSH1 0x20 PUSH1 0x0 KECCAK256 SWAP1 PUSH1 0xB MUL ADD PUSH1 0x1 ADD DUP4 PUSH1 0x40 MLOAD PUSH2 0x2C59 SWAP3 SWAP2 SWAP1 PUSH2 0x3AED JUMP JUMPDEST PUSH1 0x40 MLOAD DUP1 SWAP2 SUB SWAP1 LOG1 PUSH1 0x0 PUSH1 0x7 DUP4 DUP2 SLOAD DUP2 LT PUSH2 0x2C76 JUMPI PUSH2 0x2C76 PUSH2 0x37BA JUMP JUMPDEST PUSH1 0x0 SWAP2 DUP3 MSTORE PUSH1 0x20 SWAP1 SWAP2 KECCAK256 PUSH1 0xB SWAP1 SWAP2 MUL ADD DUP1 SLOAD PUSH1 0xFF NOT AND SWAP2 ISZERO ISZERO SWAP2 SWAP1 SWAP2 OR SWAP1 SSTORE POP POP JUMP JUMPDEST PUSH2 0x2CA2 DUP3 PUSH2 0x2CFE JUMP JUMPDEST ISZERO PUSH2 0x2CF5 JUMPI PUSH1 0x40 DUP1 MLOAD DUP2 DUP2 MSTORE PUSH1 0x4 SWAP2 DUP2 ADD SWAP2 SWAP1 SWAP2 MSTORE PUSH4 0x44726177 PUSH1 0xE0 SHL PUSH1 0x60 DUP3 ADD MSTORE PUSH1 0x20 DUP2 ADD DUP4 SWAP1 MSTORE PUSH32 0x938A1C44580C51D01225D61FB97878104148B1CDC734EB45BC5B5B50533A492D SWAP1 PUSH1 0x80 ADD PUSH2 0x2C59 JUMP JUMPDEST PUSH2 0x134E DUP3 PUSH2 0x2D92 JUMP JUMPDEST PUSH1 0x0 DUP1 JUMPDEST PUSH1 0x7 DUP4 DUP2 SLOAD DUP2 LT PUSH2 0x2D15 JUMPI PUSH2 0x2D15 PUSH2 0x37BA JUMP JUMPDEST SWAP1 PUSH1 0x0 MSTORE PUSH1 0x20 PUSH1 0x0 KECCAK256 SWAP1 PUSH1 0xB MUL ADD PUSH1 0x2 ADD DUP1 SLOAD SWAP1 POP DUP2 LT ISZERO PUSH2 0x2D89 JUMPI PUSH2 0x2D69 PUSH1 0x7 DUP5 DUP2 SLOAD DUP2 LT PUSH2 0x2D47 JUMPI PUSH2 0x2D47 PUSH2 0x37BA JUMP JUMPDEST SWAP1 PUSH1 0x0 MSTORE PUSH1 0x20 PUSH1 0x0 KECCAK256 SWAP1 PUSH1 0xB MUL ADD PUSH1 0x2 ADD DUP3 DUP2 SLOAD DUP2 LT PUSH2 0xFD2 JUMPI PUSH2 0xFD2 PUSH2 0x37BA JUMP JUMPDEST ISZERO PUSH2 0x2D77 JUMPI POP PUSH1 0x0 SWAP3 SWAP2 POP POP JUMP JUMPDEST DUP1 PUSH2 0x2D81 DUP2 PUSH2 0x37D0 JUMP JUMPDEST SWAP2 POP POP PUSH2 0x2D02 JUMP JUMPDEST POP PUSH1 0x1 SWAP3 SWAP2 POP POP JUMP JUMPDEST PUSH2 0x2DA8 PUSH1 0x7 DUP3 DUP2 SLOAD DUP2 LT PUSH2 0x10CC JUMPI PUSH2 0x10CC PUSH2 0x37BA JUMP JUMPDEST ISZERO PUSH2 0x2E1B JUMPI PUSH32 0xEEFC3FD775B975165C9D067E02FCD5BF5889D58041AE6DDAF94F2CC853007272 PUSH1 0x7 DUP3 DUP2 SLOAD DUP2 LT PUSH2 0x2DE1 JUMPI PUSH2 0x2DE1 PUSH2 0x37BA JUMP JUMPDEST PUSH1 0x0 SWAP2 DUP3 MSTORE PUSH1 0x20 SWAP2 DUP3 SWAP1 KECCAK256 PUSH1 0xB SWAP1 SWAP2 MUL ADD PUSH1 0x5 ADD SLOAD PUSH1 0x40 DUP1 MLOAD PUSH1 0x1 PUSH1 0x1 PUSH1 0xA0 SHL SUB SWAP1 SWAP3 AND DUP3 MSTORE SWAP2 DUP2 ADD DUP5 SWAP1 MSTORE ADD PUSH1 0x40 MLOAD DUP1 SWAP2 SUB SWAP1 LOG1 PUSH2 0x2E85 JUMP JUMPDEST PUSH32 0xEEFC3FD775B975165C9D067E02FCD5BF5889D58041AE6DDAF94F2CC853007272 PUSH1 0x7 DUP3 DUP2 SLOAD DUP2 LT PUSH2 0x2E4F JUMPI PUSH2 0x2E4F PUSH2 0x37BA JUMP JUMPDEST PUSH1 0x0 SWAP2 DUP3 MSTORE PUSH1 0x20 SWAP2 DUP3 SWAP1 KECCAK256 PUSH1 0xB SWAP1 SWAP2 MUL ADD PUSH1 0x4 ADD SLOAD PUSH1 0x40 DUP1 MLOAD PUSH1 0x1 PUSH1 0x1 PUSH1 0xA0 SHL SUB SWAP1 SWAP3 AND DUP3 MSTORE SWAP2 DUP2 ADD DUP5 SWAP1 MSTORE ADD PUSH1 0x40 MLOAD DUP1 SWAP2 SUB SWAP1 LOG1 JUMPDEST PUSH2 0x2E9B PUSH1 0x7 DUP3 DUP2 SLOAD DUP2 LT PUSH2 0x10CC JUMPI PUSH2 0x10CC PUSH2 0x37BA JUMP JUMPDEST PUSH2 0x2EBE JUMPI PUSH1 0x40 MLOAD DUP1 PUSH1 0x40 ADD PUSH1 0x40 MSTORE DUP1 PUSH1 0x1 DUP2 MSTORE PUSH1 0x20 ADD PUSH1 0xB PUSH1 0xFB SHL DUP2 MSTORE POP PUSH2 0x2ED9 JUMP JUMPDEST PUSH1 0x40 MLOAD DUP1 PUSH1 0x40 ADD PUSH1 0x40 MSTORE DUP1 PUSH1 0x1 DUP2 MSTORE PUSH1 0x20 ADD PUSH1 0x4F PUSH1 0xF8 SHL DUP2 MSTORE POP JUMPDEST PUSH1 0x7 DUP3 DUP2 SLOAD DUP2 LT PUSH2 0x2EEC JUMPI PUSH2 0x2EEC PUSH2 0x37BA JUMP JUMPDEST SWAP1 PUSH1 0x0 MSTORE PUSH1 0x20 PUSH1 0x0 KECCAK256 SWAP1 PUSH1 0xB MUL ADD PUSH1 0x1 ADD SWAP1 DUP2 PUSH2 0x2F09 SWAP2 SWAP1 PUSH2 0x36FA JUMP JUMPDEST POP PUSH32 0xA6D1CB5F730B987124C37C3876130FDDBA49456449948EC4257360F5AB2851C0 PUSH1 0x7 DUP3 DUP2 SLOAD DUP2 LT PUSH2 0x2F3E JUMPI PUSH2 0x2F3E PUSH2 0x37BA JUMP JUMPDEST SWAP1 PUSH1 0x0 MSTORE PUSH1 0x20 PUSH1 0x0 KECCAK256 SWAP1 PUSH1 0xB MUL ADD PUSH1 0x1 ADD DUP3 PUSH1 0x40 MLOAD PUSH2 0xF1C SWAP3 SWAP2 SWAP1 PUSH2 0x3AED JUMP JUMPDEST PUSH1 0x40 MLOAD DUP1 PUSH2 0x160 ADD PUSH1 0x40 MSTORE DUP1 PUSH1 0x0 ISZERO ISZERO DUP2 MSTORE PUSH1 0x20 ADD PUSH1 0x60 DUP2 MSTORE PUSH1 0x20 ADD PUSH1 0x60 DUP2 MSTORE PUSH1 0x20 ADD PUSH1 0x60 DUP2 MSTORE PUSH1 0x20 ADD PUSH1 0x0 PUSH1 0x1 PUSH1 0x1 PUSH1 0xA0 SHL SUB AND DUP2 MSTORE PUSH1 0x20 ADD PUSH1 0x0 PUSH1 0x1 PUSH1 0x1 PUSH1 0xA0 SHL SUB AND DUP2 MSTORE PUSH1 0x20 ADD PUSH1 0x0 DUP2 MSTORE PUSH1 0x20 ADD PUSH1 0x0 PUSH1 0x1 PUSH1 0x1 PUSH1 0xA0 SHL SUB AND DUP2 MSTORE PUSH1 0x20 ADD PUSH1 0x0 DUP2 MSTORE PUSH1 0x20 ADD PUSH1 0x0 DUP2 MSTORE PUSH1 0x20 ADD PUSH1 0x0 DUP2 MSTORE POP SWAP1 JUMP JUMPDEST DUP3 DUP1 SLOAD DUP3 DUP3 SSTORE SWAP1 PUSH1 0x0 MSTORE PUSH1 0x20 PUSH1 0x0 KECCAK256 SWAP1 DUP2 ADD SWAP3 DUP3 ISZERO PUSH2 0x301B JUMPI SWAP2 PUSH1 0x20 MUL DUP3 ADD JUMPDEST DUP3 DUP2 GT ISZERO PUSH2 0x301B JUMPI DUP3 MLOAD DUP3 SWAP1 PUSH2 0x300B SWAP1 DUP3 PUSH2 0x36FA JUMP JUMPDEST POP SWAP2 PUSH1 0x20 ADD SWAP2 SWAP1 PUSH1 0x1 ADD SWAP1 PUSH2 0x2FF5 JUMP JUMPDEST POP PUSH2 0x3027 SWAP3 SWAP2 POP PUSH2 0x30B8 JUMP JUMPDEST POP SWAP1 JUMP JUMPDEST DUP3 DUP1 SLOAD DUP3 DUP3 SSTORE SWAP1 PUSH1 0x0 MSTORE PUSH1 0x20 PUSH1 0x0 KECCAK256 SWAP1 DUP2 ADD SWAP3 DUP3 ISZERO PUSH2 0x3066 JUMPI SWAP2 PUSH1 0x20 MUL DUP3 ADD JUMPDEST DUP3 DUP2 GT ISZERO PUSH2 0x3066 JUMPI DUP3 MLOAD DUP3 SSTORE SWAP2 PUSH1 0x20 ADD SWAP2 SWAP1 PUSH1 0x1 ADD SWAP1 PUSH2 0x304B JUMP JUMPDEST POP PUSH2 0x3027 SWAP3 SWAP2 POP PUSH2 0x30D5 JUMP JUMPDEST DUP3 DUP1 SLOAD DUP3 DUP3 SSTORE SWAP1 PUSH1 0x0 MSTORE PUSH1 0x20 PUSH1 0x0 KECCAK256 SWAP1 DUP2 ADD SWAP3 DUP3 ISZERO PUSH2 0x301B JUMPI SWAP2 PUSH1 0x20 MUL DUP3 ADD JUMPDEST DUP3 DUP2 GT ISZERO PUSH2 0x301B JUMPI DUP3 MLOAD DUP3 SWAP1 PUSH2 0x30A8 SWAP1 DUP3 PUSH2 0x36FA JUMP JUMPDEST POP SWAP2 PUSH1 0x20 ADD SWAP2 SWAP1 PUSH1 0x1 ADD SWAP1 PUSH2 0x3092 JUMP JUMPDEST DUP1 DUP3 GT ISZERO PUSH2 0x3027 JUMPI PUSH1 0x0 PUSH2 0x30CC DUP3 DUP3 PUSH2 0x30EA JUMP JUMPDEST POP PUSH1 0x1 ADD PUSH2 0x30B8 JUMP JUMPDEST JUMPDEST DUP1 DUP3 GT ISZERO PUSH2 0x3027 JUMPI PUSH1 0x0 DUP2 SSTORE PUSH1 0x1 ADD PUSH2 0x30D6 JUMP JUMPDEST POP DUP1 SLOAD PUSH2 0x30F6 SWAP1 PUSH2 0x3671 JUMP JUMPDEST PUSH1 0x0 DUP3 SSTORE DUP1 PUSH1 0x1F LT PUSH2 0x3106 JUMPI POP POP JUMP JUMPDEST PUSH1 0x1F ADD PUSH1 0x20 SWAP1 DIV SWAP1 PUSH1 0x0 MSTORE PUSH1 0x20 PUSH1 0x0 KECCAK256 SWAP1 DUP2 ADD SWAP1 PUSH2 0xB13 SWAP2 SWAP1 PUSH2 0x30D5 JUMP JUMPDEST PUSH1 0x0 PUSH1 0x20 DUP3 DUP5 SUB SLT ISZERO PUSH2 0x3136 JUMPI PUSH1 0x0 DUP1 REVERT JUMPDEST POP CALLDATALOAD SWAP2 SWAP1 POP JUMP JUMPDEST PUSH1 0x20 DUP1 DUP3 MSTORE DUP3 MLOAD DUP3 DUP3 ADD DUP2 SWAP1 MSTORE PUSH1 0x0 SWAP2 SWAP1 DUP5 DUP3 ADD SWAP1 PUSH1 0x40 DUP6 ADD SWAP1 DUP5 JUMPDEST DUP2 DUP2 LT ISZERO PUSH2 0x3175 JUMPI DUP4 MLOAD DUP4 MSTORE SWAP3 DUP5 ADD SWAP3 SWAP2 DUP5 ADD SWAP2 PUSH1 0x1 ADD PUSH2 0x3159 JUMP JUMPDEST POP SWAP1 SWAP7 SWAP6 POP POP POP POP POP POP JUMP JUMPDEST PUSH1 0x0 JUMPDEST DUP4 DUP2 LT ISZERO PUSH2 0x319C JUMPI DUP2 DUP2 ADD MLOAD DUP4 DUP3 ADD MSTORE PUSH1 0x20 ADD PUSH2 0x3184 JUMP JUMPDEST POP POP PUSH1 0x0 SWAP2 ADD MSTORE JUMP JUMPDEST PUSH1 0x0 DUP2 MLOAD DUP1 DUP5 MSTORE PUSH2 0x31BD DUP2 PUSH1 0x20 DUP7 ADD PUSH1 0x20 DUP7 ADD PUSH2 0x3181 JUMP JUMPDEST PUSH1 0x1F ADD PUSH1 0x1F NOT AND SWAP3 SWAP1 SWAP3 ADD PUSH1 0x20 ADD SWAP3 SWAP2 POP POP JUMP JUMPDEST PUSH1 0x0 DUP3 DUP3 MLOAD DUP1 DUP6 MSTORE PUSH1 0x20 DUP1 DUP7 ADD SWAP6 POP DUP1 DUP3 PUSH1 0x5 SHL DUP5 ADD ADD DUP2 DUP7 ADD PUSH1 0x0 JUMPDEST DUP5 DUP2 LT ISZERO PUSH2 0x321C JUMPI PUSH1 0x1F NOT DUP7 DUP5 SUB ADD DUP10 MSTORE PUSH2 0x320A DUP4 DUP4 MLOAD PUSH2 0x31A5 JUMP JUMPDEST SWAP9 DUP5 ADD SWAP9 SWAP3 POP SWAP1 DUP4 ADD SWAP1 PUSH1 0x1 ADD PUSH2 0x31EE JUMP JUMPDEST POP SWAP1 SWAP8 SWAP7 POP POP POP POP POP POP POP JUMP JUMPDEST PUSH1 0x0 DUP2 MLOAD DUP1 DUP5 MSTORE PUSH1 0x20 DUP1 DUP6 ADD SWAP5 POP DUP1 DUP5 ADD PUSH1 0x0 JUMPDEST DUP4 DUP2 LT ISZERO PUSH2 0x3259 JUMPI DUP2 MLOAD DUP8 MSTORE SWAP6 DUP3 ADD SWAP6 SWAP1 DUP3 ADD SWAP1 PUSH1 0x1 ADD PUSH2 0x323D JUMP JUMPDEST POP SWAP5 SWAP6 SWAP5 POP POP POP POP POP JUMP JUMPDEST DUP1 MLOAD ISZERO ISZERO DUP3 MSTORE PUSH1 0x0 PUSH2 0x160 PUSH1 0x20 DUP4 ADD MLOAD DUP2 PUSH1 0x20 DUP7 ADD MSTORE PUSH2 0x3286 DUP3 DUP7 ADD DUP3 PUSH2 0x31A5 JUMP JUMPDEST SWAP2 POP POP PUSH1 0x40 DUP4 ADD MLOAD DUP5 DUP3 SUB PUSH1 0x40 DUP7 ADD MSTORE PUSH2 0x32A0 DUP3 DUP3 PUSH2 0x31D1 JUMP JUMPDEST SWAP2 POP POP PUSH1 0x60 DUP4 ADD MLOAD DUP5 DUP3 SUB PUSH1 0x60 DUP7 ADD MSTORE PUSH2 0x32BA DUP3 DUP3 PUSH2 0x3229 JUMP JUMPDEST SWAP2 POP POP PUSH1 0x80 DUP4 ADD MLOAD PUSH2 0x32D7 PUSH1 0x80 DUP7 ADD DUP3 PUSH1 0x1 PUSH1 0x1 PUSH1 0xA0 SHL SUB AND SWAP1 MSTORE JUMP JUMPDEST POP PUSH1 0xA0 DUP4 ADD MLOAD PUSH2 0x32F2 PUSH1 0xA0 DUP7 ADD DUP3 PUSH1 0x1 PUSH1 0x1 PUSH1 0xA0 SHL SUB AND SWAP1 MSTORE JUMP JUMPDEST POP PUSH1 0xC0 DUP4 ADD MLOAD PUSH1 0xC0 DUP6 ADD MSTORE PUSH1 0xE0 DUP4 ADD MLOAD PUSH2 0x3317 PUSH1 0xE0 DUP7 ADD DUP3 PUSH1 0x1 PUSH1 0x1 PUSH1 0xA0 SHL SUB AND SWAP1 MSTORE JUMP JUMPDEST POP PUSH2 0x100 DUP4 DUP2 ADD MLOAD SWAP1 DUP6 ADD MSTORE PUSH2 0x120 DUP1 DUP5 ADD MLOAD SWAP1 DUP6 ADD MSTORE PUSH2 0x140 SWAP3 DUP4 ADD MLOAD SWAP3 SWAP1 SWAP4 ADD SWAP2 SWAP1 SWAP2 MSTORE POP SWAP1 JUMP JUMPDEST PUSH1 0x0 PUSH1 0x20 DUP1 DUP4 ADD DUP2 DUP5 MSTORE DUP1 DUP6 MLOAD DUP1 DUP4 MSTORE PUSH1 0x40 DUP7 ADD SWAP2 POP PUSH1 0x40 DUP2 PUSH1 0x5 SHL DUP8 ADD ADD SWAP3 POP DUP4 DUP8 ADD PUSH1 0x0 JUMPDEST DUP3 DUP2 LT ISZERO PUSH2 0x3396 JUMPI PUSH1 0x3F NOT DUP9 DUP7 SUB ADD DUP5 MSTORE PUSH2 0x3384 DUP6 DUP4 MLOAD PUSH2 0x3264 JUMP JUMPDEST SWAP5 POP SWAP3 DUP6 ADD SWAP3 SWAP1 DUP6 ADD SWAP1 PUSH1 0x1 ADD PUSH2 0x3368 JUMP JUMPDEST POP SWAP3 SWAP8 SWAP7 POP POP POP POP POP POP POP JUMP JUMPDEST PUSH1 0x0 DUP1 PUSH1 0x40 DUP4 DUP6 SUB SLT ISZERO PUSH2 0x33B6 JUMPI PUSH1 0x0 DUP1 REVERT JUMPDEST POP POP DUP1 CALLDATALOAD SWAP3 PUSH1 0x20 SWAP1 SWAP2 ADD CALLDATALOAD SWAP2 POP JUMP JUMPDEST PUSH1 0x0 PUSH2 0x120 DUP12 ISZERO ISZERO DUP4 MSTORE DUP1 PUSH1 0x20 DUP5 ADD MSTORE PUSH2 0x33E1 DUP2 DUP5 ADD DUP13 PUSH2 0x31A5 JUMP JUMPDEST PUSH1 0x1 PUSH1 0x1 PUSH1 0xA0 SHL SUB SWAP11 DUP12 AND PUSH1 0x40 DUP6 ADD MSTORE SWAP9 DUP11 AND PUSH1 0x60 DUP5 ADD MSTORE POP POP PUSH1 0x80 DUP2 ADD SWAP6 SWAP1 SWAP6 MSTORE SWAP3 SWAP1 SWAP6 AND PUSH1 0xA0 DUP5 ADD MSTORE PUSH1 0xC0 DUP4 ADD MSTORE PUSH1 0xE0 DUP3 ADD SWAP4 SWAP1 SWAP4 MSTORE PUSH2 0x100 ADD SWAP2 SWAP1 SWAP2 MSTORE SWAP3 SWAP2 POP POP JUMP JUMPDEST PUSH1 0x20 DUP2 MSTORE PUSH1 0x0 PUSH2 0x343A PUSH1 0x20 DUP4 ADD DUP5 PUSH2 0x3264 JUMP JUMPDEST SWAP4 SWAP3 POP POP POP JUMP JUMPDEST PUSH4 0x4E487B71 PUSH1 0xE0 SHL PUSH1 0x0 MSTORE PUSH1 0x41 PUSH1 0x4 MSTORE PUSH1 0x24 PUSH1 0x0 REVERT JUMPDEST PUSH1 0x0 DUP3 PUSH1 0x1F DUP4 ADD SLT PUSH2 0x3468 JUMPI PUSH1 0x0 DUP1 REVERT JUMPDEST DUP2 CALLDATALOAD PUSH8 0xFFFFFFFFFFFFFFFF DUP1 DUP3 GT ISZERO PUSH2 0x3483 JUMPI PUSH2 0x3483 PUSH2 0x3441 JUMP JUMPDEST PUSH1 0x40 MLOAD PUSH1 0x1F DUP4 ADD PUSH1 0x1F NOT SWAP1 DUP2 AND PUSH1 0x3F ADD AND DUP2 ADD SWAP1 DUP3 DUP3 GT DUP2 DUP4 LT OR ISZERO PUSH2 0x34AB JUMPI PUSH2 0x34AB PUSH2 0x3441 JUMP JUMPDEST DUP2 PUSH1 0x40 MSTORE DUP4 DUP2 MSTORE DUP7 PUSH1 0x20 DUP6 DUP9 ADD ADD GT ISZERO PUSH2 0x34C4 JUMPI PUSH1 0x0 DUP1 REVERT JUMPDEST DUP4 PUSH1 0x20 DUP8 ADD PUSH1 0x20 DUP4 ADD CALLDATACOPY PUSH1 0x0 PUSH1 0x20 DUP6 DUP4 ADD ADD MSTORE DUP1 SWAP5 POP POP POP POP POP SWAP3 SWAP2 POP POP JUMP JUMPDEST PUSH1 0x0 DUP1 PUSH1 0x40 DUP4 DUP6 SUB SLT ISZERO PUSH2 0x34F7 JUMPI PUSH1 0x0 DUP1 REVERT JUMPDEST DUP3 CALLDATALOAD PUSH8 0xFFFFFFFFFFFFFFFF DUP1 DUP3 GT ISZERO PUSH2 0x350F JUMPI PUSH1 0x0 DUP1 REVERT JUMPDEST PUSH2 0x351B DUP7 DUP4 DUP8 ADD PUSH2 0x3457 JUMP JUMPDEST SWAP4 POP PUSH1 0x20 DUP6 ADD CALLDATALOAD SWAP2 POP DUP1 DUP3 GT ISZERO PUSH2 0x3531 JUMPI PUSH1 0x0 DUP1 REVERT JUMPDEST POP PUSH2 0x353E DUP6 DUP3 DUP7 ADD PUSH2 0x3457 JUMP JUMPDEST SWAP2 POP POP SWAP3 POP SWAP3 SWAP1 POP JUMP JUMPDEST PUSH1 0x0 PUSH1 0x20 DUP1 DUP4 ADD DUP2 DUP5 MSTORE DUP1 DUP6 MLOAD DUP1 DUP4 MSTORE PUSH1 0x40 DUP7 ADD SWAP2 POP PUSH1 0x40 DUP2 PUSH1 0x5 SHL DUP8 ADD ADD SWAP3 POP DUP4 DUP8 ADD PUSH1 0x0 JUMPDEST DUP3 DUP2 LT ISZERO PUSH2 0x3396 JUMPI PUSH1 0x3F NOT DUP9 DUP7 SUB ADD DUP5 MSTORE PUSH2 0x358B DUP6 DUP4 MLOAD PUSH2 0x31A5 JUMP JUMPDEST SWAP5 POP SWAP3 DUP6 ADD SWAP3 SWAP1 DUP6 ADD SWAP1 PUSH1 0x1 ADD PUSH2 0x356F JUMP JUMPDEST PUSH1 0x0 PUSH1 0x20 DUP3 DUP5 SUB SLT ISZERO PUSH2 0x35AF JUMPI PUSH1 0x0 DUP1 REVERT JUMPDEST POP MLOAD SWAP2 SWAP1 POP JUMP JUMPDEST PUSH4 0x4E487B71 PUSH1 0xE0 SHL PUSH1 0x0 MSTORE PUSH1 0x11 PUSH1 0x4 MSTORE PUSH1 0x24 PUSH1 0x0 REVERT JUMPDEST DUP1 DUP3 MUL DUP2 ISZERO DUP3 DUP3 DIV DUP5 EQ OR PUSH2 0x223B JUMPI PUSH2 0x223B PUSH2 0x35B6 JUMP JUMPDEST PUSH1 0x0 DUP3 PUSH2 0x3600 JUMPI PUSH4 0x4E487B71 PUSH1 0xE0 SHL PUSH1 0x0 MSTORE PUSH1 0x12 PUSH1 0x4 MSTORE PUSH1 0x24 PUSH1 0x0 REVERT JUMPDEST POP DIV SWAP1 JUMP JUMPDEST DUP2 DUP2 SUB DUP2 DUP2 GT ISZERO PUSH2 0x223B JUMPI PUSH2 0x223B PUSH2 0x35B6 JUMP JUMPDEST PUSH1 0x1 PUSH1 0x1 PUSH1 0xA0 SHL SUB SWAP4 DUP5 AND DUP2 MSTORE SWAP2 SWAP1 SWAP3 AND PUSH1 0x20 DUP3 ADD MSTORE PUSH1 0x40 DUP2 ADD SWAP2 SWAP1 SWAP2 MSTORE PUSH1 0x60 ADD SWAP1 JUMP JUMPDEST PUSH1 0x0 PUSH1 0x20 DUP3 DUP5 SUB SLT ISZERO PUSH2 0x364E JUMPI PUSH1 0x0 DUP1 REVERT JUMPDEST DUP2 MLOAD DUP1 ISZERO ISZERO DUP2 EQ PUSH2 0x343A JUMPI PUSH1 0x0 DUP1 REVERT JUMPDEST DUP1 DUP3 ADD DUP1 DUP3 GT ISZERO PUSH2 0x223B JUMPI PUSH2 0x223B PUSH2 0x35B6 JUMP JUMPDEST PUSH1 0x1 DUP2 DUP2 SHR SWAP1 DUP3 AND DUP1 PUSH2 0x3685 JUMPI PUSH1 0x7F DUP3 AND SWAP2 POP JUMPDEST PUSH1 0x20 DUP3 LT DUP2 SUB PUSH2 0x36A5 JUMPI PUSH4 0x4E487B71 PUSH1 0xE0 SHL PUSH1 0x0 MSTORE PUSH1 0x22 PUSH1 0x4 MSTORE PUSH1 0x24 PUSH1 0x0 REVERT JUMPDEST POP SWAP2 SWAP1 POP JUMP JUMPDEST PUSH1 0x1F DUP3 GT ISZERO PUSH2 0x36F5 JUMPI PUSH1 0x0 DUP2 DUP2 MSTORE PUSH1 0x20 DUP2 KECCAK256 PUSH1 0x1F DUP6 ADD PUSH1 0x5 SHR DUP2 ADD PUSH1 0x20 DUP7 LT ISZERO PUSH2 0x36D2 JUMPI POP DUP1 JUMPDEST PUSH1 0x1F DUP6 ADD PUSH1 0x5 SHR DUP3 ADD SWAP2 POP JUMPDEST DUP2 DUP2 LT ISZERO PUSH2 0x36F1 JUMPI DUP3 DUP2 SSTORE PUSH1 0x1 ADD PUSH2 0x36DE JUMP JUMPDEST POP POP POP JUMPDEST POP POP POP JUMP JUMPDEST DUP2 MLOAD PUSH8 0xFFFFFFFFFFFFFFFF DUP2 GT ISZERO PUSH2 0x3714 JUMPI PUSH2 0x3714 PUSH2 0x3441 JUMP JUMPDEST PUSH2 0x3728 DUP2 PUSH2 0x3722 DUP5 SLOAD PUSH2 0x3671 JUMP JUMPDEST DUP5 PUSH2 0x36AB JUMP JUMPDEST PUSH1 0x20 DUP1 PUSH1 0x1F DUP4 GT PUSH1 0x1 DUP2 EQ PUSH2 0x375D JUMPI PUSH1 0x0 DUP5 ISZERO PUSH2 0x3745 JUMPI POP DUP6 DUP4 ADD MLOAD JUMPDEST PUSH1 0x0 NOT PUSH1 0x3 DUP7 SWAP1 SHL SHR NOT AND PUSH1 0x1 DUP6 SWAP1 SHL OR DUP6 SSTORE PUSH2 0x36F1 JUMP JUMPDEST PUSH1 0x0 DUP6 DUP2 MSTORE PUSH1 0x20 DUP2 KECCAK256 PUSH1 0x1F NOT DUP7 AND SWAP2 JUMPDEST DUP3 DUP2 LT ISZERO PUSH2 0x378C JUMPI DUP9 DUP7 ADD MLOAD DUP3 SSTORE SWAP5 DUP5 ADD SWAP5 PUSH1 0x1 SWAP1 SWAP2 ADD SWAP1 DUP5 ADD PUSH2 0x376D JUMP JUMPDEST POP DUP6 DUP3 LT ISZERO PUSH2 0x37AA JUMPI DUP8 DUP6 ADD MLOAD PUSH1 0x0 NOT PUSH1 0x3 DUP9 SWAP1 SHL PUSH1 0xF8 AND SHR NOT AND DUP2 SSTORE JUMPDEST POP POP POP POP POP PUSH1 0x1 SWAP1 DUP2 SHL ADD SWAP1 SSTORE POP JUMP JUMPDEST PUSH4 0x4E487B71 PUSH1 0xE0 SHL PUSH1 0x0 MSTORE PUSH1 0x32 PUSH1 0x4 MSTORE PUSH1 0x24 PUSH1 0x0 REVERT JUMPDEST PUSH1 0x0 PUSH1 0x1 DUP3 ADD PUSH2 0x37E2 JUMPI PUSH2 0x37E2 PUSH2 0x35B6 JUMP JUMPDEST POP PUSH1 0x1 ADD SWAP1 JUMP JUMPDEST DUP2 DUP2 SUB PUSH2 0x37F4 JUMPI POP POP JUMP JUMPDEST PUSH2 0x37FE DUP3 SLOAD PUSH2 0x3671 JUMP JUMPDEST PUSH8 0xFFFFFFFFFFFFFFFF DUP2 GT ISZERO PUSH2 0x3816 JUMPI PUSH2 0x3816 PUSH2 0x3441 JUMP JUMPDEST PUSH2 0x3824 DUP2 PUSH2 0x3722 DUP5 SLOAD PUSH2 0x3671 JUMP JUMPDEST PUSH1 0x0 PUSH1 0x1F DUP3 GT PUSH1 0x1 DUP2 EQ PUSH2 0x3858 JUMPI PUSH1 0x0 DUP4 ISZERO PUSH2 0x3840 JUMPI POP DUP5 DUP3 ADD SLOAD JUMPDEST PUSH1 0x0 NOT PUSH1 0x3 DUP6 SWAP1 SHL SHR NOT AND PUSH1 0x1 DUP5 SWAP1 SHL OR DUP5 SSTORE PUSH2 0x38BD JUMP JUMPDEST PUSH1 0x0 DUP6 DUP2 MSTORE PUSH1 0x20 SWAP1 KECCAK256 PUSH1 0x1F NOT DUP5 AND SWAP1 PUSH1 0x0 DUP7 DUP2 MSTORE PUSH1 0x20 SWAP1 KECCAK256 DUP5 JUMPDEST DUP4 DUP2 LT ISZERO PUSH2 0x3892 JUMPI DUP3 DUP7 ADD SLOAD DUP3 SSTORE PUSH1 0x1 SWAP6 DUP7 ADD SWAP6 SWAP1 SWAP2 ADD SWAP1 PUSH1 0x20 ADD PUSH2 0x3872 JUMP JUMPDEST POP DUP6 DUP4 LT ISZERO PUSH2 0x38B0 JUMPI DUP2 DUP6 ADD SLOAD PUSH1 0x0 NOT PUSH1 0x3 DUP9 SWAP1 SHL PUSH1 0xF8 AND SHR NOT AND DUP2 SSTORE JUMPDEST POP POP POP PUSH1 0x1 DUP4 PUSH1 0x1 SHL ADD DUP5 SSTORE JUMPDEST POP POP POP POP POP JUMP JUMPDEST PUSH1 0x0 DUP2 SLOAD PUSH2 0x38D1 DUP2 PUSH2 0x3671 JUMP JUMPDEST DUP1 DUP6 MSTORE PUSH1 0x20 PUSH1 0x1 DUP4 DUP2 AND DUP1 ISZERO PUSH2 0x38EE JUMPI PUSH1 0x1 DUP2 EQ PUSH2 0x3908 JUMPI PUSH2 0x3936 JUMP JUMPDEST PUSH1 0xFF NOT DUP6 AND DUP9 DUP5 ADD MSTORE DUP4 ISZERO ISZERO PUSH1 0x5 SHL DUP9 ADD DUP4 ADD SWAP6 POP PUSH2 0x3936 JUMP JUMPDEST DUP7 PUSH1 0x0 MSTORE DUP3 PUSH1 0x0 KECCAK256 PUSH1 0x0 JUMPDEST DUP6 DUP2 LT ISZERO PUSH2 0x392E JUMPI DUP2 SLOAD DUP11 DUP3 ADD DUP7 ADD MSTORE SWAP1 DUP4 ADD SWAP1 DUP5 ADD PUSH2 0x3913 JUMP JUMPDEST DUP10 ADD DUP5 ADD SWAP7 POP POP JUMPDEST POP POP POP POP POP SWAP3 SWAP2 POP POP JUMP JUMPDEST PUSH1 0x0 DUP2 SLOAD DUP1 DUP5 MSTORE PUSH1 0x20 DUP1 DUP6 ADD DUP1 DUP2 SWAP7 POP DUP4 PUSH1 0x5 SHL DUP2 ADD SWAP2 POP DUP6 PUSH1 0x0 MSTORE DUP3 PUSH1 0x0 KECCAK256 PUSH1 0x0 JUMPDEST DUP6 DUP2 LT ISZERO PUSH2 0x398D JUMPI DUP3 DUP5 SUB DUP10 MSTORE PUSH2 0x397B DUP5 DUP4 PUSH2 0x38C4 JUMP JUMPDEST SWAP9 DUP6 ADD SWAP9 SWAP4 POP PUSH1 0x1 SWAP2 DUP3 ADD SWAP2 ADD PUSH2 0x3964 JUMP JUMPDEST POP SWAP2 SWAP8 SWAP7 POP POP POP POP POP POP POP JUMP JUMPDEST PUSH1 0x40 DUP2 MSTORE PUSH1 0x0 PUSH2 0x39AD PUSH1 0x40 DUP4 ADD DUP6 PUSH2 0x3941 JUMP JUMPDEST SWAP1 POP DUP3 PUSH1 0x20 DUP4 ADD MSTORE SWAP4 SWAP3 POP POP POP JUMP JUMPDEST PUSH1 0x0 DUP2 SLOAD DUP1 DUP5 MSTORE PUSH1 0x20 DUP1 DUP6 ADD SWAP5 POP DUP4 PUSH1 0x0 MSTORE DUP1 PUSH1 0x0 KECCAK256 PUSH1 0x0 JUMPDEST DUP4 DUP2 LT ISZERO PUSH2 0x3259 JUMPI DUP2 SLOAD DUP8 MSTORE SWAP6 DUP3 ADD SWAP6 PUSH1 0x1 SWAP2 DUP3 ADD SWAP2 ADD PUSH2 0x39D5 JUMP JUMPDEST PUSH1 0x40 DUP2 MSTORE PUSH2 0x3A0D PUSH1 0x40 DUP3 ADD PUSH2 0x3A07 DUP6 SLOAD PUSH1 0xFF AND SWAP1 JUMP JUMPDEST ISZERO ISZERO SWAP1 MSTORE JUMP JUMPDEST PUSH1 0x0 PUSH2 0x160 DUP1 PUSH1 0x60 DUP5 ADD MSTORE PUSH2 0x3A29 PUSH2 0x1A0 DUP5 ADD PUSH1 0x1 DUP8 ADD PUSH2 0x38C4 JUMP JUMPDEST PUSH1 0x3F NOT DUP1 DUP6 DUP4 SUB ADD PUSH1 0x80 DUP7 ADD MSTORE PUSH2 0x3A43 DUP3 PUSH1 0x2 DUP10 ADD PUSH2 0x3941 JUMP JUMPDEST SWAP2 POP DUP1 DUP6 DUP4 SUB ADD PUSH1 0xA0 DUP7 ADD MSTORE POP PUSH2 0x3A5D DUP2 PUSH1 0x3 DUP9 ADD PUSH2 0x39BC JUMP JUMPDEST SWAP1 POP PUSH2 0x3A73 PUSH1 0x4 DUP8 ADD SLOAD PUSH1 0x1 PUSH1 0x1 PUSH1 0xA0 SHL SUB AND SWAP1 JUMP JUMPDEST PUSH1 0x1 PUSH1 0x1 PUSH1 0xA0 SHL SUB SWAP1 DUP2 AND PUSH1 0xC0 DUP7 ADD MSTORE PUSH1 0x5 DUP8 ADD SLOAD DUP2 AND PUSH1 0xE0 DUP7 ADD MSTORE PUSH1 0x6 DUP8 ADD SLOAD PUSH2 0x100 DUP7 ADD MSTORE PUSH1 0x7 DUP8 ADD SLOAD AND PUSH2 0x120 DUP6 ADD MSTORE PUSH1 0x8 DUP7 ADD SLOAD PUSH2 0x140 DUP6 ADD MSTORE PUSH1 0x9 DUP7 ADD SLOAD SWAP2 DUP5 ADD SWAP2 SWAP1 SWAP2 MSTORE PUSH1 0xA SWAP1 SWAP5 ADD SLOAD PUSH2 0x180 DUP4 ADD MSTORE POP PUSH1 0x20 ADD MSTORE SWAP1 JUMP JUMPDEST PUSH1 0x0 DUP3 MLOAD PUSH2 0x3AE3 DUP2 DUP5 PUSH1 0x20 DUP8 ADD PUSH2 0x3181 JUMP JUMPDEST SWAP2 SWAP1 SWAP2 ADD SWAP3 SWAP2 POP POP JUMP JUMPDEST PUSH1 0x40 DUP2 MSTORE PUSH1 0x0 PUSH2 0x39AD PUSH1 0x40 DUP4 ADD DUP6 PUSH2 0x38C4 JUMP INVALID LOG2 PUSH5 0x6970667358 0x22 SLT KECCAK256 0xC2 0x28 0xEB PUSH12 0x1B7490EBD3C10F6D9EA9BEEF 0xB7 CALLDATASIZE 0x2B 0x2D 0x2A STOP 0xDD 0xF9 TIMESTAMP EXTCODECOPY 0x5C RETURNDATACOPY 0xBA 0xD4 SIGNEXTEND 0xDF PUSH5 0x736F6C6343 STOP ADDMOD SGT STOP CALLER "
				},
				"gasEstimates": {
					"creation": {
						"codeDepositCost": "3031600",
						"executionCost": "infinite",
						"totalCost": "infinite"
					},
					"external": {
						"TTTToken()": "2426",
						"burnFee()": "2427",
						"compareStrings(string,string)": "infinite",
						"createGameRoom(uint256)": "infinite",
						"faucetToken()": "infinite",
						"gameInformation(uint256)": "infinite",
						"getAllGameInformation()": "infinite",
						"getAllMoney()": "infinite",
						"getExcessBalance()": "infinite",
						"getFinalWinOption(uint256)": "infinite",
						"getGameInformation(uint256)": "infinite",
						"getoption(uint256)": "infinite",
						"joinGame(uint256,uint256)": "infinite",
						"minBetAmount()": "2405",
						"owner()": "2382",
						"restartGame(uint256)": "infinite",
						"totalAmount()": "2363",
						"treasury()": "2404",
						"treasuryFee()": "2339",
						"userInput(uint256,uint256)": "infinite",
						"validateRestartPlayer(uint256)": "9183"
					},
					"internal": {
						"changePlayer(uint256)": "infinite",
						"checkAddress(uint256)": "8736",
						"checkOptions(uint256)": "infinite",
						"checkWinner(uint256)": "infinite"
					}
				},
				"methodIdentifiers": {
					"TTTToken()": "7effb427",
					"burnFee()": "fce589d8",
					"compareStrings(string,string)": "bed34bba",
					"createGameRoom(uint256)": "06139e8d",
					"faucetToken()": "b7b524a1",
					"gameInformation(uint256)": "87052fab",
					"getAllGameInformation()": "491f0136",
					"getAllMoney()": "edb84ff7",
					"getExcessBalance()": "888b042f",
					"getFinalWinOption(uint256)": "17b44960",
					"getGameInformation(uint256)": "b2182be4",
					"getoption(uint256)": "dc572c6e",
					"joinGame(uint256,uint256)": "b60b9fcb",
					"minBetAmount()": "fa968eea",
					"owner()": "8da5cb5b",
					"restartGame(uint256)": "4a968391",
					"totalAmount()": "1a39d8ef",
					"treasury()": "61d027b3",
					"treasuryFee()": "cc32d176",
					"userInput(uint256,uint256)": "52bc3410",
					"validateRestartPlayer(uint256)": "34fd3518"
				}
			},
			"storageLayout": {
				"storage": [
					{
						"astId": 86,
						"contract": "Practical6-Apply-TTT-Token.sol:TickTackToe",
						"label": "TTTToken",
						"offset": 0,
						"slot": "0",
						"type": "t_contract(IERC20)77"
					},
					{
						"astId": 89,
						"contract": "Practical6-Apply-TTT-Token.sol:TickTackToe",
						"label": "minBetAmount",
						"offset": 0,
						"slot": "1",
						"type": "t_uint256"
					},
					{
						"astId": 92,
						"contract": "Practical6-Apply-TTT-Token.sol:TickTackToe",
						"label": "treasury",
						"offset": 0,
						"slot": "2",
						"type": "t_address"
					},
					{
						"astId": 95,
						"contract": "Practical6-Apply-TTT-Token.sol:TickTackToe",
						"label": "burnFee",
						"offset": 0,
						"slot": "3",
						"type": "t_uint256"
					},
					{
						"astId": 98,
						"contract": "Practical6-Apply-TTT-Token.sol:TickTackToe",
						"label": "treasuryFee",
						"offset": 0,
						"slot": "4",
						"type": "t_uint256"
					},
					{
						"astId": 100,
						"contract": "Practical6-Apply-TTT-Token.sol:TickTackToe",
						"label": "totalAmount",
						"offset": 0,
						"slot": "5",
						"type": "t_uint256"
					},
					{
						"astId": 102,
						"contract": "Practical6-Apply-TTT-Token.sol:TickTackToe",
						"label": "owner",
						"offset": 0,
						"slot": "6",
						"type": "t_address"
					},
					{
						"astId": 104,
						"contract": "Practical6-Apply-TTT-Token.sol:TickTackToe",
						"label": "locked",
						"offset": 20,
						"slot": "6",
						"type": "t_bool"
					},
					{
						"astId": 133,
						"contract": "Practical6-Apply-TTT-Token.sol:TickTackToe",
						"label": "gameInformation",
						"offset": 0,
						"slot": "7",
						"type": "t_array(t_struct(GameInfo)129_storage)dyn_storage"
					},
					{
						"astId": 170,
						"contract": "Practical6-Apply-TTT-Token.sol:TickTackToe",
						"label": "winConditionSet",
						"offset": 0,
						"slot": "8",
						"type": "t_array(t_array(t_uint256)dyn_storage)dyn_storage"
					}
				],
				"types": {
					"t_address": {
						"encoding": "inplace",
						"label": "address",
						"numberOfBytes": "20"
					},
					"t_array(t_array(t_uint256)dyn_storage)dyn_storage": {
						"base": "t_array(t_uint256)dyn_storage",
						"encoding": "dynamic_array",
						"label": "uint256[][]",
						"numberOfBytes": "32"
					},
					"t_array(t_string_storage)dyn_storage": {
						"base": "t_string_storage",
						"encoding": "dynamic_array",
						"label": "string[]",
						"numberOfBytes": "32"
					},
					"t_array(t_struct(GameInfo)129_storage)dyn_storage": {
						"base": "t_struct(GameInfo)129_storage",
						"encoding": "dynamic_array",
						"label": "struct TickTackToe.GameInfo[]",
						"numberOfBytes": "32"
					},
					"t_array(t_uint256)dyn_storage": {
						"base": "t_uint256",
						"encoding": "dynamic_array",
						"label": "uint256[]",
						"numberOfBytes": "32"
					},
					"t_bool": {
						"encoding": "inplace",
						"label": "bool",
						"numberOfBytes": "1"
					},
					"t_contract(IERC20)77": {
						"encoding": "inplace",
						"label": "contract IERC20",
						"numberOfBytes": "20"
					},
					"t_string_storage": {
						"encoding": "bytes",
						"label": "string",
						"numberOfBytes": "32"
					},
					"t_struct(GameInfo)129_storage": {
						"encoding": "inplace",
						"label": "struct TickTackToe.GameInfo",
						"members": [
							{
								"astId": 106,
								"contract": "Practical6-Apply-TTT-Token.sol:TickTackToe",
								"label": "_activate",
								"offset": 0,
								"slot": "0",
								"type": "t_bool"
							},
							{
								"astId": 108,
								"contract": "Practical6-Apply-TTT-Token.sol:TickTackToe",
								"label": "_currentPlayer",
								"offset": 0,
								"slot": "1",
								"type": "t_string_storage"
							},
							{
								"astId": 111,
								"contract": "Practical6-Apply-TTT-Token.sol:TickTackToe",
								"label": "_options",
								"offset": 0,
								"slot": "2",
								"type": "t_array(t_string_storage)dyn_storage"
							},
							{
								"astId": 114,
								"contract": "Practical6-Apply-TTT-Token.sol:TickTackToe",
								"label": "_finalWinOption",
								"offset": 0,
								"slot": "3",
								"type": "t_array(t_uint256)dyn_storage"
							},
							{
								"astId": 116,
								"contract": "Practical6-Apply-TTT-Token.sol:TickTackToe",
								"label": "_player1address",
								"offset": 0,
								"slot": "4",
								"type": "t_address"
							},
							{
								"astId": 118,
								"contract": "Practical6-Apply-TTT-Token.sol:TickTackToe",
								"label": "_player2address",
								"offset": 0,
								"slot": "5",
								"type": "t_address"
							},
							{
								"astId": 120,
								"contract": "Practical6-Apply-TTT-Token.sol:TickTackToe",
								"label": "_playerCount",
								"offset": 0,
								"slot": "6",
								"type": "t_uint256"
							},
							{
								"astId": 122,
								"contract": "Practical6-Apply-TTT-Token.sol:TickTackToe",
								"label": "_winer",
								"offset": 0,
								"slot": "7",
								"type": "t_address"
							},
							{
								"astId": 124,
								"contract": "Practical6-Apply-TTT-Token.sol:TickTackToe",
								"label": "_player1Bet",
								"offset": 0,
								"slot": "8",
								"type": "t_uint256"
							},
							{
								"astId": 126,
								"contract": "Practical6-Apply-TTT-Token.sol:TickTackToe",
								"label": "_player2Bet",
								"offset": 0,
								"slot": "9",
								"type": "t_uint256"
							},
							{
								"astId": 128,
								"contract": "Practical6-Apply-TTT-Token.sol:TickTackToe",
								"label": "_rewardAmount",
								"offset": 0,
								"slot": "10",
								"type": "t_uint256"
							}
						],
						"numberOfBytes": "352"
					},
					"t_uint256": {
						"encoding": "inplace",
						"label": "uint256",
						"numberOfBytes": "32"
					}
				}
			},
			"userdoc": {
				"kind": "user",
				"methods": {},
				"version": 1
			}
		}
	}
}