{
	"Practical1-GuessNumber-Jason.sol": {
		"MyGuessNumberGame": {
			"abi": [
				{
					"inputs": [],
					"name": "getRandomNumber",
					"outputs": [
						{
							"internalType": "uint256",
							"name": "",
							"type": "uint256"
						}
					],
					"stateMutability": "view",
					"type": "function"
				},
				{
					"inputs": [],
					"name": "getnumber",
					"outputs": [],
					"stateMutability": "nonpayable",
					"type": "function"
				},
				{
					"inputs": [
						{
							"internalType": "uint256",
							"name": "guessNumber",
							"type": "uint256"
						}
					],
					"name": "logicCheck",
					"outputs": [
						{
							"internalType": "string",
							"name": "",
							"type": "string"
						}
					],
					"stateMutability": "payable",
					"type": "function"
				},
				{
					"inputs": [],
					"name": "maxNumber",
					"outputs": [
						{
							"internalType": "uint256",
							"name": "",
							"type": "uint256"
						}
					],
					"stateMutability": "view",
					"type": "function"
				},
				{
					"inputs": [],
					"name": "minNumber",
					"outputs": [
						{
							"internalType": "uint256",
							"name": "",
							"type": "uint256"
						}
					],
					"stateMutability": "view",
					"type": "function"
				},
				{
					"inputs": [],
					"name": "number",
					"outputs": [
						{
							"internalType": "uint256",
							"name": "",
							"type": "uint256"
						}
					],
					"stateMutability": "view",
					"type": "function"
				},
				{
					"inputs": [
						{
							"internalType": "uint256",
							"name": "_maxNumber",
							"type": "uint256"
						}
					],
					"name": "setMaxNumber",
					"outputs": [],
					"stateMutability": "nonpayable",
					"type": "function"
				},
				{
					"inputs": [
						{
							"internalType": "uint256",
							"name": "_minNumber",
							"type": "uint256"
						}
					],
					"name": "setMinNumber",
					"outputs": [],
					"stateMutability": "nonpayable",
					"type": "function"
				},
				{
					"inputs": [],
					"name": "targetNumber",
					"outputs": [
						{
							"internalType": "uint256",
							"name": "",
							"type": "uint256"
						}
					],
					"stateMutability": "view",
					"type": "function"
				},
				{
					"inputs": [],
					"name": "treasury",
					"outputs": [
						{
							"internalType": "address payable",
							"name": "",
							"type": "address"
						}
					],
					"stateMutability": "view",
					"type": "function"
				}
			],
			"devdoc": {
				"kind": "dev",
				"methods": {},
				"version": 1
			},
			"evm": {
				"assembly": "    /* \"Practical1-GuessNumber-Jason.sol\":108:2128  contract MyGuessNumberGame {... */\n  mstore(0x40, 0x80)\n    /* \"Practical1-GuessNumber-Jason.sol\":353:395  0xAb8483F64d9C6d1EcF9b849Ae677dD3315835cb2 */\n  0xab8483f64d9c6d1ecf9b849ae677dd3315835cb2\n    /* \"Practical1-GuessNumber-Jason.sol\":302:396  address payable public treasury =... */\n  0x04\n  exp(0x0100, 0x01)\n  dup2\n  sload\n  dup2\n  0xffffffffffffffffffffffffffffffffffffffff\n  mul\n  not\n  and\n  swap1\n  dup4\n  0xffffffffffffffffffffffffffffffffffffffff\n  and\n  mul\n  or\n  swap1\n  sstore\n  pop\n    /* \"Practical1-GuessNumber-Jason.sol\":108:2128  contract MyGuessNumberGame {... */\n  callvalue\n  dup1\n  iszero\n  tag_1\n  jumpi\n  0x00\n  dup1\n  revert\ntag_1:\n  pop\n  dataSize(sub_0)\n  dup1\n  dataOffset(sub_0)\n  0x00\n  codecopy\n  0x00\n  return\nstop\n\nsub_0: assembly {\n        /* \"Practical1-GuessNumber-Jason.sol\":108:2128  contract MyGuessNumberGame {... */\n      mstore(0x40, 0x80)\n      jumpi(tag_1, lt(calldatasize, 0x04))\n      shr(0xe0, calldataload(0x00))\n      dup1\n      0x70a0aa5c\n      gt\n      tag_12\n      jumpi\n      dup1\n      0x70a0aa5c\n      eq\n      tag_7\n      jumpi\n      dup1\n      0x71985c08\n      eq\n      tag_8\n      jumpi\n      dup1\n      0x8381f58a\n      eq\n      tag_9\n      jumpi\n      dup1\n      0x979f6ed0\n      eq\n      tag_10\n      jumpi\n      dup1\n      0xdbdff2c1\n      eq\n      tag_11\n      jumpi\n      jump(tag_1)\n    tag_12:\n      dup1\n      0x1b32ca5d\n      eq\n      tag_2\n      jumpi\n      dup1\n      0x3a4f6999\n      eq\n      tag_3\n      jumpi\n      dup1\n      0x486b7217\n      eq\n      tag_4\n      jumpi\n      dup1\n      0x55b93031\n      eq\n      tag_5\n      jumpi\n      dup1\n      0x61d027b3\n      eq\n      tag_6\n      jumpi\n    tag_1:\n      0x00\n      dup1\n      revert\n        /* \"Practical1-GuessNumber-Jason.sol\":413:503  function setMaxNumber (uint _maxNumber) external {... */\n    tag_2:\n      callvalue\n      dup1\n      iszero\n      tag_13\n      jumpi\n      0x00\n      dup1\n      revert\n    tag_13:\n      pop\n      tag_14\n      0x04\n      dup1\n      calldatasize\n      sub\n      dup2\n      add\n      swap1\n      tag_15\n      swap2\n      swap1\n      tag_16\n      jump\t// in\n    tag_15:\n      tag_17\n      jump\t// in\n    tag_14:\n      stop\n        /* \"Practical1-GuessNumber-Jason.sol\":176:197  uint public maxNumber */\n    tag_3:\n      callvalue\n      dup1\n      iszero\n      tag_18\n      jumpi\n      0x00\n      dup1\n      revert\n    tag_18:\n      pop\n      tag_19\n      tag_20\n      jump\t// in\n    tag_19:\n      mload(0x40)\n      tag_21\n      swap2\n      swap1\n      tag_22\n      jump\t// in\n    tag_21:\n      mload(0x40)\n      dup1\n      swap2\n      sub\n      swap1\n      return\n        /* \"Practical1-GuessNumber-Jason.sol\":1006:1082  function getnumber () external {... */\n    tag_4:\n      callvalue\n      dup1\n      iszero\n      tag_23\n      jumpi\n      0x00\n      dup1\n      revert\n    tag_23:\n      pop\n      tag_24\n      tag_25\n      jump\t// in\n    tag_24:\n      stop\n        /* \"Practical1-GuessNumber-Jason.sol\":204:225  uint public minNumber */\n    tag_5:\n      callvalue\n      dup1\n      iszero\n      tag_26\n      jumpi\n      0x00\n      dup1\n      revert\n    tag_26:\n      pop\n      tag_27\n      tag_28\n      jump\t// in\n    tag_27:\n      mload(0x40)\n      tag_29\n      swap2\n      swap1\n      tag_22\n      jump\t// in\n    tag_29:\n      mload(0x40)\n      dup1\n      swap2\n      sub\n      swap1\n      return\n        /* \"Practical1-GuessNumber-Jason.sol\":302:396  address payable public treasury =... */\n    tag_6:\n      callvalue\n      dup1\n      iszero\n      tag_30\n      jumpi\n      0x00\n      dup1\n      revert\n    tag_30:\n      pop\n      tag_31\n      tag_32\n      jump\t// in\n    tag_31:\n      mload(0x40)\n      tag_33\n      swap2\n      swap1\n      tag_34\n      jump\t// in\n    tag_33:\n      mload(0x40)\n      dup1\n      swap2\n      sub\n      swap1\n      return\n        /* \"Practical1-GuessNumber-Jason.sol\":511:601  function setMinNumber (uint _minNumber) external {... */\n    tag_7:\n      callvalue\n      dup1\n      iszero\n      tag_35\n      jumpi\n      0x00\n      dup1\n      revert\n    tag_35:\n      pop\n      tag_36\n      0x04\n      dup1\n      calldatasize\n      sub\n      dup2\n      add\n      swap1\n      tag_37\n      swap2\n      swap1\n      tag_16\n      jump\t// in\n    tag_37:\n      tag_38\n      jump\t// in\n    tag_36:\n      stop\n        /* \"Practical1-GuessNumber-Jason.sol\":142:169  uint256 public targetNumber */\n    tag_8:\n      callvalue\n      dup1\n      iszero\n      tag_39\n      jumpi\n      0x00\n      dup1\n      revert\n    tag_39:\n      pop\n      tag_40\n      tag_41\n      jump\t// in\n    tag_40:\n      mload(0x40)\n      tag_42\n      swap2\n      swap1\n      tag_22\n      jump\t// in\n    tag_42:\n      mload(0x40)\n      dup1\n      swap2\n      sub\n      swap1\n      return\n        /* \"Practical1-GuessNumber-Jason.sol\":234:252  uint public number */\n    tag_9:\n      callvalue\n      dup1\n      iszero\n      tag_43\n      jumpi\n      0x00\n      dup1\n      revert\n    tag_43:\n      pop\n      tag_44\n      tag_45\n      jump\t// in\n    tag_44:\n      mload(0x40)\n      tag_46\n      swap2\n      swap1\n      tag_22\n      jump\t// in\n    tag_46:\n      mload(0x40)\n      dup1\n      swap2\n      sub\n      swap1\n      return\n        /* \"Practical1-GuessNumber-Jason.sol\":1282:2125  function logicCheck(uint guessNumber) external payable returns (string memory) {... */\n    tag_10:\n      tag_47\n      0x04\n      dup1\n      calldatasize\n      sub\n      dup2\n      add\n      swap1\n      tag_48\n      swap2\n      swap1\n      tag_16\n      jump\t// in\n    tag_48:\n      tag_49\n      jump\t// in\n    tag_47:\n      mload(0x40)\n      tag_50\n      swap2\n      swap1\n      tag_51\n      jump\t// in\n    tag_50:\n      mload(0x40)\n      dup1\n      swap2\n      sub\n      swap1\n      return\n        /* \"Practical1-GuessNumber-Jason.sol\":609:974  function getRandomNumber() public view returns (uint256) {... */\n    tag_11:\n      callvalue\n      dup1\n      iszero\n      tag_52\n      jumpi\n      0x00\n      dup1\n      revert\n    tag_52:\n      pop\n      tag_53\n      tag_54\n      jump\t// in\n    tag_53:\n      mload(0x40)\n      tag_55\n      swap2\n      swap1\n      tag_22\n      jump\t// in\n    tag_55:\n      mload(0x40)\n      dup1\n      swap2\n      sub\n      swap1\n      return\n        /* \"Practical1-GuessNumber-Jason.sol\":413:503  function setMaxNumber (uint _maxNumber) external {... */\n    tag_17:\n        /* \"Practical1-GuessNumber-Jason.sol\":485:495  _maxNumber */\n      dup1\n        /* \"Practical1-GuessNumber-Jason.sol\":473:482  maxNumber */\n      0x01\n        /* \"Practical1-GuessNumber-Jason.sol\":473:495  maxNumber = _maxNumber */\n      dup2\n      swap1\n      sstore\n      pop\n        /* \"Practical1-GuessNumber-Jason.sol\":413:503  function setMaxNumber (uint _maxNumber) external {... */\n      pop\n      jump\t// out\n        /* \"Practical1-GuessNumber-Jason.sol\":176:197  uint public maxNumber */\n    tag_20:\n      sload(0x01)\n      dup2\n      jump\t// out\n        /* \"Practical1-GuessNumber-Jason.sol\":1006:1082  function getnumber () external {... */\n    tag_25:\n        /* \"Practical1-GuessNumber-Jason.sol\":1057:1074  getRandomNumber() */\n      tag_58\n        /* \"Practical1-GuessNumber-Jason.sol\":1057:1072  getRandomNumber */\n      tag_54\n        /* \"Practical1-GuessNumber-Jason.sol\":1057:1074  getRandomNumber() */\n      jump\t// in\n    tag_58:\n        /* \"Practical1-GuessNumber-Jason.sol\":1048:1054  number */\n      0x03\n        /* \"Practical1-GuessNumber-Jason.sol\":1048:1074  number = getRandomNumber() */\n      dup2\n      swap1\n      sstore\n      pop\n        /* \"Practical1-GuessNumber-Jason.sol\":1006:1082  function getnumber () external {... */\n      jump\t// out\n        /* \"Practical1-GuessNumber-Jason.sol\":204:225  uint public minNumber */\n    tag_28:\n      sload(0x02)\n      dup2\n      jump\t// out\n        /* \"Practical1-GuessNumber-Jason.sol\":302:396  address payable public treasury =... */\n    tag_32:\n      0x04\n      0x01\n      swap1\n      sload\n      swap1\n      0x0100\n      exp\n      swap1\n      div\n      0xffffffffffffffffffffffffffffffffffffffff\n      and\n      dup2\n      jump\t// out\n        /* \"Practical1-GuessNumber-Jason.sol\":511:601  function setMinNumber (uint _minNumber) external {... */\n    tag_38:\n        /* \"Practical1-GuessNumber-Jason.sol\":583:593  _minNumber */\n      dup1\n        /* \"Practical1-GuessNumber-Jason.sol\":571:580  minNumber */\n      0x02\n        /* \"Practical1-GuessNumber-Jason.sol\":571:593  minNumber = _minNumber */\n      dup2\n      swap1\n      sstore\n      pop\n        /* \"Practical1-GuessNumber-Jason.sol\":511:601  function setMinNumber (uint _minNumber) external {... */\n      pop\n      jump\t// out\n        /* \"Practical1-GuessNumber-Jason.sol\":142:169  uint256 public targetNumber */\n    tag_41:\n      sload(0x00)\n      dup2\n      jump\t// out\n        /* \"Practical1-GuessNumber-Jason.sol\":234:252  uint public number */\n    tag_45:\n      sload(0x03)\n      dup2\n      jump\t// out\n        /* \"Practical1-GuessNumber-Jason.sol\":1282:2125  function logicCheck(uint guessNumber) external payable returns (string memory) {... */\n    tag_49:\n        /* \"Practical1-GuessNumber-Jason.sol\":1346:1359  string memory */\n      0x60\n        /* \"Practical1-GuessNumber-Jason.sol\":1387:1404  getRandomNumber() */\n      tag_61\n        /* \"Practical1-GuessNumber-Jason.sol\":1387:1402  getRandomNumber */\n      tag_54\n        /* \"Practical1-GuessNumber-Jason.sol\":1387:1404  getRandomNumber() */\n      jump\t// in\n    tag_61:\n        /* \"Practical1-GuessNumber-Jason.sol\":1372:1384  targetNumber */\n      0x00\n        /* \"Practical1-GuessNumber-Jason.sol\":1372:1404  targetNumber = getRandomNumber() */\n      dup2\n      swap1\n      sstore\n      pop\n        /* \"Practical1-GuessNumber-Jason.sol\":1434:1446  targetNumber */\n      sload(0x00)\n        /* \"Practical1-GuessNumber-Jason.sol\":1419:1430  guessNumber */\n      dup3\n        /* \"Practical1-GuessNumber-Jason.sol\":1419:1446  guessNumber == targetNumber */\n      sub\n        /* \"Practical1-GuessNumber-Jason.sol\":1415:1485  if (guessNumber == targetNumber) {... */\n      tag_62\n      jumpi\n        /* \"Practical1-GuessNumber-Jason.sol\":1469:1473  true */\n      0x01\n        /* \"Practical1-GuessNumber-Jason.sol\":1463:1466  win */\n      0x04\n      0x00\n        /* \"Practical1-GuessNumber-Jason.sol\":1463:1473  win = true */\n      0x0100\n      exp\n      dup2\n      sload\n      dup2\n      0xff\n      mul\n      not\n      and\n      swap1\n      dup4\n      iszero\n      iszero\n      mul\n      or\n      swap1\n      sstore\n      pop\n        /* \"Practical1-GuessNumber-Jason.sol\":1415:1485  if (guessNumber == targetNumber) {... */\n    tag_62:\n        /* \"Practical1-GuessNumber-Jason.sol\":1852:1855  win */\n      0x04\n      0x00\n      swap1\n      sload\n      swap1\n      0x0100\n      exp\n      swap1\n      div\n      0xff\n      and\n        /* \"Practical1-GuessNumber-Jason.sol\":1848:2118  if (win) ... */\n      iszero\n      tag_63\n      jumpi\n        /* \"Practical1-GuessNumber-Jason.sol\":1871:1891  return (\"You win!!\") */\n      mload(0x40)\n      dup1\n      0x40\n      add\n      0x40\n      mstore\n      dup1\n      0x09\n      dup2\n      mstore\n      0x20\n      add\n      0x596f752077696e21210000000000000000000000000000000000000000000000\n      dup2\n      mstore\n      pop\n      swap1\n      pop\n      jump(tag_60)\n        /* \"Practical1-GuessNumber-Jason.sol\":1848:2118  if (win) ... */\n    tag_63:\n        /* \"Practical1-GuessNumber-Jason.sol\":1943:1944  0 */\n      0x00\n        /* \"Practical1-GuessNumber-Jason.sol\":1930:1939  msg.value */\n      callvalue\n        /* \"Practical1-GuessNumber-Jason.sol\":1930:1944  msg.value >= 0 */\n      lt\n      iszero\n        /* \"Practical1-GuessNumber-Jason.sol\":1922:1969  require(msg.value >= 0, \"Error: Send 100 wei!\") */\n      tag_65\n      jumpi\n      mload(0x40)\n      0x08c379a000000000000000000000000000000000000000000000000000000000\n      dup2\n      mstore\n      0x04\n      add\n      tag_66\n      swap1\n      tag_67\n      jump\t// in\n    tag_66:\n      mload(0x40)\n      dup1\n      swap2\n      sub\n      swap1\n      revert\n    tag_65:\n        /* \"Practical1-GuessNumber-Jason.sol\":1984:1996  bool success */\n      0x00\n        /* \"Practical1-GuessNumber-Jason.sol\":1999:2007  treasury */\n      0x04\n      0x01\n      swap1\n      sload\n      swap1\n      0x0100\n      exp\n      swap1\n      div\n      0xffffffffffffffffffffffffffffffffffffffff\n      and\n        /* \"Practical1-GuessNumber-Jason.sol\":1999:2012  treasury.send */\n      0xffffffffffffffffffffffffffffffffffffffff\n      and\n        /* \"Practical1-GuessNumber-Jason.sol\":1999:2023  treasury.send(msg.value) */\n      0x08fc\n        /* \"Practical1-GuessNumber-Jason.sol\":2013:2022  msg.value */\n      callvalue\n        /* \"Practical1-GuessNumber-Jason.sol\":1999:2023  treasury.send(msg.value) */\n      swap1\n      dup2\n      iszero\n      mul\n      swap1\n      mload(0x40)\n      0x00\n      mload(0x40)\n      dup1\n      dup4\n      sub\n      dup2\n      dup6\n      dup9\n      dup9\n      call\n      swap4\n      pop\n      pop\n      pop\n      pop\n        /* \"Practical1-GuessNumber-Jason.sol\":1984:2023  bool success = treasury.send(msg.value) */\n      swap1\n      pop\n        /* \"Practical1-GuessNumber-Jason.sol\":2046:2053  success */\n      dup1\n        /* \"Practical1-GuessNumber-Jason.sol\":2038:2072  require(success, \"Failed to send\") */\n      tag_69\n      jumpi\n      mload(0x40)\n      0x08c379a000000000000000000000000000000000000000000000000000000000\n      dup2\n      mstore\n      0x04\n      add\n      tag_70\n      swap1\n      tag_71\n      jump\t// in\n    tag_70:\n      mload(0x40)\n      dup1\n      swap2\n      sub\n      swap1\n      revert\n    tag_69:\n        /* \"Practical1-GuessNumber-Jason.sol\":2087:2106  return (\"You loss\") */\n      mload(0x40)\n      dup1\n      0x40\n      add\n      0x40\n      mstore\n      dup1\n      0x08\n      dup2\n      mstore\n      0x20\n      add\n      0x596f75206c6f7373000000000000000000000000000000000000000000000000\n      dup2\n      mstore\n      pop\n      swap2\n      pop\n      pop\n        /* \"Practical1-GuessNumber-Jason.sol\":1282:2125  function logicCheck(uint guessNumber) external payable returns (string memory) {... */\n    tag_60:\n      swap2\n      swap1\n      pop\n      jump\t// out\n        /* \"Practical1-GuessNumber-Jason.sol\":609:974  function getRandomNumber() public view returns (uint256) {... */\n    tag_54:\n        /* \"Practical1-GuessNumber-Jason.sol\":657:664  uint256 */\n      0x00\n        /* \"Practical1-GuessNumber-Jason.sol\":736:748  uint256 seed */\n      dup1\n        /* \"Practical1-GuessNumber-Jason.sol\":800:815  block.timestamp */\n      timestamp\n        /* \"Practical1-GuessNumber-Jason.sol\":817:829  block.number */\n      number\n        /* \"Practical1-GuessNumber-Jason.sol\":783:830  abi.encodePacked(block.timestamp, block.number) */\n      add(0x20, mload(0x40))\n      tag_73\n      swap3\n      swap2\n      swap1\n      tag_74\n      jump\t// in\n    tag_73:\n      mload(0x40)\n      0x20\n      dup2\n      dup4\n      sub\n      sub\n      dup2\n      mstore\n      swap1\n      0x40\n      mstore\n        /* \"Practical1-GuessNumber-Jason.sol\":773:831  keccak256(abi.encodePacked(block.timestamp, block.number)) */\n      dup1\n      mload\n      swap1\n      0x20\n      add\n      keccak256\n        /* \"Practical1-GuessNumber-Jason.sol\":751:842  uint256(... */\n      0x00\n      shr\n        /* \"Practical1-GuessNumber-Jason.sol\":736:842  uint256 seed = uint256(... */\n      swap1\n      pop\n        /* \"Practical1-GuessNumber-Jason.sol\":957:966  minNumber */\n      sload(0x02)\n        /* \"Practical1-GuessNumber-Jason.sol\":951:952  1 */\n      0x01\n        /* \"Practical1-GuessNumber-Jason.sol\":941:950  minNumber */\n      sload(0x02)\n        /* \"Practical1-GuessNumber-Jason.sol\":931:940  maxNumber */\n      sload(0x01)\n        /* \"Practical1-GuessNumber-Jason.sol\":931:950  maxNumber-minNumber */\n      tag_75\n      swap2\n      swap1\n      tag_76\n      jump\t// in\n    tag_75:\n        /* \"Practical1-GuessNumber-Jason.sol\":931:952  maxNumber-minNumber+1 */\n      tag_77\n      swap2\n      swap1\n      tag_78\n      jump\t// in\n    tag_77:\n        /* \"Practical1-GuessNumber-Jason.sol\":923:927  seed */\n      dup3\n        /* \"Practical1-GuessNumber-Jason.sol\":923:953  seed % (maxNumber-minNumber+1) */\n      tag_79\n      swap2\n      swap1\n      tag_80\n      jump\t// in\n    tag_79:\n        /* \"Practical1-GuessNumber-Jason.sol\":922:966  (seed % (maxNumber-minNumber+1)) + minNumber */\n      tag_81\n      swap2\n      swap1\n      tag_78\n      jump\t// in\n    tag_81:\n        /* \"Practical1-GuessNumber-Jason.sol\":915:966  return (seed % (maxNumber-minNumber+1)) + minNumber */\n      swap2\n      pop\n      pop\n        /* \"Practical1-GuessNumber-Jason.sol\":609:974  function getRandomNumber() public view returns (uint256) {... */\n      swap1\n      jump\t// out\n        /* \"#utility.yul\":88:205   */\n    tag_83:\n        /* \"#utility.yul\":197:198   */\n      0x00\n        /* \"#utility.yul\":194:195   */\n      dup1\n        /* \"#utility.yul\":187:199   */\n      revert\n        /* \"#utility.yul\":334:411   */\n    tag_85:\n        /* \"#utility.yul\":371:378   */\n      0x00\n        /* \"#utility.yul\":400:405   */\n      dup2\n        /* \"#utility.yul\":389:405   */\n      swap1\n      pop\n        /* \"#utility.yul\":334:411   */\n      swap2\n      swap1\n      pop\n      jump\t// out\n        /* \"#utility.yul\":417:539   */\n    tag_86:\n        /* \"#utility.yul\":490:514   */\n      tag_111\n        /* \"#utility.yul\":508:513   */\n      dup2\n        /* \"#utility.yul\":490:514   */\n      tag_85\n      jump\t// in\n    tag_111:\n        /* \"#utility.yul\":483:488   */\n      dup2\n        /* \"#utility.yul\":480:515   */\n      eq\n        /* \"#utility.yul\":470:533   */\n      tag_112\n      jumpi\n        /* \"#utility.yul\":529:530   */\n      0x00\n        /* \"#utility.yul\":526:527   */\n      dup1\n        /* \"#utility.yul\":519:531   */\n      revert\n        /* \"#utility.yul\":470:533   */\n    tag_112:\n        /* \"#utility.yul\":417:539   */\n      pop\n      jump\t// out\n        /* \"#utility.yul\":545:684   */\n    tag_87:\n        /* \"#utility.yul\":591:596   */\n      0x00\n        /* \"#utility.yul\":629:635   */\n      dup2\n        /* \"#utility.yul\":616:636   */\n      calldataload\n        /* \"#utility.yul\":607:636   */\n      swap1\n      pop\n        /* \"#utility.yul\":645:678   */\n      tag_114\n        /* \"#utility.yul\":672:677   */\n      dup2\n        /* \"#utility.yul\":645:678   */\n      tag_86\n      jump\t// in\n    tag_114:\n        /* \"#utility.yul\":545:684   */\n      swap3\n      swap2\n      pop\n      pop\n      jump\t// out\n        /* \"#utility.yul\":690:1019   */\n    tag_16:\n        /* \"#utility.yul\":749:755   */\n      0x00\n        /* \"#utility.yul\":798:800   */\n      0x20\n        /* \"#utility.yul\":786:795   */\n      dup3\n        /* \"#utility.yul\":777:784   */\n      dup5\n        /* \"#utility.yul\":773:796   */\n      sub\n        /* \"#utility.yul\":769:801   */\n      slt\n        /* \"#utility.yul\":766:885   */\n      iszero\n      tag_116\n      jumpi\n        /* \"#utility.yul\":804:883   */\n      tag_117\n      tag_83\n      jump\t// in\n    tag_117:\n        /* \"#utility.yul\":766:885   */\n    tag_116:\n        /* \"#utility.yul\":924:925   */\n      0x00\n        /* \"#utility.yul\":949:1002   */\n      tag_118\n        /* \"#utility.yul\":994:1001   */\n      dup5\n        /* \"#utility.yul\":985:991   */\n      dup3\n        /* \"#utility.yul\":974:983   */\n      dup6\n        /* \"#utility.yul\":970:992   */\n      add\n        /* \"#utility.yul\":949:1002   */\n      tag_87\n      jump\t// in\n    tag_118:\n        /* \"#utility.yul\":939:1002   */\n      swap2\n      pop\n        /* \"#utility.yul\":895:1012   */\n      pop\n        /* \"#utility.yul\":690:1019   */\n      swap3\n      swap2\n      pop\n      pop\n      jump\t// out\n        /* \"#utility.yul\":1025:1143   */\n    tag_88:\n        /* \"#utility.yul\":1112:1136   */\n      tag_120\n        /* \"#utility.yul\":1130:1135   */\n      dup2\n        /* \"#utility.yul\":1112:1136   */\n      tag_85\n      jump\t// in\n    tag_120:\n        /* \"#utility.yul\":1107:1110   */\n      dup3\n        /* \"#utility.yul\":1100:1137   */\n      mstore\n        /* \"#utility.yul\":1025:1143   */\n      pop\n      pop\n      jump\t// out\n        /* \"#utility.yul\":1149:1371   */\n    tag_22:\n        /* \"#utility.yul\":1242:1246   */\n      0x00\n        /* \"#utility.yul\":1280:1282   */\n      0x20\n        /* \"#utility.yul\":1269:1278   */\n      dup3\n        /* \"#utility.yul\":1265:1283   */\n      add\n        /* \"#utility.yul\":1257:1283   */\n      swap1\n      pop\n        /* \"#utility.yul\":1293:1364   */\n      tag_122\n        /* \"#utility.yul\":1361:1362   */\n      0x00\n        /* \"#utility.yul\":1350:1359   */\n      dup4\n        /* \"#utility.yul\":1346:1363   */\n      add\n        /* \"#utility.yul\":1337:1343   */\n      dup5\n        /* \"#utility.yul\":1293:1364   */\n      tag_88\n      jump\t// in\n    tag_122:\n        /* \"#utility.yul\":1149:1371   */\n      swap3\n      swap2\n      pop\n      pop\n      jump\t// out\n        /* \"#utility.yul\":1377:1503   */\n    tag_89:\n        /* \"#utility.yul\":1414:1421   */\n      0x00\n        /* \"#utility.yul\":1454:1496   */\n      0xffffffffffffffffffffffffffffffffffffffff\n        /* \"#utility.yul\":1447:1452   */\n      dup3\n        /* \"#utility.yul\":1443:1497   */\n      and\n        /* \"#utility.yul\":1432:1497   */\n      swap1\n      pop\n        /* \"#utility.yul\":1377:1503   */\n      swap2\n      swap1\n      pop\n      jump\t// out\n        /* \"#utility.yul\":1509:1613   */\n    tag_90:\n        /* \"#utility.yul\":1554:1561   */\n      0x00\n        /* \"#utility.yul\":1583:1607   */\n      tag_125\n        /* \"#utility.yul\":1601:1606   */\n      dup3\n        /* \"#utility.yul\":1583:1607   */\n      tag_89\n      jump\t// in\n    tag_125:\n        /* \"#utility.yul\":1572:1607   */\n      swap1\n      pop\n        /* \"#utility.yul\":1509:1613   */\n      swap2\n      swap1\n      pop\n      jump\t// out\n        /* \"#utility.yul\":1619:1761   */\n    tag_91:\n        /* \"#utility.yul\":1722:1754   */\n      tag_127\n        /* \"#utility.yul\":1748:1753   */\n      dup2\n        /* \"#utility.yul\":1722:1754   */\n      tag_90\n      jump\t// in\n    tag_127:\n        /* \"#utility.yul\":1717:1720   */\n      dup3\n        /* \"#utility.yul\":1710:1755   */\n      mstore\n        /* \"#utility.yul\":1619:1761   */\n      pop\n      pop\n      jump\t// out\n        /* \"#utility.yul\":1767:2021   */\n    tag_34:\n        /* \"#utility.yul\":1876:1880   */\n      0x00\n        /* \"#utility.yul\":1914:1916   */\n      0x20\n        /* \"#utility.yul\":1903:1912   */\n      dup3\n        /* \"#utility.yul\":1899:1917   */\n      add\n        /* \"#utility.yul\":1891:1917   */\n      swap1\n      pop\n        /* \"#utility.yul\":1927:2014   */\n      tag_129\n        /* \"#utility.yul\":2011:2012   */\n      0x00\n        /* \"#utility.yul\":2000:2009   */\n      dup4\n        /* \"#utility.yul\":1996:2013   */\n      add\n        /* \"#utility.yul\":1987:1993   */\n      dup5\n        /* \"#utility.yul\":1927:2014   */\n      tag_91\n      jump\t// in\n    tag_129:\n        /* \"#utility.yul\":1767:2021   */\n      swap3\n      swap2\n      pop\n      pop\n      jump\t// out\n        /* \"#utility.yul\":2027:2126   */\n    tag_92:\n        /* \"#utility.yul\":2079:2085   */\n      0x00\n        /* \"#utility.yul\":2113:2118   */\n      dup2\n        /* \"#utility.yul\":2107:2119   */\n      mload\n        /* \"#utility.yul\":2097:2119   */\n      swap1\n      pop\n        /* \"#utility.yul\":2027:2126   */\n      swap2\n      swap1\n      pop\n      jump\t// out\n        /* \"#utility.yul\":2132:2301   */\n    tag_93:\n        /* \"#utility.yul\":2216:2227   */\n      0x00\n        /* \"#utility.yul\":2250:2256   */\n      dup3\n        /* \"#utility.yul\":2245:2248   */\n      dup3\n        /* \"#utility.yul\":2238:2257   */\n      mstore\n        /* \"#utility.yul\":2290:2294   */\n      0x20\n        /* \"#utility.yul\":2285:2288   */\n      dup3\n        /* \"#utility.yul\":2281:2295   */\n      add\n        /* \"#utility.yul\":2266:2295   */\n      swap1\n      pop\n        /* \"#utility.yul\":2132:2301   */\n      swap3\n      swap2\n      pop\n      pop\n      jump\t// out\n        /* \"#utility.yul\":2307:2553   */\n    tag_94:\n        /* \"#utility.yul\":2388:2389   */\n      0x00\n        /* \"#utility.yul\":2398:2511   */\n    tag_133:\n        /* \"#utility.yul\":2412:2418   */\n      dup4\n        /* \"#utility.yul\":2409:2410   */\n      dup2\n        /* \"#utility.yul\":2406:2419   */\n      lt\n        /* \"#utility.yul\":2398:2511   */\n      iszero\n      tag_135\n      jumpi\n        /* \"#utility.yul\":2497:2498   */\n      dup1\n        /* \"#utility.yul\":2492:2495   */\n      dup3\n        /* \"#utility.yul\":2488:2499   */\n      add\n        /* \"#utility.yul\":2482:2500   */\n      mload\n        /* \"#utility.yul\":2478:2479   */\n      dup2\n        /* \"#utility.yul\":2473:2476   */\n      dup5\n        /* \"#utility.yul\":2469:2480   */\n      add\n        /* \"#utility.yul\":2462:2501   */\n      mstore\n        /* \"#utility.yul\":2434:2436   */\n      0x20\n        /* \"#utility.yul\":2431:2432   */\n      dup2\n        /* \"#utility.yul\":2427:2437   */\n      add\n        /* \"#utility.yul\":2422:2437   */\n      swap1\n      pop\n        /* \"#utility.yul\":2398:2511   */\n      jump(tag_133)\n    tag_135:\n        /* \"#utility.yul\":2545:2546   */\n      0x00\n        /* \"#utility.yul\":2536:2542   */\n      dup5\n        /* \"#utility.yul\":2531:2534   */\n      dup5\n        /* \"#utility.yul\":2527:2543   */\n      add\n        /* \"#utility.yul\":2520:2547   */\n      mstore\n        /* \"#utility.yul\":2369:2553   */\n      pop\n        /* \"#utility.yul\":2307:2553   */\n      pop\n      pop\n      pop\n      jump\t// out\n        /* \"#utility.yul\":2559:2661   */\n    tag_95:\n        /* \"#utility.yul\":2600:2606   */\n      0x00\n        /* \"#utility.yul\":2651:2653   */\n      0x1f\n        /* \"#utility.yul\":2647:2654   */\n      not\n        /* \"#utility.yul\":2642:2644   */\n      0x1f\n        /* \"#utility.yul\":2635:2640   */\n      dup4\n        /* \"#utility.yul\":2631:2645   */\n      add\n        /* \"#utility.yul\":2627:2655   */\n      and\n        /* \"#utility.yul\":2617:2655   */\n      swap1\n      pop\n        /* \"#utility.yul\":2559:2661   */\n      swap2\n      swap1\n      pop\n      jump\t// out\n        /* \"#utility.yul\":2667:3044   */\n    tag_96:\n        /* \"#utility.yul\":2755:2758   */\n      0x00\n        /* \"#utility.yul\":2783:2822   */\n      tag_138\n        /* \"#utility.yul\":2816:2821   */\n      dup3\n        /* \"#utility.yul\":2783:2822   */\n      tag_92\n      jump\t// in\n    tag_138:\n        /* \"#utility.yul\":2838:2909   */\n      tag_139\n        /* \"#utility.yul\":2902:2908   */\n      dup2\n        /* \"#utility.yul\":2897:2900   */\n      dup6\n        /* \"#utility.yul\":2838:2909   */\n      tag_93\n      jump\t// in\n    tag_139:\n        /* \"#utility.yul\":2831:2909   */\n      swap4\n      pop\n        /* \"#utility.yul\":2918:2983   */\n      tag_140\n        /* \"#utility.yul\":2976:2982   */\n      dup2\n        /* \"#utility.yul\":2971:2974   */\n      dup6\n        /* \"#utility.yul\":2964:2968   */\n      0x20\n        /* \"#utility.yul\":2957:2962   */\n      dup7\n        /* \"#utility.yul\":2953:2969   */\n      add\n        /* \"#utility.yul\":2918:2983   */\n      tag_94\n      jump\t// in\n    tag_140:\n        /* \"#utility.yul\":3008:3037   */\n      tag_141\n        /* \"#utility.yul\":3030:3036   */\n      dup2\n        /* \"#utility.yul\":3008:3037   */\n      tag_95\n      jump\t// in\n    tag_141:\n        /* \"#utility.yul\":3003:3006   */\n      dup5\n        /* \"#utility.yul\":2999:3038   */\n      add\n        /* \"#utility.yul\":2992:3038   */\n      swap2\n      pop\n        /* \"#utility.yul\":2759:3044   */\n      pop\n        /* \"#utility.yul\":2667:3044   */\n      swap3\n      swap2\n      pop\n      pop\n      jump\t// out\n        /* \"#utility.yul\":3050:3363   */\n    tag_51:\n        /* \"#utility.yul\":3163:3167   */\n      0x00\n        /* \"#utility.yul\":3201:3203   */\n      0x20\n        /* \"#utility.yul\":3190:3199   */\n      dup3\n        /* \"#utility.yul\":3186:3204   */\n      add\n        /* \"#utility.yul\":3178:3204   */\n      swap1\n      pop\n        /* \"#utility.yul\":3250:3259   */\n      dup2\n        /* \"#utility.yul\":3244:3248   */\n      dup2\n        /* \"#utility.yul\":3240:3260   */\n      sub\n        /* \"#utility.yul\":3236:3237   */\n      0x00\n        /* \"#utility.yul\":3225:3234   */\n      dup4\n        /* \"#utility.yul\":3221:3238   */\n      add\n        /* \"#utility.yul\":3214:3261   */\n      mstore\n        /* \"#utility.yul\":3278:3356   */\n      tag_143\n        /* \"#utility.yul\":3351:3355   */\n      dup2\n        /* \"#utility.yul\":3342:3348   */\n      dup5\n        /* \"#utility.yul\":3278:3356   */\n      tag_96\n      jump\t// in\n    tag_143:\n        /* \"#utility.yul\":3270:3356   */\n      swap1\n      pop\n        /* \"#utility.yul\":3050:3363   */\n      swap3\n      swap2\n      pop\n      pop\n      jump\t// out\n        /* \"#utility.yul\":3369:3539   */\n    tag_97:\n        /* \"#utility.yul\":3509:3531   */\n      0x4572726f723a2053656e64203130302077656921000000000000000000000000\n        /* \"#utility.yul\":3505:3506   */\n      0x00\n        /* \"#utility.yul\":3497:3503   */\n      dup3\n        /* \"#utility.yul\":3493:3507   */\n      add\n        /* \"#utility.yul\":3486:3532   */\n      mstore\n        /* \"#utility.yul\":3369:3539   */\n      pop\n      jump\t// out\n        /* \"#utility.yul\":3545:3911   */\n    tag_98:\n        /* \"#utility.yul\":3687:3690   */\n      0x00\n        /* \"#utility.yul\":3708:3775   */\n      tag_146\n        /* \"#utility.yul\":3772:3774   */\n      0x14\n        /* \"#utility.yul\":3767:3770   */\n      dup4\n        /* \"#utility.yul\":3708:3775   */\n      tag_93\n      jump\t// in\n    tag_146:\n        /* \"#utility.yul\":3701:3775   */\n      swap2\n      pop\n        /* \"#utility.yul\":3784:3877   */\n      tag_147\n        /* \"#utility.yul\":3873:3876   */\n      dup3\n        /* \"#utility.yul\":3784:3877   */\n      tag_97\n      jump\t// in\n    tag_147:\n        /* \"#utility.yul\":3902:3904   */\n      0x20\n        /* \"#utility.yul\":3897:3900   */\n      dup3\n        /* \"#utility.yul\":3893:3905   */\n      add\n        /* \"#utility.yul\":3886:3905   */\n      swap1\n      pop\n        /* \"#utility.yul\":3545:3911   */\n      swap2\n      swap1\n      pop\n      jump\t// out\n        /* \"#utility.yul\":3917:4336   */\n    tag_67:\n        /* \"#utility.yul\":4083:4087   */\n      0x00\n        /* \"#utility.yul\":4121:4123   */\n      0x20\n        /* \"#utility.yul\":4110:4119   */\n      dup3\n        /* \"#utility.yul\":4106:4124   */\n      add\n        /* \"#utility.yul\":4098:4124   */\n      swap1\n      pop\n        /* \"#utility.yul\":4170:4179   */\n      dup2\n        /* \"#utility.yul\":4164:4168   */\n      dup2\n        /* \"#utility.yul\":4160:4180   */\n      sub\n        /* \"#utility.yul\":4156:4157   */\n      0x00\n        /* \"#utility.yul\":4145:4154   */\n      dup4\n        /* \"#utility.yul\":4141:4158   */\n      add\n        /* \"#utility.yul\":4134:4181   */\n      mstore\n        /* \"#utility.yul\":4198:4329   */\n      tag_149\n        /* \"#utility.yul\":4324:4328   */\n      dup2\n        /* \"#utility.yul\":4198:4329   */\n      tag_98\n      jump\t// in\n    tag_149:\n        /* \"#utility.yul\":4190:4329   */\n      swap1\n      pop\n        /* \"#utility.yul\":3917:4336   */\n      swap2\n      swap1\n      pop\n      jump\t// out\n        /* \"#utility.yul\":4342:4506   */\n    tag_99:\n        /* \"#utility.yul\":4482:4498   */\n      0x4661696c656420746f2073656e64000000000000000000000000000000000000\n        /* \"#utility.yul\":4478:4479   */\n      0x00\n        /* \"#utility.yul\":4470:4476   */\n      dup3\n        /* \"#utility.yul\":4466:4480   */\n      add\n        /* \"#utility.yul\":4459:4499   */\n      mstore\n        /* \"#utility.yul\":4342:4506   */\n      pop\n      jump\t// out\n        /* \"#utility.yul\":4512:4878   */\n    tag_100:\n        /* \"#utility.yul\":4654:4657   */\n      0x00\n        /* \"#utility.yul\":4675:4742   */\n      tag_152\n        /* \"#utility.yul\":4739:4741   */\n      0x0e\n        /* \"#utility.yul\":4734:4737   */\n      dup4\n        /* \"#utility.yul\":4675:4742   */\n      tag_93\n      jump\t// in\n    tag_152:\n        /* \"#utility.yul\":4668:4742   */\n      swap2\n      pop\n        /* \"#utility.yul\":4751:4844   */\n      tag_153\n        /* \"#utility.yul\":4840:4843   */\n      dup3\n        /* \"#utility.yul\":4751:4844   */\n      tag_99\n      jump\t// in\n    tag_153:\n        /* \"#utility.yul\":4869:4871   */\n      0x20\n        /* \"#utility.yul\":4864:4867   */\n      dup3\n        /* \"#utility.yul\":4860:4872   */\n      add\n        /* \"#utility.yul\":4853:4872   */\n      swap1\n      pop\n        /* \"#utility.yul\":4512:4878   */\n      swap2\n      swap1\n      pop\n      jump\t// out\n        /* \"#utility.yul\":4884:5303   */\n    tag_71:\n        /* \"#utility.yul\":5050:5054   */\n      0x00\n        /* \"#utility.yul\":5088:5090   */\n      0x20\n        /* \"#utility.yul\":5077:5086   */\n      dup3\n        /* \"#utility.yul\":5073:5091   */\n      add\n        /* \"#utility.yul\":5065:5091   */\n      swap1\n      pop\n        /* \"#utility.yul\":5137:5146   */\n      dup2\n        /* \"#utility.yul\":5131:5135   */\n      dup2\n        /* \"#utility.yul\":5127:5147   */\n      sub\n        /* \"#utility.yul\":5123:5124   */\n      0x00\n        /* \"#utility.yul\":5112:5121   */\n      dup4\n        /* \"#utility.yul\":5108:5125   */\n      add\n        /* \"#utility.yul\":5101:5148   */\n      mstore\n        /* \"#utility.yul\":5165:5296   */\n      tag_155\n        /* \"#utility.yul\":5291:5295   */\n      dup2\n        /* \"#utility.yul\":5165:5296   */\n      tag_100\n      jump\t// in\n    tag_155:\n        /* \"#utility.yul\":5157:5296   */\n      swap1\n      pop\n        /* \"#utility.yul\":4884:5303   */\n      swap2\n      swap1\n      pop\n      jump\t// out\n        /* \"#utility.yul\":5309:5388   */\n    tag_101:\n        /* \"#utility.yul\":5348:5355   */\n      0x00\n        /* \"#utility.yul\":5377:5382   */\n      dup2\n        /* \"#utility.yul\":5366:5382   */\n      swap1\n      pop\n        /* \"#utility.yul\":5309:5388   */\n      swap2\n      swap1\n      pop\n      jump\t// out\n        /* \"#utility.yul\":5394:5551   */\n    tag_102:\n        /* \"#utility.yul\":5499:5544   */\n      tag_158\n        /* \"#utility.yul\":5519:5543   */\n      tag_159\n        /* \"#utility.yul\":5537:5542   */\n      dup3\n        /* \"#utility.yul\":5519:5543   */\n      tag_85\n      jump\t// in\n    tag_159:\n        /* \"#utility.yul\":5499:5544   */\n      tag_101\n      jump\t// in\n    tag_158:\n        /* \"#utility.yul\":5494:5497   */\n      dup3\n        /* \"#utility.yul\":5487:5545   */\n      mstore\n        /* \"#utility.yul\":5394:5551   */\n      pop\n      pop\n      jump\t// out\n        /* \"#utility.yul\":5557:5954   */\n    tag_74:\n        /* \"#utility.yul\":5697:5700   */\n      0x00\n        /* \"#utility.yul\":5712:5787   */\n      tag_161\n        /* \"#utility.yul\":5783:5786   */\n      dup3\n        /* \"#utility.yul\":5774:5780   */\n      dup6\n        /* \"#utility.yul\":5712:5787   */\n      tag_102\n      jump\t// in\n    tag_161:\n        /* \"#utility.yul\":5812:5814   */\n      0x20\n        /* \"#utility.yul\":5807:5810   */\n      dup3\n        /* \"#utility.yul\":5803:5815   */\n      add\n        /* \"#utility.yul\":5796:5815   */\n      swap2\n      pop\n        /* \"#utility.yul\":5825:5900   */\n      tag_162\n        /* \"#utility.yul\":5896:5899   */\n      dup3\n        /* \"#utility.yul\":5887:5893   */\n      dup5\n        /* \"#utility.yul\":5825:5900   */\n      tag_102\n      jump\t// in\n    tag_162:\n        /* \"#utility.yul\":5925:5927   */\n      0x20\n        /* \"#utility.yul\":5920:5923   */\n      dup3\n        /* \"#utility.yul\":5916:5928   */\n      add\n        /* \"#utility.yul\":5909:5928   */\n      swap2\n      pop\n        /* \"#utility.yul\":5945:5948   */\n      dup2\n        /* \"#utility.yul\":5938:5948   */\n      swap1\n      pop\n        /* \"#utility.yul\":5557:5954   */\n      swap4\n      swap3\n      pop\n      pop\n      pop\n      jump\t// out\n        /* \"#utility.yul\":5960:6140   */\n    tag_103:\n        /* \"#utility.yul\":6008:6085   */\n      0x4e487b7100000000000000000000000000000000000000000000000000000000\n        /* \"#utility.yul\":6005:6006   */\n      0x00\n        /* \"#utility.yul\":5998:6086   */\n      mstore\n        /* \"#utility.yul\":6105:6109   */\n      0x11\n        /* \"#utility.yul\":6102:6103   */\n      0x04\n        /* \"#utility.yul\":6095:6110   */\n      mstore\n        /* \"#utility.yul\":6129:6133   */\n      0x24\n        /* \"#utility.yul\":6126:6127   */\n      0x00\n        /* \"#utility.yul\":6119:6134   */\n      revert\n        /* \"#utility.yul\":6146:6340   */\n    tag_76:\n        /* \"#utility.yul\":6186:6190   */\n      0x00\n        /* \"#utility.yul\":6206:6226   */\n      tag_165\n        /* \"#utility.yul\":6224:6225   */\n      dup3\n        /* \"#utility.yul\":6206:6226   */\n      tag_85\n      jump\t// in\n    tag_165:\n        /* \"#utility.yul\":6201:6226   */\n      swap2\n      pop\n        /* \"#utility.yul\":6240:6260   */\n      tag_166\n        /* \"#utility.yul\":6258:6259   */\n      dup4\n        /* \"#utility.yul\":6240:6260   */\n      tag_85\n      jump\t// in\n    tag_166:\n        /* \"#utility.yul\":6235:6260   */\n      swap3\n      pop\n        /* \"#utility.yul\":6284:6285   */\n      dup3\n        /* \"#utility.yul\":6281:6282   */\n      dup3\n        /* \"#utility.yul\":6277:6286   */\n      sub\n        /* \"#utility.yul\":6269:6286   */\n      swap1\n      pop\n        /* \"#utility.yul\":6308:6309   */\n      dup2\n        /* \"#utility.yul\":6302:6306   */\n      dup2\n        /* \"#utility.yul\":6299:6310   */\n      gt\n        /* \"#utility.yul\":6296:6333   */\n      iszero\n      tag_167\n      jumpi\n        /* \"#utility.yul\":6313:6331   */\n      tag_168\n      tag_103\n      jump\t// in\n    tag_168:\n        /* \"#utility.yul\":6296:6333   */\n    tag_167:\n        /* \"#utility.yul\":6146:6340   */\n      swap3\n      swap2\n      pop\n      pop\n      jump\t// out\n        /* \"#utility.yul\":6346:6537   */\n    tag_78:\n        /* \"#utility.yul\":6386:6389   */\n      0x00\n        /* \"#utility.yul\":6405:6425   */\n      tag_170\n        /* \"#utility.yul\":6423:6424   */\n      dup3\n        /* \"#utility.yul\":6405:6425   */\n      tag_85\n      jump\t// in\n    tag_170:\n        /* \"#utility.yul\":6400:6425   */\n      swap2\n      pop\n        /* \"#utility.yul\":6439:6459   */\n      tag_171\n        /* \"#utility.yul\":6457:6458   */\n      dup4\n        /* \"#utility.yul\":6439:6459   */\n      tag_85\n      jump\t// in\n    tag_171:\n        /* \"#utility.yul\":6434:6459   */\n      swap3\n      pop\n        /* \"#utility.yul\":6482:6483   */\n      dup3\n        /* \"#utility.yul\":6479:6480   */\n      dup3\n        /* \"#utility.yul\":6475:6484   */\n      add\n        /* \"#utility.yul\":6468:6484   */\n      swap1\n      pop\n        /* \"#utility.yul\":6503:6506   */\n      dup1\n        /* \"#utility.yul\":6500:6501   */\n      dup3\n        /* \"#utility.yul\":6497:6507   */\n      gt\n        /* \"#utility.yul\":6494:6530   */\n      iszero\n      tag_172\n      jumpi\n        /* \"#utility.yul\":6510:6528   */\n      tag_173\n      tag_103\n      jump\t// in\n    tag_173:\n        /* \"#utility.yul\":6494:6530   */\n    tag_172:\n        /* \"#utility.yul\":6346:6537   */\n      swap3\n      swap2\n      pop\n      pop\n      jump\t// out\n        /* \"#utility.yul\":6543:6723   */\n    tag_104:\n        /* \"#utility.yul\":6591:6668   */\n      0x4e487b7100000000000000000000000000000000000000000000000000000000\n        /* \"#utility.yul\":6588:6589   */\n      0x00\n        /* \"#utility.yul\":6581:6669   */\n      mstore\n        /* \"#utility.yul\":6688:6692   */\n      0x12\n        /* \"#utility.yul\":6685:6686   */\n      0x04\n        /* \"#utility.yul\":6678:6693   */\n      mstore\n        /* \"#utility.yul\":6712:6716   */\n      0x24\n        /* \"#utility.yul\":6709:6710   */\n      0x00\n        /* \"#utility.yul\":6702:6717   */\n      revert\n        /* \"#utility.yul\":6729:6905   */\n    tag_80:\n        /* \"#utility.yul\":6761:6762   */\n      0x00\n        /* \"#utility.yul\":6778:6798   */\n      tag_176\n        /* \"#utility.yul\":6796:6797   */\n      dup3\n        /* \"#utility.yul\":6778:6798   */\n      tag_85\n      jump\t// in\n    tag_176:\n        /* \"#utility.yul\":6773:6798   */\n      swap2\n      pop\n        /* \"#utility.yul\":6812:6832   */\n      tag_177\n        /* \"#utility.yul\":6830:6831   */\n      dup4\n        /* \"#utility.yul\":6812:6832   */\n      tag_85\n      jump\t// in\n    tag_177:\n        /* \"#utility.yul\":6807:6832   */\n      swap3\n      pop\n        /* \"#utility.yul\":6851:6852   */\n      dup3\n        /* \"#utility.yul\":6841:6876   */\n      tag_178\n      jumpi\n        /* \"#utility.yul\":6856:6874   */\n      tag_179\n      tag_104\n      jump\t// in\n    tag_179:\n        /* \"#utility.yul\":6841:6876   */\n    tag_178:\n        /* \"#utility.yul\":6897:6898   */\n      dup3\n        /* \"#utility.yul\":6894:6895   */\n      dup3\n        /* \"#utility.yul\":6890:6899   */\n      mod\n        /* \"#utility.yul\":6885:6899   */\n      swap1\n      pop\n        /* \"#utility.yul\":6729:6905   */\n      swap3\n      swap2\n      pop\n      pop\n      jump\t// out\n\n    auxdata: 0xa2646970667358221220864b649cc0a8c601b8784df87bd722a24e36c9444de2766940b8f1f2ed531ec564736f6c63430008130033\n}\n",
				"bytecode": {
					"linkReferences": {},
					"object": "608060405273ab8483f64d9c6d1ecf9b849ae677dd3315835cb2600460016101000a81548173ffffffffffffffffffffffffffffffffffffffff021916908373ffffffffffffffffffffffffffffffffffffffff16021790555034801561006557600080fd5b50610895806100756000396000f3fe6080604052600436106100915760003560e01c806370a0aa5c1161005957806370a0aa5c1461015757806371985c08146101805780638381f58a146101ab578063979f6ed0146101d6578063dbdff2c11461020657610091565b80631b32ca5d146100965780633a4f6999146100bf578063486b7217146100ea57806355b930311461010157806361d027b31461012c575b600080fd5b3480156100a257600080fd5b506100bd60048036038101906100b891906104de565b610231565b005b3480156100cb57600080fd5b506100d461023b565b6040516100e1919061051a565b60405180910390f35b3480156100f657600080fd5b506100ff610241565b005b34801561010d57600080fd5b50610116610251565b604051610123919061051a565b60405180910390f35b34801561013857600080fd5b50610141610257565b60405161014e9190610576565b60405180910390f35b34801561016357600080fd5b5061017e600480360381019061017991906104de565b61027d565b005b34801561018c57600080fd5b50610195610287565b6040516101a2919061051a565b60405180910390f35b3480156101b757600080fd5b506101c061028d565b6040516101cd919061051a565b60405180910390f35b6101f060048036038101906101eb91906104de565b610293565b6040516101fd9190610621565b60405180910390f35b34801561021257600080fd5b5061021b610438565b604051610228919061051a565b60405180910390f35b8060018190555050565b60015481565b610249610438565b600381905550565b60025481565b600460019054906101000a900473ffffffffffffffffffffffffffffffffffffffff1681565b8060028190555050565b60005481565b60035481565b606061029d610438565b60008190555060005482036102c8576001600460006101000a81548160ff0219169083151502179055505b600460009054906101000a900460ff161561031a576040518060400160405280600981526020017f596f752077696e212100000000000000000000000000000000000000000000008152509050610433565b600034101561035e576040517f08c379a00000000000000000000000000000000000000000000000000000000081526004016103559061068f565b60405180910390fd5b6000600460019054906101000a900473ffffffffffffffffffffffffffffffffffffffff1673ffffffffffffffffffffffffffffffffffffffff166108fc349081150290604051600060405180830381858888f193505050509050806103f9576040517f08c379a00000000000000000000000000000000000000000000000000000000081526004016103f0906106fb565b60405180910390fd5b6040518060400160405280600881526020017f596f75206c6f73730000000000000000000000000000000000000000000000008152509150505b919050565b600080424360405160200161044e92919061073c565b6040516020818303038152906040528051906020012060001c9050600254600160025460015461047e9190610797565b61048891906107cb565b82610493919061082e565b61049d91906107cb565b91505090565b600080fd5b6000819050919050565b6104bb816104a8565b81146104c657600080fd5b50565b6000813590506104d8816104b2565b92915050565b6000602082840312156104f4576104f36104a3565b5b6000610502848285016104c9565b91505092915050565b610514816104a8565b82525050565b600060208201905061052f600083018461050b565b92915050565b600073ffffffffffffffffffffffffffffffffffffffff82169050919050565b600061056082610535565b9050919050565b61057081610555565b82525050565b600060208201905061058b6000830184610567565b92915050565b600081519050919050565b600082825260208201905092915050565b60005b838110156105cb5780820151818401526020810190506105b0565b60008484015250505050565b6000601f19601f8301169050919050565b60006105f382610591565b6105fd818561059c565b935061060d8185602086016105ad565b610616816105d7565b840191505092915050565b6000602082019050818103600083015261063b81846105e8565b905092915050565b7f4572726f723a2053656e64203130302077656921000000000000000000000000600082015250565b600061067960148361059c565b915061068482610643565b602082019050919050565b600060208201905081810360008301526106a88161066c565b9050919050565b7f4661696c656420746f2073656e64000000000000000000000000000000000000600082015250565b60006106e5600e8361059c565b91506106f0826106af565b602082019050919050565b60006020820190508181036000830152610714816106d8565b9050919050565b6000819050919050565b610736610731826104a8565b61071b565b82525050565b60006107488285610725565b6020820191506107588284610725565b6020820191508190509392505050565b7f4e487b7100000000000000000000000000000000000000000000000000000000600052601160045260246000fd5b60006107a2826104a8565b91506107ad836104a8565b92508282039050818111156107c5576107c4610768565b5b92915050565b60006107d6826104a8565b91506107e1836104a8565b92508282019050808211156107f9576107f8610768565b5b92915050565b7f4e487b7100000000000000000000000000000000000000000000000000000000600052601260045260246000fd5b6000610839826104a8565b9150610844836104a8565b925082610854576108536107ff565b5b82820690509291505056fea2646970667358221220864b649cc0a8c601b8784df87bd722a24e36c9444de2766940b8f1f2ed531ec564736f6c63430008130033",
					"opcodes": "PUSH1 0x80 PUSH1 0x40 MSTORE PUSH20 0xAB8483F64D9C6D1ECF9B849AE677DD3315835CB2 PUSH1 0x4 PUSH1 0x1 PUSH2 0x100 EXP DUP2 SLOAD DUP2 PUSH20 0xFFFFFFFFFFFFFFFFFFFFFFFFFFFFFFFFFFFFFFFF MUL NOT AND SWAP1 DUP4 PUSH20 0xFFFFFFFFFFFFFFFFFFFFFFFFFFFFFFFFFFFFFFFF AND MUL OR SWAP1 SSTORE POP CALLVALUE DUP1 ISZERO PUSH2 0x65 JUMPI PUSH1 0x0 DUP1 REVERT JUMPDEST POP PUSH2 0x895 DUP1 PUSH2 0x75 PUSH1 0x0 CODECOPY PUSH1 0x0 RETURN INVALID PUSH1 0x80 PUSH1 0x40 MSTORE PUSH1 0x4 CALLDATASIZE LT PUSH2 0x91 JUMPI PUSH1 0x0 CALLDATALOAD PUSH1 0xE0 SHR DUP1 PUSH4 0x70A0AA5C GT PUSH2 0x59 JUMPI DUP1 PUSH4 0x70A0AA5C EQ PUSH2 0x157 JUMPI DUP1 PUSH4 0x71985C08 EQ PUSH2 0x180 JUMPI DUP1 PUSH4 0x8381F58A EQ PUSH2 0x1AB JUMPI DUP1 PUSH4 0x979F6ED0 EQ PUSH2 0x1D6 JUMPI DUP1 PUSH4 0xDBDFF2C1 EQ PUSH2 0x206 JUMPI PUSH2 0x91 JUMP JUMPDEST DUP1 PUSH4 0x1B32CA5D EQ PUSH2 0x96 JUMPI DUP1 PUSH4 0x3A4F6999 EQ PUSH2 0xBF JUMPI DUP1 PUSH4 0x486B7217 EQ PUSH2 0xEA JUMPI DUP1 PUSH4 0x55B93031 EQ PUSH2 0x101 JUMPI DUP1 PUSH4 0x61D027B3 EQ PUSH2 0x12C JUMPI JUMPDEST PUSH1 0x0 DUP1 REVERT JUMPDEST CALLVALUE DUP1 ISZERO PUSH2 0xA2 JUMPI PUSH1 0x0 DUP1 REVERT JUMPDEST POP PUSH2 0xBD PUSH1 0x4 DUP1 CALLDATASIZE SUB DUP2 ADD SWAP1 PUSH2 0xB8 SWAP2 SWAP1 PUSH2 0x4DE JUMP JUMPDEST PUSH2 0x231 JUMP JUMPDEST STOP JUMPDEST CALLVALUE DUP1 ISZERO PUSH2 0xCB JUMPI PUSH1 0x0 DUP1 REVERT JUMPDEST POP PUSH2 0xD4 PUSH2 0x23B JUMP JUMPDEST PUSH1 0x40 MLOAD PUSH2 0xE1 SWAP2 SWAP1 PUSH2 0x51A JUMP JUMPDEST PUSH1 0x40 MLOAD DUP1 SWAP2 SUB SWAP1 RETURN JUMPDEST CALLVALUE DUP1 ISZERO PUSH2 0xF6 JUMPI PUSH1 0x0 DUP1 REVERT JUMPDEST POP PUSH2 0xFF PUSH2 0x241 JUMP JUMPDEST STOP JUMPDEST CALLVALUE DUP1 ISZERO PUSH2 0x10D JUMPI PUSH1 0x0 DUP1 REVERT JUMPDEST POP PUSH2 0x116 PUSH2 0x251 JUMP JUMPDEST PUSH1 0x40 MLOAD PUSH2 0x123 SWAP2 SWAP1 PUSH2 0x51A JUMP JUMPDEST PUSH1 0x40 MLOAD DUP1 SWAP2 SUB SWAP1 RETURN JUMPDEST CALLVALUE DUP1 ISZERO PUSH2 0x138 JUMPI PUSH1 0x0 DUP1 REVERT JUMPDEST POP PUSH2 0x141 PUSH2 0x257 JUMP JUMPDEST PUSH1 0x40 MLOAD PUSH2 0x14E SWAP2 SWAP1 PUSH2 0x576 JUMP JUMPDEST PUSH1 0x40 MLOAD DUP1 SWAP2 SUB SWAP1 RETURN JUMPDEST CALLVALUE DUP1 ISZERO PUSH2 0x163 JUMPI PUSH1 0x0 DUP1 REVERT JUMPDEST POP PUSH2 0x17E PUSH1 0x4 DUP1 CALLDATASIZE SUB DUP2 ADD SWAP1 PUSH2 0x179 SWAP2 SWAP1 PUSH2 0x4DE JUMP JUMPDEST PUSH2 0x27D JUMP JUMPDEST STOP JUMPDEST CALLVALUE DUP1 ISZERO PUSH2 0x18C JUMPI PUSH1 0x0 DUP1 REVERT JUMPDEST POP PUSH2 0x195 PUSH2 0x287 JUMP JUMPDEST PUSH1 0x40 MLOAD PUSH2 0x1A2 SWAP2 SWAP1 PUSH2 0x51A JUMP JUMPDEST PUSH1 0x40 MLOAD DUP1 SWAP2 SUB SWAP1 RETURN JUMPDEST CALLVALUE DUP1 ISZERO PUSH2 0x1B7 JUMPI PUSH1 0x0 DUP1 REVERT JUMPDEST POP PUSH2 0x1C0 PUSH2 0x28D JUMP JUMPDEST PUSH1 0x40 MLOAD PUSH2 0x1CD SWAP2 SWAP1 PUSH2 0x51A JUMP JUMPDEST PUSH1 0x40 MLOAD DUP1 SWAP2 SUB SWAP1 RETURN JUMPDEST PUSH2 0x1F0 PUSH1 0x4 DUP1 CALLDATASIZE SUB DUP2 ADD SWAP1 PUSH2 0x1EB SWAP2 SWAP1 PUSH2 0x4DE JUMP JUMPDEST PUSH2 0x293 JUMP JUMPDEST PUSH1 0x40 MLOAD PUSH2 0x1FD SWAP2 SWAP1 PUSH2 0x621 JUMP JUMPDEST PUSH1 0x40 MLOAD DUP1 SWAP2 SUB SWAP1 RETURN JUMPDEST CALLVALUE DUP1 ISZERO PUSH2 0x212 JUMPI PUSH1 0x0 DUP1 REVERT JUMPDEST POP PUSH2 0x21B PUSH2 0x438 JUMP JUMPDEST PUSH1 0x40 MLOAD PUSH2 0x228 SWAP2 SWAP1 PUSH2 0x51A JUMP JUMPDEST PUSH1 0x40 MLOAD DUP1 SWAP2 SUB SWAP1 RETURN JUMPDEST DUP1 PUSH1 0x1 DUP2 SWAP1 SSTORE POP POP JUMP JUMPDEST PUSH1 0x1 SLOAD DUP2 JUMP JUMPDEST PUSH2 0x249 PUSH2 0x438 JUMP JUMPDEST PUSH1 0x3 DUP2 SWAP1 SSTORE POP JUMP JUMPDEST PUSH1 0x2 SLOAD DUP2 JUMP JUMPDEST PUSH1 0x4 PUSH1 0x1 SWAP1 SLOAD SWAP1 PUSH2 0x100 EXP SWAP1 DIV PUSH20 0xFFFFFFFFFFFFFFFFFFFFFFFFFFFFFFFFFFFFFFFF AND DUP2 JUMP JUMPDEST DUP1 PUSH1 0x2 DUP2 SWAP1 SSTORE POP POP JUMP JUMPDEST PUSH1 0x0 SLOAD DUP2 JUMP JUMPDEST PUSH1 0x3 SLOAD DUP2 JUMP JUMPDEST PUSH1 0x60 PUSH2 0x29D PUSH2 0x438 JUMP JUMPDEST PUSH1 0x0 DUP2 SWAP1 SSTORE POP PUSH1 0x0 SLOAD DUP3 SUB PUSH2 0x2C8 JUMPI PUSH1 0x1 PUSH1 0x4 PUSH1 0x0 PUSH2 0x100 EXP DUP2 SLOAD DUP2 PUSH1 0xFF MUL NOT AND SWAP1 DUP4 ISZERO ISZERO MUL OR SWAP1 SSTORE POP JUMPDEST PUSH1 0x4 PUSH1 0x0 SWAP1 SLOAD SWAP1 PUSH2 0x100 EXP SWAP1 DIV PUSH1 0xFF AND ISZERO PUSH2 0x31A JUMPI PUSH1 0x40 MLOAD DUP1 PUSH1 0x40 ADD PUSH1 0x40 MSTORE DUP1 PUSH1 0x9 DUP2 MSTORE PUSH1 0x20 ADD PUSH32 0x596F752077696E21210000000000000000000000000000000000000000000000 DUP2 MSTORE POP SWAP1 POP PUSH2 0x433 JUMP JUMPDEST PUSH1 0x0 CALLVALUE LT ISZERO PUSH2 0x35E JUMPI PUSH1 0x40 MLOAD PUSH32 0x8C379A000000000000000000000000000000000000000000000000000000000 DUP2 MSTORE PUSH1 0x4 ADD PUSH2 0x355 SWAP1 PUSH2 0x68F JUMP JUMPDEST PUSH1 0x40 MLOAD DUP1 SWAP2 SUB SWAP1 REVERT JUMPDEST PUSH1 0x0 PUSH1 0x4 PUSH1 0x1 SWAP1 SLOAD SWAP1 PUSH2 0x100 EXP SWAP1 DIV PUSH20 0xFFFFFFFFFFFFFFFFFFFFFFFFFFFFFFFFFFFFFFFF AND PUSH20 0xFFFFFFFFFFFFFFFFFFFFFFFFFFFFFFFFFFFFFFFF AND PUSH2 0x8FC CALLVALUE SWAP1 DUP2 ISZERO MUL SWAP1 PUSH1 0x40 MLOAD PUSH1 0x0 PUSH1 0x40 MLOAD DUP1 DUP4 SUB DUP2 DUP6 DUP9 DUP9 CALL SWAP4 POP POP POP POP SWAP1 POP DUP1 PUSH2 0x3F9 JUMPI PUSH1 0x40 MLOAD PUSH32 0x8C379A000000000000000000000000000000000000000000000000000000000 DUP2 MSTORE PUSH1 0x4 ADD PUSH2 0x3F0 SWAP1 PUSH2 0x6FB JUMP JUMPDEST PUSH1 0x40 MLOAD DUP1 SWAP2 SUB SWAP1 REVERT JUMPDEST PUSH1 0x40 MLOAD DUP1 PUSH1 0x40 ADD PUSH1 0x40 MSTORE DUP1 PUSH1 0x8 DUP2 MSTORE PUSH1 0x20 ADD PUSH32 0x596F75206C6F7373000000000000000000000000000000000000000000000000 DUP2 MSTORE POP SWAP2 POP POP JUMPDEST SWAP2 SWAP1 POP JUMP JUMPDEST PUSH1 0x0 DUP1 TIMESTAMP NUMBER PUSH1 0x40 MLOAD PUSH1 0x20 ADD PUSH2 0x44E SWAP3 SWAP2 SWAP1 PUSH2 0x73C JUMP JUMPDEST PUSH1 0x40 MLOAD PUSH1 0x20 DUP2 DUP4 SUB SUB DUP2 MSTORE SWAP1 PUSH1 0x40 MSTORE DUP1 MLOAD SWAP1 PUSH1 0x20 ADD KECCAK256 PUSH1 0x0 SHR SWAP1 POP PUSH1 0x2 SLOAD PUSH1 0x1 PUSH1 0x2 SLOAD PUSH1 0x1 SLOAD PUSH2 0x47E SWAP2 SWAP1 PUSH2 0x797 JUMP JUMPDEST PUSH2 0x488 SWAP2 SWAP1 PUSH2 0x7CB JUMP JUMPDEST DUP3 PUSH2 0x493 SWAP2 SWAP1 PUSH2 0x82E JUMP JUMPDEST PUSH2 0x49D SWAP2 SWAP1 PUSH2 0x7CB JUMP JUMPDEST SWAP2 POP POP SWAP1 JUMP JUMPDEST PUSH1 0x0 DUP1 REVERT JUMPDEST PUSH1 0x0 DUP2 SWAP1 POP SWAP2 SWAP1 POP JUMP JUMPDEST PUSH2 0x4BB DUP2 PUSH2 0x4A8 JUMP JUMPDEST DUP2 EQ PUSH2 0x4C6 JUMPI PUSH1 0x0 DUP1 REVERT JUMPDEST POP JUMP JUMPDEST PUSH1 0x0 DUP2 CALLDATALOAD SWAP1 POP PUSH2 0x4D8 DUP2 PUSH2 0x4B2 JUMP JUMPDEST SWAP3 SWAP2 POP POP JUMP JUMPDEST PUSH1 0x0 PUSH1 0x20 DUP3 DUP5 SUB SLT ISZERO PUSH2 0x4F4 JUMPI PUSH2 0x4F3 PUSH2 0x4A3 JUMP JUMPDEST JUMPDEST PUSH1 0x0 PUSH2 0x502 DUP5 DUP3 DUP6 ADD PUSH2 0x4C9 JUMP JUMPDEST SWAP2 POP POP SWAP3 SWAP2 POP POP JUMP JUMPDEST PUSH2 0x514 DUP2 PUSH2 0x4A8 JUMP JUMPDEST DUP3 MSTORE POP POP JUMP JUMPDEST PUSH1 0x0 PUSH1 0x20 DUP3 ADD SWAP1 POP PUSH2 0x52F PUSH1 0x0 DUP4 ADD DUP5 PUSH2 0x50B JUMP JUMPDEST SWAP3 SWAP2 POP POP JUMP JUMPDEST PUSH1 0x0 PUSH20 0xFFFFFFFFFFFFFFFFFFFFFFFFFFFFFFFFFFFFFFFF DUP3 AND SWAP1 POP SWAP2 SWAP1 POP JUMP JUMPDEST PUSH1 0x0 PUSH2 0x560 DUP3 PUSH2 0x535 JUMP JUMPDEST SWAP1 POP SWAP2 SWAP1 POP JUMP JUMPDEST PUSH2 0x570 DUP2 PUSH2 0x555 JUMP JUMPDEST DUP3 MSTORE POP POP JUMP JUMPDEST PUSH1 0x0 PUSH1 0x20 DUP3 ADD SWAP1 POP PUSH2 0x58B PUSH1 0x0 DUP4 ADD DUP5 PUSH2 0x567 JUMP JUMPDEST SWAP3 SWAP2 POP POP JUMP JUMPDEST PUSH1 0x0 DUP2 MLOAD SWAP1 POP SWAP2 SWAP1 POP JUMP JUMPDEST PUSH1 0x0 DUP3 DUP3 MSTORE PUSH1 0x20 DUP3 ADD SWAP1 POP SWAP3 SWAP2 POP POP JUMP JUMPDEST PUSH1 0x0 JUMPDEST DUP4 DUP2 LT ISZERO PUSH2 0x5CB JUMPI DUP1 DUP3 ADD MLOAD DUP2 DUP5 ADD MSTORE PUSH1 0x20 DUP2 ADD SWAP1 POP PUSH2 0x5B0 JUMP JUMPDEST PUSH1 0x0 DUP5 DUP5 ADD MSTORE POP POP POP POP JUMP JUMPDEST PUSH1 0x0 PUSH1 0x1F NOT PUSH1 0x1F DUP4 ADD AND SWAP1 POP SWAP2 SWAP1 POP JUMP JUMPDEST PUSH1 0x0 PUSH2 0x5F3 DUP3 PUSH2 0x591 JUMP JUMPDEST PUSH2 0x5FD DUP2 DUP6 PUSH2 0x59C JUMP JUMPDEST SWAP4 POP PUSH2 0x60D DUP2 DUP6 PUSH1 0x20 DUP7 ADD PUSH2 0x5AD JUMP JUMPDEST PUSH2 0x616 DUP2 PUSH2 0x5D7 JUMP JUMPDEST DUP5 ADD SWAP2 POP POP SWAP3 SWAP2 POP POP JUMP JUMPDEST PUSH1 0x0 PUSH1 0x20 DUP3 ADD SWAP1 POP DUP2 DUP2 SUB PUSH1 0x0 DUP4 ADD MSTORE PUSH2 0x63B DUP2 DUP5 PUSH2 0x5E8 JUMP JUMPDEST SWAP1 POP SWAP3 SWAP2 POP POP JUMP JUMPDEST PUSH32 0x4572726F723A2053656E64203130302077656921000000000000000000000000 PUSH1 0x0 DUP3 ADD MSTORE POP JUMP JUMPDEST PUSH1 0x0 PUSH2 0x679 PUSH1 0x14 DUP4 PUSH2 0x59C JUMP JUMPDEST SWAP2 POP PUSH2 0x684 DUP3 PUSH2 0x643 JUMP JUMPDEST PUSH1 0x20 DUP3 ADD SWAP1 POP SWAP2 SWAP1 POP JUMP JUMPDEST PUSH1 0x0 PUSH1 0x20 DUP3 ADD SWAP1 POP DUP2 DUP2 SUB PUSH1 0x0 DUP4 ADD MSTORE PUSH2 0x6A8 DUP2 PUSH2 0x66C JUMP JUMPDEST SWAP1 POP SWAP2 SWAP1 POP JUMP JUMPDEST PUSH32 0x4661696C656420746F2073656E64000000000000000000000000000000000000 PUSH1 0x0 DUP3 ADD MSTORE POP JUMP JUMPDEST PUSH1 0x0 PUSH2 0x6E5 PUSH1 0xE DUP4 PUSH2 0x59C JUMP JUMPDEST SWAP2 POP PUSH2 0x6F0 DUP3 PUSH2 0x6AF JUMP JUMPDEST PUSH1 0x20 DUP3 ADD SWAP1 POP SWAP2 SWAP1 POP JUMP JUMPDEST PUSH1 0x0 PUSH1 0x20 DUP3 ADD SWAP1 POP DUP2 DUP2 SUB PUSH1 0x0 DUP4 ADD MSTORE PUSH2 0x714 DUP2 PUSH2 0x6D8 JUMP JUMPDEST SWAP1 POP SWAP2 SWAP1 POP JUMP JUMPDEST PUSH1 0x0 DUP2 SWAP1 POP SWAP2 SWAP1 POP JUMP JUMPDEST PUSH2 0x736 PUSH2 0x731 DUP3 PUSH2 0x4A8 JUMP JUMPDEST PUSH2 0x71B JUMP JUMPDEST DUP3 MSTORE POP POP JUMP JUMPDEST PUSH1 0x0 PUSH2 0x748 DUP3 DUP6 PUSH2 0x725 JUMP JUMPDEST PUSH1 0x20 DUP3 ADD SWAP2 POP PUSH2 0x758 DUP3 DUP5 PUSH2 0x725 JUMP JUMPDEST PUSH1 0x20 DUP3 ADD SWAP2 POP DUP2 SWAP1 POP SWAP4 SWAP3 POP POP POP JUMP JUMPDEST PUSH32 0x4E487B7100000000000000000000000000000000000000000000000000000000 PUSH1 0x0 MSTORE PUSH1 0x11 PUSH1 0x4 MSTORE PUSH1 0x24 PUSH1 0x0 REVERT JUMPDEST PUSH1 0x0 PUSH2 0x7A2 DUP3 PUSH2 0x4A8 JUMP JUMPDEST SWAP2 POP PUSH2 0x7AD DUP4 PUSH2 0x4A8 JUMP JUMPDEST SWAP3 POP DUP3 DUP3 SUB SWAP1 POP DUP2 DUP2 GT ISZERO PUSH2 0x7C5 JUMPI PUSH2 0x7C4 PUSH2 0x768 JUMP JUMPDEST JUMPDEST SWAP3 SWAP2 POP POP JUMP JUMPDEST PUSH1 0x0 PUSH2 0x7D6 DUP3 PUSH2 0x4A8 JUMP JUMPDEST SWAP2 POP PUSH2 0x7E1 DUP4 PUSH2 0x4A8 JUMP JUMPDEST SWAP3 POP DUP3 DUP3 ADD SWAP1 POP DUP1 DUP3 GT ISZERO PUSH2 0x7F9 JUMPI PUSH2 0x7F8 PUSH2 0x768 JUMP JUMPDEST JUMPDEST SWAP3 SWAP2 POP POP JUMP JUMPDEST PUSH32 0x4E487B7100000000000000000000000000000000000000000000000000000000 PUSH1 0x0 MSTORE PUSH1 0x12 PUSH1 0x4 MSTORE PUSH1 0x24 PUSH1 0x0 REVERT JUMPDEST PUSH1 0x0 PUSH2 0x839 DUP3 PUSH2 0x4A8 JUMP JUMPDEST SWAP2 POP PUSH2 0x844 DUP4 PUSH2 0x4A8 JUMP JUMPDEST SWAP3 POP DUP3 PUSH2 0x854 JUMPI PUSH2 0x853 PUSH2 0x7FF JUMP JUMPDEST JUMPDEST DUP3 DUP3 MOD SWAP1 POP SWAP3 SWAP2 POP POP JUMP INVALID LOG2 PUSH5 0x6970667358 0x22 SLT KECCAK256 DUP7 0x4B PUSH5 0x9CC0A8C601 0xB8 PUSH25 0x4DF87BD722A24E36C9444DE2766940B8F1F2ED531EC564736F PUSH13 0x63430008130033000000000000 "
				},
				"gasEstimates": {
					"creation": {
						"codeDepositCost": "439400",
						"executionCost": "24791",
						"totalCost": "464191"
					},
					"external": {
						"getRandomNumber()": "infinite",
						"getnumber()": "infinite",
						"logicCheck(uint256)": "infinite",
						"maxNumber()": "2452",
						"minNumber()": "2496",
						"number()": "2473",
						"setMaxNumber(uint256)": "22521",
						"setMinNumber(uint256)": "22520",
						"targetNumber()": "2451",
						"treasury()": "2653"
					}
				},
				"methodIdentifiers": {
					"getRandomNumber()": "dbdff2c1",
					"getnumber()": "486b7217",
					"logicCheck(uint256)": "979f6ed0",
					"maxNumber()": "3a4f6999",
					"minNumber()": "55b93031",
					"number()": "8381f58a",
					"setMaxNumber(uint256)": "1b32ca5d",
					"setMinNumber(uint256)": "70a0aa5c",
					"targetNumber()": "71985c08",
					"treasury()": "61d027b3"
				}
			},
			"storageLayout": {
				"storage": [
					{
						"astId": 3,
						"contract": "Practical1-GuessNumber-Jason.sol:MyGuessNumberGame",
						"label": "targetNumber",
						"offset": 0,
						"slot": "0",
						"type": "t_uint256"
					},
					{
						"astId": 5,
						"contract": "Practical1-GuessNumber-Jason.sol:MyGuessNumberGame",
						"label": "maxNumber",
						"offset": 0,
						"slot": "1",
						"type": "t_uint256"
					},
					{
						"astId": 7,
						"contract": "Practical1-GuessNumber-Jason.sol:MyGuessNumberGame",
						"label": "minNumber",
						"offset": 0,
						"slot": "2",
						"type": "t_uint256"
					},
					{
						"astId": 9,
						"contract": "Practical1-GuessNumber-Jason.sol:MyGuessNumberGame",
						"label": "number",
						"offset": 0,
						"slot": "3",
						"type": "t_uint256"
					},
					{
						"astId": 11,
						"contract": "Practical1-GuessNumber-Jason.sol:MyGuessNumberGame",
						"label": "win",
						"offset": 0,
						"slot": "4",
						"type": "t_bool"
					},
					{
						"astId": 17,
						"contract": "Practical1-GuessNumber-Jason.sol:MyGuessNumberGame",
						"label": "treasury",
						"offset": 1,
						"slot": "4",
						"type": "t_address_payable"
					}
				],
				"types": {
					"t_address_payable": {
						"encoding": "inplace",
						"label": "address payable",
						"numberOfBytes": "20"
					},
					"t_bool": {
						"encoding": "inplace",
						"label": "bool",
						"numberOfBytes": "1"
					},
					"t_uint256": {
						"encoding": "inplace",
						"label": "uint256",
						"numberOfBytes": "32"
					}
				}
			},
			"userdoc": {
				"kind": "user",
				"methods": {},
				"version": 1
			}
		}
	}
}