{
	"testing.sol": {
		"testingVersion": {
			"abi": [
				{
					"inputs": [
						{
							"internalType": "uint256",
							"name": "num",
							"type": "uint256"
						}
					],
					"name": "modifyInt",
					"outputs": [
						{
							"internalType": "uint256",
							"name": "",
							"type": "uint256"
						}
					],
					"stateMutability": "nonpayable",
					"type": "function"
				},
				{
					"inputs": [],
					"name": "testint",
					"outputs": [
						{
							"internalType": "uint256",
							"name": "",
							"type": "uint256"
						}
					],
					"stateMutability": "view",
					"type": "function"
				}
			],
			"devdoc": {
				"kind": "dev",
				"methods": {},
				"version": 1
			},
			"evm": {
				"assembly": "    /* \"testing.sol\":72:272  contract testingVersion {... */\n  mstore(0x40, 0x80)\n  callvalue\n  dup1\n  iszero\n  tag_1\n  jumpi\n  0x00\n  dup1\n  revert\ntag_1:\n  pop\n  dataSize(sub_0)\n  dup1\n  dataOffset(sub_0)\n  0x00\n  codecopy\n  0x00\n  return\nstop\n\nsub_0: assembly {\n        /* \"testing.sol\":72:272  contract testingVersion {... */\n      mstore(0x40, 0x80)\n      callvalue\n      dup1\n      iszero\n      tag_1\n      jumpi\n      0x00\n      dup1\n      revert\n    tag_1:\n      pop\n      jumpi(tag_2, lt(calldatasize, 0x04))\n      shr(0xe0, calldataload(0x00))\n      dup1\n      0x7890df01\n      eq\n      tag_3\n      jumpi\n      dup1\n      0xe701c464\n      eq\n      tag_4\n      jumpi\n    tag_2:\n      0x00\n      dup1\n      revert\n        /* \"testing.sol\":140:265  function modifyInt(uint256 num) public returns (uint256){... */\n    tag_3:\n      tag_5\n      tag_6\n      calldatasize\n      0x04\n      tag_7\n      jump\t// in\n    tag_6:\n        /* \"testing.sol\":188:195  uint256 */\n      0x00\n        /* \"testing.sol\":211:224  testint = num */\n      dup2\n      swap1\n      sstore\n        /* \"testing.sol\":221:224  num */\n      swap1\n        /* \"testing.sol\":140:265  function modifyInt(uint256 num) public returns (uint256){... */\n      jump\n    tag_5:\n      mload(0x40)\n        /* \"#utility.yul\":345:370   */\n      swap1\n      dup2\n      mstore\n        /* \"#utility.yul\":333:335   */\n      0x20\n        /* \"#utility.yul\":318:336   */\n      add\n        /* \"testing.sol\":140:265  function modifyInt(uint256 num) public returns (uint256){... */\n      mload(0x40)\n      dup1\n      swap2\n      sub\n      swap1\n      return\n        /* \"testing.sol\":107:129  uint256 public testint */\n    tag_4:\n      tag_5\n      sload(0x00)\n      dup2\n      jump\n        /* \"#utility.yul\":14:194   */\n    tag_7:\n        /* \"#utility.yul\":73:79   */\n      0x00\n        /* \"#utility.yul\":126:128   */\n      0x20\n        /* \"#utility.yul\":114:123   */\n      dup3\n        /* \"#utility.yul\":105:112   */\n      dup5\n        /* \"#utility.yul\":101:124   */\n      sub\n        /* \"#utility.yul\":97:129   */\n      slt\n        /* \"#utility.yul\":94:146   */\n      iszero\n      tag_17\n      jumpi\n        /* \"#utility.yul\":142:143   */\n      0x00\n        /* \"#utility.yul\":139:140   */\n      dup1\n        /* \"#utility.yul\":132:144   */\n      revert\n        /* \"#utility.yul\":94:146   */\n    tag_17:\n      pop\n        /* \"#utility.yul\":165:188   */\n      calldataload\n      swap2\n        /* \"#utility.yul\":14:194   */\n      swap1\n      pop\n      jump\t// out\n\n    auxdata: 0xa2646970667358221220684987d4c3dfeea76c72d59fbd2c6f5b1c2db65eba0da252605dd709853fd75d64736f6c63430008140033\n}\n",
				"bytecode": {
					"linkReferences": {},
					"object": "6080604052348015600e575f80fd5b5060ab8061001b5f395ff3fe6080604052348015600e575f80fd5b50600436106030575f3560e01c80637890df01146034578063e701c464146058575b5f80fd5b6046603f366004605f565b5f81905590565b60405190815260200160405180910390f35b60465f5481565b5f60208284031215606e575f80fd5b503591905056fea2646970667358221220684987d4c3dfeea76c72d59fbd2c6f5b1c2db65eba0da252605dd709853fd75d64736f6c63430008140033",
					"opcodes": "PUSH1 0x80 PUSH1 0x40 MSTORE CALLVALUE DUP1 ISZERO PUSH1 0xE JUMPI PUSH0 DUP1 REVERT JUMPDEST POP PUSH1 0xAB DUP1 PUSH2 0x1B PUSH0 CODECOPY PUSH0 RETURN INVALID PUSH1 0x80 PUSH1 0x40 MSTORE CALLVALUE DUP1 ISZERO PUSH1 0xE JUMPI PUSH0 DUP1 REVERT JUMPDEST POP PUSH1 0x4 CALLDATASIZE LT PUSH1 0x30 JUMPI PUSH0 CALLDATALOAD PUSH1 0xE0 SHR DUP1 PUSH4 0x7890DF01 EQ PUSH1 0x34 JUMPI DUP1 PUSH4 0xE701C464 EQ PUSH1 0x58 JUMPI JUMPDEST PUSH0 DUP1 REVERT JUMPDEST PUSH1 0x46 PUSH1 0x3F CALLDATASIZE PUSH1 0x4 PUSH1 0x5F JUMP JUMPDEST PUSH0 DUP2 SWAP1 SSTORE SWAP1 JUMP JUMPDEST PUSH1 0x40 MLOAD SWAP1 DUP2 MSTORE PUSH1 0x20 ADD PUSH1 0x40 MLOAD DUP1 SWAP2 SUB SWAP1 RETURN JUMPDEST PUSH1 0x46 PUSH0 SLOAD DUP2 JUMP JUMPDEST PUSH0 PUSH1 0x20 DUP3 DUP5 SUB SLT ISZERO PUSH1 0x6E JUMPI PUSH0 DUP1 REVERT JUMPDEST POP CALLDATALOAD SWAP2 SWAP1 POP JUMP INVALID LOG2 PUSH5 0x6970667358 0x22 SLT KECCAK256 PUSH9 0x4987D4C3DFEEA76C72 0xD5 SWAP16 0xBD 0x2C PUSH16 0x5B1C2DB65EBA0DA252605DD709853FD7 0x5D PUSH5 0x736F6C6343 STOP ADDMOD EQ STOP CALLER "
				},
				"gasEstimates": {
					"creation": {
						"codeDepositCost": "34200",
						"executionCost": "85",
						"totalCost": "34285"
					},
					"external": {
						"modifyInt(uint256)": "22341",
						"testint()": "2281"
					}
				},
				"methodIdentifiers": {
					"modifyInt(uint256)": "7890df01",
					"testint()": "e701c464"
				}
			},
			"storageLayout": {
				"storage": [
					{
						"astId": 3,
						"contract": "testing.sol:testingVersion",
						"label": "testint",
						"offset": 0,
						"slot": "0",
						"type": "t_uint256"
					}
				],
				"types": {
					"t_uint256": {
						"encoding": "inplace",
						"label": "uint256",
						"numberOfBytes": "32"
					}
				}
			},
			"userdoc": {
				"kind": "user",
				"methods": {},
				"version": 1
			}
		}
	}
}