{
	"Practical2-RockPaperScissors-Jason.sol": {
		"RockPaperScissors": {
			"abi": [
				{
					"anonymous": false,
					"inputs": [
						{
							"indexed": false,
							"internalType": "string",
							"name": "",
							"type": "string"
						}
					],
					"name": "showError",
					"type": "event"
				},
				{
					"anonymous": false,
					"inputs": [
						{
							"indexed": false,
							"internalType": "string",
							"name": "logResult",
							"type": "string"
						}
					],
					"name": "showResult",
					"type": "event"
				},
				{
					"anonymous": false,
					"inputs": [
						{
							"indexed": true,
							"internalType": "address",
							"name": "logUserAddress",
							"type": "address"
						}
					],
					"name": "showUserAddress",
					"type": "event"
				},
				{
					"inputs": [],
					"name": "getGameHistory",
					"outputs": [
						{
							"components": [
								{
									"components": [
										{
											"internalType": "address",
											"name": "userAddress",
											"type": "address"
										},
										{
											"internalType": "uint256",
											"name": "userOption",
											"type": "uint256"
										}
									],
									"internalType": "struct RockPaperScissors.UserInfo",
									"name": "user1",
									"type": "tuple"
								},
								{
									"components": [
										{
											"internalType": "address",
											"name": "userAddress",
											"type": "address"
										},
										{
											"internalType": "uint256",
											"name": "userOption",
											"type": "uint256"
										}
									],
									"internalType": "struct RockPaperScissors.UserInfo",
									"name": "user2",
									"type": "tuple"
								},
								{
									"internalType": "string",
									"name": "finalResult",
									"type": "string"
								}
							],
							"internalType": "struct RockPaperScissors.GameInfo[]",
							"name": "",
							"type": "tuple[]"
						}
					],
					"stateMutability": "view",
					"type": "function"
				},
				{
					"inputs": [
						{
							"internalType": "uint256",
							"name": "index",
							"type": "uint256"
						}
					],
					"name": "getSpecificGameHistory",
					"outputs": [
						{
							"components": [
								{
									"components": [
										{
											"internalType": "address",
											"name": "userAddress",
											"type": "address"
										},
										{
											"internalType": "uint256",
											"name": "userOption",
											"type": "uint256"
										}
									],
									"internalType": "struct RockPaperScissors.UserInfo",
									"name": "user1",
									"type": "tuple"
								},
								{
									"components": [
										{
											"internalType": "address",
											"name": "userAddress",
											"type": "address"
										},
										{
											"internalType": "uint256",
											"name": "userOption",
											"type": "uint256"
										}
									],
									"internalType": "struct RockPaperScissors.UserInfo",
									"name": "user2",
									"type": "tuple"
								},
								{
									"internalType": "string",
									"name": "finalResult",
									"type": "string"
								}
							],
							"internalType": "struct RockPaperScissors.GameInfo",
							"name": "",
							"type": "tuple"
						}
					],
					"stateMutability": "view",
					"type": "function"
				},
				{
					"inputs": [
						{
							"internalType": "uint256",
							"name": "index",
							"type": "uint256"
						}
					],
					"name": "getUser1",
					"outputs": [
						{
							"components": [
								{
									"internalType": "address",
									"name": "userAddress",
									"type": "address"
								},
								{
									"internalType": "uint256",
									"name": "userOption",
									"type": "uint256"
								}
							],
							"internalType": "struct RockPaperScissors.UserInfo",
							"name": "",
							"type": "tuple"
						}
					],
					"stateMutability": "view",
					"type": "function"
				},
				{
					"inputs": [
						{
							"internalType": "uint256",
							"name": "option",
							"type": "uint256"
						}
					],
					"name": "play",
					"outputs": [],
					"stateMutability": "nonpayable",
					"type": "function"
				}
			],
			"devdoc": {
				"kind": "dev",
				"methods": {},
				"version": 1
			},
			"evm": {
				"assembly": "    /* \"Practical2-RockPaperScissors-Jason.sol\":57:4915  contract RockPaperScissors {... */\n  mstore(0x40, 0x80)\n    /* \"Practical2-RockPaperScissors-Jason.sol\":513:514  0 */\n  0x00\n    /* \"Practical2-RockPaperScissors-Jason.sol\":488:514  uint private userCount = 0 */\n  dup1\n  sstore\n    /* \"Practical2-RockPaperScissors-Jason.sol\":57:4915  contract RockPaperScissors {... */\n  callvalue\n  dup1\n  iszero\n  tag_1\n  jumpi\n  0x00\n  dup1\n  revert\ntag_1:\n  pop\n  dataSize(sub_0)\n  dup1\n  dataOffset(sub_0)\n  0x00\n  codecopy\n  0x00\n  return\nstop\n\nsub_0: assembly {\n        /* \"Practical2-RockPaperScissors-Jason.sol\":57:4915  contract RockPaperScissors {... */\n      mstore(0x40, 0x80)\n      callvalue\n      dup1\n      iszero\n      tag_1\n      jumpi\n      0x00\n      dup1\n      revert\n    tag_1:\n      pop\n      jumpi(tag_2, lt(calldatasize, 0x04))\n      shr(0xe0, calldataload(0x00))\n      dup1\n      0x512ec557\n      eq\n      tag_3\n      jumpi\n      dup1\n      0x6898f82b\n      eq\n      tag_4\n      jumpi\n      dup1\n      0xe417f4a3\n      eq\n      tag_5\n      jumpi\n      dup1\n      0xf7c4efbb\n      eq\n      tag_6\n      jumpi\n    tag_2:\n      0x00\n      dup1\n      revert\n        /* \"Practical2-RockPaperScissors-Jason.sol\":1161:1315  function getGameHistory () external view returns(GameInfo[] memory){... */\n    tag_3:\n      tag_7\n      tag_8\n      jump\t// in\n    tag_7:\n      mload(0x40)\n      tag_9\n      swap2\n      swap1\n      tag_10\n      jump\t// in\n    tag_9:\n      mload(0x40)\n      dup1\n      swap2\n      sub\n      swap1\n      return\n        /* \"Practical2-RockPaperScissors-Jason.sol\":2123:3727  function play (uint option) external noReentrancy{... */\n    tag_4:\n      tag_11\n      tag_12\n      calldatasize\n      0x04\n      tag_13\n      jump\t// in\n    tag_12:\n      tag_14\n      jump\t// in\n    tag_11:\n      stop\n        /* \"Practical2-RockPaperScissors-Jason.sol\":868:1108  function getUser1 (uint index) external view returns(UserInfo memory){... */\n    tag_5:\n      tag_15\n      tag_16\n      calldatasize\n      0x04\n      tag_13\n      jump\t// in\n    tag_16:\n      tag_17\n      jump\t// in\n    tag_15:\n      mload(0x40)\n      tag_9\n      swap2\n      swap1\n      tag_19\n      jump\t// in\n        /* \"Practical2-RockPaperScissors-Jason.sol\":1321:1782  function getSpecificGameHistory (uint index) external view returns(GameInfo memory){... */\n    tag_6:\n      tag_20\n      tag_21\n      calldatasize\n      0x04\n      tag_13\n      jump\t// in\n    tag_21:\n      tag_22\n      jump\t// in\n    tag_20:\n      mload(0x40)\n      tag_9\n      swap2\n      swap1\n      tag_24\n      jump\t// in\n        /* \"Practical2-RockPaperScissors-Jason.sol\":1161:1315  function getGameHistory () external view returns(GameInfo[] memory){... */\n    tag_8:\n        /* \"Practical2-RockPaperScissors-Jason.sol\":1210:1227  GameInfo[] memory */\n      0x60\n        /* \"Practical2-RockPaperScissors-Jason.sol\":1296:1307  gameHistory */\n      0x01\n        /* \"Practical2-RockPaperScissors-Jason.sol\":1288:1308  return (gameHistory) */\n      dup1\n      sload\n      dup1\n      0x20\n      mul\n      0x20\n      add\n      mload(0x40)\n      swap1\n      dup2\n      add\n      0x40\n      mstore\n      dup1\n      swap3\n      swap2\n      swap1\n      dup2\n      dup2\n      mstore\n      0x20\n      add\n      0x00\n      swap1\n    tag_26:\n      dup3\n      dup3\n      lt\n      iszero\n      tag_27\n      jumpi\n      0x00\n      dup5\n      dup2\n      mstore\n      0x20\n      swap1\n      dup2\n      swap1\n      keccak256\n      0x40\n      dup1\n      mload\n      0xa0\n      dup2\n      add\n      dup3\n      mstore\n      0x05\n      dup7\n      mul\n      swap1\n      swap3\n      add\n      dup1\n      sload\n      sub(shl(0xa0, 0x01), 0x01)\n      swap1\n      dup2\n      and\n      0x60\n      dup6\n      add\n      swap1\n      dup2\n      mstore\n      0x01\n      dup4\n      add\n      sload\n      0x80\n      dup7\n      add\n      mstore\n      dup5\n      mstore\n      dup3\n      mload\n      dup1\n      dup5\n      add\n      dup5\n      mstore\n      0x02\n      dup4\n      add\n      sload\n      swap1\n      swap2\n      and\n      dup2\n      mstore\n      0x03\n      dup3\n      add\n      sload\n      dup2\n      dup7\n      add\n      mstore\n      swap4\n      dup4\n      add\n      swap4\n      swap1\n      swap4\n      mstore\n      0x04\n      dup4\n      add\n      dup1\n      sload\n      swap3\n      swap4\n      swap3\n      swap2\n      dup5\n      add\n      swap2\n      tag_29\n      swap1\n      tag_30\n      jump\t// in\n    tag_29:\n      dup1\n      0x1f\n      add\n      0x20\n      dup1\n      swap2\n      div\n      mul\n      0x20\n      add\n      mload(0x40)\n      swap1\n      dup2\n      add\n      0x40\n      mstore\n      dup1\n      swap3\n      swap2\n      swap1\n      dup2\n      dup2\n      mstore\n      0x20\n      add\n      dup3\n      dup1\n      sload\n      tag_31\n      swap1\n      tag_30\n      jump\t// in\n    tag_31:\n      dup1\n      iszero\n      tag_32\n      jumpi\n      dup1\n      0x1f\n      lt\n      tag_33\n      jumpi\n      0x0100\n      dup1\n      dup4\n      sload\n      div\n      mul\n      dup4\n      mstore\n      swap2\n      0x20\n      add\n      swap2\n      jump(tag_32)\n    tag_33:\n      dup3\n      add\n      swap2\n      swap1\n      0x00\n      mstore\n      keccak256(0x00, 0x20)\n      swap1\n    tag_34:\n      dup2\n      sload\n      dup2\n      mstore\n      swap1\n      0x01\n      add\n      swap1\n      0x20\n      add\n      dup1\n      dup4\n      gt\n      tag_34\n      jumpi\n      dup3\n      swap1\n      sub\n      0x1f\n      and\n      dup3\n      add\n      swap2\n    tag_32:\n      pop\n      pop\n      pop\n      pop\n      pop\n      dup2\n      mstore\n      pop\n      pop\n      dup2\n      mstore\n      0x20\n      add\n      swap1\n      0x01\n      add\n      swap1\n      jump(tag_26)\n    tag_27:\n      pop\n      pop\n      pop\n      pop\n      swap1\n      pop\n        /* \"Practical2-RockPaperScissors-Jason.sol\":1161:1315  function getGameHistory () external view returns(GameInfo[] memory){... */\n      swap1\n      jump\t// out\n        /* \"Practical2-RockPaperScissors-Jason.sol\":2123:3727  function play (uint option) external noReentrancy{... */\n    tag_14:\n        /* \"Practical2-RockPaperScissors-Jason.sol\":1918:1924  locked */\n      and(0xff, sload(0x02))\n        /* \"Practical2-RockPaperScissors-Jason.sol\":1917:1924  !locked */\n      iszero\n        /* \"Practical2-RockPaperScissors-Jason.sol\":1909:1950  require(!locked, \"Error: Reentrant call\") */\n      tag_36\n      jumpi\n      mload(0x40)\n      shl(0xe5, 0x461bcd)\n      dup2\n      mstore\n        /* \"#utility.yul\":3040:3042   */\n      0x20\n        /* \"Practical2-RockPaperScissors-Jason.sol\":1909:1950  require(!locked, \"Error: Reentrant call\") */\n      0x04\n      dup3\n      add\n        /* \"#utility.yul\":3022:3043   */\n      mstore\n        /* \"#utility.yul\":3079:3081   */\n      0x15\n        /* \"#utility.yul\":3059:3077   */\n      0x24\n      dup3\n      add\n        /* \"#utility.yul\":3052:3082   */\n      mstore\n      shl(0x5a, 0x115c9c9bdc8e881499595b9d1c985b9d0818d85b1b)\n        /* \"#utility.yul\":3098:3116   */\n      0x44\n      dup3\n      add\n        /* \"#utility.yul\":3091:3142   */\n      mstore\n        /* \"#utility.yul\":3159:3177   */\n      0x64\n      add\n        /* \"Practical2-RockPaperScissors-Jason.sol\":1909:1950  require(!locked, \"Error: Reentrant call\") */\n    tag_37:\n      mload(0x40)\n      dup1\n      swap2\n      sub\n      swap1\n      revert\n    tag_36:\n        /* \"Practical2-RockPaperScissors-Jason.sol\":1960:1966  locked */\n      0x02\n        /* \"Practical2-RockPaperScissors-Jason.sol\":1960:1973  locked = true */\n      dup1\n      sload\n      not(0xff)\n      and\n        /* \"Practical2-RockPaperScissors-Jason.sol\":1969:1973  true */\n      0x01\n        /* \"Practical2-RockPaperScissors-Jason.sol\":1960:1973  locked = true */\n      or\n      swap1\n      sstore\n        /* \"Practical2-RockPaperScissors-Jason.sol\":2187:2214  showUserAddress(msg.sender) */\n      mload(0x40)\n        /* \"Practical2-RockPaperScissors-Jason.sol\":2203:2213  msg.sender */\n      caller\n      swap1\n        /* \"Practical2-RockPaperScissors-Jason.sol\":2187:2214  showUserAddress(msg.sender) */\n      0x6fd5bea3ad79492c3055c6f6b7b37ca66d63ba4ceef7d04dd901559affbe971a\n      swap1\n        /* \"Practical2-RockPaperScissors-Jason.sol\":1960:1966  locked */\n      0x00\n      swap1\n        /* \"Practical2-RockPaperScissors-Jason.sol\":2187:2214  showUserAddress(msg.sender) */\n      log2\n        /* \"Practical2-RockPaperScissors-Jason.sol\":2259:2265  option */\n      dup1\n        /* \"Practical2-RockPaperScissors-Jason.sol\":2269:2270  0 */\n      0x00\n        /* \"Practical2-RockPaperScissors-Jason.sol\":2259:2270  option != 0 */\n      sub\n        /* \"Practical2-RockPaperScissors-Jason.sol\":2251:2295  require(option != 0, \"Error: Can't input 0\") */\n      tag_40\n      jumpi\n      mload(0x40)\n      shl(0xe5, 0x461bcd)\n      dup2\n      mstore\n        /* \"#utility.yul\":3390:3392   */\n      0x20\n        /* \"Practical2-RockPaperScissors-Jason.sol\":2251:2295  require(option != 0, \"Error: Can't input 0\") */\n      0x04\n      dup3\n      add\n        /* \"#utility.yul\":3372:3393   */\n      mstore\n        /* \"#utility.yul\":3429:3431   */\n      0x14\n        /* \"#utility.yul\":3409:3427   */\n      0x24\n      dup3\n      add\n        /* \"#utility.yul\":3402:3432   */\n      mstore\n      shl(0x64, 0x04572726f723a2043616e277420696e707574203)\n        /* \"#utility.yul\":3448:3466   */\n      0x44\n      dup3\n      add\n        /* \"#utility.yul\":3441:3491   */\n      mstore\n        /* \"#utility.yul\":3508:3526   */\n      0x64\n      add\n        /* \"Practical2-RockPaperScissors-Jason.sol\":2251:2295  require(option != 0, \"Error: Can't input 0\") */\n      tag_37\n        /* \"#utility.yul\":3188:3532   */\n      jump\n        /* \"Practical2-RockPaperScissors-Jason.sol\":2251:2295  require(option != 0, \"Error: Can't input 0\") */\n    tag_40:\n        /* \"Practical2-RockPaperScissors-Jason.sol\":2323:2324  3 */\n      0x03\n        /* \"Practical2-RockPaperScissors-Jason.sol\":2313:2319  option */\n      dup2\n        /* \"Practical2-RockPaperScissors-Jason.sol\":2313:2324  option <= 3 */\n      gt\n      iszero\n        /* \"Practical2-RockPaperScissors-Jason.sol\":2305:2359  require(option <= 3, \"Error: Can't input more than 3\") */\n      tag_43\n      jumpi\n      mload(0x40)\n      shl(0xe5, 0x461bcd)\n      dup2\n      mstore\n        /* \"#utility.yul\":3739:3741   */\n      0x20\n        /* \"Practical2-RockPaperScissors-Jason.sol\":2305:2359  require(option <= 3, \"Error: Can't input more than 3\") */\n      0x04\n      dup3\n      add\n        /* \"#utility.yul\":3721:3742   */\n      mstore\n        /* \"#utility.yul\":3778:3780   */\n      0x1e\n        /* \"#utility.yul\":3758:3776   */\n      0x24\n      dup3\n      add\n        /* \"#utility.yul\":3751:3781   */\n      mstore\n        /* \"#utility.yul\":3817:3849   */\n      0x4572726f723a2043616e277420696e707574206d6f7265207468616e20330000\n        /* \"#utility.yul\":3797:3815   */\n      0x44\n      dup3\n      add\n        /* \"#utility.yul\":3790:3850   */\n      mstore\n        /* \"#utility.yul\":3867:3885   */\n      0x64\n      add\n        /* \"Practical2-RockPaperScissors-Jason.sol\":2305:2359  require(option <= 3, \"Error: Can't input more than 3\") */\n      tag_37\n        /* \"#utility.yul\":3537:3891   */\n      jump\n        /* \"Practical2-RockPaperScissors-Jason.sol\":2305:2359  require(option <= 3, \"Error: Can't input more than 3\") */\n    tag_43:\n        /* \"Practical2-RockPaperScissors-Jason.sol\":2383:2392  userCount */\n      sload(0x00)\n        /* \"Practical2-RockPaperScissors-Jason.sol\":2396:2397  0 */\n      0x00\n        /* \"Practical2-RockPaperScissors-Jason.sol\":2383:2397  userCount == 0 */\n      sub\n        /* \"Practical2-RockPaperScissors-Jason.sol\":2380:3367  if(userCount == 0){... */\n      tag_46\n      jumpi\n        /* \"Practical2-RockPaperScissors-Jason.sol\":2493:2517  GameInfo memory gameInfo */\n      tag_47\n      tag_48\n      jump\t// in\n    tag_47:\n        /* \"Practical2-RockPaperScissors-Jason.sol\":2531:2542  gameHistory */\n      0x01\n        /* \"Practical2-RockPaperScissors-Jason.sol\":2531:2557  gameHistory.push(gameInfo) */\n      dup1\n      sload\n      dup1\n      dup3\n      add\n      dup3\n      sstore\n      0x00\n      swap2\n      swap1\n      swap2\n      mstore\n      dup2\n      mload\n      dup1\n      mload\n      0xb10e2d527612073b26eecdfd717e6a320cf44b4afac2b0732d9fcbe2b7fa0cf6\n      0x05\n      swap1\n      swap4\n      mul\n      swap3\n      dup4\n      add\n      dup1\n      sload\n      not(sub(shl(0xa0, 0x01), 0x01))\n      swap1\n      dup2\n      and\n      sub(shl(0xa0, 0x01), 0x01)\n      swap4\n      dup5\n      and\n      or\n      dup3\n      sstore\n      0x20\n      swap4\n      dup5\n      add\n      mload\n      0xb10e2d527612073b26eecdfd717e6a320cf44b4afac2b0732d9fcbe2b7fa0cf7\n      dup7\n      add\n      sstore\n      dup4\n      dup7\n      add\n      mload\n      dup1\n      mload\n      0xb10e2d527612073b26eecdfd717e6a320cf44b4afac2b0732d9fcbe2b7fa0cf8\n      dup8\n      add\n      dup1\n      sload\n      swap1\n      swap4\n      and\n      swap5\n      and\n      swap4\n      swap1\n      swap4\n      or\n      swap1\n      sstore\n      swap2\n      add\n      mload\n      0xb10e2d527612073b26eecdfd717e6a320cf44b4afac2b0732d9fcbe2b7fa0cf9\n      dup4\n      add\n      sstore\n      0x40\n      dup4\n      add\n      mload\n      dup4\n      swap3\n      0xb10e2d527612073b26eecdfd717e6a320cf44b4afac2b0732d9fcbe2b7fa0cfa\n      add\n      swap1\n      tag_50\n      swap1\n      dup3\n      tag_51\n      jump\t// in\n    tag_50:\n      pop\n      pop\n        /* \"Practical2-RockPaperScissors-Jason.sol\":2646:2657  gameHistory */\n      0x01\n        /* \"Practical2-RockPaperScissors-Jason.sol\":2658:2676  gameHistory.length */\n      dup1\n      sload\n        /* \"Practical2-RockPaperScissors-Jason.sol\":2702:2712  msg.sender */\n      caller\n      swap3\n      pop\n        /* \"Practical2-RockPaperScissors-Jason.sol\":2658:2680  gameHistory.length - 1 */\n      tag_52\n      swap1\n        /* \"Practical2-RockPaperScissors-Jason.sol\":2646:2657  gameHistory */\n      dup3\n      swap1\n        /* \"Practical2-RockPaperScissors-Jason.sol\":2658:2680  gameHistory.length - 1 */\n      tag_53\n      jump\t// in\n    tag_52:\n        /* \"Practical2-RockPaperScissors-Jason.sol\":2646:2681  gameHistory[gameHistory.length - 1] */\n      dup2\n      sload\n      dup2\n      lt\n      tag_55\n      jumpi\n      tag_55\n      tag_56\n      jump\t// in\n    tag_55:\n      0x00\n      swap2\n      dup3\n      mstore\n      0x20\n      swap1\n      swap2\n      keccak256\n      0x05\n      swap1\n      swap2\n      mul\n      add\n        /* \"Practical2-RockPaperScissors-Jason.sol\":2646:2712  gameHistory[gameHistory.length - 1].user1.userAddress = msg.sender */\n      dup1\n      sload\n      not(sub(shl(0xa0, 0x01), 0x01))\n      and\n      sub(shl(0xa0, 0x01), 0x01)\n      swap3\n      swap1\n      swap3\n      and\n      swap2\n      swap1\n      swap2\n      or\n      swap1\n      sstore\n      0x01\n        /* \"Practical2-RockPaperScissors-Jason.sol\":2738:2756  gameHistory.length */\n      dup1\n      sload\n        /* \"Practical2-RockPaperScissors-Jason.sol\":2781:2787  option */\n      dup4\n      swap2\n      swap1\n        /* \"Practical2-RockPaperScissors-Jason.sol\":2738:2760  gameHistory.length - 1 */\n      tag_58\n      swap1\n      dup3\n      swap1\n      tag_53\n      jump\t// in\n    tag_58:\n        /* \"Practical2-RockPaperScissors-Jason.sol\":2726:2761  gameHistory[gameHistory.length - 1] */\n      dup2\n      sload\n      dup2\n      lt\n      tag_60\n      jumpi\n      tag_60\n      tag_56\n      jump\t// in\n    tag_60:\n      0x00\n      swap2\n      dup3\n      mstore\n      0x20\n      dup3\n      keccak256\n        /* \"Practical2-RockPaperScissors-Jason.sol\":2726:2778  gameHistory[gameHistory.length - 1].user1.userOption */\n      0x01\n        /* \"Practical2-RockPaperScissors-Jason.sol\":2726:2761  gameHistory[gameHistory.length - 1] */\n      0x05\n      swap1\n      swap3\n      mul\n      add\n        /* \"Practical2-RockPaperScissors-Jason.sol\":2726:2778  gameHistory[gameHistory.length - 1].user1.userOption */\n      add\n        /* \"Practical2-RockPaperScissors-Jason.sol\":2726:2787  gameHistory[gameHistory.length - 1].user1.userOption = option */\n      swap2\n      swap1\n      swap2\n      sstore\n        /* \"Practical2-RockPaperScissors-Jason.sol\":2828:2839  userCount++ */\n      dup1\n      sload\n      swap1\n        /* \"Practical2-RockPaperScissors-Jason.sol\":2726:2761  gameHistory[gameHistory.length - 1] */\n      dup1\n        /* \"Practical2-RockPaperScissors-Jason.sol\":2828:2839  userCount++ */\n      tag_62\n      dup4\n      tag_63\n      jump\t// in\n    tag_62:\n      swap2\n      swap1\n      pop\n      sstore\n      pop\n        /* \"Practical2-RockPaperScissors-Jason.sol\":2398:2850  {... */\n      pop\n        /* \"Practical2-RockPaperScissors-Jason.sol\":2380:3367  if(userCount == 0){... */\n      jump(tag_64)\n    tag_46:\n        /* \"Practical2-RockPaperScissors-Jason.sol\":2957:2968  gameHistory */\n      0x01\n        /* \"Practical2-RockPaperScissors-Jason.sol\":2969:2987  gameHistory.length */\n      dup1\n      sload\n        /* \"Practical2-RockPaperScissors-Jason.sol\":2969:2991  gameHistory.length - 1 */\n      tag_65\n      swap1\n        /* \"Practical2-RockPaperScissors-Jason.sol\":2957:2968  gameHistory */\n      dup3\n      swap1\n        /* \"Practical2-RockPaperScissors-Jason.sol\":2969:2991  gameHistory.length - 1 */\n      tag_53\n      jump\t// in\n    tag_65:\n        /* \"Practical2-RockPaperScissors-Jason.sol\":2957:2992  gameHistory[gameHistory.length - 1] */\n      dup2\n      sload\n      dup2\n      lt\n      tag_67\n      jumpi\n      tag_67\n      tag_56\n      jump\t// in\n    tag_67:\n      0x00\n      swap2\n      dup3\n      mstore\n      0x20\n      swap1\n      swap2\n      keccak256\n      0x05\n      swap1\n      swap2\n      mul\n      add\n        /* \"Practical2-RockPaperScissors-Jason.sol\":2957:3010  gameHistory[gameHistory.length - 1].user1.userAddress */\n      sload\n      sub(shl(0xa0, 0x01), 0x01)\n      and\n        /* \"Practical2-RockPaperScissors-Jason.sol\":2943:2953  msg.sender */\n      caller\n        /* \"Practical2-RockPaperScissors-Jason.sol\":2943:3010  msg.sender != gameHistory[gameHistory.length - 1].user1.userAddress */\n      sub\n        /* \"Practical2-RockPaperScissors-Jason.sol\":2935:3050  require(msg.sender != gameHistory[gameHistory.length - 1].user1.userAddress,\"Error: You cannot play with yourself\") */\n      tag_69\n      jumpi\n      mload(0x40)\n      shl(0xe5, 0x461bcd)\n      dup2\n      mstore\n        /* \"#utility.yul\":6971:6973   */\n      0x20\n        /* \"Practical2-RockPaperScissors-Jason.sol\":2935:3050  require(msg.sender != gameHistory[gameHistory.length - 1].user1.userAddress,\"Error: You cannot play with yourself\") */\n      0x04\n      dup3\n      add\n        /* \"#utility.yul\":6953:6974   */\n      mstore\n        /* \"#utility.yul\":7010:7012   */\n      0x24\n        /* \"#utility.yul\":6990:7008   */\n      dup1\n      dup3\n      add\n        /* \"#utility.yul\":6983:7013   */\n      mstore\n        /* \"#utility.yul\":7049:7083   */\n      0x4572726f723a20596f752063616e6e6f7420706c6179207769746820796f7572\n        /* \"#utility.yul\":7029:7047   */\n      0x44\n      dup3\n      add\n        /* \"#utility.yul\":7022:7084   */\n      mstore\n      shl(0xe1, 0x39b2b633)\n        /* \"#utility.yul\":7100:7118   */\n      0x64\n      dup3\n      add\n        /* \"#utility.yul\":7093:7127   */\n      mstore\n        /* \"#utility.yul\":7144:7163   */\n      0x84\n      add\n        /* \"Practical2-RockPaperScissors-Jason.sol\":2935:3050  require(msg.sender != gameHistory[gameHistory.length - 1].user1.userAddress,\"Error: You cannot play with yourself\") */\n      tag_37\n        /* \"#utility.yul\":6769:7169   */\n      jump\n        /* \"Practical2-RockPaperScissors-Jason.sol\":2935:3050  require(msg.sender != gameHistory[gameHistory.length - 1].user1.userAddress,\"Error: You cannot play with yourself\") */\n    tag_69:\n        /* \"Practical2-RockPaperScissors-Jason.sol\":3117:3128  gameHistory */\n      0x01\n        /* \"Practical2-RockPaperScissors-Jason.sol\":3129:3147  gameHistory.length */\n      dup1\n      sload\n        /* \"Practical2-RockPaperScissors-Jason.sol\":3173:3183  msg.sender */\n      caller\n      swap2\n        /* \"Practical2-RockPaperScissors-Jason.sol\":3117:3128  gameHistory */\n      swap1\n        /* \"Practical2-RockPaperScissors-Jason.sol\":3129:3151  gameHistory.length - 1 */\n      tag_72\n      swap1\n        /* \"Practical2-RockPaperScissors-Jason.sol\":3117:3128  gameHistory */\n      dup3\n      swap1\n        /* \"Practical2-RockPaperScissors-Jason.sol\":3129:3151  gameHistory.length - 1 */\n      tag_53\n      jump\t// in\n    tag_72:\n        /* \"Practical2-RockPaperScissors-Jason.sol\":3117:3152  gameHistory[gameHistory.length - 1] */\n      dup2\n      sload\n      dup2\n      lt\n      tag_74\n      jumpi\n      tag_74\n      tag_56\n      jump\t// in\n    tag_74:\n      0x00\n      swap2\n      dup3\n      mstore\n      0x20\n      swap1\n      swap2\n      keccak256\n      0x05\n      swap1\n      swap2\n      mul\n      add\n        /* \"Practical2-RockPaperScissors-Jason.sol\":3117:3158  gameHistory[gameHistory.length - 1].user2 */\n      0x02\n      add\n        /* \"Practical2-RockPaperScissors-Jason.sol\":3117:3183  gameHistory[gameHistory.length - 1].user2.userAddress = msg.sender */\n      dup1\n      sload\n      not(sub(shl(0xa0, 0x01), 0x01))\n      and\n      sub(shl(0xa0, 0x01), 0x01)\n      swap3\n      swap1\n      swap3\n      and\n      swap2\n      swap1\n      swap2\n      or\n      swap1\n      sstore\n      0x01\n        /* \"Practical2-RockPaperScissors-Jason.sol\":3209:3227  gameHistory.length */\n      dup1\n      sload\n        /* \"Practical2-RockPaperScissors-Jason.sol\":3252:3258  option */\n      dup3\n      swap2\n      swap1\n        /* \"Practical2-RockPaperScissors-Jason.sol\":3209:3231  gameHistory.length - 1 */\n      tag_76\n      swap1\n      dup3\n      swap1\n      tag_53\n      jump\t// in\n    tag_76:\n        /* \"Practical2-RockPaperScissors-Jason.sol\":3197:3232  gameHistory[gameHistory.length - 1] */\n      dup2\n      sload\n      dup2\n      lt\n      tag_78\n      jumpi\n      tag_78\n      tag_56\n      jump\t// in\n    tag_78:\n      0x00\n      swap2\n      dup3\n      mstore\n      0x20\n      swap1\n      swap2\n      keccak256\n        /* \"Practical2-RockPaperScissors-Jason.sol\":3197:3249  gameHistory[gameHistory.length - 1].user2.userOption */\n      0x03\n        /* \"Practical2-RockPaperScissors-Jason.sol\":3197:3232  gameHistory[gameHistory.length - 1] */\n      0x05\n      swap1\n      swap3\n      mul\n      add\n        /* \"Practical2-RockPaperScissors-Jason.sol\":3197:3249  gameHistory[gameHistory.length - 1].user2.userOption */\n      add\n        /* \"Practical2-RockPaperScissors-Jason.sol\":3197:3258  gameHistory[gameHistory.length - 1].user2.userOption = option */\n      sstore\n        /* \"Practical2-RockPaperScissors-Jason.sol\":3322:3328  game() */\n      tag_80\n        /* \"Practical2-RockPaperScissors-Jason.sol\":3322:3326  game */\n      tag_81\n        /* \"Practical2-RockPaperScissors-Jason.sol\":3322:3328  game() */\n      jump\t// in\n    tag_80:\n        /* \"Practical2-RockPaperScissors-Jason.sol\":3354:3355  0 */\n      0x00\n        /* \"Practical2-RockPaperScissors-Jason.sol\":3342:3355  userCount = 0 */\n      dup1\n      sstore\n        /* \"Practical2-RockPaperScissors-Jason.sol\":2380:3367  if(userCount == 0){... */\n    tag_64:\n      pop\n        /* \"Practical2-RockPaperScissors-Jason.sol\":1994:2000  locked */\n      0x02\n        /* \"Practical2-RockPaperScissors-Jason.sol\":1994:2008  locked = false */\n      dup1\n      sload\n      not(0xff)\n      and\n      swap1\n      sstore\n        /* \"Practical2-RockPaperScissors-Jason.sol\":2123:3727  function play (uint option) external noReentrancy{... */\n      jump\t// out\n        /* \"Practical2-RockPaperScissors-Jason.sol\":868:1108  function getUser1 (uint index) external view returns(UserInfo memory){... */\n    tag_17:\n      0x40\n      dup1\n      mload\n      dup1\n      dup3\n      add\n      swap1\n      swap2\n      mstore\n      0x00\n      dup1\n      dup3\n      mstore\n      0x20\n      dup3\n      add\n      mstore\n        /* \"Practical2-RockPaperScissors-Jason.sol\":1014:1025  gameHistory */\n      0x01\n        /* \"Practical2-RockPaperScissors-Jason.sol\":1014:1032  gameHistory.length */\n      sload\n        /* \"Practical2-RockPaperScissors-Jason.sol\":1005:1032  index <= gameHistory.length */\n      dup3\n      gt\n      iszero\n        /* \"Practical2-RockPaperScissors-Jason.sol\":997:1058  require(index <= gameHistory.length, \"Error: Invalid length\") */\n      tag_85\n      jumpi\n      mload(0x40)\n      shl(0xe5, 0x461bcd)\n      dup2\n      mstore\n        /* \"#utility.yul\":7376:7378   */\n      0x20\n        /* \"Practical2-RockPaperScissors-Jason.sol\":997:1058  require(index <= gameHistory.length, \"Error: Invalid length\") */\n      0x04\n      dup3\n      add\n        /* \"#utility.yul\":7358:7379   */\n      mstore\n        /* \"#utility.yul\":7415:7417   */\n      0x15\n        /* \"#utility.yul\":7395:7413   */\n      0x24\n      dup3\n      add\n        /* \"#utility.yul\":7388:7418   */\n      mstore\n      shl(0x5b, 0x08ae4e4dee4744092dcecc2d8d2c840d8cadccee8d)\n        /* \"#utility.yul\":7434:7452   */\n      0x44\n      dup3\n      add\n        /* \"#utility.yul\":7427:7478   */\n      mstore\n        /* \"#utility.yul\":7495:7513   */\n      0x64\n      add\n        /* \"Practical2-RockPaperScissors-Jason.sol\":997:1058  require(index <= gameHistory.length, \"Error: Invalid length\") */\n      tag_37\n        /* \"#utility.yul\":7174:7519   */\n      jump\n        /* \"Practical2-RockPaperScissors-Jason.sol\":997:1058  require(index <= gameHistory.length, \"Error: Invalid length\") */\n    tag_85:\n        /* \"Practical2-RockPaperScissors-Jason.sol\":1076:1087  gameHistory */\n      0x01\n        /* \"Practical2-RockPaperScissors-Jason.sol\":1088:1093  index */\n      dup3\n        /* \"Practical2-RockPaperScissors-Jason.sol\":1076:1094  gameHistory[index] */\n      dup2\n      sload\n      dup2\n      lt\n      tag_89\n      jumpi\n      tag_89\n      tag_56\n      jump\t// in\n    tag_89:\n      0x00\n      swap2\n      dup3\n      mstore\n      0x20\n      swap2\n      dup3\n      swap1\n      keccak256\n        /* \"Practical2-RockPaperScissors-Jason.sol\":1068:1101  return (gameHistory[index].user1) */\n      0x40\n      dup1\n      mload\n      dup1\n      dup3\n      add\n      swap1\n      swap2\n      mstore\n        /* \"Practical2-RockPaperScissors-Jason.sol\":1076:1094  gameHistory[index] */\n      0x05\n      swap1\n      swap3\n      mul\n      add\n        /* \"Practical2-RockPaperScissors-Jason.sol\":1068:1101  return (gameHistory[index].user1) */\n      dup1\n      sload\n      sub(shl(0xa0, 0x01), 0x01)\n      and\n      dup3\n      mstore\n      0x01\n      add\n      sload\n      swap2\n      dup2\n      add\n      swap2\n      swap1\n      swap2\n      mstore\n      swap3\n        /* \"Practical2-RockPaperScissors-Jason.sol\":868:1108  function getUser1 (uint index) external view returns(UserInfo memory){... */\n      swap2\n      pop\n      pop\n      jump\t// out\n        /* \"Practical2-RockPaperScissors-Jason.sol\":1321:1782  function getSpecificGameHistory (uint index) external view returns(GameInfo memory){... */\n    tag_22:\n        /* \"Practical2-RockPaperScissors-Jason.sol\":1388:1403  GameInfo memory */\n      tag_91\n      tag_48\n      jump\t// in\n    tag_91:\n        /* \"Practical2-RockPaperScissors-Jason.sol\":1481:1492  gameHistory */\n      0x01\n        /* \"Practical2-RockPaperScissors-Jason.sol\":1481:1499  gameHistory.length */\n      sload\n        /* \"Practical2-RockPaperScissors-Jason.sol\":1472:1499  index <= gameHistory.length */\n      dup3\n      gt\n      iszero\n        /* \"Practical2-RockPaperScissors-Jason.sol\":1464:1525  require(index <= gameHistory.length, \"Error: Invalid length\") */\n      tag_93\n      jumpi\n      mload(0x40)\n      shl(0xe5, 0x461bcd)\n      dup2\n      mstore\n        /* \"#utility.yul\":7376:7378   */\n      0x20\n        /* \"Practical2-RockPaperScissors-Jason.sol\":1464:1525  require(index <= gameHistory.length, \"Error: Invalid length\") */\n      0x04\n      dup3\n      add\n        /* \"#utility.yul\":7358:7379   */\n      mstore\n        /* \"#utility.yul\":7415:7417   */\n      0x15\n        /* \"#utility.yul\":7395:7413   */\n      0x24\n      dup3\n      add\n        /* \"#utility.yul\":7388:7418   */\n      mstore\n      shl(0x5b, 0x08ae4e4dee4744092dcecc2d8d2c840d8cadccee8d)\n        /* \"#utility.yul\":7434:7452   */\n      0x44\n      dup3\n      add\n        /* \"#utility.yul\":7427:7478   */\n      mstore\n        /* \"#utility.yul\":7495:7513   */\n      0x64\n      add\n        /* \"Practical2-RockPaperScissors-Jason.sol\":1464:1525  require(index <= gameHistory.length, \"Error: Invalid length\") */\n      tag_37\n        /* \"#utility.yul\":7174:7519   */\n      jump\n        /* \"Practical2-RockPaperScissors-Jason.sol\":1464:1525  require(index <= gameHistory.length, \"Error: Invalid length\") */\n    tag_93:\n        /* \"Practical2-RockPaperScissors-Jason.sol\":1700:1701  0 */\n      0x00\n      sub(shl(0xa0, 0x01), 0x01)\n        /* \"Practical2-RockPaperScissors-Jason.sol\":1652:1702  gameHistory[index].user2.userAddress != address(0) */\n      and\n        /* \"Practical2-RockPaperScissors-Jason.sol\":1652:1663  gameHistory */\n      0x01\n        /* \"Practical2-RockPaperScissors-Jason.sol\":1664:1669  index */\n      dup4\n        /* \"Practical2-RockPaperScissors-Jason.sol\":1652:1670  gameHistory[index] */\n      dup2\n      sload\n      dup2\n      lt\n      tag_96\n      jumpi\n      tag_96\n      tag_56\n      jump\t// in\n    tag_96:\n      0x00\n      swap2\n      dup3\n      mstore\n      0x20\n      swap1\n      swap2\n      keccak256\n        /* \"Practical2-RockPaperScissors-Jason.sol\":1652:1676  gameHistory[index].user2 */\n      0x02\n        /* \"Practical2-RockPaperScissors-Jason.sol\":1652:1670  gameHistory[index] */\n      0x05\n      swap1\n      swap3\n      mul\n      add\n        /* \"Practical2-RockPaperScissors-Jason.sol\":1652:1676  gameHistory[index].user2 */\n      add\n        /* \"Practical2-RockPaperScissors-Jason.sol\":1652:1688  gameHistory[index].user2.userAddress */\n      sload\n      sub(shl(0xa0, 0x01), 0x01)\n      and\n        /* \"Practical2-RockPaperScissors-Jason.sol\":1652:1702  gameHistory[index].user2.userAddress != address(0) */\n      sub\n        /* \"Practical2-RockPaperScissors-Jason.sol\":1644:1737  require(gameHistory[index].user2.userAddress != address(0), \"Error: The game not finish yet\") */\n      tag_98\n      jumpi\n      mload(0x40)\n      shl(0xe5, 0x461bcd)\n      dup2\n      mstore\n        /* \"#utility.yul\":7726:7728   */\n      0x20\n        /* \"Practical2-RockPaperScissors-Jason.sol\":1644:1737  require(gameHistory[index].user2.userAddress != address(0), \"Error: The game not finish yet\") */\n      0x04\n      dup3\n      add\n        /* \"#utility.yul\":7708:7729   */\n      mstore\n        /* \"#utility.yul\":7765:7767   */\n      0x1e\n        /* \"#utility.yul\":7745:7763   */\n      0x24\n      dup3\n      add\n        /* \"#utility.yul\":7738:7768   */\n      mstore\n        /* \"#utility.yul\":7804:7836   */\n      0x4572726f723a205468652067616d65206e6f742066696e697368207965740000\n        /* \"#utility.yul\":7784:7802   */\n      0x44\n      dup3\n      add\n        /* \"#utility.yul\":7777:7837   */\n      mstore\n        /* \"#utility.yul\":7854:7872   */\n      0x64\n      add\n        /* \"Practical2-RockPaperScissors-Jason.sol\":1644:1737  require(gameHistory[index].user2.userAddress != address(0), \"Error: The game not finish yet\") */\n      tag_37\n        /* \"#utility.yul\":7524:7878   */\n      jump\n        /* \"Practical2-RockPaperScissors-Jason.sol\":1644:1737  require(gameHistory[index].user2.userAddress != address(0), \"Error: The game not finish yet\") */\n    tag_98:\n        /* \"Practical2-RockPaperScissors-Jason.sol\":1756:1767  gameHistory */\n      0x01\n        /* \"Practical2-RockPaperScissors-Jason.sol\":1768:1773  index */\n      dup3\n        /* \"Practical2-RockPaperScissors-Jason.sol\":1756:1774  gameHistory[index] */\n      dup2\n      sload\n      dup2\n      lt\n      tag_102\n      jumpi\n      tag_102\n      tag_56\n      jump\t// in\n    tag_102:\n      0x00\n      swap2\n      dup3\n      mstore\n      0x20\n      swap2\n      dup3\n      swap1\n      keccak256\n        /* \"Practical2-RockPaperScissors-Jason.sol\":1748:1775  return (gameHistory[index]) */\n      0x40\n      dup1\n      mload\n      0xa0\n      dup2\n      add\n      dup3\n      mstore\n        /* \"Practical2-RockPaperScissors-Jason.sol\":1756:1774  gameHistory[index] */\n      0x05\n      swap1\n      swap4\n      mul\n      swap1\n      swap2\n      add\n        /* \"Practical2-RockPaperScissors-Jason.sol\":1748:1775  return (gameHistory[index]) */\n      dup1\n      sload\n      sub(shl(0xa0, 0x01), 0x01)\n      swap1\n      dup2\n      and\n      0x60\n      dup6\n      add\n      swap1\n      dup2\n      mstore\n      0x01\n      dup4\n      add\n      sload\n      0x80\n      dup7\n      add\n      mstore\n      dup5\n      mstore\n      dup3\n      mload\n      dup1\n      dup5\n      add\n      dup5\n      mstore\n      0x02\n      dup4\n      add\n      sload\n      swap1\n      swap2\n      and\n      dup2\n      mstore\n      0x03\n      dup3\n      add\n      sload\n      dup2\n      dup7\n      add\n      mstore\n      swap4\n      dup4\n      add\n      swap4\n      swap1\n      swap4\n      mstore\n      0x04\n      dup4\n      add\n      dup1\n      sload\n      swap3\n      swap4\n        /* \"Practical2-RockPaperScissors-Jason.sol\":1756:1774  gameHistory[index] */\n      swap3\n      swap2\n      dup5\n      add\n      swap2\n        /* \"Practical2-RockPaperScissors-Jason.sol\":1748:1775  return (gameHistory[index]) */\n      tag_104\n      swap1\n      tag_30\n      jump\t// in\n    tag_104:\n      dup1\n      0x1f\n      add\n      0x20\n      dup1\n      swap2\n      div\n      mul\n      0x20\n      add\n      mload(0x40)\n      swap1\n      dup2\n      add\n      0x40\n      mstore\n      dup1\n      swap3\n      swap2\n      swap1\n      dup2\n      dup2\n      mstore\n      0x20\n      add\n      dup3\n      dup1\n      sload\n      tag_105\n      swap1\n      tag_30\n      jump\t// in\n    tag_105:\n      dup1\n      iszero\n      tag_106\n      jumpi\n      dup1\n      0x1f\n      lt\n      tag_107\n      jumpi\n      0x0100\n      dup1\n      dup4\n      sload\n      div\n      mul\n      dup4\n      mstore\n      swap2\n      0x20\n      add\n      swap2\n      jump(tag_106)\n    tag_107:\n      dup3\n      add\n      swap2\n      swap1\n      0x00\n      mstore\n      keccak256(0x00, 0x20)\n      swap1\n    tag_108:\n      dup2\n      sload\n      dup2\n      mstore\n      swap1\n      0x01\n      add\n      swap1\n      0x20\n      add\n      dup1\n      dup4\n      gt\n      tag_108\n      jumpi\n      dup3\n      swap1\n      sub\n      0x1f\n      and\n      dup3\n      add\n      swap2\n    tag_106:\n      pop\n      pop\n      pop\n      pop\n      pop\n      dup2\n      mstore\n      pop\n      pop\n      swap1\n      pop\n        /* \"Practical2-RockPaperScissors-Jason.sol\":1321:1782  function getSpecificGameHistory (uint index) external view returns(GameInfo memory){... */\n      swap2\n      swap1\n      pop\n      jump\t// out\n        /* \"Practical2-RockPaperScissors-Jason.sol\":3756:4913  function game () private {... */\n    tag_81:\n        /* \"Practical2-RockPaperScissors-Jason.sol\":3975:3986  gameHistory */\n      0x01\n        /* \"Practical2-RockPaperScissors-Jason.sol\":3987:4005  gameHistory.length */\n      dup1\n      sload\n        /* \"Practical2-RockPaperScissors-Jason.sol\":3987:4009  gameHistory.length - 1 */\n      tag_110\n      swap1\n        /* \"Practical2-RockPaperScissors-Jason.sol\":3975:3986  gameHistory */\n      dup3\n      swap1\n        /* \"Practical2-RockPaperScissors-Jason.sol\":3987:4009  gameHistory.length - 1 */\n      tag_53\n      jump\t// in\n    tag_110:\n        /* \"Practical2-RockPaperScissors-Jason.sol\":3975:4010  gameHistory[gameHistory.length - 1] */\n      dup2\n      sload\n      dup2\n      lt\n      tag_112\n      jumpi\n      tag_112\n      tag_56\n      jump\t// in\n    tag_112:\n      0x00\n      swap2\n      dup3\n      mstore\n      0x20\n      swap1\n      swap2\n      keccak256\n        /* \"Practical2-RockPaperScissors-Jason.sol\":3975:4027  gameHistory[gameHistory.length - 1].user2.userOption */\n      0x03\n        /* \"Practical2-RockPaperScissors-Jason.sol\":3975:4010  gameHistory[gameHistory.length - 1] */\n      0x05\n      swap1\n      swap3\n      mul\n      add\n        /* \"Practical2-RockPaperScissors-Jason.sol\":3975:4027  gameHistory[gameHistory.length - 1].user2.userOption */\n      add\n      sload\n      0x01\n        /* \"Practical2-RockPaperScissors-Jason.sol\":3931:3949  gameHistory.length */\n      dup1\n      sload\n        /* \"Practical2-RockPaperScissors-Jason.sol\":3931:3953  gameHistory.length - 1 */\n      tag_114\n      swap1\n        /* \"Practical2-RockPaperScissors-Jason.sol\":3975:4027  gameHistory[gameHistory.length - 1].user2.userOption */\n      dup3\n      swap1\n        /* \"Practical2-RockPaperScissors-Jason.sol\":3931:3953  gameHistory.length - 1 */\n      tag_53\n      jump\t// in\n    tag_114:\n        /* \"Practical2-RockPaperScissors-Jason.sol\":3919:3954  gameHistory[gameHistory.length - 1] */\n      dup2\n      sload\n      dup2\n      lt\n      tag_116\n      jumpi\n      tag_116\n      tag_56\n      jump\t// in\n    tag_116:\n      swap1\n      0x00\n      mstore\n      keccak256(0x00, 0x20)\n      swap1\n      0x05\n      mul\n      add\n        /* \"Practical2-RockPaperScissors-Jason.sol\":3919:3960  gameHistory[gameHistory.length - 1].user1 */\n      0x00\n      add\n        /* \"Practical2-RockPaperScissors-Jason.sol\":3919:3971  gameHistory[gameHistory.length - 1].user1.userOption */\n      0x01\n      add\n      sload\n        /* \"Practical2-RockPaperScissors-Jason.sol\":3919:4027  gameHistory[gameHistory.length - 1].user1.userOption == gameHistory[gameHistory.length - 1].user2.userOption */\n      sub\n        /* \"Practical2-RockPaperScissors-Jason.sol\":3915:4907  if (gameHistory[gameHistory.length - 1].user1.userOption == gameHistory[gameHistory.length - 1].user2.userOption) {... */\n      tag_118\n      jumpi\n        /* \"Practical2-RockPaperScissors-Jason.sol\":4043:4099  gameHistory[gameHistory.length - 1].finalResult = \"Tied\" */\n      0x40\n      dup1\n      mload\n      dup1\n      dup3\n      add\n      swap1\n      swap2\n      mstore\n      0x04\n      dup2\n      mstore\n      shl(0xe2, 0x151a5959)\n      0x20\n      dup3\n      add\n      mstore\n        /* \"Practical2-RockPaperScissors-Jason.sol\":4043:4054  gameHistory */\n      0x01\n        /* \"Practical2-RockPaperScissors-Jason.sol\":4055:4073  gameHistory.length */\n      dup1\n      sload\n        /* \"Practical2-RockPaperScissors-Jason.sol\":4055:4077  gameHistory.length - 1 */\n      tag_119\n      swap1\n        /* \"Practical2-RockPaperScissors-Jason.sol\":4043:4054  gameHistory */\n      dup3\n      swap1\n        /* \"Practical2-RockPaperScissors-Jason.sol\":4055:4077  gameHistory.length - 1 */\n      tag_53\n      jump\t// in\n    tag_119:\n        /* \"Practical2-RockPaperScissors-Jason.sol\":4043:4078  gameHistory[gameHistory.length - 1] */\n      dup2\n      sload\n      dup2\n      lt\n      tag_121\n      jumpi\n      tag_121\n      tag_56\n      jump\t// in\n    tag_121:\n      swap1\n      0x00\n      mstore\n      keccak256(0x00, 0x20)\n      swap1\n      0x05\n      mul\n      add\n        /* \"Practical2-RockPaperScissors-Jason.sol\":4043:4090  gameHistory[gameHistory.length - 1].finalResult */\n      0x04\n      add\n        /* \"Practical2-RockPaperScissors-Jason.sol\":4043:4099  gameHistory[gameHistory.length - 1].finalResult = \"Tied\" */\n      swap1\n      dup2\n      tag_123\n      swap2\n      swap1\n      tag_51\n      jump\t// in\n    tag_123:\n      pop\n        /* \"Practical2-RockPaperScissors-Jason.sol\":4118:4136  showResult(\"Tied\") */\n      0xcde5c32c0a45fd8aa4b65ea8003fc9da9acd5e2c6c24a9fcce6ab79cabbd9122\n      mload(0x40)\n      tag_124\n      swap1\n        /* \"#utility.yul\":8085:8087   */\n      0x20\n        /* \"#utility.yul\":8067:8088   */\n      dup1\n      dup3\n      mstore\n        /* \"#utility.yul\":8124:8125   */\n      0x04\n        /* \"#utility.yul\":8104:8122   */\n      swap1\n      dup3\n      add\n        /* \"#utility.yul\":8097:8126   */\n      mstore\n      shl(0xe2, 0x151a5959)\n        /* \"#utility.yul\":8157:8159   */\n      0x40\n        /* \"#utility.yul\":8142:8160   */\n      dup3\n      add\n        /* \"#utility.yul\":8135:8169   */\n      mstore\n        /* \"#utility.yul\":8201:8203   */\n      0x60\n        /* \"#utility.yul\":8186:8204   */\n      add\n      swap1\n        /* \"#utility.yul\":7883:8210   */\n      jump\n        /* \"Practical2-RockPaperScissors-Jason.sol\":4118:4136  showResult(\"Tied\") */\n    tag_124:\n      mload(0x40)\n      dup1\n      swap2\n      sub\n      swap1\n      log1\n        /* \"Practical2-RockPaperScissors-Jason.sol\":3756:4913  function game () private {... */\n      jump\t// out\n        /* \"Practical2-RockPaperScissors-Jason.sol\":3915:4907  if (gameHistory[gameHistory.length - 1].user1.userOption == gameHistory[gameHistory.length - 1].user2.userOption) {... */\n    tag_118:\n        /* \"Practical2-RockPaperScissors-Jason.sol\":4197:4208  gameHistory */\n      0x01\n        /* \"Practical2-RockPaperScissors-Jason.sol\":4209:4227  gameHistory.length */\n      dup1\n      sload\n        /* \"Practical2-RockPaperScissors-Jason.sol\":4209:4231  gameHistory.length - 1 */\n      tag_127\n      swap1\n        /* \"Practical2-RockPaperScissors-Jason.sol\":4197:4208  gameHistory */\n      dup3\n      swap1\n        /* \"Practical2-RockPaperScissors-Jason.sol\":4209:4231  gameHistory.length - 1 */\n      tag_53\n      jump\t// in\n    tag_127:\n        /* \"Practical2-RockPaperScissors-Jason.sol\":4197:4232  gameHistory[gameHistory.length - 1] */\n      dup2\n      sload\n      dup2\n      lt\n      tag_129\n      jumpi\n      tag_129\n      tag_56\n      jump\t// in\n    tag_129:\n      swap1\n      0x00\n      mstore\n      keccak256(0x00, 0x20)\n      swap1\n      0x05\n      mul\n      add\n        /* \"Practical2-RockPaperScissors-Jason.sol\":4197:4238  gameHistory[gameHistory.length - 1].user1 */\n      0x00\n      add\n        /* \"Practical2-RockPaperScissors-Jason.sol\":4197:4249  gameHistory[gameHistory.length - 1].user1.userOption */\n      0x01\n      add\n      sload\n        /* \"Practical2-RockPaperScissors-Jason.sol\":4253:4254  1 */\n      0x01\n        /* \"Practical2-RockPaperScissors-Jason.sol\":4197:4254  gameHistory[gameHistory.length - 1].user1.userOption == 1 */\n      eq\n        /* \"Practical2-RockPaperScissors-Jason.sol\":4197:4315  gameHistory[gameHistory.length - 1].user1.userOption == 1 && gameHistory[gameHistory.length - 1].user2.userOption == 2 */\n      dup1\n      iszero\n      tag_131\n      jumpi\n      pop\n        /* \"Practical2-RockPaperScissors-Jason.sol\":4258:4269  gameHistory */\n      0x01\n        /* \"Practical2-RockPaperScissors-Jason.sol\":4270:4288  gameHistory.length */\n      dup1\n      sload\n        /* \"Practical2-RockPaperScissors-Jason.sol\":4270:4292  gameHistory.length - 1 */\n      tag_132\n      swap1\n        /* \"Practical2-RockPaperScissors-Jason.sol\":4258:4269  gameHistory */\n      dup3\n      swap1\n        /* \"Practical2-RockPaperScissors-Jason.sol\":4270:4292  gameHistory.length - 1 */\n      tag_53\n      jump\t// in\n    tag_132:\n        /* \"Practical2-RockPaperScissors-Jason.sol\":4258:4293  gameHistory[gameHistory.length - 1] */\n      dup2\n      sload\n      dup2\n      lt\n      tag_134\n      jumpi\n      tag_134\n      tag_56\n      jump\t// in\n    tag_134:\n      swap1\n      0x00\n      mstore\n      keccak256(0x00, 0x20)\n      swap1\n      0x05\n      mul\n      add\n        /* \"Practical2-RockPaperScissors-Jason.sol\":4258:4299  gameHistory[gameHistory.length - 1].user2 */\n      0x02\n      add\n        /* \"Practical2-RockPaperScissors-Jason.sol\":4258:4310  gameHistory[gameHistory.length - 1].user2.userOption */\n      0x01\n      add\n      sload\n        /* \"Practical2-RockPaperScissors-Jason.sol\":4314:4315  2 */\n      0x02\n        /* \"Practical2-RockPaperScissors-Jason.sol\":4258:4315  gameHistory[gameHistory.length - 1].user2.userOption == 2 */\n      eq\n        /* \"Practical2-RockPaperScissors-Jason.sol\":4197:4315  gameHistory[gameHistory.length - 1].user1.userOption == 1 && gameHistory[gameHistory.length - 1].user2.userOption == 2 */\n    tag_131:\n        /* \"Practical2-RockPaperScissors-Jason.sol\":4196:4456  (gameHistory[gameHistory.length - 1].user1.userOption == 1 && gameHistory[gameHistory.length - 1].user2.userOption == 2) ||... */\n      dup1\n      tag_141\n      jumpi\n      pop\n        /* \"Practical2-RockPaperScissors-Jason.sol\":4337:4348  gameHistory */\n      0x01\n        /* \"Practical2-RockPaperScissors-Jason.sol\":4349:4367  gameHistory.length */\n      dup1\n      sload\n        /* \"Practical2-RockPaperScissors-Jason.sol\":4349:4371  gameHistory.length - 1 */\n      tag_137\n      swap1\n        /* \"Practical2-RockPaperScissors-Jason.sol\":4337:4348  gameHistory */\n      dup3\n      swap1\n        /* \"Practical2-RockPaperScissors-Jason.sol\":4349:4371  gameHistory.length - 1 */\n      tag_53\n      jump\t// in\n    tag_137:\n        /* \"Practical2-RockPaperScissors-Jason.sol\":4337:4372  gameHistory[gameHistory.length - 1] */\n      dup2\n      sload\n      dup2\n      lt\n      tag_139\n      jumpi\n      tag_139\n      tag_56\n      jump\t// in\n    tag_139:\n      swap1\n      0x00\n      mstore\n      keccak256(0x00, 0x20)\n      swap1\n      0x05\n      mul\n      add\n        /* \"Practical2-RockPaperScissors-Jason.sol\":4337:4378  gameHistory[gameHistory.length - 1].user1 */\n      0x00\n      add\n        /* \"Practical2-RockPaperScissors-Jason.sol\":4337:4389  gameHistory[gameHistory.length - 1].user1.userOption */\n      0x01\n      add\n      sload\n        /* \"Practical2-RockPaperScissors-Jason.sol\":4393:4394  3 */\n      0x03\n        /* \"Practical2-RockPaperScissors-Jason.sol\":4337:4394  gameHistory[gameHistory.length - 1].user1.userOption == 3 */\n      eq\n        /* \"Practical2-RockPaperScissors-Jason.sol\":4337:4455  gameHistory[gameHistory.length - 1].user1.userOption == 3 && gameHistory[gameHistory.length - 1].user2.userOption == 1 */\n      dup1\n      iszero\n      tag_141\n      jumpi\n      pop\n        /* \"Practical2-RockPaperScissors-Jason.sol\":4398:4409  gameHistory */\n      0x01\n        /* \"Practical2-RockPaperScissors-Jason.sol\":4410:4428  gameHistory.length */\n      dup1\n      sload\n        /* \"Practical2-RockPaperScissors-Jason.sol\":4410:4432  gameHistory.length - 1 */\n      tag_142\n      swap1\n        /* \"Practical2-RockPaperScissors-Jason.sol\":4398:4409  gameHistory */\n      dup3\n      swap1\n        /* \"Practical2-RockPaperScissors-Jason.sol\":4410:4432  gameHistory.length - 1 */\n      tag_53\n      jump\t// in\n    tag_142:\n        /* \"Practical2-RockPaperScissors-Jason.sol\":4398:4433  gameHistory[gameHistory.length - 1] */\n      dup2\n      sload\n      dup2\n      lt\n      tag_144\n      jumpi\n      tag_144\n      tag_56\n      jump\t// in\n    tag_144:\n      swap1\n      0x00\n      mstore\n      keccak256(0x00, 0x20)\n      swap1\n      0x05\n      mul\n      add\n        /* \"Practical2-RockPaperScissors-Jason.sol\":4398:4439  gameHistory[gameHistory.length - 1].user2 */\n      0x02\n      add\n        /* \"Practical2-RockPaperScissors-Jason.sol\":4398:4450  gameHistory[gameHistory.length - 1].user2.userOption */\n      0x01\n      add\n      sload\n        /* \"Practical2-RockPaperScissors-Jason.sol\":4454:4455  1 */\n      0x01\n        /* \"Practical2-RockPaperScissors-Jason.sol\":4398:4455  gameHistory[gameHistory.length - 1].user2.userOption == 1 */\n      eq\n        /* \"Practical2-RockPaperScissors-Jason.sol\":4337:4455  gameHistory[gameHistory.length - 1].user1.userOption == 3 && gameHistory[gameHistory.length - 1].user2.userOption == 1 */\n    tag_141:\n        /* \"Practical2-RockPaperScissors-Jason.sol\":4196:4596  (gameHistory[gameHistory.length - 1].user1.userOption == 1 && gameHistory[gameHistory.length - 1].user2.userOption == 2) ||... */\n      dup1\n      tag_151\n      jumpi\n      pop\n        /* \"Practical2-RockPaperScissors-Jason.sol\":4477:4488  gameHistory */\n      0x01\n        /* \"Practical2-RockPaperScissors-Jason.sol\":4489:4507  gameHistory.length */\n      dup1\n      sload\n        /* \"Practical2-RockPaperScissors-Jason.sol\":4489:4511  gameHistory.length - 1 */\n      tag_147\n      swap1\n        /* \"Practical2-RockPaperScissors-Jason.sol\":4477:4488  gameHistory */\n      dup3\n      swap1\n        /* \"Practical2-RockPaperScissors-Jason.sol\":4489:4511  gameHistory.length - 1 */\n      tag_53\n      jump\t// in\n    tag_147:\n        /* \"Practical2-RockPaperScissors-Jason.sol\":4477:4512  gameHistory[gameHistory.length - 1] */\n      dup2\n      sload\n      dup2\n      lt\n      tag_149\n      jumpi\n      tag_149\n      tag_56\n      jump\t// in\n    tag_149:\n      swap1\n      0x00\n      mstore\n      keccak256(0x00, 0x20)\n      swap1\n      0x05\n      mul\n      add\n        /* \"Practical2-RockPaperScissors-Jason.sol\":4477:4518  gameHistory[gameHistory.length - 1].user1 */\n      0x00\n      add\n        /* \"Practical2-RockPaperScissors-Jason.sol\":4477:4529  gameHistory[gameHistory.length - 1].user1.userOption */\n      0x01\n      add\n      sload\n        /* \"Practical2-RockPaperScissors-Jason.sol\":4533:4534  2 */\n      0x02\n        /* \"Practical2-RockPaperScissors-Jason.sol\":4477:4534  gameHistory[gameHistory.length - 1].user1.userOption == 2 */\n      eq\n        /* \"Practical2-RockPaperScissors-Jason.sol\":4477:4595  gameHistory[gameHistory.length - 1].user1.userOption == 2 && gameHistory[gameHistory.length - 1].user2.userOption == 3 */\n      dup1\n      iszero\n      tag_151\n      jumpi\n      pop\n        /* \"Practical2-RockPaperScissors-Jason.sol\":4538:4549  gameHistory */\n      0x01\n        /* \"Practical2-RockPaperScissors-Jason.sol\":4550:4568  gameHistory.length */\n      dup1\n      sload\n        /* \"Practical2-RockPaperScissors-Jason.sol\":4550:4572  gameHistory.length - 1 */\n      tag_152\n      swap1\n        /* \"Practical2-RockPaperScissors-Jason.sol\":4538:4549  gameHistory */\n      dup3\n      swap1\n        /* \"Practical2-RockPaperScissors-Jason.sol\":4550:4572  gameHistory.length - 1 */\n      tag_53\n      jump\t// in\n    tag_152:\n        /* \"Practical2-RockPaperScissors-Jason.sol\":4538:4573  gameHistory[gameHistory.length - 1] */\n      dup2\n      sload\n      dup2\n      lt\n      tag_154\n      jumpi\n      tag_154\n      tag_56\n      jump\t// in\n    tag_154:\n      swap1\n      0x00\n      mstore\n      keccak256(0x00, 0x20)\n      swap1\n      0x05\n      mul\n      add\n        /* \"Practical2-RockPaperScissors-Jason.sol\":4538:4579  gameHistory[gameHistory.length - 1].user2 */\n      0x02\n      add\n        /* \"Practical2-RockPaperScissors-Jason.sol\":4538:4590  gameHistory[gameHistory.length - 1].user2.userOption */\n      0x01\n      add\n      sload\n        /* \"Practical2-RockPaperScissors-Jason.sol\":4594:4595  3 */\n      0x03\n        /* \"Practical2-RockPaperScissors-Jason.sol\":4538:4595  gameHistory[gameHistory.length - 1].user2.userOption == 3 */\n      eq\n        /* \"Practical2-RockPaperScissors-Jason.sol\":4477:4595  gameHistory[gameHistory.length - 1].user1.userOption == 2 && gameHistory[gameHistory.length - 1].user2.userOption == 3 */\n    tag_151:\n        /* \"Practical2-RockPaperScissors-Jason.sol\":4175:4897  if (... */\n      iszero\n      tag_156\n      jumpi\n        /* \"Practical2-RockPaperScissors-Jason.sol\":4629:4690  gameHistory[gameHistory.length - 1].finalResult = \"User2 win\" */\n      0x40\n      dup1\n      mload\n      dup1\n      dup3\n      add\n      swap1\n      swap2\n      mstore\n      0x09\n      dup2\n      mstore\n      shl(0xb9, 0x2ab9b2b919103bb4b7)\n      0x20\n      dup3\n      add\n      mstore\n        /* \"Practical2-RockPaperScissors-Jason.sol\":4629:4640  gameHistory */\n      0x01\n        /* \"Practical2-RockPaperScissors-Jason.sol\":4641:4659  gameHistory.length */\n      dup1\n      sload\n        /* \"Practical2-RockPaperScissors-Jason.sol\":4641:4663  gameHistory.length - 1 */\n      tag_157\n      swap1\n        /* \"Practical2-RockPaperScissors-Jason.sol\":4629:4640  gameHistory */\n      dup3\n      swap1\n        /* \"Practical2-RockPaperScissors-Jason.sol\":4641:4663  gameHistory.length - 1 */\n      tag_53\n      jump\t// in\n    tag_157:\n        /* \"Practical2-RockPaperScissors-Jason.sol\":4629:4664  gameHistory[gameHistory.length - 1] */\n      dup2\n      sload\n      dup2\n      lt\n      tag_159\n      jumpi\n      tag_159\n      tag_56\n      jump\t// in\n    tag_159:\n      swap1\n      0x00\n      mstore\n      keccak256(0x00, 0x20)\n      swap1\n      0x05\n      mul\n      add\n        /* \"Practical2-RockPaperScissors-Jason.sol\":4629:4676  gameHistory[gameHistory.length - 1].finalResult */\n      0x04\n      add\n        /* \"Practical2-RockPaperScissors-Jason.sol\":4629:4690  gameHistory[gameHistory.length - 1].finalResult = \"User2 win\" */\n      swap1\n      dup2\n      tag_161\n      swap2\n      swap1\n      tag_51\n      jump\t// in\n    tag_161:\n      pop\n        /* \"Practical2-RockPaperScissors-Jason.sol\":4713:4736  showResult(\"User2 win\") */\n      0xcde5c32c0a45fd8aa4b65ea8003fc9da9acd5e2c6c24a9fcce6ab79cabbd9122\n      mload(0x40)\n      tag_124\n      swap1\n        /* \"#utility.yul\":8417:8419   */\n      0x20\n        /* \"#utility.yul\":8399:8420   */\n      dup1\n      dup3\n      mstore\n        /* \"#utility.yul\":8456:8457   */\n      0x09\n        /* \"#utility.yul\":8436:8454   */\n      swap1\n      dup3\n      add\n        /* \"#utility.yul\":8429:8458   */\n      mstore\n      shl(0xb9, 0x2ab9b2b919103bb4b7)\n        /* \"#utility.yul\":8489:8491   */\n      0x40\n        /* \"#utility.yul\":8474:8492   */\n      dup3\n      add\n        /* \"#utility.yul\":8467:8506   */\n      mstore\n        /* \"#utility.yul\":8538:8540   */\n      0x60\n        /* \"#utility.yul\":8523:8541   */\n      add\n      swap1\n        /* \"#utility.yul\":8215:8547   */\n      jump\n        /* \"Practical2-RockPaperScissors-Jason.sol\":4175:4897  if (... */\n    tag_156:\n        /* \"Practical2-RockPaperScissors-Jason.sol\":4775:4836  gameHistory[gameHistory.length - 1].finalResult = \"User1 win\" */\n      0x40\n      dup1\n      mload\n      dup1\n      dup3\n      add\n      swap1\n      swap2\n      mstore\n      0x09\n      dup2\n      mstore\n      shl(0xb9, 0x2ab9b2b918903bb4b7)\n      0x20\n      dup3\n      add\n      mstore\n        /* \"Practical2-RockPaperScissors-Jason.sol\":4775:4786  gameHistory */\n      0x01\n        /* \"Practical2-RockPaperScissors-Jason.sol\":4787:4805  gameHistory.length */\n      dup1\n      sload\n        /* \"Practical2-RockPaperScissors-Jason.sol\":4787:4809  gameHistory.length - 1 */\n      tag_165\n      swap1\n        /* \"Practical2-RockPaperScissors-Jason.sol\":4775:4786  gameHistory */\n      dup3\n      swap1\n        /* \"Practical2-RockPaperScissors-Jason.sol\":4787:4809  gameHistory.length - 1 */\n      tag_53\n      jump\t// in\n    tag_165:\n        /* \"Practical2-RockPaperScissors-Jason.sol\":4775:4810  gameHistory[gameHistory.length - 1] */\n      dup2\n      sload\n      dup2\n      lt\n      tag_167\n      jumpi\n      tag_167\n      tag_56\n      jump\t// in\n    tag_167:\n      swap1\n      0x00\n      mstore\n      keccak256(0x00, 0x20)\n      swap1\n      0x05\n      mul\n      add\n        /* \"Practical2-RockPaperScissors-Jason.sol\":4775:4822  gameHistory[gameHistory.length - 1].finalResult */\n      0x04\n      add\n        /* \"Practical2-RockPaperScissors-Jason.sol\":4775:4836  gameHistory[gameHistory.length - 1].finalResult = \"User1 win\" */\n      swap1\n      dup2\n      tag_169\n      swap2\n      swap1\n      tag_51\n      jump\t// in\n    tag_169:\n      pop\n        /* \"Practical2-RockPaperScissors-Jason.sol\":4859:4882  showResult(\"User1 win\") */\n      0xcde5c32c0a45fd8aa4b65ea8003fc9da9acd5e2c6c24a9fcce6ab79cabbd9122\n      mload(0x40)\n      tag_124\n      swap1\n        /* \"#utility.yul\":8754:8756   */\n      0x20\n        /* \"#utility.yul\":8736:8757   */\n      dup1\n      dup3\n      mstore\n        /* \"#utility.yul\":8793:8794   */\n      0x09\n        /* \"#utility.yul\":8773:8791   */\n      swap1\n      dup3\n      add\n        /* \"#utility.yul\":8766:8795   */\n      mstore\n      shl(0xb9, 0x2ab9b2b918903bb4b7)\n        /* \"#utility.yul\":8826:8828   */\n      0x40\n        /* \"#utility.yul\":8811:8829   */\n      dup3\n      add\n        /* \"#utility.yul\":8804:8843   */\n      mstore\n        /* \"#utility.yul\":8875:8877   */\n      0x60\n        /* \"#utility.yul\":8860:8878   */\n      add\n      swap1\n        /* \"#utility.yul\":8552:8884   */\n      jump\n    tag_48:\n      0x40\n      dup1\n      mload\n      0xa0\n      dup2\n      add\n      swap1\n      swap2\n      mstore\n      0x00\n      0x60\n      dup3\n      add\n      dup2\n      dup2\n      mstore\n      0x80\n      dup4\n      add\n      swap2\n      swap1\n      swap2\n      mstore\n      dup2\n      swap1\n      dup2\n      mstore\n      0x20\n      add\n      tag_173\n      0x40\n      dup1\n      mload\n      dup1\n      dup3\n      add\n      swap1\n      swap2\n      mstore\n      0x00\n      dup1\n      dup3\n      mstore\n      0x20\n      dup3\n      add\n      mstore\n      swap1\n      jump\n    tag_173:\n      dup2\n      mstore\n      0x20\n      add\n      0x60\n      dup2\n      mstore\n      pop\n      swap1\n      jump\t// out\n        /* \"#utility.yul\":194:908   */\n    tag_175:\n        /* \"#utility.yul\":263:308   */\n      tag_184\n        /* \"#utility.yul\":304:307   */\n      dup3\n        /* \"#utility.yul\":296:301   */\n      dup3\n        /* \"#utility.yul\":290:302   */\n      mload\n        /* \"#utility.yul\":92:104   */\n      dup1\n      mload\n      sub(shl(0xa0, 0x01), 0x01)\n        /* \"#utility.yul\":88:126   */\n      and\n        /* \"#utility.yul\":76:127   */\n      dup3\n      mstore\n        /* \"#utility.yul\":176:180   */\n      0x20\n        /* \"#utility.yul\":165:181   */\n      swap1\n      dup2\n      add\n        /* \"#utility.yul\":159:182   */\n      mload\n        /* \"#utility.yul\":143:157   */\n      swap2\n      add\n        /* \"#utility.yul\":136:183   */\n      mstore\n        /* \"#utility.yul\":14:189   */\n      jump\n        /* \"#utility.yul\":263:308   */\n    tag_184:\n        /* \"#utility.yul\":245:248   */\n      0x00\n        /* \"#utility.yul\":327:331   */\n      0x20\n        /* \"#utility.yul\":377:379   */\n      dup1\n        /* \"#utility.yul\":370:375   */\n      dup4\n        /* \"#utility.yul\":366:380   */\n      add\n        /* \"#utility.yul\":360:381   */\n      mload\n        /* \"#utility.yul\":390:446   */\n      tag_185\n        /* \"#utility.yul\":440:444   */\n      0x40\n        /* \"#utility.yul\":435:438   */\n      dup7\n        /* \"#utility.yul\":431:445   */\n      add\n        /* \"#utility.yul\":417:429   */\n      dup3\n        /* \"#utility.yul\":92:104   */\n      dup1\n      mload\n      sub(shl(0xa0, 0x01), 0x01)\n        /* \"#utility.yul\":88:126   */\n      and\n        /* \"#utility.yul\":76:127   */\n      dup3\n      mstore\n        /* \"#utility.yul\":176:180   */\n      0x20\n        /* \"#utility.yul\":165:181   */\n      swap1\n      dup2\n      add\n        /* \"#utility.yul\":159:182   */\n      mload\n        /* \"#utility.yul\":143:157   */\n      swap2\n      add\n        /* \"#utility.yul\":136:183   */\n      mstore\n        /* \"#utility.yul\":14:189   */\n      jump\n        /* \"#utility.yul\":390:446   */\n    tag_185:\n      pop\n        /* \"#utility.yul\":494:498   */\n      0x40\n        /* \"#utility.yul\":487:492   */\n      dup4\n        /* \"#utility.yul\":483:499   */\n      add\n        /* \"#utility.yul\":477:500   */\n      mload\n        /* \"#utility.yul\":532:536   */\n      0xa0\n        /* \"#utility.yul\":525:529   */\n      0x80\n        /* \"#utility.yul\":520:523   */\n      dup7\n        /* \"#utility.yul\":516:530   */\n      add\n        /* \"#utility.yul\":509:537   */\n      mstore\n        /* \"#utility.yul\":566:580   */\n      dup1\n        /* \"#utility.yul\":560:581   */\n      mload\n        /* \"#utility.yul\":613:619   */\n      dup1\n        /* \"#utility.yul\":606:610   */\n      0xa0\n        /* \"#utility.yul\":601:604   */\n      dup8\n        /* \"#utility.yul\":597:611   */\n      add\n        /* \"#utility.yul\":590:620   */\n      mstore\n        /* \"#utility.yul\":638:639   */\n      0x00\n        /* \"#utility.yul\":648:791   */\n    tag_186:\n        /* \"#utility.yul\":662:668   */\n      dup2\n        /* \"#utility.yul\":659:660   */\n      dup2\n        /* \"#utility.yul\":656:669   */\n      lt\n        /* \"#utility.yul\":648:791   */\n      iszero\n      tag_188\n      jumpi\n        /* \"#utility.yul\":752:774   */\n      dup3\n      dup2\n      add\n        /* \"#utility.yul\":748:779   */\n      dup5\n      add\n        /* \"#utility.yul\":742:780   */\n      mload\n        /* \"#utility.yul\":723:734   */\n      dup8\n      dup3\n      add\n        /* \"#utility.yul\":736:739   */\n      0xc0\n        /* \"#utility.yul\":719:740   */\n      add\n        /* \"#utility.yul\":712:781   */\n      mstore\n        /* \"#utility.yul\":677:687   */\n      dup4\n      add\n        /* \"#utility.yul\":648:791   */\n      jump(tag_186)\n    tag_188:\n        /* \"#utility.yul\":652:655   */\n      pop\n        /* \"#utility.yul\":835:836   */\n      0x00\n        /* \"#utility.yul\":829:832   */\n      0xc0\n        /* \"#utility.yul\":820:826   */\n      dup3\n        /* \"#utility.yul\":815:818   */\n      dup9\n        /* \"#utility.yul\":811:827   */\n      add\n        /* \"#utility.yul\":807:833   */\n      add\n        /* \"#utility.yul\":800:837   */\n      mstore\n        /* \"#utility.yul\":898:901   */\n      0xc0\n        /* \"#utility.yul\":891:893   */\n      0x1f\n        /* \"#utility.yul\":887:894   */\n      not\n        /* \"#utility.yul\":882:884   */\n      0x1f\n        /* \"#utility.yul\":874:880   */\n      dup4\n        /* \"#utility.yul\":870:885   */\n      add\n        /* \"#utility.yul\":866:895   */\n      and\n        /* \"#utility.yul\":861:864   */\n      dup8\n        /* \"#utility.yul\":857:896   */\n      add\n        /* \"#utility.yul\":853:902   */\n      add\n        /* \"#utility.yul\":846:902   */\n      swap4\n      pop\n      pop\n      pop\n      pop\n        /* \"#utility.yul\":194:908   */\n      swap3\n      swap2\n      pop\n      pop\n      jump\t// out\n        /* \"#utility.yul\":913:1753   */\n    tag_10:\n        /* \"#utility.yul\":1103:1107   */\n      0x00\n        /* \"#utility.yul\":1132:1134   */\n      0x20\n        /* \"#utility.yul\":1172:1174   */\n      dup1\n        /* \"#utility.yul\":1161:1170   */\n      dup4\n        /* \"#utility.yul\":1157:1175   */\n      add\n        /* \"#utility.yul\":1202:1204   */\n      dup2\n        /* \"#utility.yul\":1191:1200   */\n      dup5\n        /* \"#utility.yul\":1184:1205   */\n      mstore\n        /* \"#utility.yul\":1225:1231   */\n      dup1\n        /* \"#utility.yul\":1260:1266   */\n      dup6\n        /* \"#utility.yul\":1254:1267   */\n      mload\n        /* \"#utility.yul\":1291:1297   */\n      dup1\n        /* \"#utility.yul\":1283:1289   */\n      dup4\n        /* \"#utility.yul\":1276:1298   */\n      mstore\n        /* \"#utility.yul\":1329:1331   */\n      0x40\n        /* \"#utility.yul\":1318:1327   */\n      dup7\n        /* \"#utility.yul\":1314:1332   */\n      add\n        /* \"#utility.yul\":1307:1332   */\n      swap2\n      pop\n        /* \"#utility.yul\":1391:1393   */\n      0x40\n        /* \"#utility.yul\":1381:1387   */\n      dup2\n        /* \"#utility.yul\":1378:1379   */\n      0x05\n        /* \"#utility.yul\":1374:1388   */\n      shl\n        /* \"#utility.yul\":1363:1372   */\n      dup8\n        /* \"#utility.yul\":1359:1389   */\n      add\n        /* \"#utility.yul\":1355:1394   */\n      add\n        /* \"#utility.yul\":1341:1394   */\n      swap3\n      pop\n        /* \"#utility.yul\":1429:1431   */\n      dup4\n        /* \"#utility.yul\":1421:1427   */\n      dup8\n        /* \"#utility.yul\":1417:1432   */\n      add\n        /* \"#utility.yul\":1450:1451   */\n      0x00\n        /* \"#utility.yul\":1460:1724   */\n    tag_190:\n        /* \"#utility.yul\":1474:1480   */\n      dup3\n        /* \"#utility.yul\":1471:1472   */\n      dup2\n        /* \"#utility.yul\":1468:1481   */\n      lt\n        /* \"#utility.yul\":1460:1724   */\n      iszero\n      tag_192\n      jumpi\n        /* \"#utility.yul\":1567:1569   */\n      0x3f\n        /* \"#utility.yul\":1563:1570   */\n      not\n        /* \"#utility.yul\":1551:1560   */\n      dup9\n        /* \"#utility.yul\":1543:1549   */\n      dup7\n        /* \"#utility.yul\":1539:1561   */\n      sub\n        /* \"#utility.yul\":1535:1571   */\n      add\n        /* \"#utility.yul\":1530:1533   */\n      dup5\n        /* \"#utility.yul\":1523:1572   */\n      mstore\n        /* \"#utility.yul\":1595:1644   */\n      tag_193\n        /* \"#utility.yul\":1637:1643   */\n      dup6\n        /* \"#utility.yul\":1628:1634   */\n      dup4\n        /* \"#utility.yul\":1622:1635   */\n      mload\n        /* \"#utility.yul\":1595:1644   */\n      tag_175\n      jump\t// in\n    tag_193:\n        /* \"#utility.yul\":1585:1644   */\n      swap5\n      pop\n        /* \"#utility.yul\":1702:1714   */\n      swap3\n      dup6\n      add\n      swap3\n        /* \"#utility.yul\":1667:1682   */\n      swap1\n      dup6\n      add\n      swap1\n        /* \"#utility.yul\":1496:1497   */\n      0x01\n        /* \"#utility.yul\":1489:1498   */\n      add\n        /* \"#utility.yul\":1460:1724   */\n      jump(tag_190)\n    tag_192:\n      pop\n        /* \"#utility.yul\":1741:1747   */\n      swap3\n      swap8\n        /* \"#utility.yul\":913:1753   */\n      swap7\n      pop\n      pop\n      pop\n      pop\n      pop\n      pop\n      pop\n      jump\t// out\n        /* \"#utility.yul\":1758:1938   */\n    tag_13:\n        /* \"#utility.yul\":1817:1823   */\n      0x00\n        /* \"#utility.yul\":1870:1872   */\n      0x20\n        /* \"#utility.yul\":1858:1867   */\n      dup3\n        /* \"#utility.yul\":1849:1856   */\n      dup5\n        /* \"#utility.yul\":1845:1868   */\n      sub\n        /* \"#utility.yul\":1841:1873   */\n      slt\n        /* \"#utility.yul\":1838:1890   */\n      iszero\n      tag_195\n      jumpi\n        /* \"#utility.yul\":1886:1887   */\n      0x00\n        /* \"#utility.yul\":1883:1884   */\n      dup1\n        /* \"#utility.yul\":1876:1888   */\n      revert\n        /* \"#utility.yul\":1838:1890   */\n    tag_195:\n      pop\n        /* \"#utility.yul\":1909:1932   */\n      calldataload\n      swap2\n        /* \"#utility.yul\":1758:1938   */\n      swap1\n      pop\n      jump\t// out\n        /* \"#utility.yul\":1943:2186   */\n    tag_19:\n        /* \"#utility.yul\":92:104   */\n      dup2\n      mload\n      sub(shl(0xa0, 0x01), 0x01)\n        /* \"#utility.yul\":88:126   */\n      and\n        /* \"#utility.yul\":76:127   */\n      dup2\n      mstore\n        /* \"#utility.yul\":176:180   */\n      0x20\n        /* \"#utility.yul\":165:181   */\n      dup1\n      dup4\n      add\n        /* \"#utility.yul\":159:182   */\n      mload\n        /* \"#utility.yul\":143:157   */\n      swap1\n      dup3\n      add\n        /* \"#utility.yul\":136:183   */\n      mstore\n        /* \"#utility.yul\":2123:2125   */\n      0x40\n        /* \"#utility.yul\":2108:2126   */\n      dup2\n      add\n        /* \"#utility.yul\":2135:2180   */\n    tag_197:\n        /* \"#utility.yul\":1943:2186   */\n      swap3\n      swap2\n      pop\n      pop\n      jump\t// out\n        /* \"#utility.yul\":2191:2448   */\n    tag_24:\n        /* \"#utility.yul\":2368:2370   */\n      0x20\n        /* \"#utility.yul\":2357:2366   */\n      dup2\n        /* \"#utility.yul\":2350:2371   */\n      mstore\n        /* \"#utility.yul\":2331:2335   */\n      0x00\n        /* \"#utility.yul\":2388:2442   */\n      tag_199\n        /* \"#utility.yul\":2438:2440   */\n      0x20\n        /* \"#utility.yul\":2427:2436   */\n      dup4\n        /* \"#utility.yul\":2423:2441   */\n      add\n        /* \"#utility.yul\":2415:2421   */\n      dup5\n        /* \"#utility.yul\":2388:2442   */\n      tag_175\n      jump\t// in\n    tag_199:\n        /* \"#utility.yul\":2380:2442   */\n      swap4\n        /* \"#utility.yul\":2191:2448   */\n      swap3\n      pop\n      pop\n      pop\n      jump\t// out\n        /* \"#utility.yul\":2453:2833   */\n    tag_30:\n        /* \"#utility.yul\":2532:2533   */\n      0x01\n        /* \"#utility.yul\":2528:2540   */\n      dup2\n      dup2\n      shr\n      swap1\n        /* \"#utility.yul\":2575:2587   */\n      dup3\n      and\n      dup1\n        /* \"#utility.yul\":2596:2657   */\n      tag_201\n      jumpi\n        /* \"#utility.yul\":2650:2654   */\n      0x7f\n        /* \"#utility.yul\":2642:2648   */\n      dup3\n        /* \"#utility.yul\":2638:2655   */\n      and\n        /* \"#utility.yul\":2628:2655   */\n      swap2\n      pop\n        /* \"#utility.yul\":2596:2657   */\n    tag_201:\n        /* \"#utility.yul\":2703:2705   */\n      0x20\n        /* \"#utility.yul\":2695:2701   */\n      dup3\n        /* \"#utility.yul\":2692:2706   */\n      lt\n        /* \"#utility.yul\":2672:2690   */\n      dup2\n        /* \"#utility.yul\":2669:2707   */\n      sub\n        /* \"#utility.yul\":2666:2827   */\n      tag_202\n      jumpi\n        /* \"#utility.yul\":2749:2759   */\n      0x4e487b71\n        /* \"#utility.yul\":2744:2747   */\n      0xe0\n        /* \"#utility.yul\":2740:2760   */\n      shl\n        /* \"#utility.yul\":2737:2738   */\n      0x00\n        /* \"#utility.yul\":2730:2761   */\n      mstore\n        /* \"#utility.yul\":2784:2788   */\n      0x22\n        /* \"#utility.yul\":2781:2782   */\n      0x04\n        /* \"#utility.yul\":2774:2789   */\n      mstore\n        /* \"#utility.yul\":2812:2816   */\n      0x24\n        /* \"#utility.yul\":2809:2810   */\n      0x00\n        /* \"#utility.yul\":2802:2817   */\n      revert\n        /* \"#utility.yul\":2666:2827   */\n    tag_202:\n      pop\n        /* \"#utility.yul\":2453:2833   */\n      swap2\n      swap1\n      pop\n      jump\t// out\n        /* \"#utility.yul\":3896:4023   */\n    tag_176:\n        /* \"#utility.yul\":3957:3967   */\n      0x4e487b71\n        /* \"#utility.yul\":3952:3955   */\n      0xe0\n        /* \"#utility.yul\":3948:3968   */\n      shl\n        /* \"#utility.yul\":3945:3946   */\n      0x00\n        /* \"#utility.yul\":3938:3969   */\n      mstore\n        /* \"#utility.yul\":3988:3992   */\n      0x41\n        /* \"#utility.yul\":3985:3986   */\n      0x04\n        /* \"#utility.yul\":3978:3993   */\n      mstore\n        /* \"#utility.yul\":4012:4016   */\n      0x24\n        /* \"#utility.yul\":4009:4010   */\n      0x00\n        /* \"#utility.yul\":4002:4017   */\n      revert\n        /* \"#utility.yul\":4154:4699   */\n    tag_178:\n        /* \"#utility.yul\":4256:4258   */\n      0x1f\n        /* \"#utility.yul\":4251:4254   */\n      dup3\n        /* \"#utility.yul\":4248:4259   */\n      gt\n        /* \"#utility.yul\":4245:4693   */\n      iszero\n      tag_209\n      jumpi\n        /* \"#utility.yul\":4292:4293   */\n      0x00\n        /* \"#utility.yul\":4317:4322   */\n      dup2\n        /* \"#utility.yul\":4313:4315   */\n      dup2\n        /* \"#utility.yul\":4306:4323   */\n      mstore\n        /* \"#utility.yul\":4362:4366   */\n      0x20\n        /* \"#utility.yul\":4358:4360   */\n      dup2\n        /* \"#utility.yul\":4348:4367   */\n      keccak256\n        /* \"#utility.yul\":4432:4434   */\n      0x1f\n        /* \"#utility.yul\":4420:4430   */\n      dup6\n        /* \"#utility.yul\":4416:4435   */\n      add\n        /* \"#utility.yul\":4413:4414   */\n      0x05\n        /* \"#utility.yul\":4409:4436   */\n      shr\n        /* \"#utility.yul\":4403:4407   */\n      dup2\n        /* \"#utility.yul\":4399:4437   */\n      add\n        /* \"#utility.yul\":4468:4472   */\n      0x20\n        /* \"#utility.yul\":4456:4466   */\n      dup7\n        /* \"#utility.yul\":4453:4473   */\n      lt\n        /* \"#utility.yul\":4450:4497   */\n      iszero\n      tag_210\n      jumpi\n      pop\n        /* \"#utility.yul\":4491:4495   */\n      dup1\n        /* \"#utility.yul\":4450:4497   */\n    tag_210:\n        /* \"#utility.yul\":4546:4548   */\n      0x1f\n        /* \"#utility.yul\":4541:4544   */\n      dup6\n        /* \"#utility.yul\":4537:4549   */\n      add\n        /* \"#utility.yul\":4534:4535   */\n      0x05\n        /* \"#utility.yul\":4530:4550   */\n      shr\n        /* \"#utility.yul\":4524:4528   */\n      dup3\n        /* \"#utility.yul\":4520:4551   */\n      add\n        /* \"#utility.yul\":4510:4551   */\n      swap2\n      pop\n        /* \"#utility.yul\":4601:4683   */\n    tag_211:\n        /* \"#utility.yul\":4619:4621   */\n      dup2\n        /* \"#utility.yul\":4612:4617   */\n      dup2\n        /* \"#utility.yul\":4609:4622   */\n      lt\n        /* \"#utility.yul\":4601:4683   */\n      iszero\n      tag_213\n      jumpi\n        /* \"#utility.yul\":4664:4681   */\n      dup3\n      dup2\n      sstore\n        /* \"#utility.yul\":4645:4646   */\n      0x01\n        /* \"#utility.yul\":4634:4647   */\n      add\n        /* \"#utility.yul\":4601:4683   */\n      jump(tag_211)\n    tag_213:\n        /* \"#utility.yul\":4605:4608   */\n      pop\n      pop\n      pop\n        /* \"#utility.yul\":4245:4693   */\n    tag_209:\n        /* \"#utility.yul\":4154:4699   */\n      pop\n      pop\n      pop\n      jump\t// out\n        /* \"#utility.yul\":4875:6227   */\n    tag_51:\n        /* \"#utility.yul\":5001:5004   */\n      dup2\n        /* \"#utility.yul\":4995:5005   */\n      mload\n        /* \"#utility.yul\":5028:5046   */\n      0xffffffffffffffff\n        /* \"#utility.yul\":5020:5026   */\n      dup2\n        /* \"#utility.yul\":5017:5047   */\n      gt\n        /* \"#utility.yul\":5014:5070   */\n      iszero\n      tag_217\n      jumpi\n        /* \"#utility.yul\":5050:5068   */\n      tag_217\n      tag_176\n      jump\t// in\n    tag_217:\n        /* \"#utility.yul\":5079:5176   */\n      tag_218\n        /* \"#utility.yul\":5169:5175   */\n      dup2\n        /* \"#utility.yul\":5129:5167   */\n      tag_219\n        /* \"#utility.yul\":5161:5165   */\n      dup5\n        /* \"#utility.yul\":5155:5166   */\n      sload\n        /* \"#utility.yul\":5129:5167   */\n      tag_30\n      jump\t// in\n    tag_219:\n        /* \"#utility.yul\":5123:5127   */\n      dup5\n        /* \"#utility.yul\":5079:5176   */\n      tag_178\n      jump\t// in\n    tag_218:\n        /* \"#utility.yul\":5231:5235   */\n      0x20\n      dup1\n        /* \"#utility.yul\":5295:5297   */\n      0x1f\n        /* \"#utility.yul\":5284:5298   */\n      dup4\n      gt\n        /* \"#utility.yul\":5312:5313   */\n      0x01\n        /* \"#utility.yul\":5307:5970   */\n      dup2\n      eq\n      tag_221\n      jumpi\n        /* \"#utility.yul\":6014:6015   */\n      0x00\n        /* \"#utility.yul\":6031:6037   */\n      dup5\n        /* \"#utility.yul\":6028:6117   */\n      iszero\n      tag_222\n      jumpi\n      pop\n        /* \"#utility.yul\":6083:6102   */\n      dup6\n      dup4\n      add\n        /* \"#utility.yul\":6077:6103   */\n      mload\n        /* \"#utility.yul\":6028:6117   */\n    tag_222:\n      not(0x00)\n        /* \"#utility.yul\":4832:4833   */\n      0x03\n        /* \"#utility.yul\":4828:4839   */\n      dup7\n      swap1\n      shl\n        /* \"#utility.yul\":4824:4848   */\n      shr\n        /* \"#utility.yul\":4820:4849   */\n      not\n        /* \"#utility.yul\":4810:4850   */\n      and\n        /* \"#utility.yul\":4856:4857   */\n      0x01\n        /* \"#utility.yul\":4852:4863   */\n      dup6\n      swap1\n      shl\n        /* \"#utility.yul\":4807:4864   */\n      or\n        /* \"#utility.yul\":6130:6211   */\n      dup6\n      sstore\n        /* \"#utility.yul\":5277:6221   */\n      jump(tag_213)\n        /* \"#utility.yul\":5307:5970   */\n    tag_221:\n        /* \"#utility.yul\":4101:4102   */\n      0x00\n        /* \"#utility.yul\":4094:4108   */\n      dup6\n      dup2\n      mstore\n        /* \"#utility.yul\":4138:4142   */\n      0x20\n        /* \"#utility.yul\":4125:4143   */\n      dup2\n      keccak256\n      not(0x1f)\n        /* \"#utility.yul\":5343:5363   */\n      dup7\n      and\n      swap2\n        /* \"#utility.yul\":5461:5697   */\n    tag_225:\n        /* \"#utility.yul\":5475:5482   */\n      dup3\n        /* \"#utility.yul\":5472:5473   */\n      dup2\n        /* \"#utility.yul\":5469:5483   */\n      lt\n        /* \"#utility.yul\":5461:5697   */\n      iszero\n      tag_227\n      jumpi\n        /* \"#utility.yul\":5564:5583   */\n      dup9\n      dup7\n      add\n        /* \"#utility.yul\":5558:5584   */\n      mload\n        /* \"#utility.yul\":5543:5585   */\n      dup3\n      sstore\n        /* \"#utility.yul\":5656:5683   */\n      swap5\n      dup5\n      add\n      swap5\n        /* \"#utility.yul\":5624:5625   */\n      0x01\n        /* \"#utility.yul\":5612:5626   */\n      swap1\n      swap2\n      add\n      swap1\n        /* \"#utility.yul\":5491:5510   */\n      dup5\n      add\n        /* \"#utility.yul\":5461:5697   */\n      jump(tag_225)\n    tag_227:\n        /* \"#utility.yul\":5465:5468   */\n      pop\n        /* \"#utility.yul\":5725:5731   */\n      dup6\n        /* \"#utility.yul\":5716:5723   */\n      dup3\n        /* \"#utility.yul\":5713:5732   */\n      lt\n        /* \"#utility.yul\":5710:5911   */\n      iszero\n      tag_228\n      jumpi\n        /* \"#utility.yul\":5786:5805   */\n      dup8\n      dup6\n      add\n        /* \"#utility.yul\":5780:5806   */\n      mload\n      not(0x00)\n        /* \"#utility.yul\":5869:5870   */\n      0x03\n        /* \"#utility.yul\":5865:5879   */\n      dup9\n      swap1\n      shl\n        /* \"#utility.yul\":5881:5884   */\n      0xf8\n        /* \"#utility.yul\":5861:5885   */\n      and\n        /* \"#utility.yul\":5857:5894   */\n      shr\n        /* \"#utility.yul\":5853:5895   */\n      not\n        /* \"#utility.yul\":5838:5896   */\n      and\n        /* \"#utility.yul\":5823:5897   */\n      dup2\n      sstore\n        /* \"#utility.yul\":5710:5911   */\n    tag_228:\n      pop\n      pop\n      pop\n      pop\n      pop\n        /* \"#utility.yul\":5957:5958   */\n      0x01\n        /* \"#utility.yul\":5941:5955   */\n      swap1\n      dup2\n      shl\n        /* \"#utility.yul\":5937:5959   */\n      add\n        /* \"#utility.yul\":5924:5960   */\n      swap1\n      sstore\n      pop\n        /* \"#utility.yul\":4875:6227   */\n      jump\t// out\n        /* \"#utility.yul\":6232:6359   */\n    tag_180:\n        /* \"#utility.yul\":6293:6303   */\n      0x4e487b71\n        /* \"#utility.yul\":6288:6291   */\n      0xe0\n        /* \"#utility.yul\":6284:6304   */\n      shl\n        /* \"#utility.yul\":6281:6282   */\n      0x00\n        /* \"#utility.yul\":6274:6305   */\n      mstore\n        /* \"#utility.yul\":6324:6328   */\n      0x11\n        /* \"#utility.yul\":6321:6322   */\n      0x04\n        /* \"#utility.yul\":6314:6329   */\n      mstore\n        /* \"#utility.yul\":6348:6352   */\n      0x24\n        /* \"#utility.yul\":6345:6346   */\n      0x00\n        /* \"#utility.yul\":6338:6353   */\n      revert\n        /* \"#utility.yul\":6364:6492   */\n    tag_53:\n        /* \"#utility.yul\":6431:6440   */\n      dup2\n      dup2\n      sub\n        /* \"#utility.yul\":6452:6463   */\n      dup2\n      dup2\n      gt\n        /* \"#utility.yul\":6449:6486   */\n      iszero\n      tag_197\n      jumpi\n        /* \"#utility.yul\":6466:6484   */\n      tag_197\n      tag_180\n      jump\t// in\n        /* \"#utility.yul\":6497:6624   */\n    tag_56:\n        /* \"#utility.yul\":6558:6568   */\n      0x4e487b71\n        /* \"#utility.yul\":6553:6556   */\n      0xe0\n        /* \"#utility.yul\":6549:6569   */\n      shl\n        /* \"#utility.yul\":6546:6547   */\n      0x00\n        /* \"#utility.yul\":6539:6570   */\n      mstore\n        /* \"#utility.yul\":6589:6593   */\n      0x32\n        /* \"#utility.yul\":6586:6587   */\n      0x04\n        /* \"#utility.yul\":6579:6594   */\n      mstore\n        /* \"#utility.yul\":6613:6617   */\n      0x24\n        /* \"#utility.yul\":6610:6611   */\n      0x00\n        /* \"#utility.yul\":6603:6618   */\n      revert\n        /* \"#utility.yul\":6629:6764   */\n    tag_63:\n        /* \"#utility.yul\":6668:6671   */\n      0x00\n        /* \"#utility.yul\":6689:6706   */\n      0x01\n      dup3\n      add\n        /* \"#utility.yul\":6686:6729   */\n      tag_236\n      jumpi\n        /* \"#utility.yul\":6709:6727   */\n      tag_236\n      tag_180\n      jump\t// in\n    tag_236:\n      pop\n        /* \"#utility.yul\":6756:6757   */\n      0x01\n        /* \"#utility.yul\":6745:6758   */\n      add\n      swap1\n        /* \"#utility.yul\":6629:6764   */\n      jump\t// out\n\n    auxdata: 0xa2646970667358221220200f7becd2d8abb080e9ad42bbf3f2c27ae5266f7755866ba53acfb511b56b2764736f6c63430008130033\n}\n",
				"bytecode": {
					"linkReferences": {},
					"object": "60806040526000805534801561001457600080fd5b5061100f806100246000396000f3fe608060405234801561001057600080fd5b506004361061004c5760003560e01c8063512ec557146100515780636898f82b1461006f578063e417f4a314610084578063f7c4efbb146100a4575b600080fd5b6100596100c4565b6040516100669190610d6b565b60405180910390f35b61008261007d366004610dcd565b6101fd565b005b610097610092366004610dcd565b61061a565b6040516100669190610de6565b6100b76100b2366004610dcd565b6106c4565b6040516100669190610e08565b60606001805480602002602001604051908101604052809291908181526020016000905b828210156101f45760008481526020908190206040805160a0810182526005860290920180546001600160a01b03908116606085019081526001830154608086015284528251808401845260028301549091168152600382015481860152938301939093526004830180549293929184019161016390610e22565b80601f016020809104026020016040519081016040528092919081815260200182805461018f90610e22565b80156101dc5780601f106101b1576101008083540402835291602001916101dc565b820191906000526020600020905b8154815290600101906020018083116101bf57829003601f168201915b505050505081525050815260200190600101906100e8565b50505050905090565b60025460ff161561024d5760405162461bcd60e51b8152602060048201526015602482015274115c9c9bdc8e881499595b9d1c985b9d0818d85b1b605a1b60448201526064015b60405180910390fd5b6002805460ff1916600117905560405133907f6fd5bea3ad79492c3055c6f6b7b37ca66d63ba4ceef7d04dd901559affbe971a90600090a2806000036102cc5760405162461bcd60e51b815260206004820152601460248201527304572726f723a2043616e277420696e70757420360641b6044820152606401610244565b600381111561031d5760405162461bcd60e51b815260206004820152601e60248201527f4572726f723a2043616e277420696e707574206d6f7265207468616e203300006044820152606401610244565b6000546000036104e45761032f610c85565b600180548082018255600091909152815180517fb10e2d527612073b26eecdfd717e6a320cf44b4afac2b0732d9fcbe2b7fa0cf6600590930292830180546001600160a01b03199081166001600160a01b039384161782556020938401517fb10e2d527612073b26eecdfd717e6a320cf44b4afac2b0732d9fcbe2b7fa0cf78601558386015180517fb10e2d527612073b26eecdfd717e6a320cf44b4afac2b0732d9fcbe2b7fa0cf88701805490931694169390931790559101517fb10e2d527612073b26eecdfd717e6a320cf44b4afac2b0732d9fcbe2b7fa0cf9830155604083015183927fb10e2d527612073b26eecdfd717e6a320cf44b4afac2b0732d9fcbe2b7fa0cfa01906104429082610ec1565b505060018054339250610456908290610f97565b8154811061046657610466610faa565b6000918252602090912060059091020180546001600160a01b0319166001600160a01b0392909216919091179055600180548391906104a6908290610f97565b815481106104b6576104b6610faa565b60009182526020822060016005909202010191909155805490806104d983610fc0565b91905055505061060d565b600180546104f3908290610f97565b8154811061050357610503610faa565b60009182526020909120600590910201546001600160a01b031633036105775760405162461bcd60e51b8152602060048201526024808201527f4572726f723a20596f752063616e6e6f7420706c6179207769746820796f757260448201526339b2b63360e11b6064820152608401610244565b60018054339190610589908290610f97565b8154811061059957610599610faa565b6000918252602090912060059091020160020180546001600160a01b0319166001600160a01b0392909216919091179055600180548291906105dc908290610f97565b815481106105ec576105ec610faa565b60009182526020909120600360059092020101556106086108ae565b600080555b506002805460ff19169055565b60408051808201909152600080825260208201526001548211156106785760405162461bcd60e51b815260206004820152601560248201527408ae4e4dee4744092dcecc2d8d2c840d8cadccee8d605b1b6044820152606401610244565b6001828154811061068b5761068b610faa565b60009182526020918290206040805180820190915260059092020180546001600160a01b03168252600101549181019190915292915050565b6106cc610c85565b6001548211156107165760405162461bcd60e51b815260206004820152601560248201527408ae4e4dee4744092dcecc2d8d2c840d8cadccee8d605b1b6044820152606401610244565b60006001600160a01b03166001838154811061073457610734610faa565b60009182526020909120600260059092020101546001600160a01b03160361079e5760405162461bcd60e51b815260206004820152601e60248201527f4572726f723a205468652067616d65206e6f742066696e6973682079657400006044820152606401610244565b600182815481106107b1576107b1610faa565b60009182526020918290206040805160a081018252600590930290910180546001600160a01b03908116606085019081526001830154608086015284528251808401845260028301549091168152600382015481860152938301939093526004830180549293929184019161082590610e22565b80601f016020809104026020016040519081016040528092919081815260200182805461085190610e22565b801561089e5780601f106108735761010080835404028352916020019161089e565b820191906000526020600020905b81548152906001019060200180831161088157829003601f168201915b5050505050815250509050919050565b600180546108bd908290610f97565b815481106108cd576108cd610faa565b6000918252602090912060036005909202010154600180546108f0908290610f97565b8154811061090057610900610faa565b906000526020600020906005020160000160010154036109c257604080518082019091526004815263151a595960e21b602082015260018054610944908290610f97565b8154811061095457610954610faa565b906000526020600020906005020160040190816109719190610ec1565b507fcde5c32c0a45fd8aa4b65ea8003fc9da9acd5e2c6c24a9fcce6ab79cabbd91226040516109b890602080825260049082015263151a595960e21b604082015260600190565b60405180910390a1565b600180546109d1908290610f97565b815481106109e1576109e1610faa565b9060005260206000209060050201600001600101546001148015610a38575060018054610a0f908290610f97565b81548110610a1f57610a1f610faa565b9060005260206000209060050201600201600101546002145b80610ab4575060018054610a4d908290610f97565b81548110610a5d57610a5d610faa565b9060005260206000209060050201600001600101546003148015610ab4575060018054610a8b908290610f97565b81548110610a9b57610a9b610faa565b9060005260206000209060050201600201600101546001145b80610b30575060018054610ac9908290610f97565b81548110610ad957610ad9610faa565b9060005260206000209060050201600001600101546002148015610b30575060018054610b07908290610f97565b81548110610b1757610b17610faa565b9060005260206000209060050201600201600101546003145b15610bdd576040805180820190915260098152682ab9b2b919103bb4b760b91b602082015260018054610b64908290610f97565b81548110610b7457610b74610faa565b90600052602060002090600502016004019081610b919190610ec1565b507fcde5c32c0a45fd8aa4b65ea8003fc9da9acd5e2c6c24a9fcce6ab79cabbd91226040516109b8906020808252600990820152682ab9b2b919103bb4b760b91b604082015260600190565b6040805180820190915260098152682ab9b2b918903bb4b760b91b602082015260018054610c0c908290610f97565b81548110610c1c57610c1c610faa565b90600052602060002090600502016004019081610c399190610ec1565b507fcde5c32c0a45fd8aa4b65ea8003fc9da9acd5e2c6c24a9fcce6ab79cabbd91226040516109b8906020808252600990820152682ab9b2b918903bb4b760b91b604082015260600190565b6040805160a08101909152600060608201818152608083019190915281908152602001610cc2604080518082019091526000808252602082015290565b8152602001606081525090565b610ced82825180516001600160a01b03168252602090810151910152565b6000602080830151610d15604086018280516001600160a01b03168252602090810151910152565b50604083015160a0608086015280518060a087015260005b81811015610d495782810184015187820160c001528301610d2d565b50600060c0828801015260c0601f19601f830116870101935050505092915050565b6000602080830181845280855180835260408601915060408160051b870101925083870160005b82811015610dc057603f19888603018452610dae858351610ccf565b94509285019290850190600101610d92565b5092979650505050505050565b600060208284031215610ddf57600080fd5b5035919050565b81516001600160a01b0316815260208083015190820152604081015b92915050565b602081526000610e1b6020830184610ccf565b9392505050565b600181811c90821680610e3657607f821691505b602082108103610e5657634e487b7160e01b600052602260045260246000fd5b50919050565b634e487b7160e01b600052604160045260246000fd5b601f821115610ebc57600081815260208120601f850160051c81016020861015610e995750805b601f850160051c820191505b81811015610eb857828155600101610ea5565b5050505b505050565b815167ffffffffffffffff811115610edb57610edb610e5c565b610eef81610ee98454610e22565b84610e72565b602080601f831160018114610f245760008415610f0c5750858301515b600019600386901b1c1916600185901b178555610eb8565b600085815260208120601f198616915b82811015610f5357888601518255948401946001909101908401610f34565b5085821015610f715787850151600019600388901b60f8161c191681555b5050505050600190811b01905550565b634e487b7160e01b600052601160045260246000fd5b81810381811115610e0257610e02610f81565b634e487b7160e01b600052603260045260246000fd5b600060018201610fd257610fd2610f81565b506001019056fea2646970667358221220200f7becd2d8abb080e9ad42bbf3f2c27ae5266f7755866ba53acfb511b56b2764736f6c63430008130033",
					"opcodes": "PUSH1 0x80 PUSH1 0x40 MSTORE PUSH1 0x0 DUP1 SSTORE CALLVALUE DUP1 ISZERO PUSH2 0x14 JUMPI PUSH1 0x0 DUP1 REVERT JUMPDEST POP PUSH2 0x100F DUP1 PUSH2 0x24 PUSH1 0x0 CODECOPY PUSH1 0x0 RETURN INVALID PUSH1 0x80 PUSH1 0x40 MSTORE CALLVALUE DUP1 ISZERO PUSH2 0x10 JUMPI PUSH1 0x0 DUP1 REVERT JUMPDEST POP PUSH1 0x4 CALLDATASIZE LT PUSH2 0x4C JUMPI PUSH1 0x0 CALLDATALOAD PUSH1 0xE0 SHR DUP1 PUSH4 0x512EC557 EQ PUSH2 0x51 JUMPI DUP1 PUSH4 0x6898F82B EQ PUSH2 0x6F JUMPI DUP1 PUSH4 0xE417F4A3 EQ PUSH2 0x84 JUMPI DUP1 PUSH4 0xF7C4EFBB EQ PUSH2 0xA4 JUMPI JUMPDEST PUSH1 0x0 DUP1 REVERT JUMPDEST PUSH2 0x59 PUSH2 0xC4 JUMP JUMPDEST PUSH1 0x40 MLOAD PUSH2 0x66 SWAP2 SWAP1 PUSH2 0xD6B JUMP JUMPDEST PUSH1 0x40 MLOAD DUP1 SWAP2 SUB SWAP1 RETURN JUMPDEST PUSH2 0x82 PUSH2 0x7D CALLDATASIZE PUSH1 0x4 PUSH2 0xDCD JUMP JUMPDEST PUSH2 0x1FD JUMP JUMPDEST STOP JUMPDEST PUSH2 0x97 PUSH2 0x92 CALLDATASIZE PUSH1 0x4 PUSH2 0xDCD JUMP JUMPDEST PUSH2 0x61A JUMP JUMPDEST PUSH1 0x40 MLOAD PUSH2 0x66 SWAP2 SWAP1 PUSH2 0xDE6 JUMP JUMPDEST PUSH2 0xB7 PUSH2 0xB2 CALLDATASIZE PUSH1 0x4 PUSH2 0xDCD JUMP JUMPDEST PUSH2 0x6C4 JUMP JUMPDEST PUSH1 0x40 MLOAD PUSH2 0x66 SWAP2 SWAP1 PUSH2 0xE08 JUMP JUMPDEST PUSH1 0x60 PUSH1 0x1 DUP1 SLOAD DUP1 PUSH1 0x20 MUL PUSH1 0x20 ADD PUSH1 0x40 MLOAD SWAP1 DUP2 ADD PUSH1 0x40 MSTORE DUP1 SWAP3 SWAP2 SWAP1 DUP2 DUP2 MSTORE PUSH1 0x20 ADD PUSH1 0x0 SWAP1 JUMPDEST DUP3 DUP3 LT ISZERO PUSH2 0x1F4 JUMPI PUSH1 0x0 DUP5 DUP2 MSTORE PUSH1 0x20 SWAP1 DUP2 SWAP1 KECCAK256 PUSH1 0x40 DUP1 MLOAD PUSH1 0xA0 DUP2 ADD DUP3 MSTORE PUSH1 0x5 DUP7 MUL SWAP1 SWAP3 ADD DUP1 SLOAD PUSH1 0x1 PUSH1 0x1 PUSH1 0xA0 SHL SUB SWAP1 DUP2 AND PUSH1 0x60 DUP6 ADD SWAP1 DUP2 MSTORE PUSH1 0x1 DUP4 ADD SLOAD PUSH1 0x80 DUP7 ADD MSTORE DUP5 MSTORE DUP3 MLOAD DUP1 DUP5 ADD DUP5 MSTORE PUSH1 0x2 DUP4 ADD SLOAD SWAP1 SWAP2 AND DUP2 MSTORE PUSH1 0x3 DUP3 ADD SLOAD DUP2 DUP7 ADD MSTORE SWAP4 DUP4 ADD SWAP4 SWAP1 SWAP4 MSTORE PUSH1 0x4 DUP4 ADD DUP1 SLOAD SWAP3 SWAP4 SWAP3 SWAP2 DUP5 ADD SWAP2 PUSH2 0x163 SWAP1 PUSH2 0xE22 JUMP JUMPDEST DUP1 PUSH1 0x1F ADD PUSH1 0x20 DUP1 SWAP2 DIV MUL PUSH1 0x20 ADD PUSH1 0x40 MLOAD SWAP1 DUP2 ADD PUSH1 0x40 MSTORE DUP1 SWAP3 SWAP2 SWAP1 DUP2 DUP2 MSTORE PUSH1 0x20 ADD DUP3 DUP1 SLOAD PUSH2 0x18F SWAP1 PUSH2 0xE22 JUMP JUMPDEST DUP1 ISZERO PUSH2 0x1DC JUMPI DUP1 PUSH1 0x1F LT PUSH2 0x1B1 JUMPI PUSH2 0x100 DUP1 DUP4 SLOAD DIV MUL DUP4 MSTORE SWAP2 PUSH1 0x20 ADD SWAP2 PUSH2 0x1DC JUMP JUMPDEST DUP3 ADD SWAP2 SWAP1 PUSH1 0x0 MSTORE PUSH1 0x20 PUSH1 0x0 KECCAK256 SWAP1 JUMPDEST DUP2 SLOAD DUP2 MSTORE SWAP1 PUSH1 0x1 ADD SWAP1 PUSH1 0x20 ADD DUP1 DUP4 GT PUSH2 0x1BF JUMPI DUP3 SWAP1 SUB PUSH1 0x1F AND DUP3 ADD SWAP2 JUMPDEST POP POP POP POP POP DUP2 MSTORE POP POP DUP2 MSTORE PUSH1 0x20 ADD SWAP1 PUSH1 0x1 ADD SWAP1 PUSH2 0xE8 JUMP JUMPDEST POP POP POP POP SWAP1 POP SWAP1 JUMP JUMPDEST PUSH1 0x2 SLOAD PUSH1 0xFF AND ISZERO PUSH2 0x24D JUMPI PUSH1 0x40 MLOAD PUSH3 0x461BCD PUSH1 0xE5 SHL DUP2 MSTORE PUSH1 0x20 PUSH1 0x4 DUP3 ADD MSTORE PUSH1 0x15 PUSH1 0x24 DUP3 ADD MSTORE PUSH21 0x115C9C9BDC8E881499595B9D1C985B9D0818D85B1B PUSH1 0x5A SHL PUSH1 0x44 DUP3 ADD MSTORE PUSH1 0x64 ADD JUMPDEST PUSH1 0x40 MLOAD DUP1 SWAP2 SUB SWAP1 REVERT JUMPDEST PUSH1 0x2 DUP1 SLOAD PUSH1 0xFF NOT AND PUSH1 0x1 OR SWAP1 SSTORE PUSH1 0x40 MLOAD CALLER SWAP1 PUSH32 0x6FD5BEA3AD79492C3055C6F6B7B37CA66D63BA4CEEF7D04DD901559AFFBE971A SWAP1 PUSH1 0x0 SWAP1 LOG2 DUP1 PUSH1 0x0 SUB PUSH2 0x2CC JUMPI PUSH1 0x40 MLOAD PUSH3 0x461BCD PUSH1 0xE5 SHL DUP2 MSTORE PUSH1 0x20 PUSH1 0x4 DUP3 ADD MSTORE PUSH1 0x14 PUSH1 0x24 DUP3 ADD MSTORE PUSH20 0x4572726F723A2043616E277420696E707574203 PUSH1 0x64 SHL PUSH1 0x44 DUP3 ADD MSTORE PUSH1 0x64 ADD PUSH2 0x244 JUMP JUMPDEST PUSH1 0x3 DUP2 GT ISZERO PUSH2 0x31D JUMPI PUSH1 0x40 MLOAD PUSH3 0x461BCD PUSH1 0xE5 SHL DUP2 MSTORE PUSH1 0x20 PUSH1 0x4 DUP3 ADD MSTORE PUSH1 0x1E PUSH1 0x24 DUP3 ADD MSTORE PUSH32 0x4572726F723A2043616E277420696E707574206D6F7265207468616E20330000 PUSH1 0x44 DUP3 ADD MSTORE PUSH1 0x64 ADD PUSH2 0x244 JUMP JUMPDEST PUSH1 0x0 SLOAD PUSH1 0x0 SUB PUSH2 0x4E4 JUMPI PUSH2 0x32F PUSH2 0xC85 JUMP JUMPDEST PUSH1 0x1 DUP1 SLOAD DUP1 DUP3 ADD DUP3 SSTORE PUSH1 0x0 SWAP2 SWAP1 SWAP2 MSTORE DUP2 MLOAD DUP1 MLOAD PUSH32 0xB10E2D527612073B26EECDFD717E6A320CF44B4AFAC2B0732D9FCBE2B7FA0CF6 PUSH1 0x5 SWAP1 SWAP4 MUL SWAP3 DUP4 ADD DUP1 SLOAD PUSH1 0x1 PUSH1 0x1 PUSH1 0xA0 SHL SUB NOT SWAP1 DUP2 AND PUSH1 0x1 PUSH1 0x1 PUSH1 0xA0 SHL SUB SWAP4 DUP5 AND OR DUP3 SSTORE PUSH1 0x20 SWAP4 DUP5 ADD MLOAD PUSH32 0xB10E2D527612073B26EECDFD717E6A320CF44B4AFAC2B0732D9FCBE2B7FA0CF7 DUP7 ADD SSTORE DUP4 DUP7 ADD MLOAD DUP1 MLOAD PUSH32 0xB10E2D527612073B26EECDFD717E6A320CF44B4AFAC2B0732D9FCBE2B7FA0CF8 DUP8 ADD DUP1 SLOAD SWAP1 SWAP4 AND SWAP5 AND SWAP4 SWAP1 SWAP4 OR SWAP1 SSTORE SWAP2 ADD MLOAD PUSH32 0xB10E2D527612073B26EECDFD717E6A320CF44B4AFAC2B0732D9FCBE2B7FA0CF9 DUP4 ADD SSTORE PUSH1 0x40 DUP4 ADD MLOAD DUP4 SWAP3 PUSH32 0xB10E2D527612073B26EECDFD717E6A320CF44B4AFAC2B0732D9FCBE2B7FA0CFA ADD SWAP1 PUSH2 0x442 SWAP1 DUP3 PUSH2 0xEC1 JUMP JUMPDEST POP POP PUSH1 0x1 DUP1 SLOAD CALLER SWAP3 POP PUSH2 0x456 SWAP1 DUP3 SWAP1 PUSH2 0xF97 JUMP JUMPDEST DUP2 SLOAD DUP2 LT PUSH2 0x466 JUMPI PUSH2 0x466 PUSH2 0xFAA JUMP JUMPDEST PUSH1 0x0 SWAP2 DUP3 MSTORE PUSH1 0x20 SWAP1 SWAP2 KECCAK256 PUSH1 0x5 SWAP1 SWAP2 MUL ADD DUP1 SLOAD PUSH1 0x1 PUSH1 0x1 PUSH1 0xA0 SHL SUB NOT AND PUSH1 0x1 PUSH1 0x1 PUSH1 0xA0 SHL SUB SWAP3 SWAP1 SWAP3 AND SWAP2 SWAP1 SWAP2 OR SWAP1 SSTORE PUSH1 0x1 DUP1 SLOAD DUP4 SWAP2 SWAP1 PUSH2 0x4A6 SWAP1 DUP3 SWAP1 PUSH2 0xF97 JUMP JUMPDEST DUP2 SLOAD DUP2 LT PUSH2 0x4B6 JUMPI PUSH2 0x4B6 PUSH2 0xFAA JUMP JUMPDEST PUSH1 0x0 SWAP2 DUP3 MSTORE PUSH1 0x20 DUP3 KECCAK256 PUSH1 0x1 PUSH1 0x5 SWAP1 SWAP3 MUL ADD ADD SWAP2 SWAP1 SWAP2 SSTORE DUP1 SLOAD SWAP1 DUP1 PUSH2 0x4D9 DUP4 PUSH2 0xFC0 JUMP JUMPDEST SWAP2 SWAP1 POP SSTORE POP POP PUSH2 0x60D JUMP JUMPDEST PUSH1 0x1 DUP1 SLOAD PUSH2 0x4F3 SWAP1 DUP3 SWAP1 PUSH2 0xF97 JUMP JUMPDEST DUP2 SLOAD DUP2 LT PUSH2 0x503 JUMPI PUSH2 0x503 PUSH2 0xFAA JUMP JUMPDEST PUSH1 0x0 SWAP2 DUP3 MSTORE PUSH1 0x20 SWAP1 SWAP2 KECCAK256 PUSH1 0x5 SWAP1 SWAP2 MUL ADD SLOAD PUSH1 0x1 PUSH1 0x1 PUSH1 0xA0 SHL SUB AND CALLER SUB PUSH2 0x577 JUMPI PUSH1 0x40 MLOAD PUSH3 0x461BCD PUSH1 0xE5 SHL DUP2 MSTORE PUSH1 0x20 PUSH1 0x4 DUP3 ADD MSTORE PUSH1 0x24 DUP1 DUP3 ADD MSTORE PUSH32 0x4572726F723A20596F752063616E6E6F7420706C6179207769746820796F7572 PUSH1 0x44 DUP3 ADD MSTORE PUSH4 0x39B2B633 PUSH1 0xE1 SHL PUSH1 0x64 DUP3 ADD MSTORE PUSH1 0x84 ADD PUSH2 0x244 JUMP JUMPDEST PUSH1 0x1 DUP1 SLOAD CALLER SWAP2 SWAP1 PUSH2 0x589 SWAP1 DUP3 SWAP1 PUSH2 0xF97 JUMP JUMPDEST DUP2 SLOAD DUP2 LT PUSH2 0x599 JUMPI PUSH2 0x599 PUSH2 0xFAA JUMP JUMPDEST PUSH1 0x0 SWAP2 DUP3 MSTORE PUSH1 0x20 SWAP1 SWAP2 KECCAK256 PUSH1 0x5 SWAP1 SWAP2 MUL ADD PUSH1 0x2 ADD DUP1 SLOAD PUSH1 0x1 PUSH1 0x1 PUSH1 0xA0 SHL SUB NOT AND PUSH1 0x1 PUSH1 0x1 PUSH1 0xA0 SHL SUB SWAP3 SWAP1 SWAP3 AND SWAP2 SWAP1 SWAP2 OR SWAP1 SSTORE PUSH1 0x1 DUP1 SLOAD DUP3 SWAP2 SWAP1 PUSH2 0x5DC SWAP1 DUP3 SWAP1 PUSH2 0xF97 JUMP JUMPDEST DUP2 SLOAD DUP2 LT PUSH2 0x5EC JUMPI PUSH2 0x5EC PUSH2 0xFAA JUMP JUMPDEST PUSH1 0x0 SWAP2 DUP3 MSTORE PUSH1 0x20 SWAP1 SWAP2 KECCAK256 PUSH1 0x3 PUSH1 0x5 SWAP1 SWAP3 MUL ADD ADD SSTORE PUSH2 0x608 PUSH2 0x8AE JUMP JUMPDEST PUSH1 0x0 DUP1 SSTORE JUMPDEST POP PUSH1 0x2 DUP1 SLOAD PUSH1 0xFF NOT AND SWAP1 SSTORE JUMP JUMPDEST PUSH1 0x40 DUP1 MLOAD DUP1 DUP3 ADD SWAP1 SWAP2 MSTORE PUSH1 0x0 DUP1 DUP3 MSTORE PUSH1 0x20 DUP3 ADD MSTORE PUSH1 0x1 SLOAD DUP3 GT ISZERO PUSH2 0x678 JUMPI PUSH1 0x40 MLOAD PUSH3 0x461BCD PUSH1 0xE5 SHL DUP2 MSTORE PUSH1 0x20 PUSH1 0x4 DUP3 ADD MSTORE PUSH1 0x15 PUSH1 0x24 DUP3 ADD MSTORE PUSH21 0x8AE4E4DEE4744092DCECC2D8D2C840D8CADCCEE8D PUSH1 0x5B SHL PUSH1 0x44 DUP3 ADD MSTORE PUSH1 0x64 ADD PUSH2 0x244 JUMP JUMPDEST PUSH1 0x1 DUP3 DUP2 SLOAD DUP2 LT PUSH2 0x68B JUMPI PUSH2 0x68B PUSH2 0xFAA JUMP JUMPDEST PUSH1 0x0 SWAP2 DUP3 MSTORE PUSH1 0x20 SWAP2 DUP3 SWAP1 KECCAK256 PUSH1 0x40 DUP1 MLOAD DUP1 DUP3 ADD SWAP1 SWAP2 MSTORE PUSH1 0x5 SWAP1 SWAP3 MUL ADD DUP1 SLOAD PUSH1 0x1 PUSH1 0x1 PUSH1 0xA0 SHL SUB AND DUP3 MSTORE PUSH1 0x1 ADD SLOAD SWAP2 DUP2 ADD SWAP2 SWAP1 SWAP2 MSTORE SWAP3 SWAP2 POP POP JUMP JUMPDEST PUSH2 0x6CC PUSH2 0xC85 JUMP JUMPDEST PUSH1 0x1 SLOAD DUP3 GT ISZERO PUSH2 0x716 JUMPI PUSH1 0x40 MLOAD PUSH3 0x461BCD PUSH1 0xE5 SHL DUP2 MSTORE PUSH1 0x20 PUSH1 0x4 DUP3 ADD MSTORE PUSH1 0x15 PUSH1 0x24 DUP3 ADD MSTORE PUSH21 0x8AE4E4DEE4744092DCECC2D8D2C840D8CADCCEE8D PUSH1 0x5B SHL PUSH1 0x44 DUP3 ADD MSTORE PUSH1 0x64 ADD PUSH2 0x244 JUMP JUMPDEST PUSH1 0x0 PUSH1 0x1 PUSH1 0x1 PUSH1 0xA0 SHL SUB AND PUSH1 0x1 DUP4 DUP2 SLOAD DUP2 LT PUSH2 0x734 JUMPI PUSH2 0x734 PUSH2 0xFAA JUMP JUMPDEST PUSH1 0x0 SWAP2 DUP3 MSTORE PUSH1 0x20 SWAP1 SWAP2 KECCAK256 PUSH1 0x2 PUSH1 0x5 SWAP1 SWAP3 MUL ADD ADD SLOAD PUSH1 0x1 PUSH1 0x1 PUSH1 0xA0 SHL SUB AND SUB PUSH2 0x79E JUMPI PUSH1 0x40 MLOAD PUSH3 0x461BCD PUSH1 0xE5 SHL DUP2 MSTORE PUSH1 0x20 PUSH1 0x4 DUP3 ADD MSTORE PUSH1 0x1E PUSH1 0x24 DUP3 ADD MSTORE PUSH32 0x4572726F723A205468652067616D65206E6F742066696E697368207965740000 PUSH1 0x44 DUP3 ADD MSTORE PUSH1 0x64 ADD PUSH2 0x244 JUMP JUMPDEST PUSH1 0x1 DUP3 DUP2 SLOAD DUP2 LT PUSH2 0x7B1 JUMPI PUSH2 0x7B1 PUSH2 0xFAA JUMP JUMPDEST PUSH1 0x0 SWAP2 DUP3 MSTORE PUSH1 0x20 SWAP2 DUP3 SWAP1 KECCAK256 PUSH1 0x40 DUP1 MLOAD PUSH1 0xA0 DUP2 ADD DUP3 MSTORE PUSH1 0x5 SWAP1 SWAP4 MUL SWAP1 SWAP2 ADD DUP1 SLOAD PUSH1 0x1 PUSH1 0x1 PUSH1 0xA0 SHL SUB SWAP1 DUP2 AND PUSH1 0x60 DUP6 ADD SWAP1 DUP2 MSTORE PUSH1 0x1 DUP4 ADD SLOAD PUSH1 0x80 DUP7 ADD MSTORE DUP5 MSTORE DUP3 MLOAD DUP1 DUP5 ADD DUP5 MSTORE PUSH1 0x2 DUP4 ADD SLOAD SWAP1 SWAP2 AND DUP2 MSTORE PUSH1 0x3 DUP3 ADD SLOAD DUP2 DUP7 ADD MSTORE SWAP4 DUP4 ADD SWAP4 SWAP1 SWAP4 MSTORE PUSH1 0x4 DUP4 ADD DUP1 SLOAD SWAP3 SWAP4 SWAP3 SWAP2 DUP5 ADD SWAP2 PUSH2 0x825 SWAP1 PUSH2 0xE22 JUMP JUMPDEST DUP1 PUSH1 0x1F ADD PUSH1 0x20 DUP1 SWAP2 DIV MUL PUSH1 0x20 ADD PUSH1 0x40 MLOAD SWAP1 DUP2 ADD PUSH1 0x40 MSTORE DUP1 SWAP3 SWAP2 SWAP1 DUP2 DUP2 MSTORE PUSH1 0x20 ADD DUP3 DUP1 SLOAD PUSH2 0x851 SWAP1 PUSH2 0xE22 JUMP JUMPDEST DUP1 ISZERO PUSH2 0x89E JUMPI DUP1 PUSH1 0x1F LT PUSH2 0x873 JUMPI PUSH2 0x100 DUP1 DUP4 SLOAD DIV MUL DUP4 MSTORE SWAP2 PUSH1 0x20 ADD SWAP2 PUSH2 0x89E JUMP JUMPDEST DUP3 ADD SWAP2 SWAP1 PUSH1 0x0 MSTORE PUSH1 0x20 PUSH1 0x0 KECCAK256 SWAP1 JUMPDEST DUP2 SLOAD DUP2 MSTORE SWAP1 PUSH1 0x1 ADD SWAP1 PUSH1 0x20 ADD DUP1 DUP4 GT PUSH2 0x881 JUMPI DUP3 SWAP1 SUB PUSH1 0x1F AND DUP3 ADD SWAP2 JUMPDEST POP POP POP POP POP DUP2 MSTORE POP POP SWAP1 POP SWAP2 SWAP1 POP JUMP JUMPDEST PUSH1 0x1 DUP1 SLOAD PUSH2 0x8BD SWAP1 DUP3 SWAP1 PUSH2 0xF97 JUMP JUMPDEST DUP2 SLOAD DUP2 LT PUSH2 0x8CD JUMPI PUSH2 0x8CD PUSH2 0xFAA JUMP JUMPDEST PUSH1 0x0 SWAP2 DUP3 MSTORE PUSH1 0x20 SWAP1 SWAP2 KECCAK256 PUSH1 0x3 PUSH1 0x5 SWAP1 SWAP3 MUL ADD ADD SLOAD PUSH1 0x1 DUP1 SLOAD PUSH2 0x8F0 SWAP1 DUP3 SWAP1 PUSH2 0xF97 JUMP JUMPDEST DUP2 SLOAD DUP2 LT PUSH2 0x900 JUMPI PUSH2 0x900 PUSH2 0xFAA JUMP JUMPDEST SWAP1 PUSH1 0x0 MSTORE PUSH1 0x20 PUSH1 0x0 KECCAK256 SWAP1 PUSH1 0x5 MUL ADD PUSH1 0x0 ADD PUSH1 0x1 ADD SLOAD SUB PUSH2 0x9C2 JUMPI PUSH1 0x40 DUP1 MLOAD DUP1 DUP3 ADD SWAP1 SWAP2 MSTORE PUSH1 0x4 DUP2 MSTORE PUSH4 0x151A5959 PUSH1 0xE2 SHL PUSH1 0x20 DUP3 ADD MSTORE PUSH1 0x1 DUP1 SLOAD PUSH2 0x944 SWAP1 DUP3 SWAP1 PUSH2 0xF97 JUMP JUMPDEST DUP2 SLOAD DUP2 LT PUSH2 0x954 JUMPI PUSH2 0x954 PUSH2 0xFAA JUMP JUMPDEST SWAP1 PUSH1 0x0 MSTORE PUSH1 0x20 PUSH1 0x0 KECCAK256 SWAP1 PUSH1 0x5 MUL ADD PUSH1 0x4 ADD SWAP1 DUP2 PUSH2 0x971 SWAP2 SWAP1 PUSH2 0xEC1 JUMP JUMPDEST POP PUSH32 0xCDE5C32C0A45FD8AA4B65EA8003FC9DA9ACD5E2C6C24A9FCCE6AB79CABBD9122 PUSH1 0x40 MLOAD PUSH2 0x9B8 SWAP1 PUSH1 0x20 DUP1 DUP3 MSTORE PUSH1 0x4 SWAP1 DUP3 ADD MSTORE PUSH4 0x151A5959 PUSH1 0xE2 SHL PUSH1 0x40 DUP3 ADD MSTORE PUSH1 0x60 ADD SWAP1 JUMP JUMPDEST PUSH1 0x40 MLOAD DUP1 SWAP2 SUB SWAP1 LOG1 JUMP JUMPDEST PUSH1 0x1 DUP1 SLOAD PUSH2 0x9D1 SWAP1 DUP3 SWAP1 PUSH2 0xF97 JUMP JUMPDEST DUP2 SLOAD DUP2 LT PUSH2 0x9E1 JUMPI PUSH2 0x9E1 PUSH2 0xFAA JUMP JUMPDEST SWAP1 PUSH1 0x0 MSTORE PUSH1 0x20 PUSH1 0x0 KECCAK256 SWAP1 PUSH1 0x5 MUL ADD PUSH1 0x0 ADD PUSH1 0x1 ADD SLOAD PUSH1 0x1 EQ DUP1 ISZERO PUSH2 0xA38 JUMPI POP PUSH1 0x1 DUP1 SLOAD PUSH2 0xA0F SWAP1 DUP3 SWAP1 PUSH2 0xF97 JUMP JUMPDEST DUP2 SLOAD DUP2 LT PUSH2 0xA1F JUMPI PUSH2 0xA1F PUSH2 0xFAA JUMP JUMPDEST SWAP1 PUSH1 0x0 MSTORE PUSH1 0x20 PUSH1 0x0 KECCAK256 SWAP1 PUSH1 0x5 MUL ADD PUSH1 0x2 ADD PUSH1 0x1 ADD SLOAD PUSH1 0x2 EQ JUMPDEST DUP1 PUSH2 0xAB4 JUMPI POP PUSH1 0x1 DUP1 SLOAD PUSH2 0xA4D SWAP1 DUP3 SWAP1 PUSH2 0xF97 JUMP JUMPDEST DUP2 SLOAD DUP2 LT PUSH2 0xA5D JUMPI PUSH2 0xA5D PUSH2 0xFAA JUMP JUMPDEST SWAP1 PUSH1 0x0 MSTORE PUSH1 0x20 PUSH1 0x0 KECCAK256 SWAP1 PUSH1 0x5 MUL ADD PUSH1 0x0 ADD PUSH1 0x1 ADD SLOAD PUSH1 0x3 EQ DUP1 ISZERO PUSH2 0xAB4 JUMPI POP PUSH1 0x1 DUP1 SLOAD PUSH2 0xA8B SWAP1 DUP3 SWAP1 PUSH2 0xF97 JUMP JUMPDEST DUP2 SLOAD DUP2 LT PUSH2 0xA9B JUMPI PUSH2 0xA9B PUSH2 0xFAA JUMP JUMPDEST SWAP1 PUSH1 0x0 MSTORE PUSH1 0x20 PUSH1 0x0 KECCAK256 SWAP1 PUSH1 0x5 MUL ADD PUSH1 0x2 ADD PUSH1 0x1 ADD SLOAD PUSH1 0x1 EQ JUMPDEST DUP1 PUSH2 0xB30 JUMPI POP PUSH1 0x1 DUP1 SLOAD PUSH2 0xAC9 SWAP1 DUP3 SWAP1 PUSH2 0xF97 JUMP JUMPDEST DUP2 SLOAD DUP2 LT PUSH2 0xAD9 JUMPI PUSH2 0xAD9 PUSH2 0xFAA JUMP JUMPDEST SWAP1 PUSH1 0x0 MSTORE PUSH1 0x20 PUSH1 0x0 KECCAK256 SWAP1 PUSH1 0x5 MUL ADD PUSH1 0x0 ADD PUSH1 0x1 ADD SLOAD PUSH1 0x2 EQ DUP1 ISZERO PUSH2 0xB30 JUMPI POP PUSH1 0x1 DUP1 SLOAD PUSH2 0xB07 SWAP1 DUP3 SWAP1 PUSH2 0xF97 JUMP JUMPDEST DUP2 SLOAD DUP2 LT PUSH2 0xB17 JUMPI PUSH2 0xB17 PUSH2 0xFAA JUMP JUMPDEST SWAP1 PUSH1 0x0 MSTORE PUSH1 0x20 PUSH1 0x0 KECCAK256 SWAP1 PUSH1 0x5 MUL ADD PUSH1 0x2 ADD PUSH1 0x1 ADD SLOAD PUSH1 0x3 EQ JUMPDEST ISZERO PUSH2 0xBDD JUMPI PUSH1 0x40 DUP1 MLOAD DUP1 DUP3 ADD SWAP1 SWAP2 MSTORE PUSH1 0x9 DUP2 MSTORE PUSH9 0x2AB9B2B919103BB4B7 PUSH1 0xB9 SHL PUSH1 0x20 DUP3 ADD MSTORE PUSH1 0x1 DUP1 SLOAD PUSH2 0xB64 SWAP1 DUP3 SWAP1 PUSH2 0xF97 JUMP JUMPDEST DUP2 SLOAD DUP2 LT PUSH2 0xB74 JUMPI PUSH2 0xB74 PUSH2 0xFAA JUMP JUMPDEST SWAP1 PUSH1 0x0 MSTORE PUSH1 0x20 PUSH1 0x0 KECCAK256 SWAP1 PUSH1 0x5 MUL ADD PUSH1 0x4 ADD SWAP1 DUP2 PUSH2 0xB91 SWAP2 SWAP1 PUSH2 0xEC1 JUMP JUMPDEST POP PUSH32 0xCDE5C32C0A45FD8AA4B65EA8003FC9DA9ACD5E2C6C24A9FCCE6AB79CABBD9122 PUSH1 0x40 MLOAD PUSH2 0x9B8 SWAP1 PUSH1 0x20 DUP1 DUP3 MSTORE PUSH1 0x9 SWAP1 DUP3 ADD MSTORE PUSH9 0x2AB9B2B919103BB4B7 PUSH1 0xB9 SHL PUSH1 0x40 DUP3 ADD MSTORE PUSH1 0x60 ADD SWAP1 JUMP JUMPDEST PUSH1 0x40 DUP1 MLOAD DUP1 DUP3 ADD SWAP1 SWAP2 MSTORE PUSH1 0x9 DUP2 MSTORE PUSH9 0x2AB9B2B918903BB4B7 PUSH1 0xB9 SHL PUSH1 0x20 DUP3 ADD MSTORE PUSH1 0x1 DUP1 SLOAD PUSH2 0xC0C SWAP1 DUP3 SWAP1 PUSH2 0xF97 JUMP JUMPDEST DUP2 SLOAD DUP2 LT PUSH2 0xC1C JUMPI PUSH2 0xC1C PUSH2 0xFAA JUMP JUMPDEST SWAP1 PUSH1 0x0 MSTORE PUSH1 0x20 PUSH1 0x0 KECCAK256 SWAP1 PUSH1 0x5 MUL ADD PUSH1 0x4 ADD SWAP1 DUP2 PUSH2 0xC39 SWAP2 SWAP1 PUSH2 0xEC1 JUMP JUMPDEST POP PUSH32 0xCDE5C32C0A45FD8AA4B65EA8003FC9DA9ACD5E2C6C24A9FCCE6AB79CABBD9122 PUSH1 0x40 MLOAD PUSH2 0x9B8 SWAP1 PUSH1 0x20 DUP1 DUP3 MSTORE PUSH1 0x9 SWAP1 DUP3 ADD MSTORE PUSH9 0x2AB9B2B918903BB4B7 PUSH1 0xB9 SHL PUSH1 0x40 DUP3 ADD MSTORE PUSH1 0x60 ADD SWAP1 JUMP JUMPDEST PUSH1 0x40 DUP1 MLOAD PUSH1 0xA0 DUP2 ADD SWAP1 SWAP2 MSTORE PUSH1 0x0 PUSH1 0x60 DUP3 ADD DUP2 DUP2 MSTORE PUSH1 0x80 DUP4 ADD SWAP2 SWAP1 SWAP2 MSTORE DUP2 SWAP1 DUP2 MSTORE PUSH1 0x20 ADD PUSH2 0xCC2 PUSH1 0x40 DUP1 MLOAD DUP1 DUP3 ADD SWAP1 SWAP2 MSTORE PUSH1 0x0 DUP1 DUP3 MSTORE PUSH1 0x20 DUP3 ADD MSTORE SWAP1 JUMP JUMPDEST DUP2 MSTORE PUSH1 0x20 ADD PUSH1 0x60 DUP2 MSTORE POP SWAP1 JUMP JUMPDEST PUSH2 0xCED DUP3 DUP3 MLOAD DUP1 MLOAD PUSH1 0x1 PUSH1 0x1 PUSH1 0xA0 SHL SUB AND DUP3 MSTORE PUSH1 0x20 SWAP1 DUP2 ADD MLOAD SWAP2 ADD MSTORE JUMP JUMPDEST PUSH1 0x0 PUSH1 0x20 DUP1 DUP4 ADD MLOAD PUSH2 0xD15 PUSH1 0x40 DUP7 ADD DUP3 DUP1 MLOAD PUSH1 0x1 PUSH1 0x1 PUSH1 0xA0 SHL SUB AND DUP3 MSTORE PUSH1 0x20 SWAP1 DUP2 ADD MLOAD SWAP2 ADD MSTORE JUMP JUMPDEST POP PUSH1 0x40 DUP4 ADD MLOAD PUSH1 0xA0 PUSH1 0x80 DUP7 ADD MSTORE DUP1 MLOAD DUP1 PUSH1 0xA0 DUP8 ADD MSTORE PUSH1 0x0 JUMPDEST DUP2 DUP2 LT ISZERO PUSH2 0xD49 JUMPI DUP3 DUP2 ADD DUP5 ADD MLOAD DUP8 DUP3 ADD PUSH1 0xC0 ADD MSTORE DUP4 ADD PUSH2 0xD2D JUMP JUMPDEST POP PUSH1 0x0 PUSH1 0xC0 DUP3 DUP9 ADD ADD MSTORE PUSH1 0xC0 PUSH1 0x1F NOT PUSH1 0x1F DUP4 ADD AND DUP8 ADD ADD SWAP4 POP POP POP POP SWAP3 SWAP2 POP POP JUMP JUMPDEST PUSH1 0x0 PUSH1 0x20 DUP1 DUP4 ADD DUP2 DUP5 MSTORE DUP1 DUP6 MLOAD DUP1 DUP4 MSTORE PUSH1 0x40 DUP7 ADD SWAP2 POP PUSH1 0x40 DUP2 PUSH1 0x5 SHL DUP8 ADD ADD SWAP3 POP DUP4 DUP8 ADD PUSH1 0x0 JUMPDEST DUP3 DUP2 LT ISZERO PUSH2 0xDC0 JUMPI PUSH1 0x3F NOT DUP9 DUP7 SUB ADD DUP5 MSTORE PUSH2 0xDAE DUP6 DUP4 MLOAD PUSH2 0xCCF JUMP JUMPDEST SWAP5 POP SWAP3 DUP6 ADD SWAP3 SWAP1 DUP6 ADD SWAP1 PUSH1 0x1 ADD PUSH2 0xD92 JUMP JUMPDEST POP SWAP3 SWAP8 SWAP7 POP POP POP POP POP POP POP JUMP JUMPDEST PUSH1 0x0 PUSH1 0x20 DUP3 DUP5 SUB SLT ISZERO PUSH2 0xDDF JUMPI PUSH1 0x0 DUP1 REVERT JUMPDEST POP CALLDATALOAD SWAP2 SWAP1 POP JUMP JUMPDEST DUP2 MLOAD PUSH1 0x1 PUSH1 0x1 PUSH1 0xA0 SHL SUB AND DUP2 MSTORE PUSH1 0x20 DUP1 DUP4 ADD MLOAD SWAP1 DUP3 ADD MSTORE PUSH1 0x40 DUP2 ADD JUMPDEST SWAP3 SWAP2 POP POP JUMP JUMPDEST PUSH1 0x20 DUP2 MSTORE PUSH1 0x0 PUSH2 0xE1B PUSH1 0x20 DUP4 ADD DUP5 PUSH2 0xCCF JUMP JUMPDEST SWAP4 SWAP3 POP POP POP JUMP JUMPDEST PUSH1 0x1 DUP2 DUP2 SHR SWAP1 DUP3 AND DUP1 PUSH2 0xE36 JUMPI PUSH1 0x7F DUP3 AND SWAP2 POP JUMPDEST PUSH1 0x20 DUP3 LT DUP2 SUB PUSH2 0xE56 JUMPI PUSH4 0x4E487B71 PUSH1 0xE0 SHL PUSH1 0x0 MSTORE PUSH1 0x22 PUSH1 0x4 MSTORE PUSH1 0x24 PUSH1 0x0 REVERT JUMPDEST POP SWAP2 SWAP1 POP JUMP JUMPDEST PUSH4 0x4E487B71 PUSH1 0xE0 SHL PUSH1 0x0 MSTORE PUSH1 0x41 PUSH1 0x4 MSTORE PUSH1 0x24 PUSH1 0x0 REVERT JUMPDEST PUSH1 0x1F DUP3 GT ISZERO PUSH2 0xEBC JUMPI PUSH1 0x0 DUP2 DUP2 MSTORE PUSH1 0x20 DUP2 KECCAK256 PUSH1 0x1F DUP6 ADD PUSH1 0x5 SHR DUP2 ADD PUSH1 0x20 DUP7 LT ISZERO PUSH2 0xE99 JUMPI POP DUP1 JUMPDEST PUSH1 0x1F DUP6 ADD PUSH1 0x5 SHR DUP3 ADD SWAP2 POP JUMPDEST DUP2 DUP2 LT ISZERO PUSH2 0xEB8 JUMPI DUP3 DUP2 SSTORE PUSH1 0x1 ADD PUSH2 0xEA5 JUMP JUMPDEST POP POP POP JUMPDEST POP POP POP JUMP JUMPDEST DUP2 MLOAD PUSH8 0xFFFFFFFFFFFFFFFF DUP2 GT ISZERO PUSH2 0xEDB JUMPI PUSH2 0xEDB PUSH2 0xE5C JUMP JUMPDEST PUSH2 0xEEF DUP2 PUSH2 0xEE9 DUP5 SLOAD PUSH2 0xE22 JUMP JUMPDEST DUP5 PUSH2 0xE72 JUMP JUMPDEST PUSH1 0x20 DUP1 PUSH1 0x1F DUP4 GT PUSH1 0x1 DUP2 EQ PUSH2 0xF24 JUMPI PUSH1 0x0 DUP5 ISZERO PUSH2 0xF0C JUMPI POP DUP6 DUP4 ADD MLOAD JUMPDEST PUSH1 0x0 NOT PUSH1 0x3 DUP7 SWAP1 SHL SHR NOT AND PUSH1 0x1 DUP6 SWAP1 SHL OR DUP6 SSTORE PUSH2 0xEB8 JUMP JUMPDEST PUSH1 0x0 DUP6 DUP2 MSTORE PUSH1 0x20 DUP2 KECCAK256 PUSH1 0x1F NOT DUP7 AND SWAP2 JUMPDEST DUP3 DUP2 LT ISZERO PUSH2 0xF53 JUMPI DUP9 DUP7 ADD MLOAD DUP3 SSTORE SWAP5 DUP5 ADD SWAP5 PUSH1 0x1 SWAP1 SWAP2 ADD SWAP1 DUP5 ADD PUSH2 0xF34 JUMP JUMPDEST POP DUP6 DUP3 LT ISZERO PUSH2 0xF71 JUMPI DUP8 DUP6 ADD MLOAD PUSH1 0x0 NOT PUSH1 0x3 DUP9 SWAP1 SHL PUSH1 0xF8 AND SHR NOT AND DUP2 SSTORE JUMPDEST POP POP POP POP POP PUSH1 0x1 SWAP1 DUP2 SHL ADD SWAP1 SSTORE POP JUMP JUMPDEST PUSH4 0x4E487B71 PUSH1 0xE0 SHL PUSH1 0x0 MSTORE PUSH1 0x11 PUSH1 0x4 MSTORE PUSH1 0x24 PUSH1 0x0 REVERT JUMPDEST DUP2 DUP2 SUB DUP2 DUP2 GT ISZERO PUSH2 0xE02 JUMPI PUSH2 0xE02 PUSH2 0xF81 JUMP JUMPDEST PUSH4 0x4E487B71 PUSH1 0xE0 SHL PUSH1 0x0 MSTORE PUSH1 0x32 PUSH1 0x4 MSTORE PUSH1 0x24 PUSH1 0x0 REVERT JUMPDEST PUSH1 0x0 PUSH1 0x1 DUP3 ADD PUSH2 0xFD2 JUMPI PUSH2 0xFD2 PUSH2 0xF81 JUMP JUMPDEST POP PUSH1 0x1 ADD SWAP1 JUMP INVALID LOG2 PUSH5 0x6970667358 0x22 SLT KECCAK256 KECCAK256 0xF PUSH28 0xECD2D8ABB080E9AD42BBF3F2C27AE5266F7755866BA53ACFB511B56B 0x27 PUSH5 0x736F6C6343 STOP ADDMOD SGT STOP CALLER "
				},
				"gasEstimates": {
					"creation": {
						"codeDepositCost": "822200",
						"executionCost": "5863",
						"totalCost": "828063"
					},
					"external": {
						"getGameHistory()": "infinite",
						"getSpecificGameHistory(uint256)": "infinite",
						"getUser1(uint256)": "9069",
						"play(uint256)": "infinite"
					},
					"internal": {
						"game()": "infinite"
					}
				},
				"methodIdentifiers": {
					"getGameHistory()": "512ec557",
					"getSpecificGameHistory(uint256)": "f7c4efbb",
					"getUser1(uint256)": "e417f4a3",
					"play(uint256)": "6898f82b"
				}
			},
			"storageLayout": {
				"storage": [
					{
						"astId": 18,
						"contract": "Practical2-RockPaperScissors-Jason.sol:RockPaperScissors",
						"label": "userCount",
						"offset": 0,
						"slot": "0",
						"type": "t_uint256"
					},
					{
						"astId": 22,
						"contract": "Practical2-RockPaperScissors-Jason.sol:RockPaperScissors",
						"label": "gameHistory",
						"offset": 0,
						"slot": "1",
						"type": "t_array(t_struct(GameInfo)15_storage)dyn_storage"
					},
					{
						"astId": 24,
						"contract": "Practical2-RockPaperScissors-Jason.sol:RockPaperScissors",
						"label": "locked",
						"offset": 0,
						"slot": "2",
						"type": "t_bool"
					}
				],
				"types": {
					"t_address": {
						"encoding": "inplace",
						"label": "address",
						"numberOfBytes": "20"
					},
					"t_array(t_struct(GameInfo)15_storage)dyn_storage": {
						"base": "t_struct(GameInfo)15_storage",
						"encoding": "dynamic_array",
						"label": "struct RockPaperScissors.GameInfo[]",
						"numberOfBytes": "32"
					},
					"t_bool": {
						"encoding": "inplace",
						"label": "bool",
						"numberOfBytes": "1"
					},
					"t_string_storage": {
						"encoding": "bytes",
						"label": "string",
						"numberOfBytes": "32"
					},
					"t_struct(GameInfo)15_storage": {
						"encoding": "inplace",
						"label": "struct RockPaperScissors.GameInfo",
						"members": [
							{
								"astId": 9,
								"contract": "Practical2-RockPaperScissors-Jason.sol:RockPaperScissors",
								"label": "user1",
								"offset": 0,
								"slot": "0",
								"type": "t_struct(UserInfo)6_storage"
							},
							{
								"astId": 12,
								"contract": "Practical2-RockPaperScissors-Jason.sol:RockPaperScissors",
								"label": "user2",
								"offset": 0,
								"slot": "2",
								"type": "t_struct(UserInfo)6_storage"
							},
							{
								"astId": 14,
								"contract": "Practical2-RockPaperScissors-Jason.sol:RockPaperScissors",
								"label": "finalResult",
								"offset": 0,
								"slot": "4",
								"type": "t_string_storage"
							}
						],
						"numberOfBytes": "160"
					},
					"t_struct(UserInfo)6_storage": {
						"encoding": "inplace",
						"label": "struct RockPaperScissors.UserInfo",
						"members": [
							{
								"astId": 3,
								"contract": "Practical2-RockPaperScissors-Jason.sol:RockPaperScissors",
								"label": "userAddress",
								"offset": 0,
								"slot": "0",
								"type": "t_address"
							},
							{
								"astId": 5,
								"contract": "Practical2-RockPaperScissors-Jason.sol:RockPaperScissors",
								"label": "userOption",
								"offset": 0,
								"slot": "1",
								"type": "t_uint256"
							}
						],
						"numberOfBytes": "64"
					},
					"t_uint256": {
						"encoding": "inplace",
						"label": "uint256",
						"numberOfBytes": "32"
					}
				}
			},
			"userdoc": {
				"kind": "user",
				"methods": {},
				"version": 1
			}
		}
	}
}