{
	"Practical1-Jason.sol": {
		"RockPaperScissors": {
			"abi": [
				{
					"inputs": [],
					"name": "logicCheck",
					"outputs": [
						{
							"internalType": "string",
							"name": "",
							"type": "string"
						}
					],
					"stateMutability": "view",
					"type": "function"
				},
				{
					"inputs": [],
					"name": "user1Choose",
					"outputs": [
						{
							"internalType": "uint256",
							"name": "",
							"type": "uint256"
						}
					],
					"stateMutability": "view",
					"type": "function"
				},
				{
					"inputs": [
						{
							"internalType": "uint256",
							"name": "decisionofRockPaperScissors",
							"type": "uint256"
						}
					],
					"name": "user1Dicision",
					"outputs": [],
					"stateMutability": "nonpayable",
					"type": "function"
				},
				{
					"inputs": [],
					"name": "user2Choose",
					"outputs": [
						{
							"internalType": "uint256",
							"name": "",
							"type": "uint256"
						}
					],
					"stateMutability": "view",
					"type": "function"
				},
				{
					"inputs": [
						{
							"internalType": "uint256",
							"name": "decisionofRockPaperScissors",
							"type": "uint256"
						}
					],
					"name": "user2Dicision",
					"outputs": [],
					"stateMutability": "nonpayable",
					"type": "function"
				}
			],
			"devdoc": {
				"kind": "dev",
				"methods": {},
				"version": 1
			},
			"evm": {
				"assembly": "    /* \"Practical1-Jason.sol\":1077:2912  contract RockPaperScissors {... */\n  mstore(0x40, 0x80)\n  callvalue\n  dup1\n  iszero\n  tag_1\n  jumpi\n  0x00\n  dup1\n  revert\ntag_1:\n  pop\n  dataSize(sub_0)\n  dup1\n  dataOffset(sub_0)\n  0x00\n  codecopy\n  0x00\n  return\nstop\n\nsub_0: assembly {\n        /* \"Practical1-Jason.sol\":1077:2912  contract RockPaperScissors {... */\n      mstore(0x40, 0x80)\n      callvalue\n      dup1\n      iszero\n      tag_1\n      jumpi\n      0x00\n      dup1\n      revert\n    tag_1:\n      pop\n      jumpi(tag_2, lt(calldatasize, 0x04))\n      shr(0xe0, calldataload(0x00))\n      dup1\n      0x3bc0961c\n      eq\n      tag_3\n      jumpi\n      dup1\n      0x669997bc\n      eq\n      tag_4\n      jumpi\n      dup1\n      0x81c7373a\n      eq\n      tag_5\n      jumpi\n      dup1\n      0xb2e43e15\n      eq\n      tag_6\n      jumpi\n      dup1\n      0xf054c589\n      eq\n      tag_7\n      jumpi\n    tag_2:\n      0x00\n      dup1\n      revert\n        /* \"Practical1-Jason.sol\":1644:2008  function user2Dicision (uint decisionofRockPaperScissors ) external {... */\n    tag_3:\n      tag_8\n      tag_9\n      calldatasize\n      0x04\n      tag_10\n      jump\t// in\n    tag_9:\n      tag_11\n      jump\t// in\n    tag_8:\n      stop\n        /* \"Practical1-Jason.sol\":2076:2907  function logicCheck () view external returns (string memory){... */\n    tag_4:\n      tag_12\n      tag_13\n      jump\t// in\n    tag_12:\n      mload(0x40)\n      tag_14\n      swap2\n      swap1\n      tag_15\n      jump\t// in\n    tag_14:\n      mload(0x40)\n      dup1\n      swap2\n      sub\n      swap1\n      return\n        /* \"Practical1-Jason.sol\":1212:1235  uint public user2Choose */\n    tag_5:\n      tag_16\n      sload(0x01)\n      dup2\n      jump\n    tag_16:\n      mload(0x40)\n        /* \"#utility.yul\":898:923   */\n      swap1\n      dup2\n      mstore\n        /* \"#utility.yul\":886:888   */\n      0x20\n        /* \"#utility.yul\":871:889   */\n      add\n        /* \"Practical1-Jason.sol\":1212:1235  uint public user2Choose */\n      tag_14\n        /* \"#utility.yul\":752:929   */\n      jump\n        /* \"Practical1-Jason.sol\":1182:1205  uint public user1Choose */\n    tag_6:\n      tag_16\n      sload(0x00)\n      dup2\n      jump\n        /* \"Practical1-Jason.sol\":1274:1638  function user1Dicision (uint decisionofRockPaperScissors ) external {... */\n    tag_7:\n      tag_8\n      tag_24\n      calldatasize\n      0x04\n      tag_10\n      jump\t// in\n    tag_24:\n      tag_25\n      jump\t// in\n        /* \"Practical1-Jason.sol\":1644:2008  function user2Dicision (uint decisionofRockPaperScissors ) external {... */\n    tag_11:\n        /* \"Practical1-Jason.sol\":1727:1754  decisionofRockPaperScissors */\n      dup1\n        /* \"Practical1-Jason.sol\":1760:1761  1 */\n      0x01\n        /* \"Practical1-Jason.sol\":1726:1762  (decisionofRockPaperScissors) == (1) */\n      eq\n        /* \"Practical1-Jason.sol\":1726:1800  (decisionofRockPaperScissors) == (1)||(decisionofRockPaperScissors) == (2) */\n      dup1\n      tag_27\n      jumpi\n      pop\n        /* \"Practical1-Jason.sol\":1765:1792  decisionofRockPaperScissors */\n      dup1\n        /* \"Practical1-Jason.sol\":1798:1799  2 */\n      0x02\n        /* \"Practical1-Jason.sol\":1764:1800  (decisionofRockPaperScissors) == (2) */\n      eq\n        /* \"Practical1-Jason.sol\":1726:1800  (decisionofRockPaperScissors) == (1)||(decisionofRockPaperScissors) == (2) */\n    tag_27:\n        /* \"Practical1-Jason.sol\":1726:1838  (decisionofRockPaperScissors) == (1)||(decisionofRockPaperScissors) == (2)||(decisionofRockPaperScissors) == (3) */\n      dup1\n      tag_28\n      jumpi\n      pop\n        /* \"Practical1-Jason.sol\":1803:1830  decisionofRockPaperScissors */\n      dup1\n        /* \"Practical1-Jason.sol\":1836:1837  3 */\n      0x03\n        /* \"Practical1-Jason.sol\":1802:1838  (decisionofRockPaperScissors) == (3) */\n      eq\n        /* \"Practical1-Jason.sol\":1726:1838  (decisionofRockPaperScissors) == (1)||(decisionofRockPaperScissors) == (2)||(decisionofRockPaperScissors) == (3) */\n    tag_28:\n        /* \"Practical1-Jason.sol\":1723:2001  if((decisionofRockPaperScissors) == (1)||(decisionofRockPaperScissors) == (2)||(decisionofRockPaperScissors) == (3))... */\n      iszero\n      tag_29\n      jumpi\n        /* \"Practical1-Jason.sol\":1864:1875  user2Choose */\n      0x01\n        /* \"Practical1-Jason.sol\":1864:1905  user2Choose = decisionofRockPaperScissors */\n      sstore\n        /* \"Practical1-Jason.sol\":1644:2008  function user2Dicision (uint decisionofRockPaperScissors ) external {... */\n      jump\t// out\n        /* \"Practical1-Jason.sol\":1723:2001  if((decisionofRockPaperScissors) == (1)||(decisionofRockPaperScissors) == (2)||(decisionofRockPaperScissors) == (3))... */\n    tag_29:\n        /* \"Practical1-Jason.sol\":1956:1989  revert (\"Please entey 1, 2 or 3\") */\n      mload(0x40)\n      shl(0xe5, 0x461bcd)\n      dup2\n      mstore\n        /* \"#utility.yul\":1136:1138   */\n      0x20\n        /* \"Practical1-Jason.sol\":1956:1989  revert (\"Please entey 1, 2 or 3\") */\n      0x04\n      dup3\n      add\n        /* \"#utility.yul\":1118:1139   */\n      mstore\n        /* \"#utility.yul\":1175:1177   */\n      0x16\n        /* \"#utility.yul\":1155:1173   */\n      0x24\n      dup3\n      add\n        /* \"#utility.yul\":1148:1178   */\n      mstore\n      shl(0x50, 0x506c6561736520656e74657920312c2032206f722033)\n        /* \"#utility.yul\":1194:1212   */\n      0x44\n      dup3\n      add\n        /* \"#utility.yul\":1187:1239   */\n      mstore\n        /* \"#utility.yul\":1256:1274   */\n      0x64\n      add\n        /* \"Practical1-Jason.sol\":1956:1989  revert (\"Please entey 1, 2 or 3\") */\n      mload(0x40)\n      dup1\n      swap2\n      sub\n      swap1\n      revert\n        /* \"Practical1-Jason.sol\":2076:2907  function logicCheck () view external returns (string memory){... */\n    tag_13:\n        /* \"Practical1-Jason.sol\":2122:2135  string memory */\n      0x60\n        /* \"Practical1-Jason.sol\":2150:2161  user1Choose */\n      sload(0x00)\n        /* \"Practical1-Jason.sol\":2165:2166  1 */\n      0x01\n        /* \"Practical1-Jason.sol\":2150:2166  user1Choose == 1 */\n      sub\n        /* \"Practical1-Jason.sol\":2147:2378  if(user1Choose == 1){... */\n      tag_37\n      jumpi\n        /* \"Practical1-Jason.sol\":2185:2196  user2Choose */\n      sload(0x01)\n        /* \"Practical1-Jason.sol\":2200:2201  1 */\n      0x01\n        /* \"Practical1-Jason.sol\":2185:2201  user2Choose == 1 */\n      sub\n        /* \"Practical1-Jason.sol\":2182:2234  if(user2Choose == 1)... */\n      tag_35\n      jumpi\n      pop\n        /* \"Practical1-Jason.sol\":2220:2234  return (\"Tie\") */\n      0x40\n      dup1\n      mload\n      dup1\n      dup3\n      add\n      swap1\n      swap2\n      mstore\n      0x03\n      dup2\n      mstore\n      shl(0xe8, 0x546965)\n      0x20\n      dup3\n      add\n      mstore\n      swap1\n        /* \"Practical1-Jason.sol\":2076:2907  function logicCheck () view external returns (string memory){... */\n      jump\t// out\n        /* \"Practical1-Jason.sol\":2182:2234  if(user2Choose == 1)... */\n    tag_35:\n        /* \"Practical1-Jason.sol\":2252:2263  user2Choose */\n      sload(0x01)\n        /* \"Practical1-Jason.sol\":2267:2268  2 */\n      0x02\n        /* \"Practical1-Jason.sol\":2252:2268  user2Choose == 2 */\n      sub\n        /* \"Practical1-Jason.sol\":2249:2366  if(user2Choose == 2)... */\n      tag_36\n      jumpi\n      pop\n        /* \"Practical1-Jason.sol\":2287:2308  return (\"User2 Win!\") */\n      0x40\n      dup1\n      mload\n      dup1\n      dup3\n      add\n      swap1\n      swap2\n      mstore\n      0x0a\n      dup2\n      mstore\n      shl(0xb0, 0x55736572322057696e21)\n      0x20\n      dup3\n      add\n      mstore\n      swap1\n        /* \"Practical1-Jason.sol\":2076:2907  function logicCheck () view external returns (string memory){... */\n      jump\t// out\n        /* \"Practical1-Jason.sol\":2249:2366  if(user2Choose == 2)... */\n    tag_36:\n      pop\n        /* \"Practical1-Jason.sol\":2345:2366  return (\"User1 Win!\") */\n      0x40\n      dup1\n      mload\n      dup1\n      dup3\n      add\n      swap1\n      swap2\n      mstore\n      0x0a\n      dup2\n      mstore\n      shl(0xb0, 0x55736572312057696e21)\n      0x20\n      dup3\n      add\n      mstore\n      swap1\n        /* \"Practical1-Jason.sol\":2076:2907  function logicCheck () view external returns (string memory){... */\n      jump\t// out\n        /* \"Practical1-Jason.sol\":2249:2366  if(user2Choose == 2)... */\n    tag_37:\n        /* \"Practical1-Jason.sol\":2391:2402  user1Choose */\n      sload(0x00)\n        /* \"Practical1-Jason.sol\":2406:2407  2 */\n      0x02\n        /* \"Practical1-Jason.sol\":2391:2407  user1Choose == 2 */\n      sub\n        /* \"Practical1-Jason.sol\":2388:2619  if(user1Choose == 2){... */\n      tag_41\n      jumpi\n        /* \"Practical1-Jason.sol\":2426:2437  user2Choose */\n      sload(0x01)\n        /* \"Practical1-Jason.sol\":2441:2442  2 */\n      0x02\n        /* \"Practical1-Jason.sol\":2426:2442  user2Choose == 2 */\n      sub\n        /* \"Practical1-Jason.sol\":2423:2475  if(user2Choose == 2)... */\n      tag_39\n      jumpi\n      pop\n        /* \"Practical1-Jason.sol\":2461:2475  return (\"Tie\") */\n      0x40\n      dup1\n      mload\n      dup1\n      dup3\n      add\n      swap1\n      swap2\n      mstore\n      0x03\n      dup2\n      mstore\n      shl(0xe8, 0x546965)\n      0x20\n      dup3\n      add\n      mstore\n      swap1\n        /* \"Practical1-Jason.sol\":2076:2907  function logicCheck () view external returns (string memory){... */\n      jump\t// out\n        /* \"Practical1-Jason.sol\":2423:2475  if(user2Choose == 2)... */\n    tag_39:\n        /* \"Practical1-Jason.sol\":2493:2504  user2Choose */\n      sload(0x01)\n        /* \"Practical1-Jason.sol\":2508:2509  3 */\n      0x03\n        /* \"Practical1-Jason.sol\":2493:2509  user2Choose == 3 */\n      sub\n        /* \"Practical1-Jason.sol\":2490:2607  if(user2Choose == 3)... */\n      tag_36\n      jumpi\n      pop\n        /* \"Practical1-Jason.sol\":2528:2549  return (\"User2 Win!\") */\n      0x40\n      dup1\n      mload\n      dup1\n      dup3\n      add\n      swap1\n      swap2\n      mstore\n      0x0a\n      dup2\n      mstore\n      shl(0xb0, 0x55736572322057696e21)\n      0x20\n      dup3\n      add\n      mstore\n      swap1\n        /* \"Practical1-Jason.sol\":2076:2907  function logicCheck () view external returns (string memory){... */\n      jump\t// out\n        /* \"Practical1-Jason.sol\":2490:2607  if(user2Choose == 3)... */\n    tag_41:\n        /* \"Practical1-Jason.sol\":2632:2643  user1Choose */\n      sload(0x00)\n        /* \"Practical1-Jason.sol\":2647:2648  3 */\n      0x03\n        /* \"Practical1-Jason.sol\":2632:2648  user1Choose == 3 */\n      sub\n        /* \"Practical1-Jason.sol\":2629:2860  if(user1Choose == 3){... */\n      tag_45\n      jumpi\n        /* \"Practical1-Jason.sol\":2667:2678  user2Choose */\n      sload(0x01)\n        /* \"Practical1-Jason.sol\":2682:2683  3 */\n      0x03\n        /* \"Practical1-Jason.sol\":2667:2683  user2Choose == 3 */\n      sub\n        /* \"Practical1-Jason.sol\":2664:2716  if(user2Choose == 3)... */\n      tag_43\n      jumpi\n      pop\n        /* \"Practical1-Jason.sol\":2702:2716  return (\"Tie\") */\n      0x40\n      dup1\n      mload\n      dup1\n      dup3\n      add\n      swap1\n      swap2\n      mstore\n      0x03\n      dup2\n      mstore\n      shl(0xe8, 0x546965)\n      0x20\n      dup3\n      add\n      mstore\n      swap1\n        /* \"Practical1-Jason.sol\":2076:2907  function logicCheck () view external returns (string memory){... */\n      jump\t// out\n        /* \"Practical1-Jason.sol\":2664:2716  if(user2Choose == 3)... */\n    tag_43:\n        /* \"Practical1-Jason.sol\":2734:2745  user2Choose */\n      sload(0x01)\n        /* \"Practical1-Jason.sol\":2749:2750  1 */\n      0x01\n        /* \"Practical1-Jason.sol\":2734:2750  user2Choose == 1 */\n      sub\n        /* \"Practical1-Jason.sol\":2731:2848  if(user2Choose == 1)... */\n      tag_36\n      jumpi\n      pop\n        /* \"Practical1-Jason.sol\":2769:2790  return (\"User2 Win!\") */\n      0x40\n      dup1\n      mload\n      dup1\n      dup3\n      add\n      swap1\n      swap2\n      mstore\n      0x0a\n      dup2\n      mstore\n      shl(0xb0, 0x55736572322057696e21)\n      0x20\n      dup3\n      add\n      mstore\n      swap1\n        /* \"Practical1-Jason.sol\":2076:2907  function logicCheck () view external returns (string memory){... */\n      jump\t// out\n        /* \"Practical1-Jason.sol\":2731:2848  if(user2Choose == 1)... */\n    tag_45:\n      pop\n        /* \"Practical1-Jason.sol\":2873:2899  return (\"something wrong\") */\n      0x40\n      dup1\n      mload\n      dup1\n      dup3\n      add\n      swap1\n      swap2\n      mstore\n      0x0f\n      dup2\n      mstore\n      shl(0x88, 0x736f6d657468696e672077726f6e67)\n      0x20\n      dup3\n      add\n      mstore\n      swap1\n        /* \"Practical1-Jason.sol\":2076:2907  function logicCheck () view external returns (string memory){... */\n      jump\t// out\n        /* \"Practical1-Jason.sol\":1274:1638  function user1Dicision (uint decisionofRockPaperScissors ) external {... */\n    tag_25:\n        /* \"Practical1-Jason.sol\":1357:1384  decisionofRockPaperScissors */\n      dup1\n        /* \"Practical1-Jason.sol\":1390:1391  1 */\n      0x01\n        /* \"Practical1-Jason.sol\":1356:1392  (decisionofRockPaperScissors) == (1) */\n      eq\n        /* \"Practical1-Jason.sol\":1356:1430  (decisionofRockPaperScissors) == (1)||(decisionofRockPaperScissors) == (2) */\n      dup1\n      tag_47\n      jumpi\n      pop\n        /* \"Practical1-Jason.sol\":1395:1422  decisionofRockPaperScissors */\n      dup1\n        /* \"Practical1-Jason.sol\":1428:1429  2 */\n      0x02\n        /* \"Practical1-Jason.sol\":1394:1430  (decisionofRockPaperScissors) == (2) */\n      eq\n        /* \"Practical1-Jason.sol\":1356:1430  (decisionofRockPaperScissors) == (1)||(decisionofRockPaperScissors) == (2) */\n    tag_47:\n        /* \"Practical1-Jason.sol\":1356:1468  (decisionofRockPaperScissors) == (1)||(decisionofRockPaperScissors) == (2)||(decisionofRockPaperScissors) == (3) */\n      dup1\n      tag_48\n      jumpi\n      pop\n        /* \"Practical1-Jason.sol\":1433:1460  decisionofRockPaperScissors */\n      dup1\n        /* \"Practical1-Jason.sol\":1466:1467  3 */\n      0x03\n        /* \"Practical1-Jason.sol\":1432:1468  (decisionofRockPaperScissors) == (3) */\n      eq\n        /* \"Practical1-Jason.sol\":1356:1468  (decisionofRockPaperScissors) == (1)||(decisionofRockPaperScissors) == (2)||(decisionofRockPaperScissors) == (3) */\n    tag_48:\n        /* \"Practical1-Jason.sol\":1353:1631  if((decisionofRockPaperScissors) == (1)||(decisionofRockPaperScissors) == (2)||(decisionofRockPaperScissors) == (3))... */\n      iszero\n      tag_29\n      jumpi\n        /* \"Practical1-Jason.sol\":1494:1505  user1Choose */\n      0x00\n        /* \"Practical1-Jason.sol\":1494:1535  user1Choose = decisionofRockPaperScissors */\n      sstore\n        /* \"Practical1-Jason.sol\":1644:2008  function user2Dicision (uint decisionofRockPaperScissors ) external {... */\n      jump\t// out\n        /* \"#utility.yul\":14:194   */\n    tag_10:\n        /* \"#utility.yul\":73:79   */\n      0x00\n        /* \"#utility.yul\":126:128   */\n      0x20\n        /* \"#utility.yul\":114:123   */\n      dup3\n        /* \"#utility.yul\":105:112   */\n      dup5\n        /* \"#utility.yul\":101:124   */\n      sub\n        /* \"#utility.yul\":97:129   */\n      slt\n        /* \"#utility.yul\":94:146   */\n      iszero\n      tag_54\n      jumpi\n        /* \"#utility.yul\":142:143   */\n      0x00\n        /* \"#utility.yul\":139:140   */\n      dup1\n        /* \"#utility.yul\":132:144   */\n      revert\n        /* \"#utility.yul\":94:146   */\n    tag_54:\n      pop\n        /* \"#utility.yul\":165:188   */\n      calldataload\n      swap2\n        /* \"#utility.yul\":14:194   */\n      swap1\n      pop\n      jump\t// out\n        /* \"#utility.yul\":199:747   */\n    tag_15:\n        /* \"#utility.yul\":311:315   */\n      0x00\n        /* \"#utility.yul\":340:342   */\n      0x20\n        /* \"#utility.yul\":369:371   */\n      dup1\n        /* \"#utility.yul\":358:367   */\n      dup4\n        /* \"#utility.yul\":351:372   */\n      mstore\n        /* \"#utility.yul\":401:407   */\n      dup4\n        /* \"#utility.yul\":395:408   */\n      mload\n        /* \"#utility.yul\":444:450   */\n      dup1\n        /* \"#utility.yul\":439:441   */\n      dup3\n        /* \"#utility.yul\":428:437   */\n      dup6\n        /* \"#utility.yul\":424:442   */\n      add\n        /* \"#utility.yul\":417:451   */\n      mstore\n        /* \"#utility.yul\":469:470   */\n      0x00\n        /* \"#utility.yul\":479:619   */\n    tag_56:\n        /* \"#utility.yul\":493:499   */\n      dup2\n        /* \"#utility.yul\":490:491   */\n      dup2\n        /* \"#utility.yul\":487:500   */\n      lt\n        /* \"#utility.yul\":479:619   */\n      iszero\n      tag_58\n      jumpi\n        /* \"#utility.yul\":588:602   */\n      dup6\n      dup2\n      add\n        /* \"#utility.yul\":584:607   */\n      dup4\n      add\n        /* \"#utility.yul\":578:608   */\n      mload\n        /* \"#utility.yul\":554:571   */\n      dup6\n      dup3\n      add\n        /* \"#utility.yul\":573:575   */\n      0x40\n        /* \"#utility.yul\":550:576   */\n      add\n        /* \"#utility.yul\":543:609   */\n      mstore\n        /* \"#utility.yul\":508:518   */\n      dup3\n      add\n        /* \"#utility.yul\":479:619   */\n      jump(tag_56)\n    tag_58:\n        /* \"#utility.yul\":483:486   */\n      pop\n        /* \"#utility.yul\":668:669   */\n      0x00\n        /* \"#utility.yul\":663:665   */\n      0x40\n        /* \"#utility.yul\":654:660   */\n      dup3\n        /* \"#utility.yul\":643:652   */\n      dup7\n        /* \"#utility.yul\":639:661   */\n      add\n        /* \"#utility.yul\":635:666   */\n      add\n        /* \"#utility.yul\":628:670   */\n      mstore\n        /* \"#utility.yul\":738:740   */\n      0x40\n        /* \"#utility.yul\":731:733   */\n      0x1f\n        /* \"#utility.yul\":727:734   */\n      not\n        /* \"#utility.yul\":722:724   */\n      0x1f\n        /* \"#utility.yul\":714:720   */\n      dup4\n        /* \"#utility.yul\":710:725   */\n      add\n        /* \"#utility.yul\":706:735   */\n      and\n        /* \"#utility.yul\":695:704   */\n      dup6\n        /* \"#utility.yul\":691:736   */\n      add\n        /* \"#utility.yul\":687:741   */\n      add\n        /* \"#utility.yul\":679:741   */\n      swap3\n      pop\n      pop\n      pop\n        /* \"#utility.yul\":199:747   */\n      swap3\n      swap2\n      pop\n      pop\n      jump\t// out\n\n    auxdata: 0xa2646970667358221220f52a7dbc1f967e0f9a8efb639bde5bbebfa52f56d16de66033b36bf940dbc60764736f6c63430008130033\n}\n",
				"bytecode": {
					"linkReferences": {},
					"object": "608060405234801561001057600080fd5b50610360806100206000396000f3fe608060405234801561001057600080fd5b50600436106100575760003560e01c80633bc0961c1461005c578063669997bc1461007157806381c7373a1461008f578063b2e43e15146100a6578063f054c589146100af575b600080fd5b61006f61006a3660046102c3565b6100c2565b005b61007961012b565b60405161008691906102dc565b60405180910390f35b61009860015481565b604051908152602001610086565b61009860005481565b61006f6100bd3660046102c3565b61029f565b80600114806100d15750806002145b806100dc5750806003145b156100e657600155565b60405162461bcd60e51b8152602060048201526016602482015275506c6561736520656e74657920312c2032206f72203360501b604482015260640160405180910390fd5b60606000546001036101b35760015460010361015f575060408051808201909152600381526254696560e81b602082015290565b60015460020361018e575060408051808201909152600a81526955736572322057696e2160b01b602082015290565b5060408051808201909152600a81526955736572312057696e2160b01b602082015290565b600054600203610214576001546002036101e5575060408051808201909152600381526254696560e81b602082015290565b60015460030361018e575060408051808201909152600a81526955736572322057696e2160b01b602082015290565b60005460030361027557600154600303610246575060408051808201909152600381526254696560e81b602082015290565b60015460010361018e575060408051808201909152600a81526955736572322057696e2160b01b602082015290565b5060408051808201909152600f81526e736f6d657468696e672077726f6e6760881b602082015290565b80600114806102ae5750806002145b806102b95750806003145b156100e657600055565b6000602082840312156102d557600080fd5b5035919050565b600060208083528351808285015260005b81811015610309578581018301518582016040015282016102ed565b506000604082860101526040601f19601f830116850101925050509291505056fea2646970667358221220f52a7dbc1f967e0f9a8efb639bde5bbebfa52f56d16de66033b36bf940dbc60764736f6c63430008130033",
					"opcodes": "PUSH1 0x80 PUSH1 0x40 MSTORE CALLVALUE DUP1 ISZERO PUSH2 0x10 JUMPI PUSH1 0x0 DUP1 REVERT JUMPDEST POP PUSH2 0x360 DUP1 PUSH2 0x20 PUSH1 0x0 CODECOPY PUSH1 0x0 RETURN INVALID PUSH1 0x80 PUSH1 0x40 MSTORE CALLVALUE DUP1 ISZERO PUSH2 0x10 JUMPI PUSH1 0x0 DUP1 REVERT JUMPDEST POP PUSH1 0x4 CALLDATASIZE LT PUSH2 0x57 JUMPI PUSH1 0x0 CALLDATALOAD PUSH1 0xE0 SHR DUP1 PUSH4 0x3BC0961C EQ PUSH2 0x5C JUMPI DUP1 PUSH4 0x669997BC EQ PUSH2 0x71 JUMPI DUP1 PUSH4 0x81C7373A EQ PUSH2 0x8F JUMPI DUP1 PUSH4 0xB2E43E15 EQ PUSH2 0xA6 JUMPI DUP1 PUSH4 0xF054C589 EQ PUSH2 0xAF JUMPI JUMPDEST PUSH1 0x0 DUP1 REVERT JUMPDEST PUSH2 0x6F PUSH2 0x6A CALLDATASIZE PUSH1 0x4 PUSH2 0x2C3 JUMP JUMPDEST PUSH2 0xC2 JUMP JUMPDEST STOP JUMPDEST PUSH2 0x79 PUSH2 0x12B JUMP JUMPDEST PUSH1 0x40 MLOAD PUSH2 0x86 SWAP2 SWAP1 PUSH2 0x2DC JUMP JUMPDEST PUSH1 0x40 MLOAD DUP1 SWAP2 SUB SWAP1 RETURN JUMPDEST PUSH2 0x98 PUSH1 0x1 SLOAD DUP2 JUMP JUMPDEST PUSH1 0x40 MLOAD SWAP1 DUP2 MSTORE PUSH1 0x20 ADD PUSH2 0x86 JUMP JUMPDEST PUSH2 0x98 PUSH1 0x0 SLOAD DUP2 JUMP JUMPDEST PUSH2 0x6F PUSH2 0xBD CALLDATASIZE PUSH1 0x4 PUSH2 0x2C3 JUMP JUMPDEST PUSH2 0x29F JUMP JUMPDEST DUP1 PUSH1 0x1 EQ DUP1 PUSH2 0xD1 JUMPI POP DUP1 PUSH1 0x2 EQ JUMPDEST DUP1 PUSH2 0xDC JUMPI POP DUP1 PUSH1 0x3 EQ JUMPDEST ISZERO PUSH2 0xE6 JUMPI PUSH1 0x1 SSTORE JUMP JUMPDEST PUSH1 0x40 MLOAD PUSH3 0x461BCD PUSH1 0xE5 SHL DUP2 MSTORE PUSH1 0x20 PUSH1 0x4 DUP3 ADD MSTORE PUSH1 0x16 PUSH1 0x24 DUP3 ADD MSTORE PUSH22 0x506C6561736520656E74657920312C2032206F722033 PUSH1 0x50 SHL PUSH1 0x44 DUP3 ADD MSTORE PUSH1 0x64 ADD PUSH1 0x40 MLOAD DUP1 SWAP2 SUB SWAP1 REVERT JUMPDEST PUSH1 0x60 PUSH1 0x0 SLOAD PUSH1 0x1 SUB PUSH2 0x1B3 JUMPI PUSH1 0x1 SLOAD PUSH1 0x1 SUB PUSH2 0x15F JUMPI POP PUSH1 0x40 DUP1 MLOAD DUP1 DUP3 ADD SWAP1 SWAP2 MSTORE PUSH1 0x3 DUP2 MSTORE PUSH3 0x546965 PUSH1 0xE8 SHL PUSH1 0x20 DUP3 ADD MSTORE SWAP1 JUMP JUMPDEST PUSH1 0x1 SLOAD PUSH1 0x2 SUB PUSH2 0x18E JUMPI POP PUSH1 0x40 DUP1 MLOAD DUP1 DUP3 ADD SWAP1 SWAP2 MSTORE PUSH1 0xA DUP2 MSTORE PUSH10 0x55736572322057696E21 PUSH1 0xB0 SHL PUSH1 0x20 DUP3 ADD MSTORE SWAP1 JUMP JUMPDEST POP PUSH1 0x40 DUP1 MLOAD DUP1 DUP3 ADD SWAP1 SWAP2 MSTORE PUSH1 0xA DUP2 MSTORE PUSH10 0x55736572312057696E21 PUSH1 0xB0 SHL PUSH1 0x20 DUP3 ADD MSTORE SWAP1 JUMP JUMPDEST PUSH1 0x0 SLOAD PUSH1 0x2 SUB PUSH2 0x214 JUMPI PUSH1 0x1 SLOAD PUSH1 0x2 SUB PUSH2 0x1E5 JUMPI POP PUSH1 0x40 DUP1 MLOAD DUP1 DUP3 ADD SWAP1 SWAP2 MSTORE PUSH1 0x3 DUP2 MSTORE PUSH3 0x546965 PUSH1 0xE8 SHL PUSH1 0x20 DUP3 ADD MSTORE SWAP1 JUMP JUMPDEST PUSH1 0x1 SLOAD PUSH1 0x3 SUB PUSH2 0x18E JUMPI POP PUSH1 0x40 DUP1 MLOAD DUP1 DUP3 ADD SWAP1 SWAP2 MSTORE PUSH1 0xA DUP2 MSTORE PUSH10 0x55736572322057696E21 PUSH1 0xB0 SHL PUSH1 0x20 DUP3 ADD MSTORE SWAP1 JUMP JUMPDEST PUSH1 0x0 SLOAD PUSH1 0x3 SUB PUSH2 0x275 JUMPI PUSH1 0x1 SLOAD PUSH1 0x3 SUB PUSH2 0x246 JUMPI POP PUSH1 0x40 DUP1 MLOAD DUP1 DUP3 ADD SWAP1 SWAP2 MSTORE PUSH1 0x3 DUP2 MSTORE PUSH3 0x546965 PUSH1 0xE8 SHL PUSH1 0x20 DUP3 ADD MSTORE SWAP1 JUMP JUMPDEST PUSH1 0x1 SLOAD PUSH1 0x1 SUB PUSH2 0x18E JUMPI POP PUSH1 0x40 DUP1 MLOAD DUP1 DUP3 ADD SWAP1 SWAP2 MSTORE PUSH1 0xA DUP2 MSTORE PUSH10 0x55736572322057696E21 PUSH1 0xB0 SHL PUSH1 0x20 DUP3 ADD MSTORE SWAP1 JUMP JUMPDEST POP PUSH1 0x40 DUP1 MLOAD DUP1 DUP3 ADD SWAP1 SWAP2 MSTORE PUSH1 0xF DUP2 MSTORE PUSH15 0x736F6D657468696E672077726F6E67 PUSH1 0x88 SHL PUSH1 0x20 DUP3 ADD MSTORE SWAP1 JUMP JUMPDEST DUP1 PUSH1 0x1 EQ DUP1 PUSH2 0x2AE JUMPI POP DUP1 PUSH1 0x2 EQ JUMPDEST DUP1 PUSH2 0x2B9 JUMPI POP DUP1 PUSH1 0x3 EQ JUMPDEST ISZERO PUSH2 0xE6 JUMPI PUSH1 0x0 SSTORE JUMP JUMPDEST PUSH1 0x0 PUSH1 0x20 DUP3 DUP5 SUB SLT ISZERO PUSH2 0x2D5 JUMPI PUSH1 0x0 DUP1 REVERT JUMPDEST POP CALLDATALOAD SWAP2 SWAP1 POP JUMP JUMPDEST PUSH1 0x0 PUSH1 0x20 DUP1 DUP4 MSTORE DUP4 MLOAD DUP1 DUP3 DUP6 ADD MSTORE PUSH1 0x0 JUMPDEST DUP2 DUP2 LT ISZERO PUSH2 0x309 JUMPI DUP6 DUP2 ADD DUP4 ADD MLOAD DUP6 DUP3 ADD PUSH1 0x40 ADD MSTORE DUP3 ADD PUSH2 0x2ED JUMP JUMPDEST POP PUSH1 0x0 PUSH1 0x40 DUP3 DUP7 ADD ADD MSTORE PUSH1 0x40 PUSH1 0x1F NOT PUSH1 0x1F DUP4 ADD AND DUP6 ADD ADD SWAP3 POP POP POP SWAP3 SWAP2 POP POP JUMP INVALID LOG2 PUSH5 0x6970667358 0x22 SLT KECCAK256 CREATE2 0x2A PUSH30 0xBC1F967E0F9A8EFB639BDE5BBEBFA52F56D16DE66033B36BF940DBC60764 PUSH20 0x6F6C634300081300330000000000000000000000 "
				},
				"gasEstimates": {
					"creation": {
						"codeDepositCost": "172800",
						"executionCost": "214",
						"totalCost": "173014"
					},
					"external": {
						"logicCheck()": "infinite",
						"user1Choose()": "2339",
						"user1Dicision(uint256)": "22471",
						"user2Choose()": "2317",
						"user2Dicision(uint256)": "22383"
					}
				},
				"methodIdentifiers": {
					"logicCheck()": "669997bc",
					"user1Choose()": "b2e43e15",
					"user1Dicision(uint256)": "f054c589",
					"user2Choose()": "81c7373a",
					"user2Dicision(uint256)": "3bc0961c"
				}
			},
			"storageLayout": {
				"storage": [
					{
						"astId": 67,
						"contract": "Practical1-Jason.sol:RockPaperScissors",
						"label": "user1Choose",
						"offset": 0,
						"slot": "0",
						"type": "t_uint256"
					},
					{
						"astId": 69,
						"contract": "Practical1-Jason.sol:RockPaperScissors",
						"label": "user2Choose",
						"offset": 0,
						"slot": "1",
						"type": "t_uint256"
					}
				],
				"types": {
					"t_uint256": {
						"encoding": "inplace",
						"label": "uint256",
						"numberOfBytes": "32"
					}
				}
			},
			"userdoc": {
				"kind": "user",
				"methods": {},
				"version": 1
			}
		}
	}
}