{
	"Practical2-RockPaperScissors-Jason.sol": {
		"RockPaperScissors": {
			"abi": [
				{
					"anonymous": false,
					"inputs": [
						{
							"indexed": false,
							"internalType": "uint256",
							"name": "",
							"type": "uint256"
						}
					],
					"name": "showArraylenght",
					"type": "event"
				},
				{
					"anonymous": false,
					"inputs": [
						{
							"indexed": false,
							"internalType": "string",
							"name": "",
							"type": "string"
						}
					],
					"name": "showError",
					"type": "event"
				},
				{
					"anonymous": false,
					"inputs": [
						{
							"indexed": false,
							"internalType": "string",
							"name": "logResult",
							"type": "string"
						}
					],
					"name": "showResult",
					"type": "event"
				},
				{
					"anonymous": false,
					"inputs": [
						{
							"indexed": true,
							"internalType": "address",
							"name": "logUserAddress",
							"type": "address"
						}
					],
					"name": "showUserAddress",
					"type": "event"
				},
				{
					"inputs": [],
					"name": "getGameHistory",
					"outputs": [
						{
							"components": [
								{
									"components": [
										{
											"internalType": "address",
											"name": "userAddress",
											"type": "address"
										},
										{
											"internalType": "uint256",
											"name": "userOption",
											"type": "uint256"
										}
									],
									"internalType": "struct RockPaperScissors.UserInfo",
									"name": "user1",
									"type": "tuple"
								},
								{
									"components": [
										{
											"internalType": "address",
											"name": "userAddress",
											"type": "address"
										},
										{
											"internalType": "uint256",
											"name": "userOption",
											"type": "uint256"
										}
									],
									"internalType": "struct RockPaperScissors.UserInfo",
									"name": "user2",
									"type": "tuple"
								},
								{
									"internalType": "string",
									"name": "finalResult",
									"type": "string"
								}
							],
							"internalType": "struct RockPaperScissors.GameInfo[]",
							"name": "",
							"type": "tuple[]"
						}
					],
					"stateMutability": "view",
					"type": "function"
				},
				{
					"inputs": [
						{
							"internalType": "uint256",
							"name": "index",
							"type": "uint256"
						}
					],
					"name": "getSpecificGameHistory",
					"outputs": [
						{
							"components": [
								{
									"components": [
										{
											"internalType": "address",
											"name": "userAddress",
											"type": "address"
										},
										{
											"internalType": "uint256",
											"name": "userOption",
											"type": "uint256"
										}
									],
									"internalType": "struct RockPaperScissors.UserInfo",
									"name": "user1",
									"type": "tuple"
								},
								{
									"components": [
										{
											"internalType": "address",
											"name": "userAddress",
											"type": "address"
										},
										{
											"internalType": "uint256",
											"name": "userOption",
											"type": "uint256"
										}
									],
									"internalType": "struct RockPaperScissors.UserInfo",
									"name": "user2",
									"type": "tuple"
								},
								{
									"internalType": "string",
									"name": "finalResult",
									"type": "string"
								}
							],
							"internalType": "struct RockPaperScissors.GameInfo",
							"name": "",
							"type": "tuple"
						}
					],
					"stateMutability": "view",
					"type": "function"
				},
				{
					"inputs": [
						{
							"internalType": "uint256",
							"name": "option",
							"type": "uint256"
						}
					],
					"name": "getUserOption",
					"outputs": [],
					"stateMutability": "nonpayable",
					"type": "function"
				},
				{
					"inputs": [],
					"name": "showWaitingPoll",
					"outputs": [
						{
							"components": [
								{
									"internalType": "address",
									"name": "userAddress",
									"type": "address"
								},
								{
									"internalType": "uint256",
									"name": "userOption",
									"type": "uint256"
								}
							],
							"internalType": "struct RockPaperScissors.UserInfo[]",
							"name": "",
							"type": "tuple[]"
						}
					],
					"stateMutability": "view",
					"type": "function"
				}
			],
			"devdoc": {
				"kind": "dev",
				"methods": {},
				"version": 1
			},
			"evm": {
				"assembly": "    /* \"Practical2-RockPaperScissors-Jason.sol\":57:5839  contract RockPaperScissors {... */\n  mstore(0x40, 0x80)\n    /* \"Practical2-RockPaperScissors-Jason.sol\":513:514  0 */\n  0x00\n    /* \"Practical2-RockPaperScissors-Jason.sol\":488:514  uint private userCount = 0 */\n  dup1\n  sstore\n    /* \"Practical2-RockPaperScissors-Jason.sol\":711:712  1 */\n  0x01\n    /* \"Practical2-RockPaperScissors-Jason.sol\":691:712  uint private salt = 1 */\n  0x03\n  sstore\n    /* \"Practical2-RockPaperScissors-Jason.sol\":57:5839  contract RockPaperScissors {... */\n  callvalue\n  dup1\n  iszero\n  tag_1\n  jumpi\n  0x00\n  dup1\n  revert\ntag_1:\n  pop\n  dataSize(sub_0)\n  dup1\n  dataOffset(sub_0)\n  0x00\n  codecopy\n  0x00\n  return\nstop\n\nsub_0: assembly {\n        /* \"Practical2-RockPaperScissors-Jason.sol\":57:5839  contract RockPaperScissors {... */\n      mstore(0x40, 0x80)\n      callvalue\n      dup1\n      iszero\n      tag_1\n      jumpi\n      0x00\n      dup1\n      revert\n    tag_1:\n      pop\n      jumpi(tag_2, lt(calldatasize, 0x04))\n      shr(0xe0, calldataload(0x00))\n      dup1\n      0x512ec557\n      eq\n      tag_3\n      jumpi\n      dup1\n      0xadf496b5\n      eq\n      tag_4\n      jumpi\n      dup1\n      0xe16c9d59\n      eq\n      tag_5\n      jumpi\n      dup1\n      0xf7c4efbb\n      eq\n      tag_6\n      jumpi\n    tag_2:\n      0x00\n      dup1\n      revert\n        /* \"Practical2-RockPaperScissors-Jason.sol\":1266:1420  function getGameHistory () external view returns(GameInfo[] memory){... */\n    tag_3:\n      tag_7\n      tag_8\n      jump\t// in\n    tag_7:\n      mload(0x40)\n      tag_9\n      swap2\n      swap1\n      tag_10\n      jump\t// in\n    tag_9:\n      mload(0x40)\n      dup1\n      swap2\n      sub\n      swap1\n      return\n        /* \"Practical2-RockPaperScissors-Jason.sol\":2033:3103  function getUserOption(uint option) external noReentrancy{... */\n    tag_4:\n      tag_11\n      tag_12\n      calldatasize\n      0x04\n      tag_13\n      jump\t// in\n    tag_12:\n      tag_14\n      jump\t// in\n    tag_11:\n      stop\n        /* \"Practical2-RockPaperScissors-Jason.sol\":1109:1216  function showWaitingPoll () external view returns (UserInfo[] memory) {... */\n    tag_5:\n      tag_15\n      tag_16\n      jump\t// in\n    tag_15:\n      mload(0x40)\n      tag_9\n      swap2\n      swap1\n      tag_18\n      jump\t// in\n        /* \"Practical2-RockPaperScissors-Jason.sol\":1487:1735  function getSpecificGameHistory (uint index) external view returns(GameInfo memory){... */\n    tag_6:\n      tag_19\n      tag_20\n      calldatasize\n      0x04\n      tag_13\n      jump\t// in\n    tag_20:\n      tag_21\n      jump\t// in\n    tag_19:\n      mload(0x40)\n      tag_9\n      swap2\n      swap1\n      tag_23\n      jump\t// in\n        /* \"Practical2-RockPaperScissors-Jason.sol\":1266:1420  function getGameHistory () external view returns(GameInfo[] memory){... */\n    tag_8:\n        /* \"Practical2-RockPaperScissors-Jason.sol\":1315:1332  GameInfo[] memory */\n      0x60\n        /* \"Practical2-RockPaperScissors-Jason.sol\":1401:1412  gameHistory */\n      0x01\n        /* \"Practical2-RockPaperScissors-Jason.sol\":1393:1413  return (gameHistory) */\n      dup1\n      sload\n      dup1\n      0x20\n      mul\n      0x20\n      add\n      mload(0x40)\n      swap1\n      dup2\n      add\n      0x40\n      mstore\n      dup1\n      swap3\n      swap2\n      swap1\n      dup2\n      dup2\n      mstore\n      0x20\n      add\n      0x00\n      swap1\n    tag_25:\n      dup3\n      dup3\n      lt\n      iszero\n      tag_26\n      jumpi\n      0x00\n      dup5\n      dup2\n      mstore\n      0x20\n      swap1\n      dup2\n      swap1\n      keccak256\n      0x40\n      dup1\n      mload\n      0xa0\n      dup2\n      add\n      dup3\n      mstore\n      0x05\n      dup7\n      mul\n      swap1\n      swap3\n      add\n      dup1\n      sload\n      sub(shl(0xa0, 0x01), 0x01)\n      swap1\n      dup2\n      and\n      0x60\n      dup6\n      add\n      swap1\n      dup2\n      mstore\n      0x01\n      dup4\n      add\n      sload\n      0x80\n      dup7\n      add\n      mstore\n      dup5\n      mstore\n      dup3\n      mload\n      dup1\n      dup5\n      add\n      dup5\n      mstore\n      0x02\n      dup4\n      add\n      sload\n      swap1\n      swap2\n      and\n      dup2\n      mstore\n      0x03\n      dup3\n      add\n      sload\n      dup2\n      dup7\n      add\n      mstore\n      swap4\n      dup4\n      add\n      swap4\n      swap1\n      swap4\n      mstore\n      0x04\n      dup4\n      add\n      dup1\n      sload\n      swap3\n      swap4\n      swap3\n      swap2\n      dup5\n      add\n      swap2\n      tag_28\n      swap1\n      tag_29\n      jump\t// in\n    tag_28:\n      dup1\n      0x1f\n      add\n      0x20\n      dup1\n      swap2\n      div\n      mul\n      0x20\n      add\n      mload(0x40)\n      swap1\n      dup2\n      add\n      0x40\n      mstore\n      dup1\n      swap3\n      swap2\n      swap1\n      dup2\n      dup2\n      mstore\n      0x20\n      add\n      dup3\n      dup1\n      sload\n      tag_30\n      swap1\n      tag_29\n      jump\t// in\n    tag_30:\n      dup1\n      iszero\n      tag_31\n      jumpi\n      dup1\n      0x1f\n      lt\n      tag_32\n      jumpi\n      0x0100\n      dup1\n      dup4\n      sload\n      div\n      mul\n      dup4\n      mstore\n      swap2\n      0x20\n      add\n      swap2\n      jump(tag_31)\n    tag_32:\n      dup3\n      add\n      swap2\n      swap1\n      0x00\n      mstore\n      keccak256(0x00, 0x20)\n      swap1\n    tag_33:\n      dup2\n      sload\n      dup2\n      mstore\n      swap1\n      0x01\n      add\n      swap1\n      0x20\n      add\n      dup1\n      dup4\n      gt\n      tag_33\n      jumpi\n      dup3\n      swap1\n      sub\n      0x1f\n      and\n      dup3\n      add\n      swap2\n    tag_31:\n      pop\n      pop\n      pop\n      pop\n      pop\n      dup2\n      mstore\n      pop\n      pop\n      dup2\n      mstore\n      0x20\n      add\n      swap1\n      0x01\n      add\n      swap1\n      jump(tag_25)\n    tag_26:\n      pop\n      pop\n      pop\n      pop\n      swap1\n      pop\n        /* \"Practical2-RockPaperScissors-Jason.sol\":1266:1420  function getGameHistory () external view returns(GameInfo[] memory){... */\n      swap1\n      jump\t// out\n        /* \"Practical2-RockPaperScissors-Jason.sol\":2033:3103  function getUserOption(uint option) external noReentrancy{... */\n    tag_14:\n        /* \"Practical2-RockPaperScissors-Jason.sol\":1871:1877  locked */\n      and(0xff, sload(0x02))\n        /* \"Practical2-RockPaperScissors-Jason.sol\":1870:1877  !locked */\n      iszero\n        /* \"Practical2-RockPaperScissors-Jason.sol\":1862:1903  require(!locked, \"Error: Reentrant call\") */\n      tag_35\n      jumpi\n      mload(0x40)\n      shl(0xe5, 0x461bcd)\n      dup2\n      mstore\n        /* \"#utility.yul\":3516:3518   */\n      0x20\n        /* \"Practical2-RockPaperScissors-Jason.sol\":1862:1903  require(!locked, \"Error: Reentrant call\") */\n      0x04\n      dup3\n      add\n        /* \"#utility.yul\":3498:3519   */\n      mstore\n        /* \"#utility.yul\":3555:3557   */\n      0x15\n        /* \"#utility.yul\":3535:3553   */\n      0x24\n      dup3\n      add\n        /* \"#utility.yul\":3528:3558   */\n      mstore\n      shl(0x5a, 0x115c9c9bdc8e881499595b9d1c985b9d0818d85b1b)\n        /* \"#utility.yul\":3574:3592   */\n      0x44\n      dup3\n      add\n        /* \"#utility.yul\":3567:3618   */\n      mstore\n        /* \"#utility.yul\":3635:3653   */\n      0x64\n      add\n        /* \"Practical2-RockPaperScissors-Jason.sol\":1862:1903  require(!locked, \"Error: Reentrant call\") */\n    tag_36:\n      mload(0x40)\n      dup1\n      swap2\n      sub\n      swap1\n      revert\n    tag_35:\n        /* \"Practical2-RockPaperScissors-Jason.sol\":1913:1919  locked */\n      0x02\n        /* \"Practical2-RockPaperScissors-Jason.sol\":1913:1926  locked = true */\n      dup1\n      sload\n      not(0xff)\n      and\n        /* \"Practical2-RockPaperScissors-Jason.sol\":1922:1926  true */\n      0x01\n        /* \"Practical2-RockPaperScissors-Jason.sol\":1913:1926  locked = true */\n      or\n      swap1\n      sstore\n        /* \"Practical2-RockPaperScissors-Jason.sol\":2105:2132  showUserAddress(msg.sender) */\n      mload(0x40)\n        /* \"Practical2-RockPaperScissors-Jason.sol\":2121:2131  msg.sender */\n      caller\n      swap1\n        /* \"Practical2-RockPaperScissors-Jason.sol\":2105:2132  showUserAddress(msg.sender) */\n      0x6fd5bea3ad79492c3055c6f6b7b37ca66d63ba4ceef7d04dd901559affbe971a\n      swap1\n        /* \"Practical2-RockPaperScissors-Jason.sol\":1913:1919  locked */\n      0x00\n      swap1\n        /* \"Practical2-RockPaperScissors-Jason.sol\":2105:2132  showUserAddress(msg.sender) */\n      log2\n        /* \"Practical2-RockPaperScissors-Jason.sol\":2177:2183  option */\n      dup1\n        /* \"Practical2-RockPaperScissors-Jason.sol\":2187:2188  0 */\n      0x00\n        /* \"Practical2-RockPaperScissors-Jason.sol\":2177:2188  option != 0 */\n      sub\n        /* \"Practical2-RockPaperScissors-Jason.sol\":2169:2213  require(option != 0, \"Error: Can't input 0\") */\n      tag_39\n      jumpi\n      mload(0x40)\n      shl(0xe5, 0x461bcd)\n      dup2\n      mstore\n        /* \"#utility.yul\":3866:3868   */\n      0x20\n        /* \"Practical2-RockPaperScissors-Jason.sol\":2169:2213  require(option != 0, \"Error: Can't input 0\") */\n      0x04\n      dup3\n      add\n        /* \"#utility.yul\":3848:3869   */\n      mstore\n        /* \"#utility.yul\":3905:3907   */\n      0x14\n        /* \"#utility.yul\":3885:3903   */\n      0x24\n      dup3\n      add\n        /* \"#utility.yul\":3878:3908   */\n      mstore\n      shl(0x64, 0x04572726f723a2043616e277420696e707574203)\n        /* \"#utility.yul\":3924:3942   */\n      0x44\n      dup3\n      add\n        /* \"#utility.yul\":3917:3967   */\n      mstore\n        /* \"#utility.yul\":3984:4002   */\n      0x64\n      add\n        /* \"Practical2-RockPaperScissors-Jason.sol\":2169:2213  require(option != 0, \"Error: Can't input 0\") */\n      tag_36\n        /* \"#utility.yul\":3664:4008   */\n      jump\n        /* \"Practical2-RockPaperScissors-Jason.sol\":2169:2213  require(option != 0, \"Error: Can't input 0\") */\n    tag_39:\n        /* \"Practical2-RockPaperScissors-Jason.sol\":2241:2242  3 */\n      0x03\n        /* \"Practical2-RockPaperScissors-Jason.sol\":2231:2237  option */\n      dup2\n        /* \"Practical2-RockPaperScissors-Jason.sol\":2231:2242  option <= 3 */\n      gt\n      iszero\n        /* \"Practical2-RockPaperScissors-Jason.sol\":2223:2277  require(option <= 3, \"Error: Can't input more than 3\") */\n      tag_42\n      jumpi\n      mload(0x40)\n      shl(0xe5, 0x461bcd)\n      dup2\n      mstore\n        /* \"#utility.yul\":4215:4217   */\n      0x20\n        /* \"Practical2-RockPaperScissors-Jason.sol\":2223:2277  require(option <= 3, \"Error: Can't input more than 3\") */\n      0x04\n      dup3\n      add\n        /* \"#utility.yul\":4197:4218   */\n      mstore\n        /* \"#utility.yul\":4254:4256   */\n      0x1e\n        /* \"#utility.yul\":4234:4252   */\n      0x24\n      dup3\n      add\n        /* \"#utility.yul\":4227:4257   */\n      mstore\n        /* \"#utility.yul\":4293:4325   */\n      0x4572726f723a2043616e277420696e707574206d6f7265207468616e20330000\n        /* \"#utility.yul\":4273:4291   */\n      0x44\n      dup3\n      add\n        /* \"#utility.yul\":4266:4326   */\n      mstore\n        /* \"#utility.yul\":4343:4361   */\n      0x64\n      add\n        /* \"Practical2-RockPaperScissors-Jason.sol\":2223:2277  require(option <= 3, \"Error: Can't input more than 3\") */\n      tag_36\n        /* \"#utility.yul\":4013:4367   */\n      jump\n        /* \"Practical2-RockPaperScissors-Jason.sol\":2223:2277  require(option <= 3, \"Error: Can't input more than 3\") */\n    tag_42:\n        /* \"Practical2-RockPaperScissors-Jason.sol\":2334:2344  bool exist */\n      0x00\n      dup1\n        /* \"Practical2-RockPaperScissors-Jason.sol\":2354:2616  for (uint i = 0; i < waitingPool.length; i++) ... */\n    tag_45:\n        /* \"Practical2-RockPaperScissors-Jason.sol\":2375:2386  waitingPool */\n      0x04\n        /* \"Practical2-RockPaperScissors-Jason.sol\":2375:2393  waitingPool.length */\n      sload\n        /* \"Practical2-RockPaperScissors-Jason.sol\":2371:2393  i < waitingPool.length */\n      dup2\n      lt\n        /* \"Practical2-RockPaperScissors-Jason.sol\":2354:2616  for (uint i = 0; i < waitingPool.length; i++) ... */\n      iszero\n      tag_46\n      jumpi\n        /* \"Practical2-RockPaperScissors-Jason.sol\":2440:2451  waitingPool */\n      0x04\n        /* \"Practical2-RockPaperScissors-Jason.sol\":2452:2453  i */\n      dup2\n        /* \"Practical2-RockPaperScissors-Jason.sol\":2440:2454  waitingPool[i] */\n      dup2\n      sload\n      dup2\n      lt\n      tag_49\n      jumpi\n      tag_49\n      tag_50\n      jump\t// in\n    tag_49:\n      0x00\n      swap2\n      dup3\n      mstore\n      0x20\n      swap1\n      swap2\n      keccak256\n      0x02\n      swap1\n      swap2\n      mul\n      add\n        /* \"Practical2-RockPaperScissors-Jason.sol\":2440:2466  waitingPool[i].userAddress */\n      sload\n      sub(shl(0xa0, 0x01), 0x01)\n      and\n        /* \"Practical2-RockPaperScissors-Jason.sol\":2426:2436  msg.sender */\n      caller\n        /* \"Practical2-RockPaperScissors-Jason.sol\":2426:2466  msg.sender == waitingPool[i].userAddress */\n      sub\n        /* \"Practical2-RockPaperScissors-Jason.sol\":2423:2607  if(msg.sender == waitingPool[i].userAddress){... */\n      tag_53\n      jumpi\n        /* \"Practical2-RockPaperScissors-Jason.sol\":2515:2591  require(!exist, \"Error: You already in the queue, wait for other play join\") */\n      mload(0x40)\n      shl(0xe5, 0x461bcd)\n      dup2\n      mstore\n        /* \"#utility.yul\":4706:4708   */\n      0x20\n        /* \"Practical2-RockPaperScissors-Jason.sol\":2515:2591  require(!exist, \"Error: You already in the queue, wait for other play join\") */\n      0x04\n      dup3\n      add\n        /* \"#utility.yul\":4688:4709   */\n      mstore\n        /* \"#utility.yul\":4745:4747   */\n      0x39\n        /* \"#utility.yul\":4725:4743   */\n      0x24\n      dup3\n      add\n        /* \"#utility.yul\":4718:4748   */\n      mstore\n        /* \"#utility.yul\":4784:4818   */\n      0x4572726f723a20596f7520616c726561647920696e207468652071756575652c\n        /* \"#utility.yul\":4764:4782   */\n      0x44\n      dup3\n      add\n        /* \"#utility.yul\":4757:4819   */\n      mstore\n        /* \"#utility.yul\":4855:4882   */\n      0x207761697420666f72206f7468657220706c6179206a6f696e00000000000000\n        /* \"#utility.yul\":4835:4853   */\n      0x64\n      dup3\n      add\n        /* \"#utility.yul\":4828:4883   */\n      mstore\n        /* \"Practical2-RockPaperScissors-Jason.sol\":2493:2497  true */\n      0x01\n      swap3\n      pop\n        /* \"#utility.yul\":4900:4919   */\n      0x84\n      add\n        /* \"Practical2-RockPaperScissors-Jason.sol\":2515:2591  require(!exist, \"Error: You already in the queue, wait for other play join\") */\n      tag_36\n        /* \"#utility.yul\":4504:4925   */\n      jump\n        /* \"Practical2-RockPaperScissors-Jason.sol\":2515:2591  require(!exist, \"Error: You already in the queue, wait for other play join\") */\n    tag_53:\n        /* \"Practical2-RockPaperScissors-Jason.sol\":2395:2398  i++ */\n      dup1\n      tag_56\n      dup2\n      tag_57\n      jump\t// in\n    tag_56:\n      swap2\n      pop\n      pop\n        /* \"Practical2-RockPaperScissors-Jason.sol\":2354:2616  for (uint i = 0; i < waitingPool.length; i++) ... */\n      jump(tag_45)\n    tag_46:\n      pop\n      0x40\n      dup1\n      mload\n      dup1\n      dup3\n      add\n      swap1\n      swap2\n      mstore\n      0x00\n      dup1\n      dup3\n      mstore\n      0x20\n      dup3\n      add\n      mstore\n        /* \"Practical2-RockPaperScissors-Jason.sol\":2740:2751  waitingPool */\n      0x04\n        /* \"Practical2-RockPaperScissors-Jason.sol\":2740:2766  waitingPool.push(userinfo) */\n      dup1\n      sload\n      0x01\n      dup1\n      dup3\n      add\n      dup4\n      sstore\n      0x00\n      dup4\n      swap1\n      mstore\n      dup4\n      mload\n      0x8a35acfbc15ff81a39ae7d344fd709f28e8600b4aa8c65c6b64bfe7fe36bd19b\n      0x02\n      swap1\n      swap4\n      mul\n      swap3\n      dup4\n      add\n      dup1\n      sload\n      not(sub(shl(0xa0, 0x01), 0x01))\n      and\n      sub(shl(0xa0, 0x01), 0x01)\n      swap1\n      swap3\n      and\n      swap2\n      swap1\n      swap2\n      or\n      swap1\n      sstore\n      0x20\n      dup5\n      add\n      mload\n      0x8a35acfbc15ff81a39ae7d344fd709f28e8600b4aa8c65c6b64bfe7fe36bd19c\n      swap1\n      swap3\n      add\n      swap2\n      swap1\n      swap2\n      sstore\n        /* \"Practical2-RockPaperScissors-Jason.sol\":2788:2806  waitingPool.length */\n      dup2\n      sload\n        /* \"Practical2-RockPaperScissors-Jason.sol\":2826:2836  msg.sender */\n      caller\n      swap3\n        /* \"Practical2-RockPaperScissors-Jason.sol\":2740:2751  waitingPool */\n      swap2\n        /* \"Practical2-RockPaperScissors-Jason.sol\":2788:2810  waitingPool.length - 1 */\n      tag_61\n      swap2\n      tag_62\n      jump\t// in\n    tag_61:\n        /* \"Practical2-RockPaperScissors-Jason.sol\":2776:2811  waitingPool[waitingPool.length - 1] */\n      dup2\n      sload\n      dup2\n      lt\n      tag_64\n      jumpi\n      tag_64\n      tag_50\n      jump\t// in\n    tag_64:\n      0x00\n      swap2\n      dup3\n      mstore\n      0x20\n      swap1\n      swap2\n      keccak256\n      0x02\n      swap1\n      swap2\n      mul\n      add\n        /* \"Practical2-RockPaperScissors-Jason.sol\":2776:2836  waitingPool[waitingPool.length - 1].userAddress = msg.sender */\n      dup1\n      sload\n      not(sub(shl(0xa0, 0x01), 0x01))\n      and\n      sub(shl(0xa0, 0x01), 0x01)\n      swap3\n      swap1\n      swap3\n      and\n      swap2\n      swap1\n      swap2\n      or\n      swap1\n      sstore\n        /* \"Practical2-RockPaperScissors-Jason.sol\":2846:2857  waitingPool */\n      0x04\n        /* \"Practical2-RockPaperScissors-Jason.sol\":2858:2876  waitingPool.length */\n      dup1\n      sload\n        /* \"Practical2-RockPaperScissors-Jason.sol\":2895:2901  option */\n      dup5\n      swap2\n        /* \"Practical2-RockPaperScissors-Jason.sol\":2846:2857  waitingPool */\n      swap1\n        /* \"Practical2-RockPaperScissors-Jason.sol\":2858:2880  waitingPool.length - 1 */\n      tag_66\n      swap1\n      0x01\n      swap1\n      tag_62\n      jump\t// in\n    tag_66:\n        /* \"Practical2-RockPaperScissors-Jason.sol\":2846:2881  waitingPool[waitingPool.length - 1] */\n      dup2\n      sload\n      dup2\n      lt\n      tag_68\n      jumpi\n      tag_68\n      tag_50\n      jump\t// in\n    tag_68:\n      0x00\n      swap2\n      dup3\n      mstore\n      0x20\n      swap1\n      swap2\n      keccak256\n        /* \"Practical2-RockPaperScissors-Jason.sol\":2846:2892  waitingPool[waitingPool.length - 1].userOption */\n      0x01\n        /* \"Practical2-RockPaperScissors-Jason.sol\":2846:2881  waitingPool[waitingPool.length - 1] */\n      0x02\n      swap1\n      swap3\n      mul\n      add\n        /* \"Practical2-RockPaperScissors-Jason.sol\":2846:2892  waitingPool[waitingPool.length - 1].userOption */\n      add\n        /* \"Practical2-RockPaperScissors-Jason.sol\":2846:2901  waitingPool[waitingPool.length - 1].userOption = option */\n      sstore\n        /* \"Practical2-RockPaperScissors-Jason.sol\":2999:3010  waitingPool */\n      0x04\n        /* \"Practical2-RockPaperScissors-Jason.sol\":2999:3017  waitingPool.length */\n      sload\n        /* \"Practical2-RockPaperScissors-Jason.sol\":3021:3022  6 */\n      0x06\n        /* \"Practical2-RockPaperScissors-Jason.sol\":2999:3022  waitingPool.length == 6 */\n      sub\n        /* \"Practical2-RockPaperScissors-Jason.sol\":2996:3097  if(waitingPool.length == 6){... */\n      tag_71\n      jumpi\n        /* \"Practical2-RockPaperScissors-Jason.sol\":3068:3086  choosePlayerPlay() */\n      tag_71\n        /* \"Practical2-RockPaperScissors-Jason.sol\":3068:3084  choosePlayerPlay */\n      tag_72\n        /* \"Practical2-RockPaperScissors-Jason.sol\":3068:3086  choosePlayerPlay() */\n      jump\t// in\n    tag_71:\n      pop\n      pop\n        /* \"Practical2-RockPaperScissors-Jason.sol\":1947:1953  locked */\n      0x02\n        /* \"Practical2-RockPaperScissors-Jason.sol\":1947:1961  locked = false */\n      dup1\n      sload\n      not(0xff)\n      and\n      swap1\n      sstore\n      pop\n        /* \"Practical2-RockPaperScissors-Jason.sol\":2033:3103  function getUserOption(uint option) external noReentrancy{... */\n      jump\t// out\n        /* \"Practical2-RockPaperScissors-Jason.sol\":1109:1216  function showWaitingPoll () external view returns (UserInfo[] memory) {... */\n    tag_16:\n        /* \"Practical2-RockPaperScissors-Jason.sol\":1160:1177  UserInfo[] memory */\n      0x60\n        /* \"Practical2-RockPaperScissors-Jason.sol\":1197:1208  waitingPool */\n      0x04\n        /* \"Practical2-RockPaperScissors-Jason.sol\":1189:1209  return (waitingPool) */\n      dup1\n      sload\n      dup1\n      0x20\n      mul\n      0x20\n      add\n      mload(0x40)\n      swap1\n      dup2\n      add\n      0x40\n      mstore\n      dup1\n      swap3\n      swap2\n      swap1\n      dup2\n      dup2\n      mstore\n      0x20\n      add\n      0x00\n      swap1\n    tag_74:\n      dup3\n      dup3\n      lt\n      iszero\n      tag_26\n      jumpi\n      0x00\n      dup5\n      dup2\n      mstore\n      0x20\n      swap1\n      dup2\n      swap1\n      keccak256\n      0x40\n      dup1\n      mload\n      dup1\n      dup3\n      add\n      swap1\n      swap2\n      mstore\n      0x02\n      dup6\n      mul\n      swap1\n      swap2\n      add\n      dup1\n      sload\n      sub(shl(0xa0, 0x01), 0x01)\n      and\n      dup3\n      mstore\n      0x01\n      swap1\n      dup2\n      add\n      sload\n      dup3\n      dup5\n      add\n      mstore\n      swap1\n      dup4\n      mstore\n      swap1\n      swap3\n      add\n      swap2\n      add\n      jump(tag_74)\n        /* \"Practical2-RockPaperScissors-Jason.sol\":1487:1735  function getSpecificGameHistory (uint index) external view returns(GameInfo memory){... */\n    tag_21:\n        /* \"Practical2-RockPaperScissors-Jason.sol\":1554:1569  GameInfo memory */\n      tag_77\n      tag_78\n      jump\t// in\n    tag_77:\n        /* \"Practical2-RockPaperScissors-Jason.sol\":1647:1658  gameHistory */\n      0x01\n        /* \"Practical2-RockPaperScissors-Jason.sol\":1647:1665  gameHistory.length */\n      sload\n        /* \"Practical2-RockPaperScissors-Jason.sol\":1638:1665  index <= gameHistory.length */\n      dup3\n      gt\n      iszero\n        /* \"Practical2-RockPaperScissors-Jason.sol\":1630:1691  require(index <= gameHistory.length, \"Error: Invalid length\") */\n      tag_80\n      jumpi\n      mload(0x40)\n      shl(0xe5, 0x461bcd)\n      dup2\n      mstore\n        /* \"#utility.yul\":5537:5539   */\n      0x20\n        /* \"Practical2-RockPaperScissors-Jason.sol\":1630:1691  require(index <= gameHistory.length, \"Error: Invalid length\") */\n      0x04\n      dup3\n      add\n        /* \"#utility.yul\":5519:5540   */\n      mstore\n        /* \"#utility.yul\":5576:5578   */\n      0x15\n        /* \"#utility.yul\":5556:5574   */\n      0x24\n      dup3\n      add\n        /* \"#utility.yul\":5549:5579   */\n      mstore\n      shl(0x5b, 0x08ae4e4dee4744092dcecc2d8d2c840d8cadccee8d)\n        /* \"#utility.yul\":5595:5613   */\n      0x44\n      dup3\n      add\n        /* \"#utility.yul\":5588:5639   */\n      mstore\n        /* \"#utility.yul\":5656:5674   */\n      0x64\n      add\n        /* \"Practical2-RockPaperScissors-Jason.sol\":1630:1691  require(index <= gameHistory.length, \"Error: Invalid length\") */\n      tag_36\n        /* \"#utility.yul\":5335:5680   */\n      jump\n        /* \"Practical2-RockPaperScissors-Jason.sol\":1630:1691  require(index <= gameHistory.length, \"Error: Invalid length\") */\n    tag_80:\n        /* \"Practical2-RockPaperScissors-Jason.sol\":1709:1720  gameHistory */\n      0x01\n        /* \"Practical2-RockPaperScissors-Jason.sol\":1721:1726  index */\n      dup3\n        /* \"Practical2-RockPaperScissors-Jason.sol\":1709:1727  gameHistory[index] */\n      dup2\n      sload\n      dup2\n      lt\n      tag_84\n      jumpi\n      tag_84\n      tag_50\n      jump\t// in\n    tag_84:\n      0x00\n      swap2\n      dup3\n      mstore\n      0x20\n      swap2\n      dup3\n      swap1\n      keccak256\n        /* \"Practical2-RockPaperScissors-Jason.sol\":1701:1728  return (gameHistory[index]) */\n      0x40\n      dup1\n      mload\n      0xa0\n      dup2\n      add\n      dup3\n      mstore\n        /* \"Practical2-RockPaperScissors-Jason.sol\":1709:1727  gameHistory[index] */\n      0x05\n      swap1\n      swap4\n      mul\n      swap1\n      swap2\n      add\n        /* \"Practical2-RockPaperScissors-Jason.sol\":1701:1728  return (gameHistory[index]) */\n      dup1\n      sload\n      sub(shl(0xa0, 0x01), 0x01)\n      swap1\n      dup2\n      and\n      0x60\n      dup6\n      add\n      swap1\n      dup2\n      mstore\n      0x01\n      dup4\n      add\n      sload\n      0x80\n      dup7\n      add\n      mstore\n      dup5\n      mstore\n      dup3\n      mload\n      dup1\n      dup5\n      add\n      dup5\n      mstore\n      0x02\n      dup4\n      add\n      sload\n      swap1\n      swap2\n      and\n      dup2\n      mstore\n      0x03\n      dup3\n      add\n      sload\n      dup2\n      dup7\n      add\n      mstore\n      swap4\n      dup4\n      add\n      swap4\n      swap1\n      swap4\n      mstore\n      0x04\n      dup4\n      add\n      dup1\n      sload\n      swap3\n      swap4\n        /* \"Practical2-RockPaperScissors-Jason.sol\":1709:1727  gameHistory[index] */\n      swap3\n      swap2\n      dup5\n      add\n      swap2\n        /* \"Practical2-RockPaperScissors-Jason.sol\":1701:1728  return (gameHistory[index]) */\n      tag_86\n      swap1\n      tag_29\n      jump\t// in\n    tag_86:\n      dup1\n      0x1f\n      add\n      0x20\n      dup1\n      swap2\n      div\n      mul\n      0x20\n      add\n      mload(0x40)\n      swap1\n      dup2\n      add\n      0x40\n      mstore\n      dup1\n      swap3\n      swap2\n      swap1\n      dup2\n      dup2\n      mstore\n      0x20\n      add\n      dup3\n      dup1\n      sload\n      tag_87\n      swap1\n      tag_29\n      jump\t// in\n    tag_87:\n      dup1\n      iszero\n      tag_88\n      jumpi\n      dup1\n      0x1f\n      lt\n      tag_89\n      jumpi\n      0x0100\n      dup1\n      dup4\n      sload\n      div\n      mul\n      dup4\n      mstore\n      swap2\n      0x20\n      add\n      swap2\n      jump(tag_88)\n    tag_89:\n      dup3\n      add\n      swap2\n      swap1\n      0x00\n      mstore\n      keccak256(0x00, 0x20)\n      swap1\n    tag_90:\n      dup2\n      sload\n      dup2\n      mstore\n      swap1\n      0x01\n      add\n      swap1\n      0x20\n      add\n      dup1\n      dup4\n      gt\n      tag_90\n      jumpi\n      dup3\n      swap1\n      sub\n      0x1f\n      and\n      dup3\n      add\n      swap2\n    tag_88:\n      pop\n      pop\n      pop\n      pop\n      pop\n      dup2\n      mstore\n      pop\n      pop\n      swap1\n      pop\n        /* \"Practical2-RockPaperScissors-Jason.sol\":1487:1735  function getSpecificGameHistory (uint index) external view returns(GameInfo memory){... */\n      swap2\n      swap1\n      pop\n      jump\t// out\n        /* \"Practical2-RockPaperScissors-Jason.sol\":3110:3626  function choosePlayerPlay () private {... */\n    tag_72:\n        /* \"Practical2-RockPaperScissors-Jason.sol\":3328:3349  UserInfo memory user1 */\n      0x00\n        /* \"Practical2-RockPaperScissors-Jason.sol\":3352:3370  ChooseRandomUser() */\n      tag_95\n        /* \"Practical2-RockPaperScissors-Jason.sol\":3352:3368  ChooseRandomUser */\n      tag_96\n        /* \"Practical2-RockPaperScissors-Jason.sol\":3352:3370  ChooseRandomUser() */\n      jump\t// in\n    tag_95:\n        /* \"Practical2-RockPaperScissors-Jason.sol\":3328:3370  UserInfo memory user1 = ChooseRandomUser() */\n      swap1\n      pop\n        /* \"Practical2-RockPaperScissors-Jason.sol\":3384:3405  UserInfo memory user2 */\n      0x00\n        /* \"Practical2-RockPaperScissors-Jason.sol\":3408:3426  ChooseRandomUser() */\n      tag_97\n        /* \"Practical2-RockPaperScissors-Jason.sol\":3408:3424  ChooseRandomUser */\n      tag_96\n        /* \"Practical2-RockPaperScissors-Jason.sol\":3408:3426  ChooseRandomUser() */\n      jump\t// in\n    tag_97:\n        /* \"Practical2-RockPaperScissors-Jason.sol\":3384:3426  UserInfo memory user2 = ChooseRandomUser() */\n      swap1\n      pop\n        /* \"Practical2-RockPaperScissors-Jason.sol\":3498:3516  game(user1, user2) */\n      tag_98\n        /* \"Practical2-RockPaperScissors-Jason.sol\":3503:3508  user1 */\n      dup3\n        /* \"Practical2-RockPaperScissors-Jason.sol\":3510:3515  user2 */\n      dup3\n        /* \"Practical2-RockPaperScissors-Jason.sol\":3498:3502  game */\n      tag_99\n        /* \"Practical2-RockPaperScissors-Jason.sol\":3498:3516  game(user1, user2) */\n      jump\t// in\n    tag_98:\n      pop\n      pop\n        /* \"Practical2-RockPaperScissors-Jason.sol\":3544:3555  waitingPool */\n      0x04\n        /* \"Practical2-RockPaperScissors-Jason.sol\":3544:3562  waitingPool.length */\n      sload\n        /* \"Practical2-RockPaperScissors-Jason.sol\":3566:3567  0 */\n      0x00\n        /* \"Practical2-RockPaperScissors-Jason.sol\":3544:3567  waitingPool.length != 0 */\n      sub\n        /* \"Practical2-RockPaperScissors-Jason.sol\":3166:3569  do {... */\n      tag_72\n      jumpi\n        /* \"Practical2-RockPaperScissors-Jason.sol\":3599:3610  waitingPool */\n      0x04\n        /* \"Practical2-RockPaperScissors-Jason.sol\":3599:3617  waitingPool.length */\n      sload\n        /* \"Practical2-RockPaperScissors-Jason.sol\":3583:3618  showArraylenght(waitingPool.length) */\n      mload(0x40)\n        /* \"#utility.yul\":5831:5856   */\n      swap1\n      dup2\n      mstore\n        /* \"Practical2-RockPaperScissors-Jason.sol\":3583:3618  showArraylenght(waitingPool.length) */\n      0x1f237084c29a99316238004a5870904571dbc9ff0d357b8b85cceacb5512a850\n      swap1\n        /* \"#utility.yul\":5819:5821   */\n      0x20\n        /* \"#utility.yul\":5804:5822   */\n      add\n        /* \"Practical2-RockPaperScissors-Jason.sol\":3583:3618  showArraylenght(waitingPool.length) */\n      mload(0x40)\n      dup1\n      swap2\n      sub\n      swap1\n      log1\n        /* \"Practical2-RockPaperScissors-Jason.sol\":3110:3626  function choosePlayerPlay () private {... */\n      jump\t// out\n        /* \"Practical2-RockPaperScissors-Jason.sol\":3632:4321  function ChooseRandomUser () private returns (UserInfo memory){... */\n    tag_96:\n      0x40\n      dup1\n      mload\n      dup1\n      dup3\n      add\n      swap1\n      swap2\n      mstore\n      0x00\n      dup1\n      dup3\n      mstore\n      0x20\n      dup3\n      add\n      mstore\n        /* \"Practical2-RockPaperScissors-Jason.sol\":3712:3723  waitingPool */\n      0x04\n        /* \"Practical2-RockPaperScissors-Jason.sol\":3712:3730  waitingPool.length */\n      sload\n        /* \"Practical2-RockPaperScissors-Jason.sol\":3704:3753  require(waitingPool.length > 0, \"Array is empty\") */\n      tag_104\n      jumpi\n      mload(0x40)\n      shl(0xe5, 0x461bcd)\n      dup2\n      mstore\n        /* \"#utility.yul\":6069:6071   */\n      0x20\n        /* \"Practical2-RockPaperScissors-Jason.sol\":3704:3753  require(waitingPool.length > 0, \"Array is empty\") */\n      0x04\n      dup3\n      add\n        /* \"#utility.yul\":6051:6072   */\n      mstore\n        /* \"#utility.yul\":6108:6110   */\n      0x0e\n        /* \"#utility.yul\":6088:6106   */\n      0x24\n      dup3\n      add\n        /* \"#utility.yul\":6081:6111   */\n      mstore\n      shl(0x90, 0x417272617920697320656d707479)\n        /* \"#utility.yul\":6127:6145   */\n      0x44\n      dup3\n      add\n        /* \"#utility.yul\":6120:6164   */\n      mstore\n        /* \"#utility.yul\":6181:6199   */\n      0x64\n      add\n        /* \"Practical2-RockPaperScissors-Jason.sol\":3704:3753  require(waitingPool.length > 0, \"Array is empty\") */\n      tag_36\n        /* \"#utility.yul\":5867:6205   */\n      jump\n        /* \"Practical2-RockPaperScissors-Jason.sol\":3704:3753  require(waitingPool.length > 0, \"Array is empty\") */\n    tag_104:\n        /* \"Practical2-RockPaperScissors-Jason.sol\":3935:3946  waitingPool */\n      0x04\n        /* \"Practical2-RockPaperScissors-Jason.sol\":3935:3953  waitingPool.length */\n      sload\n        /* \"Practical2-RockPaperScissors-Jason.sol\":3925:3929  salt */\n      sload(0x03)\n        /* \"Practical2-RockPaperScissors-Jason.sol\":3873:3930  abi.encodePacked(block.difficulty, block.timestamp, salt) */\n      0x40\n      dup1\n      mload\n        /* \"Practical2-RockPaperScissors-Jason.sol\":3890:3906  block.difficulty */\n      prevrandao\n        /* \"Practical2-RockPaperScissors-Jason.sol\":3873:3930  abi.encodePacked(block.difficulty, block.timestamp, salt) */\n      0x20\n      dup3\n      add\n        /* \"#utility.yul\":6395:6414   */\n      mstore\n        /* \"Practical2-RockPaperScissors-Jason.sol\":3908:3923  block.timestamp */\n      timestamp\n        /* \"#utility.yul\":6430:6442   */\n      swap2\n      dup2\n      add\n        /* \"#utility.yul\":6423:6451   */\n      swap2\n      swap1\n      swap2\n      mstore\n        /* \"#utility.yul\":6467:6479   */\n      0x60\n      dup2\n      add\n        /* \"#utility.yul\":6460:6488   */\n      swap2\n      swap1\n      swap2\n      mstore\n        /* \"Practical2-RockPaperScissors-Jason.sol\":3833:3852  uint256 randomIndex */\n      0x00\n      swap2\n        /* \"Practical2-RockPaperScissors-Jason.sol\":3935:3953  waitingPool.length */\n      swap1\n        /* \"#utility.yul\":6504:6516   */\n      0x80\n      add\n        /* \"Practical2-RockPaperScissors-Jason.sol\":3873:3930  abi.encodePacked(block.difficulty, block.timestamp, salt) */\n      mload(0x40)\n      0x20\n      dup2\n      dup4\n      sub\n      sub\n      dup2\n      mstore\n      swap1\n      0x40\n      mstore\n        /* \"Practical2-RockPaperScissors-Jason.sol\":3863:3931  keccak256(abi.encodePacked(block.difficulty, block.timestamp, salt)) */\n      dup1\n      mload\n      swap1\n      0x20\n      add\n      keccak256\n        /* \"Practical2-RockPaperScissors-Jason.sol\":3855:3932  uint256(keccak256(abi.encodePacked(block.difficulty, block.timestamp, salt))) */\n      0x00\n      shr\n        /* \"Practical2-RockPaperScissors-Jason.sol\":3855:3953  uint256(keccak256(abi.encodePacked(block.difficulty, block.timestamp, salt))) % waitingPool.length */\n      tag_109\n      swap2\n      swap1\n      tag_110\n      jump\t// in\n    tag_109:\n        /* \"Practical2-RockPaperScissors-Jason.sol\":3963:3967  salt */\n      0x03\n        /* \"Practical2-RockPaperScissors-Jason.sol\":3963:3969  salt++ */\n      dup1\n      sload\n        /* \"Practical2-RockPaperScissors-Jason.sol\":3833:3953  uint256 randomIndex = uint256(keccak256(abi.encodePacked(block.difficulty, block.timestamp, salt))) % waitingPool.length */\n      swap2\n      swap3\n      pop\n        /* \"Practical2-RockPaperScissors-Jason.sol\":3963:3967  salt */\n      0x00\n        /* \"Practical2-RockPaperScissors-Jason.sol\":3963:3969  salt++ */\n      tag_111\n      dup4\n      tag_57\n      jump\t// in\n    tag_111:\n      swap2\n      swap1\n      pop\n      sstore\n      pop\n        /* \"Practical2-RockPaperScissors-Jason.sol\":4024:4050  UserInfo memory randomUser */\n      0x00\n        /* \"Practical2-RockPaperScissors-Jason.sol\":4053:4064  waitingPool */\n      0x04\n        /* \"Practical2-RockPaperScissors-Jason.sol\":4065:4076  randomIndex */\n      dup3\n        /* \"Practical2-RockPaperScissors-Jason.sol\":4053:4077  waitingPool[randomIndex] */\n      dup2\n      sload\n      dup2\n      lt\n      tag_113\n      jumpi\n      tag_113\n      tag_50\n      jump\t// in\n    tag_113:\n      0x00\n      swap2\n      dup3\n      mstore\n      0x20\n      swap2\n      dup3\n      swap1\n      keccak256\n        /* \"Practical2-RockPaperScissors-Jason.sol\":4024:4077  UserInfo memory randomUser = waitingPool[randomIndex] */\n      0x40\n      dup1\n      mload\n      dup1\n      dup3\n      add\n      swap1\n      swap2\n      mstore\n        /* \"Practical2-RockPaperScissors-Jason.sol\":4053:4077  waitingPool[randomIndex] */\n      0x02\n      swap1\n      swap3\n      mul\n      add\n        /* \"Practical2-RockPaperScissors-Jason.sol\":4024:4077  UserInfo memory randomUser = waitingPool[randomIndex] */\n      dup1\n      sload\n      sub(shl(0xa0, 0x01), 0x01)\n      and\n      dup3\n      mstore\n      0x01\n      swap1\n      dup2\n      add\n      sload\n      swap3\n      dup3\n      add\n      swap3\n      swap1\n      swap3\n      mstore\n        /* \"Practical2-RockPaperScissors-Jason.sol\":4224:4235  waitingPool */\n      0x04\n        /* \"Practical2-RockPaperScissors-Jason.sol\":4236:4254  waitingPool.length */\n      dup1\n      sload\n        /* \"Practical2-RockPaperScissors-Jason.sol\":4024:4077  UserInfo memory randomUser = waitingPool[randomIndex] */\n      swap2\n      swap4\n      pop\n        /* \"Practical2-RockPaperScissors-Jason.sol\":4224:4235  waitingPool */\n      swap2\n        /* \"Practical2-RockPaperScissors-Jason.sol\":4236:4258  waitingPool.length - 1 */\n      tag_115\n      swap2\n      tag_62\n      jump\t// in\n    tag_115:\n        /* \"Practical2-RockPaperScissors-Jason.sol\":4224:4259  waitingPool[waitingPool.length - 1] */\n      dup2\n      sload\n      dup2\n      lt\n      tag_117\n      jumpi\n      tag_117\n      tag_50\n      jump\t// in\n    tag_117:\n      swap1\n      0x00\n      mstore\n      keccak256(0x00, 0x20)\n      swap1\n      0x02\n      mul\n      add\n        /* \"Practical2-RockPaperScissors-Jason.sol\":4197:4208  waitingPool */\n      0x04\n        /* \"Practical2-RockPaperScissors-Jason.sol\":4209:4220  randomIndex */\n      dup4\n        /* \"Practical2-RockPaperScissors-Jason.sol\":4197:4221  waitingPool[randomIndex] */\n      dup2\n      sload\n      dup2\n      lt\n      tag_120\n      jumpi\n      tag_120\n      tag_50\n      jump\t// in\n    tag_120:\n      0x00\n      swap2\n      dup3\n      mstore\n      0x20\n      swap1\n      swap2\n      keccak256\n        /* \"Practical2-RockPaperScissors-Jason.sol\":4197:4259  waitingPool[randomIndex] = waitingPool[waitingPool.length - 1] */\n      dup3\n      sload\n        /* \"Practical2-RockPaperScissors-Jason.sol\":4197:4221  waitingPool[randomIndex] */\n      0x02\n      swap1\n      swap3\n      mul\n      add\n        /* \"Practical2-RockPaperScissors-Jason.sol\":4197:4259  waitingPool[randomIndex] = waitingPool[waitingPool.length - 1] */\n      dup1\n      sload\n      not(sub(shl(0xa0, 0x01), 0x01))\n      and\n      sub(shl(0xa0, 0x01), 0x01)\n      swap1\n      swap3\n      and\n      swap2\n      swap1\n      swap2\n      or\n      dup2\n      sstore\n      0x01\n      swap2\n      dup3\n      add\n      sload\n      swap2\n      add\n      sstore\n        /* \"Practical2-RockPaperScissors-Jason.sol\":4269:4280  waitingPool */\n      0x04\n        /* \"Practical2-RockPaperScissors-Jason.sol\":4269:4286  waitingPool.pop() */\n      dup1\n      sload\n      dup1\n      tag_123\n      jumpi\n      tag_123\n      tag_124\n      jump\t// in\n    tag_123:\n      0x00\n      dup3\n      dup2\n      mstore\n      0x20\n      dup2\n      keccak256\n      0x02\n      not(0x00)\n      swap1\n      swap4\n      add\n      swap3\n      dup4\n      mul\n      add\n      dup1\n      sload\n      not(sub(shl(0xa0, 0x01), 0x01))\n      and\n      dup2\n      sstore\n      0x01\n      add\n      sstore\n      swap1\n      sstore\n        /* \"Practical2-RockPaperScissors-Jason.sol\":4304:4314  randomUser */\n      swap3\n        /* \"Practical2-RockPaperScissors-Jason.sol\":3632:4321  function ChooseRandomUser () private returns (UserInfo memory){... */\n      swap2\n      pop\n      pop\n      jump\t// out\n        /* \"Practical2-RockPaperScissors-Jason.sol\":4327:5837  function game (UserInfo memory userOne, UserInfo memory userTwo) private {... */\n    tag_99:\n        /* \"Practical2-RockPaperScissors-Jason.sol\":4468:4492  GameInfo memory gameinfo */\n      tag_127\n      tag_78\n      jump\t// in\n    tag_127:\n        /* \"Practical2-RockPaperScissors-Jason.sol\":4502:4513  gameHistory */\n      0x01\n        /* \"Practical2-RockPaperScissors-Jason.sol\":4502:4528  gameHistory.push(gameinfo) */\n      dup1\n      sload\n      dup1\n      dup3\n      add\n      dup3\n      sstore\n      0x00\n      swap2\n      swap1\n      swap2\n      mstore\n      dup2\n      mload\n      dup1\n      mload\n      0xb10e2d527612073b26eecdfd717e6a320cf44b4afac2b0732d9fcbe2b7fa0cf6\n      0x05\n      swap1\n      swap4\n      mul\n      swap3\n      dup4\n      add\n      dup1\n      sload\n      not(sub(shl(0xa0, 0x01), 0x01))\n      swap1\n      dup2\n      and\n      sub(shl(0xa0, 0x01), 0x01)\n      swap4\n      dup5\n      and\n      or\n      dup3\n      sstore\n      0x20\n      swap4\n      dup5\n      add\n      mload\n      0xb10e2d527612073b26eecdfd717e6a320cf44b4afac2b0732d9fcbe2b7fa0cf7\n      dup7\n      add\n      sstore\n      dup4\n      dup7\n      add\n      mload\n      dup1\n      mload\n      0xb10e2d527612073b26eecdfd717e6a320cf44b4afac2b0732d9fcbe2b7fa0cf8\n      dup8\n      add\n      dup1\n      sload\n      swap1\n      swap4\n      and\n      swap5\n      and\n      swap4\n      swap1\n      swap4\n      or\n      swap1\n      sstore\n      swap2\n      add\n      mload\n      0xb10e2d527612073b26eecdfd717e6a320cf44b4afac2b0732d9fcbe2b7fa0cf9\n      dup4\n      add\n      sstore\n      0x40\n      dup4\n      add\n      mload\n      dup4\n      swap3\n      0xb10e2d527612073b26eecdfd717e6a320cf44b4afac2b0732d9fcbe2b7fa0cfa\n      add\n      swap1\n      tag_129\n      swap1\n      dup3\n      tag_130\n      jump\t// in\n    tag_129:\n      pop\n      pop\n        /* \"Practical2-RockPaperScissors-Jason.sol\":4593:4604  gameHistory */\n      0x01\n        /* \"Practical2-RockPaperScissors-Jason.sol\":4605:4623  gameHistory.length */\n      dup1\n      sload\n        /* \"Practical2-RockPaperScissors-Jason.sol\":4637:4644  userOne */\n      dup6\n      swap3\n      pop\n        /* \"Practical2-RockPaperScissors-Jason.sol\":4605:4627  gameHistory.length - 1 */\n      tag_131\n      swap1\n        /* \"Practical2-RockPaperScissors-Jason.sol\":4593:4604  gameHistory */\n      dup3\n      swap1\n        /* \"Practical2-RockPaperScissors-Jason.sol\":4605:4627  gameHistory.length - 1 */\n      tag_62\n      jump\t// in\n    tag_131:\n        /* \"Practical2-RockPaperScissors-Jason.sol\":4593:4628  gameHistory[gameHistory.length - 1] */\n      dup2\n      sload\n      dup2\n      lt\n      tag_133\n      jumpi\n      tag_133\n      tag_50\n      jump\t// in\n    tag_133:\n      0x00\n      swap2\n      dup3\n      mstore\n      0x20\n      swap2\n      dup3\n      swap1\n      keccak256\n        /* \"Practical2-RockPaperScissors-Jason.sol\":4593:4644  gameHistory[gameHistory.length - 1].user1 = userOne */\n      dup4\n      mload\n        /* \"Practical2-RockPaperScissors-Jason.sol\":4593:4628  gameHistory[gameHistory.length - 1] */\n      0x05\n      swap3\n      swap1\n      swap3\n      mul\n      add\n        /* \"Practical2-RockPaperScissors-Jason.sol\":4593:4644  gameHistory[gameHistory.length - 1].user1 = userOne */\n      dup1\n      sload\n      not(sub(shl(0xa0, 0x01), 0x01))\n      and\n      sub(shl(0xa0, 0x01), 0x01)\n      swap1\n      swap3\n      and\n      swap2\n      swap1\n      swap2\n      or\n      dup2\n      sstore\n      swap2\n      add\n      mload\n      0x01\n      swap2\n      dup3\n      add\n      sstore\n        /* \"Practical2-RockPaperScissors-Jason.sol\":4666:4684  gameHistory.length */\n      dup1\n      sload\n        /* \"Practical2-RockPaperScissors-Jason.sol\":4698:4705  userTwo */\n      dup4\n      swap2\n      swap1\n        /* \"Practical2-RockPaperScissors-Jason.sol\":4666:4688  gameHistory.length - 1 */\n      tag_135\n      swap1\n      dup3\n      swap1\n      tag_62\n      jump\t// in\n    tag_135:\n        /* \"Practical2-RockPaperScissors-Jason.sol\":4654:4689  gameHistory[gameHistory.length - 1] */\n      dup2\n      sload\n      dup2\n      lt\n      tag_137\n      jumpi\n      tag_137\n      tag_50\n      jump\t// in\n    tag_137:\n      0x00\n      swap2\n      dup3\n      mstore\n      0x20\n      swap2\n      dup3\n      swap1\n      keccak256\n        /* \"Practical2-RockPaperScissors-Jason.sol\":4654:4705  gameHistory[gameHistory.length - 1].user2 = userTwo */\n      dup4\n      mload\n        /* \"Practical2-RockPaperScissors-Jason.sol\":4654:4689  gameHistory[gameHistory.length - 1] */\n      0x05\n      swap3\n      swap1\n      swap3\n      mul\n      add\n        /* \"Practical2-RockPaperScissors-Jason.sol\":4654:4695  gameHistory[gameHistory.length - 1].user2 */\n      0x02\n      dup2\n      add\n        /* \"Practical2-RockPaperScissors-Jason.sol\":4654:4705  gameHistory[gameHistory.length - 1].user2 = userTwo */\n      dup1\n      sload\n      not(sub(shl(0xa0, 0x01), 0x01))\n      and\n      sub(shl(0xa0, 0x01), 0x01)\n      swap1\n      swap4\n      and\n      swap3\n      swap1\n      swap3\n      or\n      swap1\n      swap2\n      sstore\n      swap2\n      add\n      mload\n      0x03\n      swap1\n      swap2\n      add\n      sstore\n      0x01\n        /* \"Practical2-RockPaperScissors-Jason.sol\":4911:4929  gameHistory.length */\n      dup1\n      sload\n        /* \"Practical2-RockPaperScissors-Jason.sol\":4911:4933  gameHistory.length - 1 */\n      tag_139\n      swap1\n      dup3\n      swap1\n      tag_62\n      jump\t// in\n    tag_139:\n        /* \"Practical2-RockPaperScissors-Jason.sol\":4899:4934  gameHistory[gameHistory.length - 1] */\n      dup2\n      sload\n      dup2\n      lt\n      tag_141\n      jumpi\n      tag_141\n      tag_50\n      jump\t// in\n    tag_141:\n      0x00\n      swap2\n      dup3\n      mstore\n      0x20\n      swap1\n      swap2\n      keccak256\n        /* \"Practical2-RockPaperScissors-Jason.sol\":4899:4951  gameHistory[gameHistory.length - 1].user2.userOption */\n      0x03\n        /* \"Practical2-RockPaperScissors-Jason.sol\":4899:4934  gameHistory[gameHistory.length - 1] */\n      0x05\n      swap1\n      swap3\n      mul\n      add\n        /* \"Practical2-RockPaperScissors-Jason.sol\":4899:4951  gameHistory[gameHistory.length - 1].user2.userOption */\n      add\n      sload\n      0x01\n        /* \"Practical2-RockPaperScissors-Jason.sol\":4855:4873  gameHistory.length */\n      dup1\n      sload\n        /* \"Practical2-RockPaperScissors-Jason.sol\":4855:4877  gameHistory.length - 1 */\n      tag_143\n      swap1\n        /* \"Practical2-RockPaperScissors-Jason.sol\":4899:4951  gameHistory[gameHistory.length - 1].user2.userOption */\n      dup3\n      swap1\n        /* \"Practical2-RockPaperScissors-Jason.sol\":4855:4877  gameHistory.length - 1 */\n      tag_62\n      jump\t// in\n    tag_143:\n        /* \"Practical2-RockPaperScissors-Jason.sol\":4843:4878  gameHistory[gameHistory.length - 1] */\n      dup2\n      sload\n      dup2\n      lt\n      tag_145\n      jumpi\n      tag_145\n      tag_50\n      jump\t// in\n    tag_145:\n      swap1\n      0x00\n      mstore\n      keccak256(0x00, 0x20)\n      swap1\n      0x05\n      mul\n      add\n        /* \"Practical2-RockPaperScissors-Jason.sol\":4843:4884  gameHistory[gameHistory.length - 1].user1 */\n      0x00\n      add\n        /* \"Practical2-RockPaperScissors-Jason.sol\":4843:4895  gameHistory[gameHistory.length - 1].user1.userOption */\n      0x01\n      add\n      sload\n        /* \"Practical2-RockPaperScissors-Jason.sol\":4843:4951  gameHistory[gameHistory.length - 1].user1.userOption == gameHistory[gameHistory.length - 1].user2.userOption */\n      sub\n        /* \"Practical2-RockPaperScissors-Jason.sol\":4839:5831  if (gameHistory[gameHistory.length - 1].user1.userOption == gameHistory[gameHistory.length - 1].user2.userOption) {... */\n      tag_147\n      jumpi\n        /* \"Practical2-RockPaperScissors-Jason.sol\":4967:5023  gameHistory[gameHistory.length - 1].finalResult = \"Tied\" */\n      0x40\n      dup1\n      mload\n      dup1\n      dup3\n      add\n      swap1\n      swap2\n      mstore\n      0x04\n      dup2\n      mstore\n      shl(0xe2, 0x151a5959)\n      0x20\n      dup3\n      add\n      mstore\n        /* \"Practical2-RockPaperScissors-Jason.sol\":4967:4978  gameHistory */\n      0x01\n        /* \"Practical2-RockPaperScissors-Jason.sol\":4979:4997  gameHistory.length */\n      dup1\n      sload\n        /* \"Practical2-RockPaperScissors-Jason.sol\":4979:5001  gameHistory.length - 1 */\n      tag_148\n      swap1\n        /* \"Practical2-RockPaperScissors-Jason.sol\":4967:4978  gameHistory */\n      dup3\n      swap1\n        /* \"Practical2-RockPaperScissors-Jason.sol\":4979:5001  gameHistory.length - 1 */\n      tag_62\n      jump\t// in\n    tag_148:\n        /* \"Practical2-RockPaperScissors-Jason.sol\":4967:5002  gameHistory[gameHistory.length - 1] */\n      dup2\n      sload\n      dup2\n      lt\n      tag_150\n      jumpi\n      tag_150\n      tag_50\n      jump\t// in\n    tag_150:\n      swap1\n      0x00\n      mstore\n      keccak256(0x00, 0x20)\n      swap1\n      0x05\n      mul\n      add\n        /* \"Practical2-RockPaperScissors-Jason.sol\":4967:5014  gameHistory[gameHistory.length - 1].finalResult */\n      0x04\n      add\n        /* \"Practical2-RockPaperScissors-Jason.sol\":4967:5023  gameHistory[gameHistory.length - 1].finalResult = \"Tied\" */\n      swap1\n      dup2\n      tag_152\n      swap2\n      swap1\n      tag_130\n      jump\t// in\n    tag_152:\n      pop\n        /* \"Practical2-RockPaperScissors-Jason.sol\":5042:5060  showResult(\"Tied\") */\n      0xcde5c32c0a45fd8aa4b65ea8003fc9da9acd5e2c6c24a9fcce6ab79cabbd9122\n      mload(0x40)\n      tag_153\n      swap1\n        /* \"#utility.yul\":9411:9413   */\n      0x20\n        /* \"#utility.yul\":9393:9414   */\n      dup1\n      dup3\n      mstore\n        /* \"#utility.yul\":9450:9451   */\n      0x04\n        /* \"#utility.yul\":9430:9448   */\n      swap1\n      dup3\n      add\n        /* \"#utility.yul\":9423:9452   */\n      mstore\n      shl(0xe2, 0x151a5959)\n        /* \"#utility.yul\":9483:9485   */\n      0x40\n        /* \"#utility.yul\":9468:9486   */\n      dup3\n      add\n        /* \"#utility.yul\":9461:9495   */\n      mstore\n        /* \"#utility.yul\":9527:9529   */\n      0x60\n        /* \"#utility.yul\":9512:9530   */\n      add\n      swap1\n        /* \"#utility.yul\":9209:9536   */\n      jump\n        /* \"Practical2-RockPaperScissors-Jason.sol\":5042:5060  showResult(\"Tied\") */\n    tag_153:\n      mload(0x40)\n      dup1\n      swap2\n      sub\n      swap1\n      log1\n        /* \"Practical2-RockPaperScissors-Jason.sol\":4400:5837  {... */\n      pop\n        /* \"Practical2-RockPaperScissors-Jason.sol\":4327:5837  function game (UserInfo memory userOne, UserInfo memory userTwo) private {... */\n      pop\n      pop\n      jump\t// out\n        /* \"Practical2-RockPaperScissors-Jason.sol\":4839:5831  if (gameHistory[gameHistory.length - 1].user1.userOption == gameHistory[gameHistory.length - 1].user2.userOption) {... */\n    tag_147:\n        /* \"Practical2-RockPaperScissors-Jason.sol\":5121:5132  gameHistory */\n      0x01\n        /* \"Practical2-RockPaperScissors-Jason.sol\":5133:5151  gameHistory.length */\n      dup1\n      sload\n        /* \"Practical2-RockPaperScissors-Jason.sol\":5133:5155  gameHistory.length - 1 */\n      tag_156\n      swap1\n        /* \"Practical2-RockPaperScissors-Jason.sol\":5121:5132  gameHistory */\n      dup3\n      swap1\n        /* \"Practical2-RockPaperScissors-Jason.sol\":5133:5155  gameHistory.length - 1 */\n      tag_62\n      jump\t// in\n    tag_156:\n        /* \"Practical2-RockPaperScissors-Jason.sol\":5121:5156  gameHistory[gameHistory.length - 1] */\n      dup2\n      sload\n      dup2\n      lt\n      tag_158\n      jumpi\n      tag_158\n      tag_50\n      jump\t// in\n    tag_158:\n      swap1\n      0x00\n      mstore\n      keccak256(0x00, 0x20)\n      swap1\n      0x05\n      mul\n      add\n        /* \"Practical2-RockPaperScissors-Jason.sol\":5121:5162  gameHistory[gameHistory.length - 1].user1 */\n      0x00\n      add\n        /* \"Practical2-RockPaperScissors-Jason.sol\":5121:5173  gameHistory[gameHistory.length - 1].user1.userOption */\n      0x01\n      add\n      sload\n        /* \"Practical2-RockPaperScissors-Jason.sol\":5177:5178  1 */\n      0x01\n        /* \"Practical2-RockPaperScissors-Jason.sol\":5121:5178  gameHistory[gameHistory.length - 1].user1.userOption == 1 */\n      eq\n        /* \"Practical2-RockPaperScissors-Jason.sol\":5121:5239  gameHistory[gameHistory.length - 1].user1.userOption == 1 && gameHistory[gameHistory.length - 1].user2.userOption == 2 */\n      dup1\n      iszero\n      tag_160\n      jumpi\n      pop\n        /* \"Practical2-RockPaperScissors-Jason.sol\":5182:5193  gameHistory */\n      0x01\n        /* \"Practical2-RockPaperScissors-Jason.sol\":5194:5212  gameHistory.length */\n      dup1\n      sload\n        /* \"Practical2-RockPaperScissors-Jason.sol\":5194:5216  gameHistory.length - 1 */\n      tag_161\n      swap1\n        /* \"Practical2-RockPaperScissors-Jason.sol\":5182:5193  gameHistory */\n      dup3\n      swap1\n        /* \"Practical2-RockPaperScissors-Jason.sol\":5194:5216  gameHistory.length - 1 */\n      tag_62\n      jump\t// in\n    tag_161:\n        /* \"Practical2-RockPaperScissors-Jason.sol\":5182:5217  gameHistory[gameHistory.length - 1] */\n      dup2\n      sload\n      dup2\n      lt\n      tag_163\n      jumpi\n      tag_163\n      tag_50\n      jump\t// in\n    tag_163:\n      swap1\n      0x00\n      mstore\n      keccak256(0x00, 0x20)\n      swap1\n      0x05\n      mul\n      add\n        /* \"Practical2-RockPaperScissors-Jason.sol\":5182:5223  gameHistory[gameHistory.length - 1].user2 */\n      0x02\n      add\n        /* \"Practical2-RockPaperScissors-Jason.sol\":5182:5234  gameHistory[gameHistory.length - 1].user2.userOption */\n      0x01\n      add\n      sload\n        /* \"Practical2-RockPaperScissors-Jason.sol\":5238:5239  2 */\n      0x02\n        /* \"Practical2-RockPaperScissors-Jason.sol\":5182:5239  gameHistory[gameHistory.length - 1].user2.userOption == 2 */\n      eq\n        /* \"Practical2-RockPaperScissors-Jason.sol\":5121:5239  gameHistory[gameHistory.length - 1].user1.userOption == 1 && gameHistory[gameHistory.length - 1].user2.userOption == 2 */\n    tag_160:\n        /* \"Practical2-RockPaperScissors-Jason.sol\":5120:5380  (gameHistory[gameHistory.length - 1].user1.userOption == 1 && gameHistory[gameHistory.length - 1].user2.userOption == 2) ||... */\n      dup1\n      tag_170\n      jumpi\n      pop\n        /* \"Practical2-RockPaperScissors-Jason.sol\":5261:5272  gameHistory */\n      0x01\n        /* \"Practical2-RockPaperScissors-Jason.sol\":5273:5291  gameHistory.length */\n      dup1\n      sload\n        /* \"Practical2-RockPaperScissors-Jason.sol\":5273:5295  gameHistory.length - 1 */\n      tag_166\n      swap1\n        /* \"Practical2-RockPaperScissors-Jason.sol\":5261:5272  gameHistory */\n      dup3\n      swap1\n        /* \"Practical2-RockPaperScissors-Jason.sol\":5273:5295  gameHistory.length - 1 */\n      tag_62\n      jump\t// in\n    tag_166:\n        /* \"Practical2-RockPaperScissors-Jason.sol\":5261:5296  gameHistory[gameHistory.length - 1] */\n      dup2\n      sload\n      dup2\n      lt\n      tag_168\n      jumpi\n      tag_168\n      tag_50\n      jump\t// in\n    tag_168:\n      swap1\n      0x00\n      mstore\n      keccak256(0x00, 0x20)\n      swap1\n      0x05\n      mul\n      add\n        /* \"Practical2-RockPaperScissors-Jason.sol\":5261:5302  gameHistory[gameHistory.length - 1].user1 */\n      0x00\n      add\n        /* \"Practical2-RockPaperScissors-Jason.sol\":5261:5313  gameHistory[gameHistory.length - 1].user1.userOption */\n      0x01\n      add\n      sload\n        /* \"Practical2-RockPaperScissors-Jason.sol\":5317:5318  3 */\n      0x03\n        /* \"Practical2-RockPaperScissors-Jason.sol\":5261:5318  gameHistory[gameHistory.length - 1].user1.userOption == 3 */\n      eq\n        /* \"Practical2-RockPaperScissors-Jason.sol\":5261:5379  gameHistory[gameHistory.length - 1].user1.userOption == 3 && gameHistory[gameHistory.length - 1].user2.userOption == 1 */\n      dup1\n      iszero\n      tag_170\n      jumpi\n      pop\n        /* \"Practical2-RockPaperScissors-Jason.sol\":5322:5333  gameHistory */\n      0x01\n        /* \"Practical2-RockPaperScissors-Jason.sol\":5334:5352  gameHistory.length */\n      dup1\n      sload\n        /* \"Practical2-RockPaperScissors-Jason.sol\":5334:5356  gameHistory.length - 1 */\n      tag_171\n      swap1\n        /* \"Practical2-RockPaperScissors-Jason.sol\":5322:5333  gameHistory */\n      dup3\n      swap1\n        /* \"Practical2-RockPaperScissors-Jason.sol\":5334:5356  gameHistory.length - 1 */\n      tag_62\n      jump\t// in\n    tag_171:\n        /* \"Practical2-RockPaperScissors-Jason.sol\":5322:5357  gameHistory[gameHistory.length - 1] */\n      dup2\n      sload\n      dup2\n      lt\n      tag_173\n      jumpi\n      tag_173\n      tag_50\n      jump\t// in\n    tag_173:\n      swap1\n      0x00\n      mstore\n      keccak256(0x00, 0x20)\n      swap1\n      0x05\n      mul\n      add\n        /* \"Practical2-RockPaperScissors-Jason.sol\":5322:5363  gameHistory[gameHistory.length - 1].user2 */\n      0x02\n      add\n        /* \"Practical2-RockPaperScissors-Jason.sol\":5322:5374  gameHistory[gameHistory.length - 1].user2.userOption */\n      0x01\n      add\n      sload\n        /* \"Practical2-RockPaperScissors-Jason.sol\":5378:5379  1 */\n      0x01\n        /* \"Practical2-RockPaperScissors-Jason.sol\":5322:5379  gameHistory[gameHistory.length - 1].user2.userOption == 1 */\n      eq\n        /* \"Practical2-RockPaperScissors-Jason.sol\":5261:5379  gameHistory[gameHistory.length - 1].user1.userOption == 3 && gameHistory[gameHistory.length - 1].user2.userOption == 1 */\n    tag_170:\n        /* \"Practical2-RockPaperScissors-Jason.sol\":5120:5520  (gameHistory[gameHistory.length - 1].user1.userOption == 1 && gameHistory[gameHistory.length - 1].user2.userOption == 2) ||... */\n      dup1\n      tag_180\n      jumpi\n      pop\n        /* \"Practical2-RockPaperScissors-Jason.sol\":5401:5412  gameHistory */\n      0x01\n        /* \"Practical2-RockPaperScissors-Jason.sol\":5413:5431  gameHistory.length */\n      dup1\n      sload\n        /* \"Practical2-RockPaperScissors-Jason.sol\":5413:5435  gameHistory.length - 1 */\n      tag_176\n      swap1\n        /* \"Practical2-RockPaperScissors-Jason.sol\":5401:5412  gameHistory */\n      dup3\n      swap1\n        /* \"Practical2-RockPaperScissors-Jason.sol\":5413:5435  gameHistory.length - 1 */\n      tag_62\n      jump\t// in\n    tag_176:\n        /* \"Practical2-RockPaperScissors-Jason.sol\":5401:5436  gameHistory[gameHistory.length - 1] */\n      dup2\n      sload\n      dup2\n      lt\n      tag_178\n      jumpi\n      tag_178\n      tag_50\n      jump\t// in\n    tag_178:\n      swap1\n      0x00\n      mstore\n      keccak256(0x00, 0x20)\n      swap1\n      0x05\n      mul\n      add\n        /* \"Practical2-RockPaperScissors-Jason.sol\":5401:5442  gameHistory[gameHistory.length - 1].user1 */\n      0x00\n      add\n        /* \"Practical2-RockPaperScissors-Jason.sol\":5401:5453  gameHistory[gameHistory.length - 1].user1.userOption */\n      0x01\n      add\n      sload\n        /* \"Practical2-RockPaperScissors-Jason.sol\":5457:5458  2 */\n      0x02\n        /* \"Practical2-RockPaperScissors-Jason.sol\":5401:5458  gameHistory[gameHistory.length - 1].user1.userOption == 2 */\n      eq\n        /* \"Practical2-RockPaperScissors-Jason.sol\":5401:5519  gameHistory[gameHistory.length - 1].user1.userOption == 2 && gameHistory[gameHistory.length - 1].user2.userOption == 3 */\n      dup1\n      iszero\n      tag_180\n      jumpi\n      pop\n        /* \"Practical2-RockPaperScissors-Jason.sol\":5462:5473  gameHistory */\n      0x01\n        /* \"Practical2-RockPaperScissors-Jason.sol\":5474:5492  gameHistory.length */\n      dup1\n      sload\n        /* \"Practical2-RockPaperScissors-Jason.sol\":5474:5496  gameHistory.length - 1 */\n      tag_181\n      swap1\n        /* \"Practical2-RockPaperScissors-Jason.sol\":5462:5473  gameHistory */\n      dup3\n      swap1\n        /* \"Practical2-RockPaperScissors-Jason.sol\":5474:5496  gameHistory.length - 1 */\n      tag_62\n      jump\t// in\n    tag_181:\n        /* \"Practical2-RockPaperScissors-Jason.sol\":5462:5497  gameHistory[gameHistory.length - 1] */\n      dup2\n      sload\n      dup2\n      lt\n      tag_183\n      jumpi\n      tag_183\n      tag_50\n      jump\t// in\n    tag_183:\n      swap1\n      0x00\n      mstore\n      keccak256(0x00, 0x20)\n      swap1\n      0x05\n      mul\n      add\n        /* \"Practical2-RockPaperScissors-Jason.sol\":5462:5503  gameHistory[gameHistory.length - 1].user2 */\n      0x02\n      add\n        /* \"Practical2-RockPaperScissors-Jason.sol\":5462:5514  gameHistory[gameHistory.length - 1].user2.userOption */\n      0x01\n      add\n      sload\n        /* \"Practical2-RockPaperScissors-Jason.sol\":5518:5519  3 */\n      0x03\n        /* \"Practical2-RockPaperScissors-Jason.sol\":5462:5519  gameHistory[gameHistory.length - 1].user2.userOption == 3 */\n      eq\n        /* \"Practical2-RockPaperScissors-Jason.sol\":5401:5519  gameHistory[gameHistory.length - 1].user1.userOption == 2 && gameHistory[gameHistory.length - 1].user2.userOption == 3 */\n    tag_180:\n        /* \"Practical2-RockPaperScissors-Jason.sol\":5099:5821  if (... */\n      iszero\n      tag_185\n      jumpi\n        /* \"Practical2-RockPaperScissors-Jason.sol\":5553:5614  gameHistory[gameHistory.length - 1].finalResult = \"User2 win\" */\n      0x40\n      dup1\n      mload\n      dup1\n      dup3\n      add\n      swap1\n      swap2\n      mstore\n      0x09\n      dup2\n      mstore\n      shl(0xb9, 0x2ab9b2b919103bb4b7)\n      0x20\n      dup3\n      add\n      mstore\n        /* \"Practical2-RockPaperScissors-Jason.sol\":5553:5564  gameHistory */\n      0x01\n        /* \"Practical2-RockPaperScissors-Jason.sol\":5565:5583  gameHistory.length */\n      dup1\n      sload\n        /* \"Practical2-RockPaperScissors-Jason.sol\":5565:5587  gameHistory.length - 1 */\n      tag_186\n      swap1\n        /* \"Practical2-RockPaperScissors-Jason.sol\":5553:5564  gameHistory */\n      dup3\n      swap1\n        /* \"Practical2-RockPaperScissors-Jason.sol\":5565:5587  gameHistory.length - 1 */\n      tag_62\n      jump\t// in\n    tag_186:\n        /* \"Practical2-RockPaperScissors-Jason.sol\":5553:5588  gameHistory[gameHistory.length - 1] */\n      dup2\n      sload\n      dup2\n      lt\n      tag_188\n      jumpi\n      tag_188\n      tag_50\n      jump\t// in\n    tag_188:\n      swap1\n      0x00\n      mstore\n      keccak256(0x00, 0x20)\n      swap1\n      0x05\n      mul\n      add\n        /* \"Practical2-RockPaperScissors-Jason.sol\":5553:5600  gameHistory[gameHistory.length - 1].finalResult */\n      0x04\n      add\n        /* \"Practical2-RockPaperScissors-Jason.sol\":5553:5614  gameHistory[gameHistory.length - 1].finalResult = \"User2 win\" */\n      swap1\n      dup2\n      tag_190\n      swap2\n      swap1\n      tag_130\n      jump\t// in\n    tag_190:\n      pop\n        /* \"Practical2-RockPaperScissors-Jason.sol\":5637:5660  showResult(\"User2 win\") */\n      0xcde5c32c0a45fd8aa4b65ea8003fc9da9acd5e2c6c24a9fcce6ab79cabbd9122\n      mload(0x40)\n      tag_153\n      swap1\n        /* \"#utility.yul\":9743:9745   */\n      0x20\n        /* \"#utility.yul\":9725:9746   */\n      dup1\n      dup3\n      mstore\n        /* \"#utility.yul\":9782:9783   */\n      0x09\n        /* \"#utility.yul\":9762:9780   */\n      swap1\n      dup3\n      add\n        /* \"#utility.yul\":9755:9784   */\n      mstore\n      shl(0xb9, 0x2ab9b2b919103bb4b7)\n        /* \"#utility.yul\":9815:9817   */\n      0x40\n        /* \"#utility.yul\":9800:9818   */\n      dup3\n      add\n        /* \"#utility.yul\":9793:9832   */\n      mstore\n        /* \"#utility.yul\":9864:9866   */\n      0x60\n        /* \"#utility.yul\":9849:9867   */\n      add\n      swap1\n        /* \"#utility.yul\":9541:9873   */\n      jump\n        /* \"Practical2-RockPaperScissors-Jason.sol\":5099:5821  if (... */\n    tag_185:\n        /* \"Practical2-RockPaperScissors-Jason.sol\":5699:5760  gameHistory[gameHistory.length - 1].finalResult = \"User1 win\" */\n      0x40\n      dup1\n      mload\n      dup1\n      dup3\n      add\n      swap1\n      swap2\n      mstore\n      0x09\n      dup2\n      mstore\n      shl(0xb9, 0x2ab9b2b918903bb4b7)\n      0x20\n      dup3\n      add\n      mstore\n        /* \"Practical2-RockPaperScissors-Jason.sol\":5699:5710  gameHistory */\n      0x01\n        /* \"Practical2-RockPaperScissors-Jason.sol\":5711:5729  gameHistory.length */\n      dup1\n      sload\n        /* \"Practical2-RockPaperScissors-Jason.sol\":5711:5733  gameHistory.length - 1 */\n      tag_194\n      swap1\n        /* \"Practical2-RockPaperScissors-Jason.sol\":5699:5710  gameHistory */\n      dup3\n      swap1\n        /* \"Practical2-RockPaperScissors-Jason.sol\":5711:5733  gameHistory.length - 1 */\n      tag_62\n      jump\t// in\n    tag_194:\n        /* \"Practical2-RockPaperScissors-Jason.sol\":5699:5734  gameHistory[gameHistory.length - 1] */\n      dup2\n      sload\n      dup2\n      lt\n      tag_196\n      jumpi\n      tag_196\n      tag_50\n      jump\t// in\n    tag_196:\n      swap1\n      0x00\n      mstore\n      keccak256(0x00, 0x20)\n      swap1\n      0x05\n      mul\n      add\n        /* \"Practical2-RockPaperScissors-Jason.sol\":5699:5746  gameHistory[gameHistory.length - 1].finalResult */\n      0x04\n      add\n        /* \"Practical2-RockPaperScissors-Jason.sol\":5699:5760  gameHistory[gameHistory.length - 1].finalResult = \"User1 win\" */\n      swap1\n      dup2\n      tag_198\n      swap2\n      swap1\n      tag_130\n      jump\t// in\n    tag_198:\n      pop\n        /* \"Practical2-RockPaperScissors-Jason.sol\":5783:5806  showResult(\"User1 win\") */\n      0xcde5c32c0a45fd8aa4b65ea8003fc9da9acd5e2c6c24a9fcce6ab79cabbd9122\n      mload(0x40)\n      tag_153\n      swap1\n        /* \"#utility.yul\":10080:10082   */\n      0x20\n        /* \"#utility.yul\":10062:10083   */\n      dup1\n      dup3\n      mstore\n        /* \"#utility.yul\":10119:10120   */\n      0x09\n        /* \"#utility.yul\":10099:10117   */\n      swap1\n      dup3\n      add\n        /* \"#utility.yul\":10092:10121   */\n      mstore\n      shl(0xb9, 0x2ab9b2b918903bb4b7)\n        /* \"#utility.yul\":10152:10154   */\n      0x40\n        /* \"#utility.yul\":10137:10155   */\n      dup3\n      add\n        /* \"#utility.yul\":10130:10169   */\n      mstore\n        /* \"#utility.yul\":10201:10203   */\n      0x60\n        /* \"#utility.yul\":10186:10204   */\n      add\n      swap1\n        /* \"#utility.yul\":9878:10210   */\n      jump\n        /* \"Practical2-RockPaperScissors-Jason.sol\":5099:5821  if (... */\n    tag_193:\n        /* \"Practical2-RockPaperScissors-Jason.sol\":4400:5837  {... */\n      pop\n        /* \"Practical2-RockPaperScissors-Jason.sol\":4327:5837  function game (UserInfo memory userOne, UserInfo memory userTwo) private {... */\n      pop\n      pop\n      jump\t// out\n    tag_78:\n      0x40\n      dup1\n      mload\n      0xa0\n      dup2\n      add\n      swap1\n      swap2\n      mstore\n      0x00\n      0x60\n      dup3\n      add\n      dup2\n      dup2\n      mstore\n      0x80\n      dup4\n      add\n      swap2\n      swap1\n      swap2\n      mstore\n      dup2\n      swap1\n      dup2\n      mstore\n      0x20\n      add\n      tag_202\n      0x40\n      dup1\n      mload\n      dup1\n      dup3\n      add\n      swap1\n      swap2\n      mstore\n      0x00\n      dup1\n      dup3\n      mstore\n      0x20\n      dup3\n      add\n      mstore\n      swap1\n      jump\n    tag_202:\n      dup2\n      mstore\n      0x20\n      add\n      0x60\n      dup2\n      mstore\n      pop\n      swap1\n      jump\t// out\n        /* \"#utility.yul\":194:908   */\n    tag_204:\n        /* \"#utility.yul\":263:308   */\n      tag_213\n        /* \"#utility.yul\":304:307   */\n      dup3\n        /* \"#utility.yul\":296:301   */\n      dup3\n        /* \"#utility.yul\":290:302   */\n      mload\n        /* \"#utility.yul\":92:104   */\n      dup1\n      mload\n      sub(shl(0xa0, 0x01), 0x01)\n        /* \"#utility.yul\":88:126   */\n      and\n        /* \"#utility.yul\":76:127   */\n      dup3\n      mstore\n        /* \"#utility.yul\":176:180   */\n      0x20\n        /* \"#utility.yul\":165:181   */\n      swap1\n      dup2\n      add\n        /* \"#utility.yul\":159:182   */\n      mload\n        /* \"#utility.yul\":143:157   */\n      swap2\n      add\n        /* \"#utility.yul\":136:183   */\n      mstore\n        /* \"#utility.yul\":14:189   */\n      jump\n        /* \"#utility.yul\":263:308   */\n    tag_213:\n        /* \"#utility.yul\":245:248   */\n      0x00\n        /* \"#utility.yul\":327:331   */\n      0x20\n        /* \"#utility.yul\":377:379   */\n      dup1\n        /* \"#utility.yul\":370:375   */\n      dup4\n        /* \"#utility.yul\":366:380   */\n      add\n        /* \"#utility.yul\":360:381   */\n      mload\n        /* \"#utility.yul\":390:446   */\n      tag_214\n        /* \"#utility.yul\":440:444   */\n      0x40\n        /* \"#utility.yul\":435:438   */\n      dup7\n        /* \"#utility.yul\":431:445   */\n      add\n        /* \"#utility.yul\":417:429   */\n      dup3\n        /* \"#utility.yul\":92:104   */\n      dup1\n      mload\n      sub(shl(0xa0, 0x01), 0x01)\n        /* \"#utility.yul\":88:126   */\n      and\n        /* \"#utility.yul\":76:127   */\n      dup3\n      mstore\n        /* \"#utility.yul\":176:180   */\n      0x20\n        /* \"#utility.yul\":165:181   */\n      swap1\n      dup2\n      add\n        /* \"#utility.yul\":159:182   */\n      mload\n        /* \"#utility.yul\":143:157   */\n      swap2\n      add\n        /* \"#utility.yul\":136:183   */\n      mstore\n        /* \"#utility.yul\":14:189   */\n      jump\n        /* \"#utility.yul\":390:446   */\n    tag_214:\n      pop\n        /* \"#utility.yul\":494:498   */\n      0x40\n        /* \"#utility.yul\":487:492   */\n      dup4\n        /* \"#utility.yul\":483:499   */\n      add\n        /* \"#utility.yul\":477:500   */\n      mload\n        /* \"#utility.yul\":532:536   */\n      0xa0\n        /* \"#utility.yul\":525:529   */\n      0x80\n        /* \"#utility.yul\":520:523   */\n      dup7\n        /* \"#utility.yul\":516:530   */\n      add\n        /* \"#utility.yul\":509:537   */\n      mstore\n        /* \"#utility.yul\":566:580   */\n      dup1\n        /* \"#utility.yul\":560:581   */\n      mload\n        /* \"#utility.yul\":613:619   */\n      dup1\n        /* \"#utility.yul\":606:610   */\n      0xa0\n        /* \"#utility.yul\":601:604   */\n      dup8\n        /* \"#utility.yul\":597:611   */\n      add\n        /* \"#utility.yul\":590:620   */\n      mstore\n        /* \"#utility.yul\":638:639   */\n      0x00\n        /* \"#utility.yul\":648:791   */\n    tag_215:\n        /* \"#utility.yul\":662:668   */\n      dup2\n        /* \"#utility.yul\":659:660   */\n      dup2\n        /* \"#utility.yul\":656:669   */\n      lt\n        /* \"#utility.yul\":648:791   */\n      iszero\n      tag_217\n      jumpi\n        /* \"#utility.yul\":752:774   */\n      dup3\n      dup2\n      add\n        /* \"#utility.yul\":748:779   */\n      dup5\n      add\n        /* \"#utility.yul\":742:780   */\n      mload\n        /* \"#utility.yul\":723:734   */\n      dup8\n      dup3\n      add\n        /* \"#utility.yul\":736:739   */\n      0xc0\n        /* \"#utility.yul\":719:740   */\n      add\n        /* \"#utility.yul\":712:781   */\n      mstore\n        /* \"#utility.yul\":677:687   */\n      dup4\n      add\n        /* \"#utility.yul\":648:791   */\n      jump(tag_215)\n    tag_217:\n        /* \"#utility.yul\":652:655   */\n      pop\n        /* \"#utility.yul\":835:836   */\n      0x00\n        /* \"#utility.yul\":829:832   */\n      0xc0\n        /* \"#utility.yul\":820:826   */\n      dup3\n        /* \"#utility.yul\":815:818   */\n      dup9\n        /* \"#utility.yul\":811:827   */\n      add\n        /* \"#utility.yul\":807:833   */\n      add\n        /* \"#utility.yul\":800:837   */\n      mstore\n        /* \"#utility.yul\":898:901   */\n      0xc0\n        /* \"#utility.yul\":891:893   */\n      0x1f\n        /* \"#utility.yul\":887:894   */\n      not\n        /* \"#utility.yul\":882:884   */\n      0x1f\n        /* \"#utility.yul\":874:880   */\n      dup4\n        /* \"#utility.yul\":870:885   */\n      add\n        /* \"#utility.yul\":866:895   */\n      and\n        /* \"#utility.yul\":861:864   */\n      dup8\n        /* \"#utility.yul\":857:896   */\n      add\n        /* \"#utility.yul\":853:902   */\n      add\n        /* \"#utility.yul\":846:902   */\n      swap4\n      pop\n      pop\n      pop\n      pop\n        /* \"#utility.yul\":194:908   */\n      swap3\n      swap2\n      pop\n      pop\n      jump\t// out\n        /* \"#utility.yul\":913:1753   */\n    tag_10:\n        /* \"#utility.yul\":1103:1107   */\n      0x00\n        /* \"#utility.yul\":1132:1134   */\n      0x20\n        /* \"#utility.yul\":1172:1174   */\n      dup1\n        /* \"#utility.yul\":1161:1170   */\n      dup4\n        /* \"#utility.yul\":1157:1175   */\n      add\n        /* \"#utility.yul\":1202:1204   */\n      dup2\n        /* \"#utility.yul\":1191:1200   */\n      dup5\n        /* \"#utility.yul\":1184:1205   */\n      mstore\n        /* \"#utility.yul\":1225:1231   */\n      dup1\n        /* \"#utility.yul\":1260:1266   */\n      dup6\n        /* \"#utility.yul\":1254:1267   */\n      mload\n        /* \"#utility.yul\":1291:1297   */\n      dup1\n        /* \"#utility.yul\":1283:1289   */\n      dup4\n        /* \"#utility.yul\":1276:1298   */\n      mstore\n        /* \"#utility.yul\":1329:1331   */\n      0x40\n        /* \"#utility.yul\":1318:1327   */\n      dup7\n        /* \"#utility.yul\":1314:1332   */\n      add\n        /* \"#utility.yul\":1307:1332   */\n      swap2\n      pop\n        /* \"#utility.yul\":1391:1393   */\n      0x40\n        /* \"#utility.yul\":1381:1387   */\n      dup2\n        /* \"#utility.yul\":1378:1379   */\n      0x05\n        /* \"#utility.yul\":1374:1388   */\n      shl\n        /* \"#utility.yul\":1363:1372   */\n      dup8\n        /* \"#utility.yul\":1359:1389   */\n      add\n        /* \"#utility.yul\":1355:1394   */\n      add\n        /* \"#utility.yul\":1341:1394   */\n      swap3\n      pop\n        /* \"#utility.yul\":1429:1431   */\n      dup4\n        /* \"#utility.yul\":1421:1427   */\n      dup8\n        /* \"#utility.yul\":1417:1432   */\n      add\n        /* \"#utility.yul\":1450:1451   */\n      0x00\n        /* \"#utility.yul\":1460:1724   */\n    tag_219:\n        /* \"#utility.yul\":1474:1480   */\n      dup3\n        /* \"#utility.yul\":1471:1472   */\n      dup2\n        /* \"#utility.yul\":1468:1481   */\n      lt\n        /* \"#utility.yul\":1460:1724   */\n      iszero\n      tag_221\n      jumpi\n        /* \"#utility.yul\":1567:1569   */\n      0x3f\n        /* \"#utility.yul\":1563:1570   */\n      not\n        /* \"#utility.yul\":1551:1560   */\n      dup9\n        /* \"#utility.yul\":1543:1549   */\n      dup7\n        /* \"#utility.yul\":1539:1561   */\n      sub\n        /* \"#utility.yul\":1535:1571   */\n      add\n        /* \"#utility.yul\":1530:1533   */\n      dup5\n        /* \"#utility.yul\":1523:1572   */\n      mstore\n        /* \"#utility.yul\":1595:1644   */\n      tag_222\n        /* \"#utility.yul\":1637:1643   */\n      dup6\n        /* \"#utility.yul\":1628:1634   */\n      dup4\n        /* \"#utility.yul\":1622:1635   */\n      mload\n        /* \"#utility.yul\":1595:1644   */\n      tag_204\n      jump\t// in\n    tag_222:\n        /* \"#utility.yul\":1585:1644   */\n      swap5\n      pop\n        /* \"#utility.yul\":1702:1714   */\n      swap3\n      dup6\n      add\n      swap3\n        /* \"#utility.yul\":1667:1682   */\n      swap1\n      dup6\n      add\n      swap1\n        /* \"#utility.yul\":1496:1497   */\n      0x01\n        /* \"#utility.yul\":1489:1498   */\n      add\n        /* \"#utility.yul\":1460:1724   */\n      jump(tag_219)\n    tag_221:\n      pop\n        /* \"#utility.yul\":1741:1747   */\n      swap3\n      swap8\n        /* \"#utility.yul\":913:1753   */\n      swap7\n      pop\n      pop\n      pop\n      pop\n      pop\n      pop\n      pop\n      jump\t// out\n        /* \"#utility.yul\":1758:1938   */\n    tag_13:\n        /* \"#utility.yul\":1817:1823   */\n      0x00\n        /* \"#utility.yul\":1870:1872   */\n      0x20\n        /* \"#utility.yul\":1858:1867   */\n      dup3\n        /* \"#utility.yul\":1849:1856   */\n      dup5\n        /* \"#utility.yul\":1845:1868   */\n      sub\n        /* \"#utility.yul\":1841:1873   */\n      slt\n        /* \"#utility.yul\":1838:1890   */\n      iszero\n      tag_224\n      jumpi\n        /* \"#utility.yul\":1886:1887   */\n      0x00\n        /* \"#utility.yul\":1883:1884   */\n      dup1\n        /* \"#utility.yul\":1876:1888   */\n      revert\n        /* \"#utility.yul\":1838:1890   */\n    tag_224:\n      pop\n        /* \"#utility.yul\":1909:1932   */\n      calldataload\n      swap2\n        /* \"#utility.yul\":1758:1938   */\n      swap1\n      pop\n      jump\t// out\n        /* \"#utility.yul\":1943:2662   */\n    tag_18:\n        /* \"#utility.yul\":2160:2162   */\n      0x20\n        /* \"#utility.yul\":2212:2233   */\n      dup1\n      dup3\n      mstore\n        /* \"#utility.yul\":2282:2295   */\n      dup3\n      mload\n        /* \"#utility.yul\":2185:2203   */\n      dup3\n      dup3\n      add\n        /* \"#utility.yul\":2304:2326   */\n      dup2\n      swap1\n      mstore\n        /* \"#utility.yul\":2131:2135   */\n      0x00\n      swap2\n        /* \"#utility.yul\":2160:2162   */\n      swap1\n        /* \"#utility.yul\":2345:2347   */\n      0x40\n      swap1\n        /* \"#utility.yul\":2363:2381   */\n      dup2\n      dup6\n      add\n      swap1\n        /* \"#utility.yul\":2404:2419   */\n      dup7\n      dup5\n      add\n        /* \"#utility.yul\":2131:2135   */\n      dup6\n        /* \"#utility.yul\":2447:2636   */\n    tag_226:\n        /* \"#utility.yul\":2461:2467   */\n      dup3\n        /* \"#utility.yul\":2458:2459   */\n      dup2\n        /* \"#utility.yul\":2455:2468   */\n      lt\n        /* \"#utility.yul\":2447:2636   */\n      iszero\n      tag_228\n      jumpi\n        /* \"#utility.yul\":2510:2556   */\n      tag_229\n        /* \"#utility.yul\":2552:2555   */\n      dup5\n        /* \"#utility.yul\":2543:2549   */\n      dup4\n        /* \"#utility.yul\":2537:2550   */\n      mload\n        /* \"#utility.yul\":92:104   */\n      dup1\n      mload\n      sub(shl(0xa0, 0x01), 0x01)\n        /* \"#utility.yul\":88:126   */\n      and\n        /* \"#utility.yul\":76:127   */\n      dup3\n      mstore\n        /* \"#utility.yul\":176:180   */\n      0x20\n        /* \"#utility.yul\":165:181   */\n      swap1\n      dup2\n      add\n        /* \"#utility.yul\":159:182   */\n      mload\n        /* \"#utility.yul\":143:157   */\n      swap2\n      add\n        /* \"#utility.yul\":136:183   */\n      mstore\n        /* \"#utility.yul\":14:189   */\n      jump\n        /* \"#utility.yul\":2510:2556   */\n    tag_229:\n        /* \"#utility.yul\":2576:2588   */\n      swap3\n      dup5\n      add\n      swap3\n        /* \"#utility.yul\":2611:2626   */\n      swap1\n      dup6\n      add\n      swap1\n        /* \"#utility.yul\":2483:2484   */\n      0x01\n        /* \"#utility.yul\":2476:2485   */\n      add\n        /* \"#utility.yul\":2447:2636   */\n      jump(tag_226)\n    tag_228:\n      pop\n        /* \"#utility.yul\":2653:2656   */\n      swap2\n      swap8\n        /* \"#utility.yul\":1943:2662   */\n      swap7\n      pop\n      pop\n      pop\n      pop\n      pop\n      pop\n      pop\n      jump\t// out\n        /* \"#utility.yul\":2667:2924   */\n    tag_23:\n        /* \"#utility.yul\":2844:2846   */\n      0x20\n        /* \"#utility.yul\":2833:2842   */\n      dup2\n        /* \"#utility.yul\":2826:2847   */\n      mstore\n        /* \"#utility.yul\":2807:2811   */\n      0x00\n        /* \"#utility.yul\":2864:2918   */\n      tag_231\n        /* \"#utility.yul\":2914:2916   */\n      0x20\n        /* \"#utility.yul\":2903:2912   */\n      dup4\n        /* \"#utility.yul\":2899:2917   */\n      add\n        /* \"#utility.yul\":2891:2897   */\n      dup5\n        /* \"#utility.yul\":2864:2918   */\n      tag_204\n      jump\t// in\n    tag_231:\n        /* \"#utility.yul\":2856:2918   */\n      swap4\n        /* \"#utility.yul\":2667:2924   */\n      swap3\n      pop\n      pop\n      pop\n      jump\t// out\n        /* \"#utility.yul\":2929:3309   */\n    tag_29:\n        /* \"#utility.yul\":3008:3009   */\n      0x01\n        /* \"#utility.yul\":3004:3016   */\n      dup2\n      dup2\n      shr\n      swap1\n        /* \"#utility.yul\":3051:3063   */\n      dup3\n      and\n      dup1\n        /* \"#utility.yul\":3072:3133   */\n      tag_233\n      jumpi\n        /* \"#utility.yul\":3126:3130   */\n      0x7f\n        /* \"#utility.yul\":3118:3124   */\n      dup3\n        /* \"#utility.yul\":3114:3131   */\n      and\n        /* \"#utility.yul\":3104:3131   */\n      swap2\n      pop\n        /* \"#utility.yul\":3072:3133   */\n    tag_233:\n        /* \"#utility.yul\":3179:3181   */\n      0x20\n        /* \"#utility.yul\":3171:3177   */\n      dup3\n        /* \"#utility.yul\":3168:3182   */\n      lt\n        /* \"#utility.yul\":3148:3166   */\n      dup2\n        /* \"#utility.yul\":3145:3183   */\n      sub\n        /* \"#utility.yul\":3142:3303   */\n      tag_234\n      jumpi\n        /* \"#utility.yul\":3225:3235   */\n      0x4e487b71\n        /* \"#utility.yul\":3220:3223   */\n      0xe0\n        /* \"#utility.yul\":3216:3236   */\n      shl\n        /* \"#utility.yul\":3213:3214   */\n      0x00\n        /* \"#utility.yul\":3206:3237   */\n      mstore\n        /* \"#utility.yul\":3260:3264   */\n      0x22\n        /* \"#utility.yul\":3257:3258   */\n      0x04\n        /* \"#utility.yul\":3250:3265   */\n      mstore\n        /* \"#utility.yul\":3288:3292   */\n      0x24\n        /* \"#utility.yul\":3285:3286   */\n      0x00\n        /* \"#utility.yul\":3278:3293   */\n      revert\n        /* \"#utility.yul\":3142:3303   */\n    tag_234:\n      pop\n        /* \"#utility.yul\":2929:3309   */\n      swap2\n      swap1\n      pop\n      jump\t// out\n        /* \"#utility.yul\":4372:4499   */\n    tag_50:\n        /* \"#utility.yul\":4433:4443   */\n      0x4e487b71\n        /* \"#utility.yul\":4428:4431   */\n      0xe0\n        /* \"#utility.yul\":4424:4444   */\n      shl\n        /* \"#utility.yul\":4421:4422   */\n      0x00\n        /* \"#utility.yul\":4414:4445   */\n      mstore\n        /* \"#utility.yul\":4464:4468   */\n      0x32\n        /* \"#utility.yul\":4461:4462   */\n      0x04\n        /* \"#utility.yul\":4454:4469   */\n      mstore\n        /* \"#utility.yul\":4488:4492   */\n      0x24\n        /* \"#utility.yul\":4485:4486   */\n      0x00\n        /* \"#utility.yul\":4478:4493   */\n      revert\n        /* \"#utility.yul\":4930:5057   */\n    tag_205:\n        /* \"#utility.yul\":4991:5001   */\n      0x4e487b71\n        /* \"#utility.yul\":4986:4989   */\n      0xe0\n        /* \"#utility.yul\":4982:5002   */\n      shl\n        /* \"#utility.yul\":4979:4980   */\n      0x00\n        /* \"#utility.yul\":4972:5003   */\n      mstore\n        /* \"#utility.yul\":5022:5026   */\n      0x11\n        /* \"#utility.yul\":5019:5020   */\n      0x04\n        /* \"#utility.yul\":5012:5027   */\n      mstore\n        /* \"#utility.yul\":5046:5050   */\n      0x24\n        /* \"#utility.yul\":5043:5044   */\n      0x00\n        /* \"#utility.yul\":5036:5051   */\n      revert\n        /* \"#utility.yul\":5062:5197   */\n    tag_57:\n        /* \"#utility.yul\":5101:5104   */\n      0x00\n        /* \"#utility.yul\":5122:5139   */\n      0x01\n      dup3\n      add\n        /* \"#utility.yul\":5119:5162   */\n      tag_243\n      jumpi\n        /* \"#utility.yul\":5142:5160   */\n      tag_243\n      tag_205\n      jump\t// in\n    tag_243:\n      pop\n        /* \"#utility.yul\":5189:5190   */\n      0x01\n        /* \"#utility.yul\":5178:5191   */\n      add\n      swap1\n        /* \"#utility.yul\":5062:5197   */\n      jump\t// out\n        /* \"#utility.yul\":5202:5330   */\n    tag_62:\n        /* \"#utility.yul\":5269:5278   */\n      dup2\n      dup2\n      sub\n        /* \"#utility.yul\":5290:5301   */\n      dup2\n      dup2\n      gt\n        /* \"#utility.yul\":5287:5324   */\n      iszero\n      tag_246\n      jumpi\n        /* \"#utility.yul\":5304:5322   */\n      tag_246\n      tag_205\n      jump\t// in\n    tag_246:\n        /* \"#utility.yul\":5202:5330   */\n      swap3\n      swap2\n      pop\n      pop\n      jump\t// out\n        /* \"#utility.yul\":6527:6736   */\n    tag_110:\n        /* \"#utility.yul\":6559:6560   */\n      0x00\n        /* \"#utility.yul\":6585:6586   */\n      dup3\n        /* \"#utility.yul\":6575:6707   */\n      tag_252\n      jumpi\n        /* \"#utility.yul\":6629:6639   */\n      0x4e487b71\n        /* \"#utility.yul\":6624:6627   */\n      0xe0\n        /* \"#utility.yul\":6620:6640   */\n      shl\n        /* \"#utility.yul\":6617:6618   */\n      0x00\n        /* \"#utility.yul\":6610:6641   */\n      mstore\n        /* \"#utility.yul\":6664:6668   */\n      0x12\n        /* \"#utility.yul\":6661:6662   */\n      0x04\n        /* \"#utility.yul\":6654:6669   */\n      mstore\n        /* \"#utility.yul\":6692:6696   */\n      0x24\n        /* \"#utility.yul\":6689:6690   */\n      0x00\n        /* \"#utility.yul\":6682:6697   */\n      revert\n        /* \"#utility.yul\":6575:6707   */\n    tag_252:\n      pop\n        /* \"#utility.yul\":6721:6730   */\n      mod\n      swap1\n        /* \"#utility.yul\":6527:6736   */\n      jump\t// out\n        /* \"#utility.yul\":6741:6868   */\n    tag_124:\n        /* \"#utility.yul\":6802:6812   */\n      0x4e487b71\n        /* \"#utility.yul\":6797:6800   */\n      0xe0\n        /* \"#utility.yul\":6793:6813   */\n      shl\n        /* \"#utility.yul\":6790:6791   */\n      0x00\n        /* \"#utility.yul\":6783:6814   */\n      mstore\n        /* \"#utility.yul\":6833:6837   */\n      0x31\n        /* \"#utility.yul\":6830:6831   */\n      0x04\n        /* \"#utility.yul\":6823:6838   */\n      mstore\n        /* \"#utility.yul\":6857:6861   */\n      0x24\n        /* \"#utility.yul\":6854:6855   */\n      0x00\n        /* \"#utility.yul\":6847:6862   */\n      revert\n        /* \"#utility.yul\":6873:7000   */\n    tag_206:\n        /* \"#utility.yul\":6934:6944   */\n      0x4e487b71\n        /* \"#utility.yul\":6929:6932   */\n      0xe0\n        /* \"#utility.yul\":6925:6945   */\n      shl\n        /* \"#utility.yul\":6922:6923   */\n      0x00\n        /* \"#utility.yul\":6915:6946   */\n      mstore\n        /* \"#utility.yul\":6965:6969   */\n      0x41\n        /* \"#utility.yul\":6962:6963   */\n      0x04\n        /* \"#utility.yul\":6955:6970   */\n      mstore\n        /* \"#utility.yul\":6989:6993   */\n      0x24\n        /* \"#utility.yul\":6986:6987   */\n      0x00\n        /* \"#utility.yul\":6979:6994   */\n      revert\n        /* \"#utility.yul\":7131:7676   */\n    tag_208:\n        /* \"#utility.yul\":7233:7235   */\n      0x1f\n        /* \"#utility.yul\":7228:7231   */\n      dup3\n        /* \"#utility.yul\":7225:7236   */\n      gt\n        /* \"#utility.yul\":7222:7670   */\n      iszero\n      tag_193\n      jumpi\n        /* \"#utility.yul\":7269:7270   */\n      0x00\n        /* \"#utility.yul\":7294:7299   */\n      dup2\n        /* \"#utility.yul\":7290:7292   */\n      dup2\n        /* \"#utility.yul\":7283:7300   */\n      mstore\n        /* \"#utility.yul\":7339:7343   */\n      0x20\n        /* \"#utility.yul\":7335:7337   */\n      dup2\n        /* \"#utility.yul\":7325:7344   */\n      keccak256\n        /* \"#utility.yul\":7409:7411   */\n      0x1f\n        /* \"#utility.yul\":7397:7407   */\n      dup6\n        /* \"#utility.yul\":7393:7412   */\n      add\n        /* \"#utility.yul\":7390:7391   */\n      0x05\n        /* \"#utility.yul\":7386:7413   */\n      shr\n        /* \"#utility.yul\":7380:7384   */\n      dup2\n        /* \"#utility.yul\":7376:7414   */\n      add\n        /* \"#utility.yul\":7445:7449   */\n      0x20\n        /* \"#utility.yul\":7433:7443   */\n      dup7\n        /* \"#utility.yul\":7430:7450   */\n      lt\n        /* \"#utility.yul\":7427:7474   */\n      iszero\n      tag_258\n      jumpi\n      pop\n        /* \"#utility.yul\":7468:7472   */\n      dup1\n        /* \"#utility.yul\":7427:7474   */\n    tag_258:\n        /* \"#utility.yul\":7523:7525   */\n      0x1f\n        /* \"#utility.yul\":7518:7521   */\n      dup6\n        /* \"#utility.yul\":7514:7526   */\n      add\n        /* \"#utility.yul\":7511:7512   */\n      0x05\n        /* \"#utility.yul\":7507:7527   */\n      shr\n        /* \"#utility.yul\":7501:7505   */\n      dup3\n        /* \"#utility.yul\":7497:7528   */\n      add\n        /* \"#utility.yul\":7487:7528   */\n      swap2\n      pop\n        /* \"#utility.yul\":7578:7660   */\n    tag_259:\n        /* \"#utility.yul\":7596:7598   */\n      dup2\n        /* \"#utility.yul\":7589:7594   */\n      dup2\n        /* \"#utility.yul\":7586:7599   */\n      lt\n        /* \"#utility.yul\":7578:7660   */\n      iszero\n      tag_261\n      jumpi\n        /* \"#utility.yul\":7641:7658   */\n      dup3\n      dup2\n      sstore\n        /* \"#utility.yul\":7622:7623   */\n      0x01\n        /* \"#utility.yul\":7611:7624   */\n      add\n        /* \"#utility.yul\":7578:7660   */\n      jump(tag_259)\n    tag_261:\n        /* \"#utility.yul\":7582:7585   */\n      pop\n      pop\n      pop\n        /* \"#utility.yul\":7131:7676   */\n      pop\n      pop\n      pop\n      jump\t// out\n        /* \"#utility.yul\":7852:9204   */\n    tag_130:\n        /* \"#utility.yul\":7978:7981   */\n      dup2\n        /* \"#utility.yul\":7972:7982   */\n      mload\n        /* \"#utility.yul\":8005:8023   */\n      0xffffffffffffffff\n        /* \"#utility.yul\":7997:8003   */\n      dup2\n        /* \"#utility.yul\":7994:8024   */\n      gt\n        /* \"#utility.yul\":7991:8047   */\n      iszero\n      tag_265\n      jumpi\n        /* \"#utility.yul\":8027:8045   */\n      tag_265\n      tag_206\n      jump\t// in\n    tag_265:\n        /* \"#utility.yul\":8056:8153   */\n      tag_266\n        /* \"#utility.yul\":8146:8152   */\n      dup2\n        /* \"#utility.yul\":8106:8144   */\n      tag_267\n        /* \"#utility.yul\":8138:8142   */\n      dup5\n        /* \"#utility.yul\":8132:8143   */\n      sload\n        /* \"#utility.yul\":8106:8144   */\n      tag_29\n      jump\t// in\n    tag_267:\n        /* \"#utility.yul\":8100:8104   */\n      dup5\n        /* \"#utility.yul\":8056:8153   */\n      tag_208\n      jump\t// in\n    tag_266:\n        /* \"#utility.yul\":8208:8212   */\n      0x20\n      dup1\n        /* \"#utility.yul\":8272:8274   */\n      0x1f\n        /* \"#utility.yul\":8261:8275   */\n      dup4\n      gt\n        /* \"#utility.yul\":8289:8290   */\n      0x01\n        /* \"#utility.yul\":8284:8947   */\n      dup2\n      eq\n      tag_269\n      jumpi\n        /* \"#utility.yul\":8991:8992   */\n      0x00\n        /* \"#utility.yul\":9008:9014   */\n      dup5\n        /* \"#utility.yul\":9005:9094   */\n      iszero\n      tag_270\n      jumpi\n      pop\n        /* \"#utility.yul\":9060:9079   */\n      dup6\n      dup4\n      add\n        /* \"#utility.yul\":9054:9080   */\n      mload\n        /* \"#utility.yul\":9005:9094   */\n    tag_270:\n      not(0x00)\n        /* \"#utility.yul\":7809:7810   */\n      0x03\n        /* \"#utility.yul\":7805:7816   */\n      dup7\n      swap1\n      shl\n        /* \"#utility.yul\":7801:7825   */\n      shr\n        /* \"#utility.yul\":7797:7826   */\n      not\n        /* \"#utility.yul\":7787:7827   */\n      and\n        /* \"#utility.yul\":7833:7834   */\n      0x01\n        /* \"#utility.yul\":7829:7840   */\n      dup6\n      swap1\n      shl\n        /* \"#utility.yul\":7784:7841   */\n      or\n        /* \"#utility.yul\":9107:9188   */\n      dup6\n      sstore\n        /* \"#utility.yul\":8254:9198   */\n      jump(tag_261)\n        /* \"#utility.yul\":8284:8947   */\n    tag_269:\n        /* \"#utility.yul\":7078:7079   */\n      0x00\n        /* \"#utility.yul\":7071:7085   */\n      dup6\n      dup2\n      mstore\n        /* \"#utility.yul\":7115:7119   */\n      0x20\n        /* \"#utility.yul\":7102:7120   */\n      dup2\n      keccak256\n      not(0x1f)\n        /* \"#utility.yul\":8320:8340   */\n      dup7\n      and\n      swap2\n        /* \"#utility.yul\":8438:8674   */\n    tag_273:\n        /* \"#utility.yul\":8452:8459   */\n      dup3\n        /* \"#utility.yul\":8449:8450   */\n      dup2\n        /* \"#utility.yul\":8446:8460   */\n      lt\n        /* \"#utility.yul\":8438:8674   */\n      iszero\n      tag_275\n      jumpi\n        /* \"#utility.yul\":8541:8560   */\n      dup9\n      dup7\n      add\n        /* \"#utility.yul\":8535:8561   */\n      mload\n        /* \"#utility.yul\":8520:8562   */\n      dup3\n      sstore\n        /* \"#utility.yul\":8633:8660   */\n      swap5\n      dup5\n      add\n      swap5\n        /* \"#utility.yul\":8601:8602   */\n      0x01\n        /* \"#utility.yul\":8589:8603   */\n      swap1\n      swap2\n      add\n      swap1\n        /* \"#utility.yul\":8468:8487   */\n      dup5\n      add\n        /* \"#utility.yul\":8438:8674   */\n      jump(tag_273)\n    tag_275:\n        /* \"#utility.yul\":8442:8445   */\n      pop\n        /* \"#utility.yul\":8702:8708   */\n      dup6\n        /* \"#utility.yul\":8693:8700   */\n      dup3\n        /* \"#utility.yul\":8690:8709   */\n      lt\n        /* \"#utility.yul\":8687:8888   */\n      iszero\n      tag_276\n      jumpi\n        /* \"#utility.yul\":8763:8782   */\n      dup8\n      dup6\n      add\n        /* \"#utility.yul\":8757:8783   */\n      mload\n      not(0x00)\n        /* \"#utility.yul\":8846:8847   */\n      0x03\n        /* \"#utility.yul\":8842:8856   */\n      dup9\n      swap1\n      shl\n        /* \"#utility.yul\":8858:8861   */\n      0xf8\n        /* \"#utility.yul\":8838:8862   */\n      and\n        /* \"#utility.yul\":8834:8871   */\n      shr\n        /* \"#utility.yul\":8830:8872   */\n      not\n        /* \"#utility.yul\":8815:8873   */\n      and\n        /* \"#utility.yul\":8800:8874   */\n      dup2\n      sstore\n        /* \"#utility.yul\":8687:8888   */\n    tag_276:\n      pop\n      pop\n      pop\n      pop\n      pop\n        /* \"#utility.yul\":8934:8935   */\n      0x01\n        /* \"#utility.yul\":8918:8932   */\n      swap1\n      dup2\n      shl\n        /* \"#utility.yul\":8914:8936   */\n      add\n        /* \"#utility.yul\":8901:8937   */\n      swap1\n      sstore\n      pop\n        /* \"#utility.yul\":7852:9204   */\n      jump\t// out\n\n    auxdata: 0xa26469706673582212202b346951e6ed421cff9f24bb8796fb10ade143b4829fefb242449d42a706ba3764736f6c63430008130033\n}\n",
				"bytecode": {
					"linkReferences": {},
					"object": "608060405260008055600160035534801561001957600080fd5b506112be806100296000396000f3fe608060405234801561001057600080fd5b506004361061004c5760003560e01c8063512ec55714610051578063adf496b51461006f578063e16c9d5914610084578063f7c4efbb14610099575b600080fd5b6100596100b9565b6040516100669190610f9f565b60405180910390f35b61008261007d366004611001565b6101f2565b005b61008c610515565b604051610066919061101a565b6100ac6100a7366004611001565b610581565b604051610066919061107a565b60606001805480602002602001604051908101604052809291908181526020016000905b828210156101e95760008481526020908190206040805160a0810182526005860290920180546001600160a01b03908116606085019081526001830154608086015284528251808401845260028301549091168152600382015481860152938301939093526004830180549293929184019161015890611094565b80601f016020809104026020016040519081016040528092919081815260200182805461018490611094565b80156101d15780601f106101a6576101008083540402835291602001916101d1565b820191906000526020600020905b8154815290600101906020018083116101b457829003601f168201915b505050505081525050815260200190600101906100dd565b50505050905090565b60025460ff16156102425760405162461bcd60e51b8152602060048201526015602482015274115c9c9bdc8e881499595b9d1c985b9d0818d85b1b605a1b60448201526064015b60405180910390fd5b6002805460ff1916600117905560405133907f6fd5bea3ad79492c3055c6f6b7b37ca66d63ba4ceef7d04dd901559affbe971a90600090a2806000036102c15760405162461bcd60e51b815260206004820152601460248201527304572726f723a2043616e277420696e70757420360641b6044820152606401610239565b60038111156103125760405162461bcd60e51b815260206004820152601e60248201527f4572726f723a2043616e277420696e707574206d6f7265207468616e203300006044820152606401610239565b6000805b6004548110156103d75760048181548110610333576103336110ce565b60009182526020909120600290910201546001600160a01b031633036103c55760405162461bcd60e51b815260206004820152603960248201527f4572726f723a20596f7520616c726561647920696e207468652071756575652c60448201527f207761697420666f72206f7468657220706c6179206a6f696e00000000000000606482015260019250608401610239565b806103cf816110fa565b915050610316565b5060408051808201909152600080825260208201526004805460018082018355600083905283517f8a35acfbc15ff81a39ae7d344fd709f28e8600b4aa8c65c6b64bfe7fe36bd19b600290930292830180546001600160a01b0319166001600160a01b0390921691909117905560208401517f8a35acfbc15ff81a39ae7d344fd709f28e8600b4aa8c65c6b64bfe7fe36bd19c90920191909155815433929161047f91611113565b8154811061048f5761048f6110ce565b6000918252602090912060029091020180546001600160a01b0319166001600160a01b0392909216919091179055600480548491906104d090600190611113565b815481106104e0576104e06110ce565b6000918252602090912060016002909202010155600454600603610506576105066106e3565b50506002805460ff1916905550565b60606004805480602002602001604051908101604052809291908181526020016000905b828210156101e9576000848152602090819020604080518082019091526002850290910180546001600160a01b03168252600190810154828401529083529092019101610539565b610589610eb9565b6001548211156105d35760405162461bcd60e51b815260206004820152601560248201527408ae4e4dee4744092dcecc2d8d2c840d8cadccee8d605b1b6044820152606401610239565b600182815481106105e6576105e66110ce565b60009182526020918290206040805160a081018252600590930290910180546001600160a01b03908116606085019081526001830154608086015284528251808401845260028301549091168152600382015481860152938301939093526004830180549293929184019161065a90611094565b80601f016020809104026020016040519081016040528092919081815260200182805461068690611094565b80156106d35780601f106106a8576101008083540402835291602001916106d3565b820191906000526020600020905b8154815290600101906020018083116106b657829003601f168201915b5050505050815250509050919050565b60006106ed610749565b905060006106f9610749565b90506107058282610902565b50506004546000036106e3576004546040519081527f1f237084c29a99316238004a5870904571dbc9ff0d357b8b85cceacb5512a8509060200160405180910390a1565b604080518082019091526000808252602082015260045461079d5760405162461bcd60e51b815260206004820152600e60248201526d417272617920697320656d70747960901b6044820152606401610239565b6004546003546040805144602082015242918101919091526060810191909152600091906080016040516020818303038152906040528051906020012060001c6107e7919061112c565b6003805491925060006107f9836110fa565b9190505550600060048281548110610813576108136110ce565b60009182526020918290206040805180820190915260029092020180546001600160a01b0316825260019081015492820192909252600480549193509161085991611113565b81548110610869576108696110ce565b90600052602060002090600202016004838154811061088a5761088a6110ce565b60009182526020909120825460029092020180546001600160a01b0319166001600160a01b0390921691909117815560019182015491015560048054806108d3576108d361114e565b60008281526020812060026000199093019283020180546001600160a01b031916815560010155905592915050565b61090a610eb9565b600180548082018255600091909152815180517fb10e2d527612073b26eecdfd717e6a320cf44b4afac2b0732d9fcbe2b7fa0cf6600590930292830180546001600160a01b03199081166001600160a01b039384161782556020938401517fb10e2d527612073b26eecdfd717e6a320cf44b4afac2b0732d9fcbe2b7fa0cf78601558386015180517fb10e2d527612073b26eecdfd717e6a320cf44b4afac2b0732d9fcbe2b7fa0cf88701805490931694169390931790559101517fb10e2d527612073b26eecdfd717e6a320cf44b4afac2b0732d9fcbe2b7fa0cf9830155604083015183927fb10e2d527612073b26eecdfd717e6a320cf44b4afac2b0732d9fcbe2b7fa0cfa0190610a1d90826111c8565b505060018054859250610a31908290611113565b81548110610a4157610a416110ce565b600091825260209182902083516005929092020180546001600160a01b0319166001600160a01b039092169190911781559101516001918201558054839190610a8b908290611113565b81548110610a9b57610a9b6110ce565b60009182526020918290208351600592909202016002810180546001600160a01b0319166001600160a01b039093169290921790915591015160039091015560018054610ae9908290611113565b81548110610af957610af96110ce565b600091825260209091206003600590920201015460018054610b1c908290611113565b81548110610b2c57610b2c6110ce565b90600052602060002090600502016000016001015403610bf157604080518082019091526004815263151a595960e21b602082015260018054610b70908290611113565b81548110610b8057610b806110ce565b90600052602060002090600502016004019081610b9d91906111c8565b507fcde5c32c0a45fd8aa4b65ea8003fc9da9acd5e2c6c24a9fcce6ab79cabbd9122604051610be490602080825260049082015263151a595960e21b604082015260600190565b60405180910390a1505050565b60018054610c00908290611113565b81548110610c1057610c106110ce565b9060005260206000209060050201600001600101546001148015610c67575060018054610c3e908290611113565b81548110610c4e57610c4e6110ce565b9060005260206000209060050201600201600101546002145b80610ce3575060018054610c7c908290611113565b81548110610c8c57610c8c6110ce565b9060005260206000209060050201600001600101546003148015610ce3575060018054610cba908290611113565b81548110610cca57610cca6110ce565b9060005260206000209060050201600201600101546001145b80610d5f575060018054610cf8908290611113565b81548110610d0857610d086110ce565b9060005260206000209060050201600001600101546002148015610d5f575060018054610d36908290611113565b81548110610d4657610d466110ce565b9060005260206000209060050201600201600101546003145b15610e0c576040805180820190915260098152682ab9b2b919103bb4b760b91b602082015260018054610d93908290611113565b81548110610da357610da36110ce565b90600052602060002090600502016004019081610dc091906111c8565b507fcde5c32c0a45fd8aa4b65ea8003fc9da9acd5e2c6c24a9fcce6ab79cabbd9122604051610be4906020808252600990820152682ab9b2b919103bb4b760b91b604082015260600190565b6040805180820190915260098152682ab9b2b918903bb4b760b91b602082015260018054610e3b908290611113565b81548110610e4b57610e4b6110ce565b90600052602060002090600502016004019081610e6891906111c8565b507fcde5c32c0a45fd8aa4b65ea8003fc9da9acd5e2c6c24a9fcce6ab79cabbd9122604051610be4906020808252600990820152682ab9b2b918903bb4b760b91b604082015260600190565b505050565b6040805160a08101909152600060608201818152608083019190915281908152602001610ef6604080518082019091526000808252602082015290565b8152602001606081525090565b610f2182825180516001600160a01b03168252602090810151910152565b6000602080830151610f49604086018280516001600160a01b03168252602090810151910152565b50604083015160a0608086015280518060a087015260005b81811015610f7d5782810184015187820160c001528301610f61565b50600060c0828801015260c0601f19601f830116870101935050505092915050565b6000602080830181845280855180835260408601915060408160051b870101925083870160005b82811015610ff457603f19888603018452610fe2858351610f03565b94509285019290850190600101610fc6565b5092979650505050505050565b60006020828403121561101357600080fd5b5035919050565b602080825282518282018190526000919060409081850190868401855b8281101561106d5761105d84835180516001600160a01b03168252602090810151910152565b9284019290850190600101611037565b5091979650505050505050565b60208152600061108d6020830184610f03565b9392505050565b600181811c908216806110a857607f821691505b6020821081036110c857634e487b7160e01b600052602260045260246000fd5b50919050565b634e487b7160e01b600052603260045260246000fd5b634e487b7160e01b600052601160045260246000fd5b60006001820161110c5761110c6110e4565b5060010190565b81810381811115611126576111266110e4565b92915050565b60008261114957634e487b7160e01b600052601260045260246000fd5b500690565b634e487b7160e01b600052603160045260246000fd5b634e487b7160e01b600052604160045260246000fd5b601f821115610eb457600081815260208120601f850160051c810160208610156111a15750805b601f850160051c820191505b818110156111c0578281556001016111ad565b505050505050565b815167ffffffffffffffff8111156111e2576111e2611164565b6111f6816111f08454611094565b8461117a565b602080601f83116001811461122b57600084156112135750858301515b600019600386901b1c1916600185901b1785556111c0565b600085815260208120601f198616915b8281101561125a5788860151825594840194600190910190840161123b565b50858210156112785787850151600019600388901b60f8161c191681555b5050505050600190811b0190555056fea26469706673582212202b346951e6ed421cff9f24bb8796fb10ade143b4829fefb242449d42a706ba3764736f6c63430008130033",
					"opcodes": "PUSH1 0x80 PUSH1 0x40 MSTORE PUSH1 0x0 DUP1 SSTORE PUSH1 0x1 PUSH1 0x3 SSTORE CALLVALUE DUP1 ISZERO PUSH2 0x19 JUMPI PUSH1 0x0 DUP1 REVERT JUMPDEST POP PUSH2 0x12BE DUP1 PUSH2 0x29 PUSH1 0x0 CODECOPY PUSH1 0x0 RETURN INVALID PUSH1 0x80 PUSH1 0x40 MSTORE CALLVALUE DUP1 ISZERO PUSH2 0x10 JUMPI PUSH1 0x0 DUP1 REVERT JUMPDEST POP PUSH1 0x4 CALLDATASIZE LT PUSH2 0x4C JUMPI PUSH1 0x0 CALLDATALOAD PUSH1 0xE0 SHR DUP1 PUSH4 0x512EC557 EQ PUSH2 0x51 JUMPI DUP1 PUSH4 0xADF496B5 EQ PUSH2 0x6F JUMPI DUP1 PUSH4 0xE16C9D59 EQ PUSH2 0x84 JUMPI DUP1 PUSH4 0xF7C4EFBB EQ PUSH2 0x99 JUMPI JUMPDEST PUSH1 0x0 DUP1 REVERT JUMPDEST PUSH2 0x59 PUSH2 0xB9 JUMP JUMPDEST PUSH1 0x40 MLOAD PUSH2 0x66 SWAP2 SWAP1 PUSH2 0xF9F JUMP JUMPDEST PUSH1 0x40 MLOAD DUP1 SWAP2 SUB SWAP1 RETURN JUMPDEST PUSH2 0x82 PUSH2 0x7D CALLDATASIZE PUSH1 0x4 PUSH2 0x1001 JUMP JUMPDEST PUSH2 0x1F2 JUMP JUMPDEST STOP JUMPDEST PUSH2 0x8C PUSH2 0x515 JUMP JUMPDEST PUSH1 0x40 MLOAD PUSH2 0x66 SWAP2 SWAP1 PUSH2 0x101A JUMP JUMPDEST PUSH2 0xAC PUSH2 0xA7 CALLDATASIZE PUSH1 0x4 PUSH2 0x1001 JUMP JUMPDEST PUSH2 0x581 JUMP JUMPDEST PUSH1 0x40 MLOAD PUSH2 0x66 SWAP2 SWAP1 PUSH2 0x107A JUMP JUMPDEST PUSH1 0x60 PUSH1 0x1 DUP1 SLOAD DUP1 PUSH1 0x20 MUL PUSH1 0x20 ADD PUSH1 0x40 MLOAD SWAP1 DUP2 ADD PUSH1 0x40 MSTORE DUP1 SWAP3 SWAP2 SWAP1 DUP2 DUP2 MSTORE PUSH1 0x20 ADD PUSH1 0x0 SWAP1 JUMPDEST DUP3 DUP3 LT ISZERO PUSH2 0x1E9 JUMPI PUSH1 0x0 DUP5 DUP2 MSTORE PUSH1 0x20 SWAP1 DUP2 SWAP1 KECCAK256 PUSH1 0x40 DUP1 MLOAD PUSH1 0xA0 DUP2 ADD DUP3 MSTORE PUSH1 0x5 DUP7 MUL SWAP1 SWAP3 ADD DUP1 SLOAD PUSH1 0x1 PUSH1 0x1 PUSH1 0xA0 SHL SUB SWAP1 DUP2 AND PUSH1 0x60 DUP6 ADD SWAP1 DUP2 MSTORE PUSH1 0x1 DUP4 ADD SLOAD PUSH1 0x80 DUP7 ADD MSTORE DUP5 MSTORE DUP3 MLOAD DUP1 DUP5 ADD DUP5 MSTORE PUSH1 0x2 DUP4 ADD SLOAD SWAP1 SWAP2 AND DUP2 MSTORE PUSH1 0x3 DUP3 ADD SLOAD DUP2 DUP7 ADD MSTORE SWAP4 DUP4 ADD SWAP4 SWAP1 SWAP4 MSTORE PUSH1 0x4 DUP4 ADD DUP1 SLOAD SWAP3 SWAP4 SWAP3 SWAP2 DUP5 ADD SWAP2 PUSH2 0x158 SWAP1 PUSH2 0x1094 JUMP JUMPDEST DUP1 PUSH1 0x1F ADD PUSH1 0x20 DUP1 SWAP2 DIV MUL PUSH1 0x20 ADD PUSH1 0x40 MLOAD SWAP1 DUP2 ADD PUSH1 0x40 MSTORE DUP1 SWAP3 SWAP2 SWAP1 DUP2 DUP2 MSTORE PUSH1 0x20 ADD DUP3 DUP1 SLOAD PUSH2 0x184 SWAP1 PUSH2 0x1094 JUMP JUMPDEST DUP1 ISZERO PUSH2 0x1D1 JUMPI DUP1 PUSH1 0x1F LT PUSH2 0x1A6 JUMPI PUSH2 0x100 DUP1 DUP4 SLOAD DIV MUL DUP4 MSTORE SWAP2 PUSH1 0x20 ADD SWAP2 PUSH2 0x1D1 JUMP JUMPDEST DUP3 ADD SWAP2 SWAP1 PUSH1 0x0 MSTORE PUSH1 0x20 PUSH1 0x0 KECCAK256 SWAP1 JUMPDEST DUP2 SLOAD DUP2 MSTORE SWAP1 PUSH1 0x1 ADD SWAP1 PUSH1 0x20 ADD DUP1 DUP4 GT PUSH2 0x1B4 JUMPI DUP3 SWAP1 SUB PUSH1 0x1F AND DUP3 ADD SWAP2 JUMPDEST POP POP POP POP POP DUP2 MSTORE POP POP DUP2 MSTORE PUSH1 0x20 ADD SWAP1 PUSH1 0x1 ADD SWAP1 PUSH2 0xDD JUMP JUMPDEST POP POP POP POP SWAP1 POP SWAP1 JUMP JUMPDEST PUSH1 0x2 SLOAD PUSH1 0xFF AND ISZERO PUSH2 0x242 JUMPI PUSH1 0x40 MLOAD PUSH3 0x461BCD PUSH1 0xE5 SHL DUP2 MSTORE PUSH1 0x20 PUSH1 0x4 DUP3 ADD MSTORE PUSH1 0x15 PUSH1 0x24 DUP3 ADD MSTORE PUSH21 0x115C9C9BDC8E881499595B9D1C985B9D0818D85B1B PUSH1 0x5A SHL PUSH1 0x44 DUP3 ADD MSTORE PUSH1 0x64 ADD JUMPDEST PUSH1 0x40 MLOAD DUP1 SWAP2 SUB SWAP1 REVERT JUMPDEST PUSH1 0x2 DUP1 SLOAD PUSH1 0xFF NOT AND PUSH1 0x1 OR SWAP1 SSTORE PUSH1 0x40 MLOAD CALLER SWAP1 PUSH32 0x6FD5BEA3AD79492C3055C6F6B7B37CA66D63BA4CEEF7D04DD901559AFFBE971A SWAP1 PUSH1 0x0 SWAP1 LOG2 DUP1 PUSH1 0x0 SUB PUSH2 0x2C1 JUMPI PUSH1 0x40 MLOAD PUSH3 0x461BCD PUSH1 0xE5 SHL DUP2 MSTORE PUSH1 0x20 PUSH1 0x4 DUP3 ADD MSTORE PUSH1 0x14 PUSH1 0x24 DUP3 ADD MSTORE PUSH20 0x4572726F723A2043616E277420696E707574203 PUSH1 0x64 SHL PUSH1 0x44 DUP3 ADD MSTORE PUSH1 0x64 ADD PUSH2 0x239 JUMP JUMPDEST PUSH1 0x3 DUP2 GT ISZERO PUSH2 0x312 JUMPI PUSH1 0x40 MLOAD PUSH3 0x461BCD PUSH1 0xE5 SHL DUP2 MSTORE PUSH1 0x20 PUSH1 0x4 DUP3 ADD MSTORE PUSH1 0x1E PUSH1 0x24 DUP3 ADD MSTORE PUSH32 0x4572726F723A2043616E277420696E707574206D6F7265207468616E20330000 PUSH1 0x44 DUP3 ADD MSTORE PUSH1 0x64 ADD PUSH2 0x239 JUMP JUMPDEST PUSH1 0x0 DUP1 JUMPDEST PUSH1 0x4 SLOAD DUP2 LT ISZERO PUSH2 0x3D7 JUMPI PUSH1 0x4 DUP2 DUP2 SLOAD DUP2 LT PUSH2 0x333 JUMPI PUSH2 0x333 PUSH2 0x10CE JUMP JUMPDEST PUSH1 0x0 SWAP2 DUP3 MSTORE PUSH1 0x20 SWAP1 SWAP2 KECCAK256 PUSH1 0x2 SWAP1 SWAP2 MUL ADD SLOAD PUSH1 0x1 PUSH1 0x1 PUSH1 0xA0 SHL SUB AND CALLER SUB PUSH2 0x3C5 JUMPI PUSH1 0x40 MLOAD PUSH3 0x461BCD PUSH1 0xE5 SHL DUP2 MSTORE PUSH1 0x20 PUSH1 0x4 DUP3 ADD MSTORE PUSH1 0x39 PUSH1 0x24 DUP3 ADD MSTORE PUSH32 0x4572726F723A20596F7520616C726561647920696E207468652071756575652C PUSH1 0x44 DUP3 ADD MSTORE PUSH32 0x207761697420666F72206F7468657220706C6179206A6F696E00000000000000 PUSH1 0x64 DUP3 ADD MSTORE PUSH1 0x1 SWAP3 POP PUSH1 0x84 ADD PUSH2 0x239 JUMP JUMPDEST DUP1 PUSH2 0x3CF DUP2 PUSH2 0x10FA JUMP JUMPDEST SWAP2 POP POP PUSH2 0x316 JUMP JUMPDEST POP PUSH1 0x40 DUP1 MLOAD DUP1 DUP3 ADD SWAP1 SWAP2 MSTORE PUSH1 0x0 DUP1 DUP3 MSTORE PUSH1 0x20 DUP3 ADD MSTORE PUSH1 0x4 DUP1 SLOAD PUSH1 0x1 DUP1 DUP3 ADD DUP4 SSTORE PUSH1 0x0 DUP4 SWAP1 MSTORE DUP4 MLOAD PUSH32 0x8A35ACFBC15FF81A39AE7D344FD709F28E8600B4AA8C65C6B64BFE7FE36BD19B PUSH1 0x2 SWAP1 SWAP4 MUL SWAP3 DUP4 ADD DUP1 SLOAD PUSH1 0x1 PUSH1 0x1 PUSH1 0xA0 SHL SUB NOT AND PUSH1 0x1 PUSH1 0x1 PUSH1 0xA0 SHL SUB SWAP1 SWAP3 AND SWAP2 SWAP1 SWAP2 OR SWAP1 SSTORE PUSH1 0x20 DUP5 ADD MLOAD PUSH32 0x8A35ACFBC15FF81A39AE7D344FD709F28E8600B4AA8C65C6B64BFE7FE36BD19C SWAP1 SWAP3 ADD SWAP2 SWAP1 SWAP2 SSTORE DUP2 SLOAD CALLER SWAP3 SWAP2 PUSH2 0x47F SWAP2 PUSH2 0x1113 JUMP JUMPDEST DUP2 SLOAD DUP2 LT PUSH2 0x48F JUMPI PUSH2 0x48F PUSH2 0x10CE JUMP JUMPDEST PUSH1 0x0 SWAP2 DUP3 MSTORE PUSH1 0x20 SWAP1 SWAP2 KECCAK256 PUSH1 0x2 SWAP1 SWAP2 MUL ADD DUP1 SLOAD PUSH1 0x1 PUSH1 0x1 PUSH1 0xA0 SHL SUB NOT AND PUSH1 0x1 PUSH1 0x1 PUSH1 0xA0 SHL SUB SWAP3 SWAP1 SWAP3 AND SWAP2 SWAP1 SWAP2 OR SWAP1 SSTORE PUSH1 0x4 DUP1 SLOAD DUP5 SWAP2 SWAP1 PUSH2 0x4D0 SWAP1 PUSH1 0x1 SWAP1 PUSH2 0x1113 JUMP JUMPDEST DUP2 SLOAD DUP2 LT PUSH2 0x4E0 JUMPI PUSH2 0x4E0 PUSH2 0x10CE JUMP JUMPDEST PUSH1 0x0 SWAP2 DUP3 MSTORE PUSH1 0x20 SWAP1 SWAP2 KECCAK256 PUSH1 0x1 PUSH1 0x2 SWAP1 SWAP3 MUL ADD ADD SSTORE PUSH1 0x4 SLOAD PUSH1 0x6 SUB PUSH2 0x506 JUMPI PUSH2 0x506 PUSH2 0x6E3 JUMP JUMPDEST POP POP PUSH1 0x2 DUP1 SLOAD PUSH1 0xFF NOT AND SWAP1 SSTORE POP JUMP JUMPDEST PUSH1 0x60 PUSH1 0x4 DUP1 SLOAD DUP1 PUSH1 0x20 MUL PUSH1 0x20 ADD PUSH1 0x40 MLOAD SWAP1 DUP2 ADD PUSH1 0x40 MSTORE DUP1 SWAP3 SWAP2 SWAP1 DUP2 DUP2 MSTORE PUSH1 0x20 ADD PUSH1 0x0 SWAP1 JUMPDEST DUP3 DUP3 LT ISZERO PUSH2 0x1E9 JUMPI PUSH1 0x0 DUP5 DUP2 MSTORE PUSH1 0x20 SWAP1 DUP2 SWAP1 KECCAK256 PUSH1 0x40 DUP1 MLOAD DUP1 DUP3 ADD SWAP1 SWAP2 MSTORE PUSH1 0x2 DUP6 MUL SWAP1 SWAP2 ADD DUP1 SLOAD PUSH1 0x1 PUSH1 0x1 PUSH1 0xA0 SHL SUB AND DUP3 MSTORE PUSH1 0x1 SWAP1 DUP2 ADD SLOAD DUP3 DUP5 ADD MSTORE SWAP1 DUP4 MSTORE SWAP1 SWAP3 ADD SWAP2 ADD PUSH2 0x539 JUMP JUMPDEST PUSH2 0x589 PUSH2 0xEB9 JUMP JUMPDEST PUSH1 0x1 SLOAD DUP3 GT ISZERO PUSH2 0x5D3 JUMPI PUSH1 0x40 MLOAD PUSH3 0x461BCD PUSH1 0xE5 SHL DUP2 MSTORE PUSH1 0x20 PUSH1 0x4 DUP3 ADD MSTORE PUSH1 0x15 PUSH1 0x24 DUP3 ADD MSTORE PUSH21 0x8AE4E4DEE4744092DCECC2D8D2C840D8CADCCEE8D PUSH1 0x5B SHL PUSH1 0x44 DUP3 ADD MSTORE PUSH1 0x64 ADD PUSH2 0x239 JUMP JUMPDEST PUSH1 0x1 DUP3 DUP2 SLOAD DUP2 LT PUSH2 0x5E6 JUMPI PUSH2 0x5E6 PUSH2 0x10CE JUMP JUMPDEST PUSH1 0x0 SWAP2 DUP3 MSTORE PUSH1 0x20 SWAP2 DUP3 SWAP1 KECCAK256 PUSH1 0x40 DUP1 MLOAD PUSH1 0xA0 DUP2 ADD DUP3 MSTORE PUSH1 0x5 SWAP1 SWAP4 MUL SWAP1 SWAP2 ADD DUP1 SLOAD PUSH1 0x1 PUSH1 0x1 PUSH1 0xA0 SHL SUB SWAP1 DUP2 AND PUSH1 0x60 DUP6 ADD SWAP1 DUP2 MSTORE PUSH1 0x1 DUP4 ADD SLOAD PUSH1 0x80 DUP7 ADD MSTORE DUP5 MSTORE DUP3 MLOAD DUP1 DUP5 ADD DUP5 MSTORE PUSH1 0x2 DUP4 ADD SLOAD SWAP1 SWAP2 AND DUP2 MSTORE PUSH1 0x3 DUP3 ADD SLOAD DUP2 DUP7 ADD MSTORE SWAP4 DUP4 ADD SWAP4 SWAP1 SWAP4 MSTORE PUSH1 0x4 DUP4 ADD DUP1 SLOAD SWAP3 SWAP4 SWAP3 SWAP2 DUP5 ADD SWAP2 PUSH2 0x65A SWAP1 PUSH2 0x1094 JUMP JUMPDEST DUP1 PUSH1 0x1F ADD PUSH1 0x20 DUP1 SWAP2 DIV MUL PUSH1 0x20 ADD PUSH1 0x40 MLOAD SWAP1 DUP2 ADD PUSH1 0x40 MSTORE DUP1 SWAP3 SWAP2 SWAP1 DUP2 DUP2 MSTORE PUSH1 0x20 ADD DUP3 DUP1 SLOAD PUSH2 0x686 SWAP1 PUSH2 0x1094 JUMP JUMPDEST DUP1 ISZERO PUSH2 0x6D3 JUMPI DUP1 PUSH1 0x1F LT PUSH2 0x6A8 JUMPI PUSH2 0x100 DUP1 DUP4 SLOAD DIV MUL DUP4 MSTORE SWAP2 PUSH1 0x20 ADD SWAP2 PUSH2 0x6D3 JUMP JUMPDEST DUP3 ADD SWAP2 SWAP1 PUSH1 0x0 MSTORE PUSH1 0x20 PUSH1 0x0 KECCAK256 SWAP1 JUMPDEST DUP2 SLOAD DUP2 MSTORE SWAP1 PUSH1 0x1 ADD SWAP1 PUSH1 0x20 ADD DUP1 DUP4 GT PUSH2 0x6B6 JUMPI DUP3 SWAP1 SUB PUSH1 0x1F AND DUP3 ADD SWAP2 JUMPDEST POP POP POP POP POP DUP2 MSTORE POP POP SWAP1 POP SWAP2 SWAP1 POP JUMP JUMPDEST PUSH1 0x0 PUSH2 0x6ED PUSH2 0x749 JUMP JUMPDEST SWAP1 POP PUSH1 0x0 PUSH2 0x6F9 PUSH2 0x749 JUMP JUMPDEST SWAP1 POP PUSH2 0x705 DUP3 DUP3 PUSH2 0x902 JUMP JUMPDEST POP POP PUSH1 0x4 SLOAD PUSH1 0x0 SUB PUSH2 0x6E3 JUMPI PUSH1 0x4 SLOAD PUSH1 0x40 MLOAD SWAP1 DUP2 MSTORE PUSH32 0x1F237084C29A99316238004A5870904571DBC9FF0D357B8B85CCEACB5512A850 SWAP1 PUSH1 0x20 ADD PUSH1 0x40 MLOAD DUP1 SWAP2 SUB SWAP1 LOG1 JUMP JUMPDEST PUSH1 0x40 DUP1 MLOAD DUP1 DUP3 ADD SWAP1 SWAP2 MSTORE PUSH1 0x0 DUP1 DUP3 MSTORE PUSH1 0x20 DUP3 ADD MSTORE PUSH1 0x4 SLOAD PUSH2 0x79D JUMPI PUSH1 0x40 MLOAD PUSH3 0x461BCD PUSH1 0xE5 SHL DUP2 MSTORE PUSH1 0x20 PUSH1 0x4 DUP3 ADD MSTORE PUSH1 0xE PUSH1 0x24 DUP3 ADD MSTORE PUSH14 0x417272617920697320656D707479 PUSH1 0x90 SHL PUSH1 0x44 DUP3 ADD MSTORE PUSH1 0x64 ADD PUSH2 0x239 JUMP JUMPDEST PUSH1 0x4 SLOAD PUSH1 0x3 SLOAD PUSH1 0x40 DUP1 MLOAD PREVRANDAO PUSH1 0x20 DUP3 ADD MSTORE TIMESTAMP SWAP2 DUP2 ADD SWAP2 SWAP1 SWAP2 MSTORE PUSH1 0x60 DUP2 ADD SWAP2 SWAP1 SWAP2 MSTORE PUSH1 0x0 SWAP2 SWAP1 PUSH1 0x80 ADD PUSH1 0x40 MLOAD PUSH1 0x20 DUP2 DUP4 SUB SUB DUP2 MSTORE SWAP1 PUSH1 0x40 MSTORE DUP1 MLOAD SWAP1 PUSH1 0x20 ADD KECCAK256 PUSH1 0x0 SHR PUSH2 0x7E7 SWAP2 SWAP1 PUSH2 0x112C JUMP JUMPDEST PUSH1 0x3 DUP1 SLOAD SWAP2 SWAP3 POP PUSH1 0x0 PUSH2 0x7F9 DUP4 PUSH2 0x10FA JUMP JUMPDEST SWAP2 SWAP1 POP SSTORE POP PUSH1 0x0 PUSH1 0x4 DUP3 DUP2 SLOAD DUP2 LT PUSH2 0x813 JUMPI PUSH2 0x813 PUSH2 0x10CE JUMP JUMPDEST PUSH1 0x0 SWAP2 DUP3 MSTORE PUSH1 0x20 SWAP2 DUP3 SWAP1 KECCAK256 PUSH1 0x40 DUP1 MLOAD DUP1 DUP3 ADD SWAP1 SWAP2 MSTORE PUSH1 0x2 SWAP1 SWAP3 MUL ADD DUP1 SLOAD PUSH1 0x1 PUSH1 0x1 PUSH1 0xA0 SHL SUB AND DUP3 MSTORE PUSH1 0x1 SWAP1 DUP2 ADD SLOAD SWAP3 DUP3 ADD SWAP3 SWAP1 SWAP3 MSTORE PUSH1 0x4 DUP1 SLOAD SWAP2 SWAP4 POP SWAP2 PUSH2 0x859 SWAP2 PUSH2 0x1113 JUMP JUMPDEST DUP2 SLOAD DUP2 LT PUSH2 0x869 JUMPI PUSH2 0x869 PUSH2 0x10CE JUMP JUMPDEST SWAP1 PUSH1 0x0 MSTORE PUSH1 0x20 PUSH1 0x0 KECCAK256 SWAP1 PUSH1 0x2 MUL ADD PUSH1 0x4 DUP4 DUP2 SLOAD DUP2 LT PUSH2 0x88A JUMPI PUSH2 0x88A PUSH2 0x10CE JUMP JUMPDEST PUSH1 0x0 SWAP2 DUP3 MSTORE PUSH1 0x20 SWAP1 SWAP2 KECCAK256 DUP3 SLOAD PUSH1 0x2 SWAP1 SWAP3 MUL ADD DUP1 SLOAD PUSH1 0x1 PUSH1 0x1 PUSH1 0xA0 SHL SUB NOT AND PUSH1 0x1 PUSH1 0x1 PUSH1 0xA0 SHL SUB SWAP1 SWAP3 AND SWAP2 SWAP1 SWAP2 OR DUP2 SSTORE PUSH1 0x1 SWAP2 DUP3 ADD SLOAD SWAP2 ADD SSTORE PUSH1 0x4 DUP1 SLOAD DUP1 PUSH2 0x8D3 JUMPI PUSH2 0x8D3 PUSH2 0x114E JUMP JUMPDEST PUSH1 0x0 DUP3 DUP2 MSTORE PUSH1 0x20 DUP2 KECCAK256 PUSH1 0x2 PUSH1 0x0 NOT SWAP1 SWAP4 ADD SWAP3 DUP4 MUL ADD DUP1 SLOAD PUSH1 0x1 PUSH1 0x1 PUSH1 0xA0 SHL SUB NOT AND DUP2 SSTORE PUSH1 0x1 ADD SSTORE SWAP1 SSTORE SWAP3 SWAP2 POP POP JUMP JUMPDEST PUSH2 0x90A PUSH2 0xEB9 JUMP JUMPDEST PUSH1 0x1 DUP1 SLOAD DUP1 DUP3 ADD DUP3 SSTORE PUSH1 0x0 SWAP2 SWAP1 SWAP2 MSTORE DUP2 MLOAD DUP1 MLOAD PUSH32 0xB10E2D527612073B26EECDFD717E6A320CF44B4AFAC2B0732D9FCBE2B7FA0CF6 PUSH1 0x5 SWAP1 SWAP4 MUL SWAP3 DUP4 ADD DUP1 SLOAD PUSH1 0x1 PUSH1 0x1 PUSH1 0xA0 SHL SUB NOT SWAP1 DUP2 AND PUSH1 0x1 PUSH1 0x1 PUSH1 0xA0 SHL SUB SWAP4 DUP5 AND OR DUP3 SSTORE PUSH1 0x20 SWAP4 DUP5 ADD MLOAD PUSH32 0xB10E2D527612073B26EECDFD717E6A320CF44B4AFAC2B0732D9FCBE2B7FA0CF7 DUP7 ADD SSTORE DUP4 DUP7 ADD MLOAD DUP1 MLOAD PUSH32 0xB10E2D527612073B26EECDFD717E6A320CF44B4AFAC2B0732D9FCBE2B7FA0CF8 DUP8 ADD DUP1 SLOAD SWAP1 SWAP4 AND SWAP5 AND SWAP4 SWAP1 SWAP4 OR SWAP1 SSTORE SWAP2 ADD MLOAD PUSH32 0xB10E2D527612073B26EECDFD717E6A320CF44B4AFAC2B0732D9FCBE2B7FA0CF9 DUP4 ADD SSTORE PUSH1 0x40 DUP4 ADD MLOAD DUP4 SWAP3 PUSH32 0xB10E2D527612073B26EECDFD717E6A320CF44B4AFAC2B0732D9FCBE2B7FA0CFA ADD SWAP1 PUSH2 0xA1D SWAP1 DUP3 PUSH2 0x11C8 JUMP JUMPDEST POP POP PUSH1 0x1 DUP1 SLOAD DUP6 SWAP3 POP PUSH2 0xA31 SWAP1 DUP3 SWAP1 PUSH2 0x1113 JUMP JUMPDEST DUP2 SLOAD DUP2 LT PUSH2 0xA41 JUMPI PUSH2 0xA41 PUSH2 0x10CE JUMP JUMPDEST PUSH1 0x0 SWAP2 DUP3 MSTORE PUSH1 0x20 SWAP2 DUP3 SWAP1 KECCAK256 DUP4 MLOAD PUSH1 0x5 SWAP3 SWAP1 SWAP3 MUL ADD DUP1 SLOAD PUSH1 0x1 PUSH1 0x1 PUSH1 0xA0 SHL SUB NOT AND PUSH1 0x1 PUSH1 0x1 PUSH1 0xA0 SHL SUB SWAP1 SWAP3 AND SWAP2 SWAP1 SWAP2 OR DUP2 SSTORE SWAP2 ADD MLOAD PUSH1 0x1 SWAP2 DUP3 ADD SSTORE DUP1 SLOAD DUP4 SWAP2 SWAP1 PUSH2 0xA8B SWAP1 DUP3 SWAP1 PUSH2 0x1113 JUMP JUMPDEST DUP2 SLOAD DUP2 LT PUSH2 0xA9B JUMPI PUSH2 0xA9B PUSH2 0x10CE JUMP JUMPDEST PUSH1 0x0 SWAP2 DUP3 MSTORE PUSH1 0x20 SWAP2 DUP3 SWAP1 KECCAK256 DUP4 MLOAD PUSH1 0x5 SWAP3 SWAP1 SWAP3 MUL ADD PUSH1 0x2 DUP2 ADD DUP1 SLOAD PUSH1 0x1 PUSH1 0x1 PUSH1 0xA0 SHL SUB NOT AND PUSH1 0x1 PUSH1 0x1 PUSH1 0xA0 SHL SUB SWAP1 SWAP4 AND SWAP3 SWAP1 SWAP3 OR SWAP1 SWAP2 SSTORE SWAP2 ADD MLOAD PUSH1 0x3 SWAP1 SWAP2 ADD SSTORE PUSH1 0x1 DUP1 SLOAD PUSH2 0xAE9 SWAP1 DUP3 SWAP1 PUSH2 0x1113 JUMP JUMPDEST DUP2 SLOAD DUP2 LT PUSH2 0xAF9 JUMPI PUSH2 0xAF9 PUSH2 0x10CE JUMP JUMPDEST PUSH1 0x0 SWAP2 DUP3 MSTORE PUSH1 0x20 SWAP1 SWAP2 KECCAK256 PUSH1 0x3 PUSH1 0x5 SWAP1 SWAP3 MUL ADD ADD SLOAD PUSH1 0x1 DUP1 SLOAD PUSH2 0xB1C SWAP1 DUP3 SWAP1 PUSH2 0x1113 JUMP JUMPDEST DUP2 SLOAD DUP2 LT PUSH2 0xB2C JUMPI PUSH2 0xB2C PUSH2 0x10CE JUMP JUMPDEST SWAP1 PUSH1 0x0 MSTORE PUSH1 0x20 PUSH1 0x0 KECCAK256 SWAP1 PUSH1 0x5 MUL ADD PUSH1 0x0 ADD PUSH1 0x1 ADD SLOAD SUB PUSH2 0xBF1 JUMPI PUSH1 0x40 DUP1 MLOAD DUP1 DUP3 ADD SWAP1 SWAP2 MSTORE PUSH1 0x4 DUP2 MSTORE PUSH4 0x151A5959 PUSH1 0xE2 SHL PUSH1 0x20 DUP3 ADD MSTORE PUSH1 0x1 DUP1 SLOAD PUSH2 0xB70 SWAP1 DUP3 SWAP1 PUSH2 0x1113 JUMP JUMPDEST DUP2 SLOAD DUP2 LT PUSH2 0xB80 JUMPI PUSH2 0xB80 PUSH2 0x10CE JUMP JUMPDEST SWAP1 PUSH1 0x0 MSTORE PUSH1 0x20 PUSH1 0x0 KECCAK256 SWAP1 PUSH1 0x5 MUL ADD PUSH1 0x4 ADD SWAP1 DUP2 PUSH2 0xB9D SWAP2 SWAP1 PUSH2 0x11C8 JUMP JUMPDEST POP PUSH32 0xCDE5C32C0A45FD8AA4B65EA8003FC9DA9ACD5E2C6C24A9FCCE6AB79CABBD9122 PUSH1 0x40 MLOAD PUSH2 0xBE4 SWAP1 PUSH1 0x20 DUP1 DUP3 MSTORE PUSH1 0x4 SWAP1 DUP3 ADD MSTORE PUSH4 0x151A5959 PUSH1 0xE2 SHL PUSH1 0x40 DUP3 ADD MSTORE PUSH1 0x60 ADD SWAP1 JUMP JUMPDEST PUSH1 0x40 MLOAD DUP1 SWAP2 SUB SWAP1 LOG1 POP POP POP JUMP JUMPDEST PUSH1 0x1 DUP1 SLOAD PUSH2 0xC00 SWAP1 DUP3 SWAP1 PUSH2 0x1113 JUMP JUMPDEST DUP2 SLOAD DUP2 LT PUSH2 0xC10 JUMPI PUSH2 0xC10 PUSH2 0x10CE JUMP JUMPDEST SWAP1 PUSH1 0x0 MSTORE PUSH1 0x20 PUSH1 0x0 KECCAK256 SWAP1 PUSH1 0x5 MUL ADD PUSH1 0x0 ADD PUSH1 0x1 ADD SLOAD PUSH1 0x1 EQ DUP1 ISZERO PUSH2 0xC67 JUMPI POP PUSH1 0x1 DUP1 SLOAD PUSH2 0xC3E SWAP1 DUP3 SWAP1 PUSH2 0x1113 JUMP JUMPDEST DUP2 SLOAD DUP2 LT PUSH2 0xC4E JUMPI PUSH2 0xC4E PUSH2 0x10CE JUMP JUMPDEST SWAP1 PUSH1 0x0 MSTORE PUSH1 0x20 PUSH1 0x0 KECCAK256 SWAP1 PUSH1 0x5 MUL ADD PUSH1 0x2 ADD PUSH1 0x1 ADD SLOAD PUSH1 0x2 EQ JUMPDEST DUP1 PUSH2 0xCE3 JUMPI POP PUSH1 0x1 DUP1 SLOAD PUSH2 0xC7C SWAP1 DUP3 SWAP1 PUSH2 0x1113 JUMP JUMPDEST DUP2 SLOAD DUP2 LT PUSH2 0xC8C JUMPI PUSH2 0xC8C PUSH2 0x10CE JUMP JUMPDEST SWAP1 PUSH1 0x0 MSTORE PUSH1 0x20 PUSH1 0x0 KECCAK256 SWAP1 PUSH1 0x5 MUL ADD PUSH1 0x0 ADD PUSH1 0x1 ADD SLOAD PUSH1 0x3 EQ DUP1 ISZERO PUSH2 0xCE3 JUMPI POP PUSH1 0x1 DUP1 SLOAD PUSH2 0xCBA SWAP1 DUP3 SWAP1 PUSH2 0x1113 JUMP JUMPDEST DUP2 SLOAD DUP2 LT PUSH2 0xCCA JUMPI PUSH2 0xCCA PUSH2 0x10CE JUMP JUMPDEST SWAP1 PUSH1 0x0 MSTORE PUSH1 0x20 PUSH1 0x0 KECCAK256 SWAP1 PUSH1 0x5 MUL ADD PUSH1 0x2 ADD PUSH1 0x1 ADD SLOAD PUSH1 0x1 EQ JUMPDEST DUP1 PUSH2 0xD5F JUMPI POP PUSH1 0x1 DUP1 SLOAD PUSH2 0xCF8 SWAP1 DUP3 SWAP1 PUSH2 0x1113 JUMP JUMPDEST DUP2 SLOAD DUP2 LT PUSH2 0xD08 JUMPI PUSH2 0xD08 PUSH2 0x10CE JUMP JUMPDEST SWAP1 PUSH1 0x0 MSTORE PUSH1 0x20 PUSH1 0x0 KECCAK256 SWAP1 PUSH1 0x5 MUL ADD PUSH1 0x0 ADD PUSH1 0x1 ADD SLOAD PUSH1 0x2 EQ DUP1 ISZERO PUSH2 0xD5F JUMPI POP PUSH1 0x1 DUP1 SLOAD PUSH2 0xD36 SWAP1 DUP3 SWAP1 PUSH2 0x1113 JUMP JUMPDEST DUP2 SLOAD DUP2 LT PUSH2 0xD46 JUMPI PUSH2 0xD46 PUSH2 0x10CE JUMP JUMPDEST SWAP1 PUSH1 0x0 MSTORE PUSH1 0x20 PUSH1 0x0 KECCAK256 SWAP1 PUSH1 0x5 MUL ADD PUSH1 0x2 ADD PUSH1 0x1 ADD SLOAD PUSH1 0x3 EQ JUMPDEST ISZERO PUSH2 0xE0C JUMPI PUSH1 0x40 DUP1 MLOAD DUP1 DUP3 ADD SWAP1 SWAP2 MSTORE PUSH1 0x9 DUP2 MSTORE PUSH9 0x2AB9B2B919103BB4B7 PUSH1 0xB9 SHL PUSH1 0x20 DUP3 ADD MSTORE PUSH1 0x1 DUP1 SLOAD PUSH2 0xD93 SWAP1 DUP3 SWAP1 PUSH2 0x1113 JUMP JUMPDEST DUP2 SLOAD DUP2 LT PUSH2 0xDA3 JUMPI PUSH2 0xDA3 PUSH2 0x10CE JUMP JUMPDEST SWAP1 PUSH1 0x0 MSTORE PUSH1 0x20 PUSH1 0x0 KECCAK256 SWAP1 PUSH1 0x5 MUL ADD PUSH1 0x4 ADD SWAP1 DUP2 PUSH2 0xDC0 SWAP2 SWAP1 PUSH2 0x11C8 JUMP JUMPDEST POP PUSH32 0xCDE5C32C0A45FD8AA4B65EA8003FC9DA9ACD5E2C6C24A9FCCE6AB79CABBD9122 PUSH1 0x40 MLOAD PUSH2 0xBE4 SWAP1 PUSH1 0x20 DUP1 DUP3 MSTORE PUSH1 0x9 SWAP1 DUP3 ADD MSTORE PUSH9 0x2AB9B2B919103BB4B7 PUSH1 0xB9 SHL PUSH1 0x40 DUP3 ADD MSTORE PUSH1 0x60 ADD SWAP1 JUMP JUMPDEST PUSH1 0x40 DUP1 MLOAD DUP1 DUP3 ADD SWAP1 SWAP2 MSTORE PUSH1 0x9 DUP2 MSTORE PUSH9 0x2AB9B2B918903BB4B7 PUSH1 0xB9 SHL PUSH1 0x20 DUP3 ADD MSTORE PUSH1 0x1 DUP1 SLOAD PUSH2 0xE3B SWAP1 DUP3 SWAP1 PUSH2 0x1113 JUMP JUMPDEST DUP2 SLOAD DUP2 LT PUSH2 0xE4B JUMPI PUSH2 0xE4B PUSH2 0x10CE JUMP JUMPDEST SWAP1 PUSH1 0x0 MSTORE PUSH1 0x20 PUSH1 0x0 KECCAK256 SWAP1 PUSH1 0x5 MUL ADD PUSH1 0x4 ADD SWAP1 DUP2 PUSH2 0xE68 SWAP2 SWAP1 PUSH2 0x11C8 JUMP JUMPDEST POP PUSH32 0xCDE5C32C0A45FD8AA4B65EA8003FC9DA9ACD5E2C6C24A9FCCE6AB79CABBD9122 PUSH1 0x40 MLOAD PUSH2 0xBE4 SWAP1 PUSH1 0x20 DUP1 DUP3 MSTORE PUSH1 0x9 SWAP1 DUP3 ADD MSTORE PUSH9 0x2AB9B2B918903BB4B7 PUSH1 0xB9 SHL PUSH1 0x40 DUP3 ADD MSTORE PUSH1 0x60 ADD SWAP1 JUMP JUMPDEST POP POP POP JUMP JUMPDEST PUSH1 0x40 DUP1 MLOAD PUSH1 0xA0 DUP2 ADD SWAP1 SWAP2 MSTORE PUSH1 0x0 PUSH1 0x60 DUP3 ADD DUP2 DUP2 MSTORE PUSH1 0x80 DUP4 ADD SWAP2 SWAP1 SWAP2 MSTORE DUP2 SWAP1 DUP2 MSTORE PUSH1 0x20 ADD PUSH2 0xEF6 PUSH1 0x40 DUP1 MLOAD DUP1 DUP3 ADD SWAP1 SWAP2 MSTORE PUSH1 0x0 DUP1 DUP3 MSTORE PUSH1 0x20 DUP3 ADD MSTORE SWAP1 JUMP JUMPDEST DUP2 MSTORE PUSH1 0x20 ADD PUSH1 0x60 DUP2 MSTORE POP SWAP1 JUMP JUMPDEST PUSH2 0xF21 DUP3 DUP3 MLOAD DUP1 MLOAD PUSH1 0x1 PUSH1 0x1 PUSH1 0xA0 SHL SUB AND DUP3 MSTORE PUSH1 0x20 SWAP1 DUP2 ADD MLOAD SWAP2 ADD MSTORE JUMP JUMPDEST PUSH1 0x0 PUSH1 0x20 DUP1 DUP4 ADD MLOAD PUSH2 0xF49 PUSH1 0x40 DUP7 ADD DUP3 DUP1 MLOAD PUSH1 0x1 PUSH1 0x1 PUSH1 0xA0 SHL SUB AND DUP3 MSTORE PUSH1 0x20 SWAP1 DUP2 ADD MLOAD SWAP2 ADD MSTORE JUMP JUMPDEST POP PUSH1 0x40 DUP4 ADD MLOAD PUSH1 0xA0 PUSH1 0x80 DUP7 ADD MSTORE DUP1 MLOAD DUP1 PUSH1 0xA0 DUP8 ADD MSTORE PUSH1 0x0 JUMPDEST DUP2 DUP2 LT ISZERO PUSH2 0xF7D JUMPI DUP3 DUP2 ADD DUP5 ADD MLOAD DUP8 DUP3 ADD PUSH1 0xC0 ADD MSTORE DUP4 ADD PUSH2 0xF61 JUMP JUMPDEST POP PUSH1 0x0 PUSH1 0xC0 DUP3 DUP9 ADD ADD MSTORE PUSH1 0xC0 PUSH1 0x1F NOT PUSH1 0x1F DUP4 ADD AND DUP8 ADD ADD SWAP4 POP POP POP POP SWAP3 SWAP2 POP POP JUMP JUMPDEST PUSH1 0x0 PUSH1 0x20 DUP1 DUP4 ADD DUP2 DUP5 MSTORE DUP1 DUP6 MLOAD DUP1 DUP4 MSTORE PUSH1 0x40 DUP7 ADD SWAP2 POP PUSH1 0x40 DUP2 PUSH1 0x5 SHL DUP8 ADD ADD SWAP3 POP DUP4 DUP8 ADD PUSH1 0x0 JUMPDEST DUP3 DUP2 LT ISZERO PUSH2 0xFF4 JUMPI PUSH1 0x3F NOT DUP9 DUP7 SUB ADD DUP5 MSTORE PUSH2 0xFE2 DUP6 DUP4 MLOAD PUSH2 0xF03 JUMP JUMPDEST SWAP5 POP SWAP3 DUP6 ADD SWAP3 SWAP1 DUP6 ADD SWAP1 PUSH1 0x1 ADD PUSH2 0xFC6 JUMP JUMPDEST POP SWAP3 SWAP8 SWAP7 POP POP POP POP POP POP POP JUMP JUMPDEST PUSH1 0x0 PUSH1 0x20 DUP3 DUP5 SUB SLT ISZERO PUSH2 0x1013 JUMPI PUSH1 0x0 DUP1 REVERT JUMPDEST POP CALLDATALOAD SWAP2 SWAP1 POP JUMP JUMPDEST PUSH1 0x20 DUP1 DUP3 MSTORE DUP3 MLOAD DUP3 DUP3 ADD DUP2 SWAP1 MSTORE PUSH1 0x0 SWAP2 SWAP1 PUSH1 0x40 SWAP1 DUP2 DUP6 ADD SWAP1 DUP7 DUP5 ADD DUP6 JUMPDEST DUP3 DUP2 LT ISZERO PUSH2 0x106D JUMPI PUSH2 0x105D DUP5 DUP4 MLOAD DUP1 MLOAD PUSH1 0x1 PUSH1 0x1 PUSH1 0xA0 SHL SUB AND DUP3 MSTORE PUSH1 0x20 SWAP1 DUP2 ADD MLOAD SWAP2 ADD MSTORE JUMP JUMPDEST SWAP3 DUP5 ADD SWAP3 SWAP1 DUP6 ADD SWAP1 PUSH1 0x1 ADD PUSH2 0x1037 JUMP JUMPDEST POP SWAP2 SWAP8 SWAP7 POP POP POP POP POP POP POP JUMP JUMPDEST PUSH1 0x20 DUP2 MSTORE PUSH1 0x0 PUSH2 0x108D PUSH1 0x20 DUP4 ADD DUP5 PUSH2 0xF03 JUMP JUMPDEST SWAP4 SWAP3 POP POP POP JUMP JUMPDEST PUSH1 0x1 DUP2 DUP2 SHR SWAP1 DUP3 AND DUP1 PUSH2 0x10A8 JUMPI PUSH1 0x7F DUP3 AND SWAP2 POP JUMPDEST PUSH1 0x20 DUP3 LT DUP2 SUB PUSH2 0x10C8 JUMPI PUSH4 0x4E487B71 PUSH1 0xE0 SHL PUSH1 0x0 MSTORE PUSH1 0x22 PUSH1 0x4 MSTORE PUSH1 0x24 PUSH1 0x0 REVERT JUMPDEST POP SWAP2 SWAP1 POP JUMP JUMPDEST PUSH4 0x4E487B71 PUSH1 0xE0 SHL PUSH1 0x0 MSTORE PUSH1 0x32 PUSH1 0x4 MSTORE PUSH1 0x24 PUSH1 0x0 REVERT JUMPDEST PUSH4 0x4E487B71 PUSH1 0xE0 SHL PUSH1 0x0 MSTORE PUSH1 0x11 PUSH1 0x4 MSTORE PUSH1 0x24 PUSH1 0x0 REVERT JUMPDEST PUSH1 0x0 PUSH1 0x1 DUP3 ADD PUSH2 0x110C JUMPI PUSH2 0x110C PUSH2 0x10E4 JUMP JUMPDEST POP PUSH1 0x1 ADD SWAP1 JUMP JUMPDEST DUP2 DUP2 SUB DUP2 DUP2 GT ISZERO PUSH2 0x1126 JUMPI PUSH2 0x1126 PUSH2 0x10E4 JUMP JUMPDEST SWAP3 SWAP2 POP POP JUMP JUMPDEST PUSH1 0x0 DUP3 PUSH2 0x1149 JUMPI PUSH4 0x4E487B71 PUSH1 0xE0 SHL PUSH1 0x0 MSTORE PUSH1 0x12 PUSH1 0x4 MSTORE PUSH1 0x24 PUSH1 0x0 REVERT JUMPDEST POP MOD SWAP1 JUMP JUMPDEST PUSH4 0x4E487B71 PUSH1 0xE0 SHL PUSH1 0x0 MSTORE PUSH1 0x31 PUSH1 0x4 MSTORE PUSH1 0x24 PUSH1 0x0 REVERT JUMPDEST PUSH4 0x4E487B71 PUSH1 0xE0 SHL PUSH1 0x0 MSTORE PUSH1 0x41 PUSH1 0x4 MSTORE PUSH1 0x24 PUSH1 0x0 REVERT JUMPDEST PUSH1 0x1F DUP3 GT ISZERO PUSH2 0xEB4 JUMPI PUSH1 0x0 DUP2 DUP2 MSTORE PUSH1 0x20 DUP2 KECCAK256 PUSH1 0x1F DUP6 ADD PUSH1 0x5 SHR DUP2 ADD PUSH1 0x20 DUP7 LT ISZERO PUSH2 0x11A1 JUMPI POP DUP1 JUMPDEST PUSH1 0x1F DUP6 ADD PUSH1 0x5 SHR DUP3 ADD SWAP2 POP JUMPDEST DUP2 DUP2 LT ISZERO PUSH2 0x11C0 JUMPI DUP3 DUP2 SSTORE PUSH1 0x1 ADD PUSH2 0x11AD JUMP JUMPDEST POP POP POP POP POP POP JUMP JUMPDEST DUP2 MLOAD PUSH8 0xFFFFFFFFFFFFFFFF DUP2 GT ISZERO PUSH2 0x11E2 JUMPI PUSH2 0x11E2 PUSH2 0x1164 JUMP JUMPDEST PUSH2 0x11F6 DUP2 PUSH2 0x11F0 DUP5 SLOAD PUSH2 0x1094 JUMP JUMPDEST DUP5 PUSH2 0x117A JUMP JUMPDEST PUSH1 0x20 DUP1 PUSH1 0x1F DUP4 GT PUSH1 0x1 DUP2 EQ PUSH2 0x122B JUMPI PUSH1 0x0 DUP5 ISZERO PUSH2 0x1213 JUMPI POP DUP6 DUP4 ADD MLOAD JUMPDEST PUSH1 0x0 NOT PUSH1 0x3 DUP7 SWAP1 SHL SHR NOT AND PUSH1 0x1 DUP6 SWAP1 SHL OR DUP6 SSTORE PUSH2 0x11C0 JUMP JUMPDEST PUSH1 0x0 DUP6 DUP2 MSTORE PUSH1 0x20 DUP2 KECCAK256 PUSH1 0x1F NOT DUP7 AND SWAP2 JUMPDEST DUP3 DUP2 LT ISZERO PUSH2 0x125A JUMPI DUP9 DUP7 ADD MLOAD DUP3 SSTORE SWAP5 DUP5 ADD SWAP5 PUSH1 0x1 SWAP1 SWAP2 ADD SWAP1 DUP5 ADD PUSH2 0x123B JUMP JUMPDEST POP DUP6 DUP3 LT ISZERO PUSH2 0x1278 JUMPI DUP8 DUP6 ADD MLOAD PUSH1 0x0 NOT PUSH1 0x3 DUP9 SWAP1 SHL PUSH1 0xF8 AND SHR NOT AND DUP2 SSTORE JUMPDEST POP POP POP POP POP PUSH1 0x1 SWAP1 DUP2 SHL ADD SWAP1 SSTORE POP JUMP INVALID LOG2 PUSH5 0x6970667358 0x22 SLT KECCAK256 0x2B CALLVALUE PUSH10 0x51E6ED421CFF9F24BB87 SWAP7 0xFB LT 0xAD 0xE1 NUMBER 0xB4 DUP3 SWAP16 0xEF 0xB2 TIMESTAMP PREVRANDAO SWAP14 TIMESTAMP 0xA7 MOD 0xBA CALLDATACOPY PUSH5 0x736F6C6343 STOP ADDMOD SGT STOP CALLER "
				},
				"gasEstimates": {
					"creation": {
						"codeDepositCost": "959600",
						"executionCost": "28106",
						"totalCost": "987706"
					},
					"external": {
						"getGameHistory()": "infinite",
						"getSpecificGameHistory(uint256)": "infinite",
						"getUserOption(uint256)": "infinite",
						"showWaitingPoll()": "infinite"
					},
					"internal": {
						"ChooseRandomUser()": "infinite",
						"choosePlayerPlay()": "infinite",
						"game(struct RockPaperScissors.UserInfo memory,struct RockPaperScissors.UserInfo memory)": "infinite"
					}
				},
				"methodIdentifiers": {
					"getGameHistory()": "512ec557",
					"getSpecificGameHistory(uint256)": "f7c4efbb",
					"getUserOption(uint256)": "adf496b5",
					"showWaitingPoll()": "e16c9d59"
				}
			},
			"storageLayout": {
				"storage": [
					{
						"astId": 18,
						"contract": "Practical2-RockPaperScissors-Jason.sol:RockPaperScissors",
						"label": "userCount",
						"offset": 0,
						"slot": "0",
						"type": "t_uint256"
					},
					{
						"astId": 22,
						"contract": "Practical2-RockPaperScissors-Jason.sol:RockPaperScissors",
						"label": "gameHistory",
						"offset": 0,
						"slot": "1",
						"type": "t_array(t_struct(GameInfo)15_storage)dyn_storage"
					},
					{
						"astId": 24,
						"contract": "Practical2-RockPaperScissors-Jason.sol:RockPaperScissors",
						"label": "locked",
						"offset": 0,
						"slot": "2",
						"type": "t_bool"
					},
					{
						"astId": 27,
						"contract": "Practical2-RockPaperScissors-Jason.sol:RockPaperScissors",
						"label": "salt",
						"offset": 0,
						"slot": "3",
						"type": "t_uint256"
					},
					{
						"astId": 31,
						"contract": "Practical2-RockPaperScissors-Jason.sol:RockPaperScissors",
						"label": "waitingPool",
						"offset": 0,
						"slot": "4",
						"type": "t_array(t_struct(UserInfo)6_storage)dyn_storage"
					}
				],
				"types": {
					"t_address": {
						"encoding": "inplace",
						"label": "address",
						"numberOfBytes": "20"
					},
					"t_array(t_struct(GameInfo)15_storage)dyn_storage": {
						"base": "t_struct(GameInfo)15_storage",
						"encoding": "dynamic_array",
						"label": "struct RockPaperScissors.GameInfo[]",
						"numberOfBytes": "32"
					},
					"t_array(t_struct(UserInfo)6_storage)dyn_storage": {
						"base": "t_struct(UserInfo)6_storage",
						"encoding": "dynamic_array",
						"label": "struct RockPaperScissors.UserInfo[]",
						"numberOfBytes": "32"
					},
					"t_bool": {
						"encoding": "inplace",
						"label": "bool",
						"numberOfBytes": "1"
					},
					"t_string_storage": {
						"encoding": "bytes",
						"label": "string",
						"numberOfBytes": "32"
					},
					"t_struct(GameInfo)15_storage": {
						"encoding": "inplace",
						"label": "struct RockPaperScissors.GameInfo",
						"members": [
							{
								"astId": 9,
								"contract": "Practical2-RockPaperScissors-Jason.sol:RockPaperScissors",
								"label": "user1",
								"offset": 0,
								"slot": "0",
								"type": "t_struct(UserInfo)6_storage"
							},
							{
								"astId": 12,
								"contract": "Practical2-RockPaperScissors-Jason.sol:RockPaperScissors",
								"label": "user2",
								"offset": 0,
								"slot": "2",
								"type": "t_struct(UserInfo)6_storage"
							},
							{
								"astId": 14,
								"contract": "Practical2-RockPaperScissors-Jason.sol:RockPaperScissors",
								"label": "finalResult",
								"offset": 0,
								"slot": "4",
								"type": "t_string_storage"
							}
						],
						"numberOfBytes": "160"
					},
					"t_struct(UserInfo)6_storage": {
						"encoding": "inplace",
						"label": "struct RockPaperScissors.UserInfo",
						"members": [
							{
								"astId": 3,
								"contract": "Practical2-RockPaperScissors-Jason.sol:RockPaperScissors",
								"label": "userAddress",
								"offset": 0,
								"slot": "0",
								"type": "t_address"
							},
							{
								"astId": 5,
								"contract": "Practical2-RockPaperScissors-Jason.sol:RockPaperScissors",
								"label": "userOption",
								"offset": 0,
								"slot": "1",
								"type": "t_uint256"
							}
						],
						"numberOfBytes": "64"
					},
					"t_uint256": {
						"encoding": "inplace",
						"label": "uint256",
						"numberOfBytes": "32"
					}
				}
			},
			"userdoc": {
				"kind": "user",
				"methods": {},
				"version": 1
			}
		}
	}
}