{
	"SelfPractice-Jason.sol": {
		"payAndPlay": {
			"abi": [
				{
					"inputs": [],
					"stateMutability": "nonpayable",
					"type": "constructor"
				},
				{
					"anonymous": false,
					"inputs": [
						{
							"indexed": false,
							"internalType": "uint256",
							"name": "",
							"type": "uint256"
						}
					],
					"name": "showBalance",
					"type": "event"
				},
				{
					"anonymous": false,
					"inputs": [
						{
							"indexed": false,
							"internalType": "string",
							"name": "",
							"type": "string"
						}
					],
					"name": "showError",
					"type": "event"
				},
				{
					"anonymous": false,
					"inputs": [
						{
							"indexed": false,
							"internalType": "uint256",
							"name": "",
							"type": "uint256"
						}
					],
					"name": "showResult",
					"type": "event"
				},
				{
					"inputs": [],
					"name": "contractAddress",
					"outputs": [
						{
							"internalType": "address payable",
							"name": "",
							"type": "address"
						}
					],
					"stateMutability": "view",
					"type": "function"
				},
				{
					"inputs": [],
					"name": "depositeMoney",
					"outputs": [],
					"stateMutability": "payable",
					"type": "function"
				},
				{
					"inputs": [],
					"name": "getAllMoney",
					"outputs": [],
					"stateMutability": "nonpayable",
					"type": "function"
				},
				{
					"inputs": [],
					"name": "getBalance",
					"outputs": [
						{
							"internalType": "uint256",
							"name": "",
							"type": "uint256"
						}
					],
					"stateMutability": "view",
					"type": "function"
				},
				{
					"inputs": [],
					"name": "getPlayerBalance",
					"outputs": [
						{
							"internalType": "uint256",
							"name": "",
							"type": "uint256"
						}
					],
					"stateMutability": "view",
					"type": "function"
				},
				{
					"inputs": [],
					"name": "getRandomNumber",
					"outputs": [
						{
							"internalType": "uint256",
							"name": "",
							"type": "uint256"
						}
					],
					"stateMutability": "nonpayable",
					"type": "function"
				},
				{
					"inputs": [],
					"name": "numberCount",
					"outputs": [
						{
							"internalType": "uint256",
							"name": "",
							"type": "uint256"
						}
					],
					"stateMutability": "view",
					"type": "function"
				},
				{
					"inputs": [],
					"name": "owner",
					"outputs": [
						{
							"internalType": "address",
							"name": "",
							"type": "address"
						}
					],
					"stateMutability": "view",
					"type": "function"
				},
				{
					"inputs": [
						{
							"internalType": "uint256",
							"name": "guessNumber",
							"type": "uint256"
						}
					],
					"name": "playGame",
					"outputs": [],
					"stateMutability": "payable",
					"type": "function"
				},
				{
					"inputs": [],
					"name": "withdrawMoney",
					"outputs": [],
					"stateMutability": "nonpayable",
					"type": "function"
				}
			],
			"devdoc": {
				"kind": "dev",
				"methods": {},
				"version": 1
			},
			"evm": {
				"assembly": "    /* \"SelfPractice-Jason.sol\":260:3672  contract payAndPlay{... */\n  mstore(0x40, 0x80)\n    /* \"SelfPractice-Jason.sol\":306:307  0 */\n  0x00\n    /* \"SelfPractice-Jason.sol\":286:307  uint private salt = 0 */\n  dup1\n  sstore\n    /* \"SelfPractice-Jason.sol\":374:375  1 */\n  0x01\n    /* \"SelfPractice-Jason.sol\":348:375  uint public numberCount = 1 */\n  dup1\n  sstore\n    /* \"SelfPractice-Jason.sol\":405:468  address payable public contractAddress = payable(address(this)) */\n  0x02\n  dup1\n  sload\n  not(sub(shl(0xa0, 0x01), 0x01))\n  and\n    /* \"SelfPractice-Jason.sol\":462:466  this */\n  address\n    /* \"SelfPractice-Jason.sol\":405:468  address payable public contractAddress = payable(address(this)) */\n  or\n  swap1\n  sstore\n    /* \"SelfPractice-Jason.sol\":1063:1114  constructor() {... */\n  callvalue\n  dup1\n  iszero\n  tag_1\n  jumpi\n  0x00\n  dup1\n  revert\ntag_1:\n  pop\n    /* \"SelfPractice-Jason.sol\":1088:1093  owner */\n  0x04\n    /* \"SelfPractice-Jason.sol\":1088:1106  owner = msg.sender */\n  dup1\n  sload\n  not(sub(shl(0xa0, 0x01), 0x01))\n  and\n    /* \"SelfPractice-Jason.sol\":1096:1106  msg.sender */\n  caller\n    /* \"SelfPractice-Jason.sol\":1088:1106  owner = msg.sender */\n  or\n  swap1\n  sstore\n    /* \"SelfPractice-Jason.sol\":260:3672  contract payAndPlay{... */\n  dataSize(sub_0)\n  dup1\n  dataOffset(sub_0)\n  0x00\n  codecopy\n  0x00\n  return\nstop\n\nsub_0: assembly {\n        /* \"SelfPractice-Jason.sol\":260:3672  contract payAndPlay{... */\n      mstore(0x40, 0x80)\n      jumpi(tag_1, lt(calldatasize, 0x04))\n      shr(0xe0, calldataload(0x00))\n      dup1\n      0x8da5cb5b\n      gt\n      tag_12\n      jumpi\n      dup1\n      0x8da5cb5b\n      eq\n      tag_7\n      jumpi\n      dup1\n      0xac446002\n      eq\n      tag_8\n      jumpi\n      dup1\n      0xdbdff2c1\n      eq\n      tag_9\n      jumpi\n      dup1\n      0xedb84ff7\n      eq\n      tag_10\n      jumpi\n      dup1\n      0xf6b4dfb4\n      eq\n      tag_11\n      jumpi\n      0x00\n      dup1\n      revert\n    tag_12:\n      dup1\n      0x0b01517c\n      eq\n      tag_2\n      jumpi\n      dup1\n      0x103f90f4\n      eq\n      tag_3\n      jumpi\n      dup1\n      0x12065fe0\n      eq\n      tag_4\n      jumpi\n      dup1\n      0x3f925f7a\n      eq\n      tag_5\n      jumpi\n      dup1\n      0x5873533d\n      eq\n      tag_6\n      jumpi\n    tag_1:\n      0x00\n      dup1\n      revert\n        /* \"SelfPractice-Jason.sol\":1154:1254  function getPlayerBalance() external view returns(uint) {... */\n    tag_2:\n      callvalue\n      dup1\n      iszero\n      tag_13\n      jumpi\n      0x00\n      dup1\n      revert\n    tag_13:\n      pop\n        /* \"SelfPractice-Jason.sol\":1228:1238  msg.sender */\n      caller\n        /* \"SelfPractice-Jason.sol\":1228:1246  msg.sender.balance */\n      balance\n        /* \"SelfPractice-Jason.sol\":1154:1254  function getPlayerBalance() external view returns(uint) {... */\n    tag_14:\n      mload(0x40)\n        /* \"#utility.yul\":160:185   */\n      swap1\n      dup2\n      mstore\n        /* \"#utility.yul\":148:150   */\n      0x20\n        /* \"#utility.yul\":133:151   */\n      add\n        /* \"SelfPractice-Jason.sol\":1154:1254  function getPlayerBalance() external view returns(uint) {... */\n    tag_16:\n      mload(0x40)\n      dup1\n      swap2\n      sub\n      swap1\n      return\n        /* \"SelfPractice-Jason.sol\":348:375  uint public numberCount = 1 */\n    tag_3:\n      callvalue\n      dup1\n      iszero\n      tag_18\n      jumpi\n      0x00\n      dup1\n      revert\n    tag_18:\n      pop\n      tag_14\n      sload(0x01)\n      dup2\n      jump\n        /* \"SelfPractice-Jason.sol\":1292:1392  function getBalance() external view  returns(uint) {... */\n    tag_4:\n      callvalue\n      dup1\n      iszero\n      tag_22\n      jumpi\n      0x00\n      dup1\n      revert\n    tag_22:\n      pop\n        /* \"SelfPractice-Jason.sol\":1361:1376  contractAddress */\n      and(sub(shl(0xa0, 0x01), 0x01), sload(0x02))\n        /* \"SelfPractice-Jason.sol\":1361:1384  contractAddress.balance */\n      balance\n        /* \"SelfPractice-Jason.sol\":1292:1392  function getBalance() external view  returns(uint) {... */\n      jump(tag_14)\n        /* \"SelfPractice-Jason.sol\":1400:1758  function depositeMoney () public payable {... */\n    tag_5:\n      tag_26\n      tag_27\n      jump\t// in\n    tag_26:\n      stop\n        /* \"SelfPractice-Jason.sol\":2387:3095  function playGame(uint guessNumber)external payable noReentrancy{... */\n    tag_6:\n      tag_26\n      tag_29\n      calldatasize\n      0x04\n      tag_30\n      jump\t// in\n    tag_29:\n      tag_31\n      jump\t// in\n        /* \"SelfPractice-Jason.sol\":556:576  address public owner */\n    tag_7:\n      callvalue\n      dup1\n      iszero\n      tag_32\n      jumpi\n      0x00\n      dup1\n      revert\n    tag_32:\n      pop\n      sload(0x04)\n      tag_33\n      swap1\n      sub(shl(0xa0, 0x01), 0x01)\n      and\n      dup2\n      jump\n    tag_33:\n      mload(0x40)\n      sub(shl(0xa0, 0x01), 0x01)\n        /* \"#utility.yul\":545:577   */\n      swap1\n      swap2\n      and\n        /* \"#utility.yul\":527:578   */\n      dup2\n      mstore\n        /* \"#utility.yul\":515:517   */\n      0x20\n        /* \"#utility.yul\":500:518   */\n      add\n        /* \"SelfPractice-Jason.sol\":556:576  address public owner */\n      tag_16\n        /* \"#utility.yul\":381:584   */\n      jump\n        /* \"SelfPractice-Jason.sol\":1801:2145  function withdrawMoney () public {... */\n    tag_8:\n      callvalue\n      dup1\n      iszero\n      tag_37\n      jumpi\n      0x00\n      dup1\n      revert\n    tag_37:\n      pop\n      tag_26\n      tag_39\n      jump\t// in\n        /* \"SelfPractice-Jason.sol\":3109:3669  function getRandomNumber() public returns (uint256) {... */\n    tag_9:\n      callvalue\n      dup1\n      iszero\n      tag_40\n      jumpi\n      0x00\n      dup1\n      revert\n    tag_40:\n      pop\n      tag_14\n      tag_42\n      jump\t// in\n        /* \"SelfPractice-Jason.sol\":2246:2359  function getAllMoney() external onlyOwner{... */\n    tag_10:\n      callvalue\n      dup1\n      iszero\n      tag_44\n      jumpi\n      0x00\n      dup1\n      revert\n    tag_44:\n      pop\n      tag_26\n      tag_46\n      jump\t// in\n        /* \"SelfPractice-Jason.sol\":405:468  address payable public contractAddress = payable(address(this)) */\n    tag_11:\n      callvalue\n      dup1\n      iszero\n      tag_47\n      jumpi\n      0x00\n      dup1\n      revert\n    tag_47:\n      pop\n      sload(0x02)\n      tag_33\n      swap1\n      sub(shl(0xa0, 0x01), 0x01)\n      and\n      dup2\n      jump\n        /* \"SelfPractice-Jason.sol\":1400:1758  function depositeMoney () public payable {... */\n    tag_27:\n        /* \"SelfPractice-Jason.sol\":1724:1739  contractAddress */\n      sload(0x02)\n        /* \"SelfPractice-Jason.sol\":1712:1748  showBalance(contractAddress.balance) */\n      mload(0x40)\n      sub(shl(0xa0, 0x01), 0x01)\n        /* \"SelfPractice-Jason.sol\":1724:1739  contractAddress */\n      swap1\n      swap2\n      and\n        /* \"SelfPractice-Jason.sol\":1724:1747  contractAddress.balance */\n      balance\n        /* \"#utility.yul\":160:185   */\n      dup2\n      mstore\n        /* \"SelfPractice-Jason.sol\":1712:1748  showBalance(contractAddress.balance) */\n      0xf0b60c507a2e93235b6bed490cd5616aa2f43a849c3d167e96d6c5099b5524e5\n      swap1\n        /* \"#utility.yul\":148:150   */\n      0x20\n        /* \"#utility.yul\":133:151   */\n      add\n        /* \"SelfPractice-Jason.sol\":1712:1748  showBalance(contractAddress.balance) */\n    tag_55:\n      mload(0x40)\n      dup1\n      swap2\n      sub\n      swap1\n      log1\n        /* \"SelfPractice-Jason.sol\":1400:1758  function depositeMoney () public payable {... */\n      jump\t// out\n        /* \"SelfPractice-Jason.sol\":2387:3095  function playGame(uint guessNumber)external payable noReentrancy{... */\n    tag_31:\n        /* \"SelfPractice-Jason.sol\":954:960  locked */\n      sload(0x04)\n      shl(0xa0, 0x01)\n      swap1\n      div\n      0xff\n      and\n        /* \"SelfPractice-Jason.sol\":953:960  !locked */\n      iszero\n        /* \"SelfPractice-Jason.sol\":945:986  require(!locked, \"Error: Reentrant call\") */\n      tag_57\n      jumpi\n      mload(0x40)\n      shl(0xe5, 0x461bcd)\n      dup2\n      mstore\n        /* \"#utility.yul\":1015:1017   */\n      0x20\n        /* \"SelfPractice-Jason.sol\":945:986  require(!locked, \"Error: Reentrant call\") */\n      0x04\n      dup3\n      add\n        /* \"#utility.yul\":997:1018   */\n      mstore\n        /* \"#utility.yul\":1054:1056   */\n      0x15\n        /* \"#utility.yul\":1034:1052   */\n      0x24\n      dup3\n      add\n        /* \"#utility.yul\":1027:1057   */\n      mstore\n      shl(0x5a, 0x115c9c9bdc8e881499595b9d1c985b9d0818d85b1b)\n        /* \"#utility.yul\":1073:1091   */\n      0x44\n      dup3\n      add\n        /* \"#utility.yul\":1066:1117   */\n      mstore\n        /* \"#utility.yul\":1134:1152   */\n      0x64\n      add\n        /* \"SelfPractice-Jason.sol\":945:986  require(!locked, \"Error: Reentrant call\") */\n    tag_58:\n      mload(0x40)\n      dup1\n      swap2\n      sub\n      swap1\n      revert\n    tag_57:\n        /* \"SelfPractice-Jason.sol\":997:1003  locked */\n      0x04\n        /* \"SelfPractice-Jason.sol\":997:1010  locked = true */\n      dup1\n      sload\n      not(shl(0xa0, 0xff))\n      and\n      shl(0xa0, 0x01)\n      or\n      swap1\n      sstore\n        /* \"SelfPractice-Jason.sol\":2483:2490  1 ether */\n      0x0de0b6b3a7640000\n        /* \"SelfPractice-Jason.sol\":2470:2479  msg.value */\n      callvalue\n        /* \"SelfPractice-Jason.sol\":2470:2490  msg.value >= 1 ether */\n      lt\n      iszero\n        /* \"SelfPractice-Jason.sol\":2462:2507  require(msg.value >= 1 ether,\"send 1 ether!\") */\n      tag_61\n      jumpi\n      mload(0x40)\n      shl(0xe5, 0x461bcd)\n      dup2\n      mstore\n        /* \"#utility.yul\":1365:1367   */\n      0x20\n        /* \"SelfPractice-Jason.sol\":2462:2507  require(msg.value >= 1 ether,\"send 1 ether!\") */\n      0x04\n      dup3\n      add\n        /* \"#utility.yul\":1347:1368   */\n      mstore\n        /* \"#utility.yul\":1404:1406   */\n      0x0d\n        /* \"#utility.yul\":1384:1402   */\n      0x24\n      dup3\n      add\n        /* \"#utility.yul\":1377:1407   */\n      mstore\n      shl(0x98, 0x73656e64203120657468657221)\n        /* \"#utility.yul\":1423:1441   */\n      0x44\n      dup3\n      add\n        /* \"#utility.yul\":1416:1459   */\n      mstore\n        /* \"#utility.yul\":1476:1494   */\n      0x64\n      add\n        /* \"SelfPractice-Jason.sol\":2462:2507  require(msg.value >= 1 ether,\"send 1 ether!\") */\n      tag_58\n        /* \"#utility.yul\":1163:1500   */\n      jump\n        /* \"SelfPractice-Jason.sol\":2462:2507  require(msg.value >= 1 ether,\"send 1 ether!\") */\n    tag_61:\n        /* \"SelfPractice-Jason.sol\":2644:2646  10 */\n      0x0a\n        /* \"SelfPractice-Jason.sol\":2629:2640  numberCount */\n      sload(0x01)\n        /* \"SelfPractice-Jason.sol\":2629:2646  numberCount <= 10 */\n      gt\n        /* \"SelfPractice-Jason.sol\":2626:2687  if(numberCount <= 10){... */\n      tag_64\n      jumpi\n        /* \"SelfPractice-Jason.sol\":2662:2673  numberCount */\n      0x01\n        /* \"SelfPractice-Jason.sol\":2662:2675  numberCount++ */\n      dup1\n      sload\n      swap1\n        /* \"SelfPractice-Jason.sol\":2662:2673  numberCount */\n      0x00\n        /* \"SelfPractice-Jason.sol\":2662:2675  numberCount++ */\n      tag_65\n      dup4\n      tag_66\n      jump\t// in\n    tag_65:\n      swap2\n      swap1\n      pop\n      sstore\n      pop\n        /* \"SelfPractice-Jason.sol\":2626:2687  if(numberCount <= 10){... */\n    tag_64:\n        /* \"SelfPractice-Jason.sol\":2768:2779  guessNumber */\n      dup1\n        /* \"SelfPractice-Jason.sol\":2747:2764  getRandomNumber() */\n      tag_67\n        /* \"SelfPractice-Jason.sol\":2747:2762  getRandomNumber */\n      tag_42\n        /* \"SelfPractice-Jason.sol\":2747:2764  getRandomNumber() */\n      jump\t// in\n    tag_67:\n        /* \"SelfPractice-Jason.sol\":2747:2779  getRandomNumber() == guessNumber */\n      sub\n        /* \"SelfPractice-Jason.sol\":2744:3078  if(getRandomNumber() == guessNumber){... */\n      tag_68\n      jumpi\n        /* \"SelfPractice-Jason.sol\":2847:2860  playerAddress */\n      0x03\n        /* \"SelfPractice-Jason.sol\":2847:2873  playerAddress = msg.sender */\n      dup1\n      sload\n      not(sub(shl(0xa0, 0x01), 0x01))\n      and\n        /* \"SelfPractice-Jason.sol\":2863:2873  msg.sender */\n      caller\n        /* \"SelfPractice-Jason.sol\":2847:2873  playerAddress = msg.sender */\n      or\n      swap1\n      sstore\n        /* \"SelfPractice-Jason.sol\":2888:2903  withdrawMoney() */\n      tag_69\n        /* \"SelfPractice-Jason.sol\":2888:2901  withdrawMoney */\n      tag_39\n        /* \"SelfPractice-Jason.sol\":2888:2903  withdrawMoney() */\n      jump\t// in\n    tag_69:\n        /* \"SelfPractice-Jason.sol\":2963:2976  playerAddress */\n      0x03\n        /* \"SelfPractice-Jason.sol\":2963:2989  playerAddress = address(0) */\n      dup1\n      sload\n      not(sub(shl(0xa0, 0x01), 0x01))\n      and\n      swap1\n      sstore\n        /* \"SelfPractice-Jason.sol\":3018:3019  2 */\n      0x02\n        /* \"SelfPractice-Jason.sol\":2963:2989  playerAddress = address(0) */\n      0x01\n        /* \"SelfPractice-Jason.sol\":3004:3019  numberCount = 2 */\n      sstore\n        /* \"SelfPractice-Jason.sol\":2744:3078  if(getRandomNumber() == guessNumber){... */\n      jump(tag_71)\n    tag_68:\n        /* \"SelfPractice-Jason.sol\":3051:3066  depositeMoney() */\n      tag_71\n        /* \"SelfPractice-Jason.sol\":3051:3064  depositeMoney */\n      tag_27\n        /* \"SelfPractice-Jason.sol\":3051:3066  depositeMoney() */\n      jump\t// in\n    tag_71:\n      pop\n        /* \"SelfPractice-Jason.sol\":1033:1039  locked */\n      0x04\n        /* \"SelfPractice-Jason.sol\":1033:1047  locked = false */\n      dup1\n      sload\n      not(shl(0xa0, 0xff))\n      and\n      swap1\n      sstore\n        /* \"SelfPractice-Jason.sol\":2387:3095  function playGame(uint guessNumber)external payable noReentrancy{... */\n      jump\t// out\n        /* \"SelfPractice-Jason.sol\":1801:2145  function withdrawMoney () public {... */\n    tag_39:\n        /* \"SelfPractice-Jason.sol\":1867:1880  playerAddress */\n      and(sub(shl(0xa0, 0x01), 0x01), sload(0x03))\n        /* \"SelfPractice-Jason.sol\":1853:1863  msg.sender */\n      caller\n        /* \"SelfPractice-Jason.sol\":1853:1880  msg.sender == playerAddress */\n      eq\n        /* \"SelfPractice-Jason.sol\":1845:1901  require(msg.sender == playerAddress,\"You are not winer\") */\n      tag_73\n      jumpi\n      mload(0x40)\n      shl(0xe5, 0x461bcd)\n      dup2\n      mstore\n        /* \"#utility.yul\":1979:1981   */\n      0x20\n        /* \"SelfPractice-Jason.sol\":1845:1901  require(msg.sender == playerAddress,\"You are not winer\") */\n      0x04\n      dup3\n      add\n        /* \"#utility.yul\":1961:1982   */\n      mstore\n        /* \"#utility.yul\":2018:2020   */\n      0x11\n        /* \"#utility.yul\":1998:2016   */\n      0x24\n      dup3\n      add\n        /* \"#utility.yul\":1991:2021   */\n      mstore\n      shl(0x79, 0x2cb7ba9030b932903737ba103bb4b732b9)\n        /* \"#utility.yul\":2037:2055   */\n      0x44\n      dup3\n      add\n        /* \"#utility.yul\":2030:2077   */\n      mstore\n        /* \"#utility.yul\":2094:2112   */\n      0x64\n      add\n        /* \"SelfPractice-Jason.sol\":1845:1901  require(msg.sender == playerAddress,\"You are not winer\") */\n      tag_58\n        /* \"#utility.yul\":1777:2118   */\n      jump\n        /* \"SelfPractice-Jason.sol\":1845:1901  require(msg.sender == playerAddress,\"You are not winer\") */\n    tag_73:\n        /* \"SelfPractice-Jason.sol\":1999:2014  contractAddress */\n      sload(0x02)\n        /* \"SelfPractice-Jason.sol\":1970:2023  payable(msg.sender).transfer(contractAddress.balance) */\n      mload(0x40)\n        /* \"SelfPractice-Jason.sol\":1978:1988  msg.sender */\n      caller\n      swap2\n      sub(shl(0xa0, 0x01), 0x01)\n        /* \"SelfPractice-Jason.sol\":1999:2014  contractAddress */\n      and\n        /* \"SelfPractice-Jason.sol\":1999:2022  contractAddress.balance */\n      balance\n        /* \"SelfPractice-Jason.sol\":1970:2023  payable(msg.sender).transfer(contractAddress.balance) */\n      dup1\n      iszero\n      0x08fc\n      mul\n      swap2\n        /* \"SelfPractice-Jason.sol\":1999:2014  contractAddress */\n      0x00\n        /* \"SelfPractice-Jason.sol\":1970:2023  payable(msg.sender).transfer(contractAddress.balance) */\n      dup2\n        /* \"SelfPractice-Jason.sol\":1999:2014  contractAddress */\n      dup2\n        /* \"SelfPractice-Jason.sol\":1970:2023  payable(msg.sender).transfer(contractAddress.balance) */\n      dup2\n        /* \"SelfPractice-Jason.sol\":1999:2022  contractAddress.balance */\n      dup6\n        /* \"SelfPractice-Jason.sol\":1978:1988  msg.sender */\n      dup9\n        /* \"SelfPractice-Jason.sol\":1970:2023  payable(msg.sender).transfer(contractAddress.balance) */\n      dup9\n      call\n      swap4\n      pop\n      pop\n      pop\n      pop\n      iszero\n      dup1\n      iszero\n      tag_77\n      jumpi\n      returndatasize\n      0x00\n      dup1\n      returndatacopy\n      revert(0x00, returndatasize)\n    tag_77:\n      pop\n        /* \"SelfPractice-Jason.sol\":2087:2102  contractAddress */\n      sload(0x02)\n        /* \"SelfPractice-Jason.sol\":2075:2111  showBalance(contractAddress.balance) */\n      mload(0x40)\n      sub(shl(0xa0, 0x01), 0x01)\n        /* \"SelfPractice-Jason.sol\":2087:2102  contractAddress */\n      swap1\n      swap2\n      and\n        /* \"SelfPractice-Jason.sol\":2087:2110  contractAddress.balance */\n      balance\n        /* \"#utility.yul\":160:185   */\n      dup2\n      mstore\n        /* \"SelfPractice-Jason.sol\":2075:2111  showBalance(contractAddress.balance) */\n      0xf0b60c507a2e93235b6bed490cd5616aa2f43a849c3d167e96d6c5099b5524e5\n      swap1\n        /* \"#utility.yul\":148:150   */\n      0x20\n        /* \"#utility.yul\":133:151   */\n      add\n        /* \"SelfPractice-Jason.sol\":2075:2111  showBalance(contractAddress.balance) */\n      tag_55\n        /* \"#utility.yul\":14:191   */\n      jump\n        /* \"SelfPractice-Jason.sol\":3109:3669  function getRandomNumber() public returns (uint256) {... */\n    tag_42:\n        /* \"SelfPractice-Jason.sol\":3152:3159  uint256 */\n      0x00\n      dup1\n        /* \"SelfPractice-Jason.sol\":3291:3306  block.timestamp */\n      timestamp\n        /* \"SelfPractice-Jason.sol\":3308:3324  block.difficulty */\n      prevrandao\n        /* \"SelfPractice-Jason.sol\":3336:3352  block.number - 1 */\n      tag_80\n        /* \"SelfPractice-Jason.sol\":3351:3352  1 */\n      0x01\n        /* \"SelfPractice-Jason.sol\":3336:3348  block.number */\n      number\n        /* \"SelfPractice-Jason.sol\":3336:3352  block.number - 1 */\n      tag_81\n      jump\t// in\n    tag_80:\n        /* \"SelfPractice-Jason.sol\":3274:3354  abi.encodePacked(block.timestamp, block.difficulty, blockhash(block.number - 1)) */\n      0x40\n      dup1\n      mload\n      0x20\n      dup2\n      add\n        /* \"#utility.yul\":2441:2460   */\n      swap5\n      swap1\n      swap5\n      mstore\n        /* \"#utility.yul\":2476:2488   */\n      dup4\n      add\n        /* \"#utility.yul\":2469:2497   */\n      swap2\n      swap1\n      swap2\n      mstore\n        /* \"SelfPractice-Jason.sol\":3326:3353  blockhash(block.number - 1) */\n      blockhash\n        /* \"#utility.yul\":2513:2525   */\n      0x60\n      dup3\n      add\n        /* \"#utility.yul\":2506:2534   */\n      mstore\n        /* \"#utility.yul\":2550:2562   */\n      0x80\n      add\n        /* \"SelfPractice-Jason.sol\":3274:3354  abi.encodePacked(block.timestamp, block.difficulty, blockhash(block.number - 1)) */\n      0x40\n      dup1\n      mload\n      not(0x1f)\n      dup2\n      dup5\n      sub\n      add\n      dup2\n      mstore\n      dup3\n      dup3\n      mstore\n        /* \"SelfPractice-Jason.sol\":3264:3355  keccak256(abi.encodePacked(block.timestamp, block.difficulty, blockhash(block.number - 1))) */\n      dup1\n      mload\n        /* \"SelfPractice-Jason.sol\":3274:3354  abi.encodePacked(block.timestamp, block.difficulty, blockhash(block.number - 1)) */\n      0x20\n        /* \"SelfPractice-Jason.sol\":3264:3355  keccak256(abi.encodePacked(block.timestamp, block.difficulty, blockhash(block.number - 1))) */\n      swap2\n      dup3\n      add\n      keccak256\n        /* \"SelfPractice-Jason.sol\":3256:3356  uint256(keccak256(abi.encodePacked(block.timestamp, block.difficulty, blockhash(block.number - 1)))) */\n      0x00\n        /* \"SelfPractice-Jason.sol\":3486:3490  salt */\n      dup1\n      sload\n        /* \"SelfPractice-Jason.sol\":3463:3491  abi.encodePacked(seed, salt) */\n      swap3\n      dup6\n      add\n        /* \"#utility.yul\":2730:2749   */\n      dup3\n      swap1\n      mstore\n        /* \"#utility.yul\":2765:2777   */\n      swap3\n      dup5\n      add\n        /* \"#utility.yul\":2758:2786   */\n      swap2\n      swap1\n      swap2\n      mstore\n        /* \"SelfPractice-Jason.sol\":3264:3355  keccak256(abi.encodePacked(block.timestamp, block.difficulty, blockhash(block.number - 1))) */\n      swap3\n      pop\n        /* \"SelfPractice-Jason.sol\":3256:3356  uint256(keccak256(abi.encodePacked(block.timestamp, block.difficulty, blockhash(block.number - 1)))) */\n      swap1\n        /* \"#utility.yul\":2802:2814   */\n      0x60\n      add\n        /* \"SelfPractice-Jason.sol\":3463:3491  abi.encodePacked(seed, salt) */\n      mload(0x40)\n      0x20\n      dup2\n      dup4\n      sub\n      sub\n      dup2\n      mstore\n      swap1\n      0x40\n      mstore\n        /* \"SelfPractice-Jason.sol\":3453:3492  keccak256(abi.encodePacked(seed, salt)) */\n      dup1\n      mload\n      swap1\n      0x20\n      add\n      keccak256\n        /* \"SelfPractice-Jason.sol\":3445:3493  uint256(keccak256(abi.encodePacked(seed, salt))) */\n      0x00\n      shr\n        /* \"SelfPractice-Jason.sol\":3427:3493  uint256 random1 = uint256(keccak256(abi.encodePacked(seed, salt))) */\n      swap1\n      pop\n        /* \"SelfPractice-Jason.sol\":3512:3513  1 */\n      0x01\n        /* \"SelfPractice-Jason.sol\":3504:3508  salt */\n      0x00\n      dup1\n        /* \"SelfPractice-Jason.sol\":3504:3513  salt += 1 */\n      dup3\n      dup3\n      sload\n      tag_86\n      swap2\n      swap1\n      tag_87\n      jump\t// in\n    tag_86:\n      swap1\n      swap2\n      sstore\n      pop\n      pop\n        /* \"SelfPractice-Jason.sol\":3599:3610  numberCount */\n      sload(0x01)\n        /* \"SelfPractice-Jason.sol\":3577:3616  showResult((random1 % numberCount) + 1) */\n      0xed6ad2f84ff9379c0261f2ba89850d87d385f1f35c6d1254dd6b54f946a0567e\n      swap1\n        /* \"SelfPractice-Jason.sol\":3589:3610  random1 % numberCount */\n      tag_88\n      swap1\n        /* \"SelfPractice-Jason.sol\":3589:3596  random1 */\n      dup4\n        /* \"SelfPractice-Jason.sol\":3589:3610  random1 % numberCount */\n      tag_89\n      jump\t// in\n    tag_88:\n        /* \"SelfPractice-Jason.sol\":3588:3615  (random1 % numberCount) + 1 */\n      tag_90\n      swap1\n        /* \"SelfPractice-Jason.sol\":3614:3615  1 */\n      0x01\n        /* \"SelfPractice-Jason.sol\":3588:3615  (random1 % numberCount) + 1 */\n      tag_87\n      jump\t// in\n    tag_90:\n        /* \"SelfPractice-Jason.sol\":3577:3616  showResult((random1 % numberCount) + 1) */\n      mload(0x40)\n        /* \"#utility.yul\":160:185   */\n      swap1\n      dup2\n      mstore\n        /* \"#utility.yul\":148:150   */\n      0x20\n        /* \"#utility.yul\":133:151   */\n      add\n        /* \"SelfPractice-Jason.sol\":3577:3616  showResult((random1 % numberCount) + 1) */\n      mload(0x40)\n      dup1\n      swap2\n      sub\n      swap1\n      log1\n        /* \"SelfPractice-Jason.sol\":3645:3656  numberCount */\n      sload(0x01)\n        /* \"SelfPractice-Jason.sol\":3635:3656  random1 % numberCount */\n      tag_92\n      swap1\n        /* \"SelfPractice-Jason.sol\":3635:3642  random1 */\n      dup3\n        /* \"SelfPractice-Jason.sol\":3635:3656  random1 % numberCount */\n      tag_89\n      jump\t// in\n    tag_92:\n        /* \"SelfPractice-Jason.sol\":3634:3661  (random1 % numberCount) + 1 */\n      tag_93\n      swap1\n        /* \"SelfPractice-Jason.sol\":3660:3661  1 */\n      0x01\n        /* \"SelfPractice-Jason.sol\":3634:3661  (random1 % numberCount) + 1 */\n      tag_87\n      jump\t// in\n    tag_93:\n        /* \"SelfPractice-Jason.sol\":3627:3661  return (random1 % numberCount) + 1 */\n      swap3\n      pop\n      pop\n      pop\n        /* \"SelfPractice-Jason.sol\":3109:3669  function getRandomNumber() public returns (uint256) {... */\n      swap1\n      jump\t// out\n        /* \"SelfPractice-Jason.sol\":2246:2359  function getAllMoney() external onlyOwner{... */\n    tag_46:\n        /* \"SelfPractice-Jason.sol\":838:843  owner */\n      and(sub(shl(0xa0, 0x01), 0x01), sload(0x04))\n        /* \"SelfPractice-Jason.sol\":824:834  msg.sender */\n      caller\n        /* \"SelfPractice-Jason.sol\":824:843  msg.sender == owner */\n      eq\n        /* \"SelfPractice-Jason.sol\":816:861  require(msg.sender == owner, \"Not the owner\") */\n      tag_95\n      jumpi\n      mload(0x40)\n      shl(0xe5, 0x461bcd)\n      dup2\n      mstore\n        /* \"#utility.yul\":3371:3373   */\n      0x20\n        /* \"SelfPractice-Jason.sol\":816:861  require(msg.sender == owner, \"Not the owner\") */\n      0x04\n      dup3\n      add\n        /* \"#utility.yul\":3353:3374   */\n      mstore\n        /* \"#utility.yul\":3410:3412   */\n      0x0d\n        /* \"#utility.yul\":3390:3408   */\n      0x24\n      dup3\n      add\n        /* \"#utility.yul\":3383:3413   */\n      mstore\n      shl(0x99, 0x2737ba103a34329037bbb732b9)\n        /* \"#utility.yul\":3429:3447   */\n      0x44\n      dup3\n      add\n        /* \"#utility.yul\":3422:3465   */\n      mstore\n        /* \"#utility.yul\":3482:3500   */\n      0x64\n      add\n        /* \"SelfPractice-Jason.sol\":816:861  require(msg.sender == owner, \"Not the owner\") */\n      tag_58\n        /* \"#utility.yul\":3169:3506   */\n      jump\n        /* \"SelfPractice-Jason.sol\":816:861  require(msg.sender == owner, \"Not the owner\") */\n    tag_95:\n        /* \"SelfPractice-Jason.sol\":2327:2342  contractAddress */\n      sload(0x02)\n        /* \"SelfPractice-Jason.sol\":2298:2351  payable(msg.sender).transfer(contractAddress.balance) */\n      mload(0x40)\n        /* \"SelfPractice-Jason.sol\":2306:2316  msg.sender */\n      caller\n      swap2\n      sub(shl(0xa0, 0x01), 0x01)\n        /* \"SelfPractice-Jason.sol\":2327:2342  contractAddress */\n      and\n        /* \"SelfPractice-Jason.sol\":2327:2350  contractAddress.balance */\n      balance\n        /* \"SelfPractice-Jason.sol\":2298:2351  payable(msg.sender).transfer(contractAddress.balance) */\n      dup1\n      iszero\n      0x08fc\n      mul\n      swap2\n        /* \"SelfPractice-Jason.sol\":2327:2342  contractAddress */\n      0x00\n        /* \"SelfPractice-Jason.sol\":2298:2351  payable(msg.sender).transfer(contractAddress.balance) */\n      dup2\n        /* \"SelfPractice-Jason.sol\":2327:2342  contractAddress */\n      dup2\n        /* \"SelfPractice-Jason.sol\":2298:2351  payable(msg.sender).transfer(contractAddress.balance) */\n      dup2\n        /* \"SelfPractice-Jason.sol\":2327:2350  contractAddress.balance */\n      dup6\n        /* \"SelfPractice-Jason.sol\":2306:2316  msg.sender */\n      dup9\n        /* \"SelfPractice-Jason.sol\":2298:2351  payable(msg.sender).transfer(contractAddress.balance) */\n      dup9\n      call\n      swap4\n      pop\n      pop\n      pop\n      pop\n      iszero\n      dup1\n      iszero\n      tag_100\n      jumpi\n      returndatasize\n      0x00\n      dup1\n      returndatacopy\n      revert(0x00, returndatasize)\n    tag_100:\n      pop\n        /* \"SelfPractice-Jason.sol\":2246:2359  function getAllMoney() external onlyOwner{... */\n      jump\t// out\n        /* \"#utility.yul\":196:376   */\n    tag_30:\n        /* \"#utility.yul\":255:261   */\n      0x00\n        /* \"#utility.yul\":308:310   */\n      0x20\n        /* \"#utility.yul\":296:305   */\n      dup3\n        /* \"#utility.yul\":287:294   */\n      dup5\n        /* \"#utility.yul\":283:306   */\n      sub\n        /* \"#utility.yul\":279:311   */\n      slt\n        /* \"#utility.yul\":276:328   */\n      iszero\n      tag_105\n      jumpi\n        /* \"#utility.yul\":324:325   */\n      0x00\n        /* \"#utility.yul\":321:322   */\n      dup1\n        /* \"#utility.yul\":314:326   */\n      revert\n        /* \"#utility.yul\":276:328   */\n    tag_105:\n      pop\n        /* \"#utility.yul\":347:370   */\n      calldataload\n      swap2\n        /* \"#utility.yul\":196:376   */\n      swap1\n      pop\n      jump\t// out\n        /* \"#utility.yul\":1505:1632   */\n    tag_101:\n        /* \"#utility.yul\":1566:1576   */\n      0x4e487b71\n        /* \"#utility.yul\":1561:1564   */\n      0xe0\n        /* \"#utility.yul\":1557:1577   */\n      shl\n        /* \"#utility.yul\":1554:1555   */\n      0x00\n        /* \"#utility.yul\":1547:1578   */\n      mstore\n        /* \"#utility.yul\":1597:1601   */\n      0x11\n        /* \"#utility.yul\":1594:1595   */\n      0x04\n        /* \"#utility.yul\":1587:1602   */\n      mstore\n        /* \"#utility.yul\":1621:1625   */\n      0x24\n        /* \"#utility.yul\":1618:1619   */\n      0x00\n        /* \"#utility.yul\":1611:1626   */\n      revert\n        /* \"#utility.yul\":1637:1772   */\n    tag_66:\n        /* \"#utility.yul\":1676:1679   */\n      0x00\n        /* \"#utility.yul\":1697:1714   */\n      0x01\n      dup3\n      add\n        /* \"#utility.yul\":1694:1737   */\n      tag_113\n      jumpi\n        /* \"#utility.yul\":1717:1735   */\n      tag_113\n      tag_101\n      jump\t// in\n    tag_113:\n      pop\n        /* \"#utility.yul\":1764:1765   */\n      0x01\n        /* \"#utility.yul\":1753:1766   */\n      add\n      swap1\n        /* \"#utility.yul\":1637:1772   */\n      jump\t// out\n        /* \"#utility.yul\":2123:2251   */\n    tag_81:\n        /* \"#utility.yul\":2190:2199   */\n      dup2\n      dup2\n      sub\n        /* \"#utility.yul\":2211:2222   */\n      dup2\n      dup2\n      gt\n        /* \"#utility.yul\":2208:2245   */\n      iszero\n      tag_117\n      jumpi\n        /* \"#utility.yul\":2225:2243   */\n      tag_117\n      tag_101\n      jump\t// in\n    tag_117:\n        /* \"#utility.yul\":2123:2251   */\n      swap3\n      swap2\n      pop\n      pop\n      jump\t// out\n        /* \"#utility.yul\":2825:2950   */\n    tag_87:\n        /* \"#utility.yul\":2890:2899   */\n      dup1\n      dup3\n      add\n        /* \"#utility.yul\":2911:2921   */\n      dup1\n      dup3\n      gt\n        /* \"#utility.yul\":2908:2944   */\n      iszero\n      tag_117\n      jumpi\n        /* \"#utility.yul\":2924:2942   */\n      tag_117\n      tag_101\n      jump\t// in\n        /* \"#utility.yul\":2955:3164   */\n    tag_89:\n        /* \"#utility.yul\":2987:2988   */\n      0x00\n        /* \"#utility.yul\":3013:3014   */\n      dup3\n        /* \"#utility.yul\":3003:3135   */\n      tag_124\n      jumpi\n        /* \"#utility.yul\":3057:3067   */\n      0x4e487b71\n        /* \"#utility.yul\":3052:3055   */\n      0xe0\n        /* \"#utility.yul\":3048:3068   */\n      shl\n        /* \"#utility.yul\":3045:3046   */\n      0x00\n        /* \"#utility.yul\":3038:3069   */\n      mstore\n        /* \"#utility.yul\":3092:3096   */\n      0x12\n        /* \"#utility.yul\":3089:3090   */\n      0x04\n        /* \"#utility.yul\":3082:3097   */\n      mstore\n        /* \"#utility.yul\":3120:3124   */\n      0x24\n        /* \"#utility.yul\":3117:3118   */\n      0x00\n        /* \"#utility.yul\":3110:3125   */\n      revert\n        /* \"#utility.yul\":3003:3135   */\n    tag_124:\n      pop\n        /* \"#utility.yul\":3149:3158   */\n      mod\n      swap1\n        /* \"#utility.yul\":2955:3164   */\n      jump\t// out\n\n    auxdata: 0xa26469706673582212205b14e8408ff5fbd68ac672dc1ce6b28a353af4dc15bbefd5fee731b074a8d27764736f6c63430008130033\n}\n",
				"bytecode": {
					"linkReferences": {},
					"object": "60806040526000805560018055600280546001600160a01b0319163017905534801561002a57600080fd5b50600480546001600160a01b0319163317905561061e8061004c6000396000f3fe6080604052600436106100915760003560e01c80638da5cb5b116100595780638da5cb5b1461010b578063ac44600214610143578063dbdff2c114610158578063edb84ff71461016d578063f6b4dfb41461018257600080fd5b80630b01517c14610096578063103f90f4146100b957806312065fe0146100cf5780633f925f7a146100ee5780635873533d146100f8575b600080fd5b3480156100a257600080fd5b5033315b6040519081526020015b60405180910390f35b3480156100c557600080fd5b506100a660015481565b3480156100db57600080fd5b506002546001600160a01b0316316100a6565b6100f66101a2565b005b6100f6610106366004610552565b6101e6565b34801561011757600080fd5b5060045461012b906001600160a01b031681565b6040516001600160a01b0390911681526020016100b0565b34801561014f57600080fd5b506100f6610312565b34801561016457600080fd5b506100a66103d7565b34801561017957600080fd5b506100f66104cd565b34801561018e57600080fd5b5060025461012b906001600160a01b031681565b6002546040516001600160a01b039091163181527ff0b60c507a2e93235b6bed490cd5616aa2f43a849c3d167e96d6c5099b5524e5906020015b60405180910390a1565b600454600160a01b900460ff161561023d5760405162461bcd60e51b8152602060048201526015602482015274115c9c9bdc8e881499595b9d1c985b9d0818d85b1b605a1b60448201526064015b60405180910390fd5b6004805460ff60a01b1916600160a01b179055670de0b6b3a76400003410156102985760405162461bcd60e51b815260206004820152600d60248201526c73656e6420312065746865722160981b6044820152606401610234565b600a600154116102b857600180549060006102b283610581565b91905055505b806102c16103d7565b036102fa57600380546001600160a01b031916331790556102e0610312565b600380546001600160a01b03191690556002600155610302565b6103026101a2565b506004805460ff60a01b19169055565b6003546001600160a01b031633146103605760405162461bcd60e51b81526020600482015260116024820152702cb7ba9030b932903737ba103bb4b732b960791b6044820152606401610234565b60025460405133916001600160a01b03163180156108fc02916000818181858888f19350505050158015610398573d6000803e3d6000fd5b506002546040516001600160a01b039091163181527ff0b60c507a2e93235b6bed490cd5616aa2f43a849c3d167e96d6c5099b5524e5906020016101dc565b60008042446103e760014361059a565b60408051602081019490945283019190915240606082015260800160408051601f19818403018152828252805160209182012060008054928501829052928401919091529250906060016040516020818303038152906040528051906020012060001c9050600160008082825461045e91906105b3565b90915550506001547fed6ad2f84ff9379c0261f2ba89850d87d385f1f35c6d1254dd6b54f946a0567e9061049290836105c6565b61049d9060016105b3565b60405190815260200160405180910390a16001546104bb90826105c6565b6104c69060016105b3565b9250505090565b6004546001600160a01b031633146105175760405162461bcd60e51b815260206004820152600d60248201526c2737ba103a34329037bbb732b960991b6044820152606401610234565b60025460405133916001600160a01b03163180156108fc02916000818181858888f1935050505015801561054f573d6000803e3d6000fd5b50565b60006020828403121561056457600080fd5b5035919050565b634e487b7160e01b600052601160045260246000fd5b6000600182016105935761059361056b565b5060010190565b818103818111156105ad576105ad61056b565b92915050565b808201808211156105ad576105ad61056b565b6000826105e357634e487b7160e01b600052601260045260246000fd5b50069056fea26469706673582212205b14e8408ff5fbd68ac672dc1ce6b28a353af4dc15bbefd5fee731b074a8d27764736f6c63430008130033",
					"opcodes": "PUSH1 0x80 PUSH1 0x40 MSTORE PUSH1 0x0 DUP1 SSTORE PUSH1 0x1 DUP1 SSTORE PUSH1 0x2 DUP1 SLOAD PUSH1 0x1 PUSH1 0x1 PUSH1 0xA0 SHL SUB NOT AND ADDRESS OR SWAP1 SSTORE CALLVALUE DUP1 ISZERO PUSH2 0x2A JUMPI PUSH1 0x0 DUP1 REVERT JUMPDEST POP PUSH1 0x4 DUP1 SLOAD PUSH1 0x1 PUSH1 0x1 PUSH1 0xA0 SHL SUB NOT AND CALLER OR SWAP1 SSTORE PUSH2 0x61E DUP1 PUSH2 0x4C PUSH1 0x0 CODECOPY PUSH1 0x0 RETURN INVALID PUSH1 0x80 PUSH1 0x40 MSTORE PUSH1 0x4 CALLDATASIZE LT PUSH2 0x91 JUMPI PUSH1 0x0 CALLDATALOAD PUSH1 0xE0 SHR DUP1 PUSH4 0x8DA5CB5B GT PUSH2 0x59 JUMPI DUP1 PUSH4 0x8DA5CB5B EQ PUSH2 0x10B JUMPI DUP1 PUSH4 0xAC446002 EQ PUSH2 0x143 JUMPI DUP1 PUSH4 0xDBDFF2C1 EQ PUSH2 0x158 JUMPI DUP1 PUSH4 0xEDB84FF7 EQ PUSH2 0x16D JUMPI DUP1 PUSH4 0xF6B4DFB4 EQ PUSH2 0x182 JUMPI PUSH1 0x0 DUP1 REVERT JUMPDEST DUP1 PUSH4 0xB01517C EQ PUSH2 0x96 JUMPI DUP1 PUSH4 0x103F90F4 EQ PUSH2 0xB9 JUMPI DUP1 PUSH4 0x12065FE0 EQ PUSH2 0xCF JUMPI DUP1 PUSH4 0x3F925F7A EQ PUSH2 0xEE JUMPI DUP1 PUSH4 0x5873533D EQ PUSH2 0xF8 JUMPI JUMPDEST PUSH1 0x0 DUP1 REVERT JUMPDEST CALLVALUE DUP1 ISZERO PUSH2 0xA2 JUMPI PUSH1 0x0 DUP1 REVERT JUMPDEST POP CALLER BALANCE JUMPDEST PUSH1 0x40 MLOAD SWAP1 DUP2 MSTORE PUSH1 0x20 ADD JUMPDEST PUSH1 0x40 MLOAD DUP1 SWAP2 SUB SWAP1 RETURN JUMPDEST CALLVALUE DUP1 ISZERO PUSH2 0xC5 JUMPI PUSH1 0x0 DUP1 REVERT JUMPDEST POP PUSH2 0xA6 PUSH1 0x1 SLOAD DUP2 JUMP JUMPDEST CALLVALUE DUP1 ISZERO PUSH2 0xDB JUMPI PUSH1 0x0 DUP1 REVERT JUMPDEST POP PUSH1 0x2 SLOAD PUSH1 0x1 PUSH1 0x1 PUSH1 0xA0 SHL SUB AND BALANCE PUSH2 0xA6 JUMP JUMPDEST PUSH2 0xF6 PUSH2 0x1A2 JUMP JUMPDEST STOP JUMPDEST PUSH2 0xF6 PUSH2 0x106 CALLDATASIZE PUSH1 0x4 PUSH2 0x552 JUMP JUMPDEST PUSH2 0x1E6 JUMP JUMPDEST CALLVALUE DUP1 ISZERO PUSH2 0x117 JUMPI PUSH1 0x0 DUP1 REVERT JUMPDEST POP PUSH1 0x4 SLOAD PUSH2 0x12B SWAP1 PUSH1 0x1 PUSH1 0x1 PUSH1 0xA0 SHL SUB AND DUP2 JUMP JUMPDEST PUSH1 0x40 MLOAD PUSH1 0x1 PUSH1 0x1 PUSH1 0xA0 SHL SUB SWAP1 SWAP2 AND DUP2 MSTORE PUSH1 0x20 ADD PUSH2 0xB0 JUMP JUMPDEST CALLVALUE DUP1 ISZERO PUSH2 0x14F JUMPI PUSH1 0x0 DUP1 REVERT JUMPDEST POP PUSH2 0xF6 PUSH2 0x312 JUMP JUMPDEST CALLVALUE DUP1 ISZERO PUSH2 0x164 JUMPI PUSH1 0x0 DUP1 REVERT JUMPDEST POP PUSH2 0xA6 PUSH2 0x3D7 JUMP JUMPDEST CALLVALUE DUP1 ISZERO PUSH2 0x179 JUMPI PUSH1 0x0 DUP1 REVERT JUMPDEST POP PUSH2 0xF6 PUSH2 0x4CD JUMP JUMPDEST CALLVALUE DUP1 ISZERO PUSH2 0x18E JUMPI PUSH1 0x0 DUP1 REVERT JUMPDEST POP PUSH1 0x2 SLOAD PUSH2 0x12B SWAP1 PUSH1 0x1 PUSH1 0x1 PUSH1 0xA0 SHL SUB AND DUP2 JUMP JUMPDEST PUSH1 0x2 SLOAD PUSH1 0x40 MLOAD PUSH1 0x1 PUSH1 0x1 PUSH1 0xA0 SHL SUB SWAP1 SWAP2 AND BALANCE DUP2 MSTORE PUSH32 0xF0B60C507A2E93235B6BED490CD5616AA2F43A849C3D167E96D6C5099B5524E5 SWAP1 PUSH1 0x20 ADD JUMPDEST PUSH1 0x40 MLOAD DUP1 SWAP2 SUB SWAP1 LOG1 JUMP JUMPDEST PUSH1 0x4 SLOAD PUSH1 0x1 PUSH1 0xA0 SHL SWAP1 DIV PUSH1 0xFF AND ISZERO PUSH2 0x23D JUMPI PUSH1 0x40 MLOAD PUSH3 0x461BCD PUSH1 0xE5 SHL DUP2 MSTORE PUSH1 0x20 PUSH1 0x4 DUP3 ADD MSTORE PUSH1 0x15 PUSH1 0x24 DUP3 ADD MSTORE PUSH21 0x115C9C9BDC8E881499595B9D1C985B9D0818D85B1B PUSH1 0x5A SHL PUSH1 0x44 DUP3 ADD MSTORE PUSH1 0x64 ADD JUMPDEST PUSH1 0x40 MLOAD DUP1 SWAP2 SUB SWAP1 REVERT JUMPDEST PUSH1 0x4 DUP1 SLOAD PUSH1 0xFF PUSH1 0xA0 SHL NOT AND PUSH1 0x1 PUSH1 0xA0 SHL OR SWAP1 SSTORE PUSH8 0xDE0B6B3A7640000 CALLVALUE LT ISZERO PUSH2 0x298 JUMPI PUSH1 0x40 MLOAD PUSH3 0x461BCD PUSH1 0xE5 SHL DUP2 MSTORE PUSH1 0x20 PUSH1 0x4 DUP3 ADD MSTORE PUSH1 0xD PUSH1 0x24 DUP3 ADD MSTORE PUSH13 0x73656E64203120657468657221 PUSH1 0x98 SHL PUSH1 0x44 DUP3 ADD MSTORE PUSH1 0x64 ADD PUSH2 0x234 JUMP JUMPDEST PUSH1 0xA PUSH1 0x1 SLOAD GT PUSH2 0x2B8 JUMPI PUSH1 0x1 DUP1 SLOAD SWAP1 PUSH1 0x0 PUSH2 0x2B2 DUP4 PUSH2 0x581 JUMP JUMPDEST SWAP2 SWAP1 POP SSTORE POP JUMPDEST DUP1 PUSH2 0x2C1 PUSH2 0x3D7 JUMP JUMPDEST SUB PUSH2 0x2FA JUMPI PUSH1 0x3 DUP1 SLOAD PUSH1 0x1 PUSH1 0x1 PUSH1 0xA0 SHL SUB NOT AND CALLER OR SWAP1 SSTORE PUSH2 0x2E0 PUSH2 0x312 JUMP JUMPDEST PUSH1 0x3 DUP1 SLOAD PUSH1 0x1 PUSH1 0x1 PUSH1 0xA0 SHL SUB NOT AND SWAP1 SSTORE PUSH1 0x2 PUSH1 0x1 SSTORE PUSH2 0x302 JUMP JUMPDEST PUSH2 0x302 PUSH2 0x1A2 JUMP JUMPDEST POP PUSH1 0x4 DUP1 SLOAD PUSH1 0xFF PUSH1 0xA0 SHL NOT AND SWAP1 SSTORE JUMP JUMPDEST PUSH1 0x3 SLOAD PUSH1 0x1 PUSH1 0x1 PUSH1 0xA0 SHL SUB AND CALLER EQ PUSH2 0x360 JUMPI PUSH1 0x40 MLOAD PUSH3 0x461BCD PUSH1 0xE5 SHL DUP2 MSTORE PUSH1 0x20 PUSH1 0x4 DUP3 ADD MSTORE PUSH1 0x11 PUSH1 0x24 DUP3 ADD MSTORE PUSH17 0x2CB7BA9030B932903737BA103BB4B732B9 PUSH1 0x79 SHL PUSH1 0x44 DUP3 ADD MSTORE PUSH1 0x64 ADD PUSH2 0x234 JUMP JUMPDEST PUSH1 0x2 SLOAD PUSH1 0x40 MLOAD CALLER SWAP2 PUSH1 0x1 PUSH1 0x1 PUSH1 0xA0 SHL SUB AND BALANCE DUP1 ISZERO PUSH2 0x8FC MUL SWAP2 PUSH1 0x0 DUP2 DUP2 DUP2 DUP6 DUP9 DUP9 CALL SWAP4 POP POP POP POP ISZERO DUP1 ISZERO PUSH2 0x398 JUMPI RETURNDATASIZE PUSH1 0x0 DUP1 RETURNDATACOPY RETURNDATASIZE PUSH1 0x0 REVERT JUMPDEST POP PUSH1 0x2 SLOAD PUSH1 0x40 MLOAD PUSH1 0x1 PUSH1 0x1 PUSH1 0xA0 SHL SUB SWAP1 SWAP2 AND BALANCE DUP2 MSTORE PUSH32 0xF0B60C507A2E93235B6BED490CD5616AA2F43A849C3D167E96D6C5099B5524E5 SWAP1 PUSH1 0x20 ADD PUSH2 0x1DC JUMP JUMPDEST PUSH1 0x0 DUP1 TIMESTAMP PREVRANDAO PUSH2 0x3E7 PUSH1 0x1 NUMBER PUSH2 0x59A JUMP JUMPDEST PUSH1 0x40 DUP1 MLOAD PUSH1 0x20 DUP2 ADD SWAP5 SWAP1 SWAP5 MSTORE DUP4 ADD SWAP2 SWAP1 SWAP2 MSTORE BLOCKHASH PUSH1 0x60 DUP3 ADD MSTORE PUSH1 0x80 ADD PUSH1 0x40 DUP1 MLOAD PUSH1 0x1F NOT DUP2 DUP5 SUB ADD DUP2 MSTORE DUP3 DUP3 MSTORE DUP1 MLOAD PUSH1 0x20 SWAP2 DUP3 ADD KECCAK256 PUSH1 0x0 DUP1 SLOAD SWAP3 DUP6 ADD DUP3 SWAP1 MSTORE SWAP3 DUP5 ADD SWAP2 SWAP1 SWAP2 MSTORE SWAP3 POP SWAP1 PUSH1 0x60 ADD PUSH1 0x40 MLOAD PUSH1 0x20 DUP2 DUP4 SUB SUB DUP2 MSTORE SWAP1 PUSH1 0x40 MSTORE DUP1 MLOAD SWAP1 PUSH1 0x20 ADD KECCAK256 PUSH1 0x0 SHR SWAP1 POP PUSH1 0x1 PUSH1 0x0 DUP1 DUP3 DUP3 SLOAD PUSH2 0x45E SWAP2 SWAP1 PUSH2 0x5B3 JUMP JUMPDEST SWAP1 SWAP2 SSTORE POP POP PUSH1 0x1 SLOAD PUSH32 0xED6AD2F84FF9379C0261F2BA89850D87D385F1F35C6D1254DD6B54F946A0567E SWAP1 PUSH2 0x492 SWAP1 DUP4 PUSH2 0x5C6 JUMP JUMPDEST PUSH2 0x49D SWAP1 PUSH1 0x1 PUSH2 0x5B3 JUMP JUMPDEST PUSH1 0x40 MLOAD SWAP1 DUP2 MSTORE PUSH1 0x20 ADD PUSH1 0x40 MLOAD DUP1 SWAP2 SUB SWAP1 LOG1 PUSH1 0x1 SLOAD PUSH2 0x4BB SWAP1 DUP3 PUSH2 0x5C6 JUMP JUMPDEST PUSH2 0x4C6 SWAP1 PUSH1 0x1 PUSH2 0x5B3 JUMP JUMPDEST SWAP3 POP POP POP SWAP1 JUMP JUMPDEST PUSH1 0x4 SLOAD PUSH1 0x1 PUSH1 0x1 PUSH1 0xA0 SHL SUB AND CALLER EQ PUSH2 0x517 JUMPI PUSH1 0x40 MLOAD PUSH3 0x461BCD PUSH1 0xE5 SHL DUP2 MSTORE PUSH1 0x20 PUSH1 0x4 DUP3 ADD MSTORE PUSH1 0xD PUSH1 0x24 DUP3 ADD MSTORE PUSH13 0x2737BA103A34329037BBB732B9 PUSH1 0x99 SHL PUSH1 0x44 DUP3 ADD MSTORE PUSH1 0x64 ADD PUSH2 0x234 JUMP JUMPDEST PUSH1 0x2 SLOAD PUSH1 0x40 MLOAD CALLER SWAP2 PUSH1 0x1 PUSH1 0x1 PUSH1 0xA0 SHL SUB AND BALANCE DUP1 ISZERO PUSH2 0x8FC MUL SWAP2 PUSH1 0x0 DUP2 DUP2 DUP2 DUP6 DUP9 DUP9 CALL SWAP4 POP POP POP POP ISZERO DUP1 ISZERO PUSH2 0x54F JUMPI RETURNDATASIZE PUSH1 0x0 DUP1 RETURNDATACOPY RETURNDATASIZE PUSH1 0x0 REVERT JUMPDEST POP JUMP JUMPDEST PUSH1 0x0 PUSH1 0x20 DUP3 DUP5 SUB SLT ISZERO PUSH2 0x564 JUMPI PUSH1 0x0 DUP1 REVERT JUMPDEST POP CALLDATALOAD SWAP2 SWAP1 POP JUMP JUMPDEST PUSH4 0x4E487B71 PUSH1 0xE0 SHL PUSH1 0x0 MSTORE PUSH1 0x11 PUSH1 0x4 MSTORE PUSH1 0x24 PUSH1 0x0 REVERT JUMPDEST PUSH1 0x0 PUSH1 0x1 DUP3 ADD PUSH2 0x593 JUMPI PUSH2 0x593 PUSH2 0x56B JUMP JUMPDEST POP PUSH1 0x1 ADD SWAP1 JUMP JUMPDEST DUP2 DUP2 SUB DUP2 DUP2 GT ISZERO PUSH2 0x5AD JUMPI PUSH2 0x5AD PUSH2 0x56B JUMP JUMPDEST SWAP3 SWAP2 POP POP JUMP JUMPDEST DUP1 DUP3 ADD DUP1 DUP3 GT ISZERO PUSH2 0x5AD JUMPI PUSH2 0x5AD PUSH2 0x56B JUMP JUMPDEST PUSH1 0x0 DUP3 PUSH2 0x5E3 JUMPI PUSH4 0x4E487B71 PUSH1 0xE0 SHL PUSH1 0x0 MSTORE PUSH1 0x12 PUSH1 0x4 MSTORE PUSH1 0x24 PUSH1 0x0 REVERT JUMPDEST POP MOD SWAP1 JUMP INVALID LOG2 PUSH5 0x6970667358 0x22 SLT KECCAK256 JUMPDEST EQ 0xE8 BLOCKHASH DUP16 CREATE2 0xFB 0xD6 DUP11 0xC6 PUSH19 0xDC1CE6B28A353AF4DC15BBEFD5FEE731B074A8 0xD2 PUSH24 0x64736F6C6343000813003300000000000000000000000000 "
				},
				"gasEstimates": {
					"creation": {
						"codeDepositCost": "313200",
						"executionCost": "75931",
						"totalCost": "389131"
					},
					"external": {
						"contractAddress()": "2425",
						"depositeMoney()": "5969",
						"getAllMoney()": "infinite",
						"getBalance()": "4944",
						"getPlayerBalance()": "2770",
						"getRandomNumber()": "infinite",
						"numberCount()": "2307",
						"owner()": "2337",
						"playGame(uint256)": "infinite",
						"withdrawMoney()": "infinite"
					}
				},
				"methodIdentifiers": {
					"contractAddress()": "f6b4dfb4",
					"depositeMoney()": "3f925f7a",
					"getAllMoney()": "edb84ff7",
					"getBalance()": "12065fe0",
					"getPlayerBalance()": "0b01517c",
					"getRandomNumber()": "dbdff2c1",
					"numberCount()": "103f90f4",
					"owner()": "8da5cb5b",
					"playGame(uint256)": "5873533d",
					"withdrawMoney()": "ac446002"
				}
			},
			"storageLayout": {
				"storage": [
					{
						"astId": 4,
						"contract": "SelfPractice-Jason.sol:payAndPlay",
						"label": "salt",
						"offset": 0,
						"slot": "0",
						"type": "t_uint256"
					},
					{
						"astId": 7,
						"contract": "SelfPractice-Jason.sol:payAndPlay",
						"label": "numberCount",
						"offset": 0,
						"slot": "1",
						"type": "t_uint256"
					},
					{
						"astId": 16,
						"contract": "SelfPractice-Jason.sol:payAndPlay",
						"label": "contractAddress",
						"offset": 0,
						"slot": "2",
						"type": "t_address_payable"
					},
					{
						"astId": 18,
						"contract": "SelfPractice-Jason.sol:payAndPlay",
						"label": "playerAddress",
						"offset": 0,
						"slot": "3",
						"type": "t_address"
					},
					{
						"astId": 20,
						"contract": "SelfPractice-Jason.sol:payAndPlay",
						"label": "owner",
						"offset": 0,
						"slot": "4",
						"type": "t_address"
					},
					{
						"astId": 22,
						"contract": "SelfPractice-Jason.sol:payAndPlay",
						"label": "locked",
						"offset": 20,
						"slot": "4",
						"type": "t_bool"
					}
				],
				"types": {
					"t_address": {
						"encoding": "inplace",
						"label": "address",
						"numberOfBytes": "20"
					},
					"t_address_payable": {
						"encoding": "inplace",
						"label": "address payable",
						"numberOfBytes": "20"
					},
					"t_bool": {
						"encoding": "inplace",
						"label": "bool",
						"numberOfBytes": "1"
					},
					"t_uint256": {
						"encoding": "inplace",
						"label": "uint256",
						"numberOfBytes": "32"
					}
				}
			},
			"userdoc": {
				"kind": "user",
				"methods": {},
				"version": 1
			}
		}
	}
}