{
	"Practical3-Use-UI_Play-Jason.sol": {
		"RockPaperScissors": {
			"abi": [
				{
					"anonymous": false,
					"inputs": [
						{
							"indexed": false,
							"internalType": "address",
							"name": "user1",
							"type": "address"
						},
						{
							"indexed": false,
							"internalType": "address",
							"name": "user2",
							"type": "address"
						}
					],
					"name": "inputOption",
					"type": "event"
				},
				{
					"anonymous": false,
					"inputs": [
						{
							"indexed": false,
							"internalType": "string",
							"name": "",
							"type": "string"
						}
					],
					"name": "showError",
					"type": "event"
				},
				{
					"anonymous": false,
					"inputs": [
						{
							"indexed": false,
							"internalType": "string",
							"name": "logResult",
							"type": "string"
						}
					],
					"name": "showResult",
					"type": "event"
				},
				{
					"anonymous": false,
					"inputs": [
						{
							"indexed": true,
							"internalType": "address",
							"name": "logUserAddress",
							"type": "address"
						}
					],
					"name": "showUserAddress",
					"type": "event"
				},
				{
					"inputs": [],
					"name": "getGameHistory",
					"outputs": [
						{
							"components": [
								{
									"components": [
										{
											"internalType": "address",
											"name": "userAddress",
											"type": "address"
										},
										{
											"internalType": "uint256",
											"name": "userOption",
											"type": "uint256"
										}
									],
									"internalType": "struct RockPaperScissors.UserInfo",
									"name": "user1",
									"type": "tuple"
								},
								{
									"components": [
										{
											"internalType": "address",
											"name": "userAddress",
											"type": "address"
										},
										{
											"internalType": "uint256",
											"name": "userOption",
											"type": "uint256"
										}
									],
									"internalType": "struct RockPaperScissors.UserInfo",
									"name": "user2",
									"type": "tuple"
								},
								{
									"internalType": "string",
									"name": "finalResult",
									"type": "string"
								}
							],
							"internalType": "struct RockPaperScissors.GameInfo[]",
							"name": "",
							"type": "tuple[]"
						}
					],
					"stateMutability": "view",
					"type": "function"
				},
				{
					"inputs": [],
					"name": "getGameHistoryLength",
					"outputs": [
						{
							"internalType": "uint256",
							"name": "",
							"type": "uint256"
						}
					],
					"stateMutability": "view",
					"type": "function"
				},
				{
					"inputs": [
						{
							"internalType": "uint256",
							"name": "index",
							"type": "uint256"
						}
					],
					"name": "getSpecificGameHistory",
					"outputs": [
						{
							"components": [
								{
									"components": [
										{
											"internalType": "address",
											"name": "userAddress",
											"type": "address"
										},
										{
											"internalType": "uint256",
											"name": "userOption",
											"type": "uint256"
										}
									],
									"internalType": "struct RockPaperScissors.UserInfo",
									"name": "user1",
									"type": "tuple"
								},
								{
									"components": [
										{
											"internalType": "address",
											"name": "userAddress",
											"type": "address"
										},
										{
											"internalType": "uint256",
											"name": "userOption",
											"type": "uint256"
										}
									],
									"internalType": "struct RockPaperScissors.UserInfo",
									"name": "user2",
									"type": "tuple"
								},
								{
									"internalType": "string",
									"name": "finalResult",
									"type": "string"
								}
							],
							"internalType": "struct RockPaperScissors.GameInfo",
							"name": "",
							"type": "tuple"
						}
					],
					"stateMutability": "view",
					"type": "function"
				},
				{
					"inputs": [
						{
							"internalType": "uint256",
							"name": "index",
							"type": "uint256"
						}
					],
					"name": "getUser1",
					"outputs": [
						{
							"components": [
								{
									"internalType": "address",
									"name": "userAddress",
									"type": "address"
								},
								{
									"internalType": "uint256",
									"name": "userOption",
									"type": "uint256"
								}
							],
							"internalType": "struct RockPaperScissors.UserInfo",
							"name": "",
							"type": "tuple"
						}
					],
					"stateMutability": "view",
					"type": "function"
				},
				{
					"inputs": [],
					"name": "play",
					"outputs": [],
					"stateMutability": "nonpayable",
					"type": "function"
				},
				{
					"inputs": [],
					"name": "user1address",
					"outputs": [
						{
							"internalType": "address",
							"name": "",
							"type": "address"
						}
					],
					"stateMutability": "view",
					"type": "function"
				},
				{
					"inputs": [],
					"name": "user2address",
					"outputs": [
						{
							"internalType": "address",
							"name": "",
							"type": "address"
						}
					],
					"stateMutability": "view",
					"type": "function"
				},
				{
					"inputs": [
						{
							"internalType": "uint256",
							"name": "option",
							"type": "uint256"
						}
					],
					"name": "userEnterOption",
					"outputs": [],
					"stateMutability": "nonpayable",
					"type": "function"
				}
			],
			"devdoc": {
				"kind": "dev",
				"methods": {},
				"version": 1
			},
			"evm": {
				"assembly": "    /* \"Practical3-Use-UI_Play-Jason.sol\":60:5922  contract RockPaperScissors {... */\n  mstore(0x40, 0x80)\n    /* \"Practical3-Use-UI_Play-Jason.sol\":531:532  0 */\n  0x00\n    /* \"Practical3-Use-UI_Play-Jason.sol\":506:532  uint private userCount = 0 */\n  dup1\n  sstore\n    /* \"Practical3-Use-UI_Play-Jason.sol\":60:5922  contract RockPaperScissors {... */\n  callvalue\n  dup1\n  iszero\n  tag_1\n  jumpi\n  0x00\n  dup1\n  revert\ntag_1:\n  pop\n  dataSize(sub_0)\n  dup1\n  dataOffset(sub_0)\n  0x00\n  codecopy\n  0x00\n  return\nstop\n\nsub_0: assembly {\n        /* \"Practical3-Use-UI_Play-Jason.sol\":60:5922  contract RockPaperScissors {... */\n      mstore(0x40, 0x80)\n      callvalue\n      dup1\n      iszero\n      tag_1\n      jumpi\n      0x00\n      dup1\n      revert\n    tag_1:\n      pop\n      jumpi(tag_2, lt(calldatasize, 0x04))\n      shr(0xe0, calldataload(0x00))\n      dup1\n      0x6ef595d8\n      gt\n      tag_11\n      jumpi\n      dup1\n      0x6ef595d8\n      eq\n      tag_7\n      jumpi\n      dup1\n      0x93e84cd9\n      eq\n      tag_8\n      jumpi\n      dup1\n      0xe417f4a3\n      eq\n      tag_9\n      jumpi\n      dup1\n      0xf7c4efbb\n      eq\n      tag_10\n      jumpi\n      0x00\n      dup1\n      revert\n    tag_11:\n      dup1\n      0x1eed565b\n      eq\n      tag_3\n      jumpi\n      dup1\n      0x2cde7869\n      eq\n      tag_4\n      jumpi\n      dup1\n      0x3d5e9d2d\n      eq\n      tag_5\n      jumpi\n      dup1\n      0x512ec557\n      eq\n      tag_6\n      jumpi\n    tag_2:\n      0x00\n      dup1\n      revert\n        /* \"Practical3-Use-UI_Play-Jason.sol\":1310:1415  function getGameHistoryLength() external view returns(uint){... */\n    tag_3:\n        /* \"Practical3-Use-UI_Play-Jason.sol\":1388:1399  gameHistory */\n      0x01\n        /* \"Practical3-Use-UI_Play-Jason.sol\":1388:1406  gameHistory.length */\n      sload\n        /* \"Practical3-Use-UI_Play-Jason.sol\":1310:1415  function getGameHistoryLength() external view returns(uint){... */\n      mload(0x40)\n        /* \"#utility.yul\":160:185   */\n      swap1\n      dup2\n      mstore\n        /* \"#utility.yul\":148:150   */\n      0x20\n        /* \"#utility.yul\":133:151   */\n      add\n        /* \"Practical3-Use-UI_Play-Jason.sol\":1310:1415  function getGameHistoryLength() external view returns(uint){... */\n    tag_14:\n      mload(0x40)\n      dup1\n      swap2\n      sub\n      swap1\n      return\n        /* \"Practical3-Use-UI_Play-Jason.sol\":3616:4707  function userEnterOption (uint option) external {... */\n    tag_4:\n      tag_16\n      tag_17\n      calldatasize\n      0x04\n      tag_18\n      jump\t// in\n    tag_17:\n      tag_19\n      jump\t// in\n    tag_16:\n      stop\n        /* \"Practical3-Use-UI_Play-Jason.sol\":746:773  address public user2address */\n    tag_5:\n      sload(0x03)\n      tag_20\n      swap1\n      sub(shl(0xa0, 0x01), 0x01)\n      and\n      dup2\n      jump\n    tag_20:\n      mload(0x40)\n      sub(shl(0xa0, 0x01), 0x01)\n        /* \"#utility.yul\":545:577   */\n      swap1\n      swap2\n      and\n        /* \"#utility.yul\":527:578   */\n      dup2\n      mstore\n        /* \"#utility.yul\":515:517   */\n      0x20\n        /* \"#utility.yul\":500:518   */\n      add\n        /* \"Practical3-Use-UI_Play-Jason.sol\":746:773  address public user2address */\n      tag_14\n        /* \"#utility.yul\":381:584   */\n      jump\n        /* \"Practical3-Use-UI_Play-Jason.sol\":1471:1628  function getGameHistory () external view returns(GameInfo[] memory){... */\n    tag_6:\n      tag_24\n      tag_25\n      jump\t// in\n    tag_24:\n      mload(0x40)\n      tag_14\n      swap2\n      swap1\n      tag_27\n      jump\t// in\n        /* \"Practical3-Use-UI_Play-Jason.sol\":712:739  address public user1address */\n    tag_7:\n      sload(0x02)\n      tag_20\n      swap1\n      0x0100\n      swap1\n      div\n      sub(shl(0xa0, 0x01), 0x01)\n      and\n      dup2\n      jump\n        /* \"Practical3-Use-UI_Play-Jason.sol\":2272:3568  function play () external noReentrancy{... */\n    tag_8:\n      tag_16\n      tag_32\n      jump\t// in\n        /* \"Practical3-Use-UI_Play-Jason.sol\":1017:1261  function getUser1 (uint index) external view returns(UserInfo memory){... */\n    tag_9:\n      tag_33\n      tag_34\n      calldatasize\n      0x04\n      tag_18\n      jump\t// in\n    tag_34:\n      tag_35\n      jump\t// in\n    tag_33:\n      mload(0x40)\n      tag_14\n      swap2\n      swap1\n      tag_37\n      jump\t// in\n        /* \"Practical3-Use-UI_Play-Jason.sol\":1636:1890  function getSpecificGameHistory (uint index) external view returns(GameInfo memory){... */\n    tag_10:\n      tag_38\n      tag_39\n      calldatasize\n      0x04\n      tag_18\n      jump\t// in\n    tag_39:\n      tag_40\n      jump\t// in\n    tag_38:\n      mload(0x40)\n      tag_14\n      swap2\n      swap1\n      tag_42\n      jump\t// in\n        /* \"Practical3-Use-UI_Play-Jason.sol\":3616:4707  function userEnterOption (uint option) external {... */\n    tag_19:\n        /* \"Practical3-Use-UI_Play-Jason.sol\":3692:3703  gameHistory */\n      0x01\n        /* \"Practical3-Use-UI_Play-Jason.sol\":3704:3722  gameHistory.length */\n      dup1\n      sload\n        /* \"Practical3-Use-UI_Play-Jason.sol\":3704:3726  gameHistory.length - 1 */\n      tag_45\n      swap1\n        /* \"Practical3-Use-UI_Play-Jason.sol\":3692:3703  gameHistory */\n      dup3\n      swap1\n        /* \"Practical3-Use-UI_Play-Jason.sol\":3704:3726  gameHistory.length - 1 */\n      tag_46\n      jump\t// in\n    tag_45:\n        /* \"Practical3-Use-UI_Play-Jason.sol\":3692:3727  gameHistory[gameHistory.length - 1] */\n      dup2\n      sload\n      dup2\n      lt\n      tag_48\n      jumpi\n      tag_48\n      tag_49\n      jump\t// in\n    tag_48:\n      0x00\n      swap2\n      dup3\n      mstore\n      0x20\n      swap1\n      swap2\n      keccak256\n      0x05\n      swap1\n      swap2\n      mul\n      add\n        /* \"Practical3-Use-UI_Play-Jason.sol\":3692:3745  gameHistory[gameHistory.length - 1].user1.userAddress */\n      sload\n      sub(shl(0xa0, 0x01), 0x01)\n      and\n        /* \"Practical3-Use-UI_Play-Jason.sol\":3678:3688  msg.sender */\n      caller\n        /* \"Practical3-Use-UI_Play-Jason.sol\":3678:3745  msg.sender == gameHistory[gameHistory.length - 1].user1.userAddress */\n      sub\n        /* \"Practical3-Use-UI_Play-Jason.sol\":3675:4313  if(msg.sender == gameHistory[gameHistory.length - 1].user1.userAddress){... */\n      tag_51\n      jumpi\n        /* \"Practical3-Use-UI_Play-Jason.sol\":3769:3780  gameHistory */\n      0x01\n        /* \"Practical3-Use-UI_Play-Jason.sol\":3781:3799  gameHistory.length */\n      dup1\n      sload\n        /* \"Practical3-Use-UI_Play-Jason.sol\":3781:3803  gameHistory.length - 1 */\n      tag_52\n      swap1\n        /* \"Practical3-Use-UI_Play-Jason.sol\":3769:3780  gameHistory */\n      dup3\n      swap1\n        /* \"Practical3-Use-UI_Play-Jason.sol\":3781:3803  gameHistory.length - 1 */\n      tag_46\n      jump\t// in\n    tag_52:\n        /* \"Practical3-Use-UI_Play-Jason.sol\":3769:3804  gameHistory[gameHistory.length - 1] */\n      dup2\n      sload\n      dup2\n      lt\n      tag_54\n      jumpi\n      tag_54\n      tag_49\n      jump\t// in\n    tag_54:\n      swap1\n      0x00\n      mstore\n      keccak256(0x00, 0x20)\n      swap1\n      0x05\n      mul\n      add\n        /* \"Practical3-Use-UI_Play-Jason.sol\":3769:3810  gameHistory[gameHistory.length - 1].user1 */\n      0x00\n      add\n        /* \"Practical3-Use-UI_Play-Jason.sol\":3769:3821  gameHistory[gameHistory.length - 1].user1.userOption */\n      0x01\n      add\n      sload\n        /* \"Practical3-Use-UI_Play-Jason.sol\":3825:3826  0 */\n      0x00\n        /* \"Practical3-Use-UI_Play-Jason.sol\":3769:3826  gameHistory[gameHistory.length - 1].user1.userOption == 0 */\n      eq\n        /* \"Practical3-Use-UI_Play-Jason.sol\":3761:3877  require(gameHistory[gameHistory.length - 1].user1.userOption == 0, \"You already select option and it cannot change\") */\n      tag_56\n      jumpi\n      mload(0x40)\n      shl(0xe5, 0x461bcd)\n      dup2\n      mstore\n      0x04\n      add\n      tag_57\n      swap1\n      tag_58\n      jump\t// in\n    tag_57:\n      mload(0x40)\n      dup1\n      swap2\n      sub\n      swap1\n      revert\n    tag_56:\n        /* \"Practical3-Use-UI_Play-Jason.sol\":3892:3903  gameHistory */\n      0x01\n        /* \"Practical3-Use-UI_Play-Jason.sol\":3904:3922  gameHistory.length */\n      dup1\n      sload\n        /* \"Practical3-Use-UI_Play-Jason.sol\":3947:3953  option */\n      dup3\n      swap2\n        /* \"Practical3-Use-UI_Play-Jason.sol\":3892:3903  gameHistory */\n      swap1\n        /* \"Practical3-Use-UI_Play-Jason.sol\":3904:3926  gameHistory.length - 1 */\n      tag_59\n      swap1\n        /* \"Practical3-Use-UI_Play-Jason.sol\":3892:3903  gameHistory */\n      dup3\n      swap1\n        /* \"Practical3-Use-UI_Play-Jason.sol\":3904:3926  gameHistory.length - 1 */\n      tag_46\n      jump\t// in\n    tag_59:\n        /* \"Practical3-Use-UI_Play-Jason.sol\":3892:3927  gameHistory[gameHistory.length - 1] */\n      dup2\n      sload\n      dup2\n      lt\n      tag_61\n      jumpi\n      tag_61\n      tag_49\n      jump\t// in\n    tag_61:\n      0x00\n      swap2\n      dup3\n      mstore\n      0x20\n      swap1\n      swap2\n      keccak256\n        /* \"Practical3-Use-UI_Play-Jason.sol\":3892:3944  gameHistory[gameHistory.length - 1].user1.userOption */\n      0x01\n        /* \"Practical3-Use-UI_Play-Jason.sol\":3892:3927  gameHistory[gameHistory.length - 1] */\n      0x05\n      swap1\n      swap3\n      mul\n      add\n        /* \"Practical3-Use-UI_Play-Jason.sol\":3892:3944  gameHistory[gameHistory.length - 1].user1.userOption */\n      add\n        /* \"Practical3-Use-UI_Play-Jason.sol\":3892:3953  gameHistory[gameHistory.length - 1].user1.userOption = option */\n      sstore\n        /* \"Practical3-Use-UI_Play-Jason.sol\":3675:4313  if(msg.sender == gameHistory[gameHistory.length - 1].user1.userAddress){... */\n      jump(tag_68)\n    tag_51:\n        /* \"Practical3-Use-UI_Play-Jason.sol\":4011:4022  gameHistory */\n      0x01\n        /* \"Practical3-Use-UI_Play-Jason.sol\":4023:4041  gameHistory.length */\n      dup1\n      sload\n        /* \"Practical3-Use-UI_Play-Jason.sol\":4023:4045  gameHistory.length - 1 */\n      tag_64\n      swap1\n        /* \"Practical3-Use-UI_Play-Jason.sol\":4011:4022  gameHistory */\n      dup3\n      swap1\n        /* \"Practical3-Use-UI_Play-Jason.sol\":4023:4045  gameHistory.length - 1 */\n      tag_46\n      jump\t// in\n    tag_64:\n        /* \"Practical3-Use-UI_Play-Jason.sol\":4011:4046  gameHistory[gameHistory.length - 1] */\n      dup2\n      sload\n      dup2\n      lt\n      tag_66\n      jumpi\n      tag_66\n      tag_49\n      jump\t// in\n    tag_66:\n      0x00\n      swap2\n      dup3\n      mstore\n      0x20\n      swap1\n      swap2\n      keccak256\n        /* \"Practical3-Use-UI_Play-Jason.sol\":4011:4052  gameHistory[gameHistory.length - 1].user2 */\n      0x02\n        /* \"Practical3-Use-UI_Play-Jason.sol\":4011:4046  gameHistory[gameHistory.length - 1] */\n      0x05\n      swap1\n      swap3\n      mul\n      add\n        /* \"Practical3-Use-UI_Play-Jason.sol\":4011:4052  gameHistory[gameHistory.length - 1].user2 */\n      add\n        /* \"Practical3-Use-UI_Play-Jason.sol\":4011:4064  gameHistory[gameHistory.length - 1].user2.userAddress */\n      sload\n      sub(shl(0xa0, 0x01), 0x01)\n      and\n        /* \"Practical3-Use-UI_Play-Jason.sol\":3997:4007  msg.sender */\n      caller\n        /* \"Practical3-Use-UI_Play-Jason.sol\":3997:4064  msg.sender == gameHistory[gameHistory.length - 1].user2.userAddress */\n      sub\n        /* \"Practical3-Use-UI_Play-Jason.sol\":3994:4296  if(msg.sender == gameHistory[gameHistory.length - 1].user2.userAddress){... */\n      tag_68\n      jumpi\n        /* \"Practical3-Use-UI_Play-Jason.sol\":4092:4103  gameHistory */\n      0x01\n        /* \"Practical3-Use-UI_Play-Jason.sol\":4104:4122  gameHistory.length */\n      dup1\n      sload\n        /* \"Practical3-Use-UI_Play-Jason.sol\":4104:4126  gameHistory.length - 1 */\n      tag_69\n      swap1\n        /* \"Practical3-Use-UI_Play-Jason.sol\":4092:4103  gameHistory */\n      dup3\n      swap1\n        /* \"Practical3-Use-UI_Play-Jason.sol\":4104:4126  gameHistory.length - 1 */\n      tag_46\n      jump\t// in\n    tag_69:\n        /* \"Practical3-Use-UI_Play-Jason.sol\":4092:4127  gameHistory[gameHistory.length - 1] */\n      dup2\n      sload\n      dup2\n      lt\n      tag_71\n      jumpi\n      tag_71\n      tag_49\n      jump\t// in\n    tag_71:\n      swap1\n      0x00\n      mstore\n      keccak256(0x00, 0x20)\n      swap1\n      0x05\n      mul\n      add\n        /* \"Practical3-Use-UI_Play-Jason.sol\":4092:4133  gameHistory[gameHistory.length - 1].user2 */\n      0x02\n      add\n        /* \"Practical3-Use-UI_Play-Jason.sol\":4092:4144  gameHistory[gameHistory.length - 1].user2.userOption */\n      0x01\n      add\n      sload\n        /* \"Practical3-Use-UI_Play-Jason.sol\":4148:4149  0 */\n      0x00\n        /* \"Practical3-Use-UI_Play-Jason.sol\":4092:4149  gameHistory[gameHistory.length - 1].user2.userOption == 0 */\n      eq\n        /* \"Practical3-Use-UI_Play-Jason.sol\":4084:4200  require(gameHistory[gameHistory.length - 1].user2.userOption == 0, \"You already select option and it cannot change\") */\n      tag_73\n      jumpi\n      mload(0x40)\n      shl(0xe5, 0x461bcd)\n      dup2\n      mstore\n      0x04\n      add\n      tag_57\n      swap1\n      tag_58\n      jump\t// in\n    tag_73:\n        /* \"Practical3-Use-UI_Play-Jason.sol\":4219:4230  gameHistory */\n      0x01\n        /* \"Practical3-Use-UI_Play-Jason.sol\":4231:4249  gameHistory.length */\n      dup1\n      sload\n        /* \"Practical3-Use-UI_Play-Jason.sol\":4274:4280  option */\n      dup3\n      swap2\n        /* \"Practical3-Use-UI_Play-Jason.sol\":4219:4230  gameHistory */\n      swap1\n        /* \"Practical3-Use-UI_Play-Jason.sol\":4231:4253  gameHistory.length - 1 */\n      tag_75\n      swap1\n        /* \"Practical3-Use-UI_Play-Jason.sol\":4219:4230  gameHistory */\n      dup3\n      swap1\n        /* \"Practical3-Use-UI_Play-Jason.sol\":4231:4253  gameHistory.length - 1 */\n      tag_46\n      jump\t// in\n    tag_75:\n        /* \"Practical3-Use-UI_Play-Jason.sol\":4219:4254  gameHistory[gameHistory.length - 1] */\n      dup2\n      sload\n      dup2\n      lt\n      tag_77\n      jumpi\n      tag_77\n      tag_49\n      jump\t// in\n    tag_77:\n      0x00\n      swap2\n      dup3\n      mstore\n      0x20\n      swap1\n      swap2\n      keccak256\n        /* \"Practical3-Use-UI_Play-Jason.sol\":4219:4271  gameHistory[gameHistory.length - 1].user2.userOption */\n      0x03\n        /* \"Practical3-Use-UI_Play-Jason.sol\":4219:4254  gameHistory[gameHistory.length - 1] */\n      0x05\n      swap1\n      swap3\n      mul\n      add\n        /* \"Practical3-Use-UI_Play-Jason.sol\":4219:4271  gameHistory[gameHistory.length - 1].user2.userOption */\n      add\n        /* \"Practical3-Use-UI_Play-Jason.sol\":4219:4280  gameHistory[gameHistory.length - 1].user2.userOption = option */\n      sstore\n        /* \"Practical3-Use-UI_Play-Jason.sol\":3994:4296  if(msg.sender == gameHistory[gameHistory.length - 1].user2.userAddress){... */\n    tag_68:\n        /* \"Practical3-Use-UI_Play-Jason.sol\":4380:4391  gameHistory */\n      0x01\n        /* \"Practical3-Use-UI_Play-Jason.sol\":4392:4410  gameHistory.length */\n      dup1\n      sload\n        /* \"Practical3-Use-UI_Play-Jason.sol\":4392:4414  gameHistory.length - 1 */\n      tag_79\n      swap1\n        /* \"Practical3-Use-UI_Play-Jason.sol\":4380:4391  gameHistory */\n      dup3\n      swap1\n        /* \"Practical3-Use-UI_Play-Jason.sol\":4392:4414  gameHistory.length - 1 */\n      tag_46\n      jump\t// in\n    tag_79:\n        /* \"Practical3-Use-UI_Play-Jason.sol\":4380:4415  gameHistory[gameHistory.length - 1] */\n      dup2\n      sload\n      dup2\n      lt\n      tag_81\n      jumpi\n      tag_81\n      tag_49\n      jump\t// in\n    tag_81:\n      swap1\n      0x00\n      mstore\n      keccak256(0x00, 0x20)\n      swap1\n      0x05\n      mul\n      add\n        /* \"Practical3-Use-UI_Play-Jason.sol\":4380:4421  gameHistory[gameHistory.length - 1].user1 */\n      0x00\n      add\n        /* \"Practical3-Use-UI_Play-Jason.sol\":4380:4432  gameHistory[gameHistory.length - 1].user1.userOption */\n      0x01\n      add\n      sload\n        /* \"Practical3-Use-UI_Play-Jason.sol\":4437:4438  0 */\n      0x00\n        /* \"Practical3-Use-UI_Play-Jason.sol\":4379:4438  (gameHistory[gameHistory.length - 1].user1.userOption) != 0 */\n      eq\n      iszero\n        /* \"Practical3-Use-UI_Play-Jason.sol\":4379:4501  (gameHistory[gameHistory.length - 1].user1.userOption) != 0 && (gameHistory[gameHistory.length - 1].user2.userOption) != 0 */\n      dup1\n      iszero\n      tag_83\n      jumpi\n      pop\n        /* \"Practical3-Use-UI_Play-Jason.sol\":4443:4454  gameHistory */\n      0x01\n        /* \"Practical3-Use-UI_Play-Jason.sol\":4455:4473  gameHistory.length */\n      dup1\n      sload\n        /* \"Practical3-Use-UI_Play-Jason.sol\":4455:4477  gameHistory.length - 1 */\n      tag_84\n      swap1\n        /* \"Practical3-Use-UI_Play-Jason.sol\":4443:4454  gameHistory */\n      dup3\n      swap1\n        /* \"Practical3-Use-UI_Play-Jason.sol\":4455:4477  gameHistory.length - 1 */\n      tag_46\n      jump\t// in\n    tag_84:\n        /* \"Practical3-Use-UI_Play-Jason.sol\":4443:4478  gameHistory[gameHistory.length - 1] */\n      dup2\n      sload\n      dup2\n      lt\n      tag_86\n      jumpi\n      tag_86\n      tag_49\n      jump\t// in\n    tag_86:\n      swap1\n      0x00\n      mstore\n      keccak256(0x00, 0x20)\n      swap1\n      0x05\n      mul\n      add\n        /* \"Practical3-Use-UI_Play-Jason.sol\":4443:4484  gameHistory[gameHistory.length - 1].user2 */\n      0x02\n      add\n        /* \"Practical3-Use-UI_Play-Jason.sol\":4443:4495  gameHistory[gameHistory.length - 1].user2.userOption */\n      0x01\n      add\n      sload\n        /* \"Practical3-Use-UI_Play-Jason.sol\":4500:4501  0 */\n      0x00\n        /* \"Practical3-Use-UI_Play-Jason.sol\":4442:4501  (gameHistory[gameHistory.length - 1].user2.userOption) != 0 */\n      eq\n      iszero\n        /* \"Practical3-Use-UI_Play-Jason.sol\":4379:4501  (gameHistory[gameHistory.length - 1].user1.userOption) != 0 && (gameHistory[gameHistory.length - 1].user2.userOption) != 0 */\n    tag_83:\n        /* \"Practical3-Use-UI_Play-Jason.sol\":4376:4700  if((gameHistory[gameHistory.length - 1].user1.userOption) != 0 && (gameHistory[gameHistory.length - 1].user2.userOption) != 0){... */\n      iszero\n      tag_88\n      jumpi\n        /* \"Practical3-Use-UI_Play-Jason.sol\":4522:4559  showError(\"go in to condition check\") */\n      0x1d229a771174308da40f70761ba48b700922b118fea40f5e3705f7067c12cc38\n      mload(0x40)\n      tag_89\n      swap1\n        /* \"#utility.yul\":3857:3859   */\n      0x20\n        /* \"#utility.yul\":3839:3860   */\n      dup1\n      dup3\n      mstore\n        /* \"#utility.yul\":3896:3898   */\n      0x18\n        /* \"#utility.yul\":3876:3894   */\n      swap1\n      dup3\n      add\n        /* \"#utility.yul\":3869:3899   */\n      mstore\n        /* \"#utility.yul\":3935:3961   */\n      0x676f20696e20746f20636f6e646974696f6e20636865636b0000000000000000\n        /* \"#utility.yul\":3930:3932   */\n      0x40\n        /* \"#utility.yul\":3915:3933   */\n      dup3\n      add\n        /* \"#utility.yul\":3908:3962   */\n      mstore\n        /* \"#utility.yul\":3994:3996   */\n      0x60\n        /* \"#utility.yul\":3979:3997   */\n      add\n      swap1\n        /* \"#utility.yul\":3655:4003   */\n      jump\n        /* \"Practical3-Use-UI_Play-Jason.sol\":4522:4559  showError(\"go in to condition check\") */\n    tag_89:\n      mload(0x40)\n      dup1\n      swap2\n      sub\n      swap1\n      log1\n        /* \"Practical3-Use-UI_Play-Jason.sol\":4574:4580  game() */\n      tag_91\n        /* \"Practical3-Use-UI_Play-Jason.sol\":4574:4578  game */\n      tag_92\n        /* \"Practical3-Use-UI_Play-Jason.sol\":4574:4580  game() */\n      jump\t// in\n    tag_91:\n        /* \"Practical3-Use-UI_Play-Jason.sol\":4607:4608  0 */\n      0x00\n        /* \"Practical3-Use-UI_Play-Jason.sol\":4595:4608  userCount = 0 */\n      dup1\n      sstore\n        /* \"Practical3-Use-UI_Play-Jason.sol\":4623:4635  user1address */\n      0x02\n        /* \"Practical3-Use-UI_Play-Jason.sol\":4623:4648  user1address = address(0) */\n      dup1\n      sload\n      not(sub(shl(0xa8, 0x01), 0x0100))\n      and\n      swap1\n      sstore\n        /* \"Practical3-Use-UI_Play-Jason.sol\":4663:4675  user2address */\n      0x03\n        /* \"Practical3-Use-UI_Play-Jason.sol\":4663:4688  user2address = address(0) */\n      dup1\n      sload\n      not(sub(shl(0xa0, 0x01), 0x01))\n      and\n      swap1\n      sstore\n        /* \"Practical3-Use-UI_Play-Jason.sol\":4376:4700  if((gameHistory[gameHistory.length - 1].user1.userOption) != 0 && (gameHistory[gameHistory.length - 1].user2.userOption) != 0){... */\n    tag_88:\n        /* \"Practical3-Use-UI_Play-Jason.sol\":3616:4707  function userEnterOption (uint option) external {... */\n      pop\n      jump\t// out\n        /* \"Practical3-Use-UI_Play-Jason.sol\":1471:1628  function getGameHistory () external view returns(GameInfo[] memory){... */\n    tag_25:\n        /* \"Practical3-Use-UI_Play-Jason.sol\":1520:1537  GameInfo[] memory */\n      0x60\n        /* \"Practical3-Use-UI_Play-Jason.sol\":1608:1619  gameHistory */\n      0x01\n        /* \"Practical3-Use-UI_Play-Jason.sol\":1600:1620  return (gameHistory) */\n      dup1\n      sload\n      dup1\n      0x20\n      mul\n      0x20\n      add\n      mload(0x40)\n      swap1\n      dup2\n      add\n      0x40\n      mstore\n      dup1\n      swap3\n      swap2\n      swap1\n      dup2\n      dup2\n      mstore\n      0x20\n      add\n      0x00\n      swap1\n    tag_94:\n      dup3\n      dup3\n      lt\n      iszero\n      tag_95\n      jumpi\n      0x00\n      dup5\n      dup2\n      mstore\n      0x20\n      swap1\n      dup2\n      swap1\n      keccak256\n      0x40\n      dup1\n      mload\n      0xa0\n      dup2\n      add\n      dup3\n      mstore\n      0x05\n      dup7\n      mul\n      swap1\n      swap3\n      add\n      dup1\n      sload\n      sub(shl(0xa0, 0x01), 0x01)\n      swap1\n      dup2\n      and\n      0x60\n      dup6\n      add\n      swap1\n      dup2\n      mstore\n      0x01\n      dup4\n      add\n      sload\n      0x80\n      dup7\n      add\n      mstore\n      dup5\n      mstore\n      dup3\n      mload\n      dup1\n      dup5\n      add\n      dup5\n      mstore\n      0x02\n      dup4\n      add\n      sload\n      swap1\n      swap2\n      and\n      dup2\n      mstore\n      0x03\n      dup3\n      add\n      sload\n      dup2\n      dup7\n      add\n      mstore\n      swap4\n      dup4\n      add\n      swap4\n      swap1\n      swap4\n      mstore\n      0x04\n      dup4\n      add\n      dup1\n      sload\n      swap3\n      swap4\n      swap3\n      swap2\n      dup5\n      add\n      swap2\n      tag_97\n      swap1\n      tag_98\n      jump\t// in\n    tag_97:\n      dup1\n      0x1f\n      add\n      0x20\n      dup1\n      swap2\n      div\n      mul\n      0x20\n      add\n      mload(0x40)\n      swap1\n      dup2\n      add\n      0x40\n      mstore\n      dup1\n      swap3\n      swap2\n      swap1\n      dup2\n      dup2\n      mstore\n      0x20\n      add\n      dup3\n      dup1\n      sload\n      tag_99\n      swap1\n      tag_98\n      jump\t// in\n    tag_99:\n      dup1\n      iszero\n      tag_100\n      jumpi\n      dup1\n      0x1f\n      lt\n      tag_101\n      jumpi\n      0x0100\n      dup1\n      dup4\n      sload\n      div\n      mul\n      dup4\n      mstore\n      swap2\n      0x20\n      add\n      swap2\n      jump(tag_100)\n    tag_101:\n      dup3\n      add\n      swap2\n      swap1\n      0x00\n      mstore\n      keccak256(0x00, 0x20)\n      swap1\n    tag_102:\n      dup2\n      sload\n      dup2\n      mstore\n      swap1\n      0x01\n      add\n      swap1\n      0x20\n      add\n      dup1\n      dup4\n      gt\n      tag_102\n      jumpi\n      dup3\n      swap1\n      sub\n      0x1f\n      and\n      dup3\n      add\n      swap2\n    tag_100:\n      pop\n      pop\n      pop\n      pop\n      pop\n      dup2\n      mstore\n      pop\n      pop\n      dup2\n      mstore\n      0x20\n      add\n      swap1\n      0x01\n      add\n      swap1\n      jump(tag_94)\n    tag_95:\n      pop\n      pop\n      pop\n      pop\n      swap1\n      pop\n        /* \"Practical3-Use-UI_Play-Jason.sol\":1471:1628  function getGameHistory () external view returns(GameInfo[] memory){... */\n      swap1\n      jump\t// out\n        /* \"Practical3-Use-UI_Play-Jason.sol\":2272:3568  function play () external noReentrancy{... */\n    tag_32:\n        /* \"Practical3-Use-UI_Play-Jason.sol\":2031:2037  locked */\n      and(0xff, sload(0x02))\n        /* \"Practical3-Use-UI_Play-Jason.sol\":2030:2037  !locked */\n      iszero\n        /* \"Practical3-Use-UI_Play-Jason.sol\":2022:2063  require(!locked, \"Error: Reentrant call\") */\n      tag_104\n      jumpi\n      mload(0x40)\n      shl(0xe5, 0x461bcd)\n      dup2\n      mstore\n        /* \"#utility.yul\":4595:4597   */\n      0x20\n        /* \"Practical3-Use-UI_Play-Jason.sol\":2022:2063  require(!locked, \"Error: Reentrant call\") */\n      0x04\n      dup3\n      add\n        /* \"#utility.yul\":4577:4598   */\n      mstore\n        /* \"#utility.yul\":4634:4636   */\n      0x15\n        /* \"#utility.yul\":4614:4632   */\n      0x24\n      dup3\n      add\n        /* \"#utility.yul\":4607:4637   */\n      mstore\n      shl(0x5a, 0x115c9c9bdc8e881499595b9d1c985b9d0818d85b1b)\n        /* \"#utility.yul\":4653:4671   */\n      0x44\n      dup3\n      add\n        /* \"#utility.yul\":4646:4697   */\n      mstore\n        /* \"#utility.yul\":4714:4732   */\n      0x64\n      add\n        /* \"Practical3-Use-UI_Play-Jason.sol\":2022:2063  require(!locked, \"Error: Reentrant call\") */\n      tag_57\n        /* \"#utility.yul\":4393:4738   */\n      jump\n        /* \"Practical3-Use-UI_Play-Jason.sol\":2022:2063  require(!locked, \"Error: Reentrant call\") */\n    tag_104:\n        /* \"Practical3-Use-UI_Play-Jason.sol\":2074:2080  locked */\n      0x02\n        /* \"Practical3-Use-UI_Play-Jason.sol\":2074:2087  locked = true */\n      dup1\n      sload\n      not(0xff)\n      and\n        /* \"Practical3-Use-UI_Play-Jason.sol\":2083:2087  true */\n      0x01\n        /* \"Practical3-Use-UI_Play-Jason.sol\":2074:2087  locked = true */\n      or\n      swap1\n      sstore\n        /* \"Practical3-Use-UI_Play-Jason.sol\":2074:2080  locked */\n      0x00\n        /* \"Practical3-Use-UI_Play-Jason.sol\":2326:2335  userCount */\n      dup1\n      sload\n        /* \"Practical3-Use-UI_Play-Jason.sol\":2326:2340  userCount == 0 */\n      swap1\n      sub\n        /* \"Practical3-Use-UI_Play-Jason.sol\":2323:3561  if(userCount == 0){... */\n      tag_108\n      jumpi\n        /* \"Practical3-Use-UI_Play-Jason.sol\":2438:2462  GameInfo memory gameInfo */\n      tag_109\n      tag_110\n      jump\t// in\n    tag_109:\n        /* \"Practical3-Use-UI_Play-Jason.sol\":2477:2488  gameHistory */\n      0x01\n        /* \"Practical3-Use-UI_Play-Jason.sol\":2477:2503  gameHistory.push(gameInfo) */\n      dup1\n      sload\n      dup1\n      dup3\n      add\n      dup3\n      sstore\n      0x00\n      swap2\n      swap1\n      swap2\n      mstore\n      dup2\n      mload\n      dup1\n      mload\n      0xb10e2d527612073b26eecdfd717e6a320cf44b4afac2b0732d9fcbe2b7fa0cf6\n      0x05\n      swap1\n      swap4\n      mul\n      swap3\n      dup4\n      add\n      dup1\n      sload\n      not(sub(shl(0xa0, 0x01), 0x01))\n      swap1\n      dup2\n      and\n      sub(shl(0xa0, 0x01), 0x01)\n      swap4\n      dup5\n      and\n      or\n      dup3\n      sstore\n      0x20\n      swap4\n      dup5\n      add\n      mload\n      0xb10e2d527612073b26eecdfd717e6a320cf44b4afac2b0732d9fcbe2b7fa0cf7\n      dup7\n      add\n      sstore\n      dup4\n      dup7\n      add\n      mload\n      dup1\n      mload\n      0xb10e2d527612073b26eecdfd717e6a320cf44b4afac2b0732d9fcbe2b7fa0cf8\n      dup8\n      add\n      dup1\n      sload\n      swap1\n      swap4\n      and\n      swap5\n      and\n      swap4\n      swap1\n      swap4\n      or\n      swap1\n      sstore\n      swap2\n      add\n      mload\n      0xb10e2d527612073b26eecdfd717e6a320cf44b4afac2b0732d9fcbe2b7fa0cf9\n      dup4\n      add\n      sstore\n      0x40\n      dup4\n      add\n      mload\n      dup4\n      swap3\n      0xb10e2d527612073b26eecdfd717e6a320cf44b4afac2b0732d9fcbe2b7fa0cfa\n      add\n      swap1\n      tag_112\n      swap1\n      dup3\n      tag_113\n      jump\t// in\n    tag_112:\n      pop\n      pop\n        /* \"Practical3-Use-UI_Play-Jason.sol\":2589:2600  gameHistory */\n      0x01\n        /* \"Practical3-Use-UI_Play-Jason.sol\":2601:2619  gameHistory.length */\n      dup1\n      sload\n        /* \"Practical3-Use-UI_Play-Jason.sol\":2645:2655  msg.sender */\n      caller\n      swap3\n      pop\n        /* \"Practical3-Use-UI_Play-Jason.sol\":2601:2623  gameHistory.length - 1 */\n      tag_114\n      swap1\n        /* \"Practical3-Use-UI_Play-Jason.sol\":2589:2600  gameHistory */\n      dup3\n      swap1\n        /* \"Practical3-Use-UI_Play-Jason.sol\":2601:2623  gameHistory.length - 1 */\n      tag_46\n      jump\t// in\n    tag_114:\n        /* \"Practical3-Use-UI_Play-Jason.sol\":2589:2624  gameHistory[gameHistory.length - 1] */\n      dup2\n      sload\n      dup2\n      lt\n      tag_116\n      jumpi\n      tag_116\n      tag_49\n      jump\t// in\n    tag_116:\n      0x00\n      swap2\n      dup3\n      mstore\n      0x20\n      dup3\n      keccak256\n      0x05\n      swap2\n      swap1\n      swap2\n      mul\n      add\n        /* \"Practical3-Use-UI_Play-Jason.sol\":2589:2655  gameHistory[gameHistory.length - 1].user1.userAddress = msg.sender */\n      dup1\n      sload\n      not(sub(shl(0xa0, 0x01), 0x01))\n      and\n      sub(shl(0xa0, 0x01), 0x01)\n      swap4\n      swap1\n      swap4\n      and\n      swap3\n      swap1\n      swap3\n      or\n      swap1\n      swap2\n      sstore\n        /* \"Practical3-Use-UI_Play-Jason.sol\":2670:2682  user1address */\n      0x02\n        /* \"Practical3-Use-UI_Play-Jason.sol\":2670:2695  user1address = msg.sender */\n      dup1\n      sload\n      not(sub(shl(0xa8, 0x01), 0x0100))\n      and\n        /* \"Practical3-Use-UI_Play-Jason.sol\":2589:2655  gameHistory[gameHistory.length - 1].user1.userAddress = msg.sender */\n      0x0100\n        /* \"Practical3-Use-UI_Play-Jason.sol\":2685:2695  msg.sender */\n      caller\n        /* \"Practical3-Use-UI_Play-Jason.sol\":2670:2695  user1address = msg.sender */\n      mul\n      or\n      swap1\n      sstore\n        /* \"Practical3-Use-UI_Play-Jason.sol\":2739:2750  userCount++ */\n      dup1\n      sload\n      swap1\n        /* \"Practical3-Use-UI_Play-Jason.sol\":2589:2624  gameHistory[gameHistory.length - 1] */\n      dup1\n        /* \"Practical3-Use-UI_Play-Jason.sol\":2739:2750  userCount++ */\n      tag_118\n      dup4\n      tag_119\n      jump\t// in\n    tag_118:\n      swap2\n      swap1\n      pop\n      sstore\n      pop\n        /* \"Practical3-Use-UI_Play-Jason.sol\":2341:2762  {... */\n      pop\n        /* \"Practical3-Use-UI_Play-Jason.sol\":2323:3561  if(userCount == 0){... */\n      jump(tag_120)\n    tag_108:\n        /* \"Practical3-Use-UI_Play-Jason.sol\":2872:2883  gameHistory */\n      0x01\n        /* \"Practical3-Use-UI_Play-Jason.sol\":2884:2902  gameHistory.length */\n      dup1\n      sload\n        /* \"Practical3-Use-UI_Play-Jason.sol\":2884:2906  gameHistory.length - 1 */\n      tag_121\n      swap1\n        /* \"Practical3-Use-UI_Play-Jason.sol\":2872:2883  gameHistory */\n      dup3\n      swap1\n        /* \"Practical3-Use-UI_Play-Jason.sol\":2884:2906  gameHistory.length - 1 */\n      tag_46\n      jump\t// in\n    tag_121:\n        /* \"Practical3-Use-UI_Play-Jason.sol\":2872:2907  gameHistory[gameHistory.length - 1] */\n      dup2\n      sload\n      dup2\n      lt\n      tag_123\n      jumpi\n      tag_123\n      tag_49\n      jump\t// in\n    tag_123:\n      0x00\n      swap2\n      dup3\n      mstore\n      0x20\n      swap1\n      swap2\n      keccak256\n      0x05\n      swap1\n      swap2\n      mul\n      add\n        /* \"Practical3-Use-UI_Play-Jason.sol\":2872:2925  gameHistory[gameHistory.length - 1].user1.userAddress */\n      sload\n      sub(shl(0xa0, 0x01), 0x01)\n      and\n        /* \"Practical3-Use-UI_Play-Jason.sol\":2858:2868  msg.sender */\n      caller\n        /* \"Practical3-Use-UI_Play-Jason.sol\":2858:2925  msg.sender != gameHistory[gameHistory.length - 1].user1.userAddress */\n      sub\n        /* \"Practical3-Use-UI_Play-Jason.sol\":2850:2965  require(msg.sender != gameHistory[gameHistory.length - 1].user1.userAddress,\"Error: You cannot play with yourself\") */\n      tag_125\n      jumpi\n      mload(0x40)\n      shl(0xe5, 0x461bcd)\n      dup2\n      mstore\n        /* \"#utility.yul\":7421:7423   */\n      0x20\n        /* \"Practical3-Use-UI_Play-Jason.sol\":2850:2965  require(msg.sender != gameHistory[gameHistory.length - 1].user1.userAddress,\"Error: You cannot play with yourself\") */\n      0x04\n      dup3\n      add\n        /* \"#utility.yul\":7403:7424   */\n      mstore\n        /* \"#utility.yul\":7460:7462   */\n      0x24\n        /* \"#utility.yul\":7440:7458   */\n      dup1\n      dup3\n      add\n        /* \"#utility.yul\":7433:7463   */\n      mstore\n        /* \"#utility.yul\":7499:7533   */\n      0x4572726f723a20596f752063616e6e6f7420706c6179207769746820796f7572\n        /* \"#utility.yul\":7479:7497   */\n      0x44\n      dup3\n      add\n        /* \"#utility.yul\":7472:7534   */\n      mstore\n      shl(0xe1, 0x39b2b633)\n        /* \"#utility.yul\":7550:7568   */\n      0x64\n      dup3\n      add\n        /* \"#utility.yul\":7543:7577   */\n      mstore\n        /* \"#utility.yul\":7594:7613   */\n      0x84\n      add\n        /* \"Practical3-Use-UI_Play-Jason.sol\":2850:2965  require(msg.sender != gameHistory[gameHistory.length - 1].user1.userAddress,\"Error: You cannot play with yourself\") */\n      tag_57\n        /* \"#utility.yul\":7219:7619   */\n      jump\n        /* \"Practical3-Use-UI_Play-Jason.sol\":2850:2965  require(msg.sender != gameHistory[gameHistory.length - 1].user1.userAddress,\"Error: You cannot play with yourself\") */\n    tag_125:\n        /* \"Practical3-Use-UI_Play-Jason.sol\":2998:2999  2 */\n      0x02\n        /* \"Practical3-Use-UI_Play-Jason.sol\":2988:2997  userCount */\n      sload(0x00)\n        /* \"Practical3-Use-UI_Play-Jason.sol\":2988:2999  userCount<2 */\n      lt\n        /* \"Practical3-Use-UI_Play-Jason.sol\":2980:3042  require(userCount<2, \"You need to wait for the pervious user\") */\n      tag_128\n      jumpi\n      mload(0x40)\n      shl(0xe5, 0x461bcd)\n      dup2\n      mstore\n        /* \"#utility.yul\":7826:7828   */\n      0x20\n        /* \"Practical3-Use-UI_Play-Jason.sol\":2980:3042  require(userCount<2, \"You need to wait for the pervious user\") */\n      0x04\n      dup3\n      add\n        /* \"#utility.yul\":7808:7829   */\n      mstore\n        /* \"#utility.yul\":7865:7867   */\n      0x26\n        /* \"#utility.yul\":7845:7863   */\n      0x24\n      dup3\n      add\n        /* \"#utility.yul\":7838:7868   */\n      mstore\n        /* \"#utility.yul\":7904:7938   */\n      0x596f75206e65656420746f207761697420666f72207468652070657276696f75\n        /* \"#utility.yul\":7884:7902   */\n      0x44\n      dup3\n      add\n        /* \"#utility.yul\":7877:7939   */\n      mstore\n      shl(0xd1, 0x39903ab9b2b9)\n        /* \"#utility.yul\":7955:7973   */\n      0x64\n      dup3\n      add\n        /* \"#utility.yul\":7948:7984   */\n      mstore\n        /* \"#utility.yul\":8001:8020   */\n      0x84\n      add\n        /* \"Practical3-Use-UI_Play-Jason.sol\":2980:3042  require(userCount<2, \"You need to wait for the pervious user\") */\n      tag_57\n        /* \"#utility.yul\":7624:8026   */\n      jump\n        /* \"Practical3-Use-UI_Play-Jason.sol\":2980:3042  require(userCount<2, \"You need to wait for the pervious user\") */\n    tag_128:\n        /* \"Practical3-Use-UI_Play-Jason.sol\":3112:3123  gameHistory */\n      0x01\n        /* \"Practical3-Use-UI_Play-Jason.sol\":3124:3142  gameHistory.length */\n      dup1\n      sload\n        /* \"Practical3-Use-UI_Play-Jason.sol\":3168:3178  msg.sender */\n      caller\n      swap2\n        /* \"Practical3-Use-UI_Play-Jason.sol\":3112:3123  gameHistory */\n      swap1\n        /* \"Practical3-Use-UI_Play-Jason.sol\":3124:3146  gameHistory.length - 1 */\n      tag_131\n      swap1\n        /* \"Practical3-Use-UI_Play-Jason.sol\":3112:3123  gameHistory */\n      dup3\n      swap1\n        /* \"Practical3-Use-UI_Play-Jason.sol\":3124:3146  gameHistory.length - 1 */\n      tag_46\n      jump\t// in\n    tag_131:\n        /* \"Practical3-Use-UI_Play-Jason.sol\":3112:3147  gameHistory[gameHistory.length - 1] */\n      dup2\n      sload\n      dup2\n      lt\n      tag_133\n      jumpi\n      tag_133\n      tag_49\n      jump\t// in\n    tag_133:\n      0x00\n      swap2\n      dup3\n      mstore\n      0x20\n      swap1\n      swap2\n      keccak256\n        /* \"Practical3-Use-UI_Play-Jason.sol\":3112:3153  gameHistory[gameHistory.length - 1].user2 */\n      0x02\n        /* \"Practical3-Use-UI_Play-Jason.sol\":3112:3147  gameHistory[gameHistory.length - 1] */\n      0x05\n      swap1\n      swap3\n      mul\n      add\n        /* \"Practical3-Use-UI_Play-Jason.sol\":3112:3153  gameHistory[gameHistory.length - 1].user2 */\n      add\n        /* \"Practical3-Use-UI_Play-Jason.sol\":3112:3178  gameHistory[gameHistory.length - 1].user2.userAddress = msg.sender */\n      dup1\n      sload\n      sub(shl(0xa0, 0x01), 0x01)\n      swap3\n      swap1\n      swap3\n      and\n      not(sub(shl(0xa0, 0x01), 0x01))\n      swap3\n      dup4\n      and\n      or\n      swap1\n      sstore\n        /* \"Practical3-Use-UI_Play-Jason.sol\":3193:3205  user2address */\n      0x03\n        /* \"Practical3-Use-UI_Play-Jason.sol\":3193:3218  user2address = msg.sender */\n      dup1\n      sload\n      swap1\n      swap2\n      and\n        /* \"Practical3-Use-UI_Play-Jason.sol\":3208:3218  msg.sender */\n      caller\n        /* \"Practical3-Use-UI_Play-Jason.sol\":3193:3218  user2address = msg.sender */\n      or\n      swap1\n      sstore\n        /* \"Practical3-Use-UI_Play-Jason.sol\":3112:3178  gameHistory[gameHistory.length - 1].user2.userAddress = msg.sender */\n      0x01\n        /* \"Practical3-Use-UI_Play-Jason.sol\":3395:3413  gameHistory.length */\n      dup1\n      sload\n        /* \"Practical3-Use-UI_Play-Jason.sol\":3371:3493  inputOption(gameHistory[gameHistory.length - 1].user1.userAddress , gameHistory[gameHistory.length - 1].user2.userAddress) */\n      0xdaa57ee2c04aee347b88819662fcdb8376824fb89a1f9b97a41edb933a3ba7a6\n      swap2\n        /* \"Practical3-Use-UI_Play-Jason.sol\":3112:3178  gameHistory[gameHistory.length - 1].user2.userAddress = msg.sender */\n      swap1\n        /* \"Practical3-Use-UI_Play-Jason.sol\":3395:3417  gameHistory.length - 1 */\n      tag_135\n      swap1\n        /* \"Practical3-Use-UI_Play-Jason.sol\":3112:3178  gameHistory[gameHistory.length - 1].user2.userAddress = msg.sender */\n      dup3\n      swap1\n        /* \"Practical3-Use-UI_Play-Jason.sol\":3395:3417  gameHistory.length - 1 */\n      tag_46\n      jump\t// in\n    tag_135:\n        /* \"Practical3-Use-UI_Play-Jason.sol\":3383:3418  gameHistory[gameHistory.length - 1] */\n      dup2\n      sload\n      dup2\n      lt\n      tag_137\n      jumpi\n      tag_137\n      tag_49\n      jump\t// in\n    tag_137:\n      0x00\n      swap2\n      dup3\n      mstore\n      0x20\n      swap1\n      swap2\n      keccak256\n      0x05\n      swap1\n      swap2\n      mul\n      add\n        /* \"Practical3-Use-UI_Play-Jason.sol\":3383:3436  gameHistory[gameHistory.length - 1].user1.userAddress */\n      sload\n      0x01\n        /* \"Practical3-Use-UI_Play-Jason.sol\":3451:3469  gameHistory.length */\n      dup1\n      sload\n      sub(shl(0xa0, 0x01), 0x01)\n        /* \"Practical3-Use-UI_Play-Jason.sol\":3383:3436  gameHistory[gameHistory.length - 1].user1.userAddress */\n      swap1\n      swap3\n      and\n      swap2\n        /* \"Practical3-Use-UI_Play-Jason.sol\":3451:3473  gameHistory.length - 1 */\n      tag_139\n      swap1\n        /* \"Practical3-Use-UI_Play-Jason.sol\":3383:3436  gameHistory[gameHistory.length - 1].user1.userAddress */\n      dup3\n      swap1\n        /* \"Practical3-Use-UI_Play-Jason.sol\":3451:3473  gameHistory.length - 1 */\n      tag_46\n      jump\t// in\n    tag_139:\n        /* \"Practical3-Use-UI_Play-Jason.sol\":3439:3474  gameHistory[gameHistory.length - 1] */\n      dup2\n      sload\n      dup2\n      lt\n      tag_141\n      jumpi\n      tag_141\n      tag_49\n      jump\t// in\n    tag_141:\n      0x00\n      swap2\n      dup3\n      mstore\n      0x20\n      swap1\n      swap2\n      keccak256\n        /* \"Practical3-Use-UI_Play-Jason.sol\":3439:3480  gameHistory[gameHistory.length - 1].user2 */\n      0x02\n        /* \"Practical3-Use-UI_Play-Jason.sol\":3439:3474  gameHistory[gameHistory.length - 1] */\n      0x05\n      swap1\n      swap3\n      mul\n      add\n        /* \"Practical3-Use-UI_Play-Jason.sol\":3439:3480  gameHistory[gameHistory.length - 1].user2 */\n      add\n        /* \"Practical3-Use-UI_Play-Jason.sol\":3439:3492  gameHistory[gameHistory.length - 1].user2.userAddress */\n      sload\n        /* \"Practical3-Use-UI_Play-Jason.sol\":3371:3493  inputOption(gameHistory[gameHistory.length - 1].user1.userAddress , gameHistory[gameHistory.length - 1].user2.userAddress) */\n      mload(0x40)\n      tag_143\n      swap3\n      swap2\n      sub(shl(0xa0, 0x01), 0x01)\n        /* \"Practical3-Use-UI_Play-Jason.sol\":3439:3492  gameHistory[gameHistory.length - 1].user2.userAddress */\n      and\n      swap1\n      sub(shl(0xa0, 0x01), 0x01)\n        /* \"#utility.yul\":8261:8276   */\n      swap3\n      dup4\n      and\n        /* \"#utility.yul\":8243:8277   */\n      dup2\n      mstore\n        /* \"#utility.yul\":8313:8328   */\n      swap2\n      and\n        /* \"#utility.yul\":8308:8310   */\n      0x20\n        /* \"#utility.yul\":8293:8311   */\n      dup3\n      add\n        /* \"#utility.yul\":8286:8329   */\n      mstore\n        /* \"#utility.yul\":8193:8195   */\n      0x40\n        /* \"#utility.yul\":8178:8196   */\n      add\n      swap1\n        /* \"#utility.yul\":8031:8335   */\n      jump\n        /* \"Practical3-Use-UI_Play-Jason.sol\":3371:3493  inputOption(gameHistory[gameHistory.length - 1].user1.userAddress , gameHistory[gameHistory.length - 1].user2.userAddress) */\n    tag_143:\n      mload(0x40)\n      dup1\n      swap2\n      sub\n      swap1\n      log1\n        /* \"Practical3-Use-UI_Play-Jason.sol\":3538:3547  userCount */\n      0x00\n        /* \"Practical3-Use-UI_Play-Jason.sol\":3538:3549  userCount++ */\n      dup1\n      sload\n      swap1\n        /* \"Practical3-Use-UI_Play-Jason.sol\":3538:3547  userCount */\n      dup1\n        /* \"Practical3-Use-UI_Play-Jason.sol\":3538:3549  userCount++ */\n      tag_145\n      dup4\n      tag_119\n      jump\t// in\n    tag_145:\n      swap2\n      swap1\n      pop\n      sstore\n      pop\n        /* \"Practical3-Use-UI_Play-Jason.sol\":2323:3561  if(userCount == 0){... */\n    tag_120:\n        /* \"Practical3-Use-UI_Play-Jason.sol\":2110:2116  locked */\n      0x02\n        /* \"Practical3-Use-UI_Play-Jason.sol\":2110:2124  locked = false */\n      dup1\n      sload\n      not(0xff)\n      and\n      swap1\n      sstore\n        /* \"Practical3-Use-UI_Play-Jason.sol\":2272:3568  function play () external noReentrancy{... */\n      jump\t// out\n        /* \"Practical3-Use-UI_Play-Jason.sol\":1017:1261  function getUser1 (uint index) external view returns(UserInfo memory){... */\n    tag_35:\n      0x40\n      dup1\n      mload\n      dup1\n      dup3\n      add\n      swap1\n      swap2\n      mstore\n      0x00\n      dup1\n      dup3\n      mstore\n      0x20\n      dup3\n      add\n      mstore\n        /* \"Practical3-Use-UI_Play-Jason.sol\":1165:1176  gameHistory */\n      0x01\n        /* \"Practical3-Use-UI_Play-Jason.sol\":1165:1183  gameHistory.length */\n      sload\n        /* \"Practical3-Use-UI_Play-Jason.sol\":1156:1183  index <= gameHistory.length */\n      dup3\n      gt\n      iszero\n        /* \"Practical3-Use-UI_Play-Jason.sol\":1148:1209  require(index <= gameHistory.length, \"Error: Invalid length\") */\n      tag_149\n      jumpi\n      mload(0x40)\n      shl(0xe5, 0x461bcd)\n      dup2\n      mstore\n        /* \"#utility.yul\":8542:8544   */\n      0x20\n        /* \"Practical3-Use-UI_Play-Jason.sol\":1148:1209  require(index <= gameHistory.length, \"Error: Invalid length\") */\n      0x04\n      dup3\n      add\n        /* \"#utility.yul\":8524:8545   */\n      mstore\n        /* \"#utility.yul\":8581:8583   */\n      0x15\n        /* \"#utility.yul\":8561:8579   */\n      0x24\n      dup3\n      add\n        /* \"#utility.yul\":8554:8584   */\n      mstore\n      shl(0x5b, 0x08ae4e4dee4744092dcecc2d8d2c840d8cadccee8d)\n        /* \"#utility.yul\":8600:8618   */\n      0x44\n      dup3\n      add\n        /* \"#utility.yul\":8593:8644   */\n      mstore\n        /* \"#utility.yul\":8661:8679   */\n      0x64\n      add\n        /* \"Practical3-Use-UI_Play-Jason.sol\":1148:1209  require(index <= gameHistory.length, \"Error: Invalid length\") */\n      tag_57\n        /* \"#utility.yul\":8340:8685   */\n      jump\n        /* \"Practical3-Use-UI_Play-Jason.sol\":1148:1209  require(index <= gameHistory.length, \"Error: Invalid length\") */\n    tag_149:\n        /* \"Practical3-Use-UI_Play-Jason.sol\":1228:1239  gameHistory */\n      0x01\n        /* \"Practical3-Use-UI_Play-Jason.sol\":1240:1245  index */\n      dup3\n        /* \"Practical3-Use-UI_Play-Jason.sol\":1228:1246  gameHistory[index] */\n      dup2\n      sload\n      dup2\n      lt\n      tag_153\n      jumpi\n      tag_153\n      tag_49\n      jump\t// in\n    tag_153:\n      0x00\n      swap2\n      dup3\n      mstore\n      0x20\n      swap2\n      dup3\n      swap1\n      keccak256\n        /* \"Practical3-Use-UI_Play-Jason.sol\":1220:1253  return (gameHistory[index].user1) */\n      0x40\n      dup1\n      mload\n      dup1\n      dup3\n      add\n      swap1\n      swap2\n      mstore\n        /* \"Practical3-Use-UI_Play-Jason.sol\":1228:1246  gameHistory[index] */\n      0x05\n      swap1\n      swap3\n      mul\n      add\n        /* \"Practical3-Use-UI_Play-Jason.sol\":1220:1253  return (gameHistory[index].user1) */\n      dup1\n      sload\n      sub(shl(0xa0, 0x01), 0x01)\n      and\n      dup3\n      mstore\n      0x01\n      add\n      sload\n      swap2\n      dup2\n      add\n      swap2\n      swap1\n      swap2\n      mstore\n      swap3\n        /* \"Practical3-Use-UI_Play-Jason.sol\":1017:1261  function getUser1 (uint index) external view returns(UserInfo memory){... */\n      swap2\n      pop\n      pop\n      jump\t// out\n        /* \"Practical3-Use-UI_Play-Jason.sol\":1636:1890  function getSpecificGameHistory (uint index) external view returns(GameInfo memory){... */\n    tag_40:\n        /* \"Practical3-Use-UI_Play-Jason.sol\":1703:1718  GameInfo memory */\n      tag_155\n      tag_110\n      jump\t// in\n    tag_155:\n        /* \"Practical3-Use-UI_Play-Jason.sol\":1798:1809  gameHistory */\n      0x01\n        /* \"Practical3-Use-UI_Play-Jason.sol\":1798:1816  gameHistory.length */\n      sload\n        /* \"Practical3-Use-UI_Play-Jason.sol\":1789:1816  index <= gameHistory.length */\n      dup3\n      gt\n      iszero\n        /* \"Practical3-Use-UI_Play-Jason.sol\":1781:1842  require(index <= gameHistory.length, \"Error: Invalid length\") */\n      tag_157\n      jumpi\n      mload(0x40)\n      shl(0xe5, 0x461bcd)\n      dup2\n      mstore\n        /* \"#utility.yul\":8542:8544   */\n      0x20\n        /* \"Practical3-Use-UI_Play-Jason.sol\":1781:1842  require(index <= gameHistory.length, \"Error: Invalid length\") */\n      0x04\n      dup3\n      add\n        /* \"#utility.yul\":8524:8545   */\n      mstore\n        /* \"#utility.yul\":8581:8583   */\n      0x15\n        /* \"#utility.yul\":8561:8579   */\n      0x24\n      dup3\n      add\n        /* \"#utility.yul\":8554:8584   */\n      mstore\n      shl(0x5b, 0x08ae4e4dee4744092dcecc2d8d2c840d8cadccee8d)\n        /* \"#utility.yul\":8600:8618   */\n      0x44\n      dup3\n      add\n        /* \"#utility.yul\":8593:8644   */\n      mstore\n        /* \"#utility.yul\":8661:8679   */\n      0x64\n      add\n        /* \"Practical3-Use-UI_Play-Jason.sol\":1781:1842  require(index <= gameHistory.length, \"Error: Invalid length\") */\n      tag_57\n        /* \"#utility.yul\":8340:8685   */\n      jump\n        /* \"Practical3-Use-UI_Play-Jason.sol\":1781:1842  require(index <= gameHistory.length, \"Error: Invalid length\") */\n    tag_157:\n        /* \"Practical3-Use-UI_Play-Jason.sol\":1863:1874  gameHistory */\n      0x01\n        /* \"Practical3-Use-UI_Play-Jason.sol\":1875:1880  index */\n      dup3\n        /* \"Practical3-Use-UI_Play-Jason.sol\":1863:1881  gameHistory[index] */\n      dup2\n      sload\n      dup2\n      lt\n      tag_160\n      jumpi\n      tag_160\n      tag_49\n      jump\t// in\n    tag_160:\n      0x00\n      swap2\n      dup3\n      mstore\n      0x20\n      swap2\n      dup3\n      swap1\n      keccak256\n        /* \"Practical3-Use-UI_Play-Jason.sol\":1855:1882  return (gameHistory[index]) */\n      0x40\n      dup1\n      mload\n      0xa0\n      dup2\n      add\n      dup3\n      mstore\n        /* \"Practical3-Use-UI_Play-Jason.sol\":1863:1881  gameHistory[index] */\n      0x05\n      swap1\n      swap4\n      mul\n      swap1\n      swap2\n      add\n        /* \"Practical3-Use-UI_Play-Jason.sol\":1855:1882  return (gameHistory[index]) */\n      dup1\n      sload\n      sub(shl(0xa0, 0x01), 0x01)\n      swap1\n      dup2\n      and\n      0x60\n      dup6\n      add\n      swap1\n      dup2\n      mstore\n      0x01\n      dup4\n      add\n      sload\n      0x80\n      dup7\n      add\n      mstore\n      dup5\n      mstore\n      dup3\n      mload\n      dup1\n      dup5\n      add\n      dup5\n      mstore\n      0x02\n      dup4\n      add\n      sload\n      swap1\n      swap2\n      and\n      dup2\n      mstore\n      0x03\n      dup3\n      add\n      sload\n      dup2\n      dup7\n      add\n      mstore\n      swap4\n      dup4\n      add\n      swap4\n      swap1\n      swap4\n      mstore\n      0x04\n      dup4\n      add\n      dup1\n      sload\n      swap3\n      swap4\n        /* \"Practical3-Use-UI_Play-Jason.sol\":1863:1881  gameHistory[index] */\n      swap3\n      swap2\n      dup5\n      add\n      swap2\n        /* \"Practical3-Use-UI_Play-Jason.sol\":1855:1882  return (gameHistory[index]) */\n      tag_162\n      swap1\n      tag_98\n      jump\t// in\n    tag_162:\n      dup1\n      0x1f\n      add\n      0x20\n      dup1\n      swap2\n      div\n      mul\n      0x20\n      add\n      mload(0x40)\n      swap1\n      dup2\n      add\n      0x40\n      mstore\n      dup1\n      swap3\n      swap2\n      swap1\n      dup2\n      dup2\n      mstore\n      0x20\n      add\n      dup3\n      dup1\n      sload\n      tag_163\n      swap1\n      tag_98\n      jump\t// in\n    tag_163:\n      dup1\n      iszero\n      tag_164\n      jumpi\n      dup1\n      0x1f\n      lt\n      tag_165\n      jumpi\n      0x0100\n      dup1\n      dup4\n      sload\n      div\n      mul\n      dup4\n      mstore\n      swap2\n      0x20\n      add\n      swap2\n      jump(tag_164)\n    tag_165:\n      dup3\n      add\n      swap2\n      swap1\n      0x00\n      mstore\n      keccak256(0x00, 0x20)\n      swap1\n    tag_166:\n      dup2\n      sload\n      dup2\n      mstore\n      swap1\n      0x01\n      add\n      swap1\n      0x20\n      add\n      dup1\n      dup4\n      gt\n      tag_166\n      jumpi\n      dup3\n      swap1\n      sub\n      0x1f\n      and\n      dup3\n      add\n      swap2\n    tag_164:\n      pop\n      pop\n      pop\n      pop\n      pop\n      dup2\n      mstore\n      pop\n      pop\n      swap1\n      pop\n        /* \"Practical3-Use-UI_Play-Jason.sol\":1636:1890  function getSpecificGameHistory (uint index) external view returns(GameInfo memory){... */\n      swap2\n      swap1\n      pop\n      jump\t// out\n        /* \"Practical3-Use-UI_Play-Jason.sol\":4741:5919  function game () private {... */\n    tag_92:\n        /* \"Practical3-Use-UI_Play-Jason.sol\":4964:4975  gameHistory */\n      0x01\n        /* \"Practical3-Use-UI_Play-Jason.sol\":4976:4994  gameHistory.length */\n      dup1\n      sload\n        /* \"Practical3-Use-UI_Play-Jason.sol\":4976:4998  gameHistory.length - 1 */\n      tag_168\n      swap1\n        /* \"Practical3-Use-UI_Play-Jason.sol\":4964:4975  gameHistory */\n      dup3\n      swap1\n        /* \"Practical3-Use-UI_Play-Jason.sol\":4976:4998  gameHistory.length - 1 */\n      tag_46\n      jump\t// in\n    tag_168:\n        /* \"Practical3-Use-UI_Play-Jason.sol\":4964:4999  gameHistory[gameHistory.length - 1] */\n      dup2\n      sload\n      dup2\n      lt\n      tag_170\n      jumpi\n      tag_170\n      tag_49\n      jump\t// in\n    tag_170:\n      0x00\n      swap2\n      dup3\n      mstore\n      0x20\n      swap1\n      swap2\n      keccak256\n        /* \"Practical3-Use-UI_Play-Jason.sol\":4964:5016  gameHistory[gameHistory.length - 1].user2.userOption */\n      0x03\n        /* \"Practical3-Use-UI_Play-Jason.sol\":4964:4999  gameHistory[gameHistory.length - 1] */\n      0x05\n      swap1\n      swap3\n      mul\n      add\n        /* \"Practical3-Use-UI_Play-Jason.sol\":4964:5016  gameHistory[gameHistory.length - 1].user2.userOption */\n      add\n      sload\n      0x01\n        /* \"Practical3-Use-UI_Play-Jason.sol\":4920:4938  gameHistory.length */\n      dup1\n      sload\n        /* \"Practical3-Use-UI_Play-Jason.sol\":4920:4942  gameHistory.length - 1 */\n      tag_172\n      swap1\n        /* \"Practical3-Use-UI_Play-Jason.sol\":4964:5016  gameHistory[gameHistory.length - 1].user2.userOption */\n      dup3\n      swap1\n        /* \"Practical3-Use-UI_Play-Jason.sol\":4920:4942  gameHistory.length - 1 */\n      tag_46\n      jump\t// in\n    tag_172:\n        /* \"Practical3-Use-UI_Play-Jason.sol\":4908:4943  gameHistory[gameHistory.length - 1] */\n      dup2\n      sload\n      dup2\n      lt\n      tag_174\n      jumpi\n      tag_174\n      tag_49\n      jump\t// in\n    tag_174:\n      swap1\n      0x00\n      mstore\n      keccak256(0x00, 0x20)\n      swap1\n      0x05\n      mul\n      add\n        /* \"Practical3-Use-UI_Play-Jason.sol\":4908:4949  gameHistory[gameHistory.length - 1].user1 */\n      0x00\n      add\n        /* \"Practical3-Use-UI_Play-Jason.sol\":4908:4960  gameHistory[gameHistory.length - 1].user1.userOption */\n      0x01\n      add\n      sload\n        /* \"Practical3-Use-UI_Play-Jason.sol\":4908:5016  gameHistory[gameHistory.length - 1].user1.userOption == gameHistory[gameHistory.length - 1].user2.userOption */\n      sub\n        /* \"Practical3-Use-UI_Play-Jason.sol\":4904:5912  if (gameHistory[gameHistory.length - 1].user1.userOption == gameHistory[gameHistory.length - 1].user2.userOption) {... */\n      tag_176\n      jumpi\n        /* \"Practical3-Use-UI_Play-Jason.sol\":5033:5089  gameHistory[gameHistory.length - 1].finalResult = \"Tied\" */\n      0x40\n      dup1\n      mload\n      dup1\n      dup3\n      add\n      swap1\n      swap2\n      mstore\n      0x04\n      dup2\n      mstore\n      shl(0xe2, 0x151a5959)\n      0x20\n      dup3\n      add\n      mstore\n        /* \"Practical3-Use-UI_Play-Jason.sol\":5033:5044  gameHistory */\n      0x01\n        /* \"Practical3-Use-UI_Play-Jason.sol\":5045:5063  gameHistory.length */\n      dup1\n      sload\n        /* \"Practical3-Use-UI_Play-Jason.sol\":5045:5067  gameHistory.length - 1 */\n      tag_177\n      swap1\n        /* \"Practical3-Use-UI_Play-Jason.sol\":5033:5044  gameHistory */\n      dup3\n      swap1\n        /* \"Practical3-Use-UI_Play-Jason.sol\":5045:5067  gameHistory.length - 1 */\n      tag_46\n      jump\t// in\n    tag_177:\n        /* \"Practical3-Use-UI_Play-Jason.sol\":5033:5068  gameHistory[gameHistory.length - 1] */\n      dup2\n      sload\n      dup2\n      lt\n      tag_179\n      jumpi\n      tag_179\n      tag_49\n      jump\t// in\n    tag_179:\n      swap1\n      0x00\n      mstore\n      keccak256(0x00, 0x20)\n      swap1\n      0x05\n      mul\n      add\n        /* \"Practical3-Use-UI_Play-Jason.sol\":5033:5080  gameHistory[gameHistory.length - 1].finalResult */\n      0x04\n      add\n        /* \"Practical3-Use-UI_Play-Jason.sol\":5033:5089  gameHistory[gameHistory.length - 1].finalResult = \"Tied\" */\n      swap1\n      dup2\n      tag_181\n      swap2\n      swap1\n      tag_113\n      jump\t// in\n    tag_181:\n      pop\n        /* \"Practical3-Use-UI_Play-Jason.sol\":5109:5127  showResult(\"Tied\") */\n      0xcde5c32c0a45fd8aa4b65ea8003fc9da9acd5e2c6c24a9fcce6ab79cabbd9122\n      mload(0x40)\n      tag_182\n      swap1\n        /* \"#utility.yul\":8892:8894   */\n      0x20\n        /* \"#utility.yul\":8874:8895   */\n      dup1\n      dup3\n      mstore\n        /* \"#utility.yul\":8931:8932   */\n      0x04\n        /* \"#utility.yul\":8911:8929   */\n      swap1\n      dup3\n      add\n        /* \"#utility.yul\":8904:8933   */\n      mstore\n      shl(0xe2, 0x151a5959)\n        /* \"#utility.yul\":8964:8966   */\n      0x40\n        /* \"#utility.yul\":8949:8967   */\n      dup3\n      add\n        /* \"#utility.yul\":8942:8976   */\n      mstore\n        /* \"#utility.yul\":9008:9010   */\n      0x60\n        /* \"#utility.yul\":8993:9011   */\n      add\n      swap1\n        /* \"#utility.yul\":8690:9017   */\n      jump\n        /* \"Practical3-Use-UI_Play-Jason.sol\":5109:5127  showResult(\"Tied\") */\n    tag_182:\n      mload(0x40)\n      dup1\n      swap2\n      sub\n      swap1\n      log1\n        /* \"Practical3-Use-UI_Play-Jason.sol\":4741:5919  function game () private {... */\n      jump\t// out\n        /* \"Practical3-Use-UI_Play-Jason.sol\":4904:5912  if (gameHistory[gameHistory.length - 1].user1.userOption == gameHistory[gameHistory.length - 1].user2.userOption) {... */\n    tag_176:\n        /* \"Practical3-Use-UI_Play-Jason.sol\":5192:5203  gameHistory */\n      0x01\n        /* \"Practical3-Use-UI_Play-Jason.sol\":5204:5222  gameHistory.length */\n      dup1\n      sload\n        /* \"Practical3-Use-UI_Play-Jason.sol\":5204:5226  gameHistory.length - 1 */\n      tag_185\n      swap1\n        /* \"Practical3-Use-UI_Play-Jason.sol\":5192:5203  gameHistory */\n      dup3\n      swap1\n        /* \"Practical3-Use-UI_Play-Jason.sol\":5204:5226  gameHistory.length - 1 */\n      tag_46\n      jump\t// in\n    tag_185:\n        /* \"Practical3-Use-UI_Play-Jason.sol\":5192:5227  gameHistory[gameHistory.length - 1] */\n      dup2\n      sload\n      dup2\n      lt\n      tag_187\n      jumpi\n      tag_187\n      tag_49\n      jump\t// in\n    tag_187:\n      swap1\n      0x00\n      mstore\n      keccak256(0x00, 0x20)\n      swap1\n      0x05\n      mul\n      add\n        /* \"Practical3-Use-UI_Play-Jason.sol\":5192:5233  gameHistory[gameHistory.length - 1].user1 */\n      0x00\n      add\n        /* \"Practical3-Use-UI_Play-Jason.sol\":5192:5244  gameHistory[gameHistory.length - 1].user1.userOption */\n      0x01\n      add\n      sload\n        /* \"Practical3-Use-UI_Play-Jason.sol\":5248:5249  1 */\n      0x01\n        /* \"Practical3-Use-UI_Play-Jason.sol\":5192:5249  gameHistory[gameHistory.length - 1].user1.userOption == 1 */\n      eq\n        /* \"Practical3-Use-UI_Play-Jason.sol\":5192:5310  gameHistory[gameHistory.length - 1].user1.userOption == 1 && gameHistory[gameHistory.length - 1].user2.userOption == 2 */\n      dup1\n      iszero\n      tag_189\n      jumpi\n      pop\n        /* \"Practical3-Use-UI_Play-Jason.sol\":5253:5264  gameHistory */\n      0x01\n        /* \"Practical3-Use-UI_Play-Jason.sol\":5265:5283  gameHistory.length */\n      dup1\n      sload\n        /* \"Practical3-Use-UI_Play-Jason.sol\":5265:5287  gameHistory.length - 1 */\n      tag_190\n      swap1\n        /* \"Practical3-Use-UI_Play-Jason.sol\":5253:5264  gameHistory */\n      dup3\n      swap1\n        /* \"Practical3-Use-UI_Play-Jason.sol\":5265:5287  gameHistory.length - 1 */\n      tag_46\n      jump\t// in\n    tag_190:\n        /* \"Practical3-Use-UI_Play-Jason.sol\":5253:5288  gameHistory[gameHistory.length - 1] */\n      dup2\n      sload\n      dup2\n      lt\n      tag_192\n      jumpi\n      tag_192\n      tag_49\n      jump\t// in\n    tag_192:\n      swap1\n      0x00\n      mstore\n      keccak256(0x00, 0x20)\n      swap1\n      0x05\n      mul\n      add\n        /* \"Practical3-Use-UI_Play-Jason.sol\":5253:5294  gameHistory[gameHistory.length - 1].user2 */\n      0x02\n      add\n        /* \"Practical3-Use-UI_Play-Jason.sol\":5253:5305  gameHistory[gameHistory.length - 1].user2.userOption */\n      0x01\n      add\n      sload\n        /* \"Practical3-Use-UI_Play-Jason.sol\":5309:5310  2 */\n      0x02\n        /* \"Practical3-Use-UI_Play-Jason.sol\":5253:5310  gameHistory[gameHistory.length - 1].user2.userOption == 2 */\n      eq\n        /* \"Practical3-Use-UI_Play-Jason.sol\":5192:5310  gameHistory[gameHistory.length - 1].user1.userOption == 1 && gameHistory[gameHistory.length - 1].user2.userOption == 2 */\n    tag_189:\n        /* \"Practical3-Use-UI_Play-Jason.sol\":5191:5452  (gameHistory[gameHistory.length - 1].user1.userOption == 1 && gameHistory[gameHistory.length - 1].user2.userOption == 2) ||... */\n      dup1\n      tag_199\n      jumpi\n      pop\n        /* \"Practical3-Use-UI_Play-Jason.sol\":5333:5344  gameHistory */\n      0x01\n        /* \"Practical3-Use-UI_Play-Jason.sol\":5345:5363  gameHistory.length */\n      dup1\n      sload\n        /* \"Practical3-Use-UI_Play-Jason.sol\":5345:5367  gameHistory.length - 1 */\n      tag_195\n      swap1\n        /* \"Practical3-Use-UI_Play-Jason.sol\":5333:5344  gameHistory */\n      dup3\n      swap1\n        /* \"Practical3-Use-UI_Play-Jason.sol\":5345:5367  gameHistory.length - 1 */\n      tag_46\n      jump\t// in\n    tag_195:\n        /* \"Practical3-Use-UI_Play-Jason.sol\":5333:5368  gameHistory[gameHistory.length - 1] */\n      dup2\n      sload\n      dup2\n      lt\n      tag_197\n      jumpi\n      tag_197\n      tag_49\n      jump\t// in\n    tag_197:\n      swap1\n      0x00\n      mstore\n      keccak256(0x00, 0x20)\n      swap1\n      0x05\n      mul\n      add\n        /* \"Practical3-Use-UI_Play-Jason.sol\":5333:5374  gameHistory[gameHistory.length - 1].user1 */\n      0x00\n      add\n        /* \"Practical3-Use-UI_Play-Jason.sol\":5333:5385  gameHistory[gameHistory.length - 1].user1.userOption */\n      0x01\n      add\n      sload\n        /* \"Practical3-Use-UI_Play-Jason.sol\":5389:5390  3 */\n      0x03\n        /* \"Practical3-Use-UI_Play-Jason.sol\":5333:5390  gameHistory[gameHistory.length - 1].user1.userOption == 3 */\n      eq\n        /* \"Practical3-Use-UI_Play-Jason.sol\":5333:5451  gameHistory[gameHistory.length - 1].user1.userOption == 3 && gameHistory[gameHistory.length - 1].user2.userOption == 1 */\n      dup1\n      iszero\n      tag_199\n      jumpi\n      pop\n        /* \"Practical3-Use-UI_Play-Jason.sol\":5394:5405  gameHistory */\n      0x01\n        /* \"Practical3-Use-UI_Play-Jason.sol\":5406:5424  gameHistory.length */\n      dup1\n      sload\n        /* \"Practical3-Use-UI_Play-Jason.sol\":5406:5428  gameHistory.length - 1 */\n      tag_200\n      swap1\n        /* \"Practical3-Use-UI_Play-Jason.sol\":5394:5405  gameHistory */\n      dup3\n      swap1\n        /* \"Practical3-Use-UI_Play-Jason.sol\":5406:5428  gameHistory.length - 1 */\n      tag_46\n      jump\t// in\n    tag_200:\n        /* \"Practical3-Use-UI_Play-Jason.sol\":5394:5429  gameHistory[gameHistory.length - 1] */\n      dup2\n      sload\n      dup2\n      lt\n      tag_202\n      jumpi\n      tag_202\n      tag_49\n      jump\t// in\n    tag_202:\n      swap1\n      0x00\n      mstore\n      keccak256(0x00, 0x20)\n      swap1\n      0x05\n      mul\n      add\n        /* \"Practical3-Use-UI_Play-Jason.sol\":5394:5435  gameHistory[gameHistory.length - 1].user2 */\n      0x02\n      add\n        /* \"Practical3-Use-UI_Play-Jason.sol\":5394:5446  gameHistory[gameHistory.length - 1].user2.userOption */\n      0x01\n      add\n      sload\n        /* \"Practical3-Use-UI_Play-Jason.sol\":5450:5451  1 */\n      0x01\n        /* \"Practical3-Use-UI_Play-Jason.sol\":5394:5451  gameHistory[gameHistory.length - 1].user2.userOption == 1 */\n      eq\n        /* \"Practical3-Use-UI_Play-Jason.sol\":5333:5451  gameHistory[gameHistory.length - 1].user1.userOption == 3 && gameHistory[gameHistory.length - 1].user2.userOption == 1 */\n    tag_199:\n        /* \"Practical3-Use-UI_Play-Jason.sol\":5191:5593  (gameHistory[gameHistory.length - 1].user1.userOption == 1 && gameHistory[gameHistory.length - 1].user2.userOption == 2) ||... */\n      dup1\n      tag_209\n      jumpi\n      pop\n        /* \"Practical3-Use-UI_Play-Jason.sol\":5474:5485  gameHistory */\n      0x01\n        /* \"Practical3-Use-UI_Play-Jason.sol\":5486:5504  gameHistory.length */\n      dup1\n      sload\n        /* \"Practical3-Use-UI_Play-Jason.sol\":5486:5508  gameHistory.length - 1 */\n      tag_205\n      swap1\n        /* \"Practical3-Use-UI_Play-Jason.sol\":5474:5485  gameHistory */\n      dup3\n      swap1\n        /* \"Practical3-Use-UI_Play-Jason.sol\":5486:5508  gameHistory.length - 1 */\n      tag_46\n      jump\t// in\n    tag_205:\n        /* \"Practical3-Use-UI_Play-Jason.sol\":5474:5509  gameHistory[gameHistory.length - 1] */\n      dup2\n      sload\n      dup2\n      lt\n      tag_207\n      jumpi\n      tag_207\n      tag_49\n      jump\t// in\n    tag_207:\n      swap1\n      0x00\n      mstore\n      keccak256(0x00, 0x20)\n      swap1\n      0x05\n      mul\n      add\n        /* \"Practical3-Use-UI_Play-Jason.sol\":5474:5515  gameHistory[gameHistory.length - 1].user1 */\n      0x00\n      add\n        /* \"Practical3-Use-UI_Play-Jason.sol\":5474:5526  gameHistory[gameHistory.length - 1].user1.userOption */\n      0x01\n      add\n      sload\n        /* \"Practical3-Use-UI_Play-Jason.sol\":5530:5531  2 */\n      0x02\n        /* \"Practical3-Use-UI_Play-Jason.sol\":5474:5531  gameHistory[gameHistory.length - 1].user1.userOption == 2 */\n      eq\n        /* \"Practical3-Use-UI_Play-Jason.sol\":5474:5592  gameHistory[gameHistory.length - 1].user1.userOption == 2 && gameHistory[gameHistory.length - 1].user2.userOption == 3 */\n      dup1\n      iszero\n      tag_209\n      jumpi\n      pop\n        /* \"Practical3-Use-UI_Play-Jason.sol\":5535:5546  gameHistory */\n      0x01\n        /* \"Practical3-Use-UI_Play-Jason.sol\":5547:5565  gameHistory.length */\n      dup1\n      sload\n        /* \"Practical3-Use-UI_Play-Jason.sol\":5547:5569  gameHistory.length - 1 */\n      tag_210\n      swap1\n        /* \"Practical3-Use-UI_Play-Jason.sol\":5535:5546  gameHistory */\n      dup3\n      swap1\n        /* \"Practical3-Use-UI_Play-Jason.sol\":5547:5569  gameHistory.length - 1 */\n      tag_46\n      jump\t// in\n    tag_210:\n        /* \"Practical3-Use-UI_Play-Jason.sol\":5535:5570  gameHistory[gameHistory.length - 1] */\n      dup2\n      sload\n      dup2\n      lt\n      tag_212\n      jumpi\n      tag_212\n      tag_49\n      jump\t// in\n    tag_212:\n      swap1\n      0x00\n      mstore\n      keccak256(0x00, 0x20)\n      swap1\n      0x05\n      mul\n      add\n        /* \"Practical3-Use-UI_Play-Jason.sol\":5535:5576  gameHistory[gameHistory.length - 1].user2 */\n      0x02\n      add\n        /* \"Practical3-Use-UI_Play-Jason.sol\":5535:5587  gameHistory[gameHistory.length - 1].user2.userOption */\n      0x01\n      add\n      sload\n        /* \"Practical3-Use-UI_Play-Jason.sol\":5591:5592  3 */\n      0x03\n        /* \"Practical3-Use-UI_Play-Jason.sol\":5535:5592  gameHistory[gameHistory.length - 1].user2.userOption == 3 */\n      eq\n        /* \"Practical3-Use-UI_Play-Jason.sol\":5474:5592  gameHistory[gameHistory.length - 1].user1.userOption == 2 && gameHistory[gameHistory.length - 1].user2.userOption == 3 */\n    tag_209:\n        /* \"Practical3-Use-UI_Play-Jason.sol\":5169:5901  if (... */\n      iszero\n      tag_214\n      jumpi\n        /* \"Practical3-Use-UI_Play-Jason.sol\":5628:5689  gameHistory[gameHistory.length - 1].finalResult = \"User2 win\" */\n      0x40\n      dup1\n      mload\n      dup1\n      dup3\n      add\n      swap1\n      swap2\n      mstore\n      0x09\n      dup2\n      mstore\n      shl(0xb9, 0x2ab9b2b919103bb4b7)\n      0x20\n      dup3\n      add\n      mstore\n        /* \"Practical3-Use-UI_Play-Jason.sol\":5628:5639  gameHistory */\n      0x01\n        /* \"Practical3-Use-UI_Play-Jason.sol\":5640:5658  gameHistory.length */\n      dup1\n      sload\n        /* \"Practical3-Use-UI_Play-Jason.sol\":5640:5662  gameHistory.length - 1 */\n      tag_215\n      swap1\n        /* \"Practical3-Use-UI_Play-Jason.sol\":5628:5639  gameHistory */\n      dup3\n      swap1\n        /* \"Practical3-Use-UI_Play-Jason.sol\":5640:5662  gameHistory.length - 1 */\n      tag_46\n      jump\t// in\n    tag_215:\n        /* \"Practical3-Use-UI_Play-Jason.sol\":5628:5663  gameHistory[gameHistory.length - 1] */\n      dup2\n      sload\n      dup2\n      lt\n      tag_217\n      jumpi\n      tag_217\n      tag_49\n      jump\t// in\n    tag_217:\n      swap1\n      0x00\n      mstore\n      keccak256(0x00, 0x20)\n      swap1\n      0x05\n      mul\n      add\n        /* \"Practical3-Use-UI_Play-Jason.sol\":5628:5675  gameHistory[gameHistory.length - 1].finalResult */\n      0x04\n      add\n        /* \"Practical3-Use-UI_Play-Jason.sol\":5628:5689  gameHistory[gameHistory.length - 1].finalResult = \"User2 win\" */\n      swap1\n      dup2\n      tag_219\n      swap2\n      swap1\n      tag_113\n      jump\t// in\n    tag_219:\n      pop\n        /* \"Practical3-Use-UI_Play-Jason.sol\":5713:5736  showResult(\"User2 win\") */\n      0xcde5c32c0a45fd8aa4b65ea8003fc9da9acd5e2c6c24a9fcce6ab79cabbd9122\n      mload(0x40)\n      tag_182\n      swap1\n        /* \"#utility.yul\":9224:9226   */\n      0x20\n        /* \"#utility.yul\":9206:9227   */\n      dup1\n      dup3\n      mstore\n        /* \"#utility.yul\":9263:9264   */\n      0x09\n        /* \"#utility.yul\":9243:9261   */\n      swap1\n      dup3\n      add\n        /* \"#utility.yul\":9236:9265   */\n      mstore\n      shl(0xb9, 0x2ab9b2b919103bb4b7)\n        /* \"#utility.yul\":9296:9298   */\n      0x40\n        /* \"#utility.yul\":9281:9299   */\n      dup3\n      add\n        /* \"#utility.yul\":9274:9313   */\n      mstore\n        /* \"#utility.yul\":9345:9347   */\n      0x60\n        /* \"#utility.yul\":9330:9348   */\n      add\n      swap1\n        /* \"#utility.yul\":9022:9354   */\n      jump\n        /* \"Practical3-Use-UI_Play-Jason.sol\":5169:5901  if (... */\n    tag_214:\n        /* \"Practical3-Use-UI_Play-Jason.sol\":5777:5838  gameHistory[gameHistory.length - 1].finalResult = \"User1 win\" */\n      0x40\n      dup1\n      mload\n      dup1\n      dup3\n      add\n      swap1\n      swap2\n      mstore\n      0x09\n      dup2\n      mstore\n      shl(0xb9, 0x2ab9b2b918903bb4b7)\n      0x20\n      dup3\n      add\n      mstore\n        /* \"Practical3-Use-UI_Play-Jason.sol\":5777:5788  gameHistory */\n      0x01\n        /* \"Practical3-Use-UI_Play-Jason.sol\":5789:5807  gameHistory.length */\n      dup1\n      sload\n        /* \"Practical3-Use-UI_Play-Jason.sol\":5789:5811  gameHistory.length - 1 */\n      tag_223\n      swap1\n        /* \"Practical3-Use-UI_Play-Jason.sol\":5777:5788  gameHistory */\n      dup3\n      swap1\n        /* \"Practical3-Use-UI_Play-Jason.sol\":5789:5811  gameHistory.length - 1 */\n      tag_46\n      jump\t// in\n    tag_223:\n        /* \"Practical3-Use-UI_Play-Jason.sol\":5777:5812  gameHistory[gameHistory.length - 1] */\n      dup2\n      sload\n      dup2\n      lt\n      tag_225\n      jumpi\n      tag_225\n      tag_49\n      jump\t// in\n    tag_225:\n      swap1\n      0x00\n      mstore\n      keccak256(0x00, 0x20)\n      swap1\n      0x05\n      mul\n      add\n        /* \"Practical3-Use-UI_Play-Jason.sol\":5777:5824  gameHistory[gameHistory.length - 1].finalResult */\n      0x04\n      add\n        /* \"Practical3-Use-UI_Play-Jason.sol\":5777:5838  gameHistory[gameHistory.length - 1].finalResult = \"User1 win\" */\n      swap1\n      dup2\n      tag_227\n      swap2\n      swap1\n      tag_113\n      jump\t// in\n    tag_227:\n      pop\n        /* \"Practical3-Use-UI_Play-Jason.sol\":5862:5885  showResult(\"User1 win\") */\n      0xcde5c32c0a45fd8aa4b65ea8003fc9da9acd5e2c6c24a9fcce6ab79cabbd9122\n      mload(0x40)\n      tag_182\n      swap1\n        /* \"#utility.yul\":9561:9563   */\n      0x20\n        /* \"#utility.yul\":9543:9564   */\n      dup1\n      dup3\n      mstore\n        /* \"#utility.yul\":9600:9601   */\n      0x09\n        /* \"#utility.yul\":9580:9598   */\n      swap1\n      dup3\n      add\n        /* \"#utility.yul\":9573:9602   */\n      mstore\n      shl(0xb9, 0x2ab9b2b918903bb4b7)\n        /* \"#utility.yul\":9633:9635   */\n      0x40\n        /* \"#utility.yul\":9618:9636   */\n      dup3\n      add\n        /* \"#utility.yul\":9611:9650   */\n      mstore\n        /* \"#utility.yul\":9682:9684   */\n      0x60\n        /* \"#utility.yul\":9667:9685   */\n      add\n      swap1\n        /* \"#utility.yul\":9359:9691   */\n      jump\n    tag_110:\n      0x40\n      dup1\n      mload\n      0xa0\n      dup2\n      add\n      swap1\n      swap2\n      mstore\n      0x00\n      0x60\n      dup3\n      add\n      dup2\n      dup2\n      mstore\n      0x80\n      dup4\n      add\n      swap2\n      swap1\n      swap2\n      mstore\n      dup2\n      swap1\n      dup2\n      mstore\n      0x20\n      add\n      tag_231\n      0x40\n      dup1\n      mload\n      dup1\n      dup3\n      add\n      swap1\n      swap2\n      mstore\n      0x00\n      dup1\n      dup3\n      mstore\n      0x20\n      dup3\n      add\n      mstore\n      swap1\n      jump\n    tag_231:\n      dup2\n      mstore\n      0x20\n      add\n      0x60\n      dup2\n      mstore\n      pop\n      swap1\n      jump\t// out\n        /* \"#utility.yul\":196:376   */\n    tag_18:\n        /* \"#utility.yul\":255:261   */\n      0x00\n        /* \"#utility.yul\":308:310   */\n      0x20\n        /* \"#utility.yul\":296:305   */\n      dup3\n        /* \"#utility.yul\":287:294   */\n      dup5\n        /* \"#utility.yul\":283:306   */\n      sub\n        /* \"#utility.yul\":279:311   */\n      slt\n        /* \"#utility.yul\":276:328   */\n      iszero\n      tag_242\n      jumpi\n        /* \"#utility.yul\":324:325   */\n      0x00\n        /* \"#utility.yul\":321:322   */\n      dup1\n        /* \"#utility.yul\":314:326   */\n      revert\n        /* \"#utility.yul\":276:328   */\n    tag_242:\n      pop\n        /* \"#utility.yul\":347:370   */\n      calldataload\n      swap2\n        /* \"#utility.yul\":196:376   */\n      swap1\n      pop\n      jump\t// out\n        /* \"#utility.yul\":769:1483   */\n    tag_233:\n        /* \"#utility.yul\":838:883   */\n      tag_246\n        /* \"#utility.yul\":879:882   */\n      dup3\n        /* \"#utility.yul\":871:876   */\n      dup3\n        /* \"#utility.yul\":865:877   */\n      mload\n        /* \"#utility.yul\":667:679   */\n      dup1\n      mload\n      sub(shl(0xa0, 0x01), 0x01)\n        /* \"#utility.yul\":663:701   */\n      and\n        /* \"#utility.yul\":651:702   */\n      dup3\n      mstore\n        /* \"#utility.yul\":751:755   */\n      0x20\n        /* \"#utility.yul\":740:756   */\n      swap1\n      dup2\n      add\n        /* \"#utility.yul\":734:757   */\n      mload\n        /* \"#utility.yul\":718:732   */\n      swap2\n      add\n        /* \"#utility.yul\":711:758   */\n      mstore\n        /* \"#utility.yul\":589:764   */\n      jump\n        /* \"#utility.yul\":838:883   */\n    tag_246:\n        /* \"#utility.yul\":820:823   */\n      0x00\n        /* \"#utility.yul\":902:906   */\n      0x20\n        /* \"#utility.yul\":952:954   */\n      dup1\n        /* \"#utility.yul\":945:950   */\n      dup4\n        /* \"#utility.yul\":941:955   */\n      add\n        /* \"#utility.yul\":935:956   */\n      mload\n        /* \"#utility.yul\":965:1021   */\n      tag_247\n        /* \"#utility.yul\":1015:1019   */\n      0x40\n        /* \"#utility.yul\":1010:1013   */\n      dup7\n        /* \"#utility.yul\":1006:1020   */\n      add\n        /* \"#utility.yul\":992:1004   */\n      dup3\n        /* \"#utility.yul\":667:679   */\n      dup1\n      mload\n      sub(shl(0xa0, 0x01), 0x01)\n        /* \"#utility.yul\":663:701   */\n      and\n        /* \"#utility.yul\":651:702   */\n      dup3\n      mstore\n        /* \"#utility.yul\":751:755   */\n      0x20\n        /* \"#utility.yul\":740:756   */\n      swap1\n      dup2\n      add\n        /* \"#utility.yul\":734:757   */\n      mload\n        /* \"#utility.yul\":718:732   */\n      swap2\n      add\n        /* \"#utility.yul\":711:758   */\n      mstore\n        /* \"#utility.yul\":589:764   */\n      jump\n        /* \"#utility.yul\":965:1021   */\n    tag_247:\n      pop\n        /* \"#utility.yul\":1069:1073   */\n      0x40\n        /* \"#utility.yul\":1062:1067   */\n      dup4\n        /* \"#utility.yul\":1058:1074   */\n      add\n        /* \"#utility.yul\":1052:1075   */\n      mload\n        /* \"#utility.yul\":1107:1111   */\n      0xa0\n        /* \"#utility.yul\":1100:1104   */\n      0x80\n        /* \"#utility.yul\":1095:1098   */\n      dup7\n        /* \"#utility.yul\":1091:1105   */\n      add\n        /* \"#utility.yul\":1084:1112   */\n      mstore\n        /* \"#utility.yul\":1141:1155   */\n      dup1\n        /* \"#utility.yul\":1135:1156   */\n      mload\n        /* \"#utility.yul\":1188:1194   */\n      dup1\n        /* \"#utility.yul\":1181:1185   */\n      0xa0\n        /* \"#utility.yul\":1176:1179   */\n      dup8\n        /* \"#utility.yul\":1172:1186   */\n      add\n        /* \"#utility.yul\":1165:1195   */\n      mstore\n        /* \"#utility.yul\":1213:1214   */\n      0x00\n        /* \"#utility.yul\":1223:1366   */\n    tag_248:\n        /* \"#utility.yul\":1237:1243   */\n      dup2\n        /* \"#utility.yul\":1234:1235   */\n      dup2\n        /* \"#utility.yul\":1231:1244   */\n      lt\n        /* \"#utility.yul\":1223:1366   */\n      iszero\n      tag_250\n      jumpi\n        /* \"#utility.yul\":1327:1349   */\n      dup3\n      dup2\n      add\n        /* \"#utility.yul\":1323:1354   */\n      dup5\n      add\n        /* \"#utility.yul\":1317:1355   */\n      mload\n        /* \"#utility.yul\":1298:1309   */\n      dup8\n      dup3\n      add\n        /* \"#utility.yul\":1311:1314   */\n      0xc0\n        /* \"#utility.yul\":1294:1315   */\n      add\n        /* \"#utility.yul\":1287:1356   */\n      mstore\n        /* \"#utility.yul\":1252:1262   */\n      dup4\n      add\n        /* \"#utility.yul\":1223:1366   */\n      jump(tag_248)\n    tag_250:\n        /* \"#utility.yul\":1227:1230   */\n      pop\n        /* \"#utility.yul\":1410:1411   */\n      0x00\n        /* \"#utility.yul\":1404:1407   */\n      0xc0\n        /* \"#utility.yul\":1395:1401   */\n      dup3\n        /* \"#utility.yul\":1390:1393   */\n      dup9\n        /* \"#utility.yul\":1386:1402   */\n      add\n        /* \"#utility.yul\":1382:1408   */\n      add\n        /* \"#utility.yul\":1375:1412   */\n      mstore\n        /* \"#utility.yul\":1473:1476   */\n      0xc0\n        /* \"#utility.yul\":1466:1468   */\n      0x1f\n        /* \"#utility.yul\":1462:1469   */\n      not\n        /* \"#utility.yul\":1457:1459   */\n      0x1f\n        /* \"#utility.yul\":1449:1455   */\n      dup4\n        /* \"#utility.yul\":1445:1460   */\n      add\n        /* \"#utility.yul\":1441:1470   */\n      and\n        /* \"#utility.yul\":1436:1439   */\n      dup8\n        /* \"#utility.yul\":1432:1471   */\n      add\n        /* \"#utility.yul\":1428:1477   */\n      add\n        /* \"#utility.yul\":1421:1477   */\n      swap4\n      pop\n      pop\n      pop\n      pop\n        /* \"#utility.yul\":769:1483   */\n      swap3\n      swap2\n      pop\n      pop\n      jump\t// out\n        /* \"#utility.yul\":1488:2328   */\n    tag_27:\n        /* \"#utility.yul\":1678:1682   */\n      0x00\n        /* \"#utility.yul\":1707:1709   */\n      0x20\n        /* \"#utility.yul\":1747:1749   */\n      dup1\n        /* \"#utility.yul\":1736:1745   */\n      dup4\n        /* \"#utility.yul\":1732:1750   */\n      add\n        /* \"#utility.yul\":1777:1779   */\n      dup2\n        /* \"#utility.yul\":1766:1775   */\n      dup5\n        /* \"#utility.yul\":1759:1780   */\n      mstore\n        /* \"#utility.yul\":1800:1806   */\n      dup1\n        /* \"#utility.yul\":1835:1841   */\n      dup6\n        /* \"#utility.yul\":1829:1842   */\n      mload\n        /* \"#utility.yul\":1866:1872   */\n      dup1\n        /* \"#utility.yul\":1858:1864   */\n      dup4\n        /* \"#utility.yul\":1851:1873   */\n      mstore\n        /* \"#utility.yul\":1904:1906   */\n      0x40\n        /* \"#utility.yul\":1893:1902   */\n      dup7\n        /* \"#utility.yul\":1889:1907   */\n      add\n        /* \"#utility.yul\":1882:1907   */\n      swap2\n      pop\n        /* \"#utility.yul\":1966:1968   */\n      0x40\n        /* \"#utility.yul\":1956:1962   */\n      dup2\n        /* \"#utility.yul\":1953:1954   */\n      0x05\n        /* \"#utility.yul\":1949:1963   */\n      shl\n        /* \"#utility.yul\":1938:1947   */\n      dup8\n        /* \"#utility.yul\":1934:1964   */\n      add\n        /* \"#utility.yul\":1930:1969   */\n      add\n        /* \"#utility.yul\":1916:1969   */\n      swap3\n      pop\n        /* \"#utility.yul\":2004:2006   */\n      dup4\n        /* \"#utility.yul\":1996:2002   */\n      dup8\n        /* \"#utility.yul\":1992:2007   */\n      add\n        /* \"#utility.yul\":2025:2026   */\n      0x00\n        /* \"#utility.yul\":2035:2299   */\n    tag_252:\n        /* \"#utility.yul\":2049:2055   */\n      dup3\n        /* \"#utility.yul\":2046:2047   */\n      dup2\n        /* \"#utility.yul\":2043:2056   */\n      lt\n        /* \"#utility.yul\":2035:2299   */\n      iszero\n      tag_254\n      jumpi\n        /* \"#utility.yul\":2142:2144   */\n      0x3f\n        /* \"#utility.yul\":2138:2145   */\n      not\n        /* \"#utility.yul\":2126:2135   */\n      dup9\n        /* \"#utility.yul\":2118:2124   */\n      dup7\n        /* \"#utility.yul\":2114:2136   */\n      sub\n        /* \"#utility.yul\":2110:2146   */\n      add\n        /* \"#utility.yul\":2105:2108   */\n      dup5\n        /* \"#utility.yul\":2098:2147   */\n      mstore\n        /* \"#utility.yul\":2170:2219   */\n      tag_255\n        /* \"#utility.yul\":2212:2218   */\n      dup6\n        /* \"#utility.yul\":2203:2209   */\n      dup4\n        /* \"#utility.yul\":2197:2210   */\n      mload\n        /* \"#utility.yul\":2170:2219   */\n      tag_233\n      jump\t// in\n    tag_255:\n        /* \"#utility.yul\":2160:2219   */\n      swap5\n      pop\n        /* \"#utility.yul\":2277:2289   */\n      swap3\n      dup6\n      add\n      swap3\n        /* \"#utility.yul\":2242:2257   */\n      swap1\n      dup6\n      add\n      swap1\n        /* \"#utility.yul\":2071:2072   */\n      0x01\n        /* \"#utility.yul\":2064:2073   */\n      add\n        /* \"#utility.yul\":2035:2299   */\n      jump(tag_252)\n    tag_254:\n      pop\n        /* \"#utility.yul\":2316:2322   */\n      swap3\n      swap8\n        /* \"#utility.yul\":1488:2328   */\n      swap7\n      pop\n      pop\n      pop\n      pop\n      pop\n      pop\n      pop\n      jump\t// out\n        /* \"#utility.yul\":2333:2576   */\n    tag_37:\n        /* \"#utility.yul\":667:679   */\n      dup2\n      mload\n      sub(shl(0xa0, 0x01), 0x01)\n        /* \"#utility.yul\":663:701   */\n      and\n        /* \"#utility.yul\":651:702   */\n      dup2\n      mstore\n        /* \"#utility.yul\":751:755   */\n      0x20\n        /* \"#utility.yul\":740:756   */\n      dup1\n      dup4\n      add\n        /* \"#utility.yul\":734:757   */\n      mload\n        /* \"#utility.yul\":718:732   */\n      swap1\n      dup3\n      add\n        /* \"#utility.yul\":711:758   */\n      mstore\n        /* \"#utility.yul\":2513:2515   */\n      0x40\n        /* \"#utility.yul\":2498:2516   */\n      dup2\n      add\n        /* \"#utility.yul\":2525:2570   */\n    tag_257:\n        /* \"#utility.yul\":2333:2576   */\n      swap3\n      swap2\n      pop\n      pop\n      jump\t// out\n        /* \"#utility.yul\":2581:2838   */\n    tag_42:\n        /* \"#utility.yul\":2758:2760   */\n      0x20\n        /* \"#utility.yul\":2747:2756   */\n      dup2\n        /* \"#utility.yul\":2740:2761   */\n      mstore\n        /* \"#utility.yul\":2721:2725   */\n      0x00\n        /* \"#utility.yul\":2778:2832   */\n      tag_259\n        /* \"#utility.yul\":2828:2830   */\n      0x20\n        /* \"#utility.yul\":2817:2826   */\n      dup4\n        /* \"#utility.yul\":2813:2831   */\n      add\n        /* \"#utility.yul\":2805:2811   */\n      dup5\n        /* \"#utility.yul\":2778:2832   */\n      tag_233\n      jump\t// in\n    tag_259:\n        /* \"#utility.yul\":2770:2832   */\n      swap4\n        /* \"#utility.yul\":2581:2838   */\n      swap3\n      pop\n      pop\n      pop\n      jump\t// out\n        /* \"#utility.yul\":2843:2970   */\n    tag_234:\n        /* \"#utility.yul\":2904:2914   */\n      0x4e487b71\n        /* \"#utility.yul\":2899:2902   */\n      0xe0\n        /* \"#utility.yul\":2895:2915   */\n      shl\n        /* \"#utility.yul\":2892:2893   */\n      0x00\n        /* \"#utility.yul\":2885:2916   */\n      mstore\n        /* \"#utility.yul\":2935:2939   */\n      0x11\n        /* \"#utility.yul\":2932:2933   */\n      0x04\n        /* \"#utility.yul\":2925:2940   */\n      mstore\n        /* \"#utility.yul\":2959:2963   */\n      0x24\n        /* \"#utility.yul\":2956:2957   */\n      0x00\n        /* \"#utility.yul\":2949:2964   */\n      revert\n        /* \"#utility.yul\":2975:3103   */\n    tag_46:\n        /* \"#utility.yul\":3042:3051   */\n      dup2\n      dup2\n      sub\n        /* \"#utility.yul\":3063:3074   */\n      dup2\n      dup2\n      gt\n        /* \"#utility.yul\":3060:3097   */\n      iszero\n      tag_257\n      jumpi\n        /* \"#utility.yul\":3077:3095   */\n      tag_257\n      tag_234\n      jump\t// in\n        /* \"#utility.yul\":3108:3235   */\n    tag_49:\n        /* \"#utility.yul\":3169:3179   */\n      0x4e487b71\n        /* \"#utility.yul\":3164:3167   */\n      0xe0\n        /* \"#utility.yul\":3160:3180   */\n      shl\n        /* \"#utility.yul\":3157:3158   */\n      0x00\n        /* \"#utility.yul\":3150:3181   */\n      mstore\n        /* \"#utility.yul\":3200:3204   */\n      0x32\n        /* \"#utility.yul\":3197:3198   */\n      0x04\n        /* \"#utility.yul\":3190:3205   */\n      mstore\n        /* \"#utility.yul\":3224:3228   */\n      0x24\n        /* \"#utility.yul\":3221:3222   */\n      0x00\n        /* \"#utility.yul\":3214:3229   */\n      revert\n        /* \"#utility.yul\":3240:3650   */\n    tag_58:\n        /* \"#utility.yul\":3442:3444   */\n      0x20\n        /* \"#utility.yul\":3424:3445   */\n      dup1\n      dup3\n      mstore\n        /* \"#utility.yul\":3481:3483   */\n      0x2e\n        /* \"#utility.yul\":3461:3479   */\n      swap1\n      dup3\n      add\n        /* \"#utility.yul\":3454:3484   */\n      mstore\n        /* \"#utility.yul\":3520:3554   */\n      0x596f7520616c72656164792073656c656374206f7074696f6e20616e64206974\n        /* \"#utility.yul\":3515:3517   */\n      0x40\n        /* \"#utility.yul\":3500:3518   */\n      dup3\n      add\n        /* \"#utility.yul\":3493:3555   */\n      mstore\n      shl(0x90, 0x2063616e6e6f74206368616e6765)\n        /* \"#utility.yul\":3586:3588   */\n      0x60\n        /* \"#utility.yul\":3571:3589   */\n      dup3\n      add\n        /* \"#utility.yul\":3564:3608   */\n      mstore\n        /* \"#utility.yul\":3640:3643   */\n      0x80\n        /* \"#utility.yul\":3625:3644   */\n      add\n      swap1\n        /* \"#utility.yul\":3240:3650   */\n      jump\t// out\n        /* \"#utility.yul\":4008:4388   */\n    tag_98:\n        /* \"#utility.yul\":4087:4088   */\n      0x01\n        /* \"#utility.yul\":4083:4095   */\n      dup2\n      dup2\n      shr\n      swap1\n        /* \"#utility.yul\":4130:4142   */\n      dup3\n      and\n      dup1\n        /* \"#utility.yul\":4151:4212   */\n      tag_268\n      jumpi\n        /* \"#utility.yul\":4205:4209   */\n      0x7f\n        /* \"#utility.yul\":4197:4203   */\n      dup3\n        /* \"#utility.yul\":4193:4210   */\n      and\n        /* \"#utility.yul\":4183:4210   */\n      swap2\n      pop\n        /* \"#utility.yul\":4151:4212   */\n    tag_268:\n        /* \"#utility.yul\":4258:4260   */\n      0x20\n        /* \"#utility.yul\":4250:4256   */\n      dup3\n        /* \"#utility.yul\":4247:4261   */\n      lt\n        /* \"#utility.yul\":4227:4245   */\n      dup2\n        /* \"#utility.yul\":4224:4262   */\n      sub\n        /* \"#utility.yul\":4221:4382   */\n      tag_269\n      jumpi\n        /* \"#utility.yul\":4304:4314   */\n      0x4e487b71\n        /* \"#utility.yul\":4299:4302   */\n      0xe0\n        /* \"#utility.yul\":4295:4315   */\n      shl\n        /* \"#utility.yul\":4292:4293   */\n      0x00\n        /* \"#utility.yul\":4285:4316   */\n      mstore\n        /* \"#utility.yul\":4339:4343   */\n      0x22\n        /* \"#utility.yul\":4336:4337   */\n      0x04\n        /* \"#utility.yul\":4329:4344   */\n      mstore\n        /* \"#utility.yul\":4367:4371   */\n      0x24\n        /* \"#utility.yul\":4364:4365   */\n      0x00\n        /* \"#utility.yul\":4357:4372   */\n      revert\n        /* \"#utility.yul\":4221:4382   */\n    tag_269:\n      pop\n        /* \"#utility.yul\":4008:4388   */\n      swap2\n      swap1\n      pop\n      jump\t// out\n        /* \"#utility.yul\":4743:4870   */\n    tag_235:\n        /* \"#utility.yul\":4804:4814   */\n      0x4e487b71\n        /* \"#utility.yul\":4799:4802   */\n      0xe0\n        /* \"#utility.yul\":4795:4815   */\n      shl\n        /* \"#utility.yul\":4792:4793   */\n      0x00\n        /* \"#utility.yul\":4785:4816   */\n      mstore\n        /* \"#utility.yul\":4835:4839   */\n      0x41\n        /* \"#utility.yul\":4832:4833   */\n      0x04\n        /* \"#utility.yul\":4825:4840   */\n      mstore\n        /* \"#utility.yul\":4859:4863   */\n      0x24\n        /* \"#utility.yul\":4856:4857   */\n      0x00\n        /* \"#utility.yul\":4849:4864   */\n      revert\n        /* \"#utility.yul\":5001:5546   */\n    tag_237:\n        /* \"#utility.yul\":5103:5105   */\n      0x1f\n        /* \"#utility.yul\":5098:5101   */\n      dup3\n        /* \"#utility.yul\":5095:5106   */\n      gt\n        /* \"#utility.yul\":5092:5540   */\n      iszero\n      tag_274\n      jumpi\n        /* \"#utility.yul\":5139:5140   */\n      0x00\n        /* \"#utility.yul\":5164:5169   */\n      dup2\n        /* \"#utility.yul\":5160:5162   */\n      dup2\n        /* \"#utility.yul\":5153:5170   */\n      mstore\n        /* \"#utility.yul\":5209:5213   */\n      0x20\n        /* \"#utility.yul\":5205:5207   */\n      dup2\n        /* \"#utility.yul\":5195:5214   */\n      keccak256\n        /* \"#utility.yul\":5279:5281   */\n      0x1f\n        /* \"#utility.yul\":5267:5277   */\n      dup6\n        /* \"#utility.yul\":5263:5282   */\n      add\n        /* \"#utility.yul\":5260:5261   */\n      0x05\n        /* \"#utility.yul\":5256:5283   */\n      shr\n        /* \"#utility.yul\":5250:5254   */\n      dup2\n        /* \"#utility.yul\":5246:5284   */\n      add\n        /* \"#utility.yul\":5315:5319   */\n      0x20\n        /* \"#utility.yul\":5303:5313   */\n      dup7\n        /* \"#utility.yul\":5300:5320   */\n      lt\n        /* \"#utility.yul\":5297:5344   */\n      iszero\n      tag_275\n      jumpi\n      pop\n        /* \"#utility.yul\":5338:5342   */\n      dup1\n        /* \"#utility.yul\":5297:5344   */\n    tag_275:\n        /* \"#utility.yul\":5393:5395   */\n      0x1f\n        /* \"#utility.yul\":5388:5391   */\n      dup6\n        /* \"#utility.yul\":5384:5396   */\n      add\n        /* \"#utility.yul\":5381:5382   */\n      0x05\n        /* \"#utility.yul\":5377:5397   */\n      shr\n        /* \"#utility.yul\":5371:5375   */\n      dup3\n        /* \"#utility.yul\":5367:5398   */\n      add\n        /* \"#utility.yul\":5357:5398   */\n      swap2\n      pop\n        /* \"#utility.yul\":5448:5530   */\n    tag_276:\n        /* \"#utility.yul\":5466:5468   */\n      dup2\n        /* \"#utility.yul\":5459:5464   */\n      dup2\n        /* \"#utility.yul\":5456:5469   */\n      lt\n        /* \"#utility.yul\":5448:5530   */\n      iszero\n      tag_278\n      jumpi\n        /* \"#utility.yul\":5511:5528   */\n      dup3\n      dup2\n      sstore\n        /* \"#utility.yul\":5492:5493   */\n      0x01\n        /* \"#utility.yul\":5481:5494   */\n      add\n        /* \"#utility.yul\":5448:5530   */\n      jump(tag_276)\n    tag_278:\n        /* \"#utility.yul\":5452:5455   */\n      pop\n      pop\n      pop\n        /* \"#utility.yul\":5092:5540   */\n    tag_274:\n        /* \"#utility.yul\":5001:5546   */\n      pop\n      pop\n      pop\n      jump\t// out\n        /* \"#utility.yul\":5722:7074   */\n    tag_113:\n        /* \"#utility.yul\":5848:5851   */\n      dup2\n        /* \"#utility.yul\":5842:5852   */\n      mload\n        /* \"#utility.yul\":5875:5893   */\n      0xffffffffffffffff\n        /* \"#utility.yul\":5867:5873   */\n      dup2\n        /* \"#utility.yul\":5864:5894   */\n      gt\n        /* \"#utility.yul\":5861:5917   */\n      iszero\n      tag_282\n      jumpi\n        /* \"#utility.yul\":5897:5915   */\n      tag_282\n      tag_235\n      jump\t// in\n    tag_282:\n        /* \"#utility.yul\":5926:6023   */\n      tag_283\n        /* \"#utility.yul\":6016:6022   */\n      dup2\n        /* \"#utility.yul\":5976:6014   */\n      tag_284\n        /* \"#utility.yul\":6008:6012   */\n      dup5\n        /* \"#utility.yul\":6002:6013   */\n      sload\n        /* \"#utility.yul\":5976:6014   */\n      tag_98\n      jump\t// in\n    tag_284:\n        /* \"#utility.yul\":5970:5974   */\n      dup5\n        /* \"#utility.yul\":5926:6023   */\n      tag_237\n      jump\t// in\n    tag_283:\n        /* \"#utility.yul\":6078:6082   */\n      0x20\n      dup1\n        /* \"#utility.yul\":6142:6144   */\n      0x1f\n        /* \"#utility.yul\":6131:6145   */\n      dup4\n      gt\n        /* \"#utility.yul\":6159:6160   */\n      0x01\n        /* \"#utility.yul\":6154:6817   */\n      dup2\n      eq\n      tag_286\n      jumpi\n        /* \"#utility.yul\":6861:6862   */\n      0x00\n        /* \"#utility.yul\":6878:6884   */\n      dup5\n        /* \"#utility.yul\":6875:6964   */\n      iszero\n      tag_287\n      jumpi\n      pop\n        /* \"#utility.yul\":6930:6949   */\n      dup6\n      dup4\n      add\n        /* \"#utility.yul\":6924:6950   */\n      mload\n        /* \"#utility.yul\":6875:6964   */\n    tag_287:\n      not(0x00)\n        /* \"#utility.yul\":5679:5680   */\n      0x03\n        /* \"#utility.yul\":5675:5686   */\n      dup7\n      swap1\n      shl\n        /* \"#utility.yul\":5671:5695   */\n      shr\n        /* \"#utility.yul\":5667:5696   */\n      not\n        /* \"#utility.yul\":5657:5697   */\n      and\n        /* \"#utility.yul\":5703:5704   */\n      0x01\n        /* \"#utility.yul\":5699:5710   */\n      dup6\n      swap1\n      shl\n        /* \"#utility.yul\":5654:5711   */\n      or\n        /* \"#utility.yul\":6977:7058   */\n      dup6\n      sstore\n        /* \"#utility.yul\":6124:7068   */\n      jump(tag_278)\n        /* \"#utility.yul\":6154:6817   */\n    tag_286:\n        /* \"#utility.yul\":4948:4949   */\n      0x00\n        /* \"#utility.yul\":4941:4955   */\n      dup6\n      dup2\n      mstore\n        /* \"#utility.yul\":4985:4989   */\n      0x20\n        /* \"#utility.yul\":4972:4990   */\n      dup2\n      keccak256\n      not(0x1f)\n        /* \"#utility.yul\":6190:6210   */\n      dup7\n      and\n      swap2\n        /* \"#utility.yul\":6308:6544   */\n    tag_290:\n        /* \"#utility.yul\":6322:6329   */\n      dup3\n        /* \"#utility.yul\":6319:6320   */\n      dup2\n        /* \"#utility.yul\":6316:6330   */\n      lt\n        /* \"#utility.yul\":6308:6544   */\n      iszero\n      tag_292\n      jumpi\n        /* \"#utility.yul\":6411:6430   */\n      dup9\n      dup7\n      add\n        /* \"#utility.yul\":6405:6431   */\n      mload\n        /* \"#utility.yul\":6390:6432   */\n      dup3\n      sstore\n        /* \"#utility.yul\":6503:6530   */\n      swap5\n      dup5\n      add\n      swap5\n        /* \"#utility.yul\":6471:6472   */\n      0x01\n        /* \"#utility.yul\":6459:6473   */\n      swap1\n      swap2\n      add\n      swap1\n        /* \"#utility.yul\":6338:6357   */\n      dup5\n      add\n        /* \"#utility.yul\":6308:6544   */\n      jump(tag_290)\n    tag_292:\n        /* \"#utility.yul\":6312:6315   */\n      pop\n        /* \"#utility.yul\":6572:6578   */\n      dup6\n        /* \"#utility.yul\":6563:6570   */\n      dup3\n        /* \"#utility.yul\":6560:6579   */\n      lt\n        /* \"#utility.yul\":6557:6758   */\n      iszero\n      tag_293\n      jumpi\n        /* \"#utility.yul\":6633:6652   */\n      dup8\n      dup6\n      add\n        /* \"#utility.yul\":6627:6653   */\n      mload\n      not(0x00)\n        /* \"#utility.yul\":6716:6717   */\n      0x03\n        /* \"#utility.yul\":6712:6726   */\n      dup9\n      swap1\n      shl\n        /* \"#utility.yul\":6728:6731   */\n      0xf8\n        /* \"#utility.yul\":6708:6732   */\n      and\n        /* \"#utility.yul\":6704:6741   */\n      shr\n        /* \"#utility.yul\":6700:6742   */\n      not\n        /* \"#utility.yul\":6685:6743   */\n      and\n        /* \"#utility.yul\":6670:6744   */\n      dup2\n      sstore\n        /* \"#utility.yul\":6557:6758   */\n    tag_293:\n      pop\n      pop\n      pop\n      pop\n      pop\n        /* \"#utility.yul\":6804:6805   */\n      0x01\n        /* \"#utility.yul\":6788:6802   */\n      swap1\n      dup2\n      shl\n        /* \"#utility.yul\":6784:6806   */\n      add\n        /* \"#utility.yul\":6771:6807   */\n      swap1\n      sstore\n      pop\n        /* \"#utility.yul\":5722:7074   */\n      jump\t// out\n        /* \"#utility.yul\":7079:7214   */\n    tag_119:\n        /* \"#utility.yul\":7118:7121   */\n      0x00\n        /* \"#utility.yul\":7139:7156   */\n      0x01\n      dup3\n      add\n        /* \"#utility.yul\":7136:7179   */\n      tag_296\n      jumpi\n        /* \"#utility.yul\":7159:7177   */\n      tag_296\n      tag_234\n      jump\t// in\n    tag_296:\n      pop\n        /* \"#utility.yul\":7206:7207   */\n      0x01\n        /* \"#utility.yul\":7195:7208   */\n      add\n      swap1\n        /* \"#utility.yul\":7079:7214   */\n      jump\t// out\n\n    auxdata: 0xa264697066735822122016a8bd16c5bed0330a92bdf460aad27a0f2647dd519f5525381b8f5da627aeef64736f6c63430008130033\n}\n",
				"bytecode": {
					"linkReferences": {},
					"object": "60806040526000805534801561001457600080fd5b5061133a806100246000396000f3fe608060405234801561001057600080fd5b50600436106100885760003560e01c80636ef595d81161005b5780636ef595d8146100f857806393e84cd914610110578063e417f4a314610118578063f7c4efbb1461013857600080fd5b80631eed565b1461008d5780632cde7869146100a35780633d5e9d2d146100b8578063512ec557146100e3575b600080fd5b6001546040519081526020015b60405180910390f35b6100b66100b1366004610fac565b610158565b005b6003546100cb906001600160a01b031681565b6040516001600160a01b03909116815260200161009a565b6100eb61040f565b60405161009a9190611061565b6002546100cb9061010090046001600160a01b031681565b6100b6610548565b61012b610126366004610fac565b61097f565b60405161009a91906110c3565b61014b610146366004610fac565b610a29565b60405161009a91906110e5565b60018054610167908290611115565b8154811061017757610177611128565b60009182526020909120600590910201546001600160a01b0316330361022e57600180546101a6908290611115565b815481106101b6576101b6611128565b9060005260206000209060050201600001600101546000146101f35760405162461bcd60e51b81526004016101ea9061113e565b60405180910390fd5b60018054829190610205908290611115565b8154811061021557610215611128565b60009182526020909120600160059092020101556102fa565b6001805461023d908290611115565b8154811061024d5761024d611128565b60009182526020909120600260059092020101546001600160a01b031633036102fa576001805461027f908290611115565b8154811061028f5761028f611128565b9060005260206000209060050201600201600101546000146102c35760405162461bcd60e51b81526004016101ea9061113e565b600180548291906102d5908290611115565b815481106102e5576102e5611128565b60009182526020909120600360059092020101555b60018054610309908290611115565b8154811061031957610319611128565b906000526020600020906005020160000160010154600014158015610372575060018054610348908290611115565b8154811061035857610358611128565b906000526020600020906005020160020160010154600014155b1561040c577f1d229a771174308da40f70761ba48b700922b118fea40f5e3705f7067c12cc386040516103d69060208082526018908201527f676f20696e20746f20636f6e646974696f6e20636865636b0000000000000000604082015260600190565b60405180910390a16103e6610b8b565b6000805560028054610100600160a81b0319169055600380546001600160a01b03191690555b50565b60606001805480602002602001604051908101604052809291908181526020016000905b8282101561053f5760008481526020908190206040805160a0810182526005860290920180546001600160a01b0390811660608501908152600183015460808601528452825180840184526002830154909116815260038201548186015293830193909352600483018054929392918401916104ae9061118c565b80601f01602080910402602001604051908101604052809291908181526020018280546104da9061118c565b80156105275780601f106104fc57610100808354040283529160200191610527565b820191906000526020600020905b81548152906001019060200180831161050a57829003601f168201915b50505050508152505081526020019060010190610433565b50505050905090565b60025460ff16156105935760405162461bcd60e51b8152602060048201526015602482015274115c9c9bdc8e881499595b9d1c985b9d0818d85b1b605a1b60448201526064016101ea565b6002805460ff19166001179055600080549003610747576105b2610f62565b600180548082018255600091909152815180517fb10e2d527612073b26eecdfd717e6a320cf44b4afac2b0732d9fcbe2b7fa0cf6600590930292830180546001600160a01b03199081166001600160a01b039384161782556020938401517fb10e2d527612073b26eecdfd717e6a320cf44b4afac2b0732d9fcbe2b7fa0cf78601558386015180517fb10e2d527612073b26eecdfd717e6a320cf44b4afac2b0732d9fcbe2b7fa0cf88701805490931694169390931790559101517fb10e2d527612073b26eecdfd717e6a320cf44b4afac2b0732d9fcbe2b7fa0cf9830155604083015183927fb10e2d527612073b26eecdfd717e6a320cf44b4afac2b0732d9fcbe2b7fa0cfa01906106c5908261122b565b5050600180543392506106d9908290611115565b815481106106e9576106e9611128565b6000918252602082206005919091020180546001600160a01b0319166001600160a01b03939093169290921790915560028054610100600160a81b03191661010033021790558054908061073c836112eb565b919050555050610973565b60018054610756908290611115565b8154811061076657610766611128565b60009182526020909120600590910201546001600160a01b031633036107da5760405162461bcd60e51b8152602060048201526024808201527f4572726f723a20596f752063616e6e6f7420706c6179207769746820796f757260448201526339b2b63360e11b60648201526084016101ea565b60026000541061083b5760405162461bcd60e51b815260206004820152602660248201527f596f75206e65656420746f207761697420666f72207468652070657276696f7560448201526539903ab9b2b960d11b60648201526084016101ea565b6001805433919061084d908290611115565b8154811061085d5761085d611128565b6000918252602090912060026005909202010180546001600160a01b03929092166001600160a01b03199283161790556003805490911633179055600180547fdaa57ee2c04aee347b88819662fcdb8376824fb89a1f9b97a41edb933a3ba7a691906108ca908290611115565b815481106108da576108da611128565b6000918252602090912060059091020154600180546001600160a01b0390921691610906908290611115565b8154811061091657610916611128565b600091825260209091206002600590920201015460405161095692916001600160a01b0316906001600160a01b0392831681529116602082015260400190565b60405180910390a160008054908061096d836112eb565b91905055505b6002805460ff19169055565b60408051808201909152600080825260208201526001548211156109dd5760405162461bcd60e51b815260206004820152601560248201527408ae4e4dee4744092dcecc2d8d2c840d8cadccee8d605b1b60448201526064016101ea565b600182815481106109f0576109f0611128565b60009182526020918290206040805180820190915260059092020180546001600160a01b03168252600101549181019190915292915050565b610a31610f62565b600154821115610a7b5760405162461bcd60e51b815260206004820152601560248201527408ae4e4dee4744092dcecc2d8d2c840d8cadccee8d605b1b60448201526064016101ea565b60018281548110610a8e57610a8e611128565b60009182526020918290206040805160a081018252600590930290910180546001600160a01b039081166060850190815260018301546080860152845282518084018452600283015490911681526003820154818601529383019390935260048301805492939291840191610b029061118c565b80601f0160208091040260200160405190810160405280929190818152602001828054610b2e9061118c565b8015610b7b5780601f10610b5057610100808354040283529160200191610b7b565b820191906000526020600020905b815481529060010190602001808311610b5e57829003601f168201915b5050505050815250509050919050565b60018054610b9a908290611115565b81548110610baa57610baa611128565b600091825260209091206003600590920201015460018054610bcd908290611115565b81548110610bdd57610bdd611128565b90600052602060002090600502016000016001015403610c9f57604080518082019091526004815263151a595960e21b602082015260018054610c21908290611115565b81548110610c3157610c31611128565b90600052602060002090600502016004019081610c4e919061122b565b507fcde5c32c0a45fd8aa4b65ea8003fc9da9acd5e2c6c24a9fcce6ab79cabbd9122604051610c9590602080825260049082015263151a595960e21b604082015260600190565b60405180910390a1565b60018054610cae908290611115565b81548110610cbe57610cbe611128565b9060005260206000209060050201600001600101546001148015610d15575060018054610cec908290611115565b81548110610cfc57610cfc611128565b9060005260206000209060050201600201600101546002145b80610d91575060018054610d2a908290611115565b81548110610d3a57610d3a611128565b9060005260206000209060050201600001600101546003148015610d91575060018054610d68908290611115565b81548110610d7857610d78611128565b9060005260206000209060050201600201600101546001145b80610e0d575060018054610da6908290611115565b81548110610db657610db6611128565b9060005260206000209060050201600001600101546002148015610e0d575060018054610de4908290611115565b81548110610df457610df4611128565b9060005260206000209060050201600201600101546003145b15610eba576040805180820190915260098152682ab9b2b919103bb4b760b91b602082015260018054610e41908290611115565b81548110610e5157610e51611128565b90600052602060002090600502016004019081610e6e919061122b565b507fcde5c32c0a45fd8aa4b65ea8003fc9da9acd5e2c6c24a9fcce6ab79cabbd9122604051610c95906020808252600990820152682ab9b2b919103bb4b760b91b604082015260600190565b6040805180820190915260098152682ab9b2b918903bb4b760b91b602082015260018054610ee9908290611115565b81548110610ef957610ef9611128565b90600052602060002090600502016004019081610f16919061122b565b507fcde5c32c0a45fd8aa4b65ea8003fc9da9acd5e2c6c24a9fcce6ab79cabbd9122604051610c95906020808252600990820152682ab9b2b918903bb4b760b91b604082015260600190565b6040805160a08101909152600060608201818152608083019190915281908152602001610f9f604080518082019091526000808252602082015290565b8152602001606081525090565b600060208284031215610fbe57600080fd5b5035919050565b610fe382825180516001600160a01b03168252602090810151910152565b600060208083015161100b604086018280516001600160a01b03168252602090810151910152565b50604083015160a0608086015280518060a087015260005b8181101561103f5782810184015187820160c001528301611023565b50600060c0828801015260c0601f19601f830116870101935050505092915050565b6000602080830181845280855180835260408601915060408160051b870101925083870160005b828110156110b657603f198886030184526110a4858351610fc5565b94509285019290850190600101611088565b5092979650505050505050565b81516001600160a01b0316815260208083015190820152604081015b92915050565b6020815260006110f86020830184610fc5565b9392505050565b634e487b7160e01b600052601160045260246000fd5b818103818111156110df576110df6110ff565b634e487b7160e01b600052603260045260246000fd5b6020808252602e908201527f596f7520616c72656164792073656c656374206f7074696f6e20616e6420697460408201526d2063616e6e6f74206368616e676560901b606082015260800190565b600181811c908216806111a057607f821691505b6020821081036111c057634e487b7160e01b600052602260045260246000fd5b50919050565b634e487b7160e01b600052604160045260246000fd5b601f82111561122657600081815260208120601f850160051c810160208610156112035750805b601f850160051c820191505b818110156112225782815560010161120f565b5050505b505050565b815167ffffffffffffffff811115611245576112456111c6565b61125981611253845461118c565b846111dc565b602080601f83116001811461128e57600084156112765750858301515b600019600386901b1c1916600185901b178555611222565b600085815260208120601f198616915b828110156112bd5788860151825594840194600190910190840161129e565b50858210156112db5787850151600019600388901b60f8161c191681555b5050505050600190811b01905550565b6000600182016112fd576112fd6110ff565b506001019056fea264697066735822122016a8bd16c5bed0330a92bdf460aad27a0f2647dd519f5525381b8f5da627aeef64736f6c63430008130033",
					"opcodes": "PUSH1 0x80 PUSH1 0x40 MSTORE PUSH1 0x0 DUP1 SSTORE CALLVALUE DUP1 ISZERO PUSH2 0x14 JUMPI PUSH1 0x0 DUP1 REVERT JUMPDEST POP PUSH2 0x133A DUP1 PUSH2 0x24 PUSH1 0x0 CODECOPY PUSH1 0x0 RETURN INVALID PUSH1 0x80 PUSH1 0x40 MSTORE CALLVALUE DUP1 ISZERO PUSH2 0x10 JUMPI PUSH1 0x0 DUP1 REVERT JUMPDEST POP PUSH1 0x4 CALLDATASIZE LT PUSH2 0x88 JUMPI PUSH1 0x0 CALLDATALOAD PUSH1 0xE0 SHR DUP1 PUSH4 0x6EF595D8 GT PUSH2 0x5B JUMPI DUP1 PUSH4 0x6EF595D8 EQ PUSH2 0xF8 JUMPI DUP1 PUSH4 0x93E84CD9 EQ PUSH2 0x110 JUMPI DUP1 PUSH4 0xE417F4A3 EQ PUSH2 0x118 JUMPI DUP1 PUSH4 0xF7C4EFBB EQ PUSH2 0x138 JUMPI PUSH1 0x0 DUP1 REVERT JUMPDEST DUP1 PUSH4 0x1EED565B EQ PUSH2 0x8D JUMPI DUP1 PUSH4 0x2CDE7869 EQ PUSH2 0xA3 JUMPI DUP1 PUSH4 0x3D5E9D2D EQ PUSH2 0xB8 JUMPI DUP1 PUSH4 0x512EC557 EQ PUSH2 0xE3 JUMPI JUMPDEST PUSH1 0x0 DUP1 REVERT JUMPDEST PUSH1 0x1 SLOAD PUSH1 0x40 MLOAD SWAP1 DUP2 MSTORE PUSH1 0x20 ADD JUMPDEST PUSH1 0x40 MLOAD DUP1 SWAP2 SUB SWAP1 RETURN JUMPDEST PUSH2 0xB6 PUSH2 0xB1 CALLDATASIZE PUSH1 0x4 PUSH2 0xFAC JUMP JUMPDEST PUSH2 0x158 JUMP JUMPDEST STOP JUMPDEST PUSH1 0x3 SLOAD PUSH2 0xCB SWAP1 PUSH1 0x1 PUSH1 0x1 PUSH1 0xA0 SHL SUB AND DUP2 JUMP JUMPDEST PUSH1 0x40 MLOAD PUSH1 0x1 PUSH1 0x1 PUSH1 0xA0 SHL SUB SWAP1 SWAP2 AND DUP2 MSTORE PUSH1 0x20 ADD PUSH2 0x9A JUMP JUMPDEST PUSH2 0xEB PUSH2 0x40F JUMP JUMPDEST PUSH1 0x40 MLOAD PUSH2 0x9A SWAP2 SWAP1 PUSH2 0x1061 JUMP JUMPDEST PUSH1 0x2 SLOAD PUSH2 0xCB SWAP1 PUSH2 0x100 SWAP1 DIV PUSH1 0x1 PUSH1 0x1 PUSH1 0xA0 SHL SUB AND DUP2 JUMP JUMPDEST PUSH2 0xB6 PUSH2 0x548 JUMP JUMPDEST PUSH2 0x12B PUSH2 0x126 CALLDATASIZE PUSH1 0x4 PUSH2 0xFAC JUMP JUMPDEST PUSH2 0x97F JUMP JUMPDEST PUSH1 0x40 MLOAD PUSH2 0x9A SWAP2 SWAP1 PUSH2 0x10C3 JUMP JUMPDEST PUSH2 0x14B PUSH2 0x146 CALLDATASIZE PUSH1 0x4 PUSH2 0xFAC JUMP JUMPDEST PUSH2 0xA29 JUMP JUMPDEST PUSH1 0x40 MLOAD PUSH2 0x9A SWAP2 SWAP1 PUSH2 0x10E5 JUMP JUMPDEST PUSH1 0x1 DUP1 SLOAD PUSH2 0x167 SWAP1 DUP3 SWAP1 PUSH2 0x1115 JUMP JUMPDEST DUP2 SLOAD DUP2 LT PUSH2 0x177 JUMPI PUSH2 0x177 PUSH2 0x1128 JUMP JUMPDEST PUSH1 0x0 SWAP2 DUP3 MSTORE PUSH1 0x20 SWAP1 SWAP2 KECCAK256 PUSH1 0x5 SWAP1 SWAP2 MUL ADD SLOAD PUSH1 0x1 PUSH1 0x1 PUSH1 0xA0 SHL SUB AND CALLER SUB PUSH2 0x22E JUMPI PUSH1 0x1 DUP1 SLOAD PUSH2 0x1A6 SWAP1 DUP3 SWAP1 PUSH2 0x1115 JUMP JUMPDEST DUP2 SLOAD DUP2 LT PUSH2 0x1B6 JUMPI PUSH2 0x1B6 PUSH2 0x1128 JUMP JUMPDEST SWAP1 PUSH1 0x0 MSTORE PUSH1 0x20 PUSH1 0x0 KECCAK256 SWAP1 PUSH1 0x5 MUL ADD PUSH1 0x0 ADD PUSH1 0x1 ADD SLOAD PUSH1 0x0 EQ PUSH2 0x1F3 JUMPI PUSH1 0x40 MLOAD PUSH3 0x461BCD PUSH1 0xE5 SHL DUP2 MSTORE PUSH1 0x4 ADD PUSH2 0x1EA SWAP1 PUSH2 0x113E JUMP JUMPDEST PUSH1 0x40 MLOAD DUP1 SWAP2 SUB SWAP1 REVERT JUMPDEST PUSH1 0x1 DUP1 SLOAD DUP3 SWAP2 SWAP1 PUSH2 0x205 SWAP1 DUP3 SWAP1 PUSH2 0x1115 JUMP JUMPDEST DUP2 SLOAD DUP2 LT PUSH2 0x215 JUMPI PUSH2 0x215 PUSH2 0x1128 JUMP JUMPDEST PUSH1 0x0 SWAP2 DUP3 MSTORE PUSH1 0x20 SWAP1 SWAP2 KECCAK256 PUSH1 0x1 PUSH1 0x5 SWAP1 SWAP3 MUL ADD ADD SSTORE PUSH2 0x2FA JUMP JUMPDEST PUSH1 0x1 DUP1 SLOAD PUSH2 0x23D SWAP1 DUP3 SWAP1 PUSH2 0x1115 JUMP JUMPDEST DUP2 SLOAD DUP2 LT PUSH2 0x24D JUMPI PUSH2 0x24D PUSH2 0x1128 JUMP JUMPDEST PUSH1 0x0 SWAP2 DUP3 MSTORE PUSH1 0x20 SWAP1 SWAP2 KECCAK256 PUSH1 0x2 PUSH1 0x5 SWAP1 SWAP3 MUL ADD ADD SLOAD PUSH1 0x1 PUSH1 0x1 PUSH1 0xA0 SHL SUB AND CALLER SUB PUSH2 0x2FA JUMPI PUSH1 0x1 DUP1 SLOAD PUSH2 0x27F SWAP1 DUP3 SWAP1 PUSH2 0x1115 JUMP JUMPDEST DUP2 SLOAD DUP2 LT PUSH2 0x28F JUMPI PUSH2 0x28F PUSH2 0x1128 JUMP JUMPDEST SWAP1 PUSH1 0x0 MSTORE PUSH1 0x20 PUSH1 0x0 KECCAK256 SWAP1 PUSH1 0x5 MUL ADD PUSH1 0x2 ADD PUSH1 0x1 ADD SLOAD PUSH1 0x0 EQ PUSH2 0x2C3 JUMPI PUSH1 0x40 MLOAD PUSH3 0x461BCD PUSH1 0xE5 SHL DUP2 MSTORE PUSH1 0x4 ADD PUSH2 0x1EA SWAP1 PUSH2 0x113E JUMP JUMPDEST PUSH1 0x1 DUP1 SLOAD DUP3 SWAP2 SWAP1 PUSH2 0x2D5 SWAP1 DUP3 SWAP1 PUSH2 0x1115 JUMP JUMPDEST DUP2 SLOAD DUP2 LT PUSH2 0x2E5 JUMPI PUSH2 0x2E5 PUSH2 0x1128 JUMP JUMPDEST PUSH1 0x0 SWAP2 DUP3 MSTORE PUSH1 0x20 SWAP1 SWAP2 KECCAK256 PUSH1 0x3 PUSH1 0x5 SWAP1 SWAP3 MUL ADD ADD SSTORE JUMPDEST PUSH1 0x1 DUP1 SLOAD PUSH2 0x309 SWAP1 DUP3 SWAP1 PUSH2 0x1115 JUMP JUMPDEST DUP2 SLOAD DUP2 LT PUSH2 0x319 JUMPI PUSH2 0x319 PUSH2 0x1128 JUMP JUMPDEST SWAP1 PUSH1 0x0 MSTORE PUSH1 0x20 PUSH1 0x0 KECCAK256 SWAP1 PUSH1 0x5 MUL ADD PUSH1 0x0 ADD PUSH1 0x1 ADD SLOAD PUSH1 0x0 EQ ISZERO DUP1 ISZERO PUSH2 0x372 JUMPI POP PUSH1 0x1 DUP1 SLOAD PUSH2 0x348 SWAP1 DUP3 SWAP1 PUSH2 0x1115 JUMP JUMPDEST DUP2 SLOAD DUP2 LT PUSH2 0x358 JUMPI PUSH2 0x358 PUSH2 0x1128 JUMP JUMPDEST SWAP1 PUSH1 0x0 MSTORE PUSH1 0x20 PUSH1 0x0 KECCAK256 SWAP1 PUSH1 0x5 MUL ADD PUSH1 0x2 ADD PUSH1 0x1 ADD SLOAD PUSH1 0x0 EQ ISZERO JUMPDEST ISZERO PUSH2 0x40C JUMPI PUSH32 0x1D229A771174308DA40F70761BA48B700922B118FEA40F5E3705F7067C12CC38 PUSH1 0x40 MLOAD PUSH2 0x3D6 SWAP1 PUSH1 0x20 DUP1 DUP3 MSTORE PUSH1 0x18 SWAP1 DUP3 ADD MSTORE PUSH32 0x676F20696E20746F20636F6E646974696F6E20636865636B0000000000000000 PUSH1 0x40 DUP3 ADD MSTORE PUSH1 0x60 ADD SWAP1 JUMP JUMPDEST PUSH1 0x40 MLOAD DUP1 SWAP2 SUB SWAP1 LOG1 PUSH2 0x3E6 PUSH2 0xB8B JUMP JUMPDEST PUSH1 0x0 DUP1 SSTORE PUSH1 0x2 DUP1 SLOAD PUSH2 0x100 PUSH1 0x1 PUSH1 0xA8 SHL SUB NOT AND SWAP1 SSTORE PUSH1 0x3 DUP1 SLOAD PUSH1 0x1 PUSH1 0x1 PUSH1 0xA0 SHL SUB NOT AND SWAP1 SSTORE JUMPDEST POP JUMP JUMPDEST PUSH1 0x60 PUSH1 0x1 DUP1 SLOAD DUP1 PUSH1 0x20 MUL PUSH1 0x20 ADD PUSH1 0x40 MLOAD SWAP1 DUP2 ADD PUSH1 0x40 MSTORE DUP1 SWAP3 SWAP2 SWAP1 DUP2 DUP2 MSTORE PUSH1 0x20 ADD PUSH1 0x0 SWAP1 JUMPDEST DUP3 DUP3 LT ISZERO PUSH2 0x53F JUMPI PUSH1 0x0 DUP5 DUP2 MSTORE PUSH1 0x20 SWAP1 DUP2 SWAP1 KECCAK256 PUSH1 0x40 DUP1 MLOAD PUSH1 0xA0 DUP2 ADD DUP3 MSTORE PUSH1 0x5 DUP7 MUL SWAP1 SWAP3 ADD DUP1 SLOAD PUSH1 0x1 PUSH1 0x1 PUSH1 0xA0 SHL SUB SWAP1 DUP2 AND PUSH1 0x60 DUP6 ADD SWAP1 DUP2 MSTORE PUSH1 0x1 DUP4 ADD SLOAD PUSH1 0x80 DUP7 ADD MSTORE DUP5 MSTORE DUP3 MLOAD DUP1 DUP5 ADD DUP5 MSTORE PUSH1 0x2 DUP4 ADD SLOAD SWAP1 SWAP2 AND DUP2 MSTORE PUSH1 0x3 DUP3 ADD SLOAD DUP2 DUP7 ADD MSTORE SWAP4 DUP4 ADD SWAP4 SWAP1 SWAP4 MSTORE PUSH1 0x4 DUP4 ADD DUP1 SLOAD SWAP3 SWAP4 SWAP3 SWAP2 DUP5 ADD SWAP2 PUSH2 0x4AE SWAP1 PUSH2 0x118C JUMP JUMPDEST DUP1 PUSH1 0x1F ADD PUSH1 0x20 DUP1 SWAP2 DIV MUL PUSH1 0x20 ADD PUSH1 0x40 MLOAD SWAP1 DUP2 ADD PUSH1 0x40 MSTORE DUP1 SWAP3 SWAP2 SWAP1 DUP2 DUP2 MSTORE PUSH1 0x20 ADD DUP3 DUP1 SLOAD PUSH2 0x4DA SWAP1 PUSH2 0x118C JUMP JUMPDEST DUP1 ISZERO PUSH2 0x527 JUMPI DUP1 PUSH1 0x1F LT PUSH2 0x4FC JUMPI PUSH2 0x100 DUP1 DUP4 SLOAD DIV MUL DUP4 MSTORE SWAP2 PUSH1 0x20 ADD SWAP2 PUSH2 0x527 JUMP JUMPDEST DUP3 ADD SWAP2 SWAP1 PUSH1 0x0 MSTORE PUSH1 0x20 PUSH1 0x0 KECCAK256 SWAP1 JUMPDEST DUP2 SLOAD DUP2 MSTORE SWAP1 PUSH1 0x1 ADD SWAP1 PUSH1 0x20 ADD DUP1 DUP4 GT PUSH2 0x50A JUMPI DUP3 SWAP1 SUB PUSH1 0x1F AND DUP3 ADD SWAP2 JUMPDEST POP POP POP POP POP DUP2 MSTORE POP POP DUP2 MSTORE PUSH1 0x20 ADD SWAP1 PUSH1 0x1 ADD SWAP1 PUSH2 0x433 JUMP JUMPDEST POP POP POP POP SWAP1 POP SWAP1 JUMP JUMPDEST PUSH1 0x2 SLOAD PUSH1 0xFF AND ISZERO PUSH2 0x593 JUMPI PUSH1 0x40 MLOAD PUSH3 0x461BCD PUSH1 0xE5 SHL DUP2 MSTORE PUSH1 0x20 PUSH1 0x4 DUP3 ADD MSTORE PUSH1 0x15 PUSH1 0x24 DUP3 ADD MSTORE PUSH21 0x115C9C9BDC8E881499595B9D1C985B9D0818D85B1B PUSH1 0x5A SHL PUSH1 0x44 DUP3 ADD MSTORE PUSH1 0x64 ADD PUSH2 0x1EA JUMP JUMPDEST PUSH1 0x2 DUP1 SLOAD PUSH1 0xFF NOT AND PUSH1 0x1 OR SWAP1 SSTORE PUSH1 0x0 DUP1 SLOAD SWAP1 SUB PUSH2 0x747 JUMPI PUSH2 0x5B2 PUSH2 0xF62 JUMP JUMPDEST PUSH1 0x1 DUP1 SLOAD DUP1 DUP3 ADD DUP3 SSTORE PUSH1 0x0 SWAP2 SWAP1 SWAP2 MSTORE DUP2 MLOAD DUP1 MLOAD PUSH32 0xB10E2D527612073B26EECDFD717E6A320CF44B4AFAC2B0732D9FCBE2B7FA0CF6 PUSH1 0x5 SWAP1 SWAP4 MUL SWAP3 DUP4 ADD DUP1 SLOAD PUSH1 0x1 PUSH1 0x1 PUSH1 0xA0 SHL SUB NOT SWAP1 DUP2 AND PUSH1 0x1 PUSH1 0x1 PUSH1 0xA0 SHL SUB SWAP4 DUP5 AND OR DUP3 SSTORE PUSH1 0x20 SWAP4 DUP5 ADD MLOAD PUSH32 0xB10E2D527612073B26EECDFD717E6A320CF44B4AFAC2B0732D9FCBE2B7FA0CF7 DUP7 ADD SSTORE DUP4 DUP7 ADD MLOAD DUP1 MLOAD PUSH32 0xB10E2D527612073B26EECDFD717E6A320CF44B4AFAC2B0732D9FCBE2B7FA0CF8 DUP8 ADD DUP1 SLOAD SWAP1 SWAP4 AND SWAP5 AND SWAP4 SWAP1 SWAP4 OR SWAP1 SSTORE SWAP2 ADD MLOAD PUSH32 0xB10E2D527612073B26EECDFD717E6A320CF44B4AFAC2B0732D9FCBE2B7FA0CF9 DUP4 ADD SSTORE PUSH1 0x40 DUP4 ADD MLOAD DUP4 SWAP3 PUSH32 0xB10E2D527612073B26EECDFD717E6A320CF44B4AFAC2B0732D9FCBE2B7FA0CFA ADD SWAP1 PUSH2 0x6C5 SWAP1 DUP3 PUSH2 0x122B JUMP JUMPDEST POP POP PUSH1 0x1 DUP1 SLOAD CALLER SWAP3 POP PUSH2 0x6D9 SWAP1 DUP3 SWAP1 PUSH2 0x1115 JUMP JUMPDEST DUP2 SLOAD DUP2 LT PUSH2 0x6E9 JUMPI PUSH2 0x6E9 PUSH2 0x1128 JUMP JUMPDEST PUSH1 0x0 SWAP2 DUP3 MSTORE PUSH1 0x20 DUP3 KECCAK256 PUSH1 0x5 SWAP2 SWAP1 SWAP2 MUL ADD DUP1 SLOAD PUSH1 0x1 PUSH1 0x1 PUSH1 0xA0 SHL SUB NOT AND PUSH1 0x1 PUSH1 0x1 PUSH1 0xA0 SHL SUB SWAP4 SWAP1 SWAP4 AND SWAP3 SWAP1 SWAP3 OR SWAP1 SWAP2 SSTORE PUSH1 0x2 DUP1 SLOAD PUSH2 0x100 PUSH1 0x1 PUSH1 0xA8 SHL SUB NOT AND PUSH2 0x100 CALLER MUL OR SWAP1 SSTORE DUP1 SLOAD SWAP1 DUP1 PUSH2 0x73C DUP4 PUSH2 0x12EB JUMP JUMPDEST SWAP2 SWAP1 POP SSTORE POP POP PUSH2 0x973 JUMP JUMPDEST PUSH1 0x1 DUP1 SLOAD PUSH2 0x756 SWAP1 DUP3 SWAP1 PUSH2 0x1115 JUMP JUMPDEST DUP2 SLOAD DUP2 LT PUSH2 0x766 JUMPI PUSH2 0x766 PUSH2 0x1128 JUMP JUMPDEST PUSH1 0x0 SWAP2 DUP3 MSTORE PUSH1 0x20 SWAP1 SWAP2 KECCAK256 PUSH1 0x5 SWAP1 SWAP2 MUL ADD SLOAD PUSH1 0x1 PUSH1 0x1 PUSH1 0xA0 SHL SUB AND CALLER SUB PUSH2 0x7DA JUMPI PUSH1 0x40 MLOAD PUSH3 0x461BCD PUSH1 0xE5 SHL DUP2 MSTORE PUSH1 0x20 PUSH1 0x4 DUP3 ADD MSTORE PUSH1 0x24 DUP1 DUP3 ADD MSTORE PUSH32 0x4572726F723A20596F752063616E6E6F7420706C6179207769746820796F7572 PUSH1 0x44 DUP3 ADD MSTORE PUSH4 0x39B2B633 PUSH1 0xE1 SHL PUSH1 0x64 DUP3 ADD MSTORE PUSH1 0x84 ADD PUSH2 0x1EA JUMP JUMPDEST PUSH1 0x2 PUSH1 0x0 SLOAD LT PUSH2 0x83B JUMPI PUSH1 0x40 MLOAD PUSH3 0x461BCD PUSH1 0xE5 SHL DUP2 MSTORE PUSH1 0x20 PUSH1 0x4 DUP3 ADD MSTORE PUSH1 0x26 PUSH1 0x24 DUP3 ADD MSTORE PUSH32 0x596F75206E65656420746F207761697420666F72207468652070657276696F75 PUSH1 0x44 DUP3 ADD MSTORE PUSH6 0x39903AB9B2B9 PUSH1 0xD1 SHL PUSH1 0x64 DUP3 ADD MSTORE PUSH1 0x84 ADD PUSH2 0x1EA JUMP JUMPDEST PUSH1 0x1 DUP1 SLOAD CALLER SWAP2 SWAP1 PUSH2 0x84D SWAP1 DUP3 SWAP1 PUSH2 0x1115 JUMP JUMPDEST DUP2 SLOAD DUP2 LT PUSH2 0x85D JUMPI PUSH2 0x85D PUSH2 0x1128 JUMP JUMPDEST PUSH1 0x0 SWAP2 DUP3 MSTORE PUSH1 0x20 SWAP1 SWAP2 KECCAK256 PUSH1 0x2 PUSH1 0x5 SWAP1 SWAP3 MUL ADD ADD DUP1 SLOAD PUSH1 0x1 PUSH1 0x1 PUSH1 0xA0 SHL SUB SWAP3 SWAP1 SWAP3 AND PUSH1 0x1 PUSH1 0x1 PUSH1 0xA0 SHL SUB NOT SWAP3 DUP4 AND OR SWAP1 SSTORE PUSH1 0x3 DUP1 SLOAD SWAP1 SWAP2 AND CALLER OR SWAP1 SSTORE PUSH1 0x1 DUP1 SLOAD PUSH32 0xDAA57EE2C04AEE347B88819662FCDB8376824FB89A1F9B97A41EDB933A3BA7A6 SWAP2 SWAP1 PUSH2 0x8CA SWAP1 DUP3 SWAP1 PUSH2 0x1115 JUMP JUMPDEST DUP2 SLOAD DUP2 LT PUSH2 0x8DA JUMPI PUSH2 0x8DA PUSH2 0x1128 JUMP JUMPDEST PUSH1 0x0 SWAP2 DUP3 MSTORE PUSH1 0x20 SWAP1 SWAP2 KECCAK256 PUSH1 0x5 SWAP1 SWAP2 MUL ADD SLOAD PUSH1 0x1 DUP1 SLOAD PUSH1 0x1 PUSH1 0x1 PUSH1 0xA0 SHL SUB SWAP1 SWAP3 AND SWAP2 PUSH2 0x906 SWAP1 DUP3 SWAP1 PUSH2 0x1115 JUMP JUMPDEST DUP2 SLOAD DUP2 LT PUSH2 0x916 JUMPI PUSH2 0x916 PUSH2 0x1128 JUMP JUMPDEST PUSH1 0x0 SWAP2 DUP3 MSTORE PUSH1 0x20 SWAP1 SWAP2 KECCAK256 PUSH1 0x2 PUSH1 0x5 SWAP1 SWAP3 MUL ADD ADD SLOAD PUSH1 0x40 MLOAD PUSH2 0x956 SWAP3 SWAP2 PUSH1 0x1 PUSH1 0x1 PUSH1 0xA0 SHL SUB AND SWAP1 PUSH1 0x1 PUSH1 0x1 PUSH1 0xA0 SHL SUB SWAP3 DUP4 AND DUP2 MSTORE SWAP2 AND PUSH1 0x20 DUP3 ADD MSTORE PUSH1 0x40 ADD SWAP1 JUMP JUMPDEST PUSH1 0x40 MLOAD DUP1 SWAP2 SUB SWAP1 LOG1 PUSH1 0x0 DUP1 SLOAD SWAP1 DUP1 PUSH2 0x96D DUP4 PUSH2 0x12EB JUMP JUMPDEST SWAP2 SWAP1 POP SSTORE POP JUMPDEST PUSH1 0x2 DUP1 SLOAD PUSH1 0xFF NOT AND SWAP1 SSTORE JUMP JUMPDEST PUSH1 0x40 DUP1 MLOAD DUP1 DUP3 ADD SWAP1 SWAP2 MSTORE PUSH1 0x0 DUP1 DUP3 MSTORE PUSH1 0x20 DUP3 ADD MSTORE PUSH1 0x1 SLOAD DUP3 GT ISZERO PUSH2 0x9DD JUMPI PUSH1 0x40 MLOAD PUSH3 0x461BCD PUSH1 0xE5 SHL DUP2 MSTORE PUSH1 0x20 PUSH1 0x4 DUP3 ADD MSTORE PUSH1 0x15 PUSH1 0x24 DUP3 ADD MSTORE PUSH21 0x8AE4E4DEE4744092DCECC2D8D2C840D8CADCCEE8D PUSH1 0x5B SHL PUSH1 0x44 DUP3 ADD MSTORE PUSH1 0x64 ADD PUSH2 0x1EA JUMP JUMPDEST PUSH1 0x1 DUP3 DUP2 SLOAD DUP2 LT PUSH2 0x9F0 JUMPI PUSH2 0x9F0 PUSH2 0x1128 JUMP JUMPDEST PUSH1 0x0 SWAP2 DUP3 MSTORE PUSH1 0x20 SWAP2 DUP3 SWAP1 KECCAK256 PUSH1 0x40 DUP1 MLOAD DUP1 DUP3 ADD SWAP1 SWAP2 MSTORE PUSH1 0x5 SWAP1 SWAP3 MUL ADD DUP1 SLOAD PUSH1 0x1 PUSH1 0x1 PUSH1 0xA0 SHL SUB AND DUP3 MSTORE PUSH1 0x1 ADD SLOAD SWAP2 DUP2 ADD SWAP2 SWAP1 SWAP2 MSTORE SWAP3 SWAP2 POP POP JUMP JUMPDEST PUSH2 0xA31 PUSH2 0xF62 JUMP JUMPDEST PUSH1 0x1 SLOAD DUP3 GT ISZERO PUSH2 0xA7B JUMPI PUSH1 0x40 MLOAD PUSH3 0x461BCD PUSH1 0xE5 SHL DUP2 MSTORE PUSH1 0x20 PUSH1 0x4 DUP3 ADD MSTORE PUSH1 0x15 PUSH1 0x24 DUP3 ADD MSTORE PUSH21 0x8AE4E4DEE4744092DCECC2D8D2C840D8CADCCEE8D PUSH1 0x5B SHL PUSH1 0x44 DUP3 ADD MSTORE PUSH1 0x64 ADD PUSH2 0x1EA JUMP JUMPDEST PUSH1 0x1 DUP3 DUP2 SLOAD DUP2 LT PUSH2 0xA8E JUMPI PUSH2 0xA8E PUSH2 0x1128 JUMP JUMPDEST PUSH1 0x0 SWAP2 DUP3 MSTORE PUSH1 0x20 SWAP2 DUP3 SWAP1 KECCAK256 PUSH1 0x40 DUP1 MLOAD PUSH1 0xA0 DUP2 ADD DUP3 MSTORE PUSH1 0x5 SWAP1 SWAP4 MUL SWAP1 SWAP2 ADD DUP1 SLOAD PUSH1 0x1 PUSH1 0x1 PUSH1 0xA0 SHL SUB SWAP1 DUP2 AND PUSH1 0x60 DUP6 ADD SWAP1 DUP2 MSTORE PUSH1 0x1 DUP4 ADD SLOAD PUSH1 0x80 DUP7 ADD MSTORE DUP5 MSTORE DUP3 MLOAD DUP1 DUP5 ADD DUP5 MSTORE PUSH1 0x2 DUP4 ADD SLOAD SWAP1 SWAP2 AND DUP2 MSTORE PUSH1 0x3 DUP3 ADD SLOAD DUP2 DUP7 ADD MSTORE SWAP4 DUP4 ADD SWAP4 SWAP1 SWAP4 MSTORE PUSH1 0x4 DUP4 ADD DUP1 SLOAD SWAP3 SWAP4 SWAP3 SWAP2 DUP5 ADD SWAP2 PUSH2 0xB02 SWAP1 PUSH2 0x118C JUMP JUMPDEST DUP1 PUSH1 0x1F ADD PUSH1 0x20 DUP1 SWAP2 DIV MUL PUSH1 0x20 ADD PUSH1 0x40 MLOAD SWAP1 DUP2 ADD PUSH1 0x40 MSTORE DUP1 SWAP3 SWAP2 SWAP1 DUP2 DUP2 MSTORE PUSH1 0x20 ADD DUP3 DUP1 SLOAD PUSH2 0xB2E SWAP1 PUSH2 0x118C JUMP JUMPDEST DUP1 ISZERO PUSH2 0xB7B JUMPI DUP1 PUSH1 0x1F LT PUSH2 0xB50 JUMPI PUSH2 0x100 DUP1 DUP4 SLOAD DIV MUL DUP4 MSTORE SWAP2 PUSH1 0x20 ADD SWAP2 PUSH2 0xB7B JUMP JUMPDEST DUP3 ADD SWAP2 SWAP1 PUSH1 0x0 MSTORE PUSH1 0x20 PUSH1 0x0 KECCAK256 SWAP1 JUMPDEST DUP2 SLOAD DUP2 MSTORE SWAP1 PUSH1 0x1 ADD SWAP1 PUSH1 0x20 ADD DUP1 DUP4 GT PUSH2 0xB5E JUMPI DUP3 SWAP1 SUB PUSH1 0x1F AND DUP3 ADD SWAP2 JUMPDEST POP POP POP POP POP DUP2 MSTORE POP POP SWAP1 POP SWAP2 SWAP1 POP JUMP JUMPDEST PUSH1 0x1 DUP1 SLOAD PUSH2 0xB9A SWAP1 DUP3 SWAP1 PUSH2 0x1115 JUMP JUMPDEST DUP2 SLOAD DUP2 LT PUSH2 0xBAA JUMPI PUSH2 0xBAA PUSH2 0x1128 JUMP JUMPDEST PUSH1 0x0 SWAP2 DUP3 MSTORE PUSH1 0x20 SWAP1 SWAP2 KECCAK256 PUSH1 0x3 PUSH1 0x5 SWAP1 SWAP3 MUL ADD ADD SLOAD PUSH1 0x1 DUP1 SLOAD PUSH2 0xBCD SWAP1 DUP3 SWAP1 PUSH2 0x1115 JUMP JUMPDEST DUP2 SLOAD DUP2 LT PUSH2 0xBDD JUMPI PUSH2 0xBDD PUSH2 0x1128 JUMP JUMPDEST SWAP1 PUSH1 0x0 MSTORE PUSH1 0x20 PUSH1 0x0 KECCAK256 SWAP1 PUSH1 0x5 MUL ADD PUSH1 0x0 ADD PUSH1 0x1 ADD SLOAD SUB PUSH2 0xC9F JUMPI PUSH1 0x40 DUP1 MLOAD DUP1 DUP3 ADD SWAP1 SWAP2 MSTORE PUSH1 0x4 DUP2 MSTORE PUSH4 0x151A5959 PUSH1 0xE2 SHL PUSH1 0x20 DUP3 ADD MSTORE PUSH1 0x1 DUP1 SLOAD PUSH2 0xC21 SWAP1 DUP3 SWAP1 PUSH2 0x1115 JUMP JUMPDEST DUP2 SLOAD DUP2 LT PUSH2 0xC31 JUMPI PUSH2 0xC31 PUSH2 0x1128 JUMP JUMPDEST SWAP1 PUSH1 0x0 MSTORE PUSH1 0x20 PUSH1 0x0 KECCAK256 SWAP1 PUSH1 0x5 MUL ADD PUSH1 0x4 ADD SWAP1 DUP2 PUSH2 0xC4E SWAP2 SWAP1 PUSH2 0x122B JUMP JUMPDEST POP PUSH32 0xCDE5C32C0A45FD8AA4B65EA8003FC9DA9ACD5E2C6C24A9FCCE6AB79CABBD9122 PUSH1 0x40 MLOAD PUSH2 0xC95 SWAP1 PUSH1 0x20 DUP1 DUP3 MSTORE PUSH1 0x4 SWAP1 DUP3 ADD MSTORE PUSH4 0x151A5959 PUSH1 0xE2 SHL PUSH1 0x40 DUP3 ADD MSTORE PUSH1 0x60 ADD SWAP1 JUMP JUMPDEST PUSH1 0x40 MLOAD DUP1 SWAP2 SUB SWAP1 LOG1 JUMP JUMPDEST PUSH1 0x1 DUP1 SLOAD PUSH2 0xCAE SWAP1 DUP3 SWAP1 PUSH2 0x1115 JUMP JUMPDEST DUP2 SLOAD DUP2 LT PUSH2 0xCBE JUMPI PUSH2 0xCBE PUSH2 0x1128 JUMP JUMPDEST SWAP1 PUSH1 0x0 MSTORE PUSH1 0x20 PUSH1 0x0 KECCAK256 SWAP1 PUSH1 0x5 MUL ADD PUSH1 0x0 ADD PUSH1 0x1 ADD SLOAD PUSH1 0x1 EQ DUP1 ISZERO PUSH2 0xD15 JUMPI POP PUSH1 0x1 DUP1 SLOAD PUSH2 0xCEC SWAP1 DUP3 SWAP1 PUSH2 0x1115 JUMP JUMPDEST DUP2 SLOAD DUP2 LT PUSH2 0xCFC JUMPI PUSH2 0xCFC PUSH2 0x1128 JUMP JUMPDEST SWAP1 PUSH1 0x0 MSTORE PUSH1 0x20 PUSH1 0x0 KECCAK256 SWAP1 PUSH1 0x5 MUL ADD PUSH1 0x2 ADD PUSH1 0x1 ADD SLOAD PUSH1 0x2 EQ JUMPDEST DUP1 PUSH2 0xD91 JUMPI POP PUSH1 0x1 DUP1 SLOAD PUSH2 0xD2A SWAP1 DUP3 SWAP1 PUSH2 0x1115 JUMP JUMPDEST DUP2 SLOAD DUP2 LT PUSH2 0xD3A JUMPI PUSH2 0xD3A PUSH2 0x1128 JUMP JUMPDEST SWAP1 PUSH1 0x0 MSTORE PUSH1 0x20 PUSH1 0x0 KECCAK256 SWAP1 PUSH1 0x5 MUL ADD PUSH1 0x0 ADD PUSH1 0x1 ADD SLOAD PUSH1 0x3 EQ DUP1 ISZERO PUSH2 0xD91 JUMPI POP PUSH1 0x1 DUP1 SLOAD PUSH2 0xD68 SWAP1 DUP3 SWAP1 PUSH2 0x1115 JUMP JUMPDEST DUP2 SLOAD DUP2 LT PUSH2 0xD78 JUMPI PUSH2 0xD78 PUSH2 0x1128 JUMP JUMPDEST SWAP1 PUSH1 0x0 MSTORE PUSH1 0x20 PUSH1 0x0 KECCAK256 SWAP1 PUSH1 0x5 MUL ADD PUSH1 0x2 ADD PUSH1 0x1 ADD SLOAD PUSH1 0x1 EQ JUMPDEST DUP1 PUSH2 0xE0D JUMPI POP PUSH1 0x1 DUP1 SLOAD PUSH2 0xDA6 SWAP1 DUP3 SWAP1 PUSH2 0x1115 JUMP JUMPDEST DUP2 SLOAD DUP2 LT PUSH2 0xDB6 JUMPI PUSH2 0xDB6 PUSH2 0x1128 JUMP JUMPDEST SWAP1 PUSH1 0x0 MSTORE PUSH1 0x20 PUSH1 0x0 KECCAK256 SWAP1 PUSH1 0x5 MUL ADD PUSH1 0x0 ADD PUSH1 0x1 ADD SLOAD PUSH1 0x2 EQ DUP1 ISZERO PUSH2 0xE0D JUMPI POP PUSH1 0x1 DUP1 SLOAD PUSH2 0xDE4 SWAP1 DUP3 SWAP1 PUSH2 0x1115 JUMP JUMPDEST DUP2 SLOAD DUP2 LT PUSH2 0xDF4 JUMPI PUSH2 0xDF4 PUSH2 0x1128 JUMP JUMPDEST SWAP1 PUSH1 0x0 MSTORE PUSH1 0x20 PUSH1 0x0 KECCAK256 SWAP1 PUSH1 0x5 MUL ADD PUSH1 0x2 ADD PUSH1 0x1 ADD SLOAD PUSH1 0x3 EQ JUMPDEST ISZERO PUSH2 0xEBA JUMPI PUSH1 0x40 DUP1 MLOAD DUP1 DUP3 ADD SWAP1 SWAP2 MSTORE PUSH1 0x9 DUP2 MSTORE PUSH9 0x2AB9B2B919103BB4B7 PUSH1 0xB9 SHL PUSH1 0x20 DUP3 ADD MSTORE PUSH1 0x1 DUP1 SLOAD PUSH2 0xE41 SWAP1 DUP3 SWAP1 PUSH2 0x1115 JUMP JUMPDEST DUP2 SLOAD DUP2 LT PUSH2 0xE51 JUMPI PUSH2 0xE51 PUSH2 0x1128 JUMP JUMPDEST SWAP1 PUSH1 0x0 MSTORE PUSH1 0x20 PUSH1 0x0 KECCAK256 SWAP1 PUSH1 0x5 MUL ADD PUSH1 0x4 ADD SWAP1 DUP2 PUSH2 0xE6E SWAP2 SWAP1 PUSH2 0x122B JUMP JUMPDEST POP PUSH32 0xCDE5C32C0A45FD8AA4B65EA8003FC9DA9ACD5E2C6C24A9FCCE6AB79CABBD9122 PUSH1 0x40 MLOAD PUSH2 0xC95 SWAP1 PUSH1 0x20 DUP1 DUP3 MSTORE PUSH1 0x9 SWAP1 DUP3 ADD MSTORE PUSH9 0x2AB9B2B919103BB4B7 PUSH1 0xB9 SHL PUSH1 0x40 DUP3 ADD MSTORE PUSH1 0x60 ADD SWAP1 JUMP JUMPDEST PUSH1 0x40 DUP1 MLOAD DUP1 DUP3 ADD SWAP1 SWAP2 MSTORE PUSH1 0x9 DUP2 MSTORE PUSH9 0x2AB9B2B918903BB4B7 PUSH1 0xB9 SHL PUSH1 0x20 DUP3 ADD MSTORE PUSH1 0x1 DUP1 SLOAD PUSH2 0xEE9 SWAP1 DUP3 SWAP1 PUSH2 0x1115 JUMP JUMPDEST DUP2 SLOAD DUP2 LT PUSH2 0xEF9 JUMPI PUSH2 0xEF9 PUSH2 0x1128 JUMP JUMPDEST SWAP1 PUSH1 0x0 MSTORE PUSH1 0x20 PUSH1 0x0 KECCAK256 SWAP1 PUSH1 0x5 MUL ADD PUSH1 0x4 ADD SWAP1 DUP2 PUSH2 0xF16 SWAP2 SWAP1 PUSH2 0x122B JUMP JUMPDEST POP PUSH32 0xCDE5C32C0A45FD8AA4B65EA8003FC9DA9ACD5E2C6C24A9FCCE6AB79CABBD9122 PUSH1 0x40 MLOAD PUSH2 0xC95 SWAP1 PUSH1 0x20 DUP1 DUP3 MSTORE PUSH1 0x9 SWAP1 DUP3 ADD MSTORE PUSH9 0x2AB9B2B918903BB4B7 PUSH1 0xB9 SHL PUSH1 0x40 DUP3 ADD MSTORE PUSH1 0x60 ADD SWAP1 JUMP JUMPDEST PUSH1 0x40 DUP1 MLOAD PUSH1 0xA0 DUP2 ADD SWAP1 SWAP2 MSTORE PUSH1 0x0 PUSH1 0x60 DUP3 ADD DUP2 DUP2 MSTORE PUSH1 0x80 DUP4 ADD SWAP2 SWAP1 SWAP2 MSTORE DUP2 SWAP1 DUP2 MSTORE PUSH1 0x20 ADD PUSH2 0xF9F PUSH1 0x40 DUP1 MLOAD DUP1 DUP3 ADD SWAP1 SWAP2 MSTORE PUSH1 0x0 DUP1 DUP3 MSTORE PUSH1 0x20 DUP3 ADD MSTORE SWAP1 JUMP JUMPDEST DUP2 MSTORE PUSH1 0x20 ADD PUSH1 0x60 DUP2 MSTORE POP SWAP1 JUMP JUMPDEST PUSH1 0x0 PUSH1 0x20 DUP3 DUP5 SUB SLT ISZERO PUSH2 0xFBE JUMPI PUSH1 0x0 DUP1 REVERT JUMPDEST POP CALLDATALOAD SWAP2 SWAP1 POP JUMP JUMPDEST PUSH2 0xFE3 DUP3 DUP3 MLOAD DUP1 MLOAD PUSH1 0x1 PUSH1 0x1 PUSH1 0xA0 SHL SUB AND DUP3 MSTORE PUSH1 0x20 SWAP1 DUP2 ADD MLOAD SWAP2 ADD MSTORE JUMP JUMPDEST PUSH1 0x0 PUSH1 0x20 DUP1 DUP4 ADD MLOAD PUSH2 0x100B PUSH1 0x40 DUP7 ADD DUP3 DUP1 MLOAD PUSH1 0x1 PUSH1 0x1 PUSH1 0xA0 SHL SUB AND DUP3 MSTORE PUSH1 0x20 SWAP1 DUP2 ADD MLOAD SWAP2 ADD MSTORE JUMP JUMPDEST POP PUSH1 0x40 DUP4 ADD MLOAD PUSH1 0xA0 PUSH1 0x80 DUP7 ADD MSTORE DUP1 MLOAD DUP1 PUSH1 0xA0 DUP8 ADD MSTORE PUSH1 0x0 JUMPDEST DUP2 DUP2 LT ISZERO PUSH2 0x103F JUMPI DUP3 DUP2 ADD DUP5 ADD MLOAD DUP8 DUP3 ADD PUSH1 0xC0 ADD MSTORE DUP4 ADD PUSH2 0x1023 JUMP JUMPDEST POP PUSH1 0x0 PUSH1 0xC0 DUP3 DUP9 ADD ADD MSTORE PUSH1 0xC0 PUSH1 0x1F NOT PUSH1 0x1F DUP4 ADD AND DUP8 ADD ADD SWAP4 POP POP POP POP SWAP3 SWAP2 POP POP JUMP JUMPDEST PUSH1 0x0 PUSH1 0x20 DUP1 DUP4 ADD DUP2 DUP5 MSTORE DUP1 DUP6 MLOAD DUP1 DUP4 MSTORE PUSH1 0x40 DUP7 ADD SWAP2 POP PUSH1 0x40 DUP2 PUSH1 0x5 SHL DUP8 ADD ADD SWAP3 POP DUP4 DUP8 ADD PUSH1 0x0 JUMPDEST DUP3 DUP2 LT ISZERO PUSH2 0x10B6 JUMPI PUSH1 0x3F NOT DUP9 DUP7 SUB ADD DUP5 MSTORE PUSH2 0x10A4 DUP6 DUP4 MLOAD PUSH2 0xFC5 JUMP JUMPDEST SWAP5 POP SWAP3 DUP6 ADD SWAP3 SWAP1 DUP6 ADD SWAP1 PUSH1 0x1 ADD PUSH2 0x1088 JUMP JUMPDEST POP SWAP3 SWAP8 SWAP7 POP POP POP POP POP POP POP JUMP JUMPDEST DUP2 MLOAD PUSH1 0x1 PUSH1 0x1 PUSH1 0xA0 SHL SUB AND DUP2 MSTORE PUSH1 0x20 DUP1 DUP4 ADD MLOAD SWAP1 DUP3 ADD MSTORE PUSH1 0x40 DUP2 ADD JUMPDEST SWAP3 SWAP2 POP POP JUMP JUMPDEST PUSH1 0x20 DUP2 MSTORE PUSH1 0x0 PUSH2 0x10F8 PUSH1 0x20 DUP4 ADD DUP5 PUSH2 0xFC5 JUMP JUMPDEST SWAP4 SWAP3 POP POP POP JUMP JUMPDEST PUSH4 0x4E487B71 PUSH1 0xE0 SHL PUSH1 0x0 MSTORE PUSH1 0x11 PUSH1 0x4 MSTORE PUSH1 0x24 PUSH1 0x0 REVERT JUMPDEST DUP2 DUP2 SUB DUP2 DUP2 GT ISZERO PUSH2 0x10DF JUMPI PUSH2 0x10DF PUSH2 0x10FF JUMP JUMPDEST PUSH4 0x4E487B71 PUSH1 0xE0 SHL PUSH1 0x0 MSTORE PUSH1 0x32 PUSH1 0x4 MSTORE PUSH1 0x24 PUSH1 0x0 REVERT JUMPDEST PUSH1 0x20 DUP1 DUP3 MSTORE PUSH1 0x2E SWAP1 DUP3 ADD MSTORE PUSH32 0x596F7520616C72656164792073656C656374206F7074696F6E20616E64206974 PUSH1 0x40 DUP3 ADD MSTORE PUSH14 0x2063616E6E6F74206368616E6765 PUSH1 0x90 SHL PUSH1 0x60 DUP3 ADD MSTORE PUSH1 0x80 ADD SWAP1 JUMP JUMPDEST PUSH1 0x1 DUP2 DUP2 SHR SWAP1 DUP3 AND DUP1 PUSH2 0x11A0 JUMPI PUSH1 0x7F DUP3 AND SWAP2 POP JUMPDEST PUSH1 0x20 DUP3 LT DUP2 SUB PUSH2 0x11C0 JUMPI PUSH4 0x4E487B71 PUSH1 0xE0 SHL PUSH1 0x0 MSTORE PUSH1 0x22 PUSH1 0x4 MSTORE PUSH1 0x24 PUSH1 0x0 REVERT JUMPDEST POP SWAP2 SWAP1 POP JUMP JUMPDEST PUSH4 0x4E487B71 PUSH1 0xE0 SHL PUSH1 0x0 MSTORE PUSH1 0x41 PUSH1 0x4 MSTORE PUSH1 0x24 PUSH1 0x0 REVERT JUMPDEST PUSH1 0x1F DUP3 GT ISZERO PUSH2 0x1226 JUMPI PUSH1 0x0 DUP2 DUP2 MSTORE PUSH1 0x20 DUP2 KECCAK256 PUSH1 0x1F DUP6 ADD PUSH1 0x5 SHR DUP2 ADD PUSH1 0x20 DUP7 LT ISZERO PUSH2 0x1203 JUMPI POP DUP1 JUMPDEST PUSH1 0x1F DUP6 ADD PUSH1 0x5 SHR DUP3 ADD SWAP2 POP JUMPDEST DUP2 DUP2 LT ISZERO PUSH2 0x1222 JUMPI DUP3 DUP2 SSTORE PUSH1 0x1 ADD PUSH2 0x120F JUMP JUMPDEST POP POP POP JUMPDEST POP POP POP JUMP JUMPDEST DUP2 MLOAD PUSH8 0xFFFFFFFFFFFFFFFF DUP2 GT ISZERO PUSH2 0x1245 JUMPI PUSH2 0x1245 PUSH2 0x11C6 JUMP JUMPDEST PUSH2 0x1259 DUP2 PUSH2 0x1253 DUP5 SLOAD PUSH2 0x118C JUMP JUMPDEST DUP5 PUSH2 0x11DC JUMP JUMPDEST PUSH1 0x20 DUP1 PUSH1 0x1F DUP4 GT PUSH1 0x1 DUP2 EQ PUSH2 0x128E JUMPI PUSH1 0x0 DUP5 ISZERO PUSH2 0x1276 JUMPI POP DUP6 DUP4 ADD MLOAD JUMPDEST PUSH1 0x0 NOT PUSH1 0x3 DUP7 SWAP1 SHL SHR NOT AND PUSH1 0x1 DUP6 SWAP1 SHL OR DUP6 SSTORE PUSH2 0x1222 JUMP JUMPDEST PUSH1 0x0 DUP6 DUP2 MSTORE PUSH1 0x20 DUP2 KECCAK256 PUSH1 0x1F NOT DUP7 AND SWAP2 JUMPDEST DUP3 DUP2 LT ISZERO PUSH2 0x12BD JUMPI DUP9 DUP7 ADD MLOAD DUP3 SSTORE SWAP5 DUP5 ADD SWAP5 PUSH1 0x1 SWAP1 SWAP2 ADD SWAP1 DUP5 ADD PUSH2 0x129E JUMP JUMPDEST POP DUP6 DUP3 LT ISZERO PUSH2 0x12DB JUMPI DUP8 DUP6 ADD MLOAD PUSH1 0x0 NOT PUSH1 0x3 DUP9 SWAP1 SHL PUSH1 0xF8 AND SHR NOT AND DUP2 SSTORE JUMPDEST POP POP POP POP POP PUSH1 0x1 SWAP1 DUP2 SHL ADD SWAP1 SSTORE POP JUMP JUMPDEST PUSH1 0x0 PUSH1 0x1 DUP3 ADD PUSH2 0x12FD JUMPI PUSH2 0x12FD PUSH2 0x10FF JUMP JUMPDEST POP PUSH1 0x1 ADD SWAP1 JUMP INVALID LOG2 PUSH5 0x6970667358 0x22 SLT KECCAK256 AND 0xA8 0xBD AND 0xC5 0xBE 0xD0 CALLER EXP SWAP3 0xBD DELEGATECALL PUSH1 0xAA 0xD2 PUSH27 0xF2647DD519F5525381B8F5DA627AEEF64736F6C63430008130033 "
				},
				"gasEstimates": {
					"creation": {
						"codeDepositCost": "984400",
						"executionCost": "6027",
						"totalCost": "990427"
					},
					"external": {
						"getGameHistory()": "infinite",
						"getGameHistoryLength()": "2270",
						"getSpecificGameHistory(uint256)": "infinite",
						"getUser1(uint256)": "9091",
						"play()": "infinite",
						"user1address()": "2348",
						"user2address()": "2382",
						"userEnterOption(uint256)": "infinite"
					},
					"internal": {
						"game()": "infinite"
					}
				},
				"methodIdentifiers": {
					"getGameHistory()": "512ec557",
					"getGameHistoryLength()": "1eed565b",
					"getSpecificGameHistory(uint256)": "f7c4efbb",
					"getUser1(uint256)": "e417f4a3",
					"play()": "93e84cd9",
					"user1address()": "6ef595d8",
					"user2address()": "3d5e9d2d",
					"userEnterOption(uint256)": "2cde7869"
				}
			},
			"storageLayout": {
				"storage": [
					{
						"astId": 18,
						"contract": "Practical3-Use-UI_Play-Jason.sol:RockPaperScissors",
						"label": "userCount",
						"offset": 0,
						"slot": "0",
						"type": "t_uint256"
					},
					{
						"astId": 22,
						"contract": "Practical3-Use-UI_Play-Jason.sol:RockPaperScissors",
						"label": "gameHistory",
						"offset": 0,
						"slot": "1",
						"type": "t_array(t_struct(GameInfo)15_storage)dyn_storage"
					},
					{
						"astId": 24,
						"contract": "Practical3-Use-UI_Play-Jason.sol:RockPaperScissors",
						"label": "locked",
						"offset": 0,
						"slot": "2",
						"type": "t_bool"
					},
					{
						"astId": 26,
						"contract": "Practical3-Use-UI_Play-Jason.sol:RockPaperScissors",
						"label": "user1address",
						"offset": 1,
						"slot": "2",
						"type": "t_address"
					},
					{
						"astId": 28,
						"contract": "Practical3-Use-UI_Play-Jason.sol:RockPaperScissors",
						"label": "user2address",
						"offset": 0,
						"slot": "3",
						"type": "t_address"
					}
				],
				"types": {
					"t_address": {
						"encoding": "inplace",
						"label": "address",
						"numberOfBytes": "20"
					},
					"t_array(t_struct(GameInfo)15_storage)dyn_storage": {
						"base": "t_struct(GameInfo)15_storage",
						"encoding": "dynamic_array",
						"label": "struct RockPaperScissors.GameInfo[]",
						"numberOfBytes": "32"
					},
					"t_bool": {
						"encoding": "inplace",
						"label": "bool",
						"numberOfBytes": "1"
					},
					"t_string_storage": {
						"encoding": "bytes",
						"label": "string",
						"numberOfBytes": "32"
					},
					"t_struct(GameInfo)15_storage": {
						"encoding": "inplace",
						"label": "struct RockPaperScissors.GameInfo",
						"members": [
							{
								"astId": 9,
								"contract": "Practical3-Use-UI_Play-Jason.sol:RockPaperScissors",
								"label": "user1",
								"offset": 0,
								"slot": "0",
								"type": "t_struct(UserInfo)6_storage"
							},
							{
								"astId": 12,
								"contract": "Practical3-Use-UI_Play-Jason.sol:RockPaperScissors",
								"label": "user2",
								"offset": 0,
								"slot": "2",
								"type": "t_struct(UserInfo)6_storage"
							},
							{
								"astId": 14,
								"contract": "Practical3-Use-UI_Play-Jason.sol:RockPaperScissors",
								"label": "finalResult",
								"offset": 0,
								"slot": "4",
								"type": "t_string_storage"
							}
						],
						"numberOfBytes": "160"
					},
					"t_struct(UserInfo)6_storage": {
						"encoding": "inplace",
						"label": "struct RockPaperScissors.UserInfo",
						"members": [
							{
								"astId": 3,
								"contract": "Practical3-Use-UI_Play-Jason.sol:RockPaperScissors",
								"label": "userAddress",
								"offset": 0,
								"slot": "0",
								"type": "t_address"
							},
							{
								"astId": 5,
								"contract": "Practical3-Use-UI_Play-Jason.sol:RockPaperScissors",
								"label": "userOption",
								"offset": 0,
								"slot": "1",
								"type": "t_uint256"
							}
						],
						"numberOfBytes": "64"
					},
					"t_uint256": {
						"encoding": "inplace",
						"label": "uint256",
						"numberOfBytes": "32"
					}
				}
			},
			"userdoc": {
				"kind": "user",
				"methods": {},
				"version": 1
			}
		}
	}
}