{
	"Practical2-RockPaperScissors-Jason.sol": {
		"RockPaperScissors": {
			"abi": [
				{
					"anonymous": false,
					"inputs": [
						{
							"indexed": false,
							"internalType": "string",
							"name": "",
							"type": "string"
						}
					],
					"name": "showError",
					"type": "event"
				},
				{
					"anonymous": false,
					"inputs": [
						{
							"indexed": false,
							"internalType": "string",
							"name": "logResult",
							"type": "string"
						}
					],
					"name": "showResult",
					"type": "event"
				},
				{
					"anonymous": false,
					"inputs": [
						{
							"indexed": true,
							"internalType": "address",
							"name": "logUserAddress",
							"type": "address"
						}
					],
					"name": "showUserAddress",
					"type": "event"
				},
				{
					"inputs": [],
					"name": "_user1",
					"outputs": [
						{
							"internalType": "address",
							"name": "userAddress",
							"type": "address"
						},
						{
							"internalType": "uint256",
							"name": "userOption",
							"type": "uint256"
						}
					],
					"stateMutability": "view",
					"type": "function"
				},
				{
					"inputs": [],
					"name": "_user2",
					"outputs": [
						{
							"internalType": "address",
							"name": "userAddress",
							"type": "address"
						},
						{
							"internalType": "uint256",
							"name": "userOption",
							"type": "uint256"
						}
					],
					"stateMutability": "view",
					"type": "function"
				},
				{
					"inputs": [],
					"name": "gameCount",
					"outputs": [
						{
							"internalType": "uint256",
							"name": "",
							"type": "uint256"
						}
					],
					"stateMutability": "view",
					"type": "function"
				},
				{
					"inputs": [],
					"name": "getGameHistory",
					"outputs": [
						{
							"components": [
								{
									"components": [
										{
											"internalType": "address",
											"name": "userAddress",
											"type": "address"
										},
										{
											"internalType": "uint256",
											"name": "userOption",
											"type": "uint256"
										}
									],
									"internalType": "struct RockPaperScissors.UserInfo",
									"name": "user1",
									"type": "tuple"
								},
								{
									"components": [
										{
											"internalType": "address",
											"name": "userAddress",
											"type": "address"
										},
										{
											"internalType": "uint256",
											"name": "userOption",
											"type": "uint256"
										}
									],
									"internalType": "struct RockPaperScissors.UserInfo",
									"name": "user2",
									"type": "tuple"
								},
								{
									"internalType": "string",
									"name": "finalResult",
									"type": "string"
								}
							],
							"internalType": "struct RockPaperScissors.GameInfo[]",
							"name": "",
							"type": "tuple[]"
						}
					],
					"stateMutability": "view",
					"type": "function"
				},
				{
					"inputs": [
						{
							"internalType": "uint256",
							"name": "index",
							"type": "uint256"
						}
					],
					"name": "getSpecificGameHistory",
					"outputs": [
						{
							"components": [
								{
									"components": [
										{
											"internalType": "address",
											"name": "userAddress",
											"type": "address"
										},
										{
											"internalType": "uint256",
											"name": "userOption",
											"type": "uint256"
										}
									],
									"internalType": "struct RockPaperScissors.UserInfo",
									"name": "user1",
									"type": "tuple"
								},
								{
									"components": [
										{
											"internalType": "address",
											"name": "userAddress",
											"type": "address"
										},
										{
											"internalType": "uint256",
											"name": "userOption",
											"type": "uint256"
										}
									],
									"internalType": "struct RockPaperScissors.UserInfo",
									"name": "user2",
									"type": "tuple"
								},
								{
									"internalType": "string",
									"name": "finalResult",
									"type": "string"
								}
							],
							"internalType": "struct RockPaperScissors.GameInfo",
							"name": "",
							"type": "tuple"
						}
					],
					"stateMutability": "view",
					"type": "function"
				},
				{
					"inputs": [
						{
							"internalType": "uint256",
							"name": "option",
							"type": "uint256"
						}
					],
					"name": "play",
					"outputs": [],
					"stateMutability": "nonpayable",
					"type": "function"
				},
				{
					"inputs": [],
					"name": "userCount",
					"outputs": [
						{
							"internalType": "uint256",
							"name": "",
							"type": "uint256"
						}
					],
					"stateMutability": "view",
					"type": "function"
				}
			],
			"devdoc": {
				"kind": "dev",
				"methods": {},
				"version": 1
			},
			"evm": {
				"assembly": "    /* \"Practical2-RockPaperScissors-Jason.sol\":57:5209  contract RockPaperScissors {... */\n  mstore(0x40, 0x80)\n    /* \"Practical2-RockPaperScissors-Jason.sol\":587:588  0 */\n  0x00\n    /* \"Practical2-RockPaperScissors-Jason.sol\":563:588  uint public userCount = 0 */\n  0x04\n  sstore\n    /* \"Practical2-RockPaperScissors-Jason.sol\":57:5209  contract RockPaperScissors {... */\n  callvalue\n  dup1\n  iszero\n  tag_1\n  jumpi\n  0x00\n  dup1\n  revert\ntag_1:\n  pop\n  dataSize(sub_0)\n  dup1\n  dataOffset(sub_0)\n  0x00\n  codecopy\n  0x00\n  return\nstop\n\nsub_0: assembly {\n        /* \"Practical2-RockPaperScissors-Jason.sol\":57:5209  contract RockPaperScissors {... */\n      mstore(0x40, 0x80)\n      callvalue\n      dup1\n      iszero\n      tag_1\n      jumpi\n      0x00\n      dup1\n      revert\n    tag_1:\n      pop\n      jumpi(tag_2, lt(calldatasize, 0x04))\n      shr(0xe0, calldataload(0x00))\n      dup1\n      0x6898f82b\n      gt\n      tag_10\n      jumpi\n      dup1\n      0x6898f82b\n      eq\n      tag_6\n      jumpi\n      dup1\n      0x6abd915e\n      eq\n      tag_7\n      jumpi\n      dup1\n      0xafcf5433\n      eq\n      tag_8\n      jumpi\n      dup1\n      0xf7c4efbb\n      eq\n      tag_9\n      jumpi\n      0x00\n      dup1\n      revert\n    tag_10:\n      dup1\n      0x07973ccf\n      eq\n      tag_3\n      jumpi\n      dup1\n      0x4d1975b4\n      eq\n      tag_4\n      jumpi\n      dup1\n      0x512ec557\n      eq\n      tag_5\n      jumpi\n    tag_2:\n      0x00\n      dup1\n      revert\n        /* \"Practical2-RockPaperScissors-Jason.sol\":563:588  uint public userCount = 0 */\n    tag_3:\n      tag_11\n      sload(0x04)\n      dup2\n      jump\n    tag_11:\n      mload(0x40)\n        /* \"#utility.yul\":160:185   */\n      swap1\n      dup2\n      mstore\n        /* \"#utility.yul\":148:150   */\n      0x20\n        /* \"#utility.yul\":133:151   */\n      add\n        /* \"Practical2-RockPaperScissors-Jason.sol\":563:588  uint public userCount = 0 */\n    tag_13:\n      mload(0x40)\n      dup1\n      swap2\n      sub\n      swap1\n      return\n        /* \"Practical2-RockPaperScissors-Jason.sol\":765:786  uint public gameCount */\n    tag_4:\n      tag_11\n      sload(0x07)\n      dup2\n      jump\n        /* \"Practical2-RockPaperScissors-Jason.sol\":1039:1198  function getGameHistory () external view returns(GameInfo[] memory){... */\n    tag_5:\n      tag_18\n      tag_19\n      jump\t// in\n    tag_18:\n      mload(0x40)\n      tag_13\n      swap2\n      swap1\n      tag_21\n      jump\t// in\n        /* \"Practical2-RockPaperScissors-Jason.sol\":1851:3723  function play (uint option) external noReentrancy{... */\n    tag_6:\n      tag_22\n      tag_23\n      calldatasize\n      0x04\n      tag_24\n      jump\t// in\n    tag_23:\n      tag_25\n      jump\t// in\n    tag_22:\n      stop\n        /* \"Practical2-RockPaperScissors-Jason.sol\":507:529  UserInfo public _user1 */\n    tag_7:\n      sload(0x00)\n      sload(0x01)\n      tag_26\n      swap2\n      sub(shl(0xa0, 0x01), 0x01)\n      and\n      swap1\n      dup3\n      jump\n    tag_26:\n      0x40\n      dup1\n      mload\n      sub(shl(0xa0, 0x01), 0x01)\n        /* \"#utility.yul\":2317:2349   */\n      swap1\n      swap4\n      and\n        /* \"#utility.yul\":2299:2350   */\n      dup4\n      mstore\n        /* \"#utility.yul\":2381:2383   */\n      0x20\n        /* \"#utility.yul\":2366:2384   */\n      dup4\n      add\n        /* \"#utility.yul\":2359:2393   */\n      swap2\n      swap1\n      swap2\n      mstore\n        /* \"#utility.yul\":2272:2290   */\n      add\n        /* \"Practical2-RockPaperScissors-Jason.sol\":507:529  UserInfo public _user1 */\n      tag_13\n        /* \"#utility.yul\":2125:2399   */\n      jump\n        /* \"Practical2-RockPaperScissors-Jason.sol\":535:557  UserInfo public _user2 */\n    tag_8:\n      sload(0x02)\n      sload(0x03)\n      tag_26\n      swap2\n      sub(shl(0xa0, 0x01), 0x01)\n      and\n      swap1\n      dup3\n      jump\n        /* \"Practical2-RockPaperScissors-Jason.sol\":1204:1561  function getSpecificGameHistory (uint index) external view returns(GameInfo memory){... */\n    tag_9:\n      tag_33\n      tag_34\n      calldatasize\n      0x04\n      tag_24\n      jump\t// in\n    tag_34:\n      tag_35\n      jump\t// in\n    tag_33:\n      mload(0x40)\n      tag_13\n      swap2\n      swap1\n      tag_37\n      jump\t// in\n        /* \"Practical2-RockPaperScissors-Jason.sol\":1039:1198  function getGameHistory () external view returns(GameInfo[] memory){... */\n    tag_19:\n        /* \"Practical2-RockPaperScissors-Jason.sol\":1088:1105  GameInfo[] memory */\n      0x60\n        /* \"Practical2-RockPaperScissors-Jason.sol\":1179:1190  gameHistory */\n      0x05\n        /* \"Practical2-RockPaperScissors-Jason.sol\":1171:1191  return (gameHistory) */\n      dup1\n      sload\n      dup1\n      0x20\n      mul\n      0x20\n      add\n      mload(0x40)\n      swap1\n      dup2\n      add\n      0x40\n      mstore\n      dup1\n      swap3\n      swap2\n      swap1\n      dup2\n      dup2\n      mstore\n      0x20\n      add\n      0x00\n      swap1\n    tag_39:\n      dup3\n      dup3\n      lt\n      iszero\n      tag_40\n      jumpi\n      0x00\n      dup5\n      dup2\n      mstore\n      0x20\n      swap1\n      dup2\n      swap1\n      keccak256\n      0x40\n      dup1\n      mload\n      0xa0\n      dup2\n      add\n      dup3\n      mstore\n      0x05\n      dup7\n      mul\n      swap1\n      swap3\n      add\n      dup1\n      sload\n      sub(shl(0xa0, 0x01), 0x01)\n      swap1\n      dup2\n      and\n      0x60\n      dup6\n      add\n      swap1\n      dup2\n      mstore\n      0x01\n      dup4\n      add\n      sload\n      0x80\n      dup7\n      add\n      mstore\n      dup5\n      mstore\n      dup3\n      mload\n      dup1\n      dup5\n      add\n      dup5\n      mstore\n      0x02\n      dup4\n      add\n      sload\n      swap1\n      swap2\n      and\n      dup2\n      mstore\n      0x03\n      dup3\n      add\n      sload\n      dup2\n      dup7\n      add\n      mstore\n      swap4\n      dup4\n      add\n      swap4\n      swap1\n      swap4\n      mstore\n      0x04\n      dup4\n      add\n      dup1\n      sload\n      swap3\n      swap4\n      swap3\n      swap2\n      dup5\n      add\n      swap2\n      tag_42\n      swap1\n      tag_43\n      jump\t// in\n    tag_42:\n      dup1\n      0x1f\n      add\n      0x20\n      dup1\n      swap2\n      div\n      mul\n      0x20\n      add\n      mload(0x40)\n      swap1\n      dup2\n      add\n      0x40\n      mstore\n      dup1\n      swap3\n      swap2\n      swap1\n      dup2\n      dup2\n      mstore\n      0x20\n      add\n      dup3\n      dup1\n      sload\n      tag_44\n      swap1\n      tag_43\n      jump\t// in\n    tag_44:\n      dup1\n      iszero\n      tag_45\n      jumpi\n      dup1\n      0x1f\n      lt\n      tag_46\n      jumpi\n      0x0100\n      dup1\n      dup4\n      sload\n      div\n      mul\n      dup4\n      mstore\n      swap2\n      0x20\n      add\n      swap2\n      jump(tag_45)\n    tag_46:\n      dup3\n      add\n      swap2\n      swap1\n      0x00\n      mstore\n      keccak256(0x00, 0x20)\n      swap1\n    tag_47:\n      dup2\n      sload\n      dup2\n      mstore\n      swap1\n      0x01\n      add\n      swap1\n      0x20\n      add\n      dup1\n      dup4\n      gt\n      tag_47\n      jumpi\n      dup3\n      swap1\n      sub\n      0x1f\n      and\n      dup3\n      add\n      swap2\n    tag_45:\n      pop\n      pop\n      pop\n      pop\n      pop\n      dup2\n      mstore\n      pop\n      pop\n      dup2\n      mstore\n      0x20\n      add\n      swap1\n      0x01\n      add\n      swap1\n      jump(tag_39)\n    tag_40:\n      pop\n      pop\n      pop\n      pop\n      swap1\n      pop\n        /* \"Practical2-RockPaperScissors-Jason.sol\":1039:1198  function getGameHistory () external view returns(GameInfo[] memory){... */\n      swap1\n      jump\t// out\n        /* \"Practical2-RockPaperScissors-Jason.sol\":1851:3723  function play (uint option) external noReentrancy{... */\n    tag_25:\n        /* \"Practical2-RockPaperScissors-Jason.sol\":1646:1652  locked */\n      and(0xff, sload(0x06))\n        /* \"Practical2-RockPaperScissors-Jason.sol\":1645:1652  !locked */\n      iszero\n        /* \"Practical2-RockPaperScissors-Jason.sol\":1637:1678  require(!locked, \"Error: Reentrant call\") */\n      tag_49\n      jumpi\n      mload(0x40)\n      shl(0xe5, 0x461bcd)\n      dup2\n      mstore\n        /* \"#utility.yul\":3253:3255   */\n      0x20\n        /* \"Practical2-RockPaperScissors-Jason.sol\":1637:1678  require(!locked, \"Error: Reentrant call\") */\n      0x04\n      dup3\n      add\n        /* \"#utility.yul\":3235:3256   */\n      mstore\n        /* \"#utility.yul\":3292:3294   */\n      0x15\n        /* \"#utility.yul\":3272:3290   */\n      0x24\n      dup3\n      add\n        /* \"#utility.yul\":3265:3295   */\n      mstore\n      shl(0x5a, 0x115c9c9bdc8e881499595b9d1c985b9d0818d85b1b)\n        /* \"#utility.yul\":3311:3329   */\n      0x44\n      dup3\n      add\n        /* \"#utility.yul\":3304:3355   */\n      mstore\n        /* \"#utility.yul\":3372:3390   */\n      0x64\n      add\n        /* \"Practical2-RockPaperScissors-Jason.sol\":1637:1678  require(!locked, \"Error: Reentrant call\") */\n    tag_50:\n      mload(0x40)\n      dup1\n      swap2\n      sub\n      swap1\n      revert\n    tag_49:\n        /* \"Practical2-RockPaperScissors-Jason.sol\":1688:1694  locked */\n      0x06\n        /* \"Practical2-RockPaperScissors-Jason.sol\":1688:1701  locked = true */\n      dup1\n      sload\n      not(0xff)\n      and\n        /* \"Practical2-RockPaperScissors-Jason.sol\":1697:1701  true */\n      0x01\n        /* \"Practical2-RockPaperScissors-Jason.sol\":1688:1701  locked = true */\n      or\n      swap1\n      sstore\n        /* \"Practical2-RockPaperScissors-Jason.sol\":1915:1942  showUserAddress(msg.sender) */\n      mload(0x40)\n        /* \"Practical2-RockPaperScissors-Jason.sol\":1931:1941  msg.sender */\n      caller\n      swap1\n        /* \"Practical2-RockPaperScissors-Jason.sol\":1915:1942  showUserAddress(msg.sender) */\n      0x6fd5bea3ad79492c3055c6f6b7b37ca66d63ba4ceef7d04dd901559affbe971a\n      swap1\n        /* \"Practical2-RockPaperScissors-Jason.sol\":1688:1694  locked */\n      0x00\n      swap1\n        /* \"Practical2-RockPaperScissors-Jason.sol\":1915:1942  showUserAddress(msg.sender) */\n      log2\n        /* \"Practical2-RockPaperScissors-Jason.sol\":1987:1993  option */\n      dup1\n        /* \"Practical2-RockPaperScissors-Jason.sol\":1997:1998  0 */\n      0x00\n        /* \"Practical2-RockPaperScissors-Jason.sol\":1987:1998  option != 0 */\n      sub\n        /* \"Practical2-RockPaperScissors-Jason.sol\":1979:2023  require(option != 0, \"Error: Can't input 0\") */\n      tag_53\n      jumpi\n      mload(0x40)\n      shl(0xe5, 0x461bcd)\n      dup2\n      mstore\n        /* \"#utility.yul\":3603:3605   */\n      0x20\n        /* \"Practical2-RockPaperScissors-Jason.sol\":1979:2023  require(option != 0, \"Error: Can't input 0\") */\n      0x04\n      dup3\n      add\n        /* \"#utility.yul\":3585:3606   */\n      mstore\n        /* \"#utility.yul\":3642:3644   */\n      0x14\n        /* \"#utility.yul\":3622:3640   */\n      0x24\n      dup3\n      add\n        /* \"#utility.yul\":3615:3645   */\n      mstore\n      shl(0x64, 0x04572726f723a2043616e277420696e707574203)\n        /* \"#utility.yul\":3661:3679   */\n      0x44\n      dup3\n      add\n        /* \"#utility.yul\":3654:3704   */\n      mstore\n        /* \"#utility.yul\":3721:3739   */\n      0x64\n      add\n        /* \"Practical2-RockPaperScissors-Jason.sol\":1979:2023  require(option != 0, \"Error: Can't input 0\") */\n      tag_50\n        /* \"#utility.yul\":3401:3745   */\n      jump\n        /* \"Practical2-RockPaperScissors-Jason.sol\":1979:2023  require(option != 0, \"Error: Can't input 0\") */\n    tag_53:\n        /* \"Practical2-RockPaperScissors-Jason.sol\":2051:2052  3 */\n      0x03\n        /* \"Practical2-RockPaperScissors-Jason.sol\":2041:2047  option */\n      dup2\n        /* \"Practical2-RockPaperScissors-Jason.sol\":2041:2052  option <= 3 */\n      gt\n      iszero\n        /* \"Practical2-RockPaperScissors-Jason.sol\":2033:2087  require(option <= 3, \"Error: Can't input more than 3\") */\n      tag_56\n      jumpi\n      mload(0x40)\n      shl(0xe5, 0x461bcd)\n      dup2\n      mstore\n        /* \"#utility.yul\":3952:3954   */\n      0x20\n        /* \"Practical2-RockPaperScissors-Jason.sol\":2033:2087  require(option <= 3, \"Error: Can't input more than 3\") */\n      0x04\n      dup3\n      add\n        /* \"#utility.yul\":3934:3955   */\n      mstore\n        /* \"#utility.yul\":3991:3993   */\n      0x1e\n        /* \"#utility.yul\":3971:3989   */\n      0x24\n      dup3\n      add\n        /* \"#utility.yul\":3964:3994   */\n      mstore\n        /* \"#utility.yul\":4030:4062   */\n      0x4572726f723a2043616e277420696e707574206d6f7265207468616e20330000\n        /* \"#utility.yul\":4010:4028   */\n      0x44\n      dup3\n      add\n        /* \"#utility.yul\":4003:4063   */\n      mstore\n        /* \"#utility.yul\":4080:4098   */\n      0x64\n      add\n        /* \"Practical2-RockPaperScissors-Jason.sol\":2033:2087  require(option <= 3, \"Error: Can't input more than 3\") */\n      tag_50\n        /* \"#utility.yul\":3750:4104   */\n      jump\n        /* \"Practical2-RockPaperScissors-Jason.sol\":2033:2087  require(option <= 3, \"Error: Can't input more than 3\") */\n    tag_56:\n        /* \"Practical2-RockPaperScissors-Jason.sol\":2111:2120  userCount */\n      sload(0x04)\n        /* \"Practical2-RockPaperScissors-Jason.sol\":2124:2125  0 */\n      0x00\n        /* \"Practical2-RockPaperScissors-Jason.sol\":2111:2125  userCount == 0 */\n      sub\n        /* \"Practical2-RockPaperScissors-Jason.sol\":2108:3363  if(userCount == 0){... */\n      tag_59\n      jumpi\n        /* \"Practical2-RockPaperScissors-Jason.sol\":2427:2433  _user1 */\n      0x00\n        /* \"Practical2-RockPaperScissors-Jason.sol\":2427:2458  _user1.userAddress = msg.sender */\n      dup1\n      sload\n      not(sub(shl(0xa0, 0x01), 0x01))\n      and\n        /* \"Practical2-RockPaperScissors-Jason.sol\":2448:2458  msg.sender */\n      caller\n        /* \"Practical2-RockPaperScissors-Jason.sol\":2427:2458  _user1.userAddress = msg.sender */\n      or\n      dup2\n      sstore\n      0x01\n        /* \"Practical2-RockPaperScissors-Jason.sol\":2472:2498  _user1.userOption = option */\n      dup3\n      swap1\n      sstore\n        /* \"Practical2-RockPaperScissors-Jason.sol\":2512:2521  userCount */\n      0x04\n        /* \"Practical2-RockPaperScissors-Jason.sol\":2512:2523  userCount++ */\n      dup1\n      sload\n      swap2\n      tag_60\n      dup4\n      tag_61\n      jump\t// in\n    tag_60:\n      swap2\n      swap1\n      pop\n      sstore\n      pop\n        /* \"Practical2-RockPaperScissors-Jason.sol\":2108:3363  if(userCount == 0){... */\n      jump(tag_62)\n    tag_59:\n        /* \"Practical2-RockPaperScissors-Jason.sol\":2641:2647  _user1 */\n      0x00\n        /* \"Practical2-RockPaperScissors-Jason.sol\":2641:2659  _user1.userAddress */\n      sload\n      sub(shl(0xa0, 0x01), 0x01)\n      and\n        /* \"Practical2-RockPaperScissors-Jason.sol\":2627:2637  msg.sender */\n      caller\n        /* \"Practical2-RockPaperScissors-Jason.sol\":2627:2659  msg.sender != _user1.userAddress */\n      sub\n        /* \"Practical2-RockPaperScissors-Jason.sol\":2619:2699  require(msg.sender != _user1.userAddress,\"Error: You cannot play with yourself\") */\n      tag_63\n      jumpi\n      mload(0x40)\n      shl(0xe5, 0x461bcd)\n      dup2\n      mstore\n        /* \"#utility.yul\":4548:4550   */\n      0x20\n        /* \"Practical2-RockPaperScissors-Jason.sol\":2619:2699  require(msg.sender != _user1.userAddress,\"Error: You cannot play with yourself\") */\n      0x04\n      dup3\n      add\n        /* \"#utility.yul\":4530:4551   */\n      mstore\n        /* \"#utility.yul\":4587:4589   */\n      0x24\n        /* \"#utility.yul\":4567:4585   */\n      dup1\n      dup3\n      add\n        /* \"#utility.yul\":4560:4590   */\n      mstore\n        /* \"#utility.yul\":4626:4660   */\n      0x4572726f723a20596f752063616e6e6f7420706c6179207769746820796f7572\n        /* \"#utility.yul\":4606:4624   */\n      0x44\n      dup3\n      add\n        /* \"#utility.yul\":4599:4661   */\n      mstore\n      shl(0xe1, 0x39b2b633)\n        /* \"#utility.yul\":4677:4695   */\n      0x64\n      dup3\n      add\n        /* \"#utility.yul\":4670:4704   */\n      mstore\n        /* \"#utility.yul\":4721:4740   */\n      0x84\n      add\n        /* \"Practical2-RockPaperScissors-Jason.sol\":2619:2699  require(msg.sender != _user1.userAddress,\"Error: You cannot play with yourself\") */\n      tag_50\n        /* \"#utility.yul\":4346:4746   */\n      jump\n        /* \"Practical2-RockPaperScissors-Jason.sol\":2619:2699  require(msg.sender != _user1.userAddress,\"Error: You cannot play with yourself\") */\n    tag_63:\n        /* \"Practical2-RockPaperScissors-Jason.sol\":2926:2932  _user2 */\n      0x02\n        /* \"Practical2-RockPaperScissors-Jason.sol\":2926:2957  _user2.userAddress = msg.sender */\n      dup1\n      sload\n      not(sub(shl(0xa0, 0x01), 0x01))\n      and\n        /* \"Practical2-RockPaperScissors-Jason.sol\":2947:2957  msg.sender */\n      caller\n        /* \"Practical2-RockPaperScissors-Jason.sol\":2926:2957  _user2.userAddress = msg.sender */\n      or\n      swap1\n      sstore\n        /* \"Practical2-RockPaperScissors-Jason.sol\":2971:2988  _user2.userOption */\n      0x03\n        /* \"Practical2-RockPaperScissors-Jason.sol\":2971:2997  _user2.userOption = option */\n      dup2\n      swap1\n      sstore\n        /* \"Practical2-RockPaperScissors-Jason.sol\":3011:3020  userCount */\n      0x04\n        /* \"Practical2-RockPaperScissors-Jason.sol\":3011:3022  userCount++ */\n      dup1\n      sload\n      swap1\n        /* \"Practical2-RockPaperScissors-Jason.sol\":2926:2944  _user2.userAddress */\n      0x00\n        /* \"Practical2-RockPaperScissors-Jason.sol\":3011:3022  userCount++ */\n      tag_66\n      dup4\n      tag_61\n      jump\t// in\n    tag_66:\n      swap2\n      swap1\n      pop\n      sstore\n      pop\n        /* \"Practical2-RockPaperScissors-Jason.sol\":3073:3079  game() */\n      tag_67\n        /* \"Practical2-RockPaperScissors-Jason.sol\":3073:3077  game */\n      tag_68\n        /* \"Practical2-RockPaperScissors-Jason.sol\":3073:3079  game() */\n      jump\t// in\n    tag_67:\n        /* \"Practical2-RockPaperScissors-Jason.sol\":3105:3106  0 */\n      0x00\n        /* \"Practical2-RockPaperScissors-Jason.sol\":3093:3102  userCount */\n      0x04\n        /* \"Practical2-RockPaperScissors-Jason.sol\":3093:3106  userCount = 0 */\n      dup2\n      swap1\n      sstore\n        /* \"Practical2-RockPaperScissors-Jason.sol\":3246:3277  _user1.userAddress = address(0) */\n      dup1\n      sload\n      not(sub(shl(0xa0, 0x01), 0x01))\n      swap1\n      dup2\n      and\n      swap1\n      swap2\n      sstore\n        /* \"Practical2-RockPaperScissors-Jason.sol\":3291:3297  _user2 */\n      0x02\n        /* \"Practical2-RockPaperScissors-Jason.sol\":3291:3322  _user2.userAddress = address(0) */\n      dup1\n      sload\n      swap1\n      swap2\n      and\n      swap1\n      sstore\n        /* \"Practical2-RockPaperScissors-Jason.sol\":2108:3363  if(userCount == 0){... */\n    tag_62:\n      pop\n        /* \"Practical2-RockPaperScissors-Jason.sol\":1722:1728  locked */\n      0x06\n        /* \"Practical2-RockPaperScissors-Jason.sol\":1722:1736  locked = false */\n      dup1\n      sload\n      not(0xff)\n      and\n      swap1\n      sstore\n        /* \"Practical2-RockPaperScissors-Jason.sol\":1851:3723  function play (uint option) external noReentrancy{... */\n      jump\t// out\n        /* \"Practical2-RockPaperScissors-Jason.sol\":1204:1561  function getSpecificGameHistory (uint index) external view returns(GameInfo memory){... */\n    tag_35:\n      0x40\n      dup1\n      mload\n      0xa0\n      dup2\n      add\n      dup3\n      mstore\n      0x00\n      0x60\n      dup1\n      dup4\n      add\n      dup3\n      dup2\n      mstore\n      0x80\n      dup5\n      add\n      dup4\n      swap1\n      mstore\n      dup4\n      mstore\n      dup4\n      mload\n      dup1\n      dup6\n      add\n      dup6\n      mstore\n      dup3\n      dup2\n      mstore\n      0x20\n      dup1\n      dup3\n      add\n      swap4\n      swap1\n      swap4\n      mstore\n      swap2\n      dup4\n      add\n      swap2\n      swap1\n      swap2\n      mstore\n      swap2\n      dup2\n      add\n      swap2\n      swap1\n      swap2\n      mstore\n        /* \"Practical2-RockPaperScissors-Jason.sol\":1369:1380  gameHistory */\n      0x05\n        /* \"Practical2-RockPaperScissors-Jason.sol\":1369:1387  gameHistory.length */\n      sload\n        /* \"Practical2-RockPaperScissors-Jason.sol\":1360:1387  index <= gameHistory.length */\n      dup3\n      gt\n      iszero\n        /* \"Practical2-RockPaperScissors-Jason.sol\":1352:1413  require(index <= gameHistory.length, \"Error: Invalid length\") */\n      tag_72\n      jumpi\n      mload(0x40)\n      shl(0xe5, 0x461bcd)\n      dup2\n      mstore\n        /* \"#utility.yul\":4953:4955   */\n      0x20\n        /* \"Practical2-RockPaperScissors-Jason.sol\":1352:1413  require(index <= gameHistory.length, \"Error: Invalid length\") */\n      0x04\n      dup3\n      add\n        /* \"#utility.yul\":4935:4956   */\n      mstore\n        /* \"#utility.yul\":4992:4994   */\n      0x15\n        /* \"#utility.yul\":4972:4990   */\n      0x24\n      dup3\n      add\n        /* \"#utility.yul\":4965:4995   */\n      mstore\n      shl(0x5b, 0x08ae4e4dee4744092dcecc2d8d2c840d8cadccee8d)\n        /* \"#utility.yul\":5011:5029   */\n      0x44\n      dup3\n      add\n        /* \"#utility.yul\":5004:5055   */\n      mstore\n        /* \"#utility.yul\":5072:5090   */\n      0x64\n      add\n        /* \"Practical2-RockPaperScissors-Jason.sol\":1352:1413  require(index <= gameHistory.length, \"Error: Invalid length\") */\n      tag_50\n        /* \"#utility.yul\":4751:5096   */\n      jump\n        /* \"Practical2-RockPaperScissors-Jason.sol\":1352:1413  require(index <= gameHistory.length, \"Error: Invalid length\") */\n    tag_72:\n        /* \"Practical2-RockPaperScissors-Jason.sol\":1479:1480  0 */\n      0x00\n      sub(shl(0xa0, 0x01), 0x01)\n        /* \"Practical2-RockPaperScissors-Jason.sol\":1431:1481  gameHistory[index].user2.userAddress == address(0) */\n      and\n        /* \"Practical2-RockPaperScissors-Jason.sol\":1431:1442  gameHistory */\n      0x05\n        /* \"Practical2-RockPaperScissors-Jason.sol\":1443:1448  index */\n      dup4\n        /* \"Practical2-RockPaperScissors-Jason.sol\":1431:1449  gameHistory[index] */\n      dup2\n      sload\n      dup2\n      lt\n      tag_76\n      jumpi\n      tag_76\n      tag_77\n      jump\t// in\n    tag_76:\n      0x00\n      swap2\n      dup3\n      mstore\n      0x20\n      swap1\n      swap2\n      keccak256\n        /* \"Practical2-RockPaperScissors-Jason.sol\":1431:1455  gameHistory[index].user2 */\n      0x02\n        /* \"Practical2-RockPaperScissors-Jason.sol\":1431:1449  gameHistory[index] */\n      0x05\n      swap1\n      swap3\n      mul\n      add\n        /* \"Practical2-RockPaperScissors-Jason.sol\":1431:1455  gameHistory[index].user2 */\n      add\n        /* \"Practical2-RockPaperScissors-Jason.sol\":1431:1467  gameHistory[index].user2.userAddress */\n      sload\n      sub(shl(0xa0, 0x01), 0x01)\n      and\n        /* \"Practical2-RockPaperScissors-Jason.sol\":1431:1481  gameHistory[index].user2.userAddress == address(0) */\n      eq\n        /* \"Practical2-RockPaperScissors-Jason.sol\":1423:1516  require(gameHistory[index].user2.userAddress == address(0), \"Error: The game not finish yet\") */\n      tag_79\n      jumpi\n      mload(0x40)\n      shl(0xe5, 0x461bcd)\n      dup2\n      mstore\n        /* \"#utility.yul\":5435:5437   */\n      0x20\n        /* \"Practical2-RockPaperScissors-Jason.sol\":1423:1516  require(gameHistory[index].user2.userAddress == address(0), \"Error: The game not finish yet\") */\n      0x04\n      dup3\n      add\n        /* \"#utility.yul\":5417:5438   */\n      mstore\n        /* \"#utility.yul\":5474:5476   */\n      0x1e\n        /* \"#utility.yul\":5454:5472   */\n      0x24\n      dup3\n      add\n        /* \"#utility.yul\":5447:5477   */\n      mstore\n        /* \"#utility.yul\":5513:5545   */\n      0x4572726f723a205468652067616d65206e6f742066696e697368207965740000\n        /* \"#utility.yul\":5493:5511   */\n      0x44\n      dup3\n      add\n        /* \"#utility.yul\":5486:5546   */\n      mstore\n        /* \"#utility.yul\":5563:5581   */\n      0x64\n      add\n        /* \"Practical2-RockPaperScissors-Jason.sol\":1423:1516  require(gameHistory[index].user2.userAddress == address(0), \"Error: The game not finish yet\") */\n      tag_50\n        /* \"#utility.yul\":5233:5587   */\n      jump\n        /* \"Practical2-RockPaperScissors-Jason.sol\":1423:1516  require(gameHistory[index].user2.userAddress == address(0), \"Error: The game not finish yet\") */\n    tag_79:\n        /* \"Practical2-RockPaperScissors-Jason.sol\":1535:1546  gameHistory */\n      0x05\n        /* \"Practical2-RockPaperScissors-Jason.sol\":1547:1552  index */\n      dup3\n        /* \"Practical2-RockPaperScissors-Jason.sol\":1535:1553  gameHistory[index] */\n      dup2\n      sload\n      dup2\n      lt\n      tag_83\n      jumpi\n      tag_83\n      tag_77\n      jump\t// in\n    tag_83:\n      0x00\n      swap2\n      dup3\n      mstore\n      0x20\n      swap2\n      dup3\n      swap1\n      keccak256\n        /* \"Practical2-RockPaperScissors-Jason.sol\":1527:1554  return (gameHistory[index]) */\n      0x40\n      dup1\n      mload\n      0xa0\n      dup2\n      add\n      dup3\n      mstore\n        /* \"Practical2-RockPaperScissors-Jason.sol\":1535:1553  gameHistory[index] */\n      0x05\n      swap1\n      swap4\n      mul\n      swap1\n      swap2\n      add\n        /* \"Practical2-RockPaperScissors-Jason.sol\":1527:1554  return (gameHistory[index]) */\n      dup1\n      sload\n      sub(shl(0xa0, 0x01), 0x01)\n      swap1\n      dup2\n      and\n      0x60\n      dup6\n      add\n      swap1\n      dup2\n      mstore\n      0x01\n      dup4\n      add\n      sload\n      0x80\n      dup7\n      add\n      mstore\n      dup5\n      mstore\n      dup3\n      mload\n      dup1\n      dup5\n      add\n      dup5\n      mstore\n      0x02\n      dup4\n      add\n      sload\n      swap1\n      swap2\n      and\n      dup2\n      mstore\n      0x03\n      dup3\n      add\n      sload\n      dup2\n      dup7\n      add\n      mstore\n      swap4\n      dup4\n      add\n      swap4\n      swap1\n      swap4\n      mstore\n      0x04\n      dup4\n      add\n      dup1\n      sload\n      swap3\n      swap4\n        /* \"Practical2-RockPaperScissors-Jason.sol\":1535:1553  gameHistory[index] */\n      swap3\n      swap2\n      dup5\n      add\n      swap2\n        /* \"Practical2-RockPaperScissors-Jason.sol\":1527:1554  return (gameHistory[index]) */\n      tag_85\n      swap1\n      tag_43\n      jump\t// in\n    tag_85:\n      dup1\n      0x1f\n      add\n      0x20\n      dup1\n      swap2\n      div\n      mul\n      0x20\n      add\n      mload(0x40)\n      swap1\n      dup2\n      add\n      0x40\n      mstore\n      dup1\n      swap3\n      swap2\n      swap1\n      dup2\n      dup2\n      mstore\n      0x20\n      add\n      dup3\n      dup1\n      sload\n      tag_86\n      swap1\n      tag_43\n      jump\t// in\n    tag_86:\n      dup1\n      iszero\n      tag_87\n      jumpi\n      dup1\n      0x1f\n      lt\n      tag_88\n      jumpi\n      0x0100\n      dup1\n      dup4\n      sload\n      div\n      mul\n      dup4\n      mstore\n      swap2\n      0x20\n      add\n      swap2\n      jump(tag_87)\n    tag_88:\n      dup3\n      add\n      swap2\n      swap1\n      0x00\n      mstore\n      keccak256(0x00, 0x20)\n      swap1\n    tag_89:\n      dup2\n      sload\n      dup2\n      mstore\n      swap1\n      0x01\n      add\n      swap1\n      0x20\n      add\n      dup1\n      dup4\n      gt\n      tag_89\n      jumpi\n      dup3\n      swap1\n      sub\n      0x1f\n      and\n      dup3\n      add\n      swap2\n    tag_87:\n      pop\n      pop\n      pop\n      pop\n      pop\n      dup2\n      mstore\n      pop\n      pop\n      swap1\n      pop\n        /* \"Practical2-RockPaperScissors-Jason.sol\":1204:1561  function getSpecificGameHistory (uint index) external view returns(GameInfo memory){... */\n      swap2\n      swap1\n      pop\n      jump\t// out\n        /* \"Practical2-RockPaperScissors-Jason.sol\":3752:5207  function game () private {... */\n    tag_68:\n      0x40\n      dup1\n      mload\n      0xa0\n      dup2\n      add\n      dup3\n      mstore\n      0x00\n      0x60\n      dup1\n      dup4\n      add\n      dup3\n      dup2\n      mstore\n      0x80\n      dup5\n      add\n      dup4\n      swap1\n      mstore\n      dup4\n      mstore\n      dup4\n      mload\n      dup1\n      dup6\n      add\n      dup6\n      mstore\n      dup3\n      dup2\n      mstore\n      0x20\n      dup1\n      dup3\n      add\n      dup5\n      swap1\n      mstore\n      dup1\n      dup6\n      add\n      swap2\n      dup3\n      mstore\n      swap5\n      dup5\n      add\n      swap2\n      swap1\n      swap2\n      mstore\n        /* \"Practical2-RockPaperScissors-Jason.sol\":3903:3921  _user1.userAddress */\n      swap1\n      sload\n        /* \"Practical2-RockPaperScissors-Jason.sol\":3871:3888  newGameinfo.user1 */\n      dup3\n      mload\n      sub(shl(0xa0, 0x01), 0x01)\n        /* \"Practical2-RockPaperScissors-Jason.sol\":3903:3921  _user1.userAddress */\n      swap2\n      dup3\n      and\n        /* \"Practical2-RockPaperScissors-Jason.sol\":3871:3921  newGameinfo.user1.userAddress = _user1.userAddress */\n      swap1\n      mstore\n        /* \"Practical2-RockPaperScissors-Jason.sol\":3903:3921  _user1.userAddress */\n      0x01\n        /* \"Practical2-RockPaperScissors-Jason.sol\":3962:3979  _user1.userOption */\n      sload\n        /* \"Practical2-RockPaperScissors-Jason.sol\":3931:3948  newGameinfo.user1 */\n      dup4\n      mload\n        /* \"Practical2-RockPaperScissors-Jason.sol\":3931:3959  newGameinfo.user1.userOption */\n      dup6\n      add\n        /* \"Practical2-RockPaperScissors-Jason.sol\":3931:3979  newGameinfo.user1.userOption = _user1.userOption */\n      dup2\n      swap1\n      mstore\n        /* \"Practical2-RockPaperScissors-Jason.sol\":4021:4027  _user2 */\n      0x02\n        /* \"Practical2-RockPaperScissors-Jason.sol\":4021:4039  _user2.userAddress */\n      sload\n        /* \"Practical2-RockPaperScissors-Jason.sol\":3989:4006  newGameinfo.user2 */\n      dup4\n      mload\n        /* \"Practical2-RockPaperScissors-Jason.sol\":4021:4039  _user2.userAddress */\n      swap3\n      and\n        /* \"Practical2-RockPaperScissors-Jason.sol\":3989:4039  newGameinfo.user2.userAddress = _user2.userAddress */\n      swap1\n      swap2\n      mstore\n        /* \"Practical2-RockPaperScissors-Jason.sol\":4080:4097  _user2.userOption */\n      sload(0x03)\n        /* \"Practical2-RockPaperScissors-Jason.sol\":4049:4066  newGameinfo.user2 */\n      swap2\n      mload\n        /* \"Practical2-RockPaperScissors-Jason.sol\":4049:4077  newGameinfo.user2.userOption */\n      swap1\n      swap4\n      add\n        /* \"Practical2-RockPaperScissors-Jason.sol\":4049:4097  newGameinfo.user2.userOption = _user2.userOption */\n      dup2\n      swap1\n      mstore\n      swap1\n      swap2\n        /* \"Practical2-RockPaperScissors-Jason.sol\":4229:4267  _user1.userOption == _user2.userOption */\n      sub\n        /* \"Practical2-RockPaperScissors-Jason.sol\":4225:5201  if (_user1.userOption == _user2.userOption) {... */\n      tag_92\n      jumpi\n        /* \"Practical2-RockPaperScissors-Jason.sol\":4283:4315  newGameinfo.finalResult = \"Tied\" */\n      0x40\n      dup1\n      mload\n      dup1\n      dup3\n      add\n      dup3\n      mstore\n      0x04\n      dup2\n      mstore\n      shl(0xe2, 0x151a5959)\n      0x20\n      dup3\n      add\n      mstore\n        /* \"Practical2-RockPaperScissors-Jason.sol\":4283:4306  newGameinfo.finalResult */\n      dup3\n      dup3\n      add\n        /* \"Practical2-RockPaperScissors-Jason.sol\":4283:4315  newGameinfo.finalResult = \"Tied\" */\n      mstore\n        /* \"Practical2-RockPaperScissors-Jason.sol\":4334:4352  showResult(\"Tied\") */\n      mload\n      0xcde5c32c0a45fd8aa4b65ea8003fc9da9acd5e2c6c24a9fcce6ab79cabbd9122\n      swap1\n      tag_93\n      swap1\n        /* \"#utility.yul\":5794:5796   */\n      0x20\n        /* \"#utility.yul\":5776:5797   */\n      dup1\n      dup3\n      mstore\n        /* \"#utility.yul\":5833:5834   */\n      0x04\n        /* \"#utility.yul\":5813:5831   */\n      swap1\n      dup3\n      add\n        /* \"#utility.yul\":5806:5835   */\n      mstore\n      shl(0xe2, 0x151a5959)\n        /* \"#utility.yul\":5866:5868   */\n      0x40\n        /* \"#utility.yul\":5851:5869   */\n      dup3\n      add\n        /* \"#utility.yul\":5844:5878   */\n      mstore\n        /* \"#utility.yul\":5910:5912   */\n      0x60\n        /* \"#utility.yul\":5895:5913   */\n      add\n      swap1\n        /* \"#utility.yul\":5592:5919   */\n      jump\n        /* \"Practical2-RockPaperScissors-Jason.sol\":4334:4352  showResult(\"Tied\") */\n    tag_93:\n      mload(0x40)\n      dup1\n      swap2\n      sub\n      swap1\n      log1\n        /* \"Practical2-RockPaperScissors-Jason.sol\":4370:4381  gameHistory */\n      0x05\n        /* \"Practical2-RockPaperScissors-Jason.sol\":4370:4399  gameHistory.push(newGameinfo) */\n      dup1\n      sload\n      0x01\n      dup2\n      add\n      dup3\n      sstore\n      0x00\n      dup3\n      swap1\n      mstore\n      dup3\n      mload\n      dup1\n      mload\n      0x036b6384b5eca791c62761152d0c79bb0604c104a5fb6f4eb0703f3154bb3db0\n      swap3\n      swap1\n      swap4\n      mul\n      swap2\n      dup3\n      add\n      dup1\n      sload\n      not(sub(shl(0xa0, 0x01), 0x01))\n      swap1\n      dup2\n      and\n      sub(shl(0xa0, 0x01), 0x01)\n      swap6\n      dup7\n      and\n      or\n      dup3\n      sstore\n      0x20\n      swap3\n      dup4\n      add\n      mload\n      0x036b6384b5eca791c62761152d0c79bb0604c104a5fb6f4eb0703f3154bb3db1\n      dup6\n      add\n      sstore\n      dup3\n      dup7\n      add\n      mload\n      dup1\n      mload\n      0x036b6384b5eca791c62761152d0c79bb0604c104a5fb6f4eb0703f3154bb3db2\n      dup7\n      add\n      dup1\n      sload\n      swap1\n      swap4\n      and\n      swap7\n      and\n      swap6\n      swap1\n      swap6\n      or\n      swap1\n      sstore\n      swap3\n      add\n      mload\n      0x036b6384b5eca791c62761152d0c79bb0604c104a5fb6f4eb0703f3154bb3db3\n      dup3\n      add\n      sstore\n      0x40\n      dup4\n      add\n      mload\n      dup4\n      swap3\n      swap2\n      0x036b6384b5eca791c62761152d0c79bb0604c104a5fb6f4eb0703f3154bb3db4\n      add\n      swap1\n      tag_96\n      swap1\n      dup3\n      tag_97\n      jump\t// in\n    tag_96:\n      pop\n      pop\n      pop\n        /* \"Practical2-RockPaperScissors-Jason.sol\":3777:5207  {... */\n      pop\n        /* \"Practical2-RockPaperScissors-Jason.sol\":3752:5207  function game () private {... */\n      jump\t// out\n        /* \"Practical2-RockPaperScissors-Jason.sol\":4225:5201  if (_user1.userOption == _user2.userOption) {... */\n    tag_92:\n        /* \"Practical2-RockPaperScissors-Jason.sol\":4519:4536  _user1.userOption */\n      0x01\n      dup1\n      sload\n        /* \"Practical2-RockPaperScissors-Jason.sol\":4519:4541  _user1.userOption == 1 */\n      eq\n        /* \"Practical2-RockPaperScissors-Jason.sol\":4519:4567  _user1.userOption == 1 && _user2.userOption == 2 */\n      dup1\n      iszero\n      tag_99\n      jumpi\n      pop\n        /* \"Practical2-RockPaperScissors-Jason.sol\":4545:4562  _user2.userOption */\n      sload(0x03)\n        /* \"Practical2-RockPaperScissors-Jason.sol\":4545:4551  _user2 */\n      0x02\n        /* \"Practical2-RockPaperScissors-Jason.sol\":4545:4567  _user2.userOption == 2 */\n      eq\n        /* \"Practical2-RockPaperScissors-Jason.sol\":4519:4567  _user1.userOption == 1 && _user2.userOption == 2 */\n    tag_99:\n        /* \"Practical2-RockPaperScissors-Jason.sol\":4518:4638  (_user1.userOption == 1 && _user2.userOption == 2) ||... */\n      dup1\n      tag_101\n      jumpi\n      pop\n        /* \"Practical2-RockPaperScissors-Jason.sol\":4589:4606  _user1.userOption */\n      sload(0x01)\n        /* \"Practical2-RockPaperScissors-Jason.sol\":4610:4611  3 */\n      0x03\n        /* \"Practical2-RockPaperScissors-Jason.sol\":4589:4611  _user1.userOption == 3 */\n      eq\n        /* \"Practical2-RockPaperScissors-Jason.sol\":4589:4637  _user1.userOption == 3 && _user2.userOption == 1 */\n      dup1\n      iszero\n      tag_101\n      jumpi\n      pop\n        /* \"Practical2-RockPaperScissors-Jason.sol\":4615:4632  _user2.userOption */\n      sload(0x03)\n      0x01\n        /* \"Practical2-RockPaperScissors-Jason.sol\":4615:4637  _user2.userOption == 1 */\n      eq\n        /* \"Practical2-RockPaperScissors-Jason.sol\":4589:4637  _user1.userOption == 3 && _user2.userOption == 1 */\n    tag_101:\n        /* \"Practical2-RockPaperScissors-Jason.sol\":4518:4708  (_user1.userOption == 1 && _user2.userOption == 2) ||... */\n      dup1\n      tag_103\n      jumpi\n      pop\n        /* \"Practical2-RockPaperScissors-Jason.sol\":4659:4676  _user1.userOption */\n      sload(0x01)\n        /* \"Practical2-RockPaperScissors-Jason.sol\":4680:4681  2 */\n      0x02\n        /* \"Practical2-RockPaperScissors-Jason.sol\":4659:4681  _user1.userOption == 2 */\n      eq\n        /* \"Practical2-RockPaperScissors-Jason.sol\":4659:4707  _user1.userOption == 2 && _user2.userOption == 3 */\n      dup1\n      iszero\n      tag_103\n      jumpi\n      pop\n        /* \"Practical2-RockPaperScissors-Jason.sol\":4685:4702  _user2.userOption */\n      0x03\n      dup1\n      sload\n        /* \"Practical2-RockPaperScissors-Jason.sol\":4685:4707  _user2.userOption == 3 */\n      eq\n        /* \"Practical2-RockPaperScissors-Jason.sol\":4659:4707  _user1.userOption == 2 && _user2.userOption == 3 */\n    tag_103:\n        /* \"Practical2-RockPaperScissors-Jason.sol\":4497:5191  if (... */\n      iszero\n      tag_104\n      jumpi\n        /* \"Practical2-RockPaperScissors-Jason.sol\":4741:4778  newGameinfo.finalResult = \"User2 win\" */\n      0x40\n      dup1\n      mload\n      dup1\n      dup3\n      add\n      dup3\n      mstore\n      0x09\n      dup2\n      mstore\n      shl(0xb9, 0x2ab9b2b919103bb4b7)\n      0x20\n      dup3\n      add\n      mstore\n        /* \"Practical2-RockPaperScissors-Jason.sol\":4741:4764  newGameinfo.finalResult */\n      dup3\n      dup3\n      add\n        /* \"Practical2-RockPaperScissors-Jason.sol\":4741:4778  newGameinfo.finalResult = \"User2 win\" */\n      mstore\n        /* \"Practical2-RockPaperScissors-Jason.sol\":4801:4824  showResult(\"User2 win\") */\n      mload\n      0xcde5c32c0a45fd8aa4b65ea8003fc9da9acd5e2c6c24a9fcce6ab79cabbd9122\n      swap1\n      tag_93\n      swap1\n        /* \"#utility.yul\":8462:8464   */\n      0x20\n        /* \"#utility.yul\":8444:8465   */\n      dup1\n      dup3\n      mstore\n        /* \"#utility.yul\":8501:8502   */\n      0x09\n        /* \"#utility.yul\":8481:8499   */\n      swap1\n      dup3\n      add\n        /* \"#utility.yul\":8474:8503   */\n      mstore\n      shl(0xb9, 0x2ab9b2b919103bb4b7)\n        /* \"#utility.yul\":8534:8536   */\n      0x40\n        /* \"#utility.yul\":8519:8537   */\n      dup3\n      add\n        /* \"#utility.yul\":8512:8551   */\n      mstore\n        /* \"#utility.yul\":8583:8585   */\n      0x60\n        /* \"#utility.yul\":8568:8586   */\n      add\n      swap1\n        /* \"#utility.yul\":8260:8592   */\n      jump\n        /* \"Practical2-RockPaperScissors-Jason.sol\":4497:5191  if (... */\n    tag_104:\n        /* \"Practical2-RockPaperScissors-Jason.sol\":4978:5015  newGameinfo.finalResult = \"User1 win\" */\n      0x40\n      dup1\n      mload\n      dup1\n      dup3\n      add\n      dup3\n      mstore\n      0x09\n      dup2\n      mstore\n      shl(0xb9, 0x2ab9b2b918903bb4b7)\n      0x20\n      dup3\n      add\n      mstore\n        /* \"Practical2-RockPaperScissors-Jason.sol\":4978:5001  newGameinfo.finalResult */\n      dup3\n      dup3\n      add\n        /* \"Practical2-RockPaperScissors-Jason.sol\":4978:5015  newGameinfo.finalResult = \"User1 win\" */\n      mstore\n        /* \"Practical2-RockPaperScissors-Jason.sol\":5038:5061  showResult(\"User1 win\") */\n      mload\n      0xcde5c32c0a45fd8aa4b65ea8003fc9da9acd5e2c6c24a9fcce6ab79cabbd9122\n      swap1\n      tag_93\n      swap1\n        /* \"#utility.yul\":8799:8801   */\n      0x20\n        /* \"#utility.yul\":8781:8802   */\n      dup1\n      dup3\n      mstore\n        /* \"#utility.yul\":8838:8839   */\n      0x09\n        /* \"#utility.yul\":8818:8836   */\n      swap1\n      dup3\n      add\n        /* \"#utility.yul\":8811:8840   */\n      mstore\n      shl(0xb9, 0x2ab9b2b918903bb4b7)\n        /* \"#utility.yul\":8871:8873   */\n      0x40\n        /* \"#utility.yul\":8856:8874   */\n      dup3\n      add\n        /* \"#utility.yul\":8849:8888   */\n      mstore\n        /* \"#utility.yul\":8920:8922   */\n      0x60\n        /* \"#utility.yul\":8905:8923   */\n      add\n      swap1\n        /* \"#utility.yul\":8597:8929   */\n      jump\n        /* \"#utility.yul\":376:1090   */\n    tag_118:\n        /* \"#utility.yul\":445:490   */\n      tag_127\n        /* \"#utility.yul\":486:489   */\n      dup3\n        /* \"#utility.yul\":478:483   */\n      dup3\n        /* \"#utility.yul\":472:484   */\n      mload\n        /* \"#utility.yul\":274:286   */\n      dup1\n      mload\n      sub(shl(0xa0, 0x01), 0x01)\n        /* \"#utility.yul\":270:308   */\n      and\n        /* \"#utility.yul\":258:309   */\n      dup3\n      mstore\n        /* \"#utility.yul\":358:362   */\n      0x20\n        /* \"#utility.yul\":347:363   */\n      swap1\n      dup2\n      add\n        /* \"#utility.yul\":341:364   */\n      mload\n        /* \"#utility.yul\":325:339   */\n      swap2\n      add\n        /* \"#utility.yul\":318:365   */\n      mstore\n        /* \"#utility.yul\":196:371   */\n      jump\n        /* \"#utility.yul\":445:490   */\n    tag_127:\n        /* \"#utility.yul\":427:430   */\n      0x00\n        /* \"#utility.yul\":509:513   */\n      0x20\n        /* \"#utility.yul\":559:561   */\n      dup1\n        /* \"#utility.yul\":552:557   */\n      dup4\n        /* \"#utility.yul\":548:562   */\n      add\n        /* \"#utility.yul\":542:563   */\n      mload\n        /* \"#utility.yul\":572:628   */\n      tag_128\n        /* \"#utility.yul\":622:626   */\n      0x40\n        /* \"#utility.yul\":617:620   */\n      dup7\n        /* \"#utility.yul\":613:627   */\n      add\n        /* \"#utility.yul\":599:611   */\n      dup3\n        /* \"#utility.yul\":274:286   */\n      dup1\n      mload\n      sub(shl(0xa0, 0x01), 0x01)\n        /* \"#utility.yul\":270:308   */\n      and\n        /* \"#utility.yul\":258:309   */\n      dup3\n      mstore\n        /* \"#utility.yul\":358:362   */\n      0x20\n        /* \"#utility.yul\":347:363   */\n      swap1\n      dup2\n      add\n        /* \"#utility.yul\":341:364   */\n      mload\n        /* \"#utility.yul\":325:339   */\n      swap2\n      add\n        /* \"#utility.yul\":318:365   */\n      mstore\n        /* \"#utility.yul\":196:371   */\n      jump\n        /* \"#utility.yul\":572:628   */\n    tag_128:\n      pop\n        /* \"#utility.yul\":676:680   */\n      0x40\n        /* \"#utility.yul\":669:674   */\n      dup4\n        /* \"#utility.yul\":665:681   */\n      add\n        /* \"#utility.yul\":659:682   */\n      mload\n        /* \"#utility.yul\":714:718   */\n      0xa0\n        /* \"#utility.yul\":707:711   */\n      0x80\n        /* \"#utility.yul\":702:705   */\n      dup7\n        /* \"#utility.yul\":698:712   */\n      add\n        /* \"#utility.yul\":691:719   */\n      mstore\n        /* \"#utility.yul\":748:762   */\n      dup1\n        /* \"#utility.yul\":742:763   */\n      mload\n        /* \"#utility.yul\":795:801   */\n      dup1\n        /* \"#utility.yul\":788:792   */\n      0xa0\n        /* \"#utility.yul\":783:786   */\n      dup8\n        /* \"#utility.yul\":779:793   */\n      add\n        /* \"#utility.yul\":772:802   */\n      mstore\n        /* \"#utility.yul\":820:821   */\n      0x00\n        /* \"#utility.yul\":830:973   */\n    tag_129:\n        /* \"#utility.yul\":844:850   */\n      dup2\n        /* \"#utility.yul\":841:842   */\n      dup2\n        /* \"#utility.yul\":838:851   */\n      lt\n        /* \"#utility.yul\":830:973   */\n      iszero\n      tag_131\n      jumpi\n        /* \"#utility.yul\":934:956   */\n      dup3\n      dup2\n      add\n        /* \"#utility.yul\":930:961   */\n      dup5\n      add\n        /* \"#utility.yul\":924:962   */\n      mload\n        /* \"#utility.yul\":905:916   */\n      dup8\n      dup3\n      add\n        /* \"#utility.yul\":918:921   */\n      0xc0\n        /* \"#utility.yul\":901:922   */\n      add\n        /* \"#utility.yul\":894:963   */\n      mstore\n        /* \"#utility.yul\":859:869   */\n      dup4\n      add\n        /* \"#utility.yul\":830:973   */\n      jump(tag_129)\n    tag_131:\n        /* \"#utility.yul\":834:837   */\n      pop\n        /* \"#utility.yul\":1017:1018   */\n      0x00\n        /* \"#utility.yul\":1011:1014   */\n      0xc0\n        /* \"#utility.yul\":1002:1008   */\n      dup3\n        /* \"#utility.yul\":997:1000   */\n      dup9\n        /* \"#utility.yul\":993:1009   */\n      add\n        /* \"#utility.yul\":989:1015   */\n      add\n        /* \"#utility.yul\":982:1019   */\n      mstore\n        /* \"#utility.yul\":1080:1083   */\n      0xc0\n        /* \"#utility.yul\":1073:1075   */\n      0x1f\n        /* \"#utility.yul\":1069:1076   */\n      not\n        /* \"#utility.yul\":1064:1066   */\n      0x1f\n        /* \"#utility.yul\":1056:1062   */\n      dup4\n        /* \"#utility.yul\":1052:1067   */\n      add\n        /* \"#utility.yul\":1048:1077   */\n      and\n        /* \"#utility.yul\":1043:1046   */\n      dup8\n        /* \"#utility.yul\":1039:1078   */\n      add\n        /* \"#utility.yul\":1035:1084   */\n      add\n        /* \"#utility.yul\":1028:1084   */\n      swap4\n      pop\n      pop\n      pop\n      pop\n        /* \"#utility.yul\":376:1090   */\n      swap3\n      swap2\n      pop\n      pop\n      jump\t// out\n        /* \"#utility.yul\":1095:1935   */\n    tag_21:\n        /* \"#utility.yul\":1285:1289   */\n      0x00\n        /* \"#utility.yul\":1314:1316   */\n      0x20\n        /* \"#utility.yul\":1354:1356   */\n      dup1\n        /* \"#utility.yul\":1343:1352   */\n      dup4\n        /* \"#utility.yul\":1339:1357   */\n      add\n        /* \"#utility.yul\":1384:1386   */\n      dup2\n        /* \"#utility.yul\":1373:1382   */\n      dup5\n        /* \"#utility.yul\":1366:1387   */\n      mstore\n        /* \"#utility.yul\":1407:1413   */\n      dup1\n        /* \"#utility.yul\":1442:1448   */\n      dup6\n        /* \"#utility.yul\":1436:1449   */\n      mload\n        /* \"#utility.yul\":1473:1479   */\n      dup1\n        /* \"#utility.yul\":1465:1471   */\n      dup4\n        /* \"#utility.yul\":1458:1480   */\n      mstore\n        /* \"#utility.yul\":1511:1513   */\n      0x40\n        /* \"#utility.yul\":1500:1509   */\n      dup7\n        /* \"#utility.yul\":1496:1514   */\n      add\n        /* \"#utility.yul\":1489:1514   */\n      swap2\n      pop\n        /* \"#utility.yul\":1573:1575   */\n      0x40\n        /* \"#utility.yul\":1563:1569   */\n      dup2\n        /* \"#utility.yul\":1560:1561   */\n      0x05\n        /* \"#utility.yul\":1556:1570   */\n      shl\n        /* \"#utility.yul\":1545:1554   */\n      dup8\n        /* \"#utility.yul\":1541:1571   */\n      add\n        /* \"#utility.yul\":1537:1576   */\n      add\n        /* \"#utility.yul\":1523:1576   */\n      swap3\n      pop\n        /* \"#utility.yul\":1611:1613   */\n      dup4\n        /* \"#utility.yul\":1603:1609   */\n      dup8\n        /* \"#utility.yul\":1599:1614   */\n      add\n        /* \"#utility.yul\":1632:1633   */\n      0x00\n        /* \"#utility.yul\":1642:1906   */\n    tag_133:\n        /* \"#utility.yul\":1656:1662   */\n      dup3\n        /* \"#utility.yul\":1653:1654   */\n      dup2\n        /* \"#utility.yul\":1650:1663   */\n      lt\n        /* \"#utility.yul\":1642:1906   */\n      iszero\n      tag_135\n      jumpi\n        /* \"#utility.yul\":1749:1751   */\n      0x3f\n        /* \"#utility.yul\":1745:1752   */\n      not\n        /* \"#utility.yul\":1733:1742   */\n      dup9\n        /* \"#utility.yul\":1725:1731   */\n      dup7\n        /* \"#utility.yul\":1721:1743   */\n      sub\n        /* \"#utility.yul\":1717:1753   */\n      add\n        /* \"#utility.yul\":1712:1715   */\n      dup5\n        /* \"#utility.yul\":1705:1754   */\n      mstore\n        /* \"#utility.yul\":1777:1826   */\n      tag_136\n        /* \"#utility.yul\":1819:1825   */\n      dup6\n        /* \"#utility.yul\":1810:1816   */\n      dup4\n        /* \"#utility.yul\":1804:1817   */\n      mload\n        /* \"#utility.yul\":1777:1826   */\n      tag_118\n      jump\t// in\n    tag_136:\n        /* \"#utility.yul\":1767:1826   */\n      swap5\n      pop\n        /* \"#utility.yul\":1884:1896   */\n      swap3\n      dup6\n      add\n      swap3\n        /* \"#utility.yul\":1849:1864   */\n      swap1\n      dup6\n      add\n      swap1\n        /* \"#utility.yul\":1678:1679   */\n      0x01\n        /* \"#utility.yul\":1671:1680   */\n      add\n        /* \"#utility.yul\":1642:1906   */\n      jump(tag_133)\n    tag_135:\n      pop\n        /* \"#utility.yul\":1923:1929   */\n      swap3\n      swap8\n        /* \"#utility.yul\":1095:1935   */\n      swap7\n      pop\n      pop\n      pop\n      pop\n      pop\n      pop\n      pop\n      jump\t// out\n        /* \"#utility.yul\":1940:2120   */\n    tag_24:\n        /* \"#utility.yul\":1999:2005   */\n      0x00\n        /* \"#utility.yul\":2052:2054   */\n      0x20\n        /* \"#utility.yul\":2040:2049   */\n      dup3\n        /* \"#utility.yul\":2031:2038   */\n      dup5\n        /* \"#utility.yul\":2027:2050   */\n      sub\n        /* \"#utility.yul\":2023:2055   */\n      slt\n        /* \"#utility.yul\":2020:2072   */\n      iszero\n      tag_138\n      jumpi\n        /* \"#utility.yul\":2068:2069   */\n      0x00\n        /* \"#utility.yul\":2065:2066   */\n      dup1\n        /* \"#utility.yul\":2058:2070   */\n      revert\n        /* \"#utility.yul\":2020:2072   */\n    tag_138:\n      pop\n        /* \"#utility.yul\":2091:2114   */\n      calldataload\n      swap2\n        /* \"#utility.yul\":1940:2120   */\n      swap1\n      pop\n      jump\t// out\n        /* \"#utility.yul\":2404:2661   */\n    tag_37:\n        /* \"#utility.yul\":2581:2583   */\n      0x20\n        /* \"#utility.yul\":2570:2579   */\n      dup2\n        /* \"#utility.yul\":2563:2584   */\n      mstore\n        /* \"#utility.yul\":2544:2548   */\n      0x00\n        /* \"#utility.yul\":2601:2655   */\n      tag_141\n        /* \"#utility.yul\":2651:2653   */\n      0x20\n        /* \"#utility.yul\":2640:2649   */\n      dup4\n        /* \"#utility.yul\":2636:2654   */\n      add\n        /* \"#utility.yul\":2628:2634   */\n      dup5\n        /* \"#utility.yul\":2601:2655   */\n      tag_118\n      jump\t// in\n    tag_141:\n        /* \"#utility.yul\":2593:2655   */\n      swap4\n        /* \"#utility.yul\":2404:2661   */\n      swap3\n      pop\n      pop\n      pop\n      jump\t// out\n        /* \"#utility.yul\":2666:3046   */\n    tag_43:\n        /* \"#utility.yul\":2745:2746   */\n      0x01\n        /* \"#utility.yul\":2741:2753   */\n      dup2\n      dup2\n      shr\n      swap1\n        /* \"#utility.yul\":2788:2800   */\n      dup3\n      and\n      dup1\n        /* \"#utility.yul\":2809:2870   */\n      tag_143\n      jumpi\n        /* \"#utility.yul\":2863:2867   */\n      0x7f\n        /* \"#utility.yul\":2855:2861   */\n      dup3\n        /* \"#utility.yul\":2851:2868   */\n      and\n        /* \"#utility.yul\":2841:2868   */\n      swap2\n      pop\n        /* \"#utility.yul\":2809:2870   */\n    tag_143:\n        /* \"#utility.yul\":2916:2918   */\n      0x20\n        /* \"#utility.yul\":2908:2914   */\n      dup3\n        /* \"#utility.yul\":2905:2919   */\n      lt\n        /* \"#utility.yul\":2885:2903   */\n      dup2\n        /* \"#utility.yul\":2882:2920   */\n      sub\n        /* \"#utility.yul\":2879:3040   */\n      tag_144\n      jumpi\n        /* \"#utility.yul\":2962:2972   */\n      0x4e487b71\n        /* \"#utility.yul\":2957:2960   */\n      0xe0\n        /* \"#utility.yul\":2953:2973   */\n      shl\n        /* \"#utility.yul\":2950:2951   */\n      0x00\n        /* \"#utility.yul\":2943:2974   */\n      mstore\n        /* \"#utility.yul\":2997:3001   */\n      0x22\n        /* \"#utility.yul\":2994:2995   */\n      0x04\n        /* \"#utility.yul\":2987:3002   */\n      mstore\n        /* \"#utility.yul\":3025:3029   */\n      0x24\n        /* \"#utility.yul\":3022:3023   */\n      0x00\n        /* \"#utility.yul\":3015:3030   */\n      revert\n        /* \"#utility.yul\":2879:3040   */\n    tag_144:\n      pop\n        /* \"#utility.yul\":2666:3046   */\n      swap2\n      swap1\n      pop\n      jump\t// out\n        /* \"#utility.yul\":4109:4341   */\n    tag_61:\n        /* \"#utility.yul\":4148:4151   */\n      0x00\n        /* \"#utility.yul\":4169:4186   */\n      0x01\n      dup3\n      add\n        /* \"#utility.yul\":4166:4306   */\n      tag_149\n      jumpi\n        /* \"#utility.yul\":4228:4238   */\n      0x4e487b71\n        /* \"#utility.yul\":4223:4226   */\n      0xe0\n        /* \"#utility.yul\":4219:4239   */\n      shl\n        /* \"#utility.yul\":4216:4217   */\n      0x00\n        /* \"#utility.yul\":4209:4240   */\n      mstore\n        /* \"#utility.yul\":4263:4267   */\n      0x11\n        /* \"#utility.yul\":4260:4261   */\n      0x04\n        /* \"#utility.yul\":4253:4268   */\n      mstore\n        /* \"#utility.yul\":4291:4295   */\n      0x24\n        /* \"#utility.yul\":4288:4289   */\n      0x00\n        /* \"#utility.yul\":4281:4296   */\n      revert\n        /* \"#utility.yul\":4166:4306   */\n    tag_149:\n      pop\n        /* \"#utility.yul\":4333:4334   */\n      0x01\n        /* \"#utility.yul\":4322:4335   */\n      add\n      swap1\n        /* \"#utility.yul\":4109:4341   */\n      jump\t// out\n        /* \"#utility.yul\":5101:5228   */\n    tag_77:\n        /* \"#utility.yul\":5162:5172   */\n      0x4e487b71\n        /* \"#utility.yul\":5157:5160   */\n      0xe0\n        /* \"#utility.yul\":5153:5173   */\n      shl\n        /* \"#utility.yul\":5150:5151   */\n      0x00\n        /* \"#utility.yul\":5143:5174   */\n      mstore\n        /* \"#utility.yul\":5193:5197   */\n      0x32\n        /* \"#utility.yul\":5190:5191   */\n      0x04\n        /* \"#utility.yul\":5183:5198   */\n      mstore\n        /* \"#utility.yul\":5217:5221   */\n      0x24\n        /* \"#utility.yul\":5214:5215   */\n      0x00\n        /* \"#utility.yul\":5207:5222   */\n      revert\n        /* \"#utility.yul\":5924:6051   */\n    tag_119:\n        /* \"#utility.yul\":5985:5995   */\n      0x4e487b71\n        /* \"#utility.yul\":5980:5983   */\n      0xe0\n        /* \"#utility.yul\":5976:5996   */\n      shl\n        /* \"#utility.yul\":5973:5974   */\n      0x00\n        /* \"#utility.yul\":5966:5997   */\n      mstore\n        /* \"#utility.yul\":6016:6020   */\n      0x41\n        /* \"#utility.yul\":6013:6014   */\n      0x04\n        /* \"#utility.yul\":6006:6021   */\n      mstore\n        /* \"#utility.yul\":6040:6044   */\n      0x24\n        /* \"#utility.yul\":6037:6038   */\n      0x00\n        /* \"#utility.yul\":6030:6045   */\n      revert\n        /* \"#utility.yul\":6182:6727   */\n    tag_121:\n        /* \"#utility.yul\":6284:6286   */\n      0x1f\n        /* \"#utility.yul\":6279:6282   */\n      dup3\n        /* \"#utility.yul\":6276:6287   */\n      gt\n        /* \"#utility.yul\":6273:6721   */\n      iszero\n      tag_158\n      jumpi\n        /* \"#utility.yul\":6320:6321   */\n      0x00\n        /* \"#utility.yul\":6345:6350   */\n      dup2\n        /* \"#utility.yul\":6341:6343   */\n      dup2\n        /* \"#utility.yul\":6334:6351   */\n      mstore\n        /* \"#utility.yul\":6390:6394   */\n      0x20\n        /* \"#utility.yul\":6386:6388   */\n      dup2\n        /* \"#utility.yul\":6376:6395   */\n      keccak256\n        /* \"#utility.yul\":6460:6462   */\n      0x1f\n        /* \"#utility.yul\":6448:6458   */\n      dup6\n        /* \"#utility.yul\":6444:6463   */\n      add\n        /* \"#utility.yul\":6441:6442   */\n      0x05\n        /* \"#utility.yul\":6437:6464   */\n      shr\n        /* \"#utility.yul\":6431:6435   */\n      dup2\n        /* \"#utility.yul\":6427:6465   */\n      add\n        /* \"#utility.yul\":6496:6500   */\n      0x20\n        /* \"#utility.yul\":6484:6494   */\n      dup7\n        /* \"#utility.yul\":6481:6501   */\n      lt\n        /* \"#utility.yul\":6478:6525   */\n      iszero\n      tag_159\n      jumpi\n      pop\n        /* \"#utility.yul\":6519:6523   */\n      dup1\n        /* \"#utility.yul\":6478:6525   */\n    tag_159:\n        /* \"#utility.yul\":6574:6576   */\n      0x1f\n        /* \"#utility.yul\":6569:6572   */\n      dup6\n        /* \"#utility.yul\":6565:6577   */\n      add\n        /* \"#utility.yul\":6562:6563   */\n      0x05\n        /* \"#utility.yul\":6558:6578   */\n      shr\n        /* \"#utility.yul\":6552:6556   */\n      dup3\n        /* \"#utility.yul\":6548:6579   */\n      add\n        /* \"#utility.yul\":6538:6579   */\n      swap2\n      pop\n        /* \"#utility.yul\":6629:6711   */\n    tag_160:\n        /* \"#utility.yul\":6647:6649   */\n      dup2\n        /* \"#utility.yul\":6640:6645   */\n      dup2\n        /* \"#utility.yul\":6637:6650   */\n      lt\n        /* \"#utility.yul\":6629:6711   */\n      iszero\n      tag_162\n      jumpi\n        /* \"#utility.yul\":6692:6709   */\n      dup3\n      dup2\n      sstore\n        /* \"#utility.yul\":6673:6674   */\n      0x01\n        /* \"#utility.yul\":6662:6675   */\n      add\n        /* \"#utility.yul\":6629:6711   */\n      jump(tag_160)\n    tag_162:\n        /* \"#utility.yul\":6633:6636   */\n      pop\n      pop\n      pop\n        /* \"#utility.yul\":6273:6721   */\n    tag_158:\n        /* \"#utility.yul\":6182:6727   */\n      pop\n      pop\n      pop\n      jump\t// out\n        /* \"#utility.yul\":6903:8255   */\n    tag_97:\n        /* \"#utility.yul\":7029:7032   */\n      dup2\n        /* \"#utility.yul\":7023:7033   */\n      mload\n        /* \"#utility.yul\":7056:7074   */\n      0xffffffffffffffff\n        /* \"#utility.yul\":7048:7054   */\n      dup2\n        /* \"#utility.yul\":7045:7075   */\n      gt\n        /* \"#utility.yul\":7042:7098   */\n      iszero\n      tag_166\n      jumpi\n        /* \"#utility.yul\":7078:7096   */\n      tag_166\n      tag_119\n      jump\t// in\n    tag_166:\n        /* \"#utility.yul\":7107:7204   */\n      tag_167\n        /* \"#utility.yul\":7197:7203   */\n      dup2\n        /* \"#utility.yul\":7157:7195   */\n      tag_168\n        /* \"#utility.yul\":7189:7193   */\n      dup5\n        /* \"#utility.yul\":7183:7194   */\n      sload\n        /* \"#utility.yul\":7157:7195   */\n      tag_43\n      jump\t// in\n    tag_168:\n        /* \"#utility.yul\":7151:7155   */\n      dup5\n        /* \"#utility.yul\":7107:7204   */\n      tag_121\n      jump\t// in\n    tag_167:\n        /* \"#utility.yul\":7259:7263   */\n      0x20\n      dup1\n        /* \"#utility.yul\":7323:7325   */\n      0x1f\n        /* \"#utility.yul\":7312:7326   */\n      dup4\n      gt\n        /* \"#utility.yul\":7340:7341   */\n      0x01\n        /* \"#utility.yul\":7335:7998   */\n      dup2\n      eq\n      tag_170\n      jumpi\n        /* \"#utility.yul\":8042:8043   */\n      0x00\n        /* \"#utility.yul\":8059:8065   */\n      dup5\n        /* \"#utility.yul\":8056:8145   */\n      iszero\n      tag_171\n      jumpi\n      pop\n        /* \"#utility.yul\":8111:8130   */\n      dup6\n      dup4\n      add\n        /* \"#utility.yul\":8105:8131   */\n      mload\n        /* \"#utility.yul\":8056:8145   */\n    tag_171:\n      not(0x00)\n        /* \"#utility.yul\":6860:6861   */\n      0x03\n        /* \"#utility.yul\":6856:6867   */\n      dup7\n      swap1\n      shl\n        /* \"#utility.yul\":6852:6876   */\n      shr\n        /* \"#utility.yul\":6848:6877   */\n      not\n        /* \"#utility.yul\":6838:6878   */\n      and\n        /* \"#utility.yul\":6884:6885   */\n      0x01\n        /* \"#utility.yul\":6880:6891   */\n      dup6\n      swap1\n      shl\n        /* \"#utility.yul\":6835:6892   */\n      or\n        /* \"#utility.yul\":8158:8239   */\n      dup6\n      sstore\n        /* \"#utility.yul\":7305:8249   */\n      jump(tag_162)\n        /* \"#utility.yul\":7335:7998   */\n    tag_170:\n        /* \"#utility.yul\":6129:6130   */\n      0x00\n        /* \"#utility.yul\":6122:6136   */\n      dup6\n      dup2\n      mstore\n        /* \"#utility.yul\":6166:6170   */\n      0x20\n        /* \"#utility.yul\":6153:6171   */\n      dup2\n      keccak256\n      not(0x1f)\n        /* \"#utility.yul\":7371:7391   */\n      dup7\n      and\n      swap2\n        /* \"#utility.yul\":7489:7725   */\n    tag_174:\n        /* \"#utility.yul\":7503:7510   */\n      dup3\n        /* \"#utility.yul\":7500:7501   */\n      dup2\n        /* \"#utility.yul\":7497:7511   */\n      lt\n        /* \"#utility.yul\":7489:7725   */\n      iszero\n      tag_176\n      jumpi\n        /* \"#utility.yul\":7592:7611   */\n      dup9\n      dup7\n      add\n        /* \"#utility.yul\":7586:7612   */\n      mload\n        /* \"#utility.yul\":7571:7613   */\n      dup3\n      sstore\n        /* \"#utility.yul\":7684:7711   */\n      swap5\n      dup5\n      add\n      swap5\n        /* \"#utility.yul\":7652:7653   */\n      0x01\n        /* \"#utility.yul\":7640:7654   */\n      swap1\n      swap2\n      add\n      swap1\n        /* \"#utility.yul\":7519:7538   */\n      dup5\n      add\n        /* \"#utility.yul\":7489:7725   */\n      jump(tag_174)\n    tag_176:\n        /* \"#utility.yul\":7493:7496   */\n      pop\n        /* \"#utility.yul\":7753:7759   */\n      dup6\n        /* \"#utility.yul\":7744:7751   */\n      dup3\n        /* \"#utility.yul\":7741:7760   */\n      lt\n        /* \"#utility.yul\":7738:7939   */\n      iszero\n      tag_177\n      jumpi\n        /* \"#utility.yul\":7814:7833   */\n      dup8\n      dup6\n      add\n        /* \"#utility.yul\":7808:7834   */\n      mload\n      not(0x00)\n        /* \"#utility.yul\":7897:7898   */\n      0x03\n        /* \"#utility.yul\":7893:7907   */\n      dup9\n      swap1\n      shl\n        /* \"#utility.yul\":7909:7912   */\n      0xf8\n        /* \"#utility.yul\":7889:7913   */\n      and\n        /* \"#utility.yul\":7885:7922   */\n      shr\n        /* \"#utility.yul\":7881:7923   */\n      not\n        /* \"#utility.yul\":7866:7924   */\n      and\n        /* \"#utility.yul\":7851:7925   */\n      dup2\n      sstore\n        /* \"#utility.yul\":7738:7939   */\n    tag_177:\n      pop\n      pop\n      pop\n      pop\n      pop\n        /* \"#utility.yul\":7985:7986   */\n      0x01\n        /* \"#utility.yul\":7969:7983   */\n      swap1\n      dup2\n      shl\n        /* \"#utility.yul\":7965:7987   */\n      add\n        /* \"#utility.yul\":7952:7988   */\n      swap1\n      sstore\n      pop\n        /* \"#utility.yul\":6903:8255   */\n      jump\t// out\n\n    auxdata: 0xa2646970667358221220e93aa3762d3dd97e0106b099c82c3934afe5aa5d54c411cd5488801bfff5be2964736f6c63430008130033\n}\n",
				"bytecode": {
					"linkReferences": {},
					"object": "6080604052600060045534801561001557600080fd5b50610cd8806100256000396000f3fe608060405234801561001057600080fd5b506004361061007d5760003560e01c80636898f82b1161005b5780636898f82b146100bc5780636abd915e146100d1578063afcf543314610107578063f7c4efbb1461011e57600080fd5b806307973ccf146100825780634d1975b41461009e578063512ec557146100a7575b600080fd5b61008b60045481565b6040519081526020015b60405180910390f35b61008b60075481565b6100af61013e565b6040516100959190610a71565b6100cf6100ca366004610ad3565b610277565b005b6000546001546100e8916001600160a01b03169082565b604080516001600160a01b039093168352602083019190915201610095565b6002546003546100e8916001600160a01b03169082565b61013161012c366004610ad3565b610499565b6040516100959190610aec565b60606005805480602002602001604051908101604052809291908181526020016000905b8282101561026e5760008481526020908190206040805160a0810182526005860290920180546001600160a01b0390811660608501908152600183015460808601528452825180840184526002830154909116815260038201548186015293830193909352600483018054929392918401916101dd90610b06565b80601f016020809104026020016040519081016040528092919081815260200182805461020990610b06565b80156102565780601f1061022b57610100808354040283529160200191610256565b820191906000526020600020905b81548152906001019060200180831161023957829003601f168201915b50505050508152505081526020019060010190610162565b50505050905090565b60065460ff16156102c75760405162461bcd60e51b8152602060048201526015602482015274115c9c9bdc8e881499595b9d1c985b9d0818d85b1b605a1b60448201526064015b60405180910390fd5b6006805460ff1916600117905560405133907f6fd5bea3ad79492c3055c6f6b7b37ca66d63ba4ceef7d04dd901559affbe971a90600090a2806000036103465760405162461bcd60e51b815260206004820152601460248201527304572726f723a2043616e277420696e70757420360641b60448201526064016102be565b60038111156103975760405162461bcd60e51b815260206004820152601e60248201527f4572726f723a2043616e277420696e707574206d6f7265207468616e2033000060448201526064016102be565b6004546000036103d057600080546001600160a01b03191633178155600182905560048054916103c683610b40565b919050555061048c565b6000546001600160a01b031633036104365760405162461bcd60e51b8152602060048201526024808201527f4572726f723a20596f752063616e6e6f7420706c6179207769746820796f757260448201526339b2b63360e11b60648201526084016102be565b600280546001600160a01b0319163317905560038190556004805490600061045d83610b40565b919050555061046a6106b9565b6000600481905580546001600160a01b03199081169091556002805490911690555b506006805460ff19169055565b6040805160a081018252600060608083018281526080840183905283528351808501855282815260208082019390935291830191909152918101919091526005548211156105215760405162461bcd60e51b815260206004820152601560248201527408ae4e4dee4744092dcecc2d8d2c840d8cadccee8d605b1b60448201526064016102be565b60006001600160a01b03166005838154811061053f5761053f610b67565b60009182526020909120600260059092020101546001600160a01b0316146105a95760405162461bcd60e51b815260206004820152601e60248201527f4572726f723a205468652067616d65206e6f742066696e69736820796574000060448201526064016102be565b600582815481106105bc576105bc610b67565b60009182526020918290206040805160a081018252600590930290910180546001600160a01b03908116606085019081526001830154608086015284528251808401845260028301549091168152600382015481860152938301939093526004830180549293929184019161063090610b06565b80601f016020809104026020016040519081016040528092919081815260200182805461065c90610b06565b80156106a95780601f1061067e576101008083540402835291602001916106a9565b820191906000526020600020905b81548152906001019060200180831161068c57829003601f168201915b5050505050815250509050919050565b6040805160a0810182526000606080830182815260808401839052835283518085018552828152602080820184905280850191825294840191909152905482516001600160a01b039182169052600154835185018190526002548351921690915260035491519093018190529091036108b0576040805180820182526004815263151a595960e21b602082015282820152517fcde5c32c0a45fd8aa4b65ea8003fc9da9acd5e2c6c24a9fcce6ab79cabbd91229061078f90602080825260049082015263151a595960e21b604082015260600190565b60405180910390a1600580546001810182556000829052825180517f036b6384b5eca791c62761152d0c79bb0604c104a5fb6f4eb0703f3154bb3db09290930291820180546001600160a01b03199081166001600160a01b039586161782556020928301517f036b6384b5eca791c62761152d0c79bb0604c104a5fb6f4eb0703f3154bb3db18501558286015180517f036b6384b5eca791c62761152d0c79bb0604c104a5fb6f4eb0703f3154bb3db28601805490931696169590951790559201517f036b6384b5eca791c62761152d0c79bb0604c104a5fb6f4eb0703f3154bb3db382015560408301518392917f036b6384b5eca791c62761152d0c79bb0604c104a5fb6f4eb0703f3154bb3db401906108aa9082610be2565b50505050565b600180541480156108c357506003546002145b806108dd575060015460031480156108dd57506003546001145b806108f6575060015460021480156108f6575060038054145b156109685760408051808201825260098152682ab9b2b919103bb4b760b91b602082015282820152517fcde5c32c0a45fd8aa4b65ea8003fc9da9acd5e2c6c24a9fcce6ab79cabbd91229061078f906020808252600990820152682ab9b2b919103bb4b760b91b604082015260600190565b60408051808201825260098152682ab9b2b918903bb4b760b91b602082015282820152517fcde5c32c0a45fd8aa4b65ea8003fc9da9acd5e2c6c24a9fcce6ab79cabbd91229061078f906020808252600990820152682ab9b2b918903bb4b760b91b604082015260600190565b6109f382825180516001600160a01b03168252602090810151910152565b6000602080830151610a1b604086018280516001600160a01b03168252602090810151910152565b50604083015160a0608086015280518060a087015260005b81811015610a4f5782810184015187820160c001528301610a33565b50600060c0828801015260c0601f19601f830116870101935050505092915050565b6000602080830181845280855180835260408601915060408160051b870101925083870160005b82811015610ac657603f19888603018452610ab48583516109d5565b94509285019290850190600101610a98565b5092979650505050505050565b600060208284031215610ae557600080fd5b5035919050565b602081526000610aff60208301846109d5565b9392505050565b600181811c90821680610b1a57607f821691505b602082108103610b3a57634e487b7160e01b600052602260045260246000fd5b50919050565b600060018201610b6057634e487b7160e01b600052601160045260246000fd5b5060010190565b634e487b7160e01b600052603260045260246000fd5b634e487b7160e01b600052604160045260246000fd5b601f821115610bdd57600081815260208120601f850160051c81016020861015610bba5750805b601f850160051c820191505b81811015610bd957828155600101610bc6565b5050505b505050565b815167ffffffffffffffff811115610bfc57610bfc610b7d565b610c1081610c0a8454610b06565b84610b93565b602080601f831160018114610c455760008415610c2d5750858301515b600019600386901b1c1916600185901b178555610bd9565b600085815260208120601f198616915b82811015610c7457888601518255948401946001909101908401610c55565b5085821015610c925787850151600019600388901b60f8161c191681555b5050505050600190811b0190555056fea2646970667358221220e93aa3762d3dd97e0106b099c82c3934afe5aa5d54c411cd5488801bfff5be2964736f6c63430008130033",
					"opcodes": "PUSH1 0x80 PUSH1 0x40 MSTORE PUSH1 0x0 PUSH1 0x4 SSTORE CALLVALUE DUP1 ISZERO PUSH2 0x15 JUMPI PUSH1 0x0 DUP1 REVERT JUMPDEST POP PUSH2 0xCD8 DUP1 PUSH2 0x25 PUSH1 0x0 CODECOPY PUSH1 0x0 RETURN INVALID PUSH1 0x80 PUSH1 0x40 MSTORE CALLVALUE DUP1 ISZERO PUSH2 0x10 JUMPI PUSH1 0x0 DUP1 REVERT JUMPDEST POP PUSH1 0x4 CALLDATASIZE LT PUSH2 0x7D JUMPI PUSH1 0x0 CALLDATALOAD PUSH1 0xE0 SHR DUP1 PUSH4 0x6898F82B GT PUSH2 0x5B JUMPI DUP1 PUSH4 0x6898F82B EQ PUSH2 0xBC JUMPI DUP1 PUSH4 0x6ABD915E EQ PUSH2 0xD1 JUMPI DUP1 PUSH4 0xAFCF5433 EQ PUSH2 0x107 JUMPI DUP1 PUSH4 0xF7C4EFBB EQ PUSH2 0x11E JUMPI PUSH1 0x0 DUP1 REVERT JUMPDEST DUP1 PUSH4 0x7973CCF EQ PUSH2 0x82 JUMPI DUP1 PUSH4 0x4D1975B4 EQ PUSH2 0x9E JUMPI DUP1 PUSH4 0x512EC557 EQ PUSH2 0xA7 JUMPI JUMPDEST PUSH1 0x0 DUP1 REVERT JUMPDEST PUSH2 0x8B PUSH1 0x4 SLOAD DUP2 JUMP JUMPDEST PUSH1 0x40 MLOAD SWAP1 DUP2 MSTORE PUSH1 0x20 ADD JUMPDEST PUSH1 0x40 MLOAD DUP1 SWAP2 SUB SWAP1 RETURN JUMPDEST PUSH2 0x8B PUSH1 0x7 SLOAD DUP2 JUMP JUMPDEST PUSH2 0xAF PUSH2 0x13E JUMP JUMPDEST PUSH1 0x40 MLOAD PUSH2 0x95 SWAP2 SWAP1 PUSH2 0xA71 JUMP JUMPDEST PUSH2 0xCF PUSH2 0xCA CALLDATASIZE PUSH1 0x4 PUSH2 0xAD3 JUMP JUMPDEST PUSH2 0x277 JUMP JUMPDEST STOP JUMPDEST PUSH1 0x0 SLOAD PUSH1 0x1 SLOAD PUSH2 0xE8 SWAP2 PUSH1 0x1 PUSH1 0x1 PUSH1 0xA0 SHL SUB AND SWAP1 DUP3 JUMP JUMPDEST PUSH1 0x40 DUP1 MLOAD PUSH1 0x1 PUSH1 0x1 PUSH1 0xA0 SHL SUB SWAP1 SWAP4 AND DUP4 MSTORE PUSH1 0x20 DUP4 ADD SWAP2 SWAP1 SWAP2 MSTORE ADD PUSH2 0x95 JUMP JUMPDEST PUSH1 0x2 SLOAD PUSH1 0x3 SLOAD PUSH2 0xE8 SWAP2 PUSH1 0x1 PUSH1 0x1 PUSH1 0xA0 SHL SUB AND SWAP1 DUP3 JUMP JUMPDEST PUSH2 0x131 PUSH2 0x12C CALLDATASIZE PUSH1 0x4 PUSH2 0xAD3 JUMP JUMPDEST PUSH2 0x499 JUMP JUMPDEST PUSH1 0x40 MLOAD PUSH2 0x95 SWAP2 SWAP1 PUSH2 0xAEC JUMP JUMPDEST PUSH1 0x60 PUSH1 0x5 DUP1 SLOAD DUP1 PUSH1 0x20 MUL PUSH1 0x20 ADD PUSH1 0x40 MLOAD SWAP1 DUP2 ADD PUSH1 0x40 MSTORE DUP1 SWAP3 SWAP2 SWAP1 DUP2 DUP2 MSTORE PUSH1 0x20 ADD PUSH1 0x0 SWAP1 JUMPDEST DUP3 DUP3 LT ISZERO PUSH2 0x26E JUMPI PUSH1 0x0 DUP5 DUP2 MSTORE PUSH1 0x20 SWAP1 DUP2 SWAP1 KECCAK256 PUSH1 0x40 DUP1 MLOAD PUSH1 0xA0 DUP2 ADD DUP3 MSTORE PUSH1 0x5 DUP7 MUL SWAP1 SWAP3 ADD DUP1 SLOAD PUSH1 0x1 PUSH1 0x1 PUSH1 0xA0 SHL SUB SWAP1 DUP2 AND PUSH1 0x60 DUP6 ADD SWAP1 DUP2 MSTORE PUSH1 0x1 DUP4 ADD SLOAD PUSH1 0x80 DUP7 ADD MSTORE DUP5 MSTORE DUP3 MLOAD DUP1 DUP5 ADD DUP5 MSTORE PUSH1 0x2 DUP4 ADD SLOAD SWAP1 SWAP2 AND DUP2 MSTORE PUSH1 0x3 DUP3 ADD SLOAD DUP2 DUP7 ADD MSTORE SWAP4 DUP4 ADD SWAP4 SWAP1 SWAP4 MSTORE PUSH1 0x4 DUP4 ADD DUP1 SLOAD SWAP3 SWAP4 SWAP3 SWAP2 DUP5 ADD SWAP2 PUSH2 0x1DD SWAP1 PUSH2 0xB06 JUMP JUMPDEST DUP1 PUSH1 0x1F ADD PUSH1 0x20 DUP1 SWAP2 DIV MUL PUSH1 0x20 ADD PUSH1 0x40 MLOAD SWAP1 DUP2 ADD PUSH1 0x40 MSTORE DUP1 SWAP3 SWAP2 SWAP1 DUP2 DUP2 MSTORE PUSH1 0x20 ADD DUP3 DUP1 SLOAD PUSH2 0x209 SWAP1 PUSH2 0xB06 JUMP JUMPDEST DUP1 ISZERO PUSH2 0x256 JUMPI DUP1 PUSH1 0x1F LT PUSH2 0x22B JUMPI PUSH2 0x100 DUP1 DUP4 SLOAD DIV MUL DUP4 MSTORE SWAP2 PUSH1 0x20 ADD SWAP2 PUSH2 0x256 JUMP JUMPDEST DUP3 ADD SWAP2 SWAP1 PUSH1 0x0 MSTORE PUSH1 0x20 PUSH1 0x0 KECCAK256 SWAP1 JUMPDEST DUP2 SLOAD DUP2 MSTORE SWAP1 PUSH1 0x1 ADD SWAP1 PUSH1 0x20 ADD DUP1 DUP4 GT PUSH2 0x239 JUMPI DUP3 SWAP1 SUB PUSH1 0x1F AND DUP3 ADD SWAP2 JUMPDEST POP POP POP POP POP DUP2 MSTORE POP POP DUP2 MSTORE PUSH1 0x20 ADD SWAP1 PUSH1 0x1 ADD SWAP1 PUSH2 0x162 JUMP JUMPDEST POP POP POP POP SWAP1 POP SWAP1 JUMP JUMPDEST PUSH1 0x6 SLOAD PUSH1 0xFF AND ISZERO PUSH2 0x2C7 JUMPI PUSH1 0x40 MLOAD PUSH3 0x461BCD PUSH1 0xE5 SHL DUP2 MSTORE PUSH1 0x20 PUSH1 0x4 DUP3 ADD MSTORE PUSH1 0x15 PUSH1 0x24 DUP3 ADD MSTORE PUSH21 0x115C9C9BDC8E881499595B9D1C985B9D0818D85B1B PUSH1 0x5A SHL PUSH1 0x44 DUP3 ADD MSTORE PUSH1 0x64 ADD JUMPDEST PUSH1 0x40 MLOAD DUP1 SWAP2 SUB SWAP1 REVERT JUMPDEST PUSH1 0x6 DUP1 SLOAD PUSH1 0xFF NOT AND PUSH1 0x1 OR SWAP1 SSTORE PUSH1 0x40 MLOAD CALLER SWAP1 PUSH32 0x6FD5BEA3AD79492C3055C6F6B7B37CA66D63BA4CEEF7D04DD901559AFFBE971A SWAP1 PUSH1 0x0 SWAP1 LOG2 DUP1 PUSH1 0x0 SUB PUSH2 0x346 JUMPI PUSH1 0x40 MLOAD PUSH3 0x461BCD PUSH1 0xE5 SHL DUP2 MSTORE PUSH1 0x20 PUSH1 0x4 DUP3 ADD MSTORE PUSH1 0x14 PUSH1 0x24 DUP3 ADD MSTORE PUSH20 0x4572726F723A2043616E277420696E707574203 PUSH1 0x64 SHL PUSH1 0x44 DUP3 ADD MSTORE PUSH1 0x64 ADD PUSH2 0x2BE JUMP JUMPDEST PUSH1 0x3 DUP2 GT ISZERO PUSH2 0x397 JUMPI PUSH1 0x40 MLOAD PUSH3 0x461BCD PUSH1 0xE5 SHL DUP2 MSTORE PUSH1 0x20 PUSH1 0x4 DUP3 ADD MSTORE PUSH1 0x1E PUSH1 0x24 DUP3 ADD MSTORE PUSH32 0x4572726F723A2043616E277420696E707574206D6F7265207468616E20330000 PUSH1 0x44 DUP3 ADD MSTORE PUSH1 0x64 ADD PUSH2 0x2BE JUMP JUMPDEST PUSH1 0x4 SLOAD PUSH1 0x0 SUB PUSH2 0x3D0 JUMPI PUSH1 0x0 DUP1 SLOAD PUSH1 0x1 PUSH1 0x1 PUSH1 0xA0 SHL SUB NOT AND CALLER OR DUP2 SSTORE PUSH1 0x1 DUP3 SWAP1 SSTORE PUSH1 0x4 DUP1 SLOAD SWAP2 PUSH2 0x3C6 DUP4 PUSH2 0xB40 JUMP JUMPDEST SWAP2 SWAP1 POP SSTORE POP PUSH2 0x48C JUMP JUMPDEST PUSH1 0x0 SLOAD PUSH1 0x1 PUSH1 0x1 PUSH1 0xA0 SHL SUB AND CALLER SUB PUSH2 0x436 JUMPI PUSH1 0x40 MLOAD PUSH3 0x461BCD PUSH1 0xE5 SHL DUP2 MSTORE PUSH1 0x20 PUSH1 0x4 DUP3 ADD MSTORE PUSH1 0x24 DUP1 DUP3 ADD MSTORE PUSH32 0x4572726F723A20596F752063616E6E6F7420706C6179207769746820796F7572 PUSH1 0x44 DUP3 ADD MSTORE PUSH4 0x39B2B633 PUSH1 0xE1 SHL PUSH1 0x64 DUP3 ADD MSTORE PUSH1 0x84 ADD PUSH2 0x2BE JUMP JUMPDEST PUSH1 0x2 DUP1 SLOAD PUSH1 0x1 PUSH1 0x1 PUSH1 0xA0 SHL SUB NOT AND CALLER OR SWAP1 SSTORE PUSH1 0x3 DUP2 SWAP1 SSTORE PUSH1 0x4 DUP1 SLOAD SWAP1 PUSH1 0x0 PUSH2 0x45D DUP4 PUSH2 0xB40 JUMP JUMPDEST SWAP2 SWAP1 POP SSTORE POP PUSH2 0x46A PUSH2 0x6B9 JUMP JUMPDEST PUSH1 0x0 PUSH1 0x4 DUP2 SWAP1 SSTORE DUP1 SLOAD PUSH1 0x1 PUSH1 0x1 PUSH1 0xA0 SHL SUB NOT SWAP1 DUP2 AND SWAP1 SWAP2 SSTORE PUSH1 0x2 DUP1 SLOAD SWAP1 SWAP2 AND SWAP1 SSTORE JUMPDEST POP PUSH1 0x6 DUP1 SLOAD PUSH1 0xFF NOT AND SWAP1 SSTORE JUMP JUMPDEST PUSH1 0x40 DUP1 MLOAD PUSH1 0xA0 DUP2 ADD DUP3 MSTORE PUSH1 0x0 PUSH1 0x60 DUP1 DUP4 ADD DUP3 DUP2 MSTORE PUSH1 0x80 DUP5 ADD DUP4 SWAP1 MSTORE DUP4 MSTORE DUP4 MLOAD DUP1 DUP6 ADD DUP6 MSTORE DUP3 DUP2 MSTORE PUSH1 0x20 DUP1 DUP3 ADD SWAP4 SWAP1 SWAP4 MSTORE SWAP2 DUP4 ADD SWAP2 SWAP1 SWAP2 MSTORE SWAP2 DUP2 ADD SWAP2 SWAP1 SWAP2 MSTORE PUSH1 0x5 SLOAD DUP3 GT ISZERO PUSH2 0x521 JUMPI PUSH1 0x40 MLOAD PUSH3 0x461BCD PUSH1 0xE5 SHL DUP2 MSTORE PUSH1 0x20 PUSH1 0x4 DUP3 ADD MSTORE PUSH1 0x15 PUSH1 0x24 DUP3 ADD MSTORE PUSH21 0x8AE4E4DEE4744092DCECC2D8D2C840D8CADCCEE8D PUSH1 0x5B SHL PUSH1 0x44 DUP3 ADD MSTORE PUSH1 0x64 ADD PUSH2 0x2BE JUMP JUMPDEST PUSH1 0x0 PUSH1 0x1 PUSH1 0x1 PUSH1 0xA0 SHL SUB AND PUSH1 0x5 DUP4 DUP2 SLOAD DUP2 LT PUSH2 0x53F JUMPI PUSH2 0x53F PUSH2 0xB67 JUMP JUMPDEST PUSH1 0x0 SWAP2 DUP3 MSTORE PUSH1 0x20 SWAP1 SWAP2 KECCAK256 PUSH1 0x2 PUSH1 0x5 SWAP1 SWAP3 MUL ADD ADD SLOAD PUSH1 0x1 PUSH1 0x1 PUSH1 0xA0 SHL SUB AND EQ PUSH2 0x5A9 JUMPI PUSH1 0x40 MLOAD PUSH3 0x461BCD PUSH1 0xE5 SHL DUP2 MSTORE PUSH1 0x20 PUSH1 0x4 DUP3 ADD MSTORE PUSH1 0x1E PUSH1 0x24 DUP3 ADD MSTORE PUSH32 0x4572726F723A205468652067616D65206E6F742066696E697368207965740000 PUSH1 0x44 DUP3 ADD MSTORE PUSH1 0x64 ADD PUSH2 0x2BE JUMP JUMPDEST PUSH1 0x5 DUP3 DUP2 SLOAD DUP2 LT PUSH2 0x5BC JUMPI PUSH2 0x5BC PUSH2 0xB67 JUMP JUMPDEST PUSH1 0x0 SWAP2 DUP3 MSTORE PUSH1 0x20 SWAP2 DUP3 SWAP1 KECCAK256 PUSH1 0x40 DUP1 MLOAD PUSH1 0xA0 DUP2 ADD DUP3 MSTORE PUSH1 0x5 SWAP1 SWAP4 MUL SWAP1 SWAP2 ADD DUP1 SLOAD PUSH1 0x1 PUSH1 0x1 PUSH1 0xA0 SHL SUB SWAP1 DUP2 AND PUSH1 0x60 DUP6 ADD SWAP1 DUP2 MSTORE PUSH1 0x1 DUP4 ADD SLOAD PUSH1 0x80 DUP7 ADD MSTORE DUP5 MSTORE DUP3 MLOAD DUP1 DUP5 ADD DUP5 MSTORE PUSH1 0x2 DUP4 ADD SLOAD SWAP1 SWAP2 AND DUP2 MSTORE PUSH1 0x3 DUP3 ADD SLOAD DUP2 DUP7 ADD MSTORE SWAP4 DUP4 ADD SWAP4 SWAP1 SWAP4 MSTORE PUSH1 0x4 DUP4 ADD DUP1 SLOAD SWAP3 SWAP4 SWAP3 SWAP2 DUP5 ADD SWAP2 PUSH2 0x630 SWAP1 PUSH2 0xB06 JUMP JUMPDEST DUP1 PUSH1 0x1F ADD PUSH1 0x20 DUP1 SWAP2 DIV MUL PUSH1 0x20 ADD PUSH1 0x40 MLOAD SWAP1 DUP2 ADD PUSH1 0x40 MSTORE DUP1 SWAP3 SWAP2 SWAP1 DUP2 DUP2 MSTORE PUSH1 0x20 ADD DUP3 DUP1 SLOAD PUSH2 0x65C SWAP1 PUSH2 0xB06 JUMP JUMPDEST DUP1 ISZERO PUSH2 0x6A9 JUMPI DUP1 PUSH1 0x1F LT PUSH2 0x67E JUMPI PUSH2 0x100 DUP1 DUP4 SLOAD DIV MUL DUP4 MSTORE SWAP2 PUSH1 0x20 ADD SWAP2 PUSH2 0x6A9 JUMP JUMPDEST DUP3 ADD SWAP2 SWAP1 PUSH1 0x0 MSTORE PUSH1 0x20 PUSH1 0x0 KECCAK256 SWAP1 JUMPDEST DUP2 SLOAD DUP2 MSTORE SWAP1 PUSH1 0x1 ADD SWAP1 PUSH1 0x20 ADD DUP1 DUP4 GT PUSH2 0x68C JUMPI DUP3 SWAP1 SUB PUSH1 0x1F AND DUP3 ADD SWAP2 JUMPDEST POP POP POP POP POP DUP2 MSTORE POP POP SWAP1 POP SWAP2 SWAP1 POP JUMP JUMPDEST PUSH1 0x40 DUP1 MLOAD PUSH1 0xA0 DUP2 ADD DUP3 MSTORE PUSH1 0x0 PUSH1 0x60 DUP1 DUP4 ADD DUP3 DUP2 MSTORE PUSH1 0x80 DUP5 ADD DUP4 SWAP1 MSTORE DUP4 MSTORE DUP4 MLOAD DUP1 DUP6 ADD DUP6 MSTORE DUP3 DUP2 MSTORE PUSH1 0x20 DUP1 DUP3 ADD DUP5 SWAP1 MSTORE DUP1 DUP6 ADD SWAP2 DUP3 MSTORE SWAP5 DUP5 ADD SWAP2 SWAP1 SWAP2 MSTORE SWAP1 SLOAD DUP3 MLOAD PUSH1 0x1 PUSH1 0x1 PUSH1 0xA0 SHL SUB SWAP2 DUP3 AND SWAP1 MSTORE PUSH1 0x1 SLOAD DUP4 MLOAD DUP6 ADD DUP2 SWAP1 MSTORE PUSH1 0x2 SLOAD DUP4 MLOAD SWAP3 AND SWAP1 SWAP2 MSTORE PUSH1 0x3 SLOAD SWAP2 MLOAD SWAP1 SWAP4 ADD DUP2 SWAP1 MSTORE SWAP1 SWAP2 SUB PUSH2 0x8B0 JUMPI PUSH1 0x40 DUP1 MLOAD DUP1 DUP3 ADD DUP3 MSTORE PUSH1 0x4 DUP2 MSTORE PUSH4 0x151A5959 PUSH1 0xE2 SHL PUSH1 0x20 DUP3 ADD MSTORE DUP3 DUP3 ADD MSTORE MLOAD PUSH32 0xCDE5C32C0A45FD8AA4B65EA8003FC9DA9ACD5E2C6C24A9FCCE6AB79CABBD9122 SWAP1 PUSH2 0x78F SWAP1 PUSH1 0x20 DUP1 DUP3 MSTORE PUSH1 0x4 SWAP1 DUP3 ADD MSTORE PUSH4 0x151A5959 PUSH1 0xE2 SHL PUSH1 0x40 DUP3 ADD MSTORE PUSH1 0x60 ADD SWAP1 JUMP JUMPDEST PUSH1 0x40 MLOAD DUP1 SWAP2 SUB SWAP1 LOG1 PUSH1 0x5 DUP1 SLOAD PUSH1 0x1 DUP2 ADD DUP3 SSTORE PUSH1 0x0 DUP3 SWAP1 MSTORE DUP3 MLOAD DUP1 MLOAD PUSH32 0x36B6384B5ECA791C62761152D0C79BB0604C104A5FB6F4EB0703F3154BB3DB0 SWAP3 SWAP1 SWAP4 MUL SWAP2 DUP3 ADD DUP1 SLOAD PUSH1 0x1 PUSH1 0x1 PUSH1 0xA0 SHL SUB NOT SWAP1 DUP2 AND PUSH1 0x1 PUSH1 0x1 PUSH1 0xA0 SHL SUB SWAP6 DUP7 AND OR DUP3 SSTORE PUSH1 0x20 SWAP3 DUP4 ADD MLOAD PUSH32 0x36B6384B5ECA791C62761152D0C79BB0604C104A5FB6F4EB0703F3154BB3DB1 DUP6 ADD SSTORE DUP3 DUP7 ADD MLOAD DUP1 MLOAD PUSH32 0x36B6384B5ECA791C62761152D0C79BB0604C104A5FB6F4EB0703F3154BB3DB2 DUP7 ADD DUP1 SLOAD SWAP1 SWAP4 AND SWAP7 AND SWAP6 SWAP1 SWAP6 OR SWAP1 SSTORE SWAP3 ADD MLOAD PUSH32 0x36B6384B5ECA791C62761152D0C79BB0604C104A5FB6F4EB0703F3154BB3DB3 DUP3 ADD SSTORE PUSH1 0x40 DUP4 ADD MLOAD DUP4 SWAP3 SWAP2 PUSH32 0x36B6384B5ECA791C62761152D0C79BB0604C104A5FB6F4EB0703F3154BB3DB4 ADD SWAP1 PUSH2 0x8AA SWAP1 DUP3 PUSH2 0xBE2 JUMP JUMPDEST POP POP POP POP JUMP JUMPDEST PUSH1 0x1 DUP1 SLOAD EQ DUP1 ISZERO PUSH2 0x8C3 JUMPI POP PUSH1 0x3 SLOAD PUSH1 0x2 EQ JUMPDEST DUP1 PUSH2 0x8DD JUMPI POP PUSH1 0x1 SLOAD PUSH1 0x3 EQ DUP1 ISZERO PUSH2 0x8DD JUMPI POP PUSH1 0x3 SLOAD PUSH1 0x1 EQ JUMPDEST DUP1 PUSH2 0x8F6 JUMPI POP PUSH1 0x1 SLOAD PUSH1 0x2 EQ DUP1 ISZERO PUSH2 0x8F6 JUMPI POP PUSH1 0x3 DUP1 SLOAD EQ JUMPDEST ISZERO PUSH2 0x968 JUMPI PUSH1 0x40 DUP1 MLOAD DUP1 DUP3 ADD DUP3 MSTORE PUSH1 0x9 DUP2 MSTORE PUSH9 0x2AB9B2B919103BB4B7 PUSH1 0xB9 SHL PUSH1 0x20 DUP3 ADD MSTORE DUP3 DUP3 ADD MSTORE MLOAD PUSH32 0xCDE5C32C0A45FD8AA4B65EA8003FC9DA9ACD5E2C6C24A9FCCE6AB79CABBD9122 SWAP1 PUSH2 0x78F SWAP1 PUSH1 0x20 DUP1 DUP3 MSTORE PUSH1 0x9 SWAP1 DUP3 ADD MSTORE PUSH9 0x2AB9B2B919103BB4B7 PUSH1 0xB9 SHL PUSH1 0x40 DUP3 ADD MSTORE PUSH1 0x60 ADD SWAP1 JUMP JUMPDEST PUSH1 0x40 DUP1 MLOAD DUP1 DUP3 ADD DUP3 MSTORE PUSH1 0x9 DUP2 MSTORE PUSH9 0x2AB9B2B918903BB4B7 PUSH1 0xB9 SHL PUSH1 0x20 DUP3 ADD MSTORE DUP3 DUP3 ADD MSTORE MLOAD PUSH32 0xCDE5C32C0A45FD8AA4B65EA8003FC9DA9ACD5E2C6C24A9FCCE6AB79CABBD9122 SWAP1 PUSH2 0x78F SWAP1 PUSH1 0x20 DUP1 DUP3 MSTORE PUSH1 0x9 SWAP1 DUP3 ADD MSTORE PUSH9 0x2AB9B2B918903BB4B7 PUSH1 0xB9 SHL PUSH1 0x40 DUP3 ADD MSTORE PUSH1 0x60 ADD SWAP1 JUMP JUMPDEST PUSH2 0x9F3 DUP3 DUP3 MLOAD DUP1 MLOAD PUSH1 0x1 PUSH1 0x1 PUSH1 0xA0 SHL SUB AND DUP3 MSTORE PUSH1 0x20 SWAP1 DUP2 ADD MLOAD SWAP2 ADD MSTORE JUMP JUMPDEST PUSH1 0x0 PUSH1 0x20 DUP1 DUP4 ADD MLOAD PUSH2 0xA1B PUSH1 0x40 DUP7 ADD DUP3 DUP1 MLOAD PUSH1 0x1 PUSH1 0x1 PUSH1 0xA0 SHL SUB AND DUP3 MSTORE PUSH1 0x20 SWAP1 DUP2 ADD MLOAD SWAP2 ADD MSTORE JUMP JUMPDEST POP PUSH1 0x40 DUP4 ADD MLOAD PUSH1 0xA0 PUSH1 0x80 DUP7 ADD MSTORE DUP1 MLOAD DUP1 PUSH1 0xA0 DUP8 ADD MSTORE PUSH1 0x0 JUMPDEST DUP2 DUP2 LT ISZERO PUSH2 0xA4F JUMPI DUP3 DUP2 ADD DUP5 ADD MLOAD DUP8 DUP3 ADD PUSH1 0xC0 ADD MSTORE DUP4 ADD PUSH2 0xA33 JUMP JUMPDEST POP PUSH1 0x0 PUSH1 0xC0 DUP3 DUP9 ADD ADD MSTORE PUSH1 0xC0 PUSH1 0x1F NOT PUSH1 0x1F DUP4 ADD AND DUP8 ADD ADD SWAP4 POP POP POP POP SWAP3 SWAP2 POP POP JUMP JUMPDEST PUSH1 0x0 PUSH1 0x20 DUP1 DUP4 ADD DUP2 DUP5 MSTORE DUP1 DUP6 MLOAD DUP1 DUP4 MSTORE PUSH1 0x40 DUP7 ADD SWAP2 POP PUSH1 0x40 DUP2 PUSH1 0x5 SHL DUP8 ADD ADD SWAP3 POP DUP4 DUP8 ADD PUSH1 0x0 JUMPDEST DUP3 DUP2 LT ISZERO PUSH2 0xAC6 JUMPI PUSH1 0x3F NOT DUP9 DUP7 SUB ADD DUP5 MSTORE PUSH2 0xAB4 DUP6 DUP4 MLOAD PUSH2 0x9D5 JUMP JUMPDEST SWAP5 POP SWAP3 DUP6 ADD SWAP3 SWAP1 DUP6 ADD SWAP1 PUSH1 0x1 ADD PUSH2 0xA98 JUMP JUMPDEST POP SWAP3 SWAP8 SWAP7 POP POP POP POP POP POP POP JUMP JUMPDEST PUSH1 0x0 PUSH1 0x20 DUP3 DUP5 SUB SLT ISZERO PUSH2 0xAE5 JUMPI PUSH1 0x0 DUP1 REVERT JUMPDEST POP CALLDATALOAD SWAP2 SWAP1 POP JUMP JUMPDEST PUSH1 0x20 DUP2 MSTORE PUSH1 0x0 PUSH2 0xAFF PUSH1 0x20 DUP4 ADD DUP5 PUSH2 0x9D5 JUMP JUMPDEST SWAP4 SWAP3 POP POP POP JUMP JUMPDEST PUSH1 0x1 DUP2 DUP2 SHR SWAP1 DUP3 AND DUP1 PUSH2 0xB1A JUMPI PUSH1 0x7F DUP3 AND SWAP2 POP JUMPDEST PUSH1 0x20 DUP3 LT DUP2 SUB PUSH2 0xB3A JUMPI PUSH4 0x4E487B71 PUSH1 0xE0 SHL PUSH1 0x0 MSTORE PUSH1 0x22 PUSH1 0x4 MSTORE PUSH1 0x24 PUSH1 0x0 REVERT JUMPDEST POP SWAP2 SWAP1 POP JUMP JUMPDEST PUSH1 0x0 PUSH1 0x1 DUP3 ADD PUSH2 0xB60 JUMPI PUSH4 0x4E487B71 PUSH1 0xE0 SHL PUSH1 0x0 MSTORE PUSH1 0x11 PUSH1 0x4 MSTORE PUSH1 0x24 PUSH1 0x0 REVERT JUMPDEST POP PUSH1 0x1 ADD SWAP1 JUMP JUMPDEST PUSH4 0x4E487B71 PUSH1 0xE0 SHL PUSH1 0x0 MSTORE PUSH1 0x32 PUSH1 0x4 MSTORE PUSH1 0x24 PUSH1 0x0 REVERT JUMPDEST PUSH4 0x4E487B71 PUSH1 0xE0 SHL PUSH1 0x0 MSTORE PUSH1 0x41 PUSH1 0x4 MSTORE PUSH1 0x24 PUSH1 0x0 REVERT JUMPDEST PUSH1 0x1F DUP3 GT ISZERO PUSH2 0xBDD JUMPI PUSH1 0x0 DUP2 DUP2 MSTORE PUSH1 0x20 DUP2 KECCAK256 PUSH1 0x1F DUP6 ADD PUSH1 0x5 SHR DUP2 ADD PUSH1 0x20 DUP7 LT ISZERO PUSH2 0xBBA JUMPI POP DUP1 JUMPDEST PUSH1 0x1F DUP6 ADD PUSH1 0x5 SHR DUP3 ADD SWAP2 POP JUMPDEST DUP2 DUP2 LT ISZERO PUSH2 0xBD9 JUMPI DUP3 DUP2 SSTORE PUSH1 0x1 ADD PUSH2 0xBC6 JUMP JUMPDEST POP POP POP JUMPDEST POP POP POP JUMP JUMPDEST DUP2 MLOAD PUSH8 0xFFFFFFFFFFFFFFFF DUP2 GT ISZERO PUSH2 0xBFC JUMPI PUSH2 0xBFC PUSH2 0xB7D JUMP JUMPDEST PUSH2 0xC10 DUP2 PUSH2 0xC0A DUP5 SLOAD PUSH2 0xB06 JUMP JUMPDEST DUP5 PUSH2 0xB93 JUMP JUMPDEST PUSH1 0x20 DUP1 PUSH1 0x1F DUP4 GT PUSH1 0x1 DUP2 EQ PUSH2 0xC45 JUMPI PUSH1 0x0 DUP5 ISZERO PUSH2 0xC2D JUMPI POP DUP6 DUP4 ADD MLOAD JUMPDEST PUSH1 0x0 NOT PUSH1 0x3 DUP7 SWAP1 SHL SHR NOT AND PUSH1 0x1 DUP6 SWAP1 SHL OR DUP6 SSTORE PUSH2 0xBD9 JUMP JUMPDEST PUSH1 0x0 DUP6 DUP2 MSTORE PUSH1 0x20 DUP2 KECCAK256 PUSH1 0x1F NOT DUP7 AND SWAP2 JUMPDEST DUP3 DUP2 LT ISZERO PUSH2 0xC74 JUMPI DUP9 DUP7 ADD MLOAD DUP3 SSTORE SWAP5 DUP5 ADD SWAP5 PUSH1 0x1 SWAP1 SWAP2 ADD SWAP1 DUP5 ADD PUSH2 0xC55 JUMP JUMPDEST POP DUP6 DUP3 LT ISZERO PUSH2 0xC92 JUMPI DUP8 DUP6 ADD MLOAD PUSH1 0x0 NOT PUSH1 0x3 DUP9 SWAP1 SHL PUSH1 0xF8 AND SHR NOT AND DUP2 SSTORE JUMPDEST POP POP POP POP POP PUSH1 0x1 SWAP1 DUP2 SHL ADD SWAP1 SSTORE POP JUMP INVALID LOG2 PUSH5 0x6970667358 0x22 SLT KECCAK256 0xE9 GASPRICE LOG3 PUSH23 0x2D3DD97E0106B099C82C3934AFE5AA5D54C411CD548880 SHL SELFDESTRUCT CREATE2 0xBE 0x29 PUSH5 0x736F6C6343 STOP ADDMOD SGT STOP CALLER "
				},
				"gasEstimates": {
					"creation": {
						"codeDepositCost": "657600",
						"executionCost": "5695",
						"totalCost": "663295"
					},
					"external": {
						"_user1()": "4489",
						"_user2()": "4511",
						"gameCount()": "2307",
						"getGameHistory()": "infinite",
						"getSpecificGameHistory(uint256)": "infinite",
						"play(uint256)": "infinite",
						"userCount()": "2285"
					},
					"internal": {
						"game()": "infinite"
					}
				},
				"methodIdentifiers": {
					"_user1()": "6abd915e",
					"_user2()": "afcf5433",
					"gameCount()": "4d1975b4",
					"getGameHistory()": "512ec557",
					"getSpecificGameHistory(uint256)": "f7c4efbb",
					"play(uint256)": "6898f82b",
					"userCount()": "07973ccf"
				}
			},
			"storageLayout": {
				"storage": [
					{
						"astId": 18,
						"contract": "Practical2-RockPaperScissors-Jason.sol:RockPaperScissors",
						"label": "_user1",
						"offset": 0,
						"slot": "0",
						"type": "t_struct(UserInfo)6_storage"
					},
					{
						"astId": 21,
						"contract": "Practical2-RockPaperScissors-Jason.sol:RockPaperScissors",
						"label": "_user2",
						"offset": 0,
						"slot": "2",
						"type": "t_struct(UserInfo)6_storage"
					},
					{
						"astId": 24,
						"contract": "Practical2-RockPaperScissors-Jason.sol:RockPaperScissors",
						"label": "userCount",
						"offset": 0,
						"slot": "4",
						"type": "t_uint256"
					},
					{
						"astId": 28,
						"contract": "Practical2-RockPaperScissors-Jason.sol:RockPaperScissors",
						"label": "gameHistory",
						"offset": 0,
						"slot": "5",
						"type": "t_array(t_struct(GameInfo)15_storage)dyn_storage"
					},
					{
						"astId": 30,
						"contract": "Practical2-RockPaperScissors-Jason.sol:RockPaperScissors",
						"label": "locked",
						"offset": 0,
						"slot": "6",
						"type": "t_bool"
					},
					{
						"astId": 32,
						"contract": "Practical2-RockPaperScissors-Jason.sol:RockPaperScissors",
						"label": "gameCount",
						"offset": 0,
						"slot": "7",
						"type": "t_uint256"
					}
				],
				"types": {
					"t_address": {
						"encoding": "inplace",
						"label": "address",
						"numberOfBytes": "20"
					},
					"t_array(t_struct(GameInfo)15_storage)dyn_storage": {
						"base": "t_struct(GameInfo)15_storage",
						"encoding": "dynamic_array",
						"label": "struct RockPaperScissors.GameInfo[]",
						"numberOfBytes": "32"
					},
					"t_bool": {
						"encoding": "inplace",
						"label": "bool",
						"numberOfBytes": "1"
					},
					"t_string_storage": {
						"encoding": "bytes",
						"label": "string",
						"numberOfBytes": "32"
					},
					"t_struct(GameInfo)15_storage": {
						"encoding": "inplace",
						"label": "struct RockPaperScissors.GameInfo",
						"members": [
							{
								"astId": 9,
								"contract": "Practical2-RockPaperScissors-Jason.sol:RockPaperScissors",
								"label": "user1",
								"offset": 0,
								"slot": "0",
								"type": "t_struct(UserInfo)6_storage"
							},
							{
								"astId": 12,
								"contract": "Practical2-RockPaperScissors-Jason.sol:RockPaperScissors",
								"label": "user2",
								"offset": 0,
								"slot": "2",
								"type": "t_struct(UserInfo)6_storage"
							},
							{
								"astId": 14,
								"contract": "Practical2-RockPaperScissors-Jason.sol:RockPaperScissors",
								"label": "finalResult",
								"offset": 0,
								"slot": "4",
								"type": "t_string_storage"
							}
						],
						"numberOfBytes": "160"
					},
					"t_struct(UserInfo)6_storage": {
						"encoding": "inplace",
						"label": "struct RockPaperScissors.UserInfo",
						"members": [
							{
								"astId": 3,
								"contract": "Practical2-RockPaperScissors-Jason.sol:RockPaperScissors",
								"label": "userAddress",
								"offset": 0,
								"slot": "0",
								"type": "t_address"
							},
							{
								"astId": 5,
								"contract": "Practical2-RockPaperScissors-Jason.sol:RockPaperScissors",
								"label": "userOption",
								"offset": 0,
								"slot": "1",
								"type": "t_uint256"
							}
						],
						"numberOfBytes": "64"
					},
					"t_uint256": {
						"encoding": "inplace",
						"label": "uint256",
						"numberOfBytes": "32"
					}
				}
			},
			"userdoc": {
				"kind": "user",
				"methods": {},
				"version": 1
			}
		}
	}
}