{
	"ERC20-Practical.sol": {
		"ERC20Practical": {
			"abi": [
				{
					"inputs": [
						{
							"internalType": "address payable",
							"name": "_to",
							"type": "address"
						},
						{
							"internalType": "uint256",
							"name": "amount",
							"type": "uint256"
						}
					],
					"name": "calltransfer",
					"outputs": [],
					"stateMutability": "nonpayable",
					"type": "function"
				},
				{
					"inputs": [],
					"name": "transfer",
					"outputs": [],
					"stateMutability": "nonpayable",
					"type": "function"
				},
				{
					"inputs": [
						{
							"internalType": "address payable",
							"name": "_to",
							"type": "address"
						},
						{
							"internalType": "uint256",
							"name": "amount",
							"type": "uint256"
						}
					],
					"name": "transferFrom",
					"outputs": [],
					"stateMutability": "nonpayable",
					"type": "function"
				}
			],
			"devdoc": {
				"kind": "dev",
				"methods": {},
				"version": 1
			},
			"evm": {
				"assembly": "    /* \"ERC20-Practical.sol\":120:861  contract ERC20Practical{... */\n  mstore(0x40, 0x80)\n  callvalue\n  dup1\n  iszero\n  tag_1\n  jumpi\n  0x00\n  dup1\n  revert\ntag_1:\n  pop\n  dataSize(sub_0)\n  dup1\n  dataOffset(sub_0)\n  0x00\n  codecopy\n  0x00\n  return\nstop\n\nsub_0: assembly {\n        /* \"ERC20-Practical.sol\":120:861  contract ERC20Practical{... */\n      mstore(0x40, 0x80)\n      callvalue\n      dup1\n      iszero\n      tag_1\n      jumpi\n      0x00\n      dup1\n      revert\n    tag_1:\n      pop\n      jumpi(tag_2, lt(calldatasize, 0x04))\n      shr(0xe0, calldataload(0x00))\n      dup1\n      0x01c6adc3\n      eq\n      tag_3\n      jumpi\n      dup1\n      0x42b58685\n      eq\n      tag_4\n      jumpi\n      dup1\n      0x8a4068dd\n      eq\n      tag_5\n      jumpi\n    tag_2:\n      0x00\n      dup1\n      revert\n        /* \"ERC20-Practical.sol\":150:351  function transferFrom(address payable _to, uint amount) public {... */\n    tag_3:\n      tag_6\n      tag_7\n      calldatasize\n      0x04\n      tag_8\n      jump\t// in\n    tag_7:\n      tag_9\n      jump\t// in\n    tag_6:\n      stop\n        /* \"ERC20-Practical.sol\":593:858  function calltransfer (address payable  _to, uint amount) external {... */\n    tag_4:\n      tag_6\n      tag_11\n      calldatasize\n      0x04\n      tag_8\n      jump\t// in\n    tag_11:\n      tag_12\n      jump\t// in\n        /* \"ERC20-Practical.sol\":359:585  function transfer() public {... */\n    tag_5:\n      tag_6\n      tag_14\n      jump\t// in\n        /* \"ERC20-Practical.sol\":150:351  function transferFrom(address payable _to, uint amount) public {... */\n    tag_9:\n        /* \"ERC20-Practical.sol\":300:343  token.transferFrom(msg.sender, _to, amount) */\n      mload(0x40)\n      shl(0xe0, 0x23b872dd)\n      dup2\n      mstore\n        /* \"ERC20-Practical.sol\":319:329  msg.sender */\n      caller\n        /* \"ERC20-Practical.sol\":300:343  token.transferFrom(msg.sender, _to, amount) */\n      0x04\n      dup3\n      add\n        /* \"#utility.yul\":629:663   */\n      mstore\n      sub(shl(0xa0, 0x01), 0x01)\n        /* \"#utility.yul\":699:714   */\n      dup4\n      and\n        /* \"#utility.yul\":679:697   */\n      0x24\n      dup3\n      add\n        /* \"#utility.yul\":672:715   */\n      mstore\n        /* \"#utility.yul\":731:749   */\n      0x44\n      dup2\n      add\n        /* \"#utility.yul\":724:758   */\n      dup3\n      swap1\n      mstore\n        /* \"ERC20-Practical.sol\":246:288  0xdD870fA1b7C4700F2BD7f44238821C26f7392148 */\n      0xdd870fa1b7c4700f2bd7f44238821c26f7392148\n      swap1\n      dup2\n      swap1\n        /* \"ERC20-Practical.sol\":300:318  token.transferFrom */\n      0x23b872dd\n      swap1\n        /* \"#utility.yul\":564:582   */\n      0x64\n      add\n        /* \"ERC20-Practical.sol\":300:343  token.transferFrom(msg.sender, _to, amount) */\n      0x20\n      mload(0x40)\n      dup1\n      dup4\n      sub\n      dup2\n      0x00\n      dup8\n      gas\n      call\n      iszero\n      dup1\n      iszero\n      tag_19\n      jumpi\n      returndatasize\n      0x00\n      dup1\n      returndatacopy\n      revert(0x00, returndatasize)\n    tag_19:\n      pop\n      pop\n      pop\n      pop\n      mload(0x40)\n      returndatasize\n      not(0x1f)\n      0x1f\n      dup3\n      add\n      and\n      dup3\n      add\n      dup1\n      0x40\n      mstore\n      pop\n      dup2\n      add\n      swap1\n      tag_20\n      swap2\n      swap1\n      tag_21\n      jump\t// in\n    tag_20:\n      pop\n        /* \"ERC20-Practical.sol\":213:351  {... */\n      pop\n        /* \"ERC20-Practical.sol\":150:351  function transferFrom(address payable _to, uint amount) public {... */\n      pop\n      pop\n      jump\t// out\n        /* \"ERC20-Practical.sol\":593:858  function calltransfer (address payable  _to, uint amount) external {... */\n    tag_12:\n        /* \"ERC20-Practical.sol\":747:812  token.approve(0x5B38Da6a701c568545dCfcB03FcB875f56beddC4, amount) */\n      mload(0x40)\n      shl(0xe0, 0x095ea7b3)\n      dup2\n      mstore\n        /* \"ERC20-Practical.sol\":761:803  0x5B38Da6a701c568545dCfcB03FcB875f56beddC4 */\n      0x5b38da6a701c568545dcfcb03fcb875f56beddc4\n        /* \"ERC20-Practical.sol\":747:812  token.approve(0x5B38Da6a701c568545dCfcB03FcB875f56beddC4, amount) */\n      0x04\n      dup3\n      add\n        /* \"#utility.yul\":1225:1276   */\n      mstore\n        /* \"#utility.yul\":1292:1310   */\n      0x24\n      dup2\n      add\n        /* \"#utility.yul\":1285:1319   */\n      dup3\n      swap1\n      mstore\n        /* \"ERC20-Practical.sol\":693:735  0xdD870fA1b7C4700F2BD7f44238821C26f7392148 */\n      0xdd870fa1b7c4700f2bd7f44238821c26f7392148\n      swap1\n      dup2\n      swap1\n        /* \"ERC20-Practical.sol\":747:760  token.approve */\n      0x095ea7b3\n      swap1\n        /* \"#utility.yul\":1198:1216   */\n      0x44\n      add\n        /* \"ERC20-Practical.sol\":747:812  token.approve(0x5B38Da6a701c568545dCfcB03FcB875f56beddC4, amount) */\n      0x20\n      mload(0x40)\n      dup1\n      dup4\n      sub\n      dup2\n      0x00\n      dup8\n      gas\n      call\n      iszero\n      dup1\n      iszero\n      tag_26\n      jumpi\n      returndatasize\n      0x00\n      dup1\n      returndatacopy\n      revert(0x00, returndatasize)\n    tag_26:\n      pop\n      pop\n      pop\n      pop\n      mload(0x40)\n      returndatasize\n      not(0x1f)\n      0x1f\n      dup3\n      add\n      and\n      dup3\n      add\n      dup1\n      0x40\n      mstore\n      pop\n      dup2\n      add\n      swap1\n      tag_27\n      swap2\n      swap1\n      tag_21\n      jump\t// in\n    tag_27:\n      pop\n        /* \"ERC20-Practical.sol\":825:850  transferFrom(_to, amount) */\n      tag_28\n        /* \"ERC20-Practical.sol\":838:841  _to */\n      dup4\n        /* \"ERC20-Practical.sol\":843:849  amount */\n      dup4\n        /* \"ERC20-Practical.sol\":825:837  transferFrom */\n      tag_9\n        /* \"ERC20-Practical.sol\":825:850  transferFrom(_to, amount) */\n      jump\t// in\n    tag_28:\n        /* \"ERC20-Practical.sol\":660:858  {... */\n      pop\n        /* \"ERC20-Practical.sol\":593:858  function calltransfer (address payable  _to, uint amount) external {... */\n      pop\n      pop\n      jump\t// out\n        /* \"ERC20-Practical.sol\":359:585  function transfer() public {... */\n    tag_14:\n        /* \"ERC20-Practical.sol\":473:535  token.approve(0x5B38Da6a701c568545dCfcB03FcB875f56beddC4, 100) */\n      mload(0x40)\n      shl(0xe0, 0x095ea7b3)\n      dup2\n      mstore\n        /* \"ERC20-Practical.sol\":487:529  0x5B38Da6a701c568545dCfcB03FcB875f56beddC4 */\n      0x5b38da6a701c568545dcfcb03fcb875f56beddc4\n        /* \"ERC20-Practical.sol\":473:535  token.approve(0x5B38Da6a701c568545dCfcB03FcB875f56beddC4, 100) */\n      0x04\n      dup3\n      add\n        /* \"#utility.yul\":1225:1276   */\n      mstore\n        /* \"ERC20-Practical.sol\":531:534  100 */\n      0x64\n        /* \"#utility.yul\":1292:1310   */\n      0x24\n      dup3\n      add\n        /* \"#utility.yul\":1285:1319   */\n      mstore\n        /* \"ERC20-Practical.sol\":419:461  0xdD870fA1b7C4700F2BD7f44238821C26f7392148 */\n      0xdd870fa1b7c4700f2bd7f44238821c26f7392148\n      swap1\n      dup2\n      swap1\n        /* \"ERC20-Practical.sol\":473:486  token.approve */\n      0x095ea7b3\n      swap1\n        /* \"#utility.yul\":1198:1216   */\n      0x44\n      add\n        /* \"ERC20-Practical.sol\":473:535  token.approve(0x5B38Da6a701c568545dCfcB03FcB875f56beddC4, 100) */\n      0x20\n      mload(0x40)\n      dup1\n      dup4\n      sub\n      dup2\n      0x00\n      dup8\n      gas\n      call\n      iszero\n      dup1\n      iszero\n      tag_33\n      jumpi\n      returndatasize\n      0x00\n      dup1\n      returndatacopy\n      revert(0x00, returndatasize)\n    tag_33:\n      pop\n      pop\n      pop\n      pop\n      mload(0x40)\n      returndatasize\n      not(0x1f)\n      0x1f\n      dup3\n      add\n      and\n      dup3\n      add\n      dup1\n      0x40\n      mstore\n      pop\n      dup2\n      add\n      swap1\n      tag_34\n      swap2\n      swap1\n      tag_21\n      jump\t// in\n    tag_34:\n      pop\n        /* \"ERC20-Practical.sol\":546:577  token.transfer(msg.sender, 100) */\n      mload(0x40)\n      shl(0xe0, 0xa9059cbb)\n      dup2\n      mstore\n        /* \"ERC20-Practical.sol\":561:571  msg.sender */\n      caller\n        /* \"ERC20-Practical.sol\":546:577  token.transfer(msg.sender, 100) */\n      0x04\n      dup3\n      add\n        /* \"#utility.yul\":1225:1276   */\n      mstore\n        /* \"ERC20-Practical.sol\":573:576  100 */\n      0x64\n        /* \"#utility.yul\":1292:1310   */\n      0x24\n      dup3\n      add\n        /* \"#utility.yul\":1285:1319   */\n      mstore\n      sub(shl(0xa0, 0x01), 0x01)\n        /* \"ERC20-Practical.sol\":546:560  token.transfer */\n      dup3\n      and\n      swap1\n      0xa9059cbb\n      swap1\n        /* \"#utility.yul\":1198:1216   */\n      0x44\n      add\n        /* \"ERC20-Practical.sol\":546:577  token.transfer(msg.sender, 100) */\n      0x20\n      mload(0x40)\n      dup1\n      dup4\n      sub\n      dup2\n      0x00\n      dup8\n      gas\n      call\n      iszero\n      dup1\n      iszero\n      tag_37\n      jumpi\n      returndatasize\n      0x00\n      dup1\n      returndatacopy\n      revert(0x00, returndatasize)\n    tag_37:\n      pop\n      pop\n      pop\n      pop\n      mload(0x40)\n      returndatasize\n      not(0x1f)\n      0x1f\n      dup3\n      add\n      and\n      dup3\n      add\n      dup1\n      0x40\n      mstore\n      pop\n      dup2\n      add\n      swap1\n      tag_38\n      swap2\n      swap1\n      tag_21\n      jump\t// in\n    tag_38:\n      pop\n        /* \"ERC20-Practical.sol\":386:585  {... */\n      pop\n        /* \"ERC20-Practical.sol\":359:585  function transfer() public {... */\n      jump\t// out\n        /* \"#utility.yul\":14:376   */\n    tag_8:\n        /* \"#utility.yul\":90:96   */\n      0x00\n        /* \"#utility.yul\":98:104   */\n      dup1\n        /* \"#utility.yul\":151:153   */\n      0x40\n        /* \"#utility.yul\":139:148   */\n      dup4\n        /* \"#utility.yul\":130:137   */\n      dup6\n        /* \"#utility.yul\":126:149   */\n      sub\n        /* \"#utility.yul\":122:154   */\n      slt\n        /* \"#utility.yul\":119:171   */\n      iszero\n      tag_41\n      jumpi\n        /* \"#utility.yul\":167:168   */\n      0x00\n        /* \"#utility.yul\":164:165   */\n      dup1\n        /* \"#utility.yul\":157:169   */\n      revert\n        /* \"#utility.yul\":119:171   */\n    tag_41:\n        /* \"#utility.yul\":193:216   */\n      dup3\n      calldataload\n      sub(shl(0xa0, 0x01), 0x01)\n        /* \"#utility.yul\":245:276   */\n      dup2\n      and\n        /* \"#utility.yul\":235:277   */\n      dup2\n      eq\n        /* \"#utility.yul\":225:295   */\n      tag_42\n      jumpi\n        /* \"#utility.yul\":291:292   */\n      0x00\n        /* \"#utility.yul\":288:289   */\n      dup1\n        /* \"#utility.yul\":281:293   */\n      revert\n        /* \"#utility.yul\":225:295   */\n    tag_42:\n        /* \"#utility.yul\":314:319   */\n      swap5\n        /* \"#utility.yul\":366:368   */\n      0x20\n        /* \"#utility.yul\":351:369   */\n      swap4\n      swap1\n      swap4\n      add\n        /* \"#utility.yul\":338:370   */\n      calldataload\n      swap4\n      pop\n      pop\n      pop\n        /* \"#utility.yul\":14:376   */\n      jump\t// out\n        /* \"#utility.yul\":769:1046   */\n    tag_21:\n        /* \"#utility.yul\":836:842   */\n      0x00\n        /* \"#utility.yul\":889:891   */\n      0x20\n        /* \"#utility.yul\":877:886   */\n      dup3\n        /* \"#utility.yul\":868:875   */\n      dup5\n        /* \"#utility.yul\":864:887   */\n      sub\n        /* \"#utility.yul\":860:892   */\n      slt\n        /* \"#utility.yul\":857:909   */\n      iszero\n      tag_45\n      jumpi\n        /* \"#utility.yul\":905:906   */\n      0x00\n        /* \"#utility.yul\":902:903   */\n      dup1\n        /* \"#utility.yul\":895:907   */\n      revert\n        /* \"#utility.yul\":857:909   */\n    tag_45:\n        /* \"#utility.yul\":937:946   */\n      dup2\n        /* \"#utility.yul\":931:947   */\n      mload\n        /* \"#utility.yul\":990:995   */\n      dup1\n        /* \"#utility.yul\":983:996   */\n      iszero\n        /* \"#utility.yul\":976:997   */\n      iszero\n        /* \"#utility.yul\":969:974   */\n      dup2\n        /* \"#utility.yul\":966:998   */\n      eq\n        /* \"#utility.yul\":956:1016   */\n      tag_46\n      jumpi\n        /* \"#utility.yul\":1012:1013   */\n      0x00\n        /* \"#utility.yul\":1009:1010   */\n      dup1\n        /* \"#utility.yul\":1002:1014   */\n      revert\n        /* \"#utility.yul\":956:1016   */\n    tag_46:\n        /* \"#utility.yul\":1035:1040   */\n      swap4\n        /* \"#utility.yul\":769:1046   */\n      swap3\n      pop\n      pop\n      pop\n      jump\t// out\n\n    auxdata: 0xa2646970667358221220a2ffb38b2b3cecbd79b193ed772ca76325bfca69749b2240f862b6aec6e4275464736f6c63430008140033\n}\n",
				"bytecode": {
					"linkReferences": {},
					"object": "608060405234801561000f575f80fd5b506103358061001d5f395ff3fe608060405234801561000f575f80fd5b506004361061003f575f3560e01c806301c6adc31461004357806342b58685146100585780638a4068dd1461006b575b5f80fd5b6100566100513660046102a4565b610073565b005b6100566100663660046102a4565b610103565b6100566101a2565b6040516323b872dd60e01b81523360048201526001600160a01b03831660248201526044810182905273dd870fa1b7c4700f2bd7f44238821c26f73921489081906323b872dd906064016020604051808303815f875af11580156100d9573d5f803e3d5ffd5b505050506040513d601f19601f820116820180604052508101906100fd91906102d9565b50505050565b60405163095ea7b360e01b8152735b38da6a701c568545dcfcb03fcb875f56beddc460048201526024810182905273dd870fa1b7c4700f2bd7f44238821c26f739214890819063095ea7b3906044016020604051808303815f875af115801561016e573d5f803e3d5ffd5b505050506040513d601f19601f8201168201806040525081019061019291906102d9565b5061019d8383610073565b505050565b60405163095ea7b360e01b8152735b38da6a701c568545dcfcb03fcb875f56beddc460048201526064602482015273dd870fa1b7c4700f2bd7f44238821c26f739214890819063095ea7b3906044016020604051808303815f875af115801561020d573d5f803e3d5ffd5b505050506040513d601f19601f8201168201806040525081019061023191906102d9565b5060405163a9059cbb60e01b8152336004820152606460248201526001600160a01b0382169063a9059cbb906044016020604051808303815f875af115801561027c573d5f803e3d5ffd5b505050506040513d601f19601f820116820180604052508101906102a091906102d9565b5050565b5f80604083850312156102b5575f80fd5b82356001600160a01b03811681146102cb575f80fd5b946020939093013593505050565b5f602082840312156102e9575f80fd5b815180151581146102f8575f80fd5b939250505056fea2646970667358221220a2ffb38b2b3cecbd79b193ed772ca76325bfca69749b2240f862b6aec6e4275464736f6c63430008140033",
					"opcodes": "PUSH1 0x80 PUSH1 0x40 MSTORE CALLVALUE DUP1 ISZERO PUSH2 0xF JUMPI PUSH0 DUP1 REVERT JUMPDEST POP PUSH2 0x335 DUP1 PUSH2 0x1D PUSH0 CODECOPY PUSH0 RETURN INVALID PUSH1 0x80 PUSH1 0x40 MSTORE CALLVALUE DUP1 ISZERO PUSH2 0xF JUMPI PUSH0 DUP1 REVERT JUMPDEST POP PUSH1 0x4 CALLDATASIZE LT PUSH2 0x3F JUMPI PUSH0 CALLDATALOAD PUSH1 0xE0 SHR DUP1 PUSH4 0x1C6ADC3 EQ PUSH2 0x43 JUMPI DUP1 PUSH4 0x42B58685 EQ PUSH2 0x58 JUMPI DUP1 PUSH4 0x8A4068DD EQ PUSH2 0x6B JUMPI JUMPDEST PUSH0 DUP1 REVERT JUMPDEST PUSH2 0x56 PUSH2 0x51 CALLDATASIZE PUSH1 0x4 PUSH2 0x2A4 JUMP JUMPDEST PUSH2 0x73 JUMP JUMPDEST STOP JUMPDEST PUSH2 0x56 PUSH2 0x66 CALLDATASIZE PUSH1 0x4 PUSH2 0x2A4 JUMP JUMPDEST PUSH2 0x103 JUMP JUMPDEST PUSH2 0x56 PUSH2 0x1A2 JUMP JUMPDEST PUSH1 0x40 MLOAD PUSH4 0x23B872DD PUSH1 0xE0 SHL DUP2 MSTORE CALLER PUSH1 0x4 DUP3 ADD MSTORE PUSH1 0x1 PUSH1 0x1 PUSH1 0xA0 SHL SUB DUP4 AND PUSH1 0x24 DUP3 ADD MSTORE PUSH1 0x44 DUP2 ADD DUP3 SWAP1 MSTORE PUSH20 0xDD870FA1B7C4700F2BD7F44238821C26F7392148 SWAP1 DUP2 SWAP1 PUSH4 0x23B872DD SWAP1 PUSH1 0x64 ADD PUSH1 0x20 PUSH1 0x40 MLOAD DUP1 DUP4 SUB DUP2 PUSH0 DUP8 GAS CALL ISZERO DUP1 ISZERO PUSH2 0xD9 JUMPI RETURNDATASIZE PUSH0 DUP1 RETURNDATACOPY RETURNDATASIZE PUSH0 REVERT JUMPDEST POP POP POP POP PUSH1 0x40 MLOAD RETURNDATASIZE PUSH1 0x1F NOT PUSH1 0x1F DUP3 ADD AND DUP3 ADD DUP1 PUSH1 0x40 MSTORE POP DUP2 ADD SWAP1 PUSH2 0xFD SWAP2 SWAP1 PUSH2 0x2D9 JUMP JUMPDEST POP POP POP POP JUMP JUMPDEST PUSH1 0x40 MLOAD PUSH4 0x95EA7B3 PUSH1 0xE0 SHL DUP2 MSTORE PUSH20 0x5B38DA6A701C568545DCFCB03FCB875F56BEDDC4 PUSH1 0x4 DUP3 ADD MSTORE PUSH1 0x24 DUP2 ADD DUP3 SWAP1 MSTORE PUSH20 0xDD870FA1B7C4700F2BD7F44238821C26F7392148 SWAP1 DUP2 SWAP1 PUSH4 0x95EA7B3 SWAP1 PUSH1 0x44 ADD PUSH1 0x20 PUSH1 0x40 MLOAD DUP1 DUP4 SUB DUP2 PUSH0 DUP8 GAS CALL ISZERO DUP1 ISZERO PUSH2 0x16E JUMPI RETURNDATASIZE PUSH0 DUP1 RETURNDATACOPY RETURNDATASIZE PUSH0 REVERT JUMPDEST POP POP POP POP PUSH1 0x40 MLOAD RETURNDATASIZE PUSH1 0x1F NOT PUSH1 0x1F DUP3 ADD AND DUP3 ADD DUP1 PUSH1 0x40 MSTORE POP DUP2 ADD SWAP1 PUSH2 0x192 SWAP2 SWAP1 PUSH2 0x2D9 JUMP JUMPDEST POP PUSH2 0x19D DUP4 DUP4 PUSH2 0x73 JUMP JUMPDEST POP POP POP JUMP JUMPDEST PUSH1 0x40 MLOAD PUSH4 0x95EA7B3 PUSH1 0xE0 SHL DUP2 MSTORE PUSH20 0x5B38DA6A701C568545DCFCB03FCB875F56BEDDC4 PUSH1 0x4 DUP3 ADD MSTORE PUSH1 0x64 PUSH1 0x24 DUP3 ADD MSTORE PUSH20 0xDD870FA1B7C4700F2BD7F44238821C26F7392148 SWAP1 DUP2 SWAP1 PUSH4 0x95EA7B3 SWAP1 PUSH1 0x44 ADD PUSH1 0x20 PUSH1 0x40 MLOAD DUP1 DUP4 SUB DUP2 PUSH0 DUP8 GAS CALL ISZERO DUP1 ISZERO PUSH2 0x20D JUMPI RETURNDATASIZE PUSH0 DUP1 RETURNDATACOPY RETURNDATASIZE PUSH0 REVERT JUMPDEST POP POP POP POP PUSH1 0x40 MLOAD RETURNDATASIZE PUSH1 0x1F NOT PUSH1 0x1F DUP3 ADD AND DUP3 ADD DUP1 PUSH1 0x40 MSTORE POP DUP2 ADD SWAP1 PUSH2 0x231 SWAP2 SWAP1 PUSH2 0x2D9 JUMP JUMPDEST POP PUSH1 0x40 MLOAD PUSH4 0xA9059CBB PUSH1 0xE0 SHL DUP2 MSTORE CALLER PUSH1 0x4 DUP3 ADD MSTORE PUSH1 0x64 PUSH1 0x24 DUP3 ADD MSTORE PUSH1 0x1 PUSH1 0x1 PUSH1 0xA0 SHL SUB DUP3 AND SWAP1 PUSH4 0xA9059CBB SWAP1 PUSH1 0x44 ADD PUSH1 0x20 PUSH1 0x40 MLOAD DUP1 DUP4 SUB DUP2 PUSH0 DUP8 GAS CALL ISZERO DUP1 ISZERO PUSH2 0x27C JUMPI RETURNDATASIZE PUSH0 DUP1 RETURNDATACOPY RETURNDATASIZE PUSH0 REVERT JUMPDEST POP POP POP POP PUSH1 0x40 MLOAD RETURNDATASIZE PUSH1 0x1F NOT PUSH1 0x1F DUP3 ADD AND DUP3 ADD DUP1 PUSH1 0x40 MSTORE POP DUP2 ADD SWAP1 PUSH2 0x2A0 SWAP2 SWAP1 PUSH2 0x2D9 JUMP JUMPDEST POP POP JUMP JUMPDEST PUSH0 DUP1 PUSH1 0x40 DUP4 DUP6 SUB SLT ISZERO PUSH2 0x2B5 JUMPI PUSH0 DUP1 REVERT JUMPDEST DUP3 CALLDATALOAD PUSH1 0x1 PUSH1 0x1 PUSH1 0xA0 SHL SUB DUP2 AND DUP2 EQ PUSH2 0x2CB JUMPI PUSH0 DUP1 REVERT JUMPDEST SWAP5 PUSH1 0x20 SWAP4 SWAP1 SWAP4 ADD CALLDATALOAD SWAP4 POP POP POP JUMP JUMPDEST PUSH0 PUSH1 0x20 DUP3 DUP5 SUB SLT ISZERO PUSH2 0x2E9 JUMPI PUSH0 DUP1 REVERT JUMPDEST DUP2 MLOAD DUP1 ISZERO ISZERO DUP2 EQ PUSH2 0x2F8 JUMPI PUSH0 DUP1 REVERT JUMPDEST SWAP4 SWAP3 POP POP POP JUMP INVALID LOG2 PUSH5 0x6970667358 0x22 SLT KECCAK256 LOG2 SELFDESTRUCT 0xB3 DUP12 0x2B EXTCODECOPY 0xEC 0xBD PUSH26 0xB193ED772CA76325BFCA69749B2240F862B6AEC6E4275464736F PUSH13 0x63430008140033000000000000 "
				},
				"gasEstimates": {
					"creation": {
						"codeDepositCost": "164200",
						"executionCost": "206",
						"totalCost": "164406"
					},
					"external": {
						"calltransfer(address,uint256)": "infinite",
						"transfer()": "infinite",
						"transferFrom(address,uint256)": "infinite"
					}
				},
				"methodIdentifiers": {
					"calltransfer(address,uint256)": "42b58685",
					"transfer()": "8a4068dd",
					"transferFrom(address,uint256)": "01c6adc3"
				}
			},
			"storageLayout": {
				"storage": [],
				"types": null
			},
			"userdoc": {
				"kind": "user",
				"methods": {},
				"version": 1
			}
		}
	}
}