{
	"Practical3-Use-UI_Play-Jason.sol": {
		"RockPaperScissors": {
			"abi": [
				{
					"anonymous": false,
					"inputs": [
						{
							"indexed": false,
							"internalType": "address",
							"name": "user1",
							"type": "address"
						},
						{
							"indexed": false,
							"internalType": "address",
							"name": "user2",
							"type": "address"
						}
					],
					"name": "inputOption",
					"type": "event"
				},
				{
					"anonymous": false,
					"inputs": [
						{
							"indexed": false,
							"internalType": "string",
							"name": "",
							"type": "string"
						}
					],
					"name": "showError",
					"type": "event"
				},
				{
					"anonymous": false,
					"inputs": [
						{
							"indexed": false,
							"internalType": "string",
							"name": "logResult",
							"type": "string"
						}
					],
					"name": "showResult",
					"type": "event"
				},
				{
					"anonymous": false,
					"inputs": [
						{
							"indexed": true,
							"internalType": "address",
							"name": "logUserAddress",
							"type": "address"
						}
					],
					"name": "showUserAddress",
					"type": "event"
				},
				{
					"inputs": [],
					"name": "getGameHistory",
					"outputs": [
						{
							"components": [
								{
									"components": [
										{
											"internalType": "address",
											"name": "userAddress",
											"type": "address"
										},
										{
											"internalType": "uint256",
											"name": "userOption",
											"type": "uint256"
										}
									],
									"internalType": "struct RockPaperScissors.UserInfo",
									"name": "user1",
									"type": "tuple"
								},
								{
									"components": [
										{
											"internalType": "address",
											"name": "userAddress",
											"type": "address"
										},
										{
											"internalType": "uint256",
											"name": "userOption",
											"type": "uint256"
										}
									],
									"internalType": "struct RockPaperScissors.UserInfo",
									"name": "user2",
									"type": "tuple"
								},
								{
									"internalType": "string",
									"name": "finalResult",
									"type": "string"
								}
							],
							"internalType": "struct RockPaperScissors.GameInfo[]",
							"name": "",
							"type": "tuple[]"
						}
					],
					"stateMutability": "view",
					"type": "function"
				},
				{
					"inputs": [
						{
							"internalType": "uint256",
							"name": "index",
							"type": "uint256"
						}
					],
					"name": "getSpecificGameHistory",
					"outputs": [
						{
							"components": [
								{
									"components": [
										{
											"internalType": "address",
											"name": "userAddress",
											"type": "address"
										},
										{
											"internalType": "uint256",
											"name": "userOption",
											"type": "uint256"
										}
									],
									"internalType": "struct RockPaperScissors.UserInfo",
									"name": "user1",
									"type": "tuple"
								},
								{
									"components": [
										{
											"internalType": "address",
											"name": "userAddress",
											"type": "address"
										},
										{
											"internalType": "uint256",
											"name": "userOption",
											"type": "uint256"
										}
									],
									"internalType": "struct RockPaperScissors.UserInfo",
									"name": "user2",
									"type": "tuple"
								},
								{
									"internalType": "string",
									"name": "finalResult",
									"type": "string"
								}
							],
							"internalType": "struct RockPaperScissors.GameInfo",
							"name": "",
							"type": "tuple"
						}
					],
					"stateMutability": "view",
					"type": "function"
				},
				{
					"inputs": [
						{
							"internalType": "uint256",
							"name": "index",
							"type": "uint256"
						}
					],
					"name": "getUser1",
					"outputs": [
						{
							"components": [
								{
									"internalType": "address",
									"name": "userAddress",
									"type": "address"
								},
								{
									"internalType": "uint256",
									"name": "userOption",
									"type": "uint256"
								}
							],
							"internalType": "struct RockPaperScissors.UserInfo",
							"name": "",
							"type": "tuple"
						}
					],
					"stateMutability": "view",
					"type": "function"
				},
				{
					"inputs": [],
					"name": "play",
					"outputs": [],
					"stateMutability": "nonpayable",
					"type": "function"
				},
				{
					"inputs": [],
					"name": "user1address",
					"outputs": [
						{
							"internalType": "address",
							"name": "",
							"type": "address"
						}
					],
					"stateMutability": "view",
					"type": "function"
				},
				{
					"inputs": [],
					"name": "user2address",
					"outputs": [
						{
							"internalType": "address",
							"name": "",
							"type": "address"
						}
					],
					"stateMutability": "view",
					"type": "function"
				},
				{
					"inputs": [
						{
							"internalType": "uint256",
							"name": "option",
							"type": "uint256"
						}
					],
					"name": "userEnterOption",
					"outputs": [],
					"stateMutability": "nonpayable",
					"type": "function"
				}
			],
			"devdoc": {
				"kind": "dev",
				"methods": {},
				"version": 1
			},
			"evm": {
				"assembly": "    /* \"Practical3-Use-UI_Play-Jason.sol\":60:5637  contract RockPaperScissors {... */\n  mstore(0x40, 0x80)\n    /* \"Practical3-Use-UI_Play-Jason.sol\":531:532  0 */\n  0x00\n    /* \"Practical3-Use-UI_Play-Jason.sol\":506:532  uint private userCount = 0 */\n  dup1\n  sstore\n    /* \"Practical3-Use-UI_Play-Jason.sol\":60:5637  contract RockPaperScissors {... */\n  callvalue\n  dup1\n  iszero\n  tag_1\n  jumpi\n  0x00\n  dup1\n  revert\ntag_1:\n  pop\n  dataSize(sub_0)\n  dup1\n  dataOffset(sub_0)\n  0x00\n  codecopy\n  0x00\n  return\nstop\n\nsub_0: assembly {\n        /* \"Practical3-Use-UI_Play-Jason.sol\":60:5637  contract RockPaperScissors {... */\n      mstore(0x40, 0x80)\n      callvalue\n      dup1\n      iszero\n      tag_1\n      jumpi\n      0x00\n      dup1\n      revert\n    tag_1:\n      pop\n      jumpi(tag_2, lt(calldatasize, 0x04))\n      shr(0xe0, calldataload(0x00))\n      dup1\n      0x6ef595d8\n      gt\n      tag_10\n      jumpi\n      dup1\n      0x6ef595d8\n      eq\n      tag_6\n      jumpi\n      dup1\n      0x93e84cd9\n      eq\n      tag_7\n      jumpi\n      dup1\n      0xe417f4a3\n      eq\n      tag_8\n      jumpi\n      dup1\n      0xf7c4efbb\n      eq\n      tag_9\n      jumpi\n      jump(tag_2)\n    tag_10:\n      dup1\n      0x2cde7869\n      eq\n      tag_3\n      jumpi\n      dup1\n      0x3d5e9d2d\n      eq\n      tag_4\n      jumpi\n      dup1\n      0x512ec557\n      eq\n      tag_5\n      jumpi\n    tag_2:\n      0x00\n      dup1\n      revert\n        /* \"Practical3-Use-UI_Play-Jason.sol\":3677:4422  function userEnterOption (uint option) external {... */\n    tag_3:\n      tag_11\n      0x04\n      dup1\n      calldatasize\n      sub\n      dup2\n      add\n      swap1\n      tag_12\n      swap2\n      swap1\n      tag_13\n      jump\t// in\n    tag_12:\n      tag_14\n      jump\t// in\n    tag_11:\n      stop\n        /* \"Practical3-Use-UI_Play-Jason.sol\":746:773  address public user2address */\n    tag_4:\n      tag_15\n      tag_16\n      jump\t// in\n    tag_15:\n      mload(0x40)\n      tag_17\n      swap2\n      swap1\n      tag_18\n      jump\t// in\n    tag_17:\n      mload(0x40)\n      dup1\n      swap2\n      sub\n      swap1\n      return\n        /* \"Practical3-Use-UI_Play-Jason.sol\":1317:1474  function getGameHistory () external view returns(GameInfo[] memory){... */\n    tag_5:\n      tag_19\n      tag_20\n      jump\t// in\n    tag_19:\n      mload(0x40)\n      tag_21\n      swap2\n      swap1\n      tag_22\n      jump\t// in\n    tag_21:\n      mload(0x40)\n      dup1\n      swap2\n      sub\n      swap1\n      return\n        /* \"Practical3-Use-UI_Play-Jason.sol\":712:739  address public user1address */\n    tag_6:\n      tag_23\n      tag_24\n      jump\t// in\n    tag_23:\n      mload(0x40)\n      tag_25\n      swap2\n      swap1\n      tag_18\n      jump\t// in\n    tag_25:\n      mload(0x40)\n      dup1\n      swap2\n      sub\n      swap1\n      return\n        /* \"Practical3-Use-UI_Play-Jason.sol\":2333:3629  function play () external noReentrancy{... */\n    tag_7:\n      tag_26\n      tag_27\n      jump\t// in\n    tag_26:\n      stop\n        /* \"Practical3-Use-UI_Play-Jason.sol\":1017:1261  function getUser1 (uint index) external view returns(UserInfo memory){... */\n    tag_8:\n      tag_28\n      0x04\n      dup1\n      calldatasize\n      sub\n      dup2\n      add\n      swap1\n      tag_29\n      swap2\n      swap1\n      tag_13\n      jump\t// in\n    tag_29:\n      tag_30\n      jump\t// in\n    tag_28:\n      mload(0x40)\n      tag_31\n      swap2\n      swap1\n      tag_32\n      jump\t// in\n    tag_31:\n      mload(0x40)\n      dup1\n      swap2\n      sub\n      swap1\n      return\n        /* \"Practical3-Use-UI_Play-Jason.sol\":1482:1951  function getSpecificGameHistory (uint index) external view returns(GameInfo memory){... */\n    tag_9:\n      tag_33\n      0x04\n      dup1\n      calldatasize\n      sub\n      dup2\n      add\n      swap1\n      tag_34\n      swap2\n      swap1\n      tag_13\n      jump\t// in\n    tag_34:\n      tag_35\n      jump\t// in\n    tag_33:\n      mload(0x40)\n      tag_36\n      swap2\n      swap1\n      tag_37\n      jump\t// in\n    tag_36:\n      mload(0x40)\n      dup1\n      swap2\n      sub\n      swap1\n      return\n        /* \"Practical3-Use-UI_Play-Jason.sol\":3677:4422  function userEnterOption (uint option) external {... */\n    tag_14:\n        /* \"Practical3-Use-UI_Play-Jason.sol\":3753:3764  gameHistory */\n      0x01\n        /* \"Practical3-Use-UI_Play-Jason.sol\":3786:3787  1 */\n      dup1\n        /* \"Practical3-Use-UI_Play-Jason.sol\":3765:3776  gameHistory */\n      dup1\n        /* \"Practical3-Use-UI_Play-Jason.sol\":3765:3783  gameHistory.length */\n      dup1\n      sload\n      swap1\n      pop\n        /* \"Practical3-Use-UI_Play-Jason.sol\":3765:3787  gameHistory.length - 1 */\n      tag_39\n      swap2\n      swap1\n      tag_40\n      jump\t// in\n    tag_39:\n        /* \"Practical3-Use-UI_Play-Jason.sol\":3753:3788  gameHistory[gameHistory.length - 1] */\n      dup2\n      sload\n      dup2\n      lt\n      tag_41\n      jumpi\n      tag_42\n      tag_43\n      jump\t// in\n    tag_42:\n    tag_41:\n      swap1\n      0x00\n      mstore\n      keccak256(0x00, 0x20)\n      swap1\n      0x05\n      mul\n      add\n        /* \"Practical3-Use-UI_Play-Jason.sol\":3753:3794  gameHistory[gameHistory.length - 1].user1 */\n      0x00\n      add\n        /* \"Practical3-Use-UI_Play-Jason.sol\":3753:3806  gameHistory[gameHistory.length - 1].user1.userAddress */\n      0x00\n      add\n      0x00\n      swap1\n      sload\n      swap1\n      0x0100\n      exp\n      swap1\n      div\n      0xffffffffffffffffffffffffffffffffffffffff\n      and\n        /* \"Practical3-Use-UI_Play-Jason.sol\":3739:3806  msg.sender == gameHistory[gameHistory.length - 1].user1.userAddress */\n      0xffffffffffffffffffffffffffffffffffffffff\n      and\n        /* \"Practical3-Use-UI_Play-Jason.sol\":3739:3749  msg.sender */\n      caller\n        /* \"Practical3-Use-UI_Play-Jason.sol\":3739:3806  msg.sender == gameHistory[gameHistory.length - 1].user1.userAddress */\n      0xffffffffffffffffffffffffffffffffffffffff\n      and\n      sub\n        /* \"Practical3-Use-UI_Play-Jason.sol\":3736:4108  if(msg.sender == gameHistory[gameHistory.length - 1].user1.userAddress){... */\n      tag_45\n      jumpi\n        /* \"Practical3-Use-UI_Play-Jason.sol\":3877:3883  option */\n      dup1\n        /* \"Practical3-Use-UI_Play-Jason.sol\":3822:3833  gameHistory */\n      0x01\n        /* \"Practical3-Use-UI_Play-Jason.sol\":3855:3856  1 */\n      dup1\n        /* \"Practical3-Use-UI_Play-Jason.sol\":3834:3845  gameHistory */\n      dup1\n        /* \"Practical3-Use-UI_Play-Jason.sol\":3834:3852  gameHistory.length */\n      dup1\n      sload\n      swap1\n      pop\n        /* \"Practical3-Use-UI_Play-Jason.sol\":3834:3856  gameHistory.length - 1 */\n      tag_46\n      swap2\n      swap1\n      tag_40\n      jump\t// in\n    tag_46:\n        /* \"Practical3-Use-UI_Play-Jason.sol\":3822:3857  gameHistory[gameHistory.length - 1] */\n      dup2\n      sload\n      dup2\n      lt\n      tag_47\n      jumpi\n      tag_48\n      tag_43\n      jump\t// in\n    tag_48:\n    tag_47:\n      swap1\n      0x00\n      mstore\n      keccak256(0x00, 0x20)\n      swap1\n      0x05\n      mul\n      add\n        /* \"Practical3-Use-UI_Play-Jason.sol\":3822:3863  gameHistory[gameHistory.length - 1].user1 */\n      0x00\n      add\n        /* \"Practical3-Use-UI_Play-Jason.sol\":3822:3874  gameHistory[gameHistory.length - 1].user1.userOption */\n      0x01\n      add\n        /* \"Practical3-Use-UI_Play-Jason.sol\":3822:3883  gameHistory[gameHistory.length - 1].user1.userOption = option */\n      dup2\n      swap1\n      sstore\n      pop\n        /* \"Practical3-Use-UI_Play-Jason.sol\":3736:4108  if(msg.sender == gameHistory[gameHistory.length - 1].user1.userAddress){... */\n      jump(tag_50)\n    tag_45:\n        /* \"Practical3-Use-UI_Play-Jason.sol\":3941:3952  gameHistory */\n      0x01\n        /* \"Practical3-Use-UI_Play-Jason.sol\":3974:3975  1 */\n      dup1\n        /* \"Practical3-Use-UI_Play-Jason.sol\":3953:3964  gameHistory */\n      dup1\n        /* \"Practical3-Use-UI_Play-Jason.sol\":3953:3971  gameHistory.length */\n      dup1\n      sload\n      swap1\n      pop\n        /* \"Practical3-Use-UI_Play-Jason.sol\":3953:3975  gameHistory.length - 1 */\n      tag_51\n      swap2\n      swap1\n      tag_40\n      jump\t// in\n    tag_51:\n        /* \"Practical3-Use-UI_Play-Jason.sol\":3941:3976  gameHistory[gameHistory.length - 1] */\n      dup2\n      sload\n      dup2\n      lt\n      tag_52\n      jumpi\n      tag_53\n      tag_43\n      jump\t// in\n    tag_53:\n    tag_52:\n      swap1\n      0x00\n      mstore\n      keccak256(0x00, 0x20)\n      swap1\n      0x05\n      mul\n      add\n        /* \"Practical3-Use-UI_Play-Jason.sol\":3941:3982  gameHistory[gameHistory.length - 1].user2 */\n      0x02\n      add\n        /* \"Practical3-Use-UI_Play-Jason.sol\":3941:3994  gameHistory[gameHistory.length - 1].user2.userAddress */\n      0x00\n      add\n      0x00\n      swap1\n      sload\n      swap1\n      0x0100\n      exp\n      swap1\n      div\n      0xffffffffffffffffffffffffffffffffffffffff\n      and\n        /* \"Practical3-Use-UI_Play-Jason.sol\":3927:3994  msg.sender == gameHistory[gameHistory.length - 1].user2.userAddress */\n      0xffffffffffffffffffffffffffffffffffffffff\n      and\n        /* \"Practical3-Use-UI_Play-Jason.sol\":3927:3937  msg.sender */\n      caller\n        /* \"Practical3-Use-UI_Play-Jason.sol\":3927:3994  msg.sender == gameHistory[gameHistory.length - 1].user2.userAddress */\n      0xffffffffffffffffffffffffffffffffffffffff\n      and\n      sub\n        /* \"Practical3-Use-UI_Play-Jason.sol\":3924:4091  if(msg.sender == gameHistory[gameHistory.length - 1].user2.userAddress){... */\n      tag_55\n      jumpi\n        /* \"Practical3-Use-UI_Play-Jason.sol\":4069:4075  option */\n      dup1\n        /* \"Practical3-Use-UI_Play-Jason.sol\":4014:4025  gameHistory */\n      0x01\n        /* \"Practical3-Use-UI_Play-Jason.sol\":4047:4048  1 */\n      dup1\n        /* \"Practical3-Use-UI_Play-Jason.sol\":4026:4037  gameHistory */\n      dup1\n        /* \"Practical3-Use-UI_Play-Jason.sol\":4026:4044  gameHistory.length */\n      dup1\n      sload\n      swap1\n      pop\n        /* \"Practical3-Use-UI_Play-Jason.sol\":4026:4048  gameHistory.length - 1 */\n      tag_56\n      swap2\n      swap1\n      tag_40\n      jump\t// in\n    tag_56:\n        /* \"Practical3-Use-UI_Play-Jason.sol\":4014:4049  gameHistory[gameHistory.length - 1] */\n      dup2\n      sload\n      dup2\n      lt\n      tag_57\n      jumpi\n      tag_58\n      tag_43\n      jump\t// in\n    tag_58:\n    tag_57:\n      swap1\n      0x00\n      mstore\n      keccak256(0x00, 0x20)\n      swap1\n      0x05\n      mul\n      add\n        /* \"Practical3-Use-UI_Play-Jason.sol\":4014:4055  gameHistory[gameHistory.length - 1].user2 */\n      0x02\n      add\n        /* \"Practical3-Use-UI_Play-Jason.sol\":4014:4066  gameHistory[gameHistory.length - 1].user2.userOption */\n      0x01\n      add\n        /* \"Practical3-Use-UI_Play-Jason.sol\":4014:4075  gameHistory[gameHistory.length - 1].user2.userOption = option */\n      dup2\n      swap1\n      sstore\n      pop\n        /* \"Practical3-Use-UI_Play-Jason.sol\":3924:4091  if(msg.sender == gameHistory[gameHistory.length - 1].user2.userAddress){... */\n    tag_55:\n        /* \"Practical3-Use-UI_Play-Jason.sol\":3736:4108  if(msg.sender == gameHistory[gameHistory.length - 1].user1.userAddress){... */\n    tag_50:\n        /* \"Practical3-Use-UI_Play-Jason.sol\":4232:4233  0 */\n      0x00\n        /* \"Practical3-Use-UI_Play-Jason.sol\":4175:4186  gameHistory */\n      0x01\n        /* \"Practical3-Use-UI_Play-Jason.sol\":4208:4209  1 */\n      dup1\n        /* \"Practical3-Use-UI_Play-Jason.sol\":4187:4198  gameHistory */\n      dup1\n        /* \"Practical3-Use-UI_Play-Jason.sol\":4187:4205  gameHistory.length */\n      dup1\n      sload\n      swap1\n      pop\n        /* \"Practical3-Use-UI_Play-Jason.sol\":4187:4209  gameHistory.length - 1 */\n      tag_60\n      swap2\n      swap1\n      tag_40\n      jump\t// in\n    tag_60:\n        /* \"Practical3-Use-UI_Play-Jason.sol\":4175:4210  gameHistory[gameHistory.length - 1] */\n      dup2\n      sload\n      dup2\n      lt\n      tag_61\n      jumpi\n      tag_62\n      tag_43\n      jump\t// in\n    tag_62:\n    tag_61:\n      swap1\n      0x00\n      mstore\n      keccak256(0x00, 0x20)\n      swap1\n      0x05\n      mul\n      add\n        /* \"Practical3-Use-UI_Play-Jason.sol\":4175:4216  gameHistory[gameHistory.length - 1].user1 */\n      0x00\n      add\n        /* \"Practical3-Use-UI_Play-Jason.sol\":4175:4227  gameHistory[gameHistory.length - 1].user1.userOption */\n      0x01\n      add\n      sload\n        /* \"Practical3-Use-UI_Play-Jason.sol\":4174:4233  (gameHistory[gameHistory.length - 1].user1.userOption) != 0 */\n      eq\n      iszero\n        /* \"Practical3-Use-UI_Play-Jason.sol\":4174:4296  (gameHistory[gameHistory.length - 1].user1.userOption) != 0 && (gameHistory[gameHistory.length - 1].user2.userOption) != 0 */\n      dup1\n      iszero\n      tag_64\n      jumpi\n      pop\n        /* \"Practical3-Use-UI_Play-Jason.sol\":4295:4296  0 */\n      0x00\n        /* \"Practical3-Use-UI_Play-Jason.sol\":4238:4249  gameHistory */\n      0x01\n        /* \"Practical3-Use-UI_Play-Jason.sol\":4271:4272  1 */\n      dup1\n        /* \"Practical3-Use-UI_Play-Jason.sol\":4250:4261  gameHistory */\n      dup1\n        /* \"Practical3-Use-UI_Play-Jason.sol\":4250:4268  gameHistory.length */\n      dup1\n      sload\n      swap1\n      pop\n        /* \"Practical3-Use-UI_Play-Jason.sol\":4250:4272  gameHistory.length - 1 */\n      tag_65\n      swap2\n      swap1\n      tag_40\n      jump\t// in\n    tag_65:\n        /* \"Practical3-Use-UI_Play-Jason.sol\":4238:4273  gameHistory[gameHistory.length - 1] */\n      dup2\n      sload\n      dup2\n      lt\n      tag_66\n      jumpi\n      tag_67\n      tag_43\n      jump\t// in\n    tag_67:\n    tag_66:\n      swap1\n      0x00\n      mstore\n      keccak256(0x00, 0x20)\n      swap1\n      0x05\n      mul\n      add\n        /* \"Practical3-Use-UI_Play-Jason.sol\":4238:4279  gameHistory[gameHistory.length - 1].user2 */\n      0x02\n      add\n        /* \"Practical3-Use-UI_Play-Jason.sol\":4238:4290  gameHistory[gameHistory.length - 1].user2.userOption */\n      0x01\n      add\n      sload\n        /* \"Practical3-Use-UI_Play-Jason.sol\":4237:4296  (gameHistory[gameHistory.length - 1].user2.userOption) != 0 */\n      eq\n      iszero\n        /* \"Practical3-Use-UI_Play-Jason.sol\":4174:4296  (gameHistory[gameHistory.length - 1].user1.userOption) != 0 && (gameHistory[gameHistory.length - 1].user2.userOption) != 0 */\n    tag_64:\n        /* \"Practical3-Use-UI_Play-Jason.sol\":4171:4415  if((gameHistory[gameHistory.length - 1].user1.userOption) != 0 && (gameHistory[gameHistory.length - 1].user2.userOption) != 0){... */\n      iszero\n      tag_69\n      jumpi\n        /* \"Practical3-Use-UI_Play-Jason.sol\":4317:4354  showError(\"go in to condition check\") */\n      0x1d229a771174308da40f70761ba48b700922b118fea40f5e3705f7067c12cc38\n      mload(0x40)\n      tag_70\n      swap1\n      tag_71\n      jump\t// in\n    tag_70:\n      mload(0x40)\n      dup1\n      swap2\n      sub\n      swap1\n      log1\n        /* \"Practical3-Use-UI_Play-Jason.sol\":4369:4375  game() */\n      tag_72\n        /* \"Practical3-Use-UI_Play-Jason.sol\":4369:4373  game */\n      tag_73\n        /* \"Practical3-Use-UI_Play-Jason.sol\":4369:4375  game() */\n      jump\t// in\n    tag_72:\n        /* \"Practical3-Use-UI_Play-Jason.sol\":4402:4403  0 */\n      0x00\n        /* \"Practical3-Use-UI_Play-Jason.sol\":4390:4399  userCount */\n      dup1\n        /* \"Practical3-Use-UI_Play-Jason.sol\":4390:4403  userCount = 0 */\n      dup2\n      swap1\n      sstore\n      pop\n        /* \"Practical3-Use-UI_Play-Jason.sol\":4171:4415  if((gameHistory[gameHistory.length - 1].user1.userOption) != 0 && (gameHistory[gameHistory.length - 1].user2.userOption) != 0){... */\n    tag_69:\n        /* \"Practical3-Use-UI_Play-Jason.sol\":3677:4422  function userEnterOption (uint option) external {... */\n      pop\n      jump\t// out\n        /* \"Practical3-Use-UI_Play-Jason.sol\":746:773  address public user2address */\n    tag_16:\n      0x03\n      0x00\n      swap1\n      sload\n      swap1\n      0x0100\n      exp\n      swap1\n      div\n      0xffffffffffffffffffffffffffffffffffffffff\n      and\n      dup2\n      jump\t// out\n        /* \"Practical3-Use-UI_Play-Jason.sol\":1317:1474  function getGameHistory () external view returns(GameInfo[] memory){... */\n    tag_20:\n        /* \"Practical3-Use-UI_Play-Jason.sol\":1366:1383  GameInfo[] memory */\n      0x60\n        /* \"Practical3-Use-UI_Play-Jason.sol\":1454:1465  gameHistory */\n      0x01\n        /* \"Practical3-Use-UI_Play-Jason.sol\":1446:1466  return (gameHistory) */\n      dup1\n      sload\n      dup1\n      0x20\n      mul\n      0x20\n      add\n      mload(0x40)\n      swap1\n      dup2\n      add\n      0x40\n      mstore\n      dup1\n      swap3\n      swap2\n      swap1\n      dup2\n      dup2\n      mstore\n      0x20\n      add\n      0x00\n      swap1\n    tag_75:\n      dup3\n      dup3\n      lt\n      iszero\n      tag_76\n      jumpi\n      dup4\n      dup3\n      swap1\n      0x00\n      mstore\n      keccak256(0x00, 0x20)\n      swap1\n      0x05\n      mul\n      add\n      mload(0x40)\n      dup1\n      0x60\n      add\n      0x40\n      mstore\n      swap1\n      dup2\n      0x00\n      dup3\n      add\n      mload(0x40)\n      dup1\n      0x40\n      add\n      0x40\n      mstore\n      swap1\n      dup2\n      0x00\n      dup3\n      add\n      0x00\n      swap1\n      sload\n      swap1\n      0x0100\n      exp\n      swap1\n      div\n      0xffffffffffffffffffffffffffffffffffffffff\n      and\n      0xffffffffffffffffffffffffffffffffffffffff\n      and\n      0xffffffffffffffffffffffffffffffffffffffff\n      and\n      dup2\n      mstore\n      0x20\n      add\n      0x01\n      dup3\n      add\n      sload\n      dup2\n      mstore\n      pop\n      pop\n      dup2\n      mstore\n      0x20\n      add\n      0x02\n      dup3\n      add\n      mload(0x40)\n      dup1\n      0x40\n      add\n      0x40\n      mstore\n      swap1\n      dup2\n      0x00\n      dup3\n      add\n      0x00\n      swap1\n      sload\n      swap1\n      0x0100\n      exp\n      swap1\n      div\n      0xffffffffffffffffffffffffffffffffffffffff\n      and\n      0xffffffffffffffffffffffffffffffffffffffff\n      and\n      0xffffffffffffffffffffffffffffffffffffffff\n      and\n      dup2\n      mstore\n      0x20\n      add\n      0x01\n      dup3\n      add\n      sload\n      dup2\n      mstore\n      pop\n      pop\n      dup2\n      mstore\n      0x20\n      add\n      0x04\n      dup3\n      add\n      dup1\n      sload\n      tag_78\n      swap1\n      tag_79\n      jump\t// in\n    tag_78:\n      dup1\n      0x1f\n      add\n      0x20\n      dup1\n      swap2\n      div\n      mul\n      0x20\n      add\n      mload(0x40)\n      swap1\n      dup2\n      add\n      0x40\n      mstore\n      dup1\n      swap3\n      swap2\n      swap1\n      dup2\n      dup2\n      mstore\n      0x20\n      add\n      dup3\n      dup1\n      sload\n      tag_80\n      swap1\n      tag_79\n      jump\t// in\n    tag_80:\n      dup1\n      iszero\n      tag_81\n      jumpi\n      dup1\n      0x1f\n      lt\n      tag_82\n      jumpi\n      0x0100\n      dup1\n      dup4\n      sload\n      div\n      mul\n      dup4\n      mstore\n      swap2\n      0x20\n      add\n      swap2\n      jump(tag_81)\n    tag_82:\n      dup3\n      add\n      swap2\n      swap1\n      0x00\n      mstore\n      keccak256(0x00, 0x20)\n      swap1\n    tag_83:\n      dup2\n      sload\n      dup2\n      mstore\n      swap1\n      0x01\n      add\n      swap1\n      0x20\n      add\n      dup1\n      dup4\n      gt\n      tag_83\n      jumpi\n      dup3\n      swap1\n      sub\n      0x1f\n      and\n      dup3\n      add\n      swap2\n    tag_81:\n      pop\n      pop\n      pop\n      pop\n      pop\n      dup2\n      mstore\n      pop\n      pop\n      dup2\n      mstore\n      0x20\n      add\n      swap1\n      0x01\n      add\n      swap1\n      jump(tag_75)\n    tag_76:\n      pop\n      pop\n      pop\n      pop\n      swap1\n      pop\n        /* \"Practical3-Use-UI_Play-Jason.sol\":1317:1474  function getGameHistory () external view returns(GameInfo[] memory){... */\n      swap1\n      jump\t// out\n        /* \"Practical3-Use-UI_Play-Jason.sol\":712:739  address public user1address */\n    tag_24:\n      0x02\n      0x01\n      swap1\n      sload\n      swap1\n      0x0100\n      exp\n      swap1\n      div\n      0xffffffffffffffffffffffffffffffffffffffff\n      and\n      dup2\n      jump\t// out\n        /* \"Practical3-Use-UI_Play-Jason.sol\":2333:3629  function play () external noReentrancy{... */\n    tag_27:\n        /* \"Practical3-Use-UI_Play-Jason.sol\":2092:2098  locked */\n      0x02\n      0x00\n      swap1\n      sload\n      swap1\n      0x0100\n      exp\n      swap1\n      div\n      0xff\n      and\n        /* \"Practical3-Use-UI_Play-Jason.sol\":2091:2098  !locked */\n      iszero\n        /* \"Practical3-Use-UI_Play-Jason.sol\":2083:2124  require(!locked, \"Error: Reentrant call\") */\n      tag_85\n      jumpi\n      mload(0x40)\n      0x08c379a000000000000000000000000000000000000000000000000000000000\n      dup2\n      mstore\n      0x04\n      add\n      tag_86\n      swap1\n      tag_87\n      jump\t// in\n    tag_86:\n      mload(0x40)\n      dup1\n      swap2\n      sub\n      swap1\n      revert\n    tag_85:\n        /* \"Practical3-Use-UI_Play-Jason.sol\":2144:2148  true */\n      0x01\n        /* \"Practical3-Use-UI_Play-Jason.sol\":2135:2141  locked */\n      0x02\n      0x00\n        /* \"Practical3-Use-UI_Play-Jason.sol\":2135:2148  locked = true */\n      0x0100\n      exp\n      dup2\n      sload\n      dup2\n      0xff\n      mul\n      not\n      and\n      swap1\n      dup4\n      iszero\n      iszero\n      mul\n      or\n      swap1\n      sstore\n      pop\n        /* \"Practical3-Use-UI_Play-Jason.sol\":2400:2401  0 */\n      0x00\n        /* \"Practical3-Use-UI_Play-Jason.sol\":2387:2396  userCount */\n      dup1\n      sload\n        /* \"Practical3-Use-UI_Play-Jason.sol\":2387:2401  userCount == 0 */\n      sub\n        /* \"Practical3-Use-UI_Play-Jason.sol\":2384:3622  if(userCount == 0){... */\n      tag_89\n      jumpi\n        /* \"Practical3-Use-UI_Play-Jason.sol\":2499:2523  GameInfo memory gameInfo */\n      tag_90\n      tag_91\n      jump\t// in\n    tag_90:\n        /* \"Practical3-Use-UI_Play-Jason.sol\":2538:2549  gameHistory */\n      0x01\n        /* \"Practical3-Use-UI_Play-Jason.sol\":2555:2563  gameInfo */\n      dup2\n        /* \"Practical3-Use-UI_Play-Jason.sol\":2538:2564  gameHistory.push(gameInfo) */\n      swap1\n      dup1\n      0x01\n      dup2\n      sload\n      add\n      dup1\n      dup3\n      sstore\n      dup1\n      swap2\n      pop\n      pop\n      0x01\n      swap1\n      sub\n      swap1\n      0x00\n      mstore\n      keccak256(0x00, 0x20)\n      swap1\n      0x05\n      mul\n      add\n      0x00\n      swap1\n      swap2\n      swap1\n      swap2\n      swap1\n      swap2\n      pop\n      0x00\n      dup3\n      add\n      mload\n      dup2\n      0x00\n      add\n      0x00\n      dup3\n      add\n      mload\n      dup2\n      0x00\n      add\n      exp(0x0100, 0x00)\n      dup2\n      sload\n      dup2\n      0xffffffffffffffffffffffffffffffffffffffff\n      mul\n      not\n      and\n      swap1\n      dup4\n      0xffffffffffffffffffffffffffffffffffffffff\n      and\n      mul\n      or\n      swap1\n      sstore\n      pop\n      0x20\n      dup3\n      add\n      mload\n      dup2\n      0x01\n      add\n      sstore\n      pop\n      pop\n      0x20\n      dup3\n      add\n      mload\n      dup2\n      0x02\n      add\n      0x00\n      dup3\n      add\n      mload\n      dup2\n      0x00\n      add\n      exp(0x0100, 0x00)\n      dup2\n      sload\n      dup2\n      0xffffffffffffffffffffffffffffffffffffffff\n      mul\n      not\n      and\n      swap1\n      dup4\n      0xffffffffffffffffffffffffffffffffffffffff\n      and\n      mul\n      or\n      swap1\n      sstore\n      pop\n      0x20\n      dup3\n      add\n      mload\n      dup2\n      0x01\n      add\n      sstore\n      pop\n      pop\n      0x40\n      dup3\n      add\n      mload\n      dup2\n      0x04\n      add\n      swap1\n      dup2\n      tag_93\n      swap2\n      swap1\n      tag_94\n      jump\t// in\n    tag_93:\n      pop\n      pop\n      pop\n        /* \"Practical3-Use-UI_Play-Jason.sol\":2706:2716  msg.sender */\n      caller\n        /* \"Practical3-Use-UI_Play-Jason.sol\":2650:2661  gameHistory */\n      0x01\n        /* \"Practical3-Use-UI_Play-Jason.sol\":2683:2684  1 */\n      dup1\n        /* \"Practical3-Use-UI_Play-Jason.sol\":2662:2673  gameHistory */\n      dup1\n        /* \"Practical3-Use-UI_Play-Jason.sol\":2662:2680  gameHistory.length */\n      dup1\n      sload\n      swap1\n      pop\n        /* \"Practical3-Use-UI_Play-Jason.sol\":2662:2684  gameHistory.length - 1 */\n      tag_95\n      swap2\n      swap1\n      tag_40\n      jump\t// in\n    tag_95:\n        /* \"Practical3-Use-UI_Play-Jason.sol\":2650:2685  gameHistory[gameHistory.length - 1] */\n      dup2\n      sload\n      dup2\n      lt\n      tag_96\n      jumpi\n      tag_97\n      tag_43\n      jump\t// in\n    tag_97:\n    tag_96:\n      swap1\n      0x00\n      mstore\n      keccak256(0x00, 0x20)\n      swap1\n      0x05\n      mul\n      add\n        /* \"Practical3-Use-UI_Play-Jason.sol\":2650:2691  gameHistory[gameHistory.length - 1].user1 */\n      0x00\n      add\n        /* \"Practical3-Use-UI_Play-Jason.sol\":2650:2703  gameHistory[gameHistory.length - 1].user1.userAddress */\n      0x00\n      add\n      0x00\n        /* \"Practical3-Use-UI_Play-Jason.sol\":2650:2716  gameHistory[gameHistory.length - 1].user1.userAddress = msg.sender */\n      0x0100\n      exp\n      dup2\n      sload\n      dup2\n      0xffffffffffffffffffffffffffffffffffffffff\n      mul\n      not\n      and\n      swap1\n      dup4\n      0xffffffffffffffffffffffffffffffffffffffff\n      and\n      mul\n      or\n      swap1\n      sstore\n      pop\n        /* \"Practical3-Use-UI_Play-Jason.sol\":2746:2756  msg.sender */\n      caller\n        /* \"Practical3-Use-UI_Play-Jason.sol\":2731:2743  user1address */\n      0x02\n      0x01\n        /* \"Practical3-Use-UI_Play-Jason.sol\":2731:2756  user1address = msg.sender */\n      0x0100\n      exp\n      dup2\n      sload\n      dup2\n      0xffffffffffffffffffffffffffffffffffffffff\n      mul\n      not\n      and\n      swap1\n      dup4\n      0xffffffffffffffffffffffffffffffffffffffff\n      and\n      mul\n      or\n      swap1\n      sstore\n      pop\n        /* \"Practical3-Use-UI_Play-Jason.sol\":2800:2809  userCount */\n      0x00\n      dup1\n        /* \"Practical3-Use-UI_Play-Jason.sol\":2800:2811  userCount++ */\n      dup2\n      sload\n      dup1\n      swap3\n      swap2\n      swap1\n      tag_99\n      swap1\n      tag_100\n      jump\t// in\n    tag_99:\n      swap2\n      swap1\n      pop\n      sstore\n      pop\n        /* \"Practical3-Use-UI_Play-Jason.sol\":2402:2823  {... */\n      pop\n        /* \"Practical3-Use-UI_Play-Jason.sol\":2384:3622  if(userCount == 0){... */\n      jump(tag_101)\n    tag_89:\n        /* \"Practical3-Use-UI_Play-Jason.sol\":2933:2944  gameHistory */\n      0x01\n        /* \"Practical3-Use-UI_Play-Jason.sol\":2966:2967  1 */\n      dup1\n        /* \"Practical3-Use-UI_Play-Jason.sol\":2945:2956  gameHistory */\n      dup1\n        /* \"Practical3-Use-UI_Play-Jason.sol\":2945:2963  gameHistory.length */\n      dup1\n      sload\n      swap1\n      pop\n        /* \"Practical3-Use-UI_Play-Jason.sol\":2945:2967  gameHistory.length - 1 */\n      tag_102\n      swap2\n      swap1\n      tag_40\n      jump\t// in\n    tag_102:\n        /* \"Practical3-Use-UI_Play-Jason.sol\":2933:2968  gameHistory[gameHistory.length - 1] */\n      dup2\n      sload\n      dup2\n      lt\n      tag_103\n      jumpi\n      tag_104\n      tag_43\n      jump\t// in\n    tag_104:\n    tag_103:\n      swap1\n      0x00\n      mstore\n      keccak256(0x00, 0x20)\n      swap1\n      0x05\n      mul\n      add\n        /* \"Practical3-Use-UI_Play-Jason.sol\":2933:2974  gameHistory[gameHistory.length - 1].user1 */\n      0x00\n      add\n        /* \"Practical3-Use-UI_Play-Jason.sol\":2933:2986  gameHistory[gameHistory.length - 1].user1.userAddress */\n      0x00\n      add\n      0x00\n      swap1\n      sload\n      swap1\n      0x0100\n      exp\n      swap1\n      div\n      0xffffffffffffffffffffffffffffffffffffffff\n      and\n        /* \"Practical3-Use-UI_Play-Jason.sol\":2919:2986  msg.sender != gameHistory[gameHistory.length - 1].user1.userAddress */\n      0xffffffffffffffffffffffffffffffffffffffff\n      and\n        /* \"Practical3-Use-UI_Play-Jason.sol\":2919:2929  msg.sender */\n      caller\n        /* \"Practical3-Use-UI_Play-Jason.sol\":2919:2986  msg.sender != gameHistory[gameHistory.length - 1].user1.userAddress */\n      0xffffffffffffffffffffffffffffffffffffffff\n      and\n      sub\n        /* \"Practical3-Use-UI_Play-Jason.sol\":2911:3026  require(msg.sender != gameHistory[gameHistory.length - 1].user1.userAddress,\"Error: You cannot play with yourself\") */\n      tag_106\n      jumpi\n      mload(0x40)\n      0x08c379a000000000000000000000000000000000000000000000000000000000\n      dup2\n      mstore\n      0x04\n      add\n      tag_107\n      swap1\n      tag_108\n      jump\t// in\n    tag_107:\n      mload(0x40)\n      dup1\n      swap2\n      sub\n      swap1\n      revert\n    tag_106:\n        /* \"Practical3-Use-UI_Play-Jason.sol\":3059:3060  2 */\n      0x02\n        /* \"Practical3-Use-UI_Play-Jason.sol\":3049:3058  userCount */\n      sload(0x00)\n        /* \"Practical3-Use-UI_Play-Jason.sol\":3049:3060  userCount<2 */\n      lt\n        /* \"Practical3-Use-UI_Play-Jason.sol\":3041:3103  require(userCount<2, \"You need to wait for the pervious user\") */\n      tag_109\n      jumpi\n      mload(0x40)\n      0x08c379a000000000000000000000000000000000000000000000000000000000\n      dup2\n      mstore\n      0x04\n      add\n      tag_110\n      swap1\n      tag_111\n      jump\t// in\n    tag_110:\n      mload(0x40)\n      dup1\n      swap2\n      sub\n      swap1\n      revert\n    tag_109:\n        /* \"Practical3-Use-UI_Play-Jason.sol\":3229:3239  msg.sender */\n      caller\n        /* \"Practical3-Use-UI_Play-Jason.sol\":3173:3184  gameHistory */\n      0x01\n        /* \"Practical3-Use-UI_Play-Jason.sol\":3206:3207  1 */\n      dup1\n        /* \"Practical3-Use-UI_Play-Jason.sol\":3185:3196  gameHistory */\n      dup1\n        /* \"Practical3-Use-UI_Play-Jason.sol\":3185:3203  gameHistory.length */\n      dup1\n      sload\n      swap1\n      pop\n        /* \"Practical3-Use-UI_Play-Jason.sol\":3185:3207  gameHistory.length - 1 */\n      tag_112\n      swap2\n      swap1\n      tag_40\n      jump\t// in\n    tag_112:\n        /* \"Practical3-Use-UI_Play-Jason.sol\":3173:3208  gameHistory[gameHistory.length - 1] */\n      dup2\n      sload\n      dup2\n      lt\n      tag_113\n      jumpi\n      tag_114\n      tag_43\n      jump\t// in\n    tag_114:\n    tag_113:\n      swap1\n      0x00\n      mstore\n      keccak256(0x00, 0x20)\n      swap1\n      0x05\n      mul\n      add\n        /* \"Practical3-Use-UI_Play-Jason.sol\":3173:3214  gameHistory[gameHistory.length - 1].user2 */\n      0x02\n      add\n        /* \"Practical3-Use-UI_Play-Jason.sol\":3173:3226  gameHistory[gameHistory.length - 1].user2.userAddress */\n      0x00\n      add\n      0x00\n        /* \"Practical3-Use-UI_Play-Jason.sol\":3173:3239  gameHistory[gameHistory.length - 1].user2.userAddress = msg.sender */\n      0x0100\n      exp\n      dup2\n      sload\n      dup2\n      0xffffffffffffffffffffffffffffffffffffffff\n      mul\n      not\n      and\n      swap1\n      dup4\n      0xffffffffffffffffffffffffffffffffffffffff\n      and\n      mul\n      or\n      swap1\n      sstore\n      pop\n        /* \"Practical3-Use-UI_Play-Jason.sol\":3269:3279  msg.sender */\n      caller\n        /* \"Practical3-Use-UI_Play-Jason.sol\":3254:3266  user2address */\n      0x03\n      0x00\n        /* \"Practical3-Use-UI_Play-Jason.sol\":3254:3279  user2address = msg.sender */\n      0x0100\n      exp\n      dup2\n      sload\n      dup2\n      0xffffffffffffffffffffffffffffffffffffffff\n      mul\n      not\n      and\n      swap1\n      dup4\n      0xffffffffffffffffffffffffffffffffffffffff\n      and\n      mul\n      or\n      swap1\n      sstore\n      pop\n        /* \"Practical3-Use-UI_Play-Jason.sol\":3432:3554  inputOption(gameHistory[gameHistory.length - 1].user1.userAddress , gameHistory[gameHistory.length - 1].user2.userAddress) */\n      0xdaa57ee2c04aee347b88819662fcdb8376824fb89a1f9b97a41edb933a3ba7a6\n        /* \"Practical3-Use-UI_Play-Jason.sol\":3444:3455  gameHistory */\n      0x01\n        /* \"Practical3-Use-UI_Play-Jason.sol\":3477:3478  1 */\n      dup1\n        /* \"Practical3-Use-UI_Play-Jason.sol\":3456:3467  gameHistory */\n      dup1\n        /* \"Practical3-Use-UI_Play-Jason.sol\":3456:3474  gameHistory.length */\n      dup1\n      sload\n      swap1\n      pop\n        /* \"Practical3-Use-UI_Play-Jason.sol\":3456:3478  gameHistory.length - 1 */\n      tag_116\n      swap2\n      swap1\n      tag_40\n      jump\t// in\n    tag_116:\n        /* \"Practical3-Use-UI_Play-Jason.sol\":3444:3479  gameHistory[gameHistory.length - 1] */\n      dup2\n      sload\n      dup2\n      lt\n      tag_117\n      jumpi\n      tag_118\n      tag_43\n      jump\t// in\n    tag_118:\n    tag_117:\n      swap1\n      0x00\n      mstore\n      keccak256(0x00, 0x20)\n      swap1\n      0x05\n      mul\n      add\n        /* \"Practical3-Use-UI_Play-Jason.sol\":3444:3485  gameHistory[gameHistory.length - 1].user1 */\n      0x00\n      add\n        /* \"Practical3-Use-UI_Play-Jason.sol\":3444:3497  gameHistory[gameHistory.length - 1].user1.userAddress */\n      0x00\n      add\n      0x00\n      swap1\n      sload\n      swap1\n      0x0100\n      exp\n      swap1\n      div\n      0xffffffffffffffffffffffffffffffffffffffff\n      and\n        /* \"Practical3-Use-UI_Play-Jason.sol\":3500:3511  gameHistory */\n      0x01\n        /* \"Practical3-Use-UI_Play-Jason.sol\":3533:3534  1 */\n      dup1\n        /* \"Practical3-Use-UI_Play-Jason.sol\":3512:3523  gameHistory */\n      dup1\n        /* \"Practical3-Use-UI_Play-Jason.sol\":3512:3530  gameHistory.length */\n      dup1\n      sload\n      swap1\n      pop\n        /* \"Practical3-Use-UI_Play-Jason.sol\":3512:3534  gameHistory.length - 1 */\n      tag_120\n      swap2\n      swap1\n      tag_40\n      jump\t// in\n    tag_120:\n        /* \"Practical3-Use-UI_Play-Jason.sol\":3500:3535  gameHistory[gameHistory.length - 1] */\n      dup2\n      sload\n      dup2\n      lt\n      tag_121\n      jumpi\n      tag_122\n      tag_43\n      jump\t// in\n    tag_122:\n    tag_121:\n      swap1\n      0x00\n      mstore\n      keccak256(0x00, 0x20)\n      swap1\n      0x05\n      mul\n      add\n        /* \"Practical3-Use-UI_Play-Jason.sol\":3500:3541  gameHistory[gameHistory.length - 1].user2 */\n      0x02\n      add\n        /* \"Practical3-Use-UI_Play-Jason.sol\":3500:3553  gameHistory[gameHistory.length - 1].user2.userAddress */\n      0x00\n      add\n      0x00\n      swap1\n      sload\n      swap1\n      0x0100\n      exp\n      swap1\n      div\n      0xffffffffffffffffffffffffffffffffffffffff\n      and\n        /* \"Practical3-Use-UI_Play-Jason.sol\":3432:3554  inputOption(gameHistory[gameHistory.length - 1].user1.userAddress , gameHistory[gameHistory.length - 1].user2.userAddress) */\n      mload(0x40)\n      tag_124\n      swap3\n      swap2\n      swap1\n      tag_125\n      jump\t// in\n    tag_124:\n      mload(0x40)\n      dup1\n      swap2\n      sub\n      swap1\n      log1\n        /* \"Practical3-Use-UI_Play-Jason.sol\":3599:3608  userCount */\n      0x00\n      dup1\n        /* \"Practical3-Use-UI_Play-Jason.sol\":3599:3610  userCount++ */\n      dup2\n      sload\n      dup1\n      swap3\n      swap2\n      swap1\n      tag_126\n      swap1\n      tag_100\n      jump\t// in\n    tag_126:\n      swap2\n      swap1\n      pop\n      sstore\n      pop\n        /* \"Practical3-Use-UI_Play-Jason.sol\":2384:3622  if(userCount == 0){... */\n    tag_101:\n        /* \"Practical3-Use-UI_Play-Jason.sol\":2180:2185  false */\n      0x00\n        /* \"Practical3-Use-UI_Play-Jason.sol\":2171:2177  locked */\n      0x02\n      0x00\n        /* \"Practical3-Use-UI_Play-Jason.sol\":2171:2185  locked = false */\n      0x0100\n      exp\n      dup2\n      sload\n      dup2\n      0xff\n      mul\n      not\n      and\n      swap1\n      dup4\n      iszero\n      iszero\n      mul\n      or\n      swap1\n      sstore\n      pop\n        /* \"Practical3-Use-UI_Play-Jason.sol\":2333:3629  function play () external noReentrancy{... */\n      jump\t// out\n        /* \"Practical3-Use-UI_Play-Jason.sol\":1017:1261  function getUser1 (uint index) external view returns(UserInfo memory){... */\n    tag_30:\n        /* \"Practical3-Use-UI_Play-Jason.sol\":1070:1085  UserInfo memory */\n      tag_127\n      tag_128\n      jump\t// in\n    tag_127:\n        /* \"Practical3-Use-UI_Play-Jason.sol\":1165:1176  gameHistory */\n      0x01\n        /* \"Practical3-Use-UI_Play-Jason.sol\":1165:1183  gameHistory.length */\n      dup1\n      sload\n      swap1\n      pop\n        /* \"Practical3-Use-UI_Play-Jason.sol\":1156:1161  index */\n      dup3\n        /* \"Practical3-Use-UI_Play-Jason.sol\":1156:1183  index <= gameHistory.length */\n      gt\n      iszero\n        /* \"Practical3-Use-UI_Play-Jason.sol\":1148:1209  require(index <= gameHistory.length, \"Error: Invalid length\") */\n      tag_130\n      jumpi\n      mload(0x40)\n      0x08c379a000000000000000000000000000000000000000000000000000000000\n      dup2\n      mstore\n      0x04\n      add\n      tag_131\n      swap1\n      tag_132\n      jump\t// in\n    tag_131:\n      mload(0x40)\n      dup1\n      swap2\n      sub\n      swap1\n      revert\n    tag_130:\n        /* \"Practical3-Use-UI_Play-Jason.sol\":1228:1239  gameHistory */\n      0x01\n        /* \"Practical3-Use-UI_Play-Jason.sol\":1240:1245  index */\n      dup3\n        /* \"Practical3-Use-UI_Play-Jason.sol\":1228:1246  gameHistory[index] */\n      dup2\n      sload\n      dup2\n      lt\n      tag_133\n      jumpi\n      tag_134\n      tag_43\n      jump\t// in\n    tag_134:\n    tag_133:\n      swap1\n      0x00\n      mstore\n      keccak256(0x00, 0x20)\n      swap1\n      0x05\n      mul\n      add\n        /* \"Practical3-Use-UI_Play-Jason.sol\":1228:1252  gameHistory[index].user1 */\n      0x00\n      add\n        /* \"Practical3-Use-UI_Play-Jason.sol\":1220:1253  return (gameHistory[index].user1) */\n      mload(0x40)\n      dup1\n      0x40\n      add\n      0x40\n      mstore\n      swap1\n      dup2\n      0x00\n      dup3\n      add\n      0x00\n      swap1\n      sload\n      swap1\n      0x0100\n      exp\n      swap1\n      div\n      0xffffffffffffffffffffffffffffffffffffffff\n      and\n      0xffffffffffffffffffffffffffffffffffffffff\n      and\n      0xffffffffffffffffffffffffffffffffffffffff\n      and\n      dup2\n      mstore\n      0x20\n      add\n      0x01\n      dup3\n      add\n      sload\n      dup2\n      mstore\n      pop\n      pop\n      swap1\n      pop\n        /* \"Practical3-Use-UI_Play-Jason.sol\":1017:1261  function getUser1 (uint index) external view returns(UserInfo memory){... */\n      swap2\n      swap1\n      pop\n      jump\t// out\n        /* \"Practical3-Use-UI_Play-Jason.sol\":1482:1951  function getSpecificGameHistory (uint index) external view returns(GameInfo memory){... */\n    tag_35:\n        /* \"Practical3-Use-UI_Play-Jason.sol\":1549:1564  GameInfo memory */\n      tag_136\n      tag_91\n      jump\t// in\n    tag_136:\n        /* \"Practical3-Use-UI_Play-Jason.sol\":1644:1655  gameHistory */\n      0x01\n        /* \"Practical3-Use-UI_Play-Jason.sol\":1644:1662  gameHistory.length */\n      dup1\n      sload\n      swap1\n      pop\n        /* \"Practical3-Use-UI_Play-Jason.sol\":1635:1640  index */\n      dup3\n        /* \"Practical3-Use-UI_Play-Jason.sol\":1635:1662  index <= gameHistory.length */\n      gt\n      iszero\n        /* \"Practical3-Use-UI_Play-Jason.sol\":1627:1688  require(index <= gameHistory.length, \"Error: Invalid length\") */\n      tag_138\n      jumpi\n      mload(0x40)\n      0x08c379a000000000000000000000000000000000000000000000000000000000\n      dup2\n      mstore\n      0x04\n      add\n      tag_139\n      swap1\n      tag_132\n      jump\t// in\n    tag_139:\n      mload(0x40)\n      dup1\n      swap2\n      sub\n      swap1\n      revert\n    tag_138:\n        /* \"Practical3-Use-UI_Play-Jason.sol\":1866:1867  0 */\n      0x00\n        /* \"Practical3-Use-UI_Play-Jason.sol\":1818:1868  gameHistory[index].user2.userAddress != address(0) */\n      0xffffffffffffffffffffffffffffffffffffffff\n      and\n        /* \"Practical3-Use-UI_Play-Jason.sol\":1818:1829  gameHistory */\n      0x01\n        /* \"Practical3-Use-UI_Play-Jason.sol\":1830:1835  index */\n      dup4\n        /* \"Practical3-Use-UI_Play-Jason.sol\":1818:1836  gameHistory[index] */\n      dup2\n      sload\n      dup2\n      lt\n      tag_140\n      jumpi\n      tag_141\n      tag_43\n      jump\t// in\n    tag_141:\n    tag_140:\n      swap1\n      0x00\n      mstore\n      keccak256(0x00, 0x20)\n      swap1\n      0x05\n      mul\n      add\n        /* \"Practical3-Use-UI_Play-Jason.sol\":1818:1842  gameHistory[index].user2 */\n      0x02\n      add\n        /* \"Practical3-Use-UI_Play-Jason.sol\":1818:1854  gameHistory[index].user2.userAddress */\n      0x00\n      add\n      0x00\n      swap1\n      sload\n      swap1\n      0x0100\n      exp\n      swap1\n      div\n      0xffffffffffffffffffffffffffffffffffffffff\n      and\n        /* \"Practical3-Use-UI_Play-Jason.sol\":1818:1868  gameHistory[index].user2.userAddress != address(0) */\n      0xffffffffffffffffffffffffffffffffffffffff\n      and\n      sub\n        /* \"Practical3-Use-UI_Play-Jason.sol\":1810:1903  require(gameHistory[index].user2.userAddress != address(0), \"Error: The game not finish yet\") */\n      tag_143\n      jumpi\n      mload(0x40)\n      0x08c379a000000000000000000000000000000000000000000000000000000000\n      dup2\n      mstore\n      0x04\n      add\n      tag_144\n      swap1\n      tag_145\n      jump\t// in\n    tag_144:\n      mload(0x40)\n      dup1\n      swap2\n      sub\n      swap1\n      revert\n    tag_143:\n        /* \"Practical3-Use-UI_Play-Jason.sol\":1924:1935  gameHistory */\n      0x01\n        /* \"Practical3-Use-UI_Play-Jason.sol\":1936:1941  index */\n      dup3\n        /* \"Practical3-Use-UI_Play-Jason.sol\":1924:1942  gameHistory[index] */\n      dup2\n      sload\n      dup2\n      lt\n      tag_146\n      jumpi\n      tag_147\n      tag_43\n      jump\t// in\n    tag_147:\n    tag_146:\n      swap1\n      0x00\n      mstore\n      keccak256(0x00, 0x20)\n      swap1\n      0x05\n      mul\n      add\n        /* \"Practical3-Use-UI_Play-Jason.sol\":1916:1943  return (gameHistory[index]) */\n      mload(0x40)\n      dup1\n      0x60\n      add\n      0x40\n      mstore\n      swap1\n      dup2\n      0x00\n      dup3\n      add\n      mload(0x40)\n      dup1\n      0x40\n      add\n      0x40\n      mstore\n      swap1\n      dup2\n      0x00\n      dup3\n      add\n      0x00\n      swap1\n      sload\n      swap1\n      0x0100\n      exp\n      swap1\n      div\n      0xffffffffffffffffffffffffffffffffffffffff\n      and\n      0xffffffffffffffffffffffffffffffffffffffff\n      and\n      0xffffffffffffffffffffffffffffffffffffffff\n      and\n      dup2\n      mstore\n      0x20\n      add\n      0x01\n      dup3\n      add\n      sload\n      dup2\n      mstore\n      pop\n      pop\n      dup2\n      mstore\n      0x20\n      add\n      0x02\n      dup3\n      add\n      mload(0x40)\n      dup1\n      0x40\n      add\n      0x40\n      mstore\n      swap1\n      dup2\n      0x00\n      dup3\n      add\n      0x00\n      swap1\n      sload\n      swap1\n      0x0100\n      exp\n      swap1\n      div\n      0xffffffffffffffffffffffffffffffffffffffff\n      and\n      0xffffffffffffffffffffffffffffffffffffffff\n      and\n      0xffffffffffffffffffffffffffffffffffffffff\n      and\n      dup2\n      mstore\n      0x20\n      add\n      0x01\n      dup3\n      add\n      sload\n      dup2\n      mstore\n      pop\n      pop\n      dup2\n      mstore\n      0x20\n      add\n      0x04\n      dup3\n      add\n      dup1\n      sload\n      tag_149\n      swap1\n      tag_79\n      jump\t// in\n    tag_149:\n      dup1\n      0x1f\n      add\n      0x20\n      dup1\n      swap2\n      div\n      mul\n      0x20\n      add\n      mload(0x40)\n      swap1\n      dup2\n      add\n      0x40\n      mstore\n      dup1\n      swap3\n      swap2\n      swap1\n      dup2\n      dup2\n      mstore\n      0x20\n      add\n      dup3\n      dup1\n      sload\n      tag_150\n      swap1\n      tag_79\n      jump\t// in\n    tag_150:\n      dup1\n      iszero\n      tag_151\n      jumpi\n      dup1\n      0x1f\n      lt\n      tag_152\n      jumpi\n      0x0100\n      dup1\n      dup4\n      sload\n      div\n      mul\n      dup4\n      mstore\n      swap2\n      0x20\n      add\n      swap2\n      jump(tag_151)\n    tag_152:\n      dup3\n      add\n      swap2\n      swap1\n      0x00\n      mstore\n      keccak256(0x00, 0x20)\n      swap1\n    tag_153:\n      dup2\n      sload\n      dup2\n      mstore\n      swap1\n      0x01\n      add\n      swap1\n      0x20\n      add\n      dup1\n      dup4\n      gt\n      tag_153\n      jumpi\n      dup3\n      swap1\n      sub\n      0x1f\n      and\n      dup3\n      add\n      swap2\n    tag_151:\n      pop\n      pop\n      pop\n      pop\n      pop\n      dup2\n      mstore\n      pop\n      pop\n      swap1\n      pop\n        /* \"Practical3-Use-UI_Play-Jason.sol\":1482:1951  function getSpecificGameHistory (uint index) external view returns(GameInfo memory){... */\n      swap2\n      swap1\n      pop\n      jump\t// out\n        /* \"Practical3-Use-UI_Play-Jason.sol\":4456:5634  function game () private {... */\n    tag_73:\n        /* \"Practical3-Use-UI_Play-Jason.sol\":4679:4690  gameHistory */\n      0x01\n        /* \"Practical3-Use-UI_Play-Jason.sol\":4712:4713  1 */\n      dup1\n        /* \"Practical3-Use-UI_Play-Jason.sol\":4691:4702  gameHistory */\n      dup1\n        /* \"Practical3-Use-UI_Play-Jason.sol\":4691:4709  gameHistory.length */\n      dup1\n      sload\n      swap1\n      pop\n        /* \"Practical3-Use-UI_Play-Jason.sol\":4691:4713  gameHistory.length - 1 */\n      tag_155\n      swap2\n      swap1\n      tag_40\n      jump\t// in\n    tag_155:\n        /* \"Practical3-Use-UI_Play-Jason.sol\":4679:4714  gameHistory[gameHistory.length - 1] */\n      dup2\n      sload\n      dup2\n      lt\n      tag_156\n      jumpi\n      tag_157\n      tag_43\n      jump\t// in\n    tag_157:\n    tag_156:\n      swap1\n      0x00\n      mstore\n      keccak256(0x00, 0x20)\n      swap1\n      0x05\n      mul\n      add\n        /* \"Practical3-Use-UI_Play-Jason.sol\":4679:4720  gameHistory[gameHistory.length - 1].user2 */\n      0x02\n      add\n        /* \"Practical3-Use-UI_Play-Jason.sol\":4679:4731  gameHistory[gameHistory.length - 1].user2.userOption */\n      0x01\n      add\n      sload\n        /* \"Practical3-Use-UI_Play-Jason.sol\":4623:4634  gameHistory */\n      0x01\n        /* \"Practical3-Use-UI_Play-Jason.sol\":4656:4657  1 */\n      dup1\n        /* \"Practical3-Use-UI_Play-Jason.sol\":4635:4646  gameHistory */\n      dup1\n        /* \"Practical3-Use-UI_Play-Jason.sol\":4635:4653  gameHistory.length */\n      dup1\n      sload\n      swap1\n      pop\n        /* \"Practical3-Use-UI_Play-Jason.sol\":4635:4657  gameHistory.length - 1 */\n      tag_159\n      swap2\n      swap1\n      tag_40\n      jump\t// in\n    tag_159:\n        /* \"Practical3-Use-UI_Play-Jason.sol\":4623:4658  gameHistory[gameHistory.length - 1] */\n      dup2\n      sload\n      dup2\n      lt\n      tag_160\n      jumpi\n      tag_161\n      tag_43\n      jump\t// in\n    tag_161:\n    tag_160:\n      swap1\n      0x00\n      mstore\n      keccak256(0x00, 0x20)\n      swap1\n      0x05\n      mul\n      add\n        /* \"Practical3-Use-UI_Play-Jason.sol\":4623:4664  gameHistory[gameHistory.length - 1].user1 */\n      0x00\n      add\n        /* \"Practical3-Use-UI_Play-Jason.sol\":4623:4675  gameHistory[gameHistory.length - 1].user1.userOption */\n      0x01\n      add\n      sload\n        /* \"Practical3-Use-UI_Play-Jason.sol\":4623:4731  gameHistory[gameHistory.length - 1].user1.userOption == gameHistory[gameHistory.length - 1].user2.userOption */\n      sub\n        /* \"Practical3-Use-UI_Play-Jason.sol\":4619:5627  if (gameHistory[gameHistory.length - 1].user1.userOption == gameHistory[gameHistory.length - 1].user2.userOption) {... */\n      tag_163\n      jumpi\n        /* \"Practical3-Use-UI_Play-Jason.sol\":4748:4804  gameHistory[gameHistory.length - 1].finalResult = \"Tied\" */\n      mload(0x40)\n      dup1\n      0x40\n      add\n      0x40\n      mstore\n      dup1\n      0x04\n      dup2\n      mstore\n      0x20\n      add\n      0x5469656400000000000000000000000000000000000000000000000000000000\n      dup2\n      mstore\n      pop\n        /* \"Practical3-Use-UI_Play-Jason.sol\":4748:4759  gameHistory */\n      0x01\n        /* \"Practical3-Use-UI_Play-Jason.sol\":4781:4782  1 */\n      dup1\n        /* \"Practical3-Use-UI_Play-Jason.sol\":4760:4771  gameHistory */\n      dup1\n        /* \"Practical3-Use-UI_Play-Jason.sol\":4760:4778  gameHistory.length */\n      dup1\n      sload\n      swap1\n      pop\n        /* \"Practical3-Use-UI_Play-Jason.sol\":4760:4782  gameHistory.length - 1 */\n      tag_164\n      swap2\n      swap1\n      tag_40\n      jump\t// in\n    tag_164:\n        /* \"Practical3-Use-UI_Play-Jason.sol\":4748:4783  gameHistory[gameHistory.length - 1] */\n      dup2\n      sload\n      dup2\n      lt\n      tag_165\n      jumpi\n      tag_166\n      tag_43\n      jump\t// in\n    tag_166:\n    tag_165:\n      swap1\n      0x00\n      mstore\n      keccak256(0x00, 0x20)\n      swap1\n      0x05\n      mul\n      add\n        /* \"Practical3-Use-UI_Play-Jason.sol\":4748:4795  gameHistory[gameHistory.length - 1].finalResult */\n      0x04\n      add\n        /* \"Practical3-Use-UI_Play-Jason.sol\":4748:4804  gameHistory[gameHistory.length - 1].finalResult = \"Tied\" */\n      swap1\n      dup2\n      tag_168\n      swap2\n      swap1\n      tag_94\n      jump\t// in\n    tag_168:\n      pop\n        /* \"Practical3-Use-UI_Play-Jason.sol\":4824:4842  showResult(\"Tied\") */\n      0xcde5c32c0a45fd8aa4b65ea8003fc9da9acd5e2c6c24a9fcce6ab79cabbd9122\n      mload(0x40)\n      tag_169\n      swap1\n      tag_170\n      jump\t// in\n    tag_169:\n      mload(0x40)\n      dup1\n      swap2\n      sub\n      swap1\n      log1\n        /* \"Practical3-Use-UI_Play-Jason.sol\":4619:5627  if (gameHistory[gameHistory.length - 1].user1.userOption == gameHistory[gameHistory.length - 1].user2.userOption) {... */\n      jump(tag_171)\n    tag_163:\n        /* \"Practical3-Use-UI_Play-Jason.sol\":4963:4964  1 */\n      0x01\n        /* \"Practical3-Use-UI_Play-Jason.sol\":4907:4918  gameHistory */\n      dup1\n        /* \"Practical3-Use-UI_Play-Jason.sol\":4940:4941  1 */\n      0x01\n        /* \"Practical3-Use-UI_Play-Jason.sol\":4919:4930  gameHistory */\n      dup1\n        /* \"Practical3-Use-UI_Play-Jason.sol\":4919:4937  gameHistory.length */\n      dup1\n      sload\n      swap1\n      pop\n        /* \"Practical3-Use-UI_Play-Jason.sol\":4919:4941  gameHistory.length - 1 */\n      tag_172\n      swap2\n      swap1\n      tag_40\n      jump\t// in\n    tag_172:\n        /* \"Practical3-Use-UI_Play-Jason.sol\":4907:4942  gameHistory[gameHistory.length - 1] */\n      dup2\n      sload\n      dup2\n      lt\n      tag_173\n      jumpi\n      tag_174\n      tag_43\n      jump\t// in\n    tag_174:\n    tag_173:\n      swap1\n      0x00\n      mstore\n      keccak256(0x00, 0x20)\n      swap1\n      0x05\n      mul\n      add\n        /* \"Practical3-Use-UI_Play-Jason.sol\":4907:4948  gameHistory[gameHistory.length - 1].user1 */\n      0x00\n      add\n        /* \"Practical3-Use-UI_Play-Jason.sol\":4907:4959  gameHistory[gameHistory.length - 1].user1.userOption */\n      0x01\n      add\n      sload\n        /* \"Practical3-Use-UI_Play-Jason.sol\":4907:4964  gameHistory[gameHistory.length - 1].user1.userOption == 1 */\n      eq\n        /* \"Practical3-Use-UI_Play-Jason.sol\":4907:5025  gameHistory[gameHistory.length - 1].user1.userOption == 1 && gameHistory[gameHistory.length - 1].user2.userOption == 2 */\n      dup1\n      iszero\n      tag_176\n      jumpi\n      pop\n        /* \"Practical3-Use-UI_Play-Jason.sol\":5024:5025  2 */\n      0x02\n        /* \"Practical3-Use-UI_Play-Jason.sol\":4968:4979  gameHistory */\n      0x01\n        /* \"Practical3-Use-UI_Play-Jason.sol\":5001:5002  1 */\n      dup1\n        /* \"Practical3-Use-UI_Play-Jason.sol\":4980:4991  gameHistory */\n      dup1\n        /* \"Practical3-Use-UI_Play-Jason.sol\":4980:4998  gameHistory.length */\n      dup1\n      sload\n      swap1\n      pop\n        /* \"Practical3-Use-UI_Play-Jason.sol\":4980:5002  gameHistory.length - 1 */\n      tag_177\n      swap2\n      swap1\n      tag_40\n      jump\t// in\n    tag_177:\n        /* \"Practical3-Use-UI_Play-Jason.sol\":4968:5003  gameHistory[gameHistory.length - 1] */\n      dup2\n      sload\n      dup2\n      lt\n      tag_178\n      jumpi\n      tag_179\n      tag_43\n      jump\t// in\n    tag_179:\n    tag_178:\n      swap1\n      0x00\n      mstore\n      keccak256(0x00, 0x20)\n      swap1\n      0x05\n      mul\n      add\n        /* \"Practical3-Use-UI_Play-Jason.sol\":4968:5009  gameHistory[gameHistory.length - 1].user2 */\n      0x02\n      add\n        /* \"Practical3-Use-UI_Play-Jason.sol\":4968:5020  gameHistory[gameHistory.length - 1].user2.userOption */\n      0x01\n      add\n      sload\n        /* \"Practical3-Use-UI_Play-Jason.sol\":4968:5025  gameHistory[gameHistory.length - 1].user2.userOption == 2 */\n      eq\n        /* \"Practical3-Use-UI_Play-Jason.sol\":4907:5025  gameHistory[gameHistory.length - 1].user1.userOption == 1 && gameHistory[gameHistory.length - 1].user2.userOption == 2 */\n    tag_176:\n        /* \"Practical3-Use-UI_Play-Jason.sol\":4906:5167  (gameHistory[gameHistory.length - 1].user1.userOption == 1 && gameHistory[gameHistory.length - 1].user2.userOption == 2) ||... */\n      dup1\n      tag_181\n      jumpi\n      pop\n        /* \"Practical3-Use-UI_Play-Jason.sol\":5104:5105  3 */\n      0x03\n        /* \"Practical3-Use-UI_Play-Jason.sol\":5048:5059  gameHistory */\n      0x01\n        /* \"Practical3-Use-UI_Play-Jason.sol\":5081:5082  1 */\n      dup1\n        /* \"Practical3-Use-UI_Play-Jason.sol\":5060:5071  gameHistory */\n      dup1\n        /* \"Practical3-Use-UI_Play-Jason.sol\":5060:5078  gameHistory.length */\n      dup1\n      sload\n      swap1\n      pop\n        /* \"Practical3-Use-UI_Play-Jason.sol\":5060:5082  gameHistory.length - 1 */\n      tag_182\n      swap2\n      swap1\n      tag_40\n      jump\t// in\n    tag_182:\n        /* \"Practical3-Use-UI_Play-Jason.sol\":5048:5083  gameHistory[gameHistory.length - 1] */\n      dup2\n      sload\n      dup2\n      lt\n      tag_183\n      jumpi\n      tag_184\n      tag_43\n      jump\t// in\n    tag_184:\n    tag_183:\n      swap1\n      0x00\n      mstore\n      keccak256(0x00, 0x20)\n      swap1\n      0x05\n      mul\n      add\n        /* \"Practical3-Use-UI_Play-Jason.sol\":5048:5089  gameHistory[gameHistory.length - 1].user1 */\n      0x00\n      add\n        /* \"Practical3-Use-UI_Play-Jason.sol\":5048:5100  gameHistory[gameHistory.length - 1].user1.userOption */\n      0x01\n      add\n      sload\n        /* \"Practical3-Use-UI_Play-Jason.sol\":5048:5105  gameHistory[gameHistory.length - 1].user1.userOption == 3 */\n      eq\n        /* \"Practical3-Use-UI_Play-Jason.sol\":5048:5166  gameHistory[gameHistory.length - 1].user1.userOption == 3 && gameHistory[gameHistory.length - 1].user2.userOption == 1 */\n      dup1\n      iszero\n      tag_186\n      jumpi\n      pop\n        /* \"Practical3-Use-UI_Play-Jason.sol\":5165:5166  1 */\n      0x01\n        /* \"Practical3-Use-UI_Play-Jason.sol\":5109:5120  gameHistory */\n      dup1\n        /* \"Practical3-Use-UI_Play-Jason.sol\":5142:5143  1 */\n      0x01\n        /* \"Practical3-Use-UI_Play-Jason.sol\":5121:5132  gameHistory */\n      dup1\n        /* \"Practical3-Use-UI_Play-Jason.sol\":5121:5139  gameHistory.length */\n      dup1\n      sload\n      swap1\n      pop\n        /* \"Practical3-Use-UI_Play-Jason.sol\":5121:5143  gameHistory.length - 1 */\n      tag_187\n      swap2\n      swap1\n      tag_40\n      jump\t// in\n    tag_187:\n        /* \"Practical3-Use-UI_Play-Jason.sol\":5109:5144  gameHistory[gameHistory.length - 1] */\n      dup2\n      sload\n      dup2\n      lt\n      tag_188\n      jumpi\n      tag_189\n      tag_43\n      jump\t// in\n    tag_189:\n    tag_188:\n      swap1\n      0x00\n      mstore\n      keccak256(0x00, 0x20)\n      swap1\n      0x05\n      mul\n      add\n        /* \"Practical3-Use-UI_Play-Jason.sol\":5109:5150  gameHistory[gameHistory.length - 1].user2 */\n      0x02\n      add\n        /* \"Practical3-Use-UI_Play-Jason.sol\":5109:5161  gameHistory[gameHistory.length - 1].user2.userOption */\n      0x01\n      add\n      sload\n        /* \"Practical3-Use-UI_Play-Jason.sol\":5109:5166  gameHistory[gameHistory.length - 1].user2.userOption == 1 */\n      eq\n        /* \"Practical3-Use-UI_Play-Jason.sol\":5048:5166  gameHistory[gameHistory.length - 1].user1.userOption == 3 && gameHistory[gameHistory.length - 1].user2.userOption == 1 */\n    tag_186:\n        /* \"Practical3-Use-UI_Play-Jason.sol\":4906:5167  (gameHistory[gameHistory.length - 1].user1.userOption == 1 && gameHistory[gameHistory.length - 1].user2.userOption == 2) ||... */\n    tag_181:\n        /* \"Practical3-Use-UI_Play-Jason.sol\":4906:5308  (gameHistory[gameHistory.length - 1].user1.userOption == 1 && gameHistory[gameHistory.length - 1].user2.userOption == 2) ||... */\n      dup1\n      tag_191\n      jumpi\n      pop\n        /* \"Practical3-Use-UI_Play-Jason.sol\":5245:5246  2 */\n      0x02\n        /* \"Practical3-Use-UI_Play-Jason.sol\":5189:5200  gameHistory */\n      0x01\n        /* \"Practical3-Use-UI_Play-Jason.sol\":5222:5223  1 */\n      dup1\n        /* \"Practical3-Use-UI_Play-Jason.sol\":5201:5212  gameHistory */\n      dup1\n        /* \"Practical3-Use-UI_Play-Jason.sol\":5201:5219  gameHistory.length */\n      dup1\n      sload\n      swap1\n      pop\n        /* \"Practical3-Use-UI_Play-Jason.sol\":5201:5223  gameHistory.length - 1 */\n      tag_192\n      swap2\n      swap1\n      tag_40\n      jump\t// in\n    tag_192:\n        /* \"Practical3-Use-UI_Play-Jason.sol\":5189:5224  gameHistory[gameHistory.length - 1] */\n      dup2\n      sload\n      dup2\n      lt\n      tag_193\n      jumpi\n      tag_194\n      tag_43\n      jump\t// in\n    tag_194:\n    tag_193:\n      swap1\n      0x00\n      mstore\n      keccak256(0x00, 0x20)\n      swap1\n      0x05\n      mul\n      add\n        /* \"Practical3-Use-UI_Play-Jason.sol\":5189:5230  gameHistory[gameHistory.length - 1].user1 */\n      0x00\n      add\n        /* \"Practical3-Use-UI_Play-Jason.sol\":5189:5241  gameHistory[gameHistory.length - 1].user1.userOption */\n      0x01\n      add\n      sload\n        /* \"Practical3-Use-UI_Play-Jason.sol\":5189:5246  gameHistory[gameHistory.length - 1].user1.userOption == 2 */\n      eq\n        /* \"Practical3-Use-UI_Play-Jason.sol\":5189:5307  gameHistory[gameHistory.length - 1].user1.userOption == 2 && gameHistory[gameHistory.length - 1].user2.userOption == 3 */\n      dup1\n      iszero\n      tag_196\n      jumpi\n      pop\n        /* \"Practical3-Use-UI_Play-Jason.sol\":5306:5307  3 */\n      0x03\n        /* \"Practical3-Use-UI_Play-Jason.sol\":5250:5261  gameHistory */\n      0x01\n        /* \"Practical3-Use-UI_Play-Jason.sol\":5283:5284  1 */\n      dup1\n        /* \"Practical3-Use-UI_Play-Jason.sol\":5262:5273  gameHistory */\n      dup1\n        /* \"Practical3-Use-UI_Play-Jason.sol\":5262:5280  gameHistory.length */\n      dup1\n      sload\n      swap1\n      pop\n        /* \"Practical3-Use-UI_Play-Jason.sol\":5262:5284  gameHistory.length - 1 */\n      tag_197\n      swap2\n      swap1\n      tag_40\n      jump\t// in\n    tag_197:\n        /* \"Practical3-Use-UI_Play-Jason.sol\":5250:5285  gameHistory[gameHistory.length - 1] */\n      dup2\n      sload\n      dup2\n      lt\n      tag_198\n      jumpi\n      tag_199\n      tag_43\n      jump\t// in\n    tag_199:\n    tag_198:\n      swap1\n      0x00\n      mstore\n      keccak256(0x00, 0x20)\n      swap1\n      0x05\n      mul\n      add\n        /* \"Practical3-Use-UI_Play-Jason.sol\":5250:5291  gameHistory[gameHistory.length - 1].user2 */\n      0x02\n      add\n        /* \"Practical3-Use-UI_Play-Jason.sol\":5250:5302  gameHistory[gameHistory.length - 1].user2.userOption */\n      0x01\n      add\n      sload\n        /* \"Practical3-Use-UI_Play-Jason.sol\":5250:5307  gameHistory[gameHistory.length - 1].user2.userOption == 3 */\n      eq\n        /* \"Practical3-Use-UI_Play-Jason.sol\":5189:5307  gameHistory[gameHistory.length - 1].user1.userOption == 2 && gameHistory[gameHistory.length - 1].user2.userOption == 3 */\n    tag_196:\n        /* \"Practical3-Use-UI_Play-Jason.sol\":4906:5308  (gameHistory[gameHistory.length - 1].user1.userOption == 1 && gameHistory[gameHistory.length - 1].user2.userOption == 2) ||... */\n    tag_191:\n        /* \"Practical3-Use-UI_Play-Jason.sol\":4884:5616  if (... */\n      iszero\n      tag_201\n      jumpi\n        /* \"Practical3-Use-UI_Play-Jason.sol\":5343:5404  gameHistory[gameHistory.length - 1].finalResult = \"User2 win\" */\n      mload(0x40)\n      dup1\n      0x40\n      add\n      0x40\n      mstore\n      dup1\n      0x09\n      dup2\n      mstore\n      0x20\n      add\n      0x55736572322077696e0000000000000000000000000000000000000000000000\n      dup2\n      mstore\n      pop\n        /* \"Practical3-Use-UI_Play-Jason.sol\":5343:5354  gameHistory */\n      0x01\n        /* \"Practical3-Use-UI_Play-Jason.sol\":5376:5377  1 */\n      dup1\n        /* \"Practical3-Use-UI_Play-Jason.sol\":5355:5366  gameHistory */\n      dup1\n        /* \"Practical3-Use-UI_Play-Jason.sol\":5355:5373  gameHistory.length */\n      dup1\n      sload\n      swap1\n      pop\n        /* \"Practical3-Use-UI_Play-Jason.sol\":5355:5377  gameHistory.length - 1 */\n      tag_202\n      swap2\n      swap1\n      tag_40\n      jump\t// in\n    tag_202:\n        /* \"Practical3-Use-UI_Play-Jason.sol\":5343:5378  gameHistory[gameHistory.length - 1] */\n      dup2\n      sload\n      dup2\n      lt\n      tag_203\n      jumpi\n      tag_204\n      tag_43\n      jump\t// in\n    tag_204:\n    tag_203:\n      swap1\n      0x00\n      mstore\n      keccak256(0x00, 0x20)\n      swap1\n      0x05\n      mul\n      add\n        /* \"Practical3-Use-UI_Play-Jason.sol\":5343:5390  gameHistory[gameHistory.length - 1].finalResult */\n      0x04\n      add\n        /* \"Practical3-Use-UI_Play-Jason.sol\":5343:5404  gameHistory[gameHistory.length - 1].finalResult = \"User2 win\" */\n      swap1\n      dup2\n      tag_206\n      swap2\n      swap1\n      tag_94\n      jump\t// in\n    tag_206:\n      pop\n        /* \"Practical3-Use-UI_Play-Jason.sol\":5428:5451  showResult(\"User2 win\") */\n      0xcde5c32c0a45fd8aa4b65ea8003fc9da9acd5e2c6c24a9fcce6ab79cabbd9122\n      mload(0x40)\n      tag_207\n      swap1\n      tag_208\n      jump\t// in\n    tag_207:\n      mload(0x40)\n      dup1\n      swap2\n      sub\n      swap1\n      log1\n        /* \"Practical3-Use-UI_Play-Jason.sol\":4884:5616  if (... */\n      jump(tag_209)\n    tag_201:\n        /* \"Practical3-Use-UI_Play-Jason.sol\":5492:5553  gameHistory[gameHistory.length - 1].finalResult = \"User1 win\" */\n      mload(0x40)\n      dup1\n      0x40\n      add\n      0x40\n      mstore\n      dup1\n      0x09\n      dup2\n      mstore\n      0x20\n      add\n      0x55736572312077696e0000000000000000000000000000000000000000000000\n      dup2\n      mstore\n      pop\n        /* \"Practical3-Use-UI_Play-Jason.sol\":5492:5503  gameHistory */\n      0x01\n        /* \"Practical3-Use-UI_Play-Jason.sol\":5525:5526  1 */\n      dup1\n        /* \"Practical3-Use-UI_Play-Jason.sol\":5504:5515  gameHistory */\n      dup1\n        /* \"Practical3-Use-UI_Play-Jason.sol\":5504:5522  gameHistory.length */\n      dup1\n      sload\n      swap1\n      pop\n        /* \"Practical3-Use-UI_Play-Jason.sol\":5504:5526  gameHistory.length - 1 */\n      tag_210\n      swap2\n      swap1\n      tag_40\n      jump\t// in\n    tag_210:\n        /* \"Practical3-Use-UI_Play-Jason.sol\":5492:5527  gameHistory[gameHistory.length - 1] */\n      dup2\n      sload\n      dup2\n      lt\n      tag_211\n      jumpi\n      tag_212\n      tag_43\n      jump\t// in\n    tag_212:\n    tag_211:\n      swap1\n      0x00\n      mstore\n      keccak256(0x00, 0x20)\n      swap1\n      0x05\n      mul\n      add\n        /* \"Practical3-Use-UI_Play-Jason.sol\":5492:5539  gameHistory[gameHistory.length - 1].finalResult */\n      0x04\n      add\n        /* \"Practical3-Use-UI_Play-Jason.sol\":5492:5553  gameHistory[gameHistory.length - 1].finalResult = \"User1 win\" */\n      swap1\n      dup2\n      tag_214\n      swap2\n      swap1\n      tag_94\n      jump\t// in\n    tag_214:\n      pop\n        /* \"Practical3-Use-UI_Play-Jason.sol\":5577:5600  showResult(\"User1 win\") */\n      0xcde5c32c0a45fd8aa4b65ea8003fc9da9acd5e2c6c24a9fcce6ab79cabbd9122\n      mload(0x40)\n      tag_215\n      swap1\n      tag_216\n      jump\t// in\n    tag_215:\n      mload(0x40)\n      dup1\n      swap2\n      sub\n      swap1\n      log1\n        /* \"Practical3-Use-UI_Play-Jason.sol\":4884:5616  if (... */\n    tag_209:\n        /* \"Practical3-Use-UI_Play-Jason.sol\":4619:5627  if (gameHistory[gameHistory.length - 1].user1.userOption == gameHistory[gameHistory.length - 1].user2.userOption) {... */\n    tag_171:\n        /* \"Practical3-Use-UI_Play-Jason.sol\":4456:5634  function game () private {... */\n      jump\t// out\n    tag_91:\n      mload(0x40)\n      dup1\n      0x60\n      add\n      0x40\n      mstore\n      dup1\n      tag_217\n      tag_128\n      jump\t// in\n    tag_217:\n      dup2\n      mstore\n      0x20\n      add\n      tag_218\n      tag_128\n      jump\t// in\n    tag_218:\n      dup2\n      mstore\n      0x20\n      add\n      0x60\n      dup2\n      mstore\n      pop\n      swap1\n      jump\t// out\n    tag_128:\n      mload(0x40)\n      dup1\n      0x40\n      add\n      0x40\n      mstore\n      dup1\n      and(0xffffffffffffffffffffffffffffffffffffffff, 0x00)\n      dup2\n      mstore\n      0x20\n      add\n      0x00\n      dup2\n      mstore\n      pop\n      swap1\n      jump\t// out\n        /* \"#utility.yul\":88:205   */\n    tag_220:\n        /* \"#utility.yul\":197:198   */\n      0x00\n        /* \"#utility.yul\":194:195   */\n      dup1\n        /* \"#utility.yul\":187:199   */\n      revert\n        /* \"#utility.yul\":334:411   */\n    tag_222:\n        /* \"#utility.yul\":371:378   */\n      0x00\n        /* \"#utility.yul\":400:405   */\n      dup2\n        /* \"#utility.yul\":389:405   */\n      swap1\n      pop\n        /* \"#utility.yul\":334:411   */\n      swap2\n      swap1\n      pop\n      jump\t// out\n        /* \"#utility.yul\":417:539   */\n    tag_223:\n        /* \"#utility.yul\":490:514   */\n      tag_288\n        /* \"#utility.yul\":508:513   */\n      dup2\n        /* \"#utility.yul\":490:514   */\n      tag_222\n      jump\t// in\n    tag_288:\n        /* \"#utility.yul\":483:488   */\n      dup2\n        /* \"#utility.yul\":480:515   */\n      eq\n        /* \"#utility.yul\":470:533   */\n      tag_289\n      jumpi\n        /* \"#utility.yul\":529:530   */\n      0x00\n        /* \"#utility.yul\":526:527   */\n      dup1\n        /* \"#utility.yul\":519:531   */\n      revert\n        /* \"#utility.yul\":470:533   */\n    tag_289:\n        /* \"#utility.yul\":417:539   */\n      pop\n      jump\t// out\n        /* \"#utility.yul\":545:684   */\n    tag_224:\n        /* \"#utility.yul\":591:596   */\n      0x00\n        /* \"#utility.yul\":629:635   */\n      dup2\n        /* \"#utility.yul\":616:636   */\n      calldataload\n        /* \"#utility.yul\":607:636   */\n      swap1\n      pop\n        /* \"#utility.yul\":645:678   */\n      tag_291\n        /* \"#utility.yul\":672:677   */\n      dup2\n        /* \"#utility.yul\":645:678   */\n      tag_223\n      jump\t// in\n    tag_291:\n        /* \"#utility.yul\":545:684   */\n      swap3\n      swap2\n      pop\n      pop\n      jump\t// out\n        /* \"#utility.yul\":690:1019   */\n    tag_13:\n        /* \"#utility.yul\":749:755   */\n      0x00\n        /* \"#utility.yul\":798:800   */\n      0x20\n        /* \"#utility.yul\":786:795   */\n      dup3\n        /* \"#utility.yul\":777:784   */\n      dup5\n        /* \"#utility.yul\":773:796   */\n      sub\n        /* \"#utility.yul\":769:801   */\n      slt\n        /* \"#utility.yul\":766:885   */\n      iszero\n      tag_293\n      jumpi\n        /* \"#utility.yul\":804:883   */\n      tag_294\n      tag_220\n      jump\t// in\n    tag_294:\n        /* \"#utility.yul\":766:885   */\n    tag_293:\n        /* \"#utility.yul\":924:925   */\n      0x00\n        /* \"#utility.yul\":949:1002   */\n      tag_295\n        /* \"#utility.yul\":994:1001   */\n      dup5\n        /* \"#utility.yul\":985:991   */\n      dup3\n        /* \"#utility.yul\":974:983   */\n      dup6\n        /* \"#utility.yul\":970:992   */\n      add\n        /* \"#utility.yul\":949:1002   */\n      tag_224\n      jump\t// in\n    tag_295:\n        /* \"#utility.yul\":939:1002   */\n      swap2\n      pop\n        /* \"#utility.yul\":895:1012   */\n      pop\n        /* \"#utility.yul\":690:1019   */\n      swap3\n      swap2\n      pop\n      pop\n      jump\t// out\n        /* \"#utility.yul\":1025:1151   */\n    tag_225:\n        /* \"#utility.yul\":1062:1069   */\n      0x00\n        /* \"#utility.yul\":1102:1144   */\n      0xffffffffffffffffffffffffffffffffffffffff\n        /* \"#utility.yul\":1095:1100   */\n      dup3\n        /* \"#utility.yul\":1091:1145   */\n      and\n        /* \"#utility.yul\":1080:1145   */\n      swap1\n      pop\n        /* \"#utility.yul\":1025:1151   */\n      swap2\n      swap1\n      pop\n      jump\t// out\n        /* \"#utility.yul\":1157:1253   */\n    tag_226:\n        /* \"#utility.yul\":1194:1201   */\n      0x00\n        /* \"#utility.yul\":1223:1247   */\n      tag_298\n        /* \"#utility.yul\":1241:1246   */\n      dup3\n        /* \"#utility.yul\":1223:1247   */\n      tag_225\n      jump\t// in\n    tag_298:\n        /* \"#utility.yul\":1212:1247   */\n      swap1\n      pop\n        /* \"#utility.yul\":1157:1253   */\n      swap2\n      swap1\n      pop\n      jump\t// out\n        /* \"#utility.yul\":1259:1377   */\n    tag_227:\n        /* \"#utility.yul\":1346:1370   */\n      tag_300\n        /* \"#utility.yul\":1364:1369   */\n      dup2\n        /* \"#utility.yul\":1346:1370   */\n      tag_226\n      jump\t// in\n    tag_300:\n        /* \"#utility.yul\":1341:1344   */\n      dup3\n        /* \"#utility.yul\":1334:1371   */\n      mstore\n        /* \"#utility.yul\":1259:1377   */\n      pop\n      pop\n      jump\t// out\n        /* \"#utility.yul\":1383:1605   */\n    tag_18:\n        /* \"#utility.yul\":1476:1480   */\n      0x00\n        /* \"#utility.yul\":1514:1516   */\n      0x20\n        /* \"#utility.yul\":1503:1512   */\n      dup3\n        /* \"#utility.yul\":1499:1517   */\n      add\n        /* \"#utility.yul\":1491:1517   */\n      swap1\n      pop\n        /* \"#utility.yul\":1527:1598   */\n      tag_302\n        /* \"#utility.yul\":1595:1596   */\n      0x00\n        /* \"#utility.yul\":1584:1593   */\n      dup4\n        /* \"#utility.yul\":1580:1597   */\n      add\n        /* \"#utility.yul\":1571:1577   */\n      dup5\n        /* \"#utility.yul\":1527:1598   */\n      tag_227\n      jump\t// in\n    tag_302:\n        /* \"#utility.yul\":1383:1605   */\n      swap3\n      swap2\n      pop\n      pop\n      jump\t// out\n        /* \"#utility.yul\":1611:1749   */\n    tag_228:\n        /* \"#utility.yul\":1702:1708   */\n      0x00\n        /* \"#utility.yul\":1736:1741   */\n      dup2\n        /* \"#utility.yul\":1730:1742   */\n      mload\n        /* \"#utility.yul\":1720:1742   */\n      swap1\n      pop\n        /* \"#utility.yul\":1611:1749   */\n      swap2\n      swap1\n      pop\n      jump\t// out\n        /* \"#utility.yul\":1755:1963   */\n    tag_229:\n        /* \"#utility.yul\":1878:1889   */\n      0x00\n        /* \"#utility.yul\":1912:1918   */\n      dup3\n        /* \"#utility.yul\":1907:1910   */\n      dup3\n        /* \"#utility.yul\":1900:1919   */\n      mstore\n        /* \"#utility.yul\":1952:1956   */\n      0x20\n        /* \"#utility.yul\":1947:1950   */\n      dup3\n        /* \"#utility.yul\":1943:1957   */\n      add\n        /* \"#utility.yul\":1928:1957   */\n      swap1\n      pop\n        /* \"#utility.yul\":1755:1963   */\n      swap3\n      swap2\n      pop\n      pop\n      jump\t// out\n        /* \"#utility.yul\":1969:2125   */\n    tag_230:\n        /* \"#utility.yul\":2060:2064   */\n      0x00\n        /* \"#utility.yul\":2083:2086   */\n      dup2\n        /* \"#utility.yul\":2075:2086   */\n      swap1\n      pop\n        /* \"#utility.yul\":2113:2117   */\n      0x20\n        /* \"#utility.yul\":2108:2111   */\n      dup3\n        /* \"#utility.yul\":2104:2118   */\n      add\n        /* \"#utility.yul\":2096:2118   */\n      swap1\n      pop\n        /* \"#utility.yul\":1969:2125   */\n      swap2\n      swap1\n      pop\n      jump\t// out\n        /* \"#utility.yul\":2131:2239   */\n    tag_231:\n        /* \"#utility.yul\":2208:2232   */\n      tag_307\n        /* \"#utility.yul\":2226:2231   */\n      dup2\n        /* \"#utility.yul\":2208:2232   */\n      tag_226\n      jump\t// in\n    tag_307:\n        /* \"#utility.yul\":2203:2206   */\n      dup3\n        /* \"#utility.yul\":2196:2233   */\n      mstore\n        /* \"#utility.yul\":2131:2239   */\n      pop\n      pop\n      jump\t// out\n        /* \"#utility.yul\":2245:2353   */\n    tag_232:\n        /* \"#utility.yul\":2322:2346   */\n      tag_309\n        /* \"#utility.yul\":2340:2345   */\n      dup2\n        /* \"#utility.yul\":2322:2346   */\n      tag_222\n      jump\t// in\n    tag_309:\n        /* \"#utility.yul\":2317:2320   */\n      dup3\n        /* \"#utility.yul\":2310:2347   */\n      mstore\n        /* \"#utility.yul\":2245:2353   */\n      pop\n      pop\n      jump\t// out\n        /* \"#utility.yul\":2437:2943   */\n    tag_233:\n        /* \"#utility.yul\":2570:2574   */\n      0x40\n        /* \"#utility.yul\":2565:2568   */\n      dup3\n        /* \"#utility.yul\":2561:2575   */\n      add\n        /* \"#utility.yul\":2664:2668   */\n      0x00\n        /* \"#utility.yul\":2657:2662   */\n      dup3\n        /* \"#utility.yul\":2653:2669   */\n      add\n        /* \"#utility.yul\":2647:2670   */\n      mload\n        /* \"#utility.yul\":2683:2746   */\n      tag_311\n        /* \"#utility.yul\":2740:2744   */\n      0x00\n        /* \"#utility.yul\":2735:2738   */\n      dup6\n        /* \"#utility.yul\":2731:2745   */\n      add\n        /* \"#utility.yul\":2717:2729   */\n      dup3\n        /* \"#utility.yul\":2683:2746   */\n      tag_231\n      jump\t// in\n    tag_311:\n        /* \"#utility.yul\":2585:2756   */\n      pop\n        /* \"#utility.yul\":2844:2848   */\n      0x20\n        /* \"#utility.yul\":2837:2842   */\n      dup3\n        /* \"#utility.yul\":2833:2849   */\n      add\n        /* \"#utility.yul\":2827:2850   */\n      mload\n        /* \"#utility.yul\":2863:2926   */\n      tag_312\n        /* \"#utility.yul\":2920:2924   */\n      0x20\n        /* \"#utility.yul\":2915:2918   */\n      dup6\n        /* \"#utility.yul\":2911:2925   */\n      add\n        /* \"#utility.yul\":2897:2909   */\n      dup3\n        /* \"#utility.yul\":2863:2926   */\n      tag_232\n      jump\t// in\n    tag_312:\n        /* \"#utility.yul\":2766:2936   */\n      pop\n        /* \"#utility.yul\":2539:2943   */\n      pop\n        /* \"#utility.yul\":2437:2943   */\n      pop\n      pop\n      jump\t// out\n        /* \"#utility.yul\":2949:3048   */\n    tag_234:\n        /* \"#utility.yul\":3001:3007   */\n      0x00\n        /* \"#utility.yul\":3035:3040   */\n      dup2\n        /* \"#utility.yul\":3029:3041   */\n      mload\n        /* \"#utility.yul\":3019:3041   */\n      swap1\n      pop\n        /* \"#utility.yul\":2949:3048   */\n      swap2\n      swap1\n      pop\n      jump\t// out\n        /* \"#utility.yul\":3054:3213   */\n    tag_235:\n        /* \"#utility.yul\":3128:3139   */\n      0x00\n        /* \"#utility.yul\":3162:3168   */\n      dup3\n        /* \"#utility.yul\":3157:3160   */\n      dup3\n        /* \"#utility.yul\":3150:3169   */\n      mstore\n        /* \"#utility.yul\":3202:3206   */\n      0x20\n        /* \"#utility.yul\":3197:3200   */\n      dup3\n        /* \"#utility.yul\":3193:3207   */\n      add\n        /* \"#utility.yul\":3178:3207   */\n      swap1\n      pop\n        /* \"#utility.yul\":3054:3213   */\n      swap3\n      swap2\n      pop\n      pop\n      jump\t// out\n        /* \"#utility.yul\":3219:3465   */\n    tag_236:\n        /* \"#utility.yul\":3300:3301   */\n      0x00\n        /* \"#utility.yul\":3310:3423   */\n    tag_316:\n        /* \"#utility.yul\":3324:3330   */\n      dup4\n        /* \"#utility.yul\":3321:3322   */\n      dup2\n        /* \"#utility.yul\":3318:3331   */\n      lt\n        /* \"#utility.yul\":3310:3423   */\n      iszero\n      tag_318\n      jumpi\n        /* \"#utility.yul\":3409:3410   */\n      dup1\n        /* \"#utility.yul\":3404:3407   */\n      dup3\n        /* \"#utility.yul\":3400:3411   */\n      add\n        /* \"#utility.yul\":3394:3412   */\n      mload\n        /* \"#utility.yul\":3390:3391   */\n      dup2\n        /* \"#utility.yul\":3385:3388   */\n      dup5\n        /* \"#utility.yul\":3381:3392   */\n      add\n        /* \"#utility.yul\":3374:3413   */\n      mstore\n        /* \"#utility.yul\":3346:3348   */\n      0x20\n        /* \"#utility.yul\":3343:3344   */\n      dup2\n        /* \"#utility.yul\":3339:3349   */\n      add\n        /* \"#utility.yul\":3334:3349   */\n      swap1\n      pop\n        /* \"#utility.yul\":3310:3423   */\n      jump(tag_316)\n    tag_318:\n        /* \"#utility.yul\":3457:3458   */\n      0x00\n        /* \"#utility.yul\":3448:3454   */\n      dup5\n        /* \"#utility.yul\":3443:3446   */\n      dup5\n        /* \"#utility.yul\":3439:3455   */\n      add\n        /* \"#utility.yul\":3432:3459   */\n      mstore\n        /* \"#utility.yul\":3281:3465   */\n      pop\n        /* \"#utility.yul\":3219:3465   */\n      pop\n      pop\n      pop\n      jump\t// out\n        /* \"#utility.yul\":3471:3573   */\n    tag_237:\n        /* \"#utility.yul\":3512:3518   */\n      0x00\n        /* \"#utility.yul\":3563:3565   */\n      0x1f\n        /* \"#utility.yul\":3559:3566   */\n      not\n        /* \"#utility.yul\":3554:3556   */\n      0x1f\n        /* \"#utility.yul\":3547:3552   */\n      dup4\n        /* \"#utility.yul\":3543:3557   */\n      add\n        /* \"#utility.yul\":3539:3567   */\n      and\n        /* \"#utility.yul\":3529:3567   */\n      swap1\n      pop\n        /* \"#utility.yul\":3471:3573   */\n      swap2\n      swap1\n      pop\n      jump\t// out\n        /* \"#utility.yul\":3579:3936   */\n    tag_238:\n        /* \"#utility.yul\":3657:3660   */\n      0x00\n        /* \"#utility.yul\":3685:3724   */\n      tag_321\n        /* \"#utility.yul\":3718:3723   */\n      dup3\n        /* \"#utility.yul\":3685:3724   */\n      tag_234\n      jump\t// in\n    tag_321:\n        /* \"#utility.yul\":3740:3801   */\n      tag_322\n        /* \"#utility.yul\":3794:3800   */\n      dup2\n        /* \"#utility.yul\":3789:3792   */\n      dup6\n        /* \"#utility.yul\":3740:3801   */\n      tag_235\n      jump\t// in\n    tag_322:\n        /* \"#utility.yul\":3733:3801   */\n      swap4\n      pop\n        /* \"#utility.yul\":3810:3875   */\n      tag_323\n        /* \"#utility.yul\":3868:3874   */\n      dup2\n        /* \"#utility.yul\":3863:3866   */\n      dup6\n        /* \"#utility.yul\":3856:3860   */\n      0x20\n        /* \"#utility.yul\":3849:3854   */\n      dup7\n        /* \"#utility.yul\":3845:3861   */\n      add\n        /* \"#utility.yul\":3810:3875   */\n      tag_236\n      jump\t// in\n    tag_323:\n        /* \"#utility.yul\":3900:3929   */\n      tag_324\n        /* \"#utility.yul\":3922:3928   */\n      dup2\n        /* \"#utility.yul\":3900:3929   */\n      tag_237\n      jump\t// in\n    tag_324:\n        /* \"#utility.yul\":3895:3898   */\n      dup5\n        /* \"#utility.yul\":3891:3930   */\n      add\n        /* \"#utility.yul\":3884:3930   */\n      swap2\n      pop\n        /* \"#utility.yul\":3661:3936   */\n      pop\n        /* \"#utility.yul\":3579:3936   */\n      swap3\n      swap2\n      pop\n      pop\n      jump\t// out\n        /* \"#utility.yul\":4020:4889   */\n    tag_239:\n        /* \"#utility.yul\":4127:4130   */\n      0x00\n        /* \"#utility.yul\":4163:4167   */\n      0xa0\n        /* \"#utility.yul\":4158:4161   */\n      dup4\n        /* \"#utility.yul\":4154:4168   */\n      add\n        /* \"#utility.yul\":4251:4255   */\n      0x00\n        /* \"#utility.yul\":4244:4249   */\n      dup4\n        /* \"#utility.yul\":4240:4256   */\n      add\n        /* \"#utility.yul\":4234:4257   */\n      mload\n        /* \"#utility.yul\":4270:4379   */\n      tag_326\n        /* \"#utility.yul\":4373:4377   */\n      0x00\n        /* \"#utility.yul\":4368:4371   */\n      dup7\n        /* \"#utility.yul\":4364:4378   */\n      add\n        /* \"#utility.yul\":4350:4362   */\n      dup3\n        /* \"#utility.yul\":4270:4379   */\n      tag_233\n      jump\t// in\n    tag_326:\n        /* \"#utility.yul\":4178:4389   */\n      pop\n        /* \"#utility.yul\":4472:4476   */\n      0x20\n        /* \"#utility.yul\":4465:4470   */\n      dup4\n        /* \"#utility.yul\":4461:4477   */\n      add\n        /* \"#utility.yul\":4455:4478   */\n      mload\n        /* \"#utility.yul\":4491:4600   */\n      tag_327\n        /* \"#utility.yul\":4594:4598   */\n      0x40\n        /* \"#utility.yul\":4589:4592   */\n      dup7\n        /* \"#utility.yul\":4585:4599   */\n      add\n        /* \"#utility.yul\":4571:4583   */\n      dup3\n        /* \"#utility.yul\":4491:4600   */\n      tag_233\n      jump\t// in\n    tag_327:\n        /* \"#utility.yul\":4399:4610   */\n      pop\n        /* \"#utility.yul\":4699:4703   */\n      0x40\n        /* \"#utility.yul\":4692:4697   */\n      dup4\n        /* \"#utility.yul\":4688:4704   */\n      add\n        /* \"#utility.yul\":4682:4705   */\n      mload\n        /* \"#utility.yul\":4752:4755   */\n      dup5\n        /* \"#utility.yul\":4746:4750   */\n      dup3\n        /* \"#utility.yul\":4742:4756   */\n      sub\n        /* \"#utility.yul\":4735:4739   */\n      0x80\n        /* \"#utility.yul\":4730:4733   */\n      dup7\n        /* \"#utility.yul\":4726:4740   */\n      add\n        /* \"#utility.yul\":4719:4757   */\n      mstore\n        /* \"#utility.yul\":4778:4851   */\n      tag_328\n        /* \"#utility.yul\":4846:4850   */\n      dup3\n        /* \"#utility.yul\":4832:4844   */\n      dup3\n        /* \"#utility.yul\":4778:4851   */\n      tag_238\n      jump\t// in\n    tag_328:\n        /* \"#utility.yul\":4770:4851   */\n      swap2\n      pop\n        /* \"#utility.yul\":4620:4862   */\n      pop\n        /* \"#utility.yul\":4879:4883   */\n      dup1\n        /* \"#utility.yul\":4872:4883   */\n      swap2\n      pop\n        /* \"#utility.yul\":4132:4889   */\n      pop\n        /* \"#utility.yul\":4020:4889   */\n      swap3\n      swap2\n      pop\n      pop\n      jump\t// out\n        /* \"#utility.yul\":4895:5147   */\n    tag_240:\n        /* \"#utility.yul\":5012:5022   */\n      0x00\n        /* \"#utility.yul\":5047:5141   */\n      tag_330\n        /* \"#utility.yul\":5137:5140   */\n      dup4\n        /* \"#utility.yul\":5129:5135   */\n      dup4\n        /* \"#utility.yul\":5047:5141   */\n      tag_239\n      jump\t// in\n    tag_330:\n        /* \"#utility.yul\":5033:5141   */\n      swap1\n      pop\n        /* \"#utility.yul\":4895:5147   */\n      swap3\n      swap2\n      pop\n      pop\n      jump\t// out\n        /* \"#utility.yul\":5153:5290   */\n    tag_241:\n        /* \"#utility.yul\":5247:5251   */\n      0x00\n        /* \"#utility.yul\":5279:5283   */\n      0x20\n        /* \"#utility.yul\":5274:5277   */\n      dup3\n        /* \"#utility.yul\":5270:5284   */\n      add\n        /* \"#utility.yul\":5262:5284   */\n      swap1\n      pop\n        /* \"#utility.yul\":5153:5290   */\n      swap2\n      swap1\n      pop\n      jump\t// out\n        /* \"#utility.yul\":5378:6481   */\n    tag_242:\n        /* \"#utility.yul\":5545:5548   */\n      0x00\n        /* \"#utility.yul\":5574:5652   */\n      tag_333\n        /* \"#utility.yul\":5646:5651   */\n      dup3\n        /* \"#utility.yul\":5574:5652   */\n      tag_228\n      jump\t// in\n    tag_333:\n        /* \"#utility.yul\":5668:5778   */\n      tag_334\n        /* \"#utility.yul\":5771:5777   */\n      dup2\n        /* \"#utility.yul\":5766:5769   */\n      dup6\n        /* \"#utility.yul\":5668:5778   */\n      tag_229\n      jump\t// in\n    tag_334:\n        /* \"#utility.yul\":5661:5778   */\n      swap4\n      pop\n        /* \"#utility.yul\":5804:5807   */\n      dup4\n        /* \"#utility.yul\":5849:5853   */\n      0x20\n        /* \"#utility.yul\":5841:5847   */\n      dup3\n        /* \"#utility.yul\":5837:5854   */\n      mul\n        /* \"#utility.yul\":5832:5835   */\n      dup6\n        /* \"#utility.yul\":5828:5855   */\n      add\n        /* \"#utility.yul\":5879:5959   */\n      tag_335\n        /* \"#utility.yul\":5953:5958   */\n      dup6\n        /* \"#utility.yul\":5879:5959   */\n      tag_230\n      jump\t// in\n    tag_335:\n        /* \"#utility.yul\":5982:5989   */\n      dup1\n        /* \"#utility.yul\":6013:6014   */\n      0x00\n        /* \"#utility.yul\":5998:6436   */\n    tag_336:\n        /* \"#utility.yul\":6023:6029   */\n      dup6\n        /* \"#utility.yul\":6020:6021   */\n      dup2\n        /* \"#utility.yul\":6017:6030   */\n      lt\n        /* \"#utility.yul\":5998:6436   */\n      iszero\n      tag_338\n      jumpi\n        /* \"#utility.yul\":6094:6103   */\n      dup5\n        /* \"#utility.yul\":6088:6092   */\n      dup5\n        /* \"#utility.yul\":6084:6104   */\n      sub\n        /* \"#utility.yul\":6079:6082   */\n      dup10\n        /* \"#utility.yul\":6072:6105   */\n      mstore\n        /* \"#utility.yul\":6145:6151   */\n      dup2\n        /* \"#utility.yul\":6139:6152   */\n      mload\n        /* \"#utility.yul\":6173:6285   */\n      tag_339\n        /* \"#utility.yul\":6280:6284   */\n      dup6\n        /* \"#utility.yul\":6265:6278   */\n      dup3\n        /* \"#utility.yul\":6173:6285   */\n      tag_240\n      jump\t// in\n    tag_339:\n        /* \"#utility.yul\":6165:6285   */\n      swap5\n      pop\n        /* \"#utility.yul\":6308:6392   */\n      tag_340\n        /* \"#utility.yul\":6385:6391   */\n      dup4\n        /* \"#utility.yul\":6308:6392   */\n      tag_241\n      jump\t// in\n    tag_340:\n        /* \"#utility.yul\":6298:6392   */\n      swap3\n      pop\n        /* \"#utility.yul\":6421:6425   */\n      0x20\n        /* \"#utility.yul\":6416:6419   */\n      dup11\n        /* \"#utility.yul\":6412:6426   */\n      add\n        /* \"#utility.yul\":6405:6426   */\n      swap10\n      pop\n        /* \"#utility.yul\":6058:6436   */\n      pop\n        /* \"#utility.yul\":6045:6046   */\n      0x01\n        /* \"#utility.yul\":6042:6043   */\n      dup2\n        /* \"#utility.yul\":6038:6047   */\n      add\n        /* \"#utility.yul\":6033:6047   */\n      swap1\n      pop\n        /* \"#utility.yul\":5998:6436   */\n      jump(tag_336)\n    tag_338:\n        /* \"#utility.yul\":6002:6016   */\n      pop\n        /* \"#utility.yul\":6452:6456   */\n      dup3\n        /* \"#utility.yul\":6445:6456   */\n      swap8\n      pop\n        /* \"#utility.yul\":6472:6475   */\n      dup8\n        /* \"#utility.yul\":6465:6475   */\n      swap6\n      pop\n        /* \"#utility.yul\":5550:6481   */\n      pop\n      pop\n      pop\n      pop\n      pop\n        /* \"#utility.yul\":5378:6481   */\n      swap3\n      swap2\n      pop\n      pop\n      jump\t// out\n        /* \"#utility.yul\":6487:6956   */\n    tag_22:\n        /* \"#utility.yul\":6678:6682   */\n      0x00\n        /* \"#utility.yul\":6716:6718   */\n      0x20\n        /* \"#utility.yul\":6705:6714   */\n      dup3\n        /* \"#utility.yul\":6701:6719   */\n      add\n        /* \"#utility.yul\":6693:6719   */\n      swap1\n      pop\n        /* \"#utility.yul\":6765:6774   */\n      dup2\n        /* \"#utility.yul\":6759:6763   */\n      dup2\n        /* \"#utility.yul\":6755:6775   */\n      sub\n        /* \"#utility.yul\":6751:6752   */\n      0x00\n        /* \"#utility.yul\":6740:6749   */\n      dup4\n        /* \"#utility.yul\":6736:6753   */\n      add\n        /* \"#utility.yul\":6729:6776   */\n      mstore\n        /* \"#utility.yul\":6793:6949   */\n      tag_342\n        /* \"#utility.yul\":6944:6948   */\n      dup2\n        /* \"#utility.yul\":6935:6941   */\n      dup5\n        /* \"#utility.yul\":6793:6949   */\n      tag_242\n      jump\t// in\n    tag_342:\n        /* \"#utility.yul\":6785:6949   */\n      swap1\n      pop\n        /* \"#utility.yul\":6487:6956   */\n      swap3\n      swap2\n      pop\n      pop\n      jump\t// out\n        /* \"#utility.yul\":7040:7556   */\n    tag_243:\n        /* \"#utility.yul\":7183:7187   */\n      0x40\n        /* \"#utility.yul\":7178:7181   */\n      dup3\n        /* \"#utility.yul\":7174:7188   */\n      add\n        /* \"#utility.yul\":7277:7281   */\n      0x00\n        /* \"#utility.yul\":7270:7275   */\n      dup3\n        /* \"#utility.yul\":7266:7282   */\n      add\n        /* \"#utility.yul\":7260:7283   */\n      mload\n        /* \"#utility.yul\":7296:7359   */\n      tag_344\n        /* \"#utility.yul\":7353:7357   */\n      0x00\n        /* \"#utility.yul\":7348:7351   */\n      dup6\n        /* \"#utility.yul\":7344:7358   */\n      add\n        /* \"#utility.yul\":7330:7342   */\n      dup3\n        /* \"#utility.yul\":7296:7359   */\n      tag_231\n      jump\t// in\n    tag_344:\n        /* \"#utility.yul\":7198:7369   */\n      pop\n        /* \"#utility.yul\":7457:7461   */\n      0x20\n        /* \"#utility.yul\":7450:7455   */\n      dup3\n        /* \"#utility.yul\":7446:7462   */\n      add\n        /* \"#utility.yul\":7440:7463   */\n      mload\n        /* \"#utility.yul\":7476:7539   */\n      tag_345\n        /* \"#utility.yul\":7533:7537   */\n      0x20\n        /* \"#utility.yul\":7528:7531   */\n      dup6\n        /* \"#utility.yul\":7524:7538   */\n      add\n        /* \"#utility.yul\":7510:7522   */\n      dup3\n        /* \"#utility.yul\":7476:7539   */\n      tag_232\n      jump\t// in\n    tag_345:\n        /* \"#utility.yul\":7379:7549   */\n      pop\n        /* \"#utility.yul\":7152:7556   */\n      pop\n        /* \"#utility.yul\":7040:7556   */\n      pop\n      pop\n      jump\t// out\n        /* \"#utility.yul\":7562:7876   */\n    tag_32:\n        /* \"#utility.yul\":7701:7705   */\n      0x00\n        /* \"#utility.yul\":7739:7741   */\n      0x40\n        /* \"#utility.yul\":7728:7737   */\n      dup3\n        /* \"#utility.yul\":7724:7742   */\n      add\n        /* \"#utility.yul\":7716:7742   */\n      swap1\n      pop\n        /* \"#utility.yul\":7752:7869   */\n      tag_347\n        /* \"#utility.yul\":7866:7867   */\n      0x00\n        /* \"#utility.yul\":7855:7864   */\n      dup4\n        /* \"#utility.yul\":7851:7868   */\n      add\n        /* \"#utility.yul\":7842:7848   */\n      dup5\n        /* \"#utility.yul\":7752:7869   */\n      tag_243\n      jump\t// in\n    tag_347:\n        /* \"#utility.yul\":7562:7876   */\n      swap3\n      swap2\n      pop\n      pop\n      jump\t// out\n        /* \"#utility.yul\":7960:8839   */\n    tag_244:\n        /* \"#utility.yul\":8077:8080   */\n      0x00\n        /* \"#utility.yul\":8113:8117   */\n      0xa0\n        /* \"#utility.yul\":8108:8111   */\n      dup4\n        /* \"#utility.yul\":8104:8118   */\n      add\n        /* \"#utility.yul\":8201:8205   */\n      0x00\n        /* \"#utility.yul\":8194:8199   */\n      dup4\n        /* \"#utility.yul\":8190:8206   */\n      add\n        /* \"#utility.yul\":8184:8207   */\n      mload\n        /* \"#utility.yul\":8220:8329   */\n      tag_349\n        /* \"#utility.yul\":8323:8327   */\n      0x00\n        /* \"#utility.yul\":8318:8321   */\n      dup7\n        /* \"#utility.yul\":8314:8328   */\n      add\n        /* \"#utility.yul\":8300:8312   */\n      dup3\n        /* \"#utility.yul\":8220:8329   */\n      tag_233\n      jump\t// in\n    tag_349:\n        /* \"#utility.yul\":8128:8339   */\n      pop\n        /* \"#utility.yul\":8422:8426   */\n      0x20\n        /* \"#utility.yul\":8415:8420   */\n      dup4\n        /* \"#utility.yul\":8411:8427   */\n      add\n        /* \"#utility.yul\":8405:8428   */\n      mload\n        /* \"#utility.yul\":8441:8550   */\n      tag_350\n        /* \"#utility.yul\":8544:8548   */\n      0x40\n        /* \"#utility.yul\":8539:8542   */\n      dup7\n        /* \"#utility.yul\":8535:8549   */\n      add\n        /* \"#utility.yul\":8521:8533   */\n      dup3\n        /* \"#utility.yul\":8441:8550   */\n      tag_233\n      jump\t// in\n    tag_350:\n        /* \"#utility.yul\":8349:8560   */\n      pop\n        /* \"#utility.yul\":8649:8653   */\n      0x40\n        /* \"#utility.yul\":8642:8647   */\n      dup4\n        /* \"#utility.yul\":8638:8654   */\n      add\n        /* \"#utility.yul\":8632:8655   */\n      mload\n        /* \"#utility.yul\":8702:8705   */\n      dup5\n        /* \"#utility.yul\":8696:8700   */\n      dup3\n        /* \"#utility.yul\":8692:8706   */\n      sub\n        /* \"#utility.yul\":8685:8689   */\n      0x80\n        /* \"#utility.yul\":8680:8683   */\n      dup7\n        /* \"#utility.yul\":8676:8690   */\n      add\n        /* \"#utility.yul\":8669:8707   */\n      mstore\n        /* \"#utility.yul\":8728:8801   */\n      tag_351\n        /* \"#utility.yul\":8796:8800   */\n      dup3\n        /* \"#utility.yul\":8782:8794   */\n      dup3\n        /* \"#utility.yul\":8728:8801   */\n      tag_238\n      jump\t// in\n    tag_351:\n        /* \"#utility.yul\":8720:8801   */\n      swap2\n      pop\n        /* \"#utility.yul\":8570:8812   */\n      pop\n        /* \"#utility.yul\":8829:8833   */\n      dup1\n        /* \"#utility.yul\":8822:8833   */\n      swap2\n      pop\n        /* \"#utility.yul\":8082:8839   */\n      pop\n        /* \"#utility.yul\":7960:8839   */\n      swap3\n      swap2\n      pop\n      pop\n      jump\t// out\n        /* \"#utility.yul\":8845:9214   */\n    tag_37:\n        /* \"#utility.yul\":8986:8990   */\n      0x00\n        /* \"#utility.yul\":9024:9026   */\n      0x20\n        /* \"#utility.yul\":9013:9022   */\n      dup3\n        /* \"#utility.yul\":9009:9027   */\n      add\n        /* \"#utility.yul\":9001:9027   */\n      swap1\n      pop\n        /* \"#utility.yul\":9073:9082   */\n      dup2\n        /* \"#utility.yul\":9067:9071   */\n      dup2\n        /* \"#utility.yul\":9063:9083   */\n      sub\n        /* \"#utility.yul\":9059:9060   */\n      0x00\n        /* \"#utility.yul\":9048:9057   */\n      dup4\n        /* \"#utility.yul\":9044:9061   */\n      add\n        /* \"#utility.yul\":9037:9084   */\n      mstore\n        /* \"#utility.yul\":9101:9207   */\n      tag_353\n        /* \"#utility.yul\":9202:9206   */\n      dup2\n        /* \"#utility.yul\":9193:9199   */\n      dup5\n        /* \"#utility.yul\":9101:9207   */\n      tag_244\n      jump\t// in\n    tag_353:\n        /* \"#utility.yul\":9093:9207   */\n      swap1\n      pop\n        /* \"#utility.yul\":8845:9214   */\n      swap3\n      swap2\n      pop\n      pop\n      jump\t// out\n        /* \"#utility.yul\":9220:9400   */\n    tag_245:\n        /* \"#utility.yul\":9268:9345   */\n      0x4e487b7100000000000000000000000000000000000000000000000000000000\n        /* \"#utility.yul\":9265:9266   */\n      0x00\n        /* \"#utility.yul\":9258:9346   */\n      mstore\n        /* \"#utility.yul\":9365:9369   */\n      0x11\n        /* \"#utility.yul\":9362:9363   */\n      0x04\n        /* \"#utility.yul\":9355:9370   */\n      mstore\n        /* \"#utility.yul\":9389:9393   */\n      0x24\n        /* \"#utility.yul\":9386:9387   */\n      0x00\n        /* \"#utility.yul\":9379:9394   */\n      revert\n        /* \"#utility.yul\":9406:9600   */\n    tag_40:\n        /* \"#utility.yul\":9446:9450   */\n      0x00\n        /* \"#utility.yul\":9466:9486   */\n      tag_356\n        /* \"#utility.yul\":9484:9485   */\n      dup3\n        /* \"#utility.yul\":9466:9486   */\n      tag_222\n      jump\t// in\n    tag_356:\n        /* \"#utility.yul\":9461:9486   */\n      swap2\n      pop\n        /* \"#utility.yul\":9500:9520   */\n      tag_357\n        /* \"#utility.yul\":9518:9519   */\n      dup4\n        /* \"#utility.yul\":9500:9520   */\n      tag_222\n      jump\t// in\n    tag_357:\n        /* \"#utility.yul\":9495:9520   */\n      swap3\n      pop\n        /* \"#utility.yul\":9544:9545   */\n      dup3\n        /* \"#utility.yul\":9541:9542   */\n      dup3\n        /* \"#utility.yul\":9537:9546   */\n      sub\n        /* \"#utility.yul\":9529:9546   */\n      swap1\n      pop\n        /* \"#utility.yul\":9568:9569   */\n      dup2\n        /* \"#utility.yul\":9562:9566   */\n      dup2\n        /* \"#utility.yul\":9559:9570   */\n      gt\n        /* \"#utility.yul\":9556:9593   */\n      iszero\n      tag_358\n      jumpi\n        /* \"#utility.yul\":9573:9591   */\n      tag_359\n      tag_245\n      jump\t// in\n    tag_359:\n        /* \"#utility.yul\":9556:9593   */\n    tag_358:\n        /* \"#utility.yul\":9406:9600   */\n      swap3\n      swap2\n      pop\n      pop\n      jump\t// out\n        /* \"#utility.yul\":9606:9786   */\n    tag_43:\n        /* \"#utility.yul\":9654:9731   */\n      0x4e487b7100000000000000000000000000000000000000000000000000000000\n        /* \"#utility.yul\":9651:9652   */\n      0x00\n        /* \"#utility.yul\":9644:9732   */\n      mstore\n        /* \"#utility.yul\":9751:9755   */\n      0x32\n        /* \"#utility.yul\":9748:9749   */\n      0x04\n        /* \"#utility.yul\":9741:9756   */\n      mstore\n        /* \"#utility.yul\":9775:9779   */\n      0x24\n        /* \"#utility.yul\":9772:9773   */\n      0x00\n        /* \"#utility.yul\":9765:9780   */\n      revert\n        /* \"#utility.yul\":9792:9961   */\n    tag_246:\n        /* \"#utility.yul\":9876:9887   */\n      0x00\n        /* \"#utility.yul\":9910:9916   */\n      dup3\n        /* \"#utility.yul\":9905:9908   */\n      dup3\n        /* \"#utility.yul\":9898:9917   */\n      mstore\n        /* \"#utility.yul\":9950:9954   */\n      0x20\n        /* \"#utility.yul\":9945:9948   */\n      dup3\n        /* \"#utility.yul\":9941:9955   */\n      add\n        /* \"#utility.yul\":9926:9955   */\n      swap1\n      pop\n        /* \"#utility.yul\":9792:9961   */\n      swap3\n      swap2\n      pop\n      pop\n      jump\t// out\n        /* \"#utility.yul\":9967:10141   */\n    tag_247:\n        /* \"#utility.yul\":10107:10133   */\n      0x676f20696e20746f20636f6e646974696f6e20636865636b0000000000000000\n        /* \"#utility.yul\":10103:10104   */\n      0x00\n        /* \"#utility.yul\":10095:10101   */\n      dup3\n        /* \"#utility.yul\":10091:10105   */\n      add\n        /* \"#utility.yul\":10084:10134   */\n      mstore\n        /* \"#utility.yul\":9967:10141   */\n      pop\n      jump\t// out\n        /* \"#utility.yul\":10147:10513   */\n    tag_248:\n        /* \"#utility.yul\":10289:10292   */\n      0x00\n        /* \"#utility.yul\":10310:10377   */\n      tag_364\n        /* \"#utility.yul\":10374:10376   */\n      0x18\n        /* \"#utility.yul\":10369:10372   */\n      dup4\n        /* \"#utility.yul\":10310:10377   */\n      tag_246\n      jump\t// in\n    tag_364:\n        /* \"#utility.yul\":10303:10377   */\n      swap2\n      pop\n        /* \"#utility.yul\":10386:10479   */\n      tag_365\n        /* \"#utility.yul\":10475:10478   */\n      dup3\n        /* \"#utility.yul\":10386:10479   */\n      tag_247\n      jump\t// in\n    tag_365:\n        /* \"#utility.yul\":10504:10506   */\n      0x20\n        /* \"#utility.yul\":10499:10502   */\n      dup3\n        /* \"#utility.yul\":10495:10507   */\n      add\n        /* \"#utility.yul\":10488:10507   */\n      swap1\n      pop\n        /* \"#utility.yul\":10147:10513   */\n      swap2\n      swap1\n      pop\n      jump\t// out\n        /* \"#utility.yul\":10519:10938   */\n    tag_71:\n        /* \"#utility.yul\":10685:10689   */\n      0x00\n        /* \"#utility.yul\":10723:10725   */\n      0x20\n        /* \"#utility.yul\":10712:10721   */\n      dup3\n        /* \"#utility.yul\":10708:10726   */\n      add\n        /* \"#utility.yul\":10700:10726   */\n      swap1\n      pop\n        /* \"#utility.yul\":10772:10781   */\n      dup2\n        /* \"#utility.yul\":10766:10770   */\n      dup2\n        /* \"#utility.yul\":10762:10782   */\n      sub\n        /* \"#utility.yul\":10758:10759   */\n      0x00\n        /* \"#utility.yul\":10747:10756   */\n      dup4\n        /* \"#utility.yul\":10743:10760   */\n      add\n        /* \"#utility.yul\":10736:10783   */\n      mstore\n        /* \"#utility.yul\":10800:10931   */\n      tag_367\n        /* \"#utility.yul\":10926:10930   */\n      dup2\n        /* \"#utility.yul\":10800:10931   */\n      tag_248\n      jump\t// in\n    tag_367:\n        /* \"#utility.yul\":10792:10931   */\n      swap1\n      pop\n        /* \"#utility.yul\":10519:10938   */\n      swap2\n      swap1\n      pop\n      jump\t// out\n        /* \"#utility.yul\":10944:11124   */\n    tag_249:\n        /* \"#utility.yul\":10992:11069   */\n      0x4e487b7100000000000000000000000000000000000000000000000000000000\n        /* \"#utility.yul\":10989:10990   */\n      0x00\n        /* \"#utility.yul\":10982:11070   */\n      mstore\n        /* \"#utility.yul\":11089:11093   */\n      0x22\n        /* \"#utility.yul\":11086:11087   */\n      0x04\n        /* \"#utility.yul\":11079:11094   */\n      mstore\n        /* \"#utility.yul\":11113:11117   */\n      0x24\n        /* \"#utility.yul\":11110:11111   */\n      0x00\n        /* \"#utility.yul\":11103:11118   */\n      revert\n        /* \"#utility.yul\":11130:11450   */\n    tag_79:\n        /* \"#utility.yul\":11174:11180   */\n      0x00\n        /* \"#utility.yul\":11211:11212   */\n      0x02\n        /* \"#utility.yul\":11205:11209   */\n      dup3\n        /* \"#utility.yul\":11201:11213   */\n      div\n        /* \"#utility.yul\":11191:11213   */\n      swap1\n      pop\n        /* \"#utility.yul\":11258:11259   */\n      0x01\n        /* \"#utility.yul\":11252:11256   */\n      dup3\n        /* \"#utility.yul\":11248:11260   */\n      and\n        /* \"#utility.yul\":11279:11297   */\n      dup1\n        /* \"#utility.yul\":11269:11350   */\n      tag_370\n      jumpi\n        /* \"#utility.yul\":11335:11339   */\n      0x7f\n        /* \"#utility.yul\":11327:11333   */\n      dup3\n        /* \"#utility.yul\":11323:11340   */\n      and\n        /* \"#utility.yul\":11313:11340   */\n      swap2\n      pop\n        /* \"#utility.yul\":11269:11350   */\n    tag_370:\n        /* \"#utility.yul\":11397:11399   */\n      0x20\n        /* \"#utility.yul\":11389:11395   */\n      dup3\n        /* \"#utility.yul\":11386:11400   */\n      lt\n        /* \"#utility.yul\":11366:11384   */\n      dup2\n        /* \"#utility.yul\":11363:11401   */\n      sub\n        /* \"#utility.yul\":11360:11444   */\n      tag_371\n      jumpi\n        /* \"#utility.yul\":11416:11434   */\n      tag_372\n      tag_249\n      jump\t// in\n    tag_372:\n        /* \"#utility.yul\":11360:11444   */\n    tag_371:\n        /* \"#utility.yul\":11181:11450   */\n      pop\n        /* \"#utility.yul\":11130:11450   */\n      swap2\n      swap1\n      pop\n      jump\t// out\n        /* \"#utility.yul\":11456:11627   */\n    tag_250:\n        /* \"#utility.yul\":11596:11619   */\n      0x4572726f723a205265656e7472616e742063616c6c0000000000000000000000\n        /* \"#utility.yul\":11592:11593   */\n      0x00\n        /* \"#utility.yul\":11584:11590   */\n      dup3\n        /* \"#utility.yul\":11580:11594   */\n      add\n        /* \"#utility.yul\":11573:11620   */\n      mstore\n        /* \"#utility.yul\":11456:11627   */\n      pop\n      jump\t// out\n        /* \"#utility.yul\":11633:11999   */\n    tag_251:\n        /* \"#utility.yul\":11775:11778   */\n      0x00\n        /* \"#utility.yul\":11796:11863   */\n      tag_375\n        /* \"#utility.yul\":11860:11862   */\n      0x15\n        /* \"#utility.yul\":11855:11858   */\n      dup4\n        /* \"#utility.yul\":11796:11863   */\n      tag_246\n      jump\t// in\n    tag_375:\n        /* \"#utility.yul\":11789:11863   */\n      swap2\n      pop\n        /* \"#utility.yul\":11872:11965   */\n      tag_376\n        /* \"#utility.yul\":11961:11964   */\n      dup3\n        /* \"#utility.yul\":11872:11965   */\n      tag_250\n      jump\t// in\n    tag_376:\n        /* \"#utility.yul\":11990:11992   */\n      0x20\n        /* \"#utility.yul\":11985:11988   */\n      dup3\n        /* \"#utility.yul\":11981:11993   */\n      add\n        /* \"#utility.yul\":11974:11993   */\n      swap1\n      pop\n        /* \"#utility.yul\":11633:11999   */\n      swap2\n      swap1\n      pop\n      jump\t// out\n        /* \"#utility.yul\":12005:12424   */\n    tag_87:\n        /* \"#utility.yul\":12171:12175   */\n      0x00\n        /* \"#utility.yul\":12209:12211   */\n      0x20\n        /* \"#utility.yul\":12198:12207   */\n      dup3\n        /* \"#utility.yul\":12194:12212   */\n      add\n        /* \"#utility.yul\":12186:12212   */\n      swap1\n      pop\n        /* \"#utility.yul\":12258:12267   */\n      dup2\n        /* \"#utility.yul\":12252:12256   */\n      dup2\n        /* \"#utility.yul\":12248:12268   */\n      sub\n        /* \"#utility.yul\":12244:12245   */\n      0x00\n        /* \"#utility.yul\":12233:12242   */\n      dup4\n        /* \"#utility.yul\":12229:12246   */\n      add\n        /* \"#utility.yul\":12222:12269   */\n      mstore\n        /* \"#utility.yul\":12286:12417   */\n      tag_378\n        /* \"#utility.yul\":12412:12416   */\n      dup2\n        /* \"#utility.yul\":12286:12417   */\n      tag_251\n      jump\t// in\n    tag_378:\n        /* \"#utility.yul\":12278:12417   */\n      swap1\n      pop\n        /* \"#utility.yul\":12005:12424   */\n      swap2\n      swap1\n      pop\n      jump\t// out\n        /* \"#utility.yul\":12430:12610   */\n    tag_252:\n        /* \"#utility.yul\":12478:12555   */\n      0x4e487b7100000000000000000000000000000000000000000000000000000000\n        /* \"#utility.yul\":12475:12476   */\n      0x00\n        /* \"#utility.yul\":12468:12556   */\n      mstore\n        /* \"#utility.yul\":12575:12579   */\n      0x41\n        /* \"#utility.yul\":12572:12573   */\n      0x04\n        /* \"#utility.yul\":12565:12580   */\n      mstore\n        /* \"#utility.yul\":12599:12603   */\n      0x24\n        /* \"#utility.yul\":12596:12597   */\n      0x00\n        /* \"#utility.yul\":12589:12604   */\n      revert\n        /* \"#utility.yul\":12616:12757   */\n    tag_253:\n        /* \"#utility.yul\":12665:12669   */\n      0x00\n        /* \"#utility.yul\":12688:12691   */\n      dup2\n        /* \"#utility.yul\":12680:12691   */\n      swap1\n      pop\n        /* \"#utility.yul\":12711:12714   */\n      dup2\n        /* \"#utility.yul\":12708:12709   */\n      0x00\n        /* \"#utility.yul\":12701:12715   */\n      mstore\n        /* \"#utility.yul\":12745:12749   */\n      0x20\n        /* \"#utility.yul\":12742:12743   */\n      0x00\n        /* \"#utility.yul\":12732:12750   */\n      keccak256\n        /* \"#utility.yul\":12724:12750   */\n      swap1\n      pop\n        /* \"#utility.yul\":12616:12757   */\n      swap2\n      swap1\n      pop\n      jump\t// out\n        /* \"#utility.yul\":12763:12856   */\n    tag_254:\n        /* \"#utility.yul\":12800:12806   */\n      0x00\n        /* \"#utility.yul\":12847:12849   */\n      0x20\n        /* \"#utility.yul\":12842:12844   */\n      0x1f\n        /* \"#utility.yul\":12835:12840   */\n      dup4\n        /* \"#utility.yul\":12831:12845   */\n      add\n        /* \"#utility.yul\":12827:12850   */\n      div\n        /* \"#utility.yul\":12817:12850   */\n      swap1\n      pop\n        /* \"#utility.yul\":12763:12856   */\n      swap2\n      swap1\n      pop\n      jump\t// out\n        /* \"#utility.yul\":12862:12969   */\n    tag_255:\n        /* \"#utility.yul\":12906:12914   */\n      0x00\n        /* \"#utility.yul\":12956:12961   */\n      dup3\n        /* \"#utility.yul\":12950:12954   */\n      dup3\n        /* \"#utility.yul\":12946:12962   */\n      shl\n        /* \"#utility.yul\":12925:12962   */\n      swap1\n      pop\n        /* \"#utility.yul\":12862:12969   */\n      swap3\n      swap2\n      pop\n      pop\n      jump\t// out\n        /* \"#utility.yul\":12975:13368   */\n    tag_256:\n        /* \"#utility.yul\":13044:13050   */\n      0x00\n        /* \"#utility.yul\":13094:13095   */\n      0x08\n        /* \"#utility.yul\":13082:13092   */\n      dup4\n        /* \"#utility.yul\":13078:13096   */\n      mul\n        /* \"#utility.yul\":13117:13214   */\n      tag_384\n        /* \"#utility.yul\":13147:13213   */\n      0xffffffffffffffffffffffffffffffffffffffffffffffffffffffffffffffff\n        /* \"#utility.yul\":13136:13145   */\n      dup3\n        /* \"#utility.yul\":13117:13214   */\n      tag_255\n      jump\t// in\n    tag_384:\n        /* \"#utility.yul\":13235:13274   */\n      tag_385\n        /* \"#utility.yul\":13265:13273   */\n      dup7\n        /* \"#utility.yul\":13254:13263   */\n      dup4\n        /* \"#utility.yul\":13235:13274   */\n      tag_255\n      jump\t// in\n    tag_385:\n        /* \"#utility.yul\":13223:13274   */\n      swap6\n      pop\n        /* \"#utility.yul\":13307:13311   */\n      dup1\n        /* \"#utility.yul\":13303:13312   */\n      not\n        /* \"#utility.yul\":13296:13301   */\n      dup5\n        /* \"#utility.yul\":13292:13313   */\n      and\n        /* \"#utility.yul\":13283:13313   */\n      swap4\n      pop\n        /* \"#utility.yul\":13356:13360   */\n      dup1\n        /* \"#utility.yul\":13346:13354   */\n      dup7\n        /* \"#utility.yul\":13342:13361   */\n      and\n        /* \"#utility.yul\":13335:13340   */\n      dup5\n        /* \"#utility.yul\":13332:13362   */\n      or\n        /* \"#utility.yul\":13322:13362   */\n      swap3\n      pop\n        /* \"#utility.yul\":13051:13368   */\n      pop\n      pop\n        /* \"#utility.yul\":12975:13368   */\n      swap4\n      swap3\n      pop\n      pop\n      pop\n      jump\t// out\n        /* \"#utility.yul\":13374:13434   */\n    tag_257:\n        /* \"#utility.yul\":13402:13405   */\n      0x00\n        /* \"#utility.yul\":13423:13428   */\n      dup2\n        /* \"#utility.yul\":13416:13428   */\n      swap1\n      pop\n        /* \"#utility.yul\":13374:13434   */\n      swap2\n      swap1\n      pop\n      jump\t// out\n        /* \"#utility.yul\":13440:13582   */\n    tag_258:\n        /* \"#utility.yul\":13490:13499   */\n      0x00\n        /* \"#utility.yul\":13523:13576   */\n      tag_388\n        /* \"#utility.yul\":13541:13575   */\n      tag_389\n        /* \"#utility.yul\":13550:13574   */\n      tag_390\n        /* \"#utility.yul\":13568:13573   */\n      dup5\n        /* \"#utility.yul\":13550:13574   */\n      tag_222\n      jump\t// in\n    tag_390:\n        /* \"#utility.yul\":13541:13575   */\n      tag_257\n      jump\t// in\n    tag_389:\n        /* \"#utility.yul\":13523:13576   */\n      tag_222\n      jump\t// in\n    tag_388:\n        /* \"#utility.yul\":13510:13576   */\n      swap1\n      pop\n        /* \"#utility.yul\":13440:13582   */\n      swap2\n      swap1\n      pop\n      jump\t// out\n        /* \"#utility.yul\":13588:13663   */\n    tag_259:\n        /* \"#utility.yul\":13631:13634   */\n      0x00\n        /* \"#utility.yul\":13652:13657   */\n      dup2\n        /* \"#utility.yul\":13645:13657   */\n      swap1\n      pop\n        /* \"#utility.yul\":13588:13663   */\n      swap2\n      swap1\n      pop\n      jump\t// out\n        /* \"#utility.yul\":13669:13938   */\n    tag_260:\n        /* \"#utility.yul\":13779:13818   */\n      tag_393\n        /* \"#utility.yul\":13810:13817   */\n      dup4\n        /* \"#utility.yul\":13779:13818   */\n      tag_258\n      jump\t// in\n    tag_393:\n        /* \"#utility.yul\":13840:13931   */\n      tag_394\n        /* \"#utility.yul\":13889:13930   */\n      tag_395\n        /* \"#utility.yul\":13913:13929   */\n      dup3\n        /* \"#utility.yul\":13889:13930   */\n      tag_259\n      jump\t// in\n    tag_395:\n        /* \"#utility.yul\":13881:13887   */\n      dup5\n        /* \"#utility.yul\":13874:13878   */\n      dup5\n        /* \"#utility.yul\":13868:13879   */\n      sload\n        /* \"#utility.yul\":13840:13931   */\n      tag_256\n      jump\t// in\n    tag_394:\n        /* \"#utility.yul\":13834:13838   */\n      dup3\n        /* \"#utility.yul\":13827:13932   */\n      sstore\n        /* \"#utility.yul\":13745:13938   */\n      pop\n        /* \"#utility.yul\":13669:13938   */\n      pop\n      pop\n      pop\n      jump\t// out\n        /* \"#utility.yul\":13944:14017   */\n    tag_261:\n        /* \"#utility.yul\":13989:13992   */\n      0x00\n        /* \"#utility.yul\":13944:14017   */\n      swap1\n      jump\t// out\n        /* \"#utility.yul\":14023:14212   */\n    tag_262:\n        /* \"#utility.yul\":14100:14132   */\n      tag_398\n      tag_261\n      jump\t// in\n    tag_398:\n        /* \"#utility.yul\":14141:14206   */\n      tag_399\n        /* \"#utility.yul\":14199:14205   */\n      dup2\n        /* \"#utility.yul\":14191:14197   */\n      dup5\n        /* \"#utility.yul\":14185:14189   */\n      dup5\n        /* \"#utility.yul\":14141:14206   */\n      tag_260\n      jump\t// in\n    tag_399:\n        /* \"#utility.yul\":14076:14212   */\n      pop\n        /* \"#utility.yul\":14023:14212   */\n      pop\n      pop\n      jump\t// out\n        /* \"#utility.yul\":14218:14404   */\n    tag_263:\n        /* \"#utility.yul\":14278:14398   */\n    tag_401:\n        /* \"#utility.yul\":14295:14298   */\n      dup2\n        /* \"#utility.yul\":14288:14293   */\n      dup2\n        /* \"#utility.yul\":14285:14299   */\n      lt\n        /* \"#utility.yul\":14278:14398   */\n      iszero\n      tag_403\n      jumpi\n        /* \"#utility.yul\":14349:14388   */\n      tag_404\n        /* \"#utility.yul\":14386:14387   */\n      0x00\n        /* \"#utility.yul\":14379:14384   */\n      dup3\n        /* \"#utility.yul\":14349:14388   */\n      tag_262\n      jump\t// in\n    tag_404:\n        /* \"#utility.yul\":14322:14323   */\n      0x01\n        /* \"#utility.yul\":14315:14320   */\n      dup2\n        /* \"#utility.yul\":14311:14324   */\n      add\n        /* \"#utility.yul\":14302:14324   */\n      swap1\n      pop\n        /* \"#utility.yul\":14278:14398   */\n      jump(tag_401)\n    tag_403:\n        /* \"#utility.yul\":14218:14404   */\n      pop\n      pop\n      jump\t// out\n        /* \"#utility.yul\":14410:14953   */\n    tag_264:\n        /* \"#utility.yul\":14511:14513   */\n      0x1f\n        /* \"#utility.yul\":14506:14509   */\n      dup3\n        /* \"#utility.yul\":14503:14514   */\n      gt\n        /* \"#utility.yul\":14500:14946   */\n      iszero\n      tag_406\n      jumpi\n        /* \"#utility.yul\":14545:14583   */\n      tag_407\n        /* \"#utility.yul\":14577:14582   */\n      dup2\n        /* \"#utility.yul\":14545:14583   */\n      tag_253\n      jump\t// in\n    tag_407:\n        /* \"#utility.yul\":14629:14658   */\n      tag_408\n        /* \"#utility.yul\":14647:14657   */\n      dup5\n        /* \"#utility.yul\":14629:14658   */\n      tag_254\n      jump\t// in\n    tag_408:\n        /* \"#utility.yul\":14619:14627   */\n      dup2\n        /* \"#utility.yul\":14615:14659   */\n      add\n        /* \"#utility.yul\":14812:14814   */\n      0x20\n        /* \"#utility.yul\":14800:14810   */\n      dup6\n        /* \"#utility.yul\":14797:14815   */\n      lt\n        /* \"#utility.yul\":14794:14843   */\n      iszero\n      tag_409\n      jumpi\n        /* \"#utility.yul\":14833:14841   */\n      dup2\n        /* \"#utility.yul\":14818:14841   */\n      swap1\n      pop\n        /* \"#utility.yul\":14794:14843   */\n    tag_409:\n        /* \"#utility.yul\":14856:14936   */\n      tag_410\n        /* \"#utility.yul\":14912:14934   */\n      tag_411\n        /* \"#utility.yul\":14930:14933   */\n      dup6\n        /* \"#utility.yul\":14912:14934   */\n      tag_254\n      jump\t// in\n    tag_411:\n        /* \"#utility.yul\":14902:14910   */\n      dup4\n        /* \"#utility.yul\":14898:14935   */\n      add\n        /* \"#utility.yul\":14885:14896   */\n      dup3\n        /* \"#utility.yul\":14856:14936   */\n      tag_263\n      jump\t// in\n    tag_410:\n        /* \"#utility.yul\":14515:14946   */\n      pop\n      pop\n        /* \"#utility.yul\":14500:14946   */\n    tag_406:\n        /* \"#utility.yul\":14410:14953   */\n      pop\n      pop\n      pop\n      jump\t// out\n        /* \"#utility.yul\":14959:15076   */\n    tag_265:\n        /* \"#utility.yul\":15013:15021   */\n      0x00\n        /* \"#utility.yul\":15063:15068   */\n      dup3\n        /* \"#utility.yul\":15057:15061   */\n      dup3\n        /* \"#utility.yul\":15053:15069   */\n      shr\n        /* \"#utility.yul\":15032:15069   */\n      swap1\n      pop\n        /* \"#utility.yul\":14959:15076   */\n      swap3\n      swap2\n      pop\n      pop\n      jump\t// out\n        /* \"#utility.yul\":15082:15251   */\n    tag_266:\n        /* \"#utility.yul\":15126:15132   */\n      0x00\n        /* \"#utility.yul\":15159:15210   */\n      tag_414\n        /* \"#utility.yul\":15207:15208   */\n      0x00\n        /* \"#utility.yul\":15203:15209   */\n      not\n        /* \"#utility.yul\":15195:15200   */\n      dup5\n        /* \"#utility.yul\":15192:15193   */\n      0x08\n        /* \"#utility.yul\":15188:15201   */\n      mul\n        /* \"#utility.yul\":15159:15210   */\n      tag_265\n      jump\t// in\n    tag_414:\n        /* \"#utility.yul\":15155:15211   */\n      not\n        /* \"#utility.yul\":15240:15244   */\n      dup1\n        /* \"#utility.yul\":15234:15238   */\n      dup4\n        /* \"#utility.yul\":15230:15245   */\n      and\n        /* \"#utility.yul\":15220:15245   */\n      swap2\n      pop\n        /* \"#utility.yul\":15133:15251   */\n      pop\n        /* \"#utility.yul\":15082:15251   */\n      swap3\n      swap2\n      pop\n      pop\n      jump\t// out\n        /* \"#utility.yul\":15256:15551   */\n    tag_267:\n        /* \"#utility.yul\":15332:15336   */\n      0x00\n        /* \"#utility.yul\":15478:15507   */\n      tag_416\n        /* \"#utility.yul\":15503:15506   */\n      dup4\n        /* \"#utility.yul\":15497:15501   */\n      dup4\n        /* \"#utility.yul\":15478:15507   */\n      tag_266\n      jump\t// in\n    tag_416:\n        /* \"#utility.yul\":15470:15507   */\n      swap2\n      pop\n        /* \"#utility.yul\":15540:15543   */\n      dup3\n        /* \"#utility.yul\":15537:15538   */\n      0x02\n        /* \"#utility.yul\":15533:15544   */\n      mul\n        /* \"#utility.yul\":15527:15531   */\n      dup3\n        /* \"#utility.yul\":15524:15545   */\n      or\n        /* \"#utility.yul\":15516:15545   */\n      swap1\n      pop\n        /* \"#utility.yul\":15256:15551   */\n      swap3\n      swap2\n      pop\n      pop\n      jump\t// out\n        /* \"#utility.yul\":15556:16951   */\n    tag_94:\n        /* \"#utility.yul\":15673:15710   */\n      tag_418\n        /* \"#utility.yul\":15706:15709   */\n      dup3\n        /* \"#utility.yul\":15673:15710   */\n      tag_234\n      jump\t// in\n    tag_418:\n        /* \"#utility.yul\":15775:15793   */\n      0xffffffffffffffff\n        /* \"#utility.yul\":15767:15773   */\n      dup2\n        /* \"#utility.yul\":15764:15794   */\n      gt\n        /* \"#utility.yul\":15761:15817   */\n      iszero\n      tag_419\n      jumpi\n        /* \"#utility.yul\":15797:15815   */\n      tag_420\n      tag_252\n      jump\t// in\n    tag_420:\n        /* \"#utility.yul\":15761:15817   */\n    tag_419:\n        /* \"#utility.yul\":15841:15879   */\n      tag_421\n        /* \"#utility.yul\":15873:15877   */\n      dup3\n        /* \"#utility.yul\":15867:15878   */\n      sload\n        /* \"#utility.yul\":15841:15879   */\n      tag_79\n      jump\t// in\n    tag_421:\n        /* \"#utility.yul\":15926:15993   */\n      tag_422\n        /* \"#utility.yul\":15986:15992   */\n      dup3\n        /* \"#utility.yul\":15978:15984   */\n      dup3\n        /* \"#utility.yul\":15972:15976   */\n      dup6\n        /* \"#utility.yul\":15926:15993   */\n      tag_264\n      jump\t// in\n    tag_422:\n        /* \"#utility.yul\":16020:16021   */\n      0x00\n        /* \"#utility.yul\":16044:16048   */\n      0x20\n        /* \"#utility.yul\":16031:16048   */\n      swap1\n      pop\n        /* \"#utility.yul\":16076:16078   */\n      0x1f\n        /* \"#utility.yul\":16068:16074   */\n      dup4\n        /* \"#utility.yul\":16065:16079   */\n      gt\n        /* \"#utility.yul\":16093:16094   */\n      0x01\n        /* \"#utility.yul\":16088:16706   */\n      dup2\n      eq\n      tag_424\n      jumpi\n        /* \"#utility.yul\":16750:16751   */\n      0x00\n        /* \"#utility.yul\":16767:16773   */\n      dup5\n        /* \"#utility.yul\":16764:16841   */\n      iszero\n      tag_425\n      jumpi\n        /* \"#utility.yul\":16816:16825   */\n      dup3\n        /* \"#utility.yul\":16811:16814   */\n      dup8\n        /* \"#utility.yul\":16807:16826   */\n      add\n        /* \"#utility.yul\":16801:16827   */\n      mload\n        /* \"#utility.yul\":16792:16827   */\n      swap1\n      pop\n        /* \"#utility.yul\":16764:16841   */\n    tag_425:\n        /* \"#utility.yul\":16867:16934   */\n      tag_426\n        /* \"#utility.yul\":16927:16933   */\n      dup6\n        /* \"#utility.yul\":16920:16925   */\n      dup3\n        /* \"#utility.yul\":16867:16934   */\n      tag_267\n      jump\t// in\n    tag_426:\n        /* \"#utility.yul\":16861:16865   */\n      dup7\n        /* \"#utility.yul\":16854:16935   */\n      sstore\n        /* \"#utility.yul\":16723:16945   */\n      pop\n        /* \"#utility.yul\":16058:16945   */\n      jump(tag_423)\n        /* \"#utility.yul\":16088:16706   */\n    tag_424:\n        /* \"#utility.yul\":16140:16144   */\n      0x1f\n        /* \"#utility.yul\":16136:16145   */\n      not\n        /* \"#utility.yul\":16128:16134   */\n      dup5\n        /* \"#utility.yul\":16124:16146   */\n      and\n        /* \"#utility.yul\":16174:16211   */\n      tag_427\n        /* \"#utility.yul\":16206:16210   */\n      dup7\n        /* \"#utility.yul\":16174:16211   */\n      tag_253\n      jump\t// in\n    tag_427:\n        /* \"#utility.yul\":16233:16234   */\n      0x00\n        /* \"#utility.yul\":16247:16455   */\n    tag_428:\n        /* \"#utility.yul\":16261:16268   */\n      dup3\n        /* \"#utility.yul\":16258:16259   */\n      dup2\n        /* \"#utility.yul\":16255:16269   */\n      lt\n        /* \"#utility.yul\":16247:16455   */\n      iszero\n      tag_430\n      jumpi\n        /* \"#utility.yul\":16340:16349   */\n      dup5\n        /* \"#utility.yul\":16335:16338   */\n      dup10\n        /* \"#utility.yul\":16331:16350   */\n      add\n        /* \"#utility.yul\":16325:16351   */\n      mload\n        /* \"#utility.yul\":16317:16323   */\n      dup3\n        /* \"#utility.yul\":16310:16352   */\n      sstore\n        /* \"#utility.yul\":16391:16392   */\n      0x01\n        /* \"#utility.yul\":16383:16389   */\n      dup3\n        /* \"#utility.yul\":16379:16393   */\n      add\n        /* \"#utility.yul\":16369:16393   */\n      swap2\n      pop\n        /* \"#utility.yul\":16438:16440   */\n      0x20\n        /* \"#utility.yul\":16427:16436   */\n      dup6\n        /* \"#utility.yul\":16423:16441   */\n      add\n        /* \"#utility.yul\":16410:16441   */\n      swap5\n      pop\n        /* \"#utility.yul\":16284:16288   */\n      0x20\n        /* \"#utility.yul\":16281:16282   */\n      dup2\n        /* \"#utility.yul\":16277:16289   */\n      add\n        /* \"#utility.yul\":16272:16289   */\n      swap1\n      pop\n        /* \"#utility.yul\":16247:16455   */\n      jump(tag_428)\n    tag_430:\n        /* \"#utility.yul\":16483:16489   */\n      dup7\n        /* \"#utility.yul\":16474:16481   */\n      dup4\n        /* \"#utility.yul\":16471:16490   */\n      lt\n        /* \"#utility.yul\":16468:16647   */\n      iszero\n      tag_431\n      jumpi\n        /* \"#utility.yul\":16541:16550   */\n      dup5\n        /* \"#utility.yul\":16536:16539   */\n      dup10\n        /* \"#utility.yul\":16532:16551   */\n      add\n        /* \"#utility.yul\":16526:16552   */\n      mload\n        /* \"#utility.yul\":16584:16632   */\n      tag_432\n        /* \"#utility.yul\":16626:16630   */\n      0x1f\n        /* \"#utility.yul\":16618:16624   */\n      dup10\n        /* \"#utility.yul\":16614:16631   */\n      and\n        /* \"#utility.yul\":16603:16612   */\n      dup3\n        /* \"#utility.yul\":16584:16632   */\n      tag_266\n      jump\t// in\n    tag_432:\n        /* \"#utility.yul\":16576:16582   */\n      dup4\n        /* \"#utility.yul\":16569:16633   */\n      sstore\n        /* \"#utility.yul\":16491:16647   */\n      pop\n        /* \"#utility.yul\":16468:16647   */\n    tag_431:\n        /* \"#utility.yul\":16693:16694   */\n      0x01\n        /* \"#utility.yul\":16689:16690   */\n      0x02\n        /* \"#utility.yul\":16681:16687   */\n      dup9\n        /* \"#utility.yul\":16677:16691   */\n      mul\n        /* \"#utility.yul\":16673:16695   */\n      add\n        /* \"#utility.yul\":16667:16671   */\n      dup9\n        /* \"#utility.yul\":16660:16696   */\n      sstore\n        /* \"#utility.yul\":16095:16706   */\n      pop\n      pop\n      pop\n        /* \"#utility.yul\":16058:16945   */\n    tag_423:\n      pop\n        /* \"#utility.yul\":15648:16951   */\n      pop\n      pop\n      pop\n        /* \"#utility.yul\":15556:16951   */\n      pop\n      pop\n      jump\t// out\n        /* \"#utility.yul\":16957:17190   */\n    tag_100:\n        /* \"#utility.yul\":16996:16999   */\n      0x00\n        /* \"#utility.yul\":17019:17043   */\n      tag_434\n        /* \"#utility.yul\":17037:17042   */\n      dup3\n        /* \"#utility.yul\":17019:17043   */\n      tag_222\n      jump\t// in\n    tag_434:\n        /* \"#utility.yul\":17010:17043   */\n      swap2\n      pop\n        /* \"#utility.yul\":17065:17131   */\n      0xffffffffffffffffffffffffffffffffffffffffffffffffffffffffffffffff\n        /* \"#utility.yul\":17058:17063   */\n      dup3\n        /* \"#utility.yul\":17055:17132   */\n      sub\n        /* \"#utility.yul\":17052:17155   */\n      tag_435\n      jumpi\n        /* \"#utility.yul\":17135:17153   */\n      tag_436\n      tag_245\n      jump\t// in\n    tag_436:\n        /* \"#utility.yul\":17052:17155   */\n    tag_435:\n        /* \"#utility.yul\":17182:17183   */\n      0x01\n        /* \"#utility.yul\":17175:17180   */\n      dup3\n        /* \"#utility.yul\":17171:17184   */\n      add\n        /* \"#utility.yul\":17164:17184   */\n      swap1\n      pop\n        /* \"#utility.yul\":16957:17190   */\n      swap2\n      swap1\n      pop\n      jump\t// out\n        /* \"#utility.yul\":17196:17419   */\n    tag_268:\n        /* \"#utility.yul\":17336:17370   */\n      0x4572726f723a20596f752063616e6e6f7420706c6179207769746820796f7572\n        /* \"#utility.yul\":17332:17333   */\n      0x00\n        /* \"#utility.yul\":17324:17330   */\n      dup3\n        /* \"#utility.yul\":17320:17334   */\n      add\n        /* \"#utility.yul\":17313:17371   */\n      mstore\n        /* \"#utility.yul\":17405:17411   */\n      0x73656c6600000000000000000000000000000000000000000000000000000000\n        /* \"#utility.yul\":17400:17402   */\n      0x20\n        /* \"#utility.yul\":17392:17398   */\n      dup3\n        /* \"#utility.yul\":17388:17403   */\n      add\n        /* \"#utility.yul\":17381:17412   */\n      mstore\n        /* \"#utility.yul\":17196:17419   */\n      pop\n      jump\t// out\n        /* \"#utility.yul\":17425:17791   */\n    tag_269:\n        /* \"#utility.yul\":17567:17570   */\n      0x00\n        /* \"#utility.yul\":17588:17655   */\n      tag_439\n        /* \"#utility.yul\":17652:17654   */\n      0x24\n        /* \"#utility.yul\":17647:17650   */\n      dup4\n        /* \"#utility.yul\":17588:17655   */\n      tag_246\n      jump\t// in\n    tag_439:\n        /* \"#utility.yul\":17581:17655   */\n      swap2\n      pop\n        /* \"#utility.yul\":17664:17757   */\n      tag_440\n        /* \"#utility.yul\":17753:17756   */\n      dup3\n        /* \"#utility.yul\":17664:17757   */\n      tag_268\n      jump\t// in\n    tag_440:\n        /* \"#utility.yul\":17782:17784   */\n      0x40\n        /* \"#utility.yul\":17777:17780   */\n      dup3\n        /* \"#utility.yul\":17773:17785   */\n      add\n        /* \"#utility.yul\":17766:17785   */\n      swap1\n      pop\n        /* \"#utility.yul\":17425:17791   */\n      swap2\n      swap1\n      pop\n      jump\t// out\n        /* \"#utility.yul\":17797:18216   */\n    tag_108:\n        /* \"#utility.yul\":17963:17967   */\n      0x00\n        /* \"#utility.yul\":18001:18003   */\n      0x20\n        /* \"#utility.yul\":17990:17999   */\n      dup3\n        /* \"#utility.yul\":17986:18004   */\n      add\n        /* \"#utility.yul\":17978:18004   */\n      swap1\n      pop\n        /* \"#utility.yul\":18050:18059   */\n      dup2\n        /* \"#utility.yul\":18044:18048   */\n      dup2\n        /* \"#utility.yul\":18040:18060   */\n      sub\n        /* \"#utility.yul\":18036:18037   */\n      0x00\n        /* \"#utility.yul\":18025:18034   */\n      dup4\n        /* \"#utility.yul\":18021:18038   */\n      add\n        /* \"#utility.yul\":18014:18061   */\n      mstore\n        /* \"#utility.yul\":18078:18209   */\n      tag_442\n        /* \"#utility.yul\":18204:18208   */\n      dup2\n        /* \"#utility.yul\":18078:18209   */\n      tag_269\n      jump\t// in\n    tag_442:\n        /* \"#utility.yul\":18070:18209   */\n      swap1\n      pop\n        /* \"#utility.yul\":17797:18216   */\n      swap2\n      swap1\n      pop\n      jump\t// out\n        /* \"#utility.yul\":18222:18447   */\n    tag_270:\n        /* \"#utility.yul\":18362:18396   */\n      0x596f75206e65656420746f207761697420666f72207468652070657276696f75\n        /* \"#utility.yul\":18358:18359   */\n      0x00\n        /* \"#utility.yul\":18350:18356   */\n      dup3\n        /* \"#utility.yul\":18346:18360   */\n      add\n        /* \"#utility.yul\":18339:18397   */\n      mstore\n        /* \"#utility.yul\":18431:18439   */\n      0x7320757365720000000000000000000000000000000000000000000000000000\n        /* \"#utility.yul\":18426:18428   */\n      0x20\n        /* \"#utility.yul\":18418:18424   */\n      dup3\n        /* \"#utility.yul\":18414:18429   */\n      add\n        /* \"#utility.yul\":18407:18440   */\n      mstore\n        /* \"#utility.yul\":18222:18447   */\n      pop\n      jump\t// out\n        /* \"#utility.yul\":18453:18819   */\n    tag_271:\n        /* \"#utility.yul\":18595:18598   */\n      0x00\n        /* \"#utility.yul\":18616:18683   */\n      tag_445\n        /* \"#utility.yul\":18680:18682   */\n      0x26\n        /* \"#utility.yul\":18675:18678   */\n      dup4\n        /* \"#utility.yul\":18616:18683   */\n      tag_246\n      jump\t// in\n    tag_445:\n        /* \"#utility.yul\":18609:18683   */\n      swap2\n      pop\n        /* \"#utility.yul\":18692:18785   */\n      tag_446\n        /* \"#utility.yul\":18781:18784   */\n      dup3\n        /* \"#utility.yul\":18692:18785   */\n      tag_270\n      jump\t// in\n    tag_446:\n        /* \"#utility.yul\":18810:18812   */\n      0x40\n        /* \"#utility.yul\":18805:18808   */\n      dup3\n        /* \"#utility.yul\":18801:18813   */\n      add\n        /* \"#utility.yul\":18794:18813   */\n      swap1\n      pop\n        /* \"#utility.yul\":18453:18819   */\n      swap2\n      swap1\n      pop\n      jump\t// out\n        /* \"#utility.yul\":18825:19244   */\n    tag_111:\n        /* \"#utility.yul\":18991:18995   */\n      0x00\n        /* \"#utility.yul\":19029:19031   */\n      0x20\n        /* \"#utility.yul\":19018:19027   */\n      dup3\n        /* \"#utility.yul\":19014:19032   */\n      add\n        /* \"#utility.yul\":19006:19032   */\n      swap1\n      pop\n        /* \"#utility.yul\":19078:19087   */\n      dup2\n        /* \"#utility.yul\":19072:19076   */\n      dup2\n        /* \"#utility.yul\":19068:19088   */\n      sub\n        /* \"#utility.yul\":19064:19065   */\n      0x00\n        /* \"#utility.yul\":19053:19062   */\n      dup4\n        /* \"#utility.yul\":19049:19066   */\n      add\n        /* \"#utility.yul\":19042:19089   */\n      mstore\n        /* \"#utility.yul\":19106:19237   */\n      tag_448\n        /* \"#utility.yul\":19232:19236   */\n      dup2\n        /* \"#utility.yul\":19106:19237   */\n      tag_271\n      jump\t// in\n    tag_448:\n        /* \"#utility.yul\":19098:19237   */\n      swap1\n      pop\n        /* \"#utility.yul\":18825:19244   */\n      swap2\n      swap1\n      pop\n      jump\t// out\n        /* \"#utility.yul\":19250:19582   */\n    tag_125:\n        /* \"#utility.yul\":19371:19375   */\n      0x00\n        /* \"#utility.yul\":19409:19411   */\n      0x40\n        /* \"#utility.yul\":19398:19407   */\n      dup3\n        /* \"#utility.yul\":19394:19412   */\n      add\n        /* \"#utility.yul\":19386:19412   */\n      swap1\n      pop\n        /* \"#utility.yul\":19422:19493   */\n      tag_450\n        /* \"#utility.yul\":19490:19491   */\n      0x00\n        /* \"#utility.yul\":19479:19488   */\n      dup4\n        /* \"#utility.yul\":19475:19492   */\n      add\n        /* \"#utility.yul\":19466:19472   */\n      dup6\n        /* \"#utility.yul\":19422:19493   */\n      tag_227\n      jump\t// in\n    tag_450:\n        /* \"#utility.yul\":19503:19575   */\n      tag_451\n        /* \"#utility.yul\":19571:19573   */\n      0x20\n        /* \"#utility.yul\":19560:19569   */\n      dup4\n        /* \"#utility.yul\":19556:19574   */\n      add\n        /* \"#utility.yul\":19547:19553   */\n      dup5\n        /* \"#utility.yul\":19503:19575   */\n      tag_227\n      jump\t// in\n    tag_451:\n        /* \"#utility.yul\":19250:19582   */\n      swap4\n      swap3\n      pop\n      pop\n      pop\n      jump\t// out\n        /* \"#utility.yul\":19588:19759   */\n    tag_272:\n        /* \"#utility.yul\":19728:19751   */\n      0x4572726f723a20496e76616c6964206c656e6774680000000000000000000000\n        /* \"#utility.yul\":19724:19725   */\n      0x00\n        /* \"#utility.yul\":19716:19722   */\n      dup3\n        /* \"#utility.yul\":19712:19726   */\n      add\n        /* \"#utility.yul\":19705:19752   */\n      mstore\n        /* \"#utility.yul\":19588:19759   */\n      pop\n      jump\t// out\n        /* \"#utility.yul\":19765:20131   */\n    tag_273:\n        /* \"#utility.yul\":19907:19910   */\n      0x00\n        /* \"#utility.yul\":19928:19995   */\n      tag_454\n        /* \"#utility.yul\":19992:19994   */\n      0x15\n        /* \"#utility.yul\":19987:19990   */\n      dup4\n        /* \"#utility.yul\":19928:19995   */\n      tag_246\n      jump\t// in\n    tag_454:\n        /* \"#utility.yul\":19921:19995   */\n      swap2\n      pop\n        /* \"#utility.yul\":20004:20097   */\n      tag_455\n        /* \"#utility.yul\":20093:20096   */\n      dup3\n        /* \"#utility.yul\":20004:20097   */\n      tag_272\n      jump\t// in\n    tag_455:\n        /* \"#utility.yul\":20122:20124   */\n      0x20\n        /* \"#utility.yul\":20117:20120   */\n      dup3\n        /* \"#utility.yul\":20113:20125   */\n      add\n        /* \"#utility.yul\":20106:20125   */\n      swap1\n      pop\n        /* \"#utility.yul\":19765:20131   */\n      swap2\n      swap1\n      pop\n      jump\t// out\n        /* \"#utility.yul\":20137:20556   */\n    tag_132:\n        /* \"#utility.yul\":20303:20307   */\n      0x00\n        /* \"#utility.yul\":20341:20343   */\n      0x20\n        /* \"#utility.yul\":20330:20339   */\n      dup3\n        /* \"#utility.yul\":20326:20344   */\n      add\n        /* \"#utility.yul\":20318:20344   */\n      swap1\n      pop\n        /* \"#utility.yul\":20390:20399   */\n      dup2\n        /* \"#utility.yul\":20384:20388   */\n      dup2\n        /* \"#utility.yul\":20380:20400   */\n      sub\n        /* \"#utility.yul\":20376:20377   */\n      0x00\n        /* \"#utility.yul\":20365:20374   */\n      dup4\n        /* \"#utility.yul\":20361:20378   */\n      add\n        /* \"#utility.yul\":20354:20401   */\n      mstore\n        /* \"#utility.yul\":20418:20549   */\n      tag_457\n        /* \"#utility.yul\":20544:20548   */\n      dup2\n        /* \"#utility.yul\":20418:20549   */\n      tag_273\n      jump\t// in\n    tag_457:\n        /* \"#utility.yul\":20410:20549   */\n      swap1\n      pop\n        /* \"#utility.yul\":20137:20556   */\n      swap2\n      swap1\n      pop\n      jump\t// out\n        /* \"#utility.yul\":20562:20742   */\n    tag_274:\n        /* \"#utility.yul\":20702:20734   */\n      0x4572726f723a205468652067616d65206e6f742066696e697368207965740000\n        /* \"#utility.yul\":20698:20699   */\n      0x00\n        /* \"#utility.yul\":20690:20696   */\n      dup3\n        /* \"#utility.yul\":20686:20700   */\n      add\n        /* \"#utility.yul\":20679:20735   */\n      mstore\n        /* \"#utility.yul\":20562:20742   */\n      pop\n      jump\t// out\n        /* \"#utility.yul\":20748:21114   */\n    tag_275:\n        /* \"#utility.yul\":20890:20893   */\n      0x00\n        /* \"#utility.yul\":20911:20978   */\n      tag_460\n        /* \"#utility.yul\":20975:20977   */\n      0x1e\n        /* \"#utility.yul\":20970:20973   */\n      dup4\n        /* \"#utility.yul\":20911:20978   */\n      tag_246\n      jump\t// in\n    tag_460:\n        /* \"#utility.yul\":20904:20978   */\n      swap2\n      pop\n        /* \"#utility.yul\":20987:21080   */\n      tag_461\n        /* \"#utility.yul\":21076:21079   */\n      dup3\n        /* \"#utility.yul\":20987:21080   */\n      tag_274\n      jump\t// in\n    tag_461:\n        /* \"#utility.yul\":21105:21107   */\n      0x20\n        /* \"#utility.yul\":21100:21103   */\n      dup3\n        /* \"#utility.yul\":21096:21108   */\n      add\n        /* \"#utility.yul\":21089:21108   */\n      swap1\n      pop\n        /* \"#utility.yul\":20748:21114   */\n      swap2\n      swap1\n      pop\n      jump\t// out\n        /* \"#utility.yul\":21120:21539   */\n    tag_145:\n        /* \"#utility.yul\":21286:21290   */\n      0x00\n        /* \"#utility.yul\":21324:21326   */\n      0x20\n        /* \"#utility.yul\":21313:21322   */\n      dup3\n        /* \"#utility.yul\":21309:21327   */\n      add\n        /* \"#utility.yul\":21301:21327   */\n      swap1\n      pop\n        /* \"#utility.yul\":21373:21382   */\n      dup2\n        /* \"#utility.yul\":21367:21371   */\n      dup2\n        /* \"#utility.yul\":21363:21383   */\n      sub\n        /* \"#utility.yul\":21359:21360   */\n      0x00\n        /* \"#utility.yul\":21348:21357   */\n      dup4\n        /* \"#utility.yul\":21344:21361   */\n      add\n        /* \"#utility.yul\":21337:21384   */\n      mstore\n        /* \"#utility.yul\":21401:21532   */\n      tag_463\n        /* \"#utility.yul\":21527:21531   */\n      dup2\n        /* \"#utility.yul\":21401:21532   */\n      tag_275\n      jump\t// in\n    tag_463:\n        /* \"#utility.yul\":21393:21532   */\n      swap1\n      pop\n        /* \"#utility.yul\":21120:21539   */\n      swap2\n      swap1\n      pop\n      jump\t// out\n        /* \"#utility.yul\":21545:21699   */\n    tag_276:\n        /* \"#utility.yul\":21685:21691   */\n      0x5469656400000000000000000000000000000000000000000000000000000000\n        /* \"#utility.yul\":21681:21682   */\n      0x00\n        /* \"#utility.yul\":21673:21679   */\n      dup3\n        /* \"#utility.yul\":21669:21683   */\n      add\n        /* \"#utility.yul\":21662:21692   */\n      mstore\n        /* \"#utility.yul\":21545:21699   */\n      pop\n      jump\t// out\n        /* \"#utility.yul\":21705:22070   */\n    tag_277:\n        /* \"#utility.yul\":21847:21850   */\n      0x00\n        /* \"#utility.yul\":21868:21934   */\n      tag_466\n        /* \"#utility.yul\":21932:21933   */\n      0x04\n        /* \"#utility.yul\":21927:21930   */\n      dup4\n        /* \"#utility.yul\":21868:21934   */\n      tag_246\n      jump\t// in\n    tag_466:\n        /* \"#utility.yul\":21861:21934   */\n      swap2\n      pop\n        /* \"#utility.yul\":21943:22036   */\n      tag_467\n        /* \"#utility.yul\":22032:22035   */\n      dup3\n        /* \"#utility.yul\":21943:22036   */\n      tag_276\n      jump\t// in\n    tag_467:\n        /* \"#utility.yul\":22061:22063   */\n      0x20\n        /* \"#utility.yul\":22056:22059   */\n      dup3\n        /* \"#utility.yul\":22052:22064   */\n      add\n        /* \"#utility.yul\":22045:22064   */\n      swap1\n      pop\n        /* \"#utility.yul\":21705:22070   */\n      swap2\n      swap1\n      pop\n      jump\t// out\n        /* \"#utility.yul\":22076:22495   */\n    tag_170:\n        /* \"#utility.yul\":22242:22246   */\n      0x00\n        /* \"#utility.yul\":22280:22282   */\n      0x20\n        /* \"#utility.yul\":22269:22278   */\n      dup3\n        /* \"#utility.yul\":22265:22283   */\n      add\n        /* \"#utility.yul\":22257:22283   */\n      swap1\n      pop\n        /* \"#utility.yul\":22329:22338   */\n      dup2\n        /* \"#utility.yul\":22323:22327   */\n      dup2\n        /* \"#utility.yul\":22319:22339   */\n      sub\n        /* \"#utility.yul\":22315:22316   */\n      0x00\n        /* \"#utility.yul\":22304:22313   */\n      dup4\n        /* \"#utility.yul\":22300:22317   */\n      add\n        /* \"#utility.yul\":22293:22340   */\n      mstore\n        /* \"#utility.yul\":22357:22488   */\n      tag_469\n        /* \"#utility.yul\":22483:22487   */\n      dup2\n        /* \"#utility.yul\":22357:22488   */\n      tag_277\n      jump\t// in\n    tag_469:\n        /* \"#utility.yul\":22349:22488   */\n      swap1\n      pop\n        /* \"#utility.yul\":22076:22495   */\n      swap2\n      swap1\n      pop\n      jump\t// out\n        /* \"#utility.yul\":22501:22660   */\n    tag_278:\n        /* \"#utility.yul\":22641:22652   */\n      0x55736572322077696e0000000000000000000000000000000000000000000000\n        /* \"#utility.yul\":22637:22638   */\n      0x00\n        /* \"#utility.yul\":22629:22635   */\n      dup3\n        /* \"#utility.yul\":22625:22639   */\n      add\n        /* \"#utility.yul\":22618:22653   */\n      mstore\n        /* \"#utility.yul\":22501:22660   */\n      pop\n      jump\t// out\n        /* \"#utility.yul\":22666:23031   */\n    tag_279:\n        /* \"#utility.yul\":22808:22811   */\n      0x00\n        /* \"#utility.yul\":22829:22895   */\n      tag_472\n        /* \"#utility.yul\":22893:22894   */\n      0x09\n        /* \"#utility.yul\":22888:22891   */\n      dup4\n        /* \"#utility.yul\":22829:22895   */\n      tag_246\n      jump\t// in\n    tag_472:\n        /* \"#utility.yul\":22822:22895   */\n      swap2\n      pop\n        /* \"#utility.yul\":22904:22997   */\n      tag_473\n        /* \"#utility.yul\":22993:22996   */\n      dup3\n        /* \"#utility.yul\":22904:22997   */\n      tag_278\n      jump\t// in\n    tag_473:\n        /* \"#utility.yul\":23022:23024   */\n      0x20\n        /* \"#utility.yul\":23017:23020   */\n      dup3\n        /* \"#utility.yul\":23013:23025   */\n      add\n        /* \"#utility.yul\":23006:23025   */\n      swap1\n      pop\n        /* \"#utility.yul\":22666:23031   */\n      swap2\n      swap1\n      pop\n      jump\t// out\n        /* \"#utility.yul\":23037:23456   */\n    tag_208:\n        /* \"#utility.yul\":23203:23207   */\n      0x00\n        /* \"#utility.yul\":23241:23243   */\n      0x20\n        /* \"#utility.yul\":23230:23239   */\n      dup3\n        /* \"#utility.yul\":23226:23244   */\n      add\n        /* \"#utility.yul\":23218:23244   */\n      swap1\n      pop\n        /* \"#utility.yul\":23290:23299   */\n      dup2\n        /* \"#utility.yul\":23284:23288   */\n      dup2\n        /* \"#utility.yul\":23280:23300   */\n      sub\n        /* \"#utility.yul\":23276:23277   */\n      0x00\n        /* \"#utility.yul\":23265:23274   */\n      dup4\n        /* \"#utility.yul\":23261:23278   */\n      add\n        /* \"#utility.yul\":23254:23301   */\n      mstore\n        /* \"#utility.yul\":23318:23449   */\n      tag_475\n        /* \"#utility.yul\":23444:23448   */\n      dup2\n        /* \"#utility.yul\":23318:23449   */\n      tag_279\n      jump\t// in\n    tag_475:\n        /* \"#utility.yul\":23310:23449   */\n      swap1\n      pop\n        /* \"#utility.yul\":23037:23456   */\n      swap2\n      swap1\n      pop\n      jump\t// out\n        /* \"#utility.yul\":23462:23621   */\n    tag_280:\n        /* \"#utility.yul\":23602:23613   */\n      0x55736572312077696e0000000000000000000000000000000000000000000000\n        /* \"#utility.yul\":23598:23599   */\n      0x00\n        /* \"#utility.yul\":23590:23596   */\n      dup3\n        /* \"#utility.yul\":23586:23600   */\n      add\n        /* \"#utility.yul\":23579:23614   */\n      mstore\n        /* \"#utility.yul\":23462:23621   */\n      pop\n      jump\t// out\n        /* \"#utility.yul\":23627:23992   */\n    tag_281:\n        /* \"#utility.yul\":23769:23772   */\n      0x00\n        /* \"#utility.yul\":23790:23856   */\n      tag_478\n        /* \"#utility.yul\":23854:23855   */\n      0x09\n        /* \"#utility.yul\":23849:23852   */\n      dup4\n        /* \"#utility.yul\":23790:23856   */\n      tag_246\n      jump\t// in\n    tag_478:\n        /* \"#utility.yul\":23783:23856   */\n      swap2\n      pop\n        /* \"#utility.yul\":23865:23958   */\n      tag_479\n        /* \"#utility.yul\":23954:23957   */\n      dup3\n        /* \"#utility.yul\":23865:23958   */\n      tag_280\n      jump\t// in\n    tag_479:\n        /* \"#utility.yul\":23983:23985   */\n      0x20\n        /* \"#utility.yul\":23978:23981   */\n      dup3\n        /* \"#utility.yul\":23974:23986   */\n      add\n        /* \"#utility.yul\":23967:23986   */\n      swap1\n      pop\n        /* \"#utility.yul\":23627:23992   */\n      swap2\n      swap1\n      pop\n      jump\t// out\n        /* \"#utility.yul\":23998:24417   */\n    tag_216:\n        /* \"#utility.yul\":24164:24168   */\n      0x00\n        /* \"#utility.yul\":24202:24204   */\n      0x20\n        /* \"#utility.yul\":24191:24200   */\n      dup3\n        /* \"#utility.yul\":24187:24205   */\n      add\n        /* \"#utility.yul\":24179:24205   */\n      swap1\n      pop\n        /* \"#utility.yul\":24251:24260   */\n      dup2\n        /* \"#utility.yul\":24245:24249   */\n      dup2\n        /* \"#utility.yul\":24241:24261   */\n      sub\n        /* \"#utility.yul\":24237:24238   */\n      0x00\n        /* \"#utility.yul\":24226:24235   */\n      dup4\n        /* \"#utility.yul\":24222:24239   */\n      add\n        /* \"#utility.yul\":24215:24262   */\n      mstore\n        /* \"#utility.yul\":24279:24410   */\n      tag_481\n        /* \"#utility.yul\":24405:24409   */\n      dup2\n        /* \"#utility.yul\":24279:24410   */\n      tag_281\n      jump\t// in\n    tag_481:\n        /* \"#utility.yul\":24271:24410   */\n      swap1\n      pop\n        /* \"#utility.yul\":23998:24417   */\n      swap2\n      swap1\n      pop\n      jump\t// out\n\n    auxdata: 0xa2646970667358221220ea6c0789196ddbe610d2a9420847156d7a854507d1e5d498e230640091b8280f64736f6c63430008130033\n}\n",
				"bytecode": {
					"linkReferences": {},
					"object": "60806040526000805534801561001457600080fd5b50611f1d806100246000396000f3fe608060405234801561001057600080fd5b506004361061007d5760003560e01c80636ef595d81161005b5780636ef595d8146100da57806393e84cd9146100f8578063e417f4a314610102578063f7c4efbb146101325761007d565b80632cde7869146100825780633d5e9d2d1461009e578063512ec557146100bc575b600080fd5b61009c60048036038101906100979190611358565b610162565b005b6100a66103c2565b6040516100b391906113c6565b60405180910390f35b6100c46103e8565b6040516100d191906115d0565b60405180910390f35b6100e26105c1565b6040516100ef91906113c6565b60405180910390f35b6101006105e7565b005b61011c60048036038101906101179190611358565b610b10565b6040516101299190611621565b60405180910390f35b61014c60048036038101906101479190611358565b610bf7565b604051610159919061168c565b60405180910390f35b600180808054905061017491906116dd565b8154811061018557610184611711565b5b906000526020600020906005020160000160000160009054906101000a900473ffffffffffffffffffffffffffffffffffffffff1673ffffffffffffffffffffffffffffffffffffffff163373ffffffffffffffffffffffffffffffffffffffff160361022d578060018080805490506101ff91906116dd565b815481106102105761020f611711565b5b9060005260206000209060050201600001600101819055506102f5565b600180808054905061023f91906116dd565b815481106102505761024f611711565b5b906000526020600020906005020160020160000160009054906101000a900473ffffffffffffffffffffffffffffffffffffffff1673ffffffffffffffffffffffffffffffffffffffff163373ffffffffffffffffffffffffffffffffffffffff16036102f4578060018080805490506102ca91906116dd565b815481106102db576102da611711565b5b9060005260206000209060050201600201600101819055505b5b6000600180808054905061030991906116dd565b8154811061031a57610319611711565b5b9060005260206000209060050201600001600101541415801561037557506000600180808054905061034c91906116dd565b8154811061035d5761035c611711565b5b90600052602060002090600502016002016001015414155b156103bf577f1d229a771174308da40f70761ba48b700922b118fea40f5e3705f7067c12cc386040516103a79061179d565b60405180910390a16103b7610eac565b600080819055505b50565b600360009054906101000a900473ffffffffffffffffffffffffffffffffffffffff1681565b60606001805480602002602001604051908101604052809291908181526020016000905b828210156105b85783829060005260206000209060050201604051806060016040529081600082016040518060400160405290816000820160009054906101000a900473ffffffffffffffffffffffffffffffffffffffff1673ffffffffffffffffffffffffffffffffffffffff1673ffffffffffffffffffffffffffffffffffffffff1681526020016001820154815250508152602001600282016040518060400160405290816000820160009054906101000a900473ffffffffffffffffffffffffffffffffffffffff1673ffffffffffffffffffffffffffffffffffffffff1673ffffffffffffffffffffffffffffffffffffffff1681526020016001820154815250508152602001600482018054610527906117ec565b80601f0160208091040260200160405190810160405280929190818152602001828054610553906117ec565b80156105a05780601f10610575576101008083540402835291602001916105a0565b820191906000526020600020905b81548152906001019060200180831161058357829003601f168201915b5050505050815250508152602001906001019061040c565b50505050905090565b600260019054906101000a900473ffffffffffffffffffffffffffffffffffffffff1681565b600260009054906101000a900460ff1615610637576040517f08c379a000000000000000000000000000000000000000000000000000000000815260040161062e90611869565b60405180910390fd5b6001600260006101000a81548160ff0219169083151502179055506000805403610833576106636112c0565b600181908060018154018082558091505060019003906000526020600020906005020160009091909190915060008201518160000160008201518160000160006101000a81548173ffffffffffffffffffffffffffffffffffffffff021916908373ffffffffffffffffffffffffffffffffffffffff16021790555060208201518160010155505060208201518160020160008201518160000160006101000a81548173ffffffffffffffffffffffffffffffffffffffff021916908373ffffffffffffffffffffffffffffffffffffffff160217905550602082015181600101555050604082015181600401908161075c9190611a64565b50505033600180808054905061077291906116dd565b8154811061078357610782611711565b5b906000526020600020906005020160000160000160006101000a81548173ffffffffffffffffffffffffffffffffffffffff021916908373ffffffffffffffffffffffffffffffffffffffff16021790555033600260016101000a81548173ffffffffffffffffffffffffffffffffffffffff021916908373ffffffffffffffffffffffffffffffffffffffff16021790555060008081548092919061082890611b36565b919050555050610af3565b600180808054905061084591906116dd565b8154811061085657610855611711565b5b906000526020600020906005020160000160000160009054906101000a900473ffffffffffffffffffffffffffffffffffffffff1673ffffffffffffffffffffffffffffffffffffffff163373ffffffffffffffffffffffffffffffffffffffff16036108f8576040517f08c379a00000000000000000000000000000000000000000000000000000000081526004016108ef90611bf0565b60405180910390fd5b60026000541061093d576040517f08c379a000000000000000000000000000000000000000000000000000000000815260040161093490611c82565b60405180910390fd5b33600180808054905061095091906116dd565b8154811061096157610960611711565b5b906000526020600020906005020160020160000160006101000a81548173ffffffffffffffffffffffffffffffffffffffff021916908373ffffffffffffffffffffffffffffffffffffffff16021790555033600360006101000a81548173ffffffffffffffffffffffffffffffffffffffff021916908373ffffffffffffffffffffffffffffffffffffffff1602179055507fdaa57ee2c04aee347b88819662fcdb8376824fb89a1f9b97a41edb933a3ba7a66001808080549050610a2791906116dd565b81548110610a3857610a37611711565b5b906000526020600020906005020160000160000160009054906101000a900473ffffffffffffffffffffffffffffffffffffffff166001808080549050610a7f91906116dd565b81548110610a9057610a8f611711565b5b906000526020600020906005020160020160000160009054906101000a900473ffffffffffffffffffffffffffffffffffffffff16604051610ad3929190611ca2565b60405180910390a1600080815480929190610aed90611b36565b91905055505b6000600260006101000a81548160ff021916908315150217905550565b610b186112ed565b600180549050821115610b60576040517f08c379a0000000000000000000000000000000000000000000000000000000008152600401610b5790611d17565b60405180910390fd5b60018281548110610b7457610b73611711565b5b90600052602060002090600502016000016040518060400160405290816000820160009054906101000a900473ffffffffffffffffffffffffffffffffffffffff1673ffffffffffffffffffffffffffffffffffffffff1673ffffffffffffffffffffffffffffffffffffffff1681526020016001820154815250509050919050565b610bff6112c0565b600180549050821115610c47576040517f08c379a0000000000000000000000000000000000000000000000000000000008152600401610c3e90611d17565b60405180910390fd5b600073ffffffffffffffffffffffffffffffffffffffff1660018381548110610c7357610c72611711565b5b906000526020600020906005020160020160000160009054906101000a900473ffffffffffffffffffffffffffffffffffffffff1673ffffffffffffffffffffffffffffffffffffffff1603610cfe576040517f08c379a0000000000000000000000000000000000000000000000000000000008152600401610cf590611d83565b60405180910390fd5b60018281548110610d1257610d11611711565b5b9060005260206000209060050201604051806060016040529081600082016040518060400160405290816000820160009054906101000a900473ffffffffffffffffffffffffffffffffffffffff1673ffffffffffffffffffffffffffffffffffffffff1673ffffffffffffffffffffffffffffffffffffffff1681526020016001820154815250508152602001600282016040518060400160405290816000820160009054906101000a900473ffffffffffffffffffffffffffffffffffffffff1673ffffffffffffffffffffffffffffffffffffffff1673ffffffffffffffffffffffffffffffffffffffff1681526020016001820154815250508152602001600482018054610e23906117ec565b80601f0160208091040260200160405190810160405280929190818152602001828054610e4f906117ec565b8015610e9c5780601f10610e7157610100808354040283529160200191610e9c565b820191906000526020600020905b815481529060010190602001808311610e7f57829003601f168201915b5050505050815250509050919050565b6001808080549050610ebe91906116dd565b81548110610ecf57610ece611711565b5b9060005260206000209060050201600201600101546001808080549050610ef691906116dd565b81548110610f0757610f06611711565b5b90600052602060002090600502016000016001015403610fd2576040518060400160405280600481526020017f54696564000000000000000000000000000000000000000000000000000000008152506001808080549050610f6991906116dd565b81548110610f7a57610f79611711565b5b90600052602060002090600502016004019081610f979190611a64565b507fcde5c32c0a45fd8aa4b65ea8003fc9da9acd5e2c6c24a9fcce6ab79cabbd9122604051610fc590611def565b60405180910390a16112be565b60018060018080549050610fe691906116dd565b81548110610ff757610ff6611711565b5b90600052602060002090600502016000016001015414801561105057506002600180808054905061102891906116dd565b8154811061103957611038611711565b5b906000526020600020906005020160020160010154145b806110d557506003600180808054905061106a91906116dd565b8154811061107b5761107a611711565b5b9060005260206000209060050201600001600101541480156110d45750600180600180805490506110ac91906116dd565b815481106110bd576110bc611711565b5b906000526020600020906005020160020160010154145b5b8061115a5750600260018080805490506110ef91906116dd565b81548110611100576110ff611711565b5b90600052602060002090600502016000016001015414801561115957506003600180808054905061113191906116dd565b8154811061114257611141611711565b5b906000526020600020906005020160020160010154145b5b15611210576040518060400160405280600981526020017f55736572322077696e000000000000000000000000000000000000000000000081525060018080805490506111a791906116dd565b815481106111b8576111b7611711565b5b906000526020600020906005020160040190816111d59190611a64565b507fcde5c32c0a45fd8aa4b65ea8003fc9da9acd5e2c6c24a9fcce6ab79cabbd912260405161120390611e5b565b60405180910390a16112bd565b6040518060400160405280600981526020017f55736572312077696e0000000000000000000000000000000000000000000000815250600180808054905061125891906116dd565b8154811061126957611268611711565b5b906000526020600020906005020160040190816112869190611a64565b507fcde5c32c0a45fd8aa4b65ea8003fc9da9acd5e2c6c24a9fcce6ab79cabbd91226040516112b490611ec7565b60405180910390a15b5b565b60405180606001604052806112d36112ed565b81526020016112e06112ed565b8152602001606081525090565b6040518060400160405280600073ffffffffffffffffffffffffffffffffffffffff168152602001600081525090565b600080fd5b6000819050919050565b61133581611322565b811461134057600080fd5b50565b6000813590506113528161132c565b92915050565b60006020828403121561136e5761136d61131d565b5b600061137c84828501611343565b91505092915050565b600073ffffffffffffffffffffffffffffffffffffffff82169050919050565b60006113b082611385565b9050919050565b6113c0816113a5565b82525050565b60006020820190506113db60008301846113b7565b92915050565b600081519050919050565b600082825260208201905092915050565b6000819050602082019050919050565b611416816113a5565b82525050565b61142581611322565b82525050565b604082016000820151611441600085018261140d565b506020820151611454602085018261141c565b50505050565b600081519050919050565b600082825260208201905092915050565b60005b83811015611494578082015181840152602081019050611479565b60008484015250505050565b6000601f19601f8301169050919050565b60006114bc8261145a565b6114c68185611465565b93506114d6818560208601611476565b6114df816114a0565b840191505092915050565b600060a083016000830151611502600086018261142b565b506020830151611515604086018261142b565b506040830151848203608086015261152d82826114b1565b9150508091505092915050565b600061154683836114ea565b905092915050565b6000602082019050919050565b6000611566826113e1565b61157081856113ec565b935083602082028501611582856113fd565b8060005b858110156115be578484038952815161159f858261153a565b94506115aa8361154e565b925060208a01995050600181019050611586565b50829750879550505050505092915050565b600060208201905081810360008301526115ea818461155b565b905092915050565b604082016000820151611608600085018261140d565b50602082015161161b602085018261141c565b50505050565b600060408201905061163660008301846115f2565b92915050565b600060a083016000830151611654600086018261142b565b506020830151611667604086018261142b565b506040830151848203608086015261167f82826114b1565b9150508091505092915050565b600060208201905081810360008301526116a6818461163c565b905092915050565b7f4e487b7100000000000000000000000000000000000000000000000000000000600052601160045260246000fd5b60006116e882611322565b91506116f383611322565b925082820390508181111561170b5761170a6116ae565b5b92915050565b7f4e487b7100000000000000000000000000000000000000000000000000000000600052603260045260246000fd5b600082825260208201905092915050565b7f676f20696e20746f20636f6e646974696f6e20636865636b0000000000000000600082015250565b6000611787601883611740565b915061179282611751565b602082019050919050565b600060208201905081810360008301526117b68161177a565b9050919050565b7f4e487b7100000000000000000000000000000000000000000000000000000000600052602260045260246000fd5b6000600282049050600182168061180457607f821691505b602082108103611817576118166117bd565b5b50919050565b7f4572726f723a205265656e7472616e742063616c6c0000000000000000000000600082015250565b6000611853601583611740565b915061185e8261181d565b602082019050919050565b6000602082019050818103600083015261188281611846565b9050919050565b7f4e487b7100000000000000000000000000000000000000000000000000000000600052604160045260246000fd5b60008190508160005260206000209050919050565b60006020601f8301049050919050565b600082821b905092915050565b60006008830261191a7fffffffffffffffffffffffffffffffffffffffffffffffffffffffffffffffff826118dd565b61192486836118dd565b95508019841693508086168417925050509392505050565b6000819050919050565b600061196161195c61195784611322565b61193c565b611322565b9050919050565b6000819050919050565b61197b83611946565b61198f61198782611968565b8484546118ea565b825550505050565b600090565b6119a4611997565b6119af818484611972565b505050565b5b818110156119d3576119c860008261199c565b6001810190506119b5565b5050565b601f821115611a18576119e9816118b8565b6119f2846118cd565b81016020851015611a01578190505b611a15611a0d856118cd565b8301826119b4565b50505b505050565b600082821c905092915050565b6000611a3b60001984600802611a1d565b1980831691505092915050565b6000611a548383611a2a565b9150826002028217905092915050565b611a6d8261145a565b67ffffffffffffffff811115611a8657611a85611889565b5b611a9082546117ec565b611a9b8282856119d7565b600060209050601f831160018114611ace5760008415611abc578287015190505b611ac68582611a48565b865550611b2e565b601f198416611adc866118b8565b60005b82811015611b0457848901518255600182019150602085019450602081019050611adf565b86831015611b215784890151611b1d601f891682611a2a565b8355505b6001600288020188555050505b505050505050565b6000611b4182611322565b91507fffffffffffffffffffffffffffffffffffffffffffffffffffffffffffffffff8203611b7357611b726116ae565b5b600182019050919050565b7f4572726f723a20596f752063616e6e6f7420706c6179207769746820796f757260008201527f73656c6600000000000000000000000000000000000000000000000000000000602082015250565b6000611bda602483611740565b9150611be582611b7e565b604082019050919050565b60006020820190508181036000830152611c0981611bcd565b9050919050565b7f596f75206e65656420746f207761697420666f72207468652070657276696f7560008201527f7320757365720000000000000000000000000000000000000000000000000000602082015250565b6000611c6c602683611740565b9150611c7782611c10565b604082019050919050565b60006020820190508181036000830152611c9b81611c5f565b9050919050565b6000604082019050611cb760008301856113b7565b611cc460208301846113b7565b9392505050565b7f4572726f723a20496e76616c6964206c656e6774680000000000000000000000600082015250565b6000611d01601583611740565b9150611d0c82611ccb565b602082019050919050565b60006020820190508181036000830152611d3081611cf4565b9050919050565b7f4572726f723a205468652067616d65206e6f742066696e697368207965740000600082015250565b6000611d6d601e83611740565b9150611d7882611d37565b602082019050919050565b60006020820190508181036000830152611d9c81611d60565b9050919050565b7f5469656400000000000000000000000000000000000000000000000000000000600082015250565b6000611dd9600483611740565b9150611de482611da3565b602082019050919050565b60006020820190508181036000830152611e0881611dcc565b9050919050565b7f55736572322077696e0000000000000000000000000000000000000000000000600082015250565b6000611e45600983611740565b9150611e5082611e0f565b602082019050919050565b60006020820190508181036000830152611e7481611e38565b9050919050565b7f55736572312077696e0000000000000000000000000000000000000000000000600082015250565b6000611eb1600983611740565b9150611ebc82611e7b565b602082019050919050565b60006020820190508181036000830152611ee081611ea4565b905091905056fea2646970667358221220ea6c0789196ddbe610d2a9420847156d7a854507d1e5d498e230640091b8280f64736f6c63430008130033",
					"opcodes": "PUSH1 0x80 PUSH1 0x40 MSTORE PUSH1 0x0 DUP1 SSTORE CALLVALUE DUP1 ISZERO PUSH2 0x14 JUMPI PUSH1 0x0 DUP1 REVERT JUMPDEST POP PUSH2 0x1F1D DUP1 PUSH2 0x24 PUSH1 0x0 CODECOPY PUSH1 0x0 RETURN INVALID PUSH1 0x80 PUSH1 0x40 MSTORE CALLVALUE DUP1 ISZERO PUSH2 0x10 JUMPI PUSH1 0x0 DUP1 REVERT JUMPDEST POP PUSH1 0x4 CALLDATASIZE LT PUSH2 0x7D JUMPI PUSH1 0x0 CALLDATALOAD PUSH1 0xE0 SHR DUP1 PUSH4 0x6EF595D8 GT PUSH2 0x5B JUMPI DUP1 PUSH4 0x6EF595D8 EQ PUSH2 0xDA JUMPI DUP1 PUSH4 0x93E84CD9 EQ PUSH2 0xF8 JUMPI DUP1 PUSH4 0xE417F4A3 EQ PUSH2 0x102 JUMPI DUP1 PUSH4 0xF7C4EFBB EQ PUSH2 0x132 JUMPI PUSH2 0x7D JUMP JUMPDEST DUP1 PUSH4 0x2CDE7869 EQ PUSH2 0x82 JUMPI DUP1 PUSH4 0x3D5E9D2D EQ PUSH2 0x9E JUMPI DUP1 PUSH4 0x512EC557 EQ PUSH2 0xBC JUMPI JUMPDEST PUSH1 0x0 DUP1 REVERT JUMPDEST PUSH2 0x9C PUSH1 0x4 DUP1 CALLDATASIZE SUB DUP2 ADD SWAP1 PUSH2 0x97 SWAP2 SWAP1 PUSH2 0x1358 JUMP JUMPDEST PUSH2 0x162 JUMP JUMPDEST STOP JUMPDEST PUSH2 0xA6 PUSH2 0x3C2 JUMP JUMPDEST PUSH1 0x40 MLOAD PUSH2 0xB3 SWAP2 SWAP1 PUSH2 0x13C6 JUMP JUMPDEST PUSH1 0x40 MLOAD DUP1 SWAP2 SUB SWAP1 RETURN JUMPDEST PUSH2 0xC4 PUSH2 0x3E8 JUMP JUMPDEST PUSH1 0x40 MLOAD PUSH2 0xD1 SWAP2 SWAP1 PUSH2 0x15D0 JUMP JUMPDEST PUSH1 0x40 MLOAD DUP1 SWAP2 SUB SWAP1 RETURN JUMPDEST PUSH2 0xE2 PUSH2 0x5C1 JUMP JUMPDEST PUSH1 0x40 MLOAD PUSH2 0xEF SWAP2 SWAP1 PUSH2 0x13C6 JUMP JUMPDEST PUSH1 0x40 MLOAD DUP1 SWAP2 SUB SWAP1 RETURN JUMPDEST PUSH2 0x100 PUSH2 0x5E7 JUMP JUMPDEST STOP JUMPDEST PUSH2 0x11C PUSH1 0x4 DUP1 CALLDATASIZE SUB DUP2 ADD SWAP1 PUSH2 0x117 SWAP2 SWAP1 PUSH2 0x1358 JUMP JUMPDEST PUSH2 0xB10 JUMP JUMPDEST PUSH1 0x40 MLOAD PUSH2 0x129 SWAP2 SWAP1 PUSH2 0x1621 JUMP JUMPDEST PUSH1 0x40 MLOAD DUP1 SWAP2 SUB SWAP1 RETURN JUMPDEST PUSH2 0x14C PUSH1 0x4 DUP1 CALLDATASIZE SUB DUP2 ADD SWAP1 PUSH2 0x147 SWAP2 SWAP1 PUSH2 0x1358 JUMP JUMPDEST PUSH2 0xBF7 JUMP JUMPDEST PUSH1 0x40 MLOAD PUSH2 0x159 SWAP2 SWAP1 PUSH2 0x168C JUMP JUMPDEST PUSH1 0x40 MLOAD DUP1 SWAP2 SUB SWAP1 RETURN JUMPDEST PUSH1 0x1 DUP1 DUP1 DUP1 SLOAD SWAP1 POP PUSH2 0x174 SWAP2 SWAP1 PUSH2 0x16DD JUMP JUMPDEST DUP2 SLOAD DUP2 LT PUSH2 0x185 JUMPI PUSH2 0x184 PUSH2 0x1711 JUMP JUMPDEST JUMPDEST SWAP1 PUSH1 0x0 MSTORE PUSH1 0x20 PUSH1 0x0 KECCAK256 SWAP1 PUSH1 0x5 MUL ADD PUSH1 0x0 ADD PUSH1 0x0 ADD PUSH1 0x0 SWAP1 SLOAD SWAP1 PUSH2 0x100 EXP SWAP1 DIV PUSH20 0xFFFFFFFFFFFFFFFFFFFFFFFFFFFFFFFFFFFFFFFF AND PUSH20 0xFFFFFFFFFFFFFFFFFFFFFFFFFFFFFFFFFFFFFFFF AND CALLER PUSH20 0xFFFFFFFFFFFFFFFFFFFFFFFFFFFFFFFFFFFFFFFF AND SUB PUSH2 0x22D JUMPI DUP1 PUSH1 0x1 DUP1 DUP1 DUP1 SLOAD SWAP1 POP PUSH2 0x1FF SWAP2 SWAP1 PUSH2 0x16DD JUMP JUMPDEST DUP2 SLOAD DUP2 LT PUSH2 0x210 JUMPI PUSH2 0x20F PUSH2 0x1711 JUMP JUMPDEST JUMPDEST SWAP1 PUSH1 0x0 MSTORE PUSH1 0x20 PUSH1 0x0 KECCAK256 SWAP1 PUSH1 0x5 MUL ADD PUSH1 0x0 ADD PUSH1 0x1 ADD DUP2 SWAP1 SSTORE POP PUSH2 0x2F5 JUMP JUMPDEST PUSH1 0x1 DUP1 DUP1 DUP1 SLOAD SWAP1 POP PUSH2 0x23F SWAP2 SWAP1 PUSH2 0x16DD JUMP JUMPDEST DUP2 SLOAD DUP2 LT PUSH2 0x250 JUMPI PUSH2 0x24F PUSH2 0x1711 JUMP JUMPDEST JUMPDEST SWAP1 PUSH1 0x0 MSTORE PUSH1 0x20 PUSH1 0x0 KECCAK256 SWAP1 PUSH1 0x5 MUL ADD PUSH1 0x2 ADD PUSH1 0x0 ADD PUSH1 0x0 SWAP1 SLOAD SWAP1 PUSH2 0x100 EXP SWAP1 DIV PUSH20 0xFFFFFFFFFFFFFFFFFFFFFFFFFFFFFFFFFFFFFFFF AND PUSH20 0xFFFFFFFFFFFFFFFFFFFFFFFFFFFFFFFFFFFFFFFF AND CALLER PUSH20 0xFFFFFFFFFFFFFFFFFFFFFFFFFFFFFFFFFFFFFFFF AND SUB PUSH2 0x2F4 JUMPI DUP1 PUSH1 0x1 DUP1 DUP1 DUP1 SLOAD SWAP1 POP PUSH2 0x2CA SWAP2 SWAP1 PUSH2 0x16DD JUMP JUMPDEST DUP2 SLOAD DUP2 LT PUSH2 0x2DB JUMPI PUSH2 0x2DA PUSH2 0x1711 JUMP JUMPDEST JUMPDEST SWAP1 PUSH1 0x0 MSTORE PUSH1 0x20 PUSH1 0x0 KECCAK256 SWAP1 PUSH1 0x5 MUL ADD PUSH1 0x2 ADD PUSH1 0x1 ADD DUP2 SWAP1 SSTORE POP JUMPDEST JUMPDEST PUSH1 0x0 PUSH1 0x1 DUP1 DUP1 DUP1 SLOAD SWAP1 POP PUSH2 0x309 SWAP2 SWAP1 PUSH2 0x16DD JUMP JUMPDEST DUP2 SLOAD DUP2 LT PUSH2 0x31A JUMPI PUSH2 0x319 PUSH2 0x1711 JUMP JUMPDEST JUMPDEST SWAP1 PUSH1 0x0 MSTORE PUSH1 0x20 PUSH1 0x0 KECCAK256 SWAP1 PUSH1 0x5 MUL ADD PUSH1 0x0 ADD PUSH1 0x1 ADD SLOAD EQ ISZERO DUP1 ISZERO PUSH2 0x375 JUMPI POP PUSH1 0x0 PUSH1 0x1 DUP1 DUP1 DUP1 SLOAD SWAP1 POP PUSH2 0x34C SWAP2 SWAP1 PUSH2 0x16DD JUMP JUMPDEST DUP2 SLOAD DUP2 LT PUSH2 0x35D JUMPI PUSH2 0x35C PUSH2 0x1711 JUMP JUMPDEST JUMPDEST SWAP1 PUSH1 0x0 MSTORE PUSH1 0x20 PUSH1 0x0 KECCAK256 SWAP1 PUSH1 0x5 MUL ADD PUSH1 0x2 ADD PUSH1 0x1 ADD SLOAD EQ ISZERO JUMPDEST ISZERO PUSH2 0x3BF JUMPI PUSH32 0x1D229A771174308DA40F70761BA48B700922B118FEA40F5E3705F7067C12CC38 PUSH1 0x40 MLOAD PUSH2 0x3A7 SWAP1 PUSH2 0x179D JUMP JUMPDEST PUSH1 0x40 MLOAD DUP1 SWAP2 SUB SWAP1 LOG1 PUSH2 0x3B7 PUSH2 0xEAC JUMP JUMPDEST PUSH1 0x0 DUP1 DUP2 SWAP1 SSTORE POP JUMPDEST POP JUMP JUMPDEST PUSH1 0x3 PUSH1 0x0 SWAP1 SLOAD SWAP1 PUSH2 0x100 EXP SWAP1 DIV PUSH20 0xFFFFFFFFFFFFFFFFFFFFFFFFFFFFFFFFFFFFFFFF AND DUP2 JUMP JUMPDEST PUSH1 0x60 PUSH1 0x1 DUP1 SLOAD DUP1 PUSH1 0x20 MUL PUSH1 0x20 ADD PUSH1 0x40 MLOAD SWAP1 DUP2 ADD PUSH1 0x40 MSTORE DUP1 SWAP3 SWAP2 SWAP1 DUP2 DUP2 MSTORE PUSH1 0x20 ADD PUSH1 0x0 SWAP1 JUMPDEST DUP3 DUP3 LT ISZERO PUSH2 0x5B8 JUMPI DUP4 DUP3 SWAP1 PUSH1 0x0 MSTORE PUSH1 0x20 PUSH1 0x0 KECCAK256 SWAP1 PUSH1 0x5 MUL ADD PUSH1 0x40 MLOAD DUP1 PUSH1 0x60 ADD PUSH1 0x40 MSTORE SWAP1 DUP2 PUSH1 0x0 DUP3 ADD PUSH1 0x40 MLOAD DUP1 PUSH1 0x40 ADD PUSH1 0x40 MSTORE SWAP1 DUP2 PUSH1 0x0 DUP3 ADD PUSH1 0x0 SWAP1 SLOAD SWAP1 PUSH2 0x100 EXP SWAP1 DIV PUSH20 0xFFFFFFFFFFFFFFFFFFFFFFFFFFFFFFFFFFFFFFFF AND PUSH20 0xFFFFFFFFFFFFFFFFFFFFFFFFFFFFFFFFFFFFFFFF AND PUSH20 0xFFFFFFFFFFFFFFFFFFFFFFFFFFFFFFFFFFFFFFFF AND DUP2 MSTORE PUSH1 0x20 ADD PUSH1 0x1 DUP3 ADD SLOAD DUP2 MSTORE POP POP DUP2 MSTORE PUSH1 0x20 ADD PUSH1 0x2 DUP3 ADD PUSH1 0x40 MLOAD DUP1 PUSH1 0x40 ADD PUSH1 0x40 MSTORE SWAP1 DUP2 PUSH1 0x0 DUP3 ADD PUSH1 0x0 SWAP1 SLOAD SWAP1 PUSH2 0x100 EXP SWAP1 DIV PUSH20 0xFFFFFFFFFFFFFFFFFFFFFFFFFFFFFFFFFFFFFFFF AND PUSH20 0xFFFFFFFFFFFFFFFFFFFFFFFFFFFFFFFFFFFFFFFF AND PUSH20 0xFFFFFFFFFFFFFFFFFFFFFFFFFFFFFFFFFFFFFFFF AND DUP2 MSTORE PUSH1 0x20 ADD PUSH1 0x1 DUP3 ADD SLOAD DUP2 MSTORE POP POP DUP2 MSTORE PUSH1 0x20 ADD PUSH1 0x4 DUP3 ADD DUP1 SLOAD PUSH2 0x527 SWAP1 PUSH2 0x17EC JUMP JUMPDEST DUP1 PUSH1 0x1F ADD PUSH1 0x20 DUP1 SWAP2 DIV MUL PUSH1 0x20 ADD PUSH1 0x40 MLOAD SWAP1 DUP2 ADD PUSH1 0x40 MSTORE DUP1 SWAP3 SWAP2 SWAP1 DUP2 DUP2 MSTORE PUSH1 0x20 ADD DUP3 DUP1 SLOAD PUSH2 0x553 SWAP1 PUSH2 0x17EC JUMP JUMPDEST DUP1 ISZERO PUSH2 0x5A0 JUMPI DUP1 PUSH1 0x1F LT PUSH2 0x575 JUMPI PUSH2 0x100 DUP1 DUP4 SLOAD DIV MUL DUP4 MSTORE SWAP2 PUSH1 0x20 ADD SWAP2 PUSH2 0x5A0 JUMP JUMPDEST DUP3 ADD SWAP2 SWAP1 PUSH1 0x0 MSTORE PUSH1 0x20 PUSH1 0x0 KECCAK256 SWAP1 JUMPDEST DUP2 SLOAD DUP2 MSTORE SWAP1 PUSH1 0x1 ADD SWAP1 PUSH1 0x20 ADD DUP1 DUP4 GT PUSH2 0x583 JUMPI DUP3 SWAP1 SUB PUSH1 0x1F AND DUP3 ADD SWAP2 JUMPDEST POP POP POP POP POP DUP2 MSTORE POP POP DUP2 MSTORE PUSH1 0x20 ADD SWAP1 PUSH1 0x1 ADD SWAP1 PUSH2 0x40C JUMP JUMPDEST POP POP POP POP SWAP1 POP SWAP1 JUMP JUMPDEST PUSH1 0x2 PUSH1 0x1 SWAP1 SLOAD SWAP1 PUSH2 0x100 EXP SWAP1 DIV PUSH20 0xFFFFFFFFFFFFFFFFFFFFFFFFFFFFFFFFFFFFFFFF AND DUP2 JUMP JUMPDEST PUSH1 0x2 PUSH1 0x0 SWAP1 SLOAD SWAP1 PUSH2 0x100 EXP SWAP1 DIV PUSH1 0xFF AND ISZERO PUSH2 0x637 JUMPI PUSH1 0x40 MLOAD PUSH32 0x8C379A000000000000000000000000000000000000000000000000000000000 DUP2 MSTORE PUSH1 0x4 ADD PUSH2 0x62E SWAP1 PUSH2 0x1869 JUMP JUMPDEST PUSH1 0x40 MLOAD DUP1 SWAP2 SUB SWAP1 REVERT JUMPDEST PUSH1 0x1 PUSH1 0x2 PUSH1 0x0 PUSH2 0x100 EXP DUP2 SLOAD DUP2 PUSH1 0xFF MUL NOT AND SWAP1 DUP4 ISZERO ISZERO MUL OR SWAP1 SSTORE POP PUSH1 0x0 DUP1 SLOAD SUB PUSH2 0x833 JUMPI PUSH2 0x663 PUSH2 0x12C0 JUMP JUMPDEST PUSH1 0x1 DUP2 SWAP1 DUP1 PUSH1 0x1 DUP2 SLOAD ADD DUP1 DUP3 SSTORE DUP1 SWAP2 POP POP PUSH1 0x1 SWAP1 SUB SWAP1 PUSH1 0x0 MSTORE PUSH1 0x20 PUSH1 0x0 KECCAK256 SWAP1 PUSH1 0x5 MUL ADD PUSH1 0x0 SWAP1 SWAP2 SWAP1 SWAP2 SWAP1 SWAP2 POP PUSH1 0x0 DUP3 ADD MLOAD DUP2 PUSH1 0x0 ADD PUSH1 0x0 DUP3 ADD MLOAD DUP2 PUSH1 0x0 ADD PUSH1 0x0 PUSH2 0x100 EXP DUP2 SLOAD DUP2 PUSH20 0xFFFFFFFFFFFFFFFFFFFFFFFFFFFFFFFFFFFFFFFF MUL NOT AND SWAP1 DUP4 PUSH20 0xFFFFFFFFFFFFFFFFFFFFFFFFFFFFFFFFFFFFFFFF AND MUL OR SWAP1 SSTORE POP PUSH1 0x20 DUP3 ADD MLOAD DUP2 PUSH1 0x1 ADD SSTORE POP POP PUSH1 0x20 DUP3 ADD MLOAD DUP2 PUSH1 0x2 ADD PUSH1 0x0 DUP3 ADD MLOAD DUP2 PUSH1 0x0 ADD PUSH1 0x0 PUSH2 0x100 EXP DUP2 SLOAD DUP2 PUSH20 0xFFFFFFFFFFFFFFFFFFFFFFFFFFFFFFFFFFFFFFFF MUL NOT AND SWAP1 DUP4 PUSH20 0xFFFFFFFFFFFFFFFFFFFFFFFFFFFFFFFFFFFFFFFF AND MUL OR SWAP1 SSTORE POP PUSH1 0x20 DUP3 ADD MLOAD DUP2 PUSH1 0x1 ADD SSTORE POP POP PUSH1 0x40 DUP3 ADD MLOAD DUP2 PUSH1 0x4 ADD SWAP1 DUP2 PUSH2 0x75C SWAP2 SWAP1 PUSH2 0x1A64 JUMP JUMPDEST POP POP POP CALLER PUSH1 0x1 DUP1 DUP1 DUP1 SLOAD SWAP1 POP PUSH2 0x772 SWAP2 SWAP1 PUSH2 0x16DD JUMP JUMPDEST DUP2 SLOAD DUP2 LT PUSH2 0x783 JUMPI PUSH2 0x782 PUSH2 0x1711 JUMP JUMPDEST JUMPDEST SWAP1 PUSH1 0x0 MSTORE PUSH1 0x20 PUSH1 0x0 KECCAK256 SWAP1 PUSH1 0x5 MUL ADD PUSH1 0x0 ADD PUSH1 0x0 ADD PUSH1 0x0 PUSH2 0x100 EXP DUP2 SLOAD DUP2 PUSH20 0xFFFFFFFFFFFFFFFFFFFFFFFFFFFFFFFFFFFFFFFF MUL NOT AND SWAP1 DUP4 PUSH20 0xFFFFFFFFFFFFFFFFFFFFFFFFFFFFFFFFFFFFFFFF AND MUL OR SWAP1 SSTORE POP CALLER PUSH1 0x2 PUSH1 0x1 PUSH2 0x100 EXP DUP2 SLOAD DUP2 PUSH20 0xFFFFFFFFFFFFFFFFFFFFFFFFFFFFFFFFFFFFFFFF MUL NOT AND SWAP1 DUP4 PUSH20 0xFFFFFFFFFFFFFFFFFFFFFFFFFFFFFFFFFFFFFFFF AND MUL OR SWAP1 SSTORE POP PUSH1 0x0 DUP1 DUP2 SLOAD DUP1 SWAP3 SWAP2 SWAP1 PUSH2 0x828 SWAP1 PUSH2 0x1B36 JUMP JUMPDEST SWAP2 SWAP1 POP SSTORE POP POP PUSH2 0xAF3 JUMP JUMPDEST PUSH1 0x1 DUP1 DUP1 DUP1 SLOAD SWAP1 POP PUSH2 0x845 SWAP2 SWAP1 PUSH2 0x16DD JUMP JUMPDEST DUP2 SLOAD DUP2 LT PUSH2 0x856 JUMPI PUSH2 0x855 PUSH2 0x1711 JUMP JUMPDEST JUMPDEST SWAP1 PUSH1 0x0 MSTORE PUSH1 0x20 PUSH1 0x0 KECCAK256 SWAP1 PUSH1 0x5 MUL ADD PUSH1 0x0 ADD PUSH1 0x0 ADD PUSH1 0x0 SWAP1 SLOAD SWAP1 PUSH2 0x100 EXP SWAP1 DIV PUSH20 0xFFFFFFFFFFFFFFFFFFFFFFFFFFFFFFFFFFFFFFFF AND PUSH20 0xFFFFFFFFFFFFFFFFFFFFFFFFFFFFFFFFFFFFFFFF AND CALLER PUSH20 0xFFFFFFFFFFFFFFFFFFFFFFFFFFFFFFFFFFFFFFFF AND SUB PUSH2 0x8F8 JUMPI PUSH1 0x40 MLOAD PUSH32 0x8C379A000000000000000000000000000000000000000000000000000000000 DUP2 MSTORE PUSH1 0x4 ADD PUSH2 0x8EF SWAP1 PUSH2 0x1BF0 JUMP JUMPDEST PUSH1 0x40 MLOAD DUP1 SWAP2 SUB SWAP1 REVERT JUMPDEST PUSH1 0x2 PUSH1 0x0 SLOAD LT PUSH2 0x93D JUMPI PUSH1 0x40 MLOAD PUSH32 0x8C379A000000000000000000000000000000000000000000000000000000000 DUP2 MSTORE PUSH1 0x4 ADD PUSH2 0x934 SWAP1 PUSH2 0x1C82 JUMP JUMPDEST PUSH1 0x40 MLOAD DUP1 SWAP2 SUB SWAP1 REVERT JUMPDEST CALLER PUSH1 0x1 DUP1 DUP1 DUP1 SLOAD SWAP1 POP PUSH2 0x950 SWAP2 SWAP1 PUSH2 0x16DD JUMP JUMPDEST DUP2 SLOAD DUP2 LT PUSH2 0x961 JUMPI PUSH2 0x960 PUSH2 0x1711 JUMP JUMPDEST JUMPDEST SWAP1 PUSH1 0x0 MSTORE PUSH1 0x20 PUSH1 0x0 KECCAK256 SWAP1 PUSH1 0x5 MUL ADD PUSH1 0x2 ADD PUSH1 0x0 ADD PUSH1 0x0 PUSH2 0x100 EXP DUP2 SLOAD DUP2 PUSH20 0xFFFFFFFFFFFFFFFFFFFFFFFFFFFFFFFFFFFFFFFF MUL NOT AND SWAP1 DUP4 PUSH20 0xFFFFFFFFFFFFFFFFFFFFFFFFFFFFFFFFFFFFFFFF AND MUL OR SWAP1 SSTORE POP CALLER PUSH1 0x3 PUSH1 0x0 PUSH2 0x100 EXP DUP2 SLOAD DUP2 PUSH20 0xFFFFFFFFFFFFFFFFFFFFFFFFFFFFFFFFFFFFFFFF MUL NOT AND SWAP1 DUP4 PUSH20 0xFFFFFFFFFFFFFFFFFFFFFFFFFFFFFFFFFFFFFFFF AND MUL OR SWAP1 SSTORE POP PUSH32 0xDAA57EE2C04AEE347B88819662FCDB8376824FB89A1F9B97A41EDB933A3BA7A6 PUSH1 0x1 DUP1 DUP1 DUP1 SLOAD SWAP1 POP PUSH2 0xA27 SWAP2 SWAP1 PUSH2 0x16DD JUMP JUMPDEST DUP2 SLOAD DUP2 LT PUSH2 0xA38 JUMPI PUSH2 0xA37 PUSH2 0x1711 JUMP JUMPDEST JUMPDEST SWAP1 PUSH1 0x0 MSTORE PUSH1 0x20 PUSH1 0x0 KECCAK256 SWAP1 PUSH1 0x5 MUL ADD PUSH1 0x0 ADD PUSH1 0x0 ADD PUSH1 0x0 SWAP1 SLOAD SWAP1 PUSH2 0x100 EXP SWAP1 DIV PUSH20 0xFFFFFFFFFFFFFFFFFFFFFFFFFFFFFFFFFFFFFFFF AND PUSH1 0x1 DUP1 DUP1 DUP1 SLOAD SWAP1 POP PUSH2 0xA7F SWAP2 SWAP1 PUSH2 0x16DD JUMP JUMPDEST DUP2 SLOAD DUP2 LT PUSH2 0xA90 JUMPI PUSH2 0xA8F PUSH2 0x1711 JUMP JUMPDEST JUMPDEST SWAP1 PUSH1 0x0 MSTORE PUSH1 0x20 PUSH1 0x0 KECCAK256 SWAP1 PUSH1 0x5 MUL ADD PUSH1 0x2 ADD PUSH1 0x0 ADD PUSH1 0x0 SWAP1 SLOAD SWAP1 PUSH2 0x100 EXP SWAP1 DIV PUSH20 0xFFFFFFFFFFFFFFFFFFFFFFFFFFFFFFFFFFFFFFFF AND PUSH1 0x40 MLOAD PUSH2 0xAD3 SWAP3 SWAP2 SWAP1 PUSH2 0x1CA2 JUMP JUMPDEST PUSH1 0x40 MLOAD DUP1 SWAP2 SUB SWAP1 LOG1 PUSH1 0x0 DUP1 DUP2 SLOAD DUP1 SWAP3 SWAP2 SWAP1 PUSH2 0xAED SWAP1 PUSH2 0x1B36 JUMP JUMPDEST SWAP2 SWAP1 POP SSTORE POP JUMPDEST PUSH1 0x0 PUSH1 0x2 PUSH1 0x0 PUSH2 0x100 EXP DUP2 SLOAD DUP2 PUSH1 0xFF MUL NOT AND SWAP1 DUP4 ISZERO ISZERO MUL OR SWAP1 SSTORE POP JUMP JUMPDEST PUSH2 0xB18 PUSH2 0x12ED JUMP JUMPDEST PUSH1 0x1 DUP1 SLOAD SWAP1 POP DUP3 GT ISZERO PUSH2 0xB60 JUMPI PUSH1 0x40 MLOAD PUSH32 0x8C379A000000000000000000000000000000000000000000000000000000000 DUP2 MSTORE PUSH1 0x4 ADD PUSH2 0xB57 SWAP1 PUSH2 0x1D17 JUMP JUMPDEST PUSH1 0x40 MLOAD DUP1 SWAP2 SUB SWAP1 REVERT JUMPDEST PUSH1 0x1 DUP3 DUP2 SLOAD DUP2 LT PUSH2 0xB74 JUMPI PUSH2 0xB73 PUSH2 0x1711 JUMP JUMPDEST JUMPDEST SWAP1 PUSH1 0x0 MSTORE PUSH1 0x20 PUSH1 0x0 KECCAK256 SWAP1 PUSH1 0x5 MUL ADD PUSH1 0x0 ADD PUSH1 0x40 MLOAD DUP1 PUSH1 0x40 ADD PUSH1 0x40 MSTORE SWAP1 DUP2 PUSH1 0x0 DUP3 ADD PUSH1 0x0 SWAP1 SLOAD SWAP1 PUSH2 0x100 EXP SWAP1 DIV PUSH20 0xFFFFFFFFFFFFFFFFFFFFFFFFFFFFFFFFFFFFFFFF AND PUSH20 0xFFFFFFFFFFFFFFFFFFFFFFFFFFFFFFFFFFFFFFFF AND PUSH20 0xFFFFFFFFFFFFFFFFFFFFFFFFFFFFFFFFFFFFFFFF AND DUP2 MSTORE PUSH1 0x20 ADD PUSH1 0x1 DUP3 ADD SLOAD DUP2 MSTORE POP POP SWAP1 POP SWAP2 SWAP1 POP JUMP JUMPDEST PUSH2 0xBFF PUSH2 0x12C0 JUMP JUMPDEST PUSH1 0x1 DUP1 SLOAD SWAP1 POP DUP3 GT ISZERO PUSH2 0xC47 JUMPI PUSH1 0x40 MLOAD PUSH32 0x8C379A000000000000000000000000000000000000000000000000000000000 DUP2 MSTORE PUSH1 0x4 ADD PUSH2 0xC3E SWAP1 PUSH2 0x1D17 JUMP JUMPDEST PUSH1 0x40 MLOAD DUP1 SWAP2 SUB SWAP1 REVERT JUMPDEST PUSH1 0x0 PUSH20 0xFFFFFFFFFFFFFFFFFFFFFFFFFFFFFFFFFFFFFFFF AND PUSH1 0x1 DUP4 DUP2 SLOAD DUP2 LT PUSH2 0xC73 JUMPI PUSH2 0xC72 PUSH2 0x1711 JUMP JUMPDEST JUMPDEST SWAP1 PUSH1 0x0 MSTORE PUSH1 0x20 PUSH1 0x0 KECCAK256 SWAP1 PUSH1 0x5 MUL ADD PUSH1 0x2 ADD PUSH1 0x0 ADD PUSH1 0x0 SWAP1 SLOAD SWAP1 PUSH2 0x100 EXP SWAP1 DIV PUSH20 0xFFFFFFFFFFFFFFFFFFFFFFFFFFFFFFFFFFFFFFFF AND PUSH20 0xFFFFFFFFFFFFFFFFFFFFFFFFFFFFFFFFFFFFFFFF AND SUB PUSH2 0xCFE JUMPI PUSH1 0x40 MLOAD PUSH32 0x8C379A000000000000000000000000000000000000000000000000000000000 DUP2 MSTORE PUSH1 0x4 ADD PUSH2 0xCF5 SWAP1 PUSH2 0x1D83 JUMP JUMPDEST PUSH1 0x40 MLOAD DUP1 SWAP2 SUB SWAP1 REVERT JUMPDEST PUSH1 0x1 DUP3 DUP2 SLOAD DUP2 LT PUSH2 0xD12 JUMPI PUSH2 0xD11 PUSH2 0x1711 JUMP JUMPDEST JUMPDEST SWAP1 PUSH1 0x0 MSTORE PUSH1 0x20 PUSH1 0x0 KECCAK256 SWAP1 PUSH1 0x5 MUL ADD PUSH1 0x40 MLOAD DUP1 PUSH1 0x60 ADD PUSH1 0x40 MSTORE SWAP1 DUP2 PUSH1 0x0 DUP3 ADD PUSH1 0x40 MLOAD DUP1 PUSH1 0x40 ADD PUSH1 0x40 MSTORE SWAP1 DUP2 PUSH1 0x0 DUP3 ADD PUSH1 0x0 SWAP1 SLOAD SWAP1 PUSH2 0x100 EXP SWAP1 DIV PUSH20 0xFFFFFFFFFFFFFFFFFFFFFFFFFFFFFFFFFFFFFFFF AND PUSH20 0xFFFFFFFFFFFFFFFFFFFFFFFFFFFFFFFFFFFFFFFF AND PUSH20 0xFFFFFFFFFFFFFFFFFFFFFFFFFFFFFFFFFFFFFFFF AND DUP2 MSTORE PUSH1 0x20 ADD PUSH1 0x1 DUP3 ADD SLOAD DUP2 MSTORE POP POP DUP2 MSTORE PUSH1 0x20 ADD PUSH1 0x2 DUP3 ADD PUSH1 0x40 MLOAD DUP1 PUSH1 0x40 ADD PUSH1 0x40 MSTORE SWAP1 DUP2 PUSH1 0x0 DUP3 ADD PUSH1 0x0 SWAP1 SLOAD SWAP1 PUSH2 0x100 EXP SWAP1 DIV PUSH20 0xFFFFFFFFFFFFFFFFFFFFFFFFFFFFFFFFFFFFFFFF AND PUSH20 0xFFFFFFFFFFFFFFFFFFFFFFFFFFFFFFFFFFFFFFFF AND PUSH20 0xFFFFFFFFFFFFFFFFFFFFFFFFFFFFFFFFFFFFFFFF AND DUP2 MSTORE PUSH1 0x20 ADD PUSH1 0x1 DUP3 ADD SLOAD DUP2 MSTORE POP POP DUP2 MSTORE PUSH1 0x20 ADD PUSH1 0x4 DUP3 ADD DUP1 SLOAD PUSH2 0xE23 SWAP1 PUSH2 0x17EC JUMP JUMPDEST DUP1 PUSH1 0x1F ADD PUSH1 0x20 DUP1 SWAP2 DIV MUL PUSH1 0x20 ADD PUSH1 0x40 MLOAD SWAP1 DUP2 ADD PUSH1 0x40 MSTORE DUP1 SWAP3 SWAP2 SWAP1 DUP2 DUP2 MSTORE PUSH1 0x20 ADD DUP3 DUP1 SLOAD PUSH2 0xE4F SWAP1 PUSH2 0x17EC JUMP JUMPDEST DUP1 ISZERO PUSH2 0xE9C JUMPI DUP1 PUSH1 0x1F LT PUSH2 0xE71 JUMPI PUSH2 0x100 DUP1 DUP4 SLOAD DIV MUL DUP4 MSTORE SWAP2 PUSH1 0x20 ADD SWAP2 PUSH2 0xE9C JUMP JUMPDEST DUP3 ADD SWAP2 SWAP1 PUSH1 0x0 MSTORE PUSH1 0x20 PUSH1 0x0 KECCAK256 SWAP1 JUMPDEST DUP2 SLOAD DUP2 MSTORE SWAP1 PUSH1 0x1 ADD SWAP1 PUSH1 0x20 ADD DUP1 DUP4 GT PUSH2 0xE7F JUMPI DUP3 SWAP1 SUB PUSH1 0x1F AND DUP3 ADD SWAP2 JUMPDEST POP POP POP POP POP DUP2 MSTORE POP POP SWAP1 POP SWAP2 SWAP1 POP JUMP JUMPDEST PUSH1 0x1 DUP1 DUP1 DUP1 SLOAD SWAP1 POP PUSH2 0xEBE SWAP2 SWAP1 PUSH2 0x16DD JUMP JUMPDEST DUP2 SLOAD DUP2 LT PUSH2 0xECF JUMPI PUSH2 0xECE PUSH2 0x1711 JUMP JUMPDEST JUMPDEST SWAP1 PUSH1 0x0 MSTORE PUSH1 0x20 PUSH1 0x0 KECCAK256 SWAP1 PUSH1 0x5 MUL ADD PUSH1 0x2 ADD PUSH1 0x1 ADD SLOAD PUSH1 0x1 DUP1 DUP1 DUP1 SLOAD SWAP1 POP PUSH2 0xEF6 SWAP2 SWAP1 PUSH2 0x16DD JUMP JUMPDEST DUP2 SLOAD DUP2 LT PUSH2 0xF07 JUMPI PUSH2 0xF06 PUSH2 0x1711 JUMP JUMPDEST JUMPDEST SWAP1 PUSH1 0x0 MSTORE PUSH1 0x20 PUSH1 0x0 KECCAK256 SWAP1 PUSH1 0x5 MUL ADD PUSH1 0x0 ADD PUSH1 0x1 ADD SLOAD SUB PUSH2 0xFD2 JUMPI PUSH1 0x40 MLOAD DUP1 PUSH1 0x40 ADD PUSH1 0x40 MSTORE DUP1 PUSH1 0x4 DUP2 MSTORE PUSH1 0x20 ADD PUSH32 0x5469656400000000000000000000000000000000000000000000000000000000 DUP2 MSTORE POP PUSH1 0x1 DUP1 DUP1 DUP1 SLOAD SWAP1 POP PUSH2 0xF69 SWAP2 SWAP1 PUSH2 0x16DD JUMP JUMPDEST DUP2 SLOAD DUP2 LT PUSH2 0xF7A JUMPI PUSH2 0xF79 PUSH2 0x1711 JUMP JUMPDEST JUMPDEST SWAP1 PUSH1 0x0 MSTORE PUSH1 0x20 PUSH1 0x0 KECCAK256 SWAP1 PUSH1 0x5 MUL ADD PUSH1 0x4 ADD SWAP1 DUP2 PUSH2 0xF97 SWAP2 SWAP1 PUSH2 0x1A64 JUMP JUMPDEST POP PUSH32 0xCDE5C32C0A45FD8AA4B65EA8003FC9DA9ACD5E2C6C24A9FCCE6AB79CABBD9122 PUSH1 0x40 MLOAD PUSH2 0xFC5 SWAP1 PUSH2 0x1DEF JUMP JUMPDEST PUSH1 0x40 MLOAD DUP1 SWAP2 SUB SWAP1 LOG1 PUSH2 0x12BE JUMP JUMPDEST PUSH1 0x1 DUP1 PUSH1 0x1 DUP1 DUP1 SLOAD SWAP1 POP PUSH2 0xFE6 SWAP2 SWAP1 PUSH2 0x16DD JUMP JUMPDEST DUP2 SLOAD DUP2 LT PUSH2 0xFF7 JUMPI PUSH2 0xFF6 PUSH2 0x1711 JUMP JUMPDEST JUMPDEST SWAP1 PUSH1 0x0 MSTORE PUSH1 0x20 PUSH1 0x0 KECCAK256 SWAP1 PUSH1 0x5 MUL ADD PUSH1 0x0 ADD PUSH1 0x1 ADD SLOAD EQ DUP1 ISZERO PUSH2 0x1050 JUMPI POP PUSH1 0x2 PUSH1 0x1 DUP1 DUP1 DUP1 SLOAD SWAP1 POP PUSH2 0x1028 SWAP2 SWAP1 PUSH2 0x16DD JUMP JUMPDEST DUP2 SLOAD DUP2 LT PUSH2 0x1039 JUMPI PUSH2 0x1038 PUSH2 0x1711 JUMP JUMPDEST JUMPDEST SWAP1 PUSH1 0x0 MSTORE PUSH1 0x20 PUSH1 0x0 KECCAK256 SWAP1 PUSH1 0x5 MUL ADD PUSH1 0x2 ADD PUSH1 0x1 ADD SLOAD EQ JUMPDEST DUP1 PUSH2 0x10D5 JUMPI POP PUSH1 0x3 PUSH1 0x1 DUP1 DUP1 DUP1 SLOAD SWAP1 POP PUSH2 0x106A SWAP2 SWAP1 PUSH2 0x16DD JUMP JUMPDEST DUP2 SLOAD DUP2 LT PUSH2 0x107B JUMPI PUSH2 0x107A PUSH2 0x1711 JUMP JUMPDEST JUMPDEST SWAP1 PUSH1 0x0 MSTORE PUSH1 0x20 PUSH1 0x0 KECCAK256 SWAP1 PUSH1 0x5 MUL ADD PUSH1 0x0 ADD PUSH1 0x1 ADD SLOAD EQ DUP1 ISZERO PUSH2 0x10D4 JUMPI POP PUSH1 0x1 DUP1 PUSH1 0x1 DUP1 DUP1 SLOAD SWAP1 POP PUSH2 0x10AC SWAP2 SWAP1 PUSH2 0x16DD JUMP JUMPDEST DUP2 SLOAD DUP2 LT PUSH2 0x10BD JUMPI PUSH2 0x10BC PUSH2 0x1711 JUMP JUMPDEST JUMPDEST SWAP1 PUSH1 0x0 MSTORE PUSH1 0x20 PUSH1 0x0 KECCAK256 SWAP1 PUSH1 0x5 MUL ADD PUSH1 0x2 ADD PUSH1 0x1 ADD SLOAD EQ JUMPDEST JUMPDEST DUP1 PUSH2 0x115A JUMPI POP PUSH1 0x2 PUSH1 0x1 DUP1 DUP1 DUP1 SLOAD SWAP1 POP PUSH2 0x10EF SWAP2 SWAP1 PUSH2 0x16DD JUMP JUMPDEST DUP2 SLOAD DUP2 LT PUSH2 0x1100 JUMPI PUSH2 0x10FF PUSH2 0x1711 JUMP JUMPDEST JUMPDEST SWAP1 PUSH1 0x0 MSTORE PUSH1 0x20 PUSH1 0x0 KECCAK256 SWAP1 PUSH1 0x5 MUL ADD PUSH1 0x0 ADD PUSH1 0x1 ADD SLOAD EQ DUP1 ISZERO PUSH2 0x1159 JUMPI POP PUSH1 0x3 PUSH1 0x1 DUP1 DUP1 DUP1 SLOAD SWAP1 POP PUSH2 0x1131 SWAP2 SWAP1 PUSH2 0x16DD JUMP JUMPDEST DUP2 SLOAD DUP2 LT PUSH2 0x1142 JUMPI PUSH2 0x1141 PUSH2 0x1711 JUMP JUMPDEST JUMPDEST SWAP1 PUSH1 0x0 MSTORE PUSH1 0x20 PUSH1 0x0 KECCAK256 SWAP1 PUSH1 0x5 MUL ADD PUSH1 0x2 ADD PUSH1 0x1 ADD SLOAD EQ JUMPDEST JUMPDEST ISZERO PUSH2 0x1210 JUMPI PUSH1 0x40 MLOAD DUP1 PUSH1 0x40 ADD PUSH1 0x40 MSTORE DUP1 PUSH1 0x9 DUP2 MSTORE PUSH1 0x20 ADD PUSH32 0x55736572322077696E0000000000000000000000000000000000000000000000 DUP2 MSTORE POP PUSH1 0x1 DUP1 DUP1 DUP1 SLOAD SWAP1 POP PUSH2 0x11A7 SWAP2 SWAP1 PUSH2 0x16DD JUMP JUMPDEST DUP2 SLOAD DUP2 LT PUSH2 0x11B8 JUMPI PUSH2 0x11B7 PUSH2 0x1711 JUMP JUMPDEST JUMPDEST SWAP1 PUSH1 0x0 MSTORE PUSH1 0x20 PUSH1 0x0 KECCAK256 SWAP1 PUSH1 0x5 MUL ADD PUSH1 0x4 ADD SWAP1 DUP2 PUSH2 0x11D5 SWAP2 SWAP1 PUSH2 0x1A64 JUMP JUMPDEST POP PUSH32 0xCDE5C32C0A45FD8AA4B65EA8003FC9DA9ACD5E2C6C24A9FCCE6AB79CABBD9122 PUSH1 0x40 MLOAD PUSH2 0x1203 SWAP1 PUSH2 0x1E5B JUMP JUMPDEST PUSH1 0x40 MLOAD DUP1 SWAP2 SUB SWAP1 LOG1 PUSH2 0x12BD JUMP JUMPDEST PUSH1 0x40 MLOAD DUP1 PUSH1 0x40 ADD PUSH1 0x40 MSTORE DUP1 PUSH1 0x9 DUP2 MSTORE PUSH1 0x20 ADD PUSH32 0x55736572312077696E0000000000000000000000000000000000000000000000 DUP2 MSTORE POP PUSH1 0x1 DUP1 DUP1 DUP1 SLOAD SWAP1 POP PUSH2 0x1258 SWAP2 SWAP1 PUSH2 0x16DD JUMP JUMPDEST DUP2 SLOAD DUP2 LT PUSH2 0x1269 JUMPI PUSH2 0x1268 PUSH2 0x1711 JUMP JUMPDEST JUMPDEST SWAP1 PUSH1 0x0 MSTORE PUSH1 0x20 PUSH1 0x0 KECCAK256 SWAP1 PUSH1 0x5 MUL ADD PUSH1 0x4 ADD SWAP1 DUP2 PUSH2 0x1286 SWAP2 SWAP1 PUSH2 0x1A64 JUMP JUMPDEST POP PUSH32 0xCDE5C32C0A45FD8AA4B65EA8003FC9DA9ACD5E2C6C24A9FCCE6AB79CABBD9122 PUSH1 0x40 MLOAD PUSH2 0x12B4 SWAP1 PUSH2 0x1EC7 JUMP JUMPDEST PUSH1 0x40 MLOAD DUP1 SWAP2 SUB SWAP1 LOG1 JUMPDEST JUMPDEST JUMP JUMPDEST PUSH1 0x40 MLOAD DUP1 PUSH1 0x60 ADD PUSH1 0x40 MSTORE DUP1 PUSH2 0x12D3 PUSH2 0x12ED JUMP JUMPDEST DUP2 MSTORE PUSH1 0x20 ADD PUSH2 0x12E0 PUSH2 0x12ED JUMP JUMPDEST DUP2 MSTORE PUSH1 0x20 ADD PUSH1 0x60 DUP2 MSTORE POP SWAP1 JUMP JUMPDEST PUSH1 0x40 MLOAD DUP1 PUSH1 0x40 ADD PUSH1 0x40 MSTORE DUP1 PUSH1 0x0 PUSH20 0xFFFFFFFFFFFFFFFFFFFFFFFFFFFFFFFFFFFFFFFF AND DUP2 MSTORE PUSH1 0x20 ADD PUSH1 0x0 DUP2 MSTORE POP SWAP1 JUMP JUMPDEST PUSH1 0x0 DUP1 REVERT JUMPDEST PUSH1 0x0 DUP2 SWAP1 POP SWAP2 SWAP1 POP JUMP JUMPDEST PUSH2 0x1335 DUP2 PUSH2 0x1322 JUMP JUMPDEST DUP2 EQ PUSH2 0x1340 JUMPI PUSH1 0x0 DUP1 REVERT JUMPDEST POP JUMP JUMPDEST PUSH1 0x0 DUP2 CALLDATALOAD SWAP1 POP PUSH2 0x1352 DUP2 PUSH2 0x132C JUMP JUMPDEST SWAP3 SWAP2 POP POP JUMP JUMPDEST PUSH1 0x0 PUSH1 0x20 DUP3 DUP5 SUB SLT ISZERO PUSH2 0x136E JUMPI PUSH2 0x136D PUSH2 0x131D JUMP JUMPDEST JUMPDEST PUSH1 0x0 PUSH2 0x137C DUP5 DUP3 DUP6 ADD PUSH2 0x1343 JUMP JUMPDEST SWAP2 POP POP SWAP3 SWAP2 POP POP JUMP JUMPDEST PUSH1 0x0 PUSH20 0xFFFFFFFFFFFFFFFFFFFFFFFFFFFFFFFFFFFFFFFF DUP3 AND SWAP1 POP SWAP2 SWAP1 POP JUMP JUMPDEST PUSH1 0x0 PUSH2 0x13B0 DUP3 PUSH2 0x1385 JUMP JUMPDEST SWAP1 POP SWAP2 SWAP1 POP JUMP JUMPDEST PUSH2 0x13C0 DUP2 PUSH2 0x13A5 JUMP JUMPDEST DUP3 MSTORE POP POP JUMP JUMPDEST PUSH1 0x0 PUSH1 0x20 DUP3 ADD SWAP1 POP PUSH2 0x13DB PUSH1 0x0 DUP4 ADD DUP5 PUSH2 0x13B7 JUMP JUMPDEST SWAP3 SWAP2 POP POP JUMP JUMPDEST PUSH1 0x0 DUP2 MLOAD SWAP1 POP SWAP2 SWAP1 POP JUMP JUMPDEST PUSH1 0x0 DUP3 DUP3 MSTORE PUSH1 0x20 DUP3 ADD SWAP1 POP SWAP3 SWAP2 POP POP JUMP JUMPDEST PUSH1 0x0 DUP2 SWAP1 POP PUSH1 0x20 DUP3 ADD SWAP1 POP SWAP2 SWAP1 POP JUMP JUMPDEST PUSH2 0x1416 DUP2 PUSH2 0x13A5 JUMP JUMPDEST DUP3 MSTORE POP POP JUMP JUMPDEST PUSH2 0x1425 DUP2 PUSH2 0x1322 JUMP JUMPDEST DUP3 MSTORE POP POP JUMP JUMPDEST PUSH1 0x40 DUP3 ADD PUSH1 0x0 DUP3 ADD MLOAD PUSH2 0x1441 PUSH1 0x0 DUP6 ADD DUP3 PUSH2 0x140D JUMP JUMPDEST POP PUSH1 0x20 DUP3 ADD MLOAD PUSH2 0x1454 PUSH1 0x20 DUP6 ADD DUP3 PUSH2 0x141C JUMP JUMPDEST POP POP POP POP JUMP JUMPDEST PUSH1 0x0 DUP2 MLOAD SWAP1 POP SWAP2 SWAP1 POP JUMP JUMPDEST PUSH1 0x0 DUP3 DUP3 MSTORE PUSH1 0x20 DUP3 ADD SWAP1 POP SWAP3 SWAP2 POP POP JUMP JUMPDEST PUSH1 0x0 JUMPDEST DUP4 DUP2 LT ISZERO PUSH2 0x1494 JUMPI DUP1 DUP3 ADD MLOAD DUP2 DUP5 ADD MSTORE PUSH1 0x20 DUP2 ADD SWAP1 POP PUSH2 0x1479 JUMP JUMPDEST PUSH1 0x0 DUP5 DUP5 ADD MSTORE POP POP POP POP JUMP JUMPDEST PUSH1 0x0 PUSH1 0x1F NOT PUSH1 0x1F DUP4 ADD AND SWAP1 POP SWAP2 SWAP1 POP JUMP JUMPDEST PUSH1 0x0 PUSH2 0x14BC DUP3 PUSH2 0x145A JUMP JUMPDEST PUSH2 0x14C6 DUP2 DUP6 PUSH2 0x1465 JUMP JUMPDEST SWAP4 POP PUSH2 0x14D6 DUP2 DUP6 PUSH1 0x20 DUP7 ADD PUSH2 0x1476 JUMP JUMPDEST PUSH2 0x14DF DUP2 PUSH2 0x14A0 JUMP JUMPDEST DUP5 ADD SWAP2 POP POP SWAP3 SWAP2 POP POP JUMP JUMPDEST PUSH1 0x0 PUSH1 0xA0 DUP4 ADD PUSH1 0x0 DUP4 ADD MLOAD PUSH2 0x1502 PUSH1 0x0 DUP7 ADD DUP3 PUSH2 0x142B JUMP JUMPDEST POP PUSH1 0x20 DUP4 ADD MLOAD PUSH2 0x1515 PUSH1 0x40 DUP7 ADD DUP3 PUSH2 0x142B JUMP JUMPDEST POP PUSH1 0x40 DUP4 ADD MLOAD DUP5 DUP3 SUB PUSH1 0x80 DUP7 ADD MSTORE PUSH2 0x152D DUP3 DUP3 PUSH2 0x14B1 JUMP JUMPDEST SWAP2 POP POP DUP1 SWAP2 POP POP SWAP3 SWAP2 POP POP JUMP JUMPDEST PUSH1 0x0 PUSH2 0x1546 DUP4 DUP4 PUSH2 0x14EA JUMP JUMPDEST SWAP1 POP SWAP3 SWAP2 POP POP JUMP JUMPDEST PUSH1 0x0 PUSH1 0x20 DUP3 ADD SWAP1 POP SWAP2 SWAP1 POP JUMP JUMPDEST PUSH1 0x0 PUSH2 0x1566 DUP3 PUSH2 0x13E1 JUMP JUMPDEST PUSH2 0x1570 DUP2 DUP6 PUSH2 0x13EC JUMP JUMPDEST SWAP4 POP DUP4 PUSH1 0x20 DUP3 MUL DUP6 ADD PUSH2 0x1582 DUP6 PUSH2 0x13FD JUMP JUMPDEST DUP1 PUSH1 0x0 JUMPDEST DUP6 DUP2 LT ISZERO PUSH2 0x15BE JUMPI DUP5 DUP5 SUB DUP10 MSTORE DUP2 MLOAD PUSH2 0x159F DUP6 DUP3 PUSH2 0x153A JUMP JUMPDEST SWAP5 POP PUSH2 0x15AA DUP4 PUSH2 0x154E JUMP JUMPDEST SWAP3 POP PUSH1 0x20 DUP11 ADD SWAP10 POP POP PUSH1 0x1 DUP2 ADD SWAP1 POP PUSH2 0x1586 JUMP JUMPDEST POP DUP3 SWAP8 POP DUP8 SWAP6 POP POP POP POP POP POP SWAP3 SWAP2 POP POP JUMP JUMPDEST PUSH1 0x0 PUSH1 0x20 DUP3 ADD SWAP1 POP DUP2 DUP2 SUB PUSH1 0x0 DUP4 ADD MSTORE PUSH2 0x15EA DUP2 DUP5 PUSH2 0x155B JUMP JUMPDEST SWAP1 POP SWAP3 SWAP2 POP POP JUMP JUMPDEST PUSH1 0x40 DUP3 ADD PUSH1 0x0 DUP3 ADD MLOAD PUSH2 0x1608 PUSH1 0x0 DUP6 ADD DUP3 PUSH2 0x140D JUMP JUMPDEST POP PUSH1 0x20 DUP3 ADD MLOAD PUSH2 0x161B PUSH1 0x20 DUP6 ADD DUP3 PUSH2 0x141C JUMP JUMPDEST POP POP POP POP JUMP JUMPDEST PUSH1 0x0 PUSH1 0x40 DUP3 ADD SWAP1 POP PUSH2 0x1636 PUSH1 0x0 DUP4 ADD DUP5 PUSH2 0x15F2 JUMP JUMPDEST SWAP3 SWAP2 POP POP JUMP JUMPDEST PUSH1 0x0 PUSH1 0xA0 DUP4 ADD PUSH1 0x0 DUP4 ADD MLOAD PUSH2 0x1654 PUSH1 0x0 DUP7 ADD DUP3 PUSH2 0x142B JUMP JUMPDEST POP PUSH1 0x20 DUP4 ADD MLOAD PUSH2 0x1667 PUSH1 0x40 DUP7 ADD DUP3 PUSH2 0x142B JUMP JUMPDEST POP PUSH1 0x40 DUP4 ADD MLOAD DUP5 DUP3 SUB PUSH1 0x80 DUP7 ADD MSTORE PUSH2 0x167F DUP3 DUP3 PUSH2 0x14B1 JUMP JUMPDEST SWAP2 POP POP DUP1 SWAP2 POP POP SWAP3 SWAP2 POP POP JUMP JUMPDEST PUSH1 0x0 PUSH1 0x20 DUP3 ADD SWAP1 POP DUP2 DUP2 SUB PUSH1 0x0 DUP4 ADD MSTORE PUSH2 0x16A6 DUP2 DUP5 PUSH2 0x163C JUMP JUMPDEST SWAP1 POP SWAP3 SWAP2 POP POP JUMP JUMPDEST PUSH32 0x4E487B7100000000000000000000000000000000000000000000000000000000 PUSH1 0x0 MSTORE PUSH1 0x11 PUSH1 0x4 MSTORE PUSH1 0x24 PUSH1 0x0 REVERT JUMPDEST PUSH1 0x0 PUSH2 0x16E8 DUP3 PUSH2 0x1322 JUMP JUMPDEST SWAP2 POP PUSH2 0x16F3 DUP4 PUSH2 0x1322 JUMP JUMPDEST SWAP3 POP DUP3 DUP3 SUB SWAP1 POP DUP2 DUP2 GT ISZERO PUSH2 0x170B JUMPI PUSH2 0x170A PUSH2 0x16AE JUMP JUMPDEST JUMPDEST SWAP3 SWAP2 POP POP JUMP JUMPDEST PUSH32 0x4E487B7100000000000000000000000000000000000000000000000000000000 PUSH1 0x0 MSTORE PUSH1 0x32 PUSH1 0x4 MSTORE PUSH1 0x24 PUSH1 0x0 REVERT JUMPDEST PUSH1 0x0 DUP3 DUP3 MSTORE PUSH1 0x20 DUP3 ADD SWAP1 POP SWAP3 SWAP2 POP POP JUMP JUMPDEST PUSH32 0x676F20696E20746F20636F6E646974696F6E20636865636B0000000000000000 PUSH1 0x0 DUP3 ADD MSTORE POP JUMP JUMPDEST PUSH1 0x0 PUSH2 0x1787 PUSH1 0x18 DUP4 PUSH2 0x1740 JUMP JUMPDEST SWAP2 POP PUSH2 0x1792 DUP3 PUSH2 0x1751 JUMP JUMPDEST PUSH1 0x20 DUP3 ADD SWAP1 POP SWAP2 SWAP1 POP JUMP JUMPDEST PUSH1 0x0 PUSH1 0x20 DUP3 ADD SWAP1 POP DUP2 DUP2 SUB PUSH1 0x0 DUP4 ADD MSTORE PUSH2 0x17B6 DUP2 PUSH2 0x177A JUMP JUMPDEST SWAP1 POP SWAP2 SWAP1 POP JUMP JUMPDEST PUSH32 0x4E487B7100000000000000000000000000000000000000000000000000000000 PUSH1 0x0 MSTORE PUSH1 0x22 PUSH1 0x4 MSTORE PUSH1 0x24 PUSH1 0x0 REVERT JUMPDEST PUSH1 0x0 PUSH1 0x2 DUP3 DIV SWAP1 POP PUSH1 0x1 DUP3 AND DUP1 PUSH2 0x1804 JUMPI PUSH1 0x7F DUP3 AND SWAP2 POP JUMPDEST PUSH1 0x20 DUP3 LT DUP2 SUB PUSH2 0x1817 JUMPI PUSH2 0x1816 PUSH2 0x17BD JUMP JUMPDEST JUMPDEST POP SWAP2 SWAP1 POP JUMP JUMPDEST PUSH32 0x4572726F723A205265656E7472616E742063616C6C0000000000000000000000 PUSH1 0x0 DUP3 ADD MSTORE POP JUMP JUMPDEST PUSH1 0x0 PUSH2 0x1853 PUSH1 0x15 DUP4 PUSH2 0x1740 JUMP JUMPDEST SWAP2 POP PUSH2 0x185E DUP3 PUSH2 0x181D JUMP JUMPDEST PUSH1 0x20 DUP3 ADD SWAP1 POP SWAP2 SWAP1 POP JUMP JUMPDEST PUSH1 0x0 PUSH1 0x20 DUP3 ADD SWAP1 POP DUP2 DUP2 SUB PUSH1 0x0 DUP4 ADD MSTORE PUSH2 0x1882 DUP2 PUSH2 0x1846 JUMP JUMPDEST SWAP1 POP SWAP2 SWAP1 POP JUMP JUMPDEST PUSH32 0x4E487B7100000000000000000000000000000000000000000000000000000000 PUSH1 0x0 MSTORE PUSH1 0x41 PUSH1 0x4 MSTORE PUSH1 0x24 PUSH1 0x0 REVERT JUMPDEST PUSH1 0x0 DUP2 SWAP1 POP DUP2 PUSH1 0x0 MSTORE PUSH1 0x20 PUSH1 0x0 KECCAK256 SWAP1 POP SWAP2 SWAP1 POP JUMP JUMPDEST PUSH1 0x0 PUSH1 0x20 PUSH1 0x1F DUP4 ADD DIV SWAP1 POP SWAP2 SWAP1 POP JUMP JUMPDEST PUSH1 0x0 DUP3 DUP3 SHL SWAP1 POP SWAP3 SWAP2 POP POP JUMP JUMPDEST PUSH1 0x0 PUSH1 0x8 DUP4 MUL PUSH2 0x191A PUSH32 0xFFFFFFFFFFFFFFFFFFFFFFFFFFFFFFFFFFFFFFFFFFFFFFFFFFFFFFFFFFFFFFFF DUP3 PUSH2 0x18DD JUMP JUMPDEST PUSH2 0x1924 DUP7 DUP4 PUSH2 0x18DD JUMP JUMPDEST SWAP6 POP DUP1 NOT DUP5 AND SWAP4 POP DUP1 DUP7 AND DUP5 OR SWAP3 POP POP POP SWAP4 SWAP3 POP POP POP JUMP JUMPDEST PUSH1 0x0 DUP2 SWAP1 POP SWAP2 SWAP1 POP JUMP JUMPDEST PUSH1 0x0 PUSH2 0x1961 PUSH2 0x195C PUSH2 0x1957 DUP5 PUSH2 0x1322 JUMP JUMPDEST PUSH2 0x193C JUMP JUMPDEST PUSH2 0x1322 JUMP JUMPDEST SWAP1 POP SWAP2 SWAP1 POP JUMP JUMPDEST PUSH1 0x0 DUP2 SWAP1 POP SWAP2 SWAP1 POP JUMP JUMPDEST PUSH2 0x197B DUP4 PUSH2 0x1946 JUMP JUMPDEST PUSH2 0x198F PUSH2 0x1987 DUP3 PUSH2 0x1968 JUMP JUMPDEST DUP5 DUP5 SLOAD PUSH2 0x18EA JUMP JUMPDEST DUP3 SSTORE POP POP POP POP JUMP JUMPDEST PUSH1 0x0 SWAP1 JUMP JUMPDEST PUSH2 0x19A4 PUSH2 0x1997 JUMP JUMPDEST PUSH2 0x19AF DUP2 DUP5 DUP5 PUSH2 0x1972 JUMP JUMPDEST POP POP POP JUMP JUMPDEST JUMPDEST DUP2 DUP2 LT ISZERO PUSH2 0x19D3 JUMPI PUSH2 0x19C8 PUSH1 0x0 DUP3 PUSH2 0x199C JUMP JUMPDEST PUSH1 0x1 DUP2 ADD SWAP1 POP PUSH2 0x19B5 JUMP JUMPDEST POP POP JUMP JUMPDEST PUSH1 0x1F DUP3 GT ISZERO PUSH2 0x1A18 JUMPI PUSH2 0x19E9 DUP2 PUSH2 0x18B8 JUMP JUMPDEST PUSH2 0x19F2 DUP5 PUSH2 0x18CD JUMP JUMPDEST DUP2 ADD PUSH1 0x20 DUP6 LT ISZERO PUSH2 0x1A01 JUMPI DUP2 SWAP1 POP JUMPDEST PUSH2 0x1A15 PUSH2 0x1A0D DUP6 PUSH2 0x18CD JUMP JUMPDEST DUP4 ADD DUP3 PUSH2 0x19B4 JUMP JUMPDEST POP POP JUMPDEST POP POP POP JUMP JUMPDEST PUSH1 0x0 DUP3 DUP3 SHR SWAP1 POP SWAP3 SWAP2 POP POP JUMP JUMPDEST PUSH1 0x0 PUSH2 0x1A3B PUSH1 0x0 NOT DUP5 PUSH1 0x8 MUL PUSH2 0x1A1D JUMP JUMPDEST NOT DUP1 DUP4 AND SWAP2 POP POP SWAP3 SWAP2 POP POP JUMP JUMPDEST PUSH1 0x0 PUSH2 0x1A54 DUP4 DUP4 PUSH2 0x1A2A JUMP JUMPDEST SWAP2 POP DUP3 PUSH1 0x2 MUL DUP3 OR SWAP1 POP SWAP3 SWAP2 POP POP JUMP JUMPDEST PUSH2 0x1A6D DUP3 PUSH2 0x145A JUMP JUMPDEST PUSH8 0xFFFFFFFFFFFFFFFF DUP2 GT ISZERO PUSH2 0x1A86 JUMPI PUSH2 0x1A85 PUSH2 0x1889 JUMP JUMPDEST JUMPDEST PUSH2 0x1A90 DUP3 SLOAD PUSH2 0x17EC JUMP JUMPDEST PUSH2 0x1A9B DUP3 DUP3 DUP6 PUSH2 0x19D7 JUMP JUMPDEST PUSH1 0x0 PUSH1 0x20 SWAP1 POP PUSH1 0x1F DUP4 GT PUSH1 0x1 DUP2 EQ PUSH2 0x1ACE JUMPI PUSH1 0x0 DUP5 ISZERO PUSH2 0x1ABC JUMPI DUP3 DUP8 ADD MLOAD SWAP1 POP JUMPDEST PUSH2 0x1AC6 DUP6 DUP3 PUSH2 0x1A48 JUMP JUMPDEST DUP7 SSTORE POP PUSH2 0x1B2E JUMP JUMPDEST PUSH1 0x1F NOT DUP5 AND PUSH2 0x1ADC DUP7 PUSH2 0x18B8 JUMP JUMPDEST PUSH1 0x0 JUMPDEST DUP3 DUP2 LT ISZERO PUSH2 0x1B04 JUMPI DUP5 DUP10 ADD MLOAD DUP3 SSTORE PUSH1 0x1 DUP3 ADD SWAP2 POP PUSH1 0x20 DUP6 ADD SWAP5 POP PUSH1 0x20 DUP2 ADD SWAP1 POP PUSH2 0x1ADF JUMP JUMPDEST DUP7 DUP4 LT ISZERO PUSH2 0x1B21 JUMPI DUP5 DUP10 ADD MLOAD PUSH2 0x1B1D PUSH1 0x1F DUP10 AND DUP3 PUSH2 0x1A2A JUMP JUMPDEST DUP4 SSTORE POP JUMPDEST PUSH1 0x1 PUSH1 0x2 DUP9 MUL ADD DUP9 SSTORE POP POP POP JUMPDEST POP POP POP POP POP POP JUMP JUMPDEST PUSH1 0x0 PUSH2 0x1B41 DUP3 PUSH2 0x1322 JUMP JUMPDEST SWAP2 POP PUSH32 0xFFFFFFFFFFFFFFFFFFFFFFFFFFFFFFFFFFFFFFFFFFFFFFFFFFFFFFFFFFFFFFFF DUP3 SUB PUSH2 0x1B73 JUMPI PUSH2 0x1B72 PUSH2 0x16AE JUMP JUMPDEST JUMPDEST PUSH1 0x1 DUP3 ADD SWAP1 POP SWAP2 SWAP1 POP JUMP JUMPDEST PUSH32 0x4572726F723A20596F752063616E6E6F7420706C6179207769746820796F7572 PUSH1 0x0 DUP3 ADD MSTORE PUSH32 0x73656C6600000000000000000000000000000000000000000000000000000000 PUSH1 0x20 DUP3 ADD MSTORE POP JUMP JUMPDEST PUSH1 0x0 PUSH2 0x1BDA PUSH1 0x24 DUP4 PUSH2 0x1740 JUMP JUMPDEST SWAP2 POP PUSH2 0x1BE5 DUP3 PUSH2 0x1B7E JUMP JUMPDEST PUSH1 0x40 DUP3 ADD SWAP1 POP SWAP2 SWAP1 POP JUMP JUMPDEST PUSH1 0x0 PUSH1 0x20 DUP3 ADD SWAP1 POP DUP2 DUP2 SUB PUSH1 0x0 DUP4 ADD MSTORE PUSH2 0x1C09 DUP2 PUSH2 0x1BCD JUMP JUMPDEST SWAP1 POP SWAP2 SWAP1 POP JUMP JUMPDEST PUSH32 0x596F75206E65656420746F207761697420666F72207468652070657276696F75 PUSH1 0x0 DUP3 ADD MSTORE PUSH32 0x7320757365720000000000000000000000000000000000000000000000000000 PUSH1 0x20 DUP3 ADD MSTORE POP JUMP JUMPDEST PUSH1 0x0 PUSH2 0x1C6C PUSH1 0x26 DUP4 PUSH2 0x1740 JUMP JUMPDEST SWAP2 POP PUSH2 0x1C77 DUP3 PUSH2 0x1C10 JUMP JUMPDEST PUSH1 0x40 DUP3 ADD SWAP1 POP SWAP2 SWAP1 POP JUMP JUMPDEST PUSH1 0x0 PUSH1 0x20 DUP3 ADD SWAP1 POP DUP2 DUP2 SUB PUSH1 0x0 DUP4 ADD MSTORE PUSH2 0x1C9B DUP2 PUSH2 0x1C5F JUMP JUMPDEST SWAP1 POP SWAP2 SWAP1 POP JUMP JUMPDEST PUSH1 0x0 PUSH1 0x40 DUP3 ADD SWAP1 POP PUSH2 0x1CB7 PUSH1 0x0 DUP4 ADD DUP6 PUSH2 0x13B7 JUMP JUMPDEST PUSH2 0x1CC4 PUSH1 0x20 DUP4 ADD DUP5 PUSH2 0x13B7 JUMP JUMPDEST SWAP4 SWAP3 POP POP POP JUMP JUMPDEST PUSH32 0x4572726F723A20496E76616C6964206C656E6774680000000000000000000000 PUSH1 0x0 DUP3 ADD MSTORE POP JUMP JUMPDEST PUSH1 0x0 PUSH2 0x1D01 PUSH1 0x15 DUP4 PUSH2 0x1740 JUMP JUMPDEST SWAP2 POP PUSH2 0x1D0C DUP3 PUSH2 0x1CCB JUMP JUMPDEST PUSH1 0x20 DUP3 ADD SWAP1 POP SWAP2 SWAP1 POP JUMP JUMPDEST PUSH1 0x0 PUSH1 0x20 DUP3 ADD SWAP1 POP DUP2 DUP2 SUB PUSH1 0x0 DUP4 ADD MSTORE PUSH2 0x1D30 DUP2 PUSH2 0x1CF4 JUMP JUMPDEST SWAP1 POP SWAP2 SWAP1 POP JUMP JUMPDEST PUSH32 0x4572726F723A205468652067616D65206E6F742066696E697368207965740000 PUSH1 0x0 DUP3 ADD MSTORE POP JUMP JUMPDEST PUSH1 0x0 PUSH2 0x1D6D PUSH1 0x1E DUP4 PUSH2 0x1740 JUMP JUMPDEST SWAP2 POP PUSH2 0x1D78 DUP3 PUSH2 0x1D37 JUMP JUMPDEST PUSH1 0x20 DUP3 ADD SWAP1 POP SWAP2 SWAP1 POP JUMP JUMPDEST PUSH1 0x0 PUSH1 0x20 DUP3 ADD SWAP1 POP DUP2 DUP2 SUB PUSH1 0x0 DUP4 ADD MSTORE PUSH2 0x1D9C DUP2 PUSH2 0x1D60 JUMP JUMPDEST SWAP1 POP SWAP2 SWAP1 POP JUMP JUMPDEST PUSH32 0x5469656400000000000000000000000000000000000000000000000000000000 PUSH1 0x0 DUP3 ADD MSTORE POP JUMP JUMPDEST PUSH1 0x0 PUSH2 0x1DD9 PUSH1 0x4 DUP4 PUSH2 0x1740 JUMP JUMPDEST SWAP2 POP PUSH2 0x1DE4 DUP3 PUSH2 0x1DA3 JUMP JUMPDEST PUSH1 0x20 DUP3 ADD SWAP1 POP SWAP2 SWAP1 POP JUMP JUMPDEST PUSH1 0x0 PUSH1 0x20 DUP3 ADD SWAP1 POP DUP2 DUP2 SUB PUSH1 0x0 DUP4 ADD MSTORE PUSH2 0x1E08 DUP2 PUSH2 0x1DCC JUMP JUMPDEST SWAP1 POP SWAP2 SWAP1 POP JUMP JUMPDEST PUSH32 0x55736572322077696E0000000000000000000000000000000000000000000000 PUSH1 0x0 DUP3 ADD MSTORE POP JUMP JUMPDEST PUSH1 0x0 PUSH2 0x1E45 PUSH1 0x9 DUP4 PUSH2 0x1740 JUMP JUMPDEST SWAP2 POP PUSH2 0x1E50 DUP3 PUSH2 0x1E0F JUMP JUMPDEST PUSH1 0x20 DUP3 ADD SWAP1 POP SWAP2 SWAP1 POP JUMP JUMPDEST PUSH1 0x0 PUSH1 0x20 DUP3 ADD SWAP1 POP DUP2 DUP2 SUB PUSH1 0x0 DUP4 ADD MSTORE PUSH2 0x1E74 DUP2 PUSH2 0x1E38 JUMP JUMPDEST SWAP1 POP SWAP2 SWAP1 POP JUMP JUMPDEST PUSH32 0x55736572312077696E0000000000000000000000000000000000000000000000 PUSH1 0x0 DUP3 ADD MSTORE POP JUMP JUMPDEST PUSH1 0x0 PUSH2 0x1EB1 PUSH1 0x9 DUP4 PUSH2 0x1740 JUMP JUMPDEST SWAP2 POP PUSH2 0x1EBC DUP3 PUSH2 0x1E7B JUMP JUMPDEST PUSH1 0x20 DUP3 ADD SWAP1 POP SWAP2 SWAP1 POP JUMP JUMPDEST PUSH1 0x0 PUSH1 0x20 DUP3 ADD SWAP1 POP DUP2 DUP2 SUB PUSH1 0x0 DUP4 ADD MSTORE PUSH2 0x1EE0 DUP2 PUSH2 0x1EA4 JUMP JUMPDEST SWAP1 POP SWAP2 SWAP1 POP JUMP INVALID LOG2 PUSH5 0x6970667358 0x22 SLT KECCAK256 0xEA PUSH13 0x789196DDBE610D2A942084715 PUSH14 0x7A854507D1E5D498E230640091B8 0x28 0xF PUSH5 0x736F6C6343 STOP ADDMOD SGT STOP CALLER "
				},
				"gasEstimates": {
					"creation": {
						"codeDepositCost": "1593000",
						"executionCost": "6672",
						"totalCost": "1599672"
					},
					"external": {
						"getGameHistory()": "infinite",
						"getSpecificGameHistory(uint256)": "infinite",
						"getUser1(uint256)": "infinite",
						"play()": "infinite",
						"user1address()": "2564",
						"user2address()": "2537",
						"userEnterOption(uint256)": "infinite"
					},
					"internal": {
						"game()": "infinite"
					}
				},
				"methodIdentifiers": {
					"getGameHistory()": "512ec557",
					"getSpecificGameHistory(uint256)": "f7c4efbb",
					"getUser1(uint256)": "e417f4a3",
					"play()": "93e84cd9",
					"user1address()": "6ef595d8",
					"user2address()": "3d5e9d2d",
					"userEnterOption(uint256)": "2cde7869"
				}
			},
			"storageLayout": {
				"storage": [
					{
						"astId": 18,
						"contract": "Practical3-Use-UI_Play-Jason.sol:RockPaperScissors",
						"label": "userCount",
						"offset": 0,
						"slot": "0",
						"type": "t_uint256"
					},
					{
						"astId": 22,
						"contract": "Practical3-Use-UI_Play-Jason.sol:RockPaperScissors",
						"label": "gameHistory",
						"offset": 0,
						"slot": "1",
						"type": "t_array(t_struct(GameInfo)15_storage)dyn_storage"
					},
					{
						"astId": 24,
						"contract": "Practical3-Use-UI_Play-Jason.sol:RockPaperScissors",
						"label": "locked",
						"offset": 0,
						"slot": "2",
						"type": "t_bool"
					},
					{
						"astId": 26,
						"contract": "Practical3-Use-UI_Play-Jason.sol:RockPaperScissors",
						"label": "user1address",
						"offset": 1,
						"slot": "2",
						"type": "t_address"
					},
					{
						"astId": 28,
						"contract": "Practical3-Use-UI_Play-Jason.sol:RockPaperScissors",
						"label": "user2address",
						"offset": 0,
						"slot": "3",
						"type": "t_address"
					}
				],
				"types": {
					"t_address": {
						"encoding": "inplace",
						"label": "address",
						"numberOfBytes": "20"
					},
					"t_array(t_struct(GameInfo)15_storage)dyn_storage": {
						"base": "t_struct(GameInfo)15_storage",
						"encoding": "dynamic_array",
						"label": "struct RockPaperScissors.GameInfo[]",
						"numberOfBytes": "32"
					},
					"t_bool": {
						"encoding": "inplace",
						"label": "bool",
						"numberOfBytes": "1"
					},
					"t_string_storage": {
						"encoding": "bytes",
						"label": "string",
						"numberOfBytes": "32"
					},
					"t_struct(GameInfo)15_storage": {
						"encoding": "inplace",
						"label": "struct RockPaperScissors.GameInfo",
						"members": [
							{
								"astId": 9,
								"contract": "Practical3-Use-UI_Play-Jason.sol:RockPaperScissors",
								"label": "user1",
								"offset": 0,
								"slot": "0",
								"type": "t_struct(UserInfo)6_storage"
							},
							{
								"astId": 12,
								"contract": "Practical3-Use-UI_Play-Jason.sol:RockPaperScissors",
								"label": "user2",
								"offset": 0,
								"slot": "2",
								"type": "t_struct(UserInfo)6_storage"
							},
							{
								"astId": 14,
								"contract": "Practical3-Use-UI_Play-Jason.sol:RockPaperScissors",
								"label": "finalResult",
								"offset": 0,
								"slot": "4",
								"type": "t_string_storage"
							}
						],
						"numberOfBytes": "160"
					},
					"t_struct(UserInfo)6_storage": {
						"encoding": "inplace",
						"label": "struct RockPaperScissors.UserInfo",
						"members": [
							{
								"astId": 3,
								"contract": "Practical3-Use-UI_Play-Jason.sol:RockPaperScissors",
								"label": "userAddress",
								"offset": 0,
								"slot": "0",
								"type": "t_address"
							},
							{
								"astId": 5,
								"contract": "Practical3-Use-UI_Play-Jason.sol:RockPaperScissors",
								"label": "userOption",
								"offset": 0,
								"slot": "1",
								"type": "t_uint256"
							}
						],
						"numberOfBytes": "64"
					},
					"t_uint256": {
						"encoding": "inplace",
						"label": "uint256",
						"numberOfBytes": "32"
					}
				}
			},
			"userdoc": {
				"kind": "user",
				"methods": {},
				"version": 1
			}
		}
	}
}