{
	"Practical5-Tick-Tack-Toe-More-Jason.sol": {
		"TickTackToe": {
			"abi": [
				{
					"anonymous": false,
					"inputs": [
						{
							"indexed": false,
							"internalType": "uint256",
							"name": "gameId",
							"type": "uint256"
						}
					],
					"name": "createRoom",
					"type": "event"
				},
				{
					"anonymous": false,
					"inputs": [
						{
							"components": [
								{
									"internalType": "bool",
									"name": "_activate",
									"type": "bool"
								},
								{
									"internalType": "string",
									"name": "_currentPlayer",
									"type": "string"
								},
								{
									"internalType": "string[]",
									"name": "_options",
									"type": "string[]"
								},
								{
									"internalType": "uint256[]",
									"name": "_finalWinOption",
									"type": "uint256[]"
								},
								{
									"internalType": "address",
									"name": "_player1address",
									"type": "address"
								},
								{
									"internalType": "address",
									"name": "_player2address",
									"type": "address"
								},
								{
									"internalType": "uint256",
									"name": "_playerCount",
									"type": "uint256"
								},
								{
									"internalType": "address",
									"name": "_winer",
									"type": "address"
								}
							],
							"indexed": false,
							"internalType": "struct TickTackToe.GameInfo",
							"name": "gameinfo",
							"type": "tuple"
						},
						{
							"indexed": false,
							"internalType": "uint256",
							"name": "gameId",
							"type": "uint256"
						}
					],
					"name": "joinRoom",
					"type": "event"
				},
				{
					"anonymous": false,
					"inputs": [
						{
							"indexed": false,
							"internalType": "string",
							"name": "next",
							"type": "string"
						},
						{
							"indexed": false,
							"internalType": "uint256",
							"name": "gameId",
							"type": "uint256"
						}
					],
					"name": "nextUesrStr",
					"type": "event"
				},
				{
					"anonymous": false,
					"inputs": [
						{
							"indexed": false,
							"internalType": "address",
							"name": "nextUser",
							"type": "address"
						},
						{
							"indexed": false,
							"internalType": "uint256",
							"name": "gameId",
							"type": "uint256"
						}
					],
					"name": "nextUser",
					"type": "event"
				},
				{
					"anonymous": false,
					"inputs": [
						{
							"indexed": false,
							"internalType": "uint256",
							"name": "gameId",
							"type": "uint256"
						}
					],
					"name": "resetUI",
					"type": "event"
				},
				{
					"anonymous": false,
					"inputs": [
						{
							"indexed": false,
							"internalType": "address",
							"name": "player1Address",
							"type": "address"
						},
						{
							"indexed": false,
							"internalType": "uint256",
							"name": "gameId",
							"type": "uint256"
						}
					],
					"name": "showFirstPlayer",
					"type": "event"
				},
				{
					"anonymous": false,
					"inputs": [
						{
							"indexed": false,
							"internalType": "string",
							"name": "result",
							"type": "string"
						},
						{
							"indexed": false,
							"internalType": "uint256",
							"name": "gameId",
							"type": "uint256"
						}
					],
					"name": "showResult",
					"type": "event"
				},
				{
					"anonymous": false,
					"inputs": [
						{
							"indexed": false,
							"internalType": "string",
							"name": "message",
							"type": "string"
						},
						{
							"indexed": false,
							"internalType": "address",
							"name": "player1",
							"type": "address"
						},
						{
							"indexed": false,
							"internalType": "address",
							"name": "player2",
							"type": "address"
						},
						{
							"indexed": false,
							"internalType": "uint256",
							"name": "gameId",
							"type": "uint256"
						}
					],
					"name": "startGame",
					"type": "event"
				},
				{
					"anonymous": false,
					"inputs": [
						{
							"indexed": false,
							"internalType": "string[]",
							"name": "options",
							"type": "string[]"
						},
						{
							"indexed": false,
							"internalType": "uint256",
							"name": "gameId",
							"type": "uint256"
						}
					],
					"name": "updateUI",
					"type": "event"
				},
				{
					"inputs": [
						{
							"internalType": "string",
							"name": "a",
							"type": "string"
						},
						{
							"internalType": "string",
							"name": "b",
							"type": "string"
						}
					],
					"name": "compareStrings",
					"outputs": [
						{
							"internalType": "bool",
							"name": "",
							"type": "bool"
						}
					],
					"stateMutability": "pure",
					"type": "function"
				},
				{
					"inputs": [],
					"name": "createGameRoom",
					"outputs": [],
					"stateMutability": "nonpayable",
					"type": "function"
				},
				{
					"inputs": [
						{
							"internalType": "uint256",
							"name": "",
							"type": "uint256"
						}
					],
					"name": "gameInformation",
					"outputs": [
						{
							"internalType": "bool",
							"name": "_activate",
							"type": "bool"
						},
						{
							"internalType": "string",
							"name": "_currentPlayer",
							"type": "string"
						},
						{
							"internalType": "address",
							"name": "_player1address",
							"type": "address"
						},
						{
							"internalType": "address",
							"name": "_player2address",
							"type": "address"
						},
						{
							"internalType": "uint256",
							"name": "_playerCount",
							"type": "uint256"
						},
						{
							"internalType": "address",
							"name": "_winer",
							"type": "address"
						}
					],
					"stateMutability": "view",
					"type": "function"
				},
				{
					"inputs": [],
					"name": "getAllGameInformation",
					"outputs": [
						{
							"components": [
								{
									"internalType": "bool",
									"name": "_activate",
									"type": "bool"
								},
								{
									"internalType": "string",
									"name": "_currentPlayer",
									"type": "string"
								},
								{
									"internalType": "string[]",
									"name": "_options",
									"type": "string[]"
								},
								{
									"internalType": "uint256[]",
									"name": "_finalWinOption",
									"type": "uint256[]"
								},
								{
									"internalType": "address",
									"name": "_player1address",
									"type": "address"
								},
								{
									"internalType": "address",
									"name": "_player2address",
									"type": "address"
								},
								{
									"internalType": "uint256",
									"name": "_playerCount",
									"type": "uint256"
								},
								{
									"internalType": "address",
									"name": "_winer",
									"type": "address"
								}
							],
							"internalType": "struct TickTackToe.GameInfo[]",
							"name": "",
							"type": "tuple[]"
						}
					],
					"stateMutability": "view",
					"type": "function"
				},
				{
					"inputs": [
						{
							"internalType": "uint256",
							"name": "gameId",
							"type": "uint256"
						}
					],
					"name": "getFinalWinOption",
					"outputs": [
						{
							"internalType": "uint256[]",
							"name": "",
							"type": "uint256[]"
						}
					],
					"stateMutability": "view",
					"type": "function"
				},
				{
					"inputs": [
						{
							"internalType": "uint256",
							"name": "gameId",
							"type": "uint256"
						}
					],
					"name": "getGameInformation",
					"outputs": [
						{
							"components": [
								{
									"internalType": "bool",
									"name": "_activate",
									"type": "bool"
								},
								{
									"internalType": "string",
									"name": "_currentPlayer",
									"type": "string"
								},
								{
									"internalType": "string[]",
									"name": "_options",
									"type": "string[]"
								},
								{
									"internalType": "uint256[]",
									"name": "_finalWinOption",
									"type": "uint256[]"
								},
								{
									"internalType": "address",
									"name": "_player1address",
									"type": "address"
								},
								{
									"internalType": "address",
									"name": "_player2address",
									"type": "address"
								},
								{
									"internalType": "uint256",
									"name": "_playerCount",
									"type": "uint256"
								},
								{
									"internalType": "address",
									"name": "_winer",
									"type": "address"
								}
							],
							"internalType": "struct TickTackToe.GameInfo",
							"name": "",
							"type": "tuple"
						}
					],
					"stateMutability": "view",
					"type": "function"
				},
				{
					"inputs": [
						{
							"internalType": "uint256",
							"name": "gameId",
							"type": "uint256"
						}
					],
					"name": "getoption",
					"outputs": [
						{
							"internalType": "string[]",
							"name": "",
							"type": "string[]"
						}
					],
					"stateMutability": "view",
					"type": "function"
				},
				{
					"inputs": [
						{
							"internalType": "uint256",
							"name": "gameId",
							"type": "uint256"
						}
					],
					"name": "joinGame",
					"outputs": [],
					"stateMutability": "nonpayable",
					"type": "function"
				},
				{
					"inputs": [
						{
							"internalType": "uint256",
							"name": "gameId",
							"type": "uint256"
						}
					],
					"name": "restartGame",
					"outputs": [],
					"stateMutability": "nonpayable",
					"type": "function"
				},
				{
					"inputs": [
						{
							"internalType": "uint256",
							"name": "input",
							"type": "uint256"
						},
						{
							"internalType": "uint256",
							"name": "gameId",
							"type": "uint256"
						}
					],
					"name": "userInput",
					"outputs": [],
					"stateMutability": "nonpayable",
					"type": "function"
				},
				{
					"inputs": [
						{
							"internalType": "uint256",
							"name": "gameId",
							"type": "uint256"
						}
					],
					"name": "validateRestartPlayer",
					"outputs": [],
					"stateMutability": "nonpayable",
					"type": "function"
				}
			],
			"devdoc": {
				"kind": "dev",
				"methods": {},
				"version": 1
			},
			"evm": {
				"assembly": "  0x00\n    /* \"Practical5-Tick-Tack-Toe-More-Jason.sol\":981:1244  uint[][] private winConditionSet=  ... */\n  0x0180\n  dup2\n  dup2\n  mstore\n    /* \"Practical5-Tick-Tack-Toe-More-Jason.sol\":1027:1028  1 */\n  0x01\n    /* \"Practical5-Tick-Tack-Toe-More-Jason.sol\":981:1244  uint[][] private winConditionSet=  ... */\n  0x01a0\n  dup2\n  swap1\n  mstore\n    /* \"Practical5-Tick-Tack-Toe-More-Jason.sol\":1030:1031  2 */\n  0x02\n    /* \"Practical5-Tick-Tack-Toe-More-Jason.sol\":981:1244  uint[][] private winConditionSet=  ... */\n  0x01c0\n  dup2\n  swap1\n  mstore\n    /* \"Practical5-Tick-Tack-Toe-More-Jason.sol\":60:10092  contract TickTackToe{... */\n  0x80\n    /* \"Practical5-Tick-Tack-Toe-More-Jason.sol\":981:1244  uint[][] private winConditionSet=  ... */\n  swap3\n  dup4\n  mstore\n    /* \"Practical5-Tick-Tack-Toe-More-Jason.sol\":1041:1042  3 */\n  0x03\n    /* \"Practical5-Tick-Tack-Toe-More-Jason.sol\":981:1244  uint[][] private winConditionSet=  ... */\n  0x01e0\n  dup2\n  dup2\n  mstore\n    /* \"Practical5-Tick-Tack-Toe-More-Jason.sol\":1044:1045  4 */\n  0x04\n    /* \"Practical5-Tick-Tack-Toe-More-Jason.sol\":981:1244  uint[][] private winConditionSet=  ... */\n  0x0200\n  dup2\n  swap1\n  mstore\n    /* \"Practical5-Tick-Tack-Toe-More-Jason.sol\":1047:1048  5 */\n  0x05\n    /* \"Practical5-Tick-Tack-Toe-More-Jason.sol\":981:1244  uint[][] private winConditionSet=  ... */\n  0x0220\n  dup2\n  swap1\n  mstore\n  0xa0\n  swap3\n  swap1\n  swap3\n  mstore\n    /* \"Practical5-Tick-Tack-Toe-More-Jason.sol\":1086:1087  6 */\n  0x06\n    /* \"Practical5-Tick-Tack-Toe-More-Jason.sol\":981:1244  uint[][] private winConditionSet=  ... */\n  0x0240\n  dup2\n  dup2\n  mstore\n    /* \"Practical5-Tick-Tack-Toe-More-Jason.sol\":1089:1090  7 */\n  0x07\n    /* \"Practical5-Tick-Tack-Toe-More-Jason.sol\":981:1244  uint[][] private winConditionSet=  ... */\n  0x0260\n  dup2\n  swap1\n  mstore\n    /* \"Practical5-Tick-Tack-Toe-More-Jason.sol\":1092:1093  8 */\n  0x08\n    /* \"Practical5-Tick-Tack-Toe-More-Jason.sol\":981:1244  uint[][] private winConditionSet=  ... */\n  0x0280\n  dup2\n  swap1\n  mstore\n  0xc0\n  swap3\n  swap1\n  swap3\n  mstore\n  0x02a0\n  dup11\n  dup2\n  mstore\n  0x02c0\n  swap7\n  swap1\n  swap7\n  mstore\n  0x02e0\n  dup4\n  swap1\n  mstore\n  0xe0\n  swap6\n  swap1\n  swap6\n  mstore\n  0x0300\n  dup8\n  dup2\n  mstore\n  0x0320\n  dup5\n  swap1\n  mstore\n  0x0340\n  swap6\n  swap1\n  swap6\n  mstore\n  0x0100\n  swap5\n  swap1\n  swap5\n  mstore\n  0x0360\n  dup6\n  dup2\n  mstore\n  0x0380\n  swap4\n  swap1\n  swap4\n  mstore\n  0x03a0\n  dup5\n  swap1\n  mstore\n  0x0120\n  swap3\n  swap1\n  swap3\n  mstore\n  0x03c0\n  swap7\n  dup8\n  mstore\n  0x03e0\n  dup2\n  swap1\n  mstore\n  0x0400\n  dup4\n  swap1\n  mstore\n  0x0140\n  swap7\n  swap1\n  swap7\n  mstore\n  0x0480\n    /* \"Practical5-Tick-Tack-Toe-More-Jason.sol\":60:10092  contract TickTackToe{... */\n  0x40\n    /* \"Practical5-Tick-Tack-Toe-More-Jason.sol\":981:1244  uint[][] private winConditionSet=  ... */\n  mstore\n  0x0420\n  swap3\n  dup4\n  mstore\n  0x0440\n  swap6\n  swap1\n  swap6\n  mstore\n  0x0460\n  swap5\n  swap1\n  swap5\n  mstore\n  0x0160\n  mstore\n  tag_1\n  swap3\n    /* \"Practical5-Tick-Tack-Toe-More-Jason.sol\":1027:1028  1 */\n  swap1\n  swap2\n    /* \"Practical5-Tick-Tack-Toe-More-Jason.sol\":60:10092  contract TickTackToe{... */\n  swap1\n    /* \"Practical5-Tick-Tack-Toe-More-Jason.sol\":981:1244  uint[][] private winConditionSet=  ... */\n  tag_2\n  jump\t// in\ntag_1:\n  pop\n    /* \"Practical5-Tick-Tack-Toe-More-Jason.sol\":60:10092  contract TickTackToe{... */\n  callvalue\n  dup1\n  iszero\n  tag_3\n  jumpi\n  0x00\n  dup1\n  revert\ntag_3:\n  pop\n  jump(tag_4)\ntag_2:\n  dup3\n  dup1\n  sload\n  dup3\n  dup3\n  sstore\n  swap1\n  0x00\n  mstore\n  keccak256(0x00, 0x20)\n  swap1\n  dup2\n  add\n  swap3\n  dup3\n  iszero\n  tag_7\n  jumpi\n  swap2\n  0x20\n  mul\n  dup3\n  add\ntag_6:\n  dup3\n  dup2\n  gt\n  iszero\n  tag_7\n  jumpi\n  dup3\n  mload\n  tag_8\n  swap1\n  dup4\n  swap1\n  0x03\n  tag_9\n  jump\t// in\ntag_8:\n  pop\n  swap2\n  0x20\n  add\n  swap2\n  swap1\n  0x01\n  add\n  swap1\n  jump(tag_6)\ntag_7:\n  pop\n  tag_10\n  swap3\n  swap2\n  pop\n  tag_11\n  jump\t// in\ntag_10:\n  pop\n  swap1\n  jump\t// out\ntag_9:\n  dup3\n  dup1\n  sload\n  dup3\n  dup3\n  sstore\n  swap1\n  0x00\n  mstore\n  keccak256(0x00, 0x20)\n  swap1\n  dup2\n  add\n  swap3\n  dup3\n  iszero\n  tag_14\n  jumpi\n  swap2\n  0x20\n  mul\n  dup3\n  add\ntag_13:\n  dup3\n  dup2\n  gt\n  iszero\n  tag_14\n  jumpi\n  dup3\n  mload\n  dup3\n  swap1\n  0xff\n  and\n  swap1\n  sstore\n  swap2\n  0x20\n  add\n  swap2\n  swap1\n  0x01\n  add\n  swap1\n  jump(tag_13)\ntag_14:\n  pop\n  tag_10\n  swap3\n  swap2\n  pop\n  tag_16\n  jump\t// in\ntag_11:\n  dup1\n  dup3\n  gt\n  iszero\n  tag_10\n  jumpi\n  0x00\n  tag_19\n  dup3\n  dup3\n  tag_20\n  jump\t// in\ntag_19:\n  pop\n  0x01\n  add\n  jump(tag_11)\ntag_16:\ntag_21:\n  dup1\n  dup3\n  gt\n  iszero\n  tag_10\n  jumpi\n  0x00\n  dup2\n  sstore\n  0x01\n  add\n  jump(tag_21)\ntag_20:\n  pop\n  dup1\n  sload\n  0x00\n  dup3\n  sstore\n  swap1\n  0x00\n  mstore\n  keccak256(0x00, 0x20)\n  swap1\n  dup2\n  add\n  swap1\n  tag_24\n  swap2\n  swap1\n  tag_16\n  jump\t// in\ntag_24:\n  pop\n  jump\t// out\ntag_4:\n  dataSize(sub_0)\n  dup1\n  dataOffset(sub_0)\n  0x00\n  codecopy\n  0x00\n  return\nstop\n\nsub_0: assembly {\n        /* \"Practical5-Tick-Tack-Toe-More-Jason.sol\":60:10092  contract TickTackToe{... */\n      mstore(0x40, 0x80)\n      callvalue\n      dup1\n      iszero\n      tag_1\n      jumpi\n      0x00\n      dup1\n      revert\n    tag_1:\n      pop\n      jumpi(tag_2, lt(calldatasize, 0x04))\n      shr(0xe0, calldataload(0x00))\n      dup1\n      0x87052fab\n      gt\n      tag_14\n      jumpi\n      dup1\n      0x87052fab\n      eq\n      tag_8\n      jumpi\n      dup1\n      0x97ca20bf\n      eq\n      tag_9\n      jumpi\n      dup1\n      0xb2182be4\n      eq\n      tag_10\n      jumpi\n      dup1\n      0xbed34bba\n      eq\n      tag_11\n      jumpi\n      dup1\n      0xdc572c6e\n      eq\n      tag_12\n      jumpi\n      dup1\n      0xefaa55a0\n      eq\n      tag_13\n      jumpi\n      0x00\n      dup1\n      revert\n    tag_14:\n      dup1\n      0x17b44960\n      eq\n      tag_3\n      jumpi\n      dup1\n      0x34fd3518\n      eq\n      tag_4\n      jumpi\n      dup1\n      0x491f0136\n      eq\n      tag_5\n      jumpi\n      dup1\n      0x4a968391\n      eq\n      tag_6\n      jumpi\n      dup1\n      0x52bc3410\n      eq\n      tag_7\n      jumpi\n    tag_2:\n      0x00\n      dup1\n      revert\n        /* \"Practical5-Tick-Tack-Toe-More-Jason.sol\":2136:2279  function getFinalWinOption (uint gameId) external view returns (uint[] memory){... */\n    tag_3:\n      tag_15\n      tag_16\n      calldatasize\n      0x04\n      tag_17\n      jump\t// in\n    tag_16:\n      tag_18\n      jump\t// in\n    tag_15:\n      mload(0x40)\n      tag_19\n      swap2\n      swap1\n      tag_20\n      jump\t// in\n    tag_19:\n      mload(0x40)\n      dup1\n      swap2\n      sub\n      swap1\n      return\n        /* \"Practical5-Tick-Tack-Toe-More-Jason.sol\":9169:9491  function validateRestartPlayer (uint gameId) public {... */\n    tag_4:\n      tag_21\n      tag_22\n      calldatasize\n      0x04\n      tag_17\n      jump\t// in\n    tag_22:\n      tag_23\n      jump\t// in\n    tag_21:\n      stop\n        /* \"Practical5-Tick-Tack-Toe-More-Jason.sol\":2429:2545  function getAllGameInformation () external view returns (GameInfo[] memory){... */\n    tag_5:\n      tag_24\n      tag_25\n      jump\t// in\n    tag_24:\n      mload(0x40)\n      tag_19\n      swap2\n      swap1\n      tag_27\n      jump\t// in\n        /* \"Practical5-Tick-Tack-Toe-More-Jason.sol\":9818:10087  function restartGame(uint gameId) public {... */\n    tag_6:\n      tag_21\n      tag_29\n      calldatasize\n      0x04\n      tag_17\n      jump\t// in\n    tag_29:\n      tag_30\n      jump\t// in\n        /* \"Practical5-Tick-Tack-Toe-More-Jason.sol\":4316:5306  function userInput(uint input, uint gameId) external {... */\n    tag_7:\n      tag_21\n      tag_32\n      calldatasize\n      0x04\n      tag_33\n      jump\t// in\n    tag_32:\n      tag_34\n      jump\t// in\n        /* \"Practical5-Tick-Tack-Toe-More-Jason.sol\":375:408  GameInfo[] public gameInformation */\n    tag_8:\n      tag_35\n      tag_36\n      calldatasize\n      0x04\n      tag_17\n      jump\t// in\n    tag_36:\n      tag_37\n      jump\t// in\n    tag_35:\n      mload(0x40)\n      tag_19\n      swap7\n      swap6\n      swap5\n      swap4\n      swap3\n      swap2\n      swap1\n      tag_39\n      jump\t// in\n        /* \"Practical5-Tick-Tack-Toe-More-Jason.sol\":2581:3159  function createGameRoom() external {... */\n    tag_9:\n      tag_21\n      tag_41\n      jump\t// in\n        /* \"Practical5-Tick-Tack-Toe-More-Jason.sol\":2287:2417  function getGameInformation (uint gameId) external view returns (GameInfo memory){... */\n    tag_10:\n      tag_42\n      tag_43\n      calldatasize\n      0x04\n      tag_17\n      jump\t// in\n    tag_43:\n      tag_44\n      jump\t// in\n    tag_42:\n      mload(0x40)\n      tag_19\n      swap2\n      swap1\n      tag_46\n      jump\t// in\n        /* \"Practical5-Tick-Tack-Toe-More-Jason.sol\":8910:9157  function compareStrings(string memory a, string memory b) public pure returns (bool) {... */\n    tag_11:\n      tag_47\n      tag_48\n      calldatasize\n      0x04\n      tag_49\n      jump\t// in\n    tag_48:\n      tag_50\n      jump\t// in\n    tag_47:\n      mload(0x40)\n        /* \"#utility.yul\":7264:7278   */\n      swap1\n      iszero\n        /* \"#utility.yul\":7257:7279   */\n      iszero\n        /* \"#utility.yul\":7239:7280   */\n      dup2\n      mstore\n        /* \"#utility.yul\":7227:7229   */\n      0x20\n        /* \"#utility.yul\":7212:7230   */\n      add\n        /* \"Practical5-Tick-Tack-Toe-More-Jason.sol\":8910:9157  function compareStrings(string memory a, string memory b) public pure returns (bool) {... */\n      tag_19\n        /* \"#utility.yul\":7099:7286   */\n      jump\n        /* \"Practical5-Tick-Tack-Toe-More-Jason.sol\":1955:2085  function getoption (uint gameId) external view returns (string[] memory){... */\n    tag_12:\n      tag_53\n      tag_54\n      calldatasize\n      0x04\n      tag_17\n      jump\t// in\n    tag_54:\n      tag_55\n      jump\t// in\n    tag_53:\n      mload(0x40)\n      tag_19\n      swap2\n      swap1\n      tag_57\n      jump\t// in\n        /* \"Practical5-Tick-Tack-Toe-More-Jason.sol\":3186:4210  function joinGame (uint gameId) external {... */\n    tag_13:\n      tag_21\n      tag_59\n      calldatasize\n      0x04\n      tag_17\n      jump\t// in\n    tag_59:\n      tag_60\n      jump\t// in\n        /* \"Practical5-Tick-Tack-Toe-More-Jason.sol\":2136:2279  function getFinalWinOption (uint gameId) external view returns (uint[] memory){... */\n    tag_18:\n        /* \"Practical5-Tick-Tack-Toe-More-Jason.sol\":2200:2213  uint[] memory */\n      0x60\n        /* \"Practical5-Tick-Tack-Toe-More-Jason.sol\":2232:2247  gameInformation */\n      0x00\n        /* \"Practical5-Tick-Tack-Toe-More-Jason.sol\":2248:2254  gameId */\n      dup3\n        /* \"Practical5-Tick-Tack-Toe-More-Jason.sol\":2232:2255  gameInformation[gameId] */\n      dup2\n      sload\n      dup2\n      lt\n      tag_63\n      jumpi\n      tag_63\n      tag_64\n      jump\t// in\n    tag_63:\n      swap1\n      0x00\n      mstore\n      keccak256(0x00, 0x20)\n      swap1\n      0x08\n      mul\n      add\n        /* \"Practical5-Tick-Tack-Toe-More-Jason.sol\":2232:2271  gameInformation[gameId]._finalWinOption */\n      0x03\n      add\n        /* \"Practical5-Tick-Tack-Toe-More-Jason.sol\":2225:2271  return gameInformation[gameId]._finalWinOption */\n      dup1\n      sload\n      dup1\n      0x20\n      mul\n      0x20\n      add\n      mload(0x40)\n      swap1\n      dup2\n      add\n      0x40\n      mstore\n      dup1\n      swap3\n      swap2\n      swap1\n      dup2\n      dup2\n      mstore\n      0x20\n      add\n      dup3\n      dup1\n      sload\n      dup1\n      iszero\n      tag_66\n      jumpi\n      0x20\n      mul\n      dup3\n      add\n      swap2\n      swap1\n      0x00\n      mstore\n      keccak256(0x00, 0x20)\n      swap1\n    tag_67:\n      dup2\n      sload\n      dup2\n      mstore\n      0x20\n      add\n      swap1\n      0x01\n      add\n      swap1\n      dup1\n      dup4\n      gt\n      tag_67\n      jumpi\n    tag_66:\n      pop\n      pop\n      pop\n      pop\n      pop\n      swap1\n      pop\n        /* \"Practical5-Tick-Tack-Toe-More-Jason.sol\":2136:2279  function getFinalWinOption (uint gameId) external view returns (uint[] memory){... */\n      swap2\n      swap1\n      pop\n      jump\t// out\n        /* \"Practical5-Tick-Tack-Toe-More-Jason.sol\":9169:9491  function validateRestartPlayer (uint gameId) public {... */\n    tag_23:\n        /* \"Practical5-Tick-Tack-Toe-More-Jason.sol\":9316:9336  checkAddress(gameId) */\n      tag_69\n        /* \"Practical5-Tick-Tack-Toe-More-Jason.sol\":9329:9335  gameId */\n      dup2\n        /* \"Practical5-Tick-Tack-Toe-More-Jason.sol\":9316:9328  checkAddress */\n      tag_70\n        /* \"Practical5-Tick-Tack-Toe-More-Jason.sol\":9316:9336  checkAddress(gameId) */\n      jump\t// in\n    tag_69:\n        /* \"Practical5-Tick-Tack-Toe-More-Jason.sol\":9308:9369  require(checkAddress(gameId), \"you are not this game player\") */\n      tag_71\n      jumpi\n      mload(0x40)\n      shl(0xe5, 0x461bcd)\n      dup2\n      mstore\n        /* \"#utility.yul\":8433:8435   */\n      0x20\n        /* \"Practical5-Tick-Tack-Toe-More-Jason.sol\":9308:9369  require(checkAddress(gameId), \"you are not this game player\") */\n      0x04\n      dup3\n      add\n        /* \"#utility.yul\":8415:8436   */\n      mstore\n        /* \"#utility.yul\":8472:8474   */\n      0x1c\n        /* \"#utility.yul\":8452:8470   */\n      0x24\n      dup3\n      add\n        /* \"#utility.yul\":8445:8475   */\n      mstore\n        /* \"#utility.yul\":8511:8541   */\n      0x796f7520617265206e6f7420746869732067616d6520706c6179657200000000\n        /* \"#utility.yul\":8491:8509   */\n      0x44\n      dup3\n      add\n        /* \"#utility.yul\":8484:8542   */\n      mstore\n        /* \"#utility.yul\":8559:8577   */\n      0x64\n      add\n        /* \"Practical5-Tick-Tack-Toe-More-Jason.sol\":9308:9369  require(checkAddress(gameId), \"you are not this game player\") */\n    tag_72:\n      mload(0x40)\n      dup1\n      swap2\n      sub\n      swap1\n      revert\n    tag_71:\n        /* \"Practical5-Tick-Tack-Toe-More-Jason.sol\":9388:9403  gameInformation */\n      0x00\n        /* \"Practical5-Tick-Tack-Toe-More-Jason.sol\":9404:9410  gameId */\n      dup2\n        /* \"Practical5-Tick-Tack-Toe-More-Jason.sol\":9388:9411  gameInformation[gameId] */\n      dup2\n      sload\n      dup2\n      lt\n      tag_75\n      jumpi\n      tag_75\n      tag_64\n      jump\t// in\n    tag_75:\n      0x00\n      swap2\n      dup3\n      mstore\n      0x20\n      swap1\n      swap2\n      keccak256\n      0x08\n      swap1\n      swap2\n      mul\n      add\n        /* \"Practical5-Tick-Tack-Toe-More-Jason.sol\":9388:9421  gameInformation[gameId]._activate */\n      sload\n      0xff\n      and\n        /* \"Practical5-Tick-Tack-Toe-More-Jason.sol\":9388:9430  gameInformation[gameId]._activate == false */\n      iszero\n        /* \"Practical5-Tick-Tack-Toe-More-Jason.sol\":9380:9453  require(gameInformation[gameId]._activate == false, \"Game still playing\") */\n      tag_77\n      jumpi\n      mload(0x40)\n      shl(0xe5, 0x461bcd)\n      dup2\n      mstore\n        /* \"#utility.yul\":8790:8792   */\n      0x20\n        /* \"Practical5-Tick-Tack-Toe-More-Jason.sol\":9380:9453  require(gameInformation[gameId]._activate == false, \"Game still playing\") */\n      0x04\n      dup3\n      add\n        /* \"#utility.yul\":8772:8793   */\n      mstore\n        /* \"#utility.yul\":8829:8831   */\n      0x12\n        /* \"#utility.yul\":8809:8827   */\n      0x24\n      dup3\n      add\n        /* \"#utility.yul\":8802:8832   */\n      mstore\n      shl(0x70, 0x47616d65207374696c6c20706c6179696e67)\n        /* \"#utility.yul\":8848:8866   */\n      0x44\n      dup3\n      add\n        /* \"#utility.yul\":8841:8889   */\n      mstore\n        /* \"#utility.yul\":8906:8924   */\n      0x64\n      add\n        /* \"Practical5-Tick-Tack-Toe-More-Jason.sol\":9380:9453  require(gameInformation[gameId]._activate == false, \"Game still playing\") */\n      tag_72\n        /* \"#utility.yul\":8588:8930   */\n      jump\n        /* \"Practical5-Tick-Tack-Toe-More-Jason.sol\":9380:9453  require(gameInformation[gameId]._activate == false, \"Game still playing\") */\n    tag_77:\n        /* \"Practical5-Tick-Tack-Toe-More-Jason.sol\":9464:9483  restartGame(gameId) */\n      tag_80\n        /* \"Practical5-Tick-Tack-Toe-More-Jason.sol\":9476:9482  gameId */\n      dup2\n        /* \"Practical5-Tick-Tack-Toe-More-Jason.sol\":9464:9475  restartGame */\n      tag_30\n        /* \"Practical5-Tick-Tack-Toe-More-Jason.sol\":9464:9483  restartGame(gameId) */\n      jump\t// in\n    tag_80:\n        /* \"Practical5-Tick-Tack-Toe-More-Jason.sol\":9169:9491  function validateRestartPlayer (uint gameId) public {... */\n      pop\n      jump\t// out\n        /* \"Practical5-Tick-Tack-Toe-More-Jason.sol\":2429:2545  function getAllGameInformation () external view returns (GameInfo[] memory){... */\n    tag_25:\n        /* \"Practical5-Tick-Tack-Toe-More-Jason.sol\":2486:2503  GameInfo[] memory */\n      0x60\n        /* \"Practical5-Tick-Tack-Toe-More-Jason.sol\":2522:2537  gameInformation */\n      0x00\n        /* \"Practical5-Tick-Tack-Toe-More-Jason.sol\":2515:2537  return gameInformation */\n      dup1\n      sload\n      dup1\n      0x20\n      mul\n      0x20\n      add\n      mload(0x40)\n      swap1\n      dup2\n      add\n      0x40\n      mstore\n      dup1\n      swap3\n      swap2\n      swap1\n      dup2\n      dup2\n      mstore\n      0x20\n      add\n      0x00\n      swap1\n    tag_82:\n      dup3\n      dup3\n      lt\n      iszero\n      tag_83\n      jumpi\n      0x00\n      dup5\n      dup2\n      mstore\n      0x20\n      swap1\n      dup2\n      swap1\n      keccak256\n      0x40\n      dup1\n      mload\n      0x0100\n      dup2\n      add\n      swap1\n      swap2\n      mstore\n      0x08\n      dup6\n      mul\n      swap1\n      swap2\n      add\n      dup1\n      sload\n      0xff\n      and\n      iszero\n      iszero\n      dup3\n      mstore\n      0x01\n      dup2\n      add\n      dup1\n      sload\n      swap3\n      swap4\n      swap2\n      swap3\n      swap2\n      dup5\n      add\n      swap2\n      tag_85\n      swap1\n      tag_86\n      jump\t// in\n    tag_85:\n      dup1\n      0x1f\n      add\n      0x20\n      dup1\n      swap2\n      div\n      mul\n      0x20\n      add\n      mload(0x40)\n      swap1\n      dup2\n      add\n      0x40\n      mstore\n      dup1\n      swap3\n      swap2\n      swap1\n      dup2\n      dup2\n      mstore\n      0x20\n      add\n      dup3\n      dup1\n      sload\n      tag_87\n      swap1\n      tag_86\n      jump\t// in\n    tag_87:\n      dup1\n      iszero\n      tag_88\n      jumpi\n      dup1\n      0x1f\n      lt\n      tag_89\n      jumpi\n      0x0100\n      dup1\n      dup4\n      sload\n      div\n      mul\n      dup4\n      mstore\n      swap2\n      0x20\n      add\n      swap2\n      jump(tag_88)\n    tag_89:\n      dup3\n      add\n      swap2\n      swap1\n      0x00\n      mstore\n      keccak256(0x00, 0x20)\n      swap1\n    tag_90:\n      dup2\n      sload\n      dup2\n      mstore\n      swap1\n      0x01\n      add\n      swap1\n      0x20\n      add\n      dup1\n      dup4\n      gt\n      tag_90\n      jumpi\n      dup3\n      swap1\n      sub\n      0x1f\n      and\n      dup3\n      add\n      swap2\n    tag_88:\n      pop\n      pop\n      pop\n      pop\n      pop\n      dup2\n      mstore\n      0x20\n      add\n      0x02\n      dup3\n      add\n      dup1\n      sload\n      dup1\n      0x20\n      mul\n      0x20\n      add\n      mload(0x40)\n      swap1\n      dup2\n      add\n      0x40\n      mstore\n      dup1\n      swap3\n      swap2\n      swap1\n      dup2\n      dup2\n      mstore\n      0x20\n      add\n      0x00\n      swap1\n    tag_91:\n      dup3\n      dup3\n      lt\n      iszero\n      tag_92\n      jumpi\n      dup4\n      dup3\n      swap1\n      0x00\n      mstore\n      keccak256(0x00, 0x20)\n      add\n      dup1\n      sload\n      tag_94\n      swap1\n      tag_86\n      jump\t// in\n    tag_94:\n      dup1\n      0x1f\n      add\n      0x20\n      dup1\n      swap2\n      div\n      mul\n      0x20\n      add\n      mload(0x40)\n      swap1\n      dup2\n      add\n      0x40\n      mstore\n      dup1\n      swap3\n      swap2\n      swap1\n      dup2\n      dup2\n      mstore\n      0x20\n      add\n      dup3\n      dup1\n      sload\n      tag_95\n      swap1\n      tag_86\n      jump\t// in\n    tag_95:\n      dup1\n      iszero\n      tag_96\n      jumpi\n      dup1\n      0x1f\n      lt\n      tag_97\n      jumpi\n      0x0100\n      dup1\n      dup4\n      sload\n      div\n      mul\n      dup4\n      mstore\n      swap2\n      0x20\n      add\n      swap2\n      jump(tag_96)\n    tag_97:\n      dup3\n      add\n      swap2\n      swap1\n      0x00\n      mstore\n      keccak256(0x00, 0x20)\n      swap1\n    tag_98:\n      dup2\n      sload\n      dup2\n      mstore\n      swap1\n      0x01\n      add\n      swap1\n      0x20\n      add\n      dup1\n      dup4\n      gt\n      tag_98\n      jumpi\n      dup3\n      swap1\n      sub\n      0x1f\n      and\n      dup3\n      add\n      swap2\n    tag_96:\n      pop\n      pop\n      pop\n      pop\n      pop\n      dup2\n      mstore\n      0x20\n      add\n      swap1\n      0x01\n      add\n      swap1\n      jump(tag_91)\n    tag_92:\n      pop\n      pop\n      pop\n      pop\n      dup2\n      mstore\n      0x20\n      add\n      0x03\n      dup3\n      add\n      dup1\n      sload\n      dup1\n      0x20\n      mul\n      0x20\n      add\n      mload(0x40)\n      swap1\n      dup2\n      add\n      0x40\n      mstore\n      dup1\n      swap3\n      swap2\n      swap1\n      dup2\n      dup2\n      mstore\n      0x20\n      add\n      dup3\n      dup1\n      sload\n      dup1\n      iszero\n      tag_99\n      jumpi\n      0x20\n      mul\n      dup3\n      add\n      swap2\n      swap1\n      0x00\n      mstore\n      keccak256(0x00, 0x20)\n      swap1\n    tag_100:\n      dup2\n      sload\n      dup2\n      mstore\n      0x20\n      add\n      swap1\n      0x01\n      add\n      swap1\n      dup1\n      dup4\n      gt\n      tag_100\n      jumpi\n    tag_99:\n      pop\n      pop\n      pop\n      swap2\n      dup4\n      mstore\n      pop\n      pop\n      0x04\n      dup3\n      add\n      sload\n      sub(shl(0xa0, 0x01), 0x01)\n      swap1\n      dup2\n      and\n      0x20\n      dup1\n      dup5\n      add\n      swap2\n      swap1\n      swap2\n      mstore\n      0x05\n      dup5\n      add\n      sload\n      dup3\n      and\n      0x40\n      dup5\n      add\n      mstore\n      0x06\n      dup5\n      add\n      sload\n      0x60\n      dup5\n      add\n      mstore\n      0x07\n      swap1\n      swap4\n      add\n      sload\n      and\n      0x80\n      swap1\n      swap2\n      add\n      mstore\n      swap1\n      dup3\n      mstore\n      0x01\n      swap3\n      swap1\n      swap3\n      add\n      swap2\n      add\n      jump(tag_82)\n    tag_83:\n      pop\n      pop\n      pop\n      pop\n      swap1\n      pop\n        /* \"Practical5-Tick-Tack-Toe-More-Jason.sol\":2429:2545  function getAllGameInformation () external view returns (GameInfo[] memory){... */\n      swap1\n      jump\t// out\n        /* \"Practical5-Tick-Tack-Toe-More-Jason.sol\":9818:10087  function restartGame(uint gameId) public {... */\n    tag_30:\n        /* \"Practical5-Tick-Tack-Toe-More-Jason.sol\":9870:9914  gameInformation[gameId]._currentPlayer = \"X\" */\n      mload(0x40)\n      dup1\n      0x40\n      add\n      0x40\n      mstore\n      dup1\n      0x01\n      dup2\n      mstore\n      0x20\n      add\n      shl(0xfb, 0x0b)\n      dup2\n      mstore\n      pop\n        /* \"Practical5-Tick-Tack-Toe-More-Jason.sol\":9870:9885  gameInformation */\n      0x00\n        /* \"Practical5-Tick-Tack-Toe-More-Jason.sol\":9886:9892  gameId */\n      dup3\n        /* \"Practical5-Tick-Tack-Toe-More-Jason.sol\":9870:9893  gameInformation[gameId] */\n      dup2\n      sload\n      dup2\n      lt\n      tag_103\n      jumpi\n      tag_103\n      tag_64\n      jump\t// in\n    tag_103:\n      swap1\n      0x00\n      mstore\n      keccak256(0x00, 0x20)\n      swap1\n      0x08\n      mul\n      add\n        /* \"Practical5-Tick-Tack-Toe-More-Jason.sol\":9870:9908  gameInformation[gameId]._currentPlayer */\n      0x01\n      add\n        /* \"Practical5-Tick-Tack-Toe-More-Jason.sol\":9870:9914  gameInformation[gameId]._currentPlayer = \"X\" */\n      swap1\n      dup2\n      tag_105\n      swap2\n      swap1\n      tag_106\n      jump\t// in\n    tag_105:\n      pop\n        /* \"Practical5-Tick-Tack-Toe-More-Jason.sol\":9925:9996  gameInformation[gameId]._options = [\"\", \"\", \"\", \"\", \"\", \"\", \"\", \"\", \"\"] */\n      0x40\n      dup1\n      mload\n      0x0140\n      dup2\n      add\n      dup3\n      mstore\n      0x00\n      0x0120\n      dup3\n      add\n      dup2\n      dup2\n      mstore\n      dup3\n      mstore\n      dup3\n      mload\n      0x20\n      dup2\n      dup2\n      add\n      dup6\n      mstore\n      dup3\n      dup3\n      mstore\n      dup1\n      dup5\n      add\n      swap2\n      swap1\n      swap2\n      mstore\n      dup4\n      mload\n      dup1\n      dup3\n      add\n      dup6\n      mstore\n      dup3\n      dup2\n      mstore\n      dup4\n      dup6\n      add\n      mstore\n      dup4\n      mload\n      dup1\n      dup3\n      add\n      dup6\n      mstore\n      dup3\n      dup2\n      mstore\n      0x60\n      dup5\n      add\n      mstore\n      dup4\n      mload\n      dup1\n      dup3\n      add\n      dup6\n      mstore\n      dup3\n      dup2\n      mstore\n      0x80\n      dup5\n      add\n      mstore\n      dup4\n      mload\n      dup1\n      dup3\n      add\n      dup6\n      mstore\n      dup3\n      dup2\n      mstore\n      0xa0\n      dup5\n      add\n      mstore\n      dup4\n      mload\n      dup1\n      dup3\n      add\n      dup6\n      mstore\n      dup3\n      dup2\n      mstore\n      0xc0\n      dup5\n      add\n      mstore\n      dup4\n      mload\n      dup1\n      dup3\n      add\n      dup6\n      mstore\n      dup3\n      dup2\n      mstore\n      0xe0\n      dup5\n      add\n      mstore\n      dup4\n      mload\n      swap1\n      dup2\n      add\n      swap1\n      swap4\n      mstore\n      dup1\n      dup4\n      mstore\n      0x0100\n      dup3\n      add\n      swap3\n      swap1\n      swap3\n      mstore\n        /* \"Practical5-Tick-Tack-Toe-More-Jason.sol\":9925:9948  gameInformation[gameId] */\n      dup2\n      sload\n        /* \"Practical5-Tick-Tack-Toe-More-Jason.sol\":9925:9996  gameInformation[gameId]._options = [\"\", \"\", \"\", \"\", \"\", \"\", \"\", \"\", \"\"] */\n      swap1\n      swap2\n      swap1\n        /* \"Practical5-Tick-Tack-Toe-More-Jason.sol\":9941:9947  gameId */\n      dup4\n      swap1\n        /* \"Practical5-Tick-Tack-Toe-More-Jason.sol\":9925:9948  gameInformation[gameId] */\n      dup2\n      lt\n      tag_108\n      jumpi\n      tag_108\n      tag_64\n      jump\t// in\n    tag_108:\n      swap1\n      0x00\n      mstore\n      keccak256(0x00, 0x20)\n      swap1\n      0x08\n      mul\n      add\n        /* \"Practical5-Tick-Tack-Toe-More-Jason.sol\":9925:9957  gameInformation[gameId]._options */\n      0x02\n      add\n        /* \"Practical5-Tick-Tack-Toe-More-Jason.sol\":9925:9996  gameInformation[gameId]._options = [\"\", \"\", \"\", \"\", \"\", \"\", \"\", \"\", \"\"] */\n      swap1\n      0x09\n      tag_110\n      swap3\n      swap2\n      swap1\n      tag_111\n      jump\t// in\n    tag_110:\n      pop\n        /* \"Practical5-Tick-Tack-Toe-More-Jason.sol\":10044:10048  true */\n      0x01\n        /* \"Practical5-Tick-Tack-Toe-More-Jason.sol\":10008:10023  gameInformation */\n      0x00\n        /* \"Practical5-Tick-Tack-Toe-More-Jason.sol\":10024:10030  gameId */\n      dup3\n        /* \"Practical5-Tick-Tack-Toe-More-Jason.sol\":10008:10031  gameInformation[gameId] */\n      dup2\n      sload\n      dup2\n      lt\n      tag_113\n      jumpi\n      tag_113\n      tag_64\n      jump\t// in\n    tag_113:\n      0x00\n      swap2\n      dup3\n      mstore\n      0x20\n      swap2\n      dup3\n      swap1\n      keccak256\n      0x08\n      swap1\n      swap2\n      mul\n      add\n        /* \"Practical5-Tick-Tack-Toe-More-Jason.sol\":10008:10048  gameInformation[gameId]._activate = true */\n      dup1\n      sload\n      not(0xff)\n      and\n      swap3\n      iszero\n      iszero\n      swap3\n      swap1\n      swap3\n      or\n      swap1\n      swap2\n      sstore\n        /* \"Practical5-Tick-Tack-Toe-More-Jason.sol\":10064:10079  resetUI(gameId) */\n      mload(0x40)\n        /* \"#utility.yul\":11670:11695   */\n      dup3\n      dup2\n      mstore\n        /* \"Practical5-Tick-Tack-Toe-More-Jason.sol\":10064:10079  resetUI(gameId) */\n      0xc5478e3fe602c65e5cdd37abe42a8e007ff762d266b9e8256769194c1fa1361e\n      swap2\n        /* \"#utility.yul\":11643:11661   */\n      add\n        /* \"Practical5-Tick-Tack-Toe-More-Jason.sol\":10064:10079  resetUI(gameId) */\n    tag_115:\n      mload(0x40)\n      dup1\n      swap2\n      sub\n      swap1\n      log1\n        /* \"Practical5-Tick-Tack-Toe-More-Jason.sol\":9818:10087  function restartGame(uint gameId) public {... */\n      pop\n      jump\t// out\n        /* \"Practical5-Tick-Tack-Toe-More-Jason.sol\":4316:5306  function userInput(uint input, uint gameId) external {... */\n    tag_34:\n        /* \"Practical5-Tick-Tack-Toe-More-Jason.sol\":4388:4403  gameInformation */\n      0x00\n        /* \"Practical5-Tick-Tack-Toe-More-Jason.sol\":4404:4410  gameId */\n      dup2\n        /* \"Practical5-Tick-Tack-Toe-More-Jason.sol\":4388:4411  gameInformation[gameId] */\n      dup2\n      sload\n      dup2\n      lt\n      tag_119\n      jumpi\n      tag_119\n      tag_64\n      jump\t// in\n    tag_119:\n      0x00\n      swap2\n      dup3\n      mstore\n      0x20\n      swap1\n      swap2\n      keccak256\n      0x08\n      swap1\n      swap2\n      mul\n      add\n        /* \"Practical5-Tick-Tack-Toe-More-Jason.sol\":4388:4421  gameInformation[gameId]._activate */\n      sload\n      0xff\n      and\n        /* \"Practical5-Tick-Tack-Toe-More-Jason.sol\":4380:4453  require(gameInformation[gameId]._activate,\"The game still not start yet\") */\n      tag_121\n      jumpi\n      mload(0x40)\n      shl(0xe5, 0x461bcd)\n      dup2\n      mstore\n        /* \"#utility.yul\":11908:11910   */\n      0x20\n        /* \"Practical5-Tick-Tack-Toe-More-Jason.sol\":4380:4453  require(gameInformation[gameId]._activate,\"The game still not start yet\") */\n      0x04\n      dup3\n      add\n        /* \"#utility.yul\":11890:11911   */\n      mstore\n        /* \"#utility.yul\":11947:11949   */\n      0x1c\n        /* \"#utility.yul\":11927:11945   */\n      0x24\n      dup3\n      add\n        /* \"#utility.yul\":11920:11950   */\n      mstore\n        /* \"#utility.yul\":11986:12016   */\n      0x5468652067616d65207374696c6c206e6f742073746172742079657400000000\n        /* \"#utility.yul\":11966:11984   */\n      0x44\n      dup3\n      add\n        /* \"#utility.yul\":11959:12017   */\n      mstore\n        /* \"#utility.yul\":12034:12052   */\n      0x64\n      add\n        /* \"Practical5-Tick-Tack-Toe-More-Jason.sol\":4380:4453  require(gameInformation[gameId]._activate,\"The game still not start yet\") */\n      tag_72\n        /* \"#utility.yul\":11706:12058   */\n      jump\n        /* \"Practical5-Tick-Tack-Toe-More-Jason.sol\":4380:4453  require(gameInformation[gameId]._activate,\"The game still not start yet\") */\n    tag_121:\n        /* \"Practical5-Tick-Tack-Toe-More-Jason.sol\":4509:4567  compareStrings(gameInformation[gameId]._options[input],\"\") */\n      tag_124\n        /* \"Practical5-Tick-Tack-Toe-More-Jason.sol\":4524:4539  gameInformation */\n      0x00\n        /* \"Practical5-Tick-Tack-Toe-More-Jason.sol\":4540:4546  gameId */\n      dup3\n        /* \"Practical5-Tick-Tack-Toe-More-Jason.sol\":4524:4547  gameInformation[gameId] */\n      dup2\n      sload\n      dup2\n      lt\n      tag_126\n      jumpi\n      tag_126\n      tag_64\n      jump\t// in\n    tag_126:\n      swap1\n      0x00\n      mstore\n      keccak256(0x00, 0x20)\n      swap1\n      0x08\n      mul\n      add\n        /* \"Practical5-Tick-Tack-Toe-More-Jason.sol\":4524:4556  gameInformation[gameId]._options */\n      0x02\n      add\n        /* \"Practical5-Tick-Tack-Toe-More-Jason.sol\":4557:4562  input */\n      dup4\n        /* \"Practical5-Tick-Tack-Toe-More-Jason.sol\":4524:4563  gameInformation[gameId]._options[input] */\n      dup2\n      sload\n      dup2\n      lt\n      tag_129\n      jumpi\n      tag_129\n      tag_64\n      jump\t// in\n    tag_129:\n      swap1\n      0x00\n      mstore\n      keccak256(0x00, 0x20)\n      add\n        /* \"Practical5-Tick-Tack-Toe-More-Jason.sol\":4509:4567  compareStrings(gameInformation[gameId]._options[input],\"\") */\n      dup1\n      sload\n      tag_131\n      swap1\n      tag_86\n      jump\t// in\n    tag_131:\n      dup1\n      0x1f\n      add\n      0x20\n      dup1\n      swap2\n      div\n      mul\n      0x20\n      add\n      mload(0x40)\n      swap1\n      dup2\n      add\n      0x40\n      mstore\n      dup1\n      swap3\n      swap2\n      swap1\n      dup2\n      dup2\n      mstore\n      0x20\n      add\n      dup3\n      dup1\n      sload\n      tag_132\n      swap1\n      tag_86\n      jump\t// in\n    tag_132:\n      dup1\n      iszero\n      tag_133\n      jumpi\n      dup1\n      0x1f\n      lt\n      tag_134\n      jumpi\n      0x0100\n      dup1\n      dup4\n      sload\n      div\n      mul\n      dup4\n      mstore\n      swap2\n      0x20\n      add\n      swap2\n      jump(tag_133)\n    tag_134:\n      dup3\n      add\n      swap2\n      swap1\n      0x00\n      mstore\n      keccak256(0x00, 0x20)\n      swap1\n    tag_135:\n      dup2\n      sload\n      dup2\n      mstore\n      swap1\n      0x01\n      add\n      swap1\n      0x20\n      add\n      dup1\n      dup4\n      gt\n      tag_135\n      jumpi\n      dup3\n      swap1\n      sub\n      0x1f\n      and\n      dup3\n      add\n      swap2\n    tag_133:\n      pop\n      pop\n      pop\n      pop\n      pop\n      mload(0x40)\n      dup1\n      0x20\n      add\n      0x40\n      mstore\n      dup1\n      0x00\n      dup2\n      mstore\n      pop\n        /* \"Practical5-Tick-Tack-Toe-More-Jason.sol\":4509:4523  compareStrings */\n      tag_50\n        /* \"Practical5-Tick-Tack-Toe-More-Jason.sol\":4509:4567  compareStrings(gameInformation[gameId]._options[input],\"\") */\n      jump\t// in\n    tag_124:\n        /* \"Practical5-Tick-Tack-Toe-More-Jason.sol\":4501:4584  require(compareStrings(gameInformation[gameId]._options[input],\"\"),\"Invalid input\") */\n      tag_136\n      jumpi\n      mload(0x40)\n      shl(0xe5, 0x461bcd)\n      dup2\n      mstore\n        /* \"#utility.yul\":12265:12267   */\n      0x20\n        /* \"Practical5-Tick-Tack-Toe-More-Jason.sol\":4501:4584  require(compareStrings(gameInformation[gameId]._options[input],\"\"),\"Invalid input\") */\n      0x04\n      dup3\n      add\n        /* \"#utility.yul\":12247:12268   */\n      mstore\n        /* \"#utility.yul\":12304:12306   */\n      0x0d\n        /* \"#utility.yul\":12284:12302   */\n      0x24\n      dup3\n      add\n        /* \"#utility.yul\":12277:12307   */\n      mstore\n      shl(0x9a, 0x125b9d985b1a59081a5b9c1d5d)\n        /* \"#utility.yul\":12323:12341   */\n      0x44\n      dup3\n      add\n        /* \"#utility.yul\":12316:12359   */\n      mstore\n        /* \"#utility.yul\":12376:12394   */\n      0x64\n      add\n        /* \"Practical5-Tick-Tack-Toe-More-Jason.sol\":4501:4584  require(compareStrings(gameInformation[gameId]._options[input],\"\"),\"Invalid input\") */\n      tag_72\n        /* \"#utility.yul\":12063:12400   */\n      jump\n        /* \"Practical5-Tick-Tack-Toe-More-Jason.sol\":4501:4584  require(compareStrings(gameInformation[gameId]._options[input],\"\"),\"Invalid input\") */\n    tag_136:\n        /* \"Practical5-Tick-Tack-Toe-More-Jason.sol\":4647:4706  compareStrings(gameInformation[gameId]._currentPlayer, \"X\") */\n      tag_139\n        /* \"Practical5-Tick-Tack-Toe-More-Jason.sol\":4662:4677  gameInformation */\n      0x00\n        /* \"Practical5-Tick-Tack-Toe-More-Jason.sol\":4678:4684  gameId */\n      dup3\n        /* \"Practical5-Tick-Tack-Toe-More-Jason.sol\":4662:4685  gameInformation[gameId] */\n      dup2\n      sload\n      dup2\n      lt\n      tag_141\n      jumpi\n      tag_141\n      tag_64\n      jump\t// in\n    tag_141:\n      swap1\n      0x00\n      mstore\n      keccak256(0x00, 0x20)\n      swap1\n      0x08\n      mul\n      add\n        /* \"Practical5-Tick-Tack-Toe-More-Jason.sol\":4662:4700  gameInformation[gameId]._currentPlayer */\n      0x01\n      add\n        /* \"Practical5-Tick-Tack-Toe-More-Jason.sol\":4647:4706  compareStrings(gameInformation[gameId]._currentPlayer, \"X\") */\n      dup1\n      sload\n      tag_143\n      swap1\n      tag_86\n      jump\t// in\n    tag_143:\n      dup1\n      0x1f\n      add\n      0x20\n      dup1\n      swap2\n      div\n      mul\n      0x20\n      add\n      mload(0x40)\n      swap1\n      dup2\n      add\n      0x40\n      mstore\n      dup1\n      swap3\n      swap2\n      swap1\n      dup2\n      dup2\n      mstore\n      0x20\n      add\n      dup3\n      dup1\n      sload\n      tag_144\n      swap1\n      tag_86\n      jump\t// in\n    tag_144:\n      dup1\n      iszero\n      tag_145\n      jumpi\n      dup1\n      0x1f\n      lt\n      tag_146\n      jumpi\n      0x0100\n      dup1\n      dup4\n      sload\n      div\n      mul\n      dup4\n      mstore\n      swap2\n      0x20\n      add\n      swap2\n      jump(tag_145)\n    tag_146:\n      dup3\n      add\n      swap2\n      swap1\n      0x00\n      mstore\n      keccak256(0x00, 0x20)\n      swap1\n    tag_147:\n      dup2\n      sload\n      dup2\n      mstore\n      swap1\n      0x01\n      add\n      swap1\n      0x20\n      add\n      dup1\n      dup4\n      gt\n      tag_147\n      jumpi\n      dup3\n      swap1\n      sub\n      0x1f\n      and\n      dup3\n      add\n      swap2\n    tag_145:\n      pop\n      pop\n      pop\n      pop\n      pop\n      mload(0x40)\n      dup1\n      0x40\n      add\n      0x40\n      mstore\n      dup1\n      0x01\n      dup2\n      mstore\n      0x20\n      add\n      shl(0xfb, 0x0b)\n      dup2\n      mstore\n      pop\n        /* \"Practical5-Tick-Tack-Toe-More-Jason.sol\":4647:4661  compareStrings */\n      tag_50\n        /* \"Practical5-Tick-Tack-Toe-More-Jason.sol\":4647:4706  compareStrings(gameInformation[gameId]._currentPlayer, \"X\") */\n      jump\t// in\n    tag_139:\n        /* \"Practical5-Tick-Tack-Toe-More-Jason.sol\":4644:4935  if(compareStrings(gameInformation[gameId]._currentPlayer, \"X\")){... */\n      iszero\n      tag_148\n      jumpi\n        /* \"Practical5-Tick-Tack-Toe-More-Jason.sol\":4744:4759  gameInformation */\n      0x00\n        /* \"Practical5-Tick-Tack-Toe-More-Jason.sol\":4760:4766  gameId */\n      dup2\n        /* \"Practical5-Tick-Tack-Toe-More-Jason.sol\":4744:4767  gameInformation[gameId] */\n      dup2\n      sload\n      dup2\n      lt\n      tag_150\n      jumpi\n      tag_150\n      tag_64\n      jump\t// in\n    tag_150:\n      0x00\n      swap2\n      dup3\n      mstore\n      0x20\n      swap1\n      swap2\n      keccak256\n      0x08\n      swap1\n      swap2\n      mul\n      add\n        /* \"Practical5-Tick-Tack-Toe-More-Jason.sol\":4744:4783  gameInformation[gameId]._player1address */\n      0x04\n      add\n      sload\n      sub(shl(0xa0, 0x01), 0x01)\n      and\n        /* \"Practical5-Tick-Tack-Toe-More-Jason.sol\":4730:4740  msg.sender */\n      caller\n        /* \"Practical5-Tick-Tack-Toe-More-Jason.sol\":4730:4783  msg.sender == gameInformation[gameId]._player1address */\n      eq\n        /* \"Practical5-Tick-Tack-Toe-More-Jason.sol\":4722:4807  require(msg.sender == gameInformation[gameId]._player1address,\"You are not player 1\") */\n      tag_152\n      jumpi\n      mload(0x40)\n      shl(0xe5, 0x461bcd)\n      dup2\n      mstore\n        /* \"#utility.yul\":12607:12609   */\n      0x20\n        /* \"Practical5-Tick-Tack-Toe-More-Jason.sol\":4722:4807  require(msg.sender == gameInformation[gameId]._player1address,\"You are not player 1\") */\n      0x04\n      dup3\n      add\n        /* \"#utility.yul\":12589:12610   */\n      mstore\n        /* \"#utility.yul\":12646:12648   */\n      0x14\n        /* \"#utility.yul\":12626:12644   */\n      0x24\n      dup3\n      add\n        /* \"#utility.yul\":12619:12649   */\n      mstore\n      shl(0x60, 0x596f7520617265206e6f7420706c617965722031)\n        /* \"#utility.yul\":12665:12683   */\n      0x44\n      dup3\n      add\n        /* \"#utility.yul\":12658:12708   */\n      mstore\n        /* \"#utility.yul\":12725:12743   */\n      0x64\n      add\n        /* \"Practical5-Tick-Tack-Toe-More-Jason.sol\":4722:4807  require(msg.sender == gameInformation[gameId]._player1address,\"You are not player 1\") */\n      tag_72\n        /* \"#utility.yul\":12405:12749   */\n      jump\n        /* \"Practical5-Tick-Tack-Toe-More-Jason.sol\":4722:4807  require(msg.sender == gameInformation[gameId]._player1address,\"You are not player 1\") */\n    tag_152:\n        /* \"Practical5-Tick-Tack-Toe-More-Jason.sol\":4644:4935  if(compareStrings(gameInformation[gameId]._currentPlayer, \"X\")){... */\n      jump(tag_159)\n    tag_148:\n        /* \"Practical5-Tick-Tack-Toe-More-Jason.sol\":4860:4875  gameInformation */\n      0x00\n        /* \"Practical5-Tick-Tack-Toe-More-Jason.sol\":4876:4882  gameId */\n      dup2\n        /* \"Practical5-Tick-Tack-Toe-More-Jason.sol\":4860:4883  gameInformation[gameId] */\n      dup2\n      sload\n      dup2\n      lt\n      tag_157\n      jumpi\n      tag_157\n      tag_64\n      jump\t// in\n    tag_157:\n      0x00\n      swap2\n      dup3\n      mstore\n      0x20\n      swap1\n      swap2\n      keccak256\n      0x08\n      swap1\n      swap2\n      mul\n      add\n        /* \"Practical5-Tick-Tack-Toe-More-Jason.sol\":4860:4899  gameInformation[gameId]._player2address */\n      0x05\n      add\n      sload\n      sub(shl(0xa0, 0x01), 0x01)\n      and\n        /* \"Practical5-Tick-Tack-Toe-More-Jason.sol\":4846:4856  msg.sender */\n      caller\n        /* \"Practical5-Tick-Tack-Toe-More-Jason.sol\":4846:4899  msg.sender == gameInformation[gameId]._player2address */\n      eq\n        /* \"Practical5-Tick-Tack-Toe-More-Jason.sol\":4838:4923  require(msg.sender == gameInformation[gameId]._player2address,\"You are not player 2\") */\n      tag_159\n      jumpi\n      mload(0x40)\n      shl(0xe5, 0x461bcd)\n      dup2\n      mstore\n        /* \"#utility.yul\":12956:12958   */\n      0x20\n        /* \"Practical5-Tick-Tack-Toe-More-Jason.sol\":4838:4923  require(msg.sender == gameInformation[gameId]._player2address,\"You are not player 2\") */\n      0x04\n      dup3\n      add\n        /* \"#utility.yul\":12938:12959   */\n      mstore\n        /* \"#utility.yul\":12995:12997   */\n      0x14\n        /* \"#utility.yul\":12975:12993   */\n      0x24\n      dup3\n      add\n        /* \"#utility.yul\":12968:12998   */\n      mstore\n      shl(0x61, 0x2cb7ba9030b932903737ba10383630bcb2b91019)\n        /* \"#utility.yul\":13014:13032   */\n      0x44\n      dup3\n      add\n        /* \"#utility.yul\":13007:13057   */\n      mstore\n        /* \"#utility.yul\":13074:13092   */\n      0x64\n      add\n        /* \"Practical5-Tick-Tack-Toe-More-Jason.sol\":4838:4923  require(msg.sender == gameInformation[gameId]._player2address,\"You are not player 2\") */\n      tag_72\n        /* \"#utility.yul\":12754:13098   */\n      jump\n        /* \"Practical5-Tick-Tack-Toe-More-Jason.sol\":4838:4923  require(msg.sender == gameInformation[gameId]._player2address,\"You are not player 2\") */\n    tag_159:\n        /* \"Practical5-Tick-Tack-Toe-More-Jason.sol\":4997:5012  gameInformation */\n      0x00\n        /* \"Practical5-Tick-Tack-Toe-More-Jason.sol\":5013:5019  gameId */\n      dup2\n        /* \"Practical5-Tick-Tack-Toe-More-Jason.sol\":4997:5020  gameInformation[gameId] */\n      dup2\n      sload\n      dup2\n      lt\n      tag_163\n      jumpi\n      tag_163\n      tag_64\n      jump\t// in\n    tag_163:\n      swap1\n      0x00\n      mstore\n      keccak256(0x00, 0x20)\n      swap1\n      0x08\n      mul\n      add\n        /* \"Practical5-Tick-Tack-Toe-More-Jason.sol\":4997:5035  gameInformation[gameId]._currentPlayer */\n      0x01\n      add\n        /* \"Practical5-Tick-Tack-Toe-More-Jason.sol\":4955:4970  gameInformation */\n      0x00\n        /* \"Practical5-Tick-Tack-Toe-More-Jason.sol\":4971:4977  gameId */\n      dup3\n        /* \"Practical5-Tick-Tack-Toe-More-Jason.sol\":4955:4978  gameInformation[gameId] */\n      dup2\n      sload\n      dup2\n      lt\n      tag_166\n      jumpi\n      tag_166\n      tag_64\n      jump\t// in\n    tag_166:\n      swap1\n      0x00\n      mstore\n      keccak256(0x00, 0x20)\n      swap1\n      0x08\n      mul\n      add\n        /* \"Practical5-Tick-Tack-Toe-More-Jason.sol\":4955:4987  gameInformation[gameId]._options */\n      0x02\n      add\n        /* \"Practical5-Tick-Tack-Toe-More-Jason.sol\":4988:4993  input */\n      dup4\n        /* \"Practical5-Tick-Tack-Toe-More-Jason.sol\":4955:4994  gameInformation[gameId]._options[input] */\n      dup2\n      sload\n      dup2\n      lt\n      tag_169\n      jumpi\n      tag_169\n      tag_64\n      jump\t// in\n    tag_169:\n      swap1\n      0x00\n      mstore\n      keccak256(0x00, 0x20)\n      add\n        /* \"Practical5-Tick-Tack-Toe-More-Jason.sol\":4955:5035  gameInformation[gameId]._options[input] = gameInformation[gameId]._currentPlayer */\n      swap1\n      dup2\n      tag_171\n      swap2\n      swap1\n      tag_172\n      jump\t// in\n    tag_171:\n      pop\n        /* \"Practical5-Tick-Tack-Toe-More-Jason.sol\":5097:5147  updateUI(gameInformation[gameId]._options, gameId) */\n      0x9659242f3970136bf08cba261398ae9f0bc58a676137d79d3c2040dcdacbc18b\n        /* \"Practical5-Tick-Tack-Toe-More-Jason.sol\":5106:5121  gameInformation */\n      0x00\n        /* \"Practical5-Tick-Tack-Toe-More-Jason.sol\":5122:5128  gameId */\n      dup3\n        /* \"Practical5-Tick-Tack-Toe-More-Jason.sol\":5106:5129  gameInformation[gameId] */\n      dup2\n      sload\n      dup2\n      lt\n      tag_174\n      jumpi\n      tag_174\n      tag_64\n      jump\t// in\n    tag_174:\n      swap1\n      0x00\n      mstore\n      keccak256(0x00, 0x20)\n      swap1\n      0x08\n      mul\n      add\n        /* \"Practical5-Tick-Tack-Toe-More-Jason.sol\":5106:5138  gameInformation[gameId]._options */\n      0x02\n      add\n        /* \"Practical5-Tick-Tack-Toe-More-Jason.sol\":5140:5146  gameId */\n      dup3\n        /* \"Practical5-Tick-Tack-Toe-More-Jason.sol\":5097:5147  updateUI(gameInformation[gameId]._options, gameId) */\n      mload(0x40)\n      tag_176\n      swap3\n      swap2\n      swap1\n      tag_177\n      jump\t// in\n    tag_176:\n      mload(0x40)\n      dup1\n      swap2\n      sub\n      swap1\n      log1\n        /* \"Practical5-Tick-Tack-Toe-More-Jason.sol\":5247:5266  checkWinner(gameId) */\n      tag_178\n        /* \"Practical5-Tick-Tack-Toe-More-Jason.sol\":5259:5265  gameId */\n      dup2\n        /* \"Practical5-Tick-Tack-Toe-More-Jason.sol\":5247:5258  checkWinner */\n      tag_179\n        /* \"Practical5-Tick-Tack-Toe-More-Jason.sol\":5247:5266  checkWinner(gameId) */\n      jump\t// in\n    tag_178:\n        /* \"Practical5-Tick-Tack-Toe-More-Jason.sol\":4316:5306  function userInput(uint input, uint gameId) external {... */\n      pop\n      pop\n      jump\t// out\n        /* \"Practical5-Tick-Tack-Toe-More-Jason.sol\":375:408  GameInfo[] public gameInformation */\n    tag_37:\n      0x00\n      dup2\n      dup2\n      sload\n      dup2\n      lt\n      tag_180\n      jumpi\n      0x00\n      dup1\n      revert\n    tag_180:\n      0x00\n      swap2\n      dup3\n      mstore\n      0x20\n      swap1\n      swap2\n      keccak256\n      0x08\n      swap1\n      swap2\n      mul\n      add\n      dup1\n      sload\n      0x01\n      dup3\n      add\n      dup1\n      sload\n      0xff\n      swap1\n      swap3\n      and\n      swap4\n      pop\n      swap1\n      tag_182\n      swap1\n      tag_86\n      jump\t// in\n    tag_182:\n      dup1\n      0x1f\n      add\n      0x20\n      dup1\n      swap2\n      div\n      mul\n      0x20\n      add\n      mload(0x40)\n      swap1\n      dup2\n      add\n      0x40\n      mstore\n      dup1\n      swap3\n      swap2\n      swap1\n      dup2\n      dup2\n      mstore\n      0x20\n      add\n      dup3\n      dup1\n      sload\n      tag_183\n      swap1\n      tag_86\n      jump\t// in\n    tag_183:\n      dup1\n      iszero\n      tag_184\n      jumpi\n      dup1\n      0x1f\n      lt\n      tag_185\n      jumpi\n      0x0100\n      dup1\n      dup4\n      sload\n      div\n      mul\n      dup4\n      mstore\n      swap2\n      0x20\n      add\n      swap2\n      jump(tag_184)\n    tag_185:\n      dup3\n      add\n      swap2\n      swap1\n      0x00\n      mstore\n      keccak256(0x00, 0x20)\n      swap1\n    tag_186:\n      dup2\n      sload\n      dup2\n      mstore\n      swap1\n      0x01\n      add\n      swap1\n      0x20\n      add\n      dup1\n      dup4\n      gt\n      tag_186\n      jumpi\n      dup3\n      swap1\n      sub\n      0x1f\n      and\n      dup3\n      add\n      swap2\n    tag_184:\n      pop\n      pop\n      pop\n      0x04\n      dup5\n      add\n      sload\n      0x05\n      dup6\n      add\n      sload\n      0x06\n      dup7\n      add\n      sload\n      0x07\n      swap1\n      swap7\n      add\n      sload\n      swap5\n      swap6\n      sub(shl(0xa0, 0x01), 0x01)\n      swap3\n      dup4\n      and\n      swap6\n      swap2\n      dup4\n      and\n      swap5\n      pop\n      swap3\n      pop\n      and\n      dup7\n      jump\t// out\n        /* \"Practical5-Tick-Tack-Toe-More-Jason.sol\":2581:3159  function createGameRoom() external {... */\n    tag_41:\n        /* \"Practical5-Tick-Tack-Toe-More-Jason.sol\":2627:2651  GameInfo memory gameInfo */\n      tag_188\n      tag_189\n      jump\t// in\n    tag_188:\n        /* \"Practical5-Tick-Tack-Toe-More-Jason.sol\":2662:2677  gameInformation */\n      0x00\n        /* \"Practical5-Tick-Tack-Toe-More-Jason.sol\":2662:2692  gameInformation.push(gameInfo) */\n      dup1\n      sload\n      0x01\n      dup2\n      add\n      dup3\n      sstore\n      swap1\n      dup1\n      mstore\n      dup2\n      mload\n      0x290decd9548b62a8d60345a988386fc84ba6bc95484008f6362f93160ef3e563\n      0x08\n      swap1\n      swap3\n      mul\n      swap2\n      dup3\n      add\n      dup1\n      sload\n      not(0xff)\n      and\n      swap2\n      iszero\n      iszero\n      swap2\n      swap1\n      swap2\n      or\n      dup2\n      sstore\n      0x20\n      dup4\n      add\n      mload\n      dup4\n      swap3\n      0x290decd9548b62a8d60345a988386fc84ba6bc95484008f6362f93160ef3e564\n      add\n      swap1\n      tag_191\n      swap1\n      dup3\n      tag_106\n      jump\t// in\n    tag_191:\n      pop\n      0x40\n      dup3\n      add\n      mload\n      dup1\n      mload\n      tag_192\n      swap2\n      0x02\n      dup5\n      add\n      swap2\n      0x20\n      swap1\n      swap2\n      add\n      swap1\n      tag_193\n      jump\t// in\n    tag_192:\n      pop\n      0x60\n      dup3\n      add\n      mload\n      dup1\n      mload\n      tag_194\n      swap2\n      0x03\n      dup5\n      add\n      swap2\n      0x20\n      swap1\n      swap2\n      add\n      swap1\n      tag_195\n      jump\t// in\n    tag_194:\n      pop\n      0x80\n      dup3\n      add\n      mload\n      0x04\n      dup3\n      add\n      dup1\n      sload\n      not(sub(shl(0xa0, 0x01), 0x01))\n      swap1\n      dup2\n      and\n      sub(shl(0xa0, 0x01), 0x01)\n      swap4\n      dup5\n      and\n      or\n      swap1\n      swap2\n      sstore\n      0xa0\n      dup5\n      add\n      mload\n      0x05\n      dup5\n      add\n      dup1\n      sload\n      dup4\n      and\n      swap2\n      dup5\n      and\n      swap2\n      swap1\n      swap2\n      or\n      swap1\n      sstore\n      0xc0\n      dup5\n      add\n      mload\n      0x06\n      dup5\n      add\n      sstore\n      0xe0\n      swap1\n      swap4\n      add\n      mload\n      0x07\n      swap1\n      swap3\n      add\n      dup1\n      sload\n      swap1\n      swap4\n      and\n      swap2\n      and\n      or\n      swap1\n      sstore\n      0x00\n        /* \"Practical5-Tick-Tack-Toe-More-Jason.sol\":2721:2743  gameInformation.length */\n      dup1\n      sload\n      swap1\n        /* \"Practical5-Tick-Tack-Toe-More-Jason.sol\":2804:2814  msg.sender */\n      caller\n      swap1\n        /* \"Practical5-Tick-Tack-Toe-More-Jason.sol\":2772:2784  gameLength-1 */\n      tag_196\n      0x01\n        /* \"Practical5-Tick-Tack-Toe-More-Jason.sol\":2721:2743  gameInformation.length */\n      dup5\n        /* \"Practical5-Tick-Tack-Toe-More-Jason.sol\":2772:2784  gameLength-1 */\n      tag_197\n      jump\t// in\n    tag_196:\n        /* \"Practical5-Tick-Tack-Toe-More-Jason.sol\":2756:2785  gameInformation[gameLength-1] */\n      dup2\n      sload\n      dup2\n      lt\n      tag_199\n      jumpi\n      tag_199\n      tag_64\n      jump\t// in\n    tag_199:\n      0x00\n      swap2\n      dup3\n      mstore\n      0x20\n      dup3\n      keccak256\n      0x08\n      swap2\n      swap1\n      swap2\n      mul\n      add\n        /* \"Practical5-Tick-Tack-Toe-More-Jason.sol\":2756:2801  gameInformation[gameLength-1]._player1address */\n      0x04\n      add\n        /* \"Practical5-Tick-Tack-Toe-More-Jason.sol\":2756:2814  gameInformation[gameLength-1]._player1address = msg.sender */\n      dup1\n      sload\n      not(sub(shl(0xa0, 0x01), 0x01))\n      and\n      sub(shl(0xa0, 0x01), 0x01)\n      swap4\n      swap1\n      swap4\n      and\n      swap3\n      swap1\n      swap3\n      or\n      swap1\n      swap2\n      sstore\n        /* \"Practical5-Tick-Tack-Toe-More-Jason.sol\":2756:2785  gameInformation[gameLength-1] */\n      dup1\n        /* \"Practical5-Tick-Tack-Toe-More-Jason.sol\":2841:2853  gameLength-1 */\n      tag_201\n      0x01\n        /* \"Practical5-Tick-Tack-Toe-More-Jason.sol\":2841:2851  gameLength */\n      dup5\n        /* \"Practical5-Tick-Tack-Toe-More-Jason.sol\":2841:2853  gameLength-1 */\n      tag_197\n      jump\t// in\n    tag_201:\n        /* \"Practical5-Tick-Tack-Toe-More-Jason.sol\":2825:2854  gameInformation[gameLength-1] */\n      dup2\n      sload\n      dup2\n      lt\n      tag_203\n      jumpi\n      tag_203\n      tag_64\n      jump\t// in\n    tag_203:\n      0x00\n      swap2\n      dup3\n      mstore\n      0x20\n      dup3\n      keccak256\n      0x08\n      swap2\n      swap1\n      swap2\n      mul\n      add\n        /* \"Practical5-Tick-Tack-Toe-More-Jason.sol\":2825:2872  gameInformation[gameLength-1]._activate = false */\n      dup1\n      sload\n      not(0xff)\n      and\n      swap3\n      iszero\n      iszero\n      swap3\n      swap1\n      swap3\n      or\n      swap1\n      swap2\n      sstore\n      0x01\n      swap1\n        /* \"Practical5-Tick-Tack-Toe-More-Jason.sol\":2899:2911  gameLength-1 */\n      tag_205\n      dup3\n        /* \"Practical5-Tick-Tack-Toe-More-Jason.sol\":2899:2909  gameLength */\n      dup5\n        /* \"Practical5-Tick-Tack-Toe-More-Jason.sol\":2899:2911  gameLength-1 */\n      tag_197\n      jump\t// in\n    tag_205:\n        /* \"Practical5-Tick-Tack-Toe-More-Jason.sol\":2883:2912  gameInformation[gameLength-1] */\n      dup2\n      sload\n      dup2\n      lt\n      tag_207\n      jumpi\n      tag_207\n      tag_64\n      jump\t// in\n    tag_207:\n      swap1\n      0x00\n      mstore\n      keccak256(0x00, 0x20)\n      swap1\n      0x08\n      mul\n      add\n        /* \"Practical5-Tick-Tack-Toe-More-Jason.sol\":2883:2925  gameInformation[gameLength-1]._playerCount */\n      0x06\n      add\n        /* \"Practical5-Tick-Tack-Toe-More-Jason.sol\":2883:2929  gameInformation[gameLength-1]._playerCount = 1 */\n      dup2\n      swap1\n      sstore\n      pop\n        /* \"Practical5-Tick-Tack-Toe-More-Jason.sol\":2940:2990  gameInformation[gameLength-1]._currentPlayer = \"X\" */\n      mload(0x40)\n      dup1\n      0x40\n      add\n      0x40\n      mstore\n      dup1\n      0x01\n      dup2\n      mstore\n      0x20\n      add\n      shl(0xfb, 0x0b)\n      dup2\n      mstore\n      pop\n        /* \"Practical5-Tick-Tack-Toe-More-Jason.sol\":2940:2955  gameInformation */\n      0x00\n        /* \"Practical5-Tick-Tack-Toe-More-Jason.sol\":2967:2968  1 */\n      0x01\n        /* \"Practical5-Tick-Tack-Toe-More-Jason.sol\":2956:2966  gameLength */\n      dup4\n        /* \"Practical5-Tick-Tack-Toe-More-Jason.sol\":2956:2968  gameLength-1 */\n      tag_209\n      swap2\n      swap1\n      tag_197\n      jump\t// in\n    tag_209:\n        /* \"Practical5-Tick-Tack-Toe-More-Jason.sol\":2940:2969  gameInformation[gameLength-1] */\n      dup2\n      sload\n      dup2\n      lt\n      tag_211\n      jumpi\n      tag_211\n      tag_64\n      jump\t// in\n    tag_211:\n      swap1\n      0x00\n      mstore\n      keccak256(0x00, 0x20)\n      swap1\n      0x08\n      mul\n      add\n        /* \"Practical5-Tick-Tack-Toe-More-Jason.sol\":2940:2984  gameInformation[gameLength-1]._currentPlayer */\n      0x01\n      add\n        /* \"Practical5-Tick-Tack-Toe-More-Jason.sol\":2940:2990  gameInformation[gameLength-1]._currentPlayer = \"X\" */\n      swap1\n      dup2\n      tag_213\n      swap2\n      swap1\n      tag_106\n      jump\t// in\n    tag_213:\n      pop\n        /* \"Practical5-Tick-Tack-Toe-More-Jason.sol\":3005:3011  uint i */\n      0x00\n        /* \"Practical5-Tick-Tack-Toe-More-Jason.sol\":3001:3102  for(uint i = 0; i < 9; i++){... */\n    tag_214:\n        /* \"Practical5-Tick-Tack-Toe-More-Jason.sol\":3021:3022  9 */\n      0x09\n        /* \"Practical5-Tick-Tack-Toe-More-Jason.sol\":3017:3018  i */\n      dup2\n        /* \"Practical5-Tick-Tack-Toe-More-Jason.sol\":3017:3022  i < 9 */\n      lt\n        /* \"Practical5-Tick-Tack-Toe-More-Jason.sol\":3001:3102  for(uint i = 0; i < 9; i++){... */\n      iszero\n      tag_215\n      jumpi\n        /* \"Practical5-Tick-Tack-Toe-More-Jason.sol\":3043:3058  gameInformation */\n      0x00\n        /* \"Practical5-Tick-Tack-Toe-More-Jason.sol\":3059:3071  gameLength-1 */\n      tag_217\n        /* \"Practical5-Tick-Tack-Toe-More-Jason.sol\":3070:3071  1 */\n      0x01\n        /* \"Practical5-Tick-Tack-Toe-More-Jason.sol\":3059:3069  gameLength */\n      dup5\n        /* \"Practical5-Tick-Tack-Toe-More-Jason.sol\":3059:3071  gameLength-1 */\n      tag_197\n      jump\t// in\n    tag_217:\n        /* \"Practical5-Tick-Tack-Toe-More-Jason.sol\":3043:3072  gameInformation[gameLength-1] */\n      dup2\n      sload\n      dup2\n      lt\n      tag_219\n      jumpi\n      tag_219\n      tag_64\n      jump\t// in\n    tag_219:\n      0x00\n      swap2\n      dup3\n      mstore\n      0x20\n      dup1\n      dup4\n      keccak256\n        /* \"Practical5-Tick-Tack-Toe-More-Jason.sol\":3043:3081  gameInformation[gameLength-1]._options */\n      0x02\n        /* \"Practical5-Tick-Tack-Toe-More-Jason.sol\":3043:3072  gameInformation[gameLength-1] */\n      0x08\n      swap1\n      swap4\n      mul\n      add\n        /* \"Practical5-Tick-Tack-Toe-More-Jason.sol\":3043:3081  gameInformation[gameLength-1]._options */\n      swap2\n      swap1\n      swap2\n      add\n        /* \"Practical5-Tick-Tack-Toe-More-Jason.sol\":3043:3090  gameInformation[gameLength-1]._options.push(\"\") */\n      dup1\n      sload\n      0x01\n      dup2\n      add\n      dup3\n      sstore\n      swap1\n      dup4\n      mstore\n      dup2\n      dup4\n      keccak256\n      0x40\n      dup1\n      mload\n      swap4\n      dup5\n      add\n      swap1\n      mstore\n      swap3\n      dup3\n      mstore\n      swap2\n      swap1\n      swap2\n      add\n      swap1\n      tag_222\n      swap1\n      dup3\n      tag_106\n      jump\t// in\n    tag_222:\n      pop\n        /* \"Practical5-Tick-Tack-Toe-More-Jason.sol\":3024:3027  i++ */\n      dup1\n      tag_223\n      dup2\n      tag_224\n      jump\t// in\n    tag_223:\n      swap2\n      pop\n      pop\n        /* \"Practical5-Tick-Tack-Toe-More-Jason.sol\":3001:3102  for(uint i = 0; i < 9; i++){... */\n      jump(tag_214)\n    tag_215:\n      pop\n        /* \"Practical5-Tick-Tack-Toe-More-Jason.sol\":3117:3141  createRoom(gameLength-1) */\n      0xbbba82573073a1190d559566d39447b5e1ad7724b88b63bc98867d229a645b6b\n        /* \"Practical5-Tick-Tack-Toe-More-Jason.sol\":3128:3140  gameLength-1 */\n      tag_225\n        /* \"Practical5-Tick-Tack-Toe-More-Jason.sol\":3139:3140  1 */\n      0x01\n        /* \"Practical5-Tick-Tack-Toe-More-Jason.sol\":3128:3138  gameLength */\n      dup4\n        /* \"Practical5-Tick-Tack-Toe-More-Jason.sol\":3128:3140  gameLength-1 */\n      tag_197\n      jump\t// in\n    tag_225:\n        /* \"Practical5-Tick-Tack-Toe-More-Jason.sol\":3117:3141  createRoom(gameLength-1) */\n      mload(0x40)\n        /* \"#utility.yul\":11670:11695   */\n      swap1\n      dup2\n      mstore\n        /* \"#utility.yul\":11658:11660   */\n      0x20\n        /* \"#utility.yul\":11643:11661   */\n      add\n        /* \"Practical5-Tick-Tack-Toe-More-Jason.sol\":3117:3141  createRoom(gameLength-1) */\n      mload(0x40)\n      dup1\n      swap2\n      sub\n      swap1\n      log1\n        /* \"Practical5-Tick-Tack-Toe-More-Jason.sol\":2616:3159  {... */\n      pop\n      pop\n        /* \"Practical5-Tick-Tack-Toe-More-Jason.sol\":2581:3159  function createGameRoom() external {... */\n      jump\t// out\n        /* \"Practical5-Tick-Tack-Toe-More-Jason.sol\":2287:2417  function getGameInformation (uint gameId) external view returns (GameInfo memory){... */\n    tag_44:\n        /* \"Practical5-Tick-Tack-Toe-More-Jason.sol\":2352:2367  GameInfo memory */\n      tag_227\n      tag_189\n      jump\t// in\n    tag_227:\n        /* \"Practical5-Tick-Tack-Toe-More-Jason.sol\":2386:2401  gameInformation */\n      0x00\n        /* \"Practical5-Tick-Tack-Toe-More-Jason.sol\":2402:2408  gameId */\n      dup3\n        /* \"Practical5-Tick-Tack-Toe-More-Jason.sol\":2386:2409  gameInformation[gameId] */\n      dup2\n      sload\n      dup2\n      lt\n      tag_230\n      jumpi\n      tag_230\n      tag_64\n      jump\t// in\n    tag_230:\n      0x00\n      swap2\n      dup3\n      mstore\n      0x20\n      swap2\n      dup3\n      swap1\n      keccak256\n        /* \"Practical5-Tick-Tack-Toe-More-Jason.sol\":2379:2409  return gameInformation[gameId] */\n      0x40\n      dup1\n      mload\n      0x0100\n      dup2\n      add\n      swap1\n      swap2\n      mstore\n        /* \"Practical5-Tick-Tack-Toe-More-Jason.sol\":2386:2409  gameInformation[gameId] */\n      0x08\n      swap1\n      swap3\n      mul\n      add\n        /* \"Practical5-Tick-Tack-Toe-More-Jason.sol\":2379:2409  return gameInformation[gameId] */\n      dup1\n      sload\n      0xff\n      and\n      iszero\n      iszero\n      dup3\n      mstore\n      0x01\n      dup2\n      add\n      dup1\n      sload\n      swap3\n      swap4\n        /* \"Practical5-Tick-Tack-Toe-More-Jason.sol\":2386:2409  gameInformation[gameId] */\n      swap2\n      swap3\n        /* \"Practical5-Tick-Tack-Toe-More-Jason.sol\":2379:2409  return gameInformation[gameId] */\n      swap2\n      dup5\n      add\n      swap2\n      tag_232\n      swap1\n      tag_86\n      jump\t// in\n    tag_232:\n      dup1\n      0x1f\n      add\n      0x20\n      dup1\n      swap2\n      div\n      mul\n      0x20\n      add\n      mload(0x40)\n      swap1\n      dup2\n      add\n      0x40\n      mstore\n      dup1\n      swap3\n      swap2\n      swap1\n      dup2\n      dup2\n      mstore\n      0x20\n      add\n      dup3\n      dup1\n      sload\n      tag_233\n      swap1\n      tag_86\n      jump\t// in\n    tag_233:\n      dup1\n      iszero\n      tag_234\n      jumpi\n      dup1\n      0x1f\n      lt\n      tag_235\n      jumpi\n      0x0100\n      dup1\n      dup4\n      sload\n      div\n      mul\n      dup4\n      mstore\n      swap2\n      0x20\n      add\n      swap2\n      jump(tag_234)\n    tag_235:\n      dup3\n      add\n      swap2\n      swap1\n      0x00\n      mstore\n      keccak256(0x00, 0x20)\n      swap1\n    tag_236:\n      dup2\n      sload\n      dup2\n      mstore\n      swap1\n      0x01\n      add\n      swap1\n      0x20\n      add\n      dup1\n      dup4\n      gt\n      tag_236\n      jumpi\n      dup3\n      swap1\n      sub\n      0x1f\n      and\n      dup3\n      add\n      swap2\n    tag_234:\n      pop\n      pop\n      pop\n      pop\n      pop\n      dup2\n      mstore\n      0x20\n      add\n      0x02\n      dup3\n      add\n      dup1\n      sload\n      dup1\n      0x20\n      mul\n      0x20\n      add\n      mload(0x40)\n      swap1\n      dup2\n      add\n      0x40\n      mstore\n      dup1\n      swap3\n      swap2\n      swap1\n      dup2\n      dup2\n      mstore\n      0x20\n      add\n      0x00\n      swap1\n    tag_237:\n      dup3\n      dup3\n      lt\n      iszero\n      tag_238\n      jumpi\n      dup4\n      dup3\n      swap1\n      0x00\n      mstore\n      keccak256(0x00, 0x20)\n      add\n      dup1\n      sload\n      tag_240\n      swap1\n      tag_86\n      jump\t// in\n    tag_240:\n      dup1\n      0x1f\n      add\n      0x20\n      dup1\n      swap2\n      div\n      mul\n      0x20\n      add\n      mload(0x40)\n      swap1\n      dup2\n      add\n      0x40\n      mstore\n      dup1\n      swap3\n      swap2\n      swap1\n      dup2\n      dup2\n      mstore\n      0x20\n      add\n      dup3\n      dup1\n      sload\n      tag_241\n      swap1\n      tag_86\n      jump\t// in\n    tag_241:\n      dup1\n      iszero\n      tag_242\n      jumpi\n      dup1\n      0x1f\n      lt\n      tag_243\n      jumpi\n      0x0100\n      dup1\n      dup4\n      sload\n      div\n      mul\n      dup4\n      mstore\n      swap2\n      0x20\n      add\n      swap2\n      jump(tag_242)\n    tag_243:\n      dup3\n      add\n      swap2\n      swap1\n      0x00\n      mstore\n      keccak256(0x00, 0x20)\n      swap1\n    tag_244:\n      dup2\n      sload\n      dup2\n      mstore\n      swap1\n      0x01\n      add\n      swap1\n      0x20\n      add\n      dup1\n      dup4\n      gt\n      tag_244\n      jumpi\n      dup3\n      swap1\n      sub\n      0x1f\n      and\n      dup3\n      add\n      swap2\n    tag_242:\n      pop\n      pop\n      pop\n      pop\n      pop\n      dup2\n      mstore\n      0x20\n      add\n      swap1\n      0x01\n      add\n      swap1\n      jump(tag_237)\n    tag_238:\n      pop\n      pop\n      pop\n      pop\n      dup2\n      mstore\n      0x20\n      add\n      0x03\n      dup3\n      add\n      dup1\n      sload\n      dup1\n      0x20\n      mul\n      0x20\n      add\n      mload(0x40)\n      swap1\n      dup2\n      add\n      0x40\n      mstore\n      dup1\n      swap3\n      swap2\n      swap1\n      dup2\n      dup2\n      mstore\n      0x20\n      add\n      dup3\n      dup1\n      sload\n      dup1\n      iszero\n      tag_245\n      jumpi\n      0x20\n      mul\n      dup3\n      add\n      swap2\n      swap1\n      0x00\n      mstore\n      keccak256(0x00, 0x20)\n      swap1\n    tag_246:\n      dup2\n      sload\n      dup2\n      mstore\n      0x20\n      add\n      swap1\n      0x01\n      add\n      swap1\n      dup1\n      dup4\n      gt\n      tag_246\n      jumpi\n    tag_245:\n      pop\n      pop\n      pop\n      swap2\n      dup4\n      mstore\n      pop\n      pop\n      0x04\n      dup3\n      add\n      sload\n      sub(shl(0xa0, 0x01), 0x01)\n      swap1\n      dup2\n      and\n      0x20\n      dup4\n      add\n      mstore\n      0x05\n      dup4\n      add\n      sload\n      dup2\n      and\n      0x40\n      dup4\n      add\n      mstore\n      0x06\n      dup4\n      add\n      sload\n      0x60\n      dup4\n      add\n      mstore\n      0x07\n      swap1\n      swap3\n      add\n      sload\n      swap1\n      swap2\n      and\n      0x80\n      swap1\n      swap2\n      add\n      mstore\n      swap3\n        /* \"Practical5-Tick-Tack-Toe-More-Jason.sol\":2287:2417  function getGameInformation (uint gameId) external view returns (GameInfo memory){... */\n      swap2\n      pop\n      pop\n      jump\t// out\n        /* \"Practical5-Tick-Tack-Toe-More-Jason.sol\":8910:9157  function compareStrings(string memory a, string memory b) public pure returns (bool) {... */\n    tag_50:\n        /* \"Practical5-Tick-Tack-Toe-More-Jason.sol\":8989:8993  bool */\n      0x00\n        /* \"Practical5-Tick-Tack-Toe-More-Jason.sol\":9146:9147  b */\n      dup2\n        /* \"Practical5-Tick-Tack-Toe-More-Jason.sol\":9129:9148  abi.encodePacked(b) */\n      add(0x20, mload(0x40))\n      tag_248\n      swap2\n      swap1\n      tag_249\n      jump\t// in\n    tag_248:\n      mload(0x40)\n      0x20\n      dup2\n      dup4\n      sub\n      sub\n      dup2\n      mstore\n      swap1\n      0x40\n      mstore\n        /* \"Practical5-Tick-Tack-Toe-More-Jason.sol\":9119:9149  keccak256(abi.encodePacked(b)) */\n      dup1\n      mload\n      swap1\n      0x20\n      add\n      keccak256\n        /* \"Practical5-Tick-Tack-Toe-More-Jason.sol\":9112:9113  a */\n      dup4\n        /* \"Practical5-Tick-Tack-Toe-More-Jason.sol\":9095:9114  abi.encodePacked(a) */\n      add(0x20, mload(0x40))\n      tag_250\n      swap2\n      swap1\n      tag_249\n      jump\t// in\n    tag_250:\n      mload(0x40)\n      0x20\n      dup2\n      dup4\n      sub\n      sub\n      dup2\n      mstore\n      swap1\n      0x40\n      mstore\n        /* \"Practical5-Tick-Tack-Toe-More-Jason.sol\":9085:9115  keccak256(abi.encodePacked(a)) */\n      dup1\n      mload\n      swap1\n      0x20\n      add\n      keccak256\n        /* \"Practical5-Tick-Tack-Toe-More-Jason.sol\":9085:9149  keccak256(abi.encodePacked(a)) == keccak256(abi.encodePacked(b)) */\n      eq\n        /* \"Practical5-Tick-Tack-Toe-More-Jason.sol\":9078:9149  return keccak256(abi.encodePacked(a)) == keccak256(abi.encodePacked(b)) */\n      swap1\n      pop\n        /* \"Practical5-Tick-Tack-Toe-More-Jason.sol\":8910:9157  function compareStrings(string memory a, string memory b) public pure returns (bool) {... */\n    tag_247:\n      swap3\n      swap2\n      pop\n      pop\n      jump\t// out\n        /* \"Practical5-Tick-Tack-Toe-More-Jason.sol\":1955:2085  function getoption (uint gameId) external view returns (string[] memory){... */\n    tag_55:\n        /* \"Practical5-Tick-Tack-Toe-More-Jason.sol\":2011:2026  string[] memory */\n      0x60\n        /* \"Practical5-Tick-Tack-Toe-More-Jason.sol\":2045:2060  gameInformation */\n      0x00\n        /* \"Practical5-Tick-Tack-Toe-More-Jason.sol\":2061:2067  gameId */\n      dup3\n        /* \"Practical5-Tick-Tack-Toe-More-Jason.sol\":2045:2068  gameInformation[gameId] */\n      dup2\n      sload\n      dup2\n      lt\n      tag_253\n      jumpi\n      tag_253\n      tag_64\n      jump\t// in\n    tag_253:\n      swap1\n      0x00\n      mstore\n      keccak256(0x00, 0x20)\n      swap1\n      0x08\n      mul\n      add\n        /* \"Practical5-Tick-Tack-Toe-More-Jason.sol\":2045:2077  gameInformation[gameId]._options */\n      0x02\n      add\n        /* \"Practical5-Tick-Tack-Toe-More-Jason.sol\":2038:2077  return gameInformation[gameId]._options */\n      dup1\n      sload\n      dup1\n      0x20\n      mul\n      0x20\n      add\n      mload(0x40)\n      swap1\n      dup2\n      add\n      0x40\n      mstore\n      dup1\n      swap3\n      swap2\n      swap1\n      dup2\n      dup2\n      mstore\n      0x20\n      add\n      0x00\n      swap1\n    tag_255:\n      dup3\n      dup3\n      lt\n      iszero\n      tag_256\n      jumpi\n      dup4\n      dup3\n      swap1\n      0x00\n      mstore\n      keccak256(0x00, 0x20)\n      add\n      dup1\n      sload\n      tag_258\n      swap1\n      tag_86\n      jump\t// in\n    tag_258:\n      dup1\n      0x1f\n      add\n      0x20\n      dup1\n      swap2\n      div\n      mul\n      0x20\n      add\n      mload(0x40)\n      swap1\n      dup2\n      add\n      0x40\n      mstore\n      dup1\n      swap3\n      swap2\n      swap1\n      dup2\n      dup2\n      mstore\n      0x20\n      add\n      dup3\n      dup1\n      sload\n      tag_259\n      swap1\n      tag_86\n      jump\t// in\n    tag_259:\n      dup1\n      iszero\n      tag_260\n      jumpi\n      dup1\n      0x1f\n      lt\n      tag_261\n      jumpi\n      0x0100\n      dup1\n      dup4\n      sload\n      div\n      mul\n      dup4\n      mstore\n      swap2\n      0x20\n      add\n      swap2\n      jump(tag_260)\n    tag_261:\n      dup3\n      add\n      swap2\n      swap1\n      0x00\n      mstore\n      keccak256(0x00, 0x20)\n      swap1\n    tag_262:\n      dup2\n      sload\n      dup2\n      mstore\n      swap1\n      0x01\n      add\n      swap1\n      0x20\n      add\n      dup1\n      dup4\n      gt\n      tag_262\n      jumpi\n      dup3\n      swap1\n      sub\n      0x1f\n      and\n      dup3\n      add\n      swap2\n    tag_260:\n      pop\n      pop\n      pop\n      pop\n      pop\n      dup2\n      mstore\n      0x20\n      add\n      swap1\n      0x01\n      add\n      swap1\n      jump(tag_255)\n    tag_256:\n      pop\n      pop\n      pop\n      pop\n      swap1\n      pop\n        /* \"Practical5-Tick-Tack-Toe-More-Jason.sol\":1955:2085  function getoption (uint gameId) external view returns (string[] memory){... */\n      swap2\n      swap1\n      pop\n      jump\t// out\n        /* \"Practical5-Tick-Tack-Toe-More-Jason.sol\":3186:4210  function joinGame (uint gameId) external {... */\n    tag_60:\n        /* \"Practical5-Tick-Tack-Toe-More-Jason.sol\":3306:3321  gameInformation */\n      0x00\n        /* \"Practical5-Tick-Tack-Toe-More-Jason.sol\":3322:3328  gameId */\n      dup2\n        /* \"Practical5-Tick-Tack-Toe-More-Jason.sol\":3306:3329  gameInformation[gameId] */\n      dup2\n      sload\n      dup2\n      lt\n      tag_265\n      jumpi\n      tag_265\n      tag_64\n      jump\t// in\n    tag_265:\n      swap1\n      0x00\n      mstore\n      keccak256(0x00, 0x20)\n      swap1\n      0x08\n      mul\n      add\n        /* \"Practical5-Tick-Tack-Toe-More-Jason.sol\":3306:3342  gameInformation[gameId]._playerCount */\n      0x06\n      add\n      sload\n        /* \"Practical5-Tick-Tack-Toe-More-Jason.sol\":3346:3347  1 */\n      0x01\n        /* \"Practical5-Tick-Tack-Toe-More-Jason.sol\":3306:3347  gameInformation[gameId]._playerCount == 1 */\n      sub\n        /* \"Practical5-Tick-Tack-Toe-More-Jason.sol\":3303:4105  if(gameInformation[gameId]._playerCount == 1){... */\n      tag_267\n      jumpi\n        /* \"Practical5-Tick-Tack-Toe-More-Jason.sol\":3387:3402  gameInformation */\n      0x00\n        /* \"Practical5-Tick-Tack-Toe-More-Jason.sol\":3403:3409  gameId */\n      dup2\n        /* \"Practical5-Tick-Tack-Toe-More-Jason.sol\":3387:3410  gameInformation[gameId] */\n      dup2\n      sload\n      dup2\n      lt\n      tag_269\n      jumpi\n      tag_269\n      tag_64\n      jump\t// in\n    tag_269:\n      0x00\n      swap2\n      dup3\n      mstore\n      0x20\n      swap1\n      swap2\n      keccak256\n        /* \"Practical5-Tick-Tack-Toe-More-Jason.sol\":3387:3426  gameInformation[gameId]._player1address */\n      0x04\n        /* \"Practical5-Tick-Tack-Toe-More-Jason.sol\":3387:3410  gameInformation[gameId] */\n      0x08\n      swap1\n      swap3\n      mul\n      add\n        /* \"Practical5-Tick-Tack-Toe-More-Jason.sol\":3387:3426  gameInformation[gameId]._player1address */\n      add\n      sload\n      sub(shl(0xa0, 0x01), 0x01)\n      and\n        /* \"Practical5-Tick-Tack-Toe-More-Jason.sol\":3372:3382  msg.sender */\n      caller\n        /* \"Practical5-Tick-Tack-Toe-More-Jason.sol\":3372:3426  msg.sender !=  gameInformation[gameId]._player1address */\n      sub\n        /* \"Practical5-Tick-Tack-Toe-More-Jason.sol\":3363:3468  require((msg.sender !=  gameInformation[gameId]._player1address), \"Error: You cannot play with yourself\") */\n      tag_271\n      jumpi\n      mload(0x40)\n      shl(0xe5, 0x461bcd)\n      dup2\n      mstore\n        /* \"#utility.yul\":17186:17188   */\n      0x20\n        /* \"Practical5-Tick-Tack-Toe-More-Jason.sol\":3363:3468  require((msg.sender !=  gameInformation[gameId]._player1address), \"Error: You cannot play with yourself\") */\n      0x04\n      dup3\n      add\n        /* \"#utility.yul\":17168:17189   */\n      mstore\n        /* \"#utility.yul\":17225:17227   */\n      0x24\n        /* \"#utility.yul\":17205:17223   */\n      dup1\n      dup3\n      add\n        /* \"#utility.yul\":17198:17228   */\n      mstore\n        /* \"#utility.yul\":17264:17298   */\n      0x4572726f723a20596f752063616e6e6f7420706c6179207769746820796f7572\n        /* \"#utility.yul\":17244:17262   */\n      0x44\n      dup3\n      add\n        /* \"#utility.yul\":17237:17299   */\n      mstore\n      shl(0xe1, 0x39b2b633)\n        /* \"#utility.yul\":17315:17333   */\n      0x64\n      dup3\n      add\n        /* \"#utility.yul\":17308:17342   */\n      mstore\n        /* \"#utility.yul\":17359:17378   */\n      0x84\n      add\n        /* \"Practical5-Tick-Tack-Toe-More-Jason.sol\":3363:3468  require((msg.sender !=  gameInformation[gameId]._player1address), \"Error: You cannot play with yourself\") */\n      tag_72\n        /* \"#utility.yul\":16984:17384   */\n      jump\n        /* \"Practical5-Tick-Tack-Toe-More-Jason.sol\":3363:3468  require((msg.sender !=  gameInformation[gameId]._player1address), \"Error: You cannot play with yourself\") */\n    tag_271:\n        /* \"Practical5-Tick-Tack-Toe-More-Jason.sol\":3525:3535  msg.sender */\n      caller\n        /* \"Practical5-Tick-Tack-Toe-More-Jason.sol\":3483:3498  gameInformation */\n      0x00\n        /* \"Practical5-Tick-Tack-Toe-More-Jason.sol\":3499:3505  gameId */\n      dup3\n        /* \"Practical5-Tick-Tack-Toe-More-Jason.sol\":3483:3506  gameInformation[gameId] */\n      dup2\n      sload\n      dup2\n      lt\n      tag_275\n      jumpi\n      tag_275\n      tag_64\n      jump\t// in\n    tag_275:\n      swap1\n      0x00\n      mstore\n      keccak256(0x00, 0x20)\n      swap1\n      0x08\n      mul\n      add\n        /* \"Practical5-Tick-Tack-Toe-More-Jason.sol\":3483:3522  gameInformation[gameId]._player2address */\n      0x05\n      add\n      0x00\n        /* \"Practical5-Tick-Tack-Toe-More-Jason.sol\":3483:3535  gameInformation[gameId]._player2address = msg.sender */\n      0x0100\n      exp\n      dup2\n      sload\n      dup2\n      sub(shl(0xa0, 0x01), 0x01)\n      mul\n      not\n      and\n      swap1\n      dup4\n      sub(shl(0xa0, 0x01), 0x01)\n      and\n      mul\n      or\n      swap1\n      sstore\n      pop\n        /* \"Practical5-Tick-Tack-Toe-More-Jason.sol\":3589:3590  2 */\n      0x02\n        /* \"Practical5-Tick-Tack-Toe-More-Jason.sol\":3550:3565  gameInformation */\n      0x00\n        /* \"Practical5-Tick-Tack-Toe-More-Jason.sol\":3566:3572  gameId */\n      dup3\n        /* \"Practical5-Tick-Tack-Toe-More-Jason.sol\":3550:3573  gameInformation[gameId] */\n      dup2\n      sload\n      dup2\n      lt\n      tag_278\n      jumpi\n      tag_278\n      tag_64\n      jump\t// in\n    tag_278:\n      swap1\n      0x00\n      mstore\n      keccak256(0x00, 0x20)\n      swap1\n      0x08\n      mul\n      add\n        /* \"Practical5-Tick-Tack-Toe-More-Jason.sol\":3550:3586  gameInformation[gameId]._playerCount */\n      0x06\n      add\n        /* \"Practical5-Tick-Tack-Toe-More-Jason.sol\":3550:3590  gameInformation[gameId]._playerCount = 2 */\n      dup2\n      swap1\n      sstore\n      pop\n        /* \"Practical5-Tick-Tack-Toe-More-Jason.sol\":3641:3645  true */\n      0x01\n        /* \"Practical5-Tick-Tack-Toe-More-Jason.sol\":3605:3620  gameInformation */\n      0x00\n        /* \"Practical5-Tick-Tack-Toe-More-Jason.sol\":3621:3627  gameId */\n      dup3\n        /* \"Practical5-Tick-Tack-Toe-More-Jason.sol\":3605:3628  gameInformation[gameId] */\n      dup2\n      sload\n      dup2\n      lt\n      tag_281\n      jumpi\n      tag_281\n      tag_64\n      jump\t// in\n    tag_281:\n      0x00\n      swap2\n      dup3\n      mstore\n      0x20\n      dup3\n      keccak256\n      0x08\n      swap2\n      swap1\n      swap2\n      mul\n      add\n        /* \"Practical5-Tick-Tack-Toe-More-Jason.sol\":3605:3645  gameInformation[gameId]._activate = true */\n      dup1\n      sload\n      not(0xff)\n      and\n      swap3\n      iszero\n      iszero\n      swap3\n      swap1\n      swap3\n      or\n      swap1\n      swap2\n      sstore\n        /* \"Practical5-Tick-Tack-Toe-More-Jason.sol\":3793:3816  gameInformation[gameId] */\n      dup1\n      sload\n        /* \"Practical5-Tick-Tack-Toe-More-Jason.sol\":3768:3882  startGame(\"Start game!\", gameInformation[gameId]._player1address, gameInformation[gameId]._player2address, gameId) */\n      0x2f78808c539fd07cb45456a5d5561c76d3d4005246faccb297481e511abc321a\n      swap2\n        /* \"Practical5-Tick-Tack-Toe-More-Jason.sol\":3605:3628  gameInformation[gameId] */\n      swap1\n        /* \"Practical5-Tick-Tack-Toe-More-Jason.sol\":3809:3815  gameId */\n      dup4\n      swap1\n        /* \"Practical5-Tick-Tack-Toe-More-Jason.sol\":3793:3816  gameInformation[gameId] */\n      dup2\n      lt\n      tag_284\n      jumpi\n      tag_284\n      tag_64\n      jump\t// in\n    tag_284:\n      0x00\n      swap2\n      dup3\n      mstore\n      0x20\n      dup3\n      keccak256\n        /* \"Practical5-Tick-Tack-Toe-More-Jason.sol\":3793:3832  gameInformation[gameId]._player1address */\n      0x04\n        /* \"Practical5-Tick-Tack-Toe-More-Jason.sol\":3793:3816  gameInformation[gameId] */\n      0x08\n      swap1\n      swap3\n      mul\n      add\n        /* \"Practical5-Tick-Tack-Toe-More-Jason.sol\":3793:3832  gameInformation[gameId]._player1address */\n      add\n      sload\n        /* \"Practical5-Tick-Tack-Toe-More-Jason.sol\":3834:3857  gameInformation[gameId] */\n      dup2\n      sload\n      sub(shl(0xa0, 0x01), 0x01)\n        /* \"Practical5-Tick-Tack-Toe-More-Jason.sol\":3793:3832  gameInformation[gameId]._player1address */\n      swap1\n      swap2\n      and\n      swap2\n        /* \"Practical5-Tick-Tack-Toe-More-Jason.sol\":3793:3816  gameInformation[gameId] */\n      swap1\n        /* \"Practical5-Tick-Tack-Toe-More-Jason.sol\":3850:3856  gameId */\n      dup5\n      swap1\n        /* \"Practical5-Tick-Tack-Toe-More-Jason.sol\":3834:3857  gameInformation[gameId] */\n      dup2\n      lt\n      tag_287\n      jumpi\n      tag_287\n      tag_64\n      jump\t// in\n    tag_287:\n      0x00\n      swap2\n      dup3\n      mstore\n      0x20\n      swap2\n      dup3\n      swap1\n      keccak256\n        /* \"Practical5-Tick-Tack-Toe-More-Jason.sol\":3834:3873  gameInformation[gameId]._player2address */\n      0x05\n        /* \"Practical5-Tick-Tack-Toe-More-Jason.sol\":3834:3857  gameInformation[gameId] */\n      0x08\n      swap3\n      swap1\n      swap3\n      mul\n      add\n        /* \"Practical5-Tick-Tack-Toe-More-Jason.sol\":3834:3873  gameInformation[gameId]._player2address */\n      add\n      sload\n        /* \"Practical5-Tick-Tack-Toe-More-Jason.sol\":3768:3882  startGame(\"Start game!\", gameInformation[gameId]._player1address, gameInformation[gameId]._player2address, gameId) */\n      0x40\n      dup1\n      mload\n        /* \"#utility.yul\":17675:17678   */\n      0x80\n        /* \"#utility.yul\":17657:17679   */\n      dup1\n      dup3\n      mstore\n        /* \"#utility.yul\":17716:17718   */\n      0x0b\n        /* \"#utility.yul\":17695:17714   */\n      swap1\n      dup3\n      add\n        /* \"#utility.yul\":17688:17719   */\n      mstore\n      shl(0xa8, 0x53746172742067616d6521)\n        /* \"#utility.yul\":17750:17753   */\n      0xa0\n        /* \"#utility.yul\":17735:17754   */\n      dup3\n      add\n        /* \"#utility.yul\":17728:17770   */\n      mstore\n      sub(shl(0xa0, 0x01), 0x01)\n        /* \"#utility.yul\":17882:17897   */\n      swap5\n      dup6\n      and\n        /* \"#utility.yul\":17860:17880   */\n      swap4\n      dup2\n      add\n        /* \"#utility.yul\":17853:17898   */\n      swap4\n      swap1\n      swap4\n      mstore\n        /* \"Practical5-Tick-Tack-Toe-More-Jason.sol\":3834:3873  gameInformation[gameId]._player2address */\n      swap3\n      and\n        /* \"#utility.yul\":17914:17932   */\n      dup2\n      dup4\n      add\n        /* \"#utility.yul\":17907:17950   */\n      mstore\n      0x60\n        /* \"#utility.yul\":17966:17984   */\n      dup2\n      add\n        /* \"#utility.yul\":17959:17993   */\n      dup5\n      swap1\n      mstore\n        /* \"Practical5-Tick-Tack-Toe-More-Jason.sol\":3768:3882  startGame(\"Start game!\", gameInformation[gameId]._player1address, gameInformation[gameId]._player2address, gameId) */\n      swap1\n      mload\n      swap1\n      dup2\n      swap1\n      sub\n        /* \"#utility.yul\":17802:17805   */\n      0xc0\n        /* \"Practical5-Tick-Tack-Toe-More-Jason.sol\":3768:3882  startGame(\"Start game!\", gameInformation[gameId]._player1address, gameInformation[gameId]._player2address, gameId) */\n      add\n      swap1\n      log1\n        /* \"Practical5-Tick-Tack-Toe-More-Jason.sol\":3303:4105  if(gameInformation[gameId]._playerCount == 1){... */\n      jump(tag_295)\n    tag_267:\n        /* \"Practical5-Tick-Tack-Toe-More-Jason.sol\":3986:4001  gameInformation */\n      0x00\n        /* \"Practical5-Tick-Tack-Toe-More-Jason.sol\":4002:4008  gameId */\n      dup2\n        /* \"Practical5-Tick-Tack-Toe-More-Jason.sol\":3986:4009  gameInformation[gameId] */\n      dup2\n      sload\n      dup2\n      lt\n      tag_293\n      jumpi\n      tag_293\n      tag_64\n      jump\t// in\n    tag_293:\n      swap1\n      0x00\n      mstore\n      keccak256(0x00, 0x20)\n      swap1\n      0x08\n      mul\n      add\n        /* \"Practical5-Tick-Tack-Toe-More-Jason.sol\":3986:4022  gameInformation[gameId]._playerCount */\n      0x06\n      add\n      sload\n        /* \"Practical5-Tick-Tack-Toe-More-Jason.sol\":4026:4027  2 */\n      0x02\n        /* \"Practical5-Tick-Tack-Toe-More-Jason.sol\":3986:4027  gameInformation[gameId]._playerCount == 2 */\n      eq\n        /* \"Practical5-Tick-Tack-Toe-More-Jason.sol\":3978:4093  require(gameInformation[gameId]._playerCount == 2,\"Now queue is full, try later. Game already full pls join other\") */\n      tag_295\n      jumpi\n      mload(0x40)\n      shl(0xe5, 0x461bcd)\n      dup2\n      mstore\n        /* \"#utility.yul\":18206:18208   */\n      0x20\n        /* \"Practical5-Tick-Tack-Toe-More-Jason.sol\":3978:4093  require(gameInformation[gameId]._playerCount == 2,\"Now queue is full, try later. Game already full pls join other\") */\n      0x04\n      dup3\n      add\n        /* \"#utility.yul\":18188:18209   */\n      mstore\n        /* \"#utility.yul\":18245:18247   */\n      0x3e\n        /* \"#utility.yul\":18225:18243   */\n      0x24\n      dup3\n      add\n        /* \"#utility.yul\":18218:18248   */\n      mstore\n        /* \"#utility.yul\":18284:18318   */\n      0x4e6f772071756575652069732066756c6c2c20747279206c617465722e204761\n        /* \"#utility.yul\":18264:18282   */\n      0x44\n      dup3\n      add\n        /* \"#utility.yul\":18257:18319   */\n      mstore\n        /* \"#utility.yul\":18355:18387   */\n      0x6d6520616c72656164792066756c6c20706c73206a6f696e206f746865720000\n        /* \"#utility.yul\":18335:18353   */\n      0x64\n      dup3\n      add\n        /* \"#utility.yul\":18328:18388   */\n      mstore\n        /* \"#utility.yul\":18405:18424   */\n      0x84\n      add\n        /* \"Practical5-Tick-Tack-Toe-More-Jason.sol\":3978:4093  require(gameInformation[gameId]._playerCount == 2,\"Now queue is full, try later. Game already full pls join other\") */\n      tag_72\n        /* \"#utility.yul\":18004:18430   */\n      jump\n        /* \"Practical5-Tick-Tack-Toe-More-Jason.sol\":3978:4093  require(gameInformation[gameId]._playerCount == 2,\"Now queue is full, try later. Game already full pls join other\") */\n    tag_295:\n        /* \"Practical5-Tick-Tack-Toe-More-Jason.sol\":4161:4202  joinRoom(gameInformation[gameId], gameId) */\n      0xe5fec41b03dea13e32365d514866799a1ea13b31ed7df1eed2092b1dbdb7abe7\n        /* \"Practical5-Tick-Tack-Toe-More-Jason.sol\":4170:4185  gameInformation */\n      0x00\n        /* \"Practical5-Tick-Tack-Toe-More-Jason.sol\":4186:4192  gameId */\n      dup3\n        /* \"Practical5-Tick-Tack-Toe-More-Jason.sol\":4170:4193  gameInformation[gameId] */\n      dup2\n      sload\n      dup2\n      lt\n      tag_299\n      jumpi\n      tag_299\n      tag_64\n      jump\t// in\n    tag_299:\n      swap1\n      0x00\n      mstore\n      keccak256(0x00, 0x20)\n      swap1\n      0x08\n      mul\n      add\n        /* \"Practical5-Tick-Tack-Toe-More-Jason.sol\":4195:4201  gameId */\n      dup3\n        /* \"Practical5-Tick-Tack-Toe-More-Jason.sol\":4161:4202  joinRoom(gameInformation[gameId], gameId) */\n      mload(0x40)\n      tag_115\n      swap3\n      swap2\n      swap1\n      tag_302\n      jump\t// in\n        /* \"Practical5-Tick-Tack-Toe-More-Jason.sol\":9557:9773  function checkAddress (uint gameId) private view returns (bool) {... */\n    tag_70:\n        /* \"Practical5-Tick-Tack-Toe-More-Jason.sol\":9615:9619  bool */\n      0x00\n        /* \"Practical5-Tick-Tack-Toe-More-Jason.sol\":9653:9668  gameInformation */\n      dup1\n        /* \"Practical5-Tick-Tack-Toe-More-Jason.sol\":9669:9675  gameId */\n      dup3\n        /* \"Practical5-Tick-Tack-Toe-More-Jason.sol\":9653:9676  gameInformation[gameId] */\n      dup2\n      sload\n      dup2\n      lt\n      tag_305\n      jumpi\n      tag_305\n      tag_64\n      jump\t// in\n    tag_305:\n      0x00\n      swap2\n      dup3\n      mstore\n      0x20\n      swap1\n      swap2\n      keccak256\n      0x08\n      swap1\n      swap2\n      mul\n      add\n        /* \"Practical5-Tick-Tack-Toe-More-Jason.sol\":9653:9692  gameInformation[gameId]._player1address */\n      0x04\n      add\n      sload\n      sub(shl(0xa0, 0x01), 0x01)\n      and\n        /* \"Practical5-Tick-Tack-Toe-More-Jason.sol\":9639:9649  msg.sender */\n      caller\n        /* \"Practical5-Tick-Tack-Toe-More-Jason.sol\":9639:9692  msg.sender == gameInformation[gameId]._player1address */\n      eq\n      dup1\n        /* \"Practical5-Tick-Tack-Toe-More-Jason.sol\":9639:9749  msg.sender == gameInformation[gameId]._player1address || msg.sender == gameInformation[gameId]._player2address */\n      tag_307\n      jumpi\n      pop\n        /* \"Practical5-Tick-Tack-Toe-More-Jason.sol\":9710:9725  gameInformation */\n      0x00\n        /* \"Practical5-Tick-Tack-Toe-More-Jason.sol\":9726:9732  gameId */\n      dup3\n        /* \"Practical5-Tick-Tack-Toe-More-Jason.sol\":9710:9733  gameInformation[gameId] */\n      dup2\n      sload\n      dup2\n      lt\n      tag_309\n      jumpi\n      tag_309\n      tag_64\n      jump\t// in\n    tag_309:\n      0x00\n      swap2\n      dup3\n      mstore\n      0x20\n      swap1\n      swap2\n      keccak256\n      0x08\n      swap1\n      swap2\n      mul\n      add\n        /* \"Practical5-Tick-Tack-Toe-More-Jason.sol\":9710:9749  gameInformation[gameId]._player2address */\n      0x05\n      add\n      sload\n      sub(shl(0xa0, 0x01), 0x01)\n      and\n        /* \"Practical5-Tick-Tack-Toe-More-Jason.sol\":9696:9706  msg.sender */\n      caller\n        /* \"Practical5-Tick-Tack-Toe-More-Jason.sol\":9696:9749  msg.sender == gameInformation[gameId]._player2address */\n      eq\n        /* \"Practical5-Tick-Tack-Toe-More-Jason.sol\":9639:9749  msg.sender == gameInformation[gameId]._player1address || msg.sender == gameInformation[gameId]._player2address */\n    tag_307:\n        /* \"Practical5-Tick-Tack-Toe-More-Jason.sol\":9639:9764  msg.sender == gameInformation[gameId]._player1address || msg.sender == gameInformation[gameId]._player2address ? true : false */\n      tag_311\n      jumpi\n        /* \"Practical5-Tick-Tack-Toe-More-Jason.sol\":9759:9764  false */\n      0x00\n        /* \"Practical5-Tick-Tack-Toe-More-Jason.sol\":9639:9764  msg.sender == gameInformation[gameId]._player1address || msg.sender == gameInformation[gameId]._player2address ? true : false */\n      jump(tag_247)\n    tag_311:\n        /* \"Practical5-Tick-Tack-Toe-More-Jason.sol\":9752:9756  true */\n      0x01\n        /* \"Practical5-Tick-Tack-Toe-More-Jason.sol\":9632:9764  return msg.sender == gameInformation[gameId]._player1address || msg.sender == gameInformation[gameId]._player2address ? true : false */\n      swap3\n        /* \"Practical5-Tick-Tack-Toe-More-Jason.sol\":9557:9773  function checkAddress (uint gameId) private view returns (bool) {... */\n      swap2\n      pop\n      pop\n      jump\t// out\n        /* \"Practical5-Tick-Tack-Toe-More-Jason.sol\":5349:7680  function checkWinner (uint gameId) private {... */\n    tag_179:\n        /* \"Practical5-Tick-Tack-Toe-More-Jason.sol\":5403:5415  bool userWon */\n      0x00\n        /* \"Practical5-Tick-Tack-Toe-More-Jason.sol\":5541:5547  uint i */\n      dup1\n        /* \"Practical5-Tick-Tack-Toe-More-Jason.sol\":5537:6912  for(uint i = 0 ; i < winConditionSet.length; i++){... */\n    tag_314:\n        /* \"Practical5-Tick-Tack-Toe-More-Jason.sol\":5558:5573  winConditionSet */\n      0x01\n        /* \"Practical5-Tick-Tack-Toe-More-Jason.sol\":5558:5580  winConditionSet.length */\n      sload\n        /* \"Practical5-Tick-Tack-Toe-More-Jason.sol\":5554:5580  i < winConditionSet.length */\n      dup2\n      lt\n        /* \"Practical5-Tick-Tack-Toe-More-Jason.sol\":5537:6912  for(uint i = 0 ; i < winConditionSet.length; i++){... */\n      iszero\n      tag_315\n      jumpi\n        /* \"Practical5-Tick-Tack-Toe-More-Jason.sol\":5601:5627  uint[] memory winCondition */\n      0x00\n        /* \"Practical5-Tick-Tack-Toe-More-Jason.sol\":5630:5645  winConditionSet */\n      0x01\n        /* \"Practical5-Tick-Tack-Toe-More-Jason.sol\":5646:5647  i */\n      dup3\n        /* \"Practical5-Tick-Tack-Toe-More-Jason.sol\":5630:5648  winConditionSet[i] */\n      dup2\n      sload\n      dup2\n      lt\n      tag_318\n      jumpi\n      tag_318\n      tag_64\n      jump\t// in\n    tag_318:\n      swap1\n      0x00\n      mstore\n      keccak256(0x00, 0x20)\n      add\n        /* \"Practical5-Tick-Tack-Toe-More-Jason.sol\":5601:5648  uint[] memory winCondition = winConditionSet[i] */\n      dup1\n      sload\n      dup1\n      0x20\n      mul\n      0x20\n      add\n      mload(0x40)\n      swap1\n      dup2\n      add\n      0x40\n      mstore\n      dup1\n      swap3\n      swap2\n      swap1\n      dup2\n      dup2\n      mstore\n      0x20\n      add\n      dup3\n      dup1\n      sload\n      dup1\n      iszero\n      tag_320\n      jumpi\n      0x20\n      mul\n      dup3\n      add\n      swap2\n      swap1\n      0x00\n      mstore\n      keccak256(0x00, 0x20)\n      swap1\n    tag_321:\n      dup2\n      sload\n      dup2\n      mstore\n      0x20\n      add\n      swap1\n      0x01\n      add\n      swap1\n      dup1\n      dup4\n      gt\n      tag_321\n      jumpi\n    tag_320:\n      pop\n      pop\n      pop\n      pop\n      pop\n      swap1\n      pop\n        /* \"Practical5-Tick-Tack-Toe-More-Jason.sol\":5722:5743  string memory resultA */\n      0x00\n        /* \"Practical5-Tick-Tack-Toe-More-Jason.sol\":5745:5760  gameInformation */\n      dup1\n        /* \"Practical5-Tick-Tack-Toe-More-Jason.sol\":5761:5767  gameId */\n      dup6\n        /* \"Practical5-Tick-Tack-Toe-More-Jason.sol\":5745:5768  gameInformation[gameId] */\n      dup2\n      sload\n      dup2\n      lt\n      tag_323\n      jumpi\n      tag_323\n      tag_64\n      jump\t// in\n    tag_323:\n      swap1\n      0x00\n      mstore\n      keccak256(0x00, 0x20)\n      swap1\n      0x08\n      mul\n      add\n        /* \"Practical5-Tick-Tack-Toe-More-Jason.sol\":5745:5777  gameInformation[gameId]._options */\n      0x02\n      add\n        /* \"Practical5-Tick-Tack-Toe-More-Jason.sol\":5778:5790  winCondition */\n      dup3\n        /* \"Practical5-Tick-Tack-Toe-More-Jason.sol\":5791:5792  0 */\n      0x00\n        /* \"Practical5-Tick-Tack-Toe-More-Jason.sol\":5778:5793  winCondition[0] */\n      dup2\n      mload\n      dup2\n      lt\n      tag_326\n      jumpi\n      tag_326\n      tag_64\n      jump\t// in\n    tag_326:\n      0x20\n      mul\n      0x20\n      add\n      add\n      mload\n        /* \"Practical5-Tick-Tack-Toe-More-Jason.sol\":5745:5794  gameInformation[gameId]._options[winCondition[0]] */\n      dup2\n      sload\n      dup2\n      lt\n      tag_328\n      jumpi\n      tag_328\n      tag_64\n      jump\t// in\n    tag_328:\n      swap1\n      0x00\n      mstore\n      keccak256(0x00, 0x20)\n      add\n        /* \"Practical5-Tick-Tack-Toe-More-Jason.sol\":5722:5794  string memory resultA= gameInformation[gameId]._options[winCondition[0]] */\n      dup1\n      sload\n      tag_330\n      swap1\n      tag_86\n      jump\t// in\n    tag_330:\n      dup1\n      0x1f\n      add\n      0x20\n      dup1\n      swap2\n      div\n      mul\n      0x20\n      add\n      mload(0x40)\n      swap1\n      dup2\n      add\n      0x40\n      mstore\n      dup1\n      swap3\n      swap2\n      swap1\n      dup2\n      dup2\n      mstore\n      0x20\n      add\n      dup3\n      dup1\n      sload\n      tag_331\n      swap1\n      tag_86\n      jump\t// in\n    tag_331:\n      dup1\n      iszero\n      tag_332\n      jumpi\n      dup1\n      0x1f\n      lt\n      tag_333\n      jumpi\n      0x0100\n      dup1\n      dup4\n      sload\n      div\n      mul\n      dup4\n      mstore\n      swap2\n      0x20\n      add\n      swap2\n      jump(tag_332)\n    tag_333:\n      dup3\n      add\n      swap2\n      swap1\n      0x00\n      mstore\n      keccak256(0x00, 0x20)\n      swap1\n    tag_334:\n      dup2\n      sload\n      dup2\n      mstore\n      swap1\n      0x01\n      add\n      swap1\n      0x20\n      add\n      dup1\n      dup4\n      gt\n      tag_334\n      jumpi\n      dup3\n      swap1\n      sub\n      0x1f\n      and\n      dup3\n      add\n      swap2\n    tag_332:\n      pop\n      pop\n      pop\n      pop\n      pop\n      swap1\n      pop\n        /* \"Practical5-Tick-Tack-Toe-More-Jason.sol\":5809:5830  string memory resultB */\n      0x00\n        /* \"Practical5-Tick-Tack-Toe-More-Jason.sol\":5832:5847  gameInformation */\n      dup1\n        /* \"Practical5-Tick-Tack-Toe-More-Jason.sol\":5848:5854  gameId */\n      dup7\n        /* \"Practical5-Tick-Tack-Toe-More-Jason.sol\":5832:5855  gameInformation[gameId] */\n      dup2\n      sload\n      dup2\n      lt\n      tag_336\n      jumpi\n      tag_336\n      tag_64\n      jump\t// in\n    tag_336:\n      swap1\n      0x00\n      mstore\n      keccak256(0x00, 0x20)\n      swap1\n      0x08\n      mul\n      add\n        /* \"Practical5-Tick-Tack-Toe-More-Jason.sol\":5832:5864  gameInformation[gameId]._options */\n      0x02\n      add\n        /* \"Practical5-Tick-Tack-Toe-More-Jason.sol\":5865:5877  winCondition */\n      dup4\n        /* \"Practical5-Tick-Tack-Toe-More-Jason.sol\":5878:5879  1 */\n      0x01\n        /* \"Practical5-Tick-Tack-Toe-More-Jason.sol\":5865:5880  winCondition[1] */\n      dup2\n      mload\n      dup2\n      lt\n      tag_339\n      jumpi\n      tag_339\n      tag_64\n      jump\t// in\n    tag_339:\n      0x20\n      mul\n      0x20\n      add\n      add\n      mload\n        /* \"Practical5-Tick-Tack-Toe-More-Jason.sol\":5832:5881  gameInformation[gameId]._options[winCondition[1]] */\n      dup2\n      sload\n      dup2\n      lt\n      tag_341\n      jumpi\n      tag_341\n      tag_64\n      jump\t// in\n    tag_341:\n      swap1\n      0x00\n      mstore\n      keccak256(0x00, 0x20)\n      add\n        /* \"Practical5-Tick-Tack-Toe-More-Jason.sol\":5809:5881  string memory resultB= gameInformation[gameId]._options[winCondition[1]] */\n      dup1\n      sload\n      tag_343\n      swap1\n      tag_86\n      jump\t// in\n    tag_343:\n      dup1\n      0x1f\n      add\n      0x20\n      dup1\n      swap2\n      div\n      mul\n      0x20\n      add\n      mload(0x40)\n      swap1\n      dup2\n      add\n      0x40\n      mstore\n      dup1\n      swap3\n      swap2\n      swap1\n      dup2\n      dup2\n      mstore\n      0x20\n      add\n      dup3\n      dup1\n      sload\n      tag_344\n      swap1\n      tag_86\n      jump\t// in\n    tag_344:\n      dup1\n      iszero\n      tag_345\n      jumpi\n      dup1\n      0x1f\n      lt\n      tag_346\n      jumpi\n      0x0100\n      dup1\n      dup4\n      sload\n      div\n      mul\n      dup4\n      mstore\n      swap2\n      0x20\n      add\n      swap2\n      jump(tag_345)\n    tag_346:\n      dup3\n      add\n      swap2\n      swap1\n      0x00\n      mstore\n      keccak256(0x00, 0x20)\n      swap1\n    tag_347:\n      dup2\n      sload\n      dup2\n      mstore\n      swap1\n      0x01\n      add\n      swap1\n      0x20\n      add\n      dup1\n      dup4\n      gt\n      tag_347\n      jumpi\n      dup3\n      swap1\n      sub\n      0x1f\n      and\n      dup3\n      add\n      swap2\n    tag_345:\n      pop\n      pop\n      pop\n      pop\n      pop\n      swap1\n      pop\n        /* \"Practical5-Tick-Tack-Toe-More-Jason.sol\":5896:5917  string memory resultC */\n      0x00\n        /* \"Practical5-Tick-Tack-Toe-More-Jason.sol\":5919:5934  gameInformation */\n      dup1\n        /* \"Practical5-Tick-Tack-Toe-More-Jason.sol\":5935:5941  gameId */\n      dup8\n        /* \"Practical5-Tick-Tack-Toe-More-Jason.sol\":5919:5942  gameInformation[gameId] */\n      dup2\n      sload\n      dup2\n      lt\n      tag_349\n      jumpi\n      tag_349\n      tag_64\n      jump\t// in\n    tag_349:\n      swap1\n      0x00\n      mstore\n      keccak256(0x00, 0x20)\n      swap1\n      0x08\n      mul\n      add\n        /* \"Practical5-Tick-Tack-Toe-More-Jason.sol\":5919:5951  gameInformation[gameId]._options */\n      0x02\n      add\n        /* \"Practical5-Tick-Tack-Toe-More-Jason.sol\":5952:5964  winCondition */\n      dup5\n        /* \"Practical5-Tick-Tack-Toe-More-Jason.sol\":5965:5966  2 */\n      0x02\n        /* \"Practical5-Tick-Tack-Toe-More-Jason.sol\":5952:5967  winCondition[2] */\n      dup2\n      mload\n      dup2\n      lt\n      tag_352\n      jumpi\n      tag_352\n      tag_64\n      jump\t// in\n    tag_352:\n      0x20\n      mul\n      0x20\n      add\n      add\n      mload\n        /* \"Practical5-Tick-Tack-Toe-More-Jason.sol\":5919:5968  gameInformation[gameId]._options[winCondition[2]] */\n      dup2\n      sload\n      dup2\n      lt\n      tag_354\n      jumpi\n      tag_354\n      tag_64\n      jump\t// in\n    tag_354:\n      swap1\n      0x00\n      mstore\n      keccak256(0x00, 0x20)\n      add\n        /* \"Practical5-Tick-Tack-Toe-More-Jason.sol\":5896:5968  string memory resultC= gameInformation[gameId]._options[winCondition[2]] */\n      dup1\n      sload\n      tag_356\n      swap1\n      tag_86\n      jump\t// in\n    tag_356:\n      dup1\n      0x1f\n      add\n      0x20\n      dup1\n      swap2\n      div\n      mul\n      0x20\n      add\n      mload(0x40)\n      swap1\n      dup2\n      add\n      0x40\n      mstore\n      dup1\n      swap3\n      swap2\n      swap1\n      dup2\n      dup2\n      mstore\n      0x20\n      add\n      dup3\n      dup1\n      sload\n      tag_357\n      swap1\n      tag_86\n      jump\t// in\n    tag_357:\n      dup1\n      iszero\n      tag_358\n      jumpi\n      dup1\n      0x1f\n      lt\n      tag_359\n      jumpi\n      0x0100\n      dup1\n      dup4\n      sload\n      div\n      mul\n      dup4\n      mstore\n      swap2\n      0x20\n      add\n      swap2\n      jump(tag_358)\n    tag_359:\n      dup3\n      add\n      swap2\n      swap1\n      0x00\n      mstore\n      keccak256(0x00, 0x20)\n      swap1\n    tag_360:\n      dup2\n      sload\n      dup2\n      mstore\n      swap1\n      0x01\n      add\n      swap1\n      0x20\n      add\n      dup1\n      dup4\n      gt\n      tag_360\n      jumpi\n      dup3\n      swap1\n      sub\n      0x1f\n      and\n      dup3\n      add\n      swap2\n    tag_358:\n      pop\n      pop\n      pop\n      pop\n      pop\n      swap1\n      pop\n        /* \"Practical5-Tick-Tack-Toe-More-Jason.sol\":6187:6214  compareStrings(resultA, \"\") */\n      tag_361\n        /* \"Practical5-Tick-Tack-Toe-More-Jason.sol\":6202:6209  resultA */\n      dup4\n        /* \"Practical5-Tick-Tack-Toe-More-Jason.sol\":6187:6214  compareStrings(resultA, \"\") */\n      mload(0x40)\n      dup1\n      0x20\n      add\n      0x40\n      mstore\n      dup1\n      0x00\n      dup2\n      mstore\n      pop\n        /* \"Practical5-Tick-Tack-Toe-More-Jason.sol\":6187:6201  compareStrings */\n      tag_50\n        /* \"Practical5-Tick-Tack-Toe-More-Jason.sol\":6187:6214  compareStrings(resultA, \"\") */\n      jump\t// in\n    tag_361:\n        /* \"Practical5-Tick-Tack-Toe-More-Jason.sol\":6187:6243  compareStrings(resultA, \"\")||compareStrings(resultB, \"\") */\n      dup1\n      tag_363\n      jumpi\n      pop\n        /* \"Practical5-Tick-Tack-Toe-More-Jason.sol\":6216:6243  compareStrings(resultB, \"\") */\n      tag_363\n        /* \"Practical5-Tick-Tack-Toe-More-Jason.sol\":6231:6238  resultB */\n      dup3\n        /* \"Practical5-Tick-Tack-Toe-More-Jason.sol\":6216:6243  compareStrings(resultB, \"\") */\n      mload(0x40)\n      dup1\n      0x20\n      add\n      0x40\n      mstore\n      dup1\n      0x00\n      dup2\n      mstore\n      pop\n        /* \"Practical5-Tick-Tack-Toe-More-Jason.sol\":6216:6230  compareStrings */\n      tag_50\n        /* \"Practical5-Tick-Tack-Toe-More-Jason.sol\":6216:6243  compareStrings(resultB, \"\") */\n      jump\t// in\n    tag_363:\n        /* \"Practical5-Tick-Tack-Toe-More-Jason.sol\":6187:6272  compareStrings(resultA, \"\")||compareStrings(resultB, \"\")||compareStrings(resultC, \"\") */\n      dup1\n      tag_365\n      jumpi\n      pop\n        /* \"Practical5-Tick-Tack-Toe-More-Jason.sol\":6245:6272  compareStrings(resultC, \"\") */\n      tag_365\n        /* \"Practical5-Tick-Tack-Toe-More-Jason.sol\":6260:6267  resultC */\n      dup2\n        /* \"Practical5-Tick-Tack-Toe-More-Jason.sol\":6245:6272  compareStrings(resultC, \"\") */\n      mload(0x40)\n      dup1\n      0x20\n      add\n      0x40\n      mstore\n      dup1\n      0x00\n      dup2\n      mstore\n      pop\n        /* \"Practical5-Tick-Tack-Toe-More-Jason.sol\":6245:6259  compareStrings */\n      tag_50\n        /* \"Practical5-Tick-Tack-Toe-More-Jason.sol\":6245:6272  compareStrings(resultC, \"\") */\n      jump\t// in\n    tag_365:\n        /* \"Practical5-Tick-Tack-Toe-More-Jason.sol\":6184:6316  if(compareStrings(resultA, \"\")||compareStrings(resultB, \"\")||compareStrings(resultC, \"\")){... */\n      iszero\n      tag_366\n      jumpi\n        /* \"Practical5-Tick-Tack-Toe-More-Jason.sol\":6292:6300  continue */\n      pop\n      pop\n      pop\n      pop\n      jump(tag_316)\n        /* \"Practical5-Tick-Tack-Toe-More-Jason.sol\":6184:6316  if(compareStrings(resultA, \"\")||compareStrings(resultB, \"\")||compareStrings(resultC, \"\")){... */\n    tag_366:\n        /* \"Practical5-Tick-Tack-Toe-More-Jason.sol\":6333:6365  compareStrings(resultA, resultB) */\n      tag_367\n        /* \"Practical5-Tick-Tack-Toe-More-Jason.sol\":6348:6355  resultA */\n      dup4\n        /* \"Practical5-Tick-Tack-Toe-More-Jason.sol\":6357:6364  resultB */\n      dup4\n        /* \"Practical5-Tick-Tack-Toe-More-Jason.sol\":6333:6347  compareStrings */\n      tag_50\n        /* \"Practical5-Tick-Tack-Toe-More-Jason.sol\":6333:6365  compareStrings(resultA, resultB) */\n      jump\t// in\n    tag_367:\n        /* \"Practical5-Tick-Tack-Toe-More-Jason.sol\":6333:6401  compareStrings(resultA, resultB) && compareStrings(resultB, resultC) */\n      dup1\n      iszero\n      tag_369\n      jumpi\n      pop\n        /* \"Practical5-Tick-Tack-Toe-More-Jason.sol\":6369:6401  compareStrings(resultB, resultC) */\n      tag_369\n        /* \"Practical5-Tick-Tack-Toe-More-Jason.sol\":6384:6391  resultB */\n      dup3\n        /* \"Practical5-Tick-Tack-Toe-More-Jason.sol\":6393:6400  resultC */\n      dup3\n        /* \"Practical5-Tick-Tack-Toe-More-Jason.sol\":6369:6383  compareStrings */\n      tag_50\n        /* \"Practical5-Tick-Tack-Toe-More-Jason.sol\":6369:6401  compareStrings(resultB, resultC) */\n      jump\t// in\n    tag_369:\n        /* \"Practical5-Tick-Tack-Toe-More-Jason.sol\":6330:6901  if(compareStrings(resultA, resultB) && compareStrings(resultB, resultC)){... */\n      iszero\n      tag_370\n      jumpi\n        /* \"Practical5-Tick-Tack-Toe-More-Jason.sol\":6463:6475  winCondition */\n      dup4\n        /* \"Practical5-Tick-Tack-Toe-More-Jason.sol\":6421:6436  gameInformation */\n      0x00\n        /* \"Practical5-Tick-Tack-Toe-More-Jason.sol\":6437:6443  gameId */\n      dup9\n        /* \"Practical5-Tick-Tack-Toe-More-Jason.sol\":6421:6444  gameInformation[gameId] */\n      dup2\n      sload\n      dup2\n      lt\n      tag_372\n      jumpi\n      tag_372\n      tag_64\n      jump\t// in\n    tag_372:\n      swap1\n      0x00\n      mstore\n      keccak256(0x00, 0x20)\n      swap1\n      0x08\n      mul\n      add\n        /* \"Practical5-Tick-Tack-Toe-More-Jason.sol\":6421:6460  gameInformation[gameId]._finalWinOption */\n      0x03\n      add\n        /* \"Practical5-Tick-Tack-Toe-More-Jason.sol\":6421:6475  gameInformation[gameId]._finalWinOption = winCondition */\n      swap1\n      dup1\n      mload\n      swap1\n      0x20\n      add\n      swap1\n      tag_374\n      swap3\n      swap2\n      swap1\n      tag_195\n      jump\t// in\n    tag_374:\n      pop\n        /* \"Practical5-Tick-Tack-Toe-More-Jason.sol\":6515:6574  compareStrings(gameInformation[gameId]._currentPlayer, \"X\") */\n      tag_375\n        /* \"Practical5-Tick-Tack-Toe-More-Jason.sol\":6530:6545  gameInformation */\n      0x00\n        /* \"Practical5-Tick-Tack-Toe-More-Jason.sol\":6546:6552  gameId */\n      dup9\n        /* \"Practical5-Tick-Tack-Toe-More-Jason.sol\":6530:6553  gameInformation[gameId] */\n      dup2\n      sload\n      dup2\n      lt\n      tag_141\n      jumpi\n      tag_141\n      tag_64\n      jump\t// in\n        /* \"Practical5-Tick-Tack-Toe-More-Jason.sol\":6515:6574  compareStrings(gameInformation[gameId]._currentPlayer, \"X\") */\n    tag_375:\n        /* \"Practical5-Tick-Tack-Toe-More-Jason.sol\":6512:6811  if(compareStrings(gameInformation[gameId]._currentPlayer, \"X\")){... */\n      iszero\n      tag_384\n      jumpi\n        /* \"Practical5-Tick-Tack-Toe-More-Jason.sol\":6631:6646  gameInformation */\n      0x00\n        /* \"Practical5-Tick-Tack-Toe-More-Jason.sol\":6647:6653  gameId */\n      dup8\n        /* \"Practical5-Tick-Tack-Toe-More-Jason.sol\":6631:6654  gameInformation[gameId] */\n      dup2\n      sload\n      dup2\n      lt\n      tag_386\n      jumpi\n      tag_386\n      tag_64\n      jump\t// in\n    tag_386:\n      0x00\n      swap2\n      dup3\n      mstore\n      0x20\n      dup3\n      keccak256\n        /* \"Practical5-Tick-Tack-Toe-More-Jason.sol\":6631:6670  gameInformation[gameId]._player1address */\n      0x04\n        /* \"Practical5-Tick-Tack-Toe-More-Jason.sol\":6631:6654  gameInformation[gameId] */\n      0x08\n      swap1\n      swap3\n      mul\n      add\n        /* \"Practical5-Tick-Tack-Toe-More-Jason.sol\":6631:6670  gameInformation[gameId]._player1address */\n      add\n      sload\n        /* \"Practical5-Tick-Tack-Toe-More-Jason.sol\":6598:6621  gameInformation[gameId] */\n      dup2\n      sload\n      sub(shl(0xa0, 0x01), 0x01)\n        /* \"Practical5-Tick-Tack-Toe-More-Jason.sol\":6631:6670  gameInformation[gameId]._player1address */\n      swap1\n      swap2\n      and\n      swap2\n        /* \"Practical5-Tick-Tack-Toe-More-Jason.sol\":6631:6654  gameInformation[gameId] */\n      swap1\n        /* \"Practical5-Tick-Tack-Toe-More-Jason.sol\":6614:6620  gameId */\n      dup10\n      swap1\n        /* \"Practical5-Tick-Tack-Toe-More-Jason.sol\":6598:6621  gameInformation[gameId] */\n      dup2\n      lt\n      tag_389\n      jumpi\n      tag_389\n      tag_64\n      jump\t// in\n    tag_389:\n      swap1\n      0x00\n      mstore\n      keccak256(0x00, 0x20)\n      swap1\n      0x08\n      mul\n      add\n        /* \"Practical5-Tick-Tack-Toe-More-Jason.sol\":6598:6628  gameInformation[gameId]._winer */\n      0x07\n      add\n      0x00\n        /* \"Practical5-Tick-Tack-Toe-More-Jason.sol\":6598:6670  gameInformation[gameId]._winer = gameInformation[gameId]._player1address */\n      0x0100\n      exp\n      dup2\n      sload\n      dup2\n      sub(shl(0xa0, 0x01), 0x01)\n      mul\n      not\n      and\n      swap1\n      dup4\n      sub(shl(0xa0, 0x01), 0x01)\n      and\n      mul\n      or\n      swap1\n      sstore\n      pop\n        /* \"Practical5-Tick-Tack-Toe-More-Jason.sol\":6512:6811  if(compareStrings(gameInformation[gameId]._currentPlayer, \"X\")){... */\n      jump(tag_391)\n    tag_384:\n        /* \"Practical5-Tick-Tack-Toe-More-Jason.sol\":6752:6767  gameInformation */\n      0x00\n        /* \"Practical5-Tick-Tack-Toe-More-Jason.sol\":6768:6774  gameId */\n      dup8\n        /* \"Practical5-Tick-Tack-Toe-More-Jason.sol\":6752:6775  gameInformation[gameId] */\n      dup2\n      sload\n      dup2\n      lt\n      tag_393\n      jumpi\n      tag_393\n      tag_64\n      jump\t// in\n    tag_393:\n      0x00\n      swap2\n      dup3\n      mstore\n      0x20\n      dup3\n      keccak256\n        /* \"Practical5-Tick-Tack-Toe-More-Jason.sol\":6752:6791  gameInformation[gameId]._player2address */\n      0x05\n        /* \"Practical5-Tick-Tack-Toe-More-Jason.sol\":6752:6775  gameInformation[gameId] */\n      0x08\n      swap1\n      swap3\n      mul\n      add\n        /* \"Practical5-Tick-Tack-Toe-More-Jason.sol\":6752:6791  gameInformation[gameId]._player2address */\n      add\n      sload\n        /* \"Practical5-Tick-Tack-Toe-More-Jason.sol\":6719:6742  gameInformation[gameId] */\n      dup2\n      sload\n      sub(shl(0xa0, 0x01), 0x01)\n        /* \"Practical5-Tick-Tack-Toe-More-Jason.sol\":6752:6791  gameInformation[gameId]._player2address */\n      swap1\n      swap2\n      and\n      swap2\n        /* \"Practical5-Tick-Tack-Toe-More-Jason.sol\":6752:6775  gameInformation[gameId] */\n      swap1\n        /* \"Practical5-Tick-Tack-Toe-More-Jason.sol\":6735:6741  gameId */\n      dup10\n      swap1\n        /* \"Practical5-Tick-Tack-Toe-More-Jason.sol\":6719:6742  gameInformation[gameId] */\n      dup2\n      lt\n      tag_396\n      jumpi\n      tag_396\n      tag_64\n      jump\t// in\n    tag_396:\n      swap1\n      0x00\n      mstore\n      keccak256(0x00, 0x20)\n      swap1\n      0x08\n      mul\n      add\n        /* \"Practical5-Tick-Tack-Toe-More-Jason.sol\":6719:6749  gameInformation[gameId]._winer */\n      0x07\n      add\n      0x00\n        /* \"Practical5-Tick-Tack-Toe-More-Jason.sol\":6719:6791  gameInformation[gameId]._winer = gameInformation[gameId]._player2address */\n      0x0100\n      exp\n      dup2\n      sload\n      dup2\n      sub(shl(0xa0, 0x01), 0x01)\n      mul\n      not\n      and\n      swap1\n      dup4\n      sub(shl(0xa0, 0x01), 0x01)\n      and\n      mul\n      or\n      swap1\n      sstore\n      pop\n        /* \"Practical5-Tick-Tack-Toe-More-Jason.sol\":6512:6811  if(compareStrings(gameInformation[gameId]._currentPlayer, \"X\")){... */\n    tag_391:\n        /* \"Practical5-Tick-Tack-Toe-More-Jason.sol\":6857:6861  true */\n      0x01\n        /* \"Practical5-Tick-Tack-Toe-More-Jason.sol\":6847:6861  userWon = true */\n      swap6\n      pop\n        /* \"Practical5-Tick-Tack-Toe-More-Jason.sol\":6880:6885  break */\n      pop\n      pop\n      pop\n      pop\n      jump(tag_315)\n        /* \"Practical5-Tick-Tack-Toe-More-Jason.sol\":6330:6901  if(compareStrings(resultA, resultB) && compareStrings(resultB, resultC)){... */\n    tag_370:\n        /* \"Practical5-Tick-Tack-Toe-More-Jason.sol\":5586:6912  {... */\n      pop\n      pop\n      pop\n      pop\n        /* \"Practical5-Tick-Tack-Toe-More-Jason.sol\":5537:6912  for(uint i = 0 ; i < winConditionSet.length; i++){... */\n    tag_316:\n        /* \"Practical5-Tick-Tack-Toe-More-Jason.sol\":5582:5585  i++ */\n      dup1\n      tag_398\n      dup2\n      tag_224\n      jump\t// in\n    tag_398:\n      swap2\n      pop\n      pop\n        /* \"Practical5-Tick-Tack-Toe-More-Jason.sol\":5537:6912  for(uint i = 0 ; i < winConditionSet.length; i++){... */\n      jump(tag_314)\n    tag_315:\n      pop\n        /* \"Practical5-Tick-Tack-Toe-More-Jason.sol\":7030:7037  userWon */\n      dup1\n        /* \"Practical5-Tick-Tack-Toe-More-Jason.sol\":7027:7673  if(userWon){... */\n      iszero\n      tag_399\n      jumpi\n        /* \"Practical5-Tick-Tack-Toe-More-Jason.sol\":7095:7153  showResult(gameInformation[gameId]._currentPlayer, gameId) */\n      0x938a1c44580c51d01225d61fb97878104148b1cdc734eb45bc5b5b50533a492d\n        /* \"Practical5-Tick-Tack-Toe-More-Jason.sol\":7106:7121  gameInformation */\n      0x00\n        /* \"Practical5-Tick-Tack-Toe-More-Jason.sol\":7122:7128  gameId */\n      dup4\n        /* \"Practical5-Tick-Tack-Toe-More-Jason.sol\":7106:7129  gameInformation[gameId] */\n      dup2\n      sload\n      dup2\n      lt\n      tag_401\n      jumpi\n      tag_401\n      tag_64\n      jump\t// in\n    tag_401:\n      swap1\n      0x00\n      mstore\n      keccak256(0x00, 0x20)\n      swap1\n      0x08\n      mul\n      add\n        /* \"Practical5-Tick-Tack-Toe-More-Jason.sol\":7106:7144  gameInformation[gameId]._currentPlayer */\n      0x01\n      add\n        /* \"Practical5-Tick-Tack-Toe-More-Jason.sol\":7146:7152  gameId */\n      dup4\n        /* \"Practical5-Tick-Tack-Toe-More-Jason.sol\":7095:7153  showResult(gameInformation[gameId]._currentPlayer, gameId) */\n      mload(0x40)\n      tag_403\n      swap3\n      swap2\n      swap1\n      tag_404\n      jump\t// in\n    tag_403:\n      mload(0x40)\n      dup1\n      swap2\n      sub\n      swap1\n      log1\n        /* \"Practical5-Tick-Tack-Toe-More-Jason.sol\":7261:7266  false */\n      0x00\n        /* \"Practical5-Tick-Tack-Toe-More-Jason.sol\":7225:7240  gameInformation */\n      dup1\n        /* \"Practical5-Tick-Tack-Toe-More-Jason.sol\":7241:7247  gameId */\n      dup4\n        /* \"Practical5-Tick-Tack-Toe-More-Jason.sol\":7225:7248  gameInformation[gameId] */\n      dup2\n      sload\n      dup2\n      lt\n      tag_406\n      jumpi\n      tag_406\n      tag_64\n      jump\t// in\n    tag_406:\n      0x00\n      swap2\n      dup3\n      mstore\n      0x20\n      swap1\n      swap2\n      keccak256\n      0x08\n      swap1\n      swap2\n      mul\n      add\n        /* \"Practical5-Tick-Tack-Toe-More-Jason.sol\":7225:7266  gameInformation[gameId]._activate = false */\n      dup1\n      sload\n      not(0xff)\n      and\n      swap2\n      iszero\n      iszero\n      swap2\n      swap1\n      swap2\n      or\n      swap1\n      sstore\n      pop\n      pop\n        /* \"Practical5-Tick-Tack-Toe-More-Jason.sol\":4316:5306  function userInput(uint input, uint gameId) external {... */\n      jump\t// out\n        /* \"Practical5-Tick-Tack-Toe-More-Jason.sol\":7027:7673  if(userWon){... */\n    tag_399:\n        /* \"Practical5-Tick-Tack-Toe-More-Jason.sol\":7319:7339  checkOptions(gameId) */\n      tag_409\n        /* \"Practical5-Tick-Tack-Toe-More-Jason.sol\":7332:7338  gameId */\n      dup3\n        /* \"Practical5-Tick-Tack-Toe-More-Jason.sol\":7319:7331  checkOptions */\n      tag_410\n        /* \"Practical5-Tick-Tack-Toe-More-Jason.sol\":7319:7339  checkOptions(gameId) */\n      jump\t// in\n    tag_409:\n        /* \"Practical5-Tick-Tack-Toe-More-Jason.sol\":7316:7673  if(checkOptions(gameId)){... */\n      iszero\n      tag_411\n      jumpi\n        /* \"Practical5-Tick-Tack-Toe-More-Jason.sol\":7400:7426  showResult(\"Draw\", gameId) */\n      0x40\n      dup1\n      mload\n        /* \"#utility.yul\":21107:21128   */\n      dup2\n      dup2\n      mstore\n        /* \"#utility.yul\":21164:21165   */\n      0x04\n        /* \"#utility.yul\":21144:21162   */\n      swap2\n      dup2\n      add\n        /* \"#utility.yul\":21137:21166   */\n      swap2\n      swap1\n      swap2\n      mstore\n      shl(0xe0, 0x44726177)\n        /* \"#utility.yul\":21197:21199   */\n      0x60\n        /* \"#utility.yul\":21182:21200   */\n      dup3\n      add\n        /* \"#utility.yul\":21175:21209   */\n      mstore\n        /* \"#utility.yul\":21276:21280   */\n      0x20\n        /* \"#utility.yul\":21261:21281   */\n      dup2\n      add\n        /* \"#utility.yul\":21254:21290   */\n      dup4\n      swap1\n      mstore\n        /* \"Practical5-Tick-Tack-Toe-More-Jason.sol\":7400:7426  showResult(\"Draw\", gameId) */\n      0x938a1c44580c51d01225d61fb97878104148b1cdc734eb45bc5b5b50533a492d\n      swap1\n        /* \"#utility.yul\":21241:21244   */\n      0x80\n        /* \"#utility.yul\":21226:21245   */\n      add\n        /* \"Practical5-Tick-Tack-Toe-More-Jason.sol\":7400:7426  showResult(\"Draw\", gameId) */\n      tag_403\n        /* \"#utility.yul\":20895:21296   */\n      jump\n        /* \"Practical5-Tick-Tack-Toe-More-Jason.sol\":7316:7673  if(checkOptions(gameId)){... */\n    tag_411:\n        /* \"Practical5-Tick-Tack-Toe-More-Jason.sol\":7641:7661  changePlayer(gameId) */\n      tag_178\n        /* \"Practical5-Tick-Tack-Toe-More-Jason.sol\":7654:7660  gameId */\n      dup3\n        /* \"Practical5-Tick-Tack-Toe-More-Jason.sol\":7641:7653  changePlayer */\n      tag_419\n        /* \"Practical5-Tick-Tack-Toe-More-Jason.sol\":7641:7661  changePlayer(gameId) */\n      jump\t// in\n        /* \"Practical5-Tick-Tack-Toe-More-Jason.sol\":8444:8852  function checkOptions(uint gameId) private view returns (bool) {... */\n    tag_410:\n        /* \"Practical5-Tick-Tack-Toe-More-Jason.sol\":8501:8505  bool */\n      0x00\n      dup1\n        /* \"Practical5-Tick-Tack-Toe-More-Jason.sol\":8625:8823  for(uint i = 0 ; i < gameInformation[gameId]._options.length; i++){... */\n    tag_421:\n        /* \"Practical5-Tick-Tack-Toe-More-Jason.sol\":8646:8661  gameInformation */\n      0x00\n        /* \"Practical5-Tick-Tack-Toe-More-Jason.sol\":8662:8668  gameId */\n      dup4\n        /* \"Practical5-Tick-Tack-Toe-More-Jason.sol\":8646:8669  gameInformation[gameId] */\n      dup2\n      sload\n      dup2\n      lt\n      tag_425\n      jumpi\n      tag_425\n      tag_64\n      jump\t// in\n    tag_425:\n      swap1\n      0x00\n      mstore\n      keccak256(0x00, 0x20)\n      swap1\n      0x08\n      mul\n      add\n        /* \"Practical5-Tick-Tack-Toe-More-Jason.sol\":8646:8678  gameInformation[gameId]._options */\n      0x02\n      add\n        /* \"Practical5-Tick-Tack-Toe-More-Jason.sol\":8646:8685  gameInformation[gameId]._options.length */\n      dup1\n      sload\n      swap1\n      pop\n        /* \"Practical5-Tick-Tack-Toe-More-Jason.sol\":8642:8643  i */\n      dup2\n        /* \"Practical5-Tick-Tack-Toe-More-Jason.sol\":8642:8685  i < gameInformation[gameId]._options.length */\n      lt\n        /* \"Practical5-Tick-Tack-Toe-More-Jason.sol\":8625:8823  for(uint i = 0 ; i < gameInformation[gameId]._options.length; i++){... */\n      iszero\n      tag_422\n      jumpi\n        /* \"Practical5-Tick-Tack-Toe-More-Jason.sol\":8709:8764  compareStrings(gameInformation[gameId]._options[i], \"\") */\n      tag_427\n        /* \"Practical5-Tick-Tack-Toe-More-Jason.sol\":8724:8739  gameInformation */\n      0x00\n        /* \"Practical5-Tick-Tack-Toe-More-Jason.sol\":8740:8746  gameId */\n      dup5\n        /* \"Practical5-Tick-Tack-Toe-More-Jason.sol\":8724:8747  gameInformation[gameId] */\n      dup2\n      sload\n      dup2\n      lt\n      tag_429\n      jumpi\n      tag_429\n      tag_64\n      jump\t// in\n    tag_429:\n      swap1\n      0x00\n      mstore\n      keccak256(0x00, 0x20)\n      swap1\n      0x08\n      mul\n      add\n        /* \"Practical5-Tick-Tack-Toe-More-Jason.sol\":8724:8756  gameInformation[gameId]._options */\n      0x02\n      add\n        /* \"Practical5-Tick-Tack-Toe-More-Jason.sol\":8757:8758  i */\n      dup3\n        /* \"Practical5-Tick-Tack-Toe-More-Jason.sol\":8724:8759  gameInformation[gameId]._options[i] */\n      dup2\n      sload\n      dup2\n      lt\n      tag_129\n      jumpi\n      tag_129\n      tag_64\n      jump\t// in\n        /* \"Practical5-Tick-Tack-Toe-More-Jason.sol\":8709:8764  compareStrings(gameInformation[gameId]._options[i], \"\") */\n    tag_427:\n        /* \"Practical5-Tick-Tack-Toe-More-Jason.sol\":8706:8812  if(compareStrings(gameInformation[gameId]._options[i], \"\")){... */\n      iszero\n      tag_439\n      jumpi\n      pop\n        /* \"Practical5-Tick-Tack-Toe-More-Jason.sol\":8791:8796  false */\n      0x00\n      swap3\n        /* \"Practical5-Tick-Tack-Toe-More-Jason.sol\":8444:8852  function checkOptions(uint gameId) private view returns (bool) {... */\n      swap2\n      pop\n      pop\n      jump\t// out\n        /* \"Practical5-Tick-Tack-Toe-More-Jason.sol\":8706:8812  if(compareStrings(gameInformation[gameId]._options[i], \"\")){... */\n    tag_439:\n        /* \"Practical5-Tick-Tack-Toe-More-Jason.sol\":8687:8690  i++ */\n      dup1\n      tag_440\n      dup2\n      tag_224\n      jump\t// in\n    tag_440:\n      swap2\n      pop\n      pop\n        /* \"Practical5-Tick-Tack-Toe-More-Jason.sol\":8625:8823  for(uint i = 0 ; i < gameInformation[gameId]._options.length; i++){... */\n      jump(tag_421)\n    tag_422:\n      pop\n        /* \"Practical5-Tick-Tack-Toe-More-Jason.sol\":8840:8844  true */\n      0x01\n      swap3\n        /* \"Practical5-Tick-Tack-Toe-More-Jason.sol\":8444:8852  function checkOptions(uint gameId) private view returns (bool) {... */\n      swap2\n      pop\n      pop\n      jump\t// out\n        /* \"Practical5-Tick-Tack-Toe-More-Jason.sol\":7717:8383  function changePlayer(uint gameId) private {... */\n    tag_419:\n        /* \"Practical5-Tick-Tack-Toe-More-Jason.sol\":7815:7874  compareStrings(gameInformation[gameId]._currentPlayer, \"X\") */\n      tag_442\n        /* \"Practical5-Tick-Tack-Toe-More-Jason.sol\":7830:7845  gameInformation */\n      0x00\n        /* \"Practical5-Tick-Tack-Toe-More-Jason.sol\":7846:7852  gameId */\n      dup3\n        /* \"Practical5-Tick-Tack-Toe-More-Jason.sol\":7830:7853  gameInformation[gameId] */\n      dup2\n      sload\n      dup2\n      lt\n      tag_141\n      jumpi\n      tag_141\n      tag_64\n      jump\t// in\n        /* \"Practical5-Tick-Tack-Toe-More-Jason.sol\":7815:7874  compareStrings(gameInformation[gameId]._currentPlayer, \"X\") */\n    tag_442:\n        /* \"Practical5-Tick-Tack-Toe-More-Jason.sol\":7812:8109  if(compareStrings(gameInformation[gameId]._currentPlayer, \"X\")){... */\n      iszero\n      tag_451\n      jumpi\n        /* \"Practical5-Tick-Tack-Toe-More-Jason.sol\":7895:7952  nextUser(gameInformation[gameId]._player2address, gameId) */\n      0xeefc3fd775b975165c9d067e02fcd5bf5889d58041ae6ddaf94f2cc853007272\n        /* \"Practical5-Tick-Tack-Toe-More-Jason.sol\":7904:7919  gameInformation */\n      0x00\n        /* \"Practical5-Tick-Tack-Toe-More-Jason.sol\":7920:7926  gameId */\n      dup3\n        /* \"Practical5-Tick-Tack-Toe-More-Jason.sol\":7904:7927  gameInformation[gameId] */\n      dup2\n      sload\n      dup2\n      lt\n      tag_453\n      jumpi\n      tag_453\n      tag_64\n      jump\t// in\n    tag_453:\n      0x00\n      swap2\n      dup3\n      mstore\n      0x20\n      swap2\n      dup3\n      swap1\n      keccak256\n      0x08\n      swap1\n      swap2\n      mul\n      add\n        /* \"Practical5-Tick-Tack-Toe-More-Jason.sol\":7904:7943  gameInformation[gameId]._player2address */\n      0x05\n      add\n      sload\n        /* \"Practical5-Tick-Tack-Toe-More-Jason.sol\":7895:7952  nextUser(gameInformation[gameId]._player2address, gameId) */\n      0x40\n      dup1\n      mload\n      sub(shl(0xa0, 0x01), 0x01)\n        /* \"Practical5-Tick-Tack-Toe-More-Jason.sol\":7904:7943  gameInformation[gameId]._player2address */\n      swap1\n      swap3\n      and\n        /* \"#utility.yul\":21475:21526   */\n      dup3\n      mstore\n        /* \"#utility.yul\":21542:21560   */\n      swap2\n      dup2\n      add\n        /* \"#utility.yul\":21535:21569   */\n      dup5\n      swap1\n      mstore\n        /* \"#utility.yul\":21448:21466   */\n      add\n        /* \"Practical5-Tick-Tack-Toe-More-Jason.sol\":7895:7952  nextUser(gameInformation[gameId]._player2address, gameId) */\n      mload(0x40)\n      dup1\n      swap2\n      sub\n      swap1\n      log1\n        /* \"Practical5-Tick-Tack-Toe-More-Jason.sol\":7812:8109  if(compareStrings(gameInformation[gameId]._currentPlayer, \"X\")){... */\n      jump(tag_457)\n    tag_451:\n        /* \"Practical5-Tick-Tack-Toe-More-Jason.sol\":8014:8071  nextUser(gameInformation[gameId]._player1address, gameId) */\n      0xeefc3fd775b975165c9d067e02fcd5bf5889d58041ae6ddaf94f2cc853007272\n        /* \"Practical5-Tick-Tack-Toe-More-Jason.sol\":8023:8038  gameInformation */\n      0x00\n        /* \"Practical5-Tick-Tack-Toe-More-Jason.sol\":8039:8045  gameId */\n      dup3\n        /* \"Practical5-Tick-Tack-Toe-More-Jason.sol\":8023:8046  gameInformation[gameId] */\n      dup2\n      sload\n      dup2\n      lt\n      tag_459\n      jumpi\n      tag_459\n      tag_64\n      jump\t// in\n    tag_459:\n      0x00\n      swap2\n      dup3\n      mstore\n      0x20\n      swap2\n      dup3\n      swap1\n      keccak256\n      0x08\n      swap1\n      swap2\n      mul\n      add\n        /* \"Practical5-Tick-Tack-Toe-More-Jason.sol\":8023:8062  gameInformation[gameId]._player1address */\n      0x04\n      add\n      sload\n        /* \"Practical5-Tick-Tack-Toe-More-Jason.sol\":8014:8071  nextUser(gameInformation[gameId]._player1address, gameId) */\n      0x40\n      dup1\n      mload\n      sub(shl(0xa0, 0x01), 0x01)\n        /* \"Practical5-Tick-Tack-Toe-More-Jason.sol\":8023:8062  gameInformation[gameId]._player1address */\n      swap1\n      swap3\n      and\n        /* \"#utility.yul\":21475:21526   */\n      dup3\n      mstore\n        /* \"#utility.yul\":21542:21560   */\n      swap2\n      dup2\n      add\n        /* \"#utility.yul\":21535:21569   */\n      dup5\n      swap1\n      mstore\n        /* \"#utility.yul\":21448:21466   */\n      add\n        /* \"Practical5-Tick-Tack-Toe-More-Jason.sol\":8014:8071  nextUser(gameInformation[gameId]._player1address, gameId) */\n      mload(0x40)\n      dup1\n      swap2\n      sub\n      swap1\n      log1\n        /* \"Practical5-Tick-Tack-Toe-More-Jason.sol\":7812:8109  if(compareStrings(gameInformation[gameId]._currentPlayer, \"X\")){... */\n    tag_457:\n        /* \"Practical5-Tick-Tack-Toe-More-Jason.sol\":8190:8249  compareStrings(gameInformation[gameId]._currentPlayer, \"X\") */\n      tag_462\n        /* \"Practical5-Tick-Tack-Toe-More-Jason.sol\":8205:8220  gameInformation */\n      0x00\n        /* \"Practical5-Tick-Tack-Toe-More-Jason.sol\":8221:8227  gameId */\n      dup3\n        /* \"Practical5-Tick-Tack-Toe-More-Jason.sol\":8205:8228  gameInformation[gameId] */\n      dup2\n      sload\n      dup2\n      lt\n      tag_141\n      jumpi\n      tag_141\n      tag_64\n      jump\t// in\n        /* \"Practical5-Tick-Tack-Toe-More-Jason.sol\":8190:8249  compareStrings(gameInformation[gameId]._currentPlayer, \"X\") */\n    tag_462:\n        /* \"Practical5-Tick-Tack-Toe-More-Jason.sol\":8189:8262  (compareStrings(gameInformation[gameId]._currentPlayer, \"X\")) ? \"O\" : \"X\" */\n      tag_471\n      jumpi\n      mload(0x40)\n      dup1\n      0x40\n      add\n      0x40\n      mstore\n      dup1\n      0x01\n      dup2\n      mstore\n      0x20\n      add\n      shl(0xfb, 0x0b)\n      dup2\n      mstore\n      pop\n      jump(tag_472)\n    tag_471:\n      mload(0x40)\n      dup1\n      0x40\n      add\n      0x40\n      mstore\n      dup1\n      0x01\n      dup2\n      mstore\n      0x20\n      add\n      shl(0xf8, 0x4f)\n      dup2\n      mstore\n      pop\n    tag_472:\n        /* \"Practical5-Tick-Tack-Toe-More-Jason.sol\":8148:8163  gameInformation */\n      0x00\n        /* \"Practical5-Tick-Tack-Toe-More-Jason.sol\":8164:8170  gameId */\n      dup3\n        /* \"Practical5-Tick-Tack-Toe-More-Jason.sol\":8148:8171  gameInformation[gameId] */\n      dup2\n      sload\n      dup2\n      lt\n      tag_474\n      jumpi\n      tag_474\n      tag_64\n      jump\t// in\n    tag_474:\n      swap1\n      0x00\n      mstore\n      keccak256(0x00, 0x20)\n      swap1\n      0x08\n      mul\n      add\n        /* \"Practical5-Tick-Tack-Toe-More-Jason.sol\":8148:8186  gameInformation[gameId]._currentPlayer */\n      0x01\n      add\n        /* \"Practical5-Tick-Tack-Toe-More-Jason.sol\":8148:8262  gameInformation[gameId]._currentPlayer = (compareStrings(gameInformation[gameId]._currentPlayer, \"X\")) ? \"O\" : \"X\" */\n      swap1\n      dup2\n      tag_476\n      swap2\n      swap1\n      tag_106\n      jump\t// in\n    tag_476:\n      pop\n        /* \"Practical5-Tick-Tack-Toe-More-Jason.sol\":8316:8375  nextUesrStr(gameInformation[gameId]._currentPlayer, gameId) */\n      0xa6d1cb5f730b987124c37c3876130fddba49456449948ec4257360f5ab2851c0\n        /* \"Practical5-Tick-Tack-Toe-More-Jason.sol\":8328:8343  gameInformation */\n      0x00\n        /* \"Practical5-Tick-Tack-Toe-More-Jason.sol\":8344:8350  gameId */\n      dup3\n        /* \"Practical5-Tick-Tack-Toe-More-Jason.sol\":8328:8351  gameInformation[gameId] */\n      dup2\n      sload\n      dup2\n      lt\n      tag_478\n      jumpi\n      tag_478\n      tag_64\n      jump\t// in\n    tag_478:\n      swap1\n      0x00\n      mstore\n      keccak256(0x00, 0x20)\n      swap1\n      0x08\n      mul\n      add\n        /* \"Practical5-Tick-Tack-Toe-More-Jason.sol\":8328:8366  gameInformation[gameId]._currentPlayer */\n      0x01\n      add\n        /* \"Practical5-Tick-Tack-Toe-More-Jason.sol\":8368:8374  gameId */\n      dup3\n        /* \"Practical5-Tick-Tack-Toe-More-Jason.sol\":8316:8375  nextUesrStr(gameInformation[gameId]._currentPlayer, gameId) */\n      mload(0x40)\n      tag_115\n      swap3\n      swap2\n      swap1\n      tag_404\n      jump\t// in\n    tag_111:\n      dup3\n      dup1\n      sload\n      dup3\n      dup3\n      sstore\n      swap1\n      0x00\n      mstore\n      keccak256(0x00, 0x20)\n      swap1\n      dup2\n      add\n      swap3\n      dup3\n      iszero\n      tag_483\n      jumpi\n      swap2\n      0x20\n      mul\n      dup3\n      add\n    tag_482:\n      dup3\n      dup2\n      gt\n      iszero\n      tag_483\n      jumpi\n      dup3\n      mload\n      dup3\n      swap1\n      tag_484\n      swap1\n      dup3\n      tag_106\n      jump\t// in\n    tag_484:\n      pop\n      swap2\n      0x20\n      add\n      swap2\n      swap1\n      0x01\n      add\n      swap1\n      jump(tag_482)\n    tag_483:\n      pop\n      tag_485\n      swap3\n      swap2\n      pop\n      tag_486\n      jump\t// in\n    tag_485:\n      pop\n      swap1\n      jump\t// out\n    tag_189:\n      mload(0x40)\n      dup1\n      0x0100\n      add\n      0x40\n      mstore\n      dup1\n      iszero(iszero(0x00))\n      dup2\n      mstore\n      0x20\n      add\n      0x60\n      dup2\n      mstore\n      0x20\n      add\n      0x60\n      dup2\n      mstore\n      0x20\n      add\n      0x60\n      dup2\n      mstore\n      0x20\n      add\n      and(sub(shl(0xa0, 0x01), 0x01), 0x00)\n      dup2\n      mstore\n      0x20\n      add\n      and(sub(shl(0xa0, 0x01), 0x01), 0x00)\n      dup2\n      mstore\n      0x20\n      add\n      0x00\n      dup2\n      mstore\n      0x20\n      add\n      and(sub(shl(0xa0, 0x01), 0x01), 0x00)\n      dup2\n      mstore\n      pop\n      swap1\n      jump\t// out\n    tag_193:\n      dup3\n      dup1\n      sload\n      dup3\n      dup3\n      sstore\n      swap1\n      0x00\n      mstore\n      keccak256(0x00, 0x20)\n      swap1\n      dup2\n      add\n      swap3\n      dup3\n      iszero\n      tag_483\n      jumpi\n      swap2\n      0x20\n      mul\n      dup3\n      add\n    tag_488:\n      dup3\n      dup2\n      gt\n      iszero\n      tag_483\n      jumpi\n      dup3\n      mload\n      dup3\n      swap1\n      tag_490\n      swap1\n      dup3\n      tag_106\n      jump\t// in\n    tag_490:\n      pop\n      swap2\n      0x20\n      add\n      swap2\n      swap1\n      0x01\n      add\n      swap1\n      jump(tag_488)\n    tag_195:\n      dup3\n      dup1\n      sload\n      dup3\n      dup3\n      sstore\n      swap1\n      0x00\n      mstore\n      keccak256(0x00, 0x20)\n      swap1\n      dup2\n      add\n      swap3\n      dup3\n      iszero\n      tag_494\n      jumpi\n      swap2\n      0x20\n      mul\n      dup3\n      add\n    tag_493:\n      dup3\n      dup2\n      gt\n      iszero\n      tag_494\n      jumpi\n      dup3\n      mload\n      dup3\n      sstore\n      swap2\n      0x20\n      add\n      swap2\n      swap1\n      0x01\n      add\n      swap1\n      jump(tag_493)\n    tag_494:\n      pop\n      tag_485\n      swap3\n      swap2\n      pop\n      tag_496\n      jump\t// in\n    tag_486:\n      dup1\n      dup3\n      gt\n      iszero\n      tag_485\n      jumpi\n      0x00\n      tag_499\n      dup3\n      dup3\n      tag_500\n      jump\t// in\n    tag_499:\n      pop\n      0x01\n      add\n      jump(tag_486)\n    tag_496:\n    tag_501:\n      dup1\n      dup3\n      gt\n      iszero\n      tag_485\n      jumpi\n      0x00\n      dup2\n      sstore\n      0x01\n      add\n      jump(tag_501)\n    tag_500:\n      pop\n      dup1\n      sload\n      tag_503\n      swap1\n      tag_86\n      jump\t// in\n    tag_503:\n      0x00\n      dup3\n      sstore\n      dup1\n      0x1f\n      lt\n      tag_505\n      jumpi\n      pop\n      pop\n      jump\t// out\n    tag_505:\n      0x1f\n      add\n      0x20\n      swap1\n      div\n      swap1\n      0x00\n      mstore\n      keccak256(0x00, 0x20)\n      swap1\n      dup2\n      add\n      swap1\n      tag_80\n      swap2\n      swap1\n      tag_496\n      jump\t// in\n        /* \"#utility.yul\":14:194   */\n    tag_17:\n        /* \"#utility.yul\":73:79   */\n      0x00\n        /* \"#utility.yul\":126:128   */\n      0x20\n        /* \"#utility.yul\":114:123   */\n      dup3\n        /* \"#utility.yul\":105:112   */\n      dup5\n        /* \"#utility.yul\":101:124   */\n      sub\n        /* \"#utility.yul\":97:129   */\n      slt\n        /* \"#utility.yul\":94:146   */\n      iszero\n      tag_527\n      jumpi\n        /* \"#utility.yul\":142:143   */\n      0x00\n        /* \"#utility.yul\":139:140   */\n      dup1\n        /* \"#utility.yul\":132:144   */\n      revert\n        /* \"#utility.yul\":94:146   */\n    tag_527:\n      pop\n        /* \"#utility.yul\":165:188   */\n      calldataload\n      swap2\n        /* \"#utility.yul\":14:194   */\n      swap1\n      pop\n      jump\t// out\n        /* \"#utility.yul\":199:831   */\n    tag_20:\n        /* \"#utility.yul\":370:372   */\n      0x20\n        /* \"#utility.yul\":422:443   */\n      dup1\n      dup3\n      mstore\n        /* \"#utility.yul\":492:505   */\n      dup3\n      mload\n        /* \"#utility.yul\":395:413   */\n      dup3\n      dup3\n      add\n        /* \"#utility.yul\":514:536   */\n      dup2\n      swap1\n      mstore\n        /* \"#utility.yul\":341:345   */\n      0x00\n      swap2\n        /* \"#utility.yul\":370:372   */\n      swap1\n        /* \"#utility.yul\":593:608   */\n      dup5\n      dup3\n      add\n      swap1\n        /* \"#utility.yul\":567:569   */\n      0x40\n        /* \"#utility.yul\":552:570   */\n      dup6\n      add\n      swap1\n        /* \"#utility.yul\":341:345   */\n      dup5\n        /* \"#utility.yul\":636:805   */\n    tag_529:\n        /* \"#utility.yul\":650:656   */\n      dup2\n        /* \"#utility.yul\":647:648   */\n      dup2\n        /* \"#utility.yul\":644:657   */\n      lt\n        /* \"#utility.yul\":636:805   */\n      iszero\n      tag_531\n      jumpi\n        /* \"#utility.yul\":711:724   */\n      dup4\n      mload\n        /* \"#utility.yul\":699:725   */\n      dup4\n      mstore\n        /* \"#utility.yul\":780:795   */\n      swap3\n      dup5\n      add\n      swap3\n        /* \"#utility.yul\":745:757   */\n      swap2\n      dup5\n      add\n      swap2\n        /* \"#utility.yul\":672:673   */\n      0x01\n        /* \"#utility.yul\":665:674   */\n      add\n        /* \"#utility.yul\":636:805   */\n      jump(tag_529)\n    tag_531:\n      pop\n        /* \"#utility.yul\":822:825   */\n      swap1\n      swap7\n        /* \"#utility.yul\":199:831   */\n      swap6\n      pop\n      pop\n      pop\n      pop\n      pop\n      pop\n      jump\t// out\n        /* \"#utility.yul\":932:1182   */\n    tag_508:\n        /* \"#utility.yul\":1017:1018   */\n      0x00\n        /* \"#utility.yul\":1027:1140   */\n    tag_534:\n        /* \"#utility.yul\":1041:1047   */\n      dup4\n        /* \"#utility.yul\":1038:1039   */\n      dup2\n        /* \"#utility.yul\":1035:1048   */\n      lt\n        /* \"#utility.yul\":1027:1140   */\n      iszero\n      tag_536\n      jumpi\n        /* \"#utility.yul\":1117:1128   */\n      dup2\n      dup2\n      add\n        /* \"#utility.yul\":1111:1129   */\n      mload\n        /* \"#utility.yul\":1098:1109   */\n      dup4\n      dup3\n      add\n        /* \"#utility.yul\":1091:1130   */\n      mstore\n        /* \"#utility.yul\":1063:1065   */\n      0x20\n        /* \"#utility.yul\":1056:1066   */\n      add\n        /* \"#utility.yul\":1027:1140   */\n      jump(tag_534)\n    tag_536:\n      pop\n      pop\n        /* \"#utility.yul\":1174:1175   */\n      0x00\n        /* \"#utility.yul\":1156:1172   */\n      swap2\n      add\n        /* \"#utility.yul\":1149:1176   */\n      mstore\n        /* \"#utility.yul\":932:1182   */\n      jump\t// out\n        /* \"#utility.yul\":1187:1458   */\n    tag_509:\n        /* \"#utility.yul\":1229:1232   */\n      0x00\n        /* \"#utility.yul\":1267:1272   */\n      dup2\n        /* \"#utility.yul\":1261:1273   */\n      mload\n        /* \"#utility.yul\":1294:1300   */\n      dup1\n        /* \"#utility.yul\":1289:1292   */\n      dup5\n        /* \"#utility.yul\":1282:1301   */\n      mstore\n        /* \"#utility.yul\":1310:1386   */\n      tag_538\n        /* \"#utility.yul\":1379:1385   */\n      dup2\n        /* \"#utility.yul\":1372:1376   */\n      0x20\n        /* \"#utility.yul\":1367:1370   */\n      dup7\n        /* \"#utility.yul\":1363:1377   */\n      add\n        /* \"#utility.yul\":1356:1360   */\n      0x20\n        /* \"#utility.yul\":1349:1354   */\n      dup7\n        /* \"#utility.yul\":1345:1361   */\n      add\n        /* \"#utility.yul\":1310:1386   */\n      tag_508\n      jump\t// in\n    tag_538:\n        /* \"#utility.yul\":1440:1442   */\n      0x1f\n        /* \"#utility.yul\":1419:1434   */\n      add\n      not(0x1f)\n        /* \"#utility.yul\":1415:1444   */\n      and\n        /* \"#utility.yul\":1406:1445   */\n      swap3\n      swap1\n      swap3\n      add\n        /* \"#utility.yul\":1447:1451   */\n      0x20\n        /* \"#utility.yul\":1402:1452   */\n      add\n      swap3\n        /* \"#utility.yul\":1187:1458   */\n      swap2\n      pop\n      pop\n      jump\t// out\n        /* \"#utility.yul\":1463:2055   */\n    tag_510:\n        /* \"#utility.yul\":1515:1518   */\n      0x00\n        /* \"#utility.yul\":1546:1549   */\n      dup3\n        /* \"#utility.yul\":1578:1583   */\n      dup3\n        /* \"#utility.yul\":1572:1584   */\n      mload\n        /* \"#utility.yul\":1605:1611   */\n      dup1\n        /* \"#utility.yul\":1600:1603   */\n      dup6\n        /* \"#utility.yul\":1593:1612   */\n      mstore\n        /* \"#utility.yul\":1631:1635   */\n      0x20\n        /* \"#utility.yul\":1660:1662   */\n      dup1\n        /* \"#utility.yul\":1655:1658   */\n      dup7\n        /* \"#utility.yul\":1651:1663   */\n      add\n        /* \"#utility.yul\":1644:1663   */\n      swap6\n      pop\n        /* \"#utility.yul\":1716:1718   */\n      dup1\n        /* \"#utility.yul\":1706:1712   */\n      dup3\n        /* \"#utility.yul\":1703:1704   */\n      0x05\n        /* \"#utility.yul\":1699:1713   */\n      shl\n        /* \"#utility.yul\":1692:1697   */\n      dup5\n        /* \"#utility.yul\":1688:1714   */\n      add\n        /* \"#utility.yul\":1684:1719   */\n      add\n        /* \"#utility.yul\":1753:1755   */\n      dup2\n        /* \"#utility.yul\":1746:1751   */\n      dup7\n        /* \"#utility.yul\":1742:1756   */\n      add\n        /* \"#utility.yul\":1774:1775   */\n      0x00\n        /* \"#utility.yul\":1784:2029   */\n    tag_540:\n        /* \"#utility.yul\":1798:1804   */\n      dup5\n        /* \"#utility.yul\":1795:1796   */\n      dup2\n        /* \"#utility.yul\":1792:1805   */\n      lt\n        /* \"#utility.yul\":1784:2029   */\n      iszero\n      tag_542\n      jumpi\n        /* \"#utility.yul\":1885:1887   */\n      0x1f\n        /* \"#utility.yul\":1881:1888   */\n      not\n        /* \"#utility.yul\":1873:1878   */\n      dup7\n        /* \"#utility.yul\":1867:1871   */\n      dup5\n        /* \"#utility.yul\":1863:1879   */\n      sub\n        /* \"#utility.yul\":1859:1889   */\n      add\n        /* \"#utility.yul\":1854:1857   */\n      dup10\n        /* \"#utility.yul\":1847:1890   */\n      mstore\n        /* \"#utility.yul\":1911:1949   */\n      tag_543\n        /* \"#utility.yul\":1944:1948   */\n      dup4\n        /* \"#utility.yul\":1935:1941   */\n      dup4\n        /* \"#utility.yul\":1929:1942   */\n      mload\n        /* \"#utility.yul\":1911:1949   */\n      tag_509\n      jump\t// in\n    tag_543:\n        /* \"#utility.yul\":2007:2019   */\n      swap9\n      dup5\n      add\n      swap9\n        /* \"#utility.yul\":1903:1949   */\n      swap3\n      pop\n        /* \"#utility.yul\":1972:1987   */\n      swap1\n      dup4\n      add\n      swap1\n        /* \"#utility.yul\":1820:1821   */\n      0x01\n        /* \"#utility.yul\":1813:1822   */\n      add\n        /* \"#utility.yul\":1784:2029   */\n      jump(tag_540)\n    tag_542:\n      pop\n        /* \"#utility.yul\":2045:2049   */\n      swap1\n      swap8\n        /* \"#utility.yul\":1463:2055   */\n      swap7\n      pop\n      pop\n      pop\n      pop\n      pop\n      pop\n      pop\n      jump\t// out\n        /* \"#utility.yul\":2060:2495   */\n    tag_511:\n        /* \"#utility.yul\":2113:2116   */\n      0x00\n        /* \"#utility.yul\":2151:2156   */\n      dup2\n        /* \"#utility.yul\":2145:2157   */\n      mload\n        /* \"#utility.yul\":2178:2184   */\n      dup1\n        /* \"#utility.yul\":2173:2176   */\n      dup5\n        /* \"#utility.yul\":2166:2185   */\n      mstore\n        /* \"#utility.yul\":2204:2208   */\n      0x20\n        /* \"#utility.yul\":2233:2235   */\n      dup1\n        /* \"#utility.yul\":2228:2231   */\n      dup6\n        /* \"#utility.yul\":2224:2236   */\n      add\n        /* \"#utility.yul\":2217:2236   */\n      swap5\n      pop\n        /* \"#utility.yul\":2270:2272   */\n      dup1\n        /* \"#utility.yul\":2263:2268   */\n      dup5\n        /* \"#utility.yul\":2259:2273   */\n      add\n        /* \"#utility.yul\":2291:2292   */\n      0x00\n        /* \"#utility.yul\":2301:2470   */\n    tag_545:\n        /* \"#utility.yul\":2315:2321   */\n      dup4\n        /* \"#utility.yul\":2312:2313   */\n      dup2\n        /* \"#utility.yul\":2309:2322   */\n      lt\n        /* \"#utility.yul\":2301:2470   */\n      iszero\n      tag_547\n      jumpi\n        /* \"#utility.yul\":2376:2389   */\n      dup2\n      mload\n        /* \"#utility.yul\":2364:2390   */\n      dup8\n      mstore\n        /* \"#utility.yul\":2410:2422   */\n      swap6\n      dup3\n      add\n      swap6\n        /* \"#utility.yul\":2445:2460   */\n      swap1\n      dup3\n      add\n      swap1\n        /* \"#utility.yul\":2337:2338   */\n      0x01\n        /* \"#utility.yul\":2330:2339   */\n      add\n        /* \"#utility.yul\":2301:2470   */\n      jump(tag_545)\n    tag_547:\n      pop\n        /* \"#utility.yul\":2486:2489   */\n      swap5\n      swap6\n        /* \"#utility.yul\":2060:2495   */\n      swap5\n      pop\n      pop\n      pop\n      pop\n      pop\n      jump\t// out\n        /* \"#utility.yul\":2609:3671   */\n    tag_513:\n        /* \"#utility.yul\":2660:2663   */\n      0x00\n        /* \"#utility.yul\":2688:2694   */\n      0x0100\n        /* \"#utility.yul\":2735:2740   */\n      dup3\n        /* \"#utility.yul\":2729:2741   */\n      mload\n        /* \"#utility.yul\":2722:2742   */\n      iszero\n        /* \"#utility.yul\":2715:2743   */\n      iszero\n        /* \"#utility.yul\":2710:2713   */\n      dup5\n        /* \"#utility.yul\":2703:2744   */\n      mstore\n        /* \"#utility.yul\":2790:2794   */\n      0x20\n        /* \"#utility.yul\":2783:2788   */\n      dup4\n        /* \"#utility.yul\":2779:2795   */\n      add\n        /* \"#utility.yul\":2773:2796   */\n      mload\n        /* \"#utility.yul\":2828:2830   */\n      dup2\n        /* \"#utility.yul\":2821:2825   */\n      0x20\n        /* \"#utility.yul\":2816:2819   */\n      dup7\n        /* \"#utility.yul\":2812:2826   */\n      add\n        /* \"#utility.yul\":2805:2831   */\n      mstore\n        /* \"#utility.yul\":2852:2897   */\n      tag_550\n        /* \"#utility.yul\":2893:2895   */\n      dup3\n        /* \"#utility.yul\":2888:2891   */\n      dup7\n        /* \"#utility.yul\":2884:2896   */\n      add\n        /* \"#utility.yul\":2870:2882   */\n      dup3\n        /* \"#utility.yul\":2852:2897   */\n      tag_509\n      jump\t// in\n    tag_550:\n        /* \"#utility.yul\":2840:2897   */\n      swap2\n      pop\n      pop\n        /* \"#utility.yul\":2945:2949   */\n      0x40\n        /* \"#utility.yul\":2938:2943   */\n      dup4\n        /* \"#utility.yul\":2934:2950   */\n      add\n        /* \"#utility.yul\":2928:2951   */\n      mload\n        /* \"#utility.yul\":2993:2996   */\n      dup5\n        /* \"#utility.yul\":2987:2991   */\n      dup3\n        /* \"#utility.yul\":2983:2997   */\n      sub\n        /* \"#utility.yul\":2976:2980   */\n      0x40\n        /* \"#utility.yul\":2971:2974   */\n      dup7\n        /* \"#utility.yul\":2967:2981   */\n      add\n        /* \"#utility.yul\":2960:2998   */\n      mstore\n        /* \"#utility.yul\":3021:3070   */\n      tag_551\n        /* \"#utility.yul\":3065:3069   */\n      dup3\n        /* \"#utility.yul\":3049:3063   */\n      dup3\n        /* \"#utility.yul\":3021:3070   */\n      tag_510\n      jump\t// in\n    tag_551:\n        /* \"#utility.yul\":3007:3070   */\n      swap2\n      pop\n      pop\n        /* \"#utility.yul\":3118:3122   */\n      0x60\n        /* \"#utility.yul\":3111:3116   */\n      dup4\n        /* \"#utility.yul\":3107:3123   */\n      add\n        /* \"#utility.yul\":3101:3124   */\n      mload\n        /* \"#utility.yul\":3168:3171   */\n      dup5\n        /* \"#utility.yul\":3160:3166   */\n      dup3\n        /* \"#utility.yul\":3156:3172   */\n      sub\n        /* \"#utility.yul\":3149:3153   */\n      0x60\n        /* \"#utility.yul\":3144:3147   */\n      dup7\n        /* \"#utility.yul\":3140:3154   */\n      add\n        /* \"#utility.yul\":3133:3173   */\n      mstore\n        /* \"#utility.yul\":3196:3248   */\n      tag_552\n        /* \"#utility.yul\":3241:3247   */\n      dup3\n        /* \"#utility.yul\":3225:3239   */\n      dup3\n        /* \"#utility.yul\":3196:3248   */\n      tag_511\n      jump\t// in\n    tag_552:\n        /* \"#utility.yul\":3182:3248   */\n      swap2\n      pop\n      pop\n        /* \"#utility.yul\":3296:3300   */\n      0x80\n        /* \"#utility.yul\":3289:3294   */\n      dup4\n        /* \"#utility.yul\":3285:3301   */\n      add\n        /* \"#utility.yul\":3279:3302   */\n      mload\n        /* \"#utility.yul\":3311:3361   */\n      tag_553\n        /* \"#utility.yul\":3355:3359   */\n      0x80\n        /* \"#utility.yul\":3350:3353   */\n      dup7\n        /* \"#utility.yul\":3346:3360   */\n      add\n        /* \"#utility.yul\":3330:3344   */\n      dup3\n      sub(shl(0xa0, 0x01), 0x01)\n        /* \"#utility.yul\":2566:2597   */\n      and\n        /* \"#utility.yul\":2554:2598   */\n      swap1\n      mstore\n        /* \"#utility.yul\":2500:2604   */\n      jump\n        /* \"#utility.yul\":3311:3361   */\n    tag_553:\n      pop\n        /* \"#utility.yul\":3409:3413   */\n      0xa0\n        /* \"#utility.yul\":3402:3407   */\n      dup4\n        /* \"#utility.yul\":3398:3414   */\n      add\n        /* \"#utility.yul\":3392:3415   */\n      mload\n        /* \"#utility.yul\":3424:3474   */\n      tag_554\n        /* \"#utility.yul\":3468:3472   */\n      0xa0\n        /* \"#utility.yul\":3463:3466   */\n      dup7\n        /* \"#utility.yul\":3459:3473   */\n      add\n        /* \"#utility.yul\":3443:3457   */\n      dup3\n      sub(shl(0xa0, 0x01), 0x01)\n        /* \"#utility.yul\":2566:2597   */\n      and\n        /* \"#utility.yul\":2554:2598   */\n      swap1\n      mstore\n        /* \"#utility.yul\":2500:2604   */\n      jump\n        /* \"#utility.yul\":3424:3474   */\n    tag_554:\n      pop\n        /* \"#utility.yul\":3523:3527   */\n      0xc0\n        /* \"#utility.yul\":3516:3521   */\n      dup4\n        /* \"#utility.yul\":3512:3528   */\n      add\n        /* \"#utility.yul\":3506:3529   */\n      mload\n        /* \"#utility.yul\":3499:3503   */\n      0xc0\n        /* \"#utility.yul\":3494:3497   */\n      dup6\n        /* \"#utility.yul\":3490:3504   */\n      add\n        /* \"#utility.yul\":3483:3530   */\n      mstore\n        /* \"#utility.yul\":3578:3582   */\n      0xe0\n        /* \"#utility.yul\":3571:3576   */\n      dup4\n        /* \"#utility.yul\":3567:3583   */\n      add\n        /* \"#utility.yul\":3561:3584   */\n      mload\n        /* \"#utility.yul\":3593:3643   */\n      tag_555\n        /* \"#utility.yul\":3637:3641   */\n      0xe0\n        /* \"#utility.yul\":3632:3635   */\n      dup7\n        /* \"#utility.yul\":3628:3642   */\n      add\n        /* \"#utility.yul\":3612:3626   */\n      dup3\n      sub(shl(0xa0, 0x01), 0x01)\n        /* \"#utility.yul\":2566:2597   */\n      and\n        /* \"#utility.yul\":2554:2598   */\n      swap1\n      mstore\n        /* \"#utility.yul\":2500:2604   */\n      jump\n        /* \"#utility.yul\":3593:3643   */\n    tag_555:\n      pop\n        /* \"#utility.yul\":3659:3665   */\n      swap4\n        /* \"#utility.yul\":2609:3671   */\n      swap3\n      pop\n      pop\n      pop\n      jump\t// out\n        /* \"#utility.yul\":3676:4516   */\n    tag_27:\n        /* \"#utility.yul\":3866:3870   */\n      0x00\n        /* \"#utility.yul\":3895:3897   */\n      0x20\n        /* \"#utility.yul\":3935:3937   */\n      dup1\n        /* \"#utility.yul\":3924:3933   */\n      dup4\n        /* \"#utility.yul\":3920:3938   */\n      add\n        /* \"#utility.yul\":3965:3967   */\n      dup2\n        /* \"#utility.yul\":3954:3963   */\n      dup5\n        /* \"#utility.yul\":3947:3968   */\n      mstore\n        /* \"#utility.yul\":3988:3994   */\n      dup1\n        /* \"#utility.yul\":4023:4029   */\n      dup6\n        /* \"#utility.yul\":4017:4030   */\n      mload\n        /* \"#utility.yul\":4054:4060   */\n      dup1\n        /* \"#utility.yul\":4046:4052   */\n      dup4\n        /* \"#utility.yul\":4039:4061   */\n      mstore\n        /* \"#utility.yul\":4092:4094   */\n      0x40\n        /* \"#utility.yul\":4081:4090   */\n      dup7\n        /* \"#utility.yul\":4077:4095   */\n      add\n        /* \"#utility.yul\":4070:4095   */\n      swap2\n      pop\n        /* \"#utility.yul\":4154:4156   */\n      0x40\n        /* \"#utility.yul\":4144:4150   */\n      dup2\n        /* \"#utility.yul\":4141:4142   */\n      0x05\n        /* \"#utility.yul\":4137:4151   */\n      shl\n        /* \"#utility.yul\":4126:4135   */\n      dup8\n        /* \"#utility.yul\":4122:4152   */\n      add\n        /* \"#utility.yul\":4118:4157   */\n      add\n        /* \"#utility.yul\":4104:4157   */\n      swap3\n      pop\n        /* \"#utility.yul\":4192:4194   */\n      dup4\n        /* \"#utility.yul\":4184:4190   */\n      dup8\n        /* \"#utility.yul\":4180:4195   */\n      add\n        /* \"#utility.yul\":4213:4214   */\n      0x00\n        /* \"#utility.yul\":4223:4487   */\n    tag_557:\n        /* \"#utility.yul\":4237:4243   */\n      dup3\n        /* \"#utility.yul\":4234:4235   */\n      dup2\n        /* \"#utility.yul\":4231:4244   */\n      lt\n        /* \"#utility.yul\":4223:4487   */\n      iszero\n      tag_559\n      jumpi\n        /* \"#utility.yul\":4330:4332   */\n      0x3f\n        /* \"#utility.yul\":4326:4333   */\n      not\n        /* \"#utility.yul\":4314:4323   */\n      dup9\n        /* \"#utility.yul\":4306:4312   */\n      dup7\n        /* \"#utility.yul\":4302:4324   */\n      sub\n        /* \"#utility.yul\":4298:4334   */\n      add\n        /* \"#utility.yul\":4293:4296   */\n      dup5\n        /* \"#utility.yul\":4286:4335   */\n      mstore\n        /* \"#utility.yul\":4358:4407   */\n      tag_560\n        /* \"#utility.yul\":4400:4406   */\n      dup6\n        /* \"#utility.yul\":4391:4397   */\n      dup4\n        /* \"#utility.yul\":4385:4398   */\n      mload\n        /* \"#utility.yul\":4358:4407   */\n      tag_513\n      jump\t// in\n    tag_560:\n        /* \"#utility.yul\":4348:4407   */\n      swap5\n      pop\n        /* \"#utility.yul\":4465:4477   */\n      swap3\n      dup6\n      add\n      swap3\n        /* \"#utility.yul\":4430:4445   */\n      swap1\n      dup6\n      add\n      swap1\n        /* \"#utility.yul\":4259:4260   */\n      0x01\n        /* \"#utility.yul\":4252:4261   */\n      add\n        /* \"#utility.yul\":4223:4487   */\n      jump(tag_557)\n    tag_559:\n      pop\n        /* \"#utility.yul\":4504:4510   */\n      swap3\n      swap8\n        /* \"#utility.yul\":3676:4516   */\n      swap7\n      pop\n      pop\n      pop\n      pop\n      pop\n      pop\n      pop\n      jump\t// out\n        /* \"#utility.yul\":4521:4769   */\n    tag_33:\n        /* \"#utility.yul\":4589:4595   */\n      0x00\n        /* \"#utility.yul\":4597:4603   */\n      dup1\n        /* \"#utility.yul\":4650:4652   */\n      0x40\n        /* \"#utility.yul\":4638:4647   */\n      dup4\n        /* \"#utility.yul\":4629:4636   */\n      dup6\n        /* \"#utility.yul\":4625:4648   */\n      sub\n        /* \"#utility.yul\":4621:4653   */\n      slt\n        /* \"#utility.yul\":4618:4670   */\n      iszero\n      tag_562\n      jumpi\n        /* \"#utility.yul\":4666:4667   */\n      0x00\n        /* \"#utility.yul\":4663:4664   */\n      dup1\n        /* \"#utility.yul\":4656:4668   */\n      revert\n        /* \"#utility.yul\":4618:4670   */\n    tag_562:\n      pop\n      pop\n        /* \"#utility.yul\":4689:4712   */\n      dup1\n      calldataload\n      swap3\n        /* \"#utility.yul\":4759:4761   */\n      0x20\n        /* \"#utility.yul\":4744:4762   */\n      swap1\n      swap2\n      add\n        /* \"#utility.yul\":4731:4763   */\n      calldataload\n      swap2\n      pop\n        /* \"#utility.yul\":4521:4769   */\n      jump\t// out\n        /* \"#utility.yul\":4774:5428   */\n    tag_39:\n        /* \"#utility.yul\":5071:5077   */\n      dup7\n        /* \"#utility.yul\":5064:5078   */\n      iszero\n        /* \"#utility.yul\":5057:5079   */\n      iszero\n        /* \"#utility.yul\":5046:5055   */\n      dup2\n        /* \"#utility.yul\":5039:5080   */\n      mstore\n        /* \"#utility.yul\":5116:5119   */\n      0xc0\n        /* \"#utility.yul\":5111:5113   */\n      0x20\n        /* \"#utility.yul\":5100:5109   */\n      dup3\n        /* \"#utility.yul\":5096:5114   */\n      add\n        /* \"#utility.yul\":5089:5120   */\n      mstore\n        /* \"#utility.yul\":5020:5024   */\n      0x00\n        /* \"#utility.yul\":5137:5183   */\n      tag_564\n        /* \"#utility.yul\":5178:5181   */\n      0xc0\n        /* \"#utility.yul\":5167:5176   */\n      dup4\n        /* \"#utility.yul\":5163:5182   */\n      add\n        /* \"#utility.yul\":5155:5161   */\n      dup9\n        /* \"#utility.yul\":5137:5183   */\n      tag_509\n      jump\t// in\n    tag_564:\n      sub(shl(0xa0, 0x01), 0x01)\n        /* \"#utility.yul\":5257:5272   */\n      swap7\n      dup8\n      and\n        /* \"#utility.yul\":5252:5254   */\n      0x40\n        /* \"#utility.yul\":5237:5255   */\n      dup5\n      add\n        /* \"#utility.yul\":5230:5273   */\n      mstore\n        /* \"#utility.yul\":5309:5324   */\n      swap5\n      dup7\n      and\n        /* \"#utility.yul\":5304:5306   */\n      0x60\n        /* \"#utility.yul\":5289:5307   */\n      dup4\n      add\n        /* \"#utility.yul\":5282:5325   */\n      mstore\n      pop\n        /* \"#utility.yul\":5356:5359   */\n      0x80\n        /* \"#utility.yul\":5341:5360   */\n      dup2\n      add\n        /* \"#utility.yul\":5334:5369   */\n      swap3\n      swap1\n      swap3\n      mstore\n        /* \"#utility.yul\":5406:5421   */\n      swap1\n      swap3\n      and\n        /* \"#utility.yul\":5210:5213   */\n      0xa0\n        /* \"#utility.yul\":5385:5404   */\n      swap1\n      swap3\n      add\n        /* \"#utility.yul\":5378:5422   */\n      swap2\n      swap1\n      swap2\n      mstore\n        /* \"#utility.yul\":5309:5324   */\n      swap3\n        /* \"#utility.yul\":5129:5183   */\n      swap2\n      pop\n      pop\n        /* \"#utility.yul\":4774:5428   */\n      jump\t// out\n        /* \"#utility.yul\":5433:5690   */\n    tag_46:\n        /* \"#utility.yul\":5610:5612   */\n      0x20\n        /* \"#utility.yul\":5599:5608   */\n      dup2\n        /* \"#utility.yul\":5592:5613   */\n      mstore\n        /* \"#utility.yul\":5573:5577   */\n      0x00\n        /* \"#utility.yul\":5630:5684   */\n      tag_566\n        /* \"#utility.yul\":5680:5682   */\n      0x20\n        /* \"#utility.yul\":5669:5678   */\n      dup4\n        /* \"#utility.yul\":5665:5683   */\n      add\n        /* \"#utility.yul\":5657:5663   */\n      dup5\n        /* \"#utility.yul\":5630:5684   */\n      tag_513\n      jump\t// in\n    tag_566:\n        /* \"#utility.yul\":5622:5684   */\n      swap4\n        /* \"#utility.yul\":5433:5690   */\n      swap3\n      pop\n      pop\n      pop\n      jump\t// out\n        /* \"#utility.yul\":5695:5822   */\n    tag_514:\n        /* \"#utility.yul\":5756:5766   */\n      0x4e487b71\n        /* \"#utility.yul\":5751:5754   */\n      0xe0\n        /* \"#utility.yul\":5747:5767   */\n      shl\n        /* \"#utility.yul\":5744:5745   */\n      0x00\n        /* \"#utility.yul\":5737:5768   */\n      mstore\n        /* \"#utility.yul\":5787:5791   */\n      0x41\n        /* \"#utility.yul\":5784:5785   */\n      0x04\n        /* \"#utility.yul\":5777:5792   */\n      mstore\n        /* \"#utility.yul\":5811:5815   */\n      0x24\n        /* \"#utility.yul\":5808:5809   */\n      0x00\n        /* \"#utility.yul\":5801:5816   */\n      revert\n        /* \"#utility.yul\":5827:6546   */\n    tag_515:\n        /* \"#utility.yul\":5870:5875   */\n      0x00\n        /* \"#utility.yul\":5923:5926   */\n      dup3\n        /* \"#utility.yul\":5916:5920   */\n      0x1f\n        /* \"#utility.yul\":5908:5914   */\n      dup4\n        /* \"#utility.yul\":5904:5921   */\n      add\n        /* \"#utility.yul\":5900:5927   */\n      slt\n        /* \"#utility.yul\":5890:5945   */\n      tag_569\n      jumpi\n        /* \"#utility.yul\":5941:5942   */\n      0x00\n        /* \"#utility.yul\":5938:5939   */\n      dup1\n        /* \"#utility.yul\":5931:5943   */\n      revert\n        /* \"#utility.yul\":5890:5945   */\n    tag_569:\n        /* \"#utility.yul\":5977:5983   */\n      dup2\n        /* \"#utility.yul\":5964:5984   */\n      calldataload\n        /* \"#utility.yul\":6003:6021   */\n      0xffffffffffffffff\n        /* \"#utility.yul\":6040:6042   */\n      dup1\n        /* \"#utility.yul\":6036:6038   */\n      dup3\n        /* \"#utility.yul\":6033:6043   */\n      gt\n        /* \"#utility.yul\":6030:6066   */\n      iszero\n      tag_571\n      jumpi\n        /* \"#utility.yul\":6046:6064   */\n      tag_571\n      tag_514\n      jump\t// in\n    tag_571:\n        /* \"#utility.yul\":6121:6123   */\n      0x40\n        /* \"#utility.yul\":6115:6124   */\n      mload\n        /* \"#utility.yul\":6089:6091   */\n      0x1f\n        /* \"#utility.yul\":6175:6188   */\n      dup4\n      add\n      not(0x1f)\n        /* \"#utility.yul\":6171:6193   */\n      swap1\n      dup2\n      and\n        /* \"#utility.yul\":6195:6197   */\n      0x3f\n        /* \"#utility.yul\":6167:6198   */\n      add\n        /* \"#utility.yul\":6163:6203   */\n      and\n        /* \"#utility.yul\":6151:6204   */\n      dup2\n      add\n      swap1\n        /* \"#utility.yul\":6219:6237   */\n      dup3\n      dup3\n      gt\n        /* \"#utility.yul\":6239:6261   */\n      dup2\n      dup4\n      lt\n        /* \"#utility.yul\":6216:6262   */\n      or\n        /* \"#utility.yul\":6213:6285   */\n      iszero\n      tag_573\n      jumpi\n        /* \"#utility.yul\":6265:6283   */\n      tag_573\n      tag_514\n      jump\t// in\n    tag_573:\n        /* \"#utility.yul\":6305:6315   */\n      dup2\n        /* \"#utility.yul\":6301:6303   */\n      0x40\n        /* \"#utility.yul\":6294:6316   */\n      mstore\n        /* \"#utility.yul\":6340:6342   */\n      dup4\n        /* \"#utility.yul\":6332:6338   */\n      dup2\n        /* \"#utility.yul\":6325:6343   */\n      mstore\n        /* \"#utility.yul\":6386:6389   */\n      dup7\n        /* \"#utility.yul\":6379:6383   */\n      0x20\n        /* \"#utility.yul\":6374:6376   */\n      dup6\n        /* \"#utility.yul\":6366:6372   */\n      dup9\n        /* \"#utility.yul\":6362:6377   */\n      add\n        /* \"#utility.yul\":6358:6384   */\n      add\n        /* \"#utility.yul\":6355:6390   */\n      gt\n        /* \"#utility.yul\":6352:6407   */\n      iszero\n      tag_574\n      jumpi\n        /* \"#utility.yul\":6403:6404   */\n      0x00\n        /* \"#utility.yul\":6400:6401   */\n      dup1\n        /* \"#utility.yul\":6393:6405   */\n      revert\n        /* \"#utility.yul\":6352:6407   */\n    tag_574:\n        /* \"#utility.yul\":6467:6469   */\n      dup4\n        /* \"#utility.yul\":6460:6464   */\n      0x20\n        /* \"#utility.yul\":6452:6458   */\n      dup8\n        /* \"#utility.yul\":6448:6465   */\n      add\n        /* \"#utility.yul\":6441:6445   */\n      0x20\n        /* \"#utility.yul\":6433:6439   */\n      dup4\n        /* \"#utility.yul\":6429:6446   */\n      add\n        /* \"#utility.yul\":6416:6470   */\n      calldatacopy\n        /* \"#utility.yul\":6514:6515   */\n      0x00\n        /* \"#utility.yul\":6507:6511   */\n      0x20\n        /* \"#utility.yul\":6502:6504   */\n      dup6\n        /* \"#utility.yul\":6494:6500   */\n      dup4\n        /* \"#utility.yul\":6490:6505   */\n      add\n        /* \"#utility.yul\":6486:6512   */\n      add\n        /* \"#utility.yul\":6479:6516   */\n      mstore\n        /* \"#utility.yul\":6534:6540   */\n      dup1\n        /* \"#utility.yul\":6525:6540   */\n      swap5\n      pop\n      pop\n      pop\n      pop\n      pop\n        /* \"#utility.yul\":5827:6546   */\n      swap3\n      swap2\n      pop\n      pop\n      jump\t// out\n        /* \"#utility.yul\":6551:7094   */\n    tag_49:\n        /* \"#utility.yul\":6639:6645   */\n      0x00\n        /* \"#utility.yul\":6647:6653   */\n      dup1\n        /* \"#utility.yul\":6700:6702   */\n      0x40\n        /* \"#utility.yul\":6688:6697   */\n      dup4\n        /* \"#utility.yul\":6679:6686   */\n      dup6\n        /* \"#utility.yul\":6675:6698   */\n      sub\n        /* \"#utility.yul\":6671:6703   */\n      slt\n        /* \"#utility.yul\":6668:6720   */\n      iszero\n      tag_576\n      jumpi\n        /* \"#utility.yul\":6716:6717   */\n      0x00\n        /* \"#utility.yul\":6713:6714   */\n      dup1\n        /* \"#utility.yul\":6706:6718   */\n      revert\n        /* \"#utility.yul\":6668:6720   */\n    tag_576:\n        /* \"#utility.yul\":6756:6765   */\n      dup3\n        /* \"#utility.yul\":6743:6766   */\n      calldataload\n        /* \"#utility.yul\":6785:6803   */\n      0xffffffffffffffff\n        /* \"#utility.yul\":6826:6828   */\n      dup1\n        /* \"#utility.yul\":6818:6824   */\n      dup3\n        /* \"#utility.yul\":6815:6829   */\n      gt\n        /* \"#utility.yul\":6812:6846   */\n      iszero\n      tag_577\n      jumpi\n        /* \"#utility.yul\":6842:6843   */\n      0x00\n        /* \"#utility.yul\":6839:6840   */\n      dup1\n        /* \"#utility.yul\":6832:6844   */\n      revert\n        /* \"#utility.yul\":6812:6846   */\n    tag_577:\n        /* \"#utility.yul\":6865:6915   */\n      tag_578\n        /* \"#utility.yul\":6907:6914   */\n      dup7\n        /* \"#utility.yul\":6898:6904   */\n      dup4\n        /* \"#utility.yul\":6887:6896   */\n      dup8\n        /* \"#utility.yul\":6883:6905   */\n      add\n        /* \"#utility.yul\":6865:6915   */\n      tag_515\n      jump\t// in\n    tag_578:\n        /* \"#utility.yul\":6855:6915   */\n      swap4\n      pop\n        /* \"#utility.yul\":6968:6970   */\n      0x20\n        /* \"#utility.yul\":6957:6966   */\n      dup6\n        /* \"#utility.yul\":6953:6971   */\n      add\n        /* \"#utility.yul\":6940:6972   */\n      calldataload\n        /* \"#utility.yul\":6924:6972   */\n      swap2\n      pop\n        /* \"#utility.yul\":6997:6999   */\n      dup1\n        /* \"#utility.yul\":6987:6995   */\n      dup3\n        /* \"#utility.yul\":6984:7000   */\n      gt\n        /* \"#utility.yul\":6981:7017   */\n      iszero\n      tag_579\n      jumpi\n        /* \"#utility.yul\":7013:7014   */\n      0x00\n        /* \"#utility.yul\":7010:7011   */\n      dup1\n        /* \"#utility.yul\":7003:7015   */\n      revert\n        /* \"#utility.yul\":6981:7017   */\n    tag_579:\n      pop\n        /* \"#utility.yul\":7036:7088   */\n      tag_580\n        /* \"#utility.yul\":7080:7087   */\n      dup6\n        /* \"#utility.yul\":7069:7077   */\n      dup3\n        /* \"#utility.yul\":7058:7067   */\n      dup7\n        /* \"#utility.yul\":7054:7078   */\n      add\n        /* \"#utility.yul\":7036:7088   */\n      tag_515\n      jump\t// in\n    tag_580:\n        /* \"#utility.yul\":7026:7088   */\n      swap2\n      pop\n      pop\n        /* \"#utility.yul\":6551:7094   */\n      swap3\n      pop\n      swap3\n      swap1\n      pop\n      jump\t// out\n        /* \"#utility.yul\":7291:8094   */\n    tag_57:\n        /* \"#utility.yul\":7453:7457   */\n      0x00\n        /* \"#utility.yul\":7482:7484   */\n      0x20\n        /* \"#utility.yul\":7522:7524   */\n      dup1\n        /* \"#utility.yul\":7511:7520   */\n      dup4\n        /* \"#utility.yul\":7507:7525   */\n      add\n        /* \"#utility.yul\":7552:7554   */\n      dup2\n        /* \"#utility.yul\":7541:7550   */\n      dup5\n        /* \"#utility.yul\":7534:7555   */\n      mstore\n        /* \"#utility.yul\":7575:7581   */\n      dup1\n        /* \"#utility.yul\":7610:7616   */\n      dup6\n        /* \"#utility.yul\":7604:7617   */\n      mload\n        /* \"#utility.yul\":7641:7647   */\n      dup1\n        /* \"#utility.yul\":7633:7639   */\n      dup4\n        /* \"#utility.yul\":7626:7648   */\n      mstore\n        /* \"#utility.yul\":7679:7681   */\n      0x40\n        /* \"#utility.yul\":7668:7677   */\n      dup7\n        /* \"#utility.yul\":7664:7682   */\n      add\n        /* \"#utility.yul\":7657:7682   */\n      swap2\n      pop\n        /* \"#utility.yul\":7741:7743   */\n      0x40\n        /* \"#utility.yul\":7731:7737   */\n      dup2\n        /* \"#utility.yul\":7728:7729   */\n      0x05\n        /* \"#utility.yul\":7724:7738   */\n      shl\n        /* \"#utility.yul\":7713:7722   */\n      dup8\n        /* \"#utility.yul\":7709:7739   */\n      add\n        /* \"#utility.yul\":7705:7744   */\n      add\n        /* \"#utility.yul\":7691:7744   */\n      swap3\n      pop\n        /* \"#utility.yul\":7779:7781   */\n      dup4\n        /* \"#utility.yul\":7771:7777   */\n      dup8\n        /* \"#utility.yul\":7767:7782   */\n      add\n        /* \"#utility.yul\":7800:7801   */\n      0x00\n        /* \"#utility.yul\":7810:8065   */\n    tag_583:\n        /* \"#utility.yul\":7824:7830   */\n      dup3\n        /* \"#utility.yul\":7821:7822   */\n      dup2\n        /* \"#utility.yul\":7818:7831   */\n      lt\n        /* \"#utility.yul\":7810:8065   */\n      iszero\n      tag_559\n      jumpi\n        /* \"#utility.yul\":7917:7919   */\n      0x3f\n        /* \"#utility.yul\":7913:7920   */\n      not\n        /* \"#utility.yul\":7901:7910   */\n      dup9\n        /* \"#utility.yul\":7893:7899   */\n      dup7\n        /* \"#utility.yul\":7889:7911   */\n      sub\n        /* \"#utility.yul\":7885:7921   */\n      add\n        /* \"#utility.yul\":7880:7883   */\n      dup5\n        /* \"#utility.yul\":7873:7922   */\n      mstore\n        /* \"#utility.yul\":7945:7985   */\n      tag_586\n        /* \"#utility.yul\":7978:7984   */\n      dup6\n        /* \"#utility.yul\":7969:7975   */\n      dup4\n        /* \"#utility.yul\":7963:7976   */\n      mload\n        /* \"#utility.yul\":7945:7985   */\n      tag_509\n      jump\t// in\n    tag_586:\n        /* \"#utility.yul\":7935:7985   */\n      swap5\n      pop\n        /* \"#utility.yul\":8043:8055   */\n      swap3\n      dup6\n      add\n      swap3\n        /* \"#utility.yul\":8008:8023   */\n      swap1\n      dup6\n      add\n      swap1\n        /* \"#utility.yul\":7846:7847   */\n      0x01\n        /* \"#utility.yul\":7839:7848   */\n      add\n        /* \"#utility.yul\":7810:8065   */\n      jump(tag_583)\n        /* \"#utility.yul\":8099:8226   */\n    tag_64:\n        /* \"#utility.yul\":8160:8170   */\n      0x4e487b71\n        /* \"#utility.yul\":8155:8158   */\n      0xe0\n        /* \"#utility.yul\":8151:8171   */\n      shl\n        /* \"#utility.yul\":8148:8149   */\n      0x00\n        /* \"#utility.yul\":8141:8172   */\n      mstore\n        /* \"#utility.yul\":8191:8195   */\n      0x32\n        /* \"#utility.yul\":8188:8189   */\n      0x04\n        /* \"#utility.yul\":8181:8196   */\n      mstore\n        /* \"#utility.yul\":8215:8219   */\n      0x24\n        /* \"#utility.yul\":8212:8213   */\n      0x00\n        /* \"#utility.yul\":8205:8220   */\n      revert\n        /* \"#utility.yul\":8935:9315   */\n    tag_86:\n        /* \"#utility.yul\":9014:9015   */\n      0x01\n        /* \"#utility.yul\":9010:9022   */\n      dup2\n      dup2\n      shr\n      swap1\n        /* \"#utility.yul\":9057:9069   */\n      dup3\n      and\n      dup1\n        /* \"#utility.yul\":9078:9139   */\n      tag_591\n      jumpi\n        /* \"#utility.yul\":9132:9136   */\n      0x7f\n        /* \"#utility.yul\":9124:9130   */\n      dup3\n        /* \"#utility.yul\":9120:9137   */\n      and\n        /* \"#utility.yul\":9110:9137   */\n      swap2\n      pop\n        /* \"#utility.yul\":9078:9139   */\n    tag_591:\n        /* \"#utility.yul\":9185:9187   */\n      0x20\n        /* \"#utility.yul\":9177:9183   */\n      dup3\n        /* \"#utility.yul\":9174:9188   */\n      lt\n        /* \"#utility.yul\":9154:9172   */\n      dup2\n        /* \"#utility.yul\":9151:9189   */\n      sub\n        /* \"#utility.yul\":9148:9309   */\n      tag_592\n      jumpi\n        /* \"#utility.yul\":9231:9241   */\n      0x4e487b71\n        /* \"#utility.yul\":9226:9229   */\n      0xe0\n        /* \"#utility.yul\":9222:9242   */\n      shl\n        /* \"#utility.yul\":9219:9220   */\n      0x00\n        /* \"#utility.yul\":9212:9243   */\n      mstore\n        /* \"#utility.yul\":9266:9270   */\n      0x22\n        /* \"#utility.yul\":9263:9264   */\n      0x04\n        /* \"#utility.yul\":9256:9271   */\n      mstore\n        /* \"#utility.yul\":9294:9298   */\n      0x24\n        /* \"#utility.yul\":9291:9292   */\n      0x00\n        /* \"#utility.yul\":9284:9299   */\n      revert\n        /* \"#utility.yul\":9148:9309   */\n    tag_592:\n      pop\n        /* \"#utility.yul\":8935:9315   */\n      swap2\n      swap1\n      pop\n      jump\t// out\n        /* \"#utility.yul\":9446:9991   */\n    tag_517:\n        /* \"#utility.yul\":9548:9550   */\n      0x1f\n        /* \"#utility.yul\":9543:9546   */\n      dup3\n        /* \"#utility.yul\":9540:9551   */\n      gt\n        /* \"#utility.yul\":9537:9985   */\n      iszero\n      tag_595\n      jumpi\n        /* \"#utility.yul\":9584:9585   */\n      0x00\n        /* \"#utility.yul\":9609:9614   */\n      dup2\n        /* \"#utility.yul\":9605:9607   */\n      dup2\n        /* \"#utility.yul\":9598:9615   */\n      mstore\n        /* \"#utility.yul\":9654:9658   */\n      0x20\n        /* \"#utility.yul\":9650:9652   */\n      dup2\n        /* \"#utility.yul\":9640:9659   */\n      keccak256\n        /* \"#utility.yul\":9724:9726   */\n      0x1f\n        /* \"#utility.yul\":9712:9722   */\n      dup6\n        /* \"#utility.yul\":9708:9727   */\n      add\n        /* \"#utility.yul\":9705:9706   */\n      0x05\n        /* \"#utility.yul\":9701:9728   */\n      shr\n        /* \"#utility.yul\":9695:9699   */\n      dup2\n        /* \"#utility.yul\":9691:9729   */\n      add\n        /* \"#utility.yul\":9760:9764   */\n      0x20\n        /* \"#utility.yul\":9748:9758   */\n      dup7\n        /* \"#utility.yul\":9745:9765   */\n      lt\n        /* \"#utility.yul\":9742:9789   */\n      iszero\n      tag_596\n      jumpi\n      pop\n        /* \"#utility.yul\":9783:9787   */\n      dup1\n        /* \"#utility.yul\":9742:9789   */\n    tag_596:\n        /* \"#utility.yul\":9838:9840   */\n      0x1f\n        /* \"#utility.yul\":9833:9836   */\n      dup6\n        /* \"#utility.yul\":9829:9841   */\n      add\n        /* \"#utility.yul\":9826:9827   */\n      0x05\n        /* \"#utility.yul\":9822:9842   */\n      shr\n        /* \"#utility.yul\":9816:9820   */\n      dup3\n        /* \"#utility.yul\":9812:9843   */\n      add\n        /* \"#utility.yul\":9802:9843   */\n      swap2\n      pop\n        /* \"#utility.yul\":9893:9975   */\n    tag_597:\n        /* \"#utility.yul\":9911:9913   */\n      dup2\n        /* \"#utility.yul\":9904:9909   */\n      dup2\n        /* \"#utility.yul\":9901:9914   */\n      lt\n        /* \"#utility.yul\":9893:9975   */\n      iszero\n      tag_599\n      jumpi\n        /* \"#utility.yul\":9956:9973   */\n      dup3\n      dup2\n      sstore\n        /* \"#utility.yul\":9937:9938   */\n      0x01\n        /* \"#utility.yul\":9926:9939   */\n      add\n        /* \"#utility.yul\":9893:9975   */\n      jump(tag_597)\n    tag_599:\n        /* \"#utility.yul\":9897:9900   */\n      pop\n      pop\n      pop\n        /* \"#utility.yul\":9537:9985   */\n    tag_595:\n        /* \"#utility.yul\":9446:9991   */\n      pop\n      pop\n      pop\n      jump\t// out\n        /* \"#utility.yul\":10167:11519   */\n    tag_106:\n        /* \"#utility.yul\":10293:10296   */\n      dup2\n        /* \"#utility.yul\":10287:10297   */\n      mload\n        /* \"#utility.yul\":10320:10338   */\n      0xffffffffffffffff\n        /* \"#utility.yul\":10312:10318   */\n      dup2\n        /* \"#utility.yul\":10309:10339   */\n      gt\n        /* \"#utility.yul\":10306:10362   */\n      iszero\n      tag_603\n      jumpi\n        /* \"#utility.yul\":10342:10360   */\n      tag_603\n      tag_514\n      jump\t// in\n    tag_603:\n        /* \"#utility.yul\":10371:10468   */\n      tag_604\n        /* \"#utility.yul\":10461:10467   */\n      dup2\n        /* \"#utility.yul\":10421:10459   */\n      tag_605\n        /* \"#utility.yul\":10453:10457   */\n      dup5\n        /* \"#utility.yul\":10447:10458   */\n      sload\n        /* \"#utility.yul\":10421:10459   */\n      tag_86\n      jump\t// in\n    tag_605:\n        /* \"#utility.yul\":10415:10419   */\n      dup5\n        /* \"#utility.yul\":10371:10468   */\n      tag_517\n      jump\t// in\n    tag_604:\n        /* \"#utility.yul\":10523:10527   */\n      0x20\n      dup1\n        /* \"#utility.yul\":10587:10589   */\n      0x1f\n        /* \"#utility.yul\":10576:10590   */\n      dup4\n      gt\n        /* \"#utility.yul\":10604:10605   */\n      0x01\n        /* \"#utility.yul\":10599:11262   */\n      dup2\n      eq\n      tag_607\n      jumpi\n        /* \"#utility.yul\":11306:11307   */\n      0x00\n        /* \"#utility.yul\":11323:11329   */\n      dup5\n        /* \"#utility.yul\":11320:11409   */\n      iszero\n      tag_608\n      jumpi\n      pop\n        /* \"#utility.yul\":11375:11394   */\n      dup6\n      dup4\n      add\n        /* \"#utility.yul\":11369:11395   */\n      mload\n        /* \"#utility.yul\":11320:11409   */\n    tag_608:\n      not(0x00)\n        /* \"#utility.yul\":10124:10125   */\n      0x03\n        /* \"#utility.yul\":10120:10131   */\n      dup7\n      swap1\n      shl\n        /* \"#utility.yul\":10116:10140   */\n      shr\n        /* \"#utility.yul\":10112:10141   */\n      not\n        /* \"#utility.yul\":10102:10142   */\n      and\n        /* \"#utility.yul\":10148:10149   */\n      0x01\n        /* \"#utility.yul\":10144:10155   */\n      dup6\n      swap1\n      shl\n        /* \"#utility.yul\":10099:10156   */\n      or\n        /* \"#utility.yul\":11422:11503   */\n      dup6\n      sstore\n        /* \"#utility.yul\":10569:11513   */\n      jump(tag_599)\n        /* \"#utility.yul\":10599:11262   */\n    tag_607:\n        /* \"#utility.yul\":9393:9394   */\n      0x00\n        /* \"#utility.yul\":9386:9400   */\n      dup6\n      dup2\n      mstore\n        /* \"#utility.yul\":9430:9434   */\n      0x20\n        /* \"#utility.yul\":9417:9435   */\n      dup2\n      keccak256\n      not(0x1f)\n        /* \"#utility.yul\":10635:10655   */\n      dup7\n      and\n      swap2\n        /* \"#utility.yul\":10753:10989   */\n    tag_611:\n        /* \"#utility.yul\":10767:10774   */\n      dup3\n        /* \"#utility.yul\":10764:10765   */\n      dup2\n        /* \"#utility.yul\":10761:10775   */\n      lt\n        /* \"#utility.yul\":10753:10989   */\n      iszero\n      tag_613\n      jumpi\n        /* \"#utility.yul\":10856:10875   */\n      dup9\n      dup7\n      add\n        /* \"#utility.yul\":10850:10876   */\n      mload\n        /* \"#utility.yul\":10835:10877   */\n      dup3\n      sstore\n        /* \"#utility.yul\":10948:10975   */\n      swap5\n      dup5\n      add\n      swap5\n        /* \"#utility.yul\":10916:10917   */\n      0x01\n        /* \"#utility.yul\":10904:10918   */\n      swap1\n      swap2\n      add\n      swap1\n        /* \"#utility.yul\":10783:10802   */\n      dup5\n      add\n        /* \"#utility.yul\":10753:10989   */\n      jump(tag_611)\n    tag_613:\n        /* \"#utility.yul\":10757:10760   */\n      pop\n        /* \"#utility.yul\":11017:11023   */\n      dup6\n        /* \"#utility.yul\":11008:11015   */\n      dup3\n        /* \"#utility.yul\":11005:11024   */\n      lt\n        /* \"#utility.yul\":11002:11203   */\n      iszero\n      tag_614\n      jumpi\n        /* \"#utility.yul\":11078:11097   */\n      dup8\n      dup6\n      add\n        /* \"#utility.yul\":11072:11098   */\n      mload\n      not(0x00)\n        /* \"#utility.yul\":11161:11162   */\n      0x03\n        /* \"#utility.yul\":11157:11171   */\n      dup9\n      swap1\n      shl\n        /* \"#utility.yul\":11173:11176   */\n      0xf8\n        /* \"#utility.yul\":11153:11177   */\n      and\n        /* \"#utility.yul\":11149:11186   */\n      shr\n        /* \"#utility.yul\":11145:11187   */\n      not\n        /* \"#utility.yul\":11130:11188   */\n      and\n        /* \"#utility.yul\":11115:11189   */\n      dup2\n      sstore\n        /* \"#utility.yul\":11002:11203   */\n    tag_614:\n      pop\n      pop\n      pop\n      pop\n      pop\n        /* \"#utility.yul\":11249:11250   */\n      0x01\n        /* \"#utility.yul\":11233:11247   */\n      swap1\n      dup2\n      shl\n        /* \"#utility.yul\":11229:11251   */\n      add\n        /* \"#utility.yul\":11216:11252   */\n      swap1\n      sstore\n      pop\n        /* \"#utility.yul\":10167:11519   */\n      jump\t// out\n        /* \"#utility.yul\":13103:14538   */\n    tag_172:\n        /* \"#utility.yul\":13222:13225   */\n      dup2\n        /* \"#utility.yul\":13216:13220   */\n      dup2\n        /* \"#utility.yul\":13213:13226   */\n      sub\n        /* \"#utility.yul\":13210:13236   */\n      tag_621\n      jumpi\n        /* \"#utility.yul\":13229:13234   */\n      pop\n      pop\n        /* \"#utility.yul\":13103:14538   */\n      jump\t// out\n        /* \"#utility.yul\":13210:13236   */\n    tag_621:\n        /* \"#utility.yul\":13259:13296   */\n      tag_622\n        /* \"#utility.yul\":13291:13294   */\n      dup3\n        /* \"#utility.yul\":13285:13295   */\n      sload\n        /* \"#utility.yul\":13259:13296   */\n      tag_86\n      jump\t// in\n    tag_622:\n        /* \"#utility.yul\":13319:13337   */\n      0xffffffffffffffff\n        /* \"#utility.yul\":13311:13317   */\n      dup2\n        /* \"#utility.yul\":13308:13338   */\n      gt\n        /* \"#utility.yul\":13305:13361   */\n      iszero\n      tag_624\n      jumpi\n        /* \"#utility.yul\":13341:13359   */\n      tag_624\n      tag_514\n      jump\t// in\n    tag_624:\n        /* \"#utility.yul\":13370:13467   */\n      tag_625\n        /* \"#utility.yul\":13460:13466   */\n      dup2\n        /* \"#utility.yul\":13420:13458   */\n      tag_605\n        /* \"#utility.yul\":13452:13456   */\n      dup5\n        /* \"#utility.yul\":13446:13457   */\n      sload\n        /* \"#utility.yul\":13420:13458   */\n      tag_86\n      jump\t// in\n        /* \"#utility.yul\":13370:13467   */\n    tag_625:\n        /* \"#utility.yul\":13493:13494   */\n      0x00\n        /* \"#utility.yul\":13521:13523   */\n      0x1f\n        /* \"#utility.yul\":13513:13519   */\n      dup3\n        /* \"#utility.yul\":13510:13524   */\n      gt\n        /* \"#utility.yul\":13538:13539   */\n      0x01\n        /* \"#utility.yul\":13533:14281   */\n      dup2\n      eq\n      tag_628\n      jumpi\n        /* \"#utility.yul\":14325:14326   */\n      0x00\n        /* \"#utility.yul\":14342:14348   */\n      dup4\n        /* \"#utility.yul\":14339:14428   */\n      iszero\n      tag_629\n      jumpi\n      pop\n        /* \"#utility.yul\":14394:14413   */\n      dup5\n      dup3\n      add\n        /* \"#utility.yul\":14388:14414   */\n      sload\n        /* \"#utility.yul\":14339:14428   */\n    tag_629:\n      not(0x00)\n        /* \"#utility.yul\":10124:10125   */\n      0x03\n        /* \"#utility.yul\":10120:10131   */\n      dup6\n      swap1\n      shl\n        /* \"#utility.yul\":10116:10140   */\n      shr\n        /* \"#utility.yul\":10112:10141   */\n      not\n        /* \"#utility.yul\":10102:10142   */\n      and\n        /* \"#utility.yul\":10148:10149   */\n      0x01\n        /* \"#utility.yul\":10144:10155   */\n      dup5\n      swap1\n      shl\n        /* \"#utility.yul\":10099:10156   */\n      or\n        /* \"#utility.yul\":14441:14522   */\n      dup5\n      sstore\n        /* \"#utility.yul\":13503:14532   */\n      jump(tag_627)\n        /* \"#utility.yul\":13533:14281   */\n    tag_628:\n        /* \"#utility.yul\":9393:9394   */\n      0x00\n        /* \"#utility.yul\":9386:9400   */\n      dup6\n      dup2\n      mstore\n        /* \"#utility.yul\":9430:9434   */\n      0x20\n        /* \"#utility.yul\":9417:9435   */\n      swap1\n      keccak256\n      not(0x1f)\n        /* \"#utility.yul\":13569:13589   */\n      dup5\n      and\n      swap1\n        /* \"#utility.yul\":9393:9394   */\n      0x00\n        /* \"#utility.yul\":9386:9400   */\n      dup7\n      dup2\n      mstore\n        /* \"#utility.yul\":9430:9434   */\n      0x20\n        /* \"#utility.yul\":9417:9435   */\n      swap1\n      keccak256\n        /* \"#utility.yul\":13733:13742   */\n      dup5\n        /* \"#utility.yul\":13755:14006   */\n    tag_633:\n        /* \"#utility.yul\":13769:13776   */\n      dup4\n        /* \"#utility.yul\":13766:13767   */\n      dup2\n        /* \"#utility.yul\":13763:13777   */\n      lt\n        /* \"#utility.yul\":13755:14006   */\n      iszero\n      tag_635\n      jumpi\n        /* \"#utility.yul\":13851:13872   */\n      dup3\n      dup7\n      add\n        /* \"#utility.yul\":13845:13873   */\n      sload\n        /* \"#utility.yul\":13830:13874   */\n      dup3\n      sstore\n        /* \"#utility.yul\":13901:13902   */\n      0x01\n        /* \"#utility.yul\":13974:13992   */\n      swap6\n      dup7\n      add\n      swap6\n        /* \"#utility.yul\":13929:13944   */\n      swap1\n      swap2\n      add\n      swap1\n        /* \"#utility.yul\":13792:13796   */\n      0x20\n        /* \"#utility.yul\":13785:13797   */\n      add\n        /* \"#utility.yul\":13755:14006   */\n      jump(tag_633)\n    tag_635:\n        /* \"#utility.yul\":13759:13762   */\n      pop\n        /* \"#utility.yul\":14034:14040   */\n      dup6\n        /* \"#utility.yul\":14025:14032   */\n      dup4\n        /* \"#utility.yul\":14022:14041   */\n      lt\n        /* \"#utility.yul\":14019:14222   */\n      iszero\n      tag_636\n      jumpi\n        /* \"#utility.yul\":14095:14116   */\n      dup2\n      dup6\n      add\n        /* \"#utility.yul\":14089:14117   */\n      sload\n      not(0x00)\n        /* \"#utility.yul\":14180:14181   */\n      0x03\n        /* \"#utility.yul\":14176:14190   */\n      dup9\n      swap1\n      shl\n        /* \"#utility.yul\":14192:14195   */\n      0xf8\n        /* \"#utility.yul\":14172:14196   */\n      and\n        /* \"#utility.yul\":14168:14205   */\n      shr\n        /* \"#utility.yul\":14164:14206   */\n      not\n        /* \"#utility.yul\":14149:14207   */\n      and\n        /* \"#utility.yul\":14134:14208   */\n      dup2\n      sstore\n        /* \"#utility.yul\":14019:14222   */\n    tag_636:\n      pop\n      pop\n      pop\n        /* \"#utility.yul\":14268:14269   */\n      0x01\n        /* \"#utility.yul\":14259:14265   */\n      dup4\n        /* \"#utility.yul\":14256:14257   */\n      0x01\n        /* \"#utility.yul\":14252:14266   */\n      shl\n        /* \"#utility.yul\":14248:14270   */\n      add\n        /* \"#utility.yul\":14242:14246   */\n      dup5\n        /* \"#utility.yul\":14235:14271   */\n      sstore\n        /* \"#utility.yul\":13503:14532   */\n    tag_627:\n      pop\n      pop\n      pop\n        /* \"#utility.yul\":13103:14538   */\n      pop\n      pop\n      jump\t// out\n        /* \"#utility.yul\":14543:15315   */\n    tag_519:\n        /* \"#utility.yul\":14593:14596   */\n      0x00\n        /* \"#utility.yul\":14634:14639   */\n      dup2\n        /* \"#utility.yul\":14628:14640   */\n      sload\n        /* \"#utility.yul\":14663:14699   */\n      tag_638\n        /* \"#utility.yul\":14689:14698   */\n      dup2\n        /* \"#utility.yul\":14663:14699   */\n      tag_86\n      jump\t// in\n    tag_638:\n        /* \"#utility.yul\":14708:14727   */\n      dup1\n      dup6\n      mstore\n        /* \"#utility.yul\":14746:14750   */\n      0x20\n        /* \"#utility.yul\":14769:14770   */\n      0x01\n        /* \"#utility.yul\":14786:14804   */\n      dup4\n      dup2\n      and\n        /* \"#utility.yul\":14813:14959   */\n      dup1\n      iszero\n      tag_640\n      jumpi\n        /* \"#utility.yul\":14973:14974   */\n      0x01\n        /* \"#utility.yul\":14968:15309   */\n      dup2\n      eq\n      tag_641\n      jumpi\n        /* \"#utility.yul\":14779:15309   */\n      jump(tag_639)\n        /* \"#utility.yul\":14813:14959   */\n    tag_640:\n      not(0xff)\n        /* \"#utility.yul\":14855:14879   */\n      dup6\n      and\n        /* \"#utility.yul\":14841:14853   */\n      dup9\n      dup5\n      add\n        /* \"#utility.yul\":14834:14880   */\n      mstore\n        /* \"#utility.yul\":14927:14941   */\n      dup4\n      iszero\n        /* \"#utility.yul\":14920:14942   */\n      iszero\n        /* \"#utility.yul\":14917:14918   */\n      0x05\n        /* \"#utility.yul\":14913:14943   */\n      shl\n        /* \"#utility.yul\":14904:14944   */\n      dup9\n      add\n        /* \"#utility.yul\":14900:14949   */\n      dup4\n      add\n      swap6\n      pop\n        /* \"#utility.yul\":14813:14959   */\n      jump(tag_639)\n        /* \"#utility.yul\":14968:15309   */\n    tag_641:\n        /* \"#utility.yul\":14999:15004   */\n      dup7\n        /* \"#utility.yul\":14996:14997   */\n      0x00\n        /* \"#utility.yul\":14989:15005   */\n      mstore\n        /* \"#utility.yul\":15046:15048   */\n      dup3\n        /* \"#utility.yul\":15043:15044   */\n      0x00\n        /* \"#utility.yul\":15033:15049   */\n      keccak256\n        /* \"#utility.yul\":15071:15072   */\n      0x00\n        /* \"#utility.yul\":15085:15259   */\n    tag_642:\n        /* \"#utility.yul\":15099:15105   */\n      dup6\n        /* \"#utility.yul\":15096:15097   */\n      dup2\n        /* \"#utility.yul\":15093:15106   */\n      lt\n        /* \"#utility.yul\":15085:15259   */\n      iszero\n      tag_644\n      jumpi\n        /* \"#utility.yul\":15186:15200   */\n      dup2\n      sload\n        /* \"#utility.yul\":15168:15179   */\n      dup11\n      dup3\n      add\n        /* \"#utility.yul\":15164:15184   */\n      dup7\n      add\n        /* \"#utility.yul\":15157:15201   */\n      mstore\n        /* \"#utility.yul\":15229:15245   */\n      swap1\n      dup4\n      add\n      swap1\n        /* \"#utility.yul\":15114:15124   */\n      dup5\n      add\n        /* \"#utility.yul\":15085:15259   */\n      jump(tag_642)\n    tag_644:\n        /* \"#utility.yul\":15283:15294   */\n      dup10\n      add\n        /* \"#utility.yul\":15279:15299   */\n      dup5\n      add\n      swap7\n      pop\n      pop\n        /* \"#utility.yul\":14779:15309   */\n    tag_639:\n      pop\n      pop\n      pop\n      pop\n      pop\n        /* \"#utility.yul\":14543:15315   */\n      swap3\n      swap2\n      pop\n      pop\n      jump\t// out\n        /* \"#utility.yul\":15320:15922   */\n    tag_520:\n        /* \"#utility.yul\":15380:15383   */\n      0x00\n        /* \"#utility.yul\":15418:15423   */\n      dup2\n        /* \"#utility.yul\":15412:15424   */\n      sload\n        /* \"#utility.yul\":15445:15451   */\n      dup1\n        /* \"#utility.yul\":15440:15443   */\n      dup5\n        /* \"#utility.yul\":15433:15452   */\n      mstore\n        /* \"#utility.yul\":15471:15475   */\n      0x20\n        /* \"#utility.yul\":15500:15502   */\n      dup1\n        /* \"#utility.yul\":15495:15498   */\n      dup6\n        /* \"#utility.yul\":15491:15503   */\n      add\n        /* \"#utility.yul\":15484:15503   */\n      swap5\n      pop\n        /* \"#utility.yul\":15525:15528   */\n      dup5\n        /* \"#utility.yul\":15565:15571   */\n      dup3\n        /* \"#utility.yul\":15562:15563   */\n      0x05\n        /* \"#utility.yul\":15558:15572   */\n      shl\n        /* \"#utility.yul\":15553:15556   */\n      dup7\n        /* \"#utility.yul\":15549:15573   */\n      add\n        /* \"#utility.yul\":15592:15597   */\n      dup6\n        /* \"#utility.yul\":15589:15590   */\n      0x00\n        /* \"#utility.yul\":15582:15598   */\n      mstore\n        /* \"#utility.yul\":15634:15636   */\n      dup3\n        /* \"#utility.yul\":15631:15632   */\n      0x00\n        /* \"#utility.yul\":15621:15637   */\n      keccak256\n        /* \"#utility.yul\":15655:15656   */\n      0x00\n        /* \"#utility.yul\":15665:15896   */\n    tag_646:\n        /* \"#utility.yul\":15679:15685   */\n      dup6\n        /* \"#utility.yul\":15676:15677   */\n      dup2\n        /* \"#utility.yul\":15673:15686   */\n      lt\n        /* \"#utility.yul\":15665:15896   */\n      iszero\n      tag_542\n      jumpi\n        /* \"#utility.yul\":15750:15755   */\n      dup4\n        /* \"#utility.yul\":15744:15748   */\n      dup4\n        /* \"#utility.yul\":15740:15756   */\n      sub\n        /* \"#utility.yul\":15735:15738   */\n      dup10\n        /* \"#utility.yul\":15728:15757   */\n      mstore\n        /* \"#utility.yul\":15778:15817   */\n      tag_649\n        /* \"#utility.yul\":15812:15816   */\n      dup4\n        /* \"#utility.yul\":15804:15810   */\n      dup4\n        /* \"#utility.yul\":15778:15817   */\n      tag_519\n      jump\t// in\n    tag_649:\n        /* \"#utility.yul\":15874:15886   */\n      swap9\n      dup6\n      add\n      swap9\n        /* \"#utility.yul\":15770:15817   */\n      swap3\n      pop\n        /* \"#utility.yul\":15852:15853   */\n      0x01\n        /* \"#utility.yul\":15840:15854   */\n      swap2\n      dup3\n      add\n      swap2\n        /* \"#utility.yul\":15694:15703   */\n      add\n        /* \"#utility.yul\":15665:15896   */\n      jump(tag_646)\n        /* \"#utility.yul\":15927:16280   */\n    tag_177:\n        /* \"#utility.yul\":16148:16150   */\n      0x40\n        /* \"#utility.yul\":16137:16146   */\n      dup2\n        /* \"#utility.yul\":16130:16151   */\n      mstore\n        /* \"#utility.yul\":16111:16115   */\n      0x00\n        /* \"#utility.yul\":16168:16231   */\n      tag_651\n        /* \"#utility.yul\":16227:16229   */\n      0x40\n        /* \"#utility.yul\":16216:16225   */\n      dup4\n        /* \"#utility.yul\":16212:16230   */\n      add\n        /* \"#utility.yul\":16204:16210   */\n      dup6\n        /* \"#utility.yul\":16168:16231   */\n      tag_520\n      jump\t// in\n    tag_651:\n        /* \"#utility.yul\":16160:16231   */\n      swap1\n      pop\n        /* \"#utility.yul\":16267:16273   */\n      dup3\n        /* \"#utility.yul\":16262:16264   */\n      0x20\n        /* \"#utility.yul\":16251:16260   */\n      dup4\n        /* \"#utility.yul\":16247:16265   */\n      add\n        /* \"#utility.yul\":16240:16274   */\n      mstore\n        /* \"#utility.yul\":15927:16280   */\n      swap4\n      swap3\n      pop\n      pop\n      pop\n      jump\t// out\n        /* \"#utility.yul\":16285:16412   */\n    tag_521:\n        /* \"#utility.yul\":16346:16356   */\n      0x4e487b71\n        /* \"#utility.yul\":16341:16344   */\n      0xe0\n        /* \"#utility.yul\":16337:16357   */\n      shl\n        /* \"#utility.yul\":16334:16335   */\n      0x00\n        /* \"#utility.yul\":16327:16358   */\n      mstore\n        /* \"#utility.yul\":16377:16381   */\n      0x11\n        /* \"#utility.yul\":16374:16375   */\n      0x04\n        /* \"#utility.yul\":16367:16382   */\n      mstore\n        /* \"#utility.yul\":16401:16405   */\n      0x24\n        /* \"#utility.yul\":16398:16399   */\n      0x00\n        /* \"#utility.yul\":16391:16406   */\n      revert\n        /* \"#utility.yul\":16417:16545   */\n    tag_197:\n        /* \"#utility.yul\":16484:16493   */\n      dup2\n      dup2\n      sub\n        /* \"#utility.yul\":16505:16516   */\n      dup2\n      dup2\n      gt\n        /* \"#utility.yul\":16502:16539   */\n      iszero\n      tag_247\n      jumpi\n        /* \"#utility.yul\":16519:16537   */\n      tag_247\n      tag_521\n      jump\t// in\n        /* \"#utility.yul\":16550:16685   */\n    tag_224:\n        /* \"#utility.yul\":16589:16592   */\n      0x00\n        /* \"#utility.yul\":16610:16627   */\n      0x01\n      dup3\n      add\n        /* \"#utility.yul\":16607:16650   */\n      tag_658\n      jumpi\n        /* \"#utility.yul\":16630:16648   */\n      tag_658\n      tag_521\n      jump\t// in\n    tag_658:\n      pop\n        /* \"#utility.yul\":16677:16678   */\n      0x01\n        /* \"#utility.yul\":16666:16679   */\n      add\n      swap1\n        /* \"#utility.yul\":16550:16685   */\n      jump\t// out\n        /* \"#utility.yul\":16690:16979   */\n    tag_249:\n        /* \"#utility.yul\":16821:16824   */\n      0x00\n        /* \"#utility.yul\":16859:16865   */\n      dup3\n        /* \"#utility.yul\":16853:16866   */\n      mload\n        /* \"#utility.yul\":16875:16941   */\n      tag_660\n        /* \"#utility.yul\":16934:16940   */\n      dup2\n        /* \"#utility.yul\":16929:16932   */\n      dup5\n        /* \"#utility.yul\":16922:16926   */\n      0x20\n        /* \"#utility.yul\":16914:16920   */\n      dup8\n        /* \"#utility.yul\":16910:16927   */\n      add\n        /* \"#utility.yul\":16875:16941   */\n      tag_508\n      jump\t// in\n    tag_660:\n        /* \"#utility.yul\":16957:16973   */\n      swap2\n      swap1\n      swap2\n      add\n      swap3\n        /* \"#utility.yul\":16690:16979   */\n      swap2\n      pop\n      pop\n      jump\t// out\n        /* \"#utility.yul\":18560:19029   */\n    tag_523:\n        /* \"#utility.yul\":18621:18624   */\n      0x00\n        /* \"#utility.yul\":18659:18664   */\n      dup2\n        /* \"#utility.yul\":18653:18665   */\n      sload\n        /* \"#utility.yul\":18686:18692   */\n      dup1\n        /* \"#utility.yul\":18681:18684   */\n      dup5\n        /* \"#utility.yul\":18674:18693   */\n      mstore\n        /* \"#utility.yul\":18712:18716   */\n      0x20\n        /* \"#utility.yul\":18741:18743   */\n      dup1\n        /* \"#utility.yul\":18736:18739   */\n      dup6\n        /* \"#utility.yul\":18732:18744   */\n      add\n        /* \"#utility.yul\":18725:18744   */\n      swap5\n      pop\n        /* \"#utility.yul\":18763:18768   */\n      dup4\n        /* \"#utility.yul\":18760:18761   */\n      0x00\n        /* \"#utility.yul\":18753:18769   */\n      mstore\n        /* \"#utility.yul\":18805:18807   */\n      dup1\n        /* \"#utility.yul\":18802:18803   */\n      0x00\n        /* \"#utility.yul\":18792:18808   */\n      keccak256\n        /* \"#utility.yul\":18826:18827   */\n      0x00\n        /* \"#utility.yul\":18836:19004   */\n    tag_666:\n        /* \"#utility.yul\":18850:18856   */\n      dup4\n        /* \"#utility.yul\":18847:18848   */\n      dup2\n        /* \"#utility.yul\":18844:18857   */\n      lt\n        /* \"#utility.yul\":18836:19004   */\n      iszero\n      tag_547\n      jumpi\n        /* \"#utility.yul\":18911:18924   */\n      dup2\n      sload\n        /* \"#utility.yul\":18899:18925   */\n      dup8\n      mstore\n        /* \"#utility.yul\":18945:18957   */\n      swap6\n      dup3\n      add\n      swap6\n        /* \"#utility.yul\":18992:18993   */\n      0x01\n        /* \"#utility.yul\":18980:18994   */\n      swap2\n      dup3\n      add\n      swap2\n        /* \"#utility.yul\":18865:18874   */\n      add\n        /* \"#utility.yul\":18836:19004   */\n      jump(tag_666)\n        /* \"#utility.yul\":19177:20589   */\n    tag_302:\n        /* \"#utility.yul\":19379:19381   */\n      0x40\n        /* \"#utility.yul\":19368:19377   */\n      dup2\n        /* \"#utility.yul\":19361:19382   */\n      mstore\n        /* \"#utility.yul\":19391:19482   */\n      tag_671\n        /* \"#utility.yul\":19478:19480   */\n      0x40\n        /* \"#utility.yul\":19467:19476   */\n      dup3\n        /* \"#utility.yul\":19463:19481   */\n      add\n        /* \"#utility.yul\":19407:19461   */\n      tag_672\n        /* \"#utility.yul\":19453:19459   */\n      dup6\n        /* \"#utility.yul\":19447:19460   */\n      sload\n        /* \"#utility.yul\":18544:18548   */\n      0xff\n        /* \"#utility.yul\":18528:18549   */\n      and\n      swap1\n        /* \"#utility.yul\":18435:18555   */\n      jump\n        /* \"#utility.yul\":19407:19461   */\n    tag_672:\n        /* \"#utility.yul\":906:919   */\n      iszero\n        /* \"#utility.yul\":899:920   */\n      iszero\n        /* \"#utility.yul\":887:921   */\n      swap1\n      mstore\n        /* \"#utility.yul\":836:927   */\n      jump\n        /* \"#utility.yul\":19391:19482   */\n    tag_671:\n        /* \"#utility.yul\":19342:19346   */\n      0x00\n        /* \"#utility.yul\":19501:19507   */\n      0x0100\n        /* \"#utility.yul\":19543:19545   */\n      dup1\n        /* \"#utility.yul\":19538:19540   */\n      0x60\n        /* \"#utility.yul\":19527:19536   */\n      dup5\n        /* \"#utility.yul\":19523:19541   */\n      add\n        /* \"#utility.yul\":19516:19546   */\n      mstore\n        /* \"#utility.yul\":19569:19634   */\n      tag_673\n        /* \"#utility.yul\":19629:19632   */\n      0x0140\n        /* \"#utility.yul\":19618:19627   */\n      dup5\n        /* \"#utility.yul\":19614:19633   */\n      add\n        /* \"#utility.yul\":19607:19611   */\n      0x01\n        /* \"#utility.yul\":19599:19605   */\n      dup8\n        /* \"#utility.yul\":19595:19612   */\n      add\n        /* \"#utility.yul\":19569:19634   */\n      tag_519\n      jump\t// in\n    tag_673:\n        /* \"#utility.yul\":19657:19659   */\n      0x3f\n        /* \"#utility.yul\":19653:19660   */\n      not\n        /* \"#utility.yul\":19725:19727   */\n      dup1\n        /* \"#utility.yul\":19713:19722   */\n      dup6\n        /* \"#utility.yul\":19705:19711   */\n      dup4\n        /* \"#utility.yul\":19701:19723   */\n      sub\n        /* \"#utility.yul\":19697:19728   */\n      add\n        /* \"#utility.yul\":19691:19694   */\n      0x80\n        /* \"#utility.yul\":19680:19689   */\n      dup7\n        /* \"#utility.yul\":19676:19695   */\n      add\n        /* \"#utility.yul\":19669:19729   */\n      mstore\n        /* \"#utility.yul\":19752:19814   */\n      tag_674\n        /* \"#utility.yul\":19807:19813   */\n      dup3\n        /* \"#utility.yul\":19800:19804   */\n      0x02\n        /* \"#utility.yul\":19792:19798   */\n      dup10\n        /* \"#utility.yul\":19788:19805   */\n      add\n        /* \"#utility.yul\":19752:19814   */\n      tag_520\n      jump\t// in\n    tag_674:\n        /* \"#utility.yul\":19738:19814   */\n      swap2\n      pop\n        /* \"#utility.yul\":19879:19881   */\n      dup1\n        /* \"#utility.yul\":19867:19876   */\n      dup6\n        /* \"#utility.yul\":19859:19865   */\n      dup4\n        /* \"#utility.yul\":19855:19877   */\n      sub\n        /* \"#utility.yul\":19851:19882   */\n      add\n        /* \"#utility.yul\":19845:19848   */\n      0xa0\n        /* \"#utility.yul\":19834:19843   */\n      dup7\n        /* \"#utility.yul\":19830:19849   */\n      add\n        /* \"#utility.yul\":19823:19883   */\n      mstore\n      pop\n        /* \"#utility.yul\":19906:19969   */\n      tag_675\n        /* \"#utility.yul\":19962:19968   */\n      dup2\n        /* \"#utility.yul\":19955:19959   */\n      0x03\n        /* \"#utility.yul\":19947:19953   */\n      dup9\n        /* \"#utility.yul\":19943:19960   */\n      add\n        /* \"#utility.yul\":19906:19969   */\n      tag_523\n      jump\t// in\n    tag_675:\n        /* \"#utility.yul\":19892:19969   */\n      swap1\n      pop\n        /* \"#utility.yul\":19998:20066   */\n      tag_676\n        /* \"#utility.yul\":20059:20063   */\n      0x04\n        /* \"#utility.yul\":20051:20057   */\n      dup8\n        /* \"#utility.yul\":20047:20064   */\n      add\n        /* \"#utility.yul\":20041:20065   */\n      sload\n      sub(shl(0xa0, 0x01), 0x01)\n        /* \"#utility.yul\":19130:19166   */\n      and\n      swap1\n        /* \"#utility.yul\":19034:19172   */\n      jump\n        /* \"#utility.yul\":19998:20066   */\n    tag_676:\n      sub(shl(0xa0, 0x01), 0x01)\n        /* \"#utility.yul\":2566:2597   */\n      swap1\n      dup2\n      and\n        /* \"#utility.yul\":20123:20126   */\n      0xc0\n        /* \"#utility.yul\":20108:20127   */\n      dup7\n      add\n        /* \"#utility.yul\":2554:2598   */\n      mstore\n        /* \"#utility.yul\":20220:20224   */\n      0x05\n        /* \"#utility.yul\":20208:20225   */\n      dup8\n      add\n        /* \"#utility.yul\":20202:20226   */\n      sload\n        /* \"#utility.yul\":19130:19166   */\n      dup2\n      and\n        /* \"#utility.yul\":20286:20289   */\n      0xe0\n        /* \"#utility.yul\":20271:20290   */\n      dup7\n      add\n        /* \"#utility.yul\":2554:2598   */\n      mstore\n        /* \"#utility.yul\":20345:20349   */\n      0x06\n        /* \"#utility.yul\":20333:20350   */\n      dup8\n      add\n        /* \"#utility.yul\":20327:20351   */\n      sload\n        /* \"#utility.yul\":20307:20325   */\n      swap3\n      dup6\n      add\n        /* \"#utility.yul\":20300:20352   */\n      swap3\n      swap1\n      swap3\n      mstore\n        /* \"#utility.yul\":20444:20448   */\n      0x07\n        /* \"#utility.yul\":20432:20449   */\n      swap1\n      swap6\n      add\n        /* \"#utility.yul\":20426:20450   */\n      sload\n        /* \"#utility.yul\":19130:19166   */\n      and\n        /* \"#utility.yul\":20510:20513   */\n      0x0120\n        /* \"#utility.yul\":20495:20514   */\n      dup4\n      add\n        /* \"#utility.yul\":2554:2598   */\n      mstore\n      pop\n        /* \"#utility.yul\":20569:20573   */\n      0x20\n        /* \"#utility.yul\":20554:20574   */\n      add\n        /* \"#utility.yul\":20547:20583   */\n      mstore\n        /* \"#utility.yul\":20554:20574   */\n      swap1\n        /* \"#utility.yul\":19177:20589   */\n      jump\t// out\n        /* \"#utility.yul\":20594:20890   */\n    tag_404:\n        /* \"#utility.yul\":20768:20770   */\n      0x40\n        /* \"#utility.yul\":20757:20766   */\n      dup2\n        /* \"#utility.yul\":20750:20771   */\n      mstore\n        /* \"#utility.yul\":20731:20735   */\n      0x00\n        /* \"#utility.yul\":20788:20841   */\n      tag_651\n        /* \"#utility.yul\":20837:20839   */\n      0x40\n        /* \"#utility.yul\":20826:20835   */\n      dup4\n        /* \"#utility.yul\":20822:20840   */\n      add\n        /* \"#utility.yul\":20814:20820   */\n      dup6\n        /* \"#utility.yul\":20788:20841   */\n      tag_519\n      jump\t// in\n\n    auxdata: 0xa2646970667358221220ac96516d3fe1a9471604ed269076178f00d11b4d5eadb59f677c0bea57e95de764736f6c63430008130033\n}\n",
				"bytecode": {
					"linkReferences": {},
					"object": "600061018081815260016101a081905260026101c0819052608092835260036101e08181526004610200819052600561022081905260a09290925260066102408181526007610260819052600861028081905260c0929092526102a08a81526102c0969096526102e083905260e0959095526103008781526103208490526103409590955261010094909452610360858152610380939093526103a0849052610120929092526103c09687526103e081905261040083905261014096909652610480604052610420928352610440959095526104609490945261016052620000ea92909190620000ff565b50348015620000f857600080fd5b5062000209565b8280548282559060005260206000209081019282156200014b579160200282015b828111156200014b5782516200013a90839060036200015d565b509160200191906001019062000120565b5062000159929150620001ae565b5090565b828054828255906000526020600020908101928215620001a0579160200282015b82811115620001a0578251829060ff169055916020019190600101906200017e565b5062000159929150620001cf565b8082111562000159576000620001c58282620001e6565b50600101620001ae565b5b80821115620001595760008155600101620001d0565b5080546000825590600052602060002090810190620002069190620001cf565b50565b61296f80620002196000396000f3fe608060405234801561001057600080fd5b50600436106100a95760003560e01c806387052fab1161007157806387052fab1461012757806397ca20bf1461014c578063b2182be414610154578063bed34bba14610174578063dc572c6e14610197578063efaa55a0146101b757600080fd5b806317b44960146100ae57806334fd3518146100d7578063491f0136146100ec5780634a9683911461010157806352bc341014610114575b600080fd5b6100c16100bc36600461206f565b6101ca565b6040516100ce9190612088565b60405180910390f35b6100ea6100e536600461206f565b610246565b005b6100f4610315565b6040516100ce919061226a565b6100ea61010f36600461206f565b610586565b6100ea6101223660046122cc565b610708565b61013a61013536600461206f565b610b33565b6040516100ce969594939291906122ee565b6100ea610c16565b61016761016236600461206f565b610f03565b6040516100ce919061233c565b6101876101823660046123f9565b61114d565b60405190151581526020016100ce565b6101aa6101a536600461206f565b6111a7565b6040516100ce919061245d565b6100ea6101c536600461206f565b6112a4565b6060600082815481106101df576101df6124b2565b906000526020600020906008020160030180548060200260200160405190810160405280929190818152602001828054801561023a57602002820191906000526020600020905b815481526020019060010190808311610226575b50505050509050919050565b61024f816115bc565b6102a05760405162461bcd60e51b815260206004820152601c60248201527f796f7520617265206e6f7420746869732067616d6520706c617965720000000060448201526064015b60405180910390fd5b600081815481106102b3576102b36124b2565b600091825260209091206008909102015460ff16156103095760405162461bcd60e51b815260206004820152601260248201527147616d65207374696c6c20706c6179696e6760701b6044820152606401610297565b61031281610586565b50565b60606000805480602002602001604051908101604052809291908181526020016000905b8282101561057d57600084815260209081902060408051610100810190915260088502909101805460ff1615158252600181018054929391929184019161037f906124c8565b80601f01602080910402602001604051908101604052809291908181526020018280546103ab906124c8565b80156103f85780601f106103cd576101008083540402835291602001916103f8565b820191906000526020600020905b8154815290600101906020018083116103db57829003601f168201915b5050505050815260200160028201805480602002602001604051908101604052809291908181526020016000905b828210156104d2578382906000526020600020018054610445906124c8565b80601f0160208091040260200160405190810160405280929190818152602001828054610471906124c8565b80156104be5780601f10610493576101008083540402835291602001916104be565b820191906000526020600020905b8154815290600101906020018083116104a157829003601f168201915b505050505081526020019060010190610426565b5050505081526020016003820180548060200260200160405190810160405280929190818152602001828054801561052957602002820191906000526020600020905b815481526020019060010190808311610515575b505050918352505060048201546001600160a01b0390811660208084019190915260058401548216604084015260068401546060840152600790930154166080909101529082526001929092019101610339565b50505050905090565b604051806040016040528060018152602001600b60fb1b815250600082815481106105b3576105b36124b2565b906000526020600020906008020160010190816105d09190612551565b5060408051610140810182526000610120820181815282528251602081810185528282528084019190915283518082018552828152838501528351808201855282815260608401528351808201855282815260808401528351808201855282815260a08401528351808201855282815260c08401528351808201855282815260e0840152835190810190935280835261010082019290925281549091908390811061067d5761067d6124b2565b906000526020600020906008020160020190600961069c929190611ebe565b506001600082815481106106b2576106b26124b2565b6000918252602091829020600890910201805460ff1916921515929092179091556040518281527fc5478e3fe602c65e5cdd37abe42a8e007ff762d266b9e8256769194c1fa1361e91015b60405180910390a150565b6000818154811061071b5761071b6124b2565b600091825260209091206008909102015460ff1661077b5760405162461bcd60e51b815260206004820152601c60248201527f5468652067616d65207374696c6c206e6f7420737461727420796574000000006044820152606401610297565b61085b60008281548110610791576107916124b2565b906000526020600020906008020160020183815481106107b3576107b36124b2565b9060005260206000200180546107c8906124c8565b80601f01602080910402602001604051908101604052809291908181526020018280546107f4906124c8565b80156108415780601f1061081657610100808354040283529160200191610841565b820191906000526020600020905b81548152906001019060200180831161082457829003601f168201915b50505050506040518060200160405280600081525061114d565b6108975760405162461bcd60e51b815260206004820152600d60248201526c125b9d985b1a59081a5b9c1d5d609a1b6044820152606401610297565b610966600082815481106108ad576108ad6124b2565b906000526020600020906008020160010180546108c9906124c8565b80601f01602080910402602001604051908101604052809291908181526020018280546108f5906124c8565b80156109425780601f1061091757610100808354040283529160200191610942565b820191906000526020600020905b81548152906001019060200180831161092557829003601f168201915b5050505050604051806040016040528060018152602001600b60fb1b81525061114d565b156109e5576000818154811061097e5761097e6124b2565b60009182526020909120600890910201600401546001600160a01b031633146109e05760405162461bcd60e51b8152602060048201526014602482015273596f7520617265206e6f7420706c61796572203160601b6044820152606401610297565b610a5a565b600081815481106109f8576109f86124b2565b60009182526020909120600890910201600501546001600160a01b03163314610a5a5760405162461bcd60e51b81526020600482015260146024820152732cb7ba9030b932903737ba10383630bcb2b9101960611b6044820152606401610297565b60008181548110610a6d57610a6d6124b2565b906000526020600020906008020160010160008281548110610a9157610a916124b2565b90600052602060002090600802016002018381548110610ab357610ab36124b2565b906000526020600020019081610ac99190612611565b507f9659242f3970136bf08cba261398ae9f0bc58a676137d79d3c2040dcdacbc18b60008281548110610afe57610afe6124b2565b906000526020600020906008020160020182604051610b1e9291906127b2565b60405180910390a1610b2f8161163b565b5050565b60008181548110610b4357600080fd5b60009182526020909120600890910201805460018201805460ff909216935090610b6c906124c8565b80601f0160208091040260200160405190810160405280929190818152602001828054610b98906124c8565b8015610be55780601f10610bba57610100808354040283529160200191610be5565b820191906000526020600020905b815481529060010190602001808311610bc857829003601f168201915b50505060048401546005850154600686015460079096015494956001600160a01b0392831695918316945092501686565b610c1e611f14565b6000805460018101825590805281517f290decd9548b62a8d60345a988386fc84ba6bc95484008f6362f93160ef3e5636008909202918201805460ff1916911515919091178155602083015183927f290decd9548b62a8d60345a988386fc84ba6bc95484008f6362f93160ef3e5640190610c999082612551565b5060408201518051610cb5916002840191602090910190611f76565b5060608201518051610cd1916003840191602090910190611fbc565b5060808201516004820180546001600160a01b03199081166001600160a01b039384161790915560a0840151600584018054831691841691909117905560c0840151600684015560e09093015160079092018054909316911617905560008054903390610d3f6001846127ea565b81548110610d4f57610d4f6124b2565b6000918252602082206008919091020160040180546001600160a01b0319166001600160a01b03939093169290921790915580610d8d6001846127ea565b81548110610d9d57610d9d6124b2565b60009182526020822060089190910201805460ff191692151592909217909155600190610dca82846127ea565b81548110610dda57610dda6124b2565b906000526020600020906008020160060181905550604051806040016040528060018152602001600b60fb1b8152506000600183610e1891906127ea565b81548110610e2857610e286124b2565b90600052602060002090600802016001019081610e459190612551565b5060005b6009811015610ec1576000610e5f6001846127ea565b81548110610e6f57610e6f6124b2565b6000918252602080832060026008909302019190910180546001810182559083528183206040805193840190529282529190910190610eae9082612551565b5080610eb9816127fd565b915050610e49565b507fbbba82573073a1190d559566d39447b5e1ad7724b88b63bc98867d229a645b6b610eee6001836127ea565b60405190815260200160405180910390a15050565b610f0b611f14565b60008281548110610f1e57610f1e6124b2565b6000918252602091829020604080516101008101909152600890920201805460ff16151582526001810180549293919291840191610f5b906124c8565b80601f0160208091040260200160405190810160405280929190818152602001828054610f87906124c8565b8015610fd45780601f10610fa957610100808354040283529160200191610fd4565b820191906000526020600020905b815481529060010190602001808311610fb757829003601f168201915b5050505050815260200160028201805480602002602001604051908101604052809291908181526020016000905b828210156110ae578382906000526020600020018054611021906124c8565b80601f016020809104026020016040519081016040528092919081815260200182805461104d906124c8565b801561109a5780601f1061106f5761010080835404028352916020019161109a565b820191906000526020600020905b81548152906001019060200180831161107d57829003601f168201915b505050505081526020019060010190611002565b5050505081526020016003820180548060200260200160405190810160405280929190818152602001828054801561110557602002820191906000526020600020905b8154815260200190600101908083116110f1575b505050918352505060048201546001600160a01b0390811660208301526005830154811660408301526006830154606083015260079092015490911660809091015292915050565b6000816040516020016111609190612816565b60405160208183030381529060405280519060200120836040516020016111879190612816565b604051602081830303815290604052805190602001201490505b92915050565b6060600082815481106111bc576111bc6124b2565b9060005260206000209060080201600201805480602002602001604051908101604052809291908181526020016000905b8282101561129957838290600052602060002001805461120c906124c8565b80601f0160208091040260200160405190810160405280929190818152602001828054611238906124c8565b80156112855780601f1061125a57610100808354040283529160200191611285565b820191906000526020600020905b81548152906001019060200180831161126857829003601f168201915b5050505050815260200190600101906111ed565b505050509050919050565b600081815481106112b7576112b76124b2565b9060005260206000209060080201600601546001036114d157600081815481106112e3576112e36124b2565b60009182526020909120600460089092020101546001600160a01b0316330361135a5760405162461bcd60e51b8152602060048201526024808201527f4572726f723a20596f752063616e6e6f7420706c6179207769746820796f757260448201526339b2b63360e11b6064820152608401610297565b336000828154811061136e5761136e6124b2565b906000526020600020906008020160050160006101000a8154816001600160a01b0302191690836001600160a01b031602179055506002600082815481106113b8576113b86124b2565b9060005260206000209060080201600601819055506001600082815481106113e2576113e26124b2565b60009182526020822060089190910201805460ff19169215159290921790915580547f2f78808c539fd07cb45456a5d5561c76d3d4005246faccb297481e511abc321a919083908110611437576114376124b2565b6000918252602082206004600890920201015481546001600160a01b03909116919084908110611469576114696124b2565b60009182526020918290206005600892909202010154604080516080808252600b908201526a53746172742067616d652160a81b60a08201526001600160a01b03948516938101939093529216818301526060810184905290519081900360c00190a161156b565b600081815481106114e4576114e46124b2565b90600052602060002090600802016006015460021461156b5760405162461bcd60e51b815260206004820152603e60248201527f4e6f772071756575652069732066756c6c2c20747279206c617465722e20476160448201527f6d6520616c72656164792066756c6c20706c73206a6f696e206f7468657200006064820152608401610297565b7fe5fec41b03dea13e32365d514866799a1ea13b31ed7df1eed2092b1dbdb7abe76000828154811061159f5761159f6124b2565b9060005260206000209060080201826040516106fd929190612867565b60008082815481106115d0576115d06124b2565b60009182526020909120600890910201600401546001600160a01b0316331480611628575060008281548110611608576116086124b2565b60009182526020909120600890910201600501546001600160a01b031633145b6116335760006111a1565b600192915050565b6000805b600154811015611b5f5760006001828154811061165e5761165e6124b2565b906000526020600020018054806020026020016040519081016040528092919081815260200182805480156116b257602002820191906000526020600020905b81548152602001906001019080831161169e575b5050505050905060008085815481106116cd576116cd6124b2565b9060005260206000209060080201600201826000815181106116f1576116f16124b2565b602002602001015181548110611709576117096124b2565b90600052602060002001805461171e906124c8565b80601f016020809104026020016040519081016040528092919081815260200182805461174a906124c8565b80156117975780601f1061176c57610100808354040283529160200191611797565b820191906000526020600020905b81548152906001019060200180831161177a57829003601f168201915b5050505050905060008086815481106117b2576117b26124b2565b9060005260206000209060080201600201836001815181106117d6576117d66124b2565b6020026020010151815481106117ee576117ee6124b2565b906000526020600020018054611803906124c8565b80601f016020809104026020016040519081016040528092919081815260200182805461182f906124c8565b801561187c5780601f106118515761010080835404028352916020019161187c565b820191906000526020600020905b81548152906001019060200180831161185f57829003601f168201915b505050505090506000808781548110611897576118976124b2565b9060005260206000209060080201600201846002815181106118bb576118bb6124b2565b6020026020010151815481106118d3576118d36124b2565b9060005260206000200180546118e8906124c8565b80601f0160208091040260200160405190810160405280929190818152602001828054611914906124c8565b80156119615780601f1061193657610100808354040283529160200191611961565b820191906000526020600020905b81548152906001019060200180831161194457829003601f168201915b50505050509050611981836040518060200160405280600081525061114d565b806119a057506119a0826040518060200160405280600081525061114d565b806119bf57506119bf816040518060200160405280600081525061114d565b156119cd5750505050611b4d565b6119d7838361114d565b80156119e857506119e8828261114d565b15611b48578360008881548110611a0157611a016124b2565b90600052602060002090600802016003019080519060200190611a25929190611fbc565b50611a3c600088815481106108ad576108ad6124b2565b15611ac05760008781548110611a5457611a546124b2565b6000918252602082206004600890920201015481546001600160a01b03909116919089908110611a8657611a866124b2565b906000526020600020906008020160070160006101000a8154816001600160a01b0302191690836001600160a01b03160217905550611b3b565b60008781548110611ad357611ad36124b2565b6000918252602082206005600890920201015481546001600160a01b03909116919089908110611b0557611b056124b2565b906000526020600020906008020160070160006101000a8154816001600160a01b0302191690836001600160a01b031602179055505b6001955050505050611b5f565b505050505b80611b57816127fd565b91505061163f565b508015611bf9577f938a1c44580c51d01225d61fb97878104148b1cdc734eb45bc5b5b50533a492d60008381548110611b9a57611b9a6124b2565b906000526020600020906008020160010183604051611bba929190612926565b60405180910390a16000808381548110611bd657611bd66124b2565b60009182526020909120600890910201805460ff19169115159190911790555050565b611c0282611c5e565b15611c555760408051818152600491810191909152634472617760e01b6060820152602081018390527f938a1c44580c51d01225d61fb97878104148b1cdc734eb45bc5b5b50533a492d90608001611bba565b610b2f82611cf2565b6000805b60008381548110611c7557611c756124b2565b906000526020600020906008020160020180549050811015611ce957611cc960008481548110611ca757611ca76124b2565b906000526020600020906008020160020182815481106107b3576107b36124b2565b15611cd75750600092915050565b80611ce1816127fd565b915050611c62565b50600192915050565b611d08600082815481106108ad576108ad6124b2565b15611d7b577feefc3fd775b975165c9d067e02fcd5bf5889d58041ae6ddaf94f2cc85300727260008281548110611d4157611d416124b2565b600091825260209182902060089091020160050154604080516001600160a01b0390921682529181018490520160405180910390a1611de5565b7feefc3fd775b975165c9d067e02fcd5bf5889d58041ae6ddaf94f2cc85300727260008281548110611daf57611daf6124b2565b600091825260209182902060089091020160040154604080516001600160a01b0390921682529181018490520160405180910390a15b611dfb600082815481106108ad576108ad6124b2565b611e1e57604051806040016040528060018152602001600b60fb1b815250611e39565b604051806040016040528060018152602001604f60f81b8152505b60008281548110611e4c57611e4c6124b2565b90600052602060002090600802016001019081611e699190612551565b507fa6d1cb5f730b987124c37c3876130fddba49456449948ec4257360f5ab2851c060008281548110611e9e57611e9e6124b2565b9060005260206000209060080201600101826040516106fd929190612926565b828054828255906000526020600020908101928215611f04579160200282015b82811115611f045782518290611ef49082612551565b5091602001919060010190611ede565b50611f10929150612003565b5090565b60405180610100016040528060001515815260200160608152602001606081526020016060815260200160006001600160a01b0316815260200160006001600160a01b031681526020016000815260200160006001600160a01b031681525090565b828054828255906000526020600020908101928215611f04579160200282015b82811115611f045782518290611fac9082612551565b5091602001919060010190611f96565b828054828255906000526020600020908101928215611ff7579160200282015b82811115611ff7578251825591602001919060010190611fdc565b50611f10929150612020565b80821115611f105760006120178282612035565b50600101612003565b5b80821115611f105760008155600101612021565b508054612041906124c8565b6000825580601f10612051575050565b601f0160209004906000526020600020908101906103129190612020565b60006020828403121561208157600080fd5b5035919050565b6020808252825182820181905260009190848201906040850190845b818110156120c0578351835292840192918401916001016120a4565b50909695505050505050565b60005b838110156120e75781810151838201526020016120cf565b50506000910152565b600081518084526121088160208601602086016120cc565b601f01601f19169290920160200192915050565b600082825180855260208086019550808260051b84010181860160005b8481101561216757601f198684030189526121558383516120f0565b98840198925090830190600101612139565b5090979650505050505050565b600081518084526020808501945080840160005b838110156121a457815187529582019590820190600101612188565b509495945050505050565b600061010082511515845260208301518160208601526121d1828601826120f0565b915050604083015184820360408601526121eb828261211c565b915050606083015184820360608601526122058282612174565b915050608083015161222260808601826001600160a01b03169052565b5060a083015161223d60a08601826001600160a01b03169052565b5060c083015160c085015260e083015161226260e08601826001600160a01b03169052565b509392505050565b6000602080830181845280855180835260408601915060408160051b870101925083870160005b828110156122bf57603f198886030184526122ad8583516121af565b94509285019290850190600101612291565b5092979650505050505050565b600080604083850312156122df57600080fd5b50508035926020909101359150565b861515815260c06020820152600061230960c08301886120f0565b6001600160a01b039687166040840152948616606083015250608081019290925290921660a09092019190915292915050565b60208152600061234f60208301846121af565b9392505050565b634e487b7160e01b600052604160045260246000fd5b600082601f83011261237d57600080fd5b813567ffffffffffffffff8082111561239857612398612356565b604051601f8301601f19908116603f011681019082821181831017156123c0576123c0612356565b816040528381528660208588010111156123d957600080fd5b836020870160208301376000602085830101528094505050505092915050565b6000806040838503121561240c57600080fd5b823567ffffffffffffffff8082111561242457600080fd5b6124308683870161236c565b9350602085013591508082111561244657600080fd5b506124538582860161236c565b9150509250929050565b6000602080830181845280855180835260408601915060408160051b870101925083870160005b828110156122bf57603f198886030184526124a08583516120f0565b94509285019290850190600101612484565b634e487b7160e01b600052603260045260246000fd5b600181811c908216806124dc57607f821691505b6020821081036124fc57634e487b7160e01b600052602260045260246000fd5b50919050565b601f82111561254c57600081815260208120601f850160051c810160208610156125295750805b601f850160051c820191505b8181101561254857828155600101612535565b5050505b505050565b815167ffffffffffffffff81111561256b5761256b612356565b61257f8161257984546124c8565b84612502565b602080601f8311600181146125b4576000841561259c5750858301515b600019600386901b1c1916600185901b178555612548565b600085815260208120601f198616915b828110156125e3578886015182559484019460019091019084016125c4565b50858210156126015787850151600019600388901b60f8161c191681555b5050505050600190811b01905550565b81810361261c575050565b61262682546124c8565b67ffffffffffffffff81111561263e5761263e612356565b61264c8161257984546124c8565b6000601f82116001811461268057600083156126685750848201545b600019600385901b1c1916600184901b1784556126e5565b600085815260209020601f19841690600086815260209020845b838110156126ba578286015482556001958601959091019060200161269a565b50858310156126d85781850154600019600388901b60f8161c191681555b50505060018360011b0184555b5050505050565b600081546126f9816124c8565b80855260206001838116801561271657600181146127305761275e565b60ff1985168884015283151560051b88018301955061275e565b866000528260002060005b858110156127565781548a820186015290830190840161273b565b890184019650505b505050505092915050565b6000815480845260208085019450848260051b8601856000528260002060005b858110156121675783830389526127a083836126ec565b98850198925060019182019101612789565b6040815260006127c56040830185612769565b90508260208301529392505050565b634e487b7160e01b600052601160045260246000fd5b818103818111156111a1576111a16127d4565b60006001820161280f5761280f6127d4565b5060010190565b600082516128288184602087016120cc565b9190910192915050565b6000815480845260208085019450836000528060002060005b838110156121a45781548752958201956001918201910161284b565b604081526128836040820161287d855460ff1690565b15159052565b600061010080606084015261289f6101408401600187016126ec565b603f19808583030160808601526128b98260028901612769565b9150808583030160a0860152506128d38160038801612832565b90506128e960048701546001600160a01b031690565b6001600160a01b0390811660c08601526005870154811660e086015260068701549285019290925260079095015416610120830152506020015290565b6040815260006127c560408301856126ec56fea2646970667358221220ac96516d3fe1a9471604ed269076178f00d11b4d5eadb59f677c0bea57e95de764736f6c63430008130033",
					"opcodes": "PUSH1 0x0 PUSH2 0x180 DUP2 DUP2 MSTORE PUSH1 0x1 PUSH2 0x1A0 DUP2 SWAP1 MSTORE PUSH1 0x2 PUSH2 0x1C0 DUP2 SWAP1 MSTORE PUSH1 0x80 SWAP3 DUP4 MSTORE PUSH1 0x3 PUSH2 0x1E0 DUP2 DUP2 MSTORE PUSH1 0x4 PUSH2 0x200 DUP2 SWAP1 MSTORE PUSH1 0x5 PUSH2 0x220 DUP2 SWAP1 MSTORE PUSH1 0xA0 SWAP3 SWAP1 SWAP3 MSTORE PUSH1 0x6 PUSH2 0x240 DUP2 DUP2 MSTORE PUSH1 0x7 PUSH2 0x260 DUP2 SWAP1 MSTORE PUSH1 0x8 PUSH2 0x280 DUP2 SWAP1 MSTORE PUSH1 0xC0 SWAP3 SWAP1 SWAP3 MSTORE PUSH2 0x2A0 DUP11 DUP2 MSTORE PUSH2 0x2C0 SWAP7 SWAP1 SWAP7 MSTORE PUSH2 0x2E0 DUP4 SWAP1 MSTORE PUSH1 0xE0 SWAP6 SWAP1 SWAP6 MSTORE PUSH2 0x300 DUP8 DUP2 MSTORE PUSH2 0x320 DUP5 SWAP1 MSTORE PUSH2 0x340 SWAP6 SWAP1 SWAP6 MSTORE PUSH2 0x100 SWAP5 SWAP1 SWAP5 MSTORE PUSH2 0x360 DUP6 DUP2 MSTORE PUSH2 0x380 SWAP4 SWAP1 SWAP4 MSTORE PUSH2 0x3A0 DUP5 SWAP1 MSTORE PUSH2 0x120 SWAP3 SWAP1 SWAP3 MSTORE PUSH2 0x3C0 SWAP7 DUP8 MSTORE PUSH2 0x3E0 DUP2 SWAP1 MSTORE PUSH2 0x400 DUP4 SWAP1 MSTORE PUSH2 0x140 SWAP7 SWAP1 SWAP7 MSTORE PUSH2 0x480 PUSH1 0x40 MSTORE PUSH2 0x420 SWAP3 DUP4 MSTORE PUSH2 0x440 SWAP6 SWAP1 SWAP6 MSTORE PUSH2 0x460 SWAP5 SWAP1 SWAP5 MSTORE PUSH2 0x160 MSTORE PUSH3 0xEA SWAP3 SWAP1 SWAP2 SWAP1 PUSH3 0xFF JUMP JUMPDEST POP CALLVALUE DUP1 ISZERO PUSH3 0xF8 JUMPI PUSH1 0x0 DUP1 REVERT JUMPDEST POP PUSH3 0x209 JUMP JUMPDEST DUP3 DUP1 SLOAD DUP3 DUP3 SSTORE SWAP1 PUSH1 0x0 MSTORE PUSH1 0x20 PUSH1 0x0 KECCAK256 SWAP1 DUP2 ADD SWAP3 DUP3 ISZERO PUSH3 0x14B JUMPI SWAP2 PUSH1 0x20 MUL DUP3 ADD JUMPDEST DUP3 DUP2 GT ISZERO PUSH3 0x14B JUMPI DUP3 MLOAD PUSH3 0x13A SWAP1 DUP4 SWAP1 PUSH1 0x3 PUSH3 0x15D JUMP JUMPDEST POP SWAP2 PUSH1 0x20 ADD SWAP2 SWAP1 PUSH1 0x1 ADD SWAP1 PUSH3 0x120 JUMP JUMPDEST POP PUSH3 0x159 SWAP3 SWAP2 POP PUSH3 0x1AE JUMP JUMPDEST POP SWAP1 JUMP JUMPDEST DUP3 DUP1 SLOAD DUP3 DUP3 SSTORE SWAP1 PUSH1 0x0 MSTORE PUSH1 0x20 PUSH1 0x0 KECCAK256 SWAP1 DUP2 ADD SWAP3 DUP3 ISZERO PUSH3 0x1A0 JUMPI SWAP2 PUSH1 0x20 MUL DUP3 ADD JUMPDEST DUP3 DUP2 GT ISZERO PUSH3 0x1A0 JUMPI DUP3 MLOAD DUP3 SWAP1 PUSH1 0xFF AND SWAP1 SSTORE SWAP2 PUSH1 0x20 ADD SWAP2 SWAP1 PUSH1 0x1 ADD SWAP1 PUSH3 0x17E JUMP JUMPDEST POP PUSH3 0x159 SWAP3 SWAP2 POP PUSH3 0x1CF JUMP JUMPDEST DUP1 DUP3 GT ISZERO PUSH3 0x159 JUMPI PUSH1 0x0 PUSH3 0x1C5 DUP3 DUP3 PUSH3 0x1E6 JUMP JUMPDEST POP PUSH1 0x1 ADD PUSH3 0x1AE JUMP JUMPDEST JUMPDEST DUP1 DUP3 GT ISZERO PUSH3 0x159 JUMPI PUSH1 0x0 DUP2 SSTORE PUSH1 0x1 ADD PUSH3 0x1D0 JUMP JUMPDEST POP DUP1 SLOAD PUSH1 0x0 DUP3 SSTORE SWAP1 PUSH1 0x0 MSTORE PUSH1 0x20 PUSH1 0x0 KECCAK256 SWAP1 DUP2 ADD SWAP1 PUSH3 0x206 SWAP2 SWAP1 PUSH3 0x1CF JUMP JUMPDEST POP JUMP JUMPDEST PUSH2 0x296F DUP1 PUSH3 0x219 PUSH1 0x0 CODECOPY PUSH1 0x0 RETURN INVALID PUSH1 0x80 PUSH1 0x40 MSTORE CALLVALUE DUP1 ISZERO PUSH2 0x10 JUMPI PUSH1 0x0 DUP1 REVERT JUMPDEST POP PUSH1 0x4 CALLDATASIZE LT PUSH2 0xA9 JUMPI PUSH1 0x0 CALLDATALOAD PUSH1 0xE0 SHR DUP1 PUSH4 0x87052FAB GT PUSH2 0x71 JUMPI DUP1 PUSH4 0x87052FAB EQ PUSH2 0x127 JUMPI DUP1 PUSH4 0x97CA20BF EQ PUSH2 0x14C JUMPI DUP1 PUSH4 0xB2182BE4 EQ PUSH2 0x154 JUMPI DUP1 PUSH4 0xBED34BBA EQ PUSH2 0x174 JUMPI DUP1 PUSH4 0xDC572C6E EQ PUSH2 0x197 JUMPI DUP1 PUSH4 0xEFAA55A0 EQ PUSH2 0x1B7 JUMPI PUSH1 0x0 DUP1 REVERT JUMPDEST DUP1 PUSH4 0x17B44960 EQ PUSH2 0xAE JUMPI DUP1 PUSH4 0x34FD3518 EQ PUSH2 0xD7 JUMPI DUP1 PUSH4 0x491F0136 EQ PUSH2 0xEC JUMPI DUP1 PUSH4 0x4A968391 EQ PUSH2 0x101 JUMPI DUP1 PUSH4 0x52BC3410 EQ PUSH2 0x114 JUMPI JUMPDEST PUSH1 0x0 DUP1 REVERT JUMPDEST PUSH2 0xC1 PUSH2 0xBC CALLDATASIZE PUSH1 0x4 PUSH2 0x206F JUMP JUMPDEST PUSH2 0x1CA JUMP JUMPDEST PUSH1 0x40 MLOAD PUSH2 0xCE SWAP2 SWAP1 PUSH2 0x2088 JUMP JUMPDEST PUSH1 0x40 MLOAD DUP1 SWAP2 SUB SWAP1 RETURN JUMPDEST PUSH2 0xEA PUSH2 0xE5 CALLDATASIZE PUSH1 0x4 PUSH2 0x206F JUMP JUMPDEST PUSH2 0x246 JUMP JUMPDEST STOP JUMPDEST PUSH2 0xF4 PUSH2 0x315 JUMP JUMPDEST PUSH1 0x40 MLOAD PUSH2 0xCE SWAP2 SWAP1 PUSH2 0x226A JUMP JUMPDEST PUSH2 0xEA PUSH2 0x10F CALLDATASIZE PUSH1 0x4 PUSH2 0x206F JUMP JUMPDEST PUSH2 0x586 JUMP JUMPDEST PUSH2 0xEA PUSH2 0x122 CALLDATASIZE PUSH1 0x4 PUSH2 0x22CC JUMP JUMPDEST PUSH2 0x708 JUMP JUMPDEST PUSH2 0x13A PUSH2 0x135 CALLDATASIZE PUSH1 0x4 PUSH2 0x206F JUMP JUMPDEST PUSH2 0xB33 JUMP JUMPDEST PUSH1 0x40 MLOAD PUSH2 0xCE SWAP7 SWAP6 SWAP5 SWAP4 SWAP3 SWAP2 SWAP1 PUSH2 0x22EE JUMP JUMPDEST PUSH2 0xEA PUSH2 0xC16 JUMP JUMPDEST PUSH2 0x167 PUSH2 0x162 CALLDATASIZE PUSH1 0x4 PUSH2 0x206F JUMP JUMPDEST PUSH2 0xF03 JUMP JUMPDEST PUSH1 0x40 MLOAD PUSH2 0xCE SWAP2 SWAP1 PUSH2 0x233C JUMP JUMPDEST PUSH2 0x187 PUSH2 0x182 CALLDATASIZE PUSH1 0x4 PUSH2 0x23F9 JUMP JUMPDEST PUSH2 0x114D JUMP JUMPDEST PUSH1 0x40 MLOAD SWAP1 ISZERO ISZERO DUP2 MSTORE PUSH1 0x20 ADD PUSH2 0xCE JUMP JUMPDEST PUSH2 0x1AA PUSH2 0x1A5 CALLDATASIZE PUSH1 0x4 PUSH2 0x206F JUMP JUMPDEST PUSH2 0x11A7 JUMP JUMPDEST PUSH1 0x40 MLOAD PUSH2 0xCE SWAP2 SWAP1 PUSH2 0x245D JUMP JUMPDEST PUSH2 0xEA PUSH2 0x1C5 CALLDATASIZE PUSH1 0x4 PUSH2 0x206F JUMP JUMPDEST PUSH2 0x12A4 JUMP JUMPDEST PUSH1 0x60 PUSH1 0x0 DUP3 DUP2 SLOAD DUP2 LT PUSH2 0x1DF JUMPI PUSH2 0x1DF PUSH2 0x24B2 JUMP JUMPDEST SWAP1 PUSH1 0x0 MSTORE PUSH1 0x20 PUSH1 0x0 KECCAK256 SWAP1 PUSH1 0x8 MUL ADD PUSH1 0x3 ADD DUP1 SLOAD DUP1 PUSH1 0x20 MUL PUSH1 0x20 ADD PUSH1 0x40 MLOAD SWAP1 DUP2 ADD PUSH1 0x40 MSTORE DUP1 SWAP3 SWAP2 SWAP1 DUP2 DUP2 MSTORE PUSH1 0x20 ADD DUP3 DUP1 SLOAD DUP1 ISZERO PUSH2 0x23A JUMPI PUSH1 0x20 MUL DUP3 ADD SWAP2 SWAP1 PUSH1 0x0 MSTORE PUSH1 0x20 PUSH1 0x0 KECCAK256 SWAP1 JUMPDEST DUP2 SLOAD DUP2 MSTORE PUSH1 0x20 ADD SWAP1 PUSH1 0x1 ADD SWAP1 DUP1 DUP4 GT PUSH2 0x226 JUMPI JUMPDEST POP POP POP POP POP SWAP1 POP SWAP2 SWAP1 POP JUMP JUMPDEST PUSH2 0x24F DUP2 PUSH2 0x15BC JUMP JUMPDEST PUSH2 0x2A0 JUMPI PUSH1 0x40 MLOAD PUSH3 0x461BCD PUSH1 0xE5 SHL DUP2 MSTORE PUSH1 0x20 PUSH1 0x4 DUP3 ADD MSTORE PUSH1 0x1C PUSH1 0x24 DUP3 ADD MSTORE PUSH32 0x796F7520617265206E6F7420746869732067616D6520706C6179657200000000 PUSH1 0x44 DUP3 ADD MSTORE PUSH1 0x64 ADD JUMPDEST PUSH1 0x40 MLOAD DUP1 SWAP2 SUB SWAP1 REVERT JUMPDEST PUSH1 0x0 DUP2 DUP2 SLOAD DUP2 LT PUSH2 0x2B3 JUMPI PUSH2 0x2B3 PUSH2 0x24B2 JUMP JUMPDEST PUSH1 0x0 SWAP2 DUP3 MSTORE PUSH1 0x20 SWAP1 SWAP2 KECCAK256 PUSH1 0x8 SWAP1 SWAP2 MUL ADD SLOAD PUSH1 0xFF AND ISZERO PUSH2 0x309 JUMPI PUSH1 0x40 MLOAD PUSH3 0x461BCD PUSH1 0xE5 SHL DUP2 MSTORE PUSH1 0x20 PUSH1 0x4 DUP3 ADD MSTORE PUSH1 0x12 PUSH1 0x24 DUP3 ADD MSTORE PUSH18 0x47616D65207374696C6C20706C6179696E67 PUSH1 0x70 SHL PUSH1 0x44 DUP3 ADD MSTORE PUSH1 0x64 ADD PUSH2 0x297 JUMP JUMPDEST PUSH2 0x312 DUP2 PUSH2 0x586 JUMP JUMPDEST POP JUMP JUMPDEST PUSH1 0x60 PUSH1 0x0 DUP1 SLOAD DUP1 PUSH1 0x20 MUL PUSH1 0x20 ADD PUSH1 0x40 MLOAD SWAP1 DUP2 ADD PUSH1 0x40 MSTORE DUP1 SWAP3 SWAP2 SWAP1 DUP2 DUP2 MSTORE PUSH1 0x20 ADD PUSH1 0x0 SWAP1 JUMPDEST DUP3 DUP3 LT ISZERO PUSH2 0x57D JUMPI PUSH1 0x0 DUP5 DUP2 MSTORE PUSH1 0x20 SWAP1 DUP2 SWAP1 KECCAK256 PUSH1 0x40 DUP1 MLOAD PUSH2 0x100 DUP2 ADD SWAP1 SWAP2 MSTORE PUSH1 0x8 DUP6 MUL SWAP1 SWAP2 ADD DUP1 SLOAD PUSH1 0xFF AND ISZERO ISZERO DUP3 MSTORE PUSH1 0x1 DUP2 ADD DUP1 SLOAD SWAP3 SWAP4 SWAP2 SWAP3 SWAP2 DUP5 ADD SWAP2 PUSH2 0x37F SWAP1 PUSH2 0x24C8 JUMP JUMPDEST DUP1 PUSH1 0x1F ADD PUSH1 0x20 DUP1 SWAP2 DIV MUL PUSH1 0x20 ADD PUSH1 0x40 MLOAD SWAP1 DUP2 ADD PUSH1 0x40 MSTORE DUP1 SWAP3 SWAP2 SWAP1 DUP2 DUP2 MSTORE PUSH1 0x20 ADD DUP3 DUP1 SLOAD PUSH2 0x3AB SWAP1 PUSH2 0x24C8 JUMP JUMPDEST DUP1 ISZERO PUSH2 0x3F8 JUMPI DUP1 PUSH1 0x1F LT PUSH2 0x3CD JUMPI PUSH2 0x100 DUP1 DUP4 SLOAD DIV MUL DUP4 MSTORE SWAP2 PUSH1 0x20 ADD SWAP2 PUSH2 0x3F8 JUMP JUMPDEST DUP3 ADD SWAP2 SWAP1 PUSH1 0x0 MSTORE PUSH1 0x20 PUSH1 0x0 KECCAK256 SWAP1 JUMPDEST DUP2 SLOAD DUP2 MSTORE SWAP1 PUSH1 0x1 ADD SWAP1 PUSH1 0x20 ADD DUP1 DUP4 GT PUSH2 0x3DB JUMPI DUP3 SWAP1 SUB PUSH1 0x1F AND DUP3 ADD SWAP2 JUMPDEST POP POP POP POP POP DUP2 MSTORE PUSH1 0x20 ADD PUSH1 0x2 DUP3 ADD DUP1 SLOAD DUP1 PUSH1 0x20 MUL PUSH1 0x20 ADD PUSH1 0x40 MLOAD SWAP1 DUP2 ADD PUSH1 0x40 MSTORE DUP1 SWAP3 SWAP2 SWAP1 DUP2 DUP2 MSTORE PUSH1 0x20 ADD PUSH1 0x0 SWAP1 JUMPDEST DUP3 DUP3 LT ISZERO PUSH2 0x4D2 JUMPI DUP4 DUP3 SWAP1 PUSH1 0x0 MSTORE PUSH1 0x20 PUSH1 0x0 KECCAK256 ADD DUP1 SLOAD PUSH2 0x445 SWAP1 PUSH2 0x24C8 JUMP JUMPDEST DUP1 PUSH1 0x1F ADD PUSH1 0x20 DUP1 SWAP2 DIV MUL PUSH1 0x20 ADD PUSH1 0x40 MLOAD SWAP1 DUP2 ADD PUSH1 0x40 MSTORE DUP1 SWAP3 SWAP2 SWAP1 DUP2 DUP2 MSTORE PUSH1 0x20 ADD DUP3 DUP1 SLOAD PUSH2 0x471 SWAP1 PUSH2 0x24C8 JUMP JUMPDEST DUP1 ISZERO PUSH2 0x4BE JUMPI DUP1 PUSH1 0x1F LT PUSH2 0x493 JUMPI PUSH2 0x100 DUP1 DUP4 SLOAD DIV MUL DUP4 MSTORE SWAP2 PUSH1 0x20 ADD SWAP2 PUSH2 0x4BE JUMP JUMPDEST DUP3 ADD SWAP2 SWAP1 PUSH1 0x0 MSTORE PUSH1 0x20 PUSH1 0x0 KECCAK256 SWAP1 JUMPDEST DUP2 SLOAD DUP2 MSTORE SWAP1 PUSH1 0x1 ADD SWAP1 PUSH1 0x20 ADD DUP1 DUP4 GT PUSH2 0x4A1 JUMPI DUP3 SWAP1 SUB PUSH1 0x1F AND DUP3 ADD SWAP2 JUMPDEST POP POP POP POP POP DUP2 MSTORE PUSH1 0x20 ADD SWAP1 PUSH1 0x1 ADD SWAP1 PUSH2 0x426 JUMP JUMPDEST POP POP POP POP DUP2 MSTORE PUSH1 0x20 ADD PUSH1 0x3 DUP3 ADD DUP1 SLOAD DUP1 PUSH1 0x20 MUL PUSH1 0x20 ADD PUSH1 0x40 MLOAD SWAP1 DUP2 ADD PUSH1 0x40 MSTORE DUP1 SWAP3 SWAP2 SWAP1 DUP2 DUP2 MSTORE PUSH1 0x20 ADD DUP3 DUP1 SLOAD DUP1 ISZERO PUSH2 0x529 JUMPI PUSH1 0x20 MUL DUP3 ADD SWAP2 SWAP1 PUSH1 0x0 MSTORE PUSH1 0x20 PUSH1 0x0 KECCAK256 SWAP1 JUMPDEST DUP2 SLOAD DUP2 MSTORE PUSH1 0x20 ADD SWAP1 PUSH1 0x1 ADD SWAP1 DUP1 DUP4 GT PUSH2 0x515 JUMPI JUMPDEST POP POP POP SWAP2 DUP4 MSTORE POP POP PUSH1 0x4 DUP3 ADD SLOAD PUSH1 0x1 PUSH1 0x1 PUSH1 0xA0 SHL SUB SWAP1 DUP2 AND PUSH1 0x20 DUP1 DUP5 ADD SWAP2 SWAP1 SWAP2 MSTORE PUSH1 0x5 DUP5 ADD SLOAD DUP3 AND PUSH1 0x40 DUP5 ADD MSTORE PUSH1 0x6 DUP5 ADD SLOAD PUSH1 0x60 DUP5 ADD MSTORE PUSH1 0x7 SWAP1 SWAP4 ADD SLOAD AND PUSH1 0x80 SWAP1 SWAP2 ADD MSTORE SWAP1 DUP3 MSTORE PUSH1 0x1 SWAP3 SWAP1 SWAP3 ADD SWAP2 ADD PUSH2 0x339 JUMP JUMPDEST POP POP POP POP SWAP1 POP SWAP1 JUMP JUMPDEST PUSH1 0x40 MLOAD DUP1 PUSH1 0x40 ADD PUSH1 0x40 MSTORE DUP1 PUSH1 0x1 DUP2 MSTORE PUSH1 0x20 ADD PUSH1 0xB PUSH1 0xFB SHL DUP2 MSTORE POP PUSH1 0x0 DUP3 DUP2 SLOAD DUP2 LT PUSH2 0x5B3 JUMPI PUSH2 0x5B3 PUSH2 0x24B2 JUMP JUMPDEST SWAP1 PUSH1 0x0 MSTORE PUSH1 0x20 PUSH1 0x0 KECCAK256 SWAP1 PUSH1 0x8 MUL ADD PUSH1 0x1 ADD SWAP1 DUP2 PUSH2 0x5D0 SWAP2 SWAP1 PUSH2 0x2551 JUMP JUMPDEST POP PUSH1 0x40 DUP1 MLOAD PUSH2 0x140 DUP2 ADD DUP3 MSTORE PUSH1 0x0 PUSH2 0x120 DUP3 ADD DUP2 DUP2 MSTORE DUP3 MSTORE DUP3 MLOAD PUSH1 0x20 DUP2 DUP2 ADD DUP6 MSTORE DUP3 DUP3 MSTORE DUP1 DUP5 ADD SWAP2 SWAP1 SWAP2 MSTORE DUP4 MLOAD DUP1 DUP3 ADD DUP6 MSTORE DUP3 DUP2 MSTORE DUP4 DUP6 ADD MSTORE DUP4 MLOAD DUP1 DUP3 ADD DUP6 MSTORE DUP3 DUP2 MSTORE PUSH1 0x60 DUP5 ADD MSTORE DUP4 MLOAD DUP1 DUP3 ADD DUP6 MSTORE DUP3 DUP2 MSTORE PUSH1 0x80 DUP5 ADD MSTORE DUP4 MLOAD DUP1 DUP3 ADD DUP6 MSTORE DUP3 DUP2 MSTORE PUSH1 0xA0 DUP5 ADD MSTORE DUP4 MLOAD DUP1 DUP3 ADD DUP6 MSTORE DUP3 DUP2 MSTORE PUSH1 0xC0 DUP5 ADD MSTORE DUP4 MLOAD DUP1 DUP3 ADD DUP6 MSTORE DUP3 DUP2 MSTORE PUSH1 0xE0 DUP5 ADD MSTORE DUP4 MLOAD SWAP1 DUP2 ADD SWAP1 SWAP4 MSTORE DUP1 DUP4 MSTORE PUSH2 0x100 DUP3 ADD SWAP3 SWAP1 SWAP3 MSTORE DUP2 SLOAD SWAP1 SWAP2 SWAP1 DUP4 SWAP1 DUP2 LT PUSH2 0x67D JUMPI PUSH2 0x67D PUSH2 0x24B2 JUMP JUMPDEST SWAP1 PUSH1 0x0 MSTORE PUSH1 0x20 PUSH1 0x0 KECCAK256 SWAP1 PUSH1 0x8 MUL ADD PUSH1 0x2 ADD SWAP1 PUSH1 0x9 PUSH2 0x69C SWAP3 SWAP2 SWAP1 PUSH2 0x1EBE JUMP JUMPDEST POP PUSH1 0x1 PUSH1 0x0 DUP3 DUP2 SLOAD DUP2 LT PUSH2 0x6B2 JUMPI PUSH2 0x6B2 PUSH2 0x24B2 JUMP JUMPDEST PUSH1 0x0 SWAP2 DUP3 MSTORE PUSH1 0x20 SWAP2 DUP3 SWAP1 KECCAK256 PUSH1 0x8 SWAP1 SWAP2 MUL ADD DUP1 SLOAD PUSH1 0xFF NOT AND SWAP3 ISZERO ISZERO SWAP3 SWAP1 SWAP3 OR SWAP1 SWAP2 SSTORE PUSH1 0x40 MLOAD DUP3 DUP2 MSTORE PUSH32 0xC5478E3FE602C65E5CDD37ABE42A8E007FF762D266B9E8256769194C1FA1361E SWAP2 ADD JUMPDEST PUSH1 0x40 MLOAD DUP1 SWAP2 SUB SWAP1 LOG1 POP JUMP JUMPDEST PUSH1 0x0 DUP2 DUP2 SLOAD DUP2 LT PUSH2 0x71B JUMPI PUSH2 0x71B PUSH2 0x24B2 JUMP JUMPDEST PUSH1 0x0 SWAP2 DUP3 MSTORE PUSH1 0x20 SWAP1 SWAP2 KECCAK256 PUSH1 0x8 SWAP1 SWAP2 MUL ADD SLOAD PUSH1 0xFF AND PUSH2 0x77B JUMPI PUSH1 0x40 MLOAD PUSH3 0x461BCD PUSH1 0xE5 SHL DUP2 MSTORE PUSH1 0x20 PUSH1 0x4 DUP3 ADD MSTORE PUSH1 0x1C PUSH1 0x24 DUP3 ADD MSTORE PUSH32 0x5468652067616D65207374696C6C206E6F742073746172742079657400000000 PUSH1 0x44 DUP3 ADD MSTORE PUSH1 0x64 ADD PUSH2 0x297 JUMP JUMPDEST PUSH2 0x85B PUSH1 0x0 DUP3 DUP2 SLOAD DUP2 LT PUSH2 0x791 JUMPI PUSH2 0x791 PUSH2 0x24B2 JUMP JUMPDEST SWAP1 PUSH1 0x0 MSTORE PUSH1 0x20 PUSH1 0x0 KECCAK256 SWAP1 PUSH1 0x8 MUL ADD PUSH1 0x2 ADD DUP4 DUP2 SLOAD DUP2 LT PUSH2 0x7B3 JUMPI PUSH2 0x7B3 PUSH2 0x24B2 JUMP JUMPDEST SWAP1 PUSH1 0x0 MSTORE PUSH1 0x20 PUSH1 0x0 KECCAK256 ADD DUP1 SLOAD PUSH2 0x7C8 SWAP1 PUSH2 0x24C8 JUMP JUMPDEST DUP1 PUSH1 0x1F ADD PUSH1 0x20 DUP1 SWAP2 DIV MUL PUSH1 0x20 ADD PUSH1 0x40 MLOAD SWAP1 DUP2 ADD PUSH1 0x40 MSTORE DUP1 SWAP3 SWAP2 SWAP1 DUP2 DUP2 MSTORE PUSH1 0x20 ADD DUP3 DUP1 SLOAD PUSH2 0x7F4 SWAP1 PUSH2 0x24C8 JUMP JUMPDEST DUP1 ISZERO PUSH2 0x841 JUMPI DUP1 PUSH1 0x1F LT PUSH2 0x816 JUMPI PUSH2 0x100 DUP1 DUP4 SLOAD DIV MUL DUP4 MSTORE SWAP2 PUSH1 0x20 ADD SWAP2 PUSH2 0x841 JUMP JUMPDEST DUP3 ADD SWAP2 SWAP1 PUSH1 0x0 MSTORE PUSH1 0x20 PUSH1 0x0 KECCAK256 SWAP1 JUMPDEST DUP2 SLOAD DUP2 MSTORE SWAP1 PUSH1 0x1 ADD SWAP1 PUSH1 0x20 ADD DUP1 DUP4 GT PUSH2 0x824 JUMPI DUP3 SWAP1 SUB PUSH1 0x1F AND DUP3 ADD SWAP2 JUMPDEST POP POP POP POP POP PUSH1 0x40 MLOAD DUP1 PUSH1 0x20 ADD PUSH1 0x40 MSTORE DUP1 PUSH1 0x0 DUP2 MSTORE POP PUSH2 0x114D JUMP JUMPDEST PUSH2 0x897 JUMPI PUSH1 0x40 MLOAD PUSH3 0x461BCD PUSH1 0xE5 SHL DUP2 MSTORE PUSH1 0x20 PUSH1 0x4 DUP3 ADD MSTORE PUSH1 0xD PUSH1 0x24 DUP3 ADD MSTORE PUSH13 0x125B9D985B1A59081A5B9C1D5D PUSH1 0x9A SHL PUSH1 0x44 DUP3 ADD MSTORE PUSH1 0x64 ADD PUSH2 0x297 JUMP JUMPDEST PUSH2 0x966 PUSH1 0x0 DUP3 DUP2 SLOAD DUP2 LT PUSH2 0x8AD JUMPI PUSH2 0x8AD PUSH2 0x24B2 JUMP JUMPDEST SWAP1 PUSH1 0x0 MSTORE PUSH1 0x20 PUSH1 0x0 KECCAK256 SWAP1 PUSH1 0x8 MUL ADD PUSH1 0x1 ADD DUP1 SLOAD PUSH2 0x8C9 SWAP1 PUSH2 0x24C8 JUMP JUMPDEST DUP1 PUSH1 0x1F ADD PUSH1 0x20 DUP1 SWAP2 DIV MUL PUSH1 0x20 ADD PUSH1 0x40 MLOAD SWAP1 DUP2 ADD PUSH1 0x40 MSTORE DUP1 SWAP3 SWAP2 SWAP1 DUP2 DUP2 MSTORE PUSH1 0x20 ADD DUP3 DUP1 SLOAD PUSH2 0x8F5 SWAP1 PUSH2 0x24C8 JUMP JUMPDEST DUP1 ISZERO PUSH2 0x942 JUMPI DUP1 PUSH1 0x1F LT PUSH2 0x917 JUMPI PUSH2 0x100 DUP1 DUP4 SLOAD DIV MUL DUP4 MSTORE SWAP2 PUSH1 0x20 ADD SWAP2 PUSH2 0x942 JUMP JUMPDEST DUP3 ADD SWAP2 SWAP1 PUSH1 0x0 MSTORE PUSH1 0x20 PUSH1 0x0 KECCAK256 SWAP1 JUMPDEST DUP2 SLOAD DUP2 MSTORE SWAP1 PUSH1 0x1 ADD SWAP1 PUSH1 0x20 ADD DUP1 DUP4 GT PUSH2 0x925 JUMPI DUP3 SWAP1 SUB PUSH1 0x1F AND DUP3 ADD SWAP2 JUMPDEST POP POP POP POP POP PUSH1 0x40 MLOAD DUP1 PUSH1 0x40 ADD PUSH1 0x40 MSTORE DUP1 PUSH1 0x1 DUP2 MSTORE PUSH1 0x20 ADD PUSH1 0xB PUSH1 0xFB SHL DUP2 MSTORE POP PUSH2 0x114D JUMP JUMPDEST ISZERO PUSH2 0x9E5 JUMPI PUSH1 0x0 DUP2 DUP2 SLOAD DUP2 LT PUSH2 0x97E JUMPI PUSH2 0x97E PUSH2 0x24B2 JUMP JUMPDEST PUSH1 0x0 SWAP2 DUP3 MSTORE PUSH1 0x20 SWAP1 SWAP2 KECCAK256 PUSH1 0x8 SWAP1 SWAP2 MUL ADD PUSH1 0x4 ADD SLOAD PUSH1 0x1 PUSH1 0x1 PUSH1 0xA0 SHL SUB AND CALLER EQ PUSH2 0x9E0 JUMPI PUSH1 0x40 MLOAD PUSH3 0x461BCD PUSH1 0xE5 SHL DUP2 MSTORE PUSH1 0x20 PUSH1 0x4 DUP3 ADD MSTORE PUSH1 0x14 PUSH1 0x24 DUP3 ADD MSTORE PUSH20 0x596F7520617265206E6F7420706C617965722031 PUSH1 0x60 SHL PUSH1 0x44 DUP3 ADD MSTORE PUSH1 0x64 ADD PUSH2 0x297 JUMP JUMPDEST PUSH2 0xA5A JUMP JUMPDEST PUSH1 0x0 DUP2 DUP2 SLOAD DUP2 LT PUSH2 0x9F8 JUMPI PUSH2 0x9F8 PUSH2 0x24B2 JUMP JUMPDEST PUSH1 0x0 SWAP2 DUP3 MSTORE PUSH1 0x20 SWAP1 SWAP2 KECCAK256 PUSH1 0x8 SWAP1 SWAP2 MUL ADD PUSH1 0x5 ADD SLOAD PUSH1 0x1 PUSH1 0x1 PUSH1 0xA0 SHL SUB AND CALLER EQ PUSH2 0xA5A JUMPI PUSH1 0x40 MLOAD PUSH3 0x461BCD PUSH1 0xE5 SHL DUP2 MSTORE PUSH1 0x20 PUSH1 0x4 DUP3 ADD MSTORE PUSH1 0x14 PUSH1 0x24 DUP3 ADD MSTORE PUSH20 0x2CB7BA9030B932903737BA10383630BCB2B91019 PUSH1 0x61 SHL PUSH1 0x44 DUP3 ADD MSTORE PUSH1 0x64 ADD PUSH2 0x297 JUMP JUMPDEST PUSH1 0x0 DUP2 DUP2 SLOAD DUP2 LT PUSH2 0xA6D JUMPI PUSH2 0xA6D PUSH2 0x24B2 JUMP JUMPDEST SWAP1 PUSH1 0x0 MSTORE PUSH1 0x20 PUSH1 0x0 KECCAK256 SWAP1 PUSH1 0x8 MUL ADD PUSH1 0x1 ADD PUSH1 0x0 DUP3 DUP2 SLOAD DUP2 LT PUSH2 0xA91 JUMPI PUSH2 0xA91 PUSH2 0x24B2 JUMP JUMPDEST SWAP1 PUSH1 0x0 MSTORE PUSH1 0x20 PUSH1 0x0 KECCAK256 SWAP1 PUSH1 0x8 MUL ADD PUSH1 0x2 ADD DUP4 DUP2 SLOAD DUP2 LT PUSH2 0xAB3 JUMPI PUSH2 0xAB3 PUSH2 0x24B2 JUMP JUMPDEST SWAP1 PUSH1 0x0 MSTORE PUSH1 0x20 PUSH1 0x0 KECCAK256 ADD SWAP1 DUP2 PUSH2 0xAC9 SWAP2 SWAP1 PUSH2 0x2611 JUMP JUMPDEST POP PUSH32 0x9659242F3970136BF08CBA261398AE9F0BC58A676137D79D3C2040DCDACBC18B PUSH1 0x0 DUP3 DUP2 SLOAD DUP2 LT PUSH2 0xAFE JUMPI PUSH2 0xAFE PUSH2 0x24B2 JUMP JUMPDEST SWAP1 PUSH1 0x0 MSTORE PUSH1 0x20 PUSH1 0x0 KECCAK256 SWAP1 PUSH1 0x8 MUL ADD PUSH1 0x2 ADD DUP3 PUSH1 0x40 MLOAD PUSH2 0xB1E SWAP3 SWAP2 SWAP1 PUSH2 0x27B2 JUMP JUMPDEST PUSH1 0x40 MLOAD DUP1 SWAP2 SUB SWAP1 LOG1 PUSH2 0xB2F DUP2 PUSH2 0x163B JUMP JUMPDEST POP POP JUMP JUMPDEST PUSH1 0x0 DUP2 DUP2 SLOAD DUP2 LT PUSH2 0xB43 JUMPI PUSH1 0x0 DUP1 REVERT JUMPDEST PUSH1 0x0 SWAP2 DUP3 MSTORE PUSH1 0x20 SWAP1 SWAP2 KECCAK256 PUSH1 0x8 SWAP1 SWAP2 MUL ADD DUP1 SLOAD PUSH1 0x1 DUP3 ADD DUP1 SLOAD PUSH1 0xFF SWAP1 SWAP3 AND SWAP4 POP SWAP1 PUSH2 0xB6C SWAP1 PUSH2 0x24C8 JUMP JUMPDEST DUP1 PUSH1 0x1F ADD PUSH1 0x20 DUP1 SWAP2 DIV MUL PUSH1 0x20 ADD PUSH1 0x40 MLOAD SWAP1 DUP2 ADD PUSH1 0x40 MSTORE DUP1 SWAP3 SWAP2 SWAP1 DUP2 DUP2 MSTORE PUSH1 0x20 ADD DUP3 DUP1 SLOAD PUSH2 0xB98 SWAP1 PUSH2 0x24C8 JUMP JUMPDEST DUP1 ISZERO PUSH2 0xBE5 JUMPI DUP1 PUSH1 0x1F LT PUSH2 0xBBA JUMPI PUSH2 0x100 DUP1 DUP4 SLOAD DIV MUL DUP4 MSTORE SWAP2 PUSH1 0x20 ADD SWAP2 PUSH2 0xBE5 JUMP JUMPDEST DUP3 ADD SWAP2 SWAP1 PUSH1 0x0 MSTORE PUSH1 0x20 PUSH1 0x0 KECCAK256 SWAP1 JUMPDEST DUP2 SLOAD DUP2 MSTORE SWAP1 PUSH1 0x1 ADD SWAP1 PUSH1 0x20 ADD DUP1 DUP4 GT PUSH2 0xBC8 JUMPI DUP3 SWAP1 SUB PUSH1 0x1F AND DUP3 ADD SWAP2 JUMPDEST POP POP POP PUSH1 0x4 DUP5 ADD SLOAD PUSH1 0x5 DUP6 ADD SLOAD PUSH1 0x6 DUP7 ADD SLOAD PUSH1 0x7 SWAP1 SWAP7 ADD SLOAD SWAP5 SWAP6 PUSH1 0x1 PUSH1 0x1 PUSH1 0xA0 SHL SUB SWAP3 DUP4 AND SWAP6 SWAP2 DUP4 AND SWAP5 POP SWAP3 POP AND DUP7 JUMP JUMPDEST PUSH2 0xC1E PUSH2 0x1F14 JUMP JUMPDEST PUSH1 0x0 DUP1 SLOAD PUSH1 0x1 DUP2 ADD DUP3 SSTORE SWAP1 DUP1 MSTORE DUP2 MLOAD PUSH32 0x290DECD9548B62A8D60345A988386FC84BA6BC95484008F6362F93160EF3E563 PUSH1 0x8 SWAP1 SWAP3 MUL SWAP2 DUP3 ADD DUP1 SLOAD PUSH1 0xFF NOT AND SWAP2 ISZERO ISZERO SWAP2 SWAP1 SWAP2 OR DUP2 SSTORE PUSH1 0x20 DUP4 ADD MLOAD DUP4 SWAP3 PUSH32 0x290DECD9548B62A8D60345A988386FC84BA6BC95484008F6362F93160EF3E564 ADD SWAP1 PUSH2 0xC99 SWAP1 DUP3 PUSH2 0x2551 JUMP JUMPDEST POP PUSH1 0x40 DUP3 ADD MLOAD DUP1 MLOAD PUSH2 0xCB5 SWAP2 PUSH1 0x2 DUP5 ADD SWAP2 PUSH1 0x20 SWAP1 SWAP2 ADD SWAP1 PUSH2 0x1F76 JUMP JUMPDEST POP PUSH1 0x60 DUP3 ADD MLOAD DUP1 MLOAD PUSH2 0xCD1 SWAP2 PUSH1 0x3 DUP5 ADD SWAP2 PUSH1 0x20 SWAP1 SWAP2 ADD SWAP1 PUSH2 0x1FBC JUMP JUMPDEST POP PUSH1 0x80 DUP3 ADD MLOAD PUSH1 0x4 DUP3 ADD DUP1 SLOAD PUSH1 0x1 PUSH1 0x1 PUSH1 0xA0 SHL SUB NOT SWAP1 DUP2 AND PUSH1 0x1 PUSH1 0x1 PUSH1 0xA0 SHL SUB SWAP4 DUP5 AND OR SWAP1 SWAP2 SSTORE PUSH1 0xA0 DUP5 ADD MLOAD PUSH1 0x5 DUP5 ADD DUP1 SLOAD DUP4 AND SWAP2 DUP5 AND SWAP2 SWAP1 SWAP2 OR SWAP1 SSTORE PUSH1 0xC0 DUP5 ADD MLOAD PUSH1 0x6 DUP5 ADD SSTORE PUSH1 0xE0 SWAP1 SWAP4 ADD MLOAD PUSH1 0x7 SWAP1 SWAP3 ADD DUP1 SLOAD SWAP1 SWAP4 AND SWAP2 AND OR SWAP1 SSTORE PUSH1 0x0 DUP1 SLOAD SWAP1 CALLER SWAP1 PUSH2 0xD3F PUSH1 0x1 DUP5 PUSH2 0x27EA JUMP JUMPDEST DUP2 SLOAD DUP2 LT PUSH2 0xD4F JUMPI PUSH2 0xD4F PUSH2 0x24B2 JUMP JUMPDEST PUSH1 0x0 SWAP2 DUP3 MSTORE PUSH1 0x20 DUP3 KECCAK256 PUSH1 0x8 SWAP2 SWAP1 SWAP2 MUL ADD PUSH1 0x4 ADD DUP1 SLOAD PUSH1 0x1 PUSH1 0x1 PUSH1 0xA0 SHL SUB NOT AND PUSH1 0x1 PUSH1 0x1 PUSH1 0xA0 SHL SUB SWAP4 SWAP1 SWAP4 AND SWAP3 SWAP1 SWAP3 OR SWAP1 SWAP2 SSTORE DUP1 PUSH2 0xD8D PUSH1 0x1 DUP5 PUSH2 0x27EA JUMP JUMPDEST DUP2 SLOAD DUP2 LT PUSH2 0xD9D JUMPI PUSH2 0xD9D PUSH2 0x24B2 JUMP JUMPDEST PUSH1 0x0 SWAP2 DUP3 MSTORE PUSH1 0x20 DUP3 KECCAK256 PUSH1 0x8 SWAP2 SWAP1 SWAP2 MUL ADD DUP1 SLOAD PUSH1 0xFF NOT AND SWAP3 ISZERO ISZERO SWAP3 SWAP1 SWAP3 OR SWAP1 SWAP2 SSTORE PUSH1 0x1 SWAP1 PUSH2 0xDCA DUP3 DUP5 PUSH2 0x27EA JUMP JUMPDEST DUP2 SLOAD DUP2 LT PUSH2 0xDDA JUMPI PUSH2 0xDDA PUSH2 0x24B2 JUMP JUMPDEST SWAP1 PUSH1 0x0 MSTORE PUSH1 0x20 PUSH1 0x0 KECCAK256 SWAP1 PUSH1 0x8 MUL ADD PUSH1 0x6 ADD DUP2 SWAP1 SSTORE POP PUSH1 0x40 MLOAD DUP1 PUSH1 0x40 ADD PUSH1 0x40 MSTORE DUP1 PUSH1 0x1 DUP2 MSTORE PUSH1 0x20 ADD PUSH1 0xB PUSH1 0xFB SHL DUP2 MSTORE POP PUSH1 0x0 PUSH1 0x1 DUP4 PUSH2 0xE18 SWAP2 SWAP1 PUSH2 0x27EA JUMP JUMPDEST DUP2 SLOAD DUP2 LT PUSH2 0xE28 JUMPI PUSH2 0xE28 PUSH2 0x24B2 JUMP JUMPDEST SWAP1 PUSH1 0x0 MSTORE PUSH1 0x20 PUSH1 0x0 KECCAK256 SWAP1 PUSH1 0x8 MUL ADD PUSH1 0x1 ADD SWAP1 DUP2 PUSH2 0xE45 SWAP2 SWAP1 PUSH2 0x2551 JUMP JUMPDEST POP PUSH1 0x0 JUMPDEST PUSH1 0x9 DUP2 LT ISZERO PUSH2 0xEC1 JUMPI PUSH1 0x0 PUSH2 0xE5F PUSH1 0x1 DUP5 PUSH2 0x27EA JUMP JUMPDEST DUP2 SLOAD DUP2 LT PUSH2 0xE6F JUMPI PUSH2 0xE6F PUSH2 0x24B2 JUMP JUMPDEST PUSH1 0x0 SWAP2 DUP3 MSTORE PUSH1 0x20 DUP1 DUP4 KECCAK256 PUSH1 0x2 PUSH1 0x8 SWAP1 SWAP4 MUL ADD SWAP2 SWAP1 SWAP2 ADD DUP1 SLOAD PUSH1 0x1 DUP2 ADD DUP3 SSTORE SWAP1 DUP4 MSTORE DUP2 DUP4 KECCAK256 PUSH1 0x40 DUP1 MLOAD SWAP4 DUP5 ADD SWAP1 MSTORE SWAP3 DUP3 MSTORE SWAP2 SWAP1 SWAP2 ADD SWAP1 PUSH2 0xEAE SWAP1 DUP3 PUSH2 0x2551 JUMP JUMPDEST POP DUP1 PUSH2 0xEB9 DUP2 PUSH2 0x27FD JUMP JUMPDEST SWAP2 POP POP PUSH2 0xE49 JUMP JUMPDEST POP PUSH32 0xBBBA82573073A1190D559566D39447B5E1AD7724B88B63BC98867D229A645B6B PUSH2 0xEEE PUSH1 0x1 DUP4 PUSH2 0x27EA JUMP JUMPDEST PUSH1 0x40 MLOAD SWAP1 DUP2 MSTORE PUSH1 0x20 ADD PUSH1 0x40 MLOAD DUP1 SWAP2 SUB SWAP1 LOG1 POP POP JUMP JUMPDEST PUSH2 0xF0B PUSH2 0x1F14 JUMP JUMPDEST PUSH1 0x0 DUP3 DUP2 SLOAD DUP2 LT PUSH2 0xF1E JUMPI PUSH2 0xF1E PUSH2 0x24B2 JUMP JUMPDEST PUSH1 0x0 SWAP2 DUP3 MSTORE PUSH1 0x20 SWAP2 DUP3 SWAP1 KECCAK256 PUSH1 0x40 DUP1 MLOAD PUSH2 0x100 DUP2 ADD SWAP1 SWAP2 MSTORE PUSH1 0x8 SWAP1 SWAP3 MUL ADD DUP1 SLOAD PUSH1 0xFF AND ISZERO ISZERO DUP3 MSTORE PUSH1 0x1 DUP2 ADD DUP1 SLOAD SWAP3 SWAP4 SWAP2 SWAP3 SWAP2 DUP5 ADD SWAP2 PUSH2 0xF5B SWAP1 PUSH2 0x24C8 JUMP JUMPDEST DUP1 PUSH1 0x1F ADD PUSH1 0x20 DUP1 SWAP2 DIV MUL PUSH1 0x20 ADD PUSH1 0x40 MLOAD SWAP1 DUP2 ADD PUSH1 0x40 MSTORE DUP1 SWAP3 SWAP2 SWAP1 DUP2 DUP2 MSTORE PUSH1 0x20 ADD DUP3 DUP1 SLOAD PUSH2 0xF87 SWAP1 PUSH2 0x24C8 JUMP JUMPDEST DUP1 ISZERO PUSH2 0xFD4 JUMPI DUP1 PUSH1 0x1F LT PUSH2 0xFA9 JUMPI PUSH2 0x100 DUP1 DUP4 SLOAD DIV MUL DUP4 MSTORE SWAP2 PUSH1 0x20 ADD SWAP2 PUSH2 0xFD4 JUMP JUMPDEST DUP3 ADD SWAP2 SWAP1 PUSH1 0x0 MSTORE PUSH1 0x20 PUSH1 0x0 KECCAK256 SWAP1 JUMPDEST DUP2 SLOAD DUP2 MSTORE SWAP1 PUSH1 0x1 ADD SWAP1 PUSH1 0x20 ADD DUP1 DUP4 GT PUSH2 0xFB7 JUMPI DUP3 SWAP1 SUB PUSH1 0x1F AND DUP3 ADD SWAP2 JUMPDEST POP POP POP POP POP DUP2 MSTORE PUSH1 0x20 ADD PUSH1 0x2 DUP3 ADD DUP1 SLOAD DUP1 PUSH1 0x20 MUL PUSH1 0x20 ADD PUSH1 0x40 MLOAD SWAP1 DUP2 ADD PUSH1 0x40 MSTORE DUP1 SWAP3 SWAP2 SWAP1 DUP2 DUP2 MSTORE PUSH1 0x20 ADD PUSH1 0x0 SWAP1 JUMPDEST DUP3 DUP3 LT ISZERO PUSH2 0x10AE JUMPI DUP4 DUP3 SWAP1 PUSH1 0x0 MSTORE PUSH1 0x20 PUSH1 0x0 KECCAK256 ADD DUP1 SLOAD PUSH2 0x1021 SWAP1 PUSH2 0x24C8 JUMP JUMPDEST DUP1 PUSH1 0x1F ADD PUSH1 0x20 DUP1 SWAP2 DIV MUL PUSH1 0x20 ADD PUSH1 0x40 MLOAD SWAP1 DUP2 ADD PUSH1 0x40 MSTORE DUP1 SWAP3 SWAP2 SWAP1 DUP2 DUP2 MSTORE PUSH1 0x20 ADD DUP3 DUP1 SLOAD PUSH2 0x104D SWAP1 PUSH2 0x24C8 JUMP JUMPDEST DUP1 ISZERO PUSH2 0x109A JUMPI DUP1 PUSH1 0x1F LT PUSH2 0x106F JUMPI PUSH2 0x100 DUP1 DUP4 SLOAD DIV MUL DUP4 MSTORE SWAP2 PUSH1 0x20 ADD SWAP2 PUSH2 0x109A JUMP JUMPDEST DUP3 ADD SWAP2 SWAP1 PUSH1 0x0 MSTORE PUSH1 0x20 PUSH1 0x0 KECCAK256 SWAP1 JUMPDEST DUP2 SLOAD DUP2 MSTORE SWAP1 PUSH1 0x1 ADD SWAP1 PUSH1 0x20 ADD DUP1 DUP4 GT PUSH2 0x107D JUMPI DUP3 SWAP1 SUB PUSH1 0x1F AND DUP3 ADD SWAP2 JUMPDEST POP POP POP POP POP DUP2 MSTORE PUSH1 0x20 ADD SWAP1 PUSH1 0x1 ADD SWAP1 PUSH2 0x1002 JUMP JUMPDEST POP POP POP POP DUP2 MSTORE PUSH1 0x20 ADD PUSH1 0x3 DUP3 ADD DUP1 SLOAD DUP1 PUSH1 0x20 MUL PUSH1 0x20 ADD PUSH1 0x40 MLOAD SWAP1 DUP2 ADD PUSH1 0x40 MSTORE DUP1 SWAP3 SWAP2 SWAP1 DUP2 DUP2 MSTORE PUSH1 0x20 ADD DUP3 DUP1 SLOAD DUP1 ISZERO PUSH2 0x1105 JUMPI PUSH1 0x20 MUL DUP3 ADD SWAP2 SWAP1 PUSH1 0x0 MSTORE PUSH1 0x20 PUSH1 0x0 KECCAK256 SWAP1 JUMPDEST DUP2 SLOAD DUP2 MSTORE PUSH1 0x20 ADD SWAP1 PUSH1 0x1 ADD SWAP1 DUP1 DUP4 GT PUSH2 0x10F1 JUMPI JUMPDEST POP POP POP SWAP2 DUP4 MSTORE POP POP PUSH1 0x4 DUP3 ADD SLOAD PUSH1 0x1 PUSH1 0x1 PUSH1 0xA0 SHL SUB SWAP1 DUP2 AND PUSH1 0x20 DUP4 ADD MSTORE PUSH1 0x5 DUP4 ADD SLOAD DUP2 AND PUSH1 0x40 DUP4 ADD MSTORE PUSH1 0x6 DUP4 ADD SLOAD PUSH1 0x60 DUP4 ADD MSTORE PUSH1 0x7 SWAP1 SWAP3 ADD SLOAD SWAP1 SWAP2 AND PUSH1 0x80 SWAP1 SWAP2 ADD MSTORE SWAP3 SWAP2 POP POP JUMP JUMPDEST PUSH1 0x0 DUP2 PUSH1 0x40 MLOAD PUSH1 0x20 ADD PUSH2 0x1160 SWAP2 SWAP1 PUSH2 0x2816 JUMP JUMPDEST PUSH1 0x40 MLOAD PUSH1 0x20 DUP2 DUP4 SUB SUB DUP2 MSTORE SWAP1 PUSH1 0x40 MSTORE DUP1 MLOAD SWAP1 PUSH1 0x20 ADD KECCAK256 DUP4 PUSH1 0x40 MLOAD PUSH1 0x20 ADD PUSH2 0x1187 SWAP2 SWAP1 PUSH2 0x2816 JUMP JUMPDEST PUSH1 0x40 MLOAD PUSH1 0x20 DUP2 DUP4 SUB SUB DUP2 MSTORE SWAP1 PUSH1 0x40 MSTORE DUP1 MLOAD SWAP1 PUSH1 0x20 ADD KECCAK256 EQ SWAP1 POP JUMPDEST SWAP3 SWAP2 POP POP JUMP JUMPDEST PUSH1 0x60 PUSH1 0x0 DUP3 DUP2 SLOAD DUP2 LT PUSH2 0x11BC JUMPI PUSH2 0x11BC PUSH2 0x24B2 JUMP JUMPDEST SWAP1 PUSH1 0x0 MSTORE PUSH1 0x20 PUSH1 0x0 KECCAK256 SWAP1 PUSH1 0x8 MUL ADD PUSH1 0x2 ADD DUP1 SLOAD DUP1 PUSH1 0x20 MUL PUSH1 0x20 ADD PUSH1 0x40 MLOAD SWAP1 DUP2 ADD PUSH1 0x40 MSTORE DUP1 SWAP3 SWAP2 SWAP1 DUP2 DUP2 MSTORE PUSH1 0x20 ADD PUSH1 0x0 SWAP1 JUMPDEST DUP3 DUP3 LT ISZERO PUSH2 0x1299 JUMPI DUP4 DUP3 SWAP1 PUSH1 0x0 MSTORE PUSH1 0x20 PUSH1 0x0 KECCAK256 ADD DUP1 SLOAD PUSH2 0x120C SWAP1 PUSH2 0x24C8 JUMP JUMPDEST DUP1 PUSH1 0x1F ADD PUSH1 0x20 DUP1 SWAP2 DIV MUL PUSH1 0x20 ADD PUSH1 0x40 MLOAD SWAP1 DUP2 ADD PUSH1 0x40 MSTORE DUP1 SWAP3 SWAP2 SWAP1 DUP2 DUP2 MSTORE PUSH1 0x20 ADD DUP3 DUP1 SLOAD PUSH2 0x1238 SWAP1 PUSH2 0x24C8 JUMP JUMPDEST DUP1 ISZERO PUSH2 0x1285 JUMPI DUP1 PUSH1 0x1F LT PUSH2 0x125A JUMPI PUSH2 0x100 DUP1 DUP4 SLOAD DIV MUL DUP4 MSTORE SWAP2 PUSH1 0x20 ADD SWAP2 PUSH2 0x1285 JUMP JUMPDEST DUP3 ADD SWAP2 SWAP1 PUSH1 0x0 MSTORE PUSH1 0x20 PUSH1 0x0 KECCAK256 SWAP1 JUMPDEST DUP2 SLOAD DUP2 MSTORE SWAP1 PUSH1 0x1 ADD SWAP1 PUSH1 0x20 ADD DUP1 DUP4 GT PUSH2 0x1268 JUMPI DUP3 SWAP1 SUB PUSH1 0x1F AND DUP3 ADD SWAP2 JUMPDEST POP POP POP POP POP DUP2 MSTORE PUSH1 0x20 ADD SWAP1 PUSH1 0x1 ADD SWAP1 PUSH2 0x11ED JUMP JUMPDEST POP POP POP POP SWAP1 POP SWAP2 SWAP1 POP JUMP JUMPDEST PUSH1 0x0 DUP2 DUP2 SLOAD DUP2 LT PUSH2 0x12B7 JUMPI PUSH2 0x12B7 PUSH2 0x24B2 JUMP JUMPDEST SWAP1 PUSH1 0x0 MSTORE PUSH1 0x20 PUSH1 0x0 KECCAK256 SWAP1 PUSH1 0x8 MUL ADD PUSH1 0x6 ADD SLOAD PUSH1 0x1 SUB PUSH2 0x14D1 JUMPI PUSH1 0x0 DUP2 DUP2 SLOAD DUP2 LT PUSH2 0x12E3 JUMPI PUSH2 0x12E3 PUSH2 0x24B2 JUMP JUMPDEST PUSH1 0x0 SWAP2 DUP3 MSTORE PUSH1 0x20 SWAP1 SWAP2 KECCAK256 PUSH1 0x4 PUSH1 0x8 SWAP1 SWAP3 MUL ADD ADD SLOAD PUSH1 0x1 PUSH1 0x1 PUSH1 0xA0 SHL SUB AND CALLER SUB PUSH2 0x135A JUMPI PUSH1 0x40 MLOAD PUSH3 0x461BCD PUSH1 0xE5 SHL DUP2 MSTORE PUSH1 0x20 PUSH1 0x4 DUP3 ADD MSTORE PUSH1 0x24 DUP1 DUP3 ADD MSTORE PUSH32 0x4572726F723A20596F752063616E6E6F7420706C6179207769746820796F7572 PUSH1 0x44 DUP3 ADD MSTORE PUSH4 0x39B2B633 PUSH1 0xE1 SHL PUSH1 0x64 DUP3 ADD MSTORE PUSH1 0x84 ADD PUSH2 0x297 JUMP JUMPDEST CALLER PUSH1 0x0 DUP3 DUP2 SLOAD DUP2 LT PUSH2 0x136E JUMPI PUSH2 0x136E PUSH2 0x24B2 JUMP JUMPDEST SWAP1 PUSH1 0x0 MSTORE PUSH1 0x20 PUSH1 0x0 KECCAK256 SWAP1 PUSH1 0x8 MUL ADD PUSH1 0x5 ADD PUSH1 0x0 PUSH2 0x100 EXP DUP2 SLOAD DUP2 PUSH1 0x1 PUSH1 0x1 PUSH1 0xA0 SHL SUB MUL NOT AND SWAP1 DUP4 PUSH1 0x1 PUSH1 0x1 PUSH1 0xA0 SHL SUB AND MUL OR SWAP1 SSTORE POP PUSH1 0x2 PUSH1 0x0 DUP3 DUP2 SLOAD DUP2 LT PUSH2 0x13B8 JUMPI PUSH2 0x13B8 PUSH2 0x24B2 JUMP JUMPDEST SWAP1 PUSH1 0x0 MSTORE PUSH1 0x20 PUSH1 0x0 KECCAK256 SWAP1 PUSH1 0x8 MUL ADD PUSH1 0x6 ADD DUP2 SWAP1 SSTORE POP PUSH1 0x1 PUSH1 0x0 DUP3 DUP2 SLOAD DUP2 LT PUSH2 0x13E2 JUMPI PUSH2 0x13E2 PUSH2 0x24B2 JUMP JUMPDEST PUSH1 0x0 SWAP2 DUP3 MSTORE PUSH1 0x20 DUP3 KECCAK256 PUSH1 0x8 SWAP2 SWAP1 SWAP2 MUL ADD DUP1 SLOAD PUSH1 0xFF NOT AND SWAP3 ISZERO ISZERO SWAP3 SWAP1 SWAP3 OR SWAP1 SWAP2 SSTORE DUP1 SLOAD PUSH32 0x2F78808C539FD07CB45456A5D5561C76D3D4005246FACCB297481E511ABC321A SWAP2 SWAP1 DUP4 SWAP1 DUP2 LT PUSH2 0x1437 JUMPI PUSH2 0x1437 PUSH2 0x24B2 JUMP JUMPDEST PUSH1 0x0 SWAP2 DUP3 MSTORE PUSH1 0x20 DUP3 KECCAK256 PUSH1 0x4 PUSH1 0x8 SWAP1 SWAP3 MUL ADD ADD SLOAD DUP2 SLOAD PUSH1 0x1 PUSH1 0x1 PUSH1 0xA0 SHL SUB SWAP1 SWAP2 AND SWAP2 SWAP1 DUP5 SWAP1 DUP2 LT PUSH2 0x1469 JUMPI PUSH2 0x1469 PUSH2 0x24B2 JUMP JUMPDEST PUSH1 0x0 SWAP2 DUP3 MSTORE PUSH1 0x20 SWAP2 DUP3 SWAP1 KECCAK256 PUSH1 0x5 PUSH1 0x8 SWAP3 SWAP1 SWAP3 MUL ADD ADD SLOAD PUSH1 0x40 DUP1 MLOAD PUSH1 0x80 DUP1 DUP3 MSTORE PUSH1 0xB SWAP1 DUP3 ADD MSTORE PUSH11 0x53746172742067616D6521 PUSH1 0xA8 SHL PUSH1 0xA0 DUP3 ADD MSTORE PUSH1 0x1 PUSH1 0x1 PUSH1 0xA0 SHL SUB SWAP5 DUP6 AND SWAP4 DUP2 ADD SWAP4 SWAP1 SWAP4 MSTORE SWAP3 AND DUP2 DUP4 ADD MSTORE PUSH1 0x60 DUP2 ADD DUP5 SWAP1 MSTORE SWAP1 MLOAD SWAP1 DUP2 SWAP1 SUB PUSH1 0xC0 ADD SWAP1 LOG1 PUSH2 0x156B JUMP JUMPDEST PUSH1 0x0 DUP2 DUP2 SLOAD DUP2 LT PUSH2 0x14E4 JUMPI PUSH2 0x14E4 PUSH2 0x24B2 JUMP JUMPDEST SWAP1 PUSH1 0x0 MSTORE PUSH1 0x20 PUSH1 0x0 KECCAK256 SWAP1 PUSH1 0x8 MUL ADD PUSH1 0x6 ADD SLOAD PUSH1 0x2 EQ PUSH2 0x156B JUMPI PUSH1 0x40 MLOAD PUSH3 0x461BCD PUSH1 0xE5 SHL DUP2 MSTORE PUSH1 0x20 PUSH1 0x4 DUP3 ADD MSTORE PUSH1 0x3E PUSH1 0x24 DUP3 ADD MSTORE PUSH32 0x4E6F772071756575652069732066756C6C2C20747279206C617465722E204761 PUSH1 0x44 DUP3 ADD MSTORE PUSH32 0x6D6520616C72656164792066756C6C20706C73206A6F696E206F746865720000 PUSH1 0x64 DUP3 ADD MSTORE PUSH1 0x84 ADD PUSH2 0x297 JUMP JUMPDEST PUSH32 0xE5FEC41B03DEA13E32365D514866799A1EA13B31ED7DF1EED2092B1DBDB7ABE7 PUSH1 0x0 DUP3 DUP2 SLOAD DUP2 LT PUSH2 0x159F JUMPI PUSH2 0x159F PUSH2 0x24B2 JUMP JUMPDEST SWAP1 PUSH1 0x0 MSTORE PUSH1 0x20 PUSH1 0x0 KECCAK256 SWAP1 PUSH1 0x8 MUL ADD DUP3 PUSH1 0x40 MLOAD PUSH2 0x6FD SWAP3 SWAP2 SWAP1 PUSH2 0x2867 JUMP JUMPDEST PUSH1 0x0 DUP1 DUP3 DUP2 SLOAD DUP2 LT PUSH2 0x15D0 JUMPI PUSH2 0x15D0 PUSH2 0x24B2 JUMP JUMPDEST PUSH1 0x0 SWAP2 DUP3 MSTORE PUSH1 0x20 SWAP1 SWAP2 KECCAK256 PUSH1 0x8 SWAP1 SWAP2 MUL ADD PUSH1 0x4 ADD SLOAD PUSH1 0x1 PUSH1 0x1 PUSH1 0xA0 SHL SUB AND CALLER EQ DUP1 PUSH2 0x1628 JUMPI POP PUSH1 0x0 DUP3 DUP2 SLOAD DUP2 LT PUSH2 0x1608 JUMPI PUSH2 0x1608 PUSH2 0x24B2 JUMP JUMPDEST PUSH1 0x0 SWAP2 DUP3 MSTORE PUSH1 0x20 SWAP1 SWAP2 KECCAK256 PUSH1 0x8 SWAP1 SWAP2 MUL ADD PUSH1 0x5 ADD SLOAD PUSH1 0x1 PUSH1 0x1 PUSH1 0xA0 SHL SUB AND CALLER EQ JUMPDEST PUSH2 0x1633 JUMPI PUSH1 0x0 PUSH2 0x11A1 JUMP JUMPDEST PUSH1 0x1 SWAP3 SWAP2 POP POP JUMP JUMPDEST PUSH1 0x0 DUP1 JUMPDEST PUSH1 0x1 SLOAD DUP2 LT ISZERO PUSH2 0x1B5F JUMPI PUSH1 0x0 PUSH1 0x1 DUP3 DUP2 SLOAD DUP2 LT PUSH2 0x165E JUMPI PUSH2 0x165E PUSH2 0x24B2 JUMP JUMPDEST SWAP1 PUSH1 0x0 MSTORE PUSH1 0x20 PUSH1 0x0 KECCAK256 ADD DUP1 SLOAD DUP1 PUSH1 0x20 MUL PUSH1 0x20 ADD PUSH1 0x40 MLOAD SWAP1 DUP2 ADD PUSH1 0x40 MSTORE DUP1 SWAP3 SWAP2 SWAP1 DUP2 DUP2 MSTORE PUSH1 0x20 ADD DUP3 DUP1 SLOAD DUP1 ISZERO PUSH2 0x16B2 JUMPI PUSH1 0x20 MUL DUP3 ADD SWAP2 SWAP1 PUSH1 0x0 MSTORE PUSH1 0x20 PUSH1 0x0 KECCAK256 SWAP1 JUMPDEST DUP2 SLOAD DUP2 MSTORE PUSH1 0x20 ADD SWAP1 PUSH1 0x1 ADD SWAP1 DUP1 DUP4 GT PUSH2 0x169E JUMPI JUMPDEST POP POP POP POP POP SWAP1 POP PUSH1 0x0 DUP1 DUP6 DUP2 SLOAD DUP2 LT PUSH2 0x16CD JUMPI PUSH2 0x16CD PUSH2 0x24B2 JUMP JUMPDEST SWAP1 PUSH1 0x0 MSTORE PUSH1 0x20 PUSH1 0x0 KECCAK256 SWAP1 PUSH1 0x8 MUL ADD PUSH1 0x2 ADD DUP3 PUSH1 0x0 DUP2 MLOAD DUP2 LT PUSH2 0x16F1 JUMPI PUSH2 0x16F1 PUSH2 0x24B2 JUMP JUMPDEST PUSH1 0x20 MUL PUSH1 0x20 ADD ADD MLOAD DUP2 SLOAD DUP2 LT PUSH2 0x1709 JUMPI PUSH2 0x1709 PUSH2 0x24B2 JUMP JUMPDEST SWAP1 PUSH1 0x0 MSTORE PUSH1 0x20 PUSH1 0x0 KECCAK256 ADD DUP1 SLOAD PUSH2 0x171E SWAP1 PUSH2 0x24C8 JUMP JUMPDEST DUP1 PUSH1 0x1F ADD PUSH1 0x20 DUP1 SWAP2 DIV MUL PUSH1 0x20 ADD PUSH1 0x40 MLOAD SWAP1 DUP2 ADD PUSH1 0x40 MSTORE DUP1 SWAP3 SWAP2 SWAP1 DUP2 DUP2 MSTORE PUSH1 0x20 ADD DUP3 DUP1 SLOAD PUSH2 0x174A SWAP1 PUSH2 0x24C8 JUMP JUMPDEST DUP1 ISZERO PUSH2 0x1797 JUMPI DUP1 PUSH1 0x1F LT PUSH2 0x176C JUMPI PUSH2 0x100 DUP1 DUP4 SLOAD DIV MUL DUP4 MSTORE SWAP2 PUSH1 0x20 ADD SWAP2 PUSH2 0x1797 JUMP JUMPDEST DUP3 ADD SWAP2 SWAP1 PUSH1 0x0 MSTORE PUSH1 0x20 PUSH1 0x0 KECCAK256 SWAP1 JUMPDEST DUP2 SLOAD DUP2 MSTORE SWAP1 PUSH1 0x1 ADD SWAP1 PUSH1 0x20 ADD DUP1 DUP4 GT PUSH2 0x177A JUMPI DUP3 SWAP1 SUB PUSH1 0x1F AND DUP3 ADD SWAP2 JUMPDEST POP POP POP POP POP SWAP1 POP PUSH1 0x0 DUP1 DUP7 DUP2 SLOAD DUP2 LT PUSH2 0x17B2 JUMPI PUSH2 0x17B2 PUSH2 0x24B2 JUMP JUMPDEST SWAP1 PUSH1 0x0 MSTORE PUSH1 0x20 PUSH1 0x0 KECCAK256 SWAP1 PUSH1 0x8 MUL ADD PUSH1 0x2 ADD DUP4 PUSH1 0x1 DUP2 MLOAD DUP2 LT PUSH2 0x17D6 JUMPI PUSH2 0x17D6 PUSH2 0x24B2 JUMP JUMPDEST PUSH1 0x20 MUL PUSH1 0x20 ADD ADD MLOAD DUP2 SLOAD DUP2 LT PUSH2 0x17EE JUMPI PUSH2 0x17EE PUSH2 0x24B2 JUMP JUMPDEST SWAP1 PUSH1 0x0 MSTORE PUSH1 0x20 PUSH1 0x0 KECCAK256 ADD DUP1 SLOAD PUSH2 0x1803 SWAP1 PUSH2 0x24C8 JUMP JUMPDEST DUP1 PUSH1 0x1F ADD PUSH1 0x20 DUP1 SWAP2 DIV MUL PUSH1 0x20 ADD PUSH1 0x40 MLOAD SWAP1 DUP2 ADD PUSH1 0x40 MSTORE DUP1 SWAP3 SWAP2 SWAP1 DUP2 DUP2 MSTORE PUSH1 0x20 ADD DUP3 DUP1 SLOAD PUSH2 0x182F SWAP1 PUSH2 0x24C8 JUMP JUMPDEST DUP1 ISZERO PUSH2 0x187C JUMPI DUP1 PUSH1 0x1F LT PUSH2 0x1851 JUMPI PUSH2 0x100 DUP1 DUP4 SLOAD DIV MUL DUP4 MSTORE SWAP2 PUSH1 0x20 ADD SWAP2 PUSH2 0x187C JUMP JUMPDEST DUP3 ADD SWAP2 SWAP1 PUSH1 0x0 MSTORE PUSH1 0x20 PUSH1 0x0 KECCAK256 SWAP1 JUMPDEST DUP2 SLOAD DUP2 MSTORE SWAP1 PUSH1 0x1 ADD SWAP1 PUSH1 0x20 ADD DUP1 DUP4 GT PUSH2 0x185F JUMPI DUP3 SWAP1 SUB PUSH1 0x1F AND DUP3 ADD SWAP2 JUMPDEST POP POP POP POP POP SWAP1 POP PUSH1 0x0 DUP1 DUP8 DUP2 SLOAD DUP2 LT PUSH2 0x1897 JUMPI PUSH2 0x1897 PUSH2 0x24B2 JUMP JUMPDEST SWAP1 PUSH1 0x0 MSTORE PUSH1 0x20 PUSH1 0x0 KECCAK256 SWAP1 PUSH1 0x8 MUL ADD PUSH1 0x2 ADD DUP5 PUSH1 0x2 DUP2 MLOAD DUP2 LT PUSH2 0x18BB JUMPI PUSH2 0x18BB PUSH2 0x24B2 JUMP JUMPDEST PUSH1 0x20 MUL PUSH1 0x20 ADD ADD MLOAD DUP2 SLOAD DUP2 LT PUSH2 0x18D3 JUMPI PUSH2 0x18D3 PUSH2 0x24B2 JUMP JUMPDEST SWAP1 PUSH1 0x0 MSTORE PUSH1 0x20 PUSH1 0x0 KECCAK256 ADD DUP1 SLOAD PUSH2 0x18E8 SWAP1 PUSH2 0x24C8 JUMP JUMPDEST DUP1 PUSH1 0x1F ADD PUSH1 0x20 DUP1 SWAP2 DIV MUL PUSH1 0x20 ADD PUSH1 0x40 MLOAD SWAP1 DUP2 ADD PUSH1 0x40 MSTORE DUP1 SWAP3 SWAP2 SWAP1 DUP2 DUP2 MSTORE PUSH1 0x20 ADD DUP3 DUP1 SLOAD PUSH2 0x1914 SWAP1 PUSH2 0x24C8 JUMP JUMPDEST DUP1 ISZERO PUSH2 0x1961 JUMPI DUP1 PUSH1 0x1F LT PUSH2 0x1936 JUMPI PUSH2 0x100 DUP1 DUP4 SLOAD DIV MUL DUP4 MSTORE SWAP2 PUSH1 0x20 ADD SWAP2 PUSH2 0x1961 JUMP JUMPDEST DUP3 ADD SWAP2 SWAP1 PUSH1 0x0 MSTORE PUSH1 0x20 PUSH1 0x0 KECCAK256 SWAP1 JUMPDEST DUP2 SLOAD DUP2 MSTORE SWAP1 PUSH1 0x1 ADD SWAP1 PUSH1 0x20 ADD DUP1 DUP4 GT PUSH2 0x1944 JUMPI DUP3 SWAP1 SUB PUSH1 0x1F AND DUP3 ADD SWAP2 JUMPDEST POP POP POP POP POP SWAP1 POP PUSH2 0x1981 DUP4 PUSH1 0x40 MLOAD DUP1 PUSH1 0x20 ADD PUSH1 0x40 MSTORE DUP1 PUSH1 0x0 DUP2 MSTORE POP PUSH2 0x114D JUMP JUMPDEST DUP1 PUSH2 0x19A0 JUMPI POP PUSH2 0x19A0 DUP3 PUSH1 0x40 MLOAD DUP1 PUSH1 0x20 ADD PUSH1 0x40 MSTORE DUP1 PUSH1 0x0 DUP2 MSTORE POP PUSH2 0x114D JUMP JUMPDEST DUP1 PUSH2 0x19BF JUMPI POP PUSH2 0x19BF DUP2 PUSH1 0x40 MLOAD DUP1 PUSH1 0x20 ADD PUSH1 0x40 MSTORE DUP1 PUSH1 0x0 DUP2 MSTORE POP PUSH2 0x114D JUMP JUMPDEST ISZERO PUSH2 0x19CD JUMPI POP POP POP POP PUSH2 0x1B4D JUMP JUMPDEST PUSH2 0x19D7 DUP4 DUP4 PUSH2 0x114D JUMP JUMPDEST DUP1 ISZERO PUSH2 0x19E8 JUMPI POP PUSH2 0x19E8 DUP3 DUP3 PUSH2 0x114D JUMP JUMPDEST ISZERO PUSH2 0x1B48 JUMPI DUP4 PUSH1 0x0 DUP9 DUP2 SLOAD DUP2 LT PUSH2 0x1A01 JUMPI PUSH2 0x1A01 PUSH2 0x24B2 JUMP JUMPDEST SWAP1 PUSH1 0x0 MSTORE PUSH1 0x20 PUSH1 0x0 KECCAK256 SWAP1 PUSH1 0x8 MUL ADD PUSH1 0x3 ADD SWAP1 DUP1 MLOAD SWAP1 PUSH1 0x20 ADD SWAP1 PUSH2 0x1A25 SWAP3 SWAP2 SWAP1 PUSH2 0x1FBC JUMP JUMPDEST POP PUSH2 0x1A3C PUSH1 0x0 DUP9 DUP2 SLOAD DUP2 LT PUSH2 0x8AD JUMPI PUSH2 0x8AD PUSH2 0x24B2 JUMP JUMPDEST ISZERO PUSH2 0x1AC0 JUMPI PUSH1 0x0 DUP8 DUP2 SLOAD DUP2 LT PUSH2 0x1A54 JUMPI PUSH2 0x1A54 PUSH2 0x24B2 JUMP JUMPDEST PUSH1 0x0 SWAP2 DUP3 MSTORE PUSH1 0x20 DUP3 KECCAK256 PUSH1 0x4 PUSH1 0x8 SWAP1 SWAP3 MUL ADD ADD SLOAD DUP2 SLOAD PUSH1 0x1 PUSH1 0x1 PUSH1 0xA0 SHL SUB SWAP1 SWAP2 AND SWAP2 SWAP1 DUP10 SWAP1 DUP2 LT PUSH2 0x1A86 JUMPI PUSH2 0x1A86 PUSH2 0x24B2 JUMP JUMPDEST SWAP1 PUSH1 0x0 MSTORE PUSH1 0x20 PUSH1 0x0 KECCAK256 SWAP1 PUSH1 0x8 MUL ADD PUSH1 0x7 ADD PUSH1 0x0 PUSH2 0x100 EXP DUP2 SLOAD DUP2 PUSH1 0x1 PUSH1 0x1 PUSH1 0xA0 SHL SUB MUL NOT AND SWAP1 DUP4 PUSH1 0x1 PUSH1 0x1 PUSH1 0xA0 SHL SUB AND MUL OR SWAP1 SSTORE POP PUSH2 0x1B3B JUMP JUMPDEST PUSH1 0x0 DUP8 DUP2 SLOAD DUP2 LT PUSH2 0x1AD3 JUMPI PUSH2 0x1AD3 PUSH2 0x24B2 JUMP JUMPDEST PUSH1 0x0 SWAP2 DUP3 MSTORE PUSH1 0x20 DUP3 KECCAK256 PUSH1 0x5 PUSH1 0x8 SWAP1 SWAP3 MUL ADD ADD SLOAD DUP2 SLOAD PUSH1 0x1 PUSH1 0x1 PUSH1 0xA0 SHL SUB SWAP1 SWAP2 AND SWAP2 SWAP1 DUP10 SWAP1 DUP2 LT PUSH2 0x1B05 JUMPI PUSH2 0x1B05 PUSH2 0x24B2 JUMP JUMPDEST SWAP1 PUSH1 0x0 MSTORE PUSH1 0x20 PUSH1 0x0 KECCAK256 SWAP1 PUSH1 0x8 MUL ADD PUSH1 0x7 ADD PUSH1 0x0 PUSH2 0x100 EXP DUP2 SLOAD DUP2 PUSH1 0x1 PUSH1 0x1 PUSH1 0xA0 SHL SUB MUL NOT AND SWAP1 DUP4 PUSH1 0x1 PUSH1 0x1 PUSH1 0xA0 SHL SUB AND MUL OR SWAP1 SSTORE POP JUMPDEST PUSH1 0x1 SWAP6 POP POP POP POP POP PUSH2 0x1B5F JUMP JUMPDEST POP POP POP POP JUMPDEST DUP1 PUSH2 0x1B57 DUP2 PUSH2 0x27FD JUMP JUMPDEST SWAP2 POP POP PUSH2 0x163F JUMP JUMPDEST POP DUP1 ISZERO PUSH2 0x1BF9 JUMPI PUSH32 0x938A1C44580C51D01225D61FB97878104148B1CDC734EB45BC5B5B50533A492D PUSH1 0x0 DUP4 DUP2 SLOAD DUP2 LT PUSH2 0x1B9A JUMPI PUSH2 0x1B9A PUSH2 0x24B2 JUMP JUMPDEST SWAP1 PUSH1 0x0 MSTORE PUSH1 0x20 PUSH1 0x0 KECCAK256 SWAP1 PUSH1 0x8 MUL ADD PUSH1 0x1 ADD DUP4 PUSH1 0x40 MLOAD PUSH2 0x1BBA SWAP3 SWAP2 SWAP1 PUSH2 0x2926 JUMP JUMPDEST PUSH1 0x40 MLOAD DUP1 SWAP2 SUB SWAP1 LOG1 PUSH1 0x0 DUP1 DUP4 DUP2 SLOAD DUP2 LT PUSH2 0x1BD6 JUMPI PUSH2 0x1BD6 PUSH2 0x24B2 JUMP JUMPDEST PUSH1 0x0 SWAP2 DUP3 MSTORE PUSH1 0x20 SWAP1 SWAP2 KECCAK256 PUSH1 0x8 SWAP1 SWAP2 MUL ADD DUP1 SLOAD PUSH1 0xFF NOT AND SWAP2 ISZERO ISZERO SWAP2 SWAP1 SWAP2 OR SWAP1 SSTORE POP POP JUMP JUMPDEST PUSH2 0x1C02 DUP3 PUSH2 0x1C5E JUMP JUMPDEST ISZERO PUSH2 0x1C55 JUMPI PUSH1 0x40 DUP1 MLOAD DUP2 DUP2 MSTORE PUSH1 0x4 SWAP2 DUP2 ADD SWAP2 SWAP1 SWAP2 MSTORE PUSH4 0x44726177 PUSH1 0xE0 SHL PUSH1 0x60 DUP3 ADD MSTORE PUSH1 0x20 DUP2 ADD DUP4 SWAP1 MSTORE PUSH32 0x938A1C44580C51D01225D61FB97878104148B1CDC734EB45BC5B5B50533A492D SWAP1 PUSH1 0x80 ADD PUSH2 0x1BBA JUMP JUMPDEST PUSH2 0xB2F DUP3 PUSH2 0x1CF2 JUMP JUMPDEST PUSH1 0x0 DUP1 JUMPDEST PUSH1 0x0 DUP4 DUP2 SLOAD DUP2 LT PUSH2 0x1C75 JUMPI PUSH2 0x1C75 PUSH2 0x24B2 JUMP JUMPDEST SWAP1 PUSH1 0x0 MSTORE PUSH1 0x20 PUSH1 0x0 KECCAK256 SWAP1 PUSH1 0x8 MUL ADD PUSH1 0x2 ADD DUP1 SLOAD SWAP1 POP DUP2 LT ISZERO PUSH2 0x1CE9 JUMPI PUSH2 0x1CC9 PUSH1 0x0 DUP5 DUP2 SLOAD DUP2 LT PUSH2 0x1CA7 JUMPI PUSH2 0x1CA7 PUSH2 0x24B2 JUMP JUMPDEST SWAP1 PUSH1 0x0 MSTORE PUSH1 0x20 PUSH1 0x0 KECCAK256 SWAP1 PUSH1 0x8 MUL ADD PUSH1 0x2 ADD DUP3 DUP2 SLOAD DUP2 LT PUSH2 0x7B3 JUMPI PUSH2 0x7B3 PUSH2 0x24B2 JUMP JUMPDEST ISZERO PUSH2 0x1CD7 JUMPI POP PUSH1 0x0 SWAP3 SWAP2 POP POP JUMP JUMPDEST DUP1 PUSH2 0x1CE1 DUP2 PUSH2 0x27FD JUMP JUMPDEST SWAP2 POP POP PUSH2 0x1C62 JUMP JUMPDEST POP PUSH1 0x1 SWAP3 SWAP2 POP POP JUMP JUMPDEST PUSH2 0x1D08 PUSH1 0x0 DUP3 DUP2 SLOAD DUP2 LT PUSH2 0x8AD JUMPI PUSH2 0x8AD PUSH2 0x24B2 JUMP JUMPDEST ISZERO PUSH2 0x1D7B JUMPI PUSH32 0xEEFC3FD775B975165C9D067E02FCD5BF5889D58041AE6DDAF94F2CC853007272 PUSH1 0x0 DUP3 DUP2 SLOAD DUP2 LT PUSH2 0x1D41 JUMPI PUSH2 0x1D41 PUSH2 0x24B2 JUMP JUMPDEST PUSH1 0x0 SWAP2 DUP3 MSTORE PUSH1 0x20 SWAP2 DUP3 SWAP1 KECCAK256 PUSH1 0x8 SWAP1 SWAP2 MUL ADD PUSH1 0x5 ADD SLOAD PUSH1 0x40 DUP1 MLOAD PUSH1 0x1 PUSH1 0x1 PUSH1 0xA0 SHL SUB SWAP1 SWAP3 AND DUP3 MSTORE SWAP2 DUP2 ADD DUP5 SWAP1 MSTORE ADD PUSH1 0x40 MLOAD DUP1 SWAP2 SUB SWAP1 LOG1 PUSH2 0x1DE5 JUMP JUMPDEST PUSH32 0xEEFC3FD775B975165C9D067E02FCD5BF5889D58041AE6DDAF94F2CC853007272 PUSH1 0x0 DUP3 DUP2 SLOAD DUP2 LT PUSH2 0x1DAF JUMPI PUSH2 0x1DAF PUSH2 0x24B2 JUMP JUMPDEST PUSH1 0x0 SWAP2 DUP3 MSTORE PUSH1 0x20 SWAP2 DUP3 SWAP1 KECCAK256 PUSH1 0x8 SWAP1 SWAP2 MUL ADD PUSH1 0x4 ADD SLOAD PUSH1 0x40 DUP1 MLOAD PUSH1 0x1 PUSH1 0x1 PUSH1 0xA0 SHL SUB SWAP1 SWAP3 AND DUP3 MSTORE SWAP2 DUP2 ADD DUP5 SWAP1 MSTORE ADD PUSH1 0x40 MLOAD DUP1 SWAP2 SUB SWAP1 LOG1 JUMPDEST PUSH2 0x1DFB PUSH1 0x0 DUP3 DUP2 SLOAD DUP2 LT PUSH2 0x8AD JUMPI PUSH2 0x8AD PUSH2 0x24B2 JUMP JUMPDEST PUSH2 0x1E1E JUMPI PUSH1 0x40 MLOAD DUP1 PUSH1 0x40 ADD PUSH1 0x40 MSTORE DUP1 PUSH1 0x1 DUP2 MSTORE PUSH1 0x20 ADD PUSH1 0xB PUSH1 0xFB SHL DUP2 MSTORE POP PUSH2 0x1E39 JUMP JUMPDEST PUSH1 0x40 MLOAD DUP1 PUSH1 0x40 ADD PUSH1 0x40 MSTORE DUP1 PUSH1 0x1 DUP2 MSTORE PUSH1 0x20 ADD PUSH1 0x4F PUSH1 0xF8 SHL DUP2 MSTORE POP JUMPDEST PUSH1 0x0 DUP3 DUP2 SLOAD DUP2 LT PUSH2 0x1E4C JUMPI PUSH2 0x1E4C PUSH2 0x24B2 JUMP JUMPDEST SWAP1 PUSH1 0x0 MSTORE PUSH1 0x20 PUSH1 0x0 KECCAK256 SWAP1 PUSH1 0x8 MUL ADD PUSH1 0x1 ADD SWAP1 DUP2 PUSH2 0x1E69 SWAP2 SWAP1 PUSH2 0x2551 JUMP JUMPDEST POP PUSH32 0xA6D1CB5F730B987124C37C3876130FDDBA49456449948EC4257360F5AB2851C0 PUSH1 0x0 DUP3 DUP2 SLOAD DUP2 LT PUSH2 0x1E9E JUMPI PUSH2 0x1E9E PUSH2 0x24B2 JUMP JUMPDEST SWAP1 PUSH1 0x0 MSTORE PUSH1 0x20 PUSH1 0x0 KECCAK256 SWAP1 PUSH1 0x8 MUL ADD PUSH1 0x1 ADD DUP3 PUSH1 0x40 MLOAD PUSH2 0x6FD SWAP3 SWAP2 SWAP1 PUSH2 0x2926 JUMP JUMPDEST DUP3 DUP1 SLOAD DUP3 DUP3 SSTORE SWAP1 PUSH1 0x0 MSTORE PUSH1 0x20 PUSH1 0x0 KECCAK256 SWAP1 DUP2 ADD SWAP3 DUP3 ISZERO PUSH2 0x1F04 JUMPI SWAP2 PUSH1 0x20 MUL DUP3 ADD JUMPDEST DUP3 DUP2 GT ISZERO PUSH2 0x1F04 JUMPI DUP3 MLOAD DUP3 SWAP1 PUSH2 0x1EF4 SWAP1 DUP3 PUSH2 0x2551 JUMP JUMPDEST POP SWAP2 PUSH1 0x20 ADD SWAP2 SWAP1 PUSH1 0x1 ADD SWAP1 PUSH2 0x1EDE JUMP JUMPDEST POP PUSH2 0x1F10 SWAP3 SWAP2 POP PUSH2 0x2003 JUMP JUMPDEST POP SWAP1 JUMP JUMPDEST PUSH1 0x40 MLOAD DUP1 PUSH2 0x100 ADD PUSH1 0x40 MSTORE DUP1 PUSH1 0x0 ISZERO ISZERO DUP2 MSTORE PUSH1 0x20 ADD PUSH1 0x60 DUP2 MSTORE PUSH1 0x20 ADD PUSH1 0x60 DUP2 MSTORE PUSH1 0x20 ADD PUSH1 0x60 DUP2 MSTORE PUSH1 0x20 ADD PUSH1 0x0 PUSH1 0x1 PUSH1 0x1 PUSH1 0xA0 SHL SUB AND DUP2 MSTORE PUSH1 0x20 ADD PUSH1 0x0 PUSH1 0x1 PUSH1 0x1 PUSH1 0xA0 SHL SUB AND DUP2 MSTORE PUSH1 0x20 ADD PUSH1 0x0 DUP2 MSTORE PUSH1 0x20 ADD PUSH1 0x0 PUSH1 0x1 PUSH1 0x1 PUSH1 0xA0 SHL SUB AND DUP2 MSTORE POP SWAP1 JUMP JUMPDEST DUP3 DUP1 SLOAD DUP3 DUP3 SSTORE SWAP1 PUSH1 0x0 MSTORE PUSH1 0x20 PUSH1 0x0 KECCAK256 SWAP1 DUP2 ADD SWAP3 DUP3 ISZERO PUSH2 0x1F04 JUMPI SWAP2 PUSH1 0x20 MUL DUP3 ADD JUMPDEST DUP3 DUP2 GT ISZERO PUSH2 0x1F04 JUMPI DUP3 MLOAD DUP3 SWAP1 PUSH2 0x1FAC SWAP1 DUP3 PUSH2 0x2551 JUMP JUMPDEST POP SWAP2 PUSH1 0x20 ADD SWAP2 SWAP1 PUSH1 0x1 ADD SWAP1 PUSH2 0x1F96 JUMP JUMPDEST DUP3 DUP1 SLOAD DUP3 DUP3 SSTORE SWAP1 PUSH1 0x0 MSTORE PUSH1 0x20 PUSH1 0x0 KECCAK256 SWAP1 DUP2 ADD SWAP3 DUP3 ISZERO PUSH2 0x1FF7 JUMPI SWAP2 PUSH1 0x20 MUL DUP3 ADD JUMPDEST DUP3 DUP2 GT ISZERO PUSH2 0x1FF7 JUMPI DUP3 MLOAD DUP3 SSTORE SWAP2 PUSH1 0x20 ADD SWAP2 SWAP1 PUSH1 0x1 ADD SWAP1 PUSH2 0x1FDC JUMP JUMPDEST POP PUSH2 0x1F10 SWAP3 SWAP2 POP PUSH2 0x2020 JUMP JUMPDEST DUP1 DUP3 GT ISZERO PUSH2 0x1F10 JUMPI PUSH1 0x0 PUSH2 0x2017 DUP3 DUP3 PUSH2 0x2035 JUMP JUMPDEST POP PUSH1 0x1 ADD PUSH2 0x2003 JUMP JUMPDEST JUMPDEST DUP1 DUP3 GT ISZERO PUSH2 0x1F10 JUMPI PUSH1 0x0 DUP2 SSTORE PUSH1 0x1 ADD PUSH2 0x2021 JUMP JUMPDEST POP DUP1 SLOAD PUSH2 0x2041 SWAP1 PUSH2 0x24C8 JUMP JUMPDEST PUSH1 0x0 DUP3 SSTORE DUP1 PUSH1 0x1F LT PUSH2 0x2051 JUMPI POP POP JUMP JUMPDEST PUSH1 0x1F ADD PUSH1 0x20 SWAP1 DIV SWAP1 PUSH1 0x0 MSTORE PUSH1 0x20 PUSH1 0x0 KECCAK256 SWAP1 DUP2 ADD SWAP1 PUSH2 0x312 SWAP2 SWAP1 PUSH2 0x2020 JUMP JUMPDEST PUSH1 0x0 PUSH1 0x20 DUP3 DUP5 SUB SLT ISZERO PUSH2 0x2081 JUMPI PUSH1 0x0 DUP1 REVERT JUMPDEST POP CALLDATALOAD SWAP2 SWAP1 POP JUMP JUMPDEST PUSH1 0x20 DUP1 DUP3 MSTORE DUP3 MLOAD DUP3 DUP3 ADD DUP2 SWAP1 MSTORE PUSH1 0x0 SWAP2 SWAP1 DUP5 DUP3 ADD SWAP1 PUSH1 0x40 DUP6 ADD SWAP1 DUP5 JUMPDEST DUP2 DUP2 LT ISZERO PUSH2 0x20C0 JUMPI DUP4 MLOAD DUP4 MSTORE SWAP3 DUP5 ADD SWAP3 SWAP2 DUP5 ADD SWAP2 PUSH1 0x1 ADD PUSH2 0x20A4 JUMP JUMPDEST POP SWAP1 SWAP7 SWAP6 POP POP POP POP POP POP JUMP JUMPDEST PUSH1 0x0 JUMPDEST DUP4 DUP2 LT ISZERO PUSH2 0x20E7 JUMPI DUP2 DUP2 ADD MLOAD DUP4 DUP3 ADD MSTORE PUSH1 0x20 ADD PUSH2 0x20CF JUMP JUMPDEST POP POP PUSH1 0x0 SWAP2 ADD MSTORE JUMP JUMPDEST PUSH1 0x0 DUP2 MLOAD DUP1 DUP5 MSTORE PUSH2 0x2108 DUP2 PUSH1 0x20 DUP7 ADD PUSH1 0x20 DUP7 ADD PUSH2 0x20CC JUMP JUMPDEST PUSH1 0x1F ADD PUSH1 0x1F NOT AND SWAP3 SWAP1 SWAP3 ADD PUSH1 0x20 ADD SWAP3 SWAP2 POP POP JUMP JUMPDEST PUSH1 0x0 DUP3 DUP3 MLOAD DUP1 DUP6 MSTORE PUSH1 0x20 DUP1 DUP7 ADD SWAP6 POP DUP1 DUP3 PUSH1 0x5 SHL DUP5 ADD ADD DUP2 DUP7 ADD PUSH1 0x0 JUMPDEST DUP5 DUP2 LT ISZERO PUSH2 0x2167 JUMPI PUSH1 0x1F NOT DUP7 DUP5 SUB ADD DUP10 MSTORE PUSH2 0x2155 DUP4 DUP4 MLOAD PUSH2 0x20F0 JUMP JUMPDEST SWAP9 DUP5 ADD SWAP9 SWAP3 POP SWAP1 DUP4 ADD SWAP1 PUSH1 0x1 ADD PUSH2 0x2139 JUMP JUMPDEST POP SWAP1 SWAP8 SWAP7 POP POP POP POP POP POP POP JUMP JUMPDEST PUSH1 0x0 DUP2 MLOAD DUP1 DUP5 MSTORE PUSH1 0x20 DUP1 DUP6 ADD SWAP5 POP DUP1 DUP5 ADD PUSH1 0x0 JUMPDEST DUP4 DUP2 LT ISZERO PUSH2 0x21A4 JUMPI DUP2 MLOAD DUP8 MSTORE SWAP6 DUP3 ADD SWAP6 SWAP1 DUP3 ADD SWAP1 PUSH1 0x1 ADD PUSH2 0x2188 JUMP JUMPDEST POP SWAP5 SWAP6 SWAP5 POP POP POP POP POP JUMP JUMPDEST PUSH1 0x0 PUSH2 0x100 DUP3 MLOAD ISZERO ISZERO DUP5 MSTORE PUSH1 0x20 DUP4 ADD MLOAD DUP2 PUSH1 0x20 DUP7 ADD MSTORE PUSH2 0x21D1 DUP3 DUP7 ADD DUP3 PUSH2 0x20F0 JUMP JUMPDEST SWAP2 POP POP PUSH1 0x40 DUP4 ADD MLOAD DUP5 DUP3 SUB PUSH1 0x40 DUP7 ADD MSTORE PUSH2 0x21EB DUP3 DUP3 PUSH2 0x211C JUMP JUMPDEST SWAP2 POP POP PUSH1 0x60 DUP4 ADD MLOAD DUP5 DUP3 SUB PUSH1 0x60 DUP7 ADD MSTORE PUSH2 0x2205 DUP3 DUP3 PUSH2 0x2174 JUMP JUMPDEST SWAP2 POP POP PUSH1 0x80 DUP4 ADD MLOAD PUSH2 0x2222 PUSH1 0x80 DUP7 ADD DUP3 PUSH1 0x1 PUSH1 0x1 PUSH1 0xA0 SHL SUB AND SWAP1 MSTORE JUMP JUMPDEST POP PUSH1 0xA0 DUP4 ADD MLOAD PUSH2 0x223D PUSH1 0xA0 DUP7 ADD DUP3 PUSH1 0x1 PUSH1 0x1 PUSH1 0xA0 SHL SUB AND SWAP1 MSTORE JUMP JUMPDEST POP PUSH1 0xC0 DUP4 ADD MLOAD PUSH1 0xC0 DUP6 ADD MSTORE PUSH1 0xE0 DUP4 ADD MLOAD PUSH2 0x2262 PUSH1 0xE0 DUP7 ADD DUP3 PUSH1 0x1 PUSH1 0x1 PUSH1 0xA0 SHL SUB AND SWAP1 MSTORE JUMP JUMPDEST POP SWAP4 SWAP3 POP POP POP JUMP JUMPDEST PUSH1 0x0 PUSH1 0x20 DUP1 DUP4 ADD DUP2 DUP5 MSTORE DUP1 DUP6 MLOAD DUP1 DUP4 MSTORE PUSH1 0x40 DUP7 ADD SWAP2 POP PUSH1 0x40 DUP2 PUSH1 0x5 SHL DUP8 ADD ADD SWAP3 POP DUP4 DUP8 ADD PUSH1 0x0 JUMPDEST DUP3 DUP2 LT ISZERO PUSH2 0x22BF JUMPI PUSH1 0x3F NOT DUP9 DUP7 SUB ADD DUP5 MSTORE PUSH2 0x22AD DUP6 DUP4 MLOAD PUSH2 0x21AF JUMP JUMPDEST SWAP5 POP SWAP3 DUP6 ADD SWAP3 SWAP1 DUP6 ADD SWAP1 PUSH1 0x1 ADD PUSH2 0x2291 JUMP JUMPDEST POP SWAP3 SWAP8 SWAP7 POP POP POP POP POP POP POP JUMP JUMPDEST PUSH1 0x0 DUP1 PUSH1 0x40 DUP4 DUP6 SUB SLT ISZERO PUSH2 0x22DF JUMPI PUSH1 0x0 DUP1 REVERT JUMPDEST POP POP DUP1 CALLDATALOAD SWAP3 PUSH1 0x20 SWAP1 SWAP2 ADD CALLDATALOAD SWAP2 POP JUMP JUMPDEST DUP7 ISZERO ISZERO DUP2 MSTORE PUSH1 0xC0 PUSH1 0x20 DUP3 ADD MSTORE PUSH1 0x0 PUSH2 0x2309 PUSH1 0xC0 DUP4 ADD DUP9 PUSH2 0x20F0 JUMP JUMPDEST PUSH1 0x1 PUSH1 0x1 PUSH1 0xA0 SHL SUB SWAP7 DUP8 AND PUSH1 0x40 DUP5 ADD MSTORE SWAP5 DUP7 AND PUSH1 0x60 DUP4 ADD MSTORE POP PUSH1 0x80 DUP2 ADD SWAP3 SWAP1 SWAP3 MSTORE SWAP1 SWAP3 AND PUSH1 0xA0 SWAP1 SWAP3 ADD SWAP2 SWAP1 SWAP2 MSTORE SWAP3 SWAP2 POP POP JUMP JUMPDEST PUSH1 0x20 DUP2 MSTORE PUSH1 0x0 PUSH2 0x234F PUSH1 0x20 DUP4 ADD DUP5 PUSH2 0x21AF JUMP JUMPDEST SWAP4 SWAP3 POP POP POP JUMP JUMPDEST PUSH4 0x4E487B71 PUSH1 0xE0 SHL PUSH1 0x0 MSTORE PUSH1 0x41 PUSH1 0x4 MSTORE PUSH1 0x24 PUSH1 0x0 REVERT JUMPDEST PUSH1 0x0 DUP3 PUSH1 0x1F DUP4 ADD SLT PUSH2 0x237D JUMPI PUSH1 0x0 DUP1 REVERT JUMPDEST DUP2 CALLDATALOAD PUSH8 0xFFFFFFFFFFFFFFFF DUP1 DUP3 GT ISZERO PUSH2 0x2398 JUMPI PUSH2 0x2398 PUSH2 0x2356 JUMP JUMPDEST PUSH1 0x40 MLOAD PUSH1 0x1F DUP4 ADD PUSH1 0x1F NOT SWAP1 DUP2 AND PUSH1 0x3F ADD AND DUP2 ADD SWAP1 DUP3 DUP3 GT DUP2 DUP4 LT OR ISZERO PUSH2 0x23C0 JUMPI PUSH2 0x23C0 PUSH2 0x2356 JUMP JUMPDEST DUP2 PUSH1 0x40 MSTORE DUP4 DUP2 MSTORE DUP7 PUSH1 0x20 DUP6 DUP9 ADD ADD GT ISZERO PUSH2 0x23D9 JUMPI PUSH1 0x0 DUP1 REVERT JUMPDEST DUP4 PUSH1 0x20 DUP8 ADD PUSH1 0x20 DUP4 ADD CALLDATACOPY PUSH1 0x0 PUSH1 0x20 DUP6 DUP4 ADD ADD MSTORE DUP1 SWAP5 POP POP POP POP POP SWAP3 SWAP2 POP POP JUMP JUMPDEST PUSH1 0x0 DUP1 PUSH1 0x40 DUP4 DUP6 SUB SLT ISZERO PUSH2 0x240C JUMPI PUSH1 0x0 DUP1 REVERT JUMPDEST DUP3 CALLDATALOAD PUSH8 0xFFFFFFFFFFFFFFFF DUP1 DUP3 GT ISZERO PUSH2 0x2424 JUMPI PUSH1 0x0 DUP1 REVERT JUMPDEST PUSH2 0x2430 DUP7 DUP4 DUP8 ADD PUSH2 0x236C JUMP JUMPDEST SWAP4 POP PUSH1 0x20 DUP6 ADD CALLDATALOAD SWAP2 POP DUP1 DUP3 GT ISZERO PUSH2 0x2446 JUMPI PUSH1 0x0 DUP1 REVERT JUMPDEST POP PUSH2 0x2453 DUP6 DUP3 DUP7 ADD PUSH2 0x236C JUMP JUMPDEST SWAP2 POP POP SWAP3 POP SWAP3 SWAP1 POP JUMP JUMPDEST PUSH1 0x0 PUSH1 0x20 DUP1 DUP4 ADD DUP2 DUP5 MSTORE DUP1 DUP6 MLOAD DUP1 DUP4 MSTORE PUSH1 0x40 DUP7 ADD SWAP2 POP PUSH1 0x40 DUP2 PUSH1 0x5 SHL DUP8 ADD ADD SWAP3 POP DUP4 DUP8 ADD PUSH1 0x0 JUMPDEST DUP3 DUP2 LT ISZERO PUSH2 0x22BF JUMPI PUSH1 0x3F NOT DUP9 DUP7 SUB ADD DUP5 MSTORE PUSH2 0x24A0 DUP6 DUP4 MLOAD PUSH2 0x20F0 JUMP JUMPDEST SWAP5 POP SWAP3 DUP6 ADD SWAP3 SWAP1 DUP6 ADD SWAP1 PUSH1 0x1 ADD PUSH2 0x2484 JUMP JUMPDEST PUSH4 0x4E487B71 PUSH1 0xE0 SHL PUSH1 0x0 MSTORE PUSH1 0x32 PUSH1 0x4 MSTORE PUSH1 0x24 PUSH1 0x0 REVERT JUMPDEST PUSH1 0x1 DUP2 DUP2 SHR SWAP1 DUP3 AND DUP1 PUSH2 0x24DC JUMPI PUSH1 0x7F DUP3 AND SWAP2 POP JUMPDEST PUSH1 0x20 DUP3 LT DUP2 SUB PUSH2 0x24FC JUMPI PUSH4 0x4E487B71 PUSH1 0xE0 SHL PUSH1 0x0 MSTORE PUSH1 0x22 PUSH1 0x4 MSTORE PUSH1 0x24 PUSH1 0x0 REVERT JUMPDEST POP SWAP2 SWAP1 POP JUMP JUMPDEST PUSH1 0x1F DUP3 GT ISZERO PUSH2 0x254C JUMPI PUSH1 0x0 DUP2 DUP2 MSTORE PUSH1 0x20 DUP2 KECCAK256 PUSH1 0x1F DUP6 ADD PUSH1 0x5 SHR DUP2 ADD PUSH1 0x20 DUP7 LT ISZERO PUSH2 0x2529 JUMPI POP DUP1 JUMPDEST PUSH1 0x1F DUP6 ADD PUSH1 0x5 SHR DUP3 ADD SWAP2 POP JUMPDEST DUP2 DUP2 LT ISZERO PUSH2 0x2548 JUMPI DUP3 DUP2 SSTORE PUSH1 0x1 ADD PUSH2 0x2535 JUMP JUMPDEST POP POP POP JUMPDEST POP POP POP JUMP JUMPDEST DUP2 MLOAD PUSH8 0xFFFFFFFFFFFFFFFF DUP2 GT ISZERO PUSH2 0x256B JUMPI PUSH2 0x256B PUSH2 0x2356 JUMP JUMPDEST PUSH2 0x257F DUP2 PUSH2 0x2579 DUP5 SLOAD PUSH2 0x24C8 JUMP JUMPDEST DUP5 PUSH2 0x2502 JUMP JUMPDEST PUSH1 0x20 DUP1 PUSH1 0x1F DUP4 GT PUSH1 0x1 DUP2 EQ PUSH2 0x25B4 JUMPI PUSH1 0x0 DUP5 ISZERO PUSH2 0x259C JUMPI POP DUP6 DUP4 ADD MLOAD JUMPDEST PUSH1 0x0 NOT PUSH1 0x3 DUP7 SWAP1 SHL SHR NOT AND PUSH1 0x1 DUP6 SWAP1 SHL OR DUP6 SSTORE PUSH2 0x2548 JUMP JUMPDEST PUSH1 0x0 DUP6 DUP2 MSTORE PUSH1 0x20 DUP2 KECCAK256 PUSH1 0x1F NOT DUP7 AND SWAP2 JUMPDEST DUP3 DUP2 LT ISZERO PUSH2 0x25E3 JUMPI DUP9 DUP7 ADD MLOAD DUP3 SSTORE SWAP5 DUP5 ADD SWAP5 PUSH1 0x1 SWAP1 SWAP2 ADD SWAP1 DUP5 ADD PUSH2 0x25C4 JUMP JUMPDEST POP DUP6 DUP3 LT ISZERO PUSH2 0x2601 JUMPI DUP8 DUP6 ADD MLOAD PUSH1 0x0 NOT PUSH1 0x3 DUP9 SWAP1 SHL PUSH1 0xF8 AND SHR NOT AND DUP2 SSTORE JUMPDEST POP POP POP POP POP PUSH1 0x1 SWAP1 DUP2 SHL ADD SWAP1 SSTORE POP JUMP JUMPDEST DUP2 DUP2 SUB PUSH2 0x261C JUMPI POP POP JUMP JUMPDEST PUSH2 0x2626 DUP3 SLOAD PUSH2 0x24C8 JUMP JUMPDEST PUSH8 0xFFFFFFFFFFFFFFFF DUP2 GT ISZERO PUSH2 0x263E JUMPI PUSH2 0x263E PUSH2 0x2356 JUMP JUMPDEST PUSH2 0x264C DUP2 PUSH2 0x2579 DUP5 SLOAD PUSH2 0x24C8 JUMP JUMPDEST PUSH1 0x0 PUSH1 0x1F DUP3 GT PUSH1 0x1 DUP2 EQ PUSH2 0x2680 JUMPI PUSH1 0x0 DUP4 ISZERO PUSH2 0x2668 JUMPI POP DUP5 DUP3 ADD SLOAD JUMPDEST PUSH1 0x0 NOT PUSH1 0x3 DUP6 SWAP1 SHL SHR NOT AND PUSH1 0x1 DUP5 SWAP1 SHL OR DUP5 SSTORE PUSH2 0x26E5 JUMP JUMPDEST PUSH1 0x0 DUP6 DUP2 MSTORE PUSH1 0x20 SWAP1 KECCAK256 PUSH1 0x1F NOT DUP5 AND SWAP1 PUSH1 0x0 DUP7 DUP2 MSTORE PUSH1 0x20 SWAP1 KECCAK256 DUP5 JUMPDEST DUP4 DUP2 LT ISZERO PUSH2 0x26BA JUMPI DUP3 DUP7 ADD SLOAD DUP3 SSTORE PUSH1 0x1 SWAP6 DUP7 ADD SWAP6 SWAP1 SWAP2 ADD SWAP1 PUSH1 0x20 ADD PUSH2 0x269A JUMP JUMPDEST POP DUP6 DUP4 LT ISZERO PUSH2 0x26D8 JUMPI DUP2 DUP6 ADD SLOAD PUSH1 0x0 NOT PUSH1 0x3 DUP9 SWAP1 SHL PUSH1 0xF8 AND SHR NOT AND DUP2 SSTORE JUMPDEST POP POP POP PUSH1 0x1 DUP4 PUSH1 0x1 SHL ADD DUP5 SSTORE JUMPDEST POP POP POP POP POP JUMP JUMPDEST PUSH1 0x0 DUP2 SLOAD PUSH2 0x26F9 DUP2 PUSH2 0x24C8 JUMP JUMPDEST DUP1 DUP6 MSTORE PUSH1 0x20 PUSH1 0x1 DUP4 DUP2 AND DUP1 ISZERO PUSH2 0x2716 JUMPI PUSH1 0x1 DUP2 EQ PUSH2 0x2730 JUMPI PUSH2 0x275E JUMP JUMPDEST PUSH1 0xFF NOT DUP6 AND DUP9 DUP5 ADD MSTORE DUP4 ISZERO ISZERO PUSH1 0x5 SHL DUP9 ADD DUP4 ADD SWAP6 POP PUSH2 0x275E JUMP JUMPDEST DUP7 PUSH1 0x0 MSTORE DUP3 PUSH1 0x0 KECCAK256 PUSH1 0x0 JUMPDEST DUP6 DUP2 LT ISZERO PUSH2 0x2756 JUMPI DUP2 SLOAD DUP11 DUP3 ADD DUP7 ADD MSTORE SWAP1 DUP4 ADD SWAP1 DUP5 ADD PUSH2 0x273B JUMP JUMPDEST DUP10 ADD DUP5 ADD SWAP7 POP POP JUMPDEST POP POP POP POP POP SWAP3 SWAP2 POP POP JUMP JUMPDEST PUSH1 0x0 DUP2 SLOAD DUP1 DUP5 MSTORE PUSH1 0x20 DUP1 DUP6 ADD SWAP5 POP DUP5 DUP3 PUSH1 0x5 SHL DUP7 ADD DUP6 PUSH1 0x0 MSTORE DUP3 PUSH1 0x0 KECCAK256 PUSH1 0x0 JUMPDEST DUP6 DUP2 LT ISZERO PUSH2 0x2167 JUMPI DUP4 DUP4 SUB DUP10 MSTORE PUSH2 0x27A0 DUP4 DUP4 PUSH2 0x26EC JUMP JUMPDEST SWAP9 DUP6 ADD SWAP9 SWAP3 POP PUSH1 0x1 SWAP2 DUP3 ADD SWAP2 ADD PUSH2 0x2789 JUMP JUMPDEST PUSH1 0x40 DUP2 MSTORE PUSH1 0x0 PUSH2 0x27C5 PUSH1 0x40 DUP4 ADD DUP6 PUSH2 0x2769 JUMP JUMPDEST SWAP1 POP DUP3 PUSH1 0x20 DUP4 ADD MSTORE SWAP4 SWAP3 POP POP POP JUMP JUMPDEST PUSH4 0x4E487B71 PUSH1 0xE0 SHL PUSH1 0x0 MSTORE PUSH1 0x11 PUSH1 0x4 MSTORE PUSH1 0x24 PUSH1 0x0 REVERT JUMPDEST DUP2 DUP2 SUB DUP2 DUP2 GT ISZERO PUSH2 0x11A1 JUMPI PUSH2 0x11A1 PUSH2 0x27D4 JUMP JUMPDEST PUSH1 0x0 PUSH1 0x1 DUP3 ADD PUSH2 0x280F JUMPI PUSH2 0x280F PUSH2 0x27D4 JUMP JUMPDEST POP PUSH1 0x1 ADD SWAP1 JUMP JUMPDEST PUSH1 0x0 DUP3 MLOAD PUSH2 0x2828 DUP2 DUP5 PUSH1 0x20 DUP8 ADD PUSH2 0x20CC JUMP JUMPDEST SWAP2 SWAP1 SWAP2 ADD SWAP3 SWAP2 POP POP JUMP JUMPDEST PUSH1 0x0 DUP2 SLOAD DUP1 DUP5 MSTORE PUSH1 0x20 DUP1 DUP6 ADD SWAP5 POP DUP4 PUSH1 0x0 MSTORE DUP1 PUSH1 0x0 KECCAK256 PUSH1 0x0 JUMPDEST DUP4 DUP2 LT ISZERO PUSH2 0x21A4 JUMPI DUP2 SLOAD DUP8 MSTORE SWAP6 DUP3 ADD SWAP6 PUSH1 0x1 SWAP2 DUP3 ADD SWAP2 ADD PUSH2 0x284B JUMP JUMPDEST PUSH1 0x40 DUP2 MSTORE PUSH2 0x2883 PUSH1 0x40 DUP3 ADD PUSH2 0x287D DUP6 SLOAD PUSH1 0xFF AND SWAP1 JUMP JUMPDEST ISZERO ISZERO SWAP1 MSTORE JUMP JUMPDEST PUSH1 0x0 PUSH2 0x100 DUP1 PUSH1 0x60 DUP5 ADD MSTORE PUSH2 0x289F PUSH2 0x140 DUP5 ADD PUSH1 0x1 DUP8 ADD PUSH2 0x26EC JUMP JUMPDEST PUSH1 0x3F NOT DUP1 DUP6 DUP4 SUB ADD PUSH1 0x80 DUP7 ADD MSTORE PUSH2 0x28B9 DUP3 PUSH1 0x2 DUP10 ADD PUSH2 0x2769 JUMP JUMPDEST SWAP2 POP DUP1 DUP6 DUP4 SUB ADD PUSH1 0xA0 DUP7 ADD MSTORE POP PUSH2 0x28D3 DUP2 PUSH1 0x3 DUP9 ADD PUSH2 0x2832 JUMP JUMPDEST SWAP1 POP PUSH2 0x28E9 PUSH1 0x4 DUP8 ADD SLOAD PUSH1 0x1 PUSH1 0x1 PUSH1 0xA0 SHL SUB AND SWAP1 JUMP JUMPDEST PUSH1 0x1 PUSH1 0x1 PUSH1 0xA0 SHL SUB SWAP1 DUP2 AND PUSH1 0xC0 DUP7 ADD MSTORE PUSH1 0x5 DUP8 ADD SLOAD DUP2 AND PUSH1 0xE0 DUP7 ADD MSTORE PUSH1 0x6 DUP8 ADD SLOAD SWAP3 DUP6 ADD SWAP3 SWAP1 SWAP3 MSTORE PUSH1 0x7 SWAP1 SWAP6 ADD SLOAD AND PUSH2 0x120 DUP4 ADD MSTORE POP PUSH1 0x20 ADD MSTORE SWAP1 JUMP JUMPDEST PUSH1 0x40 DUP2 MSTORE PUSH1 0x0 PUSH2 0x27C5 PUSH1 0x40 DUP4 ADD DUP6 PUSH2 0x26EC JUMP INVALID LOG2 PUSH5 0x6970667358 0x22 SLT KECCAK256 0xAC SWAP7 MLOAD PUSH14 0x3FE1A9471604ED269076178F00D1 SHL 0x4D 0x5E 0xAD 0xB5 SWAP16 PUSH8 0x7C0BEA57E95DE764 PUSH20 0x6F6C634300081300330000000000000000000000 "
				},
				"gasEstimates": {
					"creation": {
						"codeDepositCost": "2121400",
						"executionCost": "infinite",
						"totalCost": "infinite"
					},
					"external": {
						"compareStrings(string,string)": "infinite",
						"createGameRoom()": "infinite",
						"gameInformation(uint256)": "infinite",
						"getAllGameInformation()": "infinite",
						"getFinalWinOption(uint256)": "infinite",
						"getGameInformation(uint256)": "infinite",
						"getoption(uint256)": "infinite",
						"joinGame(uint256)": "infinite",
						"restartGame(uint256)": "infinite",
						"userInput(uint256,uint256)": "infinite",
						"validateRestartPlayer(uint256)": "9105"
					},
					"internal": {
						"changePlayer(uint256)": "infinite",
						"checkAddress(uint256)": "8736",
						"checkOptions(uint256)": "infinite",
						"checkWinner(uint256)": "infinite"
					}
				},
				"methodIdentifiers": {
					"compareStrings(string,string)": "bed34bba",
					"createGameRoom()": "97ca20bf",
					"gameInformation(uint256)": "87052fab",
					"getAllGameInformation()": "491f0136",
					"getFinalWinOption(uint256)": "17b44960",
					"getGameInformation(uint256)": "b2182be4",
					"getoption(uint256)": "dc572c6e",
					"joinGame(uint256)": "efaa55a0",
					"restartGame(uint256)": "4a968391",
					"userInput(uint256,uint256)": "52bc3410",
					"validateRestartPlayer(uint256)": "34fd3518"
				}
			},
			"storageLayout": {
				"storage": [
					{
						"astId": 24,
						"contract": "Practical5-Tick-Tack-Toe-More-Jason.sol:TickTackToe",
						"label": "gameInformation",
						"offset": 0,
						"slot": "0",
						"type": "t_array(t_struct(GameInfo)20_storage)dyn_storage"
					},
					{
						"astId": 61,
						"contract": "Practical5-Tick-Tack-Toe-More-Jason.sol:TickTackToe",
						"label": "winConditionSet",
						"offset": 0,
						"slot": "1",
						"type": "t_array(t_array(t_uint256)dyn_storage)dyn_storage"
					}
				],
				"types": {
					"t_address": {
						"encoding": "inplace",
						"label": "address",
						"numberOfBytes": "20"
					},
					"t_array(t_array(t_uint256)dyn_storage)dyn_storage": {
						"base": "t_array(t_uint256)dyn_storage",
						"encoding": "dynamic_array",
						"label": "uint256[][]",
						"numberOfBytes": "32"
					},
					"t_array(t_string_storage)dyn_storage": {
						"base": "t_string_storage",
						"encoding": "dynamic_array",
						"label": "string[]",
						"numberOfBytes": "32"
					},
					"t_array(t_struct(GameInfo)20_storage)dyn_storage": {
						"base": "t_struct(GameInfo)20_storage",
						"encoding": "dynamic_array",
						"label": "struct TickTackToe.GameInfo[]",
						"numberOfBytes": "32"
					},
					"t_array(t_uint256)dyn_storage": {
						"base": "t_uint256",
						"encoding": "dynamic_array",
						"label": "uint256[]",
						"numberOfBytes": "32"
					},
					"t_bool": {
						"encoding": "inplace",
						"label": "bool",
						"numberOfBytes": "1"
					},
					"t_string_storage": {
						"encoding": "bytes",
						"label": "string",
						"numberOfBytes": "32"
					},
					"t_struct(GameInfo)20_storage": {
						"encoding": "inplace",
						"label": "struct TickTackToe.GameInfo",
						"members": [
							{
								"astId": 3,
								"contract": "Practical5-Tick-Tack-Toe-More-Jason.sol:TickTackToe",
								"label": "_activate",
								"offset": 0,
								"slot": "0",
								"type": "t_bool"
							},
							{
								"astId": 5,
								"contract": "Practical5-Tick-Tack-Toe-More-Jason.sol:TickTackToe",
								"label": "_currentPlayer",
								"offset": 0,
								"slot": "1",
								"type": "t_string_storage"
							},
							{
								"astId": 8,
								"contract": "Practical5-Tick-Tack-Toe-More-Jason.sol:TickTackToe",
								"label": "_options",
								"offset": 0,
								"slot": "2",
								"type": "t_array(t_string_storage)dyn_storage"
							},
							{
								"astId": 11,
								"contract": "Practical5-Tick-Tack-Toe-More-Jason.sol:TickTackToe",
								"label": "_finalWinOption",
								"offset": 0,
								"slot": "3",
								"type": "t_array(t_uint256)dyn_storage"
							},
							{
								"astId": 13,
								"contract": "Practical5-Tick-Tack-Toe-More-Jason.sol:TickTackToe",
								"label": "_player1address",
								"offset": 0,
								"slot": "4",
								"type": "t_address"
							},
							{
								"astId": 15,
								"contract": "Practical5-Tick-Tack-Toe-More-Jason.sol:TickTackToe",
								"label": "_player2address",
								"offset": 0,
								"slot": "5",
								"type": "t_address"
							},
							{
								"astId": 17,
								"contract": "Practical5-Tick-Tack-Toe-More-Jason.sol:TickTackToe",
								"label": "_playerCount",
								"offset": 0,
								"slot": "6",
								"type": "t_uint256"
							},
							{
								"astId": 19,
								"contract": "Practical5-Tick-Tack-Toe-More-Jason.sol:TickTackToe",
								"label": "_winer",
								"offset": 0,
								"slot": "7",
								"type": "t_address"
							}
						],
						"numberOfBytes": "256"
					},
					"t_uint256": {
						"encoding": "inplace",
						"label": "uint256",
						"numberOfBytes": "32"
					}
				}
			},
			"userdoc": {
				"kind": "user",
				"methods": {},
				"version": 1
			}
		}
	}
}