{
	"Practical2-RockPaperScissors-Jason.sol": {
		"RockPaperScissors": {
			"abi": [
				{
					"anonymous": false,
					"inputs": [],
					"name": "numberofPoolUpdate",
					"type": "event"
				},
				{
					"anonymous": false,
					"inputs": [
						{
							"indexed": false,
							"internalType": "address[]",
							"name": "pool",
							"type": "address[]"
						}
					],
					"name": "sendWaitingPool",
					"type": "event"
				},
				{
					"anonymous": false,
					"inputs": [
						{
							"indexed": false,
							"internalType": "uint256",
							"name": "",
							"type": "uint256"
						}
					],
					"name": "showArraylenght",
					"type": "event"
				},
				{
					"anonymous": false,
					"inputs": [
						{
							"indexed": false,
							"internalType": "uint256",
							"name": "currentNumber",
							"type": "uint256"
						}
					],
					"name": "showCurrentNumber",
					"type": "event"
				},
				{
					"anonymous": false,
					"inputs": [
						{
							"indexed": false,
							"internalType": "string",
							"name": "",
							"type": "string"
						}
					],
					"name": "showError",
					"type": "event"
				},
				{
					"anonymous": false,
					"inputs": [
						{
							"indexed": false,
							"internalType": "string",
							"name": "",
							"type": "string"
						}
					],
					"name": "showGameStatus",
					"type": "event"
				},
				{
					"anonymous": false,
					"inputs": [
						{
							"components": [
								{
									"components": [
										{
											"internalType": "address",
											"name": "userAddress",
											"type": "address"
										},
										{
											"internalType": "uint256",
											"name": "userOption",
											"type": "uint256"
										}
									],
									"internalType": "struct RockPaperScissors.UserInfo",
									"name": "user1",
									"type": "tuple"
								},
								{
									"components": [
										{
											"internalType": "address",
											"name": "userAddress",
											"type": "address"
										},
										{
											"internalType": "uint256",
											"name": "userOption",
											"type": "uint256"
										}
									],
									"internalType": "struct RockPaperScissors.UserInfo",
									"name": "user2",
									"type": "tuple"
								},
								{
									"internalType": "string",
									"name": "finalResult",
									"type": "string"
								}
							],
							"indexed": false,
							"internalType": "struct RockPaperScissors.GameInfo[]",
							"name": "gameinfo",
							"type": "tuple[]"
						}
					],
					"name": "showLatestResult",
					"type": "event"
				},
				{
					"anonymous": false,
					"inputs": [
						{
							"indexed": false,
							"internalType": "string",
							"name": "logResult",
							"type": "string"
						}
					],
					"name": "showResult",
					"type": "event"
				},
				{
					"anonymous": false,
					"inputs": [
						{
							"indexed": true,
							"internalType": "address",
							"name": "logUserAddress",
							"type": "address"
						}
					],
					"name": "showUserAddress",
					"type": "event"
				},
				{
					"inputs": [
						{
							"internalType": "uint256",
							"name": "_Number",
							"type": "uint256"
						}
					],
					"name": "changeNumberofPool",
					"outputs": [],
					"stateMutability": "nonpayable",
					"type": "function"
				},
				{
					"inputs": [],
					"name": "getGameHistory",
					"outputs": [
						{
							"components": [
								{
									"components": [
										{
											"internalType": "address",
											"name": "userAddress",
											"type": "address"
										},
										{
											"internalType": "uint256",
											"name": "userOption",
											"type": "uint256"
										}
									],
									"internalType": "struct RockPaperScissors.UserInfo",
									"name": "user1",
									"type": "tuple"
								},
								{
									"components": [
										{
											"internalType": "address",
											"name": "userAddress",
											"type": "address"
										},
										{
											"internalType": "uint256",
											"name": "userOption",
											"type": "uint256"
										}
									],
									"internalType": "struct RockPaperScissors.UserInfo",
									"name": "user2",
									"type": "tuple"
								},
								{
									"internalType": "string",
									"name": "finalResult",
									"type": "string"
								}
							],
							"internalType": "struct RockPaperScissors.GameInfo[]",
							"name": "",
							"type": "tuple[]"
						}
					],
					"stateMutability": "view",
					"type": "function"
				},
				{
					"inputs": [],
					"name": "getNumberofPool",
					"outputs": [
						{
							"internalType": "uint256",
							"name": "",
							"type": "uint256"
						}
					],
					"stateMutability": "view",
					"type": "function"
				},
				{
					"inputs": [
						{
							"internalType": "uint256",
							"name": "index",
							"type": "uint256"
						}
					],
					"name": "getSpecificGameHistory",
					"outputs": [
						{
							"components": [
								{
									"components": [
										{
											"internalType": "address",
											"name": "userAddress",
											"type": "address"
										},
										{
											"internalType": "uint256",
											"name": "userOption",
											"type": "uint256"
										}
									],
									"internalType": "struct RockPaperScissors.UserInfo",
									"name": "user1",
									"type": "tuple"
								},
								{
									"components": [
										{
											"internalType": "address",
											"name": "userAddress",
											"type": "address"
										},
										{
											"internalType": "uint256",
											"name": "userOption",
											"type": "uint256"
										}
									],
									"internalType": "struct RockPaperScissors.UserInfo",
									"name": "user2",
									"type": "tuple"
								},
								{
									"internalType": "string",
									"name": "finalResult",
									"type": "string"
								}
							],
							"internalType": "struct RockPaperScissors.GameInfo",
							"name": "",
							"type": "tuple"
						}
					],
					"stateMutability": "view",
					"type": "function"
				},
				{
					"inputs": [
						{
							"internalType": "uint256",
							"name": "option",
							"type": "uint256"
						}
					],
					"name": "getUserOption",
					"outputs": [],
					"stateMutability": "nonpayable",
					"type": "function"
				},
				{
					"inputs": [],
					"name": "latestGameLength",
					"outputs": [
						{
							"internalType": "uint256",
							"name": "",
							"type": "uint256"
						}
					],
					"stateMutability": "view",
					"type": "function"
				},
				{
					"inputs": [
						{
							"internalType": "uint256",
							"name": "",
							"type": "uint256"
						}
					],
					"name": "latestGameResult",
					"outputs": [
						{
							"components": [
								{
									"internalType": "address",
									"name": "userAddress",
									"type": "address"
								},
								{
									"internalType": "uint256",
									"name": "userOption",
									"type": "uint256"
								}
							],
							"internalType": "struct RockPaperScissors.UserInfo",
							"name": "user1",
							"type": "tuple"
						},
						{
							"components": [
								{
									"internalType": "address",
									"name": "userAddress",
									"type": "address"
								},
								{
									"internalType": "uint256",
									"name": "userOption",
									"type": "uint256"
								}
							],
							"internalType": "struct RockPaperScissors.UserInfo",
							"name": "user2",
							"type": "tuple"
						},
						{
							"internalType": "string",
							"name": "finalResult",
							"type": "string"
						}
					],
					"stateMutability": "view",
					"type": "function"
				},
				{
					"inputs": [],
					"name": "numberofPool",
					"outputs": [
						{
							"internalType": "uint256",
							"name": "",
							"type": "uint256"
						}
					],
					"stateMutability": "view",
					"type": "function"
				},
				{
					"inputs": [],
					"name": "poolUserAddress",
					"outputs": [
						{
							"internalType": "address[]",
							"name": "",
							"type": "address[]"
						}
					],
					"stateMutability": "view",
					"type": "function"
				},
				{
					"inputs": [],
					"name": "showNumber",
					"outputs": [
						{
							"internalType": "uint256",
							"name": "",
							"type": "uint256"
						}
					],
					"stateMutability": "view",
					"type": "function"
				},
				{
					"inputs": [],
					"name": "showWaitingPoll",
					"outputs": [
						{
							"components": [
								{
									"internalType": "address",
									"name": "userAddress",
									"type": "address"
								},
								{
									"internalType": "uint256",
									"name": "userOption",
									"type": "uint256"
								}
							],
							"internalType": "struct RockPaperScissors.UserInfo[]",
							"name": "",
							"type": "tuple[]"
						}
					],
					"stateMutability": "view",
					"type": "function"
				},
				{
					"inputs": [
						{
							"internalType": "uint256",
							"name": "_number",
							"type": "uint256"
						}
					],
					"name": "updateNumber",
					"outputs": [],
					"stateMutability": "nonpayable",
					"type": "function"
				}
			],
			"devdoc": {
				"kind": "dev",
				"methods": {},
				"version": 1
			},
			"evm": {
				"assembly": "    /* \"Practical2-RockPaperScissors-Jason.sol\":57:8592  contract RockPaperScissors {... */\n  mstore(0x40, 0x80)\n    /* \"Practical2-RockPaperScissors-Jason.sol\":168:169  1 */\n  0x01\n    /* \"Practical2-RockPaperScissors-Jason.sol\":143:169  uint public showNumber = 1 */\n  0x00\n  sstore\n    /* \"Practical2-RockPaperScissors-Jason.sol\":884:885  0 */\n  0x00\n    /* \"Practical2-RockPaperScissors-Jason.sol\":859:885  uint private userCount = 0 */\n  0x01\n  sstore\n    /* \"Practical2-RockPaperScissors-Jason.sol\":1082:1083  1 */\n  0x01\n    /* \"Practical2-RockPaperScissors-Jason.sol\":1062:1083  uint private salt = 1 */\n  0x04\n  sstore\n    /* \"Practical2-RockPaperScissors-Jason.sol\":1387:1388  6 */\n  0x06\n    /* \"Practical2-RockPaperScissors-Jason.sol\":1360:1388  uint public numberofPool = 6 */\n  0x08\n  sstore\n    /* \"Practical2-RockPaperScissors-Jason.sol\":57:8592  contract RockPaperScissors {... */\n  callvalue\n  dup1\n  iszero\n  tag_1\n  jumpi\n  0x00\n  dup1\n  revert\ntag_1:\n  pop\n  dataSize(sub_0)\n  dup1\n  dataOffset(sub_0)\n  0x00\n  codecopy\n  0x00\n  return\nstop\n\nsub_0: assembly {\n        /* \"Practical2-RockPaperScissors-Jason.sol\":57:8592  contract RockPaperScissors {... */\n      mstore(0x40, 0x80)\n      callvalue\n      dup1\n      iszero\n      tag_1\n      jumpi\n      0x00\n      dup1\n      revert\n    tag_1:\n      pop\n      jumpi(tag_2, lt(calldatasize, 0x04))\n      shr(0xe0, calldataload(0x00))\n      dup1\n      0x7572b227\n      gt\n      tag_15\n      jumpi\n      dup1\n      0x7572b227\n      eq\n      tag_9\n      jumpi\n      dup1\n      0x76dad223\n      eq\n      tag_10\n      jumpi\n      dup1\n      0xadf496b5\n      eq\n      tag_11\n      jumpi\n      dup1\n      0xccf138e1\n      eq\n      tag_12\n      jumpi\n      dup1\n      0xe16c9d59\n      eq\n      tag_13\n      jumpi\n      dup1\n      0xf7c4efbb\n      eq\n      tag_14\n      jumpi\n      0x00\n      dup1\n      revert\n    tag_15:\n      dup1\n      0x09fa6b09\n      eq\n      tag_3\n      jumpi\n      dup1\n      0x1db05a88\n      eq\n      tag_4\n      jumpi\n      dup1\n      0x316926c1\n      eq\n      tag_5\n      jumpi\n      dup1\n      0x512ec557\n      eq\n      tag_6\n      jumpi\n      dup1\n      0x568e19cf\n      eq\n      tag_7\n      jumpi\n      dup1\n      0x7322878d\n      eq\n      tag_8\n      jumpi\n    tag_2:\n      0x00\n      dup1\n      revert\n        /* \"Practical2-RockPaperScissors-Jason.sol\":3066:3173  function poolUserAddress () external view returns (address[] memory){... */\n    tag_3:\n      tag_16\n      tag_17\n      jump\t// in\n    tag_16:\n      mload(0x40)\n      tag_18\n      swap2\n      swap1\n      tag_19\n      jump\t// in\n    tag_18:\n      mload(0x40)\n      dup1\n      swap2\n      sub\n      swap1\n      return\n        /* \"Practical2-RockPaperScissors-Jason.sol\":224:351  function updateNumber (uint _number) external {... */\n    tag_4:\n      tag_20\n      tag_21\n      calldatasize\n      0x04\n      tag_22\n      jump\t// in\n    tag_21:\n      tag_23\n      jump\t// in\n    tag_20:\n      stop\n        /* \"Practical2-RockPaperScissors-Jason.sol\":1836:1929  function getNumberofPool () external view returns (uint){... */\n    tag_5:\n        /* \"Practical2-RockPaperScissors-Jason.sol\":1909:1921  numberofPool */\n      sload(0x08)\n        /* \"Practical2-RockPaperScissors-Jason.sol\":1836:1929  function getNumberofPool () external view returns (uint){... */\n    tag_24:\n      mload(0x40)\n        /* \"#utility.yul\":1008:1033   */\n      swap1\n      dup2\n      mstore\n        /* \"#utility.yul\":996:998   */\n      0x20\n        /* \"#utility.yul\":981:999   */\n      add\n        /* \"Practical2-RockPaperScissors-Jason.sol\":1836:1929  function getNumberofPool () external view returns (uint){... */\n      tag_18\n        /* \"#utility.yul\":862:1039   */\n      jump\n        /* \"Practical2-RockPaperScissors-Jason.sol\":3400:3504  function getGameHistory () external view returns(GameInfo[] memory){... */\n    tag_6:\n      tag_28\n      tag_29\n      jump\t// in\n    tag_28:\n      mload(0x40)\n      tag_18\n      swap2\n      swap1\n      tag_31\n      jump\t// in\n        /* \"Practical2-RockPaperScissors-Jason.sol\":2254:2826  function changeNumberofPool (uint _Number) external {... */\n    tag_7:\n      tag_20\n      tag_33\n      calldatasize\n      0x04\n      tag_22\n      jump\t// in\n    tag_33:\n      tag_34\n      jump\t// in\n        /* \"Practical2-RockPaperScissors-Jason.sol\":1360:1388  uint public numberofPool = 6 */\n    tag_8:\n      tag_24\n      sload(0x08)\n      dup2\n      jump\n        /* \"Practical2-RockPaperScissors-Jason.sol\":1282:1316  GameInfo[] public latestGameResult */\n    tag_9:\n      tag_38\n      tag_39\n      calldatasize\n      0x04\n      tag_22\n      jump\t// in\n    tag_39:\n      tag_40\n      jump\t// in\n    tag_38:\n      mload(0x40)\n      tag_18\n      swap4\n      swap3\n      swap2\n      swap1\n      tag_42\n      jump\t// in\n        /* \"Practical2-RockPaperScissors-Jason.sol\":143:169  uint public showNumber = 1 */\n    tag_10:\n      tag_24\n      sload(0x00)\n      dup2\n      jump\n        /* \"Practical2-RockPaperScissors-Jason.sol\":4117:5660  function getUserOption(uint option) external noReentrancy{... */\n    tag_11:\n      tag_20\n      tag_47\n      calldatasize\n      0x04\n      tag_22\n      jump\t// in\n    tag_47:\n      tag_48\n      jump\t// in\n        /* \"Practical2-RockPaperScissors-Jason.sol\":2901:3007  function latestGameLength () external view returns (uint){... */\n    tag_12:\n        /* \"Practical2-RockPaperScissors-Jason.sol\":2976:2992  latestGameResult */\n      0x07\n        /* \"Practical2-RockPaperScissors-Jason.sol\":2976:2999  latestGameResult.length */\n      sload\n        /* \"Practical2-RockPaperScissors-Jason.sol\":2901:3007  function latestGameLength () external view returns (uint){... */\n      jump(tag_24)\n        /* \"Practical2-RockPaperScissors-Jason.sol\":3243:3350  function showWaitingPoll () external view returns (UserInfo[] memory) {... */\n    tag_13:\n      tag_52\n      tag_53\n      jump\t// in\n    tag_52:\n      mload(0x40)\n      tag_18\n      swap2\n      swap1\n      tag_55\n      jump\t// in\n        /* \"Practical2-RockPaperScissors-Jason.sol\":3571:3819  function getSpecificGameHistory (uint index) external view returns(GameInfo memory){... */\n    tag_14:\n      tag_56\n      tag_57\n      calldatasize\n      0x04\n      tag_22\n      jump\t// in\n    tag_57:\n      tag_58\n      jump\t// in\n    tag_56:\n      mload(0x40)\n      tag_18\n      swap2\n      swap1\n      tag_60\n      jump\t// in\n        /* \"Practical2-RockPaperScissors-Jason.sol\":3066:3173  function poolUserAddress () external view returns (address[] memory){... */\n    tag_17:\n        /* \"Practical2-RockPaperScissors-Jason.sol\":3117:3133  address[] memory */\n      0x60\n        /* \"Practical2-RockPaperScissors-Jason.sol\":3152:3165  userAddresses */\n      0x06\n        /* \"Practical2-RockPaperScissors-Jason.sol\":3144:3166  return (userAddresses) */\n      dup1\n      sload\n      dup1\n      0x20\n      mul\n      0x20\n      add\n      mload(0x40)\n      swap1\n      dup2\n      add\n      0x40\n      mstore\n      dup1\n      swap3\n      swap2\n      swap1\n      dup2\n      dup2\n      mstore\n      0x20\n      add\n      dup3\n      dup1\n      sload\n      dup1\n      iszero\n      tag_62\n      jumpi\n      0x20\n      mul\n      dup3\n      add\n      swap2\n      swap1\n      0x00\n      mstore\n      keccak256(0x00, 0x20)\n      swap1\n    tag_63:\n      dup2\n      sload\n      sub(shl(0xa0, 0x01), 0x01)\n      and\n      dup2\n      mstore\n      0x01\n      swap1\n      swap2\n      add\n      swap1\n      0x20\n      add\n      dup1\n      dup4\n      gt\n      tag_63\n      jumpi\n    tag_62:\n      pop\n      pop\n      pop\n      pop\n      pop\n      swap1\n      pop\n        /* \"Practical2-RockPaperScissors-Jason.sol\":3066:3173  function poolUserAddress () external view returns (address[] memory){... */\n      swap1\n      jump\t// out\n        /* \"Practical2-RockPaperScissors-Jason.sol\":224:351  function updateNumber (uint _number) external {... */\n    tag_23:\n        /* \"Practical2-RockPaperScissors-Jason.sol\":280:290  showNumber */\n      0x00\n        /* \"Practical2-RockPaperScissors-Jason.sol\":280:300  showNumber = _number */\n      dup2\n      swap1\n      sstore\n        /* \"Practical2-RockPaperScissors-Jason.sol\":315:344  showCurrentNumber(showNumber) */\n      mload(0x40)\n        /* \"#utility.yul\":1008:1033   */\n      dup2\n      dup2\n      mstore\n        /* \"Practical2-RockPaperScissors-Jason.sol\":315:344  showCurrentNumber(showNumber) */\n      0xebaa1540a7a2f4fd56917205a7326b45cd094b271e1c175a4c5e472967e60e84\n      swap1\n        /* \"#utility.yul\":996:998   */\n      0x20\n        /* \"#utility.yul\":981:999   */\n      add\n        /* \"Practical2-RockPaperScissors-Jason.sol\":315:344  showCurrentNumber(showNumber) */\n    tag_65:\n      mload(0x40)\n      dup1\n      swap2\n      sub\n      swap1\n      log1\n        /* \"Practical2-RockPaperScissors-Jason.sol\":224:351  function updateNumber (uint _number) external {... */\n      pop\n      jump\t// out\n        /* \"Practical2-RockPaperScissors-Jason.sol\":3400:3504  function getGameHistory () external view returns(GameInfo[] memory){... */\n    tag_29:\n        /* \"Practical2-RockPaperScissors-Jason.sol\":3449:3466  GameInfo[] memory */\n      0x60\n        /* \"Practical2-RockPaperScissors-Jason.sol\":3485:3496  gameHistory */\n      0x02\n        /* \"Practical2-RockPaperScissors-Jason.sol\":3477:3497  return (gameHistory) */\n      dup1\n      sload\n      dup1\n      0x20\n      mul\n      0x20\n      add\n      mload(0x40)\n      swap1\n      dup2\n      add\n      0x40\n      mstore\n      dup1\n      swap3\n      swap2\n      swap1\n      dup2\n      dup2\n      mstore\n      0x20\n      add\n      0x00\n      swap1\n    tag_68:\n      dup3\n      dup3\n      lt\n      iszero\n      tag_69\n      jumpi\n      0x00\n      dup5\n      dup2\n      mstore\n      0x20\n      swap1\n      dup2\n      swap1\n      keccak256\n      0x40\n      dup1\n      mload\n      0xa0\n      dup2\n      add\n      dup3\n      mstore\n      0x05\n      dup7\n      mul\n      swap1\n      swap3\n      add\n      dup1\n      sload\n      sub(shl(0xa0, 0x01), 0x01)\n      swap1\n      dup2\n      and\n      0x60\n      dup6\n      add\n      swap1\n      dup2\n      mstore\n      0x01\n      dup4\n      add\n      sload\n      0x80\n      dup7\n      add\n      mstore\n      dup5\n      mstore\n      dup3\n      mload\n      dup1\n      dup5\n      add\n      dup5\n      mstore\n      0x02\n      dup4\n      add\n      sload\n      swap1\n      swap2\n      and\n      dup2\n      mstore\n      0x03\n      dup3\n      add\n      sload\n      dup2\n      dup7\n      add\n      mstore\n      swap4\n      dup4\n      add\n      swap4\n      swap1\n      swap4\n      mstore\n      0x04\n      dup4\n      add\n      dup1\n      sload\n      swap3\n      swap4\n      swap3\n      swap2\n      dup5\n      add\n      swap2\n      tag_71\n      swap1\n      tag_72\n      jump\t// in\n    tag_71:\n      dup1\n      0x1f\n      add\n      0x20\n      dup1\n      swap2\n      div\n      mul\n      0x20\n      add\n      mload(0x40)\n      swap1\n      dup2\n      add\n      0x40\n      mstore\n      dup1\n      swap3\n      swap2\n      swap1\n      dup2\n      dup2\n      mstore\n      0x20\n      add\n      dup3\n      dup1\n      sload\n      tag_73\n      swap1\n      tag_72\n      jump\t// in\n    tag_73:\n      dup1\n      iszero\n      tag_74\n      jumpi\n      dup1\n      0x1f\n      lt\n      tag_75\n      jumpi\n      0x0100\n      dup1\n      dup4\n      sload\n      div\n      mul\n      dup4\n      mstore\n      swap2\n      0x20\n      add\n      swap2\n      jump(tag_74)\n    tag_75:\n      dup3\n      add\n      swap2\n      swap1\n      0x00\n      mstore\n      keccak256(0x00, 0x20)\n      swap1\n    tag_76:\n      dup2\n      sload\n      dup2\n      mstore\n      swap1\n      0x01\n      add\n      swap1\n      0x20\n      add\n      dup1\n      dup4\n      gt\n      tag_76\n      jumpi\n      dup3\n      swap1\n      sub\n      0x1f\n      and\n      dup3\n      add\n      swap2\n    tag_74:\n      pop\n      pop\n      pop\n      pop\n      pop\n      dup2\n      mstore\n      pop\n      pop\n      dup2\n      mstore\n      0x20\n      add\n      swap1\n      0x01\n      add\n      swap1\n      jump(tag_68)\n    tag_69:\n      pop\n      pop\n      pop\n      pop\n      swap1\n      pop\n        /* \"Practical2-RockPaperScissors-Jason.sol\":3400:3504  function getGameHistory () external view returns(GameInfo[] memory){... */\n      swap1\n      jump\t// out\n        /* \"Practical2-RockPaperScissors-Jason.sol\":2254:2826  function changeNumberofPool (uint _Number) external {... */\n    tag_34:\n        /* \"Practical2-RockPaperScissors-Jason.sol\":2363:2372  _Number%2 */\n      tag_78\n        /* \"Practical2-RockPaperScissors-Jason.sol\":2371:2372  2 */\n      0x02\n        /* \"Practical2-RockPaperScissors-Jason.sol\":2363:2370  _Number */\n      dup3\n        /* \"Practical2-RockPaperScissors-Jason.sol\":2363:2372  _Number%2 */\n      tag_79\n      jump\t// in\n    tag_78:\n        /* \"Practical2-RockPaperScissors-Jason.sol\":2363:2377  _Number%2 == 0 */\n      iszero\n        /* \"Practical2-RockPaperScissors-Jason.sol\":2355:2415  require(_Number%2 == 0, \"This input must be an even number\") */\n      tag_80\n      jumpi\n      mload(0x40)\n      shl(0xe5, 0x461bcd)\n      dup2\n      mstore\n        /* \"#utility.yul\":5190:5192   */\n      0x20\n        /* \"Practical2-RockPaperScissors-Jason.sol\":2355:2415  require(_Number%2 == 0, \"This input must be an even number\") */\n      0x04\n      dup3\n      add\n        /* \"#utility.yul\":5172:5193   */\n      mstore\n        /* \"#utility.yul\":5229:5231   */\n      0x21\n        /* \"#utility.yul\":5209:5227   */\n      0x24\n      dup3\n      add\n        /* \"#utility.yul\":5202:5232   */\n      mstore\n        /* \"#utility.yul\":5268:5302   */\n      0x5468697320696e707574206d75737420626520616e206576656e206e756d6265\n        /* \"#utility.yul\":5248:5266   */\n      0x44\n      dup3\n      add\n        /* \"#utility.yul\":5241:5303   */\n      mstore\n      shl(0xf9, 0x39)\n        /* \"#utility.yul\":5319:5337   */\n      0x64\n      dup3\n      add\n        /* \"#utility.yul\":5312:5343   */\n      mstore\n        /* \"#utility.yul\":5360:5379   */\n      0x84\n      add\n        /* \"Practical2-RockPaperScissors-Jason.sol\":2355:2415  require(_Number%2 == 0, \"This input must be an even number\") */\n    tag_81:\n      mload(0x40)\n      dup1\n      swap2\n      sub\n      swap1\n      revert\n    tag_80:\n        /* \"Practical2-RockPaperScissors-Jason.sol\":2470:2486  checkGamestart() */\n      tag_83\n        /* \"Practical2-RockPaperScissors-Jason.sol\":2470:2484  checkGamestart */\n      tag_84\n        /* \"Practical2-RockPaperScissors-Jason.sol\":2470:2486  checkGamestart() */\n      jump\t// in\n    tag_83:\n        /* \"Practical2-RockPaperScissors-Jason.sol\":2467:2820  if(checkGamestart()){... */\n      iszero\n      tag_85\n      jumpi\n        /* \"Practical2-RockPaperScissors-Jason.sol\":2538:2550  numberofPool */\n      0x08\n        /* \"Practical2-RockPaperScissors-Jason.sol\":2538:2560  numberofPool = _Number */\n      dup2\n      swap1\n      sstore\n        /* \"Practical2-RockPaperScissors-Jason.sol\":2622:2642  numberofPoolUpdate() */\n      mload(0x40)\n      0xf8ff0817e4aceb45c1d1dada3ca01735d6f785e54ce0d9985328fb32f5ad5141\n      swap1\n      0x00\n      swap1\n      log1\n        /* \"Practical2-RockPaperScissors-Jason.sol\":2254:2826  function changeNumberofPool (uint _Number) external {... */\n      pop\n      jump\t// out\n        /* \"Practical2-RockPaperScissors-Jason.sol\":2467:2820  if(checkGamestart()){... */\n    tag_85:\n        /* \"Practical2-RockPaperScissors-Jason.sol\":2743:2809  showGameStatus(\"Game already start, need to wait the game finish\") */\n      0xe815d693ac349b875a266c6a263ba6e43c58b822f0472f17cdac4c9671ceffe5\n      mload(0x40)\n      tag_65\n      swap1\n        /* \"#utility.yul\":5592:5594   */\n      0x20\n        /* \"#utility.yul\":5574:5595   */\n      dup1\n      dup3\n      mstore\n        /* \"#utility.yul\":5631:5633   */\n      0x30\n        /* \"#utility.yul\":5611:5629   */\n      swap1\n      dup3\n      add\n        /* \"#utility.yul\":5604:5634   */\n      mstore\n        /* \"#utility.yul\":5670:5704   */\n      0x47616d6520616c72656164792073746172742c206e65656420746f2077616974\n        /* \"#utility.yul\":5665:5667   */\n      0x40\n        /* \"#utility.yul\":5650:5668   */\n      dup3\n      add\n        /* \"#utility.yul\":5643:5705   */\n      mstore\n      shl(0x83, 0x040e8d0ca40cec2daca40ccd2dcd2e6d)\n        /* \"#utility.yul\":5736:5738   */\n      0x60\n        /* \"#utility.yul\":5721:5739   */\n      dup3\n      add\n        /* \"#utility.yul\":5714:5760   */\n      mstore\n        /* \"#utility.yul\":5792:5795   */\n      0x80\n        /* \"#utility.yul\":5777:5796   */\n      add\n      swap1\n        /* \"#utility.yul\":5390:5802   */\n      jump\n        /* \"Practical2-RockPaperScissors-Jason.sol\":2467:2820  if(checkGamestart()){... */\n    tag_86:\n        /* \"Practical2-RockPaperScissors-Jason.sol\":2254:2826  function changeNumberofPool (uint _Number) external {... */\n      pop\n      jump\t// out\n        /* \"Practical2-RockPaperScissors-Jason.sol\":1282:1316  GameInfo[] public latestGameResult */\n    tag_40:\n      0x07\n      dup2\n      dup2\n      sload\n      dup2\n      lt\n      tag_89\n      jumpi\n      0x00\n      dup1\n      revert\n    tag_89:\n      0x00\n      swap2\n      dup3\n      mstore\n      0x20\n      swap2\n      dup3\n      swap1\n      keccak256\n      0x40\n      dup1\n      mload\n      dup1\n      dup3\n      add\n      dup3\n      mstore\n      0x05\n      swap1\n      swap4\n      mul\n      swap1\n      swap2\n      add\n      dup1\n      sload\n      sub(shl(0xa0, 0x01), 0x01)\n      swap1\n      dup2\n      and\n      dup5\n      mstore\n      0x01\n      dup3\n      add\n      sload\n      dup5\n      dup7\n      add\n      mstore\n      dup3\n      mload\n      dup1\n      dup5\n      add\n      swap1\n      swap4\n      mstore\n      0x02\n      dup3\n      add\n      sload\n      and\n      dup3\n      mstore\n      0x03\n      dup2\n      add\n      sload\n      swap4\n      dup3\n      add\n      swap4\n      swap1\n      swap4\n      mstore\n      0x04\n      dup4\n      add\n      dup1\n      sload\n      swap3\n      swap5\n      pop\n      swap1\n      swap3\n      swap2\n      tag_91\n      swap1\n      tag_72\n      jump\t// in\n    tag_91:\n      dup1\n      0x1f\n      add\n      0x20\n      dup1\n      swap2\n      div\n      mul\n      0x20\n      add\n      mload(0x40)\n      swap1\n      dup2\n      add\n      0x40\n      mstore\n      dup1\n      swap3\n      swap2\n      swap1\n      dup2\n      dup2\n      mstore\n      0x20\n      add\n      dup3\n      dup1\n      sload\n      tag_92\n      swap1\n      tag_72\n      jump\t// in\n    tag_92:\n      dup1\n      iszero\n      tag_93\n      jumpi\n      dup1\n      0x1f\n      lt\n      tag_94\n      jumpi\n      0x0100\n      dup1\n      dup4\n      sload\n      div\n      mul\n      dup4\n      mstore\n      swap2\n      0x20\n      add\n      swap2\n      jump(tag_93)\n    tag_94:\n      dup3\n      add\n      swap2\n      swap1\n      0x00\n      mstore\n      keccak256(0x00, 0x20)\n      swap1\n    tag_95:\n      dup2\n      sload\n      dup2\n      mstore\n      swap1\n      0x01\n      add\n      swap1\n      0x20\n      add\n      dup1\n      dup4\n      gt\n      tag_95\n      jumpi\n      dup3\n      swap1\n      sub\n      0x1f\n      and\n      dup3\n      add\n      swap2\n    tag_93:\n      pop\n      pop\n      pop\n      pop\n      pop\n      swap1\n      pop\n      dup4\n      jump\t// out\n        /* \"Practical2-RockPaperScissors-Jason.sol\":4117:5660  function getUserOption(uint option) external noReentrancy{... */\n    tag_48:\n        /* \"Practical2-RockPaperScissors-Jason.sol\":3955:3961  locked */\n      and(0xff, sload(0x03))\n        /* \"Practical2-RockPaperScissors-Jason.sol\":3954:3961  !locked */\n      iszero\n        /* \"Practical2-RockPaperScissors-Jason.sol\":3946:3987  require(!locked, \"Error: Reentrant call\") */\n      tag_97\n      jumpi\n      mload(0x40)\n      shl(0xe5, 0x461bcd)\n      dup2\n      mstore\n        /* \"#utility.yul\":6009:6011   */\n      0x20\n        /* \"Practical2-RockPaperScissors-Jason.sol\":3946:3987  require(!locked, \"Error: Reentrant call\") */\n      0x04\n      dup3\n      add\n        /* \"#utility.yul\":5991:6012   */\n      mstore\n        /* \"#utility.yul\":6048:6050   */\n      0x15\n        /* \"#utility.yul\":6028:6046   */\n      0x24\n      dup3\n      add\n        /* \"#utility.yul\":6021:6051   */\n      mstore\n      shl(0x5a, 0x115c9c9bdc8e881499595b9d1c985b9d0818d85b1b)\n        /* \"#utility.yul\":6067:6085   */\n      0x44\n      dup3\n      add\n        /* \"#utility.yul\":6060:6111   */\n      mstore\n        /* \"#utility.yul\":6128:6146   */\n      0x64\n      add\n        /* \"Practical2-RockPaperScissors-Jason.sol\":3946:3987  require(!locked, \"Error: Reentrant call\") */\n      tag_81\n        /* \"#utility.yul\":5807:6152   */\n      jump\n        /* \"Practical2-RockPaperScissors-Jason.sol\":3946:3987  require(!locked, \"Error: Reentrant call\") */\n    tag_97:\n        /* \"Practical2-RockPaperScissors-Jason.sol\":3997:4003  locked */\n      0x03\n        /* \"Practical2-RockPaperScissors-Jason.sol\":3997:4010  locked = true */\n      dup1\n      sload\n      not(0xff)\n      and\n        /* \"Practical2-RockPaperScissors-Jason.sol\":4006:4010  true */\n      0x01\n        /* \"Practical2-RockPaperScissors-Jason.sol\":3997:4010  locked = true */\n      or\n      swap1\n      sstore\n        /* \"Practical2-RockPaperScissors-Jason.sol\":4189:4216  showUserAddress(msg.sender) */\n      mload(0x40)\n        /* \"Practical2-RockPaperScissors-Jason.sol\":4205:4215  msg.sender */\n      caller\n      swap1\n        /* \"Practical2-RockPaperScissors-Jason.sol\":4189:4216  showUserAddress(msg.sender) */\n      0x6fd5bea3ad79492c3055c6f6b7b37ca66d63ba4ceef7d04dd901559affbe971a\n      swap1\n        /* \"Practical2-RockPaperScissors-Jason.sol\":3997:4003  locked */\n      0x00\n      swap1\n        /* \"Practical2-RockPaperScissors-Jason.sol\":4189:4216  showUserAddress(msg.sender) */\n      log2\n        /* \"Practical2-RockPaperScissors-Jason.sol\":4261:4267  option */\n      dup1\n        /* \"Practical2-RockPaperScissors-Jason.sol\":4271:4272  0 */\n      0x00\n        /* \"Practical2-RockPaperScissors-Jason.sol\":4261:4272  option != 0 */\n      sub\n        /* \"Practical2-RockPaperScissors-Jason.sol\":4253:4297  require(option != 0, \"Error: Can't input 0\") */\n      tag_101\n      jumpi\n      mload(0x40)\n      shl(0xe5, 0x461bcd)\n      dup2\n      mstore\n        /* \"#utility.yul\":6359:6361   */\n      0x20\n        /* \"Practical2-RockPaperScissors-Jason.sol\":4253:4297  require(option != 0, \"Error: Can't input 0\") */\n      0x04\n      dup3\n      add\n        /* \"#utility.yul\":6341:6362   */\n      mstore\n        /* \"#utility.yul\":6398:6400   */\n      0x14\n        /* \"#utility.yul\":6378:6396   */\n      0x24\n      dup3\n      add\n        /* \"#utility.yul\":6371:6401   */\n      mstore\n      shl(0x64, 0x04572726f723a2043616e277420696e707574203)\n        /* \"#utility.yul\":6417:6435   */\n      0x44\n      dup3\n      add\n        /* \"#utility.yul\":6410:6460   */\n      mstore\n        /* \"#utility.yul\":6477:6495   */\n      0x64\n      add\n        /* \"Practical2-RockPaperScissors-Jason.sol\":4253:4297  require(option != 0, \"Error: Can't input 0\") */\n      tag_81\n        /* \"#utility.yul\":6157:6501   */\n      jump\n        /* \"Practical2-RockPaperScissors-Jason.sol\":4253:4297  require(option != 0, \"Error: Can't input 0\") */\n    tag_101:\n        /* \"Practical2-RockPaperScissors-Jason.sol\":4325:4326  3 */\n      0x03\n        /* \"Practical2-RockPaperScissors-Jason.sol\":4315:4321  option */\n      dup2\n        /* \"Practical2-RockPaperScissors-Jason.sol\":4315:4326  option <= 3 */\n      gt\n      iszero\n        /* \"Practical2-RockPaperScissors-Jason.sol\":4307:4361  require(option <= 3, \"Error: Can't input more than 3\") */\n      tag_104\n      jumpi\n      mload(0x40)\n      shl(0xe5, 0x461bcd)\n      dup2\n      mstore\n        /* \"#utility.yul\":6708:6710   */\n      0x20\n        /* \"Practical2-RockPaperScissors-Jason.sol\":4307:4361  require(option <= 3, \"Error: Can't input more than 3\") */\n      0x04\n      dup3\n      add\n        /* \"#utility.yul\":6690:6711   */\n      mstore\n        /* \"#utility.yul\":6747:6749   */\n      0x1e\n        /* \"#utility.yul\":6727:6745   */\n      0x24\n      dup3\n      add\n        /* \"#utility.yul\":6720:6750   */\n      mstore\n        /* \"#utility.yul\":6786:6818   */\n      0x4572726f723a2043616e277420696e707574206d6f7265207468616e20330000\n        /* \"#utility.yul\":6766:6784   */\n      0x44\n      dup3\n      add\n        /* \"#utility.yul\":6759:6819   */\n      mstore\n        /* \"#utility.yul\":6836:6854   */\n      0x64\n      add\n        /* \"Practical2-RockPaperScissors-Jason.sol\":4307:4361  require(option <= 3, \"Error: Can't input more than 3\") */\n      tag_81\n        /* \"#utility.yul\":6506:6860   */\n      jump\n        /* \"Practical2-RockPaperScissors-Jason.sol\":4307:4361  require(option <= 3, \"Error: Can't input more than 3\") */\n    tag_104:\n        /* \"Practical2-RockPaperScissors-Jason.sol\":4418:4428  bool exist */\n      0x00\n      dup1\n        /* \"Practical2-RockPaperScissors-Jason.sol\":4438:4786  for (uint i = 0; i < waitingPool.length; i++) ... */\n    tag_107:\n        /* \"Practical2-RockPaperScissors-Jason.sol\":4459:4470  waitingPool */\n      0x05\n        /* \"Practical2-RockPaperScissors-Jason.sol\":4459:4477  waitingPool.length */\n      sload\n        /* \"Practical2-RockPaperScissors-Jason.sol\":4455:4477  i < waitingPool.length */\n      dup2\n      lt\n        /* \"Practical2-RockPaperScissors-Jason.sol\":4438:4786  for (uint i = 0; i < waitingPool.length; i++) ... */\n      iszero\n      tag_108\n      jumpi\n        /* \"Practical2-RockPaperScissors-Jason.sol\":4524:4535  waitingPool */\n      0x05\n        /* \"Practical2-RockPaperScissors-Jason.sol\":4536:4537  i */\n      dup2\n        /* \"Practical2-RockPaperScissors-Jason.sol\":4524:4538  waitingPool[i] */\n      dup2\n      sload\n      dup2\n      lt\n      tag_111\n      jumpi\n      tag_111\n      tag_112\n      jump\t// in\n    tag_111:\n      0x00\n      swap2\n      dup3\n      mstore\n      0x20\n      swap1\n      swap2\n      keccak256\n      0x02\n      swap1\n      swap2\n      mul\n      add\n        /* \"Practical2-RockPaperScissors-Jason.sol\":4524:4550  waitingPool[i].userAddress */\n      sload\n      sub(shl(0xa0, 0x01), 0x01)\n      and\n        /* \"Practical2-RockPaperScissors-Jason.sol\":4510:4520  msg.sender */\n      caller\n        /* \"Practical2-RockPaperScissors-Jason.sol\":4510:4550  msg.sender == waitingPool[i].userAddress */\n      sub\n        /* \"Practical2-RockPaperScissors-Jason.sol\":4507:4777  if(msg.sender == waitingPool[i].userAddress){... */\n      tag_117\n      jumpi\n        /* \"Practical2-RockPaperScissors-Jason.sol\":4577:4581  true */\n      0x01\n        /* \"Practical2-RockPaperScissors-Jason.sol\":4569:4581  exist = true */\n      swap2\n      pop\n        /* \"Practical2-RockPaperScissors-Jason.sol\":4604:4667  showError(\"You already in the queue, wait for other play join\") */\n      0x1d229a771174308da40f70761ba48b700922b118fea40f5e3705f7067c12cc38\n      mload(0x40)\n      tag_115\n      swap1\n        /* \"#utility.yul\":7199:7201   */\n      0x20\n        /* \"#utility.yul\":7181:7202   */\n      dup1\n      dup3\n      mstore\n        /* \"#utility.yul\":7238:7240   */\n      0x32\n        /* \"#utility.yul\":7218:7236   */\n      swap1\n      dup3\n      add\n        /* \"#utility.yul\":7211:7241   */\n      mstore\n        /* \"#utility.yul\":7277:7311   */\n      0x596f7520616c726561647920696e207468652071756575652c20776169742066\n        /* \"#utility.yul\":7272:7274   */\n      0x40\n        /* \"#utility.yul\":7257:7275   */\n      dup3\n      add\n        /* \"#utility.yul\":7250:7312   */\n      mstore\n      shl(0x71, 0x37b91037ba3432b910383630bc903537b4b7)\n        /* \"#utility.yul\":7343:7345   */\n      0x60\n        /* \"#utility.yul\":7328:7346   */\n      dup3\n      add\n        /* \"#utility.yul\":7321:7369   */\n      mstore\n        /* \"#utility.yul\":7401:7404   */\n      0x80\n        /* \"#utility.yul\":7386:7405   */\n      add\n      swap1\n        /* \"#utility.yul\":6997:7411   */\n      jump\n        /* \"Practical2-RockPaperScissors-Jason.sol\":4604:4667  showError(\"You already in the queue, wait for other play join\") */\n    tag_115:\n      mload(0x40)\n      dup1\n      swap2\n      sub\n      swap1\n      log1\n        /* \"Practical2-RockPaperScissors-Jason.sol\":4694:4699  exist */\n      dup2\n        /* \"Practical2-RockPaperScissors-Jason.sol\":4693:4699  !exist */\n      iszero\n        /* \"Practical2-RockPaperScissors-Jason.sol\":4685:4761  require(!exist, \"Error: You already in the queue, wait for other play join\") */\n      tag_117\n      jumpi\n      mload(0x40)\n      shl(0xe5, 0x461bcd)\n      dup2\n      mstore\n        /* \"#utility.yul\":7618:7620   */\n      0x20\n        /* \"Practical2-RockPaperScissors-Jason.sol\":4685:4761  require(!exist, \"Error: You already in the queue, wait for other play join\") */\n      0x04\n      dup3\n      add\n        /* \"#utility.yul\":7600:7621   */\n      mstore\n        /* \"#utility.yul\":7657:7659   */\n      0x39\n        /* \"#utility.yul\":7637:7655   */\n      0x24\n      dup3\n      add\n        /* \"#utility.yul\":7630:7660   */\n      mstore\n        /* \"#utility.yul\":7696:7730   */\n      0x4572726f723a20596f7520616c726561647920696e207468652071756575652c\n        /* \"#utility.yul\":7676:7694   */\n      0x44\n      dup3\n      add\n        /* \"#utility.yul\":7669:7731   */\n      mstore\n        /* \"#utility.yul\":7767:7794   */\n      0x207761697420666f72206f7468657220706c6179206a6f696e00000000000000\n        /* \"#utility.yul\":7747:7765   */\n      0x64\n      dup3\n      add\n        /* \"#utility.yul\":7740:7795   */\n      mstore\n        /* \"#utility.yul\":7812:7831   */\n      0x84\n      add\n        /* \"Practical2-RockPaperScissors-Jason.sol\":4685:4761  require(!exist, \"Error: You already in the queue, wait for other play join\") */\n      tag_81\n        /* \"#utility.yul\":7416:7837   */\n      jump\n        /* \"Practical2-RockPaperScissors-Jason.sol\":4685:4761  require(!exist, \"Error: You already in the queue, wait for other play join\") */\n    tag_117:\n        /* \"Practical2-RockPaperScissors-Jason.sol\":4479:4482  i++ */\n      dup1\n      tag_120\n      dup2\n      tag_121\n      jump\t// in\n    tag_120:\n      swap2\n      pop\n      pop\n        /* \"Practical2-RockPaperScissors-Jason.sol\":4438:4786  for (uint i = 0; i < waitingPool.length; i++) ... */\n      jump(tag_107)\n    tag_108:\n      pop\n      0x40\n      dup1\n      mload\n      dup1\n      dup3\n      add\n      swap1\n      swap2\n      mstore\n      0x00\n      dup1\n      dup3\n      mstore\n      0x20\n      dup3\n      add\n      mstore\n        /* \"Practical2-RockPaperScissors-Jason.sol\":4910:4921  waitingPool */\n      0x05\n        /* \"Practical2-RockPaperScissors-Jason.sol\":4910:4936  waitingPool.push(userinfo) */\n      dup1\n      sload\n      0x01\n      dup1\n      dup3\n      add\n      dup4\n      sstore\n      0x00\n      dup4\n      swap1\n      mstore\n      dup4\n      mload\n      0x036b6384b5eca791c62761152d0c79bb0604c104a5fb6f4eb0703f3154bb3db0\n      0x02\n      swap1\n      swap4\n      mul\n      swap3\n      dup4\n      add\n      dup1\n      sload\n      not(sub(shl(0xa0, 0x01), 0x01))\n      and\n      sub(shl(0xa0, 0x01), 0x01)\n      swap1\n      swap3\n      and\n      swap2\n      swap1\n      swap2\n      or\n      swap1\n      sstore\n      0x20\n      dup5\n      add\n      mload\n      0x036b6384b5eca791c62761152d0c79bb0604c104a5fb6f4eb0703f3154bb3db1\n      swap1\n      swap3\n      add\n      swap2\n      swap1\n      swap2\n      sstore\n        /* \"Practical2-RockPaperScissors-Jason.sol\":4958:4976  waitingPool.length */\n      dup2\n      sload\n        /* \"Practical2-RockPaperScissors-Jason.sol\":4996:5006  msg.sender */\n      caller\n      swap3\n        /* \"Practical2-RockPaperScissors-Jason.sol\":4910:4921  waitingPool */\n      swap2\n        /* \"Practical2-RockPaperScissors-Jason.sol\":4958:4980  waitingPool.length - 1 */\n      tag_125\n      swap2\n      tag_126\n      jump\t// in\n    tag_125:\n        /* \"Practical2-RockPaperScissors-Jason.sol\":4946:4981  waitingPool[waitingPool.length - 1] */\n      dup2\n      sload\n      dup2\n      lt\n      tag_128\n      jumpi\n      tag_128\n      tag_112\n      jump\t// in\n    tag_128:\n      0x00\n      swap2\n      dup3\n      mstore\n      0x20\n      swap1\n      swap2\n      keccak256\n      0x02\n      swap1\n      swap2\n      mul\n      add\n        /* \"Practical2-RockPaperScissors-Jason.sol\":4946:5006  waitingPool[waitingPool.length - 1].userAddress = msg.sender */\n      dup1\n      sload\n      not(sub(shl(0xa0, 0x01), 0x01))\n      and\n      sub(shl(0xa0, 0x01), 0x01)\n      swap3\n      swap1\n      swap3\n      and\n      swap2\n      swap1\n      swap2\n      or\n      swap1\n      sstore\n        /* \"Practical2-RockPaperScissors-Jason.sol\":5016:5027  waitingPool */\n      0x05\n        /* \"Practical2-RockPaperScissors-Jason.sol\":5028:5046  waitingPool.length */\n      dup1\n      sload\n        /* \"Practical2-RockPaperScissors-Jason.sol\":5065:5071  option */\n      dup5\n      swap2\n        /* \"Practical2-RockPaperScissors-Jason.sol\":5016:5027  waitingPool */\n      swap1\n        /* \"Practical2-RockPaperScissors-Jason.sol\":5028:5050  waitingPool.length - 1 */\n      tag_130\n      swap1\n      0x01\n      swap1\n      tag_126\n      jump\t// in\n    tag_130:\n        /* \"Practical2-RockPaperScissors-Jason.sol\":5016:5051  waitingPool[waitingPool.length - 1] */\n      dup2\n      sload\n      dup2\n      lt\n      tag_132\n      jumpi\n      tag_132\n      tag_112\n      jump\t// in\n    tag_132:\n      0x00\n      swap2\n      dup3\n      mstore\n      0x20\n      dup3\n      keccak256\n        /* \"Practical2-RockPaperScissors-Jason.sol\":5016:5062  waitingPool[waitingPool.length - 1].userOption */\n      0x01\n        /* \"Practical2-RockPaperScissors-Jason.sol\":5016:5051  waitingPool[waitingPool.length - 1] */\n      0x02\n      swap1\n      swap3\n      mul\n      add\n        /* \"Practical2-RockPaperScissors-Jason.sol\":5016:5062  waitingPool[waitingPool.length - 1].userOption */\n      dup2\n      add\n        /* \"Practical2-RockPaperScissors-Jason.sol\":5016:5071  waitingPool[waitingPool.length - 1].userOption = option */\n      swap3\n      swap1\n      swap3\n      sstore\n        /* \"Practical2-RockPaperScissors-Jason.sol\":5081:5094  userAddresses */\n      0x06\n        /* \"Practical2-RockPaperScissors-Jason.sol\":5081:5111  userAddresses.push(msg.sender) */\n      dup1\n      sload\n      swap3\n      dup4\n      add\n      dup2\n      sstore\n      swap1\n      dup2\n      swap1\n      mstore\n      0xf652222313e28459528d920b65115c16c04f3efc82aaedc97be59f3f377c0d3f\n      swap1\n      swap2\n      add\n      dup1\n      sload\n      not(sub(shl(0xa0, 0x01), 0x01))\n      and\n        /* \"Practical2-RockPaperScissors-Jason.sol\":5100:5110  msg.sender */\n      caller\n        /* \"Practical2-RockPaperScissors-Jason.sol\":5081:5111  userAddresses.push(msg.sender) */\n      or\n      swap1\n      sstore\n        /* \"Practical2-RockPaperScissors-Jason.sol\":5166:5196  sendWaitingPool(userAddresses) */\n      mload(0x40)\n      0x14e40fb773638b86a70b4be5b9adb8cadf42cc23571ea96f58e620df77b3d5a9\n      swap2\n      tag_135\n      swap2\n      tag_136\n      jump\t// in\n    tag_135:\n      mload(0x40)\n      dup1\n      swap2\n      sub\n      swap1\n      log1\n        /* \"Practical2-RockPaperScissors-Jason.sol\":5341:5353  numberofPool */\n      sload(0x08)\n        /* \"Practical2-RockPaperScissors-Jason.sol\":5319:5330  waitingPool */\n      0x05\n        /* \"Practical2-RockPaperScissors-Jason.sol\":5319:5337  waitingPool.length */\n      sload\n        /* \"Practical2-RockPaperScissors-Jason.sol\":5319:5353  waitingPool.length == numberofPool */\n      sub\n        /* \"Practical2-RockPaperScissors-Jason.sol\":5316:5654  if(waitingPool.length == numberofPool){... */\n      tag_144\n      jumpi\n        /* \"Practical2-RockPaperScissors-Jason.sol\":5369:5392  delete latestGameResult */\n      tag_138\n        /* \"Practical2-RockPaperScissors-Jason.sol\":5376:5392  latestGameResult */\n      0x07\n      0x00\n        /* \"Practical2-RockPaperScissors-Jason.sol\":5369:5392  delete latestGameResult */\n      tag_139\n      jump\t// in\n    tag_138:\n        /* \"Practical2-RockPaperScissors-Jason.sol\":5472:5490  choosePlayerPlay() */\n      tag_140\n        /* \"Practical2-RockPaperScissors-Jason.sol\":5472:5488  choosePlayerPlay */\n      tag_141\n        /* \"Practical2-RockPaperScissors-Jason.sol\":5472:5490  choosePlayerPlay() */\n      jump\t// in\n    tag_140:\n        /* \"Practical2-RockPaperScissors-Jason.sol\":5547:5581  showLatestResult(latestGameResult) */\n      0x9df054af592edccebdc6e6512520c01f0283851828e74dc515158d3053ee6dad\n        /* \"Practical2-RockPaperScissors-Jason.sol\":5564:5580  latestGameResult */\n      0x07\n        /* \"Practical2-RockPaperScissors-Jason.sol\":5547:5581  showLatestResult(latestGameResult) */\n      mload(0x40)\n      tag_142\n      swap2\n      swap1\n      tag_143\n      jump\t// in\n    tag_142:\n      mload(0x40)\n      dup1\n      swap2\n      sub\n      swap1\n      log1\n        /* \"Practical2-RockPaperScissors-Jason.sol\":5595:5615  delete userAddresses */\n      tag_144\n        /* \"Practical2-RockPaperScissors-Jason.sol\":5602:5615  userAddresses */\n      0x06\n      0x00\n        /* \"Practical2-RockPaperScissors-Jason.sol\":5595:5615  delete userAddresses */\n      tag_145\n      jump\t// in\n    tag_144:\n      pop\n      pop\n        /* \"Practical2-RockPaperScissors-Jason.sol\":4031:4037  locked */\n      0x03\n        /* \"Practical2-RockPaperScissors-Jason.sol\":4031:4045  locked = false */\n      dup1\n      sload\n      not(0xff)\n      and\n      swap1\n      sstore\n      pop\n        /* \"Practical2-RockPaperScissors-Jason.sol\":4117:5660  function getUserOption(uint option) external noReentrancy{... */\n      jump\t// out\n        /* \"Practical2-RockPaperScissors-Jason.sol\":3243:3350  function showWaitingPoll () external view returns (UserInfo[] memory) {... */\n    tag_53:\n        /* \"Practical2-RockPaperScissors-Jason.sol\":3294:3311  UserInfo[] memory */\n      0x60\n        /* \"Practical2-RockPaperScissors-Jason.sol\":3331:3342  waitingPool */\n      0x05\n        /* \"Practical2-RockPaperScissors-Jason.sol\":3323:3343  return (waitingPool) */\n      dup1\n      sload\n      dup1\n      0x20\n      mul\n      0x20\n      add\n      mload(0x40)\n      swap1\n      dup2\n      add\n      0x40\n      mstore\n      dup1\n      swap3\n      swap2\n      swap1\n      dup2\n      dup2\n      mstore\n      0x20\n      add\n      0x00\n      swap1\n    tag_148:\n      dup3\n      dup3\n      lt\n      iszero\n      tag_69\n      jumpi\n      0x00\n      dup5\n      dup2\n      mstore\n      0x20\n      swap1\n      dup2\n      swap1\n      keccak256\n      0x40\n      dup1\n      mload\n      dup1\n      dup3\n      add\n      swap1\n      swap2\n      mstore\n      0x02\n      dup6\n      mul\n      swap1\n      swap2\n      add\n      dup1\n      sload\n      sub(shl(0xa0, 0x01), 0x01)\n      and\n      dup3\n      mstore\n      0x01\n      swap1\n      dup2\n      add\n      sload\n      dup3\n      dup5\n      add\n      mstore\n      swap1\n      dup4\n      mstore\n      swap1\n      swap3\n      add\n      swap2\n      add\n      jump(tag_148)\n        /* \"Practical2-RockPaperScissors-Jason.sol\":3571:3819  function getSpecificGameHistory (uint index) external view returns(GameInfo memory){... */\n    tag_58:\n        /* \"Practical2-RockPaperScissors-Jason.sol\":3638:3653  GameInfo memory */\n      tag_151\n      tag_152\n      jump\t// in\n    tag_151:\n        /* \"Practical2-RockPaperScissors-Jason.sol\":3731:3742  gameHistory */\n      0x02\n        /* \"Practical2-RockPaperScissors-Jason.sol\":3731:3749  gameHistory.length */\n      sload\n        /* \"Practical2-RockPaperScissors-Jason.sol\":3722:3749  index <= gameHistory.length */\n      dup3\n      gt\n      iszero\n        /* \"Practical2-RockPaperScissors-Jason.sol\":3714:3775  require(index <= gameHistory.length, \"Error: Invalid length\") */\n      tag_154\n      jumpi\n      mload(0x40)\n      shl(0xe5, 0x461bcd)\n      dup2\n      mstore\n        /* \"#utility.yul\":11373:11375   */\n      0x20\n        /* \"Practical2-RockPaperScissors-Jason.sol\":3714:3775  require(index <= gameHistory.length, \"Error: Invalid length\") */\n      0x04\n      dup3\n      add\n        /* \"#utility.yul\":11355:11376   */\n      mstore\n        /* \"#utility.yul\":11412:11414   */\n      0x15\n        /* \"#utility.yul\":11392:11410   */\n      0x24\n      dup3\n      add\n        /* \"#utility.yul\":11385:11415   */\n      mstore\n      shl(0x5b, 0x08ae4e4dee4744092dcecc2d8d2c840d8cadccee8d)\n        /* \"#utility.yul\":11431:11449   */\n      0x44\n      dup3\n      add\n        /* \"#utility.yul\":11424:11475   */\n      mstore\n        /* \"#utility.yul\":11492:11510   */\n      0x64\n      add\n        /* \"Practical2-RockPaperScissors-Jason.sol\":3714:3775  require(index <= gameHistory.length, \"Error: Invalid length\") */\n      tag_81\n        /* \"#utility.yul\":11171:11516   */\n      jump\n        /* \"Practical2-RockPaperScissors-Jason.sol\":3714:3775  require(index <= gameHistory.length, \"Error: Invalid length\") */\n    tag_154:\n        /* \"Practical2-RockPaperScissors-Jason.sol\":3793:3804  gameHistory */\n      0x02\n        /* \"Practical2-RockPaperScissors-Jason.sol\":3805:3810  index */\n      dup3\n        /* \"Practical2-RockPaperScissors-Jason.sol\":3793:3811  gameHistory[index] */\n      dup2\n      sload\n      dup2\n      lt\n      tag_158\n      jumpi\n      tag_158\n      tag_112\n      jump\t// in\n    tag_158:\n      0x00\n      swap2\n      dup3\n      mstore\n      0x20\n      swap2\n      dup3\n      swap1\n      keccak256\n        /* \"Practical2-RockPaperScissors-Jason.sol\":3785:3812  return (gameHistory[index]) */\n      0x40\n      dup1\n      mload\n      0xa0\n      dup2\n      add\n      dup3\n      mstore\n        /* \"Practical2-RockPaperScissors-Jason.sol\":3793:3811  gameHistory[index] */\n      0x05\n      swap1\n      swap4\n      mul\n      swap1\n      swap2\n      add\n        /* \"Practical2-RockPaperScissors-Jason.sol\":3785:3812  return (gameHistory[index]) */\n      dup1\n      sload\n      sub(shl(0xa0, 0x01), 0x01)\n      swap1\n      dup2\n      and\n      0x60\n      dup6\n      add\n      swap1\n      dup2\n      mstore\n      0x01\n      dup4\n      add\n      sload\n      0x80\n      dup7\n      add\n      mstore\n      dup5\n      mstore\n      dup3\n      mload\n      dup1\n      dup5\n      add\n      dup5\n      mstore\n      0x02\n      dup4\n      add\n      sload\n      swap1\n      swap2\n      and\n      dup2\n      mstore\n      0x03\n      dup3\n      add\n      sload\n      dup2\n      dup7\n      add\n      mstore\n      swap4\n      dup4\n      add\n      swap4\n      swap1\n      swap4\n      mstore\n      0x04\n      dup4\n      add\n      dup1\n      sload\n      swap3\n      swap4\n        /* \"Practical2-RockPaperScissors-Jason.sol\":3793:3811  gameHistory[index] */\n      swap3\n      swap2\n      dup5\n      add\n      swap2\n        /* \"Practical2-RockPaperScissors-Jason.sol\":3785:3812  return (gameHistory[index]) */\n      tag_160\n      swap1\n      tag_72\n      jump\t// in\n    tag_160:\n      dup1\n      0x1f\n      add\n      0x20\n      dup1\n      swap2\n      div\n      mul\n      0x20\n      add\n      mload(0x40)\n      swap1\n      dup2\n      add\n      0x40\n      mstore\n      dup1\n      swap3\n      swap2\n      swap1\n      dup2\n      dup2\n      mstore\n      0x20\n      add\n      dup3\n      dup1\n      sload\n      tag_161\n      swap1\n      tag_72\n      jump\t// in\n    tag_161:\n      dup1\n      iszero\n      tag_162\n      jumpi\n      dup1\n      0x1f\n      lt\n      tag_163\n      jumpi\n      0x0100\n      dup1\n      dup4\n      sload\n      div\n      mul\n      dup4\n      mstore\n      swap2\n      0x20\n      add\n      swap2\n      jump(tag_162)\n    tag_163:\n      dup3\n      add\n      swap2\n      swap1\n      0x00\n      mstore\n      keccak256(0x00, 0x20)\n      swap1\n    tag_164:\n      dup2\n      sload\n      dup2\n      mstore\n      swap1\n      0x01\n      add\n      swap1\n      0x20\n      add\n      dup1\n      dup4\n      gt\n      tag_164\n      jumpi\n      dup3\n      swap1\n      sub\n      0x1f\n      and\n      dup3\n      add\n      swap2\n    tag_162:\n      pop\n      pop\n      pop\n      pop\n      pop\n      dup2\n      mstore\n      pop\n      pop\n      swap1\n      pop\n        /* \"Practical2-RockPaperScissors-Jason.sol\":3571:3819  function getSpecificGameHistory (uint index) external view returns(GameInfo memory){... */\n      swap2\n      swap1\n      pop\n      jump\t// out\n        /* \"Practical2-RockPaperScissors-Jason.sol\":2021:2212  function checkGamestart () private view returns (bool status) {... */\n    tag_84:\n        /* \"Practical2-RockPaperScissors-Jason.sol\":2096:2107  waitingPool */\n      0x05\n        /* \"Practical2-RockPaperScissors-Jason.sol\":2096:2114  waitingPool.length */\n      sload\n        /* \"Practical2-RockPaperScissors-Jason.sol\":2070:2081  bool status */\n      0x00\n      swap1\n        /* \"Practical2-RockPaperScissors-Jason.sol\":2096:2119  waitingPool.length == 0 */\n      dup2\n      sub\n        /* \"Practical2-RockPaperScissors-Jason.sol\":2093:2206  if(waitingPool.length == 0){... */\n      tag_166\n      jumpi\n      pop\n        /* \"Practical2-RockPaperScissors-Jason.sol\":2141:2145  true */\n      0x01\n      swap1\n        /* \"Practical2-RockPaperScissors-Jason.sol\":2021:2212  function checkGamestart () private view returns (bool status) {... */\n      jump\t// out\n        /* \"Practical2-RockPaperScissors-Jason.sol\":2093:2206  if(waitingPool.length == 0){... */\n    tag_166:\n      pop\n        /* \"Practical2-RockPaperScissors-Jason.sol\":2190:2195  false */\n      0x00\n      swap1\n        /* \"Practical2-RockPaperScissors-Jason.sol\":2021:2212  function checkGamestart () private view returns (bool status) {... */\n      jump\t// out\n        /* \"Practical2-RockPaperScissors-Jason.sol\":5667:6133  function choosePlayerPlay () private {... */\n    tag_141:\n        /* \"Practical2-RockPaperScissors-Jason.sol\":5885:5906  UserInfo memory user1 */\n      0x00\n        /* \"Practical2-RockPaperScissors-Jason.sol\":5909:5927  ChooseRandomUser() */\n      tag_172\n        /* \"Practical2-RockPaperScissors-Jason.sol\":5909:5925  ChooseRandomUser */\n      tag_173\n        /* \"Practical2-RockPaperScissors-Jason.sol\":5909:5927  ChooseRandomUser() */\n      jump\t// in\n    tag_172:\n        /* \"Practical2-RockPaperScissors-Jason.sol\":5885:5927  UserInfo memory user1 = ChooseRandomUser() */\n      swap1\n      pop\n        /* \"Practical2-RockPaperScissors-Jason.sol\":5941:5962  UserInfo memory user2 */\n      0x00\n        /* \"Practical2-RockPaperScissors-Jason.sol\":5965:5983  ChooseRandomUser() */\n      tag_174\n        /* \"Practical2-RockPaperScissors-Jason.sol\":5965:5981  ChooseRandomUser */\n      tag_173\n        /* \"Practical2-RockPaperScissors-Jason.sol\":5965:5983  ChooseRandomUser() */\n      jump\t// in\n    tag_174:\n        /* \"Practical2-RockPaperScissors-Jason.sol\":5941:5983  UserInfo memory user2 = ChooseRandomUser() */\n      swap1\n      pop\n        /* \"Practical2-RockPaperScissors-Jason.sol\":6055:6073  game(user1, user2) */\n      tag_175\n        /* \"Practical2-RockPaperScissors-Jason.sol\":6060:6065  user1 */\n      dup3\n        /* \"Practical2-RockPaperScissors-Jason.sol\":6067:6072  user2 */\n      dup3\n        /* \"Practical2-RockPaperScissors-Jason.sol\":6055:6059  game */\n      tag_176\n        /* \"Practical2-RockPaperScissors-Jason.sol\":6055:6073  game(user1, user2) */\n      jump\t// in\n    tag_175:\n      pop\n      pop\n        /* \"Practical2-RockPaperScissors-Jason.sol\":6101:6112  waitingPool */\n      0x05\n        /* \"Practical2-RockPaperScissors-Jason.sol\":6101:6119  waitingPool.length */\n      sload\n        /* \"Practical2-RockPaperScissors-Jason.sol\":6123:6124  0 */\n      0x00\n        /* \"Practical2-RockPaperScissors-Jason.sol\":6101:6124  waitingPool.length != 0 */\n      sub\n        /* \"Practical2-RockPaperScissors-Jason.sol\":5723:6126  do {... */\n      tag_141\n      jumpi\n        /* \"Practical2-RockPaperScissors-Jason.sol\":5667:6133  function choosePlayerPlay () private {... */\n      jump\t// out\n        /* \"Practical2-RockPaperScissors-Jason.sol\":6139:6828  function ChooseRandomUser () private returns (UserInfo memory){... */\n    tag_173:\n      0x40\n      dup1\n      mload\n      dup1\n      dup3\n      add\n      swap1\n      swap2\n      mstore\n      0x00\n      dup1\n      dup3\n      mstore\n      0x20\n      dup3\n      add\n      mstore\n        /* \"Practical2-RockPaperScissors-Jason.sol\":6219:6230  waitingPool */\n      0x05\n        /* \"Practical2-RockPaperScissors-Jason.sol\":6219:6237  waitingPool.length */\n      sload\n        /* \"Practical2-RockPaperScissors-Jason.sol\":6211:6260  require(waitingPool.length > 0, \"Array is empty\") */\n      tag_179\n      jumpi\n      mload(0x40)\n      shl(0xe5, 0x461bcd)\n      dup2\n      mstore\n        /* \"#utility.yul\":11723:11725   */\n      0x20\n        /* \"Practical2-RockPaperScissors-Jason.sol\":6211:6260  require(waitingPool.length > 0, \"Array is empty\") */\n      0x04\n      dup3\n      add\n        /* \"#utility.yul\":11705:11726   */\n      mstore\n        /* \"#utility.yul\":11762:11764   */\n      0x0e\n        /* \"#utility.yul\":11742:11760   */\n      0x24\n      dup3\n      add\n        /* \"#utility.yul\":11735:11765   */\n      mstore\n      shl(0x90, 0x417272617920697320656d707479)\n        /* \"#utility.yul\":11781:11799   */\n      0x44\n      dup3\n      add\n        /* \"#utility.yul\":11774:11818   */\n      mstore\n        /* \"#utility.yul\":11835:11853   */\n      0x64\n      add\n        /* \"Practical2-RockPaperScissors-Jason.sol\":6211:6260  require(waitingPool.length > 0, \"Array is empty\") */\n      tag_81\n        /* \"#utility.yul\":11521:11859   */\n      jump\n        /* \"Practical2-RockPaperScissors-Jason.sol\":6211:6260  require(waitingPool.length > 0, \"Array is empty\") */\n    tag_179:\n        /* \"Practical2-RockPaperScissors-Jason.sol\":6442:6453  waitingPool */\n      0x05\n        /* \"Practical2-RockPaperScissors-Jason.sol\":6442:6460  waitingPool.length */\n      sload\n        /* \"Practical2-RockPaperScissors-Jason.sol\":6432:6436  salt */\n      sload(0x04)\n        /* \"Practical2-RockPaperScissors-Jason.sol\":6380:6437  abi.encodePacked(block.difficulty, block.timestamp, salt) */\n      0x40\n      dup1\n      mload\n        /* \"Practical2-RockPaperScissors-Jason.sol\":6397:6413  block.difficulty */\n      prevrandao\n        /* \"Practical2-RockPaperScissors-Jason.sol\":6380:6437  abi.encodePacked(block.difficulty, block.timestamp, salt) */\n      0x20\n      dup3\n      add\n        /* \"#utility.yul\":12049:12068   */\n      mstore\n        /* \"Practical2-RockPaperScissors-Jason.sol\":6415:6430  block.timestamp */\n      timestamp\n        /* \"#utility.yul\":12084:12096   */\n      swap2\n      dup2\n      add\n        /* \"#utility.yul\":12077:12105   */\n      swap2\n      swap1\n      swap2\n      mstore\n        /* \"#utility.yul\":12121:12133   */\n      0x60\n      dup2\n      add\n        /* \"#utility.yul\":12114:12142   */\n      swap2\n      swap1\n      swap2\n      mstore\n        /* \"Practical2-RockPaperScissors-Jason.sol\":6340:6359  uint256 randomIndex */\n      0x00\n      swap2\n        /* \"Practical2-RockPaperScissors-Jason.sol\":6442:6460  waitingPool.length */\n      swap1\n        /* \"#utility.yul\":12158:12170   */\n      0x80\n      add\n        /* \"Practical2-RockPaperScissors-Jason.sol\":6380:6437  abi.encodePacked(block.difficulty, block.timestamp, salt) */\n      mload(0x40)\n      0x20\n      dup2\n      dup4\n      sub\n      sub\n      dup2\n      mstore\n      swap1\n      0x40\n      mstore\n        /* \"Practical2-RockPaperScissors-Jason.sol\":6370:6438  keccak256(abi.encodePacked(block.difficulty, block.timestamp, salt)) */\n      dup1\n      mload\n      swap1\n      0x20\n      add\n      keccak256\n        /* \"Practical2-RockPaperScissors-Jason.sol\":6362:6439  uint256(keccak256(abi.encodePacked(block.difficulty, block.timestamp, salt))) */\n      0x00\n      shr\n        /* \"Practical2-RockPaperScissors-Jason.sol\":6362:6460  uint256(keccak256(abi.encodePacked(block.difficulty, block.timestamp, salt))) % waitingPool.length */\n      tag_184\n      swap2\n      swap1\n      tag_79\n      jump\t// in\n    tag_184:\n        /* \"Practical2-RockPaperScissors-Jason.sol\":6470:6474  salt */\n      0x04\n        /* \"Practical2-RockPaperScissors-Jason.sol\":6470:6476  salt++ */\n      dup1\n      sload\n        /* \"Practical2-RockPaperScissors-Jason.sol\":6340:6460  uint256 randomIndex = uint256(keccak256(abi.encodePacked(block.difficulty, block.timestamp, salt))) % waitingPool.length */\n      swap2\n      swap3\n      pop\n        /* \"Practical2-RockPaperScissors-Jason.sol\":6470:6474  salt */\n      0x00\n        /* \"Practical2-RockPaperScissors-Jason.sol\":6470:6476  salt++ */\n      tag_185\n      dup4\n      tag_121\n      jump\t// in\n    tag_185:\n      swap2\n      swap1\n      pop\n      sstore\n      pop\n        /* \"Practical2-RockPaperScissors-Jason.sol\":6531:6557  UserInfo memory randomUser */\n      0x00\n        /* \"Practical2-RockPaperScissors-Jason.sol\":6560:6571  waitingPool */\n      0x05\n        /* \"Practical2-RockPaperScissors-Jason.sol\":6572:6583  randomIndex */\n      dup3\n        /* \"Practical2-RockPaperScissors-Jason.sol\":6560:6584  waitingPool[randomIndex] */\n      dup2\n      sload\n      dup2\n      lt\n      tag_187\n      jumpi\n      tag_187\n      tag_112\n      jump\t// in\n    tag_187:\n      0x00\n      swap2\n      dup3\n      mstore\n      0x20\n      swap2\n      dup3\n      swap1\n      keccak256\n        /* \"Practical2-RockPaperScissors-Jason.sol\":6531:6584  UserInfo memory randomUser = waitingPool[randomIndex] */\n      0x40\n      dup1\n      mload\n      dup1\n      dup3\n      add\n      swap1\n      swap2\n      mstore\n        /* \"Practical2-RockPaperScissors-Jason.sol\":6560:6584  waitingPool[randomIndex] */\n      0x02\n      swap1\n      swap3\n      mul\n      add\n        /* \"Practical2-RockPaperScissors-Jason.sol\":6531:6584  UserInfo memory randomUser = waitingPool[randomIndex] */\n      dup1\n      sload\n      sub(shl(0xa0, 0x01), 0x01)\n      and\n      dup3\n      mstore\n      0x01\n      swap1\n      dup2\n      add\n      sload\n      swap3\n      dup3\n      add\n      swap3\n      swap1\n      swap3\n      mstore\n        /* \"Practical2-RockPaperScissors-Jason.sol\":6731:6742  waitingPool */\n      0x05\n        /* \"Practical2-RockPaperScissors-Jason.sol\":6743:6761  waitingPool.length */\n      dup1\n      sload\n        /* \"Practical2-RockPaperScissors-Jason.sol\":6531:6584  UserInfo memory randomUser = waitingPool[randomIndex] */\n      swap2\n      swap4\n      pop\n        /* \"Practical2-RockPaperScissors-Jason.sol\":6731:6742  waitingPool */\n      swap2\n        /* \"Practical2-RockPaperScissors-Jason.sol\":6743:6765  waitingPool.length - 1 */\n      tag_189\n      swap2\n      tag_126\n      jump\t// in\n    tag_189:\n        /* \"Practical2-RockPaperScissors-Jason.sol\":6731:6766  waitingPool[waitingPool.length - 1] */\n      dup2\n      sload\n      dup2\n      lt\n      tag_191\n      jumpi\n      tag_191\n      tag_112\n      jump\t// in\n    tag_191:\n      swap1\n      0x00\n      mstore\n      keccak256(0x00, 0x20)\n      swap1\n      0x02\n      mul\n      add\n        /* \"Practical2-RockPaperScissors-Jason.sol\":6704:6715  waitingPool */\n      0x05\n        /* \"Practical2-RockPaperScissors-Jason.sol\":6716:6727  randomIndex */\n      dup4\n        /* \"Practical2-RockPaperScissors-Jason.sol\":6704:6728  waitingPool[randomIndex] */\n      dup2\n      sload\n      dup2\n      lt\n      tag_194\n      jumpi\n      tag_194\n      tag_112\n      jump\t// in\n    tag_194:\n      0x00\n      swap2\n      dup3\n      mstore\n      0x20\n      swap1\n      swap2\n      keccak256\n        /* \"Practical2-RockPaperScissors-Jason.sol\":6704:6766  waitingPool[randomIndex] = waitingPool[waitingPool.length - 1] */\n      dup3\n      sload\n        /* \"Practical2-RockPaperScissors-Jason.sol\":6704:6728  waitingPool[randomIndex] */\n      0x02\n      swap1\n      swap3\n      mul\n      add\n        /* \"Practical2-RockPaperScissors-Jason.sol\":6704:6766  waitingPool[randomIndex] = waitingPool[waitingPool.length - 1] */\n      dup1\n      sload\n      not(sub(shl(0xa0, 0x01), 0x01))\n      and\n      sub(shl(0xa0, 0x01), 0x01)\n      swap1\n      swap3\n      and\n      swap2\n      swap1\n      swap2\n      or\n      dup2\n      sstore\n      0x01\n      swap2\n      dup3\n      add\n      sload\n      swap2\n      add\n      sstore\n        /* \"Practical2-RockPaperScissors-Jason.sol\":6776:6787  waitingPool */\n      0x05\n        /* \"Practical2-RockPaperScissors-Jason.sol\":6776:6793  waitingPool.pop() */\n      dup1\n      sload\n      dup1\n      tag_197\n      jumpi\n      tag_197\n      tag_198\n      jump\t// in\n    tag_197:\n      0x00\n      dup3\n      dup2\n      mstore\n      0x20\n      dup2\n      keccak256\n      0x02\n      not(0x00)\n      swap1\n      swap4\n      add\n      swap3\n      dup4\n      mul\n      add\n      dup1\n      sload\n      not(sub(shl(0xa0, 0x01), 0x01))\n      and\n      dup2\n      sstore\n      0x01\n      add\n      sstore\n      swap1\n      sstore\n        /* \"Practical2-RockPaperScissors-Jason.sol\":6811:6821  randomUser */\n      swap3\n        /* \"Practical2-RockPaperScissors-Jason.sol\":6139:6828  function ChooseRandomUser () private returns (UserInfo memory){... */\n      swap2\n      pop\n      pop\n      jump\t// out\n        /* \"Practical2-RockPaperScissors-Jason.sol\":6834:8590  function game (UserInfo memory userOne, UserInfo memory userTwo) private {... */\n    tag_176:\n        /* \"Practical2-RockPaperScissors-Jason.sol\":6975:6999  GameInfo memory gameinfo */\n      tag_201\n      tag_152\n      jump\t// in\n    tag_201:\n        /* \"Practical2-RockPaperScissors-Jason.sol\":7009:7020  gameHistory */\n      0x02\n        /* \"Practical2-RockPaperScissors-Jason.sol\":7009:7035  gameHistory.push(gameinfo) */\n      dup1\n      sload\n      0x01\n      dup2\n      add\n      dup3\n      sstore\n      0x00\n      swap2\n      swap1\n      swap2\n      mstore\n      dup2\n      mload\n      dup1\n      mload\n      0x405787fa12a823e0f2b7631cc41b3ba8828b3321ca811111fa75cd3aa3bb5ace\n      0x05\n      swap1\n      swap4\n      mul\n      swap3\n      dup4\n      add\n      dup1\n      sload\n      not(sub(shl(0xa0, 0x01), 0x01))\n      swap1\n      dup2\n      and\n      sub(shl(0xa0, 0x01), 0x01)\n      swap4\n      dup5\n      and\n      or\n      dup3\n      sstore\n      0x20\n      swap4\n      dup5\n      add\n      mload\n      0x405787fa12a823e0f2b7631cc41b3ba8828b3321ca811111fa75cd3aa3bb5acf\n      dup7\n      add\n      sstore\n      dup4\n      dup7\n      add\n      mload\n      dup1\n      mload\n      0x405787fa12a823e0f2b7631cc41b3ba8828b3321ca811111fa75cd3aa3bb5ad0\n      dup8\n      add\n      dup1\n      sload\n      swap1\n      swap4\n      and\n      swap5\n      and\n      swap4\n      swap1\n      swap4\n      or\n      swap1\n      sstore\n      swap2\n      add\n      mload\n      0x405787fa12a823e0f2b7631cc41b3ba8828b3321ca811111fa75cd3aa3bb5ad1\n      dup4\n      add\n      sstore\n      0x40\n      dup4\n      add\n      mload\n      dup4\n      swap3\n      0x405787fa12a823e0f2b7631cc41b3ba8828b3321ca811111fa75cd3aa3bb5ad2\n      add\n      swap1\n      tag_203\n      swap1\n      dup3\n      tag_204\n      jump\t// in\n    tag_203:\n      pop\n      pop\n        /* \"Practical2-RockPaperScissors-Jason.sol\":7100:7111  gameHistory */\n      0x02\n        /* \"Practical2-RockPaperScissors-Jason.sol\":7112:7130  gameHistory.length */\n      dup1\n      sload\n        /* \"Practical2-RockPaperScissors-Jason.sol\":7144:7151  userOne */\n      dup6\n      swap3\n      pop\n        /* \"Practical2-RockPaperScissors-Jason.sol\":7112:7134  gameHistory.length - 1 */\n      tag_205\n      swap1\n        /* \"Practical2-RockPaperScissors-Jason.sol\":7133:7134  1 */\n      0x01\n      swap1\n        /* \"Practical2-RockPaperScissors-Jason.sol\":7112:7134  gameHistory.length - 1 */\n      tag_126\n      jump\t// in\n    tag_205:\n        /* \"Practical2-RockPaperScissors-Jason.sol\":7100:7135  gameHistory[gameHistory.length - 1] */\n      dup2\n      sload\n      dup2\n      lt\n      tag_207\n      jumpi\n      tag_207\n      tag_112\n      jump\t// in\n    tag_207:\n      0x00\n      swap2\n      dup3\n      mstore\n      0x20\n      swap2\n      dup3\n      swap1\n      keccak256\n        /* \"Practical2-RockPaperScissors-Jason.sol\":7100:7151  gameHistory[gameHistory.length - 1].user1 = userOne */\n      dup4\n      mload\n        /* \"Practical2-RockPaperScissors-Jason.sol\":7100:7135  gameHistory[gameHistory.length - 1] */\n      0x05\n      swap3\n      swap1\n      swap3\n      mul\n      add\n        /* \"Practical2-RockPaperScissors-Jason.sol\":7100:7151  gameHistory[gameHistory.length - 1].user1 = userOne */\n      dup1\n      sload\n      not(sub(shl(0xa0, 0x01), 0x01))\n      and\n      sub(shl(0xa0, 0x01), 0x01)\n      swap1\n      swap3\n      and\n      swap2\n      swap1\n      swap2\n      or\n      dup2\n      sstore\n      swap2\n      add\n      mload\n      0x01\n      swap2\n      dup3\n      add\n      sstore\n        /* \"Practical2-RockPaperScissors-Jason.sol\":7161:7172  gameHistory */\n      0x02\n        /* \"Practical2-RockPaperScissors-Jason.sol\":7173:7191  gameHistory.length */\n      dup1\n      sload\n        /* \"Practical2-RockPaperScissors-Jason.sol\":7205:7212  userTwo */\n      dup5\n      swap3\n        /* \"Practical2-RockPaperScissors-Jason.sol\":7173:7195  gameHistory.length - 1 */\n      tag_209\n      swap2\n      tag_126\n      jump\t// in\n    tag_209:\n        /* \"Practical2-RockPaperScissors-Jason.sol\":7161:7196  gameHistory[gameHistory.length - 1] */\n      dup2\n      sload\n      dup2\n      lt\n      tag_211\n      jumpi\n      tag_211\n      tag_112\n      jump\t// in\n    tag_211:\n      0x00\n      swap2\n      dup3\n      mstore\n      0x20\n      swap2\n      dup3\n      swap1\n      keccak256\n        /* \"Practical2-RockPaperScissors-Jason.sol\":7161:7212  gameHistory[gameHistory.length - 1].user2 = userTwo */\n      dup4\n      mload\n        /* \"Practical2-RockPaperScissors-Jason.sol\":7161:7196  gameHistory[gameHistory.length - 1] */\n      0x05\n      swap3\n      swap1\n      swap3\n      mul\n      add\n        /* \"Practical2-RockPaperScissors-Jason.sol\":7161:7202  gameHistory[gameHistory.length - 1].user2 */\n      0x02\n      dup2\n      dup2\n      add\n        /* \"Practical2-RockPaperScissors-Jason.sol\":7161:7212  gameHistory[gameHistory.length - 1].user2 = userTwo */\n      dup1\n      sload\n      not(sub(shl(0xa0, 0x01), 0x01))\n      and\n      sub(shl(0xa0, 0x01), 0x01)\n      swap1\n      swap5\n      and\n      swap4\n      swap1\n      swap4\n      or\n      swap1\n      swap3\n      sstore\n      swap3\n      swap1\n      swap2\n      add\n      mload\n      0x03\n      swap1\n      swap3\n      add\n      swap2\n      swap1\n      swap2\n      sstore\n        /* \"Practical2-RockPaperScissors-Jason.sol\":7440:7458  gameHistory.length */\n      dup1\n      sload\n        /* \"Practical2-RockPaperScissors-Jason.sol\":7440:7462  gameHistory.length - 1 */\n      tag_213\n      swap1\n      0x01\n      swap1\n      tag_126\n      jump\t// in\n    tag_213:\n        /* \"Practical2-RockPaperScissors-Jason.sol\":7428:7463  gameHistory[gameHistory.length - 1] */\n      dup2\n      sload\n      dup2\n      lt\n      tag_215\n      jumpi\n      tag_215\n      tag_112\n      jump\t// in\n    tag_215:\n      0x00\n      swap2\n      dup3\n      mstore\n      0x20\n      swap1\n      swap2\n      keccak256\n        /* \"Practical2-RockPaperScissors-Jason.sol\":7428:7480  gameHistory[gameHistory.length - 1].user2.userOption */\n      0x03\n        /* \"Practical2-RockPaperScissors-Jason.sol\":7428:7463  gameHistory[gameHistory.length - 1] */\n      0x05\n      swap1\n      swap3\n      mul\n      add\n        /* \"Practical2-RockPaperScissors-Jason.sol\":7428:7480  gameHistory[gameHistory.length - 1].user2.userOption */\n      add\n      sload\n        /* \"Practical2-RockPaperScissors-Jason.sol\":7428:7469  gameHistory[gameHistory.length - 1].user2 */\n      0x02\n        /* \"Practical2-RockPaperScissors-Jason.sol\":7384:7402  gameHistory.length */\n      dup1\n      sload\n        /* \"Practical2-RockPaperScissors-Jason.sol\":7384:7406  gameHistory.length - 1 */\n      tag_217\n      swap1\n        /* \"Practical2-RockPaperScissors-Jason.sol\":7428:7480  gameHistory[gameHistory.length - 1].user2.userOption */\n      0x01\n      swap1\n        /* \"Practical2-RockPaperScissors-Jason.sol\":7384:7406  gameHistory.length - 1 */\n      tag_126\n      jump\t// in\n    tag_217:\n        /* \"Practical2-RockPaperScissors-Jason.sol\":7372:7407  gameHistory[gameHistory.length - 1] */\n      dup2\n      sload\n      dup2\n      lt\n      tag_219\n      jumpi\n      tag_219\n      tag_112\n      jump\t// in\n    tag_219:\n      swap1\n      0x00\n      mstore\n      keccak256(0x00, 0x20)\n      swap1\n      0x05\n      mul\n      add\n        /* \"Practical2-RockPaperScissors-Jason.sol\":7372:7413  gameHistory[gameHistory.length - 1].user1 */\n      0x00\n      add\n        /* \"Practical2-RockPaperScissors-Jason.sol\":7372:7424  gameHistory[gameHistory.length - 1].user1.userOption */\n      0x01\n      add\n      sload\n        /* \"Practical2-RockPaperScissors-Jason.sol\":7372:7480  gameHistory[gameHistory.length - 1].user1.userOption == gameHistory[gameHistory.length - 1].user2.userOption */\n      sub\n        /* \"Practical2-RockPaperScissors-Jason.sol\":7368:8584  if (gameHistory[gameHistory.length - 1].user1.userOption == gameHistory[gameHistory.length - 1].user2.userOption) {... */\n      tag_221\n      jumpi\n        /* \"Practical2-RockPaperScissors-Jason.sol\":7496:7552  gameHistory[gameHistory.length - 1].finalResult = \"Tied\" */\n      0x40\n      dup1\n      mload\n      dup1\n      dup3\n      add\n      swap1\n      swap2\n      mstore\n      0x04\n      dup2\n      mstore\n      shl(0xe2, 0x151a5959)\n      0x20\n      dup3\n      add\n      mstore\n        /* \"Practical2-RockPaperScissors-Jason.sol\":7496:7507  gameHistory */\n      0x02\n        /* \"Practical2-RockPaperScissors-Jason.sol\":7508:7526  gameHistory.length */\n      dup1\n      sload\n        /* \"Practical2-RockPaperScissors-Jason.sol\":7508:7530  gameHistory.length - 1 */\n      tag_222\n      swap1\n        /* \"Practical2-RockPaperScissors-Jason.sol\":7529:7530  1 */\n      0x01\n      swap1\n        /* \"Practical2-RockPaperScissors-Jason.sol\":7508:7530  gameHistory.length - 1 */\n      tag_126\n      jump\t// in\n    tag_222:\n        /* \"Practical2-RockPaperScissors-Jason.sol\":7496:7531  gameHistory[gameHistory.length - 1] */\n      dup2\n      sload\n      dup2\n      lt\n      tag_224\n      jumpi\n      tag_224\n      tag_112\n      jump\t// in\n    tag_224:\n      swap1\n      0x00\n      mstore\n      keccak256(0x00, 0x20)\n      swap1\n      0x05\n      mul\n      add\n        /* \"Practical2-RockPaperScissors-Jason.sol\":7496:7543  gameHistory[gameHistory.length - 1].finalResult */\n      0x04\n      add\n        /* \"Practical2-RockPaperScissors-Jason.sol\":7496:7552  gameHistory[gameHistory.length - 1].finalResult = \"Tied\" */\n      swap1\n      dup2\n      tag_226\n      swap2\n      swap1\n      tag_204\n      jump\t// in\n    tag_226:\n      pop\n        /* \"Practical2-RockPaperScissors-Jason.sol\":7588:7599  gameHistory */\n      0x02\n        /* \"Practical2-RockPaperScissors-Jason.sol\":7600:7618  gameHistory.length */\n      dup1\n      sload\n        /* \"Practical2-RockPaperScissors-Jason.sol\":7566:7582  latestGameResult */\n      0x07\n      swap2\n        /* \"Practical2-RockPaperScissors-Jason.sol\":7588:7599  gameHistory */\n      swap1\n        /* \"Practical2-RockPaperScissors-Jason.sol\":7600:7622  gameHistory.length - 1 */\n      tag_227\n      swap1\n        /* \"Practical2-RockPaperScissors-Jason.sol\":7621:7622  1 */\n      0x01\n      swap1\n        /* \"Practical2-RockPaperScissors-Jason.sol\":7600:7622  gameHistory.length - 1 */\n      tag_126\n      jump\t// in\n    tag_227:\n        /* \"Practical2-RockPaperScissors-Jason.sol\":7588:7623  gameHistory[gameHistory.length - 1] */\n      dup2\n      sload\n      dup2\n      lt\n      tag_229\n      jumpi\n      tag_229\n      tag_112\n      jump\t// in\n    tag_229:\n      0x00\n      swap2\n      dup3\n      mstore\n      0x20\n      dup1\n      dup4\n      keccak256\n        /* \"Practical2-RockPaperScissors-Jason.sol\":7566:7624  latestGameResult.push(gameHistory[gameHistory.length - 1]) */\n      dup5\n      sload\n      0x01\n      dup2\n      dup2\n      add\n      dup8\n      sstore\n      swap6\n      dup6\n      mstore\n      swap2\n      swap1\n      swap4\n      keccak256\n        /* \"Practical2-RockPaperScissors-Jason.sol\":7588:7623  gameHistory[gameHistory.length - 1] */\n      0x05\n      swap3\n      dup4\n      mul\n      swap1\n      swap4\n      add\n        /* \"Practical2-RockPaperScissors-Jason.sol\":7566:7624  latestGameResult.push(gameHistory[gameHistory.length - 1]) */\n      dup1\n      sload\n      swap2\n      swap1\n      swap3\n      mul\n      swap1\n      swap3\n      add\n      dup1\n      sload\n      not(sub(shl(0xa0, 0x01), 0x01))\n      swap1\n      dup2\n      and\n      sub(shl(0xa0, 0x01), 0x01)\n      swap5\n      dup6\n      and\n      or\n      dup3\n      sstore\n      dup5\n      dup4\n      add\n      sload\n      swap5\n      dup3\n      add\n      swap5\n      swap1\n      swap5\n      sstore\n      0x02\n      dup1\n      dup4\n      add\n      sload\n      swap1\n      dup3\n      add\n      dup1\n      sload\n      swap1\n      swap6\n      and\n      swap4\n      and\n      swap3\n      swap1\n      swap3\n      or\n      swap1\n      swap3\n      sstore\n      0x03\n      dup1\n      dup4\n      add\n      sload\n      swap1\n      dup3\n      add\n      sstore\n      0x04\n      dup1\n      dup3\n      add\n      swap1\n      tag_232\n      swap1\n      dup5\n      add\n      dup3\n      tag_233\n      jump\t// in\n    tag_232:\n      pop\n      pop\n      pop\n        /* \"Practical2-RockPaperScissors-Jason.sol\":7643:7661  showResult(\"Tied\") */\n      0xcde5c32c0a45fd8aa4b65ea8003fc9da9acd5e2c6c24a9fcce6ab79cabbd9122\n      mload(0x40)\n      tag_234\n      swap1\n        /* \"#utility.yul\":16194:16196   */\n      0x20\n        /* \"#utility.yul\":16176:16197   */\n      dup1\n      dup3\n      mstore\n        /* \"#utility.yul\":16233:16234   */\n      0x04\n        /* \"#utility.yul\":16213:16231   */\n      swap1\n      dup3\n      add\n        /* \"#utility.yul\":16206:16235   */\n      mstore\n      shl(0xe2, 0x151a5959)\n        /* \"#utility.yul\":16266:16268   */\n      0x40\n        /* \"#utility.yul\":16251:16269   */\n      dup3\n      add\n        /* \"#utility.yul\":16244:16278   */\n      mstore\n        /* \"#utility.yul\":16310:16312   */\n      0x60\n        /* \"#utility.yul\":16295:16313   */\n      add\n      swap1\n        /* \"#utility.yul\":15992:16319   */\n      jump\n        /* \"Practical2-RockPaperScissors-Jason.sol\":7643:7661  showResult(\"Tied\") */\n    tag_234:\n      mload(0x40)\n      dup1\n      swap2\n      sub\n      swap1\n      log1\n        /* \"Practical2-RockPaperScissors-Jason.sol\":6907:8590  {... */\n      pop\n        /* \"Practical2-RockPaperScissors-Jason.sol\":6834:8590  function game (UserInfo memory userOne, UserInfo memory userTwo) private {... */\n      pop\n      pop\n      jump\t// out\n        /* \"Practical2-RockPaperScissors-Jason.sol\":7368:8584  if (gameHistory[gameHistory.length - 1].user1.userOption == gameHistory[gameHistory.length - 1].user2.userOption) {... */\n    tag_221:\n        /* \"Practical2-RockPaperScissors-Jason.sol\":7722:7733  gameHistory */\n      0x02\n        /* \"Practical2-RockPaperScissors-Jason.sol\":7734:7752  gameHistory.length */\n      dup1\n      sload\n        /* \"Practical2-RockPaperScissors-Jason.sol\":7734:7756  gameHistory.length - 1 */\n      tag_237\n      swap1\n        /* \"Practical2-RockPaperScissors-Jason.sol\":7755:7756  1 */\n      0x01\n      swap1\n        /* \"Practical2-RockPaperScissors-Jason.sol\":7734:7756  gameHistory.length - 1 */\n      tag_126\n      jump\t// in\n    tag_237:\n        /* \"Practical2-RockPaperScissors-Jason.sol\":7722:7757  gameHistory[gameHistory.length - 1] */\n      dup2\n      sload\n      dup2\n      lt\n      tag_239\n      jumpi\n      tag_239\n      tag_112\n      jump\t// in\n    tag_239:\n      swap1\n      0x00\n      mstore\n      keccak256(0x00, 0x20)\n      swap1\n      0x05\n      mul\n      add\n        /* \"Practical2-RockPaperScissors-Jason.sol\":7722:7763  gameHistory[gameHistory.length - 1].user1 */\n      0x00\n      add\n        /* \"Practical2-RockPaperScissors-Jason.sol\":7722:7774  gameHistory[gameHistory.length - 1].user1.userOption */\n      0x01\n      add\n      sload\n        /* \"Practical2-RockPaperScissors-Jason.sol\":7778:7779  1 */\n      0x01\n        /* \"Practical2-RockPaperScissors-Jason.sol\":7722:7779  gameHistory[gameHistory.length - 1].user1.userOption == 1 */\n      eq\n        /* \"Practical2-RockPaperScissors-Jason.sol\":7722:7840  gameHistory[gameHistory.length - 1].user1.userOption == 1 && gameHistory[gameHistory.length - 1].user2.userOption == 2 */\n      dup1\n      iszero\n      tag_241\n      jumpi\n      pop\n        /* \"Practical2-RockPaperScissors-Jason.sol\":7783:7794  gameHistory */\n      0x02\n        /* \"Practical2-RockPaperScissors-Jason.sol\":7795:7813  gameHistory.length */\n      dup1\n      sload\n        /* \"Practical2-RockPaperScissors-Jason.sol\":7795:7817  gameHistory.length - 1 */\n      tag_242\n      swap1\n        /* \"Practical2-RockPaperScissors-Jason.sol\":7816:7817  1 */\n      0x01\n      swap1\n        /* \"Practical2-RockPaperScissors-Jason.sol\":7795:7817  gameHistory.length - 1 */\n      tag_126\n      jump\t// in\n    tag_242:\n        /* \"Practical2-RockPaperScissors-Jason.sol\":7783:7818  gameHistory[gameHistory.length - 1] */\n      dup2\n      sload\n      dup2\n      lt\n      tag_244\n      jumpi\n      tag_244\n      tag_112\n      jump\t// in\n    tag_244:\n      swap1\n      0x00\n      mstore\n      keccak256(0x00, 0x20)\n      swap1\n      0x05\n      mul\n      add\n        /* \"Practical2-RockPaperScissors-Jason.sol\":7783:7824  gameHistory[gameHistory.length - 1].user2 */\n      0x02\n      add\n        /* \"Practical2-RockPaperScissors-Jason.sol\":7783:7835  gameHistory[gameHistory.length - 1].user2.userOption */\n      0x01\n      add\n      sload\n        /* \"Practical2-RockPaperScissors-Jason.sol\":7839:7840  2 */\n      0x02\n        /* \"Practical2-RockPaperScissors-Jason.sol\":7783:7840  gameHistory[gameHistory.length - 1].user2.userOption == 2 */\n      eq\n        /* \"Practical2-RockPaperScissors-Jason.sol\":7722:7840  gameHistory[gameHistory.length - 1].user1.userOption == 1 && gameHistory[gameHistory.length - 1].user2.userOption == 2 */\n    tag_241:\n        /* \"Practical2-RockPaperScissors-Jason.sol\":7721:7981  (gameHistory[gameHistory.length - 1].user1.userOption == 1 && gameHistory[gameHistory.length - 1].user2.userOption == 2) ||... */\n      dup1\n      tag_251\n      jumpi\n      pop\n        /* \"Practical2-RockPaperScissors-Jason.sol\":7862:7873  gameHistory */\n      0x02\n        /* \"Practical2-RockPaperScissors-Jason.sol\":7874:7892  gameHistory.length */\n      dup1\n      sload\n        /* \"Practical2-RockPaperScissors-Jason.sol\":7874:7896  gameHistory.length - 1 */\n      tag_247\n      swap1\n        /* \"Practical2-RockPaperScissors-Jason.sol\":7895:7896  1 */\n      0x01\n      swap1\n        /* \"Practical2-RockPaperScissors-Jason.sol\":7874:7896  gameHistory.length - 1 */\n      tag_126\n      jump\t// in\n    tag_247:\n        /* \"Practical2-RockPaperScissors-Jason.sol\":7862:7897  gameHistory[gameHistory.length - 1] */\n      dup2\n      sload\n      dup2\n      lt\n      tag_249\n      jumpi\n      tag_249\n      tag_112\n      jump\t// in\n    tag_249:\n      swap1\n      0x00\n      mstore\n      keccak256(0x00, 0x20)\n      swap1\n      0x05\n      mul\n      add\n        /* \"Practical2-RockPaperScissors-Jason.sol\":7862:7903  gameHistory[gameHistory.length - 1].user1 */\n      0x00\n      add\n        /* \"Practical2-RockPaperScissors-Jason.sol\":7862:7914  gameHistory[gameHistory.length - 1].user1.userOption */\n      0x01\n      add\n      sload\n        /* \"Practical2-RockPaperScissors-Jason.sol\":7918:7919  3 */\n      0x03\n        /* \"Practical2-RockPaperScissors-Jason.sol\":7862:7919  gameHistory[gameHistory.length - 1].user1.userOption == 3 */\n      eq\n        /* \"Practical2-RockPaperScissors-Jason.sol\":7862:7980  gameHistory[gameHistory.length - 1].user1.userOption == 3 && gameHistory[gameHistory.length - 1].user2.userOption == 1 */\n      dup1\n      iszero\n      tag_251\n      jumpi\n      pop\n        /* \"Practical2-RockPaperScissors-Jason.sol\":7923:7934  gameHistory */\n      0x02\n        /* \"Practical2-RockPaperScissors-Jason.sol\":7935:7953  gameHistory.length */\n      dup1\n      sload\n        /* \"Practical2-RockPaperScissors-Jason.sol\":7935:7957  gameHistory.length - 1 */\n      tag_252\n      swap1\n        /* \"Practical2-RockPaperScissors-Jason.sol\":7956:7957  1 */\n      0x01\n      swap1\n        /* \"Practical2-RockPaperScissors-Jason.sol\":7935:7957  gameHistory.length - 1 */\n      tag_126\n      jump\t// in\n    tag_252:\n        /* \"Practical2-RockPaperScissors-Jason.sol\":7923:7958  gameHistory[gameHistory.length - 1] */\n      dup2\n      sload\n      dup2\n      lt\n      tag_254\n      jumpi\n      tag_254\n      tag_112\n      jump\t// in\n    tag_254:\n      swap1\n      0x00\n      mstore\n      keccak256(0x00, 0x20)\n      swap1\n      0x05\n      mul\n      add\n        /* \"Practical2-RockPaperScissors-Jason.sol\":7923:7964  gameHistory[gameHistory.length - 1].user2 */\n      0x02\n      add\n        /* \"Practical2-RockPaperScissors-Jason.sol\":7923:7975  gameHistory[gameHistory.length - 1].user2.userOption */\n      0x01\n      add\n      sload\n        /* \"Practical2-RockPaperScissors-Jason.sol\":7979:7980  1 */\n      0x01\n        /* \"Practical2-RockPaperScissors-Jason.sol\":7923:7980  gameHistory[gameHistory.length - 1].user2.userOption == 1 */\n      eq\n        /* \"Practical2-RockPaperScissors-Jason.sol\":7862:7980  gameHistory[gameHistory.length - 1].user1.userOption == 3 && gameHistory[gameHistory.length - 1].user2.userOption == 1 */\n    tag_251:\n        /* \"Practical2-RockPaperScissors-Jason.sol\":7721:8121  (gameHistory[gameHistory.length - 1].user1.userOption == 1 && gameHistory[gameHistory.length - 1].user2.userOption == 2) ||... */\n      dup1\n      tag_261\n      jumpi\n      pop\n        /* \"Practical2-RockPaperScissors-Jason.sol\":8002:8013  gameHistory */\n      0x02\n        /* \"Practical2-RockPaperScissors-Jason.sol\":8014:8032  gameHistory.length */\n      dup1\n      sload\n        /* \"Practical2-RockPaperScissors-Jason.sol\":8014:8036  gameHistory.length - 1 */\n      tag_257\n      swap1\n        /* \"Practical2-RockPaperScissors-Jason.sol\":8035:8036  1 */\n      0x01\n      swap1\n        /* \"Practical2-RockPaperScissors-Jason.sol\":8014:8036  gameHistory.length - 1 */\n      tag_126\n      jump\t// in\n    tag_257:\n        /* \"Practical2-RockPaperScissors-Jason.sol\":8002:8037  gameHistory[gameHistory.length - 1] */\n      dup2\n      sload\n      dup2\n      lt\n      tag_259\n      jumpi\n      tag_259\n      tag_112\n      jump\t// in\n    tag_259:\n      swap1\n      0x00\n      mstore\n      keccak256(0x00, 0x20)\n      swap1\n      0x05\n      mul\n      add\n        /* \"Practical2-RockPaperScissors-Jason.sol\":8002:8043  gameHistory[gameHistory.length - 1].user1 */\n      0x00\n      add\n        /* \"Practical2-RockPaperScissors-Jason.sol\":8002:8054  gameHistory[gameHistory.length - 1].user1.userOption */\n      0x01\n      add\n      sload\n        /* \"Practical2-RockPaperScissors-Jason.sol\":8058:8059  2 */\n      0x02\n        /* \"Practical2-RockPaperScissors-Jason.sol\":8002:8059  gameHistory[gameHistory.length - 1].user1.userOption == 2 */\n      eq\n        /* \"Practical2-RockPaperScissors-Jason.sol\":8002:8120  gameHistory[gameHistory.length - 1].user1.userOption == 2 && gameHistory[gameHistory.length - 1].user2.userOption == 3 */\n      dup1\n      iszero\n      tag_261\n      jumpi\n      pop\n        /* \"Practical2-RockPaperScissors-Jason.sol\":8063:8074  gameHistory */\n      0x02\n        /* \"Practical2-RockPaperScissors-Jason.sol\":8075:8093  gameHistory.length */\n      dup1\n      sload\n        /* \"Practical2-RockPaperScissors-Jason.sol\":8075:8097  gameHistory.length - 1 */\n      tag_262\n      swap1\n        /* \"Practical2-RockPaperScissors-Jason.sol\":8096:8097  1 */\n      0x01\n      swap1\n        /* \"Practical2-RockPaperScissors-Jason.sol\":8075:8097  gameHistory.length - 1 */\n      tag_126\n      jump\t// in\n    tag_262:\n        /* \"Practical2-RockPaperScissors-Jason.sol\":8063:8098  gameHistory[gameHistory.length - 1] */\n      dup2\n      sload\n      dup2\n      lt\n      tag_264\n      jumpi\n      tag_264\n      tag_112\n      jump\t// in\n    tag_264:\n      swap1\n      0x00\n      mstore\n      keccak256(0x00, 0x20)\n      swap1\n      0x05\n      mul\n      add\n        /* \"Practical2-RockPaperScissors-Jason.sol\":8063:8104  gameHistory[gameHistory.length - 1].user2 */\n      0x02\n      add\n        /* \"Practical2-RockPaperScissors-Jason.sol\":8063:8115  gameHistory[gameHistory.length - 1].user2.userOption */\n      0x01\n      add\n      sload\n        /* \"Practical2-RockPaperScissors-Jason.sol\":8119:8120  3 */\n      0x03\n        /* \"Practical2-RockPaperScissors-Jason.sol\":8063:8120  gameHistory[gameHistory.length - 1].user2.userOption == 3 */\n      eq\n        /* \"Practical2-RockPaperScissors-Jason.sol\":8002:8120  gameHistory[gameHistory.length - 1].user1.userOption == 2 && gameHistory[gameHistory.length - 1].user2.userOption == 3 */\n    tag_261:\n        /* \"Practical2-RockPaperScissors-Jason.sol\":7700:8574  if (... */\n      iszero\n      tag_266\n      jumpi\n        /* \"Practical2-RockPaperScissors-Jason.sol\":8154:8215  gameHistory[gameHistory.length - 1].finalResult = \"User2 win\" */\n      0x40\n      dup1\n      mload\n      dup1\n      dup3\n      add\n      swap1\n      swap2\n      mstore\n      0x09\n      dup2\n      mstore\n      shl(0xb9, 0x2ab9b2b919103bb4b7)\n      0x20\n      dup3\n      add\n      mstore\n        /* \"Practical2-RockPaperScissors-Jason.sol\":8154:8165  gameHistory */\n      0x02\n        /* \"Practical2-RockPaperScissors-Jason.sol\":8166:8184  gameHistory.length */\n      dup1\n      sload\n        /* \"Practical2-RockPaperScissors-Jason.sol\":8166:8188  gameHistory.length - 1 */\n      tag_267\n      swap1\n        /* \"Practical2-RockPaperScissors-Jason.sol\":8187:8188  1 */\n      0x01\n      swap1\n        /* \"Practical2-RockPaperScissors-Jason.sol\":8166:8188  gameHistory.length - 1 */\n      tag_126\n      jump\t// in\n    tag_267:\n        /* \"Practical2-RockPaperScissors-Jason.sol\":8154:8189  gameHistory[gameHistory.length - 1] */\n      dup2\n      sload\n      dup2\n      lt\n      tag_269\n      jumpi\n      tag_269\n      tag_112\n      jump\t// in\n    tag_269:\n      swap1\n      0x00\n      mstore\n      keccak256(0x00, 0x20)\n      swap1\n      0x05\n      mul\n      add\n        /* \"Practical2-RockPaperScissors-Jason.sol\":8154:8201  gameHistory[gameHistory.length - 1].finalResult */\n      0x04\n      add\n        /* \"Practical2-RockPaperScissors-Jason.sol\":8154:8215  gameHistory[gameHistory.length - 1].finalResult = \"User2 win\" */\n      swap1\n      dup2\n      tag_271\n      swap2\n      swap1\n      tag_204\n      jump\t// in\n    tag_271:\n      pop\n        /* \"Practical2-RockPaperScissors-Jason.sol\":8255:8266  gameHistory */\n      0x02\n        /* \"Practical2-RockPaperScissors-Jason.sol\":8267:8285  gameHistory.length */\n      dup1\n      sload\n        /* \"Practical2-RockPaperScissors-Jason.sol\":8233:8249  latestGameResult */\n      0x07\n      swap2\n        /* \"Practical2-RockPaperScissors-Jason.sol\":8255:8266  gameHistory */\n      swap1\n        /* \"Practical2-RockPaperScissors-Jason.sol\":8267:8289  gameHistory.length - 1 */\n      tag_272\n      swap1\n        /* \"Practical2-RockPaperScissors-Jason.sol\":8288:8289  1 */\n      0x01\n      swap1\n        /* \"Practical2-RockPaperScissors-Jason.sol\":8267:8289  gameHistory.length - 1 */\n      tag_126\n      jump\t// in\n    tag_272:\n        /* \"Practical2-RockPaperScissors-Jason.sol\":8255:8290  gameHistory[gameHistory.length - 1] */\n      dup2\n      sload\n      dup2\n      lt\n      tag_274\n      jumpi\n      tag_274\n      tag_112\n      jump\t// in\n    tag_274:\n      0x00\n      swap2\n      dup3\n      mstore\n      0x20\n      dup1\n      dup4\n      keccak256\n        /* \"Practical2-RockPaperScissors-Jason.sol\":8233:8291  latestGameResult.push(gameHistory[gameHistory.length - 1]) */\n      dup5\n      sload\n      0x01\n      dup2\n      dup2\n      add\n      dup8\n      sstore\n      swap6\n      dup6\n      mstore\n      swap2\n      swap1\n      swap4\n      keccak256\n        /* \"Practical2-RockPaperScissors-Jason.sol\":8255:8290  gameHistory[gameHistory.length - 1] */\n      0x05\n      swap3\n      dup4\n      mul\n      swap1\n      swap4\n      add\n        /* \"Practical2-RockPaperScissors-Jason.sol\":8233:8291  latestGameResult.push(gameHistory[gameHistory.length - 1]) */\n      dup1\n      sload\n      swap2\n      swap1\n      swap3\n      mul\n      swap1\n      swap3\n      add\n      dup1\n      sload\n      not(sub(shl(0xa0, 0x01), 0x01))\n      swap1\n      dup2\n      and\n      sub(shl(0xa0, 0x01), 0x01)\n      swap5\n      dup6\n      and\n      or\n      dup3\n      sstore\n      dup5\n      dup4\n      add\n      sload\n      swap5\n      dup3\n      add\n      swap5\n      swap1\n      swap5\n      sstore\n      0x02\n      dup1\n      dup4\n      add\n      sload\n      swap1\n      dup3\n      add\n      dup1\n      sload\n      swap1\n      swap6\n      and\n      swap4\n      and\n      swap3\n      swap1\n      swap3\n      or\n      swap1\n      swap3\n      sstore\n      0x03\n      dup1\n      dup4\n      add\n      sload\n      swap1\n      dup3\n      add\n      sstore\n      0x04\n      dup1\n      dup3\n      add\n      swap1\n      tag_277\n      swap1\n      dup5\n      add\n      dup3\n      tag_233\n      jump\t// in\n    tag_277:\n      pop\n      pop\n      pop\n        /* \"Practical2-RockPaperScissors-Jason.sol\":8314:8337  showResult(\"User2 win\") */\n      0xcde5c32c0a45fd8aa4b65ea8003fc9da9acd5e2c6c24a9fcce6ab79cabbd9122\n      mload(0x40)\n      tag_234\n      swap1\n        /* \"#utility.yul\":16526:16528   */\n      0x20\n        /* \"#utility.yul\":16508:16529   */\n      dup1\n      dup3\n      mstore\n        /* \"#utility.yul\":16565:16566   */\n      0x09\n        /* \"#utility.yul\":16545:16563   */\n      swap1\n      dup3\n      add\n        /* \"#utility.yul\":16538:16567   */\n      mstore\n      shl(0xb9, 0x2ab9b2b919103bb4b7)\n        /* \"#utility.yul\":16598:16600   */\n      0x40\n        /* \"#utility.yul\":16583:16601   */\n      dup3\n      add\n        /* \"#utility.yul\":16576:16615   */\n      mstore\n        /* \"#utility.yul\":16647:16649   */\n      0x60\n        /* \"#utility.yul\":16632:16650   */\n      add\n      swap1\n        /* \"#utility.yul\":16324:16656   */\n      jump\n        /* \"Practical2-RockPaperScissors-Jason.sol\":7700:8574  if (... */\n    tag_266:\n        /* \"Practical2-RockPaperScissors-Jason.sol\":8376:8437  gameHistory[gameHistory.length - 1].finalResult = \"User1 win\" */\n      0x40\n      dup1\n      mload\n      dup1\n      dup3\n      add\n      swap1\n      swap2\n      mstore\n      0x09\n      dup2\n      mstore\n      shl(0xb9, 0x2ab9b2b918903bb4b7)\n      0x20\n      dup3\n      add\n      mstore\n        /* \"Practical2-RockPaperScissors-Jason.sol\":8376:8387  gameHistory */\n      0x02\n        /* \"Practical2-RockPaperScissors-Jason.sol\":8388:8406  gameHistory.length */\n      dup1\n      sload\n        /* \"Practical2-RockPaperScissors-Jason.sol\":8388:8410  gameHistory.length - 1 */\n      tag_281\n      swap1\n        /* \"Practical2-RockPaperScissors-Jason.sol\":8409:8410  1 */\n      0x01\n      swap1\n        /* \"Practical2-RockPaperScissors-Jason.sol\":8388:8410  gameHistory.length - 1 */\n      tag_126\n      jump\t// in\n    tag_281:\n        /* \"Practical2-RockPaperScissors-Jason.sol\":8376:8411  gameHistory[gameHistory.length - 1] */\n      dup2\n      sload\n      dup2\n      lt\n      tag_283\n      jumpi\n      tag_283\n      tag_112\n      jump\t// in\n    tag_283:\n      swap1\n      0x00\n      mstore\n      keccak256(0x00, 0x20)\n      swap1\n      0x05\n      mul\n      add\n        /* \"Practical2-RockPaperScissors-Jason.sol\":8376:8423  gameHistory[gameHistory.length - 1].finalResult */\n      0x04\n      add\n        /* \"Practical2-RockPaperScissors-Jason.sol\":8376:8437  gameHistory[gameHistory.length - 1].finalResult = \"User1 win\" */\n      swap1\n      dup2\n      tag_285\n      swap2\n      swap1\n      tag_204\n      jump\t// in\n    tag_285:\n      pop\n        /* \"Practical2-RockPaperScissors-Jason.sol\":8477:8488  gameHistory */\n      0x02\n        /* \"Practical2-RockPaperScissors-Jason.sol\":8489:8507  gameHistory.length */\n      dup1\n      sload\n        /* \"Practical2-RockPaperScissors-Jason.sol\":8455:8471  latestGameResult */\n      0x07\n      swap2\n        /* \"Practical2-RockPaperScissors-Jason.sol\":8477:8488  gameHistory */\n      swap1\n        /* \"Practical2-RockPaperScissors-Jason.sol\":8489:8511  gameHistory.length - 1 */\n      tag_286\n      swap1\n        /* \"Practical2-RockPaperScissors-Jason.sol\":8510:8511  1 */\n      0x01\n      swap1\n        /* \"Practical2-RockPaperScissors-Jason.sol\":8489:8511  gameHistory.length - 1 */\n      tag_126\n      jump\t// in\n    tag_286:\n        /* \"Practical2-RockPaperScissors-Jason.sol\":8477:8512  gameHistory[gameHistory.length - 1] */\n      dup2\n      sload\n      dup2\n      lt\n      tag_288\n      jumpi\n      tag_288\n      tag_112\n      jump\t// in\n    tag_288:\n      0x00\n      swap2\n      dup3\n      mstore\n      0x20\n      dup1\n      dup4\n      keccak256\n        /* \"Practical2-RockPaperScissors-Jason.sol\":8455:8513  latestGameResult.push(gameHistory[gameHistory.length - 1]) */\n      dup5\n      sload\n      0x01\n      dup2\n      dup2\n      add\n      dup8\n      sstore\n      swap6\n      dup6\n      mstore\n      swap2\n      swap1\n      swap4\n      keccak256\n        /* \"Practical2-RockPaperScissors-Jason.sol\":8477:8512  gameHistory[gameHistory.length - 1] */\n      0x05\n      swap3\n      dup4\n      mul\n      swap1\n      swap4\n      add\n        /* \"Practical2-RockPaperScissors-Jason.sol\":8455:8513  latestGameResult.push(gameHistory[gameHistory.length - 1]) */\n      dup1\n      sload\n      swap2\n      swap1\n      swap3\n      mul\n      swap1\n      swap3\n      add\n      dup1\n      sload\n      not(sub(shl(0xa0, 0x01), 0x01))\n      swap1\n      dup2\n      and\n      sub(shl(0xa0, 0x01), 0x01)\n      swap5\n      dup6\n      and\n      or\n      dup3\n      sstore\n      dup5\n      dup4\n      add\n      sload\n      swap5\n      dup3\n      add\n      swap5\n      swap1\n      swap5\n      sstore\n      0x02\n      dup1\n      dup4\n      add\n      sload\n      swap1\n      dup3\n      add\n      dup1\n      sload\n      swap1\n      swap6\n      and\n      swap4\n      and\n      swap3\n      swap1\n      swap3\n      or\n      swap1\n      swap3\n      sstore\n      0x03\n      dup1\n      dup4\n      add\n      sload\n      swap1\n      dup3\n      add\n      sstore\n      0x04\n      dup1\n      dup3\n      add\n      swap1\n      tag_291\n      swap1\n      dup5\n      add\n      dup3\n      tag_233\n      jump\t// in\n    tag_291:\n      pop\n      pop\n      pop\n        /* \"Practical2-RockPaperScissors-Jason.sol\":8536:8559  showResult(\"User1 win\") */\n      0xcde5c32c0a45fd8aa4b65ea8003fc9da9acd5e2c6c24a9fcce6ab79cabbd9122\n      mload(0x40)\n      tag_234\n      swap1\n        /* \"#utility.yul\":16863:16865   */\n      0x20\n        /* \"#utility.yul\":16845:16866   */\n      dup1\n      dup3\n      mstore\n        /* \"#utility.yul\":16902:16903   */\n      0x09\n        /* \"#utility.yul\":16882:16900   */\n      swap1\n      dup3\n      add\n        /* \"#utility.yul\":16875:16904   */\n      mstore\n      shl(0xb9, 0x2ab9b2b918903bb4b7)\n        /* \"#utility.yul\":16935:16937   */\n      0x40\n        /* \"#utility.yul\":16920:16938   */\n      dup3\n      add\n        /* \"#utility.yul\":16913:16952   */\n      mstore\n        /* \"#utility.yul\":16984:16986   */\n      0x60\n        /* \"#utility.yul\":16969:16987   */\n      add\n      swap1\n        /* \"#utility.yul\":16661:16993   */\n      jump\n        /* \"Practical2-RockPaperScissors-Jason.sol\":7700:8574  if (... */\n    tag_280:\n        /* \"Practical2-RockPaperScissors-Jason.sol\":6907:8590  {... */\n      pop\n        /* \"Practical2-RockPaperScissors-Jason.sol\":6834:8590  function game (UserInfo memory userOne, UserInfo memory userTwo) private {... */\n      pop\n      pop\n      jump\t// out\n    tag_139:\n      pop\n      dup1\n      sload\n      0x00\n      dup3\n      sstore\n      0x05\n      mul\n      swap1\n      0x00\n      mstore\n      keccak256(0x00, 0x20)\n      swap1\n      dup2\n      add\n      swap1\n      tag_86\n      swap2\n      swap1\n      tag_296\n      jump\t// in\n    tag_145:\n      pop\n      dup1\n      sload\n      0x00\n      dup3\n      sstore\n      swap1\n      0x00\n      mstore\n      keccak256(0x00, 0x20)\n      swap1\n      dup2\n      add\n      swap1\n      tag_86\n      swap2\n      swap1\n      tag_299\n      jump\t// in\n    tag_152:\n      0x40\n      dup1\n      mload\n      0xa0\n      dup2\n      add\n      swap1\n      swap2\n      mstore\n      0x00\n      0x60\n      dup3\n      add\n      dup2\n      dup2\n      mstore\n      0x80\n      dup4\n      add\n      swap2\n      swap1\n      swap2\n      mstore\n      dup2\n      swap1\n      dup2\n      mstore\n      0x20\n      add\n      tag_301\n      0x40\n      dup1\n      mload\n      dup1\n      dup3\n      add\n      swap1\n      swap2\n      mstore\n      0x00\n      dup1\n      dup3\n      mstore\n      0x20\n      dup3\n      add\n      mstore\n      swap1\n      jump\n    tag_301:\n      dup2\n      mstore\n      0x20\n      add\n      0x60\n      dup2\n      mstore\n      pop\n      swap1\n      jump\t// out\n    tag_296:\n      dup1\n      dup3\n      gt\n      iszero\n      tag_303\n      jumpi\n      dup1\n      sload\n      not(sub(shl(0xa0, 0x01), 0x01))\n      swap1\n      dup2\n      and\n      dup3\n      sstore\n      0x00\n      0x01\n      dup4\n      add\n      dup2\n      swap1\n      sstore\n      0x02\n      dup4\n      add\n      dup1\n      sload\n      swap1\n      swap3\n      and\n      swap1\n      swap2\n      sstore\n      0x03\n      dup3\n      add\n      dup2\n      swap1\n      sstore\n      tag_304\n      0x04\n      dup4\n      add\n      dup3\n      tag_305\n      jump\t// in\n    tag_304:\n      pop\n      0x05\n      add\n      jump(tag_296)\n    tag_303:\n      pop\n      swap1\n      jump\t// out\n    tag_299:\n    tag_306:\n      dup1\n      dup3\n      gt\n      iszero\n      tag_303\n      jumpi\n      0x00\n      dup2\n      sstore\n      0x01\n      add\n      jump(tag_306)\n    tag_305:\n      pop\n      dup1\n      sload\n      tag_308\n      swap1\n      tag_72\n      jump\t// in\n    tag_308:\n      0x00\n      dup3\n      sstore\n      dup1\n      0x1f\n      lt\n      tag_310\n      jumpi\n      pop\n      pop\n      jump\t// out\n    tag_310:\n      0x1f\n      add\n      0x20\n      swap1\n      div\n      swap1\n      0x00\n      mstore\n      keccak256(0x00, 0x20)\n      swap1\n      dup2\n      add\n      swap1\n      tag_86\n      swap2\n      swap1\n      tag_299\n      jump\t// in\n        /* \"#utility.yul\":14:672   */\n    tag_19:\n        /* \"#utility.yul\":185:187   */\n      0x20\n        /* \"#utility.yul\":237:258   */\n      dup1\n      dup3\n      mstore\n        /* \"#utility.yul\":307:320   */\n      dup3\n      mload\n        /* \"#utility.yul\":210:228   */\n      dup3\n      dup3\n      add\n        /* \"#utility.yul\":329:351   */\n      dup2\n      swap1\n      mstore\n        /* \"#utility.yul\":156:160   */\n      0x00\n      swap2\n        /* \"#utility.yul\":185:187   */\n      swap1\n        /* \"#utility.yul\":408:423   */\n      dup5\n      dup3\n      add\n      swap1\n        /* \"#utility.yul\":382:384   */\n      0x40\n        /* \"#utility.yul\":367:385   */\n      dup6\n      add\n      swap1\n        /* \"#utility.yul\":156:160   */\n      dup5\n        /* \"#utility.yul\":451:646   */\n    tag_323:\n        /* \"#utility.yul\":465:471   */\n      dup2\n        /* \"#utility.yul\":462:463   */\n      dup2\n        /* \"#utility.yul\":459:472   */\n      lt\n        /* \"#utility.yul\":451:646   */\n      iszero\n      tag_325\n      jumpi\n        /* \"#utility.yul\":530:543   */\n      dup4\n      mload\n      sub(shl(0xa0, 0x01), 0x01)\n        /* \"#utility.yul\":526:565   */\n      and\n        /* \"#utility.yul\":514:566   */\n      dup4\n      mstore\n        /* \"#utility.yul\":621:636   */\n      swap3\n      dup5\n      add\n      swap3\n        /* \"#utility.yul\":586:598   */\n      swap2\n      dup5\n      add\n      swap2\n        /* \"#utility.yul\":562:563   */\n      0x01\n        /* \"#utility.yul\":480:489   */\n      add\n        /* \"#utility.yul\":451:646   */\n      jump(tag_323)\n    tag_325:\n      pop\n        /* \"#utility.yul\":663:666   */\n      swap1\n      swap7\n        /* \"#utility.yul\":14:672   */\n      swap6\n      pop\n      pop\n      pop\n      pop\n      pop\n      pop\n      jump\t// out\n        /* \"#utility.yul\":677:857   */\n    tag_22:\n        /* \"#utility.yul\":736:742   */\n      0x00\n        /* \"#utility.yul\":789:791   */\n      0x20\n        /* \"#utility.yul\":777:786   */\n      dup3\n        /* \"#utility.yul\":768:775   */\n      dup5\n        /* \"#utility.yul\":764:787   */\n      sub\n        /* \"#utility.yul\":760:792   */\n      slt\n        /* \"#utility.yul\":757:809   */\n      iszero\n      tag_327\n      jumpi\n        /* \"#utility.yul\":805:806   */\n      0x00\n        /* \"#utility.yul\":802:803   */\n      dup1\n        /* \"#utility.yul\":795:807   */\n      revert\n        /* \"#utility.yul\":757:809   */\n    tag_327:\n      pop\n        /* \"#utility.yul\":828:851   */\n      calldataload\n      swap2\n        /* \"#utility.yul\":677:857   */\n      swap1\n      pop\n      jump\t// out\n        /* \"#utility.yul\":1224:1647   */\n    tag_313:\n        /* \"#utility.yul\":1266:1269   */\n      0x00\n        /* \"#utility.yul\":1304:1309   */\n      dup2\n        /* \"#utility.yul\":1298:1310   */\n      mload\n        /* \"#utility.yul\":1331:1337   */\n      dup1\n        /* \"#utility.yul\":1326:1329   */\n      dup5\n        /* \"#utility.yul\":1319:1338   */\n      mstore\n        /* \"#utility.yul\":1356:1357   */\n      0x00\n        /* \"#utility.yul\":1366:1528   */\n    tag_331:\n        /* \"#utility.yul\":1380:1386   */\n      dup2\n        /* \"#utility.yul\":1377:1378   */\n      dup2\n        /* \"#utility.yul\":1374:1387   */\n      lt\n        /* \"#utility.yul\":1366:1528   */\n      iszero\n      tag_333\n      jumpi\n        /* \"#utility.yul\":1442:1446   */\n      0x20\n        /* \"#utility.yul\":1498:1511   */\n      dup2\n      dup6\n      add\n        /* \"#utility.yul\":1494:1516   */\n      dup2\n      add\n        /* \"#utility.yul\":1488:1517   */\n      mload\n        /* \"#utility.yul\":1470:1481   */\n      dup7\n      dup4\n      add\n        /* \"#utility.yul\":1466:1486   */\n      dup3\n      add\n        /* \"#utility.yul\":1459:1518   */\n      mstore\n        /* \"#utility.yul\":1395:1407   */\n      add\n        /* \"#utility.yul\":1366:1528   */\n      jump(tag_331)\n    tag_333:\n        /* \"#utility.yul\":1370:1373   */\n      pop\n        /* \"#utility.yul\":1573:1574   */\n      0x00\n        /* \"#utility.yul\":1566:1570   */\n      0x20\n        /* \"#utility.yul\":1557:1563   */\n      dup3\n        /* \"#utility.yul\":1552:1555   */\n      dup7\n        /* \"#utility.yul\":1548:1564   */\n      add\n        /* \"#utility.yul\":1544:1571   */\n      add\n        /* \"#utility.yul\":1537:1575   */\n      mstore\n        /* \"#utility.yul\":1636:1640   */\n      0x20\n        /* \"#utility.yul\":1629:1631   */\n      0x1f\n        /* \"#utility.yul\":1625:1632   */\n      not\n        /* \"#utility.yul\":1620:1622   */\n      0x1f\n        /* \"#utility.yul\":1612:1618   */\n      dup4\n        /* \"#utility.yul\":1608:1623   */\n      add\n        /* \"#utility.yul\":1604:1633   */\n      and\n        /* \"#utility.yul\":1599:1602   */\n      dup6\n        /* \"#utility.yul\":1595:1634   */\n      add\n        /* \"#utility.yul\":1591:1641   */\n      add\n        /* \"#utility.yul\":1584:1641   */\n      swap2\n      pop\n      pop\n        /* \"#utility.yul\":1224:1647   */\n      swap3\n      swap2\n      pop\n      pop\n      jump\t// out\n        /* \"#utility.yul\":1652:2045   */\n    tag_314:\n        /* \"#utility.yul\":1721:1766   */\n      tag_335\n        /* \"#utility.yul\":1762:1765   */\n      dup3\n        /* \"#utility.yul\":1754:1759   */\n      dup3\n        /* \"#utility.yul\":1748:1760   */\n      mload\n        /* \"#utility.yul\":1122:1134   */\n      dup1\n      mload\n      sub(shl(0xa0, 0x01), 0x01)\n        /* \"#utility.yul\":1118:1156   */\n      and\n        /* \"#utility.yul\":1106:1157   */\n      dup3\n      mstore\n        /* \"#utility.yul\":1206:1210   */\n      0x20\n        /* \"#utility.yul\":1195:1211   */\n      swap1\n      dup2\n      add\n        /* \"#utility.yul\":1189:1212   */\n      mload\n        /* \"#utility.yul\":1173:1187   */\n      swap2\n      add\n        /* \"#utility.yul\":1166:1213   */\n      mstore\n        /* \"#utility.yul\":1044:1219   */\n      jump\n        /* \"#utility.yul\":1721:1766   */\n    tag_335:\n        /* \"#utility.yul\":1703:1706   */\n      0x00\n        /* \"#utility.yul\":1812:1816   */\n      0x20\n        /* \"#utility.yul\":1805:1810   */\n      dup3\n        /* \"#utility.yul\":1801:1817   */\n      add\n        /* \"#utility.yul\":1795:1818   */\n      mload\n        /* \"#utility.yul\":1827:1883   */\n      tag_336\n        /* \"#utility.yul\":1877:1881   */\n      0x40\n        /* \"#utility.yul\":1872:1875   */\n      dup6\n        /* \"#utility.yul\":1868:1882   */\n      add\n        /* \"#utility.yul\":1854:1866   */\n      dup3\n        /* \"#utility.yul\":1122:1134   */\n      dup1\n      mload\n      sub(shl(0xa0, 0x01), 0x01)\n        /* \"#utility.yul\":1118:1156   */\n      and\n        /* \"#utility.yul\":1106:1157   */\n      dup3\n      mstore\n        /* \"#utility.yul\":1206:1210   */\n      0x20\n        /* \"#utility.yul\":1195:1211   */\n      swap1\n      dup2\n      add\n        /* \"#utility.yul\":1189:1212   */\n      mload\n        /* \"#utility.yul\":1173:1187   */\n      swap2\n      add\n        /* \"#utility.yul\":1166:1213   */\n      mstore\n        /* \"#utility.yul\":1044:1219   */\n      jump\n        /* \"#utility.yul\":1827:1883   */\n    tag_336:\n      pop\n        /* \"#utility.yul\":1931:1935   */\n      0x40\n        /* \"#utility.yul\":1924:1929   */\n      dup3\n        /* \"#utility.yul\":1920:1936   */\n      add\n        /* \"#utility.yul\":1914:1937   */\n      mload\n        /* \"#utility.yul\":1969:1973   */\n      0xa0\n        /* \"#utility.yul\":1962:1966   */\n      0x80\n        /* \"#utility.yul\":1957:1960   */\n      dup6\n        /* \"#utility.yul\":1953:1967   */\n      add\n        /* \"#utility.yul\":1946:1974   */\n      mstore\n        /* \"#utility.yul\":1990:2039   */\n      tag_337\n        /* \"#utility.yul\":2033:2037   */\n      0xa0\n        /* \"#utility.yul\":2028:2031   */\n      dup6\n        /* \"#utility.yul\":2024:2038   */\n      add\n        /* \"#utility.yul\":2008:2022   */\n      dup3\n        /* \"#utility.yul\":1990:2039   */\n      tag_313\n      jump\t// in\n    tag_337:\n        /* \"#utility.yul\":1983:2039   */\n      swap5\n        /* \"#utility.yul\":1652:2045   */\n      swap4\n      pop\n      pop\n      pop\n      pop\n      jump\t// out\n        /* \"#utility.yul\":2050:2890   */\n    tag_31:\n        /* \"#utility.yul\":2240:2244   */\n      0x00\n        /* \"#utility.yul\":2269:2271   */\n      0x20\n        /* \"#utility.yul\":2309:2311   */\n      dup1\n        /* \"#utility.yul\":2298:2307   */\n      dup4\n        /* \"#utility.yul\":2294:2312   */\n      add\n        /* \"#utility.yul\":2339:2341   */\n      dup2\n        /* \"#utility.yul\":2328:2337   */\n      dup5\n        /* \"#utility.yul\":2321:2342   */\n      mstore\n        /* \"#utility.yul\":2362:2368   */\n      dup1\n        /* \"#utility.yul\":2397:2403   */\n      dup6\n        /* \"#utility.yul\":2391:2404   */\n      mload\n        /* \"#utility.yul\":2428:2434   */\n      dup1\n        /* \"#utility.yul\":2420:2426   */\n      dup4\n        /* \"#utility.yul\":2413:2435   */\n      mstore\n        /* \"#utility.yul\":2466:2468   */\n      0x40\n        /* \"#utility.yul\":2455:2464   */\n      dup7\n        /* \"#utility.yul\":2451:2469   */\n      add\n        /* \"#utility.yul\":2444:2469   */\n      swap2\n      pop\n        /* \"#utility.yul\":2528:2530   */\n      0x40\n        /* \"#utility.yul\":2518:2524   */\n      dup2\n        /* \"#utility.yul\":2515:2516   */\n      0x05\n        /* \"#utility.yul\":2511:2525   */\n      shl\n        /* \"#utility.yul\":2500:2509   */\n      dup8\n        /* \"#utility.yul\":2496:2526   */\n      add\n        /* \"#utility.yul\":2492:2531   */\n      add\n        /* \"#utility.yul\":2478:2531   */\n      swap3\n      pop\n        /* \"#utility.yul\":2566:2568   */\n      dup4\n        /* \"#utility.yul\":2558:2564   */\n      dup8\n        /* \"#utility.yul\":2554:2569   */\n      add\n        /* \"#utility.yul\":2587:2588   */\n      0x00\n        /* \"#utility.yul\":2597:2861   */\n    tag_339:\n        /* \"#utility.yul\":2611:2617   */\n      dup3\n        /* \"#utility.yul\":2608:2609   */\n      dup2\n        /* \"#utility.yul\":2605:2618   */\n      lt\n        /* \"#utility.yul\":2597:2861   */\n      iszero\n      tag_341\n      jumpi\n        /* \"#utility.yul\":2704:2706   */\n      0x3f\n        /* \"#utility.yul\":2700:2707   */\n      not\n        /* \"#utility.yul\":2688:2697   */\n      dup9\n        /* \"#utility.yul\":2680:2686   */\n      dup7\n        /* \"#utility.yul\":2676:2698   */\n      sub\n        /* \"#utility.yul\":2672:2708   */\n      add\n        /* \"#utility.yul\":2667:2670   */\n      dup5\n        /* \"#utility.yul\":2660:2709   */\n      mstore\n        /* \"#utility.yul\":2732:2781   */\n      tag_342\n        /* \"#utility.yul\":2774:2780   */\n      dup6\n        /* \"#utility.yul\":2765:2771   */\n      dup4\n        /* \"#utility.yul\":2759:2772   */\n      mload\n        /* \"#utility.yul\":2732:2781   */\n      tag_314\n      jump\t// in\n    tag_342:\n        /* \"#utility.yul\":2722:2781   */\n      swap5\n      pop\n        /* \"#utility.yul\":2839:2851   */\n      swap3\n      dup6\n      add\n      swap3\n        /* \"#utility.yul\":2804:2819   */\n      swap1\n      dup6\n      add\n      swap1\n        /* \"#utility.yul\":2633:2634   */\n      0x01\n        /* \"#utility.yul\":2626:2635   */\n      add\n        /* \"#utility.yul\":2597:2861   */\n      jump(tag_339)\n    tag_341:\n      pop\n        /* \"#utility.yul\":2878:2884   */\n      swap3\n      swap8\n        /* \"#utility.yul\":2050:2890   */\n      swap7\n      pop\n      pop\n      pop\n      pop\n      pop\n      pop\n      pop\n      jump\t// out\n        /* \"#utility.yul\":2895:3396   */\n    tag_42:\n        /* \"#utility.yul\":1122:1134   */\n      dup4\n      mload\n      sub(shl(0xa0, 0x01), 0x01)\n        /* \"#utility.yul\":1118:1156   */\n      and\n        /* \"#utility.yul\":1106:1157   */\n      dup2\n      mstore\n        /* \"#utility.yul\":1206:1210   */\n      0x20\n        /* \"#utility.yul\":1195:1211   */\n      dup1\n      dup6\n      add\n        /* \"#utility.yul\":1189:1212   */\n      mload\n        /* \"#utility.yul\":1173:1187   */\n      swap1\n      dup3\n      add\n        /* \"#utility.yul\":1166:1213   */\n      mstore\n        /* \"#utility.yul\":1122:1134   */\n      dup3\n      mload\n      sub(shl(0xa0, 0x01), 0x01)\n        /* \"#utility.yul\":1118:1156   */\n      and\n        /* \"#utility.yul\":3282:3284   */\n      0x40\n        /* \"#utility.yul\":3267:3285   */\n      dup3\n      add\n        /* \"#utility.yul\":1106:1157   */\n      mstore\n        /* \"#utility.yul\":1206:1210   */\n      0x20\n        /* \"#utility.yul\":1195:1211   */\n      dup4\n      add\n        /* \"#utility.yul\":1189:1212   */\n      mload\n        /* \"#utility.yul\":1173:1187   */\n      0x60\n      dup3\n      add\n        /* \"#utility.yul\":1166:1213   */\n      mstore\n        /* \"#utility.yul\":3323:3326   */\n      0xa0\n        /* \"#utility.yul\":3317:3320   */\n      0x80\n        /* \"#utility.yul\":3306:3315   */\n      dup3\n        /* \"#utility.yul\":3302:3321   */\n      add\n        /* \"#utility.yul\":3295:3327   */\n      mstore\n        /* \"#utility.yul\":3159:3163   */\n      0x00\n        /* \"#utility.yul\":3344:3390   */\n      tag_346\n        /* \"#utility.yul\":3385:3388   */\n      0xa0\n        /* \"#utility.yul\":3374:3383   */\n      dup4\n        /* \"#utility.yul\":3370:3389   */\n      add\n        /* \"#utility.yul\":3362:3368   */\n      dup5\n        /* \"#utility.yul\":3344:3390   */\n      tag_313\n      jump\t// in\n    tag_346:\n        /* \"#utility.yul\":3336:3390   */\n      swap6\n        /* \"#utility.yul\":2895:3396   */\n      swap5\n      pop\n      pop\n      pop\n      pop\n      pop\n      jump\t// out\n        /* \"#utility.yul\":3401:4122   */\n    tag_55:\n        /* \"#utility.yul\":3620:3622   */\n      0x20\n        /* \"#utility.yul\":3672:3693   */\n      dup1\n      dup3\n      mstore\n        /* \"#utility.yul\":3742:3755   */\n      dup3\n      mload\n        /* \"#utility.yul\":3645:3663   */\n      dup3\n      dup3\n      add\n        /* \"#utility.yul\":3764:3786   */\n      dup2\n      swap1\n      mstore\n        /* \"#utility.yul\":3591:3595   */\n      0x00\n      swap2\n        /* \"#utility.yul\":3620:3622   */\n      swap1\n        /* \"#utility.yul\":3805:3807   */\n      0x40\n      swap1\n        /* \"#utility.yul\":3823:3841   */\n      dup2\n      dup6\n      add\n      swap1\n        /* \"#utility.yul\":3864:3879   */\n      dup7\n      dup5\n      add\n        /* \"#utility.yul\":3591:3595   */\n      dup6\n        /* \"#utility.yul\":3907:4096   */\n    tag_348:\n        /* \"#utility.yul\":3921:3927   */\n      dup3\n        /* \"#utility.yul\":3918:3919   */\n      dup2\n        /* \"#utility.yul\":3915:3928   */\n      lt\n        /* \"#utility.yul\":3907:4096   */\n      iszero\n      tag_350\n      jumpi\n        /* \"#utility.yul\":3970:4016   */\n      tag_351\n        /* \"#utility.yul\":4012:4015   */\n      dup5\n        /* \"#utility.yul\":4003:4009   */\n      dup4\n        /* \"#utility.yul\":3997:4010   */\n      mload\n        /* \"#utility.yul\":1122:1134   */\n      dup1\n      mload\n      sub(shl(0xa0, 0x01), 0x01)\n        /* \"#utility.yul\":1118:1156   */\n      and\n        /* \"#utility.yul\":1106:1157   */\n      dup3\n      mstore\n        /* \"#utility.yul\":1206:1210   */\n      0x20\n        /* \"#utility.yul\":1195:1211   */\n      swap1\n      dup2\n      add\n        /* \"#utility.yul\":1189:1212   */\n      mload\n        /* \"#utility.yul\":1173:1187   */\n      swap2\n      add\n        /* \"#utility.yul\":1166:1213   */\n      mstore\n        /* \"#utility.yul\":1044:1219   */\n      jump\n        /* \"#utility.yul\":3970:4016   */\n    tag_351:\n        /* \"#utility.yul\":4036:4048   */\n      swap3\n      dup5\n      add\n      swap3\n        /* \"#utility.yul\":4071:4086   */\n      swap1\n      dup6\n      add\n      swap1\n        /* \"#utility.yul\":3943:3944   */\n      0x01\n        /* \"#utility.yul\":3936:3945   */\n      add\n        /* \"#utility.yul\":3907:4096   */\n      jump(tag_348)\n    tag_350:\n      pop\n        /* \"#utility.yul\":4113:4116   */\n      swap2\n      swap8\n        /* \"#utility.yul\":3401:4122   */\n      swap7\n      pop\n      pop\n      pop\n      pop\n      pop\n      pop\n      pop\n      jump\t// out\n        /* \"#utility.yul\":4127:4384   */\n    tag_60:\n        /* \"#utility.yul\":4304:4306   */\n      0x20\n        /* \"#utility.yul\":4293:4302   */\n      dup2\n        /* \"#utility.yul\":4286:4307   */\n      mstore\n        /* \"#utility.yul\":4267:4271   */\n      0x00\n        /* \"#utility.yul\":4324:4378   */\n      tag_353\n        /* \"#utility.yul\":4374:4376   */\n      0x20\n        /* \"#utility.yul\":4363:4372   */\n      dup4\n        /* \"#utility.yul\":4359:4377   */\n      add\n        /* \"#utility.yul\":4351:4357   */\n      dup5\n        /* \"#utility.yul\":4324:4378   */\n      tag_314\n      jump\t// in\n    tag_353:\n        /* \"#utility.yul\":4316:4378   */\n      swap4\n        /* \"#utility.yul\":4127:4384   */\n      swap3\n      pop\n      pop\n      pop\n      jump\t// out\n        /* \"#utility.yul\":4389:4769   */\n    tag_72:\n        /* \"#utility.yul\":4468:4469   */\n      0x01\n        /* \"#utility.yul\":4464:4476   */\n      dup2\n      dup2\n      shr\n      swap1\n        /* \"#utility.yul\":4511:4523   */\n      dup3\n      and\n      dup1\n        /* \"#utility.yul\":4532:4593   */\n      tag_355\n      jumpi\n        /* \"#utility.yul\":4586:4590   */\n      0x7f\n        /* \"#utility.yul\":4578:4584   */\n      dup3\n        /* \"#utility.yul\":4574:4591   */\n      and\n        /* \"#utility.yul\":4564:4591   */\n      swap2\n      pop\n        /* \"#utility.yul\":4532:4593   */\n    tag_355:\n        /* \"#utility.yul\":4639:4641   */\n      0x20\n        /* \"#utility.yul\":4631:4637   */\n      dup3\n        /* \"#utility.yul\":4628:4642   */\n      lt\n        /* \"#utility.yul\":4608:4626   */\n      dup2\n        /* \"#utility.yul\":4605:4643   */\n      sub\n        /* \"#utility.yul\":4602:4763   */\n      tag_356\n      jumpi\n        /* \"#utility.yul\":4685:4695   */\n      0x4e487b71\n        /* \"#utility.yul\":4680:4683   */\n      0xe0\n        /* \"#utility.yul\":4676:4696   */\n      shl\n        /* \"#utility.yul\":4673:4674   */\n      0x00\n        /* \"#utility.yul\":4666:4697   */\n      mstore\n        /* \"#utility.yul\":4720:4724   */\n      0x22\n        /* \"#utility.yul\":4717:4718   */\n      0x04\n        /* \"#utility.yul\":4710:4725   */\n      mstore\n        /* \"#utility.yul\":4748:4752   */\n      0x24\n        /* \"#utility.yul\":4745:4746   */\n      0x00\n        /* \"#utility.yul\":4738:4753   */\n      revert\n        /* \"#utility.yul\":4602:4763   */\n    tag_356:\n      pop\n        /* \"#utility.yul\":4389:4769   */\n      swap2\n      swap1\n      pop\n      jump\t// out\n        /* \"#utility.yul\":4774:4983   */\n    tag_79:\n        /* \"#utility.yul\":4806:4807   */\n      0x00\n        /* \"#utility.yul\":4832:4833   */\n      dup3\n        /* \"#utility.yul\":4822:4954   */\n      tag_358\n      jumpi\n        /* \"#utility.yul\":4876:4886   */\n      0x4e487b71\n        /* \"#utility.yul\":4871:4874   */\n      0xe0\n        /* \"#utility.yul\":4867:4887   */\n      shl\n        /* \"#utility.yul\":4864:4865   */\n      0x00\n        /* \"#utility.yul\":4857:4888   */\n      mstore\n        /* \"#utility.yul\":4911:4915   */\n      0x12\n        /* \"#utility.yul\":4908:4909   */\n      0x04\n        /* \"#utility.yul\":4901:4916   */\n      mstore\n        /* \"#utility.yul\":4939:4943   */\n      0x24\n        /* \"#utility.yul\":4936:4937   */\n      0x00\n        /* \"#utility.yul\":4929:4944   */\n      revert\n        /* \"#utility.yul\":4822:4954   */\n    tag_358:\n      pop\n        /* \"#utility.yul\":4968:4977   */\n      mod\n      swap1\n        /* \"#utility.yul\":4774:4983   */\n      jump\t// out\n        /* \"#utility.yul\":6865:6992   */\n    tag_112:\n        /* \"#utility.yul\":6926:6936   */\n      0x4e487b71\n        /* \"#utility.yul\":6921:6924   */\n      0xe0\n        /* \"#utility.yul\":6917:6937   */\n      shl\n        /* \"#utility.yul\":6914:6915   */\n      0x00\n        /* \"#utility.yul\":6907:6938   */\n      mstore\n        /* \"#utility.yul\":6957:6961   */\n      0x32\n        /* \"#utility.yul\":6954:6955   */\n      0x04\n        /* \"#utility.yul\":6947:6962   */\n      mstore\n        /* \"#utility.yul\":6981:6985   */\n      0x24\n        /* \"#utility.yul\":6978:6979   */\n      0x00\n        /* \"#utility.yul\":6971:6986   */\n      revert\n        /* \"#utility.yul\":7842:7969   */\n    tag_315:\n        /* \"#utility.yul\":7903:7913   */\n      0x4e487b71\n        /* \"#utility.yul\":7898:7901   */\n      0xe0\n        /* \"#utility.yul\":7894:7914   */\n      shl\n        /* \"#utility.yul\":7891:7892   */\n      0x00\n        /* \"#utility.yul\":7884:7915   */\n      mstore\n        /* \"#utility.yul\":7934:7938   */\n      0x11\n        /* \"#utility.yul\":7931:7932   */\n      0x04\n        /* \"#utility.yul\":7924:7939   */\n      mstore\n        /* \"#utility.yul\":7958:7962   */\n      0x24\n        /* \"#utility.yul\":7955:7956   */\n      0x00\n        /* \"#utility.yul\":7948:7963   */\n      revert\n        /* \"#utility.yul\":7974:8109   */\n    tag_121:\n        /* \"#utility.yul\":8013:8016   */\n      0x00\n        /* \"#utility.yul\":8034:8051   */\n      0x01\n      dup3\n      add\n        /* \"#utility.yul\":8031:8074   */\n      tag_370\n      jumpi\n        /* \"#utility.yul\":8054:8072   */\n      tag_370\n      tag_315\n      jump\t// in\n    tag_370:\n      pop\n        /* \"#utility.yul\":8101:8102   */\n      0x01\n        /* \"#utility.yul\":8090:8103   */\n      add\n      swap1\n        /* \"#utility.yul\":7974:8109   */\n      jump\t// out\n        /* \"#utility.yul\":8114:8242   */\n    tag_126:\n        /* \"#utility.yul\":8181:8190   */\n      dup2\n      dup2\n      sub\n        /* \"#utility.yul\":8202:8213   */\n      dup2\n      dup2\n      gt\n        /* \"#utility.yul\":8199:8236   */\n      iszero\n      tag_373\n      jumpi\n        /* \"#utility.yul\":8216:8234   */\n      tag_373\n      tag_315\n      jump\t// in\n    tag_373:\n        /* \"#utility.yul\":8114:8242   */\n      swap3\n      swap2\n      pop\n      pop\n      jump\t// out\n        /* \"#utility.yul\":8384:9065   */\n    tag_136:\n        /* \"#utility.yul\":8552:8554   */\n      0x20\n        /* \"#utility.yul\":8604:8625   */\n      dup1\n      dup3\n      mstore\n        /* \"#utility.yul\":8674:8687   */\n      dup3\n      sload\n        /* \"#utility.yul\":8577:8595   */\n      dup3\n      dup3\n      add\n        /* \"#utility.yul\":8696:8718   */\n      dup2\n      swap1\n      mstore\n        /* \"#utility.yul\":8523:8527   */\n      0x00\n        /* \"#utility.yul\":8761:8778   */\n      dup5\n      dup2\n      mstore\n        /* \"#utility.yul\":8801:8817   */\n      dup3\n      dup2\n      keccak256\n        /* \"#utility.yul\":8523:8527   */\n      swap1\n      swap3\n        /* \"#utility.yul\":8552:8554   */\n      swap2\n        /* \"#utility.yul\":8749:8751   */\n      0x40\n        /* \"#utility.yul\":8734:8752   */\n      dup6\n      add\n      swap1\n        /* \"#utility.yul\":8523:8527   */\n      dup5\n        /* \"#utility.yul\":8845:9039   */\n    tag_376:\n        /* \"#utility.yul\":8859:8865   */\n      dup2\n        /* \"#utility.yul\":8856:8857   */\n      dup2\n        /* \"#utility.yul\":8853:8866   */\n      lt\n        /* \"#utility.yul\":8845:9039   */\n      iszero\n      tag_325\n      jumpi\n        /* \"#utility.yul\":8924:8937   */\n      dup4\n      sload\n      sub(shl(0xa0, 0x01), 0x01)\n        /* \"#utility.yul\":8920:8959   */\n      and\n        /* \"#utility.yul\":8908:8960   */\n      dup4\n      mstore\n        /* \"#utility.yul\":8956:8957   */\n      0x01\n        /* \"#utility.yul\":9015:9029   */\n      swap4\n      dup5\n      add\n      swap4\n        /* \"#utility.yul\":8980:8992   */\n      swap3\n      dup6\n      add\n      swap3\n        /* \"#utility.yul\":8874:8883   */\n      add\n        /* \"#utility.yul\":8845:9039   */\n      jump(tag_376)\n        /* \"#utility.yul\":9258:11166   */\n    tag_143:\n        /* \"#utility.yul\":9442:9446   */\n      0x00\n        /* \"#utility.yul\":9471:9473   */\n      0x20\n        /* \"#utility.yul\":9511:9513   */\n      dup1\n        /* \"#utility.yul\":9500:9509   */\n      dup4\n        /* \"#utility.yul\":9496:9514   */\n      add\n        /* \"#utility.yul\":9541:9543   */\n      dup2\n        /* \"#utility.yul\":9530:9539   */\n      dup5\n        /* \"#utility.yul\":9523:9544   */\n      mstore\n        /* \"#utility.yul\":9564:9570   */\n      dup1\n        /* \"#utility.yul\":9599:9605   */\n      dup6\n        /* \"#utility.yul\":9593:9606   */\n      sload\n        /* \"#utility.yul\":9630:9636   */\n      dup1\n        /* \"#utility.yul\":9622:9628   */\n      dup4\n        /* \"#utility.yul\":9615:9637   */\n      mstore\n        /* \"#utility.yul\":9668:9670   */\n      0x40\n        /* \"#utility.yul\":9657:9666   */\n      dup7\n        /* \"#utility.yul\":9653:9671   */\n      add\n        /* \"#utility.yul\":9646:9671   */\n      swap2\n      pop\n        /* \"#utility.yul\":9730:9732   */\n      0x40\n        /* \"#utility.yul\":9720:9726   */\n      dup2\n        /* \"#utility.yul\":9717:9718   */\n      0x05\n        /* \"#utility.yul\":9713:9727   */\n      shl\n        /* \"#utility.yul\":9702:9711   */\n      dup8\n        /* \"#utility.yul\":9698:9728   */\n      add\n        /* \"#utility.yul\":9694:9733   */\n      add\n        /* \"#utility.yul\":9680:9733   */\n      swap3\n      pop\n        /* \"#utility.yul\":9752:9753   */\n      0x00\n        /* \"#utility.yul\":9773:9779   */\n      dup8\n        /* \"#utility.yul\":9769:9771   */\n      dup2\n        /* \"#utility.yul\":9762:9780   */\n      mstore\n        /* \"#utility.yul\":9817:9819   */\n      dup5\n        /* \"#utility.yul\":9813:9815   */\n      dup2\n        /* \"#utility.yul\":9803:9820   */\n      keccak256\n        /* \"#utility.yul\":9838:9840   */\n      dup2\n        /* \"#utility.yul\":9849:11137   */\n    tag_381:\n        /* \"#utility.yul\":9863:9869   */\n      dup4\n        /* \"#utility.yul\":9860:9861   */\n      dup2\n        /* \"#utility.yul\":9857:9870   */\n      lt\n        /* \"#utility.yul\":9849:11137   */\n      iszero\n      tag_383\n      jumpi\n      not(0x3f)\n        /* \"#utility.yul\":9928:9950   */\n      dup10\n      dup8\n      sub\n        /* \"#utility.yul\":9924:9960   */\n      add\n        /* \"#utility.yul\":9912:9961   */\n      dup6\n      mstore\n        /* \"#utility.yul\":9156:9168   */\n      dup2\n      sload\n      sub(shl(0xa0, 0x01), 0x01)\n        /* \"#utility.yul\":9152:9190   */\n      and\n        /* \"#utility.yul\":9140:9191   */\n      dup7\n      mstore\n        /* \"#utility.yul\":9187:9188   */\n      0x01\n        /* \"#utility.yul\":9229:9245   */\n      dup3\n      add\n        /* \"#utility.yul\":9223:9246   */\n      sload\n        /* \"#utility.yul\":9216:9220   */\n      0x20\n        /* \"#utility.yul\":9207:9221   */\n      dup8\n      add\n        /* \"#utility.yul\":9200:9247   */\n      mstore\n        /* \"#utility.yul\":10084:10088   */\n      0x02\n        /* \"#utility.yul\":10072:10089   */\n      dup3\n      add\n        /* \"#utility.yul\":9156:9168   */\n      sload\n      sub(shl(0xa0, 0x01), 0x01)\n        /* \"#utility.yul\":9152:9190   */\n      and\n        /* \"#utility.yul\":10103:10105   */\n      0x40\n        /* \"#utility.yul\":10091:10106   */\n      dup8\n      add\n        /* \"#utility.yul\":9140:9191   */\n      mstore\n        /* \"#utility.yul\":9229:9245   */\n      0x03\n      dup3\n      add\n        /* \"#utility.yul\":9223:9246   */\n      sload\n        /* \"#utility.yul\":9207:9221   */\n      0x60\n      dup8\n      add\n        /* \"#utility.yul\":9200:9247   */\n      mstore\n        /* \"#utility.yul\":10152:10156   */\n      0x04\n        /* \"#utility.yul\":10144:10150   */\n      dup3\n        /* \"#utility.yul\":10140:10157   */\n      add\n        /* \"#utility.yul\":10196:10200   */\n      0xa0\n        /* \"#utility.yul\":10189:10193   */\n      0x80\n        /* \"#utility.yul\":10181:10187   */\n      dup9\n        /* \"#utility.yul\":10177:10194   */\n      add\n        /* \"#utility.yul\":10170:10201   */\n      mstore\n        /* \"#utility.yul\":10225:10227   */\n      dup4\n        /* \"#utility.yul\":10263:10275   */\n      dup2\n        /* \"#utility.yul\":10257:10276   */\n      sload\n        /* \"#utility.yul\":10305:10341   */\n      tag_386\n        /* \"#utility.yul\":10331:10340   */\n      dup2\n        /* \"#utility.yul\":10305:10341   */\n      tag_72\n      jump\t// in\n    tag_386:\n        /* \"#utility.yul\":10380:10388   */\n      dup1\n        /* \"#utility.yul\":10373:10377   */\n      0xa0\n        /* \"#utility.yul\":10365:10371   */\n      dup12\n        /* \"#utility.yul\":10361:10378   */\n      add\n        /* \"#utility.yul\":10354:10389   */\n      mstore\n        /* \"#utility.yul\":10424:10425   */\n      0x01\n        /* \"#utility.yul\":10413:10422   */\n      dup3\n        /* \"#utility.yul\":10409:10426   */\n      and\n        /* \"#utility.yul\":10444:10445   */\n      0x00\n        /* \"#utility.yul\":10439:10607   */\n      dup2\n      eq\n      tag_388\n      jumpi\n        /* \"#utility.yul\":10625:10626   */\n      0x01\n        /* \"#utility.yul\":10620:11032   */\n      dup2\n      eq\n      tag_389\n      jumpi\n        /* \"#utility.yul\":10402:11032   */\n      jump(tag_387)\n        /* \"#utility.yul\":10439:10607   */\n    tag_388:\n        /* \"#utility.yul\":10508:10511   */\n      0xff\n        /* \"#utility.yul\":10504:10512   */\n      not\n        /* \"#utility.yul\":10493:10502   */\n      dup4\n        /* \"#utility.yul\":10489:10513   */\n      and\n        /* \"#utility.yul\":10483:10486   */\n      0xc0\n        /* \"#utility.yul\":10475:10481   */\n      dup13\n        /* \"#utility.yul\":10471:10487   */\n      add\n        /* \"#utility.yul\":10464:10514   */\n      mstore\n        /* \"#utility.yul\":10589:10592   */\n      0xc0\n        /* \"#utility.yul\":10575:10583   */\n      dup3\n        /* \"#utility.yul\":10568:10584   */\n      iszero\n        /* \"#utility.yul\":10561:10585   */\n      iszero\n        /* \"#utility.yul\":10558:10559   */\n      0x05\n        /* \"#utility.yul\":10554:10586   */\n      shl\n        /* \"#utility.yul\":10546:10552   */\n      dup13\n        /* \"#utility.yul\":10542:10587   */\n      add\n        /* \"#utility.yul\":10538:10593   */\n      add\n        /* \"#utility.yul\":10531:10593   */\n      swap4\n      pop\n        /* \"#utility.yul\":10439:10607   */\n      jump(tag_387)\n        /* \"#utility.yul\":10620:11032   */\n    tag_389:\n        /* \"#utility.yul\":10656:10668   */\n      dup5\n        /* \"#utility.yul\":10652:10654   */\n      dup9\n        /* \"#utility.yul\":10645:10669   */\n      mstore\n        /* \"#utility.yul\":10715:10717   */\n      dup12\n        /* \"#utility.yul\":10711:10713   */\n      dup9\n        /* \"#utility.yul\":10701:10718   */\n      keccak256\n        /* \"#utility.yul\":10746:10748   */\n      dup9\n        /* \"#utility.yul\":10765:10968   */\n    tag_390:\n        /* \"#utility.yul\":10781:10789   */\n      dup4\n        /* \"#utility.yul\":10776:10779   */\n      dup2\n        /* \"#utility.yul\":10773:10790   */\n      lt\n        /* \"#utility.yul\":10765:10968   */\n      iszero\n      tag_392\n      jumpi\n        /* \"#utility.yul\":10888:10902   */\n      dup2\n      sload\n        /* \"#utility.yul\":10864:10880   */\n      dup14\n      dup3\n      add\n        /* \"#utility.yul\":10882:10885   */\n      0xc0\n        /* \"#utility.yul\":10860:10886   */\n      add\n        /* \"#utility.yul\":10853:10903   */\n      mstore\n        /* \"#utility.yul\":10948:10949   */\n      0x01\n        /* \"#utility.yul\":10935:10950   */\n      swap1\n      swap2\n      add\n      swap1\n        /* \"#utility.yul\":10800:10812   */\n      dup14\n      add\n        /* \"#utility.yul\":10765:10968   */\n      jump(tag_390)\n    tag_392:\n        /* \"#utility.yul\":10996:11012   */\n      dup13\n      add\n        /* \"#utility.yul\":11014:11017   */\n      0xc0\n        /* \"#utility.yul\":10992:11018   */\n      add\n      swap5\n      pop\n      pop\n        /* \"#utility.yul\":10402:11032   */\n    tag_387:\n      pop\n        /* \"#utility.yul\":11055:11058   */\n      swap2\n      swap9\n      pop\n      pop\n      pop\n        /* \"#utility.yul\":11115:11127   */\n      swap5\n      dup8\n      add\n      swap5\n      pop\n        /* \"#utility.yul\":11093:11094   */\n      0x05\n        /* \"#utility.yul\":11081:11095   */\n      swap2\n      swap1\n      swap2\n      add\n      swap1\n        /* \"#utility.yul\":9885:9886   */\n      0x01\n        /* \"#utility.yul\":9878:9887   */\n      add\n        /* \"#utility.yul\":9849:11137   */\n      jump(tag_381)\n    tag_383:\n      pop\n        /* \"#utility.yul\":11154:11160   */\n      swap4\n      swap9\n        /* \"#utility.yul\":9258:11166   */\n      swap8\n      pop\n      pop\n      pop\n      pop\n      pop\n      pop\n      pop\n      pop\n      jump\t// out\n        /* \"#utility.yul\":12181:12308   */\n    tag_198:\n        /* \"#utility.yul\":12242:12252   */\n      0x4e487b71\n        /* \"#utility.yul\":12237:12240   */\n      0xe0\n        /* \"#utility.yul\":12233:12253   */\n      shl\n        /* \"#utility.yul\":12230:12231   */\n      0x00\n        /* \"#utility.yul\":12223:12254   */\n      mstore\n        /* \"#utility.yul\":12273:12277   */\n      0x31\n        /* \"#utility.yul\":12270:12271   */\n      0x04\n        /* \"#utility.yul\":12263:12278   */\n      mstore\n        /* \"#utility.yul\":12297:12301   */\n      0x24\n        /* \"#utility.yul\":12294:12295   */\n      0x00\n        /* \"#utility.yul\":12287:12302   */\n      revert\n        /* \"#utility.yul\":12313:12440   */\n    tag_318:\n        /* \"#utility.yul\":12374:12384   */\n      0x4e487b71\n        /* \"#utility.yul\":12369:12372   */\n      0xe0\n        /* \"#utility.yul\":12365:12385   */\n      shl\n        /* \"#utility.yul\":12362:12363   */\n      0x00\n        /* \"#utility.yul\":12355:12386   */\n      mstore\n        /* \"#utility.yul\":12405:12409   */\n      0x41\n        /* \"#utility.yul\":12402:12403   */\n      0x04\n        /* \"#utility.yul\":12395:12410   */\n      mstore\n        /* \"#utility.yul\":12429:12433   */\n      0x24\n        /* \"#utility.yul\":12426:12427   */\n      0x00\n        /* \"#utility.yul\":12419:12434   */\n      revert\n        /* \"#utility.yul\":12445:12990   */\n    tag_319:\n        /* \"#utility.yul\":12547:12549   */\n      0x1f\n        /* \"#utility.yul\":12542:12545   */\n      dup3\n        /* \"#utility.yul\":12539:12550   */\n      gt\n        /* \"#utility.yul\":12536:12984   */\n      iszero\n      tag_280\n      jumpi\n        /* \"#utility.yul\":12583:12584   */\n      0x00\n        /* \"#utility.yul\":12608:12613   */\n      dup2\n        /* \"#utility.yul\":12604:12606   */\n      dup2\n        /* \"#utility.yul\":12597:12614   */\n      mstore\n        /* \"#utility.yul\":12653:12657   */\n      0x20\n        /* \"#utility.yul\":12649:12651   */\n      dup2\n        /* \"#utility.yul\":12639:12658   */\n      keccak256\n        /* \"#utility.yul\":12723:12725   */\n      0x1f\n        /* \"#utility.yul\":12711:12721   */\n      dup6\n        /* \"#utility.yul\":12707:12726   */\n      add\n        /* \"#utility.yul\":12704:12705   */\n      0x05\n        /* \"#utility.yul\":12700:12727   */\n      shr\n        /* \"#utility.yul\":12694:12698   */\n      dup2\n        /* \"#utility.yul\":12690:12728   */\n      add\n        /* \"#utility.yul\":12759:12763   */\n      0x20\n        /* \"#utility.yul\":12747:12757   */\n      dup7\n        /* \"#utility.yul\":12744:12764   */\n      lt\n        /* \"#utility.yul\":12741:12788   */\n      iszero\n      tag_400\n      jumpi\n      pop\n        /* \"#utility.yul\":12782:12786   */\n      dup1\n        /* \"#utility.yul\":12741:12788   */\n    tag_400:\n        /* \"#utility.yul\":12837:12839   */\n      0x1f\n        /* \"#utility.yul\":12832:12835   */\n      dup6\n        /* \"#utility.yul\":12828:12840   */\n      add\n        /* \"#utility.yul\":12825:12826   */\n      0x05\n        /* \"#utility.yul\":12821:12841   */\n      shr\n        /* \"#utility.yul\":12815:12819   */\n      dup3\n        /* \"#utility.yul\":12811:12842   */\n      add\n        /* \"#utility.yul\":12801:12842   */\n      swap2\n      pop\n        /* \"#utility.yul\":12892:12974   */\n    tag_401:\n        /* \"#utility.yul\":12910:12912   */\n      dup2\n        /* \"#utility.yul\":12903:12908   */\n      dup2\n        /* \"#utility.yul\":12900:12913   */\n      lt\n        /* \"#utility.yul\":12892:12974   */\n      iszero\n      tag_403\n      jumpi\n        /* \"#utility.yul\":12955:12972   */\n      dup3\n      dup2\n      sstore\n        /* \"#utility.yul\":12936:12937   */\n      0x01\n        /* \"#utility.yul\":12925:12938   */\n      add\n        /* \"#utility.yul\":12892:12974   */\n      jump(tag_401)\n    tag_403:\n        /* \"#utility.yul\":12896:12899   */\n      pop\n      pop\n      pop\n        /* \"#utility.yul\":12445:12990   */\n      pop\n      pop\n      pop\n      jump\t// out\n        /* \"#utility.yul\":13166:14529   */\n    tag_204:\n        /* \"#utility.yul\":13292:13295   */\n      dup2\n        /* \"#utility.yul\":13286:13296   */\n      mload\n        /* \"#utility.yul\":13319:13337   */\n      0xffffffffffffffff\n        /* \"#utility.yul\":13311:13317   */\n      dup2\n        /* \"#utility.yul\":13308:13338   */\n      gt\n        /* \"#utility.yul\":13305:13361   */\n      iszero\n      tag_407\n      jumpi\n        /* \"#utility.yul\":13341:13359   */\n      tag_407\n      tag_318\n      jump\t// in\n    tag_407:\n        /* \"#utility.yul\":13370:13467   */\n      tag_408\n        /* \"#utility.yul\":13460:13466   */\n      dup2\n        /* \"#utility.yul\":13420:13458   */\n      tag_409\n        /* \"#utility.yul\":13452:13456   */\n      dup5\n        /* \"#utility.yul\":13446:13457   */\n      sload\n        /* \"#utility.yul\":13420:13458   */\n      tag_72\n      jump\t// in\n    tag_409:\n        /* \"#utility.yul\":13414:13418   */\n      dup5\n        /* \"#utility.yul\":13370:13467   */\n      tag_319\n      jump\t// in\n    tag_408:\n        /* \"#utility.yul\":13522:13526   */\n      0x20\n      dup1\n        /* \"#utility.yul\":13586:13588   */\n      0x1f\n        /* \"#utility.yul\":13575:13589   */\n      dup4\n      gt\n        /* \"#utility.yul\":13603:13604   */\n      0x01\n        /* \"#utility.yul\":13598:14272   */\n      dup2\n      eq\n      tag_411\n      jumpi\n        /* \"#utility.yul\":14316:14317   */\n      0x00\n        /* \"#utility.yul\":14333:14339   */\n      dup5\n        /* \"#utility.yul\":14330:14419   */\n      iszero\n      tag_412\n      jumpi\n      pop\n        /* \"#utility.yul\":14385:14404   */\n      dup6\n      dup4\n      add\n        /* \"#utility.yul\":14379:14405   */\n      mload\n        /* \"#utility.yul\":14330:14419   */\n    tag_412:\n      not(0x00)\n        /* \"#utility.yul\":13123:13124   */\n      0x03\n        /* \"#utility.yul\":13119:13130   */\n      dup7\n      swap1\n      shl\n        /* \"#utility.yul\":13115:13139   */\n      shr\n        /* \"#utility.yul\":13111:13140   */\n      not\n        /* \"#utility.yul\":13101:13141   */\n      and\n        /* \"#utility.yul\":13147:13148   */\n      0x01\n        /* \"#utility.yul\":13143:13154   */\n      dup6\n      swap1\n      shl\n        /* \"#utility.yul\":13098:13155   */\n      or\n        /* \"#utility.yul\":14432:14513   */\n      dup6\n      sstore\n        /* \"#utility.yul\":13568:14523   */\n      jump(tag_403)\n        /* \"#utility.yul\":13598:14272   */\n    tag_411:\n        /* \"#utility.yul\":8331:8332   */\n      0x00\n        /* \"#utility.yul\":8324:8338   */\n      dup6\n      dup2\n      mstore\n        /* \"#utility.yul\":8368:8372   */\n      0x20\n        /* \"#utility.yul\":8355:8373   */\n      dup2\n      keccak256\n      not(0x1f)\n        /* \"#utility.yul\":13634:13654   */\n      dup7\n      and\n      swap2\n        /* \"#utility.yul\":13763:13999   */\n    tag_415:\n        /* \"#utility.yul\":13777:13784   */\n      dup3\n        /* \"#utility.yul\":13774:13775   */\n      dup2\n        /* \"#utility.yul\":13771:13785   */\n      lt\n        /* \"#utility.yul\":13763:13999   */\n      iszero\n      tag_417\n      jumpi\n        /* \"#utility.yul\":13866:13885   */\n      dup9\n      dup7\n      add\n        /* \"#utility.yul\":13860:13886   */\n      mload\n        /* \"#utility.yul\":13845:13887   */\n      dup3\n      sstore\n        /* \"#utility.yul\":13958:13985   */\n      swap5\n      dup5\n      add\n      swap5\n        /* \"#utility.yul\":13926:13927   */\n      0x01\n        /* \"#utility.yul\":13914:13928   */\n      swap1\n      swap2\n      add\n      swap1\n        /* \"#utility.yul\":13793:13812   */\n      dup5\n      add\n        /* \"#utility.yul\":13763:13999   */\n      jump(tag_415)\n    tag_417:\n        /* \"#utility.yul\":13767:13770   */\n      pop\n        /* \"#utility.yul\":14027:14033   */\n      dup6\n        /* \"#utility.yul\":14018:14025   */\n      dup3\n        /* \"#utility.yul\":14015:14034   */\n      lt\n        /* \"#utility.yul\":14012:14213   */\n      iszero\n      tag_418\n      jumpi\n        /* \"#utility.yul\":14088:14107   */\n      dup8\n      dup6\n      add\n        /* \"#utility.yul\":14082:14108   */\n      mload\n      not(0x00)\n        /* \"#utility.yul\":14171:14172   */\n      0x03\n        /* \"#utility.yul\":14167:14181   */\n      dup9\n      swap1\n      shl\n        /* \"#utility.yul\":14183:14186   */\n      0xf8\n        /* \"#utility.yul\":14163:14187   */\n      and\n        /* \"#utility.yul\":14159:14196   */\n      shr\n        /* \"#utility.yul\":14155:14197   */\n      not\n        /* \"#utility.yul\":14140:14198   */\n      and\n        /* \"#utility.yul\":14125:14199   */\n      dup2\n      sstore\n        /* \"#utility.yul\":14012:14213   */\n    tag_418:\n      pop\n      pop\n      pop\n      pop\n      pop\n        /* \"#utility.yul\":14259:14260   */\n      0x01\n        /* \"#utility.yul\":14243:14257   */\n      swap1\n      dup2\n      shl\n        /* \"#utility.yul\":14239:14261   */\n      add\n        /* \"#utility.yul\":14226:14262   */\n      swap1\n      sstore\n      pop\n        /* \"#utility.yul\":13166:14529   */\n      jump\t// out\n        /* \"#utility.yul\":14534:15987   */\n    tag_233:\n        /* \"#utility.yul\":14649:14652   */\n      dup2\n        /* \"#utility.yul\":14643:14647   */\n      dup2\n        /* \"#utility.yul\":14640:14653   */\n      sub\n        /* \"#utility.yul\":14637:14663   */\n      tag_420\n      jumpi\n        /* \"#utility.yul\":14656:14661   */\n      pop\n      pop\n        /* \"#utility.yul\":14534:15987   */\n      jump\t// out\n        /* \"#utility.yul\":14637:14663   */\n    tag_420:\n        /* \"#utility.yul\":14686:14723   */\n      tag_421\n        /* \"#utility.yul\":14718:14721   */\n      dup3\n        /* \"#utility.yul\":14712:14722   */\n      sload\n        /* \"#utility.yul\":14686:14723   */\n      tag_72\n      jump\t// in\n    tag_421:\n        /* \"#utility.yul\":14746:14764   */\n      0xffffffffffffffff\n        /* \"#utility.yul\":14738:14744   */\n      dup2\n        /* \"#utility.yul\":14735:14765   */\n      gt\n        /* \"#utility.yul\":14732:14788   */\n      iszero\n      tag_423\n      jumpi\n        /* \"#utility.yul\":14768:14786   */\n      tag_423\n      tag_318\n      jump\t// in\n    tag_423:\n        /* \"#utility.yul\":14797:14894   */\n      tag_424\n        /* \"#utility.yul\":14887:14893   */\n      dup2\n        /* \"#utility.yul\":14847:14885   */\n      tag_409\n        /* \"#utility.yul\":14879:14883   */\n      dup5\n        /* \"#utility.yul\":14873:14884   */\n      sload\n        /* \"#utility.yul\":14847:14885   */\n      tag_72\n      jump\t// in\n        /* \"#utility.yul\":14797:14894   */\n    tag_424:\n        /* \"#utility.yul\":14920:14921   */\n      0x00\n        /* \"#utility.yul\":14948:14950   */\n      0x1f\n        /* \"#utility.yul\":14940:14946   */\n      dup3\n        /* \"#utility.yul\":14937:14951   */\n      gt\n        /* \"#utility.yul\":14965:14966   */\n      0x01\n        /* \"#utility.yul\":14960:15730   */\n      dup2\n      eq\n      tag_427\n      jumpi\n        /* \"#utility.yul\":15774:15775   */\n      0x00\n        /* \"#utility.yul\":15791:15797   */\n      dup4\n        /* \"#utility.yul\":15788:15877   */\n      iszero\n      tag_428\n      jumpi\n      pop\n        /* \"#utility.yul\":15843:15862   */\n      dup5\n      dup3\n      add\n        /* \"#utility.yul\":15837:15863   */\n      sload\n        /* \"#utility.yul\":15788:15877   */\n    tag_428:\n      not(0x00)\n        /* \"#utility.yul\":13123:13124   */\n      0x03\n        /* \"#utility.yul\":13119:13130   */\n      dup6\n      swap1\n      shl\n        /* \"#utility.yul\":13115:13139   */\n      shr\n        /* \"#utility.yul\":13111:13140   */\n      not\n        /* \"#utility.yul\":13101:13141   */\n      and\n        /* \"#utility.yul\":13147:13148   */\n      0x01\n        /* \"#utility.yul\":13143:13154   */\n      dup5\n      swap1\n      shl\n        /* \"#utility.yul\":13098:13155   */\n      or\n        /* \"#utility.yul\":15890:15971   */\n      dup5\n      sstore\n        /* \"#utility.yul\":14930:15981   */\n      jump(tag_426)\n        /* \"#utility.yul\":14960:15730   */\n    tag_427:\n        /* \"#utility.yul\":8331:8332   */\n      0x00\n        /* \"#utility.yul\":8324:8338   */\n      dup6\n      dup2\n      mstore\n        /* \"#utility.yul\":8368:8372   */\n      0x20\n        /* \"#utility.yul\":8355:8373   */\n      swap1\n      keccak256\n      not(0x1f)\n        /* \"#utility.yul\":14996:15016   */\n      dup5\n      and\n      swap1\n        /* \"#utility.yul\":8331:8332   */\n      0x00\n        /* \"#utility.yul\":8324:8338   */\n      dup7\n      dup2\n      mstore\n        /* \"#utility.yul\":8368:8372   */\n      0x20\n        /* \"#utility.yul\":8355:8373   */\n      swap1\n      keccak256\n        /* \"#utility.yul\":15182:15191   */\n      dup5\n        /* \"#utility.yul\":15204:15455   */\n    tag_432:\n        /* \"#utility.yul\":15218:15225   */\n      dup4\n        /* \"#utility.yul\":15215:15216   */\n      dup2\n        /* \"#utility.yul\":15212:15226   */\n      lt\n        /* \"#utility.yul\":15204:15455   */\n      iszero\n      tag_434\n      jumpi\n        /* \"#utility.yul\":15300:15321   */\n      dup3\n      dup7\n      add\n        /* \"#utility.yul\":15294:15322   */\n      sload\n        /* \"#utility.yul\":15279:15323   */\n      dup3\n      sstore\n        /* \"#utility.yul\":15350:15351   */\n      0x01\n        /* \"#utility.yul\":15423:15441   */\n      swap6\n      dup7\n      add\n      swap6\n        /* \"#utility.yul\":15378:15393   */\n      swap1\n      swap2\n      add\n      swap1\n        /* \"#utility.yul\":15241:15245   */\n      0x20\n        /* \"#utility.yul\":15234:15246   */\n      add\n        /* \"#utility.yul\":15204:15455   */\n      jump(tag_432)\n    tag_434:\n        /* \"#utility.yul\":15208:15211   */\n      pop\n        /* \"#utility.yul\":15483:15489   */\n      dup6\n        /* \"#utility.yul\":15474:15481   */\n      dup4\n        /* \"#utility.yul\":15471:15490   */\n      lt\n        /* \"#utility.yul\":15468:15671   */\n      iszero\n      tag_435\n      jumpi\n        /* \"#utility.yul\":15544:15565   */\n      dup2\n      dup6\n      add\n        /* \"#utility.yul\":15538:15566   */\n      sload\n      not(0x00)\n        /* \"#utility.yul\":15629:15630   */\n      0x03\n        /* \"#utility.yul\":15625:15639   */\n      dup9\n      swap1\n      shl\n        /* \"#utility.yul\":15641:15644   */\n      0xf8\n        /* \"#utility.yul\":15621:15645   */\n      and\n        /* \"#utility.yul\":15617:15654   */\n      shr\n        /* \"#utility.yul\":15613:15655   */\n      not\n        /* \"#utility.yul\":15598:15656   */\n      and\n        /* \"#utility.yul\":15583:15657   */\n      dup2\n      sstore\n        /* \"#utility.yul\":15468:15671   */\n    tag_435:\n      pop\n      pop\n      pop\n        /* \"#utility.yul\":15717:15718   */\n      0x01\n        /* \"#utility.yul\":15708:15714   */\n      dup4\n        /* \"#utility.yul\":15705:15706   */\n      0x01\n        /* \"#utility.yul\":15701:15715   */\n      shl\n        /* \"#utility.yul\":15697:15719   */\n      add\n        /* \"#utility.yul\":15691:15695   */\n      dup5\n        /* \"#utility.yul\":15684:15720   */\n      sstore\n        /* \"#utility.yul\":14930:15981   */\n    tag_426:\n      pop\n      pop\n      pop\n        /* \"#utility.yul\":14534:15987   */\n      pop\n      pop\n      jump\t// out\n\n    auxdata: 0xa2646970667358221220fe051de7c0102186942157ad50f678a19176dec99140d35426d8c9a2793ab93664736f6c63430008130033\n}\n",
				"bytecode": {
					"linkReferences": {},
					"object": "6080604052600160005560006001556001600455600660085534801561002457600080fd5b50611d6b806100346000396000f3fe608060405234801561001057600080fd5b50600436106100b45760003560e01c80637572b227116100715780637572b2271461012f57806376dad22314610151578063adf496b51461015a578063ccf138e11461016d578063e16c9d5914610175578063f7c4efbb1461018a57600080fd5b806309fa6b09146100b95780631db05a88146100d7578063316926c1146100ec578063512ec557146100fe578063568e19cf146101135780637322878d14610126575b600080fd5b6100c16101aa565b6040516100ce91906116ca565b60405180910390f35b6100ea6100e5366004611717565b61020c565b005b6008545b6040519081526020016100ce565b610106610248565b6040516100ce91906117dd565b6100ea610121366004611717565b610381565b6100f060085481565b61014261013d366004611717565b6104a1565b6040516100ce9392919061183f565b6100f060005481565b6100ea610168366004611717565b610599565b6007546100f0565b61017d610a0a565b6040516100ce919061188f565b61019d610198366004611717565b610a76565b6040516100ce91906118ef565b6060600680548060200260200160405190810160405280929190818152602001828054801561020257602002820191906000526020600020905b81546001600160a01b031681526001909101906020018083116101e4575b5050505050905090565b60008190556040518181527febaa1540a7a2f4fd56917205a7326b45cd094b271e1c175a4c5e472967e60e84906020015b60405180910390a150565b60606002805480602002602001604051908101604052809291908181526020016000905b828210156103785760008481526020908190206040805160a0810182526005860290920180546001600160a01b0390811660608501908152600183015460808601528452825180840184526002830154909116815260038201548186015293830193909352600483018054929392918401916102e790611909565b80601f016020809104026020016040519081016040528092919081815260200182805461031390611909565b80156103605780601f1061033557610100808354040283529160200191610360565b820191906000526020600020905b81548152906001019060200180831161034357829003601f168201915b5050505050815250508152602001906001019061026c565b50505050905090565b61038c600282611943565b156103e85760405162461bcd60e51b815260206004820152602160248201527f5468697320696e707574206d75737420626520616e206576656e206e756d62656044820152603960f91b60648201526084015b60405180910390fd5b6103f0610bd8565b156104265760088190556040517ff8ff0817e4aceb45c1d1dada3ca01735d6f785e54ce0d9985328fb32f5ad514190600090a150565b7fe815d693ac349b875a266c6a263ba6e43c58b822f0472f17cdac4c9671ceffe560405161023d9060208082526030908201527f47616d6520616c72656164792073746172742c206e65656420746f207761697460408201526f040e8d0ca40cec2daca40ccd2dcd2e6d60831b606082015260800190565b50565b600781815481106104b157600080fd5b6000918252602091829020604080518082018252600590930290910180546001600160a01b0390811684526001820154848601528251808401909352600282015416825260038101549382019390935260048301805492945090929161051690611909565b80601f016020809104026020016040519081016040528092919081815260200182805461054290611909565b801561058f5780601f106105645761010080835404028352916020019161058f565b820191906000526020600020905b81548152906001019060200180831161057257829003601f168201915b5050505050905083565b60035460ff16156105e45760405162461bcd60e51b8152602060048201526015602482015274115c9c9bdc8e881499595b9d1c985b9d0818d85b1b605a1b60448201526064016103df565b6003805460ff1916600117905560405133907f6fd5bea3ad79492c3055c6f6b7b37ca66d63ba4ceef7d04dd901559affbe971a90600090a2806000036106635760405162461bcd60e51b815260206004820152601460248201527304572726f723a2043616e277420696e70757420360641b60448201526064016103df565b60038111156106b45760405162461bcd60e51b815260206004820152601e60248201527f4572726f723a2043616e277420696e707574206d6f7265207468616e2033000060448201526064016103df565b6000805b60055481101561080157600581815481106106d5576106d5611965565b60009182526020909120600290910201546001600160a01b031633036107ef57600191507f1d229a771174308da40f70761ba48b700922b118fea40f5e3705f7067c12cc386040516107739060208082526032908201527f596f7520616c726561647920696e207468652071756575652c2077616974206660408201527137b91037ba3432b910383630bc903537b4b760711b606082015260800190565b60405180910390a181156107ef5760405162461bcd60e51b815260206004820152603960248201527f4572726f723a20596f7520616c726561647920696e207468652071756575652c60448201527f207761697420666f72206f7468657220706c6179206a6f696e0000000000000060648201526084016103df565b806107f981611991565b9150506106b8565b5060408051808201909152600080825260208201526005805460018082018355600083905283517f036b6384b5eca791c62761152d0c79bb0604c104a5fb6f4eb0703f3154bb3db0600290930292830180546001600160a01b0319166001600160a01b0390921691909117905560208401517f036b6384b5eca791c62761152d0c79bb0604c104a5fb6f4eb0703f3154bb3db19092019190915581543392916108a9916119aa565b815481106108b9576108b9611965565b6000918252602090912060029091020180546001600160a01b0319166001600160a01b0392909216919091179055600580548491906108fa906001906119aa565b8154811061090a5761090a611965565b6000918252602082206001600290920201810192909255600680549283018155908190527ff652222313e28459528d920b65115c16c04f3efc82aaedc97be59f3f377c0d3f90910180546001600160a01b031916331790556040517f14e40fb773638b86a70b4be5b9adb8cadf42cc23571ea96f58e620df77b3d5a991610990916119c3565b60405180910390a1600854600554036109fb576109af600760006115a4565b6109b7610bf0565b7f9df054af592edccebdc6e6512520c01f0283851828e74dc515158d3053ee6dad60076040516109e79190611a07565b60405180910390a16109fb600660006115c5565b50506003805460ff1916905550565b60606005805480602002602001604051908101604052809291908181526020016000905b82821015610378576000848152602090819020604080518082019091526002850290910180546001600160a01b03168252600190810154828401529083529092019101610a2e565b610a7e6115e3565b600254821115610ac85760405162461bcd60e51b815260206004820152601560248201527408ae4e4dee4744092dcecc2d8d2c840d8cadccee8d605b1b60448201526064016103df565b60028281548110610adb57610adb611965565b60009182526020918290206040805160a081018252600590930290910180546001600160a01b039081166060850190815260018301546080860152845282518084018452600283015490911681526003820154818601529383019390935260048301805492939291840191610b4f90611909565b80601f0160208091040260200160405190810160405280929190818152602001828054610b7b90611909565b8015610bc85780601f10610b9d57610100808354040283529160200191610bc8565b820191906000526020600020905b815481529060010190602001808311610bab57829003601f168201915b5050505050815250509050919050565b6005546000908103610bea5750600190565b50600090565b6000610bfa610c20565b90506000610c06610c20565b9050610c128282610dd9565b5050600554600003610bf057565b6040805180820190915260008082526020820152600554610c745760405162461bcd60e51b815260206004820152600e60248201526d417272617920697320656d70747960901b60448201526064016103df565b6005546004546040805144602082015242918101919091526060810191909152600091906080016040516020818303038152906040528051906020012060001c610cbe9190611943565b600480549192506000610cd083611991565b9190505550600060058281548110610cea57610cea611965565b60009182526020918290206040805180820190915260029092020180546001600160a01b03168252600190810154928201929092526005805491935091610d30916119aa565b81548110610d4057610d40611965565b906000526020600020906002020160058381548110610d6157610d61611965565b60009182526020909120825460029092020180546001600160a01b0319166001600160a01b039092169190911781556001918201549101556005805480610daa57610daa611b20565b60008281526020812060026000199093019283020180546001600160a01b031916815560010155905592915050565b610de16115e3565b60028054600181018255600091909152815180517f405787fa12a823e0f2b7631cc41b3ba8828b3321ca811111fa75cd3aa3bb5ace600590930292830180546001600160a01b03199081166001600160a01b039384161782556020938401517f405787fa12a823e0f2b7631cc41b3ba8828b3321ca811111fa75cd3aa3bb5acf8601558386015180517f405787fa12a823e0f2b7631cc41b3ba8828b3321ca811111fa75cd3aa3bb5ad08701805490931694169390931790559101517f405787fa12a823e0f2b7631cc41b3ba8828b3321ca811111fa75cd3aa3bb5ad1830155604083015183927f405787fa12a823e0f2b7631cc41b3ba8828b3321ca811111fa75cd3aa3bb5ad20190610ef59082611b9a565b505060028054859250610f0a906001906119aa565b81548110610f1a57610f1a611965565b600091825260209182902083516005929092020180546001600160a01b0319166001600160a01b03909216919091178155910151600191820155600280548492610f63916119aa565b81548110610f7357610f73611965565b6000918252602091829020835160059290920201600281810180546001600160a01b0319166001600160a01b039094169390931790925592909101516003909201919091558054610fc6906001906119aa565b81548110610fd657610fd6611965565b600091825260209091206003600590920201015460028054610ffa906001906119aa565b8154811061100a5761100a611965565b9060005260206000209060050201600001600101540361117c57604080518082019091526004815263151a595960e21b60208201526002805461104f906001906119aa565b8154811061105f5761105f611965565b9060005260206000209060050201600401908161107c9190611b9a565b506002805460079190611091906001906119aa565b815481106110a1576110a1611965565b6000918252602080832084546001818101875595855291909320600592830290930180549190920290920180546001600160a01b03199081166001600160a01b03948516178255848301549482019490945560028083015490820180549095169316929092179092556003808301549082015560048082019061112690840182611c5a565b5050507fcde5c32c0a45fd8aa4b65ea8003fc9da9acd5e2c6c24a9fcce6ab79cabbd912260405161116f90602080825260049082015263151a595960e21b604082015260600190565b60405180910390a1505050565b6002805461118c906001906119aa565b8154811061119c5761119c611965565b90600052602060002090600502016000016001015460011480156111f45750600280546111cb906001906119aa565b815481106111db576111db611965565b9060005260206000209060050201600201600101546002145b8061127257506002805461120a906001906119aa565b8154811061121a5761121a611965565b9060005260206000209060050201600001600101546003148015611272575060028054611249906001906119aa565b8154811061125957611259611965565b9060005260206000209060050201600201600101546001145b806112f0575060028054611288906001906119aa565b8154811061129857611298611965565b90600052602060002090600502016000016001015460021480156112f05750600280546112c7906001906119aa565b815481106112d7576112d7611965565b9060005260206000209060050201600201600101546003145b1561144a576040805180820190915260098152682ab9b2b919103bb4b760b91b602082015260028054611325906001906119aa565b8154811061133557611335611965565b906000526020600020906005020160040190816113529190611b9a565b506002805460079190611367906001906119aa565b8154811061137757611377611965565b6000918252602080832084546001818101875595855291909320600592830290930180549190920290920180546001600160a01b03199081166001600160a01b0394851617825584830154948201949094556002808301549082018054909516931692909217909255600380830154908201556004808201906113fc90840182611c5a565b5050507fcde5c32c0a45fd8aa4b65ea8003fc9da9acd5e2c6c24a9fcce6ab79cabbd912260405161116f906020808252600990820152682ab9b2b919103bb4b760b91b604082015260600190565b6040805180820190915260098152682ab9b2b918903bb4b760b91b60208201526002805461147a906001906119aa565b8154811061148a5761148a611965565b906000526020600020906005020160040190816114a79190611b9a565b5060028054600791906114bc906001906119aa565b815481106114cc576114cc611965565b6000918252602080832084546001818101875595855291909320600592830290930180549190920290920180546001600160a01b03199081166001600160a01b03948516178255848301549482019490945560028083015490820180549095169316929092179092556003808301549082015560048082019061155190840182611c5a565b5050507fcde5c32c0a45fd8aa4b65ea8003fc9da9acd5e2c6c24a9fcce6ab79cabbd912260405161116f906020808252600990820152682ab9b2b918903bb4b760b91b604082015260600190565b505050565b508054600082556005029060005260206000209081019061049e919061162d565b508054600082559060005260206000209081019061049e919061167b565b6040805160a08101909152600060608201818152608083019190915281908152602001611620604080518082019091526000808252602082015290565b8152602001606081525090565b808211156116775780546001600160a01b031990811682556000600183018190556002830180549092169091556003820181905561166e6004830182611690565b5060050161162d565b5090565b5b80821115611677576000815560010161167c565b50805461169c90611909565b6000825580601f106116ac575050565b601f01602090049060005260206000209081019061049e919061167b565b6020808252825182820181905260009190848201906040850190845b8181101561170b5783516001600160a01b0316835292840192918401916001016116e6565b50909695505050505050565b60006020828403121561172957600080fd5b5035919050565b6000815180845260005b818110156117565760208185018101518683018201520161173a565b506000602082860101526020601f19601f83011685010191505092915050565b61179482825180516001600160a01b03168252602090810151910152565b600060208201516117bb604085018280516001600160a01b03168252602090810151910152565b50604082015160a060808501526117d560a0850182611730565b949350505050565b6000602080830181845280855180835260408601915060408160051b870101925083870160005b8281101561183257603f19888603018452611820858351611776565b94509285019290850190600101611804565b5092979650505050505050565b83516001600160a01b031681526020808501519082015282516001600160a01b031660408201526020830151606082015260a06080820152600061188660a0830184611730565b95945050505050565b602080825282518282018190526000919060409081850190868401855b828110156118e2576118d284835180516001600160a01b03168252602090810151910152565b92840192908501906001016118ac565b5091979650505050505050565b6020815260006119026020830184611776565b9392505050565b600181811c9082168061191d57607f821691505b60208210810361193d57634e487b7160e01b600052602260045260246000fd5b50919050565b60008261196057634e487b7160e01b600052601260045260246000fd5b500690565b634e487b7160e01b600052603260045260246000fd5b634e487b7160e01b600052601160045260246000fd5b6000600182016119a3576119a361197b565b5060010190565b818103818111156119bd576119bd61197b565b92915050565b6020808252825482820181905260008481528281209092916040850190845b8181101561170b5783546001600160a01b0316835260019384019392850192016119e2565b6000602080830181845280855480835260408601915060408160051b87010192506000878152848120815b83811015611b1257603f1989870301855281546001600160a01b031686526001820154602087015260028201546001600160a01b03166040870152600382015460608701526004820160a06080880152838154611a8e81611909565b8060a08b01526001821660008114611aad5760018114611ac957611af8565b60ff19831660c08c015260c082151560051b8c01019350611af8565b8488528b8820885b83811015611aef5781548d820160c001526001909101908d01611ad1565b8c0160c0019450505b509198505050948701945060059190910190600101611a32565b509398975050505050505050565b634e487b7160e01b600052603160045260246000fd5b634e487b7160e01b600052604160045260246000fd5b601f82111561159f57600081815260208120601f850160051c81016020861015611b735750805b601f850160051c820191505b81811015611b9257828155600101611b7f565b505050505050565b815167ffffffffffffffff811115611bb457611bb4611b36565b611bc881611bc28454611909565b84611b4c565b602080601f831160018114611bfd5760008415611be55750858301515b600019600386901b1c1916600185901b178555611b92565b600085815260208120601f198616915b82811015611c2c57888601518255948401946001909101908401611c0d565b5085821015611c4a5787850151600019600388901b60f8161c191681555b5050505050600190811b01905550565b818103611c65575050565b611c6f8254611909565b67ffffffffffffffff811115611c8757611c87611b36565b611c9581611bc28454611909565b6000601f821160018114611cc95760008315611cb15750848201545b600019600385901b1c1916600184901b178455611d2e565b600085815260209020601f19841690600086815260209020845b83811015611d035782860154825560019586019590910190602001611ce3565b5085831015611d215781850154600019600388901b60f8161c191681555b50505060018360011b0184555b505050505056fea2646970667358221220fe051de7c0102186942157ad50f678a19176dec99140d35426d8c9a2793ab93664736f6c63430008130033",
					"opcodes": "PUSH1 0x80 PUSH1 0x40 MSTORE PUSH1 0x1 PUSH1 0x0 SSTORE PUSH1 0x0 PUSH1 0x1 SSTORE PUSH1 0x1 PUSH1 0x4 SSTORE PUSH1 0x6 PUSH1 0x8 SSTORE CALLVALUE DUP1 ISZERO PUSH2 0x24 JUMPI PUSH1 0x0 DUP1 REVERT JUMPDEST POP PUSH2 0x1D6B DUP1 PUSH2 0x34 PUSH1 0x0 CODECOPY PUSH1 0x0 RETURN INVALID PUSH1 0x80 PUSH1 0x40 MSTORE CALLVALUE DUP1 ISZERO PUSH2 0x10 JUMPI PUSH1 0x0 DUP1 REVERT JUMPDEST POP PUSH1 0x4 CALLDATASIZE LT PUSH2 0xB4 JUMPI PUSH1 0x0 CALLDATALOAD PUSH1 0xE0 SHR DUP1 PUSH4 0x7572B227 GT PUSH2 0x71 JUMPI DUP1 PUSH4 0x7572B227 EQ PUSH2 0x12F JUMPI DUP1 PUSH4 0x76DAD223 EQ PUSH2 0x151 JUMPI DUP1 PUSH4 0xADF496B5 EQ PUSH2 0x15A JUMPI DUP1 PUSH4 0xCCF138E1 EQ PUSH2 0x16D JUMPI DUP1 PUSH4 0xE16C9D59 EQ PUSH2 0x175 JUMPI DUP1 PUSH4 0xF7C4EFBB EQ PUSH2 0x18A JUMPI PUSH1 0x0 DUP1 REVERT JUMPDEST DUP1 PUSH4 0x9FA6B09 EQ PUSH2 0xB9 JUMPI DUP1 PUSH4 0x1DB05A88 EQ PUSH2 0xD7 JUMPI DUP1 PUSH4 0x316926C1 EQ PUSH2 0xEC JUMPI DUP1 PUSH4 0x512EC557 EQ PUSH2 0xFE JUMPI DUP1 PUSH4 0x568E19CF EQ PUSH2 0x113 JUMPI DUP1 PUSH4 0x7322878D EQ PUSH2 0x126 JUMPI JUMPDEST PUSH1 0x0 DUP1 REVERT JUMPDEST PUSH2 0xC1 PUSH2 0x1AA JUMP JUMPDEST PUSH1 0x40 MLOAD PUSH2 0xCE SWAP2 SWAP1 PUSH2 0x16CA JUMP JUMPDEST PUSH1 0x40 MLOAD DUP1 SWAP2 SUB SWAP1 RETURN JUMPDEST PUSH2 0xEA PUSH2 0xE5 CALLDATASIZE PUSH1 0x4 PUSH2 0x1717 JUMP JUMPDEST PUSH2 0x20C JUMP JUMPDEST STOP JUMPDEST PUSH1 0x8 SLOAD JUMPDEST PUSH1 0x40 MLOAD SWAP1 DUP2 MSTORE PUSH1 0x20 ADD PUSH2 0xCE JUMP JUMPDEST PUSH2 0x106 PUSH2 0x248 JUMP JUMPDEST PUSH1 0x40 MLOAD PUSH2 0xCE SWAP2 SWAP1 PUSH2 0x17DD JUMP JUMPDEST PUSH2 0xEA PUSH2 0x121 CALLDATASIZE PUSH1 0x4 PUSH2 0x1717 JUMP JUMPDEST PUSH2 0x381 JUMP JUMPDEST PUSH2 0xF0 PUSH1 0x8 SLOAD DUP2 JUMP JUMPDEST PUSH2 0x142 PUSH2 0x13D CALLDATASIZE PUSH1 0x4 PUSH2 0x1717 JUMP JUMPDEST PUSH2 0x4A1 JUMP JUMPDEST PUSH1 0x40 MLOAD PUSH2 0xCE SWAP4 SWAP3 SWAP2 SWAP1 PUSH2 0x183F JUMP JUMPDEST PUSH2 0xF0 PUSH1 0x0 SLOAD DUP2 JUMP JUMPDEST PUSH2 0xEA PUSH2 0x168 CALLDATASIZE PUSH1 0x4 PUSH2 0x1717 JUMP JUMPDEST PUSH2 0x599 JUMP JUMPDEST PUSH1 0x7 SLOAD PUSH2 0xF0 JUMP JUMPDEST PUSH2 0x17D PUSH2 0xA0A JUMP JUMPDEST PUSH1 0x40 MLOAD PUSH2 0xCE SWAP2 SWAP1 PUSH2 0x188F JUMP JUMPDEST PUSH2 0x19D PUSH2 0x198 CALLDATASIZE PUSH1 0x4 PUSH2 0x1717 JUMP JUMPDEST PUSH2 0xA76 JUMP JUMPDEST PUSH1 0x40 MLOAD PUSH2 0xCE SWAP2 SWAP1 PUSH2 0x18EF JUMP JUMPDEST PUSH1 0x60 PUSH1 0x6 DUP1 SLOAD DUP1 PUSH1 0x20 MUL PUSH1 0x20 ADD PUSH1 0x40 MLOAD SWAP1 DUP2 ADD PUSH1 0x40 MSTORE DUP1 SWAP3 SWAP2 SWAP1 DUP2 DUP2 MSTORE PUSH1 0x20 ADD DUP3 DUP1 SLOAD DUP1 ISZERO PUSH2 0x202 JUMPI PUSH1 0x20 MUL DUP3 ADD SWAP2 SWAP1 PUSH1 0x0 MSTORE PUSH1 0x20 PUSH1 0x0 KECCAK256 SWAP1 JUMPDEST DUP2 SLOAD PUSH1 0x1 PUSH1 0x1 PUSH1 0xA0 SHL SUB AND DUP2 MSTORE PUSH1 0x1 SWAP1 SWAP2 ADD SWAP1 PUSH1 0x20 ADD DUP1 DUP4 GT PUSH2 0x1E4 JUMPI JUMPDEST POP POP POP POP POP SWAP1 POP SWAP1 JUMP JUMPDEST PUSH1 0x0 DUP2 SWAP1 SSTORE PUSH1 0x40 MLOAD DUP2 DUP2 MSTORE PUSH32 0xEBAA1540A7A2F4FD56917205A7326B45CD094B271E1C175A4C5E472967E60E84 SWAP1 PUSH1 0x20 ADD JUMPDEST PUSH1 0x40 MLOAD DUP1 SWAP2 SUB SWAP1 LOG1 POP JUMP JUMPDEST PUSH1 0x60 PUSH1 0x2 DUP1 SLOAD DUP1 PUSH1 0x20 MUL PUSH1 0x20 ADD PUSH1 0x40 MLOAD SWAP1 DUP2 ADD PUSH1 0x40 MSTORE DUP1 SWAP3 SWAP2 SWAP1 DUP2 DUP2 MSTORE PUSH1 0x20 ADD PUSH1 0x0 SWAP1 JUMPDEST DUP3 DUP3 LT ISZERO PUSH2 0x378 JUMPI PUSH1 0x0 DUP5 DUP2 MSTORE PUSH1 0x20 SWAP1 DUP2 SWAP1 KECCAK256 PUSH1 0x40 DUP1 MLOAD PUSH1 0xA0 DUP2 ADD DUP3 MSTORE PUSH1 0x5 DUP7 MUL SWAP1 SWAP3 ADD DUP1 SLOAD PUSH1 0x1 PUSH1 0x1 PUSH1 0xA0 SHL SUB SWAP1 DUP2 AND PUSH1 0x60 DUP6 ADD SWAP1 DUP2 MSTORE PUSH1 0x1 DUP4 ADD SLOAD PUSH1 0x80 DUP7 ADD MSTORE DUP5 MSTORE DUP3 MLOAD DUP1 DUP5 ADD DUP5 MSTORE PUSH1 0x2 DUP4 ADD SLOAD SWAP1 SWAP2 AND DUP2 MSTORE PUSH1 0x3 DUP3 ADD SLOAD DUP2 DUP7 ADD MSTORE SWAP4 DUP4 ADD SWAP4 SWAP1 SWAP4 MSTORE PUSH1 0x4 DUP4 ADD DUP1 SLOAD SWAP3 SWAP4 SWAP3 SWAP2 DUP5 ADD SWAP2 PUSH2 0x2E7 SWAP1 PUSH2 0x1909 JUMP JUMPDEST DUP1 PUSH1 0x1F ADD PUSH1 0x20 DUP1 SWAP2 DIV MUL PUSH1 0x20 ADD PUSH1 0x40 MLOAD SWAP1 DUP2 ADD PUSH1 0x40 MSTORE DUP1 SWAP3 SWAP2 SWAP1 DUP2 DUP2 MSTORE PUSH1 0x20 ADD DUP3 DUP1 SLOAD PUSH2 0x313 SWAP1 PUSH2 0x1909 JUMP JUMPDEST DUP1 ISZERO PUSH2 0x360 JUMPI DUP1 PUSH1 0x1F LT PUSH2 0x335 JUMPI PUSH2 0x100 DUP1 DUP4 SLOAD DIV MUL DUP4 MSTORE SWAP2 PUSH1 0x20 ADD SWAP2 PUSH2 0x360 JUMP JUMPDEST DUP3 ADD SWAP2 SWAP1 PUSH1 0x0 MSTORE PUSH1 0x20 PUSH1 0x0 KECCAK256 SWAP1 JUMPDEST DUP2 SLOAD DUP2 MSTORE SWAP1 PUSH1 0x1 ADD SWAP1 PUSH1 0x20 ADD DUP1 DUP4 GT PUSH2 0x343 JUMPI DUP3 SWAP1 SUB PUSH1 0x1F AND DUP3 ADD SWAP2 JUMPDEST POP POP POP POP POP DUP2 MSTORE POP POP DUP2 MSTORE PUSH1 0x20 ADD SWAP1 PUSH1 0x1 ADD SWAP1 PUSH2 0x26C JUMP JUMPDEST POP POP POP POP SWAP1 POP SWAP1 JUMP JUMPDEST PUSH2 0x38C PUSH1 0x2 DUP3 PUSH2 0x1943 JUMP JUMPDEST ISZERO PUSH2 0x3E8 JUMPI PUSH1 0x40 MLOAD PUSH3 0x461BCD PUSH1 0xE5 SHL DUP2 MSTORE PUSH1 0x20 PUSH1 0x4 DUP3 ADD MSTORE PUSH1 0x21 PUSH1 0x24 DUP3 ADD MSTORE PUSH32 0x5468697320696E707574206D75737420626520616E206576656E206E756D6265 PUSH1 0x44 DUP3 ADD MSTORE PUSH1 0x39 PUSH1 0xF9 SHL PUSH1 0x64 DUP3 ADD MSTORE PUSH1 0x84 ADD JUMPDEST PUSH1 0x40 MLOAD DUP1 SWAP2 SUB SWAP1 REVERT JUMPDEST PUSH2 0x3F0 PUSH2 0xBD8 JUMP JUMPDEST ISZERO PUSH2 0x426 JUMPI PUSH1 0x8 DUP2 SWAP1 SSTORE PUSH1 0x40 MLOAD PUSH32 0xF8FF0817E4ACEB45C1D1DADA3CA01735D6F785E54CE0D9985328FB32F5AD5141 SWAP1 PUSH1 0x0 SWAP1 LOG1 POP JUMP JUMPDEST PUSH32 0xE815D693AC349B875A266C6A263BA6E43C58B822F0472F17CDAC4C9671CEFFE5 PUSH1 0x40 MLOAD PUSH2 0x23D SWAP1 PUSH1 0x20 DUP1 DUP3 MSTORE PUSH1 0x30 SWAP1 DUP3 ADD MSTORE PUSH32 0x47616D6520616C72656164792073746172742C206E65656420746F2077616974 PUSH1 0x40 DUP3 ADD MSTORE PUSH16 0x40E8D0CA40CEC2DACA40CCD2DCD2E6D PUSH1 0x83 SHL PUSH1 0x60 DUP3 ADD MSTORE PUSH1 0x80 ADD SWAP1 JUMP JUMPDEST POP JUMP JUMPDEST PUSH1 0x7 DUP2 DUP2 SLOAD DUP2 LT PUSH2 0x4B1 JUMPI PUSH1 0x0 DUP1 REVERT JUMPDEST PUSH1 0x0 SWAP2 DUP3 MSTORE PUSH1 0x20 SWAP2 DUP3 SWAP1 KECCAK256 PUSH1 0x40 DUP1 MLOAD DUP1 DUP3 ADD DUP3 MSTORE PUSH1 0x5 SWAP1 SWAP4 MUL SWAP1 SWAP2 ADD DUP1 SLOAD PUSH1 0x1 PUSH1 0x1 PUSH1 0xA0 SHL SUB SWAP1 DUP2 AND DUP5 MSTORE PUSH1 0x1 DUP3 ADD SLOAD DUP5 DUP7 ADD MSTORE DUP3 MLOAD DUP1 DUP5 ADD SWAP1 SWAP4 MSTORE PUSH1 0x2 DUP3 ADD SLOAD AND DUP3 MSTORE PUSH1 0x3 DUP2 ADD SLOAD SWAP4 DUP3 ADD SWAP4 SWAP1 SWAP4 MSTORE PUSH1 0x4 DUP4 ADD DUP1 SLOAD SWAP3 SWAP5 POP SWAP1 SWAP3 SWAP2 PUSH2 0x516 SWAP1 PUSH2 0x1909 JUMP JUMPDEST DUP1 PUSH1 0x1F ADD PUSH1 0x20 DUP1 SWAP2 DIV MUL PUSH1 0x20 ADD PUSH1 0x40 MLOAD SWAP1 DUP2 ADD PUSH1 0x40 MSTORE DUP1 SWAP3 SWAP2 SWAP1 DUP2 DUP2 MSTORE PUSH1 0x20 ADD DUP3 DUP1 SLOAD PUSH2 0x542 SWAP1 PUSH2 0x1909 JUMP JUMPDEST DUP1 ISZERO PUSH2 0x58F JUMPI DUP1 PUSH1 0x1F LT PUSH2 0x564 JUMPI PUSH2 0x100 DUP1 DUP4 SLOAD DIV MUL DUP4 MSTORE SWAP2 PUSH1 0x20 ADD SWAP2 PUSH2 0x58F JUMP JUMPDEST DUP3 ADD SWAP2 SWAP1 PUSH1 0x0 MSTORE PUSH1 0x20 PUSH1 0x0 KECCAK256 SWAP1 JUMPDEST DUP2 SLOAD DUP2 MSTORE SWAP1 PUSH1 0x1 ADD SWAP1 PUSH1 0x20 ADD DUP1 DUP4 GT PUSH2 0x572 JUMPI DUP3 SWAP1 SUB PUSH1 0x1F AND DUP3 ADD SWAP2 JUMPDEST POP POP POP POP POP SWAP1 POP DUP4 JUMP JUMPDEST PUSH1 0x3 SLOAD PUSH1 0xFF AND ISZERO PUSH2 0x5E4 JUMPI PUSH1 0x40 MLOAD PUSH3 0x461BCD PUSH1 0xE5 SHL DUP2 MSTORE PUSH1 0x20 PUSH1 0x4 DUP3 ADD MSTORE PUSH1 0x15 PUSH1 0x24 DUP3 ADD MSTORE PUSH21 0x115C9C9BDC8E881499595B9D1C985B9D0818D85B1B PUSH1 0x5A SHL PUSH1 0x44 DUP3 ADD MSTORE PUSH1 0x64 ADD PUSH2 0x3DF JUMP JUMPDEST PUSH1 0x3 DUP1 SLOAD PUSH1 0xFF NOT AND PUSH1 0x1 OR SWAP1 SSTORE PUSH1 0x40 MLOAD CALLER SWAP1 PUSH32 0x6FD5BEA3AD79492C3055C6F6B7B37CA66D63BA4CEEF7D04DD901559AFFBE971A SWAP1 PUSH1 0x0 SWAP1 LOG2 DUP1 PUSH1 0x0 SUB PUSH2 0x663 JUMPI PUSH1 0x40 MLOAD PUSH3 0x461BCD PUSH1 0xE5 SHL DUP2 MSTORE PUSH1 0x20 PUSH1 0x4 DUP3 ADD MSTORE PUSH1 0x14 PUSH1 0x24 DUP3 ADD MSTORE PUSH20 0x4572726F723A2043616E277420696E707574203 PUSH1 0x64 SHL PUSH1 0x44 DUP3 ADD MSTORE PUSH1 0x64 ADD PUSH2 0x3DF JUMP JUMPDEST PUSH1 0x3 DUP2 GT ISZERO PUSH2 0x6B4 JUMPI PUSH1 0x40 MLOAD PUSH3 0x461BCD PUSH1 0xE5 SHL DUP2 MSTORE PUSH1 0x20 PUSH1 0x4 DUP3 ADD MSTORE PUSH1 0x1E PUSH1 0x24 DUP3 ADD MSTORE PUSH32 0x4572726F723A2043616E277420696E707574206D6F7265207468616E20330000 PUSH1 0x44 DUP3 ADD MSTORE PUSH1 0x64 ADD PUSH2 0x3DF JUMP JUMPDEST PUSH1 0x0 DUP1 JUMPDEST PUSH1 0x5 SLOAD DUP2 LT ISZERO PUSH2 0x801 JUMPI PUSH1 0x5 DUP2 DUP2 SLOAD DUP2 LT PUSH2 0x6D5 JUMPI PUSH2 0x6D5 PUSH2 0x1965 JUMP JUMPDEST PUSH1 0x0 SWAP2 DUP3 MSTORE PUSH1 0x20 SWAP1 SWAP2 KECCAK256 PUSH1 0x2 SWAP1 SWAP2 MUL ADD SLOAD PUSH1 0x1 PUSH1 0x1 PUSH1 0xA0 SHL SUB AND CALLER SUB PUSH2 0x7EF JUMPI PUSH1 0x1 SWAP2 POP PUSH32 0x1D229A771174308DA40F70761BA48B700922B118FEA40F5E3705F7067C12CC38 PUSH1 0x40 MLOAD PUSH2 0x773 SWAP1 PUSH1 0x20 DUP1 DUP3 MSTORE PUSH1 0x32 SWAP1 DUP3 ADD MSTORE PUSH32 0x596F7520616C726561647920696E207468652071756575652C20776169742066 PUSH1 0x40 DUP3 ADD MSTORE PUSH18 0x37B91037BA3432B910383630BC903537B4B7 PUSH1 0x71 SHL PUSH1 0x60 DUP3 ADD MSTORE PUSH1 0x80 ADD SWAP1 JUMP JUMPDEST PUSH1 0x40 MLOAD DUP1 SWAP2 SUB SWAP1 LOG1 DUP2 ISZERO PUSH2 0x7EF JUMPI PUSH1 0x40 MLOAD PUSH3 0x461BCD PUSH1 0xE5 SHL DUP2 MSTORE PUSH1 0x20 PUSH1 0x4 DUP3 ADD MSTORE PUSH1 0x39 PUSH1 0x24 DUP3 ADD MSTORE PUSH32 0x4572726F723A20596F7520616C726561647920696E207468652071756575652C PUSH1 0x44 DUP3 ADD MSTORE PUSH32 0x207761697420666F72206F7468657220706C6179206A6F696E00000000000000 PUSH1 0x64 DUP3 ADD MSTORE PUSH1 0x84 ADD PUSH2 0x3DF JUMP JUMPDEST DUP1 PUSH2 0x7F9 DUP2 PUSH2 0x1991 JUMP JUMPDEST SWAP2 POP POP PUSH2 0x6B8 JUMP JUMPDEST POP PUSH1 0x40 DUP1 MLOAD DUP1 DUP3 ADD SWAP1 SWAP2 MSTORE PUSH1 0x0 DUP1 DUP3 MSTORE PUSH1 0x20 DUP3 ADD MSTORE PUSH1 0x5 DUP1 SLOAD PUSH1 0x1 DUP1 DUP3 ADD DUP4 SSTORE PUSH1 0x0 DUP4 SWAP1 MSTORE DUP4 MLOAD PUSH32 0x36B6384B5ECA791C62761152D0C79BB0604C104A5FB6F4EB0703F3154BB3DB0 PUSH1 0x2 SWAP1 SWAP4 MUL SWAP3 DUP4 ADD DUP1 SLOAD PUSH1 0x1 PUSH1 0x1 PUSH1 0xA0 SHL SUB NOT AND PUSH1 0x1 PUSH1 0x1 PUSH1 0xA0 SHL SUB SWAP1 SWAP3 AND SWAP2 SWAP1 SWAP2 OR SWAP1 SSTORE PUSH1 0x20 DUP5 ADD MLOAD PUSH32 0x36B6384B5ECA791C62761152D0C79BB0604C104A5FB6F4EB0703F3154BB3DB1 SWAP1 SWAP3 ADD SWAP2 SWAP1 SWAP2 SSTORE DUP2 SLOAD CALLER SWAP3 SWAP2 PUSH2 0x8A9 SWAP2 PUSH2 0x19AA JUMP JUMPDEST DUP2 SLOAD DUP2 LT PUSH2 0x8B9 JUMPI PUSH2 0x8B9 PUSH2 0x1965 JUMP JUMPDEST PUSH1 0x0 SWAP2 DUP3 MSTORE PUSH1 0x20 SWAP1 SWAP2 KECCAK256 PUSH1 0x2 SWAP1 SWAP2 MUL ADD DUP1 SLOAD PUSH1 0x1 PUSH1 0x1 PUSH1 0xA0 SHL SUB NOT AND PUSH1 0x1 PUSH1 0x1 PUSH1 0xA0 SHL SUB SWAP3 SWAP1 SWAP3 AND SWAP2 SWAP1 SWAP2 OR SWAP1 SSTORE PUSH1 0x5 DUP1 SLOAD DUP5 SWAP2 SWAP1 PUSH2 0x8FA SWAP1 PUSH1 0x1 SWAP1 PUSH2 0x19AA JUMP JUMPDEST DUP2 SLOAD DUP2 LT PUSH2 0x90A JUMPI PUSH2 0x90A PUSH2 0x1965 JUMP JUMPDEST PUSH1 0x0 SWAP2 DUP3 MSTORE PUSH1 0x20 DUP3 KECCAK256 PUSH1 0x1 PUSH1 0x2 SWAP1 SWAP3 MUL ADD DUP2 ADD SWAP3 SWAP1 SWAP3 SSTORE PUSH1 0x6 DUP1 SLOAD SWAP3 DUP4 ADD DUP2 SSTORE SWAP1 DUP2 SWAP1 MSTORE PUSH32 0xF652222313E28459528D920B65115C16C04F3EFC82AAEDC97BE59F3F377C0D3F SWAP1 SWAP2 ADD DUP1 SLOAD PUSH1 0x1 PUSH1 0x1 PUSH1 0xA0 SHL SUB NOT AND CALLER OR SWAP1 SSTORE PUSH1 0x40 MLOAD PUSH32 0x14E40FB773638B86A70B4BE5B9ADB8CADF42CC23571EA96F58E620DF77B3D5A9 SWAP2 PUSH2 0x990 SWAP2 PUSH2 0x19C3 JUMP JUMPDEST PUSH1 0x40 MLOAD DUP1 SWAP2 SUB SWAP1 LOG1 PUSH1 0x8 SLOAD PUSH1 0x5 SLOAD SUB PUSH2 0x9FB JUMPI PUSH2 0x9AF PUSH1 0x7 PUSH1 0x0 PUSH2 0x15A4 JUMP JUMPDEST PUSH2 0x9B7 PUSH2 0xBF0 JUMP JUMPDEST PUSH32 0x9DF054AF592EDCCEBDC6E6512520C01F0283851828E74DC515158D3053EE6DAD PUSH1 0x7 PUSH1 0x40 MLOAD PUSH2 0x9E7 SWAP2 SWAP1 PUSH2 0x1A07 JUMP JUMPDEST PUSH1 0x40 MLOAD DUP1 SWAP2 SUB SWAP1 LOG1 PUSH2 0x9FB PUSH1 0x6 PUSH1 0x0 PUSH2 0x15C5 JUMP JUMPDEST POP POP PUSH1 0x3 DUP1 SLOAD PUSH1 0xFF NOT AND SWAP1 SSTORE POP JUMP JUMPDEST PUSH1 0x60 PUSH1 0x5 DUP1 SLOAD DUP1 PUSH1 0x20 MUL PUSH1 0x20 ADD PUSH1 0x40 MLOAD SWAP1 DUP2 ADD PUSH1 0x40 MSTORE DUP1 SWAP3 SWAP2 SWAP1 DUP2 DUP2 MSTORE PUSH1 0x20 ADD PUSH1 0x0 SWAP1 JUMPDEST DUP3 DUP3 LT ISZERO PUSH2 0x378 JUMPI PUSH1 0x0 DUP5 DUP2 MSTORE PUSH1 0x20 SWAP1 DUP2 SWAP1 KECCAK256 PUSH1 0x40 DUP1 MLOAD DUP1 DUP3 ADD SWAP1 SWAP2 MSTORE PUSH1 0x2 DUP6 MUL SWAP1 SWAP2 ADD DUP1 SLOAD PUSH1 0x1 PUSH1 0x1 PUSH1 0xA0 SHL SUB AND DUP3 MSTORE PUSH1 0x1 SWAP1 DUP2 ADD SLOAD DUP3 DUP5 ADD MSTORE SWAP1 DUP4 MSTORE SWAP1 SWAP3 ADD SWAP2 ADD PUSH2 0xA2E JUMP JUMPDEST PUSH2 0xA7E PUSH2 0x15E3 JUMP JUMPDEST PUSH1 0x2 SLOAD DUP3 GT ISZERO PUSH2 0xAC8 JUMPI PUSH1 0x40 MLOAD PUSH3 0x461BCD PUSH1 0xE5 SHL DUP2 MSTORE PUSH1 0x20 PUSH1 0x4 DUP3 ADD MSTORE PUSH1 0x15 PUSH1 0x24 DUP3 ADD MSTORE PUSH21 0x8AE4E4DEE4744092DCECC2D8D2C840D8CADCCEE8D PUSH1 0x5B SHL PUSH1 0x44 DUP3 ADD MSTORE PUSH1 0x64 ADD PUSH2 0x3DF JUMP JUMPDEST PUSH1 0x2 DUP3 DUP2 SLOAD DUP2 LT PUSH2 0xADB JUMPI PUSH2 0xADB PUSH2 0x1965 JUMP JUMPDEST PUSH1 0x0 SWAP2 DUP3 MSTORE PUSH1 0x20 SWAP2 DUP3 SWAP1 KECCAK256 PUSH1 0x40 DUP1 MLOAD PUSH1 0xA0 DUP2 ADD DUP3 MSTORE PUSH1 0x5 SWAP1 SWAP4 MUL SWAP1 SWAP2 ADD DUP1 SLOAD PUSH1 0x1 PUSH1 0x1 PUSH1 0xA0 SHL SUB SWAP1 DUP2 AND PUSH1 0x60 DUP6 ADD SWAP1 DUP2 MSTORE PUSH1 0x1 DUP4 ADD SLOAD PUSH1 0x80 DUP7 ADD MSTORE DUP5 MSTORE DUP3 MLOAD DUP1 DUP5 ADD DUP5 MSTORE PUSH1 0x2 DUP4 ADD SLOAD SWAP1 SWAP2 AND DUP2 MSTORE PUSH1 0x3 DUP3 ADD SLOAD DUP2 DUP7 ADD MSTORE SWAP4 DUP4 ADD SWAP4 SWAP1 SWAP4 MSTORE PUSH1 0x4 DUP4 ADD DUP1 SLOAD SWAP3 SWAP4 SWAP3 SWAP2 DUP5 ADD SWAP2 PUSH2 0xB4F SWAP1 PUSH2 0x1909 JUMP JUMPDEST DUP1 PUSH1 0x1F ADD PUSH1 0x20 DUP1 SWAP2 DIV MUL PUSH1 0x20 ADD PUSH1 0x40 MLOAD SWAP1 DUP2 ADD PUSH1 0x40 MSTORE DUP1 SWAP3 SWAP2 SWAP1 DUP2 DUP2 MSTORE PUSH1 0x20 ADD DUP3 DUP1 SLOAD PUSH2 0xB7B SWAP1 PUSH2 0x1909 JUMP JUMPDEST DUP1 ISZERO PUSH2 0xBC8 JUMPI DUP1 PUSH1 0x1F LT PUSH2 0xB9D JUMPI PUSH2 0x100 DUP1 DUP4 SLOAD DIV MUL DUP4 MSTORE SWAP2 PUSH1 0x20 ADD SWAP2 PUSH2 0xBC8 JUMP JUMPDEST DUP3 ADD SWAP2 SWAP1 PUSH1 0x0 MSTORE PUSH1 0x20 PUSH1 0x0 KECCAK256 SWAP1 JUMPDEST DUP2 SLOAD DUP2 MSTORE SWAP1 PUSH1 0x1 ADD SWAP1 PUSH1 0x20 ADD DUP1 DUP4 GT PUSH2 0xBAB JUMPI DUP3 SWAP1 SUB PUSH1 0x1F AND DUP3 ADD SWAP2 JUMPDEST POP POP POP POP POP DUP2 MSTORE POP POP SWAP1 POP SWAP2 SWAP1 POP JUMP JUMPDEST PUSH1 0x5 SLOAD PUSH1 0x0 SWAP1 DUP2 SUB PUSH2 0xBEA JUMPI POP PUSH1 0x1 SWAP1 JUMP JUMPDEST POP PUSH1 0x0 SWAP1 JUMP JUMPDEST PUSH1 0x0 PUSH2 0xBFA PUSH2 0xC20 JUMP JUMPDEST SWAP1 POP PUSH1 0x0 PUSH2 0xC06 PUSH2 0xC20 JUMP JUMPDEST SWAP1 POP PUSH2 0xC12 DUP3 DUP3 PUSH2 0xDD9 JUMP JUMPDEST POP POP PUSH1 0x5 SLOAD PUSH1 0x0 SUB PUSH2 0xBF0 JUMPI JUMP JUMPDEST PUSH1 0x40 DUP1 MLOAD DUP1 DUP3 ADD SWAP1 SWAP2 MSTORE PUSH1 0x0 DUP1 DUP3 MSTORE PUSH1 0x20 DUP3 ADD MSTORE PUSH1 0x5 SLOAD PUSH2 0xC74 JUMPI PUSH1 0x40 MLOAD PUSH3 0x461BCD PUSH1 0xE5 SHL DUP2 MSTORE PUSH1 0x20 PUSH1 0x4 DUP3 ADD MSTORE PUSH1 0xE PUSH1 0x24 DUP3 ADD MSTORE PUSH14 0x417272617920697320656D707479 PUSH1 0x90 SHL PUSH1 0x44 DUP3 ADD MSTORE PUSH1 0x64 ADD PUSH2 0x3DF JUMP JUMPDEST PUSH1 0x5 SLOAD PUSH1 0x4 SLOAD PUSH1 0x40 DUP1 MLOAD PREVRANDAO PUSH1 0x20 DUP3 ADD MSTORE TIMESTAMP SWAP2 DUP2 ADD SWAP2 SWAP1 SWAP2 MSTORE PUSH1 0x60 DUP2 ADD SWAP2 SWAP1 SWAP2 MSTORE PUSH1 0x0 SWAP2 SWAP1 PUSH1 0x80 ADD PUSH1 0x40 MLOAD PUSH1 0x20 DUP2 DUP4 SUB SUB DUP2 MSTORE SWAP1 PUSH1 0x40 MSTORE DUP1 MLOAD SWAP1 PUSH1 0x20 ADD KECCAK256 PUSH1 0x0 SHR PUSH2 0xCBE SWAP2 SWAP1 PUSH2 0x1943 JUMP JUMPDEST PUSH1 0x4 DUP1 SLOAD SWAP2 SWAP3 POP PUSH1 0x0 PUSH2 0xCD0 DUP4 PUSH2 0x1991 JUMP JUMPDEST SWAP2 SWAP1 POP SSTORE POP PUSH1 0x0 PUSH1 0x5 DUP3 DUP2 SLOAD DUP2 LT PUSH2 0xCEA JUMPI PUSH2 0xCEA PUSH2 0x1965 JUMP JUMPDEST PUSH1 0x0 SWAP2 DUP3 MSTORE PUSH1 0x20 SWAP2 DUP3 SWAP1 KECCAK256 PUSH1 0x40 DUP1 MLOAD DUP1 DUP3 ADD SWAP1 SWAP2 MSTORE PUSH1 0x2 SWAP1 SWAP3 MUL ADD DUP1 SLOAD PUSH1 0x1 PUSH1 0x1 PUSH1 0xA0 SHL SUB AND DUP3 MSTORE PUSH1 0x1 SWAP1 DUP2 ADD SLOAD SWAP3 DUP3 ADD SWAP3 SWAP1 SWAP3 MSTORE PUSH1 0x5 DUP1 SLOAD SWAP2 SWAP4 POP SWAP2 PUSH2 0xD30 SWAP2 PUSH2 0x19AA JUMP JUMPDEST DUP2 SLOAD DUP2 LT PUSH2 0xD40 JUMPI PUSH2 0xD40 PUSH2 0x1965 JUMP JUMPDEST SWAP1 PUSH1 0x0 MSTORE PUSH1 0x20 PUSH1 0x0 KECCAK256 SWAP1 PUSH1 0x2 MUL ADD PUSH1 0x5 DUP4 DUP2 SLOAD DUP2 LT PUSH2 0xD61 JUMPI PUSH2 0xD61 PUSH2 0x1965 JUMP JUMPDEST PUSH1 0x0 SWAP2 DUP3 MSTORE PUSH1 0x20 SWAP1 SWAP2 KECCAK256 DUP3 SLOAD PUSH1 0x2 SWAP1 SWAP3 MUL ADD DUP1 SLOAD PUSH1 0x1 PUSH1 0x1 PUSH1 0xA0 SHL SUB NOT AND PUSH1 0x1 PUSH1 0x1 PUSH1 0xA0 SHL SUB SWAP1 SWAP3 AND SWAP2 SWAP1 SWAP2 OR DUP2 SSTORE PUSH1 0x1 SWAP2 DUP3 ADD SLOAD SWAP2 ADD SSTORE PUSH1 0x5 DUP1 SLOAD DUP1 PUSH2 0xDAA JUMPI PUSH2 0xDAA PUSH2 0x1B20 JUMP JUMPDEST PUSH1 0x0 DUP3 DUP2 MSTORE PUSH1 0x20 DUP2 KECCAK256 PUSH1 0x2 PUSH1 0x0 NOT SWAP1 SWAP4 ADD SWAP3 DUP4 MUL ADD DUP1 SLOAD PUSH1 0x1 PUSH1 0x1 PUSH1 0xA0 SHL SUB NOT AND DUP2 SSTORE PUSH1 0x1 ADD SSTORE SWAP1 SSTORE SWAP3 SWAP2 POP POP JUMP JUMPDEST PUSH2 0xDE1 PUSH2 0x15E3 JUMP JUMPDEST PUSH1 0x2 DUP1 SLOAD PUSH1 0x1 DUP2 ADD DUP3 SSTORE PUSH1 0x0 SWAP2 SWAP1 SWAP2 MSTORE DUP2 MLOAD DUP1 MLOAD PUSH32 0x405787FA12A823E0F2B7631CC41B3BA8828B3321CA811111FA75CD3AA3BB5ACE PUSH1 0x5 SWAP1 SWAP4 MUL SWAP3 DUP4 ADD DUP1 SLOAD PUSH1 0x1 PUSH1 0x1 PUSH1 0xA0 SHL SUB NOT SWAP1 DUP2 AND PUSH1 0x1 PUSH1 0x1 PUSH1 0xA0 SHL SUB SWAP4 DUP5 AND OR DUP3 SSTORE PUSH1 0x20 SWAP4 DUP5 ADD MLOAD PUSH32 0x405787FA12A823E0F2B7631CC41B3BA8828B3321CA811111FA75CD3AA3BB5ACF DUP7 ADD SSTORE DUP4 DUP7 ADD MLOAD DUP1 MLOAD PUSH32 0x405787FA12A823E0F2B7631CC41B3BA8828B3321CA811111FA75CD3AA3BB5AD0 DUP8 ADD DUP1 SLOAD SWAP1 SWAP4 AND SWAP5 AND SWAP4 SWAP1 SWAP4 OR SWAP1 SSTORE SWAP2 ADD MLOAD PUSH32 0x405787FA12A823E0F2B7631CC41B3BA8828B3321CA811111FA75CD3AA3BB5AD1 DUP4 ADD SSTORE PUSH1 0x40 DUP4 ADD MLOAD DUP4 SWAP3 PUSH32 0x405787FA12A823E0F2B7631CC41B3BA8828B3321CA811111FA75CD3AA3BB5AD2 ADD SWAP1 PUSH2 0xEF5 SWAP1 DUP3 PUSH2 0x1B9A JUMP JUMPDEST POP POP PUSH1 0x2 DUP1 SLOAD DUP6 SWAP3 POP PUSH2 0xF0A SWAP1 PUSH1 0x1 SWAP1 PUSH2 0x19AA JUMP JUMPDEST DUP2 SLOAD DUP2 LT PUSH2 0xF1A JUMPI PUSH2 0xF1A PUSH2 0x1965 JUMP JUMPDEST PUSH1 0x0 SWAP2 DUP3 MSTORE PUSH1 0x20 SWAP2 DUP3 SWAP1 KECCAK256 DUP4 MLOAD PUSH1 0x5 SWAP3 SWAP1 SWAP3 MUL ADD DUP1 SLOAD PUSH1 0x1 PUSH1 0x1 PUSH1 0xA0 SHL SUB NOT AND PUSH1 0x1 PUSH1 0x1 PUSH1 0xA0 SHL SUB SWAP1 SWAP3 AND SWAP2 SWAP1 SWAP2 OR DUP2 SSTORE SWAP2 ADD MLOAD PUSH1 0x1 SWAP2 DUP3 ADD SSTORE PUSH1 0x2 DUP1 SLOAD DUP5 SWAP3 PUSH2 0xF63 SWAP2 PUSH2 0x19AA JUMP JUMPDEST DUP2 SLOAD DUP2 LT PUSH2 0xF73 JUMPI PUSH2 0xF73 PUSH2 0x1965 JUMP JUMPDEST PUSH1 0x0 SWAP2 DUP3 MSTORE PUSH1 0x20 SWAP2 DUP3 SWAP1 KECCAK256 DUP4 MLOAD PUSH1 0x5 SWAP3 SWAP1 SWAP3 MUL ADD PUSH1 0x2 DUP2 DUP2 ADD DUP1 SLOAD PUSH1 0x1 PUSH1 0x1 PUSH1 0xA0 SHL SUB NOT AND PUSH1 0x1 PUSH1 0x1 PUSH1 0xA0 SHL SUB SWAP1 SWAP5 AND SWAP4 SWAP1 SWAP4 OR SWAP1 SWAP3 SSTORE SWAP3 SWAP1 SWAP2 ADD MLOAD PUSH1 0x3 SWAP1 SWAP3 ADD SWAP2 SWAP1 SWAP2 SSTORE DUP1 SLOAD PUSH2 0xFC6 SWAP1 PUSH1 0x1 SWAP1 PUSH2 0x19AA JUMP JUMPDEST DUP2 SLOAD DUP2 LT PUSH2 0xFD6 JUMPI PUSH2 0xFD6 PUSH2 0x1965 JUMP JUMPDEST PUSH1 0x0 SWAP2 DUP3 MSTORE PUSH1 0x20 SWAP1 SWAP2 KECCAK256 PUSH1 0x3 PUSH1 0x5 SWAP1 SWAP3 MUL ADD ADD SLOAD PUSH1 0x2 DUP1 SLOAD PUSH2 0xFFA SWAP1 PUSH1 0x1 SWAP1 PUSH2 0x19AA JUMP JUMPDEST DUP2 SLOAD DUP2 LT PUSH2 0x100A JUMPI PUSH2 0x100A PUSH2 0x1965 JUMP JUMPDEST SWAP1 PUSH1 0x0 MSTORE PUSH1 0x20 PUSH1 0x0 KECCAK256 SWAP1 PUSH1 0x5 MUL ADD PUSH1 0x0 ADD PUSH1 0x1 ADD SLOAD SUB PUSH2 0x117C JUMPI PUSH1 0x40 DUP1 MLOAD DUP1 DUP3 ADD SWAP1 SWAP2 MSTORE PUSH1 0x4 DUP2 MSTORE PUSH4 0x151A5959 PUSH1 0xE2 SHL PUSH1 0x20 DUP3 ADD MSTORE PUSH1 0x2 DUP1 SLOAD PUSH2 0x104F SWAP1 PUSH1 0x1 SWAP1 PUSH2 0x19AA JUMP JUMPDEST DUP2 SLOAD DUP2 LT PUSH2 0x105F JUMPI PUSH2 0x105F PUSH2 0x1965 JUMP JUMPDEST SWAP1 PUSH1 0x0 MSTORE PUSH1 0x20 PUSH1 0x0 KECCAK256 SWAP1 PUSH1 0x5 MUL ADD PUSH1 0x4 ADD SWAP1 DUP2 PUSH2 0x107C SWAP2 SWAP1 PUSH2 0x1B9A JUMP JUMPDEST POP PUSH1 0x2 DUP1 SLOAD PUSH1 0x7 SWAP2 SWAP1 PUSH2 0x1091 SWAP1 PUSH1 0x1 SWAP1 PUSH2 0x19AA JUMP JUMPDEST DUP2 SLOAD DUP2 LT PUSH2 0x10A1 JUMPI PUSH2 0x10A1 PUSH2 0x1965 JUMP JUMPDEST PUSH1 0x0 SWAP2 DUP3 MSTORE PUSH1 0x20 DUP1 DUP4 KECCAK256 DUP5 SLOAD PUSH1 0x1 DUP2 DUP2 ADD DUP8 SSTORE SWAP6 DUP6 MSTORE SWAP2 SWAP1 SWAP4 KECCAK256 PUSH1 0x5 SWAP3 DUP4 MUL SWAP1 SWAP4 ADD DUP1 SLOAD SWAP2 SWAP1 SWAP3 MUL SWAP1 SWAP3 ADD DUP1 SLOAD PUSH1 0x1 PUSH1 0x1 PUSH1 0xA0 SHL SUB NOT SWAP1 DUP2 AND PUSH1 0x1 PUSH1 0x1 PUSH1 0xA0 SHL SUB SWAP5 DUP6 AND OR DUP3 SSTORE DUP5 DUP4 ADD SLOAD SWAP5 DUP3 ADD SWAP5 SWAP1 SWAP5 SSTORE PUSH1 0x2 DUP1 DUP4 ADD SLOAD SWAP1 DUP3 ADD DUP1 SLOAD SWAP1 SWAP6 AND SWAP4 AND SWAP3 SWAP1 SWAP3 OR SWAP1 SWAP3 SSTORE PUSH1 0x3 DUP1 DUP4 ADD SLOAD SWAP1 DUP3 ADD SSTORE PUSH1 0x4 DUP1 DUP3 ADD SWAP1 PUSH2 0x1126 SWAP1 DUP5 ADD DUP3 PUSH2 0x1C5A JUMP JUMPDEST POP POP POP PUSH32 0xCDE5C32C0A45FD8AA4B65EA8003FC9DA9ACD5E2C6C24A9FCCE6AB79CABBD9122 PUSH1 0x40 MLOAD PUSH2 0x116F SWAP1 PUSH1 0x20 DUP1 DUP3 MSTORE PUSH1 0x4 SWAP1 DUP3 ADD MSTORE PUSH4 0x151A5959 PUSH1 0xE2 SHL PUSH1 0x40 DUP3 ADD MSTORE PUSH1 0x60 ADD SWAP1 JUMP JUMPDEST PUSH1 0x40 MLOAD DUP1 SWAP2 SUB SWAP1 LOG1 POP POP POP JUMP JUMPDEST PUSH1 0x2 DUP1 SLOAD PUSH2 0x118C SWAP1 PUSH1 0x1 SWAP1 PUSH2 0x19AA JUMP JUMPDEST DUP2 SLOAD DUP2 LT PUSH2 0x119C JUMPI PUSH2 0x119C PUSH2 0x1965 JUMP JUMPDEST SWAP1 PUSH1 0x0 MSTORE PUSH1 0x20 PUSH1 0x0 KECCAK256 SWAP1 PUSH1 0x5 MUL ADD PUSH1 0x0 ADD PUSH1 0x1 ADD SLOAD PUSH1 0x1 EQ DUP1 ISZERO PUSH2 0x11F4 JUMPI POP PUSH1 0x2 DUP1 SLOAD PUSH2 0x11CB SWAP1 PUSH1 0x1 SWAP1 PUSH2 0x19AA JUMP JUMPDEST DUP2 SLOAD DUP2 LT PUSH2 0x11DB JUMPI PUSH2 0x11DB PUSH2 0x1965 JUMP JUMPDEST SWAP1 PUSH1 0x0 MSTORE PUSH1 0x20 PUSH1 0x0 KECCAK256 SWAP1 PUSH1 0x5 MUL ADD PUSH1 0x2 ADD PUSH1 0x1 ADD SLOAD PUSH1 0x2 EQ JUMPDEST DUP1 PUSH2 0x1272 JUMPI POP PUSH1 0x2 DUP1 SLOAD PUSH2 0x120A SWAP1 PUSH1 0x1 SWAP1 PUSH2 0x19AA JUMP JUMPDEST DUP2 SLOAD DUP2 LT PUSH2 0x121A JUMPI PUSH2 0x121A PUSH2 0x1965 JUMP JUMPDEST SWAP1 PUSH1 0x0 MSTORE PUSH1 0x20 PUSH1 0x0 KECCAK256 SWAP1 PUSH1 0x5 MUL ADD PUSH1 0x0 ADD PUSH1 0x1 ADD SLOAD PUSH1 0x3 EQ DUP1 ISZERO PUSH2 0x1272 JUMPI POP PUSH1 0x2 DUP1 SLOAD PUSH2 0x1249 SWAP1 PUSH1 0x1 SWAP1 PUSH2 0x19AA JUMP JUMPDEST DUP2 SLOAD DUP2 LT PUSH2 0x1259 JUMPI PUSH2 0x1259 PUSH2 0x1965 JUMP JUMPDEST SWAP1 PUSH1 0x0 MSTORE PUSH1 0x20 PUSH1 0x0 KECCAK256 SWAP1 PUSH1 0x5 MUL ADD PUSH1 0x2 ADD PUSH1 0x1 ADD SLOAD PUSH1 0x1 EQ JUMPDEST DUP1 PUSH2 0x12F0 JUMPI POP PUSH1 0x2 DUP1 SLOAD PUSH2 0x1288 SWAP1 PUSH1 0x1 SWAP1 PUSH2 0x19AA JUMP JUMPDEST DUP2 SLOAD DUP2 LT PUSH2 0x1298 JUMPI PUSH2 0x1298 PUSH2 0x1965 JUMP JUMPDEST SWAP1 PUSH1 0x0 MSTORE PUSH1 0x20 PUSH1 0x0 KECCAK256 SWAP1 PUSH1 0x5 MUL ADD PUSH1 0x0 ADD PUSH1 0x1 ADD SLOAD PUSH1 0x2 EQ DUP1 ISZERO PUSH2 0x12F0 JUMPI POP PUSH1 0x2 DUP1 SLOAD PUSH2 0x12C7 SWAP1 PUSH1 0x1 SWAP1 PUSH2 0x19AA JUMP JUMPDEST DUP2 SLOAD DUP2 LT PUSH2 0x12D7 JUMPI PUSH2 0x12D7 PUSH2 0x1965 JUMP JUMPDEST SWAP1 PUSH1 0x0 MSTORE PUSH1 0x20 PUSH1 0x0 KECCAK256 SWAP1 PUSH1 0x5 MUL ADD PUSH1 0x2 ADD PUSH1 0x1 ADD SLOAD PUSH1 0x3 EQ JUMPDEST ISZERO PUSH2 0x144A JUMPI PUSH1 0x40 DUP1 MLOAD DUP1 DUP3 ADD SWAP1 SWAP2 MSTORE PUSH1 0x9 DUP2 MSTORE PUSH9 0x2AB9B2B919103BB4B7 PUSH1 0xB9 SHL PUSH1 0x20 DUP3 ADD MSTORE PUSH1 0x2 DUP1 SLOAD PUSH2 0x1325 SWAP1 PUSH1 0x1 SWAP1 PUSH2 0x19AA JUMP JUMPDEST DUP2 SLOAD DUP2 LT PUSH2 0x1335 JUMPI PUSH2 0x1335 PUSH2 0x1965 JUMP JUMPDEST SWAP1 PUSH1 0x0 MSTORE PUSH1 0x20 PUSH1 0x0 KECCAK256 SWAP1 PUSH1 0x5 MUL ADD PUSH1 0x4 ADD SWAP1 DUP2 PUSH2 0x1352 SWAP2 SWAP1 PUSH2 0x1B9A JUMP JUMPDEST POP PUSH1 0x2 DUP1 SLOAD PUSH1 0x7 SWAP2 SWAP1 PUSH2 0x1367 SWAP1 PUSH1 0x1 SWAP1 PUSH2 0x19AA JUMP JUMPDEST DUP2 SLOAD DUP2 LT PUSH2 0x1377 JUMPI PUSH2 0x1377 PUSH2 0x1965 JUMP JUMPDEST PUSH1 0x0 SWAP2 DUP3 MSTORE PUSH1 0x20 DUP1 DUP4 KECCAK256 DUP5 SLOAD PUSH1 0x1 DUP2 DUP2 ADD DUP8 SSTORE SWAP6 DUP6 MSTORE SWAP2 SWAP1 SWAP4 KECCAK256 PUSH1 0x5 SWAP3 DUP4 MUL SWAP1 SWAP4 ADD DUP1 SLOAD SWAP2 SWAP1 SWAP3 MUL SWAP1 SWAP3 ADD DUP1 SLOAD PUSH1 0x1 PUSH1 0x1 PUSH1 0xA0 SHL SUB NOT SWAP1 DUP2 AND PUSH1 0x1 PUSH1 0x1 PUSH1 0xA0 SHL SUB SWAP5 DUP6 AND OR DUP3 SSTORE DUP5 DUP4 ADD SLOAD SWAP5 DUP3 ADD SWAP5 SWAP1 SWAP5 SSTORE PUSH1 0x2 DUP1 DUP4 ADD SLOAD SWAP1 DUP3 ADD DUP1 SLOAD SWAP1 SWAP6 AND SWAP4 AND SWAP3 SWAP1 SWAP3 OR SWAP1 SWAP3 SSTORE PUSH1 0x3 DUP1 DUP4 ADD SLOAD SWAP1 DUP3 ADD SSTORE PUSH1 0x4 DUP1 DUP3 ADD SWAP1 PUSH2 0x13FC SWAP1 DUP5 ADD DUP3 PUSH2 0x1C5A JUMP JUMPDEST POP POP POP PUSH32 0xCDE5C32C0A45FD8AA4B65EA8003FC9DA9ACD5E2C6C24A9FCCE6AB79CABBD9122 PUSH1 0x40 MLOAD PUSH2 0x116F SWAP1 PUSH1 0x20 DUP1 DUP3 MSTORE PUSH1 0x9 SWAP1 DUP3 ADD MSTORE PUSH9 0x2AB9B2B919103BB4B7 PUSH1 0xB9 SHL PUSH1 0x40 DUP3 ADD MSTORE PUSH1 0x60 ADD SWAP1 JUMP JUMPDEST PUSH1 0x40 DUP1 MLOAD DUP1 DUP3 ADD SWAP1 SWAP2 MSTORE PUSH1 0x9 DUP2 MSTORE PUSH9 0x2AB9B2B918903BB4B7 PUSH1 0xB9 SHL PUSH1 0x20 DUP3 ADD MSTORE PUSH1 0x2 DUP1 SLOAD PUSH2 0x147A SWAP1 PUSH1 0x1 SWAP1 PUSH2 0x19AA JUMP JUMPDEST DUP2 SLOAD DUP2 LT PUSH2 0x148A JUMPI PUSH2 0x148A PUSH2 0x1965 JUMP JUMPDEST SWAP1 PUSH1 0x0 MSTORE PUSH1 0x20 PUSH1 0x0 KECCAK256 SWAP1 PUSH1 0x5 MUL ADD PUSH1 0x4 ADD SWAP1 DUP2 PUSH2 0x14A7 SWAP2 SWAP1 PUSH2 0x1B9A JUMP JUMPDEST POP PUSH1 0x2 DUP1 SLOAD PUSH1 0x7 SWAP2 SWAP1 PUSH2 0x14BC SWAP1 PUSH1 0x1 SWAP1 PUSH2 0x19AA JUMP JUMPDEST DUP2 SLOAD DUP2 LT PUSH2 0x14CC JUMPI PUSH2 0x14CC PUSH2 0x1965 JUMP JUMPDEST PUSH1 0x0 SWAP2 DUP3 MSTORE PUSH1 0x20 DUP1 DUP4 KECCAK256 DUP5 SLOAD PUSH1 0x1 DUP2 DUP2 ADD DUP8 SSTORE SWAP6 DUP6 MSTORE SWAP2 SWAP1 SWAP4 KECCAK256 PUSH1 0x5 SWAP3 DUP4 MUL SWAP1 SWAP4 ADD DUP1 SLOAD SWAP2 SWAP1 SWAP3 MUL SWAP1 SWAP3 ADD DUP1 SLOAD PUSH1 0x1 PUSH1 0x1 PUSH1 0xA0 SHL SUB NOT SWAP1 DUP2 AND PUSH1 0x1 PUSH1 0x1 PUSH1 0xA0 SHL SUB SWAP5 DUP6 AND OR DUP3 SSTORE DUP5 DUP4 ADD SLOAD SWAP5 DUP3 ADD SWAP5 SWAP1 SWAP5 SSTORE PUSH1 0x2 DUP1 DUP4 ADD SLOAD SWAP1 DUP3 ADD DUP1 SLOAD SWAP1 SWAP6 AND SWAP4 AND SWAP3 SWAP1 SWAP3 OR SWAP1 SWAP3 SSTORE PUSH1 0x3 DUP1 DUP4 ADD SLOAD SWAP1 DUP3 ADD SSTORE PUSH1 0x4 DUP1 DUP3 ADD SWAP1 PUSH2 0x1551 SWAP1 DUP5 ADD DUP3 PUSH2 0x1C5A JUMP JUMPDEST POP POP POP PUSH32 0xCDE5C32C0A45FD8AA4B65EA8003FC9DA9ACD5E2C6C24A9FCCE6AB79CABBD9122 PUSH1 0x40 MLOAD PUSH2 0x116F SWAP1 PUSH1 0x20 DUP1 DUP3 MSTORE PUSH1 0x9 SWAP1 DUP3 ADD MSTORE PUSH9 0x2AB9B2B918903BB4B7 PUSH1 0xB9 SHL PUSH1 0x40 DUP3 ADD MSTORE PUSH1 0x60 ADD SWAP1 JUMP JUMPDEST POP POP POP JUMP JUMPDEST POP DUP1 SLOAD PUSH1 0x0 DUP3 SSTORE PUSH1 0x5 MUL SWAP1 PUSH1 0x0 MSTORE PUSH1 0x20 PUSH1 0x0 KECCAK256 SWAP1 DUP2 ADD SWAP1 PUSH2 0x49E SWAP2 SWAP1 PUSH2 0x162D JUMP JUMPDEST POP DUP1 SLOAD PUSH1 0x0 DUP3 SSTORE SWAP1 PUSH1 0x0 MSTORE PUSH1 0x20 PUSH1 0x0 KECCAK256 SWAP1 DUP2 ADD SWAP1 PUSH2 0x49E SWAP2 SWAP1 PUSH2 0x167B JUMP JUMPDEST PUSH1 0x40 DUP1 MLOAD PUSH1 0xA0 DUP2 ADD SWAP1 SWAP2 MSTORE PUSH1 0x0 PUSH1 0x60 DUP3 ADD DUP2 DUP2 MSTORE PUSH1 0x80 DUP4 ADD SWAP2 SWAP1 SWAP2 MSTORE DUP2 SWAP1 DUP2 MSTORE PUSH1 0x20 ADD PUSH2 0x1620 PUSH1 0x40 DUP1 MLOAD DUP1 DUP3 ADD SWAP1 SWAP2 MSTORE PUSH1 0x0 DUP1 DUP3 MSTORE PUSH1 0x20 DUP3 ADD MSTORE SWAP1 JUMP JUMPDEST DUP2 MSTORE PUSH1 0x20 ADD PUSH1 0x60 DUP2 MSTORE POP SWAP1 JUMP JUMPDEST DUP1 DUP3 GT ISZERO PUSH2 0x1677 JUMPI DUP1 SLOAD PUSH1 0x1 PUSH1 0x1 PUSH1 0xA0 SHL SUB NOT SWAP1 DUP2 AND DUP3 SSTORE PUSH1 0x0 PUSH1 0x1 DUP4 ADD DUP2 SWAP1 SSTORE PUSH1 0x2 DUP4 ADD DUP1 SLOAD SWAP1 SWAP3 AND SWAP1 SWAP2 SSTORE PUSH1 0x3 DUP3 ADD DUP2 SWAP1 SSTORE PUSH2 0x166E PUSH1 0x4 DUP4 ADD DUP3 PUSH2 0x1690 JUMP JUMPDEST POP PUSH1 0x5 ADD PUSH2 0x162D JUMP JUMPDEST POP SWAP1 JUMP JUMPDEST JUMPDEST DUP1 DUP3 GT ISZERO PUSH2 0x1677 JUMPI PUSH1 0x0 DUP2 SSTORE PUSH1 0x1 ADD PUSH2 0x167C JUMP JUMPDEST POP DUP1 SLOAD PUSH2 0x169C SWAP1 PUSH2 0x1909 JUMP JUMPDEST PUSH1 0x0 DUP3 SSTORE DUP1 PUSH1 0x1F LT PUSH2 0x16AC JUMPI POP POP JUMP JUMPDEST PUSH1 0x1F ADD PUSH1 0x20 SWAP1 DIV SWAP1 PUSH1 0x0 MSTORE PUSH1 0x20 PUSH1 0x0 KECCAK256 SWAP1 DUP2 ADD SWAP1 PUSH2 0x49E SWAP2 SWAP1 PUSH2 0x167B JUMP JUMPDEST PUSH1 0x20 DUP1 DUP3 MSTORE DUP3 MLOAD DUP3 DUP3 ADD DUP2 SWAP1 MSTORE PUSH1 0x0 SWAP2 SWAP1 DUP5 DUP3 ADD SWAP1 PUSH1 0x40 DUP6 ADD SWAP1 DUP5 JUMPDEST DUP2 DUP2 LT ISZERO PUSH2 0x170B JUMPI DUP4 MLOAD PUSH1 0x1 PUSH1 0x1 PUSH1 0xA0 SHL SUB AND DUP4 MSTORE SWAP3 DUP5 ADD SWAP3 SWAP2 DUP5 ADD SWAP2 PUSH1 0x1 ADD PUSH2 0x16E6 JUMP JUMPDEST POP SWAP1 SWAP7 SWAP6 POP POP POP POP POP POP JUMP JUMPDEST PUSH1 0x0 PUSH1 0x20 DUP3 DUP5 SUB SLT ISZERO PUSH2 0x1729 JUMPI PUSH1 0x0 DUP1 REVERT JUMPDEST POP CALLDATALOAD SWAP2 SWAP1 POP JUMP JUMPDEST PUSH1 0x0 DUP2 MLOAD DUP1 DUP5 MSTORE PUSH1 0x0 JUMPDEST DUP2 DUP2 LT ISZERO PUSH2 0x1756 JUMPI PUSH1 0x20 DUP2 DUP6 ADD DUP2 ADD MLOAD DUP7 DUP4 ADD DUP3 ADD MSTORE ADD PUSH2 0x173A JUMP JUMPDEST POP PUSH1 0x0 PUSH1 0x20 DUP3 DUP7 ADD ADD MSTORE PUSH1 0x20 PUSH1 0x1F NOT PUSH1 0x1F DUP4 ADD AND DUP6 ADD ADD SWAP2 POP POP SWAP3 SWAP2 POP POP JUMP JUMPDEST PUSH2 0x1794 DUP3 DUP3 MLOAD DUP1 MLOAD PUSH1 0x1 PUSH1 0x1 PUSH1 0xA0 SHL SUB AND DUP3 MSTORE PUSH1 0x20 SWAP1 DUP2 ADD MLOAD SWAP2 ADD MSTORE JUMP JUMPDEST PUSH1 0x0 PUSH1 0x20 DUP3 ADD MLOAD PUSH2 0x17BB PUSH1 0x40 DUP6 ADD DUP3 DUP1 MLOAD PUSH1 0x1 PUSH1 0x1 PUSH1 0xA0 SHL SUB AND DUP3 MSTORE PUSH1 0x20 SWAP1 DUP2 ADD MLOAD SWAP2 ADD MSTORE JUMP JUMPDEST POP PUSH1 0x40 DUP3 ADD MLOAD PUSH1 0xA0 PUSH1 0x80 DUP6 ADD MSTORE PUSH2 0x17D5 PUSH1 0xA0 DUP6 ADD DUP3 PUSH2 0x1730 JUMP JUMPDEST SWAP5 SWAP4 POP POP POP POP JUMP JUMPDEST PUSH1 0x0 PUSH1 0x20 DUP1 DUP4 ADD DUP2 DUP5 MSTORE DUP1 DUP6 MLOAD DUP1 DUP4 MSTORE PUSH1 0x40 DUP7 ADD SWAP2 POP PUSH1 0x40 DUP2 PUSH1 0x5 SHL DUP8 ADD ADD SWAP3 POP DUP4 DUP8 ADD PUSH1 0x0 JUMPDEST DUP3 DUP2 LT ISZERO PUSH2 0x1832 JUMPI PUSH1 0x3F NOT DUP9 DUP7 SUB ADD DUP5 MSTORE PUSH2 0x1820 DUP6 DUP4 MLOAD PUSH2 0x1776 JUMP JUMPDEST SWAP5 POP SWAP3 DUP6 ADD SWAP3 SWAP1 DUP6 ADD SWAP1 PUSH1 0x1 ADD PUSH2 0x1804 JUMP JUMPDEST POP SWAP3 SWAP8 SWAP7 POP POP POP POP POP POP POP JUMP JUMPDEST DUP4 MLOAD PUSH1 0x1 PUSH1 0x1 PUSH1 0xA0 SHL SUB AND DUP2 MSTORE PUSH1 0x20 DUP1 DUP6 ADD MLOAD SWAP1 DUP3 ADD MSTORE DUP3 MLOAD PUSH1 0x1 PUSH1 0x1 PUSH1 0xA0 SHL SUB AND PUSH1 0x40 DUP3 ADD MSTORE PUSH1 0x20 DUP4 ADD MLOAD PUSH1 0x60 DUP3 ADD MSTORE PUSH1 0xA0 PUSH1 0x80 DUP3 ADD MSTORE PUSH1 0x0 PUSH2 0x1886 PUSH1 0xA0 DUP4 ADD DUP5 PUSH2 0x1730 JUMP JUMPDEST SWAP6 SWAP5 POP POP POP POP POP JUMP JUMPDEST PUSH1 0x20 DUP1 DUP3 MSTORE DUP3 MLOAD DUP3 DUP3 ADD DUP2 SWAP1 MSTORE PUSH1 0x0 SWAP2 SWAP1 PUSH1 0x40 SWAP1 DUP2 DUP6 ADD SWAP1 DUP7 DUP5 ADD DUP6 JUMPDEST DUP3 DUP2 LT ISZERO PUSH2 0x18E2 JUMPI PUSH2 0x18D2 DUP5 DUP4 MLOAD DUP1 MLOAD PUSH1 0x1 PUSH1 0x1 PUSH1 0xA0 SHL SUB AND DUP3 MSTORE PUSH1 0x20 SWAP1 DUP2 ADD MLOAD SWAP2 ADD MSTORE JUMP JUMPDEST SWAP3 DUP5 ADD SWAP3 SWAP1 DUP6 ADD SWAP1 PUSH1 0x1 ADD PUSH2 0x18AC JUMP JUMPDEST POP SWAP2 SWAP8 SWAP7 POP POP POP POP POP POP POP JUMP JUMPDEST PUSH1 0x20 DUP2 MSTORE PUSH1 0x0 PUSH2 0x1902 PUSH1 0x20 DUP4 ADD DUP5 PUSH2 0x1776 JUMP JUMPDEST SWAP4 SWAP3 POP POP POP JUMP JUMPDEST PUSH1 0x1 DUP2 DUP2 SHR SWAP1 DUP3 AND DUP1 PUSH2 0x191D JUMPI PUSH1 0x7F DUP3 AND SWAP2 POP JUMPDEST PUSH1 0x20 DUP3 LT DUP2 SUB PUSH2 0x193D JUMPI PUSH4 0x4E487B71 PUSH1 0xE0 SHL PUSH1 0x0 MSTORE PUSH1 0x22 PUSH1 0x4 MSTORE PUSH1 0x24 PUSH1 0x0 REVERT JUMPDEST POP SWAP2 SWAP1 POP JUMP JUMPDEST PUSH1 0x0 DUP3 PUSH2 0x1960 JUMPI PUSH4 0x4E487B71 PUSH1 0xE0 SHL PUSH1 0x0 MSTORE PUSH1 0x12 PUSH1 0x4 MSTORE PUSH1 0x24 PUSH1 0x0 REVERT JUMPDEST POP MOD SWAP1 JUMP JUMPDEST PUSH4 0x4E487B71 PUSH1 0xE0 SHL PUSH1 0x0 MSTORE PUSH1 0x32 PUSH1 0x4 MSTORE PUSH1 0x24 PUSH1 0x0 REVERT JUMPDEST PUSH4 0x4E487B71 PUSH1 0xE0 SHL PUSH1 0x0 MSTORE PUSH1 0x11 PUSH1 0x4 MSTORE PUSH1 0x24 PUSH1 0x0 REVERT JUMPDEST PUSH1 0x0 PUSH1 0x1 DUP3 ADD PUSH2 0x19A3 JUMPI PUSH2 0x19A3 PUSH2 0x197B JUMP JUMPDEST POP PUSH1 0x1 ADD SWAP1 JUMP JUMPDEST DUP2 DUP2 SUB DUP2 DUP2 GT ISZERO PUSH2 0x19BD JUMPI PUSH2 0x19BD PUSH2 0x197B JUMP JUMPDEST SWAP3 SWAP2 POP POP JUMP JUMPDEST PUSH1 0x20 DUP1 DUP3 MSTORE DUP3 SLOAD DUP3 DUP3 ADD DUP2 SWAP1 MSTORE PUSH1 0x0 DUP5 DUP2 MSTORE DUP3 DUP2 KECCAK256 SWAP1 SWAP3 SWAP2 PUSH1 0x40 DUP6 ADD SWAP1 DUP5 JUMPDEST DUP2 DUP2 LT ISZERO PUSH2 0x170B JUMPI DUP4 SLOAD PUSH1 0x1 PUSH1 0x1 PUSH1 0xA0 SHL SUB AND DUP4 MSTORE PUSH1 0x1 SWAP4 DUP5 ADD SWAP4 SWAP3 DUP6 ADD SWAP3 ADD PUSH2 0x19E2 JUMP JUMPDEST PUSH1 0x0 PUSH1 0x20 DUP1 DUP4 ADD DUP2 DUP5 MSTORE DUP1 DUP6 SLOAD DUP1 DUP4 MSTORE PUSH1 0x40 DUP7 ADD SWAP2 POP PUSH1 0x40 DUP2 PUSH1 0x5 SHL DUP8 ADD ADD SWAP3 POP PUSH1 0x0 DUP8 DUP2 MSTORE DUP5 DUP2 KECCAK256 DUP2 JUMPDEST DUP4 DUP2 LT ISZERO PUSH2 0x1B12 JUMPI PUSH1 0x3F NOT DUP10 DUP8 SUB ADD DUP6 MSTORE DUP2 SLOAD PUSH1 0x1 PUSH1 0x1 PUSH1 0xA0 SHL SUB AND DUP7 MSTORE PUSH1 0x1 DUP3 ADD SLOAD PUSH1 0x20 DUP8 ADD MSTORE PUSH1 0x2 DUP3 ADD SLOAD PUSH1 0x1 PUSH1 0x1 PUSH1 0xA0 SHL SUB AND PUSH1 0x40 DUP8 ADD MSTORE PUSH1 0x3 DUP3 ADD SLOAD PUSH1 0x60 DUP8 ADD MSTORE PUSH1 0x4 DUP3 ADD PUSH1 0xA0 PUSH1 0x80 DUP9 ADD MSTORE DUP4 DUP2 SLOAD PUSH2 0x1A8E DUP2 PUSH2 0x1909 JUMP JUMPDEST DUP1 PUSH1 0xA0 DUP12 ADD MSTORE PUSH1 0x1 DUP3 AND PUSH1 0x0 DUP2 EQ PUSH2 0x1AAD JUMPI PUSH1 0x1 DUP2 EQ PUSH2 0x1AC9 JUMPI PUSH2 0x1AF8 JUMP JUMPDEST PUSH1 0xFF NOT DUP4 AND PUSH1 0xC0 DUP13 ADD MSTORE PUSH1 0xC0 DUP3 ISZERO ISZERO PUSH1 0x5 SHL DUP13 ADD ADD SWAP4 POP PUSH2 0x1AF8 JUMP JUMPDEST DUP5 DUP9 MSTORE DUP12 DUP9 KECCAK256 DUP9 JUMPDEST DUP4 DUP2 LT ISZERO PUSH2 0x1AEF JUMPI DUP2 SLOAD DUP14 DUP3 ADD PUSH1 0xC0 ADD MSTORE PUSH1 0x1 SWAP1 SWAP2 ADD SWAP1 DUP14 ADD PUSH2 0x1AD1 JUMP JUMPDEST DUP13 ADD PUSH1 0xC0 ADD SWAP5 POP POP JUMPDEST POP SWAP2 SWAP9 POP POP POP SWAP5 DUP8 ADD SWAP5 POP PUSH1 0x5 SWAP2 SWAP1 SWAP2 ADD SWAP1 PUSH1 0x1 ADD PUSH2 0x1A32 JUMP JUMPDEST POP SWAP4 SWAP9 SWAP8 POP POP POP POP POP POP POP POP JUMP JUMPDEST PUSH4 0x4E487B71 PUSH1 0xE0 SHL PUSH1 0x0 MSTORE PUSH1 0x31 PUSH1 0x4 MSTORE PUSH1 0x24 PUSH1 0x0 REVERT JUMPDEST PUSH4 0x4E487B71 PUSH1 0xE0 SHL PUSH1 0x0 MSTORE PUSH1 0x41 PUSH1 0x4 MSTORE PUSH1 0x24 PUSH1 0x0 REVERT JUMPDEST PUSH1 0x1F DUP3 GT ISZERO PUSH2 0x159F JUMPI PUSH1 0x0 DUP2 DUP2 MSTORE PUSH1 0x20 DUP2 KECCAK256 PUSH1 0x1F DUP6 ADD PUSH1 0x5 SHR DUP2 ADD PUSH1 0x20 DUP7 LT ISZERO PUSH2 0x1B73 JUMPI POP DUP1 JUMPDEST PUSH1 0x1F DUP6 ADD PUSH1 0x5 SHR DUP3 ADD SWAP2 POP JUMPDEST DUP2 DUP2 LT ISZERO PUSH2 0x1B92 JUMPI DUP3 DUP2 SSTORE PUSH1 0x1 ADD PUSH2 0x1B7F JUMP JUMPDEST POP POP POP POP POP POP JUMP JUMPDEST DUP2 MLOAD PUSH8 0xFFFFFFFFFFFFFFFF DUP2 GT ISZERO PUSH2 0x1BB4 JUMPI PUSH2 0x1BB4 PUSH2 0x1B36 JUMP JUMPDEST PUSH2 0x1BC8 DUP2 PUSH2 0x1BC2 DUP5 SLOAD PUSH2 0x1909 JUMP JUMPDEST DUP5 PUSH2 0x1B4C JUMP JUMPDEST PUSH1 0x20 DUP1 PUSH1 0x1F DUP4 GT PUSH1 0x1 DUP2 EQ PUSH2 0x1BFD JUMPI PUSH1 0x0 DUP5 ISZERO PUSH2 0x1BE5 JUMPI POP DUP6 DUP4 ADD MLOAD JUMPDEST PUSH1 0x0 NOT PUSH1 0x3 DUP7 SWAP1 SHL SHR NOT AND PUSH1 0x1 DUP6 SWAP1 SHL OR DUP6 SSTORE PUSH2 0x1B92 JUMP JUMPDEST PUSH1 0x0 DUP6 DUP2 MSTORE PUSH1 0x20 DUP2 KECCAK256 PUSH1 0x1F NOT DUP7 AND SWAP2 JUMPDEST DUP3 DUP2 LT ISZERO PUSH2 0x1C2C JUMPI DUP9 DUP7 ADD MLOAD DUP3 SSTORE SWAP5 DUP5 ADD SWAP5 PUSH1 0x1 SWAP1 SWAP2 ADD SWAP1 DUP5 ADD PUSH2 0x1C0D JUMP JUMPDEST POP DUP6 DUP3 LT ISZERO PUSH2 0x1C4A JUMPI DUP8 DUP6 ADD MLOAD PUSH1 0x0 NOT PUSH1 0x3 DUP9 SWAP1 SHL PUSH1 0xF8 AND SHR NOT AND DUP2 SSTORE JUMPDEST POP POP POP POP POP PUSH1 0x1 SWAP1 DUP2 SHL ADD SWAP1 SSTORE POP JUMP JUMPDEST DUP2 DUP2 SUB PUSH2 0x1C65 JUMPI POP POP JUMP JUMPDEST PUSH2 0x1C6F DUP3 SLOAD PUSH2 0x1909 JUMP JUMPDEST PUSH8 0xFFFFFFFFFFFFFFFF DUP2 GT ISZERO PUSH2 0x1C87 JUMPI PUSH2 0x1C87 PUSH2 0x1B36 JUMP JUMPDEST PUSH2 0x1C95 DUP2 PUSH2 0x1BC2 DUP5 SLOAD PUSH2 0x1909 JUMP JUMPDEST PUSH1 0x0 PUSH1 0x1F DUP3 GT PUSH1 0x1 DUP2 EQ PUSH2 0x1CC9 JUMPI PUSH1 0x0 DUP4 ISZERO PUSH2 0x1CB1 JUMPI POP DUP5 DUP3 ADD SLOAD JUMPDEST PUSH1 0x0 NOT PUSH1 0x3 DUP6 SWAP1 SHL SHR NOT AND PUSH1 0x1 DUP5 SWAP1 SHL OR DUP5 SSTORE PUSH2 0x1D2E JUMP JUMPDEST PUSH1 0x0 DUP6 DUP2 MSTORE PUSH1 0x20 SWAP1 KECCAK256 PUSH1 0x1F NOT DUP5 AND SWAP1 PUSH1 0x0 DUP7 DUP2 MSTORE PUSH1 0x20 SWAP1 KECCAK256 DUP5 JUMPDEST DUP4 DUP2 LT ISZERO PUSH2 0x1D03 JUMPI DUP3 DUP7 ADD SLOAD DUP3 SSTORE PUSH1 0x1 SWAP6 DUP7 ADD SWAP6 SWAP1 SWAP2 ADD SWAP1 PUSH1 0x20 ADD PUSH2 0x1CE3 JUMP JUMPDEST POP DUP6 DUP4 LT ISZERO PUSH2 0x1D21 JUMPI DUP2 DUP6 ADD SLOAD PUSH1 0x0 NOT PUSH1 0x3 DUP9 SWAP1 SHL PUSH1 0xF8 AND SHR NOT AND DUP2 SSTORE JUMPDEST POP POP POP PUSH1 0x1 DUP4 PUSH1 0x1 SHL ADD DUP5 SSTORE JUMPDEST POP POP POP POP POP JUMP INVALID LOG2 PUSH5 0x6970667358 0x22 SLT KECCAK256 INVALID SDIV SAR 0xE7 0xC0 LT 0x21 DUP7 SWAP5 0x21 JUMPI 0xAD POP 0xF6 PUSH25 0xA19176DEC99140D35426D8C9A2793AB93664736F6C63430008 SGT STOP CALLER "
				},
				"gasEstimates": {
					"creation": {
						"codeDepositCost": "1506200",
						"executionCost": "72899",
						"totalCost": "1579099"
					},
					"external": {
						"changeNumberofPool(uint256)": "4470",
						"getGameHistory()": "infinite",
						"getNumberofPool()": "2326",
						"getSpecificGameHistory(uint256)": "infinite",
						"getUserOption(uint256)": "infinite",
						"latestGameLength()": "2358",
						"latestGameResult(uint256)": "infinite",
						"numberofPool()": "2406",
						"poolUserAddress()": "infinite",
						"showNumber()": "2317",
						"showWaitingPoll()": "infinite",
						"updateNumber(uint256)": "23413"
					},
					"internal": {
						"ChooseRandomUser()": "infinite",
						"checkGamestart()": "2146",
						"choosePlayerPlay()": "infinite",
						"game(struct RockPaperScissors.UserInfo memory,struct RockPaperScissors.UserInfo memory)": "infinite"
					}
				},
				"methodIdentifiers": {
					"changeNumberofPool(uint256)": "568e19cf",
					"getGameHistory()": "512ec557",
					"getNumberofPool()": "316926c1",
					"getSpecificGameHistory(uint256)": "f7c4efbb",
					"getUserOption(uint256)": "adf496b5",
					"latestGameLength()": "ccf138e1",
					"latestGameResult(uint256)": "7572b227",
					"numberofPool()": "7322878d",
					"poolUserAddress()": "09fa6b09",
					"showNumber()": "76dad223",
					"showWaitingPoll()": "e16c9d59",
					"updateNumber(uint256)": "1db05a88"
				}
			},
			"storageLayout": {
				"storage": [
					{
						"astId": 4,
						"contract": "Practical2-RockPaperScissors-Jason.sol:RockPaperScissors",
						"label": "showNumber",
						"offset": 0,
						"slot": "0",
						"type": "t_uint256"
					},
					{
						"astId": 39,
						"contract": "Practical2-RockPaperScissors-Jason.sol:RockPaperScissors",
						"label": "userCount",
						"offset": 0,
						"slot": "1",
						"type": "t_uint256"
					},
					{
						"astId": 43,
						"contract": "Practical2-RockPaperScissors-Jason.sol:RockPaperScissors",
						"label": "gameHistory",
						"offset": 0,
						"slot": "2",
						"type": "t_array(t_struct(GameInfo)36_storage)dyn_storage"
					},
					{
						"astId": 45,
						"contract": "Practical2-RockPaperScissors-Jason.sol:RockPaperScissors",
						"label": "locked",
						"offset": 0,
						"slot": "3",
						"type": "t_bool"
					},
					{
						"astId": 48,
						"contract": "Practical2-RockPaperScissors-Jason.sol:RockPaperScissors",
						"label": "salt",
						"offset": 0,
						"slot": "4",
						"type": "t_uint256"
					},
					{
						"astId": 52,
						"contract": "Practical2-RockPaperScissors-Jason.sol:RockPaperScissors",
						"label": "waitingPool",
						"offset": 0,
						"slot": "5",
						"type": "t_array(t_struct(UserInfo)27_storage)dyn_storage"
					},
					{
						"astId": 55,
						"contract": "Practical2-RockPaperScissors-Jason.sol:RockPaperScissors",
						"label": "userAddresses",
						"offset": 0,
						"slot": "6",
						"type": "t_array(t_address)dyn_storage"
					},
					{
						"astId": 59,
						"contract": "Practical2-RockPaperScissors-Jason.sol:RockPaperScissors",
						"label": "latestGameResult",
						"offset": 0,
						"slot": "7",
						"type": "t_array(t_struct(GameInfo)36_storage)dyn_storage"
					},
					{
						"astId": 62,
						"contract": "Practical2-RockPaperScissors-Jason.sol:RockPaperScissors",
						"label": "numberofPool",
						"offset": 0,
						"slot": "8",
						"type": "t_uint256"
					}
				],
				"types": {
					"t_address": {
						"encoding": "inplace",
						"label": "address",
						"numberOfBytes": "20"
					},
					"t_array(t_address)dyn_storage": {
						"base": "t_address",
						"encoding": "dynamic_array",
						"label": "address[]",
						"numberOfBytes": "32"
					},
					"t_array(t_struct(GameInfo)36_storage)dyn_storage": {
						"base": "t_struct(GameInfo)36_storage",
						"encoding": "dynamic_array",
						"label": "struct RockPaperScissors.GameInfo[]",
						"numberOfBytes": "32"
					},
					"t_array(t_struct(UserInfo)27_storage)dyn_storage": {
						"base": "t_struct(UserInfo)27_storage",
						"encoding": "dynamic_array",
						"label": "struct RockPaperScissors.UserInfo[]",
						"numberOfBytes": "32"
					},
					"t_bool": {
						"encoding": "inplace",
						"label": "bool",
						"numberOfBytes": "1"
					},
					"t_string_storage": {
						"encoding": "bytes",
						"label": "string",
						"numberOfBytes": "32"
					},
					"t_struct(GameInfo)36_storage": {
						"encoding": "inplace",
						"label": "struct RockPaperScissors.GameInfo",
						"members": [
							{
								"astId": 30,
								"contract": "Practical2-RockPaperScissors-Jason.sol:RockPaperScissors",
								"label": "user1",
								"offset": 0,
								"slot": "0",
								"type": "t_struct(UserInfo)27_storage"
							},
							{
								"astId": 33,
								"contract": "Practical2-RockPaperScissors-Jason.sol:RockPaperScissors",
								"label": "user2",
								"offset": 0,
								"slot": "2",
								"type": "t_struct(UserInfo)27_storage"
							},
							{
								"astId": 35,
								"contract": "Practical2-RockPaperScissors-Jason.sol:RockPaperScissors",
								"label": "finalResult",
								"offset": 0,
								"slot": "4",
								"type": "t_string_storage"
							}
						],
						"numberOfBytes": "160"
					},
					"t_struct(UserInfo)27_storage": {
						"encoding": "inplace",
						"label": "struct RockPaperScissors.UserInfo",
						"members": [
							{
								"astId": 24,
								"contract": "Practical2-RockPaperScissors-Jason.sol:RockPaperScissors",
								"label": "userAddress",
								"offset": 0,
								"slot": "0",
								"type": "t_address"
							},
							{
								"astId": 26,
								"contract": "Practical2-RockPaperScissors-Jason.sol:RockPaperScissors",
								"label": "userOption",
								"offset": 0,
								"slot": "1",
								"type": "t_uint256"
							}
						],
						"numberOfBytes": "64"
					},
					"t_uint256": {
						"encoding": "inplace",
						"label": "uint256",
						"numberOfBytes": "32"
					}
				}
			},
			"userdoc": {
				"kind": "user",
				"methods": {},
				"version": 1
			}
		}
	}
}