{
	"Practical1-Jason.sol": {
		"RockPaperScissors": {
			"abi": [
				{
					"inputs": [],
					"name": "logicCheck",
					"outputs": [
						{
							"internalType": "string",
							"name": "",
							"type": "string"
						}
					],
					"stateMutability": "view",
					"type": "function"
				},
				{
					"inputs": [],
					"name": "user1Choose",
					"outputs": [
						{
							"internalType": "uint256",
							"name": "",
							"type": "uint256"
						}
					],
					"stateMutability": "view",
					"type": "function"
				},
				{
					"inputs": [
						{
							"internalType": "uint256",
							"name": "decisionofRockPaperScissors",
							"type": "uint256"
						}
					],
					"name": "user1Dicision",
					"outputs": [],
					"stateMutability": "nonpayable",
					"type": "function"
				},
				{
					"inputs": [],
					"name": "user2Choose",
					"outputs": [
						{
							"internalType": "uint256",
							"name": "",
							"type": "uint256"
						}
					],
					"stateMutability": "view",
					"type": "function"
				},
				{
					"inputs": [
						{
							"internalType": "uint256",
							"name": "decisionofRockPaperScissors",
							"type": "uint256"
						}
					],
					"name": "user2Dicision",
					"outputs": [],
					"stateMutability": "nonpayable",
					"type": "function"
				}
			],
			"devdoc": {
				"kind": "dev",
				"methods": {},
				"version": 1
			},
			"evm": {
				"assembly": "    /* \"Practical1-Jason.sol\":1087:2922  contract RockPaperScissors {... */\n  mstore(0x40, 0x80)\n  callvalue\n  dup1\n  iszero\n  tag_1\n  jumpi\n  0x00\n  dup1\n  revert\ntag_1:\n  pop\n  dataSize(sub_0)\n  dup1\n  dataOffset(sub_0)\n  0x00\n  codecopy\n  0x00\n  return\nstop\n\nsub_0: assembly {\n        /* \"Practical1-Jason.sol\":1087:2922  contract RockPaperScissors {... */\n      mstore(0x40, 0x80)\n      callvalue\n      dup1\n      iszero\n      tag_1\n      jumpi\n      0x00\n      dup1\n      revert\n    tag_1:\n      pop\n      jumpi(tag_2, lt(calldatasize, 0x04))\n      shr(0xe0, calldataload(0x00))\n      dup1\n      0x3bc0961c\n      eq\n      tag_3\n      jumpi\n      dup1\n      0x669997bc\n      eq\n      tag_4\n      jumpi\n      dup1\n      0x81c7373a\n      eq\n      tag_5\n      jumpi\n      dup1\n      0xb2e43e15\n      eq\n      tag_6\n      jumpi\n      dup1\n      0xf054c589\n      eq\n      tag_7\n      jumpi\n    tag_2:\n      0x00\n      dup1\n      revert\n        /* \"Practical1-Jason.sol\":1654:2018  function user2Dicision (uint decisionofRockPaperScissors ) external {... */\n    tag_3:\n      tag_8\n      tag_9\n      calldatasize\n      0x04\n      tag_10\n      jump\t// in\n    tag_9:\n      tag_11\n      jump\t// in\n    tag_8:\n      stop\n        /* \"Practical1-Jason.sol\":2086:2917  function logicCheck () view external returns (string memory){... */\n    tag_4:\n      tag_12\n      tag_13\n      jump\t// in\n    tag_12:\n      mload(0x40)\n      tag_14\n      swap2\n      swap1\n      tag_15\n      jump\t// in\n    tag_14:\n      mload(0x40)\n      dup1\n      swap2\n      sub\n      swap1\n      return\n        /* \"Practical1-Jason.sol\":1222:1245  uint public user2Choose */\n    tag_5:\n      tag_16\n      sload(0x01)\n      dup2\n      jump\n    tag_16:\n      mload(0x40)\n        /* \"#utility.yul\":898:923   */\n      swap1\n      dup2\n      mstore\n        /* \"#utility.yul\":886:888   */\n      0x20\n        /* \"#utility.yul\":871:889   */\n      add\n        /* \"Practical1-Jason.sol\":1222:1245  uint public user2Choose */\n      tag_14\n        /* \"#utility.yul\":752:929   */\n      jump\n        /* \"Practical1-Jason.sol\":1192:1215  uint public user1Choose */\n    tag_6:\n      tag_16\n      sload(0x00)\n      dup2\n      jump\n        /* \"Practical1-Jason.sol\":1284:1648  function user1Dicision (uint decisionofRockPaperScissors ) external {... */\n    tag_7:\n      tag_8\n      tag_24\n      calldatasize\n      0x04\n      tag_10\n      jump\t// in\n    tag_24:\n      tag_25\n      jump\t// in\n        /* \"Practical1-Jason.sol\":1654:2018  function user2Dicision (uint decisionofRockPaperScissors ) external {... */\n    tag_11:\n        /* \"Practical1-Jason.sol\":1737:1764  decisionofRockPaperScissors */\n      dup1\n        /* \"Practical1-Jason.sol\":1770:1771  1 */\n      0x01\n        /* \"Practical1-Jason.sol\":1736:1772  (decisionofRockPaperScissors) == (1) */\n      eq\n        /* \"Practical1-Jason.sol\":1736:1810  (decisionofRockPaperScissors) == (1)||(decisionofRockPaperScissors) == (2) */\n      dup1\n      tag_27\n      jumpi\n      pop\n        /* \"Practical1-Jason.sol\":1775:1802  decisionofRockPaperScissors */\n      dup1\n        /* \"Practical1-Jason.sol\":1808:1809  2 */\n      0x02\n        /* \"Practical1-Jason.sol\":1774:1810  (decisionofRockPaperScissors) == (2) */\n      eq\n        /* \"Practical1-Jason.sol\":1736:1810  (decisionofRockPaperScissors) == (1)||(decisionofRockPaperScissors) == (2) */\n    tag_27:\n        /* \"Practical1-Jason.sol\":1736:1848  (decisionofRockPaperScissors) == (1)||(decisionofRockPaperScissors) == (2)||(decisionofRockPaperScissors) == (3) */\n      dup1\n      tag_28\n      jumpi\n      pop\n        /* \"Practical1-Jason.sol\":1813:1840  decisionofRockPaperScissors */\n      dup1\n        /* \"Practical1-Jason.sol\":1846:1847  3 */\n      0x03\n        /* \"Practical1-Jason.sol\":1812:1848  (decisionofRockPaperScissors) == (3) */\n      eq\n        /* \"Practical1-Jason.sol\":1736:1848  (decisionofRockPaperScissors) == (1)||(decisionofRockPaperScissors) == (2)||(decisionofRockPaperScissors) == (3) */\n    tag_28:\n        /* \"Practical1-Jason.sol\":1733:2011  if((decisionofRockPaperScissors) == (1)||(decisionofRockPaperScissors) == (2)||(decisionofRockPaperScissors) == (3))... */\n      iszero\n      tag_29\n      jumpi\n        /* \"Practical1-Jason.sol\":1874:1885  user2Choose */\n      0x01\n        /* \"Practical1-Jason.sol\":1874:1915  user2Choose = decisionofRockPaperScissors */\n      sstore\n        /* \"Practical1-Jason.sol\":1654:2018  function user2Dicision (uint decisionofRockPaperScissors ) external {... */\n      jump\t// out\n        /* \"Practical1-Jason.sol\":1733:2011  if((decisionofRockPaperScissors) == (1)||(decisionofRockPaperScissors) == (2)||(decisionofRockPaperScissors) == (3))... */\n    tag_29:\n        /* \"Practical1-Jason.sol\":1966:1999  revert (\"Please entey 1, 2 or 3\") */\n      mload(0x40)\n      shl(0xe5, 0x461bcd)\n      dup2\n      mstore\n        /* \"#utility.yul\":1136:1138   */\n      0x20\n        /* \"Practical1-Jason.sol\":1966:1999  revert (\"Please entey 1, 2 or 3\") */\n      0x04\n      dup3\n      add\n        /* \"#utility.yul\":1118:1139   */\n      mstore\n        /* \"#utility.yul\":1175:1177   */\n      0x16\n        /* \"#utility.yul\":1155:1173   */\n      0x24\n      dup3\n      add\n        /* \"#utility.yul\":1148:1178   */\n      mstore\n      shl(0x50, 0x506c6561736520656e74657920312c2032206f722033)\n        /* \"#utility.yul\":1194:1212   */\n      0x44\n      dup3\n      add\n        /* \"#utility.yul\":1187:1239   */\n      mstore\n        /* \"#utility.yul\":1256:1274   */\n      0x64\n      add\n        /* \"Practical1-Jason.sol\":1966:1999  revert (\"Please entey 1, 2 or 3\") */\n      mload(0x40)\n      dup1\n      swap2\n      sub\n      swap1\n      revert\n        /* \"Practical1-Jason.sol\":2086:2917  function logicCheck () view external returns (string memory){... */\n    tag_13:\n        /* \"Practical1-Jason.sol\":2132:2145  string memory */\n      0x60\n        /* \"Practical1-Jason.sol\":2160:2171  user1Choose */\n      sload(0x00)\n        /* \"Practical1-Jason.sol\":2175:2176  1 */\n      0x01\n        /* \"Practical1-Jason.sol\":2160:2176  user1Choose == 1 */\n      sub\n        /* \"Practical1-Jason.sol\":2157:2388  if(user1Choose == 1){... */\n      tag_37\n      jumpi\n        /* \"Practical1-Jason.sol\":2195:2206  user2Choose */\n      sload(0x01)\n        /* \"Practical1-Jason.sol\":2210:2211  1 */\n      0x01\n        /* \"Practical1-Jason.sol\":2195:2211  user2Choose == 1 */\n      sub\n        /* \"Practical1-Jason.sol\":2192:2244  if(user2Choose == 1)... */\n      tag_35\n      jumpi\n      pop\n        /* \"Practical1-Jason.sol\":2230:2244  return (\"Tie\") */\n      0x40\n      dup1\n      mload\n      dup1\n      dup3\n      add\n      swap1\n      swap2\n      mstore\n      0x03\n      dup2\n      mstore\n      shl(0xe8, 0x546965)\n      0x20\n      dup3\n      add\n      mstore\n      swap1\n        /* \"Practical1-Jason.sol\":2086:2917  function logicCheck () view external returns (string memory){... */\n      jump\t// out\n        /* \"Practical1-Jason.sol\":2192:2244  if(user2Choose == 1)... */\n    tag_35:\n        /* \"Practical1-Jason.sol\":2262:2273  user2Choose */\n      sload(0x01)\n        /* \"Practical1-Jason.sol\":2277:2278  2 */\n      0x02\n        /* \"Practical1-Jason.sol\":2262:2278  user2Choose == 2 */\n      sub\n        /* \"Practical1-Jason.sol\":2259:2376  if(user2Choose == 2)... */\n      tag_36\n      jumpi\n      pop\n        /* \"Practical1-Jason.sol\":2297:2318  return (\"User2 Win!\") */\n      0x40\n      dup1\n      mload\n      dup1\n      dup3\n      add\n      swap1\n      swap2\n      mstore\n      0x0a\n      dup2\n      mstore\n      shl(0xb0, 0x55736572322057696e21)\n      0x20\n      dup3\n      add\n      mstore\n      swap1\n        /* \"Practical1-Jason.sol\":2086:2917  function logicCheck () view external returns (string memory){... */\n      jump\t// out\n        /* \"Practical1-Jason.sol\":2259:2376  if(user2Choose == 2)... */\n    tag_36:\n      pop\n        /* \"Practical1-Jason.sol\":2355:2376  return (\"User1 Win!\") */\n      0x40\n      dup1\n      mload\n      dup1\n      dup3\n      add\n      swap1\n      swap2\n      mstore\n      0x0a\n      dup2\n      mstore\n      shl(0xb0, 0x55736572312057696e21)\n      0x20\n      dup3\n      add\n      mstore\n      swap1\n        /* \"Practical1-Jason.sol\":2086:2917  function logicCheck () view external returns (string memory){... */\n      jump\t// out\n        /* \"Practical1-Jason.sol\":2259:2376  if(user2Choose == 2)... */\n    tag_37:\n        /* \"Practical1-Jason.sol\":2401:2412  user1Choose */\n      sload(0x00)\n        /* \"Practical1-Jason.sol\":2416:2417  2 */\n      0x02\n        /* \"Practical1-Jason.sol\":2401:2417  user1Choose == 2 */\n      sub\n        /* \"Practical1-Jason.sol\":2398:2629  if(user1Choose == 2){... */\n      tag_41\n      jumpi\n        /* \"Practical1-Jason.sol\":2436:2447  user2Choose */\n      sload(0x01)\n        /* \"Practical1-Jason.sol\":2451:2452  2 */\n      0x02\n        /* \"Practical1-Jason.sol\":2436:2452  user2Choose == 2 */\n      sub\n        /* \"Practical1-Jason.sol\":2433:2485  if(user2Choose == 2)... */\n      tag_39\n      jumpi\n      pop\n        /* \"Practical1-Jason.sol\":2471:2485  return (\"Tie\") */\n      0x40\n      dup1\n      mload\n      dup1\n      dup3\n      add\n      swap1\n      swap2\n      mstore\n      0x03\n      dup2\n      mstore\n      shl(0xe8, 0x546965)\n      0x20\n      dup3\n      add\n      mstore\n      swap1\n        /* \"Practical1-Jason.sol\":2086:2917  function logicCheck () view external returns (string memory){... */\n      jump\t// out\n        /* \"Practical1-Jason.sol\":2433:2485  if(user2Choose == 2)... */\n    tag_39:\n        /* \"Practical1-Jason.sol\":2503:2514  user2Choose */\n      sload(0x01)\n        /* \"Practical1-Jason.sol\":2518:2519  3 */\n      0x03\n        /* \"Practical1-Jason.sol\":2503:2519  user2Choose == 3 */\n      sub\n        /* \"Practical1-Jason.sol\":2500:2617  if(user2Choose == 3)... */\n      tag_36\n      jumpi\n      pop\n        /* \"Practical1-Jason.sol\":2538:2559  return (\"User2 Win!\") */\n      0x40\n      dup1\n      mload\n      dup1\n      dup3\n      add\n      swap1\n      swap2\n      mstore\n      0x0a\n      dup2\n      mstore\n      shl(0xb0, 0x55736572322057696e21)\n      0x20\n      dup3\n      add\n      mstore\n      swap1\n        /* \"Practical1-Jason.sol\":2086:2917  function logicCheck () view external returns (string memory){... */\n      jump\t// out\n        /* \"Practical1-Jason.sol\":2500:2617  if(user2Choose == 3)... */\n    tag_41:\n        /* \"Practical1-Jason.sol\":2642:2653  user1Choose */\n      sload(0x00)\n        /* \"Practical1-Jason.sol\":2657:2658  3 */\n      0x03\n        /* \"Practical1-Jason.sol\":2642:2658  user1Choose == 3 */\n      sub\n        /* \"Practical1-Jason.sol\":2639:2870  if(user1Choose == 3){... */\n      tag_45\n      jumpi\n        /* \"Practical1-Jason.sol\":2677:2688  user2Choose */\n      sload(0x01)\n        /* \"Practical1-Jason.sol\":2692:2693  3 */\n      0x03\n        /* \"Practical1-Jason.sol\":2677:2693  user2Choose == 3 */\n      sub\n        /* \"Practical1-Jason.sol\":2674:2726  if(user2Choose == 3)... */\n      tag_43\n      jumpi\n      pop\n        /* \"Practical1-Jason.sol\":2712:2726  return (\"Tie\") */\n      0x40\n      dup1\n      mload\n      dup1\n      dup3\n      add\n      swap1\n      swap2\n      mstore\n      0x03\n      dup2\n      mstore\n      shl(0xe8, 0x546965)\n      0x20\n      dup3\n      add\n      mstore\n      swap1\n        /* \"Practical1-Jason.sol\":2086:2917  function logicCheck () view external returns (string memory){... */\n      jump\t// out\n        /* \"Practical1-Jason.sol\":2674:2726  if(user2Choose == 3)... */\n    tag_43:\n        /* \"Practical1-Jason.sol\":2744:2755  user2Choose */\n      sload(0x01)\n        /* \"Practical1-Jason.sol\":2759:2760  1 */\n      0x01\n        /* \"Practical1-Jason.sol\":2744:2760  user2Choose == 1 */\n      sub\n        /* \"Practical1-Jason.sol\":2741:2858  if(user2Choose == 1)... */\n      tag_36\n      jumpi\n      pop\n        /* \"Practical1-Jason.sol\":2779:2800  return (\"User2 Win!\") */\n      0x40\n      dup1\n      mload\n      dup1\n      dup3\n      add\n      swap1\n      swap2\n      mstore\n      0x0a\n      dup2\n      mstore\n      shl(0xb0, 0x55736572322057696e21)\n      0x20\n      dup3\n      add\n      mstore\n      swap1\n        /* \"Practical1-Jason.sol\":2086:2917  function logicCheck () view external returns (string memory){... */\n      jump\t// out\n        /* \"Practical1-Jason.sol\":2741:2858  if(user2Choose == 1)... */\n    tag_45:\n      pop\n        /* \"Practical1-Jason.sol\":2883:2909  return (\"something wrong\") */\n      0x40\n      dup1\n      mload\n      dup1\n      dup3\n      add\n      swap1\n      swap2\n      mstore\n      0x0f\n      dup2\n      mstore\n      shl(0x88, 0x736f6d657468696e672077726f6e67)\n      0x20\n      dup3\n      add\n      mstore\n      swap1\n        /* \"Practical1-Jason.sol\":2086:2917  function logicCheck () view external returns (string memory){... */\n      jump\t// out\n        /* \"Practical1-Jason.sol\":1284:1648  function user1Dicision (uint decisionofRockPaperScissors ) external {... */\n    tag_25:\n        /* \"Practical1-Jason.sol\":1367:1394  decisionofRockPaperScissors */\n      dup1\n        /* \"Practical1-Jason.sol\":1400:1401  1 */\n      0x01\n        /* \"Practical1-Jason.sol\":1366:1402  (decisionofRockPaperScissors) == (1) */\n      eq\n        /* \"Practical1-Jason.sol\":1366:1440  (decisionofRockPaperScissors) == (1)||(decisionofRockPaperScissors) == (2) */\n      dup1\n      tag_47\n      jumpi\n      pop\n        /* \"Practical1-Jason.sol\":1405:1432  decisionofRockPaperScissors */\n      dup1\n        /* \"Practical1-Jason.sol\":1438:1439  2 */\n      0x02\n        /* \"Practical1-Jason.sol\":1404:1440  (decisionofRockPaperScissors) == (2) */\n      eq\n        /* \"Practical1-Jason.sol\":1366:1440  (decisionofRockPaperScissors) == (1)||(decisionofRockPaperScissors) == (2) */\n    tag_47:\n        /* \"Practical1-Jason.sol\":1366:1478  (decisionofRockPaperScissors) == (1)||(decisionofRockPaperScissors) == (2)||(decisionofRockPaperScissors) == (3) */\n      dup1\n      tag_48\n      jumpi\n      pop\n        /* \"Practical1-Jason.sol\":1443:1470  decisionofRockPaperScissors */\n      dup1\n        /* \"Practical1-Jason.sol\":1476:1477  3 */\n      0x03\n        /* \"Practical1-Jason.sol\":1442:1478  (decisionofRockPaperScissors) == (3) */\n      eq\n        /* \"Practical1-Jason.sol\":1366:1478  (decisionofRockPaperScissors) == (1)||(decisionofRockPaperScissors) == (2)||(decisionofRockPaperScissors) == (3) */\n    tag_48:\n        /* \"Practical1-Jason.sol\":1363:1641  if((decisionofRockPaperScissors) == (1)||(decisionofRockPaperScissors) == (2)||(decisionofRockPaperScissors) == (3))... */\n      iszero\n      tag_29\n      jumpi\n        /* \"Practical1-Jason.sol\":1504:1515  user1Choose */\n      0x00\n        /* \"Practical1-Jason.sol\":1504:1545  user1Choose = decisionofRockPaperScissors */\n      sstore\n        /* \"Practical1-Jason.sol\":1654:2018  function user2Dicision (uint decisionofRockPaperScissors ) external {... */\n      jump\t// out\n        /* \"#utility.yul\":14:194   */\n    tag_10:\n        /* \"#utility.yul\":73:79   */\n      0x00\n        /* \"#utility.yul\":126:128   */\n      0x20\n        /* \"#utility.yul\":114:123   */\n      dup3\n        /* \"#utility.yul\":105:112   */\n      dup5\n        /* \"#utility.yul\":101:124   */\n      sub\n        /* \"#utility.yul\":97:129   */\n      slt\n        /* \"#utility.yul\":94:146   */\n      iszero\n      tag_54\n      jumpi\n        /* \"#utility.yul\":142:143   */\n      0x00\n        /* \"#utility.yul\":139:140   */\n      dup1\n        /* \"#utility.yul\":132:144   */\n      revert\n        /* \"#utility.yul\":94:146   */\n    tag_54:\n      pop\n        /* \"#utility.yul\":165:188   */\n      calldataload\n      swap2\n        /* \"#utility.yul\":14:194   */\n      swap1\n      pop\n      jump\t// out\n        /* \"#utility.yul\":199:747   */\n    tag_15:\n        /* \"#utility.yul\":311:315   */\n      0x00\n        /* \"#utility.yul\":340:342   */\n      0x20\n        /* \"#utility.yul\":369:371   */\n      dup1\n        /* \"#utility.yul\":358:367   */\n      dup4\n        /* \"#utility.yul\":351:372   */\n      mstore\n        /* \"#utility.yul\":401:407   */\n      dup4\n        /* \"#utility.yul\":395:408   */\n      mload\n        /* \"#utility.yul\":444:450   */\n      dup1\n        /* \"#utility.yul\":439:441   */\n      dup3\n        /* \"#utility.yul\":428:437   */\n      dup6\n        /* \"#utility.yul\":424:442   */\n      add\n        /* \"#utility.yul\":417:451   */\n      mstore\n        /* \"#utility.yul\":469:470   */\n      0x00\n        /* \"#utility.yul\":479:619   */\n    tag_56:\n        /* \"#utility.yul\":493:499   */\n      dup2\n        /* \"#utility.yul\":490:491   */\n      dup2\n        /* \"#utility.yul\":487:500   */\n      lt\n        /* \"#utility.yul\":479:619   */\n      iszero\n      tag_58\n      jumpi\n        /* \"#utility.yul\":588:602   */\n      dup6\n      dup2\n      add\n        /* \"#utility.yul\":584:607   */\n      dup4\n      add\n        /* \"#utility.yul\":578:608   */\n      mload\n        /* \"#utility.yul\":554:571   */\n      dup6\n      dup3\n      add\n        /* \"#utility.yul\":573:575   */\n      0x40\n        /* \"#utility.yul\":550:576   */\n      add\n        /* \"#utility.yul\":543:609   */\n      mstore\n        /* \"#utility.yul\":508:518   */\n      dup3\n      add\n        /* \"#utility.yul\":479:619   */\n      jump(tag_56)\n    tag_58:\n        /* \"#utility.yul\":483:486   */\n      pop\n        /* \"#utility.yul\":668:669   */\n      0x00\n        /* \"#utility.yul\":663:665   */\n      0x40\n        /* \"#utility.yul\":654:660   */\n      dup3\n        /* \"#utility.yul\":643:652   */\n      dup7\n        /* \"#utility.yul\":639:661   */\n      add\n        /* \"#utility.yul\":635:666   */\n      add\n        /* \"#utility.yul\":628:670   */\n      mstore\n        /* \"#utility.yul\":738:740   */\n      0x40\n        /* \"#utility.yul\":731:733   */\n      0x1f\n        /* \"#utility.yul\":727:734   */\n      not\n        /* \"#utility.yul\":722:724   */\n      0x1f\n        /* \"#utility.yul\":714:720   */\n      dup4\n        /* \"#utility.yul\":710:725   */\n      add\n        /* \"#utility.yul\":706:735   */\n      and\n        /* \"#utility.yul\":695:704   */\n      dup6\n        /* \"#utility.yul\":691:736   */\n      add\n        /* \"#utility.yul\":687:741   */\n      add\n        /* \"#utility.yul\":679:741   */\n      swap3\n      pop\n      pop\n      pop\n        /* \"#utility.yul\":199:747   */\n      swap3\n      swap2\n      pop\n      pop\n      jump\t// out\n\n    auxdata: 0xa26469706673582212202c17cde7f3230753d6d9b0514bd0ea0e12da294e1084bf1e8255e87553b116e864736f6c63430008130033\n}\n",
				"bytecode": {
					"linkReferences": {},
					"object": "608060405234801561001057600080fd5b50610360806100206000396000f3fe608060405234801561001057600080fd5b50600436106100575760003560e01c80633bc0961c1461005c578063669997bc1461007157806381c7373a1461008f578063b2e43e15146100a6578063f054c589146100af575b600080fd5b61006f61006a3660046102c3565b6100c2565b005b61007961012b565b60405161008691906102dc565b60405180910390f35b61009860015481565b604051908152602001610086565b61009860005481565b61006f6100bd3660046102c3565b61029f565b80600114806100d15750806002145b806100dc5750806003145b156100e657600155565b60405162461bcd60e51b8152602060048201526016602482015275506c6561736520656e74657920312c2032206f72203360501b604482015260640160405180910390fd5b60606000546001036101b35760015460010361015f575060408051808201909152600381526254696560e81b602082015290565b60015460020361018e575060408051808201909152600a81526955736572322057696e2160b01b602082015290565b5060408051808201909152600a81526955736572312057696e2160b01b602082015290565b600054600203610214576001546002036101e5575060408051808201909152600381526254696560e81b602082015290565b60015460030361018e575060408051808201909152600a81526955736572322057696e2160b01b602082015290565b60005460030361027557600154600303610246575060408051808201909152600381526254696560e81b602082015290565b60015460010361018e575060408051808201909152600a81526955736572322057696e2160b01b602082015290565b5060408051808201909152600f81526e736f6d657468696e672077726f6e6760881b602082015290565b80600114806102ae5750806002145b806102b95750806003145b156100e657600055565b6000602082840312156102d557600080fd5b5035919050565b600060208083528351808285015260005b81811015610309578581018301518582016040015282016102ed565b506000604082860101526040601f19601f830116850101925050509291505056fea26469706673582212202c17cde7f3230753d6d9b0514bd0ea0e12da294e1084bf1e8255e87553b116e864736f6c63430008130033",
					"opcodes": "PUSH1 0x80 PUSH1 0x40 MSTORE CALLVALUE DUP1 ISZERO PUSH2 0x10 JUMPI PUSH1 0x0 DUP1 REVERT JUMPDEST POP PUSH2 0x360 DUP1 PUSH2 0x20 PUSH1 0x0 CODECOPY PUSH1 0x0 RETURN INVALID PUSH1 0x80 PUSH1 0x40 MSTORE CALLVALUE DUP1 ISZERO PUSH2 0x10 JUMPI PUSH1 0x0 DUP1 REVERT JUMPDEST POP PUSH1 0x4 CALLDATASIZE LT PUSH2 0x57 JUMPI PUSH1 0x0 CALLDATALOAD PUSH1 0xE0 SHR DUP1 PUSH4 0x3BC0961C EQ PUSH2 0x5C JUMPI DUP1 PUSH4 0x669997BC EQ PUSH2 0x71 JUMPI DUP1 PUSH4 0x81C7373A EQ PUSH2 0x8F JUMPI DUP1 PUSH4 0xB2E43E15 EQ PUSH2 0xA6 JUMPI DUP1 PUSH4 0xF054C589 EQ PUSH2 0xAF JUMPI JUMPDEST PUSH1 0x0 DUP1 REVERT JUMPDEST PUSH2 0x6F PUSH2 0x6A CALLDATASIZE PUSH1 0x4 PUSH2 0x2C3 JUMP JUMPDEST PUSH2 0xC2 JUMP JUMPDEST STOP JUMPDEST PUSH2 0x79 PUSH2 0x12B JUMP JUMPDEST PUSH1 0x40 MLOAD PUSH2 0x86 SWAP2 SWAP1 PUSH2 0x2DC JUMP JUMPDEST PUSH1 0x40 MLOAD DUP1 SWAP2 SUB SWAP1 RETURN JUMPDEST PUSH2 0x98 PUSH1 0x1 SLOAD DUP2 JUMP JUMPDEST PUSH1 0x40 MLOAD SWAP1 DUP2 MSTORE PUSH1 0x20 ADD PUSH2 0x86 JUMP JUMPDEST PUSH2 0x98 PUSH1 0x0 SLOAD DUP2 JUMP JUMPDEST PUSH2 0x6F PUSH2 0xBD CALLDATASIZE PUSH1 0x4 PUSH2 0x2C3 JUMP JUMPDEST PUSH2 0x29F JUMP JUMPDEST DUP1 PUSH1 0x1 EQ DUP1 PUSH2 0xD1 JUMPI POP DUP1 PUSH1 0x2 EQ JUMPDEST DUP1 PUSH2 0xDC JUMPI POP DUP1 PUSH1 0x3 EQ JUMPDEST ISZERO PUSH2 0xE6 JUMPI PUSH1 0x1 SSTORE JUMP JUMPDEST PUSH1 0x40 MLOAD PUSH3 0x461BCD PUSH1 0xE5 SHL DUP2 MSTORE PUSH1 0x20 PUSH1 0x4 DUP3 ADD MSTORE PUSH1 0x16 PUSH1 0x24 DUP3 ADD MSTORE PUSH22 0x506C6561736520656E74657920312C2032206F722033 PUSH1 0x50 SHL PUSH1 0x44 DUP3 ADD MSTORE PUSH1 0x64 ADD PUSH1 0x40 MLOAD DUP1 SWAP2 SUB SWAP1 REVERT JUMPDEST PUSH1 0x60 PUSH1 0x0 SLOAD PUSH1 0x1 SUB PUSH2 0x1B3 JUMPI PUSH1 0x1 SLOAD PUSH1 0x1 SUB PUSH2 0x15F JUMPI POP PUSH1 0x40 DUP1 MLOAD DUP1 DUP3 ADD SWAP1 SWAP2 MSTORE PUSH1 0x3 DUP2 MSTORE PUSH3 0x546965 PUSH1 0xE8 SHL PUSH1 0x20 DUP3 ADD MSTORE SWAP1 JUMP JUMPDEST PUSH1 0x1 SLOAD PUSH1 0x2 SUB PUSH2 0x18E JUMPI POP PUSH1 0x40 DUP1 MLOAD DUP1 DUP3 ADD SWAP1 SWAP2 MSTORE PUSH1 0xA DUP2 MSTORE PUSH10 0x55736572322057696E21 PUSH1 0xB0 SHL PUSH1 0x20 DUP3 ADD MSTORE SWAP1 JUMP JUMPDEST POP PUSH1 0x40 DUP1 MLOAD DUP1 DUP3 ADD SWAP1 SWAP2 MSTORE PUSH1 0xA DUP2 MSTORE PUSH10 0x55736572312057696E21 PUSH1 0xB0 SHL PUSH1 0x20 DUP3 ADD MSTORE SWAP1 JUMP JUMPDEST PUSH1 0x0 SLOAD PUSH1 0x2 SUB PUSH2 0x214 JUMPI PUSH1 0x1 SLOAD PUSH1 0x2 SUB PUSH2 0x1E5 JUMPI POP PUSH1 0x40 DUP1 MLOAD DUP1 DUP3 ADD SWAP1 SWAP2 MSTORE PUSH1 0x3 DUP2 MSTORE PUSH3 0x546965 PUSH1 0xE8 SHL PUSH1 0x20 DUP3 ADD MSTORE SWAP1 JUMP JUMPDEST PUSH1 0x1 SLOAD PUSH1 0x3 SUB PUSH2 0x18E JUMPI POP PUSH1 0x40 DUP1 MLOAD DUP1 DUP3 ADD SWAP1 SWAP2 MSTORE PUSH1 0xA DUP2 MSTORE PUSH10 0x55736572322057696E21 PUSH1 0xB0 SHL PUSH1 0x20 DUP3 ADD MSTORE SWAP1 JUMP JUMPDEST PUSH1 0x0 SLOAD PUSH1 0x3 SUB PUSH2 0x275 JUMPI PUSH1 0x1 SLOAD PUSH1 0x3 SUB PUSH2 0x246 JUMPI POP PUSH1 0x40 DUP1 MLOAD DUP1 DUP3 ADD SWAP1 SWAP2 MSTORE PUSH1 0x3 DUP2 MSTORE PUSH3 0x546965 PUSH1 0xE8 SHL PUSH1 0x20 DUP3 ADD MSTORE SWAP1 JUMP JUMPDEST PUSH1 0x1 SLOAD PUSH1 0x1 SUB PUSH2 0x18E JUMPI POP PUSH1 0x40 DUP1 MLOAD DUP1 DUP3 ADD SWAP1 SWAP2 MSTORE PUSH1 0xA DUP2 MSTORE PUSH10 0x55736572322057696E21 PUSH1 0xB0 SHL PUSH1 0x20 DUP3 ADD MSTORE SWAP1 JUMP JUMPDEST POP PUSH1 0x40 DUP1 MLOAD DUP1 DUP3 ADD SWAP1 SWAP2 MSTORE PUSH1 0xF DUP2 MSTORE PUSH15 0x736F6D657468696E672077726F6E67 PUSH1 0x88 SHL PUSH1 0x20 DUP3 ADD MSTORE SWAP1 JUMP JUMPDEST DUP1 PUSH1 0x1 EQ DUP1 PUSH2 0x2AE JUMPI POP DUP1 PUSH1 0x2 EQ JUMPDEST DUP1 PUSH2 0x2B9 JUMPI POP DUP1 PUSH1 0x3 EQ JUMPDEST ISZERO PUSH2 0xE6 JUMPI PUSH1 0x0 SSTORE JUMP JUMPDEST PUSH1 0x0 PUSH1 0x20 DUP3 DUP5 SUB SLT ISZERO PUSH2 0x2D5 JUMPI PUSH1 0x0 DUP1 REVERT JUMPDEST POP CALLDATALOAD SWAP2 SWAP1 POP JUMP JUMPDEST PUSH1 0x0 PUSH1 0x20 DUP1 DUP4 MSTORE DUP4 MLOAD DUP1 DUP3 DUP6 ADD MSTORE PUSH1 0x0 JUMPDEST DUP2 DUP2 LT ISZERO PUSH2 0x309 JUMPI DUP6 DUP2 ADD DUP4 ADD MLOAD DUP6 DUP3 ADD PUSH1 0x40 ADD MSTORE DUP3 ADD PUSH2 0x2ED JUMP JUMPDEST POP PUSH1 0x0 PUSH1 0x40 DUP3 DUP7 ADD ADD MSTORE PUSH1 0x40 PUSH1 0x1F NOT PUSH1 0x1F DUP4 ADD AND DUP6 ADD ADD SWAP3 POP POP POP SWAP3 SWAP2 POP POP JUMP INVALID LOG2 PUSH5 0x6970667358 0x22 SLT KECCAK256 0x2C OR 0xCD 0xE7 RETURN 0x23 SMOD MSTORE8 0xD6 0xD9 0xB0 MLOAD 0x4B 0xD0 0xEA 0xE SLT 0xDA 0x29 0x4E LT DUP5 0xBF 0x1E DUP3 SSTORE 0xE8 PUSH22 0x53B116E864736F6C6343000813003300000000000000 "
				},
				"gasEstimates": {
					"creation": {
						"codeDepositCost": "172800",
						"executionCost": "214",
						"totalCost": "173014"
					},
					"external": {
						"logicCheck()": "infinite",
						"user1Choose()": "2339",
						"user1Dicision(uint256)": "22471",
						"user2Choose()": "2317",
						"user2Dicision(uint256)": "22383"
					}
				},
				"methodIdentifiers": {
					"logicCheck()": "669997bc",
					"user1Choose()": "b2e43e15",
					"user1Dicision(uint256)": "f054c589",
					"user2Choose()": "81c7373a",
					"user2Dicision(uint256)": "3bc0961c"
				}
			},
			"storageLayout": {
				"storage": [
					{
						"astId": 67,
						"contract": "Practical1-Jason.sol:RockPaperScissors",
						"label": "user1Choose",
						"offset": 0,
						"slot": "0",
						"type": "t_uint256"
					},
					{
						"astId": 69,
						"contract": "Practical1-Jason.sol:RockPaperScissors",
						"label": "user2Choose",
						"offset": 0,
						"slot": "1",
						"type": "t_uint256"
					}
				],
				"types": {
					"t_uint256": {
						"encoding": "inplace",
						"label": "uint256",
						"numberOfBytes": "32"
					}
				}
			},
			"userdoc": {
				"kind": "user",
				"methods": {},
				"version": 1
			}
		}
	}
}