{
	"ERC20-Practical.sol": {
		"Owner": {
			"abi": [
				{
					"inputs": [
						{
							"internalType": "address",
							"name": "recipient",
							"type": "address"
						},
						{
							"internalType": "uint256",
							"name": "amount",
							"type": "uint256"
						}
					],
					"name": "transfer",
					"outputs": [],
					"stateMutability": "payable",
					"type": "function"
				}
			],
			"devdoc": {
				"kind": "dev",
				"methods": {},
				"version": 1
			},
			"evm": {
				"assembly": "    /* \"ERC20-Practical.sol\":1124:1532  contract Owner {... */\n  mstore(0x40, 0x80)\n  callvalue\n  dup1\n  iszero\n  tag_1\n  jumpi\n  0x00\n  dup1\n  revert\ntag_1:\n  pop\n  dataSize(sub_0)\n  dup1\n  dataOffset(sub_0)\n  0x00\n  codecopy\n  0x00\n  return\nstop\n\nsub_0: assembly {\n        /* \"ERC20-Practical.sol\":1124:1532  contract Owner {... */\n      mstore(0x40, 0x80)\n      jumpi(tag_1, lt(calldatasize, 0x04))\n      shr(0xe0, calldataload(0x00))\n      dup1\n      0xa9059cbb\n      eq\n      tag_2\n      jumpi\n    tag_1:\n      0x00\n      dup1\n      revert\n        /* \"ERC20-Practical.sol\":1146:1529  function transfer(address recipient, uint amount)external payable {... */\n    tag_2:\n      tag_3\n      tag_4\n      calldatasize\n      0x04\n      tag_5\n      jump\t// in\n    tag_4:\n      tag_6\n      jump\t// in\n    tag_3:\n      stop\n    tag_6:\n        /* \"ERC20-Practical.sol\":1299:1364  token.approve(0x5B38Da6a701c568545dCfcB03FcB875f56beddC4, amount) */\n      mload(0x40)\n      shl(0xe0, 0x095ea7b3)\n      dup2\n      mstore\n        /* \"ERC20-Practical.sol\":1313:1355  0x5B38Da6a701c568545dCfcB03FcB875f56beddC4 */\n      0x5b38da6a701c568545dcfcb03fcb875f56beddc4\n        /* \"ERC20-Practical.sol\":1299:1364  token.approve(0x5B38Da6a701c568545dCfcB03FcB875f56beddC4, amount) */\n      0x04\n      dup3\n      add\n        /* \"#utility.yul\":547:598   */\n      mstore\n        /* \"#utility.yul\":614:632   */\n      0x24\n      dup2\n      add\n        /* \"#utility.yul\":607:641   */\n      dup3\n      swap1\n      mstore\n        /* \"ERC20-Practical.sol\":1245:1287  0xdD870fA1b7C4700F2BD7f44238821C26f7392148 */\n      0xdd870fa1b7c4700f2bd7f44238821c26f7392148\n      swap1\n      dup2\n      swap1\n        /* \"ERC20-Practical.sol\":1299:1312  token.approve */\n      0x095ea7b3\n      swap1\n        /* \"#utility.yul\":520:538   */\n      0x44\n      add\n        /* \"ERC20-Practical.sol\":1299:1364  token.approve(0x5B38Da6a701c568545dCfcB03FcB875f56beddC4, amount) */\n      0x20\n      mload(0x40)\n      dup1\n      dup4\n      sub\n      dup2\n      0x00\n      dup8\n      gas\n      call\n      iszero\n      dup1\n      iszero\n      tag_11\n      jumpi\n      returndatasize\n      0x00\n      dup1\n      returndatacopy\n      revert(0x00, returndatasize)\n    tag_11:\n      pop\n      pop\n      pop\n      pop\n      mload(0x40)\n      returndatasize\n      not(0x1f)\n      0x1f\n      dup3\n      add\n      and\n      dup3\n      add\n      dup1\n      0x40\n      mstore\n      pop\n      dup2\n      add\n      swap1\n      tag_12\n      swap2\n      swap1\n      tag_13\n      jump\t// in\n    tag_12:\n      pop\n        /* \"ERC20-Practical.sol\":1474:1519  transfertoken.transferForm(recipient, amount) */\n      mload(0x40)\n      shl(0xe1, 0x6dede75f)\n      dup2\n      mstore\n      sub(shl(0xa0, 0x01), 0x01)\n        /* \"#utility.yul\":565:597   */\n      dup5\n      and\n        /* \"ERC20-Practical.sol\":1474:1519  transfertoken.transferForm(recipient, amount) */\n      0x04\n      dup3\n      add\n        /* \"#utility.yul\":547:598   */\n      mstore\n        /* \"#utility.yul\":614:632   */\n      0x24\n      dup2\n      add\n        /* \"#utility.yul\":607:641   */\n      dup4\n      swap1\n      mstore\n        /* \"ERC20-Practical.sol\":1420:1462  0x5B38Da6a701c568545dCfcB03FcB875f56beddC4 */\n      0x5b38da6a701c568545dcfcb03fcb875f56beddc4\n      swap1\n      dup2\n      swap1\n        /* \"ERC20-Practical.sol\":1474:1500  transfertoken.transferForm */\n      0xdbdbcebe\n      swap1\n        /* \"#utility.yul\":520:538   */\n      0x44\n      add\n        /* \"ERC20-Practical.sol\":1474:1519  transfertoken.transferForm(recipient, amount) */\n      0x00\n      mload(0x40)\n      dup1\n      dup4\n      sub\n      dup2\n      0x00\n      dup8\n      dup1\n      extcodesize\n      iszero\n      dup1\n      iszero\n      tag_15\n      jumpi\n      0x00\n      dup1\n      revert\n    tag_15:\n      pop\n      gas\n      call\n      iszero\n      dup1\n      iszero\n      tag_17\n      jumpi\n      returndatasize\n      0x00\n      dup1\n      returndatacopy\n      revert(0x00, returndatasize)\n    tag_17:\n      pop\n      pop\n      pop\n      pop\n        /* \"ERC20-Practical.sol\":1212:1529  {... */\n      pop\n      pop\n        /* \"ERC20-Practical.sol\":1146:1529  function transfer(address recipient, uint amount)external payable {... */\n      pop\n      pop\n      jump\t// out\n        /* \"#utility.yul\":14:368   */\n    tag_5:\n        /* \"#utility.yul\":82:88   */\n      0x00\n        /* \"#utility.yul\":90:96   */\n      dup1\n        /* \"#utility.yul\":143:145   */\n      0x40\n        /* \"#utility.yul\":131:140   */\n      dup4\n        /* \"#utility.yul\":122:129   */\n      dup6\n        /* \"#utility.yul\":118:141   */\n      sub\n        /* \"#utility.yul\":114:146   */\n      slt\n        /* \"#utility.yul\":111:163   */\n      iszero\n      tag_20\n      jumpi\n        /* \"#utility.yul\":159:160   */\n      0x00\n        /* \"#utility.yul\":156:157   */\n      dup1\n        /* \"#utility.yul\":149:161   */\n      revert\n        /* \"#utility.yul\":111:163   */\n    tag_20:\n        /* \"#utility.yul\":185:208   */\n      dup3\n      calldataload\n      sub(shl(0xa0, 0x01), 0x01)\n        /* \"#utility.yul\":237:268   */\n      dup2\n      and\n        /* \"#utility.yul\":227:269   */\n      dup2\n      eq\n        /* \"#utility.yul\":217:287   */\n      tag_21\n      jumpi\n        /* \"#utility.yul\":283:284   */\n      0x00\n        /* \"#utility.yul\":280:281   */\n      dup1\n        /* \"#utility.yul\":273:285   */\n      revert\n        /* \"#utility.yul\":217:287   */\n    tag_21:\n        /* \"#utility.yul\":306:311   */\n      swap5\n        /* \"#utility.yul\":358:360   */\n      0x20\n        /* \"#utility.yul\":343:361   */\n      swap4\n      swap1\n      swap4\n      add\n        /* \"#utility.yul\":330:362   */\n      calldataload\n      swap4\n      pop\n      pop\n      pop\n        /* \"#utility.yul\":14:368   */\n      jump\t// out\n        /* \"#utility.yul\":652:929   */\n    tag_13:\n        /* \"#utility.yul\":719:725   */\n      0x00\n        /* \"#utility.yul\":772:774   */\n      0x20\n        /* \"#utility.yul\":760:769   */\n      dup3\n        /* \"#utility.yul\":751:758   */\n      dup5\n        /* \"#utility.yul\":747:770   */\n      sub\n        /* \"#utility.yul\":743:775   */\n      slt\n        /* \"#utility.yul\":740:792   */\n      iszero\n      tag_24\n      jumpi\n        /* \"#utility.yul\":788:789   */\n      0x00\n        /* \"#utility.yul\":785:786   */\n      dup1\n        /* \"#utility.yul\":778:790   */\n      revert\n        /* \"#utility.yul\":740:792   */\n    tag_24:\n        /* \"#utility.yul\":820:829   */\n      dup2\n        /* \"#utility.yul\":814:830   */\n      mload\n        /* \"#utility.yul\":873:878   */\n      dup1\n        /* \"#utility.yul\":866:879   */\n      iszero\n        /* \"#utility.yul\":859:880   */\n      iszero\n        /* \"#utility.yul\":852:857   */\n      dup2\n        /* \"#utility.yul\":849:881   */\n      eq\n        /* \"#utility.yul\":839:899   */\n      tag_25\n      jumpi\n        /* \"#utility.yul\":895:896   */\n      0x00\n        /* \"#utility.yul\":892:893   */\n      dup1\n        /* \"#utility.yul\":885:897   */\n      revert\n        /* \"#utility.yul\":839:899   */\n    tag_25:\n        /* \"#utility.yul\":918:923   */\n      swap4\n        /* \"#utility.yul\":652:929   */\n      swap3\n      pop\n      pop\n      pop\n      jump\t// out\n\n    auxdata: 0xa2646970667358221220def8da0b86b3fc7d71a683c68212c368c276985acfb8d7e630a5695bcbf5f2ea64736f6c63430008140033\n}\n",
				"bytecode": {
					"linkReferences": {},
					"object": "608060405234801561000f575f80fd5b506101ce8061001d5f395ff3fe60806040526004361061001d575f3560e01c8063a9059cbb14610021575b5f80fd5b61003461002f36600461013d565b610036565b005b60405163095ea7b360e01b8152735b38da6a701c568545dcfcb03fcb875f56beddc460048201526024810182905273dd870fa1b7c4700f2bd7f44238821c26f739214890819063095ea7b3906044016020604051808303815f875af11580156100a1573d5f803e3d5ffd5b505050506040513d601f19601f820116820180604052508101906100c59190610172565b50604051636dede75f60e11b81526001600160a01b038416600482015260248101839052735b38da6a701c568545dcfcb03fcb875f56beddc490819063dbdbcebe906044015f604051808303815f87803b158015610121575f80fd5b505af1158015610133573d5f803e3d5ffd5b5050505050505050565b5f806040838503121561014e575f80fd5b82356001600160a01b0381168114610164575f80fd5b946020939093013593505050565b5f60208284031215610182575f80fd5b81518015158114610191575f80fd5b939250505056fea2646970667358221220def8da0b86b3fc7d71a683c68212c368c276985acfb8d7e630a5695bcbf5f2ea64736f6c63430008140033",
					"opcodes": "PUSH1 0x80 PUSH1 0x40 MSTORE CALLVALUE DUP1 ISZERO PUSH2 0xF JUMPI PUSH0 DUP1 REVERT JUMPDEST POP PUSH2 0x1CE DUP1 PUSH2 0x1D PUSH0 CODECOPY PUSH0 RETURN INVALID PUSH1 0x80 PUSH1 0x40 MSTORE PUSH1 0x4 CALLDATASIZE LT PUSH2 0x1D JUMPI PUSH0 CALLDATALOAD PUSH1 0xE0 SHR DUP1 PUSH4 0xA9059CBB EQ PUSH2 0x21 JUMPI JUMPDEST PUSH0 DUP1 REVERT JUMPDEST PUSH2 0x34 PUSH2 0x2F CALLDATASIZE PUSH1 0x4 PUSH2 0x13D JUMP JUMPDEST PUSH2 0x36 JUMP JUMPDEST STOP JUMPDEST PUSH1 0x40 MLOAD PUSH4 0x95EA7B3 PUSH1 0xE0 SHL DUP2 MSTORE PUSH20 0x5B38DA6A701C568545DCFCB03FCB875F56BEDDC4 PUSH1 0x4 DUP3 ADD MSTORE PUSH1 0x24 DUP2 ADD DUP3 SWAP1 MSTORE PUSH20 0xDD870FA1B7C4700F2BD7F44238821C26F7392148 SWAP1 DUP2 SWAP1 PUSH4 0x95EA7B3 SWAP1 PUSH1 0x44 ADD PUSH1 0x20 PUSH1 0x40 MLOAD DUP1 DUP4 SUB DUP2 PUSH0 DUP8 GAS CALL ISZERO DUP1 ISZERO PUSH2 0xA1 JUMPI RETURNDATASIZE PUSH0 DUP1 RETURNDATACOPY RETURNDATASIZE PUSH0 REVERT JUMPDEST POP POP POP POP PUSH1 0x40 MLOAD RETURNDATASIZE PUSH1 0x1F NOT PUSH1 0x1F DUP3 ADD AND DUP3 ADD DUP1 PUSH1 0x40 MSTORE POP DUP2 ADD SWAP1 PUSH2 0xC5 SWAP2 SWAP1 PUSH2 0x172 JUMP JUMPDEST POP PUSH1 0x40 MLOAD PUSH4 0x6DEDE75F PUSH1 0xE1 SHL DUP2 MSTORE PUSH1 0x1 PUSH1 0x1 PUSH1 0xA0 SHL SUB DUP5 AND PUSH1 0x4 DUP3 ADD MSTORE PUSH1 0x24 DUP2 ADD DUP4 SWAP1 MSTORE PUSH20 0x5B38DA6A701C568545DCFCB03FCB875F56BEDDC4 SWAP1 DUP2 SWAP1 PUSH4 0xDBDBCEBE SWAP1 PUSH1 0x44 ADD PUSH0 PUSH1 0x40 MLOAD DUP1 DUP4 SUB DUP2 PUSH0 DUP8 DUP1 EXTCODESIZE ISZERO DUP1 ISZERO PUSH2 0x121 JUMPI PUSH0 DUP1 REVERT JUMPDEST POP GAS CALL ISZERO DUP1 ISZERO PUSH2 0x133 JUMPI RETURNDATASIZE PUSH0 DUP1 RETURNDATACOPY RETURNDATASIZE PUSH0 REVERT JUMPDEST POP POP POP POP POP POP POP POP JUMP JUMPDEST PUSH0 DUP1 PUSH1 0x40 DUP4 DUP6 SUB SLT ISZERO PUSH2 0x14E JUMPI PUSH0 DUP1 REVERT JUMPDEST DUP3 CALLDATALOAD PUSH1 0x1 PUSH1 0x1 PUSH1 0xA0 SHL SUB DUP2 AND DUP2 EQ PUSH2 0x164 JUMPI PUSH0 DUP1 REVERT JUMPDEST SWAP5 PUSH1 0x20 SWAP4 SWAP1 SWAP4 ADD CALLDATALOAD SWAP4 POP POP POP JUMP JUMPDEST PUSH0 PUSH1 0x20 DUP3 DUP5 SUB SLT ISZERO PUSH2 0x182 JUMPI PUSH0 DUP1 REVERT JUMPDEST DUP2 MLOAD DUP1 ISZERO ISZERO DUP2 EQ PUSH2 0x191 JUMPI PUSH0 DUP1 REVERT JUMPDEST SWAP4 SWAP3 POP POP POP JUMP INVALID LOG2 PUSH5 0x6970667358 0x22 SLT KECCAK256 0xDE 0xF8 0xDA SIGNEXTEND DUP7 0xB3 0xFC PUSH30 0x71A683C68212C368C276985ACFB8D7E630A5695BCBF5F2EA64736F6C6343 STOP ADDMOD EQ STOP CALLER "
				},
				"gasEstimates": {
					"creation": {
						"codeDepositCost": "92400",
						"executionCost": "139",
						"totalCost": "92539"
					},
					"external": {
						"transfer(address,uint256)": "infinite"
					}
				},
				"methodIdentifiers": {
					"transfer(address,uint256)": "a9059cbb"
				}
			},
			"storageLayout": {
				"storage": [],
				"types": null
			},
			"userdoc": {
				"kind": "user",
				"methods": {},
				"version": 1
			}
		}
	}
}