{
	"ERC20-Practical.sol": {
		"TransferToken": {
			"abi": [
				{
					"inputs": [
						{
							"internalType": "address",
							"name": "recipient",
							"type": "address"
						},
						{
							"internalType": "uint256",
							"name": "amount",
							"type": "uint256"
						}
					],
					"name": "transferForm",
					"outputs": [],
					"stateMutability": "payable",
					"type": "function"
				}
			],
			"devdoc": {
				"kind": "dev",
				"methods": {},
				"version": 1
			},
			"evm": {
				"assembly": "    /* \"ERC20-Practical.sol\":871:1120  contract TransferToken {... */\n  mstore(0x40, 0x80)\n  callvalue\n  dup1\n  iszero\n  tag_1\n  jumpi\n  0x00\n  dup1\n  revert\ntag_1:\n  pop\n  dataSize(sub_0)\n  dup1\n  dataOffset(sub_0)\n  0x00\n  codecopy\n  0x00\n  return\nstop\n\nsub_0: assembly {\n        /* \"ERC20-Practical.sol\":871:1120  contract TransferToken {... */\n      mstore(0x40, 0x80)\n      jumpi(tag_1, lt(calldatasize, 0x04))\n      shr(0xe0, calldataload(0x00))\n      dup1\n      0xdbdbcebe\n      eq\n      tag_2\n      jumpi\n    tag_1:\n      0x00\n      dup1\n      revert\n        /* \"ERC20-Practical.sol\":901:1117  function transferForm (address recipient, uint amount) external payable {... */\n    tag_2:\n      tag_3\n      tag_4\n      calldatasize\n      0x04\n      tag_5\n      jump\t// in\n    tag_4:\n      tag_6\n      jump\t// in\n    tag_3:\n      stop\n    tag_6:\n        /* \"ERC20-Practical.sol\":1060:1109  token.transferFrom(msg.sender, recipient, amount) */\n      mload(0x40)\n      shl(0xe0, 0x23b872dd)\n      dup2\n      mstore\n        /* \"ERC20-Practical.sol\":1079:1089  msg.sender */\n      caller\n        /* \"ERC20-Practical.sol\":1060:1109  token.transferFrom(msg.sender, recipient, amount) */\n      0x04\n      dup3\n      add\n        /* \"#utility.yul\":613:647   */\n      mstore\n      sub(shl(0xa0, 0x01), 0x01)\n        /* \"#utility.yul\":683:698   */\n      dup4\n      and\n        /* \"#utility.yul\":663:681   */\n      0x24\n      dup3\n      add\n        /* \"#utility.yul\":656:699   */\n      mstore\n        /* \"#utility.yul\":715:733   */\n      0x44\n      dup2\n      add\n        /* \"#utility.yul\":708:742   */\n      dup3\n      swap1\n      mstore\n        /* \"ERC20-Practical.sol\":1006:1048  0xdD870fA1b7C4700F2BD7f44238821C26f7392148 */\n      0xdd870fa1b7c4700f2bd7f44238821c26f7392148\n      swap1\n      dup2\n      swap1\n        /* \"ERC20-Practical.sol\":1060:1078  token.transferFrom */\n      0x23b872dd\n      swap1\n        /* \"#utility.yul\":548:566   */\n      0x64\n      add\n        /* \"ERC20-Practical.sol\":1060:1109  token.transferFrom(msg.sender, recipient, amount) */\n      0x20\n      mload(0x40)\n      dup1\n      dup4\n      sub\n      dup2\n      0x00\n      dup8\n      gas\n      call\n      iszero\n      dup1\n      iszero\n      tag_11\n      jumpi\n      returndatasize\n      0x00\n      dup1\n      returndatacopy\n      revert(0x00, returndatasize)\n    tag_11:\n      pop\n      pop\n      pop\n      pop\n      mload(0x40)\n      returndatasize\n      not(0x1f)\n      0x1f\n      dup3\n      add\n      and\n      dup3\n      add\n      dup1\n      0x40\n      mstore\n      pop\n      dup2\n      add\n      swap1\n      tag_12\n      swap2\n      swap1\n      tag_13\n      jump\t// in\n    tag_12:\n      pop\n        /* \"ERC20-Practical.sol\":973:1117  {... */\n      pop\n        /* \"ERC20-Practical.sol\":901:1117  function transferForm (address recipient, uint amount) external payable {... */\n      pop\n      pop\n      jump\t// out\n        /* \"#utility.yul\":14:368   */\n    tag_5:\n        /* \"#utility.yul\":82:88   */\n      0x00\n        /* \"#utility.yul\":90:96   */\n      dup1\n        /* \"#utility.yul\":143:145   */\n      0x40\n        /* \"#utility.yul\":131:140   */\n      dup4\n        /* \"#utility.yul\":122:129   */\n      dup6\n        /* \"#utility.yul\":118:141   */\n      sub\n        /* \"#utility.yul\":114:146   */\n      slt\n        /* \"#utility.yul\":111:163   */\n      iszero\n      tag_16\n      jumpi\n        /* \"#utility.yul\":159:160   */\n      0x00\n        /* \"#utility.yul\":156:157   */\n      dup1\n        /* \"#utility.yul\":149:161   */\n      revert\n        /* \"#utility.yul\":111:163   */\n    tag_16:\n        /* \"#utility.yul\":185:208   */\n      dup3\n      calldataload\n      sub(shl(0xa0, 0x01), 0x01)\n        /* \"#utility.yul\":237:268   */\n      dup2\n      and\n        /* \"#utility.yul\":227:269   */\n      dup2\n      eq\n        /* \"#utility.yul\":217:287   */\n      tag_17\n      jumpi\n        /* \"#utility.yul\":283:284   */\n      0x00\n        /* \"#utility.yul\":280:281   */\n      dup1\n        /* \"#utility.yul\":273:285   */\n      revert\n        /* \"#utility.yul\":217:287   */\n    tag_17:\n        /* \"#utility.yul\":306:311   */\n      swap5\n        /* \"#utility.yul\":358:360   */\n      0x20\n        /* \"#utility.yul\":343:361   */\n      swap4\n      swap1\n      swap4\n      add\n        /* \"#utility.yul\":330:362   */\n      calldataload\n      swap4\n      pop\n      pop\n      pop\n        /* \"#utility.yul\":14:368   */\n      jump\t// out\n        /* \"#utility.yul\":753:1030   */\n    tag_13:\n        /* \"#utility.yul\":820:826   */\n      0x00\n        /* \"#utility.yul\":873:875   */\n      0x20\n        /* \"#utility.yul\":861:870   */\n      dup3\n        /* \"#utility.yul\":852:859   */\n      dup5\n        /* \"#utility.yul\":848:871   */\n      sub\n        /* \"#utility.yul\":844:876   */\n      slt\n        /* \"#utility.yul\":841:893   */\n      iszero\n      tag_20\n      jumpi\n        /* \"#utility.yul\":889:890   */\n      0x00\n        /* \"#utility.yul\":886:887   */\n      dup1\n        /* \"#utility.yul\":879:891   */\n      revert\n        /* \"#utility.yul\":841:893   */\n    tag_20:\n        /* \"#utility.yul\":921:930   */\n      dup2\n        /* \"#utility.yul\":915:931   */\n      mload\n        /* \"#utility.yul\":974:979   */\n      dup1\n        /* \"#utility.yul\":967:980   */\n      iszero\n        /* \"#utility.yul\":960:981   */\n      iszero\n        /* \"#utility.yul\":953:958   */\n      dup2\n        /* \"#utility.yul\":950:982   */\n      eq\n        /* \"#utility.yul\":940:1000   */\n      tag_21\n      jumpi\n        /* \"#utility.yul\":996:997   */\n      0x00\n        /* \"#utility.yul\":993:994   */\n      dup1\n        /* \"#utility.yul\":986:998   */\n      revert\n        /* \"#utility.yul\":940:1000   */\n    tag_21:\n        /* \"#utility.yul\":1019:1024   */\n      swap4\n        /* \"#utility.yul\":753:1030   */\n      swap3\n      pop\n      pop\n      pop\n      jump\t// out\n\n    auxdata: 0xa2646970667358221220e03c4baaa41a18ae7659d416077b3e5e490833ddf287bf997e1cb5a6282d966164736f6c63430008140033\n}\n",
				"bytecode": {
					"linkReferences": {},
					"object": "608060405234801561000f575f80fd5b506101578061001d5f395ff3fe60806040526004361061001d575f3560e01c8063dbdbcebe14610021575b5f80fd5b61003461002f3660046100c6565b610036565b005b6040516323b872dd60e01b81523360048201526001600160a01b03831660248201526044810182905273dd870fa1b7c4700f2bd7f44238821c26f73921489081906323b872dd906064016020604051808303815f875af115801561009c573d5f803e3d5ffd5b505050506040513d601f19601f820116820180604052508101906100c091906100fb565b50505050565b5f80604083850312156100d7575f80fd5b82356001600160a01b03811681146100ed575f80fd5b946020939093013593505050565b5f6020828403121561010b575f80fd5b8151801515811461011a575f80fd5b939250505056fea2646970667358221220e03c4baaa41a18ae7659d416077b3e5e490833ddf287bf997e1cb5a6282d966164736f6c63430008140033",
					"opcodes": "PUSH1 0x80 PUSH1 0x40 MSTORE CALLVALUE DUP1 ISZERO PUSH2 0xF JUMPI PUSH0 DUP1 REVERT JUMPDEST POP PUSH2 0x157 DUP1 PUSH2 0x1D PUSH0 CODECOPY PUSH0 RETURN INVALID PUSH1 0x80 PUSH1 0x40 MSTORE PUSH1 0x4 CALLDATASIZE LT PUSH2 0x1D JUMPI PUSH0 CALLDATALOAD PUSH1 0xE0 SHR DUP1 PUSH4 0xDBDBCEBE EQ PUSH2 0x21 JUMPI JUMPDEST PUSH0 DUP1 REVERT JUMPDEST PUSH2 0x34 PUSH2 0x2F CALLDATASIZE PUSH1 0x4 PUSH2 0xC6 JUMP JUMPDEST PUSH2 0x36 JUMP JUMPDEST STOP JUMPDEST PUSH1 0x40 MLOAD PUSH4 0x23B872DD PUSH1 0xE0 SHL DUP2 MSTORE CALLER PUSH1 0x4 DUP3 ADD MSTORE PUSH1 0x1 PUSH1 0x1 PUSH1 0xA0 SHL SUB DUP4 AND PUSH1 0x24 DUP3 ADD MSTORE PUSH1 0x44 DUP2 ADD DUP3 SWAP1 MSTORE PUSH20 0xDD870FA1B7C4700F2BD7F44238821C26F7392148 SWAP1 DUP2 SWAP1 PUSH4 0x23B872DD SWAP1 PUSH1 0x64 ADD PUSH1 0x20 PUSH1 0x40 MLOAD DUP1 DUP4 SUB DUP2 PUSH0 DUP8 GAS CALL ISZERO DUP1 ISZERO PUSH2 0x9C JUMPI RETURNDATASIZE PUSH0 DUP1 RETURNDATACOPY RETURNDATASIZE PUSH0 REVERT JUMPDEST POP POP POP POP PUSH1 0x40 MLOAD RETURNDATASIZE PUSH1 0x1F NOT PUSH1 0x1F DUP3 ADD AND DUP3 ADD DUP1 PUSH1 0x40 MSTORE POP DUP2 ADD SWAP1 PUSH2 0xC0 SWAP2 SWAP1 PUSH2 0xFB JUMP JUMPDEST POP POP POP POP JUMP JUMPDEST PUSH0 DUP1 PUSH1 0x40 DUP4 DUP6 SUB SLT ISZERO PUSH2 0xD7 JUMPI PUSH0 DUP1 REVERT JUMPDEST DUP3 CALLDATALOAD PUSH1 0x1 PUSH1 0x1 PUSH1 0xA0 SHL SUB DUP2 AND DUP2 EQ PUSH2 0xED JUMPI PUSH0 DUP1 REVERT JUMPDEST SWAP5 PUSH1 0x20 SWAP4 SWAP1 SWAP4 ADD CALLDATALOAD SWAP4 POP POP POP JUMP JUMPDEST PUSH0 PUSH1 0x20 DUP3 DUP5 SUB SLT ISZERO PUSH2 0x10B JUMPI PUSH0 DUP1 REVERT JUMPDEST DUP2 MLOAD DUP1 ISZERO ISZERO DUP2 EQ PUSH2 0x11A JUMPI PUSH0 DUP1 REVERT JUMPDEST SWAP4 SWAP3 POP POP POP JUMP INVALID LOG2 PUSH5 0x6970667358 0x22 SLT KECCAK256 0xE0 EXTCODECOPY 0x4B 0xAA LOG4 BYTE XOR 0xAE PUSH23 0x59D416077B3E5E490833DDF287BF997E1CB5A6282D9661 PUSH5 0x736F6C6343 STOP ADDMOD EQ STOP CALLER "
				},
				"gasEstimates": {
					"creation": {
						"codeDepositCost": "68600",
						"executionCost": "115",
						"totalCost": "68715"
					},
					"external": {
						"transferForm(address,uint256)": "infinite"
					}
				},
				"methodIdentifiers": {
					"transferForm(address,uint256)": "dbdbcebe"
				}
			},
			"storageLayout": {
				"storage": [],
				"types": null
			},
			"userdoc": {
				"kind": "user",
				"methods": {},
				"version": 1
			}
		}
	}
}