{
	"ERC20-Practical.sol": {
		"ERC20Practical": {
			"abi": [
				{
					"inputs": [],
					"stateMutability": "nonpayable",
					"type": "constructor"
				},
				{
					"inputs": [
						{
							"internalType": "address payable",
							"name": "_to",
							"type": "address"
						},
						{
							"internalType": "uint256",
							"name": "amount",
							"type": "uint256"
						}
					],
					"name": "calltransfer",
					"outputs": [],
					"stateMutability": "nonpayable",
					"type": "function"
				},
				{
					"inputs": [],
					"name": "transfer",
					"outputs": [],
					"stateMutability": "nonpayable",
					"type": "function"
				},
				{
					"inputs": [
						{
							"internalType": "uint256",
							"name": "amount",
							"type": "uint256"
						}
					],
					"name": "transferFrom",
					"outputs": [],
					"stateMutability": "nonpayable",
					"type": "function"
				}
			],
			"devdoc": {
				"kind": "dev",
				"methods": {},
				"version": 1
			},
			"evm": {
				"assembly": "    /* \"ERC20-Practical.sol\":121:867  contract ERC20Practical{... */\n  mstore(0x40, 0x80)\n    /* \"ERC20-Practical.sol\":216:308  constructor() {... */\n  callvalue\n  dup1\n  iszero\n  tag_1\n  jumpi\n  0x00\n  dup1\n  revert\ntag_1:\n  pop\n    /* \"ERC20-Practical.sol\":241:247  _token */\n  0x00\n    /* \"ERC20-Practical.sol\":241:300  _token = IERC20(0xdD870fA1b7C4700F2BD7f44238821C26f7392148) */\n  dup1\n  sload\n  not(sub(shl(0xa0, 0x01), 0x01))\n  and\n    /* \"ERC20-Practical.sol\":257:299  0xdD870fA1b7C4700F2BD7f44238821C26f7392148 */\n  0xdd870fa1b7c4700f2bd7f44238821c26f7392148\n    /* \"ERC20-Practical.sol\":241:300  _token = IERC20(0xdD870fA1b7C4700F2BD7f44238821C26f7392148) */\n  or\n  swap1\n  sstore\n    /* \"ERC20-Practical.sol\":121:867  contract ERC20Practical{... */\n  dataSize(sub_0)\n  dup1\n  dataOffset(sub_0)\n  0x00\n  codecopy\n  0x00\n  return\nstop\n\nsub_0: assembly {\n        /* \"ERC20-Practical.sol\":121:867  contract ERC20Practical{... */\n      mstore(0x40, 0x80)\n      callvalue\n      dup1\n      iszero\n      tag_1\n      jumpi\n      0x00\n      dup1\n      revert\n    tag_1:\n      pop\n      jumpi(tag_2, lt(calldatasize, 0x04))\n      shr(0xe0, calldataload(0x00))\n      dup1\n      0x42b58685\n      eq\n      tag_3\n      jumpi\n      dup1\n      0x77a11f7e\n      eq\n      tag_4\n      jumpi\n      dup1\n      0x8a4068dd\n      eq\n      tag_5\n      jumpi\n    tag_2:\n      0x00\n      dup1\n      revert\n        /* \"ERC20-Practical.sol\":646:864  function calltransfer (address payable _to, uint amount) external {... */\n    tag_3:\n      tag_6\n      tag_7\n      calldatasize\n      0x04\n      tag_8\n      jump\t// in\n    tag_7:\n      tag_9\n      jump\t// in\n    tag_6:\n      stop\n        /* \"ERC20-Practical.sol\":318:478  function transferFrom(uint amount) public {... */\n    tag_4:\n      tag_6\n      tag_11\n      calldatasize\n      0x04\n      tag_12\n      jump\t// in\n    tag_11:\n      tag_13\n      jump\t// in\n        /* \"ERC20-Practical.sol\":486:638  function transfer() public {... */\n    tag_5:\n      tag_6\n      tag_15\n      jump\t// in\n        /* \"ERC20-Practical.sol\":646:864  function calltransfer (address payable _to, uint amount) external {... */\n    tag_9:\n        /* \"ERC20-Practical.sol\":723:733  address to */\n      0x00\n        /* \"ERC20-Practical.sol\":750:756  _token */\n      sload\n        /* \"ERC20-Practical.sol\":750:816  _token.approve(0x5B38Da6a701c568545dCfcB03FcB875f56beddC4, amount) */\n      mload(0x40)\n      shl(0xe0, 0x095ea7b3)\n      dup2\n      mstore\n        /* \"ERC20-Practical.sol\":765:807  0x5B38Da6a701c568545dCfcB03FcB875f56beddC4 */\n      0x5b38da6a701c568545dcfcb03fcb875f56beddc4\n        /* \"ERC20-Practical.sol\":750:816  _token.approve(0x5B38Da6a701c568545dCfcB03FcB875f56beddC4, amount) */\n      0x04\n      dup3\n      add\n        /* \"#utility.yul\":740:791   */\n      mstore\n        /* \"#utility.yul\":807:825   */\n      0x24\n      dup2\n      add\n        /* \"#utility.yul\":800:834   */\n      dup4\n      swap1\n      mstore\n        /* \"ERC20-Practical.sol\":736:739  _to */\n      dup4\n      swap2\n      sub(shl(0xa0, 0x01), 0x01)\n        /* \"ERC20-Practical.sol\":750:756  _token */\n      and\n      swap1\n        /* \"ERC20-Practical.sol\":750:764  _token.approve */\n      0x095ea7b3\n      swap1\n        /* \"#utility.yul\":713:731   */\n      0x44\n      add\n        /* \"ERC20-Practical.sol\":750:816  _token.approve(0x5B38Da6a701c568545dCfcB03FcB875f56beddC4, amount) */\n      0x20\n      mload(0x40)\n      dup1\n      dup4\n      sub\n      dup2\n      0x00\n      dup8\n      gas\n      call\n      iszero\n      dup1\n      iszero\n      tag_20\n      jumpi\n      returndatasize\n      0x00\n      dup1\n      returndatacopy\n      revert(0x00, returndatasize)\n    tag_20:\n      pop\n      pop\n      pop\n      pop\n      mload(0x40)\n      returndatasize\n      not(0x1f)\n      0x1f\n      dup3\n      add\n      and\n      dup3\n      add\n      dup1\n      0x40\n      mstore\n      pop\n      dup2\n      add\n      swap1\n      tag_21\n      swap2\n      swap1\n      tag_22\n      jump\t// in\n    tag_21:\n      pop\n        /* \"ERC20-Practical.sol\":712:864  {... */\n      pop\n        /* \"ERC20-Practical.sol\":646:864  function calltransfer (address payable _to, uint amount) external {... */\n      pop\n      pop\n      jump\t// out\n        /* \"ERC20-Practical.sol\":318:478  function transferFrom(uint amount) public {... */\n    tag_13:\n        /* \"ERC20-Practical.sol\":371:377  _token */\n      sload(0x00)\n        /* \"ERC20-Practical.sol\":371:405  _token.approve(msg.sender, amount) */\n      mload(0x40)\n      shl(0xe0, 0x095ea7b3)\n      dup2\n      mstore\n        /* \"ERC20-Practical.sol\":386:396  msg.sender */\n      caller\n        /* \"ERC20-Practical.sol\":371:405  _token.approve(msg.sender, amount) */\n      0x04\n      dup3\n      add\n        /* \"#utility.yul\":740:791   */\n      mstore\n        /* \"#utility.yul\":807:825   */\n      0x24\n      dup2\n      add\n        /* \"#utility.yul\":800:834   */\n      dup4\n      swap1\n      mstore\n      sub(shl(0xa0, 0x01), 0x01)\n        /* \"ERC20-Practical.sol\":371:377  _token */\n      swap1\n      swap2\n      and\n      swap1\n        /* \"ERC20-Practical.sol\":371:385  _token.approve */\n      0x095ea7b3\n      swap1\n        /* \"#utility.yul\":713:731   */\n      0x44\n      add\n        /* \"ERC20-Practical.sol\":371:405  _token.approve(msg.sender, amount) */\n      0x20\n      mload(0x40)\n      dup1\n      dup4\n      sub\n      dup2\n      0x00\n      dup8\n      gas\n      call\n      iszero\n      dup1\n      iszero\n      tag_26\n      jumpi\n      returndatasize\n      0x00\n      dup1\n      returndatacopy\n      revert(0x00, returndatasize)\n    tag_26:\n      pop\n      pop\n      pop\n      pop\n      mload(0x40)\n      returndatasize\n      not(0x1f)\n      0x1f\n      dup3\n      add\n      and\n      dup3\n      add\n      dup1\n      0x40\n      mstore\n      pop\n      dup2\n      add\n      swap1\n      tag_27\n      swap2\n      swap1\n      tag_22\n      jump\t// in\n    tag_27:\n      pop\n        /* \"ERC20-Practical.sol\":416:422  _token */\n      sload(0x00)\n        /* \"ERC20-Practical.sol\":416:470  _token.transferFrom(msg.sender, address(this), amount) */\n      mload(0x40)\n      shl(0xe0, 0x23b872dd)\n      dup2\n      mstore\n        /* \"ERC20-Practical.sol\":436:446  msg.sender */\n      caller\n        /* \"ERC20-Practical.sol\":416:470  _token.transferFrom(msg.sender, address(this), amount) */\n      0x04\n      dup3\n      add\n        /* \"#utility.yul\":1367:1401   */\n      mstore\n        /* \"ERC20-Practical.sol\":456:460  this */\n      address\n        /* \"#utility.yul\":1417:1435   */\n      0x24\n      dup3\n      add\n        /* \"#utility.yul\":1410:1453   */\n      mstore\n        /* \"#utility.yul\":1469:1487   */\n      0x44\n      dup2\n      add\n        /* \"#utility.yul\":1462:1496   */\n      dup4\n      swap1\n      mstore\n      sub(shl(0xa0, 0x01), 0x01)\n        /* \"ERC20-Practical.sol\":416:422  _token */\n      swap1\n      swap2\n      and\n      swap1\n        /* \"ERC20-Practical.sol\":416:435  _token.transferFrom */\n      0x23b872dd\n      swap1\n        /* \"#utility.yul\":1302:1320   */\n      0x64\n      add\n        /* \"ERC20-Practical.sol\":416:470  _token.transferFrom(msg.sender, address(this), amount) */\n      0x20\n      mload(0x40)\n      dup1\n      dup4\n      sub\n      dup2\n      0x00\n      dup8\n      gas\n      call\n      iszero\n      dup1\n      iszero\n      tag_31\n      jumpi\n      returndatasize\n      0x00\n      dup1\n      returndatacopy\n      revert(0x00, returndatasize)\n    tag_31:\n      pop\n      pop\n      pop\n      pop\n      mload(0x40)\n      returndatasize\n      not(0x1f)\n      0x1f\n      dup3\n      add\n      and\n      dup3\n      add\n      dup1\n      0x40\n      mstore\n      pop\n      dup2\n      add\n      swap1\n      tag_32\n      swap2\n      swap1\n      tag_22\n      jump\t// in\n    tag_32:\n      pop\n        /* \"ERC20-Practical.sol\":318:478  function transferFrom(uint amount) public {... */\n      pop\n      jump\t// out\n        /* \"ERC20-Practical.sol\":486:638  function transfer() public {... */\n    tag_15:\n        /* \"ERC20-Practical.sol\":524:530  _token */\n      sload(0x00)\n        /* \"ERC20-Practical.sol\":524:587  _token.approve(0x5B38Da6a701c568545dCfcB03FcB875f56beddC4, 100) */\n      mload(0x40)\n      shl(0xe0, 0x095ea7b3)\n      dup2\n      mstore\n        /* \"ERC20-Practical.sol\":539:581  0x5B38Da6a701c568545dCfcB03FcB875f56beddC4 */\n      0x5b38da6a701c568545dcfcb03fcb875f56beddc4\n        /* \"ERC20-Practical.sol\":524:587  _token.approve(0x5B38Da6a701c568545dCfcB03FcB875f56beddC4, 100) */\n      0x04\n      dup3\n      add\n        /* \"#utility.yul\":740:791   */\n      mstore\n        /* \"ERC20-Practical.sol\":583:586  100 */\n      0x64\n        /* \"#utility.yul\":807:825   */\n      0x24\n      dup3\n      add\n        /* \"#utility.yul\":800:834   */\n      mstore\n      sub(shl(0xa0, 0x01), 0x01)\n        /* \"ERC20-Practical.sol\":524:530  _token */\n      swap1\n      swap2\n      and\n      swap1\n        /* \"ERC20-Practical.sol\":524:538  _token.approve */\n      0x095ea7b3\n      swap1\n        /* \"#utility.yul\":713:731   */\n      0x44\n      add\n        /* \"ERC20-Practical.sol\":524:587  _token.approve(0x5B38Da6a701c568545dCfcB03FcB875f56beddC4, 100) */\n      0x20\n      mload(0x40)\n      dup1\n      dup4\n      sub\n      dup2\n      0x00\n      dup8\n      gas\n      call\n      iszero\n      dup1\n      iszero\n      tag_37\n      jumpi\n      returndatasize\n      0x00\n      dup1\n      returndatacopy\n      revert(0x00, returndatasize)\n    tag_37:\n      pop\n      pop\n      pop\n      pop\n      mload(0x40)\n      returndatasize\n      not(0x1f)\n      0x1f\n      dup3\n      add\n      and\n      dup3\n      add\n      dup1\n      0x40\n      mstore\n      pop\n      dup2\n      add\n      swap1\n      tag_38\n      swap2\n      swap1\n      tag_22\n      jump\t// in\n    tag_38:\n      pop\n        /* \"ERC20-Practical.sol\":598:604  _token */\n      sload(0x00)\n        /* \"ERC20-Practical.sol\":598:630  _token.transfer(msg.sender, 100) */\n      mload(0x40)\n      shl(0xe0, 0xa9059cbb)\n      dup2\n      mstore\n        /* \"ERC20-Practical.sol\":614:624  msg.sender */\n      caller\n        /* \"ERC20-Practical.sol\":598:630  _token.transfer(msg.sender, 100) */\n      0x04\n      dup3\n      add\n        /* \"#utility.yul\":740:791   */\n      mstore\n        /* \"ERC20-Practical.sol\":626:629  100 */\n      0x64\n        /* \"#utility.yul\":807:825   */\n      0x24\n      dup3\n      add\n        /* \"#utility.yul\":800:834   */\n      mstore\n      sub(shl(0xa0, 0x01), 0x01)\n        /* \"ERC20-Practical.sol\":598:604  _token */\n      swap1\n      swap2\n      and\n      swap1\n        /* \"ERC20-Practical.sol\":598:613  _token.transfer */\n      0xa9059cbb\n      swap1\n        /* \"#utility.yul\":713:731   */\n      0x44\n      add\n        /* \"ERC20-Practical.sol\":598:630  _token.transfer(msg.sender, 100) */\n      0x20\n      mload(0x40)\n      dup1\n      dup4\n      sub\n      dup2\n      0x00\n      dup8\n      gas\n      call\n      iszero\n      dup1\n      iszero\n      tag_41\n      jumpi\n      returndatasize\n      0x00\n      dup1\n      returndatacopy\n      revert(0x00, returndatasize)\n    tag_41:\n      pop\n      pop\n      pop\n      pop\n      mload(0x40)\n      returndatasize\n      not(0x1f)\n      0x1f\n      dup3\n      add\n      and\n      dup3\n      add\n      dup1\n      0x40\n      mstore\n      pop\n      dup2\n      add\n      swap1\n      tag_42\n      swap2\n      swap1\n      tag_22\n      jump\t// in\n    tag_42:\n      pop\n        /* \"ERC20-Practical.sol\":486:638  function transfer() public {... */\n      jump\t// out\n        /* \"#utility.yul\":14:376   */\n    tag_8:\n        /* \"#utility.yul\":90:96   */\n      0x00\n        /* \"#utility.yul\":98:104   */\n      dup1\n        /* \"#utility.yul\":151:153   */\n      0x40\n        /* \"#utility.yul\":139:148   */\n      dup4\n        /* \"#utility.yul\":130:137   */\n      dup6\n        /* \"#utility.yul\":126:149   */\n      sub\n        /* \"#utility.yul\":122:154   */\n      slt\n        /* \"#utility.yul\":119:171   */\n      iszero\n      tag_45\n      jumpi\n        /* \"#utility.yul\":167:168   */\n      0x00\n        /* \"#utility.yul\":164:165   */\n      dup1\n        /* \"#utility.yul\":157:169   */\n      revert\n        /* \"#utility.yul\":119:171   */\n    tag_45:\n        /* \"#utility.yul\":193:216   */\n      dup3\n      calldataload\n      sub(shl(0xa0, 0x01), 0x01)\n        /* \"#utility.yul\":245:276   */\n      dup2\n      and\n        /* \"#utility.yul\":235:277   */\n      dup2\n      eq\n        /* \"#utility.yul\":225:295   */\n      tag_46\n      jumpi\n        /* \"#utility.yul\":291:292   */\n      0x00\n        /* \"#utility.yul\":288:289   */\n      dup1\n        /* \"#utility.yul\":281:293   */\n      revert\n        /* \"#utility.yul\":225:295   */\n    tag_46:\n        /* \"#utility.yul\":314:319   */\n      swap5\n        /* \"#utility.yul\":366:368   */\n      0x20\n        /* \"#utility.yul\":351:369   */\n      swap4\n      swap1\n      swap4\n      add\n        /* \"#utility.yul\":338:370   */\n      calldataload\n      swap4\n      pop\n      pop\n      pop\n        /* \"#utility.yul\":14:376   */\n      jump\t// out\n        /* \"#utility.yul\":381:561   */\n    tag_12:\n        /* \"#utility.yul\":440:446   */\n      0x00\n        /* \"#utility.yul\":493:495   */\n      0x20\n        /* \"#utility.yul\":481:490   */\n      dup3\n        /* \"#utility.yul\":472:479   */\n      dup5\n        /* \"#utility.yul\":468:491   */\n      sub\n        /* \"#utility.yul\":464:496   */\n      slt\n        /* \"#utility.yul\":461:513   */\n      iszero\n      tag_48\n      jumpi\n        /* \"#utility.yul\":509:510   */\n      0x00\n        /* \"#utility.yul\":506:507   */\n      dup1\n        /* \"#utility.yul\":499:511   */\n      revert\n        /* \"#utility.yul\":461:513   */\n    tag_48:\n      pop\n        /* \"#utility.yul\":532:555   */\n      calldataload\n      swap2\n        /* \"#utility.yul\":381:561   */\n      swap1\n      pop\n      jump\t// out\n        /* \"#utility.yul\":845:1122   */\n    tag_22:\n        /* \"#utility.yul\":912:918   */\n      0x00\n        /* \"#utility.yul\":965:967   */\n      0x20\n        /* \"#utility.yul\":953:962   */\n      dup3\n        /* \"#utility.yul\":944:951   */\n      dup5\n        /* \"#utility.yul\":940:963   */\n      sub\n        /* \"#utility.yul\":936:968   */\n      slt\n        /* \"#utility.yul\":933:985   */\n      iszero\n      tag_51\n      jumpi\n        /* \"#utility.yul\":981:982   */\n      0x00\n        /* \"#utility.yul\":978:979   */\n      dup1\n        /* \"#utility.yul\":971:983   */\n      revert\n        /* \"#utility.yul\":933:985   */\n    tag_51:\n        /* \"#utility.yul\":1013:1022   */\n      dup2\n        /* \"#utility.yul\":1007:1023   */\n      mload\n        /* \"#utility.yul\":1066:1071   */\n      dup1\n        /* \"#utility.yul\":1059:1072   */\n      iszero\n        /* \"#utility.yul\":1052:1073   */\n      iszero\n        /* \"#utility.yul\":1045:1050   */\n      dup2\n        /* \"#utility.yul\":1042:1074   */\n      eq\n        /* \"#utility.yul\":1032:1092   */\n      tag_52\n      jumpi\n        /* \"#utility.yul\":1088:1089   */\n      0x00\n        /* \"#utility.yul\":1085:1086   */\n      dup1\n        /* \"#utility.yul\":1078:1090   */\n      revert\n        /* \"#utility.yul\":1032:1092   */\n    tag_52:\n        /* \"#utility.yul\":1111:1116   */\n      swap4\n        /* \"#utility.yul\":845:1122   */\n      swap3\n      pop\n      pop\n      pop\n      jump\t// out\n\n    auxdata: 0xa264697066735822122002bf6a4832bdb5dc780d65e7f8a057e430aaaf4600f6f4f73c8913b8943d3d7164736f6c63430008140033\n}\n",
				"bytecode": {
					"linkReferences": {},
					"object": "608060405234801561000f575f80fd5b505f80546001600160a01b03191673dd870fa1b7c4700f2bd7f44238821c26f739214817905561038d806100425f395ff3fe608060405234801561000f575f80fd5b506004361061003f575f3560e01c806342b586851461004357806377a11f7e146100585780638a4068dd1461006b575b5f80fd5b6100566100513660046102e5565b610073565b005b61005661006636600461031a565b6100fe565b6100566101eb565b5f5460405163095ea7b360e01b8152735b38da6a701c568545dcfcb03fcb875f56beddc460048201526024810183905283916001600160a01b03169063095ea7b3906044016020604051808303815f875af11580156100d4573d5f803e3d5ffd5b505050506040513d601f19601f820116820180604052508101906100f89190610331565b50505050565b5f5460405163095ea7b360e01b8152336004820152602481018390526001600160a01b039091169063095ea7b3906044016020604051808303815f875af115801561014b573d5f803e3d5ffd5b505050506040513d601f19601f8201168201806040525081019061016f9190610331565b505f546040516323b872dd60e01b8152336004820152306024820152604481018390526001600160a01b03909116906323b872dd906064016020604051808303815f875af11580156101c3573d5f803e3d5ffd5b505050506040513d601f19601f820116820180604052508101906101e79190610331565b5050565b5f5460405163095ea7b360e01b8152735b38da6a701c568545dcfcb03fcb875f56beddc46004820152606460248201526001600160a01b039091169063095ea7b3906044016020604051808303815f875af115801561024c573d5f803e3d5ffd5b505050506040513d601f19601f820116820180604052508101906102709190610331565b505f5460405163a9059cbb60e01b8152336004820152606460248201526001600160a01b039091169063a9059cbb906044016020604051808303815f875af11580156102be573d5f803e3d5ffd5b505050506040513d601f19601f820116820180604052508101906102e29190610331565b50565b5f80604083850312156102f6575f80fd5b82356001600160a01b038116811461030c575f80fd5b946020939093013593505050565b5f6020828403121561032a575f80fd5b5035919050565b5f60208284031215610341575f80fd5b81518015158114610350575f80fd5b939250505056fea264697066735822122002bf6a4832bdb5dc780d65e7f8a057e430aaaf4600f6f4f73c8913b8943d3d7164736f6c63430008140033",
					"opcodes": "PUSH1 0x80 PUSH1 0x40 MSTORE CALLVALUE DUP1 ISZERO PUSH2 0xF JUMPI PUSH0 DUP1 REVERT JUMPDEST POP PUSH0 DUP1 SLOAD PUSH1 0x1 PUSH1 0x1 PUSH1 0xA0 SHL SUB NOT AND PUSH20 0xDD870FA1B7C4700F2BD7F44238821C26F7392148 OR SWAP1 SSTORE PUSH2 0x38D DUP1 PUSH2 0x42 PUSH0 CODECOPY PUSH0 RETURN INVALID PUSH1 0x80 PUSH1 0x40 MSTORE CALLVALUE DUP1 ISZERO PUSH2 0xF JUMPI PUSH0 DUP1 REVERT JUMPDEST POP PUSH1 0x4 CALLDATASIZE LT PUSH2 0x3F JUMPI PUSH0 CALLDATALOAD PUSH1 0xE0 SHR DUP1 PUSH4 0x42B58685 EQ PUSH2 0x43 JUMPI DUP1 PUSH4 0x77A11F7E EQ PUSH2 0x58 JUMPI DUP1 PUSH4 0x8A4068DD EQ PUSH2 0x6B JUMPI JUMPDEST PUSH0 DUP1 REVERT JUMPDEST PUSH2 0x56 PUSH2 0x51 CALLDATASIZE PUSH1 0x4 PUSH2 0x2E5 JUMP JUMPDEST PUSH2 0x73 JUMP JUMPDEST STOP JUMPDEST PUSH2 0x56 PUSH2 0x66 CALLDATASIZE PUSH1 0x4 PUSH2 0x31A JUMP JUMPDEST PUSH2 0xFE JUMP JUMPDEST PUSH2 0x56 PUSH2 0x1EB JUMP JUMPDEST PUSH0 SLOAD PUSH1 0x40 MLOAD PUSH4 0x95EA7B3 PUSH1 0xE0 SHL DUP2 MSTORE PUSH20 0x5B38DA6A701C568545DCFCB03FCB875F56BEDDC4 PUSH1 0x4 DUP3 ADD MSTORE PUSH1 0x24 DUP2 ADD DUP4 SWAP1 MSTORE DUP4 SWAP2 PUSH1 0x1 PUSH1 0x1 PUSH1 0xA0 SHL SUB AND SWAP1 PUSH4 0x95EA7B3 SWAP1 PUSH1 0x44 ADD PUSH1 0x20 PUSH1 0x40 MLOAD DUP1 DUP4 SUB DUP2 PUSH0 DUP8 GAS CALL ISZERO DUP1 ISZERO PUSH2 0xD4 JUMPI RETURNDATASIZE PUSH0 DUP1 RETURNDATACOPY RETURNDATASIZE PUSH0 REVERT JUMPDEST POP POP POP POP PUSH1 0x40 MLOAD RETURNDATASIZE PUSH1 0x1F NOT PUSH1 0x1F DUP3 ADD AND DUP3 ADD DUP1 PUSH1 0x40 MSTORE POP DUP2 ADD SWAP1 PUSH2 0xF8 SWAP2 SWAP1 PUSH2 0x331 JUMP JUMPDEST POP POP POP POP JUMP JUMPDEST PUSH0 SLOAD PUSH1 0x40 MLOAD PUSH4 0x95EA7B3 PUSH1 0xE0 SHL DUP2 MSTORE CALLER PUSH1 0x4 DUP3 ADD MSTORE PUSH1 0x24 DUP2 ADD DUP4 SWAP1 MSTORE PUSH1 0x1 PUSH1 0x1 PUSH1 0xA0 SHL SUB SWAP1 SWAP2 AND SWAP1 PUSH4 0x95EA7B3 SWAP1 PUSH1 0x44 ADD PUSH1 0x20 PUSH1 0x40 MLOAD DUP1 DUP4 SUB DUP2 PUSH0 DUP8 GAS CALL ISZERO DUP1 ISZERO PUSH2 0x14B JUMPI RETURNDATASIZE PUSH0 DUP1 RETURNDATACOPY RETURNDATASIZE PUSH0 REVERT JUMPDEST POP POP POP POP PUSH1 0x40 MLOAD RETURNDATASIZE PUSH1 0x1F NOT PUSH1 0x1F DUP3 ADD AND DUP3 ADD DUP1 PUSH1 0x40 MSTORE POP DUP2 ADD SWAP1 PUSH2 0x16F SWAP2 SWAP1 PUSH2 0x331 JUMP JUMPDEST POP PUSH0 SLOAD PUSH1 0x40 MLOAD PUSH4 0x23B872DD PUSH1 0xE0 SHL DUP2 MSTORE CALLER PUSH1 0x4 DUP3 ADD MSTORE ADDRESS PUSH1 0x24 DUP3 ADD MSTORE PUSH1 0x44 DUP2 ADD DUP4 SWAP1 MSTORE PUSH1 0x1 PUSH1 0x1 PUSH1 0xA0 SHL SUB SWAP1 SWAP2 AND SWAP1 PUSH4 0x23B872DD SWAP1 PUSH1 0x64 ADD PUSH1 0x20 PUSH1 0x40 MLOAD DUP1 DUP4 SUB DUP2 PUSH0 DUP8 GAS CALL ISZERO DUP1 ISZERO PUSH2 0x1C3 JUMPI RETURNDATASIZE PUSH0 DUP1 RETURNDATACOPY RETURNDATASIZE PUSH0 REVERT JUMPDEST POP POP POP POP PUSH1 0x40 MLOAD RETURNDATASIZE PUSH1 0x1F NOT PUSH1 0x1F DUP3 ADD AND DUP3 ADD DUP1 PUSH1 0x40 MSTORE POP DUP2 ADD SWAP1 PUSH2 0x1E7 SWAP2 SWAP1 PUSH2 0x331 JUMP JUMPDEST POP POP JUMP JUMPDEST PUSH0 SLOAD PUSH1 0x40 MLOAD PUSH4 0x95EA7B3 PUSH1 0xE0 SHL DUP2 MSTORE PUSH20 0x5B38DA6A701C568545DCFCB03FCB875F56BEDDC4 PUSH1 0x4 DUP3 ADD MSTORE PUSH1 0x64 PUSH1 0x24 DUP3 ADD MSTORE PUSH1 0x1 PUSH1 0x1 PUSH1 0xA0 SHL SUB SWAP1 SWAP2 AND SWAP1 PUSH4 0x95EA7B3 SWAP1 PUSH1 0x44 ADD PUSH1 0x20 PUSH1 0x40 MLOAD DUP1 DUP4 SUB DUP2 PUSH0 DUP8 GAS CALL ISZERO DUP1 ISZERO PUSH2 0x24C JUMPI RETURNDATASIZE PUSH0 DUP1 RETURNDATACOPY RETURNDATASIZE PUSH0 REVERT JUMPDEST POP POP POP POP PUSH1 0x40 MLOAD RETURNDATASIZE PUSH1 0x1F NOT PUSH1 0x1F DUP3 ADD AND DUP3 ADD DUP1 PUSH1 0x40 MSTORE POP DUP2 ADD SWAP1 PUSH2 0x270 SWAP2 SWAP1 PUSH2 0x331 JUMP JUMPDEST POP PUSH0 SLOAD PUSH1 0x40 MLOAD PUSH4 0xA9059CBB PUSH1 0xE0 SHL DUP2 MSTORE CALLER PUSH1 0x4 DUP3 ADD MSTORE PUSH1 0x64 PUSH1 0x24 DUP3 ADD MSTORE PUSH1 0x1 PUSH1 0x1 PUSH1 0xA0 SHL SUB SWAP1 SWAP2 AND SWAP1 PUSH4 0xA9059CBB SWAP1 PUSH1 0x44 ADD PUSH1 0x20 PUSH1 0x40 MLOAD DUP1 DUP4 SUB DUP2 PUSH0 DUP8 GAS CALL ISZERO DUP1 ISZERO PUSH2 0x2BE JUMPI RETURNDATASIZE PUSH0 DUP1 RETURNDATACOPY RETURNDATASIZE PUSH0 REVERT JUMPDEST POP POP POP POP PUSH1 0x40 MLOAD RETURNDATASIZE PUSH1 0x1F NOT PUSH1 0x1F DUP3 ADD AND DUP3 ADD DUP1 PUSH1 0x40 MSTORE POP DUP2 ADD SWAP1 PUSH2 0x2E2 SWAP2 SWAP1 PUSH2 0x331 JUMP JUMPDEST POP JUMP JUMPDEST PUSH0 DUP1 PUSH1 0x40 DUP4 DUP6 SUB SLT ISZERO PUSH2 0x2F6 JUMPI PUSH0 DUP1 REVERT JUMPDEST DUP3 CALLDATALOAD PUSH1 0x1 PUSH1 0x1 PUSH1 0xA0 SHL SUB DUP2 AND DUP2 EQ PUSH2 0x30C JUMPI PUSH0 DUP1 REVERT JUMPDEST SWAP5 PUSH1 0x20 SWAP4 SWAP1 SWAP4 ADD CALLDATALOAD SWAP4 POP POP POP JUMP JUMPDEST PUSH0 PUSH1 0x20 DUP3 DUP5 SUB SLT ISZERO PUSH2 0x32A JUMPI PUSH0 DUP1 REVERT JUMPDEST POP CALLDATALOAD SWAP2 SWAP1 POP JUMP JUMPDEST PUSH0 PUSH1 0x20 DUP3 DUP5 SUB SLT ISZERO PUSH2 0x341 JUMPI PUSH0 DUP1 REVERT JUMPDEST DUP2 MLOAD DUP1 ISZERO ISZERO DUP2 EQ PUSH2 0x350 JUMPI PUSH0 DUP1 REVERT JUMPDEST SWAP4 SWAP3 POP POP POP JUMP INVALID LOG2 PUSH5 0x6970667358 0x22 SLT KECCAK256 MUL 0xBF PUSH11 0x4832BDB5DC780D65E7F8A0 JUMPI 0xE4 ADDRESS 0xAA 0xAF CHAINID STOP 0xF6 DELEGATECALL 0xF7 EXTCODECOPY DUP10 SGT 0xB8 SWAP5 RETURNDATASIZE RETURNDATASIZE PUSH18 0x64736F6C6343000814003300000000000000 "
				},
				"gasEstimates": {
					"creation": {
						"codeDepositCost": "181800",
						"executionCost": "24459",
						"totalCost": "206259"
					},
					"external": {
						"calltransfer(address,uint256)": "infinite",
						"transfer()": "infinite",
						"transferFrom(uint256)": "infinite"
					}
				},
				"methodIdentifiers": {
					"calltransfer(address,uint256)": "42b58685",
					"transfer()": "8a4068dd",
					"transferFrom(uint256)": "77a11f7e"
				}
			},
			"storageLayout": {
				"storage": [
					{
						"astId": 83,
						"contract": "ERC20-Practical.sol:ERC20Practical",
						"label": "_token",
						"offset": 0,
						"slot": "0",
						"type": "t_contract(IERC20)77"
					}
				],
				"types": {
					"t_contract(IERC20)77": {
						"encoding": "inplace",
						"label": "contract IERC20",
						"numberOfBytes": "20"
					}
				}
			},
			"userdoc": {
				"kind": "user",
				"methods": {},
				"version": 1
			}
		}
	}
}