{
	"SelfPractice-Jason.sol": {
		"payAndPlay": {
			"abi": [
				{
					"inputs": [],
					"stateMutability": "nonpayable",
					"type": "constructor"
				},
				{
					"anonymous": false,
					"inputs": [
						{
							"indexed": false,
							"internalType": "uint256",
							"name": "",
							"type": "uint256"
						}
					],
					"name": "showBalance",
					"type": "event"
				},
				{
					"anonymous": false,
					"inputs": [
						{
							"indexed": false,
							"internalType": "string",
							"name": "",
							"type": "string"
						}
					],
					"name": "showError",
					"type": "event"
				},
				{
					"anonymous": false,
					"inputs": [
						{
							"indexed": false,
							"internalType": "uint256",
							"name": "",
							"type": "uint256"
						}
					],
					"name": "showResult",
					"type": "event"
				},
				{
					"inputs": [],
					"name": "contractAddress",
					"outputs": [
						{
							"internalType": "address payable",
							"name": "",
							"type": "address"
						}
					],
					"stateMutability": "view",
					"type": "function"
				},
				{
					"inputs": [],
					"name": "depositeMoney",
					"outputs": [],
					"stateMutability": "payable",
					"type": "function"
				},
				{
					"inputs": [],
					"name": "getAllMoney",
					"outputs": [],
					"stateMutability": "payable",
					"type": "function"
				},
				{
					"inputs": [],
					"name": "getBalance",
					"outputs": [
						{
							"internalType": "uint256",
							"name": "",
							"type": "uint256"
						}
					],
					"stateMutability": "view",
					"type": "function"
				},
				{
					"inputs": [],
					"name": "getPlayerBalance",
					"outputs": [
						{
							"internalType": "uint256",
							"name": "",
							"type": "uint256"
						}
					],
					"stateMutability": "view",
					"type": "function"
				},
				{
					"inputs": [],
					"name": "getRandomNumber",
					"outputs": [
						{
							"internalType": "uint256",
							"name": "",
							"type": "uint256"
						}
					],
					"stateMutability": "nonpayable",
					"type": "function"
				},
				{
					"inputs": [],
					"name": "numberCount",
					"outputs": [
						{
							"internalType": "uint256",
							"name": "",
							"type": "uint256"
						}
					],
					"stateMutability": "view",
					"type": "function"
				},
				{
					"inputs": [],
					"name": "owner",
					"outputs": [
						{
							"internalType": "address",
							"name": "",
							"type": "address"
						}
					],
					"stateMutability": "view",
					"type": "function"
				},
				{
					"inputs": [
						{
							"internalType": "uint256",
							"name": "guessNumber",
							"type": "uint256"
						}
					],
					"name": "playGame",
					"outputs": [],
					"stateMutability": "payable",
					"type": "function"
				},
				{
					"inputs": [],
					"name": "withdrawMoney",
					"outputs": [],
					"stateMutability": "payable",
					"type": "function"
				},
				{
					"stateMutability": "payable",
					"type": "receive"
				}
			],
			"devdoc": {
				"kind": "dev",
				"methods": {},
				"version": 1
			},
			"evm": {
				"assembly": "    /* \"SelfPractice-Jason.sol\":60:2684  contract payAndPlay{... */\n  mstore(0x40, 0x80)\n    /* \"SelfPractice-Jason.sol\":106:107  0 */\n  0x00\n    /* \"SelfPractice-Jason.sol\":86:107  uint private salt = 0 */\n  dup1\n  sstore\n    /* \"SelfPractice-Jason.sol\":141:142  1 */\n  0x01\n    /* \"SelfPractice-Jason.sol\":115:142  uint public numberCount = 1 */\n  dup1\n  sstore\n    /* \"SelfPractice-Jason.sol\":149:212  address payable public contractAddress = payable(address(this)) */\n  0x02\n  dup1\n  sload\n  not(sub(shl(0xa0, 0x01), 0x01))\n  and\n    /* \"SelfPractice-Jason.sol\":206:210  this */\n  address\n    /* \"SelfPractice-Jason.sol\":149:212  address payable public contractAddress = payable(address(this)) */\n  or\n  swap1\n  sstore\n    /* \"SelfPractice-Jason.sol\":643:694  constructor() {... */\n  callvalue\n  dup1\n  iszero\n  tag_1\n  jumpi\n  0x00\n  dup1\n  revert\ntag_1:\n  pop\n    /* \"SelfPractice-Jason.sol\":668:673  owner */\n  0x04\n    /* \"SelfPractice-Jason.sol\":668:686  owner = msg.sender */\n  dup1\n  sload\n  not(sub(shl(0xa0, 0x01), 0x01))\n  and\n    /* \"SelfPractice-Jason.sol\":676:686  msg.sender */\n  caller\n    /* \"SelfPractice-Jason.sol\":668:686  owner = msg.sender */\n  or\n  swap1\n  sstore\n    /* \"SelfPractice-Jason.sol\":60:2684  contract payAndPlay{... */\n  dataSize(sub_0)\n  dup1\n  dataOffset(sub_0)\n  0x00\n  codecopy\n  0x00\n  return\nstop\n\nsub_0: assembly {\n        /* \"SelfPractice-Jason.sol\":60:2684  contract payAndPlay{... */\n      mstore(0x40, 0x80)\n      jumpi(tag_1, lt(calldatasize, 0x04))\n      shr(0xe0, calldataload(0x00))\n      dup1\n      0x8da5cb5b\n      gt\n      tag_13\n      jumpi\n      dup1\n      0x8da5cb5b\n      eq\n      tag_8\n      jumpi\n      dup1\n      0xac446002\n      eq\n      tag_9\n      jumpi\n      dup1\n      0xdbdff2c1\n      eq\n      tag_10\n      jumpi\n      dup1\n      0xedb84ff7\n      eq\n      tag_11\n      jumpi\n      dup1\n      0xf6b4dfb4\n      eq\n      tag_12\n      jumpi\n      0x00\n      dup1\n      revert\n    tag_13:\n      dup1\n      0x0b01517c\n      eq\n      tag_3\n      jumpi\n      dup1\n      0x103f90f4\n      eq\n      tag_4\n      jumpi\n      dup1\n      0x12065fe0\n      eq\n      tag_5\n      jumpi\n      dup1\n      0x3f925f7a\n      eq\n      tag_6\n      jumpi\n      dup1\n      0x5873533d\n      eq\n      tag_7\n      jumpi\n      0x00\n      dup1\n      revert\n    tag_1:\n      jumpi(tag_2, calldatasize)\n        /* \"SelfPractice-Jason.sol\":1632:1647  contractAddress */\n      sload(0x02)\n        /* \"SelfPractice-Jason.sol\":1632:1663  contractAddress.send(msg.value) */\n      mload(0x40)\n      sub(shl(0xa0, 0x01), 0x01)\n        /* \"SelfPractice-Jason.sol\":1632:1647  contractAddress */\n      swap1\n      swap2\n      and\n      swap1\n        /* \"SelfPractice-Jason.sol\":1653:1662  msg.value */\n      callvalue\n        /* \"SelfPractice-Jason.sol\":1632:1663  contractAddress.send(msg.value) */\n      dup1\n      iszero\n      0x08fc\n      mul\n      swap2\n        /* \"SelfPractice-Jason.sol\":1632:1647  contractAddress */\n      0x00\n        /* \"SelfPractice-Jason.sol\":1632:1663  contractAddress.send(msg.value) */\n      dup2\n        /* \"SelfPractice-Jason.sol\":1632:1647  contractAddress */\n      dup2\n        /* \"SelfPractice-Jason.sol\":1632:1663  contractAddress.send(msg.value) */\n      dup2\n        /* \"SelfPractice-Jason.sol\":1653:1662  msg.value */\n      dup6\n        /* \"SelfPractice-Jason.sol\":1632:1647  contractAddress */\n      dup9\n        /* \"SelfPractice-Jason.sol\":1632:1663  contractAddress.send(msg.value) */\n      dup9\n      call\n      stop\n        /* \"SelfPractice-Jason.sol\":60:2684  contract payAndPlay{... */\n    tag_2:\n      0x00\n      dup1\n      revert\n        /* \"SelfPractice-Jason.sol\":702:802  function getPlayerBalance() external view returns(uint) {... */\n    tag_3:\n      callvalue\n      dup1\n      iszero\n      tag_17\n      jumpi\n      0x00\n      dup1\n      revert\n    tag_17:\n      pop\n        /* \"SelfPractice-Jason.sol\":776:786  msg.sender */\n      caller\n        /* \"SelfPractice-Jason.sol\":776:794  msg.sender.balance */\n      balance\n        /* \"SelfPractice-Jason.sol\":702:802  function getPlayerBalance() external view returns(uint) {... */\n    tag_18:\n      mload(0x40)\n        /* \"#utility.yul\":160:185   */\n      swap1\n      dup2\n      mstore\n        /* \"#utility.yul\":148:150   */\n      0x20\n        /* \"#utility.yul\":133:151   */\n      add\n        /* \"SelfPractice-Jason.sol\":702:802  function getPlayerBalance() external view returns(uint) {... */\n    tag_20:\n      mload(0x40)\n      dup1\n      swap2\n      sub\n      swap1\n      return\n        /* \"SelfPractice-Jason.sol\":115:142  uint public numberCount = 1 */\n    tag_4:\n      callvalue\n      dup1\n      iszero\n      tag_22\n      jumpi\n      0x00\n      dup1\n      revert\n    tag_22:\n      pop\n      tag_18\n      sload(0x01)\n      dup2\n      jump\n        /* \"SelfPractice-Jason.sol\":810:909  function getBalance() external view returns(uint) {... */\n    tag_5:\n      callvalue\n      dup1\n      iszero\n      tag_26\n      jumpi\n      0x00\n      dup1\n      revert\n    tag_26:\n      pop\n        /* \"SelfPractice-Jason.sol\":878:893  contractAddress */\n      and(sub(shl(0xa0, 0x01), 0x01), sload(0x02))\n        /* \"SelfPractice-Jason.sol\":878:901  contractAddress.balance */\n      balance\n        /* \"SelfPractice-Jason.sol\":810:909  function getBalance() external view returns(uint) {... */\n      jump(tag_18)\n        /* \"SelfPractice-Jason.sol\":917:1216  function depositeMoney () public payable {... */\n    tag_6:\n      tag_30\n      tag_31\n      jump\t// in\n    tag_30:\n      stop\n        /* \"SelfPractice-Jason.sol\":1698:2107  function playGame(uint guessNumber)external payable noReentrancy{... */\n    tag_7:\n      tag_30\n      tag_33\n      calldatasize\n      0x04\n      tag_34\n      jump\t// in\n    tag_33:\n      tag_35\n      jump\t// in\n        /* \"SelfPractice-Jason.sol\":247:267  address public owner */\n    tag_8:\n      callvalue\n      dup1\n      iszero\n      tag_36\n      jumpi\n      0x00\n      dup1\n      revert\n    tag_36:\n      pop\n      sload(0x04)\n      tag_37\n      swap1\n      sub(shl(0xa0, 0x01), 0x01)\n      and\n      dup2\n      jump\n    tag_37:\n      mload(0x40)\n      sub(shl(0xa0, 0x01), 0x01)\n        /* \"#utility.yul\":545:577   */\n      swap1\n      swap2\n      and\n        /* \"#utility.yul\":527:578   */\n      dup2\n      mstore\n        /* \"#utility.yul\":515:517   */\n      0x20\n        /* \"#utility.yul\":500:518   */\n      add\n        /* \"SelfPractice-Jason.sol\":247:267  address public owner */\n      tag_20\n        /* \"#utility.yul\":381:584   */\n      jump\n        /* \"SelfPractice-Jason.sol\":1224:1458  function withdrawMoney () public payable {... */\n    tag_9:\n      tag_30\n      tag_42\n      jump\t// in\n        /* \"SelfPractice-Jason.sol\":2121:2681  function getRandomNumber() public returns (uint256) {... */\n    tag_10:\n      callvalue\n      dup1\n      iszero\n      tag_43\n      jumpi\n      0x00\n      dup1\n      revert\n    tag_43:\n      pop\n      tag_18\n      tag_45\n      jump\t// in\n        /* \"SelfPractice-Jason.sol\":1466:1587  function getAllMoney() external payable onlyOwner{... */\n    tag_11:\n      tag_30\n      tag_48\n      jump\t// in\n        /* \"SelfPractice-Jason.sol\":149:212  address payable public contractAddress = payable(address(this)) */\n    tag_12:\n      callvalue\n      dup1\n      iszero\n      tag_49\n      jumpi\n      0x00\n      dup1\n      revert\n    tag_49:\n      pop\n      sload(0x02)\n      tag_37\n      swap1\n      sub(shl(0xa0, 0x01), 0x01)\n      and\n      dup2\n      jump\n        /* \"SelfPractice-Jason.sol\":917:1216  function depositeMoney () public payable {... */\n    tag_31:\n        /* \"SelfPractice-Jason.sol\":969:984  contractAddress */\n      sload(0x02)\n        /* \"SelfPractice-Jason.sol\":969:1004  contractAddress.transfer(msg.value) */\n      mload(0x40)\n      sub(shl(0xa0, 0x01), 0x01)\n        /* \"SelfPractice-Jason.sol\":969:984  contractAddress */\n      swap1\n      swap2\n      and\n      swap1\n        /* \"SelfPractice-Jason.sol\":994:1003  msg.value */\n      callvalue\n        /* \"SelfPractice-Jason.sol\":969:1004  contractAddress.transfer(msg.value) */\n      dup1\n      iszero\n      0x08fc\n      mul\n      swap2\n        /* \"SelfPractice-Jason.sol\":969:984  contractAddress */\n      0x00\n        /* \"SelfPractice-Jason.sol\":969:1004  contractAddress.transfer(msg.value) */\n      dup2\n        /* \"SelfPractice-Jason.sol\":969:984  contractAddress */\n      dup2\n        /* \"SelfPractice-Jason.sol\":969:1004  contractAddress.transfer(msg.value) */\n      dup2\n        /* \"SelfPractice-Jason.sol\":994:1003  msg.value */\n      dup6\n        /* \"SelfPractice-Jason.sol\":969:984  contractAddress */\n      dup9\n        /* \"SelfPractice-Jason.sol\":969:1004  contractAddress.transfer(msg.value) */\n      dup9\n      call\n      swap4\n      pop\n      pop\n      pop\n      pop\n      iszero\n      dup1\n      iszero\n      tag_58\n      jumpi\n      returndatasize\n      0x00\n      dup1\n      returndatacopy\n      revert(0x00, returndatasize)\n    tag_58:\n      pop\n        /* \"SelfPractice-Jason.sol\":1182:1197  contractAddress */\n      sload(0x02)\n        /* \"SelfPractice-Jason.sol\":1170:1206  showBalance(contractAddress.balance) */\n      mload(0x40)\n      sub(shl(0xa0, 0x01), 0x01)\n        /* \"SelfPractice-Jason.sol\":1182:1197  contractAddress */\n      swap1\n      swap2\n      and\n        /* \"SelfPractice-Jason.sol\":1182:1205  contractAddress.balance */\n      balance\n        /* \"#utility.yul\":160:185   */\n      dup2\n      mstore\n        /* \"SelfPractice-Jason.sol\":1170:1206  showBalance(contractAddress.balance) */\n      0xf0b60c507a2e93235b6bed490cd5616aa2f43a849c3d167e96d6c5099b5524e5\n      swap1\n        /* \"#utility.yul\":148:150   */\n      0x20\n        /* \"#utility.yul\":133:151   */\n      add\n        /* \"SelfPractice-Jason.sol\":1170:1206  showBalance(contractAddress.balance) */\n      mload(0x40)\n      dup1\n      swap2\n      sub\n      swap1\n      log1\n        /* \"SelfPractice-Jason.sol\":917:1216  function depositeMoney () public payable {... */\n      jump\t// out\n        /* \"SelfPractice-Jason.sol\":1698:2107  function playGame(uint guessNumber)external payable noReentrancy{... */\n    tag_35:\n        /* \"SelfPractice-Jason.sol\":534:540  locked */\n      sload(0x04)\n      shl(0xa0, 0x01)\n      swap1\n      div\n      0xff\n      and\n        /* \"SelfPractice-Jason.sol\":533:540  !locked */\n      iszero\n        /* \"SelfPractice-Jason.sol\":525:566  require(!locked, \"Error: Reentrant call\") */\n      tag_61\n      jumpi\n      mload(0x40)\n      shl(0xe5, 0x461bcd)\n      dup2\n      mstore\n        /* \"#utility.yul\":1015:1017   */\n      0x20\n        /* \"SelfPractice-Jason.sol\":525:566  require(!locked, \"Error: Reentrant call\") */\n      0x04\n      dup3\n      add\n        /* \"#utility.yul\":997:1018   */\n      mstore\n        /* \"#utility.yul\":1054:1056   */\n      0x15\n        /* \"#utility.yul\":1034:1052   */\n      0x24\n      dup3\n      add\n        /* \"#utility.yul\":1027:1057   */\n      mstore\n      shl(0x5a, 0x115c9c9bdc8e881499595b9d1c985b9d0818d85b1b)\n        /* \"#utility.yul\":1073:1091   */\n      0x44\n      dup3\n      add\n        /* \"#utility.yul\":1066:1117   */\n      mstore\n        /* \"#utility.yul\":1134:1152   */\n      0x64\n      add\n        /* \"SelfPractice-Jason.sol\":525:566  require(!locked, \"Error: Reentrant call\") */\n    tag_62:\n      mload(0x40)\n      dup1\n      swap2\n      sub\n      swap1\n      revert\n    tag_61:\n        /* \"SelfPractice-Jason.sol\":577:583  locked */\n      0x04\n        /* \"SelfPractice-Jason.sol\":577:590  locked = true */\n      dup1\n      sload\n      not(shl(0xa0, 0xff))\n      and\n      shl(0xa0, 0x01)\n      or\n      swap1\n      sstore\n        /* \"SelfPractice-Jason.sol\":1794:1801  1 ether */\n      0x0de0b6b3a7640000\n        /* \"SelfPractice-Jason.sol\":1781:1790  msg.value */\n      callvalue\n        /* \"SelfPractice-Jason.sol\":1781:1801  msg.value >= 1 ether */\n      lt\n      iszero\n        /* \"SelfPractice-Jason.sol\":1773:1818  require(msg.value >= 1 ether,\"send 1 ether!\") */\n      tag_65\n      jumpi\n      mload(0x40)\n      shl(0xe5, 0x461bcd)\n      dup2\n      mstore\n        /* \"#utility.yul\":1365:1367   */\n      0x20\n        /* \"SelfPractice-Jason.sol\":1773:1818  require(msg.value >= 1 ether,\"send 1 ether!\") */\n      0x04\n      dup3\n      add\n        /* \"#utility.yul\":1347:1368   */\n      mstore\n        /* \"#utility.yul\":1404:1406   */\n      0x0d\n        /* \"#utility.yul\":1384:1402   */\n      0x24\n      dup3\n      add\n        /* \"#utility.yul\":1377:1407   */\n      mstore\n      shl(0x98, 0x73656e64203120657468657221)\n        /* \"#utility.yul\":1423:1441   */\n      0x44\n      dup3\n      add\n        /* \"#utility.yul\":1416:1459   */\n      mstore\n        /* \"#utility.yul\":1476:1494   */\n      0x64\n      add\n        /* \"SelfPractice-Jason.sol\":1773:1818  require(msg.value >= 1 ether,\"send 1 ether!\") */\n      tag_62\n        /* \"#utility.yul\":1163:1500   */\n      jump\n        /* \"SelfPractice-Jason.sol\":1773:1818  require(msg.value >= 1 ether,\"send 1 ether!\") */\n    tag_65:\n        /* \"SelfPractice-Jason.sol\":1829:1840  numberCount */\n      0x01\n        /* \"SelfPractice-Jason.sol\":1829:1842  numberCount++ */\n      dup1\n      sload\n      swap1\n        /* \"SelfPractice-Jason.sol\":1829:1840  numberCount */\n      0x00\n        /* \"SelfPractice-Jason.sol\":1829:1842  numberCount++ */\n      tag_68\n      dup4\n      tag_69\n      jump\t// in\n    tag_68:\n      swap2\n      swap1\n      pop\n      sstore\n      pop\n        /* \"SelfPractice-Jason.sol\":1877:1888  guessNumber */\n      dup1\n        /* \"SelfPractice-Jason.sol\":1856:1873  getRandomNumber() */\n      tag_70\n        /* \"SelfPractice-Jason.sol\":1856:1871  getRandomNumber */\n      tag_45\n        /* \"SelfPractice-Jason.sol\":1856:1873  getRandomNumber() */\n      jump\t// in\n    tag_70:\n        /* \"SelfPractice-Jason.sol\":1856:1888  getRandomNumber() == guessNumber */\n      sub\n        /* \"SelfPractice-Jason.sol\":1853:2090  if(getRandomNumber() == guessNumber){... */\n      tag_71\n      jumpi\n        /* \"SelfPractice-Jason.sol\":1904:1917  playerAddress */\n      0x03\n        /* \"SelfPractice-Jason.sol\":1904:1930  playerAddress = msg.sender */\n      dup1\n      sload\n      not(sub(shl(0xa0, 0x01), 0x01))\n      and\n        /* \"SelfPractice-Jason.sol\":1920:1930  msg.sender */\n      caller\n        /* \"SelfPractice-Jason.sol\":1904:1930  playerAddress = msg.sender */\n      or\n      swap1\n      sstore\n        /* \"SelfPractice-Jason.sol\":1945:1960  withdrawMoney() */\n      tag_72\n        /* \"SelfPractice-Jason.sol\":1945:1958  withdrawMoney */\n      tag_42\n        /* \"SelfPractice-Jason.sol\":1945:1960  withdrawMoney() */\n      jump\t// in\n    tag_72:\n        /* \"SelfPractice-Jason.sol\":1975:1988  playerAddress */\n      0x03\n        /* \"SelfPractice-Jason.sol\":1975:2001  playerAddress = address(0) */\n      dup1\n      sload\n      not(sub(shl(0xa0, 0x01), 0x01))\n      and\n      swap1\n      sstore\n        /* \"SelfPractice-Jason.sol\":2030:2031  2 */\n      0x02\n        /* \"SelfPractice-Jason.sol\":1975:2001  playerAddress = address(0) */\n      0x01\n        /* \"SelfPractice-Jason.sol\":2016:2031  numberCount = 2 */\n      sstore\n        /* \"SelfPractice-Jason.sol\":1853:2090  if(getRandomNumber() == guessNumber){... */\n      jump(tag_74)\n    tag_71:\n        /* \"SelfPractice-Jason.sol\":2063:2078  depositeMoney() */\n      tag_74\n        /* \"SelfPractice-Jason.sol\":2063:2076  depositeMoney */\n      tag_31\n        /* \"SelfPractice-Jason.sol\":2063:2078  depositeMoney() */\n      jump\t// in\n    tag_74:\n      pop\n        /* \"SelfPractice-Jason.sol\":613:619  locked */\n      0x04\n        /* \"SelfPractice-Jason.sol\":613:627  locked = false */\n      dup1\n      sload\n      not(shl(0xa0, 0xff))\n      and\n      swap1\n      sstore\n        /* \"SelfPractice-Jason.sol\":1698:2107  function playGame(uint guessNumber)external payable noReentrancy{... */\n      jump\t// out\n        /* \"SelfPractice-Jason.sol\":1224:1458  function withdrawMoney () public payable {... */\n    tag_42:\n        /* \"SelfPractice-Jason.sol\":1298:1311  playerAddress */\n      and(sub(shl(0xa0, 0x01), 0x01), sload(0x03))\n        /* \"SelfPractice-Jason.sol\":1284:1294  msg.sender */\n      caller\n        /* \"SelfPractice-Jason.sol\":1284:1311  msg.sender == playerAddress */\n      eq\n        /* \"SelfPractice-Jason.sol\":1276:1332  require(msg.sender == playerAddress,\"You are not winer\") */\n      tag_76\n      jumpi\n      mload(0x40)\n      shl(0xe5, 0x461bcd)\n      dup2\n      mstore\n        /* \"#utility.yul\":1979:1981   */\n      0x20\n        /* \"SelfPractice-Jason.sol\":1276:1332  require(msg.sender == playerAddress,\"You are not winer\") */\n      0x04\n      dup3\n      add\n        /* \"#utility.yul\":1961:1982   */\n      mstore\n        /* \"#utility.yul\":2018:2020   */\n      0x11\n        /* \"#utility.yul\":1998:2016   */\n      0x24\n      dup3\n      add\n        /* \"#utility.yul\":1991:2021   */\n      mstore\n      shl(0x79, 0x2cb7ba9030b932903737ba103bb4b732b9)\n        /* \"#utility.yul\":2037:2055   */\n      0x44\n      dup3\n      add\n        /* \"#utility.yul\":2030:2077   */\n      mstore\n        /* \"#utility.yul\":2094:2112   */\n      0x64\n      add\n        /* \"SelfPractice-Jason.sol\":1276:1332  require(msg.sender == playerAddress,\"You are not winer\") */\n      tag_62\n        /* \"#utility.yul\":1777:2118   */\n      jump\n        /* \"SelfPractice-Jason.sol\":1276:1332  require(msg.sender == playerAddress,\"You are not winer\") */\n    tag_76:\n        /* \"SelfPractice-Jason.sol\":1372:1387  contractAddress */\n      sload(0x02)\n        /* \"SelfPractice-Jason.sol\":1343:1396  payable(msg.sender).transfer(contractAddress.balance) */\n      mload(0x40)\n        /* \"SelfPractice-Jason.sol\":1351:1361  msg.sender */\n      caller\n      swap2\n      sub(shl(0xa0, 0x01), 0x01)\n        /* \"SelfPractice-Jason.sol\":1372:1387  contractAddress */\n      and\n        /* \"SelfPractice-Jason.sol\":1372:1395  contractAddress.balance */\n      balance\n        /* \"SelfPractice-Jason.sol\":1343:1396  payable(msg.sender).transfer(contractAddress.balance) */\n      dup1\n      iszero\n      0x08fc\n      mul\n      swap2\n        /* \"SelfPractice-Jason.sol\":1372:1387  contractAddress */\n      0x00\n        /* \"SelfPractice-Jason.sol\":1343:1396  payable(msg.sender).transfer(contractAddress.balance) */\n      dup2\n        /* \"SelfPractice-Jason.sol\":1372:1387  contractAddress */\n      dup2\n        /* \"SelfPractice-Jason.sol\":1343:1396  payable(msg.sender).transfer(contractAddress.balance) */\n      dup2\n        /* \"SelfPractice-Jason.sol\":1372:1395  contractAddress.balance */\n      dup6\n        /* \"SelfPractice-Jason.sol\":1351:1361  msg.sender */\n      dup9\n        /* \"SelfPractice-Jason.sol\":1343:1396  payable(msg.sender).transfer(contractAddress.balance) */\n      dup9\n      call\n      swap4\n      pop\n      pop\n      pop\n      pop\n      iszero\n      dup1\n      iszero\n      tag_58\n      jumpi\n      returndatasize\n      0x00\n      dup1\n      returndatacopy\n      revert(0x00, returndatasize)\n        /* \"SelfPractice-Jason.sol\":2121:2681  function getRandomNumber() public returns (uint256) {... */\n    tag_45:\n        /* \"SelfPractice-Jason.sol\":2164:2171  uint256 */\n      0x00\n      dup1\n        /* \"SelfPractice-Jason.sol\":2303:2318  block.timestamp */\n      timestamp\n        /* \"SelfPractice-Jason.sol\":2320:2336  block.difficulty */\n      prevrandao\n        /* \"SelfPractice-Jason.sol\":2348:2364  block.number - 1 */\n      tag_83\n        /* \"SelfPractice-Jason.sol\":2363:2364  1 */\n      0x01\n        /* \"SelfPractice-Jason.sol\":2348:2360  block.number */\n      number\n        /* \"SelfPractice-Jason.sol\":2348:2364  block.number - 1 */\n      tag_84\n      jump\t// in\n    tag_83:\n        /* \"SelfPractice-Jason.sol\":2286:2366  abi.encodePacked(block.timestamp, block.difficulty, blockhash(block.number - 1)) */\n      0x40\n      dup1\n      mload\n      0x20\n      dup2\n      add\n        /* \"#utility.yul\":2441:2460   */\n      swap5\n      swap1\n      swap5\n      mstore\n        /* \"#utility.yul\":2476:2488   */\n      dup4\n      add\n        /* \"#utility.yul\":2469:2497   */\n      swap2\n      swap1\n      swap2\n      mstore\n        /* \"SelfPractice-Jason.sol\":2338:2365  blockhash(block.number - 1) */\n      blockhash\n        /* \"#utility.yul\":2513:2525   */\n      0x60\n      dup3\n      add\n        /* \"#utility.yul\":2506:2534   */\n      mstore\n        /* \"#utility.yul\":2550:2562   */\n      0x80\n      add\n        /* \"SelfPractice-Jason.sol\":2286:2366  abi.encodePacked(block.timestamp, block.difficulty, blockhash(block.number - 1)) */\n      0x40\n      dup1\n      mload\n      not(0x1f)\n      dup2\n      dup5\n      sub\n      add\n      dup2\n      mstore\n      dup3\n      dup3\n      mstore\n        /* \"SelfPractice-Jason.sol\":2276:2367  keccak256(abi.encodePacked(block.timestamp, block.difficulty, blockhash(block.number - 1))) */\n      dup1\n      mload\n        /* \"SelfPractice-Jason.sol\":2286:2366  abi.encodePacked(block.timestamp, block.difficulty, blockhash(block.number - 1)) */\n      0x20\n        /* \"SelfPractice-Jason.sol\":2276:2367  keccak256(abi.encodePacked(block.timestamp, block.difficulty, blockhash(block.number - 1))) */\n      swap2\n      dup3\n      add\n      keccak256\n        /* \"SelfPractice-Jason.sol\":2268:2368  uint256(keccak256(abi.encodePacked(block.timestamp, block.difficulty, blockhash(block.number - 1)))) */\n      0x00\n        /* \"SelfPractice-Jason.sol\":2498:2502  salt */\n      dup1\n      sload\n        /* \"SelfPractice-Jason.sol\":2475:2503  abi.encodePacked(seed, salt) */\n      swap3\n      dup6\n      add\n        /* \"#utility.yul\":2730:2749   */\n      dup3\n      swap1\n      mstore\n        /* \"#utility.yul\":2765:2777   */\n      swap3\n      dup5\n      add\n        /* \"#utility.yul\":2758:2786   */\n      swap2\n      swap1\n      swap2\n      mstore\n        /* \"SelfPractice-Jason.sol\":2276:2367  keccak256(abi.encodePacked(block.timestamp, block.difficulty, blockhash(block.number - 1))) */\n      swap3\n      pop\n        /* \"SelfPractice-Jason.sol\":2268:2368  uint256(keccak256(abi.encodePacked(block.timestamp, block.difficulty, blockhash(block.number - 1)))) */\n      swap1\n        /* \"#utility.yul\":2802:2814   */\n      0x60\n      add\n        /* \"SelfPractice-Jason.sol\":2475:2503  abi.encodePacked(seed, salt) */\n      mload(0x40)\n      0x20\n      dup2\n      dup4\n      sub\n      sub\n      dup2\n      mstore\n      swap1\n      0x40\n      mstore\n        /* \"SelfPractice-Jason.sol\":2465:2504  keccak256(abi.encodePacked(seed, salt)) */\n      dup1\n      mload\n      swap1\n      0x20\n      add\n      keccak256\n        /* \"SelfPractice-Jason.sol\":2457:2505  uint256(keccak256(abi.encodePacked(seed, salt))) */\n      0x00\n      shr\n        /* \"SelfPractice-Jason.sol\":2439:2505  uint256 random1 = uint256(keccak256(abi.encodePacked(seed, salt))) */\n      swap1\n      pop\n        /* \"SelfPractice-Jason.sol\":2524:2525  1 */\n      0x01\n        /* \"SelfPractice-Jason.sol\":2516:2520  salt */\n      0x00\n      dup1\n        /* \"SelfPractice-Jason.sol\":2516:2525  salt += 1 */\n      dup3\n      dup3\n      sload\n      tag_89\n      swap2\n      swap1\n      tag_90\n      jump\t// in\n    tag_89:\n      swap1\n      swap2\n      sstore\n      pop\n      pop\n        /* \"SelfPractice-Jason.sol\":2611:2622  numberCount */\n      sload(0x01)\n        /* \"SelfPractice-Jason.sol\":2589:2628  showResult((random1 % numberCount) + 1) */\n      0xed6ad2f84ff9379c0261f2ba89850d87d385f1f35c6d1254dd6b54f946a0567e\n      swap1\n        /* \"SelfPractice-Jason.sol\":2601:2622  random1 % numberCount */\n      tag_91\n      swap1\n        /* \"SelfPractice-Jason.sol\":2601:2608  random1 */\n      dup4\n        /* \"SelfPractice-Jason.sol\":2601:2622  random1 % numberCount */\n      tag_92\n      jump\t// in\n    tag_91:\n        /* \"SelfPractice-Jason.sol\":2600:2627  (random1 % numberCount) + 1 */\n      tag_93\n      swap1\n        /* \"SelfPractice-Jason.sol\":2626:2627  1 */\n      0x01\n        /* \"SelfPractice-Jason.sol\":2600:2627  (random1 % numberCount) + 1 */\n      tag_90\n      jump\t// in\n    tag_93:\n        /* \"SelfPractice-Jason.sol\":2589:2628  showResult((random1 % numberCount) + 1) */\n      mload(0x40)\n        /* \"#utility.yul\":160:185   */\n      swap1\n      dup2\n      mstore\n        /* \"#utility.yul\":148:150   */\n      0x20\n        /* \"#utility.yul\":133:151   */\n      add\n        /* \"SelfPractice-Jason.sol\":2589:2628  showResult((random1 % numberCount) + 1) */\n      mload(0x40)\n      dup1\n      swap2\n      sub\n      swap1\n      log1\n        /* \"SelfPractice-Jason.sol\":2657:2668  numberCount */\n      sload(0x01)\n        /* \"SelfPractice-Jason.sol\":2647:2668  random1 % numberCount */\n      tag_95\n      swap1\n        /* \"SelfPractice-Jason.sol\":2647:2654  random1 */\n      dup3\n        /* \"SelfPractice-Jason.sol\":2647:2668  random1 % numberCount */\n      tag_92\n      jump\t// in\n    tag_95:\n        /* \"SelfPractice-Jason.sol\":2646:2673  (random1 % numberCount) + 1 */\n      tag_96\n      swap1\n        /* \"SelfPractice-Jason.sol\":2672:2673  1 */\n      0x01\n        /* \"SelfPractice-Jason.sol\":2646:2673  (random1 % numberCount) + 1 */\n      tag_90\n      jump\t// in\n    tag_96:\n        /* \"SelfPractice-Jason.sol\":2639:2673  return (random1 % numberCount) + 1 */\n      swap3\n      pop\n      pop\n      pop\n        /* \"SelfPractice-Jason.sol\":2121:2681  function getRandomNumber() public returns (uint256) {... */\n      swap1\n      jump\t// out\n        /* \"SelfPractice-Jason.sol\":1466:1587  function getAllMoney() external payable onlyOwner{... */\n    tag_48:\n        /* \"SelfPractice-Jason.sol\":439:444  owner */\n      and(sub(shl(0xa0, 0x01), 0x01), sload(0x04))\n        /* \"SelfPractice-Jason.sol\":425:435  msg.sender */\n      caller\n        /* \"SelfPractice-Jason.sol\":425:444  msg.sender == owner */\n      eq\n        /* \"SelfPractice-Jason.sol\":417:462  require(msg.sender == owner, \"Not the owner\") */\n      tag_98\n      jumpi\n      mload(0x40)\n      shl(0xe5, 0x461bcd)\n      dup2\n      mstore\n        /* \"#utility.yul\":3371:3373   */\n      0x20\n        /* \"SelfPractice-Jason.sol\":417:462  require(msg.sender == owner, \"Not the owner\") */\n      0x04\n      dup3\n      add\n        /* \"#utility.yul\":3353:3374   */\n      mstore\n        /* \"#utility.yul\":3410:3412   */\n      0x0d\n        /* \"#utility.yul\":3390:3408   */\n      0x24\n      dup3\n      add\n        /* \"#utility.yul\":3383:3413   */\n      mstore\n      shl(0x99, 0x2737ba103a34329037bbb732b9)\n        /* \"#utility.yul\":3429:3447   */\n      0x44\n      dup3\n      add\n        /* \"#utility.yul\":3422:3465   */\n      mstore\n        /* \"#utility.yul\":3482:3500   */\n      0x64\n      add\n        /* \"SelfPractice-Jason.sol\":417:462  require(msg.sender == owner, \"Not the owner\") */\n      tag_62\n        /* \"#utility.yul\":3169:3506   */\n      jump\n        /* \"SelfPractice-Jason.sol\":417:462  require(msg.sender == owner, \"Not the owner\") */\n    tag_98:\n        /* \"SelfPractice-Jason.sol\":1555:1570  contractAddress */\n      sload(0x02)\n        /* \"SelfPractice-Jason.sol\":1526:1579  payable(msg.sender).transfer(contractAddress.balance) */\n      mload(0x40)\n        /* \"SelfPractice-Jason.sol\":1534:1544  msg.sender */\n      caller\n      swap2\n      sub(shl(0xa0, 0x01), 0x01)\n        /* \"SelfPractice-Jason.sol\":1555:1570  contractAddress */\n      and\n        /* \"SelfPractice-Jason.sol\":1555:1578  contractAddress.balance */\n      balance\n        /* \"SelfPractice-Jason.sol\":1526:1579  payable(msg.sender).transfer(contractAddress.balance) */\n      dup1\n      iszero\n      0x08fc\n      mul\n      swap2\n        /* \"SelfPractice-Jason.sol\":1555:1570  contractAddress */\n      0x00\n        /* \"SelfPractice-Jason.sol\":1526:1579  payable(msg.sender).transfer(contractAddress.balance) */\n      dup2\n        /* \"SelfPractice-Jason.sol\":1555:1570  contractAddress */\n      dup2\n        /* \"SelfPractice-Jason.sol\":1526:1579  payable(msg.sender).transfer(contractAddress.balance) */\n      dup2\n        /* \"SelfPractice-Jason.sol\":1555:1578  contractAddress.balance */\n      dup6\n        /* \"SelfPractice-Jason.sol\":1534:1544  msg.sender */\n      dup9\n        /* \"SelfPractice-Jason.sol\":1526:1579  payable(msg.sender).transfer(contractAddress.balance) */\n      dup9\n      call\n      swap4\n      pop\n      pop\n      pop\n      pop\n      iszero\n      dup1\n      iszero\n      tag_103\n      jumpi\n      returndatasize\n      0x00\n      dup1\n      returndatacopy\n      revert(0x00, returndatasize)\n    tag_103:\n      pop\n        /* \"SelfPractice-Jason.sol\":1466:1587  function getAllMoney() external payable onlyOwner{... */\n      jump\t// out\n        /* \"#utility.yul\":196:376   */\n    tag_34:\n        /* \"#utility.yul\":255:261   */\n      0x00\n        /* \"#utility.yul\":308:310   */\n      0x20\n        /* \"#utility.yul\":296:305   */\n      dup3\n        /* \"#utility.yul\":287:294   */\n      dup5\n        /* \"#utility.yul\":283:306   */\n      sub\n        /* \"#utility.yul\":279:311   */\n      slt\n        /* \"#utility.yul\":276:328   */\n      iszero\n      tag_108\n      jumpi\n        /* \"#utility.yul\":324:325   */\n      0x00\n        /* \"#utility.yul\":321:322   */\n      dup1\n        /* \"#utility.yul\":314:326   */\n      revert\n        /* \"#utility.yul\":276:328   */\n    tag_108:\n      pop\n        /* \"#utility.yul\":347:370   */\n      calldataload\n      swap2\n        /* \"#utility.yul\":196:376   */\n      swap1\n      pop\n      jump\t// out\n        /* \"#utility.yul\":1505:1632   */\n    tag_104:\n        /* \"#utility.yul\":1566:1576   */\n      0x4e487b71\n        /* \"#utility.yul\":1561:1564   */\n      0xe0\n        /* \"#utility.yul\":1557:1577   */\n      shl\n        /* \"#utility.yul\":1554:1555   */\n      0x00\n        /* \"#utility.yul\":1547:1578   */\n      mstore\n        /* \"#utility.yul\":1597:1601   */\n      0x11\n        /* \"#utility.yul\":1594:1595   */\n      0x04\n        /* \"#utility.yul\":1587:1602   */\n      mstore\n        /* \"#utility.yul\":1621:1625   */\n      0x24\n        /* \"#utility.yul\":1618:1619   */\n      0x00\n        /* \"#utility.yul\":1611:1626   */\n      revert\n        /* \"#utility.yul\":1637:1772   */\n    tag_69:\n        /* \"#utility.yul\":1676:1679   */\n      0x00\n        /* \"#utility.yul\":1697:1714   */\n      0x01\n      dup3\n      add\n        /* \"#utility.yul\":1694:1737   */\n      tag_116\n      jumpi\n        /* \"#utility.yul\":1717:1735   */\n      tag_116\n      tag_104\n      jump\t// in\n    tag_116:\n      pop\n        /* \"#utility.yul\":1764:1765   */\n      0x01\n        /* \"#utility.yul\":1753:1766   */\n      add\n      swap1\n        /* \"#utility.yul\":1637:1772   */\n      jump\t// out\n        /* \"#utility.yul\":2123:2251   */\n    tag_84:\n        /* \"#utility.yul\":2190:2199   */\n      dup2\n      dup2\n      sub\n        /* \"#utility.yul\":2211:2222   */\n      dup2\n      dup2\n      gt\n        /* \"#utility.yul\":2208:2245   */\n      iszero\n      tag_120\n      jumpi\n        /* \"#utility.yul\":2225:2243   */\n      tag_120\n      tag_104\n      jump\t// in\n    tag_120:\n        /* \"#utility.yul\":2123:2251   */\n      swap3\n      swap2\n      pop\n      pop\n      jump\t// out\n        /* \"#utility.yul\":2825:2950   */\n    tag_90:\n        /* \"#utility.yul\":2890:2899   */\n      dup1\n      dup3\n      add\n        /* \"#utility.yul\":2911:2921   */\n      dup1\n      dup3\n      gt\n        /* \"#utility.yul\":2908:2944   */\n      iszero\n      tag_120\n      jumpi\n        /* \"#utility.yul\":2924:2942   */\n      tag_120\n      tag_104\n      jump\t// in\n        /* \"#utility.yul\":2955:3164   */\n    tag_92:\n        /* \"#utility.yul\":2987:2988   */\n      0x00\n        /* \"#utility.yul\":3013:3014   */\n      dup3\n        /* \"#utility.yul\":3003:3135   */\n      tag_127\n      jumpi\n        /* \"#utility.yul\":3057:3067   */\n      0x4e487b71\n        /* \"#utility.yul\":3052:3055   */\n      0xe0\n        /* \"#utility.yul\":3048:3068   */\n      shl\n        /* \"#utility.yul\":3045:3046   */\n      0x00\n        /* \"#utility.yul\":3038:3069   */\n      mstore\n        /* \"#utility.yul\":3092:3096   */\n      0x12\n        /* \"#utility.yul\":3089:3090   */\n      0x04\n        /* \"#utility.yul\":3082:3097   */\n      mstore\n        /* \"#utility.yul\":3120:3124   */\n      0x24\n        /* \"#utility.yul\":3117:3118   */\n      0x00\n        /* \"#utility.yul\":3110:3125   */\n      revert\n        /* \"#utility.yul\":3003:3135   */\n    tag_127:\n      pop\n        /* \"#utility.yul\":3149:3158   */\n      mod\n      swap1\n        /* \"#utility.yul\":2955:3164   */\n      jump\t// out\n\n    auxdata: 0xa264697066735822122045c77483aaa45236e855d86b1299836d7b40a000a6d293b224e600a6aae1687964736f6c63430008130033\n}\n",
				"bytecode": {
					"linkReferences": {},
					"object": "60806040526000805560018055600280546001600160a01b0319163017905534801561002a57600080fd5b50600480546001600160a01b031916331790556106218061004c6000396000f3fe6080604052600436106100955760003560e01c80638da5cb5b116100595780638da5cb5b14610139578063ac44600214610171578063dbdff2c114610179578063edb84ff71461018e578063f6b4dfb41461019657600080fd5b80630b01517c146100c4578063103f90f4146100e757806312065fe0146100fd5780633f925f7a1461011c5780635873533d1461012657600080fd5b366100bf576002546040516001600160a01b03909116903480156108fc02916000818181858888f1005b600080fd5b3480156100d057600080fd5b5033315b6040519081526020015b60405180910390f35b3480156100f357600080fd5b506100d460015481565b34801561010957600080fd5b506002546001600160a01b0316316100d4565b6101246101b6565b005b610124610134366004610555565b610233565b34801561014557600080fd5b50600454610159906001600160a01b031681565b6040516001600160a01b0390911681526020016100de565b610124610354565b34801561018557600080fd5b506100d46103da565b6101246104d0565b3480156101a257600080fd5b50600254610159906001600160a01b031681565b6002546040516001600160a01b03909116903480156108fc02916000818181858888f193505050501580156101ef573d6000803e3d6000fd5b506002546040516001600160a01b039091163181527ff0b60c507a2e93235b6bed490cd5616aa2f43a849c3d167e96d6c5099b5524e59060200160405180910390a1565b600454600160a01b900460ff161561028a5760405162461bcd60e51b8152602060048201526015602482015274115c9c9bdc8e881499595b9d1c985b9d0818d85b1b605a1b60448201526064015b60405180910390fd5b6004805460ff60a01b1916600160a01b179055670de0b6b3a76400003410156102e55760405162461bcd60e51b815260206004820152600d60248201526c73656e6420312065746865722160981b6044820152606401610281565b600180549060006102f583610584565b9190505550806103036103da565b0361033c57600380546001600160a01b03191633179055610322610354565b600380546001600160a01b03191690556002600155610344565b6103446101b6565b506004805460ff60a01b19169055565b6003546001600160a01b031633146103a25760405162461bcd60e51b81526020600482015260116024820152702cb7ba9030b932903737ba103bb4b732b960791b6044820152606401610281565b60025460405133916001600160a01b03163180156108fc02916000818181858888f193505050501580156101ef573d6000803e3d6000fd5b60008042446103ea60014361059d565b60408051602081019490945283019190915240606082015260800160408051601f19818403018152828252805160209182012060008054928501829052928401919091529250906060016040516020818303038152906040528051906020012060001c9050600160008082825461046191906105b6565b90915550506001547fed6ad2f84ff9379c0261f2ba89850d87d385f1f35c6d1254dd6b54f946a0567e9061049590836105c9565b6104a09060016105b6565b60405190815260200160405180910390a16001546104be90826105c9565b6104c99060016105b6565b9250505090565b6004546001600160a01b0316331461051a5760405162461bcd60e51b815260206004820152600d60248201526c2737ba103a34329037bbb732b960991b6044820152606401610281565b60025460405133916001600160a01b03163180156108fc02916000818181858888f19350505050158015610552573d6000803e3d6000fd5b50565b60006020828403121561056757600080fd5b5035919050565b634e487b7160e01b600052601160045260246000fd5b6000600182016105965761059661056e565b5060010190565b818103818111156105b0576105b061056e565b92915050565b808201808211156105b0576105b061056e565b6000826105e657634e487b7160e01b600052601260045260246000fd5b50069056fea264697066735822122045c77483aaa45236e855d86b1299836d7b40a000a6d293b224e600a6aae1687964736f6c63430008130033",
					"opcodes": "PUSH1 0x80 PUSH1 0x40 MSTORE PUSH1 0x0 DUP1 SSTORE PUSH1 0x1 DUP1 SSTORE PUSH1 0x2 DUP1 SLOAD PUSH1 0x1 PUSH1 0x1 PUSH1 0xA0 SHL SUB NOT AND ADDRESS OR SWAP1 SSTORE CALLVALUE DUP1 ISZERO PUSH2 0x2A JUMPI PUSH1 0x0 DUP1 REVERT JUMPDEST POP PUSH1 0x4 DUP1 SLOAD PUSH1 0x1 PUSH1 0x1 PUSH1 0xA0 SHL SUB NOT AND CALLER OR SWAP1 SSTORE PUSH2 0x621 DUP1 PUSH2 0x4C PUSH1 0x0 CODECOPY PUSH1 0x0 RETURN INVALID PUSH1 0x80 PUSH1 0x40 MSTORE PUSH1 0x4 CALLDATASIZE LT PUSH2 0x95 JUMPI PUSH1 0x0 CALLDATALOAD PUSH1 0xE0 SHR DUP1 PUSH4 0x8DA5CB5B GT PUSH2 0x59 JUMPI DUP1 PUSH4 0x8DA5CB5B EQ PUSH2 0x139 JUMPI DUP1 PUSH4 0xAC446002 EQ PUSH2 0x171 JUMPI DUP1 PUSH4 0xDBDFF2C1 EQ PUSH2 0x179 JUMPI DUP1 PUSH4 0xEDB84FF7 EQ PUSH2 0x18E JUMPI DUP1 PUSH4 0xF6B4DFB4 EQ PUSH2 0x196 JUMPI PUSH1 0x0 DUP1 REVERT JUMPDEST DUP1 PUSH4 0xB01517C EQ PUSH2 0xC4 JUMPI DUP1 PUSH4 0x103F90F4 EQ PUSH2 0xE7 JUMPI DUP1 PUSH4 0x12065FE0 EQ PUSH2 0xFD JUMPI DUP1 PUSH4 0x3F925F7A EQ PUSH2 0x11C JUMPI DUP1 PUSH4 0x5873533D EQ PUSH2 0x126 JUMPI PUSH1 0x0 DUP1 REVERT JUMPDEST CALLDATASIZE PUSH2 0xBF JUMPI PUSH1 0x2 SLOAD PUSH1 0x40 MLOAD PUSH1 0x1 PUSH1 0x1 PUSH1 0xA0 SHL SUB SWAP1 SWAP2 AND SWAP1 CALLVALUE DUP1 ISZERO PUSH2 0x8FC MUL SWAP2 PUSH1 0x0 DUP2 DUP2 DUP2 DUP6 DUP9 DUP9 CALL STOP JUMPDEST PUSH1 0x0 DUP1 REVERT JUMPDEST CALLVALUE DUP1 ISZERO PUSH2 0xD0 JUMPI PUSH1 0x0 DUP1 REVERT JUMPDEST POP CALLER BALANCE JUMPDEST PUSH1 0x40 MLOAD SWAP1 DUP2 MSTORE PUSH1 0x20 ADD JUMPDEST PUSH1 0x40 MLOAD DUP1 SWAP2 SUB SWAP1 RETURN JUMPDEST CALLVALUE DUP1 ISZERO PUSH2 0xF3 JUMPI PUSH1 0x0 DUP1 REVERT JUMPDEST POP PUSH2 0xD4 PUSH1 0x1 SLOAD DUP2 JUMP JUMPDEST CALLVALUE DUP1 ISZERO PUSH2 0x109 JUMPI PUSH1 0x0 DUP1 REVERT JUMPDEST POP PUSH1 0x2 SLOAD PUSH1 0x1 PUSH1 0x1 PUSH1 0xA0 SHL SUB AND BALANCE PUSH2 0xD4 JUMP JUMPDEST PUSH2 0x124 PUSH2 0x1B6 JUMP JUMPDEST STOP JUMPDEST PUSH2 0x124 PUSH2 0x134 CALLDATASIZE PUSH1 0x4 PUSH2 0x555 JUMP JUMPDEST PUSH2 0x233 JUMP JUMPDEST CALLVALUE DUP1 ISZERO PUSH2 0x145 JUMPI PUSH1 0x0 DUP1 REVERT JUMPDEST POP PUSH1 0x4 SLOAD PUSH2 0x159 SWAP1 PUSH1 0x1 PUSH1 0x1 PUSH1 0xA0 SHL SUB AND DUP2 JUMP JUMPDEST PUSH1 0x40 MLOAD PUSH1 0x1 PUSH1 0x1 PUSH1 0xA0 SHL SUB SWAP1 SWAP2 AND DUP2 MSTORE PUSH1 0x20 ADD PUSH2 0xDE JUMP JUMPDEST PUSH2 0x124 PUSH2 0x354 JUMP JUMPDEST CALLVALUE DUP1 ISZERO PUSH2 0x185 JUMPI PUSH1 0x0 DUP1 REVERT JUMPDEST POP PUSH2 0xD4 PUSH2 0x3DA JUMP JUMPDEST PUSH2 0x124 PUSH2 0x4D0 JUMP JUMPDEST CALLVALUE DUP1 ISZERO PUSH2 0x1A2 JUMPI PUSH1 0x0 DUP1 REVERT JUMPDEST POP PUSH1 0x2 SLOAD PUSH2 0x159 SWAP1 PUSH1 0x1 PUSH1 0x1 PUSH1 0xA0 SHL SUB AND DUP2 JUMP JUMPDEST PUSH1 0x2 SLOAD PUSH1 0x40 MLOAD PUSH1 0x1 PUSH1 0x1 PUSH1 0xA0 SHL SUB SWAP1 SWAP2 AND SWAP1 CALLVALUE DUP1 ISZERO PUSH2 0x8FC MUL SWAP2 PUSH1 0x0 DUP2 DUP2 DUP2 DUP6 DUP9 DUP9 CALL SWAP4 POP POP POP POP ISZERO DUP1 ISZERO PUSH2 0x1EF JUMPI RETURNDATASIZE PUSH1 0x0 DUP1 RETURNDATACOPY RETURNDATASIZE PUSH1 0x0 REVERT JUMPDEST POP PUSH1 0x2 SLOAD PUSH1 0x40 MLOAD PUSH1 0x1 PUSH1 0x1 PUSH1 0xA0 SHL SUB SWAP1 SWAP2 AND BALANCE DUP2 MSTORE PUSH32 0xF0B60C507A2E93235B6BED490CD5616AA2F43A849C3D167E96D6C5099B5524E5 SWAP1 PUSH1 0x20 ADD PUSH1 0x40 MLOAD DUP1 SWAP2 SUB SWAP1 LOG1 JUMP JUMPDEST PUSH1 0x4 SLOAD PUSH1 0x1 PUSH1 0xA0 SHL SWAP1 DIV PUSH1 0xFF AND ISZERO PUSH2 0x28A JUMPI PUSH1 0x40 MLOAD PUSH3 0x461BCD PUSH1 0xE5 SHL DUP2 MSTORE PUSH1 0x20 PUSH1 0x4 DUP3 ADD MSTORE PUSH1 0x15 PUSH1 0x24 DUP3 ADD MSTORE PUSH21 0x115C9C9BDC8E881499595B9D1C985B9D0818D85B1B PUSH1 0x5A SHL PUSH1 0x44 DUP3 ADD MSTORE PUSH1 0x64 ADD JUMPDEST PUSH1 0x40 MLOAD DUP1 SWAP2 SUB SWAP1 REVERT JUMPDEST PUSH1 0x4 DUP1 SLOAD PUSH1 0xFF PUSH1 0xA0 SHL NOT AND PUSH1 0x1 PUSH1 0xA0 SHL OR SWAP1 SSTORE PUSH8 0xDE0B6B3A7640000 CALLVALUE LT ISZERO PUSH2 0x2E5 JUMPI PUSH1 0x40 MLOAD PUSH3 0x461BCD PUSH1 0xE5 SHL DUP2 MSTORE PUSH1 0x20 PUSH1 0x4 DUP3 ADD MSTORE PUSH1 0xD PUSH1 0x24 DUP3 ADD MSTORE PUSH13 0x73656E64203120657468657221 PUSH1 0x98 SHL PUSH1 0x44 DUP3 ADD MSTORE PUSH1 0x64 ADD PUSH2 0x281 JUMP JUMPDEST PUSH1 0x1 DUP1 SLOAD SWAP1 PUSH1 0x0 PUSH2 0x2F5 DUP4 PUSH2 0x584 JUMP JUMPDEST SWAP2 SWAP1 POP SSTORE POP DUP1 PUSH2 0x303 PUSH2 0x3DA JUMP JUMPDEST SUB PUSH2 0x33C JUMPI PUSH1 0x3 DUP1 SLOAD PUSH1 0x1 PUSH1 0x1 PUSH1 0xA0 SHL SUB NOT AND CALLER OR SWAP1 SSTORE PUSH2 0x322 PUSH2 0x354 JUMP JUMPDEST PUSH1 0x3 DUP1 SLOAD PUSH1 0x1 PUSH1 0x1 PUSH1 0xA0 SHL SUB NOT AND SWAP1 SSTORE PUSH1 0x2 PUSH1 0x1 SSTORE PUSH2 0x344 JUMP JUMPDEST PUSH2 0x344 PUSH2 0x1B6 JUMP JUMPDEST POP PUSH1 0x4 DUP1 SLOAD PUSH1 0xFF PUSH1 0xA0 SHL NOT AND SWAP1 SSTORE JUMP JUMPDEST PUSH1 0x3 SLOAD PUSH1 0x1 PUSH1 0x1 PUSH1 0xA0 SHL SUB AND CALLER EQ PUSH2 0x3A2 JUMPI PUSH1 0x40 MLOAD PUSH3 0x461BCD PUSH1 0xE5 SHL DUP2 MSTORE PUSH1 0x20 PUSH1 0x4 DUP3 ADD MSTORE PUSH1 0x11 PUSH1 0x24 DUP3 ADD MSTORE PUSH17 0x2CB7BA9030B932903737BA103BB4B732B9 PUSH1 0x79 SHL PUSH1 0x44 DUP3 ADD MSTORE PUSH1 0x64 ADD PUSH2 0x281 JUMP JUMPDEST PUSH1 0x2 SLOAD PUSH1 0x40 MLOAD CALLER SWAP2 PUSH1 0x1 PUSH1 0x1 PUSH1 0xA0 SHL SUB AND BALANCE DUP1 ISZERO PUSH2 0x8FC MUL SWAP2 PUSH1 0x0 DUP2 DUP2 DUP2 DUP6 DUP9 DUP9 CALL SWAP4 POP POP POP POP ISZERO DUP1 ISZERO PUSH2 0x1EF JUMPI RETURNDATASIZE PUSH1 0x0 DUP1 RETURNDATACOPY RETURNDATASIZE PUSH1 0x0 REVERT JUMPDEST PUSH1 0x0 DUP1 TIMESTAMP PREVRANDAO PUSH2 0x3EA PUSH1 0x1 NUMBER PUSH2 0x59D JUMP JUMPDEST PUSH1 0x40 DUP1 MLOAD PUSH1 0x20 DUP2 ADD SWAP5 SWAP1 SWAP5 MSTORE DUP4 ADD SWAP2 SWAP1 SWAP2 MSTORE BLOCKHASH PUSH1 0x60 DUP3 ADD MSTORE PUSH1 0x80 ADD PUSH1 0x40 DUP1 MLOAD PUSH1 0x1F NOT DUP2 DUP5 SUB ADD DUP2 MSTORE DUP3 DUP3 MSTORE DUP1 MLOAD PUSH1 0x20 SWAP2 DUP3 ADD KECCAK256 PUSH1 0x0 DUP1 SLOAD SWAP3 DUP6 ADD DUP3 SWAP1 MSTORE SWAP3 DUP5 ADD SWAP2 SWAP1 SWAP2 MSTORE SWAP3 POP SWAP1 PUSH1 0x60 ADD PUSH1 0x40 MLOAD PUSH1 0x20 DUP2 DUP4 SUB SUB DUP2 MSTORE SWAP1 PUSH1 0x40 MSTORE DUP1 MLOAD SWAP1 PUSH1 0x20 ADD KECCAK256 PUSH1 0x0 SHR SWAP1 POP PUSH1 0x1 PUSH1 0x0 DUP1 DUP3 DUP3 SLOAD PUSH2 0x461 SWAP2 SWAP1 PUSH2 0x5B6 JUMP JUMPDEST SWAP1 SWAP2 SSTORE POP POP PUSH1 0x1 SLOAD PUSH32 0xED6AD2F84FF9379C0261F2BA89850D87D385F1F35C6D1254DD6B54F946A0567E SWAP1 PUSH2 0x495 SWAP1 DUP4 PUSH2 0x5C9 JUMP JUMPDEST PUSH2 0x4A0 SWAP1 PUSH1 0x1 PUSH2 0x5B6 JUMP JUMPDEST PUSH1 0x40 MLOAD SWAP1 DUP2 MSTORE PUSH1 0x20 ADD PUSH1 0x40 MLOAD DUP1 SWAP2 SUB SWAP1 LOG1 PUSH1 0x1 SLOAD PUSH2 0x4BE SWAP1 DUP3 PUSH2 0x5C9 JUMP JUMPDEST PUSH2 0x4C9 SWAP1 PUSH1 0x1 PUSH2 0x5B6 JUMP JUMPDEST SWAP3 POP POP POP SWAP1 JUMP JUMPDEST PUSH1 0x4 SLOAD PUSH1 0x1 PUSH1 0x1 PUSH1 0xA0 SHL SUB AND CALLER EQ PUSH2 0x51A JUMPI PUSH1 0x40 MLOAD PUSH3 0x461BCD PUSH1 0xE5 SHL DUP2 MSTORE PUSH1 0x20 PUSH1 0x4 DUP3 ADD MSTORE PUSH1 0xD PUSH1 0x24 DUP3 ADD MSTORE PUSH13 0x2737BA103A34329037BBB732B9 PUSH1 0x99 SHL PUSH1 0x44 DUP3 ADD MSTORE PUSH1 0x64 ADD PUSH2 0x281 JUMP JUMPDEST PUSH1 0x2 SLOAD PUSH1 0x40 MLOAD CALLER SWAP2 PUSH1 0x1 PUSH1 0x1 PUSH1 0xA0 SHL SUB AND BALANCE DUP1 ISZERO PUSH2 0x8FC MUL SWAP2 PUSH1 0x0 DUP2 DUP2 DUP2 DUP6 DUP9 DUP9 CALL SWAP4 POP POP POP POP ISZERO DUP1 ISZERO PUSH2 0x552 JUMPI RETURNDATASIZE PUSH1 0x0 DUP1 RETURNDATACOPY RETURNDATASIZE PUSH1 0x0 REVERT JUMPDEST POP JUMP JUMPDEST PUSH1 0x0 PUSH1 0x20 DUP3 DUP5 SUB SLT ISZERO PUSH2 0x567 JUMPI PUSH1 0x0 DUP1 REVERT JUMPDEST POP CALLDATALOAD SWAP2 SWAP1 POP JUMP JUMPDEST PUSH4 0x4E487B71 PUSH1 0xE0 SHL PUSH1 0x0 MSTORE PUSH1 0x11 PUSH1 0x4 MSTORE PUSH1 0x24 PUSH1 0x0 REVERT JUMPDEST PUSH1 0x0 PUSH1 0x1 DUP3 ADD PUSH2 0x596 JUMPI PUSH2 0x596 PUSH2 0x56E JUMP JUMPDEST POP PUSH1 0x1 ADD SWAP1 JUMP JUMPDEST DUP2 DUP2 SUB DUP2 DUP2 GT ISZERO PUSH2 0x5B0 JUMPI PUSH2 0x5B0 PUSH2 0x56E JUMP JUMPDEST SWAP3 SWAP2 POP POP JUMP JUMPDEST DUP1 DUP3 ADD DUP1 DUP3 GT ISZERO PUSH2 0x5B0 JUMPI PUSH2 0x5B0 PUSH2 0x56E JUMP JUMPDEST PUSH1 0x0 DUP3 PUSH2 0x5E6 JUMPI PUSH4 0x4E487B71 PUSH1 0xE0 SHL PUSH1 0x0 MSTORE PUSH1 0x12 PUSH1 0x4 MSTORE PUSH1 0x24 PUSH1 0x0 REVERT JUMPDEST POP MOD SWAP1 JUMP INVALID LOG2 PUSH5 0x6970667358 0x22 SLT KECCAK256 GASLIMIT 0xC7 PUSH21 0x83AAA45236E855D86B1299836D7B40A000A6D293B2 0x24 0xE6 STOP 0xA6 0xAA 0xE1 PUSH9 0x7964736F6C63430008 SGT STOP CALLER "
				},
				"gasEstimates": {
					"creation": {
						"codeDepositCost": "313800",
						"executionCost": "75937",
						"totalCost": "389737"
					},
					"external": {
						"contractAddress()": "2425",
						"depositeMoney()": "infinite",
						"getAllMoney()": "infinite",
						"getBalance()": "4944",
						"getPlayerBalance()": "2770",
						"getRandomNumber()": "infinite",
						"numberCount()": "2307",
						"owner()": "2337",
						"playGame(uint256)": "infinite",
						"withdrawMoney()": "infinite"
					}
				},
				"methodIdentifiers": {
					"contractAddress()": "f6b4dfb4",
					"depositeMoney()": "3f925f7a",
					"getAllMoney()": "edb84ff7",
					"getBalance()": "12065fe0",
					"getPlayerBalance()": "0b01517c",
					"getRandomNumber()": "dbdff2c1",
					"numberCount()": "103f90f4",
					"owner()": "8da5cb5b",
					"playGame(uint256)": "5873533d",
					"withdrawMoney()": "ac446002"
				}
			},
			"storageLayout": {
				"storage": [
					{
						"astId": 4,
						"contract": "SelfPractice-Jason.sol:payAndPlay",
						"label": "salt",
						"offset": 0,
						"slot": "0",
						"type": "t_uint256"
					},
					{
						"astId": 7,
						"contract": "SelfPractice-Jason.sol:payAndPlay",
						"label": "numberCount",
						"offset": 0,
						"slot": "1",
						"type": "t_uint256"
					},
					{
						"astId": 16,
						"contract": "SelfPractice-Jason.sol:payAndPlay",
						"label": "contractAddress",
						"offset": 0,
						"slot": "2",
						"type": "t_address_payable"
					},
					{
						"astId": 18,
						"contract": "SelfPractice-Jason.sol:payAndPlay",
						"label": "playerAddress",
						"offset": 0,
						"slot": "3",
						"type": "t_address"
					},
					{
						"astId": 20,
						"contract": "SelfPractice-Jason.sol:payAndPlay",
						"label": "owner",
						"offset": 0,
						"slot": "4",
						"type": "t_address"
					},
					{
						"astId": 22,
						"contract": "SelfPractice-Jason.sol:payAndPlay",
						"label": "locked",
						"offset": 20,
						"slot": "4",
						"type": "t_bool"
					}
				],
				"types": {
					"t_address": {
						"encoding": "inplace",
						"label": "address",
						"numberOfBytes": "20"
					},
					"t_address_payable": {
						"encoding": "inplace",
						"label": "address payable",
						"numberOfBytes": "20"
					},
					"t_bool": {
						"encoding": "inplace",
						"label": "bool",
						"numberOfBytes": "1"
					},
					"t_uint256": {
						"encoding": "inplace",
						"label": "uint256",
						"numberOfBytes": "32"
					}
				}
			},
			"userdoc": {
				"kind": "user",
				"methods": {},
				"version": 1
			}
		}
	}
}