{
	"Practical4-Tick-Tack-Toe-Jason.sol": {
		"TickTackToe": {
			"abi": [
				{
					"anonymous": false,
					"inputs": [
						{
							"indexed": false,
							"internalType": "string",
							"name": "next",
							"type": "string"
						}
					],
					"name": "nextUesrStr",
					"type": "event"
				},
				{
					"anonymous": false,
					"inputs": [
						{
							"indexed": false,
							"internalType": "address",
							"name": "nextUser",
							"type": "address"
						}
					],
					"name": "nextUser",
					"type": "event"
				},
				{
					"anonymous": false,
					"inputs": [
						{
							"indexed": false,
							"internalType": "string",
							"name": "initPLayer",
							"type": "string"
						}
					],
					"name": "resetUI",
					"type": "event"
				},
				{
					"anonymous": false,
					"inputs": [
						{
							"indexed": false,
							"internalType": "string",
							"name": "result",
							"type": "string"
						}
					],
					"name": "showResult",
					"type": "event"
				},
				{
					"anonymous": false,
					"inputs": [
						{
							"indexed": false,
							"internalType": "string",
							"name": "message",
							"type": "string"
						},
						{
							"indexed": false,
							"internalType": "address",
							"name": "player1",
							"type": "address"
						},
						{
							"indexed": false,
							"internalType": "address",
							"name": "player2",
							"type": "address"
						}
					],
					"name": "startGame",
					"type": "event"
				},
				{
					"anonymous": false,
					"inputs": [
						{
							"indexed": false,
							"internalType": "string[]",
							"name": "options",
							"type": "string[]"
						}
					],
					"name": "updateUI",
					"type": "event"
				},
				{
					"inputs": [],
					"name": "activate",
					"outputs": [
						{
							"internalType": "bool",
							"name": "",
							"type": "bool"
						}
					],
					"stateMutability": "view",
					"type": "function"
				},
				{
					"inputs": [
						{
							"internalType": "string",
							"name": "a",
							"type": "string"
						},
						{
							"internalType": "string",
							"name": "b",
							"type": "string"
						}
					],
					"name": "compareStrings",
					"outputs": [
						{
							"internalType": "bool",
							"name": "",
							"type": "bool"
						}
					],
					"stateMutability": "pure",
					"type": "function"
				},
				{
					"inputs": [],
					"name": "currentPlayer",
					"outputs": [
						{
							"internalType": "string",
							"name": "",
							"type": "string"
						}
					],
					"stateMutability": "view",
					"type": "function"
				},
				{
					"inputs": [],
					"name": "getoption",
					"outputs": [
						{
							"internalType": "string[]",
							"name": "",
							"type": "string[]"
						}
					],
					"stateMutability": "view",
					"type": "function"
				},
				{
					"inputs": [],
					"name": "joinGame",
					"outputs": [],
					"stateMutability": "nonpayable",
					"type": "function"
				},
				{
					"inputs": [
						{
							"internalType": "uint256",
							"name": "",
							"type": "uint256"
						}
					],
					"name": "options",
					"outputs": [
						{
							"internalType": "string",
							"name": "",
							"type": "string"
						}
					],
					"stateMutability": "view",
					"type": "function"
				},
				{
					"inputs": [],
					"name": "player1address",
					"outputs": [
						{
							"internalType": "address",
							"name": "",
							"type": "address"
						}
					],
					"stateMutability": "view",
					"type": "function"
				},
				{
					"inputs": [],
					"name": "player2address",
					"outputs": [
						{
							"internalType": "address",
							"name": "",
							"type": "address"
						}
					],
					"stateMutability": "view",
					"type": "function"
				},
				{
					"inputs": [],
					"name": "playerCount",
					"outputs": [
						{
							"internalType": "uint256",
							"name": "",
							"type": "uint256"
						}
					],
					"stateMutability": "view",
					"type": "function"
				},
				{
					"inputs": [],
					"name": "restartGame",
					"outputs": [],
					"stateMutability": "nonpayable",
					"type": "function"
				},
				{
					"inputs": [
						{
							"internalType": "uint256",
							"name": "input",
							"type": "uint256"
						}
					],
					"name": "userInput",
					"outputs": [],
					"stateMutability": "nonpayable",
					"type": "function"
				}
			],
			"devdoc": {
				"kind": "dev",
				"methods": {},
				"version": 1
			},
			"evm": {
				"assembly": "    /* \"Practical4-Tick-Tack-Toe-Jason.sol\":256:257  0 */\n  0x00\n    /* \"Practical4-Tick-Tack-Toe-Jason.sol\":230:257  uint public playerCount = 0 */\n  0x02\n  dup2\n  swap1\n  sstore\n    /* \"Practical4-Tick-Tack-Toe-Jason.sol\":359:421  string[] public options = [\"\", \"\", \"\", \"\", \"\", \"\", \"\", \"\", \"\"] */\n  0x01a0\n  dup2\n  dup2\n  mstore\n    /* \"Practical4-Tick-Tack-Toe-Jason.sol\":60:6247  contract TickTackToe{... */\n  0x80\n    /* \"Practical4-Tick-Tack-Toe-Jason.sol\":359:421  string[] public options = [\"\", \"\", \"\", \"\", \"\", \"\", \"\", \"\", \"\"] */\n  swap1\n  dup2\n  mstore\n  0x01c0\n  dup3\n  dup2\n  mstore\n  0xa0\n  mstore\n  0x01e0\n  dup3\n  dup2\n  mstore\n  0xc0\n  mstore\n  0x0200\n  dup3\n  dup2\n  mstore\n  0xe0\n  mstore\n  0x0220\n  dup3\n  dup2\n  mstore\n  0x0100\n  mstore\n  0x0240\n  dup3\n  dup2\n  mstore\n  0x0120\n  mstore\n  0x0260\n  dup3\n  dup2\n  mstore\n  0x0140\n  mstore\n  0x0280\n  dup3\n  dup2\n  mstore\n  0x0160\n  mstore\n  0x02c0\n    /* \"Practical4-Tick-Tack-Toe-Jason.sol\":60:6247  contract TickTackToe{... */\n  0x40\n    /* \"Practical4-Tick-Tack-Toe-Jason.sol\":359:421  string[] public options = [\"\", \"\", \"\", \"\", \"\", \"\", \"\", \"\", \"\"] */\n  mstore\n  0x02a0\n  swap2\n  dup3\n  mstore\n  0x0180\n  swap2\n  swap1\n  swap2\n  mstore\n  tag_1\n  swap1\n  0x03\n  swap1\n  0x09\n  tag_2\n  jump\t// in\ntag_1:\n  pop\n    /* \"Practical4-Tick-Tack-Toe-Jason.sol\":460:488  bool public activate = false */\n  0x04\n  dup1\n  sload\n  not(0xff)\n  and\n  swap1\n  sstore\n    /* \"Practical4-Tick-Tack-Toe-Jason.sol\":527:560  string public currentPlayer = \"X\" */\n  0x40\n  dup1\n  mload\n  dup1\n  dup3\n  add\n  swap1\n  swap2\n  mstore\n    /* \"Practical4-Tick-Tack-Toe-Jason.sol\":460:488  bool public activate = false */\n  0x01\n    /* \"Practical4-Tick-Tack-Toe-Jason.sol\":527:560  string public currentPlayer = \"X\" */\n  dup2\n  mstore\n  shl(0xfb, 0x0b)\n  0x20\n  dup3\n  add\n  mstore\n  0x05\n  swap1\n  tag_3\n  swap1\n  dup3\n  tag_4\n  jump\t// in\ntag_3:\n  pop\n    /* \"Practical4-Tick-Tack-Toe-Jason.sol\":588:851  uint[][] private winConditionSet=  ... */\n  0x40\n  dup1\n  mload\n  0x0160\n  dup2\n  add\n  dup3\n  mstore\n  0x00\n  0x0100\n  dup3\n  add\n  dup2\n  dup2\n  mstore\n    /* \"Practical4-Tick-Tack-Toe-Jason.sol\":634:635  1 */\n  0x01\n    /* \"Practical4-Tick-Tack-Toe-Jason.sol\":588:851  uint[][] private winConditionSet=  ... */\n  0x0120\n  dup5\n  add\n  dup2\n  swap1\n  mstore\n    /* \"Practical4-Tick-Tack-Toe-Jason.sol\":637:638  2 */\n  0x02\n    /* \"Practical4-Tick-Tack-Toe-Jason.sol\":588:851  uint[][] private winConditionSet=  ... */\n  0x0140\n  dup6\n  add\n  dup2\n  swap1\n  mstore\n  swap2\n  dup5\n  mstore\n  dup5\n  mload\n  0x60\n  dup2\n  dup2\n  add\n  dup8\n  mstore\n    /* \"Practical4-Tick-Tack-Toe-Jason.sol\":648:649  3 */\n  0x03\n    /* \"Practical4-Tick-Tack-Toe-Jason.sol\":588:851  uint[][] private winConditionSet=  ... */\n  dup1\n  dup4\n  mstore\n    /* \"Practical4-Tick-Tack-Toe-Jason.sol\":651:652  4 */\n  0x04\n    /* \"Practical4-Tick-Tack-Toe-Jason.sol\":588:851  uint[][] private winConditionSet=  ... */\n  0x20\n  dup5\n  dup2\n  add\n  dup3\n  swap1\n  mstore\n    /* \"Practical4-Tick-Tack-Toe-Jason.sol\":654:655  5 */\n  0x05\n    /* \"Practical4-Tick-Tack-Toe-Jason.sol\":588:851  uint[][] private winConditionSet=  ... */\n  dup6\n  dup12\n  add\n  dup2\n  swap1\n  mstore\n  dup2\n  dup11\n  add\n  swap6\n  swap1\n  swap6\n  mstore\n  dup10\n  mload\n  dup1\n  dup6\n  add\n  dup12\n  mstore\n    /* \"Practical4-Tick-Tack-Toe-Jason.sol\":693:694  6 */\n  0x06\n    /* \"Practical4-Tick-Tack-Toe-Jason.sol\":588:851  uint[][] private winConditionSet=  ... */\n  dup1\n  dup3\n  mstore\n    /* \"Practical4-Tick-Tack-Toe-Jason.sol\":696:697  7 */\n  0x07\n    /* \"Practical4-Tick-Tack-Toe-Jason.sol\":588:851  uint[][] private winConditionSet=  ... */\n  dup3\n  dup5\n  add\n  dup2\n  swap1\n  mstore\n    /* \"Practical4-Tick-Tack-Toe-Jason.sol\":699:700  8 */\n  0x08\n    /* \"Practical4-Tick-Tack-Toe-Jason.sol\":588:851  uint[][] private winConditionSet=  ... */\n  dup4\n  dup15\n  add\n  dup2\n  swap1\n  mstore\n  dup13\n  dup15\n  add\n  swap4\n  swap1\n  swap4\n  mstore\n  dup13\n  mload\n  dup1\n  dup9\n  add\n  dup15\n  mstore\n  dup12\n  dup2\n  mstore\n  dup1\n  dup6\n  add\n  swap7\n  swap1\n  swap7\n  mstore\n  dup6\n  dup14\n  add\n  dup3\n  swap1\n  mstore\n  dup7\n  dup13\n  add\n  swap6\n  swap1\n  swap6\n  mstore\n  dup12\n  mload\n  dup1\n  dup8\n  add\n  dup14\n  mstore\n  swap8\n  dup9\n  mstore\n  dup8\n  dup4\n  add\n  dup5\n  swap1\n  mstore\n  dup8\n  dup13\n  add\n  swap5\n  swap1\n  swap5\n  mstore\n  0x80\n  dup11\n  add\n  swap7\n  swap1\n  swap7\n  mstore\n  dup10\n  mload\n  dup1\n  dup6\n  add\n  dup12\n  mstore\n  dup8\n  dup2\n  mstore\n  dup1\n  dup3\n  add\n  swap6\n  swap1\n  swap6\n  mstore\n  dup5\n  dup11\n  add\n  dup7\n  swap1\n  mstore\n  0xa0\n  dup10\n  add\n  swap5\n  swap1\n  swap5\n  mstore\n  dup9\n  mload\n  dup1\n  dup5\n  add\n  dup11\n  mstore\n  swap7\n  dup8\n  mstore\n  dup7\n  dup5\n  add\n  dup2\n  swap1\n  mstore\n  dup7\n  dup10\n  add\n  dup6\n  swap1\n  mstore\n  0xc0\n  dup9\n  add\n  swap7\n  swap1\n  swap7\n  mstore\n  dup8\n  mload\n  swap2\n  dup3\n  add\n  dup9\n  mstore\n  swap4\n  dup2\n  mstore\n  swap1\n  dup2\n  add\n  swap4\n  swap1\n  swap4\n  mstore\n  swap4\n  dup3\n  add\n  dup2\n  swap1\n  mstore\n  0xe0\n  dup4\n  add\n  swap2\n  swap1\n  swap2\n  mstore\n  tag_5\n  swap3\n    /* \"Practical4-Tick-Tack-Toe-Jason.sol\":693:694  6 */\n  swap1\n  swap2\n    /* \"Practical4-Tick-Tack-Toe-Jason.sol\":588:851  uint[][] private winConditionSet=  ... */\n  swap1\n  tag_6\n  jump\t// in\ntag_5:\n  pop\n    /* \"Practical4-Tick-Tack-Toe-Jason.sol\":60:6247  contract TickTackToe{... */\n  callvalue\n  dup1\n  iszero\n  tag_7\n  jumpi\n  0x00\n  dup1\n  revert\ntag_7:\n  pop\n  jump(tag_48)\ntag_2:\n  dup3\n  dup1\n  sload\n  dup3\n  dup3\n  sstore\n  swap1\n  0x00\n  mstore\n  keccak256(0x00, 0x20)\n  swap1\n  dup2\n  add\n  swap3\n  dup3\n  iszero\n  tag_11\n  jumpi\n  swap2\n  0x20\n  mul\n  dup3\n  add\ntag_10:\n  dup3\n  dup2\n  gt\n  iszero\n  tag_11\n  jumpi\n  dup3\n  mload\n  dup3\n  swap1\n  tag_12\n  swap1\n  dup3\n  tag_4\n  jump\t// in\ntag_12:\n  pop\n  swap2\n  0x20\n  add\n  swap2\n  swap1\n  0x01\n  add\n  swap1\n  jump(tag_10)\ntag_11:\n  pop\n  tag_13\n  swap3\n  swap2\n  pop\n  tag_14\n  jump\t// in\ntag_13:\n  pop\n  swap1\n  jump\t// out\ntag_6:\n  dup3\n  dup1\n  sload\n  dup3\n  dup3\n  sstore\n  swap1\n  0x00\n  mstore\n  keccak256(0x00, 0x20)\n  swap1\n  dup2\n  add\n  swap3\n  dup3\n  iszero\n  tag_17\n  jumpi\n  swap2\n  0x20\n  mul\n  dup3\n  add\ntag_16:\n  dup3\n  dup2\n  gt\n  iszero\n  tag_17\n  jumpi\n  dup3\n  mload\n  tag_18\n  swap1\n  dup4\n  swap1\n  0x03\n  tag_19\n  jump\t// in\ntag_18:\n  pop\n  swap2\n  0x20\n  add\n  swap2\n  swap1\n  0x01\n  add\n  swap1\n  jump(tag_16)\ntag_17:\n  pop\n  tag_13\n  swap3\n  swap2\n  pop\n  tag_21\n  jump\t// in\ntag_14:\n  dup1\n  dup3\n  gt\n  iszero\n  tag_13\n  jumpi\n  0x00\n  tag_24\n  dup3\n  dup3\n  tag_25\n  jump\t// in\ntag_24:\n  pop\n  0x01\n  add\n  jump(tag_14)\ntag_19:\n  dup3\n  dup1\n  sload\n  dup3\n  dup3\n  sstore\n  swap1\n  0x00\n  mstore\n  keccak256(0x00, 0x20)\n  swap1\n  dup2\n  add\n  swap3\n  dup3\n  iszero\n  tag_28\n  jumpi\n  swap2\n  0x20\n  mul\n  dup3\n  add\ntag_27:\n  dup3\n  dup2\n  gt\n  iszero\n  tag_28\n  jumpi\n  dup3\n  mload\n  dup3\n  swap1\n  0xff\n  and\n  swap1\n  sstore\n  swap2\n  0x20\n  add\n  swap2\n  swap1\n  0x01\n  add\n  swap1\n  jump(tag_27)\ntag_28:\n  pop\n  tag_13\n  swap3\n  swap2\n  pop\n  tag_30\n  jump\t// in\ntag_21:\n  dup1\n  dup3\n  gt\n  iszero\n  tag_13\n  jumpi\n  0x00\n  tag_33\n  dup3\n  dup3\n  tag_34\n  jump\t// in\ntag_33:\n  pop\n  0x01\n  add\n  jump(tag_21)\ntag_25:\n  pop\n  dup1\n  sload\n  tag_35\n  swap1\n  tag_36\n  jump\t// in\ntag_35:\n  0x00\n  dup3\n  sstore\n  dup1\n  0x1f\n  lt\n  tag_38\n  jumpi\n  pop\n  pop\n  jump\t// out\ntag_38:\n  0x1f\n  add\n  0x20\n  swap1\n  div\n  swap1\n  0x00\n  mstore\n  keccak256(0x00, 0x20)\n  swap1\n  dup2\n  add\n  swap1\n  tag_39\n  swap2\n  swap1\n  tag_30\n  jump\t// in\ntag_39:\n  pop\n  jump\t// out\ntag_30:\ntag_40:\n  dup1\n  dup3\n  gt\n  iszero\n  tag_13\n  jumpi\n  0x00\n  dup2\n  sstore\n  0x01\n  add\n  jump(tag_40)\ntag_34:\n  pop\n  dup1\n  sload\n  0x00\n  dup3\n  sstore\n  swap1\n  0x00\n  mstore\n  keccak256(0x00, 0x20)\n  swap1\n  dup2\n  add\n  swap1\n  tag_39\n  swap2\n  swap1\n  tag_30\n  jump\t// in\n    /* \"#utility.yul\":14:141   */\ntag_44:\n    /* \"#utility.yul\":75:85   */\n  0x4e487b71\n    /* \"#utility.yul\":70:73   */\n  0xe0\n    /* \"#utility.yul\":66:86   */\n  shl\n    /* \"#utility.yul\":63:64   */\n  0x00\n    /* \"#utility.yul\":56:87   */\n  mstore\n    /* \"#utility.yul\":106:110   */\n  0x41\n    /* \"#utility.yul\":103:104   */\n  0x04\n    /* \"#utility.yul\":96:111   */\n  mstore\n    /* \"#utility.yul\":130:134   */\n  0x24\n    /* \"#utility.yul\":127:128   */\n  0x00\n    /* \"#utility.yul\":120:135   */\n  revert\n    /* \"#utility.yul\":146:526   */\ntag_36:\n    /* \"#utility.yul\":225:226   */\n  0x01\n    /* \"#utility.yul\":221:233   */\n  dup2\n  dup2\n  shr\n  swap1\n    /* \"#utility.yul\":268:280   */\n  dup3\n  and\n  dup1\n    /* \"#utility.yul\":289:350   */\n  tag_51\n  jumpi\n    /* \"#utility.yul\":343:347   */\n  0x7f\n    /* \"#utility.yul\":335:341   */\n  dup3\n    /* \"#utility.yul\":331:348   */\n  and\n    /* \"#utility.yul\":321:348   */\n  swap2\n  pop\n    /* \"#utility.yul\":289:350   */\ntag_51:\n    /* \"#utility.yul\":396:398   */\n  0x20\n    /* \"#utility.yul\":388:394   */\n  dup3\n    /* \"#utility.yul\":385:399   */\n  lt\n    /* \"#utility.yul\":365:383   */\n  dup2\n    /* \"#utility.yul\":362:400   */\n  sub\n    /* \"#utility.yul\":359:520   */\n  tag_52\n  jumpi\n    /* \"#utility.yul\":442:452   */\n  0x4e487b71\n    /* \"#utility.yul\":437:440   */\n  0xe0\n    /* \"#utility.yul\":433:453   */\n  shl\n    /* \"#utility.yul\":430:431   */\n  0x00\n    /* \"#utility.yul\":423:454   */\n  mstore\n    /* \"#utility.yul\":477:481   */\n  0x22\n    /* \"#utility.yul\":474:475   */\n  0x04\n    /* \"#utility.yul\":467:482   */\n  mstore\n    /* \"#utility.yul\":505:509   */\n  0x24\n    /* \"#utility.yul\":502:503   */\n  0x00\n    /* \"#utility.yul\":495:510   */\n  revert\n    /* \"#utility.yul\":359:520   */\ntag_52:\n  pop\n    /* \"#utility.yul\":146:526   */\n  swap2\n  swap1\n  pop\n  jump\t// out\n    /* \"#utility.yul\":657:1202   */\ntag_46:\n    /* \"#utility.yul\":759:761   */\n  0x1f\n    /* \"#utility.yul\":754:757   */\n  dup3\n    /* \"#utility.yul\":751:762   */\n  gt\n    /* \"#utility.yul\":748:1196   */\n  iszero\n  tag_55\n  jumpi\n    /* \"#utility.yul\":795:796   */\n  0x00\n    /* \"#utility.yul\":820:825   */\n  dup2\n    /* \"#utility.yul\":816:818   */\n  dup2\n    /* \"#utility.yul\":809:826   */\n  mstore\n    /* \"#utility.yul\":865:869   */\n  0x20\n    /* \"#utility.yul\":861:863   */\n  dup2\n    /* \"#utility.yul\":851:870   */\n  keccak256\n    /* \"#utility.yul\":935:937   */\n  0x1f\n    /* \"#utility.yul\":923:933   */\n  dup6\n    /* \"#utility.yul\":919:938   */\n  add\n    /* \"#utility.yul\":916:917   */\n  0x05\n    /* \"#utility.yul\":912:939   */\n  shr\n    /* \"#utility.yul\":906:910   */\n  dup2\n    /* \"#utility.yul\":902:940   */\n  add\n    /* \"#utility.yul\":971:975   */\n  0x20\n    /* \"#utility.yul\":959:969   */\n  dup7\n    /* \"#utility.yul\":956:976   */\n  lt\n    /* \"#utility.yul\":953:1000   */\n  iszero\n  tag_56\n  jumpi\n  pop\n    /* \"#utility.yul\":994:998   */\n  dup1\n    /* \"#utility.yul\":953:1000   */\ntag_56:\n    /* \"#utility.yul\":1049:1051   */\n  0x1f\n    /* \"#utility.yul\":1044:1047   */\n  dup6\n    /* \"#utility.yul\":1040:1052   */\n  add\n    /* \"#utility.yul\":1037:1038   */\n  0x05\n    /* \"#utility.yul\":1033:1053   */\n  shr\n    /* \"#utility.yul\":1027:1031   */\n  dup3\n    /* \"#utility.yul\":1023:1054   */\n  add\n    /* \"#utility.yul\":1013:1054   */\n  swap2\n  pop\n    /* \"#utility.yul\":1104:1186   */\ntag_57:\n    /* \"#utility.yul\":1122:1124   */\n  dup2\n    /* \"#utility.yul\":1115:1120   */\n  dup2\n    /* \"#utility.yul\":1112:1125   */\n  lt\n    /* \"#utility.yul\":1104:1186   */\n  iszero\n  tag_59\n  jumpi\n    /* \"#utility.yul\":1167:1184   */\n  dup3\n  dup2\n  sstore\n    /* \"#utility.yul\":1148:1149   */\n  0x01\n    /* \"#utility.yul\":1137:1150   */\n  add\n    /* \"#utility.yul\":1104:1186   */\n  jump(tag_57)\ntag_59:\n    /* \"#utility.yul\":1108:1111   */\n  pop\n  pop\n  pop\n    /* \"#utility.yul\":748:1196   */\ntag_55:\n    /* \"#utility.yul\":657:1202   */\n  pop\n  pop\n  pop\n  jump\t// out\n    /* \"#utility.yul\":1378:2730   */\ntag_4:\n    /* \"#utility.yul\":1498:1508   */\n  dup2\n  mload\n  sub(shl(0x40, 0x01), 0x01)\n    /* \"#utility.yul\":1520:1550   */\n  dup2\n  gt\n    /* \"#utility.yul\":1517:1573   */\n  iszero\n  tag_63\n  jumpi\n    /* \"#utility.yul\":1553:1571   */\n  tag_63\n  tag_44\n  jump\t// in\ntag_63:\n    /* \"#utility.yul\":1582:1679   */\n  tag_64\n    /* \"#utility.yul\":1672:1678   */\n  dup2\n    /* \"#utility.yul\":1632:1670   */\n  tag_65\n    /* \"#utility.yul\":1664:1668   */\n  dup5\n    /* \"#utility.yul\":1658:1669   */\n  sload\n    /* \"#utility.yul\":1632:1670   */\n  tag_36\n  jump\t// in\ntag_65:\n    /* \"#utility.yul\":1626:1630   */\n  dup5\n    /* \"#utility.yul\":1582:1679   */\n  tag_46\n  jump\t// in\ntag_64:\n    /* \"#utility.yul\":1734:1738   */\n  0x20\n  dup1\n    /* \"#utility.yul\":1798:1800   */\n  0x1f\n    /* \"#utility.yul\":1787:1801   */\n  dup4\n  gt\n    /* \"#utility.yul\":1815:1816   */\n  0x01\n    /* \"#utility.yul\":1810:2473   */\n  dup2\n  eq\n  tag_67\n  jumpi\n    /* \"#utility.yul\":2517:2518   */\n  0x00\n    /* \"#utility.yul\":2534:2540   */\n  dup5\n    /* \"#utility.yul\":2531:2620   */\n  iszero\n  tag_68\n  jumpi\n  pop\n    /* \"#utility.yul\":2586:2605   */\n  dup6\n  dup4\n  add\n    /* \"#utility.yul\":2580:2606   */\n  mload\n    /* \"#utility.yul\":2531:2620   */\ntag_68:\n  not(0x00)\n    /* \"#utility.yul\":1335:1336   */\n  0x03\n    /* \"#utility.yul\":1331:1342   */\n  dup7\n  swap1\n  shl\n    /* \"#utility.yul\":1327:1351   */\n  shr\n    /* \"#utility.yul\":1323:1352   */\n  not\n    /* \"#utility.yul\":1313:1353   */\n  and\n    /* \"#utility.yul\":1359:1360   */\n  0x01\n    /* \"#utility.yul\":1355:1366   */\n  dup6\n  swap1\n  shl\n    /* \"#utility.yul\":1310:1367   */\n  or\n    /* \"#utility.yul\":2633:2714   */\n  dup6\n  sstore\n    /* \"#utility.yul\":1780:2724   */\n  jump(tag_59)\n    /* \"#utility.yul\":1810:2473   */\ntag_67:\n    /* \"#utility.yul\":604:605   */\n  0x00\n    /* \"#utility.yul\":597:611   */\n  dup6\n  dup2\n  mstore\n    /* \"#utility.yul\":641:645   */\n  0x20\n    /* \"#utility.yul\":628:646   */\n  dup2\n  keccak256\n  not(0x1f)\n    /* \"#utility.yul\":1846:1866   */\n  dup7\n  and\n  swap2\n    /* \"#utility.yul\":1964:2200   */\ntag_71:\n    /* \"#utility.yul\":1978:1985   */\n  dup3\n    /* \"#utility.yul\":1975:1976   */\n  dup2\n    /* \"#utility.yul\":1972:1986   */\n  lt\n    /* \"#utility.yul\":1964:2200   */\n  iszero\n  tag_73\n  jumpi\n    /* \"#utility.yul\":2067:2086   */\n  dup9\n  dup7\n  add\n    /* \"#utility.yul\":2061:2087   */\n  mload\n    /* \"#utility.yul\":2046:2088   */\n  dup3\n  sstore\n    /* \"#utility.yul\":2159:2186   */\n  swap5\n  dup5\n  add\n  swap5\n    /* \"#utility.yul\":2127:2128   */\n  0x01\n    /* \"#utility.yul\":2115:2129   */\n  swap1\n  swap2\n  add\n  swap1\n    /* \"#utility.yul\":1994:2013   */\n  dup5\n  add\n    /* \"#utility.yul\":1964:2200   */\n  jump(tag_71)\ntag_73:\n    /* \"#utility.yul\":1968:1971   */\n  pop\n    /* \"#utility.yul\":2228:2234   */\n  dup6\n    /* \"#utility.yul\":2219:2226   */\n  dup3\n    /* \"#utility.yul\":2216:2235   */\n  lt\n    /* \"#utility.yul\":2213:2414   */\n  iszero\n  tag_74\n  jumpi\n    /* \"#utility.yul\":2289:2308   */\n  dup8\n  dup6\n  add\n    /* \"#utility.yul\":2283:2309   */\n  mload\n  not(0x00)\n    /* \"#utility.yul\":2372:2373   */\n  0x03\n    /* \"#utility.yul\":2368:2382   */\n  dup9\n  swap1\n  shl\n    /* \"#utility.yul\":2384:2387   */\n  0xf8\n    /* \"#utility.yul\":2364:2388   */\n  and\n    /* \"#utility.yul\":2360:2397   */\n  shr\n    /* \"#utility.yul\":2356:2398   */\n  not\n    /* \"#utility.yul\":2341:2399   */\n  and\n    /* \"#utility.yul\":2326:2400   */\n  dup2\n  sstore\n    /* \"#utility.yul\":2213:2414   */\ntag_74:\n  pop\n  pop\n  pop\n  pop\n  pop\n    /* \"#utility.yul\":2460:2461   */\n  0x01\n    /* \"#utility.yul\":2444:2458   */\n  swap1\n  dup2\n  shl\n    /* \"#utility.yul\":2440:2462   */\n  add\n    /* \"#utility.yul\":2427:2463   */\n  swap1\n  sstore\n  pop\n    /* \"#utility.yul\":1378:2730   */\n  jump\t// out\ntag_48:\n    /* \"Practical4-Tick-Tack-Toe-Jason.sol\":60:6247  contract TickTackToe{... */\n  dataSize(sub_0)\n  dup1\n  dataOffset(sub_0)\n  0x00\n  codecopy\n  0x00\n  return\nstop\n\nsub_0: assembly {\n        /* \"Practical4-Tick-Tack-Toe-Jason.sol\":60:6247  contract TickTackToe{... */\n      mstore(0x40, 0x80)\n      callvalue\n      dup1\n      iszero\n      tag_1\n      jumpi\n      0x00\n      dup1\n      revert\n    tag_1:\n      pop\n      jumpi(tag_2, lt(calldatasize, 0x04))\n      shr(0xe0, calldataload(0x00))\n      dup1\n      0x55a5c301\n      gt\n      tag_14\n      jumpi\n      dup1\n      0x55a5c301\n      eq\n      tag_8\n      jumpi\n      dup1\n      0x63f4150e\n      eq\n      tag_9\n      jumpi\n      dup1\n      0x7d39620b\n      eq\n      tag_10\n      jumpi\n      dup1\n      0x8d25af04\n      eq\n      tag_11\n      jumpi\n      dup1\n      0xbed34bba\n      eq\n      tag_12\n      jumpi\n      dup1\n      0xd4f77b1c\n      eq\n      tag_13\n      jumpi\n      0x00\n      dup1\n      revert\n    tag_14:\n      dup1\n      0x0f15f4c0\n      eq\n      tag_3\n      jumpi\n      dup1\n      0x302bcc57\n      eq\n      tag_4\n      jumpi\n      dup1\n      0x409e2205\n      eq\n      tag_5\n      jumpi\n      dup1\n      0x4404a438\n      eq\n      tag_6\n      jumpi\n      dup1\n      0x52fc4855\n      eq\n      tag_7\n      jumpi\n    tag_2:\n      0x00\n      dup1\n      revert\n        /* \"Practical4-Tick-Tack-Toe-Jason.sol\":460:488  bool public activate = false */\n    tag_3:\n      sload(0x04)\n      tag_15\n      swap1\n      0xff\n      and\n      dup2\n      jump\n    tag_15:\n      mload(0x40)\n        /* \"#utility.yul\":179:193   */\n      swap1\n      iszero\n        /* \"#utility.yul\":172:194   */\n      iszero\n        /* \"#utility.yul\":154:195   */\n      dup2\n      mstore\n        /* \"#utility.yul\":142:144   */\n      0x20\n        /* \"#utility.yul\":127:145   */\n      add\n        /* \"Practical4-Tick-Tack-Toe-Jason.sol\":460:488  bool public activate = false */\n    tag_17:\n      mload(0x40)\n      dup1\n      swap2\n      sub\n      swap1\n      return\n        /* \"Practical4-Tick-Tack-Toe-Jason.sol\":230:257  uint public playerCount = 0 */\n    tag_4:\n      tag_19\n      sload(0x02)\n      dup2\n      jump\n    tag_19:\n      mload(0x40)\n        /* \"#utility.yul\":352:377   */\n      swap1\n      dup2\n      mstore\n        /* \"#utility.yul\":340:342   */\n      0x20\n        /* \"#utility.yul\":325:343   */\n      add\n        /* \"Practical4-Tick-Tack-Toe-Jason.sol\":230:257  uint public playerCount = 0 */\n      tag_17\n        /* \"#utility.yul\":206:383   */\n      jump\n        /* \"Practical4-Tick-Tack-Toe-Jason.sol\":359:421  string[] public options = [\"\", \"\", \"\", \"\", \"\", \"\", \"\", \"\", \"\"] */\n    tag_5:\n      tag_23\n      tag_24\n      calldatasize\n      0x04\n      tag_25\n      jump\t// in\n    tag_24:\n      tag_26\n      jump\t// in\n    tag_23:\n      mload(0x40)\n      tag_17\n      swap2\n      swap1\n      tag_28\n      jump\t// in\n        /* \"Practical4-Tick-Tack-Toe-Jason.sol\":527:560  string public currentPlayer = \"X\" */\n    tag_6:\n      tag_23\n      tag_30\n      jump\t// in\n        /* \"Practical4-Tick-Tack-Toe-Jason.sol\":2339:3043  function userInput(uint input) external {... */\n    tag_7:\n      tag_32\n      tag_33\n      calldatasize\n      0x04\n      tag_25\n      jump\t// in\n    tag_33:\n      tag_34\n      jump\t// in\n    tag_32:\n      stop\n        /* \"Practical4-Tick-Tack-Toe-Jason.sol\":112:141  address public player1address */\n    tag_8:\n      sload(0x00)\n      tag_35\n      swap1\n      sub(shl(0xa0, 0x01), 0x01)\n      and\n      dup2\n      jump\n    tag_35:\n      mload(0x40)\n      sub(shl(0xa0, 0x01), 0x01)\n        /* \"#utility.yul\":1493:1525   */\n      swap1\n      swap2\n      and\n        /* \"#utility.yul\":1475:1526   */\n      dup2\n      mstore\n        /* \"#utility.yul\":1463:1465   */\n      0x20\n        /* \"#utility.yul\":1448:1466   */\n      add\n        /* \"Practical4-Tick-Tack-Toe-Jason.sol\":112:141  address public player1address */\n      tag_17\n        /* \"#utility.yul\":1329:1532   */\n      jump\n        /* \"Practical4-Tick-Tack-Toe-Jason.sol\":1354:1448  function getoption () external view returns (string[] memory){... */\n    tag_9:\n      tag_39\n      tag_40\n      jump\t// in\n    tag_39:\n      mload(0x40)\n      tag_17\n      swap2\n      swap1\n      tag_42\n      jump\t// in\n        /* \"Practical4-Tick-Tack-Toe-Jason.sol\":171:200  address public player2address */\n    tag_10:\n      sload(0x01)\n      tag_35\n      swap1\n      sub(shl(0xa0, 0x01), 0x01)\n      and\n      dup2\n      jump\n        /* \"Practical4-Tick-Tack-Toe-Jason.sol\":5950:6242  function restartGame() public {... */\n    tag_11:\n      tag_32\n      tag_47\n      jump\t// in\n        /* \"Practical4-Tick-Tack-Toe-Jason.sol\":5658:5905  function compareStrings(string memory a, string memory b) public pure returns (bool) {... */\n    tag_12:\n      tag_15\n      tag_49\n      calldatasize\n      0x04\n      tag_50\n      jump\t// in\n    tag_49:\n      tag_51\n      jump\t// in\n        /* \"Practical4-Tick-Tack-Toe-Jason.sol\":1475:2233  function joinGame () external {... */\n    tag_13:\n      tag_32\n      tag_54\n      jump\t// in\n        /* \"Practical4-Tick-Tack-Toe-Jason.sol\":359:421  string[] public options = [\"\", \"\", \"\", \"\", \"\", \"\", \"\", \"\", \"\"] */\n    tag_26:\n      0x03\n      dup2\n      dup2\n      sload\n      dup2\n      lt\n      tag_55\n      jumpi\n      0x00\n      dup1\n      revert\n    tag_55:\n      swap1\n      0x00\n      mstore\n      keccak256(0x00, 0x20)\n      add\n      0x00\n      swap2\n      pop\n      swap1\n      pop\n      dup1\n      sload\n      tag_57\n      swap1\n      tag_58\n      jump\t// in\n    tag_57:\n      dup1\n      0x1f\n      add\n      0x20\n      dup1\n      swap2\n      div\n      mul\n      0x20\n      add\n      mload(0x40)\n      swap1\n      dup2\n      add\n      0x40\n      mstore\n      dup1\n      swap3\n      swap2\n      swap1\n      dup2\n      dup2\n      mstore\n      0x20\n      add\n      dup3\n      dup1\n      sload\n      tag_59\n      swap1\n      tag_58\n      jump\t// in\n    tag_59:\n      dup1\n      iszero\n      tag_60\n      jumpi\n      dup1\n      0x1f\n      lt\n      tag_61\n      jumpi\n      0x0100\n      dup1\n      dup4\n      sload\n      div\n      mul\n      dup4\n      mstore\n      swap2\n      0x20\n      add\n      swap2\n      jump(tag_60)\n    tag_61:\n      dup3\n      add\n      swap2\n      swap1\n      0x00\n      mstore\n      keccak256(0x00, 0x20)\n      swap1\n    tag_62:\n      dup2\n      sload\n      dup2\n      mstore\n      swap1\n      0x01\n      add\n      swap1\n      0x20\n      add\n      dup1\n      dup4\n      gt\n      tag_62\n      jumpi\n      dup3\n      swap1\n      sub\n      0x1f\n      and\n      dup3\n      add\n      swap2\n    tag_60:\n      pop\n      pop\n      pop\n      pop\n      pop\n      dup2\n      jump\t// out\n        /* \"Practical4-Tick-Tack-Toe-Jason.sol\":527:560  string public currentPlayer = \"X\" */\n    tag_30:\n      0x05\n      dup1\n      sload\n      tag_57\n      swap1\n      tag_58\n      jump\t// in\n        /* \"Practical4-Tick-Tack-Toe-Jason.sol\":2339:3043  function userInput(uint input) external {... */\n    tag_34:\n        /* \"Practical4-Tick-Tack-Toe-Jason.sol\":2398:2406  activate */\n      and(0xff, sload(0x04))\n        /* \"Practical4-Tick-Tack-Toe-Jason.sol\":2390:2438  require(activate,\"The game still not start yet\") */\n      tag_69\n      jumpi\n      mload(0x40)\n      shl(0xe5, 0x461bcd)\n      dup2\n      mstore\n        /* \"#utility.yul\":4336:4338   */\n      0x20\n        /* \"Practical4-Tick-Tack-Toe-Jason.sol\":2390:2438  require(activate,\"The game still not start yet\") */\n      0x04\n      dup3\n      add\n        /* \"#utility.yul\":4318:4339   */\n      mstore\n        /* \"#utility.yul\":4375:4377   */\n      0x1c\n        /* \"#utility.yul\":4355:4373   */\n      0x24\n      dup3\n      add\n        /* \"#utility.yul\":4348:4378   */\n      mstore\n        /* \"#utility.yul\":4414:4444   */\n      0x5468652067616d65207374696c6c206e6f742073746172742079657400000000\n        /* \"#utility.yul\":4394:4412   */\n      0x44\n      dup3\n      add\n        /* \"#utility.yul\":4387:4445   */\n      mstore\n        /* \"#utility.yul\":4462:4480   */\n      0x64\n      add\n        /* \"Practical4-Tick-Tack-Toe-Jason.sol\":2390:2438  require(activate,\"The game still not start yet\") */\n    tag_70:\n      mload(0x40)\n      dup1\n      swap2\n      sub\n      swap1\n      revert\n    tag_69:\n        /* \"Practical4-Tick-Tack-Toe-Jason.sol\":2487:2520  compareStrings(options[input],\"\") */\n      tag_72\n        /* \"Practical4-Tick-Tack-Toe-Jason.sol\":2502:2509  options */\n      0x03\n        /* \"Practical4-Tick-Tack-Toe-Jason.sol\":2510:2515  input */\n      dup3\n        /* \"Practical4-Tick-Tack-Toe-Jason.sol\":2502:2516  options[input] */\n      dup2\n      sload\n      dup2\n      lt\n      tag_74\n      jumpi\n      tag_74\n      tag_75\n      jump\t// in\n    tag_74:\n      swap1\n      0x00\n      mstore\n      keccak256(0x00, 0x20)\n      add\n        /* \"Practical4-Tick-Tack-Toe-Jason.sol\":2487:2520  compareStrings(options[input],\"\") */\n      dup1\n      sload\n      tag_77\n      swap1\n      tag_58\n      jump\t// in\n    tag_77:\n      dup1\n      0x1f\n      add\n      0x20\n      dup1\n      swap2\n      div\n      mul\n      0x20\n      add\n      mload(0x40)\n      swap1\n      dup2\n      add\n      0x40\n      mstore\n      dup1\n      swap3\n      swap2\n      swap1\n      dup2\n      dup2\n      mstore\n      0x20\n      add\n      dup3\n      dup1\n      sload\n      tag_78\n      swap1\n      tag_58\n      jump\t// in\n    tag_78:\n      dup1\n      iszero\n      tag_79\n      jumpi\n      dup1\n      0x1f\n      lt\n      tag_80\n      jumpi\n      0x0100\n      dup1\n      dup4\n      sload\n      div\n      mul\n      dup4\n      mstore\n      swap2\n      0x20\n      add\n      swap2\n      jump(tag_79)\n    tag_80:\n      dup3\n      add\n      swap2\n      swap1\n      0x00\n      mstore\n      keccak256(0x00, 0x20)\n      swap1\n    tag_81:\n      dup2\n      sload\n      dup2\n      mstore\n      swap1\n      0x01\n      add\n      swap1\n      0x20\n      add\n      dup1\n      dup4\n      gt\n      tag_81\n      jumpi\n      dup3\n      swap1\n      sub\n      0x1f\n      and\n      dup3\n      add\n      swap2\n    tag_79:\n      pop\n      pop\n      pop\n      pop\n      pop\n      mload(0x40)\n      dup1\n      0x20\n      add\n      0x40\n      mstore\n      dup1\n      0x00\n      dup2\n      mstore\n      pop\n        /* \"Practical4-Tick-Tack-Toe-Jason.sol\":2487:2501  compareStrings */\n      tag_51\n        /* \"Practical4-Tick-Tack-Toe-Jason.sol\":2487:2520  compareStrings(options[input],\"\") */\n      jump\t// in\n    tag_72:\n        /* \"Practical4-Tick-Tack-Toe-Jason.sol\":2479:2537  require(compareStrings(options[input],\"\"),\"Invalid input\") */\n      tag_82\n      jumpi\n      mload(0x40)\n      shl(0xe5, 0x461bcd)\n      dup2\n      mstore\n        /* \"#utility.yul\":4825:4827   */\n      0x20\n        /* \"Practical4-Tick-Tack-Toe-Jason.sol\":2479:2537  require(compareStrings(options[input],\"\"),\"Invalid input\") */\n      0x04\n      dup3\n      add\n        /* \"#utility.yul\":4807:4828   */\n      mstore\n        /* \"#utility.yul\":4864:4866   */\n      0x0d\n        /* \"#utility.yul\":4844:4862   */\n      0x24\n      dup3\n      add\n        /* \"#utility.yul\":4837:4867   */\n      mstore\n      shl(0x9a, 0x125b9d985b1a59081a5b9c1d5d)\n        /* \"#utility.yul\":4883:4901   */\n      0x44\n      dup3\n      add\n        /* \"#utility.yul\":4876:4919   */\n      mstore\n        /* \"#utility.yul\":4936:4954   */\n      0x64\n      add\n        /* \"Practical4-Tick-Tack-Toe-Jason.sol\":2479:2537  require(compareStrings(options[input],\"\"),\"Invalid input\") */\n      tag_70\n        /* \"#utility.yul\":4623:4960   */\n      jump\n        /* \"Practical4-Tick-Tack-Toe-Jason.sol\":2479:2537  require(compareStrings(options[input],\"\"),\"Invalid input\") */\n    tag_82:\n        /* \"Practical4-Tick-Tack-Toe-Jason.sol\":2593:2627  compareStrings(currentPlayer, \"X\") */\n      tag_85\n        /* \"Practical4-Tick-Tack-Toe-Jason.sol\":2608:2621  currentPlayer */\n      0x05\n        /* \"Practical4-Tick-Tack-Toe-Jason.sol\":2593:2627  compareStrings(currentPlayer, \"X\") */\n      dup1\n      sload\n      tag_86\n      swap1\n      tag_58\n      jump\t// in\n    tag_86:\n      dup1\n      0x1f\n      add\n      0x20\n      dup1\n      swap2\n      div\n      mul\n      0x20\n      add\n      mload(0x40)\n      swap1\n      dup2\n      add\n      0x40\n      mstore\n      dup1\n      swap3\n      swap2\n      swap1\n      dup2\n      dup2\n      mstore\n      0x20\n      add\n      dup3\n      dup1\n      sload\n      tag_87\n      swap1\n      tag_58\n      jump\t// in\n    tag_87:\n      dup1\n      iszero\n      tag_88\n      jumpi\n      dup1\n      0x1f\n      lt\n      tag_89\n      jumpi\n      0x0100\n      dup1\n      dup4\n      sload\n      div\n      mul\n      dup4\n      mstore\n      swap2\n      0x20\n      add\n      swap2\n      jump(tag_88)\n    tag_89:\n      dup3\n      add\n      swap2\n      swap1\n      0x00\n      mstore\n      keccak256(0x00, 0x20)\n      swap1\n    tag_90:\n      dup2\n      sload\n      dup2\n      mstore\n      swap1\n      0x01\n      add\n      swap1\n      0x20\n      add\n      dup1\n      dup4\n      gt\n      tag_90\n      jumpi\n      dup3\n      swap1\n      sub\n      0x1f\n      and\n      dup3\n      add\n      swap2\n    tag_88:\n      pop\n      pop\n      pop\n      pop\n      pop\n      mload(0x40)\n      dup1\n      0x40\n      add\n      0x40\n      mstore\n      dup1\n      0x01\n      dup2\n      mstore\n      0x20\n      add\n      shl(0xfb, 0x0b)\n      dup2\n      mstore\n      pop\n        /* \"Practical4-Tick-Tack-Toe-Jason.sol\":2593:2607  compareStrings */\n      tag_51\n        /* \"Practical4-Tick-Tack-Toe-Jason.sol\":2593:2627  compareStrings(currentPlayer, \"X\") */\n      jump\t// in\n    tag_85:\n        /* \"Practical4-Tick-Tack-Toe-Jason.sol\":2590:2806  if(compareStrings(currentPlayer, \"X\")){... */\n      iszero\n      tag_91\n      jumpi\n        /* \"Practical4-Tick-Tack-Toe-Jason.sol\":2665:2679  player1address */\n      and(sub(shl(0xa0, 0x01), 0x01), sload(0x00))\n        /* \"Practical4-Tick-Tack-Toe-Jason.sol\":2651:2661  msg.sender */\n      caller\n        /* \"Practical4-Tick-Tack-Toe-Jason.sol\":2651:2679  msg.sender == player1address */\n      eq\n        /* \"Practical4-Tick-Tack-Toe-Jason.sol\":2643:2703  require(msg.sender == player1address,\"You are not player 1\") */\n      tag_92\n      jumpi\n      mload(0x40)\n      shl(0xe5, 0x461bcd)\n      dup2\n      mstore\n        /* \"#utility.yul\":5167:5169   */\n      0x20\n        /* \"Practical4-Tick-Tack-Toe-Jason.sol\":2643:2703  require(msg.sender == player1address,\"You are not player 1\") */\n      0x04\n      dup3\n      add\n        /* \"#utility.yul\":5149:5170   */\n      mstore\n        /* \"#utility.yul\":5206:5208   */\n      0x14\n        /* \"#utility.yul\":5186:5204   */\n      0x24\n      dup3\n      add\n        /* \"#utility.yul\":5179:5209   */\n      mstore\n      shl(0x60, 0x596f7520617265206e6f7420706c617965722031)\n        /* \"#utility.yul\":5225:5243   */\n      0x44\n      dup3\n      add\n        /* \"#utility.yul\":5218:5268   */\n      mstore\n        /* \"#utility.yul\":5285:5303   */\n      0x64\n      add\n        /* \"Practical4-Tick-Tack-Toe-Jason.sol\":2643:2703  require(msg.sender == player1address,\"You are not player 1\") */\n      tag_70\n        /* \"#utility.yul\":4965:5309   */\n      jump\n        /* \"Practical4-Tick-Tack-Toe-Jason.sol\":2643:2703  require(msg.sender == player1address,\"You are not player 1\") */\n    tag_92:\n        /* \"Practical4-Tick-Tack-Toe-Jason.sol\":2590:2806  if(compareStrings(currentPlayer, \"X\")){... */\n      jump(tag_96)\n    tag_91:\n        /* \"Practical4-Tick-Tack-Toe-Jason.sol\":2756:2770  player2address */\n      and(sub(shl(0xa0, 0x01), 0x01), sload(0x01))\n        /* \"Practical4-Tick-Tack-Toe-Jason.sol\":2742:2752  msg.sender */\n      caller\n        /* \"Practical4-Tick-Tack-Toe-Jason.sol\":2742:2770  msg.sender == player2address */\n      eq\n        /* \"Practical4-Tick-Tack-Toe-Jason.sol\":2734:2794  require(msg.sender == player2address,\"You are not player 2\") */\n      tag_96\n      jumpi\n      mload(0x40)\n      shl(0xe5, 0x461bcd)\n      dup2\n      mstore\n        /* \"#utility.yul\":5516:5518   */\n      0x20\n        /* \"Practical4-Tick-Tack-Toe-Jason.sol\":2734:2794  require(msg.sender == player2address,\"You are not player 2\") */\n      0x04\n      dup3\n      add\n        /* \"#utility.yul\":5498:5519   */\n      mstore\n        /* \"#utility.yul\":5555:5557   */\n      0x14\n        /* \"#utility.yul\":5535:5553   */\n      0x24\n      dup3\n      add\n        /* \"#utility.yul\":5528:5558   */\n      mstore\n      shl(0x61, 0x2cb7ba9030b932903737ba10383630bcb2b91019)\n        /* \"#utility.yul\":5574:5592   */\n      0x44\n      dup3\n      add\n        /* \"#utility.yul\":5567:5617   */\n      mstore\n        /* \"#utility.yul\":5634:5652   */\n      0x64\n      add\n        /* \"Practical4-Tick-Tack-Toe-Jason.sol\":2734:2794  require(msg.sender == player2address,\"You are not player 2\") */\n      tag_70\n        /* \"#utility.yul\":5314:5658   */\n      jump\n        /* \"Practical4-Tick-Tack-Toe-Jason.sol\":2734:2794  require(msg.sender == player2address,\"You are not player 2\") */\n    tag_96:\n        /* \"Practical4-Tick-Tack-Toe-Jason.sol\":2843:2856  currentPlayer */\n      0x05\n        /* \"Practical4-Tick-Tack-Toe-Jason.sol\":2826:2833  options */\n      0x03\n        /* \"Practical4-Tick-Tack-Toe-Jason.sol\":2834:2839  input */\n      dup3\n        /* \"Practical4-Tick-Tack-Toe-Jason.sol\":2826:2840  options[input] */\n      dup2\n      sload\n      dup2\n      lt\n      tag_100\n      jumpi\n      tag_100\n      tag_75\n      jump\t// in\n    tag_100:\n      swap1\n      0x00\n      mstore\n      keccak256(0x00, 0x20)\n      add\n        /* \"Practical4-Tick-Tack-Toe-Jason.sol\":2826:2856  options[input] = currentPlayer */\n      swap1\n      dup2\n      tag_102\n      swap2\n      swap1\n      tag_103\n      jump\t// in\n    tag_102:\n      pop\n        /* \"Practical4-Tick-Tack-Toe-Jason.sol\":2916:2933  updateUI(options) */\n      0xd77f94cc29111f7dbd8555e9587fc989a0cf9fa417821f33e2f02913794bebb0\n        /* \"Practical4-Tick-Tack-Toe-Jason.sol\":2925:2932  options */\n      0x03\n        /* \"Practical4-Tick-Tack-Toe-Jason.sol\":2916:2933  updateUI(options) */\n      mload(0x40)\n      tag_104\n      swap2\n      swap1\n      tag_105\n      jump\t// in\n    tag_104:\n      mload(0x40)\n      dup1\n      swap2\n      sub\n      swap1\n      log1\n        /* \"Practical4-Tick-Tack-Toe-Jason.sol\":2979:2992  checkWinner() */\n      tag_106\n        /* \"Practical4-Tick-Tack-Toe-Jason.sol\":2979:2990  checkWinner */\n      tag_107\n        /* \"Practical4-Tick-Tack-Toe-Jason.sol\":2979:2992  checkWinner() */\n      jump\t// in\n    tag_106:\n        /* \"Practical4-Tick-Tack-Toe-Jason.sol\":2339:3043  function userInput(uint input) external {... */\n      pop\n      jump\t// out\n        /* \"Practical4-Tick-Tack-Toe-Jason.sol\":1354:1448  function getoption () external view returns (string[] memory){... */\n    tag_40:\n        /* \"Practical4-Tick-Tack-Toe-Jason.sol\":1399:1414  string[] memory */\n      0x60\n        /* \"Practical4-Tick-Tack-Toe-Jason.sol\":1433:1440  options */\n      0x03\n        /* \"Practical4-Tick-Tack-Toe-Jason.sol\":1426:1440  return options */\n      dup1\n      sload\n      dup1\n      0x20\n      mul\n      0x20\n      add\n      mload(0x40)\n      swap1\n      dup2\n      add\n      0x40\n      mstore\n      dup1\n      swap3\n      swap2\n      swap1\n      dup2\n      dup2\n      mstore\n      0x20\n      add\n      0x00\n      swap1\n    tag_109:\n      dup3\n      dup3\n      lt\n      iszero\n      tag_110\n      jumpi\n      dup4\n      dup3\n      swap1\n      0x00\n      mstore\n      keccak256(0x00, 0x20)\n      add\n      dup1\n      sload\n      tag_112\n      swap1\n      tag_58\n      jump\t// in\n    tag_112:\n      dup1\n      0x1f\n      add\n      0x20\n      dup1\n      swap2\n      div\n      mul\n      0x20\n      add\n      mload(0x40)\n      swap1\n      dup2\n      add\n      0x40\n      mstore\n      dup1\n      swap3\n      swap2\n      swap1\n      dup2\n      dup2\n      mstore\n      0x20\n      add\n      dup3\n      dup1\n      sload\n      tag_113\n      swap1\n      tag_58\n      jump\t// in\n    tag_113:\n      dup1\n      iszero\n      tag_114\n      jumpi\n      dup1\n      0x1f\n      lt\n      tag_115\n      jumpi\n      0x0100\n      dup1\n      dup4\n      sload\n      div\n      mul\n      dup4\n      mstore\n      swap2\n      0x20\n      add\n      swap2\n      jump(tag_114)\n    tag_115:\n      dup3\n      add\n      swap2\n      swap1\n      0x00\n      mstore\n      keccak256(0x00, 0x20)\n      swap1\n    tag_116:\n      dup2\n      sload\n      dup2\n      mstore\n      swap1\n      0x01\n      add\n      swap1\n      0x20\n      add\n      dup1\n      dup4\n      gt\n      tag_116\n      jumpi\n      dup3\n      swap1\n      sub\n      0x1f\n      and\n      dup3\n      add\n      swap2\n    tag_114:\n      pop\n      pop\n      pop\n      pop\n      pop\n      dup2\n      mstore\n      0x20\n      add\n      swap1\n      0x01\n      add\n      swap1\n      jump(tag_109)\n    tag_110:\n      pop\n      pop\n      pop\n      pop\n      swap1\n      pop\n        /* \"Practical4-Tick-Tack-Toe-Jason.sol\":1354:1448  function getoption () external view returns (string[] memory){... */\n      swap1\n      jump\t// out\n        /* \"Practical4-Tick-Tack-Toe-Jason.sol\":5950:6242  function restartGame() public {... */\n    tag_47:\n        /* \"Practical4-Tick-Tack-Toe-Jason.sol\":5991:6010  currentPlayer = \"X\" */\n      0x40\n      dup1\n      mload\n      dup1\n      dup3\n      add\n      swap1\n      swap2\n      mstore\n      0x01\n      dup2\n      mstore\n      shl(0xfb, 0x0b)\n      0x20\n      dup3\n      add\n      mstore\n        /* \"Practical4-Tick-Tack-Toe-Jason.sol\":5991:6004  currentPlayer */\n      0x05\n      swap1\n        /* \"Practical4-Tick-Tack-Toe-Jason.sol\":5991:6010  currentPlayer = \"X\" */\n      tag_118\n      swap1\n        /* \"Practical4-Tick-Tack-Toe-Jason.sol\":5991:6004  currentPlayer */\n      dup3\n        /* \"Practical4-Tick-Tack-Toe-Jason.sol\":5991:6010  currentPlayer = \"X\" */\n      tag_119\n      jump\t// in\n    tag_118:\n      pop\n        /* \"Practical4-Tick-Tack-Toe-Jason.sol\":6021:6067  options = [\"\", \"\", \"\", \"\", \"\", \"\", \"\", \"\", \"\"] */\n      0x40\n      dup1\n      mload\n      0x0140\n      dup2\n      add\n      dup3\n      mstore\n      0x00\n      0x0120\n      dup3\n      add\n      dup2\n      dup2\n      mstore\n      dup3\n      mstore\n      dup3\n      mload\n      0x20\n      dup2\n      dup2\n      add\n      dup6\n      mstore\n      dup3\n      dup3\n      mstore\n      dup1\n      dup5\n      add\n      swap2\n      swap1\n      swap2\n      mstore\n      dup4\n      mload\n      dup1\n      dup3\n      add\n      dup6\n      mstore\n      dup3\n      dup2\n      mstore\n      dup4\n      dup6\n      add\n      mstore\n      dup4\n      mload\n      dup1\n      dup3\n      add\n      dup6\n      mstore\n      dup3\n      dup2\n      mstore\n      0x60\n      dup5\n      add\n      mstore\n      dup4\n      mload\n      dup1\n      dup3\n      add\n      dup6\n      mstore\n      dup3\n      dup2\n      mstore\n      0x80\n      dup5\n      add\n      mstore\n      dup4\n      mload\n      dup1\n      dup3\n      add\n      dup6\n      mstore\n      dup3\n      dup2\n      mstore\n      0xa0\n      dup5\n      add\n      mstore\n      dup4\n      mload\n      dup1\n      dup3\n      add\n      dup6\n      mstore\n      dup3\n      dup2\n      mstore\n      0xc0\n      dup5\n      add\n      mstore\n      dup4\n      mload\n      dup1\n      dup3\n      add\n      dup6\n      mstore\n      dup3\n      dup2\n      mstore\n      0xe0\n      dup5\n      add\n      mstore\n      dup4\n      mload\n      swap1\n      dup2\n      add\n      swap1\n      swap4\n      mstore\n      dup3\n      mstore\n      0x0100\n      dup2\n      add\n      swap2\n      swap1\n      swap2\n      mstore\n      tag_120\n      swap1\n        /* \"Practical4-Tick-Tack-Toe-Jason.sol\":6021:6028  options */\n      0x03\n      swap1\n        /* \"Practical4-Tick-Tack-Toe-Jason.sol\":6021:6067  options = [\"\", \"\", \"\", \"\", \"\", \"\", \"\", \"\", \"\"] */\n      0x09\n      tag_121\n      jump\t// in\n    tag_120:\n      pop\n        /* \"Practical4-Tick-Tack-Toe-Jason.sol\":6083:6105  resetUI(currentPlayer) */\n      0x12028463284aa79a2cec858ff157451112ecff237cda43248ebb797c814f661c\n        /* \"Practical4-Tick-Tack-Toe-Jason.sol\":6091:6104  currentPlayer */\n      0x05\n        /* \"Practical4-Tick-Tack-Toe-Jason.sol\":6083:6105  resetUI(currentPlayer) */\n      mload(0x40)\n      tag_122\n      swap2\n      swap1\n      tag_123\n      jump\t// in\n    tag_122:\n      mload(0x40)\n      dup1\n      swap2\n      sub\n      swap1\n      log1\n        /* \"Practical4-Tick-Tack-Toe-Jason.sol\":6130:6131  0 */\n      0x00\n        /* \"Practical4-Tick-Tack-Toe-Jason.sol\":6116:6127  playerCount */\n      0x02\n        /* \"Practical4-Tick-Tack-Toe-Jason.sol\":6116:6131  playerCount = 0 */\n      dup2\n      swap1\n      sstore\n        /* \"Practical4-Tick-Tack-Toe-Jason.sol\":6142:6150  activate */\n      0x04\n        /* \"Practical4-Tick-Tack-Toe-Jason.sol\":6142:6158  activate = false */\n      dup1\n      sload\n      not(0xff)\n      and\n      swap1\n      sstore\n        /* \"Practical4-Tick-Tack-Toe-Jason.sol\":6169:6196  player1address = address(0) */\n      dup1\n      sload\n      not(sub(shl(0xa0, 0x01), 0x01))\n      swap1\n      dup2\n      and\n      swap1\n      swap2\n      sstore\n        /* \"Practical4-Tick-Tack-Toe-Jason.sol\":6142:6158  activate = false */\n      0x01\n        /* \"Practical4-Tick-Tack-Toe-Jason.sol\":6207:6234  player2address = address(0) */\n      dup1\n      sload\n      swap1\n      swap2\n      and\n      swap1\n      sstore\n        /* \"Practical4-Tick-Tack-Toe-Jason.sol\":5950:6242  function restartGame() public {... */\n      jump\t// out\n        /* \"Practical4-Tick-Tack-Toe-Jason.sol\":5658:5905  function compareStrings(string memory a, string memory b) public pure returns (bool) {... */\n    tag_51:\n        /* \"Practical4-Tick-Tack-Toe-Jason.sol\":5737:5741  bool */\n      0x00\n        /* \"Practical4-Tick-Tack-Toe-Jason.sol\":5894:5895  b */\n      dup2\n        /* \"Practical4-Tick-Tack-Toe-Jason.sol\":5877:5896  abi.encodePacked(b) */\n      add(0x20, mload(0x40))\n      tag_125\n      swap2\n      swap1\n      tag_126\n      jump\t// in\n    tag_125:\n      mload(0x40)\n      0x20\n      dup2\n      dup4\n      sub\n      sub\n      dup2\n      mstore\n      swap1\n      0x40\n      mstore\n        /* \"Practical4-Tick-Tack-Toe-Jason.sol\":5867:5897  keccak256(abi.encodePacked(b)) */\n      dup1\n      mload\n      swap1\n      0x20\n      add\n      keccak256\n        /* \"Practical4-Tick-Tack-Toe-Jason.sol\":5860:5861  a */\n      dup4\n        /* \"Practical4-Tick-Tack-Toe-Jason.sol\":5843:5862  abi.encodePacked(a) */\n      add(0x20, mload(0x40))\n      tag_127\n      swap2\n      swap1\n      tag_126\n      jump\t// in\n    tag_127:\n      mload(0x40)\n      0x20\n      dup2\n      dup4\n      sub\n      sub\n      dup2\n      mstore\n      swap1\n      0x40\n      mstore\n        /* \"Practical4-Tick-Tack-Toe-Jason.sol\":5833:5863  keccak256(abi.encodePacked(a)) */\n      dup1\n      mload\n      swap1\n      0x20\n      add\n      keccak256\n        /* \"Practical4-Tick-Tack-Toe-Jason.sol\":5833:5897  keccak256(abi.encodePacked(a)) == keccak256(abi.encodePacked(b)) */\n      eq\n        /* \"Practical4-Tick-Tack-Toe-Jason.sol\":5826:5897  return keccak256(abi.encodePacked(a)) == keccak256(abi.encodePacked(b)) */\n      swap1\n      pop\n        /* \"Practical4-Tick-Tack-Toe-Jason.sol\":5658:5905  function compareStrings(string memory a, string memory b) public pure returns (bool) {... */\n      swap3\n      swap2\n      pop\n      pop\n      jump\t// out\n        /* \"Practical4-Tick-Tack-Toe-Jason.sol\":1475:2233  function joinGame () external {... */\n    tag_54:\n        /* \"Practical4-Tick-Tack-Toe-Jason.sol\":1578:1589  playerCount */\n      sload(0x02)\n        /* \"Practical4-Tick-Tack-Toe-Jason.sol\":1593:1594  0 */\n      0x00\n        /* \"Practical4-Tick-Tack-Toe-Jason.sol\":1578:1594  playerCount == 0 */\n      sub\n        /* \"Practical4-Tick-Tack-Toe-Jason.sol\":1575:2226  if(playerCount == 0){... */\n      tag_129\n      jumpi\n        /* \"Practical4-Tick-Tack-Toe-Jason.sol\":1610:1623  restartGame() */\n      tag_130\n        /* \"Practical4-Tick-Tack-Toe-Jason.sol\":1610:1621  restartGame */\n      tag_47\n        /* \"Practical4-Tick-Tack-Toe-Jason.sol\":1610:1623  restartGame() */\n      jump\t// in\n    tag_130:\n        /* \"Practical4-Tick-Tack-Toe-Jason.sol\":1638:1652  player1address */\n      0x00\n        /* \"Practical4-Tick-Tack-Toe-Jason.sol\":1638:1665  player1address = msg.sender */\n      dup1\n      sload\n      not(sub(shl(0xa0, 0x01), 0x01))\n      and\n        /* \"Practical4-Tick-Tack-Toe-Jason.sol\":1655:1665  msg.sender */\n      caller\n        /* \"Practical4-Tick-Tack-Toe-Jason.sol\":1638:1665  player1address = msg.sender */\n      or\n      dup2\n      sstore\n        /* \"Practical4-Tick-Tack-Toe-Jason.sol\":1680:1691  playerCount */\n      0x02\n        /* \"Practical4-Tick-Tack-Toe-Jason.sol\":1680:1693  playerCount++ */\n      dup1\n      sload\n      swap2\n      tag_131\n      dup4\n      tag_132\n      jump\t// in\n    tag_131:\n      swap2\n      swap1\n      pop\n      sstore\n      pop\n        /* \"Practical4-Tick-Tack-Toe-Jason.sol\":1475:2233  function joinGame () external {... */\n      jump\t// out\n        /* \"Practical4-Tick-Tack-Toe-Jason.sol\":1575:2226  if(playerCount == 0){... */\n    tag_129:\n        /* \"Practical4-Tick-Tack-Toe-Jason.sol\":1713:1724  playerCount */\n      sload(0x02)\n        /* \"Practical4-Tick-Tack-Toe-Jason.sol\":1728:1729  1 */\n      0x01\n        /* \"Practical4-Tick-Tack-Toe-Jason.sol\":1713:1729  playerCount == 1 */\n      sub\n        /* \"Practical4-Tick-Tack-Toe-Jason.sol\":1710:2226  if(playerCount == 1){... */\n      tag_134\n      jumpi\n        /* \"Practical4-Tick-Tack-Toe-Jason.sol\":1768:1782  player1address */\n      and(sub(shl(0xa0, 0x01), 0x01), sload(0x00))\n        /* \"Practical4-Tick-Tack-Toe-Jason.sol\":1754:1764  msg.sender */\n      caller\n        /* \"Practical4-Tick-Tack-Toe-Jason.sol\":1754:1782  msg.sender != player1address */\n      sub\n        /* \"Practical4-Tick-Tack-Toe-Jason.sol\":1745:1824  require((msg.sender != player1address), \"Error: You cannot play with yourself\") */\n      tag_135\n      jumpi\n      mload(0x40)\n      shl(0xe5, 0x461bcd)\n      dup2\n      mstore\n        /* \"#utility.yul\":11876:11878   */\n      0x20\n        /* \"Practical4-Tick-Tack-Toe-Jason.sol\":1745:1824  require((msg.sender != player1address), \"Error: You cannot play with yourself\") */\n      0x04\n      dup3\n      add\n        /* \"#utility.yul\":11858:11879   */\n      mstore\n        /* \"#utility.yul\":11915:11917   */\n      0x24\n        /* \"#utility.yul\":11895:11913   */\n      dup1\n      dup3\n      add\n        /* \"#utility.yul\":11888:11918   */\n      mstore\n        /* \"#utility.yul\":11954:11988   */\n      0x4572726f723a20596f752063616e6e6f7420706c6179207769746820796f7572\n        /* \"#utility.yul\":11934:11952   */\n      0x44\n      dup3\n      add\n        /* \"#utility.yul\":11927:11989   */\n      mstore\n      shl(0xe1, 0x39b2b633)\n        /* \"#utility.yul\":12005:12023   */\n      0x64\n      dup3\n      add\n        /* \"#utility.yul\":11998:12032   */\n      mstore\n        /* \"#utility.yul\":12049:12068   */\n      0x84\n      add\n        /* \"Practical4-Tick-Tack-Toe-Jason.sol\":1745:1824  require((msg.sender != player1address), \"Error: You cannot play with yourself\") */\n      tag_70\n        /* \"#utility.yul\":11674:12074   */\n      jump\n        /* \"Practical4-Tick-Tack-Toe-Jason.sol\":1745:1824  require((msg.sender != player1address), \"Error: You cannot play with yourself\") */\n    tag_135:\n        /* \"Practical4-Tick-Tack-Toe-Jason.sol\":1839:1853  player2address */\n      0x01\n        /* \"Practical4-Tick-Tack-Toe-Jason.sol\":1839:1866  player2address = msg.sender */\n      dup1\n      sload\n      not(sub(shl(0xa0, 0x01), 0x01))\n      and\n        /* \"Practical4-Tick-Tack-Toe-Jason.sol\":1856:1866  msg.sender */\n      caller\n        /* \"Practical4-Tick-Tack-Toe-Jason.sol\":1839:1866  player2address = msg.sender */\n      or\n      swap1\n      sstore\n        /* \"Practical4-Tick-Tack-Toe-Jason.sol\":1881:1892  playerCount */\n      0x02\n        /* \"Practical4-Tick-Tack-Toe-Jason.sol\":1881:1894  playerCount++ */\n      dup1\n      sload\n      swap1\n        /* \"Practical4-Tick-Tack-Toe-Jason.sol\":1839:1853  player2address */\n      0x00\n        /* \"Practical4-Tick-Tack-Toe-Jason.sol\":1881:1894  playerCount++ */\n      tag_138\n      dup4\n      tag_132\n      jump\t// in\n    tag_138:\n      swap1\n      swap2\n      sstore\n      pop\n      pop\n        /* \"Practical4-Tick-Tack-Toe-Jason.sol\":1909:1917  activate */\n      0x04\n        /* \"Practical4-Tick-Tack-Toe-Jason.sol\":1909:1924  activate = true */\n      dup1\n      sload\n      not(0xff)\n      and\n        /* \"Practical4-Tick-Tack-Toe-Jason.sol\":1920:1924  true */\n      0x01\n        /* \"Practical4-Tick-Tack-Toe-Jason.sol\":1909:1924  activate = true */\n      swap1\n      dup2\n      or\n      swap1\n      swap2\n      sstore\n      0x00\n        /* \"Practical4-Tick-Tack-Toe-Jason.sol\":2029:2043  player1address */\n      sload\n        /* \"Practical4-Tick-Tack-Toe-Jason.sol\":2045:2059  player2address */\n      swap1\n      sload\n        /* \"Practical4-Tick-Tack-Toe-Jason.sol\":2004:2060  startGame(\"Start game!\", player1address, player2address) */\n      0x40\n      dup1\n      mload\n        /* \"#utility.yul\":12337:12339   */\n      0x60\n        /* \"#utility.yul\":12319:12340   */\n      dup1\n      dup3\n      mstore\n        /* \"#utility.yul\":12376:12378   */\n      0x0b\n        /* \"#utility.yul\":12356:12374   */\n      swap1\n      dup3\n      add\n        /* \"#utility.yul\":12349:12379   */\n      mstore\n      shl(0xa8, 0x53746172742067616d6521)\n        /* \"#utility.yul\":12410:12413   */\n      0x80\n        /* \"#utility.yul\":12395:12414   */\n      dup3\n      add\n        /* \"#utility.yul\":12388:12430   */\n      mstore\n      sub(shl(0xa0, 0x01), 0x01)\n        /* \"Practical4-Tick-Tack-Toe-Jason.sol\":2029:2043  player1address */\n      swap4\n      dup5\n      and\n        /* \"#utility.yul\":12535:12539   */\n      0x20\n        /* \"#utility.yul\":12520:12540   */\n      dup3\n      add\n        /* \"#utility.yul\":12513:12558   */\n      mstore\n        /* \"Practical4-Tick-Tack-Toe-Jason.sol\":2045:2059  player2address */\n      swap3\n      swap1\n      swap2\n      and\n        /* \"#utility.yul\":12574:12592   */\n      swap1\n      dup3\n      add\n        /* \"#utility.yul\":12567:12610   */\n      mstore\n        /* \"Practical4-Tick-Tack-Toe-Jason.sol\":2004:2060  startGame(\"Start game!\", player1address, player2address) */\n      0xe731305b65099c3b743324657b0ef6cc0638875c5469a8e5bde1765300c0b9b2\n      swap1\n        /* \"#utility.yul\":12462:12465   */\n      0xa0\n        /* \"#utility.yul\":12447:12466   */\n      add\n        /* \"Practical4-Tick-Tack-Toe-Jason.sol\":2004:2060  startGame(\"Start game!\", player1address, player2address) */\n    tag_139:\n      mload(0x40)\n      dup1\n      swap2\n      sub\n      swap1\n      log1\n        /* \"Practical4-Tick-Tack-Toe-Jason.sol\":1475:2233  function joinGame () external {... */\n      jump\t// out\n        /* \"Practical4-Tick-Tack-Toe-Jason.sol\":1710:2226  if(playerCount == 1){... */\n    tag_134:\n        /* \"Practical4-Tick-Tack-Toe-Jason.sol\":2181:2182  2 */\n      0x02\n        /* \"Practical4-Tick-Tack-Toe-Jason.sol\":2167:2178  playerCount */\n      dup1\n      sload\n        /* \"Practical4-Tick-Tack-Toe-Jason.sol\":2167:2182  playerCount < 2 */\n      lt\n        /* \"Practical4-Tick-Tack-Toe-Jason.sol\":2159:2214  require(playerCount < 2,\"Now queue is full, try later\") */\n      tag_142\n      jumpi\n      mload(0x40)\n      shl(0xe5, 0x461bcd)\n      dup2\n      mstore\n        /* \"#utility.yul\":12823:12825   */\n      0x20\n        /* \"Practical4-Tick-Tack-Toe-Jason.sol\":2159:2214  require(playerCount < 2,\"Now queue is full, try later\") */\n      0x04\n      dup3\n      add\n        /* \"#utility.yul\":12805:12826   */\n      mstore\n        /* \"#utility.yul\":12862:12864   */\n      0x1c\n        /* \"#utility.yul\":12842:12860   */\n      0x24\n      dup3\n      add\n        /* \"#utility.yul\":12835:12865   */\n      mstore\n        /* \"#utility.yul\":12901:12931   */\n      0x4e6f772071756575652069732066756c6c2c20747279206c6174657200000000\n        /* \"#utility.yul\":12881:12899   */\n      0x44\n      dup3\n      add\n        /* \"#utility.yul\":12874:12932   */\n      mstore\n        /* \"#utility.yul\":12949:12967   */\n      0x64\n      add\n        /* \"Practical4-Tick-Tack-Toe-Jason.sol\":2159:2214  require(playerCount < 2,\"Now queue is full, try later\") */\n      tag_70\n        /* \"#utility.yul\":12621:12973   */\n      jump\n        /* \"Practical4-Tick-Tack-Toe-Jason.sol\":2159:2214  require(playerCount < 2,\"Now queue is full, try later\") */\n    tag_142:\n        /* \"Practical4-Tick-Tack-Toe-Jason.sol\":1475:2233  function joinGame () external {... */\n      jump\t// out\n        /* \"Practical4-Tick-Tack-Toe-Jason.sol\":3086:4719  function checkWinner () private {... */\n    tag_107:\n        /* \"Practical4-Tick-Tack-Toe-Jason.sol\":3129:3141  bool userWon */\n      0x00\n        /* \"Practical4-Tick-Tack-Toe-Jason.sol\":3233:3239  uint i */\n      dup1\n        /* \"Practical4-Tick-Tack-Toe-Jason.sol\":3229:4103  for(uint i = 0 ; i < winConditionSet.length; i++){... */\n    tag_146:\n        /* \"Practical4-Tick-Tack-Toe-Jason.sol\":3250:3265  winConditionSet */\n      0x06\n        /* \"Practical4-Tick-Tack-Toe-Jason.sol\":3250:3272  winConditionSet.length */\n      sload\n        /* \"Practical4-Tick-Tack-Toe-Jason.sol\":3246:3272  i < winConditionSet.length */\n      dup2\n      lt\n        /* \"Practical4-Tick-Tack-Toe-Jason.sol\":3229:4103  for(uint i = 0 ; i < winConditionSet.length; i++){... */\n      iszero\n      tag_147\n      jumpi\n        /* \"Practical4-Tick-Tack-Toe-Jason.sol\":3293:3319  uint[] memory winCondition */\n      0x00\n        /* \"Practical4-Tick-Tack-Toe-Jason.sol\":3322:3337  winConditionSet */\n      0x06\n        /* \"Practical4-Tick-Tack-Toe-Jason.sol\":3338:3339  i */\n      dup3\n        /* \"Practical4-Tick-Tack-Toe-Jason.sol\":3322:3340  winConditionSet[i] */\n      dup2\n      sload\n      dup2\n      lt\n      tag_150\n      jumpi\n      tag_150\n      tag_75\n      jump\t// in\n    tag_150:\n      swap1\n      0x00\n      mstore\n      keccak256(0x00, 0x20)\n      add\n        /* \"Practical4-Tick-Tack-Toe-Jason.sol\":3293:3340  uint[] memory winCondition = winConditionSet[i] */\n      dup1\n      sload\n      dup1\n      0x20\n      mul\n      0x20\n      add\n      mload(0x40)\n      swap1\n      dup2\n      add\n      0x40\n      mstore\n      dup1\n      swap3\n      swap2\n      swap1\n      dup2\n      dup2\n      mstore\n      0x20\n      add\n      dup3\n      dup1\n      sload\n      dup1\n      iszero\n      tag_152\n      jumpi\n      0x20\n      mul\n      dup3\n      add\n      swap2\n      swap1\n      0x00\n      mstore\n      keccak256(0x00, 0x20)\n      swap1\n    tag_153:\n      dup2\n      sload\n      dup2\n      mstore\n      0x20\n      add\n      swap1\n      0x01\n      add\n      swap1\n      dup1\n      dup4\n      gt\n      tag_153\n      jumpi\n    tag_152:\n      pop\n      pop\n      pop\n      pop\n      pop\n      swap1\n      pop\n        /* \"Practical4-Tick-Tack-Toe-Jason.sol\":3414:3435  string memory resultA */\n      0x00\n        /* \"Practical4-Tick-Tack-Toe-Jason.sol\":3437:3444  options */\n      0x03\n        /* \"Practical4-Tick-Tack-Toe-Jason.sol\":3445:3457  winCondition */\n      dup3\n        /* \"Practical4-Tick-Tack-Toe-Jason.sol\":3458:3459  0 */\n      0x00\n        /* \"Practical4-Tick-Tack-Toe-Jason.sol\":3445:3460  winCondition[0] */\n      dup2\n      mload\n      dup2\n      lt\n      tag_155\n      jumpi\n      tag_155\n      tag_75\n      jump\t// in\n    tag_155:\n      0x20\n      mul\n      0x20\n      add\n      add\n      mload\n        /* \"Practical4-Tick-Tack-Toe-Jason.sol\":3437:3461  options[winCondition[0]] */\n      dup2\n      sload\n      dup2\n      lt\n      tag_157\n      jumpi\n      tag_157\n      tag_75\n      jump\t// in\n    tag_157:\n      swap1\n      0x00\n      mstore\n      keccak256(0x00, 0x20)\n      add\n        /* \"Practical4-Tick-Tack-Toe-Jason.sol\":3414:3461  string memory resultA= options[winCondition[0]] */\n      dup1\n      sload\n      tag_159\n      swap1\n      tag_58\n      jump\t// in\n    tag_159:\n      dup1\n      0x1f\n      add\n      0x20\n      dup1\n      swap2\n      div\n      mul\n      0x20\n      add\n      mload(0x40)\n      swap1\n      dup2\n      add\n      0x40\n      mstore\n      dup1\n      swap3\n      swap2\n      swap1\n      dup2\n      dup2\n      mstore\n      0x20\n      add\n      dup3\n      dup1\n      sload\n      tag_160\n      swap1\n      tag_58\n      jump\t// in\n    tag_160:\n      dup1\n      iszero\n      tag_161\n      jumpi\n      dup1\n      0x1f\n      lt\n      tag_162\n      jumpi\n      0x0100\n      dup1\n      dup4\n      sload\n      div\n      mul\n      dup4\n      mstore\n      swap2\n      0x20\n      add\n      swap2\n      jump(tag_161)\n    tag_162:\n      dup3\n      add\n      swap2\n      swap1\n      0x00\n      mstore\n      keccak256(0x00, 0x20)\n      swap1\n    tag_163:\n      dup2\n      sload\n      dup2\n      mstore\n      swap1\n      0x01\n      add\n      swap1\n      0x20\n      add\n      dup1\n      dup4\n      gt\n      tag_163\n      jumpi\n      dup3\n      swap1\n      sub\n      0x1f\n      and\n      dup3\n      add\n      swap2\n    tag_161:\n      pop\n      pop\n      pop\n      pop\n      pop\n      swap1\n      pop\n        /* \"Practical4-Tick-Tack-Toe-Jason.sol\":3476:3497  string memory resultB */\n      0x00\n        /* \"Practical4-Tick-Tack-Toe-Jason.sol\":3499:3506  options */\n      0x03\n        /* \"Practical4-Tick-Tack-Toe-Jason.sol\":3507:3519  winCondition */\n      dup4\n        /* \"Practical4-Tick-Tack-Toe-Jason.sol\":3520:3521  1 */\n      0x01\n        /* \"Practical4-Tick-Tack-Toe-Jason.sol\":3507:3522  winCondition[1] */\n      dup2\n      mload\n      dup2\n      lt\n      tag_165\n      jumpi\n      tag_165\n      tag_75\n      jump\t// in\n    tag_165:\n      0x20\n      mul\n      0x20\n      add\n      add\n      mload\n        /* \"Practical4-Tick-Tack-Toe-Jason.sol\":3499:3523  options[winCondition[1]] */\n      dup2\n      sload\n      dup2\n      lt\n      tag_167\n      jumpi\n      tag_167\n      tag_75\n      jump\t// in\n    tag_167:\n      swap1\n      0x00\n      mstore\n      keccak256(0x00, 0x20)\n      add\n        /* \"Practical4-Tick-Tack-Toe-Jason.sol\":3476:3523  string memory resultB= options[winCondition[1]] */\n      dup1\n      sload\n      tag_169\n      swap1\n      tag_58\n      jump\t// in\n    tag_169:\n      dup1\n      0x1f\n      add\n      0x20\n      dup1\n      swap2\n      div\n      mul\n      0x20\n      add\n      mload(0x40)\n      swap1\n      dup2\n      add\n      0x40\n      mstore\n      dup1\n      swap3\n      swap2\n      swap1\n      dup2\n      dup2\n      mstore\n      0x20\n      add\n      dup3\n      dup1\n      sload\n      tag_170\n      swap1\n      tag_58\n      jump\t// in\n    tag_170:\n      dup1\n      iszero\n      tag_171\n      jumpi\n      dup1\n      0x1f\n      lt\n      tag_172\n      jumpi\n      0x0100\n      dup1\n      dup4\n      sload\n      div\n      mul\n      dup4\n      mstore\n      swap2\n      0x20\n      add\n      swap2\n      jump(tag_171)\n    tag_172:\n      dup3\n      add\n      swap2\n      swap1\n      0x00\n      mstore\n      keccak256(0x00, 0x20)\n      swap1\n    tag_173:\n      dup2\n      sload\n      dup2\n      mstore\n      swap1\n      0x01\n      add\n      swap1\n      0x20\n      add\n      dup1\n      dup4\n      gt\n      tag_173\n      jumpi\n      dup3\n      swap1\n      sub\n      0x1f\n      and\n      dup3\n      add\n      swap2\n    tag_171:\n      pop\n      pop\n      pop\n      pop\n      pop\n      swap1\n      pop\n        /* \"Practical4-Tick-Tack-Toe-Jason.sol\":3538:3559  string memory resultC */\n      0x00\n        /* \"Practical4-Tick-Tack-Toe-Jason.sol\":3561:3568  options */\n      0x03\n        /* \"Practical4-Tick-Tack-Toe-Jason.sol\":3569:3581  winCondition */\n      dup5\n        /* \"Practical4-Tick-Tack-Toe-Jason.sol\":3582:3583  2 */\n      0x02\n        /* \"Practical4-Tick-Tack-Toe-Jason.sol\":3569:3584  winCondition[2] */\n      dup2\n      mload\n      dup2\n      lt\n      tag_175\n      jumpi\n      tag_175\n      tag_75\n      jump\t// in\n    tag_175:\n      0x20\n      mul\n      0x20\n      add\n      add\n      mload\n        /* \"Practical4-Tick-Tack-Toe-Jason.sol\":3561:3585  options[winCondition[2]] */\n      dup2\n      sload\n      dup2\n      lt\n      tag_177\n      jumpi\n      tag_177\n      tag_75\n      jump\t// in\n    tag_177:\n      swap1\n      0x00\n      mstore\n      keccak256(0x00, 0x20)\n      add\n        /* \"Practical4-Tick-Tack-Toe-Jason.sol\":3538:3585  string memory resultC= options[winCondition[2]] */\n      dup1\n      sload\n      tag_179\n      swap1\n      tag_58\n      jump\t// in\n    tag_179:\n      dup1\n      0x1f\n      add\n      0x20\n      dup1\n      swap2\n      div\n      mul\n      0x20\n      add\n      mload(0x40)\n      swap1\n      dup2\n      add\n      0x40\n      mstore\n      dup1\n      swap3\n      swap2\n      swap1\n      dup2\n      dup2\n      mstore\n      0x20\n      add\n      dup3\n      dup1\n      sload\n      tag_180\n      swap1\n      tag_58\n      jump\t// in\n    tag_180:\n      dup1\n      iszero\n      tag_181\n      jumpi\n      dup1\n      0x1f\n      lt\n      tag_182\n      jumpi\n      0x0100\n      dup1\n      dup4\n      sload\n      div\n      mul\n      dup4\n      mstore\n      swap2\n      0x20\n      add\n      swap2\n      jump(tag_181)\n    tag_182:\n      dup3\n      add\n      swap2\n      swap1\n      0x00\n      mstore\n      keccak256(0x00, 0x20)\n      swap1\n    tag_183:\n      dup2\n      sload\n      dup2\n      mstore\n      swap1\n      0x01\n      add\n      swap1\n      0x20\n      add\n      dup1\n      dup4\n      gt\n      tag_183\n      jumpi\n      dup3\n      swap1\n      sub\n      0x1f\n      and\n      dup3\n      add\n      swap2\n    tag_181:\n      pop\n      pop\n      pop\n      pop\n      pop\n      swap1\n      pop\n        /* \"Practical4-Tick-Tack-Toe-Jason.sol\":3804:3831  compareStrings(resultA, \"\") */\n      tag_184\n        /* \"Practical4-Tick-Tack-Toe-Jason.sol\":3819:3826  resultA */\n      dup4\n        /* \"Practical4-Tick-Tack-Toe-Jason.sol\":3804:3831  compareStrings(resultA, \"\") */\n      mload(0x40)\n      dup1\n      0x20\n      add\n      0x40\n      mstore\n      dup1\n      0x00\n      dup2\n      mstore\n      pop\n        /* \"Practical4-Tick-Tack-Toe-Jason.sol\":3804:3818  compareStrings */\n      tag_51\n        /* \"Practical4-Tick-Tack-Toe-Jason.sol\":3804:3831  compareStrings(resultA, \"\") */\n      jump\t// in\n    tag_184:\n        /* \"Practical4-Tick-Tack-Toe-Jason.sol\":3804:3860  compareStrings(resultA, \"\")||compareStrings(resultB, \"\") */\n      dup1\n      tag_186\n      jumpi\n      pop\n        /* \"Practical4-Tick-Tack-Toe-Jason.sol\":3833:3860  compareStrings(resultB, \"\") */\n      tag_186\n        /* \"Practical4-Tick-Tack-Toe-Jason.sol\":3848:3855  resultB */\n      dup3\n        /* \"Practical4-Tick-Tack-Toe-Jason.sol\":3833:3860  compareStrings(resultB, \"\") */\n      mload(0x40)\n      dup1\n      0x20\n      add\n      0x40\n      mstore\n      dup1\n      0x00\n      dup2\n      mstore\n      pop\n        /* \"Practical4-Tick-Tack-Toe-Jason.sol\":3833:3847  compareStrings */\n      tag_51\n        /* \"Practical4-Tick-Tack-Toe-Jason.sol\":3833:3860  compareStrings(resultB, \"\") */\n      jump\t// in\n    tag_186:\n        /* \"Practical4-Tick-Tack-Toe-Jason.sol\":3804:3889  compareStrings(resultA, \"\")||compareStrings(resultB, \"\")||compareStrings(resultC, \"\") */\n      dup1\n      tag_188\n      jumpi\n      pop\n        /* \"Practical4-Tick-Tack-Toe-Jason.sol\":3862:3889  compareStrings(resultC, \"\") */\n      tag_188\n        /* \"Practical4-Tick-Tack-Toe-Jason.sol\":3877:3884  resultC */\n      dup2\n        /* \"Practical4-Tick-Tack-Toe-Jason.sol\":3862:3889  compareStrings(resultC, \"\") */\n      mload(0x40)\n      dup1\n      0x20\n      add\n      0x40\n      mstore\n      dup1\n      0x00\n      dup2\n      mstore\n      pop\n        /* \"Practical4-Tick-Tack-Toe-Jason.sol\":3862:3876  compareStrings */\n      tag_51\n        /* \"Practical4-Tick-Tack-Toe-Jason.sol\":3862:3889  compareStrings(resultC, \"\") */\n      jump\t// in\n    tag_188:\n        /* \"Practical4-Tick-Tack-Toe-Jason.sol\":3801:3933  if(compareStrings(resultA, \"\")||compareStrings(resultB, \"\")||compareStrings(resultC, \"\")){... */\n      iszero\n      tag_189\n      jumpi\n        /* \"Practical4-Tick-Tack-Toe-Jason.sol\":3909:3917  continue */\n      pop\n      pop\n      pop\n      pop\n      jump(tag_148)\n        /* \"Practical4-Tick-Tack-Toe-Jason.sol\":3801:3933  if(compareStrings(resultA, \"\")||compareStrings(resultB, \"\")||compareStrings(resultC, \"\")){... */\n    tag_189:\n        /* \"Practical4-Tick-Tack-Toe-Jason.sol\":3950:3982  compareStrings(resultA, resultB) */\n      tag_190\n        /* \"Practical4-Tick-Tack-Toe-Jason.sol\":3965:3972  resultA */\n      dup4\n        /* \"Practical4-Tick-Tack-Toe-Jason.sol\":3974:3981  resultB */\n      dup4\n        /* \"Practical4-Tick-Tack-Toe-Jason.sol\":3950:3964  compareStrings */\n      tag_51\n        /* \"Practical4-Tick-Tack-Toe-Jason.sol\":3950:3982  compareStrings(resultA, resultB) */\n      jump\t// in\n    tag_190:\n        /* \"Practical4-Tick-Tack-Toe-Jason.sol\":3950:4018  compareStrings(resultA, resultB) && compareStrings(resultB, resultC) */\n      dup1\n      iszero\n      tag_192\n      jumpi\n      pop\n        /* \"Practical4-Tick-Tack-Toe-Jason.sol\":3986:4018  compareStrings(resultB, resultC) */\n      tag_192\n        /* \"Practical4-Tick-Tack-Toe-Jason.sol\":4001:4008  resultB */\n      dup3\n        /* \"Practical4-Tick-Tack-Toe-Jason.sol\":4010:4017  resultC */\n      dup3\n        /* \"Practical4-Tick-Tack-Toe-Jason.sol\":3986:4000  compareStrings */\n      tag_51\n        /* \"Practical4-Tick-Tack-Toe-Jason.sol\":3986:4018  compareStrings(resultB, resultC) */\n      jump\t// in\n    tag_192:\n        /* \"Practical4-Tick-Tack-Toe-Jason.sol\":3947:4092  if(compareStrings(resultA, resultB) && compareStrings(resultB, resultC)){... */\n      iszero\n      tag_193\n      jumpi\n        /* \"Practical4-Tick-Tack-Toe-Jason.sol\":4048:4052  true */\n      0x01\n        /* \"Practical4-Tick-Tack-Toe-Jason.sol\":4038:4052  userWon = true */\n      swap6\n      pop\n        /* \"Practical4-Tick-Tack-Toe-Jason.sol\":4071:4076  break */\n      pop\n      pop\n      pop\n      pop\n      jump(tag_147)\n        /* \"Practical4-Tick-Tack-Toe-Jason.sol\":3947:4092  if(compareStrings(resultA, resultB) && compareStrings(resultB, resultC)){... */\n    tag_193:\n        /* \"Practical4-Tick-Tack-Toe-Jason.sol\":3278:4103  {... */\n      pop\n      pop\n      pop\n      pop\n        /* \"Practical4-Tick-Tack-Toe-Jason.sol\":3229:4103  for(uint i = 0 ; i < winConditionSet.length; i++){... */\n    tag_148:\n        /* \"Practical4-Tick-Tack-Toe-Jason.sol\":3274:3277  i++ */\n      dup1\n      tag_194\n      dup2\n      tag_132\n      jump\t// in\n    tag_194:\n      swap2\n      pop\n      pop\n        /* \"Practical4-Tick-Tack-Toe-Jason.sol\":3229:4103  for(uint i = 0 ; i < winConditionSet.length; i++){... */\n      jump(tag_146)\n    tag_147:\n      pop\n        /* \"Practical4-Tick-Tack-Toe-Jason.sol\":4228:4235  userWon */\n      dup1\n        /* \"Practical4-Tick-Tack-Toe-Jason.sol\":4225:4712  if(userWon){... */\n      iszero\n      tag_195\n      jumpi\n        /* \"Practical4-Tick-Tack-Toe-Jason.sol\":4293:4318  showResult(currentPlayer) */\n      0xcde5c32c0a45fd8aa4b65ea8003fc9da9acd5e2c6c24a9fcce6ab79cabbd9122\n        /* \"Practical4-Tick-Tack-Toe-Jason.sol\":4304:4317  currentPlayer */\n      0x05\n        /* \"Practical4-Tick-Tack-Toe-Jason.sol\":4293:4318  showResult(currentPlayer) */\n      mload(0x40)\n      tag_196\n      swap2\n      swap1\n      tag_123\n      jump\t// in\n    tag_196:\n      mload(0x40)\n      dup1\n      swap2\n      sub\n      swap1\n      log1\n        /* \"Practical4-Tick-Tack-Toe-Jason.sol\":4364:4372  activate */\n      0x04\n        /* \"Practical4-Tick-Tack-Toe-Jason.sol\":4364:4380  activate = false */\n      dup1\n      sload\n      not(0xff)\n      and\n      swap1\n      sstore\n        /* \"Practical4-Tick-Tack-Toe-Jason.sol\":4375:4380  false */\n      0x00\n        /* \"Practical4-Tick-Tack-Toe-Jason.sol\":4395:4406  playerCount */\n      0x02\n        /* \"Practical4-Tick-Tack-Toe-Jason.sol\":4395:4410  playerCount = 0 */\n      sstore\n        /* \"Practical4-Tick-Tack-Toe-Jason.sol\":2339:3043  function userInput(uint input) external {... */\n      pop\n      jump\t// out\n        /* \"Practical4-Tick-Tack-Toe-Jason.sol\":4225:4712  if(userWon){... */\n    tag_195:\n        /* \"Practical4-Tick-Tack-Toe-Jason.sol\":4431:4445  checkOptions() */\n      tag_198\n        /* \"Practical4-Tick-Tack-Toe-Jason.sol\":4431:4443  checkOptions */\n      tag_199\n        /* \"Practical4-Tick-Tack-Toe-Jason.sol\":4431:4445  checkOptions() */\n      jump\t// in\n    tag_198:\n        /* \"Practical4-Tick-Tack-Toe-Jason.sol\":4428:4712  if(checkOptions()){... */\n      iszero\n      tag_200\n      jumpi\n        /* \"Practical4-Tick-Tack-Toe-Jason.sol\":4506:4524  showResult(\"Draw\") */\n      0xcde5c32c0a45fd8aa4b65ea8003fc9da9acd5e2c6c24a9fcce6ab79cabbd9122\n      mload(0x40)\n      tag_196\n      swap1\n        /* \"#utility.yul\":13180:13182   */\n      0x20\n        /* \"#utility.yul\":13162:13183   */\n      dup1\n      dup3\n      mstore\n        /* \"#utility.yul\":13219:13220   */\n      0x04\n        /* \"#utility.yul\":13199:13217   */\n      swap1\n      dup3\n      add\n        /* \"#utility.yul\":13192:13221   */\n      mstore\n      shl(0xe0, 0x44726177)\n        /* \"#utility.yul\":13252:13254   */\n      0x40\n        /* \"#utility.yul\":13237:13255   */\n      dup3\n      add\n        /* \"#utility.yul\":13230:13264   */\n      mstore\n        /* \"#utility.yul\":13296:13298   */\n      0x60\n        /* \"#utility.yul\":13281:13299   */\n      add\n      swap1\n        /* \"#utility.yul\":12978:13305   */\n      jump\n        /* \"Practical4-Tick-Tack-Toe-Jason.sol\":4428:4712  if(checkOptions()){... */\n    tag_200:\n        /* \"Practical4-Tick-Tack-Toe-Jason.sol\":4686:4700  changePlayer() */\n      tag_106\n        /* \"Practical4-Tick-Tack-Toe-Jason.sol\":4686:4698  changePlayer */\n      tag_205\n        /* \"Practical4-Tick-Tack-Toe-Jason.sol\":4686:4700  changePlayer() */\n      jump\t// in\n        /* \"Practical4-Tick-Tack-Toe-Jason.sol\":5253:5600  function checkOptions() private view returns (bool) {... */\n    tag_199:\n        /* \"Practical4-Tick-Tack-Toe-Jason.sol\":5299:5303  bool */\n      0x00\n      dup1\n        /* \"Practical4-Tick-Tack-Toe-Jason.sol\":5423:5571  for(uint i = 0 ; i < options.length; i++){... */\n    tag_207:\n        /* \"Practical4-Tick-Tack-Toe-Jason.sol\":5444:5451  options */\n      0x03\n        /* \"Practical4-Tick-Tack-Toe-Jason.sol\":5444:5458  options.length */\n      sload\n        /* \"Practical4-Tick-Tack-Toe-Jason.sol\":5440:5458  i < options.length */\n      dup2\n      lt\n        /* \"Practical4-Tick-Tack-Toe-Jason.sol\":5423:5571  for(uint i = 0 ; i < options.length; i++){... */\n      iszero\n      tag_208\n      jumpi\n        /* \"Practical4-Tick-Tack-Toe-Jason.sol\":5482:5512  compareStrings(options[i], \"\") */\n      tag_210\n        /* \"Practical4-Tick-Tack-Toe-Jason.sol\":5497:5504  options */\n      0x03\n        /* \"Practical4-Tick-Tack-Toe-Jason.sol\":5505:5506  i */\n      dup3\n        /* \"Practical4-Tick-Tack-Toe-Jason.sol\":5497:5507  options[i] */\n      dup2\n      sload\n      dup2\n      lt\n      tag_74\n      jumpi\n      tag_74\n      tag_75\n      jump\t// in\n        /* \"Practical4-Tick-Tack-Toe-Jason.sol\":5482:5512  compareStrings(options[i], \"\") */\n    tag_210:\n        /* \"Practical4-Tick-Tack-Toe-Jason.sol\":5479:5560  if(compareStrings(options[i], \"\")){... */\n      iszero\n      tag_219\n      jumpi\n        /* \"Practical4-Tick-Tack-Toe-Jason.sol\":5539:5544  false */\n      0x00\n        /* \"Practical4-Tick-Tack-Toe-Jason.sol\":5532:5544  return false */\n      swap2\n      pop\n      pop\n        /* \"Practical4-Tick-Tack-Toe-Jason.sol\":5253:5600  function checkOptions() private view returns (bool) {... */\n      swap1\n      jump\t// out\n        /* \"Practical4-Tick-Tack-Toe-Jason.sol\":5479:5560  if(compareStrings(options[i], \"\")){... */\n    tag_219:\n        /* \"Practical4-Tick-Tack-Toe-Jason.sol\":5460:5463  i++ */\n      dup1\n      tag_220\n      dup2\n      tag_132\n      jump\t// in\n    tag_220:\n      swap2\n      pop\n      pop\n        /* \"Practical4-Tick-Tack-Toe-Jason.sol\":5423:5571  for(uint i = 0 ; i < options.length; i++){... */\n      jump(tag_207)\n    tag_208:\n      pop\n        /* \"Practical4-Tick-Tack-Toe-Jason.sol\":5588:5592  true */\n      0x01\n        /* \"Practical4-Tick-Tack-Toe-Jason.sol\":5581:5592  return true */\n      swap1\n      pop\n        /* \"Practical4-Tick-Tack-Toe-Jason.sol\":5253:5600  function checkOptions() private view returns (bool) {... */\n      swap1\n      jump\t// out\n        /* \"Practical4-Tick-Tack-Toe-Jason.sol\":4756:5192  function changePlayer() private {... */\n    tag_205:\n        /* \"Practical4-Tick-Tack-Toe-Jason.sol\":4850:4884  compareStrings(currentPlayer, \"X\") */\n      tag_222\n        /* \"Practical4-Tick-Tack-Toe-Jason.sol\":4865:4878  currentPlayer */\n      0x05\n        /* \"Practical4-Tick-Tack-Toe-Jason.sol\":4850:4884  compareStrings(currentPlayer, \"X\") */\n      dup1\n      sload\n      tag_86\n      swap1\n      tag_58\n      jump\t// in\n    tag_222:\n        /* \"Practical4-Tick-Tack-Toe-Jason.sol\":4847:5001  if(compareStrings(currentPlayer, \"X\")){... */\n      iszero\n      tag_228\n      jumpi\n        /* \"Practical4-Tick-Tack-Toe-Jason.sol\":4914:4928  player2address */\n      sload(0x01)\n        /* \"Practical4-Tick-Tack-Toe-Jason.sol\":4905:4929  nextUser(player2address) */\n      mload(0x40)\n      sub(shl(0xa0, 0x01), 0x01)\n        /* \"Practical4-Tick-Tack-Toe-Jason.sol\":4914:4928  player2address */\n      swap1\n      swap2\n      and\n        /* \"#utility.yul\":1475:1526   */\n      dup2\n      mstore\n        /* \"Practical4-Tick-Tack-Toe-Jason.sol\":4905:4929  nextUser(player2address) */\n      0xec121debab367dc6fc2da219ef2d5cf4e97e648e71f3a199511cf3b4d7d59304\n      swap1\n        /* \"#utility.yul\":1463:1465   */\n      0x20\n        /* \"#utility.yul\":1448:1466   */\n      add\n        /* \"Practical4-Tick-Tack-Toe-Jason.sol\":4905:4929  nextUser(player2address) */\n      mload(0x40)\n      dup1\n      swap2\n      sub\n      swap1\n      log1\n        /* \"Practical4-Tick-Tack-Toe-Jason.sol\":4847:5001  if(compareStrings(currentPlayer, \"X\")){... */\n      jump(tag_230)\n    tag_228:\n        /* \"Practical4-Tick-Tack-Toe-Jason.sol\":4974:4988  player1address */\n      sload(0x00)\n        /* \"Practical4-Tick-Tack-Toe-Jason.sol\":4965:4989  nextUser(player1address) */\n      mload(0x40)\n      sub(shl(0xa0, 0x01), 0x01)\n        /* \"Practical4-Tick-Tack-Toe-Jason.sol\":4974:4988  player1address */\n      swap1\n      swap2\n      and\n        /* \"#utility.yul\":1475:1526   */\n      dup2\n      mstore\n        /* \"Practical4-Tick-Tack-Toe-Jason.sol\":4965:4989  nextUser(player1address) */\n      0xec121debab367dc6fc2da219ef2d5cf4e97e648e71f3a199511cf3b4d7d59304\n      swap1\n        /* \"#utility.yul\":1463:1465   */\n      0x20\n        /* \"#utility.yul\":1448:1466   */\n      add\n        /* \"Practical4-Tick-Tack-Toe-Jason.sol\":4965:4989  nextUser(player1address) */\n      mload(0x40)\n      dup1\n      swap2\n      sub\n      swap1\n      log1\n        /* \"Practical4-Tick-Tack-Toe-Jason.sol\":4847:5001  if(compareStrings(currentPlayer, \"X\")){... */\n    tag_230:\n        /* \"Practical4-Tick-Tack-Toe-Jason.sol\":5057:5091  compareStrings(currentPlayer, \"X\") */\n      tag_232\n        /* \"Practical4-Tick-Tack-Toe-Jason.sol\":5072:5085  currentPlayer */\n      0x05\n        /* \"Practical4-Tick-Tack-Toe-Jason.sol\":5057:5091  compareStrings(currentPlayer, \"X\") */\n      dup1\n      sload\n      tag_86\n      swap1\n      tag_58\n      jump\t// in\n    tag_232:\n        /* \"Practical4-Tick-Tack-Toe-Jason.sol\":5056:5104  (compareStrings(currentPlayer, \"X\")) ? \"O\" : \"X\" */\n      tag_238\n      jumpi\n      mload(0x40)\n      dup1\n      0x40\n      add\n      0x40\n      mstore\n      dup1\n      0x01\n      dup2\n      mstore\n      0x20\n      add\n      shl(0xfb, 0x0b)\n      dup2\n      mstore\n      pop\n      jump(tag_239)\n    tag_238:\n      mload(0x40)\n      dup1\n      0x40\n      add\n      0x40\n      mstore\n      dup1\n      0x01\n      dup2\n      mstore\n      0x20\n      add\n      shl(0xf8, 0x4f)\n      dup2\n      mstore\n      pop\n    tag_239:\n        /* \"Practical4-Tick-Tack-Toe-Jason.sol\":5040:5053  currentPlayer */\n      0x05\n      swap1\n        /* \"Practical4-Tick-Tack-Toe-Jason.sol\":5040:5104  currentPlayer = (compareStrings(currentPlayer, \"X\")) ? \"O\" : \"X\" */\n      tag_240\n      swap1\n        /* \"Practical4-Tick-Tack-Toe-Jason.sol\":5040:5053  currentPlayer */\n      dup3\n        /* \"Practical4-Tick-Tack-Toe-Jason.sol\":5040:5104  currentPlayer = (compareStrings(currentPlayer, \"X\")) ? \"O\" : \"X\" */\n      tag_119\n      jump\t// in\n    tag_240:\n      pop\n        /* \"Practical4-Tick-Tack-Toe-Jason.sol\":5158:5184  nextUesrStr(currentPlayer) */\n      0xfec15e35ec3d19c0b090bded48bc70fcf6e183fb77f32b0f92b463d5fec3a0d1\n        /* \"Practical4-Tick-Tack-Toe-Jason.sol\":5170:5183  currentPlayer */\n      0x05\n        /* \"Practical4-Tick-Tack-Toe-Jason.sol\":5158:5184  nextUesrStr(currentPlayer) */\n      mload(0x40)\n      tag_139\n      swap2\n      swap1\n      tag_123\n      jump\t// in\n    tag_121:\n      dup3\n      dup1\n      sload\n      dup3\n      dup3\n      sstore\n      swap1\n      0x00\n      mstore\n      keccak256(0x00, 0x20)\n      swap1\n      dup2\n      add\n      swap3\n      dup3\n      iszero\n      tag_244\n      jumpi\n      swap2\n      0x20\n      mul\n      dup3\n      add\n    tag_243:\n      dup3\n      dup2\n      gt\n      iszero\n      tag_244\n      jumpi\n      dup3\n      mload\n      dup3\n      swap1\n      tag_245\n      swap1\n      dup3\n      tag_119\n      jump\t// in\n    tag_245:\n      pop\n      swap2\n      0x20\n      add\n      swap2\n      swap1\n      0x01\n      add\n      swap1\n      jump(tag_243)\n    tag_244:\n      pop\n      tag_246\n      swap3\n      swap2\n      pop\n      tag_247\n      jump\t// in\n    tag_246:\n      pop\n      swap1\n      jump\t// out\n    tag_247:\n      dup1\n      dup3\n      gt\n      iszero\n      tag_246\n      jumpi\n      0x00\n      tag_250\n      dup3\n      dup3\n      tag_251\n      jump\t// in\n    tag_250:\n      pop\n      0x01\n      add\n      jump(tag_247)\n    tag_251:\n      pop\n      dup1\n      sload\n      tag_252\n      swap1\n      tag_58\n      jump\t// in\n    tag_252:\n      0x00\n      dup3\n      sstore\n      dup1\n      0x1f\n      lt\n      tag_254\n      jumpi\n      pop\n      pop\n      jump\t// out\n    tag_254:\n      0x1f\n      add\n      0x20\n      swap1\n      div\n      swap1\n      0x00\n      mstore\n      keccak256(0x00, 0x20)\n      swap1\n      dup2\n      add\n      swap1\n      tag_106\n      swap2\n      swap1\n    tag_257:\n      dup1\n      dup3\n      gt\n      iszero\n      tag_246\n      jumpi\n      0x00\n      dup2\n      sstore\n      0x01\n      add\n      jump(tag_257)\n        /* \"#utility.yul\":388:568   */\n    tag_25:\n        /* \"#utility.yul\":447:453   */\n      0x00\n        /* \"#utility.yul\":500:502   */\n      0x20\n        /* \"#utility.yul\":488:497   */\n      dup3\n        /* \"#utility.yul\":479:486   */\n      dup5\n        /* \"#utility.yul\":475:498   */\n      sub\n        /* \"#utility.yul\":471:503   */\n      slt\n        /* \"#utility.yul\":468:520   */\n      iszero\n      tag_271\n      jumpi\n        /* \"#utility.yul\":516:517   */\n      0x00\n        /* \"#utility.yul\":513:514   */\n      dup1\n        /* \"#utility.yul\":506:518   */\n      revert\n        /* \"#utility.yul\":468:520   */\n    tag_271:\n      pop\n        /* \"#utility.yul\":539:562   */\n      calldataload\n      swap2\n        /* \"#utility.yul\":388:568   */\n      swap1\n      pop\n      jump\t// out\n        /* \"#utility.yul\":573:823   */\n    tag_259:\n        /* \"#utility.yul\":658:659   */\n      0x00\n        /* \"#utility.yul\":668:781   */\n    tag_273:\n        /* \"#utility.yul\":682:688   */\n      dup4\n        /* \"#utility.yul\":679:680   */\n      dup2\n        /* \"#utility.yul\":676:689   */\n      lt\n        /* \"#utility.yul\":668:781   */\n      iszero\n      tag_275\n      jumpi\n        /* \"#utility.yul\":758:769   */\n      dup2\n      dup2\n      add\n        /* \"#utility.yul\":752:770   */\n      mload\n        /* \"#utility.yul\":739:750   */\n      dup4\n      dup3\n      add\n        /* \"#utility.yul\":732:771   */\n      mstore\n        /* \"#utility.yul\":704:706   */\n      0x20\n        /* \"#utility.yul\":697:707   */\n      add\n        /* \"#utility.yul\":668:781   */\n      jump(tag_273)\n    tag_275:\n      pop\n      pop\n        /* \"#utility.yul\":815:816   */\n      0x00\n        /* \"#utility.yul\":797:813   */\n      swap2\n      add\n        /* \"#utility.yul\":790:817   */\n      mstore\n        /* \"#utility.yul\":573:823   */\n      jump\t// out\n        /* \"#utility.yul\":828:1099   */\n    tag_260:\n        /* \"#utility.yul\":870:873   */\n      0x00\n        /* \"#utility.yul\":908:913   */\n      dup2\n        /* \"#utility.yul\":902:914   */\n      mload\n        /* \"#utility.yul\":935:941   */\n      dup1\n        /* \"#utility.yul\":930:933   */\n      dup5\n        /* \"#utility.yul\":923:942   */\n      mstore\n        /* \"#utility.yul\":951:1027   */\n      tag_277\n        /* \"#utility.yul\":1020:1026   */\n      dup2\n        /* \"#utility.yul\":1013:1017   */\n      0x20\n        /* \"#utility.yul\":1008:1011   */\n      dup7\n        /* \"#utility.yul\":1004:1018   */\n      add\n        /* \"#utility.yul\":997:1001   */\n      0x20\n        /* \"#utility.yul\":990:995   */\n      dup7\n        /* \"#utility.yul\":986:1002   */\n      add\n        /* \"#utility.yul\":951:1027   */\n      tag_259\n      jump\t// in\n    tag_277:\n        /* \"#utility.yul\":1081:1083   */\n      0x1f\n        /* \"#utility.yul\":1060:1075   */\n      add\n      not(0x1f)\n        /* \"#utility.yul\":1056:1085   */\n      and\n        /* \"#utility.yul\":1047:1086   */\n      swap3\n      swap1\n      swap3\n      add\n        /* \"#utility.yul\":1088:1092   */\n      0x20\n        /* \"#utility.yul\":1043:1093   */\n      add\n      swap3\n        /* \"#utility.yul\":828:1099   */\n      swap2\n      pop\n      pop\n      jump\t// out\n        /* \"#utility.yul\":1104:1324   */\n    tag_28:\n        /* \"#utility.yul\":1253:1255   */\n      0x20\n        /* \"#utility.yul\":1242:1251   */\n      dup2\n        /* \"#utility.yul\":1235:1256   */\n      mstore\n        /* \"#utility.yul\":1216:1220   */\n      0x00\n        /* \"#utility.yul\":1273:1318   */\n      tag_279\n        /* \"#utility.yul\":1314:1316   */\n      0x20\n        /* \"#utility.yul\":1303:1312   */\n      dup4\n        /* \"#utility.yul\":1299:1317   */\n      add\n        /* \"#utility.yul\":1291:1297   */\n      dup5\n        /* \"#utility.yul\":1273:1318   */\n      tag_260\n      jump\t// in\n    tag_279:\n        /* \"#utility.yul\":1265:1318   */\n      swap4\n        /* \"#utility.yul\":1104:1324   */\n      swap3\n      pop\n      pop\n      pop\n      jump\t// out\n        /* \"#utility.yul\":1537:2340   */\n    tag_42:\n        /* \"#utility.yul\":1699:1703   */\n      0x00\n        /* \"#utility.yul\":1728:1730   */\n      0x20\n        /* \"#utility.yul\":1768:1770   */\n      dup1\n        /* \"#utility.yul\":1757:1766   */\n      dup4\n        /* \"#utility.yul\":1753:1771   */\n      add\n        /* \"#utility.yul\":1798:1800   */\n      dup2\n        /* \"#utility.yul\":1787:1796   */\n      dup5\n        /* \"#utility.yul\":1780:1801   */\n      mstore\n        /* \"#utility.yul\":1821:1827   */\n      dup1\n        /* \"#utility.yul\":1856:1862   */\n      dup6\n        /* \"#utility.yul\":1850:1863   */\n      mload\n        /* \"#utility.yul\":1887:1893   */\n      dup1\n        /* \"#utility.yul\":1879:1885   */\n      dup4\n        /* \"#utility.yul\":1872:1894   */\n      mstore\n        /* \"#utility.yul\":1925:1927   */\n      0x40\n        /* \"#utility.yul\":1914:1923   */\n      dup7\n        /* \"#utility.yul\":1910:1928   */\n      add\n        /* \"#utility.yul\":1903:1928   */\n      swap2\n      pop\n        /* \"#utility.yul\":1987:1989   */\n      0x40\n        /* \"#utility.yul\":1977:1983   */\n      dup2\n        /* \"#utility.yul\":1974:1975   */\n      0x05\n        /* \"#utility.yul\":1970:1984   */\n      shl\n        /* \"#utility.yul\":1959:1968   */\n      dup8\n        /* \"#utility.yul\":1955:1985   */\n      add\n        /* \"#utility.yul\":1951:1990   */\n      add\n        /* \"#utility.yul\":1937:1990   */\n      swap3\n      pop\n        /* \"#utility.yul\":2025:2027   */\n      dup4\n        /* \"#utility.yul\":2017:2023   */\n      dup8\n        /* \"#utility.yul\":2013:2028   */\n      add\n        /* \"#utility.yul\":2046:2047   */\n      0x00\n        /* \"#utility.yul\":2056:2311   */\n    tag_282:\n        /* \"#utility.yul\":2070:2076   */\n      dup3\n        /* \"#utility.yul\":2067:2068   */\n      dup2\n        /* \"#utility.yul\":2064:2077   */\n      lt\n        /* \"#utility.yul\":2056:2311   */\n      iszero\n      tag_284\n      jumpi\n        /* \"#utility.yul\":2163:2165   */\n      0x3f\n        /* \"#utility.yul\":2159:2166   */\n      not\n        /* \"#utility.yul\":2147:2156   */\n      dup9\n        /* \"#utility.yul\":2139:2145   */\n      dup7\n        /* \"#utility.yul\":2135:2157   */\n      sub\n        /* \"#utility.yul\":2131:2167   */\n      add\n        /* \"#utility.yul\":2126:2129   */\n      dup5\n        /* \"#utility.yul\":2119:2168   */\n      mstore\n        /* \"#utility.yul\":2191:2231   */\n      tag_285\n        /* \"#utility.yul\":2224:2230   */\n      dup6\n        /* \"#utility.yul\":2215:2221   */\n      dup4\n        /* \"#utility.yul\":2209:2222   */\n      mload\n        /* \"#utility.yul\":2191:2231   */\n      tag_260\n      jump\t// in\n    tag_285:\n        /* \"#utility.yul\":2181:2231   */\n      swap5\n      pop\n        /* \"#utility.yul\":2289:2301   */\n      swap3\n      dup6\n      add\n      swap3\n        /* \"#utility.yul\":2254:2269   */\n      swap1\n      dup6\n      add\n      swap1\n        /* \"#utility.yul\":2092:2093   */\n      0x01\n        /* \"#utility.yul\":2085:2094   */\n      add\n        /* \"#utility.yul\":2056:2311   */\n      jump(tag_282)\n    tag_284:\n      pop\n        /* \"#utility.yul\":2328:2334   */\n      swap3\n      swap8\n        /* \"#utility.yul\":1537:2340   */\n      swap7\n      pop\n      pop\n      pop\n      pop\n      pop\n      pop\n      pop\n      jump\t// out\n        /* \"#utility.yul\":2345:2472   */\n    tag_261:\n        /* \"#utility.yul\":2406:2416   */\n      0x4e487b71\n        /* \"#utility.yul\":2401:2404   */\n      0xe0\n        /* \"#utility.yul\":2397:2417   */\n      shl\n        /* \"#utility.yul\":2394:2395   */\n      0x00\n        /* \"#utility.yul\":2387:2418   */\n      mstore\n        /* \"#utility.yul\":2437:2441   */\n      0x41\n        /* \"#utility.yul\":2434:2435   */\n      0x04\n        /* \"#utility.yul\":2427:2442   */\n      mstore\n        /* \"#utility.yul\":2461:2465   */\n      0x24\n        /* \"#utility.yul\":2458:2459   */\n      0x00\n        /* \"#utility.yul\":2451:2466   */\n      revert\n        /* \"#utility.yul\":2477:3196   */\n    tag_262:\n        /* \"#utility.yul\":2520:2525   */\n      0x00\n        /* \"#utility.yul\":2573:2576   */\n      dup3\n        /* \"#utility.yul\":2566:2570   */\n      0x1f\n        /* \"#utility.yul\":2558:2564   */\n      dup4\n        /* \"#utility.yul\":2554:2571   */\n      add\n        /* \"#utility.yul\":2550:2577   */\n      slt\n        /* \"#utility.yul\":2540:2595   */\n      tag_288\n      jumpi\n        /* \"#utility.yul\":2591:2592   */\n      0x00\n        /* \"#utility.yul\":2588:2589   */\n      dup1\n        /* \"#utility.yul\":2581:2593   */\n      revert\n        /* \"#utility.yul\":2540:2595   */\n    tag_288:\n        /* \"#utility.yul\":2627:2633   */\n      dup2\n        /* \"#utility.yul\":2614:2634   */\n      calldataload\n        /* \"#utility.yul\":2653:2671   */\n      0xffffffffffffffff\n        /* \"#utility.yul\":2690:2692   */\n      dup1\n        /* \"#utility.yul\":2686:2688   */\n      dup3\n        /* \"#utility.yul\":2683:2693   */\n      gt\n        /* \"#utility.yul\":2680:2716   */\n      iszero\n      tag_290\n      jumpi\n        /* \"#utility.yul\":2696:2714   */\n      tag_290\n      tag_261\n      jump\t// in\n    tag_290:\n        /* \"#utility.yul\":2771:2773   */\n      0x40\n        /* \"#utility.yul\":2765:2774   */\n      mload\n        /* \"#utility.yul\":2739:2741   */\n      0x1f\n        /* \"#utility.yul\":2825:2838   */\n      dup4\n      add\n      not(0x1f)\n        /* \"#utility.yul\":2821:2843   */\n      swap1\n      dup2\n      and\n        /* \"#utility.yul\":2845:2847   */\n      0x3f\n        /* \"#utility.yul\":2817:2848   */\n      add\n        /* \"#utility.yul\":2813:2853   */\n      and\n        /* \"#utility.yul\":2801:2854   */\n      dup2\n      add\n      swap1\n        /* \"#utility.yul\":2869:2887   */\n      dup3\n      dup3\n      gt\n        /* \"#utility.yul\":2889:2911   */\n      dup2\n      dup4\n      lt\n        /* \"#utility.yul\":2866:2912   */\n      or\n        /* \"#utility.yul\":2863:2935   */\n      iszero\n      tag_292\n      jumpi\n        /* \"#utility.yul\":2915:2933   */\n      tag_292\n      tag_261\n      jump\t// in\n    tag_292:\n        /* \"#utility.yul\":2955:2965   */\n      dup2\n        /* \"#utility.yul\":2951:2953   */\n      0x40\n        /* \"#utility.yul\":2944:2966   */\n      mstore\n        /* \"#utility.yul\":2990:2992   */\n      dup4\n        /* \"#utility.yul\":2982:2988   */\n      dup2\n        /* \"#utility.yul\":2975:2993   */\n      mstore\n        /* \"#utility.yul\":3036:3039   */\n      dup7\n        /* \"#utility.yul\":3029:3033   */\n      0x20\n        /* \"#utility.yul\":3024:3026   */\n      dup6\n        /* \"#utility.yul\":3016:3022   */\n      dup9\n        /* \"#utility.yul\":3012:3027   */\n      add\n        /* \"#utility.yul\":3008:3034   */\n      add\n        /* \"#utility.yul\":3005:3040   */\n      gt\n        /* \"#utility.yul\":3002:3057   */\n      iszero\n      tag_293\n      jumpi\n        /* \"#utility.yul\":3053:3054   */\n      0x00\n        /* \"#utility.yul\":3050:3051   */\n      dup1\n        /* \"#utility.yul\":3043:3055   */\n      revert\n        /* \"#utility.yul\":3002:3057   */\n    tag_293:\n        /* \"#utility.yul\":3117:3119   */\n      dup4\n        /* \"#utility.yul\":3110:3114   */\n      0x20\n        /* \"#utility.yul\":3102:3108   */\n      dup8\n        /* \"#utility.yul\":3098:3115   */\n      add\n        /* \"#utility.yul\":3091:3095   */\n      0x20\n        /* \"#utility.yul\":3083:3089   */\n      dup4\n        /* \"#utility.yul\":3079:3096   */\n      add\n        /* \"#utility.yul\":3066:3120   */\n      calldatacopy\n        /* \"#utility.yul\":3164:3165   */\n      0x00\n        /* \"#utility.yul\":3157:3161   */\n      0x20\n        /* \"#utility.yul\":3152:3154   */\n      dup6\n        /* \"#utility.yul\":3144:3150   */\n      dup4\n        /* \"#utility.yul\":3140:3155   */\n      add\n        /* \"#utility.yul\":3136:3162   */\n      add\n        /* \"#utility.yul\":3129:3166   */\n      mstore\n        /* \"#utility.yul\":3184:3190   */\n      dup1\n        /* \"#utility.yul\":3175:3190   */\n      swap5\n      pop\n      pop\n      pop\n      pop\n      pop\n        /* \"#utility.yul\":2477:3196   */\n      swap3\n      swap2\n      pop\n      pop\n      jump\t// out\n        /* \"#utility.yul\":3201:3744   */\n    tag_50:\n        /* \"#utility.yul\":3289:3295   */\n      0x00\n        /* \"#utility.yul\":3297:3303   */\n      dup1\n        /* \"#utility.yul\":3350:3352   */\n      0x40\n        /* \"#utility.yul\":3338:3347   */\n      dup4\n        /* \"#utility.yul\":3329:3336   */\n      dup6\n        /* \"#utility.yul\":3325:3348   */\n      sub\n        /* \"#utility.yul\":3321:3353   */\n      slt\n        /* \"#utility.yul\":3318:3370   */\n      iszero\n      tag_295\n      jumpi\n        /* \"#utility.yul\":3366:3367   */\n      0x00\n        /* \"#utility.yul\":3363:3364   */\n      dup1\n        /* \"#utility.yul\":3356:3368   */\n      revert\n        /* \"#utility.yul\":3318:3370   */\n    tag_295:\n        /* \"#utility.yul\":3406:3415   */\n      dup3\n        /* \"#utility.yul\":3393:3416   */\n      calldataload\n        /* \"#utility.yul\":3435:3453   */\n      0xffffffffffffffff\n        /* \"#utility.yul\":3476:3478   */\n      dup1\n        /* \"#utility.yul\":3468:3474   */\n      dup3\n        /* \"#utility.yul\":3465:3479   */\n      gt\n        /* \"#utility.yul\":3462:3496   */\n      iszero\n      tag_296\n      jumpi\n        /* \"#utility.yul\":3492:3493   */\n      0x00\n        /* \"#utility.yul\":3489:3490   */\n      dup1\n        /* \"#utility.yul\":3482:3494   */\n      revert\n        /* \"#utility.yul\":3462:3496   */\n    tag_296:\n        /* \"#utility.yul\":3515:3565   */\n      tag_297\n        /* \"#utility.yul\":3557:3564   */\n      dup7\n        /* \"#utility.yul\":3548:3554   */\n      dup4\n        /* \"#utility.yul\":3537:3546   */\n      dup8\n        /* \"#utility.yul\":3533:3555   */\n      add\n        /* \"#utility.yul\":3515:3565   */\n      tag_262\n      jump\t// in\n    tag_297:\n        /* \"#utility.yul\":3505:3565   */\n      swap4\n      pop\n        /* \"#utility.yul\":3618:3620   */\n      0x20\n        /* \"#utility.yul\":3607:3616   */\n      dup6\n        /* \"#utility.yul\":3603:3621   */\n      add\n        /* \"#utility.yul\":3590:3622   */\n      calldataload\n        /* \"#utility.yul\":3574:3622   */\n      swap2\n      pop\n        /* \"#utility.yul\":3647:3649   */\n      dup1\n        /* \"#utility.yul\":3637:3645   */\n      dup3\n        /* \"#utility.yul\":3634:3650   */\n      gt\n        /* \"#utility.yul\":3631:3667   */\n      iszero\n      tag_298\n      jumpi\n        /* \"#utility.yul\":3663:3664   */\n      0x00\n        /* \"#utility.yul\":3660:3661   */\n      dup1\n        /* \"#utility.yul\":3653:3665   */\n      revert\n        /* \"#utility.yul\":3631:3667   */\n    tag_298:\n      pop\n        /* \"#utility.yul\":3686:3738   */\n      tag_299\n        /* \"#utility.yul\":3730:3737   */\n      dup6\n        /* \"#utility.yul\":3719:3727   */\n      dup3\n        /* \"#utility.yul\":3708:3717   */\n      dup7\n        /* \"#utility.yul\":3704:3728   */\n      add\n        /* \"#utility.yul\":3686:3738   */\n      tag_262\n      jump\t// in\n    tag_299:\n        /* \"#utility.yul\":3676:3738   */\n      swap2\n      pop\n      pop\n        /* \"#utility.yul\":3201:3744   */\n      swap3\n      pop\n      swap3\n      swap1\n      pop\n      jump\t// out\n        /* \"#utility.yul\":3749:4129   */\n    tag_58:\n        /* \"#utility.yul\":3828:3829   */\n      0x01\n        /* \"#utility.yul\":3824:3836   */\n      dup2\n      dup2\n      shr\n      swap1\n        /* \"#utility.yul\":3871:3883   */\n      dup3\n      and\n      dup1\n        /* \"#utility.yul\":3892:3953   */\n      tag_301\n      jumpi\n        /* \"#utility.yul\":3946:3950   */\n      0x7f\n        /* \"#utility.yul\":3938:3944   */\n      dup3\n        /* \"#utility.yul\":3934:3951   */\n      and\n        /* \"#utility.yul\":3924:3951   */\n      swap2\n      pop\n        /* \"#utility.yul\":3892:3953   */\n    tag_301:\n        /* \"#utility.yul\":3999:4001   */\n      0x20\n        /* \"#utility.yul\":3991:3997   */\n      dup3\n        /* \"#utility.yul\":3988:4002   */\n      lt\n        /* \"#utility.yul\":3968:3986   */\n      dup2\n        /* \"#utility.yul\":3965:4003   */\n      sub\n        /* \"#utility.yul\":3962:4123   */\n      tag_302\n      jumpi\n        /* \"#utility.yul\":4045:4055   */\n      0x4e487b71\n        /* \"#utility.yul\":4040:4043   */\n      0xe0\n        /* \"#utility.yul\":4036:4056   */\n      shl\n        /* \"#utility.yul\":4033:4034   */\n      0x00\n        /* \"#utility.yul\":4026:4057   */\n      mstore\n        /* \"#utility.yul\":4080:4084   */\n      0x22\n        /* \"#utility.yul\":4077:4078   */\n      0x04\n        /* \"#utility.yul\":4070:4085   */\n      mstore\n        /* \"#utility.yul\":4108:4112   */\n      0x24\n        /* \"#utility.yul\":4105:4106   */\n      0x00\n        /* \"#utility.yul\":4098:4113   */\n      revert\n        /* \"#utility.yul\":3962:4123   */\n    tag_302:\n      pop\n        /* \"#utility.yul\":3749:4129   */\n      swap2\n      swap1\n      pop\n      jump\t// out\n        /* \"#utility.yul\":4491:4618   */\n    tag_75:\n        /* \"#utility.yul\":4552:4562   */\n      0x4e487b71\n        /* \"#utility.yul\":4547:4550   */\n      0xe0\n        /* \"#utility.yul\":4543:4563   */\n      shl\n        /* \"#utility.yul\":4540:4541   */\n      0x00\n        /* \"#utility.yul\":4533:4564   */\n      mstore\n        /* \"#utility.yul\":4583:4587   */\n      0x32\n        /* \"#utility.yul\":4580:4581   */\n      0x04\n        /* \"#utility.yul\":4573:4588   */\n      mstore\n        /* \"#utility.yul\":4607:4611   */\n      0x24\n        /* \"#utility.yul\":4604:4605   */\n      0x00\n        /* \"#utility.yul\":4597:4612   */\n      revert\n        /* \"#utility.yul\":5789:6334   */\n    tag_264:\n        /* \"#utility.yul\":5891:5893   */\n      0x1f\n        /* \"#utility.yul\":5886:5889   */\n      dup3\n        /* \"#utility.yul\":5883:5894   */\n      gt\n        /* \"#utility.yul\":5880:6328   */\n      iszero\n      tag_310\n      jumpi\n        /* \"#utility.yul\":5927:5928   */\n      0x00\n        /* \"#utility.yul\":5952:5957   */\n      dup2\n        /* \"#utility.yul\":5948:5950   */\n      dup2\n        /* \"#utility.yul\":5941:5958   */\n      mstore\n        /* \"#utility.yul\":5997:6001   */\n      0x20\n        /* \"#utility.yul\":5993:5995   */\n      dup2\n        /* \"#utility.yul\":5983:6002   */\n      keccak256\n        /* \"#utility.yul\":6067:6069   */\n      0x1f\n        /* \"#utility.yul\":6055:6065   */\n      dup6\n        /* \"#utility.yul\":6051:6070   */\n      add\n        /* \"#utility.yul\":6048:6049   */\n      0x05\n        /* \"#utility.yul\":6044:6071   */\n      shr\n        /* \"#utility.yul\":6038:6042   */\n      dup2\n        /* \"#utility.yul\":6034:6072   */\n      add\n        /* \"#utility.yul\":6103:6107   */\n      0x20\n        /* \"#utility.yul\":6091:6101   */\n      dup7\n        /* \"#utility.yul\":6088:6108   */\n      lt\n        /* \"#utility.yul\":6085:6132   */\n      iszero\n      tag_311\n      jumpi\n      pop\n        /* \"#utility.yul\":6126:6130   */\n      dup1\n        /* \"#utility.yul\":6085:6132   */\n    tag_311:\n        /* \"#utility.yul\":6181:6183   */\n      0x1f\n        /* \"#utility.yul\":6176:6179   */\n      dup6\n        /* \"#utility.yul\":6172:6184   */\n      add\n        /* \"#utility.yul\":6169:6170   */\n      0x05\n        /* \"#utility.yul\":6165:6185   */\n      shr\n        /* \"#utility.yul\":6159:6163   */\n      dup3\n        /* \"#utility.yul\":6155:6186   */\n      add\n        /* \"#utility.yul\":6145:6186   */\n      swap2\n      pop\n        /* \"#utility.yul\":6236:6318   */\n    tag_312:\n        /* \"#utility.yul\":6254:6256   */\n      dup2\n        /* \"#utility.yul\":6247:6252   */\n      dup2\n        /* \"#utility.yul\":6244:6257   */\n      lt\n        /* \"#utility.yul\":6236:6318   */\n      iszero\n      tag_314\n      jumpi\n        /* \"#utility.yul\":6299:6316   */\n      dup3\n      dup2\n      sstore\n        /* \"#utility.yul\":6280:6281   */\n      0x01\n        /* \"#utility.yul\":6269:6282   */\n      add\n        /* \"#utility.yul\":6236:6318   */\n      jump(tag_312)\n    tag_314:\n        /* \"#utility.yul\":6240:6243   */\n      pop\n      pop\n      pop\n        /* \"#utility.yul\":5880:6328   */\n    tag_310:\n        /* \"#utility.yul\":5789:6334   */\n      pop\n      pop\n      pop\n      jump\t// out\n        /* \"#utility.yul\":6510:7945   */\n    tag_103:\n        /* \"#utility.yul\":6629:6632   */\n      dup2\n        /* \"#utility.yul\":6623:6627   */\n      dup2\n        /* \"#utility.yul\":6620:6633   */\n      sub\n        /* \"#utility.yul\":6617:6643   */\n      tag_317\n      jumpi\n        /* \"#utility.yul\":6636:6641   */\n      pop\n      pop\n        /* \"#utility.yul\":6510:7945   */\n      jump\t// out\n        /* \"#utility.yul\":6617:6643   */\n    tag_317:\n        /* \"#utility.yul\":6666:6703   */\n      tag_318\n        /* \"#utility.yul\":6698:6701   */\n      dup3\n        /* \"#utility.yul\":6692:6702   */\n      sload\n        /* \"#utility.yul\":6666:6703   */\n      tag_58\n      jump\t// in\n    tag_318:\n        /* \"#utility.yul\":6726:6744   */\n      0xffffffffffffffff\n        /* \"#utility.yul\":6718:6724   */\n      dup2\n        /* \"#utility.yul\":6715:6745   */\n      gt\n        /* \"#utility.yul\":6712:6768   */\n      iszero\n      tag_320\n      jumpi\n        /* \"#utility.yul\":6748:6766   */\n      tag_320\n      tag_261\n      jump\t// in\n    tag_320:\n        /* \"#utility.yul\":6777:6874   */\n      tag_321\n        /* \"#utility.yul\":6867:6873   */\n      dup2\n        /* \"#utility.yul\":6827:6865   */\n      tag_322\n        /* \"#utility.yul\":6859:6863   */\n      dup5\n        /* \"#utility.yul\":6853:6864   */\n      sload\n        /* \"#utility.yul\":6827:6865   */\n      tag_58\n      jump\t// in\n    tag_322:\n        /* \"#utility.yul\":6821:6825   */\n      dup5\n        /* \"#utility.yul\":6777:6874   */\n      tag_264\n      jump\t// in\n    tag_321:\n        /* \"#utility.yul\":6900:6901   */\n      0x00\n        /* \"#utility.yul\":6928:6930   */\n      0x1f\n        /* \"#utility.yul\":6920:6926   */\n      dup3\n        /* \"#utility.yul\":6917:6931   */\n      gt\n        /* \"#utility.yul\":6945:6946   */\n      0x01\n        /* \"#utility.yul\":6940:7688   */\n      dup2\n      eq\n      tag_324\n      jumpi\n        /* \"#utility.yul\":7732:7733   */\n      0x00\n        /* \"#utility.yul\":7749:7755   */\n      dup4\n        /* \"#utility.yul\":7746:7835   */\n      iszero\n      tag_325\n      jumpi\n      pop\n        /* \"#utility.yul\":7801:7820   */\n      dup5\n      dup3\n      add\n        /* \"#utility.yul\":7795:7821   */\n      sload\n        /* \"#utility.yul\":7746:7835   */\n    tag_325:\n      not(0x00)\n        /* \"#utility.yul\":6467:6468   */\n      0x03\n        /* \"#utility.yul\":6463:6474   */\n      dup6\n      swap1\n      shl\n        /* \"#utility.yul\":6459:6483   */\n      shr\n        /* \"#utility.yul\":6455:6484   */\n      not\n        /* \"#utility.yul\":6445:6485   */\n      and\n        /* \"#utility.yul\":6491:6492   */\n      0x01\n        /* \"#utility.yul\":6487:6498   */\n      dup5\n      swap1\n      shl\n        /* \"#utility.yul\":6442:6499   */\n      or\n        /* \"#utility.yul\":7848:7929   */\n      dup5\n      sstore\n        /* \"#utility.yul\":6910:7939   */\n      jump(tag_323)\n        /* \"#utility.yul\":6940:7688   */\n    tag_324:\n        /* \"#utility.yul\":5736:5737   */\n      0x00\n        /* \"#utility.yul\":5729:5743   */\n      dup6\n      dup2\n      mstore\n        /* \"#utility.yul\":5773:5777   */\n      0x20\n        /* \"#utility.yul\":5760:5778   */\n      swap1\n      keccak256\n      not(0x1f)\n        /* \"#utility.yul\":6976:6996   */\n      dup5\n      and\n      swap1\n        /* \"#utility.yul\":5736:5737   */\n      0x00\n        /* \"#utility.yul\":5729:5743   */\n      dup7\n      dup2\n      mstore\n        /* \"#utility.yul\":5773:5777   */\n      0x20\n        /* \"#utility.yul\":5760:5778   */\n      swap1\n      keccak256\n        /* \"#utility.yul\":7140:7149   */\n      dup5\n        /* \"#utility.yul\":7162:7413   */\n    tag_329:\n        /* \"#utility.yul\":7176:7183   */\n      dup4\n        /* \"#utility.yul\":7173:7174   */\n      dup2\n        /* \"#utility.yul\":7170:7184   */\n      lt\n        /* \"#utility.yul\":7162:7413   */\n      iszero\n      tag_331\n      jumpi\n        /* \"#utility.yul\":7258:7279   */\n      dup3\n      dup7\n      add\n        /* \"#utility.yul\":7252:7280   */\n      sload\n        /* \"#utility.yul\":7237:7281   */\n      dup3\n      sstore\n        /* \"#utility.yul\":7308:7309   */\n      0x01\n        /* \"#utility.yul\":7381:7399   */\n      swap6\n      dup7\n      add\n      swap6\n        /* \"#utility.yul\":7336:7351   */\n      swap1\n      swap2\n      add\n      swap1\n        /* \"#utility.yul\":7199:7203   */\n      0x20\n        /* \"#utility.yul\":7192:7204   */\n      add\n        /* \"#utility.yul\":7162:7413   */\n      jump(tag_329)\n    tag_331:\n        /* \"#utility.yul\":7166:7169   */\n      pop\n        /* \"#utility.yul\":7441:7447   */\n      dup6\n        /* \"#utility.yul\":7432:7439   */\n      dup4\n        /* \"#utility.yul\":7429:7448   */\n      lt\n        /* \"#utility.yul\":7426:7629   */\n      iszero\n      tag_332\n      jumpi\n        /* \"#utility.yul\":7502:7523   */\n      dup2\n      dup6\n      add\n        /* \"#utility.yul\":7496:7524   */\n      sload\n      not(0x00)\n        /* \"#utility.yul\":7587:7588   */\n      0x03\n        /* \"#utility.yul\":7583:7597   */\n      dup9\n      swap1\n      shl\n        /* \"#utility.yul\":7599:7602   */\n      0xf8\n        /* \"#utility.yul\":7579:7603   */\n      and\n        /* \"#utility.yul\":7575:7612   */\n      shr\n        /* \"#utility.yul\":7571:7613   */\n      not\n        /* \"#utility.yul\":7556:7614   */\n      and\n        /* \"#utility.yul\":7541:7615   */\n      dup2\n      sstore\n        /* \"#utility.yul\":7426:7629   */\n    tag_332:\n      pop\n      pop\n      pop\n        /* \"#utility.yul\":7675:7676   */\n      0x01\n        /* \"#utility.yul\":7666:7672   */\n      dup4\n        /* \"#utility.yul\":7663:7664   */\n      0x01\n        /* \"#utility.yul\":7659:7673   */\n      shl\n        /* \"#utility.yul\":7655:7677   */\n      add\n        /* \"#utility.yul\":7649:7653   */\n      dup5\n        /* \"#utility.yul\":7642:7678   */\n      sstore\n        /* \"#utility.yul\":6910:7939   */\n    tag_323:\n      pop\n      pop\n      pop\n        /* \"#utility.yul\":6510:7945   */\n      pop\n      pop\n      jump\t// out\n        /* \"#utility.yul\":7950:8722   */\n    tag_266:\n        /* \"#utility.yul\":8000:8003   */\n      0x00\n        /* \"#utility.yul\":8041:8046   */\n      dup2\n        /* \"#utility.yul\":8035:8047   */\n      sload\n        /* \"#utility.yul\":8070:8106   */\n      tag_334\n        /* \"#utility.yul\":8096:8105   */\n      dup2\n        /* \"#utility.yul\":8070:8106   */\n      tag_58\n      jump\t// in\n    tag_334:\n        /* \"#utility.yul\":8115:8134   */\n      dup1\n      dup6\n      mstore\n        /* \"#utility.yul\":8153:8157   */\n      0x20\n        /* \"#utility.yul\":8176:8177   */\n      0x01\n        /* \"#utility.yul\":8193:8211   */\n      dup4\n      dup2\n      and\n        /* \"#utility.yul\":8220:8366   */\n      dup1\n      iszero\n      tag_336\n      jumpi\n        /* \"#utility.yul\":8380:8381   */\n      0x01\n        /* \"#utility.yul\":8375:8716   */\n      dup2\n      eq\n      tag_337\n      jumpi\n        /* \"#utility.yul\":8186:8716   */\n      jump(tag_335)\n        /* \"#utility.yul\":8220:8366   */\n    tag_336:\n      not(0xff)\n        /* \"#utility.yul\":8262:8286   */\n      dup6\n      and\n        /* \"#utility.yul\":8248:8260   */\n      dup9\n      dup5\n      add\n        /* \"#utility.yul\":8241:8287   */\n      mstore\n        /* \"#utility.yul\":8334:8348   */\n      dup4\n      iszero\n        /* \"#utility.yul\":8327:8349   */\n      iszero\n        /* \"#utility.yul\":8324:8325   */\n      0x05\n        /* \"#utility.yul\":8320:8350   */\n      shl\n        /* \"#utility.yul\":8311:8351   */\n      dup9\n      add\n        /* \"#utility.yul\":8307:8356   */\n      dup4\n      add\n      swap6\n      pop\n        /* \"#utility.yul\":8220:8366   */\n      jump(tag_335)\n        /* \"#utility.yul\":8375:8716   */\n    tag_337:\n        /* \"#utility.yul\":8406:8411   */\n      dup7\n        /* \"#utility.yul\":8403:8404   */\n      0x00\n        /* \"#utility.yul\":8396:8412   */\n      mstore\n        /* \"#utility.yul\":8453:8455   */\n      dup3\n        /* \"#utility.yul\":8450:8451   */\n      0x00\n        /* \"#utility.yul\":8440:8456   */\n      keccak256\n        /* \"#utility.yul\":8478:8479   */\n      0x00\n        /* \"#utility.yul\":8492:8666   */\n    tag_338:\n        /* \"#utility.yul\":8506:8512   */\n      dup6\n        /* \"#utility.yul\":8503:8504   */\n      dup2\n        /* \"#utility.yul\":8500:8513   */\n      lt\n        /* \"#utility.yul\":8492:8666   */\n      iszero\n      tag_340\n      jumpi\n        /* \"#utility.yul\":8593:8607   */\n      dup2\n      sload\n        /* \"#utility.yul\":8575:8586   */\n      dup11\n      dup3\n      add\n        /* \"#utility.yul\":8571:8591   */\n      dup7\n      add\n        /* \"#utility.yul\":8564:8608   */\n      mstore\n        /* \"#utility.yul\":8636:8652   */\n      swap1\n      dup4\n      add\n      swap1\n        /* \"#utility.yul\":8521:8531   */\n      dup5\n      add\n        /* \"#utility.yul\":8492:8666   */\n      jump(tag_338)\n    tag_340:\n        /* \"#utility.yul\":8690:8701   */\n      dup10\n      add\n        /* \"#utility.yul\":8686:8706   */\n      dup5\n      add\n      swap7\n      pop\n      pop\n        /* \"#utility.yul\":8186:8716   */\n    tag_335:\n      pop\n      pop\n      pop\n      pop\n      pop\n        /* \"#utility.yul\":7950:8722   */\n      swap3\n      swap2\n      pop\n      pop\n      jump\t// out\n        /* \"#utility.yul\":8727:9551   */\n    tag_105:\n        /* \"#utility.yul\":8883:8887   */\n      0x00\n        /* \"#utility.yul\":8912:8914   */\n      0x20\n        /* \"#utility.yul\":8952:8954   */\n      dup1\n        /* \"#utility.yul\":8941:8950   */\n      dup4\n        /* \"#utility.yul\":8937:8955   */\n      add\n        /* \"#utility.yul\":8982:8984   */\n      dup2\n        /* \"#utility.yul\":8971:8980   */\n      dup5\n        /* \"#utility.yul\":8964:8985   */\n      mstore\n        /* \"#utility.yul\":9005:9011   */\n      dup1\n        /* \"#utility.yul\":9040:9046   */\n      dup6\n        /* \"#utility.yul\":9034:9047   */\n      sload\n        /* \"#utility.yul\":9071:9077   */\n      dup1\n        /* \"#utility.yul\":9063:9069   */\n      dup4\n        /* \"#utility.yul\":9056:9078   */\n      mstore\n        /* \"#utility.yul\":9109:9111   */\n      0x40\n        /* \"#utility.yul\":9098:9107   */\n      dup7\n        /* \"#utility.yul\":9094:9112   */\n      add\n        /* \"#utility.yul\":9087:9112   */\n      swap2\n      pop\n        /* \"#utility.yul\":9171:9173   */\n      0x40\n        /* \"#utility.yul\":9161:9167   */\n      dup2\n        /* \"#utility.yul\":9158:9159   */\n      0x05\n        /* \"#utility.yul\":9154:9168   */\n      shl\n        /* \"#utility.yul\":9143:9152   */\n      dup8\n        /* \"#utility.yul\":9139:9169   */\n      add\n        /* \"#utility.yul\":9135:9174   */\n      add\n        /* \"#utility.yul\":9121:9174   */\n      swap3\n      pop\n        /* \"#utility.yul\":9193:9199   */\n      dup7\n        /* \"#utility.yul\":9190:9191   */\n      0x00\n        /* \"#utility.yul\":9183:9200   */\n      mstore\n        /* \"#utility.yul\":9236:9238   */\n      dup4\n        /* \"#utility.yul\":9233:9234   */\n      0x00\n        /* \"#utility.yul\":9223:9239   */\n      keccak256\n        /* \"#utility.yul\":9257:9258   */\n      0x00\n        /* \"#utility.yul\":9267:9522   */\n    tag_342:\n        /* \"#utility.yul\":9281:9287   */\n      dup3\n        /* \"#utility.yul\":9278:9279   */\n      dup2\n        /* \"#utility.yul\":9275:9288   */\n      lt\n        /* \"#utility.yul\":9267:9522   */\n      iszero\n      tag_284\n      jumpi\n        /* \"#utility.yul\":9346:9368   */\n      dup8\n      dup6\n      sub\n      not(0x3f)\n        /* \"#utility.yul\":9342:9378   */\n      add\n        /* \"#utility.yul\":9330:9379   */\n      dup5\n      mstore\n        /* \"#utility.yul\":9402:9443   */\n      tag_345\n        /* \"#utility.yul\":9350:9356   */\n      dup6\n        /* \"#utility.yul\":9428:9434   */\n      dup4\n        /* \"#utility.yul\":9402:9443   */\n      tag_266\n      jump\t// in\n    tag_345:\n        /* \"#utility.yul\":9392:9443   */\n      swap5\n      pop\n        /* \"#utility.yul\":9500:9512   */\n      swap3\n      dup6\n      add\n      swap3\n        /* \"#utility.yul\":9478:9479   */\n      0x01\n        /* \"#utility.yul\":9466:9480   */\n      swap2\n      dup3\n      add\n      swap2\n        /* \"#utility.yul\":9296:9305   */\n      add\n        /* \"#utility.yul\":9267:9522   */\n      jump(tag_342)\n        /* \"#utility.yul\":9556:10908   */\n    tag_119:\n        /* \"#utility.yul\":9682:9685   */\n      dup2\n        /* \"#utility.yul\":9676:9686   */\n      mload\n        /* \"#utility.yul\":9709:9727   */\n      0xffffffffffffffff\n        /* \"#utility.yul\":9701:9707   */\n      dup2\n        /* \"#utility.yul\":9698:9728   */\n      gt\n        /* \"#utility.yul\":9695:9751   */\n      iszero\n      tag_348\n      jumpi\n        /* \"#utility.yul\":9731:9749   */\n      tag_348\n      tag_261\n      jump\t// in\n    tag_348:\n        /* \"#utility.yul\":9760:9857   */\n      tag_349\n        /* \"#utility.yul\":9850:9856   */\n      dup2\n        /* \"#utility.yul\":9810:9848   */\n      tag_322\n        /* \"#utility.yul\":9842:9846   */\n      dup5\n        /* \"#utility.yul\":9836:9847   */\n      sload\n        /* \"#utility.yul\":9810:9848   */\n      tag_58\n      jump\t// in\n        /* \"#utility.yul\":9760:9857   */\n    tag_349:\n        /* \"#utility.yul\":9912:9916   */\n      0x20\n      dup1\n        /* \"#utility.yul\":9976:9978   */\n      0x1f\n        /* \"#utility.yul\":9965:9979   */\n      dup4\n      gt\n        /* \"#utility.yul\":9993:9994   */\n      0x01\n        /* \"#utility.yul\":9988:10651   */\n      dup2\n      eq\n      tag_352\n      jumpi\n        /* \"#utility.yul\":10695:10696   */\n      0x00\n        /* \"#utility.yul\":10712:10718   */\n      dup5\n        /* \"#utility.yul\":10709:10798   */\n      iszero\n      tag_353\n      jumpi\n      pop\n        /* \"#utility.yul\":10764:10783   */\n      dup6\n      dup4\n      add\n        /* \"#utility.yul\":10758:10784   */\n      mload\n        /* \"#utility.yul\":10709:10798   */\n    tag_353:\n      not(0x00)\n        /* \"#utility.yul\":6467:6468   */\n      0x03\n        /* \"#utility.yul\":6463:6474   */\n      dup7\n      swap1\n      shl\n        /* \"#utility.yul\":6459:6483   */\n      shr\n        /* \"#utility.yul\":6455:6484   */\n      not\n        /* \"#utility.yul\":6445:6485   */\n      and\n        /* \"#utility.yul\":6491:6492   */\n      0x01\n        /* \"#utility.yul\":6487:6498   */\n      dup6\n      swap1\n      shl\n        /* \"#utility.yul\":6442:6499   */\n      or\n        /* \"#utility.yul\":10811:10892   */\n      dup6\n      sstore\n        /* \"#utility.yul\":9958:10902   */\n      jump(tag_314)\n        /* \"#utility.yul\":9988:10651   */\n    tag_352:\n        /* \"#utility.yul\":5736:5737   */\n      0x00\n        /* \"#utility.yul\":5729:5743   */\n      dup6\n      dup2\n      mstore\n        /* \"#utility.yul\":5773:5777   */\n      0x20\n        /* \"#utility.yul\":5760:5778   */\n      dup2\n      keccak256\n      not(0x1f)\n        /* \"#utility.yul\":10024:10044   */\n      dup7\n      and\n      swap2\n        /* \"#utility.yul\":10142:10378   */\n    tag_356:\n        /* \"#utility.yul\":10156:10163   */\n      dup3\n        /* \"#utility.yul\":10153:10154   */\n      dup2\n        /* \"#utility.yul\":10150:10164   */\n      lt\n        /* \"#utility.yul\":10142:10378   */\n      iszero\n      tag_358\n      jumpi\n        /* \"#utility.yul\":10245:10264   */\n      dup9\n      dup7\n      add\n        /* \"#utility.yul\":10239:10265   */\n      mload\n        /* \"#utility.yul\":10224:10266   */\n      dup3\n      sstore\n        /* \"#utility.yul\":10337:10364   */\n      swap5\n      dup5\n      add\n      swap5\n        /* \"#utility.yul\":10305:10306   */\n      0x01\n        /* \"#utility.yul\":10293:10307   */\n      swap1\n      swap2\n      add\n      swap1\n        /* \"#utility.yul\":10172:10191   */\n      dup5\n      add\n        /* \"#utility.yul\":10142:10378   */\n      jump(tag_356)\n    tag_358:\n        /* \"#utility.yul\":10146:10149   */\n      pop\n        /* \"#utility.yul\":10406:10412   */\n      dup6\n        /* \"#utility.yul\":10397:10404   */\n      dup3\n        /* \"#utility.yul\":10394:10413   */\n      lt\n        /* \"#utility.yul\":10391:10592   */\n      iszero\n      tag_359\n      jumpi\n        /* \"#utility.yul\":10467:10486   */\n      dup8\n      dup6\n      add\n        /* \"#utility.yul\":10461:10487   */\n      mload\n      not(0x00)\n        /* \"#utility.yul\":10550:10551   */\n      0x03\n        /* \"#utility.yul\":10546:10560   */\n      dup9\n      swap1\n      shl\n        /* \"#utility.yul\":10562:10565   */\n      0xf8\n        /* \"#utility.yul\":10542:10566   */\n      and\n        /* \"#utility.yul\":10538:10575   */\n      shr\n        /* \"#utility.yul\":10534:10576   */\n      not\n        /* \"#utility.yul\":10519:10577   */\n      and\n        /* \"#utility.yul\":10504:10578   */\n      dup2\n      sstore\n        /* \"#utility.yul\":10391:10592   */\n    tag_359:\n      pop\n      pop\n      pop\n      pop\n      pop\n        /* \"#utility.yul\":10638:10639   */\n      0x01\n        /* \"#utility.yul\":10622:10636   */\n      swap1\n      dup2\n      shl\n        /* \"#utility.yul\":10618:10640   */\n      add\n        /* \"#utility.yul\":10605:10641   */\n      swap1\n      sstore\n      pop\n        /* \"#utility.yul\":9556:10908   */\n      jump\t// out\n        /* \"#utility.yul\":10913:11138   */\n    tag_123:\n        /* \"#utility.yul\":11059:11061   */\n      0x20\n        /* \"#utility.yul\":11048:11057   */\n      dup2\n        /* \"#utility.yul\":11041:11062   */\n      mstore\n        /* \"#utility.yul\":11022:11026   */\n      0x00\n        /* \"#utility.yul\":11079:11132   */\n      tag_279\n        /* \"#utility.yul\":11128:11130   */\n      0x20\n        /* \"#utility.yul\":11117:11126   */\n      dup4\n        /* \"#utility.yul\":11113:11131   */\n      add\n        /* \"#utility.yul\":11105:11111   */\n      dup5\n        /* \"#utility.yul\":11079:11132   */\n      tag_266\n      jump\t// in\n        /* \"#utility.yul\":11143:11432   */\n    tag_126:\n        /* \"#utility.yul\":11274:11277   */\n      0x00\n        /* \"#utility.yul\":11312:11318   */\n      dup3\n        /* \"#utility.yul\":11306:11319   */\n      mload\n        /* \"#utility.yul\":11328:11394   */\n      tag_363\n        /* \"#utility.yul\":11387:11393   */\n      dup2\n        /* \"#utility.yul\":11382:11385   */\n      dup5\n        /* \"#utility.yul\":11375:11379   */\n      0x20\n        /* \"#utility.yul\":11367:11373   */\n      dup8\n        /* \"#utility.yul\":11363:11380   */\n      add\n        /* \"#utility.yul\":11328:11394   */\n      tag_259\n      jump\t// in\n    tag_363:\n        /* \"#utility.yul\":11410:11426   */\n      swap2\n      swap1\n      swap2\n      add\n      swap3\n        /* \"#utility.yul\":11143:11432   */\n      swap2\n      pop\n      pop\n      jump\t// out\n        /* \"#utility.yul\":11437:11669   */\n    tag_132:\n        /* \"#utility.yul\":11476:11479   */\n      0x00\n        /* \"#utility.yul\":11497:11514   */\n      0x01\n      dup3\n      add\n        /* \"#utility.yul\":11494:11634   */\n      tag_365\n      jumpi\n        /* \"#utility.yul\":11556:11566   */\n      0x4e487b71\n        /* \"#utility.yul\":11551:11554   */\n      0xe0\n        /* \"#utility.yul\":11547:11567   */\n      shl\n        /* \"#utility.yul\":11544:11545   */\n      0x00\n        /* \"#utility.yul\":11537:11568   */\n      mstore\n        /* \"#utility.yul\":11591:11595   */\n      0x11\n        /* \"#utility.yul\":11588:11589   */\n      0x04\n        /* \"#utility.yul\":11581:11596   */\n      mstore\n        /* \"#utility.yul\":11619:11623   */\n      0x24\n        /* \"#utility.yul\":11616:11617   */\n      0x00\n        /* \"#utility.yul\":11609:11624   */\n      revert\n        /* \"#utility.yul\":11494:11634   */\n    tag_365:\n      pop\n        /* \"#utility.yul\":11661:11662   */\n      0x01\n        /* \"#utility.yul\":11650:11663   */\n      add\n      swap1\n        /* \"#utility.yul\":11437:11669   */\n      jump\t// out\n\n    auxdata: 0xa26469706673582212205589090805e34be30c97dbecb392bc709e92b0f9e709d0ad658b820c6b1dd60c64736f6c63430008130033\n}\n",
				"bytecode": {
					"linkReferences": {},
					"object": "600060028190556101a081815260809081526101c082815260a0526101e082815260c05261020082815260e052610220828152610100526102408281526101205261026082815261014052610280828152610160526102c06040526102a09182526101809190915262000077906003906009620001dc565b506004805460ff191690556040805180820190915260018152600b60fb1b6020820152600590620000a9908262000444565b5060408051610160810182526000610100820181815260016101208401819052600261014085018190529184528451606081810187526003808352600460208481018290526005858b01819052818a019590955289518085018b52600680825260078284018190526008838e018190528c8e01939093528c518088018e528b815280850196909652858d01829052868c01959095528b518087018d52978852878301849052878c019490945260808a019690965289518085018b5287815280820195909552848a0186905260a089019490945288518084018a5296875286840181905286890185905260c0880196909652875191820188529381529081019390935293820181905260e0830191909152620001c79290919062000239565b50348015620001d557600080fd5b5062000510565b82805482825590600052602060002090810192821562000227579160200282015b8281111562000227578251829062000216908262000444565b5091602001919060010190620001fd565b506200023592915062000293565b5090565b82805482825590600052602060002090810192821562000285579160200282015b8281111562000285578251620002749083906003620002b4565b50916020019190600101906200025a565b506200023592915062000305565b8082111562000235576000620002aa828262000326565b5060010162000293565b828054828255906000526020600020908101928215620002f7579160200282015b82811115620002f7578251829060ff16905591602001919060010190620002d5565b506200023592915062000368565b80821115620002355760006200031c82826200037f565b5060010162000305565b5080546200033490620003b5565b6000825580601f1062000345575050565b601f01602090049060005260206000209081019062000365919062000368565b50565b5b8082111562000235576000815560010162000369565b508054600082559060005260206000209081019062000365919062000368565b634e487b7160e01b600052604160045260246000fd5b600181811c90821680620003ca57607f821691505b602082108103620003eb57634e487b7160e01b600052602260045260246000fd5b50919050565b601f8211156200043f57600081815260208120601f850160051c810160208610156200041a5750805b601f850160051c820191505b818110156200043b5782815560010162000426565b5050505b505050565b81516001600160401b038111156200046057620004606200039f565b6200047881620004718454620003b5565b84620003f1565b602080601f831160018114620004b05760008415620004975750858301515b600019600386901b1c1916600185901b1785556200043b565b600085815260208120601f198616915b82811015620004e157888601518255948401946001909101908401620004c0565b5085821015620005005787850151600019600388901b60f8161c191681555b5050505050600190811b01905550565b61154780620005206000396000f3fe608060405234801561001057600080fd5b50600436106100a95760003560e01c806355a5c3011161007157806355a5c3011461012457806363f4150e1461014f5780637d39620b146101645780638d25af0414610177578063bed34bba1461017f578063d4f77b1c1461019257600080fd5b80630f15f4c0146100ae578063302bcc57146100d0578063409e2205146100e75780634404a4381461010757806352fc48551461010f575b600080fd5b6004546100bb9060ff1681565b60405190151581526020015b60405180910390f35b6100d960025481565b6040519081526020016100c7565b6100fa6100f5366004610fbf565b61019a565b6040516100c79190611028565b6100fa610246565b61012261011d366004610fbf565b610253565b005b600054610137906001600160a01b031681565b6040516001600160a01b0390911681526020016100c7565b61015761056c565b6040516100c79190611042565b600154610137906001600160a01b031681565b610122610645565b6100bb61018d366004611147565b610775565b6101226107ce565b600381815481106101aa57600080fd5b9060005260206000200160009150905080546101c5906111ab565b80601f01602080910402602001604051908101604052809291908181526020018280546101f1906111ab565b801561023e5780601f106102135761010080835404028352916020019161023e565b820191906000526020600020905b81548152906001019060200180831161022157829003601f168201915b505050505081565b600580546101c5906111ab565b60045460ff166102aa5760405162461bcd60e51b815260206004820152601c60248201527f5468652067616d65207374696c6c206e6f74207374617274207965740000000060448201526064015b60405180910390fd5b610368600382815481106102c0576102c06111e5565b9060005260206000200180546102d5906111ab565b80601f0160208091040260200160405190810160405280929190818152602001828054610301906111ab565b801561034e5780601f106103235761010080835404028352916020019161034e565b820191906000526020600020905b81548152906001019060200180831161033157829003601f168201915b505050505060405180602001604052806000815250610775565b6103a45760405162461bcd60e51b815260206004820152600d60248201526c125b9d985b1a59081a5b9c1d5d609a1b60448201526064016102a1565b610451600580546103b4906111ab565b80601f01602080910402602001604051908101604052809291908181526020018280546103e0906111ab565b801561042d5780601f106104025761010080835404028352916020019161042d565b820191906000526020600020905b81548152906001019060200180831161041057829003601f168201915b5050505050604051806040016040528060018152602001600b60fb1b815250610775565b156104ac576000546001600160a01b031633146104a75760405162461bcd60e51b8152602060048201526014602482015273596f7520617265206e6f7420706c61796572203160601b60448201526064016102a1565b6104fd565b6001546001600160a01b031633146104fd5760405162461bcd60e51b81526020600482015260146024820152732cb7ba9030b932903737ba10383630bcb2b9101960611b60448201526064016102a1565b600560038281548110610512576105126111e5565b906000526020600020019081610528919061124a565b507fd77f94cc29111f7dbd8555e9587fc989a0cf9fa417821f33e2f02913794bebb0600360405161055991906113a8565b60405180910390a1610569610971565b50565b60606003805480602002602001604051908101604052809291908181526020016000905b8282101561063c5783829060005260206000200180546105af906111ab565b80601f01602080910402602001604051908101604052809291908181526020018280546105db906111ab565b80156106285780601f106105fd57610100808354040283529160200191610628565b820191906000526020600020905b81548152906001019060200180831161060b57829003601f168201915b505050505081526020019060010190610590565b50505050905090565b6040805180820190915260018152600b60fb1b602082015260059061066a9082611401565b5060408051610140810182526000610120820181815282528251602081810185528282528084019190915283518082018552828152838501528351808201855282815260608401528351808201855282815260808401528351808201855282815260a08401528351808201855282815260c08401528351808201855282815260e08401528351908101909352825261010081019190915261070f906003906009610f02565b507f12028463284aa79a2cec858ff157451112ecff237cda43248ebb797c814f661c600560405161074091906114bb565b60405180910390a1600060028190556004805460ff1916905580546001600160a01b0319908116909155600180549091169055565b60008160405160200161078891906114ce565b60405160208183030381529060405280519060200120836040516020016107af91906114ce565b6040516020818303038152906040528051906020012014905092915050565b600254600003610807576107e0610645565b600080546001600160a01b031916331781556002805491610800836114ea565b9190505550565b60025460010361091e576000546001600160a01b031633036108775760405162461bcd60e51b8152602060048201526024808201527f4572726f723a20596f752063616e6e6f7420706c6179207769746820796f757260448201526339b2b63360e11b60648201526084016102a1565b600180546001600160a01b0319163317905560028054906000610899836114ea565b90915550506004805460ff191660019081179091556000549054604080516060808252600b908201526a53746172742067616d652160a81b60808201526001600160a01b03938416602082015292909116908201527fe731305b65099c3b743324657b0ef6cc0638875c5469a8e5bde1765300c0b9b29060a0015b60405180910390a1565b600280541061096f5760405162461bcd60e51b815260206004820152601c60248201527f4e6f772071756575652069732066756c6c2c20747279206c617465720000000060448201526064016102a1565b565b6000805b600654811015610ce457600060068281548110610994576109946111e5565b906000526020600020018054806020026020016040519081016040528092919081815260200182805480156109e857602002820191906000526020600020905b8154815260200190600101908083116109d4575b505050505090506000600382600081518110610a0657610a066111e5565b602002602001015181548110610a1e57610a1e6111e5565b906000526020600020018054610a33906111ab565b80601f0160208091040260200160405190810160405280929190818152602001828054610a5f906111ab565b8015610aac5780601f10610a8157610100808354040283529160200191610aac565b820191906000526020600020905b815481529060010190602001808311610a8f57829003601f168201915b505050505090506000600383600181518110610aca57610aca6111e5565b602002602001015181548110610ae257610ae26111e5565b906000526020600020018054610af7906111ab565b80601f0160208091040260200160405190810160405280929190818152602001828054610b23906111ab565b8015610b705780601f10610b4557610100808354040283529160200191610b70565b820191906000526020600020905b815481529060010190602001808311610b5357829003601f168201915b505050505090506000600384600281518110610b8e57610b8e6111e5565b602002602001015181548110610ba657610ba66111e5565b906000526020600020018054610bbb906111ab565b80601f0160208091040260200160405190810160405280929190818152602001828054610be7906111ab565b8015610c345780601f10610c0957610100808354040283529160200191610c34565b820191906000526020600020905b815481529060010190602001808311610c1757829003601f168201915b50505050509050610c548360405180602001604052806000815250610775565b80610c735750610c738260405180602001604052806000815250610775565b80610c925750610c928160405180602001604052806000815250610775565b15610ca05750505050610cd2565b610caa8383610775565b8015610cbb5750610cbb8282610775565b15610ccd576001955050505050610ce4565b505050505b80610cdc816114ea565b915050610975565b508015610d35577fcde5c32c0a45fd8aa4b65ea8003fc9da9acd5e2c6c24a9fcce6ab79cabbd91226005604051610d1b91906114bb565b60405180910390a16004805460ff19169055600060025550565b610d3d610d90565b15610d88577fcde5c32c0a45fd8aa4b65ea8003fc9da9acd5e2c6c24a9fcce6ab79cabbd9122604051610d1b906020808252600490820152634472617760e01b604082015260600190565b610569610ddb565b6000805b600354811015610dd357610db4600382815481106102c0576102c06111e5565b15610dc157600091505090565b80610dcb816114ea565b915050610d94565b506001905090565b610deb600580546103b4906111ab565b15610e35576001546040516001600160a01b0390911681527fec121debab367dc6fc2da219ef2d5cf4e97e648e71f3a199511cf3b4d7d593049060200160405180910390a1610e76565b6000546040516001600160a01b0390911681527fec121debab367dc6fc2da219ef2d5cf4e97e648e71f3a199511cf3b4d7d593049060200160405180910390a15b610e86600580546103b4906111ab565b610ea957604051806040016040528060018152602001600b60fb1b815250610ec4565b604051806040016040528060018152602001604f60f81b8152505b600590610ed19082611401565b507ffec15e35ec3d19c0b090bded48bc70fcf6e183fb77f32b0f92b463d5fec3a0d1600560405161091491906114bb565b828054828255906000526020600020908101928215610f48579160200282015b82811115610f485782518290610f389082611401565b5091602001919060010190610f22565b50610f54929150610f58565b5090565b80821115610f54576000610f6c8282610f75565b50600101610f58565b508054610f81906111ab565b6000825580601f10610f91575050565b601f01602090049060005260206000209081019061056991905b80821115610f545760008155600101610fab565b600060208284031215610fd157600080fd5b5035919050565b60005b83811015610ff3578181015183820152602001610fdb565b50506000910152565b60008151808452611014816020860160208601610fd8565b601f01601f19169290920160200192915050565b60208152600061103b6020830184610ffc565b9392505050565b6000602080830181845280855180835260408601915060408160051b870101925083870160005b8281101561109757603f19888603018452611085858351610ffc565b94509285019290850190600101611069565b5092979650505050505050565b634e487b7160e01b600052604160045260246000fd5b600082601f8301126110cb57600080fd5b813567ffffffffffffffff808211156110e6576110e66110a4565b604051601f8301601f19908116603f0116810190828211818310171561110e5761110e6110a4565b8160405283815286602085880101111561112757600080fd5b836020870160208301376000602085830101528094505050505092915050565b6000806040838503121561115a57600080fd5b823567ffffffffffffffff8082111561117257600080fd5b61117e868387016110ba565b9350602085013591508082111561119457600080fd5b506111a1858286016110ba565b9150509250929050565b600181811c908216806111bf57607f821691505b6020821081036111df57634e487b7160e01b600052602260045260246000fd5b50919050565b634e487b7160e01b600052603260045260246000fd5b601f82111561124557600081815260208120601f850160051c810160208610156112225750805b601f850160051c820191505b818110156112415782815560010161122e565b5050505b505050565b818103611255575050565b61125f82546111ab565b67ffffffffffffffff811115611277576112776110a4565b61128b8161128584546111ab565b846111fb565b6000601f8211600181146112bf57600083156112a75750848201545b600019600385901b1c1916600184901b178455611324565b600085815260209020601f19841690600086815260209020845b838110156112f957828601548255600195860195909101906020016112d9565b50858310156113175781850154600019600388901b60f8161c191681555b50505060018360011b0184555b5050505050565b60008154611338816111ab565b808552602060018381168015611355576001811461136f5761139d565b60ff1985168884015283151560051b88018301955061139d565b866000528260002060005b858110156113955781548a820186015290830190840161137a565b890184019650505b505050505092915050565b6000602080830181845280855480835260408601915060408160051b8701019250866000528360002060005b8281101561109757878503603f190184526113ef858361132b565b945092850192600191820191016113d4565b815167ffffffffffffffff81111561141b5761141b6110a4565b6114298161128584546111ab565b602080601f83116001811461145e57600084156114465750858301515b600019600386901b1c1916600185901b178555611241565b600085815260208120601f198616915b8281101561148d5788860151825594840194600190910190840161146e565b50858210156114ab5787850151600019600388901b60f8161c191681555b5050505050600190811b01905550565b60208152600061103b602083018461132b565b600082516114e0818460208701610fd8565b9190910192915050565b60006001820161150a57634e487b7160e01b600052601160045260246000fd5b506001019056fea26469706673582212205589090805e34be30c97dbecb392bc709e92b0f9e709d0ad658b820c6b1dd60c64736f6c63430008130033",
					"opcodes": "PUSH1 0x0 PUSH1 0x2 DUP2 SWAP1 SSTORE PUSH2 0x1A0 DUP2 DUP2 MSTORE PUSH1 0x80 SWAP1 DUP2 MSTORE PUSH2 0x1C0 DUP3 DUP2 MSTORE PUSH1 0xA0 MSTORE PUSH2 0x1E0 DUP3 DUP2 MSTORE PUSH1 0xC0 MSTORE PUSH2 0x200 DUP3 DUP2 MSTORE PUSH1 0xE0 MSTORE PUSH2 0x220 DUP3 DUP2 MSTORE PUSH2 0x100 MSTORE PUSH2 0x240 DUP3 DUP2 MSTORE PUSH2 0x120 MSTORE PUSH2 0x260 DUP3 DUP2 MSTORE PUSH2 0x140 MSTORE PUSH2 0x280 DUP3 DUP2 MSTORE PUSH2 0x160 MSTORE PUSH2 0x2C0 PUSH1 0x40 MSTORE PUSH2 0x2A0 SWAP2 DUP3 MSTORE PUSH2 0x180 SWAP2 SWAP1 SWAP2 MSTORE PUSH3 0x77 SWAP1 PUSH1 0x3 SWAP1 PUSH1 0x9 PUSH3 0x1DC JUMP JUMPDEST POP PUSH1 0x4 DUP1 SLOAD PUSH1 0xFF NOT AND SWAP1 SSTORE PUSH1 0x40 DUP1 MLOAD DUP1 DUP3 ADD SWAP1 SWAP2 MSTORE PUSH1 0x1 DUP2 MSTORE PUSH1 0xB PUSH1 0xFB SHL PUSH1 0x20 DUP3 ADD MSTORE PUSH1 0x5 SWAP1 PUSH3 0xA9 SWAP1 DUP3 PUSH3 0x444 JUMP JUMPDEST POP PUSH1 0x40 DUP1 MLOAD PUSH2 0x160 DUP2 ADD DUP3 MSTORE PUSH1 0x0 PUSH2 0x100 DUP3 ADD DUP2 DUP2 MSTORE PUSH1 0x1 PUSH2 0x120 DUP5 ADD DUP2 SWAP1 MSTORE PUSH1 0x2 PUSH2 0x140 DUP6 ADD DUP2 SWAP1 MSTORE SWAP2 DUP5 MSTORE DUP5 MLOAD PUSH1 0x60 DUP2 DUP2 ADD DUP8 MSTORE PUSH1 0x3 DUP1 DUP4 MSTORE PUSH1 0x4 PUSH1 0x20 DUP5 DUP2 ADD DUP3 SWAP1 MSTORE PUSH1 0x5 DUP6 DUP12 ADD DUP2 SWAP1 MSTORE DUP2 DUP11 ADD SWAP6 SWAP1 SWAP6 MSTORE DUP10 MLOAD DUP1 DUP6 ADD DUP12 MSTORE PUSH1 0x6 DUP1 DUP3 MSTORE PUSH1 0x7 DUP3 DUP5 ADD DUP2 SWAP1 MSTORE PUSH1 0x8 DUP4 DUP15 ADD DUP2 SWAP1 MSTORE DUP13 DUP15 ADD SWAP4 SWAP1 SWAP4 MSTORE DUP13 MLOAD DUP1 DUP9 ADD DUP15 MSTORE DUP12 DUP2 MSTORE DUP1 DUP6 ADD SWAP7 SWAP1 SWAP7 MSTORE DUP6 DUP14 ADD DUP3 SWAP1 MSTORE DUP7 DUP13 ADD SWAP6 SWAP1 SWAP6 MSTORE DUP12 MLOAD DUP1 DUP8 ADD DUP14 MSTORE SWAP8 DUP9 MSTORE DUP8 DUP4 ADD DUP5 SWAP1 MSTORE DUP8 DUP13 ADD SWAP5 SWAP1 SWAP5 MSTORE PUSH1 0x80 DUP11 ADD SWAP7 SWAP1 SWAP7 MSTORE DUP10 MLOAD DUP1 DUP6 ADD DUP12 MSTORE DUP8 DUP2 MSTORE DUP1 DUP3 ADD SWAP6 SWAP1 SWAP6 MSTORE DUP5 DUP11 ADD DUP7 SWAP1 MSTORE PUSH1 0xA0 DUP10 ADD SWAP5 SWAP1 SWAP5 MSTORE DUP9 MLOAD DUP1 DUP5 ADD DUP11 MSTORE SWAP7 DUP8 MSTORE DUP7 DUP5 ADD DUP2 SWAP1 MSTORE DUP7 DUP10 ADD DUP6 SWAP1 MSTORE PUSH1 0xC0 DUP9 ADD SWAP7 SWAP1 SWAP7 MSTORE DUP8 MLOAD SWAP2 DUP3 ADD DUP9 MSTORE SWAP4 DUP2 MSTORE SWAP1 DUP2 ADD SWAP4 SWAP1 SWAP4 MSTORE SWAP4 DUP3 ADD DUP2 SWAP1 MSTORE PUSH1 0xE0 DUP4 ADD SWAP2 SWAP1 SWAP2 MSTORE PUSH3 0x1C7 SWAP3 SWAP1 SWAP2 SWAP1 PUSH3 0x239 JUMP JUMPDEST POP CALLVALUE DUP1 ISZERO PUSH3 0x1D5 JUMPI PUSH1 0x0 DUP1 REVERT JUMPDEST POP PUSH3 0x510 JUMP JUMPDEST DUP3 DUP1 SLOAD DUP3 DUP3 SSTORE SWAP1 PUSH1 0x0 MSTORE PUSH1 0x20 PUSH1 0x0 KECCAK256 SWAP1 DUP2 ADD SWAP3 DUP3 ISZERO PUSH3 0x227 JUMPI SWAP2 PUSH1 0x20 MUL DUP3 ADD JUMPDEST DUP3 DUP2 GT ISZERO PUSH3 0x227 JUMPI DUP3 MLOAD DUP3 SWAP1 PUSH3 0x216 SWAP1 DUP3 PUSH3 0x444 JUMP JUMPDEST POP SWAP2 PUSH1 0x20 ADD SWAP2 SWAP1 PUSH1 0x1 ADD SWAP1 PUSH3 0x1FD JUMP JUMPDEST POP PUSH3 0x235 SWAP3 SWAP2 POP PUSH3 0x293 JUMP JUMPDEST POP SWAP1 JUMP JUMPDEST DUP3 DUP1 SLOAD DUP3 DUP3 SSTORE SWAP1 PUSH1 0x0 MSTORE PUSH1 0x20 PUSH1 0x0 KECCAK256 SWAP1 DUP2 ADD SWAP3 DUP3 ISZERO PUSH3 0x285 JUMPI SWAP2 PUSH1 0x20 MUL DUP3 ADD JUMPDEST DUP3 DUP2 GT ISZERO PUSH3 0x285 JUMPI DUP3 MLOAD PUSH3 0x274 SWAP1 DUP4 SWAP1 PUSH1 0x3 PUSH3 0x2B4 JUMP JUMPDEST POP SWAP2 PUSH1 0x20 ADD SWAP2 SWAP1 PUSH1 0x1 ADD SWAP1 PUSH3 0x25A JUMP JUMPDEST POP PUSH3 0x235 SWAP3 SWAP2 POP PUSH3 0x305 JUMP JUMPDEST DUP1 DUP3 GT ISZERO PUSH3 0x235 JUMPI PUSH1 0x0 PUSH3 0x2AA DUP3 DUP3 PUSH3 0x326 JUMP JUMPDEST POP PUSH1 0x1 ADD PUSH3 0x293 JUMP JUMPDEST DUP3 DUP1 SLOAD DUP3 DUP3 SSTORE SWAP1 PUSH1 0x0 MSTORE PUSH1 0x20 PUSH1 0x0 KECCAK256 SWAP1 DUP2 ADD SWAP3 DUP3 ISZERO PUSH3 0x2F7 JUMPI SWAP2 PUSH1 0x20 MUL DUP3 ADD JUMPDEST DUP3 DUP2 GT ISZERO PUSH3 0x2F7 JUMPI DUP3 MLOAD DUP3 SWAP1 PUSH1 0xFF AND SWAP1 SSTORE SWAP2 PUSH1 0x20 ADD SWAP2 SWAP1 PUSH1 0x1 ADD SWAP1 PUSH3 0x2D5 JUMP JUMPDEST POP PUSH3 0x235 SWAP3 SWAP2 POP PUSH3 0x368 JUMP JUMPDEST DUP1 DUP3 GT ISZERO PUSH3 0x235 JUMPI PUSH1 0x0 PUSH3 0x31C DUP3 DUP3 PUSH3 0x37F JUMP JUMPDEST POP PUSH1 0x1 ADD PUSH3 0x305 JUMP JUMPDEST POP DUP1 SLOAD PUSH3 0x334 SWAP1 PUSH3 0x3B5 JUMP JUMPDEST PUSH1 0x0 DUP3 SSTORE DUP1 PUSH1 0x1F LT PUSH3 0x345 JUMPI POP POP JUMP JUMPDEST PUSH1 0x1F ADD PUSH1 0x20 SWAP1 DIV SWAP1 PUSH1 0x0 MSTORE PUSH1 0x20 PUSH1 0x0 KECCAK256 SWAP1 DUP2 ADD SWAP1 PUSH3 0x365 SWAP2 SWAP1 PUSH3 0x368 JUMP JUMPDEST POP JUMP JUMPDEST JUMPDEST DUP1 DUP3 GT ISZERO PUSH3 0x235 JUMPI PUSH1 0x0 DUP2 SSTORE PUSH1 0x1 ADD PUSH3 0x369 JUMP JUMPDEST POP DUP1 SLOAD PUSH1 0x0 DUP3 SSTORE SWAP1 PUSH1 0x0 MSTORE PUSH1 0x20 PUSH1 0x0 KECCAK256 SWAP1 DUP2 ADD SWAP1 PUSH3 0x365 SWAP2 SWAP1 PUSH3 0x368 JUMP JUMPDEST PUSH4 0x4E487B71 PUSH1 0xE0 SHL PUSH1 0x0 MSTORE PUSH1 0x41 PUSH1 0x4 MSTORE PUSH1 0x24 PUSH1 0x0 REVERT JUMPDEST PUSH1 0x1 DUP2 DUP2 SHR SWAP1 DUP3 AND DUP1 PUSH3 0x3CA JUMPI PUSH1 0x7F DUP3 AND SWAP2 POP JUMPDEST PUSH1 0x20 DUP3 LT DUP2 SUB PUSH3 0x3EB JUMPI PUSH4 0x4E487B71 PUSH1 0xE0 SHL PUSH1 0x0 MSTORE PUSH1 0x22 PUSH1 0x4 MSTORE PUSH1 0x24 PUSH1 0x0 REVERT JUMPDEST POP SWAP2 SWAP1 POP JUMP JUMPDEST PUSH1 0x1F DUP3 GT ISZERO PUSH3 0x43F JUMPI PUSH1 0x0 DUP2 DUP2 MSTORE PUSH1 0x20 DUP2 KECCAK256 PUSH1 0x1F DUP6 ADD PUSH1 0x5 SHR DUP2 ADD PUSH1 0x20 DUP7 LT ISZERO PUSH3 0x41A JUMPI POP DUP1 JUMPDEST PUSH1 0x1F DUP6 ADD PUSH1 0x5 SHR DUP3 ADD SWAP2 POP JUMPDEST DUP2 DUP2 LT ISZERO PUSH3 0x43B JUMPI DUP3 DUP2 SSTORE PUSH1 0x1 ADD PUSH3 0x426 JUMP JUMPDEST POP POP POP JUMPDEST POP POP POP JUMP JUMPDEST DUP2 MLOAD PUSH1 0x1 PUSH1 0x1 PUSH1 0x40 SHL SUB DUP2 GT ISZERO PUSH3 0x460 JUMPI PUSH3 0x460 PUSH3 0x39F JUMP JUMPDEST PUSH3 0x478 DUP2 PUSH3 0x471 DUP5 SLOAD PUSH3 0x3B5 JUMP JUMPDEST DUP5 PUSH3 0x3F1 JUMP JUMPDEST PUSH1 0x20 DUP1 PUSH1 0x1F DUP4 GT PUSH1 0x1 DUP2 EQ PUSH3 0x4B0 JUMPI PUSH1 0x0 DUP5 ISZERO PUSH3 0x497 JUMPI POP DUP6 DUP4 ADD MLOAD JUMPDEST PUSH1 0x0 NOT PUSH1 0x3 DUP7 SWAP1 SHL SHR NOT AND PUSH1 0x1 DUP6 SWAP1 SHL OR DUP6 SSTORE PUSH3 0x43B JUMP JUMPDEST PUSH1 0x0 DUP6 DUP2 MSTORE PUSH1 0x20 DUP2 KECCAK256 PUSH1 0x1F NOT DUP7 AND SWAP2 JUMPDEST DUP3 DUP2 LT ISZERO PUSH3 0x4E1 JUMPI DUP9 DUP7 ADD MLOAD DUP3 SSTORE SWAP5 DUP5 ADD SWAP5 PUSH1 0x1 SWAP1 SWAP2 ADD SWAP1 DUP5 ADD PUSH3 0x4C0 JUMP JUMPDEST POP DUP6 DUP3 LT ISZERO PUSH3 0x500 JUMPI DUP8 DUP6 ADD MLOAD PUSH1 0x0 NOT PUSH1 0x3 DUP9 SWAP1 SHL PUSH1 0xF8 AND SHR NOT AND DUP2 SSTORE JUMPDEST POP POP POP POP POP PUSH1 0x1 SWAP1 DUP2 SHL ADD SWAP1 SSTORE POP JUMP JUMPDEST PUSH2 0x1547 DUP1 PUSH3 0x520 PUSH1 0x0 CODECOPY PUSH1 0x0 RETURN INVALID PUSH1 0x80 PUSH1 0x40 MSTORE CALLVALUE DUP1 ISZERO PUSH2 0x10 JUMPI PUSH1 0x0 DUP1 REVERT JUMPDEST POP PUSH1 0x4 CALLDATASIZE LT PUSH2 0xA9 JUMPI PUSH1 0x0 CALLDATALOAD PUSH1 0xE0 SHR DUP1 PUSH4 0x55A5C301 GT PUSH2 0x71 JUMPI DUP1 PUSH4 0x55A5C301 EQ PUSH2 0x124 JUMPI DUP1 PUSH4 0x63F4150E EQ PUSH2 0x14F JUMPI DUP1 PUSH4 0x7D39620B EQ PUSH2 0x164 JUMPI DUP1 PUSH4 0x8D25AF04 EQ PUSH2 0x177 JUMPI DUP1 PUSH4 0xBED34BBA EQ PUSH2 0x17F JUMPI DUP1 PUSH4 0xD4F77B1C EQ PUSH2 0x192 JUMPI PUSH1 0x0 DUP1 REVERT JUMPDEST DUP1 PUSH4 0xF15F4C0 EQ PUSH2 0xAE JUMPI DUP1 PUSH4 0x302BCC57 EQ PUSH2 0xD0 JUMPI DUP1 PUSH4 0x409E2205 EQ PUSH2 0xE7 JUMPI DUP1 PUSH4 0x4404A438 EQ PUSH2 0x107 JUMPI DUP1 PUSH4 0x52FC4855 EQ PUSH2 0x10F JUMPI JUMPDEST PUSH1 0x0 DUP1 REVERT JUMPDEST PUSH1 0x4 SLOAD PUSH2 0xBB SWAP1 PUSH1 0xFF AND DUP2 JUMP JUMPDEST PUSH1 0x40 MLOAD SWAP1 ISZERO ISZERO DUP2 MSTORE PUSH1 0x20 ADD JUMPDEST PUSH1 0x40 MLOAD DUP1 SWAP2 SUB SWAP1 RETURN JUMPDEST PUSH2 0xD9 PUSH1 0x2 SLOAD DUP2 JUMP JUMPDEST PUSH1 0x40 MLOAD SWAP1 DUP2 MSTORE PUSH1 0x20 ADD PUSH2 0xC7 JUMP JUMPDEST PUSH2 0xFA PUSH2 0xF5 CALLDATASIZE PUSH1 0x4 PUSH2 0xFBF JUMP JUMPDEST PUSH2 0x19A JUMP JUMPDEST PUSH1 0x40 MLOAD PUSH2 0xC7 SWAP2 SWAP1 PUSH2 0x1028 JUMP JUMPDEST PUSH2 0xFA PUSH2 0x246 JUMP JUMPDEST PUSH2 0x122 PUSH2 0x11D CALLDATASIZE PUSH1 0x4 PUSH2 0xFBF JUMP JUMPDEST PUSH2 0x253 JUMP JUMPDEST STOP JUMPDEST PUSH1 0x0 SLOAD PUSH2 0x137 SWAP1 PUSH1 0x1 PUSH1 0x1 PUSH1 0xA0 SHL SUB AND DUP2 JUMP JUMPDEST PUSH1 0x40 MLOAD PUSH1 0x1 PUSH1 0x1 PUSH1 0xA0 SHL SUB SWAP1 SWAP2 AND DUP2 MSTORE PUSH1 0x20 ADD PUSH2 0xC7 JUMP JUMPDEST PUSH2 0x157 PUSH2 0x56C JUMP JUMPDEST PUSH1 0x40 MLOAD PUSH2 0xC7 SWAP2 SWAP1 PUSH2 0x1042 JUMP JUMPDEST PUSH1 0x1 SLOAD PUSH2 0x137 SWAP1 PUSH1 0x1 PUSH1 0x1 PUSH1 0xA0 SHL SUB AND DUP2 JUMP JUMPDEST PUSH2 0x122 PUSH2 0x645 JUMP JUMPDEST PUSH2 0xBB PUSH2 0x18D CALLDATASIZE PUSH1 0x4 PUSH2 0x1147 JUMP JUMPDEST PUSH2 0x775 JUMP JUMPDEST PUSH2 0x122 PUSH2 0x7CE JUMP JUMPDEST PUSH1 0x3 DUP2 DUP2 SLOAD DUP2 LT PUSH2 0x1AA JUMPI PUSH1 0x0 DUP1 REVERT JUMPDEST SWAP1 PUSH1 0x0 MSTORE PUSH1 0x20 PUSH1 0x0 KECCAK256 ADD PUSH1 0x0 SWAP2 POP SWAP1 POP DUP1 SLOAD PUSH2 0x1C5 SWAP1 PUSH2 0x11AB JUMP JUMPDEST DUP1 PUSH1 0x1F ADD PUSH1 0x20 DUP1 SWAP2 DIV MUL PUSH1 0x20 ADD PUSH1 0x40 MLOAD SWAP1 DUP2 ADD PUSH1 0x40 MSTORE DUP1 SWAP3 SWAP2 SWAP1 DUP2 DUP2 MSTORE PUSH1 0x20 ADD DUP3 DUP1 SLOAD PUSH2 0x1F1 SWAP1 PUSH2 0x11AB JUMP JUMPDEST DUP1 ISZERO PUSH2 0x23E JUMPI DUP1 PUSH1 0x1F LT PUSH2 0x213 JUMPI PUSH2 0x100 DUP1 DUP4 SLOAD DIV MUL DUP4 MSTORE SWAP2 PUSH1 0x20 ADD SWAP2 PUSH2 0x23E JUMP JUMPDEST DUP3 ADD SWAP2 SWAP1 PUSH1 0x0 MSTORE PUSH1 0x20 PUSH1 0x0 KECCAK256 SWAP1 JUMPDEST DUP2 SLOAD DUP2 MSTORE SWAP1 PUSH1 0x1 ADD SWAP1 PUSH1 0x20 ADD DUP1 DUP4 GT PUSH2 0x221 JUMPI DUP3 SWAP1 SUB PUSH1 0x1F AND DUP3 ADD SWAP2 JUMPDEST POP POP POP POP POP DUP2 JUMP JUMPDEST PUSH1 0x5 DUP1 SLOAD PUSH2 0x1C5 SWAP1 PUSH2 0x11AB JUMP JUMPDEST PUSH1 0x4 SLOAD PUSH1 0xFF AND PUSH2 0x2AA JUMPI PUSH1 0x40 MLOAD PUSH3 0x461BCD PUSH1 0xE5 SHL DUP2 MSTORE PUSH1 0x20 PUSH1 0x4 DUP3 ADD MSTORE PUSH1 0x1C PUSH1 0x24 DUP3 ADD MSTORE PUSH32 0x5468652067616D65207374696C6C206E6F742073746172742079657400000000 PUSH1 0x44 DUP3 ADD MSTORE PUSH1 0x64 ADD JUMPDEST PUSH1 0x40 MLOAD DUP1 SWAP2 SUB SWAP1 REVERT JUMPDEST PUSH2 0x368 PUSH1 0x3 DUP3 DUP2 SLOAD DUP2 LT PUSH2 0x2C0 JUMPI PUSH2 0x2C0 PUSH2 0x11E5 JUMP JUMPDEST SWAP1 PUSH1 0x0 MSTORE PUSH1 0x20 PUSH1 0x0 KECCAK256 ADD DUP1 SLOAD PUSH2 0x2D5 SWAP1 PUSH2 0x11AB JUMP JUMPDEST DUP1 PUSH1 0x1F ADD PUSH1 0x20 DUP1 SWAP2 DIV MUL PUSH1 0x20 ADD PUSH1 0x40 MLOAD SWAP1 DUP2 ADD PUSH1 0x40 MSTORE DUP1 SWAP3 SWAP2 SWAP1 DUP2 DUP2 MSTORE PUSH1 0x20 ADD DUP3 DUP1 SLOAD PUSH2 0x301 SWAP1 PUSH2 0x11AB JUMP JUMPDEST DUP1 ISZERO PUSH2 0x34E JUMPI DUP1 PUSH1 0x1F LT PUSH2 0x323 JUMPI PUSH2 0x100 DUP1 DUP4 SLOAD DIV MUL DUP4 MSTORE SWAP2 PUSH1 0x20 ADD SWAP2 PUSH2 0x34E JUMP JUMPDEST DUP3 ADD SWAP2 SWAP1 PUSH1 0x0 MSTORE PUSH1 0x20 PUSH1 0x0 KECCAK256 SWAP1 JUMPDEST DUP2 SLOAD DUP2 MSTORE SWAP1 PUSH1 0x1 ADD SWAP1 PUSH1 0x20 ADD DUP1 DUP4 GT PUSH2 0x331 JUMPI DUP3 SWAP1 SUB PUSH1 0x1F AND DUP3 ADD SWAP2 JUMPDEST POP POP POP POP POP PUSH1 0x40 MLOAD DUP1 PUSH1 0x20 ADD PUSH1 0x40 MSTORE DUP1 PUSH1 0x0 DUP2 MSTORE POP PUSH2 0x775 JUMP JUMPDEST PUSH2 0x3A4 JUMPI PUSH1 0x40 MLOAD PUSH3 0x461BCD PUSH1 0xE5 SHL DUP2 MSTORE PUSH1 0x20 PUSH1 0x4 DUP3 ADD MSTORE PUSH1 0xD PUSH1 0x24 DUP3 ADD MSTORE PUSH13 0x125B9D985B1A59081A5B9C1D5D PUSH1 0x9A SHL PUSH1 0x44 DUP3 ADD MSTORE PUSH1 0x64 ADD PUSH2 0x2A1 JUMP JUMPDEST PUSH2 0x451 PUSH1 0x5 DUP1 SLOAD PUSH2 0x3B4 SWAP1 PUSH2 0x11AB JUMP JUMPDEST DUP1 PUSH1 0x1F ADD PUSH1 0x20 DUP1 SWAP2 DIV MUL PUSH1 0x20 ADD PUSH1 0x40 MLOAD SWAP1 DUP2 ADD PUSH1 0x40 MSTORE DUP1 SWAP3 SWAP2 SWAP1 DUP2 DUP2 MSTORE PUSH1 0x20 ADD DUP3 DUP1 SLOAD PUSH2 0x3E0 SWAP1 PUSH2 0x11AB JUMP JUMPDEST DUP1 ISZERO PUSH2 0x42D JUMPI DUP1 PUSH1 0x1F LT PUSH2 0x402 JUMPI PUSH2 0x100 DUP1 DUP4 SLOAD DIV MUL DUP4 MSTORE SWAP2 PUSH1 0x20 ADD SWAP2 PUSH2 0x42D JUMP JUMPDEST DUP3 ADD SWAP2 SWAP1 PUSH1 0x0 MSTORE PUSH1 0x20 PUSH1 0x0 KECCAK256 SWAP1 JUMPDEST DUP2 SLOAD DUP2 MSTORE SWAP1 PUSH1 0x1 ADD SWAP1 PUSH1 0x20 ADD DUP1 DUP4 GT PUSH2 0x410 JUMPI DUP3 SWAP1 SUB PUSH1 0x1F AND DUP3 ADD SWAP2 JUMPDEST POP POP POP POP POP PUSH1 0x40 MLOAD DUP1 PUSH1 0x40 ADD PUSH1 0x40 MSTORE DUP1 PUSH1 0x1 DUP2 MSTORE PUSH1 0x20 ADD PUSH1 0xB PUSH1 0xFB SHL DUP2 MSTORE POP PUSH2 0x775 JUMP JUMPDEST ISZERO PUSH2 0x4AC JUMPI PUSH1 0x0 SLOAD PUSH1 0x1 PUSH1 0x1 PUSH1 0xA0 SHL SUB AND CALLER EQ PUSH2 0x4A7 JUMPI PUSH1 0x40 MLOAD PUSH3 0x461BCD PUSH1 0xE5 SHL DUP2 MSTORE PUSH1 0x20 PUSH1 0x4 DUP3 ADD MSTORE PUSH1 0x14 PUSH1 0x24 DUP3 ADD MSTORE PUSH20 0x596F7520617265206E6F7420706C617965722031 PUSH1 0x60 SHL PUSH1 0x44 DUP3 ADD MSTORE PUSH1 0x64 ADD PUSH2 0x2A1 JUMP JUMPDEST PUSH2 0x4FD JUMP JUMPDEST PUSH1 0x1 SLOAD PUSH1 0x1 PUSH1 0x1 PUSH1 0xA0 SHL SUB AND CALLER EQ PUSH2 0x4FD JUMPI PUSH1 0x40 MLOAD PUSH3 0x461BCD PUSH1 0xE5 SHL DUP2 MSTORE PUSH1 0x20 PUSH1 0x4 DUP3 ADD MSTORE PUSH1 0x14 PUSH1 0x24 DUP3 ADD MSTORE PUSH20 0x2CB7BA9030B932903737BA10383630BCB2B91019 PUSH1 0x61 SHL PUSH1 0x44 DUP3 ADD MSTORE PUSH1 0x64 ADD PUSH2 0x2A1 JUMP JUMPDEST PUSH1 0x5 PUSH1 0x3 DUP3 DUP2 SLOAD DUP2 LT PUSH2 0x512 JUMPI PUSH2 0x512 PUSH2 0x11E5 JUMP JUMPDEST SWAP1 PUSH1 0x0 MSTORE PUSH1 0x20 PUSH1 0x0 KECCAK256 ADD SWAP1 DUP2 PUSH2 0x528 SWAP2 SWAP1 PUSH2 0x124A JUMP JUMPDEST POP PUSH32 0xD77F94CC29111F7DBD8555E9587FC989A0CF9FA417821F33E2F02913794BEBB0 PUSH1 0x3 PUSH1 0x40 MLOAD PUSH2 0x559 SWAP2 SWAP1 PUSH2 0x13A8 JUMP JUMPDEST PUSH1 0x40 MLOAD DUP1 SWAP2 SUB SWAP1 LOG1 PUSH2 0x569 PUSH2 0x971 JUMP JUMPDEST POP JUMP JUMPDEST PUSH1 0x60 PUSH1 0x3 DUP1 SLOAD DUP1 PUSH1 0x20 MUL PUSH1 0x20 ADD PUSH1 0x40 MLOAD SWAP1 DUP2 ADD PUSH1 0x40 MSTORE DUP1 SWAP3 SWAP2 SWAP1 DUP2 DUP2 MSTORE PUSH1 0x20 ADD PUSH1 0x0 SWAP1 JUMPDEST DUP3 DUP3 LT ISZERO PUSH2 0x63C JUMPI DUP4 DUP3 SWAP1 PUSH1 0x0 MSTORE PUSH1 0x20 PUSH1 0x0 KECCAK256 ADD DUP1 SLOAD PUSH2 0x5AF SWAP1 PUSH2 0x11AB JUMP JUMPDEST DUP1 PUSH1 0x1F ADD PUSH1 0x20 DUP1 SWAP2 DIV MUL PUSH1 0x20 ADD PUSH1 0x40 MLOAD SWAP1 DUP2 ADD PUSH1 0x40 MSTORE DUP1 SWAP3 SWAP2 SWAP1 DUP2 DUP2 MSTORE PUSH1 0x20 ADD DUP3 DUP1 SLOAD PUSH2 0x5DB SWAP1 PUSH2 0x11AB JUMP JUMPDEST DUP1 ISZERO PUSH2 0x628 JUMPI DUP1 PUSH1 0x1F LT PUSH2 0x5FD JUMPI PUSH2 0x100 DUP1 DUP4 SLOAD DIV MUL DUP4 MSTORE SWAP2 PUSH1 0x20 ADD SWAP2 PUSH2 0x628 JUMP JUMPDEST DUP3 ADD SWAP2 SWAP1 PUSH1 0x0 MSTORE PUSH1 0x20 PUSH1 0x0 KECCAK256 SWAP1 JUMPDEST DUP2 SLOAD DUP2 MSTORE SWAP1 PUSH1 0x1 ADD SWAP1 PUSH1 0x20 ADD DUP1 DUP4 GT PUSH2 0x60B JUMPI DUP3 SWAP1 SUB PUSH1 0x1F AND DUP3 ADD SWAP2 JUMPDEST POP POP POP POP POP DUP2 MSTORE PUSH1 0x20 ADD SWAP1 PUSH1 0x1 ADD SWAP1 PUSH2 0x590 JUMP JUMPDEST POP POP POP POP SWAP1 POP SWAP1 JUMP JUMPDEST PUSH1 0x40 DUP1 MLOAD DUP1 DUP3 ADD SWAP1 SWAP2 MSTORE PUSH1 0x1 DUP2 MSTORE PUSH1 0xB PUSH1 0xFB SHL PUSH1 0x20 DUP3 ADD MSTORE PUSH1 0x5 SWAP1 PUSH2 0x66A SWAP1 DUP3 PUSH2 0x1401 JUMP JUMPDEST POP PUSH1 0x40 DUP1 MLOAD PUSH2 0x140 DUP2 ADD DUP3 MSTORE PUSH1 0x0 PUSH2 0x120 DUP3 ADD DUP2 DUP2 MSTORE DUP3 MSTORE DUP3 MLOAD PUSH1 0x20 DUP2 DUP2 ADD DUP6 MSTORE DUP3 DUP3 MSTORE DUP1 DUP5 ADD SWAP2 SWAP1 SWAP2 MSTORE DUP4 MLOAD DUP1 DUP3 ADD DUP6 MSTORE DUP3 DUP2 MSTORE DUP4 DUP6 ADD MSTORE DUP4 MLOAD DUP1 DUP3 ADD DUP6 MSTORE DUP3 DUP2 MSTORE PUSH1 0x60 DUP5 ADD MSTORE DUP4 MLOAD DUP1 DUP3 ADD DUP6 MSTORE DUP3 DUP2 MSTORE PUSH1 0x80 DUP5 ADD MSTORE DUP4 MLOAD DUP1 DUP3 ADD DUP6 MSTORE DUP3 DUP2 MSTORE PUSH1 0xA0 DUP5 ADD MSTORE DUP4 MLOAD DUP1 DUP3 ADD DUP6 MSTORE DUP3 DUP2 MSTORE PUSH1 0xC0 DUP5 ADD MSTORE DUP4 MLOAD DUP1 DUP3 ADD DUP6 MSTORE DUP3 DUP2 MSTORE PUSH1 0xE0 DUP5 ADD MSTORE DUP4 MLOAD SWAP1 DUP2 ADD SWAP1 SWAP4 MSTORE DUP3 MSTORE PUSH2 0x100 DUP2 ADD SWAP2 SWAP1 SWAP2 MSTORE PUSH2 0x70F SWAP1 PUSH1 0x3 SWAP1 PUSH1 0x9 PUSH2 0xF02 JUMP JUMPDEST POP PUSH32 0x12028463284AA79A2CEC858FF157451112ECFF237CDA43248EBB797C814F661C PUSH1 0x5 PUSH1 0x40 MLOAD PUSH2 0x740 SWAP2 SWAP1 PUSH2 0x14BB JUMP JUMPDEST PUSH1 0x40 MLOAD DUP1 SWAP2 SUB SWAP1 LOG1 PUSH1 0x0 PUSH1 0x2 DUP2 SWAP1 SSTORE PUSH1 0x4 DUP1 SLOAD PUSH1 0xFF NOT AND SWAP1 SSTORE DUP1 SLOAD PUSH1 0x1 PUSH1 0x1 PUSH1 0xA0 SHL SUB NOT SWAP1 DUP2 AND SWAP1 SWAP2 SSTORE PUSH1 0x1 DUP1 SLOAD SWAP1 SWAP2 AND SWAP1 SSTORE JUMP JUMPDEST PUSH1 0x0 DUP2 PUSH1 0x40 MLOAD PUSH1 0x20 ADD PUSH2 0x788 SWAP2 SWAP1 PUSH2 0x14CE JUMP JUMPDEST PUSH1 0x40 MLOAD PUSH1 0x20 DUP2 DUP4 SUB SUB DUP2 MSTORE SWAP1 PUSH1 0x40 MSTORE DUP1 MLOAD SWAP1 PUSH1 0x20 ADD KECCAK256 DUP4 PUSH1 0x40 MLOAD PUSH1 0x20 ADD PUSH2 0x7AF SWAP2 SWAP1 PUSH2 0x14CE JUMP JUMPDEST PUSH1 0x40 MLOAD PUSH1 0x20 DUP2 DUP4 SUB SUB DUP2 MSTORE SWAP1 PUSH1 0x40 MSTORE DUP1 MLOAD SWAP1 PUSH1 0x20 ADD KECCAK256 EQ SWAP1 POP SWAP3 SWAP2 POP POP JUMP JUMPDEST PUSH1 0x2 SLOAD PUSH1 0x0 SUB PUSH2 0x807 JUMPI PUSH2 0x7E0 PUSH2 0x645 JUMP JUMPDEST PUSH1 0x0 DUP1 SLOAD PUSH1 0x1 PUSH1 0x1 PUSH1 0xA0 SHL SUB NOT AND CALLER OR DUP2 SSTORE PUSH1 0x2 DUP1 SLOAD SWAP2 PUSH2 0x800 DUP4 PUSH2 0x14EA JUMP JUMPDEST SWAP2 SWAP1 POP SSTORE POP JUMP JUMPDEST PUSH1 0x2 SLOAD PUSH1 0x1 SUB PUSH2 0x91E JUMPI PUSH1 0x0 SLOAD PUSH1 0x1 PUSH1 0x1 PUSH1 0xA0 SHL SUB AND CALLER SUB PUSH2 0x877 JUMPI PUSH1 0x40 MLOAD PUSH3 0x461BCD PUSH1 0xE5 SHL DUP2 MSTORE PUSH1 0x20 PUSH1 0x4 DUP3 ADD MSTORE PUSH1 0x24 DUP1 DUP3 ADD MSTORE PUSH32 0x4572726F723A20596F752063616E6E6F7420706C6179207769746820796F7572 PUSH1 0x44 DUP3 ADD MSTORE PUSH4 0x39B2B633 PUSH1 0xE1 SHL PUSH1 0x64 DUP3 ADD MSTORE PUSH1 0x84 ADD PUSH2 0x2A1 JUMP JUMPDEST PUSH1 0x1 DUP1 SLOAD PUSH1 0x1 PUSH1 0x1 PUSH1 0xA0 SHL SUB NOT AND CALLER OR SWAP1 SSTORE PUSH1 0x2 DUP1 SLOAD SWAP1 PUSH1 0x0 PUSH2 0x899 DUP4 PUSH2 0x14EA JUMP JUMPDEST SWAP1 SWAP2 SSTORE POP POP PUSH1 0x4 DUP1 SLOAD PUSH1 0xFF NOT AND PUSH1 0x1 SWAP1 DUP2 OR SWAP1 SWAP2 SSTORE PUSH1 0x0 SLOAD SWAP1 SLOAD PUSH1 0x40 DUP1 MLOAD PUSH1 0x60 DUP1 DUP3 MSTORE PUSH1 0xB SWAP1 DUP3 ADD MSTORE PUSH11 0x53746172742067616D6521 PUSH1 0xA8 SHL PUSH1 0x80 DUP3 ADD MSTORE PUSH1 0x1 PUSH1 0x1 PUSH1 0xA0 SHL SUB SWAP4 DUP5 AND PUSH1 0x20 DUP3 ADD MSTORE SWAP3 SWAP1 SWAP2 AND SWAP1 DUP3 ADD MSTORE PUSH32 0xE731305B65099C3B743324657B0EF6CC0638875C5469A8E5BDE1765300C0B9B2 SWAP1 PUSH1 0xA0 ADD JUMPDEST PUSH1 0x40 MLOAD DUP1 SWAP2 SUB SWAP1 LOG1 JUMP JUMPDEST PUSH1 0x2 DUP1 SLOAD LT PUSH2 0x96F JUMPI PUSH1 0x40 MLOAD PUSH3 0x461BCD PUSH1 0xE5 SHL DUP2 MSTORE PUSH1 0x20 PUSH1 0x4 DUP3 ADD MSTORE PUSH1 0x1C PUSH1 0x24 DUP3 ADD MSTORE PUSH32 0x4E6F772071756575652069732066756C6C2C20747279206C6174657200000000 PUSH1 0x44 DUP3 ADD MSTORE PUSH1 0x64 ADD PUSH2 0x2A1 JUMP JUMPDEST JUMP JUMPDEST PUSH1 0x0 DUP1 JUMPDEST PUSH1 0x6 SLOAD DUP2 LT ISZERO PUSH2 0xCE4 JUMPI PUSH1 0x0 PUSH1 0x6 DUP3 DUP2 SLOAD DUP2 LT PUSH2 0x994 JUMPI PUSH2 0x994 PUSH2 0x11E5 JUMP JUMPDEST SWAP1 PUSH1 0x0 MSTORE PUSH1 0x20 PUSH1 0x0 KECCAK256 ADD DUP1 SLOAD DUP1 PUSH1 0x20 MUL PUSH1 0x20 ADD PUSH1 0x40 MLOAD SWAP1 DUP2 ADD PUSH1 0x40 MSTORE DUP1 SWAP3 SWAP2 SWAP1 DUP2 DUP2 MSTORE PUSH1 0x20 ADD DUP3 DUP1 SLOAD DUP1 ISZERO PUSH2 0x9E8 JUMPI PUSH1 0x20 MUL DUP3 ADD SWAP2 SWAP1 PUSH1 0x0 MSTORE PUSH1 0x20 PUSH1 0x0 KECCAK256 SWAP1 JUMPDEST DUP2 SLOAD DUP2 MSTORE PUSH1 0x20 ADD SWAP1 PUSH1 0x1 ADD SWAP1 DUP1 DUP4 GT PUSH2 0x9D4 JUMPI JUMPDEST POP POP POP POP POP SWAP1 POP PUSH1 0x0 PUSH1 0x3 DUP3 PUSH1 0x0 DUP2 MLOAD DUP2 LT PUSH2 0xA06 JUMPI PUSH2 0xA06 PUSH2 0x11E5 JUMP JUMPDEST PUSH1 0x20 MUL PUSH1 0x20 ADD ADD MLOAD DUP2 SLOAD DUP2 LT PUSH2 0xA1E JUMPI PUSH2 0xA1E PUSH2 0x11E5 JUMP JUMPDEST SWAP1 PUSH1 0x0 MSTORE PUSH1 0x20 PUSH1 0x0 KECCAK256 ADD DUP1 SLOAD PUSH2 0xA33 SWAP1 PUSH2 0x11AB JUMP JUMPDEST DUP1 PUSH1 0x1F ADD PUSH1 0x20 DUP1 SWAP2 DIV MUL PUSH1 0x20 ADD PUSH1 0x40 MLOAD SWAP1 DUP2 ADD PUSH1 0x40 MSTORE DUP1 SWAP3 SWAP2 SWAP1 DUP2 DUP2 MSTORE PUSH1 0x20 ADD DUP3 DUP1 SLOAD PUSH2 0xA5F SWAP1 PUSH2 0x11AB JUMP JUMPDEST DUP1 ISZERO PUSH2 0xAAC JUMPI DUP1 PUSH1 0x1F LT PUSH2 0xA81 JUMPI PUSH2 0x100 DUP1 DUP4 SLOAD DIV MUL DUP4 MSTORE SWAP2 PUSH1 0x20 ADD SWAP2 PUSH2 0xAAC JUMP JUMPDEST DUP3 ADD SWAP2 SWAP1 PUSH1 0x0 MSTORE PUSH1 0x20 PUSH1 0x0 KECCAK256 SWAP1 JUMPDEST DUP2 SLOAD DUP2 MSTORE SWAP1 PUSH1 0x1 ADD SWAP1 PUSH1 0x20 ADD DUP1 DUP4 GT PUSH2 0xA8F JUMPI DUP3 SWAP1 SUB PUSH1 0x1F AND DUP3 ADD SWAP2 JUMPDEST POP POP POP POP POP SWAP1 POP PUSH1 0x0 PUSH1 0x3 DUP4 PUSH1 0x1 DUP2 MLOAD DUP2 LT PUSH2 0xACA JUMPI PUSH2 0xACA PUSH2 0x11E5 JUMP JUMPDEST PUSH1 0x20 MUL PUSH1 0x20 ADD ADD MLOAD DUP2 SLOAD DUP2 LT PUSH2 0xAE2 JUMPI PUSH2 0xAE2 PUSH2 0x11E5 JUMP JUMPDEST SWAP1 PUSH1 0x0 MSTORE PUSH1 0x20 PUSH1 0x0 KECCAK256 ADD DUP1 SLOAD PUSH2 0xAF7 SWAP1 PUSH2 0x11AB JUMP JUMPDEST DUP1 PUSH1 0x1F ADD PUSH1 0x20 DUP1 SWAP2 DIV MUL PUSH1 0x20 ADD PUSH1 0x40 MLOAD SWAP1 DUP2 ADD PUSH1 0x40 MSTORE DUP1 SWAP3 SWAP2 SWAP1 DUP2 DUP2 MSTORE PUSH1 0x20 ADD DUP3 DUP1 SLOAD PUSH2 0xB23 SWAP1 PUSH2 0x11AB JUMP JUMPDEST DUP1 ISZERO PUSH2 0xB70 JUMPI DUP1 PUSH1 0x1F LT PUSH2 0xB45 JUMPI PUSH2 0x100 DUP1 DUP4 SLOAD DIV MUL DUP4 MSTORE SWAP2 PUSH1 0x20 ADD SWAP2 PUSH2 0xB70 JUMP JUMPDEST DUP3 ADD SWAP2 SWAP1 PUSH1 0x0 MSTORE PUSH1 0x20 PUSH1 0x0 KECCAK256 SWAP1 JUMPDEST DUP2 SLOAD DUP2 MSTORE SWAP1 PUSH1 0x1 ADD SWAP1 PUSH1 0x20 ADD DUP1 DUP4 GT PUSH2 0xB53 JUMPI DUP3 SWAP1 SUB PUSH1 0x1F AND DUP3 ADD SWAP2 JUMPDEST POP POP POP POP POP SWAP1 POP PUSH1 0x0 PUSH1 0x3 DUP5 PUSH1 0x2 DUP2 MLOAD DUP2 LT PUSH2 0xB8E JUMPI PUSH2 0xB8E PUSH2 0x11E5 JUMP JUMPDEST PUSH1 0x20 MUL PUSH1 0x20 ADD ADD MLOAD DUP2 SLOAD DUP2 LT PUSH2 0xBA6 JUMPI PUSH2 0xBA6 PUSH2 0x11E5 JUMP JUMPDEST SWAP1 PUSH1 0x0 MSTORE PUSH1 0x20 PUSH1 0x0 KECCAK256 ADD DUP1 SLOAD PUSH2 0xBBB SWAP1 PUSH2 0x11AB JUMP JUMPDEST DUP1 PUSH1 0x1F ADD PUSH1 0x20 DUP1 SWAP2 DIV MUL PUSH1 0x20 ADD PUSH1 0x40 MLOAD SWAP1 DUP2 ADD PUSH1 0x40 MSTORE DUP1 SWAP3 SWAP2 SWAP1 DUP2 DUP2 MSTORE PUSH1 0x20 ADD DUP3 DUP1 SLOAD PUSH2 0xBE7 SWAP1 PUSH2 0x11AB JUMP JUMPDEST DUP1 ISZERO PUSH2 0xC34 JUMPI DUP1 PUSH1 0x1F LT PUSH2 0xC09 JUMPI PUSH2 0x100 DUP1 DUP4 SLOAD DIV MUL DUP4 MSTORE SWAP2 PUSH1 0x20 ADD SWAP2 PUSH2 0xC34 JUMP JUMPDEST DUP3 ADD SWAP2 SWAP1 PUSH1 0x0 MSTORE PUSH1 0x20 PUSH1 0x0 KECCAK256 SWAP1 JUMPDEST DUP2 SLOAD DUP2 MSTORE SWAP1 PUSH1 0x1 ADD SWAP1 PUSH1 0x20 ADD DUP1 DUP4 GT PUSH2 0xC17 JUMPI DUP3 SWAP1 SUB PUSH1 0x1F AND DUP3 ADD SWAP2 JUMPDEST POP POP POP POP POP SWAP1 POP PUSH2 0xC54 DUP4 PUSH1 0x40 MLOAD DUP1 PUSH1 0x20 ADD PUSH1 0x40 MSTORE DUP1 PUSH1 0x0 DUP2 MSTORE POP PUSH2 0x775 JUMP JUMPDEST DUP1 PUSH2 0xC73 JUMPI POP PUSH2 0xC73 DUP3 PUSH1 0x40 MLOAD DUP1 PUSH1 0x20 ADD PUSH1 0x40 MSTORE DUP1 PUSH1 0x0 DUP2 MSTORE POP PUSH2 0x775 JUMP JUMPDEST DUP1 PUSH2 0xC92 JUMPI POP PUSH2 0xC92 DUP2 PUSH1 0x40 MLOAD DUP1 PUSH1 0x20 ADD PUSH1 0x40 MSTORE DUP1 PUSH1 0x0 DUP2 MSTORE POP PUSH2 0x775 JUMP JUMPDEST ISZERO PUSH2 0xCA0 JUMPI POP POP POP POP PUSH2 0xCD2 JUMP JUMPDEST PUSH2 0xCAA DUP4 DUP4 PUSH2 0x775 JUMP JUMPDEST DUP1 ISZERO PUSH2 0xCBB JUMPI POP PUSH2 0xCBB DUP3 DUP3 PUSH2 0x775 JUMP JUMPDEST ISZERO PUSH2 0xCCD JUMPI PUSH1 0x1 SWAP6 POP POP POP POP POP PUSH2 0xCE4 JUMP JUMPDEST POP POP POP POP JUMPDEST DUP1 PUSH2 0xCDC DUP2 PUSH2 0x14EA JUMP JUMPDEST SWAP2 POP POP PUSH2 0x975 JUMP JUMPDEST POP DUP1 ISZERO PUSH2 0xD35 JUMPI PUSH32 0xCDE5C32C0A45FD8AA4B65EA8003FC9DA9ACD5E2C6C24A9FCCE6AB79CABBD9122 PUSH1 0x5 PUSH1 0x40 MLOAD PUSH2 0xD1B SWAP2 SWAP1 PUSH2 0x14BB JUMP JUMPDEST PUSH1 0x40 MLOAD DUP1 SWAP2 SUB SWAP1 LOG1 PUSH1 0x4 DUP1 SLOAD PUSH1 0xFF NOT AND SWAP1 SSTORE PUSH1 0x0 PUSH1 0x2 SSTORE POP JUMP JUMPDEST PUSH2 0xD3D PUSH2 0xD90 JUMP JUMPDEST ISZERO PUSH2 0xD88 JUMPI PUSH32 0xCDE5C32C0A45FD8AA4B65EA8003FC9DA9ACD5E2C6C24A9FCCE6AB79CABBD9122 PUSH1 0x40 MLOAD PUSH2 0xD1B SWAP1 PUSH1 0x20 DUP1 DUP3 MSTORE PUSH1 0x4 SWAP1 DUP3 ADD MSTORE PUSH4 0x44726177 PUSH1 0xE0 SHL PUSH1 0x40 DUP3 ADD MSTORE PUSH1 0x60 ADD SWAP1 JUMP JUMPDEST PUSH2 0x569 PUSH2 0xDDB JUMP JUMPDEST PUSH1 0x0 DUP1 JUMPDEST PUSH1 0x3 SLOAD DUP2 LT ISZERO PUSH2 0xDD3 JUMPI PUSH2 0xDB4 PUSH1 0x3 DUP3 DUP2 SLOAD DUP2 LT PUSH2 0x2C0 JUMPI PUSH2 0x2C0 PUSH2 0x11E5 JUMP JUMPDEST ISZERO PUSH2 0xDC1 JUMPI PUSH1 0x0 SWAP2 POP POP SWAP1 JUMP JUMPDEST DUP1 PUSH2 0xDCB DUP2 PUSH2 0x14EA JUMP JUMPDEST SWAP2 POP POP PUSH2 0xD94 JUMP JUMPDEST POP PUSH1 0x1 SWAP1 POP SWAP1 JUMP JUMPDEST PUSH2 0xDEB PUSH1 0x5 DUP1 SLOAD PUSH2 0x3B4 SWAP1 PUSH2 0x11AB JUMP JUMPDEST ISZERO PUSH2 0xE35 JUMPI PUSH1 0x1 SLOAD PUSH1 0x40 MLOAD PUSH1 0x1 PUSH1 0x1 PUSH1 0xA0 SHL SUB SWAP1 SWAP2 AND DUP2 MSTORE PUSH32 0xEC121DEBAB367DC6FC2DA219EF2D5CF4E97E648E71F3A199511CF3B4D7D59304 SWAP1 PUSH1 0x20 ADD PUSH1 0x40 MLOAD DUP1 SWAP2 SUB SWAP1 LOG1 PUSH2 0xE76 JUMP JUMPDEST PUSH1 0x0 SLOAD PUSH1 0x40 MLOAD PUSH1 0x1 PUSH1 0x1 PUSH1 0xA0 SHL SUB SWAP1 SWAP2 AND DUP2 MSTORE PUSH32 0xEC121DEBAB367DC6FC2DA219EF2D5CF4E97E648E71F3A199511CF3B4D7D59304 SWAP1 PUSH1 0x20 ADD PUSH1 0x40 MLOAD DUP1 SWAP2 SUB SWAP1 LOG1 JUMPDEST PUSH2 0xE86 PUSH1 0x5 DUP1 SLOAD PUSH2 0x3B4 SWAP1 PUSH2 0x11AB JUMP JUMPDEST PUSH2 0xEA9 JUMPI PUSH1 0x40 MLOAD DUP1 PUSH1 0x40 ADD PUSH1 0x40 MSTORE DUP1 PUSH1 0x1 DUP2 MSTORE PUSH1 0x20 ADD PUSH1 0xB PUSH1 0xFB SHL DUP2 MSTORE POP PUSH2 0xEC4 JUMP JUMPDEST PUSH1 0x40 MLOAD DUP1 PUSH1 0x40 ADD PUSH1 0x40 MSTORE DUP1 PUSH1 0x1 DUP2 MSTORE PUSH1 0x20 ADD PUSH1 0x4F PUSH1 0xF8 SHL DUP2 MSTORE POP JUMPDEST PUSH1 0x5 SWAP1 PUSH2 0xED1 SWAP1 DUP3 PUSH2 0x1401 JUMP JUMPDEST POP PUSH32 0xFEC15E35EC3D19C0B090BDED48BC70FCF6E183FB77F32B0F92B463D5FEC3A0D1 PUSH1 0x5 PUSH1 0x40 MLOAD PUSH2 0x914 SWAP2 SWAP1 PUSH2 0x14BB JUMP JUMPDEST DUP3 DUP1 SLOAD DUP3 DUP3 SSTORE SWAP1 PUSH1 0x0 MSTORE PUSH1 0x20 PUSH1 0x0 KECCAK256 SWAP1 DUP2 ADD SWAP3 DUP3 ISZERO PUSH2 0xF48 JUMPI SWAP2 PUSH1 0x20 MUL DUP3 ADD JUMPDEST DUP3 DUP2 GT ISZERO PUSH2 0xF48 JUMPI DUP3 MLOAD DUP3 SWAP1 PUSH2 0xF38 SWAP1 DUP3 PUSH2 0x1401 JUMP JUMPDEST POP SWAP2 PUSH1 0x20 ADD SWAP2 SWAP1 PUSH1 0x1 ADD SWAP1 PUSH2 0xF22 JUMP JUMPDEST POP PUSH2 0xF54 SWAP3 SWAP2 POP PUSH2 0xF58 JUMP JUMPDEST POP SWAP1 JUMP JUMPDEST DUP1 DUP3 GT ISZERO PUSH2 0xF54 JUMPI PUSH1 0x0 PUSH2 0xF6C DUP3 DUP3 PUSH2 0xF75 JUMP JUMPDEST POP PUSH1 0x1 ADD PUSH2 0xF58 JUMP JUMPDEST POP DUP1 SLOAD PUSH2 0xF81 SWAP1 PUSH2 0x11AB JUMP JUMPDEST PUSH1 0x0 DUP3 SSTORE DUP1 PUSH1 0x1F LT PUSH2 0xF91 JUMPI POP POP JUMP JUMPDEST PUSH1 0x1F ADD PUSH1 0x20 SWAP1 DIV SWAP1 PUSH1 0x0 MSTORE PUSH1 0x20 PUSH1 0x0 KECCAK256 SWAP1 DUP2 ADD SWAP1 PUSH2 0x569 SWAP2 SWAP1 JUMPDEST DUP1 DUP3 GT ISZERO PUSH2 0xF54 JUMPI PUSH1 0x0 DUP2 SSTORE PUSH1 0x1 ADD PUSH2 0xFAB JUMP JUMPDEST PUSH1 0x0 PUSH1 0x20 DUP3 DUP5 SUB SLT ISZERO PUSH2 0xFD1 JUMPI PUSH1 0x0 DUP1 REVERT JUMPDEST POP CALLDATALOAD SWAP2 SWAP1 POP JUMP JUMPDEST PUSH1 0x0 JUMPDEST DUP4 DUP2 LT ISZERO PUSH2 0xFF3 JUMPI DUP2 DUP2 ADD MLOAD DUP4 DUP3 ADD MSTORE PUSH1 0x20 ADD PUSH2 0xFDB JUMP JUMPDEST POP POP PUSH1 0x0 SWAP2 ADD MSTORE JUMP JUMPDEST PUSH1 0x0 DUP2 MLOAD DUP1 DUP5 MSTORE PUSH2 0x1014 DUP2 PUSH1 0x20 DUP7 ADD PUSH1 0x20 DUP7 ADD PUSH2 0xFD8 JUMP JUMPDEST PUSH1 0x1F ADD PUSH1 0x1F NOT AND SWAP3 SWAP1 SWAP3 ADD PUSH1 0x20 ADD SWAP3 SWAP2 POP POP JUMP JUMPDEST PUSH1 0x20 DUP2 MSTORE PUSH1 0x0 PUSH2 0x103B PUSH1 0x20 DUP4 ADD DUP5 PUSH2 0xFFC JUMP JUMPDEST SWAP4 SWAP3 POP POP POP JUMP JUMPDEST PUSH1 0x0 PUSH1 0x20 DUP1 DUP4 ADD DUP2 DUP5 MSTORE DUP1 DUP6 MLOAD DUP1 DUP4 MSTORE PUSH1 0x40 DUP7 ADD SWAP2 POP PUSH1 0x40 DUP2 PUSH1 0x5 SHL DUP8 ADD ADD SWAP3 POP DUP4 DUP8 ADD PUSH1 0x0 JUMPDEST DUP3 DUP2 LT ISZERO PUSH2 0x1097 JUMPI PUSH1 0x3F NOT DUP9 DUP7 SUB ADD DUP5 MSTORE PUSH2 0x1085 DUP6 DUP4 MLOAD PUSH2 0xFFC JUMP JUMPDEST SWAP5 POP SWAP3 DUP6 ADD SWAP3 SWAP1 DUP6 ADD SWAP1 PUSH1 0x1 ADD PUSH2 0x1069 JUMP JUMPDEST POP SWAP3 SWAP8 SWAP7 POP POP POP POP POP POP POP JUMP JUMPDEST PUSH4 0x4E487B71 PUSH1 0xE0 SHL PUSH1 0x0 MSTORE PUSH1 0x41 PUSH1 0x4 MSTORE PUSH1 0x24 PUSH1 0x0 REVERT JUMPDEST PUSH1 0x0 DUP3 PUSH1 0x1F DUP4 ADD SLT PUSH2 0x10CB JUMPI PUSH1 0x0 DUP1 REVERT JUMPDEST DUP2 CALLDATALOAD PUSH8 0xFFFFFFFFFFFFFFFF DUP1 DUP3 GT ISZERO PUSH2 0x10E6 JUMPI PUSH2 0x10E6 PUSH2 0x10A4 JUMP JUMPDEST PUSH1 0x40 MLOAD PUSH1 0x1F DUP4 ADD PUSH1 0x1F NOT SWAP1 DUP2 AND PUSH1 0x3F ADD AND DUP2 ADD SWAP1 DUP3 DUP3 GT DUP2 DUP4 LT OR ISZERO PUSH2 0x110E JUMPI PUSH2 0x110E PUSH2 0x10A4 JUMP JUMPDEST DUP2 PUSH1 0x40 MSTORE DUP4 DUP2 MSTORE DUP7 PUSH1 0x20 DUP6 DUP9 ADD ADD GT ISZERO PUSH2 0x1127 JUMPI PUSH1 0x0 DUP1 REVERT JUMPDEST DUP4 PUSH1 0x20 DUP8 ADD PUSH1 0x20 DUP4 ADD CALLDATACOPY PUSH1 0x0 PUSH1 0x20 DUP6 DUP4 ADD ADD MSTORE DUP1 SWAP5 POP POP POP POP POP SWAP3 SWAP2 POP POP JUMP JUMPDEST PUSH1 0x0 DUP1 PUSH1 0x40 DUP4 DUP6 SUB SLT ISZERO PUSH2 0x115A JUMPI PUSH1 0x0 DUP1 REVERT JUMPDEST DUP3 CALLDATALOAD PUSH8 0xFFFFFFFFFFFFFFFF DUP1 DUP3 GT ISZERO PUSH2 0x1172 JUMPI PUSH1 0x0 DUP1 REVERT JUMPDEST PUSH2 0x117E DUP7 DUP4 DUP8 ADD PUSH2 0x10BA JUMP JUMPDEST SWAP4 POP PUSH1 0x20 DUP6 ADD CALLDATALOAD SWAP2 POP DUP1 DUP3 GT ISZERO PUSH2 0x1194 JUMPI PUSH1 0x0 DUP1 REVERT JUMPDEST POP PUSH2 0x11A1 DUP6 DUP3 DUP7 ADD PUSH2 0x10BA JUMP JUMPDEST SWAP2 POP POP SWAP3 POP SWAP3 SWAP1 POP JUMP JUMPDEST PUSH1 0x1 DUP2 DUP2 SHR SWAP1 DUP3 AND DUP1 PUSH2 0x11BF JUMPI PUSH1 0x7F DUP3 AND SWAP2 POP JUMPDEST PUSH1 0x20 DUP3 LT DUP2 SUB PUSH2 0x11DF JUMPI PUSH4 0x4E487B71 PUSH1 0xE0 SHL PUSH1 0x0 MSTORE PUSH1 0x22 PUSH1 0x4 MSTORE PUSH1 0x24 PUSH1 0x0 REVERT JUMPDEST POP SWAP2 SWAP1 POP JUMP JUMPDEST PUSH4 0x4E487B71 PUSH1 0xE0 SHL PUSH1 0x0 MSTORE PUSH1 0x32 PUSH1 0x4 MSTORE PUSH1 0x24 PUSH1 0x0 REVERT JUMPDEST PUSH1 0x1F DUP3 GT ISZERO PUSH2 0x1245 JUMPI PUSH1 0x0 DUP2 DUP2 MSTORE PUSH1 0x20 DUP2 KECCAK256 PUSH1 0x1F DUP6 ADD PUSH1 0x5 SHR DUP2 ADD PUSH1 0x20 DUP7 LT ISZERO PUSH2 0x1222 JUMPI POP DUP1 JUMPDEST PUSH1 0x1F DUP6 ADD PUSH1 0x5 SHR DUP3 ADD SWAP2 POP JUMPDEST DUP2 DUP2 LT ISZERO PUSH2 0x1241 JUMPI DUP3 DUP2 SSTORE PUSH1 0x1 ADD PUSH2 0x122E JUMP JUMPDEST POP POP POP JUMPDEST POP POP POP JUMP JUMPDEST DUP2 DUP2 SUB PUSH2 0x1255 JUMPI POP POP JUMP JUMPDEST PUSH2 0x125F DUP3 SLOAD PUSH2 0x11AB JUMP JUMPDEST PUSH8 0xFFFFFFFFFFFFFFFF DUP2 GT ISZERO PUSH2 0x1277 JUMPI PUSH2 0x1277 PUSH2 0x10A4 JUMP JUMPDEST PUSH2 0x128B DUP2 PUSH2 0x1285 DUP5 SLOAD PUSH2 0x11AB JUMP JUMPDEST DUP5 PUSH2 0x11FB JUMP JUMPDEST PUSH1 0x0 PUSH1 0x1F DUP3 GT PUSH1 0x1 DUP2 EQ PUSH2 0x12BF JUMPI PUSH1 0x0 DUP4 ISZERO PUSH2 0x12A7 JUMPI POP DUP5 DUP3 ADD SLOAD JUMPDEST PUSH1 0x0 NOT PUSH1 0x3 DUP6 SWAP1 SHL SHR NOT AND PUSH1 0x1 DUP5 SWAP1 SHL OR DUP5 SSTORE PUSH2 0x1324 JUMP JUMPDEST PUSH1 0x0 DUP6 DUP2 MSTORE PUSH1 0x20 SWAP1 KECCAK256 PUSH1 0x1F NOT DUP5 AND SWAP1 PUSH1 0x0 DUP7 DUP2 MSTORE PUSH1 0x20 SWAP1 KECCAK256 DUP5 JUMPDEST DUP4 DUP2 LT ISZERO PUSH2 0x12F9 JUMPI DUP3 DUP7 ADD SLOAD DUP3 SSTORE PUSH1 0x1 SWAP6 DUP7 ADD SWAP6 SWAP1 SWAP2 ADD SWAP1 PUSH1 0x20 ADD PUSH2 0x12D9 JUMP JUMPDEST POP DUP6 DUP4 LT ISZERO PUSH2 0x1317 JUMPI DUP2 DUP6 ADD SLOAD PUSH1 0x0 NOT PUSH1 0x3 DUP9 SWAP1 SHL PUSH1 0xF8 AND SHR NOT AND DUP2 SSTORE JUMPDEST POP POP POP PUSH1 0x1 DUP4 PUSH1 0x1 SHL ADD DUP5 SSTORE JUMPDEST POP POP POP POP POP JUMP JUMPDEST PUSH1 0x0 DUP2 SLOAD PUSH2 0x1338 DUP2 PUSH2 0x11AB JUMP JUMPDEST DUP1 DUP6 MSTORE PUSH1 0x20 PUSH1 0x1 DUP4 DUP2 AND DUP1 ISZERO PUSH2 0x1355 JUMPI PUSH1 0x1 DUP2 EQ PUSH2 0x136F JUMPI PUSH2 0x139D JUMP JUMPDEST PUSH1 0xFF NOT DUP6 AND DUP9 DUP5 ADD MSTORE DUP4 ISZERO ISZERO PUSH1 0x5 SHL DUP9 ADD DUP4 ADD SWAP6 POP PUSH2 0x139D JUMP JUMPDEST DUP7 PUSH1 0x0 MSTORE DUP3 PUSH1 0x0 KECCAK256 PUSH1 0x0 JUMPDEST DUP6 DUP2 LT ISZERO PUSH2 0x1395 JUMPI DUP2 SLOAD DUP11 DUP3 ADD DUP7 ADD MSTORE SWAP1 DUP4 ADD SWAP1 DUP5 ADD PUSH2 0x137A JUMP JUMPDEST DUP10 ADD DUP5 ADD SWAP7 POP POP JUMPDEST POP POP POP POP POP SWAP3 SWAP2 POP POP JUMP JUMPDEST PUSH1 0x0 PUSH1 0x20 DUP1 DUP4 ADD DUP2 DUP5 MSTORE DUP1 DUP6 SLOAD DUP1 DUP4 MSTORE PUSH1 0x40 DUP7 ADD SWAP2 POP PUSH1 0x40 DUP2 PUSH1 0x5 SHL DUP8 ADD ADD SWAP3 POP DUP7 PUSH1 0x0 MSTORE DUP4 PUSH1 0x0 KECCAK256 PUSH1 0x0 JUMPDEST DUP3 DUP2 LT ISZERO PUSH2 0x1097 JUMPI DUP8 DUP6 SUB PUSH1 0x3F NOT ADD DUP5 MSTORE PUSH2 0x13EF DUP6 DUP4 PUSH2 0x132B JUMP JUMPDEST SWAP5 POP SWAP3 DUP6 ADD SWAP3 PUSH1 0x1 SWAP2 DUP3 ADD SWAP2 ADD PUSH2 0x13D4 JUMP JUMPDEST DUP2 MLOAD PUSH8 0xFFFFFFFFFFFFFFFF DUP2 GT ISZERO PUSH2 0x141B JUMPI PUSH2 0x141B PUSH2 0x10A4 JUMP JUMPDEST PUSH2 0x1429 DUP2 PUSH2 0x1285 DUP5 SLOAD PUSH2 0x11AB JUMP JUMPDEST PUSH1 0x20 DUP1 PUSH1 0x1F DUP4 GT PUSH1 0x1 DUP2 EQ PUSH2 0x145E JUMPI PUSH1 0x0 DUP5 ISZERO PUSH2 0x1446 JUMPI POP DUP6 DUP4 ADD MLOAD JUMPDEST PUSH1 0x0 NOT PUSH1 0x3 DUP7 SWAP1 SHL SHR NOT AND PUSH1 0x1 DUP6 SWAP1 SHL OR DUP6 SSTORE PUSH2 0x1241 JUMP JUMPDEST PUSH1 0x0 DUP6 DUP2 MSTORE PUSH1 0x20 DUP2 KECCAK256 PUSH1 0x1F NOT DUP7 AND SWAP2 JUMPDEST DUP3 DUP2 LT ISZERO PUSH2 0x148D JUMPI DUP9 DUP7 ADD MLOAD DUP3 SSTORE SWAP5 DUP5 ADD SWAP5 PUSH1 0x1 SWAP1 SWAP2 ADD SWAP1 DUP5 ADD PUSH2 0x146E JUMP JUMPDEST POP DUP6 DUP3 LT ISZERO PUSH2 0x14AB JUMPI DUP8 DUP6 ADD MLOAD PUSH1 0x0 NOT PUSH1 0x3 DUP9 SWAP1 SHL PUSH1 0xF8 AND SHR NOT AND DUP2 SSTORE JUMPDEST POP POP POP POP POP PUSH1 0x1 SWAP1 DUP2 SHL ADD SWAP1 SSTORE POP JUMP JUMPDEST PUSH1 0x20 DUP2 MSTORE PUSH1 0x0 PUSH2 0x103B PUSH1 0x20 DUP4 ADD DUP5 PUSH2 0x132B JUMP JUMPDEST PUSH1 0x0 DUP3 MLOAD PUSH2 0x14E0 DUP2 DUP5 PUSH1 0x20 DUP8 ADD PUSH2 0xFD8 JUMP JUMPDEST SWAP2 SWAP1 SWAP2 ADD SWAP3 SWAP2 POP POP JUMP JUMPDEST PUSH1 0x0 PUSH1 0x1 DUP3 ADD PUSH2 0x150A JUMPI PUSH4 0x4E487B71 PUSH1 0xE0 SHL PUSH1 0x0 MSTORE PUSH1 0x11 PUSH1 0x4 MSTORE PUSH1 0x24 PUSH1 0x0 REVERT JUMPDEST POP PUSH1 0x1 ADD SWAP1 JUMP INVALID LOG2 PUSH5 0x6970667358 0x22 SLT KECCAK256 SSTORE DUP10 MULMOD ADDMOD SDIV 0xE3 0x4B 0xE3 0xC SWAP8 0xDB 0xEC 0xB3 SWAP3 0xBC PUSH17 0x9E92B0F9E709D0AD658B820C6B1DD60C64 PUSH20 0x6F6C634300081300330000000000000000000000 "
				},
				"gasEstimates": {
					"creation": {
						"codeDepositCost": "1089400",
						"executionCost": "infinite",
						"totalCost": "infinite"
					},
					"external": {
						"activate()": "2300",
						"compareStrings(string,string)": "infinite",
						"currentPlayer()": "infinite",
						"getoption()": "infinite",
						"joinGame()": "infinite",
						"options(uint256)": "infinite",
						"player1address()": "2337",
						"player2address()": "2381",
						"playerCount()": "2318",
						"restartGame()": "infinite",
						"userInput(uint256)": "infinite"
					},
					"internal": {
						"changePlayer()": "infinite",
						"checkOptions()": "infinite",
						"checkWinner()": "infinite"
					}
				},
				"methodIdentifiers": {
					"activate()": "0f15f4c0",
					"compareStrings(string,string)": "bed34bba",
					"currentPlayer()": "4404a438",
					"getoption()": "63f4150e",
					"joinGame()": "d4f77b1c",
					"options(uint256)": "409e2205",
					"player1address()": "55a5c301",
					"player2address()": "7d39620b",
					"playerCount()": "302bcc57",
					"restartGame()": "8d25af04",
					"userInput(uint256)": "52fc4855"
				}
			},
			"storageLayout": {
				"storage": [
					{
						"astId": 3,
						"contract": "Practical4-Tick-Tack-Toe-Jason.sol:TickTackToe",
						"label": "player1address",
						"offset": 0,
						"slot": "0",
						"type": "t_address"
					},
					{
						"astId": 5,
						"contract": "Practical4-Tick-Tack-Toe-Jason.sol:TickTackToe",
						"label": "player2address",
						"offset": 0,
						"slot": "1",
						"type": "t_address"
					},
					{
						"astId": 8,
						"contract": "Practical4-Tick-Tack-Toe-Jason.sol:TickTackToe",
						"label": "playerCount",
						"offset": 0,
						"slot": "2",
						"type": "t_uint256"
					},
					{
						"astId": 21,
						"contract": "Practical4-Tick-Tack-Toe-Jason.sol:TickTackToe",
						"label": "options",
						"offset": 0,
						"slot": "3",
						"type": "t_array(t_string_storage)dyn_storage"
					},
					{
						"astId": 24,
						"contract": "Practical4-Tick-Tack-Toe-Jason.sol:TickTackToe",
						"label": "activate",
						"offset": 0,
						"slot": "4",
						"type": "t_bool"
					},
					{
						"astId": 27,
						"contract": "Practical4-Tick-Tack-Toe-Jason.sol:TickTackToe",
						"label": "currentPlayer",
						"offset": 0,
						"slot": "5",
						"type": "t_string_storage"
					},
					{
						"astId": 64,
						"contract": "Practical4-Tick-Tack-Toe-Jason.sol:TickTackToe",
						"label": "winConditionSet",
						"offset": 0,
						"slot": "6",
						"type": "t_array(t_array(t_uint256)dyn_storage)dyn_storage"
					}
				],
				"types": {
					"t_address": {
						"encoding": "inplace",
						"label": "address",
						"numberOfBytes": "20"
					},
					"t_array(t_array(t_uint256)dyn_storage)dyn_storage": {
						"base": "t_array(t_uint256)dyn_storage",
						"encoding": "dynamic_array",
						"label": "uint256[][]",
						"numberOfBytes": "32"
					},
					"t_array(t_string_storage)dyn_storage": {
						"base": "t_string_storage",
						"encoding": "dynamic_array",
						"label": "string[]",
						"numberOfBytes": "32"
					},
					"t_array(t_uint256)dyn_storage": {
						"base": "t_uint256",
						"encoding": "dynamic_array",
						"label": "uint256[]",
						"numberOfBytes": "32"
					},
					"t_bool": {
						"encoding": "inplace",
						"label": "bool",
						"numberOfBytes": "1"
					},
					"t_string_storage": {
						"encoding": "bytes",
						"label": "string",
						"numberOfBytes": "32"
					},
					"t_uint256": {
						"encoding": "inplace",
						"label": "uint256",
						"numberOfBytes": "32"
					}
				}
			},
			"userdoc": {
				"kind": "user",
				"methods": {},
				"version": 1
			}
		}
	}
}