{
	"Practical1-Jason.sol": {
		"MyGuessNumberGame": {
			"abi": [
				{
					"inputs": [],
					"name": "guessNumber",
					"outputs": [
						{
							"internalType": "uint256",
							"name": "",
							"type": "uint256"
						}
					],
					"stateMutability": "view",
					"type": "function"
				},
				{
					"inputs": [],
					"name": "logicCheck",
					"outputs": [
						{
							"internalType": "string",
							"name": "",
							"type": "string"
						}
					],
					"stateMutability": "payable",
					"type": "function"
				},
				{
					"inputs": [
						{
							"internalType": "uint256",
							"name": "newGuessNumber",
							"type": "uint256"
						}
					],
					"name": "setGuessNumber",
					"outputs": [],
					"stateMutability": "nonpayable",
					"type": "function"
				},
				{
					"inputs": [
						{
							"internalType": "uint256",
							"name": "newTargetNubmer",
							"type": "uint256"
						}
					],
					"name": "setTargetNumber",
					"outputs": [],
					"stateMutability": "nonpayable",
					"type": "function"
				},
				{
					"inputs": [],
					"name": "targetNumber",
					"outputs": [
						{
							"internalType": "uint256",
							"name": "",
							"type": "uint256"
						}
					],
					"stateMutability": "view",
					"type": "function"
				},
				{
					"inputs": [],
					"name": "treasury",
					"outputs": [
						{
							"internalType": "address payable",
							"name": "",
							"type": "address"
						}
					],
					"stateMutability": "view",
					"type": "function"
				}
			],
			"devdoc": {
				"kind": "dev",
				"methods": {},
				"version": 1
			},
			"evm": {
				"assembly": "    /* \"Practical1-Jason.sol\":60:1496  contract MyGuessNumberGame {... */\n  mstore(0x40, 0x80)\n    /* \"Practical1-Jason.sol\":202:296  address payable public treasury =... */\n  0x02\n  dup1\n  sload\n  not(sub(shl(0xa8, 0x01), 0x0100))\n  and\n  0xab8483f64d9c6d1ecf9b849ae677dd3315835cb200\n  or\n  swap1\n  sstore\n    /* \"Practical1-Jason.sol\":60:1496  contract MyGuessNumberGame {... */\n  callvalue\n  dup1\n  iszero\n  tag_1\n  jumpi\n  0x00\n  dup1\n  revert\ntag_1:\n  pop\n  dataSize(sub_0)\n  dup1\n  dataOffset(sub_0)\n  0x00\n  codecopy\n  0x00\n  return\nstop\n\nsub_0: assembly {\n        /* \"Practical1-Jason.sol\":60:1496  contract MyGuessNumberGame {... */\n      mstore(0x40, 0x80)\n      jumpi(tag_1, lt(calldatasize, 0x04))\n      shr(0xe0, calldataload(0x00))\n      dup1\n      0x0ff5df67\n      eq\n      tag_2\n      jumpi\n      dup1\n      0x61d027b3\n      eq\n      tag_3\n      jumpi\n      dup1\n      0x669997bc\n      eq\n      tag_4\n      jumpi\n      dup1\n      0x71985c08\n      eq\n      tag_5\n      jumpi\n      dup1\n      0x762f6335\n      eq\n      tag_6\n      jumpi\n      dup1\n      0xc12a19f4\n      eq\n      tag_7\n      jumpi\n    tag_1:\n      0x00\n      dup1\n      revert\n        /* \"Practical1-Jason.sol\":128:154  uint256 public guessNumber */\n    tag_2:\n      callvalue\n      dup1\n      iszero\n      tag_8\n      jumpi\n      0x00\n      dup1\n      revert\n    tag_8:\n      pop\n      tag_9\n      sload(0x01)\n      dup2\n      jump\n    tag_9:\n      mload(0x40)\n        /* \"#utility.yul\":160:185   */\n      swap1\n      dup2\n      mstore\n        /* \"#utility.yul\":148:150   */\n      0x20\n        /* \"#utility.yul\":133:151   */\n      add\n        /* \"Practical1-Jason.sol\":128:154  uint256 public guessNumber */\n    tag_11:\n      mload(0x40)\n      dup1\n      swap2\n      sub\n      swap1\n      return\n        /* \"Practical1-Jason.sol\":202:296  address payable public treasury =... */\n    tag_3:\n      callvalue\n      dup1\n      iszero\n      tag_13\n      jumpi\n      0x00\n      dup1\n      revert\n    tag_13:\n      pop\n      sload(0x02)\n      tag_14\n      swap1\n      0x0100\n      swap1\n      div\n      sub(shl(0xa0, 0x01), 0x01)\n      and\n      dup2\n      jump\n    tag_14:\n      mload(0x40)\n      sub(shl(0xa0, 0x01), 0x01)\n        /* \"#utility.yul\":376:408   */\n      swap1\n      swap2\n      and\n        /* \"#utility.yul\":358:409   */\n      dup2\n      mstore\n        /* \"#utility.yul\":346:348   */\n      0x20\n        /* \"#utility.yul\":331:349   */\n      add\n        /* \"Practical1-Jason.sol\":202:296  address payable public treasury =... */\n      tag_11\n        /* \"#utility.yul\":196:415   */\n      jump\n        /* \"Practical1-Jason.sol\":721:1493  function logicCheck() external payable returns (string memory) {... */\n    tag_4:\n      tag_18\n      tag_19\n      jump\t// in\n    tag_18:\n      mload(0x40)\n      tag_11\n      swap2\n      swap1\n      tag_21\n      jump\t// in\n        /* \"Practical1-Jason.sol\":94:121  uint256 public targetNumber */\n    tag_5:\n      callvalue\n      dup1\n      iszero\n      tag_22\n      jumpi\n      0x00\n      dup1\n      revert\n    tag_22:\n      pop\n      tag_9\n      sload(0x00)\n      dup2\n      jump\n        /* \"Practical1-Jason.sol\":421:523  function setGuessNumber(uint256 newGuessNumber) public {... */\n    tag_6:\n      callvalue\n      dup1\n      iszero\n      tag_26\n      jumpi\n      0x00\n      dup1\n      revert\n    tag_26:\n      pop\n      tag_27\n      tag_28\n      calldatasize\n      0x04\n      tag_29\n      jump\t// in\n    tag_28:\n        /* \"Practical1-Jason.sol\":487:498  guessNumber */\n      0x01\n        /* \"Practical1-Jason.sol\":487:515  guessNumber = newGuessNumber */\n      sstore\n        /* \"Practical1-Jason.sol\":421:523  function setGuessNumber(uint256 newGuessNumber) public {... */\n      jump\n    tag_27:\n      stop\n        /* \"Practical1-Jason.sol\":305:413  function setTargetNumber(uint256 newTargetNubmer) external {... */\n    tag_7:\n      callvalue\n      dup1\n      iszero\n      tag_31\n      jumpi\n      0x00\n      dup1\n      revert\n    tag_31:\n      pop\n      tag_27\n      tag_33\n      calldatasize\n      0x04\n      tag_29\n      jump\t// in\n    tag_33:\n        /* \"Practical1-Jason.sol\":375:387  targetNumber */\n      0x00\n        /* \"Practical1-Jason.sol\":375:405  targetNumber = newTargetNubmer */\n      sstore\n        /* \"Practical1-Jason.sol\":305:413  function setTargetNumber(uint256 newTargetNubmer) external {... */\n      jump\n        /* \"Practical1-Jason.sol\":721:1493  function logicCheck() external payable returns (string memory) {... */\n    tag_19:\n        /* \"Practical1-Jason.sol\":769:782  string memory */\n      0x60\n        /* \"Practical1-Jason.sol\":814:826  targetNumber */\n      sload(0x00)\n        /* \"Practical1-Jason.sol\":799:810  guessNumber */\n      sload(0x01)\n        /* \"Practical1-Jason.sol\":799:826  guessNumber == targetNumber */\n      sub\n        /* \"Practical1-Jason.sol\":795:865  if (guessNumber == targetNumber) {... */\n      tag_36\n      jumpi\n        /* \"Practical1-Jason.sol\":843:846  win */\n      0x02\n        /* \"Practical1-Jason.sol\":843:853  win = true */\n      dup1\n      sload\n      not(0xff)\n      and\n        /* \"Practical1-Jason.sol\":849:853  true */\n      0x01\n        /* \"Practical1-Jason.sol\":843:853  win = true */\n      or\n      swap1\n      sstore\n        /* \"Practical1-Jason.sol\":795:865  if (guessNumber == targetNumber) {... */\n    tag_36:\n        /* \"Practical1-Jason.sol\":1232:1235  win */\n      and(0xff, sload(0x02))\n        /* \"Practical1-Jason.sol\":1228:1486  if (win) return (\"You win!!\");... */\n      iszero\n      tag_37\n      jumpi\n      pop\n        /* \"Practical1-Jason.sol\":1237:1257  return (\"You win!!\") */\n      0x40\n      dup1\n      mload\n      dup1\n      dup3\n      add\n      swap1\n      swap2\n      mstore\n      0x09\n      dup2\n      mstore\n      shl(0xb8, 0x596f752077696e2121)\n      0x20\n      dup3\n      add\n      mstore\n      swap1\n        /* \"Practical1-Jason.sol\":721:1493  function logicCheck() external payable returns (string memory) {... */\n      jump\t// out\n        /* \"Practical1-Jason.sol\":1228:1486  if (win) return (\"You win!!\");... */\n    tag_37:\n        /* \"Practical1-Jason.sol\":1309:1312  100 */\n      0x64\n        /* \"Practical1-Jason.sol\":1296:1305  msg.value */\n      callvalue\n        /* \"Practical1-Jason.sol\":1296:1312  msg.value >= 100 */\n      lt\n      iszero\n        /* \"Practical1-Jason.sol\":1288:1337  require(msg.value >= 100, \"Error: Send 100 wei!\") */\n      tag_39\n      jumpi\n      mload(0x40)\n      shl(0xe5, 0x461bcd)\n      dup2\n      mstore\n        /* \"#utility.yul\":1360:1362   */\n      0x20\n        /* \"Practical1-Jason.sol\":1288:1337  require(msg.value >= 100, \"Error: Send 100 wei!\") */\n      0x04\n      dup3\n      add\n        /* \"#utility.yul\":1342:1363   */\n      mstore\n        /* \"#utility.yul\":1399:1401   */\n      0x14\n        /* \"#utility.yul\":1379:1397   */\n      0x24\n      dup3\n      add\n        /* \"#utility.yul\":1372:1402   */\n      mstore\n      shl(0x60, 0x4572726f723a2053656e64203130302077656921)\n        /* \"#utility.yul\":1418:1436   */\n      0x44\n      dup3\n      add\n        /* \"#utility.yul\":1411:1461   */\n      mstore\n        /* \"#utility.yul\":1478:1496   */\n      0x64\n      add\n        /* \"Practical1-Jason.sol\":1288:1337  require(msg.value >= 100, \"Error: Send 100 wei!\") */\n    tag_40:\n      mload(0x40)\n      dup1\n      swap2\n      sub\n      swap1\n      revert\n    tag_39:\n        /* \"Practical1-Jason.sol\":1367:1375  treasury */\n      sload(0x02)\n        /* \"Practical1-Jason.sol\":1367:1391  treasury.send(msg.value) */\n      mload(0x40)\n        /* \"Practical1-Jason.sol\":1352:1364  bool success */\n      0x00\n      swap2\n      sub(shl(0xa0, 0x01), 0x01)\n        /* \"Practical1-Jason.sol\":1367:1375  treasury */\n      0x0100\n      swap1\n      swap2\n      div\n      and\n      swap1\n        /* \"Practical1-Jason.sol\":1381:1390  msg.value */\n      callvalue\n        /* \"Practical1-Jason.sol\":1367:1391  treasury.send(msg.value) */\n      dup1\n      iszero\n      0x08fc\n      mul\n      swap2\n        /* \"Practical1-Jason.sol\":1352:1364  bool success */\n      dup5\n        /* \"Practical1-Jason.sol\":1367:1391  treasury.send(msg.value) */\n      dup2\n        /* \"Practical1-Jason.sol\":1352:1364  bool success */\n      dup2\n        /* \"Practical1-Jason.sol\":1367:1391  treasury.send(msg.value) */\n      dup2\n        /* \"Practical1-Jason.sol\":1381:1390  msg.value */\n      dup6\n        /* \"Practical1-Jason.sol\":1367:1375  treasury */\n      dup9\n        /* \"Practical1-Jason.sol\":1367:1391  treasury.send(msg.value) */\n      dup9\n      call\n      swap4\n      pop\n      pop\n      pop\n      pop\n        /* \"Practical1-Jason.sol\":1352:1391  bool success = treasury.send(msg.value) */\n      swap1\n      pop\n        /* \"Practical1-Jason.sol\":1414:1421  success */\n      dup1\n        /* \"Practical1-Jason.sol\":1406:1440  require(success, \"Failed to send\") */\n      tag_43\n      jumpi\n      mload(0x40)\n      shl(0xe5, 0x461bcd)\n      dup2\n      mstore\n        /* \"#utility.yul\":1709:1711   */\n      0x20\n        /* \"Practical1-Jason.sol\":1406:1440  require(success, \"Failed to send\") */\n      0x04\n      dup3\n      add\n        /* \"#utility.yul\":1691:1712   */\n      mstore\n        /* \"#utility.yul\":1748:1750   */\n      0x0e\n        /* \"#utility.yul\":1728:1746   */\n      0x24\n      dup3\n      add\n        /* \"#utility.yul\":1721:1751   */\n      mstore\n      shl(0x92, 0x11985a5b1959081d1bc81cd95b99)\n        /* \"#utility.yul\":1767:1785   */\n      0x44\n      dup3\n      add\n        /* \"#utility.yul\":1760:1804   */\n      mstore\n        /* \"#utility.yul\":1821:1839   */\n      0x64\n      add\n        /* \"Practical1-Jason.sol\":1406:1440  require(success, \"Failed to send\") */\n      tag_40\n        /* \"#utility.yul\":1507:1845   */\n      jump\n        /* \"Practical1-Jason.sol\":1406:1440  require(success, \"Failed to send\") */\n    tag_43:\n      pop\n      pop\n        /* \"Practical1-Jason.sol\":1455:1474  return (\"You loss\") */\n      0x40\n      dup1\n      mload\n      dup1\n      dup3\n      add\n      swap1\n      swap2\n      mstore\n      0x08\n      dup2\n      mstore\n      shl(0xc0, 0x596f75206c6f7373)\n      0x20\n      dup3\n      add\n      mstore\n      swap1\n        /* \"Practical1-Jason.sol\":721:1493  function logicCheck() external payable returns (string memory) {... */\n      jump\t// out\n        /* \"#utility.yul\":420:968   */\n    tag_21:\n        /* \"#utility.yul\":532:536   */\n      0x00\n        /* \"#utility.yul\":561:563   */\n      0x20\n        /* \"#utility.yul\":590:592   */\n      dup1\n        /* \"#utility.yul\":579:588   */\n      dup4\n        /* \"#utility.yul\":572:593   */\n      mstore\n        /* \"#utility.yul\":622:628   */\n      dup4\n        /* \"#utility.yul\":616:629   */\n      mload\n        /* \"#utility.yul\":665:671   */\n      dup1\n        /* \"#utility.yul\":660:662   */\n      dup3\n        /* \"#utility.yul\":649:658   */\n      dup6\n        /* \"#utility.yul\":645:663   */\n      add\n        /* \"#utility.yul\":638:672   */\n      mstore\n        /* \"#utility.yul\":690:691   */\n      0x00\n        /* \"#utility.yul\":700:840   */\n    tag_52:\n        /* \"#utility.yul\":714:720   */\n      dup2\n        /* \"#utility.yul\":711:712   */\n      dup2\n        /* \"#utility.yul\":708:721   */\n      lt\n        /* \"#utility.yul\":700:840   */\n      iszero\n      tag_54\n      jumpi\n        /* \"#utility.yul\":809:823   */\n      dup6\n      dup2\n      add\n        /* \"#utility.yul\":805:828   */\n      dup4\n      add\n        /* \"#utility.yul\":799:829   */\n      mload\n        /* \"#utility.yul\":775:792   */\n      dup6\n      dup3\n      add\n        /* \"#utility.yul\":794:796   */\n      0x40\n        /* \"#utility.yul\":771:797   */\n      add\n        /* \"#utility.yul\":764:830   */\n      mstore\n        /* \"#utility.yul\":729:739   */\n      dup3\n      add\n        /* \"#utility.yul\":700:840   */\n      jump(tag_52)\n    tag_54:\n        /* \"#utility.yul\":704:707   */\n      pop\n        /* \"#utility.yul\":889:890   */\n      0x00\n        /* \"#utility.yul\":884:886   */\n      0x40\n        /* \"#utility.yul\":875:881   */\n      dup3\n        /* \"#utility.yul\":864:873   */\n      dup7\n        /* \"#utility.yul\":860:882   */\n      add\n        /* \"#utility.yul\":856:887   */\n      add\n        /* \"#utility.yul\":849:891   */\n      mstore\n        /* \"#utility.yul\":959:961   */\n      0x40\n        /* \"#utility.yul\":952:954   */\n      0x1f\n        /* \"#utility.yul\":948:955   */\n      not\n        /* \"#utility.yul\":943:945   */\n      0x1f\n        /* \"#utility.yul\":935:941   */\n      dup4\n        /* \"#utility.yul\":931:946   */\n      add\n        /* \"#utility.yul\":927:956   */\n      and\n        /* \"#utility.yul\":916:925   */\n      dup6\n        /* \"#utility.yul\":912:957   */\n      add\n        /* \"#utility.yul\":908:962   */\n      add\n        /* \"#utility.yul\":900:962   */\n      swap3\n      pop\n      pop\n      pop\n        /* \"#utility.yul\":420:968   */\n      swap3\n      swap2\n      pop\n      pop\n      jump\t// out\n        /* \"#utility.yul\":973:1153   */\n    tag_29:\n        /* \"#utility.yul\":1032:1038   */\n      0x00\n        /* \"#utility.yul\":1085:1087   */\n      0x20\n        /* \"#utility.yul\":1073:1082   */\n      dup3\n        /* \"#utility.yul\":1064:1071   */\n      dup5\n        /* \"#utility.yul\":1060:1083   */\n      sub\n        /* \"#utility.yul\":1056:1088   */\n      slt\n        /* \"#utility.yul\":1053:1105   */\n      iszero\n      tag_56\n      jumpi\n        /* \"#utility.yul\":1101:1102   */\n      0x00\n        /* \"#utility.yul\":1098:1099   */\n      dup1\n        /* \"#utility.yul\":1091:1103   */\n      revert\n        /* \"#utility.yul\":1053:1105   */\n    tag_56:\n      pop\n        /* \"#utility.yul\":1124:1147   */\n      calldataload\n      swap2\n        /* \"#utility.yul\":973:1153   */\n      swap1\n      pop\n      jump\t// out\n\n    auxdata: 0xa2646970667358221220d6edb4b2ff9abf039b6255fbcb9345fa228e4c19f49dd44122b237d0fa6c2d2b64736f6c63430008130033\n}\n",
				"bytecode": {
					"linkReferences": {},
					"object": "608060405260028054610100600160a81b03191674ab8483f64d9c6d1ecf9b849ae677dd3315835cb20017905534801561003857600080fd5b506102f3806100486000396000f3fe6080604052600436106100555760003560e01c80630ff5df671461005a57806361d027b314610083578063669997bc146100c057806371985c08146100d5578063762f6335146100eb578063c12a19f41461010d575b600080fd5b34801561006657600080fd5b5061007060015481565b6040519081526020015b60405180910390f35b34801561008f57600080fd5b506002546100a89061010090046001600160a01b031681565b6040516001600160a01b03909116815260200161007a565b6100c861012d565b60405161007a9190610256565b3480156100e157600080fd5b5061007060005481565b3480156100f757600080fd5b5061010b6101063660046102a4565b600155565b005b34801561011957600080fd5b5061010b6101283660046102a4565b600055565b606060005460015403610148576002805460ff191660011790555b60025460ff16156101775750604080518082019091526009815268596f752077696e212160b81b602082015290565b60643410156101c45760405162461bcd60e51b81526020600482015260146024820152734572726f723a2053656e6420313030207765692160601b60448201526064015b60405180910390fd5b6002546040516000916001600160a01b0361010090910416903480156108fc029184818181858888f193505050509050806102325760405162461bcd60e51b815260206004820152600e60248201526d11985a5b1959081d1bc81cd95b9960921b60448201526064016101bb565b5050604080518082019091526008815267596f75206c6f737360c01b602082015290565b600060208083528351808285015260005b8181101561028357858101830151858201604001528201610267565b506000604082860101526040601f19601f8301168501019250505092915050565b6000602082840312156102b657600080fd5b503591905056fea2646970667358221220d6edb4b2ff9abf039b6255fbcb9345fa228e4c19f49dd44122b237d0fa6c2d2b64736f6c63430008130033",
					"opcodes": "PUSH1 0x80 PUSH1 0x40 MSTORE PUSH1 0x2 DUP1 SLOAD PUSH2 0x100 PUSH1 0x1 PUSH1 0xA8 SHL SUB NOT AND PUSH21 0xAB8483F64D9C6D1ECF9B849AE677DD3315835CB200 OR SWAP1 SSTORE CALLVALUE DUP1 ISZERO PUSH2 0x38 JUMPI PUSH1 0x0 DUP1 REVERT JUMPDEST POP PUSH2 0x2F3 DUP1 PUSH2 0x48 PUSH1 0x0 CODECOPY PUSH1 0x0 RETURN INVALID PUSH1 0x80 PUSH1 0x40 MSTORE PUSH1 0x4 CALLDATASIZE LT PUSH2 0x55 JUMPI PUSH1 0x0 CALLDATALOAD PUSH1 0xE0 SHR DUP1 PUSH4 0xFF5DF67 EQ PUSH2 0x5A JUMPI DUP1 PUSH4 0x61D027B3 EQ PUSH2 0x83 JUMPI DUP1 PUSH4 0x669997BC EQ PUSH2 0xC0 JUMPI DUP1 PUSH4 0x71985C08 EQ PUSH2 0xD5 JUMPI DUP1 PUSH4 0x762F6335 EQ PUSH2 0xEB JUMPI DUP1 PUSH4 0xC12A19F4 EQ PUSH2 0x10D JUMPI JUMPDEST PUSH1 0x0 DUP1 REVERT JUMPDEST CALLVALUE DUP1 ISZERO PUSH2 0x66 JUMPI PUSH1 0x0 DUP1 REVERT JUMPDEST POP PUSH2 0x70 PUSH1 0x1 SLOAD DUP2 JUMP JUMPDEST PUSH1 0x40 MLOAD SWAP1 DUP2 MSTORE PUSH1 0x20 ADD JUMPDEST PUSH1 0x40 MLOAD DUP1 SWAP2 SUB SWAP1 RETURN JUMPDEST CALLVALUE DUP1 ISZERO PUSH2 0x8F JUMPI PUSH1 0x0 DUP1 REVERT JUMPDEST POP PUSH1 0x2 SLOAD PUSH2 0xA8 SWAP1 PUSH2 0x100 SWAP1 DIV PUSH1 0x1 PUSH1 0x1 PUSH1 0xA0 SHL SUB AND DUP2 JUMP JUMPDEST PUSH1 0x40 MLOAD PUSH1 0x1 PUSH1 0x1 PUSH1 0xA0 SHL SUB SWAP1 SWAP2 AND DUP2 MSTORE PUSH1 0x20 ADD PUSH2 0x7A JUMP JUMPDEST PUSH2 0xC8 PUSH2 0x12D JUMP JUMPDEST PUSH1 0x40 MLOAD PUSH2 0x7A SWAP2 SWAP1 PUSH2 0x256 JUMP JUMPDEST CALLVALUE DUP1 ISZERO PUSH2 0xE1 JUMPI PUSH1 0x0 DUP1 REVERT JUMPDEST POP PUSH2 0x70 PUSH1 0x0 SLOAD DUP2 JUMP JUMPDEST CALLVALUE DUP1 ISZERO PUSH2 0xF7 JUMPI PUSH1 0x0 DUP1 REVERT JUMPDEST POP PUSH2 0x10B PUSH2 0x106 CALLDATASIZE PUSH1 0x4 PUSH2 0x2A4 JUMP JUMPDEST PUSH1 0x1 SSTORE JUMP JUMPDEST STOP JUMPDEST CALLVALUE DUP1 ISZERO PUSH2 0x119 JUMPI PUSH1 0x0 DUP1 REVERT JUMPDEST POP PUSH2 0x10B PUSH2 0x128 CALLDATASIZE PUSH1 0x4 PUSH2 0x2A4 JUMP JUMPDEST PUSH1 0x0 SSTORE JUMP JUMPDEST PUSH1 0x60 PUSH1 0x0 SLOAD PUSH1 0x1 SLOAD SUB PUSH2 0x148 JUMPI PUSH1 0x2 DUP1 SLOAD PUSH1 0xFF NOT AND PUSH1 0x1 OR SWAP1 SSTORE JUMPDEST PUSH1 0x2 SLOAD PUSH1 0xFF AND ISZERO PUSH2 0x177 JUMPI POP PUSH1 0x40 DUP1 MLOAD DUP1 DUP3 ADD SWAP1 SWAP2 MSTORE PUSH1 0x9 DUP2 MSTORE PUSH9 0x596F752077696E2121 PUSH1 0xB8 SHL PUSH1 0x20 DUP3 ADD MSTORE SWAP1 JUMP JUMPDEST PUSH1 0x64 CALLVALUE LT ISZERO PUSH2 0x1C4 JUMPI PUSH1 0x40 MLOAD PUSH3 0x461BCD PUSH1 0xE5 SHL DUP2 MSTORE PUSH1 0x20 PUSH1 0x4 DUP3 ADD MSTORE PUSH1 0x14 PUSH1 0x24 DUP3 ADD MSTORE PUSH20 0x4572726F723A2053656E64203130302077656921 PUSH1 0x60 SHL PUSH1 0x44 DUP3 ADD MSTORE PUSH1 0x64 ADD JUMPDEST PUSH1 0x40 MLOAD DUP1 SWAP2 SUB SWAP1 REVERT JUMPDEST PUSH1 0x2 SLOAD PUSH1 0x40 MLOAD PUSH1 0x0 SWAP2 PUSH1 0x1 PUSH1 0x1 PUSH1 0xA0 SHL SUB PUSH2 0x100 SWAP1 SWAP2 DIV AND SWAP1 CALLVALUE DUP1 ISZERO PUSH2 0x8FC MUL SWAP2 DUP5 DUP2 DUP2 DUP2 DUP6 DUP9 DUP9 CALL SWAP4 POP POP POP POP SWAP1 POP DUP1 PUSH2 0x232 JUMPI PUSH1 0x40 MLOAD PUSH3 0x461BCD PUSH1 0xE5 SHL DUP2 MSTORE PUSH1 0x20 PUSH1 0x4 DUP3 ADD MSTORE PUSH1 0xE PUSH1 0x24 DUP3 ADD MSTORE PUSH14 0x11985A5B1959081D1BC81CD95B99 PUSH1 0x92 SHL PUSH1 0x44 DUP3 ADD MSTORE PUSH1 0x64 ADD PUSH2 0x1BB JUMP JUMPDEST POP POP PUSH1 0x40 DUP1 MLOAD DUP1 DUP3 ADD SWAP1 SWAP2 MSTORE PUSH1 0x8 DUP2 MSTORE PUSH8 0x596F75206C6F7373 PUSH1 0xC0 SHL PUSH1 0x20 DUP3 ADD MSTORE SWAP1 JUMP JUMPDEST PUSH1 0x0 PUSH1 0x20 DUP1 DUP4 MSTORE DUP4 MLOAD DUP1 DUP3 DUP6 ADD MSTORE PUSH1 0x0 JUMPDEST DUP2 DUP2 LT ISZERO PUSH2 0x283 JUMPI DUP6 DUP2 ADD DUP4 ADD MLOAD DUP6 DUP3 ADD PUSH1 0x40 ADD MSTORE DUP3 ADD PUSH2 0x267 JUMP JUMPDEST POP PUSH1 0x0 PUSH1 0x40 DUP3 DUP7 ADD ADD MSTORE PUSH1 0x40 PUSH1 0x1F NOT PUSH1 0x1F DUP4 ADD AND DUP6 ADD ADD SWAP3 POP POP POP SWAP3 SWAP2 POP POP JUMP JUMPDEST PUSH1 0x0 PUSH1 0x20 DUP3 DUP5 SUB SLT ISZERO PUSH2 0x2B6 JUMPI PUSH1 0x0 DUP1 REVERT JUMPDEST POP CALLDATALOAD SWAP2 SWAP1 POP JUMP INVALID LOG2 PUSH5 0x6970667358 0x22 SLT KECCAK256 0xD6 0xED 0xB4 0xB2 SELFDESTRUCT SWAP11 0xBF SUB SWAP12 PUSH3 0x55FBCB SWAP4 GASLIMIT STATICCALL 0x22 DUP15 0x4C NOT DELEGATECALL SWAP14 0xD4 COINBASE 0x22 0xB2 CALLDATACOPY 0xD0 STATICCALL PUSH13 0x2D2B64736F6C63430008130033 "
				},
				"gasEstimates": {
					"creation": {
						"codeDepositCost": "151000",
						"executionCost": "24432",
						"totalCost": "175432"
					},
					"external": {
						"guessNumber()": "2262",
						"logicCheck()": "infinite",
						"setGuessNumber(uint256)": "22378",
						"setTargetNumber(uint256)": "22400",
						"targetNumber()": "2328",
						"treasury()": "2348"
					}
				},
				"methodIdentifiers": {
					"guessNumber()": "0ff5df67",
					"logicCheck()": "669997bc",
					"setGuessNumber(uint256)": "762f6335",
					"setTargetNumber(uint256)": "c12a19f4",
					"targetNumber()": "71985c08",
					"treasury()": "61d027b3"
				}
			},
			"storageLayout": {
				"storage": [
					{
						"astId": 3,
						"contract": "Practical1-Jason.sol:MyGuessNumberGame",
						"label": "targetNumber",
						"offset": 0,
						"slot": "0",
						"type": "t_uint256"
					},
					{
						"astId": 5,
						"contract": "Practical1-Jason.sol:MyGuessNumberGame",
						"label": "guessNumber",
						"offset": 0,
						"slot": "1",
						"type": "t_uint256"
					},
					{
						"astId": 7,
						"contract": "Practical1-Jason.sol:MyGuessNumberGame",
						"label": "win",
						"offset": 0,
						"slot": "2",
						"type": "t_bool"
					},
					{
						"astId": 13,
						"contract": "Practical1-Jason.sol:MyGuessNumberGame",
						"label": "treasury",
						"offset": 1,
						"slot": "2",
						"type": "t_address_payable"
					}
				],
				"types": {
					"t_address_payable": {
						"encoding": "inplace",
						"label": "address payable",
						"numberOfBytes": "20"
					},
					"t_bool": {
						"encoding": "inplace",
						"label": "bool",
						"numberOfBytes": "1"
					},
					"t_uint256": {
						"encoding": "inplace",
						"label": "uint256",
						"numberOfBytes": "32"
					}
				}
			},
			"userdoc": {
				"kind": "user",
				"methods": {},
				"version": 1
			}
		}
	}
}