{
	"Lesson1.sol": {
		"ArithmeticOperators": {
			"abi": [
				{
					"inputs": [
						{
							"internalType": "uint256",
							"name": "numberToAdd",
							"type": "uint256"
						}
					],
					"name": "addToMyNumber",
					"outputs": [
						{
							"internalType": "uint256",
							"name": "",
							"type": "uint256"
						}
					],
					"stateMutability": "view",
					"type": "function"
				},
				{
					"inputs": [],
					"name": "decrementNumber",
					"outputs": [
						{
							"internalType": "uint256",
							"name": "",
							"type": "uint256"
						}
					],
					"stateMutability": "nonpayable",
					"type": "function"
				},
				{
					"inputs": [
						{
							"internalType": "uint256",
							"name": "divisor",
							"type": "uint256"
						}
					],
					"name": "divideMyNumber",
					"outputs": [
						{
							"internalType": "uint256",
							"name": "",
							"type": "uint256"
						}
					],
					"stateMutability": "view",
					"type": "function"
				},
				{
					"inputs": [
						{
							"internalType": "uint256",
							"name": "divisor",
							"type": "uint256"
						}
					],
					"name": "findTheRemainder",
					"outputs": [
						{
							"internalType": "uint256",
							"name": "",
							"type": "uint256"
						}
					],
					"stateMutability": "view",
					"type": "function"
				},
				{
					"inputs": [],
					"name": "incrementNumber",
					"outputs": [
						{
							"internalType": "uint256",
							"name": "",
							"type": "uint256"
						}
					],
					"stateMutability": "nonpayable",
					"type": "function"
				},
				{
					"inputs": [],
					"name": "isTrue",
					"outputs": [
						{
							"internalType": "bool",
							"name": "",
							"type": "bool"
						}
					],
					"stateMutability": "view",
					"type": "function"
				},
				{
					"inputs": [
						{
							"internalType": "uint256",
							"name": "numberToMultiply",
							"type": "uint256"
						}
					],
					"name": "multiplyMyNumber",
					"outputs": [
						{
							"internalType": "uint256",
							"name": "",
							"type": "uint256"
						}
					],
					"stateMutability": "view",
					"type": "function"
				},
				{
					"inputs": [],
					"name": "myName",
					"outputs": [
						{
							"internalType": "string",
							"name": "",
							"type": "string"
						}
					],
					"stateMutability": "view",
					"type": "function"
				},
				{
					"inputs": [],
					"name": "myNumber",
					"outputs": [
						{
							"internalType": "uint256",
							"name": "",
							"type": "uint256"
						}
					],
					"stateMutability": "view",
					"type": "function"
				},
				{
					"inputs": [],
					"name": "myWallet",
					"outputs": [
						{
							"internalType": "address",
							"name": "",
							"type": "address"
						}
					],
					"stateMutability": "view",
					"type": "function"
				},
				{
					"inputs": [
						{
							"internalType": "uint256",
							"name": "numberToSubtract",
							"type": "uint256"
						}
					],
					"name": "subtractFromMyNumber",
					"outputs": [
						{
							"internalType": "uint256",
							"name": "",
							"type": "uint256"
						}
					],
					"stateMutability": "view",
					"type": "function"
				},
				{
					"inputs": [
						{
							"internalType": "string",
							"name": "newName",
							"type": "string"
						}
					],
					"name": "updateMyName",
					"outputs": [
						{
							"internalType": "string",
							"name": "_myName",
							"type": "string"
						}
					],
					"stateMutability": "nonpayable",
					"type": "function"
				}
			],
			"devdoc": {
				"kind": "dev",
				"methods": {},
				"version": 1
			},
			"evm": {
				"assembly": "    /* \"Lesson1.sol\":434:469  string public myName = \"Arun Kumar\" */\n  0xc0\n    /* \"Lesson1.sol\":809:1800  contract ArithmeticOperators is DataTypes {... */\n  0x40\n    /* \"Lesson1.sol\":434:469  string public myName = \"Arun Kumar\" */\n  mstore\n  0x0a\n    /* \"Lesson1.sol\":809:1800  contract ArithmeticOperators is DataTypes {... */\n  0x80\n    /* \"Lesson1.sol\":434:469  string public myName = \"Arun Kumar\" */\n  swap1\n  dup2\n  mstore\n  mstore(0xa0, shl(0xb1, 0x20b93ab71025bab6b0b9))\n  0x00\n  swap1\n  tag_1\n  swap1\n  dup3\n  tag_2\n  jump\t// in\ntag_1:\n  pop\n    /* \"Lesson1.sol\":498:500  44 */\n  0x2c\n    /* \"Lesson1.sol\":475:500  uint public myNumber = 44 */\n  0x01\n  sstore\n    /* \"Lesson1.sol\":557:625  address public myWallet = 0x5B38Da6a701c568545dCfcB03FcB875f56beddC4 */\n  0x02\n  dup1\n  sload\n  not(sub(shl(0xa8, 0x01), 0x01))\n    /* \"Lesson1.sol\":631:656  bool public isTrue = true */\n  and\n  0x015b38da6a701c568545dcfcb03fcb875f56beddc4\n  or\n  swap1\n  sstore\n    /* \"Lesson1.sol\":809:1800  contract ArithmeticOperators is DataTypes {... */\n  callvalue\n  dup1\n  iszero\n  tag_3\n  jumpi\n  0x00\n  dup1\n  revert\ntag_3:\n  pop\n  jump(tag_10)\n    /* \"#utility.yul\":14:141   */\ntag_5:\n    /* \"#utility.yul\":75:85   */\n  0x4e487b71\n    /* \"#utility.yul\":70:73   */\n  0xe0\n    /* \"#utility.yul\":66:86   */\n  shl\n    /* \"#utility.yul\":63:64   */\n  0x00\n    /* \"#utility.yul\":56:87   */\n  mstore\n    /* \"#utility.yul\":106:110   */\n  0x41\n    /* \"#utility.yul\":103:104   */\n  0x04\n    /* \"#utility.yul\":96:111   */\n  mstore\n    /* \"#utility.yul\":130:134   */\n  0x24\n    /* \"#utility.yul\":127:128   */\n  0x00\n    /* \"#utility.yul\":120:135   */\n  revert\n    /* \"#utility.yul\":146:526   */\ntag_6:\n    /* \"#utility.yul\":225:226   */\n  0x01\n    /* \"#utility.yul\":221:233   */\n  dup2\n  dup2\n  shr\n  swap1\n    /* \"#utility.yul\":268:280   */\n  dup3\n  and\n  dup1\n    /* \"#utility.yul\":289:350   */\n  tag_13\n  jumpi\n    /* \"#utility.yul\":343:347   */\n  0x7f\n    /* \"#utility.yul\":335:341   */\n  dup3\n    /* \"#utility.yul\":331:348   */\n  and\n    /* \"#utility.yul\":321:348   */\n  swap2\n  pop\n    /* \"#utility.yul\":289:350   */\ntag_13:\n    /* \"#utility.yul\":396:398   */\n  0x20\n    /* \"#utility.yul\":388:394   */\n  dup3\n    /* \"#utility.yul\":385:399   */\n  lt\n    /* \"#utility.yul\":365:383   */\n  dup2\n    /* \"#utility.yul\":362:400   */\n  sub\n    /* \"#utility.yul\":359:520   */\n  tag_14\n  jumpi\n    /* \"#utility.yul\":442:452   */\n  0x4e487b71\n    /* \"#utility.yul\":437:440   */\n  0xe0\n    /* \"#utility.yul\":433:453   */\n  shl\n    /* \"#utility.yul\":430:431   */\n  0x00\n    /* \"#utility.yul\":423:454   */\n  mstore\n    /* \"#utility.yul\":477:481   */\n  0x22\n    /* \"#utility.yul\":474:475   */\n  0x04\n    /* \"#utility.yul\":467:482   */\n  mstore\n    /* \"#utility.yul\":505:509   */\n  0x24\n    /* \"#utility.yul\":502:503   */\n  0x00\n    /* \"#utility.yul\":495:510   */\n  revert\n    /* \"#utility.yul\":359:520   */\ntag_14:\n  pop\n    /* \"#utility.yul\":146:526   */\n  swap2\n  swap1\n  pop\n  jump\t// out\n    /* \"#utility.yul\":657:1202   */\ntag_8:\n    /* \"#utility.yul\":759:761   */\n  0x1f\n    /* \"#utility.yul\":754:757   */\n  dup3\n    /* \"#utility.yul\":751:762   */\n  gt\n    /* \"#utility.yul\":748:1196   */\n  iszero\n  tag_17\n  jumpi\n    /* \"#utility.yul\":795:796   */\n  0x00\n    /* \"#utility.yul\":820:825   */\n  dup2\n    /* \"#utility.yul\":816:818   */\n  dup2\n    /* \"#utility.yul\":809:826   */\n  mstore\n    /* \"#utility.yul\":865:869   */\n  0x20\n    /* \"#utility.yul\":861:863   */\n  dup2\n    /* \"#utility.yul\":851:870   */\n  keccak256\n    /* \"#utility.yul\":935:937   */\n  0x1f\n    /* \"#utility.yul\":923:933   */\n  dup6\n    /* \"#utility.yul\":919:938   */\n  add\n    /* \"#utility.yul\":916:917   */\n  0x05\n    /* \"#utility.yul\":912:939   */\n  shr\n    /* \"#utility.yul\":906:910   */\n  dup2\n    /* \"#utility.yul\":902:940   */\n  add\n    /* \"#utility.yul\":971:975   */\n  0x20\n    /* \"#utility.yul\":959:969   */\n  dup7\n    /* \"#utility.yul\":956:976   */\n  lt\n    /* \"#utility.yul\":953:1000   */\n  iszero\n  tag_18\n  jumpi\n  pop\n    /* \"#utility.yul\":994:998   */\n  dup1\n    /* \"#utility.yul\":953:1000   */\ntag_18:\n    /* \"#utility.yul\":1049:1051   */\n  0x1f\n    /* \"#utility.yul\":1044:1047   */\n  dup6\n    /* \"#utility.yul\":1040:1052   */\n  add\n    /* \"#utility.yul\":1037:1038   */\n  0x05\n    /* \"#utility.yul\":1033:1053   */\n  shr\n    /* \"#utility.yul\":1027:1031   */\n  dup3\n    /* \"#utility.yul\":1023:1054   */\n  add\n    /* \"#utility.yul\":1013:1054   */\n  swap2\n  pop\n    /* \"#utility.yul\":1104:1186   */\ntag_19:\n    /* \"#utility.yul\":1122:1124   */\n  dup2\n    /* \"#utility.yul\":1115:1120   */\n  dup2\n    /* \"#utility.yul\":1112:1125   */\n  lt\n    /* \"#utility.yul\":1104:1186   */\n  iszero\n  tag_21\n  jumpi\n    /* \"#utility.yul\":1167:1184   */\n  dup3\n  dup2\n  sstore\n    /* \"#utility.yul\":1148:1149   */\n  0x01\n    /* \"#utility.yul\":1137:1150   */\n  add\n    /* \"#utility.yul\":1104:1186   */\n  jump(tag_19)\ntag_21:\n    /* \"#utility.yul\":1108:1111   */\n  pop\n  pop\n  pop\n    /* \"#utility.yul\":748:1196   */\ntag_17:\n    /* \"#utility.yul\":657:1202   */\n  pop\n  pop\n  pop\n  jump\t// out\n    /* \"#utility.yul\":1378:2730   */\ntag_2:\n    /* \"#utility.yul\":1498:1508   */\n  dup2\n  mload\n  sub(shl(0x40, 0x01), 0x01)\n    /* \"#utility.yul\":1520:1550   */\n  dup2\n  gt\n    /* \"#utility.yul\":1517:1573   */\n  iszero\n  tag_25\n  jumpi\n    /* \"#utility.yul\":1553:1571   */\n  tag_25\n  tag_5\n  jump\t// in\ntag_25:\n    /* \"#utility.yul\":1582:1679   */\n  tag_26\n    /* \"#utility.yul\":1672:1678   */\n  dup2\n    /* \"#utility.yul\":1632:1670   */\n  tag_27\n    /* \"#utility.yul\":1664:1668   */\n  dup5\n    /* \"#utility.yul\":1658:1669   */\n  sload\n    /* \"#utility.yul\":1632:1670   */\n  tag_6\n  jump\t// in\ntag_27:\n    /* \"#utility.yul\":1626:1630   */\n  dup5\n    /* \"#utility.yul\":1582:1679   */\n  tag_8\n  jump\t// in\ntag_26:\n    /* \"#utility.yul\":1734:1738   */\n  0x20\n  dup1\n    /* \"#utility.yul\":1798:1800   */\n  0x1f\n    /* \"#utility.yul\":1787:1801   */\n  dup4\n  gt\n    /* \"#utility.yul\":1815:1816   */\n  0x01\n    /* \"#utility.yul\":1810:2473   */\n  dup2\n  eq\n  tag_29\n  jumpi\n    /* \"#utility.yul\":2517:2518   */\n  0x00\n    /* \"#utility.yul\":2534:2540   */\n  dup5\n    /* \"#utility.yul\":2531:2620   */\n  iszero\n  tag_30\n  jumpi\n  pop\n    /* \"#utility.yul\":2586:2605   */\n  dup6\n  dup4\n  add\n    /* \"#utility.yul\":2580:2606   */\n  mload\n    /* \"#utility.yul\":2531:2620   */\ntag_30:\n  not(0x00)\n    /* \"#utility.yul\":1335:1336   */\n  0x03\n    /* \"#utility.yul\":1331:1342   */\n  dup7\n  swap1\n  shl\n    /* \"#utility.yul\":1327:1351   */\n  shr\n    /* \"#utility.yul\":1323:1352   */\n  not\n    /* \"#utility.yul\":1313:1353   */\n  and\n    /* \"#utility.yul\":1359:1360   */\n  0x01\n    /* \"#utility.yul\":1355:1366   */\n  dup6\n  swap1\n  shl\n    /* \"#utility.yul\":1310:1367   */\n  or\n    /* \"#utility.yul\":2633:2714   */\n  dup6\n  sstore\n    /* \"#utility.yul\":1780:2724   */\n  jump(tag_21)\n    /* \"#utility.yul\":1810:2473   */\ntag_29:\n    /* \"#utility.yul\":604:605   */\n  0x00\n    /* \"#utility.yul\":597:611   */\n  dup6\n  dup2\n  mstore\n    /* \"#utility.yul\":641:645   */\n  0x20\n    /* \"#utility.yul\":628:646   */\n  dup2\n  keccak256\n  not(0x1f)\n    /* \"#utility.yul\":1846:1866   */\n  dup7\n  and\n  swap2\n    /* \"#utility.yul\":1964:2200   */\ntag_33:\n    /* \"#utility.yul\":1978:1985   */\n  dup3\n    /* \"#utility.yul\":1975:1976   */\n  dup2\n    /* \"#utility.yul\":1972:1986   */\n  lt\n    /* \"#utility.yul\":1964:2200   */\n  iszero\n  tag_35\n  jumpi\n    /* \"#utility.yul\":2067:2086   */\n  dup9\n  dup7\n  add\n    /* \"#utility.yul\":2061:2087   */\n  mload\n    /* \"#utility.yul\":2046:2088   */\n  dup3\n  sstore\n    /* \"#utility.yul\":2159:2186   */\n  swap5\n  dup5\n  add\n  swap5\n    /* \"#utility.yul\":2127:2128   */\n  0x01\n    /* \"#utility.yul\":2115:2129   */\n  swap1\n  swap2\n  add\n  swap1\n    /* \"#utility.yul\":1994:2013   */\n  dup5\n  add\n    /* \"#utility.yul\":1964:2200   */\n  jump(tag_33)\ntag_35:\n    /* \"#utility.yul\":1968:1971   */\n  pop\n    /* \"#utility.yul\":2228:2234   */\n  dup6\n    /* \"#utility.yul\":2219:2226   */\n  dup3\n    /* \"#utility.yul\":2216:2235   */\n  lt\n    /* \"#utility.yul\":2213:2414   */\n  iszero\n  tag_36\n  jumpi\n    /* \"#utility.yul\":2289:2308   */\n  dup8\n  dup6\n  add\n    /* \"#utility.yul\":2283:2309   */\n  mload\n  not(0x00)\n    /* \"#utility.yul\":2372:2373   */\n  0x03\n    /* \"#utility.yul\":2368:2382   */\n  dup9\n  swap1\n  shl\n    /* \"#utility.yul\":2384:2387   */\n  0xf8\n    /* \"#utility.yul\":2364:2388   */\n  and\n    /* \"#utility.yul\":2360:2397   */\n  shr\n    /* \"#utility.yul\":2356:2398   */\n  not\n    /* \"#utility.yul\":2341:2399   */\n  and\n    /* \"#utility.yul\":2326:2400   */\n  dup2\n  sstore\n    /* \"#utility.yul\":2213:2414   */\ntag_36:\n  pop\n  pop\n  pop\n  pop\n  pop\n    /* \"#utility.yul\":2460:2461   */\n  0x01\n    /* \"#utility.yul\":2444:2458   */\n  swap1\n  dup2\n  shl\n    /* \"#utility.yul\":2440:2462   */\n  add\n    /* \"#utility.yul\":2427:2463   */\n  swap1\n  sstore\n  pop\n    /* \"#utility.yul\":1378:2730   */\n  jump\t// out\ntag_10:\n    /* \"Lesson1.sol\":809:1800  contract ArithmeticOperators is DataTypes {... */\n  dataSize(sub_0)\n  dup1\n  dataOffset(sub_0)\n  0x00\n  codecopy\n  0x00\n  return\nstop\n\nsub_0: assembly {\n        /* \"Lesson1.sol\":809:1800  contract ArithmeticOperators is DataTypes {... */\n      mstore(0x40, 0x80)\n      callvalue\n      dup1\n      iszero\n      tag_1\n      jumpi\n      0x00\n      dup1\n      revert\n    tag_1:\n      pop\n      jumpi(tag_2, lt(calldatasize, 0x04))\n      shr(0xe0, calldataload(0x00))\n      dup1\n      0x871cc9d4\n      gt\n      tag_15\n      jumpi\n      dup1\n      0x871cc9d4\n      eq\n      tag_9\n      jumpi\n      dup1\n      0xb880b69a\n      eq\n      tag_10\n      jumpi\n      dup1\n      0xb93d1d5a\n      eq\n      tag_11\n      jumpi\n      dup1\n      0xcf429767\n      eq\n      tag_12\n      jumpi\n      dup1\n      0xfae2dd4b\n      eq\n      tag_13\n      jumpi\n      dup1\n      0xfdfa0a9a\n      eq\n      tag_14\n      jumpi\n      0x00\n      dup1\n      revert\n    tag_15:\n      dup1\n      0x74530a\n      eq\n      tag_3\n      jumpi\n      dup1\n      0x162ab909\n      eq\n      tag_4\n      jumpi\n      dup1\n      0x23fd0e40\n      eq\n      tag_5\n      jumpi\n      dup1\n      0x273ea3e3\n      eq\n      tag_6\n      jumpi\n      dup1\n      0x64b067ec\n      eq\n      tag_7\n      jumpi\n      dup1\n      0x6714b51b\n      eq\n      tag_8\n      jumpi\n    tag_2:\n      0x00\n      dup1\n      revert\n        /* \"Lesson1.sol\":631:656  bool public isTrue = true */\n    tag_3:\n      sload(0x02)\n      tag_16\n      swap1\n      shl(0xa0, 0x01)\n      swap1\n      div\n      0xff\n      and\n      dup2\n      jump\n    tag_16:\n      mload(0x40)\n        /* \"#utility.yul\":179:193   */\n      swap1\n      iszero\n        /* \"#utility.yul\":172:194   */\n      iszero\n        /* \"#utility.yul\":154:195   */\n      dup2\n      mstore\n        /* \"#utility.yul\":142:144   */\n      0x20\n        /* \"#utility.yul\":127:145   */\n      add\n        /* \"Lesson1.sol\":631:656  bool public isTrue = true */\n    tag_18:\n      mload(0x40)\n      dup1\n      swap2\n      sub\n      swap1\n      return\n        /* \"Lesson1.sol\":663:805  function updateMyName(string memory newName) external returns(string memory _myName){... */\n    tag_4:\n      tag_20\n      tag_21\n      calldatasize\n      0x04\n      tag_22\n      jump\t// in\n    tag_21:\n      tag_23\n      jump\t// in\n    tag_20:\n      mload(0x40)\n      tag_18\n      swap2\n      swap1\n      tag_25\n      jump\t// in\n        /* \"Lesson1.sol\":475:500  uint public myNumber = 44 */\n    tag_5:\n      tag_26\n      sload(0x01)\n      dup2\n      jump\n    tag_26:\n      mload(0x40)\n        /* \"#utility.yul\":1964:1989   */\n      swap1\n      dup2\n      mstore\n        /* \"#utility.yul\":1952:1954   */\n      0x20\n        /* \"#utility.yul\":1937:1955   */\n      add\n        /* \"Lesson1.sol\":475:500  uint public myNumber = 44 */\n      tag_18\n        /* \"#utility.yul\":1818:1995   */\n      jump\n        /* \"Lesson1.sol\":1586:1689  function incrementNumber() external returns(uint){... */\n    tag_6:\n      tag_26\n      tag_31\n      jump\t// in\n        /* \"Lesson1.sol\":1113:1246  function subtractFromMyNumber(uint numberToSubtract) external view returns(uint){... */\n    tag_7:\n      tag_26\n      tag_34\n      calldatasize\n      0x04\n      tag_35\n      jump\t// in\n    tag_34:\n      tag_36\n      jump\t// in\n        /* \"Lesson1.sol\":1469:1580  function findTheRemainder(uint divisor) external view returns(uint){... */\n    tag_8:\n      tag_26\n      tag_39\n      calldatasize\n      0x04\n      tag_35\n      jump\t// in\n    tag_39:\n      tag_40\n      jump\t// in\n        /* \"Lesson1.sol\":1695:1798  function decrementNumber() external returns(uint){... */\n    tag_9:\n      tag_26\n      tag_43\n      jump\t// in\n        /* \"Lesson1.sol\":557:625  address public myWallet = 0x5B38Da6a701c568545dCfcB03FcB875f56beddC4 */\n    tag_10:\n      sload(0x02)\n      tag_45\n      swap1\n      sub(shl(0xa0, 0x01), 0x01)\n      and\n      dup2\n      jump\n    tag_45:\n      mload(0x40)\n      sub(shl(0xa0, 0x01), 0x01)\n        /* \"#utility.yul\":2349:2381   */\n      swap1\n      swap2\n      and\n        /* \"#utility.yul\":2331:2382   */\n      dup2\n      mstore\n        /* \"#utility.yul\":2319:2321   */\n      0x20\n        /* \"#utility.yul\":2304:2322   */\n      add\n        /* \"Lesson1.sol\":557:625  address public myWallet = 0x5B38Da6a701c568545dCfcB03FcB875f56beddC4 */\n      tag_18\n        /* \"#utility.yul\":2185:2388   */\n      jump\n        /* \"Lesson1.sol\":1252:1463  function divideMyNumber(uint divisor) external view returns(uint){... */\n    tag_11:\n      tag_26\n      tag_50\n      calldatasize\n      0x04\n      tag_35\n      jump\t// in\n    tag_50:\n      tag_51\n      jump\t// in\n        /* \"Lesson1.sol\":857:985  function multiplyMyNumber(uint numberToMultiply) external view returns(uint){... */\n    tag_12:\n      tag_26\n      tag_54\n      calldatasize\n      0x04\n      tag_35\n      jump\t// in\n    tag_54:\n      tag_55\n      jump\t// in\n        /* \"Lesson1.sol\":434:469  string public myName = \"Arun Kumar\" */\n    tag_13:\n      tag_20\n      tag_58\n      jump\t// in\n        /* \"Lesson1.sol\":991:1107  function addToMyNumber(uint numberToAdd) external view returns(uint){... */\n    tag_14:\n      tag_26\n      tag_61\n      calldatasize\n      0x04\n      tag_35\n      jump\t// in\n    tag_61:\n      tag_62\n      jump\t// in\n        /* \"Lesson1.sol\":663:805  function updateMyName(string memory newName) external returns(string memory _myName){... */\n    tag_23:\n        /* \"Lesson1.sol\":725:746  string memory _myName */\n      0x60\n        /* \"Lesson1.sol\":757:763  myName */\n      0x00\n        /* \"Lesson1.sol\":757:773  myName = newName */\n      tag_65\n        /* \"Lesson1.sol\":766:773  newName */\n      dup4\n        /* \"Lesson1.sol\":757:763  myName */\n      dup3\n        /* \"Lesson1.sol\":757:773  myName = newName */\n      tag_66\n      jump\t// in\n    tag_65:\n      pop\n        /* \"Lesson1.sol\":791:798  newName */\n      swap1\n      swap2\n        /* \"Lesson1.sol\":663:805  function updateMyName(string memory newName) external returns(string memory _myName){... */\n      swap1\n      pop\n      jump\t// out\n        /* \"Lesson1.sol\":1586:1689  function incrementNumber() external returns(uint){... */\n    tag_31:\n        /* \"Lesson1.sol\":1645:1653  myNumber */\n      0x01\n        /* \"Lesson1.sol\":1645:1655  myNumber++ */\n      dup1\n      sload\n        /* \"Lesson1.sol\":1630:1634  uint */\n      0x00\n      swap2\n      dup3\n        /* \"Lesson1.sol\":1645:1655  myNumber++ */\n      tag_68\n      dup4\n      tag_69\n      jump\t// in\n    tag_68:\n      swap2\n      swap1\n      pop\n      sstore\n      pop\n        /* \"Lesson1.sol\":1673:1681  myNumber */\n      sload(0x01)\n        /* \"Lesson1.sol\":1665:1682  return (myNumber) */\n      swap1\n      pop\n        /* \"Lesson1.sol\":1586:1689  function incrementNumber() external returns(uint){... */\n      swap1\n      jump\t// out\n        /* \"Lesson1.sol\":1113:1246  function subtractFromMyNumber(uint numberToSubtract) external view returns(uint){... */\n    tag_36:\n        /* \"Lesson1.sol\":1188:1192  uint */\n      0x00\n        /* \"Lesson1.sol\":1222:1238  numberToSubtract */\n      dup2\n        /* \"Lesson1.sol\":1211:1219  myNumber */\n      sload(0x01)\n        /* \"Lesson1.sol\":1211:1238  myNumber - numberToSubtract */\n      tag_71\n      swap2\n      swap1\n      tag_72\n      jump\t// in\n    tag_71:\n        /* \"Lesson1.sol\":1203:1239  return (myNumber - numberToSubtract) */\n      swap3\n        /* \"Lesson1.sol\":1113:1246  function subtractFromMyNumber(uint numberToSubtract) external view returns(uint){... */\n      swap2\n      pop\n      pop\n      jump\t// out\n        /* \"Lesson1.sol\":1469:1580  function findTheRemainder(uint divisor) external view returns(uint){... */\n    tag_40:\n        /* \"Lesson1.sol\":1531:1535  uint */\n      0x00\n        /* \"Lesson1.sol\":1565:1572  divisor */\n      dup2\n        /* \"Lesson1.sol\":1554:1562  myNumber */\n      sload(0x01)\n        /* \"Lesson1.sol\":1554:1572  myNumber % divisor */\n      tag_71\n      swap2\n      swap1\n      tag_75\n      jump\t// in\n        /* \"Lesson1.sol\":1695:1798  function decrementNumber() external returns(uint){... */\n    tag_43:\n        /* \"Lesson1.sol\":1754:1762  myNumber */\n      0x01\n        /* \"Lesson1.sol\":1754:1764  myNumber-- */\n      dup1\n      sload\n        /* \"Lesson1.sol\":1739:1743  uint */\n      0x00\n      swap2\n      dup3\n        /* \"Lesson1.sol\":1754:1764  myNumber-- */\n      tag_68\n      dup4\n      tag_78\n      jump\t// in\n        /* \"Lesson1.sol\":1252:1463  function divideMyNumber(uint divisor) external view returns(uint){... */\n    tag_51:\n        /* \"Lesson1.sol\":1312:1316  uint */\n      0x00\n        /* \"Lesson1.sol\":1346:1353  divisor */\n      dup2\n        /* \"Lesson1.sol\":1335:1343  myNumber */\n      sload(0x01)\n        /* \"Lesson1.sol\":1335:1353  myNumber / divisor */\n      tag_71\n      swap2\n      swap1\n      tag_81\n      jump\t// in\n        /* \"Lesson1.sol\":857:985  function multiplyMyNumber(uint numberToMultiply) external view returns(uint){... */\n    tag_55:\n        /* \"Lesson1.sol\":928:932  uint */\n      0x00\n        /* \"Lesson1.sol\":961:977  numberToMultiply */\n      dup2\n        /* \"Lesson1.sol\":950:958  myNumber */\n      sload(0x01)\n        /* \"Lesson1.sol\":950:977  myNumber * numberToMultiply */\n      tag_71\n      swap2\n      swap1\n      tag_84\n      jump\t// in\n        /* \"Lesson1.sol\":434:469  string public myName = \"Arun Kumar\" */\n    tag_58:\n      0x00\n      dup1\n      sload\n      tag_85\n      swap1\n      tag_86\n      jump\t// in\n    tag_85:\n      dup1\n      0x1f\n      add\n      0x20\n      dup1\n      swap2\n      div\n      mul\n      0x20\n      add\n      mload(0x40)\n      swap1\n      dup2\n      add\n      0x40\n      mstore\n      dup1\n      swap3\n      swap2\n      swap1\n      dup2\n      dup2\n      mstore\n      0x20\n      add\n      dup3\n      dup1\n      sload\n      tag_87\n      swap1\n      tag_86\n      jump\t// in\n    tag_87:\n      dup1\n      iszero\n      tag_88\n      jumpi\n      dup1\n      0x1f\n      lt\n      tag_89\n      jumpi\n      0x0100\n      dup1\n      dup4\n      sload\n      div\n      mul\n      dup4\n      mstore\n      swap2\n      0x20\n      add\n      swap2\n      jump(tag_88)\n    tag_89:\n      dup3\n      add\n      swap2\n      swap1\n      0x00\n      mstore\n      keccak256(0x00, 0x20)\n      swap1\n    tag_90:\n      dup2\n      sload\n      dup2\n      mstore\n      swap1\n      0x01\n      add\n      swap1\n      0x20\n      add\n      dup1\n      dup4\n      gt\n      tag_90\n      jumpi\n      dup3\n      swap1\n      sub\n      0x1f\n      and\n      dup3\n      add\n      swap2\n    tag_88:\n      pop\n      pop\n      pop\n      pop\n      pop\n      dup2\n      jump\t// out\n        /* \"Lesson1.sol\":991:1107  function addToMyNumber(uint numberToAdd) external view returns(uint){... */\n    tag_62:\n        /* \"Lesson1.sol\":1054:1058  uint */\n      0x00\n        /* \"Lesson1.sol\":1088:1099  numberToAdd */\n      dup2\n        /* \"Lesson1.sol\":1077:1085  myNumber */\n      sload(0x01)\n        /* \"Lesson1.sol\":1077:1099  myNumber + numberToAdd */\n      tag_71\n      swap2\n      swap1\n      tag_93\n      jump\t// in\n        /* \"#utility.yul\":206:333   */\n    tag_94:\n        /* \"#utility.yul\":267:277   */\n      0x4e487b71\n        /* \"#utility.yul\":262:265   */\n      0xe0\n        /* \"#utility.yul\":258:278   */\n      shl\n        /* \"#utility.yul\":255:256   */\n      0x00\n        /* \"#utility.yul\":248:279   */\n      mstore\n        /* \"#utility.yul\":298:302   */\n      0x41\n        /* \"#utility.yul\":295:296   */\n      0x04\n        /* \"#utility.yul\":288:303   */\n      mstore\n        /* \"#utility.yul\":322:326   */\n      0x24\n        /* \"#utility.yul\":319:320   */\n      0x00\n        /* \"#utility.yul\":312:327   */\n      revert\n        /* \"#utility.yul\":338:1260   */\n    tag_22:\n        /* \"#utility.yul\":407:413   */\n      0x00\n        /* \"#utility.yul\":460:462   */\n      0x20\n        /* \"#utility.yul\":448:457   */\n      dup3\n        /* \"#utility.yul\":439:446   */\n      dup5\n        /* \"#utility.yul\":435:458   */\n      sub\n        /* \"#utility.yul\":431:463   */\n      slt\n        /* \"#utility.yul\":428:480   */\n      iszero\n      tag_104\n      jumpi\n        /* \"#utility.yul\":476:477   */\n      0x00\n        /* \"#utility.yul\":473:474   */\n      dup1\n        /* \"#utility.yul\":466:478   */\n      revert\n        /* \"#utility.yul\":428:480   */\n    tag_104:\n        /* \"#utility.yul\":516:525   */\n      dup2\n        /* \"#utility.yul\":503:526   */\n      calldataload\n        /* \"#utility.yul\":545:563   */\n      0xffffffffffffffff\n        /* \"#utility.yul\":586:588   */\n      dup1\n        /* \"#utility.yul\":578:584   */\n      dup3\n        /* \"#utility.yul\":575:589   */\n      gt\n        /* \"#utility.yul\":572:606   */\n      iszero\n      tag_105\n      jumpi\n        /* \"#utility.yul\":602:603   */\n      0x00\n        /* \"#utility.yul\":599:600   */\n      dup1\n        /* \"#utility.yul\":592:604   */\n      revert\n        /* \"#utility.yul\":572:606   */\n    tag_105:\n        /* \"#utility.yul\":640:646   */\n      dup2\n        /* \"#utility.yul\":629:638   */\n      dup5\n        /* \"#utility.yul\":625:647   */\n      add\n        /* \"#utility.yul\":615:647   */\n      swap2\n      pop\n        /* \"#utility.yul\":685:692   */\n      dup5\n        /* \"#utility.yul\":678:682   */\n      0x1f\n        /* \"#utility.yul\":674:676   */\n      dup4\n        /* \"#utility.yul\":670:683   */\n      add\n        /* \"#utility.yul\":666:693   */\n      slt\n        /* \"#utility.yul\":656:711   */\n      tag_106\n      jumpi\n        /* \"#utility.yul\":707:708   */\n      0x00\n        /* \"#utility.yul\":704:705   */\n      dup1\n        /* \"#utility.yul\":697:709   */\n      revert\n        /* \"#utility.yul\":656:711   */\n    tag_106:\n        /* \"#utility.yul\":743:745   */\n      dup2\n        /* \"#utility.yul\":730:746   */\n      calldataload\n        /* \"#utility.yul\":765:767   */\n      dup2\n        /* \"#utility.yul\":761:763   */\n      dup2\n        /* \"#utility.yul\":758:768   */\n      gt\n        /* \"#utility.yul\":755:791   */\n      iszero\n      tag_108\n      jumpi\n        /* \"#utility.yul\":771:789   */\n      tag_108\n      tag_94\n      jump\t// in\n    tag_108:\n        /* \"#utility.yul\":846:848   */\n      0x40\n        /* \"#utility.yul\":840:849   */\n      mload\n        /* \"#utility.yul\":814:816   */\n      0x1f\n        /* \"#utility.yul\":900:913   */\n      dup3\n      add\n      not(0x1f)\n        /* \"#utility.yul\":896:918   */\n      swap1\n      dup2\n      and\n        /* \"#utility.yul\":920:922   */\n      0x3f\n        /* \"#utility.yul\":892:923   */\n      add\n        /* \"#utility.yul\":888:928   */\n      and\n        /* \"#utility.yul\":876:929   */\n      dup2\n      add\n      swap1\n        /* \"#utility.yul\":944:962   */\n      dup4\n      dup3\n      gt\n        /* \"#utility.yul\":964:986   */\n      dup2\n      dup4\n      lt\n        /* \"#utility.yul\":941:987   */\n      or\n        /* \"#utility.yul\":938:1010   */\n      iszero\n      tag_110\n      jumpi\n        /* \"#utility.yul\":990:1008   */\n      tag_110\n      tag_94\n      jump\t// in\n    tag_110:\n        /* \"#utility.yul\":1030:1040   */\n      dup2\n        /* \"#utility.yul\":1026:1028   */\n      0x40\n        /* \"#utility.yul\":1019:1041   */\n      mstore\n        /* \"#utility.yul\":1065:1067   */\n      dup3\n        /* \"#utility.yul\":1057:1063   */\n      dup2\n        /* \"#utility.yul\":1050:1068   */\n      mstore\n        /* \"#utility.yul\":1105:1112   */\n      dup8\n        /* \"#utility.yul\":1100:1102   */\n      0x20\n        /* \"#utility.yul\":1095:1097   */\n      dup5\n        /* \"#utility.yul\":1091:1093   */\n      dup8\n        /* \"#utility.yul\":1087:1098   */\n      add\n        /* \"#utility.yul\":1083:1103   */\n      add\n        /* \"#utility.yul\":1080:1113   */\n      gt\n        /* \"#utility.yul\":1077:1130   */\n      iszero\n      tag_111\n      jumpi\n        /* \"#utility.yul\":1126:1127   */\n      0x00\n        /* \"#utility.yul\":1123:1124   */\n      dup1\n        /* \"#utility.yul\":1116:1128   */\n      revert\n        /* \"#utility.yul\":1077:1130   */\n    tag_111:\n        /* \"#utility.yul\":1182:1184   */\n      dup3\n        /* \"#utility.yul\":1177:1179   */\n      0x20\n        /* \"#utility.yul\":1173:1175   */\n      dup7\n        /* \"#utility.yul\":1169:1180   */\n      add\n        /* \"#utility.yul\":1164:1166   */\n      0x20\n        /* \"#utility.yul\":1156:1162   */\n      dup4\n        /* \"#utility.yul\":1152:1167   */\n      add\n        /* \"#utility.yul\":1139:1185   */\n      calldatacopy\n        /* \"#utility.yul\":1227:1228   */\n      0x00\n        /* \"#utility.yul\":1205:1220   */\n      swap3\n      dup2\n      add\n        /* \"#utility.yul\":1222:1224   */\n      0x20\n        /* \"#utility.yul\":1201:1225   */\n      add\n        /* \"#utility.yul\":1194:1229   */\n      swap3\n      swap1\n      swap3\n      mstore\n      pop\n        /* \"#utility.yul\":1209:1215   */\n      swap6\n        /* \"#utility.yul\":338:1260   */\n      swap5\n      pop\n      pop\n      pop\n      pop\n      pop\n      jump\t// out\n        /* \"#utility.yul\":1265:1813   */\n    tag_25:\n        /* \"#utility.yul\":1377:1381   */\n      0x00\n        /* \"#utility.yul\":1406:1408   */\n      0x20\n        /* \"#utility.yul\":1435:1437   */\n      dup1\n        /* \"#utility.yul\":1424:1433   */\n      dup4\n        /* \"#utility.yul\":1417:1438   */\n      mstore\n        /* \"#utility.yul\":1467:1473   */\n      dup4\n        /* \"#utility.yul\":1461:1474   */\n      mload\n        /* \"#utility.yul\":1510:1516   */\n      dup1\n        /* \"#utility.yul\":1505:1507   */\n      dup3\n        /* \"#utility.yul\":1494:1503   */\n      dup6\n        /* \"#utility.yul\":1490:1508   */\n      add\n        /* \"#utility.yul\":1483:1517   */\n      mstore\n        /* \"#utility.yul\":1535:1536   */\n      0x00\n        /* \"#utility.yul\":1545:1685   */\n    tag_113:\n        /* \"#utility.yul\":1559:1565   */\n      dup2\n        /* \"#utility.yul\":1556:1557   */\n      dup2\n        /* \"#utility.yul\":1553:1566   */\n      lt\n        /* \"#utility.yul\":1545:1685   */\n      iszero\n      tag_115\n      jumpi\n        /* \"#utility.yul\":1654:1668   */\n      dup6\n      dup2\n      add\n        /* \"#utility.yul\":1650:1673   */\n      dup4\n      add\n        /* \"#utility.yul\":1644:1674   */\n      mload\n        /* \"#utility.yul\":1620:1637   */\n      dup6\n      dup3\n      add\n        /* \"#utility.yul\":1639:1641   */\n      0x40\n        /* \"#utility.yul\":1616:1642   */\n      add\n        /* \"#utility.yul\":1609:1675   */\n      mstore\n        /* \"#utility.yul\":1574:1584   */\n      dup3\n      add\n        /* \"#utility.yul\":1545:1685   */\n      jump(tag_113)\n    tag_115:\n        /* \"#utility.yul\":1549:1552   */\n      pop\n        /* \"#utility.yul\":1734:1735   */\n      0x00\n        /* \"#utility.yul\":1729:1731   */\n      0x40\n        /* \"#utility.yul\":1720:1726   */\n      dup3\n        /* \"#utility.yul\":1709:1718   */\n      dup7\n        /* \"#utility.yul\":1705:1727   */\n      add\n        /* \"#utility.yul\":1701:1732   */\n      add\n        /* \"#utility.yul\":1694:1736   */\n      mstore\n        /* \"#utility.yul\":1804:1806   */\n      0x40\n        /* \"#utility.yul\":1797:1799   */\n      0x1f\n        /* \"#utility.yul\":1793:1800   */\n      not\n        /* \"#utility.yul\":1788:1790   */\n      0x1f\n        /* \"#utility.yul\":1780:1786   */\n      dup4\n        /* \"#utility.yul\":1776:1791   */\n      add\n        /* \"#utility.yul\":1772:1801   */\n      and\n        /* \"#utility.yul\":1761:1770   */\n      dup6\n        /* \"#utility.yul\":1757:1802   */\n      add\n        /* \"#utility.yul\":1753:1807   */\n      add\n        /* \"#utility.yul\":1745:1807   */\n      swap3\n      pop\n      pop\n      pop\n        /* \"#utility.yul\":1265:1813   */\n      swap3\n      swap2\n      pop\n      pop\n      jump\t// out\n        /* \"#utility.yul\":2000:2180   */\n    tag_35:\n        /* \"#utility.yul\":2059:2065   */\n      0x00\n        /* \"#utility.yul\":2112:2114   */\n      0x20\n        /* \"#utility.yul\":2100:2109   */\n      dup3\n        /* \"#utility.yul\":2091:2098   */\n      dup5\n        /* \"#utility.yul\":2087:2110   */\n      sub\n        /* \"#utility.yul\":2083:2115   */\n      slt\n        /* \"#utility.yul\":2080:2132   */\n      iszero\n      tag_118\n      jumpi\n        /* \"#utility.yul\":2128:2129   */\n      0x00\n        /* \"#utility.yul\":2125:2126   */\n      dup1\n        /* \"#utility.yul\":2118:2130   */\n      revert\n        /* \"#utility.yul\":2080:2132   */\n    tag_118:\n      pop\n        /* \"#utility.yul\":2151:2174   */\n      calldataload\n      swap2\n        /* \"#utility.yul\":2000:2180   */\n      swap1\n      pop\n      jump\t// out\n        /* \"#utility.yul\":2393:2773   */\n    tag_86:\n        /* \"#utility.yul\":2472:2473   */\n      0x01\n        /* \"#utility.yul\":2468:2480   */\n      dup2\n      dup2\n      shr\n      swap1\n        /* \"#utility.yul\":2515:2527   */\n      dup3\n      and\n      dup1\n        /* \"#utility.yul\":2536:2597   */\n      tag_121\n      jumpi\n        /* \"#utility.yul\":2590:2594   */\n      0x7f\n        /* \"#utility.yul\":2582:2588   */\n      dup3\n        /* \"#utility.yul\":2578:2595   */\n      and\n        /* \"#utility.yul\":2568:2595   */\n      swap2\n      pop\n        /* \"#utility.yul\":2536:2597   */\n    tag_121:\n        /* \"#utility.yul\":2643:2645   */\n      0x20\n        /* \"#utility.yul\":2635:2641   */\n      dup3\n        /* \"#utility.yul\":2632:2646   */\n      lt\n        /* \"#utility.yul\":2612:2630   */\n      dup2\n        /* \"#utility.yul\":2609:2647   */\n      sub\n        /* \"#utility.yul\":2606:2767   */\n      tag_122\n      jumpi\n        /* \"#utility.yul\":2689:2699   */\n      0x4e487b71\n        /* \"#utility.yul\":2684:2687   */\n      0xe0\n        /* \"#utility.yul\":2680:2700   */\n      shl\n        /* \"#utility.yul\":2677:2678   */\n      0x00\n        /* \"#utility.yul\":2670:2701   */\n      mstore\n        /* \"#utility.yul\":2724:2728   */\n      0x22\n        /* \"#utility.yul\":2721:2722   */\n      0x04\n        /* \"#utility.yul\":2714:2729   */\n      mstore\n        /* \"#utility.yul\":2752:2756   */\n      0x24\n        /* \"#utility.yul\":2749:2750   */\n      0x00\n        /* \"#utility.yul\":2742:2757   */\n      revert\n        /* \"#utility.yul\":2606:2767   */\n    tag_122:\n      pop\n        /* \"#utility.yul\":2393:2773   */\n      swap2\n      swap1\n      pop\n      jump\t// out\n        /* \"#utility.yul\":2904:3449   */\n    tag_96:\n        /* \"#utility.yul\":3006:3008   */\n      0x1f\n        /* \"#utility.yul\":3001:3004   */\n      dup3\n        /* \"#utility.yul\":2998:3009   */\n      gt\n        /* \"#utility.yul\":2995:3443   */\n      iszero\n      tag_125\n      jumpi\n        /* \"#utility.yul\":3042:3043   */\n      0x00\n        /* \"#utility.yul\":3067:3072   */\n      dup2\n        /* \"#utility.yul\":3063:3065   */\n      dup2\n        /* \"#utility.yul\":3056:3073   */\n      mstore\n        /* \"#utility.yul\":3112:3116   */\n      0x20\n        /* \"#utility.yul\":3108:3110   */\n      dup2\n        /* \"#utility.yul\":3098:3117   */\n      keccak256\n        /* \"#utility.yul\":3182:3184   */\n      0x1f\n        /* \"#utility.yul\":3170:3180   */\n      dup6\n        /* \"#utility.yul\":3166:3185   */\n      add\n        /* \"#utility.yul\":3163:3164   */\n      0x05\n        /* \"#utility.yul\":3159:3186   */\n      shr\n        /* \"#utility.yul\":3153:3157   */\n      dup2\n        /* \"#utility.yul\":3149:3187   */\n      add\n        /* \"#utility.yul\":3218:3222   */\n      0x20\n        /* \"#utility.yul\":3206:3216   */\n      dup7\n        /* \"#utility.yul\":3203:3223   */\n      lt\n        /* \"#utility.yul\":3200:3247   */\n      iszero\n      tag_126\n      jumpi\n      pop\n        /* \"#utility.yul\":3241:3245   */\n      dup1\n        /* \"#utility.yul\":3200:3247   */\n    tag_126:\n        /* \"#utility.yul\":3296:3298   */\n      0x1f\n        /* \"#utility.yul\":3291:3294   */\n      dup6\n        /* \"#utility.yul\":3287:3299   */\n      add\n        /* \"#utility.yul\":3284:3285   */\n      0x05\n        /* \"#utility.yul\":3280:3300   */\n      shr\n        /* \"#utility.yul\":3274:3278   */\n      dup3\n        /* \"#utility.yul\":3270:3301   */\n      add\n        /* \"#utility.yul\":3260:3301   */\n      swap2\n      pop\n        /* \"#utility.yul\":3351:3433   */\n    tag_127:\n        /* \"#utility.yul\":3369:3371   */\n      dup2\n        /* \"#utility.yul\":3362:3367   */\n      dup2\n        /* \"#utility.yul\":3359:3372   */\n      lt\n        /* \"#utility.yul\":3351:3433   */\n      iszero\n      tag_129\n      jumpi\n        /* \"#utility.yul\":3414:3431   */\n      dup3\n      dup2\n      sstore\n        /* \"#utility.yul\":3395:3396   */\n      0x01\n        /* \"#utility.yul\":3384:3397   */\n      add\n        /* \"#utility.yul\":3351:3433   */\n      jump(tag_127)\n    tag_129:\n        /* \"#utility.yul\":3355:3358   */\n      pop\n      pop\n      pop\n        /* \"#utility.yul\":2995:3443   */\n    tag_125:\n        /* \"#utility.yul\":2904:3449   */\n      pop\n      pop\n      pop\n      jump\t// out\n        /* \"#utility.yul\":3625:4977   */\n    tag_66:\n        /* \"#utility.yul\":3751:3754   */\n      dup2\n        /* \"#utility.yul\":3745:3755   */\n      mload\n        /* \"#utility.yul\":3778:3796   */\n      0xffffffffffffffff\n        /* \"#utility.yul\":3770:3776   */\n      dup2\n        /* \"#utility.yul\":3767:3797   */\n      gt\n        /* \"#utility.yul\":3764:3820   */\n      iszero\n      tag_133\n      jumpi\n        /* \"#utility.yul\":3800:3818   */\n      tag_133\n      tag_94\n      jump\t// in\n    tag_133:\n        /* \"#utility.yul\":3829:3926   */\n      tag_134\n        /* \"#utility.yul\":3919:3925   */\n      dup2\n        /* \"#utility.yul\":3879:3917   */\n      tag_135\n        /* \"#utility.yul\":3911:3915   */\n      dup5\n        /* \"#utility.yul\":3905:3916   */\n      sload\n        /* \"#utility.yul\":3879:3917   */\n      tag_86\n      jump\t// in\n    tag_135:\n        /* \"#utility.yul\":3873:3877   */\n      dup5\n        /* \"#utility.yul\":3829:3926   */\n      tag_96\n      jump\t// in\n    tag_134:\n        /* \"#utility.yul\":3981:3985   */\n      0x20\n      dup1\n        /* \"#utility.yul\":4045:4047   */\n      0x1f\n        /* \"#utility.yul\":4034:4048   */\n      dup4\n      gt\n        /* \"#utility.yul\":4062:4063   */\n      0x01\n        /* \"#utility.yul\":4057:4720   */\n      dup2\n      eq\n      tag_137\n      jumpi\n        /* \"#utility.yul\":4764:4765   */\n      0x00\n        /* \"#utility.yul\":4781:4787   */\n      dup5\n        /* \"#utility.yul\":4778:4867   */\n      iszero\n      tag_138\n      jumpi\n      pop\n        /* \"#utility.yul\":4833:4852   */\n      dup6\n      dup4\n      add\n        /* \"#utility.yul\":4827:4853   */\n      mload\n        /* \"#utility.yul\":4778:4867   */\n    tag_138:\n      not(0x00)\n        /* \"#utility.yul\":3582:3583   */\n      0x03\n        /* \"#utility.yul\":3578:3589   */\n      dup7\n      swap1\n      shl\n        /* \"#utility.yul\":3574:3598   */\n      shr\n        /* \"#utility.yul\":3570:3599   */\n      not\n        /* \"#utility.yul\":3560:3600   */\n      and\n        /* \"#utility.yul\":3606:3607   */\n      0x01\n        /* \"#utility.yul\":3602:3613   */\n      dup6\n      swap1\n      shl\n        /* \"#utility.yul\":3557:3614   */\n      or\n        /* \"#utility.yul\":4880:4961   */\n      dup6\n      sstore\n        /* \"#utility.yul\":4027:4971   */\n      jump(tag_129)\n        /* \"#utility.yul\":4057:4720   */\n    tag_137:\n        /* \"#utility.yul\":2851:2852   */\n      0x00\n        /* \"#utility.yul\":2844:2858   */\n      dup6\n      dup2\n      mstore\n        /* \"#utility.yul\":2888:2892   */\n      0x20\n        /* \"#utility.yul\":2875:2893   */\n      dup2\n      keccak256\n      not(0x1f)\n        /* \"#utility.yul\":4093:4113   */\n      dup7\n      and\n      swap2\n        /* \"#utility.yul\":4211:4447   */\n    tag_141:\n        /* \"#utility.yul\":4225:4232   */\n      dup3\n        /* \"#utility.yul\":4222:4223   */\n      dup2\n        /* \"#utility.yul\":4219:4233   */\n      lt\n        /* \"#utility.yul\":4211:4447   */\n      iszero\n      tag_143\n      jumpi\n        /* \"#utility.yul\":4314:4333   */\n      dup9\n      dup7\n      add\n        /* \"#utility.yul\":4308:4334   */\n      mload\n        /* \"#utility.yul\":4293:4335   */\n      dup3\n      sstore\n        /* \"#utility.yul\":4406:4433   */\n      swap5\n      dup5\n      add\n      swap5\n        /* \"#utility.yul\":4374:4375   */\n      0x01\n        /* \"#utility.yul\":4362:4376   */\n      swap1\n      swap2\n      add\n      swap1\n        /* \"#utility.yul\":4241:4260   */\n      dup5\n      add\n        /* \"#utility.yul\":4211:4447   */\n      jump(tag_141)\n    tag_143:\n        /* \"#utility.yul\":4215:4218   */\n      pop\n        /* \"#utility.yul\":4475:4481   */\n      dup6\n        /* \"#utility.yul\":4466:4473   */\n      dup3\n        /* \"#utility.yul\":4463:4482   */\n      lt\n        /* \"#utility.yul\":4460:4661   */\n      iszero\n      tag_144\n      jumpi\n        /* \"#utility.yul\":4536:4555   */\n      dup8\n      dup6\n      add\n        /* \"#utility.yul\":4530:4556   */\n      mload\n      not(0x00)\n        /* \"#utility.yul\":4619:4620   */\n      0x03\n        /* \"#utility.yul\":4615:4629   */\n      dup9\n      swap1\n      shl\n        /* \"#utility.yul\":4631:4634   */\n      0xf8\n        /* \"#utility.yul\":4611:4635   */\n      and\n        /* \"#utility.yul\":4607:4644   */\n      shr\n        /* \"#utility.yul\":4603:4645   */\n      not\n        /* \"#utility.yul\":4588:4646   */\n      and\n        /* \"#utility.yul\":4573:4647   */\n      dup2\n      sstore\n        /* \"#utility.yul\":4460:4661   */\n    tag_144:\n      pop\n      pop\n      pop\n      pop\n      pop\n        /* \"#utility.yul\":4707:4708   */\n      0x01\n        /* \"#utility.yul\":4691:4705   */\n      swap1\n      dup2\n      shl\n        /* \"#utility.yul\":4687:4709   */\n      add\n        /* \"#utility.yul\":4674:4710   */\n      swap1\n      sstore\n      pop\n        /* \"#utility.yul\":3625:4977   */\n      jump\t// out\n        /* \"#utility.yul\":4982:5109   */\n    tag_98:\n        /* \"#utility.yul\":5043:5053   */\n      0x4e487b71\n        /* \"#utility.yul\":5038:5041   */\n      0xe0\n        /* \"#utility.yul\":5034:5054   */\n      shl\n        /* \"#utility.yul\":5031:5032   */\n      0x00\n        /* \"#utility.yul\":5024:5055   */\n      mstore\n        /* \"#utility.yul\":5074:5078   */\n      0x11\n        /* \"#utility.yul\":5071:5072   */\n      0x04\n        /* \"#utility.yul\":5064:5079   */\n      mstore\n        /* \"#utility.yul\":5098:5102   */\n      0x24\n        /* \"#utility.yul\":5095:5096   */\n      0x00\n        /* \"#utility.yul\":5088:5103   */\n      revert\n        /* \"#utility.yul\":5114:5249   */\n    tag_69:\n        /* \"#utility.yul\":5153:5156   */\n      0x00\n        /* \"#utility.yul\":5174:5191   */\n      0x01\n      dup3\n      add\n        /* \"#utility.yul\":5171:5214   */\n      tag_148\n      jumpi\n        /* \"#utility.yul\":5194:5212   */\n      tag_148\n      tag_98\n      jump\t// in\n    tag_148:\n      pop\n        /* \"#utility.yul\":5241:5242   */\n      0x01\n        /* \"#utility.yul\":5230:5243   */\n      add\n      swap1\n        /* \"#utility.yul\":5114:5249   */\n      jump\t// out\n        /* \"#utility.yul\":5254:5382   */\n    tag_72:\n        /* \"#utility.yul\":5321:5330   */\n      dup2\n      dup2\n      sub\n        /* \"#utility.yul\":5342:5353   */\n      dup2\n      dup2\n      gt\n        /* \"#utility.yul\":5339:5376   */\n      iszero\n      tag_71\n      jumpi\n        /* \"#utility.yul\":5356:5374   */\n      tag_71\n      tag_98\n      jump\t// in\n        /* \"#utility.yul\":5387:5514   */\n    tag_99:\n        /* \"#utility.yul\":5448:5458   */\n      0x4e487b71\n        /* \"#utility.yul\":5443:5446   */\n      0xe0\n        /* \"#utility.yul\":5439:5459   */\n      shl\n        /* \"#utility.yul\":5436:5437   */\n      0x00\n        /* \"#utility.yul\":5429:5460   */\n      mstore\n        /* \"#utility.yul\":5479:5483   */\n      0x12\n        /* \"#utility.yul\":5476:5477   */\n      0x04\n        /* \"#utility.yul\":5469:5484   */\n      mstore\n        /* \"#utility.yul\":5503:5507   */\n      0x24\n        /* \"#utility.yul\":5500:5501   */\n      0x00\n        /* \"#utility.yul\":5493:5508   */\n      revert\n        /* \"#utility.yul\":5519:5631   */\n    tag_75:\n        /* \"#utility.yul\":5551:5552   */\n      0x00\n        /* \"#utility.yul\":5577:5578   */\n      dup3\n        /* \"#utility.yul\":5567:5602   */\n      tag_155\n      jumpi\n        /* \"#utility.yul\":5582:5600   */\n      tag_155\n      tag_99\n      jump\t// in\n    tag_155:\n      pop\n        /* \"#utility.yul\":5616:5625   */\n      mod\n      swap1\n        /* \"#utility.yul\":5519:5631   */\n      jump\t// out\n        /* \"#utility.yul\":5636:5772   */\n    tag_78:\n        /* \"#utility.yul\":5675:5678   */\n      0x00\n        /* \"#utility.yul\":5703:5708   */\n      dup2\n        /* \"#utility.yul\":5693:5732   */\n      tag_158\n      jumpi\n        /* \"#utility.yul\":5712:5730   */\n      tag_158\n      tag_98\n      jump\t// in\n    tag_158:\n      pop\n      not(0x00)\n        /* \"#utility.yul\":5748:5766   */\n      add\n      swap1\n        /* \"#utility.yul\":5636:5772   */\n      jump\t// out\n        /* \"#utility.yul\":5777:5897   */\n    tag_81:\n        /* \"#utility.yul\":5817:5818   */\n      0x00\n        /* \"#utility.yul\":5843:5844   */\n      dup3\n        /* \"#utility.yul\":5833:5868   */\n      tag_161\n      jumpi\n        /* \"#utility.yul\":5848:5866   */\n      tag_161\n      tag_99\n      jump\t// in\n    tag_161:\n      pop\n        /* \"#utility.yul\":5882:5891   */\n      div\n      swap1\n        /* \"#utility.yul\":5777:5897   */\n      jump\t// out\n        /* \"#utility.yul\":5902:6070   */\n    tag_84:\n        /* \"#utility.yul\":5975:5984   */\n      dup1\n      dup3\n      mul\n        /* \"#utility.yul\":6006:6015   */\n      dup2\n      iszero\n        /* \"#utility.yul\":6023:6038   */\n      dup3\n      dup3\n      div\n        /* \"#utility.yul\":6017:6039   */\n      dup5\n      eq\n        /* \"#utility.yul\":6003:6040   */\n      or\n        /* \"#utility.yul\":5993:6064   */\n      tag_71\n      jumpi\n        /* \"#utility.yul\":6044:6062   */\n      tag_71\n      tag_98\n      jump\t// in\n        /* \"#utility.yul\":6075:6200   */\n    tag_93:\n        /* \"#utility.yul\":6140:6149   */\n      dup1\n      dup3\n      add\n        /* \"#utility.yul\":6161:6171   */\n      dup1\n      dup3\n      gt\n        /* \"#utility.yul\":6158:6194   */\n      iszero\n      tag_71\n      jumpi\n        /* \"#utility.yul\":6174:6192   */\n      tag_71\n      tag_98\n      jump\t// in\n\n    auxdata: 0xa26469706673582212200eef49e677a10a9d3ca1574d86440391be8f649d65856057a751e68b193380bd64736f6c63430008130033\n}\n",
				"bytecode": {
					"linkReferences": {},
					"object": "60c0604052600a60809081526920b93ab71025bab6b0b960b11b60a0526000906100299082610107565b50602c600155600280546001600160a81b03191674015b38da6a701c568545dcfcb03fcb875f56beddc417905534801561006257600080fd5b506101c6565b634e487b7160e01b600052604160045260246000fd5b600181811c9082168061009257607f821691505b6020821081036100b257634e487b7160e01b600052602260045260246000fd5b50919050565b601f82111561010257600081815260208120601f850160051c810160208610156100df5750805b601f850160051c820191505b818110156100fe578281556001016100eb565b5050505b505050565b81516001600160401b0381111561012057610120610068565b6101348161012e845461007e565b846100b8565b602080601f83116001811461016957600084156101515750858301515b600019600386901b1c1916600185901b1785556100fe565b600085815260208120601f198616915b8281101561019857888601518255948401946001909101908401610179565b50858210156101b65787850151600019600388901b60f8161c191681555b5050505050600190811b01905550565b610650806101d56000396000f3fe608060405234801561001057600080fd5b50600436106100b35760003560e01c8063871cc9d411610071578063871cc9d414610146578063b880b69a1461014e578063b93d1d5a14610179578063cf4297671461018c578063fae2dd4b1461019f578063fdfa0a9a146101a757600080fd5b806274530a146100b8578063162ab909146100e157806323fd0e4014610101578063273ea3e31461011857806364b067ec146101205780636714b51b14610133575b600080fd5b6002546100cc90600160a01b900460ff1681565b60405190151581526020015b60405180910390f35b6100f46100ef3660046102f8565b6101ba565b6040516100d891906103a9565b61010a60015481565b6040519081526020016100d8565b61010a6101cf565b61010a61012e3660046103f7565b6101ed565b61010a6101413660046103f7565b610203565b61010a610213565b600254610161906001600160a01b031681565b6040516001600160a01b0390911681526020016100d8565b61010a6101873660046103f7565b610224565b61010a61019a3660046103f7565b610234565b6100f4610244565b61010a6101b53660046103f7565b6102d2565b606060006101c88382610499565b5090919050565b60018054600091826101e08361056f565b9190505550600154905090565b6000816001546101fd9190610588565b92915050565b6000816001546101fd91906105b1565b60018054600091826101e0836105c5565b6000816001546101fd91906105dc565b6000816001546101fd91906105f0565b6000805461025190610410565b80601f016020809104026020016040519081016040528092919081815260200182805461027d90610410565b80156102ca5780601f1061029f576101008083540402835291602001916102ca565b820191906000526020600020905b8154815290600101906020018083116102ad57829003601f168201915b505050505081565b6000816001546101fd9190610607565b634e487b7160e01b600052604160045260246000fd5b60006020828403121561030a57600080fd5b813567ffffffffffffffff8082111561032257600080fd5b818401915084601f83011261033657600080fd5b813581811115610348576103486102e2565b604051601f8201601f19908116603f01168101908382118183101715610370576103706102e2565b8160405282815287602084870101111561038957600080fd5b826020860160208301376000928101602001929092525095945050505050565b600060208083528351808285015260005b818110156103d6578581018301518582016040015282016103ba565b506000604082860101526040601f19601f8301168501019250505092915050565b60006020828403121561040957600080fd5b5035919050565b600181811c9082168061042457607f821691505b60208210810361044457634e487b7160e01b600052602260045260246000fd5b50919050565b601f82111561049457600081815260208120601f850160051c810160208610156104715750805b601f850160051c820191505b818110156104905782815560010161047d565b5050505b505050565b815167ffffffffffffffff8111156104b3576104b36102e2565b6104c7816104c18454610410565b8461044a565b602080601f8311600181146104fc57600084156104e45750858301515b600019600386901b1c1916600185901b178555610490565b600085815260208120601f198616915b8281101561052b5788860151825594840194600190910190840161050c565b50858210156105495787850151600019600388901b60f8161c191681555b5050505050600190811b01905550565b634e487b7160e01b600052601160045260246000fd5b60006001820161058157610581610559565b5060010190565b818103818111156101fd576101fd610559565b634e487b7160e01b600052601260045260246000fd5b6000826105c0576105c061059b565b500690565b6000816105d4576105d4610559565b506000190190565b6000826105eb576105eb61059b565b500490565b80820281158282048414176101fd576101fd610559565b808201808211156101fd576101fd61055956fea26469706673582212200eef49e677a10a9d3ca1574d86440391be8f649d65856057a751e68b193380bd64736f6c63430008130033",
					"opcodes": "PUSH1 0xC0 PUSH1 0x40 MSTORE PUSH1 0xA PUSH1 0x80 SWAP1 DUP2 MSTORE PUSH10 0x20B93AB71025BAB6B0B9 PUSH1 0xB1 SHL PUSH1 0xA0 MSTORE PUSH1 0x0 SWAP1 PUSH2 0x29 SWAP1 DUP3 PUSH2 0x107 JUMP JUMPDEST POP PUSH1 0x2C PUSH1 0x1 SSTORE PUSH1 0x2 DUP1 SLOAD PUSH1 0x1 PUSH1 0x1 PUSH1 0xA8 SHL SUB NOT AND PUSH21 0x15B38DA6A701C568545DCFCB03FCB875F56BEDDC4 OR SWAP1 SSTORE CALLVALUE DUP1 ISZERO PUSH2 0x62 JUMPI PUSH1 0x0 DUP1 REVERT JUMPDEST POP PUSH2 0x1C6 JUMP JUMPDEST PUSH4 0x4E487B71 PUSH1 0xE0 SHL PUSH1 0x0 MSTORE PUSH1 0x41 PUSH1 0x4 MSTORE PUSH1 0x24 PUSH1 0x0 REVERT JUMPDEST PUSH1 0x1 DUP2 DUP2 SHR SWAP1 DUP3 AND DUP1 PUSH2 0x92 JUMPI PUSH1 0x7F DUP3 AND SWAP2 POP JUMPDEST PUSH1 0x20 DUP3 LT DUP2 SUB PUSH2 0xB2 JUMPI PUSH4 0x4E487B71 PUSH1 0xE0 SHL PUSH1 0x0 MSTORE PUSH1 0x22 PUSH1 0x4 MSTORE PUSH1 0x24 PUSH1 0x0 REVERT JUMPDEST POP SWAP2 SWAP1 POP JUMP JUMPDEST PUSH1 0x1F DUP3 GT ISZERO PUSH2 0x102 JUMPI PUSH1 0x0 DUP2 DUP2 MSTORE PUSH1 0x20 DUP2 KECCAK256 PUSH1 0x1F DUP6 ADD PUSH1 0x5 SHR DUP2 ADD PUSH1 0x20 DUP7 LT ISZERO PUSH2 0xDF JUMPI POP DUP1 JUMPDEST PUSH1 0x1F DUP6 ADD PUSH1 0x5 SHR DUP3 ADD SWAP2 POP JUMPDEST DUP2 DUP2 LT ISZERO PUSH2 0xFE JUMPI DUP3 DUP2 SSTORE PUSH1 0x1 ADD PUSH2 0xEB JUMP JUMPDEST POP POP POP JUMPDEST POP POP POP JUMP JUMPDEST DUP2 MLOAD PUSH1 0x1 PUSH1 0x1 PUSH1 0x40 SHL SUB DUP2 GT ISZERO PUSH2 0x120 JUMPI PUSH2 0x120 PUSH2 0x68 JUMP JUMPDEST PUSH2 0x134 DUP2 PUSH2 0x12E DUP5 SLOAD PUSH2 0x7E JUMP JUMPDEST DUP5 PUSH2 0xB8 JUMP JUMPDEST PUSH1 0x20 DUP1 PUSH1 0x1F DUP4 GT PUSH1 0x1 DUP2 EQ PUSH2 0x169 JUMPI PUSH1 0x0 DUP5 ISZERO PUSH2 0x151 JUMPI POP DUP6 DUP4 ADD MLOAD JUMPDEST PUSH1 0x0 NOT PUSH1 0x3 DUP7 SWAP1 SHL SHR NOT AND PUSH1 0x1 DUP6 SWAP1 SHL OR DUP6 SSTORE PUSH2 0xFE JUMP JUMPDEST PUSH1 0x0 DUP6 DUP2 MSTORE PUSH1 0x20 DUP2 KECCAK256 PUSH1 0x1F NOT DUP7 AND SWAP2 JUMPDEST DUP3 DUP2 LT ISZERO PUSH2 0x198 JUMPI DUP9 DUP7 ADD MLOAD DUP3 SSTORE SWAP5 DUP5 ADD SWAP5 PUSH1 0x1 SWAP1 SWAP2 ADD SWAP1 DUP5 ADD PUSH2 0x179 JUMP JUMPDEST POP DUP6 DUP3 LT ISZERO PUSH2 0x1B6 JUMPI DUP8 DUP6 ADD MLOAD PUSH1 0x0 NOT PUSH1 0x3 DUP9 SWAP1 SHL PUSH1 0xF8 AND SHR NOT AND DUP2 SSTORE JUMPDEST POP POP POP POP POP PUSH1 0x1 SWAP1 DUP2 SHL ADD SWAP1 SSTORE POP JUMP JUMPDEST PUSH2 0x650 DUP1 PUSH2 0x1D5 PUSH1 0x0 CODECOPY PUSH1 0x0 RETURN INVALID PUSH1 0x80 PUSH1 0x40 MSTORE CALLVALUE DUP1 ISZERO PUSH2 0x10 JUMPI PUSH1 0x0 DUP1 REVERT JUMPDEST POP PUSH1 0x4 CALLDATASIZE LT PUSH2 0xB3 JUMPI PUSH1 0x0 CALLDATALOAD PUSH1 0xE0 SHR DUP1 PUSH4 0x871CC9D4 GT PUSH2 0x71 JUMPI DUP1 PUSH4 0x871CC9D4 EQ PUSH2 0x146 JUMPI DUP1 PUSH4 0xB880B69A EQ PUSH2 0x14E JUMPI DUP1 PUSH4 0xB93D1D5A EQ PUSH2 0x179 JUMPI DUP1 PUSH4 0xCF429767 EQ PUSH2 0x18C JUMPI DUP1 PUSH4 0xFAE2DD4B EQ PUSH2 0x19F JUMPI DUP1 PUSH4 0xFDFA0A9A EQ PUSH2 0x1A7 JUMPI PUSH1 0x0 DUP1 REVERT JUMPDEST DUP1 PUSH3 0x74530A EQ PUSH2 0xB8 JUMPI DUP1 PUSH4 0x162AB909 EQ PUSH2 0xE1 JUMPI DUP1 PUSH4 0x23FD0E40 EQ PUSH2 0x101 JUMPI DUP1 PUSH4 0x273EA3E3 EQ PUSH2 0x118 JUMPI DUP1 PUSH4 0x64B067EC EQ PUSH2 0x120 JUMPI DUP1 PUSH4 0x6714B51B EQ PUSH2 0x133 JUMPI JUMPDEST PUSH1 0x0 DUP1 REVERT JUMPDEST PUSH1 0x2 SLOAD PUSH2 0xCC SWAP1 PUSH1 0x1 PUSH1 0xA0 SHL SWAP1 DIV PUSH1 0xFF AND DUP2 JUMP JUMPDEST PUSH1 0x40 MLOAD SWAP1 ISZERO ISZERO DUP2 MSTORE PUSH1 0x20 ADD JUMPDEST PUSH1 0x40 MLOAD DUP1 SWAP2 SUB SWAP1 RETURN JUMPDEST PUSH2 0xF4 PUSH2 0xEF CALLDATASIZE PUSH1 0x4 PUSH2 0x2F8 JUMP JUMPDEST PUSH2 0x1BA JUMP JUMPDEST PUSH1 0x40 MLOAD PUSH2 0xD8 SWAP2 SWAP1 PUSH2 0x3A9 JUMP JUMPDEST PUSH2 0x10A PUSH1 0x1 SLOAD DUP2 JUMP JUMPDEST PUSH1 0x40 MLOAD SWAP1 DUP2 MSTORE PUSH1 0x20 ADD PUSH2 0xD8 JUMP JUMPDEST PUSH2 0x10A PUSH2 0x1CF JUMP JUMPDEST PUSH2 0x10A PUSH2 0x12E CALLDATASIZE PUSH1 0x4 PUSH2 0x3F7 JUMP JUMPDEST PUSH2 0x1ED JUMP JUMPDEST PUSH2 0x10A PUSH2 0x141 CALLDATASIZE PUSH1 0x4 PUSH2 0x3F7 JUMP JUMPDEST PUSH2 0x203 JUMP JUMPDEST PUSH2 0x10A PUSH2 0x213 JUMP JUMPDEST PUSH1 0x2 SLOAD PUSH2 0x161 SWAP1 PUSH1 0x1 PUSH1 0x1 PUSH1 0xA0 SHL SUB AND DUP2 JUMP JUMPDEST PUSH1 0x40 MLOAD PUSH1 0x1 PUSH1 0x1 PUSH1 0xA0 SHL SUB SWAP1 SWAP2 AND DUP2 MSTORE PUSH1 0x20 ADD PUSH2 0xD8 JUMP JUMPDEST PUSH2 0x10A PUSH2 0x187 CALLDATASIZE PUSH1 0x4 PUSH2 0x3F7 JUMP JUMPDEST PUSH2 0x224 JUMP JUMPDEST PUSH2 0x10A PUSH2 0x19A CALLDATASIZE PUSH1 0x4 PUSH2 0x3F7 JUMP JUMPDEST PUSH2 0x234 JUMP JUMPDEST PUSH2 0xF4 PUSH2 0x244 JUMP JUMPDEST PUSH2 0x10A PUSH2 0x1B5 CALLDATASIZE PUSH1 0x4 PUSH2 0x3F7 JUMP JUMPDEST PUSH2 0x2D2 JUMP JUMPDEST PUSH1 0x60 PUSH1 0x0 PUSH2 0x1C8 DUP4 DUP3 PUSH2 0x499 JUMP JUMPDEST POP SWAP1 SWAP2 SWAP1 POP JUMP JUMPDEST PUSH1 0x1 DUP1 SLOAD PUSH1 0x0 SWAP2 DUP3 PUSH2 0x1E0 DUP4 PUSH2 0x56F JUMP JUMPDEST SWAP2 SWAP1 POP SSTORE POP PUSH1 0x1 SLOAD SWAP1 POP SWAP1 JUMP JUMPDEST PUSH1 0x0 DUP2 PUSH1 0x1 SLOAD PUSH2 0x1FD SWAP2 SWAP1 PUSH2 0x588 JUMP JUMPDEST SWAP3 SWAP2 POP POP JUMP JUMPDEST PUSH1 0x0 DUP2 PUSH1 0x1 SLOAD PUSH2 0x1FD SWAP2 SWAP1 PUSH2 0x5B1 JUMP JUMPDEST PUSH1 0x1 DUP1 SLOAD PUSH1 0x0 SWAP2 DUP3 PUSH2 0x1E0 DUP4 PUSH2 0x5C5 JUMP JUMPDEST PUSH1 0x0 DUP2 PUSH1 0x1 SLOAD PUSH2 0x1FD SWAP2 SWAP1 PUSH2 0x5DC JUMP JUMPDEST PUSH1 0x0 DUP2 PUSH1 0x1 SLOAD PUSH2 0x1FD SWAP2 SWAP1 PUSH2 0x5F0 JUMP JUMPDEST PUSH1 0x0 DUP1 SLOAD PUSH2 0x251 SWAP1 PUSH2 0x410 JUMP JUMPDEST DUP1 PUSH1 0x1F ADD PUSH1 0x20 DUP1 SWAP2 DIV MUL PUSH1 0x20 ADD PUSH1 0x40 MLOAD SWAP1 DUP2 ADD PUSH1 0x40 MSTORE DUP1 SWAP3 SWAP2 SWAP1 DUP2 DUP2 MSTORE PUSH1 0x20 ADD DUP3 DUP1 SLOAD PUSH2 0x27D SWAP1 PUSH2 0x410 JUMP JUMPDEST DUP1 ISZERO PUSH2 0x2CA JUMPI DUP1 PUSH1 0x1F LT PUSH2 0x29F JUMPI PUSH2 0x100 DUP1 DUP4 SLOAD DIV MUL DUP4 MSTORE SWAP2 PUSH1 0x20 ADD SWAP2 PUSH2 0x2CA JUMP JUMPDEST DUP3 ADD SWAP2 SWAP1 PUSH1 0x0 MSTORE PUSH1 0x20 PUSH1 0x0 KECCAK256 SWAP1 JUMPDEST DUP2 SLOAD DUP2 MSTORE SWAP1 PUSH1 0x1 ADD SWAP1 PUSH1 0x20 ADD DUP1 DUP4 GT PUSH2 0x2AD JUMPI DUP3 SWAP1 SUB PUSH1 0x1F AND DUP3 ADD SWAP2 JUMPDEST POP POP POP POP POP DUP2 JUMP JUMPDEST PUSH1 0x0 DUP2 PUSH1 0x1 SLOAD PUSH2 0x1FD SWAP2 SWAP1 PUSH2 0x607 JUMP JUMPDEST PUSH4 0x4E487B71 PUSH1 0xE0 SHL PUSH1 0x0 MSTORE PUSH1 0x41 PUSH1 0x4 MSTORE PUSH1 0x24 PUSH1 0x0 REVERT JUMPDEST PUSH1 0x0 PUSH1 0x20 DUP3 DUP5 SUB SLT ISZERO PUSH2 0x30A JUMPI PUSH1 0x0 DUP1 REVERT JUMPDEST DUP2 CALLDATALOAD PUSH8 0xFFFFFFFFFFFFFFFF DUP1 DUP3 GT ISZERO PUSH2 0x322 JUMPI PUSH1 0x0 DUP1 REVERT JUMPDEST DUP2 DUP5 ADD SWAP2 POP DUP5 PUSH1 0x1F DUP4 ADD SLT PUSH2 0x336 JUMPI PUSH1 0x0 DUP1 REVERT JUMPDEST DUP2 CALLDATALOAD DUP2 DUP2 GT ISZERO PUSH2 0x348 JUMPI PUSH2 0x348 PUSH2 0x2E2 JUMP JUMPDEST PUSH1 0x40 MLOAD PUSH1 0x1F DUP3 ADD PUSH1 0x1F NOT SWAP1 DUP2 AND PUSH1 0x3F ADD AND DUP2 ADD SWAP1 DUP4 DUP3 GT DUP2 DUP4 LT OR ISZERO PUSH2 0x370 JUMPI PUSH2 0x370 PUSH2 0x2E2 JUMP JUMPDEST DUP2 PUSH1 0x40 MSTORE DUP3 DUP2 MSTORE DUP8 PUSH1 0x20 DUP5 DUP8 ADD ADD GT ISZERO PUSH2 0x389 JUMPI PUSH1 0x0 DUP1 REVERT JUMPDEST DUP3 PUSH1 0x20 DUP7 ADD PUSH1 0x20 DUP4 ADD CALLDATACOPY PUSH1 0x0 SWAP3 DUP2 ADD PUSH1 0x20 ADD SWAP3 SWAP1 SWAP3 MSTORE POP SWAP6 SWAP5 POP POP POP POP POP JUMP JUMPDEST PUSH1 0x0 PUSH1 0x20 DUP1 DUP4 MSTORE DUP4 MLOAD DUP1 DUP3 DUP6 ADD MSTORE PUSH1 0x0 JUMPDEST DUP2 DUP2 LT ISZERO PUSH2 0x3D6 JUMPI DUP6 DUP2 ADD DUP4 ADD MLOAD DUP6 DUP3 ADD PUSH1 0x40 ADD MSTORE DUP3 ADD PUSH2 0x3BA JUMP JUMPDEST POP PUSH1 0x0 PUSH1 0x40 DUP3 DUP7 ADD ADD MSTORE PUSH1 0x40 PUSH1 0x1F NOT PUSH1 0x1F DUP4 ADD AND DUP6 ADD ADD SWAP3 POP POP POP SWAP3 SWAP2 POP POP JUMP JUMPDEST PUSH1 0x0 PUSH1 0x20 DUP3 DUP5 SUB SLT ISZERO PUSH2 0x409 JUMPI PUSH1 0x0 DUP1 REVERT JUMPDEST POP CALLDATALOAD SWAP2 SWAP1 POP JUMP JUMPDEST PUSH1 0x1 DUP2 DUP2 SHR SWAP1 DUP3 AND DUP1 PUSH2 0x424 JUMPI PUSH1 0x7F DUP3 AND SWAP2 POP JUMPDEST PUSH1 0x20 DUP3 LT DUP2 SUB PUSH2 0x444 JUMPI PUSH4 0x4E487B71 PUSH1 0xE0 SHL PUSH1 0x0 MSTORE PUSH1 0x22 PUSH1 0x4 MSTORE PUSH1 0x24 PUSH1 0x0 REVERT JUMPDEST POP SWAP2 SWAP1 POP JUMP JUMPDEST PUSH1 0x1F DUP3 GT ISZERO PUSH2 0x494 JUMPI PUSH1 0x0 DUP2 DUP2 MSTORE PUSH1 0x20 DUP2 KECCAK256 PUSH1 0x1F DUP6 ADD PUSH1 0x5 SHR DUP2 ADD PUSH1 0x20 DUP7 LT ISZERO PUSH2 0x471 JUMPI POP DUP1 JUMPDEST PUSH1 0x1F DUP6 ADD PUSH1 0x5 SHR DUP3 ADD SWAP2 POP JUMPDEST DUP2 DUP2 LT ISZERO PUSH2 0x490 JUMPI DUP3 DUP2 SSTORE PUSH1 0x1 ADD PUSH2 0x47D JUMP JUMPDEST POP POP POP JUMPDEST POP POP POP JUMP JUMPDEST DUP2 MLOAD PUSH8 0xFFFFFFFFFFFFFFFF DUP2 GT ISZERO PUSH2 0x4B3 JUMPI PUSH2 0x4B3 PUSH2 0x2E2 JUMP JUMPDEST PUSH2 0x4C7 DUP2 PUSH2 0x4C1 DUP5 SLOAD PUSH2 0x410 JUMP JUMPDEST DUP5 PUSH2 0x44A JUMP JUMPDEST PUSH1 0x20 DUP1 PUSH1 0x1F DUP4 GT PUSH1 0x1 DUP2 EQ PUSH2 0x4FC JUMPI PUSH1 0x0 DUP5 ISZERO PUSH2 0x4E4 JUMPI POP DUP6 DUP4 ADD MLOAD JUMPDEST PUSH1 0x0 NOT PUSH1 0x3 DUP7 SWAP1 SHL SHR NOT AND PUSH1 0x1 DUP6 SWAP1 SHL OR DUP6 SSTORE PUSH2 0x490 JUMP JUMPDEST PUSH1 0x0 DUP6 DUP2 MSTORE PUSH1 0x20 DUP2 KECCAK256 PUSH1 0x1F NOT DUP7 AND SWAP2 JUMPDEST DUP3 DUP2 LT ISZERO PUSH2 0x52B JUMPI DUP9 DUP7 ADD MLOAD DUP3 SSTORE SWAP5 DUP5 ADD SWAP5 PUSH1 0x1 SWAP1 SWAP2 ADD SWAP1 DUP5 ADD PUSH2 0x50C JUMP JUMPDEST POP DUP6 DUP3 LT ISZERO PUSH2 0x549 JUMPI DUP8 DUP6 ADD MLOAD PUSH1 0x0 NOT PUSH1 0x3 DUP9 SWAP1 SHL PUSH1 0xF8 AND SHR NOT AND DUP2 SSTORE JUMPDEST POP POP POP POP POP PUSH1 0x1 SWAP1 DUP2 SHL ADD SWAP1 SSTORE POP JUMP JUMPDEST PUSH4 0x4E487B71 PUSH1 0xE0 SHL PUSH1 0x0 MSTORE PUSH1 0x11 PUSH1 0x4 MSTORE PUSH1 0x24 PUSH1 0x0 REVERT JUMPDEST PUSH1 0x0 PUSH1 0x1 DUP3 ADD PUSH2 0x581 JUMPI PUSH2 0x581 PUSH2 0x559 JUMP JUMPDEST POP PUSH1 0x1 ADD SWAP1 JUMP JUMPDEST DUP2 DUP2 SUB DUP2 DUP2 GT ISZERO PUSH2 0x1FD JUMPI PUSH2 0x1FD PUSH2 0x559 JUMP JUMPDEST PUSH4 0x4E487B71 PUSH1 0xE0 SHL PUSH1 0x0 MSTORE PUSH1 0x12 PUSH1 0x4 MSTORE PUSH1 0x24 PUSH1 0x0 REVERT JUMPDEST PUSH1 0x0 DUP3 PUSH2 0x5C0 JUMPI PUSH2 0x5C0 PUSH2 0x59B JUMP JUMPDEST POP MOD SWAP1 JUMP JUMPDEST PUSH1 0x0 DUP2 PUSH2 0x5D4 JUMPI PUSH2 0x5D4 PUSH2 0x559 JUMP JUMPDEST POP PUSH1 0x0 NOT ADD SWAP1 JUMP JUMPDEST PUSH1 0x0 DUP3 PUSH2 0x5EB JUMPI PUSH2 0x5EB PUSH2 0x59B JUMP JUMPDEST POP DIV SWAP1 JUMP JUMPDEST DUP1 DUP3 MUL DUP2 ISZERO DUP3 DUP3 DIV DUP5 EQ OR PUSH2 0x1FD JUMPI PUSH2 0x1FD PUSH2 0x559 JUMP JUMPDEST DUP1 DUP3 ADD DUP1 DUP3 GT ISZERO PUSH2 0x1FD JUMPI PUSH2 0x1FD PUSH2 0x559 JUMP INVALID LOG2 PUSH5 0x6970667358 0x22 SLT KECCAK256 0xE 0xEF 0x49 0xE6 PUSH24 0xA10A9D3CA1574D86440391BE8F649D65856057A751E68B19 CALLER DUP1 0xBD PUSH5 0x736F6C6343 STOP ADDMOD SGT STOP CALLER "
				},
				"gasEstimates": {
					"creation": {
						"codeDepositCost": "323200",
						"executionCost": "infinite",
						"totalCost": "infinite"
					},
					"external": {
						"addToMyNumber(uint256)": "infinite",
						"decrementNumber()": "26598",
						"divideMyNumber(uint256)": "2501",
						"findTheRemainder(uint256)": "2568",
						"incrementNumber()": "26668",
						"isTrue()": "2317",
						"multiplyMyNumber(uint256)": "infinite",
						"myName()": "infinite",
						"myNumber()": "2340",
						"myWallet()": "2359",
						"subtractFromMyNumber(uint256)": "infinite",
						"updateMyName(string)": "infinite"
					}
				},
				"methodIdentifiers": {
					"addToMyNumber(uint256)": "fdfa0a9a",
					"decrementNumber()": "871cc9d4",
					"divideMyNumber(uint256)": "b93d1d5a",
					"findTheRemainder(uint256)": "6714b51b",
					"incrementNumber()": "273ea3e3",
					"isTrue()": "0074530a",
					"multiplyMyNumber(uint256)": "cf429767",
					"myName()": "fae2dd4b",
					"myNumber()": "23fd0e40",
					"myWallet()": "b880b69a",
					"subtractFromMyNumber(uint256)": "64b067ec",
					"updateMyName(string)": "162ab909"
				}
			},
			"storageLayout": {
				"storage": [
					{
						"astId": 4,
						"contract": "Lesson1.sol:ArithmeticOperators",
						"label": "myName",
						"offset": 0,
						"slot": "0",
						"type": "t_string_storage"
					},
					{
						"astId": 7,
						"contract": "Lesson1.sol:ArithmeticOperators",
						"label": "myNumber",
						"offset": 0,
						"slot": "1",
						"type": "t_uint256"
					},
					{
						"astId": 10,
						"contract": "Lesson1.sol:ArithmeticOperators",
						"label": "myWallet",
						"offset": 0,
						"slot": "2",
						"type": "t_address"
					},
					{
						"astId": 13,
						"contract": "Lesson1.sol:ArithmeticOperators",
						"label": "isTrue",
						"offset": 20,
						"slot": "2",
						"type": "t_bool"
					}
				],
				"types": {
					"t_address": {
						"encoding": "inplace",
						"label": "address",
						"numberOfBytes": "20"
					},
					"t_bool": {
						"encoding": "inplace",
						"label": "bool",
						"numberOfBytes": "1"
					},
					"t_string_storage": {
						"encoding": "bytes",
						"label": "string",
						"numberOfBytes": "32"
					},
					"t_uint256": {
						"encoding": "inplace",
						"label": "uint256",
						"numberOfBytes": "32"
					}
				}
			},
			"userdoc": {
				"kind": "user",
				"methods": {},
				"version": 1
			}
		}
	}
}