{
	"Practical2-RockPaperScissors-Jason.sol": {
		"RockPaperScissors": {
			"abi": [
				{
					"inputs": [
						{
							"internalType": "uint256",
							"name": "",
							"type": "uint256"
						}
					],
					"name": "Options",
					"outputs": [
						{
							"internalType": "uint256",
							"name": "",
							"type": "uint256"
						}
					],
					"stateMutability": "view",
					"type": "function"
				},
				{
					"inputs": [],
					"name": "cleanAll",
					"outputs": [],
					"stateMutability": "nonpayable",
					"type": "function"
				},
				{
					"inputs": [
						{
							"internalType": "string",
							"name": "a",
							"type": "string"
						},
						{
							"internalType": "string",
							"name": "b",
							"type": "string"
						}
					],
					"name": "compareStrings",
					"outputs": [
						{
							"internalType": "bool",
							"name": "",
							"type": "bool"
						}
					],
					"stateMutability": "pure",
					"type": "function"
				},
				{
					"inputs": [
						{
							"internalType": "uint256",
							"name": "userInput",
							"type": "uint256"
						}
					],
					"name": "enterOption",
					"outputs": [
						{
							"internalType": "uint256[]",
							"name": "result",
							"type": "uint256[]"
						}
					],
					"stateMutability": "nonpayable",
					"type": "function"
				},
				{
					"inputs": [],
					"name": "getRandomNumber",
					"outputs": [
						{
							"internalType": "uint256",
							"name": "",
							"type": "uint256"
						}
					],
					"stateMutability": "nonpayable",
					"type": "function"
				},
				{
					"inputs": [],
					"name": "getRandomSet",
					"outputs": [
						{
							"internalType": "uint256[]",
							"name": "result",
							"type": "uint256[]"
						}
					],
					"stateMutability": "view",
					"type": "function"
				},
				{
					"inputs": [
						{
							"internalType": "uint256",
							"name": "guessAnswer",
							"type": "uint256"
						}
					],
					"name": "guessResult",
					"outputs": [
						{
							"internalType": "string",
							"name": "result",
							"type": "string"
						}
					],
					"stateMutability": "nonpayable",
					"type": "function"
				},
				{
					"inputs": [],
					"name": "lastChoice",
					"outputs": [
						{
							"internalType": "uint256",
							"name": "",
							"type": "uint256"
						}
					],
					"stateMutability": "view",
					"type": "function"
				},
				{
					"inputs": [
						{
							"internalType": "uint256",
							"name": "option",
							"type": "uint256"
						}
					],
					"name": "play",
					"outputs": [
						{
							"internalType": "string",
							"name": "result",
							"type": "string"
						}
					],
					"stateMutability": "nonpayable",
					"type": "function"
				},
				{
					"inputs": [],
					"name": "playMutiTimes",
					"outputs": [
						{
							"internalType": "string",
							"name": "result",
							"type": "string"
						}
					],
					"stateMutability": "nonpayable",
					"type": "function"
				},
				{
					"inputs": [
						{
							"internalType": "uint256",
							"name": "",
							"type": "uint256"
						}
					],
					"name": "randomNumSet",
					"outputs": [
						{
							"internalType": "uint256",
							"name": "",
							"type": "uint256"
						}
					],
					"stateMutability": "view",
					"type": "function"
				},
				{
					"inputs": [],
					"name": "systemWin",
					"outputs": [
						{
							"internalType": "uint256",
							"name": "",
							"type": "uint256"
						}
					],
					"stateMutability": "view",
					"type": "function"
				},
				{
					"inputs": [],
					"name": "tied",
					"outputs": [
						{
							"internalType": "uint256",
							"name": "",
							"type": "uint256"
						}
					],
					"stateMutability": "view",
					"type": "function"
				},
				{
					"inputs": [],
					"name": "userWin",
					"outputs": [
						{
							"internalType": "uint256",
							"name": "",
							"type": "uint256"
						}
					],
					"stateMutability": "view",
					"type": "function"
				}
			],
			"devdoc": {
				"kind": "dev",
				"methods": {},
				"version": 1
			},
			"evm": {
				"assembly": "    /* \"Practical2-RockPaperScissors-Jason.sol\":57:6943  contract RockPaperScissors {... */\n  mstore(0x40, 0x80)\n    /* \"Practical2-RockPaperScissors-Jason.sol\":230:231  1 */\n  0x01\n    /* \"Practical2-RockPaperScissors-Jason.sol\":218:231  uint salt = 1 */\n  0x03\n  sstore\n    /* \"Practical2-RockPaperScissors-Jason.sol\":57:6943  contract RockPaperScissors {... */\n  callvalue\n  dup1\n  iszero\n  tag_1\n  jumpi\n  0x00\n  dup1\n  revert\ntag_1:\n  pop\n  dataSize(sub_0)\n  dup1\n  dataOffset(sub_0)\n  0x00\n  codecopy\n  0x00\n  return\nstop\n\nsub_0: assembly {\n        /* \"Practical2-RockPaperScissors-Jason.sol\":57:6943  contract RockPaperScissors {... */\n      mstore(0x40, 0x80)\n      callvalue\n      dup1\n      iszero\n      tag_1\n      jumpi\n      0x00\n      dup1\n      revert\n    tag_1:\n      pop\n      jumpi(tag_2, lt(calldatasize, 0x04))\n      shr(0xe0, calldataload(0x00))\n      dup1\n      0x6898f82b\n      gt\n      tag_17\n      jumpi\n      dup1\n      0xba162868\n      gt\n      tag_18\n      jumpi\n      dup1\n      0xba162868\n      eq\n      tag_13\n      jumpi\n      dup1\n      0xbed34bba\n      eq\n      tag_14\n      jumpi\n      dup1\n      0xdbdff2c1\n      eq\n      tag_15\n      jumpi\n      dup1\n      0xf6320567\n      eq\n      tag_16\n      jumpi\n      jump(tag_2)\n    tag_18:\n      dup1\n      0x6898f82b\n      eq\n      tag_10\n      jumpi\n      dup1\n      0x6ca495e2\n      eq\n      tag_11\n      jumpi\n      dup1\n      0x94227ea7\n      eq\n      tag_12\n      jumpi\n      jump(tag_2)\n    tag_17:\n      dup1\n      0x12220fe3\n      gt\n      tag_19\n      jumpi\n      dup1\n      0x12220fe3\n      eq\n      tag_6\n      jumpi\n      dup1\n      0x233a1a76\n      eq\n      tag_7\n      jumpi\n      dup1\n      0x58da9da8\n      eq\n      tag_8\n      jumpi\n      dup1\n      0x614b3757\n      eq\n      tag_9\n      jumpi\n      jump(tag_2)\n    tag_19:\n      dup1\n      0x010711e3\n      eq\n      tag_3\n      jumpi\n      dup1\n      0x060aa4ce\n      eq\n      tag_4\n      jumpi\n      dup1\n      0x1123d9b1\n      eq\n      tag_5\n      jumpi\n    tag_2:\n      0x00\n      dup1\n      revert\n        /* \"Practical2-RockPaperScissors-Jason.sol\":130:152  uint public lastChoice */\n    tag_3:\n      tag_20\n      tag_21\n      jump\t// in\n    tag_20:\n      mload(0x40)\n      tag_22\n      swap2\n      swap1\n      tag_23\n      jump\t// in\n    tag_22:\n      mload(0x40)\n      dup1\n      swap2\n      sub\n      swap1\n      return\n        /* \"Practical2-RockPaperScissors-Jason.sol\":262:283  uint public systemWin */\n    tag_4:\n      tag_24\n      tag_25\n      jump\t// in\n    tag_24:\n      mload(0x40)\n      tag_26\n      swap2\n      swap1\n      tag_23\n      jump\t// in\n    tag_26:\n      mload(0x40)\n      dup1\n      swap2\n      sub\n      swap1\n      return\n        /* \"Practical2-RockPaperScissors-Jason.sol\":3091:4079  function guessResult(uint guessAnswer) external returns  (string memory result){... */\n    tag_5:\n      tag_27\n      0x04\n      dup1\n      calldatasize\n      sub\n      dup2\n      add\n      swap1\n      tag_28\n      swap2\n      swap1\n      tag_29\n      jump\t// in\n    tag_28:\n      tag_30\n      jump\t// in\n    tag_27:\n      mload(0x40)\n      tag_31\n      swap2\n      swap1\n      tag_32\n      jump\t// in\n    tag_31:\n      mload(0x40)\n      dup1\n      swap2\n      sub\n      swap1\n      return\n        /* \"Practical2-RockPaperScissors-Jason.sol\":159:180  uint[] public Options */\n    tag_6:\n      tag_33\n      0x04\n      dup1\n      calldatasize\n      sub\n      dup2\n      add\n      swap1\n      tag_34\n      swap2\n      swap1\n      tag_29\n      jump\t// in\n    tag_34:\n      tag_35\n      jump\t// in\n    tag_33:\n      mload(0x40)\n      tag_36\n      swap2\n      swap1\n      tag_23\n      jump\t// in\n    tag_36:\n      mload(0x40)\n      dup1\n      swap2\n      sub\n      swap1\n      return\n        /* \"Practical2-RockPaperScissors-Jason.sol\":186:212  uint[] public randomNumSet */\n    tag_7:\n      tag_37\n      0x04\n      dup1\n      calldatasize\n      sub\n      dup2\n      add\n      swap1\n      tag_38\n      swap2\n      swap1\n      tag_29\n      jump\t// in\n    tag_38:\n      tag_39\n      jump\t// in\n    tag_37:\n      mload(0x40)\n      tag_40\n      swap2\n      swap1\n      tag_23\n      jump\t// in\n    tag_40:\n      mload(0x40)\n      dup1\n      swap2\n      sub\n      swap1\n      return\n        /* \"Practical2-RockPaperScissors-Jason.sol\":935:3004  function playMutiTimes()  ... */\n    tag_8:\n      tag_41\n      tag_42\n      jump\t// in\n    tag_41:\n      mload(0x40)\n      tag_43\n      swap2\n      swap1\n      tag_32\n      jump\t// in\n    tag_43:\n      mload(0x40)\n      dup1\n      swap2\n      sub\n      swap1\n      return\n        /* \"Practical2-RockPaperScissors-Jason.sol\":437:692  function enterOption(uint256 userInput) external returns (uint[] memory result){... */\n    tag_9:\n      tag_44\n      0x04\n      dup1\n      calldatasize\n      sub\n      dup2\n      add\n      swap1\n      tag_45\n      swap2\n      swap1\n      tag_29\n      jump\t// in\n    tag_45:\n      tag_46\n      jump\t// in\n    tag_44:\n      mload(0x40)\n      tag_47\n      swap2\n      swap1\n      tag_48\n      jump\t// in\n    tag_47:\n      mload(0x40)\n      dup1\n      swap2\n      sub\n      swap1\n      return\n        /* \"Practical2-RockPaperScissors-Jason.sol\":4498:5127  function play(uint256 option) ... */\n    tag_10:\n      tag_49\n      0x04\n      dup1\n      calldatasize\n      sub\n      dup2\n      add\n      swap1\n      tag_50\n      swap2\n      swap1\n      tag_29\n      jump\t// in\n    tag_50:\n      tag_51\n      jump\t// in\n    tag_49:\n      mload(0x40)\n      tag_52\n      swap2\n      swap1\n      tag_32\n      jump\t// in\n    tag_52:\n      mload(0x40)\n      dup1\n      swap2\n      sub\n      swap1\n      return\n        /* \"Practical2-RockPaperScissors-Jason.sol\":751:858  function getRandomSet () external view returns (uint[] memory result){... */\n    tag_11:\n      tag_53\n      tag_54\n      jump\t// in\n    tag_53:\n      mload(0x40)\n      tag_55\n      swap2\n      swap1\n      tag_48\n      jump\t// in\n    tag_55:\n      mload(0x40)\n      dup1\n      swap2\n      sub\n      swap1\n      return\n        /* \"Practical2-RockPaperScissors-Jason.sol\":289:305  uint public tied */\n    tag_12:\n      tag_56\n      tag_57\n      jump\t// in\n    tag_56:\n      mload(0x40)\n      tag_58\n      swap2\n      swap1\n      tag_23\n      jump\t// in\n    tag_58:\n      mload(0x40)\n      dup1\n      swap2\n      sub\n      swap1\n      return\n        /* \"Practical2-RockPaperScissors-Jason.sol\":237:256  uint public userWin */\n    tag_13:\n      tag_59\n      tag_60\n      jump\t// in\n    tag_59:\n      mload(0x40)\n      tag_61\n      swap2\n      swap1\n      tag_23\n      jump\t// in\n    tag_61:\n      mload(0x40)\n      dup1\n      swap2\n      sub\n      swap1\n      return\n        /* \"Practical2-RockPaperScissors-Jason.sol\":4134:4378  function compareStrings(string memory a, string memory b) public pure returns (bool) {... */\n    tag_14:\n      tag_62\n      0x04\n      dup1\n      calldatasize\n      sub\n      dup2\n      add\n      swap1\n      tag_63\n      swap2\n      swap1\n      tag_64\n      jump\t// in\n    tag_63:\n      tag_65\n      jump\t// in\n    tag_62:\n      mload(0x40)\n      tag_66\n      swap2\n      swap1\n      tag_67\n      jump\t// in\n    tag_66:\n      mload(0x40)\n      dup1\n      swap2\n      sub\n      swap1\n      return\n        /* \"Practical2-RockPaperScissors-Jason.sol\":5133:5742  function getRandomNumber() public returns (uint256) {... */\n    tag_15:\n      tag_68\n      tag_69\n      jump\t// in\n    tag_68:\n      mload(0x40)\n      tag_70\n      swap2\n      swap1\n      tag_23\n      jump\t// in\n    tag_70:\n      mload(0x40)\n      dup1\n      swap2\n      sub\n      swap1\n      return\n        /* \"Practical2-RockPaperScissors-Jason.sol\":331:392  function cleanAll () external {... */\n    tag_16:\n      tag_71\n      tag_72\n      jump\t// in\n    tag_71:\n      stop\n        /* \"Practical2-RockPaperScissors-Jason.sol\":130:152  uint public lastChoice */\n    tag_21:\n      sload(0x00)\n      dup2\n      jump\t// out\n        /* \"Practical2-RockPaperScissors-Jason.sol\":262:283  uint public systemWin */\n    tag_25:\n      sload(0x05)\n      dup2\n      jump\t// out\n        /* \"Practical2-RockPaperScissors-Jason.sol\":3091:4079  function guessResult(uint guessAnswer) external returns  (string memory result){... */\n    tag_30:\n        /* \"Practical2-RockPaperScissors-Jason.sol\":3149:3169  string memory result */\n      0x60\n        /* \"Practical2-RockPaperScissors-Jason.sol\":3203:3204  3 */\n      0x03\n        /* \"Practical2-RockPaperScissors-Jason.sol\":3188:3199  guessAnswer */\n      dup3\n        /* \"Practical2-RockPaperScissors-Jason.sol\":3188:3204  guessAnswer <= 3 */\n      gt\n      iszero\n        /* \"Practical2-RockPaperScissors-Jason.sol\":3180:3239  require(guessAnswer <= 3, \"Error: Can't input more than 3\") */\n      tag_74\n      jumpi\n      mload(0x40)\n      0x08c379a000000000000000000000000000000000000000000000000000000000\n      dup2\n      mstore\n      0x04\n      add\n      tag_75\n      swap1\n      tag_76\n      jump\t// in\n    tag_75:\n      mload(0x40)\n      dup1\n      swap2\n      sub\n      swap1\n      revert\n    tag_74:\n        /* \"Practical2-RockPaperScissors-Jason.sol\":3249:3272  string memory getResult */\n      0x00\n        /* \"Practical2-RockPaperScissors-Jason.sol\":3275:3290  playMutiTimes() */\n      tag_77\n        /* \"Practical2-RockPaperScissors-Jason.sol\":3275:3288  playMutiTimes */\n      tag_42\n        /* \"Practical2-RockPaperScissors-Jason.sol\":3275:3290  playMutiTimes() */\n      jump\t// in\n    tag_77:\n        /* \"Practical2-RockPaperScissors-Jason.sol\":3249:3290  string memory getResult = playMutiTimes() */\n      swap1\n      pop\n        /* \"Practical2-RockPaperScissors-Jason.sol\":3301:3315  uint intResult */\n      0x00\n        /* \"Practical2-RockPaperScissors-Jason.sol\":3325:3356  string[3] memory possibleResult */\n      dup1\n        /* \"Practical2-RockPaperScissors-Jason.sol\":3325:3390  string[3] memory possibleResult = [\"Tied\", \"You Win\", \"You Lose\"] */\n      mload(0x40)\n      dup1\n      0x60\n      add\n      0x40\n      mstore\n      dup1\n      mload(0x40)\n      dup1\n      0x40\n      add\n      0x40\n      mstore\n      dup1\n      0x04\n      dup2\n      mstore\n      0x20\n      add\n      0x5469656400000000000000000000000000000000000000000000000000000000\n      dup2\n      mstore\n      pop\n      dup2\n      mstore\n      0x20\n      add\n      mload(0x40)\n      dup1\n      0x40\n      add\n      0x40\n      mstore\n      dup1\n      0x07\n      dup2\n      mstore\n      0x20\n      add\n      0x596f752057696e00000000000000000000000000000000000000000000000000\n      dup2\n      mstore\n      pop\n      dup2\n      mstore\n      0x20\n      add\n      mload(0x40)\n      dup1\n      0x40\n      add\n      0x40\n      mstore\n      dup1\n      0x08\n      dup2\n      mstore\n      0x20\n      add\n      0x596f75204c6f7365000000000000000000000000000000000000000000000000\n      dup2\n      mstore\n      pop\n      dup2\n      mstore\n      pop\n      swap1\n      pop\n        /* \"Practical2-RockPaperScissors-Jason.sol\":3405:3411  uint i */\n      0x00\n        /* \"Practical2-RockPaperScissors-Jason.sol\":3401:3608  for(uint i = 0; i < possibleResult.length; i++){... */\n    tag_78:\n        /* \"Practical2-RockPaperScissors-Jason.sol\":3421:3442  possibleResult.length */\n      0x03\n        /* \"Practical2-RockPaperScissors-Jason.sol\":3417:3418  i */\n      dup2\n        /* \"Practical2-RockPaperScissors-Jason.sol\":3417:3442  i < possibleResult.length */\n      lt\n        /* \"Practical2-RockPaperScissors-Jason.sol\":3401:3608  for(uint i = 0; i < possibleResult.length; i++){... */\n      iszero\n      tag_79\n      jumpi\n        /* \"Practical2-RockPaperScissors-Jason.sol\":3465:3509  compareStrings(possibleResult[i], getResult) */\n      tag_81\n        /* \"Practical2-RockPaperScissors-Jason.sol\":3480:3494  possibleResult */\n      dup3\n        /* \"Practical2-RockPaperScissors-Jason.sol\":3495:3496  i */\n      dup3\n        /* \"Practical2-RockPaperScissors-Jason.sol\":3480:3497  possibleResult[i] */\n      0x03\n      dup2\n      lt\n      tag_82\n      jumpi\n      tag_83\n      tag_84\n      jump\t// in\n    tag_83:\n    tag_82:\n      0x20\n      mul\n      add\n      mload\n        /* \"Practical2-RockPaperScissors-Jason.sol\":3499:3508  getResult */\n      dup6\n        /* \"Practical2-RockPaperScissors-Jason.sol\":3465:3479  compareStrings */\n      tag_65\n        /* \"Practical2-RockPaperScissors-Jason.sol\":3465:3509  compareStrings(possibleResult[i], getResult) */\n      jump\t// in\n    tag_81:\n        /* \"Practical2-RockPaperScissors-Jason.sol\":3462:3581  if(compareStrings(possibleResult[i], getResult)){... */\n      iszero\n      tag_85\n      jumpi\n        /* \"Practical2-RockPaperScissors-Jason.sol\":3542:3543  1 */\n      0x01\n        /* \"Practical2-RockPaperScissors-Jason.sol\":3540:3541  i */\n      dup2\n        /* \"Practical2-RockPaperScissors-Jason.sol\":3540:3543  i+1 */\n      tag_86\n      swap2\n      swap1\n      tag_87\n      jump\t// in\n    tag_86:\n        /* \"Practical2-RockPaperScissors-Jason.sol\":3528:3543  intResult = i+1 */\n      swap3\n      pop\n        /* \"Practical2-RockPaperScissors-Jason.sol\":3561:3566  break */\n      jump(tag_79)\n        /* \"Practical2-RockPaperScissors-Jason.sol\":3462:3581  if(compareStrings(possibleResult[i], getResult)){... */\n    tag_85:\n        /* \"Practical2-RockPaperScissors-Jason.sol\":3444:3447  i++ */\n      dup1\n      dup1\n      tag_88\n      swap1\n      tag_89\n      jump\t// in\n    tag_88:\n      swap2\n      pop\n      pop\n        /* \"Practical2-RockPaperScissors-Jason.sol\":3401:3608  for(uint i = 0; i < possibleResult.length; i++){... */\n      jump(tag_78)\n    tag_79:\n      pop\n        /* \"Practical2-RockPaperScissors-Jason.sol\":3945:3956  guessAnswer */\n      dup5\n        /* \"Practical2-RockPaperScissors-Jason.sol\":3932:3941  intResult */\n      dup3\n        /* \"Practical2-RockPaperScissors-Jason.sol\":3932:3956  intResult == guessAnswer */\n      sub\n        /* \"Practical2-RockPaperScissors-Jason.sol\":3929:4073  if(intResult == guessAnswer){... */\n      tag_90\n      jumpi\n        /* \"Practical2-RockPaperScissors-Jason.sol\":3971:4002  return (\"You guess is correct\") */\n      mload(0x40)\n      dup1\n      0x40\n      add\n      0x40\n      mstore\n      dup1\n      0x14\n      dup2\n      mstore\n      0x20\n      add\n      0x596f7520677565737320697320636f7272656374000000000000000000000000\n      dup2\n      mstore\n      pop\n      swap4\n      pop\n      pop\n      pop\n      pop\n      jump(tag_73)\n        /* \"Practical2-RockPaperScissors-Jason.sol\":3929:4073  if(intResult == guessAnswer){... */\n    tag_90:\n        /* \"Practical2-RockPaperScissors-Jason.sol\":4033:4062  return (\"You guess is wrong\") */\n      mload(0x40)\n      dup1\n      0x40\n      add\n      0x40\n      mstore\n      dup1\n      0x12\n      dup2\n      mstore\n      0x20\n      add\n      0x596f752067756573732069732077726f6e670000000000000000000000000000\n      dup2\n      mstore\n      pop\n      swap4\n      pop\n      pop\n      pop\n      pop\n        /* \"Practical2-RockPaperScissors-Jason.sol\":3091:4079  function guessResult(uint guessAnswer) external returns  (string memory result){... */\n    tag_73:\n      swap2\n      swap1\n      pop\n      jump\t// out\n        /* \"Practical2-RockPaperScissors-Jason.sol\":159:180  uint[] public Options */\n    tag_35:\n      0x01\n      dup2\n      dup2\n      sload\n      dup2\n      lt\n      tag_92\n      jumpi\n      0x00\n      dup1\n      revert\n    tag_92:\n      swap1\n      0x00\n      mstore\n      keccak256(0x00, 0x20)\n      add\n      0x00\n      swap2\n      pop\n      swap1\n      pop\n      sload\n      dup2\n      jump\t// out\n        /* \"Practical2-RockPaperScissors-Jason.sol\":186:212  uint[] public randomNumSet */\n    tag_39:\n      0x02\n      dup2\n      dup2\n      sload\n      dup2\n      lt\n      tag_94\n      jumpi\n      0x00\n      dup1\n      revert\n    tag_94:\n      swap1\n      0x00\n      mstore\n      keccak256(0x00, 0x20)\n      add\n      0x00\n      swap2\n      pop\n      swap1\n      pop\n      sload\n      dup2\n      jump\t// out\n        /* \"Practical2-RockPaperScissors-Jason.sol\":935:3004  function playMutiTimes()  ... */\n    tag_42:\n        /* \"Practical2-RockPaperScissors-Jason.sol\":995:1015  string memory result */\n      0x60\n        /* \"Practical2-RockPaperScissors-Jason.sol\":1072:1084  randomNumSet */\n      0x02\n      0x00\n        /* \"Practical2-RockPaperScissors-Jason.sol\":1065:1084  delete randomNumSet */\n      tag_97\n      swap2\n      swap1\n      tag_98\n      jump\t// in\n    tag_97:\n        /* \"Practical2-RockPaperScissors-Jason.sol\":1105:1106  0 */\n      0x00\n        /* \"Practical2-RockPaperScissors-Jason.sol\":1098:1102  tied */\n      0x06\n        /* \"Practical2-RockPaperScissors-Jason.sol\":1098:1106  tied = 0 */\n      dup2\n      swap1\n      sstore\n      pop\n        /* \"Practical2-RockPaperScissors-Jason.sol\":1132:1133  0 */\n      0x00\n        /* \"Practical2-RockPaperScissors-Jason.sol\":1120:1129  systemWin */\n      0x05\n        /* \"Practical2-RockPaperScissors-Jason.sol\":1120:1133  systemWin = 0 */\n      dup2\n      swap1\n      sstore\n      pop\n        /* \"Practical2-RockPaperScissors-Jason.sol\":1157:1158  0 */\n      0x00\n        /* \"Practical2-RockPaperScissors-Jason.sol\":1147:1154  userWin */\n      0x04\n        /* \"Practical2-RockPaperScissors-Jason.sol\":1147:1158  userWin = 0 */\n      dup2\n      swap1\n      sstore\n      pop\n        /* \"Practical2-RockPaperScissors-Jason.sol\":1222:1228  uint i */\n      0x00\n        /* \"Practical2-RockPaperScissors-Jason.sol\":1218:1367  for(uint i = 0; i < Options.length; i++){... */\n    tag_99:\n        /* \"Practical2-RockPaperScissors-Jason.sol\":1238:1245  Options */\n      0x01\n        /* \"Practical2-RockPaperScissors-Jason.sol\":1238:1252  Options.length */\n      dup1\n      sload\n      swap1\n      pop\n        /* \"Practical2-RockPaperScissors-Jason.sol\":1234:1235  i */\n      dup2\n        /* \"Practical2-RockPaperScissors-Jason.sol\":1234:1252  i < Options.length */\n      lt\n        /* \"Practical2-RockPaperScissors-Jason.sol\":1218:1367  for(uint i = 0; i < Options.length; i++){... */\n      iszero\n      tag_100\n      jumpi\n        /* \"Practical2-RockPaperScissors-Jason.sol\":1276:1288  randomNumSet */\n      0x02\n        /* \"Practical2-RockPaperScissors-Jason.sol\":1294:1311  getRandomNumber() */\n      tag_102\n        /* \"Practical2-RockPaperScissors-Jason.sol\":1294:1309  getRandomNumber */\n      tag_69\n        /* \"Practical2-RockPaperScissors-Jason.sol\":1294:1311  getRandomNumber() */\n      jump\t// in\n    tag_102:\n        /* \"Practical2-RockPaperScissors-Jason.sol\":1276:1312  randomNumSet.push(getRandomNumber()) */\n      swap1\n      dup1\n      0x01\n      dup2\n      sload\n      add\n      dup1\n      dup3\n      sstore\n      dup1\n      swap2\n      pop\n      pop\n      0x01\n      swap1\n      sub\n      swap1\n      0x00\n      mstore\n      keccak256(0x00, 0x20)\n      add\n      0x00\n      swap1\n      swap2\n      swap1\n      swap2\n      swap1\n      swap2\n      pop\n      sstore\n        /* \"Practical2-RockPaperScissors-Jason.sol\":1254:1257  i++ */\n      dup1\n      dup1\n      tag_104\n      swap1\n      tag_89\n      jump\t// in\n    tag_104:\n      swap2\n      pop\n      pop\n        /* \"Practical2-RockPaperScissors-Jason.sol\":1218:1367  for(uint i = 0; i < Options.length; i++){... */\n      jump(tag_99)\n    tag_100:\n      pop\n        /* \"Practical2-RockPaperScissors-Jason.sol\":1431:1437  uint i */\n      0x00\n        /* \"Practical2-RockPaperScissors-Jason.sol\":1427:2697  for(uint i = 0; i < Options.length; i++){... */\n    tag_105:\n        /* \"Practical2-RockPaperScissors-Jason.sol\":1447:1454  Options */\n      0x01\n        /* \"Practical2-RockPaperScissors-Jason.sol\":1447:1461  Options.length */\n      dup1\n      sload\n      swap1\n      pop\n        /* \"Practical2-RockPaperScissors-Jason.sol\":1443:1444  i */\n      dup2\n        /* \"Practical2-RockPaperScissors-Jason.sol\":1443:1461  i < Options.length */\n      lt\n        /* \"Practical2-RockPaperScissors-Jason.sol\":1427:2697  for(uint i = 0; i < Options.length; i++){... */\n      iszero\n      tag_106\n      jumpi\n        /* \"Practical2-RockPaperScissors-Jason.sol\":1503:1515  randomNumSet */\n      0x02\n        /* \"Practical2-RockPaperScissors-Jason.sol\":1516:1517  i */\n      dup2\n        /* \"Practical2-RockPaperScissors-Jason.sol\":1503:1518  randomNumSet[i] */\n      dup2\n      sload\n      dup2\n      lt\n      tag_108\n      jumpi\n      tag_109\n      tag_84\n      jump\t// in\n    tag_109:\n    tag_108:\n      swap1\n      0x00\n      mstore\n      keccak256(0x00, 0x20)\n      add\n      sload\n        /* \"Practical2-RockPaperScissors-Jason.sol\":1489:1496  Options */\n      0x01\n        /* \"Practical2-RockPaperScissors-Jason.sol\":1497:1498  i */\n      dup3\n        /* \"Practical2-RockPaperScissors-Jason.sol\":1489:1499  Options[i] */\n      dup2\n      sload\n      dup2\n      lt\n      tag_111\n      jumpi\n      tag_112\n      tag_84\n      jump\t// in\n    tag_112:\n    tag_111:\n      swap1\n      0x00\n      mstore\n      keccak256(0x00, 0x20)\n      add\n      sload\n        /* \"Practical2-RockPaperScissors-Jason.sol\":1489:1518  Options[i] == randomNumSet[i] */\n      sub\n        /* \"Practical2-RockPaperScissors-Jason.sol\":1485:1598  if (Options[i] == randomNumSet[i]) {... */\n      tag_114\n      jumpi\n        /* \"Practical2-RockPaperScissors-Jason.sol\":1542:1546  tied */\n      0x06\n      0x00\n        /* \"Practical2-RockPaperScissors-Jason.sol\":1542:1548  tied++ */\n      dup2\n      sload\n      dup1\n      swap3\n      swap2\n      swap1\n      tag_115\n      swap1\n      tag_89\n      jump\t// in\n    tag_115:\n      swap2\n      swap1\n      pop\n      sstore\n      pop\n        /* \"Practical2-RockPaperScissors-Jason.sol\":1570:1578  continue */\n      jump(tag_107)\n        /* \"Practical2-RockPaperScissors-Jason.sol\":1485:1598  if (Options[i] == randomNumSet[i]) {... */\n    tag_114:\n        /* \"Practical2-RockPaperScissors-Jason.sol\":1710:1711  1 */\n      0x01\n        /* \"Practical2-RockPaperScissors-Jason.sol\":1696:1703  Options */\n      dup1\n        /* \"Practical2-RockPaperScissors-Jason.sol\":1704:1705  i */\n      dup3\n        /* \"Practical2-RockPaperScissors-Jason.sol\":1696:1706  Options[i] */\n      dup2\n      sload\n      dup2\n      lt\n      tag_116\n      jumpi\n      tag_117\n      tag_84\n      jump\t// in\n    tag_117:\n    tag_116:\n      swap1\n      0x00\n      mstore\n      keccak256(0x00, 0x20)\n      add\n      sload\n        /* \"Practical2-RockPaperScissors-Jason.sol\":1696:1711  Options[i] == 1 */\n      eq\n        /* \"Practical2-RockPaperScissors-Jason.sol\":1696:1735  Options[i] == 1 && randomNumSet[i] == 2 */\n      dup1\n      iszero\n      tag_119\n      jumpi\n      pop\n        /* \"Practical2-RockPaperScissors-Jason.sol\":1734:1735  2 */\n      0x02\n        /* \"Practical2-RockPaperScissors-Jason.sol\":1715:1727  randomNumSet */\n      dup1\n        /* \"Practical2-RockPaperScissors-Jason.sol\":1728:1729  i */\n      dup3\n        /* \"Practical2-RockPaperScissors-Jason.sol\":1715:1730  randomNumSet[i] */\n      dup2\n      sload\n      dup2\n      lt\n      tag_120\n      jumpi\n      tag_121\n      tag_84\n      jump\t// in\n    tag_121:\n    tag_120:\n      swap1\n      0x00\n      mstore\n      keccak256(0x00, 0x20)\n      add\n      sload\n        /* \"Practical2-RockPaperScissors-Jason.sol\":1715:1735  randomNumSet[i] == 2 */\n      eq\n        /* \"Practical2-RockPaperScissors-Jason.sol\":1696:1735  Options[i] == 1 && randomNumSet[i] == 2 */\n    tag_119:\n        /* \"Practical2-RockPaperScissors-Jason.sol\":1695:1801  (Options[i] == 1 && randomNumSet[i] == 2) ||... */\n      dup1\n      tag_123\n      jumpi\n      pop\n        /* \"Practical2-RockPaperScissors-Jason.sol\":1775:1776  3 */\n      0x03\n        /* \"Practical2-RockPaperScissors-Jason.sol\":1761:1768  Options */\n      0x01\n        /* \"Practical2-RockPaperScissors-Jason.sol\":1769:1770  i */\n      dup3\n        /* \"Practical2-RockPaperScissors-Jason.sol\":1761:1771  Options[i] */\n      dup2\n      sload\n      dup2\n      lt\n      tag_124\n      jumpi\n      tag_125\n      tag_84\n      jump\t// in\n    tag_125:\n    tag_124:\n      swap1\n      0x00\n      mstore\n      keccak256(0x00, 0x20)\n      add\n      sload\n        /* \"Practical2-RockPaperScissors-Jason.sol\":1761:1776  Options[i] == 3 */\n      eq\n        /* \"Practical2-RockPaperScissors-Jason.sol\":1761:1800  Options[i] == 3 && randomNumSet[i] == 1 */\n      dup1\n      iszero\n      tag_127\n      jumpi\n      pop\n        /* \"Practical2-RockPaperScissors-Jason.sol\":1799:1800  1 */\n      0x01\n        /* \"Practical2-RockPaperScissors-Jason.sol\":1780:1792  randomNumSet */\n      0x02\n        /* \"Practical2-RockPaperScissors-Jason.sol\":1793:1794  i */\n      dup3\n        /* \"Practical2-RockPaperScissors-Jason.sol\":1780:1795  randomNumSet[i] */\n      dup2\n      sload\n      dup2\n      lt\n      tag_128\n      jumpi\n      tag_129\n      tag_84\n      jump\t// in\n    tag_129:\n    tag_128:\n      swap1\n      0x00\n      mstore\n      keccak256(0x00, 0x20)\n      add\n      sload\n        /* \"Practical2-RockPaperScissors-Jason.sol\":1780:1800  randomNumSet[i] == 1 */\n      eq\n        /* \"Practical2-RockPaperScissors-Jason.sol\":1761:1800  Options[i] == 3 && randomNumSet[i] == 1 */\n    tag_127:\n        /* \"Practical2-RockPaperScissors-Jason.sol\":1695:1801  (Options[i] == 1 && randomNumSet[i] == 2) ||... */\n    tag_123:\n        /* \"Practical2-RockPaperScissors-Jason.sol\":1695:1866  (Options[i] == 1 && randomNumSet[i] == 2) ||... */\n      dup1\n      tag_131\n      jumpi\n      pop\n        /* \"Practical2-RockPaperScissors-Jason.sol\":1840:1841  2 */\n      0x02\n        /* \"Practical2-RockPaperScissors-Jason.sol\":1826:1833  Options */\n      0x01\n        /* \"Practical2-RockPaperScissors-Jason.sol\":1834:1835  i */\n      dup3\n        /* \"Practical2-RockPaperScissors-Jason.sol\":1826:1836  Options[i] */\n      dup2\n      sload\n      dup2\n      lt\n      tag_132\n      jumpi\n      tag_133\n      tag_84\n      jump\t// in\n    tag_133:\n    tag_132:\n      swap1\n      0x00\n      mstore\n      keccak256(0x00, 0x20)\n      add\n      sload\n        /* \"Practical2-RockPaperScissors-Jason.sol\":1826:1841  Options[i] == 2 */\n      eq\n        /* \"Practical2-RockPaperScissors-Jason.sol\":1826:1865  Options[i] == 2 && randomNumSet[i] == 3 */\n      dup1\n      iszero\n      tag_135\n      jumpi\n      pop\n        /* \"Practical2-RockPaperScissors-Jason.sol\":1864:1865  3 */\n      0x03\n        /* \"Practical2-RockPaperScissors-Jason.sol\":1845:1857  randomNumSet */\n      0x02\n        /* \"Practical2-RockPaperScissors-Jason.sol\":1858:1859  i */\n      dup3\n        /* \"Practical2-RockPaperScissors-Jason.sol\":1845:1860  randomNumSet[i] */\n      dup2\n      sload\n      dup2\n      lt\n      tag_136\n      jumpi\n      tag_137\n      tag_84\n      jump\t// in\n    tag_137:\n    tag_136:\n      swap1\n      0x00\n      mstore\n      keccak256(0x00, 0x20)\n      add\n      sload\n        /* \"Practical2-RockPaperScissors-Jason.sol\":1845:1865  randomNumSet[i] == 3 */\n      eq\n        /* \"Practical2-RockPaperScissors-Jason.sol\":1826:1865  Options[i] == 2 && randomNumSet[i] == 3 */\n    tag_135:\n        /* \"Practical2-RockPaperScissors-Jason.sol\":1695:1866  (Options[i] == 1 && randomNumSet[i] == 2) ||... */\n    tag_131:\n        /* \"Practical2-RockPaperScissors-Jason.sol\":1615:1992  if (... */\n      iszero\n      tag_139\n      jumpi\n        /* \"Practical2-RockPaperScissors-Jason.sol\":1906:1915  systemWin */\n      0x05\n      0x00\n        /* \"Practical2-RockPaperScissors-Jason.sol\":1906:1917  systemWin++ */\n      dup2\n      sload\n      dup1\n      swap3\n      swap2\n      swap1\n      tag_140\n      swap1\n      tag_89\n      jump\t// in\n    tag_140:\n      swap2\n      swap1\n      pop\n      sstore\n      pop\n        /* \"Practical2-RockPaperScissors-Jason.sol\":1615:1992  if (... */\n      jump(tag_141)\n    tag_139:\n        /* \"Practical2-RockPaperScissors-Jason.sol\":1964:1971  userWin */\n      0x04\n      0x00\n        /* \"Practical2-RockPaperScissors-Jason.sol\":1964:1973  userWin++ */\n      dup2\n      sload\n      dup1\n      swap3\n      swap2\n      swap1\n      tag_142\n      swap1\n      tag_89\n      jump\t// in\n    tag_142:\n      swap2\n      swap1\n      pop\n      sstore\n      pop\n        /* \"Practical2-RockPaperScissors-Jason.sol\":1615:1992  if (... */\n    tag_141:\n        /* \"Practical2-RockPaperScissors-Jason.sol\":2257:2266  systemWin */\n      sload(0x05)\n        /* \"Practical2-RockPaperScissors-Jason.sol\":2247:2254  userWin */\n      sload(0x04)\n        /* \"Practical2-RockPaperScissors-Jason.sol\":2247:2266  userWin > systemWin */\n      gt\n        /* \"Practical2-RockPaperScissors-Jason.sol\":2244:2682  if(userWin > systemWin){... */\n      iszero\n      tag_143\n      jumpi\n        /* \"Practical2-RockPaperScissors-Jason.sol\":2349:2365  uint winTimeRate */\n      0x00\n        /* \"Practical2-RockPaperScissors-Jason.sol\":2382:2389  Options */\n      0x01\n        /* \"Practical2-RockPaperScissors-Jason.sol\":2382:2396  Options.length */\n      dup1\n      sload\n      swap1\n      pop\n        /* \"Practical2-RockPaperScissors-Jason.sol\":2377:2380  100 */\n      0x64\n        /* \"Practical2-RockPaperScissors-Jason.sol\":2369:2376  userWin */\n      sload(0x04)\n        /* \"Practical2-RockPaperScissors-Jason.sol\":2369:2380  userWin*100 */\n      tag_144\n      swap2\n      swap1\n      tag_145\n      jump\t// in\n    tag_144:\n        /* \"Practical2-RockPaperScissors-Jason.sol\":2368:2396  (userWin*100)/Options.length */\n      tag_146\n      swap2\n      swap1\n      tag_147\n      jump\t// in\n    tag_146:\n        /* \"Practical2-RockPaperScissors-Jason.sol\":2349:2396  uint winTimeRate = (userWin*100)/Options.length */\n      swap1\n      pop\n        /* \"Practical2-RockPaperScissors-Jason.sol\":2435:2437  50 */\n      0x32\n        /* \"Practical2-RockPaperScissors-Jason.sol\":2421:2432  winTimeRate */\n      dup2\n        /* \"Practical2-RockPaperScissors-Jason.sol\":2421:2437  winTimeRate > 50 */\n      gt\n        /* \"Practical2-RockPaperScissors-Jason.sol\":2418:2481  if(winTimeRate > 50)... */\n      iszero\n      tag_148\n      jumpi\n        /* \"Practical2-RockPaperScissors-Jason.sol\":2463:2481  return (\"You Win\") */\n      mload(0x40)\n      dup1\n      0x40\n      add\n      0x40\n      mstore\n      dup1\n      0x07\n      dup2\n      mstore\n      0x20\n      add\n      0x596f752057696e00000000000000000000000000000000000000000000000000\n      dup2\n      mstore\n      pop\n      swap3\n      pop\n      pop\n      pop\n      jump(tag_96)\n        /* \"Practical2-RockPaperScissors-Jason.sol\":2418:2481  if(winTimeRate > 50)... */\n    tag_148:\n        /* \"Practical2-RockPaperScissors-Jason.sol\":2267:2500  {... */\n      pop\n        /* \"Practical2-RockPaperScissors-Jason.sol\":2244:2682  if(userWin > systemWin){... */\n      jump(tag_149)\n    tag_143:\n        /* \"Practical2-RockPaperScissors-Jason.sol\":2528:2544  uint winTimeRate */\n      0x00\n        /* \"Practical2-RockPaperScissors-Jason.sol\":2563:2570  Options */\n      0x01\n        /* \"Practical2-RockPaperScissors-Jason.sol\":2563:2577  Options.length */\n      dup1\n      sload\n      swap1\n      pop\n        /* \"Practical2-RockPaperScissors-Jason.sol\":2558:2561  100 */\n      0x64\n        /* \"Practical2-RockPaperScissors-Jason.sol\":2548:2557  systemWin */\n      sload(0x05)\n        /* \"Practical2-RockPaperScissors-Jason.sol\":2548:2561  systemWin*100 */\n      tag_150\n      swap2\n      swap1\n      tag_145\n      jump\t// in\n    tag_150:\n        /* \"Practical2-RockPaperScissors-Jason.sol\":2547:2577  (systemWin*100)/Options.length */\n      tag_151\n      swap2\n      swap1\n      tag_147\n      jump\t// in\n    tag_151:\n        /* \"Practical2-RockPaperScissors-Jason.sol\":2528:2577  uint winTimeRate = (systemWin*100)/Options.length */\n      swap1\n      pop\n        /* \"Practical2-RockPaperScissors-Jason.sol\":2616:2618  50 */\n      0x32\n        /* \"Practical2-RockPaperScissors-Jason.sol\":2602:2613  winTimeRate */\n      dup2\n        /* \"Practical2-RockPaperScissors-Jason.sol\":2602:2618  winTimeRate > 50 */\n      gt\n        /* \"Practical2-RockPaperScissors-Jason.sol\":2599:2663  if(winTimeRate > 50)... */\n      iszero\n      tag_152\n      jumpi\n        /* \"Practical2-RockPaperScissors-Jason.sol\":2644:2663  return (\"You Lose\") */\n      mload(0x40)\n      dup1\n      0x40\n      add\n      0x40\n      mstore\n      dup1\n      0x08\n      dup2\n      mstore\n      0x20\n      add\n      0x596f75204c6f7365000000000000000000000000000000000000000000000000\n      dup2\n      mstore\n      pop\n      swap3\n      pop\n      pop\n      pop\n      jump(tag_96)\n        /* \"Practical2-RockPaperScissors-Jason.sol\":2599:2663  if(winTimeRate > 50)... */\n    tag_152:\n        /* \"Practical2-RockPaperScissors-Jason.sol\":2506:2682  {... */\n      pop\n        /* \"Practical2-RockPaperScissors-Jason.sol\":2244:2682  if(userWin > systemWin){... */\n    tag_149:\n        /* \"Practical2-RockPaperScissors-Jason.sol\":1427:2697  for(uint i = 0; i < Options.length; i++){... */\n    tag_107:\n        /* \"Practical2-RockPaperScissors-Jason.sol\":1463:1466  i++ */\n      dup1\n      dup1\n      tag_153\n      swap1\n      tag_89\n      jump\t// in\n    tag_153:\n      swap2\n      pop\n      pop\n        /* \"Practical2-RockPaperScissors-Jason.sol\":1427:2697  for(uint i = 0; i < Options.length; i++){... */\n      jump(tag_105)\n    tag_106:\n      pop\n        /* \"Practical2-RockPaperScissors-Jason.sol\":2754:2763  systemWin */\n      sload(0x05)\n        /* \"Practical2-RockPaperScissors-Jason.sol\":2743:2750  userWin */\n      sload(0x04)\n        /* \"Practical2-RockPaperScissors-Jason.sol\":2743:2763  userWin == systemWin */\n      sub\n        /* \"Practical2-RockPaperScissors-Jason.sol\":2740:2796  if(userWin == systemWin)... */\n      tag_154\n      jumpi\n        /* \"Practical2-RockPaperScissors-Jason.sol\":2781:2796  return (\"Tied\") */\n      mload(0x40)\n      dup1\n      0x40\n      add\n      0x40\n      mstore\n      dup1\n      0x04\n      dup2\n      mstore\n      0x20\n      add\n      0x5469656400000000000000000000000000000000000000000000000000000000\n      dup2\n      mstore\n      pop\n      swap1\n      pop\n      jump(tag_96)\n        /* \"Practical2-RockPaperScissors-Jason.sol\":2740:2796  if(userWin == systemWin)... */\n    tag_154:\n        /* \"Practical2-RockPaperScissors-Jason.sol\":935:3004  function playMutiTimes()  ... */\n    tag_96:\n      swap1\n      jump\t// out\n        /* \"Practical2-RockPaperScissors-Jason.sol\":437:692  function enterOption(uint256 userInput) external returns (uint[] memory result){... */\n    tag_46:\n        /* \"Practical2-RockPaperScissors-Jason.sol\":495:515  uint[] memory result */\n      0x60\n        /* \"Practical2-RockPaperScissors-Jason.sol\":547:548  3 */\n      0x03\n        /* \"Practical2-RockPaperScissors-Jason.sol\":534:543  userInput */\n      dup3\n        /* \"Practical2-RockPaperScissors-Jason.sol\":534:548  userInput <= 3 */\n      gt\n      iszero\n        /* \"Practical2-RockPaperScissors-Jason.sol\":526:583  require(userInput <= 3, \"Error: Can't input more than 3\") */\n      tag_156\n      jumpi\n      mload(0x40)\n      0x08c379a000000000000000000000000000000000000000000000000000000000\n      dup2\n      mstore\n      0x04\n      add\n      tag_157\n      swap1\n      tag_76\n      jump\t// in\n    tag_157:\n      mload(0x40)\n      dup1\n      swap2\n      sub\n      swap1\n      revert\n    tag_156:\n        /* \"Practical2-RockPaperScissors-Jason.sol\":593:600  Options */\n      0x01\n        /* \"Practical2-RockPaperScissors-Jason.sol\":606:615  userInput */\n      dup3\n        /* \"Practical2-RockPaperScissors-Jason.sol\":593:616  Options.push(userInput) */\n      swap1\n      dup1\n      0x01\n      dup2\n      sload\n      add\n      dup1\n      dup3\n      sstore\n      dup1\n      swap2\n      pop\n      pop\n      0x01\n      swap1\n      sub\n      swap1\n      0x00\n      mstore\n      keccak256(0x00, 0x20)\n      add\n      0x00\n      swap1\n      swap2\n      swap1\n      swap2\n      swap1\n      swap2\n      pop\n      sstore\n        /* \"Practical2-RockPaperScissors-Jason.sol\":677:684  Options */\n      0x01\n        /* \"Practical2-RockPaperScissors-Jason.sol\":669:685  return (Options) */\n      dup1\n      sload\n      dup1\n      0x20\n      mul\n      0x20\n      add\n      mload(0x40)\n      swap1\n      dup2\n      add\n      0x40\n      mstore\n      dup1\n      swap3\n      swap2\n      swap1\n      dup2\n      dup2\n      mstore\n      0x20\n      add\n      dup3\n      dup1\n      sload\n      dup1\n      iszero\n      tag_159\n      jumpi\n      0x20\n      mul\n      dup3\n      add\n      swap2\n      swap1\n      0x00\n      mstore\n      keccak256(0x00, 0x20)\n      swap1\n    tag_160:\n      dup2\n      sload\n      dup2\n      mstore\n      0x20\n      add\n      swap1\n      0x01\n      add\n      swap1\n      dup1\n      dup4\n      gt\n      tag_160\n      jumpi\n    tag_159:\n      pop\n      pop\n      pop\n      pop\n      pop\n      swap1\n      pop\n        /* \"Practical2-RockPaperScissors-Jason.sol\":437:692  function enterOption(uint256 userInput) external returns (uint[] memory result){... */\n      swap2\n      swap1\n      pop\n      jump\t// out\n        /* \"Practical2-RockPaperScissors-Jason.sol\":4498:5127  function play(uint256 option) ... */\n    tag_51:\n        /* \"Practical2-RockPaperScissors-Jason.sol\":4564:4584  string memory result */\n      0x60\n        /* \"Practical2-RockPaperScissors-Jason.sol\":4596:4616  uint256 randomChoice */\n      0x00\n        /* \"Practical2-RockPaperScissors-Jason.sol\":4619:4636  getRandomNumber() */\n      tag_162\n        /* \"Practical2-RockPaperScissors-Jason.sol\":4619:4634  getRandomNumber */\n      tag_69\n        /* \"Practical2-RockPaperScissors-Jason.sol\":4619:4636  getRandomNumber() */\n      jump\t// in\n    tag_162:\n        /* \"Practical2-RockPaperScissors-Jason.sol\":4596:4636  uint256 randomChoice = getRandomNumber() */\n      swap1\n      pop\n        /* \"Practical2-RockPaperScissors-Jason.sol\":4659:4671  randomChoice */\n      dup1\n        /* \"Practical2-RockPaperScissors-Jason.sol\":4646:4656  lastChoice */\n      0x00\n        /* \"Practical2-RockPaperScissors-Jason.sol\":4646:4671  lastChoice = randomChoice */\n      dup2\n      swap1\n      sstore\n      pop\n        /* \"Practical2-RockPaperScissors-Jason.sol\":4700:4701  3 */\n      0x03\n        /* \"Practical2-RockPaperScissors-Jason.sol\":4690:4696  option */\n      dup4\n        /* \"Practical2-RockPaperScissors-Jason.sol\":4690:4701  option <= 3 */\n      gt\n      iszero\n        /* \"Practical2-RockPaperScissors-Jason.sol\":4682:4736  require(option <= 3, \"Error: Can't input more than 3\") */\n      tag_163\n      jumpi\n      mload(0x40)\n      0x08c379a000000000000000000000000000000000000000000000000000000000\n      dup2\n      mstore\n      0x04\n      add\n      tag_164\n      swap1\n      tag_76\n      jump\t// in\n    tag_164:\n      mload(0x40)\n      dup1\n      swap2\n      sub\n      swap1\n      revert\n    tag_163:\n        /* \"Practical2-RockPaperScissors-Jason.sol\":4803:4815  randomChoice */\n      dup1\n        /* \"Practical2-RockPaperScissors-Jason.sol\":4793:4799  option */\n      dup4\n        /* \"Practical2-RockPaperScissors-Jason.sol\":4793:4815  option == randomChoice */\n      sub\n        /* \"Practical2-RockPaperScissors-Jason.sol\":4789:4857  if (option == randomChoice) {... */\n      tag_165\n      jumpi\n        /* \"Practical2-RockPaperScissors-Jason.sol\":4831:4846  return (\"Tied\") */\n      mload(0x40)\n      dup1\n      0x40\n      add\n      0x40\n      mstore\n      dup1\n      0x04\n      dup2\n      mstore\n      0x20\n      add\n      0x5469656400000000000000000000000000000000000000000000000000000000\n      dup2\n      mstore\n      pop\n      swap2\n      pop\n      pop\n      jump(tag_161)\n        /* \"Practical2-RockPaperScissors-Jason.sol\":4789:4857  if (option == randomChoice) {... */\n    tag_165:\n        /* \"Practical2-RockPaperScissors-Jason.sol\":4894:4895  1 */\n      0x01\n        /* \"Practical2-RockPaperScissors-Jason.sol\":4884:4890  option */\n      dup4\n        /* \"Practical2-RockPaperScissors-Jason.sol\":4884:4895  option == 1 */\n      eq\n        /* \"Practical2-RockPaperScissors-Jason.sol\":4884:4916  option == 1 && randomChoice == 2 */\n      dup1\n      iszero\n      tag_166\n      jumpi\n      pop\n        /* \"Practical2-RockPaperScissors-Jason.sol\":4915:4916  2 */\n      0x02\n        /* \"Practical2-RockPaperScissors-Jason.sol\":4899:4911  randomChoice */\n      dup2\n        /* \"Practical2-RockPaperScissors-Jason.sol\":4899:4916  randomChoice == 2 */\n      eq\n        /* \"Practical2-RockPaperScissors-Jason.sol\":4884:4916  option == 1 && randomChoice == 2 */\n    tag_166:\n        /* \"Practical2-RockPaperScissors-Jason.sol\":4883:4967  (option == 1 && randomChoice == 2) ||... */\n      dup1\n      tag_167\n      jumpi\n      pop\n        /* \"Practical2-RockPaperScissors-Jason.sol\":4944:4945  3 */\n      0x03\n        /* \"Practical2-RockPaperScissors-Jason.sol\":4934:4940  option */\n      dup4\n        /* \"Practical2-RockPaperScissors-Jason.sol\":4934:4945  option == 3 */\n      eq\n        /* \"Practical2-RockPaperScissors-Jason.sol\":4934:4966  option == 3 && randomChoice == 1 */\n      dup1\n      iszero\n      tag_168\n      jumpi\n      pop\n        /* \"Practical2-RockPaperScissors-Jason.sol\":4965:4966  1 */\n      0x01\n        /* \"Practical2-RockPaperScissors-Jason.sol\":4949:4961  randomChoice */\n      dup2\n        /* \"Practical2-RockPaperScissors-Jason.sol\":4949:4966  randomChoice == 1 */\n      eq\n        /* \"Practical2-RockPaperScissors-Jason.sol\":4934:4966  option == 3 && randomChoice == 1 */\n    tag_168:\n        /* \"Practical2-RockPaperScissors-Jason.sol\":4883:4967  (option == 1 && randomChoice == 2) ||... */\n    tag_167:\n        /* \"Practical2-RockPaperScissors-Jason.sol\":4883:5017  (option == 1 && randomChoice == 2) ||... */\n      dup1\n      tag_169\n      jumpi\n      pop\n        /* \"Practical2-RockPaperScissors-Jason.sol\":4994:4995  2 */\n      0x02\n        /* \"Practical2-RockPaperScissors-Jason.sol\":4984:4990  option */\n      dup4\n        /* \"Practical2-RockPaperScissors-Jason.sol\":4984:4995  option == 2 */\n      eq\n        /* \"Practical2-RockPaperScissors-Jason.sol\":4984:5016  option == 2 && randomChoice == 3 */\n      dup1\n      iszero\n      tag_170\n      jumpi\n      pop\n        /* \"Practical2-RockPaperScissors-Jason.sol\":5015:5016  3 */\n      0x03\n        /* \"Practical2-RockPaperScissors-Jason.sol\":4999:5011  randomChoice */\n      dup2\n        /* \"Practical2-RockPaperScissors-Jason.sol\":4999:5016  randomChoice == 3 */\n      eq\n        /* \"Practical2-RockPaperScissors-Jason.sol\":4984:5016  option == 2 && randomChoice == 3 */\n    tag_170:\n        /* \"Practical2-RockPaperScissors-Jason.sol\":4883:5017  (option == 1 && randomChoice == 2) ||... */\n    tag_169:\n        /* \"Practical2-RockPaperScissors-Jason.sol\":4866:5121  if (... */\n      iszero\n      tag_171\n      jumpi\n        /* \"Practical2-RockPaperScissors-Jason.sol\":5042:5061  return (\"You lose\") */\n      mload(0x40)\n      dup1\n      0x40\n      add\n      0x40\n      mstore\n      dup1\n      0x08\n      dup2\n      mstore\n      0x20\n      add\n      0x596f75206c6f7365000000000000000000000000000000000000000000000000\n      dup2\n      mstore\n      pop\n      swap2\n      pop\n      pop\n      jump(tag_161)\n        /* \"Practical2-RockPaperScissors-Jason.sol\":4866:5121  if (... */\n    tag_171:\n        /* \"Practical2-RockPaperScissors-Jason.sol\":5092:5110  return (\"You won\") */\n      mload(0x40)\n      dup1\n      0x40\n      add\n      0x40\n      mstore\n      dup1\n      0x07\n      dup2\n      mstore\n      0x20\n      add\n      0x596f7520776f6e00000000000000000000000000000000000000000000000000\n      dup2\n      mstore\n      pop\n      swap2\n      pop\n      pop\n        /* \"Practical2-RockPaperScissors-Jason.sol\":4498:5127  function play(uint256 option) ... */\n    tag_161:\n      swap2\n      swap1\n      pop\n      jump\t// out\n        /* \"Practical2-RockPaperScissors-Jason.sol\":751:858  function getRandomSet () external view returns (uint[] memory result){... */\n    tag_54:\n        /* \"Practical2-RockPaperScissors-Jason.sol\":799:819  uint[] memory result */\n      0x60\n        /* \"Practical2-RockPaperScissors-Jason.sol\":838:850  randomNumSet */\n      0x02\n        /* \"Practical2-RockPaperScissors-Jason.sol\":830:851  return (randomNumSet) */\n      dup1\n      sload\n      dup1\n      0x20\n      mul\n      0x20\n      add\n      mload(0x40)\n      swap1\n      dup2\n      add\n      0x40\n      mstore\n      dup1\n      swap3\n      swap2\n      swap1\n      dup2\n      dup2\n      mstore\n      0x20\n      add\n      dup3\n      dup1\n      sload\n      dup1\n      iszero\n      tag_174\n      jumpi\n      0x20\n      mul\n      dup3\n      add\n      swap2\n      swap1\n      0x00\n      mstore\n      keccak256(0x00, 0x20)\n      swap1\n    tag_175:\n      dup2\n      sload\n      dup2\n      mstore\n      0x20\n      add\n      swap1\n      0x01\n      add\n      swap1\n      dup1\n      dup4\n      gt\n      tag_175\n      jumpi\n    tag_174:\n      pop\n      pop\n      pop\n      pop\n      pop\n      swap1\n      pop\n        /* \"Practical2-RockPaperScissors-Jason.sol\":751:858  function getRandomSet () external view returns (uint[] memory result){... */\n      swap1\n      jump\t// out\n        /* \"Practical2-RockPaperScissors-Jason.sol\":289:305  uint public tied */\n    tag_57:\n      sload(0x06)\n      dup2\n      jump\t// out\n        /* \"Practical2-RockPaperScissors-Jason.sol\":237:256  uint public userWin */\n    tag_60:\n      sload(0x04)\n      dup2\n      jump\t// out\n        /* \"Practical2-RockPaperScissors-Jason.sol\":4134:4378  function compareStrings(string memory a, string memory b) public pure returns (bool) {... */\n    tag_65:\n        /* \"Practical2-RockPaperScissors-Jason.sol\":4213:4217  bool */\n      0x00\n        /* \"Practical2-RockPaperScissors-Jason.sol\":4368:4369  b */\n      dup2\n        /* \"Practical2-RockPaperScissors-Jason.sol\":4351:4370  abi.encodePacked(b) */\n      add(0x20, mload(0x40))\n      tag_177\n      swap2\n      swap1\n      tag_178\n      jump\t// in\n    tag_177:\n      mload(0x40)\n      0x20\n      dup2\n      dup4\n      sub\n      sub\n      dup2\n      mstore\n      swap1\n      0x40\n      mstore\n        /* \"Practical2-RockPaperScissors-Jason.sol\":4341:4371  keccak256(abi.encodePacked(b)) */\n      dup1\n      mload\n      swap1\n      0x20\n      add\n      keccak256\n        /* \"Practical2-RockPaperScissors-Jason.sol\":4334:4335  a */\n      dup4\n        /* \"Practical2-RockPaperScissors-Jason.sol\":4317:4336  abi.encodePacked(a) */\n      add(0x20, mload(0x40))\n      tag_179\n      swap2\n      swap1\n      tag_178\n      jump\t// in\n    tag_179:\n      mload(0x40)\n      0x20\n      dup2\n      dup4\n      sub\n      sub\n      dup2\n      mstore\n      swap1\n      0x40\n      mstore\n        /* \"Practical2-RockPaperScissors-Jason.sol\":4307:4337  keccak256(abi.encodePacked(a)) */\n      dup1\n      mload\n      swap1\n      0x20\n      add\n      keccak256\n        /* \"Practical2-RockPaperScissors-Jason.sol\":4307:4371  keccak256(abi.encodePacked(a)) == keccak256(abi.encodePacked(b)) */\n      eq\n        /* \"Practical2-RockPaperScissors-Jason.sol\":4300:4371  return keccak256(abi.encodePacked(a)) == keccak256(abi.encodePacked(b)) */\n      swap1\n      pop\n        /* \"Practical2-RockPaperScissors-Jason.sol\":4134:4378  function compareStrings(string memory a, string memory b) public pure returns (bool) {... */\n      swap3\n      swap2\n      pop\n      pop\n      jump\t// out\n        /* \"Practical2-RockPaperScissors-Jason.sol\":5133:5742  function getRandomNumber() public returns (uint256) {... */\n    tag_69:\n        /* \"Practical2-RockPaperScissors-Jason.sol\":5176:5183  uint256 */\n      0x00\n        /* \"Practical2-RockPaperScissors-Jason.sol\":5377:5389  uint256 seed */\n      dup1\n        /* \"Practical2-RockPaperScissors-Jason.sol\":5427:5442  block.timestamp */\n      timestamp\n        /* \"Practical2-RockPaperScissors-Jason.sol\":5444:5460  block.difficulty */\n      prevrandao\n        /* \"Practical2-RockPaperScissors-Jason.sol\":5487:5488  1 */\n      0x01\n        /* \"Practical2-RockPaperScissors-Jason.sol\":5472:5484  block.number */\n      number\n        /* \"Practical2-RockPaperScissors-Jason.sol\":5472:5488  block.number - 1 */\n      tag_181\n      swap2\n      swap1\n      tag_182\n      jump\t// in\n    tag_181:\n        /* \"Practical2-RockPaperScissors-Jason.sol\":5462:5489  blockhash(block.number - 1) */\n      blockhash\n        /* \"Practical2-RockPaperScissors-Jason.sol\":5410:5490  abi.encodePacked(block.timestamp, block.difficulty, blockhash(block.number - 1)) */\n      add(0x20, mload(0x40))\n      tag_183\n      swap4\n      swap3\n      swap2\n      swap1\n      tag_184\n      jump\t// in\n    tag_183:\n      mload(0x40)\n      0x20\n      dup2\n      dup4\n      sub\n      sub\n      dup2\n      mstore\n      swap1\n      0x40\n      mstore\n        /* \"Practical2-RockPaperScissors-Jason.sol\":5400:5491  keccak256(abi.encodePacked(block.timestamp, block.difficulty, blockhash(block.number - 1))) */\n      dup1\n      mload\n      swap1\n      0x20\n      add\n      keccak256\n        /* \"Practical2-RockPaperScissors-Jason.sol\":5392:5492  uint256(keccak256(abi.encodePacked(block.timestamp, block.difficulty, blockhash(block.number - 1)))) */\n      0x00\n      shr\n        /* \"Practical2-RockPaperScissors-Jason.sol\":5377:5492  uint256 seed = uint256(keccak256(abi.encodePacked(block.timestamp, block.difficulty, blockhash(block.number - 1)))) */\n      swap1\n      pop\n        /* \"Practical2-RockPaperScissors-Jason.sol\":5569:5584  uint256 random1 */\n      0x00\n        /* \"Practical2-RockPaperScissors-Jason.sol\":5622:5626  seed */\n      dup2\n        /* \"Practical2-RockPaperScissors-Jason.sol\":5628:5632  salt */\n      sload(0x03)\n        /* \"Practical2-RockPaperScissors-Jason.sol\":5605:5633  abi.encodePacked(seed, salt) */\n      add(0x20, mload(0x40))\n      tag_185\n      swap3\n      swap2\n      swap1\n      tag_186\n      jump\t// in\n    tag_185:\n      mload(0x40)\n      0x20\n      dup2\n      dup4\n      sub\n      sub\n      dup2\n      mstore\n      swap1\n      0x40\n      mstore\n        /* \"Practical2-RockPaperScissors-Jason.sol\":5595:5634  keccak256(abi.encodePacked(seed, salt)) */\n      dup1\n      mload\n      swap1\n      0x20\n      add\n      keccak256\n        /* \"Practical2-RockPaperScissors-Jason.sol\":5587:5635  uint256(keccak256(abi.encodePacked(seed, salt))) */\n      0x00\n      shr\n        /* \"Practical2-RockPaperScissors-Jason.sol\":5569:5635  uint256 random1 = uint256(keccak256(abi.encodePacked(seed, salt))) */\n      swap1\n      pop\n        /* \"Practical2-RockPaperScissors-Jason.sol\":5653:5654  1 */\n      0x01\n        /* \"Practical2-RockPaperScissors-Jason.sol\":5645:5649  salt */\n      0x03\n      0x00\n        /* \"Practical2-RockPaperScissors-Jason.sol\":5645:5654  salt += 1 */\n      dup3\n      dup3\n      sload\n      tag_187\n      swap2\n      swap1\n      tag_87\n      jump\t// in\n    tag_187:\n      swap3\n      pop\n      pop\n      dup2\n      swap1\n      sstore\n      pop\n        /* \"Practical2-RockPaperScissors-Jason.sol\":5734:5735  1 */\n      0x01\n        /* \"Practical2-RockPaperScissors-Jason.sol\":5729:5730  3 */\n      0x03\n        /* \"Practical2-RockPaperScissors-Jason.sol\":5719:5726  random1 */\n      dup3\n        /* \"Practical2-RockPaperScissors-Jason.sol\":5719:5730  random1 % 3 */\n      tag_188\n      swap2\n      swap1\n      tag_189\n      jump\t// in\n    tag_188:\n        /* \"Practical2-RockPaperScissors-Jason.sol\":5718:5735  (random1 % 3) + 1 */\n      tag_190\n      swap2\n      swap1\n      tag_87\n      jump\t// in\n    tag_190:\n        /* \"Practical2-RockPaperScissors-Jason.sol\":5711:5735  return (random1 % 3) + 1 */\n      swap3\n      pop\n      pop\n      pop\n        /* \"Practical2-RockPaperScissors-Jason.sol\":5133:5742  function getRandomNumber() public returns (uint256) {... */\n      swap1\n      jump\t// out\n        /* \"Practical2-RockPaperScissors-Jason.sol\":331:392  function cleanAll () external {... */\n    tag_72:\n        /* \"Practical2-RockPaperScissors-Jason.sol\":378:385  Options */\n      0x01\n      0x00\n        /* \"Practical2-RockPaperScissors-Jason.sol\":371:385  delete Options */\n      tag_192\n      swap2\n      swap1\n      tag_98\n      jump\t// in\n    tag_192:\n        /* \"Practical2-RockPaperScissors-Jason.sol\":331:392  function cleanAll () external {... */\n      jump\t// out\n    tag_98:\n      pop\n      dup1\n      sload\n      0x00\n      dup3\n      sstore\n      swap1\n      0x00\n      mstore\n      keccak256(0x00, 0x20)\n      swap1\n      dup2\n      add\n      swap1\n      tag_194\n      swap2\n      swap1\n      tag_195\n      jump\t// in\n    tag_194:\n      pop\n      jump\t// out\n    tag_195:\n    tag_196:\n      dup1\n      dup3\n      gt\n      iszero\n      tag_197\n      jumpi\n      0x00\n      dup2\n      0x00\n      swap1\n      sstore\n      pop\n      0x01\n      add\n      jump(tag_196)\n    tag_197:\n      pop\n      swap1\n      jump\t// out\n        /* \"#utility.yul\":7:84   */\n    tag_198:\n        /* \"#utility.yul\":44:51   */\n      0x00\n        /* \"#utility.yul\":73:78   */\n      dup2\n        /* \"#utility.yul\":62:78   */\n      swap1\n      pop\n        /* \"#utility.yul\":7:84   */\n      swap2\n      swap1\n      pop\n      jump\t// out\n        /* \"#utility.yul\":90:208   */\n    tag_199:\n        /* \"#utility.yul\":177:201   */\n      tag_242\n        /* \"#utility.yul\":195:200   */\n      dup2\n        /* \"#utility.yul\":177:201   */\n      tag_198\n      jump\t// in\n    tag_242:\n        /* \"#utility.yul\":172:175   */\n      dup3\n        /* \"#utility.yul\":165:202   */\n      mstore\n        /* \"#utility.yul\":90:208   */\n      pop\n      pop\n      jump\t// out\n        /* \"#utility.yul\":214:436   */\n    tag_23:\n        /* \"#utility.yul\":307:311   */\n      0x00\n        /* \"#utility.yul\":345:347   */\n      0x20\n        /* \"#utility.yul\":334:343   */\n      dup3\n        /* \"#utility.yul\":330:348   */\n      add\n        /* \"#utility.yul\":322:348   */\n      swap1\n      pop\n        /* \"#utility.yul\":358:429   */\n      tag_244\n        /* \"#utility.yul\":426:427   */\n      0x00\n        /* \"#utility.yul\":415:424   */\n      dup4\n        /* \"#utility.yul\":411:428   */\n      add\n        /* \"#utility.yul\":402:408   */\n      dup5\n        /* \"#utility.yul\":358:429   */\n      tag_199\n      jump\t// in\n    tag_244:\n        /* \"#utility.yul\":214:436   */\n      swap3\n      swap2\n      pop\n      pop\n      jump\t// out\n        /* \"#utility.yul\":442:517   */\n    tag_200:\n        /* \"#utility.yul\":475:481   */\n      0x00\n        /* \"#utility.yul\":508:510   */\n      0x40\n        /* \"#utility.yul\":502:511   */\n      mload\n        /* \"#utility.yul\":492:511   */\n      swap1\n      pop\n        /* \"#utility.yul\":442:517   */\n      swap1\n      jump\t// out\n        /* \"#utility.yul\":523:640   */\n    tag_201:\n        /* \"#utility.yul\":632:633   */\n      0x00\n        /* \"#utility.yul\":629:630   */\n      dup1\n        /* \"#utility.yul\":622:634   */\n      revert\n        /* \"#utility.yul\":646:763   */\n    tag_202:\n        /* \"#utility.yul\":755:756   */\n      0x00\n        /* \"#utility.yul\":752:753   */\n      dup1\n        /* \"#utility.yul\":745:757   */\n      revert\n        /* \"#utility.yul\":769:891   */\n    tag_203:\n        /* \"#utility.yul\":842:866   */\n      tag_249\n        /* \"#utility.yul\":860:865   */\n      dup2\n        /* \"#utility.yul\":842:866   */\n      tag_198\n      jump\t// in\n    tag_249:\n        /* \"#utility.yul\":835:840   */\n      dup2\n        /* \"#utility.yul\":832:867   */\n      eq\n        /* \"#utility.yul\":822:885   */\n      tag_250\n      jumpi\n        /* \"#utility.yul\":881:882   */\n      0x00\n        /* \"#utility.yul\":878:879   */\n      dup1\n        /* \"#utility.yul\":871:883   */\n      revert\n        /* \"#utility.yul\":822:885   */\n    tag_250:\n        /* \"#utility.yul\":769:891   */\n      pop\n      jump\t// out\n        /* \"#utility.yul\":897:1036   */\n    tag_204:\n        /* \"#utility.yul\":943:948   */\n      0x00\n        /* \"#utility.yul\":981:987   */\n      dup2\n        /* \"#utility.yul\":968:988   */\n      calldataload\n        /* \"#utility.yul\":959:988   */\n      swap1\n      pop\n        /* \"#utility.yul\":997:1030   */\n      tag_252\n        /* \"#utility.yul\":1024:1029   */\n      dup2\n        /* \"#utility.yul\":997:1030   */\n      tag_203\n      jump\t// in\n    tag_252:\n        /* \"#utility.yul\":897:1036   */\n      swap3\n      swap2\n      pop\n      pop\n      jump\t// out\n        /* \"#utility.yul\":1042:1371   */\n    tag_29:\n        /* \"#utility.yul\":1101:1107   */\n      0x00\n        /* \"#utility.yul\":1150:1152   */\n      0x20\n        /* \"#utility.yul\":1138:1147   */\n      dup3\n        /* \"#utility.yul\":1129:1136   */\n      dup5\n        /* \"#utility.yul\":1125:1148   */\n      sub\n        /* \"#utility.yul\":1121:1153   */\n      slt\n        /* \"#utility.yul\":1118:1237   */\n      iszero\n      tag_254\n      jumpi\n        /* \"#utility.yul\":1156:1235   */\n      tag_255\n      tag_201\n      jump\t// in\n    tag_255:\n        /* \"#utility.yul\":1118:1237   */\n    tag_254:\n        /* \"#utility.yul\":1276:1277   */\n      0x00\n        /* \"#utility.yul\":1301:1354   */\n      tag_256\n        /* \"#utility.yul\":1346:1353   */\n      dup5\n        /* \"#utility.yul\":1337:1343   */\n      dup3\n        /* \"#utility.yul\":1326:1335   */\n      dup6\n        /* \"#utility.yul\":1322:1344   */\n      add\n        /* \"#utility.yul\":1301:1354   */\n      tag_204\n      jump\t// in\n    tag_256:\n        /* \"#utility.yul\":1291:1354   */\n      swap2\n      pop\n        /* \"#utility.yul\":1247:1364   */\n      pop\n        /* \"#utility.yul\":1042:1371   */\n      swap3\n      swap2\n      pop\n      pop\n      jump\t// out\n        /* \"#utility.yul\":1377:1476   */\n    tag_205:\n        /* \"#utility.yul\":1429:1435   */\n      0x00\n        /* \"#utility.yul\":1463:1468   */\n      dup2\n        /* \"#utility.yul\":1457:1469   */\n      mload\n        /* \"#utility.yul\":1447:1469   */\n      swap1\n      pop\n        /* \"#utility.yul\":1377:1476   */\n      swap2\n      swap1\n      pop\n      jump\t// out\n        /* \"#utility.yul\":1482:1651   */\n    tag_206:\n        /* \"#utility.yul\":1566:1577   */\n      0x00\n        /* \"#utility.yul\":1600:1606   */\n      dup3\n        /* \"#utility.yul\":1595:1598   */\n      dup3\n        /* \"#utility.yul\":1588:1607   */\n      mstore\n        /* \"#utility.yul\":1640:1644   */\n      0x20\n        /* \"#utility.yul\":1635:1638   */\n      dup3\n        /* \"#utility.yul\":1631:1645   */\n      add\n        /* \"#utility.yul\":1616:1645   */\n      swap1\n      pop\n        /* \"#utility.yul\":1482:1651   */\n      swap3\n      swap2\n      pop\n      pop\n      jump\t// out\n        /* \"#utility.yul\":1657:1903   */\n    tag_207:\n        /* \"#utility.yul\":1738:1739   */\n      0x00\n        /* \"#utility.yul\":1748:1861   */\n    tag_260:\n        /* \"#utility.yul\":1762:1768   */\n      dup4\n        /* \"#utility.yul\":1759:1760   */\n      dup2\n        /* \"#utility.yul\":1756:1769   */\n      lt\n        /* \"#utility.yul\":1748:1861   */\n      iszero\n      tag_262\n      jumpi\n        /* \"#utility.yul\":1847:1848   */\n      dup1\n        /* \"#utility.yul\":1842:1845   */\n      dup3\n        /* \"#utility.yul\":1838:1849   */\n      add\n        /* \"#utility.yul\":1832:1850   */\n      mload\n        /* \"#utility.yul\":1828:1829   */\n      dup2\n        /* \"#utility.yul\":1823:1826   */\n      dup5\n        /* \"#utility.yul\":1819:1830   */\n      add\n        /* \"#utility.yul\":1812:1851   */\n      mstore\n        /* \"#utility.yul\":1784:1786   */\n      0x20\n        /* \"#utility.yul\":1781:1782   */\n      dup2\n        /* \"#utility.yul\":1777:1787   */\n      add\n        /* \"#utility.yul\":1772:1787   */\n      swap1\n      pop\n        /* \"#utility.yul\":1748:1861   */\n      jump(tag_260)\n    tag_262:\n        /* \"#utility.yul\":1895:1896   */\n      0x00\n        /* \"#utility.yul\":1886:1892   */\n      dup5\n        /* \"#utility.yul\":1881:1884   */\n      dup5\n        /* \"#utility.yul\":1877:1893   */\n      add\n        /* \"#utility.yul\":1870:1897   */\n      mstore\n        /* \"#utility.yul\":1719:1903   */\n      pop\n        /* \"#utility.yul\":1657:1903   */\n      pop\n      pop\n      pop\n      jump\t// out\n        /* \"#utility.yul\":1909:2011   */\n    tag_208:\n        /* \"#utility.yul\":1950:1956   */\n      0x00\n        /* \"#utility.yul\":2001:2003   */\n      0x1f\n        /* \"#utility.yul\":1997:2004   */\n      not\n        /* \"#utility.yul\":1992:1994   */\n      0x1f\n        /* \"#utility.yul\":1985:1990   */\n      dup4\n        /* \"#utility.yul\":1981:1995   */\n      add\n        /* \"#utility.yul\":1977:2005   */\n      and\n        /* \"#utility.yul\":1967:2005   */\n      swap1\n      pop\n        /* \"#utility.yul\":1909:2011   */\n      swap2\n      swap1\n      pop\n      jump\t// out\n        /* \"#utility.yul\":2017:2394   */\n    tag_209:\n        /* \"#utility.yul\":2105:2108   */\n      0x00\n        /* \"#utility.yul\":2133:2172   */\n      tag_265\n        /* \"#utility.yul\":2166:2171   */\n      dup3\n        /* \"#utility.yul\":2133:2172   */\n      tag_205\n      jump\t// in\n    tag_265:\n        /* \"#utility.yul\":2188:2259   */\n      tag_266\n        /* \"#utility.yul\":2252:2258   */\n      dup2\n        /* \"#utility.yul\":2247:2250   */\n      dup6\n        /* \"#utility.yul\":2188:2259   */\n      tag_206\n      jump\t// in\n    tag_266:\n        /* \"#utility.yul\":2181:2259   */\n      swap4\n      pop\n        /* \"#utility.yul\":2268:2333   */\n      tag_267\n        /* \"#utility.yul\":2326:2332   */\n      dup2\n        /* \"#utility.yul\":2321:2324   */\n      dup6\n        /* \"#utility.yul\":2314:2318   */\n      0x20\n        /* \"#utility.yul\":2307:2312   */\n      dup7\n        /* \"#utility.yul\":2303:2319   */\n      add\n        /* \"#utility.yul\":2268:2333   */\n      tag_207\n      jump\t// in\n    tag_267:\n        /* \"#utility.yul\":2358:2387   */\n      tag_268\n        /* \"#utility.yul\":2380:2386   */\n      dup2\n        /* \"#utility.yul\":2358:2387   */\n      tag_208\n      jump\t// in\n    tag_268:\n        /* \"#utility.yul\":2353:2356   */\n      dup5\n        /* \"#utility.yul\":2349:2388   */\n      add\n        /* \"#utility.yul\":2342:2388   */\n      swap2\n      pop\n        /* \"#utility.yul\":2109:2394   */\n      pop\n        /* \"#utility.yul\":2017:2394   */\n      swap3\n      swap2\n      pop\n      pop\n      jump\t// out\n        /* \"#utility.yul\":2400:2713   */\n    tag_32:\n        /* \"#utility.yul\":2513:2517   */\n      0x00\n        /* \"#utility.yul\":2551:2553   */\n      0x20\n        /* \"#utility.yul\":2540:2549   */\n      dup3\n        /* \"#utility.yul\":2536:2554   */\n      add\n        /* \"#utility.yul\":2528:2554   */\n      swap1\n      pop\n        /* \"#utility.yul\":2600:2609   */\n      dup2\n        /* \"#utility.yul\":2594:2598   */\n      dup2\n        /* \"#utility.yul\":2590:2610   */\n      sub\n        /* \"#utility.yul\":2586:2587   */\n      0x00\n        /* \"#utility.yul\":2575:2584   */\n      dup4\n        /* \"#utility.yul\":2571:2588   */\n      add\n        /* \"#utility.yul\":2564:2611   */\n      mstore\n        /* \"#utility.yul\":2628:2706   */\n      tag_270\n        /* \"#utility.yul\":2701:2705   */\n      dup2\n        /* \"#utility.yul\":2692:2698   */\n      dup5\n        /* \"#utility.yul\":2628:2706   */\n      tag_209\n      jump\t// in\n    tag_270:\n        /* \"#utility.yul\":2620:2706   */\n      swap1\n      pop\n        /* \"#utility.yul\":2400:2713   */\n      swap3\n      swap2\n      pop\n      pop\n      jump\t// out\n        /* \"#utility.yul\":2719:2833   */\n    tag_210:\n        /* \"#utility.yul\":2786:2792   */\n      0x00\n        /* \"#utility.yul\":2820:2825   */\n      dup2\n        /* \"#utility.yul\":2814:2826   */\n      mload\n        /* \"#utility.yul\":2804:2826   */\n      swap1\n      pop\n        /* \"#utility.yul\":2719:2833   */\n      swap2\n      swap1\n      pop\n      jump\t// out\n        /* \"#utility.yul\":2839:3023   */\n    tag_211:\n        /* \"#utility.yul\":2938:2949   */\n      0x00\n        /* \"#utility.yul\":2972:2978   */\n      dup3\n        /* \"#utility.yul\":2967:2970   */\n      dup3\n        /* \"#utility.yul\":2960:2979   */\n      mstore\n        /* \"#utility.yul\":3012:3016   */\n      0x20\n        /* \"#utility.yul\":3007:3010   */\n      dup3\n        /* \"#utility.yul\":3003:3017   */\n      add\n        /* \"#utility.yul\":2988:3017   */\n      swap1\n      pop\n        /* \"#utility.yul\":2839:3023   */\n      swap3\n      swap2\n      pop\n      pop\n      jump\t// out\n        /* \"#utility.yul\":3029:3161   */\n    tag_212:\n        /* \"#utility.yul\":3096:3100   */\n      0x00\n        /* \"#utility.yul\":3119:3122   */\n      dup2\n        /* \"#utility.yul\":3111:3122   */\n      swap1\n      pop\n        /* \"#utility.yul\":3149:3153   */\n      0x20\n        /* \"#utility.yul\":3144:3147   */\n      dup3\n        /* \"#utility.yul\":3140:3154   */\n      add\n        /* \"#utility.yul\":3132:3154   */\n      swap1\n      pop\n        /* \"#utility.yul\":3029:3161   */\n      swap2\n      swap1\n      pop\n      jump\t// out\n        /* \"#utility.yul\":3167:3275   */\n    tag_213:\n        /* \"#utility.yul\":3244:3268   */\n      tag_275\n        /* \"#utility.yul\":3262:3267   */\n      dup2\n        /* \"#utility.yul\":3244:3268   */\n      tag_198\n      jump\t// in\n    tag_275:\n        /* \"#utility.yul\":3239:3242   */\n      dup3\n        /* \"#utility.yul\":3232:3269   */\n      mstore\n        /* \"#utility.yul\":3167:3275   */\n      pop\n      pop\n      jump\t// out\n        /* \"#utility.yul\":3281:3460   */\n    tag_214:\n        /* \"#utility.yul\":3350:3360   */\n      0x00\n        /* \"#utility.yul\":3371:3417   */\n      tag_277\n        /* \"#utility.yul\":3413:3416   */\n      dup4\n        /* \"#utility.yul\":3405:3411   */\n      dup4\n        /* \"#utility.yul\":3371:3417   */\n      tag_213\n      jump\t// in\n    tag_277:\n        /* \"#utility.yul\":3449:3453   */\n      0x20\n        /* \"#utility.yul\":3444:3447   */\n      dup4\n        /* \"#utility.yul\":3440:3454   */\n      add\n        /* \"#utility.yul\":3426:3454   */\n      swap1\n      pop\n        /* \"#utility.yul\":3281:3460   */\n      swap3\n      swap2\n      pop\n      pop\n      jump\t// out\n        /* \"#utility.yul\":3466:3579   */\n    tag_215:\n        /* \"#utility.yul\":3536:3540   */\n      0x00\n        /* \"#utility.yul\":3568:3572   */\n      0x20\n        /* \"#utility.yul\":3563:3566   */\n      dup3\n        /* \"#utility.yul\":3559:3573   */\n      add\n        /* \"#utility.yul\":3551:3573   */\n      swap1\n      pop\n        /* \"#utility.yul\":3466:3579   */\n      swap2\n      swap1\n      pop\n      jump\t// out\n        /* \"#utility.yul\":3615:4347   */\n    tag_216:\n        /* \"#utility.yul\":3734:3737   */\n      0x00\n        /* \"#utility.yul\":3763:3817   */\n      tag_280\n        /* \"#utility.yul\":3811:3816   */\n      dup3\n        /* \"#utility.yul\":3763:3817   */\n      tag_210\n      jump\t// in\n    tag_280:\n        /* \"#utility.yul\":3833:3919   */\n      tag_281\n        /* \"#utility.yul\":3912:3918   */\n      dup2\n        /* \"#utility.yul\":3907:3910   */\n      dup6\n        /* \"#utility.yul\":3833:3919   */\n      tag_211\n      jump\t// in\n    tag_281:\n        /* \"#utility.yul\":3826:3919   */\n      swap4\n      pop\n        /* \"#utility.yul\":3943:3999   */\n      tag_282\n        /* \"#utility.yul\":3993:3998   */\n      dup4\n        /* \"#utility.yul\":3943:3999   */\n      tag_212\n      jump\t// in\n    tag_282:\n        /* \"#utility.yul\":4022:4029   */\n      dup1\n        /* \"#utility.yul\":4053:4054   */\n      0x00\n        /* \"#utility.yul\":4038:4322   */\n    tag_283:\n        /* \"#utility.yul\":4063:4069   */\n      dup4\n        /* \"#utility.yul\":4060:4061   */\n      dup2\n        /* \"#utility.yul\":4057:4070   */\n      lt\n        /* \"#utility.yul\":4038:4322   */\n      iszero\n      tag_285\n      jumpi\n        /* \"#utility.yul\":4139:4145   */\n      dup2\n        /* \"#utility.yul\":4133:4146   */\n      mload\n        /* \"#utility.yul\":4166:4229   */\n      tag_286\n        /* \"#utility.yul\":4225:4228   */\n      dup9\n        /* \"#utility.yul\":4210:4223   */\n      dup3\n        /* \"#utility.yul\":4166:4229   */\n      tag_214\n      jump\t// in\n    tag_286:\n        /* \"#utility.yul\":4159:4229   */\n      swap8\n      pop\n        /* \"#utility.yul\":4252:4312   */\n      tag_287\n        /* \"#utility.yul\":4305:4311   */\n      dup4\n        /* \"#utility.yul\":4252:4312   */\n      tag_215\n      jump\t// in\n    tag_287:\n        /* \"#utility.yul\":4242:4312   */\n      swap3\n      pop\n        /* \"#utility.yul\":4098:4322   */\n      pop\n        /* \"#utility.yul\":4085:4086   */\n      0x01\n        /* \"#utility.yul\":4082:4083   */\n      dup2\n        /* \"#utility.yul\":4078:4087   */\n      add\n        /* \"#utility.yul\":4073:4087   */\n      swap1\n      pop\n        /* \"#utility.yul\":4038:4322   */\n      jump(tag_283)\n    tag_285:\n        /* \"#utility.yul\":4042:4056   */\n      pop\n        /* \"#utility.yul\":4338:4341   */\n      dup6\n        /* \"#utility.yul\":4331:4341   */\n      swap4\n      pop\n        /* \"#utility.yul\":3739:4347   */\n      pop\n      pop\n      pop\n        /* \"#utility.yul\":3615:4347   */\n      swap3\n      swap2\n      pop\n      pop\n      jump\t// out\n        /* \"#utility.yul\":4353:4726   */\n    tag_48:\n        /* \"#utility.yul\":4496:4500   */\n      0x00\n        /* \"#utility.yul\":4534:4536   */\n      0x20\n        /* \"#utility.yul\":4523:4532   */\n      dup3\n        /* \"#utility.yul\":4519:4537   */\n      add\n        /* \"#utility.yul\":4511:4537   */\n      swap1\n      pop\n        /* \"#utility.yul\":4583:4592   */\n      dup2\n        /* \"#utility.yul\":4577:4581   */\n      dup2\n        /* \"#utility.yul\":4573:4593   */\n      sub\n        /* \"#utility.yul\":4569:4570   */\n      0x00\n        /* \"#utility.yul\":4558:4567   */\n      dup4\n        /* \"#utility.yul\":4554:4571   */\n      add\n        /* \"#utility.yul\":4547:4594   */\n      mstore\n        /* \"#utility.yul\":4611:4719   */\n      tag_289\n        /* \"#utility.yul\":4714:4718   */\n      dup2\n        /* \"#utility.yul\":4705:4711   */\n      dup5\n        /* \"#utility.yul\":4611:4719   */\n      tag_216\n      jump\t// in\n    tag_289:\n        /* \"#utility.yul\":4603:4719   */\n      swap1\n      pop\n        /* \"#utility.yul\":4353:4726   */\n      swap3\n      swap2\n      pop\n      pop\n      jump\t// out\n        /* \"#utility.yul\":4732:4849   */\n    tag_217:\n        /* \"#utility.yul\":4841:4842   */\n      0x00\n        /* \"#utility.yul\":4838:4839   */\n      dup1\n        /* \"#utility.yul\":4831:4843   */\n      revert\n        /* \"#utility.yul\":4855:4972   */\n    tag_218:\n        /* \"#utility.yul\":4964:4965   */\n      0x00\n        /* \"#utility.yul\":4961:4962   */\n      dup1\n        /* \"#utility.yul\":4954:4966   */\n      revert\n        /* \"#utility.yul\":4978:5158   */\n    tag_219:\n        /* \"#utility.yul\":5026:5103   */\n      0x4e487b7100000000000000000000000000000000000000000000000000000000\n        /* \"#utility.yul\":5023:5024   */\n      0x00\n        /* \"#utility.yul\":5016:5104   */\n      mstore\n        /* \"#utility.yul\":5123:5127   */\n      0x41\n        /* \"#utility.yul\":5120:5121   */\n      0x04\n        /* \"#utility.yul\":5113:5128   */\n      mstore\n        /* \"#utility.yul\":5147:5151   */\n      0x24\n        /* \"#utility.yul\":5144:5145   */\n      0x00\n        /* \"#utility.yul\":5137:5152   */\n      revert\n        /* \"#utility.yul\":5164:5445   */\n    tag_220:\n        /* \"#utility.yul\":5247:5274   */\n      tag_294\n        /* \"#utility.yul\":5269:5273   */\n      dup3\n        /* \"#utility.yul\":5247:5274   */\n      tag_208\n      jump\t// in\n    tag_294:\n        /* \"#utility.yul\":5239:5245   */\n      dup2\n        /* \"#utility.yul\":5235:5275   */\n      add\n        /* \"#utility.yul\":5377:5383   */\n      dup2\n        /* \"#utility.yul\":5365:5375   */\n      dup2\n        /* \"#utility.yul\":5362:5384   */\n      lt\n        /* \"#utility.yul\":5341:5359   */\n      0xffffffffffffffff\n        /* \"#utility.yul\":5329:5339   */\n      dup3\n        /* \"#utility.yul\":5326:5360   */\n      gt\n        /* \"#utility.yul\":5323:5385   */\n      or\n        /* \"#utility.yul\":5320:5408   */\n      iszero\n      tag_295\n      jumpi\n        /* \"#utility.yul\":5388:5406   */\n      tag_296\n      tag_219\n      jump\t// in\n    tag_296:\n        /* \"#utility.yul\":5320:5408   */\n    tag_295:\n        /* \"#utility.yul\":5428:5438   */\n      dup1\n        /* \"#utility.yul\":5424:5426   */\n      0x40\n        /* \"#utility.yul\":5417:5439   */\n      mstore\n        /* \"#utility.yul\":5207:5445   */\n      pop\n        /* \"#utility.yul\":5164:5445   */\n      pop\n      pop\n      jump\t// out\n        /* \"#utility.yul\":5451:5580   */\n    tag_221:\n        /* \"#utility.yul\":5485:5491   */\n      0x00\n        /* \"#utility.yul\":5512:5532   */\n      tag_298\n      tag_200\n      jump\t// in\n    tag_298:\n        /* \"#utility.yul\":5502:5532   */\n      swap1\n      pop\n        /* \"#utility.yul\":5541:5574   */\n      tag_299\n        /* \"#utility.yul\":5569:5573   */\n      dup3\n        /* \"#utility.yul\":5561:5567   */\n      dup3\n        /* \"#utility.yul\":5541:5574   */\n      tag_220\n      jump\t// in\n    tag_299:\n        /* \"#utility.yul\":5451:5580   */\n      swap2\n      swap1\n      pop\n      jump\t// out\n        /* \"#utility.yul\":5586:5894   */\n    tag_222:\n        /* \"#utility.yul\":5648:5652   */\n      0x00\n        /* \"#utility.yul\":5738:5756   */\n      0xffffffffffffffff\n        /* \"#utility.yul\":5730:5736   */\n      dup3\n        /* \"#utility.yul\":5727:5757   */\n      gt\n        /* \"#utility.yul\":5724:5780   */\n      iszero\n      tag_301\n      jumpi\n        /* \"#utility.yul\":5760:5778   */\n      tag_302\n      tag_219\n      jump\t// in\n    tag_302:\n        /* \"#utility.yul\":5724:5780   */\n    tag_301:\n        /* \"#utility.yul\":5798:5827   */\n      tag_303\n        /* \"#utility.yul\":5820:5826   */\n      dup3\n        /* \"#utility.yul\":5798:5827   */\n      tag_208\n      jump\t// in\n    tag_303:\n        /* \"#utility.yul\":5790:5827   */\n      swap1\n      pop\n        /* \"#utility.yul\":5882:5886   */\n      0x20\n        /* \"#utility.yul\":5876:5880   */\n      dup2\n        /* \"#utility.yul\":5872:5887   */\n      add\n        /* \"#utility.yul\":5864:5887   */\n      swap1\n      pop\n        /* \"#utility.yul\":5586:5894   */\n      swap2\n      swap1\n      pop\n      jump\t// out\n        /* \"#utility.yul\":5900:6046   */\n    tag_223:\n        /* \"#utility.yul\":5997:6003   */\n      dup3\n        /* \"#utility.yul\":5992:5995   */\n      dup2\n        /* \"#utility.yul\":5987:5990   */\n      dup4\n        /* \"#utility.yul\":5974:6004   */\n      calldatacopy\n        /* \"#utility.yul\":6038:6039   */\n      0x00\n        /* \"#utility.yul\":6029:6035   */\n      dup4\n        /* \"#utility.yul\":6024:6027   */\n      dup4\n        /* \"#utility.yul\":6020:6036   */\n      add\n        /* \"#utility.yul\":6013:6040   */\n      mstore\n        /* \"#utility.yul\":5900:6046   */\n      pop\n      pop\n      pop\n      jump\t// out\n        /* \"#utility.yul\":6052:6477   */\n    tag_224:\n        /* \"#utility.yul\":6130:6135   */\n      0x00\n        /* \"#utility.yul\":6155:6221   */\n      tag_306\n        /* \"#utility.yul\":6171:6220   */\n      tag_307\n        /* \"#utility.yul\":6213:6219   */\n      dup5\n        /* \"#utility.yul\":6171:6220   */\n      tag_222\n      jump\t// in\n    tag_307:\n        /* \"#utility.yul\":6155:6221   */\n      tag_221\n      jump\t// in\n    tag_306:\n        /* \"#utility.yul\":6146:6221   */\n      swap1\n      pop\n        /* \"#utility.yul\":6244:6250   */\n      dup3\n        /* \"#utility.yul\":6237:6242   */\n      dup2\n        /* \"#utility.yul\":6230:6251   */\n      mstore\n        /* \"#utility.yul\":6282:6286   */\n      0x20\n        /* \"#utility.yul\":6275:6280   */\n      dup2\n        /* \"#utility.yul\":6271:6287   */\n      add\n        /* \"#utility.yul\":6320:6323   */\n      dup5\n        /* \"#utility.yul\":6311:6317   */\n      dup5\n        /* \"#utility.yul\":6306:6309   */\n      dup5\n        /* \"#utility.yul\":6302:6318   */\n      add\n        /* \"#utility.yul\":6299:6324   */\n      gt\n        /* \"#utility.yul\":6296:6408   */\n      iszero\n      tag_308\n      jumpi\n        /* \"#utility.yul\":6327:6406   */\n      tag_309\n      tag_218\n      jump\t// in\n    tag_309:\n        /* \"#utility.yul\":6296:6408   */\n    tag_308:\n        /* \"#utility.yul\":6417:6471   */\n      tag_310\n        /* \"#utility.yul\":6464:6470   */\n      dup5\n        /* \"#utility.yul\":6459:6462   */\n      dup3\n        /* \"#utility.yul\":6454:6457   */\n      dup6\n        /* \"#utility.yul\":6417:6471   */\n      tag_223\n      jump\t// in\n    tag_310:\n        /* \"#utility.yul\":6136:6477   */\n      pop\n        /* \"#utility.yul\":6052:6477   */\n      swap4\n      swap3\n      pop\n      pop\n      pop\n      jump\t// out\n        /* \"#utility.yul\":6497:6837   */\n    tag_225:\n        /* \"#utility.yul\":6553:6558   */\n      0x00\n        /* \"#utility.yul\":6602:6605   */\n      dup3\n        /* \"#utility.yul\":6595:6599   */\n      0x1f\n        /* \"#utility.yul\":6587:6593   */\n      dup4\n        /* \"#utility.yul\":6583:6600   */\n      add\n        /* \"#utility.yul\":6579:6606   */\n      slt\n        /* \"#utility.yul\":6569:6691   */\n      tag_312\n      jumpi\n        /* \"#utility.yul\":6610:6689   */\n      tag_313\n      tag_217\n      jump\t// in\n    tag_313:\n        /* \"#utility.yul\":6569:6691   */\n    tag_312:\n        /* \"#utility.yul\":6727:6733   */\n      dup2\n        /* \"#utility.yul\":6714:6734   */\n      calldataload\n        /* \"#utility.yul\":6752:6831   */\n      tag_314\n        /* \"#utility.yul\":6827:6830   */\n      dup5\n        /* \"#utility.yul\":6819:6825   */\n      dup3\n        /* \"#utility.yul\":6812:6816   */\n      0x20\n        /* \"#utility.yul\":6804:6810   */\n      dup7\n        /* \"#utility.yul\":6800:6817   */\n      add\n        /* \"#utility.yul\":6752:6831   */\n      tag_224\n      jump\t// in\n    tag_314:\n        /* \"#utility.yul\":6743:6831   */\n      swap2\n      pop\n        /* \"#utility.yul\":6559:6837   */\n      pop\n        /* \"#utility.yul\":6497:6837   */\n      swap3\n      swap2\n      pop\n      pop\n      jump\t// out\n        /* \"#utility.yul\":6843:7677   */\n    tag_64:\n        /* \"#utility.yul\":6931:6937   */\n      0x00\n        /* \"#utility.yul\":6939:6945   */\n      dup1\n        /* \"#utility.yul\":6988:6990   */\n      0x40\n        /* \"#utility.yul\":6976:6985   */\n      dup4\n        /* \"#utility.yul\":6967:6974   */\n      dup6\n        /* \"#utility.yul\":6963:6986   */\n      sub\n        /* \"#utility.yul\":6959:6991   */\n      slt\n        /* \"#utility.yul\":6956:7075   */\n      iszero\n      tag_316\n      jumpi\n        /* \"#utility.yul\":6994:7073   */\n      tag_317\n      tag_201\n      jump\t// in\n    tag_317:\n        /* \"#utility.yul\":6956:7075   */\n    tag_316:\n        /* \"#utility.yul\":7142:7143   */\n      0x00\n        /* \"#utility.yul\":7131:7140   */\n      dup4\n        /* \"#utility.yul\":7127:7144   */\n      add\n        /* \"#utility.yul\":7114:7145   */\n      calldataload\n        /* \"#utility.yul\":7172:7190   */\n      0xffffffffffffffff\n        /* \"#utility.yul\":7164:7170   */\n      dup2\n        /* \"#utility.yul\":7161:7191   */\n      gt\n        /* \"#utility.yul\":7158:7275   */\n      iszero\n      tag_318\n      jumpi\n        /* \"#utility.yul\":7194:7273   */\n      tag_319\n      tag_202\n      jump\t// in\n    tag_319:\n        /* \"#utility.yul\":7158:7275   */\n    tag_318:\n        /* \"#utility.yul\":7299:7362   */\n      tag_320\n        /* \"#utility.yul\":7354:7361   */\n      dup6\n        /* \"#utility.yul\":7345:7351   */\n      dup3\n        /* \"#utility.yul\":7334:7343   */\n      dup7\n        /* \"#utility.yul\":7330:7352   */\n      add\n        /* \"#utility.yul\":7299:7362   */\n      tag_225\n      jump\t// in\n    tag_320:\n        /* \"#utility.yul\":7289:7362   */\n      swap3\n      pop\n        /* \"#utility.yul\":7085:7372   */\n      pop\n        /* \"#utility.yul\":7439:7441   */\n      0x20\n        /* \"#utility.yul\":7428:7437   */\n      dup4\n        /* \"#utility.yul\":7424:7442   */\n      add\n        /* \"#utility.yul\":7411:7443   */\n      calldataload\n        /* \"#utility.yul\":7470:7488   */\n      0xffffffffffffffff\n        /* \"#utility.yul\":7462:7468   */\n      dup2\n        /* \"#utility.yul\":7459:7489   */\n      gt\n        /* \"#utility.yul\":7456:7573   */\n      iszero\n      tag_321\n      jumpi\n        /* \"#utility.yul\":7492:7571   */\n      tag_322\n      tag_202\n      jump\t// in\n    tag_322:\n        /* \"#utility.yul\":7456:7573   */\n    tag_321:\n        /* \"#utility.yul\":7597:7660   */\n      tag_323\n        /* \"#utility.yul\":7652:7659   */\n      dup6\n        /* \"#utility.yul\":7643:7649   */\n      dup3\n        /* \"#utility.yul\":7632:7641   */\n      dup7\n        /* \"#utility.yul\":7628:7650   */\n      add\n        /* \"#utility.yul\":7597:7660   */\n      tag_225\n      jump\t// in\n    tag_323:\n        /* \"#utility.yul\":7587:7660   */\n      swap2\n      pop\n        /* \"#utility.yul\":7382:7670   */\n      pop\n        /* \"#utility.yul\":6843:7677   */\n      swap3\n      pop\n      swap3\n      swap1\n      pop\n      jump\t// out\n        /* \"#utility.yul\":7683:7773   */\n    tag_226:\n        /* \"#utility.yul\":7717:7724   */\n      0x00\n        /* \"#utility.yul\":7760:7765   */\n      dup2\n        /* \"#utility.yul\":7753:7766   */\n      iszero\n        /* \"#utility.yul\":7746:7767   */\n      iszero\n        /* \"#utility.yul\":7735:7767   */\n      swap1\n      pop\n        /* \"#utility.yul\":7683:7773   */\n      swap2\n      swap1\n      pop\n      jump\t// out\n        /* \"#utility.yul\":7779:7888   */\n    tag_227:\n        /* \"#utility.yul\":7860:7881   */\n      tag_326\n        /* \"#utility.yul\":7875:7880   */\n      dup2\n        /* \"#utility.yul\":7860:7881   */\n      tag_226\n      jump\t// in\n    tag_326:\n        /* \"#utility.yul\":7855:7858   */\n      dup3\n        /* \"#utility.yul\":7848:7882   */\n      mstore\n        /* \"#utility.yul\":7779:7888   */\n      pop\n      pop\n      jump\t// out\n        /* \"#utility.yul\":7894:8104   */\n    tag_67:\n        /* \"#utility.yul\":7981:7985   */\n      0x00\n        /* \"#utility.yul\":8019:8021   */\n      0x20\n        /* \"#utility.yul\":8008:8017   */\n      dup3\n        /* \"#utility.yul\":8004:8022   */\n      add\n        /* \"#utility.yul\":7996:8022   */\n      swap1\n      pop\n        /* \"#utility.yul\":8032:8097   */\n      tag_328\n        /* \"#utility.yul\":8094:8095   */\n      0x00\n        /* \"#utility.yul\":8083:8092   */\n      dup4\n        /* \"#utility.yul\":8079:8096   */\n      add\n        /* \"#utility.yul\":8070:8076   */\n      dup5\n        /* \"#utility.yul\":8032:8097   */\n      tag_227\n      jump\t// in\n    tag_328:\n        /* \"#utility.yul\":7894:8104   */\n      swap3\n      swap2\n      pop\n      pop\n      jump\t// out\n        /* \"#utility.yul\":8110:8290   */\n    tag_228:\n        /* \"#utility.yul\":8250:8282   */\n      0x4572726f723a2043616e277420696e707574206d6f7265207468616e20330000\n        /* \"#utility.yul\":8246:8247   */\n      0x00\n        /* \"#utility.yul\":8238:8244   */\n      dup3\n        /* \"#utility.yul\":8234:8248   */\n      add\n        /* \"#utility.yul\":8227:8283   */\n      mstore\n        /* \"#utility.yul\":8110:8290   */\n      pop\n      jump\t// out\n        /* \"#utility.yul\":8296:8662   */\n    tag_229:\n        /* \"#utility.yul\":8438:8441   */\n      0x00\n        /* \"#utility.yul\":8459:8526   */\n      tag_331\n        /* \"#utility.yul\":8523:8525   */\n      0x1e\n        /* \"#utility.yul\":8518:8521   */\n      dup4\n        /* \"#utility.yul\":8459:8526   */\n      tag_206\n      jump\t// in\n    tag_331:\n        /* \"#utility.yul\":8452:8526   */\n      swap2\n      pop\n        /* \"#utility.yul\":8535:8628   */\n      tag_332\n        /* \"#utility.yul\":8624:8627   */\n      dup3\n        /* \"#utility.yul\":8535:8628   */\n      tag_228\n      jump\t// in\n    tag_332:\n        /* \"#utility.yul\":8653:8655   */\n      0x20\n        /* \"#utility.yul\":8648:8651   */\n      dup3\n        /* \"#utility.yul\":8644:8656   */\n      add\n        /* \"#utility.yul\":8637:8656   */\n      swap1\n      pop\n        /* \"#utility.yul\":8296:8662   */\n      swap2\n      swap1\n      pop\n      jump\t// out\n        /* \"#utility.yul\":8668:9087   */\n    tag_76:\n        /* \"#utility.yul\":8834:8838   */\n      0x00\n        /* \"#utility.yul\":8872:8874   */\n      0x20\n        /* \"#utility.yul\":8861:8870   */\n      dup3\n        /* \"#utility.yul\":8857:8875   */\n      add\n        /* \"#utility.yul\":8849:8875   */\n      swap1\n      pop\n        /* \"#utility.yul\":8921:8930   */\n      dup2\n        /* \"#utility.yul\":8915:8919   */\n      dup2\n        /* \"#utility.yul\":8911:8931   */\n      sub\n        /* \"#utility.yul\":8907:8908   */\n      0x00\n        /* \"#utility.yul\":8896:8905   */\n      dup4\n        /* \"#utility.yul\":8892:8909   */\n      add\n        /* \"#utility.yul\":8885:8932   */\n      mstore\n        /* \"#utility.yul\":8949:9080   */\n      tag_334\n        /* \"#utility.yul\":9075:9079   */\n      dup2\n        /* \"#utility.yul\":8949:9080   */\n      tag_229\n      jump\t// in\n    tag_334:\n        /* \"#utility.yul\":8941:9080   */\n      swap1\n      pop\n        /* \"#utility.yul\":8668:9087   */\n      swap2\n      swap1\n      pop\n      jump\t// out\n        /* \"#utility.yul\":9093:9273   */\n    tag_84:\n        /* \"#utility.yul\":9141:9218   */\n      0x4e487b7100000000000000000000000000000000000000000000000000000000\n        /* \"#utility.yul\":9138:9139   */\n      0x00\n        /* \"#utility.yul\":9131:9219   */\n      mstore\n        /* \"#utility.yul\":9238:9242   */\n      0x32\n        /* \"#utility.yul\":9235:9236   */\n      0x04\n        /* \"#utility.yul\":9228:9243   */\n      mstore\n        /* \"#utility.yul\":9262:9266   */\n      0x24\n        /* \"#utility.yul\":9259:9260   */\n      0x00\n        /* \"#utility.yul\":9252:9267   */\n      revert\n        /* \"#utility.yul\":9279:9459   */\n    tag_230:\n        /* \"#utility.yul\":9327:9404   */\n      0x4e487b7100000000000000000000000000000000000000000000000000000000\n        /* \"#utility.yul\":9324:9325   */\n      0x00\n        /* \"#utility.yul\":9317:9405   */\n      mstore\n        /* \"#utility.yul\":9424:9428   */\n      0x11\n        /* \"#utility.yul\":9421:9422   */\n      0x04\n        /* \"#utility.yul\":9414:9429   */\n      mstore\n        /* \"#utility.yul\":9448:9452   */\n      0x24\n        /* \"#utility.yul\":9445:9446   */\n      0x00\n        /* \"#utility.yul\":9438:9453   */\n      revert\n        /* \"#utility.yul\":9465:9656   */\n    tag_87:\n        /* \"#utility.yul\":9505:9508   */\n      0x00\n        /* \"#utility.yul\":9524:9544   */\n      tag_338\n        /* \"#utility.yul\":9542:9543   */\n      dup3\n        /* \"#utility.yul\":9524:9544   */\n      tag_198\n      jump\t// in\n    tag_338:\n        /* \"#utility.yul\":9519:9544   */\n      swap2\n      pop\n        /* \"#utility.yul\":9558:9578   */\n      tag_339\n        /* \"#utility.yul\":9576:9577   */\n      dup4\n        /* \"#utility.yul\":9558:9578   */\n      tag_198\n      jump\t// in\n    tag_339:\n        /* \"#utility.yul\":9553:9578   */\n      swap3\n      pop\n        /* \"#utility.yul\":9601:9602   */\n      dup3\n        /* \"#utility.yul\":9598:9599   */\n      dup3\n        /* \"#utility.yul\":9594:9603   */\n      add\n        /* \"#utility.yul\":9587:9603   */\n      swap1\n      pop\n        /* \"#utility.yul\":9622:9625   */\n      dup1\n        /* \"#utility.yul\":9619:9620   */\n      dup3\n        /* \"#utility.yul\":9616:9626   */\n      gt\n        /* \"#utility.yul\":9613:9649   */\n      iszero\n      tag_340\n      jumpi\n        /* \"#utility.yul\":9629:9647   */\n      tag_341\n      tag_230\n      jump\t// in\n    tag_341:\n        /* \"#utility.yul\":9613:9649   */\n    tag_340:\n        /* \"#utility.yul\":9465:9656   */\n      swap3\n      swap2\n      pop\n      pop\n      jump\t// out\n        /* \"#utility.yul\":9662:9895   */\n    tag_89:\n        /* \"#utility.yul\":9701:9704   */\n      0x00\n        /* \"#utility.yul\":9724:9748   */\n      tag_343\n        /* \"#utility.yul\":9742:9747   */\n      dup3\n        /* \"#utility.yul\":9724:9748   */\n      tag_198\n      jump\t// in\n    tag_343:\n        /* \"#utility.yul\":9715:9748   */\n      swap2\n      pop\n        /* \"#utility.yul\":9770:9836   */\n      0xffffffffffffffffffffffffffffffffffffffffffffffffffffffffffffffff\n        /* \"#utility.yul\":9763:9768   */\n      dup3\n        /* \"#utility.yul\":9760:9837   */\n      sub\n        /* \"#utility.yul\":9757:9860   */\n      tag_344\n      jumpi\n        /* \"#utility.yul\":9840:9858   */\n      tag_345\n      tag_230\n      jump\t// in\n    tag_345:\n        /* \"#utility.yul\":9757:9860   */\n    tag_344:\n        /* \"#utility.yul\":9887:9888   */\n      0x01\n        /* \"#utility.yul\":9880:9885   */\n      dup3\n        /* \"#utility.yul\":9876:9889   */\n      add\n        /* \"#utility.yul\":9869:9889   */\n      swap1\n      pop\n        /* \"#utility.yul\":9662:9895   */\n      swap2\n      swap1\n      pop\n      jump\t// out\n        /* \"#utility.yul\":9901:10311   */\n    tag_145:\n        /* \"#utility.yul\":9941:9948   */\n      0x00\n        /* \"#utility.yul\":9964:9984   */\n      tag_347\n        /* \"#utility.yul\":9982:9983   */\n      dup3\n        /* \"#utility.yul\":9964:9984   */\n      tag_198\n      jump\t// in\n    tag_347:\n        /* \"#utility.yul\":9959:9984   */\n      swap2\n      pop\n        /* \"#utility.yul\":9998:10018   */\n      tag_348\n        /* \"#utility.yul\":10016:10017   */\n      dup4\n        /* \"#utility.yul\":9998:10018   */\n      tag_198\n      jump\t// in\n    tag_348:\n        /* \"#utility.yul\":9993:10018   */\n      swap3\n      pop\n        /* \"#utility.yul\":10053:10054   */\n      dup3\n        /* \"#utility.yul\":10050:10051   */\n      dup3\n        /* \"#utility.yul\":10046:10055   */\n      mul\n        /* \"#utility.yul\":10075:10105   */\n      tag_349\n        /* \"#utility.yul\":10093:10104   */\n      dup2\n        /* \"#utility.yul\":10075:10105   */\n      tag_198\n      jump\t// in\n    tag_349:\n        /* \"#utility.yul\":10064:10105   */\n      swap2\n      pop\n        /* \"#utility.yul\":10254:10255   */\n      dup3\n        /* \"#utility.yul\":10245:10252   */\n      dup3\n        /* \"#utility.yul\":10241:10256   */\n      div\n        /* \"#utility.yul\":10238:10239   */\n      dup5\n        /* \"#utility.yul\":10235:10257   */\n      eq\n        /* \"#utility.yul\":10215:10216   */\n      dup4\n        /* \"#utility.yul\":10208:10217   */\n      iszero\n        /* \"#utility.yul\":10188:10271   */\n      or\n        /* \"#utility.yul\":10165:10304   */\n      tag_350\n      jumpi\n        /* \"#utility.yul\":10284:10302   */\n      tag_351\n      tag_230\n      jump\t// in\n    tag_351:\n        /* \"#utility.yul\":10165:10304   */\n    tag_350:\n        /* \"#utility.yul\":9949:10311   */\n      pop\n        /* \"#utility.yul\":9901:10311   */\n      swap3\n      swap2\n      pop\n      pop\n      jump\t// out\n        /* \"#utility.yul\":10317:10497   */\n    tag_231:\n        /* \"#utility.yul\":10365:10442   */\n      0x4e487b7100000000000000000000000000000000000000000000000000000000\n        /* \"#utility.yul\":10362:10363   */\n      0x00\n        /* \"#utility.yul\":10355:10443   */\n      mstore\n        /* \"#utility.yul\":10462:10466   */\n      0x12\n        /* \"#utility.yul\":10459:10460   */\n      0x04\n        /* \"#utility.yul\":10452:10467   */\n      mstore\n        /* \"#utility.yul\":10486:10490   */\n      0x24\n        /* \"#utility.yul\":10483:10484   */\n      0x00\n        /* \"#utility.yul\":10476:10491   */\n      revert\n        /* \"#utility.yul\":10503:10688   */\n    tag_147:\n        /* \"#utility.yul\":10543:10544   */\n      0x00\n        /* \"#utility.yul\":10560:10580   */\n      tag_354\n        /* \"#utility.yul\":10578:10579   */\n      dup3\n        /* \"#utility.yul\":10560:10580   */\n      tag_198\n      jump\t// in\n    tag_354:\n        /* \"#utility.yul\":10555:10580   */\n      swap2\n      pop\n        /* \"#utility.yul\":10594:10614   */\n      tag_355\n        /* \"#utility.yul\":10612:10613   */\n      dup4\n        /* \"#utility.yul\":10594:10614   */\n      tag_198\n      jump\t// in\n    tag_355:\n        /* \"#utility.yul\":10589:10614   */\n      swap3\n      pop\n        /* \"#utility.yul\":10633:10634   */\n      dup3\n        /* \"#utility.yul\":10623:10658   */\n      tag_356\n      jumpi\n        /* \"#utility.yul\":10638:10656   */\n      tag_357\n      tag_231\n      jump\t// in\n    tag_357:\n        /* \"#utility.yul\":10623:10658   */\n    tag_356:\n        /* \"#utility.yul\":10680:10681   */\n      dup3\n        /* \"#utility.yul\":10677:10678   */\n      dup3\n        /* \"#utility.yul\":10673:10682   */\n      div\n        /* \"#utility.yul\":10668:10682   */\n      swap1\n      pop\n        /* \"#utility.yul\":10503:10688   */\n      swap3\n      swap2\n      pop\n      pop\n      jump\t// out\n        /* \"#utility.yul\":10694:10842   */\n    tag_232:\n        /* \"#utility.yul\":10796:10807   */\n      0x00\n        /* \"#utility.yul\":10833:10836   */\n      dup2\n        /* \"#utility.yul\":10818:10836   */\n      swap1\n      pop\n        /* \"#utility.yul\":10694:10842   */\n      swap3\n      swap2\n      pop\n      pop\n      jump\t// out\n        /* \"#utility.yul\":10848:11238   */\n    tag_233:\n        /* \"#utility.yul\":10954:10957   */\n      0x00\n        /* \"#utility.yul\":10982:11021   */\n      tag_360\n        /* \"#utility.yul\":11015:11020   */\n      dup3\n        /* \"#utility.yul\":10982:11021   */\n      tag_205\n      jump\t// in\n    tag_360:\n        /* \"#utility.yul\":11037:11126   */\n      tag_361\n        /* \"#utility.yul\":11119:11125   */\n      dup2\n        /* \"#utility.yul\":11114:11117   */\n      dup6\n        /* \"#utility.yul\":11037:11126   */\n      tag_232\n      jump\t// in\n    tag_361:\n        /* \"#utility.yul\":11030:11126   */\n      swap4\n      pop\n        /* \"#utility.yul\":11135:11200   */\n      tag_362\n        /* \"#utility.yul\":11193:11199   */\n      dup2\n        /* \"#utility.yul\":11188:11191   */\n      dup6\n        /* \"#utility.yul\":11181:11185   */\n      0x20\n        /* \"#utility.yul\":11174:11179   */\n      dup7\n        /* \"#utility.yul\":11170:11186   */\n      add\n        /* \"#utility.yul\":11135:11200   */\n      tag_207\n      jump\t// in\n    tag_362:\n        /* \"#utility.yul\":11225:11231   */\n      dup1\n        /* \"#utility.yul\":11220:11223   */\n      dup5\n        /* \"#utility.yul\":11216:11232   */\n      add\n        /* \"#utility.yul\":11209:11232   */\n      swap2\n      pop\n        /* \"#utility.yul\":10958:11238   */\n      pop\n        /* \"#utility.yul\":10848:11238   */\n      swap3\n      swap2\n      pop\n      pop\n      jump\t// out\n        /* \"#utility.yul\":11244:11519   */\n    tag_178:\n        /* \"#utility.yul\":11376:11379   */\n      0x00\n        /* \"#utility.yul\":11398:11493   */\n      tag_364\n        /* \"#utility.yul\":11489:11492   */\n      dup3\n        /* \"#utility.yul\":11480:11486   */\n      dup5\n        /* \"#utility.yul\":11398:11493   */\n      tag_233\n      jump\t// in\n    tag_364:\n        /* \"#utility.yul\":11391:11493   */\n      swap2\n      pop\n        /* \"#utility.yul\":11510:11513   */\n      dup2\n        /* \"#utility.yul\":11503:11513   */\n      swap1\n      pop\n        /* \"#utility.yul\":11244:11519   */\n      swap3\n      swap2\n      pop\n      pop\n      jump\t// out\n        /* \"#utility.yul\":11525:11719   */\n    tag_182:\n        /* \"#utility.yul\":11565:11569   */\n      0x00\n        /* \"#utility.yul\":11585:11605   */\n      tag_366\n        /* \"#utility.yul\":11603:11604   */\n      dup3\n        /* \"#utility.yul\":11585:11605   */\n      tag_198\n      jump\t// in\n    tag_366:\n        /* \"#utility.yul\":11580:11605   */\n      swap2\n      pop\n        /* \"#utility.yul\":11619:11639   */\n      tag_367\n        /* \"#utility.yul\":11637:11638   */\n      dup4\n        /* \"#utility.yul\":11619:11639   */\n      tag_198\n      jump\t// in\n    tag_367:\n        /* \"#utility.yul\":11614:11639   */\n      swap3\n      pop\n        /* \"#utility.yul\":11663:11664   */\n      dup3\n        /* \"#utility.yul\":11660:11661   */\n      dup3\n        /* \"#utility.yul\":11656:11665   */\n      sub\n        /* \"#utility.yul\":11648:11665   */\n      swap1\n      pop\n        /* \"#utility.yul\":11687:11688   */\n      dup2\n        /* \"#utility.yul\":11681:11685   */\n      dup2\n        /* \"#utility.yul\":11678:11689   */\n      gt\n        /* \"#utility.yul\":11675:11712   */\n      iszero\n      tag_368\n      jumpi\n        /* \"#utility.yul\":11692:11710   */\n      tag_369\n      tag_230\n      jump\t// in\n    tag_369:\n        /* \"#utility.yul\":11675:11712   */\n    tag_368:\n        /* \"#utility.yul\":11525:11719   */\n      swap3\n      swap2\n      pop\n      pop\n      jump\t// out\n        /* \"#utility.yul\":11725:11804   */\n    tag_234:\n        /* \"#utility.yul\":11764:11771   */\n      0x00\n        /* \"#utility.yul\":11793:11798   */\n      dup2\n        /* \"#utility.yul\":11782:11798   */\n      swap1\n      pop\n        /* \"#utility.yul\":11725:11804   */\n      swap2\n      swap1\n      pop\n      jump\t// out\n        /* \"#utility.yul\":11810:11967   */\n    tag_235:\n        /* \"#utility.yul\":11915:11960   */\n      tag_372\n        /* \"#utility.yul\":11935:11959   */\n      tag_373\n        /* \"#utility.yul\":11953:11958   */\n      dup3\n        /* \"#utility.yul\":11935:11959   */\n      tag_198\n      jump\t// in\n    tag_373:\n        /* \"#utility.yul\":11915:11960   */\n      tag_234\n      jump\t// in\n    tag_372:\n        /* \"#utility.yul\":11910:11913   */\n      dup3\n        /* \"#utility.yul\":11903:11961   */\n      mstore\n        /* \"#utility.yul\":11810:11967   */\n      pop\n      pop\n      jump\t// out\n        /* \"#utility.yul\":11973:12050   */\n    tag_236:\n        /* \"#utility.yul\":12010:12017   */\n      0x00\n        /* \"#utility.yul\":12039:12044   */\n      dup2\n        /* \"#utility.yul\":12028:12044   */\n      swap1\n      pop\n        /* \"#utility.yul\":11973:12050   */\n      swap2\n      swap1\n      pop\n      jump\t// out\n        /* \"#utility.yul\":12056:12135   */\n    tag_237:\n        /* \"#utility.yul\":12095:12102   */\n      0x00\n        /* \"#utility.yul\":12124:12129   */\n      dup2\n        /* \"#utility.yul\":12113:12129   */\n      swap1\n      pop\n        /* \"#utility.yul\":12056:12135   */\n      swap2\n      swap1\n      pop\n      jump\t// out\n        /* \"#utility.yul\":12141:12298   */\n    tag_238:\n        /* \"#utility.yul\":12246:12291   */\n      tag_377\n        /* \"#utility.yul\":12266:12290   */\n      tag_378\n        /* \"#utility.yul\":12284:12289   */\n      dup3\n        /* \"#utility.yul\":12266:12290   */\n      tag_236\n      jump\t// in\n    tag_378:\n        /* \"#utility.yul\":12246:12291   */\n      tag_237\n      jump\t// in\n    tag_377:\n        /* \"#utility.yul\":12241:12244   */\n      dup3\n        /* \"#utility.yul\":12234:12292   */\n      mstore\n        /* \"#utility.yul\":12141:12298   */\n      pop\n      pop\n      jump\t// out\n        /* \"#utility.yul\":12304:12842   */\n    tag_184:\n        /* \"#utility.yul\":12472:12475   */\n      0x00\n        /* \"#utility.yul\":12487:12562   */\n      tag_380\n        /* \"#utility.yul\":12558:12561   */\n      dup3\n        /* \"#utility.yul\":12549:12555   */\n      dup7\n        /* \"#utility.yul\":12487:12562   */\n      tag_235\n      jump\t// in\n    tag_380:\n        /* \"#utility.yul\":12587:12589   */\n      0x20\n        /* \"#utility.yul\":12582:12585   */\n      dup3\n        /* \"#utility.yul\":12578:12590   */\n      add\n        /* \"#utility.yul\":12571:12590   */\n      swap2\n      pop\n        /* \"#utility.yul\":12600:12675   */\n      tag_381\n        /* \"#utility.yul\":12671:12674   */\n      dup3\n        /* \"#utility.yul\":12662:12668   */\n      dup6\n        /* \"#utility.yul\":12600:12675   */\n      tag_235\n      jump\t// in\n    tag_381:\n        /* \"#utility.yul\":12700:12702   */\n      0x20\n        /* \"#utility.yul\":12695:12698   */\n      dup3\n        /* \"#utility.yul\":12691:12703   */\n      add\n        /* \"#utility.yul\":12684:12703   */\n      swap2\n      pop\n        /* \"#utility.yul\":12713:12788   */\n      tag_382\n        /* \"#utility.yul\":12784:12787   */\n      dup3\n        /* \"#utility.yul\":12775:12781   */\n      dup5\n        /* \"#utility.yul\":12713:12788   */\n      tag_238\n      jump\t// in\n    tag_382:\n        /* \"#utility.yul\":12813:12815   */\n      0x20\n        /* \"#utility.yul\":12808:12811   */\n      dup3\n        /* \"#utility.yul\":12804:12816   */\n      add\n        /* \"#utility.yul\":12797:12816   */\n      swap2\n      pop\n        /* \"#utility.yul\":12833:12836   */\n      dup2\n        /* \"#utility.yul\":12826:12836   */\n      swap1\n      pop\n        /* \"#utility.yul\":12304:12842   */\n      swap5\n      swap4\n      pop\n      pop\n      pop\n      pop\n      jump\t// out\n        /* \"#utility.yul\":12848:13245   */\n    tag_186:\n        /* \"#utility.yul\":12988:12991   */\n      0x00\n        /* \"#utility.yul\":13003:13078   */\n      tag_384\n        /* \"#utility.yul\":13074:13077   */\n      dup3\n        /* \"#utility.yul\":13065:13071   */\n      dup6\n        /* \"#utility.yul\":13003:13078   */\n      tag_235\n      jump\t// in\n    tag_384:\n        /* \"#utility.yul\":13103:13105   */\n      0x20\n        /* \"#utility.yul\":13098:13101   */\n      dup3\n        /* \"#utility.yul\":13094:13106   */\n      add\n        /* \"#utility.yul\":13087:13106   */\n      swap2\n      pop\n        /* \"#utility.yul\":13116:13191   */\n      tag_385\n        /* \"#utility.yul\":13187:13190   */\n      dup3\n        /* \"#utility.yul\":13178:13184   */\n      dup5\n        /* \"#utility.yul\":13116:13191   */\n      tag_235\n      jump\t// in\n    tag_385:\n        /* \"#utility.yul\":13216:13218   */\n      0x20\n        /* \"#utility.yul\":13211:13214   */\n      dup3\n        /* \"#utility.yul\":13207:13219   */\n      add\n        /* \"#utility.yul\":13200:13219   */\n      swap2\n      pop\n        /* \"#utility.yul\":13236:13239   */\n      dup2\n        /* \"#utility.yul\":13229:13239   */\n      swap1\n      pop\n        /* \"#utility.yul\":12848:13245   */\n      swap4\n      swap3\n      pop\n      pop\n      pop\n      jump\t// out\n        /* \"#utility.yul\":13251:13427   */\n    tag_189:\n        /* \"#utility.yul\":13283:13284   */\n      0x00\n        /* \"#utility.yul\":13300:13320   */\n      tag_387\n        /* \"#utility.yul\":13318:13319   */\n      dup3\n        /* \"#utility.yul\":13300:13320   */\n      tag_198\n      jump\t// in\n    tag_387:\n        /* \"#utility.yul\":13295:13320   */\n      swap2\n      pop\n        /* \"#utility.yul\":13334:13354   */\n      tag_388\n        /* \"#utility.yul\":13352:13353   */\n      dup4\n        /* \"#utility.yul\":13334:13354   */\n      tag_198\n      jump\t// in\n    tag_388:\n        /* \"#utility.yul\":13329:13354   */\n      swap3\n      pop\n        /* \"#utility.yul\":13373:13374   */\n      dup3\n        /* \"#utility.yul\":13363:13398   */\n      tag_389\n      jumpi\n        /* \"#utility.yul\":13378:13396   */\n      tag_390\n      tag_231\n      jump\t// in\n    tag_390:\n        /* \"#utility.yul\":13363:13398   */\n    tag_389:\n        /* \"#utility.yul\":13419:13420   */\n      dup3\n        /* \"#utility.yul\":13416:13417   */\n      dup3\n        /* \"#utility.yul\":13412:13421   */\n      mod\n        /* \"#utility.yul\":13407:13421   */\n      swap1\n      pop\n        /* \"#utility.yul\":13251:13427   */\n      swap3\n      swap2\n      pop\n      pop\n      jump\t// out\n\n    auxdata: 0xa264697066735822122091363b7a07f0a1303b6a8d6ffe08f34b2a73c358048b6509461eb9e50c46810464736f6c63430008130033\n}\n",
				"bytecode": {
					"linkReferences": {},
					"object": "6080604052600160035534801561001557600080fd5b50611411806100256000396000f3fe608060405234801561001057600080fd5b50600436106100ea5760003560e01c80636898f82b1161008c578063ba16286811610066578063ba16286814610275578063bed34bba14610293578063dbdff2c1146102c3578063f6320567146102e1576100ea565b80636898f82b146102095780636ca495e21461023957806394227ea714610257576100ea565b806312220fe3116100c857806312220fe31461015b578063233a1a761461018b57806358da9da8146101bb578063614b3757146101d9576100ea565b8063010711e3146100ef578063060aa4ce1461010d5780631123d9b11461012b575b600080fd5b6100f76102eb565b6040516101049190610c89565b60405180910390f35b6101156102f1565b6040516101229190610c89565b60405180910390f35b61014560048036038101906101409190610ce4565b6102f7565b6040516101529190610da1565b60405180910390f35b61017560048036038101906101709190610ce4565b6104ea565b6040516101829190610c89565b60405180910390f35b6101a560048036038101906101a09190610ce4565b61050e565b6040516101b29190610c89565b60405180910390f35b6101c3610532565b6040516101d09190610da1565b60405180910390f35b6101f360048036038101906101ee9190610ce4565b610894565b6040516102009190610e81565b60405180910390f35b610223600480360381019061021e9190610ce4565b61095b565b6040516102309190610da1565b60405180910390f35b610241610ab9565b60405161024e9190610e81565b60405180910390f35b61025f610b11565b60405161026c9190610c89565b60405180910390f35b61027d610b17565b60405161028a9190610c89565b60405180910390f35b6102ad60048036038101906102a89190610fd8565b610b1d565b6040516102ba919061106b565b60405180910390f35b6102cb610b76565b6040516102d89190610c89565b60405180910390f35b6102e9610c22565b005b60005481565b60055481565b6060600382111561033d576040517f08c379a0000000000000000000000000000000000000000000000000000000008152600401610334906110d2565b60405180910390fd5b6000610347610532565b905060008060405180606001604052806040518060400160405280600481526020017f546965640000000000000000000000000000000000000000000000000000000081525081526020016040518060400160405280600781526020017f596f752057696e0000000000000000000000000000000000000000000000000081525081526020016040518060400160405280600881526020017f596f75204c6f7365000000000000000000000000000000000000000000000000815250815250905060005b60038110156104615761043582826003811061042a576104296110f2565b5b602002015185610b1d565b1561044e576001816104479190611150565b9250610461565b808061045990611184565b91505061040b565b508482036104a9576040518060400160405280601481526020017f596f7520677565737320697320636f727265637400000000000000000000000081525093505050506104e5565b6040518060400160405280601281526020017f596f752067756573732069732077726f6e67000000000000000000000000000081525093505050505b919050565b600181815481106104fa57600080fd5b906000526020600020016000915090505481565b6002818154811061051e57600080fd5b906000526020600020016000915090505481565b6060600260006105429190610c32565b60006006819055506000600581905550600060048190555060005b6001805490508110156105ad576002610574610b76565b908060018154018082558091505060019003906000526020600020016000909190919091505580806105a590611184565b91505061055d565b5060005b60018054905081101561084757600281815481106105d2576105d16110f2565b5b9060005260206000200154600182815481106105f1576105f06110f2565b5b90600052602060002001540361061e576006600081548092919061061490611184565b9190505550610834565b6001808281548110610633576106326110f2565b5b90600052602060002001541480156106685750600280828154811061065b5761065a6110f2565b5b9060005260206000200154145b806106bb5750600360018281548110610684576106836110f2565b5b90600052602060002001541480156106ba57506001600282815481106106ad576106ac6110f2565b5b9060005260206000200154145b5b8061070e57506002600182815481106106d7576106d66110f2565b5b906000526020600020015414801561070d5750600360028281548110610700576106ff6110f2565b5b9060005260206000200154145b5b15610730576005600081548092919061072690611184565b9190505550610749565b6004600081548092919061074390611184565b91905055505b60055460045411156107c6576000600180549050606460045461076c91906111cc565b610776919061123d565b905060328111156107c0576040518060400160405280600781526020017f596f752057696e0000000000000000000000000000000000000000000000000081525092505050610891565b50610833565b600060018054905060646005546107dd91906111cc565b6107e7919061123d565b90506032811115610831576040518060400160405280600881526020017f596f75204c6f736500000000000000000000000000000000000000000000000081525092505050610891565b505b5b808061083f90611184565b9150506105b1565b5060055460045403610890576040518060400160405280600481526020017f54696564000000000000000000000000000000000000000000000000000000008152509050610891565b5b90565b606060038211156108da576040517f08c379a00000000000000000000000000000000000000000000000000000000081526004016108d1906110d2565b60405180910390fd5b6001829080600181540180825580915050600190039060005260206000200160009091909190915055600180548060200260200160405190810160405280929190818152602001828054801561094f57602002820191906000526020600020905b81548152602001906001019080831161093b575b50505050509050919050565b60606000610967610b76565b90508060008190555060038311156109b4576040517f08c379a00000000000000000000000000000000000000000000000000000000081526004016109ab906110d2565b60405180910390fd5b8083036109f9576040518060400160405280600481526020017f5469656400000000000000000000000000000000000000000000000000000000815250915050610ab4565b600183148015610a095750600281145b80610a205750600383148015610a1f5750600181145b5b80610a375750600283148015610a365750600381145b5b15610a7a576040518060400160405280600881526020017f596f75206c6f7365000000000000000000000000000000000000000000000000815250915050610ab4565b6040518060400160405280600781526020017f596f7520776f6e000000000000000000000000000000000000000000000000008152509150505b919050565b60606002805480602002602001604051908101604052809291908181526020018280548015610b0757602002820191906000526020600020905b815481526020019060010190808311610af3575b5050505050905090565b60065481565b60045481565b600081604051602001610b3091906112aa565b6040516020818303038152906040528051906020012083604051602001610b5791906112aa565b6040516020818303038152906040528051906020012014905092915050565b6000804244600143610b8891906112c1565b40604051602001610b9b93929190611341565b6040516020818303038152906040528051906020012060001c9050600081600354604051602001610bcd92919061137e565b6040516020818303038152906040528051906020012060001c9050600160036000828254610bfb9190611150565b925050819055506001600382610c1191906113aa565b610c1b9190611150565b9250505090565b60016000610c309190610c32565b565b5080546000825590600052602060002090810190610c509190610c53565b50565b5b80821115610c6c576000816000905550600101610c54565b5090565b6000819050919050565b610c8381610c70565b82525050565b6000602082019050610c9e6000830184610c7a565b92915050565b6000604051905090565b600080fd5b600080fd5b610cc181610c70565b8114610ccc57600080fd5b50565b600081359050610cde81610cb8565b92915050565b600060208284031215610cfa57610cf9610cae565b5b6000610d0884828501610ccf565b91505092915050565b600081519050919050565b600082825260208201905092915050565b60005b83811015610d4b578082015181840152602081019050610d30565b60008484015250505050565b6000601f19601f8301169050919050565b6000610d7382610d11565b610d7d8185610d1c565b9350610d8d818560208601610d2d565b610d9681610d57565b840191505092915050565b60006020820190508181036000830152610dbb8184610d68565b905092915050565b600081519050919050565b600082825260208201905092915050565b6000819050602082019050919050565b610df881610c70565b82525050565b6000610e0a8383610def565b60208301905092915050565b6000602082019050919050565b6000610e2e82610dc3565b610e388185610dce565b9350610e4383610ddf565b8060005b83811015610e74578151610e5b8882610dfe565b9750610e6683610e16565b925050600181019050610e47565b5085935050505092915050565b60006020820190508181036000830152610e9b8184610e23565b905092915050565b600080fd5b600080fd5b7f4e487b7100000000000000000000000000000000000000000000000000000000600052604160045260246000fd5b610ee582610d57565b810181811067ffffffffffffffff82111715610f0457610f03610ead565b5b80604052505050565b6000610f17610ca4565b9050610f238282610edc565b919050565b600067ffffffffffffffff821115610f4357610f42610ead565b5b610f4c82610d57565b9050602081019050919050565b82818337600083830152505050565b6000610f7b610f7684610f28565b610f0d565b905082815260208101848484011115610f9757610f96610ea8565b5b610fa2848285610f59565b509392505050565b600082601f830112610fbf57610fbe610ea3565b5b8135610fcf848260208601610f68565b91505092915050565b60008060408385031215610fef57610fee610cae565b5b600083013567ffffffffffffffff81111561100d5761100c610cb3565b5b61101985828601610faa565b925050602083013567ffffffffffffffff81111561103a57611039610cb3565b5b61104685828601610faa565b9150509250929050565b60008115159050919050565b61106581611050565b82525050565b6000602082019050611080600083018461105c565b92915050565b7f4572726f723a2043616e277420696e707574206d6f7265207468616e20330000600082015250565b60006110bc601e83610d1c565b91506110c782611086565b602082019050919050565b600060208201905081810360008301526110eb816110af565b9050919050565b7f4e487b7100000000000000000000000000000000000000000000000000000000600052603260045260246000fd5b7f4e487b7100000000000000000000000000000000000000000000000000000000600052601160045260246000fd5b600061115b82610c70565b915061116683610c70565b925082820190508082111561117e5761117d611121565b5b92915050565b600061118f82610c70565b91507fffffffffffffffffffffffffffffffffffffffffffffffffffffffffffffffff82036111c1576111c0611121565b5b600182019050919050565b60006111d782610c70565b91506111e283610c70565b92508282026111f081610c70565b9150828204841483151761120757611206611121565b5b5092915050565b7f4e487b7100000000000000000000000000000000000000000000000000000000600052601260045260246000fd5b600061124882610c70565b915061125383610c70565b9250826112635761126261120e565b5b828204905092915050565b600081905092915050565b600061128482610d11565b61128e818561126e565b935061129e818560208601610d2d565b80840191505092915050565b60006112b68284611279565b915081905092915050565b60006112cc82610c70565b91506112d783610c70565b92508282039050818111156112ef576112ee611121565b5b92915050565b6000819050919050565b61131061130b82610c70565b6112f5565b82525050565b6000819050919050565b6000819050919050565b61133b61133682611316565b611320565b82525050565b600061134d82866112ff565b60208201915061135d82856112ff565b60208201915061136d828461132a565b602082019150819050949350505050565b600061138a82856112ff565b60208201915061139a82846112ff565b6020820191508190509392505050565b60006113b582610c70565b91506113c083610c70565b9250826113d0576113cf61120e565b5b82820690509291505056fea264697066735822122091363b7a07f0a1303b6a8d6ffe08f34b2a73c358048b6509461eb9e50c46810464736f6c63430008130033",
					"opcodes": "PUSH1 0x80 PUSH1 0x40 MSTORE PUSH1 0x1 PUSH1 0x3 SSTORE CALLVALUE DUP1 ISZERO PUSH2 0x15 JUMPI PUSH1 0x0 DUP1 REVERT JUMPDEST POP PUSH2 0x1411 DUP1 PUSH2 0x25 PUSH1 0x0 CODECOPY PUSH1 0x0 RETURN INVALID PUSH1 0x80 PUSH1 0x40 MSTORE CALLVALUE DUP1 ISZERO PUSH2 0x10 JUMPI PUSH1 0x0 DUP1 REVERT JUMPDEST POP PUSH1 0x4 CALLDATASIZE LT PUSH2 0xEA JUMPI PUSH1 0x0 CALLDATALOAD PUSH1 0xE0 SHR DUP1 PUSH4 0x6898F82B GT PUSH2 0x8C JUMPI DUP1 PUSH4 0xBA162868 GT PUSH2 0x66 JUMPI DUP1 PUSH4 0xBA162868 EQ PUSH2 0x275 JUMPI DUP1 PUSH4 0xBED34BBA EQ PUSH2 0x293 JUMPI DUP1 PUSH4 0xDBDFF2C1 EQ PUSH2 0x2C3 JUMPI DUP1 PUSH4 0xF6320567 EQ PUSH2 0x2E1 JUMPI PUSH2 0xEA JUMP JUMPDEST DUP1 PUSH4 0x6898F82B EQ PUSH2 0x209 JUMPI DUP1 PUSH4 0x6CA495E2 EQ PUSH2 0x239 JUMPI DUP1 PUSH4 0x94227EA7 EQ PUSH2 0x257 JUMPI PUSH2 0xEA JUMP JUMPDEST DUP1 PUSH4 0x12220FE3 GT PUSH2 0xC8 JUMPI DUP1 PUSH4 0x12220FE3 EQ PUSH2 0x15B JUMPI DUP1 PUSH4 0x233A1A76 EQ PUSH2 0x18B JUMPI DUP1 PUSH4 0x58DA9DA8 EQ PUSH2 0x1BB JUMPI DUP1 PUSH4 0x614B3757 EQ PUSH2 0x1D9 JUMPI PUSH2 0xEA JUMP JUMPDEST DUP1 PUSH4 0x10711E3 EQ PUSH2 0xEF JUMPI DUP1 PUSH4 0x60AA4CE EQ PUSH2 0x10D JUMPI DUP1 PUSH4 0x1123D9B1 EQ PUSH2 0x12B JUMPI JUMPDEST PUSH1 0x0 DUP1 REVERT JUMPDEST PUSH2 0xF7 PUSH2 0x2EB JUMP JUMPDEST PUSH1 0x40 MLOAD PUSH2 0x104 SWAP2 SWAP1 PUSH2 0xC89 JUMP JUMPDEST PUSH1 0x40 MLOAD DUP1 SWAP2 SUB SWAP1 RETURN JUMPDEST PUSH2 0x115 PUSH2 0x2F1 JUMP JUMPDEST PUSH1 0x40 MLOAD PUSH2 0x122 SWAP2 SWAP1 PUSH2 0xC89 JUMP JUMPDEST PUSH1 0x40 MLOAD DUP1 SWAP2 SUB SWAP1 RETURN JUMPDEST PUSH2 0x145 PUSH1 0x4 DUP1 CALLDATASIZE SUB DUP2 ADD SWAP1 PUSH2 0x140 SWAP2 SWAP1 PUSH2 0xCE4 JUMP JUMPDEST PUSH2 0x2F7 JUMP JUMPDEST PUSH1 0x40 MLOAD PUSH2 0x152 SWAP2 SWAP1 PUSH2 0xDA1 JUMP JUMPDEST PUSH1 0x40 MLOAD DUP1 SWAP2 SUB SWAP1 RETURN JUMPDEST PUSH2 0x175 PUSH1 0x4 DUP1 CALLDATASIZE SUB DUP2 ADD SWAP1 PUSH2 0x170 SWAP2 SWAP1 PUSH2 0xCE4 JUMP JUMPDEST PUSH2 0x4EA JUMP JUMPDEST PUSH1 0x40 MLOAD PUSH2 0x182 SWAP2 SWAP1 PUSH2 0xC89 JUMP JUMPDEST PUSH1 0x40 MLOAD DUP1 SWAP2 SUB SWAP1 RETURN JUMPDEST PUSH2 0x1A5 PUSH1 0x4 DUP1 CALLDATASIZE SUB DUP2 ADD SWAP1 PUSH2 0x1A0 SWAP2 SWAP1 PUSH2 0xCE4 JUMP JUMPDEST PUSH2 0x50E JUMP JUMPDEST PUSH1 0x40 MLOAD PUSH2 0x1B2 SWAP2 SWAP1 PUSH2 0xC89 JUMP JUMPDEST PUSH1 0x40 MLOAD DUP1 SWAP2 SUB SWAP1 RETURN JUMPDEST PUSH2 0x1C3 PUSH2 0x532 JUMP JUMPDEST PUSH1 0x40 MLOAD PUSH2 0x1D0 SWAP2 SWAP1 PUSH2 0xDA1 JUMP JUMPDEST PUSH1 0x40 MLOAD DUP1 SWAP2 SUB SWAP1 RETURN JUMPDEST PUSH2 0x1F3 PUSH1 0x4 DUP1 CALLDATASIZE SUB DUP2 ADD SWAP1 PUSH2 0x1EE SWAP2 SWAP1 PUSH2 0xCE4 JUMP JUMPDEST PUSH2 0x894 JUMP JUMPDEST PUSH1 0x40 MLOAD PUSH2 0x200 SWAP2 SWAP1 PUSH2 0xE81 JUMP JUMPDEST PUSH1 0x40 MLOAD DUP1 SWAP2 SUB SWAP1 RETURN JUMPDEST PUSH2 0x223 PUSH1 0x4 DUP1 CALLDATASIZE SUB DUP2 ADD SWAP1 PUSH2 0x21E SWAP2 SWAP1 PUSH2 0xCE4 JUMP JUMPDEST PUSH2 0x95B JUMP JUMPDEST PUSH1 0x40 MLOAD PUSH2 0x230 SWAP2 SWAP1 PUSH2 0xDA1 JUMP JUMPDEST PUSH1 0x40 MLOAD DUP1 SWAP2 SUB SWAP1 RETURN JUMPDEST PUSH2 0x241 PUSH2 0xAB9 JUMP JUMPDEST PUSH1 0x40 MLOAD PUSH2 0x24E SWAP2 SWAP1 PUSH2 0xE81 JUMP JUMPDEST PUSH1 0x40 MLOAD DUP1 SWAP2 SUB SWAP1 RETURN JUMPDEST PUSH2 0x25F PUSH2 0xB11 JUMP JUMPDEST PUSH1 0x40 MLOAD PUSH2 0x26C SWAP2 SWAP1 PUSH2 0xC89 JUMP JUMPDEST PUSH1 0x40 MLOAD DUP1 SWAP2 SUB SWAP1 RETURN JUMPDEST PUSH2 0x27D PUSH2 0xB17 JUMP JUMPDEST PUSH1 0x40 MLOAD PUSH2 0x28A SWAP2 SWAP1 PUSH2 0xC89 JUMP JUMPDEST PUSH1 0x40 MLOAD DUP1 SWAP2 SUB SWAP1 RETURN JUMPDEST PUSH2 0x2AD PUSH1 0x4 DUP1 CALLDATASIZE SUB DUP2 ADD SWAP1 PUSH2 0x2A8 SWAP2 SWAP1 PUSH2 0xFD8 JUMP JUMPDEST PUSH2 0xB1D JUMP JUMPDEST PUSH1 0x40 MLOAD PUSH2 0x2BA SWAP2 SWAP1 PUSH2 0x106B JUMP JUMPDEST PUSH1 0x40 MLOAD DUP1 SWAP2 SUB SWAP1 RETURN JUMPDEST PUSH2 0x2CB PUSH2 0xB76 JUMP JUMPDEST PUSH1 0x40 MLOAD PUSH2 0x2D8 SWAP2 SWAP1 PUSH2 0xC89 JUMP JUMPDEST PUSH1 0x40 MLOAD DUP1 SWAP2 SUB SWAP1 RETURN JUMPDEST PUSH2 0x2E9 PUSH2 0xC22 JUMP JUMPDEST STOP JUMPDEST PUSH1 0x0 SLOAD DUP2 JUMP JUMPDEST PUSH1 0x5 SLOAD DUP2 JUMP JUMPDEST PUSH1 0x60 PUSH1 0x3 DUP3 GT ISZERO PUSH2 0x33D JUMPI PUSH1 0x40 MLOAD PUSH32 0x8C379A000000000000000000000000000000000000000000000000000000000 DUP2 MSTORE PUSH1 0x4 ADD PUSH2 0x334 SWAP1 PUSH2 0x10D2 JUMP JUMPDEST PUSH1 0x40 MLOAD DUP1 SWAP2 SUB SWAP1 REVERT JUMPDEST PUSH1 0x0 PUSH2 0x347 PUSH2 0x532 JUMP JUMPDEST SWAP1 POP PUSH1 0x0 DUP1 PUSH1 0x40 MLOAD DUP1 PUSH1 0x60 ADD PUSH1 0x40 MSTORE DUP1 PUSH1 0x40 MLOAD DUP1 PUSH1 0x40 ADD PUSH1 0x40 MSTORE DUP1 PUSH1 0x4 DUP2 MSTORE PUSH1 0x20 ADD PUSH32 0x5469656400000000000000000000000000000000000000000000000000000000 DUP2 MSTORE POP DUP2 MSTORE PUSH1 0x20 ADD PUSH1 0x40 MLOAD DUP1 PUSH1 0x40 ADD PUSH1 0x40 MSTORE DUP1 PUSH1 0x7 DUP2 MSTORE PUSH1 0x20 ADD PUSH32 0x596F752057696E00000000000000000000000000000000000000000000000000 DUP2 MSTORE POP DUP2 MSTORE PUSH1 0x20 ADD PUSH1 0x40 MLOAD DUP1 PUSH1 0x40 ADD PUSH1 0x40 MSTORE DUP1 PUSH1 0x8 DUP2 MSTORE PUSH1 0x20 ADD PUSH32 0x596F75204C6F7365000000000000000000000000000000000000000000000000 DUP2 MSTORE POP DUP2 MSTORE POP SWAP1 POP PUSH1 0x0 JUMPDEST PUSH1 0x3 DUP2 LT ISZERO PUSH2 0x461 JUMPI PUSH2 0x435 DUP3 DUP3 PUSH1 0x3 DUP2 LT PUSH2 0x42A JUMPI PUSH2 0x429 PUSH2 0x10F2 JUMP JUMPDEST JUMPDEST PUSH1 0x20 MUL ADD MLOAD DUP6 PUSH2 0xB1D JUMP JUMPDEST ISZERO PUSH2 0x44E JUMPI PUSH1 0x1 DUP2 PUSH2 0x447 SWAP2 SWAP1 PUSH2 0x1150 JUMP JUMPDEST SWAP3 POP PUSH2 0x461 JUMP JUMPDEST DUP1 DUP1 PUSH2 0x459 SWAP1 PUSH2 0x1184 JUMP JUMPDEST SWAP2 POP POP PUSH2 0x40B JUMP JUMPDEST POP DUP5 DUP3 SUB PUSH2 0x4A9 JUMPI PUSH1 0x40 MLOAD DUP1 PUSH1 0x40 ADD PUSH1 0x40 MSTORE DUP1 PUSH1 0x14 DUP2 MSTORE PUSH1 0x20 ADD PUSH32 0x596F7520677565737320697320636F7272656374000000000000000000000000 DUP2 MSTORE POP SWAP4 POP POP POP POP PUSH2 0x4E5 JUMP JUMPDEST PUSH1 0x40 MLOAD DUP1 PUSH1 0x40 ADD PUSH1 0x40 MSTORE DUP1 PUSH1 0x12 DUP2 MSTORE PUSH1 0x20 ADD PUSH32 0x596F752067756573732069732077726F6E670000000000000000000000000000 DUP2 MSTORE POP SWAP4 POP POP POP POP JUMPDEST SWAP2 SWAP1 POP JUMP JUMPDEST PUSH1 0x1 DUP2 DUP2 SLOAD DUP2 LT PUSH2 0x4FA JUMPI PUSH1 0x0 DUP1 REVERT JUMPDEST SWAP1 PUSH1 0x0 MSTORE PUSH1 0x20 PUSH1 0x0 KECCAK256 ADD PUSH1 0x0 SWAP2 POP SWAP1 POP SLOAD DUP2 JUMP JUMPDEST PUSH1 0x2 DUP2 DUP2 SLOAD DUP2 LT PUSH2 0x51E JUMPI PUSH1 0x0 DUP1 REVERT JUMPDEST SWAP1 PUSH1 0x0 MSTORE PUSH1 0x20 PUSH1 0x0 KECCAK256 ADD PUSH1 0x0 SWAP2 POP SWAP1 POP SLOAD DUP2 JUMP JUMPDEST PUSH1 0x60 PUSH1 0x2 PUSH1 0x0 PUSH2 0x542 SWAP2 SWAP1 PUSH2 0xC32 JUMP JUMPDEST PUSH1 0x0 PUSH1 0x6 DUP2 SWAP1 SSTORE POP PUSH1 0x0 PUSH1 0x5 DUP2 SWAP1 SSTORE POP PUSH1 0x0 PUSH1 0x4 DUP2 SWAP1 SSTORE POP PUSH1 0x0 JUMPDEST PUSH1 0x1 DUP1 SLOAD SWAP1 POP DUP2 LT ISZERO PUSH2 0x5AD JUMPI PUSH1 0x2 PUSH2 0x574 PUSH2 0xB76 JUMP JUMPDEST SWAP1 DUP1 PUSH1 0x1 DUP2 SLOAD ADD DUP1 DUP3 SSTORE DUP1 SWAP2 POP POP PUSH1 0x1 SWAP1 SUB SWAP1 PUSH1 0x0 MSTORE PUSH1 0x20 PUSH1 0x0 KECCAK256 ADD PUSH1 0x0 SWAP1 SWAP2 SWAP1 SWAP2 SWAP1 SWAP2 POP SSTORE DUP1 DUP1 PUSH2 0x5A5 SWAP1 PUSH2 0x1184 JUMP JUMPDEST SWAP2 POP POP PUSH2 0x55D JUMP JUMPDEST POP PUSH1 0x0 JUMPDEST PUSH1 0x1 DUP1 SLOAD SWAP1 POP DUP2 LT ISZERO PUSH2 0x847 JUMPI PUSH1 0x2 DUP2 DUP2 SLOAD DUP2 LT PUSH2 0x5D2 JUMPI PUSH2 0x5D1 PUSH2 0x10F2 JUMP JUMPDEST JUMPDEST SWAP1 PUSH1 0x0 MSTORE PUSH1 0x20 PUSH1 0x0 KECCAK256 ADD SLOAD PUSH1 0x1 DUP3 DUP2 SLOAD DUP2 LT PUSH2 0x5F1 JUMPI PUSH2 0x5F0 PUSH2 0x10F2 JUMP JUMPDEST JUMPDEST SWAP1 PUSH1 0x0 MSTORE PUSH1 0x20 PUSH1 0x0 KECCAK256 ADD SLOAD SUB PUSH2 0x61E JUMPI PUSH1 0x6 PUSH1 0x0 DUP2 SLOAD DUP1 SWAP3 SWAP2 SWAP1 PUSH2 0x614 SWAP1 PUSH2 0x1184 JUMP JUMPDEST SWAP2 SWAP1 POP SSTORE POP PUSH2 0x834 JUMP JUMPDEST PUSH1 0x1 DUP1 DUP3 DUP2 SLOAD DUP2 LT PUSH2 0x633 JUMPI PUSH2 0x632 PUSH2 0x10F2 JUMP JUMPDEST JUMPDEST SWAP1 PUSH1 0x0 MSTORE PUSH1 0x20 PUSH1 0x0 KECCAK256 ADD SLOAD EQ DUP1 ISZERO PUSH2 0x668 JUMPI POP PUSH1 0x2 DUP1 DUP3 DUP2 SLOAD DUP2 LT PUSH2 0x65B JUMPI PUSH2 0x65A PUSH2 0x10F2 JUMP JUMPDEST JUMPDEST SWAP1 PUSH1 0x0 MSTORE PUSH1 0x20 PUSH1 0x0 KECCAK256 ADD SLOAD EQ JUMPDEST DUP1 PUSH2 0x6BB JUMPI POP PUSH1 0x3 PUSH1 0x1 DUP3 DUP2 SLOAD DUP2 LT PUSH2 0x684 JUMPI PUSH2 0x683 PUSH2 0x10F2 JUMP JUMPDEST JUMPDEST SWAP1 PUSH1 0x0 MSTORE PUSH1 0x20 PUSH1 0x0 KECCAK256 ADD SLOAD EQ DUP1 ISZERO PUSH2 0x6BA JUMPI POP PUSH1 0x1 PUSH1 0x2 DUP3 DUP2 SLOAD DUP2 LT PUSH2 0x6AD JUMPI PUSH2 0x6AC PUSH2 0x10F2 JUMP JUMPDEST JUMPDEST SWAP1 PUSH1 0x0 MSTORE PUSH1 0x20 PUSH1 0x0 KECCAK256 ADD SLOAD EQ JUMPDEST JUMPDEST DUP1 PUSH2 0x70E JUMPI POP PUSH1 0x2 PUSH1 0x1 DUP3 DUP2 SLOAD DUP2 LT PUSH2 0x6D7 JUMPI PUSH2 0x6D6 PUSH2 0x10F2 JUMP JUMPDEST JUMPDEST SWAP1 PUSH1 0x0 MSTORE PUSH1 0x20 PUSH1 0x0 KECCAK256 ADD SLOAD EQ DUP1 ISZERO PUSH2 0x70D JUMPI POP PUSH1 0x3 PUSH1 0x2 DUP3 DUP2 SLOAD DUP2 LT PUSH2 0x700 JUMPI PUSH2 0x6FF PUSH2 0x10F2 JUMP JUMPDEST JUMPDEST SWAP1 PUSH1 0x0 MSTORE PUSH1 0x20 PUSH1 0x0 KECCAK256 ADD SLOAD EQ JUMPDEST JUMPDEST ISZERO PUSH2 0x730 JUMPI PUSH1 0x5 PUSH1 0x0 DUP2 SLOAD DUP1 SWAP3 SWAP2 SWAP1 PUSH2 0x726 SWAP1 PUSH2 0x1184 JUMP JUMPDEST SWAP2 SWAP1 POP SSTORE POP PUSH2 0x749 JUMP JUMPDEST PUSH1 0x4 PUSH1 0x0 DUP2 SLOAD DUP1 SWAP3 SWAP2 SWAP1 PUSH2 0x743 SWAP1 PUSH2 0x1184 JUMP JUMPDEST SWAP2 SWAP1 POP SSTORE POP JUMPDEST PUSH1 0x5 SLOAD PUSH1 0x4 SLOAD GT ISZERO PUSH2 0x7C6 JUMPI PUSH1 0x0 PUSH1 0x1 DUP1 SLOAD SWAP1 POP PUSH1 0x64 PUSH1 0x4 SLOAD PUSH2 0x76C SWAP2 SWAP1 PUSH2 0x11CC JUMP JUMPDEST PUSH2 0x776 SWAP2 SWAP1 PUSH2 0x123D JUMP JUMPDEST SWAP1 POP PUSH1 0x32 DUP2 GT ISZERO PUSH2 0x7C0 JUMPI PUSH1 0x40 MLOAD DUP1 PUSH1 0x40 ADD PUSH1 0x40 MSTORE DUP1 PUSH1 0x7 DUP2 MSTORE PUSH1 0x20 ADD PUSH32 0x596F752057696E00000000000000000000000000000000000000000000000000 DUP2 MSTORE POP SWAP3 POP POP POP PUSH2 0x891 JUMP JUMPDEST POP PUSH2 0x833 JUMP JUMPDEST PUSH1 0x0 PUSH1 0x1 DUP1 SLOAD SWAP1 POP PUSH1 0x64 PUSH1 0x5 SLOAD PUSH2 0x7DD SWAP2 SWAP1 PUSH2 0x11CC JUMP JUMPDEST PUSH2 0x7E7 SWAP2 SWAP1 PUSH2 0x123D JUMP JUMPDEST SWAP1 POP PUSH1 0x32 DUP2 GT ISZERO PUSH2 0x831 JUMPI PUSH1 0x40 MLOAD DUP1 PUSH1 0x40 ADD PUSH1 0x40 MSTORE DUP1 PUSH1 0x8 DUP2 MSTORE PUSH1 0x20 ADD PUSH32 0x596F75204C6F7365000000000000000000000000000000000000000000000000 DUP2 MSTORE POP SWAP3 POP POP POP PUSH2 0x891 JUMP JUMPDEST POP JUMPDEST JUMPDEST DUP1 DUP1 PUSH2 0x83F SWAP1 PUSH2 0x1184 JUMP JUMPDEST SWAP2 POP POP PUSH2 0x5B1 JUMP JUMPDEST POP PUSH1 0x5 SLOAD PUSH1 0x4 SLOAD SUB PUSH2 0x890 JUMPI PUSH1 0x40 MLOAD DUP1 PUSH1 0x40 ADD PUSH1 0x40 MSTORE DUP1 PUSH1 0x4 DUP2 MSTORE PUSH1 0x20 ADD PUSH32 0x5469656400000000000000000000000000000000000000000000000000000000 DUP2 MSTORE POP SWAP1 POP PUSH2 0x891 JUMP JUMPDEST JUMPDEST SWAP1 JUMP JUMPDEST PUSH1 0x60 PUSH1 0x3 DUP3 GT ISZERO PUSH2 0x8DA JUMPI PUSH1 0x40 MLOAD PUSH32 0x8C379A000000000000000000000000000000000000000000000000000000000 DUP2 MSTORE PUSH1 0x4 ADD PUSH2 0x8D1 SWAP1 PUSH2 0x10D2 JUMP JUMPDEST PUSH1 0x40 MLOAD DUP1 SWAP2 SUB SWAP1 REVERT JUMPDEST PUSH1 0x1 DUP3 SWAP1 DUP1 PUSH1 0x1 DUP2 SLOAD ADD DUP1 DUP3 SSTORE DUP1 SWAP2 POP POP PUSH1 0x1 SWAP1 SUB SWAP1 PUSH1 0x0 MSTORE PUSH1 0x20 PUSH1 0x0 KECCAK256 ADD PUSH1 0x0 SWAP1 SWAP2 SWAP1 SWAP2 SWAP1 SWAP2 POP SSTORE PUSH1 0x1 DUP1 SLOAD DUP1 PUSH1 0x20 MUL PUSH1 0x20 ADD PUSH1 0x40 MLOAD SWAP1 DUP2 ADD PUSH1 0x40 MSTORE DUP1 SWAP3 SWAP2 SWAP1 DUP2 DUP2 MSTORE PUSH1 0x20 ADD DUP3 DUP1 SLOAD DUP1 ISZERO PUSH2 0x94F JUMPI PUSH1 0x20 MUL DUP3 ADD SWAP2 SWAP1 PUSH1 0x0 MSTORE PUSH1 0x20 PUSH1 0x0 KECCAK256 SWAP1 JUMPDEST DUP2 SLOAD DUP2 MSTORE PUSH1 0x20 ADD SWAP1 PUSH1 0x1 ADD SWAP1 DUP1 DUP4 GT PUSH2 0x93B JUMPI JUMPDEST POP POP POP POP POP SWAP1 POP SWAP2 SWAP1 POP JUMP JUMPDEST PUSH1 0x60 PUSH1 0x0 PUSH2 0x967 PUSH2 0xB76 JUMP JUMPDEST SWAP1 POP DUP1 PUSH1 0x0 DUP2 SWAP1 SSTORE POP PUSH1 0x3 DUP4 GT ISZERO PUSH2 0x9B4 JUMPI PUSH1 0x40 MLOAD PUSH32 0x8C379A000000000000000000000000000000000000000000000000000000000 DUP2 MSTORE PUSH1 0x4 ADD PUSH2 0x9AB SWAP1 PUSH2 0x10D2 JUMP JUMPDEST PUSH1 0x40 MLOAD DUP1 SWAP2 SUB SWAP1 REVERT JUMPDEST DUP1 DUP4 SUB PUSH2 0x9F9 JUMPI PUSH1 0x40 MLOAD DUP1 PUSH1 0x40 ADD PUSH1 0x40 MSTORE DUP1 PUSH1 0x4 DUP2 MSTORE PUSH1 0x20 ADD PUSH32 0x5469656400000000000000000000000000000000000000000000000000000000 DUP2 MSTORE POP SWAP2 POP POP PUSH2 0xAB4 JUMP JUMPDEST PUSH1 0x1 DUP4 EQ DUP1 ISZERO PUSH2 0xA09 JUMPI POP PUSH1 0x2 DUP2 EQ JUMPDEST DUP1 PUSH2 0xA20 JUMPI POP PUSH1 0x3 DUP4 EQ DUP1 ISZERO PUSH2 0xA1F JUMPI POP PUSH1 0x1 DUP2 EQ JUMPDEST JUMPDEST DUP1 PUSH2 0xA37 JUMPI POP PUSH1 0x2 DUP4 EQ DUP1 ISZERO PUSH2 0xA36 JUMPI POP PUSH1 0x3 DUP2 EQ JUMPDEST JUMPDEST ISZERO PUSH2 0xA7A JUMPI PUSH1 0x40 MLOAD DUP1 PUSH1 0x40 ADD PUSH1 0x40 MSTORE DUP1 PUSH1 0x8 DUP2 MSTORE PUSH1 0x20 ADD PUSH32 0x596F75206C6F7365000000000000000000000000000000000000000000000000 DUP2 MSTORE POP SWAP2 POP POP PUSH2 0xAB4 JUMP JUMPDEST PUSH1 0x40 MLOAD DUP1 PUSH1 0x40 ADD PUSH1 0x40 MSTORE DUP1 PUSH1 0x7 DUP2 MSTORE PUSH1 0x20 ADD PUSH32 0x596F7520776F6E00000000000000000000000000000000000000000000000000 DUP2 MSTORE POP SWAP2 POP POP JUMPDEST SWAP2 SWAP1 POP JUMP JUMPDEST PUSH1 0x60 PUSH1 0x2 DUP1 SLOAD DUP1 PUSH1 0x20 MUL PUSH1 0x20 ADD PUSH1 0x40 MLOAD SWAP1 DUP2 ADD PUSH1 0x40 MSTORE DUP1 SWAP3 SWAP2 SWAP1 DUP2 DUP2 MSTORE PUSH1 0x20 ADD DUP3 DUP1 SLOAD DUP1 ISZERO PUSH2 0xB07 JUMPI PUSH1 0x20 MUL DUP3 ADD SWAP2 SWAP1 PUSH1 0x0 MSTORE PUSH1 0x20 PUSH1 0x0 KECCAK256 SWAP1 JUMPDEST DUP2 SLOAD DUP2 MSTORE PUSH1 0x20 ADD SWAP1 PUSH1 0x1 ADD SWAP1 DUP1 DUP4 GT PUSH2 0xAF3 JUMPI JUMPDEST POP POP POP POP POP SWAP1 POP SWAP1 JUMP JUMPDEST PUSH1 0x6 SLOAD DUP2 JUMP JUMPDEST PUSH1 0x4 SLOAD DUP2 JUMP JUMPDEST PUSH1 0x0 DUP2 PUSH1 0x40 MLOAD PUSH1 0x20 ADD PUSH2 0xB30 SWAP2 SWAP1 PUSH2 0x12AA JUMP JUMPDEST PUSH1 0x40 MLOAD PUSH1 0x20 DUP2 DUP4 SUB SUB DUP2 MSTORE SWAP1 PUSH1 0x40 MSTORE DUP1 MLOAD SWAP1 PUSH1 0x20 ADD KECCAK256 DUP4 PUSH1 0x40 MLOAD PUSH1 0x20 ADD PUSH2 0xB57 SWAP2 SWAP1 PUSH2 0x12AA JUMP JUMPDEST PUSH1 0x40 MLOAD PUSH1 0x20 DUP2 DUP4 SUB SUB DUP2 MSTORE SWAP1 PUSH1 0x40 MSTORE DUP1 MLOAD SWAP1 PUSH1 0x20 ADD KECCAK256 EQ SWAP1 POP SWAP3 SWAP2 POP POP JUMP JUMPDEST PUSH1 0x0 DUP1 TIMESTAMP PREVRANDAO PUSH1 0x1 NUMBER PUSH2 0xB88 SWAP2 SWAP1 PUSH2 0x12C1 JUMP JUMPDEST BLOCKHASH PUSH1 0x40 MLOAD PUSH1 0x20 ADD PUSH2 0xB9B SWAP4 SWAP3 SWAP2 SWAP1 PUSH2 0x1341 JUMP JUMPDEST PUSH1 0x40 MLOAD PUSH1 0x20 DUP2 DUP4 SUB SUB DUP2 MSTORE SWAP1 PUSH1 0x40 MSTORE DUP1 MLOAD SWAP1 PUSH1 0x20 ADD KECCAK256 PUSH1 0x0 SHR SWAP1 POP PUSH1 0x0 DUP2 PUSH1 0x3 SLOAD PUSH1 0x40 MLOAD PUSH1 0x20 ADD PUSH2 0xBCD SWAP3 SWAP2 SWAP1 PUSH2 0x137E JUMP JUMPDEST PUSH1 0x40 MLOAD PUSH1 0x20 DUP2 DUP4 SUB SUB DUP2 MSTORE SWAP1 PUSH1 0x40 MSTORE DUP1 MLOAD SWAP1 PUSH1 0x20 ADD KECCAK256 PUSH1 0x0 SHR SWAP1 POP PUSH1 0x1 PUSH1 0x3 PUSH1 0x0 DUP3 DUP3 SLOAD PUSH2 0xBFB SWAP2 SWAP1 PUSH2 0x1150 JUMP JUMPDEST SWAP3 POP POP DUP2 SWAP1 SSTORE POP PUSH1 0x1 PUSH1 0x3 DUP3 PUSH2 0xC11 SWAP2 SWAP1 PUSH2 0x13AA JUMP JUMPDEST PUSH2 0xC1B SWAP2 SWAP1 PUSH2 0x1150 JUMP JUMPDEST SWAP3 POP POP POP SWAP1 JUMP JUMPDEST PUSH1 0x1 PUSH1 0x0 PUSH2 0xC30 SWAP2 SWAP1 PUSH2 0xC32 JUMP JUMPDEST JUMP JUMPDEST POP DUP1 SLOAD PUSH1 0x0 DUP3 SSTORE SWAP1 PUSH1 0x0 MSTORE PUSH1 0x20 PUSH1 0x0 KECCAK256 SWAP1 DUP2 ADD SWAP1 PUSH2 0xC50 SWAP2 SWAP1 PUSH2 0xC53 JUMP JUMPDEST POP JUMP JUMPDEST JUMPDEST DUP1 DUP3 GT ISZERO PUSH2 0xC6C JUMPI PUSH1 0x0 DUP2 PUSH1 0x0 SWAP1 SSTORE POP PUSH1 0x1 ADD PUSH2 0xC54 JUMP JUMPDEST POP SWAP1 JUMP JUMPDEST PUSH1 0x0 DUP2 SWAP1 POP SWAP2 SWAP1 POP JUMP JUMPDEST PUSH2 0xC83 DUP2 PUSH2 0xC70 JUMP JUMPDEST DUP3 MSTORE POP POP JUMP JUMPDEST PUSH1 0x0 PUSH1 0x20 DUP3 ADD SWAP1 POP PUSH2 0xC9E PUSH1 0x0 DUP4 ADD DUP5 PUSH2 0xC7A JUMP JUMPDEST SWAP3 SWAP2 POP POP JUMP JUMPDEST PUSH1 0x0 PUSH1 0x40 MLOAD SWAP1 POP SWAP1 JUMP JUMPDEST PUSH1 0x0 DUP1 REVERT JUMPDEST PUSH1 0x0 DUP1 REVERT JUMPDEST PUSH2 0xCC1 DUP2 PUSH2 0xC70 JUMP JUMPDEST DUP2 EQ PUSH2 0xCCC JUMPI PUSH1 0x0 DUP1 REVERT JUMPDEST POP JUMP JUMPDEST PUSH1 0x0 DUP2 CALLDATALOAD SWAP1 POP PUSH2 0xCDE DUP2 PUSH2 0xCB8 JUMP JUMPDEST SWAP3 SWAP2 POP POP JUMP JUMPDEST PUSH1 0x0 PUSH1 0x20 DUP3 DUP5 SUB SLT ISZERO PUSH2 0xCFA JUMPI PUSH2 0xCF9 PUSH2 0xCAE JUMP JUMPDEST JUMPDEST PUSH1 0x0 PUSH2 0xD08 DUP5 DUP3 DUP6 ADD PUSH2 0xCCF JUMP JUMPDEST SWAP2 POP POP SWAP3 SWAP2 POP POP JUMP JUMPDEST PUSH1 0x0 DUP2 MLOAD SWAP1 POP SWAP2 SWAP1 POP JUMP JUMPDEST PUSH1 0x0 DUP3 DUP3 MSTORE PUSH1 0x20 DUP3 ADD SWAP1 POP SWAP3 SWAP2 POP POP JUMP JUMPDEST PUSH1 0x0 JUMPDEST DUP4 DUP2 LT ISZERO PUSH2 0xD4B JUMPI DUP1 DUP3 ADD MLOAD DUP2 DUP5 ADD MSTORE PUSH1 0x20 DUP2 ADD SWAP1 POP PUSH2 0xD30 JUMP JUMPDEST PUSH1 0x0 DUP5 DUP5 ADD MSTORE POP POP POP POP JUMP JUMPDEST PUSH1 0x0 PUSH1 0x1F NOT PUSH1 0x1F DUP4 ADD AND SWAP1 POP SWAP2 SWAP1 POP JUMP JUMPDEST PUSH1 0x0 PUSH2 0xD73 DUP3 PUSH2 0xD11 JUMP JUMPDEST PUSH2 0xD7D DUP2 DUP6 PUSH2 0xD1C JUMP JUMPDEST SWAP4 POP PUSH2 0xD8D DUP2 DUP6 PUSH1 0x20 DUP7 ADD PUSH2 0xD2D JUMP JUMPDEST PUSH2 0xD96 DUP2 PUSH2 0xD57 JUMP JUMPDEST DUP5 ADD SWAP2 POP POP SWAP3 SWAP2 POP POP JUMP JUMPDEST PUSH1 0x0 PUSH1 0x20 DUP3 ADD SWAP1 POP DUP2 DUP2 SUB PUSH1 0x0 DUP4 ADD MSTORE PUSH2 0xDBB DUP2 DUP5 PUSH2 0xD68 JUMP JUMPDEST SWAP1 POP SWAP3 SWAP2 POP POP JUMP JUMPDEST PUSH1 0x0 DUP2 MLOAD SWAP1 POP SWAP2 SWAP1 POP JUMP JUMPDEST PUSH1 0x0 DUP3 DUP3 MSTORE PUSH1 0x20 DUP3 ADD SWAP1 POP SWAP3 SWAP2 POP POP JUMP JUMPDEST PUSH1 0x0 DUP2 SWAP1 POP PUSH1 0x20 DUP3 ADD SWAP1 POP SWAP2 SWAP1 POP JUMP JUMPDEST PUSH2 0xDF8 DUP2 PUSH2 0xC70 JUMP JUMPDEST DUP3 MSTORE POP POP JUMP JUMPDEST PUSH1 0x0 PUSH2 0xE0A DUP4 DUP4 PUSH2 0xDEF JUMP JUMPDEST PUSH1 0x20 DUP4 ADD SWAP1 POP SWAP3 SWAP2 POP POP JUMP JUMPDEST PUSH1 0x0 PUSH1 0x20 DUP3 ADD SWAP1 POP SWAP2 SWAP1 POP JUMP JUMPDEST PUSH1 0x0 PUSH2 0xE2E DUP3 PUSH2 0xDC3 JUMP JUMPDEST PUSH2 0xE38 DUP2 DUP6 PUSH2 0xDCE JUMP JUMPDEST SWAP4 POP PUSH2 0xE43 DUP4 PUSH2 0xDDF JUMP JUMPDEST DUP1 PUSH1 0x0 JUMPDEST DUP4 DUP2 LT ISZERO PUSH2 0xE74 JUMPI DUP2 MLOAD PUSH2 0xE5B DUP9 DUP3 PUSH2 0xDFE JUMP JUMPDEST SWAP8 POP PUSH2 0xE66 DUP4 PUSH2 0xE16 JUMP JUMPDEST SWAP3 POP POP PUSH1 0x1 DUP2 ADD SWAP1 POP PUSH2 0xE47 JUMP JUMPDEST POP DUP6 SWAP4 POP POP POP POP SWAP3 SWAP2 POP POP JUMP JUMPDEST PUSH1 0x0 PUSH1 0x20 DUP3 ADD SWAP1 POP DUP2 DUP2 SUB PUSH1 0x0 DUP4 ADD MSTORE PUSH2 0xE9B DUP2 DUP5 PUSH2 0xE23 JUMP JUMPDEST SWAP1 POP SWAP3 SWAP2 POP POP JUMP JUMPDEST PUSH1 0x0 DUP1 REVERT JUMPDEST PUSH1 0x0 DUP1 REVERT JUMPDEST PUSH32 0x4E487B7100000000000000000000000000000000000000000000000000000000 PUSH1 0x0 MSTORE PUSH1 0x41 PUSH1 0x4 MSTORE PUSH1 0x24 PUSH1 0x0 REVERT JUMPDEST PUSH2 0xEE5 DUP3 PUSH2 0xD57 JUMP JUMPDEST DUP2 ADD DUP2 DUP2 LT PUSH8 0xFFFFFFFFFFFFFFFF DUP3 GT OR ISZERO PUSH2 0xF04 JUMPI PUSH2 0xF03 PUSH2 0xEAD JUMP JUMPDEST JUMPDEST DUP1 PUSH1 0x40 MSTORE POP POP POP JUMP JUMPDEST PUSH1 0x0 PUSH2 0xF17 PUSH2 0xCA4 JUMP JUMPDEST SWAP1 POP PUSH2 0xF23 DUP3 DUP3 PUSH2 0xEDC JUMP JUMPDEST SWAP2 SWAP1 POP JUMP JUMPDEST PUSH1 0x0 PUSH8 0xFFFFFFFFFFFFFFFF DUP3 GT ISZERO PUSH2 0xF43 JUMPI PUSH2 0xF42 PUSH2 0xEAD JUMP JUMPDEST JUMPDEST PUSH2 0xF4C DUP3 PUSH2 0xD57 JUMP JUMPDEST SWAP1 POP PUSH1 0x20 DUP2 ADD SWAP1 POP SWAP2 SWAP1 POP JUMP JUMPDEST DUP3 DUP2 DUP4 CALLDATACOPY PUSH1 0x0 DUP4 DUP4 ADD MSTORE POP POP POP JUMP JUMPDEST PUSH1 0x0 PUSH2 0xF7B PUSH2 0xF76 DUP5 PUSH2 0xF28 JUMP JUMPDEST PUSH2 0xF0D JUMP JUMPDEST SWAP1 POP DUP3 DUP2 MSTORE PUSH1 0x20 DUP2 ADD DUP5 DUP5 DUP5 ADD GT ISZERO PUSH2 0xF97 JUMPI PUSH2 0xF96 PUSH2 0xEA8 JUMP JUMPDEST JUMPDEST PUSH2 0xFA2 DUP5 DUP3 DUP6 PUSH2 0xF59 JUMP JUMPDEST POP SWAP4 SWAP3 POP POP POP JUMP JUMPDEST PUSH1 0x0 DUP3 PUSH1 0x1F DUP4 ADD SLT PUSH2 0xFBF JUMPI PUSH2 0xFBE PUSH2 0xEA3 JUMP JUMPDEST JUMPDEST DUP2 CALLDATALOAD PUSH2 0xFCF DUP5 DUP3 PUSH1 0x20 DUP7 ADD PUSH2 0xF68 JUMP JUMPDEST SWAP2 POP POP SWAP3 SWAP2 POP POP JUMP JUMPDEST PUSH1 0x0 DUP1 PUSH1 0x40 DUP4 DUP6 SUB SLT ISZERO PUSH2 0xFEF JUMPI PUSH2 0xFEE PUSH2 0xCAE JUMP JUMPDEST JUMPDEST PUSH1 0x0 DUP4 ADD CALLDATALOAD PUSH8 0xFFFFFFFFFFFFFFFF DUP2 GT ISZERO PUSH2 0x100D JUMPI PUSH2 0x100C PUSH2 0xCB3 JUMP JUMPDEST JUMPDEST PUSH2 0x1019 DUP6 DUP3 DUP7 ADD PUSH2 0xFAA JUMP JUMPDEST SWAP3 POP POP PUSH1 0x20 DUP4 ADD CALLDATALOAD PUSH8 0xFFFFFFFFFFFFFFFF DUP2 GT ISZERO PUSH2 0x103A JUMPI PUSH2 0x1039 PUSH2 0xCB3 JUMP JUMPDEST JUMPDEST PUSH2 0x1046 DUP6 DUP3 DUP7 ADD PUSH2 0xFAA JUMP JUMPDEST SWAP2 POP POP SWAP3 POP SWAP3 SWAP1 POP JUMP JUMPDEST PUSH1 0x0 DUP2 ISZERO ISZERO SWAP1 POP SWAP2 SWAP1 POP JUMP JUMPDEST PUSH2 0x1065 DUP2 PUSH2 0x1050 JUMP JUMPDEST DUP3 MSTORE POP POP JUMP JUMPDEST PUSH1 0x0 PUSH1 0x20 DUP3 ADD SWAP1 POP PUSH2 0x1080 PUSH1 0x0 DUP4 ADD DUP5 PUSH2 0x105C JUMP JUMPDEST SWAP3 SWAP2 POP POP JUMP JUMPDEST PUSH32 0x4572726F723A2043616E277420696E707574206D6F7265207468616E20330000 PUSH1 0x0 DUP3 ADD MSTORE POP JUMP JUMPDEST PUSH1 0x0 PUSH2 0x10BC PUSH1 0x1E DUP4 PUSH2 0xD1C JUMP JUMPDEST SWAP2 POP PUSH2 0x10C7 DUP3 PUSH2 0x1086 JUMP JUMPDEST PUSH1 0x20 DUP3 ADD SWAP1 POP SWAP2 SWAP1 POP JUMP JUMPDEST PUSH1 0x0 PUSH1 0x20 DUP3 ADD SWAP1 POP DUP2 DUP2 SUB PUSH1 0x0 DUP4 ADD MSTORE PUSH2 0x10EB DUP2 PUSH2 0x10AF JUMP JUMPDEST SWAP1 POP SWAP2 SWAP1 POP JUMP JUMPDEST PUSH32 0x4E487B7100000000000000000000000000000000000000000000000000000000 PUSH1 0x0 MSTORE PUSH1 0x32 PUSH1 0x4 MSTORE PUSH1 0x24 PUSH1 0x0 REVERT JUMPDEST PUSH32 0x4E487B7100000000000000000000000000000000000000000000000000000000 PUSH1 0x0 MSTORE PUSH1 0x11 PUSH1 0x4 MSTORE PUSH1 0x24 PUSH1 0x0 REVERT JUMPDEST PUSH1 0x0 PUSH2 0x115B DUP3 PUSH2 0xC70 JUMP JUMPDEST SWAP2 POP PUSH2 0x1166 DUP4 PUSH2 0xC70 JUMP JUMPDEST SWAP3 POP DUP3 DUP3 ADD SWAP1 POP DUP1 DUP3 GT ISZERO PUSH2 0x117E JUMPI PUSH2 0x117D PUSH2 0x1121 JUMP JUMPDEST JUMPDEST SWAP3 SWAP2 POP POP JUMP JUMPDEST PUSH1 0x0 PUSH2 0x118F DUP3 PUSH2 0xC70 JUMP JUMPDEST SWAP2 POP PUSH32 0xFFFFFFFFFFFFFFFFFFFFFFFFFFFFFFFFFFFFFFFFFFFFFFFFFFFFFFFFFFFFFFFF DUP3 SUB PUSH2 0x11C1 JUMPI PUSH2 0x11C0 PUSH2 0x1121 JUMP JUMPDEST JUMPDEST PUSH1 0x1 DUP3 ADD SWAP1 POP SWAP2 SWAP1 POP JUMP JUMPDEST PUSH1 0x0 PUSH2 0x11D7 DUP3 PUSH2 0xC70 JUMP JUMPDEST SWAP2 POP PUSH2 0x11E2 DUP4 PUSH2 0xC70 JUMP JUMPDEST SWAP3 POP DUP3 DUP3 MUL PUSH2 0x11F0 DUP2 PUSH2 0xC70 JUMP JUMPDEST SWAP2 POP DUP3 DUP3 DIV DUP5 EQ DUP4 ISZERO OR PUSH2 0x1207 JUMPI PUSH2 0x1206 PUSH2 0x1121 JUMP JUMPDEST JUMPDEST POP SWAP3 SWAP2 POP POP JUMP JUMPDEST PUSH32 0x4E487B7100000000000000000000000000000000000000000000000000000000 PUSH1 0x0 MSTORE PUSH1 0x12 PUSH1 0x4 MSTORE PUSH1 0x24 PUSH1 0x0 REVERT JUMPDEST PUSH1 0x0 PUSH2 0x1248 DUP3 PUSH2 0xC70 JUMP JUMPDEST SWAP2 POP PUSH2 0x1253 DUP4 PUSH2 0xC70 JUMP JUMPDEST SWAP3 POP DUP3 PUSH2 0x1263 JUMPI PUSH2 0x1262 PUSH2 0x120E JUMP JUMPDEST JUMPDEST DUP3 DUP3 DIV SWAP1 POP SWAP3 SWAP2 POP POP JUMP JUMPDEST PUSH1 0x0 DUP2 SWAP1 POP SWAP3 SWAP2 POP POP JUMP JUMPDEST PUSH1 0x0 PUSH2 0x1284 DUP3 PUSH2 0xD11 JUMP JUMPDEST PUSH2 0x128E DUP2 DUP6 PUSH2 0x126E JUMP JUMPDEST SWAP4 POP PUSH2 0x129E DUP2 DUP6 PUSH1 0x20 DUP7 ADD PUSH2 0xD2D JUMP JUMPDEST DUP1 DUP5 ADD SWAP2 POP POP SWAP3 SWAP2 POP POP JUMP JUMPDEST PUSH1 0x0 PUSH2 0x12B6 DUP3 DUP5 PUSH2 0x1279 JUMP JUMPDEST SWAP2 POP DUP2 SWAP1 POP SWAP3 SWAP2 POP POP JUMP JUMPDEST PUSH1 0x0 PUSH2 0x12CC DUP3 PUSH2 0xC70 JUMP JUMPDEST SWAP2 POP PUSH2 0x12D7 DUP4 PUSH2 0xC70 JUMP JUMPDEST SWAP3 POP DUP3 DUP3 SUB SWAP1 POP DUP2 DUP2 GT ISZERO PUSH2 0x12EF JUMPI PUSH2 0x12EE PUSH2 0x1121 JUMP JUMPDEST JUMPDEST SWAP3 SWAP2 POP POP JUMP JUMPDEST PUSH1 0x0 DUP2 SWAP1 POP SWAP2 SWAP1 POP JUMP JUMPDEST PUSH2 0x1310 PUSH2 0x130B DUP3 PUSH2 0xC70 JUMP JUMPDEST PUSH2 0x12F5 JUMP JUMPDEST DUP3 MSTORE POP POP JUMP JUMPDEST PUSH1 0x0 DUP2 SWAP1 POP SWAP2 SWAP1 POP JUMP JUMPDEST PUSH1 0x0 DUP2 SWAP1 POP SWAP2 SWAP1 POP JUMP JUMPDEST PUSH2 0x133B PUSH2 0x1336 DUP3 PUSH2 0x1316 JUMP JUMPDEST PUSH2 0x1320 JUMP JUMPDEST DUP3 MSTORE POP POP JUMP JUMPDEST PUSH1 0x0 PUSH2 0x134D DUP3 DUP7 PUSH2 0x12FF JUMP JUMPDEST PUSH1 0x20 DUP3 ADD SWAP2 POP PUSH2 0x135D DUP3 DUP6 PUSH2 0x12FF JUMP JUMPDEST PUSH1 0x20 DUP3 ADD SWAP2 POP PUSH2 0x136D DUP3 DUP5 PUSH2 0x132A JUMP JUMPDEST PUSH1 0x20 DUP3 ADD SWAP2 POP DUP2 SWAP1 POP SWAP5 SWAP4 POP POP POP POP JUMP JUMPDEST PUSH1 0x0 PUSH2 0x138A DUP3 DUP6 PUSH2 0x12FF JUMP JUMPDEST PUSH1 0x20 DUP3 ADD SWAP2 POP PUSH2 0x139A DUP3 DUP5 PUSH2 0x12FF JUMP JUMPDEST PUSH1 0x20 DUP3 ADD SWAP2 POP DUP2 SWAP1 POP SWAP4 SWAP3 POP POP POP JUMP JUMPDEST PUSH1 0x0 PUSH2 0x13B5 DUP3 PUSH2 0xC70 JUMP JUMPDEST SWAP2 POP PUSH2 0x13C0 DUP4 PUSH2 0xC70 JUMP JUMPDEST SWAP3 POP DUP3 PUSH2 0x13D0 JUMPI PUSH2 0x13CF PUSH2 0x120E JUMP JUMPDEST JUMPDEST DUP3 DUP3 MOD SWAP1 POP SWAP3 SWAP2 POP POP JUMP INVALID LOG2 PUSH5 0x6970667358 0x22 SLT KECCAK256 SWAP2 CALLDATASIZE EXTCODESIZE PUSH27 0x7F0A1303B6A8D6FFE08F34B2A73C358048B6509461EB9E50C4681 DIV PUSH5 0x736F6C6343 STOP ADDMOD SGT STOP CALLER "
				},
				"gasEstimates": {
					"creation": {
						"codeDepositCost": "1027400",
						"executionCost": "23173",
						"totalCost": "1050573"
					},
					"external": {
						"Options(uint256)": "infinite",
						"cleanAll()": "infinite",
						"compareStrings(string,string)": "infinite",
						"enterOption(uint256)": "infinite",
						"getRandomNumber()": "infinite",
						"getRandomSet()": "infinite",
						"guessResult(uint256)": "infinite",
						"lastChoice()": "2453",
						"play(uint256)": "infinite",
						"playMutiTimes()": "infinite",
						"randomNumSet(uint256)": "infinite",
						"systemWin()": "2475",
						"tied()": "2496",
						"userWin()": "2451"
					}
				},
				"methodIdentifiers": {
					"Options(uint256)": "12220fe3",
					"cleanAll()": "f6320567",
					"compareStrings(string,string)": "bed34bba",
					"enterOption(uint256)": "614b3757",
					"getRandomNumber()": "dbdff2c1",
					"getRandomSet()": "6ca495e2",
					"guessResult(uint256)": "1123d9b1",
					"lastChoice()": "010711e3",
					"play(uint256)": "6898f82b",
					"playMutiTimes()": "58da9da8",
					"randomNumSet(uint256)": "233a1a76",
					"systemWin()": "060aa4ce",
					"tied()": "94227ea7",
					"userWin()": "ba162868"
				}
			},
			"storageLayout": {
				"storage": [
					{
						"astId": 3,
						"contract": "Practical2-RockPaperScissors-Jason.sol:RockPaperScissors",
						"label": "lastChoice",
						"offset": 0,
						"slot": "0",
						"type": "t_uint256"
					},
					{
						"astId": 6,
						"contract": "Practical2-RockPaperScissors-Jason.sol:RockPaperScissors",
						"label": "Options",
						"offset": 0,
						"slot": "1",
						"type": "t_array(t_uint256)dyn_storage"
					},
					{
						"astId": 9,
						"contract": "Practical2-RockPaperScissors-Jason.sol:RockPaperScissors",
						"label": "randomNumSet",
						"offset": 0,
						"slot": "2",
						"type": "t_array(t_uint256)dyn_storage"
					},
					{
						"astId": 12,
						"contract": "Practical2-RockPaperScissors-Jason.sol:RockPaperScissors",
						"label": "salt",
						"offset": 0,
						"slot": "3",
						"type": "t_uint256"
					},
					{
						"astId": 14,
						"contract": "Practical2-RockPaperScissors-Jason.sol:RockPaperScissors",
						"label": "userWin",
						"offset": 0,
						"slot": "4",
						"type": "t_uint256"
					},
					{
						"astId": 16,
						"contract": "Practical2-RockPaperScissors-Jason.sol:RockPaperScissors",
						"label": "systemWin",
						"offset": 0,
						"slot": "5",
						"type": "t_uint256"
					},
					{
						"astId": 18,
						"contract": "Practical2-RockPaperScissors-Jason.sol:RockPaperScissors",
						"label": "tied",
						"offset": 0,
						"slot": "6",
						"type": "t_uint256"
					}
				],
				"types": {
					"t_array(t_uint256)dyn_storage": {
						"base": "t_uint256",
						"encoding": "dynamic_array",
						"label": "uint256[]",
						"numberOfBytes": "32"
					},
					"t_uint256": {
						"encoding": "inplace",
						"label": "uint256",
						"numberOfBytes": "32"
					}
				}
			},
			"userdoc": {
				"kind": "user",
				"methods": {},
				"version": 1
			}
		}
	}
}