{
	"Prectical5-Tick-Tack-Toe-More-Jason.sol": {
		"TickTackToe": {
			"abi": [
				{
					"anonymous": false,
					"inputs": [
						{
							"indexed": false,
							"internalType": "string",
							"name": "next",
							"type": "string"
						}
					],
					"name": "nextUesrStr",
					"type": "event"
				},
				{
					"anonymous": false,
					"inputs": [
						{
							"indexed": false,
							"internalType": "address",
							"name": "nextUser",
							"type": "address"
						}
					],
					"name": "nextUser",
					"type": "event"
				},
				{
					"anonymous": false,
					"inputs": [
						{
							"indexed": false,
							"internalType": "string",
							"name": "initPLayer",
							"type": "string"
						}
					],
					"name": "resetUI",
					"type": "event"
				},
				{
					"anonymous": false,
					"inputs": [
						{
							"indexed": false,
							"internalType": "address",
							"name": "player1Address",
							"type": "address"
						}
					],
					"name": "showFirstPlayer",
					"type": "event"
				},
				{
					"anonymous": false,
					"inputs": [
						{
							"indexed": false,
							"internalType": "string",
							"name": "result",
							"type": "string"
						}
					],
					"name": "showResult",
					"type": "event"
				},
				{
					"anonymous": false,
					"inputs": [
						{
							"indexed": false,
							"internalType": "string",
							"name": "message",
							"type": "string"
						},
						{
							"indexed": false,
							"internalType": "address",
							"name": "player1",
							"type": "address"
						},
						{
							"indexed": false,
							"internalType": "address",
							"name": "player2",
							"type": "address"
						}
					],
					"name": "startGame",
					"type": "event"
				},
				{
					"anonymous": false,
					"inputs": [
						{
							"components": [
								{
									"internalType": "bool",
									"name": "_activate",
									"type": "bool"
								},
								{
									"internalType": "string",
									"name": "_currentPlayer",
									"type": "string"
								},
								{
									"internalType": "string[]",
									"name": "_options",
									"type": "string[]"
								},
								{
									"internalType": "uint256[]",
									"name": "_finalWinOption",
									"type": "uint256[]"
								},
								{
									"internalType": "address",
									"name": "_player1address",
									"type": "address"
								},
								{
									"internalType": "address",
									"name": "_player2address",
									"type": "address"
								},
								{
									"internalType": "uint256",
									"name": "_playerCount",
									"type": "uint256"
								},
								{
									"internalType": "address",
									"name": "_winer",
									"type": "address"
								}
							],
							"indexed": false,
							"internalType": "struct TickTackToe.GameInfo",
							"name": "",
							"type": "tuple"
						}
					],
					"name": "testing",
					"type": "event"
				},
				{
					"anonymous": false,
					"inputs": [
						{
							"indexed": false,
							"internalType": "string[]",
							"name": "options",
							"type": "string[]"
						}
					],
					"name": "updateUI",
					"type": "event"
				},
				{
					"inputs": [
						{
							"internalType": "string",
							"name": "a",
							"type": "string"
						},
						{
							"internalType": "string",
							"name": "b",
							"type": "string"
						}
					],
					"name": "compareStrings",
					"outputs": [
						{
							"internalType": "bool",
							"name": "",
							"type": "bool"
						}
					],
					"stateMutability": "pure",
					"type": "function"
				},
				{
					"inputs": [],
					"name": "createGameRoom",
					"outputs": [],
					"stateMutability": "nonpayable",
					"type": "function"
				},
				{
					"inputs": [
						{
							"internalType": "uint256",
							"name": "",
							"type": "uint256"
						}
					],
					"name": "gameInformation",
					"outputs": [
						{
							"internalType": "bool",
							"name": "_activate",
							"type": "bool"
						},
						{
							"internalType": "string",
							"name": "_currentPlayer",
							"type": "string"
						},
						{
							"internalType": "address",
							"name": "_player1address",
							"type": "address"
						},
						{
							"internalType": "address",
							"name": "_player2address",
							"type": "address"
						},
						{
							"internalType": "uint256",
							"name": "_playerCount",
							"type": "uint256"
						},
						{
							"internalType": "address",
							"name": "_winer",
							"type": "address"
						}
					],
					"stateMutability": "view",
					"type": "function"
				},
				{
					"inputs": [
						{
							"internalType": "uint256",
							"name": "gameId",
							"type": "uint256"
						}
					],
					"name": "joinGame",
					"outputs": [],
					"stateMutability": "nonpayable",
					"type": "function"
				},
				{
					"inputs": [
						{
							"internalType": "uint256",
							"name": "gameId",
							"type": "uint256"
						}
					],
					"name": "restartGame",
					"outputs": [],
					"stateMutability": "nonpayable",
					"type": "function"
				},
				{
					"inputs": [
						{
							"internalType": "uint256",
							"name": "input",
							"type": "uint256"
						},
						{
							"internalType": "uint256",
							"name": "gameId",
							"type": "uint256"
						}
					],
					"name": "userInput",
					"outputs": [],
					"stateMutability": "nonpayable",
					"type": "function"
				}
			],
			"devdoc": {
				"kind": "dev",
				"methods": {},
				"version": 1
			},
			"evm": {
				"assembly": "  0x00\n    /* \"Prectical5-Tick-Tack-Toe-More-Jason.sol\":980:1243  uint[][] private winConditionSet=  ... */\n  0x0180\n  dup2\n  dup2\n  mstore\n    /* \"Prectical5-Tick-Tack-Toe-More-Jason.sol\":1026:1027  1 */\n  0x01\n    /* \"Prectical5-Tick-Tack-Toe-More-Jason.sol\":980:1243  uint[][] private winConditionSet=  ... */\n  0x01a0\n  dup2\n  swap1\n  mstore\n    /* \"Prectical5-Tick-Tack-Toe-More-Jason.sol\":1029:1030  2 */\n  0x02\n    /* \"Prectical5-Tick-Tack-Toe-More-Jason.sol\":980:1243  uint[][] private winConditionSet=  ... */\n  0x01c0\n  dup2\n  swap1\n  mstore\n    /* \"Prectical5-Tick-Tack-Toe-More-Jason.sol\":60:9941  contract TickTackToe{... */\n  0x80\n    /* \"Prectical5-Tick-Tack-Toe-More-Jason.sol\":980:1243  uint[][] private winConditionSet=  ... */\n  swap3\n  dup4\n  mstore\n    /* \"Prectical5-Tick-Tack-Toe-More-Jason.sol\":1040:1041  3 */\n  0x03\n    /* \"Prectical5-Tick-Tack-Toe-More-Jason.sol\":980:1243  uint[][] private winConditionSet=  ... */\n  0x01e0\n  dup2\n  dup2\n  mstore\n    /* \"Prectical5-Tick-Tack-Toe-More-Jason.sol\":1043:1044  4 */\n  0x04\n    /* \"Prectical5-Tick-Tack-Toe-More-Jason.sol\":980:1243  uint[][] private winConditionSet=  ... */\n  0x0200\n  dup2\n  swap1\n  mstore\n    /* \"Prectical5-Tick-Tack-Toe-More-Jason.sol\":1046:1047  5 */\n  0x05\n    /* \"Prectical5-Tick-Tack-Toe-More-Jason.sol\":980:1243  uint[][] private winConditionSet=  ... */\n  0x0220\n  dup2\n  swap1\n  mstore\n  0xa0\n  swap3\n  swap1\n  swap3\n  mstore\n    /* \"Prectical5-Tick-Tack-Toe-More-Jason.sol\":1085:1086  6 */\n  0x06\n    /* \"Prectical5-Tick-Tack-Toe-More-Jason.sol\":980:1243  uint[][] private winConditionSet=  ... */\n  0x0240\n  dup2\n  dup2\n  mstore\n    /* \"Prectical5-Tick-Tack-Toe-More-Jason.sol\":1088:1089  7 */\n  0x07\n    /* \"Prectical5-Tick-Tack-Toe-More-Jason.sol\":980:1243  uint[][] private winConditionSet=  ... */\n  0x0260\n  dup2\n  swap1\n  mstore\n    /* \"Prectical5-Tick-Tack-Toe-More-Jason.sol\":1091:1092  8 */\n  0x08\n    /* \"Prectical5-Tick-Tack-Toe-More-Jason.sol\":980:1243  uint[][] private winConditionSet=  ... */\n  0x0280\n  dup2\n  swap1\n  mstore\n  0xc0\n  swap3\n  swap1\n  swap3\n  mstore\n  0x02a0\n  dup11\n  dup2\n  mstore\n  0x02c0\n  swap7\n  swap1\n  swap7\n  mstore\n  0x02e0\n  dup4\n  swap1\n  mstore\n  0xe0\n  swap6\n  swap1\n  swap6\n  mstore\n  0x0300\n  dup8\n  dup2\n  mstore\n  0x0320\n  dup5\n  swap1\n  mstore\n  0x0340\n  swap6\n  swap1\n  swap6\n  mstore\n  0x0100\n  swap5\n  swap1\n  swap5\n  mstore\n  0x0360\n  dup6\n  dup2\n  mstore\n  0x0380\n  swap4\n  swap1\n  swap4\n  mstore\n  0x03a0\n  dup5\n  swap1\n  mstore\n  0x0120\n  swap3\n  swap1\n  swap3\n  mstore\n  0x03c0\n  swap7\n  dup8\n  mstore\n  0x03e0\n  dup2\n  swap1\n  mstore\n  0x0400\n  dup4\n  swap1\n  mstore\n  0x0140\n  swap7\n  swap1\n  swap7\n  mstore\n  0x0480\n    /* \"Prectical5-Tick-Tack-Toe-More-Jason.sol\":60:9941  contract TickTackToe{... */\n  0x40\n    /* \"Prectical5-Tick-Tack-Toe-More-Jason.sol\":980:1243  uint[][] private winConditionSet=  ... */\n  mstore\n  0x0420\n  swap3\n  dup4\n  mstore\n  0x0440\n  swap6\n  swap1\n  swap6\n  mstore\n  0x0460\n  swap5\n  swap1\n  swap5\n  mstore\n  0x0160\n  mstore\n  tag_1\n  swap3\n    /* \"Prectical5-Tick-Tack-Toe-More-Jason.sol\":1026:1027  1 */\n  swap1\n  swap2\n    /* \"Prectical5-Tick-Tack-Toe-More-Jason.sol\":60:9941  contract TickTackToe{... */\n  swap1\n    /* \"Prectical5-Tick-Tack-Toe-More-Jason.sol\":980:1243  uint[][] private winConditionSet=  ... */\n  tag_2\n  jump\t// in\ntag_1:\n  pop\n    /* \"Prectical5-Tick-Tack-Toe-More-Jason.sol\":60:9941  contract TickTackToe{... */\n  callvalue\n  dup1\n  iszero\n  tag_3\n  jumpi\n  0x00\n  dup1\n  revert\ntag_3:\n  pop\n  jump(tag_4)\ntag_2:\n  dup3\n  dup1\n  sload\n  dup3\n  dup3\n  sstore\n  swap1\n  0x00\n  mstore\n  keccak256(0x00, 0x20)\n  swap1\n  dup2\n  add\n  swap3\n  dup3\n  iszero\n  tag_7\n  jumpi\n  swap2\n  0x20\n  mul\n  dup3\n  add\ntag_6:\n  dup3\n  dup2\n  gt\n  iszero\n  tag_7\n  jumpi\n  dup3\n  mload\n  tag_8\n  swap1\n  dup4\n  swap1\n  0x03\n  tag_9\n  jump\t// in\ntag_8:\n  pop\n  swap2\n  0x20\n  add\n  swap2\n  swap1\n  0x01\n  add\n  swap1\n  jump(tag_6)\ntag_7:\n  pop\n  tag_10\n  swap3\n  swap2\n  pop\n  tag_11\n  jump\t// in\ntag_10:\n  pop\n  swap1\n  jump\t// out\ntag_9:\n  dup3\n  dup1\n  sload\n  dup3\n  dup3\n  sstore\n  swap1\n  0x00\n  mstore\n  keccak256(0x00, 0x20)\n  swap1\n  dup2\n  add\n  swap3\n  dup3\n  iszero\n  tag_14\n  jumpi\n  swap2\n  0x20\n  mul\n  dup3\n  add\ntag_13:\n  dup3\n  dup2\n  gt\n  iszero\n  tag_14\n  jumpi\n  dup3\n  mload\n  dup3\n  swap1\n  0xff\n  and\n  swap1\n  sstore\n  swap2\n  0x20\n  add\n  swap2\n  swap1\n  0x01\n  add\n  swap1\n  jump(tag_13)\ntag_14:\n  pop\n  tag_10\n  swap3\n  swap2\n  pop\n  tag_16\n  jump\t// in\ntag_11:\n  dup1\n  dup3\n  gt\n  iszero\n  tag_10\n  jumpi\n  0x00\n  tag_19\n  dup3\n  dup3\n  tag_20\n  jump\t// in\ntag_19:\n  pop\n  0x01\n  add\n  jump(tag_11)\ntag_16:\ntag_21:\n  dup1\n  dup3\n  gt\n  iszero\n  tag_10\n  jumpi\n  0x00\n  dup2\n  sstore\n  0x01\n  add\n  jump(tag_21)\ntag_20:\n  pop\n  dup1\n  sload\n  0x00\n  dup3\n  sstore\n  swap1\n  0x00\n  mstore\n  keccak256(0x00, 0x20)\n  swap1\n  dup2\n  add\n  swap1\n  tag_24\n  swap2\n  swap1\n  tag_16\n  jump\t// in\ntag_24:\n  pop\n  jump\t// out\ntag_4:\n  dataSize(sub_0)\n  dup1\n  dataOffset(sub_0)\n  0x00\n  codecopy\n  0x00\n  return\nstop\n\nsub_0: assembly {\n        /* \"Prectical5-Tick-Tack-Toe-More-Jason.sol\":60:9941  contract TickTackToe{... */\n      mstore(0x40, 0x80)\n      callvalue\n      dup1\n      iszero\n      tag_1\n      jumpi\n      0x00\n      dup1\n      revert\n    tag_1:\n      pop\n      jumpi(tag_2, lt(calldatasize, 0x04))\n      shr(0xe0, calldataload(0x00))\n      dup1\n      0x4a968391\n      eq\n      tag_3\n      jumpi\n      dup1\n      0x52bc3410\n      eq\n      tag_4\n      jumpi\n      dup1\n      0x87052fab\n      eq\n      tag_5\n      jumpi\n      dup1\n      0x97ca20bf\n      eq\n      tag_6\n      jumpi\n      dup1\n      0xbed34bba\n      eq\n      tag_7\n      jumpi\n      dup1\n      0xefaa55a0\n      eq\n      tag_8\n      jumpi\n    tag_2:\n      0x00\n      dup1\n      revert\n        /* \"Prectical5-Tick-Tack-Toe-More-Jason.sol\":9493:9936  function restartGame(uint gameId) public {... */\n    tag_3:\n      tag_9\n      tag_10\n      calldatasize\n      0x04\n      tag_11\n      jump\t// in\n    tag_10:\n      tag_12\n      jump\t// in\n    tag_9:\n      stop\n        /* \"Prectical5-Tick-Tack-Toe-More-Jason.sol\":4620:5637  function userInput(uint input, uint gameId) external {... */\n    tag_4:\n      tag_9\n      tag_14\n      calldatasize\n      0x04\n      tag_15\n      jump\t// in\n    tag_14:\n      tag_16\n      jump\t// in\n        /* \"Prectical5-Tick-Tack-Toe-More-Jason.sol\":375:408  GameInfo[] public gameInformation */\n    tag_5:\n      tag_17\n      tag_18\n      calldatasize\n      0x04\n      tag_11\n      jump\t// in\n    tag_18:\n      tag_19\n      jump\t// in\n    tag_17:\n      mload(0x40)\n      tag_20\n      swap7\n      swap6\n      swap5\n      swap4\n      swap3\n      swap2\n      swap1\n      tag_21\n      jump\t// in\n    tag_20:\n      mload(0x40)\n      dup1\n      swap2\n      sub\n      swap1\n      return\n        /* \"Prectical5-Tick-Tack-Toe-More-Jason.sol\":2132:2724  function createGameRoom() external {... */\n    tag_6:\n      tag_9\n      tag_23\n      jump\t// in\n        /* \"Prectical5-Tick-Tack-Toe-More-Jason.sol\":9201:9448  function compareStrings(string memory a, string memory b) public pure returns (bool) {... */\n    tag_7:\n      tag_24\n      tag_25\n      calldatasize\n      0x04\n      tag_26\n      jump\t// in\n    tag_25:\n      tag_27\n      jump\t// in\n    tag_24:\n      mload(0x40)\n        /* \"#utility.yul\":3318:3332   */\n      swap1\n      iszero\n        /* \"#utility.yul\":3311:3333   */\n      iszero\n        /* \"#utility.yul\":3293:3334   */\n      dup2\n      mstore\n        /* \"#utility.yul\":3281:3283   */\n      0x20\n        /* \"#utility.yul\":3266:3284   */\n      add\n        /* \"Prectical5-Tick-Tack-Toe-More-Jason.sol\":9201:9448  function compareStrings(string memory a, string memory b) public pure returns (bool) {... */\n      tag_20\n        /* \"#utility.yul\":3153:3340   */\n      jump\n        /* \"Prectical5-Tick-Tack-Toe-More-Jason.sol\":2751:4514  function joinGame (uint gameId) external {... */\n    tag_8:\n      tag_9\n      tag_31\n      calldatasize\n      0x04\n      tag_11\n      jump\t// in\n    tag_31:\n      tag_32\n      jump\t// in\n        /* \"Prectical5-Tick-Tack-Toe-More-Jason.sol\":9493:9936  function restartGame(uint gameId) public {... */\n    tag_12:\n        /* \"Prectical5-Tick-Tack-Toe-More-Jason.sol\":9545:9589  gameInformation[gameId]._currentPlayer = \"X\" */\n      mload(0x40)\n      dup1\n      0x40\n      add\n      0x40\n      mstore\n      dup1\n      0x01\n      dup2\n      mstore\n      0x20\n      add\n      shl(0xfb, 0x0b)\n      dup2\n      mstore\n      pop\n        /* \"Prectical5-Tick-Tack-Toe-More-Jason.sol\":9545:9560  gameInformation */\n      0x00\n        /* \"Prectical5-Tick-Tack-Toe-More-Jason.sol\":9561:9567  gameId */\n      dup3\n        /* \"Prectical5-Tick-Tack-Toe-More-Jason.sol\":9545:9568  gameInformation[gameId] */\n      dup2\n      sload\n      dup2\n      lt\n      tag_35\n      jumpi\n      tag_35\n      tag_36\n      jump\t// in\n    tag_35:\n      swap1\n      0x00\n      mstore\n      keccak256(0x00, 0x20)\n      swap1\n      0x08\n      mul\n      add\n        /* \"Prectical5-Tick-Tack-Toe-More-Jason.sol\":9545:9583  gameInformation[gameId]._currentPlayer */\n      0x01\n      add\n        /* \"Prectical5-Tick-Tack-Toe-More-Jason.sol\":9545:9589  gameInformation[gameId]._currentPlayer = \"X\" */\n      swap1\n      dup2\n      tag_38\n      swap2\n      swap1\n      tag_39\n      jump\t// in\n    tag_38:\n      pop\n        /* \"Prectical5-Tick-Tack-Toe-More-Jason.sol\":9600:9671  gameInformation[gameId]._options = [\"\", \"\", \"\", \"\", \"\", \"\", \"\", \"\", \"\"] */\n      0x40\n      dup1\n      mload\n      0x0140\n      dup2\n      add\n      dup3\n      mstore\n      0x00\n      0x0120\n      dup3\n      add\n      dup2\n      dup2\n      mstore\n      dup3\n      mstore\n      dup3\n      mload\n      0x20\n      dup2\n      dup2\n      add\n      dup6\n      mstore\n      dup3\n      dup3\n      mstore\n      dup1\n      dup5\n      add\n      swap2\n      swap1\n      swap2\n      mstore\n      dup4\n      mload\n      dup1\n      dup3\n      add\n      dup6\n      mstore\n      dup3\n      dup2\n      mstore\n      dup4\n      dup6\n      add\n      mstore\n      dup4\n      mload\n      dup1\n      dup3\n      add\n      dup6\n      mstore\n      dup3\n      dup2\n      mstore\n      0x60\n      dup5\n      add\n      mstore\n      dup4\n      mload\n      dup1\n      dup3\n      add\n      dup6\n      mstore\n      dup3\n      dup2\n      mstore\n      0x80\n      dup5\n      add\n      mstore\n      dup4\n      mload\n      dup1\n      dup3\n      add\n      dup6\n      mstore\n      dup3\n      dup2\n      mstore\n      0xa0\n      dup5\n      add\n      mstore\n      dup4\n      mload\n      dup1\n      dup3\n      add\n      dup6\n      mstore\n      dup3\n      dup2\n      mstore\n      0xc0\n      dup5\n      add\n      mstore\n      dup4\n      mload\n      dup1\n      dup3\n      add\n      dup6\n      mstore\n      dup3\n      dup2\n      mstore\n      0xe0\n      dup5\n      add\n      mstore\n      dup4\n      mload\n      swap1\n      dup2\n      add\n      swap1\n      swap4\n      mstore\n      dup1\n      dup4\n      mstore\n      0x0100\n      dup3\n      add\n      swap3\n      swap1\n      swap3\n      mstore\n        /* \"Prectical5-Tick-Tack-Toe-More-Jason.sol\":9600:9623  gameInformation[gameId] */\n      dup2\n      sload\n        /* \"Prectical5-Tick-Tack-Toe-More-Jason.sol\":9600:9671  gameInformation[gameId]._options = [\"\", \"\", \"\", \"\", \"\", \"\", \"\", \"\", \"\"] */\n      swap1\n      swap2\n      swap1\n        /* \"Prectical5-Tick-Tack-Toe-More-Jason.sol\":9616:9622  gameId */\n      dup4\n      swap1\n        /* \"Prectical5-Tick-Tack-Toe-More-Jason.sol\":9600:9623  gameInformation[gameId] */\n      dup2\n      lt\n      tag_41\n      jumpi\n      tag_41\n      tag_36\n      jump\t// in\n    tag_41:\n      swap1\n      0x00\n      mstore\n      keccak256(0x00, 0x20)\n      swap1\n      0x08\n      mul\n      add\n        /* \"Prectical5-Tick-Tack-Toe-More-Jason.sol\":9600:9632  gameInformation[gameId]._options */\n      0x02\n      add\n        /* \"Prectical5-Tick-Tack-Toe-More-Jason.sol\":9600:9671  gameInformation[gameId]._options = [\"\", \"\", \"\", \"\", \"\", \"\", \"\", \"\", \"\"] */\n      swap1\n      0x09\n      tag_43\n      swap3\n      swap2\n      swap1\n      tag_44\n      jump\t// in\n    tag_43:\n      pop\n        /* \"Prectical5-Tick-Tack-Toe-More-Jason.sol\":9687:9734  resetUI(gameInformation[gameId]._currentPlayer) */\n      0x12028463284aa79a2cec858ff157451112ecff237cda43248ebb797c814f661c\n        /* \"Prectical5-Tick-Tack-Toe-More-Jason.sol\":9695:9710  gameInformation */\n      0x00\n        /* \"Prectical5-Tick-Tack-Toe-More-Jason.sol\":9711:9717  gameId */\n      dup3\n        /* \"Prectical5-Tick-Tack-Toe-More-Jason.sol\":9695:9718  gameInformation[gameId] */\n      dup2\n      sload\n      dup2\n      lt\n      tag_46\n      jumpi\n      tag_46\n      tag_36\n      jump\t// in\n    tag_46:\n      swap1\n      0x00\n      mstore\n      keccak256(0x00, 0x20)\n      swap1\n      0x08\n      mul\n      add\n        /* \"Prectical5-Tick-Tack-Toe-More-Jason.sol\":9695:9733  gameInformation[gameId]._currentPlayer */\n      0x01\n      add\n        /* \"Prectical5-Tick-Tack-Toe-More-Jason.sol\":9687:9734  resetUI(gameInformation[gameId]._currentPlayer) */\n      mload(0x40)\n      tag_48\n      swap2\n      swap1\n      tag_49\n      jump\t// in\n    tag_48:\n      mload(0x40)\n      dup1\n      swap2\n      sub\n      swap1\n      log1\n        /* \"Prectical5-Tick-Tack-Toe-More-Jason.sol\":9809:9814  false */\n      0x00\n        /* \"Prectical5-Tick-Tack-Toe-More-Jason.sol\":9773:9788  gameInformation */\n      dup1\n        /* \"Prectical5-Tick-Tack-Toe-More-Jason.sol\":9789:9795  gameId */\n      dup3\n        /* \"Prectical5-Tick-Tack-Toe-More-Jason.sol\":9773:9796  gameInformation[gameId] */\n      dup2\n      sload\n      dup2\n      lt\n      tag_51\n      jumpi\n      tag_51\n      tag_36\n      jump\t// in\n    tag_51:\n      0x00\n      swap2\n      dup3\n      mstore\n      0x20\n      swap1\n      swap2\n      keccak256\n      0x08\n      swap1\n      swap2\n      mul\n      add\n        /* \"Prectical5-Tick-Tack-Toe-More-Jason.sol\":9773:9814  gameInformation[gameId]._activate = false */\n      dup1\n      sload\n      not(0xff)\n      and\n      swap2\n      iszero\n      iszero\n      swap2\n      swap1\n      swap2\n      or\n      swap1\n      sstore\n      pop\n        /* \"Prectical5-Tick-Tack-Toe-More-Jason.sol\":9493:9936  function restartGame(uint gameId) public {... */\n      jump\t// out\n        /* \"Prectical5-Tick-Tack-Toe-More-Jason.sol\":4620:5637  function userInput(uint input, uint gameId) external {... */\n    tag_16:\n        /* \"Prectical5-Tick-Tack-Toe-More-Jason.sol\":4692:4707  gameInformation */\n      0x00\n        /* \"Prectical5-Tick-Tack-Toe-More-Jason.sol\":4708:4714  gameId */\n      dup2\n        /* \"Prectical5-Tick-Tack-Toe-More-Jason.sol\":4692:4715  gameInformation[gameId] */\n      dup2\n      sload\n      dup2\n      lt\n      tag_55\n      jumpi\n      tag_55\n      tag_36\n      jump\t// in\n    tag_55:\n      0x00\n      swap2\n      dup3\n      mstore\n      0x20\n      swap1\n      swap2\n      keccak256\n      0x08\n      swap1\n      swap2\n      mul\n      add\n        /* \"Prectical5-Tick-Tack-Toe-More-Jason.sol\":4692:4725  gameInformation[gameId]._activate */\n      sload\n      0xff\n      and\n        /* \"Prectical5-Tick-Tack-Toe-More-Jason.sol\":4684:4757  require(gameInformation[gameId]._activate,\"The game still not start yet\") */\n      tag_57\n      jumpi\n      mload(0x40)\n      shl(0xe5, 0x461bcd)\n      dup2\n      mstore\n        /* \"#utility.yul\":7236:7238   */\n      0x20\n        /* \"Prectical5-Tick-Tack-Toe-More-Jason.sol\":4684:4757  require(gameInformation[gameId]._activate,\"The game still not start yet\") */\n      0x04\n      dup3\n      add\n        /* \"#utility.yul\":7218:7239   */\n      mstore\n        /* \"#utility.yul\":7275:7277   */\n      0x1c\n        /* \"#utility.yul\":7255:7273   */\n      0x24\n      dup3\n      add\n        /* \"#utility.yul\":7248:7278   */\n      mstore\n        /* \"#utility.yul\":7314:7344   */\n      0x5468652067616d65207374696c6c206e6f742073746172742079657400000000\n        /* \"#utility.yul\":7294:7312   */\n      0x44\n      dup3\n      add\n        /* \"#utility.yul\":7287:7345   */\n      mstore\n        /* \"#utility.yul\":7362:7380   */\n      0x64\n      add\n        /* \"Prectical5-Tick-Tack-Toe-More-Jason.sol\":4684:4757  require(gameInformation[gameId]._activate,\"The game still not start yet\") */\n    tag_58:\n      mload(0x40)\n      dup1\n      swap2\n      sub\n      swap1\n      revert\n    tag_57:\n        /* \"Prectical5-Tick-Tack-Toe-More-Jason.sol\":4798:4856  compareStrings(gameInformation[gameId]._options[input],\"\") */\n      tag_60\n        /* \"Prectical5-Tick-Tack-Toe-More-Jason.sol\":4813:4828  gameInformation */\n      0x00\n        /* \"Prectical5-Tick-Tack-Toe-More-Jason.sol\":4829:4835  gameId */\n      dup3\n        /* \"Prectical5-Tick-Tack-Toe-More-Jason.sol\":4813:4836  gameInformation[gameId] */\n      dup2\n      sload\n      dup2\n      lt\n      tag_62\n      jumpi\n      tag_62\n      tag_36\n      jump\t// in\n    tag_62:\n      swap1\n      0x00\n      mstore\n      keccak256(0x00, 0x20)\n      swap1\n      0x08\n      mul\n      add\n        /* \"Prectical5-Tick-Tack-Toe-More-Jason.sol\":4813:4845  gameInformation[gameId]._options */\n      0x02\n      add\n        /* \"Prectical5-Tick-Tack-Toe-More-Jason.sol\":4846:4851  input */\n      dup4\n        /* \"Prectical5-Tick-Tack-Toe-More-Jason.sol\":4813:4852  gameInformation[gameId]._options[input] */\n      dup2\n      sload\n      dup2\n      lt\n      tag_65\n      jumpi\n      tag_65\n      tag_36\n      jump\t// in\n    tag_65:\n      swap1\n      0x00\n      mstore\n      keccak256(0x00, 0x20)\n      add\n        /* \"Prectical5-Tick-Tack-Toe-More-Jason.sol\":4798:4856  compareStrings(gameInformation[gameId]._options[input],\"\") */\n      dup1\n      sload\n      tag_67\n      swap1\n      tag_68\n      jump\t// in\n    tag_67:\n      dup1\n      0x1f\n      add\n      0x20\n      dup1\n      swap2\n      div\n      mul\n      0x20\n      add\n      mload(0x40)\n      swap1\n      dup2\n      add\n      0x40\n      mstore\n      dup1\n      swap3\n      swap2\n      swap1\n      dup2\n      dup2\n      mstore\n      0x20\n      add\n      dup3\n      dup1\n      sload\n      tag_69\n      swap1\n      tag_68\n      jump\t// in\n    tag_69:\n      dup1\n      iszero\n      tag_70\n      jumpi\n      dup1\n      0x1f\n      lt\n      tag_71\n      jumpi\n      0x0100\n      dup1\n      dup4\n      sload\n      div\n      mul\n      dup4\n      mstore\n      swap2\n      0x20\n      add\n      swap2\n      jump(tag_70)\n    tag_71:\n      dup3\n      add\n      swap2\n      swap1\n      0x00\n      mstore\n      keccak256(0x00, 0x20)\n      swap1\n    tag_72:\n      dup2\n      sload\n      dup2\n      mstore\n      swap1\n      0x01\n      add\n      swap1\n      0x20\n      add\n      dup1\n      dup4\n      gt\n      tag_72\n      jumpi\n      dup3\n      swap1\n      sub\n      0x1f\n      and\n      dup3\n      add\n      swap2\n    tag_70:\n      pop\n      pop\n      pop\n      pop\n      pop\n      mload(0x40)\n      dup1\n      0x20\n      add\n      0x40\n      mstore\n      dup1\n      0x00\n      dup2\n      mstore\n      pop\n        /* \"Prectical5-Tick-Tack-Toe-More-Jason.sol\":4798:4812  compareStrings */\n      tag_27\n        /* \"Prectical5-Tick-Tack-Toe-More-Jason.sol\":4798:4856  compareStrings(gameInformation[gameId]._options[input],\"\") */\n      jump\t// in\n    tag_60:\n        /* \"Prectical5-Tick-Tack-Toe-More-Jason.sol\":4790:4873  require(compareStrings(gameInformation[gameId]._options[input],\"\"),\"Invalid input\") */\n      tag_73\n      jumpi\n      mload(0x40)\n      shl(0xe5, 0x461bcd)\n      dup2\n      mstore\n        /* \"#utility.yul\":7593:7595   */\n      0x20\n        /* \"Prectical5-Tick-Tack-Toe-More-Jason.sol\":4790:4873  require(compareStrings(gameInformation[gameId]._options[input],\"\"),\"Invalid input\") */\n      0x04\n      dup3\n      add\n        /* \"#utility.yul\":7575:7596   */\n      mstore\n        /* \"#utility.yul\":7632:7634   */\n      0x0d\n        /* \"#utility.yul\":7612:7630   */\n      0x24\n      dup3\n      add\n        /* \"#utility.yul\":7605:7635   */\n      mstore\n      shl(0x9a, 0x125b9d985b1a59081a5b9c1d5d)\n        /* \"#utility.yul\":7651:7669   */\n      0x44\n      dup3\n      add\n        /* \"#utility.yul\":7644:7687   */\n      mstore\n        /* \"#utility.yul\":7704:7722   */\n      0x64\n      add\n        /* \"Prectical5-Tick-Tack-Toe-More-Jason.sol\":4790:4873  require(compareStrings(gameInformation[gameId]._options[input],\"\"),\"Invalid input\") */\n      tag_58\n        /* \"#utility.yul\":7391:7728   */\n      jump\n        /* \"Prectical5-Tick-Tack-Toe-More-Jason.sol\":4790:4873  require(compareStrings(gameInformation[gameId]._options[input],\"\"),\"Invalid input\") */\n    tag_73:\n        /* \"Prectical5-Tick-Tack-Toe-More-Jason.sol\":4946:5005  compareStrings(gameInformation[gameId]._currentPlayer, \"X\") */\n      tag_76\n        /* \"Prectical5-Tick-Tack-Toe-More-Jason.sol\":4961:4976  gameInformation */\n      0x00\n        /* \"Prectical5-Tick-Tack-Toe-More-Jason.sol\":4977:4983  gameId */\n      dup3\n        /* \"Prectical5-Tick-Tack-Toe-More-Jason.sol\":4961:4984  gameInformation[gameId] */\n      dup2\n      sload\n      dup2\n      lt\n      tag_78\n      jumpi\n      tag_78\n      tag_36\n      jump\t// in\n    tag_78:\n      swap1\n      0x00\n      mstore\n      keccak256(0x00, 0x20)\n      swap1\n      0x08\n      mul\n      add\n        /* \"Prectical5-Tick-Tack-Toe-More-Jason.sol\":4961:4999  gameInformation[gameId]._currentPlayer */\n      0x01\n      add\n        /* \"Prectical5-Tick-Tack-Toe-More-Jason.sol\":4946:5005  compareStrings(gameInformation[gameId]._currentPlayer, \"X\") */\n      dup1\n      sload\n      tag_80\n      swap1\n      tag_68\n      jump\t// in\n    tag_80:\n      dup1\n      0x1f\n      add\n      0x20\n      dup1\n      swap2\n      div\n      mul\n      0x20\n      add\n      mload(0x40)\n      swap1\n      dup2\n      add\n      0x40\n      mstore\n      dup1\n      swap3\n      swap2\n      swap1\n      dup2\n      dup2\n      mstore\n      0x20\n      add\n      dup3\n      dup1\n      sload\n      tag_81\n      swap1\n      tag_68\n      jump\t// in\n    tag_81:\n      dup1\n      iszero\n      tag_82\n      jumpi\n      dup1\n      0x1f\n      lt\n      tag_83\n      jumpi\n      0x0100\n      dup1\n      dup4\n      sload\n      div\n      mul\n      dup4\n      mstore\n      swap2\n      0x20\n      add\n      swap2\n      jump(tag_82)\n    tag_83:\n      dup3\n      add\n      swap2\n      swap1\n      0x00\n      mstore\n      keccak256(0x00, 0x20)\n      swap1\n    tag_84:\n      dup2\n      sload\n      dup2\n      mstore\n      swap1\n      0x01\n      add\n      swap1\n      0x20\n      add\n      dup1\n      dup4\n      gt\n      tag_84\n      jumpi\n      dup3\n      swap1\n      sub\n      0x1f\n      and\n      dup3\n      add\n      swap2\n    tag_82:\n      pop\n      pop\n      pop\n      pop\n      pop\n      mload(0x40)\n      dup1\n      0x40\n      add\n      0x40\n      mstore\n      dup1\n      0x01\n      dup2\n      mstore\n      0x20\n      add\n      shl(0xfb, 0x0b)\n      dup2\n      mstore\n      pop\n        /* \"Prectical5-Tick-Tack-Toe-More-Jason.sol\":4946:4960  compareStrings */\n      tag_27\n        /* \"Prectical5-Tick-Tack-Toe-More-Jason.sol\":4946:5005  compareStrings(gameInformation[gameId]._currentPlayer, \"X\") */\n      jump\t// in\n    tag_76:\n        /* \"Prectical5-Tick-Tack-Toe-More-Jason.sol\":4943:5234  if(compareStrings(gameInformation[gameId]._currentPlayer, \"X\")){... */\n      iszero\n      tag_85\n      jumpi\n        /* \"Prectical5-Tick-Tack-Toe-More-Jason.sol\":5043:5058  gameInformation */\n      0x00\n        /* \"Prectical5-Tick-Tack-Toe-More-Jason.sol\":5059:5065  gameId */\n      dup2\n        /* \"Prectical5-Tick-Tack-Toe-More-Jason.sol\":5043:5066  gameInformation[gameId] */\n      dup2\n      sload\n      dup2\n      lt\n      tag_87\n      jumpi\n      tag_87\n      tag_36\n      jump\t// in\n    tag_87:\n      0x00\n      swap2\n      dup3\n      mstore\n      0x20\n      swap1\n      swap2\n      keccak256\n      0x08\n      swap1\n      swap2\n      mul\n      add\n        /* \"Prectical5-Tick-Tack-Toe-More-Jason.sol\":5043:5082  gameInformation[gameId]._player1address */\n      0x04\n      add\n      sload\n      sub(shl(0xa0, 0x01), 0x01)\n      and\n        /* \"Prectical5-Tick-Tack-Toe-More-Jason.sol\":5029:5039  msg.sender */\n      caller\n        /* \"Prectical5-Tick-Tack-Toe-More-Jason.sol\":5029:5082  msg.sender == gameInformation[gameId]._player1address */\n      eq\n        /* \"Prectical5-Tick-Tack-Toe-More-Jason.sol\":5021:5106  require(msg.sender == gameInformation[gameId]._player1address,\"You are not player 1\") */\n      tag_89\n      jumpi\n      mload(0x40)\n      shl(0xe5, 0x461bcd)\n      dup2\n      mstore\n        /* \"#utility.yul\":7935:7937   */\n      0x20\n        /* \"Prectical5-Tick-Tack-Toe-More-Jason.sol\":5021:5106  require(msg.sender == gameInformation[gameId]._player1address,\"You are not player 1\") */\n      0x04\n      dup3\n      add\n        /* \"#utility.yul\":7917:7938   */\n      mstore\n        /* \"#utility.yul\":7974:7976   */\n      0x14\n        /* \"#utility.yul\":7954:7972   */\n      0x24\n      dup3\n      add\n        /* \"#utility.yul\":7947:7977   */\n      mstore\n      shl(0x60, 0x596f7520617265206e6f7420706c617965722031)\n        /* \"#utility.yul\":7993:8011   */\n      0x44\n      dup3\n      add\n        /* \"#utility.yul\":7986:8036   */\n      mstore\n        /* \"#utility.yul\":8053:8071   */\n      0x64\n      add\n        /* \"Prectical5-Tick-Tack-Toe-More-Jason.sol\":5021:5106  require(msg.sender == gameInformation[gameId]._player1address,\"You are not player 1\") */\n      tag_58\n        /* \"#utility.yul\":7733:8077   */\n      jump\n        /* \"Prectical5-Tick-Tack-Toe-More-Jason.sol\":5021:5106  require(msg.sender == gameInformation[gameId]._player1address,\"You are not player 1\") */\n    tag_89:\n        /* \"Prectical5-Tick-Tack-Toe-More-Jason.sol\":4943:5234  if(compareStrings(gameInformation[gameId]._currentPlayer, \"X\")){... */\n      jump(tag_96)\n    tag_85:\n        /* \"Prectical5-Tick-Tack-Toe-More-Jason.sol\":5159:5174  gameInformation */\n      0x00\n        /* \"Prectical5-Tick-Tack-Toe-More-Jason.sol\":5175:5181  gameId */\n      dup2\n        /* \"Prectical5-Tick-Tack-Toe-More-Jason.sol\":5159:5182  gameInformation[gameId] */\n      dup2\n      sload\n      dup2\n      lt\n      tag_94\n      jumpi\n      tag_94\n      tag_36\n      jump\t// in\n    tag_94:\n      0x00\n      swap2\n      dup3\n      mstore\n      0x20\n      swap1\n      swap2\n      keccak256\n      0x08\n      swap1\n      swap2\n      mul\n      add\n        /* \"Prectical5-Tick-Tack-Toe-More-Jason.sol\":5159:5198  gameInformation[gameId]._player2address */\n      0x05\n      add\n      sload\n      sub(shl(0xa0, 0x01), 0x01)\n      and\n        /* \"Prectical5-Tick-Tack-Toe-More-Jason.sol\":5145:5155  msg.sender */\n      caller\n        /* \"Prectical5-Tick-Tack-Toe-More-Jason.sol\":5145:5198  msg.sender == gameInformation[gameId]._player2address */\n      eq\n        /* \"Prectical5-Tick-Tack-Toe-More-Jason.sol\":5137:5222  require(msg.sender == gameInformation[gameId]._player2address,\"You are not player 2\") */\n      tag_96\n      jumpi\n      mload(0x40)\n      shl(0xe5, 0x461bcd)\n      dup2\n      mstore\n        /* \"#utility.yul\":8284:8286   */\n      0x20\n        /* \"Prectical5-Tick-Tack-Toe-More-Jason.sol\":5137:5222  require(msg.sender == gameInformation[gameId]._player2address,\"You are not player 2\") */\n      0x04\n      dup3\n      add\n        /* \"#utility.yul\":8266:8287   */\n      mstore\n        /* \"#utility.yul\":8323:8325   */\n      0x14\n        /* \"#utility.yul\":8303:8321   */\n      0x24\n      dup3\n      add\n        /* \"#utility.yul\":8296:8326   */\n      mstore\n      shl(0x61, 0x2cb7ba9030b932903737ba10383630bcb2b91019)\n        /* \"#utility.yul\":8342:8360   */\n      0x44\n      dup3\n      add\n        /* \"#utility.yul\":8335:8385   */\n      mstore\n        /* \"#utility.yul\":8402:8420   */\n      0x64\n      add\n        /* \"Prectical5-Tick-Tack-Toe-More-Jason.sol\":5137:5222  require(msg.sender == gameInformation[gameId]._player2address,\"You are not player 2\") */\n      tag_58\n        /* \"#utility.yul\":8082:8426   */\n      jump\n        /* \"Prectical5-Tick-Tack-Toe-More-Jason.sol\":5137:5222  require(msg.sender == gameInformation[gameId]._player2address,\"You are not player 2\") */\n    tag_96:\n        /* \"Prectical5-Tick-Tack-Toe-More-Jason.sol\":5296:5311  gameInformation */\n      0x00\n        /* \"Prectical5-Tick-Tack-Toe-More-Jason.sol\":5312:5318  gameId */\n      dup2\n        /* \"Prectical5-Tick-Tack-Toe-More-Jason.sol\":5296:5319  gameInformation[gameId] */\n      dup2\n      sload\n      dup2\n      lt\n      tag_100\n      jumpi\n      tag_100\n      tag_36\n      jump\t// in\n    tag_100:\n      swap1\n      0x00\n      mstore\n      keccak256(0x00, 0x20)\n      swap1\n      0x08\n      mul\n      add\n        /* \"Prectical5-Tick-Tack-Toe-More-Jason.sol\":5296:5334  gameInformation[gameId]._currentPlayer */\n      0x01\n      add\n        /* \"Prectical5-Tick-Tack-Toe-More-Jason.sol\":5254:5269  gameInformation */\n      0x00\n        /* \"Prectical5-Tick-Tack-Toe-More-Jason.sol\":5270:5276  gameId */\n      dup3\n        /* \"Prectical5-Tick-Tack-Toe-More-Jason.sol\":5254:5277  gameInformation[gameId] */\n      dup2\n      sload\n      dup2\n      lt\n      tag_103\n      jumpi\n      tag_103\n      tag_36\n      jump\t// in\n    tag_103:\n      swap1\n      0x00\n      mstore\n      keccak256(0x00, 0x20)\n      swap1\n      0x08\n      mul\n      add\n        /* \"Prectical5-Tick-Tack-Toe-More-Jason.sol\":5254:5286  gameInformation[gameId]._options */\n      0x02\n      add\n        /* \"Prectical5-Tick-Tack-Toe-More-Jason.sol\":5287:5292  input */\n      dup4\n        /* \"Prectical5-Tick-Tack-Toe-More-Jason.sol\":5254:5293  gameInformation[gameId]._options[input] */\n      dup2\n      sload\n      dup2\n      lt\n      tag_106\n      jumpi\n      tag_106\n      tag_36\n      jump\t// in\n    tag_106:\n      swap1\n      0x00\n      mstore\n      keccak256(0x00, 0x20)\n      add\n        /* \"Prectical5-Tick-Tack-Toe-More-Jason.sol\":5254:5334  gameInformation[gameId]._options[input] = gameInformation[gameId]._currentPlayer */\n      swap1\n      dup2\n      tag_108\n      swap2\n      swap1\n      tag_109\n      jump\t// in\n    tag_108:\n      pop\n        /* \"Prectical5-Tick-Tack-Toe-More-Jason.sol\":5396:5438  updateUI(gameInformation[gameId]._options) */\n      0xd77f94cc29111f7dbd8555e9587fc989a0cf9fa417821f33e2f02913794bebb0\n        /* \"Prectical5-Tick-Tack-Toe-More-Jason.sol\":5405:5420  gameInformation */\n      0x00\n        /* \"Prectical5-Tick-Tack-Toe-More-Jason.sol\":5421:5427  gameId */\n      dup3\n        /* \"Prectical5-Tick-Tack-Toe-More-Jason.sol\":5405:5428  gameInformation[gameId] */\n      dup2\n      sload\n      dup2\n      lt\n      tag_111\n      jumpi\n      tag_111\n      tag_36\n      jump\t// in\n    tag_111:\n      swap1\n      0x00\n      mstore\n      keccak256(0x00, 0x20)\n      swap1\n      0x08\n      mul\n      add\n        /* \"Prectical5-Tick-Tack-Toe-More-Jason.sol\":5405:5437  gameInformation[gameId]._options */\n      0x02\n      add\n        /* \"Prectical5-Tick-Tack-Toe-More-Jason.sol\":5396:5438  updateUI(gameInformation[gameId]._options) */\n      mload(0x40)\n      tag_113\n      swap2\n      swap1\n      tag_114\n      jump\t// in\n    tag_113:\n      mload(0x40)\n      dup1\n      swap2\n      sub\n      swap1\n      log1\n        /* \"Prectical5-Tick-Tack-Toe-More-Jason.sol\":5519:5538  checkWinner(gameId) */\n      tag_115\n        /* \"Prectical5-Tick-Tack-Toe-More-Jason.sol\":5531:5537  gameId */\n      dup2\n        /* \"Prectical5-Tick-Tack-Toe-More-Jason.sol\":5519:5530  checkWinner */\n      tag_116\n        /* \"Prectical5-Tick-Tack-Toe-More-Jason.sol\":5519:5538  checkWinner(gameId) */\n      jump\t// in\n    tag_115:\n        /* \"Prectical5-Tick-Tack-Toe-More-Jason.sol\":5597:5629  testing(gameInformation[gameId]) */\n      0x3a370b33c27181a790ff0b30bac7d21644df9446c928286f82787e920268a1fc\n        /* \"Prectical5-Tick-Tack-Toe-More-Jason.sol\":5605:5620  gameInformation */\n      0x00\n        /* \"Prectical5-Tick-Tack-Toe-More-Jason.sol\":5621:5627  gameId */\n      dup3\n        /* \"Prectical5-Tick-Tack-Toe-More-Jason.sol\":5605:5628  gameInformation[gameId] */\n      dup2\n      sload\n      dup2\n      lt\n      tag_118\n      jumpi\n      tag_118\n      tag_36\n      jump\t// in\n    tag_118:\n      swap1\n      0x00\n      mstore\n      keccak256(0x00, 0x20)\n      swap1\n      0x08\n      mul\n      add\n        /* \"Prectical5-Tick-Tack-Toe-More-Jason.sol\":5597:5629  testing(gameInformation[gameId]) */\n      mload(0x40)\n      tag_120\n      swap2\n      swap1\n      tag_121\n      jump\t// in\n    tag_120:\n      mload(0x40)\n      dup1\n      swap2\n      sub\n      swap1\n      log1\n        /* \"Prectical5-Tick-Tack-Toe-More-Jason.sol\":4620:5637  function userInput(uint input, uint gameId) external {... */\n      pop\n      pop\n      jump\t// out\n        /* \"Prectical5-Tick-Tack-Toe-More-Jason.sol\":375:408  GameInfo[] public gameInformation */\n    tag_19:\n      0x00\n      dup2\n      dup2\n      sload\n      dup2\n      lt\n      tag_122\n      jumpi\n      0x00\n      dup1\n      revert\n    tag_122:\n      0x00\n      swap2\n      dup3\n      mstore\n      0x20\n      swap1\n      swap2\n      keccak256\n      0x08\n      swap1\n      swap2\n      mul\n      add\n      dup1\n      sload\n      0x01\n      dup3\n      add\n      dup1\n      sload\n      0xff\n      swap1\n      swap3\n      and\n      swap4\n      pop\n      swap1\n      tag_124\n      swap1\n      tag_68\n      jump\t// in\n    tag_124:\n      dup1\n      0x1f\n      add\n      0x20\n      dup1\n      swap2\n      div\n      mul\n      0x20\n      add\n      mload(0x40)\n      swap1\n      dup2\n      add\n      0x40\n      mstore\n      dup1\n      swap3\n      swap2\n      swap1\n      dup2\n      dup2\n      mstore\n      0x20\n      add\n      dup3\n      dup1\n      sload\n      tag_125\n      swap1\n      tag_68\n      jump\t// in\n    tag_125:\n      dup1\n      iszero\n      tag_126\n      jumpi\n      dup1\n      0x1f\n      lt\n      tag_127\n      jumpi\n      0x0100\n      dup1\n      dup4\n      sload\n      div\n      mul\n      dup4\n      mstore\n      swap2\n      0x20\n      add\n      swap2\n      jump(tag_126)\n    tag_127:\n      dup3\n      add\n      swap2\n      swap1\n      0x00\n      mstore\n      keccak256(0x00, 0x20)\n      swap1\n    tag_128:\n      dup2\n      sload\n      dup2\n      mstore\n      swap1\n      0x01\n      add\n      swap1\n      0x20\n      add\n      dup1\n      dup4\n      gt\n      tag_128\n      jumpi\n      dup3\n      swap1\n      sub\n      0x1f\n      and\n      dup3\n      add\n      swap2\n    tag_126:\n      pop\n      pop\n      pop\n      0x04\n      dup5\n      add\n      sload\n      0x05\n      dup6\n      add\n      sload\n      0x06\n      dup7\n      add\n      sload\n      0x07\n      swap1\n      swap7\n      add\n      sload\n      swap5\n      swap6\n      sub(shl(0xa0, 0x01), 0x01)\n      swap3\n      dup4\n      and\n      swap6\n      swap2\n      dup4\n      and\n      swap5\n      pop\n      swap3\n      pop\n      and\n      dup7\n      jump\t// out\n        /* \"Prectical5-Tick-Tack-Toe-More-Jason.sol\":2132:2724  function createGameRoom() external {... */\n    tag_23:\n        /* \"Prectical5-Tick-Tack-Toe-More-Jason.sol\":2178:2202  GameInfo memory gameInfo */\n      tag_130\n      mload(0x40)\n      dup1\n      0x0100\n      add\n      0x40\n      mstore\n      dup1\n      iszero(iszero(0x00))\n      dup2\n      mstore\n      0x20\n      add\n      0x60\n      dup2\n      mstore\n      0x20\n      add\n      0x60\n      dup2\n      mstore\n      0x20\n      add\n      0x60\n      dup2\n      mstore\n      0x20\n      add\n      and(sub(shl(0xa0, 0x01), 0x01), 0x00)\n      dup2\n      mstore\n      0x20\n      add\n      and(sub(shl(0xa0, 0x01), 0x01), 0x00)\n      dup2\n      mstore\n      0x20\n      add\n      0x00\n      dup2\n      mstore\n      0x20\n      add\n      and(sub(shl(0xa0, 0x01), 0x01), 0x00)\n      dup2\n      mstore\n      pop\n      swap1\n      jump\n    tag_130:\n        /* \"Prectical5-Tick-Tack-Toe-More-Jason.sol\":2213:2228  gameInformation */\n      0x00\n        /* \"Prectical5-Tick-Tack-Toe-More-Jason.sol\":2213:2243  gameInformation.push(gameInfo) */\n      dup1\n      sload\n      0x01\n      dup2\n      add\n      dup3\n      sstore\n      swap1\n      dup1\n      mstore\n      dup2\n      mload\n      0x290decd9548b62a8d60345a988386fc84ba6bc95484008f6362f93160ef3e563\n      0x08\n      swap1\n      swap3\n      mul\n      swap2\n      dup3\n      add\n      dup1\n      sload\n      not(0xff)\n      and\n      swap2\n      iszero\n      iszero\n      swap2\n      swap1\n      swap2\n      or\n      dup2\n      sstore\n      0x20\n      dup4\n      add\n      mload\n      dup4\n      swap3\n      0x290decd9548b62a8d60345a988386fc84ba6bc95484008f6362f93160ef3e564\n      add\n      swap1\n      tag_133\n      swap1\n      dup3\n      tag_39\n      jump\t// in\n    tag_133:\n      pop\n      0x40\n      dup3\n      add\n      mload\n      dup1\n      mload\n      tag_134\n      swap2\n      0x02\n      dup5\n      add\n      swap2\n      0x20\n      swap1\n      swap2\n      add\n      swap1\n      tag_135\n      jump\t// in\n    tag_134:\n      pop\n      0x60\n      dup3\n      add\n      mload\n      dup1\n      mload\n      tag_136\n      swap2\n      0x03\n      dup5\n      add\n      swap2\n      0x20\n      swap1\n      swap2\n      add\n      swap1\n      tag_137\n      jump\t// in\n    tag_136:\n      pop\n      0x80\n      dup3\n      add\n      mload\n      0x04\n      dup3\n      add\n      dup1\n      sload\n      not(sub(shl(0xa0, 0x01), 0x01))\n      swap1\n      dup2\n      and\n      sub(shl(0xa0, 0x01), 0x01)\n      swap4\n      dup5\n      and\n      or\n      swap1\n      swap2\n      sstore\n      0xa0\n      dup5\n      add\n      mload\n      0x05\n      dup5\n      add\n      dup1\n      sload\n      dup4\n      and\n      swap2\n      dup5\n      and\n      swap2\n      swap1\n      swap2\n      or\n      swap1\n      sstore\n      0xc0\n      dup5\n      add\n      mload\n      0x06\n      dup5\n      add\n      sstore\n      0xe0\n      swap1\n      swap4\n      add\n      mload\n      0x07\n      swap1\n      swap3\n      add\n      dup1\n      sload\n      swap1\n      swap4\n      and\n      swap2\n      and\n      or\n      swap1\n      sstore\n      0x00\n        /* \"Prectical5-Tick-Tack-Toe-More-Jason.sol\":2272:2294  gameInformation.length */\n      dup1\n      sload\n      swap1\n        /* \"Prectical5-Tick-Tack-Toe-More-Jason.sol\":2355:2365  msg.sender */\n      caller\n      swap1\n        /* \"Prectical5-Tick-Tack-Toe-More-Jason.sol\":2323:2335  gameLength-1 */\n      tag_138\n      0x01\n        /* \"Prectical5-Tick-Tack-Toe-More-Jason.sol\":2272:2294  gameInformation.length */\n      dup5\n        /* \"Prectical5-Tick-Tack-Toe-More-Jason.sol\":2323:2335  gameLength-1 */\n      tag_139\n      jump\t// in\n    tag_138:\n        /* \"Prectical5-Tick-Tack-Toe-More-Jason.sol\":2307:2336  gameInformation[gameLength-1] */\n      dup2\n      sload\n      dup2\n      lt\n      tag_141\n      jumpi\n      tag_141\n      tag_36\n      jump\t// in\n    tag_141:\n      0x00\n      swap2\n      dup3\n      mstore\n      0x20\n      dup3\n      keccak256\n      0x08\n      swap2\n      swap1\n      swap2\n      mul\n      add\n        /* \"Prectical5-Tick-Tack-Toe-More-Jason.sol\":2307:2352  gameInformation[gameLength-1]._player1address */\n      0x04\n      add\n        /* \"Prectical5-Tick-Tack-Toe-More-Jason.sol\":2307:2365  gameInformation[gameLength-1]._player1address = msg.sender */\n      dup1\n      sload\n      not(sub(shl(0xa0, 0x01), 0x01))\n      and\n      sub(shl(0xa0, 0x01), 0x01)\n      swap4\n      swap1\n      swap4\n      and\n      swap3\n      swap1\n      swap3\n      or\n      swap1\n      swap2\n      sstore\n        /* \"Prectical5-Tick-Tack-Toe-More-Jason.sol\":2307:2336  gameInformation[gameLength-1] */\n      dup1\n        /* \"Prectical5-Tick-Tack-Toe-More-Jason.sol\":2392:2404  gameLength-1 */\n      tag_143\n      0x01\n        /* \"Prectical5-Tick-Tack-Toe-More-Jason.sol\":2392:2402  gameLength */\n      dup5\n        /* \"Prectical5-Tick-Tack-Toe-More-Jason.sol\":2392:2404  gameLength-1 */\n      tag_139\n      jump\t// in\n    tag_143:\n        /* \"Prectical5-Tick-Tack-Toe-More-Jason.sol\":2376:2405  gameInformation[gameLength-1] */\n      dup2\n      sload\n      dup2\n      lt\n      tag_145\n      jumpi\n      tag_145\n      tag_36\n      jump\t// in\n    tag_145:\n      0x00\n      swap2\n      dup3\n      mstore\n      0x20\n      dup3\n      keccak256\n      0x08\n      swap2\n      swap1\n      swap2\n      mul\n      add\n        /* \"Prectical5-Tick-Tack-Toe-More-Jason.sol\":2376:2423  gameInformation[gameLength-1]._activate = false */\n      dup1\n      sload\n      not(0xff)\n      and\n      swap3\n      iszero\n      iszero\n      swap3\n      swap1\n      swap3\n      or\n      swap1\n      swap2\n      sstore\n      0x01\n      swap1\n        /* \"Prectical5-Tick-Tack-Toe-More-Jason.sol\":2450:2462  gameLength-1 */\n      tag_147\n      dup3\n        /* \"Prectical5-Tick-Tack-Toe-More-Jason.sol\":2450:2460  gameLength */\n      dup5\n        /* \"Prectical5-Tick-Tack-Toe-More-Jason.sol\":2450:2462  gameLength-1 */\n      tag_139\n      jump\t// in\n    tag_147:\n        /* \"Prectical5-Tick-Tack-Toe-More-Jason.sol\":2434:2463  gameInformation[gameLength-1] */\n      dup2\n      sload\n      dup2\n      lt\n      tag_149\n      jumpi\n      tag_149\n      tag_36\n      jump\t// in\n    tag_149:\n      swap1\n      0x00\n      mstore\n      keccak256(0x00, 0x20)\n      swap1\n      0x08\n      mul\n      add\n        /* \"Prectical5-Tick-Tack-Toe-More-Jason.sol\":2434:2476  gameInformation[gameLength-1]._playerCount */\n      0x06\n      add\n        /* \"Prectical5-Tick-Tack-Toe-More-Jason.sol\":2434:2480  gameInformation[gameLength-1]._playerCount = 1 */\n      dup2\n      swap1\n      sstore\n      pop\n        /* \"Prectical5-Tick-Tack-Toe-More-Jason.sol\":2491:2541  gameInformation[gameLength-1]._currentPlayer = \"X\" */\n      mload(0x40)\n      dup1\n      0x40\n      add\n      0x40\n      mstore\n      dup1\n      0x01\n      dup2\n      mstore\n      0x20\n      add\n      shl(0xfb, 0x0b)\n      dup2\n      mstore\n      pop\n        /* \"Prectical5-Tick-Tack-Toe-More-Jason.sol\":2491:2506  gameInformation */\n      0x00\n        /* \"Prectical5-Tick-Tack-Toe-More-Jason.sol\":2518:2519  1 */\n      0x01\n        /* \"Prectical5-Tick-Tack-Toe-More-Jason.sol\":2507:2517  gameLength */\n      dup4\n        /* \"Prectical5-Tick-Tack-Toe-More-Jason.sol\":2507:2519  gameLength-1 */\n      tag_151\n      swap2\n      swap1\n      tag_139\n      jump\t// in\n    tag_151:\n        /* \"Prectical5-Tick-Tack-Toe-More-Jason.sol\":2491:2520  gameInformation[gameLength-1] */\n      dup2\n      sload\n      dup2\n      lt\n      tag_153\n      jumpi\n      tag_153\n      tag_36\n      jump\t// in\n    tag_153:\n      swap1\n      0x00\n      mstore\n      keccak256(0x00, 0x20)\n      swap1\n      0x08\n      mul\n      add\n        /* \"Prectical5-Tick-Tack-Toe-More-Jason.sol\":2491:2535  gameInformation[gameLength-1]._currentPlayer */\n      0x01\n      add\n        /* \"Prectical5-Tick-Tack-Toe-More-Jason.sol\":2491:2541  gameInformation[gameLength-1]._currentPlayer = \"X\" */\n      swap1\n      dup2\n      tag_155\n      swap2\n      swap1\n      tag_39\n      jump\t// in\n    tag_155:\n      pop\n        /* \"Prectical5-Tick-Tack-Toe-More-Jason.sol\":2556:2562  uint i */\n      0x00\n        /* \"Prectical5-Tick-Tack-Toe-More-Jason.sol\":2552:2653  for(uint i = 0; i < 9; i++){... */\n    tag_156:\n        /* \"Prectical5-Tick-Tack-Toe-More-Jason.sol\":2572:2573  9 */\n      0x09\n        /* \"Prectical5-Tick-Tack-Toe-More-Jason.sol\":2568:2569  i */\n      dup2\n        /* \"Prectical5-Tick-Tack-Toe-More-Jason.sol\":2568:2573  i < 9 */\n      lt\n        /* \"Prectical5-Tick-Tack-Toe-More-Jason.sol\":2552:2653  for(uint i = 0; i < 9; i++){... */\n      iszero\n      tag_157\n      jumpi\n        /* \"Prectical5-Tick-Tack-Toe-More-Jason.sol\":2594:2609  gameInformation */\n      0x00\n        /* \"Prectical5-Tick-Tack-Toe-More-Jason.sol\":2610:2622  gameLength-1 */\n      tag_159\n        /* \"Prectical5-Tick-Tack-Toe-More-Jason.sol\":2621:2622  1 */\n      0x01\n        /* \"Prectical5-Tick-Tack-Toe-More-Jason.sol\":2610:2620  gameLength */\n      dup5\n        /* \"Prectical5-Tick-Tack-Toe-More-Jason.sol\":2610:2622  gameLength-1 */\n      tag_139\n      jump\t// in\n    tag_159:\n        /* \"Prectical5-Tick-Tack-Toe-More-Jason.sol\":2594:2623  gameInformation[gameLength-1] */\n      dup2\n      sload\n      dup2\n      lt\n      tag_161\n      jumpi\n      tag_161\n      tag_36\n      jump\t// in\n    tag_161:\n      0x00\n      swap2\n      dup3\n      mstore\n      0x20\n      dup1\n      dup4\n      keccak256\n        /* \"Prectical5-Tick-Tack-Toe-More-Jason.sol\":2594:2632  gameInformation[gameLength-1]._options */\n      0x02\n        /* \"Prectical5-Tick-Tack-Toe-More-Jason.sol\":2594:2623  gameInformation[gameLength-1] */\n      0x08\n      swap1\n      swap4\n      mul\n      add\n        /* \"Prectical5-Tick-Tack-Toe-More-Jason.sol\":2594:2632  gameInformation[gameLength-1]._options */\n      swap2\n      swap1\n      swap2\n      add\n        /* \"Prectical5-Tick-Tack-Toe-More-Jason.sol\":2594:2641  gameInformation[gameLength-1]._options.push(\"\") */\n      dup1\n      sload\n      0x01\n      dup2\n      add\n      dup3\n      sstore\n      swap1\n      dup4\n      mstore\n      dup2\n      dup4\n      keccak256\n      0x40\n      dup1\n      mload\n      swap4\n      dup5\n      add\n      swap1\n      mstore\n      swap3\n      dup3\n      mstore\n      swap2\n      swap1\n      swap2\n      add\n      swap1\n      tag_164\n      swap1\n      dup3\n      tag_39\n      jump\t// in\n    tag_164:\n      pop\n        /* \"Prectical5-Tick-Tack-Toe-More-Jason.sol\":2575:2578  i++ */\n      dup1\n      tag_165\n      dup2\n      tag_166\n      jump\t// in\n    tag_165:\n      swap2\n      pop\n      pop\n        /* \"Prectical5-Tick-Tack-Toe-More-Jason.sol\":2552:2653  for(uint i = 0; i < 9; i++){... */\n      jump(tag_156)\n    tag_157:\n      pop\n        /* \"Prectical5-Tick-Tack-Toe-More-Jason.sol\":2668:2706  testing(gameInformation[gameLength-1]) */\n      0x3a370b33c27181a790ff0b30bac7d21644df9446c928286f82787e920268a1fc\n        /* \"Prectical5-Tick-Tack-Toe-More-Jason.sol\":2676:2691  gameInformation */\n      0x00\n        /* \"Prectical5-Tick-Tack-Toe-More-Jason.sol\":2692:2704  gameLength-1 */\n      tag_167\n        /* \"Prectical5-Tick-Tack-Toe-More-Jason.sol\":2703:2704  1 */\n      0x01\n        /* \"Prectical5-Tick-Tack-Toe-More-Jason.sol\":2692:2702  gameLength */\n      dup5\n        /* \"Prectical5-Tick-Tack-Toe-More-Jason.sol\":2692:2704  gameLength-1 */\n      tag_139\n      jump\t// in\n    tag_167:\n        /* \"Prectical5-Tick-Tack-Toe-More-Jason.sol\":2676:2705  gameInformation[gameLength-1] */\n      dup2\n      sload\n      dup2\n      lt\n      tag_118\n      jumpi\n      tag_118\n      tag_36\n      jump\t// in\n        /* \"Prectical5-Tick-Tack-Toe-More-Jason.sol\":9201:9448  function compareStrings(string memory a, string memory b) public pure returns (bool) {... */\n    tag_27:\n        /* \"Prectical5-Tick-Tack-Toe-More-Jason.sol\":9280:9284  bool */\n      0x00\n        /* \"Prectical5-Tick-Tack-Toe-More-Jason.sol\":9437:9438  b */\n      dup2\n        /* \"Prectical5-Tick-Tack-Toe-More-Jason.sol\":9420:9439  abi.encodePacked(b) */\n      add(0x20, mload(0x40))\n      tag_173\n      swap2\n      swap1\n      tag_174\n      jump\t// in\n    tag_173:\n      mload(0x40)\n      0x20\n      dup2\n      dup4\n      sub\n      sub\n      dup2\n      mstore\n      swap1\n      0x40\n      mstore\n        /* \"Prectical5-Tick-Tack-Toe-More-Jason.sol\":9410:9440  keccak256(abi.encodePacked(b)) */\n      dup1\n      mload\n      swap1\n      0x20\n      add\n      keccak256\n        /* \"Prectical5-Tick-Tack-Toe-More-Jason.sol\":9403:9404  a */\n      dup4\n        /* \"Prectical5-Tick-Tack-Toe-More-Jason.sol\":9386:9405  abi.encodePacked(a) */\n      add(0x20, mload(0x40))\n      tag_175\n      swap2\n      swap1\n      tag_174\n      jump\t// in\n    tag_175:\n      mload(0x40)\n      0x20\n      dup2\n      dup4\n      sub\n      sub\n      dup2\n      mstore\n      swap1\n      0x40\n      mstore\n        /* \"Prectical5-Tick-Tack-Toe-More-Jason.sol\":9376:9406  keccak256(abi.encodePacked(a)) */\n      dup1\n      mload\n      swap1\n      0x20\n      add\n      keccak256\n        /* \"Prectical5-Tick-Tack-Toe-More-Jason.sol\":9376:9440  keccak256(abi.encodePacked(a)) == keccak256(abi.encodePacked(b)) */\n      eq\n        /* \"Prectical5-Tick-Tack-Toe-More-Jason.sol\":9369:9440  return keccak256(abi.encodePacked(a)) == keccak256(abi.encodePacked(b)) */\n      swap1\n      pop\n        /* \"Prectical5-Tick-Tack-Toe-More-Jason.sol\":9201:9448  function compareStrings(string memory a, string memory b) public pure returns (bool) {... */\n    tag_172:\n      swap3\n      swap2\n      pop\n      pop\n      jump\t// out\n        /* \"Prectical5-Tick-Tack-Toe-More-Jason.sol\":2751:4514  function joinGame (uint gameId) external {... */\n    tag_32:\n        /* \"Prectical5-Tick-Tack-Toe-More-Jason.sol\":2818:2833  gameInformation */\n      0x00\n        /* \"Prectical5-Tick-Tack-Toe-More-Jason.sol\":2834:2840  gameId */\n      dup2\n        /* \"Prectical5-Tick-Tack-Toe-More-Jason.sol\":2818:2841  gameInformation[gameId] */\n      dup2\n      sload\n      dup2\n      lt\n      tag_178\n      jumpi\n      tag_178\n      tag_36\n      jump\t// in\n    tag_178:\n      swap1\n      0x00\n      mstore\n      keccak256(0x00, 0x20)\n      swap1\n      0x08\n      mul\n      add\n        /* \"Prectical5-Tick-Tack-Toe-More-Jason.sol\":2818:2854  gameInformation[gameId]._playerCount */\n      0x06\n      add\n      sload\n        /* \"Prectical5-Tick-Tack-Toe-More-Jason.sol\":2858:2859  1 */\n      0x01\n        /* \"Prectical5-Tick-Tack-Toe-More-Jason.sol\":2818:2859  gameInformation[gameId]._playerCount == 1 */\n      sub\n        /* \"Prectical5-Tick-Tack-Toe-More-Jason.sol\":2815:3611  if(gameInformation[gameId]._playerCount == 1){... */\n      tag_180\n      jumpi\n        /* \"Prectical5-Tick-Tack-Toe-More-Jason.sol\":2899:2914  gameInformation */\n      0x00\n        /* \"Prectical5-Tick-Tack-Toe-More-Jason.sol\":2915:2921  gameId */\n      dup2\n        /* \"Prectical5-Tick-Tack-Toe-More-Jason.sol\":2899:2922  gameInformation[gameId] */\n      dup2\n      sload\n      dup2\n      lt\n      tag_182\n      jumpi\n      tag_182\n      tag_36\n      jump\t// in\n    tag_182:\n      0x00\n      swap2\n      dup3\n      mstore\n      0x20\n      swap1\n      swap2\n      keccak256\n        /* \"Prectical5-Tick-Tack-Toe-More-Jason.sol\":2899:2938  gameInformation[gameId]._player1address */\n      0x04\n        /* \"Prectical5-Tick-Tack-Toe-More-Jason.sol\":2899:2922  gameInformation[gameId] */\n      0x08\n      swap1\n      swap3\n      mul\n      add\n        /* \"Prectical5-Tick-Tack-Toe-More-Jason.sol\":2899:2938  gameInformation[gameId]._player1address */\n      add\n      sload\n      sub(shl(0xa0, 0x01), 0x01)\n      and\n        /* \"Prectical5-Tick-Tack-Toe-More-Jason.sol\":2884:2894  msg.sender */\n      caller\n        /* \"Prectical5-Tick-Tack-Toe-More-Jason.sol\":2884:2938  msg.sender !=  gameInformation[gameId]._player1address */\n      sub\n        /* \"Prectical5-Tick-Tack-Toe-More-Jason.sol\":2875:2980  require((msg.sender !=  gameInformation[gameId]._player1address), \"Error: You cannot play with yourself\") */\n      tag_184\n      jumpi\n      mload(0x40)\n      shl(0xe5, 0x461bcd)\n      dup2\n      mstore\n        /* \"#utility.yul\":14577:14579   */\n      0x20\n        /* \"Prectical5-Tick-Tack-Toe-More-Jason.sol\":2875:2980  require((msg.sender !=  gameInformation[gameId]._player1address), \"Error: You cannot play with yourself\") */\n      0x04\n      dup3\n      add\n        /* \"#utility.yul\":14559:14580   */\n      mstore\n        /* \"#utility.yul\":14616:14618   */\n      0x24\n        /* \"#utility.yul\":14596:14614   */\n      dup1\n      dup3\n      add\n        /* \"#utility.yul\":14589:14619   */\n      mstore\n        /* \"#utility.yul\":14655:14689   */\n      0x4572726f723a20596f752063616e6e6f7420706c6179207769746820796f7572\n        /* \"#utility.yul\":14635:14653   */\n      0x44\n      dup3\n      add\n        /* \"#utility.yul\":14628:14690   */\n      mstore\n      shl(0xe1, 0x39b2b633)\n        /* \"#utility.yul\":14706:14724   */\n      0x64\n      dup3\n      add\n        /* \"#utility.yul\":14699:14733   */\n      mstore\n        /* \"#utility.yul\":14750:14769   */\n      0x84\n      add\n        /* \"Prectical5-Tick-Tack-Toe-More-Jason.sol\":2875:2980  require((msg.sender !=  gameInformation[gameId]._player1address), \"Error: You cannot play with yourself\") */\n      tag_58\n        /* \"#utility.yul\":14375:14775   */\n      jump\n        /* \"Prectical5-Tick-Tack-Toe-More-Jason.sol\":2875:2980  require((msg.sender !=  gameInformation[gameId]._player1address), \"Error: You cannot play with yourself\") */\n    tag_184:\n        /* \"Prectical5-Tick-Tack-Toe-More-Jason.sol\":3037:3047  msg.sender */\n      caller\n        /* \"Prectical5-Tick-Tack-Toe-More-Jason.sol\":2995:3010  gameInformation */\n      0x00\n        /* \"Prectical5-Tick-Tack-Toe-More-Jason.sol\":3011:3017  gameId */\n      dup3\n        /* \"Prectical5-Tick-Tack-Toe-More-Jason.sol\":2995:3018  gameInformation[gameId] */\n      dup2\n      sload\n      dup2\n      lt\n      tag_188\n      jumpi\n      tag_188\n      tag_36\n      jump\t// in\n    tag_188:\n      swap1\n      0x00\n      mstore\n      keccak256(0x00, 0x20)\n      swap1\n      0x08\n      mul\n      add\n        /* \"Prectical5-Tick-Tack-Toe-More-Jason.sol\":2995:3034  gameInformation[gameId]._player2address */\n      0x05\n      add\n      0x00\n        /* \"Prectical5-Tick-Tack-Toe-More-Jason.sol\":2995:3047  gameInformation[gameId]._player2address = msg.sender */\n      0x0100\n      exp\n      dup2\n      sload\n      dup2\n      sub(shl(0xa0, 0x01), 0x01)\n      mul\n      not\n      and\n      swap1\n      dup4\n      sub(shl(0xa0, 0x01), 0x01)\n      and\n      mul\n      or\n      swap1\n      sstore\n      pop\n        /* \"Prectical5-Tick-Tack-Toe-More-Jason.sol\":3101:3102  2 */\n      0x02\n        /* \"Prectical5-Tick-Tack-Toe-More-Jason.sol\":3062:3077  gameInformation */\n      0x00\n        /* \"Prectical5-Tick-Tack-Toe-More-Jason.sol\":3078:3084  gameId */\n      dup3\n        /* \"Prectical5-Tick-Tack-Toe-More-Jason.sol\":3062:3085  gameInformation[gameId] */\n      dup2\n      sload\n      dup2\n      lt\n      tag_191\n      jumpi\n      tag_191\n      tag_36\n      jump\t// in\n    tag_191:\n      swap1\n      0x00\n      mstore\n      keccak256(0x00, 0x20)\n      swap1\n      0x08\n      mul\n      add\n        /* \"Prectical5-Tick-Tack-Toe-More-Jason.sol\":3062:3098  gameInformation[gameId]._playerCount */\n      0x06\n      add\n        /* \"Prectical5-Tick-Tack-Toe-More-Jason.sol\":3062:3102  gameInformation[gameId]._playerCount = 2 */\n      dup2\n      swap1\n      sstore\n      pop\n        /* \"Prectical5-Tick-Tack-Toe-More-Jason.sol\":3153:3157  true */\n      0x01\n        /* \"Prectical5-Tick-Tack-Toe-More-Jason.sol\":3117:3132  gameInformation */\n      0x00\n        /* \"Prectical5-Tick-Tack-Toe-More-Jason.sol\":3133:3139  gameId */\n      dup3\n        /* \"Prectical5-Tick-Tack-Toe-More-Jason.sol\":3117:3140  gameInformation[gameId] */\n      dup2\n      sload\n      dup2\n      lt\n      tag_194\n      jumpi\n      tag_194\n      tag_36\n      jump\t// in\n    tag_194:\n      0x00\n      swap2\n      dup3\n      mstore\n      0x20\n      swap1\n      swap2\n      keccak256\n      0x08\n      swap1\n      swap2\n      mul\n      add\n        /* \"Prectical5-Tick-Tack-Toe-More-Jason.sol\":3117:3157  gameInformation[gameId]._activate = true */\n      dup1\n      sload\n      not(0xff)\n      and\n      swap2\n      iszero\n      iszero\n      swap2\n      swap1\n      swap2\n      or\n      swap1\n      sstore\n        /* \"Prectical5-Tick-Tack-Toe-More-Jason.sol\":2815:3611  if(gameInformation[gameId]._playerCount == 1){... */\n      jump(tag_200)\n    tag_180:\n        /* \"Prectical5-Tick-Tack-Toe-More-Jason.sol\":3492:3507  gameInformation */\n      0x00\n        /* \"Prectical5-Tick-Tack-Toe-More-Jason.sol\":3508:3514  gameId */\n      dup2\n        /* \"Prectical5-Tick-Tack-Toe-More-Jason.sol\":3492:3515  gameInformation[gameId] */\n      dup2\n      sload\n      dup2\n      lt\n      tag_198\n      jumpi\n      tag_198\n      tag_36\n      jump\t// in\n    tag_198:\n      swap1\n      0x00\n      mstore\n      keccak256(0x00, 0x20)\n      swap1\n      0x08\n      mul\n      add\n        /* \"Prectical5-Tick-Tack-Toe-More-Jason.sol\":3492:3528  gameInformation[gameId]._playerCount */\n      0x06\n      add\n      sload\n        /* \"Prectical5-Tick-Tack-Toe-More-Jason.sol\":3532:3533  2 */\n      0x02\n        /* \"Prectical5-Tick-Tack-Toe-More-Jason.sol\":3492:3533  gameInformation[gameId]._playerCount == 2 */\n      eq\n        /* \"Prectical5-Tick-Tack-Toe-More-Jason.sol\":3484:3599  require(gameInformation[gameId]._playerCount == 2,\"Now queue is full, try later. Game already full pls join other\") */\n      tag_200\n      jumpi\n      mload(0x40)\n      shl(0xe5, 0x461bcd)\n      dup2\n      mstore\n        /* \"#utility.yul\":14982:14984   */\n      0x20\n        /* \"Prectical5-Tick-Tack-Toe-More-Jason.sol\":3484:3599  require(gameInformation[gameId]._playerCount == 2,\"Now queue is full, try later. Game already full pls join other\") */\n      0x04\n      dup3\n      add\n        /* \"#utility.yul\":14964:14985   */\n      mstore\n        /* \"#utility.yul\":15021:15023   */\n      0x3e\n        /* \"#utility.yul\":15001:15019   */\n      0x24\n      dup3\n      add\n        /* \"#utility.yul\":14994:15024   */\n      mstore\n        /* \"#utility.yul\":15060:15094   */\n      0x4e6f772071756575652069732066756c6c2c20747279206c617465722e204761\n        /* \"#utility.yul\":15040:15058   */\n      0x44\n      dup3\n      add\n        /* \"#utility.yul\":15033:15095   */\n      mstore\n        /* \"#utility.yul\":15131:15163   */\n      0x6d6520616c72656164792066756c6c20706c73206a6f696e206f746865720000\n        /* \"#utility.yul\":15111:15129   */\n      0x64\n      dup3\n      add\n        /* \"#utility.yul\":15104:15164   */\n      mstore\n        /* \"#utility.yul\":15181:15200   */\n      0x84\n      add\n        /* \"Prectical5-Tick-Tack-Toe-More-Jason.sol\":3484:3599  require(gameInformation[gameId]._playerCount == 2,\"Now queue is full, try later. Game already full pls join other\") */\n      tag_58\n        /* \"#utility.yul\":14780:15206   */\n      jump\n        /* \"Prectical5-Tick-Tack-Toe-More-Jason.sol\":3484:3599  require(gameInformation[gameId]._playerCount == 2,\"Now queue is full, try later. Game already full pls join other\") */\n    tag_200:\n        /* \"Prectical5-Tick-Tack-Toe-More-Jason.sol\":4474:4506  testing(gameInformation[gameId]) */\n      0x3a370b33c27181a790ff0b30bac7d21644df9446c928286f82787e920268a1fc\n        /* \"Prectical5-Tick-Tack-Toe-More-Jason.sol\":4482:4497  gameInformation */\n      0x00\n        /* \"Prectical5-Tick-Tack-Toe-More-Jason.sol\":4498:4504  gameId */\n      dup3\n        /* \"Prectical5-Tick-Tack-Toe-More-Jason.sol\":4482:4505  gameInformation[gameId] */\n      dup2\n      sload\n      dup2\n      lt\n      tag_204\n      jumpi\n      tag_204\n      tag_36\n      jump\t// in\n    tag_204:\n      swap1\n      0x00\n      mstore\n      keccak256(0x00, 0x20)\n      swap1\n      0x08\n      mul\n      add\n        /* \"Prectical5-Tick-Tack-Toe-More-Jason.sol\":4474:4506  testing(gameInformation[gameId]) */\n      mload(0x40)\n      tag_206\n      swap2\n      swap1\n      tag_121\n      jump\t// in\n    tag_206:\n      mload(0x40)\n      dup1\n      swap2\n      sub\n      swap1\n      log1\n        /* \"Prectical5-Tick-Tack-Toe-More-Jason.sol\":2751:4514  function joinGame (uint gameId) external {... */\n      pop\n      jump\t// out\n        /* \"Prectical5-Tick-Tack-Toe-More-Jason.sol\":5680:7995  function checkWinner (uint gameId) private {... */\n    tag_116:\n        /* \"Prectical5-Tick-Tack-Toe-More-Jason.sol\":5734:5746  bool userWon */\n      0x00\n        /* \"Prectical5-Tick-Tack-Toe-More-Jason.sol\":5872:5878  uint i */\n      dup1\n        /* \"Prectical5-Tick-Tack-Toe-More-Jason.sol\":5868:7243  for(uint i = 0 ; i < winConditionSet.length; i++){... */\n    tag_208:\n        /* \"Prectical5-Tick-Tack-Toe-More-Jason.sol\":5889:5904  winConditionSet */\n      0x01\n        /* \"Prectical5-Tick-Tack-Toe-More-Jason.sol\":5889:5911  winConditionSet.length */\n      sload\n        /* \"Prectical5-Tick-Tack-Toe-More-Jason.sol\":5885:5911  i < winConditionSet.length */\n      dup2\n      lt\n        /* \"Prectical5-Tick-Tack-Toe-More-Jason.sol\":5868:7243  for(uint i = 0 ; i < winConditionSet.length; i++){... */\n      iszero\n      tag_209\n      jumpi\n        /* \"Prectical5-Tick-Tack-Toe-More-Jason.sol\":5932:5958  uint[] memory winCondition */\n      0x00\n        /* \"Prectical5-Tick-Tack-Toe-More-Jason.sol\":5961:5976  winConditionSet */\n      0x01\n        /* \"Prectical5-Tick-Tack-Toe-More-Jason.sol\":5977:5978  i */\n      dup3\n        /* \"Prectical5-Tick-Tack-Toe-More-Jason.sol\":5961:5979  winConditionSet[i] */\n      dup2\n      sload\n      dup2\n      lt\n      tag_212\n      jumpi\n      tag_212\n      tag_36\n      jump\t// in\n    tag_212:\n      swap1\n      0x00\n      mstore\n      keccak256(0x00, 0x20)\n      add\n        /* \"Prectical5-Tick-Tack-Toe-More-Jason.sol\":5932:5979  uint[] memory winCondition = winConditionSet[i] */\n      dup1\n      sload\n      dup1\n      0x20\n      mul\n      0x20\n      add\n      mload(0x40)\n      swap1\n      dup2\n      add\n      0x40\n      mstore\n      dup1\n      swap3\n      swap2\n      swap1\n      dup2\n      dup2\n      mstore\n      0x20\n      add\n      dup3\n      dup1\n      sload\n      dup1\n      iszero\n      tag_214\n      jumpi\n      0x20\n      mul\n      dup3\n      add\n      swap2\n      swap1\n      0x00\n      mstore\n      keccak256(0x00, 0x20)\n      swap1\n    tag_215:\n      dup2\n      sload\n      dup2\n      mstore\n      0x20\n      add\n      swap1\n      0x01\n      add\n      swap1\n      dup1\n      dup4\n      gt\n      tag_215\n      jumpi\n    tag_214:\n      pop\n      pop\n      pop\n      pop\n      pop\n      swap1\n      pop\n        /* \"Prectical5-Tick-Tack-Toe-More-Jason.sol\":6053:6074  string memory resultA */\n      0x00\n        /* \"Prectical5-Tick-Tack-Toe-More-Jason.sol\":6076:6091  gameInformation */\n      dup1\n        /* \"Prectical5-Tick-Tack-Toe-More-Jason.sol\":6092:6098  gameId */\n      dup6\n        /* \"Prectical5-Tick-Tack-Toe-More-Jason.sol\":6076:6099  gameInformation[gameId] */\n      dup2\n      sload\n      dup2\n      lt\n      tag_217\n      jumpi\n      tag_217\n      tag_36\n      jump\t// in\n    tag_217:\n      swap1\n      0x00\n      mstore\n      keccak256(0x00, 0x20)\n      swap1\n      0x08\n      mul\n      add\n        /* \"Prectical5-Tick-Tack-Toe-More-Jason.sol\":6076:6108  gameInformation[gameId]._options */\n      0x02\n      add\n        /* \"Prectical5-Tick-Tack-Toe-More-Jason.sol\":6109:6121  winCondition */\n      dup3\n        /* \"Prectical5-Tick-Tack-Toe-More-Jason.sol\":6122:6123  0 */\n      0x00\n        /* \"Prectical5-Tick-Tack-Toe-More-Jason.sol\":6109:6124  winCondition[0] */\n      dup2\n      mload\n      dup2\n      lt\n      tag_220\n      jumpi\n      tag_220\n      tag_36\n      jump\t// in\n    tag_220:\n      0x20\n      mul\n      0x20\n      add\n      add\n      mload\n        /* \"Prectical5-Tick-Tack-Toe-More-Jason.sol\":6076:6125  gameInformation[gameId]._options[winCondition[0]] */\n      dup2\n      sload\n      dup2\n      lt\n      tag_222\n      jumpi\n      tag_222\n      tag_36\n      jump\t// in\n    tag_222:\n      swap1\n      0x00\n      mstore\n      keccak256(0x00, 0x20)\n      add\n        /* \"Prectical5-Tick-Tack-Toe-More-Jason.sol\":6053:6125  string memory resultA= gameInformation[gameId]._options[winCondition[0]] */\n      dup1\n      sload\n      tag_224\n      swap1\n      tag_68\n      jump\t// in\n    tag_224:\n      dup1\n      0x1f\n      add\n      0x20\n      dup1\n      swap2\n      div\n      mul\n      0x20\n      add\n      mload(0x40)\n      swap1\n      dup2\n      add\n      0x40\n      mstore\n      dup1\n      swap3\n      swap2\n      swap1\n      dup2\n      dup2\n      mstore\n      0x20\n      add\n      dup3\n      dup1\n      sload\n      tag_225\n      swap1\n      tag_68\n      jump\t// in\n    tag_225:\n      dup1\n      iszero\n      tag_226\n      jumpi\n      dup1\n      0x1f\n      lt\n      tag_227\n      jumpi\n      0x0100\n      dup1\n      dup4\n      sload\n      div\n      mul\n      dup4\n      mstore\n      swap2\n      0x20\n      add\n      swap2\n      jump(tag_226)\n    tag_227:\n      dup3\n      add\n      swap2\n      swap1\n      0x00\n      mstore\n      keccak256(0x00, 0x20)\n      swap1\n    tag_228:\n      dup2\n      sload\n      dup2\n      mstore\n      swap1\n      0x01\n      add\n      swap1\n      0x20\n      add\n      dup1\n      dup4\n      gt\n      tag_228\n      jumpi\n      dup3\n      swap1\n      sub\n      0x1f\n      and\n      dup3\n      add\n      swap2\n    tag_226:\n      pop\n      pop\n      pop\n      pop\n      pop\n      swap1\n      pop\n        /* \"Prectical5-Tick-Tack-Toe-More-Jason.sol\":6140:6161  string memory resultB */\n      0x00\n        /* \"Prectical5-Tick-Tack-Toe-More-Jason.sol\":6163:6178  gameInformation */\n      dup1\n        /* \"Prectical5-Tick-Tack-Toe-More-Jason.sol\":6179:6185  gameId */\n      dup7\n        /* \"Prectical5-Tick-Tack-Toe-More-Jason.sol\":6163:6186  gameInformation[gameId] */\n      dup2\n      sload\n      dup2\n      lt\n      tag_230\n      jumpi\n      tag_230\n      tag_36\n      jump\t// in\n    tag_230:\n      swap1\n      0x00\n      mstore\n      keccak256(0x00, 0x20)\n      swap1\n      0x08\n      mul\n      add\n        /* \"Prectical5-Tick-Tack-Toe-More-Jason.sol\":6163:6195  gameInformation[gameId]._options */\n      0x02\n      add\n        /* \"Prectical5-Tick-Tack-Toe-More-Jason.sol\":6196:6208  winCondition */\n      dup4\n        /* \"Prectical5-Tick-Tack-Toe-More-Jason.sol\":6209:6210  1 */\n      0x01\n        /* \"Prectical5-Tick-Tack-Toe-More-Jason.sol\":6196:6211  winCondition[1] */\n      dup2\n      mload\n      dup2\n      lt\n      tag_233\n      jumpi\n      tag_233\n      tag_36\n      jump\t// in\n    tag_233:\n      0x20\n      mul\n      0x20\n      add\n      add\n      mload\n        /* \"Prectical5-Tick-Tack-Toe-More-Jason.sol\":6163:6212  gameInformation[gameId]._options[winCondition[1]] */\n      dup2\n      sload\n      dup2\n      lt\n      tag_235\n      jumpi\n      tag_235\n      tag_36\n      jump\t// in\n    tag_235:\n      swap1\n      0x00\n      mstore\n      keccak256(0x00, 0x20)\n      add\n        /* \"Prectical5-Tick-Tack-Toe-More-Jason.sol\":6140:6212  string memory resultB= gameInformation[gameId]._options[winCondition[1]] */\n      dup1\n      sload\n      tag_237\n      swap1\n      tag_68\n      jump\t// in\n    tag_237:\n      dup1\n      0x1f\n      add\n      0x20\n      dup1\n      swap2\n      div\n      mul\n      0x20\n      add\n      mload(0x40)\n      swap1\n      dup2\n      add\n      0x40\n      mstore\n      dup1\n      swap3\n      swap2\n      swap1\n      dup2\n      dup2\n      mstore\n      0x20\n      add\n      dup3\n      dup1\n      sload\n      tag_238\n      swap1\n      tag_68\n      jump\t// in\n    tag_238:\n      dup1\n      iszero\n      tag_239\n      jumpi\n      dup1\n      0x1f\n      lt\n      tag_240\n      jumpi\n      0x0100\n      dup1\n      dup4\n      sload\n      div\n      mul\n      dup4\n      mstore\n      swap2\n      0x20\n      add\n      swap2\n      jump(tag_239)\n    tag_240:\n      dup3\n      add\n      swap2\n      swap1\n      0x00\n      mstore\n      keccak256(0x00, 0x20)\n      swap1\n    tag_241:\n      dup2\n      sload\n      dup2\n      mstore\n      swap1\n      0x01\n      add\n      swap1\n      0x20\n      add\n      dup1\n      dup4\n      gt\n      tag_241\n      jumpi\n      dup3\n      swap1\n      sub\n      0x1f\n      and\n      dup3\n      add\n      swap2\n    tag_239:\n      pop\n      pop\n      pop\n      pop\n      pop\n      swap1\n      pop\n        /* \"Prectical5-Tick-Tack-Toe-More-Jason.sol\":6227:6248  string memory resultC */\n      0x00\n        /* \"Prectical5-Tick-Tack-Toe-More-Jason.sol\":6250:6265  gameInformation */\n      dup1\n        /* \"Prectical5-Tick-Tack-Toe-More-Jason.sol\":6266:6272  gameId */\n      dup8\n        /* \"Prectical5-Tick-Tack-Toe-More-Jason.sol\":6250:6273  gameInformation[gameId] */\n      dup2\n      sload\n      dup2\n      lt\n      tag_243\n      jumpi\n      tag_243\n      tag_36\n      jump\t// in\n    tag_243:\n      swap1\n      0x00\n      mstore\n      keccak256(0x00, 0x20)\n      swap1\n      0x08\n      mul\n      add\n        /* \"Prectical5-Tick-Tack-Toe-More-Jason.sol\":6250:6282  gameInformation[gameId]._options */\n      0x02\n      add\n        /* \"Prectical5-Tick-Tack-Toe-More-Jason.sol\":6283:6295  winCondition */\n      dup5\n        /* \"Prectical5-Tick-Tack-Toe-More-Jason.sol\":6296:6297  2 */\n      0x02\n        /* \"Prectical5-Tick-Tack-Toe-More-Jason.sol\":6283:6298  winCondition[2] */\n      dup2\n      mload\n      dup2\n      lt\n      tag_246\n      jumpi\n      tag_246\n      tag_36\n      jump\t// in\n    tag_246:\n      0x20\n      mul\n      0x20\n      add\n      add\n      mload\n        /* \"Prectical5-Tick-Tack-Toe-More-Jason.sol\":6250:6299  gameInformation[gameId]._options[winCondition[2]] */\n      dup2\n      sload\n      dup2\n      lt\n      tag_248\n      jumpi\n      tag_248\n      tag_36\n      jump\t// in\n    tag_248:\n      swap1\n      0x00\n      mstore\n      keccak256(0x00, 0x20)\n      add\n        /* \"Prectical5-Tick-Tack-Toe-More-Jason.sol\":6227:6299  string memory resultC= gameInformation[gameId]._options[winCondition[2]] */\n      dup1\n      sload\n      tag_250\n      swap1\n      tag_68\n      jump\t// in\n    tag_250:\n      dup1\n      0x1f\n      add\n      0x20\n      dup1\n      swap2\n      div\n      mul\n      0x20\n      add\n      mload(0x40)\n      swap1\n      dup2\n      add\n      0x40\n      mstore\n      dup1\n      swap3\n      swap2\n      swap1\n      dup2\n      dup2\n      mstore\n      0x20\n      add\n      dup3\n      dup1\n      sload\n      tag_251\n      swap1\n      tag_68\n      jump\t// in\n    tag_251:\n      dup1\n      iszero\n      tag_252\n      jumpi\n      dup1\n      0x1f\n      lt\n      tag_253\n      jumpi\n      0x0100\n      dup1\n      dup4\n      sload\n      div\n      mul\n      dup4\n      mstore\n      swap2\n      0x20\n      add\n      swap2\n      jump(tag_252)\n    tag_253:\n      dup3\n      add\n      swap2\n      swap1\n      0x00\n      mstore\n      keccak256(0x00, 0x20)\n      swap1\n    tag_254:\n      dup2\n      sload\n      dup2\n      mstore\n      swap1\n      0x01\n      add\n      swap1\n      0x20\n      add\n      dup1\n      dup4\n      gt\n      tag_254\n      jumpi\n      dup3\n      swap1\n      sub\n      0x1f\n      and\n      dup3\n      add\n      swap2\n    tag_252:\n      pop\n      pop\n      pop\n      pop\n      pop\n      swap1\n      pop\n        /* \"Prectical5-Tick-Tack-Toe-More-Jason.sol\":6518:6545  compareStrings(resultA, \"\") */\n      tag_255\n        /* \"Prectical5-Tick-Tack-Toe-More-Jason.sol\":6533:6540  resultA */\n      dup4\n        /* \"Prectical5-Tick-Tack-Toe-More-Jason.sol\":6518:6545  compareStrings(resultA, \"\") */\n      mload(0x40)\n      dup1\n      0x20\n      add\n      0x40\n      mstore\n      dup1\n      0x00\n      dup2\n      mstore\n      pop\n        /* \"Prectical5-Tick-Tack-Toe-More-Jason.sol\":6518:6532  compareStrings */\n      tag_27\n        /* \"Prectical5-Tick-Tack-Toe-More-Jason.sol\":6518:6545  compareStrings(resultA, \"\") */\n      jump\t// in\n    tag_255:\n        /* \"Prectical5-Tick-Tack-Toe-More-Jason.sol\":6518:6574  compareStrings(resultA, \"\")||compareStrings(resultB, \"\") */\n      dup1\n      tag_257\n      jumpi\n      pop\n        /* \"Prectical5-Tick-Tack-Toe-More-Jason.sol\":6547:6574  compareStrings(resultB, \"\") */\n      tag_257\n        /* \"Prectical5-Tick-Tack-Toe-More-Jason.sol\":6562:6569  resultB */\n      dup3\n        /* \"Prectical5-Tick-Tack-Toe-More-Jason.sol\":6547:6574  compareStrings(resultB, \"\") */\n      mload(0x40)\n      dup1\n      0x20\n      add\n      0x40\n      mstore\n      dup1\n      0x00\n      dup2\n      mstore\n      pop\n        /* \"Prectical5-Tick-Tack-Toe-More-Jason.sol\":6547:6561  compareStrings */\n      tag_27\n        /* \"Prectical5-Tick-Tack-Toe-More-Jason.sol\":6547:6574  compareStrings(resultB, \"\") */\n      jump\t// in\n    tag_257:\n        /* \"Prectical5-Tick-Tack-Toe-More-Jason.sol\":6518:6603  compareStrings(resultA, \"\")||compareStrings(resultB, \"\")||compareStrings(resultC, \"\") */\n      dup1\n      tag_259\n      jumpi\n      pop\n        /* \"Prectical5-Tick-Tack-Toe-More-Jason.sol\":6576:6603  compareStrings(resultC, \"\") */\n      tag_259\n        /* \"Prectical5-Tick-Tack-Toe-More-Jason.sol\":6591:6598  resultC */\n      dup2\n        /* \"Prectical5-Tick-Tack-Toe-More-Jason.sol\":6576:6603  compareStrings(resultC, \"\") */\n      mload(0x40)\n      dup1\n      0x20\n      add\n      0x40\n      mstore\n      dup1\n      0x00\n      dup2\n      mstore\n      pop\n        /* \"Prectical5-Tick-Tack-Toe-More-Jason.sol\":6576:6590  compareStrings */\n      tag_27\n        /* \"Prectical5-Tick-Tack-Toe-More-Jason.sol\":6576:6603  compareStrings(resultC, \"\") */\n      jump\t// in\n    tag_259:\n        /* \"Prectical5-Tick-Tack-Toe-More-Jason.sol\":6515:6647  if(compareStrings(resultA, \"\")||compareStrings(resultB, \"\")||compareStrings(resultC, \"\")){... */\n      iszero\n      tag_260\n      jumpi\n        /* \"Prectical5-Tick-Tack-Toe-More-Jason.sol\":6623:6631  continue */\n      pop\n      pop\n      pop\n      pop\n      jump(tag_210)\n        /* \"Prectical5-Tick-Tack-Toe-More-Jason.sol\":6515:6647  if(compareStrings(resultA, \"\")||compareStrings(resultB, \"\")||compareStrings(resultC, \"\")){... */\n    tag_260:\n        /* \"Prectical5-Tick-Tack-Toe-More-Jason.sol\":6664:6696  compareStrings(resultA, resultB) */\n      tag_261\n        /* \"Prectical5-Tick-Tack-Toe-More-Jason.sol\":6679:6686  resultA */\n      dup4\n        /* \"Prectical5-Tick-Tack-Toe-More-Jason.sol\":6688:6695  resultB */\n      dup4\n        /* \"Prectical5-Tick-Tack-Toe-More-Jason.sol\":6664:6678  compareStrings */\n      tag_27\n        /* \"Prectical5-Tick-Tack-Toe-More-Jason.sol\":6664:6696  compareStrings(resultA, resultB) */\n      jump\t// in\n    tag_261:\n        /* \"Prectical5-Tick-Tack-Toe-More-Jason.sol\":6664:6732  compareStrings(resultA, resultB) && compareStrings(resultB, resultC) */\n      dup1\n      iszero\n      tag_263\n      jumpi\n      pop\n        /* \"Prectical5-Tick-Tack-Toe-More-Jason.sol\":6700:6732  compareStrings(resultB, resultC) */\n      tag_263\n        /* \"Prectical5-Tick-Tack-Toe-More-Jason.sol\":6715:6722  resultB */\n      dup3\n        /* \"Prectical5-Tick-Tack-Toe-More-Jason.sol\":6724:6731  resultC */\n      dup3\n        /* \"Prectical5-Tick-Tack-Toe-More-Jason.sol\":6700:6714  compareStrings */\n      tag_27\n        /* \"Prectical5-Tick-Tack-Toe-More-Jason.sol\":6700:6732  compareStrings(resultB, resultC) */\n      jump\t// in\n    tag_263:\n        /* \"Prectical5-Tick-Tack-Toe-More-Jason.sol\":6661:7232  if(compareStrings(resultA, resultB) && compareStrings(resultB, resultC)){... */\n      iszero\n      tag_264\n      jumpi\n        /* \"Prectical5-Tick-Tack-Toe-More-Jason.sol\":6794:6806  winCondition */\n      dup4\n        /* \"Prectical5-Tick-Tack-Toe-More-Jason.sol\":6752:6767  gameInformation */\n      0x00\n        /* \"Prectical5-Tick-Tack-Toe-More-Jason.sol\":6768:6774  gameId */\n      dup9\n        /* \"Prectical5-Tick-Tack-Toe-More-Jason.sol\":6752:6775  gameInformation[gameId] */\n      dup2\n      sload\n      dup2\n      lt\n      tag_266\n      jumpi\n      tag_266\n      tag_36\n      jump\t// in\n    tag_266:\n      swap1\n      0x00\n      mstore\n      keccak256(0x00, 0x20)\n      swap1\n      0x08\n      mul\n      add\n        /* \"Prectical5-Tick-Tack-Toe-More-Jason.sol\":6752:6791  gameInformation[gameId]._finalWinOption */\n      0x03\n      add\n        /* \"Prectical5-Tick-Tack-Toe-More-Jason.sol\":6752:6806  gameInformation[gameId]._finalWinOption = winCondition */\n      swap1\n      dup1\n      mload\n      swap1\n      0x20\n      add\n      swap1\n      tag_268\n      swap3\n      swap2\n      swap1\n      tag_137\n      jump\t// in\n    tag_268:\n      pop\n        /* \"Prectical5-Tick-Tack-Toe-More-Jason.sol\":6846:6905  compareStrings(gameInformation[gameId]._currentPlayer, \"X\") */\n      tag_269\n        /* \"Prectical5-Tick-Tack-Toe-More-Jason.sol\":6861:6876  gameInformation */\n      0x00\n        /* \"Prectical5-Tick-Tack-Toe-More-Jason.sol\":6877:6883  gameId */\n      dup9\n        /* \"Prectical5-Tick-Tack-Toe-More-Jason.sol\":6861:6884  gameInformation[gameId] */\n      dup2\n      sload\n      dup2\n      lt\n      tag_78\n      jumpi\n      tag_78\n      tag_36\n      jump\t// in\n        /* \"Prectical5-Tick-Tack-Toe-More-Jason.sol\":6846:6905  compareStrings(gameInformation[gameId]._currentPlayer, \"X\") */\n    tag_269:\n        /* \"Prectical5-Tick-Tack-Toe-More-Jason.sol\":6843:7142  if(compareStrings(gameInformation[gameId]._currentPlayer, \"X\")){... */\n      iszero\n      tag_278\n      jumpi\n        /* \"Prectical5-Tick-Tack-Toe-More-Jason.sol\":6962:6977  gameInformation */\n      0x00\n        /* \"Prectical5-Tick-Tack-Toe-More-Jason.sol\":6978:6984  gameId */\n      dup8\n        /* \"Prectical5-Tick-Tack-Toe-More-Jason.sol\":6962:6985  gameInformation[gameId] */\n      dup2\n      sload\n      dup2\n      lt\n      tag_280\n      jumpi\n      tag_280\n      tag_36\n      jump\t// in\n    tag_280:\n      0x00\n      swap2\n      dup3\n      mstore\n      0x20\n      dup3\n      keccak256\n        /* \"Prectical5-Tick-Tack-Toe-More-Jason.sol\":6962:7001  gameInformation[gameId]._player1address */\n      0x04\n        /* \"Prectical5-Tick-Tack-Toe-More-Jason.sol\":6962:6985  gameInformation[gameId] */\n      0x08\n      swap1\n      swap3\n      mul\n      add\n        /* \"Prectical5-Tick-Tack-Toe-More-Jason.sol\":6962:7001  gameInformation[gameId]._player1address */\n      add\n      sload\n        /* \"Prectical5-Tick-Tack-Toe-More-Jason.sol\":6929:6952  gameInformation[gameId] */\n      dup2\n      sload\n      sub(shl(0xa0, 0x01), 0x01)\n        /* \"Prectical5-Tick-Tack-Toe-More-Jason.sol\":6962:7001  gameInformation[gameId]._player1address */\n      swap1\n      swap2\n      and\n      swap2\n        /* \"Prectical5-Tick-Tack-Toe-More-Jason.sol\":6962:6985  gameInformation[gameId] */\n      swap1\n        /* \"Prectical5-Tick-Tack-Toe-More-Jason.sol\":6945:6951  gameId */\n      dup10\n      swap1\n        /* \"Prectical5-Tick-Tack-Toe-More-Jason.sol\":6929:6952  gameInformation[gameId] */\n      dup2\n      lt\n      tag_283\n      jumpi\n      tag_283\n      tag_36\n      jump\t// in\n    tag_283:\n      swap1\n      0x00\n      mstore\n      keccak256(0x00, 0x20)\n      swap1\n      0x08\n      mul\n      add\n        /* \"Prectical5-Tick-Tack-Toe-More-Jason.sol\":6929:6959  gameInformation[gameId]._winer */\n      0x07\n      add\n      0x00\n        /* \"Prectical5-Tick-Tack-Toe-More-Jason.sol\":6929:7001  gameInformation[gameId]._winer = gameInformation[gameId]._player1address */\n      0x0100\n      exp\n      dup2\n      sload\n      dup2\n      sub(shl(0xa0, 0x01), 0x01)\n      mul\n      not\n      and\n      swap1\n      dup4\n      sub(shl(0xa0, 0x01), 0x01)\n      and\n      mul\n      or\n      swap1\n      sstore\n      pop\n        /* \"Prectical5-Tick-Tack-Toe-More-Jason.sol\":6843:7142  if(compareStrings(gameInformation[gameId]._currentPlayer, \"X\")){... */\n      jump(tag_285)\n    tag_278:\n        /* \"Prectical5-Tick-Tack-Toe-More-Jason.sol\":7083:7098  gameInformation */\n      0x00\n        /* \"Prectical5-Tick-Tack-Toe-More-Jason.sol\":7099:7105  gameId */\n      dup8\n        /* \"Prectical5-Tick-Tack-Toe-More-Jason.sol\":7083:7106  gameInformation[gameId] */\n      dup2\n      sload\n      dup2\n      lt\n      tag_287\n      jumpi\n      tag_287\n      tag_36\n      jump\t// in\n    tag_287:\n      0x00\n      swap2\n      dup3\n      mstore\n      0x20\n      dup3\n      keccak256\n        /* \"Prectical5-Tick-Tack-Toe-More-Jason.sol\":7083:7122  gameInformation[gameId]._player2address */\n      0x05\n        /* \"Prectical5-Tick-Tack-Toe-More-Jason.sol\":7083:7106  gameInformation[gameId] */\n      0x08\n      swap1\n      swap3\n      mul\n      add\n        /* \"Prectical5-Tick-Tack-Toe-More-Jason.sol\":7083:7122  gameInformation[gameId]._player2address */\n      add\n      sload\n        /* \"Prectical5-Tick-Tack-Toe-More-Jason.sol\":7050:7073  gameInformation[gameId] */\n      dup2\n      sload\n      sub(shl(0xa0, 0x01), 0x01)\n        /* \"Prectical5-Tick-Tack-Toe-More-Jason.sol\":7083:7122  gameInformation[gameId]._player2address */\n      swap1\n      swap2\n      and\n      swap2\n        /* \"Prectical5-Tick-Tack-Toe-More-Jason.sol\":7083:7106  gameInformation[gameId] */\n      swap1\n        /* \"Prectical5-Tick-Tack-Toe-More-Jason.sol\":7066:7072  gameId */\n      dup10\n      swap1\n        /* \"Prectical5-Tick-Tack-Toe-More-Jason.sol\":7050:7073  gameInformation[gameId] */\n      dup2\n      lt\n      tag_290\n      jumpi\n      tag_290\n      tag_36\n      jump\t// in\n    tag_290:\n      swap1\n      0x00\n      mstore\n      keccak256(0x00, 0x20)\n      swap1\n      0x08\n      mul\n      add\n        /* \"Prectical5-Tick-Tack-Toe-More-Jason.sol\":7050:7080  gameInformation[gameId]._winer */\n      0x07\n      add\n      0x00\n        /* \"Prectical5-Tick-Tack-Toe-More-Jason.sol\":7050:7122  gameInformation[gameId]._winer = gameInformation[gameId]._player2address */\n      0x0100\n      exp\n      dup2\n      sload\n      dup2\n      sub(shl(0xa0, 0x01), 0x01)\n      mul\n      not\n      and\n      swap1\n      dup4\n      sub(shl(0xa0, 0x01), 0x01)\n      and\n      mul\n      or\n      swap1\n      sstore\n      pop\n        /* \"Prectical5-Tick-Tack-Toe-More-Jason.sol\":6843:7142  if(compareStrings(gameInformation[gameId]._currentPlayer, \"X\")){... */\n    tag_285:\n        /* \"Prectical5-Tick-Tack-Toe-More-Jason.sol\":7188:7192  true */\n      0x01\n        /* \"Prectical5-Tick-Tack-Toe-More-Jason.sol\":7178:7192  userWon = true */\n      swap6\n      pop\n        /* \"Prectical5-Tick-Tack-Toe-More-Jason.sol\":7211:7216  break */\n      pop\n      pop\n      pop\n      pop\n      jump(tag_209)\n        /* \"Prectical5-Tick-Tack-Toe-More-Jason.sol\":6661:7232  if(compareStrings(resultA, resultB) && compareStrings(resultB, resultC)){... */\n    tag_264:\n        /* \"Prectical5-Tick-Tack-Toe-More-Jason.sol\":5917:7243  {... */\n      pop\n      pop\n      pop\n      pop\n        /* \"Prectical5-Tick-Tack-Toe-More-Jason.sol\":5868:7243  for(uint i = 0 ; i < winConditionSet.length; i++){... */\n    tag_210:\n        /* \"Prectical5-Tick-Tack-Toe-More-Jason.sol\":5913:5916  i++ */\n      dup1\n      tag_292\n      dup2\n      tag_166\n      jump\t// in\n    tag_292:\n      swap2\n      pop\n      pop\n        /* \"Prectical5-Tick-Tack-Toe-More-Jason.sol\":5868:7243  for(uint i = 0 ; i < winConditionSet.length; i++){... */\n      jump(tag_208)\n    tag_209:\n      pop\n        /* \"Prectical5-Tick-Tack-Toe-More-Jason.sol\":7361:7368  userWon */\n      dup1\n        /* \"Prectical5-Tick-Tack-Toe-More-Jason.sol\":7358:7988  if(userWon){... */\n      iszero\n      tag_293\n      jumpi\n        /* \"Prectical5-Tick-Tack-Toe-More-Jason.sol\":7426:7476  showResult(gameInformation[gameId]._currentPlayer) */\n      0xcde5c32c0a45fd8aa4b65ea8003fc9da9acd5e2c6c24a9fcce6ab79cabbd9122\n        /* \"Prectical5-Tick-Tack-Toe-More-Jason.sol\":7437:7452  gameInformation */\n      0x00\n        /* \"Prectical5-Tick-Tack-Toe-More-Jason.sol\":7453:7459  gameId */\n      dup4\n        /* \"Prectical5-Tick-Tack-Toe-More-Jason.sol\":7437:7460  gameInformation[gameId] */\n      dup2\n      sload\n      dup2\n      lt\n      tag_295\n      jumpi\n      tag_295\n      tag_36\n      jump\t// in\n    tag_295:\n      swap1\n      0x00\n      mstore\n      keccak256(0x00, 0x20)\n      swap1\n      0x08\n      mul\n      add\n        /* \"Prectical5-Tick-Tack-Toe-More-Jason.sol\":7437:7475  gameInformation[gameId]._currentPlayer */\n      0x01\n      add\n        /* \"Prectical5-Tick-Tack-Toe-More-Jason.sol\":7426:7476  showResult(gameInformation[gameId]._currentPlayer) */\n      mload(0x40)\n      tag_297\n      swap2\n      swap1\n      tag_49\n      jump\t// in\n    tag_297:\n      mload(0x40)\n      dup1\n      swap2\n      sub\n      swap1\n      log1\n        /* \"Prectical5-Tick-Tack-Toe-More-Jason.sol\":7584:7589  false */\n      0x00\n        /* \"Prectical5-Tick-Tack-Toe-More-Jason.sol\":7548:7563  gameInformation */\n      dup1\n        /* \"Prectical5-Tick-Tack-Toe-More-Jason.sol\":7564:7570  gameId */\n      dup4\n        /* \"Prectical5-Tick-Tack-Toe-More-Jason.sol\":7548:7571  gameInformation[gameId] */\n      dup2\n      sload\n      dup2\n      lt\n      tag_299\n      jumpi\n      tag_299\n      tag_36\n      jump\t// in\n    tag_299:\n      0x00\n      swap2\n      dup3\n      mstore\n      0x20\n      swap1\n      swap2\n      keccak256\n      0x08\n      swap1\n      swap2\n      mul\n      add\n        /* \"Prectical5-Tick-Tack-Toe-More-Jason.sol\":7548:7589  gameInformation[gameId]._activate = false */\n      dup1\n      sload\n      not(0xff)\n      and\n      swap2\n      iszero\n      iszero\n      swap2\n      swap1\n      swap2\n      or\n      swap1\n      sstore\n        /* \"Prectical5-Tick-Tack-Toe-More-Jason.sol\":5723:7995  {... */\n      pop\n        /* \"Prectical5-Tick-Tack-Toe-More-Jason.sol\":5680:7995  function checkWinner (uint gameId) private {... */\n      pop\n      jump\t// out\n        /* \"Prectical5-Tick-Tack-Toe-More-Jason.sol\":7358:7988  if(userWon){... */\n    tag_293:\n        /* \"Prectical5-Tick-Tack-Toe-More-Jason.sol\":7642:7662  checkOptions(gameId) */\n      tag_302\n        /* \"Prectical5-Tick-Tack-Toe-More-Jason.sol\":7655:7661  gameId */\n      dup3\n        /* \"Prectical5-Tick-Tack-Toe-More-Jason.sol\":7642:7654  checkOptions */\n      tag_303\n        /* \"Prectical5-Tick-Tack-Toe-More-Jason.sol\":7642:7662  checkOptions(gameId) */\n      jump\t// in\n    tag_302:\n        /* \"Prectical5-Tick-Tack-Toe-More-Jason.sol\":7639:7988  if(checkOptions(gameId)){... */\n      iszero\n      tag_304\n      jumpi\n        /* \"Prectical5-Tick-Tack-Toe-More-Jason.sol\":7723:7741  showResult(\"Draw\") */\n      0xcde5c32c0a45fd8aa4b65ea8003fc9da9acd5e2c6c24a9fcce6ab79cabbd9122\n      mload(0x40)\n      tag_297\n      swap1\n        /* \"#utility.yul\":15413:15415   */\n      0x20\n        /* \"#utility.yul\":15395:15416   */\n      dup1\n      dup3\n      mstore\n        /* \"#utility.yul\":15452:15453   */\n      0x04\n        /* \"#utility.yul\":15432:15450   */\n      swap1\n      dup3\n      add\n        /* \"#utility.yul\":15425:15454   */\n      mstore\n      shl(0xe0, 0x44726177)\n        /* \"#utility.yul\":15485:15487   */\n      0x40\n        /* \"#utility.yul\":15470:15488   */\n      dup3\n      add\n        /* \"#utility.yul\":15463:15497   */\n      mstore\n        /* \"#utility.yul\":15529:15531   */\n      0x60\n        /* \"#utility.yul\":15514:15532   */\n      add\n      swap1\n        /* \"#utility.yul\":15211:15538   */\n      jump\n        /* \"Prectical5-Tick-Tack-Toe-More-Jason.sol\":7639:7988  if(checkOptions(gameId)){... */\n    tag_304:\n        /* \"Prectical5-Tick-Tack-Toe-More-Jason.sol\":7956:7976  changePlayer(gameId) */\n      tag_311\n        /* \"Prectical5-Tick-Tack-Toe-More-Jason.sol\":7969:7975  gameId */\n      dup3\n        /* \"Prectical5-Tick-Tack-Toe-More-Jason.sol\":7956:7968  changePlayer */\n      tag_312\n        /* \"Prectical5-Tick-Tack-Toe-More-Jason.sol\":7956:7976  changePlayer(gameId) */\n      jump\t// in\n    tag_311:\n        /* \"Prectical5-Tick-Tack-Toe-More-Jason.sol\":5723:7995  {... */\n      pop\n        /* \"Prectical5-Tick-Tack-Toe-More-Jason.sol\":5680:7995  function checkWinner (uint gameId) private {... */\n      pop\n      jump\t// out\n        /* \"Prectical5-Tick-Tack-Toe-More-Jason.sol\":8735:9143  function checkOptions(uint gameId) private view returns (bool) {... */\n    tag_303:\n        /* \"Prectical5-Tick-Tack-Toe-More-Jason.sol\":8792:8796  bool */\n      0x00\n      dup1\n        /* \"Prectical5-Tick-Tack-Toe-More-Jason.sol\":8916:9114  for(uint i = 0 ; i < gameInformation[gameId]._options.length; i++){... */\n    tag_314:\n        /* \"Prectical5-Tick-Tack-Toe-More-Jason.sol\":8937:8952  gameInformation */\n      0x00\n        /* \"Prectical5-Tick-Tack-Toe-More-Jason.sol\":8953:8959  gameId */\n      dup4\n        /* \"Prectical5-Tick-Tack-Toe-More-Jason.sol\":8937:8960  gameInformation[gameId] */\n      dup2\n      sload\n      dup2\n      lt\n      tag_318\n      jumpi\n      tag_318\n      tag_36\n      jump\t// in\n    tag_318:\n      swap1\n      0x00\n      mstore\n      keccak256(0x00, 0x20)\n      swap1\n      0x08\n      mul\n      add\n        /* \"Prectical5-Tick-Tack-Toe-More-Jason.sol\":8937:8969  gameInformation[gameId]._options */\n      0x02\n      add\n        /* \"Prectical5-Tick-Tack-Toe-More-Jason.sol\":8937:8976  gameInformation[gameId]._options.length */\n      dup1\n      sload\n      swap1\n      pop\n        /* \"Prectical5-Tick-Tack-Toe-More-Jason.sol\":8933:8934  i */\n      dup2\n        /* \"Prectical5-Tick-Tack-Toe-More-Jason.sol\":8933:8976  i < gameInformation[gameId]._options.length */\n      lt\n        /* \"Prectical5-Tick-Tack-Toe-More-Jason.sol\":8916:9114  for(uint i = 0 ; i < gameInformation[gameId]._options.length; i++){... */\n      iszero\n      tag_315\n      jumpi\n        /* \"Prectical5-Tick-Tack-Toe-More-Jason.sol\":9000:9055  compareStrings(gameInformation[gameId]._options[i], \"\") */\n      tag_320\n        /* \"Prectical5-Tick-Tack-Toe-More-Jason.sol\":9015:9030  gameInformation */\n      0x00\n        /* \"Prectical5-Tick-Tack-Toe-More-Jason.sol\":9031:9037  gameId */\n      dup5\n        /* \"Prectical5-Tick-Tack-Toe-More-Jason.sol\":9015:9038  gameInformation[gameId] */\n      dup2\n      sload\n      dup2\n      lt\n      tag_322\n      jumpi\n      tag_322\n      tag_36\n      jump\t// in\n    tag_322:\n      swap1\n      0x00\n      mstore\n      keccak256(0x00, 0x20)\n      swap1\n      0x08\n      mul\n      add\n        /* \"Prectical5-Tick-Tack-Toe-More-Jason.sol\":9015:9047  gameInformation[gameId]._options */\n      0x02\n      add\n        /* \"Prectical5-Tick-Tack-Toe-More-Jason.sol\":9048:9049  i */\n      dup3\n        /* \"Prectical5-Tick-Tack-Toe-More-Jason.sol\":9015:9050  gameInformation[gameId]._options[i] */\n      dup2\n      sload\n      dup2\n      lt\n      tag_65\n      jumpi\n      tag_65\n      tag_36\n      jump\t// in\n        /* \"Prectical5-Tick-Tack-Toe-More-Jason.sol\":9000:9055  compareStrings(gameInformation[gameId]._options[i], \"\") */\n    tag_320:\n        /* \"Prectical5-Tick-Tack-Toe-More-Jason.sol\":8997:9103  if(compareStrings(gameInformation[gameId]._options[i], \"\")){... */\n      iszero\n      tag_332\n      jumpi\n      pop\n        /* \"Prectical5-Tick-Tack-Toe-More-Jason.sol\":9082:9087  false */\n      0x00\n      swap3\n        /* \"Prectical5-Tick-Tack-Toe-More-Jason.sol\":8735:9143  function checkOptions(uint gameId) private view returns (bool) {... */\n      swap2\n      pop\n      pop\n      jump\t// out\n        /* \"Prectical5-Tick-Tack-Toe-More-Jason.sol\":8997:9103  if(compareStrings(gameInformation[gameId]._options[i], \"\")){... */\n    tag_332:\n        /* \"Prectical5-Tick-Tack-Toe-More-Jason.sol\":8978:8981  i++ */\n      dup1\n      tag_333\n      dup2\n      tag_166\n      jump\t// in\n    tag_333:\n      swap2\n      pop\n      pop\n        /* \"Prectical5-Tick-Tack-Toe-More-Jason.sol\":8916:9114  for(uint i = 0 ; i < gameInformation[gameId]._options.length; i++){... */\n      jump(tag_314)\n    tag_315:\n      pop\n        /* \"Prectical5-Tick-Tack-Toe-More-Jason.sol\":9131:9135  true */\n      0x01\n      swap3\n        /* \"Prectical5-Tick-Tack-Toe-More-Jason.sol\":8735:9143  function checkOptions(uint gameId) private view returns (bool) {... */\n      swap2\n      pop\n      pop\n      jump\t// out\n        /* \"Prectical5-Tick-Tack-Toe-More-Jason.sol\":8032:8674  function changePlayer(uint gameId) private {... */\n    tag_312:\n        /* \"Prectical5-Tick-Tack-Toe-More-Jason.sol\":8130:8189  compareStrings(gameInformation[gameId]._currentPlayer, \"X\") */\n      tag_335\n        /* \"Prectical5-Tick-Tack-Toe-More-Jason.sol\":8145:8160  gameInformation */\n      0x00\n        /* \"Prectical5-Tick-Tack-Toe-More-Jason.sol\":8161:8167  gameId */\n      dup3\n        /* \"Prectical5-Tick-Tack-Toe-More-Jason.sol\":8145:8168  gameInformation[gameId] */\n      dup2\n      sload\n      dup2\n      lt\n      tag_78\n      jumpi\n      tag_78\n      tag_36\n      jump\t// in\n        /* \"Prectical5-Tick-Tack-Toe-More-Jason.sol\":8130:8189  compareStrings(gameInformation[gameId]._currentPlayer, \"X\") */\n    tag_335:\n        /* \"Prectical5-Tick-Tack-Toe-More-Jason.sol\":8127:8408  if(compareStrings(gameInformation[gameId]._currentPlayer, \"X\")){... */\n      iszero\n      tag_344\n      jumpi\n        /* \"Prectical5-Tick-Tack-Toe-More-Jason.sol\":8210:8259  nextUser(gameInformation[gameId]._player2address) */\n      0xec121debab367dc6fc2da219ef2d5cf4e97e648e71f3a199511cf3b4d7d59304\n        /* \"Prectical5-Tick-Tack-Toe-More-Jason.sol\":8219:8234  gameInformation */\n      0x00\n        /* \"Prectical5-Tick-Tack-Toe-More-Jason.sol\":8235:8241  gameId */\n      dup3\n        /* \"Prectical5-Tick-Tack-Toe-More-Jason.sol\":8219:8242  gameInformation[gameId] */\n      dup2\n      sload\n      dup2\n      lt\n      tag_346\n      jumpi\n      tag_346\n      tag_36\n      jump\t// in\n    tag_346:\n      0x00\n      swap2\n      dup3\n      mstore\n      0x20\n      swap2\n      dup3\n      swap1\n      keccak256\n      0x08\n      swap1\n      swap2\n      mul\n      add\n        /* \"Prectical5-Tick-Tack-Toe-More-Jason.sol\":8219:8258  gameInformation[gameId]._player2address */\n      0x05\n      add\n      sload\n        /* \"Prectical5-Tick-Tack-Toe-More-Jason.sol\":8210:8259  nextUser(gameInformation[gameId]._player2address) */\n      mload(0x40)\n      sub(shl(0xa0, 0x01), 0x01)\n        /* \"Prectical5-Tick-Tack-Toe-More-Jason.sol\":8219:8258  gameInformation[gameId]._player2address */\n      swap1\n      swap2\n      and\n        /* \"#utility.yul\":15689:15740   */\n      dup2\n      mstore\n        /* \"#utility.yul\":15662:15680   */\n      add\n        /* \"Prectical5-Tick-Tack-Toe-More-Jason.sol\":8210:8259  nextUser(gameInformation[gameId]._player2address) */\n      mload(0x40)\n      dup1\n      swap2\n      sub\n      swap1\n      log1\n        /* \"Prectical5-Tick-Tack-Toe-More-Jason.sol\":8127:8408  if(compareStrings(gameInformation[gameId]._currentPlayer, \"X\")){... */\n      jump(tag_350)\n    tag_344:\n        /* \"Prectical5-Tick-Tack-Toe-More-Jason.sol\":8321:8370  nextUser(gameInformation[gameId]._player1address) */\n      0xec121debab367dc6fc2da219ef2d5cf4e97e648e71f3a199511cf3b4d7d59304\n        /* \"Prectical5-Tick-Tack-Toe-More-Jason.sol\":8330:8345  gameInformation */\n      0x00\n        /* \"Prectical5-Tick-Tack-Toe-More-Jason.sol\":8346:8352  gameId */\n      dup3\n        /* \"Prectical5-Tick-Tack-Toe-More-Jason.sol\":8330:8353  gameInformation[gameId] */\n      dup2\n      sload\n      dup2\n      lt\n      tag_352\n      jumpi\n      tag_352\n      tag_36\n      jump\t// in\n    tag_352:\n      0x00\n      swap2\n      dup3\n      mstore\n      0x20\n      swap2\n      dup3\n      swap1\n      keccak256\n      0x08\n      swap1\n      swap2\n      mul\n      add\n        /* \"Prectical5-Tick-Tack-Toe-More-Jason.sol\":8330:8369  gameInformation[gameId]._player1address */\n      0x04\n      add\n      sload\n        /* \"Prectical5-Tick-Tack-Toe-More-Jason.sol\":8321:8370  nextUser(gameInformation[gameId]._player1address) */\n      mload(0x40)\n      sub(shl(0xa0, 0x01), 0x01)\n        /* \"Prectical5-Tick-Tack-Toe-More-Jason.sol\":8330:8369  gameInformation[gameId]._player1address */\n      swap1\n      swap2\n      and\n        /* \"#utility.yul\":15689:15740   */\n      dup2\n      mstore\n        /* \"#utility.yul\":15662:15680   */\n      add\n        /* \"Prectical5-Tick-Tack-Toe-More-Jason.sol\":8321:8370  nextUser(gameInformation[gameId]._player1address) */\n      mload(0x40)\n      dup1\n      swap2\n      sub\n      swap1\n      log1\n        /* \"Prectical5-Tick-Tack-Toe-More-Jason.sol\":8127:8408  if(compareStrings(gameInformation[gameId]._currentPlayer, \"X\")){... */\n    tag_350:\n        /* \"Prectical5-Tick-Tack-Toe-More-Jason.sol\":8489:8548  compareStrings(gameInformation[gameId]._currentPlayer, \"X\") */\n      tag_355\n        /* \"Prectical5-Tick-Tack-Toe-More-Jason.sol\":8504:8519  gameInformation */\n      0x00\n        /* \"Prectical5-Tick-Tack-Toe-More-Jason.sol\":8520:8526  gameId */\n      dup3\n        /* \"Prectical5-Tick-Tack-Toe-More-Jason.sol\":8504:8527  gameInformation[gameId] */\n      dup2\n      sload\n      dup2\n      lt\n      tag_78\n      jumpi\n      tag_78\n      tag_36\n      jump\t// in\n        /* \"Prectical5-Tick-Tack-Toe-More-Jason.sol\":8489:8548  compareStrings(gameInformation[gameId]._currentPlayer, \"X\") */\n    tag_355:\n        /* \"Prectical5-Tick-Tack-Toe-More-Jason.sol\":8488:8561  (compareStrings(gameInformation[gameId]._currentPlayer, \"X\")) ? \"O\" : \"X\" */\n      tag_364\n      jumpi\n      mload(0x40)\n      dup1\n      0x40\n      add\n      0x40\n      mstore\n      dup1\n      0x01\n      dup2\n      mstore\n      0x20\n      add\n      shl(0xfb, 0x0b)\n      dup2\n      mstore\n      pop\n      jump(tag_365)\n    tag_364:\n      mload(0x40)\n      dup1\n      0x40\n      add\n      0x40\n      mstore\n      dup1\n      0x01\n      dup2\n      mstore\n      0x20\n      add\n      shl(0xf8, 0x4f)\n      dup2\n      mstore\n      pop\n    tag_365:\n        /* \"Prectical5-Tick-Tack-Toe-More-Jason.sol\":8447:8462  gameInformation */\n      0x00\n        /* \"Prectical5-Tick-Tack-Toe-More-Jason.sol\":8463:8469  gameId */\n      dup3\n        /* \"Prectical5-Tick-Tack-Toe-More-Jason.sol\":8447:8470  gameInformation[gameId] */\n      dup2\n      sload\n      dup2\n      lt\n      tag_367\n      jumpi\n      tag_367\n      tag_36\n      jump\t// in\n    tag_367:\n      swap1\n      0x00\n      mstore\n      keccak256(0x00, 0x20)\n      swap1\n      0x08\n      mul\n      add\n        /* \"Prectical5-Tick-Tack-Toe-More-Jason.sol\":8447:8485  gameInformation[gameId]._currentPlayer */\n      0x01\n      add\n        /* \"Prectical5-Tick-Tack-Toe-More-Jason.sol\":8447:8561  gameInformation[gameId]._currentPlayer = (compareStrings(gameInformation[gameId]._currentPlayer, \"X\")) ? \"O\" : \"X\" */\n      swap1\n      dup2\n      tag_369\n      swap2\n      swap1\n      tag_39\n      jump\t// in\n    tag_369:\n      pop\n        /* \"Prectical5-Tick-Tack-Toe-More-Jason.sol\":8615:8666  nextUesrStr(gameInformation[gameId]._currentPlayer) */\n      0xfec15e35ec3d19c0b090bded48bc70fcf6e183fb77f32b0f92b463d5fec3a0d1\n        /* \"Prectical5-Tick-Tack-Toe-More-Jason.sol\":8627:8642  gameInformation */\n      0x00\n        /* \"Prectical5-Tick-Tack-Toe-More-Jason.sol\":8643:8649  gameId */\n      dup3\n        /* \"Prectical5-Tick-Tack-Toe-More-Jason.sol\":8627:8650  gameInformation[gameId] */\n      dup2\n      sload\n      dup2\n      lt\n      tag_371\n      jumpi\n      tag_371\n      tag_36\n      jump\t// in\n    tag_371:\n      swap1\n      0x00\n      mstore\n      keccak256(0x00, 0x20)\n      swap1\n      0x08\n      mul\n      add\n        /* \"Prectical5-Tick-Tack-Toe-More-Jason.sol\":8627:8665  gameInformation[gameId]._currentPlayer */\n      0x01\n      add\n        /* \"Prectical5-Tick-Tack-Toe-More-Jason.sol\":8615:8666  nextUesrStr(gameInformation[gameId]._currentPlayer) */\n      mload(0x40)\n      tag_206\n      swap2\n      swap1\n      tag_49\n      jump\t// in\n    tag_44:\n      dup3\n      dup1\n      sload\n      dup3\n      dup3\n      sstore\n      swap1\n      0x00\n      mstore\n      keccak256(0x00, 0x20)\n      swap1\n      dup2\n      add\n      swap3\n      dup3\n      iszero\n      tag_376\n      jumpi\n      swap2\n      0x20\n      mul\n      dup3\n      add\n    tag_375:\n      dup3\n      dup2\n      gt\n      iszero\n      tag_376\n      jumpi\n      dup3\n      mload\n      dup3\n      swap1\n      tag_377\n      swap1\n      dup3\n      tag_39\n      jump\t// in\n    tag_377:\n      pop\n      swap2\n      0x20\n      add\n      swap2\n      swap1\n      0x01\n      add\n      swap1\n      jump(tag_375)\n    tag_376:\n      pop\n      tag_378\n      swap3\n      swap2\n      pop\n      tag_379\n      jump\t// in\n    tag_378:\n      pop\n      swap1\n      jump\t// out\n    tag_135:\n      dup3\n      dup1\n      sload\n      dup3\n      dup3\n      sstore\n      swap1\n      0x00\n      mstore\n      keccak256(0x00, 0x20)\n      swap1\n      dup2\n      add\n      swap3\n      dup3\n      iszero\n      tag_376\n      jumpi\n      swap2\n      0x20\n      mul\n      dup3\n      add\n    tag_381:\n      dup3\n      dup2\n      gt\n      iszero\n      tag_376\n      jumpi\n      dup3\n      mload\n      dup3\n      swap1\n      tag_383\n      swap1\n      dup3\n      tag_39\n      jump\t// in\n    tag_383:\n      pop\n      swap2\n      0x20\n      add\n      swap2\n      swap1\n      0x01\n      add\n      swap1\n      jump(tag_381)\n    tag_137:\n      dup3\n      dup1\n      sload\n      dup3\n      dup3\n      sstore\n      swap1\n      0x00\n      mstore\n      keccak256(0x00, 0x20)\n      swap1\n      dup2\n      add\n      swap3\n      dup3\n      iszero\n      tag_387\n      jumpi\n      swap2\n      0x20\n      mul\n      dup3\n      add\n    tag_386:\n      dup3\n      dup2\n      gt\n      iszero\n      tag_387\n      jumpi\n      dup3\n      mload\n      dup3\n      sstore\n      swap2\n      0x20\n      add\n      swap2\n      swap1\n      0x01\n      add\n      swap1\n      jump(tag_386)\n    tag_387:\n      pop\n      tag_378\n      swap3\n      swap2\n      pop\n      tag_389\n      jump\t// in\n    tag_379:\n      dup1\n      dup3\n      gt\n      iszero\n      tag_378\n      jumpi\n      0x00\n      tag_392\n      dup3\n      dup3\n      tag_393\n      jump\t// in\n    tag_392:\n      pop\n      0x01\n      add\n      jump(tag_379)\n    tag_389:\n    tag_394:\n      dup1\n      dup3\n      gt\n      iszero\n      tag_378\n      jumpi\n      0x00\n      dup2\n      sstore\n      0x01\n      add\n      jump(tag_394)\n    tag_393:\n      pop\n      dup1\n      sload\n      tag_396\n      swap1\n      tag_68\n      jump\t// in\n    tag_396:\n      0x00\n      dup3\n      sstore\n      dup1\n      0x1f\n      lt\n      tag_398\n      jumpi\n      pop\n      pop\n      jump\t// out\n    tag_398:\n      0x1f\n      add\n      0x20\n      swap1\n      div\n      swap1\n      0x00\n      mstore\n      keccak256(0x00, 0x20)\n      swap1\n      dup2\n      add\n      swap1\n      tag_399\n      swap2\n      swap1\n      tag_389\n      jump\t// in\n    tag_399:\n      pop\n      jump\t// out\n        /* \"#utility.yul\":14:194   */\n    tag_11:\n        /* \"#utility.yul\":73:79   */\n      0x00\n        /* \"#utility.yul\":126:128   */\n      0x20\n        /* \"#utility.yul\":114:123   */\n      dup3\n        /* \"#utility.yul\":105:112   */\n      dup5\n        /* \"#utility.yul\":101:124   */\n      sub\n        /* \"#utility.yul\":97:129   */\n      slt\n        /* \"#utility.yul\":94:146   */\n      iszero\n      tag_416\n      jumpi\n        /* \"#utility.yul\":142:143   */\n      0x00\n        /* \"#utility.yul\":139:140   */\n      dup1\n        /* \"#utility.yul\":132:144   */\n      revert\n        /* \"#utility.yul\":94:146   */\n    tag_416:\n      pop\n        /* \"#utility.yul\":165:188   */\n      calldataload\n      swap2\n        /* \"#utility.yul\":14:194   */\n      swap1\n      pop\n      jump\t// out\n        /* \"#utility.yul\":199:447   */\n    tag_15:\n        /* \"#utility.yul\":267:273   */\n      0x00\n        /* \"#utility.yul\":275:281   */\n      dup1\n        /* \"#utility.yul\":328:330   */\n      0x40\n        /* \"#utility.yul\":316:325   */\n      dup4\n        /* \"#utility.yul\":307:314   */\n      dup6\n        /* \"#utility.yul\":303:326   */\n      sub\n        /* \"#utility.yul\":299:331   */\n      slt\n        /* \"#utility.yul\":296:348   */\n      iszero\n      tag_418\n      jumpi\n        /* \"#utility.yul\":344:345   */\n      0x00\n        /* \"#utility.yul\":341:342   */\n      dup1\n        /* \"#utility.yul\":334:346   */\n      revert\n        /* \"#utility.yul\":296:348   */\n    tag_418:\n      pop\n      pop\n        /* \"#utility.yul\":367:390   */\n      dup1\n      calldataload\n      swap3\n        /* \"#utility.yul\":437:439   */\n      0x20\n        /* \"#utility.yul\":422:440   */\n      swap1\n      swap2\n      add\n        /* \"#utility.yul\":409:441   */\n      calldataload\n      swap2\n      pop\n        /* \"#utility.yul\":199:447   */\n      jump\t// out\n        /* \"#utility.yul\":548:798   */\n    tag_401:\n        /* \"#utility.yul\":633:634   */\n      0x00\n        /* \"#utility.yul\":643:756   */\n    tag_421:\n        /* \"#utility.yul\":657:663   */\n      dup4\n        /* \"#utility.yul\":654:655   */\n      dup2\n        /* \"#utility.yul\":651:664   */\n      lt\n        /* \"#utility.yul\":643:756   */\n      iszero\n      tag_423\n      jumpi\n        /* \"#utility.yul\":733:744   */\n      dup2\n      dup2\n      add\n        /* \"#utility.yul\":727:745   */\n      mload\n        /* \"#utility.yul\":714:725   */\n      dup4\n      dup3\n      add\n        /* \"#utility.yul\":707:746   */\n      mstore\n        /* \"#utility.yul\":679:681   */\n      0x20\n        /* \"#utility.yul\":672:682   */\n      add\n        /* \"#utility.yul\":643:756   */\n      jump(tag_421)\n    tag_423:\n      pop\n      pop\n        /* \"#utility.yul\":790:791   */\n      0x00\n        /* \"#utility.yul\":772:788   */\n      swap2\n      add\n        /* \"#utility.yul\":765:792   */\n      mstore\n        /* \"#utility.yul\":548:798   */\n      jump\t// out\n        /* \"#utility.yul\":912:1744   */\n    tag_21:\n        /* \"#utility.yul\":1209:1215   */\n      dup7\n        /* \"#utility.yul\":1202:1216   */\n      iszero\n        /* \"#utility.yul\":1195:1217   */\n      iszero\n        /* \"#utility.yul\":1184:1193   */\n      dup2\n        /* \"#utility.yul\":1177:1218   */\n      mstore\n        /* \"#utility.yul\":1254:1257   */\n      0xc0\n        /* \"#utility.yul\":1249:1251   */\n      0x20\n        /* \"#utility.yul\":1238:1247   */\n      dup3\n        /* \"#utility.yul\":1234:1252   */\n      add\n        /* \"#utility.yul\":1227:1258   */\n      mstore\n        /* \"#utility.yul\":1158:1162   */\n      0x00\n        /* \"#utility.yul\":1287:1293   */\n      dup7\n        /* \"#utility.yul\":1281:1294   */\n      mload\n        /* \"#utility.yul\":1331:1337   */\n      dup1\n        /* \"#utility.yul\":1325:1328   */\n      0xc0\n        /* \"#utility.yul\":1314:1323   */\n      dup5\n        /* \"#utility.yul\":1310:1329   */\n      add\n        /* \"#utility.yul\":1303:1338   */\n      mstore\n        /* \"#utility.yul\":1347:1427   */\n      tag_426\n        /* \"#utility.yul\":1420:1426   */\n      dup2\n        /* \"#utility.yul\":1414:1417   */\n      0xe0\n        /* \"#utility.yul\":1403:1412   */\n      dup6\n        /* \"#utility.yul\":1399:1418   */\n      add\n        /* \"#utility.yul\":1394:1396   */\n      0x20\n        /* \"#utility.yul\":1386:1392   */\n      dup12\n        /* \"#utility.yul\":1382:1397   */\n      add\n        /* \"#utility.yul\":1347:1427   */\n      tag_401\n      jump\t// in\n    tag_426:\n      sub(shl(0xa0, 0x01), 0x01)\n        /* \"#utility.yul\":1573:1588   */\n      swap7\n      dup8\n      and\n        /* \"#utility.yul\":1568:1570   */\n      0x40\n        /* \"#utility.yul\":1553:1571   */\n      dup5\n      add\n        /* \"#utility.yul\":1546:1589   */\n      mstore\n        /* \"#utility.yul\":1625:1640   */\n      swap5\n      dup7\n      and\n        /* \"#utility.yul\":1620:1622   */\n      0x60\n        /* \"#utility.yul\":1605:1623   */\n      dup4\n      add\n        /* \"#utility.yul\":1598:1641   */\n      mstore\n      pop\n        /* \"#utility.yul\":1672:1675   */\n      0x80\n        /* \"#utility.yul\":1657:1676   */\n      dup2\n      add\n        /* \"#utility.yul\":1650:1685   */\n      swap3\n      swap1\n      swap3\n      mstore\n        /* \"#utility.yul\":1722:1737   */\n      swap1\n      swap3\n      and\n        /* \"#utility.yul\":1526:1529   */\n      0xa0\n        /* \"#utility.yul\":1701:1720   */\n      dup4\n      add\n        /* \"#utility.yul\":1694:1738   */\n      mstore\n        /* \"#utility.yul\":1488:1490   */\n      0x1f\n        /* \"#utility.yul\":1467:1482   */\n      add\n      not(0x1f)\n        /* \"#utility.yul\":1463:1492   */\n      and\n        /* \"#utility.yul\":1448:1493   */\n      add\n        /* \"#utility.yul\":1495:1498   */\n      0xe0\n        /* \"#utility.yul\":1444:1499   */\n      add\n      swap3\n        /* \"#utility.yul\":912:1744   */\n      swap2\n      pop\n      pop\n      jump\t// out\n        /* \"#utility.yul\":1749:1876   */\n    tag_403:\n        /* \"#utility.yul\":1810:1820   */\n      0x4e487b71\n        /* \"#utility.yul\":1805:1808   */\n      0xe0\n        /* \"#utility.yul\":1801:1821   */\n      shl\n        /* \"#utility.yul\":1798:1799   */\n      0x00\n        /* \"#utility.yul\":1791:1822   */\n      mstore\n        /* \"#utility.yul\":1841:1845   */\n      0x41\n        /* \"#utility.yul\":1838:1839   */\n      0x04\n        /* \"#utility.yul\":1831:1846   */\n      mstore\n        /* \"#utility.yul\":1865:1869   */\n      0x24\n        /* \"#utility.yul\":1862:1863   */\n      0x00\n        /* \"#utility.yul\":1855:1870   */\n      revert\n        /* \"#utility.yul\":1881:2600   */\n    tag_404:\n        /* \"#utility.yul\":1924:1929   */\n      0x00\n        /* \"#utility.yul\":1977:1980   */\n      dup3\n        /* \"#utility.yul\":1970:1974   */\n      0x1f\n        /* \"#utility.yul\":1962:1968   */\n      dup4\n        /* \"#utility.yul\":1958:1975   */\n      add\n        /* \"#utility.yul\":1954:1981   */\n      slt\n        /* \"#utility.yul\":1944:1999   */\n      tag_429\n      jumpi\n        /* \"#utility.yul\":1995:1996   */\n      0x00\n        /* \"#utility.yul\":1992:1993   */\n      dup1\n        /* \"#utility.yul\":1985:1997   */\n      revert\n        /* \"#utility.yul\":1944:1999   */\n    tag_429:\n        /* \"#utility.yul\":2031:2037   */\n      dup2\n        /* \"#utility.yul\":2018:2038   */\n      calldataload\n        /* \"#utility.yul\":2057:2075   */\n      0xffffffffffffffff\n        /* \"#utility.yul\":2094:2096   */\n      dup1\n        /* \"#utility.yul\":2090:2092   */\n      dup3\n        /* \"#utility.yul\":2087:2097   */\n      gt\n        /* \"#utility.yul\":2084:2120   */\n      iszero\n      tag_431\n      jumpi\n        /* \"#utility.yul\":2100:2118   */\n      tag_431\n      tag_403\n      jump\t// in\n    tag_431:\n        /* \"#utility.yul\":2175:2177   */\n      0x40\n        /* \"#utility.yul\":2169:2178   */\n      mload\n        /* \"#utility.yul\":2143:2145   */\n      0x1f\n        /* \"#utility.yul\":2229:2242   */\n      dup4\n      add\n      not(0x1f)\n        /* \"#utility.yul\":2225:2247   */\n      swap1\n      dup2\n      and\n        /* \"#utility.yul\":2249:2251   */\n      0x3f\n        /* \"#utility.yul\":2221:2252   */\n      add\n        /* \"#utility.yul\":2217:2257   */\n      and\n        /* \"#utility.yul\":2205:2258   */\n      dup2\n      add\n      swap1\n        /* \"#utility.yul\":2273:2291   */\n      dup3\n      dup3\n      gt\n        /* \"#utility.yul\":2293:2315   */\n      dup2\n      dup4\n      lt\n        /* \"#utility.yul\":2270:2316   */\n      or\n        /* \"#utility.yul\":2267:2339   */\n      iszero\n      tag_433\n      jumpi\n        /* \"#utility.yul\":2319:2337   */\n      tag_433\n      tag_403\n      jump\t// in\n    tag_433:\n        /* \"#utility.yul\":2359:2369   */\n      dup2\n        /* \"#utility.yul\":2355:2357   */\n      0x40\n        /* \"#utility.yul\":2348:2370   */\n      mstore\n        /* \"#utility.yul\":2394:2396   */\n      dup4\n        /* \"#utility.yul\":2386:2392   */\n      dup2\n        /* \"#utility.yul\":2379:2397   */\n      mstore\n        /* \"#utility.yul\":2440:2443   */\n      dup7\n        /* \"#utility.yul\":2433:2437   */\n      0x20\n        /* \"#utility.yul\":2428:2430   */\n      dup6\n        /* \"#utility.yul\":2420:2426   */\n      dup9\n        /* \"#utility.yul\":2416:2431   */\n      add\n        /* \"#utility.yul\":2412:2438   */\n      add\n        /* \"#utility.yul\":2409:2444   */\n      gt\n        /* \"#utility.yul\":2406:2461   */\n      iszero\n      tag_434\n      jumpi\n        /* \"#utility.yul\":2457:2458   */\n      0x00\n        /* \"#utility.yul\":2454:2455   */\n      dup1\n        /* \"#utility.yul\":2447:2459   */\n      revert\n        /* \"#utility.yul\":2406:2461   */\n    tag_434:\n        /* \"#utility.yul\":2521:2523   */\n      dup4\n        /* \"#utility.yul\":2514:2518   */\n      0x20\n        /* \"#utility.yul\":2506:2512   */\n      dup8\n        /* \"#utility.yul\":2502:2519   */\n      add\n        /* \"#utility.yul\":2495:2499   */\n      0x20\n        /* \"#utility.yul\":2487:2493   */\n      dup4\n        /* \"#utility.yul\":2483:2500   */\n      add\n        /* \"#utility.yul\":2470:2524   */\n      calldatacopy\n        /* \"#utility.yul\":2568:2569   */\n      0x00\n        /* \"#utility.yul\":2561:2565   */\n      0x20\n        /* \"#utility.yul\":2556:2558   */\n      dup6\n        /* \"#utility.yul\":2548:2554   */\n      dup4\n        /* \"#utility.yul\":2544:2559   */\n      add\n        /* \"#utility.yul\":2540:2566   */\n      add\n        /* \"#utility.yul\":2533:2570   */\n      mstore\n        /* \"#utility.yul\":2588:2594   */\n      dup1\n        /* \"#utility.yul\":2579:2594   */\n      swap5\n      pop\n      pop\n      pop\n      pop\n      pop\n        /* \"#utility.yul\":1881:2600   */\n      swap3\n      swap2\n      pop\n      pop\n      jump\t// out\n        /* \"#utility.yul\":2605:3148   */\n    tag_26:\n        /* \"#utility.yul\":2693:2699   */\n      0x00\n        /* \"#utility.yul\":2701:2707   */\n      dup1\n        /* \"#utility.yul\":2754:2756   */\n      0x40\n        /* \"#utility.yul\":2742:2751   */\n      dup4\n        /* \"#utility.yul\":2733:2740   */\n      dup6\n        /* \"#utility.yul\":2729:2752   */\n      sub\n        /* \"#utility.yul\":2725:2757   */\n      slt\n        /* \"#utility.yul\":2722:2774   */\n      iszero\n      tag_436\n      jumpi\n        /* \"#utility.yul\":2770:2771   */\n      0x00\n        /* \"#utility.yul\":2767:2768   */\n      dup1\n        /* \"#utility.yul\":2760:2772   */\n      revert\n        /* \"#utility.yul\":2722:2774   */\n    tag_436:\n        /* \"#utility.yul\":2810:2819   */\n      dup3\n        /* \"#utility.yul\":2797:2820   */\n      calldataload\n        /* \"#utility.yul\":2839:2857   */\n      0xffffffffffffffff\n        /* \"#utility.yul\":2880:2882   */\n      dup1\n        /* \"#utility.yul\":2872:2878   */\n      dup3\n        /* \"#utility.yul\":2869:2883   */\n      gt\n        /* \"#utility.yul\":2866:2900   */\n      iszero\n      tag_437\n      jumpi\n        /* \"#utility.yul\":2896:2897   */\n      0x00\n        /* \"#utility.yul\":2893:2894   */\n      dup1\n        /* \"#utility.yul\":2886:2898   */\n      revert\n        /* \"#utility.yul\":2866:2900   */\n    tag_437:\n        /* \"#utility.yul\":2919:2969   */\n      tag_438\n        /* \"#utility.yul\":2961:2968   */\n      dup7\n        /* \"#utility.yul\":2952:2958   */\n      dup4\n        /* \"#utility.yul\":2941:2950   */\n      dup8\n        /* \"#utility.yul\":2937:2959   */\n      add\n        /* \"#utility.yul\":2919:2969   */\n      tag_404\n      jump\t// in\n    tag_438:\n        /* \"#utility.yul\":2909:2969   */\n      swap4\n      pop\n        /* \"#utility.yul\":3022:3024   */\n      0x20\n        /* \"#utility.yul\":3011:3020   */\n      dup6\n        /* \"#utility.yul\":3007:3025   */\n      add\n        /* \"#utility.yul\":2994:3026   */\n      calldataload\n        /* \"#utility.yul\":2978:3026   */\n      swap2\n      pop\n        /* \"#utility.yul\":3051:3053   */\n      dup1\n        /* \"#utility.yul\":3041:3049   */\n      dup3\n        /* \"#utility.yul\":3038:3054   */\n      gt\n        /* \"#utility.yul\":3035:3071   */\n      iszero\n      tag_439\n      jumpi\n        /* \"#utility.yul\":3067:3068   */\n      0x00\n        /* \"#utility.yul\":3064:3065   */\n      dup1\n        /* \"#utility.yul\":3057:3069   */\n      revert\n        /* \"#utility.yul\":3035:3071   */\n    tag_439:\n      pop\n        /* \"#utility.yul\":3090:3142   */\n      tag_440\n        /* \"#utility.yul\":3134:3141   */\n      dup6\n        /* \"#utility.yul\":3123:3131   */\n      dup3\n        /* \"#utility.yul\":3112:3121   */\n      dup7\n        /* \"#utility.yul\":3108:3132   */\n      add\n        /* \"#utility.yul\":3090:3142   */\n      tag_404\n      jump\t// in\n    tag_440:\n        /* \"#utility.yul\":3080:3142   */\n      swap2\n      pop\n      pop\n        /* \"#utility.yul\":2605:3148   */\n      swap3\n      pop\n      swap3\n      swap1\n      pop\n      jump\t// out\n        /* \"#utility.yul\":3345:3472   */\n    tag_36:\n        /* \"#utility.yul\":3406:3416   */\n      0x4e487b71\n        /* \"#utility.yul\":3401:3404   */\n      0xe0\n        /* \"#utility.yul\":3397:3417   */\n      shl\n        /* \"#utility.yul\":3394:3395   */\n      0x00\n        /* \"#utility.yul\":3387:3418   */\n      mstore\n        /* \"#utility.yul\":3437:3441   */\n      0x32\n        /* \"#utility.yul\":3434:3435   */\n      0x04\n        /* \"#utility.yul\":3427:3442   */\n      mstore\n        /* \"#utility.yul\":3461:3465   */\n      0x24\n        /* \"#utility.yul\":3458:3459   */\n      0x00\n        /* \"#utility.yul\":3451:3466   */\n      revert\n        /* \"#utility.yul\":3477:3857   */\n    tag_68:\n        /* \"#utility.yul\":3556:3557   */\n      0x01\n        /* \"#utility.yul\":3552:3564   */\n      dup2\n      dup2\n      shr\n      swap1\n        /* \"#utility.yul\":3599:3611   */\n      dup3\n      and\n      dup1\n        /* \"#utility.yul\":3620:3681   */\n      tag_444\n      jumpi\n        /* \"#utility.yul\":3674:3678   */\n      0x7f\n        /* \"#utility.yul\":3666:3672   */\n      dup3\n        /* \"#utility.yul\":3662:3679   */\n      and\n        /* \"#utility.yul\":3652:3679   */\n      swap2\n      pop\n        /* \"#utility.yul\":3620:3681   */\n    tag_444:\n        /* \"#utility.yul\":3727:3729   */\n      0x20\n        /* \"#utility.yul\":3719:3725   */\n      dup3\n        /* \"#utility.yul\":3716:3730   */\n      lt\n        /* \"#utility.yul\":3696:3714   */\n      dup2\n        /* \"#utility.yul\":3693:3731   */\n      sub\n        /* \"#utility.yul\":3690:3851   */\n      tag_445\n      jumpi\n        /* \"#utility.yul\":3773:3783   */\n      0x4e487b71\n        /* \"#utility.yul\":3768:3771   */\n      0xe0\n        /* \"#utility.yul\":3764:3784   */\n      shl\n        /* \"#utility.yul\":3761:3762   */\n      0x00\n        /* \"#utility.yul\":3754:3785   */\n      mstore\n        /* \"#utility.yul\":3808:3812   */\n      0x22\n        /* \"#utility.yul\":3805:3806   */\n      0x04\n        /* \"#utility.yul\":3798:3813   */\n      mstore\n        /* \"#utility.yul\":3836:3840   */\n      0x24\n        /* \"#utility.yul\":3833:3834   */\n      0x00\n        /* \"#utility.yul\":3826:3841   */\n      revert\n        /* \"#utility.yul\":3690:3851   */\n    tag_445:\n      pop\n        /* \"#utility.yul\":3477:3857   */\n      swap2\n      swap1\n      pop\n      jump\t// out\n        /* \"#utility.yul\":3988:4533   */\n    tag_406:\n        /* \"#utility.yul\":4090:4092   */\n      0x1f\n        /* \"#utility.yul\":4085:4088   */\n      dup3\n        /* \"#utility.yul\":4082:4093   */\n      gt\n        /* \"#utility.yul\":4079:4527   */\n      iszero\n      tag_448\n      jumpi\n        /* \"#utility.yul\":4126:4127   */\n      0x00\n        /* \"#utility.yul\":4151:4156   */\n      dup2\n        /* \"#utility.yul\":4147:4149   */\n      dup2\n        /* \"#utility.yul\":4140:4157   */\n      mstore\n        /* \"#utility.yul\":4196:4200   */\n      0x20\n        /* \"#utility.yul\":4192:4194   */\n      dup2\n        /* \"#utility.yul\":4182:4201   */\n      keccak256\n        /* \"#utility.yul\":4266:4268   */\n      0x1f\n        /* \"#utility.yul\":4254:4264   */\n      dup6\n        /* \"#utility.yul\":4250:4269   */\n      add\n        /* \"#utility.yul\":4247:4248   */\n      0x05\n        /* \"#utility.yul\":4243:4270   */\n      shr\n        /* \"#utility.yul\":4237:4241   */\n      dup2\n        /* \"#utility.yul\":4233:4271   */\n      add\n        /* \"#utility.yul\":4302:4306   */\n      0x20\n        /* \"#utility.yul\":4290:4300   */\n      dup7\n        /* \"#utility.yul\":4287:4307   */\n      lt\n        /* \"#utility.yul\":4284:4331   */\n      iszero\n      tag_449\n      jumpi\n      pop\n        /* \"#utility.yul\":4325:4329   */\n      dup1\n        /* \"#utility.yul\":4284:4331   */\n    tag_449:\n        /* \"#utility.yul\":4380:4382   */\n      0x1f\n        /* \"#utility.yul\":4375:4378   */\n      dup6\n        /* \"#utility.yul\":4371:4383   */\n      add\n        /* \"#utility.yul\":4368:4369   */\n      0x05\n        /* \"#utility.yul\":4364:4384   */\n      shr\n        /* \"#utility.yul\":4358:4362   */\n      dup3\n        /* \"#utility.yul\":4354:4385   */\n      add\n        /* \"#utility.yul\":4344:4385   */\n      swap2\n      pop\n        /* \"#utility.yul\":4435:4517   */\n    tag_450:\n        /* \"#utility.yul\":4453:4455   */\n      dup2\n        /* \"#utility.yul\":4446:4451   */\n      dup2\n        /* \"#utility.yul\":4443:4456   */\n      lt\n        /* \"#utility.yul\":4435:4517   */\n      iszero\n      tag_452\n      jumpi\n        /* \"#utility.yul\":4498:4515   */\n      dup3\n      dup2\n      sstore\n        /* \"#utility.yul\":4479:4480   */\n      0x01\n        /* \"#utility.yul\":4468:4481   */\n      add\n        /* \"#utility.yul\":4435:4517   */\n      jump(tag_450)\n    tag_452:\n        /* \"#utility.yul\":4439:4442   */\n      pop\n      pop\n      pop\n        /* \"#utility.yul\":4079:4527   */\n    tag_448:\n        /* \"#utility.yul\":3988:4533   */\n      pop\n      pop\n      pop\n      jump\t// out\n        /* \"#utility.yul\":4709:6061   */\n    tag_39:\n        /* \"#utility.yul\":4835:4838   */\n      dup2\n        /* \"#utility.yul\":4829:4839   */\n      mload\n        /* \"#utility.yul\":4862:4880   */\n      0xffffffffffffffff\n        /* \"#utility.yul\":4854:4860   */\n      dup2\n        /* \"#utility.yul\":4851:4881   */\n      gt\n        /* \"#utility.yul\":4848:4904   */\n      iszero\n      tag_456\n      jumpi\n        /* \"#utility.yul\":4884:4902   */\n      tag_456\n      tag_403\n      jump\t// in\n    tag_456:\n        /* \"#utility.yul\":4913:5010   */\n      tag_457\n        /* \"#utility.yul\":5003:5009   */\n      dup2\n        /* \"#utility.yul\":4963:5001   */\n      tag_458\n        /* \"#utility.yul\":4995:4999   */\n      dup5\n        /* \"#utility.yul\":4989:5000   */\n      sload\n        /* \"#utility.yul\":4963:5001   */\n      tag_68\n      jump\t// in\n    tag_458:\n        /* \"#utility.yul\":4957:4961   */\n      dup5\n        /* \"#utility.yul\":4913:5010   */\n      tag_406\n      jump\t// in\n    tag_457:\n        /* \"#utility.yul\":5065:5069   */\n      0x20\n      dup1\n        /* \"#utility.yul\":5129:5131   */\n      0x1f\n        /* \"#utility.yul\":5118:5132   */\n      dup4\n      gt\n        /* \"#utility.yul\":5146:5147   */\n      0x01\n        /* \"#utility.yul\":5141:5804   */\n      dup2\n      eq\n      tag_460\n      jumpi\n        /* \"#utility.yul\":5848:5849   */\n      0x00\n        /* \"#utility.yul\":5865:5871   */\n      dup5\n        /* \"#utility.yul\":5862:5951   */\n      iszero\n      tag_461\n      jumpi\n      pop\n        /* \"#utility.yul\":5917:5936   */\n      dup6\n      dup4\n      add\n        /* \"#utility.yul\":5911:5937   */\n      mload\n        /* \"#utility.yul\":5862:5951   */\n    tag_461:\n      not(0x00)\n        /* \"#utility.yul\":4666:4667   */\n      0x03\n        /* \"#utility.yul\":4662:4673   */\n      dup7\n      swap1\n      shl\n        /* \"#utility.yul\":4658:4682   */\n      shr\n        /* \"#utility.yul\":4654:4683   */\n      not\n        /* \"#utility.yul\":4644:4684   */\n      and\n        /* \"#utility.yul\":4690:4691   */\n      0x01\n        /* \"#utility.yul\":4686:4697   */\n      dup6\n      swap1\n      shl\n        /* \"#utility.yul\":4641:4698   */\n      or\n        /* \"#utility.yul\":5964:6045   */\n      dup6\n      sstore\n        /* \"#utility.yul\":5111:6055   */\n      jump(tag_452)\n        /* \"#utility.yul\":5141:5804   */\n    tag_460:\n        /* \"#utility.yul\":3935:3936   */\n      0x00\n        /* \"#utility.yul\":3928:3942   */\n      dup6\n      dup2\n      mstore\n        /* \"#utility.yul\":3972:3976   */\n      0x20\n        /* \"#utility.yul\":3959:3977   */\n      dup2\n      keccak256\n      not(0x1f)\n        /* \"#utility.yul\":5177:5197   */\n      dup7\n      and\n      swap2\n        /* \"#utility.yul\":5295:5531   */\n    tag_464:\n        /* \"#utility.yul\":5309:5316   */\n      dup3\n        /* \"#utility.yul\":5306:5307   */\n      dup2\n        /* \"#utility.yul\":5303:5317   */\n      lt\n        /* \"#utility.yul\":5295:5531   */\n      iszero\n      tag_466\n      jumpi\n        /* \"#utility.yul\":5398:5417   */\n      dup9\n      dup7\n      add\n        /* \"#utility.yul\":5392:5418   */\n      mload\n        /* \"#utility.yul\":5377:5419   */\n      dup3\n      sstore\n        /* \"#utility.yul\":5490:5517   */\n      swap5\n      dup5\n      add\n      swap5\n        /* \"#utility.yul\":5458:5459   */\n      0x01\n        /* \"#utility.yul\":5446:5460   */\n      swap1\n      swap2\n      add\n      swap1\n        /* \"#utility.yul\":5325:5344   */\n      dup5\n      add\n        /* \"#utility.yul\":5295:5531   */\n      jump(tag_464)\n    tag_466:\n        /* \"#utility.yul\":5299:5302   */\n      pop\n        /* \"#utility.yul\":5559:5565   */\n      dup6\n        /* \"#utility.yul\":5550:5557   */\n      dup3\n        /* \"#utility.yul\":5547:5566   */\n      lt\n        /* \"#utility.yul\":5544:5745   */\n      iszero\n      tag_467\n      jumpi\n        /* \"#utility.yul\":5620:5639   */\n      dup8\n      dup6\n      add\n        /* \"#utility.yul\":5614:5640   */\n      mload\n      not(0x00)\n        /* \"#utility.yul\":5703:5704   */\n      0x03\n        /* \"#utility.yul\":5699:5713   */\n      dup9\n      swap1\n      shl\n        /* \"#utility.yul\":5715:5718   */\n      0xf8\n        /* \"#utility.yul\":5695:5719   */\n      and\n        /* \"#utility.yul\":5691:5728   */\n      shr\n        /* \"#utility.yul\":5687:5729   */\n      not\n        /* \"#utility.yul\":5672:5730   */\n      and\n        /* \"#utility.yul\":5657:5731   */\n      dup2\n      sstore\n        /* \"#utility.yul\":5544:5745   */\n    tag_467:\n      pop\n      pop\n      pop\n      pop\n      pop\n        /* \"#utility.yul\":5791:5792   */\n      0x01\n        /* \"#utility.yul\":5775:5789   */\n      swap1\n      dup2\n      shl\n        /* \"#utility.yul\":5771:5793   */\n      add\n        /* \"#utility.yul\":5758:5794   */\n      swap1\n      sstore\n      pop\n        /* \"#utility.yul\":4709:6061   */\n      jump\t// out\n        /* \"#utility.yul\":6066:7029   */\n    tag_49:\n        /* \"#utility.yul\":6175:6179   */\n      0x00\n        /* \"#utility.yul\":6204:6206   */\n      0x20\n        /* \"#utility.yul\":6233:6235   */\n      dup1\n        /* \"#utility.yul\":6222:6231   */\n      dup4\n        /* \"#utility.yul\":6215:6236   */\n      mstore\n        /* \"#utility.yul\":6256:6257   */\n      0x00\n        /* \"#utility.yul\":6289:6295   */\n      dup5\n        /* \"#utility.yul\":6283:6296   */\n      sload\n        /* \"#utility.yul\":6319:6355   */\n      tag_469\n        /* \"#utility.yul\":6345:6354   */\n      dup2\n        /* \"#utility.yul\":6319:6355   */\n      tag_68\n      jump\t// in\n    tag_469:\n        /* \"#utility.yul\":6391:6397   */\n      dup1\n        /* \"#utility.yul\":6386:6388   */\n      dup5\n        /* \"#utility.yul\":6375:6384   */\n      dup8\n        /* \"#utility.yul\":6371:6389   */\n      add\n        /* \"#utility.yul\":6364:6398   */\n      mstore\n        /* \"#utility.yul\":6417:6419   */\n      0x40\n        /* \"#utility.yul\":6438:6439   */\n      0x01\n        /* \"#utility.yul\":6470:6472   */\n      dup1\n        /* \"#utility.yul\":6459:6468   */\n      dup5\n        /* \"#utility.yul\":6455:6473   */\n      and\n        /* \"#utility.yul\":6487:6488   */\n      0x00\n        /* \"#utility.yul\":6482:6640   */\n      dup2\n      eq\n      tag_471\n      jumpi\n        /* \"#utility.yul\":6654:6655   */\n      0x01\n        /* \"#utility.yul\":6649:7003   */\n      dup2\n      eq\n      tag_472\n      jumpi\n        /* \"#utility.yul\":6448:7003   */\n      jump(tag_470)\n        /* \"#utility.yul\":6482:6640   */\n    tag_471:\n      not(0xff)\n        /* \"#utility.yul\":6530:6554   */\n      dup6\n      and\n        /* \"#utility.yul\":6510:6528   */\n      dup10\n      dup5\n      add\n        /* \"#utility.yul\":6503:6555   */\n      mstore\n        /* \"#utility.yul\":6608:6622   */\n      dup4\n      iszero\n        /* \"#utility.yul\":6601:6623   */\n      iszero\n        /* \"#utility.yul\":6598:6599   */\n      0x05\n        /* \"#utility.yul\":6594:6624   */\n      shl\n        /* \"#utility.yul\":6579:6625   */\n      dup10\n      add\n        /* \"#utility.yul\":6575:6630   */\n      dup4\n      add\n      swap6\n      pop\n        /* \"#utility.yul\":6482:6640   */\n      jump(tag_470)\n        /* \"#utility.yul\":6649:7003   */\n    tag_472:\n        /* \"#utility.yul\":6680:6686   */\n      dup10\n        /* \"#utility.yul\":6677:6678   */\n      0x00\n        /* \"#utility.yul\":6670:6687   */\n      mstore\n        /* \"#utility.yul\":6728:6730   */\n      dup7\n        /* \"#utility.yul\":6725:6726   */\n      0x00\n        /* \"#utility.yul\":6715:6731   */\n      keccak256\n        /* \"#utility.yul\":6753:6754   */\n      0x00\n        /* \"#utility.yul\":6767:6947   */\n    tag_473:\n        /* \"#utility.yul\":6781:6787   */\n      dup6\n        /* \"#utility.yul\":6778:6779   */\n      dup2\n        /* \"#utility.yul\":6775:6788   */\n      lt\n        /* \"#utility.yul\":6767:6947   */\n      iszero\n      tag_475\n      jumpi\n        /* \"#utility.yul\":6874:6888   */\n      dup2\n      sload\n        /* \"#utility.yul\":6850:6867   */\n      dup12\n      dup3\n      add\n        /* \"#utility.yul\":6846:6872   */\n      dup7\n      add\n        /* \"#utility.yul\":6839:6889   */\n      mstore\n        /* \"#utility.yul\":6917:6933   */\n      swap1\n      dup4\n      add\n      swap1\n        /* \"#utility.yul\":6796:6806   */\n      dup9\n      add\n        /* \"#utility.yul\":6767:6947   */\n      jump(tag_473)\n    tag_475:\n        /* \"#utility.yul\":6971:6988   */\n      dup11\n      add\n        /* \"#utility.yul\":6967:6993   */\n      dup5\n      add\n      swap7\n      pop\n      pop\n        /* \"#utility.yul\":6448:7003   */\n    tag_470:\n      pop\n        /* \"#utility.yul\":7020:7023   */\n      swap4\n      swap9\n        /* \"#utility.yul\":6066:7029   */\n      swap8\n      pop\n      pop\n      pop\n      pop\n      pop\n      pop\n      pop\n      pop\n      jump\t// out\n        /* \"#utility.yul\":8431:9866   */\n    tag_109:\n        /* \"#utility.yul\":8550:8553   */\n      dup2\n        /* \"#utility.yul\":8544:8548   */\n      dup2\n        /* \"#utility.yul\":8541:8554   */\n      sub\n        /* \"#utility.yul\":8538:8564   */\n      tag_481\n      jumpi\n        /* \"#utility.yul\":8557:8562   */\n      pop\n      pop\n        /* \"#utility.yul\":8431:9866   */\n      jump\t// out\n        /* \"#utility.yul\":8538:8564   */\n    tag_481:\n        /* \"#utility.yul\":8587:8624   */\n      tag_482\n        /* \"#utility.yul\":8619:8622   */\n      dup3\n        /* \"#utility.yul\":8613:8623   */\n      sload\n        /* \"#utility.yul\":8587:8624   */\n      tag_68\n      jump\t// in\n    tag_482:\n        /* \"#utility.yul\":8647:8665   */\n      0xffffffffffffffff\n        /* \"#utility.yul\":8639:8645   */\n      dup2\n        /* \"#utility.yul\":8636:8666   */\n      gt\n        /* \"#utility.yul\":8633:8689   */\n      iszero\n      tag_484\n      jumpi\n        /* \"#utility.yul\":8669:8687   */\n      tag_484\n      tag_403\n      jump\t// in\n    tag_484:\n        /* \"#utility.yul\":8698:8795   */\n      tag_485\n        /* \"#utility.yul\":8788:8794   */\n      dup2\n        /* \"#utility.yul\":8748:8786   */\n      tag_458\n        /* \"#utility.yul\":8780:8784   */\n      dup5\n        /* \"#utility.yul\":8774:8785   */\n      sload\n        /* \"#utility.yul\":8748:8786   */\n      tag_68\n      jump\t// in\n        /* \"#utility.yul\":8698:8795   */\n    tag_485:\n        /* \"#utility.yul\":8821:8822   */\n      0x00\n        /* \"#utility.yul\":8849:8851   */\n      0x1f\n        /* \"#utility.yul\":8841:8847   */\n      dup3\n        /* \"#utility.yul\":8838:8852   */\n      gt\n        /* \"#utility.yul\":8866:8867   */\n      0x01\n        /* \"#utility.yul\":8861:9609   */\n      dup2\n      eq\n      tag_488\n      jumpi\n        /* \"#utility.yul\":9653:9654   */\n      0x00\n        /* \"#utility.yul\":9670:9676   */\n      dup4\n        /* \"#utility.yul\":9667:9756   */\n      iszero\n      tag_489\n      jumpi\n      pop\n        /* \"#utility.yul\":9722:9741   */\n      dup5\n      dup3\n      add\n        /* \"#utility.yul\":9716:9742   */\n      sload\n        /* \"#utility.yul\":9667:9756   */\n    tag_489:\n      not(0x00)\n        /* \"#utility.yul\":4666:4667   */\n      0x03\n        /* \"#utility.yul\":4662:4673   */\n      dup6\n      swap1\n      shl\n        /* \"#utility.yul\":4658:4682   */\n      shr\n        /* \"#utility.yul\":4654:4683   */\n      not\n        /* \"#utility.yul\":4644:4684   */\n      and\n        /* \"#utility.yul\":4690:4691   */\n      0x01\n        /* \"#utility.yul\":4686:4697   */\n      dup5\n      swap1\n      shl\n        /* \"#utility.yul\":4641:4698   */\n      or\n        /* \"#utility.yul\":9769:9850   */\n      dup5\n      sstore\n        /* \"#utility.yul\":8831:9860   */\n      jump(tag_487)\n        /* \"#utility.yul\":8861:9609   */\n    tag_488:\n        /* \"#utility.yul\":3935:3936   */\n      0x00\n        /* \"#utility.yul\":3928:3942   */\n      dup6\n      dup2\n      mstore\n        /* \"#utility.yul\":3972:3976   */\n      0x20\n        /* \"#utility.yul\":3959:3977   */\n      swap1\n      keccak256\n      not(0x1f)\n        /* \"#utility.yul\":8897:8917   */\n      dup5\n      and\n      swap1\n        /* \"#utility.yul\":3935:3936   */\n      0x00\n        /* \"#utility.yul\":3928:3942   */\n      dup7\n      dup2\n      mstore\n        /* \"#utility.yul\":3972:3976   */\n      0x20\n        /* \"#utility.yul\":3959:3977   */\n      swap1\n      keccak256\n        /* \"#utility.yul\":9061:9070   */\n      dup5\n        /* \"#utility.yul\":9083:9334   */\n    tag_493:\n        /* \"#utility.yul\":9097:9104   */\n      dup4\n        /* \"#utility.yul\":9094:9095   */\n      dup2\n        /* \"#utility.yul\":9091:9105   */\n      lt\n        /* \"#utility.yul\":9083:9334   */\n      iszero\n      tag_495\n      jumpi\n        /* \"#utility.yul\":9179:9200   */\n      dup3\n      dup7\n      add\n        /* \"#utility.yul\":9173:9201   */\n      sload\n        /* \"#utility.yul\":9158:9202   */\n      dup3\n      sstore\n        /* \"#utility.yul\":9229:9230   */\n      0x01\n        /* \"#utility.yul\":9302:9320   */\n      swap6\n      dup7\n      add\n      swap6\n        /* \"#utility.yul\":9257:9272   */\n      swap1\n      swap2\n      add\n      swap1\n        /* \"#utility.yul\":9120:9124   */\n      0x20\n        /* \"#utility.yul\":9113:9125   */\n      add\n        /* \"#utility.yul\":9083:9334   */\n      jump(tag_493)\n    tag_495:\n        /* \"#utility.yul\":9087:9090   */\n      pop\n        /* \"#utility.yul\":9362:9368   */\n      dup6\n        /* \"#utility.yul\":9353:9360   */\n      dup4\n        /* \"#utility.yul\":9350:9369   */\n      lt\n        /* \"#utility.yul\":9347:9550   */\n      iszero\n      tag_496\n      jumpi\n        /* \"#utility.yul\":9423:9444   */\n      dup2\n      dup6\n      add\n        /* \"#utility.yul\":9417:9445   */\n      sload\n      not(0x00)\n        /* \"#utility.yul\":9508:9509   */\n      0x03\n        /* \"#utility.yul\":9504:9518   */\n      dup9\n      swap1\n      shl\n        /* \"#utility.yul\":9520:9523   */\n      0xf8\n        /* \"#utility.yul\":9500:9524   */\n      and\n        /* \"#utility.yul\":9496:9533   */\n      shr\n        /* \"#utility.yul\":9492:9534   */\n      not\n        /* \"#utility.yul\":9477:9535   */\n      and\n        /* \"#utility.yul\":9462:9536   */\n      dup2\n      sstore\n        /* \"#utility.yul\":9347:9550   */\n    tag_496:\n      pop\n      pop\n      pop\n        /* \"#utility.yul\":9596:9597   */\n      0x01\n        /* \"#utility.yul\":9587:9593   */\n      dup4\n        /* \"#utility.yul\":9584:9585   */\n      0x01\n        /* \"#utility.yul\":9580:9594   */\n      shl\n        /* \"#utility.yul\":9576:9598   */\n      add\n        /* \"#utility.yul\":9570:9574   */\n      dup5\n        /* \"#utility.yul\":9563:9599   */\n      sstore\n        /* \"#utility.yul\":8831:9860   */\n    tag_487:\n      pop\n      pop\n      pop\n        /* \"#utility.yul\":8431:9866   */\n      pop\n      pop\n      jump\t// out\n        /* \"#utility.yul\":9871:10643   */\n    tag_408:\n        /* \"#utility.yul\":9921:9924   */\n      0x00\n        /* \"#utility.yul\":9962:9967   */\n      dup2\n        /* \"#utility.yul\":9956:9968   */\n      sload\n        /* \"#utility.yul\":9991:10027   */\n      tag_498\n        /* \"#utility.yul\":10017:10026   */\n      dup2\n        /* \"#utility.yul\":9991:10027   */\n      tag_68\n      jump\t// in\n    tag_498:\n        /* \"#utility.yul\":10036:10055   */\n      dup1\n      dup6\n      mstore\n        /* \"#utility.yul\":10074:10078   */\n      0x20\n        /* \"#utility.yul\":10097:10098   */\n      0x01\n        /* \"#utility.yul\":10114:10132   */\n      dup4\n      dup2\n      and\n        /* \"#utility.yul\":10141:10287   */\n      dup1\n      iszero\n      tag_500\n      jumpi\n        /* \"#utility.yul\":10301:10302   */\n      0x01\n        /* \"#utility.yul\":10296:10637   */\n      dup2\n      eq\n      tag_501\n      jumpi\n        /* \"#utility.yul\":10107:10637   */\n      jump(tag_499)\n        /* \"#utility.yul\":10141:10287   */\n    tag_500:\n      not(0xff)\n        /* \"#utility.yul\":10183:10207   */\n      dup6\n      and\n        /* \"#utility.yul\":10169:10181   */\n      dup9\n      dup5\n      add\n        /* \"#utility.yul\":10162:10208   */\n      mstore\n        /* \"#utility.yul\":10255:10269   */\n      dup4\n      iszero\n        /* \"#utility.yul\":10248:10270   */\n      iszero\n        /* \"#utility.yul\":10245:10246   */\n      0x05\n        /* \"#utility.yul\":10241:10271   */\n      shl\n        /* \"#utility.yul\":10232:10272   */\n      dup9\n      add\n        /* \"#utility.yul\":10228:10277   */\n      dup4\n      add\n      swap6\n      pop\n        /* \"#utility.yul\":10141:10287   */\n      jump(tag_499)\n        /* \"#utility.yul\":10296:10637   */\n    tag_501:\n        /* \"#utility.yul\":10327:10332   */\n      dup7\n        /* \"#utility.yul\":10324:10325   */\n      0x00\n        /* \"#utility.yul\":10317:10333   */\n      mstore\n        /* \"#utility.yul\":10374:10376   */\n      dup3\n        /* \"#utility.yul\":10371:10372   */\n      0x00\n        /* \"#utility.yul\":10361:10377   */\n      keccak256\n        /* \"#utility.yul\":10399:10400   */\n      0x00\n        /* \"#utility.yul\":10413:10587   */\n    tag_502:\n        /* \"#utility.yul\":10427:10433   */\n      dup6\n        /* \"#utility.yul\":10424:10425   */\n      dup2\n        /* \"#utility.yul\":10421:10434   */\n      lt\n        /* \"#utility.yul\":10413:10587   */\n      iszero\n      tag_504\n      jumpi\n        /* \"#utility.yul\":10514:10528   */\n      dup2\n      sload\n        /* \"#utility.yul\":10496:10507   */\n      dup11\n      dup3\n      add\n        /* \"#utility.yul\":10492:10512   */\n      dup7\n      add\n        /* \"#utility.yul\":10485:10529   */\n      mstore\n        /* \"#utility.yul\":10557:10573   */\n      swap1\n      dup4\n      add\n      swap1\n        /* \"#utility.yul\":10442:10452   */\n      dup5\n      add\n        /* \"#utility.yul\":10413:10587   */\n      jump(tag_502)\n    tag_504:\n        /* \"#utility.yul\":10611:10622   */\n      dup10\n      add\n        /* \"#utility.yul\":10607:10627   */\n      dup5\n      add\n      swap7\n      pop\n      pop\n        /* \"#utility.yul\":10107:10637   */\n    tag_499:\n      pop\n      pop\n      pop\n      pop\n      pop\n        /* \"#utility.yul\":9871:10643   */\n      swap3\n      swap2\n      pop\n      pop\n      jump\t// out\n        /* \"#utility.yul\":10648:11299   */\n    tag_409:\n        /* \"#utility.yul\":10708:10711   */\n      0x00\n        /* \"#utility.yul\":10746:10751   */\n      dup2\n        /* \"#utility.yul\":10740:10752   */\n      sload\n        /* \"#utility.yul\":10773:10779   */\n      dup1\n        /* \"#utility.yul\":10768:10771   */\n      dup5\n        /* \"#utility.yul\":10761:10780   */\n      mstore\n        /* \"#utility.yul\":10799:10803   */\n      0x20\n        /* \"#utility.yul\":10840:10842   */\n      dup1\n        /* \"#utility.yul\":10835:10838   */\n      dup6\n        /* \"#utility.yul\":10831:10843   */\n      add\n        /* \"#utility.yul\":10865:10876   */\n      dup1\n        /* \"#utility.yul\":10892:10903   */\n      dup2\n        /* \"#utility.yul\":10885:10903   */\n      swap7\n      pop\n        /* \"#utility.yul\":10942:10948   */\n      dup4\n        /* \"#utility.yul\":10939:10940   */\n      0x05\n        /* \"#utility.yul\":10935:10949   */\n      shl\n        /* \"#utility.yul\":10928:10933   */\n      dup2\n        /* \"#utility.yul\":10924:10950   */\n      add\n        /* \"#utility.yul\":10912:10950   */\n      swap2\n      pop\n        /* \"#utility.yul\":10969:10974   */\n      dup6\n        /* \"#utility.yul\":10966:10967   */\n      0x00\n        /* \"#utility.yul\":10959:10975   */\n      mstore\n        /* \"#utility.yul\":11011:11013   */\n      dup3\n        /* \"#utility.yul\":11008:11009   */\n      0x00\n        /* \"#utility.yul\":10998:11014   */\n      keccak256\n        /* \"#utility.yul\":11032:11033   */\n      0x00\n        /* \"#utility.yul\":11042:11273   */\n    tag_506:\n        /* \"#utility.yul\":11056:11062   */\n      dup6\n        /* \"#utility.yul\":11053:11054   */\n      dup2\n        /* \"#utility.yul\":11050:11063   */\n      lt\n        /* \"#utility.yul\":11042:11273   */\n      iszero\n      tag_508\n      jumpi\n        /* \"#utility.yul\":11127:11132   */\n      dup3\n        /* \"#utility.yul\":11121:11125   */\n      dup5\n        /* \"#utility.yul\":11117:11133   */\n      sub\n        /* \"#utility.yul\":11112:11115   */\n      dup10\n        /* \"#utility.yul\":11105:11134   */\n      mstore\n        /* \"#utility.yul\":11155:11194   */\n      tag_509\n        /* \"#utility.yul\":11189:11193   */\n      dup5\n        /* \"#utility.yul\":11181:11187   */\n      dup4\n        /* \"#utility.yul\":11155:11194   */\n      tag_408\n      jump\t// in\n    tag_509:\n        /* \"#utility.yul\":11251:11263   */\n      swap9\n      dup6\n      add\n      swap9\n        /* \"#utility.yul\":11147:11194   */\n      swap4\n      pop\n        /* \"#utility.yul\":11229:11230   */\n      0x01\n        /* \"#utility.yul\":11217:11231   */\n      swap2\n      dup3\n      add\n      swap2\n        /* \"#utility.yul\":11071:11080   */\n      add\n        /* \"#utility.yul\":11042:11273   */\n      jump(tag_506)\n    tag_508:\n      pop\n        /* \"#utility.yul\":11289:11293   */\n      swap2\n      swap8\n        /* \"#utility.yul\":10648:11299   */\n      swap7\n      pop\n      pop\n      pop\n      pop\n      pop\n      pop\n      pop\n      jump\t// out\n        /* \"#utility.yul\":11304:11586   */\n    tag_114:\n        /* \"#utility.yul\":11497:11499   */\n      0x20\n        /* \"#utility.yul\":11486:11495   */\n      dup2\n        /* \"#utility.yul\":11479:11500   */\n      mstore\n        /* \"#utility.yul\":11460:11464   */\n      0x00\n        /* \"#utility.yul\":11517:11580   */\n      tag_511\n        /* \"#utility.yul\":11576:11578   */\n      0x20\n        /* \"#utility.yul\":11565:11574   */\n      dup4\n        /* \"#utility.yul\":11561:11579   */\n      add\n        /* \"#utility.yul\":11553:11559   */\n      dup5\n        /* \"#utility.yul\":11517:11580   */\n      tag_409\n      jump\t// in\n    tag_511:\n        /* \"#utility.yul\":11509:11580   */\n      swap4\n        /* \"#utility.yul\":11304:11586   */\n      swap3\n      pop\n      pop\n      pop\n      jump\t// out\n        /* \"#utility.yul\":11716:12185   */\n    tag_411:\n        /* \"#utility.yul\":11777:11780   */\n      0x00\n        /* \"#utility.yul\":11815:11820   */\n      dup2\n        /* \"#utility.yul\":11809:11821   */\n      sload\n        /* \"#utility.yul\":11842:11848   */\n      dup1\n        /* \"#utility.yul\":11837:11840   */\n      dup5\n        /* \"#utility.yul\":11830:11849   */\n      mstore\n        /* \"#utility.yul\":11868:11872   */\n      0x20\n        /* \"#utility.yul\":11897:11899   */\n      dup1\n        /* \"#utility.yul\":11892:11895   */\n      dup6\n        /* \"#utility.yul\":11888:11900   */\n      add\n        /* \"#utility.yul\":11881:11900   */\n      swap5\n      pop\n        /* \"#utility.yul\":11919:11924   */\n      dup4\n        /* \"#utility.yul\":11916:11917   */\n      0x00\n        /* \"#utility.yul\":11909:11925   */\n      mstore\n        /* \"#utility.yul\":11961:11963   */\n      dup1\n        /* \"#utility.yul\":11958:11959   */\n      0x00\n        /* \"#utility.yul\":11948:11964   */\n      keccak256\n        /* \"#utility.yul\":11982:11983   */\n      0x00\n        /* \"#utility.yul\":11992:12160   */\n    tag_514:\n        /* \"#utility.yul\":12006:12012   */\n      dup4\n        /* \"#utility.yul\":12003:12004   */\n      dup2\n        /* \"#utility.yul\":12000:12013   */\n      lt\n        /* \"#utility.yul\":11992:12160   */\n      iszero\n      tag_516\n      jumpi\n        /* \"#utility.yul\":12067:12080   */\n      dup2\n      sload\n        /* \"#utility.yul\":12055:12081   */\n      dup8\n      mstore\n        /* \"#utility.yul\":12101:12113   */\n      swap6\n      dup3\n      add\n      swap6\n        /* \"#utility.yul\":12148:12149   */\n      0x01\n        /* \"#utility.yul\":12136:12150   */\n      swap2\n      dup3\n      add\n      swap2\n        /* \"#utility.yul\":12021:12030   */\n      add\n        /* \"#utility.yul\":11992:12160   */\n      jump(tag_514)\n    tag_516:\n      pop\n        /* \"#utility.yul\":12176:12179   */\n      swap5\n      swap6\n        /* \"#utility.yul\":11716:12185   */\n      swap5\n      pop\n      pop\n      pop\n      pop\n      pop\n      jump\t// out\n        /* \"#utility.yul\":12333:13671   */\n    tag_121:\n        /* \"#utility.yul\":12507:12509   */\n      0x20\n        /* \"#utility.yul\":12496:12505   */\n      dup2\n        /* \"#utility.yul\":12489:12510   */\n      mstore\n        /* \"#utility.yul\":12519:12610   */\n      tag_519\n        /* \"#utility.yul\":12606:12608   */\n      0x20\n        /* \"#utility.yul\":12595:12604   */\n      dup3\n        /* \"#utility.yul\":12591:12609   */\n      add\n        /* \"#utility.yul\":12535:12589   */\n      tag_520\n        /* \"#utility.yul\":12581:12587   */\n      dup5\n        /* \"#utility.yul\":12575:12588   */\n      sload\n        /* \"#utility.yul\":11700:11704   */\n      0xff\n        /* \"#utility.yul\":11684:11705   */\n      and\n      swap1\n        /* \"#utility.yul\":11591:11711   */\n      jump\n        /* \"#utility.yul\":12535:12589   */\n    tag_520:\n        /* \"#utility.yul\":522:535   */\n      iszero\n        /* \"#utility.yul\":515:536   */\n      iszero\n        /* \"#utility.yul\":503:537   */\n      swap1\n      mstore\n        /* \"#utility.yul\":452:543   */\n      jump\n        /* \"#utility.yul\":12519:12610   */\n    tag_519:\n        /* \"#utility.yul\":12470:12474   */\n      0x00\n        /* \"#utility.yul\":12629:12635   */\n      0x0100\n        /* \"#utility.yul\":12671:12673   */\n      dup1\n        /* \"#utility.yul\":12666:12668   */\n      0x40\n        /* \"#utility.yul\":12655:12664   */\n      dup5\n        /* \"#utility.yul\":12651:12669   */\n      add\n        /* \"#utility.yul\":12644:12674   */\n      mstore\n        /* \"#utility.yul\":12697:12762   */\n      tag_521\n        /* \"#utility.yul\":12757:12760   */\n      0x0120\n        /* \"#utility.yul\":12746:12755   */\n      dup5\n        /* \"#utility.yul\":12742:12761   */\n      add\n        /* \"#utility.yul\":12735:12739   */\n      0x01\n        /* \"#utility.yul\":12727:12733   */\n      dup7\n        /* \"#utility.yul\":12723:12740   */\n      add\n        /* \"#utility.yul\":12697:12762   */\n      tag_408\n      jump\t// in\n    tag_521:\n        /* \"#utility.yul\":12785:12787   */\n      0x1f\n        /* \"#utility.yul\":12781:12788   */\n      not\n        /* \"#utility.yul\":12852:12854   */\n      dup1\n        /* \"#utility.yul\":12840:12849   */\n      dup6\n        /* \"#utility.yul\":12832:12838   */\n      dup4\n        /* \"#utility.yul\":12828:12850   */\n      sub\n        /* \"#utility.yul\":12824:12855   */\n      add\n        /* \"#utility.yul\":12819:12821   */\n      0x60\n        /* \"#utility.yul\":12808:12817   */\n      dup7\n        /* \"#utility.yul\":12804:12822   */\n      add\n        /* \"#utility.yul\":12797:12856   */\n      mstore\n        /* \"#utility.yul\":12879:12941   */\n      tag_522\n        /* \"#utility.yul\":12934:12940   */\n      dup3\n        /* \"#utility.yul\":12927:12931   */\n      0x02\n        /* \"#utility.yul\":12919:12925   */\n      dup9\n        /* \"#utility.yul\":12915:12932   */\n      add\n        /* \"#utility.yul\":12879:12941   */\n      tag_409\n      jump\t// in\n    tag_522:\n        /* \"#utility.yul\":12865:12941   */\n      swap2\n      pop\n        /* \"#utility.yul\":13006:13008   */\n      dup1\n        /* \"#utility.yul\":12994:13003   */\n      dup6\n        /* \"#utility.yul\":12986:12992   */\n      dup4\n        /* \"#utility.yul\":12982:13004   */\n      sub\n        /* \"#utility.yul\":12978:13009   */\n      add\n        /* \"#utility.yul\":12972:12975   */\n      0x80\n        /* \"#utility.yul\":12961:12970   */\n      dup7\n        /* \"#utility.yul\":12957:12976   */\n      add\n        /* \"#utility.yul\":12950:13010   */\n      mstore\n      pop\n        /* \"#utility.yul\":13033:13096   */\n      tag_523\n        /* \"#utility.yul\":13089:13095   */\n      dup2\n        /* \"#utility.yul\":13082:13086   */\n      0x03\n        /* \"#utility.yul\":13074:13080   */\n      dup8\n        /* \"#utility.yul\":13070:13087   */\n      add\n        /* \"#utility.yul\":13033:13096   */\n      tag_411\n      jump\t// in\n    tag_523:\n        /* \"#utility.yul\":13019:13096   */\n      swap1\n      pop\n        /* \"#utility.yul\":13125:13193   */\n      tag_524\n        /* \"#utility.yul\":13186:13190   */\n      0x04\n        /* \"#utility.yul\":13178:13184   */\n      dup7\n        /* \"#utility.yul\":13174:13191   */\n      add\n        /* \"#utility.yul\":13168:13192   */\n      sload\n      sub(shl(0xa0, 0x01), 0x01)\n        /* \"#utility.yul\":12286:12322   */\n      and\n      swap1\n        /* \"#utility.yul\":12190:12328   */\n      jump\n        /* \"#utility.yul\":13125:13193   */\n    tag_524:\n      sub(shl(0xa0, 0x01), 0x01)\n        /* \"#utility.yul\":869:900   */\n      swap1\n      dup2\n      and\n        /* \"#utility.yul\":13250:13253   */\n      0xa0\n        /* \"#utility.yul\":13235:13254   */\n      dup7\n      add\n        /* \"#utility.yul\":857:901   */\n      mstore\n        /* \"#utility.yul\":13347:13351   */\n      0x05\n        /* \"#utility.yul\":13335:13352   */\n      dup7\n      add\n        /* \"#utility.yul\":13329:13353   */\n      sload\n        /* \"#utility.yul\":12286:12322   */\n      dup2\n      and\n        /* \"#utility.yul\":13413:13416   */\n      0xc0\n        /* \"#utility.yul\":13398:13417   */\n      dup7\n      add\n        /* \"#utility.yul\":857:901   */\n      mstore\n        /* \"#utility.yul\":13473:13477   */\n      0x06\n        /* \"#utility.yul\":13461:13478   */\n      dup7\n      add\n        /* \"#utility.yul\":13455:13479   */\n      sload\n        /* \"#utility.yul\":13449:13452   */\n      0xe0\n        /* \"#utility.yul\":13434:13453   */\n      dup7\n      add\n        /* \"#utility.yul\":13427:13480   */\n      mstore\n        /* \"#utility.yul\":13572:13576   */\n      0x07\n        /* \"#utility.yul\":13560:13577   */\n      swap1\n      swap6\n      add\n        /* \"#utility.yul\":13554:13578   */\n      sload\n        /* \"#utility.yul\":12286:12322   */\n      swap1\n      swap5\n      and\n        /* \"#utility.yul\":13623:13641   */\n      swap3\n      add\n        /* \"#utility.yul\":857:901   */\n      swap2\n      swap1\n      swap2\n      mstore\n      pop\n        /* \"#utility.yul\":13659:13665   */\n      swap1\n        /* \"#utility.yul\":12333:13671   */\n      jump\t// out\n        /* \"#utility.yul\":13676:13803   */\n    tag_413:\n        /* \"#utility.yul\":13737:13747   */\n      0x4e487b71\n        /* \"#utility.yul\":13732:13735   */\n      0xe0\n        /* \"#utility.yul\":13728:13748   */\n      shl\n        /* \"#utility.yul\":13725:13726   */\n      0x00\n        /* \"#utility.yul\":13718:13749   */\n      mstore\n        /* \"#utility.yul\":13768:13772   */\n      0x11\n        /* \"#utility.yul\":13765:13766   */\n      0x04\n        /* \"#utility.yul\":13758:13773   */\n      mstore\n        /* \"#utility.yul\":13792:13796   */\n      0x24\n        /* \"#utility.yul\":13789:13790   */\n      0x00\n        /* \"#utility.yul\":13782:13797   */\n      revert\n        /* \"#utility.yul\":13808:13936   */\n    tag_139:\n        /* \"#utility.yul\":13875:13884   */\n      dup2\n      dup2\n      sub\n        /* \"#utility.yul\":13896:13907   */\n      dup2\n      dup2\n      gt\n        /* \"#utility.yul\":13893:13930   */\n      iszero\n      tag_172\n      jumpi\n        /* \"#utility.yul\":13910:13928   */\n      tag_172\n      tag_413\n      jump\t// in\n        /* \"#utility.yul\":13941:14076   */\n    tag_166:\n        /* \"#utility.yul\":13980:13983   */\n      0x00\n        /* \"#utility.yul\":14001:14018   */\n      0x01\n      dup3\n      add\n        /* \"#utility.yul\":13998:14041   */\n      tag_536\n      jumpi\n        /* \"#utility.yul\":14021:14039   */\n      tag_536\n      tag_413\n      jump\t// in\n    tag_536:\n      pop\n        /* \"#utility.yul\":14068:14069   */\n      0x01\n        /* \"#utility.yul\":14057:14070   */\n      add\n      swap1\n        /* \"#utility.yul\":13941:14076   */\n      jump\t// out\n        /* \"#utility.yul\":14081:14370   */\n    tag_174:\n        /* \"#utility.yul\":14212:14215   */\n      0x00\n        /* \"#utility.yul\":14250:14256   */\n      dup3\n        /* \"#utility.yul\":14244:14257   */\n      mload\n        /* \"#utility.yul\":14266:14332   */\n      tag_538\n        /* \"#utility.yul\":14325:14331   */\n      dup2\n        /* \"#utility.yul\":14320:14323   */\n      dup5\n        /* \"#utility.yul\":14313:14317   */\n      0x20\n        /* \"#utility.yul\":14305:14311   */\n      dup8\n        /* \"#utility.yul\":14301:14318   */\n      add\n        /* \"#utility.yul\":14266:14332   */\n      tag_401\n      jump\t// in\n    tag_538:\n        /* \"#utility.yul\":14348:14364   */\n      swap2\n      swap1\n      swap2\n      add\n      swap3\n        /* \"#utility.yul\":14081:14370   */\n      swap2\n      pop\n      pop\n      jump\t// out\n\n    auxdata: 0xa264697066735822122091a10be14fea5be2ec3d0deb1cfd5d35cfd473127a0cb0633a11e3b71b69f91d64736f6c63430008130033\n}\n",
				"bytecode": {
					"linkReferences": {},
					"object": "600061018081815260016101a081905260026101c0819052608092835260036101e08181526004610200819052600561022081905260a09290925260066102408181526007610260819052600861028081905260c0929092526102a08a81526102c0969096526102e083905260e0959095526103008781526103208490526103409590955261010094909452610360858152610380939093526103a0849052610120929092526103c09687526103e081905261040083905261014096909652610480604052610420928352610440959095526104609490945261016052620000ea92909190620000ff565b50348015620000f857600080fd5b5062000209565b8280548282559060005260206000209081019282156200014b579160200282015b828111156200014b5782516200013a90839060036200015d565b509160200191906001019062000120565b5062000159929150620001ae565b5090565b828054828255906000526020600020908101928215620001a0579160200282015b82811115620001a0578251829060ff169055916020019190600101906200017e565b5062000159929150620001cf565b8082111562000159576000620001c58282620001e6565b50600101620001ae565b5b80821115620001595760008155600101620001d0565b5080546000825590600052602060002090810190620002069190620001cf565b50565b611ecb80620002196000396000f3fe608060405234801561001057600080fd5b50600436106100625760003560e01c80634a9683911461006757806352bc34101461007c57806387052fab1461008f57806397ca20bf146100bd578063bed34bba146100c5578063efaa55a0146100e8575b600080fd5b61007a6100753660046117c0565b6100fb565b005b61007a61008a3660046117d9565b6102a2565b6100a261009d3660046117c0565b610727565b6040516100b49695949392919061181f565b60405180910390f35b61007a61080a565b6100d86100d3366004611923565b610b51565b60405190151581526020016100b4565b61007a6100f63660046117c0565b610bab565b604051806040016040528060018152602001600b60fb1b8152506000828154811061012857610128611987565b906000526020600020906008020160010190816101459190611a26565b5060408051610140810182526000610120820181815282528251602081810185528282528084019190915283518082018552828152838501528351808201855282815260608401528351808201855282815260808401528351808201855282815260a08401528351808201855282815260c08401528351808201855282815260e084015283519081019093528083526101008201929092528154909190839081106101f2576101f2611987565b906000526020600020906008020160020190600961021192919061166e565b507f12028463284aa79a2cec858ff157451112ecff237cda43248ebb797c814f661c6000828154811061024657610246611987565b90600052602060002090600802016001016040516102649190611ae6565b60405180910390a1600080828154811061028057610280611987565b60009182526020909120600890910201805460ff191691151591909117905550565b600081815481106102b5576102b5611987565b600091825260209091206008909102015460ff1661031a5760405162461bcd60e51b815260206004820152601c60248201527f5468652067616d65207374696c6c206e6f74207374617274207965740000000060448201526064015b60405180910390fd5b6103fa6000828154811061033057610330611987565b9060005260206000209060080201600201838154811061035257610352611987565b9060005260206000200180546103679061199d565b80601f01602080910402602001604051908101604052809291908181526020018280546103939061199d565b80156103e05780601f106103b5576101008083540402835291602001916103e0565b820191906000526020600020905b8154815290600101906020018083116103c357829003601f168201915b505050505060405180602001604052806000815250610b51565b6104365760405162461bcd60e51b815260206004820152600d60248201526c125b9d985b1a59081a5b9c1d5d609a1b6044820152606401610311565b6105056000828154811061044c5761044c611987565b906000526020600020906008020160010180546104689061199d565b80601f01602080910402602001604051908101604052809291908181526020018280546104949061199d565b80156104e15780601f106104b6576101008083540402835291602001916104e1565b820191906000526020600020905b8154815290600101906020018083116104c457829003601f168201915b5050505050604051806040016040528060018152602001600b60fb1b815250610b51565b15610584576000818154811061051d5761051d611987565b60009182526020909120600890910201600401546001600160a01b0316331461057f5760405162461bcd60e51b8152602060048201526014602482015273596f7520617265206e6f7420706c61796572203160601b6044820152606401610311565b6105f9565b6000818154811061059757610597611987565b60009182526020909120600890910201600501546001600160a01b031633146105f95760405162461bcd60e51b81526020600482015260146024820152732cb7ba9030b932903737ba10383630bcb2b9101960611b6044820152606401610311565b6000818154811061060c5761060c611987565b90600052602060002090600802016001016000828154811061063057610630611987565b9060005260206000209060080201600201838154811061065257610652611987565b9060005260206000200190816106689190611b71565b507fd77f94cc29111f7dbd8555e9587fc989a0cf9fa417821f33e2f02913794bebb06000828154811061069d5761069d611987565b90600052602060002090600802016002016040516106bb9190611d22565b60405180910390a16106cc81610e01565b7f3a370b33c27181a790ff0b30bac7d21644df9446c928286f82787e920268a1fc6000828154811061070057610700611987565b906000526020600020906008020160405161071b9190611d7c565b60405180910390a15050565b6000818154811061073757600080fd5b60009182526020909120600890910201805460018201805460ff9092169350906107609061199d565b80601f016020809104026020016040519081016040528092919081815260200182805461078c9061199d565b80156107d95780601f106107ae576101008083540402835291602001916107d9565b820191906000526020600020905b8154815290600101906020018083116107bc57829003601f168201915b50505060048401546005850154600686015460079096015494956001600160a01b0392831695918316945092501686565b61086f60405180610100016040528060001515815260200160608152602001606081526020016060815260200160006001600160a01b0316815260200160006001600160a01b031681526020016000815260200160006001600160a01b031681525090565b6000805460018101825590805281517f290decd9548b62a8d60345a988386fc84ba6bc95484008f6362f93160ef3e5636008909202918201805460ff1916911515919091178155602083015183927f290decd9548b62a8d60345a988386fc84ba6bc95484008f6362f93160ef3e56401906108ea9082611a26565b50604082015180516109069160028401916020909101906116c4565b506060820151805161092291600384019160209091019061170a565b5060808201516004820180546001600160a01b03199081166001600160a01b039384161790915560a0840151600584018054831691841691909117905560c0840151600684015560e09093015160079092018054909316911617905560008054903390610990600184611e4d565b815481106109a0576109a0611987565b6000918252602082206008919091020160040180546001600160a01b0319166001600160a01b039390931692909217909155806109de600184611e4d565b815481106109ee576109ee611987565b60009182526020822060089190910201805460ff191692151592909217909155600190610a1b8284611e4d565b81548110610a2b57610a2b611987565b906000526020600020906008020160060181905550604051806040016040528060018152602001600b60fb1b8152506000600183610a699190611e4d565b81548110610a7957610a79611987565b90600052602060002090600802016001019081610a969190611a26565b5060005b6009811015610b12576000610ab0600184611e4d565b81548110610ac057610ac0611987565b6000918252602080832060026008909302019190910180546001810182559083528183206040805193840190529282529190910190610aff9082611a26565b5080610b0a81611e60565b915050610a9a565b507f3a370b33c27181a790ff0b30bac7d21644df9446c928286f82787e920268a1fc6000610b41600184611e4d565b8154811061070057610700611987565b600081604051602001610b649190611e79565b6040516020818303038152906040528051906020012083604051602001610b8b9190611e79565b604051602081830303815290604052805190602001201490505b92915050565b60008181548110610bbe57610bbe611987565b906000526020600020906008020160060154600103610d0d5760008181548110610bea57610bea611987565b60009182526020909120600460089092020101546001600160a01b03163303610c615760405162461bcd60e51b8152602060048201526024808201527f4572726f723a20596f752063616e6e6f7420706c6179207769746820796f757260448201526339b2b63360e11b6064820152608401610311565b3360008281548110610c7557610c75611987565b906000526020600020906008020160050160006101000a8154816001600160a01b0302191690836001600160a01b03160217905550600260008281548110610cbf57610cbf611987565b906000526020600020906008020160060181905550600160008281548110610ce957610ce9611987565b60009182526020909120600890910201805460ff1916911515919091179055610da7565b60008181548110610d2057610d20611987565b906000526020600020906008020160060154600214610da75760405162461bcd60e51b815260206004820152603e60248201527f4e6f772071756575652069732066756c6c2c20747279206c617465722e20476160448201527f6d6520616c72656164792066756c6c20706c73206a6f696e206f7468657200006064820152608401610311565b7f3a370b33c27181a790ff0b30bac7d21644df9446c928286f82787e920268a1fc60008281548110610ddb57610ddb611987565b9060005260206000209060080201604051610df69190611d7c565b60405180910390a150565b6000805b60015481101561132557600060018281548110610e2457610e24611987565b90600052602060002001805480602002602001604051908101604052809291908181526020018280548015610e7857602002820191906000526020600020905b815481526020019060010190808311610e64575b505050505090506000808581548110610e9357610e93611987565b906000526020600020906008020160020182600081518110610eb757610eb7611987565b602002602001015181548110610ecf57610ecf611987565b906000526020600020018054610ee49061199d565b80601f0160208091040260200160405190810160405280929190818152602001828054610f109061199d565b8015610f5d5780601f10610f3257610100808354040283529160200191610f5d565b820191906000526020600020905b815481529060010190602001808311610f4057829003601f168201915b505050505090506000808681548110610f7857610f78611987565b906000526020600020906008020160020183600181518110610f9c57610f9c611987565b602002602001015181548110610fb457610fb4611987565b906000526020600020018054610fc99061199d565b80601f0160208091040260200160405190810160405280929190818152602001828054610ff59061199d565b80156110425780601f1061101757610100808354040283529160200191611042565b820191906000526020600020905b81548152906001019060200180831161102557829003601f168201915b50505050509050600080878154811061105d5761105d611987565b90600052602060002090600802016002018460028151811061108157611081611987565b60200260200101518154811061109957611099611987565b9060005260206000200180546110ae9061199d565b80601f01602080910402602001604051908101604052809291908181526020018280546110da9061199d565b80156111275780601f106110fc57610100808354040283529160200191611127565b820191906000526020600020905b81548152906001019060200180831161110a57829003601f168201915b505050505090506111478360405180602001604052806000815250610b51565b8061116657506111668260405180602001604052806000815250610b51565b8061118557506111858160405180602001604052806000815250610b51565b156111935750505050611313565b61119d8383610b51565b80156111ae57506111ae8282610b51565b1561130e5783600088815481106111c7576111c7611987565b906000526020600020906008020160030190805190602001906111eb92919061170a565b506112026000888154811061044c5761044c611987565b15611286576000878154811061121a5761121a611987565b6000918252602082206004600890920201015481546001600160a01b0390911691908990811061124c5761124c611987565b906000526020600020906008020160070160006101000a8154816001600160a01b0302191690836001600160a01b03160217905550611301565b6000878154811061129957611299611987565b6000918252602082206005600890920201015481546001600160a01b039091169190899081106112cb576112cb611987565b906000526020600020906008020160070160006101000a8154816001600160a01b0302191690836001600160a01b031602179055505b6001955050505050611325565b505050505b8061131d81611e60565b915050610e05565b5080156113bd577fcde5c32c0a45fd8aa4b65ea8003fc9da9acd5e2c6c24a9fcce6ab79cabbd91226000838154811061136057611360611987565b906000526020600020906008020160010160405161137e9190611ae6565b60405180910390a1600080838154811061139a5761139a611987565b60009182526020909120600890910201805460ff19169115159190911790555050565b6113c68261141e565b15611411577fcde5c32c0a45fd8aa4b65ea8003fc9da9acd5e2c6c24a9fcce6ab79cabbd912260405161137e906020808252600490820152634472617760e01b604082015260600190565b61141a826114b2565b5050565b6000805b6000838154811061143557611435611987565b9060005260206000209060080201600201805490508110156114a9576114896000848154811061146757611467611987565b9060005260206000209060080201600201828154811061035257610352611987565b156114975750600092915050565b806114a181611e60565b915050611422565b50600192915050565b6114c86000828154811061044c5761044c611987565b15611534577fec121debab367dc6fc2da219ef2d5cf4e97e648e71f3a199511cf3b4d7d593046000828154811061150157611501611987565b6000918252602091829020600890910201600501546040516001600160a01b0390911681520160405180910390a1611597565b7fec121debab367dc6fc2da219ef2d5cf4e97e648e71f3a199511cf3b4d7d593046000828154811061156857611568611987565b6000918252602091829020600890910201600401546040516001600160a01b0390911681520160405180910390a15b6115ad6000828154811061044c5761044c611987565b6115d057604051806040016040528060018152602001600b60fb1b8152506115eb565b604051806040016040528060018152602001604f60f81b8152505b600082815481106115fe576115fe611987565b9060005260206000209060080201600101908161161b9190611a26565b507ffec15e35ec3d19c0b090bded48bc70fcf6e183fb77f32b0f92b463d5fec3a0d16000828154811061165057611650611987565b9060005260206000209060080201600101604051610df69190611ae6565b8280548282559060005260206000209081019282156116b4579160200282015b828111156116b457825182906116a49082611a26565b509160200191906001019061168e565b506116c0929150611751565b5090565b8280548282559060005260206000209081019282156116b4579160200282015b828111156116b457825182906116fa9082611a26565b50916020019190600101906116e4565b828054828255906000526020600020908101928215611745579160200282015b8281111561174557825182559160200191906001019061172a565b506116c092915061176e565b808211156116c05760006117658282611783565b50600101611751565b5b808211156116c0576000815560010161176f565b50805461178f9061199d565b6000825580601f1061179f575050565b601f0160209004906000526020600020908101906117bd919061176e565b50565b6000602082840312156117d257600080fd5b5035919050565b600080604083850312156117ec57600080fd5b50508035926020909101359150565b60005b838110156118165781810151838201526020016117fe565b50506000910152565b861515815260c06020820152600086518060c08401526118468160e0850160208b016117fb565b6001600160a01b039687166040840152948616606083015250608081019290925290921660a0830152601f01601f19160160e00192915050565b634e487b7160e01b600052604160045260246000fd5b600082601f8301126118a757600080fd5b813567ffffffffffffffff808211156118c2576118c2611880565b604051601f8301601f19908116603f011681019082821181831017156118ea576118ea611880565b8160405283815286602085880101111561190357600080fd5b836020870160208301376000602085830101528094505050505092915050565b6000806040838503121561193657600080fd5b823567ffffffffffffffff8082111561194e57600080fd5b61195a86838701611896565b9350602085013591508082111561197057600080fd5b5061197d85828601611896565b9150509250929050565b634e487b7160e01b600052603260045260246000fd5b600181811c908216806119b157607f821691505b6020821081036119d157634e487b7160e01b600052602260045260246000fd5b50919050565b601f821115611a2157600081815260208120601f850160051c810160208610156119fe5750805b601f850160051c820191505b81811015611a1d57828155600101611a0a565b5050505b505050565b815167ffffffffffffffff811115611a4057611a40611880565b611a5481611a4e845461199d565b846119d7565b602080601f831160018114611a895760008415611a715750858301515b600019600386901b1c1916600185901b178555611a1d565b600085815260208120601f198616915b82811015611ab857888601518255948401946001909101908401611a99565b5085821015611ad65787850151600019600388901b60f8161c191681555b5050505050600190811b01905550565b6000602080835260008454611afa8161199d565b80848701526040600180841660008114611b1b5760018114611b3557611b63565b60ff1985168984015283151560051b890183019550611b63565b896000528660002060005b85811015611b5b5781548b8201860152908301908801611b40565b8a0184019650505b509398975050505050505050565b818103611b7c575050565b611b86825461199d565b67ffffffffffffffff811115611b9e57611b9e611880565b611bac81611a4e845461199d565b6000601f821160018114611be05760008315611bc85750848201545b600019600385901b1c1916600184901b178455611c45565b600085815260209020601f19841690600086815260209020845b83811015611c1a5782860154825560019586019590910190602001611bfa565b5085831015611c385781850154600019600388901b60f8161c191681555b50505060018360011b0184555b5050505050565b60008154611c598161199d565b808552602060018381168015611c765760018114611c9057611cbe565b60ff1985168884015283151560051b880183019550611cbe565b866000528260002060005b85811015611cb65781548a8201860152908301908401611c9b565b890184019650505b505050505092915050565b600081548084526020808501808196508360051b81019150856000528260002060005b85811015611d15578284038952611d038483611c4c565b98850198935060019182019101611cec565b5091979650505050505050565b602081526000611d356020830184611cc9565b9392505050565b6000815480845260208085019450836000528060002060005b83811015611d7157815487529582019560019182019101611d55565b509495945050505050565b60208152611d9860208201611d92845460ff1690565b15159052565b6000610100806040840152611db4610120840160018601611c4c565b601f1980858303016060860152611dce8260028801611cc9565b91508085830301608086015250611de88160038701611d3c565b9050611dfe60048601546001600160a01b031690565b6001600160a01b0390811660a08601526005860154811660c0860152600686015460e08601526007909501549094169201919091525090565b634e487b7160e01b600052601160045260246000fd5b81810381811115610ba557610ba5611e37565b600060018201611e7257611e72611e37565b5060010190565b60008251611e8b8184602087016117fb565b919091019291505056fea264697066735822122091a10be14fea5be2ec3d0deb1cfd5d35cfd473127a0cb0633a11e3b71b69f91d64736f6c63430008130033",
					"opcodes": "PUSH1 0x0 PUSH2 0x180 DUP2 DUP2 MSTORE PUSH1 0x1 PUSH2 0x1A0 DUP2 SWAP1 MSTORE PUSH1 0x2 PUSH2 0x1C0 DUP2 SWAP1 MSTORE PUSH1 0x80 SWAP3 DUP4 MSTORE PUSH1 0x3 PUSH2 0x1E0 DUP2 DUP2 MSTORE PUSH1 0x4 PUSH2 0x200 DUP2 SWAP1 MSTORE PUSH1 0x5 PUSH2 0x220 DUP2 SWAP1 MSTORE PUSH1 0xA0 SWAP3 SWAP1 SWAP3 MSTORE PUSH1 0x6 PUSH2 0x240 DUP2 DUP2 MSTORE PUSH1 0x7 PUSH2 0x260 DUP2 SWAP1 MSTORE PUSH1 0x8 PUSH2 0x280 DUP2 SWAP1 MSTORE PUSH1 0xC0 SWAP3 SWAP1 SWAP3 MSTORE PUSH2 0x2A0 DUP11 DUP2 MSTORE PUSH2 0x2C0 SWAP7 SWAP1 SWAP7 MSTORE PUSH2 0x2E0 DUP4 SWAP1 MSTORE PUSH1 0xE0 SWAP6 SWAP1 SWAP6 MSTORE PUSH2 0x300 DUP8 DUP2 MSTORE PUSH2 0x320 DUP5 SWAP1 MSTORE PUSH2 0x340 SWAP6 SWAP1 SWAP6 MSTORE PUSH2 0x100 SWAP5 SWAP1 SWAP5 MSTORE PUSH2 0x360 DUP6 DUP2 MSTORE PUSH2 0x380 SWAP4 SWAP1 SWAP4 MSTORE PUSH2 0x3A0 DUP5 SWAP1 MSTORE PUSH2 0x120 SWAP3 SWAP1 SWAP3 MSTORE PUSH2 0x3C0 SWAP7 DUP8 MSTORE PUSH2 0x3E0 DUP2 SWAP1 MSTORE PUSH2 0x400 DUP4 SWAP1 MSTORE PUSH2 0x140 SWAP7 SWAP1 SWAP7 MSTORE PUSH2 0x480 PUSH1 0x40 MSTORE PUSH2 0x420 SWAP3 DUP4 MSTORE PUSH2 0x440 SWAP6 SWAP1 SWAP6 MSTORE PUSH2 0x460 SWAP5 SWAP1 SWAP5 MSTORE PUSH2 0x160 MSTORE PUSH3 0xEA SWAP3 SWAP1 SWAP2 SWAP1 PUSH3 0xFF JUMP JUMPDEST POP CALLVALUE DUP1 ISZERO PUSH3 0xF8 JUMPI PUSH1 0x0 DUP1 REVERT JUMPDEST POP PUSH3 0x209 JUMP JUMPDEST DUP3 DUP1 SLOAD DUP3 DUP3 SSTORE SWAP1 PUSH1 0x0 MSTORE PUSH1 0x20 PUSH1 0x0 KECCAK256 SWAP1 DUP2 ADD SWAP3 DUP3 ISZERO PUSH3 0x14B JUMPI SWAP2 PUSH1 0x20 MUL DUP3 ADD JUMPDEST DUP3 DUP2 GT ISZERO PUSH3 0x14B JUMPI DUP3 MLOAD PUSH3 0x13A SWAP1 DUP4 SWAP1 PUSH1 0x3 PUSH3 0x15D JUMP JUMPDEST POP SWAP2 PUSH1 0x20 ADD SWAP2 SWAP1 PUSH1 0x1 ADD SWAP1 PUSH3 0x120 JUMP JUMPDEST POP PUSH3 0x159 SWAP3 SWAP2 POP PUSH3 0x1AE JUMP JUMPDEST POP SWAP1 JUMP JUMPDEST DUP3 DUP1 SLOAD DUP3 DUP3 SSTORE SWAP1 PUSH1 0x0 MSTORE PUSH1 0x20 PUSH1 0x0 KECCAK256 SWAP1 DUP2 ADD SWAP3 DUP3 ISZERO PUSH3 0x1A0 JUMPI SWAP2 PUSH1 0x20 MUL DUP3 ADD JUMPDEST DUP3 DUP2 GT ISZERO PUSH3 0x1A0 JUMPI DUP3 MLOAD DUP3 SWAP1 PUSH1 0xFF AND SWAP1 SSTORE SWAP2 PUSH1 0x20 ADD SWAP2 SWAP1 PUSH1 0x1 ADD SWAP1 PUSH3 0x17E JUMP JUMPDEST POP PUSH3 0x159 SWAP3 SWAP2 POP PUSH3 0x1CF JUMP JUMPDEST DUP1 DUP3 GT ISZERO PUSH3 0x159 JUMPI PUSH1 0x0 PUSH3 0x1C5 DUP3 DUP3 PUSH3 0x1E6 JUMP JUMPDEST POP PUSH1 0x1 ADD PUSH3 0x1AE JUMP JUMPDEST JUMPDEST DUP1 DUP3 GT ISZERO PUSH3 0x159 JUMPI PUSH1 0x0 DUP2 SSTORE PUSH1 0x1 ADD PUSH3 0x1D0 JUMP JUMPDEST POP DUP1 SLOAD PUSH1 0x0 DUP3 SSTORE SWAP1 PUSH1 0x0 MSTORE PUSH1 0x20 PUSH1 0x0 KECCAK256 SWAP1 DUP2 ADD SWAP1 PUSH3 0x206 SWAP2 SWAP1 PUSH3 0x1CF JUMP JUMPDEST POP JUMP JUMPDEST PUSH2 0x1ECB DUP1 PUSH3 0x219 PUSH1 0x0 CODECOPY PUSH1 0x0 RETURN INVALID PUSH1 0x80 PUSH1 0x40 MSTORE CALLVALUE DUP1 ISZERO PUSH2 0x10 JUMPI PUSH1 0x0 DUP1 REVERT JUMPDEST POP PUSH1 0x4 CALLDATASIZE LT PUSH2 0x62 JUMPI PUSH1 0x0 CALLDATALOAD PUSH1 0xE0 SHR DUP1 PUSH4 0x4A968391 EQ PUSH2 0x67 JUMPI DUP1 PUSH4 0x52BC3410 EQ PUSH2 0x7C JUMPI DUP1 PUSH4 0x87052FAB EQ PUSH2 0x8F JUMPI DUP1 PUSH4 0x97CA20BF EQ PUSH2 0xBD JUMPI DUP1 PUSH4 0xBED34BBA EQ PUSH2 0xC5 JUMPI DUP1 PUSH4 0xEFAA55A0 EQ PUSH2 0xE8 JUMPI JUMPDEST PUSH1 0x0 DUP1 REVERT JUMPDEST PUSH2 0x7A PUSH2 0x75 CALLDATASIZE PUSH1 0x4 PUSH2 0x17C0 JUMP JUMPDEST PUSH2 0xFB JUMP JUMPDEST STOP JUMPDEST PUSH2 0x7A PUSH2 0x8A CALLDATASIZE PUSH1 0x4 PUSH2 0x17D9 JUMP JUMPDEST PUSH2 0x2A2 JUMP JUMPDEST PUSH2 0xA2 PUSH2 0x9D CALLDATASIZE PUSH1 0x4 PUSH2 0x17C0 JUMP JUMPDEST PUSH2 0x727 JUMP JUMPDEST PUSH1 0x40 MLOAD PUSH2 0xB4 SWAP7 SWAP6 SWAP5 SWAP4 SWAP3 SWAP2 SWAP1 PUSH2 0x181F JUMP JUMPDEST PUSH1 0x40 MLOAD DUP1 SWAP2 SUB SWAP1 RETURN JUMPDEST PUSH2 0x7A PUSH2 0x80A JUMP JUMPDEST PUSH2 0xD8 PUSH2 0xD3 CALLDATASIZE PUSH1 0x4 PUSH2 0x1923 JUMP JUMPDEST PUSH2 0xB51 JUMP JUMPDEST PUSH1 0x40 MLOAD SWAP1 ISZERO ISZERO DUP2 MSTORE PUSH1 0x20 ADD PUSH2 0xB4 JUMP JUMPDEST PUSH2 0x7A PUSH2 0xF6 CALLDATASIZE PUSH1 0x4 PUSH2 0x17C0 JUMP JUMPDEST PUSH2 0xBAB JUMP JUMPDEST PUSH1 0x40 MLOAD DUP1 PUSH1 0x40 ADD PUSH1 0x40 MSTORE DUP1 PUSH1 0x1 DUP2 MSTORE PUSH1 0x20 ADD PUSH1 0xB PUSH1 0xFB SHL DUP2 MSTORE POP PUSH1 0x0 DUP3 DUP2 SLOAD DUP2 LT PUSH2 0x128 JUMPI PUSH2 0x128 PUSH2 0x1987 JUMP JUMPDEST SWAP1 PUSH1 0x0 MSTORE PUSH1 0x20 PUSH1 0x0 KECCAK256 SWAP1 PUSH1 0x8 MUL ADD PUSH1 0x1 ADD SWAP1 DUP2 PUSH2 0x145 SWAP2 SWAP1 PUSH2 0x1A26 JUMP JUMPDEST POP PUSH1 0x40 DUP1 MLOAD PUSH2 0x140 DUP2 ADD DUP3 MSTORE PUSH1 0x0 PUSH2 0x120 DUP3 ADD DUP2 DUP2 MSTORE DUP3 MSTORE DUP3 MLOAD PUSH1 0x20 DUP2 DUP2 ADD DUP6 MSTORE DUP3 DUP3 MSTORE DUP1 DUP5 ADD SWAP2 SWAP1 SWAP2 MSTORE DUP4 MLOAD DUP1 DUP3 ADD DUP6 MSTORE DUP3 DUP2 MSTORE DUP4 DUP6 ADD MSTORE DUP4 MLOAD DUP1 DUP3 ADD DUP6 MSTORE DUP3 DUP2 MSTORE PUSH1 0x60 DUP5 ADD MSTORE DUP4 MLOAD DUP1 DUP3 ADD DUP6 MSTORE DUP3 DUP2 MSTORE PUSH1 0x80 DUP5 ADD MSTORE DUP4 MLOAD DUP1 DUP3 ADD DUP6 MSTORE DUP3 DUP2 MSTORE PUSH1 0xA0 DUP5 ADD MSTORE DUP4 MLOAD DUP1 DUP3 ADD DUP6 MSTORE DUP3 DUP2 MSTORE PUSH1 0xC0 DUP5 ADD MSTORE DUP4 MLOAD DUP1 DUP3 ADD DUP6 MSTORE DUP3 DUP2 MSTORE PUSH1 0xE0 DUP5 ADD MSTORE DUP4 MLOAD SWAP1 DUP2 ADD SWAP1 SWAP4 MSTORE DUP1 DUP4 MSTORE PUSH2 0x100 DUP3 ADD SWAP3 SWAP1 SWAP3 MSTORE DUP2 SLOAD SWAP1 SWAP2 SWAP1 DUP4 SWAP1 DUP2 LT PUSH2 0x1F2 JUMPI PUSH2 0x1F2 PUSH2 0x1987 JUMP JUMPDEST SWAP1 PUSH1 0x0 MSTORE PUSH1 0x20 PUSH1 0x0 KECCAK256 SWAP1 PUSH1 0x8 MUL ADD PUSH1 0x2 ADD SWAP1 PUSH1 0x9 PUSH2 0x211 SWAP3 SWAP2 SWAP1 PUSH2 0x166E JUMP JUMPDEST POP PUSH32 0x12028463284AA79A2CEC858FF157451112ECFF237CDA43248EBB797C814F661C PUSH1 0x0 DUP3 DUP2 SLOAD DUP2 LT PUSH2 0x246 JUMPI PUSH2 0x246 PUSH2 0x1987 JUMP JUMPDEST SWAP1 PUSH1 0x0 MSTORE PUSH1 0x20 PUSH1 0x0 KECCAK256 SWAP1 PUSH1 0x8 MUL ADD PUSH1 0x1 ADD PUSH1 0x40 MLOAD PUSH2 0x264 SWAP2 SWAP1 PUSH2 0x1AE6 JUMP JUMPDEST PUSH1 0x40 MLOAD DUP1 SWAP2 SUB SWAP1 LOG1 PUSH1 0x0 DUP1 DUP3 DUP2 SLOAD DUP2 LT PUSH2 0x280 JUMPI PUSH2 0x280 PUSH2 0x1987 JUMP JUMPDEST PUSH1 0x0 SWAP2 DUP3 MSTORE PUSH1 0x20 SWAP1 SWAP2 KECCAK256 PUSH1 0x8 SWAP1 SWAP2 MUL ADD DUP1 SLOAD PUSH1 0xFF NOT AND SWAP2 ISZERO ISZERO SWAP2 SWAP1 SWAP2 OR SWAP1 SSTORE POP JUMP JUMPDEST PUSH1 0x0 DUP2 DUP2 SLOAD DUP2 LT PUSH2 0x2B5 JUMPI PUSH2 0x2B5 PUSH2 0x1987 JUMP JUMPDEST PUSH1 0x0 SWAP2 DUP3 MSTORE PUSH1 0x20 SWAP1 SWAP2 KECCAK256 PUSH1 0x8 SWAP1 SWAP2 MUL ADD SLOAD PUSH1 0xFF AND PUSH2 0x31A JUMPI PUSH1 0x40 MLOAD PUSH3 0x461BCD PUSH1 0xE5 SHL DUP2 MSTORE PUSH1 0x20 PUSH1 0x4 DUP3 ADD MSTORE PUSH1 0x1C PUSH1 0x24 DUP3 ADD MSTORE PUSH32 0x5468652067616D65207374696C6C206E6F742073746172742079657400000000 PUSH1 0x44 DUP3 ADD MSTORE PUSH1 0x64 ADD JUMPDEST PUSH1 0x40 MLOAD DUP1 SWAP2 SUB SWAP1 REVERT JUMPDEST PUSH2 0x3FA PUSH1 0x0 DUP3 DUP2 SLOAD DUP2 LT PUSH2 0x330 JUMPI PUSH2 0x330 PUSH2 0x1987 JUMP JUMPDEST SWAP1 PUSH1 0x0 MSTORE PUSH1 0x20 PUSH1 0x0 KECCAK256 SWAP1 PUSH1 0x8 MUL ADD PUSH1 0x2 ADD DUP4 DUP2 SLOAD DUP2 LT PUSH2 0x352 JUMPI PUSH2 0x352 PUSH2 0x1987 JUMP JUMPDEST SWAP1 PUSH1 0x0 MSTORE PUSH1 0x20 PUSH1 0x0 KECCAK256 ADD DUP1 SLOAD PUSH2 0x367 SWAP1 PUSH2 0x199D JUMP JUMPDEST DUP1 PUSH1 0x1F ADD PUSH1 0x20 DUP1 SWAP2 DIV MUL PUSH1 0x20 ADD PUSH1 0x40 MLOAD SWAP1 DUP2 ADD PUSH1 0x40 MSTORE DUP1 SWAP3 SWAP2 SWAP1 DUP2 DUP2 MSTORE PUSH1 0x20 ADD DUP3 DUP1 SLOAD PUSH2 0x393 SWAP1 PUSH2 0x199D JUMP JUMPDEST DUP1 ISZERO PUSH2 0x3E0 JUMPI DUP1 PUSH1 0x1F LT PUSH2 0x3B5 JUMPI PUSH2 0x100 DUP1 DUP4 SLOAD DIV MUL DUP4 MSTORE SWAP2 PUSH1 0x20 ADD SWAP2 PUSH2 0x3E0 JUMP JUMPDEST DUP3 ADD SWAP2 SWAP1 PUSH1 0x0 MSTORE PUSH1 0x20 PUSH1 0x0 KECCAK256 SWAP1 JUMPDEST DUP2 SLOAD DUP2 MSTORE SWAP1 PUSH1 0x1 ADD SWAP1 PUSH1 0x20 ADD DUP1 DUP4 GT PUSH2 0x3C3 JUMPI DUP3 SWAP1 SUB PUSH1 0x1F AND DUP3 ADD SWAP2 JUMPDEST POP POP POP POP POP PUSH1 0x40 MLOAD DUP1 PUSH1 0x20 ADD PUSH1 0x40 MSTORE DUP1 PUSH1 0x0 DUP2 MSTORE POP PUSH2 0xB51 JUMP JUMPDEST PUSH2 0x436 JUMPI PUSH1 0x40 MLOAD PUSH3 0x461BCD PUSH1 0xE5 SHL DUP2 MSTORE PUSH1 0x20 PUSH1 0x4 DUP3 ADD MSTORE PUSH1 0xD PUSH1 0x24 DUP3 ADD MSTORE PUSH13 0x125B9D985B1A59081A5B9C1D5D PUSH1 0x9A SHL PUSH1 0x44 DUP3 ADD MSTORE PUSH1 0x64 ADD PUSH2 0x311 JUMP JUMPDEST PUSH2 0x505 PUSH1 0x0 DUP3 DUP2 SLOAD DUP2 LT PUSH2 0x44C JUMPI PUSH2 0x44C PUSH2 0x1987 JUMP JUMPDEST SWAP1 PUSH1 0x0 MSTORE PUSH1 0x20 PUSH1 0x0 KECCAK256 SWAP1 PUSH1 0x8 MUL ADD PUSH1 0x1 ADD DUP1 SLOAD PUSH2 0x468 SWAP1 PUSH2 0x199D JUMP JUMPDEST DUP1 PUSH1 0x1F ADD PUSH1 0x20 DUP1 SWAP2 DIV MUL PUSH1 0x20 ADD PUSH1 0x40 MLOAD SWAP1 DUP2 ADD PUSH1 0x40 MSTORE DUP1 SWAP3 SWAP2 SWAP1 DUP2 DUP2 MSTORE PUSH1 0x20 ADD DUP3 DUP1 SLOAD PUSH2 0x494 SWAP1 PUSH2 0x199D JUMP JUMPDEST DUP1 ISZERO PUSH2 0x4E1 JUMPI DUP1 PUSH1 0x1F LT PUSH2 0x4B6 JUMPI PUSH2 0x100 DUP1 DUP4 SLOAD DIV MUL DUP4 MSTORE SWAP2 PUSH1 0x20 ADD SWAP2 PUSH2 0x4E1 JUMP JUMPDEST DUP3 ADD SWAP2 SWAP1 PUSH1 0x0 MSTORE PUSH1 0x20 PUSH1 0x0 KECCAK256 SWAP1 JUMPDEST DUP2 SLOAD DUP2 MSTORE SWAP1 PUSH1 0x1 ADD SWAP1 PUSH1 0x20 ADD DUP1 DUP4 GT PUSH2 0x4C4 JUMPI DUP3 SWAP1 SUB PUSH1 0x1F AND DUP3 ADD SWAP2 JUMPDEST POP POP POP POP POP PUSH1 0x40 MLOAD DUP1 PUSH1 0x40 ADD PUSH1 0x40 MSTORE DUP1 PUSH1 0x1 DUP2 MSTORE PUSH1 0x20 ADD PUSH1 0xB PUSH1 0xFB SHL DUP2 MSTORE POP PUSH2 0xB51 JUMP JUMPDEST ISZERO PUSH2 0x584 JUMPI PUSH1 0x0 DUP2 DUP2 SLOAD DUP2 LT PUSH2 0x51D JUMPI PUSH2 0x51D PUSH2 0x1987 JUMP JUMPDEST PUSH1 0x0 SWAP2 DUP3 MSTORE PUSH1 0x20 SWAP1 SWAP2 KECCAK256 PUSH1 0x8 SWAP1 SWAP2 MUL ADD PUSH1 0x4 ADD SLOAD PUSH1 0x1 PUSH1 0x1 PUSH1 0xA0 SHL SUB AND CALLER EQ PUSH2 0x57F JUMPI PUSH1 0x40 MLOAD PUSH3 0x461BCD PUSH1 0xE5 SHL DUP2 MSTORE PUSH1 0x20 PUSH1 0x4 DUP3 ADD MSTORE PUSH1 0x14 PUSH1 0x24 DUP3 ADD MSTORE PUSH20 0x596F7520617265206E6F7420706C617965722031 PUSH1 0x60 SHL PUSH1 0x44 DUP3 ADD MSTORE PUSH1 0x64 ADD PUSH2 0x311 JUMP JUMPDEST PUSH2 0x5F9 JUMP JUMPDEST PUSH1 0x0 DUP2 DUP2 SLOAD DUP2 LT PUSH2 0x597 JUMPI PUSH2 0x597 PUSH2 0x1987 JUMP JUMPDEST PUSH1 0x0 SWAP2 DUP3 MSTORE PUSH1 0x20 SWAP1 SWAP2 KECCAK256 PUSH1 0x8 SWAP1 SWAP2 MUL ADD PUSH1 0x5 ADD SLOAD PUSH1 0x1 PUSH1 0x1 PUSH1 0xA0 SHL SUB AND CALLER EQ PUSH2 0x5F9 JUMPI PUSH1 0x40 MLOAD PUSH3 0x461BCD PUSH1 0xE5 SHL DUP2 MSTORE PUSH1 0x20 PUSH1 0x4 DUP3 ADD MSTORE PUSH1 0x14 PUSH1 0x24 DUP3 ADD MSTORE PUSH20 0x2CB7BA9030B932903737BA10383630BCB2B91019 PUSH1 0x61 SHL PUSH1 0x44 DUP3 ADD MSTORE PUSH1 0x64 ADD PUSH2 0x311 JUMP JUMPDEST PUSH1 0x0 DUP2 DUP2 SLOAD DUP2 LT PUSH2 0x60C JUMPI PUSH2 0x60C PUSH2 0x1987 JUMP JUMPDEST SWAP1 PUSH1 0x0 MSTORE PUSH1 0x20 PUSH1 0x0 KECCAK256 SWAP1 PUSH1 0x8 MUL ADD PUSH1 0x1 ADD PUSH1 0x0 DUP3 DUP2 SLOAD DUP2 LT PUSH2 0x630 JUMPI PUSH2 0x630 PUSH2 0x1987 JUMP JUMPDEST SWAP1 PUSH1 0x0 MSTORE PUSH1 0x20 PUSH1 0x0 KECCAK256 SWAP1 PUSH1 0x8 MUL ADD PUSH1 0x2 ADD DUP4 DUP2 SLOAD DUP2 LT PUSH2 0x652 JUMPI PUSH2 0x652 PUSH2 0x1987 JUMP JUMPDEST SWAP1 PUSH1 0x0 MSTORE PUSH1 0x20 PUSH1 0x0 KECCAK256 ADD SWAP1 DUP2 PUSH2 0x668 SWAP2 SWAP1 PUSH2 0x1B71 JUMP JUMPDEST POP PUSH32 0xD77F94CC29111F7DBD8555E9587FC989A0CF9FA417821F33E2F02913794BEBB0 PUSH1 0x0 DUP3 DUP2 SLOAD DUP2 LT PUSH2 0x69D JUMPI PUSH2 0x69D PUSH2 0x1987 JUMP JUMPDEST SWAP1 PUSH1 0x0 MSTORE PUSH1 0x20 PUSH1 0x0 KECCAK256 SWAP1 PUSH1 0x8 MUL ADD PUSH1 0x2 ADD PUSH1 0x40 MLOAD PUSH2 0x6BB SWAP2 SWAP1 PUSH2 0x1D22 JUMP JUMPDEST PUSH1 0x40 MLOAD DUP1 SWAP2 SUB SWAP1 LOG1 PUSH2 0x6CC DUP2 PUSH2 0xE01 JUMP JUMPDEST PUSH32 0x3A370B33C27181A790FF0B30BAC7D21644DF9446C928286F82787E920268A1FC PUSH1 0x0 DUP3 DUP2 SLOAD DUP2 LT PUSH2 0x700 JUMPI PUSH2 0x700 PUSH2 0x1987 JUMP JUMPDEST SWAP1 PUSH1 0x0 MSTORE PUSH1 0x20 PUSH1 0x0 KECCAK256 SWAP1 PUSH1 0x8 MUL ADD PUSH1 0x40 MLOAD PUSH2 0x71B SWAP2 SWAP1 PUSH2 0x1D7C JUMP JUMPDEST PUSH1 0x40 MLOAD DUP1 SWAP2 SUB SWAP1 LOG1 POP POP JUMP JUMPDEST PUSH1 0x0 DUP2 DUP2 SLOAD DUP2 LT PUSH2 0x737 JUMPI PUSH1 0x0 DUP1 REVERT JUMPDEST PUSH1 0x0 SWAP2 DUP3 MSTORE PUSH1 0x20 SWAP1 SWAP2 KECCAK256 PUSH1 0x8 SWAP1 SWAP2 MUL ADD DUP1 SLOAD PUSH1 0x1 DUP3 ADD DUP1 SLOAD PUSH1 0xFF SWAP1 SWAP3 AND SWAP4 POP SWAP1 PUSH2 0x760 SWAP1 PUSH2 0x199D JUMP JUMPDEST DUP1 PUSH1 0x1F ADD PUSH1 0x20 DUP1 SWAP2 DIV MUL PUSH1 0x20 ADD PUSH1 0x40 MLOAD SWAP1 DUP2 ADD PUSH1 0x40 MSTORE DUP1 SWAP3 SWAP2 SWAP1 DUP2 DUP2 MSTORE PUSH1 0x20 ADD DUP3 DUP1 SLOAD PUSH2 0x78C SWAP1 PUSH2 0x199D JUMP JUMPDEST DUP1 ISZERO PUSH2 0x7D9 JUMPI DUP1 PUSH1 0x1F LT PUSH2 0x7AE JUMPI PUSH2 0x100 DUP1 DUP4 SLOAD DIV MUL DUP4 MSTORE SWAP2 PUSH1 0x20 ADD SWAP2 PUSH2 0x7D9 JUMP JUMPDEST DUP3 ADD SWAP2 SWAP1 PUSH1 0x0 MSTORE PUSH1 0x20 PUSH1 0x0 KECCAK256 SWAP1 JUMPDEST DUP2 SLOAD DUP2 MSTORE SWAP1 PUSH1 0x1 ADD SWAP1 PUSH1 0x20 ADD DUP1 DUP4 GT PUSH2 0x7BC JUMPI DUP3 SWAP1 SUB PUSH1 0x1F AND DUP3 ADD SWAP2 JUMPDEST POP POP POP PUSH1 0x4 DUP5 ADD SLOAD PUSH1 0x5 DUP6 ADD SLOAD PUSH1 0x6 DUP7 ADD SLOAD PUSH1 0x7 SWAP1 SWAP7 ADD SLOAD SWAP5 SWAP6 PUSH1 0x1 PUSH1 0x1 PUSH1 0xA0 SHL SUB SWAP3 DUP4 AND SWAP6 SWAP2 DUP4 AND SWAP5 POP SWAP3 POP AND DUP7 JUMP JUMPDEST PUSH2 0x86F PUSH1 0x40 MLOAD DUP1 PUSH2 0x100 ADD PUSH1 0x40 MSTORE DUP1 PUSH1 0x0 ISZERO ISZERO DUP2 MSTORE PUSH1 0x20 ADD PUSH1 0x60 DUP2 MSTORE PUSH1 0x20 ADD PUSH1 0x60 DUP2 MSTORE PUSH1 0x20 ADD PUSH1 0x60 DUP2 MSTORE PUSH1 0x20 ADD PUSH1 0x0 PUSH1 0x1 PUSH1 0x1 PUSH1 0xA0 SHL SUB AND DUP2 MSTORE PUSH1 0x20 ADD PUSH1 0x0 PUSH1 0x1 PUSH1 0x1 PUSH1 0xA0 SHL SUB AND DUP2 MSTORE PUSH1 0x20 ADD PUSH1 0x0 DUP2 MSTORE PUSH1 0x20 ADD PUSH1 0x0 PUSH1 0x1 PUSH1 0x1 PUSH1 0xA0 SHL SUB AND DUP2 MSTORE POP SWAP1 JUMP JUMPDEST PUSH1 0x0 DUP1 SLOAD PUSH1 0x1 DUP2 ADD DUP3 SSTORE SWAP1 DUP1 MSTORE DUP2 MLOAD PUSH32 0x290DECD9548B62A8D60345A988386FC84BA6BC95484008F6362F93160EF3E563 PUSH1 0x8 SWAP1 SWAP3 MUL SWAP2 DUP3 ADD DUP1 SLOAD PUSH1 0xFF NOT AND SWAP2 ISZERO ISZERO SWAP2 SWAP1 SWAP2 OR DUP2 SSTORE PUSH1 0x20 DUP4 ADD MLOAD DUP4 SWAP3 PUSH32 0x290DECD9548B62A8D60345A988386FC84BA6BC95484008F6362F93160EF3E564 ADD SWAP1 PUSH2 0x8EA SWAP1 DUP3 PUSH2 0x1A26 JUMP JUMPDEST POP PUSH1 0x40 DUP3 ADD MLOAD DUP1 MLOAD PUSH2 0x906 SWAP2 PUSH1 0x2 DUP5 ADD SWAP2 PUSH1 0x20 SWAP1 SWAP2 ADD SWAP1 PUSH2 0x16C4 JUMP JUMPDEST POP PUSH1 0x60 DUP3 ADD MLOAD DUP1 MLOAD PUSH2 0x922 SWAP2 PUSH1 0x3 DUP5 ADD SWAP2 PUSH1 0x20 SWAP1 SWAP2 ADD SWAP1 PUSH2 0x170A JUMP JUMPDEST POP PUSH1 0x80 DUP3 ADD MLOAD PUSH1 0x4 DUP3 ADD DUP1 SLOAD PUSH1 0x1 PUSH1 0x1 PUSH1 0xA0 SHL SUB NOT SWAP1 DUP2 AND PUSH1 0x1 PUSH1 0x1 PUSH1 0xA0 SHL SUB SWAP4 DUP5 AND OR SWAP1 SWAP2 SSTORE PUSH1 0xA0 DUP5 ADD MLOAD PUSH1 0x5 DUP5 ADD DUP1 SLOAD DUP4 AND SWAP2 DUP5 AND SWAP2 SWAP1 SWAP2 OR SWAP1 SSTORE PUSH1 0xC0 DUP5 ADD MLOAD PUSH1 0x6 DUP5 ADD SSTORE PUSH1 0xE0 SWAP1 SWAP4 ADD MLOAD PUSH1 0x7 SWAP1 SWAP3 ADD DUP1 SLOAD SWAP1 SWAP4 AND SWAP2 AND OR SWAP1 SSTORE PUSH1 0x0 DUP1 SLOAD SWAP1 CALLER SWAP1 PUSH2 0x990 PUSH1 0x1 DUP5 PUSH2 0x1E4D JUMP JUMPDEST DUP2 SLOAD DUP2 LT PUSH2 0x9A0 JUMPI PUSH2 0x9A0 PUSH2 0x1987 JUMP JUMPDEST PUSH1 0x0 SWAP2 DUP3 MSTORE PUSH1 0x20 DUP3 KECCAK256 PUSH1 0x8 SWAP2 SWAP1 SWAP2 MUL ADD PUSH1 0x4 ADD DUP1 SLOAD PUSH1 0x1 PUSH1 0x1 PUSH1 0xA0 SHL SUB NOT AND PUSH1 0x1 PUSH1 0x1 PUSH1 0xA0 SHL SUB SWAP4 SWAP1 SWAP4 AND SWAP3 SWAP1 SWAP3 OR SWAP1 SWAP2 SSTORE DUP1 PUSH2 0x9DE PUSH1 0x1 DUP5 PUSH2 0x1E4D JUMP JUMPDEST DUP2 SLOAD DUP2 LT PUSH2 0x9EE JUMPI PUSH2 0x9EE PUSH2 0x1987 JUMP JUMPDEST PUSH1 0x0 SWAP2 DUP3 MSTORE PUSH1 0x20 DUP3 KECCAK256 PUSH1 0x8 SWAP2 SWAP1 SWAP2 MUL ADD DUP1 SLOAD PUSH1 0xFF NOT AND SWAP3 ISZERO ISZERO SWAP3 SWAP1 SWAP3 OR SWAP1 SWAP2 SSTORE PUSH1 0x1 SWAP1 PUSH2 0xA1B DUP3 DUP5 PUSH2 0x1E4D JUMP JUMPDEST DUP2 SLOAD DUP2 LT PUSH2 0xA2B JUMPI PUSH2 0xA2B PUSH2 0x1987 JUMP JUMPDEST SWAP1 PUSH1 0x0 MSTORE PUSH1 0x20 PUSH1 0x0 KECCAK256 SWAP1 PUSH1 0x8 MUL ADD PUSH1 0x6 ADD DUP2 SWAP1 SSTORE POP PUSH1 0x40 MLOAD DUP1 PUSH1 0x40 ADD PUSH1 0x40 MSTORE DUP1 PUSH1 0x1 DUP2 MSTORE PUSH1 0x20 ADD PUSH1 0xB PUSH1 0xFB SHL DUP2 MSTORE POP PUSH1 0x0 PUSH1 0x1 DUP4 PUSH2 0xA69 SWAP2 SWAP1 PUSH2 0x1E4D JUMP JUMPDEST DUP2 SLOAD DUP2 LT PUSH2 0xA79 JUMPI PUSH2 0xA79 PUSH2 0x1987 JUMP JUMPDEST SWAP1 PUSH1 0x0 MSTORE PUSH1 0x20 PUSH1 0x0 KECCAK256 SWAP1 PUSH1 0x8 MUL ADD PUSH1 0x1 ADD SWAP1 DUP2 PUSH2 0xA96 SWAP2 SWAP1 PUSH2 0x1A26 JUMP JUMPDEST POP PUSH1 0x0 JUMPDEST PUSH1 0x9 DUP2 LT ISZERO PUSH2 0xB12 JUMPI PUSH1 0x0 PUSH2 0xAB0 PUSH1 0x1 DUP5 PUSH2 0x1E4D JUMP JUMPDEST DUP2 SLOAD DUP2 LT PUSH2 0xAC0 JUMPI PUSH2 0xAC0 PUSH2 0x1987 JUMP JUMPDEST PUSH1 0x0 SWAP2 DUP3 MSTORE PUSH1 0x20 DUP1 DUP4 KECCAK256 PUSH1 0x2 PUSH1 0x8 SWAP1 SWAP4 MUL ADD SWAP2 SWAP1 SWAP2 ADD DUP1 SLOAD PUSH1 0x1 DUP2 ADD DUP3 SSTORE SWAP1 DUP4 MSTORE DUP2 DUP4 KECCAK256 PUSH1 0x40 DUP1 MLOAD SWAP4 DUP5 ADD SWAP1 MSTORE SWAP3 DUP3 MSTORE SWAP2 SWAP1 SWAP2 ADD SWAP1 PUSH2 0xAFF SWAP1 DUP3 PUSH2 0x1A26 JUMP JUMPDEST POP DUP1 PUSH2 0xB0A DUP2 PUSH2 0x1E60 JUMP JUMPDEST SWAP2 POP POP PUSH2 0xA9A JUMP JUMPDEST POP PUSH32 0x3A370B33C27181A790FF0B30BAC7D21644DF9446C928286F82787E920268A1FC PUSH1 0x0 PUSH2 0xB41 PUSH1 0x1 DUP5 PUSH2 0x1E4D JUMP JUMPDEST DUP2 SLOAD DUP2 LT PUSH2 0x700 JUMPI PUSH2 0x700 PUSH2 0x1987 JUMP JUMPDEST PUSH1 0x0 DUP2 PUSH1 0x40 MLOAD PUSH1 0x20 ADD PUSH2 0xB64 SWAP2 SWAP1 PUSH2 0x1E79 JUMP JUMPDEST PUSH1 0x40 MLOAD PUSH1 0x20 DUP2 DUP4 SUB SUB DUP2 MSTORE SWAP1 PUSH1 0x40 MSTORE DUP1 MLOAD SWAP1 PUSH1 0x20 ADD KECCAK256 DUP4 PUSH1 0x40 MLOAD PUSH1 0x20 ADD PUSH2 0xB8B SWAP2 SWAP1 PUSH2 0x1E79 JUMP JUMPDEST PUSH1 0x40 MLOAD PUSH1 0x20 DUP2 DUP4 SUB SUB DUP2 MSTORE SWAP1 PUSH1 0x40 MSTORE DUP1 MLOAD SWAP1 PUSH1 0x20 ADD KECCAK256 EQ SWAP1 POP JUMPDEST SWAP3 SWAP2 POP POP JUMP JUMPDEST PUSH1 0x0 DUP2 DUP2 SLOAD DUP2 LT PUSH2 0xBBE JUMPI PUSH2 0xBBE PUSH2 0x1987 JUMP JUMPDEST SWAP1 PUSH1 0x0 MSTORE PUSH1 0x20 PUSH1 0x0 KECCAK256 SWAP1 PUSH1 0x8 MUL ADD PUSH1 0x6 ADD SLOAD PUSH1 0x1 SUB PUSH2 0xD0D JUMPI PUSH1 0x0 DUP2 DUP2 SLOAD DUP2 LT PUSH2 0xBEA JUMPI PUSH2 0xBEA PUSH2 0x1987 JUMP JUMPDEST PUSH1 0x0 SWAP2 DUP3 MSTORE PUSH1 0x20 SWAP1 SWAP2 KECCAK256 PUSH1 0x4 PUSH1 0x8 SWAP1 SWAP3 MUL ADD ADD SLOAD PUSH1 0x1 PUSH1 0x1 PUSH1 0xA0 SHL SUB AND CALLER SUB PUSH2 0xC61 JUMPI PUSH1 0x40 MLOAD PUSH3 0x461BCD PUSH1 0xE5 SHL DUP2 MSTORE PUSH1 0x20 PUSH1 0x4 DUP3 ADD MSTORE PUSH1 0x24 DUP1 DUP3 ADD MSTORE PUSH32 0x4572726F723A20596F752063616E6E6F7420706C6179207769746820796F7572 PUSH1 0x44 DUP3 ADD MSTORE PUSH4 0x39B2B633 PUSH1 0xE1 SHL PUSH1 0x64 DUP3 ADD MSTORE PUSH1 0x84 ADD PUSH2 0x311 JUMP JUMPDEST CALLER PUSH1 0x0 DUP3 DUP2 SLOAD DUP2 LT PUSH2 0xC75 JUMPI PUSH2 0xC75 PUSH2 0x1987 JUMP JUMPDEST SWAP1 PUSH1 0x0 MSTORE PUSH1 0x20 PUSH1 0x0 KECCAK256 SWAP1 PUSH1 0x8 MUL ADD PUSH1 0x5 ADD PUSH1 0x0 PUSH2 0x100 EXP DUP2 SLOAD DUP2 PUSH1 0x1 PUSH1 0x1 PUSH1 0xA0 SHL SUB MUL NOT AND SWAP1 DUP4 PUSH1 0x1 PUSH1 0x1 PUSH1 0xA0 SHL SUB AND MUL OR SWAP1 SSTORE POP PUSH1 0x2 PUSH1 0x0 DUP3 DUP2 SLOAD DUP2 LT PUSH2 0xCBF JUMPI PUSH2 0xCBF PUSH2 0x1987 JUMP JUMPDEST SWAP1 PUSH1 0x0 MSTORE PUSH1 0x20 PUSH1 0x0 KECCAK256 SWAP1 PUSH1 0x8 MUL ADD PUSH1 0x6 ADD DUP2 SWAP1 SSTORE POP PUSH1 0x1 PUSH1 0x0 DUP3 DUP2 SLOAD DUP2 LT PUSH2 0xCE9 JUMPI PUSH2 0xCE9 PUSH2 0x1987 JUMP JUMPDEST PUSH1 0x0 SWAP2 DUP3 MSTORE PUSH1 0x20 SWAP1 SWAP2 KECCAK256 PUSH1 0x8 SWAP1 SWAP2 MUL ADD DUP1 SLOAD PUSH1 0xFF NOT AND SWAP2 ISZERO ISZERO SWAP2 SWAP1 SWAP2 OR SWAP1 SSTORE PUSH2 0xDA7 JUMP JUMPDEST PUSH1 0x0 DUP2 DUP2 SLOAD DUP2 LT PUSH2 0xD20 JUMPI PUSH2 0xD20 PUSH2 0x1987 JUMP JUMPDEST SWAP1 PUSH1 0x0 MSTORE PUSH1 0x20 PUSH1 0x0 KECCAK256 SWAP1 PUSH1 0x8 MUL ADD PUSH1 0x6 ADD SLOAD PUSH1 0x2 EQ PUSH2 0xDA7 JUMPI PUSH1 0x40 MLOAD PUSH3 0x461BCD PUSH1 0xE5 SHL DUP2 MSTORE PUSH1 0x20 PUSH1 0x4 DUP3 ADD MSTORE PUSH1 0x3E PUSH1 0x24 DUP3 ADD MSTORE PUSH32 0x4E6F772071756575652069732066756C6C2C20747279206C617465722E204761 PUSH1 0x44 DUP3 ADD MSTORE PUSH32 0x6D6520616C72656164792066756C6C20706C73206A6F696E206F746865720000 PUSH1 0x64 DUP3 ADD MSTORE PUSH1 0x84 ADD PUSH2 0x311 JUMP JUMPDEST PUSH32 0x3A370B33C27181A790FF0B30BAC7D21644DF9446C928286F82787E920268A1FC PUSH1 0x0 DUP3 DUP2 SLOAD DUP2 LT PUSH2 0xDDB JUMPI PUSH2 0xDDB PUSH2 0x1987 JUMP JUMPDEST SWAP1 PUSH1 0x0 MSTORE PUSH1 0x20 PUSH1 0x0 KECCAK256 SWAP1 PUSH1 0x8 MUL ADD PUSH1 0x40 MLOAD PUSH2 0xDF6 SWAP2 SWAP1 PUSH2 0x1D7C JUMP JUMPDEST PUSH1 0x40 MLOAD DUP1 SWAP2 SUB SWAP1 LOG1 POP JUMP JUMPDEST PUSH1 0x0 DUP1 JUMPDEST PUSH1 0x1 SLOAD DUP2 LT ISZERO PUSH2 0x1325 JUMPI PUSH1 0x0 PUSH1 0x1 DUP3 DUP2 SLOAD DUP2 LT PUSH2 0xE24 JUMPI PUSH2 0xE24 PUSH2 0x1987 JUMP JUMPDEST SWAP1 PUSH1 0x0 MSTORE PUSH1 0x20 PUSH1 0x0 KECCAK256 ADD DUP1 SLOAD DUP1 PUSH1 0x20 MUL PUSH1 0x20 ADD PUSH1 0x40 MLOAD SWAP1 DUP2 ADD PUSH1 0x40 MSTORE DUP1 SWAP3 SWAP2 SWAP1 DUP2 DUP2 MSTORE PUSH1 0x20 ADD DUP3 DUP1 SLOAD DUP1 ISZERO PUSH2 0xE78 JUMPI PUSH1 0x20 MUL DUP3 ADD SWAP2 SWAP1 PUSH1 0x0 MSTORE PUSH1 0x20 PUSH1 0x0 KECCAK256 SWAP1 JUMPDEST DUP2 SLOAD DUP2 MSTORE PUSH1 0x20 ADD SWAP1 PUSH1 0x1 ADD SWAP1 DUP1 DUP4 GT PUSH2 0xE64 JUMPI JUMPDEST POP POP POP POP POP SWAP1 POP PUSH1 0x0 DUP1 DUP6 DUP2 SLOAD DUP2 LT PUSH2 0xE93 JUMPI PUSH2 0xE93 PUSH2 0x1987 JUMP JUMPDEST SWAP1 PUSH1 0x0 MSTORE PUSH1 0x20 PUSH1 0x0 KECCAK256 SWAP1 PUSH1 0x8 MUL ADD PUSH1 0x2 ADD DUP3 PUSH1 0x0 DUP2 MLOAD DUP2 LT PUSH2 0xEB7 JUMPI PUSH2 0xEB7 PUSH2 0x1987 JUMP JUMPDEST PUSH1 0x20 MUL PUSH1 0x20 ADD ADD MLOAD DUP2 SLOAD DUP2 LT PUSH2 0xECF JUMPI PUSH2 0xECF PUSH2 0x1987 JUMP JUMPDEST SWAP1 PUSH1 0x0 MSTORE PUSH1 0x20 PUSH1 0x0 KECCAK256 ADD DUP1 SLOAD PUSH2 0xEE4 SWAP1 PUSH2 0x199D JUMP JUMPDEST DUP1 PUSH1 0x1F ADD PUSH1 0x20 DUP1 SWAP2 DIV MUL PUSH1 0x20 ADD PUSH1 0x40 MLOAD SWAP1 DUP2 ADD PUSH1 0x40 MSTORE DUP1 SWAP3 SWAP2 SWAP1 DUP2 DUP2 MSTORE PUSH1 0x20 ADD DUP3 DUP1 SLOAD PUSH2 0xF10 SWAP1 PUSH2 0x199D JUMP JUMPDEST DUP1 ISZERO PUSH2 0xF5D JUMPI DUP1 PUSH1 0x1F LT PUSH2 0xF32 JUMPI PUSH2 0x100 DUP1 DUP4 SLOAD DIV MUL DUP4 MSTORE SWAP2 PUSH1 0x20 ADD SWAP2 PUSH2 0xF5D JUMP JUMPDEST DUP3 ADD SWAP2 SWAP1 PUSH1 0x0 MSTORE PUSH1 0x20 PUSH1 0x0 KECCAK256 SWAP1 JUMPDEST DUP2 SLOAD DUP2 MSTORE SWAP1 PUSH1 0x1 ADD SWAP1 PUSH1 0x20 ADD DUP1 DUP4 GT PUSH2 0xF40 JUMPI DUP3 SWAP1 SUB PUSH1 0x1F AND DUP3 ADD SWAP2 JUMPDEST POP POP POP POP POP SWAP1 POP PUSH1 0x0 DUP1 DUP7 DUP2 SLOAD DUP2 LT PUSH2 0xF78 JUMPI PUSH2 0xF78 PUSH2 0x1987 JUMP JUMPDEST SWAP1 PUSH1 0x0 MSTORE PUSH1 0x20 PUSH1 0x0 KECCAK256 SWAP1 PUSH1 0x8 MUL ADD PUSH1 0x2 ADD DUP4 PUSH1 0x1 DUP2 MLOAD DUP2 LT PUSH2 0xF9C JUMPI PUSH2 0xF9C PUSH2 0x1987 JUMP JUMPDEST PUSH1 0x20 MUL PUSH1 0x20 ADD ADD MLOAD DUP2 SLOAD DUP2 LT PUSH2 0xFB4 JUMPI PUSH2 0xFB4 PUSH2 0x1987 JUMP JUMPDEST SWAP1 PUSH1 0x0 MSTORE PUSH1 0x20 PUSH1 0x0 KECCAK256 ADD DUP1 SLOAD PUSH2 0xFC9 SWAP1 PUSH2 0x199D JUMP JUMPDEST DUP1 PUSH1 0x1F ADD PUSH1 0x20 DUP1 SWAP2 DIV MUL PUSH1 0x20 ADD PUSH1 0x40 MLOAD SWAP1 DUP2 ADD PUSH1 0x40 MSTORE DUP1 SWAP3 SWAP2 SWAP1 DUP2 DUP2 MSTORE PUSH1 0x20 ADD DUP3 DUP1 SLOAD PUSH2 0xFF5 SWAP1 PUSH2 0x199D JUMP JUMPDEST DUP1 ISZERO PUSH2 0x1042 JUMPI DUP1 PUSH1 0x1F LT PUSH2 0x1017 JUMPI PUSH2 0x100 DUP1 DUP4 SLOAD DIV MUL DUP4 MSTORE SWAP2 PUSH1 0x20 ADD SWAP2 PUSH2 0x1042 JUMP JUMPDEST DUP3 ADD SWAP2 SWAP1 PUSH1 0x0 MSTORE PUSH1 0x20 PUSH1 0x0 KECCAK256 SWAP1 JUMPDEST DUP2 SLOAD DUP2 MSTORE SWAP1 PUSH1 0x1 ADD SWAP1 PUSH1 0x20 ADD DUP1 DUP4 GT PUSH2 0x1025 JUMPI DUP3 SWAP1 SUB PUSH1 0x1F AND DUP3 ADD SWAP2 JUMPDEST POP POP POP POP POP SWAP1 POP PUSH1 0x0 DUP1 DUP8 DUP2 SLOAD DUP2 LT PUSH2 0x105D JUMPI PUSH2 0x105D PUSH2 0x1987 JUMP JUMPDEST SWAP1 PUSH1 0x0 MSTORE PUSH1 0x20 PUSH1 0x0 KECCAK256 SWAP1 PUSH1 0x8 MUL ADD PUSH1 0x2 ADD DUP5 PUSH1 0x2 DUP2 MLOAD DUP2 LT PUSH2 0x1081 JUMPI PUSH2 0x1081 PUSH2 0x1987 JUMP JUMPDEST PUSH1 0x20 MUL PUSH1 0x20 ADD ADD MLOAD DUP2 SLOAD DUP2 LT PUSH2 0x1099 JUMPI PUSH2 0x1099 PUSH2 0x1987 JUMP JUMPDEST SWAP1 PUSH1 0x0 MSTORE PUSH1 0x20 PUSH1 0x0 KECCAK256 ADD DUP1 SLOAD PUSH2 0x10AE SWAP1 PUSH2 0x199D JUMP JUMPDEST DUP1 PUSH1 0x1F ADD PUSH1 0x20 DUP1 SWAP2 DIV MUL PUSH1 0x20 ADD PUSH1 0x40 MLOAD SWAP1 DUP2 ADD PUSH1 0x40 MSTORE DUP1 SWAP3 SWAP2 SWAP1 DUP2 DUP2 MSTORE PUSH1 0x20 ADD DUP3 DUP1 SLOAD PUSH2 0x10DA SWAP1 PUSH2 0x199D JUMP JUMPDEST DUP1 ISZERO PUSH2 0x1127 JUMPI DUP1 PUSH1 0x1F LT PUSH2 0x10FC JUMPI PUSH2 0x100 DUP1 DUP4 SLOAD DIV MUL DUP4 MSTORE SWAP2 PUSH1 0x20 ADD SWAP2 PUSH2 0x1127 JUMP JUMPDEST DUP3 ADD SWAP2 SWAP1 PUSH1 0x0 MSTORE PUSH1 0x20 PUSH1 0x0 KECCAK256 SWAP1 JUMPDEST DUP2 SLOAD DUP2 MSTORE SWAP1 PUSH1 0x1 ADD SWAP1 PUSH1 0x20 ADD DUP1 DUP4 GT PUSH2 0x110A JUMPI DUP3 SWAP1 SUB PUSH1 0x1F AND DUP3 ADD SWAP2 JUMPDEST POP POP POP POP POP SWAP1 POP PUSH2 0x1147 DUP4 PUSH1 0x40 MLOAD DUP1 PUSH1 0x20 ADD PUSH1 0x40 MSTORE DUP1 PUSH1 0x0 DUP2 MSTORE POP PUSH2 0xB51 JUMP JUMPDEST DUP1 PUSH2 0x1166 JUMPI POP PUSH2 0x1166 DUP3 PUSH1 0x40 MLOAD DUP1 PUSH1 0x20 ADD PUSH1 0x40 MSTORE DUP1 PUSH1 0x0 DUP2 MSTORE POP PUSH2 0xB51 JUMP JUMPDEST DUP1 PUSH2 0x1185 JUMPI POP PUSH2 0x1185 DUP2 PUSH1 0x40 MLOAD DUP1 PUSH1 0x20 ADD PUSH1 0x40 MSTORE DUP1 PUSH1 0x0 DUP2 MSTORE POP PUSH2 0xB51 JUMP JUMPDEST ISZERO PUSH2 0x1193 JUMPI POP POP POP POP PUSH2 0x1313 JUMP JUMPDEST PUSH2 0x119D DUP4 DUP4 PUSH2 0xB51 JUMP JUMPDEST DUP1 ISZERO PUSH2 0x11AE JUMPI POP PUSH2 0x11AE DUP3 DUP3 PUSH2 0xB51 JUMP JUMPDEST ISZERO PUSH2 0x130E JUMPI DUP4 PUSH1 0x0 DUP9 DUP2 SLOAD DUP2 LT PUSH2 0x11C7 JUMPI PUSH2 0x11C7 PUSH2 0x1987 JUMP JUMPDEST SWAP1 PUSH1 0x0 MSTORE PUSH1 0x20 PUSH1 0x0 KECCAK256 SWAP1 PUSH1 0x8 MUL ADD PUSH1 0x3 ADD SWAP1 DUP1 MLOAD SWAP1 PUSH1 0x20 ADD SWAP1 PUSH2 0x11EB SWAP3 SWAP2 SWAP1 PUSH2 0x170A JUMP JUMPDEST POP PUSH2 0x1202 PUSH1 0x0 DUP9 DUP2 SLOAD DUP2 LT PUSH2 0x44C JUMPI PUSH2 0x44C PUSH2 0x1987 JUMP JUMPDEST ISZERO PUSH2 0x1286 JUMPI PUSH1 0x0 DUP8 DUP2 SLOAD DUP2 LT PUSH2 0x121A JUMPI PUSH2 0x121A PUSH2 0x1987 JUMP JUMPDEST PUSH1 0x0 SWAP2 DUP3 MSTORE PUSH1 0x20 DUP3 KECCAK256 PUSH1 0x4 PUSH1 0x8 SWAP1 SWAP3 MUL ADD ADD SLOAD DUP2 SLOAD PUSH1 0x1 PUSH1 0x1 PUSH1 0xA0 SHL SUB SWAP1 SWAP2 AND SWAP2 SWAP1 DUP10 SWAP1 DUP2 LT PUSH2 0x124C JUMPI PUSH2 0x124C PUSH2 0x1987 JUMP JUMPDEST SWAP1 PUSH1 0x0 MSTORE PUSH1 0x20 PUSH1 0x0 KECCAK256 SWAP1 PUSH1 0x8 MUL ADD PUSH1 0x7 ADD PUSH1 0x0 PUSH2 0x100 EXP DUP2 SLOAD DUP2 PUSH1 0x1 PUSH1 0x1 PUSH1 0xA0 SHL SUB MUL NOT AND SWAP1 DUP4 PUSH1 0x1 PUSH1 0x1 PUSH1 0xA0 SHL SUB AND MUL OR SWAP1 SSTORE POP PUSH2 0x1301 JUMP JUMPDEST PUSH1 0x0 DUP8 DUP2 SLOAD DUP2 LT PUSH2 0x1299 JUMPI PUSH2 0x1299 PUSH2 0x1987 JUMP JUMPDEST PUSH1 0x0 SWAP2 DUP3 MSTORE PUSH1 0x20 DUP3 KECCAK256 PUSH1 0x5 PUSH1 0x8 SWAP1 SWAP3 MUL ADD ADD SLOAD DUP2 SLOAD PUSH1 0x1 PUSH1 0x1 PUSH1 0xA0 SHL SUB SWAP1 SWAP2 AND SWAP2 SWAP1 DUP10 SWAP1 DUP2 LT PUSH2 0x12CB JUMPI PUSH2 0x12CB PUSH2 0x1987 JUMP JUMPDEST SWAP1 PUSH1 0x0 MSTORE PUSH1 0x20 PUSH1 0x0 KECCAK256 SWAP1 PUSH1 0x8 MUL ADD PUSH1 0x7 ADD PUSH1 0x0 PUSH2 0x100 EXP DUP2 SLOAD DUP2 PUSH1 0x1 PUSH1 0x1 PUSH1 0xA0 SHL SUB MUL NOT AND SWAP1 DUP4 PUSH1 0x1 PUSH1 0x1 PUSH1 0xA0 SHL SUB AND MUL OR SWAP1 SSTORE POP JUMPDEST PUSH1 0x1 SWAP6 POP POP POP POP POP PUSH2 0x1325 JUMP JUMPDEST POP POP POP POP JUMPDEST DUP1 PUSH2 0x131D DUP2 PUSH2 0x1E60 JUMP JUMPDEST SWAP2 POP POP PUSH2 0xE05 JUMP JUMPDEST POP DUP1 ISZERO PUSH2 0x13BD JUMPI PUSH32 0xCDE5C32C0A45FD8AA4B65EA8003FC9DA9ACD5E2C6C24A9FCCE6AB79CABBD9122 PUSH1 0x0 DUP4 DUP2 SLOAD DUP2 LT PUSH2 0x1360 JUMPI PUSH2 0x1360 PUSH2 0x1987 JUMP JUMPDEST SWAP1 PUSH1 0x0 MSTORE PUSH1 0x20 PUSH1 0x0 KECCAK256 SWAP1 PUSH1 0x8 MUL ADD PUSH1 0x1 ADD PUSH1 0x40 MLOAD PUSH2 0x137E SWAP2 SWAP1 PUSH2 0x1AE6 JUMP JUMPDEST PUSH1 0x40 MLOAD DUP1 SWAP2 SUB SWAP1 LOG1 PUSH1 0x0 DUP1 DUP4 DUP2 SLOAD DUP2 LT PUSH2 0x139A JUMPI PUSH2 0x139A PUSH2 0x1987 JUMP JUMPDEST PUSH1 0x0 SWAP2 DUP3 MSTORE PUSH1 0x20 SWAP1 SWAP2 KECCAK256 PUSH1 0x8 SWAP1 SWAP2 MUL ADD DUP1 SLOAD PUSH1 0xFF NOT AND SWAP2 ISZERO ISZERO SWAP2 SWAP1 SWAP2 OR SWAP1 SSTORE POP POP JUMP JUMPDEST PUSH2 0x13C6 DUP3 PUSH2 0x141E JUMP JUMPDEST ISZERO PUSH2 0x1411 JUMPI PUSH32 0xCDE5C32C0A45FD8AA4B65EA8003FC9DA9ACD5E2C6C24A9FCCE6AB79CABBD9122 PUSH1 0x40 MLOAD PUSH2 0x137E SWAP1 PUSH1 0x20 DUP1 DUP3 MSTORE PUSH1 0x4 SWAP1 DUP3 ADD MSTORE PUSH4 0x44726177 PUSH1 0xE0 SHL PUSH1 0x40 DUP3 ADD MSTORE PUSH1 0x60 ADD SWAP1 JUMP JUMPDEST PUSH2 0x141A DUP3 PUSH2 0x14B2 JUMP JUMPDEST POP POP JUMP JUMPDEST PUSH1 0x0 DUP1 JUMPDEST PUSH1 0x0 DUP4 DUP2 SLOAD DUP2 LT PUSH2 0x1435 JUMPI PUSH2 0x1435 PUSH2 0x1987 JUMP JUMPDEST SWAP1 PUSH1 0x0 MSTORE PUSH1 0x20 PUSH1 0x0 KECCAK256 SWAP1 PUSH1 0x8 MUL ADD PUSH1 0x2 ADD DUP1 SLOAD SWAP1 POP DUP2 LT ISZERO PUSH2 0x14A9 JUMPI PUSH2 0x1489 PUSH1 0x0 DUP5 DUP2 SLOAD DUP2 LT PUSH2 0x1467 JUMPI PUSH2 0x1467 PUSH2 0x1987 JUMP JUMPDEST SWAP1 PUSH1 0x0 MSTORE PUSH1 0x20 PUSH1 0x0 KECCAK256 SWAP1 PUSH1 0x8 MUL ADD PUSH1 0x2 ADD DUP3 DUP2 SLOAD DUP2 LT PUSH2 0x352 JUMPI PUSH2 0x352 PUSH2 0x1987 JUMP JUMPDEST ISZERO PUSH2 0x1497 JUMPI POP PUSH1 0x0 SWAP3 SWAP2 POP POP JUMP JUMPDEST DUP1 PUSH2 0x14A1 DUP2 PUSH2 0x1E60 JUMP JUMPDEST SWAP2 POP POP PUSH2 0x1422 JUMP JUMPDEST POP PUSH1 0x1 SWAP3 SWAP2 POP POP JUMP JUMPDEST PUSH2 0x14C8 PUSH1 0x0 DUP3 DUP2 SLOAD DUP2 LT PUSH2 0x44C JUMPI PUSH2 0x44C PUSH2 0x1987 JUMP JUMPDEST ISZERO PUSH2 0x1534 JUMPI PUSH32 0xEC121DEBAB367DC6FC2DA219EF2D5CF4E97E648E71F3A199511CF3B4D7D59304 PUSH1 0x0 DUP3 DUP2 SLOAD DUP2 LT PUSH2 0x1501 JUMPI PUSH2 0x1501 PUSH2 0x1987 JUMP JUMPDEST PUSH1 0x0 SWAP2 DUP3 MSTORE PUSH1 0x20 SWAP2 DUP3 SWAP1 KECCAK256 PUSH1 0x8 SWAP1 SWAP2 MUL ADD PUSH1 0x5 ADD SLOAD PUSH1 0x40 MLOAD PUSH1 0x1 PUSH1 0x1 PUSH1 0xA0 SHL SUB SWAP1 SWAP2 AND DUP2 MSTORE ADD PUSH1 0x40 MLOAD DUP1 SWAP2 SUB SWAP1 LOG1 PUSH2 0x1597 JUMP JUMPDEST PUSH32 0xEC121DEBAB367DC6FC2DA219EF2D5CF4E97E648E71F3A199511CF3B4D7D59304 PUSH1 0x0 DUP3 DUP2 SLOAD DUP2 LT PUSH2 0x1568 JUMPI PUSH2 0x1568 PUSH2 0x1987 JUMP JUMPDEST PUSH1 0x0 SWAP2 DUP3 MSTORE PUSH1 0x20 SWAP2 DUP3 SWAP1 KECCAK256 PUSH1 0x8 SWAP1 SWAP2 MUL ADD PUSH1 0x4 ADD SLOAD PUSH1 0x40 MLOAD PUSH1 0x1 PUSH1 0x1 PUSH1 0xA0 SHL SUB SWAP1 SWAP2 AND DUP2 MSTORE ADD PUSH1 0x40 MLOAD DUP1 SWAP2 SUB SWAP1 LOG1 JUMPDEST PUSH2 0x15AD PUSH1 0x0 DUP3 DUP2 SLOAD DUP2 LT PUSH2 0x44C JUMPI PUSH2 0x44C PUSH2 0x1987 JUMP JUMPDEST PUSH2 0x15D0 JUMPI PUSH1 0x40 MLOAD DUP1 PUSH1 0x40 ADD PUSH1 0x40 MSTORE DUP1 PUSH1 0x1 DUP2 MSTORE PUSH1 0x20 ADD PUSH1 0xB PUSH1 0xFB SHL DUP2 MSTORE POP PUSH2 0x15EB JUMP JUMPDEST PUSH1 0x40 MLOAD DUP1 PUSH1 0x40 ADD PUSH1 0x40 MSTORE DUP1 PUSH1 0x1 DUP2 MSTORE PUSH1 0x20 ADD PUSH1 0x4F PUSH1 0xF8 SHL DUP2 MSTORE POP JUMPDEST PUSH1 0x0 DUP3 DUP2 SLOAD DUP2 LT PUSH2 0x15FE JUMPI PUSH2 0x15FE PUSH2 0x1987 JUMP JUMPDEST SWAP1 PUSH1 0x0 MSTORE PUSH1 0x20 PUSH1 0x0 KECCAK256 SWAP1 PUSH1 0x8 MUL ADD PUSH1 0x1 ADD SWAP1 DUP2 PUSH2 0x161B SWAP2 SWAP1 PUSH2 0x1A26 JUMP JUMPDEST POP PUSH32 0xFEC15E35EC3D19C0B090BDED48BC70FCF6E183FB77F32B0F92B463D5FEC3A0D1 PUSH1 0x0 DUP3 DUP2 SLOAD DUP2 LT PUSH2 0x1650 JUMPI PUSH2 0x1650 PUSH2 0x1987 JUMP JUMPDEST SWAP1 PUSH1 0x0 MSTORE PUSH1 0x20 PUSH1 0x0 KECCAK256 SWAP1 PUSH1 0x8 MUL ADD PUSH1 0x1 ADD PUSH1 0x40 MLOAD PUSH2 0xDF6 SWAP2 SWAP1 PUSH2 0x1AE6 JUMP JUMPDEST DUP3 DUP1 SLOAD DUP3 DUP3 SSTORE SWAP1 PUSH1 0x0 MSTORE PUSH1 0x20 PUSH1 0x0 KECCAK256 SWAP1 DUP2 ADD SWAP3 DUP3 ISZERO PUSH2 0x16B4 JUMPI SWAP2 PUSH1 0x20 MUL DUP3 ADD JUMPDEST DUP3 DUP2 GT ISZERO PUSH2 0x16B4 JUMPI DUP3 MLOAD DUP3 SWAP1 PUSH2 0x16A4 SWAP1 DUP3 PUSH2 0x1A26 JUMP JUMPDEST POP SWAP2 PUSH1 0x20 ADD SWAP2 SWAP1 PUSH1 0x1 ADD SWAP1 PUSH2 0x168E JUMP JUMPDEST POP PUSH2 0x16C0 SWAP3 SWAP2 POP PUSH2 0x1751 JUMP JUMPDEST POP SWAP1 JUMP JUMPDEST DUP3 DUP1 SLOAD DUP3 DUP3 SSTORE SWAP1 PUSH1 0x0 MSTORE PUSH1 0x20 PUSH1 0x0 KECCAK256 SWAP1 DUP2 ADD SWAP3 DUP3 ISZERO PUSH2 0x16B4 JUMPI SWAP2 PUSH1 0x20 MUL DUP3 ADD JUMPDEST DUP3 DUP2 GT ISZERO PUSH2 0x16B4 JUMPI DUP3 MLOAD DUP3 SWAP1 PUSH2 0x16FA SWAP1 DUP3 PUSH2 0x1A26 JUMP JUMPDEST POP SWAP2 PUSH1 0x20 ADD SWAP2 SWAP1 PUSH1 0x1 ADD SWAP1 PUSH2 0x16E4 JUMP JUMPDEST DUP3 DUP1 SLOAD DUP3 DUP3 SSTORE SWAP1 PUSH1 0x0 MSTORE PUSH1 0x20 PUSH1 0x0 KECCAK256 SWAP1 DUP2 ADD SWAP3 DUP3 ISZERO PUSH2 0x1745 JUMPI SWAP2 PUSH1 0x20 MUL DUP3 ADD JUMPDEST DUP3 DUP2 GT ISZERO PUSH2 0x1745 JUMPI DUP3 MLOAD DUP3 SSTORE SWAP2 PUSH1 0x20 ADD SWAP2 SWAP1 PUSH1 0x1 ADD SWAP1 PUSH2 0x172A JUMP JUMPDEST POP PUSH2 0x16C0 SWAP3 SWAP2 POP PUSH2 0x176E JUMP JUMPDEST DUP1 DUP3 GT ISZERO PUSH2 0x16C0 JUMPI PUSH1 0x0 PUSH2 0x1765 DUP3 DUP3 PUSH2 0x1783 JUMP JUMPDEST POP PUSH1 0x1 ADD PUSH2 0x1751 JUMP JUMPDEST JUMPDEST DUP1 DUP3 GT ISZERO PUSH2 0x16C0 JUMPI PUSH1 0x0 DUP2 SSTORE PUSH1 0x1 ADD PUSH2 0x176F JUMP JUMPDEST POP DUP1 SLOAD PUSH2 0x178F SWAP1 PUSH2 0x199D JUMP JUMPDEST PUSH1 0x0 DUP3 SSTORE DUP1 PUSH1 0x1F LT PUSH2 0x179F JUMPI POP POP JUMP JUMPDEST PUSH1 0x1F ADD PUSH1 0x20 SWAP1 DIV SWAP1 PUSH1 0x0 MSTORE PUSH1 0x20 PUSH1 0x0 KECCAK256 SWAP1 DUP2 ADD SWAP1 PUSH2 0x17BD SWAP2 SWAP1 PUSH2 0x176E JUMP JUMPDEST POP JUMP JUMPDEST PUSH1 0x0 PUSH1 0x20 DUP3 DUP5 SUB SLT ISZERO PUSH2 0x17D2 JUMPI PUSH1 0x0 DUP1 REVERT JUMPDEST POP CALLDATALOAD SWAP2 SWAP1 POP JUMP JUMPDEST PUSH1 0x0 DUP1 PUSH1 0x40 DUP4 DUP6 SUB SLT ISZERO PUSH2 0x17EC JUMPI PUSH1 0x0 DUP1 REVERT JUMPDEST POP POP DUP1 CALLDATALOAD SWAP3 PUSH1 0x20 SWAP1 SWAP2 ADD CALLDATALOAD SWAP2 POP JUMP JUMPDEST PUSH1 0x0 JUMPDEST DUP4 DUP2 LT ISZERO PUSH2 0x1816 JUMPI DUP2 DUP2 ADD MLOAD DUP4 DUP3 ADD MSTORE PUSH1 0x20 ADD PUSH2 0x17FE JUMP JUMPDEST POP POP PUSH1 0x0 SWAP2 ADD MSTORE JUMP JUMPDEST DUP7 ISZERO ISZERO DUP2 MSTORE PUSH1 0xC0 PUSH1 0x20 DUP3 ADD MSTORE PUSH1 0x0 DUP7 MLOAD DUP1 PUSH1 0xC0 DUP5 ADD MSTORE PUSH2 0x1846 DUP2 PUSH1 0xE0 DUP6 ADD PUSH1 0x20 DUP12 ADD PUSH2 0x17FB JUMP JUMPDEST PUSH1 0x1 PUSH1 0x1 PUSH1 0xA0 SHL SUB SWAP7 DUP8 AND PUSH1 0x40 DUP5 ADD MSTORE SWAP5 DUP7 AND PUSH1 0x60 DUP4 ADD MSTORE POP PUSH1 0x80 DUP2 ADD SWAP3 SWAP1 SWAP3 MSTORE SWAP1 SWAP3 AND PUSH1 0xA0 DUP4 ADD MSTORE PUSH1 0x1F ADD PUSH1 0x1F NOT AND ADD PUSH1 0xE0 ADD SWAP3 SWAP2 POP POP JUMP JUMPDEST PUSH4 0x4E487B71 PUSH1 0xE0 SHL PUSH1 0x0 MSTORE PUSH1 0x41 PUSH1 0x4 MSTORE PUSH1 0x24 PUSH1 0x0 REVERT JUMPDEST PUSH1 0x0 DUP3 PUSH1 0x1F DUP4 ADD SLT PUSH2 0x18A7 JUMPI PUSH1 0x0 DUP1 REVERT JUMPDEST DUP2 CALLDATALOAD PUSH8 0xFFFFFFFFFFFFFFFF DUP1 DUP3 GT ISZERO PUSH2 0x18C2 JUMPI PUSH2 0x18C2 PUSH2 0x1880 JUMP JUMPDEST PUSH1 0x40 MLOAD PUSH1 0x1F DUP4 ADD PUSH1 0x1F NOT SWAP1 DUP2 AND PUSH1 0x3F ADD AND DUP2 ADD SWAP1 DUP3 DUP3 GT DUP2 DUP4 LT OR ISZERO PUSH2 0x18EA JUMPI PUSH2 0x18EA PUSH2 0x1880 JUMP JUMPDEST DUP2 PUSH1 0x40 MSTORE DUP4 DUP2 MSTORE DUP7 PUSH1 0x20 DUP6 DUP9 ADD ADD GT ISZERO PUSH2 0x1903 JUMPI PUSH1 0x0 DUP1 REVERT JUMPDEST DUP4 PUSH1 0x20 DUP8 ADD PUSH1 0x20 DUP4 ADD CALLDATACOPY PUSH1 0x0 PUSH1 0x20 DUP6 DUP4 ADD ADD MSTORE DUP1 SWAP5 POP POP POP POP POP SWAP3 SWAP2 POP POP JUMP JUMPDEST PUSH1 0x0 DUP1 PUSH1 0x40 DUP4 DUP6 SUB SLT ISZERO PUSH2 0x1936 JUMPI PUSH1 0x0 DUP1 REVERT JUMPDEST DUP3 CALLDATALOAD PUSH8 0xFFFFFFFFFFFFFFFF DUP1 DUP3 GT ISZERO PUSH2 0x194E JUMPI PUSH1 0x0 DUP1 REVERT JUMPDEST PUSH2 0x195A DUP7 DUP4 DUP8 ADD PUSH2 0x1896 JUMP JUMPDEST SWAP4 POP PUSH1 0x20 DUP6 ADD CALLDATALOAD SWAP2 POP DUP1 DUP3 GT ISZERO PUSH2 0x1970 JUMPI PUSH1 0x0 DUP1 REVERT JUMPDEST POP PUSH2 0x197D DUP6 DUP3 DUP7 ADD PUSH2 0x1896 JUMP JUMPDEST SWAP2 POP POP SWAP3 POP SWAP3 SWAP1 POP JUMP JUMPDEST PUSH4 0x4E487B71 PUSH1 0xE0 SHL PUSH1 0x0 MSTORE PUSH1 0x32 PUSH1 0x4 MSTORE PUSH1 0x24 PUSH1 0x0 REVERT JUMPDEST PUSH1 0x1 DUP2 DUP2 SHR SWAP1 DUP3 AND DUP1 PUSH2 0x19B1 JUMPI PUSH1 0x7F DUP3 AND SWAP2 POP JUMPDEST PUSH1 0x20 DUP3 LT DUP2 SUB PUSH2 0x19D1 JUMPI PUSH4 0x4E487B71 PUSH1 0xE0 SHL PUSH1 0x0 MSTORE PUSH1 0x22 PUSH1 0x4 MSTORE PUSH1 0x24 PUSH1 0x0 REVERT JUMPDEST POP SWAP2 SWAP1 POP JUMP JUMPDEST PUSH1 0x1F DUP3 GT ISZERO PUSH2 0x1A21 JUMPI PUSH1 0x0 DUP2 DUP2 MSTORE PUSH1 0x20 DUP2 KECCAK256 PUSH1 0x1F DUP6 ADD PUSH1 0x5 SHR DUP2 ADD PUSH1 0x20 DUP7 LT ISZERO PUSH2 0x19FE JUMPI POP DUP1 JUMPDEST PUSH1 0x1F DUP6 ADD PUSH1 0x5 SHR DUP3 ADD SWAP2 POP JUMPDEST DUP2 DUP2 LT ISZERO PUSH2 0x1A1D JUMPI DUP3 DUP2 SSTORE PUSH1 0x1 ADD PUSH2 0x1A0A JUMP JUMPDEST POP POP POP JUMPDEST POP POP POP JUMP JUMPDEST DUP2 MLOAD PUSH8 0xFFFFFFFFFFFFFFFF DUP2 GT ISZERO PUSH2 0x1A40 JUMPI PUSH2 0x1A40 PUSH2 0x1880 JUMP JUMPDEST PUSH2 0x1A54 DUP2 PUSH2 0x1A4E DUP5 SLOAD PUSH2 0x199D JUMP JUMPDEST DUP5 PUSH2 0x19D7 JUMP JUMPDEST PUSH1 0x20 DUP1 PUSH1 0x1F DUP4 GT PUSH1 0x1 DUP2 EQ PUSH2 0x1A89 JUMPI PUSH1 0x0 DUP5 ISZERO PUSH2 0x1A71 JUMPI POP DUP6 DUP4 ADD MLOAD JUMPDEST PUSH1 0x0 NOT PUSH1 0x3 DUP7 SWAP1 SHL SHR NOT AND PUSH1 0x1 DUP6 SWAP1 SHL OR DUP6 SSTORE PUSH2 0x1A1D JUMP JUMPDEST PUSH1 0x0 DUP6 DUP2 MSTORE PUSH1 0x20 DUP2 KECCAK256 PUSH1 0x1F NOT DUP7 AND SWAP2 JUMPDEST DUP3 DUP2 LT ISZERO PUSH2 0x1AB8 JUMPI DUP9 DUP7 ADD MLOAD DUP3 SSTORE SWAP5 DUP5 ADD SWAP5 PUSH1 0x1 SWAP1 SWAP2 ADD SWAP1 DUP5 ADD PUSH2 0x1A99 JUMP JUMPDEST POP DUP6 DUP3 LT ISZERO PUSH2 0x1AD6 JUMPI DUP8 DUP6 ADD MLOAD PUSH1 0x0 NOT PUSH1 0x3 DUP9 SWAP1 SHL PUSH1 0xF8 AND SHR NOT AND DUP2 SSTORE JUMPDEST POP POP POP POP POP PUSH1 0x1 SWAP1 DUP2 SHL ADD SWAP1 SSTORE POP JUMP JUMPDEST PUSH1 0x0 PUSH1 0x20 DUP1 DUP4 MSTORE PUSH1 0x0 DUP5 SLOAD PUSH2 0x1AFA DUP2 PUSH2 0x199D JUMP JUMPDEST DUP1 DUP5 DUP8 ADD MSTORE PUSH1 0x40 PUSH1 0x1 DUP1 DUP5 AND PUSH1 0x0 DUP2 EQ PUSH2 0x1B1B JUMPI PUSH1 0x1 DUP2 EQ PUSH2 0x1B35 JUMPI PUSH2 0x1B63 JUMP JUMPDEST PUSH1 0xFF NOT DUP6 AND DUP10 DUP5 ADD MSTORE DUP4 ISZERO ISZERO PUSH1 0x5 SHL DUP10 ADD DUP4 ADD SWAP6 POP PUSH2 0x1B63 JUMP JUMPDEST DUP10 PUSH1 0x0 MSTORE DUP7 PUSH1 0x0 KECCAK256 PUSH1 0x0 JUMPDEST DUP6 DUP2 LT ISZERO PUSH2 0x1B5B JUMPI DUP2 SLOAD DUP12 DUP3 ADD DUP7 ADD MSTORE SWAP1 DUP4 ADD SWAP1 DUP9 ADD PUSH2 0x1B40 JUMP JUMPDEST DUP11 ADD DUP5 ADD SWAP7 POP POP JUMPDEST POP SWAP4 SWAP9 SWAP8 POP POP POP POP POP POP POP POP JUMP JUMPDEST DUP2 DUP2 SUB PUSH2 0x1B7C JUMPI POP POP JUMP JUMPDEST PUSH2 0x1B86 DUP3 SLOAD PUSH2 0x199D JUMP JUMPDEST PUSH8 0xFFFFFFFFFFFFFFFF DUP2 GT ISZERO PUSH2 0x1B9E JUMPI PUSH2 0x1B9E PUSH2 0x1880 JUMP JUMPDEST PUSH2 0x1BAC DUP2 PUSH2 0x1A4E DUP5 SLOAD PUSH2 0x199D JUMP JUMPDEST PUSH1 0x0 PUSH1 0x1F DUP3 GT PUSH1 0x1 DUP2 EQ PUSH2 0x1BE0 JUMPI PUSH1 0x0 DUP4 ISZERO PUSH2 0x1BC8 JUMPI POP DUP5 DUP3 ADD SLOAD JUMPDEST PUSH1 0x0 NOT PUSH1 0x3 DUP6 SWAP1 SHL SHR NOT AND PUSH1 0x1 DUP5 SWAP1 SHL OR DUP5 SSTORE PUSH2 0x1C45 JUMP JUMPDEST PUSH1 0x0 DUP6 DUP2 MSTORE PUSH1 0x20 SWAP1 KECCAK256 PUSH1 0x1F NOT DUP5 AND SWAP1 PUSH1 0x0 DUP7 DUP2 MSTORE PUSH1 0x20 SWAP1 KECCAK256 DUP5 JUMPDEST DUP4 DUP2 LT ISZERO PUSH2 0x1C1A JUMPI DUP3 DUP7 ADD SLOAD DUP3 SSTORE PUSH1 0x1 SWAP6 DUP7 ADD SWAP6 SWAP1 SWAP2 ADD SWAP1 PUSH1 0x20 ADD PUSH2 0x1BFA JUMP JUMPDEST POP DUP6 DUP4 LT ISZERO PUSH2 0x1C38 JUMPI DUP2 DUP6 ADD SLOAD PUSH1 0x0 NOT PUSH1 0x3 DUP9 SWAP1 SHL PUSH1 0xF8 AND SHR NOT AND DUP2 SSTORE JUMPDEST POP POP POP PUSH1 0x1 DUP4 PUSH1 0x1 SHL ADD DUP5 SSTORE JUMPDEST POP POP POP POP POP JUMP JUMPDEST PUSH1 0x0 DUP2 SLOAD PUSH2 0x1C59 DUP2 PUSH2 0x199D JUMP JUMPDEST DUP1 DUP6 MSTORE PUSH1 0x20 PUSH1 0x1 DUP4 DUP2 AND DUP1 ISZERO PUSH2 0x1C76 JUMPI PUSH1 0x1 DUP2 EQ PUSH2 0x1C90 JUMPI PUSH2 0x1CBE JUMP JUMPDEST PUSH1 0xFF NOT DUP6 AND DUP9 DUP5 ADD MSTORE DUP4 ISZERO ISZERO PUSH1 0x5 SHL DUP9 ADD DUP4 ADD SWAP6 POP PUSH2 0x1CBE JUMP JUMPDEST DUP7 PUSH1 0x0 MSTORE DUP3 PUSH1 0x0 KECCAK256 PUSH1 0x0 JUMPDEST DUP6 DUP2 LT ISZERO PUSH2 0x1CB6 JUMPI DUP2 SLOAD DUP11 DUP3 ADD DUP7 ADD MSTORE SWAP1 DUP4 ADD SWAP1 DUP5 ADD PUSH2 0x1C9B JUMP JUMPDEST DUP10 ADD DUP5 ADD SWAP7 POP POP JUMPDEST POP POP POP POP POP SWAP3 SWAP2 POP POP JUMP JUMPDEST PUSH1 0x0 DUP2 SLOAD DUP1 DUP5 MSTORE PUSH1 0x20 DUP1 DUP6 ADD DUP1 DUP2 SWAP7 POP DUP4 PUSH1 0x5 SHL DUP2 ADD SWAP2 POP DUP6 PUSH1 0x0 MSTORE DUP3 PUSH1 0x0 KECCAK256 PUSH1 0x0 JUMPDEST DUP6 DUP2 LT ISZERO PUSH2 0x1D15 JUMPI DUP3 DUP5 SUB DUP10 MSTORE PUSH2 0x1D03 DUP5 DUP4 PUSH2 0x1C4C JUMP JUMPDEST SWAP9 DUP6 ADD SWAP9 SWAP4 POP PUSH1 0x1 SWAP2 DUP3 ADD SWAP2 ADD PUSH2 0x1CEC JUMP JUMPDEST POP SWAP2 SWAP8 SWAP7 POP POP POP POP POP POP POP JUMP JUMPDEST PUSH1 0x20 DUP2 MSTORE PUSH1 0x0 PUSH2 0x1D35 PUSH1 0x20 DUP4 ADD DUP5 PUSH2 0x1CC9 JUMP JUMPDEST SWAP4 SWAP3 POP POP POP JUMP JUMPDEST PUSH1 0x0 DUP2 SLOAD DUP1 DUP5 MSTORE PUSH1 0x20 DUP1 DUP6 ADD SWAP5 POP DUP4 PUSH1 0x0 MSTORE DUP1 PUSH1 0x0 KECCAK256 PUSH1 0x0 JUMPDEST DUP4 DUP2 LT ISZERO PUSH2 0x1D71 JUMPI DUP2 SLOAD DUP8 MSTORE SWAP6 DUP3 ADD SWAP6 PUSH1 0x1 SWAP2 DUP3 ADD SWAP2 ADD PUSH2 0x1D55 JUMP JUMPDEST POP SWAP5 SWAP6 SWAP5 POP POP POP POP POP JUMP JUMPDEST PUSH1 0x20 DUP2 MSTORE PUSH2 0x1D98 PUSH1 0x20 DUP3 ADD PUSH2 0x1D92 DUP5 SLOAD PUSH1 0xFF AND SWAP1 JUMP JUMPDEST ISZERO ISZERO SWAP1 MSTORE JUMP JUMPDEST PUSH1 0x0 PUSH2 0x100 DUP1 PUSH1 0x40 DUP5 ADD MSTORE PUSH2 0x1DB4 PUSH2 0x120 DUP5 ADD PUSH1 0x1 DUP7 ADD PUSH2 0x1C4C JUMP JUMPDEST PUSH1 0x1F NOT DUP1 DUP6 DUP4 SUB ADD PUSH1 0x60 DUP7 ADD MSTORE PUSH2 0x1DCE DUP3 PUSH1 0x2 DUP9 ADD PUSH2 0x1CC9 JUMP JUMPDEST SWAP2 POP DUP1 DUP6 DUP4 SUB ADD PUSH1 0x80 DUP7 ADD MSTORE POP PUSH2 0x1DE8 DUP2 PUSH1 0x3 DUP8 ADD PUSH2 0x1D3C JUMP JUMPDEST SWAP1 POP PUSH2 0x1DFE PUSH1 0x4 DUP7 ADD SLOAD PUSH1 0x1 PUSH1 0x1 PUSH1 0xA0 SHL SUB AND SWAP1 JUMP JUMPDEST PUSH1 0x1 PUSH1 0x1 PUSH1 0xA0 SHL SUB SWAP1 DUP2 AND PUSH1 0xA0 DUP7 ADD MSTORE PUSH1 0x5 DUP7 ADD SLOAD DUP2 AND PUSH1 0xC0 DUP7 ADD MSTORE PUSH1 0x6 DUP7 ADD SLOAD PUSH1 0xE0 DUP7 ADD MSTORE PUSH1 0x7 SWAP1 SWAP6 ADD SLOAD SWAP1 SWAP5 AND SWAP3 ADD SWAP2 SWAP1 SWAP2 MSTORE POP SWAP1 JUMP JUMPDEST PUSH4 0x4E487B71 PUSH1 0xE0 SHL PUSH1 0x0 MSTORE PUSH1 0x11 PUSH1 0x4 MSTORE PUSH1 0x24 PUSH1 0x0 REVERT JUMPDEST DUP2 DUP2 SUB DUP2 DUP2 GT ISZERO PUSH2 0xBA5 JUMPI PUSH2 0xBA5 PUSH2 0x1E37 JUMP JUMPDEST PUSH1 0x0 PUSH1 0x1 DUP3 ADD PUSH2 0x1E72 JUMPI PUSH2 0x1E72 PUSH2 0x1E37 JUMP JUMPDEST POP PUSH1 0x1 ADD SWAP1 JUMP JUMPDEST PUSH1 0x0 DUP3 MLOAD PUSH2 0x1E8B DUP2 DUP5 PUSH1 0x20 DUP8 ADD PUSH2 0x17FB JUMP JUMPDEST SWAP2 SWAP1 SWAP2 ADD SWAP3 SWAP2 POP POP JUMP INVALID LOG2 PUSH5 0x6970667358 0x22 SLT KECCAK256 SWAP2 LOG1 SIGNEXTEND 0xE1 0x4F 0xEA JUMPDEST 0xE2 0xEC RETURNDATASIZE 0xD 0xEB SHR REVERT 0x5D CALLDATALOAD 0xCF 0xD4 PUSH20 0x127A0CB0633A11E3B71B69F91D64736F6C634300 ADDMOD SGT STOP CALLER "
				},
				"gasEstimates": {
					"creation": {
						"codeDepositCost": "1576600",
						"executionCost": "infinite",
						"totalCost": "infinite"
					},
					"external": {
						"compareStrings(string,string)": "infinite",
						"createGameRoom()": "infinite",
						"gameInformation(uint256)": "infinite",
						"joinGame(uint256)": "infinite",
						"restartGame(uint256)": "infinite",
						"userInput(uint256,uint256)": "infinite"
					},
					"internal": {
						"changePlayer(uint256)": "infinite",
						"checkOptions(uint256)": "infinite",
						"checkWinner(uint256)": "infinite"
					}
				},
				"methodIdentifiers": {
					"compareStrings(string,string)": "bed34bba",
					"createGameRoom()": "97ca20bf",
					"gameInformation(uint256)": "87052fab",
					"joinGame(uint256)": "efaa55a0",
					"restartGame(uint256)": "4a968391",
					"userInput(uint256,uint256)": "52bc3410"
				}
			},
			"storageLayout": {
				"storage": [
					{
						"astId": 24,
						"contract": "Prectical5-Tick-Tack-Toe-More-Jason.sol:TickTackToe",
						"label": "gameInformation",
						"offset": 0,
						"slot": "0",
						"type": "t_array(t_struct(GameInfo)20_storage)dyn_storage"
					},
					{
						"astId": 61,
						"contract": "Prectical5-Tick-Tack-Toe-More-Jason.sol:TickTackToe",
						"label": "winConditionSet",
						"offset": 0,
						"slot": "1",
						"type": "t_array(t_array(t_uint256)dyn_storage)dyn_storage"
					}
				],
				"types": {
					"t_address": {
						"encoding": "inplace",
						"label": "address",
						"numberOfBytes": "20"
					},
					"t_array(t_array(t_uint256)dyn_storage)dyn_storage": {
						"base": "t_array(t_uint256)dyn_storage",
						"encoding": "dynamic_array",
						"label": "uint256[][]",
						"numberOfBytes": "32"
					},
					"t_array(t_string_storage)dyn_storage": {
						"base": "t_string_storage",
						"encoding": "dynamic_array",
						"label": "string[]",
						"numberOfBytes": "32"
					},
					"t_array(t_struct(GameInfo)20_storage)dyn_storage": {
						"base": "t_struct(GameInfo)20_storage",
						"encoding": "dynamic_array",
						"label": "struct TickTackToe.GameInfo[]",
						"numberOfBytes": "32"
					},
					"t_array(t_uint256)dyn_storage": {
						"base": "t_uint256",
						"encoding": "dynamic_array",
						"label": "uint256[]",
						"numberOfBytes": "32"
					},
					"t_bool": {
						"encoding": "inplace",
						"label": "bool",
						"numberOfBytes": "1"
					},
					"t_string_storage": {
						"encoding": "bytes",
						"label": "string",
						"numberOfBytes": "32"
					},
					"t_struct(GameInfo)20_storage": {
						"encoding": "inplace",
						"label": "struct TickTackToe.GameInfo",
						"members": [
							{
								"astId": 3,
								"contract": "Prectical5-Tick-Tack-Toe-More-Jason.sol:TickTackToe",
								"label": "_activate",
								"offset": 0,
								"slot": "0",
								"type": "t_bool"
							},
							{
								"astId": 5,
								"contract": "Prectical5-Tick-Tack-Toe-More-Jason.sol:TickTackToe",
								"label": "_currentPlayer",
								"offset": 0,
								"slot": "1",
								"type": "t_string_storage"
							},
							{
								"astId": 8,
								"contract": "Prectical5-Tick-Tack-Toe-More-Jason.sol:TickTackToe",
								"label": "_options",
								"offset": 0,
								"slot": "2",
								"type": "t_array(t_string_storage)dyn_storage"
							},
							{
								"astId": 11,
								"contract": "Prectical5-Tick-Tack-Toe-More-Jason.sol:TickTackToe",
								"label": "_finalWinOption",
								"offset": 0,
								"slot": "3",
								"type": "t_array(t_uint256)dyn_storage"
							},
							{
								"astId": 13,
								"contract": "Prectical5-Tick-Tack-Toe-More-Jason.sol:TickTackToe",
								"label": "_player1address",
								"offset": 0,
								"slot": "4",
								"type": "t_address"
							},
							{
								"astId": 15,
								"contract": "Prectical5-Tick-Tack-Toe-More-Jason.sol:TickTackToe",
								"label": "_player2address",
								"offset": 0,
								"slot": "5",
								"type": "t_address"
							},
							{
								"astId": 17,
								"contract": "Prectical5-Tick-Tack-Toe-More-Jason.sol:TickTackToe",
								"label": "_playerCount",
								"offset": 0,
								"slot": "6",
								"type": "t_uint256"
							},
							{
								"astId": 19,
								"contract": "Prectical5-Tick-Tack-Toe-More-Jason.sol:TickTackToe",
								"label": "_winer",
								"offset": 0,
								"slot": "7",
								"type": "t_address"
							}
						],
						"numberOfBytes": "256"
					},
					"t_uint256": {
						"encoding": "inplace",
						"label": "uint256",
						"numberOfBytes": "32"
					}
				}
			},
			"userdoc": {
				"kind": "user",
				"methods": {},
				"version": 1
			}
		}
	}
}