{
	"TTT_ERC1155Token-Jason.sol": {
		"TTTERC1155": {
			"abi": [
				{
					"inputs": [],
					"stateMutability": "nonpayable",
					"type": "constructor"
				},
				{
					"anonymous": false,
					"inputs": [
						{
							"indexed": true,
							"internalType": "address",
							"name": "account",
							"type": "address"
						},
						{
							"indexed": true,
							"internalType": "address",
							"name": "operator",
							"type": "address"
						},
						{
							"indexed": false,
							"internalType": "bool",
							"name": "approved",
							"type": "bool"
						}
					],
					"name": "ApprovalForAll",
					"type": "event"
				},
				{
					"anonymous": false,
					"inputs": [
						{
							"indexed": true,
							"internalType": "address",
							"name": "operator",
							"type": "address"
						},
						{
							"indexed": true,
							"internalType": "address",
							"name": "from",
							"type": "address"
						},
						{
							"indexed": true,
							"internalType": "address",
							"name": "to",
							"type": "address"
						},
						{
							"indexed": false,
							"internalType": "uint256[]",
							"name": "ids",
							"type": "uint256[]"
						},
						{
							"indexed": false,
							"internalType": "uint256[]",
							"name": "values",
							"type": "uint256[]"
						}
					],
					"name": "TransferBatch",
					"type": "event"
				},
				{
					"anonymous": false,
					"inputs": [
						{
							"indexed": true,
							"internalType": "address",
							"name": "operator",
							"type": "address"
						},
						{
							"indexed": true,
							"internalType": "address",
							"name": "from",
							"type": "address"
						},
						{
							"indexed": true,
							"internalType": "address",
							"name": "to",
							"type": "address"
						},
						{
							"indexed": false,
							"internalType": "uint256",
							"name": "id",
							"type": "uint256"
						},
						{
							"indexed": false,
							"internalType": "uint256",
							"name": "value",
							"type": "uint256"
						}
					],
					"name": "TransferSingle",
					"type": "event"
				},
				{
					"anonymous": false,
					"inputs": [
						{
							"indexed": false,
							"internalType": "string",
							"name": "value",
							"type": "string"
						},
						{
							"indexed": true,
							"internalType": "uint256",
							"name": "id",
							"type": "uint256"
						}
					],
					"name": "URI",
					"type": "event"
				},
				{
					"inputs": [
						{
							"internalType": "address",
							"name": "account",
							"type": "address"
						},
						{
							"internalType": "uint256",
							"name": "id",
							"type": "uint256"
						}
					],
					"name": "balanceOf",
					"outputs": [
						{
							"internalType": "uint256",
							"name": "",
							"type": "uint256"
						}
					],
					"stateMutability": "view",
					"type": "function"
				},
				{
					"inputs": [
						{
							"internalType": "address[]",
							"name": "accounts",
							"type": "address[]"
						},
						{
							"internalType": "uint256[]",
							"name": "ids",
							"type": "uint256[]"
						}
					],
					"name": "balanceOfBatch",
					"outputs": [
						{
							"internalType": "uint256[]",
							"name": "",
							"type": "uint256[]"
						}
					],
					"stateMutability": "view",
					"type": "function"
				},
				{
					"inputs": [
						{
							"internalType": "address",
							"name": "account",
							"type": "address"
						},
						{
							"internalType": "address",
							"name": "operator",
							"type": "address"
						}
					],
					"name": "isApprovedForAll",
					"outputs": [
						{
							"internalType": "bool",
							"name": "",
							"type": "bool"
						}
					],
					"stateMutability": "view",
					"type": "function"
				},
				{
					"inputs": [
						{
							"internalType": "address",
							"name": "winer",
							"type": "address"
						},
						{
							"internalType": "uint256",
							"name": "id",
							"type": "uint256"
						},
						{
							"internalType": "uint256",
							"name": "value",
							"type": "uint256"
						}
					],
					"name": "mint",
					"outputs": [],
					"stateMutability": "nonpayable",
					"type": "function"
				},
				{
					"inputs": [
						{
							"internalType": "address",
							"name": "from",
							"type": "address"
						},
						{
							"internalType": "address",
							"name": "to",
							"type": "address"
						},
						{
							"internalType": "uint256[]",
							"name": "ids",
							"type": "uint256[]"
						},
						{
							"internalType": "uint256[]",
							"name": "amounts",
							"type": "uint256[]"
						},
						{
							"internalType": "bytes",
							"name": "data",
							"type": "bytes"
						}
					],
					"name": "safeBatchTransferFrom",
					"outputs": [],
					"stateMutability": "nonpayable",
					"type": "function"
				},
				{
					"inputs": [
						{
							"internalType": "address",
							"name": "from",
							"type": "address"
						},
						{
							"internalType": "address",
							"name": "to",
							"type": "address"
						},
						{
							"internalType": "uint256",
							"name": "id",
							"type": "uint256"
						},
						{
							"internalType": "uint256",
							"name": "amount",
							"type": "uint256"
						},
						{
							"internalType": "bytes",
							"name": "data",
							"type": "bytes"
						}
					],
					"name": "safeTransferFrom",
					"outputs": [],
					"stateMutability": "nonpayable",
					"type": "function"
				},
				{
					"inputs": [
						{
							"internalType": "address",
							"name": "operator",
							"type": "address"
						},
						{
							"internalType": "bool",
							"name": "approved",
							"type": "bool"
						}
					],
					"name": "setApprovalForAll",
					"outputs": [],
					"stateMutability": "nonpayable",
					"type": "function"
				},
				{
					"inputs": [
						{
							"internalType": "bytes4",
							"name": "interfaceId",
							"type": "bytes4"
						}
					],
					"name": "supportsInterface",
					"outputs": [
						{
							"internalType": "bool",
							"name": "",
							"type": "bool"
						}
					],
					"stateMutability": "view",
					"type": "function"
				},
				{
					"inputs": [
						{
							"internalType": "uint256",
							"name": "",
							"type": "uint256"
						}
					],
					"name": "uri",
					"outputs": [
						{
							"internalType": "string",
							"name": "",
							"type": "string"
						}
					],
					"stateMutability": "view",
					"type": "function"
				}
			],
			"devdoc": {
				"events": {
					"ApprovalForAll(address,address,bool)": {
						"details": "Emitted when `account` grants or revokes permission to `operator` to transfer their tokens, according to `approved`."
					},
					"TransferBatch(address,address,address,uint256[],uint256[])": {
						"details": "Equivalent to multiple {TransferSingle} events, where `operator`, `from` and `to` are the same for all transfers."
					},
					"TransferSingle(address,address,address,uint256,uint256)": {
						"details": "Emitted when `value` tokens of token type `id` are transferred from `from` to `to` by `operator`."
					},
					"URI(string,uint256)": {
						"details": "Emitted when the URI for token type `id` changes to `value`, if it is a non-programmatic URI. If an {URI} event was emitted for `id`, the standard https://eips.ethereum.org/EIPS/eip-1155#metadata-extensions[guarantees] that `value` will equal the value returned by {IERC1155MetadataURI-uri}."
					}
				},
				"kind": "dev",
				"methods": {
					"balanceOf(address,uint256)": {
						"details": "See {IERC1155-balanceOf}. Requirements: - `account` cannot be the zero address."
					},
					"balanceOfBatch(address[],uint256[])": {
						"details": "See {IERC1155-balanceOfBatch}. Requirements: - `accounts` and `ids` must have the same length."
					},
					"isApprovedForAll(address,address)": {
						"details": "See {IERC1155-isApprovedForAll}."
					},
					"safeBatchTransferFrom(address,address,uint256[],uint256[],bytes)": {
						"details": "See {IERC1155-safeBatchTransferFrom}."
					},
					"safeTransferFrom(address,address,uint256,uint256,bytes)": {
						"details": "See {IERC1155-safeTransferFrom}."
					},
					"setApprovalForAll(address,bool)": {
						"details": "See {IERC1155-setApprovalForAll}."
					},
					"supportsInterface(bytes4)": {
						"details": "See {IERC165-supportsInterface}. Time complexity O(1), guaranteed to always use less than 30 000 gas."
					},
					"uri(uint256)": {
						"details": "See {IERC1155MetadataURI-uri}. This implementation returns the same URI for *all* token types. It relies on the token type ID substitution mechanism https://eips.ethereum.org/EIPS/eip-1155#metadata[defined in the EIP]. Clients calling this function must replace the `\\{id\\}` substring with the actual token type ID."
					}
				},
				"version": 1
			},
			"evm": {
				"assembly": "    /* \"TTT_ERC1155Token-Jason.sol\":43127:43401  contract TTTERC1155 is ERC1155 {... */\n  mstore(0x40, 0x80)\n    /* \"TTT_ERC1155Token-Jason.sol\":43167:43249  constructor() ERC1155(\"https://game.example/api/item/{id}.json\"){... */\n  callvalue\n  dup1\n  iszero\n  tag_1\n  jumpi\n  0x00\n  dup1\n  revert\ntag_1:\n  pop\n    /* \"TTT_ERC1155Token-Jason.sol\":12650:13012  constructor (string memory uri_) public {... */\n  mload(0x40)\n  dup1\n  0x60\n  add\n  0x40\n  mstore\n  dup1\n  0x27\n  dup2\n  mstore\n  0x20\n  add\n  data_9be393994f02169c966a8f7d954e5f555f9d6fdea83c170362ff79cf2c5ce4f1\n  0x27\n  swap2\n  codecopy\n    /* \"TTT_ERC1155Token-Jason.sol\":2483:2523  _registerInterface(_INTERFACE_ID_ERC165) */\n  tag_6\n  shl(0xe0, 0x01ffc9a7)\n    /* \"TTT_ERC1155Token-Jason.sol\":2483:2501  _registerInterface */\n  tag_7\n    /* \"TTT_ERC1155Token-Jason.sol\":2483:2523  _registerInterface(_INTERFACE_ID_ERC165) */\n  jump\t// in\ntag_6:\n    /* \"TTT_ERC1155Token-Jason.sol\":12701:12714  _setURI(uri_) */\n  tag_9\n    /* \"TTT_ERC1155Token-Jason.sol\":12709:12713  uri_ */\n  dup2\n    /* \"TTT_ERC1155Token-Jason.sol\":12701:12708  _setURI */\n  tag_10\n    /* \"TTT_ERC1155Token-Jason.sol\":12701:12714  _setURI(uri_) */\n  jump\t// in\ntag_9:\n    /* \"TTT_ERC1155Token-Jason.sol\":12806:12847  _registerInterface(_INTERFACE_ID_ERC1155) */\n  tag_11\n  shl(0xe1, 0x6cdb3d13)\n    /* \"TTT_ERC1155Token-Jason.sol\":12806:12824  _registerInterface */\n  tag_7\n    /* \"TTT_ERC1155Token-Jason.sol\":12806:12847  _registerInterface(_INTERFACE_ID_ERC1155) */\n  jump\t// in\ntag_11:\n    /* \"TTT_ERC1155Token-Jason.sol\":12950:13004  _registerInterface(_INTERFACE_ID_ERC1155_METADATA_URI) */\n  tag_12\n  shl(0xe2, 0x03a24d07)\n    /* \"TTT_ERC1155Token-Jason.sol\":12950:12968  _registerInterface */\n  tag_7\n    /* \"TTT_ERC1155Token-Jason.sol\":12950:13004  _registerInterface(_INTERFACE_ID_ERC1155_METADATA_URI) */\n  jump\t// in\ntag_12:\n    /* \"TTT_ERC1155Token-Jason.sol\":12650:13012  constructor (string memory uri_) public {... */\n  pop\n    /* \"TTT_ERC1155Token-Jason.sol\":43127:43401  contract TTTERC1155 is ERC1155 {... */\n  jump(tag_27)\n    /* \"TTT_ERC1155Token-Jason.sol\":3245:3446  function _registerInterface(bytes4 interfaceId) internal virtual {... */\ntag_7:\n  not(sub(shl(0xe0, 0x01), 0x01))\n    /* \"TTT_ERC1155Token-Jason.sol\":3329:3354  interfaceId != 0xffffffff */\n  dup1\n  dup3\n  and\n  swap1\n  sub\n    /* \"TTT_ERC1155Token-Jason.sol\":3321:3387  require(interfaceId != 0xffffffff, \"ERC165: invalid interface id\") */\n  tag_16\n  jumpi\n  mload(0x40)\n  shl(0xe5, 0x461bcd)\n  dup2\n  mstore\n    /* \"#utility.yul\":216:218   */\n  0x20\n    /* \"TTT_ERC1155Token-Jason.sol\":3321:3387  require(interfaceId != 0xffffffff, \"ERC165: invalid interface id\") */\n  0x04\n  dup3\n  add\n    /* \"#utility.yul\":198:219   */\n  mstore\n    /* \"#utility.yul\":255:257   */\n  0x1c\n    /* \"#utility.yul\":235:253   */\n  0x24\n  dup3\n  add\n    /* \"#utility.yul\":228:258   */\n  mstore\n    /* \"#utility.yul\":294:324   */\n  0x4552433136353a20696e76616c696420696e7465726661636520696400000000\n    /* \"#utility.yul\":274:292   */\n  0x44\n  dup3\n  add\n    /* \"#utility.yul\":267:325   */\n  mstore\n    /* \"#utility.yul\":342:360   */\n  0x64\n  add\n    /* \"TTT_ERC1155Token-Jason.sol\":3321:3387  require(interfaceId != 0xffffffff, \"ERC165: invalid interface id\") */\n  mload(0x40)\n  dup1\n  swap2\n  sub\n  swap1\n  revert\ntag_16:\n  not(sub(shl(0xe0, 0x01), 0x01))\n    /* \"TTT_ERC1155Token-Jason.sol\":3398:3431  _supportedInterfaces[interfaceId] */\n  and\n    /* \"TTT_ERC1155Token-Jason.sol\":3398:3418  _supportedInterfaces */\n  0x00\n    /* \"TTT_ERC1155Token-Jason.sol\":3398:3431  _supportedInterfaces[interfaceId] */\n  swap1\n  dup2\n  mstore\n  0x20\n  dup2\n  swap1\n  mstore\n  0x40\n  swap1\n  keccak256\n    /* \"TTT_ERC1155Token-Jason.sol\":3398:3438  _supportedInterfaces[interfaceId] = true */\n  dup1\n  sload\n  not(0xff)\n  and\n    /* \"TTT_ERC1155Token-Jason.sol\":3434:3438  true */\n  0x01\n    /* \"TTT_ERC1155Token-Jason.sol\":3398:3438  _supportedInterfaces[interfaceId] = true */\n  or\n  swap1\n  sstore\n    /* \"TTT_ERC1155Token-Jason.sol\":3245:3446  function _registerInterface(bytes4 interfaceId) internal virtual {... */\n  jump\t// out\n    /* \"TTT_ERC1155Token-Jason.sol\":18388:18476  function _setURI(string memory newuri) internal virtual {... */\ntag_10:\n    /* \"TTT_ERC1155Token-Jason.sol\":18455:18459  _uri */\n  0x03\n    /* \"TTT_ERC1155Token-Jason.sol\":18455:18468  _uri = newuri */\n  tag_20\n    /* \"TTT_ERC1155Token-Jason.sol\":18462:18468  newuri */\n  dup3\n    /* \"TTT_ERC1155Token-Jason.sol\":18455:18459  _uri */\n  dup3\n    /* \"TTT_ERC1155Token-Jason.sol\":18455:18468  _uri = newuri */\n  tag_21\n  jump\t// in\ntag_20:\n  pop\n    /* \"TTT_ERC1155Token-Jason.sol\":18388:18476  function _setURI(string memory newuri) internal virtual {... */\n  pop\n  jump\t// out\n    /* \"#utility.yul\":371:498   */\ntag_22:\n    /* \"#utility.yul\":432:442   */\n  0x4e487b71\n    /* \"#utility.yul\":427:430   */\n  0xe0\n    /* \"#utility.yul\":423:443   */\n  shl\n    /* \"#utility.yul\":420:421   */\n  0x00\n    /* \"#utility.yul\":413:444   */\n  mstore\n    /* \"#utility.yul\":463:467   */\n  0x41\n    /* \"#utility.yul\":460:461   */\n  0x04\n    /* \"#utility.yul\":453:468   */\n  mstore\n    /* \"#utility.yul\":487:491   */\n  0x24\n    /* \"#utility.yul\":484:485   */\n  0x00\n    /* \"#utility.yul\":477:492   */\n  revert\n    /* \"#utility.yul\":503:883   */\ntag_23:\n    /* \"#utility.yul\":582:583   */\n  0x01\n    /* \"#utility.yul\":578:590   */\n  dup2\n  dup2\n  shr\n  swap1\n    /* \"#utility.yul\":625:637   */\n  dup3\n  and\n  dup1\n    /* \"#utility.yul\":646:707   */\n  tag_31\n  jumpi\n    /* \"#utility.yul\":700:704   */\n  0x7f\n    /* \"#utility.yul\":692:698   */\n  dup3\n    /* \"#utility.yul\":688:705   */\n  and\n    /* \"#utility.yul\":678:705   */\n  swap2\n  pop\n    /* \"#utility.yul\":646:707   */\ntag_31:\n    /* \"#utility.yul\":753:755   */\n  0x20\n    /* \"#utility.yul\":745:751   */\n  dup3\n    /* \"#utility.yul\":742:756   */\n  lt\n    /* \"#utility.yul\":722:740   */\n  dup2\n    /* \"#utility.yul\":719:757   */\n  sub\n    /* \"#utility.yul\":716:877   */\n  tag_32\n  jumpi\n    /* \"#utility.yul\":799:809   */\n  0x4e487b71\n    /* \"#utility.yul\":794:797   */\n  0xe0\n    /* \"#utility.yul\":790:810   */\n  shl\n    /* \"#utility.yul\":787:788   */\n  0x00\n    /* \"#utility.yul\":780:811   */\n  mstore\n    /* \"#utility.yul\":834:838   */\n  0x22\n    /* \"#utility.yul\":831:832   */\n  0x04\n    /* \"#utility.yul\":824:839   */\n  mstore\n    /* \"#utility.yul\":862:866   */\n  0x24\n    /* \"#utility.yul\":859:860   */\n  0x00\n    /* \"#utility.yul\":852:867   */\n  revert\n    /* \"#utility.yul\":716:877   */\ntag_32:\n  pop\n    /* \"#utility.yul\":503:883   */\n  swap2\n  swap1\n  pop\n  jump\t// out\n    /* \"#utility.yul\":1014:1559   */\ntag_25:\n    /* \"#utility.yul\":1116:1118   */\n  0x1f\n    /* \"#utility.yul\":1111:1114   */\n  dup3\n    /* \"#utility.yul\":1108:1119   */\n  gt\n    /* \"#utility.yul\":1105:1553   */\n  iszero\n  tag_35\n  jumpi\n    /* \"#utility.yul\":1152:1153   */\n  0x00\n    /* \"#utility.yul\":1177:1182   */\n  dup2\n    /* \"#utility.yul\":1173:1175   */\n  dup2\n    /* \"#utility.yul\":1166:1183   */\n  mstore\n    /* \"#utility.yul\":1222:1226   */\n  0x20\n    /* \"#utility.yul\":1218:1220   */\n  dup2\n    /* \"#utility.yul\":1208:1227   */\n  keccak256\n    /* \"#utility.yul\":1292:1294   */\n  0x1f\n    /* \"#utility.yul\":1280:1290   */\n  dup6\n    /* \"#utility.yul\":1276:1295   */\n  add\n    /* \"#utility.yul\":1273:1274   */\n  0x05\n    /* \"#utility.yul\":1269:1296   */\n  shr\n    /* \"#utility.yul\":1263:1267   */\n  dup2\n    /* \"#utility.yul\":1259:1297   */\n  add\n    /* \"#utility.yul\":1328:1332   */\n  0x20\n    /* \"#utility.yul\":1316:1326   */\n  dup7\n    /* \"#utility.yul\":1313:1333   */\n  lt\n    /* \"#utility.yul\":1310:1357   */\n  iszero\n  tag_36\n  jumpi\n  pop\n    /* \"#utility.yul\":1351:1355   */\n  dup1\n    /* \"#utility.yul\":1310:1357   */\ntag_36:\n    /* \"#utility.yul\":1406:1408   */\n  0x1f\n    /* \"#utility.yul\":1401:1404   */\n  dup6\n    /* \"#utility.yul\":1397:1409   */\n  add\n    /* \"#utility.yul\":1394:1395   */\n  0x05\n    /* \"#utility.yul\":1390:1410   */\n  shr\n    /* \"#utility.yul\":1384:1388   */\n  dup3\n    /* \"#utility.yul\":1380:1411   */\n  add\n    /* \"#utility.yul\":1370:1411   */\n  swap2\n  pop\n    /* \"#utility.yul\":1461:1543   */\ntag_37:\n    /* \"#utility.yul\":1479:1481   */\n  dup2\n    /* \"#utility.yul\":1472:1477   */\n  dup2\n    /* \"#utility.yul\":1469:1482   */\n  lt\n    /* \"#utility.yul\":1461:1543   */\n  iszero\n  tag_39\n  jumpi\n    /* \"#utility.yul\":1524:1541   */\n  dup3\n  dup2\n  sstore\n    /* \"#utility.yul\":1505:1506   */\n  0x01\n    /* \"#utility.yul\":1494:1507   */\n  add\n    /* \"#utility.yul\":1461:1543   */\n  jump(tag_37)\ntag_39:\n    /* \"#utility.yul\":1465:1468   */\n  pop\n  pop\n  pop\n    /* \"#utility.yul\":1105:1553   */\ntag_35:\n    /* \"#utility.yul\":1014:1559   */\n  pop\n  pop\n  pop\n  jump\t// out\n    /* \"#utility.yul\":1735:3087   */\ntag_21:\n    /* \"#utility.yul\":1855:1865   */\n  dup2\n  mload\n  sub(shl(0x40, 0x01), 0x01)\n    /* \"#utility.yul\":1877:1907   */\n  dup2\n  gt\n    /* \"#utility.yul\":1874:1930   */\n  iszero\n  tag_43\n  jumpi\n    /* \"#utility.yul\":1910:1928   */\n  tag_43\n  tag_22\n  jump\t// in\ntag_43:\n    /* \"#utility.yul\":1939:2036   */\n  tag_44\n    /* \"#utility.yul\":2029:2035   */\n  dup2\n    /* \"#utility.yul\":1989:2027   */\n  tag_45\n    /* \"#utility.yul\":2021:2025   */\n  dup5\n    /* \"#utility.yul\":2015:2026   */\n  sload\n    /* \"#utility.yul\":1989:2027   */\n  tag_23\n  jump\t// in\ntag_45:\n    /* \"#utility.yul\":1983:1987   */\n  dup5\n    /* \"#utility.yul\":1939:2036   */\n  tag_25\n  jump\t// in\ntag_44:\n    /* \"#utility.yul\":2091:2095   */\n  0x20\n  dup1\n    /* \"#utility.yul\":2155:2157   */\n  0x1f\n    /* \"#utility.yul\":2144:2158   */\n  dup4\n  gt\n    /* \"#utility.yul\":2172:2173   */\n  0x01\n    /* \"#utility.yul\":2167:2830   */\n  dup2\n  eq\n  tag_47\n  jumpi\n    /* \"#utility.yul\":2874:2875   */\n  0x00\n    /* \"#utility.yul\":2891:2897   */\n  dup5\n    /* \"#utility.yul\":2888:2977   */\n  iszero\n  tag_48\n  jumpi\n  pop\n    /* \"#utility.yul\":2943:2962   */\n  dup6\n  dup4\n  add\n    /* \"#utility.yul\":2937:2963   */\n  mload\n    /* \"#utility.yul\":2888:2977   */\ntag_48:\n  not(0x00)\n    /* \"#utility.yul\":1692:1693   */\n  0x03\n    /* \"#utility.yul\":1688:1699   */\n  dup7\n  swap1\n  shl\n    /* \"#utility.yul\":1684:1708   */\n  shr\n    /* \"#utility.yul\":1680:1709   */\n  not\n    /* \"#utility.yul\":1670:1710   */\n  and\n    /* \"#utility.yul\":1716:1717   */\n  0x01\n    /* \"#utility.yul\":1712:1723   */\n  dup6\n  swap1\n  shl\n    /* \"#utility.yul\":1667:1724   */\n  or\n    /* \"#utility.yul\":2990:3071   */\n  dup6\n  sstore\n    /* \"#utility.yul\":2137:3081   */\n  jump(tag_39)\n    /* \"#utility.yul\":2167:2830   */\ntag_47:\n    /* \"#utility.yul\":961:962   */\n  0x00\n    /* \"#utility.yul\":954:968   */\n  dup6\n  dup2\n  mstore\n    /* \"#utility.yul\":998:1002   */\n  0x20\n    /* \"#utility.yul\":985:1003   */\n  dup2\n  keccak256\n  not(0x1f)\n    /* \"#utility.yul\":2203:2223   */\n  dup7\n  and\n  swap2\n    /* \"#utility.yul\":2321:2557   */\ntag_51:\n    /* \"#utility.yul\":2335:2342   */\n  dup3\n    /* \"#utility.yul\":2332:2333   */\n  dup2\n    /* \"#utility.yul\":2329:2343   */\n  lt\n    /* \"#utility.yul\":2321:2557   */\n  iszero\n  tag_53\n  jumpi\n    /* \"#utility.yul\":2424:2443   */\n  dup9\n  dup7\n  add\n    /* \"#utility.yul\":2418:2444   */\n  mload\n    /* \"#utility.yul\":2403:2445   */\n  dup3\n  sstore\n    /* \"#utility.yul\":2516:2543   */\n  swap5\n  dup5\n  add\n  swap5\n    /* \"#utility.yul\":2484:2485   */\n  0x01\n    /* \"#utility.yul\":2472:2486   */\n  swap1\n  swap2\n  add\n  swap1\n    /* \"#utility.yul\":2351:2370   */\n  dup5\n  add\n    /* \"#utility.yul\":2321:2557   */\n  jump(tag_51)\ntag_53:\n    /* \"#utility.yul\":2325:2328   */\n  pop\n    /* \"#utility.yul\":2585:2591   */\n  dup6\n    /* \"#utility.yul\":2576:2583   */\n  dup3\n    /* \"#utility.yul\":2573:2592   */\n  lt\n    /* \"#utility.yul\":2570:2771   */\n  iszero\n  tag_54\n  jumpi\n    /* \"#utility.yul\":2646:2665   */\n  dup8\n  dup6\n  add\n    /* \"#utility.yul\":2640:2666   */\n  mload\n  not(0x00)\n    /* \"#utility.yul\":2729:2730   */\n  0x03\n    /* \"#utility.yul\":2725:2739   */\n  dup9\n  swap1\n  shl\n    /* \"#utility.yul\":2741:2744   */\n  0xf8\n    /* \"#utility.yul\":2721:2745   */\n  and\n    /* \"#utility.yul\":2717:2754   */\n  shr\n    /* \"#utility.yul\":2713:2755   */\n  not\n    /* \"#utility.yul\":2698:2756   */\n  and\n    /* \"#utility.yul\":2683:2757   */\n  dup2\n  sstore\n    /* \"#utility.yul\":2570:2771   */\ntag_54:\n  pop\n  pop\n  pop\n  pop\n  pop\n    /* \"#utility.yul\":2817:2818   */\n  0x01\n    /* \"#utility.yul\":2801:2815   */\n  swap1\n  dup2\n  shl\n    /* \"#utility.yul\":2797:2819   */\n  add\n    /* \"#utility.yul\":2784:2820   */\n  swap1\n  sstore\n  pop\n    /* \"#utility.yul\":1735:3087   */\n  jump\t// out\ntag_27:\n    /* \"TTT_ERC1155Token-Jason.sol\":43127:43401  contract TTTERC1155 is ERC1155 {... */\n  dataSize(sub_0)\n  dup1\n  dataOffset(sub_0)\n  0x00\n  codecopy\n  0x00\n  return\nstop\ndata_9be393994f02169c966a8f7d954e5f555f9d6fdea83c170362ff79cf2c5ce4f1 68747470733a2f2f67616d652e6578616d706c652f6170692f6974656d2f7b69647d2e6a736f6e\n\nsub_0: assembly {\n        /* \"TTT_ERC1155Token-Jason.sol\":43127:43401  contract TTTERC1155 is ERC1155 {... */\n      mstore(0x40, 0x80)\n      callvalue\n      dup1\n      iszero\n      tag_1\n      jumpi\n      0x00\n      dup1\n      revert\n    tag_1:\n      pop\n      jumpi(tag_2, lt(calldatasize, 0x04))\n      shr(0xe0, calldataload(0x00))\n      dup1\n      0x2eb2c2d6\n      gt\n      tag_12\n      jumpi\n      dup1\n      0x2eb2c2d6\n      eq\n      tag_7\n      jumpi\n      dup1\n      0x4e1273f4\n      eq\n      tag_8\n      jumpi\n      dup1\n      0xa22cb465\n      eq\n      tag_9\n      jumpi\n      dup1\n      0xe985e9c5\n      eq\n      tag_10\n      jumpi\n      dup1\n      0xf242432a\n      eq\n      tag_11\n      jumpi\n      0x00\n      dup1\n      revert\n    tag_12:\n      dup1\n      0xfdd58e\n      eq\n      tag_3\n      jumpi\n      dup1\n      0x01ffc9a7\n      eq\n      tag_4\n      jumpi\n      dup1\n      0x0e89341c\n      eq\n      tag_5\n      jumpi\n      dup1\n      0x156e29f6\n      eq\n      tag_6\n      jumpi\n    tag_2:\n      0x00\n      dup1\n      revert\n        /* \"TTT_ERC1155Token-Jason.sol\":13681:13912  function balanceOf(address account, uint256 id) public view virtual override returns (uint256) {... */\n    tag_3:\n      tag_13\n      tag_14\n      calldatasize\n      0x04\n      tag_15\n      jump\t// in\n    tag_14:\n      tag_16\n      jump\t// in\n    tag_13:\n      mload(0x40)\n        /* \"#utility.yul\":597:622   */\n      swap1\n      dup2\n      mstore\n        /* \"#utility.yul\":585:587   */\n      0x20\n        /* \"#utility.yul\":570:588   */\n      add\n        /* \"TTT_ERC1155Token-Jason.sol\":13681:13912  function balanceOf(address account, uint256 id) public view virtual override returns (uint256) {... */\n    tag_17:\n      mload(0x40)\n      dup1\n      swap2\n      sub\n      swap1\n      return\n        /* \"TTT_ERC1155Token-Jason.sol\":2688:2838  function supportsInterface(bytes4 interfaceId) public view virtual override returns (bool) {... */\n    tag_4:\n      tag_19\n      tag_20\n      calldatasize\n      0x04\n      tag_21\n      jump\t// in\n    tag_20:\n      not(sub(shl(0xe0, 0x01), 0x01))\n        /* \"TTT_ERC1155Token-Jason.sol\":2797:2830  _supportedInterfaces[interfaceId] */\n      and\n        /* \"TTT_ERC1155Token-Jason.sol\":2773:2777  bool */\n      0x00\n        /* \"TTT_ERC1155Token-Jason.sol\":2797:2830  _supportedInterfaces[interfaceId] */\n      swap1\n      dup2\n      mstore\n      0x20\n      dup2\n      swap1\n      mstore\n      0x40\n      swap1\n      keccak256\n      sload\n      0xff\n      and\n      swap1\n        /* \"TTT_ERC1155Token-Jason.sol\":2688:2838  function supportsInterface(bytes4 interfaceId) public view virtual override returns (bool) {... */\n      jump\n    tag_19:\n      mload(0x40)\n        /* \"#utility.yul\":1184:1198   */\n      swap1\n      iszero\n        /* \"#utility.yul\":1177:1199   */\n      iszero\n        /* \"#utility.yul\":1159:1200   */\n      dup2\n      mstore\n        /* \"#utility.yul\":1147:1149   */\n      0x20\n        /* \"#utility.yul\":1132:1150   */\n      add\n        /* \"TTT_ERC1155Token-Jason.sol\":2688:2838  function supportsInterface(bytes4 interfaceId) public view virtual override returns (bool) {... */\n      tag_17\n        /* \"#utility.yul\":1019:1206   */\n      jump\n        /* \"TTT_ERC1155Token-Jason.sol\":13423:13530  function uri(uint256) external view virtual override returns (string memory) {... */\n    tag_5:\n      tag_25\n      tag_26\n      calldatasize\n      0x04\n      tag_27\n      jump\t// in\n    tag_26:\n      tag_28\n      jump\t// in\n    tag_25:\n      mload(0x40)\n      tag_17\n      swap2\n      swap1\n      tag_30\n      jump\t// in\n        /* \"TTT_ERC1155Token-Jason.sol\":43255:43398  function mint(address winer, uint256 id, uint256 value) external {... */\n    tag_6:\n      tag_31\n      tag_32\n      calldatasize\n      0x04\n      tag_33\n      jump\t// in\n    tag_32:\n      tag_34\n      jump\t// in\n    tag_31:\n      stop\n        /* \"TTT_ERC1155Token-Jason.sol\":16324:17544  function safeBatchTransferFrom(... */\n    tag_7:\n      tag_31\n      tag_36\n      calldatasize\n      0x04\n      tag_37\n      jump\t// in\n    tag_36:\n      tag_38\n      jump\t// in\n        /* \"TTT_ERC1155Token-Jason.sol\":14078:14627  function balanceOfBatch(... */\n    tag_8:\n      tag_39\n      tag_40\n      calldatasize\n      0x04\n      tag_41\n      jump\t// in\n    tag_40:\n      tag_42\n      jump\t// in\n    tag_39:\n      mload(0x40)\n      tag_17\n      swap2\n      swap1\n      tag_44\n      jump\t// in\n        /* \"TTT_ERC1155Token-Jason.sol\":14700:15011  function setApprovalForAll(address operator, bool approved) public virtual override {... */\n    tag_9:\n      tag_31\n      tag_46\n      calldatasize\n      0x04\n      tag_47\n      jump\t// in\n    tag_46:\n      tag_48\n      jump\t// in\n        /* \"TTT_ERC1155Token-Jason.sol\":15083:15251  function isApprovedForAll(address account, address operator) public view virtual override returns (bool) {... */\n    tag_10:\n      tag_19\n      tag_50\n      calldatasize\n      0x04\n      tag_51\n      jump\t// in\n    tag_50:\n      sub(shl(0xa0, 0x01), 0x01)\n        /* \"TTT_ERC1155Token-Jason.sol\":15206:15233  _operatorApprovals[account] */\n      swap2\n      dup3\n      and\n        /* \"TTT_ERC1155Token-Jason.sol\":15182:15186  bool */\n      0x00\n        /* \"TTT_ERC1155Token-Jason.sol\":15206:15233  _operatorApprovals[account] */\n      swap1\n      dup2\n      mstore\n        /* \"TTT_ERC1155Token-Jason.sol\":15206:15224  _operatorApprovals */\n      0x02\n        /* \"TTT_ERC1155Token-Jason.sol\":15206:15233  _operatorApprovals[account] */\n      0x20\n      swap1\n      dup2\n      mstore\n      0x40\n      dup1\n      dup4\n      keccak256\n        /* \"TTT_ERC1155Token-Jason.sol\":15206:15243  _operatorApprovals[account][operator] */\n      swap4\n      swap1\n      swap5\n      and\n      dup3\n      mstore\n      swap2\n      swap1\n      swap2\n      mstore\n      keccak256\n      sload\n      0xff\n      and\n      swap1\n        /* \"TTT_ERC1155Token-Jason.sol\":15083:15251  function isApprovedForAll(address account, address operator) public view virtual override returns (bool) {... */\n      jump\n        /* \"TTT_ERC1155Token-Jason.sol\":15323:16247  function safeTransferFrom(... */\n    tag_11:\n      tag_31\n      tag_55\n      calldatasize\n      0x04\n      tag_56\n      jump\t// in\n    tag_55:\n      tag_57\n      jump\t// in\n        /* \"TTT_ERC1155Token-Jason.sol\":13681:13912  function balanceOf(address account, uint256 id) public view virtual override returns (uint256) {... */\n    tag_16:\n        /* \"TTT_ERC1155Token-Jason.sol\":13767:13774  uint256 */\n      0x00\n      sub(shl(0xa0, 0x01), 0x01)\n        /* \"TTT_ERC1155Token-Jason.sol\":13795:13816  account != address(0) */\n      dup4\n      and\n        /* \"TTT_ERC1155Token-Jason.sol\":13787:13864  require(account != address(0), \"ERC1155: balance query for the zero address\") */\n      tag_59\n      jumpi\n      mload(0x40)\n      shl(0xe5, 0x461bcd)\n      dup2\n      mstore\n        /* \"#utility.yul\":8536:8538   */\n      0x20\n        /* \"TTT_ERC1155Token-Jason.sol\":13787:13864  require(account != address(0), \"ERC1155: balance query for the zero address\") */\n      0x04\n      dup3\n      add\n        /* \"#utility.yul\":8518:8539   */\n      mstore\n        /* \"#utility.yul\":8575:8577   */\n      0x2b\n        /* \"#utility.yul\":8555:8573   */\n      0x24\n      dup3\n      add\n        /* \"#utility.yul\":8548:8578   */\n      mstore\n        /* \"#utility.yul\":8614:8648   */\n      0x455243313135353a2062616c616e636520717565727920666f7220746865207a\n        /* \"#utility.yul\":8594:8612   */\n      0x44\n      dup3\n      add\n        /* \"#utility.yul\":8587:8649   */\n      mstore\n      shl(0xa8, 0x65726f2061646472657373)\n        /* \"#utility.yul\":8665:8683   */\n      0x64\n      dup3\n      add\n        /* \"#utility.yul\":8658:8699   */\n      mstore\n        /* \"#utility.yul\":8716:8735   */\n      0x84\n      add\n        /* \"TTT_ERC1155Token-Jason.sol\":13787:13864  require(account != address(0), \"ERC1155: balance query for the zero address\") */\n    tag_60:\n      mload(0x40)\n      dup1\n      swap2\n      sub\n      swap1\n      revert\n    tag_59:\n      pop\n        /* \"TTT_ERC1155Token-Jason.sol\":13882:13895  _balances[id] */\n      0x00\n      dup2\n      dup2\n      mstore\n        /* \"TTT_ERC1155Token-Jason.sol\":13882:13891  _balances */\n      0x01\n        /* \"TTT_ERC1155Token-Jason.sol\":13882:13895  _balances[id] */\n      0x20\n      swap1\n      dup2\n      mstore\n      0x40\n      dup1\n      dup4\n      keccak256\n      sub(shl(0xa0, 0x01), 0x01)\n        /* \"TTT_ERC1155Token-Jason.sol\":13882:13904  _balances[id][account] */\n      dup7\n      and\n      dup5\n      mstore\n      swap1\n      swap2\n      mstore\n      swap1\n      keccak256\n      sload\n        /* \"TTT_ERC1155Token-Jason.sol\":13681:13912  function balanceOf(address account, uint256 id) public view virtual override returns (uint256) {... */\n    tag_58:\n      swap3\n      swap2\n      pop\n      pop\n      jump\t// out\n        /* \"TTT_ERC1155Token-Jason.sol\":13423:13530  function uri(uint256) external view virtual override returns (string memory) {... */\n    tag_28:\n        /* \"TTT_ERC1155Token-Jason.sol\":13485:13498  string memory */\n      0x60\n        /* \"TTT_ERC1155Token-Jason.sol\":13518:13522  _uri */\n      0x03\n        /* \"TTT_ERC1155Token-Jason.sol\":13511:13522  return _uri */\n      dup1\n      sload\n      tag_64\n      swap1\n      tag_65\n      jump\t// in\n    tag_64:\n      dup1\n      0x1f\n      add\n      0x20\n      dup1\n      swap2\n      div\n      mul\n      0x20\n      add\n      mload(0x40)\n      swap1\n      dup2\n      add\n      0x40\n      mstore\n      dup1\n      swap3\n      swap2\n      swap1\n      dup2\n      dup2\n      mstore\n      0x20\n      add\n      dup3\n      dup1\n      sload\n      tag_66\n      swap1\n      tag_65\n      jump\t// in\n    tag_66:\n      dup1\n      iszero\n      tag_67\n      jumpi\n      dup1\n      0x1f\n      lt\n      tag_68\n      jumpi\n      0x0100\n      dup1\n      dup4\n      sload\n      div\n      mul\n      dup4\n      mstore\n      swap2\n      0x20\n      add\n      swap2\n      jump(tag_67)\n    tag_68:\n      dup3\n      add\n      swap2\n      swap1\n      0x00\n      mstore\n      keccak256(0x00, 0x20)\n      swap1\n    tag_69:\n      dup2\n      sload\n      dup2\n      mstore\n      swap1\n      0x01\n      add\n      swap1\n      0x20\n      add\n      dup1\n      dup4\n      gt\n      tag_69\n      jumpi\n      dup3\n      swap1\n      sub\n      0x1f\n      and\n      dup3\n      add\n      swap2\n    tag_67:\n      pop\n      pop\n      pop\n      pop\n      pop\n      swap1\n      pop\n        /* \"TTT_ERC1155Token-Jason.sol\":13423:13530  function uri(uint256) external view virtual override returns (string memory) {... */\n      swap2\n      swap1\n      pop\n      jump\t// out\n        /* \"TTT_ERC1155Token-Jason.sol\":43255:43398  function mint(address winer, uint256 id, uint256 value) external {... */\n    tag_34:\n        /* \"TTT_ERC1155Token-Jason.sol\":43331:43349  bytes memory empty */\n      0x60\n        /* \"TTT_ERC1155Token-Jason.sol\":43360:43390  _mint(winer, id, value, empty) */\n      tag_71\n        /* \"TTT_ERC1155Token-Jason.sol\":43366:43371  winer */\n      dup5\n        /* \"TTT_ERC1155Token-Jason.sol\":43373:43375  id */\n      dup5\n        /* \"TTT_ERC1155Token-Jason.sol\":43377:43382  value */\n      dup5\n        /* \"TTT_ERC1155Token-Jason.sol\":43384:43389  empty */\n      dup5\n        /* \"TTT_ERC1155Token-Jason.sol\":43360:43365  _mint */\n      tag_72\n        /* \"TTT_ERC1155Token-Jason.sol\":43360:43390  _mint(winer, id, value, empty) */\n      jump\t// in\n    tag_71:\n        /* \"TTT_ERC1155Token-Jason.sol\":43320:43398  {... */\n      pop\n        /* \"TTT_ERC1155Token-Jason.sol\":43255:43398  function mint(address winer, uint256 id, uint256 value) external {... */\n      pop\n      pop\n      pop\n      jump\t// out\n        /* \"TTT_ERC1155Token-Jason.sol\":16324:17544  function safeBatchTransferFrom(... */\n    tag_38:\n        /* \"TTT_ERC1155Token-Jason.sol\":16589:16596  amounts */\n      dup2\n        /* \"TTT_ERC1155Token-Jason.sol\":16589:16603  amounts.length */\n      mload\n        /* \"TTT_ERC1155Token-Jason.sol\":16575:16578  ids */\n      dup4\n        /* \"TTT_ERC1155Token-Jason.sol\":16575:16585  ids.length */\n      mload\n        /* \"TTT_ERC1155Token-Jason.sol\":16575:16603  ids.length == amounts.length */\n      eq\n        /* \"TTT_ERC1155Token-Jason.sol\":16567:16648  require(ids.length == amounts.length, \"ERC1155: ids and amounts length mismatch\") */\n      tag_74\n      jumpi\n      mload(0x40)\n      shl(0xe5, 0x461bcd)\n      dup2\n      mstore\n        /* \"#utility.yul\":9333:9335   */\n      0x20\n        /* \"TTT_ERC1155Token-Jason.sol\":16567:16648  require(ids.length == amounts.length, \"ERC1155: ids and amounts length mismatch\") */\n      0x04\n      dup3\n      add\n        /* \"#utility.yul\":9315:9336   */\n      mstore\n        /* \"#utility.yul\":9372:9374   */\n      0x28\n        /* \"#utility.yul\":9352:9370   */\n      0x24\n      dup3\n      add\n        /* \"#utility.yul\":9345:9375   */\n      mstore\n        /* \"#utility.yul\":9411:9445   */\n      0x455243313135353a2069647320616e6420616d6f756e7473206c656e67746820\n        /* \"#utility.yul\":9391:9409   */\n      0x44\n      dup3\n      add\n        /* \"#utility.yul\":9384:9446   */\n      mstore\n      shl(0xc3, 0x0dad2e6dac2e8c6d)\n        /* \"#utility.yul\":9462:9480   */\n      0x64\n      dup3\n      add\n        /* \"#utility.yul\":9455:9493   */\n      mstore\n        /* \"#utility.yul\":9510:9529   */\n      0x84\n      add\n        /* \"TTT_ERC1155Token-Jason.sol\":16567:16648  require(ids.length == amounts.length, \"ERC1155: ids and amounts length mismatch\") */\n      tag_60\n        /* \"#utility.yul\":9131:9535   */\n      jump\n        /* \"TTT_ERC1155Token-Jason.sol\":16567:16648  require(ids.length == amounts.length, \"ERC1155: ids and amounts length mismatch\") */\n    tag_74:\n      sub(shl(0xa0, 0x01), 0x01)\n        /* \"TTT_ERC1155Token-Jason.sol\":16667:16683  to != address(0) */\n      dup5\n      and\n        /* \"TTT_ERC1155Token-Jason.sol\":16659:16725  require(to != address(0), \"ERC1155: transfer to the zero address\") */\n      tag_77\n      jumpi\n      mload(0x40)\n      shl(0xe5, 0x461bcd)\n      dup2\n      mstore\n      0x04\n      add\n      tag_60\n      swap1\n      tag_79\n      jump\t// in\n    tag_77:\n      sub(shl(0xa0, 0x01), 0x01)\n        /* \"TTT_ERC1155Token-Jason.sol\":16758:16778  from == _msgSender() */\n      dup6\n      and\n        /* \"TTT_ERC1155Token-Jason.sol\":1697:1707  msg.sender */\n      caller\n        /* \"TTT_ERC1155Token-Jason.sol\":16758:16778  from == _msgSender() */\n      eq\n      dup1\n        /* \"TTT_ERC1155Token-Jason.sol\":16758:16818  from == _msgSender() || isApprovedForAll(from, _msgSender()) */\n      tag_83\n      jumpi\n      pop\n        /* \"TTT_ERC1155Token-Jason.sol\":16782:16818  isApprovedForAll(from, _msgSender()) */\n      tag_83\n        /* \"TTT_ERC1155Token-Jason.sol\":16799:16803  from */\n      dup6\n        /* \"TTT_ERC1155Token-Jason.sol\":1697:1707  msg.sender */\n      caller\n        /* \"TTT_ERC1155Token-Jason.sol\":15083:15251  function isApprovedForAll(address account, address operator) public view virtual override returns (bool) {... */\n      tag_50\n      jump\t// in\n        /* \"TTT_ERC1155Token-Jason.sol\":16782:16818  isApprovedForAll(from, _msgSender()) */\n    tag_83:\n        /* \"TTT_ERC1155Token-Jason.sol\":16736:16896  require(... */\n      tag_85\n      jumpi\n      mload(0x40)\n      shl(0xe5, 0x461bcd)\n      dup2\n      mstore\n        /* \"#utility.yul\":10148:10150   */\n      0x20\n        /* \"TTT_ERC1155Token-Jason.sol\":16736:16896  require(... */\n      0x04\n      dup3\n      add\n        /* \"#utility.yul\":10130:10151   */\n      mstore\n        /* \"#utility.yul\":10187:10189   */\n      0x32\n        /* \"#utility.yul\":10167:10185   */\n      0x24\n      dup3\n      add\n        /* \"#utility.yul\":10160:10190   */\n      mstore\n        /* \"#utility.yul\":10226:10260   */\n      0x455243313135353a207472616e736665722063616c6c6572206973206e6f7420\n        /* \"#utility.yul\":10206:10224   */\n      0x44\n      dup3\n      add\n        /* \"#utility.yul\":10199:10261   */\n      mstore\n      shl(0x72, 0x1bdddb995c881b9bdc88185c1c1c9bdd9959)\n        /* \"#utility.yul\":10277:10295   */\n      0x64\n      dup3\n      add\n        /* \"#utility.yul\":10270:10318   */\n      mstore\n        /* \"#utility.yul\":10335:10354   */\n      0x84\n      add\n        /* \"TTT_ERC1155Token-Jason.sol\":16736:16896  require(... */\n      tag_60\n        /* \"#utility.yul\":9946:10360   */\n      jump\n        /* \"TTT_ERC1155Token-Jason.sol\":16736:16896  require(... */\n    tag_85:\n        /* \"TTT_ERC1155Token-Jason.sol\":1697:1707  msg.sender */\n      caller\n        /* \"TTT_ERC1155Token-Jason.sol\":16909:16925  address operator */\n      0x00\n        /* \"TTT_ERC1155Token-Jason.sol\":17026:17384  for (uint256 i = 0; i < ids.length; ++i) {... */\n    tag_91:\n        /* \"TTT_ERC1155Token-Jason.sol\":17050:17053  ids */\n      dup5\n        /* \"TTT_ERC1155Token-Jason.sol\":17050:17060  ids.length */\n      mload\n        /* \"TTT_ERC1155Token-Jason.sol\":17046:17047  i */\n      dup2\n        /* \"TTT_ERC1155Token-Jason.sol\":17046:17060  i < ids.length */\n      lt\n        /* \"TTT_ERC1155Token-Jason.sol\":17026:17384  for (uint256 i = 0; i < ids.length; ++i) {... */\n      iszero\n      tag_92\n      jumpi\n        /* \"TTT_ERC1155Token-Jason.sol\":17082:17092  uint256 id */\n      0x00\n        /* \"TTT_ERC1155Token-Jason.sol\":17095:17098  ids */\n      dup6\n        /* \"TTT_ERC1155Token-Jason.sol\":17099:17100  i */\n      dup3\n        /* \"TTT_ERC1155Token-Jason.sol\":17095:17101  ids[i] */\n      dup2\n      mload\n      dup2\n      lt\n      tag_95\n      jumpi\n      tag_95\n      tag_96\n      jump\t// in\n    tag_95:\n      0x20\n      mul\n      0x20\n      add\n      add\n      mload\n        /* \"TTT_ERC1155Token-Jason.sol\":17082:17101  uint256 id = ids[i] */\n      swap1\n      pop\n        /* \"TTT_ERC1155Token-Jason.sol\":17116:17130  uint256 amount */\n      0x00\n        /* \"TTT_ERC1155Token-Jason.sol\":17133:17140  amounts */\n      dup6\n        /* \"TTT_ERC1155Token-Jason.sol\":17141:17142  i */\n      dup4\n        /* \"TTT_ERC1155Token-Jason.sol\":17133:17143  amounts[i] */\n      dup2\n      mload\n      dup2\n      lt\n      tag_98\n      jumpi\n      tag_98\n      tag_96\n      jump\t// in\n    tag_98:\n      0x20\n      mul\n      0x20\n      add\n      add\n      mload\n        /* \"TTT_ERC1155Token-Jason.sol\":17116:17143  uint256 amount = amounts[i] */\n      swap1\n      pop\n        /* \"TTT_ERC1155Token-Jason.sol\":17182:17308  _balances[id][from].sub(... */\n      tag_99\n        /* \"TTT_ERC1155Token-Jason.sol\":17224:17230  amount */\n      dup2\n        /* \"TTT_ERC1155Token-Jason.sol\":17182:17308  _balances[id][from].sub(... */\n      mload(0x40)\n      dup1\n      0x60\n      add\n      0x40\n      mstore\n      dup1\n      0x2a\n      dup2\n      mstore\n      0x20\n      add\n      data_8ac7e9556b567c1c94bb4daaa3c3a65be5ac686579615210cb910fb8cb8d65bf\n      0x2a\n      swap2\n      codecopy\n        /* \"TTT_ERC1155Token-Jason.sol\":17182:17191  _balances */\n      0x01\n        /* \"TTT_ERC1155Token-Jason.sol\":17182:17195  _balances[id] */\n      0x00\n        /* \"TTT_ERC1155Token-Jason.sol\":17192:17194  id */\n      dup7\n        /* \"TTT_ERC1155Token-Jason.sol\":17182:17195  _balances[id] */\n      dup2\n      mstore\n      0x20\n      add\n      swap1\n      dup2\n      mstore\n      0x20\n      add\n      0x00\n      keccak256\n        /* \"TTT_ERC1155Token-Jason.sol\":17182:17201  _balances[id][from] */\n      0x00\n        /* \"TTT_ERC1155Token-Jason.sol\":17196:17200  from */\n      dup14\n      sub(shl(0xa0, 0x01), 0x01)\n        /* \"TTT_ERC1155Token-Jason.sol\":17182:17201  _balances[id][from] */\n      and\n      sub(shl(0xa0, 0x01), 0x01)\n      and\n      dup2\n      mstore\n      0x20\n      add\n      swap1\n      dup2\n      mstore\n      0x20\n      add\n      0x00\n      keccak256\n      sload\n        /* \"TTT_ERC1155Token-Jason.sol\":17182:17205  _balances[id][from].sub */\n      tag_100\n      swap1\n        /* \"TTT_ERC1155Token-Jason.sol\":17182:17308  _balances[id][from].sub(... */\n      swap3\n      swap2\n      swap1\n      0xffffffff\n      and\n      jump\t// in\n    tag_99:\n        /* \"TTT_ERC1155Token-Jason.sol\":17160:17173  _balances[id] */\n      0x00\n      dup4\n      dup2\n      mstore\n        /* \"TTT_ERC1155Token-Jason.sol\":17160:17169  _balances */\n      0x01\n        /* \"TTT_ERC1155Token-Jason.sol\":17160:17173  _balances[id] */\n      0x20\n      swap1\n      dup2\n      mstore\n      0x40\n      dup1\n      dup4\n      keccak256\n      sub(shl(0xa0, 0x01), 0x01)\n        /* \"TTT_ERC1155Token-Jason.sol\":17160:17179  _balances[id][from] */\n      dup15\n      dup2\n      and\n      dup6\n      mstore\n      swap3\n      mstore\n      dup1\n      dup4\n      keccak256\n        /* \"TTT_ERC1155Token-Jason.sol\":17160:17308  _balances[id][from] = _balances[id][from].sub(... */\n      swap4\n      swap1\n      swap4\n      sstore\n        /* \"TTT_ERC1155Token-Jason.sol\":17343:17360  _balances[id][to] */\n      dup11\n      and\n      dup2\n      mstore\n      keccak256\n      sload\n        /* \"TTT_ERC1155Token-Jason.sol\":17343:17372  _balances[id][to].add(amount) */\n      tag_101\n      swap1\n        /* \"TTT_ERC1155Token-Jason.sol\":17365:17371  amount */\n      dup3\n        /* \"TTT_ERC1155Token-Jason.sol\":17343:17364  _balances[id][to].add */\n      tag_102\n        /* \"TTT_ERC1155Token-Jason.sol\":17343:17372  _balances[id][to].add(amount) */\n      jump\t// in\n    tag_101:\n        /* \"TTT_ERC1155Token-Jason.sol\":17323:17336  _balances[id] */\n      0x00\n      swap3\n      dup4\n      mstore\n        /* \"TTT_ERC1155Token-Jason.sol\":17323:17332  _balances */\n      0x01\n        /* \"TTT_ERC1155Token-Jason.sol\":17323:17336  _balances[id] */\n      0x20\n      swap1\n      dup2\n      mstore\n      0x40\n      dup1\n      dup6\n      keccak256\n      sub(shl(0xa0, 0x01), 0x01)\n        /* \"TTT_ERC1155Token-Jason.sol\":17323:17340  _balances[id][to] */\n      dup13\n      and\n      dup7\n      mstore\n      swap1\n      swap2\n      mstore\n      swap1\n      swap3\n      keccak256\n        /* \"TTT_ERC1155Token-Jason.sol\":17323:17372  _balances[id][to] = _balances[id][to].add(amount) */\n      swap2\n      swap1\n      swap2\n      sstore\n      pop\n        /* \"TTT_ERC1155Token-Jason.sol\":17062:17065  ++i */\n      tag_103\n      dup2\n      tag_104\n      jump\t// in\n    tag_103:\n      swap1\n      pop\n        /* \"TTT_ERC1155Token-Jason.sol\":17026:17384  for (uint256 i = 0; i < ids.length; ++i) {... */\n      jump(tag_91)\n    tag_92:\n      pop\n        /* \"TTT_ERC1155Token-Jason.sol\":17431:17433  to */\n      dup5\n      sub(shl(0xa0, 0x01), 0x01)\n        /* \"TTT_ERC1155Token-Jason.sol\":17401:17448  TransferBatch(operator, from, to, ids, amounts) */\n      and\n        /* \"TTT_ERC1155Token-Jason.sol\":17425:17429  from */\n      dup7\n      sub(shl(0xa0, 0x01), 0x01)\n        /* \"TTT_ERC1155Token-Jason.sol\":17401:17448  TransferBatch(operator, from, to, ids, amounts) */\n      and\n        /* \"TTT_ERC1155Token-Jason.sol\":17415:17423  operator */\n      dup3\n      sub(shl(0xa0, 0x01), 0x01)\n        /* \"TTT_ERC1155Token-Jason.sol\":17401:17448  TransferBatch(operator, from, to, ids, amounts) */\n      and\n      0x4a39dc06d4c0dbc64b70af90fd698a233a518aa5d07e595d983b8c0526c8f7fb\n        /* \"TTT_ERC1155Token-Jason.sol\":17435:17438  ids */\n      dup8\n        /* \"TTT_ERC1155Token-Jason.sol\":17440:17447  amounts */\n      dup8\n        /* \"TTT_ERC1155Token-Jason.sol\":17401:17448  TransferBatch(operator, from, to, ids, amounts) */\n      mload(0x40)\n      tag_105\n      swap3\n      swap2\n      swap1\n      tag_106\n      jump\t// in\n    tag_105:\n      mload(0x40)\n      dup1\n      swap2\n      sub\n      swap1\n      log4\n        /* \"TTT_ERC1155Token-Jason.sol\":17461:17536  _doSafeBatchTransferAcceptanceCheck(operator, from, to, ids, amounts, data) */\n      tag_107\n        /* \"TTT_ERC1155Token-Jason.sol\":17497:17505  operator */\n      dup2\n        /* \"TTT_ERC1155Token-Jason.sol\":17507:17511  from */\n      dup8\n        /* \"TTT_ERC1155Token-Jason.sol\":17513:17515  to */\n      dup8\n        /* \"TTT_ERC1155Token-Jason.sol\":17517:17520  ids */\n      dup8\n        /* \"TTT_ERC1155Token-Jason.sol\":17522:17529  amounts */\n      dup8\n        /* \"TTT_ERC1155Token-Jason.sol\":17531:17535  data */\n      dup8\n        /* \"TTT_ERC1155Token-Jason.sol\":17461:17496  _doSafeBatchTransferAcceptanceCheck */\n      tag_108\n        /* \"TTT_ERC1155Token-Jason.sol\":17461:17536  _doSafeBatchTransferAcceptanceCheck(operator, from, to, ids, amounts, data) */\n      jump\t// in\n    tag_107:\n        /* \"TTT_ERC1155Token-Jason.sol\":16556:17544  {... */\n      pop\n        /* \"TTT_ERC1155Token-Jason.sol\":16324:17544  function safeBatchTransferFrom(... */\n      pop\n      pop\n      pop\n      pop\n      pop\n      jump\t// out\n        /* \"TTT_ERC1155Token-Jason.sol\":14078:14627  function balanceOfBatch(... */\n    tag_42:\n        /* \"TTT_ERC1155Token-Jason.sol\":14259:14275  uint256[] memory */\n      0x60\n        /* \"TTT_ERC1155Token-Jason.sol\":14320:14323  ids */\n      dup2\n        /* \"TTT_ERC1155Token-Jason.sol\":14320:14330  ids.length */\n      mload\n        /* \"TTT_ERC1155Token-Jason.sol\":14301:14309  accounts */\n      dup4\n        /* \"TTT_ERC1155Token-Jason.sol\":14301:14316  accounts.length */\n      mload\n        /* \"TTT_ERC1155Token-Jason.sol\":14301:14330  accounts.length == ids.length */\n      eq\n        /* \"TTT_ERC1155Token-Jason.sol\":14293:14376  require(accounts.length == ids.length, \"ERC1155: accounts and ids length mismatch\") */\n      tag_110\n      jumpi\n      mload(0x40)\n      shl(0xe5, 0x461bcd)\n      dup2\n      mstore\n        /* \"#utility.yul\":11441:11443   */\n      0x20\n        /* \"TTT_ERC1155Token-Jason.sol\":14293:14376  require(accounts.length == ids.length, \"ERC1155: accounts and ids length mismatch\") */\n      0x04\n      dup3\n      add\n        /* \"#utility.yul\":11423:11444   */\n      mstore\n        /* \"#utility.yul\":11480:11482   */\n      0x29\n        /* \"#utility.yul\":11460:11478   */\n      0x24\n      dup3\n      add\n        /* \"#utility.yul\":11453:11483   */\n      mstore\n        /* \"#utility.yul\":11519:11553   */\n      0x455243313135353a206163636f756e747320616e6420696473206c656e677468\n        /* \"#utility.yul\":11499:11517   */\n      0x44\n      dup3\n      add\n        /* \"#utility.yul\":11492:11554   */\n      mstore\n      shl(0xbb, 0x040dad2e6dac2e8c6d)\n        /* \"#utility.yul\":11570:11588   */\n      0x64\n      dup3\n      add\n        /* \"#utility.yul\":11563:11602   */\n      mstore\n        /* \"#utility.yul\":11619:11638   */\n      0x84\n      add\n        /* \"TTT_ERC1155Token-Jason.sol\":14293:14376  require(accounts.length == ids.length, \"ERC1155: accounts and ids length mismatch\") */\n      tag_60\n        /* \"#utility.yul\":11239:11644   */\n      jump\n        /* \"TTT_ERC1155Token-Jason.sol\":14293:14376  require(accounts.length == ids.length, \"ERC1155: accounts and ids length mismatch\") */\n    tag_110:\n        /* \"TTT_ERC1155Token-Jason.sol\":14389:14419  uint256[] memory batchBalances */\n      0x00\n        /* \"TTT_ERC1155Token-Jason.sol\":14436:14444  accounts */\n      dup4\n        /* \"TTT_ERC1155Token-Jason.sol\":14436:14451  accounts.length */\n      mload\n        /* \"TTT_ERC1155Token-Jason.sol\":14422:14452  new uint256[](accounts.length) */\n      0xffffffffffffffff\n      dup2\n      gt\n      iszero\n      tag_114\n      jumpi\n      tag_114\n      tag_115\n      jump\t// in\n    tag_114:\n      mload(0x40)\n      swap1\n      dup1\n      dup3\n      mstore\n      dup1\n      0x20\n      mul\n      0x20\n      add\n      dup3\n      add\n      0x40\n      mstore\n      dup1\n      iszero\n      tag_116\n      jumpi\n      dup2\n      0x20\n      add\n      0x20\n      dup3\n      mul\n      dup1\n      calldatasize\n      dup4\n      calldatacopy\n      add\n      swap1\n      pop\n    tag_116:\n      pop\n        /* \"TTT_ERC1155Token-Jason.sol\":14389:14452  uint256[] memory batchBalances = new uint256[](accounts.length) */\n      swap1\n      pop\n        /* \"TTT_ERC1155Token-Jason.sol\":14470:14479  uint256 i */\n      0x00\n        /* \"TTT_ERC1155Token-Jason.sol\":14465:14587  for (uint256 i = 0; i < accounts.length; ++i) {... */\n    tag_117:\n        /* \"TTT_ERC1155Token-Jason.sol\":14489:14497  accounts */\n      dup5\n        /* \"TTT_ERC1155Token-Jason.sol\":14489:14504  accounts.length */\n      mload\n        /* \"TTT_ERC1155Token-Jason.sol\":14485:14486  i */\n      dup2\n        /* \"TTT_ERC1155Token-Jason.sol\":14485:14504  i < accounts.length */\n      lt\n        /* \"TTT_ERC1155Token-Jason.sol\":14465:14587  for (uint256 i = 0; i < accounts.length; ++i) {... */\n      iszero\n      tag_118\n      jumpi\n        /* \"TTT_ERC1155Token-Jason.sol\":14545:14575  balanceOf(accounts[i], ids[i]) */\n      tag_120\n        /* \"TTT_ERC1155Token-Jason.sol\":14555:14563  accounts */\n      dup6\n        /* \"TTT_ERC1155Token-Jason.sol\":14564:14565  i */\n      dup3\n        /* \"TTT_ERC1155Token-Jason.sol\":14555:14566  accounts[i] */\n      dup2\n      mload\n      dup2\n      lt\n      tag_122\n      jumpi\n      tag_122\n      tag_96\n      jump\t// in\n    tag_122:\n      0x20\n      mul\n      0x20\n      add\n      add\n      mload\n        /* \"TTT_ERC1155Token-Jason.sol\":14568:14571  ids */\n      dup6\n        /* \"TTT_ERC1155Token-Jason.sol\":14572:14573  i */\n      dup4\n        /* \"TTT_ERC1155Token-Jason.sol\":14568:14574  ids[i] */\n      dup2\n      mload\n      dup2\n      lt\n      tag_124\n      jumpi\n      tag_124\n      tag_96\n      jump\t// in\n    tag_124:\n      0x20\n      mul\n      0x20\n      add\n      add\n      mload\n        /* \"TTT_ERC1155Token-Jason.sol\":14545:14554  balanceOf */\n      tag_16\n        /* \"TTT_ERC1155Token-Jason.sol\":14545:14575  balanceOf(accounts[i], ids[i]) */\n      jump\t// in\n    tag_120:\n        /* \"TTT_ERC1155Token-Jason.sol\":14526:14539  batchBalances */\n      dup3\n        /* \"TTT_ERC1155Token-Jason.sol\":14540:14541  i */\n      dup3\n        /* \"TTT_ERC1155Token-Jason.sol\":14526:14542  batchBalances[i] */\n      dup2\n      mload\n      dup2\n      lt\n      tag_126\n      jumpi\n      tag_126\n      tag_96\n      jump\t// in\n    tag_126:\n      0x20\n      swap1\n      dup2\n      mul\n      swap2\n      swap1\n      swap2\n      add\n      add\n        /* \"TTT_ERC1155Token-Jason.sol\":14526:14575  batchBalances[i] = balanceOf(accounts[i], ids[i]) */\n      mstore\n        /* \"TTT_ERC1155Token-Jason.sol\":14506:14509  ++i */\n      tag_127\n      dup2\n      tag_104\n      jump\t// in\n    tag_127:\n      swap1\n      pop\n        /* \"TTT_ERC1155Token-Jason.sol\":14465:14587  for (uint256 i = 0; i < accounts.length; ++i) {... */\n      jump(tag_117)\n    tag_118:\n      pop\n        /* \"TTT_ERC1155Token-Jason.sol\":14606:14619  batchBalances */\n      swap4\n        /* \"TTT_ERC1155Token-Jason.sol\":14078:14627  function balanceOfBatch(... */\n      swap3\n      pop\n      pop\n      pop\n      jump\t// out\n        /* \"TTT_ERC1155Token-Jason.sol\":14700:15011  function setApprovalForAll(address operator, bool approved) public virtual override {... */\n    tag_48:\n      sub(shl(0xa0, 0x01), 0x01)\n        /* \"TTT_ERC1155Token-Jason.sol\":14803:14827  _msgSender() != operator */\n      dup3\n      and\n        /* \"TTT_ERC1155Token-Jason.sol\":1697:1707  msg.sender */\n      caller\n        /* \"TTT_ERC1155Token-Jason.sol\":14803:14827  _msgSender() != operator */\n      sub\n        /* \"TTT_ERC1155Token-Jason.sol\":14795:14873  require(_msgSender() != operator, \"ERC1155: setting approval status for self\") */\n      tag_130\n      jumpi\n      mload(0x40)\n      shl(0xe5, 0x461bcd)\n      dup2\n      mstore\n        /* \"#utility.yul\":11851:11853   */\n      0x20\n        /* \"TTT_ERC1155Token-Jason.sol\":14795:14873  require(_msgSender() != operator, \"ERC1155: setting approval status for self\") */\n      0x04\n      dup3\n      add\n        /* \"#utility.yul\":11833:11854   */\n      mstore\n        /* \"#utility.yul\":11890:11892   */\n      0x29\n        /* \"#utility.yul\":11870:11888   */\n      0x24\n      dup3\n      add\n        /* \"#utility.yul\":11863:11893   */\n      mstore\n        /* \"#utility.yul\":11929:11963   */\n      0x455243313135353a2073657474696e6720617070726f76616c20737461747573\n        /* \"#utility.yul\":11909:11927   */\n      0x44\n      dup3\n      add\n        /* \"#utility.yul\":11902:11964   */\n      mstore\n      shl(0xb9, 0x103337b91039b2b633)\n        /* \"#utility.yul\":11980:11998   */\n      0x64\n      dup3\n      add\n        /* \"#utility.yul\":11973:12012   */\n      mstore\n        /* \"#utility.yul\":12029:12048   */\n      0x84\n      add\n        /* \"TTT_ERC1155Token-Jason.sol\":14795:14873  require(_msgSender() != operator, \"ERC1155: setting approval status for self\") */\n      tag_60\n        /* \"#utility.yul\":11649:12054   */\n      jump\n        /* \"TTT_ERC1155Token-Jason.sol\":14795:14873  require(_msgSender() != operator, \"ERC1155: setting approval status for self\") */\n    tag_130:\n        /* \"TTT_ERC1155Token-Jason.sol\":1697:1707  msg.sender */\n      caller\n        /* \"TTT_ERC1155Token-Jason.sol\":14886:14918  _operatorApprovals[_msgSender()] */\n      0x00\n      dup2\n      dup2\n      mstore\n        /* \"TTT_ERC1155Token-Jason.sol\":14886:14904  _operatorApprovals */\n      0x02\n        /* \"TTT_ERC1155Token-Jason.sol\":14886:14918  _operatorApprovals[_msgSender()] */\n      0x20\n      swap1\n      dup2\n      mstore\n      0x40\n      dup1\n      dup4\n      keccak256\n      sub(shl(0xa0, 0x01), 0x01)\n        /* \"TTT_ERC1155Token-Jason.sol\":14886:14928  _operatorApprovals[_msgSender()][operator] */\n      dup8\n      and\n      dup1\n      dup6\n      mstore\n      swap1\n      dup4\n      mstore\n      swap3\n      dup2\n      swap1\n      keccak256\n        /* \"TTT_ERC1155Token-Jason.sol\":14886:14939  _operatorApprovals[_msgSender()][operator] = approved */\n      dup1\n      sload\n      not(0xff)\n      and\n      dup7\n      iszero\n      iszero\n      swap1\n      dup2\n      or\n      swap1\n      swap2\n      sstore\n        /* \"TTT_ERC1155Token-Jason.sol\":14955:15003  ApprovalForAll(_msgSender(), operator, approved) */\n      swap1\n      mload\n        /* \"#utility.yul\":1159:1200   */\n      swap1\n      dup2\n      mstore\n        /* \"TTT_ERC1155Token-Jason.sol\":14886:14928  _operatorApprovals[_msgSender()][operator] */\n      swap2\n      swap3\n        /* \"TTT_ERC1155Token-Jason.sol\":1697:1707  msg.sender */\n      swap2\n        /* \"TTT_ERC1155Token-Jason.sol\":14955:15003  ApprovalForAll(_msgSender(), operator, approved) */\n      0x17307eab39ab6107e8899845ad3d59bd9653f200f220920489ca2b5937696c31\n      swap2\n        /* \"#utility.yul\":1132:1150   */\n      add\n        /* \"TTT_ERC1155Token-Jason.sol\":14955:15003  ApprovalForAll(_msgSender(), operator, approved) */\n      mload(0x40)\n      dup1\n      swap2\n      sub\n      swap1\n      log3\n        /* \"TTT_ERC1155Token-Jason.sol\":14700:15011  function setApprovalForAll(address operator, bool approved) public virtual override {... */\n      pop\n      pop\n      jump\t// out\n        /* \"TTT_ERC1155Token-Jason.sol\":15323:16247  function safeTransferFrom(... */\n    tag_57:\n      sub(shl(0xa0, 0x01), 0x01)\n        /* \"TTT_ERC1155Token-Jason.sol\":15549:15565  to != address(0) */\n      dup5\n      and\n        /* \"TTT_ERC1155Token-Jason.sol\":15541:15607  require(to != address(0), \"ERC1155: transfer to the zero address\") */\n      tag_138\n      jumpi\n      mload(0x40)\n      shl(0xe5, 0x461bcd)\n      dup2\n      mstore\n      0x04\n      add\n      tag_60\n      swap1\n      tag_79\n      jump\t// in\n    tag_138:\n      sub(shl(0xa0, 0x01), 0x01)\n        /* \"TTT_ERC1155Token-Jason.sol\":15640:15660  from == _msgSender() */\n      dup6\n      and\n        /* \"TTT_ERC1155Token-Jason.sol\":1697:1707  msg.sender */\n      caller\n        /* \"TTT_ERC1155Token-Jason.sol\":15640:15660  from == _msgSender() */\n      eq\n      dup1\n        /* \"TTT_ERC1155Token-Jason.sol\":15640:15700  from == _msgSender() || isApprovedForAll(from, _msgSender()) */\n      tag_142\n      jumpi\n      pop\n        /* \"TTT_ERC1155Token-Jason.sol\":15664:15700  isApprovedForAll(from, _msgSender()) */\n      tag_142\n        /* \"TTT_ERC1155Token-Jason.sol\":15681:15685  from */\n      dup6\n        /* \"TTT_ERC1155Token-Jason.sol\":1697:1707  msg.sender */\n      caller\n        /* \"TTT_ERC1155Token-Jason.sol\":15083:15251  function isApprovedForAll(address account, address operator) public view virtual override returns (bool) {... */\n      tag_50\n      jump\t// in\n        /* \"TTT_ERC1155Token-Jason.sol\":15664:15700  isApprovedForAll(from, _msgSender()) */\n    tag_142:\n        /* \"TTT_ERC1155Token-Jason.sol\":15618:15769  require(... */\n      tag_144\n      jumpi\n      mload(0x40)\n      shl(0xe5, 0x461bcd)\n      dup2\n      mstore\n        /* \"#utility.yul\":12261:12263   */\n      0x20\n        /* \"TTT_ERC1155Token-Jason.sol\":15618:15769  require(... */\n      0x04\n      dup3\n      add\n        /* \"#utility.yul\":12243:12264   */\n      mstore\n        /* \"#utility.yul\":12300:12302   */\n      0x29\n        /* \"#utility.yul\":12280:12298   */\n      0x24\n      dup3\n      add\n        /* \"#utility.yul\":12273:12303   */\n      mstore\n        /* \"#utility.yul\":12339:12373   */\n      0x455243313135353a2063616c6c6572206973206e6f74206f776e6572206e6f72\n        /* \"#utility.yul\":12319:12337   */\n      0x44\n      dup3\n      add\n        /* \"#utility.yul\":12312:12374   */\n      mstore\n      shl(0xba, 0x08185c1c1c9bdd9959)\n        /* \"#utility.yul\":12390:12408   */\n      0x64\n      dup3\n      add\n        /* \"#utility.yul\":12383:12422   */\n      mstore\n        /* \"#utility.yul\":12439:12458   */\n      0x84\n      add\n        /* \"TTT_ERC1155Token-Jason.sol\":15618:15769  require(... */\n      tag_60\n        /* \"#utility.yul\":12059:12464   */\n      jump\n        /* \"TTT_ERC1155Token-Jason.sol\":15618:15769  require(... */\n    tag_144:\n        /* \"TTT_ERC1155Token-Jason.sol\":1697:1707  msg.sender */\n      caller\n        /* \"TTT_ERC1155Token-Jason.sol\":15826:15922  _beforeTokenTransfer(operator, from, to, _asSingletonArray(id), _asSingletonArray(amount), data) */\n      tag_148\n        /* \"TTT_ERC1155Token-Jason.sol\":1697:1707  msg.sender */\n      dup2\n        /* \"TTT_ERC1155Token-Jason.sol\":15857:15861  from */\n      dup8\n        /* \"TTT_ERC1155Token-Jason.sol\":15863:15865  to */\n      dup8\n        /* \"TTT_ERC1155Token-Jason.sol\":15867:15888  _asSingletonArray(id) */\n      tag_149\n        /* \"TTT_ERC1155Token-Jason.sol\":15885:15887  id */\n      dup9\n        /* \"TTT_ERC1155Token-Jason.sol\":15867:15884  _asSingletonArray */\n      tag_150\n        /* \"TTT_ERC1155Token-Jason.sol\":15867:15888  _asSingletonArray(id) */\n      jump\t// in\n    tag_149:\n        /* \"TTT_ERC1155Token-Jason.sol\":15890:15915  _asSingletonArray(amount) */\n      tag_151\n        /* \"TTT_ERC1155Token-Jason.sol\":15908:15914  amount */\n      dup9\n        /* \"TTT_ERC1155Token-Jason.sol\":15890:15907  _asSingletonArray */\n      tag_150\n        /* \"TTT_ERC1155Token-Jason.sol\":15890:15915  _asSingletonArray(amount) */\n      jump\t// in\n    tag_151:\n        /* \"TTT_ERC1155Token-Jason.sol\":16324:17544  function safeBatchTransferFrom(... */\n      pop\n      pop\n      pop\n      pop\n      pop\n      jump\n        /* \"TTT_ERC1155Token-Jason.sol\":15826:15922  _beforeTokenTransfer(operator, from, to, _asSingletonArray(id), _asSingletonArray(amount), data) */\n    tag_148:\n        /* \"TTT_ERC1155Token-Jason.sol\":15957:16034  _balances[id][from].sub(amount, \"ERC1155: insufficient balance for transfer\") */\n      tag_152\n        /* \"TTT_ERC1155Token-Jason.sol\":15981:15987  amount */\n      dup4\n        /* \"TTT_ERC1155Token-Jason.sol\":15957:16034  _balances[id][from].sub(amount, \"ERC1155: insufficient balance for transfer\") */\n      mload(0x40)\n      dup1\n      0x60\n      add\n      0x40\n      mstore\n      dup1\n      0x2a\n      dup2\n      mstore\n      0x20\n      add\n      data_8ac7e9556b567c1c94bb4daaa3c3a65be5ac686579615210cb910fb8cb8d65bf\n      0x2a\n      swap2\n      codecopy\n        /* \"TTT_ERC1155Token-Jason.sol\":15957:15970  _balances[id] */\n      0x00\n      dup8\n      dup2\n      mstore\n        /* \"TTT_ERC1155Token-Jason.sol\":15957:15966  _balances */\n      0x01\n        /* \"TTT_ERC1155Token-Jason.sol\":15957:15970  _balances[id] */\n      0x20\n      swap1\n      dup2\n      mstore\n      0x40\n      dup1\n      dup4\n      keccak256\n      sub(shl(0xa0, 0x01), 0x01)\n        /* \"TTT_ERC1155Token-Jason.sol\":15957:15976  _balances[id][from] */\n      dup14\n      and\n      dup5\n      mstore\n      swap1\n      swap2\n      mstore\n      swap1\n      keccak256\n      sload\n      swap2\n        /* \"TTT_ERC1155Token-Jason.sol\":15957:16034  _balances[id][from].sub(amount, \"ERC1155: insufficient balance for transfer\") */\n      swap1\n        /* \"TTT_ERC1155Token-Jason.sol\":15957:15980  _balances[id][from].sub */\n      tag_100\n        /* \"TTT_ERC1155Token-Jason.sol\":15957:16034  _balances[id][from].sub(amount, \"ERC1155: insufficient balance for transfer\") */\n      jump\t// in\n    tag_152:\n        /* \"TTT_ERC1155Token-Jason.sol\":15935:15948  _balances[id] */\n      0x00\n      dup6\n      dup2\n      mstore\n        /* \"TTT_ERC1155Token-Jason.sol\":15935:15944  _balances */\n      0x01\n        /* \"TTT_ERC1155Token-Jason.sol\":15935:15948  _balances[id] */\n      0x20\n      swap1\n      dup2\n      mstore\n      0x40\n      dup1\n      dup4\n      keccak256\n      sub(shl(0xa0, 0x01), 0x01)\n        /* \"TTT_ERC1155Token-Jason.sol\":15935:15954  _balances[id][from] */\n      dup12\n      dup2\n      and\n      dup6\n      mstore\n      swap3\n      mstore\n      dup1\n      dup4\n      keccak256\n        /* \"TTT_ERC1155Token-Jason.sol\":15935:16034  _balances[id][from] = _balances[id][from].sub(amount, \"ERC1155: insufficient balance for transfer\") */\n      swap4\n      swap1\n      swap4\n      sstore\n        /* \"TTT_ERC1155Token-Jason.sol\":16065:16082  _balances[id][to] */\n      dup8\n      and\n      dup2\n      mstore\n      keccak256\n      sload\n        /* \"TTT_ERC1155Token-Jason.sol\":16065:16094  _balances[id][to].add(amount) */\n      tag_153\n      swap1\n        /* \"TTT_ERC1155Token-Jason.sol\":16087:16093  amount */\n      dup5\n        /* \"TTT_ERC1155Token-Jason.sol\":16065:16086  _balances[id][to].add */\n      tag_102\n        /* \"TTT_ERC1155Token-Jason.sol\":16065:16094  _balances[id][to].add(amount) */\n      jump\t// in\n    tag_153:\n        /* \"TTT_ERC1155Token-Jason.sol\":16045:16058  _balances[id] */\n      0x00\n      dup6\n      dup2\n      mstore\n        /* \"TTT_ERC1155Token-Jason.sol\":16045:16054  _balances */\n      0x01\n        /* \"TTT_ERC1155Token-Jason.sol\":16045:16058  _balances[id] */\n      0x20\n      swap1\n      dup2\n      mstore\n      0x40\n      dup1\n      dup4\n      keccak256\n      sub(shl(0xa0, 0x01), 0x01)\n        /* \"TTT_ERC1155Token-Jason.sol\":16045:16062  _balances[id][to] */\n      dup11\n      dup2\n      and\n      dup1\n      dup7\n      mstore\n      swap2\n      dup5\n      mstore\n      swap4\n      dup3\n      swap1\n      keccak256\n        /* \"TTT_ERC1155Token-Jason.sol\":16045:16094  _balances[id][to] = _balances[id][to].add(amount) */\n      swap5\n      swap1\n      swap5\n      sstore\n        /* \"TTT_ERC1155Token-Jason.sol\":16112:16158  TransferSingle(operator, from, to, id, amount) */\n      dup1\n      mload\n        /* \"#utility.yul\":12643:12668   */\n      dup9\n      dup2\n      mstore\n        /* \"#utility.yul\":12684:12702   */\n      swap2\n      dup3\n      add\n        /* \"#utility.yul\":12677:12711   */\n      dup8\n      swap1\n      mstore\n        /* \"TTT_ERC1155Token-Jason.sol\":16112:16158  TransferSingle(operator, from, to, id, amount) */\n      dup10\n      dup4\n      and\n      swap3\n      dup6\n      and\n      swap2\n      0xc3d58168c5ae7397731d063d5bbf3d657854427343f4c083240f7aacaa2d0f62\n      swap2\n        /* \"#utility.yul\":12616:12634   */\n      add\n        /* \"TTT_ERC1155Token-Jason.sol\":16112:16158  TransferSingle(operator, from, to, id, amount) */\n      mload(0x40)\n      dup1\n      swap2\n      sub\n      swap1\n      log4\n        /* \"TTT_ERC1155Token-Jason.sol\":16171:16239  _doSafeTransferAcceptanceCheck(operator, from, to, id, amount, data) */\n      tag_107\n        /* \"TTT_ERC1155Token-Jason.sol\":16202:16210  operator */\n      dup2\n        /* \"TTT_ERC1155Token-Jason.sol\":16212:16216  from */\n      dup8\n        /* \"TTT_ERC1155Token-Jason.sol\":16218:16220  to */\n      dup8\n        /* \"TTT_ERC1155Token-Jason.sol\":16222:16224  id */\n      dup8\n        /* \"TTT_ERC1155Token-Jason.sol\":16226:16232  amount */\n      dup8\n        /* \"TTT_ERC1155Token-Jason.sol\":16234:16238  data */\n      dup8\n        /* \"TTT_ERC1155Token-Jason.sol\":16171:16201  _doSafeTransferAcceptanceCheck */\n      tag_157\n        /* \"TTT_ERC1155Token-Jason.sol\":16171:16239  _doSafeTransferAcceptanceCheck(operator, from, to, id, amount, data) */\n      jump\t// in\n        /* \"TTT_ERC1155Token-Jason.sol\":18877:19460  function _mint(address account, uint256 id, uint256 amount, bytes memory data) internal virtual {... */\n    tag_72:\n      sub(shl(0xa0, 0x01), 0x01)\n        /* \"TTT_ERC1155Token-Jason.sol\":18992:19013  account != address(0) */\n      dup5\n      and\n        /* \"TTT_ERC1155Token-Jason.sol\":18984:19051  require(account != address(0), \"ERC1155: mint to the zero address\") */\n      tag_159\n      jumpi\n      mload(0x40)\n      shl(0xe5, 0x461bcd)\n      dup2\n      mstore\n        /* \"#utility.yul\":12924:12926   */\n      0x20\n        /* \"TTT_ERC1155Token-Jason.sol\":18984:19051  require(account != address(0), \"ERC1155: mint to the zero address\") */\n      0x04\n      dup3\n      add\n        /* \"#utility.yul\":12906:12927   */\n      mstore\n        /* \"#utility.yul\":12963:12965   */\n      0x21\n        /* \"#utility.yul\":12943:12961   */\n      0x24\n      dup3\n      add\n        /* \"#utility.yul\":12936:12966   */\n      mstore\n        /* \"#utility.yul\":13002:13036   */\n      0x455243313135353a206d696e7420746f20746865207a65726f20616464726573\n        /* \"#utility.yul\":12982:13000   */\n      0x44\n      dup3\n      add\n        /* \"#utility.yul\":12975:13037   */\n      mstore\n      shl(0xf8, 0x73)\n        /* \"#utility.yul\":13053:13071   */\n      0x64\n      dup3\n      add\n        /* \"#utility.yul\":13046:13077   */\n      mstore\n        /* \"#utility.yul\":13094:13113   */\n      0x84\n      add\n        /* \"TTT_ERC1155Token-Jason.sol\":18984:19051  require(account != address(0), \"ERC1155: mint to the zero address\") */\n      tag_60\n        /* \"#utility.yul\":12722:13119   */\n      jump\n        /* \"TTT_ERC1155Token-Jason.sol\":18984:19051  require(account != address(0), \"ERC1155: mint to the zero address\") */\n    tag_159:\n        /* \"TTT_ERC1155Token-Jason.sol\":1697:1707  msg.sender */\n      caller\n        /* \"TTT_ERC1155Token-Jason.sol\":19108:19215  _beforeTokenTransfer(operator, address(0), account, _asSingletonArray(id), _asSingletonArray(amount), data) */\n      tag_163\n        /* \"TTT_ERC1155Token-Jason.sol\":1697:1707  msg.sender */\n      dup2\n        /* \"TTT_ERC1155Token-Jason.sol\":19064:19080  address operator */\n      0x00\n        /* \"TTT_ERC1155Token-Jason.sol\":19151:19158  account */\n      dup8\n        /* \"TTT_ERC1155Token-Jason.sol\":19160:19181  _asSingletonArray(id) */\n      tag_149\n        /* \"TTT_ERC1155Token-Jason.sol\":19178:19180  id */\n      dup9\n        /* \"TTT_ERC1155Token-Jason.sol\":19160:19177  _asSingletonArray */\n      tag_150\n        /* \"TTT_ERC1155Token-Jason.sol\":19160:19181  _asSingletonArray(id) */\n      jump\t// in\n        /* \"TTT_ERC1155Token-Jason.sol\":19108:19215  _beforeTokenTransfer(operator, address(0), account, _asSingletonArray(id), _asSingletonArray(amount), data) */\n    tag_163:\n        /* \"TTT_ERC1155Token-Jason.sol\":19253:19266  _balances[id] */\n      0x00\n      dup5\n      dup2\n      mstore\n        /* \"TTT_ERC1155Token-Jason.sol\":19253:19262  _balances */\n      0x01\n        /* \"TTT_ERC1155Token-Jason.sol\":19253:19266  _balances[id] */\n      0x20\n      swap1\n      dup2\n      mstore\n      0x40\n      dup1\n      dup4\n      keccak256\n      sub(shl(0xa0, 0x01), 0x01)\n        /* \"TTT_ERC1155Token-Jason.sol\":19253:19275  _balances[id][account] */\n      dup10\n      and\n      dup5\n      mstore\n      swap1\n      swap2\n      mstore\n      swap1\n      keccak256\n      sload\n        /* \"TTT_ERC1155Token-Jason.sol\":19253:19287  _balances[id][account].add(amount) */\n      tag_166\n      swap1\n        /* \"TTT_ERC1155Token-Jason.sol\":19280:19286  amount */\n      dup5\n        /* \"TTT_ERC1155Token-Jason.sol\":19253:19279  _balances[id][account].add */\n      tag_102\n        /* \"TTT_ERC1155Token-Jason.sol\":19253:19287  _balances[id][account].add(amount) */\n      jump\t// in\n    tag_166:\n        /* \"TTT_ERC1155Token-Jason.sol\":19228:19241  _balances[id] */\n      0x00\n      dup6\n      dup2\n      mstore\n        /* \"TTT_ERC1155Token-Jason.sol\":19228:19237  _balances */\n      0x01\n        /* \"TTT_ERC1155Token-Jason.sol\":19228:19241  _balances[id] */\n      0x20\n      swap1\n      dup2\n      mstore\n      0x40\n      dup1\n      dup4\n      keccak256\n      sub(shl(0xa0, 0x01), 0x01)\n        /* \"TTT_ERC1155Token-Jason.sol\":19228:19250  _balances[id][account] */\n      dup11\n      dup2\n      and\n      dup1\n      dup7\n      mstore\n      swap2\n      dup5\n      mstore\n      dup3\n      dup6\n      keccak256\n        /* \"TTT_ERC1155Token-Jason.sol\":19228:19287  _balances[id][account] = _balances[id][account].add(amount) */\n      swap6\n      swap1\n      swap6\n      sstore\n        /* \"TTT_ERC1155Token-Jason.sol\":19303:19360  TransferSingle(operator, address(0), account, id, amount) */\n      dup2\n      mload\n        /* \"#utility.yul\":12643:12668   */\n      dup10\n      dup2\n      mstore\n        /* \"#utility.yul\":12684:12702   */\n      swap3\n      dup4\n      add\n        /* \"#utility.yul\":12677:12711   */\n      dup9\n      swap1\n      mstore\n        /* \"TTT_ERC1155Token-Jason.sol\":19228:19250  _balances[id][account] */\n      swap4\n        /* \"TTT_ERC1155Token-Jason.sol\":19303:19360  TransferSingle(operator, address(0), account, id, amount) */\n      dup6\n      and\n      swap2\n      0xc3d58168c5ae7397731d063d5bbf3d657854427343f4c083240f7aacaa2d0f62\n      swap2\n        /* \"#utility.yul\":12616:12634   */\n      add\n        /* \"TTT_ERC1155Token-Jason.sol\":19303:19360  TransferSingle(operator, address(0), account, id, amount) */\n      mload(0x40)\n      dup1\n      swap2\n      sub\n      swap1\n      log4\n        /* \"TTT_ERC1155Token-Jason.sol\":19373:19452  _doSafeTransferAcceptanceCheck(operator, address(0), account, id, amount, data) */\n      tag_151\n        /* \"TTT_ERC1155Token-Jason.sol\":19404:19412  operator */\n      dup2\n        /* \"TTT_ERC1155Token-Jason.sol\":19422:19423  0 */\n      0x00\n        /* \"TTT_ERC1155Token-Jason.sol\":19426:19433  account */\n      dup8\n        /* \"TTT_ERC1155Token-Jason.sol\":19435:19437  id */\n      dup8\n        /* \"TTT_ERC1155Token-Jason.sol\":19439:19445  amount */\n      dup8\n        /* \"TTT_ERC1155Token-Jason.sol\":19447:19451  data */\n      dup8\n        /* \"TTT_ERC1155Token-Jason.sol\":19373:19403  _doSafeTransferAcceptanceCheck */\n      tag_157\n        /* \"TTT_ERC1155Token-Jason.sol\":19373:19452  _doSafeTransferAcceptanceCheck(operator, address(0), account, id, amount, data) */\n      jump\t// in\n        /* \"TTT_ERC1155Token-Jason.sol\":33345:33511  function sub(uint256 a, uint256 b, string memory errorMessage) internal pure returns (uint256) {... */\n    tag_100:\n        /* \"TTT_ERC1155Token-Jason.sol\":33431:33438  uint256 */\n      0x00\n        /* \"TTT_ERC1155Token-Jason.sol\":33467:33479  errorMessage */\n      dup2\n        /* \"TTT_ERC1155Token-Jason.sol\":33459:33465  b <= a */\n      dup5\n      dup5\n      gt\n      iszero\n        /* \"TTT_ERC1155Token-Jason.sol\":33451:33480  require(b <= a, errorMessage) */\n      tag_172\n      jumpi\n      mload(0x40)\n      shl(0xe5, 0x461bcd)\n      dup2\n      mstore\n      0x04\n      add\n      tag_60\n      swap2\n      swap1\n      tag_30\n      jump\t// in\n    tag_172:\n      pop\n        /* \"TTT_ERC1155Token-Jason.sol\":33498:33503  a - b */\n      tag_174\n        /* \"TTT_ERC1155Token-Jason.sol\":33502:33503  b */\n      dup4\n        /* \"TTT_ERC1155Token-Jason.sol\":33498:33499  a */\n      dup6\n        /* \"TTT_ERC1155Token-Jason.sol\":33498:33503  a - b */\n      tag_175\n      jump\t// in\n    tag_174:\n        /* \"TTT_ERC1155Token-Jason.sol\":33491:33503  return a - b */\n      swap5\n        /* \"TTT_ERC1155Token-Jason.sol\":33345:33511  function sub(uint256 a, uint256 b, string memory errorMessage) internal pure returns (uint256) {... */\n      swap4\n      pop\n      pop\n      pop\n      pop\n      jump\t// out\n        /* \"TTT_ERC1155Token-Jason.sol\":30518:30697  function add(uint256 a, uint256 b) internal pure returns (uint256) {... */\n    tag_102:\n        /* \"TTT_ERC1155Token-Jason.sol\":30576:30583  uint256 */\n      0x00\n      dup1\n        /* \"TTT_ERC1155Token-Jason.sol\":30608:30613  a + b */\n      tag_177\n        /* \"TTT_ERC1155Token-Jason.sol\":30612:30613  b */\n      dup4\n        /* \"TTT_ERC1155Token-Jason.sol\":30608:30609  a */\n      dup6\n        /* \"TTT_ERC1155Token-Jason.sol\":30608:30613  a + b */\n      tag_178\n      jump\t// in\n    tag_177:\n        /* \"TTT_ERC1155Token-Jason.sol\":30596:30613  uint256 c = a + b */\n      swap1\n      pop\n        /* \"TTT_ERC1155Token-Jason.sol\":30637:30638  a */\n      dup4\n        /* \"TTT_ERC1155Token-Jason.sol\":30632:30633  c */\n      dup2\n        /* \"TTT_ERC1155Token-Jason.sol\":30632:30638  c >= a */\n      lt\n      iszero\n        /* \"TTT_ERC1155Token-Jason.sol\":30624:30670  require(c >= a, \"SafeMath: addition overflow\") */\n      tag_179\n      jumpi\n      mload(0x40)\n      shl(0xe5, 0x461bcd)\n      dup2\n      mstore\n        /* \"#utility.yul\":13589:13591   */\n      0x20\n        /* \"TTT_ERC1155Token-Jason.sol\":30624:30670  require(c >= a, \"SafeMath: addition overflow\") */\n      0x04\n      dup3\n      add\n        /* \"#utility.yul\":13571:13592   */\n      mstore\n        /* \"#utility.yul\":13628:13630   */\n      0x1b\n        /* \"#utility.yul\":13608:13626   */\n      0x24\n      dup3\n      add\n        /* \"#utility.yul\":13601:13631   */\n      mstore\n        /* \"#utility.yul\":13667:13696   */\n      0x536166654d6174683a206164646974696f6e206f766572666c6f770000000000\n        /* \"#utility.yul\":13647:13665   */\n      0x44\n      dup3\n      add\n        /* \"#utility.yul\":13640:13697   */\n      mstore\n        /* \"#utility.yul\":13714:13732   */\n      0x64\n      add\n        /* \"TTT_ERC1155Token-Jason.sol\":30624:30670  require(c >= a, \"SafeMath: addition overflow\") */\n      tag_60\n        /* \"#utility.yul\":13387:13738   */\n      jump\n        /* \"TTT_ERC1155Token-Jason.sol\":30624:30670  require(c >= a, \"SafeMath: addition overflow\") */\n    tag_179:\n        /* \"TTT_ERC1155Token-Jason.sol\":30688:30689  c */\n      swap4\n        /* \"TTT_ERC1155Token-Jason.sol\":30518:30697  function add(uint256 a, uint256 b) internal pure returns (uint256) {... */\n      swap3\n      pop\n      pop\n      pop\n      jump\t// out\n        /* \"TTT_ERC1155Token-Jason.sol\":24244:25043  function _doSafeBatchTransferAcceptanceCheck(... */\n    tag_108:\n      sub(shl(0xa0, 0x01), 0x01)\n        /* \"TTT_ERC1155Token-Jason.sol\":24498:24511  to.isContract */\n      dup5\n      and\n        /* \"TTT_ERC1155Token-Jason.sol\":36233:36253  extcodesize(account) */\n      extcodesize\n        /* \"TTT_ERC1155Token-Jason.sol\":36272:36280  size > 0 */\n      iszero\n        /* \"TTT_ERC1155Token-Jason.sol\":24494:25036  if (to.isContract()) {... */\n      tag_107\n      jumpi\n        /* \"TTT_ERC1155Token-Jason.sol\":24534:24613  IERC1155Receiver(to).onERC1155BatchReceived(operator, from, ids, amounts, data) */\n      mload(0x40)\n      shl(0xe0, 0xbc197c81)\n      dup2\n      mstore\n      sub(shl(0xa0, 0x01), 0x01)\n        /* \"TTT_ERC1155Token-Jason.sol\":24534:24577  IERC1155Receiver(to).onERC1155BatchReceived */\n      dup6\n      and\n      swap1\n      0xbc197c81\n      swap1\n        /* \"TTT_ERC1155Token-Jason.sol\":24534:24613  IERC1155Receiver(to).onERC1155BatchReceived(operator, from, ids, amounts, data) */\n      tag_186\n      swap1\n        /* \"TTT_ERC1155Token-Jason.sol\":24578:24586  operator */\n      dup10\n      swap1\n        /* \"TTT_ERC1155Token-Jason.sol\":24588:24592  from */\n      dup10\n      swap1\n        /* \"TTT_ERC1155Token-Jason.sol\":24594:24597  ids */\n      dup9\n      swap1\n        /* \"TTT_ERC1155Token-Jason.sol\":24599:24606  amounts */\n      dup9\n      swap1\n        /* \"TTT_ERC1155Token-Jason.sol\":24608:24612  data */\n      dup9\n      swap1\n        /* \"TTT_ERC1155Token-Jason.sol\":24534:24613  IERC1155Receiver(to).onERC1155BatchReceived(operator, from, ids, amounts, data) */\n      0x04\n      add\n      tag_187\n      jump\t// in\n    tag_186:\n      0x20\n      mload(0x40)\n      dup1\n      dup4\n      sub\n      dup2\n      0x00\n      dup8\n      gas\n      call\n      swap3\n      pop\n      pop\n      pop\n      dup1\n      iszero\n      tag_188\n      jumpi\n      pop\n      0x40\n      dup1\n      mload\n      0x1f\n      returndatasize\n      swap1\n      dup2\n      add\n      not(0x1f)\n      and\n      dup3\n      add\n      swap1\n      swap3\n      mstore\n      tag_189\n      swap2\n      dup2\n      add\n      swap1\n      tag_190\n      jump\t// in\n    tag_189:\n      0x01\n    tag_188:\n        /* \"TTT_ERC1155Token-Jason.sol\":24530:25025  try IERC1155Receiver(to).onERC1155BatchReceived(operator, from, ids, amounts, data) returns (bytes4 response) {... */\n      tag_191\n      jumpi\n      tag_195\n      tag_196\n      jump\t// in\n    tag_195:\n      dup1\n      0x08c379a0\n      sub\n      tag_194\n      jumpi\n      pop\n      tag_197\n      tag_198\n      jump\t// in\n    tag_197:\n      dup1\n      tag_199\n      jumpi\n      pop\n      jump(tag_193)\n    tag_199:\n        /* \"TTT_ERC1155Token-Jason.sol\":24898:24904  reason */\n      dup1\n        /* \"TTT_ERC1155Token-Jason.sol\":24891:24905  revert(reason) */\n      mload(0x40)\n      shl(0xe5, 0x461bcd)\n      dup2\n      mstore\n      0x04\n      add\n      tag_60\n      swap2\n      swap1\n      tag_30\n      jump\t// in\n        /* \"TTT_ERC1155Token-Jason.sol\":24530:25025  try IERC1155Receiver(to).onERC1155BatchReceived(operator, from, ids, amounts, data) returns (bytes4 response) {... */\n    tag_194:\n      pop\n    tag_193:\n        /* \"TTT_ERC1155Token-Jason.sol\":24947:25009  revert(\"ERC1155: transfer to non ERC1155Receiver implementer\") */\n      mload(0x40)\n      shl(0xe5, 0x461bcd)\n      dup2\n      mstore\n        /* \"#utility.yul\":15891:15893   */\n      0x20\n        /* \"TTT_ERC1155Token-Jason.sol\":24947:25009  revert(\"ERC1155: transfer to non ERC1155Receiver implementer\") */\n      0x04\n      dup3\n      add\n        /* \"#utility.yul\":15873:15894   */\n      mstore\n        /* \"#utility.yul\":15930:15932   */\n      0x34\n        /* \"#utility.yul\":15910:15928   */\n      0x24\n      dup3\n      add\n        /* \"#utility.yul\":15903:15933   */\n      mstore\n        /* \"#utility.yul\":15969:16003   */\n      0x455243313135353a207472616e7366657220746f206e6f6e2045524331313535\n        /* \"#utility.yul\":15949:15967   */\n      0x44\n      dup3\n      add\n        /* \"#utility.yul\":15942:16004   */\n      mstore\n      shl(0x61, 0x2932b1b2b4bb32b91034b6b83632b6b2b73a32b9)\n        /* \"#utility.yul\":16020:16038   */\n      0x64\n      dup3\n      add\n        /* \"#utility.yul\":16013:16063   */\n      mstore\n        /* \"#utility.yul\":16080:16099   */\n      0x84\n      add\n        /* \"TTT_ERC1155Token-Jason.sol\":24947:25009  revert(\"ERC1155: transfer to non ERC1155Receiver implementer\") */\n      tag_60\n        /* \"#utility.yul\":15689:16105   */\n      jump\n        /* \"TTT_ERC1155Token-Jason.sol\":24530:25025  try IERC1155Receiver(to).onERC1155BatchReceived(operator, from, ids, amounts, data) returns (bytes4 response) {... */\n    tag_191:\n      not(sub(shl(0xe0, 0x01), 0x01))\n        /* \"TTT_ERC1155Token-Jason.sol\":24663:24727  response != IERC1155Receiver(to).onERC1155BatchReceived.selector */\n      dup2\n      and\n      shl(0xe0, 0xbc197c81)\n      eq\n        /* \"TTT_ERC1155Token-Jason.sol\":24659:24822  if (response != IERC1155Receiver(to).onERC1155BatchReceived.selector) {... */\n      tag_204\n      jumpi\n        /* \"TTT_ERC1155Token-Jason.sol\":24752:24802  revert(\"ERC1155: ERC1155Receiver rejected tokens\") */\n      mload(0x40)\n      shl(0xe5, 0x461bcd)\n      dup2\n      mstore\n      0x04\n      add\n      tag_60\n      swap1\n      tag_206\n      jump\t// in\n        /* \"TTT_ERC1155Token-Jason.sol\":24659:24822  if (response != IERC1155Receiver(to).onERC1155BatchReceived.selector) {... */\n    tag_204:\n        /* \"TTT_ERC1155Token-Jason.sol\":24614:24837  returns (bytes4 response) {... */\n      pop\n        /* \"TTT_ERC1155Token-Jason.sol\":24244:25043  function _doSafeBatchTransferAcceptanceCheck(... */\n      pop\n      pop\n      pop\n      pop\n      pop\n      pop\n      jump\t// out\n        /* \"TTT_ERC1155Token-Jason.sol\":25051:25249  function _asSingletonArray(uint256 element) private pure returns (uint256[] memory) {... */\n    tag_150:\n        /* \"TTT_ERC1155Token-Jason.sol\":25171:25187  new uint256[](1) */\n      0x40\n      dup1\n      mload\n        /* \"TTT_ERC1155Token-Jason.sol\":25185:25186  1 */\n      0x01\n        /* \"TTT_ERC1155Token-Jason.sol\":25171:25187  new uint256[](1) */\n      dup1\n      dup3\n      mstore\n      dup2\n      dup4\n      add\n      swap1\n      swap3\n      mstore\n        /* \"TTT_ERC1155Token-Jason.sol\":25117:25133  uint256[] memory */\n      0x60\n      swap2\n        /* \"TTT_ERC1155Token-Jason.sol\":25146:25168  uint256[] memory array */\n      0x00\n      swap2\n        /* \"TTT_ERC1155Token-Jason.sol\":25171:25187  new uint256[](1) */\n      swap1\n      0x20\n      dup1\n      dup4\n      add\n      swap1\n      dup1\n      calldatasize\n      dup4\n      calldatacopy\n      add\n      swap1\n      pop\n      pop\n        /* \"TTT_ERC1155Token-Jason.sol\":25146:25187  uint256[] memory array = new uint256[](1) */\n      swap1\n      pop\n        /* \"TTT_ERC1155Token-Jason.sol\":25209:25216  element */\n      dup3\n        /* \"TTT_ERC1155Token-Jason.sol\":25198:25203  array */\n      dup2\n        /* \"TTT_ERC1155Token-Jason.sol\":25204:25205  0 */\n      0x00\n        /* \"TTT_ERC1155Token-Jason.sol\":25198:25206  array[0] */\n      dup2\n      mload\n      dup2\n      lt\n      tag_212\n      jumpi\n      tag_212\n      tag_96\n      jump\t// in\n    tag_212:\n      0x20\n      swap1\n      dup2\n      mul\n      swap2\n      swap1\n      swap2\n      add\n      add\n        /* \"TTT_ERC1155Token-Jason.sol\":25198:25216  array[0] = element */\n      mstore\n        /* \"TTT_ERC1155Token-Jason.sol\":25236:25241  array */\n      swap3\n        /* \"TTT_ERC1155Token-Jason.sol\":25051:25249  function _asSingletonArray(uint256 element) private pure returns (uint256[] memory) {... */\n      swap2\n      pop\n      pop\n      jump\t// out\n        /* \"TTT_ERC1155Token-Jason.sol\":23474:24236  function _doSafeTransferAcceptanceCheck(... */\n    tag_157:\n      sub(shl(0xa0, 0x01), 0x01)\n        /* \"TTT_ERC1155Token-Jason.sol\":23703:23716  to.isContract */\n      dup5\n      and\n        /* \"TTT_ERC1155Token-Jason.sol\":36233:36253  extcodesize(account) */\n      extcodesize\n        /* \"TTT_ERC1155Token-Jason.sol\":36272:36280  size > 0 */\n      iszero\n        /* \"TTT_ERC1155Token-Jason.sol\":23699:24229  if (to.isContract()) {... */\n      tag_107\n      jumpi\n        /* \"TTT_ERC1155Token-Jason.sol\":23739:23811  IERC1155Receiver(to).onERC1155Received(operator, from, id, amount, data) */\n      mload(0x40)\n      shl(0xe0, 0xf23a6e61)\n      dup2\n      mstore\n      sub(shl(0xa0, 0x01), 0x01)\n        /* \"TTT_ERC1155Token-Jason.sol\":23739:23777  IERC1155Receiver(to).onERC1155Received */\n      dup6\n      and\n      swap1\n      0xf23a6e61\n      swap1\n        /* \"TTT_ERC1155Token-Jason.sol\":23739:23811  IERC1155Receiver(to).onERC1155Received(operator, from, id, amount, data) */\n      tag_216\n      swap1\n        /* \"TTT_ERC1155Token-Jason.sol\":23778:23786  operator */\n      dup10\n      swap1\n        /* \"TTT_ERC1155Token-Jason.sol\":23788:23792  from */\n      dup10\n      swap1\n        /* \"TTT_ERC1155Token-Jason.sol\":23794:23796  id */\n      dup9\n      swap1\n        /* \"TTT_ERC1155Token-Jason.sol\":23798:23804  amount */\n      dup9\n      swap1\n        /* \"TTT_ERC1155Token-Jason.sol\":23806:23810  data */\n      dup9\n      swap1\n        /* \"TTT_ERC1155Token-Jason.sol\":23739:23811  IERC1155Receiver(to).onERC1155Received(operator, from, id, amount, data) */\n      0x04\n      add\n      tag_217\n      jump\t// in\n    tag_216:\n      0x20\n      mload(0x40)\n      dup1\n      dup4\n      sub\n      dup2\n      0x00\n      dup8\n      gas\n      call\n      swap3\n      pop\n      pop\n      pop\n      dup1\n      iszero\n      tag_218\n      jumpi\n      pop\n      0x40\n      dup1\n      mload\n      0x1f\n      returndatasize\n      swap1\n      dup2\n      add\n      not(0x1f)\n      and\n      dup3\n      add\n      swap1\n      swap3\n      mstore\n      tag_219\n      swap2\n      dup2\n      add\n      swap1\n      tag_190\n      jump\t// in\n    tag_219:\n      0x01\n    tag_218:\n        /* \"TTT_ERC1155Token-Jason.sol\":23735:24218  try IERC1155Receiver(to).onERC1155Received(operator, from, id, amount, data) returns (bytes4 response) {... */\n      tag_220\n      jumpi\n      tag_195\n      tag_196\n      jump\t// in\n    tag_220:\n      not(sub(shl(0xe0, 0x01), 0x01))\n        /* \"TTT_ERC1155Token-Jason.sol\":23861:23920  response != IERC1155Receiver(to).onERC1155Received.selector */\n      dup2\n      and\n      shl(0xe0, 0xf23a6e61)\n      eq\n        /* \"TTT_ERC1155Token-Jason.sol\":23857:24015  if (response != IERC1155Receiver(to).onERC1155Received.selector) {... */\n      tag_204\n      jumpi\n        /* \"TTT_ERC1155Token-Jason.sol\":23945:23995  revert(\"ERC1155: ERC1155Receiver rejected tokens\") */\n      mload(0x40)\n      shl(0xe5, 0x461bcd)\n      dup2\n      mstore\n      0x04\n      add\n      tag_60\n      swap1\n      tag_206\n      jump\t// in\n        /* \"#utility.yul\":14:187   */\n    tag_233:\n        /* \"#utility.yul\":82:102   */\n      dup1\n      calldataload\n      sub(shl(0xa0, 0x01), 0x01)\n        /* \"#utility.yul\":131:162   */\n      dup2\n      and\n        /* \"#utility.yul\":121:163   */\n      dup2\n      eq\n        /* \"#utility.yul\":111:181   */\n      tag_244\n      jumpi\n        /* \"#utility.yul\":177:178   */\n      0x00\n        /* \"#utility.yul\":174:175   */\n      dup1\n        /* \"#utility.yul\":167:179   */\n      revert\n        /* \"#utility.yul\":111:181   */\n    tag_244:\n        /* \"#utility.yul\":14:187   */\n      swap2\n      swap1\n      pop\n      jump\t// out\n        /* \"#utility.yul\":192:446   */\n    tag_15:\n        /* \"#utility.yul\":260:266   */\n      0x00\n        /* \"#utility.yul\":268:274   */\n      dup1\n        /* \"#utility.yul\":321:323   */\n      0x40\n        /* \"#utility.yul\":309:318   */\n      dup4\n        /* \"#utility.yul\":300:307   */\n      dup6\n        /* \"#utility.yul\":296:319   */\n      sub\n        /* \"#utility.yul\":292:324   */\n      slt\n        /* \"#utility.yul\":289:341   */\n      iszero\n      tag_246\n      jumpi\n        /* \"#utility.yul\":337:338   */\n      0x00\n        /* \"#utility.yul\":334:335   */\n      dup1\n        /* \"#utility.yul\":327:339   */\n      revert\n        /* \"#utility.yul\":289:341   */\n    tag_246:\n        /* \"#utility.yul\":360:389   */\n      tag_247\n        /* \"#utility.yul\":379:388   */\n      dup4\n        /* \"#utility.yul\":360:389   */\n      tag_233\n      jump\t// in\n    tag_247:\n        /* \"#utility.yul\":350:389   */\n      swap5\n        /* \"#utility.yul\":436:438   */\n      0x20\n        /* \"#utility.yul\":421:439   */\n      swap4\n      swap1\n      swap4\n      add\n        /* \"#utility.yul\":408:440   */\n      calldataload\n      swap4\n      pop\n      pop\n      pop\n        /* \"#utility.yul\":192:446   */\n      jump\t// out\n        /* \"#utility.yul\":633:764   */\n    tag_234:\n      not(sub(shl(0xe0, 0x01), 0x01))\n        /* \"#utility.yul\":707:739   */\n      dup2\n      and\n        /* \"#utility.yul\":697:740   */\n      dup2\n      eq\n        /* \"#utility.yul\":687:758   */\n      tag_250\n      jumpi\n        /* \"#utility.yul\":754:755   */\n      0x00\n        /* \"#utility.yul\":751:752   */\n      dup1\n        /* \"#utility.yul\":744:756   */\n      revert\n        /* \"#utility.yul\":687:758   */\n    tag_250:\n        /* \"#utility.yul\":633:764   */\n      pop\n      jump\t// out\n        /* \"#utility.yul\":769:1014   */\n    tag_21:\n        /* \"#utility.yul\":827:833   */\n      0x00\n        /* \"#utility.yul\":880:882   */\n      0x20\n        /* \"#utility.yul\":868:877   */\n      dup3\n        /* \"#utility.yul\":859:866   */\n      dup5\n        /* \"#utility.yul\":855:878   */\n      sub\n        /* \"#utility.yul\":851:883   */\n      slt\n        /* \"#utility.yul\":848:900   */\n      iszero\n      tag_252\n      jumpi\n        /* \"#utility.yul\":896:897   */\n      0x00\n        /* \"#utility.yul\":893:894   */\n      dup1\n        /* \"#utility.yul\":886:898   */\n      revert\n        /* \"#utility.yul\":848:900   */\n    tag_252:\n        /* \"#utility.yul\":935:944   */\n      dup2\n        /* \"#utility.yul\":922:945   */\n      calldataload\n        /* \"#utility.yul\":954:984   */\n      tag_179\n        /* \"#utility.yul\":978:983   */\n      dup2\n        /* \"#utility.yul\":954:984   */\n      tag_234\n      jump\t// in\n        /* \"#utility.yul\":1211:1391   */\n    tag_27:\n        /* \"#utility.yul\":1270:1276   */\n      0x00\n        /* \"#utility.yul\":1323:1325   */\n      0x20\n        /* \"#utility.yul\":1311:1320   */\n      dup3\n        /* \"#utility.yul\":1302:1309   */\n      dup5\n        /* \"#utility.yul\":1298:1321   */\n      sub\n        /* \"#utility.yul\":1294:1326   */\n      slt\n        /* \"#utility.yul\":1291:1343   */\n      iszero\n      tag_256\n      jumpi\n        /* \"#utility.yul\":1339:1340   */\n      0x00\n        /* \"#utility.yul\":1336:1337   */\n      dup1\n        /* \"#utility.yul\":1329:1341   */\n      revert\n        /* \"#utility.yul\":1291:1343   */\n    tag_256:\n      pop\n        /* \"#utility.yul\":1362:1385   */\n      calldataload\n      swap2\n        /* \"#utility.yul\":1211:1391   */\n      swap1\n      pop\n      jump\t// out\n        /* \"#utility.yul\":1396:1819   */\n    tag_235:\n        /* \"#utility.yul\":1438:1441   */\n      0x00\n        /* \"#utility.yul\":1476:1481   */\n      dup2\n        /* \"#utility.yul\":1470:1482   */\n      mload\n        /* \"#utility.yul\":1503:1509   */\n      dup1\n        /* \"#utility.yul\":1498:1501   */\n      dup5\n        /* \"#utility.yul\":1491:1510   */\n      mstore\n        /* \"#utility.yul\":1528:1529   */\n      0x00\n        /* \"#utility.yul\":1538:1700   */\n    tag_258:\n        /* \"#utility.yul\":1552:1558   */\n      dup2\n        /* \"#utility.yul\":1549:1550   */\n      dup2\n        /* \"#utility.yul\":1546:1559   */\n      lt\n        /* \"#utility.yul\":1538:1700   */\n      iszero\n      tag_260\n      jumpi\n        /* \"#utility.yul\":1614:1618   */\n      0x20\n        /* \"#utility.yul\":1670:1683   */\n      dup2\n      dup6\n      add\n        /* \"#utility.yul\":1666:1688   */\n      dup2\n      add\n        /* \"#utility.yul\":1660:1689   */\n      mload\n        /* \"#utility.yul\":1642:1653   */\n      dup7\n      dup4\n      add\n        /* \"#utility.yul\":1638:1658   */\n      dup3\n      add\n        /* \"#utility.yul\":1631:1690   */\n      mstore\n        /* \"#utility.yul\":1567:1579   */\n      add\n        /* \"#utility.yul\":1538:1700   */\n      jump(tag_258)\n    tag_260:\n        /* \"#utility.yul\":1542:1545   */\n      pop\n        /* \"#utility.yul\":1745:1746   */\n      0x00\n        /* \"#utility.yul\":1738:1742   */\n      0x20\n        /* \"#utility.yul\":1729:1735   */\n      dup3\n        /* \"#utility.yul\":1724:1727   */\n      dup7\n        /* \"#utility.yul\":1720:1736   */\n      add\n        /* \"#utility.yul\":1716:1743   */\n      add\n        /* \"#utility.yul\":1709:1747   */\n      mstore\n        /* \"#utility.yul\":1808:1812   */\n      0x20\n        /* \"#utility.yul\":1801:1803   */\n      0x1f\n        /* \"#utility.yul\":1797:1804   */\n      not\n        /* \"#utility.yul\":1792:1794   */\n      0x1f\n        /* \"#utility.yul\":1784:1790   */\n      dup4\n        /* \"#utility.yul\":1780:1795   */\n      add\n        /* \"#utility.yul\":1776:1805   */\n      and\n        /* \"#utility.yul\":1771:1774   */\n      dup6\n        /* \"#utility.yul\":1767:1806   */\n      add\n        /* \"#utility.yul\":1763:1813   */\n      add\n        /* \"#utility.yul\":1756:1813   */\n      swap2\n      pop\n      pop\n        /* \"#utility.yul\":1396:1819   */\n      swap3\n      swap2\n      pop\n      pop\n      jump\t// out\n        /* \"#utility.yul\":1824:2044   */\n    tag_30:\n        /* \"#utility.yul\":1973:1975   */\n      0x20\n        /* \"#utility.yul\":1962:1971   */\n      dup2\n        /* \"#utility.yul\":1955:1976   */\n      mstore\n        /* \"#utility.yul\":1936:1940   */\n      0x00\n        /* \"#utility.yul\":1993:2038   */\n      tag_179\n        /* \"#utility.yul\":2034:2036   */\n      0x20\n        /* \"#utility.yul\":2023:2032   */\n      dup4\n        /* \"#utility.yul\":2019:2037   */\n      add\n        /* \"#utility.yul\":2011:2017   */\n      dup5\n        /* \"#utility.yul\":1993:2038   */\n      tag_235\n      jump\t// in\n        /* \"#utility.yul\":2049:2371   */\n    tag_33:\n        /* \"#utility.yul\":2126:2132   */\n      0x00\n        /* \"#utility.yul\":2134:2140   */\n      dup1\n        /* \"#utility.yul\":2142:2148   */\n      0x00\n        /* \"#utility.yul\":2195:2197   */\n      0x60\n        /* \"#utility.yul\":2183:2192   */\n      dup5\n        /* \"#utility.yul\":2174:2181   */\n      dup7\n        /* \"#utility.yul\":2170:2193   */\n      sub\n        /* \"#utility.yul\":2166:2198   */\n      slt\n        /* \"#utility.yul\":2163:2215   */\n      iszero\n      tag_264\n      jumpi\n        /* \"#utility.yul\":2211:2212   */\n      0x00\n        /* \"#utility.yul\":2208:2209   */\n      dup1\n        /* \"#utility.yul\":2201:2213   */\n      revert\n        /* \"#utility.yul\":2163:2215   */\n    tag_264:\n        /* \"#utility.yul\":2234:2263   */\n      tag_265\n        /* \"#utility.yul\":2253:2262   */\n      dup5\n        /* \"#utility.yul\":2234:2263   */\n      tag_233\n      jump\t// in\n    tag_265:\n        /* \"#utility.yul\":2224:2263   */\n      swap6\n        /* \"#utility.yul\":2310:2312   */\n      0x20\n        /* \"#utility.yul\":2295:2313   */\n      dup6\n      add\n        /* \"#utility.yul\":2282:2314   */\n      calldataload\n      swap6\n      pop\n        /* \"#utility.yul\":2361:2363   */\n      0x40\n        /* \"#utility.yul\":2346:2364   */\n      swap1\n      swap5\n      add\n        /* \"#utility.yul\":2333:2365   */\n      calldataload\n      swap4\n        /* \"#utility.yul\":2049:2371   */\n      swap3\n      pop\n      pop\n      pop\n      jump\t// out\n        /* \"#utility.yul\":2376:2503   */\n    tag_115:\n        /* \"#utility.yul\":2437:2447   */\n      0x4e487b71\n        /* \"#utility.yul\":2432:2435   */\n      0xe0\n        /* \"#utility.yul\":2428:2448   */\n      shl\n        /* \"#utility.yul\":2425:2426   */\n      0x00\n        /* \"#utility.yul\":2418:2449   */\n      mstore\n        /* \"#utility.yul\":2468:2472   */\n      0x41\n        /* \"#utility.yul\":2465:2466   */\n      0x04\n        /* \"#utility.yul\":2458:2473   */\n      mstore\n        /* \"#utility.yul\":2492:2496   */\n      0x24\n        /* \"#utility.yul\":2489:2490   */\n      0x00\n        /* \"#utility.yul\":2482:2497   */\n      revert\n        /* \"#utility.yul\":2508:2757   */\n    tag_236:\n        /* \"#utility.yul\":2618:2620   */\n      0x1f\n        /* \"#utility.yul\":2599:2612   */\n      dup3\n      add\n      not(0x1f)\n        /* \"#utility.yul\":2595:2622   */\n      and\n        /* \"#utility.yul\":2583:2623   */\n      dup2\n      add\n        /* \"#utility.yul\":2653:2671   */\n      0xffffffffffffffff\n        /* \"#utility.yul\":2638:2672   */\n      dup2\n      gt\n        /* \"#utility.yul\":2674:2696   */\n      dup3\n      dup3\n      lt\n        /* \"#utility.yul\":2635:2697   */\n      or\n        /* \"#utility.yul\":2632:2720   */\n      iszero\n      tag_269\n      jumpi\n        /* \"#utility.yul\":2700:2718   */\n      tag_269\n      tag_115\n      jump\t// in\n    tag_269:\n        /* \"#utility.yul\":2736:2738   */\n      0x40\n        /* \"#utility.yul\":2729:2751   */\n      mstore\n      pop\n      pop\n        /* \"#utility.yul\":2508:2757   */\n      jump\t// out\n        /* \"#utility.yul\":2762:2945   */\n    tag_237:\n        /* \"#utility.yul\":2822:2826   */\n      0x00\n        /* \"#utility.yul\":2855:2873   */\n      0xffffffffffffffff\n        /* \"#utility.yul\":2847:2853   */\n      dup3\n        /* \"#utility.yul\":2844:2874   */\n      gt\n        /* \"#utility.yul\":2841:2897   */\n      iszero\n      tag_272\n      jumpi\n        /* \"#utility.yul\":2877:2895   */\n      tag_272\n      tag_115\n      jump\t// in\n    tag_272:\n      pop\n        /* \"#utility.yul\":2922:2923   */\n      0x05\n        /* \"#utility.yul\":2918:2932   */\n      shl\n        /* \"#utility.yul\":2934:2938   */\n      0x20\n        /* \"#utility.yul\":2914:2939   */\n      add\n      swap1\n        /* \"#utility.yul\":2762:2945   */\n      jump\t// out\n        /* \"#utility.yul\":2950:3674   */\n    tag_238:\n        /* \"#utility.yul\":3004:3009   */\n      0x00\n        /* \"#utility.yul\":3057:3060   */\n      dup3\n        /* \"#utility.yul\":3050:3054   */\n      0x1f\n        /* \"#utility.yul\":3042:3048   */\n      dup4\n        /* \"#utility.yul\":3038:3055   */\n      add\n        /* \"#utility.yul\":3034:3061   */\n      slt\n        /* \"#utility.yul\":3024:3079   */\n      tag_274\n      jumpi\n        /* \"#utility.yul\":3075:3076   */\n      0x00\n        /* \"#utility.yul\":3072:3073   */\n      dup1\n        /* \"#utility.yul\":3065:3077   */\n      revert\n        /* \"#utility.yul\":3024:3079   */\n    tag_274:\n        /* \"#utility.yul\":3111:3117   */\n      dup2\n        /* \"#utility.yul\":3098:3118   */\n      calldataload\n        /* \"#utility.yul\":3137:3141   */\n      0x20\n        /* \"#utility.yul\":3160:3203   */\n      tag_275\n        /* \"#utility.yul\":3200:3202   */\n      dup3\n        /* \"#utility.yul\":3160:3203   */\n      tag_237\n      jump\t// in\n    tag_275:\n        /* \"#utility.yul\":3232:3234   */\n      0x40\n        /* \"#utility.yul\":3226:3235   */\n      mload\n        /* \"#utility.yul\":3244:3275   */\n      tag_276\n        /* \"#utility.yul\":3272:3274   */\n      dup3\n        /* \"#utility.yul\":3264:3270   */\n      dup3\n        /* \"#utility.yul\":3244:3275   */\n      tag_236\n      jump\t// in\n    tag_276:\n        /* \"#utility.yul\":3310:3328   */\n      dup4\n      dup2\n      mstore\n        /* \"#utility.yul\":3402:3403   */\n      0x05\n        /* \"#utility.yul\":3398:3408   */\n      swap4\n      swap1\n      swap4\n      shl\n        /* \"#utility.yul\":3386:3409   */\n      dup6\n      add\n        /* \"#utility.yul\":3382:3414   */\n      dup3\n      add\n      swap3\n        /* \"#utility.yul\":3344:3359   */\n      dup3\n      dup2\n      add\n      swap2\n      pop\n        /* \"#utility.yul\":3426:3441   */\n      dup7\n      dup5\n      gt\n        /* \"#utility.yul\":3423:3458   */\n      iszero\n      tag_277\n      jumpi\n        /* \"#utility.yul\":3454:3455   */\n      0x00\n        /* \"#utility.yul\":3451:3452   */\n      dup1\n        /* \"#utility.yul\":3444:3456   */\n      revert\n        /* \"#utility.yul\":3423:3458   */\n    tag_277:\n        /* \"#utility.yul\":3490:3492   */\n      dup3\n        /* \"#utility.yul\":3482:3488   */\n      dup7\n        /* \"#utility.yul\":3478:3493   */\n      add\n        /* \"#utility.yul\":3502:3644   */\n    tag_278:\n        /* \"#utility.yul\":3518:3524   */\n      dup5\n        /* \"#utility.yul\":3513:3516   */\n      dup2\n        /* \"#utility.yul\":3510:3525   */\n      lt\n        /* \"#utility.yul\":3502:3644   */\n      iszero\n      tag_280\n      jumpi\n        /* \"#utility.yul\":3584:3601   */\n      dup1\n      calldataload\n        /* \"#utility.yul\":3572:3602   */\n      dup4\n      mstore\n        /* \"#utility.yul\":3622:3634   */\n      swap2\n      dup4\n      add\n      swap2\n        /* \"#utility.yul\":3535:3547   */\n      dup4\n      add\n        /* \"#utility.yul\":3502:3644   */\n      jump(tag_278)\n    tag_280:\n      pop\n        /* \"#utility.yul\":3662:3668   */\n      swap7\n        /* \"#utility.yul\":2950:3674   */\n      swap6\n      pop\n      pop\n      pop\n      pop\n      pop\n      pop\n      jump\t// out\n        /* \"#utility.yul\":3679:4234   */\n    tag_239:\n        /* \"#utility.yul\":3721:3726   */\n      0x00\n        /* \"#utility.yul\":3774:3777   */\n      dup3\n        /* \"#utility.yul\":3767:3771   */\n      0x1f\n        /* \"#utility.yul\":3759:3765   */\n      dup4\n        /* \"#utility.yul\":3755:3772   */\n      add\n        /* \"#utility.yul\":3751:3778   */\n      slt\n        /* \"#utility.yul\":3741:3796   */\n      tag_282\n      jumpi\n        /* \"#utility.yul\":3792:3793   */\n      0x00\n        /* \"#utility.yul\":3789:3790   */\n      dup1\n        /* \"#utility.yul\":3782:3794   */\n      revert\n        /* \"#utility.yul\":3741:3796   */\n    tag_282:\n        /* \"#utility.yul\":3828:3834   */\n      dup2\n        /* \"#utility.yul\":3815:3835   */\n      calldataload\n        /* \"#utility.yul\":3854:3872   */\n      0xffffffffffffffff\n        /* \"#utility.yul\":3850:3852   */\n      dup2\n        /* \"#utility.yul\":3847:3873   */\n      gt\n        /* \"#utility.yul\":3844:3896   */\n      iszero\n      tag_284\n      jumpi\n        /* \"#utility.yul\":3876:3894   */\n      tag_284\n      tag_115\n      jump\t// in\n    tag_284:\n        /* \"#utility.yul\":3925:3927   */\n      0x40\n        /* \"#utility.yul\":3919:3928   */\n      mload\n        /* \"#utility.yul\":3937:4004   */\n      tag_285\n        /* \"#utility.yul\":3992:3994   */\n      0x1f\n        /* \"#utility.yul\":3973:3986   */\n      dup4\n      add\n      not(0x1f)\n        /* \"#utility.yul\":3969:3996   */\n      and\n        /* \"#utility.yul\":3998:4002   */\n      0x20\n        /* \"#utility.yul\":3965:4003   */\n      add\n        /* \"#utility.yul\":3919:3928   */\n      dup3\n        /* \"#utility.yul\":3937:4004   */\n      tag_236\n      jump\t// in\n    tag_285:\n        /* \"#utility.yul\":4028:4030   */\n      dup2\n        /* \"#utility.yul\":4020:4026   */\n      dup2\n        /* \"#utility.yul\":4013:4031   */\n      mstore\n        /* \"#utility.yul\":4074:4077   */\n      dup5\n        /* \"#utility.yul\":4067:4071   */\n      0x20\n        /* \"#utility.yul\":4062:4064   */\n      dup4\n        /* \"#utility.yul\":4054:4060   */\n      dup7\n        /* \"#utility.yul\":4050:4065   */\n      add\n        /* \"#utility.yul\":4046:4072   */\n      add\n        /* \"#utility.yul\":4043:4078   */\n      gt\n        /* \"#utility.yul\":4040:4095   */\n      iszero\n      tag_286\n      jumpi\n        /* \"#utility.yul\":4091:4092   */\n      0x00\n        /* \"#utility.yul\":4088:4089   */\n      dup1\n        /* \"#utility.yul\":4081:4093   */\n      revert\n        /* \"#utility.yul\":4040:4095   */\n    tag_286:\n        /* \"#utility.yul\":4155:4157   */\n      dup2\n        /* \"#utility.yul\":4148:4152   */\n      0x20\n        /* \"#utility.yul\":4140:4146   */\n      dup6\n        /* \"#utility.yul\":4136:4153   */\n      add\n        /* \"#utility.yul\":4129:4133   */\n      0x20\n        /* \"#utility.yul\":4121:4127   */\n      dup4\n        /* \"#utility.yul\":4117:4134   */\n      add\n        /* \"#utility.yul\":4104:4158   */\n      calldatacopy\n        /* \"#utility.yul\":4202:4203   */\n      0x00\n        /* \"#utility.yul\":4178:4193   */\n      swap2\n      dup2\n      add\n        /* \"#utility.yul\":4195:4199   */\n      0x20\n        /* \"#utility.yul\":4174:4200   */\n      add\n        /* \"#utility.yul\":4167:4204   */\n      swap2\n      swap1\n      swap2\n      mstore\n        /* \"#utility.yul\":4182:4188   */\n      swap4\n        /* \"#utility.yul\":3679:4234   */\n      swap3\n      pop\n      pop\n      pop\n      jump\t// out\n        /* \"#utility.yul\":4239:5182   */\n    tag_37:\n        /* \"#utility.yul\":4393:4399   */\n      0x00\n        /* \"#utility.yul\":4401:4407   */\n      dup1\n        /* \"#utility.yul\":4409:4415   */\n      0x00\n        /* \"#utility.yul\":4417:4423   */\n      dup1\n        /* \"#utility.yul\":4425:4431   */\n      0x00\n        /* \"#utility.yul\":4478:4481   */\n      0xa0\n        /* \"#utility.yul\":4466:4475   */\n      dup7\n        /* \"#utility.yul\":4457:4464   */\n      dup9\n        /* \"#utility.yul\":4453:4476   */\n      sub\n        /* \"#utility.yul\":4449:4482   */\n      slt\n        /* \"#utility.yul\":4446:4499   */\n      iszero\n      tag_288\n      jumpi\n        /* \"#utility.yul\":4495:4496   */\n      0x00\n        /* \"#utility.yul\":4492:4493   */\n      dup1\n        /* \"#utility.yul\":4485:4497   */\n      revert\n        /* \"#utility.yul\":4446:4499   */\n    tag_288:\n        /* \"#utility.yul\":4518:4547   */\n      tag_289\n        /* \"#utility.yul\":4537:4546   */\n      dup7\n        /* \"#utility.yul\":4518:4547   */\n      tag_233\n      jump\t// in\n    tag_289:\n        /* \"#utility.yul\":4508:4547   */\n      swap5\n      pop\n        /* \"#utility.yul\":4566:4604   */\n      tag_290\n        /* \"#utility.yul\":4600:4602   */\n      0x20\n        /* \"#utility.yul\":4589:4598   */\n      dup8\n        /* \"#utility.yul\":4585:4603   */\n      add\n        /* \"#utility.yul\":4566:4604   */\n      tag_233\n      jump\t// in\n    tag_290:\n        /* \"#utility.yul\":4556:4604   */\n      swap4\n      pop\n        /* \"#utility.yul\":4655:4657   */\n      0x40\n        /* \"#utility.yul\":4644:4653   */\n      dup7\n        /* \"#utility.yul\":4640:4658   */\n      add\n        /* \"#utility.yul\":4627:4659   */\n      calldataload\n        /* \"#utility.yul\":4678:4696   */\n      0xffffffffffffffff\n        /* \"#utility.yul\":4719:4721   */\n      dup1\n        /* \"#utility.yul\":4711:4717   */\n      dup3\n        /* \"#utility.yul\":4708:4722   */\n      gt\n        /* \"#utility.yul\":4705:4739   */\n      iszero\n      tag_291\n      jumpi\n        /* \"#utility.yul\":4735:4736   */\n      0x00\n        /* \"#utility.yul\":4732:4733   */\n      dup1\n        /* \"#utility.yul\":4725:4737   */\n      revert\n        /* \"#utility.yul\":4705:4739   */\n    tag_291:\n        /* \"#utility.yul\":4758:4819   */\n      tag_292\n        /* \"#utility.yul\":4811:4818   */\n      dup10\n        /* \"#utility.yul\":4802:4808   */\n      dup4\n        /* \"#utility.yul\":4791:4800   */\n      dup11\n        /* \"#utility.yul\":4787:4809   */\n      add\n        /* \"#utility.yul\":4758:4819   */\n      tag_238\n      jump\t// in\n    tag_292:\n        /* \"#utility.yul\":4748:4819   */\n      swap5\n      pop\n        /* \"#utility.yul\":4872:4874   */\n      0x60\n        /* \"#utility.yul\":4861:4870   */\n      dup9\n        /* \"#utility.yul\":4857:4875   */\n      add\n        /* \"#utility.yul\":4844:4876   */\n      calldataload\n        /* \"#utility.yul\":4828:4876   */\n      swap2\n      pop\n        /* \"#utility.yul\":4901:4903   */\n      dup1\n        /* \"#utility.yul\":4891:4899   */\n      dup3\n        /* \"#utility.yul\":4888:4904   */\n      gt\n        /* \"#utility.yul\":4885:4921   */\n      iszero\n      tag_293\n      jumpi\n        /* \"#utility.yul\":4917:4918   */\n      0x00\n        /* \"#utility.yul\":4914:4915   */\n      dup1\n        /* \"#utility.yul\":4907:4919   */\n      revert\n        /* \"#utility.yul\":4885:4921   */\n    tag_293:\n        /* \"#utility.yul\":4940:5003   */\n      tag_294\n        /* \"#utility.yul\":4995:5002   */\n      dup10\n        /* \"#utility.yul\":4984:4992   */\n      dup4\n        /* \"#utility.yul\":4973:4982   */\n      dup11\n        /* \"#utility.yul\":4969:4993   */\n      add\n        /* \"#utility.yul\":4940:5003   */\n      tag_238\n      jump\t// in\n    tag_294:\n        /* \"#utility.yul\":4930:5003   */\n      swap4\n      pop\n        /* \"#utility.yul\":5056:5059   */\n      0x80\n        /* \"#utility.yul\":5045:5054   */\n      dup9\n        /* \"#utility.yul\":5041:5060   */\n      add\n        /* \"#utility.yul\":5028:5061   */\n      calldataload\n        /* \"#utility.yul\":5012:5061   */\n      swap2\n      pop\n        /* \"#utility.yul\":5086:5088   */\n      dup1\n        /* \"#utility.yul\":5076:5084   */\n      dup3\n        /* \"#utility.yul\":5073:5089   */\n      gt\n        /* \"#utility.yul\":5070:5106   */\n      iszero\n      tag_295\n      jumpi\n        /* \"#utility.yul\":5102:5103   */\n      0x00\n        /* \"#utility.yul\":5099:5100   */\n      dup1\n        /* \"#utility.yul\":5092:5104   */\n      revert\n        /* \"#utility.yul\":5070:5106   */\n    tag_295:\n      pop\n        /* \"#utility.yul\":5125:5176   */\n      tag_296\n        /* \"#utility.yul\":5168:5175   */\n      dup9\n        /* \"#utility.yul\":5157:5165   */\n      dup3\n        /* \"#utility.yul\":5146:5155   */\n      dup10\n        /* \"#utility.yul\":5142:5166   */\n      add\n        /* \"#utility.yul\":5125:5176   */\n      tag_239\n      jump\t// in\n    tag_296:\n        /* \"#utility.yul\":5115:5176   */\n      swap2\n      pop\n      pop\n        /* \"#utility.yul\":4239:5182   */\n      swap3\n      swap6\n      pop\n      swap3\n      swap6\n      swap1\n      swap4\n      pop\n      jump\t// out\n        /* \"#utility.yul\":5187:6395   */\n    tag_41:\n        /* \"#utility.yul\":5305:5311   */\n      0x00\n        /* \"#utility.yul\":5313:5319   */\n      dup1\n        /* \"#utility.yul\":5366:5368   */\n      0x40\n        /* \"#utility.yul\":5354:5363   */\n      dup4\n        /* \"#utility.yul\":5345:5352   */\n      dup6\n        /* \"#utility.yul\":5341:5364   */\n      sub\n        /* \"#utility.yul\":5337:5369   */\n      slt\n        /* \"#utility.yul\":5334:5386   */\n      iszero\n      tag_298\n      jumpi\n        /* \"#utility.yul\":5382:5383   */\n      0x00\n        /* \"#utility.yul\":5379:5380   */\n      dup1\n        /* \"#utility.yul\":5372:5384   */\n      revert\n        /* \"#utility.yul\":5334:5386   */\n    tag_298:\n        /* \"#utility.yul\":5422:5431   */\n      dup3\n        /* \"#utility.yul\":5409:5432   */\n      calldataload\n        /* \"#utility.yul\":5451:5469   */\n      0xffffffffffffffff\n        /* \"#utility.yul\":5492:5494   */\n      dup1\n        /* \"#utility.yul\":5484:5490   */\n      dup3\n        /* \"#utility.yul\":5481:5495   */\n      gt\n        /* \"#utility.yul\":5478:5512   */\n      iszero\n      tag_299\n      jumpi\n        /* \"#utility.yul\":5508:5509   */\n      0x00\n        /* \"#utility.yul\":5505:5506   */\n      dup1\n        /* \"#utility.yul\":5498:5510   */\n      revert\n        /* \"#utility.yul\":5478:5512   */\n    tag_299:\n        /* \"#utility.yul\":5546:5552   */\n      dup2\n        /* \"#utility.yul\":5535:5544   */\n      dup6\n        /* \"#utility.yul\":5531:5553   */\n      add\n        /* \"#utility.yul\":5521:5553   */\n      swap2\n      pop\n        /* \"#utility.yul\":5591:5598   */\n      dup6\n        /* \"#utility.yul\":5584:5588   */\n      0x1f\n        /* \"#utility.yul\":5580:5582   */\n      dup4\n        /* \"#utility.yul\":5576:5589   */\n      add\n        /* \"#utility.yul\":5572:5599   */\n      slt\n        /* \"#utility.yul\":5562:5617   */\n      tag_300\n      jumpi\n        /* \"#utility.yul\":5613:5614   */\n      0x00\n        /* \"#utility.yul\":5610:5611   */\n      dup1\n        /* \"#utility.yul\":5603:5615   */\n      revert\n        /* \"#utility.yul\":5562:5617   */\n    tag_300:\n        /* \"#utility.yul\":5649:5651   */\n      dup2\n        /* \"#utility.yul\":5636:5652   */\n      calldataload\n        /* \"#utility.yul\":5671:5675   */\n      0x20\n        /* \"#utility.yul\":5694:5737   */\n      tag_301\n        /* \"#utility.yul\":5734:5736   */\n      dup3\n        /* \"#utility.yul\":5694:5737   */\n      tag_237\n      jump\t// in\n    tag_301:\n        /* \"#utility.yul\":5766:5768   */\n      0x40\n        /* \"#utility.yul\":5760:5769   */\n      mload\n        /* \"#utility.yul\":5778:5809   */\n      tag_302\n        /* \"#utility.yul\":5806:5808   */\n      dup3\n        /* \"#utility.yul\":5798:5804   */\n      dup3\n        /* \"#utility.yul\":5778:5809   */\n      tag_236\n      jump\t// in\n    tag_302:\n        /* \"#utility.yul\":5844:5862   */\n      dup4\n      dup2\n      mstore\n        /* \"#utility.yul\":5932:5933   */\n      0x05\n        /* \"#utility.yul\":5928:5938   */\n      swap4\n      swap1\n      swap4\n      shl\n        /* \"#utility.yul\":5920:5939   */\n      dup6\n      add\n        /* \"#utility.yul\":5916:5944   */\n      dup3\n      add\n      swap3\n        /* \"#utility.yul\":5878:5893   */\n      dup3\n      dup2\n      add\n      swap2\n      pop\n        /* \"#utility.yul\":5956:5975   */\n      dup10\n      dup5\n      gt\n        /* \"#utility.yul\":5953:5992   */\n      iszero\n      tag_303\n      jumpi\n        /* \"#utility.yul\":5988:5989   */\n      0x00\n        /* \"#utility.yul\":5985:5986   */\n      dup1\n        /* \"#utility.yul\":5978:5990   */\n      revert\n        /* \"#utility.yul\":5953:5992   */\n    tag_303:\n        /* \"#utility.yul\":6012:6023   */\n      swap5\n      dup3\n      add\n      swap5\n        /* \"#utility.yul\":6032:6180   */\n    tag_304:\n        /* \"#utility.yul\":6048:6054   */\n      dup4\n        /* \"#utility.yul\":6043:6046   */\n      dup7\n        /* \"#utility.yul\":6040:6055   */\n      lt\n        /* \"#utility.yul\":6032:6180   */\n      iszero\n      tag_306\n      jumpi\n        /* \"#utility.yul\":6114:6137   */\n      tag_307\n        /* \"#utility.yul\":6133:6136   */\n      dup7\n        /* \"#utility.yul\":6114:6137   */\n      tag_233\n      jump\t// in\n    tag_307:\n        /* \"#utility.yul\":6102:6138   */\n      dup3\n      mstore\n        /* \"#utility.yul\":6065:6077   */\n      swap5\n      dup3\n      add\n      swap5\n        /* \"#utility.yul\":6158:6170   */\n      swap1\n      dup3\n      add\n      swap1\n        /* \"#utility.yul\":6032:6180   */\n      jump(tag_304)\n    tag_306:\n        /* \"#utility.yul\":6199:6205   */\n      swap7\n      pop\n      pop\n        /* \"#utility.yul\":6243:6261   */\n      dup7\n      add\n        /* \"#utility.yul\":6230:6262   */\n      calldataload\n      swap3\n      pop\n      pop\n        /* \"#utility.yul\":6274:6290   */\n      dup1\n      dup3\n      gt\n        /* \"#utility.yul\":6271:6307   */\n      iszero\n      tag_308\n      jumpi\n        /* \"#utility.yul\":6303:6304   */\n      0x00\n        /* \"#utility.yul\":6300:6301   */\n      dup1\n        /* \"#utility.yul\":6293:6305   */\n      revert\n        /* \"#utility.yul\":6271:6307   */\n    tag_308:\n      pop\n        /* \"#utility.yul\":6326:6389   */\n      tag_309\n        /* \"#utility.yul\":6381:6388   */\n      dup6\n        /* \"#utility.yul\":6370:6378   */\n      dup3\n        /* \"#utility.yul\":6359:6368   */\n      dup7\n        /* \"#utility.yul\":6355:6379   */\n      add\n        /* \"#utility.yul\":6326:6389   */\n      tag_238\n      jump\t// in\n    tag_309:\n        /* \"#utility.yul\":6316:6389   */\n      swap2\n      pop\n      pop\n        /* \"#utility.yul\":5187:6395   */\n      swap3\n      pop\n      swap3\n      swap1\n      pop\n      jump\t// out\n        /* \"#utility.yul\":6400:6835   */\n    tag_240:\n        /* \"#utility.yul\":6453:6456   */\n      0x00\n        /* \"#utility.yul\":6491:6496   */\n      dup2\n        /* \"#utility.yul\":6485:6497   */\n      mload\n        /* \"#utility.yul\":6518:6524   */\n      dup1\n        /* \"#utility.yul\":6513:6516   */\n      dup5\n        /* \"#utility.yul\":6506:6525   */\n      mstore\n        /* \"#utility.yul\":6544:6548   */\n      0x20\n        /* \"#utility.yul\":6573:6575   */\n      dup1\n        /* \"#utility.yul\":6568:6571   */\n      dup6\n        /* \"#utility.yul\":6564:6576   */\n      add\n        /* \"#utility.yul\":6557:6576   */\n      swap5\n      pop\n        /* \"#utility.yul\":6610:6612   */\n      dup1\n        /* \"#utility.yul\":6603:6608   */\n      dup5\n        /* \"#utility.yul\":6599:6613   */\n      add\n        /* \"#utility.yul\":6631:6632   */\n      0x00\n        /* \"#utility.yul\":6641:6810   */\n    tag_311:\n        /* \"#utility.yul\":6655:6661   */\n      dup4\n        /* \"#utility.yul\":6652:6653   */\n      dup2\n        /* \"#utility.yul\":6649:6662   */\n      lt\n        /* \"#utility.yul\":6641:6810   */\n      iszero\n      tag_313\n      jumpi\n        /* \"#utility.yul\":6716:6729   */\n      dup2\n      mload\n        /* \"#utility.yul\":6704:6730   */\n      dup8\n      mstore\n        /* \"#utility.yul\":6750:6762   */\n      swap6\n      dup3\n      add\n      swap6\n        /* \"#utility.yul\":6785:6800   */\n      swap1\n      dup3\n      add\n      swap1\n        /* \"#utility.yul\":6677:6678   */\n      0x01\n        /* \"#utility.yul\":6670:6679   */\n      add\n        /* \"#utility.yul\":6641:6810   */\n      jump(tag_311)\n    tag_313:\n      pop\n        /* \"#utility.yul\":6826:6829   */\n      swap5\n      swap6\n        /* \"#utility.yul\":6400:6835   */\n      swap5\n      pop\n      pop\n      pop\n      pop\n      pop\n      jump\t// out\n        /* \"#utility.yul\":6840:7101   */\n    tag_44:\n        /* \"#utility.yul\":7019:7021   */\n      0x20\n        /* \"#utility.yul\":7008:7017   */\n      dup2\n        /* \"#utility.yul\":7001:7022   */\n      mstore\n        /* \"#utility.yul\":6982:6986   */\n      0x00\n        /* \"#utility.yul\":7039:7095   */\n      tag_179\n        /* \"#utility.yul\":7091:7093   */\n      0x20\n        /* \"#utility.yul\":7080:7089   */\n      dup4\n        /* \"#utility.yul\":7076:7094   */\n      add\n        /* \"#utility.yul\":7068:7074   */\n      dup5\n        /* \"#utility.yul\":7039:7095   */\n      tag_240\n      jump\t// in\n        /* \"#utility.yul\":7106:7453   */\n    tag_47:\n        /* \"#utility.yul\":7171:7177   */\n      0x00\n        /* \"#utility.yul\":7179:7185   */\n      dup1\n        /* \"#utility.yul\":7232:7234   */\n      0x40\n        /* \"#utility.yul\":7220:7229   */\n      dup4\n        /* \"#utility.yul\":7211:7218   */\n      dup6\n        /* \"#utility.yul\":7207:7230   */\n      sub\n        /* \"#utility.yul\":7203:7235   */\n      slt\n        /* \"#utility.yul\":7200:7252   */\n      iszero\n      tag_317\n      jumpi\n        /* \"#utility.yul\":7248:7249   */\n      0x00\n        /* \"#utility.yul\":7245:7246   */\n      dup1\n        /* \"#utility.yul\":7238:7250   */\n      revert\n        /* \"#utility.yul\":7200:7252   */\n    tag_317:\n        /* \"#utility.yul\":7271:7300   */\n      tag_318\n        /* \"#utility.yul\":7290:7299   */\n      dup4\n        /* \"#utility.yul\":7271:7300   */\n      tag_233\n      jump\t// in\n    tag_318:\n        /* \"#utility.yul\":7261:7300   */\n      swap2\n      pop\n        /* \"#utility.yul\":7350:7352   */\n      0x20\n        /* \"#utility.yul\":7339:7348   */\n      dup4\n        /* \"#utility.yul\":7335:7353   */\n      add\n        /* \"#utility.yul\":7322:7354   */\n      calldataload\n        /* \"#utility.yul\":7397:7402   */\n      dup1\n        /* \"#utility.yul\":7390:7403   */\n      iszero\n        /* \"#utility.yul\":7383:7404   */\n      iszero\n        /* \"#utility.yul\":7376:7381   */\n      dup2\n        /* \"#utility.yul\":7373:7405   */\n      eq\n        /* \"#utility.yul\":7363:7423   */\n      tag_319\n      jumpi\n        /* \"#utility.yul\":7419:7420   */\n      0x00\n        /* \"#utility.yul\":7416:7417   */\n      dup1\n        /* \"#utility.yul\":7409:7421   */\n      revert\n        /* \"#utility.yul\":7363:7423   */\n    tag_319:\n        /* \"#utility.yul\":7442:7447   */\n      dup1\n        /* \"#utility.yul\":7432:7447   */\n      swap2\n      pop\n      pop\n        /* \"#utility.yul\":7106:7453   */\n      swap3\n      pop\n      swap3\n      swap1\n      pop\n      jump\t// out\n        /* \"#utility.yul\":7458:7718   */\n    tag_51:\n        /* \"#utility.yul\":7526:7532   */\n      0x00\n        /* \"#utility.yul\":7534:7540   */\n      dup1\n        /* \"#utility.yul\":7587:7589   */\n      0x40\n        /* \"#utility.yul\":7575:7584   */\n      dup4\n        /* \"#utility.yul\":7566:7573   */\n      dup6\n        /* \"#utility.yul\":7562:7585   */\n      sub\n        /* \"#utility.yul\":7558:7590   */\n      slt\n        /* \"#utility.yul\":7555:7607   */\n      iszero\n      tag_321\n      jumpi\n        /* \"#utility.yul\":7603:7604   */\n      0x00\n        /* \"#utility.yul\":7600:7601   */\n      dup1\n        /* \"#utility.yul\":7593:7605   */\n      revert\n        /* \"#utility.yul\":7555:7607   */\n    tag_321:\n        /* \"#utility.yul\":7626:7655   */\n      tag_322\n        /* \"#utility.yul\":7645:7654   */\n      dup4\n        /* \"#utility.yul\":7626:7655   */\n      tag_233\n      jump\t// in\n    tag_322:\n        /* \"#utility.yul\":7616:7655   */\n      swap2\n      pop\n        /* \"#utility.yul\":7674:7712   */\n      tag_323\n        /* \"#utility.yul\":7708:7710   */\n      0x20\n        /* \"#utility.yul\":7697:7706   */\n      dup5\n        /* \"#utility.yul\":7693:7711   */\n      add\n        /* \"#utility.yul\":7674:7712   */\n      tag_233\n      jump\t// in\n    tag_323:\n        /* \"#utility.yul\":7664:7712   */\n      swap1\n      pop\n        /* \"#utility.yul\":7458:7718   */\n      swap3\n      pop\n      swap3\n      swap1\n      pop\n      jump\t// out\n        /* \"#utility.yul\":7723:8329   */\n    tag_56:\n        /* \"#utility.yul\":7827:7833   */\n      0x00\n        /* \"#utility.yul\":7835:7841   */\n      dup1\n        /* \"#utility.yul\":7843:7849   */\n      0x00\n        /* \"#utility.yul\":7851:7857   */\n      dup1\n        /* \"#utility.yul\":7859:7865   */\n      0x00\n        /* \"#utility.yul\":7912:7915   */\n      0xa0\n        /* \"#utility.yul\":7900:7909   */\n      dup7\n        /* \"#utility.yul\":7891:7898   */\n      dup9\n        /* \"#utility.yul\":7887:7910   */\n      sub\n        /* \"#utility.yul\":7883:7916   */\n      slt\n        /* \"#utility.yul\":7880:7933   */\n      iszero\n      tag_325\n      jumpi\n        /* \"#utility.yul\":7929:7930   */\n      0x00\n        /* \"#utility.yul\":7926:7927   */\n      dup1\n        /* \"#utility.yul\":7919:7931   */\n      revert\n        /* \"#utility.yul\":7880:7933   */\n    tag_325:\n        /* \"#utility.yul\":7952:7981   */\n      tag_326\n        /* \"#utility.yul\":7971:7980   */\n      dup7\n        /* \"#utility.yul\":7952:7981   */\n      tag_233\n      jump\t// in\n    tag_326:\n        /* \"#utility.yul\":7942:7981   */\n      swap5\n      pop\n        /* \"#utility.yul\":8000:8038   */\n      tag_327\n        /* \"#utility.yul\":8034:8036   */\n      0x20\n        /* \"#utility.yul\":8023:8032   */\n      dup8\n        /* \"#utility.yul\":8019:8037   */\n      add\n        /* \"#utility.yul\":8000:8038   */\n      tag_233\n      jump\t// in\n    tag_327:\n        /* \"#utility.yul\":7990:8038   */\n      swap4\n      pop\n        /* \"#utility.yul\":8085:8087   */\n      0x40\n        /* \"#utility.yul\":8074:8083   */\n      dup7\n        /* \"#utility.yul\":8070:8088   */\n      add\n        /* \"#utility.yul\":8057:8089   */\n      calldataload\n        /* \"#utility.yul\":8047:8089   */\n      swap3\n      pop\n        /* \"#utility.yul\":8136:8138   */\n      0x60\n        /* \"#utility.yul\":8125:8134   */\n      dup7\n        /* \"#utility.yul\":8121:8139   */\n      add\n        /* \"#utility.yul\":8108:8140   */\n      calldataload\n        /* \"#utility.yul\":8098:8140   */\n      swap2\n      pop\n        /* \"#utility.yul\":8191:8194   */\n      0x80\n        /* \"#utility.yul\":8180:8189   */\n      dup7\n        /* \"#utility.yul\":8176:8195   */\n      add\n        /* \"#utility.yul\":8163:8196   */\n      calldataload\n        /* \"#utility.yul\":8219:8237   */\n      0xffffffffffffffff\n        /* \"#utility.yul\":8211:8217   */\n      dup2\n        /* \"#utility.yul\":8208:8238   */\n      gt\n        /* \"#utility.yul\":8205:8255   */\n      iszero\n      tag_328\n      jumpi\n        /* \"#utility.yul\":8251:8252   */\n      0x00\n        /* \"#utility.yul\":8248:8249   */\n      dup1\n        /* \"#utility.yul\":8241:8253   */\n      revert\n        /* \"#utility.yul\":8205:8255   */\n    tag_328:\n        /* \"#utility.yul\":8274:8323   */\n      tag_296\n        /* \"#utility.yul\":8315:8322   */\n      dup9\n        /* \"#utility.yul\":8306:8312   */\n      dup3\n        /* \"#utility.yul\":8295:8304   */\n      dup10\n        /* \"#utility.yul\":8291:8313   */\n      add\n        /* \"#utility.yul\":8274:8323   */\n      tag_239\n      jump\t// in\n        /* \"#utility.yul\":8746:9126   */\n    tag_65:\n        /* \"#utility.yul\":8825:8826   */\n      0x01\n        /* \"#utility.yul\":8821:8833   */\n      dup2\n      dup2\n      shr\n      swap1\n        /* \"#utility.yul\":8868:8880   */\n      dup3\n      and\n      dup1\n        /* \"#utility.yul\":8889:8950   */\n      tag_332\n      jumpi\n        /* \"#utility.yul\":8943:8947   */\n      0x7f\n        /* \"#utility.yul\":8935:8941   */\n      dup3\n        /* \"#utility.yul\":8931:8948   */\n      and\n        /* \"#utility.yul\":8921:8948   */\n      swap2\n      pop\n        /* \"#utility.yul\":8889:8950   */\n    tag_332:\n        /* \"#utility.yul\":8996:8998   */\n      0x20\n        /* \"#utility.yul\":8988:8994   */\n      dup3\n        /* \"#utility.yul\":8985:8999   */\n      lt\n        /* \"#utility.yul\":8965:8983   */\n      dup2\n        /* \"#utility.yul\":8962:9000   */\n      sub\n        /* \"#utility.yul\":8959:9120   */\n      tag_333\n      jumpi\n        /* \"#utility.yul\":9042:9052   */\n      0x4e487b71\n        /* \"#utility.yul\":9037:9040   */\n      0xe0\n        /* \"#utility.yul\":9033:9053   */\n      shl\n        /* \"#utility.yul\":9030:9031   */\n      0x00\n        /* \"#utility.yul\":9023:9054   */\n      mstore\n        /* \"#utility.yul\":9077:9081   */\n      0x22\n        /* \"#utility.yul\":9074:9075   */\n      0x04\n        /* \"#utility.yul\":9067:9082   */\n      mstore\n        /* \"#utility.yul\":9105:9109   */\n      0x24\n        /* \"#utility.yul\":9102:9103   */\n      0x00\n        /* \"#utility.yul\":9095:9110   */\n      revert\n        /* \"#utility.yul\":8959:9120   */\n    tag_333:\n      pop\n        /* \"#utility.yul\":8746:9126   */\n      swap2\n      swap1\n      pop\n      jump\t// out\n        /* \"#utility.yul\":9540:9941   */\n    tag_79:\n        /* \"#utility.yul\":9742:9744   */\n      0x20\n        /* \"#utility.yul\":9724:9745   */\n      dup1\n      dup3\n      mstore\n        /* \"#utility.yul\":9781:9783   */\n      0x25\n        /* \"#utility.yul\":9761:9779   */\n      swap1\n      dup3\n      add\n        /* \"#utility.yul\":9754:9784   */\n      mstore\n        /* \"#utility.yul\":9820:9854   */\n      0x455243313135353a207472616e7366657220746f20746865207a65726f206164\n        /* \"#utility.yul\":9815:9817   */\n      0x40\n        /* \"#utility.yul\":9800:9818   */\n      dup3\n      add\n        /* \"#utility.yul\":9793:9855   */\n      mstore\n      shl(0xd8, 0x6472657373)\n        /* \"#utility.yul\":9886:9888   */\n      0x60\n        /* \"#utility.yul\":9871:9889   */\n      dup3\n      add\n        /* \"#utility.yul\":9864:9899   */\n      mstore\n        /* \"#utility.yul\":9931:9934   */\n      0x80\n        /* \"#utility.yul\":9916:9935   */\n      add\n      swap1\n        /* \"#utility.yul\":9540:9941   */\n      jump\t// out\n        /* \"#utility.yul\":10365:10492   */\n    tag_96:\n        /* \"#utility.yul\":10426:10436   */\n      0x4e487b71\n        /* \"#utility.yul\":10421:10424   */\n      0xe0\n        /* \"#utility.yul\":10417:10437   */\n      shl\n        /* \"#utility.yul\":10414:10415   */\n      0x00\n        /* \"#utility.yul\":10407:10438   */\n      mstore\n        /* \"#utility.yul\":10457:10461   */\n      0x32\n        /* \"#utility.yul\":10454:10455   */\n      0x04\n        /* \"#utility.yul\":10447:10462   */\n      mstore\n        /* \"#utility.yul\":10481:10485   */\n      0x24\n        /* \"#utility.yul\":10478:10479   */\n      0x00\n        /* \"#utility.yul\":10471:10486   */\n      revert\n        /* \"#utility.yul\":10497:10624   */\n    tag_241:\n        /* \"#utility.yul\":10558:10568   */\n      0x4e487b71\n        /* \"#utility.yul\":10553:10556   */\n      0xe0\n        /* \"#utility.yul\":10549:10569   */\n      shl\n        /* \"#utility.yul\":10546:10547   */\n      0x00\n        /* \"#utility.yul\":10539:10570   */\n      mstore\n        /* \"#utility.yul\":10589:10593   */\n      0x11\n        /* \"#utility.yul\":10586:10587   */\n      0x04\n        /* \"#utility.yul\":10579:10594   */\n      mstore\n        /* \"#utility.yul\":10613:10617   */\n      0x24\n        /* \"#utility.yul\":10610:10611   */\n      0x00\n        /* \"#utility.yul\":10603:10618   */\n      revert\n        /* \"#utility.yul\":10629:10764   */\n    tag_104:\n        /* \"#utility.yul\":10668:10671   */\n      0x00\n        /* \"#utility.yul\":10689:10706   */\n      0x01\n      dup3\n      add\n        /* \"#utility.yul\":10686:10729   */\n      tag_341\n      jumpi\n        /* \"#utility.yul\":10709:10727   */\n      tag_341\n      tag_241\n      jump\t// in\n    tag_341:\n      pop\n        /* \"#utility.yul\":10756:10757   */\n      0x01\n        /* \"#utility.yul\":10745:10758   */\n      add\n      swap1\n        /* \"#utility.yul\":10629:10764   */\n      jump\t// out\n        /* \"#utility.yul\":10769:11234   */\n    tag_106:\n        /* \"#utility.yul\":11026:11028   */\n      0x40\n        /* \"#utility.yul\":11015:11024   */\n      dup2\n        /* \"#utility.yul\":11008:11029   */\n      mstore\n        /* \"#utility.yul\":10989:10993   */\n      0x00\n        /* \"#utility.yul\":11052:11108   */\n      tag_343\n        /* \"#utility.yul\":11104:11106   */\n      0x40\n        /* \"#utility.yul\":11093:11102   */\n      dup4\n        /* \"#utility.yul\":11089:11107   */\n      add\n        /* \"#utility.yul\":11081:11087   */\n      dup6\n        /* \"#utility.yul\":11052:11108   */\n      tag_240\n      jump\t// in\n    tag_343:\n        /* \"#utility.yul\":11156:11165   */\n      dup3\n        /* \"#utility.yul\":11148:11154   */\n      dup2\n        /* \"#utility.yul\":11144:11166   */\n      sub\n        /* \"#utility.yul\":11139:11141   */\n      0x20\n        /* \"#utility.yul\":11128:11137   */\n      dup5\n        /* \"#utility.yul\":11124:11142   */\n      add\n        /* \"#utility.yul\":11117:11167   */\n      mstore\n        /* \"#utility.yul\":11184:11228   */\n      tag_344\n        /* \"#utility.yul\":11221:11227   */\n      dup2\n        /* \"#utility.yul\":11213:11219   */\n      dup6\n        /* \"#utility.yul\":11184:11228   */\n      tag_240\n      jump\t// in\n    tag_344:\n        /* \"#utility.yul\":11176:11228   */\n      swap6\n        /* \"#utility.yul\":10769:11234   */\n      swap5\n      pop\n      pop\n      pop\n      pop\n      pop\n      jump\t// out\n        /* \"#utility.yul\":13124:13252   */\n    tag_175:\n        /* \"#utility.yul\":13191:13200   */\n      dup2\n      dup2\n      sub\n        /* \"#utility.yul\":13212:13223   */\n      dup2\n      dup2\n      gt\n        /* \"#utility.yul\":13209:13246   */\n      iszero\n      tag_58\n      jumpi\n        /* \"#utility.yul\":13226:13244   */\n      tag_58\n      tag_241\n      jump\t// in\n        /* \"#utility.yul\":13257:13382   */\n    tag_178:\n        /* \"#utility.yul\":13322:13331   */\n      dup1\n      dup3\n      add\n        /* \"#utility.yul\":13343:13353   */\n      dup1\n      dup3\n      gt\n        /* \"#utility.yul\":13340:13376   */\n      iszero\n      tag_58\n      jumpi\n        /* \"#utility.yul\":13356:13374   */\n      tag_58\n      tag_241\n      jump\t// in\n        /* \"#utility.yul\":13743:14570   */\n    tag_187:\n      sub(shl(0xa0, 0x01), 0x01)\n        /* \"#utility.yul\":14140:14155   */\n      dup7\n      dup2\n      and\n        /* \"#utility.yul\":14122:14156   */\n      dup3\n      mstore\n        /* \"#utility.yul\":14192:14207   */\n      dup6\n      and\n        /* \"#utility.yul\":14187:14189   */\n      0x20\n        /* \"#utility.yul\":14172:14190   */\n      dup3\n      add\n        /* \"#utility.yul\":14165:14208   */\n      mstore\n        /* \"#utility.yul\":14102:14105   */\n      0xa0\n        /* \"#utility.yul\":14239:14241   */\n      0x40\n        /* \"#utility.yul\":14224:14242   */\n      dup3\n      add\n        /* \"#utility.yul\":14217:14248   */\n      dup2\n      swap1\n      mstore\n        /* \"#utility.yul\":14065:14069   */\n      0x00\n      swap1\n        /* \"#utility.yul\":14271:14328   */\n      tag_358\n      swap1\n        /* \"#utility.yul\":14308:14327   */\n      dup4\n      add\n        /* \"#utility.yul\":14300:14306   */\n      dup7\n        /* \"#utility.yul\":14271:14328   */\n      tag_240\n      jump\t// in\n    tag_358:\n        /* \"#utility.yul\":14376:14385   */\n      dup3\n        /* \"#utility.yul\":14368:14374   */\n      dup2\n        /* \"#utility.yul\":14364:14386   */\n      sub\n        /* \"#utility.yul\":14359:14361   */\n      0x60\n        /* \"#utility.yul\":14348:14357   */\n      dup5\n        /* \"#utility.yul\":14344:14362   */\n      add\n        /* \"#utility.yul\":14337:14387   */\n      mstore\n        /* \"#utility.yul\":14410:14454   */\n      tag_359\n        /* \"#utility.yul\":14447:14453   */\n      dup2\n        /* \"#utility.yul\":14439:14445   */\n      dup7\n        /* \"#utility.yul\":14410:14454   */\n      tag_240\n      jump\t// in\n    tag_359:\n        /* \"#utility.yul\":14396:14454   */\n      swap1\n      pop\n        /* \"#utility.yul\":14503:14512   */\n      dup3\n        /* \"#utility.yul\":14495:14501   */\n      dup2\n        /* \"#utility.yul\":14491:14513   */\n      sub\n        /* \"#utility.yul\":14485:14488   */\n      0x80\n        /* \"#utility.yul\":14474:14483   */\n      dup5\n        /* \"#utility.yul\":14470:14489   */\n      add\n        /* \"#utility.yul\":14463:14514   */\n      mstore\n        /* \"#utility.yul\":14531:14564   */\n      tag_360\n        /* \"#utility.yul\":14557:14563   */\n      dup2\n        /* \"#utility.yul\":14549:14555   */\n      dup6\n        /* \"#utility.yul\":14531:14564   */\n      tag_235\n      jump\t// in\n    tag_360:\n        /* \"#utility.yul\":14523:14564   */\n      swap9\n        /* \"#utility.yul\":13743:14570   */\n      swap8\n      pop\n      pop\n      pop\n      pop\n      pop\n      pop\n      pop\n      pop\n      jump\t// out\n        /* \"#utility.yul\":14575:14824   */\n    tag_190:\n        /* \"#utility.yul\":14644:14650   */\n      0x00\n        /* \"#utility.yul\":14697:14699   */\n      0x20\n        /* \"#utility.yul\":14685:14694   */\n      dup3\n        /* \"#utility.yul\":14676:14683   */\n      dup5\n        /* \"#utility.yul\":14672:14695   */\n      sub\n        /* \"#utility.yul\":14668:14700   */\n      slt\n        /* \"#utility.yul\":14665:14717   */\n      iszero\n      tag_362\n      jumpi\n        /* \"#utility.yul\":14713:14714   */\n      0x00\n        /* \"#utility.yul\":14710:14711   */\n      dup1\n        /* \"#utility.yul\":14703:14715   */\n      revert\n        /* \"#utility.yul\":14665:14717   */\n    tag_362:\n        /* \"#utility.yul\":14745:14754   */\n      dup2\n        /* \"#utility.yul\":14739:14755   */\n      mload\n        /* \"#utility.yul\":14764:14794   */\n      tag_179\n        /* \"#utility.yul\":14788:14793   */\n      dup2\n        /* \"#utility.yul\":14764:14794   */\n      tag_234\n      jump\t// in\n        /* \"#utility.yul\":14829:15008   */\n    tag_196:\n        /* \"#utility.yul\":14864:14867   */\n      0x00\n        /* \"#utility.yul\":14906:14907   */\n      0x03\n        /* \"#utility.yul\":14888:14904   */\n      returndatasize\n        /* \"#utility.yul\":14885:14908   */\n      gt\n        /* \"#utility.yul\":14882:15002   */\n      iszero\n      tag_365\n      jumpi\n        /* \"#utility.yul\":14952:14953   */\n      0x04\n        /* \"#utility.yul\":14949:14950   */\n      0x00\n        /* \"#utility.yul\":14946:14947   */\n      dup1\n        /* \"#utility.yul\":14931:14954   */\n      returndatacopy\n      pop\n        /* \"#utility.yul\":14989:14990   */\n      0x00\n        /* \"#utility.yul\":14983:14991   */\n      mload\n        /* \"#utility.yul\":14978:14981   */\n      0xe0\n        /* \"#utility.yul\":14974:14992   */\n      shr\n        /* \"#utility.yul\":14882:15002   */\n    tag_365:\n        /* \"#utility.yul\":14829:15008   */\n      swap1\n      jump\t// out\n        /* \"#utility.yul\":15013:15684   */\n    tag_198:\n        /* \"#utility.yul\":15052:15055   */\n      0x00\n        /* \"#utility.yul\":15094:15098   */\n      0x44\n        /* \"#utility.yul\":15076:15092   */\n      returndatasize\n        /* \"#utility.yul\":15073:15099   */\n      lt\n        /* \"#utility.yul\":15070:15109   */\n      iszero\n      tag_367\n      jumpi\n        /* \"#utility.yul\":15013:15684   */\n      swap1\n      jump\t// out\n        /* \"#utility.yul\":15070:15109   */\n    tag_367:\n        /* \"#utility.yul\":15136:15138   */\n      0x40\n        /* \"#utility.yul\":15130:15139   */\n      mload\n      not(0x03)\n        /* \"#utility.yul\":15201:15217   */\n      returndatasize\n        /* \"#utility.yul\":15197:15222   */\n      dup2\n      add\n        /* \"#utility.yul\":15194:15195   */\n      0x04\n        /* \"#utility.yul\":15130:15139   */\n      dup4\n        /* \"#utility.yul\":15173:15223   */\n      returndatacopy\n        /* \"#utility.yul\":15252:15256   */\n      dup2\n        /* \"#utility.yul\":15246:15257   */\n      mload\n        /* \"#utility.yul\":15276:15292   */\n      returndatasize\n        /* \"#utility.yul\":15311:15329   */\n      0xffffffffffffffff\n        /* \"#utility.yul\":15382:15384   */\n      dup2\n        /* \"#utility.yul\":15375:15379   */\n      0x24\n        /* \"#utility.yul\":15367:15373   */\n      dup5\n        /* \"#utility.yul\":15363:15380   */\n      add\n        /* \"#utility.yul\":15360:15385   */\n      gt\n        /* \"#utility.yul\":15355:15357   */\n      dup2\n        /* \"#utility.yul\":15347:15353   */\n      dup5\n        /* \"#utility.yul\":15344:15358   */\n      gt\n        /* \"#utility.yul\":15341:15386   */\n      or\n        /* \"#utility.yul\":15338:15396   */\n      iszero\n      tag_368\n      jumpi\n        /* \"#utility.yul\":15389:15394   */\n      pop\n      pop\n      pop\n      pop\n      pop\n        /* \"#utility.yul\":15013:15684   */\n      swap1\n      jump\t// out\n        /* \"#utility.yul\":15338:15396   */\n    tag_368:\n        /* \"#utility.yul\":15426:15432   */\n      dup3\n        /* \"#utility.yul\":15420:15424   */\n      dup6\n        /* \"#utility.yul\":15416:15433   */\n      add\n        /* \"#utility.yul\":15405:15433   */\n      swap2\n      pop\n        /* \"#utility.yul\":15462:15465   */\n      dup2\n        /* \"#utility.yul\":15456:15466   */\n      mload\n        /* \"#utility.yul\":15489:15491   */\n      dup2\n        /* \"#utility.yul\":15481:15487   */\n      dup2\n        /* \"#utility.yul\":15478:15492   */\n      gt\n        /* \"#utility.yul\":15475:15502   */\n      iszero\n      tag_369\n      jumpi\n        /* \"#utility.yul\":15495:15500   */\n      pop\n      pop\n      pop\n      pop\n      pop\n      pop\n        /* \"#utility.yul\":15013:15684   */\n      swap1\n      jump\t// out\n        /* \"#utility.yul\":15475:15502   */\n    tag_369:\n        /* \"#utility.yul\":15579:15581   */\n      dup5\n        /* \"#utility.yul\":15560:15576   */\n      returndatasize\n        /* \"#utility.yul\":15554:15558   */\n      dup8\n        /* \"#utility.yul\":15550:15577   */\n      add\n        /* \"#utility.yul\":15546:15582   */\n      add\n        /* \"#utility.yul\":15539:15543   */\n      0x20\n        /* \"#utility.yul\":15530:15536   */\n      dup3\n        /* \"#utility.yul\":15525:15528   */\n      dup6\n        /* \"#utility.yul\":15521:15537   */\n      add\n        /* \"#utility.yul\":15517:15544   */\n      add\n        /* \"#utility.yul\":15514:15583   */\n      gt\n        /* \"#utility.yul\":15511:15593   */\n      iszero\n      tag_370\n      jumpi\n        /* \"#utility.yul\":15586:15591   */\n      pop\n      pop\n      pop\n      pop\n      pop\n      pop\n        /* \"#utility.yul\":15013:15684   */\n      swap1\n      jump\t// out\n        /* \"#utility.yul\":15511:15593   */\n    tag_370:\n        /* \"#utility.yul\":15602:15659   */\n      tag_371\n        /* \"#utility.yul\":15653:15657   */\n      0x20\n        /* \"#utility.yul\":15644:15650   */\n      dup3\n        /* \"#utility.yul\":15636:15642   */\n      dup7\n        /* \"#utility.yul\":15632:15651   */\n      add\n        /* \"#utility.yul\":15628:15658   */\n      add\n        /* \"#utility.yul\":15622:15626   */\n      dup8\n        /* \"#utility.yul\":15602:15659   */\n      tag_236\n      jump\t// in\n    tag_371:\n      pop\n        /* \"#utility.yul\":15675:15678   */\n      swap1\n      swap6\n        /* \"#utility.yul\":15013:15684   */\n      swap5\n      pop\n      pop\n      pop\n      pop\n      pop\n      jump\t// out\n        /* \"#utility.yul\":16110:16514   */\n    tag_206:\n        /* \"#utility.yul\":16312:16314   */\n      0x20\n        /* \"#utility.yul\":16294:16315   */\n      dup1\n      dup3\n      mstore\n        /* \"#utility.yul\":16351:16353   */\n      0x28\n        /* \"#utility.yul\":16331:16349   */\n      swap1\n      dup3\n      add\n        /* \"#utility.yul\":16324:16354   */\n      mstore\n        /* \"#utility.yul\":16390:16424   */\n      0x455243313135353a204552433131353552656365697665722072656a65637465\n        /* \"#utility.yul\":16385:16387   */\n      0x40\n        /* \"#utility.yul\":16370:16388   */\n      dup3\n      add\n        /* \"#utility.yul\":16363:16425   */\n      mstore\n      shl(0xc0, 0x6420746f6b656e73)\n        /* \"#utility.yul\":16456:16458   */\n      0x60\n        /* \"#utility.yul\":16441:16459   */\n      dup3\n      add\n        /* \"#utility.yul\":16434:16472   */\n      mstore\n        /* \"#utility.yul\":16504:16507   */\n      0x80\n        /* \"#utility.yul\":16489:16508   */\n      add\n      swap1\n        /* \"#utility.yul\":16110:16514   */\n      jump\t// out\n        /* \"#utility.yul\":16519:17080   */\n    tag_217:\n      sub(shl(0xa0, 0x01), 0x01)\n        /* \"#utility.yul\":16816:16831   */\n      dup7\n      dup2\n      and\n        /* \"#utility.yul\":16798:16832   */\n      dup3\n      mstore\n        /* \"#utility.yul\":16868:16883   */\n      dup6\n      and\n        /* \"#utility.yul\":16863:16865   */\n      0x20\n        /* \"#utility.yul\":16848:16866   */\n      dup3\n      add\n        /* \"#utility.yul\":16841:16884   */\n      mstore\n        /* \"#utility.yul\":16915:16917   */\n      0x40\n        /* \"#utility.yul\":16900:16918   */\n      dup2\n      add\n        /* \"#utility.yul\":16893:16927   */\n      dup5\n      swap1\n      mstore\n        /* \"#utility.yul\":16958:16960   */\n      0x60\n        /* \"#utility.yul\":16943:16961   */\n      dup2\n      add\n        /* \"#utility.yul\":16936:16970   */\n      dup4\n      swap1\n      mstore\n        /* \"#utility.yul\":16778:16781   */\n      0xa0\n        /* \"#utility.yul\":17001:17004   */\n      0x80\n        /* \"#utility.yul\":16986:17005   */\n      dup3\n      add\n        /* \"#utility.yul\":16979:17011   */\n      dup2\n      swap1\n      mstore\n        /* \"#utility.yul\":16741:16745   */\n      0x00\n      swap1\n        /* \"#utility.yul\":17028:17074   */\n      tag_375\n      swap1\n        /* \"#utility.yul\":17054:17073   */\n      dup4\n      add\n        /* \"#utility.yul\":17046:17052   */\n      dup5\n        /* \"#utility.yul\":17028:17074   */\n      tag_235\n      jump\t// in\n    tag_375:\n        /* \"#utility.yul\":17020:17074   */\n      swap8\n        /* \"#utility.yul\":16519:17080   */\n      swap7\n      pop\n      pop\n      pop\n      pop\n      pop\n      pop\n      pop\n      jump\t// out\n    stop\n    data_8ac7e9556b567c1c94bb4daaa3c3a65be5ac686579615210cb910fb8cb8d65bf 455243313135353a20696e73756666696369656e742062616c616e636520666f72207472616e73666572\n\n    auxdata: 0xa26469706673582212201cbe8cf9566417eebb73cad7689f74c7c1e3edc3cb2252cf504f246acf90858264736f6c63430008130033\n}\n",
				"bytecode": {
					"linkReferences": {},
					"object": "60806040523480156200001157600080fd5b506040518060600160405280602781526020016200181b602791396200003e6301ffc9a760e01b62000074565b6200004981620000f8565b6200005b636cdb3d1360e11b62000074565b6200006d6303a24d0760e21b62000074565b506200027b565b6001600160e01b03198082169003620000d35760405162461bcd60e51b815260206004820152601c60248201527f4552433136353a20696e76616c696420696e7465726661636520696400000000604482015260640160405180910390fd5b6001600160e01b0319166000908152602081905260409020805460ff19166001179055565b6003620001068282620001af565b5050565b634e487b7160e01b600052604160045260246000fd5b600181811c908216806200013557607f821691505b6020821081036200015657634e487b7160e01b600052602260045260246000fd5b50919050565b601f821115620001aa57600081815260208120601f850160051c81016020861015620001855750805b601f850160051c820191505b81811015620001a65782815560010162000191565b5050505b505050565b81516001600160401b03811115620001cb57620001cb6200010a565b620001e381620001dc845462000120565b846200015c565b602080601f8311600181146200021b5760008415620002025750858301515b600019600386901b1c1916600185901b178555620001a6565b600085815260208120601f198616915b828110156200024c578886015182559484019460019091019084016200022b565b50858210156200026b5787850151600019600388901b60f8161c191681555b5050505050600190811b01905550565b611590806200028b6000396000f3fe608060405234801561001057600080fd5b50600436106100925760003560e01c80632eb2c2d6116100665780632eb2c2d61461012f5780634e1273f414610142578063a22cb46514610162578063e985e9c514610175578063f242432a146101b157600080fd5b8062fdd58e1461009757806301ffc9a7146100bd5780630e89341c146100fa578063156e29f61461011a575b600080fd5b6100aa6100a5366004610d82565b6101c4565b6040519081526020015b60405180910390f35b6100ea6100cb366004610dc5565b6001600160e01b03191660009081526020819052604090205460ff1690565b60405190151581526020016100b4565b61010d610108366004610de2565b610260565b6040516100b49190610e41565b61012d610128366004610e54565b6102f4565b005b61012d61013d366004610fd3565b610308565b61015561015036600461107d565b61059c565b6040516100b49190611183565b61012d610170366004611196565b6106c6565b6100ea6101833660046111d2565b6001600160a01b03918216600090815260026020908152604080832093909416825291909152205460ff1690565b61012d6101bf366004611205565b61079c565b60006001600160a01b0383166102355760405162461bcd60e51b815260206004820152602b60248201527f455243313135353a2062616c616e636520717565727920666f7220746865207a60448201526a65726f206164647265737360a81b60648201526084015b60405180910390fd5b5060008181526001602090815260408083206001600160a01b03861684529091529020545b92915050565b60606003805461026f9061126a565b80601f016020809104026020016040519081016040528092919081815260200182805461029b9061126a565b80156102e85780601f106102bd576101008083540402835291602001916102e8565b820191906000526020600020905b8154815290600101906020018083116102cb57829003601f168201915b50505050509050919050565b60606103028484848461094f565b50505050565b815183511461036a5760405162461bcd60e51b815260206004820152602860248201527f455243313135353a2069647320616e6420616d6f756e7473206c656e677468206044820152670dad2e6dac2e8c6d60c31b606482015260840161022c565b6001600160a01b0384166103905760405162461bcd60e51b815260040161022c906112a4565b6001600160a01b0385163314806103ac57506103ac8533610183565b6104135760405162461bcd60e51b815260206004820152603260248201527f455243313135353a207472616e736665722063616c6c6572206973206e6f74206044820152711bdddb995c881b9bdc88185c1c1c9bdd995960721b606482015260840161022c565b3360005b845181101561052e576000858281518110610434576104346112e9565b602002602001015190506000858381518110610452576104526112e9565b602002602001015190506104bf816040518060600160405280602a8152602001611531602a91396001600086815260200190815260200160002060008d6001600160a01b03166001600160a01b0316815260200190815260200160002054610a5f9092919063ffffffff16565b60008381526001602090815260408083206001600160a01b038e811685529252808320939093558a16815220546104f69082610a96565b60009283526001602090815260408085206001600160a01b038c168652909152909220919091555061052781611315565b9050610417565b50846001600160a01b0316866001600160a01b0316826001600160a01b03167f4a39dc06d4c0dbc64b70af90fd698a233a518aa5d07e595d983b8c0526c8f7fb878760405161057e92919061132e565b60405180910390a4610594818787878787610afc565b505050505050565b606081518351146106015760405162461bcd60e51b815260206004820152602960248201527f455243313135353a206163636f756e747320616e6420696473206c656e677468604482015268040dad2e6dac2e8c6d60bb1b606482015260840161022c565b6000835167ffffffffffffffff81111561061d5761061d610e87565b604051908082528060200260200182016040528015610646578160200160208202803683370190505b50905060005b84518110156106be5761069185828151811061066a5761066a6112e9565b6020026020010151858381518110610684576106846112e9565b60200260200101516101c4565b8282815181106106a3576106a36112e9565b60209081029190910101526106b781611315565b905061064c565b509392505050565b6001600160a01b03821633036107305760405162461bcd60e51b815260206004820152602960248201527f455243313135353a2073657474696e6720617070726f76616c20737461747573604482015268103337b91039b2b63360b91b606482015260840161022c565b3360008181526002602090815260408083206001600160a01b03871680855290835292819020805460ff191686151590811790915590519081529192917f17307eab39ab6107e8899845ad3d59bd9653f200f220920489ca2b5937696c31910160405180910390a35050565b6001600160a01b0384166107c25760405162461bcd60e51b815260040161022c906112a4565b6001600160a01b0385163314806107de57506107de8533610183565b61083c5760405162461bcd60e51b815260206004820152602960248201527f455243313135353a2063616c6c6572206973206e6f74206f776e6572206e6f7260448201526808185c1c1c9bdd995960ba1b606482015260840161022c565b3361085c81878761084c88610c60565b61085588610c60565b5050505050565b6108a3836040518060600160405280602a8152602001611531602a913960008781526001602090815260408083206001600160a01b038d1684529091529020549190610a5f565b60008581526001602090815260408083206001600160a01b038b811685529252808320939093558716815220546108da9084610a96565b60008581526001602090815260408083206001600160a01b038a811680865291845293829020949094558051888152918201879052898316928516917fc3d58168c5ae7397731d063d5bbf3d657854427343f4c083240f7aacaa2d0f62910160405180910390a4610594818787878787610cab565b6001600160a01b0384166109af5760405162461bcd60e51b815260206004820152602160248201527f455243313135353a206d696e7420746f20746865207a65726f206164647265736044820152607360f81b606482015260840161022c565b336109c08160008761084c88610c60565b60008481526001602090815260408083206001600160a01b03891684529091529020546109ed9084610a96565b60008581526001602090815260408083206001600160a01b038a8116808652918452828520959095558151898152928301889052938516917fc3d58168c5ae7397731d063d5bbf3d657854427343f4c083240f7aacaa2d0f62910160405180910390a461085581600087878787610cab565b60008184841115610a835760405162461bcd60e51b815260040161022c9190610e41565b50610a8e838561135c565b949350505050565b600080610aa3838561136f565b905083811015610af55760405162461bcd60e51b815260206004820152601b60248201527f536166654d6174683a206164646974696f6e206f766572666c6f770000000000604482015260640161022c565b9392505050565b6001600160a01b0384163b156105945760405163bc197c8160e01b81526001600160a01b0385169063bc197c8190610b409089908990889088908890600401611382565b6020604051808303816000875af1925050508015610b7b575060408051601f3d908101601f19168201909252610b78918101906113e0565b60015b610c2757610b876113fd565b806308c379a003610bc05750610b9b611419565b80610ba65750610bc2565b8060405162461bcd60e51b815260040161022c9190610e41565b505b60405162461bcd60e51b815260206004820152603460248201527f455243313135353a207472616e7366657220746f206e6f6e20455243313135356044820152732932b1b2b4bb32b91034b6b83632b6b2b73a32b960611b606482015260840161022c565b6001600160e01b0319811663bc197c8160e01b14610c575760405162461bcd60e51b815260040161022c906114a3565b50505050505050565b60408051600180825281830190925260609160009190602080830190803683370190505090508281600081518110610c9a57610c9a6112e9565b602090810291909101015292915050565b6001600160a01b0384163b156105945760405163f23a6e6160e01b81526001600160a01b0385169063f23a6e6190610cef90899089908890889088906004016114eb565b6020604051808303816000875af1925050508015610d2a575060408051601f3d908101601f19168201909252610d27918101906113e0565b60015b610d3657610b876113fd565b6001600160e01b0319811663f23a6e6160e01b14610c575760405162461bcd60e51b815260040161022c906114a3565b80356001600160a01b0381168114610d7d57600080fd5b919050565b60008060408385031215610d9557600080fd5b610d9e83610d66565b946020939093013593505050565b6001600160e01b031981168114610dc257600080fd5b50565b600060208284031215610dd757600080fd5b8135610af581610dac565b600060208284031215610df457600080fd5b5035919050565b6000815180845260005b81811015610e2157602081850181015186830182015201610e05565b506000602082860101526020601f19601f83011685010191505092915050565b602081526000610af56020830184610dfb565b600080600060608486031215610e6957600080fd5b610e7284610d66565b95602085013595506040909401359392505050565b634e487b7160e01b600052604160045260246000fd5b601f8201601f1916810167ffffffffffffffff81118282101715610ec357610ec3610e87565b6040525050565b600067ffffffffffffffff821115610ee457610ee4610e87565b5060051b60200190565b600082601f830112610eff57600080fd5b81356020610f0c82610eca565b604051610f198282610e9d565b83815260059390931b8501820192828101915086841115610f3957600080fd5b8286015b84811015610f545780358352918301918301610f3d565b509695505050505050565b600082601f830112610f7057600080fd5b813567ffffffffffffffff811115610f8a57610f8a610e87565b604051610fa1601f8301601f191660200182610e9d565b818152846020838601011115610fb657600080fd5b816020850160208301376000918101602001919091529392505050565b600080600080600060a08688031215610feb57600080fd5b610ff486610d66565b945061100260208701610d66565b9350604086013567ffffffffffffffff8082111561101f57600080fd5b61102b89838a01610eee565b9450606088013591508082111561104157600080fd5b61104d89838a01610eee565b9350608088013591508082111561106357600080fd5b5061107088828901610f5f565b9150509295509295909350565b6000806040838503121561109057600080fd5b823567ffffffffffffffff808211156110a857600080fd5b818501915085601f8301126110bc57600080fd5b813560206110c982610eca565b6040516110d68282610e9d565b83815260059390931b85018201928281019150898411156110f657600080fd5b948201945b8386101561111b5761110c86610d66565b825294820194908201906110fb565b9650508601359250508082111561113157600080fd5b5061113e85828601610eee565b9150509250929050565b600081518084526020808501945080840160005b838110156111785781518752958201959082019060010161115c565b509495945050505050565b602081526000610af56020830184611148565b600080604083850312156111a957600080fd5b6111b283610d66565b9150602083013580151581146111c757600080fd5b809150509250929050565b600080604083850312156111e557600080fd5b6111ee83610d66565b91506111fc60208401610d66565b90509250929050565b600080600080600060a0868803121561121d57600080fd5b61122686610d66565b945061123460208701610d66565b93506040860135925060608601359150608086013567ffffffffffffffff81111561125e57600080fd5b61107088828901610f5f565b600181811c9082168061127e57607f821691505b60208210810361129e57634e487b7160e01b600052602260045260246000fd5b50919050565b60208082526025908201527f455243313135353a207472616e7366657220746f20746865207a65726f206164604082015264647265737360d81b606082015260800190565b634e487b7160e01b600052603260045260246000fd5b634e487b7160e01b600052601160045260246000fd5b600060018201611327576113276112ff565b5060010190565b6040815260006113416040830185611148565b82810360208401526113538185611148565b95945050505050565b8181038181111561025a5761025a6112ff565b8082018082111561025a5761025a6112ff565b6001600160a01b0386811682528516602082015260a0604082018190526000906113ae90830186611148565b82810360608401526113c08186611148565b905082810360808401526113d48185610dfb565b98975050505050505050565b6000602082840312156113f257600080fd5b8151610af581610dac565b600060033d11156114165760046000803e5060005160e01c5b90565b600060443d10156114275790565b6040516003193d81016004833e81513d67ffffffffffffffff816024840111818411171561145757505050505090565b828501915081518181111561146f5750505050505090565b843d87010160208285010111156114895750505050505090565b61149860208286010187610e9d565b509095945050505050565b60208082526028908201527f455243313135353a204552433131353552656365697665722072656a656374656040820152676420746f6b656e7360c01b606082015260800190565b6001600160a01b03868116825285166020820152604081018490526060810183905260a06080820181905260009061152590830184610dfb565b97965050505050505056fe455243313135353a20696e73756666696369656e742062616c616e636520666f72207472616e73666572a26469706673582212201cbe8cf9566417eebb73cad7689f74c7c1e3edc3cb2252cf504f246acf90858264736f6c6343000813003368747470733a2f2f67616d652e6578616d706c652f6170692f6974656d2f7b69647d2e6a736f6e",
					"opcodes": "PUSH1 0x80 PUSH1 0x40 MSTORE CALLVALUE DUP1 ISZERO PUSH3 0x11 JUMPI PUSH1 0x0 DUP1 REVERT JUMPDEST POP PUSH1 0x40 MLOAD DUP1 PUSH1 0x60 ADD PUSH1 0x40 MSTORE DUP1 PUSH1 0x27 DUP2 MSTORE PUSH1 0x20 ADD PUSH3 0x181B PUSH1 0x27 SWAP2 CODECOPY PUSH3 0x3E PUSH4 0x1FFC9A7 PUSH1 0xE0 SHL PUSH3 0x74 JUMP JUMPDEST PUSH3 0x49 DUP2 PUSH3 0xF8 JUMP JUMPDEST PUSH3 0x5B PUSH4 0x6CDB3D13 PUSH1 0xE1 SHL PUSH3 0x74 JUMP JUMPDEST PUSH3 0x6D PUSH4 0x3A24D07 PUSH1 0xE2 SHL PUSH3 0x74 JUMP JUMPDEST POP PUSH3 0x27B JUMP JUMPDEST PUSH1 0x1 PUSH1 0x1 PUSH1 0xE0 SHL SUB NOT DUP1 DUP3 AND SWAP1 SUB PUSH3 0xD3 JUMPI PUSH1 0x40 MLOAD PUSH3 0x461BCD PUSH1 0xE5 SHL DUP2 MSTORE PUSH1 0x20 PUSH1 0x4 DUP3 ADD MSTORE PUSH1 0x1C PUSH1 0x24 DUP3 ADD MSTORE PUSH32 0x4552433136353A20696E76616C696420696E7465726661636520696400000000 PUSH1 0x44 DUP3 ADD MSTORE PUSH1 0x64 ADD PUSH1 0x40 MLOAD DUP1 SWAP2 SUB SWAP1 REVERT JUMPDEST PUSH1 0x1 PUSH1 0x1 PUSH1 0xE0 SHL SUB NOT AND PUSH1 0x0 SWAP1 DUP2 MSTORE PUSH1 0x20 DUP2 SWAP1 MSTORE PUSH1 0x40 SWAP1 KECCAK256 DUP1 SLOAD PUSH1 0xFF NOT AND PUSH1 0x1 OR SWAP1 SSTORE JUMP JUMPDEST PUSH1 0x3 PUSH3 0x106 DUP3 DUP3 PUSH3 0x1AF JUMP JUMPDEST POP POP JUMP JUMPDEST PUSH4 0x4E487B71 PUSH1 0xE0 SHL PUSH1 0x0 MSTORE PUSH1 0x41 PUSH1 0x4 MSTORE PUSH1 0x24 PUSH1 0x0 REVERT JUMPDEST PUSH1 0x1 DUP2 DUP2 SHR SWAP1 DUP3 AND DUP1 PUSH3 0x135 JUMPI PUSH1 0x7F DUP3 AND SWAP2 POP JUMPDEST PUSH1 0x20 DUP3 LT DUP2 SUB PUSH3 0x156 JUMPI PUSH4 0x4E487B71 PUSH1 0xE0 SHL PUSH1 0x0 MSTORE PUSH1 0x22 PUSH1 0x4 MSTORE PUSH1 0x24 PUSH1 0x0 REVERT JUMPDEST POP SWAP2 SWAP1 POP JUMP JUMPDEST PUSH1 0x1F DUP3 GT ISZERO PUSH3 0x1AA JUMPI PUSH1 0x0 DUP2 DUP2 MSTORE PUSH1 0x20 DUP2 KECCAK256 PUSH1 0x1F DUP6 ADD PUSH1 0x5 SHR DUP2 ADD PUSH1 0x20 DUP7 LT ISZERO PUSH3 0x185 JUMPI POP DUP1 JUMPDEST PUSH1 0x1F DUP6 ADD PUSH1 0x5 SHR DUP3 ADD SWAP2 POP JUMPDEST DUP2 DUP2 LT ISZERO PUSH3 0x1A6 JUMPI DUP3 DUP2 SSTORE PUSH1 0x1 ADD PUSH3 0x191 JUMP JUMPDEST POP POP POP JUMPDEST POP POP POP JUMP JUMPDEST DUP2 MLOAD PUSH1 0x1 PUSH1 0x1 PUSH1 0x40 SHL SUB DUP2 GT ISZERO PUSH3 0x1CB JUMPI PUSH3 0x1CB PUSH3 0x10A JUMP JUMPDEST PUSH3 0x1E3 DUP2 PUSH3 0x1DC DUP5 SLOAD PUSH3 0x120 JUMP JUMPDEST DUP5 PUSH3 0x15C JUMP JUMPDEST PUSH1 0x20 DUP1 PUSH1 0x1F DUP4 GT PUSH1 0x1 DUP2 EQ PUSH3 0x21B JUMPI PUSH1 0x0 DUP5 ISZERO PUSH3 0x202 JUMPI POP DUP6 DUP4 ADD MLOAD JUMPDEST PUSH1 0x0 NOT PUSH1 0x3 DUP7 SWAP1 SHL SHR NOT AND PUSH1 0x1 DUP6 SWAP1 SHL OR DUP6 SSTORE PUSH3 0x1A6 JUMP JUMPDEST PUSH1 0x0 DUP6 DUP2 MSTORE PUSH1 0x20 DUP2 KECCAK256 PUSH1 0x1F NOT DUP7 AND SWAP2 JUMPDEST DUP3 DUP2 LT ISZERO PUSH3 0x24C JUMPI DUP9 DUP7 ADD MLOAD DUP3 SSTORE SWAP5 DUP5 ADD SWAP5 PUSH1 0x1 SWAP1 SWAP2 ADD SWAP1 DUP5 ADD PUSH3 0x22B JUMP JUMPDEST POP DUP6 DUP3 LT ISZERO PUSH3 0x26B JUMPI DUP8 DUP6 ADD MLOAD PUSH1 0x0 NOT PUSH1 0x3 DUP9 SWAP1 SHL PUSH1 0xF8 AND SHR NOT AND DUP2 SSTORE JUMPDEST POP POP POP POP POP PUSH1 0x1 SWAP1 DUP2 SHL ADD SWAP1 SSTORE POP JUMP JUMPDEST PUSH2 0x1590 DUP1 PUSH3 0x28B PUSH1 0x0 CODECOPY PUSH1 0x0 RETURN INVALID PUSH1 0x80 PUSH1 0x40 MSTORE CALLVALUE DUP1 ISZERO PUSH2 0x10 JUMPI PUSH1 0x0 DUP1 REVERT JUMPDEST POP PUSH1 0x4 CALLDATASIZE LT PUSH2 0x92 JUMPI PUSH1 0x0 CALLDATALOAD PUSH1 0xE0 SHR DUP1 PUSH4 0x2EB2C2D6 GT PUSH2 0x66 JUMPI DUP1 PUSH4 0x2EB2C2D6 EQ PUSH2 0x12F JUMPI DUP1 PUSH4 0x4E1273F4 EQ PUSH2 0x142 JUMPI DUP1 PUSH4 0xA22CB465 EQ PUSH2 0x162 JUMPI DUP1 PUSH4 0xE985E9C5 EQ PUSH2 0x175 JUMPI DUP1 PUSH4 0xF242432A EQ PUSH2 0x1B1 JUMPI PUSH1 0x0 DUP1 REVERT JUMPDEST DUP1 PUSH3 0xFDD58E EQ PUSH2 0x97 JUMPI DUP1 PUSH4 0x1FFC9A7 EQ PUSH2 0xBD JUMPI DUP1 PUSH4 0xE89341C EQ PUSH2 0xFA JUMPI DUP1 PUSH4 0x156E29F6 EQ PUSH2 0x11A JUMPI JUMPDEST PUSH1 0x0 DUP1 REVERT JUMPDEST PUSH2 0xAA PUSH2 0xA5 CALLDATASIZE PUSH1 0x4 PUSH2 0xD82 JUMP JUMPDEST PUSH2 0x1C4 JUMP JUMPDEST PUSH1 0x40 MLOAD SWAP1 DUP2 MSTORE PUSH1 0x20 ADD JUMPDEST PUSH1 0x40 MLOAD DUP1 SWAP2 SUB SWAP1 RETURN JUMPDEST PUSH2 0xEA PUSH2 0xCB CALLDATASIZE PUSH1 0x4 PUSH2 0xDC5 JUMP JUMPDEST PUSH1 0x1 PUSH1 0x1 PUSH1 0xE0 SHL SUB NOT AND PUSH1 0x0 SWAP1 DUP2 MSTORE PUSH1 0x20 DUP2 SWAP1 MSTORE PUSH1 0x40 SWAP1 KECCAK256 SLOAD PUSH1 0xFF AND SWAP1 JUMP JUMPDEST PUSH1 0x40 MLOAD SWAP1 ISZERO ISZERO DUP2 MSTORE PUSH1 0x20 ADD PUSH2 0xB4 JUMP JUMPDEST PUSH2 0x10D PUSH2 0x108 CALLDATASIZE PUSH1 0x4 PUSH2 0xDE2 JUMP JUMPDEST PUSH2 0x260 JUMP JUMPDEST PUSH1 0x40 MLOAD PUSH2 0xB4 SWAP2 SWAP1 PUSH2 0xE41 JUMP JUMPDEST PUSH2 0x12D PUSH2 0x128 CALLDATASIZE PUSH1 0x4 PUSH2 0xE54 JUMP JUMPDEST PUSH2 0x2F4 JUMP JUMPDEST STOP JUMPDEST PUSH2 0x12D PUSH2 0x13D CALLDATASIZE PUSH1 0x4 PUSH2 0xFD3 JUMP JUMPDEST PUSH2 0x308 JUMP JUMPDEST PUSH2 0x155 PUSH2 0x150 CALLDATASIZE PUSH1 0x4 PUSH2 0x107D JUMP JUMPDEST PUSH2 0x59C JUMP JUMPDEST PUSH1 0x40 MLOAD PUSH2 0xB4 SWAP2 SWAP1 PUSH2 0x1183 JUMP JUMPDEST PUSH2 0x12D PUSH2 0x170 CALLDATASIZE PUSH1 0x4 PUSH2 0x1196 JUMP JUMPDEST PUSH2 0x6C6 JUMP JUMPDEST PUSH2 0xEA PUSH2 0x183 CALLDATASIZE PUSH1 0x4 PUSH2 0x11D2 JUMP JUMPDEST PUSH1 0x1 PUSH1 0x1 PUSH1 0xA0 SHL SUB SWAP2 DUP3 AND PUSH1 0x0 SWAP1 DUP2 MSTORE PUSH1 0x2 PUSH1 0x20 SWAP1 DUP2 MSTORE PUSH1 0x40 DUP1 DUP4 KECCAK256 SWAP4 SWAP1 SWAP5 AND DUP3 MSTORE SWAP2 SWAP1 SWAP2 MSTORE KECCAK256 SLOAD PUSH1 0xFF AND SWAP1 JUMP JUMPDEST PUSH2 0x12D PUSH2 0x1BF CALLDATASIZE PUSH1 0x4 PUSH2 0x1205 JUMP JUMPDEST PUSH2 0x79C JUMP JUMPDEST PUSH1 0x0 PUSH1 0x1 PUSH1 0x1 PUSH1 0xA0 SHL SUB DUP4 AND PUSH2 0x235 JUMPI PUSH1 0x40 MLOAD PUSH3 0x461BCD PUSH1 0xE5 SHL DUP2 MSTORE PUSH1 0x20 PUSH1 0x4 DUP3 ADD MSTORE PUSH1 0x2B PUSH1 0x24 DUP3 ADD MSTORE PUSH32 0x455243313135353A2062616C616E636520717565727920666F7220746865207A PUSH1 0x44 DUP3 ADD MSTORE PUSH11 0x65726F2061646472657373 PUSH1 0xA8 SHL PUSH1 0x64 DUP3 ADD MSTORE PUSH1 0x84 ADD JUMPDEST PUSH1 0x40 MLOAD DUP1 SWAP2 SUB SWAP1 REVERT JUMPDEST POP PUSH1 0x0 DUP2 DUP2 MSTORE PUSH1 0x1 PUSH1 0x20 SWAP1 DUP2 MSTORE PUSH1 0x40 DUP1 DUP4 KECCAK256 PUSH1 0x1 PUSH1 0x1 PUSH1 0xA0 SHL SUB DUP7 AND DUP5 MSTORE SWAP1 SWAP2 MSTORE SWAP1 KECCAK256 SLOAD JUMPDEST SWAP3 SWAP2 POP POP JUMP JUMPDEST PUSH1 0x60 PUSH1 0x3 DUP1 SLOAD PUSH2 0x26F SWAP1 PUSH2 0x126A JUMP JUMPDEST DUP1 PUSH1 0x1F ADD PUSH1 0x20 DUP1 SWAP2 DIV MUL PUSH1 0x20 ADD PUSH1 0x40 MLOAD SWAP1 DUP2 ADD PUSH1 0x40 MSTORE DUP1 SWAP3 SWAP2 SWAP1 DUP2 DUP2 MSTORE PUSH1 0x20 ADD DUP3 DUP1 SLOAD PUSH2 0x29B SWAP1 PUSH2 0x126A JUMP JUMPDEST DUP1 ISZERO PUSH2 0x2E8 JUMPI DUP1 PUSH1 0x1F LT PUSH2 0x2BD JUMPI PUSH2 0x100 DUP1 DUP4 SLOAD DIV MUL DUP4 MSTORE SWAP2 PUSH1 0x20 ADD SWAP2 PUSH2 0x2E8 JUMP JUMPDEST DUP3 ADD SWAP2 SWAP1 PUSH1 0x0 MSTORE PUSH1 0x20 PUSH1 0x0 KECCAK256 SWAP1 JUMPDEST DUP2 SLOAD DUP2 MSTORE SWAP1 PUSH1 0x1 ADD SWAP1 PUSH1 0x20 ADD DUP1 DUP4 GT PUSH2 0x2CB JUMPI DUP3 SWAP1 SUB PUSH1 0x1F AND DUP3 ADD SWAP2 JUMPDEST POP POP POP POP POP SWAP1 POP SWAP2 SWAP1 POP JUMP JUMPDEST PUSH1 0x60 PUSH2 0x302 DUP5 DUP5 DUP5 DUP5 PUSH2 0x94F JUMP JUMPDEST POP POP POP POP JUMP JUMPDEST DUP2 MLOAD DUP4 MLOAD EQ PUSH2 0x36A JUMPI PUSH1 0x40 MLOAD PUSH3 0x461BCD PUSH1 0xE5 SHL DUP2 MSTORE PUSH1 0x20 PUSH1 0x4 DUP3 ADD MSTORE PUSH1 0x28 PUSH1 0x24 DUP3 ADD MSTORE PUSH32 0x455243313135353A2069647320616E6420616D6F756E7473206C656E67746820 PUSH1 0x44 DUP3 ADD MSTORE PUSH8 0xDAD2E6DAC2E8C6D PUSH1 0xC3 SHL PUSH1 0x64 DUP3 ADD MSTORE PUSH1 0x84 ADD PUSH2 0x22C JUMP JUMPDEST PUSH1 0x1 PUSH1 0x1 PUSH1 0xA0 SHL SUB DUP5 AND PUSH2 0x390 JUMPI PUSH1 0x40 MLOAD PUSH3 0x461BCD PUSH1 0xE5 SHL DUP2 MSTORE PUSH1 0x4 ADD PUSH2 0x22C SWAP1 PUSH2 0x12A4 JUMP JUMPDEST PUSH1 0x1 PUSH1 0x1 PUSH1 0xA0 SHL SUB DUP6 AND CALLER EQ DUP1 PUSH2 0x3AC JUMPI POP PUSH2 0x3AC DUP6 CALLER PUSH2 0x183 JUMP JUMPDEST PUSH2 0x413 JUMPI PUSH1 0x40 MLOAD PUSH3 0x461BCD PUSH1 0xE5 SHL DUP2 MSTORE PUSH1 0x20 PUSH1 0x4 DUP3 ADD MSTORE PUSH1 0x32 PUSH1 0x24 DUP3 ADD MSTORE PUSH32 0x455243313135353A207472616E736665722063616C6C6572206973206E6F7420 PUSH1 0x44 DUP3 ADD MSTORE PUSH18 0x1BDDDB995C881B9BDC88185C1C1C9BDD9959 PUSH1 0x72 SHL PUSH1 0x64 DUP3 ADD MSTORE PUSH1 0x84 ADD PUSH2 0x22C JUMP JUMPDEST CALLER PUSH1 0x0 JUMPDEST DUP5 MLOAD DUP2 LT ISZERO PUSH2 0x52E JUMPI PUSH1 0x0 DUP6 DUP3 DUP2 MLOAD DUP2 LT PUSH2 0x434 JUMPI PUSH2 0x434 PUSH2 0x12E9 JUMP JUMPDEST PUSH1 0x20 MUL PUSH1 0x20 ADD ADD MLOAD SWAP1 POP PUSH1 0x0 DUP6 DUP4 DUP2 MLOAD DUP2 LT PUSH2 0x452 JUMPI PUSH2 0x452 PUSH2 0x12E9 JUMP JUMPDEST PUSH1 0x20 MUL PUSH1 0x20 ADD ADD MLOAD SWAP1 POP PUSH2 0x4BF DUP2 PUSH1 0x40 MLOAD DUP1 PUSH1 0x60 ADD PUSH1 0x40 MSTORE DUP1 PUSH1 0x2A DUP2 MSTORE PUSH1 0x20 ADD PUSH2 0x1531 PUSH1 0x2A SWAP2 CODECOPY PUSH1 0x1 PUSH1 0x0 DUP7 DUP2 MSTORE PUSH1 0x20 ADD SWAP1 DUP2 MSTORE PUSH1 0x20 ADD PUSH1 0x0 KECCAK256 PUSH1 0x0 DUP14 PUSH1 0x1 PUSH1 0x1 PUSH1 0xA0 SHL SUB AND PUSH1 0x1 PUSH1 0x1 PUSH1 0xA0 SHL SUB AND DUP2 MSTORE PUSH1 0x20 ADD SWAP1 DUP2 MSTORE PUSH1 0x20 ADD PUSH1 0x0 KECCAK256 SLOAD PUSH2 0xA5F SWAP1 SWAP3 SWAP2 SWAP1 PUSH4 0xFFFFFFFF AND JUMP JUMPDEST PUSH1 0x0 DUP4 DUP2 MSTORE PUSH1 0x1 PUSH1 0x20 SWAP1 DUP2 MSTORE PUSH1 0x40 DUP1 DUP4 KECCAK256 PUSH1 0x1 PUSH1 0x1 PUSH1 0xA0 SHL SUB DUP15 DUP2 AND DUP6 MSTORE SWAP3 MSTORE DUP1 DUP4 KECCAK256 SWAP4 SWAP1 SWAP4 SSTORE DUP11 AND DUP2 MSTORE KECCAK256 SLOAD PUSH2 0x4F6 SWAP1 DUP3 PUSH2 0xA96 JUMP JUMPDEST PUSH1 0x0 SWAP3 DUP4 MSTORE PUSH1 0x1 PUSH1 0x20 SWAP1 DUP2 MSTORE PUSH1 0x40 DUP1 DUP6 KECCAK256 PUSH1 0x1 PUSH1 0x1 PUSH1 0xA0 SHL SUB DUP13 AND DUP7 MSTORE SWAP1 SWAP2 MSTORE SWAP1 SWAP3 KECCAK256 SWAP2 SWAP1 SWAP2 SSTORE POP PUSH2 0x527 DUP2 PUSH2 0x1315 JUMP JUMPDEST SWAP1 POP PUSH2 0x417 JUMP JUMPDEST POP DUP5 PUSH1 0x1 PUSH1 0x1 PUSH1 0xA0 SHL SUB AND DUP7 PUSH1 0x1 PUSH1 0x1 PUSH1 0xA0 SHL SUB AND DUP3 PUSH1 0x1 PUSH1 0x1 PUSH1 0xA0 SHL SUB AND PUSH32 0x4A39DC06D4C0DBC64B70AF90FD698A233A518AA5D07E595D983B8C0526C8F7FB DUP8 DUP8 PUSH1 0x40 MLOAD PUSH2 0x57E SWAP3 SWAP2 SWAP1 PUSH2 0x132E JUMP JUMPDEST PUSH1 0x40 MLOAD DUP1 SWAP2 SUB SWAP1 LOG4 PUSH2 0x594 DUP2 DUP8 DUP8 DUP8 DUP8 DUP8 PUSH2 0xAFC JUMP JUMPDEST POP POP POP POP POP POP JUMP JUMPDEST PUSH1 0x60 DUP2 MLOAD DUP4 MLOAD EQ PUSH2 0x601 JUMPI PUSH1 0x40 MLOAD PUSH3 0x461BCD PUSH1 0xE5 SHL DUP2 MSTORE PUSH1 0x20 PUSH1 0x4 DUP3 ADD MSTORE PUSH1 0x29 PUSH1 0x24 DUP3 ADD MSTORE PUSH32 0x455243313135353A206163636F756E747320616E6420696473206C656E677468 PUSH1 0x44 DUP3 ADD MSTORE PUSH9 0x40DAD2E6DAC2E8C6D PUSH1 0xBB SHL PUSH1 0x64 DUP3 ADD MSTORE PUSH1 0x84 ADD PUSH2 0x22C JUMP JUMPDEST PUSH1 0x0 DUP4 MLOAD PUSH8 0xFFFFFFFFFFFFFFFF DUP2 GT ISZERO PUSH2 0x61D JUMPI PUSH2 0x61D PUSH2 0xE87 JUMP JUMPDEST PUSH1 0x40 MLOAD SWAP1 DUP1 DUP3 MSTORE DUP1 PUSH1 0x20 MUL PUSH1 0x20 ADD DUP3 ADD PUSH1 0x40 MSTORE DUP1 ISZERO PUSH2 0x646 JUMPI DUP2 PUSH1 0x20 ADD PUSH1 0x20 DUP3 MUL DUP1 CALLDATASIZE DUP4 CALLDATACOPY ADD SWAP1 POP JUMPDEST POP SWAP1 POP PUSH1 0x0 JUMPDEST DUP5 MLOAD DUP2 LT ISZERO PUSH2 0x6BE JUMPI PUSH2 0x691 DUP6 DUP3 DUP2 MLOAD DUP2 LT PUSH2 0x66A JUMPI PUSH2 0x66A PUSH2 0x12E9 JUMP JUMPDEST PUSH1 0x20 MUL PUSH1 0x20 ADD ADD MLOAD DUP6 DUP4 DUP2 MLOAD DUP2 LT PUSH2 0x684 JUMPI PUSH2 0x684 PUSH2 0x12E9 JUMP JUMPDEST PUSH1 0x20 MUL PUSH1 0x20 ADD ADD MLOAD PUSH2 0x1C4 JUMP JUMPDEST DUP3 DUP3 DUP2 MLOAD DUP2 LT PUSH2 0x6A3 JUMPI PUSH2 0x6A3 PUSH2 0x12E9 JUMP JUMPDEST PUSH1 0x20 SWAP1 DUP2 MUL SWAP2 SWAP1 SWAP2 ADD ADD MSTORE PUSH2 0x6B7 DUP2 PUSH2 0x1315 JUMP JUMPDEST SWAP1 POP PUSH2 0x64C JUMP JUMPDEST POP SWAP4 SWAP3 POP POP POP JUMP JUMPDEST PUSH1 0x1 PUSH1 0x1 PUSH1 0xA0 SHL SUB DUP3 AND CALLER SUB PUSH2 0x730 JUMPI PUSH1 0x40 MLOAD PUSH3 0x461BCD PUSH1 0xE5 SHL DUP2 MSTORE PUSH1 0x20 PUSH1 0x4 DUP3 ADD MSTORE PUSH1 0x29 PUSH1 0x24 DUP3 ADD MSTORE PUSH32 0x455243313135353A2073657474696E6720617070726F76616C20737461747573 PUSH1 0x44 DUP3 ADD MSTORE PUSH9 0x103337B91039B2B633 PUSH1 0xB9 SHL PUSH1 0x64 DUP3 ADD MSTORE PUSH1 0x84 ADD PUSH2 0x22C JUMP JUMPDEST CALLER PUSH1 0x0 DUP2 DUP2 MSTORE PUSH1 0x2 PUSH1 0x20 SWAP1 DUP2 MSTORE PUSH1 0x40 DUP1 DUP4 KECCAK256 PUSH1 0x1 PUSH1 0x1 PUSH1 0xA0 SHL SUB DUP8 AND DUP1 DUP6 MSTORE SWAP1 DUP4 MSTORE SWAP3 DUP2 SWAP1 KECCAK256 DUP1 SLOAD PUSH1 0xFF NOT AND DUP7 ISZERO ISZERO SWAP1 DUP2 OR SWAP1 SWAP2 SSTORE SWAP1 MLOAD SWAP1 DUP2 MSTORE SWAP2 SWAP3 SWAP2 PUSH32 0x17307EAB39AB6107E8899845AD3D59BD9653F200F220920489CA2B5937696C31 SWAP2 ADD PUSH1 0x40 MLOAD DUP1 SWAP2 SUB SWAP1 LOG3 POP POP JUMP JUMPDEST PUSH1 0x1 PUSH1 0x1 PUSH1 0xA0 SHL SUB DUP5 AND PUSH2 0x7C2 JUMPI PUSH1 0x40 MLOAD PUSH3 0x461BCD PUSH1 0xE5 SHL DUP2 MSTORE PUSH1 0x4 ADD PUSH2 0x22C SWAP1 PUSH2 0x12A4 JUMP JUMPDEST PUSH1 0x1 PUSH1 0x1 PUSH1 0xA0 SHL SUB DUP6 AND CALLER EQ DUP1 PUSH2 0x7DE JUMPI POP PUSH2 0x7DE DUP6 CALLER PUSH2 0x183 JUMP JUMPDEST PUSH2 0x83C JUMPI PUSH1 0x40 MLOAD PUSH3 0x461BCD PUSH1 0xE5 SHL DUP2 MSTORE PUSH1 0x20 PUSH1 0x4 DUP3 ADD MSTORE PUSH1 0x29 PUSH1 0x24 DUP3 ADD MSTORE PUSH32 0x455243313135353A2063616C6C6572206973206E6F74206F776E6572206E6F72 PUSH1 0x44 DUP3 ADD MSTORE PUSH9 0x8185C1C1C9BDD9959 PUSH1 0xBA SHL PUSH1 0x64 DUP3 ADD MSTORE PUSH1 0x84 ADD PUSH2 0x22C JUMP JUMPDEST CALLER PUSH2 0x85C DUP2 DUP8 DUP8 PUSH2 0x84C DUP9 PUSH2 0xC60 JUMP JUMPDEST PUSH2 0x855 DUP9 PUSH2 0xC60 JUMP JUMPDEST POP POP POP POP POP JUMP JUMPDEST PUSH2 0x8A3 DUP4 PUSH1 0x40 MLOAD DUP1 PUSH1 0x60 ADD PUSH1 0x40 MSTORE DUP1 PUSH1 0x2A DUP2 MSTORE PUSH1 0x20 ADD PUSH2 0x1531 PUSH1 0x2A SWAP2 CODECOPY PUSH1 0x0 DUP8 DUP2 MSTORE PUSH1 0x1 PUSH1 0x20 SWAP1 DUP2 MSTORE PUSH1 0x40 DUP1 DUP4 KECCAK256 PUSH1 0x1 PUSH1 0x1 PUSH1 0xA0 SHL SUB DUP14 AND DUP5 MSTORE SWAP1 SWAP2 MSTORE SWAP1 KECCAK256 SLOAD SWAP2 SWAP1 PUSH2 0xA5F JUMP JUMPDEST PUSH1 0x0 DUP6 DUP2 MSTORE PUSH1 0x1 PUSH1 0x20 SWAP1 DUP2 MSTORE PUSH1 0x40 DUP1 DUP4 KECCAK256 PUSH1 0x1 PUSH1 0x1 PUSH1 0xA0 SHL SUB DUP12 DUP2 AND DUP6 MSTORE SWAP3 MSTORE DUP1 DUP4 KECCAK256 SWAP4 SWAP1 SWAP4 SSTORE DUP8 AND DUP2 MSTORE KECCAK256 SLOAD PUSH2 0x8DA SWAP1 DUP5 PUSH2 0xA96 JUMP JUMPDEST PUSH1 0x0 DUP6 DUP2 MSTORE PUSH1 0x1 PUSH1 0x20 SWAP1 DUP2 MSTORE PUSH1 0x40 DUP1 DUP4 KECCAK256 PUSH1 0x1 PUSH1 0x1 PUSH1 0xA0 SHL SUB DUP11 DUP2 AND DUP1 DUP7 MSTORE SWAP2 DUP5 MSTORE SWAP4 DUP3 SWAP1 KECCAK256 SWAP5 SWAP1 SWAP5 SSTORE DUP1 MLOAD DUP9 DUP2 MSTORE SWAP2 DUP3 ADD DUP8 SWAP1 MSTORE DUP10 DUP4 AND SWAP3 DUP6 AND SWAP2 PUSH32 0xC3D58168C5AE7397731D063D5BBF3D657854427343F4C083240F7AACAA2D0F62 SWAP2 ADD PUSH1 0x40 MLOAD DUP1 SWAP2 SUB SWAP1 LOG4 PUSH2 0x594 DUP2 DUP8 DUP8 DUP8 DUP8 DUP8 PUSH2 0xCAB JUMP JUMPDEST PUSH1 0x1 PUSH1 0x1 PUSH1 0xA0 SHL SUB DUP5 AND PUSH2 0x9AF JUMPI PUSH1 0x40 MLOAD PUSH3 0x461BCD PUSH1 0xE5 SHL DUP2 MSTORE PUSH1 0x20 PUSH1 0x4 DUP3 ADD MSTORE PUSH1 0x21 PUSH1 0x24 DUP3 ADD MSTORE PUSH32 0x455243313135353A206D696E7420746F20746865207A65726F20616464726573 PUSH1 0x44 DUP3 ADD MSTORE PUSH1 0x73 PUSH1 0xF8 SHL PUSH1 0x64 DUP3 ADD MSTORE PUSH1 0x84 ADD PUSH2 0x22C JUMP JUMPDEST CALLER PUSH2 0x9C0 DUP2 PUSH1 0x0 DUP8 PUSH2 0x84C DUP9 PUSH2 0xC60 JUMP JUMPDEST PUSH1 0x0 DUP5 DUP2 MSTORE PUSH1 0x1 PUSH1 0x20 SWAP1 DUP2 MSTORE PUSH1 0x40 DUP1 DUP4 KECCAK256 PUSH1 0x1 PUSH1 0x1 PUSH1 0xA0 SHL SUB DUP10 AND DUP5 MSTORE SWAP1 SWAP2 MSTORE SWAP1 KECCAK256 SLOAD PUSH2 0x9ED SWAP1 DUP5 PUSH2 0xA96 JUMP JUMPDEST PUSH1 0x0 DUP6 DUP2 MSTORE PUSH1 0x1 PUSH1 0x20 SWAP1 DUP2 MSTORE PUSH1 0x40 DUP1 DUP4 KECCAK256 PUSH1 0x1 PUSH1 0x1 PUSH1 0xA0 SHL SUB DUP11 DUP2 AND DUP1 DUP7 MSTORE SWAP2 DUP5 MSTORE DUP3 DUP6 KECCAK256 SWAP6 SWAP1 SWAP6 SSTORE DUP2 MLOAD DUP10 DUP2 MSTORE SWAP3 DUP4 ADD DUP9 SWAP1 MSTORE SWAP4 DUP6 AND SWAP2 PUSH32 0xC3D58168C5AE7397731D063D5BBF3D657854427343F4C083240F7AACAA2D0F62 SWAP2 ADD PUSH1 0x40 MLOAD DUP1 SWAP2 SUB SWAP1 LOG4 PUSH2 0x855 DUP2 PUSH1 0x0 DUP8 DUP8 DUP8 DUP8 PUSH2 0xCAB JUMP JUMPDEST PUSH1 0x0 DUP2 DUP5 DUP5 GT ISZERO PUSH2 0xA83 JUMPI PUSH1 0x40 MLOAD PUSH3 0x461BCD PUSH1 0xE5 SHL DUP2 MSTORE PUSH1 0x4 ADD PUSH2 0x22C SWAP2 SWAP1 PUSH2 0xE41 JUMP JUMPDEST POP PUSH2 0xA8E DUP4 DUP6 PUSH2 0x135C JUMP JUMPDEST SWAP5 SWAP4 POP POP POP POP JUMP JUMPDEST PUSH1 0x0 DUP1 PUSH2 0xAA3 DUP4 DUP6 PUSH2 0x136F JUMP JUMPDEST SWAP1 POP DUP4 DUP2 LT ISZERO PUSH2 0xAF5 JUMPI PUSH1 0x40 MLOAD PUSH3 0x461BCD PUSH1 0xE5 SHL DUP2 MSTORE PUSH1 0x20 PUSH1 0x4 DUP3 ADD MSTORE PUSH1 0x1B PUSH1 0x24 DUP3 ADD MSTORE PUSH32 0x536166654D6174683A206164646974696F6E206F766572666C6F770000000000 PUSH1 0x44 DUP3 ADD MSTORE PUSH1 0x64 ADD PUSH2 0x22C JUMP JUMPDEST SWAP4 SWAP3 POP POP POP JUMP JUMPDEST PUSH1 0x1 PUSH1 0x1 PUSH1 0xA0 SHL SUB DUP5 AND EXTCODESIZE ISZERO PUSH2 0x594 JUMPI PUSH1 0x40 MLOAD PUSH4 0xBC197C81 PUSH1 0xE0 SHL DUP2 MSTORE PUSH1 0x1 PUSH1 0x1 PUSH1 0xA0 SHL SUB DUP6 AND SWAP1 PUSH4 0xBC197C81 SWAP1 PUSH2 0xB40 SWAP1 DUP10 SWAP1 DUP10 SWAP1 DUP9 SWAP1 DUP9 SWAP1 DUP9 SWAP1 PUSH1 0x4 ADD PUSH2 0x1382 JUMP JUMPDEST PUSH1 0x20 PUSH1 0x40 MLOAD DUP1 DUP4 SUB DUP2 PUSH1 0x0 DUP8 GAS CALL SWAP3 POP POP POP DUP1 ISZERO PUSH2 0xB7B JUMPI POP PUSH1 0x40 DUP1 MLOAD PUSH1 0x1F RETURNDATASIZE SWAP1 DUP2 ADD PUSH1 0x1F NOT AND DUP3 ADD SWAP1 SWAP3 MSTORE PUSH2 0xB78 SWAP2 DUP2 ADD SWAP1 PUSH2 0x13E0 JUMP JUMPDEST PUSH1 0x1 JUMPDEST PUSH2 0xC27 JUMPI PUSH2 0xB87 PUSH2 0x13FD JUMP JUMPDEST DUP1 PUSH4 0x8C379A0 SUB PUSH2 0xBC0 JUMPI POP PUSH2 0xB9B PUSH2 0x1419 JUMP JUMPDEST DUP1 PUSH2 0xBA6 JUMPI POP PUSH2 0xBC2 JUMP JUMPDEST DUP1 PUSH1 0x40 MLOAD PUSH3 0x461BCD PUSH1 0xE5 SHL DUP2 MSTORE PUSH1 0x4 ADD PUSH2 0x22C SWAP2 SWAP1 PUSH2 0xE41 JUMP JUMPDEST POP JUMPDEST PUSH1 0x40 MLOAD PUSH3 0x461BCD PUSH1 0xE5 SHL DUP2 MSTORE PUSH1 0x20 PUSH1 0x4 DUP3 ADD MSTORE PUSH1 0x34 PUSH1 0x24 DUP3 ADD MSTORE PUSH32 0x455243313135353A207472616E7366657220746F206E6F6E2045524331313535 PUSH1 0x44 DUP3 ADD MSTORE PUSH20 0x2932B1B2B4BB32B91034B6B83632B6B2B73A32B9 PUSH1 0x61 SHL PUSH1 0x64 DUP3 ADD MSTORE PUSH1 0x84 ADD PUSH2 0x22C JUMP JUMPDEST PUSH1 0x1 PUSH1 0x1 PUSH1 0xE0 SHL SUB NOT DUP2 AND PUSH4 0xBC197C81 PUSH1 0xE0 SHL EQ PUSH2 0xC57 JUMPI PUSH1 0x40 MLOAD PUSH3 0x461BCD PUSH1 0xE5 SHL DUP2 MSTORE PUSH1 0x4 ADD PUSH2 0x22C SWAP1 PUSH2 0x14A3 JUMP JUMPDEST POP POP POP POP POP POP POP JUMP JUMPDEST PUSH1 0x40 DUP1 MLOAD PUSH1 0x1 DUP1 DUP3 MSTORE DUP2 DUP4 ADD SWAP1 SWAP3 MSTORE PUSH1 0x60 SWAP2 PUSH1 0x0 SWAP2 SWAP1 PUSH1 0x20 DUP1 DUP4 ADD SWAP1 DUP1 CALLDATASIZE DUP4 CALLDATACOPY ADD SWAP1 POP POP SWAP1 POP DUP3 DUP2 PUSH1 0x0 DUP2 MLOAD DUP2 LT PUSH2 0xC9A JUMPI PUSH2 0xC9A PUSH2 0x12E9 JUMP JUMPDEST PUSH1 0x20 SWAP1 DUP2 MUL SWAP2 SWAP1 SWAP2 ADD ADD MSTORE SWAP3 SWAP2 POP POP JUMP JUMPDEST PUSH1 0x1 PUSH1 0x1 PUSH1 0xA0 SHL SUB DUP5 AND EXTCODESIZE ISZERO PUSH2 0x594 JUMPI PUSH1 0x40 MLOAD PUSH4 0xF23A6E61 PUSH1 0xE0 SHL DUP2 MSTORE PUSH1 0x1 PUSH1 0x1 PUSH1 0xA0 SHL SUB DUP6 AND SWAP1 PUSH4 0xF23A6E61 SWAP1 PUSH2 0xCEF SWAP1 DUP10 SWAP1 DUP10 SWAP1 DUP9 SWAP1 DUP9 SWAP1 DUP9 SWAP1 PUSH1 0x4 ADD PUSH2 0x14EB JUMP JUMPDEST PUSH1 0x20 PUSH1 0x40 MLOAD DUP1 DUP4 SUB DUP2 PUSH1 0x0 DUP8 GAS CALL SWAP3 POP POP POP DUP1 ISZERO PUSH2 0xD2A JUMPI POP PUSH1 0x40 DUP1 MLOAD PUSH1 0x1F RETURNDATASIZE SWAP1 DUP2 ADD PUSH1 0x1F NOT AND DUP3 ADD SWAP1 SWAP3 MSTORE PUSH2 0xD27 SWAP2 DUP2 ADD SWAP1 PUSH2 0x13E0 JUMP JUMPDEST PUSH1 0x1 JUMPDEST PUSH2 0xD36 JUMPI PUSH2 0xB87 PUSH2 0x13FD JUMP JUMPDEST PUSH1 0x1 PUSH1 0x1 PUSH1 0xE0 SHL SUB NOT DUP2 AND PUSH4 0xF23A6E61 PUSH1 0xE0 SHL EQ PUSH2 0xC57 JUMPI PUSH1 0x40 MLOAD PUSH3 0x461BCD PUSH1 0xE5 SHL DUP2 MSTORE PUSH1 0x4 ADD PUSH2 0x22C SWAP1 PUSH2 0x14A3 JUMP JUMPDEST DUP1 CALLDATALOAD PUSH1 0x1 PUSH1 0x1 PUSH1 0xA0 SHL SUB DUP2 AND DUP2 EQ PUSH2 0xD7D JUMPI PUSH1 0x0 DUP1 REVERT JUMPDEST SWAP2 SWAP1 POP JUMP JUMPDEST PUSH1 0x0 DUP1 PUSH1 0x40 DUP4 DUP6 SUB SLT ISZERO PUSH2 0xD95 JUMPI PUSH1 0x0 DUP1 REVERT JUMPDEST PUSH2 0xD9E DUP4 PUSH2 0xD66 JUMP JUMPDEST SWAP5 PUSH1 0x20 SWAP4 SWAP1 SWAP4 ADD CALLDATALOAD SWAP4 POP POP POP JUMP JUMPDEST PUSH1 0x1 PUSH1 0x1 PUSH1 0xE0 SHL SUB NOT DUP2 AND DUP2 EQ PUSH2 0xDC2 JUMPI PUSH1 0x0 DUP1 REVERT JUMPDEST POP JUMP JUMPDEST PUSH1 0x0 PUSH1 0x20 DUP3 DUP5 SUB SLT ISZERO PUSH2 0xDD7 JUMPI PUSH1 0x0 DUP1 REVERT JUMPDEST DUP2 CALLDATALOAD PUSH2 0xAF5 DUP2 PUSH2 0xDAC JUMP JUMPDEST PUSH1 0x0 PUSH1 0x20 DUP3 DUP5 SUB SLT ISZERO PUSH2 0xDF4 JUMPI PUSH1 0x0 DUP1 REVERT JUMPDEST POP CALLDATALOAD SWAP2 SWAP1 POP JUMP JUMPDEST PUSH1 0x0 DUP2 MLOAD DUP1 DUP5 MSTORE PUSH1 0x0 JUMPDEST DUP2 DUP2 LT ISZERO PUSH2 0xE21 JUMPI PUSH1 0x20 DUP2 DUP6 ADD DUP2 ADD MLOAD DUP7 DUP4 ADD DUP3 ADD MSTORE ADD PUSH2 0xE05 JUMP JUMPDEST POP PUSH1 0x0 PUSH1 0x20 DUP3 DUP7 ADD ADD MSTORE PUSH1 0x20 PUSH1 0x1F NOT PUSH1 0x1F DUP4 ADD AND DUP6 ADD ADD SWAP2 POP POP SWAP3 SWAP2 POP POP JUMP JUMPDEST PUSH1 0x20 DUP2 MSTORE PUSH1 0x0 PUSH2 0xAF5 PUSH1 0x20 DUP4 ADD DUP5 PUSH2 0xDFB JUMP JUMPDEST PUSH1 0x0 DUP1 PUSH1 0x0 PUSH1 0x60 DUP5 DUP7 SUB SLT ISZERO PUSH2 0xE69 JUMPI PUSH1 0x0 DUP1 REVERT JUMPDEST PUSH2 0xE72 DUP5 PUSH2 0xD66 JUMP JUMPDEST SWAP6 PUSH1 0x20 DUP6 ADD CALLDATALOAD SWAP6 POP PUSH1 0x40 SWAP1 SWAP5 ADD CALLDATALOAD SWAP4 SWAP3 POP POP POP JUMP JUMPDEST PUSH4 0x4E487B71 PUSH1 0xE0 SHL PUSH1 0x0 MSTORE PUSH1 0x41 PUSH1 0x4 MSTORE PUSH1 0x24 PUSH1 0x0 REVERT JUMPDEST PUSH1 0x1F DUP3 ADD PUSH1 0x1F NOT AND DUP2 ADD PUSH8 0xFFFFFFFFFFFFFFFF DUP2 GT DUP3 DUP3 LT OR ISZERO PUSH2 0xEC3 JUMPI PUSH2 0xEC3 PUSH2 0xE87 JUMP JUMPDEST PUSH1 0x40 MSTORE POP POP JUMP JUMPDEST PUSH1 0x0 PUSH8 0xFFFFFFFFFFFFFFFF DUP3 GT ISZERO PUSH2 0xEE4 JUMPI PUSH2 0xEE4 PUSH2 0xE87 JUMP JUMPDEST POP PUSH1 0x5 SHL PUSH1 0x20 ADD SWAP1 JUMP JUMPDEST PUSH1 0x0 DUP3 PUSH1 0x1F DUP4 ADD SLT PUSH2 0xEFF JUMPI PUSH1 0x0 DUP1 REVERT JUMPDEST DUP2 CALLDATALOAD PUSH1 0x20 PUSH2 0xF0C DUP3 PUSH2 0xECA JUMP JUMPDEST PUSH1 0x40 MLOAD PUSH2 0xF19 DUP3 DUP3 PUSH2 0xE9D JUMP JUMPDEST DUP4 DUP2 MSTORE PUSH1 0x5 SWAP4 SWAP1 SWAP4 SHL DUP6 ADD DUP3 ADD SWAP3 DUP3 DUP2 ADD SWAP2 POP DUP7 DUP5 GT ISZERO PUSH2 0xF39 JUMPI PUSH1 0x0 DUP1 REVERT JUMPDEST DUP3 DUP7 ADD JUMPDEST DUP5 DUP2 LT ISZERO PUSH2 0xF54 JUMPI DUP1 CALLDATALOAD DUP4 MSTORE SWAP2 DUP4 ADD SWAP2 DUP4 ADD PUSH2 0xF3D JUMP JUMPDEST POP SWAP7 SWAP6 POP POP POP POP POP POP JUMP JUMPDEST PUSH1 0x0 DUP3 PUSH1 0x1F DUP4 ADD SLT PUSH2 0xF70 JUMPI PUSH1 0x0 DUP1 REVERT JUMPDEST DUP2 CALLDATALOAD PUSH8 0xFFFFFFFFFFFFFFFF DUP2 GT ISZERO PUSH2 0xF8A JUMPI PUSH2 0xF8A PUSH2 0xE87 JUMP JUMPDEST PUSH1 0x40 MLOAD PUSH2 0xFA1 PUSH1 0x1F DUP4 ADD PUSH1 0x1F NOT AND PUSH1 0x20 ADD DUP3 PUSH2 0xE9D JUMP JUMPDEST DUP2 DUP2 MSTORE DUP5 PUSH1 0x20 DUP4 DUP7 ADD ADD GT ISZERO PUSH2 0xFB6 JUMPI PUSH1 0x0 DUP1 REVERT JUMPDEST DUP2 PUSH1 0x20 DUP6 ADD PUSH1 0x20 DUP4 ADD CALLDATACOPY PUSH1 0x0 SWAP2 DUP2 ADD PUSH1 0x20 ADD SWAP2 SWAP1 SWAP2 MSTORE SWAP4 SWAP3 POP POP POP JUMP JUMPDEST PUSH1 0x0 DUP1 PUSH1 0x0 DUP1 PUSH1 0x0 PUSH1 0xA0 DUP7 DUP9 SUB SLT ISZERO PUSH2 0xFEB JUMPI PUSH1 0x0 DUP1 REVERT JUMPDEST PUSH2 0xFF4 DUP7 PUSH2 0xD66 JUMP JUMPDEST SWAP5 POP PUSH2 0x1002 PUSH1 0x20 DUP8 ADD PUSH2 0xD66 JUMP JUMPDEST SWAP4 POP PUSH1 0x40 DUP7 ADD CALLDATALOAD PUSH8 0xFFFFFFFFFFFFFFFF DUP1 DUP3 GT ISZERO PUSH2 0x101F JUMPI PUSH1 0x0 DUP1 REVERT JUMPDEST PUSH2 0x102B DUP10 DUP4 DUP11 ADD PUSH2 0xEEE JUMP JUMPDEST SWAP5 POP PUSH1 0x60 DUP9 ADD CALLDATALOAD SWAP2 POP DUP1 DUP3 GT ISZERO PUSH2 0x1041 JUMPI PUSH1 0x0 DUP1 REVERT JUMPDEST PUSH2 0x104D DUP10 DUP4 DUP11 ADD PUSH2 0xEEE JUMP JUMPDEST SWAP4 POP PUSH1 0x80 DUP9 ADD CALLDATALOAD SWAP2 POP DUP1 DUP3 GT ISZERO PUSH2 0x1063 JUMPI PUSH1 0x0 DUP1 REVERT JUMPDEST POP PUSH2 0x1070 DUP9 DUP3 DUP10 ADD PUSH2 0xF5F JUMP JUMPDEST SWAP2 POP POP SWAP3 SWAP6 POP SWAP3 SWAP6 SWAP1 SWAP4 POP JUMP JUMPDEST PUSH1 0x0 DUP1 PUSH1 0x40 DUP4 DUP6 SUB SLT ISZERO PUSH2 0x1090 JUMPI PUSH1 0x0 DUP1 REVERT JUMPDEST DUP3 CALLDATALOAD PUSH8 0xFFFFFFFFFFFFFFFF DUP1 DUP3 GT ISZERO PUSH2 0x10A8 JUMPI PUSH1 0x0 DUP1 REVERT JUMPDEST DUP2 DUP6 ADD SWAP2 POP DUP6 PUSH1 0x1F DUP4 ADD SLT PUSH2 0x10BC JUMPI PUSH1 0x0 DUP1 REVERT JUMPDEST DUP2 CALLDATALOAD PUSH1 0x20 PUSH2 0x10C9 DUP3 PUSH2 0xECA JUMP JUMPDEST PUSH1 0x40 MLOAD PUSH2 0x10D6 DUP3 DUP3 PUSH2 0xE9D JUMP JUMPDEST DUP4 DUP2 MSTORE PUSH1 0x5 SWAP4 SWAP1 SWAP4 SHL DUP6 ADD DUP3 ADD SWAP3 DUP3 DUP2 ADD SWAP2 POP DUP10 DUP5 GT ISZERO PUSH2 0x10F6 JUMPI PUSH1 0x0 DUP1 REVERT JUMPDEST SWAP5 DUP3 ADD SWAP5 JUMPDEST DUP4 DUP7 LT ISZERO PUSH2 0x111B JUMPI PUSH2 0x110C DUP7 PUSH2 0xD66 JUMP JUMPDEST DUP3 MSTORE SWAP5 DUP3 ADD SWAP5 SWAP1 DUP3 ADD SWAP1 PUSH2 0x10FB JUMP JUMPDEST SWAP7 POP POP DUP7 ADD CALLDATALOAD SWAP3 POP POP DUP1 DUP3 GT ISZERO PUSH2 0x1131 JUMPI PUSH1 0x0 DUP1 REVERT JUMPDEST POP PUSH2 0x113E DUP6 DUP3 DUP7 ADD PUSH2 0xEEE JUMP JUMPDEST SWAP2 POP POP SWAP3 POP SWAP3 SWAP1 POP JUMP JUMPDEST PUSH1 0x0 DUP2 MLOAD DUP1 DUP5 MSTORE PUSH1 0x20 DUP1 DUP6 ADD SWAP5 POP DUP1 DUP5 ADD PUSH1 0x0 JUMPDEST DUP4 DUP2 LT ISZERO PUSH2 0x1178 JUMPI DUP2 MLOAD DUP8 MSTORE SWAP6 DUP3 ADD SWAP6 SWAP1 DUP3 ADD SWAP1 PUSH1 0x1 ADD PUSH2 0x115C JUMP JUMPDEST POP SWAP5 SWAP6 SWAP5 POP POP POP POP POP JUMP JUMPDEST PUSH1 0x20 DUP2 MSTORE PUSH1 0x0 PUSH2 0xAF5 PUSH1 0x20 DUP4 ADD DUP5 PUSH2 0x1148 JUMP JUMPDEST PUSH1 0x0 DUP1 PUSH1 0x40 DUP4 DUP6 SUB SLT ISZERO PUSH2 0x11A9 JUMPI PUSH1 0x0 DUP1 REVERT JUMPDEST PUSH2 0x11B2 DUP4 PUSH2 0xD66 JUMP JUMPDEST SWAP2 POP PUSH1 0x20 DUP4 ADD CALLDATALOAD DUP1 ISZERO ISZERO DUP2 EQ PUSH2 0x11C7 JUMPI PUSH1 0x0 DUP1 REVERT JUMPDEST DUP1 SWAP2 POP POP SWAP3 POP SWAP3 SWAP1 POP JUMP JUMPDEST PUSH1 0x0 DUP1 PUSH1 0x40 DUP4 DUP6 SUB SLT ISZERO PUSH2 0x11E5 JUMPI PUSH1 0x0 DUP1 REVERT JUMPDEST PUSH2 0x11EE DUP4 PUSH2 0xD66 JUMP JUMPDEST SWAP2 POP PUSH2 0x11FC PUSH1 0x20 DUP5 ADD PUSH2 0xD66 JUMP JUMPDEST SWAP1 POP SWAP3 POP SWAP3 SWAP1 POP JUMP JUMPDEST PUSH1 0x0 DUP1 PUSH1 0x0 DUP1 PUSH1 0x0 PUSH1 0xA0 DUP7 DUP9 SUB SLT ISZERO PUSH2 0x121D JUMPI PUSH1 0x0 DUP1 REVERT JUMPDEST PUSH2 0x1226 DUP7 PUSH2 0xD66 JUMP JUMPDEST SWAP5 POP PUSH2 0x1234 PUSH1 0x20 DUP8 ADD PUSH2 0xD66 JUMP JUMPDEST SWAP4 POP PUSH1 0x40 DUP7 ADD CALLDATALOAD SWAP3 POP PUSH1 0x60 DUP7 ADD CALLDATALOAD SWAP2 POP PUSH1 0x80 DUP7 ADD CALLDATALOAD PUSH8 0xFFFFFFFFFFFFFFFF DUP2 GT ISZERO PUSH2 0x125E JUMPI PUSH1 0x0 DUP1 REVERT JUMPDEST PUSH2 0x1070 DUP9 DUP3 DUP10 ADD PUSH2 0xF5F JUMP JUMPDEST PUSH1 0x1 DUP2 DUP2 SHR SWAP1 DUP3 AND DUP1 PUSH2 0x127E JUMPI PUSH1 0x7F DUP3 AND SWAP2 POP JUMPDEST PUSH1 0x20 DUP3 LT DUP2 SUB PUSH2 0x129E JUMPI PUSH4 0x4E487B71 PUSH1 0xE0 SHL PUSH1 0x0 MSTORE PUSH1 0x22 PUSH1 0x4 MSTORE PUSH1 0x24 PUSH1 0x0 REVERT JUMPDEST POP SWAP2 SWAP1 POP JUMP JUMPDEST PUSH1 0x20 DUP1 DUP3 MSTORE PUSH1 0x25 SWAP1 DUP3 ADD MSTORE PUSH32 0x455243313135353A207472616E7366657220746F20746865207A65726F206164 PUSH1 0x40 DUP3 ADD MSTORE PUSH5 0x6472657373 PUSH1 0xD8 SHL PUSH1 0x60 DUP3 ADD MSTORE PUSH1 0x80 ADD SWAP1 JUMP JUMPDEST PUSH4 0x4E487B71 PUSH1 0xE0 SHL PUSH1 0x0 MSTORE PUSH1 0x32 PUSH1 0x4 MSTORE PUSH1 0x24 PUSH1 0x0 REVERT JUMPDEST PUSH4 0x4E487B71 PUSH1 0xE0 SHL PUSH1 0x0 MSTORE PUSH1 0x11 PUSH1 0x4 MSTORE PUSH1 0x24 PUSH1 0x0 REVERT JUMPDEST PUSH1 0x0 PUSH1 0x1 DUP3 ADD PUSH2 0x1327 JUMPI PUSH2 0x1327 PUSH2 0x12FF JUMP JUMPDEST POP PUSH1 0x1 ADD SWAP1 JUMP JUMPDEST PUSH1 0x40 DUP2 MSTORE PUSH1 0x0 PUSH2 0x1341 PUSH1 0x40 DUP4 ADD DUP6 PUSH2 0x1148 JUMP JUMPDEST DUP3 DUP2 SUB PUSH1 0x20 DUP5 ADD MSTORE PUSH2 0x1353 DUP2 DUP6 PUSH2 0x1148 JUMP JUMPDEST SWAP6 SWAP5 POP POP POP POP POP JUMP JUMPDEST DUP2 DUP2 SUB DUP2 DUP2 GT ISZERO PUSH2 0x25A JUMPI PUSH2 0x25A PUSH2 0x12FF JUMP JUMPDEST DUP1 DUP3 ADD DUP1 DUP3 GT ISZERO PUSH2 0x25A JUMPI PUSH2 0x25A PUSH2 0x12FF JUMP JUMPDEST PUSH1 0x1 PUSH1 0x1 PUSH1 0xA0 SHL SUB DUP7 DUP2 AND DUP3 MSTORE DUP6 AND PUSH1 0x20 DUP3 ADD MSTORE PUSH1 0xA0 PUSH1 0x40 DUP3 ADD DUP2 SWAP1 MSTORE PUSH1 0x0 SWAP1 PUSH2 0x13AE SWAP1 DUP4 ADD DUP7 PUSH2 0x1148 JUMP JUMPDEST DUP3 DUP2 SUB PUSH1 0x60 DUP5 ADD MSTORE PUSH2 0x13C0 DUP2 DUP7 PUSH2 0x1148 JUMP JUMPDEST SWAP1 POP DUP3 DUP2 SUB PUSH1 0x80 DUP5 ADD MSTORE PUSH2 0x13D4 DUP2 DUP6 PUSH2 0xDFB JUMP JUMPDEST SWAP9 SWAP8 POP POP POP POP POP POP POP POP JUMP JUMPDEST PUSH1 0x0 PUSH1 0x20 DUP3 DUP5 SUB SLT ISZERO PUSH2 0x13F2 JUMPI PUSH1 0x0 DUP1 REVERT JUMPDEST DUP2 MLOAD PUSH2 0xAF5 DUP2 PUSH2 0xDAC JUMP JUMPDEST PUSH1 0x0 PUSH1 0x3 RETURNDATASIZE GT ISZERO PUSH2 0x1416 JUMPI PUSH1 0x4 PUSH1 0x0 DUP1 RETURNDATACOPY POP PUSH1 0x0 MLOAD PUSH1 0xE0 SHR JUMPDEST SWAP1 JUMP JUMPDEST PUSH1 0x0 PUSH1 0x44 RETURNDATASIZE LT ISZERO PUSH2 0x1427 JUMPI SWAP1 JUMP JUMPDEST PUSH1 0x40 MLOAD PUSH1 0x3 NOT RETURNDATASIZE DUP2 ADD PUSH1 0x4 DUP4 RETURNDATACOPY DUP2 MLOAD RETURNDATASIZE PUSH8 0xFFFFFFFFFFFFFFFF DUP2 PUSH1 0x24 DUP5 ADD GT DUP2 DUP5 GT OR ISZERO PUSH2 0x1457 JUMPI POP POP POP POP POP SWAP1 JUMP JUMPDEST DUP3 DUP6 ADD SWAP2 POP DUP2 MLOAD DUP2 DUP2 GT ISZERO PUSH2 0x146F JUMPI POP POP POP POP POP POP SWAP1 JUMP JUMPDEST DUP5 RETURNDATASIZE DUP8 ADD ADD PUSH1 0x20 DUP3 DUP6 ADD ADD GT ISZERO PUSH2 0x1489 JUMPI POP POP POP POP POP POP SWAP1 JUMP JUMPDEST PUSH2 0x1498 PUSH1 0x20 DUP3 DUP7 ADD ADD DUP8 PUSH2 0xE9D JUMP JUMPDEST POP SWAP1 SWAP6 SWAP5 POP POP POP POP POP JUMP JUMPDEST PUSH1 0x20 DUP1 DUP3 MSTORE PUSH1 0x28 SWAP1 DUP3 ADD MSTORE PUSH32 0x455243313135353A204552433131353552656365697665722072656A65637465 PUSH1 0x40 DUP3 ADD MSTORE PUSH8 0x6420746F6B656E73 PUSH1 0xC0 SHL PUSH1 0x60 DUP3 ADD MSTORE PUSH1 0x80 ADD SWAP1 JUMP JUMPDEST PUSH1 0x1 PUSH1 0x1 PUSH1 0xA0 SHL SUB DUP7 DUP2 AND DUP3 MSTORE DUP6 AND PUSH1 0x20 DUP3 ADD MSTORE PUSH1 0x40 DUP2 ADD DUP5 SWAP1 MSTORE PUSH1 0x60 DUP2 ADD DUP4 SWAP1 MSTORE PUSH1 0xA0 PUSH1 0x80 DUP3 ADD DUP2 SWAP1 MSTORE PUSH1 0x0 SWAP1 PUSH2 0x1525 SWAP1 DUP4 ADD DUP5 PUSH2 0xDFB JUMP JUMPDEST SWAP8 SWAP7 POP POP POP POP POP POP POP JUMP INVALID GASLIMIT MSTORE NUMBER BALANCE BALANCE CALLDATALOAD CALLDATALOAD GASPRICE KECCAK256 PUSH10 0x6E73756666696369656E PUSH21 0x2062616C616E636520666F72207472616E73666572 LOG2 PUSH5 0x6970667358 0x22 SLT KECCAK256 SHR 0xBE DUP13 0xF9 JUMP PUSH5 0x17EEBB73CA 0xD7 PUSH9 0x9F74C7C1E3EDC3CB22 MSTORE 0xCF POP 0x4F 0x24 PUSH11 0xCF90858264736F6C634300 ADDMOD SGT STOP CALLER PUSH9 0x747470733A2F2F6761 PUSH14 0x652E6578616D706C652F6170692F PUSH10 0x74656D2F7B69647D2E6A PUSH20 0x6F6E000000000000000000000000000000000000 "
				},
				"gasEstimates": {
					"creation": {
						"codeDepositCost": "1104000",
						"executionCost": "infinite",
						"totalCost": "infinite"
					},
					"external": {
						"balanceOf(address,uint256)": "2680",
						"balanceOfBatch(address[],uint256[])": "infinite",
						"isApprovedForAll(address,address)": "infinite",
						"mint(address,uint256,uint256)": "infinite",
						"safeBatchTransferFrom(address,address,uint256[],uint256[],bytes)": "infinite",
						"safeTransferFrom(address,address,uint256,uint256,bytes)": "infinite",
						"setApprovalForAll(address,bool)": "26669",
						"supportsInterface(bytes4)": "2575",
						"uri(uint256)": "infinite"
					}
				},
				"methodIdentifiers": {
					"balanceOf(address,uint256)": "00fdd58e",
					"balanceOfBatch(address[],uint256[])": "4e1273f4",
					"isApprovedForAll(address,address)": "e985e9c5",
					"mint(address,uint256,uint256)": "156e29f6",
					"safeBatchTransferFrom(address,address,uint256[],uint256[],bytes)": "2eb2c2d6",
					"safeTransferFrom(address,address,uint256,uint256,bytes)": "f242432a",
					"setApprovalForAll(address,bool)": "a22cb465",
					"supportsInterface(bytes4)": "01ffc9a7",
					"uri(uint256)": "0e89341c"
				}
			},
			"storageLayout": {
				"storage": [
					{
						"astId": 45,
						"contract": "TTT_ERC1155Token-Jason.sol:TTTERC1155",
						"label": "_supportedInterfaces",
						"offset": 0,
						"slot": "0",
						"type": "t_mapping(t_bytes4,t_bool)"
					},
					{
						"astId": 432,
						"contract": "TTT_ERC1155Token-Jason.sol:TTTERC1155",
						"label": "_balances",
						"offset": 0,
						"slot": "1",
						"type": "t_mapping(t_uint256,t_mapping(t_address,t_uint256))"
					},
					{
						"astId": 438,
						"contract": "TTT_ERC1155Token-Jason.sol:TTTERC1155",
						"label": "_operatorApprovals",
						"offset": 0,
						"slot": "2",
						"type": "t_mapping(t_address,t_mapping(t_address,t_bool))"
					},
					{
						"astId": 440,
						"contract": "TTT_ERC1155Token-Jason.sol:TTTERC1155",
						"label": "_uri",
						"offset": 0,
						"slot": "3",
						"type": "t_string_storage"
					}
				],
				"types": {
					"t_address": {
						"encoding": "inplace",
						"label": "address",
						"numberOfBytes": "20"
					},
					"t_bool": {
						"encoding": "inplace",
						"label": "bool",
						"numberOfBytes": "1"
					},
					"t_bytes4": {
						"encoding": "inplace",
						"label": "bytes4",
						"numberOfBytes": "4"
					},
					"t_mapping(t_address,t_bool)": {
						"encoding": "mapping",
						"key": "t_address",
						"label": "mapping(address => bool)",
						"numberOfBytes": "32",
						"value": "t_bool"
					},
					"t_mapping(t_address,t_mapping(t_address,t_bool))": {
						"encoding": "mapping",
						"key": "t_address",
						"label": "mapping(address => mapping(address => bool))",
						"numberOfBytes": "32",
						"value": "t_mapping(t_address,t_bool)"
					},
					"t_mapping(t_address,t_uint256)": {
						"encoding": "mapping",
						"key": "t_address",
						"label": "mapping(address => uint256)",
						"numberOfBytes": "32",
						"value": "t_uint256"
					},
					"t_mapping(t_bytes4,t_bool)": {
						"encoding": "mapping",
						"key": "t_bytes4",
						"label": "mapping(bytes4 => bool)",
						"numberOfBytes": "32",
						"value": "t_bool"
					},
					"t_mapping(t_uint256,t_mapping(t_address,t_uint256))": {
						"encoding": "mapping",
						"key": "t_uint256",
						"label": "mapping(uint256 => mapping(address => uint256))",
						"numberOfBytes": "32",
						"value": "t_mapping(t_address,t_uint256)"
					},
					"t_string_storage": {
						"encoding": "bytes",
						"label": "string",
						"numberOfBytes": "32"
					},
					"t_uint256": {
						"encoding": "inplace",
						"label": "uint256",
						"numberOfBytes": "32"
					}
				}
			},
			"userdoc": {
				"kind": "user",
				"methods": {},
				"version": 1
			}
		}
	}
}