{
	"Practical2-RockPaperScissors-Jason.sol": {
		"RockPaperScissors": {
			"abi": [
				{
					"anonymous": false,
					"inputs": [
						{
							"indexed": false,
							"internalType": "uint256",
							"name": "",
							"type": "uint256"
						}
					],
					"name": "showArraylenght",
					"type": "event"
				},
				{
					"anonymous": false,
					"inputs": [
						{
							"indexed": false,
							"internalType": "string",
							"name": "",
							"type": "string"
						}
					],
					"name": "showError",
					"type": "event"
				},
				{
					"anonymous": false,
					"inputs": [
						{
							"indexed": false,
							"internalType": "string",
							"name": "logResult",
							"type": "string"
						}
					],
					"name": "showResult",
					"type": "event"
				},
				{
					"anonymous": false,
					"inputs": [
						{
							"indexed": true,
							"internalType": "address",
							"name": "logUserAddress",
							"type": "address"
						}
					],
					"name": "showUserAddress",
					"type": "event"
				},
				{
					"inputs": [],
					"name": "getGameHistory",
					"outputs": [
						{
							"components": [
								{
									"components": [
										{
											"internalType": "address",
											"name": "userAddress",
											"type": "address"
										},
										{
											"internalType": "uint256",
											"name": "userOption",
											"type": "uint256"
										}
									],
									"internalType": "struct RockPaperScissors.UserInfo",
									"name": "user1",
									"type": "tuple"
								},
								{
									"components": [
										{
											"internalType": "address",
											"name": "userAddress",
											"type": "address"
										},
										{
											"internalType": "uint256",
											"name": "userOption",
											"type": "uint256"
										}
									],
									"internalType": "struct RockPaperScissors.UserInfo",
									"name": "user2",
									"type": "tuple"
								},
								{
									"internalType": "string",
									"name": "finalResult",
									"type": "string"
								}
							],
							"internalType": "struct RockPaperScissors.GameInfo[]",
							"name": "",
							"type": "tuple[]"
						}
					],
					"stateMutability": "view",
					"type": "function"
				},
				{
					"inputs": [
						{
							"internalType": "uint256",
							"name": "index",
							"type": "uint256"
						}
					],
					"name": "getSpecificGameHistory",
					"outputs": [
						{
							"components": [
								{
									"components": [
										{
											"internalType": "address",
											"name": "userAddress",
											"type": "address"
										},
										{
											"internalType": "uint256",
											"name": "userOption",
											"type": "uint256"
										}
									],
									"internalType": "struct RockPaperScissors.UserInfo",
									"name": "user1",
									"type": "tuple"
								},
								{
									"components": [
										{
											"internalType": "address",
											"name": "userAddress",
											"type": "address"
										},
										{
											"internalType": "uint256",
											"name": "userOption",
											"type": "uint256"
										}
									],
									"internalType": "struct RockPaperScissors.UserInfo",
									"name": "user2",
									"type": "tuple"
								},
								{
									"internalType": "string",
									"name": "finalResult",
									"type": "string"
								}
							],
							"internalType": "struct RockPaperScissors.GameInfo",
							"name": "",
							"type": "tuple"
						}
					],
					"stateMutability": "view",
					"type": "function"
				},
				{
					"inputs": [
						{
							"internalType": "uint256",
							"name": "option",
							"type": "uint256"
						}
					],
					"name": "getUserOption",
					"outputs": [],
					"stateMutability": "nonpayable",
					"type": "function"
				},
				{
					"inputs": [],
					"name": "showWaitingPoll",
					"outputs": [
						{
							"components": [
								{
									"internalType": "address",
									"name": "userAddress",
									"type": "address"
								},
								{
									"internalType": "uint256",
									"name": "userOption",
									"type": "uint256"
								}
							],
							"internalType": "struct RockPaperScissors.UserInfo[]",
							"name": "",
							"type": "tuple[]"
						}
					],
					"stateMutability": "view",
					"type": "function"
				},
				{
					"inputs": [
						{
							"internalType": "uint256",
							"name": "",
							"type": "uint256"
						}
					],
					"name": "waitingPool",
					"outputs": [
						{
							"internalType": "address",
							"name": "userAddress",
							"type": "address"
						},
						{
							"internalType": "uint256",
							"name": "userOption",
							"type": "uint256"
						}
					],
					"stateMutability": "view",
					"type": "function"
				}
			],
			"devdoc": {
				"kind": "dev",
				"methods": {},
				"version": 1
			},
			"evm": {
				"assembly": "    /* \"Practical2-RockPaperScissors-Jason.sol\":57:5741  contract RockPaperScissors {... */\n  mstore(0x40, 0x80)\n    /* \"Practical2-RockPaperScissors-Jason.sol\":513:514  0 */\n  0x00\n    /* \"Practical2-RockPaperScissors-Jason.sol\":488:514  uint private userCount = 0 */\n  dup1\n  sstore\n    /* \"Practical2-RockPaperScissors-Jason.sol\":728:729  1 */\n  0x01\n    /* \"Practical2-RockPaperScissors-Jason.sol\":708:729  uint private salt = 1 */\n  0x03\n  sstore\n    /* \"Practical2-RockPaperScissors-Jason.sol\":57:5741  contract RockPaperScissors {... */\n  callvalue\n  dup1\n  iszero\n  tag_1\n  jumpi\n  0x00\n  dup1\n  revert\ntag_1:\n  pop\n  dataSize(sub_0)\n  dup1\n  dataOffset(sub_0)\n  0x00\n  codecopy\n  0x00\n  return\nstop\n\nsub_0: assembly {\n        /* \"Practical2-RockPaperScissors-Jason.sol\":57:5741  contract RockPaperScissors {... */\n      mstore(0x40, 0x80)\n      callvalue\n      dup1\n      iszero\n      tag_1\n      jumpi\n      0x00\n      dup1\n      revert\n    tag_1:\n      pop\n      jumpi(tag_2, lt(calldatasize, 0x04))\n      shr(0xe0, calldataload(0x00))\n      dup1\n      0x315553c4\n      eq\n      tag_3\n      jumpi\n      dup1\n      0x512ec557\n      eq\n      tag_4\n      jumpi\n      dup1\n      0xadf496b5\n      eq\n      tag_5\n      jumpi\n      dup1\n      0xe16c9d59\n      eq\n      tag_6\n      jumpi\n      dup1\n      0xf7c4efbb\n      eq\n      tag_7\n      jumpi\n    tag_2:\n      0x00\n      dup1\n      revert\n        /* \"Practical2-RockPaperScissors-Jason.sol\":735:764  UserInfo[] public waitingPool */\n    tag_3:\n      tag_8\n      tag_9\n      calldatasize\n      0x04\n      tag_10\n      jump\t// in\n    tag_9:\n      tag_11\n      jump\t// in\n    tag_8:\n      0x40\n      dup1\n      mload\n      sub(shl(0xa0, 0x01), 0x01)\n        /* \"#utility.yul\":391:423   */\n      swap1\n      swap4\n      and\n        /* \"#utility.yul\":373:424   */\n      dup4\n      mstore\n        /* \"#utility.yul\":455:457   */\n      0x20\n        /* \"#utility.yul\":440:458   */\n      dup4\n      add\n        /* \"#utility.yul\":433:467   */\n      swap2\n      swap1\n      swap2\n      mstore\n        /* \"#utility.yul\":346:364   */\n      add\n        /* \"Practical2-RockPaperScissors-Jason.sol\":735:764  UserInfo[] public waitingPool */\n    tag_12:\n      mload(0x40)\n      dup1\n      swap2\n      sub\n      swap1\n      return\n        /* \"Practical2-RockPaperScissors-Jason.sol\":1186:1340  function getGameHistory () external view returns(GameInfo[] memory){... */\n    tag_4:\n      tag_14\n      tag_15\n      jump\t// in\n    tag_14:\n      mload(0x40)\n      tag_12\n      swap2\n      swap1\n      tag_17\n      jump\t// in\n        /* \"Practical2-RockPaperScissors-Jason.sol\":1833:2981  function getUserOption(uint option) external noReentrancy{... */\n    tag_5:\n      tag_18\n      tag_19\n      calldatasize\n      0x04\n      tag_10\n      jump\t// in\n    tag_19:\n      tag_20\n      jump\t// in\n    tag_18:\n      stop\n        /* \"Practical2-RockPaperScissors-Jason.sol\":1025:1132  function showWaitingPoll () external view returns (UserInfo[] memory) {... */\n    tag_6:\n      tag_21\n      tag_22\n      jump\t// in\n    tag_21:\n      mload(0x40)\n      tag_12\n      swap2\n      swap1\n      tag_24\n      jump\t// in\n        /* \"Practical2-RockPaperScissors-Jason.sol\":1346:1594  function getSpecificGameHistory (uint index) external view returns(GameInfo memory){... */\n    tag_7:\n      tag_25\n      tag_26\n      calldatasize\n      0x04\n      tag_10\n      jump\t// in\n    tag_26:\n      tag_27\n      jump\t// in\n    tag_25:\n      mload(0x40)\n      tag_12\n      swap2\n      swap1\n      tag_29\n      jump\t// in\n        /* \"Practical2-RockPaperScissors-Jason.sol\":735:764  UserInfo[] public waitingPool */\n    tag_11:\n      0x04\n      dup2\n      dup2\n      sload\n      dup2\n      lt\n      tag_30\n      jumpi\n      0x00\n      dup1\n      revert\n    tag_30:\n      0x00\n      swap2\n      dup3\n      mstore\n      0x20\n      swap1\n      swap2\n      keccak256\n      0x02\n      swap1\n      swap2\n      mul\n      add\n      dup1\n      sload\n      0x01\n      swap1\n      swap2\n      add\n      sload\n      sub(shl(0xa0, 0x01), 0x01)\n      swap1\n      swap2\n      and\n      swap2\n      pop\n      dup3\n      jump\t// out\n        /* \"Practical2-RockPaperScissors-Jason.sol\":1186:1340  function getGameHistory () external view returns(GameInfo[] memory){... */\n    tag_15:\n        /* \"Practical2-RockPaperScissors-Jason.sol\":1235:1252  GameInfo[] memory */\n      0x60\n        /* \"Practical2-RockPaperScissors-Jason.sol\":1321:1332  gameHistory */\n      0x01\n        /* \"Practical2-RockPaperScissors-Jason.sol\":1313:1333  return (gameHistory) */\n      dup1\n      sload\n      dup1\n      0x20\n      mul\n      0x20\n      add\n      mload(0x40)\n      swap1\n      dup2\n      add\n      0x40\n      mstore\n      dup1\n      swap3\n      swap2\n      swap1\n      dup2\n      dup2\n      mstore\n      0x20\n      add\n      0x00\n      swap1\n    tag_33:\n      dup3\n      dup3\n      lt\n      iszero\n      tag_34\n      jumpi\n      0x00\n      dup5\n      dup2\n      mstore\n      0x20\n      swap1\n      dup2\n      swap1\n      keccak256\n      0x40\n      dup1\n      mload\n      0xa0\n      dup2\n      add\n      dup3\n      mstore\n      0x05\n      dup7\n      mul\n      swap1\n      swap3\n      add\n      dup1\n      sload\n      sub(shl(0xa0, 0x01), 0x01)\n      swap1\n      dup2\n      and\n      0x60\n      dup6\n      add\n      swap1\n      dup2\n      mstore\n      0x01\n      dup4\n      add\n      sload\n      0x80\n      dup7\n      add\n      mstore\n      dup5\n      mstore\n      dup3\n      mload\n      dup1\n      dup5\n      add\n      dup5\n      mstore\n      0x02\n      dup4\n      add\n      sload\n      swap1\n      swap2\n      and\n      dup2\n      mstore\n      0x03\n      dup3\n      add\n      sload\n      dup2\n      dup7\n      add\n      mstore\n      swap4\n      dup4\n      add\n      swap4\n      swap1\n      swap4\n      mstore\n      0x04\n      dup4\n      add\n      dup1\n      sload\n      swap3\n      swap4\n      swap3\n      swap2\n      dup5\n      add\n      swap2\n      tag_36\n      swap1\n      tag_37\n      jump\t// in\n    tag_36:\n      dup1\n      0x1f\n      add\n      0x20\n      dup1\n      swap2\n      div\n      mul\n      0x20\n      add\n      mload(0x40)\n      swap1\n      dup2\n      add\n      0x40\n      mstore\n      dup1\n      swap3\n      swap2\n      swap1\n      dup2\n      dup2\n      mstore\n      0x20\n      add\n      dup3\n      dup1\n      sload\n      tag_38\n      swap1\n      tag_37\n      jump\t// in\n    tag_38:\n      dup1\n      iszero\n      tag_39\n      jumpi\n      dup1\n      0x1f\n      lt\n      tag_40\n      jumpi\n      0x0100\n      dup1\n      dup4\n      sload\n      div\n      mul\n      dup4\n      mstore\n      swap2\n      0x20\n      add\n      swap2\n      jump(tag_39)\n    tag_40:\n      dup3\n      add\n      swap2\n      swap1\n      0x00\n      mstore\n      keccak256(0x00, 0x20)\n      swap1\n    tag_41:\n      dup2\n      sload\n      dup2\n      mstore\n      swap1\n      0x01\n      add\n      swap1\n      0x20\n      add\n      dup1\n      dup4\n      gt\n      tag_41\n      jumpi\n      dup3\n      swap1\n      sub\n      0x1f\n      and\n      dup3\n      add\n      swap2\n    tag_39:\n      pop\n      pop\n      pop\n      pop\n      pop\n      dup2\n      mstore\n      pop\n      pop\n      dup2\n      mstore\n      0x20\n      add\n      swap1\n      0x01\n      add\n      swap1\n      jump(tag_33)\n    tag_34:\n      pop\n      pop\n      pop\n      pop\n      swap1\n      pop\n        /* \"Practical2-RockPaperScissors-Jason.sol\":1186:1340  function getGameHistory () external view returns(GameInfo[] memory){... */\n      swap1\n      jump\t// out\n        /* \"Practical2-RockPaperScissors-Jason.sol\":1833:2981  function getUserOption(uint option) external noReentrancy{... */\n    tag_20:\n        /* \"Practical2-RockPaperScissors-Jason.sol\":1730:1736  locked */\n      and(0xff, sload(0x02))\n        /* \"Practical2-RockPaperScissors-Jason.sol\":1729:1736  !locked */\n      iszero\n        /* \"Practical2-RockPaperScissors-Jason.sol\":1721:1762  require(!locked, \"Error: Reentrant call\") */\n      tag_43\n      jumpi\n      mload(0x40)\n      shl(0xe5, 0x461bcd)\n      dup2\n      mstore\n        /* \"#utility.yul\":3795:3797   */\n      0x20\n        /* \"Practical2-RockPaperScissors-Jason.sol\":1721:1762  require(!locked, \"Error: Reentrant call\") */\n      0x04\n      dup3\n      add\n        /* \"#utility.yul\":3777:3798   */\n      mstore\n        /* \"#utility.yul\":3834:3836   */\n      0x15\n        /* \"#utility.yul\":3814:3832   */\n      0x24\n      dup3\n      add\n        /* \"#utility.yul\":3807:3837   */\n      mstore\n      shl(0x5a, 0x115c9c9bdc8e881499595b9d1c985b9d0818d85b1b)\n        /* \"#utility.yul\":3853:3871   */\n      0x44\n      dup3\n      add\n        /* \"#utility.yul\":3846:3897   */\n      mstore\n        /* \"#utility.yul\":3914:3932   */\n      0x64\n      add\n        /* \"Practical2-RockPaperScissors-Jason.sol\":1721:1762  require(!locked, \"Error: Reentrant call\") */\n    tag_44:\n      mload(0x40)\n      dup1\n      swap2\n      sub\n      swap1\n      revert\n    tag_43:\n        /* \"Practical2-RockPaperScissors-Jason.sol\":1772:1778  locked */\n      0x02\n        /* \"Practical2-RockPaperScissors-Jason.sol\":1772:1785  locked = true */\n      dup1\n      sload\n      not(0xff)\n      and\n        /* \"Practical2-RockPaperScissors-Jason.sol\":1781:1785  true */\n      0x01\n        /* \"Practical2-RockPaperScissors-Jason.sol\":1772:1785  locked = true */\n      or\n      swap1\n      sstore\n        /* \"Practical2-RockPaperScissors-Jason.sol\":1905:1932  showUserAddress(msg.sender) */\n      mload(0x40)\n        /* \"Practical2-RockPaperScissors-Jason.sol\":1921:1931  msg.sender */\n      caller\n      swap1\n        /* \"Practical2-RockPaperScissors-Jason.sol\":1905:1932  showUserAddress(msg.sender) */\n      0x6fd5bea3ad79492c3055c6f6b7b37ca66d63ba4ceef7d04dd901559affbe971a\n      swap1\n        /* \"Practical2-RockPaperScissors-Jason.sol\":1772:1778  locked */\n      0x00\n      swap1\n        /* \"Practical2-RockPaperScissors-Jason.sol\":1905:1932  showUserAddress(msg.sender) */\n      log2\n        /* \"Practical2-RockPaperScissors-Jason.sol\":1977:1983  option */\n      dup1\n        /* \"Practical2-RockPaperScissors-Jason.sol\":1987:1988  0 */\n      0x00\n        /* \"Practical2-RockPaperScissors-Jason.sol\":1977:1988  option != 0 */\n      sub\n        /* \"Practical2-RockPaperScissors-Jason.sol\":1969:2013  require(option != 0, \"Error: Can't input 0\") */\n      tag_47\n      jumpi\n      mload(0x40)\n      shl(0xe5, 0x461bcd)\n      dup2\n      mstore\n        /* \"#utility.yul\":4145:4147   */\n      0x20\n        /* \"Practical2-RockPaperScissors-Jason.sol\":1969:2013  require(option != 0, \"Error: Can't input 0\") */\n      0x04\n      dup3\n      add\n        /* \"#utility.yul\":4127:4148   */\n      mstore\n        /* \"#utility.yul\":4184:4186   */\n      0x14\n        /* \"#utility.yul\":4164:4182   */\n      0x24\n      dup3\n      add\n        /* \"#utility.yul\":4157:4187   */\n      mstore\n      shl(0x64, 0x04572726f723a2043616e277420696e707574203)\n        /* \"#utility.yul\":4203:4221   */\n      0x44\n      dup3\n      add\n        /* \"#utility.yul\":4196:4246   */\n      mstore\n        /* \"#utility.yul\":4263:4281   */\n      0x64\n      add\n        /* \"Practical2-RockPaperScissors-Jason.sol\":1969:2013  require(option != 0, \"Error: Can't input 0\") */\n      tag_44\n        /* \"#utility.yul\":3943:4287   */\n      jump\n        /* \"Practical2-RockPaperScissors-Jason.sol\":1969:2013  require(option != 0, \"Error: Can't input 0\") */\n    tag_47:\n        /* \"Practical2-RockPaperScissors-Jason.sol\":2041:2042  3 */\n      0x03\n        /* \"Practical2-RockPaperScissors-Jason.sol\":2031:2037  option */\n      dup2\n        /* \"Practical2-RockPaperScissors-Jason.sol\":2031:2042  option <= 3 */\n      gt\n      iszero\n        /* \"Practical2-RockPaperScissors-Jason.sol\":2023:2077  require(option <= 3, \"Error: Can't input more than 3\") */\n      tag_50\n      jumpi\n      mload(0x40)\n      shl(0xe5, 0x461bcd)\n      dup2\n      mstore\n        /* \"#utility.yul\":4494:4496   */\n      0x20\n        /* \"Practical2-RockPaperScissors-Jason.sol\":2023:2077  require(option <= 3, \"Error: Can't input more than 3\") */\n      0x04\n      dup3\n      add\n        /* \"#utility.yul\":4476:4497   */\n      mstore\n        /* \"#utility.yul\":4533:4535   */\n      0x1e\n        /* \"#utility.yul\":4513:4531   */\n      0x24\n      dup3\n      add\n        /* \"#utility.yul\":4506:4536   */\n      mstore\n        /* \"#utility.yul\":4572:4604   */\n      0x4572726f723a2043616e277420696e707574206d6f7265207468616e20330000\n        /* \"#utility.yul\":4552:4570   */\n      0x44\n      dup3\n      add\n        /* \"#utility.yul\":4545:4605   */\n      mstore\n        /* \"#utility.yul\":4622:4640   */\n      0x64\n      add\n        /* \"Practical2-RockPaperScissors-Jason.sol\":2023:2077  require(option <= 3, \"Error: Can't input more than 3\") */\n      tag_44\n        /* \"#utility.yul\":4292:4646   */\n      jump\n        /* \"Practical2-RockPaperScissors-Jason.sol\":2023:2077  require(option <= 3, \"Error: Can't input more than 3\") */\n    tag_50:\n        /* \"Practical2-RockPaperScissors-Jason.sol\":2251:2261  bool exist */\n      0x00\n      dup1\n        /* \"Practical2-RockPaperScissors-Jason.sol\":2271:2534  for (uint i = 0; i < waitingPool.length; i++) ... */\n    tag_53:\n        /* \"Practical2-RockPaperScissors-Jason.sol\":2292:2303  waitingPool */\n      0x04\n        /* \"Practical2-RockPaperScissors-Jason.sol\":2292:2310  waitingPool.length */\n      sload\n        /* \"Practical2-RockPaperScissors-Jason.sol\":2288:2310  i < waitingPool.length */\n      dup2\n      lt\n        /* \"Practical2-RockPaperScissors-Jason.sol\":2271:2534  for (uint i = 0; i < waitingPool.length; i++) ... */\n      iszero\n      tag_54\n      jumpi\n        /* \"Practical2-RockPaperScissors-Jason.sol\":2357:2368  waitingPool */\n      0x04\n        /* \"Practical2-RockPaperScissors-Jason.sol\":2369:2370  i */\n      dup2\n        /* \"Practical2-RockPaperScissors-Jason.sol\":2357:2371  waitingPool[i] */\n      dup2\n      sload\n      dup2\n      lt\n      tag_57\n      jumpi\n      tag_57\n      tag_58\n      jump\t// in\n    tag_57:\n      0x00\n      swap2\n      dup3\n      mstore\n      0x20\n      swap1\n      swap2\n      keccak256\n      0x02\n      swap1\n      swap2\n      mul\n      add\n        /* \"Practical2-RockPaperScissors-Jason.sol\":2357:2383  waitingPool[i].userAddress */\n      sload\n      sub(shl(0xa0, 0x01), 0x01)\n      and\n        /* \"Practical2-RockPaperScissors-Jason.sol\":2343:2353  msg.sender */\n      caller\n        /* \"Practical2-RockPaperScissors-Jason.sol\":2343:2383  msg.sender == waitingPool[i].userAddress */\n      sub\n        /* \"Practical2-RockPaperScissors-Jason.sol\":2340:2524  if(msg.sender == waitingPool[i].userAddress){... */\n      tag_61\n      jumpi\n        /* \"Practical2-RockPaperScissors-Jason.sol\":2432:2508  require(!exist, \"Error: You already in the queue, wait for other play join\") */\n      mload(0x40)\n      shl(0xe5, 0x461bcd)\n      dup2\n      mstore\n        /* \"#utility.yul\":4985:4987   */\n      0x20\n        /* \"Practical2-RockPaperScissors-Jason.sol\":2432:2508  require(!exist, \"Error: You already in the queue, wait for other play join\") */\n      0x04\n      dup3\n      add\n        /* \"#utility.yul\":4967:4988   */\n      mstore\n        /* \"#utility.yul\":5024:5026   */\n      0x39\n        /* \"#utility.yul\":5004:5022   */\n      0x24\n      dup3\n      add\n        /* \"#utility.yul\":4997:5027   */\n      mstore\n        /* \"#utility.yul\":5063:5097   */\n      0x4572726f723a20596f7520616c726561647920696e207468652071756575652c\n        /* \"#utility.yul\":5043:5061   */\n      0x44\n      dup3\n      add\n        /* \"#utility.yul\":5036:5098   */\n      mstore\n        /* \"#utility.yul\":5134:5161   */\n      0x207761697420666f72206f7468657220706c6179206a6f696e00000000000000\n        /* \"#utility.yul\":5114:5132   */\n      0x64\n      dup3\n      add\n        /* \"#utility.yul\":5107:5162   */\n      mstore\n        /* \"Practical2-RockPaperScissors-Jason.sol\":2410:2414  true */\n      0x01\n      swap3\n      pop\n        /* \"#utility.yul\":5179:5198   */\n      0x84\n      add\n        /* \"Practical2-RockPaperScissors-Jason.sol\":2432:2508  require(!exist, \"Error: You already in the queue, wait for other play join\") */\n      tag_44\n        /* \"#utility.yul\":4783:5204   */\n      jump\n        /* \"Practical2-RockPaperScissors-Jason.sol\":2432:2508  require(!exist, \"Error: You already in the queue, wait for other play join\") */\n    tag_61:\n        /* \"Practical2-RockPaperScissors-Jason.sol\":2312:2315  i++ */\n      dup1\n      tag_64\n      dup2\n      tag_65\n      jump\t// in\n    tag_64:\n      swap2\n      pop\n      pop\n        /* \"Practical2-RockPaperScissors-Jason.sol\":2271:2534  for (uint i = 0; i < waitingPool.length; i++) ... */\n      jump(tag_53)\n    tag_54:\n      pop\n      0x40\n      dup1\n      mload\n      dup1\n      dup3\n      add\n      swap1\n      swap2\n      mstore\n      0x00\n      dup1\n      dup3\n      mstore\n      0x20\n      dup3\n      add\n      mstore\n        /* \"Practical2-RockPaperScissors-Jason.sol\":2658:2669  waitingPool */\n      0x04\n        /* \"Practical2-RockPaperScissors-Jason.sol\":2658:2684  waitingPool.push(userinfo) */\n      dup1\n      sload\n      0x01\n      dup1\n      dup3\n      add\n      dup4\n      sstore\n      0x00\n      dup4\n      swap1\n      mstore\n      dup4\n      mload\n      0x8a35acfbc15ff81a39ae7d344fd709f28e8600b4aa8c65c6b64bfe7fe36bd19b\n      0x02\n      swap1\n      swap4\n      mul\n      swap3\n      dup4\n      add\n      dup1\n      sload\n      not(sub(shl(0xa0, 0x01), 0x01))\n      and\n      sub(shl(0xa0, 0x01), 0x01)\n      swap1\n      swap3\n      and\n      swap2\n      swap1\n      swap2\n      or\n      swap1\n      sstore\n      0x20\n      dup5\n      add\n      mload\n      0x8a35acfbc15ff81a39ae7d344fd709f28e8600b4aa8c65c6b64bfe7fe36bd19c\n      swap1\n      swap3\n      add\n      swap2\n      swap1\n      swap2\n      sstore\n        /* \"Practical2-RockPaperScissors-Jason.sol\":2706:2724  waitingPool.length */\n      dup2\n      sload\n        /* \"Practical2-RockPaperScissors-Jason.sol\":2744:2754  msg.sender */\n      caller\n      swap3\n        /* \"Practical2-RockPaperScissors-Jason.sol\":2658:2669  waitingPool */\n      swap2\n        /* \"Practical2-RockPaperScissors-Jason.sol\":2706:2728  waitingPool.length - 1 */\n      tag_69\n      swap2\n      tag_70\n      jump\t// in\n    tag_69:\n        /* \"Practical2-RockPaperScissors-Jason.sol\":2694:2729  waitingPool[waitingPool.length - 1] */\n      dup2\n      sload\n      dup2\n      lt\n      tag_72\n      jumpi\n      tag_72\n      tag_58\n      jump\t// in\n    tag_72:\n      0x00\n      swap2\n      dup3\n      mstore\n      0x20\n      swap1\n      swap2\n      keccak256\n      0x02\n      swap1\n      swap2\n      mul\n      add\n        /* \"Practical2-RockPaperScissors-Jason.sol\":2694:2754  waitingPool[waitingPool.length - 1].userAddress = msg.sender */\n      dup1\n      sload\n      not(sub(shl(0xa0, 0x01), 0x01))\n      and\n      sub(shl(0xa0, 0x01), 0x01)\n      swap3\n      swap1\n      swap3\n      and\n      swap2\n      swap1\n      swap2\n      or\n      swap1\n      sstore\n        /* \"Practical2-RockPaperScissors-Jason.sol\":2764:2775  waitingPool */\n      0x04\n        /* \"Practical2-RockPaperScissors-Jason.sol\":2776:2794  waitingPool.length */\n      dup1\n      sload\n        /* \"Practical2-RockPaperScissors-Jason.sol\":2813:2819  option */\n      dup5\n      swap2\n        /* \"Practical2-RockPaperScissors-Jason.sol\":2764:2775  waitingPool */\n      swap1\n        /* \"Practical2-RockPaperScissors-Jason.sol\":2776:2798  waitingPool.length - 1 */\n      tag_74\n      swap1\n      0x01\n      swap1\n      tag_70\n      jump\t// in\n    tag_74:\n        /* \"Practical2-RockPaperScissors-Jason.sol\":2764:2799  waitingPool[waitingPool.length - 1] */\n      dup2\n      sload\n      dup2\n      lt\n      tag_76\n      jumpi\n      tag_76\n      tag_58\n      jump\t// in\n    tag_76:\n      0x00\n      swap2\n      dup3\n      mstore\n      0x20\n      swap1\n      swap2\n      keccak256\n        /* \"Practical2-RockPaperScissors-Jason.sol\":2764:2810  waitingPool[waitingPool.length - 1].userOption */\n      0x01\n        /* \"Practical2-RockPaperScissors-Jason.sol\":2764:2799  waitingPool[waitingPool.length - 1] */\n      0x02\n      swap1\n      swap3\n      mul\n      add\n        /* \"Practical2-RockPaperScissors-Jason.sol\":2764:2810  waitingPool[waitingPool.length - 1].userOption */\n      add\n        /* \"Practical2-RockPaperScissors-Jason.sol\":2764:2819  waitingPool[waitingPool.length - 1].userOption = option */\n      sstore\n        /* \"Practical2-RockPaperScissors-Jason.sol\":2877:2888  waitingPool */\n      0x04\n        /* \"Practical2-RockPaperScissors-Jason.sol\":2877:2895  waitingPool.length */\n      sload\n        /* \"Practical2-RockPaperScissors-Jason.sol\":2899:2900  6 */\n      0x06\n        /* \"Practical2-RockPaperScissors-Jason.sol\":2877:2900  waitingPool.length == 6 */\n      sub\n        /* \"Practical2-RockPaperScissors-Jason.sol\":2874:2975  if(waitingPool.length == 6){... */\n      tag_79\n      jumpi\n        /* \"Practical2-RockPaperScissors-Jason.sol\":2946:2964  choosePlayerPlay() */\n      tag_79\n        /* \"Practical2-RockPaperScissors-Jason.sol\":2946:2962  choosePlayerPlay */\n      tag_80\n        /* \"Practical2-RockPaperScissors-Jason.sol\":2946:2964  choosePlayerPlay() */\n      jump\t// in\n    tag_79:\n      pop\n      pop\n        /* \"Practical2-RockPaperScissors-Jason.sol\":1806:1812  locked */\n      0x02\n        /* \"Practical2-RockPaperScissors-Jason.sol\":1806:1820  locked = false */\n      dup1\n      sload\n      not(0xff)\n      and\n      swap1\n      sstore\n      pop\n        /* \"Practical2-RockPaperScissors-Jason.sol\":1833:2981  function getUserOption(uint option) external noReentrancy{... */\n      jump\t// out\n        /* \"Practical2-RockPaperScissors-Jason.sol\":1025:1132  function showWaitingPoll () external view returns (UserInfo[] memory) {... */\n    tag_22:\n        /* \"Practical2-RockPaperScissors-Jason.sol\":1076:1093  UserInfo[] memory */\n      0x60\n        /* \"Practical2-RockPaperScissors-Jason.sol\":1113:1124  waitingPool */\n      0x04\n        /* \"Practical2-RockPaperScissors-Jason.sol\":1105:1125  return (waitingPool) */\n      dup1\n      sload\n      dup1\n      0x20\n      mul\n      0x20\n      add\n      mload(0x40)\n      swap1\n      dup2\n      add\n      0x40\n      mstore\n      dup1\n      swap3\n      swap2\n      swap1\n      dup2\n      dup2\n      mstore\n      0x20\n      add\n      0x00\n      swap1\n    tag_82:\n      dup3\n      dup3\n      lt\n      iszero\n      tag_34\n      jumpi\n      0x00\n      dup5\n      dup2\n      mstore\n      0x20\n      swap1\n      dup2\n      swap1\n      keccak256\n      0x40\n      dup1\n      mload\n      dup1\n      dup3\n      add\n      swap1\n      swap2\n      mstore\n      0x02\n      dup6\n      mul\n      swap1\n      swap2\n      add\n      dup1\n      sload\n      sub(shl(0xa0, 0x01), 0x01)\n      and\n      dup3\n      mstore\n      0x01\n      swap1\n      dup2\n      add\n      sload\n      dup3\n      dup5\n      add\n      mstore\n      swap1\n      dup4\n      mstore\n      swap1\n      swap3\n      add\n      swap2\n      add\n      jump(tag_82)\n        /* \"Practical2-RockPaperScissors-Jason.sol\":1346:1594  function getSpecificGameHistory (uint index) external view returns(GameInfo memory){... */\n    tag_27:\n        /* \"Practical2-RockPaperScissors-Jason.sol\":1413:1428  GameInfo memory */\n      tag_85\n      tag_86\n      jump\t// in\n    tag_85:\n        /* \"Practical2-RockPaperScissors-Jason.sol\":1506:1517  gameHistory */\n      0x01\n        /* \"Practical2-RockPaperScissors-Jason.sol\":1506:1524  gameHistory.length */\n      sload\n        /* \"Practical2-RockPaperScissors-Jason.sol\":1497:1524  index <= gameHistory.length */\n      dup3\n      gt\n      iszero\n        /* \"Practical2-RockPaperScissors-Jason.sol\":1489:1550  require(index <= gameHistory.length, \"Error: Invalid length\") */\n      tag_88\n      jumpi\n      mload(0x40)\n      shl(0xe5, 0x461bcd)\n      dup2\n      mstore\n        /* \"#utility.yul\":5816:5818   */\n      0x20\n        /* \"Practical2-RockPaperScissors-Jason.sol\":1489:1550  require(index <= gameHistory.length, \"Error: Invalid length\") */\n      0x04\n      dup3\n      add\n        /* \"#utility.yul\":5798:5819   */\n      mstore\n        /* \"#utility.yul\":5855:5857   */\n      0x15\n        /* \"#utility.yul\":5835:5853   */\n      0x24\n      dup3\n      add\n        /* \"#utility.yul\":5828:5858   */\n      mstore\n      shl(0x5b, 0x08ae4e4dee4744092dcecc2d8d2c840d8cadccee8d)\n        /* \"#utility.yul\":5874:5892   */\n      0x44\n      dup3\n      add\n        /* \"#utility.yul\":5867:5918   */\n      mstore\n        /* \"#utility.yul\":5935:5953   */\n      0x64\n      add\n        /* \"Practical2-RockPaperScissors-Jason.sol\":1489:1550  require(index <= gameHistory.length, \"Error: Invalid length\") */\n      tag_44\n        /* \"#utility.yul\":5614:5959   */\n      jump\n        /* \"Practical2-RockPaperScissors-Jason.sol\":1489:1550  require(index <= gameHistory.length, \"Error: Invalid length\") */\n    tag_88:\n        /* \"Practical2-RockPaperScissors-Jason.sol\":1568:1579  gameHistory */\n      0x01\n        /* \"Practical2-RockPaperScissors-Jason.sol\":1580:1585  index */\n      dup3\n        /* \"Practical2-RockPaperScissors-Jason.sol\":1568:1586  gameHistory[index] */\n      dup2\n      sload\n      dup2\n      lt\n      tag_92\n      jumpi\n      tag_92\n      tag_58\n      jump\t// in\n    tag_92:\n      0x00\n      swap2\n      dup3\n      mstore\n      0x20\n      swap2\n      dup3\n      swap1\n      keccak256\n        /* \"Practical2-RockPaperScissors-Jason.sol\":1560:1587  return (gameHistory[index]) */\n      0x40\n      dup1\n      mload\n      0xa0\n      dup2\n      add\n      dup3\n      mstore\n        /* \"Practical2-RockPaperScissors-Jason.sol\":1568:1586  gameHistory[index] */\n      0x05\n      swap1\n      swap4\n      mul\n      swap1\n      swap2\n      add\n        /* \"Practical2-RockPaperScissors-Jason.sol\":1560:1587  return (gameHistory[index]) */\n      dup1\n      sload\n      sub(shl(0xa0, 0x01), 0x01)\n      swap1\n      dup2\n      and\n      0x60\n      dup6\n      add\n      swap1\n      dup2\n      mstore\n      0x01\n      dup4\n      add\n      sload\n      0x80\n      dup7\n      add\n      mstore\n      dup5\n      mstore\n      dup3\n      mload\n      dup1\n      dup5\n      add\n      dup5\n      mstore\n      0x02\n      dup4\n      add\n      sload\n      swap1\n      swap2\n      and\n      dup2\n      mstore\n      0x03\n      dup3\n      add\n      sload\n      dup2\n      dup7\n      add\n      mstore\n      swap4\n      dup4\n      add\n      swap4\n      swap1\n      swap4\n      mstore\n      0x04\n      dup4\n      add\n      dup1\n      sload\n      swap3\n      swap4\n        /* \"Practical2-RockPaperScissors-Jason.sol\":1568:1586  gameHistory[index] */\n      swap3\n      swap2\n      dup5\n      add\n      swap2\n        /* \"Practical2-RockPaperScissors-Jason.sol\":1560:1587  return (gameHistory[index]) */\n      tag_94\n      swap1\n      tag_37\n      jump\t// in\n    tag_94:\n      dup1\n      0x1f\n      add\n      0x20\n      dup1\n      swap2\n      div\n      mul\n      0x20\n      add\n      mload(0x40)\n      swap1\n      dup2\n      add\n      0x40\n      mstore\n      dup1\n      swap3\n      swap2\n      swap1\n      dup2\n      dup2\n      mstore\n      0x20\n      add\n      dup3\n      dup1\n      sload\n      tag_95\n      swap1\n      tag_37\n      jump\t// in\n    tag_95:\n      dup1\n      iszero\n      tag_96\n      jumpi\n      dup1\n      0x1f\n      lt\n      tag_97\n      jumpi\n      0x0100\n      dup1\n      dup4\n      sload\n      div\n      mul\n      dup4\n      mstore\n      swap2\n      0x20\n      add\n      swap2\n      jump(tag_96)\n    tag_97:\n      dup3\n      add\n      swap2\n      swap1\n      0x00\n      mstore\n      keccak256(0x00, 0x20)\n      swap1\n    tag_98:\n      dup2\n      sload\n      dup2\n      mstore\n      swap1\n      0x01\n      add\n      swap1\n      0x20\n      add\n      dup1\n      dup4\n      gt\n      tag_98\n      jumpi\n      dup3\n      swap1\n      sub\n      0x1f\n      and\n      dup3\n      add\n      swap2\n    tag_96:\n      pop\n      pop\n      pop\n      pop\n      pop\n      dup2\n      mstore\n      pop\n      pop\n      swap1\n      pop\n        /* \"Practical2-RockPaperScissors-Jason.sol\":1346:1594  function getSpecificGameHistory (uint index) external view returns(GameInfo memory){... */\n      swap2\n      swap1\n      pop\n      jump\t// out\n        /* \"Practical2-RockPaperScissors-Jason.sol\":2988:3504  function choosePlayerPlay () private {... */\n    tag_80:\n        /* \"Practical2-RockPaperScissors-Jason.sol\":3206:3227  UserInfo memory user1 */\n      0x00\n        /* \"Practical2-RockPaperScissors-Jason.sol\":3230:3248  ChooseRandomUser() */\n      tag_103\n        /* \"Practical2-RockPaperScissors-Jason.sol\":3230:3246  ChooseRandomUser */\n      tag_104\n        /* \"Practical2-RockPaperScissors-Jason.sol\":3230:3248  ChooseRandomUser() */\n      jump\t// in\n    tag_103:\n        /* \"Practical2-RockPaperScissors-Jason.sol\":3206:3248  UserInfo memory user1 = ChooseRandomUser() */\n      swap1\n      pop\n        /* \"Practical2-RockPaperScissors-Jason.sol\":3262:3283  UserInfo memory user2 */\n      0x00\n        /* \"Practical2-RockPaperScissors-Jason.sol\":3286:3304  ChooseRandomUser() */\n      tag_105\n        /* \"Practical2-RockPaperScissors-Jason.sol\":3286:3302  ChooseRandomUser */\n      tag_104\n        /* \"Practical2-RockPaperScissors-Jason.sol\":3286:3304  ChooseRandomUser() */\n      jump\t// in\n    tag_105:\n        /* \"Practical2-RockPaperScissors-Jason.sol\":3262:3304  UserInfo memory user2 = ChooseRandomUser() */\n      swap1\n      pop\n        /* \"Practical2-RockPaperScissors-Jason.sol\":3376:3394  game(user1, user2) */\n      tag_106\n        /* \"Practical2-RockPaperScissors-Jason.sol\":3381:3386  user1 */\n      dup3\n        /* \"Practical2-RockPaperScissors-Jason.sol\":3388:3393  user2 */\n      dup3\n        /* \"Practical2-RockPaperScissors-Jason.sol\":3376:3380  game */\n      tag_107\n        /* \"Practical2-RockPaperScissors-Jason.sol\":3376:3394  game(user1, user2) */\n      jump\t// in\n    tag_106:\n      pop\n      pop\n        /* \"Practical2-RockPaperScissors-Jason.sol\":3422:3433  waitingPool */\n      0x04\n        /* \"Practical2-RockPaperScissors-Jason.sol\":3422:3440  waitingPool.length */\n      sload\n        /* \"Practical2-RockPaperScissors-Jason.sol\":3444:3445  0 */\n      0x00\n        /* \"Practical2-RockPaperScissors-Jason.sol\":3422:3445  waitingPool.length != 0 */\n      sub\n        /* \"Practical2-RockPaperScissors-Jason.sol\":3044:3447  do {... */\n      tag_80\n      jumpi\n        /* \"Practical2-RockPaperScissors-Jason.sol\":3477:3488  waitingPool */\n      0x04\n        /* \"Practical2-RockPaperScissors-Jason.sol\":3477:3495  waitingPool.length */\n      sload\n        /* \"Practical2-RockPaperScissors-Jason.sol\":3461:3496  showArraylenght(waitingPool.length) */\n      mload(0x40)\n        /* \"#utility.yul\":6110:6135   */\n      swap1\n      dup2\n      mstore\n        /* \"Practical2-RockPaperScissors-Jason.sol\":3461:3496  showArraylenght(waitingPool.length) */\n      0x1f237084c29a99316238004a5870904571dbc9ff0d357b8b85cceacb5512a850\n      swap1\n        /* \"#utility.yul\":6098:6100   */\n      0x20\n        /* \"#utility.yul\":6083:6101   */\n      add\n        /* \"Practical2-RockPaperScissors-Jason.sol\":3461:3496  showArraylenght(waitingPool.length) */\n      mload(0x40)\n      dup1\n      swap2\n      sub\n      swap1\n      log1\n        /* \"Practical2-RockPaperScissors-Jason.sol\":2988:3504  function choosePlayerPlay () private {... */\n      jump\t// out\n        /* \"Practical2-RockPaperScissors-Jason.sol\":3510:4199  function ChooseRandomUser () private returns (UserInfo memory){... */\n    tag_104:\n      0x40\n      dup1\n      mload\n      dup1\n      dup3\n      add\n      swap1\n      swap2\n      mstore\n      0x00\n      dup1\n      dup3\n      mstore\n      0x20\n      dup3\n      add\n      mstore\n        /* \"Practical2-RockPaperScissors-Jason.sol\":3590:3601  waitingPool */\n      0x04\n        /* \"Practical2-RockPaperScissors-Jason.sol\":3590:3608  waitingPool.length */\n      sload\n        /* \"Practical2-RockPaperScissors-Jason.sol\":3582:3631  require(waitingPool.length > 0, \"Array is empty\") */\n      tag_112\n      jumpi\n      mload(0x40)\n      shl(0xe5, 0x461bcd)\n      dup2\n      mstore\n        /* \"#utility.yul\":6348:6350   */\n      0x20\n        /* \"Practical2-RockPaperScissors-Jason.sol\":3582:3631  require(waitingPool.length > 0, \"Array is empty\") */\n      0x04\n      dup3\n      add\n        /* \"#utility.yul\":6330:6351   */\n      mstore\n        /* \"#utility.yul\":6387:6389   */\n      0x0e\n        /* \"#utility.yul\":6367:6385   */\n      0x24\n      dup3\n      add\n        /* \"#utility.yul\":6360:6390   */\n      mstore\n      shl(0x90, 0x417272617920697320656d707479)\n        /* \"#utility.yul\":6406:6424   */\n      0x44\n      dup3\n      add\n        /* \"#utility.yul\":6399:6443   */\n      mstore\n        /* \"#utility.yul\":6460:6478   */\n      0x64\n      add\n        /* \"Practical2-RockPaperScissors-Jason.sol\":3582:3631  require(waitingPool.length > 0, \"Array is empty\") */\n      tag_44\n        /* \"#utility.yul\":6146:6484   */\n      jump\n        /* \"Practical2-RockPaperScissors-Jason.sol\":3582:3631  require(waitingPool.length > 0, \"Array is empty\") */\n    tag_112:\n        /* \"Practical2-RockPaperScissors-Jason.sol\":3813:3824  waitingPool */\n      0x04\n        /* \"Practical2-RockPaperScissors-Jason.sol\":3813:3831  waitingPool.length */\n      sload\n        /* \"Practical2-RockPaperScissors-Jason.sol\":3803:3807  salt */\n      sload(0x03)\n        /* \"Practical2-RockPaperScissors-Jason.sol\":3751:3808  abi.encodePacked(block.difficulty, block.timestamp, salt) */\n      0x40\n      dup1\n      mload\n        /* \"Practical2-RockPaperScissors-Jason.sol\":3768:3784  block.difficulty */\n      prevrandao\n        /* \"Practical2-RockPaperScissors-Jason.sol\":3751:3808  abi.encodePacked(block.difficulty, block.timestamp, salt) */\n      0x20\n      dup3\n      add\n        /* \"#utility.yul\":6674:6693   */\n      mstore\n        /* \"Practical2-RockPaperScissors-Jason.sol\":3786:3801  block.timestamp */\n      timestamp\n        /* \"#utility.yul\":6709:6721   */\n      swap2\n      dup2\n      add\n        /* \"#utility.yul\":6702:6730   */\n      swap2\n      swap1\n      swap2\n      mstore\n        /* \"#utility.yul\":6746:6758   */\n      0x60\n      dup2\n      add\n        /* \"#utility.yul\":6739:6767   */\n      swap2\n      swap1\n      swap2\n      mstore\n        /* \"Practical2-RockPaperScissors-Jason.sol\":3711:3730  uint256 randomIndex */\n      0x00\n      swap2\n        /* \"Practical2-RockPaperScissors-Jason.sol\":3813:3831  waitingPool.length */\n      swap1\n        /* \"#utility.yul\":6783:6795   */\n      0x80\n      add\n        /* \"Practical2-RockPaperScissors-Jason.sol\":3751:3808  abi.encodePacked(block.difficulty, block.timestamp, salt) */\n      mload(0x40)\n      0x20\n      dup2\n      dup4\n      sub\n      sub\n      dup2\n      mstore\n      swap1\n      0x40\n      mstore\n        /* \"Practical2-RockPaperScissors-Jason.sol\":3741:3809  keccak256(abi.encodePacked(block.difficulty, block.timestamp, salt)) */\n      dup1\n      mload\n      swap1\n      0x20\n      add\n      keccak256\n        /* \"Practical2-RockPaperScissors-Jason.sol\":3733:3810  uint256(keccak256(abi.encodePacked(block.difficulty, block.timestamp, salt))) */\n      0x00\n      shr\n        /* \"Practical2-RockPaperScissors-Jason.sol\":3733:3831  uint256(keccak256(abi.encodePacked(block.difficulty, block.timestamp, salt))) % waitingPool.length */\n      tag_117\n      swap2\n      swap1\n      tag_118\n      jump\t// in\n    tag_117:\n        /* \"Practical2-RockPaperScissors-Jason.sol\":3841:3845  salt */\n      0x03\n        /* \"Practical2-RockPaperScissors-Jason.sol\":3841:3847  salt++ */\n      dup1\n      sload\n        /* \"Practical2-RockPaperScissors-Jason.sol\":3711:3831  uint256 randomIndex = uint256(keccak256(abi.encodePacked(block.difficulty, block.timestamp, salt))) % waitingPool.length */\n      swap2\n      swap3\n      pop\n        /* \"Practical2-RockPaperScissors-Jason.sol\":3841:3845  salt */\n      0x00\n        /* \"Practical2-RockPaperScissors-Jason.sol\":3841:3847  salt++ */\n      tag_119\n      dup4\n      tag_65\n      jump\t// in\n    tag_119:\n      swap2\n      swap1\n      pop\n      sstore\n      pop\n        /* \"Practical2-RockPaperScissors-Jason.sol\":3902:3928  UserInfo memory randomUser */\n      0x00\n        /* \"Practical2-RockPaperScissors-Jason.sol\":3931:3942  waitingPool */\n      0x04\n        /* \"Practical2-RockPaperScissors-Jason.sol\":3943:3954  randomIndex */\n      dup3\n        /* \"Practical2-RockPaperScissors-Jason.sol\":3931:3955  waitingPool[randomIndex] */\n      dup2\n      sload\n      dup2\n      lt\n      tag_121\n      jumpi\n      tag_121\n      tag_58\n      jump\t// in\n    tag_121:\n      0x00\n      swap2\n      dup3\n      mstore\n      0x20\n      swap2\n      dup3\n      swap1\n      keccak256\n        /* \"Practical2-RockPaperScissors-Jason.sol\":3902:3955  UserInfo memory randomUser = waitingPool[randomIndex] */\n      0x40\n      dup1\n      mload\n      dup1\n      dup3\n      add\n      swap1\n      swap2\n      mstore\n        /* \"Practical2-RockPaperScissors-Jason.sol\":3931:3955  waitingPool[randomIndex] */\n      0x02\n      swap1\n      swap3\n      mul\n      add\n        /* \"Practical2-RockPaperScissors-Jason.sol\":3902:3955  UserInfo memory randomUser = waitingPool[randomIndex] */\n      dup1\n      sload\n      sub(shl(0xa0, 0x01), 0x01)\n      and\n      dup3\n      mstore\n      0x01\n      swap1\n      dup2\n      add\n      sload\n      swap3\n      dup3\n      add\n      swap3\n      swap1\n      swap3\n      mstore\n        /* \"Practical2-RockPaperScissors-Jason.sol\":4102:4113  waitingPool */\n      0x04\n        /* \"Practical2-RockPaperScissors-Jason.sol\":4114:4132  waitingPool.length */\n      dup1\n      sload\n        /* \"Practical2-RockPaperScissors-Jason.sol\":3902:3955  UserInfo memory randomUser = waitingPool[randomIndex] */\n      swap2\n      swap4\n      pop\n        /* \"Practical2-RockPaperScissors-Jason.sol\":4102:4113  waitingPool */\n      swap2\n        /* \"Practical2-RockPaperScissors-Jason.sol\":4114:4136  waitingPool.length - 1 */\n      tag_123\n      swap2\n      tag_70\n      jump\t// in\n    tag_123:\n        /* \"Practical2-RockPaperScissors-Jason.sol\":4102:4137  waitingPool[waitingPool.length - 1] */\n      dup2\n      sload\n      dup2\n      lt\n      tag_125\n      jumpi\n      tag_125\n      tag_58\n      jump\t// in\n    tag_125:\n      swap1\n      0x00\n      mstore\n      keccak256(0x00, 0x20)\n      swap1\n      0x02\n      mul\n      add\n        /* \"Practical2-RockPaperScissors-Jason.sol\":4075:4086  waitingPool */\n      0x04\n        /* \"Practical2-RockPaperScissors-Jason.sol\":4087:4098  randomIndex */\n      dup4\n        /* \"Practical2-RockPaperScissors-Jason.sol\":4075:4099  waitingPool[randomIndex] */\n      dup2\n      sload\n      dup2\n      lt\n      tag_128\n      jumpi\n      tag_128\n      tag_58\n      jump\t// in\n    tag_128:\n      0x00\n      swap2\n      dup3\n      mstore\n      0x20\n      swap1\n      swap2\n      keccak256\n        /* \"Practical2-RockPaperScissors-Jason.sol\":4075:4137  waitingPool[randomIndex] = waitingPool[waitingPool.length - 1] */\n      dup3\n      sload\n        /* \"Practical2-RockPaperScissors-Jason.sol\":4075:4099  waitingPool[randomIndex] */\n      0x02\n      swap1\n      swap3\n      mul\n      add\n        /* \"Practical2-RockPaperScissors-Jason.sol\":4075:4137  waitingPool[randomIndex] = waitingPool[waitingPool.length - 1] */\n      dup1\n      sload\n      not(sub(shl(0xa0, 0x01), 0x01))\n      and\n      sub(shl(0xa0, 0x01), 0x01)\n      swap1\n      swap3\n      and\n      swap2\n      swap1\n      swap2\n      or\n      dup2\n      sstore\n      0x01\n      swap2\n      dup3\n      add\n      sload\n      swap2\n      add\n      sstore\n        /* \"Practical2-RockPaperScissors-Jason.sol\":4147:4158  waitingPool */\n      0x04\n        /* \"Practical2-RockPaperScissors-Jason.sol\":4147:4164  waitingPool.pop() */\n      dup1\n      sload\n      dup1\n      tag_131\n      jumpi\n      tag_131\n      tag_132\n      jump\t// in\n    tag_131:\n      0x00\n      dup3\n      dup2\n      mstore\n      0x20\n      dup2\n      keccak256\n      0x02\n      not(0x00)\n      swap1\n      swap4\n      add\n      swap3\n      dup4\n      mul\n      add\n      dup1\n      sload\n      not(sub(shl(0xa0, 0x01), 0x01))\n      and\n      dup2\n      sstore\n      0x01\n      add\n      sstore\n      swap1\n      sstore\n        /* \"Practical2-RockPaperScissors-Jason.sol\":4182:4192  randomUser */\n      swap3\n        /* \"Practical2-RockPaperScissors-Jason.sol\":3510:4199  function ChooseRandomUser () private returns (UserInfo memory){... */\n      swap2\n      pop\n      pop\n      jump\t// out\n        /* \"Practical2-RockPaperScissors-Jason.sol\":4205:5715  function game (UserInfo memory userOne, UserInfo memory userTwo) private {... */\n    tag_107:\n        /* \"Practical2-RockPaperScissors-Jason.sol\":4346:4370  GameInfo memory gameinfo */\n      tag_135\n      tag_86\n      jump\t// in\n    tag_135:\n        /* \"Practical2-RockPaperScissors-Jason.sol\":4380:4391  gameHistory */\n      0x01\n        /* \"Practical2-RockPaperScissors-Jason.sol\":4380:4406  gameHistory.push(gameinfo) */\n      dup1\n      sload\n      dup1\n      dup3\n      add\n      dup3\n      sstore\n      0x00\n      swap2\n      swap1\n      swap2\n      mstore\n      dup2\n      mload\n      dup1\n      mload\n      0xb10e2d527612073b26eecdfd717e6a320cf44b4afac2b0732d9fcbe2b7fa0cf6\n      0x05\n      swap1\n      swap4\n      mul\n      swap3\n      dup4\n      add\n      dup1\n      sload\n      not(sub(shl(0xa0, 0x01), 0x01))\n      swap1\n      dup2\n      and\n      sub(shl(0xa0, 0x01), 0x01)\n      swap4\n      dup5\n      and\n      or\n      dup3\n      sstore\n      0x20\n      swap4\n      dup5\n      add\n      mload\n      0xb10e2d527612073b26eecdfd717e6a320cf44b4afac2b0732d9fcbe2b7fa0cf7\n      dup7\n      add\n      sstore\n      dup4\n      dup7\n      add\n      mload\n      dup1\n      mload\n      0xb10e2d527612073b26eecdfd717e6a320cf44b4afac2b0732d9fcbe2b7fa0cf8\n      dup8\n      add\n      dup1\n      sload\n      swap1\n      swap4\n      and\n      swap5\n      and\n      swap4\n      swap1\n      swap4\n      or\n      swap1\n      sstore\n      swap2\n      add\n      mload\n      0xb10e2d527612073b26eecdfd717e6a320cf44b4afac2b0732d9fcbe2b7fa0cf9\n      dup4\n      add\n      sstore\n      0x40\n      dup4\n      add\n      mload\n      dup4\n      swap3\n      0xb10e2d527612073b26eecdfd717e6a320cf44b4afac2b0732d9fcbe2b7fa0cfa\n      add\n      swap1\n      tag_137\n      swap1\n      dup3\n      tag_138\n      jump\t// in\n    tag_137:\n      pop\n      pop\n        /* \"Practical2-RockPaperScissors-Jason.sol\":4471:4482  gameHistory */\n      0x01\n        /* \"Practical2-RockPaperScissors-Jason.sol\":4483:4501  gameHistory.length */\n      dup1\n      sload\n        /* \"Practical2-RockPaperScissors-Jason.sol\":4515:4522  userOne */\n      dup6\n      swap3\n      pop\n        /* \"Practical2-RockPaperScissors-Jason.sol\":4483:4505  gameHistory.length - 1 */\n      tag_139\n      swap1\n        /* \"Practical2-RockPaperScissors-Jason.sol\":4471:4482  gameHistory */\n      dup3\n      swap1\n        /* \"Practical2-RockPaperScissors-Jason.sol\":4483:4505  gameHistory.length - 1 */\n      tag_70\n      jump\t// in\n    tag_139:\n        /* \"Practical2-RockPaperScissors-Jason.sol\":4471:4506  gameHistory[gameHistory.length - 1] */\n      dup2\n      sload\n      dup2\n      lt\n      tag_141\n      jumpi\n      tag_141\n      tag_58\n      jump\t// in\n    tag_141:\n      0x00\n      swap2\n      dup3\n      mstore\n      0x20\n      swap2\n      dup3\n      swap1\n      keccak256\n        /* \"Practical2-RockPaperScissors-Jason.sol\":4471:4522  gameHistory[gameHistory.length - 1].user1 = userOne */\n      dup4\n      mload\n        /* \"Practical2-RockPaperScissors-Jason.sol\":4471:4506  gameHistory[gameHistory.length - 1] */\n      0x05\n      swap3\n      swap1\n      swap3\n      mul\n      add\n        /* \"Practical2-RockPaperScissors-Jason.sol\":4471:4522  gameHistory[gameHistory.length - 1].user1 = userOne */\n      dup1\n      sload\n      not(sub(shl(0xa0, 0x01), 0x01))\n      and\n      sub(shl(0xa0, 0x01), 0x01)\n      swap1\n      swap3\n      and\n      swap2\n      swap1\n      swap2\n      or\n      dup2\n      sstore\n      swap2\n      add\n      mload\n      0x01\n      swap2\n      dup3\n      add\n      sstore\n        /* \"Practical2-RockPaperScissors-Jason.sol\":4544:4562  gameHistory.length */\n      dup1\n      sload\n        /* \"Practical2-RockPaperScissors-Jason.sol\":4576:4583  userTwo */\n      dup4\n      swap2\n      swap1\n        /* \"Practical2-RockPaperScissors-Jason.sol\":4544:4566  gameHistory.length - 1 */\n      tag_143\n      swap1\n      dup3\n      swap1\n      tag_70\n      jump\t// in\n    tag_143:\n        /* \"Practical2-RockPaperScissors-Jason.sol\":4532:4567  gameHistory[gameHistory.length - 1] */\n      dup2\n      sload\n      dup2\n      lt\n      tag_145\n      jumpi\n      tag_145\n      tag_58\n      jump\t// in\n    tag_145:\n      0x00\n      swap2\n      dup3\n      mstore\n      0x20\n      swap2\n      dup3\n      swap1\n      keccak256\n        /* \"Practical2-RockPaperScissors-Jason.sol\":4532:4583  gameHistory[gameHistory.length - 1].user2 = userTwo */\n      dup4\n      mload\n        /* \"Practical2-RockPaperScissors-Jason.sol\":4532:4567  gameHistory[gameHistory.length - 1] */\n      0x05\n      swap3\n      swap1\n      swap3\n      mul\n      add\n        /* \"Practical2-RockPaperScissors-Jason.sol\":4532:4573  gameHistory[gameHistory.length - 1].user2 */\n      0x02\n      dup2\n      add\n        /* \"Practical2-RockPaperScissors-Jason.sol\":4532:4583  gameHistory[gameHistory.length - 1].user2 = userTwo */\n      dup1\n      sload\n      not(sub(shl(0xa0, 0x01), 0x01))\n      and\n      sub(shl(0xa0, 0x01), 0x01)\n      swap1\n      swap4\n      and\n      swap3\n      swap1\n      swap3\n      or\n      swap1\n      swap2\n      sstore\n      swap2\n      add\n      mload\n      0x03\n      swap1\n      swap2\n      add\n      sstore\n      0x01\n        /* \"Practical2-RockPaperScissors-Jason.sol\":4789:4807  gameHistory.length */\n      dup1\n      sload\n        /* \"Practical2-RockPaperScissors-Jason.sol\":4789:4811  gameHistory.length - 1 */\n      tag_147\n      swap1\n      dup3\n      swap1\n      tag_70\n      jump\t// in\n    tag_147:\n        /* \"Practical2-RockPaperScissors-Jason.sol\":4777:4812  gameHistory[gameHistory.length - 1] */\n      dup2\n      sload\n      dup2\n      lt\n      tag_149\n      jumpi\n      tag_149\n      tag_58\n      jump\t// in\n    tag_149:\n      0x00\n      swap2\n      dup3\n      mstore\n      0x20\n      swap1\n      swap2\n      keccak256\n        /* \"Practical2-RockPaperScissors-Jason.sol\":4777:4829  gameHistory[gameHistory.length - 1].user2.userOption */\n      0x03\n        /* \"Practical2-RockPaperScissors-Jason.sol\":4777:4812  gameHistory[gameHistory.length - 1] */\n      0x05\n      swap1\n      swap3\n      mul\n      add\n        /* \"Practical2-RockPaperScissors-Jason.sol\":4777:4829  gameHistory[gameHistory.length - 1].user2.userOption */\n      add\n      sload\n      0x01\n        /* \"Practical2-RockPaperScissors-Jason.sol\":4733:4751  gameHistory.length */\n      dup1\n      sload\n        /* \"Practical2-RockPaperScissors-Jason.sol\":4733:4755  gameHistory.length - 1 */\n      tag_151\n      swap1\n        /* \"Practical2-RockPaperScissors-Jason.sol\":4777:4829  gameHistory[gameHistory.length - 1].user2.userOption */\n      dup3\n      swap1\n        /* \"Practical2-RockPaperScissors-Jason.sol\":4733:4755  gameHistory.length - 1 */\n      tag_70\n      jump\t// in\n    tag_151:\n        /* \"Practical2-RockPaperScissors-Jason.sol\":4721:4756  gameHistory[gameHistory.length - 1] */\n      dup2\n      sload\n      dup2\n      lt\n      tag_153\n      jumpi\n      tag_153\n      tag_58\n      jump\t// in\n    tag_153:\n      swap1\n      0x00\n      mstore\n      keccak256(0x00, 0x20)\n      swap1\n      0x05\n      mul\n      add\n        /* \"Practical2-RockPaperScissors-Jason.sol\":4721:4762  gameHistory[gameHistory.length - 1].user1 */\n      0x00\n      add\n        /* \"Practical2-RockPaperScissors-Jason.sol\":4721:4773  gameHistory[gameHistory.length - 1].user1.userOption */\n      0x01\n      add\n      sload\n        /* \"Practical2-RockPaperScissors-Jason.sol\":4721:4829  gameHistory[gameHistory.length - 1].user1.userOption == gameHistory[gameHistory.length - 1].user2.userOption */\n      sub\n        /* \"Practical2-RockPaperScissors-Jason.sol\":4717:5709  if (gameHistory[gameHistory.length - 1].user1.userOption == gameHistory[gameHistory.length - 1].user2.userOption) {... */\n      tag_155\n      jumpi\n        /* \"Practical2-RockPaperScissors-Jason.sol\":4845:4901  gameHistory[gameHistory.length - 1].finalResult = \"Tied\" */\n      0x40\n      dup1\n      mload\n      dup1\n      dup3\n      add\n      swap1\n      swap2\n      mstore\n      0x04\n      dup2\n      mstore\n      shl(0xe2, 0x151a5959)\n      0x20\n      dup3\n      add\n      mstore\n        /* \"Practical2-RockPaperScissors-Jason.sol\":4845:4856  gameHistory */\n      0x01\n        /* \"Practical2-RockPaperScissors-Jason.sol\":4857:4875  gameHistory.length */\n      dup1\n      sload\n        /* \"Practical2-RockPaperScissors-Jason.sol\":4857:4879  gameHistory.length - 1 */\n      tag_156\n      swap1\n        /* \"Practical2-RockPaperScissors-Jason.sol\":4845:4856  gameHistory */\n      dup3\n      swap1\n        /* \"Practical2-RockPaperScissors-Jason.sol\":4857:4879  gameHistory.length - 1 */\n      tag_70\n      jump\t// in\n    tag_156:\n        /* \"Practical2-RockPaperScissors-Jason.sol\":4845:4880  gameHistory[gameHistory.length - 1] */\n      dup2\n      sload\n      dup2\n      lt\n      tag_158\n      jumpi\n      tag_158\n      tag_58\n      jump\t// in\n    tag_158:\n      swap1\n      0x00\n      mstore\n      keccak256(0x00, 0x20)\n      swap1\n      0x05\n      mul\n      add\n        /* \"Practical2-RockPaperScissors-Jason.sol\":4845:4892  gameHistory[gameHistory.length - 1].finalResult */\n      0x04\n      add\n        /* \"Practical2-RockPaperScissors-Jason.sol\":4845:4901  gameHistory[gameHistory.length - 1].finalResult = \"Tied\" */\n      swap1\n      dup2\n      tag_160\n      swap2\n      swap1\n      tag_138\n      jump\t// in\n    tag_160:\n      pop\n        /* \"Practical2-RockPaperScissors-Jason.sol\":4920:4938  showResult(\"Tied\") */\n      0xcde5c32c0a45fd8aa4b65ea8003fc9da9acd5e2c6c24a9fcce6ab79cabbd9122\n      mload(0x40)\n      tag_161\n      swap1\n        /* \"#utility.yul\":9690:9692   */\n      0x20\n        /* \"#utility.yul\":9672:9693   */\n      dup1\n      dup3\n      mstore\n        /* \"#utility.yul\":9729:9730   */\n      0x04\n        /* \"#utility.yul\":9709:9727   */\n      swap1\n      dup3\n      add\n        /* \"#utility.yul\":9702:9731   */\n      mstore\n      shl(0xe2, 0x151a5959)\n        /* \"#utility.yul\":9762:9764   */\n      0x40\n        /* \"#utility.yul\":9747:9765   */\n      dup3\n      add\n        /* \"#utility.yul\":9740:9774   */\n      mstore\n        /* \"#utility.yul\":9806:9808   */\n      0x60\n        /* \"#utility.yul\":9791:9809   */\n      add\n      swap1\n        /* \"#utility.yul\":9488:9815   */\n      jump\n        /* \"Practical2-RockPaperScissors-Jason.sol\":4920:4938  showResult(\"Tied\") */\n    tag_161:\n      mload(0x40)\n      dup1\n      swap2\n      sub\n      swap1\n      log1\n        /* \"Practical2-RockPaperScissors-Jason.sol\":4278:5715  {... */\n      pop\n        /* \"Practical2-RockPaperScissors-Jason.sol\":4205:5715  function game (UserInfo memory userOne, UserInfo memory userTwo) private {... */\n      pop\n      pop\n      jump\t// out\n        /* \"Practical2-RockPaperScissors-Jason.sol\":4717:5709  if (gameHistory[gameHistory.length - 1].user1.userOption == gameHistory[gameHistory.length - 1].user2.userOption) {... */\n    tag_155:\n        /* \"Practical2-RockPaperScissors-Jason.sol\":4999:5010  gameHistory */\n      0x01\n        /* \"Practical2-RockPaperScissors-Jason.sol\":5011:5029  gameHistory.length */\n      dup1\n      sload\n        /* \"Practical2-RockPaperScissors-Jason.sol\":5011:5033  gameHistory.length - 1 */\n      tag_164\n      swap1\n        /* \"Practical2-RockPaperScissors-Jason.sol\":4999:5010  gameHistory */\n      dup3\n      swap1\n        /* \"Practical2-RockPaperScissors-Jason.sol\":5011:5033  gameHistory.length - 1 */\n      tag_70\n      jump\t// in\n    tag_164:\n        /* \"Practical2-RockPaperScissors-Jason.sol\":4999:5034  gameHistory[gameHistory.length - 1] */\n      dup2\n      sload\n      dup2\n      lt\n      tag_166\n      jumpi\n      tag_166\n      tag_58\n      jump\t// in\n    tag_166:\n      swap1\n      0x00\n      mstore\n      keccak256(0x00, 0x20)\n      swap1\n      0x05\n      mul\n      add\n        /* \"Practical2-RockPaperScissors-Jason.sol\":4999:5040  gameHistory[gameHistory.length - 1].user1 */\n      0x00\n      add\n        /* \"Practical2-RockPaperScissors-Jason.sol\":4999:5051  gameHistory[gameHistory.length - 1].user1.userOption */\n      0x01\n      add\n      sload\n        /* \"Practical2-RockPaperScissors-Jason.sol\":5055:5056  1 */\n      0x01\n        /* \"Practical2-RockPaperScissors-Jason.sol\":4999:5056  gameHistory[gameHistory.length - 1].user1.userOption == 1 */\n      eq\n        /* \"Practical2-RockPaperScissors-Jason.sol\":4999:5117  gameHistory[gameHistory.length - 1].user1.userOption == 1 && gameHistory[gameHistory.length - 1].user2.userOption == 2 */\n      dup1\n      iszero\n      tag_168\n      jumpi\n      pop\n        /* \"Practical2-RockPaperScissors-Jason.sol\":5060:5071  gameHistory */\n      0x01\n        /* \"Practical2-RockPaperScissors-Jason.sol\":5072:5090  gameHistory.length */\n      dup1\n      sload\n        /* \"Practical2-RockPaperScissors-Jason.sol\":5072:5094  gameHistory.length - 1 */\n      tag_169\n      swap1\n        /* \"Practical2-RockPaperScissors-Jason.sol\":5060:5071  gameHistory */\n      dup3\n      swap1\n        /* \"Practical2-RockPaperScissors-Jason.sol\":5072:5094  gameHistory.length - 1 */\n      tag_70\n      jump\t// in\n    tag_169:\n        /* \"Practical2-RockPaperScissors-Jason.sol\":5060:5095  gameHistory[gameHistory.length - 1] */\n      dup2\n      sload\n      dup2\n      lt\n      tag_171\n      jumpi\n      tag_171\n      tag_58\n      jump\t// in\n    tag_171:\n      swap1\n      0x00\n      mstore\n      keccak256(0x00, 0x20)\n      swap1\n      0x05\n      mul\n      add\n        /* \"Practical2-RockPaperScissors-Jason.sol\":5060:5101  gameHistory[gameHistory.length - 1].user2 */\n      0x02\n      add\n        /* \"Practical2-RockPaperScissors-Jason.sol\":5060:5112  gameHistory[gameHistory.length - 1].user2.userOption */\n      0x01\n      add\n      sload\n        /* \"Practical2-RockPaperScissors-Jason.sol\":5116:5117  2 */\n      0x02\n        /* \"Practical2-RockPaperScissors-Jason.sol\":5060:5117  gameHistory[gameHistory.length - 1].user2.userOption == 2 */\n      eq\n        /* \"Practical2-RockPaperScissors-Jason.sol\":4999:5117  gameHistory[gameHistory.length - 1].user1.userOption == 1 && gameHistory[gameHistory.length - 1].user2.userOption == 2 */\n    tag_168:\n        /* \"Practical2-RockPaperScissors-Jason.sol\":4998:5258  (gameHistory[gameHistory.length - 1].user1.userOption == 1 && gameHistory[gameHistory.length - 1].user2.userOption == 2) ||... */\n      dup1\n      tag_178\n      jumpi\n      pop\n        /* \"Practical2-RockPaperScissors-Jason.sol\":5139:5150  gameHistory */\n      0x01\n        /* \"Practical2-RockPaperScissors-Jason.sol\":5151:5169  gameHistory.length */\n      dup1\n      sload\n        /* \"Practical2-RockPaperScissors-Jason.sol\":5151:5173  gameHistory.length - 1 */\n      tag_174\n      swap1\n        /* \"Practical2-RockPaperScissors-Jason.sol\":5139:5150  gameHistory */\n      dup3\n      swap1\n        /* \"Practical2-RockPaperScissors-Jason.sol\":5151:5173  gameHistory.length - 1 */\n      tag_70\n      jump\t// in\n    tag_174:\n        /* \"Practical2-RockPaperScissors-Jason.sol\":5139:5174  gameHistory[gameHistory.length - 1] */\n      dup2\n      sload\n      dup2\n      lt\n      tag_176\n      jumpi\n      tag_176\n      tag_58\n      jump\t// in\n    tag_176:\n      swap1\n      0x00\n      mstore\n      keccak256(0x00, 0x20)\n      swap1\n      0x05\n      mul\n      add\n        /* \"Practical2-RockPaperScissors-Jason.sol\":5139:5180  gameHistory[gameHistory.length - 1].user1 */\n      0x00\n      add\n        /* \"Practical2-RockPaperScissors-Jason.sol\":5139:5191  gameHistory[gameHistory.length - 1].user1.userOption */\n      0x01\n      add\n      sload\n        /* \"Practical2-RockPaperScissors-Jason.sol\":5195:5196  3 */\n      0x03\n        /* \"Practical2-RockPaperScissors-Jason.sol\":5139:5196  gameHistory[gameHistory.length - 1].user1.userOption == 3 */\n      eq\n        /* \"Practical2-RockPaperScissors-Jason.sol\":5139:5257  gameHistory[gameHistory.length - 1].user1.userOption == 3 && gameHistory[gameHistory.length - 1].user2.userOption == 1 */\n      dup1\n      iszero\n      tag_178\n      jumpi\n      pop\n        /* \"Practical2-RockPaperScissors-Jason.sol\":5200:5211  gameHistory */\n      0x01\n        /* \"Practical2-RockPaperScissors-Jason.sol\":5212:5230  gameHistory.length */\n      dup1\n      sload\n        /* \"Practical2-RockPaperScissors-Jason.sol\":5212:5234  gameHistory.length - 1 */\n      tag_179\n      swap1\n        /* \"Practical2-RockPaperScissors-Jason.sol\":5200:5211  gameHistory */\n      dup3\n      swap1\n        /* \"Practical2-RockPaperScissors-Jason.sol\":5212:5234  gameHistory.length - 1 */\n      tag_70\n      jump\t// in\n    tag_179:\n        /* \"Practical2-RockPaperScissors-Jason.sol\":5200:5235  gameHistory[gameHistory.length - 1] */\n      dup2\n      sload\n      dup2\n      lt\n      tag_181\n      jumpi\n      tag_181\n      tag_58\n      jump\t// in\n    tag_181:\n      swap1\n      0x00\n      mstore\n      keccak256(0x00, 0x20)\n      swap1\n      0x05\n      mul\n      add\n        /* \"Practical2-RockPaperScissors-Jason.sol\":5200:5241  gameHistory[gameHistory.length - 1].user2 */\n      0x02\n      add\n        /* \"Practical2-RockPaperScissors-Jason.sol\":5200:5252  gameHistory[gameHistory.length - 1].user2.userOption */\n      0x01\n      add\n      sload\n        /* \"Practical2-RockPaperScissors-Jason.sol\":5256:5257  1 */\n      0x01\n        /* \"Practical2-RockPaperScissors-Jason.sol\":5200:5257  gameHistory[gameHistory.length - 1].user2.userOption == 1 */\n      eq\n        /* \"Practical2-RockPaperScissors-Jason.sol\":5139:5257  gameHistory[gameHistory.length - 1].user1.userOption == 3 && gameHistory[gameHistory.length - 1].user2.userOption == 1 */\n    tag_178:\n        /* \"Practical2-RockPaperScissors-Jason.sol\":4998:5398  (gameHistory[gameHistory.length - 1].user1.userOption == 1 && gameHistory[gameHistory.length - 1].user2.userOption == 2) ||... */\n      dup1\n      tag_188\n      jumpi\n      pop\n        /* \"Practical2-RockPaperScissors-Jason.sol\":5279:5290  gameHistory */\n      0x01\n        /* \"Practical2-RockPaperScissors-Jason.sol\":5291:5309  gameHistory.length */\n      dup1\n      sload\n        /* \"Practical2-RockPaperScissors-Jason.sol\":5291:5313  gameHistory.length - 1 */\n      tag_184\n      swap1\n        /* \"Practical2-RockPaperScissors-Jason.sol\":5279:5290  gameHistory */\n      dup3\n      swap1\n        /* \"Practical2-RockPaperScissors-Jason.sol\":5291:5313  gameHistory.length - 1 */\n      tag_70\n      jump\t// in\n    tag_184:\n        /* \"Practical2-RockPaperScissors-Jason.sol\":5279:5314  gameHistory[gameHistory.length - 1] */\n      dup2\n      sload\n      dup2\n      lt\n      tag_186\n      jumpi\n      tag_186\n      tag_58\n      jump\t// in\n    tag_186:\n      swap1\n      0x00\n      mstore\n      keccak256(0x00, 0x20)\n      swap1\n      0x05\n      mul\n      add\n        /* \"Practical2-RockPaperScissors-Jason.sol\":5279:5320  gameHistory[gameHistory.length - 1].user1 */\n      0x00\n      add\n        /* \"Practical2-RockPaperScissors-Jason.sol\":5279:5331  gameHistory[gameHistory.length - 1].user1.userOption */\n      0x01\n      add\n      sload\n        /* \"Practical2-RockPaperScissors-Jason.sol\":5335:5336  2 */\n      0x02\n        /* \"Practical2-RockPaperScissors-Jason.sol\":5279:5336  gameHistory[gameHistory.length - 1].user1.userOption == 2 */\n      eq\n        /* \"Practical2-RockPaperScissors-Jason.sol\":5279:5397  gameHistory[gameHistory.length - 1].user1.userOption == 2 && gameHistory[gameHistory.length - 1].user2.userOption == 3 */\n      dup1\n      iszero\n      tag_188\n      jumpi\n      pop\n        /* \"Practical2-RockPaperScissors-Jason.sol\":5340:5351  gameHistory */\n      0x01\n        /* \"Practical2-RockPaperScissors-Jason.sol\":5352:5370  gameHistory.length */\n      dup1\n      sload\n        /* \"Practical2-RockPaperScissors-Jason.sol\":5352:5374  gameHistory.length - 1 */\n      tag_189\n      swap1\n        /* \"Practical2-RockPaperScissors-Jason.sol\":5340:5351  gameHistory */\n      dup3\n      swap1\n        /* \"Practical2-RockPaperScissors-Jason.sol\":5352:5374  gameHistory.length - 1 */\n      tag_70\n      jump\t// in\n    tag_189:\n        /* \"Practical2-RockPaperScissors-Jason.sol\":5340:5375  gameHistory[gameHistory.length - 1] */\n      dup2\n      sload\n      dup2\n      lt\n      tag_191\n      jumpi\n      tag_191\n      tag_58\n      jump\t// in\n    tag_191:\n      swap1\n      0x00\n      mstore\n      keccak256(0x00, 0x20)\n      swap1\n      0x05\n      mul\n      add\n        /* \"Practical2-RockPaperScissors-Jason.sol\":5340:5381  gameHistory[gameHistory.length - 1].user2 */\n      0x02\n      add\n        /* \"Practical2-RockPaperScissors-Jason.sol\":5340:5392  gameHistory[gameHistory.length - 1].user2.userOption */\n      0x01\n      add\n      sload\n        /* \"Practical2-RockPaperScissors-Jason.sol\":5396:5397  3 */\n      0x03\n        /* \"Practical2-RockPaperScissors-Jason.sol\":5340:5397  gameHistory[gameHistory.length - 1].user2.userOption == 3 */\n      eq\n        /* \"Practical2-RockPaperScissors-Jason.sol\":5279:5397  gameHistory[gameHistory.length - 1].user1.userOption == 2 && gameHistory[gameHistory.length - 1].user2.userOption == 3 */\n    tag_188:\n        /* \"Practical2-RockPaperScissors-Jason.sol\":4977:5699  if (... */\n      iszero\n      tag_193\n      jumpi\n        /* \"Practical2-RockPaperScissors-Jason.sol\":5431:5492  gameHistory[gameHistory.length - 1].finalResult = \"User2 win\" */\n      0x40\n      dup1\n      mload\n      dup1\n      dup3\n      add\n      swap1\n      swap2\n      mstore\n      0x09\n      dup2\n      mstore\n      shl(0xb9, 0x2ab9b2b919103bb4b7)\n      0x20\n      dup3\n      add\n      mstore\n        /* \"Practical2-RockPaperScissors-Jason.sol\":5431:5442  gameHistory */\n      0x01\n        /* \"Practical2-RockPaperScissors-Jason.sol\":5443:5461  gameHistory.length */\n      dup1\n      sload\n        /* \"Practical2-RockPaperScissors-Jason.sol\":5443:5465  gameHistory.length - 1 */\n      tag_194\n      swap1\n        /* \"Practical2-RockPaperScissors-Jason.sol\":5431:5442  gameHistory */\n      dup3\n      swap1\n        /* \"Practical2-RockPaperScissors-Jason.sol\":5443:5465  gameHistory.length - 1 */\n      tag_70\n      jump\t// in\n    tag_194:\n        /* \"Practical2-RockPaperScissors-Jason.sol\":5431:5466  gameHistory[gameHistory.length - 1] */\n      dup2\n      sload\n      dup2\n      lt\n      tag_196\n      jumpi\n      tag_196\n      tag_58\n      jump\t// in\n    tag_196:\n      swap1\n      0x00\n      mstore\n      keccak256(0x00, 0x20)\n      swap1\n      0x05\n      mul\n      add\n        /* \"Practical2-RockPaperScissors-Jason.sol\":5431:5478  gameHistory[gameHistory.length - 1].finalResult */\n      0x04\n      add\n        /* \"Practical2-RockPaperScissors-Jason.sol\":5431:5492  gameHistory[gameHistory.length - 1].finalResult = \"User2 win\" */\n      swap1\n      dup2\n      tag_198\n      swap2\n      swap1\n      tag_138\n      jump\t// in\n    tag_198:\n      pop\n        /* \"Practical2-RockPaperScissors-Jason.sol\":5515:5538  showResult(\"User2 win\") */\n      0xcde5c32c0a45fd8aa4b65ea8003fc9da9acd5e2c6c24a9fcce6ab79cabbd9122\n      mload(0x40)\n      tag_161\n      swap1\n        /* \"#utility.yul\":10022:10024   */\n      0x20\n        /* \"#utility.yul\":10004:10025   */\n      dup1\n      dup3\n      mstore\n        /* \"#utility.yul\":10061:10062   */\n      0x09\n        /* \"#utility.yul\":10041:10059   */\n      swap1\n      dup3\n      add\n        /* \"#utility.yul\":10034:10063   */\n      mstore\n      shl(0xb9, 0x2ab9b2b919103bb4b7)\n        /* \"#utility.yul\":10094:10096   */\n      0x40\n        /* \"#utility.yul\":10079:10097   */\n      dup3\n      add\n        /* \"#utility.yul\":10072:10111   */\n      mstore\n        /* \"#utility.yul\":10143:10145   */\n      0x60\n        /* \"#utility.yul\":10128:10146   */\n      add\n      swap1\n        /* \"#utility.yul\":9820:10152   */\n      jump\n        /* \"Practical2-RockPaperScissors-Jason.sol\":4977:5699  if (... */\n    tag_193:\n        /* \"Practical2-RockPaperScissors-Jason.sol\":5577:5638  gameHistory[gameHistory.length - 1].finalResult = \"User1 win\" */\n      0x40\n      dup1\n      mload\n      dup1\n      dup3\n      add\n      swap1\n      swap2\n      mstore\n      0x09\n      dup2\n      mstore\n      shl(0xb9, 0x2ab9b2b918903bb4b7)\n      0x20\n      dup3\n      add\n      mstore\n        /* \"Practical2-RockPaperScissors-Jason.sol\":5577:5588  gameHistory */\n      0x01\n        /* \"Practical2-RockPaperScissors-Jason.sol\":5589:5607  gameHistory.length */\n      dup1\n      sload\n        /* \"Practical2-RockPaperScissors-Jason.sol\":5589:5611  gameHistory.length - 1 */\n      tag_202\n      swap1\n        /* \"Practical2-RockPaperScissors-Jason.sol\":5577:5588  gameHistory */\n      dup3\n      swap1\n        /* \"Practical2-RockPaperScissors-Jason.sol\":5589:5611  gameHistory.length - 1 */\n      tag_70\n      jump\t// in\n    tag_202:\n        /* \"Practical2-RockPaperScissors-Jason.sol\":5577:5612  gameHistory[gameHistory.length - 1] */\n      dup2\n      sload\n      dup2\n      lt\n      tag_204\n      jumpi\n      tag_204\n      tag_58\n      jump\t// in\n    tag_204:\n      swap1\n      0x00\n      mstore\n      keccak256(0x00, 0x20)\n      swap1\n      0x05\n      mul\n      add\n        /* \"Practical2-RockPaperScissors-Jason.sol\":5577:5624  gameHistory[gameHistory.length - 1].finalResult */\n      0x04\n      add\n        /* \"Practical2-RockPaperScissors-Jason.sol\":5577:5638  gameHistory[gameHistory.length - 1].finalResult = \"User1 win\" */\n      swap1\n      dup2\n      tag_206\n      swap2\n      swap1\n      tag_138\n      jump\t// in\n    tag_206:\n      pop\n        /* \"Practical2-RockPaperScissors-Jason.sol\":5661:5684  showResult(\"User1 win\") */\n      0xcde5c32c0a45fd8aa4b65ea8003fc9da9acd5e2c6c24a9fcce6ab79cabbd9122\n      mload(0x40)\n      tag_161\n      swap1\n        /* \"#utility.yul\":10359:10361   */\n      0x20\n        /* \"#utility.yul\":10341:10362   */\n      dup1\n      dup3\n      mstore\n        /* \"#utility.yul\":10398:10399   */\n      0x09\n        /* \"#utility.yul\":10378:10396   */\n      swap1\n      dup3\n      add\n        /* \"#utility.yul\":10371:10400   */\n      mstore\n      shl(0xb9, 0x2ab9b2b918903bb4b7)\n        /* \"#utility.yul\":10431:10433   */\n      0x40\n        /* \"#utility.yul\":10416:10434   */\n      dup3\n      add\n        /* \"#utility.yul\":10409:10448   */\n      mstore\n        /* \"#utility.yul\":10480:10482   */\n      0x60\n        /* \"#utility.yul\":10465:10483   */\n      add\n      swap1\n        /* \"#utility.yul\":10157:10489   */\n      jump\n        /* \"Practical2-RockPaperScissors-Jason.sol\":4977:5699  if (... */\n    tag_201:\n        /* \"Practical2-RockPaperScissors-Jason.sol\":4278:5715  {... */\n      pop\n        /* \"Practical2-RockPaperScissors-Jason.sol\":4205:5715  function game (UserInfo memory userOne, UserInfo memory userTwo) private {... */\n      pop\n      pop\n      jump\t// out\n    tag_86:\n      0x40\n      dup1\n      mload\n      0xa0\n      dup2\n      add\n      swap1\n      swap2\n      mstore\n      0x00\n      0x60\n      dup3\n      add\n      dup2\n      dup2\n      mstore\n      0x80\n      dup4\n      add\n      swap2\n      swap1\n      swap2\n      mstore\n      dup2\n      swap1\n      dup2\n      mstore\n      0x20\n      add\n      tag_210\n      0x40\n      dup1\n      mload\n      dup1\n      dup3\n      add\n      swap1\n      swap2\n      mstore\n      0x00\n      dup1\n      dup3\n      mstore\n      0x20\n      dup3\n      add\n      mstore\n      swap1\n      jump\n    tag_210:\n      dup2\n      mstore\n      0x20\n      add\n      0x60\n      dup2\n      mstore\n      pop\n      swap1\n      jump\t// out\n        /* \"#utility.yul\":14:194   */\n    tag_10:\n        /* \"#utility.yul\":73:79   */\n      0x00\n        /* \"#utility.yul\":126:128   */\n      0x20\n        /* \"#utility.yul\":114:123   */\n      dup3\n        /* \"#utility.yul\":105:112   */\n      dup5\n        /* \"#utility.yul\":101:124   */\n      sub\n        /* \"#utility.yul\":97:129   */\n      slt\n        /* \"#utility.yul\":94:146   */\n      iszero\n      tag_220\n      jumpi\n        /* \"#utility.yul\":142:143   */\n      0x00\n        /* \"#utility.yul\":139:140   */\n      dup1\n        /* \"#utility.yul\":132:144   */\n      revert\n        /* \"#utility.yul\":94:146   */\n    tag_220:\n      pop\n        /* \"#utility.yul\":165:188   */\n      calldataload\n      swap2\n        /* \"#utility.yul\":14:194   */\n      swap1\n      pop\n      jump\t// out\n        /* \"#utility.yul\":658:1372   */\n    tag_212:\n        /* \"#utility.yul\":727:772   */\n      tag_224\n        /* \"#utility.yul\":768:771   */\n      dup3\n        /* \"#utility.yul\":760:765   */\n      dup3\n        /* \"#utility.yul\":754:766   */\n      mload\n        /* \"#utility.yul\":556:568   */\n      dup1\n      mload\n      sub(shl(0xa0, 0x01), 0x01)\n        /* \"#utility.yul\":552:590   */\n      and\n        /* \"#utility.yul\":540:591   */\n      dup3\n      mstore\n        /* \"#utility.yul\":640:644   */\n      0x20\n        /* \"#utility.yul\":629:645   */\n      swap1\n      dup2\n      add\n        /* \"#utility.yul\":623:646   */\n      mload\n        /* \"#utility.yul\":607:621   */\n      swap2\n      add\n        /* \"#utility.yul\":600:647   */\n      mstore\n        /* \"#utility.yul\":478:653   */\n      jump\n        /* \"#utility.yul\":727:772   */\n    tag_224:\n        /* \"#utility.yul\":709:712   */\n      0x00\n        /* \"#utility.yul\":791:795   */\n      0x20\n        /* \"#utility.yul\":841:843   */\n      dup1\n        /* \"#utility.yul\":834:839   */\n      dup4\n        /* \"#utility.yul\":830:844   */\n      add\n        /* \"#utility.yul\":824:845   */\n      mload\n        /* \"#utility.yul\":854:910   */\n      tag_225\n        /* \"#utility.yul\":904:908   */\n      0x40\n        /* \"#utility.yul\":899:902   */\n      dup7\n        /* \"#utility.yul\":895:909   */\n      add\n        /* \"#utility.yul\":881:893   */\n      dup3\n        /* \"#utility.yul\":556:568   */\n      dup1\n      mload\n      sub(shl(0xa0, 0x01), 0x01)\n        /* \"#utility.yul\":552:590   */\n      and\n        /* \"#utility.yul\":540:591   */\n      dup3\n      mstore\n        /* \"#utility.yul\":640:644   */\n      0x20\n        /* \"#utility.yul\":629:645   */\n      swap1\n      dup2\n      add\n        /* \"#utility.yul\":623:646   */\n      mload\n        /* \"#utility.yul\":607:621   */\n      swap2\n      add\n        /* \"#utility.yul\":600:647   */\n      mstore\n        /* \"#utility.yul\":478:653   */\n      jump\n        /* \"#utility.yul\":854:910   */\n    tag_225:\n      pop\n        /* \"#utility.yul\":958:962   */\n      0x40\n        /* \"#utility.yul\":951:956   */\n      dup4\n        /* \"#utility.yul\":947:963   */\n      add\n        /* \"#utility.yul\":941:964   */\n      mload\n        /* \"#utility.yul\":996:1000   */\n      0xa0\n        /* \"#utility.yul\":989:993   */\n      0x80\n        /* \"#utility.yul\":984:987   */\n      dup7\n        /* \"#utility.yul\":980:994   */\n      add\n        /* \"#utility.yul\":973:1001   */\n      mstore\n        /* \"#utility.yul\":1030:1044   */\n      dup1\n        /* \"#utility.yul\":1024:1045   */\n      mload\n        /* \"#utility.yul\":1077:1083   */\n      dup1\n        /* \"#utility.yul\":1070:1074   */\n      0xa0\n        /* \"#utility.yul\":1065:1068   */\n      dup8\n        /* \"#utility.yul\":1061:1075   */\n      add\n        /* \"#utility.yul\":1054:1084   */\n      mstore\n        /* \"#utility.yul\":1102:1103   */\n      0x00\n        /* \"#utility.yul\":1112:1255   */\n    tag_226:\n        /* \"#utility.yul\":1126:1132   */\n      dup2\n        /* \"#utility.yul\":1123:1124   */\n      dup2\n        /* \"#utility.yul\":1120:1133   */\n      lt\n        /* \"#utility.yul\":1112:1255   */\n      iszero\n      tag_228\n      jumpi\n        /* \"#utility.yul\":1216:1238   */\n      dup3\n      dup2\n      add\n        /* \"#utility.yul\":1212:1243   */\n      dup5\n      add\n        /* \"#utility.yul\":1206:1244   */\n      mload\n        /* \"#utility.yul\":1187:1198   */\n      dup8\n      dup3\n      add\n        /* \"#utility.yul\":1200:1203   */\n      0xc0\n        /* \"#utility.yul\":1183:1204   */\n      add\n        /* \"#utility.yul\":1176:1245   */\n      mstore\n        /* \"#utility.yul\":1141:1151   */\n      dup4\n      add\n        /* \"#utility.yul\":1112:1255   */\n      jump(tag_226)\n    tag_228:\n        /* \"#utility.yul\":1116:1119   */\n      pop\n        /* \"#utility.yul\":1299:1300   */\n      0x00\n        /* \"#utility.yul\":1293:1296   */\n      0xc0\n        /* \"#utility.yul\":1284:1290   */\n      dup3\n        /* \"#utility.yul\":1279:1282   */\n      dup9\n        /* \"#utility.yul\":1275:1291   */\n      add\n        /* \"#utility.yul\":1271:1297   */\n      add\n        /* \"#utility.yul\":1264:1301   */\n      mstore\n        /* \"#utility.yul\":1362:1365   */\n      0xc0\n        /* \"#utility.yul\":1355:1357   */\n      0x1f\n        /* \"#utility.yul\":1351:1358   */\n      not\n        /* \"#utility.yul\":1346:1348   */\n      0x1f\n        /* \"#utility.yul\":1338:1344   */\n      dup4\n        /* \"#utility.yul\":1334:1349   */\n      add\n        /* \"#utility.yul\":1330:1359   */\n      and\n        /* \"#utility.yul\":1325:1328   */\n      dup8\n        /* \"#utility.yul\":1321:1360   */\n      add\n        /* \"#utility.yul\":1317:1366   */\n      add\n        /* \"#utility.yul\":1310:1366   */\n      swap4\n      pop\n      pop\n      pop\n      pop\n        /* \"#utility.yul\":658:1372   */\n      swap3\n      swap2\n      pop\n      pop\n      jump\t// out\n        /* \"#utility.yul\":1377:2217   */\n    tag_17:\n        /* \"#utility.yul\":1567:1571   */\n      0x00\n        /* \"#utility.yul\":1596:1598   */\n      0x20\n        /* \"#utility.yul\":1636:1638   */\n      dup1\n        /* \"#utility.yul\":1625:1634   */\n      dup4\n        /* \"#utility.yul\":1621:1639   */\n      add\n        /* \"#utility.yul\":1666:1668   */\n      dup2\n        /* \"#utility.yul\":1655:1664   */\n      dup5\n        /* \"#utility.yul\":1648:1669   */\n      mstore\n        /* \"#utility.yul\":1689:1695   */\n      dup1\n        /* \"#utility.yul\":1724:1730   */\n      dup6\n        /* \"#utility.yul\":1718:1731   */\n      mload\n        /* \"#utility.yul\":1755:1761   */\n      dup1\n        /* \"#utility.yul\":1747:1753   */\n      dup4\n        /* \"#utility.yul\":1740:1762   */\n      mstore\n        /* \"#utility.yul\":1793:1795   */\n      0x40\n        /* \"#utility.yul\":1782:1791   */\n      dup7\n        /* \"#utility.yul\":1778:1796   */\n      add\n        /* \"#utility.yul\":1771:1796   */\n      swap2\n      pop\n        /* \"#utility.yul\":1855:1857   */\n      0x40\n        /* \"#utility.yul\":1845:1851   */\n      dup2\n        /* \"#utility.yul\":1842:1843   */\n      0x05\n        /* \"#utility.yul\":1838:1852   */\n      shl\n        /* \"#utility.yul\":1827:1836   */\n      dup8\n        /* \"#utility.yul\":1823:1853   */\n      add\n        /* \"#utility.yul\":1819:1858   */\n      add\n        /* \"#utility.yul\":1805:1858   */\n      swap3\n      pop\n        /* \"#utility.yul\":1893:1895   */\n      dup4\n        /* \"#utility.yul\":1885:1891   */\n      dup8\n        /* \"#utility.yul\":1881:1896   */\n      add\n        /* \"#utility.yul\":1914:1915   */\n      0x00\n        /* \"#utility.yul\":1924:2188   */\n    tag_230:\n        /* \"#utility.yul\":1938:1944   */\n      dup3\n        /* \"#utility.yul\":1935:1936   */\n      dup2\n        /* \"#utility.yul\":1932:1945   */\n      lt\n        /* \"#utility.yul\":1924:2188   */\n      iszero\n      tag_232\n      jumpi\n        /* \"#utility.yul\":2031:2033   */\n      0x3f\n        /* \"#utility.yul\":2027:2034   */\n      not\n        /* \"#utility.yul\":2015:2024   */\n      dup9\n        /* \"#utility.yul\":2007:2013   */\n      dup7\n        /* \"#utility.yul\":2003:2025   */\n      sub\n        /* \"#utility.yul\":1999:2035   */\n      add\n        /* \"#utility.yul\":1994:1997   */\n      dup5\n        /* \"#utility.yul\":1987:2036   */\n      mstore\n        /* \"#utility.yul\":2059:2108   */\n      tag_233\n        /* \"#utility.yul\":2101:2107   */\n      dup6\n        /* \"#utility.yul\":2092:2098   */\n      dup4\n        /* \"#utility.yul\":2086:2099   */\n      mload\n        /* \"#utility.yul\":2059:2108   */\n      tag_212\n      jump\t// in\n    tag_233:\n        /* \"#utility.yul\":2049:2108   */\n      swap5\n      pop\n        /* \"#utility.yul\":2166:2178   */\n      swap3\n      dup6\n      add\n      swap3\n        /* \"#utility.yul\":2131:2146   */\n      swap1\n      dup6\n      add\n      swap1\n        /* \"#utility.yul\":1960:1961   */\n      0x01\n        /* \"#utility.yul\":1953:1962   */\n      add\n        /* \"#utility.yul\":1924:2188   */\n      jump(tag_230)\n    tag_232:\n      pop\n        /* \"#utility.yul\":2205:2211   */\n      swap3\n      swap8\n        /* \"#utility.yul\":1377:2217   */\n      swap7\n      pop\n      pop\n      pop\n      pop\n      pop\n      pop\n      pop\n      jump\t// out\n        /* \"#utility.yul\":2222:2941   */\n    tag_24:\n        /* \"#utility.yul\":2439:2441   */\n      0x20\n        /* \"#utility.yul\":2491:2512   */\n      dup1\n      dup3\n      mstore\n        /* \"#utility.yul\":2561:2574   */\n      dup3\n      mload\n        /* \"#utility.yul\":2464:2482   */\n      dup3\n      dup3\n      add\n        /* \"#utility.yul\":2583:2605   */\n      dup2\n      swap1\n      mstore\n        /* \"#utility.yul\":2410:2414   */\n      0x00\n      swap2\n        /* \"#utility.yul\":2439:2441   */\n      swap1\n        /* \"#utility.yul\":2624:2626   */\n      0x40\n      swap1\n        /* \"#utility.yul\":2642:2660   */\n      dup2\n      dup6\n      add\n      swap1\n        /* \"#utility.yul\":2683:2698   */\n      dup7\n      dup5\n      add\n        /* \"#utility.yul\":2410:2414   */\n      dup6\n        /* \"#utility.yul\":2726:2915   */\n    tag_235:\n        /* \"#utility.yul\":2740:2746   */\n      dup3\n        /* \"#utility.yul\":2737:2738   */\n      dup2\n        /* \"#utility.yul\":2734:2747   */\n      lt\n        /* \"#utility.yul\":2726:2915   */\n      iszero\n      tag_237\n      jumpi\n        /* \"#utility.yul\":2789:2835   */\n      tag_238\n        /* \"#utility.yul\":2831:2834   */\n      dup5\n        /* \"#utility.yul\":2822:2828   */\n      dup4\n        /* \"#utility.yul\":2816:2829   */\n      mload\n        /* \"#utility.yul\":556:568   */\n      dup1\n      mload\n      sub(shl(0xa0, 0x01), 0x01)\n        /* \"#utility.yul\":552:590   */\n      and\n        /* \"#utility.yul\":540:591   */\n      dup3\n      mstore\n        /* \"#utility.yul\":640:644   */\n      0x20\n        /* \"#utility.yul\":629:645   */\n      swap1\n      dup2\n      add\n        /* \"#utility.yul\":623:646   */\n      mload\n        /* \"#utility.yul\":607:621   */\n      swap2\n      add\n        /* \"#utility.yul\":600:647   */\n      mstore\n        /* \"#utility.yul\":478:653   */\n      jump\n        /* \"#utility.yul\":2789:2835   */\n    tag_238:\n        /* \"#utility.yul\":2855:2867   */\n      swap3\n      dup5\n      add\n      swap3\n        /* \"#utility.yul\":2890:2905   */\n      swap1\n      dup6\n      add\n      swap1\n        /* \"#utility.yul\":2762:2763   */\n      0x01\n        /* \"#utility.yul\":2755:2764   */\n      add\n        /* \"#utility.yul\":2726:2915   */\n      jump(tag_235)\n    tag_237:\n      pop\n        /* \"#utility.yul\":2932:2935   */\n      swap2\n      swap8\n        /* \"#utility.yul\":2222:2941   */\n      swap7\n      pop\n      pop\n      pop\n      pop\n      pop\n      pop\n      pop\n      jump\t// out\n        /* \"#utility.yul\":2946:3203   */\n    tag_29:\n        /* \"#utility.yul\":3123:3125   */\n      0x20\n        /* \"#utility.yul\":3112:3121   */\n      dup2\n        /* \"#utility.yul\":3105:3126   */\n      mstore\n        /* \"#utility.yul\":3086:3090   */\n      0x00\n        /* \"#utility.yul\":3143:3197   */\n      tag_240\n        /* \"#utility.yul\":3193:3195   */\n      0x20\n        /* \"#utility.yul\":3182:3191   */\n      dup4\n        /* \"#utility.yul\":3178:3196   */\n      add\n        /* \"#utility.yul\":3170:3176   */\n      dup5\n        /* \"#utility.yul\":3143:3197   */\n      tag_212\n      jump\t// in\n    tag_240:\n        /* \"#utility.yul\":3135:3197   */\n      swap4\n        /* \"#utility.yul\":2946:3203   */\n      swap3\n      pop\n      pop\n      pop\n      jump\t// out\n        /* \"#utility.yul\":3208:3588   */\n    tag_37:\n        /* \"#utility.yul\":3287:3288   */\n      0x01\n        /* \"#utility.yul\":3283:3295   */\n      dup2\n      dup2\n      shr\n      swap1\n        /* \"#utility.yul\":3330:3342   */\n      dup3\n      and\n      dup1\n        /* \"#utility.yul\":3351:3412   */\n      tag_242\n      jumpi\n        /* \"#utility.yul\":3405:3409   */\n      0x7f\n        /* \"#utility.yul\":3397:3403   */\n      dup3\n        /* \"#utility.yul\":3393:3410   */\n      and\n        /* \"#utility.yul\":3383:3410   */\n      swap2\n      pop\n        /* \"#utility.yul\":3351:3412   */\n    tag_242:\n        /* \"#utility.yul\":3458:3460   */\n      0x20\n        /* \"#utility.yul\":3450:3456   */\n      dup3\n        /* \"#utility.yul\":3447:3461   */\n      lt\n        /* \"#utility.yul\":3427:3445   */\n      dup2\n        /* \"#utility.yul\":3424:3462   */\n      sub\n        /* \"#utility.yul\":3421:3582   */\n      tag_243\n      jumpi\n        /* \"#utility.yul\":3504:3514   */\n      0x4e487b71\n        /* \"#utility.yul\":3499:3502   */\n      0xe0\n        /* \"#utility.yul\":3495:3515   */\n      shl\n        /* \"#utility.yul\":3492:3493   */\n      0x00\n        /* \"#utility.yul\":3485:3516   */\n      mstore\n        /* \"#utility.yul\":3539:3543   */\n      0x22\n        /* \"#utility.yul\":3536:3537   */\n      0x04\n        /* \"#utility.yul\":3529:3544   */\n      mstore\n        /* \"#utility.yul\":3567:3571   */\n      0x24\n        /* \"#utility.yul\":3564:3565   */\n      0x00\n        /* \"#utility.yul\":3557:3572   */\n      revert\n        /* \"#utility.yul\":3421:3582   */\n    tag_243:\n      pop\n        /* \"#utility.yul\":3208:3588   */\n      swap2\n      swap1\n      pop\n      jump\t// out\n        /* \"#utility.yul\":4651:4778   */\n    tag_58:\n        /* \"#utility.yul\":4712:4722   */\n      0x4e487b71\n        /* \"#utility.yul\":4707:4710   */\n      0xe0\n        /* \"#utility.yul\":4703:4723   */\n      shl\n        /* \"#utility.yul\":4700:4701   */\n      0x00\n        /* \"#utility.yul\":4693:4724   */\n      mstore\n        /* \"#utility.yul\":4743:4747   */\n      0x32\n        /* \"#utility.yul\":4740:4741   */\n      0x04\n        /* \"#utility.yul\":4733:4748   */\n      mstore\n        /* \"#utility.yul\":4767:4771   */\n      0x24\n        /* \"#utility.yul\":4764:4765   */\n      0x00\n        /* \"#utility.yul\":4757:4772   */\n      revert\n        /* \"#utility.yul\":5209:5336   */\n    tag_213:\n        /* \"#utility.yul\":5270:5280   */\n      0x4e487b71\n        /* \"#utility.yul\":5265:5268   */\n      0xe0\n        /* \"#utility.yul\":5261:5281   */\n      shl\n        /* \"#utility.yul\":5258:5259   */\n      0x00\n        /* \"#utility.yul\":5251:5282   */\n      mstore\n        /* \"#utility.yul\":5301:5305   */\n      0x11\n        /* \"#utility.yul\":5298:5299   */\n      0x04\n        /* \"#utility.yul\":5291:5306   */\n      mstore\n        /* \"#utility.yul\":5325:5329   */\n      0x24\n        /* \"#utility.yul\":5322:5323   */\n      0x00\n        /* \"#utility.yul\":5315:5330   */\n      revert\n        /* \"#utility.yul\":5341:5476   */\n    tag_65:\n        /* \"#utility.yul\":5380:5383   */\n      0x00\n        /* \"#utility.yul\":5401:5418   */\n      0x01\n      dup3\n      add\n        /* \"#utility.yul\":5398:5441   */\n      tag_252\n      jumpi\n        /* \"#utility.yul\":5421:5439   */\n      tag_252\n      tag_213\n      jump\t// in\n    tag_252:\n      pop\n        /* \"#utility.yul\":5468:5469   */\n      0x01\n        /* \"#utility.yul\":5457:5470   */\n      add\n      swap1\n        /* \"#utility.yul\":5341:5476   */\n      jump\t// out\n        /* \"#utility.yul\":5481:5609   */\n    tag_70:\n        /* \"#utility.yul\":5548:5557   */\n      dup2\n      dup2\n      sub\n        /* \"#utility.yul\":5569:5580   */\n      dup2\n      dup2\n      gt\n        /* \"#utility.yul\":5566:5603   */\n      iszero\n      tag_255\n      jumpi\n        /* \"#utility.yul\":5583:5601   */\n      tag_255\n      tag_213\n      jump\t// in\n    tag_255:\n        /* \"#utility.yul\":5481:5609   */\n      swap3\n      swap2\n      pop\n      pop\n      jump\t// out\n        /* \"#utility.yul\":6806:7015   */\n    tag_118:\n        /* \"#utility.yul\":6838:6839   */\n      0x00\n        /* \"#utility.yul\":6864:6865   */\n      dup3\n        /* \"#utility.yul\":6854:6986   */\n      tag_261\n      jumpi\n        /* \"#utility.yul\":6908:6918   */\n      0x4e487b71\n        /* \"#utility.yul\":6903:6906   */\n      0xe0\n        /* \"#utility.yul\":6899:6919   */\n      shl\n        /* \"#utility.yul\":6896:6897   */\n      0x00\n        /* \"#utility.yul\":6889:6920   */\n      mstore\n        /* \"#utility.yul\":6943:6947   */\n      0x12\n        /* \"#utility.yul\":6940:6941   */\n      0x04\n        /* \"#utility.yul\":6933:6948   */\n      mstore\n        /* \"#utility.yul\":6971:6975   */\n      0x24\n        /* \"#utility.yul\":6968:6969   */\n      0x00\n        /* \"#utility.yul\":6961:6976   */\n      revert\n        /* \"#utility.yul\":6854:6986   */\n    tag_261:\n      pop\n        /* \"#utility.yul\":7000:7009   */\n      mod\n      swap1\n        /* \"#utility.yul\":6806:7015   */\n      jump\t// out\n        /* \"#utility.yul\":7020:7147   */\n    tag_132:\n        /* \"#utility.yul\":7081:7091   */\n      0x4e487b71\n        /* \"#utility.yul\":7076:7079   */\n      0xe0\n        /* \"#utility.yul\":7072:7092   */\n      shl\n        /* \"#utility.yul\":7069:7070   */\n      0x00\n        /* \"#utility.yul\":7062:7093   */\n      mstore\n        /* \"#utility.yul\":7112:7116   */\n      0x31\n        /* \"#utility.yul\":7109:7110   */\n      0x04\n        /* \"#utility.yul\":7102:7117   */\n      mstore\n        /* \"#utility.yul\":7136:7140   */\n      0x24\n        /* \"#utility.yul\":7133:7134   */\n      0x00\n        /* \"#utility.yul\":7126:7141   */\n      revert\n        /* \"#utility.yul\":7152:7279   */\n    tag_214:\n        /* \"#utility.yul\":7213:7223   */\n      0x4e487b71\n        /* \"#utility.yul\":7208:7211   */\n      0xe0\n        /* \"#utility.yul\":7204:7224   */\n      shl\n        /* \"#utility.yul\":7201:7202   */\n      0x00\n        /* \"#utility.yul\":7194:7225   */\n      mstore\n        /* \"#utility.yul\":7244:7248   */\n      0x41\n        /* \"#utility.yul\":7241:7242   */\n      0x04\n        /* \"#utility.yul\":7234:7249   */\n      mstore\n        /* \"#utility.yul\":7268:7272   */\n      0x24\n        /* \"#utility.yul\":7265:7266   */\n      0x00\n        /* \"#utility.yul\":7258:7273   */\n      revert\n        /* \"#utility.yul\":7410:7955   */\n    tag_216:\n        /* \"#utility.yul\":7512:7514   */\n      0x1f\n        /* \"#utility.yul\":7507:7510   */\n      dup3\n        /* \"#utility.yul\":7504:7515   */\n      gt\n        /* \"#utility.yul\":7501:7949   */\n      iszero\n      tag_201\n      jumpi\n        /* \"#utility.yul\":7548:7549   */\n      0x00\n        /* \"#utility.yul\":7573:7578   */\n      dup2\n        /* \"#utility.yul\":7569:7571   */\n      dup2\n        /* \"#utility.yul\":7562:7579   */\n      mstore\n        /* \"#utility.yul\":7618:7622   */\n      0x20\n        /* \"#utility.yul\":7614:7616   */\n      dup2\n        /* \"#utility.yul\":7604:7623   */\n      keccak256\n        /* \"#utility.yul\":7688:7690   */\n      0x1f\n        /* \"#utility.yul\":7676:7686   */\n      dup6\n        /* \"#utility.yul\":7672:7691   */\n      add\n        /* \"#utility.yul\":7669:7670   */\n      0x05\n        /* \"#utility.yul\":7665:7692   */\n      shr\n        /* \"#utility.yul\":7659:7663   */\n      dup2\n        /* \"#utility.yul\":7655:7693   */\n      add\n        /* \"#utility.yul\":7724:7728   */\n      0x20\n        /* \"#utility.yul\":7712:7722   */\n      dup7\n        /* \"#utility.yul\":7709:7729   */\n      lt\n        /* \"#utility.yul\":7706:7753   */\n      iszero\n      tag_267\n      jumpi\n      pop\n        /* \"#utility.yul\":7747:7751   */\n      dup1\n        /* \"#utility.yul\":7706:7753   */\n    tag_267:\n        /* \"#utility.yul\":7802:7804   */\n      0x1f\n        /* \"#utility.yul\":7797:7800   */\n      dup6\n        /* \"#utility.yul\":7793:7805   */\n      add\n        /* \"#utility.yul\":7790:7791   */\n      0x05\n        /* \"#utility.yul\":7786:7806   */\n      shr\n        /* \"#utility.yul\":7780:7784   */\n      dup3\n        /* \"#utility.yul\":7776:7807   */\n      add\n        /* \"#utility.yul\":7766:7807   */\n      swap2\n      pop\n        /* \"#utility.yul\":7857:7939   */\n    tag_268:\n        /* \"#utility.yul\":7875:7877   */\n      dup2\n        /* \"#utility.yul\":7868:7873   */\n      dup2\n        /* \"#utility.yul\":7865:7878   */\n      lt\n        /* \"#utility.yul\":7857:7939   */\n      iszero\n      tag_270\n      jumpi\n        /* \"#utility.yul\":7920:7937   */\n      dup3\n      dup2\n      sstore\n        /* \"#utility.yul\":7901:7902   */\n      0x01\n        /* \"#utility.yul\":7890:7903   */\n      add\n        /* \"#utility.yul\":7857:7939   */\n      jump(tag_268)\n    tag_270:\n        /* \"#utility.yul\":7861:7864   */\n      pop\n      pop\n      pop\n        /* \"#utility.yul\":7410:7955   */\n      pop\n      pop\n      pop\n      jump\t// out\n        /* \"#utility.yul\":8131:9483   */\n    tag_138:\n        /* \"#utility.yul\":8257:8260   */\n      dup2\n        /* \"#utility.yul\":8251:8261   */\n      mload\n        /* \"#utility.yul\":8284:8302   */\n      0xffffffffffffffff\n        /* \"#utility.yul\":8276:8282   */\n      dup2\n        /* \"#utility.yul\":8273:8303   */\n      gt\n        /* \"#utility.yul\":8270:8326   */\n      iszero\n      tag_274\n      jumpi\n        /* \"#utility.yul\":8306:8324   */\n      tag_274\n      tag_214\n      jump\t// in\n    tag_274:\n        /* \"#utility.yul\":8335:8432   */\n      tag_275\n        /* \"#utility.yul\":8425:8431   */\n      dup2\n        /* \"#utility.yul\":8385:8423   */\n      tag_276\n        /* \"#utility.yul\":8417:8421   */\n      dup5\n        /* \"#utility.yul\":8411:8422   */\n      sload\n        /* \"#utility.yul\":8385:8423   */\n      tag_37\n      jump\t// in\n    tag_276:\n        /* \"#utility.yul\":8379:8383   */\n      dup5\n        /* \"#utility.yul\":8335:8432   */\n      tag_216\n      jump\t// in\n    tag_275:\n        /* \"#utility.yul\":8487:8491   */\n      0x20\n      dup1\n        /* \"#utility.yul\":8551:8553   */\n      0x1f\n        /* \"#utility.yul\":8540:8554   */\n      dup4\n      gt\n        /* \"#utility.yul\":8568:8569   */\n      0x01\n        /* \"#utility.yul\":8563:9226   */\n      dup2\n      eq\n      tag_278\n      jumpi\n        /* \"#utility.yul\":9270:9271   */\n      0x00\n        /* \"#utility.yul\":9287:9293   */\n      dup5\n        /* \"#utility.yul\":9284:9373   */\n      iszero\n      tag_279\n      jumpi\n      pop\n        /* \"#utility.yul\":9339:9358   */\n      dup6\n      dup4\n      add\n        /* \"#utility.yul\":9333:9359   */\n      mload\n        /* \"#utility.yul\":9284:9373   */\n    tag_279:\n      not(0x00)\n        /* \"#utility.yul\":8088:8089   */\n      0x03\n        /* \"#utility.yul\":8084:8095   */\n      dup7\n      swap1\n      shl\n        /* \"#utility.yul\":8080:8104   */\n      shr\n        /* \"#utility.yul\":8076:8105   */\n      not\n        /* \"#utility.yul\":8066:8106   */\n      and\n        /* \"#utility.yul\":8112:8113   */\n      0x01\n        /* \"#utility.yul\":8108:8119   */\n      dup6\n      swap1\n      shl\n        /* \"#utility.yul\":8063:8120   */\n      or\n        /* \"#utility.yul\":9386:9467   */\n      dup6\n      sstore\n        /* \"#utility.yul\":8533:9477   */\n      jump(tag_270)\n        /* \"#utility.yul\":8563:9226   */\n    tag_278:\n        /* \"#utility.yul\":7357:7358   */\n      0x00\n        /* \"#utility.yul\":7350:7364   */\n      dup6\n      dup2\n      mstore\n        /* \"#utility.yul\":7394:7398   */\n      0x20\n        /* \"#utility.yul\":7381:7399   */\n      dup2\n      keccak256\n      not(0x1f)\n        /* \"#utility.yul\":8599:8619   */\n      dup7\n      and\n      swap2\n        /* \"#utility.yul\":8717:8953   */\n    tag_282:\n        /* \"#utility.yul\":8731:8738   */\n      dup3\n        /* \"#utility.yul\":8728:8729   */\n      dup2\n        /* \"#utility.yul\":8725:8739   */\n      lt\n        /* \"#utility.yul\":8717:8953   */\n      iszero\n      tag_284\n      jumpi\n        /* \"#utility.yul\":8820:8839   */\n      dup9\n      dup7\n      add\n        /* \"#utility.yul\":8814:8840   */\n      mload\n        /* \"#utility.yul\":8799:8841   */\n      dup3\n      sstore\n        /* \"#utility.yul\":8912:8939   */\n      swap5\n      dup5\n      add\n      swap5\n        /* \"#utility.yul\":8880:8881   */\n      0x01\n        /* \"#utility.yul\":8868:8882   */\n      swap1\n      swap2\n      add\n      swap1\n        /* \"#utility.yul\":8747:8766   */\n      dup5\n      add\n        /* \"#utility.yul\":8717:8953   */\n      jump(tag_282)\n    tag_284:\n        /* \"#utility.yul\":8721:8724   */\n      pop\n        /* \"#utility.yul\":8981:8987   */\n      dup6\n        /* \"#utility.yul\":8972:8979   */\n      dup3\n        /* \"#utility.yul\":8969:8988   */\n      lt\n        /* \"#utility.yul\":8966:9167   */\n      iszero\n      tag_285\n      jumpi\n        /* \"#utility.yul\":9042:9061   */\n      dup8\n      dup6\n      add\n        /* \"#utility.yul\":9036:9062   */\n      mload\n      not(0x00)\n        /* \"#utility.yul\":9125:9126   */\n      0x03\n        /* \"#utility.yul\":9121:9135   */\n      dup9\n      swap1\n      shl\n        /* \"#utility.yul\":9137:9140   */\n      0xf8\n        /* \"#utility.yul\":9117:9141   */\n      and\n        /* \"#utility.yul\":9113:9150   */\n      shr\n        /* \"#utility.yul\":9109:9151   */\n      not\n        /* \"#utility.yul\":9094:9152   */\n      and\n        /* \"#utility.yul\":9079:9153   */\n      dup2\n      sstore\n        /* \"#utility.yul\":8966:9167   */\n    tag_285:\n      pop\n      pop\n      pop\n      pop\n      pop\n        /* \"#utility.yul\":9213:9214   */\n      0x01\n        /* \"#utility.yul\":9197:9211   */\n      swap1\n      dup2\n      shl\n        /* \"#utility.yul\":9193:9215   */\n      add\n        /* \"#utility.yul\":9180:9216   */\n      swap1\n      sstore\n      pop\n        /* \"#utility.yul\":8131:9483   */\n      jump\t// out\n\n    auxdata: 0xa26469706673582212207509a669f524e294ac634e5c7e55e01cb60dddc6a1ba7debeb2a0b2883eeadfb64736f6c63430008130033\n}\n",
				"bytecode": {
					"linkReferences": {},
					"object": "608060405260008055600160035534801561001957600080fd5b5061132f806100296000396000f3fe608060405234801561001057600080fd5b50600436106100575760003560e01c8063315553c41461005c578063512ec55714610093578063adf496b5146100a8578063e16c9d59146100bd578063f7c4efbb146100d2575b600080fd5b61006f61006a366004610f74565b6100f2565b604080516001600160a01b0390931683526020830191909152015b60405180910390f35b61009b61012a565b60405161008a9190611029565b6100bb6100b6366004610f74565b610263565b005b6100c5610586565b60405161008a919061108b565b6100e56100e0366004610f74565b6105f2565b60405161008a91906110eb565b6004818154811061010257600080fd5b6000918252602090912060029091020180546001909101546001600160a01b03909116915082565b60606001805480602002602001604051908101604052809291908181526020016000905b8282101561025a5760008481526020908190206040805160a0810182526005860290920180546001600160a01b0390811660608501908152600183015460808601528452825180840184526002830154909116815260038201548186015293830193909352600483018054929392918401916101c990611105565b80601f01602080910402602001604051908101604052809291908181526020018280546101f590611105565b80156102425780601f1061021757610100808354040283529160200191610242565b820191906000526020600020905b81548152906001019060200180831161022557829003601f168201915b5050505050815250508152602001906001019061014e565b50505050905090565b60025460ff16156102b35760405162461bcd60e51b8152602060048201526015602482015274115c9c9bdc8e881499595b9d1c985b9d0818d85b1b605a1b60448201526064015b60405180910390fd5b6002805460ff1916600117905560405133907f6fd5bea3ad79492c3055c6f6b7b37ca66d63ba4ceef7d04dd901559affbe971a90600090a2806000036103325760405162461bcd60e51b815260206004820152601460248201527304572726f723a2043616e277420696e70757420360641b60448201526064016102aa565b60038111156103835760405162461bcd60e51b815260206004820152601e60248201527f4572726f723a2043616e277420696e707574206d6f7265207468616e2033000060448201526064016102aa565b6000805b60045481101561044857600481815481106103a4576103a461113f565b60009182526020909120600290910201546001600160a01b031633036104365760405162461bcd60e51b815260206004820152603960248201527f4572726f723a20596f7520616c726561647920696e207468652071756575652c60448201527f207761697420666f72206f7468657220706c6179206a6f696e000000000000006064820152600192506084016102aa565b806104408161116b565b915050610387565b5060408051808201909152600080825260208201526004805460018082018355600083905283517f8a35acfbc15ff81a39ae7d344fd709f28e8600b4aa8c65c6b64bfe7fe36bd19b600290930292830180546001600160a01b0319166001600160a01b0390921691909117905560208401517f8a35acfbc15ff81a39ae7d344fd709f28e8600b4aa8c65c6b64bfe7fe36bd19c9092019190915581543392916104f091611184565b815481106105005761050061113f565b6000918252602090912060029091020180546001600160a01b0319166001600160a01b03929092169190911790556004805484919061054190600190611184565b815481106105515761055161113f565b600091825260209091206001600290920201015560045460060361057757610577610754565b50506002805460ff1916905550565b60606004805480602002602001604051908101604052809291908181526020016000905b8282101561025a576000848152602090819020604080518082019091526002850290910180546001600160a01b031682526001908101548284015290835290920191016105aa565b6105fa610f2a565b6001548211156106445760405162461bcd60e51b815260206004820152601560248201527408ae4e4dee4744092dcecc2d8d2c840d8cadccee8d605b1b60448201526064016102aa565b600182815481106106575761065761113f565b60009182526020918290206040805160a081018252600590930290910180546001600160a01b0390811660608501908152600183015460808601528452825180840184526002830154909116815260038201548186015293830193909352600483018054929392918401916106cb90611105565b80601f01602080910402602001604051908101604052809291908181526020018280546106f790611105565b80156107445780601f1061071957610100808354040283529160200191610744565b820191906000526020600020905b81548152906001019060200180831161072757829003601f168201915b5050505050815250509050919050565b600061075e6107ba565b9050600061076a6107ba565b90506107768282610973565b5050600454600003610754576004546040519081527f1f237084c29a99316238004a5870904571dbc9ff0d357b8b85cceacb5512a8509060200160405180910390a1565b604080518082019091526000808252602082015260045461080e5760405162461bcd60e51b815260206004820152600e60248201526d417272617920697320656d70747960901b60448201526064016102aa565b6004546003546040805144602082015242918101919091526060810191909152600091906080016040516020818303038152906040528051906020012060001c610858919061119d565b60038054919250600061086a8361116b565b91905055506000600482815481106108845761088461113f565b60009182526020918290206040805180820190915260029092020180546001600160a01b031682526001908101549282019290925260048054919350916108ca91611184565b815481106108da576108da61113f565b9060005260206000209060020201600483815481106108fb576108fb61113f565b60009182526020909120825460029092020180546001600160a01b0319166001600160a01b039092169190911781556001918201549101556004805480610944576109446111bf565b60008281526020812060026000199093019283020180546001600160a01b031916815560010155905592915050565b61097b610f2a565b600180548082018255600091909152815180517fb10e2d527612073b26eecdfd717e6a320cf44b4afac2b0732d9fcbe2b7fa0cf6600590930292830180546001600160a01b03199081166001600160a01b039384161782556020938401517fb10e2d527612073b26eecdfd717e6a320cf44b4afac2b0732d9fcbe2b7fa0cf78601558386015180517fb10e2d527612073b26eecdfd717e6a320cf44b4afac2b0732d9fcbe2b7fa0cf88701805490931694169390931790559101517fb10e2d527612073b26eecdfd717e6a320cf44b4afac2b0732d9fcbe2b7fa0cf9830155604083015183927fb10e2d527612073b26eecdfd717e6a320cf44b4afac2b0732d9fcbe2b7fa0cfa0190610a8e9082611239565b505060018054859250610aa2908290611184565b81548110610ab257610ab261113f565b600091825260209182902083516005929092020180546001600160a01b0319166001600160a01b039092169190911781559101516001918201558054839190610afc908290611184565b81548110610b0c57610b0c61113f565b60009182526020918290208351600592909202016002810180546001600160a01b0319166001600160a01b039093169290921790915591015160039091015560018054610b5a908290611184565b81548110610b6a57610b6a61113f565b600091825260209091206003600590920201015460018054610b8d908290611184565b81548110610b9d57610b9d61113f565b90600052602060002090600502016000016001015403610c6257604080518082019091526004815263151a595960e21b602082015260018054610be1908290611184565b81548110610bf157610bf161113f565b90600052602060002090600502016004019081610c0e9190611239565b507fcde5c32c0a45fd8aa4b65ea8003fc9da9acd5e2c6c24a9fcce6ab79cabbd9122604051610c5590602080825260049082015263151a595960e21b604082015260600190565b60405180910390a1505050565b60018054610c71908290611184565b81548110610c8157610c8161113f565b9060005260206000209060050201600001600101546001148015610cd8575060018054610caf908290611184565b81548110610cbf57610cbf61113f565b9060005260206000209060050201600201600101546002145b80610d54575060018054610ced908290611184565b81548110610cfd57610cfd61113f565b9060005260206000209060050201600001600101546003148015610d54575060018054610d2b908290611184565b81548110610d3b57610d3b61113f565b9060005260206000209060050201600201600101546001145b80610dd0575060018054610d69908290611184565b81548110610d7957610d7961113f565b9060005260206000209060050201600001600101546002148015610dd0575060018054610da7908290611184565b81548110610db757610db761113f565b9060005260206000209060050201600201600101546003145b15610e7d576040805180820190915260098152682ab9b2b919103bb4b760b91b602082015260018054610e04908290611184565b81548110610e1457610e1461113f565b90600052602060002090600502016004019081610e319190611239565b507fcde5c32c0a45fd8aa4b65ea8003fc9da9acd5e2c6c24a9fcce6ab79cabbd9122604051610c55906020808252600990820152682ab9b2b919103bb4b760b91b604082015260600190565b6040805180820190915260098152682ab9b2b918903bb4b760b91b602082015260018054610eac908290611184565b81548110610ebc57610ebc61113f565b90600052602060002090600502016004019081610ed99190611239565b507fcde5c32c0a45fd8aa4b65ea8003fc9da9acd5e2c6c24a9fcce6ab79cabbd9122604051610c55906020808252600990820152682ab9b2b918903bb4b760b91b604082015260600190565b505050565b6040805160a08101909152600060608201818152608083019190915281908152602001610f67604080518082019091526000808252602082015290565b8152602001606081525090565b600060208284031215610f8657600080fd5b5035919050565b610fab82825180516001600160a01b03168252602090810151910152565b6000602080830151610fd3604086018280516001600160a01b03168252602090810151910152565b50604083015160a0608086015280518060a087015260005b818110156110075782810184015187820160c001528301610feb565b50600060c0828801015260c0601f19601f830116870101935050505092915050565b6000602080830181845280855180835260408601915060408160051b870101925083870160005b8281101561107e57603f1988860301845261106c858351610f8d565b94509285019290850190600101611050565b5092979650505050505050565b602080825282518282018190526000919060409081850190868401855b828110156110de576110ce84835180516001600160a01b03168252602090810151910152565b92840192908501906001016110a8565b5091979650505050505050565b6020815260006110fe6020830184610f8d565b9392505050565b600181811c9082168061111957607f821691505b60208210810361113957634e487b7160e01b600052602260045260246000fd5b50919050565b634e487b7160e01b600052603260045260246000fd5b634e487b7160e01b600052601160045260246000fd5b60006001820161117d5761117d611155565b5060010190565b8181038181111561119757611197611155565b92915050565b6000826111ba57634e487b7160e01b600052601260045260246000fd5b500690565b634e487b7160e01b600052603160045260246000fd5b634e487b7160e01b600052604160045260246000fd5b601f821115610f2557600081815260208120601f850160051c810160208610156112125750805b601f850160051c820191505b818110156112315782815560010161121e565b505050505050565b815167ffffffffffffffff811115611253576112536111d5565b611267816112618454611105565b846111eb565b602080601f83116001811461129c57600084156112845750858301515b600019600386901b1c1916600185901b178555611231565b600085815260208120601f198616915b828110156112cb578886015182559484019460019091019084016112ac565b50858210156112e95787850151600019600388901b60f8161c191681555b5050505050600190811b0190555056fea26469706673582212207509a669f524e294ac634e5c7e55e01cb60dddc6a1ba7debeb2a0b2883eeadfb64736f6c63430008130033",
					"opcodes": "PUSH1 0x80 PUSH1 0x40 MSTORE PUSH1 0x0 DUP1 SSTORE PUSH1 0x1 PUSH1 0x3 SSTORE CALLVALUE DUP1 ISZERO PUSH2 0x19 JUMPI PUSH1 0x0 DUP1 REVERT JUMPDEST POP PUSH2 0x132F DUP1 PUSH2 0x29 PUSH1 0x0 CODECOPY PUSH1 0x0 RETURN INVALID PUSH1 0x80 PUSH1 0x40 MSTORE CALLVALUE DUP1 ISZERO PUSH2 0x10 JUMPI PUSH1 0x0 DUP1 REVERT JUMPDEST POP PUSH1 0x4 CALLDATASIZE LT PUSH2 0x57 JUMPI PUSH1 0x0 CALLDATALOAD PUSH1 0xE0 SHR DUP1 PUSH4 0x315553C4 EQ PUSH2 0x5C JUMPI DUP1 PUSH4 0x512EC557 EQ PUSH2 0x93 JUMPI DUP1 PUSH4 0xADF496B5 EQ PUSH2 0xA8 JUMPI DUP1 PUSH4 0xE16C9D59 EQ PUSH2 0xBD JUMPI DUP1 PUSH4 0xF7C4EFBB EQ PUSH2 0xD2 JUMPI JUMPDEST PUSH1 0x0 DUP1 REVERT JUMPDEST PUSH2 0x6F PUSH2 0x6A CALLDATASIZE PUSH1 0x4 PUSH2 0xF74 JUMP JUMPDEST PUSH2 0xF2 JUMP JUMPDEST PUSH1 0x40 DUP1 MLOAD PUSH1 0x1 PUSH1 0x1 PUSH1 0xA0 SHL SUB SWAP1 SWAP4 AND DUP4 MSTORE PUSH1 0x20 DUP4 ADD SWAP2 SWAP1 SWAP2 MSTORE ADD JUMPDEST PUSH1 0x40 MLOAD DUP1 SWAP2 SUB SWAP1 RETURN JUMPDEST PUSH2 0x9B PUSH2 0x12A JUMP JUMPDEST PUSH1 0x40 MLOAD PUSH2 0x8A SWAP2 SWAP1 PUSH2 0x1029 JUMP JUMPDEST PUSH2 0xBB PUSH2 0xB6 CALLDATASIZE PUSH1 0x4 PUSH2 0xF74 JUMP JUMPDEST PUSH2 0x263 JUMP JUMPDEST STOP JUMPDEST PUSH2 0xC5 PUSH2 0x586 JUMP JUMPDEST PUSH1 0x40 MLOAD PUSH2 0x8A SWAP2 SWAP1 PUSH2 0x108B JUMP JUMPDEST PUSH2 0xE5 PUSH2 0xE0 CALLDATASIZE PUSH1 0x4 PUSH2 0xF74 JUMP JUMPDEST PUSH2 0x5F2 JUMP JUMPDEST PUSH1 0x40 MLOAD PUSH2 0x8A SWAP2 SWAP1 PUSH2 0x10EB JUMP JUMPDEST PUSH1 0x4 DUP2 DUP2 SLOAD DUP2 LT PUSH2 0x102 JUMPI PUSH1 0x0 DUP1 REVERT JUMPDEST PUSH1 0x0 SWAP2 DUP3 MSTORE PUSH1 0x20 SWAP1 SWAP2 KECCAK256 PUSH1 0x2 SWAP1 SWAP2 MUL ADD DUP1 SLOAD PUSH1 0x1 SWAP1 SWAP2 ADD SLOAD PUSH1 0x1 PUSH1 0x1 PUSH1 0xA0 SHL SUB SWAP1 SWAP2 AND SWAP2 POP DUP3 JUMP JUMPDEST PUSH1 0x60 PUSH1 0x1 DUP1 SLOAD DUP1 PUSH1 0x20 MUL PUSH1 0x20 ADD PUSH1 0x40 MLOAD SWAP1 DUP2 ADD PUSH1 0x40 MSTORE DUP1 SWAP3 SWAP2 SWAP1 DUP2 DUP2 MSTORE PUSH1 0x20 ADD PUSH1 0x0 SWAP1 JUMPDEST DUP3 DUP3 LT ISZERO PUSH2 0x25A JUMPI PUSH1 0x0 DUP5 DUP2 MSTORE PUSH1 0x20 SWAP1 DUP2 SWAP1 KECCAK256 PUSH1 0x40 DUP1 MLOAD PUSH1 0xA0 DUP2 ADD DUP3 MSTORE PUSH1 0x5 DUP7 MUL SWAP1 SWAP3 ADD DUP1 SLOAD PUSH1 0x1 PUSH1 0x1 PUSH1 0xA0 SHL SUB SWAP1 DUP2 AND PUSH1 0x60 DUP6 ADD SWAP1 DUP2 MSTORE PUSH1 0x1 DUP4 ADD SLOAD PUSH1 0x80 DUP7 ADD MSTORE DUP5 MSTORE DUP3 MLOAD DUP1 DUP5 ADD DUP5 MSTORE PUSH1 0x2 DUP4 ADD SLOAD SWAP1 SWAP2 AND DUP2 MSTORE PUSH1 0x3 DUP3 ADD SLOAD DUP2 DUP7 ADD MSTORE SWAP4 DUP4 ADD SWAP4 SWAP1 SWAP4 MSTORE PUSH1 0x4 DUP4 ADD DUP1 SLOAD SWAP3 SWAP4 SWAP3 SWAP2 DUP5 ADD SWAP2 PUSH2 0x1C9 SWAP1 PUSH2 0x1105 JUMP JUMPDEST DUP1 PUSH1 0x1F ADD PUSH1 0x20 DUP1 SWAP2 DIV MUL PUSH1 0x20 ADD PUSH1 0x40 MLOAD SWAP1 DUP2 ADD PUSH1 0x40 MSTORE DUP1 SWAP3 SWAP2 SWAP1 DUP2 DUP2 MSTORE PUSH1 0x20 ADD DUP3 DUP1 SLOAD PUSH2 0x1F5 SWAP1 PUSH2 0x1105 JUMP JUMPDEST DUP1 ISZERO PUSH2 0x242 JUMPI DUP1 PUSH1 0x1F LT PUSH2 0x217 JUMPI PUSH2 0x100 DUP1 DUP4 SLOAD DIV MUL DUP4 MSTORE SWAP2 PUSH1 0x20 ADD SWAP2 PUSH2 0x242 JUMP JUMPDEST DUP3 ADD SWAP2 SWAP1 PUSH1 0x0 MSTORE PUSH1 0x20 PUSH1 0x0 KECCAK256 SWAP1 JUMPDEST DUP2 SLOAD DUP2 MSTORE SWAP1 PUSH1 0x1 ADD SWAP1 PUSH1 0x20 ADD DUP1 DUP4 GT PUSH2 0x225 JUMPI DUP3 SWAP1 SUB PUSH1 0x1F AND DUP3 ADD SWAP2 JUMPDEST POP POP POP POP POP DUP2 MSTORE POP POP DUP2 MSTORE PUSH1 0x20 ADD SWAP1 PUSH1 0x1 ADD SWAP1 PUSH2 0x14E JUMP JUMPDEST POP POP POP POP SWAP1 POP SWAP1 JUMP JUMPDEST PUSH1 0x2 SLOAD PUSH1 0xFF AND ISZERO PUSH2 0x2B3 JUMPI PUSH1 0x40 MLOAD PUSH3 0x461BCD PUSH1 0xE5 SHL DUP2 MSTORE PUSH1 0x20 PUSH1 0x4 DUP3 ADD MSTORE PUSH1 0x15 PUSH1 0x24 DUP3 ADD MSTORE PUSH21 0x115C9C9BDC8E881499595B9D1C985B9D0818D85B1B PUSH1 0x5A SHL PUSH1 0x44 DUP3 ADD MSTORE PUSH1 0x64 ADD JUMPDEST PUSH1 0x40 MLOAD DUP1 SWAP2 SUB SWAP1 REVERT JUMPDEST PUSH1 0x2 DUP1 SLOAD PUSH1 0xFF NOT AND PUSH1 0x1 OR SWAP1 SSTORE PUSH1 0x40 MLOAD CALLER SWAP1 PUSH32 0x6FD5BEA3AD79492C3055C6F6B7B37CA66D63BA4CEEF7D04DD901559AFFBE971A SWAP1 PUSH1 0x0 SWAP1 LOG2 DUP1 PUSH1 0x0 SUB PUSH2 0x332 JUMPI PUSH1 0x40 MLOAD PUSH3 0x461BCD PUSH1 0xE5 SHL DUP2 MSTORE PUSH1 0x20 PUSH1 0x4 DUP3 ADD MSTORE PUSH1 0x14 PUSH1 0x24 DUP3 ADD MSTORE PUSH20 0x4572726F723A2043616E277420696E707574203 PUSH1 0x64 SHL PUSH1 0x44 DUP3 ADD MSTORE PUSH1 0x64 ADD PUSH2 0x2AA JUMP JUMPDEST PUSH1 0x3 DUP2 GT ISZERO PUSH2 0x383 JUMPI PUSH1 0x40 MLOAD PUSH3 0x461BCD PUSH1 0xE5 SHL DUP2 MSTORE PUSH1 0x20 PUSH1 0x4 DUP3 ADD MSTORE PUSH1 0x1E PUSH1 0x24 DUP3 ADD MSTORE PUSH32 0x4572726F723A2043616E277420696E707574206D6F7265207468616E20330000 PUSH1 0x44 DUP3 ADD MSTORE PUSH1 0x64 ADD PUSH2 0x2AA JUMP JUMPDEST PUSH1 0x0 DUP1 JUMPDEST PUSH1 0x4 SLOAD DUP2 LT ISZERO PUSH2 0x448 JUMPI PUSH1 0x4 DUP2 DUP2 SLOAD DUP2 LT PUSH2 0x3A4 JUMPI PUSH2 0x3A4 PUSH2 0x113F JUMP JUMPDEST PUSH1 0x0 SWAP2 DUP3 MSTORE PUSH1 0x20 SWAP1 SWAP2 KECCAK256 PUSH1 0x2 SWAP1 SWAP2 MUL ADD SLOAD PUSH1 0x1 PUSH1 0x1 PUSH1 0xA0 SHL SUB AND CALLER SUB PUSH2 0x436 JUMPI PUSH1 0x40 MLOAD PUSH3 0x461BCD PUSH1 0xE5 SHL DUP2 MSTORE PUSH1 0x20 PUSH1 0x4 DUP3 ADD MSTORE PUSH1 0x39 PUSH1 0x24 DUP3 ADD MSTORE PUSH32 0x4572726F723A20596F7520616C726561647920696E207468652071756575652C PUSH1 0x44 DUP3 ADD MSTORE PUSH32 0x207761697420666F72206F7468657220706C6179206A6F696E00000000000000 PUSH1 0x64 DUP3 ADD MSTORE PUSH1 0x1 SWAP3 POP PUSH1 0x84 ADD PUSH2 0x2AA JUMP JUMPDEST DUP1 PUSH2 0x440 DUP2 PUSH2 0x116B JUMP JUMPDEST SWAP2 POP POP PUSH2 0x387 JUMP JUMPDEST POP PUSH1 0x40 DUP1 MLOAD DUP1 DUP3 ADD SWAP1 SWAP2 MSTORE PUSH1 0x0 DUP1 DUP3 MSTORE PUSH1 0x20 DUP3 ADD MSTORE PUSH1 0x4 DUP1 SLOAD PUSH1 0x1 DUP1 DUP3 ADD DUP4 SSTORE PUSH1 0x0 DUP4 SWAP1 MSTORE DUP4 MLOAD PUSH32 0x8A35ACFBC15FF81A39AE7D344FD709F28E8600B4AA8C65C6B64BFE7FE36BD19B PUSH1 0x2 SWAP1 SWAP4 MUL SWAP3 DUP4 ADD DUP1 SLOAD PUSH1 0x1 PUSH1 0x1 PUSH1 0xA0 SHL SUB NOT AND PUSH1 0x1 PUSH1 0x1 PUSH1 0xA0 SHL SUB SWAP1 SWAP3 AND SWAP2 SWAP1 SWAP2 OR SWAP1 SSTORE PUSH1 0x20 DUP5 ADD MLOAD PUSH32 0x8A35ACFBC15FF81A39AE7D344FD709F28E8600B4AA8C65C6B64BFE7FE36BD19C SWAP1 SWAP3 ADD SWAP2 SWAP1 SWAP2 SSTORE DUP2 SLOAD CALLER SWAP3 SWAP2 PUSH2 0x4F0 SWAP2 PUSH2 0x1184 JUMP JUMPDEST DUP2 SLOAD DUP2 LT PUSH2 0x500 JUMPI PUSH2 0x500 PUSH2 0x113F JUMP JUMPDEST PUSH1 0x0 SWAP2 DUP3 MSTORE PUSH1 0x20 SWAP1 SWAP2 KECCAK256 PUSH1 0x2 SWAP1 SWAP2 MUL ADD DUP1 SLOAD PUSH1 0x1 PUSH1 0x1 PUSH1 0xA0 SHL SUB NOT AND PUSH1 0x1 PUSH1 0x1 PUSH1 0xA0 SHL SUB SWAP3 SWAP1 SWAP3 AND SWAP2 SWAP1 SWAP2 OR SWAP1 SSTORE PUSH1 0x4 DUP1 SLOAD DUP5 SWAP2 SWAP1 PUSH2 0x541 SWAP1 PUSH1 0x1 SWAP1 PUSH2 0x1184 JUMP JUMPDEST DUP2 SLOAD DUP2 LT PUSH2 0x551 JUMPI PUSH2 0x551 PUSH2 0x113F JUMP JUMPDEST PUSH1 0x0 SWAP2 DUP3 MSTORE PUSH1 0x20 SWAP1 SWAP2 KECCAK256 PUSH1 0x1 PUSH1 0x2 SWAP1 SWAP3 MUL ADD ADD SSTORE PUSH1 0x4 SLOAD PUSH1 0x6 SUB PUSH2 0x577 JUMPI PUSH2 0x577 PUSH2 0x754 JUMP JUMPDEST POP POP PUSH1 0x2 DUP1 SLOAD PUSH1 0xFF NOT AND SWAP1 SSTORE POP JUMP JUMPDEST PUSH1 0x60 PUSH1 0x4 DUP1 SLOAD DUP1 PUSH1 0x20 MUL PUSH1 0x20 ADD PUSH1 0x40 MLOAD SWAP1 DUP2 ADD PUSH1 0x40 MSTORE DUP1 SWAP3 SWAP2 SWAP1 DUP2 DUP2 MSTORE PUSH1 0x20 ADD PUSH1 0x0 SWAP1 JUMPDEST DUP3 DUP3 LT ISZERO PUSH2 0x25A JUMPI PUSH1 0x0 DUP5 DUP2 MSTORE PUSH1 0x20 SWAP1 DUP2 SWAP1 KECCAK256 PUSH1 0x40 DUP1 MLOAD DUP1 DUP3 ADD SWAP1 SWAP2 MSTORE PUSH1 0x2 DUP6 MUL SWAP1 SWAP2 ADD DUP1 SLOAD PUSH1 0x1 PUSH1 0x1 PUSH1 0xA0 SHL SUB AND DUP3 MSTORE PUSH1 0x1 SWAP1 DUP2 ADD SLOAD DUP3 DUP5 ADD MSTORE SWAP1 DUP4 MSTORE SWAP1 SWAP3 ADD SWAP2 ADD PUSH2 0x5AA JUMP JUMPDEST PUSH2 0x5FA PUSH2 0xF2A JUMP JUMPDEST PUSH1 0x1 SLOAD DUP3 GT ISZERO PUSH2 0x644 JUMPI PUSH1 0x40 MLOAD PUSH3 0x461BCD PUSH1 0xE5 SHL DUP2 MSTORE PUSH1 0x20 PUSH1 0x4 DUP3 ADD MSTORE PUSH1 0x15 PUSH1 0x24 DUP3 ADD MSTORE PUSH21 0x8AE4E4DEE4744092DCECC2D8D2C840D8CADCCEE8D PUSH1 0x5B SHL PUSH1 0x44 DUP3 ADD MSTORE PUSH1 0x64 ADD PUSH2 0x2AA JUMP JUMPDEST PUSH1 0x1 DUP3 DUP2 SLOAD DUP2 LT PUSH2 0x657 JUMPI PUSH2 0x657 PUSH2 0x113F JUMP JUMPDEST PUSH1 0x0 SWAP2 DUP3 MSTORE PUSH1 0x20 SWAP2 DUP3 SWAP1 KECCAK256 PUSH1 0x40 DUP1 MLOAD PUSH1 0xA0 DUP2 ADD DUP3 MSTORE PUSH1 0x5 SWAP1 SWAP4 MUL SWAP1 SWAP2 ADD DUP1 SLOAD PUSH1 0x1 PUSH1 0x1 PUSH1 0xA0 SHL SUB SWAP1 DUP2 AND PUSH1 0x60 DUP6 ADD SWAP1 DUP2 MSTORE PUSH1 0x1 DUP4 ADD SLOAD PUSH1 0x80 DUP7 ADD MSTORE DUP5 MSTORE DUP3 MLOAD DUP1 DUP5 ADD DUP5 MSTORE PUSH1 0x2 DUP4 ADD SLOAD SWAP1 SWAP2 AND DUP2 MSTORE PUSH1 0x3 DUP3 ADD SLOAD DUP2 DUP7 ADD MSTORE SWAP4 DUP4 ADD SWAP4 SWAP1 SWAP4 MSTORE PUSH1 0x4 DUP4 ADD DUP1 SLOAD SWAP3 SWAP4 SWAP3 SWAP2 DUP5 ADD SWAP2 PUSH2 0x6CB SWAP1 PUSH2 0x1105 JUMP JUMPDEST DUP1 PUSH1 0x1F ADD PUSH1 0x20 DUP1 SWAP2 DIV MUL PUSH1 0x20 ADD PUSH1 0x40 MLOAD SWAP1 DUP2 ADD PUSH1 0x40 MSTORE DUP1 SWAP3 SWAP2 SWAP1 DUP2 DUP2 MSTORE PUSH1 0x20 ADD DUP3 DUP1 SLOAD PUSH2 0x6F7 SWAP1 PUSH2 0x1105 JUMP JUMPDEST DUP1 ISZERO PUSH2 0x744 JUMPI DUP1 PUSH1 0x1F LT PUSH2 0x719 JUMPI PUSH2 0x100 DUP1 DUP4 SLOAD DIV MUL DUP4 MSTORE SWAP2 PUSH1 0x20 ADD SWAP2 PUSH2 0x744 JUMP JUMPDEST DUP3 ADD SWAP2 SWAP1 PUSH1 0x0 MSTORE PUSH1 0x20 PUSH1 0x0 KECCAK256 SWAP1 JUMPDEST DUP2 SLOAD DUP2 MSTORE SWAP1 PUSH1 0x1 ADD SWAP1 PUSH1 0x20 ADD DUP1 DUP4 GT PUSH2 0x727 JUMPI DUP3 SWAP1 SUB PUSH1 0x1F AND DUP3 ADD SWAP2 JUMPDEST POP POP POP POP POP DUP2 MSTORE POP POP SWAP1 POP SWAP2 SWAP1 POP JUMP JUMPDEST PUSH1 0x0 PUSH2 0x75E PUSH2 0x7BA JUMP JUMPDEST SWAP1 POP PUSH1 0x0 PUSH2 0x76A PUSH2 0x7BA JUMP JUMPDEST SWAP1 POP PUSH2 0x776 DUP3 DUP3 PUSH2 0x973 JUMP JUMPDEST POP POP PUSH1 0x4 SLOAD PUSH1 0x0 SUB PUSH2 0x754 JUMPI PUSH1 0x4 SLOAD PUSH1 0x40 MLOAD SWAP1 DUP2 MSTORE PUSH32 0x1F237084C29A99316238004A5870904571DBC9FF0D357B8B85CCEACB5512A850 SWAP1 PUSH1 0x20 ADD PUSH1 0x40 MLOAD DUP1 SWAP2 SUB SWAP1 LOG1 JUMP JUMPDEST PUSH1 0x40 DUP1 MLOAD DUP1 DUP3 ADD SWAP1 SWAP2 MSTORE PUSH1 0x0 DUP1 DUP3 MSTORE PUSH1 0x20 DUP3 ADD MSTORE PUSH1 0x4 SLOAD PUSH2 0x80E JUMPI PUSH1 0x40 MLOAD PUSH3 0x461BCD PUSH1 0xE5 SHL DUP2 MSTORE PUSH1 0x20 PUSH1 0x4 DUP3 ADD MSTORE PUSH1 0xE PUSH1 0x24 DUP3 ADD MSTORE PUSH14 0x417272617920697320656D707479 PUSH1 0x90 SHL PUSH1 0x44 DUP3 ADD MSTORE PUSH1 0x64 ADD PUSH2 0x2AA JUMP JUMPDEST PUSH1 0x4 SLOAD PUSH1 0x3 SLOAD PUSH1 0x40 DUP1 MLOAD PREVRANDAO PUSH1 0x20 DUP3 ADD MSTORE TIMESTAMP SWAP2 DUP2 ADD SWAP2 SWAP1 SWAP2 MSTORE PUSH1 0x60 DUP2 ADD SWAP2 SWAP1 SWAP2 MSTORE PUSH1 0x0 SWAP2 SWAP1 PUSH1 0x80 ADD PUSH1 0x40 MLOAD PUSH1 0x20 DUP2 DUP4 SUB SUB DUP2 MSTORE SWAP1 PUSH1 0x40 MSTORE DUP1 MLOAD SWAP1 PUSH1 0x20 ADD KECCAK256 PUSH1 0x0 SHR PUSH2 0x858 SWAP2 SWAP1 PUSH2 0x119D JUMP JUMPDEST PUSH1 0x3 DUP1 SLOAD SWAP2 SWAP3 POP PUSH1 0x0 PUSH2 0x86A DUP4 PUSH2 0x116B JUMP JUMPDEST SWAP2 SWAP1 POP SSTORE POP PUSH1 0x0 PUSH1 0x4 DUP3 DUP2 SLOAD DUP2 LT PUSH2 0x884 JUMPI PUSH2 0x884 PUSH2 0x113F JUMP JUMPDEST PUSH1 0x0 SWAP2 DUP3 MSTORE PUSH1 0x20 SWAP2 DUP3 SWAP1 KECCAK256 PUSH1 0x40 DUP1 MLOAD DUP1 DUP3 ADD SWAP1 SWAP2 MSTORE PUSH1 0x2 SWAP1 SWAP3 MUL ADD DUP1 SLOAD PUSH1 0x1 PUSH1 0x1 PUSH1 0xA0 SHL SUB AND DUP3 MSTORE PUSH1 0x1 SWAP1 DUP2 ADD SLOAD SWAP3 DUP3 ADD SWAP3 SWAP1 SWAP3 MSTORE PUSH1 0x4 DUP1 SLOAD SWAP2 SWAP4 POP SWAP2 PUSH2 0x8CA SWAP2 PUSH2 0x1184 JUMP JUMPDEST DUP2 SLOAD DUP2 LT PUSH2 0x8DA JUMPI PUSH2 0x8DA PUSH2 0x113F JUMP JUMPDEST SWAP1 PUSH1 0x0 MSTORE PUSH1 0x20 PUSH1 0x0 KECCAK256 SWAP1 PUSH1 0x2 MUL ADD PUSH1 0x4 DUP4 DUP2 SLOAD DUP2 LT PUSH2 0x8FB JUMPI PUSH2 0x8FB PUSH2 0x113F JUMP JUMPDEST PUSH1 0x0 SWAP2 DUP3 MSTORE PUSH1 0x20 SWAP1 SWAP2 KECCAK256 DUP3 SLOAD PUSH1 0x2 SWAP1 SWAP3 MUL ADD DUP1 SLOAD PUSH1 0x1 PUSH1 0x1 PUSH1 0xA0 SHL SUB NOT AND PUSH1 0x1 PUSH1 0x1 PUSH1 0xA0 SHL SUB SWAP1 SWAP3 AND SWAP2 SWAP1 SWAP2 OR DUP2 SSTORE PUSH1 0x1 SWAP2 DUP3 ADD SLOAD SWAP2 ADD SSTORE PUSH1 0x4 DUP1 SLOAD DUP1 PUSH2 0x944 JUMPI PUSH2 0x944 PUSH2 0x11BF JUMP JUMPDEST PUSH1 0x0 DUP3 DUP2 MSTORE PUSH1 0x20 DUP2 KECCAK256 PUSH1 0x2 PUSH1 0x0 NOT SWAP1 SWAP4 ADD SWAP3 DUP4 MUL ADD DUP1 SLOAD PUSH1 0x1 PUSH1 0x1 PUSH1 0xA0 SHL SUB NOT AND DUP2 SSTORE PUSH1 0x1 ADD SSTORE SWAP1 SSTORE SWAP3 SWAP2 POP POP JUMP JUMPDEST PUSH2 0x97B PUSH2 0xF2A JUMP JUMPDEST PUSH1 0x1 DUP1 SLOAD DUP1 DUP3 ADD DUP3 SSTORE PUSH1 0x0 SWAP2 SWAP1 SWAP2 MSTORE DUP2 MLOAD DUP1 MLOAD PUSH32 0xB10E2D527612073B26EECDFD717E6A320CF44B4AFAC2B0732D9FCBE2B7FA0CF6 PUSH1 0x5 SWAP1 SWAP4 MUL SWAP3 DUP4 ADD DUP1 SLOAD PUSH1 0x1 PUSH1 0x1 PUSH1 0xA0 SHL SUB NOT SWAP1 DUP2 AND PUSH1 0x1 PUSH1 0x1 PUSH1 0xA0 SHL SUB SWAP4 DUP5 AND OR DUP3 SSTORE PUSH1 0x20 SWAP4 DUP5 ADD MLOAD PUSH32 0xB10E2D527612073B26EECDFD717E6A320CF44B4AFAC2B0732D9FCBE2B7FA0CF7 DUP7 ADD SSTORE DUP4 DUP7 ADD MLOAD DUP1 MLOAD PUSH32 0xB10E2D527612073B26EECDFD717E6A320CF44B4AFAC2B0732D9FCBE2B7FA0CF8 DUP8 ADD DUP1 SLOAD SWAP1 SWAP4 AND SWAP5 AND SWAP4 SWAP1 SWAP4 OR SWAP1 SSTORE SWAP2 ADD MLOAD PUSH32 0xB10E2D527612073B26EECDFD717E6A320CF44B4AFAC2B0732D9FCBE2B7FA0CF9 DUP4 ADD SSTORE PUSH1 0x40 DUP4 ADD MLOAD DUP4 SWAP3 PUSH32 0xB10E2D527612073B26EECDFD717E6A320CF44B4AFAC2B0732D9FCBE2B7FA0CFA ADD SWAP1 PUSH2 0xA8E SWAP1 DUP3 PUSH2 0x1239 JUMP JUMPDEST POP POP PUSH1 0x1 DUP1 SLOAD DUP6 SWAP3 POP PUSH2 0xAA2 SWAP1 DUP3 SWAP1 PUSH2 0x1184 JUMP JUMPDEST DUP2 SLOAD DUP2 LT PUSH2 0xAB2 JUMPI PUSH2 0xAB2 PUSH2 0x113F JUMP JUMPDEST PUSH1 0x0 SWAP2 DUP3 MSTORE PUSH1 0x20 SWAP2 DUP3 SWAP1 KECCAK256 DUP4 MLOAD PUSH1 0x5 SWAP3 SWAP1 SWAP3 MUL ADD DUP1 SLOAD PUSH1 0x1 PUSH1 0x1 PUSH1 0xA0 SHL SUB NOT AND PUSH1 0x1 PUSH1 0x1 PUSH1 0xA0 SHL SUB SWAP1 SWAP3 AND SWAP2 SWAP1 SWAP2 OR DUP2 SSTORE SWAP2 ADD MLOAD PUSH1 0x1 SWAP2 DUP3 ADD SSTORE DUP1 SLOAD DUP4 SWAP2 SWAP1 PUSH2 0xAFC SWAP1 DUP3 SWAP1 PUSH2 0x1184 JUMP JUMPDEST DUP2 SLOAD DUP2 LT PUSH2 0xB0C JUMPI PUSH2 0xB0C PUSH2 0x113F JUMP JUMPDEST PUSH1 0x0 SWAP2 DUP3 MSTORE PUSH1 0x20 SWAP2 DUP3 SWAP1 KECCAK256 DUP4 MLOAD PUSH1 0x5 SWAP3 SWAP1 SWAP3 MUL ADD PUSH1 0x2 DUP2 ADD DUP1 SLOAD PUSH1 0x1 PUSH1 0x1 PUSH1 0xA0 SHL SUB NOT AND PUSH1 0x1 PUSH1 0x1 PUSH1 0xA0 SHL SUB SWAP1 SWAP4 AND SWAP3 SWAP1 SWAP3 OR SWAP1 SWAP2 SSTORE SWAP2 ADD MLOAD PUSH1 0x3 SWAP1 SWAP2 ADD SSTORE PUSH1 0x1 DUP1 SLOAD PUSH2 0xB5A SWAP1 DUP3 SWAP1 PUSH2 0x1184 JUMP JUMPDEST DUP2 SLOAD DUP2 LT PUSH2 0xB6A JUMPI PUSH2 0xB6A PUSH2 0x113F JUMP JUMPDEST PUSH1 0x0 SWAP2 DUP3 MSTORE PUSH1 0x20 SWAP1 SWAP2 KECCAK256 PUSH1 0x3 PUSH1 0x5 SWAP1 SWAP3 MUL ADD ADD SLOAD PUSH1 0x1 DUP1 SLOAD PUSH2 0xB8D SWAP1 DUP3 SWAP1 PUSH2 0x1184 JUMP JUMPDEST DUP2 SLOAD DUP2 LT PUSH2 0xB9D JUMPI PUSH2 0xB9D PUSH2 0x113F JUMP JUMPDEST SWAP1 PUSH1 0x0 MSTORE PUSH1 0x20 PUSH1 0x0 KECCAK256 SWAP1 PUSH1 0x5 MUL ADD PUSH1 0x0 ADD PUSH1 0x1 ADD SLOAD SUB PUSH2 0xC62 JUMPI PUSH1 0x40 DUP1 MLOAD DUP1 DUP3 ADD SWAP1 SWAP2 MSTORE PUSH1 0x4 DUP2 MSTORE PUSH4 0x151A5959 PUSH1 0xE2 SHL PUSH1 0x20 DUP3 ADD MSTORE PUSH1 0x1 DUP1 SLOAD PUSH2 0xBE1 SWAP1 DUP3 SWAP1 PUSH2 0x1184 JUMP JUMPDEST DUP2 SLOAD DUP2 LT PUSH2 0xBF1 JUMPI PUSH2 0xBF1 PUSH2 0x113F JUMP JUMPDEST SWAP1 PUSH1 0x0 MSTORE PUSH1 0x20 PUSH1 0x0 KECCAK256 SWAP1 PUSH1 0x5 MUL ADD PUSH1 0x4 ADD SWAP1 DUP2 PUSH2 0xC0E SWAP2 SWAP1 PUSH2 0x1239 JUMP JUMPDEST POP PUSH32 0xCDE5C32C0A45FD8AA4B65EA8003FC9DA9ACD5E2C6C24A9FCCE6AB79CABBD9122 PUSH1 0x40 MLOAD PUSH2 0xC55 SWAP1 PUSH1 0x20 DUP1 DUP3 MSTORE PUSH1 0x4 SWAP1 DUP3 ADD MSTORE PUSH4 0x151A5959 PUSH1 0xE2 SHL PUSH1 0x40 DUP3 ADD MSTORE PUSH1 0x60 ADD SWAP1 JUMP JUMPDEST PUSH1 0x40 MLOAD DUP1 SWAP2 SUB SWAP1 LOG1 POP POP POP JUMP JUMPDEST PUSH1 0x1 DUP1 SLOAD PUSH2 0xC71 SWAP1 DUP3 SWAP1 PUSH2 0x1184 JUMP JUMPDEST DUP2 SLOAD DUP2 LT PUSH2 0xC81 JUMPI PUSH2 0xC81 PUSH2 0x113F JUMP JUMPDEST SWAP1 PUSH1 0x0 MSTORE PUSH1 0x20 PUSH1 0x0 KECCAK256 SWAP1 PUSH1 0x5 MUL ADD PUSH1 0x0 ADD PUSH1 0x1 ADD SLOAD PUSH1 0x1 EQ DUP1 ISZERO PUSH2 0xCD8 JUMPI POP PUSH1 0x1 DUP1 SLOAD PUSH2 0xCAF SWAP1 DUP3 SWAP1 PUSH2 0x1184 JUMP JUMPDEST DUP2 SLOAD DUP2 LT PUSH2 0xCBF JUMPI PUSH2 0xCBF PUSH2 0x113F JUMP JUMPDEST SWAP1 PUSH1 0x0 MSTORE PUSH1 0x20 PUSH1 0x0 KECCAK256 SWAP1 PUSH1 0x5 MUL ADD PUSH1 0x2 ADD PUSH1 0x1 ADD SLOAD PUSH1 0x2 EQ JUMPDEST DUP1 PUSH2 0xD54 JUMPI POP PUSH1 0x1 DUP1 SLOAD PUSH2 0xCED SWAP1 DUP3 SWAP1 PUSH2 0x1184 JUMP JUMPDEST DUP2 SLOAD DUP2 LT PUSH2 0xCFD JUMPI PUSH2 0xCFD PUSH2 0x113F JUMP JUMPDEST SWAP1 PUSH1 0x0 MSTORE PUSH1 0x20 PUSH1 0x0 KECCAK256 SWAP1 PUSH1 0x5 MUL ADD PUSH1 0x0 ADD PUSH1 0x1 ADD SLOAD PUSH1 0x3 EQ DUP1 ISZERO PUSH2 0xD54 JUMPI POP PUSH1 0x1 DUP1 SLOAD PUSH2 0xD2B SWAP1 DUP3 SWAP1 PUSH2 0x1184 JUMP JUMPDEST DUP2 SLOAD DUP2 LT PUSH2 0xD3B JUMPI PUSH2 0xD3B PUSH2 0x113F JUMP JUMPDEST SWAP1 PUSH1 0x0 MSTORE PUSH1 0x20 PUSH1 0x0 KECCAK256 SWAP1 PUSH1 0x5 MUL ADD PUSH1 0x2 ADD PUSH1 0x1 ADD SLOAD PUSH1 0x1 EQ JUMPDEST DUP1 PUSH2 0xDD0 JUMPI POP PUSH1 0x1 DUP1 SLOAD PUSH2 0xD69 SWAP1 DUP3 SWAP1 PUSH2 0x1184 JUMP JUMPDEST DUP2 SLOAD DUP2 LT PUSH2 0xD79 JUMPI PUSH2 0xD79 PUSH2 0x113F JUMP JUMPDEST SWAP1 PUSH1 0x0 MSTORE PUSH1 0x20 PUSH1 0x0 KECCAK256 SWAP1 PUSH1 0x5 MUL ADD PUSH1 0x0 ADD PUSH1 0x1 ADD SLOAD PUSH1 0x2 EQ DUP1 ISZERO PUSH2 0xDD0 JUMPI POP PUSH1 0x1 DUP1 SLOAD PUSH2 0xDA7 SWAP1 DUP3 SWAP1 PUSH2 0x1184 JUMP JUMPDEST DUP2 SLOAD DUP2 LT PUSH2 0xDB7 JUMPI PUSH2 0xDB7 PUSH2 0x113F JUMP JUMPDEST SWAP1 PUSH1 0x0 MSTORE PUSH1 0x20 PUSH1 0x0 KECCAK256 SWAP1 PUSH1 0x5 MUL ADD PUSH1 0x2 ADD PUSH1 0x1 ADD SLOAD PUSH1 0x3 EQ JUMPDEST ISZERO PUSH2 0xE7D JUMPI PUSH1 0x40 DUP1 MLOAD DUP1 DUP3 ADD SWAP1 SWAP2 MSTORE PUSH1 0x9 DUP2 MSTORE PUSH9 0x2AB9B2B919103BB4B7 PUSH1 0xB9 SHL PUSH1 0x20 DUP3 ADD MSTORE PUSH1 0x1 DUP1 SLOAD PUSH2 0xE04 SWAP1 DUP3 SWAP1 PUSH2 0x1184 JUMP JUMPDEST DUP2 SLOAD DUP2 LT PUSH2 0xE14 JUMPI PUSH2 0xE14 PUSH2 0x113F JUMP JUMPDEST SWAP1 PUSH1 0x0 MSTORE PUSH1 0x20 PUSH1 0x0 KECCAK256 SWAP1 PUSH1 0x5 MUL ADD PUSH1 0x4 ADD SWAP1 DUP2 PUSH2 0xE31 SWAP2 SWAP1 PUSH2 0x1239 JUMP JUMPDEST POP PUSH32 0xCDE5C32C0A45FD8AA4B65EA8003FC9DA9ACD5E2C6C24A9FCCE6AB79CABBD9122 PUSH1 0x40 MLOAD PUSH2 0xC55 SWAP1 PUSH1 0x20 DUP1 DUP3 MSTORE PUSH1 0x9 SWAP1 DUP3 ADD MSTORE PUSH9 0x2AB9B2B919103BB4B7 PUSH1 0xB9 SHL PUSH1 0x40 DUP3 ADD MSTORE PUSH1 0x60 ADD SWAP1 JUMP JUMPDEST PUSH1 0x40 DUP1 MLOAD DUP1 DUP3 ADD SWAP1 SWAP2 MSTORE PUSH1 0x9 DUP2 MSTORE PUSH9 0x2AB9B2B918903BB4B7 PUSH1 0xB9 SHL PUSH1 0x20 DUP3 ADD MSTORE PUSH1 0x1 DUP1 SLOAD PUSH2 0xEAC SWAP1 DUP3 SWAP1 PUSH2 0x1184 JUMP JUMPDEST DUP2 SLOAD DUP2 LT PUSH2 0xEBC JUMPI PUSH2 0xEBC PUSH2 0x113F JUMP JUMPDEST SWAP1 PUSH1 0x0 MSTORE PUSH1 0x20 PUSH1 0x0 KECCAK256 SWAP1 PUSH1 0x5 MUL ADD PUSH1 0x4 ADD SWAP1 DUP2 PUSH2 0xED9 SWAP2 SWAP1 PUSH2 0x1239 JUMP JUMPDEST POP PUSH32 0xCDE5C32C0A45FD8AA4B65EA8003FC9DA9ACD5E2C6C24A9FCCE6AB79CABBD9122 PUSH1 0x40 MLOAD PUSH2 0xC55 SWAP1 PUSH1 0x20 DUP1 DUP3 MSTORE PUSH1 0x9 SWAP1 DUP3 ADD MSTORE PUSH9 0x2AB9B2B918903BB4B7 PUSH1 0xB9 SHL PUSH1 0x40 DUP3 ADD MSTORE PUSH1 0x60 ADD SWAP1 JUMP JUMPDEST POP POP POP JUMP JUMPDEST PUSH1 0x40 DUP1 MLOAD PUSH1 0xA0 DUP2 ADD SWAP1 SWAP2 MSTORE PUSH1 0x0 PUSH1 0x60 DUP3 ADD DUP2 DUP2 MSTORE PUSH1 0x80 DUP4 ADD SWAP2 SWAP1 SWAP2 MSTORE DUP2 SWAP1 DUP2 MSTORE PUSH1 0x20 ADD PUSH2 0xF67 PUSH1 0x40 DUP1 MLOAD DUP1 DUP3 ADD SWAP1 SWAP2 MSTORE PUSH1 0x0 DUP1 DUP3 MSTORE PUSH1 0x20 DUP3 ADD MSTORE SWAP1 JUMP JUMPDEST DUP2 MSTORE PUSH1 0x20 ADD PUSH1 0x60 DUP2 MSTORE POP SWAP1 JUMP JUMPDEST PUSH1 0x0 PUSH1 0x20 DUP3 DUP5 SUB SLT ISZERO PUSH2 0xF86 JUMPI PUSH1 0x0 DUP1 REVERT JUMPDEST POP CALLDATALOAD SWAP2 SWAP1 POP JUMP JUMPDEST PUSH2 0xFAB DUP3 DUP3 MLOAD DUP1 MLOAD PUSH1 0x1 PUSH1 0x1 PUSH1 0xA0 SHL SUB AND DUP3 MSTORE PUSH1 0x20 SWAP1 DUP2 ADD MLOAD SWAP2 ADD MSTORE JUMP JUMPDEST PUSH1 0x0 PUSH1 0x20 DUP1 DUP4 ADD MLOAD PUSH2 0xFD3 PUSH1 0x40 DUP7 ADD DUP3 DUP1 MLOAD PUSH1 0x1 PUSH1 0x1 PUSH1 0xA0 SHL SUB AND DUP3 MSTORE PUSH1 0x20 SWAP1 DUP2 ADD MLOAD SWAP2 ADD MSTORE JUMP JUMPDEST POP PUSH1 0x40 DUP4 ADD MLOAD PUSH1 0xA0 PUSH1 0x80 DUP7 ADD MSTORE DUP1 MLOAD DUP1 PUSH1 0xA0 DUP8 ADD MSTORE PUSH1 0x0 JUMPDEST DUP2 DUP2 LT ISZERO PUSH2 0x1007 JUMPI DUP3 DUP2 ADD DUP5 ADD MLOAD DUP8 DUP3 ADD PUSH1 0xC0 ADD MSTORE DUP4 ADD PUSH2 0xFEB JUMP JUMPDEST POP PUSH1 0x0 PUSH1 0xC0 DUP3 DUP9 ADD ADD MSTORE PUSH1 0xC0 PUSH1 0x1F NOT PUSH1 0x1F DUP4 ADD AND DUP8 ADD ADD SWAP4 POP POP POP POP SWAP3 SWAP2 POP POP JUMP JUMPDEST PUSH1 0x0 PUSH1 0x20 DUP1 DUP4 ADD DUP2 DUP5 MSTORE DUP1 DUP6 MLOAD DUP1 DUP4 MSTORE PUSH1 0x40 DUP7 ADD SWAP2 POP PUSH1 0x40 DUP2 PUSH1 0x5 SHL DUP8 ADD ADD SWAP3 POP DUP4 DUP8 ADD PUSH1 0x0 JUMPDEST DUP3 DUP2 LT ISZERO PUSH2 0x107E JUMPI PUSH1 0x3F NOT DUP9 DUP7 SUB ADD DUP5 MSTORE PUSH2 0x106C DUP6 DUP4 MLOAD PUSH2 0xF8D JUMP JUMPDEST SWAP5 POP SWAP3 DUP6 ADD SWAP3 SWAP1 DUP6 ADD SWAP1 PUSH1 0x1 ADD PUSH2 0x1050 JUMP JUMPDEST POP SWAP3 SWAP8 SWAP7 POP POP POP POP POP POP POP JUMP JUMPDEST PUSH1 0x20 DUP1 DUP3 MSTORE DUP3 MLOAD DUP3 DUP3 ADD DUP2 SWAP1 MSTORE PUSH1 0x0 SWAP2 SWAP1 PUSH1 0x40 SWAP1 DUP2 DUP6 ADD SWAP1 DUP7 DUP5 ADD DUP6 JUMPDEST DUP3 DUP2 LT ISZERO PUSH2 0x10DE JUMPI PUSH2 0x10CE DUP5 DUP4 MLOAD DUP1 MLOAD PUSH1 0x1 PUSH1 0x1 PUSH1 0xA0 SHL SUB AND DUP3 MSTORE PUSH1 0x20 SWAP1 DUP2 ADD MLOAD SWAP2 ADD MSTORE JUMP JUMPDEST SWAP3 DUP5 ADD SWAP3 SWAP1 DUP6 ADD SWAP1 PUSH1 0x1 ADD PUSH2 0x10A8 JUMP JUMPDEST POP SWAP2 SWAP8 SWAP7 POP POP POP POP POP POP POP JUMP JUMPDEST PUSH1 0x20 DUP2 MSTORE PUSH1 0x0 PUSH2 0x10FE PUSH1 0x20 DUP4 ADD DUP5 PUSH2 0xF8D JUMP JUMPDEST SWAP4 SWAP3 POP POP POP JUMP JUMPDEST PUSH1 0x1 DUP2 DUP2 SHR SWAP1 DUP3 AND DUP1 PUSH2 0x1119 JUMPI PUSH1 0x7F DUP3 AND SWAP2 POP JUMPDEST PUSH1 0x20 DUP3 LT DUP2 SUB PUSH2 0x1139 JUMPI PUSH4 0x4E487B71 PUSH1 0xE0 SHL PUSH1 0x0 MSTORE PUSH1 0x22 PUSH1 0x4 MSTORE PUSH1 0x24 PUSH1 0x0 REVERT JUMPDEST POP SWAP2 SWAP1 POP JUMP JUMPDEST PUSH4 0x4E487B71 PUSH1 0xE0 SHL PUSH1 0x0 MSTORE PUSH1 0x32 PUSH1 0x4 MSTORE PUSH1 0x24 PUSH1 0x0 REVERT JUMPDEST PUSH4 0x4E487B71 PUSH1 0xE0 SHL PUSH1 0x0 MSTORE PUSH1 0x11 PUSH1 0x4 MSTORE PUSH1 0x24 PUSH1 0x0 REVERT JUMPDEST PUSH1 0x0 PUSH1 0x1 DUP3 ADD PUSH2 0x117D JUMPI PUSH2 0x117D PUSH2 0x1155 JUMP JUMPDEST POP PUSH1 0x1 ADD SWAP1 JUMP JUMPDEST DUP2 DUP2 SUB DUP2 DUP2 GT ISZERO PUSH2 0x1197 JUMPI PUSH2 0x1197 PUSH2 0x1155 JUMP JUMPDEST SWAP3 SWAP2 POP POP JUMP JUMPDEST PUSH1 0x0 DUP3 PUSH2 0x11BA JUMPI PUSH4 0x4E487B71 PUSH1 0xE0 SHL PUSH1 0x0 MSTORE PUSH1 0x12 PUSH1 0x4 MSTORE PUSH1 0x24 PUSH1 0x0 REVERT JUMPDEST POP MOD SWAP1 JUMP JUMPDEST PUSH4 0x4E487B71 PUSH1 0xE0 SHL PUSH1 0x0 MSTORE PUSH1 0x31 PUSH1 0x4 MSTORE PUSH1 0x24 PUSH1 0x0 REVERT JUMPDEST PUSH4 0x4E487B71 PUSH1 0xE0 SHL PUSH1 0x0 MSTORE PUSH1 0x41 PUSH1 0x4 MSTORE PUSH1 0x24 PUSH1 0x0 REVERT JUMPDEST PUSH1 0x1F DUP3 GT ISZERO PUSH2 0xF25 JUMPI PUSH1 0x0 DUP2 DUP2 MSTORE PUSH1 0x20 DUP2 KECCAK256 PUSH1 0x1F DUP6 ADD PUSH1 0x5 SHR DUP2 ADD PUSH1 0x20 DUP7 LT ISZERO PUSH2 0x1212 JUMPI POP DUP1 JUMPDEST PUSH1 0x1F DUP6 ADD PUSH1 0x5 SHR DUP3 ADD SWAP2 POP JUMPDEST DUP2 DUP2 LT ISZERO PUSH2 0x1231 JUMPI DUP3 DUP2 SSTORE PUSH1 0x1 ADD PUSH2 0x121E JUMP JUMPDEST POP POP POP POP POP POP JUMP JUMPDEST DUP2 MLOAD PUSH8 0xFFFFFFFFFFFFFFFF DUP2 GT ISZERO PUSH2 0x1253 JUMPI PUSH2 0x1253 PUSH2 0x11D5 JUMP JUMPDEST PUSH2 0x1267 DUP2 PUSH2 0x1261 DUP5 SLOAD PUSH2 0x1105 JUMP JUMPDEST DUP5 PUSH2 0x11EB JUMP JUMPDEST PUSH1 0x20 DUP1 PUSH1 0x1F DUP4 GT PUSH1 0x1 DUP2 EQ PUSH2 0x129C JUMPI PUSH1 0x0 DUP5 ISZERO PUSH2 0x1284 JUMPI POP DUP6 DUP4 ADD MLOAD JUMPDEST PUSH1 0x0 NOT PUSH1 0x3 DUP7 SWAP1 SHL SHR NOT AND PUSH1 0x1 DUP6 SWAP1 SHL OR DUP6 SSTORE PUSH2 0x1231 JUMP JUMPDEST PUSH1 0x0 DUP6 DUP2 MSTORE PUSH1 0x20 DUP2 KECCAK256 PUSH1 0x1F NOT DUP7 AND SWAP2 JUMPDEST DUP3 DUP2 LT ISZERO PUSH2 0x12CB JUMPI DUP9 DUP7 ADD MLOAD DUP3 SSTORE SWAP5 DUP5 ADD SWAP5 PUSH1 0x1 SWAP1 SWAP2 ADD SWAP1 DUP5 ADD PUSH2 0x12AC JUMP JUMPDEST POP DUP6 DUP3 LT ISZERO PUSH2 0x12E9 JUMPI DUP8 DUP6 ADD MLOAD PUSH1 0x0 NOT PUSH1 0x3 DUP9 SWAP1 SHL PUSH1 0xF8 AND SHR NOT AND DUP2 SSTORE JUMPDEST POP POP POP POP POP PUSH1 0x1 SWAP1 DUP2 SHL ADD SWAP1 SSTORE POP JUMP INVALID LOG2 PUSH5 0x6970667358 0x22 SLT KECCAK256 PUSH22 0x9A669F524E294AC634E5C7E55E01CB60DDDC6A1BA7D 0xEB 0xEB 0x2A SIGNEXTEND 0x28 DUP4 0xEE 0xAD 0xFB PUSH5 0x736F6C6343 STOP ADDMOD SGT STOP CALLER "
				},
				"gasEstimates": {
					"creation": {
						"codeDepositCost": "982200",
						"executionCost": "28133",
						"totalCost": "1010333"
					},
					"external": {
						"getGameHistory()": "infinite",
						"getSpecificGameHistory(uint256)": "infinite",
						"getUserOption(uint256)": "infinite",
						"showWaitingPoll()": "infinite",
						"waitingPool(uint256)": "6740"
					},
					"internal": {
						"ChooseRandomUser()": "infinite",
						"choosePlayerPlay()": "infinite",
						"game(struct RockPaperScissors.UserInfo memory,struct RockPaperScissors.UserInfo memory)": "infinite"
					}
				},
				"methodIdentifiers": {
					"getGameHistory()": "512ec557",
					"getSpecificGameHistory(uint256)": "f7c4efbb",
					"getUserOption(uint256)": "adf496b5",
					"showWaitingPoll()": "e16c9d59",
					"waitingPool(uint256)": "315553c4"
				}
			},
			"storageLayout": {
				"storage": [
					{
						"astId": 18,
						"contract": "Practical2-RockPaperScissors-Jason.sol:RockPaperScissors",
						"label": "userCount",
						"offset": 0,
						"slot": "0",
						"type": "t_uint256"
					},
					{
						"astId": 22,
						"contract": "Practical2-RockPaperScissors-Jason.sol:RockPaperScissors",
						"label": "gameHistory",
						"offset": 0,
						"slot": "1",
						"type": "t_array(t_struct(GameInfo)15_storage)dyn_storage"
					},
					{
						"astId": 24,
						"contract": "Practical2-RockPaperScissors-Jason.sol:RockPaperScissors",
						"label": "locked",
						"offset": 0,
						"slot": "2",
						"type": "t_bool"
					},
					{
						"astId": 27,
						"contract": "Practical2-RockPaperScissors-Jason.sol:RockPaperScissors",
						"label": "salt",
						"offset": 0,
						"slot": "3",
						"type": "t_uint256"
					},
					{
						"astId": 31,
						"contract": "Practical2-RockPaperScissors-Jason.sol:RockPaperScissors",
						"label": "waitingPool",
						"offset": 0,
						"slot": "4",
						"type": "t_array(t_struct(UserInfo)6_storage)dyn_storage"
					}
				],
				"types": {
					"t_address": {
						"encoding": "inplace",
						"label": "address",
						"numberOfBytes": "20"
					},
					"t_array(t_struct(GameInfo)15_storage)dyn_storage": {
						"base": "t_struct(GameInfo)15_storage",
						"encoding": "dynamic_array",
						"label": "struct RockPaperScissors.GameInfo[]",
						"numberOfBytes": "32"
					},
					"t_array(t_struct(UserInfo)6_storage)dyn_storage": {
						"base": "t_struct(UserInfo)6_storage",
						"encoding": "dynamic_array",
						"label": "struct RockPaperScissors.UserInfo[]",
						"numberOfBytes": "32"
					},
					"t_bool": {
						"encoding": "inplace",
						"label": "bool",
						"numberOfBytes": "1"
					},
					"t_string_storage": {
						"encoding": "bytes",
						"label": "string",
						"numberOfBytes": "32"
					},
					"t_struct(GameInfo)15_storage": {
						"encoding": "inplace",
						"label": "struct RockPaperScissors.GameInfo",
						"members": [
							{
								"astId": 9,
								"contract": "Practical2-RockPaperScissors-Jason.sol:RockPaperScissors",
								"label": "user1",
								"offset": 0,
								"slot": "0",
								"type": "t_struct(UserInfo)6_storage"
							},
							{
								"astId": 12,
								"contract": "Practical2-RockPaperScissors-Jason.sol:RockPaperScissors",
								"label": "user2",
								"offset": 0,
								"slot": "2",
								"type": "t_struct(UserInfo)6_storage"
							},
							{
								"astId": 14,
								"contract": "Practical2-RockPaperScissors-Jason.sol:RockPaperScissors",
								"label": "finalResult",
								"offset": 0,
								"slot": "4",
								"type": "t_string_storage"
							}
						],
						"numberOfBytes": "160"
					},
					"t_struct(UserInfo)6_storage": {
						"encoding": "inplace",
						"label": "struct RockPaperScissors.UserInfo",
						"members": [
							{
								"astId": 3,
								"contract": "Practical2-RockPaperScissors-Jason.sol:RockPaperScissors",
								"label": "userAddress",
								"offset": 0,
								"slot": "0",
								"type": "t_address"
							},
							{
								"astId": 5,
								"contract": "Practical2-RockPaperScissors-Jason.sol:RockPaperScissors",
								"label": "userOption",
								"offset": 0,
								"slot": "1",
								"type": "t_uint256"
							}
						],
						"numberOfBytes": "64"
					},
					"t_uint256": {
						"encoding": "inplace",
						"label": "uint256",
						"numberOfBytes": "32"
					}
				}
			},
			"userdoc": {
				"kind": "user",
				"methods": {},
				"version": 1
			}
		}
	}
}