{
	"Practical2-RockPaperScissors-Jason.sol": {
		"RockPaperScissors": {
			"abi": [
				{
					"anonymous": false,
					"inputs": [
						{
							"indexed": false,
							"internalType": "address[]",
							"name": "pool",
							"type": "address[]"
						}
					],
					"name": "sendWaitingPool",
					"type": "event"
				},
				{
					"anonymous": false,
					"inputs": [
						{
							"indexed": false,
							"internalType": "uint256",
							"name": "",
							"type": "uint256"
						}
					],
					"name": "showArraylenght",
					"type": "event"
				},
				{
					"anonymous": false,
					"inputs": [
						{
							"indexed": false,
							"internalType": "uint256",
							"name": "currentNumber",
							"type": "uint256"
						}
					],
					"name": "showCurrentNumber",
					"type": "event"
				},
				{
					"anonymous": false,
					"inputs": [
						{
							"indexed": false,
							"internalType": "string",
							"name": "",
							"type": "string"
						}
					],
					"name": "showError",
					"type": "event"
				},
				{
					"anonymous": false,
					"inputs": [
						{
							"indexed": false,
							"internalType": "string",
							"name": "logResult",
							"type": "string"
						}
					],
					"name": "showResult",
					"type": "event"
				},
				{
					"anonymous": false,
					"inputs": [
						{
							"indexed": true,
							"internalType": "address",
							"name": "logUserAddress",
							"type": "address"
						}
					],
					"name": "showUserAddress",
					"type": "event"
				},
				{
					"inputs": [],
					"name": "getGameHistory",
					"outputs": [
						{
							"components": [
								{
									"components": [
										{
											"internalType": "address",
											"name": "userAddress",
											"type": "address"
										},
										{
											"internalType": "uint256",
											"name": "userOption",
											"type": "uint256"
										}
									],
									"internalType": "struct RockPaperScissors.UserInfo",
									"name": "user1",
									"type": "tuple"
								},
								{
									"components": [
										{
											"internalType": "address",
											"name": "userAddress",
											"type": "address"
										},
										{
											"internalType": "uint256",
											"name": "userOption",
											"type": "uint256"
										}
									],
									"internalType": "struct RockPaperScissors.UserInfo",
									"name": "user2",
									"type": "tuple"
								},
								{
									"internalType": "string",
									"name": "finalResult",
									"type": "string"
								}
							],
							"internalType": "struct RockPaperScissors.GameInfo[]",
							"name": "",
							"type": "tuple[]"
						}
					],
					"stateMutability": "view",
					"type": "function"
				},
				{
					"inputs": [
						{
							"internalType": "uint256",
							"name": "index",
							"type": "uint256"
						}
					],
					"name": "getSpecificGameHistory",
					"outputs": [
						{
							"components": [
								{
									"components": [
										{
											"internalType": "address",
											"name": "userAddress",
											"type": "address"
										},
										{
											"internalType": "uint256",
											"name": "userOption",
											"type": "uint256"
										}
									],
									"internalType": "struct RockPaperScissors.UserInfo",
									"name": "user1",
									"type": "tuple"
								},
								{
									"components": [
										{
											"internalType": "address",
											"name": "userAddress",
											"type": "address"
										},
										{
											"internalType": "uint256",
											"name": "userOption",
											"type": "uint256"
										}
									],
									"internalType": "struct RockPaperScissors.UserInfo",
									"name": "user2",
									"type": "tuple"
								},
								{
									"internalType": "string",
									"name": "finalResult",
									"type": "string"
								}
							],
							"internalType": "struct RockPaperScissors.GameInfo",
							"name": "",
							"type": "tuple"
						}
					],
					"stateMutability": "view",
					"type": "function"
				},
				{
					"inputs": [
						{
							"internalType": "uint256",
							"name": "option",
							"type": "uint256"
						}
					],
					"name": "getUserOption",
					"outputs": [],
					"stateMutability": "nonpayable",
					"type": "function"
				},
				{
					"inputs": [],
					"name": "showNumber",
					"outputs": [
						{
							"internalType": "uint256",
							"name": "",
							"type": "uint256"
						}
					],
					"stateMutability": "view",
					"type": "function"
				},
				{
					"inputs": [],
					"name": "showWaitingPoll",
					"outputs": [
						{
							"components": [
								{
									"internalType": "address",
									"name": "userAddress",
									"type": "address"
								},
								{
									"internalType": "uint256",
									"name": "userOption",
									"type": "uint256"
								}
							],
							"internalType": "struct RockPaperScissors.UserInfo[]",
							"name": "",
							"type": "tuple[]"
						}
					],
					"stateMutability": "view",
					"type": "function"
				},
				{
					"inputs": [
						{
							"internalType": "uint256",
							"name": "_number",
							"type": "uint256"
						}
					],
					"name": "updateNumber",
					"outputs": [],
					"stateMutability": "nonpayable",
					"type": "function"
				}
			],
			"devdoc": {
				"kind": "dev",
				"methods": {},
				"version": 1
			},
			"evm": {
				"assembly": "    /* \"Practical2-RockPaperScissors-Jason.sol\":57:6510  contract RockPaperScissors {... */\n  mstore(0x40, 0x80)\n    /* \"Practical2-RockPaperScissors-Jason.sol\":168:169  1 */\n  0x01\n    /* \"Practical2-RockPaperScissors-Jason.sol\":143:169  uint public showNumber = 1 */\n  0x00\n  sstore\n    /* \"Practical2-RockPaperScissors-Jason.sol\":884:885  0 */\n  0x00\n    /* \"Practical2-RockPaperScissors-Jason.sol\":859:885  uint private userCount = 0 */\n  0x01\n  sstore\n    /* \"Practical2-RockPaperScissors-Jason.sol\":1082:1083  1 */\n  0x01\n    /* \"Practical2-RockPaperScissors-Jason.sol\":1062:1083  uint private salt = 1 */\n  0x04\n  sstore\n    /* \"Practical2-RockPaperScissors-Jason.sol\":57:6510  contract RockPaperScissors {... */\n  callvalue\n  dup1\n  iszero\n  tag_1\n  jumpi\n  0x00\n  dup1\n  revert\ntag_1:\n  pop\n  dataSize(sub_0)\n  dup1\n  dataOffset(sub_0)\n  0x00\n  codecopy\n  0x00\n  return\nstop\n\nsub_0: assembly {\n        /* \"Practical2-RockPaperScissors-Jason.sol\":57:6510  contract RockPaperScissors {... */\n      mstore(0x40, 0x80)\n      callvalue\n      dup1\n      iszero\n      tag_1\n      jumpi\n      0x00\n      dup1\n      revert\n    tag_1:\n      pop\n      jumpi(tag_2, lt(calldatasize, 0x04))\n      shr(0xe0, calldataload(0x00))\n      dup1\n      0x1db05a88\n      eq\n      tag_3\n      jumpi\n      dup1\n      0x512ec557\n      eq\n      tag_4\n      jumpi\n      dup1\n      0x76dad223\n      eq\n      tag_5\n      jumpi\n      dup1\n      0xadf496b5\n      eq\n      tag_6\n      jumpi\n      dup1\n      0xe16c9d59\n      eq\n      tag_7\n      jumpi\n      dup1\n      0xf7c4efbb\n      eq\n      tag_8\n      jumpi\n    tag_2:\n      0x00\n      dup1\n      revert\n        /* \"Practical2-RockPaperScissors-Jason.sol\":224:351  function updateNumber (uint _number) external {... */\n    tag_3:\n      tag_9\n      tag_10\n      calldatasize\n      0x04\n      tag_11\n      jump\t// in\n    tag_10:\n      tag_12\n      jump\t// in\n    tag_9:\n      stop\n        /* \"Practical2-RockPaperScissors-Jason.sol\":1757:1911  function getGameHistory () external view returns(GameInfo[] memory){... */\n    tag_4:\n      tag_13\n      tag_14\n      jump\t// in\n    tag_13:\n      mload(0x40)\n      tag_15\n      swap2\n      swap1\n      tag_16\n      jump\t// in\n    tag_15:\n      mload(0x40)\n      dup1\n      swap2\n      sub\n      swap1\n      return\n        /* \"Practical2-RockPaperScissors-Jason.sol\":143:169  uint public showNumber = 1 */\n    tag_5:\n      tag_17\n      sload(0x00)\n      dup2\n      jump\n    tag_17:\n      mload(0x40)\n        /* \"#utility.yul\":2089:2114   */\n      swap1\n      dup2\n      mstore\n        /* \"#utility.yul\":2077:2079   */\n      0x20\n        /* \"#utility.yul\":2062:2080   */\n      add\n        /* \"Practical2-RockPaperScissors-Jason.sol\":143:169  uint public showNumber = 1 */\n      tag_15\n        /* \"#utility.yul\":1943:2120   */\n      jump\n        /* \"Practical2-RockPaperScissors-Jason.sol\":2524:3774  function getUserOption(uint option) external noReentrancy{... */\n    tag_6:\n      tag_9\n      tag_22\n      calldatasize\n      0x04\n      tag_11\n      jump\t// in\n    tag_22:\n      tag_23\n      jump\t// in\n        /* \"Practical2-RockPaperScissors-Jason.sol\":1600:1707  function showWaitingPoll () external view returns (UserInfo[] memory) {... */\n    tag_7:\n      tag_24\n      tag_25\n      jump\t// in\n    tag_24:\n      mload(0x40)\n      tag_15\n      swap2\n      swap1\n      tag_27\n      jump\t// in\n        /* \"Practical2-RockPaperScissors-Jason.sol\":1978:2226  function getSpecificGameHistory (uint index) external view returns(GameInfo memory){... */\n    tag_8:\n      tag_28\n      tag_29\n      calldatasize\n      0x04\n      tag_11\n      jump\t// in\n    tag_29:\n      tag_30\n      jump\t// in\n    tag_28:\n      mload(0x40)\n      tag_15\n      swap2\n      swap1\n      tag_32\n      jump\t// in\n        /* \"Practical2-RockPaperScissors-Jason.sol\":224:351  function updateNumber (uint _number) external {... */\n    tag_12:\n        /* \"Practical2-RockPaperScissors-Jason.sol\":280:290  showNumber */\n      0x00\n        /* \"Practical2-RockPaperScissors-Jason.sol\":280:300  showNumber = _number */\n      dup2\n      swap1\n      sstore\n        /* \"Practical2-RockPaperScissors-Jason.sol\":315:344  showCurrentNumber(showNumber) */\n      mload(0x40)\n        /* \"#utility.yul\":2089:2114   */\n      dup2\n      dup2\n      mstore\n        /* \"Practical2-RockPaperScissors-Jason.sol\":315:344  showCurrentNumber(showNumber) */\n      0xebaa1540a7a2f4fd56917205a7326b45cd094b271e1c175a4c5e472967e60e84\n      swap1\n        /* \"#utility.yul\":2077:2079   */\n      0x20\n        /* \"#utility.yul\":2062:2080   */\n      add\n        /* \"Practical2-RockPaperScissors-Jason.sol\":315:344  showCurrentNumber(showNumber) */\n      mload(0x40)\n      dup1\n      swap2\n      sub\n      swap1\n      log1\n        /* \"Practical2-RockPaperScissors-Jason.sol\":224:351  function updateNumber (uint _number) external {... */\n      pop\n      jump\t// out\n        /* \"Practical2-RockPaperScissors-Jason.sol\":1757:1911  function getGameHistory () external view returns(GameInfo[] memory){... */\n    tag_14:\n        /* \"Practical2-RockPaperScissors-Jason.sol\":1806:1823  GameInfo[] memory */\n      0x60\n        /* \"Practical2-RockPaperScissors-Jason.sol\":1892:1903  gameHistory */\n      0x02\n        /* \"Practical2-RockPaperScissors-Jason.sol\":1884:1904  return (gameHistory) */\n      dup1\n      sload\n      dup1\n      0x20\n      mul\n      0x20\n      add\n      mload(0x40)\n      swap1\n      dup2\n      add\n      0x40\n      mstore\n      dup1\n      swap3\n      swap2\n      swap1\n      dup2\n      dup2\n      mstore\n      0x20\n      add\n      0x00\n      swap1\n    tag_36:\n      dup3\n      dup3\n      lt\n      iszero\n      tag_37\n      jumpi\n      0x00\n      dup5\n      dup2\n      mstore\n      0x20\n      swap1\n      dup2\n      swap1\n      keccak256\n      0x40\n      dup1\n      mload\n      0xa0\n      dup2\n      add\n      dup3\n      mstore\n      0x05\n      dup7\n      mul\n      swap1\n      swap3\n      add\n      dup1\n      sload\n      sub(shl(0xa0, 0x01), 0x01)\n      swap1\n      dup2\n      and\n      0x60\n      dup6\n      add\n      swap1\n      dup2\n      mstore\n      0x01\n      dup4\n      add\n      sload\n      0x80\n      dup7\n      add\n      mstore\n      dup5\n      mstore\n      dup3\n      mload\n      dup1\n      dup5\n      add\n      dup5\n      mstore\n      0x02\n      dup4\n      add\n      sload\n      swap1\n      swap2\n      and\n      dup2\n      mstore\n      0x03\n      dup3\n      add\n      sload\n      dup2\n      dup7\n      add\n      mstore\n      swap4\n      dup4\n      add\n      swap4\n      swap1\n      swap4\n      mstore\n      0x04\n      dup4\n      add\n      dup1\n      sload\n      swap3\n      swap4\n      swap3\n      swap2\n      dup5\n      add\n      swap2\n      tag_39\n      swap1\n      tag_40\n      jump\t// in\n    tag_39:\n      dup1\n      0x1f\n      add\n      0x20\n      dup1\n      swap2\n      div\n      mul\n      0x20\n      add\n      mload(0x40)\n      swap1\n      dup2\n      add\n      0x40\n      mstore\n      dup1\n      swap3\n      swap2\n      swap1\n      dup2\n      dup2\n      mstore\n      0x20\n      add\n      dup3\n      dup1\n      sload\n      tag_41\n      swap1\n      tag_40\n      jump\t// in\n    tag_41:\n      dup1\n      iszero\n      tag_42\n      jumpi\n      dup1\n      0x1f\n      lt\n      tag_43\n      jumpi\n      0x0100\n      dup1\n      dup4\n      sload\n      div\n      mul\n      dup4\n      mstore\n      swap2\n      0x20\n      add\n      swap2\n      jump(tag_42)\n    tag_43:\n      dup3\n      add\n      swap2\n      swap1\n      0x00\n      mstore\n      keccak256(0x00, 0x20)\n      swap1\n    tag_44:\n      dup2\n      sload\n      dup2\n      mstore\n      swap1\n      0x01\n      add\n      swap1\n      0x20\n      add\n      dup1\n      dup4\n      gt\n      tag_44\n      jumpi\n      dup3\n      swap1\n      sub\n      0x1f\n      and\n      dup3\n      add\n      swap2\n    tag_42:\n      pop\n      pop\n      pop\n      pop\n      pop\n      dup2\n      mstore\n      pop\n      pop\n      dup2\n      mstore\n      0x20\n      add\n      swap1\n      0x01\n      add\n      swap1\n      jump(tag_36)\n    tag_37:\n      pop\n      pop\n      pop\n      pop\n      swap1\n      pop\n        /* \"Practical2-RockPaperScissors-Jason.sol\":1757:1911  function getGameHistory () external view returns(GameInfo[] memory){... */\n      swap1\n      jump\t// out\n        /* \"Practical2-RockPaperScissors-Jason.sol\":2524:3774  function getUserOption(uint option) external noReentrancy{... */\n    tag_23:\n        /* \"Practical2-RockPaperScissors-Jason.sol\":2362:2368  locked */\n      and(0xff, sload(0x03))\n        /* \"Practical2-RockPaperScissors-Jason.sol\":2361:2368  !locked */\n      iszero\n        /* \"Practical2-RockPaperScissors-Jason.sol\":2353:2394  require(!locked, \"Error: Reentrant call\") */\n      tag_46\n      jumpi\n      mload(0x40)\n      shl(0xe5, 0x461bcd)\n      dup2\n      mstore\n        /* \"#utility.yul\":3700:3702   */\n      0x20\n        /* \"Practical2-RockPaperScissors-Jason.sol\":2353:2394  require(!locked, \"Error: Reentrant call\") */\n      0x04\n      dup3\n      add\n        /* \"#utility.yul\":3682:3703   */\n      mstore\n        /* \"#utility.yul\":3739:3741   */\n      0x15\n        /* \"#utility.yul\":3719:3737   */\n      0x24\n      dup3\n      add\n        /* \"#utility.yul\":3712:3742   */\n      mstore\n      shl(0x5a, 0x115c9c9bdc8e881499595b9d1c985b9d0818d85b1b)\n        /* \"#utility.yul\":3758:3776   */\n      0x44\n      dup3\n      add\n        /* \"#utility.yul\":3751:3802   */\n      mstore\n        /* \"#utility.yul\":3819:3837   */\n      0x64\n      add\n        /* \"Practical2-RockPaperScissors-Jason.sol\":2353:2394  require(!locked, \"Error: Reentrant call\") */\n    tag_47:\n      mload(0x40)\n      dup1\n      swap2\n      sub\n      swap1\n      revert\n    tag_46:\n        /* \"Practical2-RockPaperScissors-Jason.sol\":2404:2410  locked */\n      0x03\n        /* \"Practical2-RockPaperScissors-Jason.sol\":2404:2417  locked = true */\n      dup1\n      sload\n      not(0xff)\n      and\n        /* \"Practical2-RockPaperScissors-Jason.sol\":2413:2417  true */\n      0x01\n        /* \"Practical2-RockPaperScissors-Jason.sol\":2404:2417  locked = true */\n      or\n      swap1\n      sstore\n        /* \"Practical2-RockPaperScissors-Jason.sol\":2596:2623  showUserAddress(msg.sender) */\n      mload(0x40)\n        /* \"Practical2-RockPaperScissors-Jason.sol\":2612:2622  msg.sender */\n      caller\n      swap1\n        /* \"Practical2-RockPaperScissors-Jason.sol\":2596:2623  showUserAddress(msg.sender) */\n      0x6fd5bea3ad79492c3055c6f6b7b37ca66d63ba4ceef7d04dd901559affbe971a\n      swap1\n        /* \"Practical2-RockPaperScissors-Jason.sol\":2404:2410  locked */\n      0x00\n      swap1\n        /* \"Practical2-RockPaperScissors-Jason.sol\":2596:2623  showUserAddress(msg.sender) */\n      log2\n        /* \"Practical2-RockPaperScissors-Jason.sol\":2668:2674  option */\n      dup1\n        /* \"Practical2-RockPaperScissors-Jason.sol\":2678:2679  0 */\n      0x00\n        /* \"Practical2-RockPaperScissors-Jason.sol\":2668:2679  option != 0 */\n      sub\n        /* \"Practical2-RockPaperScissors-Jason.sol\":2660:2704  require(option != 0, \"Error: Can't input 0\") */\n      tag_50\n      jumpi\n      mload(0x40)\n      shl(0xe5, 0x461bcd)\n      dup2\n      mstore\n        /* \"#utility.yul\":4050:4052   */\n      0x20\n        /* \"Practical2-RockPaperScissors-Jason.sol\":2660:2704  require(option != 0, \"Error: Can't input 0\") */\n      0x04\n      dup3\n      add\n        /* \"#utility.yul\":4032:4053   */\n      mstore\n        /* \"#utility.yul\":4089:4091   */\n      0x14\n        /* \"#utility.yul\":4069:4087   */\n      0x24\n      dup3\n      add\n        /* \"#utility.yul\":4062:4092   */\n      mstore\n      shl(0x64, 0x04572726f723a2043616e277420696e707574203)\n        /* \"#utility.yul\":4108:4126   */\n      0x44\n      dup3\n      add\n        /* \"#utility.yul\":4101:4151   */\n      mstore\n        /* \"#utility.yul\":4168:4186   */\n      0x64\n      add\n        /* \"Practical2-RockPaperScissors-Jason.sol\":2660:2704  require(option != 0, \"Error: Can't input 0\") */\n      tag_47\n        /* \"#utility.yul\":3848:4192   */\n      jump\n        /* \"Practical2-RockPaperScissors-Jason.sol\":2660:2704  require(option != 0, \"Error: Can't input 0\") */\n    tag_50:\n        /* \"Practical2-RockPaperScissors-Jason.sol\":2732:2733  3 */\n      0x03\n        /* \"Practical2-RockPaperScissors-Jason.sol\":2722:2728  option */\n      dup2\n        /* \"Practical2-RockPaperScissors-Jason.sol\":2722:2733  option <= 3 */\n      gt\n      iszero\n        /* \"Practical2-RockPaperScissors-Jason.sol\":2714:2768  require(option <= 3, \"Error: Can't input more than 3\") */\n      tag_53\n      jumpi\n      mload(0x40)\n      shl(0xe5, 0x461bcd)\n      dup2\n      mstore\n        /* \"#utility.yul\":4399:4401   */\n      0x20\n        /* \"Practical2-RockPaperScissors-Jason.sol\":2714:2768  require(option <= 3, \"Error: Can't input more than 3\") */\n      0x04\n      dup3\n      add\n        /* \"#utility.yul\":4381:4402   */\n      mstore\n        /* \"#utility.yul\":4438:4440   */\n      0x1e\n        /* \"#utility.yul\":4418:4436   */\n      0x24\n      dup3\n      add\n        /* \"#utility.yul\":4411:4441   */\n      mstore\n        /* \"#utility.yul\":4477:4509   */\n      0x4572726f723a2043616e277420696e707574206d6f7265207468616e20330000\n        /* \"#utility.yul\":4457:4475   */\n      0x44\n      dup3\n      add\n        /* \"#utility.yul\":4450:4510   */\n      mstore\n        /* \"#utility.yul\":4527:4545   */\n      0x64\n      add\n        /* \"Practical2-RockPaperScissors-Jason.sol\":2714:2768  require(option <= 3, \"Error: Can't input more than 3\") */\n      tag_47\n        /* \"#utility.yul\":4197:4551   */\n      jump\n        /* \"Practical2-RockPaperScissors-Jason.sol\":2714:2768  require(option <= 3, \"Error: Can't input more than 3\") */\n    tag_53:\n        /* \"Practical2-RockPaperScissors-Jason.sol\":2825:2835  bool exist */\n      0x00\n      dup1\n        /* \"Practical2-RockPaperScissors-Jason.sol\":2845:3193  for (uint i = 0; i < waitingPool.length; i++) ... */\n    tag_56:\n        /* \"Practical2-RockPaperScissors-Jason.sol\":2866:2877  waitingPool */\n      0x05\n        /* \"Practical2-RockPaperScissors-Jason.sol\":2866:2884  waitingPool.length */\n      sload\n        /* \"Practical2-RockPaperScissors-Jason.sol\":2862:2884  i < waitingPool.length */\n      dup2\n      lt\n        /* \"Practical2-RockPaperScissors-Jason.sol\":2845:3193  for (uint i = 0; i < waitingPool.length; i++) ... */\n      iszero\n      tag_57\n      jumpi\n        /* \"Practical2-RockPaperScissors-Jason.sol\":2931:2942  waitingPool */\n      0x05\n        /* \"Practical2-RockPaperScissors-Jason.sol\":2943:2944  i */\n      dup2\n        /* \"Practical2-RockPaperScissors-Jason.sol\":2931:2945  waitingPool[i] */\n      dup2\n      sload\n      dup2\n      lt\n      tag_60\n      jumpi\n      tag_60\n      tag_61\n      jump\t// in\n    tag_60:\n      0x00\n      swap2\n      dup3\n      mstore\n      0x20\n      swap1\n      swap2\n      keccak256\n      0x02\n      swap1\n      swap2\n      mul\n      add\n        /* \"Practical2-RockPaperScissors-Jason.sol\":2931:2957  waitingPool[i].userAddress */\n      sload\n      sub(shl(0xa0, 0x01), 0x01)\n      and\n        /* \"Practical2-RockPaperScissors-Jason.sol\":2917:2927  msg.sender */\n      caller\n        /* \"Practical2-RockPaperScissors-Jason.sol\":2917:2957  msg.sender == waitingPool[i].userAddress */\n      sub\n        /* \"Practical2-RockPaperScissors-Jason.sol\":2914:3184  if(msg.sender == waitingPool[i].userAddress){... */\n      tag_66\n      jumpi\n        /* \"Practical2-RockPaperScissors-Jason.sol\":2984:2988  true */\n      0x01\n        /* \"Practical2-RockPaperScissors-Jason.sol\":2976:2988  exist = true */\n      swap2\n      pop\n        /* \"Practical2-RockPaperScissors-Jason.sol\":3011:3074  showError(\"You already in the queue, wait for other play join\") */\n      0x1d229a771174308da40f70761ba48b700922b118fea40f5e3705f7067c12cc38\n      mload(0x40)\n      tag_64\n      swap1\n        /* \"#utility.yul\":4890:4892   */\n      0x20\n        /* \"#utility.yul\":4872:4893   */\n      dup1\n      dup3\n      mstore\n        /* \"#utility.yul\":4929:4931   */\n      0x32\n        /* \"#utility.yul\":4909:4927   */\n      swap1\n      dup3\n      add\n        /* \"#utility.yul\":4902:4932   */\n      mstore\n        /* \"#utility.yul\":4968:5002   */\n      0x596f7520616c726561647920696e207468652071756575652c20776169742066\n        /* \"#utility.yul\":4963:4965   */\n      0x40\n        /* \"#utility.yul\":4948:4966   */\n      dup3\n      add\n        /* \"#utility.yul\":4941:5003   */\n      mstore\n      shl(0x71, 0x37b91037ba3432b910383630bc903537b4b7)\n        /* \"#utility.yul\":5034:5036   */\n      0x60\n        /* \"#utility.yul\":5019:5037   */\n      dup3\n      add\n        /* \"#utility.yul\":5012:5060   */\n      mstore\n        /* \"#utility.yul\":5092:5095   */\n      0x80\n        /* \"#utility.yul\":5077:5096   */\n      add\n      swap1\n        /* \"#utility.yul\":4688:5102   */\n      jump\n        /* \"Practical2-RockPaperScissors-Jason.sol\":3011:3074  showError(\"You already in the queue, wait for other play join\") */\n    tag_64:\n      mload(0x40)\n      dup1\n      swap2\n      sub\n      swap1\n      log1\n        /* \"Practical2-RockPaperScissors-Jason.sol\":3101:3106  exist */\n      dup2\n        /* \"Practical2-RockPaperScissors-Jason.sol\":3100:3106  !exist */\n      iszero\n        /* \"Practical2-RockPaperScissors-Jason.sol\":3092:3168  require(!exist, \"Error: You already in the queue, wait for other play join\") */\n      tag_66\n      jumpi\n      mload(0x40)\n      shl(0xe5, 0x461bcd)\n      dup2\n      mstore\n        /* \"#utility.yul\":5309:5311   */\n      0x20\n        /* \"Practical2-RockPaperScissors-Jason.sol\":3092:3168  require(!exist, \"Error: You already in the queue, wait for other play join\") */\n      0x04\n      dup3\n      add\n        /* \"#utility.yul\":5291:5312   */\n      mstore\n        /* \"#utility.yul\":5348:5350   */\n      0x39\n        /* \"#utility.yul\":5328:5346   */\n      0x24\n      dup3\n      add\n        /* \"#utility.yul\":5321:5351   */\n      mstore\n        /* \"#utility.yul\":5387:5421   */\n      0x4572726f723a20596f7520616c726561647920696e207468652071756575652c\n        /* \"#utility.yul\":5367:5385   */\n      0x44\n      dup3\n      add\n        /* \"#utility.yul\":5360:5422   */\n      mstore\n        /* \"#utility.yul\":5458:5485   */\n      0x207761697420666f72206f7468657220706c6179206a6f696e00000000000000\n        /* \"#utility.yul\":5438:5456   */\n      0x64\n      dup3\n      add\n        /* \"#utility.yul\":5431:5486   */\n      mstore\n        /* \"#utility.yul\":5503:5522   */\n      0x84\n      add\n        /* \"Practical2-RockPaperScissors-Jason.sol\":3092:3168  require(!exist, \"Error: You already in the queue, wait for other play join\") */\n      tag_47\n        /* \"#utility.yul\":5107:5528   */\n      jump\n        /* \"Practical2-RockPaperScissors-Jason.sol\":3092:3168  require(!exist, \"Error: You already in the queue, wait for other play join\") */\n    tag_66:\n        /* \"Practical2-RockPaperScissors-Jason.sol\":2886:2889  i++ */\n      dup1\n      tag_69\n      dup2\n      tag_70\n      jump\t// in\n    tag_69:\n      swap2\n      pop\n      pop\n        /* \"Practical2-RockPaperScissors-Jason.sol\":2845:3193  for (uint i = 0; i < waitingPool.length; i++) ... */\n      jump(tag_56)\n    tag_57:\n      pop\n      0x40\n      dup1\n      mload\n      dup1\n      dup3\n      add\n      swap1\n      swap2\n      mstore\n      0x00\n      dup1\n      dup3\n      mstore\n      0x20\n      dup3\n      add\n      mstore\n        /* \"Practical2-RockPaperScissors-Jason.sol\":3317:3328  waitingPool */\n      0x05\n        /* \"Practical2-RockPaperScissors-Jason.sol\":3317:3343  waitingPool.push(userinfo) */\n      dup1\n      sload\n      0x01\n      dup1\n      dup3\n      add\n      dup4\n      sstore\n      0x00\n      dup4\n      swap1\n      mstore\n      dup4\n      mload\n      0x036b6384b5eca791c62761152d0c79bb0604c104a5fb6f4eb0703f3154bb3db0\n      0x02\n      swap1\n      swap4\n      mul\n      swap3\n      dup4\n      add\n      dup1\n      sload\n      not(sub(shl(0xa0, 0x01), 0x01))\n      and\n      sub(shl(0xa0, 0x01), 0x01)\n      swap1\n      swap3\n      and\n      swap2\n      swap1\n      swap2\n      or\n      swap1\n      sstore\n      0x20\n      dup5\n      add\n      mload\n      0x036b6384b5eca791c62761152d0c79bb0604c104a5fb6f4eb0703f3154bb3db1\n      swap1\n      swap3\n      add\n      swap2\n      swap1\n      swap2\n      sstore\n        /* \"Practical2-RockPaperScissors-Jason.sol\":3365:3383  waitingPool.length */\n      dup2\n      sload\n        /* \"Practical2-RockPaperScissors-Jason.sol\":3403:3413  msg.sender */\n      caller\n      swap3\n        /* \"Practical2-RockPaperScissors-Jason.sol\":3317:3328  waitingPool */\n      swap2\n        /* \"Practical2-RockPaperScissors-Jason.sol\":3365:3387  waitingPool.length - 1 */\n      tag_74\n      swap2\n      tag_75\n      jump\t// in\n    tag_74:\n        /* \"Practical2-RockPaperScissors-Jason.sol\":3353:3388  waitingPool[waitingPool.length - 1] */\n      dup2\n      sload\n      dup2\n      lt\n      tag_77\n      jumpi\n      tag_77\n      tag_61\n      jump\t// in\n    tag_77:\n      0x00\n      swap2\n      dup3\n      mstore\n      0x20\n      swap1\n      swap2\n      keccak256\n      0x02\n      swap1\n      swap2\n      mul\n      add\n        /* \"Practical2-RockPaperScissors-Jason.sol\":3353:3413  waitingPool[waitingPool.length - 1].userAddress = msg.sender */\n      dup1\n      sload\n      not(sub(shl(0xa0, 0x01), 0x01))\n      and\n      sub(shl(0xa0, 0x01), 0x01)\n      swap3\n      swap1\n      swap3\n      and\n      swap2\n      swap1\n      swap2\n      or\n      swap1\n      sstore\n        /* \"Practical2-RockPaperScissors-Jason.sol\":3423:3434  waitingPool */\n      0x05\n        /* \"Practical2-RockPaperScissors-Jason.sol\":3435:3453  waitingPool.length */\n      dup1\n      sload\n        /* \"Practical2-RockPaperScissors-Jason.sol\":3472:3478  option */\n      dup5\n      swap2\n        /* \"Practical2-RockPaperScissors-Jason.sol\":3423:3434  waitingPool */\n      swap1\n        /* \"Practical2-RockPaperScissors-Jason.sol\":3435:3457  waitingPool.length - 1 */\n      tag_79\n      swap1\n      0x01\n      swap1\n      tag_75\n      jump\t// in\n    tag_79:\n        /* \"Practical2-RockPaperScissors-Jason.sol\":3423:3458  waitingPool[waitingPool.length - 1] */\n      dup2\n      sload\n      dup2\n      lt\n      tag_81\n      jumpi\n      tag_81\n      tag_61\n      jump\t// in\n    tag_81:\n      0x00\n      swap2\n      dup3\n      mstore\n      0x20\n      dup3\n      keccak256\n        /* \"Practical2-RockPaperScissors-Jason.sol\":3423:3469  waitingPool[waitingPool.length - 1].userOption */\n      0x01\n        /* \"Practical2-RockPaperScissors-Jason.sol\":3423:3458  waitingPool[waitingPool.length - 1] */\n      0x02\n      swap1\n      swap3\n      mul\n      add\n        /* \"Practical2-RockPaperScissors-Jason.sol\":3423:3469  waitingPool[waitingPool.length - 1].userOption */\n      dup2\n      add\n        /* \"Practical2-RockPaperScissors-Jason.sol\":3423:3478  waitingPool[waitingPool.length - 1].userOption = option */\n      swap3\n      swap1\n      swap3\n      sstore\n        /* \"Practical2-RockPaperScissors-Jason.sol\":3488:3501  userAddresses */\n      0x06\n        /* \"Practical2-RockPaperScissors-Jason.sol\":3488:3518  userAddresses.push(msg.sender) */\n      dup1\n      sload\n      swap3\n      dup4\n      add\n      dup2\n      sstore\n      swap1\n      dup2\n      swap1\n      mstore\n      0xf652222313e28459528d920b65115c16c04f3efc82aaedc97be59f3f377c0d3f\n      swap1\n      swap2\n      add\n      dup1\n      sload\n      not(sub(shl(0xa0, 0x01), 0x01))\n      and\n        /* \"Practical2-RockPaperScissors-Jason.sol\":3507:3517  msg.sender */\n      caller\n        /* \"Practical2-RockPaperScissors-Jason.sol\":3488:3518  userAddresses.push(msg.sender) */\n      or\n      swap1\n      sstore\n        /* \"Practical2-RockPaperScissors-Jason.sol\":3534:3564  sendWaitingPool(userAddresses) */\n      mload(0x40)\n      0x14e40fb773638b86a70b4be5b9adb8cadf42cc23571ea96f58e620df77b3d5a9\n      swap2\n      tag_84\n      swap2\n      tag_85\n      jump\t// in\n    tag_84:\n      mload(0x40)\n      dup1\n      swap2\n      sub\n      swap1\n      log1\n        /* \"Practical2-RockPaperScissors-Jason.sol\":3670:3681  waitingPool */\n      0x05\n        /* \"Practical2-RockPaperScissors-Jason.sol\":3670:3688  waitingPool.length */\n      sload\n        /* \"Practical2-RockPaperScissors-Jason.sol\":3692:3693  6 */\n      0x06\n        /* \"Practical2-RockPaperScissors-Jason.sol\":3670:3693  waitingPool.length == 6 */\n      sub\n        /* \"Practical2-RockPaperScissors-Jason.sol\":3667:3768  if(waitingPool.length == 6){... */\n      tag_87\n      jumpi\n        /* \"Practical2-RockPaperScissors-Jason.sol\":3739:3757  choosePlayerPlay() */\n      tag_87\n        /* \"Practical2-RockPaperScissors-Jason.sol\":3739:3755  choosePlayerPlay */\n      tag_88\n        /* \"Practical2-RockPaperScissors-Jason.sol\":3739:3757  choosePlayerPlay() */\n      jump\t// in\n    tag_87:\n      pop\n      pop\n        /* \"Practical2-RockPaperScissors-Jason.sol\":2438:2444  locked */\n      0x03\n        /* \"Practical2-RockPaperScissors-Jason.sol\":2438:2452  locked = false */\n      dup1\n      sload\n      not(0xff)\n      and\n      swap1\n      sstore\n      pop\n        /* \"Practical2-RockPaperScissors-Jason.sol\":2524:3774  function getUserOption(uint option) external noReentrancy{... */\n      jump\t// out\n        /* \"Practical2-RockPaperScissors-Jason.sol\":1600:1707  function showWaitingPoll () external view returns (UserInfo[] memory) {... */\n    tag_25:\n        /* \"Practical2-RockPaperScissors-Jason.sol\":1651:1668  UserInfo[] memory */\n      0x60\n        /* \"Practical2-RockPaperScissors-Jason.sol\":1688:1699  waitingPool */\n      0x05\n        /* \"Practical2-RockPaperScissors-Jason.sol\":1680:1700  return (waitingPool) */\n      dup1\n      sload\n      dup1\n      0x20\n      mul\n      0x20\n      add\n      mload(0x40)\n      swap1\n      dup2\n      add\n      0x40\n      mstore\n      dup1\n      swap3\n      swap2\n      swap1\n      dup2\n      dup2\n      mstore\n      0x20\n      add\n      0x00\n      swap1\n    tag_90:\n      dup3\n      dup3\n      lt\n      iszero\n      tag_37\n      jumpi\n      0x00\n      dup5\n      dup2\n      mstore\n      0x20\n      swap1\n      dup2\n      swap1\n      keccak256\n      0x40\n      dup1\n      mload\n      dup1\n      dup3\n      add\n      swap1\n      swap2\n      mstore\n      0x02\n      dup6\n      mul\n      swap1\n      swap2\n      add\n      dup1\n      sload\n      sub(shl(0xa0, 0x01), 0x01)\n      and\n      dup3\n      mstore\n      0x01\n      swap1\n      dup2\n      add\n      sload\n      dup3\n      dup5\n      add\n      mstore\n      swap1\n      dup4\n      mstore\n      swap1\n      swap3\n      add\n      swap2\n      add\n      jump(tag_90)\n        /* \"Practical2-RockPaperScissors-Jason.sol\":1978:2226  function getSpecificGameHistory (uint index) external view returns(GameInfo memory){... */\n    tag_30:\n        /* \"Practical2-RockPaperScissors-Jason.sol\":2045:2060  GameInfo memory */\n      tag_93\n      tag_94\n      jump\t// in\n    tag_93:\n        /* \"Practical2-RockPaperScissors-Jason.sol\":2138:2149  gameHistory */\n      0x02\n        /* \"Practical2-RockPaperScissors-Jason.sol\":2138:2156  gameHistory.length */\n      sload\n        /* \"Practical2-RockPaperScissors-Jason.sol\":2129:2156  index <= gameHistory.length */\n      dup3\n      gt\n      iszero\n        /* \"Practical2-RockPaperScissors-Jason.sol\":2121:2182  require(index <= gameHistory.length, \"Error: Invalid length\") */\n      tag_96\n      jumpi\n      mload(0x40)\n      shl(0xe5, 0x461bcd)\n      dup2\n      mstore\n        /* \"#utility.yul\":6963:6965   */\n      0x20\n        /* \"Practical2-RockPaperScissors-Jason.sol\":2121:2182  require(index <= gameHistory.length, \"Error: Invalid length\") */\n      0x04\n      dup3\n      add\n        /* \"#utility.yul\":6945:6966   */\n      mstore\n        /* \"#utility.yul\":7002:7004   */\n      0x15\n        /* \"#utility.yul\":6982:7000   */\n      0x24\n      dup3\n      add\n        /* \"#utility.yul\":6975:7005   */\n      mstore\n      shl(0x5b, 0x08ae4e4dee4744092dcecc2d8d2c840d8cadccee8d)\n        /* \"#utility.yul\":7021:7039   */\n      0x44\n      dup3\n      add\n        /* \"#utility.yul\":7014:7065   */\n      mstore\n        /* \"#utility.yul\":7082:7100   */\n      0x64\n      add\n        /* \"Practical2-RockPaperScissors-Jason.sol\":2121:2182  require(index <= gameHistory.length, \"Error: Invalid length\") */\n      tag_47\n        /* \"#utility.yul\":6761:7106   */\n      jump\n        /* \"Practical2-RockPaperScissors-Jason.sol\":2121:2182  require(index <= gameHistory.length, \"Error: Invalid length\") */\n    tag_96:\n        /* \"Practical2-RockPaperScissors-Jason.sol\":2200:2211  gameHistory */\n      0x02\n        /* \"Practical2-RockPaperScissors-Jason.sol\":2212:2217  index */\n      dup3\n        /* \"Practical2-RockPaperScissors-Jason.sol\":2200:2218  gameHistory[index] */\n      dup2\n      sload\n      dup2\n      lt\n      tag_100\n      jumpi\n      tag_100\n      tag_61\n      jump\t// in\n    tag_100:\n      0x00\n      swap2\n      dup3\n      mstore\n      0x20\n      swap2\n      dup3\n      swap1\n      keccak256\n        /* \"Practical2-RockPaperScissors-Jason.sol\":2192:2219  return (gameHistory[index]) */\n      0x40\n      dup1\n      mload\n      0xa0\n      dup2\n      add\n      dup3\n      mstore\n        /* \"Practical2-RockPaperScissors-Jason.sol\":2200:2218  gameHistory[index] */\n      0x05\n      swap1\n      swap4\n      mul\n      swap1\n      swap2\n      add\n        /* \"Practical2-RockPaperScissors-Jason.sol\":2192:2219  return (gameHistory[index]) */\n      dup1\n      sload\n      sub(shl(0xa0, 0x01), 0x01)\n      swap1\n      dup2\n      and\n      0x60\n      dup6\n      add\n      swap1\n      dup2\n      mstore\n      0x01\n      dup4\n      add\n      sload\n      0x80\n      dup7\n      add\n      mstore\n      dup5\n      mstore\n      dup3\n      mload\n      dup1\n      dup5\n      add\n      dup5\n      mstore\n      0x02\n      dup4\n      add\n      sload\n      swap1\n      swap2\n      and\n      dup2\n      mstore\n      0x03\n      dup3\n      add\n      sload\n      dup2\n      dup7\n      add\n      mstore\n      swap4\n      dup4\n      add\n      swap4\n      swap1\n      swap4\n      mstore\n      0x04\n      dup4\n      add\n      dup1\n      sload\n      swap3\n      swap4\n        /* \"Practical2-RockPaperScissors-Jason.sol\":2200:2218  gameHistory[index] */\n      swap3\n      swap2\n      dup5\n      add\n      swap2\n        /* \"Practical2-RockPaperScissors-Jason.sol\":2192:2219  return (gameHistory[index]) */\n      tag_102\n      swap1\n      tag_40\n      jump\t// in\n    tag_102:\n      dup1\n      0x1f\n      add\n      0x20\n      dup1\n      swap2\n      div\n      mul\n      0x20\n      add\n      mload(0x40)\n      swap1\n      dup2\n      add\n      0x40\n      mstore\n      dup1\n      swap3\n      swap2\n      swap1\n      dup2\n      dup2\n      mstore\n      0x20\n      add\n      dup3\n      dup1\n      sload\n      tag_103\n      swap1\n      tag_40\n      jump\t// in\n    tag_103:\n      dup1\n      iszero\n      tag_104\n      jumpi\n      dup1\n      0x1f\n      lt\n      tag_105\n      jumpi\n      0x0100\n      dup1\n      dup4\n      sload\n      div\n      mul\n      dup4\n      mstore\n      swap2\n      0x20\n      add\n      swap2\n      jump(tag_104)\n    tag_105:\n      dup3\n      add\n      swap2\n      swap1\n      0x00\n      mstore\n      keccak256(0x00, 0x20)\n      swap1\n    tag_106:\n      dup2\n      sload\n      dup2\n      mstore\n      swap1\n      0x01\n      add\n      swap1\n      0x20\n      add\n      dup1\n      dup4\n      gt\n      tag_106\n      jumpi\n      dup3\n      swap1\n      sub\n      0x1f\n      and\n      dup3\n      add\n      swap2\n    tag_104:\n      pop\n      pop\n      pop\n      pop\n      pop\n      dup2\n      mstore\n      pop\n      pop\n      swap1\n      pop\n        /* \"Practical2-RockPaperScissors-Jason.sol\":1978:2226  function getSpecificGameHistory (uint index) external view returns(GameInfo memory){... */\n      swap2\n      swap1\n      pop\n      jump\t// out\n        /* \"Practical2-RockPaperScissors-Jason.sol\":3781:4297  function choosePlayerPlay () private {... */\n    tag_88:\n        /* \"Practical2-RockPaperScissors-Jason.sol\":3999:4020  UserInfo memory user1 */\n      0x00\n        /* \"Practical2-RockPaperScissors-Jason.sol\":4023:4041  ChooseRandomUser() */\n      tag_111\n        /* \"Practical2-RockPaperScissors-Jason.sol\":4023:4039  ChooseRandomUser */\n      tag_112\n        /* \"Practical2-RockPaperScissors-Jason.sol\":4023:4041  ChooseRandomUser() */\n      jump\t// in\n    tag_111:\n        /* \"Practical2-RockPaperScissors-Jason.sol\":3999:4041  UserInfo memory user1 = ChooseRandomUser() */\n      swap1\n      pop\n        /* \"Practical2-RockPaperScissors-Jason.sol\":4055:4076  UserInfo memory user2 */\n      0x00\n        /* \"Practical2-RockPaperScissors-Jason.sol\":4079:4097  ChooseRandomUser() */\n      tag_113\n        /* \"Practical2-RockPaperScissors-Jason.sol\":4079:4095  ChooseRandomUser */\n      tag_112\n        /* \"Practical2-RockPaperScissors-Jason.sol\":4079:4097  ChooseRandomUser() */\n      jump\t// in\n    tag_113:\n        /* \"Practical2-RockPaperScissors-Jason.sol\":4055:4097  UserInfo memory user2 = ChooseRandomUser() */\n      swap1\n      pop\n        /* \"Practical2-RockPaperScissors-Jason.sol\":4169:4187  game(user1, user2) */\n      tag_114\n        /* \"Practical2-RockPaperScissors-Jason.sol\":4174:4179  user1 */\n      dup3\n        /* \"Practical2-RockPaperScissors-Jason.sol\":4181:4186  user2 */\n      dup3\n        /* \"Practical2-RockPaperScissors-Jason.sol\":4169:4173  game */\n      tag_115\n        /* \"Practical2-RockPaperScissors-Jason.sol\":4169:4187  game(user1, user2) */\n      jump\t// in\n    tag_114:\n      pop\n      pop\n        /* \"Practical2-RockPaperScissors-Jason.sol\":4215:4226  waitingPool */\n      0x05\n        /* \"Practical2-RockPaperScissors-Jason.sol\":4215:4233  waitingPool.length */\n      sload\n        /* \"Practical2-RockPaperScissors-Jason.sol\":4237:4238  0 */\n      0x00\n        /* \"Practical2-RockPaperScissors-Jason.sol\":4215:4238  waitingPool.length != 0 */\n      sub\n        /* \"Practical2-RockPaperScissors-Jason.sol\":3837:4240  do {... */\n      tag_88\n      jumpi\n        /* \"Practical2-RockPaperScissors-Jason.sol\":4270:4281  waitingPool */\n      0x05\n        /* \"Practical2-RockPaperScissors-Jason.sol\":4270:4288  waitingPool.length */\n      sload\n        /* \"Practical2-RockPaperScissors-Jason.sol\":4254:4289  showArraylenght(waitingPool.length) */\n      mload(0x40)\n        /* \"#utility.yul\":2089:2114   */\n      swap1\n      dup2\n      mstore\n        /* \"Practical2-RockPaperScissors-Jason.sol\":4254:4289  showArraylenght(waitingPool.length) */\n      0x1f237084c29a99316238004a5870904571dbc9ff0d357b8b85cceacb5512a850\n      swap1\n        /* \"#utility.yul\":2077:2079   */\n      0x20\n        /* \"#utility.yul\":2062:2080   */\n      add\n        /* \"Practical2-RockPaperScissors-Jason.sol\":4254:4289  showArraylenght(waitingPool.length) */\n      mload(0x40)\n      dup1\n      swap2\n      sub\n      swap1\n      log1\n        /* \"Practical2-RockPaperScissors-Jason.sol\":3781:4297  function choosePlayerPlay () private {... */\n      jump\t// out\n        /* \"Practical2-RockPaperScissors-Jason.sol\":4303:4992  function ChooseRandomUser () private returns (UserInfo memory){... */\n    tag_112:\n      0x40\n      dup1\n      mload\n      dup1\n      dup3\n      add\n      swap1\n      swap2\n      mstore\n      0x00\n      dup1\n      dup3\n      mstore\n      0x20\n      dup3\n      add\n      mstore\n        /* \"Practical2-RockPaperScissors-Jason.sol\":4383:4394  waitingPool */\n      0x05\n        /* \"Practical2-RockPaperScissors-Jason.sol\":4383:4401  waitingPool.length */\n      sload\n        /* \"Practical2-RockPaperScissors-Jason.sol\":4375:4424  require(waitingPool.length > 0, \"Array is empty\") */\n      tag_119\n      jumpi\n      mload(0x40)\n      shl(0xe5, 0x461bcd)\n      dup2\n      mstore\n        /* \"#utility.yul\":7313:7315   */\n      0x20\n        /* \"Practical2-RockPaperScissors-Jason.sol\":4375:4424  require(waitingPool.length > 0, \"Array is empty\") */\n      0x04\n      dup3\n      add\n        /* \"#utility.yul\":7295:7316   */\n      mstore\n        /* \"#utility.yul\":7352:7354   */\n      0x0e\n        /* \"#utility.yul\":7332:7350   */\n      0x24\n      dup3\n      add\n        /* \"#utility.yul\":7325:7355   */\n      mstore\n      shl(0x90, 0x417272617920697320656d707479)\n        /* \"#utility.yul\":7371:7389   */\n      0x44\n      dup3\n      add\n        /* \"#utility.yul\":7364:7408   */\n      mstore\n        /* \"#utility.yul\":7425:7443   */\n      0x64\n      add\n        /* \"Practical2-RockPaperScissors-Jason.sol\":4375:4424  require(waitingPool.length > 0, \"Array is empty\") */\n      tag_47\n        /* \"#utility.yul\":7111:7449   */\n      jump\n        /* \"Practical2-RockPaperScissors-Jason.sol\":4375:4424  require(waitingPool.length > 0, \"Array is empty\") */\n    tag_119:\n        /* \"Practical2-RockPaperScissors-Jason.sol\":4606:4617  waitingPool */\n      0x05\n        /* \"Practical2-RockPaperScissors-Jason.sol\":4606:4624  waitingPool.length */\n      sload\n        /* \"Practical2-RockPaperScissors-Jason.sol\":4596:4600  salt */\n      sload(0x04)\n        /* \"Practical2-RockPaperScissors-Jason.sol\":4544:4601  abi.encodePacked(block.difficulty, block.timestamp, salt) */\n      0x40\n      dup1\n      mload\n        /* \"Practical2-RockPaperScissors-Jason.sol\":4561:4577  block.difficulty */\n      prevrandao\n        /* \"Practical2-RockPaperScissors-Jason.sol\":4544:4601  abi.encodePacked(block.difficulty, block.timestamp, salt) */\n      0x20\n      dup3\n      add\n        /* \"#utility.yul\":7639:7658   */\n      mstore\n        /* \"Practical2-RockPaperScissors-Jason.sol\":4579:4594  block.timestamp */\n      timestamp\n        /* \"#utility.yul\":7674:7686   */\n      swap2\n      dup2\n      add\n        /* \"#utility.yul\":7667:7695   */\n      swap2\n      swap1\n      swap2\n      mstore\n        /* \"#utility.yul\":7711:7723   */\n      0x60\n      dup2\n      add\n        /* \"#utility.yul\":7704:7732   */\n      swap2\n      swap1\n      swap2\n      mstore\n        /* \"Practical2-RockPaperScissors-Jason.sol\":4504:4523  uint256 randomIndex */\n      0x00\n      swap2\n        /* \"Practical2-RockPaperScissors-Jason.sol\":4606:4624  waitingPool.length */\n      swap1\n        /* \"#utility.yul\":7748:7760   */\n      0x80\n      add\n        /* \"Practical2-RockPaperScissors-Jason.sol\":4544:4601  abi.encodePacked(block.difficulty, block.timestamp, salt) */\n      mload(0x40)\n      0x20\n      dup2\n      dup4\n      sub\n      sub\n      dup2\n      mstore\n      swap1\n      0x40\n      mstore\n        /* \"Practical2-RockPaperScissors-Jason.sol\":4534:4602  keccak256(abi.encodePacked(block.difficulty, block.timestamp, salt)) */\n      dup1\n      mload\n      swap1\n      0x20\n      add\n      keccak256\n        /* \"Practical2-RockPaperScissors-Jason.sol\":4526:4603  uint256(keccak256(abi.encodePacked(block.difficulty, block.timestamp, salt))) */\n      0x00\n      shr\n        /* \"Practical2-RockPaperScissors-Jason.sol\":4526:4624  uint256(keccak256(abi.encodePacked(block.difficulty, block.timestamp, salt))) % waitingPool.length */\n      tag_124\n      swap2\n      swap1\n      tag_125\n      jump\t// in\n    tag_124:\n        /* \"Practical2-RockPaperScissors-Jason.sol\":4634:4638  salt */\n      0x04\n        /* \"Practical2-RockPaperScissors-Jason.sol\":4634:4640  salt++ */\n      dup1\n      sload\n        /* \"Practical2-RockPaperScissors-Jason.sol\":4504:4624  uint256 randomIndex = uint256(keccak256(abi.encodePacked(block.difficulty, block.timestamp, salt))) % waitingPool.length */\n      swap2\n      swap3\n      pop\n        /* \"Practical2-RockPaperScissors-Jason.sol\":4634:4638  salt */\n      0x00\n        /* \"Practical2-RockPaperScissors-Jason.sol\":4634:4640  salt++ */\n      tag_126\n      dup4\n      tag_70\n      jump\t// in\n    tag_126:\n      swap2\n      swap1\n      pop\n      sstore\n      pop\n        /* \"Practical2-RockPaperScissors-Jason.sol\":4695:4721  UserInfo memory randomUser */\n      0x00\n        /* \"Practical2-RockPaperScissors-Jason.sol\":4724:4735  waitingPool */\n      0x05\n        /* \"Practical2-RockPaperScissors-Jason.sol\":4736:4747  randomIndex */\n      dup3\n        /* \"Practical2-RockPaperScissors-Jason.sol\":4724:4748  waitingPool[randomIndex] */\n      dup2\n      sload\n      dup2\n      lt\n      tag_128\n      jumpi\n      tag_128\n      tag_61\n      jump\t// in\n    tag_128:\n      0x00\n      swap2\n      dup3\n      mstore\n      0x20\n      swap2\n      dup3\n      swap1\n      keccak256\n        /* \"Practical2-RockPaperScissors-Jason.sol\":4695:4748  UserInfo memory randomUser = waitingPool[randomIndex] */\n      0x40\n      dup1\n      mload\n      dup1\n      dup3\n      add\n      swap1\n      swap2\n      mstore\n        /* \"Practical2-RockPaperScissors-Jason.sol\":4724:4748  waitingPool[randomIndex] */\n      0x02\n      swap1\n      swap3\n      mul\n      add\n        /* \"Practical2-RockPaperScissors-Jason.sol\":4695:4748  UserInfo memory randomUser = waitingPool[randomIndex] */\n      dup1\n      sload\n      sub(shl(0xa0, 0x01), 0x01)\n      and\n      dup3\n      mstore\n      0x01\n      swap1\n      dup2\n      add\n      sload\n      swap3\n      dup3\n      add\n      swap3\n      swap1\n      swap3\n      mstore\n        /* \"Practical2-RockPaperScissors-Jason.sol\":4895:4906  waitingPool */\n      0x05\n        /* \"Practical2-RockPaperScissors-Jason.sol\":4907:4925  waitingPool.length */\n      dup1\n      sload\n        /* \"Practical2-RockPaperScissors-Jason.sol\":4695:4748  UserInfo memory randomUser = waitingPool[randomIndex] */\n      swap2\n      swap4\n      pop\n        /* \"Practical2-RockPaperScissors-Jason.sol\":4895:4906  waitingPool */\n      swap2\n        /* \"Practical2-RockPaperScissors-Jason.sol\":4907:4929  waitingPool.length - 1 */\n      tag_130\n      swap2\n      tag_75\n      jump\t// in\n    tag_130:\n        /* \"Practical2-RockPaperScissors-Jason.sol\":4895:4930  waitingPool[waitingPool.length - 1] */\n      dup2\n      sload\n      dup2\n      lt\n      tag_132\n      jumpi\n      tag_132\n      tag_61\n      jump\t// in\n    tag_132:\n      swap1\n      0x00\n      mstore\n      keccak256(0x00, 0x20)\n      swap1\n      0x02\n      mul\n      add\n        /* \"Practical2-RockPaperScissors-Jason.sol\":4868:4879  waitingPool */\n      0x05\n        /* \"Practical2-RockPaperScissors-Jason.sol\":4880:4891  randomIndex */\n      dup4\n        /* \"Practical2-RockPaperScissors-Jason.sol\":4868:4892  waitingPool[randomIndex] */\n      dup2\n      sload\n      dup2\n      lt\n      tag_135\n      jumpi\n      tag_135\n      tag_61\n      jump\t// in\n    tag_135:\n      0x00\n      swap2\n      dup3\n      mstore\n      0x20\n      swap1\n      swap2\n      keccak256\n        /* \"Practical2-RockPaperScissors-Jason.sol\":4868:4930  waitingPool[randomIndex] = waitingPool[waitingPool.length - 1] */\n      dup3\n      sload\n        /* \"Practical2-RockPaperScissors-Jason.sol\":4868:4892  waitingPool[randomIndex] */\n      0x02\n      swap1\n      swap3\n      mul\n      add\n        /* \"Practical2-RockPaperScissors-Jason.sol\":4868:4930  waitingPool[randomIndex] = waitingPool[waitingPool.length - 1] */\n      dup1\n      sload\n      not(sub(shl(0xa0, 0x01), 0x01))\n      and\n      sub(shl(0xa0, 0x01), 0x01)\n      swap1\n      swap3\n      and\n      swap2\n      swap1\n      swap2\n      or\n      dup2\n      sstore\n      0x01\n      swap2\n      dup3\n      add\n      sload\n      swap2\n      add\n      sstore\n        /* \"Practical2-RockPaperScissors-Jason.sol\":4940:4951  waitingPool */\n      0x05\n        /* \"Practical2-RockPaperScissors-Jason.sol\":4940:4957  waitingPool.pop() */\n      dup1\n      sload\n      dup1\n      tag_138\n      jumpi\n      tag_138\n      tag_139\n      jump\t// in\n    tag_138:\n      0x00\n      dup3\n      dup2\n      mstore\n      0x20\n      dup2\n      keccak256\n      0x02\n      not(0x00)\n      swap1\n      swap4\n      add\n      swap3\n      dup4\n      mul\n      add\n      dup1\n      sload\n      not(sub(shl(0xa0, 0x01), 0x01))\n      and\n      dup2\n      sstore\n      0x01\n      add\n      sstore\n      swap1\n      sstore\n        /* \"Practical2-RockPaperScissors-Jason.sol\":4975:4985  randomUser */\n      swap3\n        /* \"Practical2-RockPaperScissors-Jason.sol\":4303:4992  function ChooseRandomUser () private returns (UserInfo memory){... */\n      swap2\n      pop\n      pop\n      jump\t// out\n        /* \"Practical2-RockPaperScissors-Jason.sol\":4998:6508  function game (UserInfo memory userOne, UserInfo memory userTwo) private {... */\n    tag_115:\n        /* \"Practical2-RockPaperScissors-Jason.sol\":5139:5163  GameInfo memory gameinfo */\n      tag_142\n      tag_94\n      jump\t// in\n    tag_142:\n        /* \"Practical2-RockPaperScissors-Jason.sol\":5173:5184  gameHistory */\n      0x02\n        /* \"Practical2-RockPaperScissors-Jason.sol\":5173:5199  gameHistory.push(gameinfo) */\n      dup1\n      sload\n      0x01\n      dup2\n      add\n      dup3\n      sstore\n      0x00\n      swap2\n      swap1\n      swap2\n      mstore\n      dup2\n      mload\n      dup1\n      mload\n      0x405787fa12a823e0f2b7631cc41b3ba8828b3321ca811111fa75cd3aa3bb5ace\n      0x05\n      swap1\n      swap4\n      mul\n      swap3\n      dup4\n      add\n      dup1\n      sload\n      not(sub(shl(0xa0, 0x01), 0x01))\n      swap1\n      dup2\n      and\n      sub(shl(0xa0, 0x01), 0x01)\n      swap4\n      dup5\n      and\n      or\n      dup3\n      sstore\n      0x20\n      swap4\n      dup5\n      add\n      mload\n      0x405787fa12a823e0f2b7631cc41b3ba8828b3321ca811111fa75cd3aa3bb5acf\n      dup7\n      add\n      sstore\n      dup4\n      dup7\n      add\n      mload\n      dup1\n      mload\n      0x405787fa12a823e0f2b7631cc41b3ba8828b3321ca811111fa75cd3aa3bb5ad0\n      dup8\n      add\n      dup1\n      sload\n      swap1\n      swap4\n      and\n      swap5\n      and\n      swap4\n      swap1\n      swap4\n      or\n      swap1\n      sstore\n      swap2\n      add\n      mload\n      0x405787fa12a823e0f2b7631cc41b3ba8828b3321ca811111fa75cd3aa3bb5ad1\n      dup4\n      add\n      sstore\n      0x40\n      dup4\n      add\n      mload\n      dup4\n      swap3\n      0x405787fa12a823e0f2b7631cc41b3ba8828b3321ca811111fa75cd3aa3bb5ad2\n      add\n      swap1\n      tag_144\n      swap1\n      dup3\n      tag_145\n      jump\t// in\n    tag_144:\n      pop\n      pop\n        /* \"Practical2-RockPaperScissors-Jason.sol\":5264:5275  gameHistory */\n      0x02\n        /* \"Practical2-RockPaperScissors-Jason.sol\":5276:5294  gameHistory.length */\n      dup1\n      sload\n        /* \"Practical2-RockPaperScissors-Jason.sol\":5308:5315  userOne */\n      dup6\n      swap3\n      pop\n        /* \"Practical2-RockPaperScissors-Jason.sol\":5276:5298  gameHistory.length - 1 */\n      tag_146\n      swap1\n        /* \"Practical2-RockPaperScissors-Jason.sol\":5297:5298  1 */\n      0x01\n      swap1\n        /* \"Practical2-RockPaperScissors-Jason.sol\":5276:5298  gameHistory.length - 1 */\n      tag_75\n      jump\t// in\n    tag_146:\n        /* \"Practical2-RockPaperScissors-Jason.sol\":5264:5299  gameHistory[gameHistory.length - 1] */\n      dup2\n      sload\n      dup2\n      lt\n      tag_148\n      jumpi\n      tag_148\n      tag_61\n      jump\t// in\n    tag_148:\n      0x00\n      swap2\n      dup3\n      mstore\n      0x20\n      swap2\n      dup3\n      swap1\n      keccak256\n        /* \"Practical2-RockPaperScissors-Jason.sol\":5264:5315  gameHistory[gameHistory.length - 1].user1 = userOne */\n      dup4\n      mload\n        /* \"Practical2-RockPaperScissors-Jason.sol\":5264:5299  gameHistory[gameHistory.length - 1] */\n      0x05\n      swap3\n      swap1\n      swap3\n      mul\n      add\n        /* \"Practical2-RockPaperScissors-Jason.sol\":5264:5315  gameHistory[gameHistory.length - 1].user1 = userOne */\n      dup1\n      sload\n      not(sub(shl(0xa0, 0x01), 0x01))\n      and\n      sub(shl(0xa0, 0x01), 0x01)\n      swap1\n      swap3\n      and\n      swap2\n      swap1\n      swap2\n      or\n      dup2\n      sstore\n      swap2\n      add\n      mload\n      0x01\n      swap2\n      dup3\n      add\n      sstore\n        /* \"Practical2-RockPaperScissors-Jason.sol\":5325:5336  gameHistory */\n      0x02\n        /* \"Practical2-RockPaperScissors-Jason.sol\":5337:5355  gameHistory.length */\n      dup1\n      sload\n        /* \"Practical2-RockPaperScissors-Jason.sol\":5369:5376  userTwo */\n      dup5\n      swap3\n        /* \"Practical2-RockPaperScissors-Jason.sol\":5337:5359  gameHistory.length - 1 */\n      tag_150\n      swap2\n      tag_75\n      jump\t// in\n    tag_150:\n        /* \"Practical2-RockPaperScissors-Jason.sol\":5325:5360  gameHistory[gameHistory.length - 1] */\n      dup2\n      sload\n      dup2\n      lt\n      tag_152\n      jumpi\n      tag_152\n      tag_61\n      jump\t// in\n    tag_152:\n      0x00\n      swap2\n      dup3\n      mstore\n      0x20\n      swap2\n      dup3\n      swap1\n      keccak256\n        /* \"Practical2-RockPaperScissors-Jason.sol\":5325:5376  gameHistory[gameHistory.length - 1].user2 = userTwo */\n      dup4\n      mload\n        /* \"Practical2-RockPaperScissors-Jason.sol\":5325:5360  gameHistory[gameHistory.length - 1] */\n      0x05\n      swap3\n      swap1\n      swap3\n      mul\n      add\n        /* \"Practical2-RockPaperScissors-Jason.sol\":5325:5366  gameHistory[gameHistory.length - 1].user2 */\n      0x02\n      dup2\n      dup2\n      add\n        /* \"Practical2-RockPaperScissors-Jason.sol\":5325:5376  gameHistory[gameHistory.length - 1].user2 = userTwo */\n      dup1\n      sload\n      not(sub(shl(0xa0, 0x01), 0x01))\n      and\n      sub(shl(0xa0, 0x01), 0x01)\n      swap1\n      swap5\n      and\n      swap4\n      swap1\n      swap4\n      or\n      swap1\n      swap3\n      sstore\n      swap3\n      swap1\n      swap2\n      add\n      mload\n      0x03\n      swap1\n      swap3\n      add\n      swap2\n      swap1\n      swap2\n      sstore\n        /* \"Practical2-RockPaperScissors-Jason.sol\":5582:5600  gameHistory.length */\n      dup1\n      sload\n        /* \"Practical2-RockPaperScissors-Jason.sol\":5582:5604  gameHistory.length - 1 */\n      tag_154\n      swap1\n      0x01\n      swap1\n      tag_75\n      jump\t// in\n    tag_154:\n        /* \"Practical2-RockPaperScissors-Jason.sol\":5570:5605  gameHistory[gameHistory.length - 1] */\n      dup2\n      sload\n      dup2\n      lt\n      tag_156\n      jumpi\n      tag_156\n      tag_61\n      jump\t// in\n    tag_156:\n      0x00\n      swap2\n      dup3\n      mstore\n      0x20\n      swap1\n      swap2\n      keccak256\n        /* \"Practical2-RockPaperScissors-Jason.sol\":5570:5622  gameHistory[gameHistory.length - 1].user2.userOption */\n      0x03\n        /* \"Practical2-RockPaperScissors-Jason.sol\":5570:5605  gameHistory[gameHistory.length - 1] */\n      0x05\n      swap1\n      swap3\n      mul\n      add\n        /* \"Practical2-RockPaperScissors-Jason.sol\":5570:5622  gameHistory[gameHistory.length - 1].user2.userOption */\n      add\n      sload\n        /* \"Practical2-RockPaperScissors-Jason.sol\":5570:5611  gameHistory[gameHistory.length - 1].user2 */\n      0x02\n        /* \"Practical2-RockPaperScissors-Jason.sol\":5526:5544  gameHistory.length */\n      dup1\n      sload\n        /* \"Practical2-RockPaperScissors-Jason.sol\":5526:5548  gameHistory.length - 1 */\n      tag_158\n      swap1\n        /* \"Practical2-RockPaperScissors-Jason.sol\":5570:5622  gameHistory[gameHistory.length - 1].user2.userOption */\n      0x01\n      swap1\n        /* \"Practical2-RockPaperScissors-Jason.sol\":5526:5548  gameHistory.length - 1 */\n      tag_75\n      jump\t// in\n    tag_158:\n        /* \"Practical2-RockPaperScissors-Jason.sol\":5514:5549  gameHistory[gameHistory.length - 1] */\n      dup2\n      sload\n      dup2\n      lt\n      tag_160\n      jumpi\n      tag_160\n      tag_61\n      jump\t// in\n    tag_160:\n      swap1\n      0x00\n      mstore\n      keccak256(0x00, 0x20)\n      swap1\n      0x05\n      mul\n      add\n        /* \"Practical2-RockPaperScissors-Jason.sol\":5514:5555  gameHistory[gameHistory.length - 1].user1 */\n      0x00\n      add\n        /* \"Practical2-RockPaperScissors-Jason.sol\":5514:5566  gameHistory[gameHistory.length - 1].user1.userOption */\n      0x01\n      add\n      sload\n        /* \"Practical2-RockPaperScissors-Jason.sol\":5514:5622  gameHistory[gameHistory.length - 1].user1.userOption == gameHistory[gameHistory.length - 1].user2.userOption */\n      sub\n        /* \"Practical2-RockPaperScissors-Jason.sol\":5510:6502  if (gameHistory[gameHistory.length - 1].user1.userOption == gameHistory[gameHistory.length - 1].user2.userOption) {... */\n      tag_162\n      jumpi\n        /* \"Practical2-RockPaperScissors-Jason.sol\":5638:5694  gameHistory[gameHistory.length - 1].finalResult = \"Tied\" */\n      0x40\n      dup1\n      mload\n      dup1\n      dup3\n      add\n      swap1\n      swap2\n      mstore\n      0x04\n      dup2\n      mstore\n      shl(0xe2, 0x151a5959)\n      0x20\n      dup3\n      add\n      mstore\n        /* \"Practical2-RockPaperScissors-Jason.sol\":5638:5649  gameHistory */\n      0x02\n        /* \"Practical2-RockPaperScissors-Jason.sol\":5650:5668  gameHistory.length */\n      dup1\n      sload\n        /* \"Practical2-RockPaperScissors-Jason.sol\":5650:5672  gameHistory.length - 1 */\n      tag_163\n      swap1\n        /* \"Practical2-RockPaperScissors-Jason.sol\":5671:5672  1 */\n      0x01\n      swap1\n        /* \"Practical2-RockPaperScissors-Jason.sol\":5650:5672  gameHistory.length - 1 */\n      tag_75\n      jump\t// in\n    tag_163:\n        /* \"Practical2-RockPaperScissors-Jason.sol\":5638:5673  gameHistory[gameHistory.length - 1] */\n      dup2\n      sload\n      dup2\n      lt\n      tag_165\n      jumpi\n      tag_165\n      tag_61\n      jump\t// in\n    tag_165:\n      swap1\n      0x00\n      mstore\n      keccak256(0x00, 0x20)\n      swap1\n      0x05\n      mul\n      add\n        /* \"Practical2-RockPaperScissors-Jason.sol\":5638:5685  gameHistory[gameHistory.length - 1].finalResult */\n      0x04\n      add\n        /* \"Practical2-RockPaperScissors-Jason.sol\":5638:5694  gameHistory[gameHistory.length - 1].finalResult = \"Tied\" */\n      swap1\n      dup2\n      tag_167\n      swap2\n      swap1\n      tag_145\n      jump\t// in\n    tag_167:\n      pop\n        /* \"Practical2-RockPaperScissors-Jason.sol\":5713:5731  showResult(\"Tied\") */\n      0xcde5c32c0a45fd8aa4b65ea8003fc9da9acd5e2c6c24a9fcce6ab79cabbd9122\n      mload(0x40)\n      tag_168\n      swap1\n        /* \"#utility.yul\":10540:10542   */\n      0x20\n        /* \"#utility.yul\":10522:10543   */\n      dup1\n      dup3\n      mstore\n        /* \"#utility.yul\":10579:10580   */\n      0x04\n        /* \"#utility.yul\":10559:10577   */\n      swap1\n      dup3\n      add\n        /* \"#utility.yul\":10552:10581   */\n      mstore\n      shl(0xe2, 0x151a5959)\n        /* \"#utility.yul\":10612:10614   */\n      0x40\n        /* \"#utility.yul\":10597:10615   */\n      dup3\n      add\n        /* \"#utility.yul\":10590:10624   */\n      mstore\n        /* \"#utility.yul\":10656:10658   */\n      0x60\n        /* \"#utility.yul\":10641:10659   */\n      add\n      swap1\n        /* \"#utility.yul\":10338:10665   */\n      jump\n        /* \"Practical2-RockPaperScissors-Jason.sol\":5713:5731  showResult(\"Tied\") */\n    tag_168:\n      mload(0x40)\n      dup1\n      swap2\n      sub\n      swap1\n      log1\n        /* \"Practical2-RockPaperScissors-Jason.sol\":5071:6508  {... */\n      pop\n        /* \"Practical2-RockPaperScissors-Jason.sol\":4998:6508  function game (UserInfo memory userOne, UserInfo memory userTwo) private {... */\n      pop\n      pop\n      jump\t// out\n        /* \"Practical2-RockPaperScissors-Jason.sol\":5510:6502  if (gameHistory[gameHistory.length - 1].user1.userOption == gameHistory[gameHistory.length - 1].user2.userOption) {... */\n    tag_162:\n        /* \"Practical2-RockPaperScissors-Jason.sol\":5792:5803  gameHistory */\n      0x02\n        /* \"Practical2-RockPaperScissors-Jason.sol\":5804:5822  gameHistory.length */\n      dup1\n      sload\n        /* \"Practical2-RockPaperScissors-Jason.sol\":5804:5826  gameHistory.length - 1 */\n      tag_171\n      swap1\n        /* \"Practical2-RockPaperScissors-Jason.sol\":5825:5826  1 */\n      0x01\n      swap1\n        /* \"Practical2-RockPaperScissors-Jason.sol\":5804:5826  gameHistory.length - 1 */\n      tag_75\n      jump\t// in\n    tag_171:\n        /* \"Practical2-RockPaperScissors-Jason.sol\":5792:5827  gameHistory[gameHistory.length - 1] */\n      dup2\n      sload\n      dup2\n      lt\n      tag_173\n      jumpi\n      tag_173\n      tag_61\n      jump\t// in\n    tag_173:\n      swap1\n      0x00\n      mstore\n      keccak256(0x00, 0x20)\n      swap1\n      0x05\n      mul\n      add\n        /* \"Practical2-RockPaperScissors-Jason.sol\":5792:5833  gameHistory[gameHistory.length - 1].user1 */\n      0x00\n      add\n        /* \"Practical2-RockPaperScissors-Jason.sol\":5792:5844  gameHistory[gameHistory.length - 1].user1.userOption */\n      0x01\n      add\n      sload\n        /* \"Practical2-RockPaperScissors-Jason.sol\":5848:5849  1 */\n      0x01\n        /* \"Practical2-RockPaperScissors-Jason.sol\":5792:5849  gameHistory[gameHistory.length - 1].user1.userOption == 1 */\n      eq\n        /* \"Practical2-RockPaperScissors-Jason.sol\":5792:5910  gameHistory[gameHistory.length - 1].user1.userOption == 1 && gameHistory[gameHistory.length - 1].user2.userOption == 2 */\n      dup1\n      iszero\n      tag_175\n      jumpi\n      pop\n        /* \"Practical2-RockPaperScissors-Jason.sol\":5853:5864  gameHistory */\n      0x02\n        /* \"Practical2-RockPaperScissors-Jason.sol\":5865:5883  gameHistory.length */\n      dup1\n      sload\n        /* \"Practical2-RockPaperScissors-Jason.sol\":5865:5887  gameHistory.length - 1 */\n      tag_176\n      swap1\n        /* \"Practical2-RockPaperScissors-Jason.sol\":5886:5887  1 */\n      0x01\n      swap1\n        /* \"Practical2-RockPaperScissors-Jason.sol\":5865:5887  gameHistory.length - 1 */\n      tag_75\n      jump\t// in\n    tag_176:\n        /* \"Practical2-RockPaperScissors-Jason.sol\":5853:5888  gameHistory[gameHistory.length - 1] */\n      dup2\n      sload\n      dup2\n      lt\n      tag_178\n      jumpi\n      tag_178\n      tag_61\n      jump\t// in\n    tag_178:\n      swap1\n      0x00\n      mstore\n      keccak256(0x00, 0x20)\n      swap1\n      0x05\n      mul\n      add\n        /* \"Practical2-RockPaperScissors-Jason.sol\":5853:5894  gameHistory[gameHistory.length - 1].user2 */\n      0x02\n      add\n        /* \"Practical2-RockPaperScissors-Jason.sol\":5853:5905  gameHistory[gameHistory.length - 1].user2.userOption */\n      0x01\n      add\n      sload\n        /* \"Practical2-RockPaperScissors-Jason.sol\":5909:5910  2 */\n      0x02\n        /* \"Practical2-RockPaperScissors-Jason.sol\":5853:5910  gameHistory[gameHistory.length - 1].user2.userOption == 2 */\n      eq\n        /* \"Practical2-RockPaperScissors-Jason.sol\":5792:5910  gameHistory[gameHistory.length - 1].user1.userOption == 1 && gameHistory[gameHistory.length - 1].user2.userOption == 2 */\n    tag_175:\n        /* \"Practical2-RockPaperScissors-Jason.sol\":5791:6051  (gameHistory[gameHistory.length - 1].user1.userOption == 1 && gameHistory[gameHistory.length - 1].user2.userOption == 2) ||... */\n      dup1\n      tag_185\n      jumpi\n      pop\n        /* \"Practical2-RockPaperScissors-Jason.sol\":5932:5943  gameHistory */\n      0x02\n        /* \"Practical2-RockPaperScissors-Jason.sol\":5944:5962  gameHistory.length */\n      dup1\n      sload\n        /* \"Practical2-RockPaperScissors-Jason.sol\":5944:5966  gameHistory.length - 1 */\n      tag_181\n      swap1\n        /* \"Practical2-RockPaperScissors-Jason.sol\":5965:5966  1 */\n      0x01\n      swap1\n        /* \"Practical2-RockPaperScissors-Jason.sol\":5944:5966  gameHistory.length - 1 */\n      tag_75\n      jump\t// in\n    tag_181:\n        /* \"Practical2-RockPaperScissors-Jason.sol\":5932:5967  gameHistory[gameHistory.length - 1] */\n      dup2\n      sload\n      dup2\n      lt\n      tag_183\n      jumpi\n      tag_183\n      tag_61\n      jump\t// in\n    tag_183:\n      swap1\n      0x00\n      mstore\n      keccak256(0x00, 0x20)\n      swap1\n      0x05\n      mul\n      add\n        /* \"Practical2-RockPaperScissors-Jason.sol\":5932:5973  gameHistory[gameHistory.length - 1].user1 */\n      0x00\n      add\n        /* \"Practical2-RockPaperScissors-Jason.sol\":5932:5984  gameHistory[gameHistory.length - 1].user1.userOption */\n      0x01\n      add\n      sload\n        /* \"Practical2-RockPaperScissors-Jason.sol\":5988:5989  3 */\n      0x03\n        /* \"Practical2-RockPaperScissors-Jason.sol\":5932:5989  gameHistory[gameHistory.length - 1].user1.userOption == 3 */\n      eq\n        /* \"Practical2-RockPaperScissors-Jason.sol\":5932:6050  gameHistory[gameHistory.length - 1].user1.userOption == 3 && gameHistory[gameHistory.length - 1].user2.userOption == 1 */\n      dup1\n      iszero\n      tag_185\n      jumpi\n      pop\n        /* \"Practical2-RockPaperScissors-Jason.sol\":5993:6004  gameHistory */\n      0x02\n        /* \"Practical2-RockPaperScissors-Jason.sol\":6005:6023  gameHistory.length */\n      dup1\n      sload\n        /* \"Practical2-RockPaperScissors-Jason.sol\":6005:6027  gameHistory.length - 1 */\n      tag_186\n      swap1\n        /* \"Practical2-RockPaperScissors-Jason.sol\":6026:6027  1 */\n      0x01\n      swap1\n        /* \"Practical2-RockPaperScissors-Jason.sol\":6005:6027  gameHistory.length - 1 */\n      tag_75\n      jump\t// in\n    tag_186:\n        /* \"Practical2-RockPaperScissors-Jason.sol\":5993:6028  gameHistory[gameHistory.length - 1] */\n      dup2\n      sload\n      dup2\n      lt\n      tag_188\n      jumpi\n      tag_188\n      tag_61\n      jump\t// in\n    tag_188:\n      swap1\n      0x00\n      mstore\n      keccak256(0x00, 0x20)\n      swap1\n      0x05\n      mul\n      add\n        /* \"Practical2-RockPaperScissors-Jason.sol\":5993:6034  gameHistory[gameHistory.length - 1].user2 */\n      0x02\n      add\n        /* \"Practical2-RockPaperScissors-Jason.sol\":5993:6045  gameHistory[gameHistory.length - 1].user2.userOption */\n      0x01\n      add\n      sload\n        /* \"Practical2-RockPaperScissors-Jason.sol\":6049:6050  1 */\n      0x01\n        /* \"Practical2-RockPaperScissors-Jason.sol\":5993:6050  gameHistory[gameHistory.length - 1].user2.userOption == 1 */\n      eq\n        /* \"Practical2-RockPaperScissors-Jason.sol\":5932:6050  gameHistory[gameHistory.length - 1].user1.userOption == 3 && gameHistory[gameHistory.length - 1].user2.userOption == 1 */\n    tag_185:\n        /* \"Practical2-RockPaperScissors-Jason.sol\":5791:6191  (gameHistory[gameHistory.length - 1].user1.userOption == 1 && gameHistory[gameHistory.length - 1].user2.userOption == 2) ||... */\n      dup1\n      tag_195\n      jumpi\n      pop\n        /* \"Practical2-RockPaperScissors-Jason.sol\":6072:6083  gameHistory */\n      0x02\n        /* \"Practical2-RockPaperScissors-Jason.sol\":6084:6102  gameHistory.length */\n      dup1\n      sload\n        /* \"Practical2-RockPaperScissors-Jason.sol\":6084:6106  gameHistory.length - 1 */\n      tag_191\n      swap1\n        /* \"Practical2-RockPaperScissors-Jason.sol\":6105:6106  1 */\n      0x01\n      swap1\n        /* \"Practical2-RockPaperScissors-Jason.sol\":6084:6106  gameHistory.length - 1 */\n      tag_75\n      jump\t// in\n    tag_191:\n        /* \"Practical2-RockPaperScissors-Jason.sol\":6072:6107  gameHistory[gameHistory.length - 1] */\n      dup2\n      sload\n      dup2\n      lt\n      tag_193\n      jumpi\n      tag_193\n      tag_61\n      jump\t// in\n    tag_193:\n      swap1\n      0x00\n      mstore\n      keccak256(0x00, 0x20)\n      swap1\n      0x05\n      mul\n      add\n        /* \"Practical2-RockPaperScissors-Jason.sol\":6072:6113  gameHistory[gameHistory.length - 1].user1 */\n      0x00\n      add\n        /* \"Practical2-RockPaperScissors-Jason.sol\":6072:6124  gameHistory[gameHistory.length - 1].user1.userOption */\n      0x01\n      add\n      sload\n        /* \"Practical2-RockPaperScissors-Jason.sol\":6128:6129  2 */\n      0x02\n        /* \"Practical2-RockPaperScissors-Jason.sol\":6072:6129  gameHistory[gameHistory.length - 1].user1.userOption == 2 */\n      eq\n        /* \"Practical2-RockPaperScissors-Jason.sol\":6072:6190  gameHistory[gameHistory.length - 1].user1.userOption == 2 && gameHistory[gameHistory.length - 1].user2.userOption == 3 */\n      dup1\n      iszero\n      tag_195\n      jumpi\n      pop\n        /* \"Practical2-RockPaperScissors-Jason.sol\":6133:6144  gameHistory */\n      0x02\n        /* \"Practical2-RockPaperScissors-Jason.sol\":6145:6163  gameHistory.length */\n      dup1\n      sload\n        /* \"Practical2-RockPaperScissors-Jason.sol\":6145:6167  gameHistory.length - 1 */\n      tag_196\n      swap1\n        /* \"Practical2-RockPaperScissors-Jason.sol\":6166:6167  1 */\n      0x01\n      swap1\n        /* \"Practical2-RockPaperScissors-Jason.sol\":6145:6167  gameHistory.length - 1 */\n      tag_75\n      jump\t// in\n    tag_196:\n        /* \"Practical2-RockPaperScissors-Jason.sol\":6133:6168  gameHistory[gameHistory.length - 1] */\n      dup2\n      sload\n      dup2\n      lt\n      tag_198\n      jumpi\n      tag_198\n      tag_61\n      jump\t// in\n    tag_198:\n      swap1\n      0x00\n      mstore\n      keccak256(0x00, 0x20)\n      swap1\n      0x05\n      mul\n      add\n        /* \"Practical2-RockPaperScissors-Jason.sol\":6133:6174  gameHistory[gameHistory.length - 1].user2 */\n      0x02\n      add\n        /* \"Practical2-RockPaperScissors-Jason.sol\":6133:6185  gameHistory[gameHistory.length - 1].user2.userOption */\n      0x01\n      add\n      sload\n        /* \"Practical2-RockPaperScissors-Jason.sol\":6189:6190  3 */\n      0x03\n        /* \"Practical2-RockPaperScissors-Jason.sol\":6133:6190  gameHistory[gameHistory.length - 1].user2.userOption == 3 */\n      eq\n        /* \"Practical2-RockPaperScissors-Jason.sol\":6072:6190  gameHistory[gameHistory.length - 1].user1.userOption == 2 && gameHistory[gameHistory.length - 1].user2.userOption == 3 */\n    tag_195:\n        /* \"Practical2-RockPaperScissors-Jason.sol\":5770:6492  if (... */\n      iszero\n      tag_200\n      jumpi\n        /* \"Practical2-RockPaperScissors-Jason.sol\":6224:6285  gameHistory[gameHistory.length - 1].finalResult = \"User2 win\" */\n      0x40\n      dup1\n      mload\n      dup1\n      dup3\n      add\n      swap1\n      swap2\n      mstore\n      0x09\n      dup2\n      mstore\n      shl(0xb9, 0x2ab9b2b919103bb4b7)\n      0x20\n      dup3\n      add\n      mstore\n        /* \"Practical2-RockPaperScissors-Jason.sol\":6224:6235  gameHistory */\n      0x02\n        /* \"Practical2-RockPaperScissors-Jason.sol\":6236:6254  gameHistory.length */\n      dup1\n      sload\n        /* \"Practical2-RockPaperScissors-Jason.sol\":6236:6258  gameHistory.length - 1 */\n      tag_201\n      swap1\n        /* \"Practical2-RockPaperScissors-Jason.sol\":6257:6258  1 */\n      0x01\n      swap1\n        /* \"Practical2-RockPaperScissors-Jason.sol\":6236:6258  gameHistory.length - 1 */\n      tag_75\n      jump\t// in\n    tag_201:\n        /* \"Practical2-RockPaperScissors-Jason.sol\":6224:6259  gameHistory[gameHistory.length - 1] */\n      dup2\n      sload\n      dup2\n      lt\n      tag_203\n      jumpi\n      tag_203\n      tag_61\n      jump\t// in\n    tag_203:\n      swap1\n      0x00\n      mstore\n      keccak256(0x00, 0x20)\n      swap1\n      0x05\n      mul\n      add\n        /* \"Practical2-RockPaperScissors-Jason.sol\":6224:6271  gameHistory[gameHistory.length - 1].finalResult */\n      0x04\n      add\n        /* \"Practical2-RockPaperScissors-Jason.sol\":6224:6285  gameHistory[gameHistory.length - 1].finalResult = \"User2 win\" */\n      swap1\n      dup2\n      tag_205\n      swap2\n      swap1\n      tag_145\n      jump\t// in\n    tag_205:\n      pop\n        /* \"Practical2-RockPaperScissors-Jason.sol\":6308:6331  showResult(\"User2 win\") */\n      0xcde5c32c0a45fd8aa4b65ea8003fc9da9acd5e2c6c24a9fcce6ab79cabbd9122\n      mload(0x40)\n      tag_168\n      swap1\n        /* \"#utility.yul\":10872:10874   */\n      0x20\n        /* \"#utility.yul\":10854:10875   */\n      dup1\n      dup3\n      mstore\n        /* \"#utility.yul\":10911:10912   */\n      0x09\n        /* \"#utility.yul\":10891:10909   */\n      swap1\n      dup3\n      add\n        /* \"#utility.yul\":10884:10913   */\n      mstore\n      shl(0xb9, 0x2ab9b2b919103bb4b7)\n        /* \"#utility.yul\":10944:10946   */\n      0x40\n        /* \"#utility.yul\":10929:10947   */\n      dup3\n      add\n        /* \"#utility.yul\":10922:10961   */\n      mstore\n        /* \"#utility.yul\":10993:10995   */\n      0x60\n        /* \"#utility.yul\":10978:10996   */\n      add\n      swap1\n        /* \"#utility.yul\":10670:11002   */\n      jump\n        /* \"Practical2-RockPaperScissors-Jason.sol\":5770:6492  if (... */\n    tag_200:\n        /* \"Practical2-RockPaperScissors-Jason.sol\":6370:6431  gameHistory[gameHistory.length - 1].finalResult = \"User1 win\" */\n      0x40\n      dup1\n      mload\n      dup1\n      dup3\n      add\n      swap1\n      swap2\n      mstore\n      0x09\n      dup2\n      mstore\n      shl(0xb9, 0x2ab9b2b918903bb4b7)\n      0x20\n      dup3\n      add\n      mstore\n        /* \"Practical2-RockPaperScissors-Jason.sol\":6370:6381  gameHistory */\n      0x02\n        /* \"Practical2-RockPaperScissors-Jason.sol\":6382:6400  gameHistory.length */\n      dup1\n      sload\n        /* \"Practical2-RockPaperScissors-Jason.sol\":6382:6404  gameHistory.length - 1 */\n      tag_209\n      swap1\n        /* \"Practical2-RockPaperScissors-Jason.sol\":6403:6404  1 */\n      0x01\n      swap1\n        /* \"Practical2-RockPaperScissors-Jason.sol\":6382:6404  gameHistory.length - 1 */\n      tag_75\n      jump\t// in\n    tag_209:\n        /* \"Practical2-RockPaperScissors-Jason.sol\":6370:6405  gameHistory[gameHistory.length - 1] */\n      dup2\n      sload\n      dup2\n      lt\n      tag_211\n      jumpi\n      tag_211\n      tag_61\n      jump\t// in\n    tag_211:\n      swap1\n      0x00\n      mstore\n      keccak256(0x00, 0x20)\n      swap1\n      0x05\n      mul\n      add\n        /* \"Practical2-RockPaperScissors-Jason.sol\":6370:6417  gameHistory[gameHistory.length - 1].finalResult */\n      0x04\n      add\n        /* \"Practical2-RockPaperScissors-Jason.sol\":6370:6431  gameHistory[gameHistory.length - 1].finalResult = \"User1 win\" */\n      swap1\n      dup2\n      tag_213\n      swap2\n      swap1\n      tag_145\n      jump\t// in\n    tag_213:\n      pop\n        /* \"Practical2-RockPaperScissors-Jason.sol\":6454:6477  showResult(\"User1 win\") */\n      0xcde5c32c0a45fd8aa4b65ea8003fc9da9acd5e2c6c24a9fcce6ab79cabbd9122\n      mload(0x40)\n      tag_168\n      swap1\n        /* \"#utility.yul\":11209:11211   */\n      0x20\n        /* \"#utility.yul\":11191:11212   */\n      dup1\n      dup3\n      mstore\n        /* \"#utility.yul\":11248:11249   */\n      0x09\n        /* \"#utility.yul\":11228:11246   */\n      swap1\n      dup3\n      add\n        /* \"#utility.yul\":11221:11250   */\n      mstore\n      shl(0xb9, 0x2ab9b2b918903bb4b7)\n        /* \"#utility.yul\":11281:11283   */\n      0x40\n        /* \"#utility.yul\":11266:11284   */\n      dup3\n      add\n        /* \"#utility.yul\":11259:11298   */\n      mstore\n        /* \"#utility.yul\":11330:11332   */\n      0x60\n        /* \"#utility.yul\":11315:11333   */\n      add\n      swap1\n        /* \"#utility.yul\":11007:11339   */\n      jump\n        /* \"Practical2-RockPaperScissors-Jason.sol\":5770:6492  if (... */\n    tag_208:\n        /* \"Practical2-RockPaperScissors-Jason.sol\":5071:6508  {... */\n      pop\n        /* \"Practical2-RockPaperScissors-Jason.sol\":4998:6508  function game (UserInfo memory userOne, UserInfo memory userTwo) private {... */\n      pop\n      pop\n      jump\t// out\n    tag_94:\n      0x40\n      dup1\n      mload\n      0xa0\n      dup2\n      add\n      swap1\n      swap2\n      mstore\n      0x00\n      0x60\n      dup3\n      add\n      dup2\n      dup2\n      mstore\n      0x80\n      dup4\n      add\n      swap2\n      swap1\n      swap2\n      mstore\n      dup2\n      swap1\n      dup2\n      mstore\n      0x20\n      add\n      tag_217\n      0x40\n      dup1\n      mload\n      dup1\n      dup3\n      add\n      swap1\n      swap2\n      mstore\n      0x00\n      dup1\n      dup3\n      mstore\n      0x20\n      dup3\n      add\n      mstore\n      swap1\n      jump\n    tag_217:\n      dup2\n      mstore\n      0x20\n      add\n      0x60\n      dup2\n      mstore\n      pop\n      swap1\n      jump\t// out\n        /* \"#utility.yul\":14:194   */\n    tag_11:\n        /* \"#utility.yul\":73:79   */\n      0x00\n        /* \"#utility.yul\":126:128   */\n      0x20\n        /* \"#utility.yul\":114:123   */\n      dup3\n        /* \"#utility.yul\":105:112   */\n      dup5\n        /* \"#utility.yul\":101:124   */\n      sub\n        /* \"#utility.yul\":97:129   */\n      slt\n        /* \"#utility.yul\":94:146   */\n      iszero\n      tag_227\n      jumpi\n        /* \"#utility.yul\":142:143   */\n      0x00\n        /* \"#utility.yul\":139:140   */\n      dup1\n        /* \"#utility.yul\":132:144   */\n      revert\n        /* \"#utility.yul\":94:146   */\n    tag_227:\n      pop\n        /* \"#utility.yul\":165:188   */\n      calldataload\n      swap2\n        /* \"#utility.yul\":14:194   */\n      swap1\n      pop\n      jump\t// out\n        /* \"#utility.yul\":379:1093   */\n    tag_219:\n        /* \"#utility.yul\":448:493   */\n      tag_230\n        /* \"#utility.yul\":489:492   */\n      dup3\n        /* \"#utility.yul\":481:486   */\n      dup3\n        /* \"#utility.yul\":475:487   */\n      mload\n        /* \"#utility.yul\":277:289   */\n      dup1\n      mload\n      sub(shl(0xa0, 0x01), 0x01)\n        /* \"#utility.yul\":273:311   */\n      and\n        /* \"#utility.yul\":261:312   */\n      dup3\n      mstore\n        /* \"#utility.yul\":361:365   */\n      0x20\n        /* \"#utility.yul\":350:366   */\n      swap1\n      dup2\n      add\n        /* \"#utility.yul\":344:367   */\n      mload\n        /* \"#utility.yul\":328:342   */\n      swap2\n      add\n        /* \"#utility.yul\":321:368   */\n      mstore\n        /* \"#utility.yul\":199:374   */\n      jump\n        /* \"#utility.yul\":448:493   */\n    tag_230:\n        /* \"#utility.yul\":430:433   */\n      0x00\n        /* \"#utility.yul\":512:516   */\n      0x20\n        /* \"#utility.yul\":562:564   */\n      dup1\n        /* \"#utility.yul\":555:560   */\n      dup4\n        /* \"#utility.yul\":551:565   */\n      add\n        /* \"#utility.yul\":545:566   */\n      mload\n        /* \"#utility.yul\":575:631   */\n      tag_231\n        /* \"#utility.yul\":625:629   */\n      0x40\n        /* \"#utility.yul\":620:623   */\n      dup7\n        /* \"#utility.yul\":616:630   */\n      add\n        /* \"#utility.yul\":602:614   */\n      dup3\n        /* \"#utility.yul\":277:289   */\n      dup1\n      mload\n      sub(shl(0xa0, 0x01), 0x01)\n        /* \"#utility.yul\":273:311   */\n      and\n        /* \"#utility.yul\":261:312   */\n      dup3\n      mstore\n        /* \"#utility.yul\":361:365   */\n      0x20\n        /* \"#utility.yul\":350:366   */\n      swap1\n      dup2\n      add\n        /* \"#utility.yul\":344:367   */\n      mload\n        /* \"#utility.yul\":328:342   */\n      swap2\n      add\n        /* \"#utility.yul\":321:368   */\n      mstore\n        /* \"#utility.yul\":199:374   */\n      jump\n        /* \"#utility.yul\":575:631   */\n    tag_231:\n      pop\n        /* \"#utility.yul\":679:683   */\n      0x40\n        /* \"#utility.yul\":672:677   */\n      dup4\n        /* \"#utility.yul\":668:684   */\n      add\n        /* \"#utility.yul\":662:685   */\n      mload\n        /* \"#utility.yul\":717:721   */\n      0xa0\n        /* \"#utility.yul\":710:714   */\n      0x80\n        /* \"#utility.yul\":705:708   */\n      dup7\n        /* \"#utility.yul\":701:715   */\n      add\n        /* \"#utility.yul\":694:722   */\n      mstore\n        /* \"#utility.yul\":751:765   */\n      dup1\n        /* \"#utility.yul\":745:766   */\n      mload\n        /* \"#utility.yul\":798:804   */\n      dup1\n        /* \"#utility.yul\":791:795   */\n      0xa0\n        /* \"#utility.yul\":786:789   */\n      dup8\n        /* \"#utility.yul\":782:796   */\n      add\n        /* \"#utility.yul\":775:805   */\n      mstore\n        /* \"#utility.yul\":823:824   */\n      0x00\n        /* \"#utility.yul\":833:976   */\n    tag_232:\n        /* \"#utility.yul\":847:853   */\n      dup2\n        /* \"#utility.yul\":844:845   */\n      dup2\n        /* \"#utility.yul\":841:854   */\n      lt\n        /* \"#utility.yul\":833:976   */\n      iszero\n      tag_234\n      jumpi\n        /* \"#utility.yul\":937:959   */\n      dup3\n      dup2\n      add\n        /* \"#utility.yul\":933:964   */\n      dup5\n      add\n        /* \"#utility.yul\":927:965   */\n      mload\n        /* \"#utility.yul\":908:919   */\n      dup8\n      dup3\n      add\n        /* \"#utility.yul\":921:924   */\n      0xc0\n        /* \"#utility.yul\":904:925   */\n      add\n        /* \"#utility.yul\":897:966   */\n      mstore\n        /* \"#utility.yul\":862:872   */\n      dup4\n      add\n        /* \"#utility.yul\":833:976   */\n      jump(tag_232)\n    tag_234:\n        /* \"#utility.yul\":837:840   */\n      pop\n        /* \"#utility.yul\":1020:1021   */\n      0x00\n        /* \"#utility.yul\":1014:1017   */\n      0xc0\n        /* \"#utility.yul\":1005:1011   */\n      dup3\n        /* \"#utility.yul\":1000:1003   */\n      dup9\n        /* \"#utility.yul\":996:1012   */\n      add\n        /* \"#utility.yul\":992:1018   */\n      add\n        /* \"#utility.yul\":985:1022   */\n      mstore\n        /* \"#utility.yul\":1083:1086   */\n      0xc0\n        /* \"#utility.yul\":1076:1078   */\n      0x1f\n        /* \"#utility.yul\":1072:1079   */\n      not\n        /* \"#utility.yul\":1067:1069   */\n      0x1f\n        /* \"#utility.yul\":1059:1065   */\n      dup4\n        /* \"#utility.yul\":1055:1070   */\n      add\n        /* \"#utility.yul\":1051:1080   */\n      and\n        /* \"#utility.yul\":1046:1049   */\n      dup8\n        /* \"#utility.yul\":1042:1081   */\n      add\n        /* \"#utility.yul\":1038:1087   */\n      add\n        /* \"#utility.yul\":1031:1087   */\n      swap4\n      pop\n      pop\n      pop\n      pop\n        /* \"#utility.yul\":379:1093   */\n      swap3\n      swap2\n      pop\n      pop\n      jump\t// out\n        /* \"#utility.yul\":1098:1938   */\n    tag_16:\n        /* \"#utility.yul\":1288:1292   */\n      0x00\n        /* \"#utility.yul\":1317:1319   */\n      0x20\n        /* \"#utility.yul\":1357:1359   */\n      dup1\n        /* \"#utility.yul\":1346:1355   */\n      dup4\n        /* \"#utility.yul\":1342:1360   */\n      add\n        /* \"#utility.yul\":1387:1389   */\n      dup2\n        /* \"#utility.yul\":1376:1385   */\n      dup5\n        /* \"#utility.yul\":1369:1390   */\n      mstore\n        /* \"#utility.yul\":1410:1416   */\n      dup1\n        /* \"#utility.yul\":1445:1451   */\n      dup6\n        /* \"#utility.yul\":1439:1452   */\n      mload\n        /* \"#utility.yul\":1476:1482   */\n      dup1\n        /* \"#utility.yul\":1468:1474   */\n      dup4\n        /* \"#utility.yul\":1461:1483   */\n      mstore\n        /* \"#utility.yul\":1514:1516   */\n      0x40\n        /* \"#utility.yul\":1503:1512   */\n      dup7\n        /* \"#utility.yul\":1499:1517   */\n      add\n        /* \"#utility.yul\":1492:1517   */\n      swap2\n      pop\n        /* \"#utility.yul\":1576:1578   */\n      0x40\n        /* \"#utility.yul\":1566:1572   */\n      dup2\n        /* \"#utility.yul\":1563:1564   */\n      0x05\n        /* \"#utility.yul\":1559:1573   */\n      shl\n        /* \"#utility.yul\":1548:1557   */\n      dup8\n        /* \"#utility.yul\":1544:1574   */\n      add\n        /* \"#utility.yul\":1540:1579   */\n      add\n        /* \"#utility.yul\":1526:1579   */\n      swap3\n      pop\n        /* \"#utility.yul\":1614:1616   */\n      dup4\n        /* \"#utility.yul\":1606:1612   */\n      dup8\n        /* \"#utility.yul\":1602:1617   */\n      add\n        /* \"#utility.yul\":1635:1636   */\n      0x00\n        /* \"#utility.yul\":1645:1909   */\n    tag_236:\n        /* \"#utility.yul\":1659:1665   */\n      dup3\n        /* \"#utility.yul\":1656:1657   */\n      dup2\n        /* \"#utility.yul\":1653:1666   */\n      lt\n        /* \"#utility.yul\":1645:1909   */\n      iszero\n      tag_238\n      jumpi\n        /* \"#utility.yul\":1752:1754   */\n      0x3f\n        /* \"#utility.yul\":1748:1755   */\n      not\n        /* \"#utility.yul\":1736:1745   */\n      dup9\n        /* \"#utility.yul\":1728:1734   */\n      dup7\n        /* \"#utility.yul\":1724:1746   */\n      sub\n        /* \"#utility.yul\":1720:1756   */\n      add\n        /* \"#utility.yul\":1715:1718   */\n      dup5\n        /* \"#utility.yul\":1708:1757   */\n      mstore\n        /* \"#utility.yul\":1780:1829   */\n      tag_239\n        /* \"#utility.yul\":1822:1828   */\n      dup6\n        /* \"#utility.yul\":1813:1819   */\n      dup4\n        /* \"#utility.yul\":1807:1820   */\n      mload\n        /* \"#utility.yul\":1780:1829   */\n      tag_219\n      jump\t// in\n    tag_239:\n        /* \"#utility.yul\":1770:1829   */\n      swap5\n      pop\n        /* \"#utility.yul\":1887:1899   */\n      swap3\n      dup6\n      add\n      swap3\n        /* \"#utility.yul\":1852:1867   */\n      swap1\n      dup6\n      add\n      swap1\n        /* \"#utility.yul\":1681:1682   */\n      0x01\n        /* \"#utility.yul\":1674:1683   */\n      add\n        /* \"#utility.yul\":1645:1909   */\n      jump(tag_236)\n    tag_238:\n      pop\n        /* \"#utility.yul\":1926:1932   */\n      swap3\n      swap8\n        /* \"#utility.yul\":1098:1938   */\n      swap7\n      pop\n      pop\n      pop\n      pop\n      pop\n      pop\n      pop\n      jump\t// out\n        /* \"#utility.yul\":2125:2846   */\n    tag_27:\n        /* \"#utility.yul\":2344:2346   */\n      0x20\n        /* \"#utility.yul\":2396:2417   */\n      dup1\n      dup3\n      mstore\n        /* \"#utility.yul\":2466:2479   */\n      dup3\n      mload\n        /* \"#utility.yul\":2369:2387   */\n      dup3\n      dup3\n      add\n        /* \"#utility.yul\":2488:2510   */\n      dup2\n      swap1\n      mstore\n        /* \"#utility.yul\":2315:2319   */\n      0x00\n      swap2\n        /* \"#utility.yul\":2344:2346   */\n      swap1\n        /* \"#utility.yul\":2529:2531   */\n      0x40\n      swap1\n        /* \"#utility.yul\":2547:2565   */\n      dup2\n      dup6\n      add\n      swap1\n        /* \"#utility.yul\":2588:2603   */\n      dup7\n      dup5\n      add\n        /* \"#utility.yul\":2315:2319   */\n      dup6\n        /* \"#utility.yul\":2631:2820   */\n    tag_242:\n        /* \"#utility.yul\":2645:2651   */\n      dup3\n        /* \"#utility.yul\":2642:2643   */\n      dup2\n        /* \"#utility.yul\":2639:2652   */\n      lt\n        /* \"#utility.yul\":2631:2820   */\n      iszero\n      tag_244\n      jumpi\n        /* \"#utility.yul\":2694:2740   */\n      tag_245\n        /* \"#utility.yul\":2736:2739   */\n      dup5\n        /* \"#utility.yul\":2727:2733   */\n      dup4\n        /* \"#utility.yul\":2721:2734   */\n      mload\n        /* \"#utility.yul\":277:289   */\n      dup1\n      mload\n      sub(shl(0xa0, 0x01), 0x01)\n        /* \"#utility.yul\":273:311   */\n      and\n        /* \"#utility.yul\":261:312   */\n      dup3\n      mstore\n        /* \"#utility.yul\":361:365   */\n      0x20\n        /* \"#utility.yul\":350:366   */\n      swap1\n      dup2\n      add\n        /* \"#utility.yul\":344:367   */\n      mload\n        /* \"#utility.yul\":328:342   */\n      swap2\n      add\n        /* \"#utility.yul\":321:368   */\n      mstore\n        /* \"#utility.yul\":199:374   */\n      jump\n        /* \"#utility.yul\":2694:2740   */\n    tag_245:\n        /* \"#utility.yul\":2760:2772   */\n      swap3\n      dup5\n      add\n      swap3\n        /* \"#utility.yul\":2795:2810   */\n      swap1\n      dup6\n      add\n      swap1\n        /* \"#utility.yul\":2667:2668   */\n      0x01\n        /* \"#utility.yul\":2660:2669   */\n      add\n        /* \"#utility.yul\":2631:2820   */\n      jump(tag_242)\n    tag_244:\n      pop\n        /* \"#utility.yul\":2837:2840   */\n      swap2\n      swap8\n        /* \"#utility.yul\":2125:2846   */\n      swap7\n      pop\n      pop\n      pop\n      pop\n      pop\n      pop\n      pop\n      jump\t// out\n        /* \"#utility.yul\":2851:3108   */\n    tag_32:\n        /* \"#utility.yul\":3028:3030   */\n      0x20\n        /* \"#utility.yul\":3017:3026   */\n      dup2\n        /* \"#utility.yul\":3010:3031   */\n      mstore\n        /* \"#utility.yul\":2991:2995   */\n      0x00\n        /* \"#utility.yul\":3048:3102   */\n      tag_247\n        /* \"#utility.yul\":3098:3100   */\n      0x20\n        /* \"#utility.yul\":3087:3096   */\n      dup4\n        /* \"#utility.yul\":3083:3101   */\n      add\n        /* \"#utility.yul\":3075:3081   */\n      dup5\n        /* \"#utility.yul\":3048:3102   */\n      tag_219\n      jump\t// in\n    tag_247:\n        /* \"#utility.yul\":3040:3102   */\n      swap4\n        /* \"#utility.yul\":2851:3108   */\n      swap3\n      pop\n      pop\n      pop\n      jump\t// out\n        /* \"#utility.yul\":3113:3493   */\n    tag_40:\n        /* \"#utility.yul\":3192:3193   */\n      0x01\n        /* \"#utility.yul\":3188:3200   */\n      dup2\n      dup2\n      shr\n      swap1\n        /* \"#utility.yul\":3235:3247   */\n      dup3\n      and\n      dup1\n        /* \"#utility.yul\":3256:3317   */\n      tag_249\n      jumpi\n        /* \"#utility.yul\":3310:3314   */\n      0x7f\n        /* \"#utility.yul\":3302:3308   */\n      dup3\n        /* \"#utility.yul\":3298:3315   */\n      and\n        /* \"#utility.yul\":3288:3315   */\n      swap2\n      pop\n        /* \"#utility.yul\":3256:3317   */\n    tag_249:\n        /* \"#utility.yul\":3363:3365   */\n      0x20\n        /* \"#utility.yul\":3355:3361   */\n      dup3\n        /* \"#utility.yul\":3352:3366   */\n      lt\n        /* \"#utility.yul\":3332:3350   */\n      dup2\n        /* \"#utility.yul\":3329:3367   */\n      sub\n        /* \"#utility.yul\":3326:3487   */\n      tag_250\n      jumpi\n        /* \"#utility.yul\":3409:3419   */\n      0x4e487b71\n        /* \"#utility.yul\":3404:3407   */\n      0xe0\n        /* \"#utility.yul\":3400:3420   */\n      shl\n        /* \"#utility.yul\":3397:3398   */\n      0x00\n        /* \"#utility.yul\":3390:3421   */\n      mstore\n        /* \"#utility.yul\":3444:3448   */\n      0x22\n        /* \"#utility.yul\":3441:3442   */\n      0x04\n        /* \"#utility.yul\":3434:3449   */\n      mstore\n        /* \"#utility.yul\":3472:3476   */\n      0x24\n        /* \"#utility.yul\":3469:3470   */\n      0x00\n        /* \"#utility.yul\":3462:3477   */\n      revert\n        /* \"#utility.yul\":3326:3487   */\n    tag_250:\n      pop\n        /* \"#utility.yul\":3113:3493   */\n      swap2\n      swap1\n      pop\n      jump\t// out\n        /* \"#utility.yul\":4556:4683   */\n    tag_61:\n        /* \"#utility.yul\":4617:4627   */\n      0x4e487b71\n        /* \"#utility.yul\":4612:4615   */\n      0xe0\n        /* \"#utility.yul\":4608:4628   */\n      shl\n        /* \"#utility.yul\":4605:4606   */\n      0x00\n        /* \"#utility.yul\":4598:4629   */\n      mstore\n        /* \"#utility.yul\":4648:4652   */\n      0x32\n        /* \"#utility.yul\":4645:4646   */\n      0x04\n        /* \"#utility.yul\":4638:4653   */\n      mstore\n        /* \"#utility.yul\":4672:4676   */\n      0x24\n        /* \"#utility.yul\":4669:4670   */\n      0x00\n        /* \"#utility.yul\":4662:4677   */\n      revert\n        /* \"#utility.yul\":5533:5660   */\n    tag_220:\n        /* \"#utility.yul\":5594:5604   */\n      0x4e487b71\n        /* \"#utility.yul\":5589:5592   */\n      0xe0\n        /* \"#utility.yul\":5585:5605   */\n      shl\n        /* \"#utility.yul\":5582:5583   */\n      0x00\n        /* \"#utility.yul\":5575:5606   */\n      mstore\n        /* \"#utility.yul\":5625:5629   */\n      0x11\n        /* \"#utility.yul\":5622:5623   */\n      0x04\n        /* \"#utility.yul\":5615:5630   */\n      mstore\n        /* \"#utility.yul\":5649:5653   */\n      0x24\n        /* \"#utility.yul\":5646:5647   */\n      0x00\n        /* \"#utility.yul\":5639:5654   */\n      revert\n        /* \"#utility.yul\":5665:5800   */\n    tag_70:\n        /* \"#utility.yul\":5704:5707   */\n      0x00\n        /* \"#utility.yul\":5725:5742   */\n      0x01\n      dup3\n      add\n        /* \"#utility.yul\":5722:5765   */\n      tag_260\n      jumpi\n        /* \"#utility.yul\":5745:5763   */\n      tag_260\n      tag_220\n      jump\t// in\n    tag_260:\n      pop\n        /* \"#utility.yul\":5792:5793   */\n      0x01\n        /* \"#utility.yul\":5781:5794   */\n      add\n      swap1\n        /* \"#utility.yul\":5665:5800   */\n      jump\t// out\n        /* \"#utility.yul\":5805:5933   */\n    tag_75:\n        /* \"#utility.yul\":5872:5881   */\n      dup2\n      dup2\n      sub\n        /* \"#utility.yul\":5893:5904   */\n      dup2\n      dup2\n      gt\n        /* \"#utility.yul\":5890:5927   */\n      iszero\n      tag_263\n      jumpi\n        /* \"#utility.yul\":5907:5925   */\n      tag_263\n      tag_220\n      jump\t// in\n    tag_263:\n        /* \"#utility.yul\":5805:5933   */\n      swap3\n      swap2\n      pop\n      pop\n      jump\t// out\n        /* \"#utility.yul\":6075:6756   */\n    tag_85:\n        /* \"#utility.yul\":6243:6245   */\n      0x20\n        /* \"#utility.yul\":6295:6316   */\n      dup1\n      dup3\n      mstore\n        /* \"#utility.yul\":6365:6378   */\n      dup3\n      sload\n        /* \"#utility.yul\":6268:6286   */\n      dup3\n      dup3\n      add\n        /* \"#utility.yul\":6387:6409   */\n      dup2\n      swap1\n      mstore\n        /* \"#utility.yul\":6214:6218   */\n      0x00\n        /* \"#utility.yul\":6452:6469   */\n      dup5\n      dup2\n      mstore\n        /* \"#utility.yul\":6492:6508   */\n      dup3\n      dup2\n      keccak256\n        /* \"#utility.yul\":6214:6218   */\n      swap1\n      swap3\n        /* \"#utility.yul\":6243:6245   */\n      swap2\n        /* \"#utility.yul\":6440:6442   */\n      0x40\n        /* \"#utility.yul\":6425:6443   */\n      dup6\n      add\n      swap1\n        /* \"#utility.yul\":6214:6218   */\n      dup5\n        /* \"#utility.yul\":6536:6730   */\n    tag_266:\n        /* \"#utility.yul\":6550:6556   */\n      dup2\n        /* \"#utility.yul\":6547:6548   */\n      dup2\n        /* \"#utility.yul\":6544:6557   */\n      lt\n        /* \"#utility.yul\":6536:6730   */\n      iszero\n      tag_268\n      jumpi\n        /* \"#utility.yul\":6615:6628   */\n      dup4\n      sload\n      sub(shl(0xa0, 0x01), 0x01)\n        /* \"#utility.yul\":6611:6650   */\n      and\n        /* \"#utility.yul\":6599:6651   */\n      dup4\n      mstore\n        /* \"#utility.yul\":6647:6648   */\n      0x01\n        /* \"#utility.yul\":6706:6720   */\n      swap4\n      dup5\n      add\n      swap4\n        /* \"#utility.yul\":6671:6683   */\n      swap3\n      dup6\n      add\n      swap3\n        /* \"#utility.yul\":6565:6574   */\n      add\n        /* \"#utility.yul\":6536:6730   */\n      jump(tag_266)\n    tag_268:\n      pop\n        /* \"#utility.yul\":6747:6750   */\n      swap1\n      swap7\n        /* \"#utility.yul\":6075:6756   */\n      swap6\n      pop\n      pop\n      pop\n      pop\n      pop\n      pop\n      jump\t// out\n        /* \"#utility.yul\":7771:7980   */\n    tag_125:\n        /* \"#utility.yul\":7803:7804   */\n      0x00\n        /* \"#utility.yul\":7829:7830   */\n      dup3\n        /* \"#utility.yul\":7819:7951   */\n      tag_273\n      jumpi\n        /* \"#utility.yul\":7873:7883   */\n      0x4e487b71\n        /* \"#utility.yul\":7868:7871   */\n      0xe0\n        /* \"#utility.yul\":7864:7884   */\n      shl\n        /* \"#utility.yul\":7861:7862   */\n      0x00\n        /* \"#utility.yul\":7854:7885   */\n      mstore\n        /* \"#utility.yul\":7908:7912   */\n      0x12\n        /* \"#utility.yul\":7905:7906   */\n      0x04\n        /* \"#utility.yul\":7898:7913   */\n      mstore\n        /* \"#utility.yul\":7936:7940   */\n      0x24\n        /* \"#utility.yul\":7933:7934   */\n      0x00\n        /* \"#utility.yul\":7926:7941   */\n      revert\n        /* \"#utility.yul\":7819:7951   */\n    tag_273:\n      pop\n        /* \"#utility.yul\":7965:7974   */\n      mod\n      swap1\n        /* \"#utility.yul\":7771:7980   */\n      jump\t// out\n        /* \"#utility.yul\":7985:8112   */\n    tag_139:\n        /* \"#utility.yul\":8046:8056   */\n      0x4e487b71\n        /* \"#utility.yul\":8041:8044   */\n      0xe0\n        /* \"#utility.yul\":8037:8057   */\n      shl\n        /* \"#utility.yul\":8034:8035   */\n      0x00\n        /* \"#utility.yul\":8027:8058   */\n      mstore\n        /* \"#utility.yul\":8077:8081   */\n      0x31\n        /* \"#utility.yul\":8074:8075   */\n      0x04\n        /* \"#utility.yul\":8067:8082   */\n      mstore\n        /* \"#utility.yul\":8101:8105   */\n      0x24\n        /* \"#utility.yul\":8098:8099   */\n      0x00\n        /* \"#utility.yul\":8091:8106   */\n      revert\n        /* \"#utility.yul\":8117:8244   */\n    tag_222:\n        /* \"#utility.yul\":8178:8188   */\n      0x4e487b71\n        /* \"#utility.yul\":8173:8176   */\n      0xe0\n        /* \"#utility.yul\":8169:8189   */\n      shl\n        /* \"#utility.yul\":8166:8167   */\n      0x00\n        /* \"#utility.yul\":8159:8190   */\n      mstore\n        /* \"#utility.yul\":8209:8213   */\n      0x41\n        /* \"#utility.yul\":8206:8207   */\n      0x04\n        /* \"#utility.yul\":8199:8214   */\n      mstore\n        /* \"#utility.yul\":8233:8237   */\n      0x24\n        /* \"#utility.yul\":8230:8231   */\n      0x00\n        /* \"#utility.yul\":8223:8238   */\n      revert\n        /* \"#utility.yul\":8249:8794   */\n    tag_223:\n        /* \"#utility.yul\":8351:8353   */\n      0x1f\n        /* \"#utility.yul\":8346:8349   */\n      dup3\n        /* \"#utility.yul\":8343:8354   */\n      gt\n        /* \"#utility.yul\":8340:8788   */\n      iszero\n      tag_208\n      jumpi\n        /* \"#utility.yul\":8387:8388   */\n      0x00\n        /* \"#utility.yul\":8412:8417   */\n      dup2\n        /* \"#utility.yul\":8408:8410   */\n      dup2\n        /* \"#utility.yul\":8401:8418   */\n      mstore\n        /* \"#utility.yul\":8457:8461   */\n      0x20\n        /* \"#utility.yul\":8453:8455   */\n      dup2\n        /* \"#utility.yul\":8443:8462   */\n      keccak256\n        /* \"#utility.yul\":8527:8529   */\n      0x1f\n        /* \"#utility.yul\":8515:8525   */\n      dup6\n        /* \"#utility.yul\":8511:8530   */\n      add\n        /* \"#utility.yul\":8508:8509   */\n      0x05\n        /* \"#utility.yul\":8504:8531   */\n      shr\n        /* \"#utility.yul\":8498:8502   */\n      dup2\n        /* \"#utility.yul\":8494:8532   */\n      add\n        /* \"#utility.yul\":8563:8567   */\n      0x20\n        /* \"#utility.yul\":8551:8561   */\n      dup7\n        /* \"#utility.yul\":8548:8568   */\n      lt\n        /* \"#utility.yul\":8545:8592   */\n      iszero\n      tag_278\n      jumpi\n      pop\n        /* \"#utility.yul\":8586:8590   */\n      dup1\n        /* \"#utility.yul\":8545:8592   */\n    tag_278:\n        /* \"#utility.yul\":8641:8643   */\n      0x1f\n        /* \"#utility.yul\":8636:8639   */\n      dup6\n        /* \"#utility.yul\":8632:8644   */\n      add\n        /* \"#utility.yul\":8629:8630   */\n      0x05\n        /* \"#utility.yul\":8625:8645   */\n      shr\n        /* \"#utility.yul\":8619:8623   */\n      dup3\n        /* \"#utility.yul\":8615:8646   */\n      add\n        /* \"#utility.yul\":8605:8646   */\n      swap2\n      pop\n        /* \"#utility.yul\":8696:8778   */\n    tag_279:\n        /* \"#utility.yul\":8714:8716   */\n      dup2\n        /* \"#utility.yul\":8707:8712   */\n      dup2\n        /* \"#utility.yul\":8704:8717   */\n      lt\n        /* \"#utility.yul\":8696:8778   */\n      iszero\n      tag_281\n      jumpi\n        /* \"#utility.yul\":8759:8776   */\n      dup3\n      dup2\n      sstore\n        /* \"#utility.yul\":8740:8741   */\n      0x01\n        /* \"#utility.yul\":8729:8742   */\n      add\n        /* \"#utility.yul\":8696:8778   */\n      jump(tag_279)\n    tag_281:\n        /* \"#utility.yul\":8700:8703   */\n      pop\n      pop\n      pop\n        /* \"#utility.yul\":8249:8794   */\n      pop\n      pop\n      pop\n      jump\t// out\n        /* \"#utility.yul\":8970:10333   */\n    tag_145:\n        /* \"#utility.yul\":9096:9099   */\n      dup2\n        /* \"#utility.yul\":9090:9100   */\n      mload\n        /* \"#utility.yul\":9123:9141   */\n      0xffffffffffffffff\n        /* \"#utility.yul\":9115:9121   */\n      dup2\n        /* \"#utility.yul\":9112:9142   */\n      gt\n        /* \"#utility.yul\":9109:9165   */\n      iszero\n      tag_285\n      jumpi\n        /* \"#utility.yul\":9145:9163   */\n      tag_285\n      tag_222\n      jump\t// in\n    tag_285:\n        /* \"#utility.yul\":9174:9271   */\n      tag_286\n        /* \"#utility.yul\":9264:9270   */\n      dup2\n        /* \"#utility.yul\":9224:9262   */\n      tag_287\n        /* \"#utility.yul\":9256:9260   */\n      dup5\n        /* \"#utility.yul\":9250:9261   */\n      sload\n        /* \"#utility.yul\":9224:9262   */\n      tag_40\n      jump\t// in\n    tag_287:\n        /* \"#utility.yul\":9218:9222   */\n      dup5\n        /* \"#utility.yul\":9174:9271   */\n      tag_223\n      jump\t// in\n    tag_286:\n        /* \"#utility.yul\":9326:9330   */\n      0x20\n      dup1\n        /* \"#utility.yul\":9390:9392   */\n      0x1f\n        /* \"#utility.yul\":9379:9393   */\n      dup4\n      gt\n        /* \"#utility.yul\":9407:9408   */\n      0x01\n        /* \"#utility.yul\":9402:10076   */\n      dup2\n      eq\n      tag_289\n      jumpi\n        /* \"#utility.yul\":10120:10121   */\n      0x00\n        /* \"#utility.yul\":10137:10143   */\n      dup5\n        /* \"#utility.yul\":10134:10223   */\n      iszero\n      tag_290\n      jumpi\n      pop\n        /* \"#utility.yul\":10189:10208   */\n      dup6\n      dup4\n      add\n        /* \"#utility.yul\":10183:10209   */\n      mload\n        /* \"#utility.yul\":10134:10223   */\n    tag_290:\n      not(0x00)\n        /* \"#utility.yul\":8927:8928   */\n      0x03\n        /* \"#utility.yul\":8923:8934   */\n      dup7\n      swap1\n      shl\n        /* \"#utility.yul\":8919:8943   */\n      shr\n        /* \"#utility.yul\":8915:8944   */\n      not\n        /* \"#utility.yul\":8905:8945   */\n      and\n        /* \"#utility.yul\":8951:8952   */\n      0x01\n        /* \"#utility.yul\":8947:8958   */\n      dup6\n      swap1\n      shl\n        /* \"#utility.yul\":8902:8959   */\n      or\n        /* \"#utility.yul\":10236:10317   */\n      dup6\n      sstore\n        /* \"#utility.yul\":9372:10327   */\n      jump(tag_281)\n        /* \"#utility.yul\":9402:10076   */\n    tag_289:\n        /* \"#utility.yul\":6022:6023   */\n      0x00\n        /* \"#utility.yul\":6015:6029   */\n      dup6\n      dup2\n      mstore\n        /* \"#utility.yul\":6059:6063   */\n      0x20\n        /* \"#utility.yul\":6046:6064   */\n      dup2\n      keccak256\n      not(0x1f)\n        /* \"#utility.yul\":9438:9458   */\n      dup7\n      and\n      swap2\n        /* \"#utility.yul\":9567:9803   */\n    tag_293:\n        /* \"#utility.yul\":9581:9588   */\n      dup3\n        /* \"#utility.yul\":9578:9579   */\n      dup2\n        /* \"#utility.yul\":9575:9589   */\n      lt\n        /* \"#utility.yul\":9567:9803   */\n      iszero\n      tag_295\n      jumpi\n        /* \"#utility.yul\":9670:9689   */\n      dup9\n      dup7\n      add\n        /* \"#utility.yul\":9664:9690   */\n      mload\n        /* \"#utility.yul\":9649:9691   */\n      dup3\n      sstore\n        /* \"#utility.yul\":9762:9789   */\n      swap5\n      dup5\n      add\n      swap5\n        /* \"#utility.yul\":9730:9731   */\n      0x01\n        /* \"#utility.yul\":9718:9732   */\n      swap1\n      swap2\n      add\n      swap1\n        /* \"#utility.yul\":9597:9616   */\n      dup5\n      add\n        /* \"#utility.yul\":9567:9803   */\n      jump(tag_293)\n    tag_295:\n        /* \"#utility.yul\":9571:9574   */\n      pop\n        /* \"#utility.yul\":9831:9837   */\n      dup6\n        /* \"#utility.yul\":9822:9829   */\n      dup3\n        /* \"#utility.yul\":9819:9838   */\n      lt\n        /* \"#utility.yul\":9816:10017   */\n      iszero\n      tag_296\n      jumpi\n        /* \"#utility.yul\":9892:9911   */\n      dup8\n      dup6\n      add\n        /* \"#utility.yul\":9886:9912   */\n      mload\n      not(0x00)\n        /* \"#utility.yul\":9975:9976   */\n      0x03\n        /* \"#utility.yul\":9971:9985   */\n      dup9\n      swap1\n      shl\n        /* \"#utility.yul\":9987:9990   */\n      0xf8\n        /* \"#utility.yul\":9967:9991   */\n      and\n        /* \"#utility.yul\":9963:10000   */\n      shr\n        /* \"#utility.yul\":9959:10001   */\n      not\n        /* \"#utility.yul\":9944:10002   */\n      and\n        /* \"#utility.yul\":9929:10003   */\n      dup2\n      sstore\n        /* \"#utility.yul\":9816:10017   */\n    tag_296:\n      pop\n      pop\n      pop\n      pop\n      pop\n        /* \"#utility.yul\":10063:10064   */\n      0x01\n        /* \"#utility.yul\":10047:10061   */\n      swap1\n      dup2\n      shl\n        /* \"#utility.yul\":10043:10065   */\n      add\n        /* \"#utility.yul\":10030:10066   */\n      swap1\n      sstore\n      pop\n        /* \"#utility.yul\":8970:10333   */\n      jump\t// out\n\n    auxdata: 0xa26469706673582212208ec41ecd4cb746a969d6edec8f9e9b60eef2bac3610e2ba9f5caa14724345f8364736f6c63430008130033\n}\n",
				"bytecode": {
					"linkReferences": {},
					"object": "608060405260016000556000600155600160045534801561001f57600080fd5b5061149b8061002f6000396000f3fe608060405234801561001057600080fd5b50600436106100625760003560e01c80631db05a8814610067578063512ec5571461007c57806376dad2231461009a578063adf496b5146100b1578063e16c9d59146100c4578063f7c4efbb146100d9575b600080fd5b61007a610075366004611090565b6100f9565b005b610084610134565b6040516100919190611145565b60405180910390f35b6100a360005481565b604051908152602001610091565b61007a6100bf366004611090565b61026d565b6100cc610692565b60405161009191906111a7565b6100ec6100e7366004611090565b6106fe565b6040516100919190611207565b60008190556040518181527febaa1540a7a2f4fd56917205a7326b45cd094b271e1c175a4c5e472967e60e849060200160405180910390a150565b60606002805480602002602001604051908101604052809291908181526020016000905b828210156102645760008481526020908190206040805160a0810182526005860290920180546001600160a01b0390811660608501908152600183015460808601528452825180840184526002830154909116815260038201548186015293830193909352600483018054929392918401916101d390611221565b80601f01602080910402602001604051908101604052809291908181526020018280546101ff90611221565b801561024c5780601f106102215761010080835404028352916020019161024c565b820191906000526020600020905b81548152906001019060200180831161022f57829003601f168201915b50505050508152505081526020019060010190610158565b50505050905090565b60035460ff16156102bd5760405162461bcd60e51b8152602060048201526015602482015274115c9c9bdc8e881499595b9d1c985b9d0818d85b1b605a1b60448201526064015b60405180910390fd5b6003805460ff1916600117905560405133907f6fd5bea3ad79492c3055c6f6b7b37ca66d63ba4ceef7d04dd901559affbe971a90600090a28060000361033c5760405162461bcd60e51b815260206004820152601460248201527304572726f723a2043616e277420696e70757420360641b60448201526064016102b4565b600381111561038d5760405162461bcd60e51b815260206004820152601e60248201527f4572726f723a2043616e277420696e707574206d6f7265207468616e2033000060448201526064016102b4565b6000805b6005548110156104da57600581815481106103ae576103ae61125b565b60009182526020909120600290910201546001600160a01b031633036104c857600191507f1d229a771174308da40f70761ba48b700922b118fea40f5e3705f7067c12cc3860405161044c9060208082526032908201527f596f7520616c726561647920696e207468652071756575652c2077616974206660408201527137b91037ba3432b910383630bc903537b4b760711b606082015260800190565b60405180910390a181156104c85760405162461bcd60e51b815260206004820152603960248201527f4572726f723a20596f7520616c726561647920696e207468652071756575652c60448201527f207761697420666f72206f7468657220706c6179206a6f696e0000000000000060648201526084016102b4565b806104d281611287565b915050610391565b5060408051808201909152600080825260208201526005805460018082018355600083905283517f036b6384b5eca791c62761152d0c79bb0604c104a5fb6f4eb0703f3154bb3db0600290930292830180546001600160a01b0319166001600160a01b0390921691909117905560208401517f036b6384b5eca791c62761152d0c79bb0604c104a5fb6f4eb0703f3154bb3db1909201919091558154339291610582916112a0565b815481106105925761059261125b565b6000918252602090912060029091020180546001600160a01b0319166001600160a01b0392909216919091179055600580548491906105d3906001906112a0565b815481106105e3576105e361125b565b6000918252602082206001600290920201810192909255600680549283018155908190527ff652222313e28459528d920b65115c16c04f3efc82aaedc97be59f3f377c0d3f90910180546001600160a01b031916331790556040517f14e40fb773638b86a70b4be5b9adb8cadf42cc23571ea96f58e620df77b3d5a991610669916112b9565b60405180910390a160055460060361068357610683610860565b50506003805460ff1916905550565b60606005805480602002602001604051908101604052809291908181526020016000905b82821015610264576000848152602090819020604080518082019091526002850290910180546001600160a01b031682526001908101548284015290835290920191016106b6565b610706611046565b6002548211156107505760405162461bcd60e51b815260206004820152601560248201527408ae4e4dee4744092dcecc2d8d2c840d8cadccee8d605b1b60448201526064016102b4565b600282815481106107635761076361125b565b60009182526020918290206040805160a081018252600590930290910180546001600160a01b0390811660608501908152600183015460808601528452825180840184526002830154909116815260038201548186015293830193909352600483018054929392918401916107d790611221565b80601f016020809104026020016040519081016040528092919081815260200182805461080390611221565b80156108505780601f1061082557610100808354040283529160200191610850565b820191906000526020600020905b81548152906001019060200180831161083357829003601f168201915b5050505050815250509050919050565b600061086a6108c6565b905060006108766108c6565b90506108828282610a7f565b5050600554600003610860576005546040519081527f1f237084c29a99316238004a5870904571dbc9ff0d357b8b85cceacb5512a8509060200160405180910390a1565b604080518082019091526000808252602082015260055461091a5760405162461bcd60e51b815260206004820152600e60248201526d417272617920697320656d70747960901b60448201526064016102b4565b6005546004546040805144602082015242918101919091526060810191909152600091906080016040516020818303038152906040528051906020012060001c6109649190611309565b60048054919250600061097683611287565b91905055506000600582815481106109905761099061125b565b60009182526020918290206040805180820190915260029092020180546001600160a01b031682526001908101549282019290925260058054919350916109d6916112a0565b815481106109e6576109e661125b565b906000526020600020906002020160058381548110610a0757610a0761125b565b60009182526020909120825460029092020180546001600160a01b0319166001600160a01b039092169190911781556001918201549101556005805480610a5057610a5061132b565b60008281526020812060026000199093019283020180546001600160a01b031916815560010155905592915050565b610a87611046565b60028054600181018255600091909152815180517f405787fa12a823e0f2b7631cc41b3ba8828b3321ca811111fa75cd3aa3bb5ace600590930292830180546001600160a01b03199081166001600160a01b039384161782556020938401517f405787fa12a823e0f2b7631cc41b3ba8828b3321ca811111fa75cd3aa3bb5acf8601558386015180517f405787fa12a823e0f2b7631cc41b3ba8828b3321ca811111fa75cd3aa3bb5ad08701805490931694169390931790559101517f405787fa12a823e0f2b7631cc41b3ba8828b3321ca811111fa75cd3aa3bb5ad1830155604083015183927f405787fa12a823e0f2b7631cc41b3ba8828b3321ca811111fa75cd3aa3bb5ad20190610b9b90826113a5565b505060028054859250610bb0906001906112a0565b81548110610bc057610bc061125b565b600091825260209182902083516005929092020180546001600160a01b0319166001600160a01b03909216919091178155910151600191820155600280548492610c09916112a0565b81548110610c1957610c1961125b565b6000918252602091829020835160059290920201600281810180546001600160a01b0319166001600160a01b039094169390931790925592909101516003909201919091558054610c6c906001906112a0565b81548110610c7c57610c7c61125b565b600091825260209091206003600590920201015460028054610ca0906001906112a0565b81548110610cb057610cb061125b565b90600052602060002090600502016000016001015403610d7657604080518082019091526004815263151a595960e21b602082015260028054610cf5906001906112a0565b81548110610d0557610d0561125b565b90600052602060002090600502016004019081610d2291906113a5565b507fcde5c32c0a45fd8aa4b65ea8003fc9da9acd5e2c6c24a9fcce6ab79cabbd9122604051610d6990602080825260049082015263151a595960e21b604082015260600190565b60405180910390a1505050565b60028054610d86906001906112a0565b81548110610d9657610d9661125b565b9060005260206000209060050201600001600101546001148015610dee575060028054610dc5906001906112a0565b81548110610dd557610dd561125b565b9060005260206000209060050201600201600101546002145b80610e6c575060028054610e04906001906112a0565b81548110610e1457610e1461125b565b9060005260206000209060050201600001600101546003148015610e6c575060028054610e43906001906112a0565b81548110610e5357610e5361125b565b9060005260206000209060050201600201600101546001145b80610eea575060028054610e82906001906112a0565b81548110610e9257610e9261125b565b9060005260206000209060050201600001600101546002148015610eea575060028054610ec1906001906112a0565b81548110610ed157610ed161125b565b9060005260206000209060050201600201600101546003145b15610f98576040805180820190915260098152682ab9b2b919103bb4b760b91b602082015260028054610f1f906001906112a0565b81548110610f2f57610f2f61125b565b90600052602060002090600502016004019081610f4c91906113a5565b507fcde5c32c0a45fd8aa4b65ea8003fc9da9acd5e2c6c24a9fcce6ab79cabbd9122604051610d69906020808252600990820152682ab9b2b919103bb4b760b91b604082015260600190565b6040805180820190915260098152682ab9b2b918903bb4b760b91b602082015260028054610fc8906001906112a0565b81548110610fd857610fd861125b565b90600052602060002090600502016004019081610ff591906113a5565b507fcde5c32c0a45fd8aa4b65ea8003fc9da9acd5e2c6c24a9fcce6ab79cabbd9122604051610d69906020808252600990820152682ab9b2b918903bb4b760b91b604082015260600190565b505050565b6040805160a08101909152600060608201818152608083019190915281908152602001611083604080518082019091526000808252602082015290565b8152602001606081525090565b6000602082840312156110a257600080fd5b5035919050565b6110c782825180516001600160a01b03168252602090810151910152565b60006020808301516110ef604086018280516001600160a01b03168252602090810151910152565b50604083015160a0608086015280518060a087015260005b818110156111235782810184015187820160c001528301611107565b50600060c0828801015260c0601f19601f830116870101935050505092915050565b6000602080830181845280855180835260408601915060408160051b870101925083870160005b8281101561119a57603f198886030184526111888583516110a9565b9450928501929085019060010161116c565b5092979650505050505050565b602080825282518282018190526000919060409081850190868401855b828110156111fa576111ea84835180516001600160a01b03168252602090810151910152565b92840192908501906001016111c4565b5091979650505050505050565b60208152600061121a60208301846110a9565b9392505050565b600181811c9082168061123557607f821691505b60208210810361125557634e487b7160e01b600052602260045260246000fd5b50919050565b634e487b7160e01b600052603260045260246000fd5b634e487b7160e01b600052601160045260246000fd5b60006001820161129957611299611271565b5060010190565b818103818111156112b3576112b3611271565b92915050565b6020808252825482820181905260008481528281209092916040850190845b818110156112fd5783546001600160a01b0316835260019384019392850192016112d8565b50909695505050505050565b60008261132657634e487b7160e01b600052601260045260246000fd5b500690565b634e487b7160e01b600052603160045260246000fd5b634e487b7160e01b600052604160045260246000fd5b601f82111561104157600081815260208120601f850160051c8101602086101561137e5750805b601f850160051c820191505b8181101561139d5782815560010161138a565b505050505050565b815167ffffffffffffffff8111156113bf576113bf611341565b6113d3816113cd8454611221565b84611357565b602080601f83116001811461140857600084156113f05750858301515b600019600386901b1c1916600185901b17855561139d565b600085815260208120601f198616915b8281101561143757888601518255948401946001909101908401611418565b50858210156114555787850151600019600388901b60f8161c191681555b5050505050600190811b0190555056fea26469706673582212208ec41ecd4cb746a969d6edec8f9e9b60eef2bac3610e2ba9f5caa14724345f8364736f6c63430008130033",
					"opcodes": "PUSH1 0x80 PUSH1 0x40 MSTORE PUSH1 0x1 PUSH1 0x0 SSTORE PUSH1 0x0 PUSH1 0x1 SSTORE PUSH1 0x1 PUSH1 0x4 SSTORE CALLVALUE DUP1 ISZERO PUSH2 0x1F JUMPI PUSH1 0x0 DUP1 REVERT JUMPDEST POP PUSH2 0x149B DUP1 PUSH2 0x2F PUSH1 0x0 CODECOPY PUSH1 0x0 RETURN INVALID PUSH1 0x80 PUSH1 0x40 MSTORE CALLVALUE DUP1 ISZERO PUSH2 0x10 JUMPI PUSH1 0x0 DUP1 REVERT JUMPDEST POP PUSH1 0x4 CALLDATASIZE LT PUSH2 0x62 JUMPI PUSH1 0x0 CALLDATALOAD PUSH1 0xE0 SHR DUP1 PUSH4 0x1DB05A88 EQ PUSH2 0x67 JUMPI DUP1 PUSH4 0x512EC557 EQ PUSH2 0x7C JUMPI DUP1 PUSH4 0x76DAD223 EQ PUSH2 0x9A JUMPI DUP1 PUSH4 0xADF496B5 EQ PUSH2 0xB1 JUMPI DUP1 PUSH4 0xE16C9D59 EQ PUSH2 0xC4 JUMPI DUP1 PUSH4 0xF7C4EFBB EQ PUSH2 0xD9 JUMPI JUMPDEST PUSH1 0x0 DUP1 REVERT JUMPDEST PUSH2 0x7A PUSH2 0x75 CALLDATASIZE PUSH1 0x4 PUSH2 0x1090 JUMP JUMPDEST PUSH2 0xF9 JUMP JUMPDEST STOP JUMPDEST PUSH2 0x84 PUSH2 0x134 JUMP JUMPDEST PUSH1 0x40 MLOAD PUSH2 0x91 SWAP2 SWAP1 PUSH2 0x1145 JUMP JUMPDEST PUSH1 0x40 MLOAD DUP1 SWAP2 SUB SWAP1 RETURN JUMPDEST PUSH2 0xA3 PUSH1 0x0 SLOAD DUP2 JUMP JUMPDEST PUSH1 0x40 MLOAD SWAP1 DUP2 MSTORE PUSH1 0x20 ADD PUSH2 0x91 JUMP JUMPDEST PUSH2 0x7A PUSH2 0xBF CALLDATASIZE PUSH1 0x4 PUSH2 0x1090 JUMP JUMPDEST PUSH2 0x26D JUMP JUMPDEST PUSH2 0xCC PUSH2 0x692 JUMP JUMPDEST PUSH1 0x40 MLOAD PUSH2 0x91 SWAP2 SWAP1 PUSH2 0x11A7 JUMP JUMPDEST PUSH2 0xEC PUSH2 0xE7 CALLDATASIZE PUSH1 0x4 PUSH2 0x1090 JUMP JUMPDEST PUSH2 0x6FE JUMP JUMPDEST PUSH1 0x40 MLOAD PUSH2 0x91 SWAP2 SWAP1 PUSH2 0x1207 JUMP JUMPDEST PUSH1 0x0 DUP2 SWAP1 SSTORE PUSH1 0x40 MLOAD DUP2 DUP2 MSTORE PUSH32 0xEBAA1540A7A2F4FD56917205A7326B45CD094B271E1C175A4C5E472967E60E84 SWAP1 PUSH1 0x20 ADD PUSH1 0x40 MLOAD DUP1 SWAP2 SUB SWAP1 LOG1 POP JUMP JUMPDEST PUSH1 0x60 PUSH1 0x2 DUP1 SLOAD DUP1 PUSH1 0x20 MUL PUSH1 0x20 ADD PUSH1 0x40 MLOAD SWAP1 DUP2 ADD PUSH1 0x40 MSTORE DUP1 SWAP3 SWAP2 SWAP1 DUP2 DUP2 MSTORE PUSH1 0x20 ADD PUSH1 0x0 SWAP1 JUMPDEST DUP3 DUP3 LT ISZERO PUSH2 0x264 JUMPI PUSH1 0x0 DUP5 DUP2 MSTORE PUSH1 0x20 SWAP1 DUP2 SWAP1 KECCAK256 PUSH1 0x40 DUP1 MLOAD PUSH1 0xA0 DUP2 ADD DUP3 MSTORE PUSH1 0x5 DUP7 MUL SWAP1 SWAP3 ADD DUP1 SLOAD PUSH1 0x1 PUSH1 0x1 PUSH1 0xA0 SHL SUB SWAP1 DUP2 AND PUSH1 0x60 DUP6 ADD SWAP1 DUP2 MSTORE PUSH1 0x1 DUP4 ADD SLOAD PUSH1 0x80 DUP7 ADD MSTORE DUP5 MSTORE DUP3 MLOAD DUP1 DUP5 ADD DUP5 MSTORE PUSH1 0x2 DUP4 ADD SLOAD SWAP1 SWAP2 AND DUP2 MSTORE PUSH1 0x3 DUP3 ADD SLOAD DUP2 DUP7 ADD MSTORE SWAP4 DUP4 ADD SWAP4 SWAP1 SWAP4 MSTORE PUSH1 0x4 DUP4 ADD DUP1 SLOAD SWAP3 SWAP4 SWAP3 SWAP2 DUP5 ADD SWAP2 PUSH2 0x1D3 SWAP1 PUSH2 0x1221 JUMP JUMPDEST DUP1 PUSH1 0x1F ADD PUSH1 0x20 DUP1 SWAP2 DIV MUL PUSH1 0x20 ADD PUSH1 0x40 MLOAD SWAP1 DUP2 ADD PUSH1 0x40 MSTORE DUP1 SWAP3 SWAP2 SWAP1 DUP2 DUP2 MSTORE PUSH1 0x20 ADD DUP3 DUP1 SLOAD PUSH2 0x1FF SWAP1 PUSH2 0x1221 JUMP JUMPDEST DUP1 ISZERO PUSH2 0x24C JUMPI DUP1 PUSH1 0x1F LT PUSH2 0x221 JUMPI PUSH2 0x100 DUP1 DUP4 SLOAD DIV MUL DUP4 MSTORE SWAP2 PUSH1 0x20 ADD SWAP2 PUSH2 0x24C JUMP JUMPDEST DUP3 ADD SWAP2 SWAP1 PUSH1 0x0 MSTORE PUSH1 0x20 PUSH1 0x0 KECCAK256 SWAP1 JUMPDEST DUP2 SLOAD DUP2 MSTORE SWAP1 PUSH1 0x1 ADD SWAP1 PUSH1 0x20 ADD DUP1 DUP4 GT PUSH2 0x22F JUMPI DUP3 SWAP1 SUB PUSH1 0x1F AND DUP3 ADD SWAP2 JUMPDEST POP POP POP POP POP DUP2 MSTORE POP POP DUP2 MSTORE PUSH1 0x20 ADD SWAP1 PUSH1 0x1 ADD SWAP1 PUSH2 0x158 JUMP JUMPDEST POP POP POP POP SWAP1 POP SWAP1 JUMP JUMPDEST PUSH1 0x3 SLOAD PUSH1 0xFF AND ISZERO PUSH2 0x2BD JUMPI PUSH1 0x40 MLOAD PUSH3 0x461BCD PUSH1 0xE5 SHL DUP2 MSTORE PUSH1 0x20 PUSH1 0x4 DUP3 ADD MSTORE PUSH1 0x15 PUSH1 0x24 DUP3 ADD MSTORE PUSH21 0x115C9C9BDC8E881499595B9D1C985B9D0818D85B1B PUSH1 0x5A SHL PUSH1 0x44 DUP3 ADD MSTORE PUSH1 0x64 ADD JUMPDEST PUSH1 0x40 MLOAD DUP1 SWAP2 SUB SWAP1 REVERT JUMPDEST PUSH1 0x3 DUP1 SLOAD PUSH1 0xFF NOT AND PUSH1 0x1 OR SWAP1 SSTORE PUSH1 0x40 MLOAD CALLER SWAP1 PUSH32 0x6FD5BEA3AD79492C3055C6F6B7B37CA66D63BA4CEEF7D04DD901559AFFBE971A SWAP1 PUSH1 0x0 SWAP1 LOG2 DUP1 PUSH1 0x0 SUB PUSH2 0x33C JUMPI PUSH1 0x40 MLOAD PUSH3 0x461BCD PUSH1 0xE5 SHL DUP2 MSTORE PUSH1 0x20 PUSH1 0x4 DUP3 ADD MSTORE PUSH1 0x14 PUSH1 0x24 DUP3 ADD MSTORE PUSH20 0x4572726F723A2043616E277420696E707574203 PUSH1 0x64 SHL PUSH1 0x44 DUP3 ADD MSTORE PUSH1 0x64 ADD PUSH2 0x2B4 JUMP JUMPDEST PUSH1 0x3 DUP2 GT ISZERO PUSH2 0x38D JUMPI PUSH1 0x40 MLOAD PUSH3 0x461BCD PUSH1 0xE5 SHL DUP2 MSTORE PUSH1 0x20 PUSH1 0x4 DUP3 ADD MSTORE PUSH1 0x1E PUSH1 0x24 DUP3 ADD MSTORE PUSH32 0x4572726F723A2043616E277420696E707574206D6F7265207468616E20330000 PUSH1 0x44 DUP3 ADD MSTORE PUSH1 0x64 ADD PUSH2 0x2B4 JUMP JUMPDEST PUSH1 0x0 DUP1 JUMPDEST PUSH1 0x5 SLOAD DUP2 LT ISZERO PUSH2 0x4DA JUMPI PUSH1 0x5 DUP2 DUP2 SLOAD DUP2 LT PUSH2 0x3AE JUMPI PUSH2 0x3AE PUSH2 0x125B JUMP JUMPDEST PUSH1 0x0 SWAP2 DUP3 MSTORE PUSH1 0x20 SWAP1 SWAP2 KECCAK256 PUSH1 0x2 SWAP1 SWAP2 MUL ADD SLOAD PUSH1 0x1 PUSH1 0x1 PUSH1 0xA0 SHL SUB AND CALLER SUB PUSH2 0x4C8 JUMPI PUSH1 0x1 SWAP2 POP PUSH32 0x1D229A771174308DA40F70761BA48B700922B118FEA40F5E3705F7067C12CC38 PUSH1 0x40 MLOAD PUSH2 0x44C SWAP1 PUSH1 0x20 DUP1 DUP3 MSTORE PUSH1 0x32 SWAP1 DUP3 ADD MSTORE PUSH32 0x596F7520616C726561647920696E207468652071756575652C20776169742066 PUSH1 0x40 DUP3 ADD MSTORE PUSH18 0x37B91037BA3432B910383630BC903537B4B7 PUSH1 0x71 SHL PUSH1 0x60 DUP3 ADD MSTORE PUSH1 0x80 ADD SWAP1 JUMP JUMPDEST PUSH1 0x40 MLOAD DUP1 SWAP2 SUB SWAP1 LOG1 DUP2 ISZERO PUSH2 0x4C8 JUMPI PUSH1 0x40 MLOAD PUSH3 0x461BCD PUSH1 0xE5 SHL DUP2 MSTORE PUSH1 0x20 PUSH1 0x4 DUP3 ADD MSTORE PUSH1 0x39 PUSH1 0x24 DUP3 ADD MSTORE PUSH32 0x4572726F723A20596F7520616C726561647920696E207468652071756575652C PUSH1 0x44 DUP3 ADD MSTORE PUSH32 0x207761697420666F72206F7468657220706C6179206A6F696E00000000000000 PUSH1 0x64 DUP3 ADD MSTORE PUSH1 0x84 ADD PUSH2 0x2B4 JUMP JUMPDEST DUP1 PUSH2 0x4D2 DUP2 PUSH2 0x1287 JUMP JUMPDEST SWAP2 POP POP PUSH2 0x391 JUMP JUMPDEST POP PUSH1 0x40 DUP1 MLOAD DUP1 DUP3 ADD SWAP1 SWAP2 MSTORE PUSH1 0x0 DUP1 DUP3 MSTORE PUSH1 0x20 DUP3 ADD MSTORE PUSH1 0x5 DUP1 SLOAD PUSH1 0x1 DUP1 DUP3 ADD DUP4 SSTORE PUSH1 0x0 DUP4 SWAP1 MSTORE DUP4 MLOAD PUSH32 0x36B6384B5ECA791C62761152D0C79BB0604C104A5FB6F4EB0703F3154BB3DB0 PUSH1 0x2 SWAP1 SWAP4 MUL SWAP3 DUP4 ADD DUP1 SLOAD PUSH1 0x1 PUSH1 0x1 PUSH1 0xA0 SHL SUB NOT AND PUSH1 0x1 PUSH1 0x1 PUSH1 0xA0 SHL SUB SWAP1 SWAP3 AND SWAP2 SWAP1 SWAP2 OR SWAP1 SSTORE PUSH1 0x20 DUP5 ADD MLOAD PUSH32 0x36B6384B5ECA791C62761152D0C79BB0604C104A5FB6F4EB0703F3154BB3DB1 SWAP1 SWAP3 ADD SWAP2 SWAP1 SWAP2 SSTORE DUP2 SLOAD CALLER SWAP3 SWAP2 PUSH2 0x582 SWAP2 PUSH2 0x12A0 JUMP JUMPDEST DUP2 SLOAD DUP2 LT PUSH2 0x592 JUMPI PUSH2 0x592 PUSH2 0x125B JUMP JUMPDEST PUSH1 0x0 SWAP2 DUP3 MSTORE PUSH1 0x20 SWAP1 SWAP2 KECCAK256 PUSH1 0x2 SWAP1 SWAP2 MUL ADD DUP1 SLOAD PUSH1 0x1 PUSH1 0x1 PUSH1 0xA0 SHL SUB NOT AND PUSH1 0x1 PUSH1 0x1 PUSH1 0xA0 SHL SUB SWAP3 SWAP1 SWAP3 AND SWAP2 SWAP1 SWAP2 OR SWAP1 SSTORE PUSH1 0x5 DUP1 SLOAD DUP5 SWAP2 SWAP1 PUSH2 0x5D3 SWAP1 PUSH1 0x1 SWAP1 PUSH2 0x12A0 JUMP JUMPDEST DUP2 SLOAD DUP2 LT PUSH2 0x5E3 JUMPI PUSH2 0x5E3 PUSH2 0x125B JUMP JUMPDEST PUSH1 0x0 SWAP2 DUP3 MSTORE PUSH1 0x20 DUP3 KECCAK256 PUSH1 0x1 PUSH1 0x2 SWAP1 SWAP3 MUL ADD DUP2 ADD SWAP3 SWAP1 SWAP3 SSTORE PUSH1 0x6 DUP1 SLOAD SWAP3 DUP4 ADD DUP2 SSTORE SWAP1 DUP2 SWAP1 MSTORE PUSH32 0xF652222313E28459528D920B65115C16C04F3EFC82AAEDC97BE59F3F377C0D3F SWAP1 SWAP2 ADD DUP1 SLOAD PUSH1 0x1 PUSH1 0x1 PUSH1 0xA0 SHL SUB NOT AND CALLER OR SWAP1 SSTORE PUSH1 0x40 MLOAD PUSH32 0x14E40FB773638B86A70B4BE5B9ADB8CADF42CC23571EA96F58E620DF77B3D5A9 SWAP2 PUSH2 0x669 SWAP2 PUSH2 0x12B9 JUMP JUMPDEST PUSH1 0x40 MLOAD DUP1 SWAP2 SUB SWAP1 LOG1 PUSH1 0x5 SLOAD PUSH1 0x6 SUB PUSH2 0x683 JUMPI PUSH2 0x683 PUSH2 0x860 JUMP JUMPDEST POP POP PUSH1 0x3 DUP1 SLOAD PUSH1 0xFF NOT AND SWAP1 SSTORE POP JUMP JUMPDEST PUSH1 0x60 PUSH1 0x5 DUP1 SLOAD DUP1 PUSH1 0x20 MUL PUSH1 0x20 ADD PUSH1 0x40 MLOAD SWAP1 DUP2 ADD PUSH1 0x40 MSTORE DUP1 SWAP3 SWAP2 SWAP1 DUP2 DUP2 MSTORE PUSH1 0x20 ADD PUSH1 0x0 SWAP1 JUMPDEST DUP3 DUP3 LT ISZERO PUSH2 0x264 JUMPI PUSH1 0x0 DUP5 DUP2 MSTORE PUSH1 0x20 SWAP1 DUP2 SWAP1 KECCAK256 PUSH1 0x40 DUP1 MLOAD DUP1 DUP3 ADD SWAP1 SWAP2 MSTORE PUSH1 0x2 DUP6 MUL SWAP1 SWAP2 ADD DUP1 SLOAD PUSH1 0x1 PUSH1 0x1 PUSH1 0xA0 SHL SUB AND DUP3 MSTORE PUSH1 0x1 SWAP1 DUP2 ADD SLOAD DUP3 DUP5 ADD MSTORE SWAP1 DUP4 MSTORE SWAP1 SWAP3 ADD SWAP2 ADD PUSH2 0x6B6 JUMP JUMPDEST PUSH2 0x706 PUSH2 0x1046 JUMP JUMPDEST PUSH1 0x2 SLOAD DUP3 GT ISZERO PUSH2 0x750 JUMPI PUSH1 0x40 MLOAD PUSH3 0x461BCD PUSH1 0xE5 SHL DUP2 MSTORE PUSH1 0x20 PUSH1 0x4 DUP3 ADD MSTORE PUSH1 0x15 PUSH1 0x24 DUP3 ADD MSTORE PUSH21 0x8AE4E4DEE4744092DCECC2D8D2C840D8CADCCEE8D PUSH1 0x5B SHL PUSH1 0x44 DUP3 ADD MSTORE PUSH1 0x64 ADD PUSH2 0x2B4 JUMP JUMPDEST PUSH1 0x2 DUP3 DUP2 SLOAD DUP2 LT PUSH2 0x763 JUMPI PUSH2 0x763 PUSH2 0x125B JUMP JUMPDEST PUSH1 0x0 SWAP2 DUP3 MSTORE PUSH1 0x20 SWAP2 DUP3 SWAP1 KECCAK256 PUSH1 0x40 DUP1 MLOAD PUSH1 0xA0 DUP2 ADD DUP3 MSTORE PUSH1 0x5 SWAP1 SWAP4 MUL SWAP1 SWAP2 ADD DUP1 SLOAD PUSH1 0x1 PUSH1 0x1 PUSH1 0xA0 SHL SUB SWAP1 DUP2 AND PUSH1 0x60 DUP6 ADD SWAP1 DUP2 MSTORE PUSH1 0x1 DUP4 ADD SLOAD PUSH1 0x80 DUP7 ADD MSTORE DUP5 MSTORE DUP3 MLOAD DUP1 DUP5 ADD DUP5 MSTORE PUSH1 0x2 DUP4 ADD SLOAD SWAP1 SWAP2 AND DUP2 MSTORE PUSH1 0x3 DUP3 ADD SLOAD DUP2 DUP7 ADD MSTORE SWAP4 DUP4 ADD SWAP4 SWAP1 SWAP4 MSTORE PUSH1 0x4 DUP4 ADD DUP1 SLOAD SWAP3 SWAP4 SWAP3 SWAP2 DUP5 ADD SWAP2 PUSH2 0x7D7 SWAP1 PUSH2 0x1221 JUMP JUMPDEST DUP1 PUSH1 0x1F ADD PUSH1 0x20 DUP1 SWAP2 DIV MUL PUSH1 0x20 ADD PUSH1 0x40 MLOAD SWAP1 DUP2 ADD PUSH1 0x40 MSTORE DUP1 SWAP3 SWAP2 SWAP1 DUP2 DUP2 MSTORE PUSH1 0x20 ADD DUP3 DUP1 SLOAD PUSH2 0x803 SWAP1 PUSH2 0x1221 JUMP JUMPDEST DUP1 ISZERO PUSH2 0x850 JUMPI DUP1 PUSH1 0x1F LT PUSH2 0x825 JUMPI PUSH2 0x100 DUP1 DUP4 SLOAD DIV MUL DUP4 MSTORE SWAP2 PUSH1 0x20 ADD SWAP2 PUSH2 0x850 JUMP JUMPDEST DUP3 ADD SWAP2 SWAP1 PUSH1 0x0 MSTORE PUSH1 0x20 PUSH1 0x0 KECCAK256 SWAP1 JUMPDEST DUP2 SLOAD DUP2 MSTORE SWAP1 PUSH1 0x1 ADD SWAP1 PUSH1 0x20 ADD DUP1 DUP4 GT PUSH2 0x833 JUMPI DUP3 SWAP1 SUB PUSH1 0x1F AND DUP3 ADD SWAP2 JUMPDEST POP POP POP POP POP DUP2 MSTORE POP POP SWAP1 POP SWAP2 SWAP1 POP JUMP JUMPDEST PUSH1 0x0 PUSH2 0x86A PUSH2 0x8C6 JUMP JUMPDEST SWAP1 POP PUSH1 0x0 PUSH2 0x876 PUSH2 0x8C6 JUMP JUMPDEST SWAP1 POP PUSH2 0x882 DUP3 DUP3 PUSH2 0xA7F JUMP JUMPDEST POP POP PUSH1 0x5 SLOAD PUSH1 0x0 SUB PUSH2 0x860 JUMPI PUSH1 0x5 SLOAD PUSH1 0x40 MLOAD SWAP1 DUP2 MSTORE PUSH32 0x1F237084C29A99316238004A5870904571DBC9FF0D357B8B85CCEACB5512A850 SWAP1 PUSH1 0x20 ADD PUSH1 0x40 MLOAD DUP1 SWAP2 SUB SWAP1 LOG1 JUMP JUMPDEST PUSH1 0x40 DUP1 MLOAD DUP1 DUP3 ADD SWAP1 SWAP2 MSTORE PUSH1 0x0 DUP1 DUP3 MSTORE PUSH1 0x20 DUP3 ADD MSTORE PUSH1 0x5 SLOAD PUSH2 0x91A JUMPI PUSH1 0x40 MLOAD PUSH3 0x461BCD PUSH1 0xE5 SHL DUP2 MSTORE PUSH1 0x20 PUSH1 0x4 DUP3 ADD MSTORE PUSH1 0xE PUSH1 0x24 DUP3 ADD MSTORE PUSH14 0x417272617920697320656D707479 PUSH1 0x90 SHL PUSH1 0x44 DUP3 ADD MSTORE PUSH1 0x64 ADD PUSH2 0x2B4 JUMP JUMPDEST PUSH1 0x5 SLOAD PUSH1 0x4 SLOAD PUSH1 0x40 DUP1 MLOAD PREVRANDAO PUSH1 0x20 DUP3 ADD MSTORE TIMESTAMP SWAP2 DUP2 ADD SWAP2 SWAP1 SWAP2 MSTORE PUSH1 0x60 DUP2 ADD SWAP2 SWAP1 SWAP2 MSTORE PUSH1 0x0 SWAP2 SWAP1 PUSH1 0x80 ADD PUSH1 0x40 MLOAD PUSH1 0x20 DUP2 DUP4 SUB SUB DUP2 MSTORE SWAP1 PUSH1 0x40 MSTORE DUP1 MLOAD SWAP1 PUSH1 0x20 ADD KECCAK256 PUSH1 0x0 SHR PUSH2 0x964 SWAP2 SWAP1 PUSH2 0x1309 JUMP JUMPDEST PUSH1 0x4 DUP1 SLOAD SWAP2 SWAP3 POP PUSH1 0x0 PUSH2 0x976 DUP4 PUSH2 0x1287 JUMP JUMPDEST SWAP2 SWAP1 POP SSTORE POP PUSH1 0x0 PUSH1 0x5 DUP3 DUP2 SLOAD DUP2 LT PUSH2 0x990 JUMPI PUSH2 0x990 PUSH2 0x125B JUMP JUMPDEST PUSH1 0x0 SWAP2 DUP3 MSTORE PUSH1 0x20 SWAP2 DUP3 SWAP1 KECCAK256 PUSH1 0x40 DUP1 MLOAD DUP1 DUP3 ADD SWAP1 SWAP2 MSTORE PUSH1 0x2 SWAP1 SWAP3 MUL ADD DUP1 SLOAD PUSH1 0x1 PUSH1 0x1 PUSH1 0xA0 SHL SUB AND DUP3 MSTORE PUSH1 0x1 SWAP1 DUP2 ADD SLOAD SWAP3 DUP3 ADD SWAP3 SWAP1 SWAP3 MSTORE PUSH1 0x5 DUP1 SLOAD SWAP2 SWAP4 POP SWAP2 PUSH2 0x9D6 SWAP2 PUSH2 0x12A0 JUMP JUMPDEST DUP2 SLOAD DUP2 LT PUSH2 0x9E6 JUMPI PUSH2 0x9E6 PUSH2 0x125B JUMP JUMPDEST SWAP1 PUSH1 0x0 MSTORE PUSH1 0x20 PUSH1 0x0 KECCAK256 SWAP1 PUSH1 0x2 MUL ADD PUSH1 0x5 DUP4 DUP2 SLOAD DUP2 LT PUSH2 0xA07 JUMPI PUSH2 0xA07 PUSH2 0x125B JUMP JUMPDEST PUSH1 0x0 SWAP2 DUP3 MSTORE PUSH1 0x20 SWAP1 SWAP2 KECCAK256 DUP3 SLOAD PUSH1 0x2 SWAP1 SWAP3 MUL ADD DUP1 SLOAD PUSH1 0x1 PUSH1 0x1 PUSH1 0xA0 SHL SUB NOT AND PUSH1 0x1 PUSH1 0x1 PUSH1 0xA0 SHL SUB SWAP1 SWAP3 AND SWAP2 SWAP1 SWAP2 OR DUP2 SSTORE PUSH1 0x1 SWAP2 DUP3 ADD SLOAD SWAP2 ADD SSTORE PUSH1 0x5 DUP1 SLOAD DUP1 PUSH2 0xA50 JUMPI PUSH2 0xA50 PUSH2 0x132B JUMP JUMPDEST PUSH1 0x0 DUP3 DUP2 MSTORE PUSH1 0x20 DUP2 KECCAK256 PUSH1 0x2 PUSH1 0x0 NOT SWAP1 SWAP4 ADD SWAP3 DUP4 MUL ADD DUP1 SLOAD PUSH1 0x1 PUSH1 0x1 PUSH1 0xA0 SHL SUB NOT AND DUP2 SSTORE PUSH1 0x1 ADD SSTORE SWAP1 SSTORE SWAP3 SWAP2 POP POP JUMP JUMPDEST PUSH2 0xA87 PUSH2 0x1046 JUMP JUMPDEST PUSH1 0x2 DUP1 SLOAD PUSH1 0x1 DUP2 ADD DUP3 SSTORE PUSH1 0x0 SWAP2 SWAP1 SWAP2 MSTORE DUP2 MLOAD DUP1 MLOAD PUSH32 0x405787FA12A823E0F2B7631CC41B3BA8828B3321CA811111FA75CD3AA3BB5ACE PUSH1 0x5 SWAP1 SWAP4 MUL SWAP3 DUP4 ADD DUP1 SLOAD PUSH1 0x1 PUSH1 0x1 PUSH1 0xA0 SHL SUB NOT SWAP1 DUP2 AND PUSH1 0x1 PUSH1 0x1 PUSH1 0xA0 SHL SUB SWAP4 DUP5 AND OR DUP3 SSTORE PUSH1 0x20 SWAP4 DUP5 ADD MLOAD PUSH32 0x405787FA12A823E0F2B7631CC41B3BA8828B3321CA811111FA75CD3AA3BB5ACF DUP7 ADD SSTORE DUP4 DUP7 ADD MLOAD DUP1 MLOAD PUSH32 0x405787FA12A823E0F2B7631CC41B3BA8828B3321CA811111FA75CD3AA3BB5AD0 DUP8 ADD DUP1 SLOAD SWAP1 SWAP4 AND SWAP5 AND SWAP4 SWAP1 SWAP4 OR SWAP1 SSTORE SWAP2 ADD MLOAD PUSH32 0x405787FA12A823E0F2B7631CC41B3BA8828B3321CA811111FA75CD3AA3BB5AD1 DUP4 ADD SSTORE PUSH1 0x40 DUP4 ADD MLOAD DUP4 SWAP3 PUSH32 0x405787FA12A823E0F2B7631CC41B3BA8828B3321CA811111FA75CD3AA3BB5AD2 ADD SWAP1 PUSH2 0xB9B SWAP1 DUP3 PUSH2 0x13A5 JUMP JUMPDEST POP POP PUSH1 0x2 DUP1 SLOAD DUP6 SWAP3 POP PUSH2 0xBB0 SWAP1 PUSH1 0x1 SWAP1 PUSH2 0x12A0 JUMP JUMPDEST DUP2 SLOAD DUP2 LT PUSH2 0xBC0 JUMPI PUSH2 0xBC0 PUSH2 0x125B JUMP JUMPDEST PUSH1 0x0 SWAP2 DUP3 MSTORE PUSH1 0x20 SWAP2 DUP3 SWAP1 KECCAK256 DUP4 MLOAD PUSH1 0x5 SWAP3 SWAP1 SWAP3 MUL ADD DUP1 SLOAD PUSH1 0x1 PUSH1 0x1 PUSH1 0xA0 SHL SUB NOT AND PUSH1 0x1 PUSH1 0x1 PUSH1 0xA0 SHL SUB SWAP1 SWAP3 AND SWAP2 SWAP1 SWAP2 OR DUP2 SSTORE SWAP2 ADD MLOAD PUSH1 0x1 SWAP2 DUP3 ADD SSTORE PUSH1 0x2 DUP1 SLOAD DUP5 SWAP3 PUSH2 0xC09 SWAP2 PUSH2 0x12A0 JUMP JUMPDEST DUP2 SLOAD DUP2 LT PUSH2 0xC19 JUMPI PUSH2 0xC19 PUSH2 0x125B JUMP JUMPDEST PUSH1 0x0 SWAP2 DUP3 MSTORE PUSH1 0x20 SWAP2 DUP3 SWAP1 KECCAK256 DUP4 MLOAD PUSH1 0x5 SWAP3 SWAP1 SWAP3 MUL ADD PUSH1 0x2 DUP2 DUP2 ADD DUP1 SLOAD PUSH1 0x1 PUSH1 0x1 PUSH1 0xA0 SHL SUB NOT AND PUSH1 0x1 PUSH1 0x1 PUSH1 0xA0 SHL SUB SWAP1 SWAP5 AND SWAP4 SWAP1 SWAP4 OR SWAP1 SWAP3 SSTORE SWAP3 SWAP1 SWAP2 ADD MLOAD PUSH1 0x3 SWAP1 SWAP3 ADD SWAP2 SWAP1 SWAP2 SSTORE DUP1 SLOAD PUSH2 0xC6C SWAP1 PUSH1 0x1 SWAP1 PUSH2 0x12A0 JUMP JUMPDEST DUP2 SLOAD DUP2 LT PUSH2 0xC7C JUMPI PUSH2 0xC7C PUSH2 0x125B JUMP JUMPDEST PUSH1 0x0 SWAP2 DUP3 MSTORE PUSH1 0x20 SWAP1 SWAP2 KECCAK256 PUSH1 0x3 PUSH1 0x5 SWAP1 SWAP3 MUL ADD ADD SLOAD PUSH1 0x2 DUP1 SLOAD PUSH2 0xCA0 SWAP1 PUSH1 0x1 SWAP1 PUSH2 0x12A0 JUMP JUMPDEST DUP2 SLOAD DUP2 LT PUSH2 0xCB0 JUMPI PUSH2 0xCB0 PUSH2 0x125B JUMP JUMPDEST SWAP1 PUSH1 0x0 MSTORE PUSH1 0x20 PUSH1 0x0 KECCAK256 SWAP1 PUSH1 0x5 MUL ADD PUSH1 0x0 ADD PUSH1 0x1 ADD SLOAD SUB PUSH2 0xD76 JUMPI PUSH1 0x40 DUP1 MLOAD DUP1 DUP3 ADD SWAP1 SWAP2 MSTORE PUSH1 0x4 DUP2 MSTORE PUSH4 0x151A5959 PUSH1 0xE2 SHL PUSH1 0x20 DUP3 ADD MSTORE PUSH1 0x2 DUP1 SLOAD PUSH2 0xCF5 SWAP1 PUSH1 0x1 SWAP1 PUSH2 0x12A0 JUMP JUMPDEST DUP2 SLOAD DUP2 LT PUSH2 0xD05 JUMPI PUSH2 0xD05 PUSH2 0x125B JUMP JUMPDEST SWAP1 PUSH1 0x0 MSTORE PUSH1 0x20 PUSH1 0x0 KECCAK256 SWAP1 PUSH1 0x5 MUL ADD PUSH1 0x4 ADD SWAP1 DUP2 PUSH2 0xD22 SWAP2 SWAP1 PUSH2 0x13A5 JUMP JUMPDEST POP PUSH32 0xCDE5C32C0A45FD8AA4B65EA8003FC9DA9ACD5E2C6C24A9FCCE6AB79CABBD9122 PUSH1 0x40 MLOAD PUSH2 0xD69 SWAP1 PUSH1 0x20 DUP1 DUP3 MSTORE PUSH1 0x4 SWAP1 DUP3 ADD MSTORE PUSH4 0x151A5959 PUSH1 0xE2 SHL PUSH1 0x40 DUP3 ADD MSTORE PUSH1 0x60 ADD SWAP1 JUMP JUMPDEST PUSH1 0x40 MLOAD DUP1 SWAP2 SUB SWAP1 LOG1 POP POP POP JUMP JUMPDEST PUSH1 0x2 DUP1 SLOAD PUSH2 0xD86 SWAP1 PUSH1 0x1 SWAP1 PUSH2 0x12A0 JUMP JUMPDEST DUP2 SLOAD DUP2 LT PUSH2 0xD96 JUMPI PUSH2 0xD96 PUSH2 0x125B JUMP JUMPDEST SWAP1 PUSH1 0x0 MSTORE PUSH1 0x20 PUSH1 0x0 KECCAK256 SWAP1 PUSH1 0x5 MUL ADD PUSH1 0x0 ADD PUSH1 0x1 ADD SLOAD PUSH1 0x1 EQ DUP1 ISZERO PUSH2 0xDEE JUMPI POP PUSH1 0x2 DUP1 SLOAD PUSH2 0xDC5 SWAP1 PUSH1 0x1 SWAP1 PUSH2 0x12A0 JUMP JUMPDEST DUP2 SLOAD DUP2 LT PUSH2 0xDD5 JUMPI PUSH2 0xDD5 PUSH2 0x125B JUMP JUMPDEST SWAP1 PUSH1 0x0 MSTORE PUSH1 0x20 PUSH1 0x0 KECCAK256 SWAP1 PUSH1 0x5 MUL ADD PUSH1 0x2 ADD PUSH1 0x1 ADD SLOAD PUSH1 0x2 EQ JUMPDEST DUP1 PUSH2 0xE6C JUMPI POP PUSH1 0x2 DUP1 SLOAD PUSH2 0xE04 SWAP1 PUSH1 0x1 SWAP1 PUSH2 0x12A0 JUMP JUMPDEST DUP2 SLOAD DUP2 LT PUSH2 0xE14 JUMPI PUSH2 0xE14 PUSH2 0x125B JUMP JUMPDEST SWAP1 PUSH1 0x0 MSTORE PUSH1 0x20 PUSH1 0x0 KECCAK256 SWAP1 PUSH1 0x5 MUL ADD PUSH1 0x0 ADD PUSH1 0x1 ADD SLOAD PUSH1 0x3 EQ DUP1 ISZERO PUSH2 0xE6C JUMPI POP PUSH1 0x2 DUP1 SLOAD PUSH2 0xE43 SWAP1 PUSH1 0x1 SWAP1 PUSH2 0x12A0 JUMP JUMPDEST DUP2 SLOAD DUP2 LT PUSH2 0xE53 JUMPI PUSH2 0xE53 PUSH2 0x125B JUMP JUMPDEST SWAP1 PUSH1 0x0 MSTORE PUSH1 0x20 PUSH1 0x0 KECCAK256 SWAP1 PUSH1 0x5 MUL ADD PUSH1 0x2 ADD PUSH1 0x1 ADD SLOAD PUSH1 0x1 EQ JUMPDEST DUP1 PUSH2 0xEEA JUMPI POP PUSH1 0x2 DUP1 SLOAD PUSH2 0xE82 SWAP1 PUSH1 0x1 SWAP1 PUSH2 0x12A0 JUMP JUMPDEST DUP2 SLOAD DUP2 LT PUSH2 0xE92 JUMPI PUSH2 0xE92 PUSH2 0x125B JUMP JUMPDEST SWAP1 PUSH1 0x0 MSTORE PUSH1 0x20 PUSH1 0x0 KECCAK256 SWAP1 PUSH1 0x5 MUL ADD PUSH1 0x0 ADD PUSH1 0x1 ADD SLOAD PUSH1 0x2 EQ DUP1 ISZERO PUSH2 0xEEA JUMPI POP PUSH1 0x2 DUP1 SLOAD PUSH2 0xEC1 SWAP1 PUSH1 0x1 SWAP1 PUSH2 0x12A0 JUMP JUMPDEST DUP2 SLOAD DUP2 LT PUSH2 0xED1 JUMPI PUSH2 0xED1 PUSH2 0x125B JUMP JUMPDEST SWAP1 PUSH1 0x0 MSTORE PUSH1 0x20 PUSH1 0x0 KECCAK256 SWAP1 PUSH1 0x5 MUL ADD PUSH1 0x2 ADD PUSH1 0x1 ADD SLOAD PUSH1 0x3 EQ JUMPDEST ISZERO PUSH2 0xF98 JUMPI PUSH1 0x40 DUP1 MLOAD DUP1 DUP3 ADD SWAP1 SWAP2 MSTORE PUSH1 0x9 DUP2 MSTORE PUSH9 0x2AB9B2B919103BB4B7 PUSH1 0xB9 SHL PUSH1 0x20 DUP3 ADD MSTORE PUSH1 0x2 DUP1 SLOAD PUSH2 0xF1F SWAP1 PUSH1 0x1 SWAP1 PUSH2 0x12A0 JUMP JUMPDEST DUP2 SLOAD DUP2 LT PUSH2 0xF2F JUMPI PUSH2 0xF2F PUSH2 0x125B JUMP JUMPDEST SWAP1 PUSH1 0x0 MSTORE PUSH1 0x20 PUSH1 0x0 KECCAK256 SWAP1 PUSH1 0x5 MUL ADD PUSH1 0x4 ADD SWAP1 DUP2 PUSH2 0xF4C SWAP2 SWAP1 PUSH2 0x13A5 JUMP JUMPDEST POP PUSH32 0xCDE5C32C0A45FD8AA4B65EA8003FC9DA9ACD5E2C6C24A9FCCE6AB79CABBD9122 PUSH1 0x40 MLOAD PUSH2 0xD69 SWAP1 PUSH1 0x20 DUP1 DUP3 MSTORE PUSH1 0x9 SWAP1 DUP3 ADD MSTORE PUSH9 0x2AB9B2B919103BB4B7 PUSH1 0xB9 SHL PUSH1 0x40 DUP3 ADD MSTORE PUSH1 0x60 ADD SWAP1 JUMP JUMPDEST PUSH1 0x40 DUP1 MLOAD DUP1 DUP3 ADD SWAP1 SWAP2 MSTORE PUSH1 0x9 DUP2 MSTORE PUSH9 0x2AB9B2B918903BB4B7 PUSH1 0xB9 SHL PUSH1 0x20 DUP3 ADD MSTORE PUSH1 0x2 DUP1 SLOAD PUSH2 0xFC8 SWAP1 PUSH1 0x1 SWAP1 PUSH2 0x12A0 JUMP JUMPDEST DUP2 SLOAD DUP2 LT PUSH2 0xFD8 JUMPI PUSH2 0xFD8 PUSH2 0x125B JUMP JUMPDEST SWAP1 PUSH1 0x0 MSTORE PUSH1 0x20 PUSH1 0x0 KECCAK256 SWAP1 PUSH1 0x5 MUL ADD PUSH1 0x4 ADD SWAP1 DUP2 PUSH2 0xFF5 SWAP2 SWAP1 PUSH2 0x13A5 JUMP JUMPDEST POP PUSH32 0xCDE5C32C0A45FD8AA4B65EA8003FC9DA9ACD5E2C6C24A9FCCE6AB79CABBD9122 PUSH1 0x40 MLOAD PUSH2 0xD69 SWAP1 PUSH1 0x20 DUP1 DUP3 MSTORE PUSH1 0x9 SWAP1 DUP3 ADD MSTORE PUSH9 0x2AB9B2B918903BB4B7 PUSH1 0xB9 SHL PUSH1 0x40 DUP3 ADD MSTORE PUSH1 0x60 ADD SWAP1 JUMP JUMPDEST POP POP POP JUMP JUMPDEST PUSH1 0x40 DUP1 MLOAD PUSH1 0xA0 DUP2 ADD SWAP1 SWAP2 MSTORE PUSH1 0x0 PUSH1 0x60 DUP3 ADD DUP2 DUP2 MSTORE PUSH1 0x80 DUP4 ADD SWAP2 SWAP1 SWAP2 MSTORE DUP2 SWAP1 DUP2 MSTORE PUSH1 0x20 ADD PUSH2 0x1083 PUSH1 0x40 DUP1 MLOAD DUP1 DUP3 ADD SWAP1 SWAP2 MSTORE PUSH1 0x0 DUP1 DUP3 MSTORE PUSH1 0x20 DUP3 ADD MSTORE SWAP1 JUMP JUMPDEST DUP2 MSTORE PUSH1 0x20 ADD PUSH1 0x60 DUP2 MSTORE POP SWAP1 JUMP JUMPDEST PUSH1 0x0 PUSH1 0x20 DUP3 DUP5 SUB SLT ISZERO PUSH2 0x10A2 JUMPI PUSH1 0x0 DUP1 REVERT JUMPDEST POP CALLDATALOAD SWAP2 SWAP1 POP JUMP JUMPDEST PUSH2 0x10C7 DUP3 DUP3 MLOAD DUP1 MLOAD PUSH1 0x1 PUSH1 0x1 PUSH1 0xA0 SHL SUB AND DUP3 MSTORE PUSH1 0x20 SWAP1 DUP2 ADD MLOAD SWAP2 ADD MSTORE JUMP JUMPDEST PUSH1 0x0 PUSH1 0x20 DUP1 DUP4 ADD MLOAD PUSH2 0x10EF PUSH1 0x40 DUP7 ADD DUP3 DUP1 MLOAD PUSH1 0x1 PUSH1 0x1 PUSH1 0xA0 SHL SUB AND DUP3 MSTORE PUSH1 0x20 SWAP1 DUP2 ADD MLOAD SWAP2 ADD MSTORE JUMP JUMPDEST POP PUSH1 0x40 DUP4 ADD MLOAD PUSH1 0xA0 PUSH1 0x80 DUP7 ADD MSTORE DUP1 MLOAD DUP1 PUSH1 0xA0 DUP8 ADD MSTORE PUSH1 0x0 JUMPDEST DUP2 DUP2 LT ISZERO PUSH2 0x1123 JUMPI DUP3 DUP2 ADD DUP5 ADD MLOAD DUP8 DUP3 ADD PUSH1 0xC0 ADD MSTORE DUP4 ADD PUSH2 0x1107 JUMP JUMPDEST POP PUSH1 0x0 PUSH1 0xC0 DUP3 DUP9 ADD ADD MSTORE PUSH1 0xC0 PUSH1 0x1F NOT PUSH1 0x1F DUP4 ADD AND DUP8 ADD ADD SWAP4 POP POP POP POP SWAP3 SWAP2 POP POP JUMP JUMPDEST PUSH1 0x0 PUSH1 0x20 DUP1 DUP4 ADD DUP2 DUP5 MSTORE DUP1 DUP6 MLOAD DUP1 DUP4 MSTORE PUSH1 0x40 DUP7 ADD SWAP2 POP PUSH1 0x40 DUP2 PUSH1 0x5 SHL DUP8 ADD ADD SWAP3 POP DUP4 DUP8 ADD PUSH1 0x0 JUMPDEST DUP3 DUP2 LT ISZERO PUSH2 0x119A JUMPI PUSH1 0x3F NOT DUP9 DUP7 SUB ADD DUP5 MSTORE PUSH2 0x1188 DUP6 DUP4 MLOAD PUSH2 0x10A9 JUMP JUMPDEST SWAP5 POP SWAP3 DUP6 ADD SWAP3 SWAP1 DUP6 ADD SWAP1 PUSH1 0x1 ADD PUSH2 0x116C JUMP JUMPDEST POP SWAP3 SWAP8 SWAP7 POP POP POP POP POP POP POP JUMP JUMPDEST PUSH1 0x20 DUP1 DUP3 MSTORE DUP3 MLOAD DUP3 DUP3 ADD DUP2 SWAP1 MSTORE PUSH1 0x0 SWAP2 SWAP1 PUSH1 0x40 SWAP1 DUP2 DUP6 ADD SWAP1 DUP7 DUP5 ADD DUP6 JUMPDEST DUP3 DUP2 LT ISZERO PUSH2 0x11FA JUMPI PUSH2 0x11EA DUP5 DUP4 MLOAD DUP1 MLOAD PUSH1 0x1 PUSH1 0x1 PUSH1 0xA0 SHL SUB AND DUP3 MSTORE PUSH1 0x20 SWAP1 DUP2 ADD MLOAD SWAP2 ADD MSTORE JUMP JUMPDEST SWAP3 DUP5 ADD SWAP3 SWAP1 DUP6 ADD SWAP1 PUSH1 0x1 ADD PUSH2 0x11C4 JUMP JUMPDEST POP SWAP2 SWAP8 SWAP7 POP POP POP POP POP POP POP JUMP JUMPDEST PUSH1 0x20 DUP2 MSTORE PUSH1 0x0 PUSH2 0x121A PUSH1 0x20 DUP4 ADD DUP5 PUSH2 0x10A9 JUMP JUMPDEST SWAP4 SWAP3 POP POP POP JUMP JUMPDEST PUSH1 0x1 DUP2 DUP2 SHR SWAP1 DUP3 AND DUP1 PUSH2 0x1235 JUMPI PUSH1 0x7F DUP3 AND SWAP2 POP JUMPDEST PUSH1 0x20 DUP3 LT DUP2 SUB PUSH2 0x1255 JUMPI PUSH4 0x4E487B71 PUSH1 0xE0 SHL PUSH1 0x0 MSTORE PUSH1 0x22 PUSH1 0x4 MSTORE PUSH1 0x24 PUSH1 0x0 REVERT JUMPDEST POP SWAP2 SWAP1 POP JUMP JUMPDEST PUSH4 0x4E487B71 PUSH1 0xE0 SHL PUSH1 0x0 MSTORE PUSH1 0x32 PUSH1 0x4 MSTORE PUSH1 0x24 PUSH1 0x0 REVERT JUMPDEST PUSH4 0x4E487B71 PUSH1 0xE0 SHL PUSH1 0x0 MSTORE PUSH1 0x11 PUSH1 0x4 MSTORE PUSH1 0x24 PUSH1 0x0 REVERT JUMPDEST PUSH1 0x0 PUSH1 0x1 DUP3 ADD PUSH2 0x1299 JUMPI PUSH2 0x1299 PUSH2 0x1271 JUMP JUMPDEST POP PUSH1 0x1 ADD SWAP1 JUMP JUMPDEST DUP2 DUP2 SUB DUP2 DUP2 GT ISZERO PUSH2 0x12B3 JUMPI PUSH2 0x12B3 PUSH2 0x1271 JUMP JUMPDEST SWAP3 SWAP2 POP POP JUMP JUMPDEST PUSH1 0x20 DUP1 DUP3 MSTORE DUP3 SLOAD DUP3 DUP3 ADD DUP2 SWAP1 MSTORE PUSH1 0x0 DUP5 DUP2 MSTORE DUP3 DUP2 KECCAK256 SWAP1 SWAP3 SWAP2 PUSH1 0x40 DUP6 ADD SWAP1 DUP5 JUMPDEST DUP2 DUP2 LT ISZERO PUSH2 0x12FD JUMPI DUP4 SLOAD PUSH1 0x1 PUSH1 0x1 PUSH1 0xA0 SHL SUB AND DUP4 MSTORE PUSH1 0x1 SWAP4 DUP5 ADD SWAP4 SWAP3 DUP6 ADD SWAP3 ADD PUSH2 0x12D8 JUMP JUMPDEST POP SWAP1 SWAP7 SWAP6 POP POP POP POP POP POP JUMP JUMPDEST PUSH1 0x0 DUP3 PUSH2 0x1326 JUMPI PUSH4 0x4E487B71 PUSH1 0xE0 SHL PUSH1 0x0 MSTORE PUSH1 0x12 PUSH1 0x4 MSTORE PUSH1 0x24 PUSH1 0x0 REVERT JUMPDEST POP MOD SWAP1 JUMP JUMPDEST PUSH4 0x4E487B71 PUSH1 0xE0 SHL PUSH1 0x0 MSTORE PUSH1 0x31 PUSH1 0x4 MSTORE PUSH1 0x24 PUSH1 0x0 REVERT JUMPDEST PUSH4 0x4E487B71 PUSH1 0xE0 SHL PUSH1 0x0 MSTORE PUSH1 0x41 PUSH1 0x4 MSTORE PUSH1 0x24 PUSH1 0x0 REVERT JUMPDEST PUSH1 0x1F DUP3 GT ISZERO PUSH2 0x1041 JUMPI PUSH1 0x0 DUP2 DUP2 MSTORE PUSH1 0x20 DUP2 KECCAK256 PUSH1 0x1F DUP6 ADD PUSH1 0x5 SHR DUP2 ADD PUSH1 0x20 DUP7 LT ISZERO PUSH2 0x137E JUMPI POP DUP1 JUMPDEST PUSH1 0x1F DUP6 ADD PUSH1 0x5 SHR DUP3 ADD SWAP2 POP JUMPDEST DUP2 DUP2 LT ISZERO PUSH2 0x139D JUMPI DUP3 DUP2 SSTORE PUSH1 0x1 ADD PUSH2 0x138A JUMP JUMPDEST POP POP POP POP POP POP JUMP JUMPDEST DUP2 MLOAD PUSH8 0xFFFFFFFFFFFFFFFF DUP2 GT ISZERO PUSH2 0x13BF JUMPI PUSH2 0x13BF PUSH2 0x1341 JUMP JUMPDEST PUSH2 0x13D3 DUP2 PUSH2 0x13CD DUP5 SLOAD PUSH2 0x1221 JUMP JUMPDEST DUP5 PUSH2 0x1357 JUMP JUMPDEST PUSH1 0x20 DUP1 PUSH1 0x1F DUP4 GT PUSH1 0x1 DUP2 EQ PUSH2 0x1408 JUMPI PUSH1 0x0 DUP5 ISZERO PUSH2 0x13F0 JUMPI POP DUP6 DUP4 ADD MLOAD JUMPDEST PUSH1 0x0 NOT PUSH1 0x3 DUP7 SWAP1 SHL SHR NOT AND PUSH1 0x1 DUP6 SWAP1 SHL OR DUP6 SSTORE PUSH2 0x139D JUMP JUMPDEST PUSH1 0x0 DUP6 DUP2 MSTORE PUSH1 0x20 DUP2 KECCAK256 PUSH1 0x1F NOT DUP7 AND SWAP2 JUMPDEST DUP3 DUP2 LT ISZERO PUSH2 0x1437 JUMPI DUP9 DUP7 ADD MLOAD DUP3 SSTORE SWAP5 DUP5 ADD SWAP5 PUSH1 0x1 SWAP1 SWAP2 ADD SWAP1 DUP5 ADD PUSH2 0x1418 JUMP JUMPDEST POP DUP6 DUP3 LT ISZERO PUSH2 0x1455 JUMPI DUP8 DUP6 ADD MLOAD PUSH1 0x0 NOT PUSH1 0x3 DUP9 SWAP1 SHL PUSH1 0xF8 AND SHR NOT AND DUP2 SSTORE JUMPDEST POP POP POP POP POP PUSH1 0x1 SWAP1 DUP2 SHL ADD SWAP1 SSTORE POP JUMP INVALID LOG2 PUSH5 0x6970667358 0x22 SLT KECCAK256 DUP15 0xC4 0x1E 0xCD 0x4C 0xB7 CHAINID 0xA9 PUSH10 0xD6EDEC8F9E9B60EEF2BA 0xC3 PUSH2 0xE2B 0xA9 CREATE2 0xCA LOG1 SELFBALANCE 0x24 CALLVALUE 0x5F DUP4 PUSH5 0x736F6C6343 STOP ADDMOD SGT STOP CALLER "
				},
				"gasEstimates": {
					"creation": {
						"codeDepositCost": "1055000",
						"executionCost": "50312",
						"totalCost": "1105312"
					},
					"external": {
						"getGameHistory()": "infinite",
						"getSpecificGameHistory(uint256)": "infinite",
						"getUserOption(uint256)": "infinite",
						"showNumber()": "2317",
						"showWaitingPoll()": "infinite",
						"updateNumber(uint256)": "23367"
					},
					"internal": {
						"ChooseRandomUser()": "infinite",
						"choosePlayerPlay()": "infinite",
						"game(struct RockPaperScissors.UserInfo memory,struct RockPaperScissors.UserInfo memory)": "infinite"
					}
				},
				"methodIdentifiers": {
					"getGameHistory()": "512ec557",
					"getSpecificGameHistory(uint256)": "f7c4efbb",
					"getUserOption(uint256)": "adf496b5",
					"showNumber()": "76dad223",
					"showWaitingPoll()": "e16c9d59",
					"updateNumber(uint256)": "1db05a88"
				}
			},
			"storageLayout": {
				"storage": [
					{
						"astId": 4,
						"contract": "Practical2-RockPaperScissors-Jason.sol:RockPaperScissors",
						"label": "showNumber",
						"offset": 0,
						"slot": "0",
						"type": "t_uint256"
					},
					{
						"astId": 39,
						"contract": "Practical2-RockPaperScissors-Jason.sol:RockPaperScissors",
						"label": "userCount",
						"offset": 0,
						"slot": "1",
						"type": "t_uint256"
					},
					{
						"astId": 43,
						"contract": "Practical2-RockPaperScissors-Jason.sol:RockPaperScissors",
						"label": "gameHistory",
						"offset": 0,
						"slot": "2",
						"type": "t_array(t_struct(GameInfo)36_storage)dyn_storage"
					},
					{
						"astId": 45,
						"contract": "Practical2-RockPaperScissors-Jason.sol:RockPaperScissors",
						"label": "locked",
						"offset": 0,
						"slot": "3",
						"type": "t_bool"
					},
					{
						"astId": 48,
						"contract": "Practical2-RockPaperScissors-Jason.sol:RockPaperScissors",
						"label": "salt",
						"offset": 0,
						"slot": "4",
						"type": "t_uint256"
					},
					{
						"astId": 52,
						"contract": "Practical2-RockPaperScissors-Jason.sol:RockPaperScissors",
						"label": "waitingPool",
						"offset": 0,
						"slot": "5",
						"type": "t_array(t_struct(UserInfo)27_storage)dyn_storage"
					},
					{
						"astId": 55,
						"contract": "Practical2-RockPaperScissors-Jason.sol:RockPaperScissors",
						"label": "userAddresses",
						"offset": 0,
						"slot": "6",
						"type": "t_array(t_address)dyn_storage"
					}
				],
				"types": {
					"t_address": {
						"encoding": "inplace",
						"label": "address",
						"numberOfBytes": "20"
					},
					"t_array(t_address)dyn_storage": {
						"base": "t_address",
						"encoding": "dynamic_array",
						"label": "address[]",
						"numberOfBytes": "32"
					},
					"t_array(t_struct(GameInfo)36_storage)dyn_storage": {
						"base": "t_struct(GameInfo)36_storage",
						"encoding": "dynamic_array",
						"label": "struct RockPaperScissors.GameInfo[]",
						"numberOfBytes": "32"
					},
					"t_array(t_struct(UserInfo)27_storage)dyn_storage": {
						"base": "t_struct(UserInfo)27_storage",
						"encoding": "dynamic_array",
						"label": "struct RockPaperScissors.UserInfo[]",
						"numberOfBytes": "32"
					},
					"t_bool": {
						"encoding": "inplace",
						"label": "bool",
						"numberOfBytes": "1"
					},
					"t_string_storage": {
						"encoding": "bytes",
						"label": "string",
						"numberOfBytes": "32"
					},
					"t_struct(GameInfo)36_storage": {
						"encoding": "inplace",
						"label": "struct RockPaperScissors.GameInfo",
						"members": [
							{
								"astId": 30,
								"contract": "Practical2-RockPaperScissors-Jason.sol:RockPaperScissors",
								"label": "user1",
								"offset": 0,
								"slot": "0",
								"type": "t_struct(UserInfo)27_storage"
							},
							{
								"astId": 33,
								"contract": "Practical2-RockPaperScissors-Jason.sol:RockPaperScissors",
								"label": "user2",
								"offset": 0,
								"slot": "2",
								"type": "t_struct(UserInfo)27_storage"
							},
							{
								"astId": 35,
								"contract": "Practical2-RockPaperScissors-Jason.sol:RockPaperScissors",
								"label": "finalResult",
								"offset": 0,
								"slot": "4",
								"type": "t_string_storage"
							}
						],
						"numberOfBytes": "160"
					},
					"t_struct(UserInfo)27_storage": {
						"encoding": "inplace",
						"label": "struct RockPaperScissors.UserInfo",
						"members": [
							{
								"astId": 24,
								"contract": "Practical2-RockPaperScissors-Jason.sol:RockPaperScissors",
								"label": "userAddress",
								"offset": 0,
								"slot": "0",
								"type": "t_address"
							},
							{
								"astId": 26,
								"contract": "Practical2-RockPaperScissors-Jason.sol:RockPaperScissors",
								"label": "userOption",
								"offset": 0,
								"slot": "1",
								"type": "t_uint256"
							}
						],
						"numberOfBytes": "64"
					},
					"t_uint256": {
						"encoding": "inplace",
						"label": "uint256",
						"numberOfBytes": "32"
					}
				}
			},
			"userdoc": {
				"kind": "user",
				"methods": {},
				"version": 1
			}
		}
	}
}