{
	"Lesson2-GuessTheWordGame.sol": {
		"GuessTheWord": {
			"abi": [
				{
					"inputs": [
						{
							"internalType": "uint256",
							"name": "_guessWord",
							"type": "uint256"
						}
					],
					"name": "guessTheWord",
					"outputs": [
						{
							"internalType": "bool",
							"name": "",
							"type": "bool"
						}
					],
					"stateMutability": "payable",
					"type": "function"
				},
				{
					"inputs": [
						{
							"internalType": "uint256",
							"name": "newWord",
							"type": "uint256"
						}
					],
					"name": "setGuessWord",
					"outputs": [],
					"stateMutability": "nonpayable",
					"type": "function"
				},
				{
					"inputs": [],
					"name": "treasury",
					"outputs": [
						{
							"internalType": "address payable",
							"name": "",
							"type": "address"
						}
					],
					"stateMutability": "view",
					"type": "function"
				}
			],
			"devdoc": {
				"kind": "dev",
				"methods": {},
				"version": 1
			},
			"evm": {
				"assembly": "    /* \"Lesson2-GuessTheWordGame.sol\":57:684  contract GuessTheWord {... */\n  mstore(0x40, 0x80)\n    /* \"Lesson2-GuessTheWordGame.sol\":126:129  100 */\n  0x64\n    /* \"Lesson2-GuessTheWordGame.sol\":106:129  uint attemptPrice = 100 */\n  0x01\n  sstore\n    /* \"Lesson2-GuessTheWordGame.sol\":136:221  address payable public treasury = payable(0xAb8483F64d9C6d1EcF9b849Ae677dD3315835cb2) */\n  0x02\n  dup1\n  sload\n  not(sub(shl(0xa0, 0x01), 0x01))\n  and\n    /* \"Lesson2-GuessTheWordGame.sol\":178:220  0xAb8483F64d9C6d1EcF9b849Ae677dD3315835cb2 */\n  0xab8483f64d9c6d1ecf9b849ae677dd3315835cb2\n    /* \"Lesson2-GuessTheWordGame.sol\":136:221  address payable public treasury = payable(0xAb8483F64d9C6d1EcF9b849Ae677dD3315835cb2) */\n  or\n  swap1\n  sstore\n    /* \"Lesson2-GuessTheWordGame.sol\":57:684  contract GuessTheWord {... */\n  callvalue\n  dup1\n  iszero\n  tag_1\n  jumpi\n  0x00\n  dup1\n  revert\ntag_1:\n  pop\n  dataSize(sub_0)\n  dup1\n  dataOffset(sub_0)\n  0x00\n  codecopy\n  0x00\n  return\nstop\n\nsub_0: assembly {\n        /* \"Lesson2-GuessTheWordGame.sol\":57:684  contract GuessTheWord {... */\n      mstore(0x40, 0x80)\n      jumpi(tag_1, lt(calldatasize, 0x04))\n      shr(0xe0, calldataload(0x00))\n      dup1\n      0x61d027b3\n      eq\n      tag_2\n      jumpi\n      dup1\n      0xd446ad66\n      eq\n      tag_3\n      jumpi\n      dup1\n      0xef638ebd\n      eq\n      tag_4\n      jumpi\n    tag_1:\n      0x00\n      dup1\n      revert\n        /* \"Lesson2-GuessTheWordGame.sol\":136:221  address payable public treasury = payable(0xAb8483F64d9C6d1EcF9b849Ae677dD3315835cb2) */\n    tag_2:\n      callvalue\n      dup1\n      iszero\n      tag_5\n      jumpi\n      0x00\n      dup1\n      revert\n    tag_5:\n      pop\n      sload(0x02)\n      tag_6\n      swap1\n      sub(shl(0xa0, 0x01), 0x01)\n      and\n      dup2\n      jump\n    tag_6:\n      mload(0x40)\n      sub(shl(0xa0, 0x01), 0x01)\n        /* \"#utility.yul\":194:226   */\n      swap1\n      swap2\n      and\n        /* \"#utility.yul\":176:227   */\n      dup2\n      mstore\n        /* \"#utility.yul\":164:166   */\n      0x20\n        /* \"#utility.yul\":149:167   */\n      add\n        /* \"Lesson2-GuessTheWordGame.sol\":136:221  address payable public treasury = payable(0xAb8483F64d9C6d1EcF9b849Ae677dD3315835cb2) */\n    tag_8:\n      mload(0x40)\n      dup1\n      swap2\n      sub\n      swap1\n      return\n        /* \"Lesson2-GuessTheWordGame.sol\":228:309  function setGuessWord(uint newWord) external {... */\n    tag_3:\n      callvalue\n      dup1\n      iszero\n      tag_10\n      jumpi\n      0x00\n      dup1\n      revert\n    tag_10:\n      pop\n      tag_11\n      tag_12\n      calldatasize\n      0x04\n      tag_13\n      jump\t// in\n    tag_12:\n        /* \"Lesson2-GuessTheWordGame.sol\":283:292  guessWord */\n      0x00\n        /* \"Lesson2-GuessTheWordGame.sol\":283:302  guessWord = newWord */\n      sstore\n        /* \"Lesson2-GuessTheWordGame.sol\":228:309  function setGuessWord(uint newWord) external {... */\n      jump\n    tag_11:\n      stop\n        /* \"Lesson2-GuessTheWordGame.sol\":315:682  function guessTheWord(uint _guessWord) external payable returns(bool){... */\n    tag_4:\n      tag_15\n      tag_16\n      calldatasize\n      0x04\n      tag_13\n      jump\t// in\n    tag_16:\n      tag_17\n      jump\t// in\n    tag_15:\n      mload(0x40)\n        /* \"#utility.yul\":588:602   */\n      swap1\n      iszero\n        /* \"#utility.yul\":581:603   */\n      iszero\n        /* \"#utility.yul\":563:604   */\n      dup2\n      mstore\n        /* \"#utility.yul\":551:553   */\n      0x20\n        /* \"#utility.yul\":536:554   */\n      add\n        /* \"Lesson2-GuessTheWordGame.sol\":315:682  function guessTheWord(uint _guessWord) external payable returns(bool){... */\n      tag_8\n        /* \"#utility.yul\":423:610   */\n      jump\n        /* \"Lesson2-GuessTheWordGame.sol\":315:682  function guessTheWord(uint _guessWord) external payable returns(bool){... */\n    tag_17:\n        /* \"Lesson2-GuessTheWordGame.sol\":379:383  bool */\n      0x00\n        /* \"Lesson2-GuessTheWordGame.sol\":415:427  attemptPrice */\n      sload(0x01)\n        /* \"Lesson2-GuessTheWordGame.sol\":402:411  msg.value */\n      callvalue\n        /* \"Lesson2-GuessTheWordGame.sol\":402:427  msg.value >= attemptPrice */\n      lt\n      iszero\n        /* \"Lesson2-GuessTheWordGame.sol\":394:452  require(msg.value >= attemptPrice, \"Error: Send 100 wei!\") */\n      tag_22\n      jumpi\n      mload(0x40)\n      shl(0xe5, 0x461bcd)\n      dup2\n      mstore\n        /* \"#utility.yul\":817:819   */\n      0x20\n        /* \"Lesson2-GuessTheWordGame.sol\":394:452  require(msg.value >= attemptPrice, \"Error: Send 100 wei!\") */\n      0x04\n      dup3\n      add\n        /* \"#utility.yul\":799:820   */\n      mstore\n        /* \"#utility.yul\":856:858   */\n      0x14\n        /* \"#utility.yul\":836:854   */\n      0x24\n      dup3\n      add\n        /* \"#utility.yul\":829:859   */\n      mstore\n      shl(0x60, 0x4572726f723a2053656e64203130302077656921)\n        /* \"#utility.yul\":875:893   */\n      0x44\n      dup3\n      add\n        /* \"#utility.yul\":868:918   */\n      mstore\n        /* \"#utility.yul\":935:953   */\n      0x64\n      add\n        /* \"Lesson2-GuessTheWordGame.sol\":394:452  require(msg.value >= attemptPrice, \"Error: Send 100 wei!\") */\n    tag_23:\n      mload(0x40)\n      dup1\n      swap2\n      sub\n      swap1\n      revert\n    tag_22:\n        /* \"Lesson2-GuessTheWordGame.sol\":478:486  treasury */\n      sload(0x02)\n        /* \"Lesson2-GuessTheWordGame.sol\":478:502  treasury.send(msg.value) */\n      mload(0x40)\n        /* \"Lesson2-GuessTheWordGame.sol\":463:475  bool success */\n      0x00\n      swap2\n      sub(shl(0xa0, 0x01), 0x01)\n        /* \"Lesson2-GuessTheWordGame.sol\":478:486  treasury */\n      and\n      swap1\n        /* \"Lesson2-GuessTheWordGame.sol\":492:501  msg.value */\n      callvalue\n        /* \"Lesson2-GuessTheWordGame.sol\":478:502  treasury.send(msg.value) */\n      dup1\n      iszero\n      0x08fc\n      mul\n      swap2\n        /* \"Lesson2-GuessTheWordGame.sol\":463:475  bool success */\n      dup5\n        /* \"Lesson2-GuessTheWordGame.sol\":478:502  treasury.send(msg.value) */\n      dup2\n        /* \"Lesson2-GuessTheWordGame.sol\":463:475  bool success */\n      dup2\n        /* \"Lesson2-GuessTheWordGame.sol\":478:502  treasury.send(msg.value) */\n      dup2\n        /* \"Lesson2-GuessTheWordGame.sol\":492:501  msg.value */\n      dup6\n        /* \"Lesson2-GuessTheWordGame.sol\":478:486  treasury */\n      dup9\n        /* \"Lesson2-GuessTheWordGame.sol\":478:502  treasury.send(msg.value) */\n      dup9\n      call\n      swap4\n      pop\n      pop\n      pop\n      pop\n        /* \"Lesson2-GuessTheWordGame.sol\":463:502  bool success = treasury.send(msg.value) */\n      swap1\n      pop\n        /* \"Lesson2-GuessTheWordGame.sol\":520:527  success */\n      dup1\n        /* \"Lesson2-GuessTheWordGame.sol\":512:546  require(success, \"Failed to send\") */\n      tag_26\n      jumpi\n      mload(0x40)\n      shl(0xe5, 0x461bcd)\n      dup2\n      mstore\n        /* \"#utility.yul\":1166:1168   */\n      0x20\n        /* \"Lesson2-GuessTheWordGame.sol\":512:546  require(success, \"Failed to send\") */\n      0x04\n      dup3\n      add\n        /* \"#utility.yul\":1148:1169   */\n      mstore\n        /* \"#utility.yul\":1205:1207   */\n      0x0e\n        /* \"#utility.yul\":1185:1203   */\n      0x24\n      dup3\n      add\n        /* \"#utility.yul\":1178:1208   */\n      mstore\n      shl(0x92, 0x11985a5b1959081d1bc81cd95b99)\n        /* \"#utility.yul\":1224:1242   */\n      0x44\n      dup3\n      add\n        /* \"#utility.yul\":1217:1261   */\n      mstore\n        /* \"#utility.yul\":1278:1296   */\n      0x64\n      add\n        /* \"Lesson2-GuessTheWordGame.sol\":512:546  require(success, \"Failed to send\") */\n      tag_23\n        /* \"#utility.yul\":964:1302   */\n      jump\n        /* \"Lesson2-GuessTheWordGame.sol\":512:546  require(success, \"Failed to send\") */\n    tag_26:\n        /* \"Lesson2-GuessTheWordGame.sol\":574:583  guessWord */\n      sload(0x00)\n        /* \"Lesson2-GuessTheWordGame.sol\":560:570  _guessWord */\n      dup4\n        /* \"Lesson2-GuessTheWordGame.sol\":560:583  _guessWord == guessWord */\n      sub\n        /* \"Lesson2-GuessTheWordGame.sol\":557:676  if(_guessWord == guessWord) {... */\n      tag_29\n      jumpi\n      pop\n        /* \"Lesson2-GuessTheWordGame.sol\":606:610  true */\n      0x01\n      swap3\n        /* \"Lesson2-GuessTheWordGame.sol\":315:682  function guessTheWord(uint _guessWord) external payable returns(bool){... */\n      swap2\n      pop\n      pop\n      jump\t// out\n        /* \"Lesson2-GuessTheWordGame.sol\":557:676  if(_guessWord == guessWord) {... */\n    tag_29:\n        /* \"Lesson2-GuessTheWordGame.sol\":641:665  revert (\"you are wrong\") */\n      mload(0x40)\n      shl(0xe5, 0x461bcd)\n      dup2\n      mstore\n        /* \"#utility.yul\":1509:1511   */\n      0x20\n        /* \"Lesson2-GuessTheWordGame.sol\":641:665  revert (\"you are wrong\") */\n      0x04\n      dup3\n      add\n        /* \"#utility.yul\":1491:1512   */\n      mstore\n        /* \"#utility.yul\":1548:1550   */\n      0x0d\n        /* \"#utility.yul\":1528:1546   */\n      0x24\n      dup3\n      add\n        /* \"#utility.yul\":1521:1551   */\n      mstore\n      shl(0x98, 0x796f75206172652077726f6e67)\n        /* \"#utility.yul\":1567:1585   */\n      0x44\n      dup3\n      add\n        /* \"#utility.yul\":1560:1603   */\n      mstore\n        /* \"#utility.yul\":1620:1638   */\n      0x64\n      add\n        /* \"Lesson2-GuessTheWordGame.sol\":641:665  revert (\"you are wrong\") */\n      tag_23\n        /* \"#utility.yul\":1307:1644   */\n      jump\n        /* \"#utility.yul\":238:418   */\n    tag_13:\n        /* \"#utility.yul\":297:303   */\n      0x00\n        /* \"#utility.yul\":350:352   */\n      0x20\n        /* \"#utility.yul\":338:347   */\n      dup3\n        /* \"#utility.yul\":329:336   */\n      dup5\n        /* \"#utility.yul\":325:348   */\n      sub\n        /* \"#utility.yul\":321:353   */\n      slt\n        /* \"#utility.yul\":318:370   */\n      iszero\n      tag_36\n      jumpi\n        /* \"#utility.yul\":366:367   */\n      0x00\n        /* \"#utility.yul\":363:364   */\n      dup1\n        /* \"#utility.yul\":356:368   */\n      revert\n        /* \"#utility.yul\":318:370   */\n    tag_36:\n      pop\n        /* \"#utility.yul\":389:412   */\n      calldataload\n      swap2\n        /* \"#utility.yul\":238:418   */\n      swap1\n      pop\n      jump\t// out\n\n    auxdata: 0xa26469706673582212201bce6626c88182f6e485a138dd2a97bb889165771ab5cbe295ca6f8b5e3b0dd364736f6c63430008130033\n}\n",
				"bytecode": {
					"linkReferences": {},
					"object": "60806040526064600155600280546001600160a01b03191673ab8483f64d9c6d1ecf9b849ae677dd3315835cb217905534801561003b57600080fd5b5061020c8061004b6000396000f3fe6080604052600436106100345760003560e01c806361d027b314610039578063d446ad6614610076578063ef638ebd14610098575b600080fd5b34801561004557600080fd5b50600254610059906001600160a01b031681565b6040516001600160a01b0390911681526020015b60405180910390f35b34801561008257600080fd5b506100966100913660046101bd565b600055565b005b6100ab6100a63660046101bd565b6100bb565b604051901515815260200161006d565b600060015434101561010b5760405162461bcd60e51b81526020600482015260146024820152734572726f723a2053656e6420313030207765692160601b60448201526064015b60405180910390fd5b6002546040516000916001600160a01b0316903480156108fc029184818181858888f193505050509050806101735760405162461bcd60e51b815260206004820152600e60248201526d11985a5b1959081d1bc81cd95b9960921b6044820152606401610102565b60005483036101855750600192915050565b60405162461bcd60e51b815260206004820152600d60248201526c796f75206172652077726f6e6760981b6044820152606401610102565b6000602082840312156101cf57600080fd5b503591905056fea26469706673582212201bce6626c88182f6e485a138dd2a97bb889165771ab5cbe295ca6f8b5e3b0dd364736f6c63430008130033",
					"opcodes": "PUSH1 0x80 PUSH1 0x40 MSTORE PUSH1 0x64 PUSH1 0x1 SSTORE PUSH1 0x2 DUP1 SLOAD PUSH1 0x1 PUSH1 0x1 PUSH1 0xA0 SHL SUB NOT AND PUSH20 0xAB8483F64D9C6D1ECF9B849AE677DD3315835CB2 OR SWAP1 SSTORE CALLVALUE DUP1 ISZERO PUSH2 0x3B JUMPI PUSH1 0x0 DUP1 REVERT JUMPDEST POP PUSH2 0x20C DUP1 PUSH2 0x4B PUSH1 0x0 CODECOPY PUSH1 0x0 RETURN INVALID PUSH1 0x80 PUSH1 0x40 MSTORE PUSH1 0x4 CALLDATASIZE LT PUSH2 0x34 JUMPI PUSH1 0x0 CALLDATALOAD PUSH1 0xE0 SHR DUP1 PUSH4 0x61D027B3 EQ PUSH2 0x39 JUMPI DUP1 PUSH4 0xD446AD66 EQ PUSH2 0x76 JUMPI DUP1 PUSH4 0xEF638EBD EQ PUSH2 0x98 JUMPI JUMPDEST PUSH1 0x0 DUP1 REVERT JUMPDEST CALLVALUE DUP1 ISZERO PUSH2 0x45 JUMPI PUSH1 0x0 DUP1 REVERT JUMPDEST POP PUSH1 0x2 SLOAD PUSH2 0x59 SWAP1 PUSH1 0x1 PUSH1 0x1 PUSH1 0xA0 SHL SUB AND DUP2 JUMP JUMPDEST PUSH1 0x40 MLOAD PUSH1 0x1 PUSH1 0x1 PUSH1 0xA0 SHL SUB SWAP1 SWAP2 AND DUP2 MSTORE PUSH1 0x20 ADD JUMPDEST PUSH1 0x40 MLOAD DUP1 SWAP2 SUB SWAP1 RETURN JUMPDEST CALLVALUE DUP1 ISZERO PUSH2 0x82 JUMPI PUSH1 0x0 DUP1 REVERT JUMPDEST POP PUSH2 0x96 PUSH2 0x91 CALLDATASIZE PUSH1 0x4 PUSH2 0x1BD JUMP JUMPDEST PUSH1 0x0 SSTORE JUMP JUMPDEST STOP JUMPDEST PUSH2 0xAB PUSH2 0xA6 CALLDATASIZE PUSH1 0x4 PUSH2 0x1BD JUMP JUMPDEST PUSH2 0xBB JUMP JUMPDEST PUSH1 0x40 MLOAD SWAP1 ISZERO ISZERO DUP2 MSTORE PUSH1 0x20 ADD PUSH2 0x6D JUMP JUMPDEST PUSH1 0x0 PUSH1 0x1 SLOAD CALLVALUE LT ISZERO PUSH2 0x10B JUMPI PUSH1 0x40 MLOAD PUSH3 0x461BCD PUSH1 0xE5 SHL DUP2 MSTORE PUSH1 0x20 PUSH1 0x4 DUP3 ADD MSTORE PUSH1 0x14 PUSH1 0x24 DUP3 ADD MSTORE PUSH20 0x4572726F723A2053656E64203130302077656921 PUSH1 0x60 SHL PUSH1 0x44 DUP3 ADD MSTORE PUSH1 0x64 ADD JUMPDEST PUSH1 0x40 MLOAD DUP1 SWAP2 SUB SWAP1 REVERT JUMPDEST PUSH1 0x2 SLOAD PUSH1 0x40 MLOAD PUSH1 0x0 SWAP2 PUSH1 0x1 PUSH1 0x1 PUSH1 0xA0 SHL SUB AND SWAP1 CALLVALUE DUP1 ISZERO PUSH2 0x8FC MUL SWAP2 DUP5 DUP2 DUP2 DUP2 DUP6 DUP9 DUP9 CALL SWAP4 POP POP POP POP SWAP1 POP DUP1 PUSH2 0x173 JUMPI PUSH1 0x40 MLOAD PUSH3 0x461BCD PUSH1 0xE5 SHL DUP2 MSTORE PUSH1 0x20 PUSH1 0x4 DUP3 ADD MSTORE PUSH1 0xE PUSH1 0x24 DUP3 ADD MSTORE PUSH14 0x11985A5B1959081D1BC81CD95B99 PUSH1 0x92 SHL PUSH1 0x44 DUP3 ADD MSTORE PUSH1 0x64 ADD PUSH2 0x102 JUMP JUMPDEST PUSH1 0x0 SLOAD DUP4 SUB PUSH2 0x185 JUMPI POP PUSH1 0x1 SWAP3 SWAP2 POP POP JUMP JUMPDEST PUSH1 0x40 MLOAD PUSH3 0x461BCD PUSH1 0xE5 SHL DUP2 MSTORE PUSH1 0x20 PUSH1 0x4 DUP3 ADD MSTORE PUSH1 0xD PUSH1 0x24 DUP3 ADD MSTORE PUSH13 0x796F75206172652077726F6E67 PUSH1 0x98 SHL PUSH1 0x44 DUP3 ADD MSTORE PUSH1 0x64 ADD PUSH2 0x102 JUMP JUMPDEST PUSH1 0x0 PUSH1 0x20 DUP3 DUP5 SUB SLT ISZERO PUSH2 0x1CF JUMPI PUSH1 0x0 DUP1 REVERT JUMPDEST POP CALLDATALOAD SWAP2 SWAP1 POP JUMP INVALID LOG2 PUSH5 0x6970667358 0x22 SLT KECCAK256 SHL 0xCE PUSH7 0x26C88182F6E485 LOG1 CODESIZE 0xDD 0x2A SWAP8 0xBB DUP9 SWAP2 PUSH6 0x771AB5CBE295 0xCA PUSH16 0x8B5E3B0DD364736F6C63430008130033 "
				},
				"gasEstimates": {
					"creation": {
						"codeDepositCost": "104800",
						"executionCost": "46495",
						"totalCost": "151295"
					},
					"external": {
						"guessTheWord(uint256)": "infinite",
						"setGuessWord(uint256)": "22312",
						"treasury()": "2304"
					}
				},
				"methodIdentifiers": {
					"guessTheWord(uint256)": "ef638ebd",
					"setGuessWord(uint256)": "d446ad66",
					"treasury()": "61d027b3"
				}
			},
			"storageLayout": {
				"storage": [
					{
						"astId": 3,
						"contract": "Lesson2-GuessTheWordGame.sol:GuessTheWord",
						"label": "guessWord",
						"offset": 0,
						"slot": "0",
						"type": "t_uint256"
					},
					{
						"astId": 6,
						"contract": "Lesson2-GuessTheWordGame.sol:GuessTheWord",
						"label": "attemptPrice",
						"offset": 0,
						"slot": "1",
						"type": "t_uint256"
					},
					{
						"astId": 12,
						"contract": "Lesson2-GuessTheWordGame.sol:GuessTheWord",
						"label": "treasury",
						"offset": 0,
						"slot": "2",
						"type": "t_address_payable"
					}
				],
				"types": {
					"t_address_payable": {
						"encoding": "inplace",
						"label": "address payable",
						"numberOfBytes": "20"
					},
					"t_uint256": {
						"encoding": "inplace",
						"label": "uint256",
						"numberOfBytes": "32"
					}
				}
			},
			"userdoc": {
				"kind": "user",
				"methods": {},
				"version": 1
			}
		}
	}
}