{
	"Practical2-RockPaperScissors-Jason.sol": {
		"RockPaperScissors": {
			"abi": [
				{
					"inputs": [
						{
							"internalType": "uint256",
							"name": "",
							"type": "uint256"
						}
					],
					"name": "Options",
					"outputs": [
						{
							"internalType": "uint256",
							"name": "",
							"type": "uint256"
						}
					],
					"stateMutability": "view",
					"type": "function"
				},
				{
					"inputs": [
						{
							"internalType": "string",
							"name": "a",
							"type": "string"
						},
						{
							"internalType": "string",
							"name": "b",
							"type": "string"
						}
					],
					"name": "compareStrings",
					"outputs": [
						{
							"internalType": "bool",
							"name": "",
							"type": "bool"
						}
					],
					"stateMutability": "pure",
					"type": "function"
				},
				{
					"inputs": [
						{
							"internalType": "uint256",
							"name": "userInput",
							"type": "uint256"
						}
					],
					"name": "enterOption",
					"outputs": [
						{
							"internalType": "uint256[]",
							"name": "result",
							"type": "uint256[]"
						}
					],
					"stateMutability": "nonpayable",
					"type": "function"
				},
				{
					"inputs": [],
					"name": "getRandomNumber",
					"outputs": [
						{
							"internalType": "uint256",
							"name": "",
							"type": "uint256"
						}
					],
					"stateMutability": "nonpayable",
					"type": "function"
				},
				{
					"inputs": [],
					"name": "getRandomSet",
					"outputs": [
						{
							"internalType": "uint256[]",
							"name": "result",
							"type": "uint256[]"
						}
					],
					"stateMutability": "view",
					"type": "function"
				},
				{
					"inputs": [
						{
							"internalType": "uint256",
							"name": "guessAnswer",
							"type": "uint256"
						}
					],
					"name": "guessResult",
					"outputs": [
						{
							"internalType": "string",
							"name": "result",
							"type": "string"
						}
					],
					"stateMutability": "nonpayable",
					"type": "function"
				},
				{
					"inputs": [],
					"name": "lastChoice",
					"outputs": [
						{
							"internalType": "uint256",
							"name": "",
							"type": "uint256"
						}
					],
					"stateMutability": "view",
					"type": "function"
				},
				{
					"inputs": [
						{
							"internalType": "uint256",
							"name": "option",
							"type": "uint256"
						}
					],
					"name": "play",
					"outputs": [
						{
							"internalType": "string",
							"name": "result",
							"type": "string"
						}
					],
					"stateMutability": "nonpayable",
					"type": "function"
				},
				{
					"inputs": [],
					"name": "playMutiTimes",
					"outputs": [
						{
							"internalType": "string",
							"name": "result",
							"type": "string"
						}
					],
					"stateMutability": "nonpayable",
					"type": "function"
				},
				{
					"inputs": [],
					"name": "playerOption",
					"outputs": [
						{
							"internalType": "uint256",
							"name": "",
							"type": "uint256"
						}
					],
					"stateMutability": "view",
					"type": "function"
				},
				{
					"inputs": [
						{
							"internalType": "uint256",
							"name": "",
							"type": "uint256"
						}
					],
					"name": "randomNumSet",
					"outputs": [
						{
							"internalType": "uint256",
							"name": "",
							"type": "uint256"
						}
					],
					"stateMutability": "view",
					"type": "function"
				},
				{
					"inputs": [],
					"name": "systemWin",
					"outputs": [
						{
							"internalType": "uint256",
							"name": "",
							"type": "uint256"
						}
					],
					"stateMutability": "view",
					"type": "function"
				},
				{
					"inputs": [],
					"name": "tied",
					"outputs": [
						{
							"internalType": "uint256",
							"name": "",
							"type": "uint256"
						}
					],
					"stateMutability": "view",
					"type": "function"
				},
				{
					"inputs": [],
					"name": "userWin",
					"outputs": [
						{
							"internalType": "uint256",
							"name": "",
							"type": "uint256"
						}
					],
					"stateMutability": "view",
					"type": "function"
				}
			],
			"devdoc": {
				"kind": "dev",
				"methods": {},
				"version": 1
			},
			"evm": {
				"assembly": "    /* \"Practical2-RockPaperScissors-Jason.sol\":57:5833  contract RockPaperScissors {... */\n  mstore(0x40, 0x80)\n    /* \"Practical2-RockPaperScissors-Jason.sol\":260:261  1 */\n  0x01\n    /* \"Practical2-RockPaperScissors-Jason.sol\":248:261  uint salt = 1 */\n  0x04\n  sstore\n    /* \"Practical2-RockPaperScissors-Jason.sol\":57:5833  contract RockPaperScissors {... */\n  callvalue\n  dup1\n  iszero\n  tag_1\n  jumpi\n  0x00\n  dup1\n  revert\ntag_1:\n  pop\n  dataSize(sub_0)\n  dup1\n  dataOffset(sub_0)\n  0x00\n  codecopy\n  0x00\n  return\nstop\n\nsub_0: assembly {\n        /* \"Practical2-RockPaperScissors-Jason.sol\":57:5833  contract RockPaperScissors {... */\n      mstore(0x40, 0x80)\n      callvalue\n      dup1\n      iszero\n      tag_1\n      jumpi\n      0x00\n      dup1\n      revert\n    tag_1:\n      pop\n      jumpi(tag_2, lt(calldatasize, 0x04))\n      shr(0xe0, calldataload(0x00))\n      dup1\n      0x614b3757\n      gt\n      tag_17\n      jumpi\n      dup1\n      0x94227ea7\n      gt\n      tag_18\n      jumpi\n      dup1\n      0x94227ea7\n      eq\n      tag_13\n      jumpi\n      dup1\n      0xba162868\n      eq\n      tag_14\n      jumpi\n      dup1\n      0xbed34bba\n      eq\n      tag_15\n      jumpi\n      dup1\n      0xdbdff2c1\n      eq\n      tag_16\n      jumpi\n      jump(tag_2)\n    tag_18:\n      dup1\n      0x614b3757\n      eq\n      tag_10\n      jumpi\n      dup1\n      0x6898f82b\n      eq\n      tag_11\n      jumpi\n      dup1\n      0x6ca495e2\n      eq\n      tag_12\n      jumpi\n      jump(tag_2)\n    tag_17:\n      dup1\n      0x12220fe3\n      gt\n      tag_19\n      jumpi\n      dup1\n      0x12220fe3\n      eq\n      tag_6\n      jumpi\n      dup1\n      0x233a1a76\n      eq\n      tag_7\n      jumpi\n      dup1\n      0x4028e0de\n      eq\n      tag_8\n      jumpi\n      dup1\n      0x58da9da8\n      eq\n      tag_9\n      jumpi\n      jump(tag_2)\n    tag_19:\n      dup1\n      0x010711e3\n      eq\n      tag_3\n      jumpi\n      dup1\n      0x060aa4ce\n      eq\n      tag_4\n      jumpi\n      dup1\n      0x1123d9b1\n      eq\n      tag_5\n      jumpi\n    tag_2:\n      0x00\n      dup1\n      revert\n        /* \"Practical2-RockPaperScissors-Jason.sol\":130:152  uint public lastChoice */\n    tag_3:\n      tag_20\n      tag_21\n      jump\t// in\n    tag_20:\n      mload(0x40)\n      tag_22\n      swap2\n      swap1\n      tag_23\n      jump\t// in\n    tag_22:\n      mload(0x40)\n      dup1\n      swap2\n      sub\n      swap1\n      return\n        /* \"Practical2-RockPaperScissors-Jason.sol\":292:313  uint public systemWin */\n    tag_4:\n      tag_24\n      tag_25\n      jump\t// in\n    tag_24:\n      mload(0x40)\n      tag_26\n      swap2\n      swap1\n      tag_23\n      jump\t// in\n    tag_26:\n      mload(0x40)\n      dup1\n      swap2\n      sub\n      swap1\n      return\n        /* \"Practical2-RockPaperScissors-Jason.sol\":2325:2969  function guessResult(uint guessAnswer) external returns  (string memory result){... */\n    tag_5:\n      tag_27\n      0x04\n      dup1\n      calldatasize\n      sub\n      dup2\n      add\n      swap1\n      tag_28\n      swap2\n      swap1\n      tag_29\n      jump\t// in\n    tag_28:\n      tag_30\n      jump\t// in\n    tag_27:\n      mload(0x40)\n      tag_31\n      swap2\n      swap1\n      tag_32\n      jump\t// in\n    tag_31:\n      mload(0x40)\n      dup1\n      swap2\n      sub\n      swap1\n      return\n        /* \"Practical2-RockPaperScissors-Jason.sol\":189:210  uint[] public Options */\n    tag_6:\n      tag_33\n      0x04\n      dup1\n      calldatasize\n      sub\n      dup2\n      add\n      swap1\n      tag_34\n      swap2\n      swap1\n      tag_29\n      jump\t// in\n    tag_34:\n      tag_35\n      jump\t// in\n    tag_33:\n      mload(0x40)\n      tag_36\n      swap2\n      swap1\n      tag_23\n      jump\t// in\n    tag_36:\n      mload(0x40)\n      dup1\n      swap2\n      sub\n      swap1\n      return\n        /* \"Practical2-RockPaperScissors-Jason.sol\":216:242  uint[] public randomNumSet */\n    tag_7:\n      tag_37\n      0x04\n      dup1\n      calldatasize\n      sub\n      dup2\n      add\n      swap1\n      tag_38\n      swap2\n      swap1\n      tag_29\n      jump\t// in\n    tag_38:\n      tag_39\n      jump\t// in\n    tag_37:\n      mload(0x40)\n      tag_40\n      swap2\n      swap1\n      tag_23\n      jump\t// in\n    tag_40:\n      mload(0x40)\n      dup1\n      swap2\n      sub\n      swap1\n      return\n        /* \"Practical2-RockPaperScissors-Jason.sol\":159:183  uint public playerOption */\n    tag_8:\n      tag_41\n      tag_42\n      jump\t// in\n    tag_41:\n      mload(0x40)\n      tag_43\n      swap2\n      swap1\n      tag_23\n      jump\t// in\n    tag_43:\n      mload(0x40)\n      dup1\n      swap2\n      sub\n      swap1\n      return\n        /* \"Practical2-RockPaperScissors-Jason.sol\":915:2238  function playMutiTimes()  ... */\n    tag_9:\n      tag_44\n      tag_45\n      jump\t// in\n    tag_44:\n      mload(0x40)\n      tag_46\n      swap2\n      swap1\n      tag_32\n      jump\t// in\n    tag_46:\n      mload(0x40)\n      dup1\n      swap2\n      sub\n      swap1\n      return\n        /* \"Practical2-RockPaperScissors-Jason.sol\":381:673  function enterOption(uint256 userInput) external returns (uint[] memory result){... */\n    tag_10:\n      tag_47\n      0x04\n      dup1\n      calldatasize\n      sub\n      dup2\n      add\n      swap1\n      tag_48\n      swap2\n      swap1\n      tag_29\n      jump\t// in\n    tag_48:\n      tag_49\n      jump\t// in\n    tag_47:\n      mload(0x40)\n      tag_50\n      swap2\n      swap1\n      tag_51\n      jump\t// in\n    tag_50:\n      mload(0x40)\n      dup1\n      swap2\n      sub\n      swap1\n      return\n        /* \"Practical2-RockPaperScissors-Jason.sol\":3388:4017  function play(uint256 option) ... */\n    tag_11:\n      tag_52\n      0x04\n      dup1\n      calldatasize\n      sub\n      dup2\n      add\n      swap1\n      tag_53\n      swap2\n      swap1\n      tag_29\n      jump\t// in\n    tag_53:\n      tag_54\n      jump\t// in\n    tag_52:\n      mload(0x40)\n      tag_55\n      swap2\n      swap1\n      tag_32\n      jump\t// in\n    tag_55:\n      mload(0x40)\n      dup1\n      swap2\n      sub\n      swap1\n      return\n        /* \"Practical2-RockPaperScissors-Jason.sol\":731:838  function getRandomSet () external view returns (uint[] memory result){... */\n    tag_12:\n      tag_56\n      tag_57\n      jump\t// in\n    tag_56:\n      mload(0x40)\n      tag_58\n      swap2\n      swap1\n      tag_51\n      jump\t// in\n    tag_58:\n      mload(0x40)\n      dup1\n      swap2\n      sub\n      swap1\n      return\n        /* \"Practical2-RockPaperScissors-Jason.sol\":319:335  uint public tied */\n    tag_13:\n      tag_59\n      tag_60\n      jump\t// in\n    tag_59:\n      mload(0x40)\n      tag_61\n      swap2\n      swap1\n      tag_23\n      jump\t// in\n    tag_61:\n      mload(0x40)\n      dup1\n      swap2\n      sub\n      swap1\n      return\n        /* \"Practical2-RockPaperScissors-Jason.sol\":267:286  uint public userWin */\n    tag_14:\n      tag_62\n      tag_63\n      jump\t// in\n    tag_62:\n      mload(0x40)\n      tag_64\n      swap2\n      swap1\n      tag_23\n      jump\t// in\n    tag_64:\n      mload(0x40)\n      dup1\n      swap2\n      sub\n      swap1\n      return\n        /* \"Practical2-RockPaperScissors-Jason.sol\":3024:3268  function compareStrings(string memory a, string memory b) public pure returns (bool) {... */\n    tag_15:\n      tag_65\n      0x04\n      dup1\n      calldatasize\n      sub\n      dup2\n      add\n      swap1\n      tag_66\n      swap2\n      swap1\n      tag_67\n      jump\t// in\n    tag_66:\n      tag_68\n      jump\t// in\n    tag_65:\n      mload(0x40)\n      tag_69\n      swap2\n      swap1\n      tag_70\n      jump\t// in\n    tag_69:\n      mload(0x40)\n      dup1\n      swap2\n      sub\n      swap1\n      return\n        /* \"Practical2-RockPaperScissors-Jason.sol\":4023:4632  function getRandomNumber() public returns (uint256) {... */\n    tag_16:\n      tag_71\n      tag_72\n      jump\t// in\n    tag_71:\n      mload(0x40)\n      tag_73\n      swap2\n      swap1\n      tag_23\n      jump\t// in\n    tag_73:\n      mload(0x40)\n      dup1\n      swap2\n      sub\n      swap1\n      return\n        /* \"Practical2-RockPaperScissors-Jason.sol\":130:152  uint public lastChoice */\n    tag_21:\n      sload(0x00)\n      dup2\n      jump\t// out\n        /* \"Practical2-RockPaperScissors-Jason.sol\":292:313  uint public systemWin */\n    tag_25:\n      sload(0x06)\n      dup2\n      jump\t// out\n        /* \"Practical2-RockPaperScissors-Jason.sol\":2325:2969  function guessResult(uint guessAnswer) external returns  (string memory result){... */\n    tag_30:\n        /* \"Practical2-RockPaperScissors-Jason.sol\":2383:2403  string memory result */\n      0x60\n        /* \"Practical2-RockPaperScissors-Jason.sol\":2437:2438  3 */\n      0x03\n        /* \"Practical2-RockPaperScissors-Jason.sol\":2422:2433  guessAnswer */\n      dup3\n        /* \"Practical2-RockPaperScissors-Jason.sol\":2422:2438  guessAnswer <= 3 */\n      gt\n      iszero\n        /* \"Practical2-RockPaperScissors-Jason.sol\":2414:2473  require(guessAnswer <= 3, \"Error: Can't input more than 3\") */\n      tag_75\n      jumpi\n      mload(0x40)\n      0x08c379a000000000000000000000000000000000000000000000000000000000\n      dup2\n      mstore\n      0x04\n      add\n      tag_76\n      swap1\n      tag_77\n      jump\t// in\n    tag_76:\n      mload(0x40)\n      dup1\n      swap2\n      sub\n      swap1\n      revert\n    tag_75:\n        /* \"Practical2-RockPaperScissors-Jason.sol\":2483:2506  string memory getResult */\n      0x00\n        /* \"Practical2-RockPaperScissors-Jason.sol\":2509:2524  playMutiTimes() */\n      tag_78\n        /* \"Practical2-RockPaperScissors-Jason.sol\":2509:2522  playMutiTimes */\n      tag_45\n        /* \"Practical2-RockPaperScissors-Jason.sol\":2509:2524  playMutiTimes() */\n      jump\t// in\n    tag_78:\n        /* \"Practical2-RockPaperScissors-Jason.sol\":2483:2524  string memory getResult = playMutiTimes() */\n      swap1\n      pop\n        /* \"Practical2-RockPaperScissors-Jason.sol\":2535:2549  uint intResult */\n      0x00\n        /* \"Practical2-RockPaperScissors-Jason.sol\":2595:2628  compareStrings(\"Tied\", getResult) */\n      tag_79\n      mload(0x40)\n      dup1\n      0x40\n      add\n      0x40\n      mstore\n      dup1\n      0x04\n      dup2\n      mstore\n      0x20\n      add\n      0x5469656400000000000000000000000000000000000000000000000000000000\n      dup2\n      mstore\n      pop\n        /* \"Practical2-RockPaperScissors-Jason.sol\":2618:2627  getResult */\n      dup4\n        /* \"Practical2-RockPaperScissors-Jason.sol\":2595:2609  compareStrings */\n      tag_68\n        /* \"Practical2-RockPaperScissors-Jason.sol\":2595:2628  compareStrings(\"Tied\", getResult) */\n      jump\t// in\n    tag_79:\n        /* \"Practical2-RockPaperScissors-Jason.sol\":2592:2655  if(compareStrings(\"Tied\", getResult))... */\n      iszero\n      tag_80\n      jumpi\n        /* \"Practical2-RockPaperScissors-Jason.sol\":2654:2655  1 */\n      0x01\n        /* \"Practical2-RockPaperScissors-Jason.sol\":2642:2655  intResult = 1 */\n      swap1\n      pop\n        /* \"Practical2-RockPaperScissors-Jason.sol\":2592:2655  if(compareStrings(\"Tied\", getResult))... */\n    tag_80:\n        /* \"Practical2-RockPaperScissors-Jason.sol\":2668:2704  compareStrings(\"You Win\", getResult) */\n      tag_81\n      mload(0x40)\n      dup1\n      0x40\n      add\n      0x40\n      mstore\n      dup1\n      0x07\n      dup2\n      mstore\n      0x20\n      add\n      0x596f752057696e00000000000000000000000000000000000000000000000000\n      dup2\n      mstore\n      pop\n        /* \"Practical2-RockPaperScissors-Jason.sol\":2694:2703  getResult */\n      dup4\n        /* \"Practical2-RockPaperScissors-Jason.sol\":2668:2682  compareStrings */\n      tag_68\n        /* \"Practical2-RockPaperScissors-Jason.sol\":2668:2704  compareStrings(\"You Win\", getResult) */\n      jump\t// in\n    tag_81:\n        /* \"Practical2-RockPaperScissors-Jason.sol\":2665:2731  if(compareStrings(\"You Win\", getResult))... */\n      iszero\n      tag_82\n      jumpi\n        /* \"Practical2-RockPaperScissors-Jason.sol\":2730:2731  2 */\n      0x02\n        /* \"Practical2-RockPaperScissors-Jason.sol\":2718:2731  intResult = 2 */\n      swap1\n      pop\n        /* \"Practical2-RockPaperScissors-Jason.sol\":2665:2731  if(compareStrings(\"You Win\", getResult))... */\n    tag_82:\n        /* \"Practical2-RockPaperScissors-Jason.sol\":2744:2781  compareStrings(\"You Lose\", getResult) */\n      tag_83\n      mload(0x40)\n      dup1\n      0x40\n      add\n      0x40\n      mstore\n      dup1\n      0x08\n      dup2\n      mstore\n      0x20\n      add\n      0x596f75204c6f7365000000000000000000000000000000000000000000000000\n      dup2\n      mstore\n      pop\n        /* \"Practical2-RockPaperScissors-Jason.sol\":2771:2780  getResult */\n      dup4\n        /* \"Practical2-RockPaperScissors-Jason.sol\":2744:2758  compareStrings */\n      tag_68\n        /* \"Practical2-RockPaperScissors-Jason.sol\":2744:2781  compareStrings(\"You Lose\", getResult) */\n      jump\t// in\n    tag_83:\n        /* \"Practical2-RockPaperScissors-Jason.sol\":2741:2808  if(compareStrings(\"You Lose\", getResult))... */\n      iszero\n      tag_84\n      jumpi\n        /* \"Practical2-RockPaperScissors-Jason.sol\":2807:2808  3 */\n      0x03\n        /* \"Practical2-RockPaperScissors-Jason.sol\":2795:2808  intResult = 3 */\n      swap1\n      pop\n        /* \"Practical2-RockPaperScissors-Jason.sol\":2741:2808  if(compareStrings(\"You Lose\", getResult))... */\n    tag_84:\n        /* \"Practical2-RockPaperScissors-Jason.sol\":2835:2846  guessAnswer */\n      dup4\n        /* \"Practical2-RockPaperScissors-Jason.sol\":2822:2831  intResult */\n      dup2\n        /* \"Practical2-RockPaperScissors-Jason.sol\":2822:2846  intResult == guessAnswer */\n      sub\n        /* \"Practical2-RockPaperScissors-Jason.sol\":2819:2963  if(intResult == guessAnswer){... */\n      tag_85\n      jumpi\n        /* \"Practical2-RockPaperScissors-Jason.sol\":2861:2892  return (\"You guess is correct\") */\n      mload(0x40)\n      dup1\n      0x40\n      add\n      0x40\n      mstore\n      dup1\n      0x14\n      dup2\n      mstore\n      0x20\n      add\n      0x596f7520677565737320697320636f7272656374000000000000000000000000\n      dup2\n      mstore\n      pop\n      swap3\n      pop\n      pop\n      pop\n      jump(tag_74)\n        /* \"Practical2-RockPaperScissors-Jason.sol\":2819:2963  if(intResult == guessAnswer){... */\n    tag_85:\n        /* \"Practical2-RockPaperScissors-Jason.sol\":2923:2952  return (\"You guess is wrong\") */\n      mload(0x40)\n      dup1\n      0x40\n      add\n      0x40\n      mstore\n      dup1\n      0x12\n      dup2\n      mstore\n      0x20\n      add\n      0x596f752067756573732069732077726f6e670000000000000000000000000000\n      dup2\n      mstore\n      pop\n      swap3\n      pop\n      pop\n      pop\n        /* \"Practical2-RockPaperScissors-Jason.sol\":2325:2969  function guessResult(uint guessAnswer) external returns  (string memory result){... */\n    tag_74:\n      swap2\n      swap1\n      pop\n      jump\t// out\n        /* \"Practical2-RockPaperScissors-Jason.sol\":189:210  uint[] public Options */\n    tag_35:\n      0x02\n      dup2\n      dup2\n      sload\n      dup2\n      lt\n      tag_87\n      jumpi\n      0x00\n      dup1\n      revert\n    tag_87:\n      swap1\n      0x00\n      mstore\n      keccak256(0x00, 0x20)\n      add\n      0x00\n      swap2\n      pop\n      swap1\n      pop\n      sload\n      dup2\n      jump\t// out\n        /* \"Practical2-RockPaperScissors-Jason.sol\":216:242  uint[] public randomNumSet */\n    tag_39:\n      0x03\n      dup2\n      dup2\n      sload\n      dup2\n      lt\n      tag_89\n      jumpi\n      0x00\n      dup1\n      revert\n    tag_89:\n      swap1\n      0x00\n      mstore\n      keccak256(0x00, 0x20)\n      add\n      0x00\n      swap2\n      pop\n      swap1\n      pop\n      sload\n      dup2\n      jump\t// out\n        /* \"Practical2-RockPaperScissors-Jason.sol\":159:183  uint public playerOption */\n    tag_42:\n      sload(0x01)\n      dup2\n      jump\t// out\n        /* \"Practical2-RockPaperScissors-Jason.sol\":915:2238  function playMutiTimes()  ... */\n    tag_45:\n        /* \"Practical2-RockPaperScissors-Jason.sol\":975:995  string memory result */\n      0x60\n        /* \"Practical2-RockPaperScissors-Jason.sol\":1052:1064  randomNumSet */\n      0x03\n      0x00\n        /* \"Practical2-RockPaperScissors-Jason.sol\":1045:1064  delete randomNumSet */\n      tag_92\n      swap2\n      swap1\n      tag_93\n      jump\t// in\n    tag_92:\n        /* \"Practical2-RockPaperScissors-Jason.sol\":1085:1086  0 */\n      0x00\n        /* \"Practical2-RockPaperScissors-Jason.sol\":1078:1082  tied */\n      0x07\n        /* \"Practical2-RockPaperScissors-Jason.sol\":1078:1086  tied = 0 */\n      dup2\n      swap1\n      sstore\n      pop\n        /* \"Practical2-RockPaperScissors-Jason.sol\":1112:1113  0 */\n      0x00\n        /* \"Practical2-RockPaperScissors-Jason.sol\":1100:1109  systemWin */\n      0x06\n        /* \"Practical2-RockPaperScissors-Jason.sol\":1100:1113  systemWin = 0 */\n      dup2\n      swap1\n      sstore\n      pop\n        /* \"Practical2-RockPaperScissors-Jason.sol\":1137:1138  0 */\n      0x00\n        /* \"Practical2-RockPaperScissors-Jason.sol\":1127:1134  userWin */\n      0x05\n        /* \"Practical2-RockPaperScissors-Jason.sol\":1127:1138  userWin = 0 */\n      dup2\n      swap1\n      sstore\n      pop\n        /* \"Practical2-RockPaperScissors-Jason.sol\":1202:1208  uint i */\n      0x00\n        /* \"Practical2-RockPaperScissors-Jason.sol\":1198:1307  for(uint i = 0; i < Options.length; i++){... */\n    tag_94:\n        /* \"Practical2-RockPaperScissors-Jason.sol\":1218:1225  Options */\n      0x02\n        /* \"Practical2-RockPaperScissors-Jason.sol\":1218:1232  Options.length */\n      dup1\n      sload\n      swap1\n      pop\n        /* \"Practical2-RockPaperScissors-Jason.sol\":1214:1215  i */\n      dup2\n        /* \"Practical2-RockPaperScissors-Jason.sol\":1214:1232  i < Options.length */\n      lt\n        /* \"Practical2-RockPaperScissors-Jason.sol\":1198:1307  for(uint i = 0; i < Options.length; i++){... */\n      iszero\n      tag_95\n      jumpi\n        /* \"Practical2-RockPaperScissors-Jason.sol\":1256:1268  randomNumSet */\n      0x03\n        /* \"Practical2-RockPaperScissors-Jason.sol\":1274:1291  getRandomNumber() */\n      tag_97\n        /* \"Practical2-RockPaperScissors-Jason.sol\":1274:1289  getRandomNumber */\n      tag_72\n        /* \"Practical2-RockPaperScissors-Jason.sol\":1274:1291  getRandomNumber() */\n      jump\t// in\n    tag_97:\n        /* \"Practical2-RockPaperScissors-Jason.sol\":1256:1292  randomNumSet.push(getRandomNumber()) */\n      swap1\n      dup1\n      0x01\n      dup2\n      sload\n      add\n      dup1\n      dup3\n      sstore\n      dup1\n      swap2\n      pop\n      pop\n      0x01\n      swap1\n      sub\n      swap1\n      0x00\n      mstore\n      keccak256(0x00, 0x20)\n      add\n      0x00\n      swap1\n      swap2\n      swap1\n      swap2\n      swap1\n      swap2\n      pop\n      sstore\n        /* \"Practical2-RockPaperScissors-Jason.sol\":1234:1237  i++ */\n      dup1\n      dup1\n      tag_99\n      swap1\n      tag_100\n      jump\t// in\n    tag_99:\n      swap2\n      pop\n      pop\n        /* \"Practical2-RockPaperScissors-Jason.sol\":1198:1307  for(uint i = 0; i < Options.length; i++){... */\n      jump(tag_94)\n    tag_95:\n      pop\n        /* \"Practical2-RockPaperScissors-Jason.sol\":1371:1377  uint i */\n      0x00\n        /* \"Practical2-RockPaperScissors-Jason.sol\":1367:1946  for(uint i = 0; i < Options.length; i++){... */\n    tag_101:\n        /* \"Practical2-RockPaperScissors-Jason.sol\":1387:1394  Options */\n      0x02\n        /* \"Practical2-RockPaperScissors-Jason.sol\":1387:1401  Options.length */\n      dup1\n      sload\n      swap1\n      pop\n        /* \"Practical2-RockPaperScissors-Jason.sol\":1383:1384  i */\n      dup2\n        /* \"Practical2-RockPaperScissors-Jason.sol\":1383:1401  i < Options.length */\n      lt\n        /* \"Practical2-RockPaperScissors-Jason.sol\":1367:1946  for(uint i = 0; i < Options.length; i++){... */\n      iszero\n      tag_102\n      jumpi\n        /* \"Practical2-RockPaperScissors-Jason.sol\":1443:1455  randomNumSet */\n      0x03\n        /* \"Practical2-RockPaperScissors-Jason.sol\":1456:1457  i */\n      dup2\n        /* \"Practical2-RockPaperScissors-Jason.sol\":1443:1458  randomNumSet[i] */\n      dup2\n      sload\n      dup2\n      lt\n      tag_104\n      jumpi\n      tag_105\n      tag_106\n      jump\t// in\n    tag_105:\n    tag_104:\n      swap1\n      0x00\n      mstore\n      keccak256(0x00, 0x20)\n      add\n      sload\n        /* \"Practical2-RockPaperScissors-Jason.sol\":1429:1436  Options */\n      0x02\n        /* \"Practical2-RockPaperScissors-Jason.sol\":1437:1438  i */\n      dup3\n        /* \"Practical2-RockPaperScissors-Jason.sol\":1429:1439  Options[i] */\n      dup2\n      sload\n      dup2\n      lt\n      tag_108\n      jumpi\n      tag_109\n      tag_106\n      jump\t// in\n    tag_109:\n    tag_108:\n      swap1\n      0x00\n      mstore\n      keccak256(0x00, 0x20)\n      add\n      sload\n        /* \"Practical2-RockPaperScissors-Jason.sol\":1429:1458  Options[i] == randomNumSet[i] */\n      sub\n        /* \"Practical2-RockPaperScissors-Jason.sol\":1425:1538  if (Options[i] == randomNumSet[i]) {... */\n      tag_111\n      jumpi\n        /* \"Practical2-RockPaperScissors-Jason.sol\":1482:1486  tied */\n      0x07\n      0x00\n        /* \"Practical2-RockPaperScissors-Jason.sol\":1482:1488  tied++ */\n      dup2\n      sload\n      dup1\n      swap3\n      swap2\n      swap1\n      tag_112\n      swap1\n      tag_100\n      jump\t// in\n    tag_112:\n      swap2\n      swap1\n      pop\n      sstore\n      pop\n        /* \"Practical2-RockPaperScissors-Jason.sol\":1510:1518  continue */\n      jump(tag_103)\n        /* \"Practical2-RockPaperScissors-Jason.sol\":1425:1538  if (Options[i] == randomNumSet[i]) {... */\n    tag_111:\n        /* \"Practical2-RockPaperScissors-Jason.sol\":1650:1651  1 */\n      0x01\n        /* \"Practical2-RockPaperScissors-Jason.sol\":1636:1643  Options */\n      0x02\n        /* \"Practical2-RockPaperScissors-Jason.sol\":1644:1645  i */\n      dup3\n        /* \"Practical2-RockPaperScissors-Jason.sol\":1636:1646  Options[i] */\n      dup2\n      sload\n      dup2\n      lt\n      tag_113\n      jumpi\n      tag_114\n      tag_106\n      jump\t// in\n    tag_114:\n    tag_113:\n      swap1\n      0x00\n      mstore\n      keccak256(0x00, 0x20)\n      add\n      sload\n        /* \"Practical2-RockPaperScissors-Jason.sol\":1636:1651  Options[i] == 1 */\n      eq\n        /* \"Practical2-RockPaperScissors-Jason.sol\":1636:1675  Options[i] == 1 && randomNumSet[i] == 2 */\n      dup1\n      iszero\n      tag_116\n      jumpi\n      pop\n        /* \"Practical2-RockPaperScissors-Jason.sol\":1674:1675  2 */\n      0x02\n        /* \"Practical2-RockPaperScissors-Jason.sol\":1655:1667  randomNumSet */\n      0x03\n        /* \"Practical2-RockPaperScissors-Jason.sol\":1668:1669  i */\n      dup3\n        /* \"Practical2-RockPaperScissors-Jason.sol\":1655:1670  randomNumSet[i] */\n      dup2\n      sload\n      dup2\n      lt\n      tag_117\n      jumpi\n      tag_118\n      tag_106\n      jump\t// in\n    tag_118:\n    tag_117:\n      swap1\n      0x00\n      mstore\n      keccak256(0x00, 0x20)\n      add\n      sload\n        /* \"Practical2-RockPaperScissors-Jason.sol\":1655:1675  randomNumSet[i] == 2 */\n      eq\n        /* \"Practical2-RockPaperScissors-Jason.sol\":1636:1675  Options[i] == 1 && randomNumSet[i] == 2 */\n    tag_116:\n        /* \"Practical2-RockPaperScissors-Jason.sol\":1635:1741  (Options[i] == 1 && randomNumSet[i] == 2) ||... */\n      dup1\n      tag_120\n      jumpi\n      pop\n        /* \"Practical2-RockPaperScissors-Jason.sol\":1715:1716  3 */\n      0x03\n        /* \"Practical2-RockPaperScissors-Jason.sol\":1701:1708  Options */\n      0x02\n        /* \"Practical2-RockPaperScissors-Jason.sol\":1709:1710  i */\n      dup3\n        /* \"Practical2-RockPaperScissors-Jason.sol\":1701:1711  Options[i] */\n      dup2\n      sload\n      dup2\n      lt\n      tag_121\n      jumpi\n      tag_122\n      tag_106\n      jump\t// in\n    tag_122:\n    tag_121:\n      swap1\n      0x00\n      mstore\n      keccak256(0x00, 0x20)\n      add\n      sload\n        /* \"Practical2-RockPaperScissors-Jason.sol\":1701:1716  Options[i] == 3 */\n      eq\n        /* \"Practical2-RockPaperScissors-Jason.sol\":1701:1740  Options[i] == 3 && randomNumSet[i] == 1 */\n      dup1\n      iszero\n      tag_124\n      jumpi\n      pop\n        /* \"Practical2-RockPaperScissors-Jason.sol\":1739:1740  1 */\n      0x01\n        /* \"Practical2-RockPaperScissors-Jason.sol\":1720:1732  randomNumSet */\n      0x03\n        /* \"Practical2-RockPaperScissors-Jason.sol\":1733:1734  i */\n      dup3\n        /* \"Practical2-RockPaperScissors-Jason.sol\":1720:1735  randomNumSet[i] */\n      dup2\n      sload\n      dup2\n      lt\n      tag_125\n      jumpi\n      tag_126\n      tag_106\n      jump\t// in\n    tag_126:\n    tag_125:\n      swap1\n      0x00\n      mstore\n      keccak256(0x00, 0x20)\n      add\n      sload\n        /* \"Practical2-RockPaperScissors-Jason.sol\":1720:1740  randomNumSet[i] == 1 */\n      eq\n        /* \"Practical2-RockPaperScissors-Jason.sol\":1701:1740  Options[i] == 3 && randomNumSet[i] == 1 */\n    tag_124:\n        /* \"Practical2-RockPaperScissors-Jason.sol\":1635:1741  (Options[i] == 1 && randomNumSet[i] == 2) ||... */\n    tag_120:\n        /* \"Practical2-RockPaperScissors-Jason.sol\":1635:1806  (Options[i] == 1 && randomNumSet[i] == 2) ||... */\n      dup1\n      tag_128\n      jumpi\n      pop\n        /* \"Practical2-RockPaperScissors-Jason.sol\":1780:1781  2 */\n      0x02\n        /* \"Practical2-RockPaperScissors-Jason.sol\":1766:1773  Options */\n      dup1\n        /* \"Practical2-RockPaperScissors-Jason.sol\":1774:1775  i */\n      dup3\n        /* \"Practical2-RockPaperScissors-Jason.sol\":1766:1776  Options[i] */\n      dup2\n      sload\n      dup2\n      lt\n      tag_129\n      jumpi\n      tag_130\n      tag_106\n      jump\t// in\n    tag_130:\n    tag_129:\n      swap1\n      0x00\n      mstore\n      keccak256(0x00, 0x20)\n      add\n      sload\n        /* \"Practical2-RockPaperScissors-Jason.sol\":1766:1781  Options[i] == 2 */\n      eq\n        /* \"Practical2-RockPaperScissors-Jason.sol\":1766:1805  Options[i] == 2 && randomNumSet[i] == 3 */\n      dup1\n      iszero\n      tag_132\n      jumpi\n      pop\n        /* \"Practical2-RockPaperScissors-Jason.sol\":1804:1805  3 */\n      0x03\n        /* \"Practical2-RockPaperScissors-Jason.sol\":1785:1797  randomNumSet */\n      dup1\n        /* \"Practical2-RockPaperScissors-Jason.sol\":1798:1799  i */\n      dup3\n        /* \"Practical2-RockPaperScissors-Jason.sol\":1785:1800  randomNumSet[i] */\n      dup2\n      sload\n      dup2\n      lt\n      tag_133\n      jumpi\n      tag_134\n      tag_106\n      jump\t// in\n    tag_134:\n    tag_133:\n      swap1\n      0x00\n      mstore\n      keccak256(0x00, 0x20)\n      add\n      sload\n        /* \"Practical2-RockPaperScissors-Jason.sol\":1785:1805  randomNumSet[i] == 3 */\n      eq\n        /* \"Practical2-RockPaperScissors-Jason.sol\":1766:1805  Options[i] == 2 && randomNumSet[i] == 3 */\n    tag_132:\n        /* \"Practical2-RockPaperScissors-Jason.sol\":1635:1806  (Options[i] == 1 && randomNumSet[i] == 2) ||... */\n    tag_128:\n        /* \"Practical2-RockPaperScissors-Jason.sol\":1555:1932  if (... */\n      iszero\n      tag_136\n      jumpi\n        /* \"Practical2-RockPaperScissors-Jason.sol\":1846:1855  systemWin */\n      0x06\n      0x00\n        /* \"Practical2-RockPaperScissors-Jason.sol\":1846:1857  systemWin++ */\n      dup2\n      sload\n      dup1\n      swap3\n      swap2\n      swap1\n      tag_137\n      swap1\n      tag_100\n      jump\t// in\n    tag_137:\n      swap2\n      swap1\n      pop\n      sstore\n      pop\n        /* \"Practical2-RockPaperScissors-Jason.sol\":1555:1932  if (... */\n      jump(tag_138)\n    tag_136:\n        /* \"Practical2-RockPaperScissors-Jason.sol\":1904:1911  userWin */\n      0x05\n      0x00\n        /* \"Practical2-RockPaperScissors-Jason.sol\":1904:1913  userWin++ */\n      dup2\n      sload\n      dup1\n      swap3\n      swap2\n      swap1\n      tag_139\n      swap1\n      tag_100\n      jump\t// in\n    tag_139:\n      swap2\n      swap1\n      pop\n      sstore\n      pop\n        /* \"Practical2-RockPaperScissors-Jason.sol\":1555:1932  if (... */\n    tag_138:\n        /* \"Practical2-RockPaperScissors-Jason.sol\":1367:1946  for(uint i = 0; i < Options.length; i++){... */\n    tag_103:\n        /* \"Practical2-RockPaperScissors-Jason.sol\":1403:1406  i++ */\n      dup1\n      dup1\n      tag_140\n      swap1\n      tag_100\n      jump\t// in\n    tag_140:\n      swap2\n      pop\n      pop\n        /* \"Practical2-RockPaperScissors-Jason.sol\":1367:1946  for(uint i = 0; i < Options.length; i++){... */\n      jump(tag_101)\n    tag_102:\n      pop\n        /* \"Practical2-RockPaperScissors-Jason.sol\":2003:2012  systemWin */\n      sload(0x06)\n        /* \"Practical2-RockPaperScissors-Jason.sol\":1992:1999  userWin */\n      sload(0x05)\n        /* \"Practical2-RockPaperScissors-Jason.sol\":1992:2012  userWin == systemWin */\n      sub\n        /* \"Practical2-RockPaperScissors-Jason.sol\":1989:2045  if(userWin == systemWin)... */\n      tag_141\n      jumpi\n        /* \"Practical2-RockPaperScissors-Jason.sol\":2030:2045  return (\"Tied\") */\n      mload(0x40)\n      dup1\n      0x40\n      add\n      0x40\n      mstore\n      dup1\n      0x04\n      dup2\n      mstore\n      0x20\n      add\n      0x5469656400000000000000000000000000000000000000000000000000000000\n      dup2\n      mstore\n      pop\n      swap1\n      pop\n      jump(tag_91)\n        /* \"Practical2-RockPaperScissors-Jason.sol\":1989:2045  if(userWin == systemWin)... */\n    tag_141:\n        /* \"Practical2-RockPaperScissors-Jason.sol\":2072:2081  systemWin */\n      sload(0x06)\n        /* \"Practical2-RockPaperScissors-Jason.sol\":2062:2069  userWin */\n      sload(0x05)\n        /* \"Practical2-RockPaperScissors-Jason.sol\":2062:2081  userWin > systemWin */\n      gt\n        /* \"Practical2-RockPaperScissors-Jason.sol\":2059:2190  if(userWin > systemWin){... */\n      iszero\n      tag_142\n      jumpi\n        /* \"Practical2-RockPaperScissors-Jason.sol\":2100:2117  return(\"You Win\") */\n      mload(0x40)\n      dup1\n      0x40\n      add\n      0x40\n      mstore\n      dup1\n      0x07\n      dup2\n      mstore\n      0x20\n      add\n      0x596f752057696e00000000000000000000000000000000000000000000000000\n      dup2\n      mstore\n      pop\n      swap1\n      pop\n      jump(tag_91)\n        /* \"Practical2-RockPaperScissors-Jason.sol\":2059:2190  if(userWin > systemWin){... */\n    tag_142:\n        /* \"Practical2-RockPaperScissors-Jason.sol\":2156:2175  return (\"You Lose\") */\n      mload(0x40)\n      dup1\n      0x40\n      add\n      0x40\n      mstore\n      dup1\n      0x08\n      dup2\n      mstore\n      0x20\n      add\n      0x596f75204c6f7365000000000000000000000000000000000000000000000000\n      dup2\n      mstore\n      pop\n      swap1\n      pop\n        /* \"Practical2-RockPaperScissors-Jason.sol\":915:2238  function playMutiTimes()  ... */\n    tag_91:\n      swap1\n      jump\t// out\n        /* \"Practical2-RockPaperScissors-Jason.sol\":381:673  function enterOption(uint256 userInput) external returns (uint[] memory result){... */\n    tag_49:\n        /* \"Practical2-RockPaperScissors-Jason.sol\":439:459  uint[] memory result */\n      0x60\n        /* \"Practical2-RockPaperScissors-Jason.sol\":491:492  3 */\n      0x03\n        /* \"Practical2-RockPaperScissors-Jason.sol\":478:487  userInput */\n      dup3\n        /* \"Practical2-RockPaperScissors-Jason.sol\":478:492  userInput <= 3 */\n      gt\n      iszero\n        /* \"Practical2-RockPaperScissors-Jason.sol\":470:527  require(userInput <= 3, \"Error: Can't input more than 3\") */\n      tag_145\n      jumpi\n      mload(0x40)\n      0x08c379a000000000000000000000000000000000000000000000000000000000\n      dup2\n      mstore\n      0x04\n      add\n      tag_146\n      swap1\n      tag_77\n      jump\t// in\n    tag_146:\n      mload(0x40)\n      dup1\n      swap2\n      sub\n      swap1\n      revert\n    tag_145:\n        /* \"Practical2-RockPaperScissors-Jason.sol\":552:561  userInput */\n      dup2\n        /* \"Practical2-RockPaperScissors-Jason.sol\":537:549  playerOption */\n      0x01\n        /* \"Practical2-RockPaperScissors-Jason.sol\":537:561  playerOption = userInput */\n      dup2\n      swap1\n      sstore\n      pop\n        /* \"Practical2-RockPaperScissors-Jason.sol\":571:578  Options */\n      0x02\n        /* \"Practical2-RockPaperScissors-Jason.sol\":584:596  playerOption */\n      sload(0x01)\n        /* \"Practical2-RockPaperScissors-Jason.sol\":571:597  Options.push(playerOption) */\n      swap1\n      dup1\n      0x01\n      dup2\n      sload\n      add\n      dup1\n      dup3\n      sstore\n      dup1\n      swap2\n      pop\n      pop\n      0x01\n      swap1\n      sub\n      swap1\n      0x00\n      mstore\n      keccak256(0x00, 0x20)\n      add\n      0x00\n      swap1\n      swap2\n      swap1\n      swap2\n      swap1\n      swap2\n      pop\n      sstore\n        /* \"Practical2-RockPaperScissors-Jason.sol\":658:665  Options */\n      0x02\n        /* \"Practical2-RockPaperScissors-Jason.sol\":650:666  return (Options) */\n      dup1\n      sload\n      dup1\n      0x20\n      mul\n      0x20\n      add\n      mload(0x40)\n      swap1\n      dup2\n      add\n      0x40\n      mstore\n      dup1\n      swap3\n      swap2\n      swap1\n      dup2\n      dup2\n      mstore\n      0x20\n      add\n      dup3\n      dup1\n      sload\n      dup1\n      iszero\n      tag_148\n      jumpi\n      0x20\n      mul\n      dup3\n      add\n      swap2\n      swap1\n      0x00\n      mstore\n      keccak256(0x00, 0x20)\n      swap1\n    tag_149:\n      dup2\n      sload\n      dup2\n      mstore\n      0x20\n      add\n      swap1\n      0x01\n      add\n      swap1\n      dup1\n      dup4\n      gt\n      tag_149\n      jumpi\n    tag_148:\n      pop\n      pop\n      pop\n      pop\n      pop\n      swap1\n      pop\n        /* \"Practical2-RockPaperScissors-Jason.sol\":381:673  function enterOption(uint256 userInput) external returns (uint[] memory result){... */\n      swap2\n      swap1\n      pop\n      jump\t// out\n        /* \"Practical2-RockPaperScissors-Jason.sol\":3388:4017  function play(uint256 option) ... */\n    tag_54:\n        /* \"Practical2-RockPaperScissors-Jason.sol\":3454:3474  string memory result */\n      0x60\n        /* \"Practical2-RockPaperScissors-Jason.sol\":3486:3506  uint256 randomChoice */\n      0x00\n        /* \"Practical2-RockPaperScissors-Jason.sol\":3509:3526  getRandomNumber() */\n      tag_151\n        /* \"Practical2-RockPaperScissors-Jason.sol\":3509:3524  getRandomNumber */\n      tag_72\n        /* \"Practical2-RockPaperScissors-Jason.sol\":3509:3526  getRandomNumber() */\n      jump\t// in\n    tag_151:\n        /* \"Practical2-RockPaperScissors-Jason.sol\":3486:3526  uint256 randomChoice = getRandomNumber() */\n      swap1\n      pop\n        /* \"Practical2-RockPaperScissors-Jason.sol\":3549:3561  randomChoice */\n      dup1\n        /* \"Practical2-RockPaperScissors-Jason.sol\":3536:3546  lastChoice */\n      0x00\n        /* \"Practical2-RockPaperScissors-Jason.sol\":3536:3561  lastChoice = randomChoice */\n      dup2\n      swap1\n      sstore\n      pop\n        /* \"Practical2-RockPaperScissors-Jason.sol\":3590:3591  3 */\n      0x03\n        /* \"Practical2-RockPaperScissors-Jason.sol\":3580:3586  option */\n      dup4\n        /* \"Practical2-RockPaperScissors-Jason.sol\":3580:3591  option <= 3 */\n      gt\n      iszero\n        /* \"Practical2-RockPaperScissors-Jason.sol\":3572:3626  require(option <= 3, \"Error: Can't input more than 3\") */\n      tag_152\n      jumpi\n      mload(0x40)\n      0x08c379a000000000000000000000000000000000000000000000000000000000\n      dup2\n      mstore\n      0x04\n      add\n      tag_153\n      swap1\n      tag_77\n      jump\t// in\n    tag_153:\n      mload(0x40)\n      dup1\n      swap2\n      sub\n      swap1\n      revert\n    tag_152:\n        /* \"Practical2-RockPaperScissors-Jason.sol\":3693:3705  randomChoice */\n      dup1\n        /* \"Practical2-RockPaperScissors-Jason.sol\":3683:3689  option */\n      dup4\n        /* \"Practical2-RockPaperScissors-Jason.sol\":3683:3705  option == randomChoice */\n      sub\n        /* \"Practical2-RockPaperScissors-Jason.sol\":3679:3747  if (option == randomChoice) {... */\n      tag_154\n      jumpi\n        /* \"Practical2-RockPaperScissors-Jason.sol\":3721:3736  return (\"Tied\") */\n      mload(0x40)\n      dup1\n      0x40\n      add\n      0x40\n      mstore\n      dup1\n      0x04\n      dup2\n      mstore\n      0x20\n      add\n      0x5469656400000000000000000000000000000000000000000000000000000000\n      dup2\n      mstore\n      pop\n      swap2\n      pop\n      pop\n      jump(tag_150)\n        /* \"Practical2-RockPaperScissors-Jason.sol\":3679:3747  if (option == randomChoice) {... */\n    tag_154:\n        /* \"Practical2-RockPaperScissors-Jason.sol\":3784:3785  1 */\n      0x01\n        /* \"Practical2-RockPaperScissors-Jason.sol\":3774:3780  option */\n      dup4\n        /* \"Practical2-RockPaperScissors-Jason.sol\":3774:3785  option == 1 */\n      eq\n        /* \"Practical2-RockPaperScissors-Jason.sol\":3774:3806  option == 1 && randomChoice == 2 */\n      dup1\n      iszero\n      tag_155\n      jumpi\n      pop\n        /* \"Practical2-RockPaperScissors-Jason.sol\":3805:3806  2 */\n      0x02\n        /* \"Practical2-RockPaperScissors-Jason.sol\":3789:3801  randomChoice */\n      dup2\n        /* \"Practical2-RockPaperScissors-Jason.sol\":3789:3806  randomChoice == 2 */\n      eq\n        /* \"Practical2-RockPaperScissors-Jason.sol\":3774:3806  option == 1 && randomChoice == 2 */\n    tag_155:\n        /* \"Practical2-RockPaperScissors-Jason.sol\":3773:3857  (option == 1 && randomChoice == 2) ||... */\n      dup1\n      tag_156\n      jumpi\n      pop\n        /* \"Practical2-RockPaperScissors-Jason.sol\":3834:3835  3 */\n      0x03\n        /* \"Practical2-RockPaperScissors-Jason.sol\":3824:3830  option */\n      dup4\n        /* \"Practical2-RockPaperScissors-Jason.sol\":3824:3835  option == 3 */\n      eq\n        /* \"Practical2-RockPaperScissors-Jason.sol\":3824:3856  option == 3 && randomChoice == 1 */\n      dup1\n      iszero\n      tag_157\n      jumpi\n      pop\n        /* \"Practical2-RockPaperScissors-Jason.sol\":3855:3856  1 */\n      0x01\n        /* \"Practical2-RockPaperScissors-Jason.sol\":3839:3851  randomChoice */\n      dup2\n        /* \"Practical2-RockPaperScissors-Jason.sol\":3839:3856  randomChoice == 1 */\n      eq\n        /* \"Practical2-RockPaperScissors-Jason.sol\":3824:3856  option == 3 && randomChoice == 1 */\n    tag_157:\n        /* \"Practical2-RockPaperScissors-Jason.sol\":3773:3857  (option == 1 && randomChoice == 2) ||... */\n    tag_156:\n        /* \"Practical2-RockPaperScissors-Jason.sol\":3773:3907  (option == 1 && randomChoice == 2) ||... */\n      dup1\n      tag_158\n      jumpi\n      pop\n        /* \"Practical2-RockPaperScissors-Jason.sol\":3884:3885  2 */\n      0x02\n        /* \"Practical2-RockPaperScissors-Jason.sol\":3874:3880  option */\n      dup4\n        /* \"Practical2-RockPaperScissors-Jason.sol\":3874:3885  option == 2 */\n      eq\n        /* \"Practical2-RockPaperScissors-Jason.sol\":3874:3906  option == 2 && randomChoice == 3 */\n      dup1\n      iszero\n      tag_159\n      jumpi\n      pop\n        /* \"Practical2-RockPaperScissors-Jason.sol\":3905:3906  3 */\n      0x03\n        /* \"Practical2-RockPaperScissors-Jason.sol\":3889:3901  randomChoice */\n      dup2\n        /* \"Practical2-RockPaperScissors-Jason.sol\":3889:3906  randomChoice == 3 */\n      eq\n        /* \"Practical2-RockPaperScissors-Jason.sol\":3874:3906  option == 2 && randomChoice == 3 */\n    tag_159:\n        /* \"Practical2-RockPaperScissors-Jason.sol\":3773:3907  (option == 1 && randomChoice == 2) ||... */\n    tag_158:\n        /* \"Practical2-RockPaperScissors-Jason.sol\":3756:4011  if (... */\n      iszero\n      tag_160\n      jumpi\n        /* \"Practical2-RockPaperScissors-Jason.sol\":3932:3951  return (\"You lose\") */\n      mload(0x40)\n      dup1\n      0x40\n      add\n      0x40\n      mstore\n      dup1\n      0x08\n      dup2\n      mstore\n      0x20\n      add\n      0x596f75206c6f7365000000000000000000000000000000000000000000000000\n      dup2\n      mstore\n      pop\n      swap2\n      pop\n      pop\n      jump(tag_150)\n        /* \"Practical2-RockPaperScissors-Jason.sol\":3756:4011  if (... */\n    tag_160:\n        /* \"Practical2-RockPaperScissors-Jason.sol\":3982:4000  return (\"You won\") */\n      mload(0x40)\n      dup1\n      0x40\n      add\n      0x40\n      mstore\n      dup1\n      0x07\n      dup2\n      mstore\n      0x20\n      add\n      0x596f7520776f6e00000000000000000000000000000000000000000000000000\n      dup2\n      mstore\n      pop\n      swap2\n      pop\n      pop\n        /* \"Practical2-RockPaperScissors-Jason.sol\":3388:4017  function play(uint256 option) ... */\n    tag_150:\n      swap2\n      swap1\n      pop\n      jump\t// out\n        /* \"Practical2-RockPaperScissors-Jason.sol\":731:838  function getRandomSet () external view returns (uint[] memory result){... */\n    tag_57:\n        /* \"Practical2-RockPaperScissors-Jason.sol\":779:799  uint[] memory result */\n      0x60\n        /* \"Practical2-RockPaperScissors-Jason.sol\":818:830  randomNumSet */\n      0x03\n        /* \"Practical2-RockPaperScissors-Jason.sol\":810:831  return (randomNumSet) */\n      dup1\n      sload\n      dup1\n      0x20\n      mul\n      0x20\n      add\n      mload(0x40)\n      swap1\n      dup2\n      add\n      0x40\n      mstore\n      dup1\n      swap3\n      swap2\n      swap1\n      dup2\n      dup2\n      mstore\n      0x20\n      add\n      dup3\n      dup1\n      sload\n      dup1\n      iszero\n      tag_163\n      jumpi\n      0x20\n      mul\n      dup3\n      add\n      swap2\n      swap1\n      0x00\n      mstore\n      keccak256(0x00, 0x20)\n      swap1\n    tag_164:\n      dup2\n      sload\n      dup2\n      mstore\n      0x20\n      add\n      swap1\n      0x01\n      add\n      swap1\n      dup1\n      dup4\n      gt\n      tag_164\n      jumpi\n    tag_163:\n      pop\n      pop\n      pop\n      pop\n      pop\n      swap1\n      pop\n        /* \"Practical2-RockPaperScissors-Jason.sol\":731:838  function getRandomSet () external view returns (uint[] memory result){... */\n      swap1\n      jump\t// out\n        /* \"Practical2-RockPaperScissors-Jason.sol\":319:335  uint public tied */\n    tag_60:\n      sload(0x07)\n      dup2\n      jump\t// out\n        /* \"Practical2-RockPaperScissors-Jason.sol\":267:286  uint public userWin */\n    tag_63:\n      sload(0x05)\n      dup2\n      jump\t// out\n        /* \"Practical2-RockPaperScissors-Jason.sol\":3024:3268  function compareStrings(string memory a, string memory b) public pure returns (bool) {... */\n    tag_68:\n        /* \"Practical2-RockPaperScissors-Jason.sol\":3103:3107  bool */\n      0x00\n        /* \"Practical2-RockPaperScissors-Jason.sol\":3258:3259  b */\n      dup2\n        /* \"Practical2-RockPaperScissors-Jason.sol\":3241:3260  abi.encodePacked(b) */\n      add(0x20, mload(0x40))\n      tag_166\n      swap2\n      swap1\n      tag_167\n      jump\t// in\n    tag_166:\n      mload(0x40)\n      0x20\n      dup2\n      dup4\n      sub\n      sub\n      dup2\n      mstore\n      swap1\n      0x40\n      mstore\n        /* \"Practical2-RockPaperScissors-Jason.sol\":3231:3261  keccak256(abi.encodePacked(b)) */\n      dup1\n      mload\n      swap1\n      0x20\n      add\n      keccak256\n        /* \"Practical2-RockPaperScissors-Jason.sol\":3224:3225  a */\n      dup4\n        /* \"Practical2-RockPaperScissors-Jason.sol\":3207:3226  abi.encodePacked(a) */\n      add(0x20, mload(0x40))\n      tag_168\n      swap2\n      swap1\n      tag_167\n      jump\t// in\n    tag_168:\n      mload(0x40)\n      0x20\n      dup2\n      dup4\n      sub\n      sub\n      dup2\n      mstore\n      swap1\n      0x40\n      mstore\n        /* \"Practical2-RockPaperScissors-Jason.sol\":3197:3227  keccak256(abi.encodePacked(a)) */\n      dup1\n      mload\n      swap1\n      0x20\n      add\n      keccak256\n        /* \"Practical2-RockPaperScissors-Jason.sol\":3197:3261  keccak256(abi.encodePacked(a)) == keccak256(abi.encodePacked(b)) */\n      eq\n        /* \"Practical2-RockPaperScissors-Jason.sol\":3190:3261  return keccak256(abi.encodePacked(a)) == keccak256(abi.encodePacked(b)) */\n      swap1\n      pop\n        /* \"Practical2-RockPaperScissors-Jason.sol\":3024:3268  function compareStrings(string memory a, string memory b) public pure returns (bool) {... */\n      swap3\n      swap2\n      pop\n      pop\n      jump\t// out\n        /* \"Practical2-RockPaperScissors-Jason.sol\":4023:4632  function getRandomNumber() public returns (uint256) {... */\n    tag_72:\n        /* \"Practical2-RockPaperScissors-Jason.sol\":4066:4073  uint256 */\n      0x00\n        /* \"Practical2-RockPaperScissors-Jason.sol\":4267:4279  uint256 seed */\n      dup1\n        /* \"Practical2-RockPaperScissors-Jason.sol\":4317:4332  block.timestamp */\n      timestamp\n        /* \"Practical2-RockPaperScissors-Jason.sol\":4334:4350  block.difficulty */\n      prevrandao\n        /* \"Practical2-RockPaperScissors-Jason.sol\":4377:4378  1 */\n      0x01\n        /* \"Practical2-RockPaperScissors-Jason.sol\":4362:4374  block.number */\n      number\n        /* \"Practical2-RockPaperScissors-Jason.sol\":4362:4378  block.number - 1 */\n      tag_170\n      swap2\n      swap1\n      tag_171\n      jump\t// in\n    tag_170:\n        /* \"Practical2-RockPaperScissors-Jason.sol\":4352:4379  blockhash(block.number - 1) */\n      blockhash\n        /* \"Practical2-RockPaperScissors-Jason.sol\":4300:4380  abi.encodePacked(block.timestamp, block.difficulty, blockhash(block.number - 1)) */\n      add(0x20, mload(0x40))\n      tag_172\n      swap4\n      swap3\n      swap2\n      swap1\n      tag_173\n      jump\t// in\n    tag_172:\n      mload(0x40)\n      0x20\n      dup2\n      dup4\n      sub\n      sub\n      dup2\n      mstore\n      swap1\n      0x40\n      mstore\n        /* \"Practical2-RockPaperScissors-Jason.sol\":4290:4381  keccak256(abi.encodePacked(block.timestamp, block.difficulty, blockhash(block.number - 1))) */\n      dup1\n      mload\n      swap1\n      0x20\n      add\n      keccak256\n        /* \"Practical2-RockPaperScissors-Jason.sol\":4282:4382  uint256(keccak256(abi.encodePacked(block.timestamp, block.difficulty, blockhash(block.number - 1)))) */\n      0x00\n      shr\n        /* \"Practical2-RockPaperScissors-Jason.sol\":4267:4382  uint256 seed = uint256(keccak256(abi.encodePacked(block.timestamp, block.difficulty, blockhash(block.number - 1)))) */\n      swap1\n      pop\n        /* \"Practical2-RockPaperScissors-Jason.sol\":4459:4474  uint256 random1 */\n      0x00\n        /* \"Practical2-RockPaperScissors-Jason.sol\":4512:4516  seed */\n      dup2\n        /* \"Practical2-RockPaperScissors-Jason.sol\":4518:4522  salt */\n      sload(0x04)\n        /* \"Practical2-RockPaperScissors-Jason.sol\":4495:4523  abi.encodePacked(seed, salt) */\n      add(0x20, mload(0x40))\n      tag_174\n      swap3\n      swap2\n      swap1\n      tag_175\n      jump\t// in\n    tag_174:\n      mload(0x40)\n      0x20\n      dup2\n      dup4\n      sub\n      sub\n      dup2\n      mstore\n      swap1\n      0x40\n      mstore\n        /* \"Practical2-RockPaperScissors-Jason.sol\":4485:4524  keccak256(abi.encodePacked(seed, salt)) */\n      dup1\n      mload\n      swap1\n      0x20\n      add\n      keccak256\n        /* \"Practical2-RockPaperScissors-Jason.sol\":4477:4525  uint256(keccak256(abi.encodePacked(seed, salt))) */\n      0x00\n      shr\n        /* \"Practical2-RockPaperScissors-Jason.sol\":4459:4525  uint256 random1 = uint256(keccak256(abi.encodePacked(seed, salt))) */\n      swap1\n      pop\n        /* \"Practical2-RockPaperScissors-Jason.sol\":4543:4544  1 */\n      0x01\n        /* \"Practical2-RockPaperScissors-Jason.sol\":4535:4539  salt */\n      0x04\n      0x00\n        /* \"Practical2-RockPaperScissors-Jason.sol\":4535:4544  salt += 1 */\n      dup3\n      dup3\n      sload\n      tag_176\n      swap2\n      swap1\n      tag_177\n      jump\t// in\n    tag_176:\n      swap3\n      pop\n      pop\n      dup2\n      swap1\n      sstore\n      pop\n        /* \"Practical2-RockPaperScissors-Jason.sol\":4624:4625  1 */\n      0x01\n        /* \"Practical2-RockPaperScissors-Jason.sol\":4619:4620  3 */\n      0x03\n        /* \"Practical2-RockPaperScissors-Jason.sol\":4609:4616  random1 */\n      dup3\n        /* \"Practical2-RockPaperScissors-Jason.sol\":4609:4620  random1 % 3 */\n      tag_178\n      swap2\n      swap1\n      tag_179\n      jump\t// in\n    tag_178:\n        /* \"Practical2-RockPaperScissors-Jason.sol\":4608:4625  (random1 % 3) + 1 */\n      tag_180\n      swap2\n      swap1\n      tag_177\n      jump\t// in\n    tag_180:\n        /* \"Practical2-RockPaperScissors-Jason.sol\":4601:4625  return (random1 % 3) + 1 */\n      swap3\n      pop\n      pop\n      pop\n        /* \"Practical2-RockPaperScissors-Jason.sol\":4023:4632  function getRandomNumber() public returns (uint256) {... */\n      swap1\n      jump\t// out\n    tag_93:\n      pop\n      dup1\n      sload\n      0x00\n      dup3\n      sstore\n      swap1\n      0x00\n      mstore\n      keccak256(0x00, 0x20)\n      swap1\n      dup2\n      add\n      swap1\n      tag_182\n      swap2\n      swap1\n      tag_183\n      jump\t// in\n    tag_182:\n      pop\n      jump\t// out\n    tag_183:\n    tag_184:\n      dup1\n      dup3\n      gt\n      iszero\n      tag_185\n      jumpi\n      0x00\n      dup2\n      0x00\n      swap1\n      sstore\n      pop\n      0x01\n      add\n      jump(tag_184)\n    tag_185:\n      pop\n      swap1\n      jump\t// out\n        /* \"#utility.yul\":7:84   */\n    tag_186:\n        /* \"#utility.yul\":44:51   */\n      0x00\n        /* \"#utility.yul\":73:78   */\n      dup2\n        /* \"#utility.yul\":62:78   */\n      swap1\n      pop\n        /* \"#utility.yul\":7:84   */\n      swap2\n      swap1\n      pop\n      jump\t// out\n        /* \"#utility.yul\":90:208   */\n    tag_187:\n        /* \"#utility.yul\":177:201   */\n      tag_230\n        /* \"#utility.yul\":195:200   */\n      dup2\n        /* \"#utility.yul\":177:201   */\n      tag_186\n      jump\t// in\n    tag_230:\n        /* \"#utility.yul\":172:175   */\n      dup3\n        /* \"#utility.yul\":165:202   */\n      mstore\n        /* \"#utility.yul\":90:208   */\n      pop\n      pop\n      jump\t// out\n        /* \"#utility.yul\":214:436   */\n    tag_23:\n        /* \"#utility.yul\":307:311   */\n      0x00\n        /* \"#utility.yul\":345:347   */\n      0x20\n        /* \"#utility.yul\":334:343   */\n      dup3\n        /* \"#utility.yul\":330:348   */\n      add\n        /* \"#utility.yul\":322:348   */\n      swap1\n      pop\n        /* \"#utility.yul\":358:429   */\n      tag_232\n        /* \"#utility.yul\":426:427   */\n      0x00\n        /* \"#utility.yul\":415:424   */\n      dup4\n        /* \"#utility.yul\":411:428   */\n      add\n        /* \"#utility.yul\":402:408   */\n      dup5\n        /* \"#utility.yul\":358:429   */\n      tag_187\n      jump\t// in\n    tag_232:\n        /* \"#utility.yul\":214:436   */\n      swap3\n      swap2\n      pop\n      pop\n      jump\t// out\n        /* \"#utility.yul\":442:517   */\n    tag_188:\n        /* \"#utility.yul\":475:481   */\n      0x00\n        /* \"#utility.yul\":508:510   */\n      0x40\n        /* \"#utility.yul\":502:511   */\n      mload\n        /* \"#utility.yul\":492:511   */\n      swap1\n      pop\n        /* \"#utility.yul\":442:517   */\n      swap1\n      jump\t// out\n        /* \"#utility.yul\":523:640   */\n    tag_189:\n        /* \"#utility.yul\":632:633   */\n      0x00\n        /* \"#utility.yul\":629:630   */\n      dup1\n        /* \"#utility.yul\":622:634   */\n      revert\n        /* \"#utility.yul\":646:763   */\n    tag_190:\n        /* \"#utility.yul\":755:756   */\n      0x00\n        /* \"#utility.yul\":752:753   */\n      dup1\n        /* \"#utility.yul\":745:757   */\n      revert\n        /* \"#utility.yul\":769:891   */\n    tag_191:\n        /* \"#utility.yul\":842:866   */\n      tag_237\n        /* \"#utility.yul\":860:865   */\n      dup2\n        /* \"#utility.yul\":842:866   */\n      tag_186\n      jump\t// in\n    tag_237:\n        /* \"#utility.yul\":835:840   */\n      dup2\n        /* \"#utility.yul\":832:867   */\n      eq\n        /* \"#utility.yul\":822:885   */\n      tag_238\n      jumpi\n        /* \"#utility.yul\":881:882   */\n      0x00\n        /* \"#utility.yul\":878:879   */\n      dup1\n        /* \"#utility.yul\":871:883   */\n      revert\n        /* \"#utility.yul\":822:885   */\n    tag_238:\n        /* \"#utility.yul\":769:891   */\n      pop\n      jump\t// out\n        /* \"#utility.yul\":897:1036   */\n    tag_192:\n        /* \"#utility.yul\":943:948   */\n      0x00\n        /* \"#utility.yul\":981:987   */\n      dup2\n        /* \"#utility.yul\":968:988   */\n      calldataload\n        /* \"#utility.yul\":959:988   */\n      swap1\n      pop\n        /* \"#utility.yul\":997:1030   */\n      tag_240\n        /* \"#utility.yul\":1024:1029   */\n      dup2\n        /* \"#utility.yul\":997:1030   */\n      tag_191\n      jump\t// in\n    tag_240:\n        /* \"#utility.yul\":897:1036   */\n      swap3\n      swap2\n      pop\n      pop\n      jump\t// out\n        /* \"#utility.yul\":1042:1371   */\n    tag_29:\n        /* \"#utility.yul\":1101:1107   */\n      0x00\n        /* \"#utility.yul\":1150:1152   */\n      0x20\n        /* \"#utility.yul\":1138:1147   */\n      dup3\n        /* \"#utility.yul\":1129:1136   */\n      dup5\n        /* \"#utility.yul\":1125:1148   */\n      sub\n        /* \"#utility.yul\":1121:1153   */\n      slt\n        /* \"#utility.yul\":1118:1237   */\n      iszero\n      tag_242\n      jumpi\n        /* \"#utility.yul\":1156:1235   */\n      tag_243\n      tag_189\n      jump\t// in\n    tag_243:\n        /* \"#utility.yul\":1118:1237   */\n    tag_242:\n        /* \"#utility.yul\":1276:1277   */\n      0x00\n        /* \"#utility.yul\":1301:1354   */\n      tag_244\n        /* \"#utility.yul\":1346:1353   */\n      dup5\n        /* \"#utility.yul\":1337:1343   */\n      dup3\n        /* \"#utility.yul\":1326:1335   */\n      dup6\n        /* \"#utility.yul\":1322:1344   */\n      add\n        /* \"#utility.yul\":1301:1354   */\n      tag_192\n      jump\t// in\n    tag_244:\n        /* \"#utility.yul\":1291:1354   */\n      swap2\n      pop\n        /* \"#utility.yul\":1247:1364   */\n      pop\n        /* \"#utility.yul\":1042:1371   */\n      swap3\n      swap2\n      pop\n      pop\n      jump\t// out\n        /* \"#utility.yul\":1377:1476   */\n    tag_193:\n        /* \"#utility.yul\":1429:1435   */\n      0x00\n        /* \"#utility.yul\":1463:1468   */\n      dup2\n        /* \"#utility.yul\":1457:1469   */\n      mload\n        /* \"#utility.yul\":1447:1469   */\n      swap1\n      pop\n        /* \"#utility.yul\":1377:1476   */\n      swap2\n      swap1\n      pop\n      jump\t// out\n        /* \"#utility.yul\":1482:1651   */\n    tag_194:\n        /* \"#utility.yul\":1566:1577   */\n      0x00\n        /* \"#utility.yul\":1600:1606   */\n      dup3\n        /* \"#utility.yul\":1595:1598   */\n      dup3\n        /* \"#utility.yul\":1588:1607   */\n      mstore\n        /* \"#utility.yul\":1640:1644   */\n      0x20\n        /* \"#utility.yul\":1635:1638   */\n      dup3\n        /* \"#utility.yul\":1631:1645   */\n      add\n        /* \"#utility.yul\":1616:1645   */\n      swap1\n      pop\n        /* \"#utility.yul\":1482:1651   */\n      swap3\n      swap2\n      pop\n      pop\n      jump\t// out\n        /* \"#utility.yul\":1657:1903   */\n    tag_195:\n        /* \"#utility.yul\":1738:1739   */\n      0x00\n        /* \"#utility.yul\":1748:1861   */\n    tag_248:\n        /* \"#utility.yul\":1762:1768   */\n      dup4\n        /* \"#utility.yul\":1759:1760   */\n      dup2\n        /* \"#utility.yul\":1756:1769   */\n      lt\n        /* \"#utility.yul\":1748:1861   */\n      iszero\n      tag_250\n      jumpi\n        /* \"#utility.yul\":1847:1848   */\n      dup1\n        /* \"#utility.yul\":1842:1845   */\n      dup3\n        /* \"#utility.yul\":1838:1849   */\n      add\n        /* \"#utility.yul\":1832:1850   */\n      mload\n        /* \"#utility.yul\":1828:1829   */\n      dup2\n        /* \"#utility.yul\":1823:1826   */\n      dup5\n        /* \"#utility.yul\":1819:1830   */\n      add\n        /* \"#utility.yul\":1812:1851   */\n      mstore\n        /* \"#utility.yul\":1784:1786   */\n      0x20\n        /* \"#utility.yul\":1781:1782   */\n      dup2\n        /* \"#utility.yul\":1777:1787   */\n      add\n        /* \"#utility.yul\":1772:1787   */\n      swap1\n      pop\n        /* \"#utility.yul\":1748:1861   */\n      jump(tag_248)\n    tag_250:\n        /* \"#utility.yul\":1895:1896   */\n      0x00\n        /* \"#utility.yul\":1886:1892   */\n      dup5\n        /* \"#utility.yul\":1881:1884   */\n      dup5\n        /* \"#utility.yul\":1877:1893   */\n      add\n        /* \"#utility.yul\":1870:1897   */\n      mstore\n        /* \"#utility.yul\":1719:1903   */\n      pop\n        /* \"#utility.yul\":1657:1903   */\n      pop\n      pop\n      pop\n      jump\t// out\n        /* \"#utility.yul\":1909:2011   */\n    tag_196:\n        /* \"#utility.yul\":1950:1956   */\n      0x00\n        /* \"#utility.yul\":2001:2003   */\n      0x1f\n        /* \"#utility.yul\":1997:2004   */\n      not\n        /* \"#utility.yul\":1992:1994   */\n      0x1f\n        /* \"#utility.yul\":1985:1990   */\n      dup4\n        /* \"#utility.yul\":1981:1995   */\n      add\n        /* \"#utility.yul\":1977:2005   */\n      and\n        /* \"#utility.yul\":1967:2005   */\n      swap1\n      pop\n        /* \"#utility.yul\":1909:2011   */\n      swap2\n      swap1\n      pop\n      jump\t// out\n        /* \"#utility.yul\":2017:2394   */\n    tag_197:\n        /* \"#utility.yul\":2105:2108   */\n      0x00\n        /* \"#utility.yul\":2133:2172   */\n      tag_253\n        /* \"#utility.yul\":2166:2171   */\n      dup3\n        /* \"#utility.yul\":2133:2172   */\n      tag_193\n      jump\t// in\n    tag_253:\n        /* \"#utility.yul\":2188:2259   */\n      tag_254\n        /* \"#utility.yul\":2252:2258   */\n      dup2\n        /* \"#utility.yul\":2247:2250   */\n      dup6\n        /* \"#utility.yul\":2188:2259   */\n      tag_194\n      jump\t// in\n    tag_254:\n        /* \"#utility.yul\":2181:2259   */\n      swap4\n      pop\n        /* \"#utility.yul\":2268:2333   */\n      tag_255\n        /* \"#utility.yul\":2326:2332   */\n      dup2\n        /* \"#utility.yul\":2321:2324   */\n      dup6\n        /* \"#utility.yul\":2314:2318   */\n      0x20\n        /* \"#utility.yul\":2307:2312   */\n      dup7\n        /* \"#utility.yul\":2303:2319   */\n      add\n        /* \"#utility.yul\":2268:2333   */\n      tag_195\n      jump\t// in\n    tag_255:\n        /* \"#utility.yul\":2358:2387   */\n      tag_256\n        /* \"#utility.yul\":2380:2386   */\n      dup2\n        /* \"#utility.yul\":2358:2387   */\n      tag_196\n      jump\t// in\n    tag_256:\n        /* \"#utility.yul\":2353:2356   */\n      dup5\n        /* \"#utility.yul\":2349:2388   */\n      add\n        /* \"#utility.yul\":2342:2388   */\n      swap2\n      pop\n        /* \"#utility.yul\":2109:2394   */\n      pop\n        /* \"#utility.yul\":2017:2394   */\n      swap3\n      swap2\n      pop\n      pop\n      jump\t// out\n        /* \"#utility.yul\":2400:2713   */\n    tag_32:\n        /* \"#utility.yul\":2513:2517   */\n      0x00\n        /* \"#utility.yul\":2551:2553   */\n      0x20\n        /* \"#utility.yul\":2540:2549   */\n      dup3\n        /* \"#utility.yul\":2536:2554   */\n      add\n        /* \"#utility.yul\":2528:2554   */\n      swap1\n      pop\n        /* \"#utility.yul\":2600:2609   */\n      dup2\n        /* \"#utility.yul\":2594:2598   */\n      dup2\n        /* \"#utility.yul\":2590:2610   */\n      sub\n        /* \"#utility.yul\":2586:2587   */\n      0x00\n        /* \"#utility.yul\":2575:2584   */\n      dup4\n        /* \"#utility.yul\":2571:2588   */\n      add\n        /* \"#utility.yul\":2564:2611   */\n      mstore\n        /* \"#utility.yul\":2628:2706   */\n      tag_258\n        /* \"#utility.yul\":2701:2705   */\n      dup2\n        /* \"#utility.yul\":2692:2698   */\n      dup5\n        /* \"#utility.yul\":2628:2706   */\n      tag_197\n      jump\t// in\n    tag_258:\n        /* \"#utility.yul\":2620:2706   */\n      swap1\n      pop\n        /* \"#utility.yul\":2400:2713   */\n      swap3\n      swap2\n      pop\n      pop\n      jump\t// out\n        /* \"#utility.yul\":2719:2833   */\n    tag_198:\n        /* \"#utility.yul\":2786:2792   */\n      0x00\n        /* \"#utility.yul\":2820:2825   */\n      dup2\n        /* \"#utility.yul\":2814:2826   */\n      mload\n        /* \"#utility.yul\":2804:2826   */\n      swap1\n      pop\n        /* \"#utility.yul\":2719:2833   */\n      swap2\n      swap1\n      pop\n      jump\t// out\n        /* \"#utility.yul\":2839:3023   */\n    tag_199:\n        /* \"#utility.yul\":2938:2949   */\n      0x00\n        /* \"#utility.yul\":2972:2978   */\n      dup3\n        /* \"#utility.yul\":2967:2970   */\n      dup3\n        /* \"#utility.yul\":2960:2979   */\n      mstore\n        /* \"#utility.yul\":3012:3016   */\n      0x20\n        /* \"#utility.yul\":3007:3010   */\n      dup3\n        /* \"#utility.yul\":3003:3017   */\n      add\n        /* \"#utility.yul\":2988:3017   */\n      swap1\n      pop\n        /* \"#utility.yul\":2839:3023   */\n      swap3\n      swap2\n      pop\n      pop\n      jump\t// out\n        /* \"#utility.yul\":3029:3161   */\n    tag_200:\n        /* \"#utility.yul\":3096:3100   */\n      0x00\n        /* \"#utility.yul\":3119:3122   */\n      dup2\n        /* \"#utility.yul\":3111:3122   */\n      swap1\n      pop\n        /* \"#utility.yul\":3149:3153   */\n      0x20\n        /* \"#utility.yul\":3144:3147   */\n      dup3\n        /* \"#utility.yul\":3140:3154   */\n      add\n        /* \"#utility.yul\":3132:3154   */\n      swap1\n      pop\n        /* \"#utility.yul\":3029:3161   */\n      swap2\n      swap1\n      pop\n      jump\t// out\n        /* \"#utility.yul\":3167:3275   */\n    tag_201:\n        /* \"#utility.yul\":3244:3268   */\n      tag_263\n        /* \"#utility.yul\":3262:3267   */\n      dup2\n        /* \"#utility.yul\":3244:3268   */\n      tag_186\n      jump\t// in\n    tag_263:\n        /* \"#utility.yul\":3239:3242   */\n      dup3\n        /* \"#utility.yul\":3232:3269   */\n      mstore\n        /* \"#utility.yul\":3167:3275   */\n      pop\n      pop\n      jump\t// out\n        /* \"#utility.yul\":3281:3460   */\n    tag_202:\n        /* \"#utility.yul\":3350:3360   */\n      0x00\n        /* \"#utility.yul\":3371:3417   */\n      tag_265\n        /* \"#utility.yul\":3413:3416   */\n      dup4\n        /* \"#utility.yul\":3405:3411   */\n      dup4\n        /* \"#utility.yul\":3371:3417   */\n      tag_201\n      jump\t// in\n    tag_265:\n        /* \"#utility.yul\":3449:3453   */\n      0x20\n        /* \"#utility.yul\":3444:3447   */\n      dup4\n        /* \"#utility.yul\":3440:3454   */\n      add\n        /* \"#utility.yul\":3426:3454   */\n      swap1\n      pop\n        /* \"#utility.yul\":3281:3460   */\n      swap3\n      swap2\n      pop\n      pop\n      jump\t// out\n        /* \"#utility.yul\":3466:3579   */\n    tag_203:\n        /* \"#utility.yul\":3536:3540   */\n      0x00\n        /* \"#utility.yul\":3568:3572   */\n      0x20\n        /* \"#utility.yul\":3563:3566   */\n      dup3\n        /* \"#utility.yul\":3559:3573   */\n      add\n        /* \"#utility.yul\":3551:3573   */\n      swap1\n      pop\n        /* \"#utility.yul\":3466:3579   */\n      swap2\n      swap1\n      pop\n      jump\t// out\n        /* \"#utility.yul\":3615:4347   */\n    tag_204:\n        /* \"#utility.yul\":3734:3737   */\n      0x00\n        /* \"#utility.yul\":3763:3817   */\n      tag_268\n        /* \"#utility.yul\":3811:3816   */\n      dup3\n        /* \"#utility.yul\":3763:3817   */\n      tag_198\n      jump\t// in\n    tag_268:\n        /* \"#utility.yul\":3833:3919   */\n      tag_269\n        /* \"#utility.yul\":3912:3918   */\n      dup2\n        /* \"#utility.yul\":3907:3910   */\n      dup6\n        /* \"#utility.yul\":3833:3919   */\n      tag_199\n      jump\t// in\n    tag_269:\n        /* \"#utility.yul\":3826:3919   */\n      swap4\n      pop\n        /* \"#utility.yul\":3943:3999   */\n      tag_270\n        /* \"#utility.yul\":3993:3998   */\n      dup4\n        /* \"#utility.yul\":3943:3999   */\n      tag_200\n      jump\t// in\n    tag_270:\n        /* \"#utility.yul\":4022:4029   */\n      dup1\n        /* \"#utility.yul\":4053:4054   */\n      0x00\n        /* \"#utility.yul\":4038:4322   */\n    tag_271:\n        /* \"#utility.yul\":4063:4069   */\n      dup4\n        /* \"#utility.yul\":4060:4061   */\n      dup2\n        /* \"#utility.yul\":4057:4070   */\n      lt\n        /* \"#utility.yul\":4038:4322   */\n      iszero\n      tag_273\n      jumpi\n        /* \"#utility.yul\":4139:4145   */\n      dup2\n        /* \"#utility.yul\":4133:4146   */\n      mload\n        /* \"#utility.yul\":4166:4229   */\n      tag_274\n        /* \"#utility.yul\":4225:4228   */\n      dup9\n        /* \"#utility.yul\":4210:4223   */\n      dup3\n        /* \"#utility.yul\":4166:4229   */\n      tag_202\n      jump\t// in\n    tag_274:\n        /* \"#utility.yul\":4159:4229   */\n      swap8\n      pop\n        /* \"#utility.yul\":4252:4312   */\n      tag_275\n        /* \"#utility.yul\":4305:4311   */\n      dup4\n        /* \"#utility.yul\":4252:4312   */\n      tag_203\n      jump\t// in\n    tag_275:\n        /* \"#utility.yul\":4242:4312   */\n      swap3\n      pop\n        /* \"#utility.yul\":4098:4322   */\n      pop\n        /* \"#utility.yul\":4085:4086   */\n      0x01\n        /* \"#utility.yul\":4082:4083   */\n      dup2\n        /* \"#utility.yul\":4078:4087   */\n      add\n        /* \"#utility.yul\":4073:4087   */\n      swap1\n      pop\n        /* \"#utility.yul\":4038:4322   */\n      jump(tag_271)\n    tag_273:\n        /* \"#utility.yul\":4042:4056   */\n      pop\n        /* \"#utility.yul\":4338:4341   */\n      dup6\n        /* \"#utility.yul\":4331:4341   */\n      swap4\n      pop\n        /* \"#utility.yul\":3739:4347   */\n      pop\n      pop\n      pop\n        /* \"#utility.yul\":3615:4347   */\n      swap3\n      swap2\n      pop\n      pop\n      jump\t// out\n        /* \"#utility.yul\":4353:4726   */\n    tag_51:\n        /* \"#utility.yul\":4496:4500   */\n      0x00\n        /* \"#utility.yul\":4534:4536   */\n      0x20\n        /* \"#utility.yul\":4523:4532   */\n      dup3\n        /* \"#utility.yul\":4519:4537   */\n      add\n        /* \"#utility.yul\":4511:4537   */\n      swap1\n      pop\n        /* \"#utility.yul\":4583:4592   */\n      dup2\n        /* \"#utility.yul\":4577:4581   */\n      dup2\n        /* \"#utility.yul\":4573:4593   */\n      sub\n        /* \"#utility.yul\":4569:4570   */\n      0x00\n        /* \"#utility.yul\":4558:4567   */\n      dup4\n        /* \"#utility.yul\":4554:4571   */\n      add\n        /* \"#utility.yul\":4547:4594   */\n      mstore\n        /* \"#utility.yul\":4611:4719   */\n      tag_277\n        /* \"#utility.yul\":4714:4718   */\n      dup2\n        /* \"#utility.yul\":4705:4711   */\n      dup5\n        /* \"#utility.yul\":4611:4719   */\n      tag_204\n      jump\t// in\n    tag_277:\n        /* \"#utility.yul\":4603:4719   */\n      swap1\n      pop\n        /* \"#utility.yul\":4353:4726   */\n      swap3\n      swap2\n      pop\n      pop\n      jump\t// out\n        /* \"#utility.yul\":4732:4849   */\n    tag_205:\n        /* \"#utility.yul\":4841:4842   */\n      0x00\n        /* \"#utility.yul\":4838:4839   */\n      dup1\n        /* \"#utility.yul\":4831:4843   */\n      revert\n        /* \"#utility.yul\":4855:4972   */\n    tag_206:\n        /* \"#utility.yul\":4964:4965   */\n      0x00\n        /* \"#utility.yul\":4961:4962   */\n      dup1\n        /* \"#utility.yul\":4954:4966   */\n      revert\n        /* \"#utility.yul\":4978:5158   */\n    tag_207:\n        /* \"#utility.yul\":5026:5103   */\n      0x4e487b7100000000000000000000000000000000000000000000000000000000\n        /* \"#utility.yul\":5023:5024   */\n      0x00\n        /* \"#utility.yul\":5016:5104   */\n      mstore\n        /* \"#utility.yul\":5123:5127   */\n      0x41\n        /* \"#utility.yul\":5120:5121   */\n      0x04\n        /* \"#utility.yul\":5113:5128   */\n      mstore\n        /* \"#utility.yul\":5147:5151   */\n      0x24\n        /* \"#utility.yul\":5144:5145   */\n      0x00\n        /* \"#utility.yul\":5137:5152   */\n      revert\n        /* \"#utility.yul\":5164:5445   */\n    tag_208:\n        /* \"#utility.yul\":5247:5274   */\n      tag_282\n        /* \"#utility.yul\":5269:5273   */\n      dup3\n        /* \"#utility.yul\":5247:5274   */\n      tag_196\n      jump\t// in\n    tag_282:\n        /* \"#utility.yul\":5239:5245   */\n      dup2\n        /* \"#utility.yul\":5235:5275   */\n      add\n        /* \"#utility.yul\":5377:5383   */\n      dup2\n        /* \"#utility.yul\":5365:5375   */\n      dup2\n        /* \"#utility.yul\":5362:5384   */\n      lt\n        /* \"#utility.yul\":5341:5359   */\n      0xffffffffffffffff\n        /* \"#utility.yul\":5329:5339   */\n      dup3\n        /* \"#utility.yul\":5326:5360   */\n      gt\n        /* \"#utility.yul\":5323:5385   */\n      or\n        /* \"#utility.yul\":5320:5408   */\n      iszero\n      tag_283\n      jumpi\n        /* \"#utility.yul\":5388:5406   */\n      tag_284\n      tag_207\n      jump\t// in\n    tag_284:\n        /* \"#utility.yul\":5320:5408   */\n    tag_283:\n        /* \"#utility.yul\":5428:5438   */\n      dup1\n        /* \"#utility.yul\":5424:5426   */\n      0x40\n        /* \"#utility.yul\":5417:5439   */\n      mstore\n        /* \"#utility.yul\":5207:5445   */\n      pop\n        /* \"#utility.yul\":5164:5445   */\n      pop\n      pop\n      jump\t// out\n        /* \"#utility.yul\":5451:5580   */\n    tag_209:\n        /* \"#utility.yul\":5485:5491   */\n      0x00\n        /* \"#utility.yul\":5512:5532   */\n      tag_286\n      tag_188\n      jump\t// in\n    tag_286:\n        /* \"#utility.yul\":5502:5532   */\n      swap1\n      pop\n        /* \"#utility.yul\":5541:5574   */\n      tag_287\n        /* \"#utility.yul\":5569:5573   */\n      dup3\n        /* \"#utility.yul\":5561:5567   */\n      dup3\n        /* \"#utility.yul\":5541:5574   */\n      tag_208\n      jump\t// in\n    tag_287:\n        /* \"#utility.yul\":5451:5580   */\n      swap2\n      swap1\n      pop\n      jump\t// out\n        /* \"#utility.yul\":5586:5894   */\n    tag_210:\n        /* \"#utility.yul\":5648:5652   */\n      0x00\n        /* \"#utility.yul\":5738:5756   */\n      0xffffffffffffffff\n        /* \"#utility.yul\":5730:5736   */\n      dup3\n        /* \"#utility.yul\":5727:5757   */\n      gt\n        /* \"#utility.yul\":5724:5780   */\n      iszero\n      tag_289\n      jumpi\n        /* \"#utility.yul\":5760:5778   */\n      tag_290\n      tag_207\n      jump\t// in\n    tag_290:\n        /* \"#utility.yul\":5724:5780   */\n    tag_289:\n        /* \"#utility.yul\":5798:5827   */\n      tag_291\n        /* \"#utility.yul\":5820:5826   */\n      dup3\n        /* \"#utility.yul\":5798:5827   */\n      tag_196\n      jump\t// in\n    tag_291:\n        /* \"#utility.yul\":5790:5827   */\n      swap1\n      pop\n        /* \"#utility.yul\":5882:5886   */\n      0x20\n        /* \"#utility.yul\":5876:5880   */\n      dup2\n        /* \"#utility.yul\":5872:5887   */\n      add\n        /* \"#utility.yul\":5864:5887   */\n      swap1\n      pop\n        /* \"#utility.yul\":5586:5894   */\n      swap2\n      swap1\n      pop\n      jump\t// out\n        /* \"#utility.yul\":5900:6046   */\n    tag_211:\n        /* \"#utility.yul\":5997:6003   */\n      dup3\n        /* \"#utility.yul\":5992:5995   */\n      dup2\n        /* \"#utility.yul\":5987:5990   */\n      dup4\n        /* \"#utility.yul\":5974:6004   */\n      calldatacopy\n        /* \"#utility.yul\":6038:6039   */\n      0x00\n        /* \"#utility.yul\":6029:6035   */\n      dup4\n        /* \"#utility.yul\":6024:6027   */\n      dup4\n        /* \"#utility.yul\":6020:6036   */\n      add\n        /* \"#utility.yul\":6013:6040   */\n      mstore\n        /* \"#utility.yul\":5900:6046   */\n      pop\n      pop\n      pop\n      jump\t// out\n        /* \"#utility.yul\":6052:6477   */\n    tag_212:\n        /* \"#utility.yul\":6130:6135   */\n      0x00\n        /* \"#utility.yul\":6155:6221   */\n      tag_294\n        /* \"#utility.yul\":6171:6220   */\n      tag_295\n        /* \"#utility.yul\":6213:6219   */\n      dup5\n        /* \"#utility.yul\":6171:6220   */\n      tag_210\n      jump\t// in\n    tag_295:\n        /* \"#utility.yul\":6155:6221   */\n      tag_209\n      jump\t// in\n    tag_294:\n        /* \"#utility.yul\":6146:6221   */\n      swap1\n      pop\n        /* \"#utility.yul\":6244:6250   */\n      dup3\n        /* \"#utility.yul\":6237:6242   */\n      dup2\n        /* \"#utility.yul\":6230:6251   */\n      mstore\n        /* \"#utility.yul\":6282:6286   */\n      0x20\n        /* \"#utility.yul\":6275:6280   */\n      dup2\n        /* \"#utility.yul\":6271:6287   */\n      add\n        /* \"#utility.yul\":6320:6323   */\n      dup5\n        /* \"#utility.yul\":6311:6317   */\n      dup5\n        /* \"#utility.yul\":6306:6309   */\n      dup5\n        /* \"#utility.yul\":6302:6318   */\n      add\n        /* \"#utility.yul\":6299:6324   */\n      gt\n        /* \"#utility.yul\":6296:6408   */\n      iszero\n      tag_296\n      jumpi\n        /* \"#utility.yul\":6327:6406   */\n      tag_297\n      tag_206\n      jump\t// in\n    tag_297:\n        /* \"#utility.yul\":6296:6408   */\n    tag_296:\n        /* \"#utility.yul\":6417:6471   */\n      tag_298\n        /* \"#utility.yul\":6464:6470   */\n      dup5\n        /* \"#utility.yul\":6459:6462   */\n      dup3\n        /* \"#utility.yul\":6454:6457   */\n      dup6\n        /* \"#utility.yul\":6417:6471   */\n      tag_211\n      jump\t// in\n    tag_298:\n        /* \"#utility.yul\":6136:6477   */\n      pop\n        /* \"#utility.yul\":6052:6477   */\n      swap4\n      swap3\n      pop\n      pop\n      pop\n      jump\t// out\n        /* \"#utility.yul\":6497:6837   */\n    tag_213:\n        /* \"#utility.yul\":6553:6558   */\n      0x00\n        /* \"#utility.yul\":6602:6605   */\n      dup3\n        /* \"#utility.yul\":6595:6599   */\n      0x1f\n        /* \"#utility.yul\":6587:6593   */\n      dup4\n        /* \"#utility.yul\":6583:6600   */\n      add\n        /* \"#utility.yul\":6579:6606   */\n      slt\n        /* \"#utility.yul\":6569:6691   */\n      tag_300\n      jumpi\n        /* \"#utility.yul\":6610:6689   */\n      tag_301\n      tag_205\n      jump\t// in\n    tag_301:\n        /* \"#utility.yul\":6569:6691   */\n    tag_300:\n        /* \"#utility.yul\":6727:6733   */\n      dup2\n        /* \"#utility.yul\":6714:6734   */\n      calldataload\n        /* \"#utility.yul\":6752:6831   */\n      tag_302\n        /* \"#utility.yul\":6827:6830   */\n      dup5\n        /* \"#utility.yul\":6819:6825   */\n      dup3\n        /* \"#utility.yul\":6812:6816   */\n      0x20\n        /* \"#utility.yul\":6804:6810   */\n      dup7\n        /* \"#utility.yul\":6800:6817   */\n      add\n        /* \"#utility.yul\":6752:6831   */\n      tag_212\n      jump\t// in\n    tag_302:\n        /* \"#utility.yul\":6743:6831   */\n      swap2\n      pop\n        /* \"#utility.yul\":6559:6837   */\n      pop\n        /* \"#utility.yul\":6497:6837   */\n      swap3\n      swap2\n      pop\n      pop\n      jump\t// out\n        /* \"#utility.yul\":6843:7677   */\n    tag_67:\n        /* \"#utility.yul\":6931:6937   */\n      0x00\n        /* \"#utility.yul\":6939:6945   */\n      dup1\n        /* \"#utility.yul\":6988:6990   */\n      0x40\n        /* \"#utility.yul\":6976:6985   */\n      dup4\n        /* \"#utility.yul\":6967:6974   */\n      dup6\n        /* \"#utility.yul\":6963:6986   */\n      sub\n        /* \"#utility.yul\":6959:6991   */\n      slt\n        /* \"#utility.yul\":6956:7075   */\n      iszero\n      tag_304\n      jumpi\n        /* \"#utility.yul\":6994:7073   */\n      tag_305\n      tag_189\n      jump\t// in\n    tag_305:\n        /* \"#utility.yul\":6956:7075   */\n    tag_304:\n        /* \"#utility.yul\":7142:7143   */\n      0x00\n        /* \"#utility.yul\":7131:7140   */\n      dup4\n        /* \"#utility.yul\":7127:7144   */\n      add\n        /* \"#utility.yul\":7114:7145   */\n      calldataload\n        /* \"#utility.yul\":7172:7190   */\n      0xffffffffffffffff\n        /* \"#utility.yul\":7164:7170   */\n      dup2\n        /* \"#utility.yul\":7161:7191   */\n      gt\n        /* \"#utility.yul\":7158:7275   */\n      iszero\n      tag_306\n      jumpi\n        /* \"#utility.yul\":7194:7273   */\n      tag_307\n      tag_190\n      jump\t// in\n    tag_307:\n        /* \"#utility.yul\":7158:7275   */\n    tag_306:\n        /* \"#utility.yul\":7299:7362   */\n      tag_308\n        /* \"#utility.yul\":7354:7361   */\n      dup6\n        /* \"#utility.yul\":7345:7351   */\n      dup3\n        /* \"#utility.yul\":7334:7343   */\n      dup7\n        /* \"#utility.yul\":7330:7352   */\n      add\n        /* \"#utility.yul\":7299:7362   */\n      tag_213\n      jump\t// in\n    tag_308:\n        /* \"#utility.yul\":7289:7362   */\n      swap3\n      pop\n        /* \"#utility.yul\":7085:7372   */\n      pop\n        /* \"#utility.yul\":7439:7441   */\n      0x20\n        /* \"#utility.yul\":7428:7437   */\n      dup4\n        /* \"#utility.yul\":7424:7442   */\n      add\n        /* \"#utility.yul\":7411:7443   */\n      calldataload\n        /* \"#utility.yul\":7470:7488   */\n      0xffffffffffffffff\n        /* \"#utility.yul\":7462:7468   */\n      dup2\n        /* \"#utility.yul\":7459:7489   */\n      gt\n        /* \"#utility.yul\":7456:7573   */\n      iszero\n      tag_309\n      jumpi\n        /* \"#utility.yul\":7492:7571   */\n      tag_310\n      tag_190\n      jump\t// in\n    tag_310:\n        /* \"#utility.yul\":7456:7573   */\n    tag_309:\n        /* \"#utility.yul\":7597:7660   */\n      tag_311\n        /* \"#utility.yul\":7652:7659   */\n      dup6\n        /* \"#utility.yul\":7643:7649   */\n      dup3\n        /* \"#utility.yul\":7632:7641   */\n      dup7\n        /* \"#utility.yul\":7628:7650   */\n      add\n        /* \"#utility.yul\":7597:7660   */\n      tag_213\n      jump\t// in\n    tag_311:\n        /* \"#utility.yul\":7587:7660   */\n      swap2\n      pop\n        /* \"#utility.yul\":7382:7670   */\n      pop\n        /* \"#utility.yul\":6843:7677   */\n      swap3\n      pop\n      swap3\n      swap1\n      pop\n      jump\t// out\n        /* \"#utility.yul\":7683:7773   */\n    tag_214:\n        /* \"#utility.yul\":7717:7724   */\n      0x00\n        /* \"#utility.yul\":7760:7765   */\n      dup2\n        /* \"#utility.yul\":7753:7766   */\n      iszero\n        /* \"#utility.yul\":7746:7767   */\n      iszero\n        /* \"#utility.yul\":7735:7767   */\n      swap1\n      pop\n        /* \"#utility.yul\":7683:7773   */\n      swap2\n      swap1\n      pop\n      jump\t// out\n        /* \"#utility.yul\":7779:7888   */\n    tag_215:\n        /* \"#utility.yul\":7860:7881   */\n      tag_314\n        /* \"#utility.yul\":7875:7880   */\n      dup2\n        /* \"#utility.yul\":7860:7881   */\n      tag_214\n      jump\t// in\n    tag_314:\n        /* \"#utility.yul\":7855:7858   */\n      dup3\n        /* \"#utility.yul\":7848:7882   */\n      mstore\n        /* \"#utility.yul\":7779:7888   */\n      pop\n      pop\n      jump\t// out\n        /* \"#utility.yul\":7894:8104   */\n    tag_70:\n        /* \"#utility.yul\":7981:7985   */\n      0x00\n        /* \"#utility.yul\":8019:8021   */\n      0x20\n        /* \"#utility.yul\":8008:8017   */\n      dup3\n        /* \"#utility.yul\":8004:8022   */\n      add\n        /* \"#utility.yul\":7996:8022   */\n      swap1\n      pop\n        /* \"#utility.yul\":8032:8097   */\n      tag_316\n        /* \"#utility.yul\":8094:8095   */\n      0x00\n        /* \"#utility.yul\":8083:8092   */\n      dup4\n        /* \"#utility.yul\":8079:8096   */\n      add\n        /* \"#utility.yul\":8070:8076   */\n      dup5\n        /* \"#utility.yul\":8032:8097   */\n      tag_215\n      jump\t// in\n    tag_316:\n        /* \"#utility.yul\":7894:8104   */\n      swap3\n      swap2\n      pop\n      pop\n      jump\t// out\n        /* \"#utility.yul\":8110:8290   */\n    tag_216:\n        /* \"#utility.yul\":8250:8282   */\n      0x4572726f723a2043616e277420696e707574206d6f7265207468616e20330000\n        /* \"#utility.yul\":8246:8247   */\n      0x00\n        /* \"#utility.yul\":8238:8244   */\n      dup3\n        /* \"#utility.yul\":8234:8248   */\n      add\n        /* \"#utility.yul\":8227:8283   */\n      mstore\n        /* \"#utility.yul\":8110:8290   */\n      pop\n      jump\t// out\n        /* \"#utility.yul\":8296:8662   */\n    tag_217:\n        /* \"#utility.yul\":8438:8441   */\n      0x00\n        /* \"#utility.yul\":8459:8526   */\n      tag_319\n        /* \"#utility.yul\":8523:8525   */\n      0x1e\n        /* \"#utility.yul\":8518:8521   */\n      dup4\n        /* \"#utility.yul\":8459:8526   */\n      tag_194\n      jump\t// in\n    tag_319:\n        /* \"#utility.yul\":8452:8526   */\n      swap2\n      pop\n        /* \"#utility.yul\":8535:8628   */\n      tag_320\n        /* \"#utility.yul\":8624:8627   */\n      dup3\n        /* \"#utility.yul\":8535:8628   */\n      tag_216\n      jump\t// in\n    tag_320:\n        /* \"#utility.yul\":8653:8655   */\n      0x20\n        /* \"#utility.yul\":8648:8651   */\n      dup3\n        /* \"#utility.yul\":8644:8656   */\n      add\n        /* \"#utility.yul\":8637:8656   */\n      swap1\n      pop\n        /* \"#utility.yul\":8296:8662   */\n      swap2\n      swap1\n      pop\n      jump\t// out\n        /* \"#utility.yul\":8668:9087   */\n    tag_77:\n        /* \"#utility.yul\":8834:8838   */\n      0x00\n        /* \"#utility.yul\":8872:8874   */\n      0x20\n        /* \"#utility.yul\":8861:8870   */\n      dup3\n        /* \"#utility.yul\":8857:8875   */\n      add\n        /* \"#utility.yul\":8849:8875   */\n      swap1\n      pop\n        /* \"#utility.yul\":8921:8930   */\n      dup2\n        /* \"#utility.yul\":8915:8919   */\n      dup2\n        /* \"#utility.yul\":8911:8931   */\n      sub\n        /* \"#utility.yul\":8907:8908   */\n      0x00\n        /* \"#utility.yul\":8896:8905   */\n      dup4\n        /* \"#utility.yul\":8892:8909   */\n      add\n        /* \"#utility.yul\":8885:8932   */\n      mstore\n        /* \"#utility.yul\":8949:9080   */\n      tag_322\n        /* \"#utility.yul\":9075:9079   */\n      dup2\n        /* \"#utility.yul\":8949:9080   */\n      tag_217\n      jump\t// in\n    tag_322:\n        /* \"#utility.yul\":8941:9080   */\n      swap1\n      pop\n        /* \"#utility.yul\":8668:9087   */\n      swap2\n      swap1\n      pop\n      jump\t// out\n        /* \"#utility.yul\":9093:9273   */\n    tag_218:\n        /* \"#utility.yul\":9141:9218   */\n      0x4e487b7100000000000000000000000000000000000000000000000000000000\n        /* \"#utility.yul\":9138:9139   */\n      0x00\n        /* \"#utility.yul\":9131:9219   */\n      mstore\n        /* \"#utility.yul\":9238:9242   */\n      0x11\n        /* \"#utility.yul\":9235:9236   */\n      0x04\n        /* \"#utility.yul\":9228:9243   */\n      mstore\n        /* \"#utility.yul\":9262:9266   */\n      0x24\n        /* \"#utility.yul\":9259:9260   */\n      0x00\n        /* \"#utility.yul\":9252:9267   */\n      revert\n        /* \"#utility.yul\":9279:9512   */\n    tag_100:\n        /* \"#utility.yul\":9318:9321   */\n      0x00\n        /* \"#utility.yul\":9341:9365   */\n      tag_325\n        /* \"#utility.yul\":9359:9364   */\n      dup3\n        /* \"#utility.yul\":9341:9365   */\n      tag_186\n      jump\t// in\n    tag_325:\n        /* \"#utility.yul\":9332:9365   */\n      swap2\n      pop\n        /* \"#utility.yul\":9387:9453   */\n      0xffffffffffffffffffffffffffffffffffffffffffffffffffffffffffffffff\n        /* \"#utility.yul\":9380:9385   */\n      dup3\n        /* \"#utility.yul\":9377:9454   */\n      sub\n        /* \"#utility.yul\":9374:9477   */\n      tag_326\n      jumpi\n        /* \"#utility.yul\":9457:9475   */\n      tag_327\n      tag_218\n      jump\t// in\n    tag_327:\n        /* \"#utility.yul\":9374:9477   */\n    tag_326:\n        /* \"#utility.yul\":9504:9505   */\n      0x01\n        /* \"#utility.yul\":9497:9502   */\n      dup3\n        /* \"#utility.yul\":9493:9506   */\n      add\n        /* \"#utility.yul\":9486:9506   */\n      swap1\n      pop\n        /* \"#utility.yul\":9279:9512   */\n      swap2\n      swap1\n      pop\n      jump\t// out\n        /* \"#utility.yul\":9518:9698   */\n    tag_106:\n        /* \"#utility.yul\":9566:9643   */\n      0x4e487b7100000000000000000000000000000000000000000000000000000000\n        /* \"#utility.yul\":9563:9564   */\n      0x00\n        /* \"#utility.yul\":9556:9644   */\n      mstore\n        /* \"#utility.yul\":9663:9667   */\n      0x32\n        /* \"#utility.yul\":9660:9661   */\n      0x04\n        /* \"#utility.yul\":9653:9668   */\n      mstore\n        /* \"#utility.yul\":9687:9691   */\n      0x24\n        /* \"#utility.yul\":9684:9685   */\n      0x00\n        /* \"#utility.yul\":9677:9692   */\n      revert\n        /* \"#utility.yul\":9704:9852   */\n    tag_219:\n        /* \"#utility.yul\":9806:9817   */\n      0x00\n        /* \"#utility.yul\":9843:9846   */\n      dup2\n        /* \"#utility.yul\":9828:9846   */\n      swap1\n      pop\n        /* \"#utility.yul\":9704:9852   */\n      swap3\n      swap2\n      pop\n      pop\n      jump\t// out\n        /* \"#utility.yul\":9858:10248   */\n    tag_220:\n        /* \"#utility.yul\":9964:9967   */\n      0x00\n        /* \"#utility.yul\":9992:10031   */\n      tag_331\n        /* \"#utility.yul\":10025:10030   */\n      dup3\n        /* \"#utility.yul\":9992:10031   */\n      tag_193\n      jump\t// in\n    tag_331:\n        /* \"#utility.yul\":10047:10136   */\n      tag_332\n        /* \"#utility.yul\":10129:10135   */\n      dup2\n        /* \"#utility.yul\":10124:10127   */\n      dup6\n        /* \"#utility.yul\":10047:10136   */\n      tag_219\n      jump\t// in\n    tag_332:\n        /* \"#utility.yul\":10040:10136   */\n      swap4\n      pop\n        /* \"#utility.yul\":10145:10210   */\n      tag_333\n        /* \"#utility.yul\":10203:10209   */\n      dup2\n        /* \"#utility.yul\":10198:10201   */\n      dup6\n        /* \"#utility.yul\":10191:10195   */\n      0x20\n        /* \"#utility.yul\":10184:10189   */\n      dup7\n        /* \"#utility.yul\":10180:10196   */\n      add\n        /* \"#utility.yul\":10145:10210   */\n      tag_195\n      jump\t// in\n    tag_333:\n        /* \"#utility.yul\":10235:10241   */\n      dup1\n        /* \"#utility.yul\":10230:10233   */\n      dup5\n        /* \"#utility.yul\":10226:10242   */\n      add\n        /* \"#utility.yul\":10219:10242   */\n      swap2\n      pop\n        /* \"#utility.yul\":9968:10248   */\n      pop\n        /* \"#utility.yul\":9858:10248   */\n      swap3\n      swap2\n      pop\n      pop\n      jump\t// out\n        /* \"#utility.yul\":10254:10529   */\n    tag_167:\n        /* \"#utility.yul\":10386:10389   */\n      0x00\n        /* \"#utility.yul\":10408:10503   */\n      tag_335\n        /* \"#utility.yul\":10499:10502   */\n      dup3\n        /* \"#utility.yul\":10490:10496   */\n      dup5\n        /* \"#utility.yul\":10408:10503   */\n      tag_220\n      jump\t// in\n    tag_335:\n        /* \"#utility.yul\":10401:10503   */\n      swap2\n      pop\n        /* \"#utility.yul\":10520:10523   */\n      dup2\n        /* \"#utility.yul\":10513:10523   */\n      swap1\n      pop\n        /* \"#utility.yul\":10254:10529   */\n      swap3\n      swap2\n      pop\n      pop\n      jump\t// out\n        /* \"#utility.yul\":10535:10729   */\n    tag_171:\n        /* \"#utility.yul\":10575:10579   */\n      0x00\n        /* \"#utility.yul\":10595:10615   */\n      tag_337\n        /* \"#utility.yul\":10613:10614   */\n      dup3\n        /* \"#utility.yul\":10595:10615   */\n      tag_186\n      jump\t// in\n    tag_337:\n        /* \"#utility.yul\":10590:10615   */\n      swap2\n      pop\n        /* \"#utility.yul\":10629:10649   */\n      tag_338\n        /* \"#utility.yul\":10647:10648   */\n      dup4\n        /* \"#utility.yul\":10629:10649   */\n      tag_186\n      jump\t// in\n    tag_338:\n        /* \"#utility.yul\":10624:10649   */\n      swap3\n      pop\n        /* \"#utility.yul\":10673:10674   */\n      dup3\n        /* \"#utility.yul\":10670:10671   */\n      dup3\n        /* \"#utility.yul\":10666:10675   */\n      sub\n        /* \"#utility.yul\":10658:10675   */\n      swap1\n      pop\n        /* \"#utility.yul\":10697:10698   */\n      dup2\n        /* \"#utility.yul\":10691:10695   */\n      dup2\n        /* \"#utility.yul\":10688:10699   */\n      gt\n        /* \"#utility.yul\":10685:10722   */\n      iszero\n      tag_339\n      jumpi\n        /* \"#utility.yul\":10702:10720   */\n      tag_340\n      tag_218\n      jump\t// in\n    tag_340:\n        /* \"#utility.yul\":10685:10722   */\n    tag_339:\n        /* \"#utility.yul\":10535:10729   */\n      swap3\n      swap2\n      pop\n      pop\n      jump\t// out\n        /* \"#utility.yul\":10735:10814   */\n    tag_221:\n        /* \"#utility.yul\":10774:10781   */\n      0x00\n        /* \"#utility.yul\":10803:10808   */\n      dup2\n        /* \"#utility.yul\":10792:10808   */\n      swap1\n      pop\n        /* \"#utility.yul\":10735:10814   */\n      swap2\n      swap1\n      pop\n      jump\t// out\n        /* \"#utility.yul\":10820:10977   */\n    tag_222:\n        /* \"#utility.yul\":10925:10970   */\n      tag_343\n        /* \"#utility.yul\":10945:10969   */\n      tag_344\n        /* \"#utility.yul\":10963:10968   */\n      dup3\n        /* \"#utility.yul\":10945:10969   */\n      tag_186\n      jump\t// in\n    tag_344:\n        /* \"#utility.yul\":10925:10970   */\n      tag_221\n      jump\t// in\n    tag_343:\n        /* \"#utility.yul\":10920:10923   */\n      dup3\n        /* \"#utility.yul\":10913:10971   */\n      mstore\n        /* \"#utility.yul\":10820:10977   */\n      pop\n      pop\n      jump\t// out\n        /* \"#utility.yul\":10983:11060   */\n    tag_223:\n        /* \"#utility.yul\":11020:11027   */\n      0x00\n        /* \"#utility.yul\":11049:11054   */\n      dup2\n        /* \"#utility.yul\":11038:11054   */\n      swap1\n      pop\n        /* \"#utility.yul\":10983:11060   */\n      swap2\n      swap1\n      pop\n      jump\t// out\n        /* \"#utility.yul\":11066:11145   */\n    tag_224:\n        /* \"#utility.yul\":11105:11112   */\n      0x00\n        /* \"#utility.yul\":11134:11139   */\n      dup2\n        /* \"#utility.yul\":11123:11139   */\n      swap1\n      pop\n        /* \"#utility.yul\":11066:11145   */\n      swap2\n      swap1\n      pop\n      jump\t// out\n        /* \"#utility.yul\":11151:11308   */\n    tag_225:\n        /* \"#utility.yul\":11256:11301   */\n      tag_348\n        /* \"#utility.yul\":11276:11300   */\n      tag_349\n        /* \"#utility.yul\":11294:11299   */\n      dup3\n        /* \"#utility.yul\":11276:11300   */\n      tag_223\n      jump\t// in\n    tag_349:\n        /* \"#utility.yul\":11256:11301   */\n      tag_224\n      jump\t// in\n    tag_348:\n        /* \"#utility.yul\":11251:11254   */\n      dup3\n        /* \"#utility.yul\":11244:11302   */\n      mstore\n        /* \"#utility.yul\":11151:11308   */\n      pop\n      pop\n      jump\t// out\n        /* \"#utility.yul\":11314:11852   */\n    tag_173:\n        /* \"#utility.yul\":11482:11485   */\n      0x00\n        /* \"#utility.yul\":11497:11572   */\n      tag_351\n        /* \"#utility.yul\":11568:11571   */\n      dup3\n        /* \"#utility.yul\":11559:11565   */\n      dup7\n        /* \"#utility.yul\":11497:11572   */\n      tag_222\n      jump\t// in\n    tag_351:\n        /* \"#utility.yul\":11597:11599   */\n      0x20\n        /* \"#utility.yul\":11592:11595   */\n      dup3\n        /* \"#utility.yul\":11588:11600   */\n      add\n        /* \"#utility.yul\":11581:11600   */\n      swap2\n      pop\n        /* \"#utility.yul\":11610:11685   */\n      tag_352\n        /* \"#utility.yul\":11681:11684   */\n      dup3\n        /* \"#utility.yul\":11672:11678   */\n      dup6\n        /* \"#utility.yul\":11610:11685   */\n      tag_222\n      jump\t// in\n    tag_352:\n        /* \"#utility.yul\":11710:11712   */\n      0x20\n        /* \"#utility.yul\":11705:11708   */\n      dup3\n        /* \"#utility.yul\":11701:11713   */\n      add\n        /* \"#utility.yul\":11694:11713   */\n      swap2\n      pop\n        /* \"#utility.yul\":11723:11798   */\n      tag_353\n        /* \"#utility.yul\":11794:11797   */\n      dup3\n        /* \"#utility.yul\":11785:11791   */\n      dup5\n        /* \"#utility.yul\":11723:11798   */\n      tag_225\n      jump\t// in\n    tag_353:\n        /* \"#utility.yul\":11823:11825   */\n      0x20\n        /* \"#utility.yul\":11818:11821   */\n      dup3\n        /* \"#utility.yul\":11814:11826   */\n      add\n        /* \"#utility.yul\":11807:11826   */\n      swap2\n      pop\n        /* \"#utility.yul\":11843:11846   */\n      dup2\n        /* \"#utility.yul\":11836:11846   */\n      swap1\n      pop\n        /* \"#utility.yul\":11314:11852   */\n      swap5\n      swap4\n      pop\n      pop\n      pop\n      pop\n      jump\t// out\n        /* \"#utility.yul\":11858:12255   */\n    tag_175:\n        /* \"#utility.yul\":11998:12001   */\n      0x00\n        /* \"#utility.yul\":12013:12088   */\n      tag_355\n        /* \"#utility.yul\":12084:12087   */\n      dup3\n        /* \"#utility.yul\":12075:12081   */\n      dup6\n        /* \"#utility.yul\":12013:12088   */\n      tag_222\n      jump\t// in\n    tag_355:\n        /* \"#utility.yul\":12113:12115   */\n      0x20\n        /* \"#utility.yul\":12108:12111   */\n      dup3\n        /* \"#utility.yul\":12104:12116   */\n      add\n        /* \"#utility.yul\":12097:12116   */\n      swap2\n      pop\n        /* \"#utility.yul\":12126:12201   */\n      tag_356\n        /* \"#utility.yul\":12197:12200   */\n      dup3\n        /* \"#utility.yul\":12188:12194   */\n      dup5\n        /* \"#utility.yul\":12126:12201   */\n      tag_222\n      jump\t// in\n    tag_356:\n        /* \"#utility.yul\":12226:12228   */\n      0x20\n        /* \"#utility.yul\":12221:12224   */\n      dup3\n        /* \"#utility.yul\":12217:12229   */\n      add\n        /* \"#utility.yul\":12210:12229   */\n      swap2\n      pop\n        /* \"#utility.yul\":12246:12249   */\n      dup2\n        /* \"#utility.yul\":12239:12249   */\n      swap1\n      pop\n        /* \"#utility.yul\":11858:12255   */\n      swap4\n      swap3\n      pop\n      pop\n      pop\n      jump\t// out\n        /* \"#utility.yul\":12261:12452   */\n    tag_177:\n        /* \"#utility.yul\":12301:12304   */\n      0x00\n        /* \"#utility.yul\":12320:12340   */\n      tag_358\n        /* \"#utility.yul\":12338:12339   */\n      dup3\n        /* \"#utility.yul\":12320:12340   */\n      tag_186\n      jump\t// in\n    tag_358:\n        /* \"#utility.yul\":12315:12340   */\n      swap2\n      pop\n        /* \"#utility.yul\":12354:12374   */\n      tag_359\n        /* \"#utility.yul\":12372:12373   */\n      dup4\n        /* \"#utility.yul\":12354:12374   */\n      tag_186\n      jump\t// in\n    tag_359:\n        /* \"#utility.yul\":12349:12374   */\n      swap3\n      pop\n        /* \"#utility.yul\":12397:12398   */\n      dup3\n        /* \"#utility.yul\":12394:12395   */\n      dup3\n        /* \"#utility.yul\":12390:12399   */\n      add\n        /* \"#utility.yul\":12383:12399   */\n      swap1\n      pop\n        /* \"#utility.yul\":12418:12421   */\n      dup1\n        /* \"#utility.yul\":12415:12416   */\n      dup3\n        /* \"#utility.yul\":12412:12422   */\n      gt\n        /* \"#utility.yul\":12409:12445   */\n      iszero\n      tag_360\n      jumpi\n        /* \"#utility.yul\":12425:12443   */\n      tag_361\n      tag_218\n      jump\t// in\n    tag_361:\n        /* \"#utility.yul\":12409:12445   */\n    tag_360:\n        /* \"#utility.yul\":12261:12452   */\n      swap3\n      swap2\n      pop\n      pop\n      jump\t// out\n        /* \"#utility.yul\":12458:12638   */\n    tag_226:\n        /* \"#utility.yul\":12506:12583   */\n      0x4e487b7100000000000000000000000000000000000000000000000000000000\n        /* \"#utility.yul\":12503:12504   */\n      0x00\n        /* \"#utility.yul\":12496:12584   */\n      mstore\n        /* \"#utility.yul\":12603:12607   */\n      0x12\n        /* \"#utility.yul\":12600:12601   */\n      0x04\n        /* \"#utility.yul\":12593:12608   */\n      mstore\n        /* \"#utility.yul\":12627:12631   */\n      0x24\n        /* \"#utility.yul\":12624:12625   */\n      0x00\n        /* \"#utility.yul\":12617:12632   */\n      revert\n        /* \"#utility.yul\":12644:12820   */\n    tag_179:\n        /* \"#utility.yul\":12676:12677   */\n      0x00\n        /* \"#utility.yul\":12693:12713   */\n      tag_364\n        /* \"#utility.yul\":12711:12712   */\n      dup3\n        /* \"#utility.yul\":12693:12713   */\n      tag_186\n      jump\t// in\n    tag_364:\n        /* \"#utility.yul\":12688:12713   */\n      swap2\n      pop\n        /* \"#utility.yul\":12727:12747   */\n      tag_365\n        /* \"#utility.yul\":12745:12746   */\n      dup4\n        /* \"#utility.yul\":12727:12747   */\n      tag_186\n      jump\t// in\n    tag_365:\n        /* \"#utility.yul\":12722:12747   */\n      swap3\n      pop\n        /* \"#utility.yul\":12766:12767   */\n      dup3\n        /* \"#utility.yul\":12756:12791   */\n      tag_366\n      jumpi\n        /* \"#utility.yul\":12771:12789   */\n      tag_367\n      tag_226\n      jump\t// in\n    tag_367:\n        /* \"#utility.yul\":12756:12791   */\n    tag_366:\n        /* \"#utility.yul\":12812:12813   */\n      dup3\n        /* \"#utility.yul\":12809:12810   */\n      dup3\n        /* \"#utility.yul\":12805:12814   */\n      mod\n        /* \"#utility.yul\":12800:12814   */\n      swap1\n      pop\n        /* \"#utility.yul\":12644:12820   */\n      swap3\n      swap2\n      pop\n      pop\n      jump\t// out\n\n    auxdata: 0xa264697066735822122081b95058e4b3172ee14f03b795243d806c3b0e380c1771c8fcb25d12a0a7b5c664736f6c63430008130033\n}\n",
				"bytecode": {
					"linkReferences": {},
					"object": "6080604052600160045534801561001557600080fd5b5061130a806100256000396000f3fe608060405234801561001057600080fd5b50600436106100ea5760003560e01c8063614b37571161008c57806394227ea71161006657806394227ea714610275578063ba16286814610293578063bed34bba146102b1578063dbdff2c1146102e1576100ea565b8063614b3757146101f75780636898f82b146102275780636ca495e214610257576100ea565b806312220fe3116100c857806312220fe31461015b578063233a1a761461018b5780634028e0de146101bb57806358da9da8146101d9576100ea565b8063010711e3146100ef578063060aa4ce1461010d5780631123d9b11461012b575b600080fd5b6100f76102ff565b6040516101049190610bf5565b60405180910390f35b610115610305565b6040516101229190610bf5565b60405180910390f35b61014560048036038101906101409190610c50565b61030b565b6040516101529190610d0d565b60405180910390f35b61017560048036038101906101709190610c50565b6104c0565b6040516101829190610bf5565b60405180910390f35b6101a560048036038101906101a09190610c50565b6104e4565b6040516101b29190610bf5565b60405180910390f35b6101c3610508565b6040516101d09190610bf5565b60405180910390f35b6101e161050e565b6040516101ee9190610d0d565b60405180910390f35b610211600480360381019061020c9190610c50565b610807565b60405161021e9190610ded565b60405180910390f35b610241600480360381019061023c9190610c50565b6108d7565b60405161024e9190610d0d565b60405180910390f35b61025f610a35565b60405161026c9190610ded565b60405180910390f35b61027d610a8d565b60405161028a9190610bf5565b60405180910390f35b61029b610a93565b6040516102a89190610bf5565b60405180910390f35b6102cb60048036038101906102c69190610f44565b610a99565b6040516102d89190610fd7565b60405180910390f35b6102e9610af2565b6040516102f69190610bf5565b60405180910390f35b60005481565b60065481565b60606003821115610351576040517f08c379a00000000000000000000000000000000000000000000000000000000081526004016103489061103e565b60405180910390fd5b600061035b61050e565b9050600061039e6040518060400160405280600481526020017f546965640000000000000000000000000000000000000000000000000000000081525083610a99565b156103a857600190505b6103e76040518060400160405280600781526020017f596f752057696e0000000000000000000000000000000000000000000000000081525083610a99565b156103f157600290505b6104306040518060400160405280600881526020017f596f75204c6f736500000000000000000000000000000000000000000000000081525083610a99565b1561043a57600390505b838103610480576040518060400160405280601481526020017f596f7520677565737320697320636f7272656374000000000000000000000000815250925050506104bb565b6040518060400160405280601281526020017f596f752067756573732069732077726f6e670000000000000000000000000000815250925050505b919050565b600281815481106104d057600080fd5b906000526020600020016000915090505481565b600381815481106104f457600080fd5b906000526020600020016000915090505481565b60015481565b60606003600061051e9190610b9e565b60006007819055506000600681905550600060058190555060005b600280549050811015610589576003610550610af2565b908060018154018082558091505060019003906000526020600020016000909190919091505580806105819061108d565b915050610539565b5060005b60028054905081101561073957600381815481106105ae576105ad6110d5565b5b9060005260206000200154600282815481106105cd576105cc6110d5565b5b9060005260206000200154036105fa57600760008154809291906105f09061108d565b9190505550610726565b6001600282815481106106105761060f6110d5565b5b90600052602060002001541480156106465750600260038281548110610639576106386110d5565b5b9060005260206000200154145b806106995750600360028281548110610662576106616110d5565b5b9060005260206000200154148015610698575060016003828154811061068b5761068a6110d5565b5b9060005260206000200154145b5b806106ea575060028082815481106106b4576106b36110d5565b5b90600052602060002001541480156106e9575060038082815481106106dc576106db6110d5565b5b9060005260206000200154145b5b1561070c57600660008154809291906107029061108d565b9190505550610725565b6005600081548092919061071f9061108d565b91905055505b5b80806107319061108d565b91505061058d565b5060065460055403610782576040518060400160405280600481526020017f54696564000000000000000000000000000000000000000000000000000000008152509050610804565b60065460055411156107cb576040518060400160405280600781526020017f596f752057696e000000000000000000000000000000000000000000000000008152509050610804565b6040518060400160405280600881526020017f596f75204c6f736500000000000000000000000000000000000000000000000081525090505b90565b6060600382111561084d576040517f08c379a00000000000000000000000000000000000000000000000000000000081526004016108449061103e565b60405180910390fd5b816001819055506002600154908060018154018082558091505060019003906000526020600020016000909190919091505560028054806020026020016040519081016040528092919081815260200182805480156108cb57602002820191906000526020600020905b8154815260200190600101908083116108b7575b50505050509050919050565b606060006108e3610af2565b9050806000819055506003831115610930576040517f08c379a00000000000000000000000000000000000000000000000000000000081526004016109279061103e565b60405180910390fd5b808303610975576040518060400160405280600481526020017f5469656400000000000000000000000000000000000000000000000000000000815250915050610a30565b6001831480156109855750600281145b8061099c575060038314801561099b5750600181145b5b806109b357506002831480156109b25750600381145b5b156109f6576040518060400160405280600881526020017f596f75206c6f7365000000000000000000000000000000000000000000000000815250915050610a30565b6040518060400160405280600781526020017f596f7520776f6e000000000000000000000000000000000000000000000000008152509150505b919050565b60606003805480602002602001604051908101604052809291908181526020018280548015610a8357602002820191906000526020600020905b815481526020019060010190808311610a6f575b5050505050905090565b60075481565b60055481565b600081604051602001610aac9190611140565b6040516020818303038152906040528051906020012083604051602001610ad39190611140565b6040516020818303038152906040528051906020012014905092915050565b6000804244600143610b049190611157565b40604051602001610b17939291906111d7565b6040516020818303038152906040528051906020012060001c9050600081600454604051602001610b49929190611214565b6040516020818303038152906040528051906020012060001c9050600160046000828254610b779190611240565b925050819055506001600382610b8d91906112a3565b610b979190611240565b9250505090565b5080546000825590600052602060002090810190610bbc9190610bbf565b50565b5b80821115610bd8576000816000905550600101610bc0565b5090565b6000819050919050565b610bef81610bdc565b82525050565b6000602082019050610c0a6000830184610be6565b92915050565b6000604051905090565b600080fd5b600080fd5b610c2d81610bdc565b8114610c3857600080fd5b50565b600081359050610c4a81610c24565b92915050565b600060208284031215610c6657610c65610c1a565b5b6000610c7484828501610c3b565b91505092915050565b600081519050919050565b600082825260208201905092915050565b60005b83811015610cb7578082015181840152602081019050610c9c565b60008484015250505050565b6000601f19601f8301169050919050565b6000610cdf82610c7d565b610ce98185610c88565b9350610cf9818560208601610c99565b610d0281610cc3565b840191505092915050565b60006020820190508181036000830152610d278184610cd4565b905092915050565b600081519050919050565b600082825260208201905092915050565b6000819050602082019050919050565b610d6481610bdc565b82525050565b6000610d768383610d5b565b60208301905092915050565b6000602082019050919050565b6000610d9a82610d2f565b610da48185610d3a565b9350610daf83610d4b565b8060005b83811015610de0578151610dc78882610d6a565b9750610dd283610d82565b925050600181019050610db3565b5085935050505092915050565b60006020820190508181036000830152610e078184610d8f565b905092915050565b600080fd5b600080fd5b7f4e487b7100000000000000000000000000000000000000000000000000000000600052604160045260246000fd5b610e5182610cc3565b810181811067ffffffffffffffff82111715610e7057610e6f610e19565b5b80604052505050565b6000610e83610c10565b9050610e8f8282610e48565b919050565b600067ffffffffffffffff821115610eaf57610eae610e19565b5b610eb882610cc3565b9050602081019050919050565b82818337600083830152505050565b6000610ee7610ee284610e94565b610e79565b905082815260208101848484011115610f0357610f02610e14565b5b610f0e848285610ec5565b509392505050565b600082601f830112610f2b57610f2a610e0f565b5b8135610f3b848260208601610ed4565b91505092915050565b60008060408385031215610f5b57610f5a610c1a565b5b600083013567ffffffffffffffff811115610f7957610f78610c1f565b5b610f8585828601610f16565b925050602083013567ffffffffffffffff811115610fa657610fa5610c1f565b5b610fb285828601610f16565b9150509250929050565b60008115159050919050565b610fd181610fbc565b82525050565b6000602082019050610fec6000830184610fc8565b92915050565b7f4572726f723a2043616e277420696e707574206d6f7265207468616e20330000600082015250565b6000611028601e83610c88565b915061103382610ff2565b602082019050919050565b600060208201905081810360008301526110578161101b565b9050919050565b7f4e487b7100000000000000000000000000000000000000000000000000000000600052601160045260246000fd5b600061109882610bdc565b91507fffffffffffffffffffffffffffffffffffffffffffffffffffffffffffffffff82036110ca576110c961105e565b5b600182019050919050565b7f4e487b7100000000000000000000000000000000000000000000000000000000600052603260045260246000fd5b600081905092915050565b600061111a82610c7d565b6111248185611104565b9350611134818560208601610c99565b80840191505092915050565b600061114c828461110f565b915081905092915050565b600061116282610bdc565b915061116d83610bdc565b92508282039050818111156111855761118461105e565b5b92915050565b6000819050919050565b6111a66111a182610bdc565b61118b565b82525050565b6000819050919050565b6000819050919050565b6111d16111cc826111ac565b6111b6565b82525050565b60006111e38286611195565b6020820191506111f38285611195565b60208201915061120382846111c0565b602082019150819050949350505050565b60006112208285611195565b6020820191506112308284611195565b6020820191508190509392505050565b600061124b82610bdc565b915061125683610bdc565b925082820190508082111561126e5761126d61105e565b5b92915050565b7f4e487b7100000000000000000000000000000000000000000000000000000000600052601260045260246000fd5b60006112ae82610bdc565b91506112b983610bdc565b9250826112c9576112c8611274565b5b82820690509291505056fea264697066735822122081b95058e4b3172ee14f03b795243d806c3b0e380c1771c8fcb25d12a0a7b5c664736f6c63430008130033",
					"opcodes": "PUSH1 0x80 PUSH1 0x40 MSTORE PUSH1 0x1 PUSH1 0x4 SSTORE CALLVALUE DUP1 ISZERO PUSH2 0x15 JUMPI PUSH1 0x0 DUP1 REVERT JUMPDEST POP PUSH2 0x130A DUP1 PUSH2 0x25 PUSH1 0x0 CODECOPY PUSH1 0x0 RETURN INVALID PUSH1 0x80 PUSH1 0x40 MSTORE CALLVALUE DUP1 ISZERO PUSH2 0x10 JUMPI PUSH1 0x0 DUP1 REVERT JUMPDEST POP PUSH1 0x4 CALLDATASIZE LT PUSH2 0xEA JUMPI PUSH1 0x0 CALLDATALOAD PUSH1 0xE0 SHR DUP1 PUSH4 0x614B3757 GT PUSH2 0x8C JUMPI DUP1 PUSH4 0x94227EA7 GT PUSH2 0x66 JUMPI DUP1 PUSH4 0x94227EA7 EQ PUSH2 0x275 JUMPI DUP1 PUSH4 0xBA162868 EQ PUSH2 0x293 JUMPI DUP1 PUSH4 0xBED34BBA EQ PUSH2 0x2B1 JUMPI DUP1 PUSH4 0xDBDFF2C1 EQ PUSH2 0x2E1 JUMPI PUSH2 0xEA JUMP JUMPDEST DUP1 PUSH4 0x614B3757 EQ PUSH2 0x1F7 JUMPI DUP1 PUSH4 0x6898F82B EQ PUSH2 0x227 JUMPI DUP1 PUSH4 0x6CA495E2 EQ PUSH2 0x257 JUMPI PUSH2 0xEA JUMP JUMPDEST DUP1 PUSH4 0x12220FE3 GT PUSH2 0xC8 JUMPI DUP1 PUSH4 0x12220FE3 EQ PUSH2 0x15B JUMPI DUP1 PUSH4 0x233A1A76 EQ PUSH2 0x18B JUMPI DUP1 PUSH4 0x4028E0DE EQ PUSH2 0x1BB JUMPI DUP1 PUSH4 0x58DA9DA8 EQ PUSH2 0x1D9 JUMPI PUSH2 0xEA JUMP JUMPDEST DUP1 PUSH4 0x10711E3 EQ PUSH2 0xEF JUMPI DUP1 PUSH4 0x60AA4CE EQ PUSH2 0x10D JUMPI DUP1 PUSH4 0x1123D9B1 EQ PUSH2 0x12B JUMPI JUMPDEST PUSH1 0x0 DUP1 REVERT JUMPDEST PUSH2 0xF7 PUSH2 0x2FF JUMP JUMPDEST PUSH1 0x40 MLOAD PUSH2 0x104 SWAP2 SWAP1 PUSH2 0xBF5 JUMP JUMPDEST PUSH1 0x40 MLOAD DUP1 SWAP2 SUB SWAP1 RETURN JUMPDEST PUSH2 0x115 PUSH2 0x305 JUMP JUMPDEST PUSH1 0x40 MLOAD PUSH2 0x122 SWAP2 SWAP1 PUSH2 0xBF5 JUMP JUMPDEST PUSH1 0x40 MLOAD DUP1 SWAP2 SUB SWAP1 RETURN JUMPDEST PUSH2 0x145 PUSH1 0x4 DUP1 CALLDATASIZE SUB DUP2 ADD SWAP1 PUSH2 0x140 SWAP2 SWAP1 PUSH2 0xC50 JUMP JUMPDEST PUSH2 0x30B JUMP JUMPDEST PUSH1 0x40 MLOAD PUSH2 0x152 SWAP2 SWAP1 PUSH2 0xD0D JUMP JUMPDEST PUSH1 0x40 MLOAD DUP1 SWAP2 SUB SWAP1 RETURN JUMPDEST PUSH2 0x175 PUSH1 0x4 DUP1 CALLDATASIZE SUB DUP2 ADD SWAP1 PUSH2 0x170 SWAP2 SWAP1 PUSH2 0xC50 JUMP JUMPDEST PUSH2 0x4C0 JUMP JUMPDEST PUSH1 0x40 MLOAD PUSH2 0x182 SWAP2 SWAP1 PUSH2 0xBF5 JUMP JUMPDEST PUSH1 0x40 MLOAD DUP1 SWAP2 SUB SWAP1 RETURN JUMPDEST PUSH2 0x1A5 PUSH1 0x4 DUP1 CALLDATASIZE SUB DUP2 ADD SWAP1 PUSH2 0x1A0 SWAP2 SWAP1 PUSH2 0xC50 JUMP JUMPDEST PUSH2 0x4E4 JUMP JUMPDEST PUSH1 0x40 MLOAD PUSH2 0x1B2 SWAP2 SWAP1 PUSH2 0xBF5 JUMP JUMPDEST PUSH1 0x40 MLOAD DUP1 SWAP2 SUB SWAP1 RETURN JUMPDEST PUSH2 0x1C3 PUSH2 0x508 JUMP JUMPDEST PUSH1 0x40 MLOAD PUSH2 0x1D0 SWAP2 SWAP1 PUSH2 0xBF5 JUMP JUMPDEST PUSH1 0x40 MLOAD DUP1 SWAP2 SUB SWAP1 RETURN JUMPDEST PUSH2 0x1E1 PUSH2 0x50E JUMP JUMPDEST PUSH1 0x40 MLOAD PUSH2 0x1EE SWAP2 SWAP1 PUSH2 0xD0D JUMP JUMPDEST PUSH1 0x40 MLOAD DUP1 SWAP2 SUB SWAP1 RETURN JUMPDEST PUSH2 0x211 PUSH1 0x4 DUP1 CALLDATASIZE SUB DUP2 ADD SWAP1 PUSH2 0x20C SWAP2 SWAP1 PUSH2 0xC50 JUMP JUMPDEST PUSH2 0x807 JUMP JUMPDEST PUSH1 0x40 MLOAD PUSH2 0x21E SWAP2 SWAP1 PUSH2 0xDED JUMP JUMPDEST PUSH1 0x40 MLOAD DUP1 SWAP2 SUB SWAP1 RETURN JUMPDEST PUSH2 0x241 PUSH1 0x4 DUP1 CALLDATASIZE SUB DUP2 ADD SWAP1 PUSH2 0x23C SWAP2 SWAP1 PUSH2 0xC50 JUMP JUMPDEST PUSH2 0x8D7 JUMP JUMPDEST PUSH1 0x40 MLOAD PUSH2 0x24E SWAP2 SWAP1 PUSH2 0xD0D JUMP JUMPDEST PUSH1 0x40 MLOAD DUP1 SWAP2 SUB SWAP1 RETURN JUMPDEST PUSH2 0x25F PUSH2 0xA35 JUMP JUMPDEST PUSH1 0x40 MLOAD PUSH2 0x26C SWAP2 SWAP1 PUSH2 0xDED JUMP JUMPDEST PUSH1 0x40 MLOAD DUP1 SWAP2 SUB SWAP1 RETURN JUMPDEST PUSH2 0x27D PUSH2 0xA8D JUMP JUMPDEST PUSH1 0x40 MLOAD PUSH2 0x28A SWAP2 SWAP1 PUSH2 0xBF5 JUMP JUMPDEST PUSH1 0x40 MLOAD DUP1 SWAP2 SUB SWAP1 RETURN JUMPDEST PUSH2 0x29B PUSH2 0xA93 JUMP JUMPDEST PUSH1 0x40 MLOAD PUSH2 0x2A8 SWAP2 SWAP1 PUSH2 0xBF5 JUMP JUMPDEST PUSH1 0x40 MLOAD DUP1 SWAP2 SUB SWAP1 RETURN JUMPDEST PUSH2 0x2CB PUSH1 0x4 DUP1 CALLDATASIZE SUB DUP2 ADD SWAP1 PUSH2 0x2C6 SWAP2 SWAP1 PUSH2 0xF44 JUMP JUMPDEST PUSH2 0xA99 JUMP JUMPDEST PUSH1 0x40 MLOAD PUSH2 0x2D8 SWAP2 SWAP1 PUSH2 0xFD7 JUMP JUMPDEST PUSH1 0x40 MLOAD DUP1 SWAP2 SUB SWAP1 RETURN JUMPDEST PUSH2 0x2E9 PUSH2 0xAF2 JUMP JUMPDEST PUSH1 0x40 MLOAD PUSH2 0x2F6 SWAP2 SWAP1 PUSH2 0xBF5 JUMP JUMPDEST PUSH1 0x40 MLOAD DUP1 SWAP2 SUB SWAP1 RETURN JUMPDEST PUSH1 0x0 SLOAD DUP2 JUMP JUMPDEST PUSH1 0x6 SLOAD DUP2 JUMP JUMPDEST PUSH1 0x60 PUSH1 0x3 DUP3 GT ISZERO PUSH2 0x351 JUMPI PUSH1 0x40 MLOAD PUSH32 0x8C379A000000000000000000000000000000000000000000000000000000000 DUP2 MSTORE PUSH1 0x4 ADD PUSH2 0x348 SWAP1 PUSH2 0x103E JUMP JUMPDEST PUSH1 0x40 MLOAD DUP1 SWAP2 SUB SWAP1 REVERT JUMPDEST PUSH1 0x0 PUSH2 0x35B PUSH2 0x50E JUMP JUMPDEST SWAP1 POP PUSH1 0x0 PUSH2 0x39E PUSH1 0x40 MLOAD DUP1 PUSH1 0x40 ADD PUSH1 0x40 MSTORE DUP1 PUSH1 0x4 DUP2 MSTORE PUSH1 0x20 ADD PUSH32 0x5469656400000000000000000000000000000000000000000000000000000000 DUP2 MSTORE POP DUP4 PUSH2 0xA99 JUMP JUMPDEST ISZERO PUSH2 0x3A8 JUMPI PUSH1 0x1 SWAP1 POP JUMPDEST PUSH2 0x3E7 PUSH1 0x40 MLOAD DUP1 PUSH1 0x40 ADD PUSH1 0x40 MSTORE DUP1 PUSH1 0x7 DUP2 MSTORE PUSH1 0x20 ADD PUSH32 0x596F752057696E00000000000000000000000000000000000000000000000000 DUP2 MSTORE POP DUP4 PUSH2 0xA99 JUMP JUMPDEST ISZERO PUSH2 0x3F1 JUMPI PUSH1 0x2 SWAP1 POP JUMPDEST PUSH2 0x430 PUSH1 0x40 MLOAD DUP1 PUSH1 0x40 ADD PUSH1 0x40 MSTORE DUP1 PUSH1 0x8 DUP2 MSTORE PUSH1 0x20 ADD PUSH32 0x596F75204C6F7365000000000000000000000000000000000000000000000000 DUP2 MSTORE POP DUP4 PUSH2 0xA99 JUMP JUMPDEST ISZERO PUSH2 0x43A JUMPI PUSH1 0x3 SWAP1 POP JUMPDEST DUP4 DUP2 SUB PUSH2 0x480 JUMPI PUSH1 0x40 MLOAD DUP1 PUSH1 0x40 ADD PUSH1 0x40 MSTORE DUP1 PUSH1 0x14 DUP2 MSTORE PUSH1 0x20 ADD PUSH32 0x596F7520677565737320697320636F7272656374000000000000000000000000 DUP2 MSTORE POP SWAP3 POP POP POP PUSH2 0x4BB JUMP JUMPDEST PUSH1 0x40 MLOAD DUP1 PUSH1 0x40 ADD PUSH1 0x40 MSTORE DUP1 PUSH1 0x12 DUP2 MSTORE PUSH1 0x20 ADD PUSH32 0x596F752067756573732069732077726F6E670000000000000000000000000000 DUP2 MSTORE POP SWAP3 POP POP POP JUMPDEST SWAP2 SWAP1 POP JUMP JUMPDEST PUSH1 0x2 DUP2 DUP2 SLOAD DUP2 LT PUSH2 0x4D0 JUMPI PUSH1 0x0 DUP1 REVERT JUMPDEST SWAP1 PUSH1 0x0 MSTORE PUSH1 0x20 PUSH1 0x0 KECCAK256 ADD PUSH1 0x0 SWAP2 POP SWAP1 POP SLOAD DUP2 JUMP JUMPDEST PUSH1 0x3 DUP2 DUP2 SLOAD DUP2 LT PUSH2 0x4F4 JUMPI PUSH1 0x0 DUP1 REVERT JUMPDEST SWAP1 PUSH1 0x0 MSTORE PUSH1 0x20 PUSH1 0x0 KECCAK256 ADD PUSH1 0x0 SWAP2 POP SWAP1 POP SLOAD DUP2 JUMP JUMPDEST PUSH1 0x1 SLOAD DUP2 JUMP JUMPDEST PUSH1 0x60 PUSH1 0x3 PUSH1 0x0 PUSH2 0x51E SWAP2 SWAP1 PUSH2 0xB9E JUMP JUMPDEST PUSH1 0x0 PUSH1 0x7 DUP2 SWAP1 SSTORE POP PUSH1 0x0 PUSH1 0x6 DUP2 SWAP1 SSTORE POP PUSH1 0x0 PUSH1 0x5 DUP2 SWAP1 SSTORE POP PUSH1 0x0 JUMPDEST PUSH1 0x2 DUP1 SLOAD SWAP1 POP DUP2 LT ISZERO PUSH2 0x589 JUMPI PUSH1 0x3 PUSH2 0x550 PUSH2 0xAF2 JUMP JUMPDEST SWAP1 DUP1 PUSH1 0x1 DUP2 SLOAD ADD DUP1 DUP3 SSTORE DUP1 SWAP2 POP POP PUSH1 0x1 SWAP1 SUB SWAP1 PUSH1 0x0 MSTORE PUSH1 0x20 PUSH1 0x0 KECCAK256 ADD PUSH1 0x0 SWAP1 SWAP2 SWAP1 SWAP2 SWAP1 SWAP2 POP SSTORE DUP1 DUP1 PUSH2 0x581 SWAP1 PUSH2 0x108D JUMP JUMPDEST SWAP2 POP POP PUSH2 0x539 JUMP JUMPDEST POP PUSH1 0x0 JUMPDEST PUSH1 0x2 DUP1 SLOAD SWAP1 POP DUP2 LT ISZERO PUSH2 0x739 JUMPI PUSH1 0x3 DUP2 DUP2 SLOAD DUP2 LT PUSH2 0x5AE JUMPI PUSH2 0x5AD PUSH2 0x10D5 JUMP JUMPDEST JUMPDEST SWAP1 PUSH1 0x0 MSTORE PUSH1 0x20 PUSH1 0x0 KECCAK256 ADD SLOAD PUSH1 0x2 DUP3 DUP2 SLOAD DUP2 LT PUSH2 0x5CD JUMPI PUSH2 0x5CC PUSH2 0x10D5 JUMP JUMPDEST JUMPDEST SWAP1 PUSH1 0x0 MSTORE PUSH1 0x20 PUSH1 0x0 KECCAK256 ADD SLOAD SUB PUSH2 0x5FA JUMPI PUSH1 0x7 PUSH1 0x0 DUP2 SLOAD DUP1 SWAP3 SWAP2 SWAP1 PUSH2 0x5F0 SWAP1 PUSH2 0x108D JUMP JUMPDEST SWAP2 SWAP1 POP SSTORE POP PUSH2 0x726 JUMP JUMPDEST PUSH1 0x1 PUSH1 0x2 DUP3 DUP2 SLOAD DUP2 LT PUSH2 0x610 JUMPI PUSH2 0x60F PUSH2 0x10D5 JUMP JUMPDEST JUMPDEST SWAP1 PUSH1 0x0 MSTORE PUSH1 0x20 PUSH1 0x0 KECCAK256 ADD SLOAD EQ DUP1 ISZERO PUSH2 0x646 JUMPI POP PUSH1 0x2 PUSH1 0x3 DUP3 DUP2 SLOAD DUP2 LT PUSH2 0x639 JUMPI PUSH2 0x638 PUSH2 0x10D5 JUMP JUMPDEST JUMPDEST SWAP1 PUSH1 0x0 MSTORE PUSH1 0x20 PUSH1 0x0 KECCAK256 ADD SLOAD EQ JUMPDEST DUP1 PUSH2 0x699 JUMPI POP PUSH1 0x3 PUSH1 0x2 DUP3 DUP2 SLOAD DUP2 LT PUSH2 0x662 JUMPI PUSH2 0x661 PUSH2 0x10D5 JUMP JUMPDEST JUMPDEST SWAP1 PUSH1 0x0 MSTORE PUSH1 0x20 PUSH1 0x0 KECCAK256 ADD SLOAD EQ DUP1 ISZERO PUSH2 0x698 JUMPI POP PUSH1 0x1 PUSH1 0x3 DUP3 DUP2 SLOAD DUP2 LT PUSH2 0x68B JUMPI PUSH2 0x68A PUSH2 0x10D5 JUMP JUMPDEST JUMPDEST SWAP1 PUSH1 0x0 MSTORE PUSH1 0x20 PUSH1 0x0 KECCAK256 ADD SLOAD EQ JUMPDEST JUMPDEST DUP1 PUSH2 0x6EA JUMPI POP PUSH1 0x2 DUP1 DUP3 DUP2 SLOAD DUP2 LT PUSH2 0x6B4 JUMPI PUSH2 0x6B3 PUSH2 0x10D5 JUMP JUMPDEST JUMPDEST SWAP1 PUSH1 0x0 MSTORE PUSH1 0x20 PUSH1 0x0 KECCAK256 ADD SLOAD EQ DUP1 ISZERO PUSH2 0x6E9 JUMPI POP PUSH1 0x3 DUP1 DUP3 DUP2 SLOAD DUP2 LT PUSH2 0x6DC JUMPI PUSH2 0x6DB PUSH2 0x10D5 JUMP JUMPDEST JUMPDEST SWAP1 PUSH1 0x0 MSTORE PUSH1 0x20 PUSH1 0x0 KECCAK256 ADD SLOAD EQ JUMPDEST JUMPDEST ISZERO PUSH2 0x70C JUMPI PUSH1 0x6 PUSH1 0x0 DUP2 SLOAD DUP1 SWAP3 SWAP2 SWAP1 PUSH2 0x702 SWAP1 PUSH2 0x108D JUMP JUMPDEST SWAP2 SWAP1 POP SSTORE POP PUSH2 0x725 JUMP JUMPDEST PUSH1 0x5 PUSH1 0x0 DUP2 SLOAD DUP1 SWAP3 SWAP2 SWAP1 PUSH2 0x71F SWAP1 PUSH2 0x108D JUMP JUMPDEST SWAP2 SWAP1 POP SSTORE POP JUMPDEST JUMPDEST DUP1 DUP1 PUSH2 0x731 SWAP1 PUSH2 0x108D JUMP JUMPDEST SWAP2 POP POP PUSH2 0x58D JUMP JUMPDEST POP PUSH1 0x6 SLOAD PUSH1 0x5 SLOAD SUB PUSH2 0x782 JUMPI PUSH1 0x40 MLOAD DUP1 PUSH1 0x40 ADD PUSH1 0x40 MSTORE DUP1 PUSH1 0x4 DUP2 MSTORE PUSH1 0x20 ADD PUSH32 0x5469656400000000000000000000000000000000000000000000000000000000 DUP2 MSTORE POP SWAP1 POP PUSH2 0x804 JUMP JUMPDEST PUSH1 0x6 SLOAD PUSH1 0x5 SLOAD GT ISZERO PUSH2 0x7CB JUMPI PUSH1 0x40 MLOAD DUP1 PUSH1 0x40 ADD PUSH1 0x40 MSTORE DUP1 PUSH1 0x7 DUP2 MSTORE PUSH1 0x20 ADD PUSH32 0x596F752057696E00000000000000000000000000000000000000000000000000 DUP2 MSTORE POP SWAP1 POP PUSH2 0x804 JUMP JUMPDEST PUSH1 0x40 MLOAD DUP1 PUSH1 0x40 ADD PUSH1 0x40 MSTORE DUP1 PUSH1 0x8 DUP2 MSTORE PUSH1 0x20 ADD PUSH32 0x596F75204C6F7365000000000000000000000000000000000000000000000000 DUP2 MSTORE POP SWAP1 POP JUMPDEST SWAP1 JUMP JUMPDEST PUSH1 0x60 PUSH1 0x3 DUP3 GT ISZERO PUSH2 0x84D JUMPI PUSH1 0x40 MLOAD PUSH32 0x8C379A000000000000000000000000000000000000000000000000000000000 DUP2 MSTORE PUSH1 0x4 ADD PUSH2 0x844 SWAP1 PUSH2 0x103E JUMP JUMPDEST PUSH1 0x40 MLOAD DUP1 SWAP2 SUB SWAP1 REVERT JUMPDEST DUP2 PUSH1 0x1 DUP2 SWAP1 SSTORE POP PUSH1 0x2 PUSH1 0x1 SLOAD SWAP1 DUP1 PUSH1 0x1 DUP2 SLOAD ADD DUP1 DUP3 SSTORE DUP1 SWAP2 POP POP PUSH1 0x1 SWAP1 SUB SWAP1 PUSH1 0x0 MSTORE PUSH1 0x20 PUSH1 0x0 KECCAK256 ADD PUSH1 0x0 SWAP1 SWAP2 SWAP1 SWAP2 SWAP1 SWAP2 POP SSTORE PUSH1 0x2 DUP1 SLOAD DUP1 PUSH1 0x20 MUL PUSH1 0x20 ADD PUSH1 0x40 MLOAD SWAP1 DUP2 ADD PUSH1 0x40 MSTORE DUP1 SWAP3 SWAP2 SWAP1 DUP2 DUP2 MSTORE PUSH1 0x20 ADD DUP3 DUP1 SLOAD DUP1 ISZERO PUSH2 0x8CB JUMPI PUSH1 0x20 MUL DUP3 ADD SWAP2 SWAP1 PUSH1 0x0 MSTORE PUSH1 0x20 PUSH1 0x0 KECCAK256 SWAP1 JUMPDEST DUP2 SLOAD DUP2 MSTORE PUSH1 0x20 ADD SWAP1 PUSH1 0x1 ADD SWAP1 DUP1 DUP4 GT PUSH2 0x8B7 JUMPI JUMPDEST POP POP POP POP POP SWAP1 POP SWAP2 SWAP1 POP JUMP JUMPDEST PUSH1 0x60 PUSH1 0x0 PUSH2 0x8E3 PUSH2 0xAF2 JUMP JUMPDEST SWAP1 POP DUP1 PUSH1 0x0 DUP2 SWAP1 SSTORE POP PUSH1 0x3 DUP4 GT ISZERO PUSH2 0x930 JUMPI PUSH1 0x40 MLOAD PUSH32 0x8C379A000000000000000000000000000000000000000000000000000000000 DUP2 MSTORE PUSH1 0x4 ADD PUSH2 0x927 SWAP1 PUSH2 0x103E JUMP JUMPDEST PUSH1 0x40 MLOAD DUP1 SWAP2 SUB SWAP1 REVERT JUMPDEST DUP1 DUP4 SUB PUSH2 0x975 JUMPI PUSH1 0x40 MLOAD DUP1 PUSH1 0x40 ADD PUSH1 0x40 MSTORE DUP1 PUSH1 0x4 DUP2 MSTORE PUSH1 0x20 ADD PUSH32 0x5469656400000000000000000000000000000000000000000000000000000000 DUP2 MSTORE POP SWAP2 POP POP PUSH2 0xA30 JUMP JUMPDEST PUSH1 0x1 DUP4 EQ DUP1 ISZERO PUSH2 0x985 JUMPI POP PUSH1 0x2 DUP2 EQ JUMPDEST DUP1 PUSH2 0x99C JUMPI POP PUSH1 0x3 DUP4 EQ DUP1 ISZERO PUSH2 0x99B JUMPI POP PUSH1 0x1 DUP2 EQ JUMPDEST JUMPDEST DUP1 PUSH2 0x9B3 JUMPI POP PUSH1 0x2 DUP4 EQ DUP1 ISZERO PUSH2 0x9B2 JUMPI POP PUSH1 0x3 DUP2 EQ JUMPDEST JUMPDEST ISZERO PUSH2 0x9F6 JUMPI PUSH1 0x40 MLOAD DUP1 PUSH1 0x40 ADD PUSH1 0x40 MSTORE DUP1 PUSH1 0x8 DUP2 MSTORE PUSH1 0x20 ADD PUSH32 0x596F75206C6F7365000000000000000000000000000000000000000000000000 DUP2 MSTORE POP SWAP2 POP POP PUSH2 0xA30 JUMP JUMPDEST PUSH1 0x40 MLOAD DUP1 PUSH1 0x40 ADD PUSH1 0x40 MSTORE DUP1 PUSH1 0x7 DUP2 MSTORE PUSH1 0x20 ADD PUSH32 0x596F7520776F6E00000000000000000000000000000000000000000000000000 DUP2 MSTORE POP SWAP2 POP POP JUMPDEST SWAP2 SWAP1 POP JUMP JUMPDEST PUSH1 0x60 PUSH1 0x3 DUP1 SLOAD DUP1 PUSH1 0x20 MUL PUSH1 0x20 ADD PUSH1 0x40 MLOAD SWAP1 DUP2 ADD PUSH1 0x40 MSTORE DUP1 SWAP3 SWAP2 SWAP1 DUP2 DUP2 MSTORE PUSH1 0x20 ADD DUP3 DUP1 SLOAD DUP1 ISZERO PUSH2 0xA83 JUMPI PUSH1 0x20 MUL DUP3 ADD SWAP2 SWAP1 PUSH1 0x0 MSTORE PUSH1 0x20 PUSH1 0x0 KECCAK256 SWAP1 JUMPDEST DUP2 SLOAD DUP2 MSTORE PUSH1 0x20 ADD SWAP1 PUSH1 0x1 ADD SWAP1 DUP1 DUP4 GT PUSH2 0xA6F JUMPI JUMPDEST POP POP POP POP POP SWAP1 POP SWAP1 JUMP JUMPDEST PUSH1 0x7 SLOAD DUP2 JUMP JUMPDEST PUSH1 0x5 SLOAD DUP2 JUMP JUMPDEST PUSH1 0x0 DUP2 PUSH1 0x40 MLOAD PUSH1 0x20 ADD PUSH2 0xAAC SWAP2 SWAP1 PUSH2 0x1140 JUMP JUMPDEST PUSH1 0x40 MLOAD PUSH1 0x20 DUP2 DUP4 SUB SUB DUP2 MSTORE SWAP1 PUSH1 0x40 MSTORE DUP1 MLOAD SWAP1 PUSH1 0x20 ADD KECCAK256 DUP4 PUSH1 0x40 MLOAD PUSH1 0x20 ADD PUSH2 0xAD3 SWAP2 SWAP1 PUSH2 0x1140 JUMP JUMPDEST PUSH1 0x40 MLOAD PUSH1 0x20 DUP2 DUP4 SUB SUB DUP2 MSTORE SWAP1 PUSH1 0x40 MSTORE DUP1 MLOAD SWAP1 PUSH1 0x20 ADD KECCAK256 EQ SWAP1 POP SWAP3 SWAP2 POP POP JUMP JUMPDEST PUSH1 0x0 DUP1 TIMESTAMP PREVRANDAO PUSH1 0x1 NUMBER PUSH2 0xB04 SWAP2 SWAP1 PUSH2 0x1157 JUMP JUMPDEST BLOCKHASH PUSH1 0x40 MLOAD PUSH1 0x20 ADD PUSH2 0xB17 SWAP4 SWAP3 SWAP2 SWAP1 PUSH2 0x11D7 JUMP JUMPDEST PUSH1 0x40 MLOAD PUSH1 0x20 DUP2 DUP4 SUB SUB DUP2 MSTORE SWAP1 PUSH1 0x40 MSTORE DUP1 MLOAD SWAP1 PUSH1 0x20 ADD KECCAK256 PUSH1 0x0 SHR SWAP1 POP PUSH1 0x0 DUP2 PUSH1 0x4 SLOAD PUSH1 0x40 MLOAD PUSH1 0x20 ADD PUSH2 0xB49 SWAP3 SWAP2 SWAP1 PUSH2 0x1214 JUMP JUMPDEST PUSH1 0x40 MLOAD PUSH1 0x20 DUP2 DUP4 SUB SUB DUP2 MSTORE SWAP1 PUSH1 0x40 MSTORE DUP1 MLOAD SWAP1 PUSH1 0x20 ADD KECCAK256 PUSH1 0x0 SHR SWAP1 POP PUSH1 0x1 PUSH1 0x4 PUSH1 0x0 DUP3 DUP3 SLOAD PUSH2 0xB77 SWAP2 SWAP1 PUSH2 0x1240 JUMP JUMPDEST SWAP3 POP POP DUP2 SWAP1 SSTORE POP PUSH1 0x1 PUSH1 0x3 DUP3 PUSH2 0xB8D SWAP2 SWAP1 PUSH2 0x12A3 JUMP JUMPDEST PUSH2 0xB97 SWAP2 SWAP1 PUSH2 0x1240 JUMP JUMPDEST SWAP3 POP POP POP SWAP1 JUMP JUMPDEST POP DUP1 SLOAD PUSH1 0x0 DUP3 SSTORE SWAP1 PUSH1 0x0 MSTORE PUSH1 0x20 PUSH1 0x0 KECCAK256 SWAP1 DUP2 ADD SWAP1 PUSH2 0xBBC SWAP2 SWAP1 PUSH2 0xBBF JUMP JUMPDEST POP JUMP JUMPDEST JUMPDEST DUP1 DUP3 GT ISZERO PUSH2 0xBD8 JUMPI PUSH1 0x0 DUP2 PUSH1 0x0 SWAP1 SSTORE POP PUSH1 0x1 ADD PUSH2 0xBC0 JUMP JUMPDEST POP SWAP1 JUMP JUMPDEST PUSH1 0x0 DUP2 SWAP1 POP SWAP2 SWAP1 POP JUMP JUMPDEST PUSH2 0xBEF DUP2 PUSH2 0xBDC JUMP JUMPDEST DUP3 MSTORE POP POP JUMP JUMPDEST PUSH1 0x0 PUSH1 0x20 DUP3 ADD SWAP1 POP PUSH2 0xC0A PUSH1 0x0 DUP4 ADD DUP5 PUSH2 0xBE6 JUMP JUMPDEST SWAP3 SWAP2 POP POP JUMP JUMPDEST PUSH1 0x0 PUSH1 0x40 MLOAD SWAP1 POP SWAP1 JUMP JUMPDEST PUSH1 0x0 DUP1 REVERT JUMPDEST PUSH1 0x0 DUP1 REVERT JUMPDEST PUSH2 0xC2D DUP2 PUSH2 0xBDC JUMP JUMPDEST DUP2 EQ PUSH2 0xC38 JUMPI PUSH1 0x0 DUP1 REVERT JUMPDEST POP JUMP JUMPDEST PUSH1 0x0 DUP2 CALLDATALOAD SWAP1 POP PUSH2 0xC4A DUP2 PUSH2 0xC24 JUMP JUMPDEST SWAP3 SWAP2 POP POP JUMP JUMPDEST PUSH1 0x0 PUSH1 0x20 DUP3 DUP5 SUB SLT ISZERO PUSH2 0xC66 JUMPI PUSH2 0xC65 PUSH2 0xC1A JUMP JUMPDEST JUMPDEST PUSH1 0x0 PUSH2 0xC74 DUP5 DUP3 DUP6 ADD PUSH2 0xC3B JUMP JUMPDEST SWAP2 POP POP SWAP3 SWAP2 POP POP JUMP JUMPDEST PUSH1 0x0 DUP2 MLOAD SWAP1 POP SWAP2 SWAP1 POP JUMP JUMPDEST PUSH1 0x0 DUP3 DUP3 MSTORE PUSH1 0x20 DUP3 ADD SWAP1 POP SWAP3 SWAP2 POP POP JUMP JUMPDEST PUSH1 0x0 JUMPDEST DUP4 DUP2 LT ISZERO PUSH2 0xCB7 JUMPI DUP1 DUP3 ADD MLOAD DUP2 DUP5 ADD MSTORE PUSH1 0x20 DUP2 ADD SWAP1 POP PUSH2 0xC9C JUMP JUMPDEST PUSH1 0x0 DUP5 DUP5 ADD MSTORE POP POP POP POP JUMP JUMPDEST PUSH1 0x0 PUSH1 0x1F NOT PUSH1 0x1F DUP4 ADD AND SWAP1 POP SWAP2 SWAP1 POP JUMP JUMPDEST PUSH1 0x0 PUSH2 0xCDF DUP3 PUSH2 0xC7D JUMP JUMPDEST PUSH2 0xCE9 DUP2 DUP6 PUSH2 0xC88 JUMP JUMPDEST SWAP4 POP PUSH2 0xCF9 DUP2 DUP6 PUSH1 0x20 DUP7 ADD PUSH2 0xC99 JUMP JUMPDEST PUSH2 0xD02 DUP2 PUSH2 0xCC3 JUMP JUMPDEST DUP5 ADD SWAP2 POP POP SWAP3 SWAP2 POP POP JUMP JUMPDEST PUSH1 0x0 PUSH1 0x20 DUP3 ADD SWAP1 POP DUP2 DUP2 SUB PUSH1 0x0 DUP4 ADD MSTORE PUSH2 0xD27 DUP2 DUP5 PUSH2 0xCD4 JUMP JUMPDEST SWAP1 POP SWAP3 SWAP2 POP POP JUMP JUMPDEST PUSH1 0x0 DUP2 MLOAD SWAP1 POP SWAP2 SWAP1 POP JUMP JUMPDEST PUSH1 0x0 DUP3 DUP3 MSTORE PUSH1 0x20 DUP3 ADD SWAP1 POP SWAP3 SWAP2 POP POP JUMP JUMPDEST PUSH1 0x0 DUP2 SWAP1 POP PUSH1 0x20 DUP3 ADD SWAP1 POP SWAP2 SWAP1 POP JUMP JUMPDEST PUSH2 0xD64 DUP2 PUSH2 0xBDC JUMP JUMPDEST DUP3 MSTORE POP POP JUMP JUMPDEST PUSH1 0x0 PUSH2 0xD76 DUP4 DUP4 PUSH2 0xD5B JUMP JUMPDEST PUSH1 0x20 DUP4 ADD SWAP1 POP SWAP3 SWAP2 POP POP JUMP JUMPDEST PUSH1 0x0 PUSH1 0x20 DUP3 ADD SWAP1 POP SWAP2 SWAP1 POP JUMP JUMPDEST PUSH1 0x0 PUSH2 0xD9A DUP3 PUSH2 0xD2F JUMP JUMPDEST PUSH2 0xDA4 DUP2 DUP6 PUSH2 0xD3A JUMP JUMPDEST SWAP4 POP PUSH2 0xDAF DUP4 PUSH2 0xD4B JUMP JUMPDEST DUP1 PUSH1 0x0 JUMPDEST DUP4 DUP2 LT ISZERO PUSH2 0xDE0 JUMPI DUP2 MLOAD PUSH2 0xDC7 DUP9 DUP3 PUSH2 0xD6A JUMP JUMPDEST SWAP8 POP PUSH2 0xDD2 DUP4 PUSH2 0xD82 JUMP JUMPDEST SWAP3 POP POP PUSH1 0x1 DUP2 ADD SWAP1 POP PUSH2 0xDB3 JUMP JUMPDEST POP DUP6 SWAP4 POP POP POP POP SWAP3 SWAP2 POP POP JUMP JUMPDEST PUSH1 0x0 PUSH1 0x20 DUP3 ADD SWAP1 POP DUP2 DUP2 SUB PUSH1 0x0 DUP4 ADD MSTORE PUSH2 0xE07 DUP2 DUP5 PUSH2 0xD8F JUMP JUMPDEST SWAP1 POP SWAP3 SWAP2 POP POP JUMP JUMPDEST PUSH1 0x0 DUP1 REVERT JUMPDEST PUSH1 0x0 DUP1 REVERT JUMPDEST PUSH32 0x4E487B7100000000000000000000000000000000000000000000000000000000 PUSH1 0x0 MSTORE PUSH1 0x41 PUSH1 0x4 MSTORE PUSH1 0x24 PUSH1 0x0 REVERT JUMPDEST PUSH2 0xE51 DUP3 PUSH2 0xCC3 JUMP JUMPDEST DUP2 ADD DUP2 DUP2 LT PUSH8 0xFFFFFFFFFFFFFFFF DUP3 GT OR ISZERO PUSH2 0xE70 JUMPI PUSH2 0xE6F PUSH2 0xE19 JUMP JUMPDEST JUMPDEST DUP1 PUSH1 0x40 MSTORE POP POP POP JUMP JUMPDEST PUSH1 0x0 PUSH2 0xE83 PUSH2 0xC10 JUMP JUMPDEST SWAP1 POP PUSH2 0xE8F DUP3 DUP3 PUSH2 0xE48 JUMP JUMPDEST SWAP2 SWAP1 POP JUMP JUMPDEST PUSH1 0x0 PUSH8 0xFFFFFFFFFFFFFFFF DUP3 GT ISZERO PUSH2 0xEAF JUMPI PUSH2 0xEAE PUSH2 0xE19 JUMP JUMPDEST JUMPDEST PUSH2 0xEB8 DUP3 PUSH2 0xCC3 JUMP JUMPDEST SWAP1 POP PUSH1 0x20 DUP2 ADD SWAP1 POP SWAP2 SWAP1 POP JUMP JUMPDEST DUP3 DUP2 DUP4 CALLDATACOPY PUSH1 0x0 DUP4 DUP4 ADD MSTORE POP POP POP JUMP JUMPDEST PUSH1 0x0 PUSH2 0xEE7 PUSH2 0xEE2 DUP5 PUSH2 0xE94 JUMP JUMPDEST PUSH2 0xE79 JUMP JUMPDEST SWAP1 POP DUP3 DUP2 MSTORE PUSH1 0x20 DUP2 ADD DUP5 DUP5 DUP5 ADD GT ISZERO PUSH2 0xF03 JUMPI PUSH2 0xF02 PUSH2 0xE14 JUMP JUMPDEST JUMPDEST PUSH2 0xF0E DUP5 DUP3 DUP6 PUSH2 0xEC5 JUMP JUMPDEST POP SWAP4 SWAP3 POP POP POP JUMP JUMPDEST PUSH1 0x0 DUP3 PUSH1 0x1F DUP4 ADD SLT PUSH2 0xF2B JUMPI PUSH2 0xF2A PUSH2 0xE0F JUMP JUMPDEST JUMPDEST DUP2 CALLDATALOAD PUSH2 0xF3B DUP5 DUP3 PUSH1 0x20 DUP7 ADD PUSH2 0xED4 JUMP JUMPDEST SWAP2 POP POP SWAP3 SWAP2 POP POP JUMP JUMPDEST PUSH1 0x0 DUP1 PUSH1 0x40 DUP4 DUP6 SUB SLT ISZERO PUSH2 0xF5B JUMPI PUSH2 0xF5A PUSH2 0xC1A JUMP JUMPDEST JUMPDEST PUSH1 0x0 DUP4 ADD CALLDATALOAD PUSH8 0xFFFFFFFFFFFFFFFF DUP2 GT ISZERO PUSH2 0xF79 JUMPI PUSH2 0xF78 PUSH2 0xC1F JUMP JUMPDEST JUMPDEST PUSH2 0xF85 DUP6 DUP3 DUP7 ADD PUSH2 0xF16 JUMP JUMPDEST SWAP3 POP POP PUSH1 0x20 DUP4 ADD CALLDATALOAD PUSH8 0xFFFFFFFFFFFFFFFF DUP2 GT ISZERO PUSH2 0xFA6 JUMPI PUSH2 0xFA5 PUSH2 0xC1F JUMP JUMPDEST JUMPDEST PUSH2 0xFB2 DUP6 DUP3 DUP7 ADD PUSH2 0xF16 JUMP JUMPDEST SWAP2 POP POP SWAP3 POP SWAP3 SWAP1 POP JUMP JUMPDEST PUSH1 0x0 DUP2 ISZERO ISZERO SWAP1 POP SWAP2 SWAP1 POP JUMP JUMPDEST PUSH2 0xFD1 DUP2 PUSH2 0xFBC JUMP JUMPDEST DUP3 MSTORE POP POP JUMP JUMPDEST PUSH1 0x0 PUSH1 0x20 DUP3 ADD SWAP1 POP PUSH2 0xFEC PUSH1 0x0 DUP4 ADD DUP5 PUSH2 0xFC8 JUMP JUMPDEST SWAP3 SWAP2 POP POP JUMP JUMPDEST PUSH32 0x4572726F723A2043616E277420696E707574206D6F7265207468616E20330000 PUSH1 0x0 DUP3 ADD MSTORE POP JUMP JUMPDEST PUSH1 0x0 PUSH2 0x1028 PUSH1 0x1E DUP4 PUSH2 0xC88 JUMP JUMPDEST SWAP2 POP PUSH2 0x1033 DUP3 PUSH2 0xFF2 JUMP JUMPDEST PUSH1 0x20 DUP3 ADD SWAP1 POP SWAP2 SWAP1 POP JUMP JUMPDEST PUSH1 0x0 PUSH1 0x20 DUP3 ADD SWAP1 POP DUP2 DUP2 SUB PUSH1 0x0 DUP4 ADD MSTORE PUSH2 0x1057 DUP2 PUSH2 0x101B JUMP JUMPDEST SWAP1 POP SWAP2 SWAP1 POP JUMP JUMPDEST PUSH32 0x4E487B7100000000000000000000000000000000000000000000000000000000 PUSH1 0x0 MSTORE PUSH1 0x11 PUSH1 0x4 MSTORE PUSH1 0x24 PUSH1 0x0 REVERT JUMPDEST PUSH1 0x0 PUSH2 0x1098 DUP3 PUSH2 0xBDC JUMP JUMPDEST SWAP2 POP PUSH32 0xFFFFFFFFFFFFFFFFFFFFFFFFFFFFFFFFFFFFFFFFFFFFFFFFFFFFFFFFFFFFFFFF DUP3 SUB PUSH2 0x10CA JUMPI PUSH2 0x10C9 PUSH2 0x105E JUMP JUMPDEST JUMPDEST PUSH1 0x1 DUP3 ADD SWAP1 POP SWAP2 SWAP1 POP JUMP JUMPDEST PUSH32 0x4E487B7100000000000000000000000000000000000000000000000000000000 PUSH1 0x0 MSTORE PUSH1 0x32 PUSH1 0x4 MSTORE PUSH1 0x24 PUSH1 0x0 REVERT JUMPDEST PUSH1 0x0 DUP2 SWAP1 POP SWAP3 SWAP2 POP POP JUMP JUMPDEST PUSH1 0x0 PUSH2 0x111A DUP3 PUSH2 0xC7D JUMP JUMPDEST PUSH2 0x1124 DUP2 DUP6 PUSH2 0x1104 JUMP JUMPDEST SWAP4 POP PUSH2 0x1134 DUP2 DUP6 PUSH1 0x20 DUP7 ADD PUSH2 0xC99 JUMP JUMPDEST DUP1 DUP5 ADD SWAP2 POP POP SWAP3 SWAP2 POP POP JUMP JUMPDEST PUSH1 0x0 PUSH2 0x114C DUP3 DUP5 PUSH2 0x110F JUMP JUMPDEST SWAP2 POP DUP2 SWAP1 POP SWAP3 SWAP2 POP POP JUMP JUMPDEST PUSH1 0x0 PUSH2 0x1162 DUP3 PUSH2 0xBDC JUMP JUMPDEST SWAP2 POP PUSH2 0x116D DUP4 PUSH2 0xBDC JUMP JUMPDEST SWAP3 POP DUP3 DUP3 SUB SWAP1 POP DUP2 DUP2 GT ISZERO PUSH2 0x1185 JUMPI PUSH2 0x1184 PUSH2 0x105E JUMP JUMPDEST JUMPDEST SWAP3 SWAP2 POP POP JUMP JUMPDEST PUSH1 0x0 DUP2 SWAP1 POP SWAP2 SWAP1 POP JUMP JUMPDEST PUSH2 0x11A6 PUSH2 0x11A1 DUP3 PUSH2 0xBDC JUMP JUMPDEST PUSH2 0x118B JUMP JUMPDEST DUP3 MSTORE POP POP JUMP JUMPDEST PUSH1 0x0 DUP2 SWAP1 POP SWAP2 SWAP1 POP JUMP JUMPDEST PUSH1 0x0 DUP2 SWAP1 POP SWAP2 SWAP1 POP JUMP JUMPDEST PUSH2 0x11D1 PUSH2 0x11CC DUP3 PUSH2 0x11AC JUMP JUMPDEST PUSH2 0x11B6 JUMP JUMPDEST DUP3 MSTORE POP POP JUMP JUMPDEST PUSH1 0x0 PUSH2 0x11E3 DUP3 DUP7 PUSH2 0x1195 JUMP JUMPDEST PUSH1 0x20 DUP3 ADD SWAP2 POP PUSH2 0x11F3 DUP3 DUP6 PUSH2 0x1195 JUMP JUMPDEST PUSH1 0x20 DUP3 ADD SWAP2 POP PUSH2 0x1203 DUP3 DUP5 PUSH2 0x11C0 JUMP JUMPDEST PUSH1 0x20 DUP3 ADD SWAP2 POP DUP2 SWAP1 POP SWAP5 SWAP4 POP POP POP POP JUMP JUMPDEST PUSH1 0x0 PUSH2 0x1220 DUP3 DUP6 PUSH2 0x1195 JUMP JUMPDEST PUSH1 0x20 DUP3 ADD SWAP2 POP PUSH2 0x1230 DUP3 DUP5 PUSH2 0x1195 JUMP JUMPDEST PUSH1 0x20 DUP3 ADD SWAP2 POP DUP2 SWAP1 POP SWAP4 SWAP3 POP POP POP JUMP JUMPDEST PUSH1 0x0 PUSH2 0x124B DUP3 PUSH2 0xBDC JUMP JUMPDEST SWAP2 POP PUSH2 0x1256 DUP4 PUSH2 0xBDC JUMP JUMPDEST SWAP3 POP DUP3 DUP3 ADD SWAP1 POP DUP1 DUP3 GT ISZERO PUSH2 0x126E JUMPI PUSH2 0x126D PUSH2 0x105E JUMP JUMPDEST JUMPDEST SWAP3 SWAP2 POP POP JUMP JUMPDEST PUSH32 0x4E487B7100000000000000000000000000000000000000000000000000000000 PUSH1 0x0 MSTORE PUSH1 0x12 PUSH1 0x4 MSTORE PUSH1 0x24 PUSH1 0x0 REVERT JUMPDEST PUSH1 0x0 PUSH2 0x12AE DUP3 PUSH2 0xBDC JUMP JUMPDEST SWAP2 POP PUSH2 0x12B9 DUP4 PUSH2 0xBDC JUMP JUMPDEST SWAP3 POP DUP3 PUSH2 0x12C9 JUMPI PUSH2 0x12C8 PUSH2 0x1274 JUMP JUMPDEST JUMPDEST DUP3 DUP3 MOD SWAP1 POP SWAP3 SWAP2 POP POP JUMP INVALID LOG2 PUSH5 0x6970667358 0x22 SLT KECCAK256 DUP2 0xB9 POP PC 0xE4 0xB3 OR 0x2E 0xE1 0x4F SUB 0xB7 SWAP6 0x24 RETURNDATASIZE DUP1 PUSH13 0x3B0E380C1771C8FCB25D12A0A7 0xB5 0xC6 PUSH5 0x736F6C6343 STOP ADDMOD SGT STOP CALLER "
				},
				"gasEstimates": {
					"creation": {
						"codeDepositCost": "974800",
						"executionCost": "23120",
						"totalCost": "997920"
					},
					"external": {
						"Options(uint256)": "infinite",
						"compareStrings(string,string)": "infinite",
						"enterOption(uint256)": "infinite",
						"getRandomNumber()": "infinite",
						"getRandomSet()": "infinite",
						"guessResult(uint256)": "infinite",
						"lastChoice()": "2453",
						"play(uint256)": "infinite",
						"playMutiTimes()": "infinite",
						"playerOption()": "2496",
						"randomNumSet(uint256)": "infinite",
						"systemWin()": "2475",
						"tied()": "2451",
						"userWin()": "2473"
					}
				},
				"methodIdentifiers": {
					"Options(uint256)": "12220fe3",
					"compareStrings(string,string)": "bed34bba",
					"enterOption(uint256)": "614b3757",
					"getRandomNumber()": "dbdff2c1",
					"getRandomSet()": "6ca495e2",
					"guessResult(uint256)": "1123d9b1",
					"lastChoice()": "010711e3",
					"play(uint256)": "6898f82b",
					"playMutiTimes()": "58da9da8",
					"playerOption()": "4028e0de",
					"randomNumSet(uint256)": "233a1a76",
					"systemWin()": "060aa4ce",
					"tied()": "94227ea7",
					"userWin()": "ba162868"
				}
			},
			"storageLayout": {
				"storage": [
					{
						"astId": 3,
						"contract": "Practical2-RockPaperScissors-Jason.sol:RockPaperScissors",
						"label": "lastChoice",
						"offset": 0,
						"slot": "0",
						"type": "t_uint256"
					},
					{
						"astId": 5,
						"contract": "Practical2-RockPaperScissors-Jason.sol:RockPaperScissors",
						"label": "playerOption",
						"offset": 0,
						"slot": "1",
						"type": "t_uint256"
					},
					{
						"astId": 8,
						"contract": "Practical2-RockPaperScissors-Jason.sol:RockPaperScissors",
						"label": "Options",
						"offset": 0,
						"slot": "2",
						"type": "t_array(t_uint256)dyn_storage"
					},
					{
						"astId": 11,
						"contract": "Practical2-RockPaperScissors-Jason.sol:RockPaperScissors",
						"label": "randomNumSet",
						"offset": 0,
						"slot": "3",
						"type": "t_array(t_uint256)dyn_storage"
					},
					{
						"astId": 14,
						"contract": "Practical2-RockPaperScissors-Jason.sol:RockPaperScissors",
						"label": "salt",
						"offset": 0,
						"slot": "4",
						"type": "t_uint256"
					},
					{
						"astId": 16,
						"contract": "Practical2-RockPaperScissors-Jason.sol:RockPaperScissors",
						"label": "userWin",
						"offset": 0,
						"slot": "5",
						"type": "t_uint256"
					},
					{
						"astId": 18,
						"contract": "Practical2-RockPaperScissors-Jason.sol:RockPaperScissors",
						"label": "systemWin",
						"offset": 0,
						"slot": "6",
						"type": "t_uint256"
					},
					{
						"astId": 20,
						"contract": "Practical2-RockPaperScissors-Jason.sol:RockPaperScissors",
						"label": "tied",
						"offset": 0,
						"slot": "7",
						"type": "t_uint256"
					}
				],
				"types": {
					"t_array(t_uint256)dyn_storage": {
						"base": "t_uint256",
						"encoding": "dynamic_array",
						"label": "uint256[]",
						"numberOfBytes": "32"
					},
					"t_uint256": {
						"encoding": "inplace",
						"label": "uint256",
						"numberOfBytes": "32"
					}
				}
			},
			"userdoc": {
				"kind": "user",
				"methods": {},
				"version": 1
			}
		}
	}
}