{
	"Practical6-Apply-TTT-Token.sol": {
		"TickTackToe": {
			"abi": [
				{
					"inputs": [],
					"stateMutability": "nonpayable",
					"type": "constructor"
				},
				{
					"anonymous": false,
					"inputs": [
						{
							"indexed": false,
							"internalType": "uint256",
							"name": "gameId",
							"type": "uint256"
						}
					],
					"name": "createRoom",
					"type": "event"
				},
				{
					"anonymous": false,
					"inputs": [
						{
							"components": [
								{
									"internalType": "bool",
									"name": "_activate",
									"type": "bool"
								},
								{
									"internalType": "string",
									"name": "_currentPlayer",
									"type": "string"
								},
								{
									"internalType": "string[]",
									"name": "_options",
									"type": "string[]"
								},
								{
									"internalType": "uint256[]",
									"name": "_finalWinOption",
									"type": "uint256[]"
								},
								{
									"internalType": "address",
									"name": "_player1address",
									"type": "address"
								},
								{
									"internalType": "address",
									"name": "_player2address",
									"type": "address"
								},
								{
									"internalType": "uint256",
									"name": "_playerCount",
									"type": "uint256"
								},
								{
									"internalType": "address",
									"name": "_winer",
									"type": "address"
								},
								{
									"internalType": "uint256",
									"name": "_player1Bet",
									"type": "uint256"
								},
								{
									"internalType": "uint256",
									"name": "_player2Bet",
									"type": "uint256"
								},
								{
									"internalType": "uint256",
									"name": "_rewardAmount",
									"type": "uint256"
								}
							],
							"indexed": false,
							"internalType": "struct TickTackToe.GameInfo",
							"name": "gameinfo",
							"type": "tuple"
						},
						{
							"indexed": false,
							"internalType": "uint256",
							"name": "gameId",
							"type": "uint256"
						}
					],
					"name": "joinRoom",
					"type": "event"
				},
				{
					"anonymous": false,
					"inputs": [
						{
							"indexed": false,
							"internalType": "string",
							"name": "next",
							"type": "string"
						},
						{
							"indexed": false,
							"internalType": "uint256",
							"name": "gameId",
							"type": "uint256"
						}
					],
					"name": "nextUesrStr",
					"type": "event"
				},
				{
					"anonymous": false,
					"inputs": [
						{
							"indexed": false,
							"internalType": "address",
							"name": "nextUser",
							"type": "address"
						},
						{
							"indexed": false,
							"internalType": "uint256",
							"name": "gameId",
							"type": "uint256"
						}
					],
					"name": "nextUser",
					"type": "event"
				},
				{
					"anonymous": false,
					"inputs": [
						{
							"indexed": false,
							"internalType": "uint256",
							"name": "gameId",
							"type": "uint256"
						}
					],
					"name": "resetUI",
					"type": "event"
				},
				{
					"anonymous": false,
					"inputs": [
						{
							"indexed": false,
							"internalType": "address",
							"name": "player1Address",
							"type": "address"
						},
						{
							"indexed": false,
							"internalType": "uint256",
							"name": "gameId",
							"type": "uint256"
						}
					],
					"name": "showFirstPlayer",
					"type": "event"
				},
				{
					"anonymous": false,
					"inputs": [
						{
							"indexed": false,
							"internalType": "string",
							"name": "result",
							"type": "string"
						},
						{
							"indexed": false,
							"internalType": "uint256",
							"name": "gameId",
							"type": "uint256"
						}
					],
					"name": "showResult",
					"type": "event"
				},
				{
					"anonymous": false,
					"inputs": [
						{
							"indexed": false,
							"internalType": "string",
							"name": "message",
							"type": "string"
						},
						{
							"indexed": false,
							"internalType": "address",
							"name": "player1",
							"type": "address"
						},
						{
							"indexed": false,
							"internalType": "address",
							"name": "player2",
							"type": "address"
						},
						{
							"indexed": false,
							"internalType": "uint256",
							"name": "gameId",
							"type": "uint256"
						}
					],
					"name": "startGame",
					"type": "event"
				},
				{
					"anonymous": false,
					"inputs": [
						{
							"indexed": false,
							"internalType": "string[]",
							"name": "options",
							"type": "string[]"
						},
						{
							"indexed": false,
							"internalType": "uint256",
							"name": "gameId",
							"type": "uint256"
						}
					],
					"name": "updateUI",
					"type": "event"
				},
				{
					"inputs": [],
					"name": "TTTToken",
					"outputs": [
						{
							"internalType": "contract IERC20",
							"name": "",
							"type": "address"
						}
					],
					"stateMutability": "view",
					"type": "function"
				},
				{
					"inputs": [],
					"name": "burnFee",
					"outputs": [
						{
							"internalType": "uint256",
							"name": "",
							"type": "uint256"
						}
					],
					"stateMutability": "view",
					"type": "function"
				},
				{
					"inputs": [
						{
							"internalType": "string",
							"name": "a",
							"type": "string"
						},
						{
							"internalType": "string",
							"name": "b",
							"type": "string"
						}
					],
					"name": "compareStrings",
					"outputs": [
						{
							"internalType": "bool",
							"name": "",
							"type": "bool"
						}
					],
					"stateMutability": "pure",
					"type": "function"
				},
				{
					"inputs": [
						{
							"internalType": "uint256",
							"name": "betAmount",
							"type": "uint256"
						}
					],
					"name": "createGameRoom",
					"outputs": [],
					"stateMutability": "nonpayable",
					"type": "function"
				},
				{
					"inputs": [
						{
							"internalType": "uint256",
							"name": "",
							"type": "uint256"
						}
					],
					"name": "gameInformation",
					"outputs": [
						{
							"internalType": "bool",
							"name": "_activate",
							"type": "bool"
						},
						{
							"internalType": "string",
							"name": "_currentPlayer",
							"type": "string"
						},
						{
							"internalType": "address",
							"name": "_player1address",
							"type": "address"
						},
						{
							"internalType": "address",
							"name": "_player2address",
							"type": "address"
						},
						{
							"internalType": "uint256",
							"name": "_playerCount",
							"type": "uint256"
						},
						{
							"internalType": "address",
							"name": "_winer",
							"type": "address"
						},
						{
							"internalType": "uint256",
							"name": "_player1Bet",
							"type": "uint256"
						},
						{
							"internalType": "uint256",
							"name": "_player2Bet",
							"type": "uint256"
						},
						{
							"internalType": "uint256",
							"name": "_rewardAmount",
							"type": "uint256"
						}
					],
					"stateMutability": "view",
					"type": "function"
				},
				{
					"inputs": [],
					"name": "getAllGameInformation",
					"outputs": [
						{
							"components": [
								{
									"internalType": "bool",
									"name": "_activate",
									"type": "bool"
								},
								{
									"internalType": "string",
									"name": "_currentPlayer",
									"type": "string"
								},
								{
									"internalType": "string[]",
									"name": "_options",
									"type": "string[]"
								},
								{
									"internalType": "uint256[]",
									"name": "_finalWinOption",
									"type": "uint256[]"
								},
								{
									"internalType": "address",
									"name": "_player1address",
									"type": "address"
								},
								{
									"internalType": "address",
									"name": "_player2address",
									"type": "address"
								},
								{
									"internalType": "uint256",
									"name": "_playerCount",
									"type": "uint256"
								},
								{
									"internalType": "address",
									"name": "_winer",
									"type": "address"
								},
								{
									"internalType": "uint256",
									"name": "_player1Bet",
									"type": "uint256"
								},
								{
									"internalType": "uint256",
									"name": "_player2Bet",
									"type": "uint256"
								},
								{
									"internalType": "uint256",
									"name": "_rewardAmount",
									"type": "uint256"
								}
							],
							"internalType": "struct TickTackToe.GameInfo[]",
							"name": "",
							"type": "tuple[]"
						}
					],
					"stateMutability": "view",
					"type": "function"
				},
				{
					"inputs": [],
					"name": "getAllMoney",
					"outputs": [],
					"stateMutability": "nonpayable",
					"type": "function"
				},
				{
					"inputs": [],
					"name": "getExcessBalance",
					"outputs": [],
					"stateMutability": "nonpayable",
					"type": "function"
				},
				{
					"inputs": [
						{
							"internalType": "uint256",
							"name": "gameId",
							"type": "uint256"
						}
					],
					"name": "getFinalWinOption",
					"outputs": [
						{
							"internalType": "uint256[]",
							"name": "",
							"type": "uint256[]"
						}
					],
					"stateMutability": "view",
					"type": "function"
				},
				{
					"inputs": [
						{
							"internalType": "uint256",
							"name": "gameId",
							"type": "uint256"
						}
					],
					"name": "getGameInformation",
					"outputs": [
						{
							"components": [
								{
									"internalType": "bool",
									"name": "_activate",
									"type": "bool"
								},
								{
									"internalType": "string",
									"name": "_currentPlayer",
									"type": "string"
								},
								{
									"internalType": "string[]",
									"name": "_options",
									"type": "string[]"
								},
								{
									"internalType": "uint256[]",
									"name": "_finalWinOption",
									"type": "uint256[]"
								},
								{
									"internalType": "address",
									"name": "_player1address",
									"type": "address"
								},
								{
									"internalType": "address",
									"name": "_player2address",
									"type": "address"
								},
								{
									"internalType": "uint256",
									"name": "_playerCount",
									"type": "uint256"
								},
								{
									"internalType": "address",
									"name": "_winer",
									"type": "address"
								},
								{
									"internalType": "uint256",
									"name": "_player1Bet",
									"type": "uint256"
								},
								{
									"internalType": "uint256",
									"name": "_player2Bet",
									"type": "uint256"
								},
								{
									"internalType": "uint256",
									"name": "_rewardAmount",
									"type": "uint256"
								}
							],
							"internalType": "struct TickTackToe.GameInfo",
							"name": "",
							"type": "tuple"
						}
					],
					"stateMutability": "view",
					"type": "function"
				},
				{
					"inputs": [
						{
							"internalType": "uint256",
							"name": "gameId",
							"type": "uint256"
						}
					],
					"name": "getoption",
					"outputs": [
						{
							"internalType": "string[]",
							"name": "",
							"type": "string[]"
						}
					],
					"stateMutability": "view",
					"type": "function"
				},
				{
					"inputs": [
						{
							"internalType": "uint256",
							"name": "gameId",
							"type": "uint256"
						},
						{
							"internalType": "uint256",
							"name": "betAmount",
							"type": "uint256"
						}
					],
					"name": "joinGame",
					"outputs": [],
					"stateMutability": "nonpayable",
					"type": "function"
				},
				{
					"inputs": [],
					"name": "minBetAmount",
					"outputs": [
						{
							"internalType": "uint256",
							"name": "",
							"type": "uint256"
						}
					],
					"stateMutability": "view",
					"type": "function"
				},
				{
					"inputs": [],
					"name": "owner",
					"outputs": [
						{
							"internalType": "address",
							"name": "",
							"type": "address"
						}
					],
					"stateMutability": "view",
					"type": "function"
				},
				{
					"inputs": [
						{
							"internalType": "uint256",
							"name": "gameId",
							"type": "uint256"
						}
					],
					"name": "restartGame",
					"outputs": [],
					"stateMutability": "nonpayable",
					"type": "function"
				},
				{
					"inputs": [],
					"name": "totalAmount",
					"outputs": [
						{
							"internalType": "uint256",
							"name": "",
							"type": "uint256"
						}
					],
					"stateMutability": "view",
					"type": "function"
				},
				{
					"inputs": [],
					"name": "treasury",
					"outputs": [
						{
							"internalType": "address",
							"name": "",
							"type": "address"
						}
					],
					"stateMutability": "view",
					"type": "function"
				},
				{
					"inputs": [],
					"name": "treasuryFee",
					"outputs": [
						{
							"internalType": "uint256",
							"name": "",
							"type": "uint256"
						}
					],
					"stateMutability": "view",
					"type": "function"
				},
				{
					"inputs": [
						{
							"internalType": "uint256",
							"name": "input",
							"type": "uint256"
						},
						{
							"internalType": "uint256",
							"name": "gameId",
							"type": "uint256"
						}
					],
					"name": "userInput",
					"outputs": [],
					"stateMutability": "nonpayable",
					"type": "function"
				},
				{
					"inputs": [
						{
							"internalType": "uint256",
							"name": "gameId",
							"type": "uint256"
						}
					],
					"name": "validateRestartPlayer",
					"outputs": [],
					"stateMutability": "nonpayable",
					"type": "function"
				}
			],
			"devdoc": {
				"kind": "dev",
				"methods": {},
				"version": 1
			},
			"evm": {
				"assembly": "    /* \"Practical6-Apply-TTT-Token.sol\":169:244  IERC20 public TTTToken = IERC20(0xc6bDdCd0DA1c50281f02a57B8D2ada2ebF76AEC7) */\n  0x00\n  dup1\n  sload\n  not(sub(shl(0xa0, 0x01), 0x01))\n  swap1\n  dup2\n  and\n    /* \"Practical6-Apply-TTT-Token.sol\":201:243  0xc6bDdCd0DA1c50281f02a57B8D2ada2ebF76AEC7 */\n  0xc6bddcd0da1c50281f02a57b8d2ada2ebf76aec7\n    /* \"Practical6-Apply-TTT-Token.sol\":169:244  IERC20 public TTTToken = IERC20(0xc6bDdCd0DA1c50281f02a57B8D2ada2ebF76AEC7) */\n  or\n  dup3\n  sstore\n    /* \"Practical6-Apply-TTT-Token.sol\":313:321  10 ether */\n  0x8ac7230489e80000\n    /* \"Practical6-Apply-TTT-Token.sol\":169:244  IERC20 public TTTToken = IERC20(0xc6bDdCd0DA1c50281f02a57B8D2ada2ebF76AEC7) */\n  0x01\n    /* \"Practical6-Apply-TTT-Token.sol\":283:321  uint256 public minBetAmount = 10 ether */\n  swap1\n  dup2\n  sstore\n    /* \"Practical6-Apply-TTT-Token.sol\":334:402  address public treasury = 0x3cE5a8a72820585C60F659896338D57347196991 */\n  0x02\n  dup1\n  sload\n  swap1\n  swap3\n  and\n    /* \"Practical6-Apply-TTT-Token.sol\":360:402  0x3cE5a8a72820585C60F659896338D57347196991 */\n  0x3ce5a8a72820585c60f659896338d57347196991\n    /* \"Practical6-Apply-TTT-Token.sol\":334:402  address public treasury = 0x3cE5a8a72820585C60F659896338D57347196991 */\n  or\n  dup3\n  sstore\n    /* \"Practical6-Apply-TTT-Token.sol\":438:439  5 */\n  0x05\n    /* \"Practical6-Apply-TTT-Token.sol\":413:439  uint256 public burnFee = 5 */\n  0x03\n  dup2\n  dup2\n  sstore\n    /* \"Practical6-Apply-TTT-Token.sol\":450:480  uint256 public treasuryFee = 5 */\n  0x04\n  dup3\n  dup2\n  sstore\n    /* \"Practical6-Apply-TTT-Token.sol\":1715:2010  uint[][] private winConditionSet=  ... */\n  0x0180\n  dup7\n  dup2\n  mstore\n  0x01a0\n  dup6\n  swap1\n  mstore\n  0x01c0\n  dup7\n  swap1\n  mstore\n    /* \"Practical6-Apply-TTT-Token.sol\":138:14559  contract TickTackToe{... */\n  0x80\n    /* \"Practical6-Apply-TTT-Token.sol\":1715:2010  uint[][] private winConditionSet=  ... */\n  swap1\n  dup2\n  mstore\n  0x01e0\n  dup4\n  dup2\n  mstore\n  0x0200\n  dup4\n  swap1\n  mstore\n  0x0220\n  dup6\n  swap1\n  mstore\n  0xa0\n  mstore\n    /* \"Practical6-Apply-TTT-Token.sol\":1832:1833  6 */\n  0x06\n    /* \"Practical6-Apply-TTT-Token.sol\":1715:2010  uint[][] private winConditionSet=  ... */\n  0x0240\n  dup2\n  dup2\n  mstore\n    /* \"Practical6-Apply-TTT-Token.sol\":1835:1836  7 */\n  0x07\n    /* \"Practical6-Apply-TTT-Token.sol\":1715:2010  uint[][] private winConditionSet=  ... */\n  0x0260\n  dup2\n  swap1\n  mstore\n    /* \"Practical6-Apply-TTT-Token.sol\":1838:1839  8 */\n  0x08\n    /* \"Practical6-Apply-TTT-Token.sol\":1715:2010  uint[][] private winConditionSet=  ... */\n  0x0280\n  dup2\n  swap1\n  mstore\n  0xc0\n  swap3\n  swap1\n  swap3\n  mstore\n  0x02a0\n  dup11\n  dup2\n  mstore\n  0x02c0\n  swap7\n  swap1\n  swap7\n  mstore\n  0x02e0\n  dup4\n  swap1\n  mstore\n  0xe0\n  swap6\n  swap1\n  swap6\n  mstore\n  0x0300\n  swap7\n  dup8\n  mstore\n  0x0320\n  dup5\n  swap1\n  mstore\n  0x0340\n  swap5\n  swap1\n  swap5\n  mstore\n    /* \"Practical6-Apply-TTT-Token.sol\":169:244  IERC20 public TTTToken = IERC20(0xc6bDdCd0DA1c50281f02a57B8D2ada2ebF76AEC7) */\n  0x0100\n    /* \"Practical6-Apply-TTT-Token.sol\":1715:2010  uint[][] private winConditionSet=  ... */\n  swap6\n  swap1\n  swap6\n  mstore\n  0x0360\n  dup7\n  dup2\n  mstore\n  0x0380\n  swap5\n  swap1\n  swap5\n  mstore\n  0x03a0\n  dup4\n  swap1\n  mstore\n  0x0120\n  swap4\n  swap1\n  swap4\n  mstore\n  0x03c0\n  swap6\n  dup7\n  mstore\n  0x03e0\n  dup2\n  swap1\n  mstore\n  0x0400\n  dup3\n  swap1\n  mstore\n  0x0140\n  swap6\n  swap1\n  swap6\n  mstore\n  0x0480\n    /* \"Practical6-Apply-TTT-Token.sol\":138:14559  contract TickTackToe{... */\n  0x40\n    /* \"Practical6-Apply-TTT-Token.sol\":1715:2010  uint[][] private winConditionSet=  ... */\n  mstore\n  0x0420\n  swap4\n  dup5\n  mstore\n  0x0440\n  swap5\n  swap1\n  swap5\n  mstore\n  0x0460\n  swap2\n  swap1\n  swap2\n  mstore\n  0x0160\n  swap2\n  swap1\n  swap2\n  mstore\n  tag_1\n  swap2\n    /* \"Practical6-Apply-TTT-Token.sol\":1838:1839  8 */\n  swap1\n  dup2\n    /* \"Practical6-Apply-TTT-Token.sol\":1715:2010  uint[][] private winConditionSet=  ... */\n  tag_2\n  jump\t// in\ntag_1:\n  pop\n    /* \"Practical6-Apply-TTT-Token.sol\":2727:2786  constructor() {... */\n  callvalue\n  dup1\n  iszero\n  tag_3\n  jumpi\n  0x00\n  dup1\n  revert\ntag_3:\n  pop\n    /* \"Practical6-Apply-TTT-Token.sol\":2756:2761  owner */\n  0x06\n    /* \"Practical6-Apply-TTT-Token.sol\":2756:2774  owner = msg.sender */\n  dup1\n  sload\n  not(sub(shl(0xa0, 0x01), 0x01))\n  and\n    /* \"Practical6-Apply-TTT-Token.sol\":2764:2774  msg.sender */\n  caller\n    /* \"Practical6-Apply-TTT-Token.sol\":2756:2774  owner = msg.sender */\n  or\n  swap1\n  sstore\n    /* \"Practical6-Apply-TTT-Token.sol\":138:14559  contract TickTackToe{... */\n  jump(tag_6)\ntag_2:\n  dup3\n  dup1\n  sload\n  dup3\n  dup3\n  sstore\n  swap1\n  0x00\n  mstore\n  keccak256(0x00, 0x20)\n  swap1\n  dup2\n  add\n  swap3\n  dup3\n  iszero\n  tag_9\n  jumpi\n  swap2\n  0x20\n  mul\n  dup3\n  add\ntag_8:\n  dup3\n  dup2\n  gt\n  iszero\n  tag_9\n  jumpi\n  dup3\n  mload\n  tag_10\n  swap1\n  dup4\n  swap1\n  0x03\n  tag_11\n  jump\t// in\ntag_10:\n  pop\n  swap2\n  0x20\n  add\n  swap2\n  swap1\n  0x01\n  add\n  swap1\n  jump(tag_8)\ntag_9:\n  pop\n  tag_12\n  swap3\n  swap2\n  pop\n  tag_13\n  jump\t// in\ntag_12:\n  pop\n  swap1\n  jump\t// out\ntag_11:\n  dup3\n  dup1\n  sload\n  dup3\n  dup3\n  sstore\n  swap1\n  0x00\n  mstore\n  keccak256(0x00, 0x20)\n  swap1\n  dup2\n  add\n  swap3\n  dup3\n  iszero\n  tag_16\n  jumpi\n  swap2\n  0x20\n  mul\n  dup3\n  add\ntag_15:\n  dup3\n  dup2\n  gt\n  iszero\n  tag_16\n  jumpi\n  dup3\n  mload\n  dup3\n  swap1\n  0xff\n  and\n  swap1\n  sstore\n  swap2\n  0x20\n  add\n  swap2\n  swap1\n  0x01\n  add\n  swap1\n  jump(tag_15)\ntag_16:\n  pop\n  tag_12\n  swap3\n  swap2\n  pop\n  tag_18\n  jump\t// in\ntag_13:\n  dup1\n  dup3\n  gt\n  iszero\n  tag_12\n  jumpi\n  0x00\n  tag_21\n  dup3\n  dup3\n  tag_22\n  jump\t// in\ntag_21:\n  pop\n  0x01\n  add\n  jump(tag_13)\ntag_18:\ntag_23:\n  dup1\n  dup3\n  gt\n  iszero\n  tag_12\n  jumpi\n  0x00\n  dup2\n  sstore\n  0x01\n  add\n  jump(tag_23)\ntag_22:\n  pop\n  dup1\n  sload\n  0x00\n  dup3\n  sstore\n  swap1\n  0x00\n  mstore\n  keccak256(0x00, 0x20)\n  swap1\n  dup2\n  add\n  swap1\n  tag_26\n  swap2\n  swap1\n  tag_18\n  jump\t// in\ntag_26:\n  pop\n  jump\t// out\ntag_6:\n  dataSize(sub_0)\n  dup1\n  dataOffset(sub_0)\n  0x00\n  codecopy\n  0x00\n  return\nstop\n\nsub_0: assembly {\n        /* \"Practical6-Apply-TTT-Token.sol\":138:14559  contract TickTackToe{... */\n      mstore(0x40, 0x80)\n      callvalue\n      dup1\n      iszero\n      tag_1\n      jumpi\n      0x00\n      dup1\n      revert\n    tag_1:\n      pop\n      jumpi(tag_2, lt(calldatasize, 0x04))\n      shr(0xe0, calldataload(0x00))\n      dup1\n      0x888b042f\n      gt\n      tag_23\n      jumpi\n      dup1\n      0xcc32d176\n      gt\n      tag_24\n      jumpi\n      dup1\n      0xcc32d176\n      eq\n      tag_18\n      jumpi\n      dup1\n      0xdc572c6e\n      eq\n      tag_19\n      jumpi\n      dup1\n      0xedb84ff7\n      eq\n      tag_20\n      jumpi\n      dup1\n      0xfa968eea\n      eq\n      tag_21\n      jumpi\n      dup1\n      0xfce589d8\n      eq\n      tag_22\n      jumpi\n      0x00\n      dup1\n      revert\n    tag_24:\n      dup1\n      0x888b042f\n      eq\n      tag_13\n      jumpi\n      dup1\n      0x8da5cb5b\n      eq\n      tag_14\n      jumpi\n      dup1\n      0xb2182be4\n      eq\n      tag_15\n      jumpi\n      dup1\n      0xb60b9fcb\n      eq\n      tag_16\n      jumpi\n      dup1\n      0xbed34bba\n      eq\n      tag_17\n      jumpi\n      0x00\n      dup1\n      revert\n    tag_23:\n      dup1\n      0x4a968391\n      gt\n      tag_25\n      jumpi\n      dup1\n      0x4a968391\n      eq\n      tag_8\n      jumpi\n      dup1\n      0x52bc3410\n      eq\n      tag_9\n      jumpi\n      dup1\n      0x61d027b3\n      eq\n      tag_10\n      jumpi\n      dup1\n      0x7effb427\n      eq\n      tag_11\n      jumpi\n      dup1\n      0x87052fab\n      eq\n      tag_12\n      jumpi\n      0x00\n      dup1\n      revert\n    tag_25:\n      dup1\n      0x06139e8d\n      eq\n      tag_3\n      jumpi\n      dup1\n      0x17b44960\n      eq\n      tag_4\n      jumpi\n      dup1\n      0x1a39d8ef\n      eq\n      tag_5\n      jumpi\n      dup1\n      0x34fd3518\n      eq\n      tag_6\n      jumpi\n      dup1\n      0x491f0136\n      eq\n      tag_7\n      jumpi\n    tag_2:\n      0x00\n      dup1\n      revert\n        /* \"Practical6-Apply-TTT-Token.sol\":4331:5789  function createGameRoom(uint256 betAmount) external noReentrancy {... */\n    tag_3:\n      tag_26\n      tag_27\n      calldatasize\n      0x04\n      tag_28\n      jump\t// in\n    tag_27:\n      tag_29\n      jump\t// in\n    tag_26:\n      stop\n        /* \"Practical6-Apply-TTT-Token.sol\":3842:3993  function getFinalWinOption (uint gameId) external view returns (uint[] memory){... */\n    tag_4:\n      tag_30\n      tag_31\n      calldatasize\n      0x04\n      tag_28\n      jump\t// in\n    tag_31:\n      tag_32\n      jump\t// in\n    tag_30:\n      mload(0x40)\n      tag_33\n      swap2\n      swap1\n      tag_34\n      jump\t// in\n    tag_33:\n      mload(0x40)\n      dup1\n      swap2\n      sub\n      swap1\n      return\n        /* \"Practical6-Apply-TTT-Token.sol\":493:519  uint256 public totalAmount */\n    tag_5:\n      tag_35\n      sload(0x05)\n      dup2\n      jump\n    tag_35:\n      mload(0x40)\n        /* \"#utility.yul\":982:1007   */\n      swap1\n      dup2\n      mstore\n        /* \"#utility.yul\":970:972   */\n      0x20\n        /* \"#utility.yul\":955:973   */\n      add\n        /* \"Practical6-Apply-TTT-Token.sol\":493:519  uint256 public totalAmount */\n      tag_33\n        /* \"#utility.yul\":836:1013   */\n      jump\n        /* \"Practical6-Apply-TTT-Token.sol\":13569:13911  function validateRestartPlayer (uint gameId) public {... */\n    tag_6:\n      tag_26\n      tag_40\n      calldatasize\n      0x04\n      tag_28\n      jump\t// in\n    tag_40:\n      tag_41\n      jump\t// in\n        /* \"Practical6-Apply-TTT-Token.sol\":4163:4287  function getAllGameInformation () external view returns (GameInfo[] memory){... */\n    tag_7:\n      tag_42\n      tag_43\n      jump\t// in\n    tag_42:\n      mload(0x40)\n      tag_33\n      swap2\n      swap1\n      tag_45\n      jump\t// in\n        /* \"Practical6-Apply-TTT-Token.sol\":14262:14550  function restartGame(uint gameId) public {... */\n    tag_8:\n      tag_26\n      tag_47\n      calldatasize\n      0x04\n      tag_28\n      jump\t// in\n    tag_47:\n      tag_48\n      jump\t// in\n        /* \"Practical6-Apply-TTT-Token.sol\":7876:8922  function userInput(uint input, uint gameId) external {... */\n    tag_9:\n      tag_26\n      tag_50\n      calldatasize\n      0x04\n      tag_51\n      jump\t// in\n    tag_50:\n      tag_52\n      jump\t// in\n        /* \"Practical6-Apply-TTT-Token.sol\":334:402  address public treasury = 0x3cE5a8a72820585C60F659896338D57347196991 */\n    tag_10:\n      sload(0x02)\n      tag_53\n      swap1\n      sub(shl(0xa0, 0x01), 0x01)\n      and\n      dup2\n      jump\n    tag_53:\n      mload(0x40)\n      sub(shl(0xa0, 0x01), 0x01)\n        /* \"#utility.yul\":5346:5378   */\n      swap1\n      swap2\n      and\n        /* \"#utility.yul\":5328:5379   */\n      dup2\n      mstore\n        /* \"#utility.yul\":5316:5318   */\n      0x20\n        /* \"#utility.yul\":5301:5319   */\n      add\n        /* \"Practical6-Apply-TTT-Token.sol\":334:402  address public treasury = 0x3cE5a8a72820585C60F659896338D57347196991 */\n      tag_33\n        /* \"#utility.yul\":5182:5385   */\n      jump\n        /* \"Practical6-Apply-TTT-Token.sol\":169:244  IERC20 public TTTToken = IERC20(0xc6bDdCd0DA1c50281f02a57B8D2ada2ebF76AEC7) */\n    tag_11:\n      sload(0x00)\n      tag_53\n      swap1\n      sub(shl(0xa0, 0x01), 0x01)\n      and\n      dup2\n      jump\n        /* \"Practical6-Apply-TTT-Token.sol\":1065:1098  GameInfo[] public gameInformation */\n    tag_12:\n      tag_61\n      tag_62\n      calldatasize\n      0x04\n      tag_28\n      jump\t// in\n    tag_62:\n      tag_63\n      jump\t// in\n    tag_61:\n      mload(0x40)\n      tag_33\n      swap10\n      swap9\n      swap8\n      swap7\n      swap6\n      swap5\n      swap4\n      swap3\n      swap2\n      swap1\n      tag_65\n      jump\t// in\n        /* \"Practical6-Apply-TTT-Token.sol\":2973:3220  function getExcessBalance() external onlyOwner{... */\n    tag_13:\n      tag_26\n      tag_67\n      jump\t// in\n        /* \"Practical6-Apply-TTT-Token.sol\":532:552  address public owner */\n    tag_14:\n      sload(0x06)\n      tag_53\n      swap1\n      sub(shl(0xa0, 0x01), 0x01)\n      and\n      dup2\n      jump\n        /* \"Practical6-Apply-TTT-Token.sol\":4005:4143  function getGameInformation (uint gameId) external view returns (GameInfo memory){... */\n    tag_15:\n      tag_71\n      tag_72\n      calldatasize\n      0x04\n      tag_28\n      jump\t// in\n    tag_72:\n      tag_73\n      jump\t// in\n    tag_71:\n      mload(0x40)\n      tag_33\n      swap2\n      swap1\n      tag_75\n      jump\t// in\n        /* \"Practical6-Apply-TTT-Token.sol\":5824:7758  function joinGame (uint gameId, uint256 betAmount) external noReentrancy {... */\n    tag_16:\n      tag_26\n      tag_77\n      calldatasize\n      0x04\n      tag_51\n      jump\t// in\n    tag_77:\n      tag_78\n      jump\t// in\n        /* \"Practical6-Apply-TTT-Token.sol\":13290:13549  function compareStrings(string memory a, string memory b) public pure returns (bool) {... */\n    tag_17:\n      tag_79\n      tag_80\n      calldatasize\n      0x04\n      tag_81\n      jump\t// in\n    tag_80:\n      tag_82\n      jump\t// in\n    tag_79:\n      mload(0x40)\n        /* \"#utility.yul\":8339:8353   */\n      swap1\n      iszero\n        /* \"#utility.yul\":8332:8354   */\n      iszero\n        /* \"#utility.yul\":8314:8355   */\n      dup2\n      mstore\n        /* \"#utility.yul\":8302:8304   */\n      0x20\n        /* \"#utility.yul\":8287:8305   */\n      add\n        /* \"Practical6-Apply-TTT-Token.sol\":13290:13549  function compareStrings(string memory a, string memory b) public pure returns (bool) {... */\n      tag_33\n        /* \"#utility.yul\":8174:8361   */\n      jump\n        /* \"Practical6-Apply-TTT-Token.sol\":450:480  uint256 public treasuryFee = 5 */\n    tag_18:\n      tag_35\n      sload(0x04)\n      dup2\n      jump\n        /* \"Practical6-Apply-TTT-Token.sol\":3645:3783  function getoption (uint gameId) external view returns (string[] memory){... */\n    tag_19:\n      tag_88\n      tag_89\n      calldatasize\n      0x04\n      tag_28\n      jump\t// in\n    tag_89:\n      tag_90\n      jump\t// in\n    tag_88:\n      mload(0x40)\n      tag_33\n      swap2\n      swap1\n      tag_92\n      jump\t// in\n        /* \"Practical6-Apply-TTT-Token.sol\":2834:2961  function getAllMoney() external onlyOwner{... */\n    tag_20:\n      tag_26\n      tag_94\n      jump\t// in\n        /* \"Practical6-Apply-TTT-Token.sol\":283:321  uint256 public minBetAmount = 10 ether */\n    tag_21:\n      tag_35\n      sload(0x01)\n      dup2\n      jump\n        /* \"Practical6-Apply-TTT-Token.sol\":413:439  uint256 public burnFee = 5 */\n    tag_22:\n      tag_35\n      sload(0x03)\n      dup2\n      jump\n        /* \"Practical6-Apply-TTT-Token.sol\":4331:5789  function createGameRoom(uint256 betAmount) external noReentrancy {... */\n    tag_29:\n        /* \"Practical6-Apply-TTT-Token.sol\":3478:3484  locked */\n      sload(0x06)\n      shl(0xa0, 0x01)\n      swap1\n      div\n      0xff\n      and\n        /* \"Practical6-Apply-TTT-Token.sol\":3477:3484  !locked */\n      iszero\n        /* \"Practical6-Apply-TTT-Token.sol\":3469:3510  require(!locked, \"Error: Reentrant call\") */\n      tag_102\n      jumpi\n      mload(0x40)\n      shl(0xe5, 0x461bcd)\n      dup2\n      mstore\n        /* \"#utility.yul\":9376:9378   */\n      0x20\n        /* \"Practical6-Apply-TTT-Token.sol\":3469:3510  require(!locked, \"Error: Reentrant call\") */\n      0x04\n      dup3\n      add\n        /* \"#utility.yul\":9358:9379   */\n      mstore\n        /* \"#utility.yul\":9415:9417   */\n      0x15\n        /* \"#utility.yul\":9395:9413   */\n      0x24\n      dup3\n      add\n        /* \"#utility.yul\":9388:9418   */\n      mstore\n      shl(0x5a, 0x115c9c9bdc8e881499595b9d1c985b9d0818d85b1b)\n        /* \"#utility.yul\":9434:9452   */\n      0x44\n      dup3\n      add\n        /* \"#utility.yul\":9427:9478   */\n      mstore\n        /* \"#utility.yul\":9495:9513   */\n      0x64\n      add\n        /* \"Practical6-Apply-TTT-Token.sol\":3469:3510  require(!locked, \"Error: Reentrant call\") */\n    tag_103:\n      mload(0x40)\n      dup1\n      swap2\n      sub\n      swap1\n      revert\n    tag_102:\n        /* \"Practical6-Apply-TTT-Token.sol\":3525:3531  locked */\n      0x06\n        /* \"Practical6-Apply-TTT-Token.sol\":3525:3538  locked = true */\n      dup1\n      sload\n      not(shl(0xa0, 0xff))\n      and\n      shl(0xa0, 0x01)\n      or\n      swap1\n      sstore\n      0x00\n        /* \"Practical6-Apply-TTT-Token.sol\":4419:4427  TTTToken */\n      sload\n        /* \"Practical6-Apply-TTT-Token.sol\":4419:4449  TTTToken.balanceOf(msg.sender) */\n      mload(0x40)\n      shl(0xe0, 0x70a08231)\n      dup2\n      mstore\n        /* \"Practical6-Apply-TTT-Token.sol\":4438:4448  msg.sender */\n      caller\n        /* \"Practical6-Apply-TTT-Token.sol\":4419:4449  TTTToken.balanceOf(msg.sender) */\n      0x04\n      dup3\n      add\n        /* \"#utility.yul\":5328:5379   */\n      mstore\n        /* \"Practical6-Apply-TTT-Token.sol\":4453:4462  betAmount */\n      dup3\n      swap2\n      sub(shl(0xa0, 0x01), 0x01)\n        /* \"Practical6-Apply-TTT-Token.sol\":4419:4427  TTTToken */\n      and\n      swap1\n        /* \"Practical6-Apply-TTT-Token.sol\":4419:4437  TTTToken.balanceOf */\n      0x70a08231\n      swap1\n        /* \"#utility.yul\":5301:5319   */\n      0x24\n      add\n        /* \"Practical6-Apply-TTT-Token.sol\":4419:4449  TTTToken.balanceOf(msg.sender) */\n      0x20\n      mload(0x40)\n      dup1\n      dup4\n      sub\n      dup2\n      dup7\n      gas\n      staticcall\n      iszero\n      dup1\n      iszero\n      tag_108\n      jumpi\n      returndatasize\n      0x00\n      dup1\n      returndatacopy\n      revert(0x00, returndatasize)\n    tag_108:\n      pop\n      pop\n      pop\n      pop\n      mload(0x40)\n      returndatasize\n      not(0x1f)\n      0x1f\n      dup3\n      add\n      and\n      dup3\n      add\n      dup1\n      0x40\n      mstore\n      pop\n      dup2\n      add\n      swap1\n      tag_109\n      swap2\n      swap1\n      tag_110\n      jump\t// in\n    tag_109:\n        /* \"Practical6-Apply-TTT-Token.sol\":4419:4462  TTTToken.balanceOf(msg.sender) >= betAmount */\n      lt\n      iszero\n        /* \"Practical6-Apply-TTT-Token.sol\":4411:4485  require(TTTToken.balanceOf(msg.sender) >= betAmount, \"Not enough balance\") */\n      tag_111\n      jumpi\n      mload(0x40)\n      shl(0xe5, 0x461bcd)\n      dup2\n      mstore\n        /* \"#utility.yul\":9915:9917   */\n      0x20\n        /* \"Practical6-Apply-TTT-Token.sol\":4411:4485  require(TTTToken.balanceOf(msg.sender) >= betAmount, \"Not enough balance\") */\n      0x04\n      dup3\n      add\n        /* \"#utility.yul\":9897:9918   */\n      mstore\n        /* \"#utility.yul\":9954:9956   */\n      0x12\n        /* \"#utility.yul\":9934:9952   */\n      0x24\n      dup3\n      add\n        /* \"#utility.yul\":9927:9957   */\n      mstore\n      shl(0x70, 0x4e6f7420656e6f7567682062616c616e6365)\n        /* \"#utility.yul\":9973:9991   */\n      0x44\n      dup3\n      add\n        /* \"#utility.yul\":9966:10014   */\n      mstore\n        /* \"#utility.yul\":10031:10049   */\n      0x64\n      add\n        /* \"Practical6-Apply-TTT-Token.sol\":4411:4485  require(TTTToken.balanceOf(msg.sender) >= betAmount, \"Not enough balance\") */\n      tag_103\n        /* \"#utility.yul\":9713:10055   */\n      jump\n        /* \"Practical6-Apply-TTT-Token.sol\":4411:4485  require(TTTToken.balanceOf(msg.sender) >= betAmount, \"Not enough balance\") */\n    tag_111:\n        /* \"Practical6-Apply-TTT-Token.sol\":4521:4533  minBetAmount */\n      sload(0x01)\n        /* \"Practical6-Apply-TTT-Token.sol\":4508:4517  betAmount */\n      dup2\n        /* \"Practical6-Apply-TTT-Token.sol\":4508:4533  betAmount >= minBetAmount */\n      lt\n      iszero\n        /* \"Practical6-Apply-TTT-Token.sol\":4500:4564  require(betAmount >= minBetAmount, \"Need to pay min bet amount\") */\n      tag_114\n      jumpi\n      mload(0x40)\n      shl(0xe5, 0x461bcd)\n      dup2\n      mstore\n        /* \"#utility.yul\":10262:10264   */\n      0x20\n        /* \"Practical6-Apply-TTT-Token.sol\":4500:4564  require(betAmount >= minBetAmount, \"Need to pay min bet amount\") */\n      0x04\n      dup3\n      add\n        /* \"#utility.yul\":10244:10265   */\n      mstore\n        /* \"#utility.yul\":10301:10303   */\n      0x1a\n        /* \"#utility.yul\":10281:10299   */\n      0x24\n      dup3\n      add\n        /* \"#utility.yul\":10274:10304   */\n      mstore\n        /* \"#utility.yul\":10340:10368   */\n      0x4e65656420746f20706179206d696e2062657420616d6f756e74000000000000\n        /* \"#utility.yul\":10320:10338   */\n      0x44\n      dup3\n      add\n        /* \"#utility.yul\":10313:10369   */\n      mstore\n        /* \"#utility.yul\":10386:10404   */\n      0x64\n      add\n        /* \"Practical6-Apply-TTT-Token.sol\":4500:4564  require(betAmount >= minBetAmount, \"Need to pay min bet amount\") */\n      tag_103\n        /* \"#utility.yul\":10060:10410   */\n      jump\n        /* \"Practical6-Apply-TTT-Token.sol\":4500:4564  require(betAmount >= minBetAmount, \"Need to pay min bet amount\") */\n    tag_114:\n        /* \"Practical6-Apply-TTT-Token.sol\":4581:4599  uint256 burnAmount */\n      0x00\n        /* \"Practical6-Apply-TTT-Token.sol\":4626:4629  100 */\n      0x64\n        /* \"Practical6-Apply-TTT-Token.sol\":4615:4622  burnFee */\n      sload(0x03)\n        /* \"Practical6-Apply-TTT-Token.sol\":4603:4612  betAmount */\n      dup4\n        /* \"Practical6-Apply-TTT-Token.sol\":4603:4622  betAmount * burnFee */\n      tag_117\n      swap2\n      swap1\n      tag_118\n      jump\t// in\n    tag_117:\n        /* \"Practical6-Apply-TTT-Token.sol\":4602:4629  (betAmount * burnFee) / 100 */\n      tag_119\n      swap2\n      swap1\n      tag_120\n      jump\t// in\n    tag_119:\n        /* \"Practical6-Apply-TTT-Token.sol\":4581:4629  uint256 burnAmount = (betAmount * burnFee) / 100 */\n      swap1\n      pop\n        /* \"Practical6-Apply-TTT-Token.sol\":4644:4666  uint256 treasuryAmount */\n      0x00\n        /* \"Practical6-Apply-TTT-Token.sol\":4697:4700  100 */\n      0x64\n        /* \"Practical6-Apply-TTT-Token.sol\":4682:4693  treasuryFee */\n      sload(0x04)\n        /* \"Practical6-Apply-TTT-Token.sol\":4670:4679  betAmount */\n      dup5\n        /* \"Practical6-Apply-TTT-Token.sol\":4670:4693  betAmount * treasuryFee */\n      tag_121\n      swap2\n      swap1\n      tag_118\n      jump\t// in\n    tag_121:\n        /* \"Practical6-Apply-TTT-Token.sol\":4669:4700  (betAmount * treasuryFee) / 100 */\n      tag_122\n      swap2\n      swap1\n      tag_120\n      jump\t// in\n    tag_122:\n        /* \"Practical6-Apply-TTT-Token.sol\":4644:4700  uint256 treasuryAmount = (betAmount * treasuryFee) / 100 */\n      swap1\n      pop\n        /* \"Practical6-Apply-TTT-Token.sol\":4715:4735  uint256 rewardAmount */\n      0x00\n        /* \"Practical6-Apply-TTT-Token.sol\":4644:4700  uint256 treasuryAmount = (betAmount * treasuryFee) / 100 */\n      dup2\n        /* \"Practical6-Apply-TTT-Token.sol\":4738:4760  betAmount - burnAmount */\n      tag_123\n        /* \"Practical6-Apply-TTT-Token.sol\":4750:4760  burnAmount */\n      dup5\n        /* \"Practical6-Apply-TTT-Token.sol\":4738:4747  betAmount */\n      dup7\n        /* \"Practical6-Apply-TTT-Token.sol\":4738:4760  betAmount - burnAmount */\n      tag_124\n      jump\t// in\n    tag_123:\n        /* \"Practical6-Apply-TTT-Token.sol\":4738:4777  betAmount - burnAmount - treasuryAmount */\n      tag_125\n      swap2\n      swap1\n      tag_124\n      jump\t// in\n    tag_125:\n        /* \"Practical6-Apply-TTT-Token.sol\":4794:4802  TTTToken */\n      sload(0x00)\n        /* \"Practical6-Apply-TTT-Token.sol\":4794:4856  TTTToken.transferFrom(msg.sender, address(0xdead), burnAmount) */\n      mload(0x40)\n      shl(0xe0, 0x23b872dd)\n      dup2\n      mstore\n        /* \"Practical6-Apply-TTT-Token.sol\":4715:4777  uint256 rewardAmount = betAmount - burnAmount - treasuryAmount */\n      swap2\n      swap3\n      pop\n      sub(shl(0xa0, 0x01), 0x01)\n        /* \"Practical6-Apply-TTT-Token.sol\":4794:4802  TTTToken */\n      and\n      swap1\n        /* \"Practical6-Apply-TTT-Token.sol\":4794:4815  TTTToken.transferFrom */\n      0x23b872dd\n      swap1\n        /* \"Practical6-Apply-TTT-Token.sol\":4794:4856  TTTToken.transferFrom(msg.sender, address(0xdead), burnAmount) */\n      tag_126\n      swap1\n        /* \"Practical6-Apply-TTT-Token.sol\":4816:4826  msg.sender */\n      caller\n      swap1\n        /* \"Practical6-Apply-TTT-Token.sol\":4836:4842  0xdead */\n      0xdead\n      swap1\n        /* \"Practical6-Apply-TTT-Token.sol\":4845:4855  burnAmount */\n      dup9\n      swap1\n        /* \"Practical6-Apply-TTT-Token.sol\":4794:4856  TTTToken.transferFrom(msg.sender, address(0xdead), burnAmount) */\n      0x04\n      add\n      tag_127\n      jump\t// in\n    tag_126:\n      0x20\n      mload(0x40)\n      dup1\n      dup4\n      sub\n      dup2\n      0x00\n      dup8\n      gas\n      call\n      iszero\n      dup1\n      iszero\n      tag_129\n      jumpi\n      returndatasize\n      0x00\n      dup1\n      returndatacopy\n      revert(0x00, returndatasize)\n    tag_129:\n      pop\n      pop\n      pop\n      pop\n      mload(0x40)\n      returndatasize\n      not(0x1f)\n      0x1f\n      dup3\n      add\n      and\n      dup3\n      add\n      dup1\n      0x40\n      mstore\n      pop\n      dup2\n      add\n      swap1\n      tag_130\n      swap2\n      swap1\n      tag_131\n      jump\t// in\n    tag_130:\n      pop\n        /* \"Practical6-Apply-TTT-Token.sol\":4871:4879  TTTToken */\n      sload(0x00)\n        /* \"Practical6-Apply-TTT-Token.sol\":4905:4913  treasury */\n      sload(0x02)\n        /* \"Practical6-Apply-TTT-Token.sol\":4871:4930  TTTToken.transferFrom(msg.sender, treasury, treasuryAmount) */\n      mload(0x40)\n      shl(0xe0, 0x23b872dd)\n      dup2\n      mstore\n      sub(shl(0xa0, 0x01), 0x01)\n        /* \"Practical6-Apply-TTT-Token.sol\":4871:4879  TTTToken */\n      swap3\n      dup4\n      and\n      swap3\n        /* \"Practical6-Apply-TTT-Token.sol\":4871:4892  TTTToken.transferFrom */\n      0x23b872dd\n      swap3\n        /* \"Practical6-Apply-TTT-Token.sol\":4871:4930  TTTToken.transferFrom(msg.sender, treasury, treasuryAmount) */\n      tag_132\n      swap3\n        /* \"Practical6-Apply-TTT-Token.sol\":4893:4903  msg.sender */\n      caller\n      swap3\n        /* \"Practical6-Apply-TTT-Token.sol\":4905:4913  treasury */\n      swap1\n      swap2\n      and\n      swap1\n        /* \"Practical6-Apply-TTT-Token.sol\":4915:4929  treasuryAmount */\n      dup8\n      swap1\n        /* \"Practical6-Apply-TTT-Token.sol\":4871:4930  TTTToken.transferFrom(msg.sender, treasury, treasuryAmount) */\n      0x04\n      add\n      tag_127\n      jump\t// in\n    tag_132:\n      0x20\n      mload(0x40)\n      dup1\n      dup4\n      sub\n      dup2\n      0x00\n      dup8\n      gas\n      call\n      iszero\n      dup1\n      iszero\n      tag_134\n      jumpi\n      returndatasize\n      0x00\n      dup1\n      returndatacopy\n      revert(0x00, returndatasize)\n    tag_134:\n      pop\n      pop\n      pop\n      pop\n      mload(0x40)\n      returndatasize\n      not(0x1f)\n      0x1f\n      dup3\n      add\n      and\n      dup3\n      add\n      dup1\n      0x40\n      mstore\n      pop\n      dup2\n      add\n      swap1\n      tag_135\n      swap2\n      swap1\n      tag_131\n      jump\t// in\n    tag_135:\n      pop\n        /* \"Practical6-Apply-TTT-Token.sol\":4945:4953  TTTToken */\n      sload(0x00)\n        /* \"Practical6-Apply-TTT-Token.sol\":4945:5007  TTTToken.transferFrom(msg.sender, address(this), rewardAmount) */\n      mload(0x40)\n      shl(0xe0, 0x23b872dd)\n      dup2\n      mstore\n      sub(shl(0xa0, 0x01), 0x01)\n        /* \"Practical6-Apply-TTT-Token.sol\":4945:4953  TTTToken */\n      swap1\n      swap2\n      and\n      swap1\n        /* \"Practical6-Apply-TTT-Token.sol\":4945:4966  TTTToken.transferFrom */\n      0x23b872dd\n      swap1\n        /* \"Practical6-Apply-TTT-Token.sol\":4945:5007  TTTToken.transferFrom(msg.sender, address(this), rewardAmount) */\n      tag_136\n      swap1\n        /* \"Practical6-Apply-TTT-Token.sol\":4967:4977  msg.sender */\n      caller\n      swap1\n        /* \"Practical6-Apply-TTT-Token.sol\":4987:4991  this */\n      address\n      swap1\n        /* \"Practical6-Apply-TTT-Token.sol\":4994:5006  rewardAmount */\n      dup7\n      swap1\n        /* \"Practical6-Apply-TTT-Token.sol\":4945:5007  TTTToken.transferFrom(msg.sender, address(this), rewardAmount) */\n      0x04\n      add\n      tag_127\n      jump\t// in\n    tag_136:\n      0x20\n      mload(0x40)\n      dup1\n      dup4\n      sub\n      dup2\n      0x00\n      dup8\n      gas\n      call\n      iszero\n      dup1\n      iszero\n      tag_138\n      jumpi\n      returndatasize\n      0x00\n      dup1\n      returndatacopy\n      revert(0x00, returndatasize)\n    tag_138:\n      pop\n      pop\n      pop\n      pop\n      mload(0x40)\n      returndatasize\n      not(0x1f)\n      0x1f\n      dup3\n      add\n      and\n      dup3\n      add\n      dup1\n      0x40\n      mstore\n      pop\n      dup2\n      add\n      swap1\n      tag_139\n      swap2\n      swap1\n      tag_131\n      jump\t// in\n    tag_139:\n      pop\n        /* \"Practical6-Apply-TTT-Token.sol\":5039:5051  rewardAmount */\n      dup1\n        /* \"Practical6-Apply-TTT-Token.sol\":5024:5035  totalAmount */\n      0x05\n      0x00\n        /* \"Practical6-Apply-TTT-Token.sol\":5024:5051  totalAmount += rewardAmount */\n      dup3\n      dup3\n      sload\n      tag_140\n      swap2\n      swap1\n      tag_141\n      jump\t// in\n    tag_140:\n      swap1\n      swap2\n      sstore\n      pop\n        /* \"Practical6-Apply-TTT-Token.sol\":5068:5092  GameInfo memory gameInfo */\n      tag_142\n      swap1\n      pop\n      tag_143\n      jump\t// in\n    tag_142:\n        /* \"Practical6-Apply-TTT-Token.sol\":5107:5122  gameInformation */\n      0x07\n        /* \"Practical6-Apply-TTT-Token.sol\":5107:5137  gameInformation.push(gameInfo) */\n      dup1\n      sload\n      0x01\n      dup2\n      add\n      dup3\n      sstore\n      0x00\n      swap2\n      swap1\n      swap2\n      mstore\n      dup2\n      mload\n      0xa66cc928b5edb82af9bd49922954155ab7b0942694bea4ce44661d9a8736c688\n      0x0b\n      swap1\n      swap3\n      mul\n      swap2\n      dup3\n      add\n      dup1\n      sload\n      not(0xff)\n      and\n      swap2\n      iszero\n      iszero\n      swap2\n      swap1\n      swap2\n      or\n      dup2\n      sstore\n      0x20\n      dup4\n      add\n      mload\n      dup4\n      swap3\n      0xa66cc928b5edb82af9bd49922954155ab7b0942694bea4ce44661d9a8736c689\n      add\n      swap1\n      tag_145\n      swap1\n      dup3\n      tag_146\n      jump\t// in\n    tag_145:\n      pop\n      0x40\n      dup3\n      add\n      mload\n      dup1\n      mload\n      tag_147\n      swap2\n      0x02\n      dup5\n      add\n      swap2\n      0x20\n      swap1\n      swap2\n      add\n      swap1\n      tag_148\n      jump\t// in\n    tag_147:\n      pop\n      0x60\n      dup3\n      add\n      mload\n      dup1\n      mload\n      tag_149\n      swap2\n      0x03\n      dup5\n      add\n      swap2\n      0x20\n      swap1\n      swap2\n      add\n      swap1\n      tag_150\n      jump\t// in\n    tag_149:\n      pop\n      0x80\n      dup3\n      add\n      mload\n      0x04\n      dup3\n      add\n      dup1\n      sload\n      not(sub(shl(0xa0, 0x01), 0x01))\n      swap1\n      dup2\n      and\n      sub(shl(0xa0, 0x01), 0x01)\n      swap4\n      dup5\n      and\n      or\n      swap1\n      swap2\n      sstore\n      0xa0\n      dup5\n      add\n      mload\n      0x05\n      dup5\n      add\n      dup1\n      sload\n      dup4\n      and\n      swap2\n      dup5\n      and\n      swap2\n      swap1\n      swap2\n      or\n      swap1\n      sstore\n      0xc0\n      dup5\n      add\n      mload\n      0x06\n      dup5\n      add\n      sstore\n      0xe0\n      dup5\n      add\n      mload\n      0x07\n      dup1\n      dup6\n      add\n      dup1\n      sload\n      swap1\n      swap4\n      and\n      swap2\n      swap1\n      swap4\n      and\n      or\n      swap1\n      sstore\n      0x0100\n      dup4\n      add\n      mload\n      0x08\n      dup4\n      add\n      sstore\n      0x0120\n      dup4\n      add\n      mload\n      0x09\n      dup4\n      add\n      sstore\n      0x0140\n      swap1\n      swap3\n      add\n      mload\n      0x0a\n      swap1\n      swap2\n      add\n      sstore\n        /* \"Practical6-Apply-TTT-Token.sol\":5170:5192  gameInformation.length */\n      dup1\n      sload\n      swap1\n        /* \"Practical6-Apply-TTT-Token.sol\":5257:5267  msg.sender */\n      caller\n      swap1\n        /* \"Practical6-Apply-TTT-Token.sol\":5225:5237  gameLength-1 */\n      tag_151\n      0x01\n        /* \"Practical6-Apply-TTT-Token.sol\":5170:5192  gameInformation.length */\n      dup5\n        /* \"Practical6-Apply-TTT-Token.sol\":5225:5237  gameLength-1 */\n      tag_124\n      jump\t// in\n    tag_151:\n        /* \"Practical6-Apply-TTT-Token.sol\":5209:5238  gameInformation[gameLength-1] */\n      dup2\n      sload\n      dup2\n      lt\n      tag_153\n      jumpi\n      tag_153\n      tag_154\n      jump\t// in\n    tag_153:\n      0x00\n      swap2\n      dup3\n      mstore\n      0x20\n      dup3\n      keccak256\n      0x0b\n      swap2\n      swap1\n      swap2\n      mul\n      add\n        /* \"Practical6-Apply-TTT-Token.sol\":5209:5254  gameInformation[gameLength-1]._player1address */\n      0x04\n      add\n        /* \"Practical6-Apply-TTT-Token.sol\":5209:5267  gameInformation[gameLength-1]._player1address = msg.sender */\n      dup1\n      sload\n      not(sub(shl(0xa0, 0x01), 0x01))\n      and\n      sub(shl(0xa0, 0x01), 0x01)\n      swap4\n      swap1\n      swap4\n      and\n      swap3\n      swap1\n      swap3\n      or\n      swap1\n      swap2\n      sstore\n        /* \"Practical6-Apply-TTT-Token.sol\":5282:5297  gameInformation */\n      0x07\n        /* \"Practical6-Apply-TTT-Token.sol\":5298:5310  gameLength-1 */\n      tag_156\n      0x01\n        /* \"Practical6-Apply-TTT-Token.sol\":5298:5308  gameLength */\n      dup5\n        /* \"Practical6-Apply-TTT-Token.sol\":5298:5310  gameLength-1 */\n      tag_124\n      jump\t// in\n    tag_156:\n        /* \"Practical6-Apply-TTT-Token.sol\":5282:5311  gameInformation[gameLength-1] */\n      dup2\n      sload\n      dup2\n      lt\n      tag_158\n      jumpi\n      tag_158\n      tag_154\n      jump\t// in\n    tag_158:\n      0x00\n      swap2\n      dup3\n      mstore\n      0x20\n      swap1\n      swap2\n      keccak256\n      0x0b\n      swap1\n      swap2\n      mul\n      add\n        /* \"Practical6-Apply-TTT-Token.sol\":5282:5329  gameInformation[gameLength-1]._activate = false */\n      dup1\n      sload\n      not(0xff)\n      and\n      swap2\n      iszero\n      iszero\n      swap2\n      swap1\n      swap2\n      or\n      swap1\n      sstore\n      0x01\n        /* \"Practical6-Apply-TTT-Token.sol\":5344:5359  gameInformation */\n      0x07\n        /* \"Practical6-Apply-TTT-Token.sol\":5360:5372  gameLength-1 */\n      tag_160\n      dup3\n        /* \"Practical6-Apply-TTT-Token.sol\":5360:5370  gameLength */\n      dup5\n        /* \"Practical6-Apply-TTT-Token.sol\":5360:5372  gameLength-1 */\n      tag_124\n      jump\t// in\n    tag_160:\n        /* \"Practical6-Apply-TTT-Token.sol\":5344:5373  gameInformation[gameLength-1] */\n      dup2\n      sload\n      dup2\n      lt\n      tag_162\n      jumpi\n      tag_162\n      tag_154\n      jump\t// in\n    tag_162:\n      swap1\n      0x00\n      mstore\n      keccak256(0x00, 0x20)\n      swap1\n      0x0b\n      mul\n      add\n        /* \"Practical6-Apply-TTT-Token.sol\":5344:5386  gameInformation[gameLength-1]._playerCount */\n      0x06\n      add\n        /* \"Practical6-Apply-TTT-Token.sol\":5344:5390  gameInformation[gameLength-1]._playerCount = 1 */\n      dup2\n      swap1\n      sstore\n      pop\n        /* \"Practical6-Apply-TTT-Token.sol\":5405:5455  gameInformation[gameLength-1]._currentPlayer = \"X\" */\n      mload(0x40)\n      dup1\n      0x40\n      add\n      0x40\n      mstore\n      dup1\n      0x01\n      dup2\n      mstore\n      0x20\n      add\n      shl(0xfb, 0x0b)\n      dup2\n      mstore\n      pop\n        /* \"Practical6-Apply-TTT-Token.sol\":5405:5420  gameInformation */\n      0x07\n        /* \"Practical6-Apply-TTT-Token.sol\":5432:5433  1 */\n      0x01\n        /* \"Practical6-Apply-TTT-Token.sol\":5421:5431  gameLength */\n      dup4\n        /* \"Practical6-Apply-TTT-Token.sol\":5421:5433  gameLength-1 */\n      tag_164\n      swap2\n      swap1\n      tag_124\n      jump\t// in\n    tag_164:\n        /* \"Practical6-Apply-TTT-Token.sol\":5405:5434  gameInformation[gameLength-1] */\n      dup2\n      sload\n      dup2\n      lt\n      tag_166\n      jumpi\n      tag_166\n      tag_154\n      jump\t// in\n    tag_166:\n      swap1\n      0x00\n      mstore\n      keccak256(0x00, 0x20)\n      swap1\n      0x0b\n      mul\n      add\n        /* \"Practical6-Apply-TTT-Token.sol\":5405:5449  gameInformation[gameLength-1]._currentPlayer */\n      0x01\n      add\n        /* \"Practical6-Apply-TTT-Token.sol\":5405:5455  gameInformation[gameLength-1]._currentPlayer = \"X\" */\n      swap1\n      dup2\n      tag_168\n      swap2\n      swap1\n      tag_146\n      jump\t// in\n    tag_168:\n      pop\n        /* \"Practical6-Apply-TTT-Token.sol\":5514:5523  betAmount */\n      dup6\n        /* \"Practical6-Apply-TTT-Token.sol\":5470:5485  gameInformation */\n      0x07\n        /* \"Practical6-Apply-TTT-Token.sol\":5486:5498  gameLength-1 */\n      tag_169\n        /* \"Practical6-Apply-TTT-Token.sol\":5497:5498  1 */\n      0x01\n        /* \"Practical6-Apply-TTT-Token.sol\":5486:5496  gameLength */\n      dup5\n        /* \"Practical6-Apply-TTT-Token.sol\":5486:5498  gameLength-1 */\n      tag_124\n      jump\t// in\n    tag_169:\n        /* \"Practical6-Apply-TTT-Token.sol\":5470:5499  gameInformation[gameLength-1] */\n      dup2\n      sload\n      dup2\n      lt\n      tag_171\n      jumpi\n      tag_171\n      tag_154\n      jump\t// in\n    tag_171:\n      0x00\n      swap2\n      dup3\n      mstore\n      0x20\n      swap1\n      swap2\n      keccak256\n        /* \"Practical6-Apply-TTT-Token.sol\":5470:5511  gameInformation[gameLength-1]._player1Bet */\n      0x08\n        /* \"Practical6-Apply-TTT-Token.sol\":5470:5499  gameInformation[gameLength-1] */\n      0x0b\n      swap1\n      swap3\n      mul\n      add\n        /* \"Practical6-Apply-TTT-Token.sol\":5470:5511  gameInformation[gameLength-1]._player1Bet */\n      add\n        /* \"Practical6-Apply-TTT-Token.sol\":5470:5523  gameInformation[gameLength-1]._player1Bet = betAmount */\n      sstore\n        /* \"Practical6-Apply-TTT-Token.sol\":5584:5596  rewardAmount */\n      dup3\n        /* \"Practical6-Apply-TTT-Token.sol\":5538:5553  gameInformation */\n      0x07\n        /* \"Practical6-Apply-TTT-Token.sol\":5554:5566  gameLength-1 */\n      tag_173\n        /* \"Practical6-Apply-TTT-Token.sol\":5565:5566  1 */\n      0x01\n        /* \"Practical6-Apply-TTT-Token.sol\":5554:5564  gameLength */\n      dup5\n        /* \"Practical6-Apply-TTT-Token.sol\":5554:5566  gameLength-1 */\n      tag_124\n      jump\t// in\n    tag_173:\n        /* \"Practical6-Apply-TTT-Token.sol\":5538:5567  gameInformation[gameLength-1] */\n      dup2\n      sload\n      dup2\n      lt\n      tag_175\n      jumpi\n      tag_175\n      tag_154\n      jump\t// in\n    tag_175:\n      swap1\n      0x00\n      mstore\n      keccak256(0x00, 0x20)\n      swap1\n      0x0b\n      mul\n      add\n        /* \"Practical6-Apply-TTT-Token.sol\":5538:5581  gameInformation[gameLength-1]._rewardAmount */\n      0x0a\n      add\n        /* \"Practical6-Apply-TTT-Token.sol\":5538:5596  gameInformation[gameLength-1]._rewardAmount = rewardAmount */\n      dup2\n      swap1\n      sstore\n      pop\n        /* \"Practical6-Apply-TTT-Token.sol\":5615:5621  uint i */\n      0x00\n        /* \"Practical6-Apply-TTT-Token.sol\":5611:5720  for(uint i = 0; i < 9; i++){... */\n    tag_177:\n        /* \"Practical6-Apply-TTT-Token.sol\":5631:5632  9 */\n      0x09\n        /* \"Practical6-Apply-TTT-Token.sol\":5627:5628  i */\n      dup2\n        /* \"Practical6-Apply-TTT-Token.sol\":5627:5632  i < 9 */\n      lt\n        /* \"Practical6-Apply-TTT-Token.sol\":5611:5720  for(uint i = 0; i < 9; i++){... */\n      iszero\n      tag_178\n      jumpi\n        /* \"Practical6-Apply-TTT-Token.sol\":5657:5672  gameInformation */\n      0x07\n        /* \"Practical6-Apply-TTT-Token.sol\":5673:5685  gameLength-1 */\n      tag_180\n        /* \"Practical6-Apply-TTT-Token.sol\":5684:5685  1 */\n      0x01\n        /* \"Practical6-Apply-TTT-Token.sol\":5673:5683  gameLength */\n      dup5\n        /* \"Practical6-Apply-TTT-Token.sol\":5673:5685  gameLength-1 */\n      tag_124\n      jump\t// in\n    tag_180:\n        /* \"Practical6-Apply-TTT-Token.sol\":5657:5686  gameInformation[gameLength-1] */\n      dup2\n      sload\n      dup2\n      lt\n      tag_182\n      jumpi\n      tag_182\n      tag_154\n      jump\t// in\n    tag_182:\n      0x00\n      swap2\n      dup3\n      mstore\n      0x20\n      dup1\n      dup4\n      keccak256\n        /* \"Practical6-Apply-TTT-Token.sol\":5657:5695  gameInformation[gameLength-1]._options */\n      0x02\n        /* \"Practical6-Apply-TTT-Token.sol\":5657:5686  gameInformation[gameLength-1] */\n      0x0b\n      swap1\n      swap4\n      mul\n      add\n        /* \"Practical6-Apply-TTT-Token.sol\":5657:5695  gameInformation[gameLength-1]._options */\n      swap2\n      swap1\n      swap2\n      add\n        /* \"Practical6-Apply-TTT-Token.sol\":5657:5704  gameInformation[gameLength-1]._options.push(\"\") */\n      dup1\n      sload\n      0x01\n      dup2\n      add\n      dup3\n      sstore\n      swap1\n      dup4\n      mstore\n      dup2\n      dup4\n      keccak256\n      0x40\n      dup1\n      mload\n      swap4\n      dup5\n      add\n      swap1\n      mstore\n      swap3\n      dup3\n      mstore\n      swap2\n      swap1\n      swap2\n      add\n      swap1\n      tag_185\n      swap1\n      dup3\n      tag_146\n      jump\t// in\n    tag_185:\n      pop\n        /* \"Practical6-Apply-TTT-Token.sol\":5634:5637  i++ */\n      dup1\n      tag_186\n      dup2\n      tag_187\n      jump\t// in\n    tag_186:\n      swap2\n      pop\n      pop\n        /* \"Practical6-Apply-TTT-Token.sol\":5611:5720  for(uint i = 0; i < 9; i++){... */\n      jump(tag_177)\n    tag_178:\n      pop\n        /* \"Practical6-Apply-TTT-Token.sol\":5739:5763  createRoom(gameLength-1) */\n      0xbbba82573073a1190d559566d39447b5e1ad7724b88b63bc98867d229a645b6b\n        /* \"Practical6-Apply-TTT-Token.sol\":5750:5762  gameLength-1 */\n      tag_188\n        /* \"Practical6-Apply-TTT-Token.sol\":5761:5762  1 */\n      0x01\n        /* \"Practical6-Apply-TTT-Token.sol\":5750:5760  gameLength */\n      dup4\n        /* \"Practical6-Apply-TTT-Token.sol\":5750:5762  gameLength-1 */\n      tag_124\n      jump\t// in\n    tag_188:\n        /* \"Practical6-Apply-TTT-Token.sol\":5739:5763  createRoom(gameLength-1) */\n      mload(0x40)\n        /* \"#utility.yul\":982:1007   */\n      swap1\n      dup2\n      mstore\n        /* \"#utility.yul\":970:972   */\n      0x20\n        /* \"#utility.yul\":955:973   */\n      add\n        /* \"Practical6-Apply-TTT-Token.sol\":5739:5763  createRoom(gameLength-1) */\n      mload(0x40)\n      dup1\n      swap2\n      sub\n      swap1\n      log1\n      pop\n      pop\n        /* \"Practical6-Apply-TTT-Token.sol\":3569:3575  locked */\n      0x06\n        /* \"Practical6-Apply-TTT-Token.sol\":3569:3583  locked = false */\n      dup1\n      sload\n      not(shl(0xa0, 0xff))\n      and\n      swap1\n      sstore\n      pop\n      pop\n      pop\n      pop\n        /* \"Practical6-Apply-TTT-Token.sol\":4331:5789  function createGameRoom(uint256 betAmount) external noReentrancy {... */\n      jump\t// out\n        /* \"Practical6-Apply-TTT-Token.sol\":3842:3993  function getFinalWinOption (uint gameId) external view returns (uint[] memory){... */\n    tag_32:\n        /* \"Practical6-Apply-TTT-Token.sol\":3906:3919  uint[] memory */\n      0x60\n        /* \"Practical6-Apply-TTT-Token.sol\":3942:3957  gameInformation */\n      0x07\n        /* \"Practical6-Apply-TTT-Token.sol\":3958:3964  gameId */\n      dup3\n        /* \"Practical6-Apply-TTT-Token.sol\":3942:3965  gameInformation[gameId] */\n      dup2\n      sload\n      dup2\n      lt\n      tag_192\n      jumpi\n      tag_192\n      tag_154\n      jump\t// in\n    tag_192:\n      swap1\n      0x00\n      mstore\n      keccak256(0x00, 0x20)\n      swap1\n      0x0b\n      mul\n      add\n        /* \"Practical6-Apply-TTT-Token.sol\":3942:3981  gameInformation[gameId]._finalWinOption */\n      0x03\n      add\n        /* \"Practical6-Apply-TTT-Token.sol\":3935:3981  return gameInformation[gameId]._finalWinOption */\n      dup1\n      sload\n      dup1\n      0x20\n      mul\n      0x20\n      add\n      mload(0x40)\n      swap1\n      dup2\n      add\n      0x40\n      mstore\n      dup1\n      swap3\n      swap2\n      swap1\n      dup2\n      dup2\n      mstore\n      0x20\n      add\n      dup3\n      dup1\n      sload\n      dup1\n      iszero\n      tag_194\n      jumpi\n      0x20\n      mul\n      dup3\n      add\n      swap2\n      swap1\n      0x00\n      mstore\n      keccak256(0x00, 0x20)\n      swap1\n    tag_195:\n      dup2\n      sload\n      dup2\n      mstore\n      0x20\n      add\n      swap1\n      0x01\n      add\n      swap1\n      dup1\n      dup4\n      gt\n      tag_195\n      jumpi\n    tag_194:\n      pop\n      pop\n      pop\n      pop\n      pop\n      swap1\n      pop\n        /* \"Practical6-Apply-TTT-Token.sol\":3842:3993  function getFinalWinOption (uint gameId) external view returns (uint[] memory){... */\n      swap2\n      swap1\n      pop\n      jump\t// out\n        /* \"Practical6-Apply-TTT-Token.sol\":13569:13911  function validateRestartPlayer (uint gameId) public {... */\n    tag_41:\n        /* \"Practical6-Apply-TTT-Token.sol\":13724:13744  checkAddress(gameId) */\n      tag_197\n        /* \"Practical6-Apply-TTT-Token.sol\":13737:13743  gameId */\n      dup2\n        /* \"Practical6-Apply-TTT-Token.sol\":13724:13736  checkAddress */\n      tag_198\n        /* \"Practical6-Apply-TTT-Token.sol\":13724:13744  checkAddress(gameId) */\n      jump\t// in\n    tag_197:\n        /* \"Practical6-Apply-TTT-Token.sol\":13716:13777  require(checkAddress(gameId), \"you are not this game player\") */\n      tag_199\n      jumpi\n      mload(0x40)\n      shl(0xe5, 0x461bcd)\n      dup2\n      mstore\n        /* \"#utility.yul\":14930:14932   */\n      0x20\n        /* \"Practical6-Apply-TTT-Token.sol\":13716:13777  require(checkAddress(gameId), \"you are not this game player\") */\n      0x04\n      dup3\n      add\n        /* \"#utility.yul\":14912:14933   */\n      mstore\n        /* \"#utility.yul\":14969:14971   */\n      0x1c\n        /* \"#utility.yul\":14949:14967   */\n      0x24\n      dup3\n      add\n        /* \"#utility.yul\":14942:14972   */\n      mstore\n        /* \"#utility.yul\":15008:15038   */\n      0x796f7520617265206e6f7420746869732067616d6520706c6179657200000000\n        /* \"#utility.yul\":14988:15006   */\n      0x44\n      dup3\n      add\n        /* \"#utility.yul\":14981:15039   */\n      mstore\n        /* \"#utility.yul\":15056:15074   */\n      0x64\n      add\n        /* \"Practical6-Apply-TTT-Token.sol\":13716:13777  require(checkAddress(gameId), \"you are not this game player\") */\n      tag_103\n        /* \"#utility.yul\":14728:15080   */\n      jump\n        /* \"Practical6-Apply-TTT-Token.sol\":13716:13777  require(checkAddress(gameId), \"you are not this game player\") */\n    tag_199:\n        /* \"Practical6-Apply-TTT-Token.sol\":13800:13815  gameInformation */\n      0x07\n        /* \"Practical6-Apply-TTT-Token.sol\":13816:13822  gameId */\n      dup2\n        /* \"Practical6-Apply-TTT-Token.sol\":13800:13823  gameInformation[gameId] */\n      dup2\n      sload\n      dup2\n      lt\n      tag_203\n      jumpi\n      tag_203\n      tag_154\n      jump\t// in\n    tag_203:\n      0x00\n      swap2\n      dup3\n      mstore\n      0x20\n      swap1\n      swap2\n      keccak256\n      0x0b\n      swap1\n      swap2\n      mul\n      add\n        /* \"Practical6-Apply-TTT-Token.sol\":13800:13833  gameInformation[gameId]._activate */\n      sload\n      0xff\n      and\n        /* \"Practical6-Apply-TTT-Token.sol\":13800:13842  gameInformation[gameId]._activate == false */\n      iszero\n        /* \"Practical6-Apply-TTT-Token.sol\":13792:13865  require(gameInformation[gameId]._activate == false, \"Game still playing\") */\n      tag_205\n      jumpi\n      mload(0x40)\n      shl(0xe5, 0x461bcd)\n      dup2\n      mstore\n        /* \"#utility.yul\":15287:15289   */\n      0x20\n        /* \"Practical6-Apply-TTT-Token.sol\":13792:13865  require(gameInformation[gameId]._activate == false, \"Game still playing\") */\n      0x04\n      dup3\n      add\n        /* \"#utility.yul\":15269:15290   */\n      mstore\n        /* \"#utility.yul\":15326:15328   */\n      0x12\n        /* \"#utility.yul\":15306:15324   */\n      0x24\n      dup3\n      add\n        /* \"#utility.yul\":15299:15329   */\n      mstore\n      shl(0x70, 0x47616d65207374696c6c20706c6179696e67)\n        /* \"#utility.yul\":15345:15363   */\n      0x44\n      dup3\n      add\n        /* \"#utility.yul\":15338:15386   */\n      mstore\n        /* \"#utility.yul\":15403:15421   */\n      0x64\n      add\n        /* \"Practical6-Apply-TTT-Token.sol\":13792:13865  require(gameInformation[gameId]._activate == false, \"Game still playing\") */\n      tag_103\n        /* \"#utility.yul\":15085:15427   */\n      jump\n        /* \"Practical6-Apply-TTT-Token.sol\":13792:13865  require(gameInformation[gameId]._activate == false, \"Game still playing\") */\n    tag_205:\n        /* \"Practical6-Apply-TTT-Token.sol\":13880:13899  restartGame(gameId) */\n      tag_208\n        /* \"Practical6-Apply-TTT-Token.sol\":13892:13898  gameId */\n      dup2\n        /* \"Practical6-Apply-TTT-Token.sol\":13880:13891  restartGame */\n      tag_48\n        /* \"Practical6-Apply-TTT-Token.sol\":13880:13899  restartGame(gameId) */\n      jump\t// in\n    tag_208:\n        /* \"Practical6-Apply-TTT-Token.sol\":13569:13911  function validateRestartPlayer (uint gameId) public {... */\n      pop\n      jump\t// out\n        /* \"Practical6-Apply-TTT-Token.sol\":4163:4287  function getAllGameInformation () external view returns (GameInfo[] memory){... */\n    tag_43:\n        /* \"Practical6-Apply-TTT-Token.sol\":4220:4237  GameInfo[] memory */\n      0x60\n        /* \"Practical6-Apply-TTT-Token.sol\":4260:4275  gameInformation */\n      0x07\n        /* \"Practical6-Apply-TTT-Token.sol\":4253:4275  return gameInformation */\n      dup1\n      sload\n      dup1\n      0x20\n      mul\n      0x20\n      add\n      mload(0x40)\n      swap1\n      dup2\n      add\n      0x40\n      mstore\n      dup1\n      swap3\n      swap2\n      swap1\n      dup2\n      dup2\n      mstore\n      0x20\n      add\n      0x00\n      swap1\n    tag_210:\n      dup3\n      dup3\n      lt\n      iszero\n      tag_211\n      jumpi\n      0x00\n      dup5\n      dup2\n      mstore\n      0x20\n      swap1\n      dup2\n      swap1\n      keccak256\n      0x40\n      dup1\n      mload\n      0x0160\n      dup2\n      add\n      swap1\n      swap2\n      mstore\n      0x0b\n      dup6\n      mul\n      swap1\n      swap2\n      add\n      dup1\n      sload\n      0xff\n      and\n      iszero\n      iszero\n      dup3\n      mstore\n      0x01\n      dup2\n      add\n      dup1\n      sload\n      swap3\n      swap4\n      swap2\n      swap3\n      swap2\n      dup5\n      add\n      swap2\n      tag_213\n      swap1\n      tag_214\n      jump\t// in\n    tag_213:\n      dup1\n      0x1f\n      add\n      0x20\n      dup1\n      swap2\n      div\n      mul\n      0x20\n      add\n      mload(0x40)\n      swap1\n      dup2\n      add\n      0x40\n      mstore\n      dup1\n      swap3\n      swap2\n      swap1\n      dup2\n      dup2\n      mstore\n      0x20\n      add\n      dup3\n      dup1\n      sload\n      tag_215\n      swap1\n      tag_214\n      jump\t// in\n    tag_215:\n      dup1\n      iszero\n      tag_216\n      jumpi\n      dup1\n      0x1f\n      lt\n      tag_217\n      jumpi\n      0x0100\n      dup1\n      dup4\n      sload\n      div\n      mul\n      dup4\n      mstore\n      swap2\n      0x20\n      add\n      swap2\n      jump(tag_216)\n    tag_217:\n      dup3\n      add\n      swap2\n      swap1\n      0x00\n      mstore\n      keccak256(0x00, 0x20)\n      swap1\n    tag_218:\n      dup2\n      sload\n      dup2\n      mstore\n      swap1\n      0x01\n      add\n      swap1\n      0x20\n      add\n      dup1\n      dup4\n      gt\n      tag_218\n      jumpi\n      dup3\n      swap1\n      sub\n      0x1f\n      and\n      dup3\n      add\n      swap2\n    tag_216:\n      pop\n      pop\n      pop\n      pop\n      pop\n      dup2\n      mstore\n      0x20\n      add\n      0x02\n      dup3\n      add\n      dup1\n      sload\n      dup1\n      0x20\n      mul\n      0x20\n      add\n      mload(0x40)\n      swap1\n      dup2\n      add\n      0x40\n      mstore\n      dup1\n      swap3\n      swap2\n      swap1\n      dup2\n      dup2\n      mstore\n      0x20\n      add\n      0x00\n      swap1\n    tag_219:\n      dup3\n      dup3\n      lt\n      iszero\n      tag_220\n      jumpi\n      dup4\n      dup3\n      swap1\n      0x00\n      mstore\n      keccak256(0x00, 0x20)\n      add\n      dup1\n      sload\n      tag_222\n      swap1\n      tag_214\n      jump\t// in\n    tag_222:\n      dup1\n      0x1f\n      add\n      0x20\n      dup1\n      swap2\n      div\n      mul\n      0x20\n      add\n      mload(0x40)\n      swap1\n      dup2\n      add\n      0x40\n      mstore\n      dup1\n      swap3\n      swap2\n      swap1\n      dup2\n      dup2\n      mstore\n      0x20\n      add\n      dup3\n      dup1\n      sload\n      tag_223\n      swap1\n      tag_214\n      jump\t// in\n    tag_223:\n      dup1\n      iszero\n      tag_224\n      jumpi\n      dup1\n      0x1f\n      lt\n      tag_225\n      jumpi\n      0x0100\n      dup1\n      dup4\n      sload\n      div\n      mul\n      dup4\n      mstore\n      swap2\n      0x20\n      add\n      swap2\n      jump(tag_224)\n    tag_225:\n      dup3\n      add\n      swap2\n      swap1\n      0x00\n      mstore\n      keccak256(0x00, 0x20)\n      swap1\n    tag_226:\n      dup2\n      sload\n      dup2\n      mstore\n      swap1\n      0x01\n      add\n      swap1\n      0x20\n      add\n      dup1\n      dup4\n      gt\n      tag_226\n      jumpi\n      dup3\n      swap1\n      sub\n      0x1f\n      and\n      dup3\n      add\n      swap2\n    tag_224:\n      pop\n      pop\n      pop\n      pop\n      pop\n      dup2\n      mstore\n      0x20\n      add\n      swap1\n      0x01\n      add\n      swap1\n      jump(tag_219)\n    tag_220:\n      pop\n      pop\n      pop\n      pop\n      dup2\n      mstore\n      0x20\n      add\n      0x03\n      dup3\n      add\n      dup1\n      sload\n      dup1\n      0x20\n      mul\n      0x20\n      add\n      mload(0x40)\n      swap1\n      dup2\n      add\n      0x40\n      mstore\n      dup1\n      swap3\n      swap2\n      swap1\n      dup2\n      dup2\n      mstore\n      0x20\n      add\n      dup3\n      dup1\n      sload\n      dup1\n      iszero\n      tag_227\n      jumpi\n      0x20\n      mul\n      dup3\n      add\n      swap2\n      swap1\n      0x00\n      mstore\n      keccak256(0x00, 0x20)\n      swap1\n    tag_228:\n      dup2\n      sload\n      dup2\n      mstore\n      0x20\n      add\n      swap1\n      0x01\n      add\n      swap1\n      dup1\n      dup4\n      gt\n      tag_228\n      jumpi\n    tag_227:\n      pop\n      pop\n      pop\n      swap2\n      dup4\n      mstore\n      pop\n      pop\n      0x04\n      dup3\n      add\n      sload\n      sub(shl(0xa0, 0x01), 0x01)\n      swap1\n      dup2\n      and\n      0x20\n      dup1\n      dup5\n      add\n      swap2\n      swap1\n      swap2\n      mstore\n      0x05\n      dup5\n      add\n      sload\n      dup3\n      and\n      0x40\n      dup5\n      add\n      mstore\n      0x06\n      dup5\n      add\n      sload\n      0x60\n      dup5\n      add\n      mstore\n      0x07\n      dup5\n      add\n      sload\n      swap1\n      swap2\n      and\n      0x80\n      dup4\n      add\n      mstore\n      0x08\n      dup4\n      add\n      sload\n      0xa0\n      dup4\n      add\n      mstore\n      0x09\n      dup4\n      add\n      sload\n      0xc0\n      dup4\n      add\n      mstore\n      0x0a\n      swap1\n      swap3\n      add\n      sload\n      0xe0\n      swap1\n      swap2\n      add\n      mstore\n      swap1\n      dup3\n      mstore\n      0x01\n      swap3\n      swap1\n      swap3\n      add\n      swap2\n      add\n      jump(tag_210)\n    tag_211:\n      pop\n      pop\n      pop\n      pop\n      swap1\n      pop\n        /* \"Practical6-Apply-TTT-Token.sol\":4163:4287  function getAllGameInformation () external view returns (GameInfo[] memory){... */\n      swap1\n      jump\t// out\n        /* \"Practical6-Apply-TTT-Token.sol\":14262:14550  function restartGame(uint gameId) public {... */\n    tag_48:\n        /* \"Practical6-Apply-TTT-Token.sol\":14318:14362  gameInformation[gameId]._currentPlayer = \"X\" */\n      mload(0x40)\n      dup1\n      0x40\n      add\n      0x40\n      mstore\n      dup1\n      0x01\n      dup2\n      mstore\n      0x20\n      add\n      shl(0xfb, 0x0b)\n      dup2\n      mstore\n      pop\n        /* \"Practical6-Apply-TTT-Token.sol\":14318:14333  gameInformation */\n      0x07\n        /* \"Practical6-Apply-TTT-Token.sol\":14334:14340  gameId */\n      dup3\n        /* \"Practical6-Apply-TTT-Token.sol\":14318:14341  gameInformation[gameId] */\n      dup2\n      sload\n      dup2\n      lt\n      tag_231\n      jumpi\n      tag_231\n      tag_154\n      jump\t// in\n    tag_231:\n      swap1\n      0x00\n      mstore\n      keccak256(0x00, 0x20)\n      swap1\n      0x0b\n      mul\n      add\n        /* \"Practical6-Apply-TTT-Token.sol\":14318:14356  gameInformation[gameId]._currentPlayer */\n      0x01\n      add\n        /* \"Practical6-Apply-TTT-Token.sol\":14318:14362  gameInformation[gameId]._currentPlayer = \"X\" */\n      swap1\n      dup2\n      tag_233\n      swap2\n      swap1\n      tag_146\n      jump\t// in\n    tag_233:\n      pop\n        /* \"Practical6-Apply-TTT-Token.sol\":14377:14448  gameInformation[gameId]._options = [\"\", \"\", \"\", \"\", \"\", \"\", \"\", \"\", \"\"] */\n      0x40\n      dup1\n      mload\n      0x0140\n      dup2\n      add\n      dup3\n      mstore\n      0x00\n      0x0120\n      dup3\n      add\n      dup2\n      dup2\n      mstore\n      dup3\n      mstore\n      dup3\n      mload\n      0x20\n      dup2\n      dup2\n      add\n      dup6\n      mstore\n      dup3\n      dup3\n      mstore\n      dup1\n      dup5\n      add\n      swap2\n      swap1\n      swap2\n      mstore\n      dup4\n      mload\n      dup1\n      dup3\n      add\n      dup6\n      mstore\n      dup3\n      dup2\n      mstore\n      dup4\n      dup6\n      add\n      mstore\n      dup4\n      mload\n      dup1\n      dup3\n      add\n      dup6\n      mstore\n      dup3\n      dup2\n      mstore\n      0x60\n      dup5\n      add\n      mstore\n      dup4\n      mload\n      dup1\n      dup3\n      add\n      dup6\n      mstore\n      dup3\n      dup2\n      mstore\n      0x80\n      dup5\n      add\n      mstore\n      dup4\n      mload\n      dup1\n      dup3\n      add\n      dup6\n      mstore\n      dup3\n      dup2\n      mstore\n      0xa0\n      dup5\n      add\n      mstore\n      dup4\n      mload\n      dup1\n      dup3\n      add\n      dup6\n      mstore\n      dup3\n      dup2\n      mstore\n      0xc0\n      dup5\n      add\n      mstore\n      dup4\n      mload\n      dup1\n      dup3\n      add\n      dup6\n      mstore\n      dup3\n      dup2\n      mstore\n      0xe0\n      dup5\n      add\n      mstore\n      dup4\n      mload\n      swap1\n      dup2\n      add\n      swap1\n      swap4\n      mstore\n      dup3\n      mstore\n      0x0100\n      dup2\n      add\n      swap2\n      swap1\n      swap2\n      mstore\n        /* \"Practical6-Apply-TTT-Token.sol\":14377:14392  gameInformation */\n      0x07\n        /* \"Practical6-Apply-TTT-Token.sol\":14377:14400  gameInformation[gameId] */\n      dup1\n      sload\n        /* \"Practical6-Apply-TTT-Token.sol\":14393:14399  gameId */\n      dup4\n      swap1\n        /* \"Practical6-Apply-TTT-Token.sol\":14377:14400  gameInformation[gameId] */\n      dup2\n      lt\n      tag_235\n      jumpi\n      tag_235\n      tag_154\n      jump\t// in\n    tag_235:\n      swap1\n      0x00\n      mstore\n      keccak256(0x00, 0x20)\n      swap1\n      0x0b\n      mul\n      add\n        /* \"Practical6-Apply-TTT-Token.sol\":14377:14409  gameInformation[gameId]._options */\n      0x02\n      add\n        /* \"Practical6-Apply-TTT-Token.sol\":14377:14448  gameInformation[gameId]._options = [\"\", \"\", \"\", \"\", \"\", \"\", \"\", \"\", \"\"] */\n      swap1\n      0x09\n      tag_237\n      swap3\n      swap2\n      swap1\n      tag_238\n      jump\t// in\n    tag_237:\n      pop\n        /* \"Practical6-Apply-TTT-Token.sol\":14499:14503  true */\n      0x01\n        /* \"Practical6-Apply-TTT-Token.sol\":14463:14478  gameInformation */\n      0x07\n        /* \"Practical6-Apply-TTT-Token.sol\":14479:14485  gameId */\n      dup3\n        /* \"Practical6-Apply-TTT-Token.sol\":14463:14486  gameInformation[gameId] */\n      dup2\n      sload\n      dup2\n      lt\n      tag_240\n      jumpi\n      tag_240\n      tag_154\n      jump\t// in\n    tag_240:\n      0x00\n      swap2\n      dup3\n      mstore\n      0x20\n      swap2\n      dup3\n      swap1\n      keccak256\n      0x0b\n      swap1\n      swap2\n      mul\n      add\n        /* \"Practical6-Apply-TTT-Token.sol\":14463:14503  gameInformation[gameId]._activate = true */\n      dup1\n      sload\n      not(0xff)\n      and\n      swap3\n      iszero\n      iszero\n      swap3\n      swap1\n      swap3\n      or\n      swap1\n      swap2\n      sstore\n        /* \"Practical6-Apply-TTT-Token.sol\":14523:14538  resetUI(gameId) */\n      mload(0x40)\n        /* \"#utility.yul\":982:1007   */\n      dup3\n      dup2\n      mstore\n        /* \"Practical6-Apply-TTT-Token.sol\":14523:14538  resetUI(gameId) */\n      0xc5478e3fe602c65e5cdd37abe42a8e007ff762d266b9e8256769194c1fa1361e\n      swap2\n        /* \"#utility.yul\":955:973   */\n      add\n        /* \"Practical6-Apply-TTT-Token.sol\":14523:14538  resetUI(gameId) */\n    tag_242:\n      mload(0x40)\n      dup1\n      swap2\n      sub\n      swap1\n      log1\n        /* \"Practical6-Apply-TTT-Token.sol\":14262:14550  function restartGame(uint gameId) public {... */\n      pop\n      jump\t// out\n        /* \"Practical6-Apply-TTT-Token.sol\":7876:8922  function userInput(uint input, uint gameId) external {... */\n    tag_52:\n        /* \"Practical6-Apply-TTT-Token.sol\":7952:7967  gameInformation */\n      0x07\n        /* \"Practical6-Apply-TTT-Token.sol\":7968:7974  gameId */\n      dup2\n        /* \"Practical6-Apply-TTT-Token.sol\":7952:7975  gameInformation[gameId] */\n      dup2\n      sload\n      dup2\n      lt\n      tag_245\n      jumpi\n      tag_245\n      tag_154\n      jump\t// in\n    tag_245:\n      0x00\n      swap2\n      dup3\n      mstore\n      0x20\n      swap1\n      swap2\n      keccak256\n      0x0b\n      swap1\n      swap2\n      mul\n      add\n        /* \"Practical6-Apply-TTT-Token.sol\":7952:7985  gameInformation[gameId]._activate */\n      sload\n      0xff\n      and\n        /* \"Practical6-Apply-TTT-Token.sol\":7944:8017  require(gameInformation[gameId]._activate,\"The game still not start yet\") */\n      tag_247\n      jumpi\n      mload(0x40)\n      shl(0xe5, 0x461bcd)\n      dup2\n      mstore\n        /* \"#utility.yul\":15634:15636   */\n      0x20\n        /* \"Practical6-Apply-TTT-Token.sol\":7944:8017  require(gameInformation[gameId]._activate,\"The game still not start yet\") */\n      0x04\n      dup3\n      add\n        /* \"#utility.yul\":15616:15637   */\n      mstore\n        /* \"#utility.yul\":15673:15675   */\n      0x1c\n        /* \"#utility.yul\":15653:15671   */\n      0x24\n      dup3\n      add\n        /* \"#utility.yul\":15646:15676   */\n      mstore\n        /* \"#utility.yul\":15712:15742   */\n      0x5468652067616d65207374696c6c206e6f742073746172742079657400000000\n        /* \"#utility.yul\":15692:15710   */\n      0x44\n      dup3\n      add\n        /* \"#utility.yul\":15685:15743   */\n      mstore\n        /* \"#utility.yul\":15760:15778   */\n      0x64\n      add\n        /* \"Practical6-Apply-TTT-Token.sol\":7944:8017  require(gameInformation[gameId]._activate,\"The game still not start yet\") */\n      tag_103\n        /* \"#utility.yul\":15432:15784   */\n      jump\n        /* \"Practical6-Apply-TTT-Token.sol\":7944:8017  require(gameInformation[gameId]._activate,\"The game still not start yet\") */\n    tag_247:\n        /* \"Practical6-Apply-TTT-Token.sol\":8077:8135  compareStrings(gameInformation[gameId]._options[input],\"\") */\n      tag_250\n        /* \"Practical6-Apply-TTT-Token.sol\":8092:8107  gameInformation */\n      0x07\n        /* \"Practical6-Apply-TTT-Token.sol\":8108:8114  gameId */\n      dup3\n        /* \"Practical6-Apply-TTT-Token.sol\":8092:8115  gameInformation[gameId] */\n      dup2\n      sload\n      dup2\n      lt\n      tag_252\n      jumpi\n      tag_252\n      tag_154\n      jump\t// in\n    tag_252:\n      swap1\n      0x00\n      mstore\n      keccak256(0x00, 0x20)\n      swap1\n      0x0b\n      mul\n      add\n        /* \"Practical6-Apply-TTT-Token.sol\":8092:8124  gameInformation[gameId]._options */\n      0x02\n      add\n        /* \"Practical6-Apply-TTT-Token.sol\":8125:8130  input */\n      dup4\n        /* \"Practical6-Apply-TTT-Token.sol\":8092:8131  gameInformation[gameId]._options[input] */\n      dup2\n      sload\n      dup2\n      lt\n      tag_255\n      jumpi\n      tag_255\n      tag_154\n      jump\t// in\n    tag_255:\n      swap1\n      0x00\n      mstore\n      keccak256(0x00, 0x20)\n      add\n        /* \"Practical6-Apply-TTT-Token.sol\":8077:8135  compareStrings(gameInformation[gameId]._options[input],\"\") */\n      dup1\n      sload\n      tag_257\n      swap1\n      tag_214\n      jump\t// in\n    tag_257:\n      dup1\n      0x1f\n      add\n      0x20\n      dup1\n      swap2\n      div\n      mul\n      0x20\n      add\n      mload(0x40)\n      swap1\n      dup2\n      add\n      0x40\n      mstore\n      dup1\n      swap3\n      swap2\n      swap1\n      dup2\n      dup2\n      mstore\n      0x20\n      add\n      dup3\n      dup1\n      sload\n      tag_258\n      swap1\n      tag_214\n      jump\t// in\n    tag_258:\n      dup1\n      iszero\n      tag_259\n      jumpi\n      dup1\n      0x1f\n      lt\n      tag_260\n      jumpi\n      0x0100\n      dup1\n      dup4\n      sload\n      div\n      mul\n      dup4\n      mstore\n      swap2\n      0x20\n      add\n      swap2\n      jump(tag_259)\n    tag_260:\n      dup3\n      add\n      swap2\n      swap1\n      0x00\n      mstore\n      keccak256(0x00, 0x20)\n      swap1\n    tag_261:\n      dup2\n      sload\n      dup2\n      mstore\n      swap1\n      0x01\n      add\n      swap1\n      0x20\n      add\n      dup1\n      dup4\n      gt\n      tag_261\n      jumpi\n      dup3\n      swap1\n      sub\n      0x1f\n      and\n      dup3\n      add\n      swap2\n    tag_259:\n      pop\n      pop\n      pop\n      pop\n      pop\n      mload(0x40)\n      dup1\n      0x20\n      add\n      0x40\n      mstore\n      dup1\n      0x00\n      dup2\n      mstore\n      pop\n        /* \"Practical6-Apply-TTT-Token.sol\":8077:8091  compareStrings */\n      tag_82\n        /* \"Practical6-Apply-TTT-Token.sol\":8077:8135  compareStrings(gameInformation[gameId]._options[input],\"\") */\n      jump\t// in\n    tag_250:\n        /* \"Practical6-Apply-TTT-Token.sol\":8069:8152  require(compareStrings(gameInformation[gameId]._options[input],\"\"),\"Invalid input\") */\n      tag_262\n      jumpi\n      mload(0x40)\n      shl(0xe5, 0x461bcd)\n      dup2\n      mstore\n        /* \"#utility.yul\":15991:15993   */\n      0x20\n        /* \"Practical6-Apply-TTT-Token.sol\":8069:8152  require(compareStrings(gameInformation[gameId]._options[input],\"\"),\"Invalid input\") */\n      0x04\n      dup3\n      add\n        /* \"#utility.yul\":15973:15994   */\n      mstore\n        /* \"#utility.yul\":16030:16032   */\n      0x0d\n        /* \"#utility.yul\":16010:16028   */\n      0x24\n      dup3\n      add\n        /* \"#utility.yul\":16003:16033   */\n      mstore\n      shl(0x9a, 0x125b9d985b1a59081a5b9c1d5d)\n        /* \"#utility.yul\":16049:16067   */\n      0x44\n      dup3\n      add\n        /* \"#utility.yul\":16042:16085   */\n      mstore\n        /* \"#utility.yul\":16102:16120   */\n      0x64\n      add\n        /* \"Practical6-Apply-TTT-Token.sol\":8069:8152  require(compareStrings(gameInformation[gameId]._options[input],\"\"),\"Invalid input\") */\n      tag_103\n        /* \"#utility.yul\":15789:16126   */\n      jump\n        /* \"Practical6-Apply-TTT-Token.sol\":8069:8152  require(compareStrings(gameInformation[gameId]._options[input],\"\"),\"Invalid input\") */\n    tag_262:\n        /* \"Practical6-Apply-TTT-Token.sol\":8223:8282  compareStrings(gameInformation[gameId]._currentPlayer, \"X\") */\n      tag_265\n        /* \"Practical6-Apply-TTT-Token.sol\":8238:8253  gameInformation */\n      0x07\n        /* \"Practical6-Apply-TTT-Token.sol\":8254:8260  gameId */\n      dup3\n        /* \"Practical6-Apply-TTT-Token.sol\":8238:8261  gameInformation[gameId] */\n      dup2\n      sload\n      dup2\n      lt\n      tag_267\n      jumpi\n      tag_267\n      tag_154\n      jump\t// in\n    tag_267:\n      swap1\n      0x00\n      mstore\n      keccak256(0x00, 0x20)\n      swap1\n      0x0b\n      mul\n      add\n        /* \"Practical6-Apply-TTT-Token.sol\":8238:8276  gameInformation[gameId]._currentPlayer */\n      0x01\n      add\n        /* \"Practical6-Apply-TTT-Token.sol\":8223:8282  compareStrings(gameInformation[gameId]._currentPlayer, \"X\") */\n      dup1\n      sload\n      tag_269\n      swap1\n      tag_214\n      jump\t// in\n    tag_269:\n      dup1\n      0x1f\n      add\n      0x20\n      dup1\n      swap2\n      div\n      mul\n      0x20\n      add\n      mload(0x40)\n      swap1\n      dup2\n      add\n      0x40\n      mstore\n      dup1\n      swap3\n      swap2\n      swap1\n      dup2\n      dup2\n      mstore\n      0x20\n      add\n      dup3\n      dup1\n      sload\n      tag_270\n      swap1\n      tag_214\n      jump\t// in\n    tag_270:\n      dup1\n      iszero\n      tag_271\n      jumpi\n      dup1\n      0x1f\n      lt\n      tag_272\n      jumpi\n      0x0100\n      dup1\n      dup4\n      sload\n      div\n      mul\n      dup4\n      mstore\n      swap2\n      0x20\n      add\n      swap2\n      jump(tag_271)\n    tag_272:\n      dup3\n      add\n      swap2\n      swap1\n      0x00\n      mstore\n      keccak256(0x00, 0x20)\n      swap1\n    tag_273:\n      dup2\n      sload\n      dup2\n      mstore\n      swap1\n      0x01\n      add\n      swap1\n      0x20\n      add\n      dup1\n      dup4\n      gt\n      tag_273\n      jumpi\n      dup3\n      swap1\n      sub\n      0x1f\n      and\n      dup3\n      add\n      swap2\n    tag_271:\n      pop\n      pop\n      pop\n      pop\n      pop\n      mload(0x40)\n      dup1\n      0x40\n      add\n      0x40\n      mstore\n      dup1\n      0x01\n      dup2\n      mstore\n      0x20\n      add\n      shl(0xfb, 0x0b)\n      dup2\n      mstore\n      pop\n        /* \"Practical6-Apply-TTT-Token.sol\":8223:8237  compareStrings */\n      tag_82\n        /* \"Practical6-Apply-TTT-Token.sol\":8223:8282  compareStrings(gameInformation[gameId]._currentPlayer, \"X\") */\n      jump\t// in\n    tag_265:\n        /* \"Practical6-Apply-TTT-Token.sol\":8220:8527  if(compareStrings(gameInformation[gameId]._currentPlayer, \"X\")){... */\n      iszero\n      tag_274\n      jumpi\n        /* \"Practical6-Apply-TTT-Token.sol\":8324:8339  gameInformation */\n      0x07\n        /* \"Practical6-Apply-TTT-Token.sol\":8340:8346  gameId */\n      dup2\n        /* \"Practical6-Apply-TTT-Token.sol\":8324:8347  gameInformation[gameId] */\n      dup2\n      sload\n      dup2\n      lt\n      tag_276\n      jumpi\n      tag_276\n      tag_154\n      jump\t// in\n    tag_276:\n      0x00\n      swap2\n      dup3\n      mstore\n      0x20\n      swap1\n      swap2\n      keccak256\n      0x0b\n      swap1\n      swap2\n      mul\n      add\n        /* \"Practical6-Apply-TTT-Token.sol\":8324:8363  gameInformation[gameId]._player1address */\n      0x04\n      add\n      sload\n      sub(shl(0xa0, 0x01), 0x01)\n      and\n        /* \"Practical6-Apply-TTT-Token.sol\":8310:8320  msg.sender */\n      caller\n        /* \"Practical6-Apply-TTT-Token.sol\":8310:8363  msg.sender == gameInformation[gameId]._player1address */\n      eq\n        /* \"Practical6-Apply-TTT-Token.sol\":8302:8387  require(msg.sender == gameInformation[gameId]._player1address,\"You are not player 1\") */\n      tag_278\n      jumpi\n      mload(0x40)\n      shl(0xe5, 0x461bcd)\n      dup2\n      mstore\n        /* \"#utility.yul\":16333:16335   */\n      0x20\n        /* \"Practical6-Apply-TTT-Token.sol\":8302:8387  require(msg.sender == gameInformation[gameId]._player1address,\"You are not player 1\") */\n      0x04\n      dup3\n      add\n        /* \"#utility.yul\":16315:16336   */\n      mstore\n        /* \"#utility.yul\":16372:16374   */\n      0x14\n        /* \"#utility.yul\":16352:16370   */\n      0x24\n      dup3\n      add\n        /* \"#utility.yul\":16345:16375   */\n      mstore\n      shl(0x60, 0x596f7520617265206e6f7420706c617965722031)\n        /* \"#utility.yul\":16391:16409   */\n      0x44\n      dup3\n      add\n        /* \"#utility.yul\":16384:16434   */\n      mstore\n        /* \"#utility.yul\":16451:16469   */\n      0x64\n      add\n        /* \"Practical6-Apply-TTT-Token.sol\":8302:8387  require(msg.sender == gameInformation[gameId]._player1address,\"You are not player 1\") */\n      tag_103\n        /* \"#utility.yul\":16131:16475   */\n      jump\n        /* \"Practical6-Apply-TTT-Token.sol\":8302:8387  require(msg.sender == gameInformation[gameId]._player1address,\"You are not player 1\") */\n    tag_278:\n        /* \"Practical6-Apply-TTT-Token.sol\":8220:8527  if(compareStrings(gameInformation[gameId]._currentPlayer, \"X\")){... */\n      jump(tag_285)\n    tag_274:\n        /* \"Practical6-Apply-TTT-Token.sol\":8448:8463  gameInformation */\n      0x07\n        /* \"Practical6-Apply-TTT-Token.sol\":8464:8470  gameId */\n      dup2\n        /* \"Practical6-Apply-TTT-Token.sol\":8448:8471  gameInformation[gameId] */\n      dup2\n      sload\n      dup2\n      lt\n      tag_283\n      jumpi\n      tag_283\n      tag_154\n      jump\t// in\n    tag_283:\n      0x00\n      swap2\n      dup3\n      mstore\n      0x20\n      swap1\n      swap2\n      keccak256\n      0x0b\n      swap1\n      swap2\n      mul\n      add\n        /* \"Practical6-Apply-TTT-Token.sol\":8448:8487  gameInformation[gameId]._player2address */\n      0x05\n      add\n      sload\n      sub(shl(0xa0, 0x01), 0x01)\n      and\n        /* \"Practical6-Apply-TTT-Token.sol\":8434:8444  msg.sender */\n      caller\n        /* \"Practical6-Apply-TTT-Token.sol\":8434:8487  msg.sender == gameInformation[gameId]._player2address */\n      eq\n        /* \"Practical6-Apply-TTT-Token.sol\":8426:8511  require(msg.sender == gameInformation[gameId]._player2address,\"You are not player 2\") */\n      tag_285\n      jumpi\n      mload(0x40)\n      shl(0xe5, 0x461bcd)\n      dup2\n      mstore\n        /* \"#utility.yul\":16682:16684   */\n      0x20\n        /* \"Practical6-Apply-TTT-Token.sol\":8426:8511  require(msg.sender == gameInformation[gameId]._player2address,\"You are not player 2\") */\n      0x04\n      dup3\n      add\n        /* \"#utility.yul\":16664:16685   */\n      mstore\n        /* \"#utility.yul\":16721:16723   */\n      0x14\n        /* \"#utility.yul\":16701:16719   */\n      0x24\n      dup3\n      add\n        /* \"#utility.yul\":16694:16724   */\n      mstore\n      shl(0x61, 0x2cb7ba9030b932903737ba10383630bcb2b91019)\n        /* \"#utility.yul\":16740:16758   */\n      0x44\n      dup3\n      add\n        /* \"#utility.yul\":16733:16783   */\n      mstore\n        /* \"#utility.yul\":16800:16818   */\n      0x64\n      add\n        /* \"Practical6-Apply-TTT-Token.sol\":8426:8511  require(msg.sender == gameInformation[gameId]._player2address,\"You are not player 2\") */\n      tag_103\n        /* \"#utility.yul\":16480:16824   */\n      jump\n        /* \"Practical6-Apply-TTT-Token.sol\":8426:8511  require(msg.sender == gameInformation[gameId]._player2address,\"You are not player 2\") */\n    tag_285:\n        /* \"Practical6-Apply-TTT-Token.sol\":8597:8612  gameInformation */\n      0x07\n        /* \"Practical6-Apply-TTT-Token.sol\":8613:8619  gameId */\n      dup2\n        /* \"Practical6-Apply-TTT-Token.sol\":8597:8620  gameInformation[gameId] */\n      dup2\n      sload\n      dup2\n      lt\n      tag_289\n      jumpi\n      tag_289\n      tag_154\n      jump\t// in\n    tag_289:\n      swap1\n      0x00\n      mstore\n      keccak256(0x00, 0x20)\n      swap1\n      0x0b\n      mul\n      add\n        /* \"Practical6-Apply-TTT-Token.sol\":8597:8635  gameInformation[gameId]._currentPlayer */\n      0x01\n      add\n        /* \"Practical6-Apply-TTT-Token.sol\":8555:8570  gameInformation */\n      0x07\n        /* \"Practical6-Apply-TTT-Token.sol\":8571:8577  gameId */\n      dup3\n        /* \"Practical6-Apply-TTT-Token.sol\":8555:8578  gameInformation[gameId] */\n      dup2\n      sload\n      dup2\n      lt\n      tag_292\n      jumpi\n      tag_292\n      tag_154\n      jump\t// in\n    tag_292:\n      swap1\n      0x00\n      mstore\n      keccak256(0x00, 0x20)\n      swap1\n      0x0b\n      mul\n      add\n        /* \"Practical6-Apply-TTT-Token.sol\":8555:8587  gameInformation[gameId]._options */\n      0x02\n      add\n        /* \"Practical6-Apply-TTT-Token.sol\":8588:8593  input */\n      dup4\n        /* \"Practical6-Apply-TTT-Token.sol\":8555:8594  gameInformation[gameId]._options[input] */\n      dup2\n      sload\n      dup2\n      lt\n      tag_295\n      jumpi\n      tag_295\n      tag_154\n      jump\t// in\n    tag_295:\n      swap1\n      0x00\n      mstore\n      keccak256(0x00, 0x20)\n      add\n        /* \"Practical6-Apply-TTT-Token.sol\":8555:8635  gameInformation[gameId]._options[input] = gameInformation[gameId]._currentPlayer */\n      swap1\n      dup2\n      tag_297\n      swap2\n      swap1\n      tag_298\n      jump\t// in\n    tag_297:\n      pop\n        /* \"Practical6-Apply-TTT-Token.sol\":8701:8751  updateUI(gameInformation[gameId]._options, gameId) */\n      0x9659242f3970136bf08cba261398ae9f0bc58a676137d79d3c2040dcdacbc18b\n        /* \"Practical6-Apply-TTT-Token.sol\":8710:8725  gameInformation */\n      0x07\n        /* \"Practical6-Apply-TTT-Token.sol\":8726:8732  gameId */\n      dup3\n        /* \"Practical6-Apply-TTT-Token.sol\":8710:8733  gameInformation[gameId] */\n      dup2\n      sload\n      dup2\n      lt\n      tag_300\n      jumpi\n      tag_300\n      tag_154\n      jump\t// in\n    tag_300:\n      swap1\n      0x00\n      mstore\n      keccak256(0x00, 0x20)\n      swap1\n      0x0b\n      mul\n      add\n        /* \"Practical6-Apply-TTT-Token.sol\":8710:8742  gameInformation[gameId]._options */\n      0x02\n      add\n        /* \"Practical6-Apply-TTT-Token.sol\":8744:8750  gameId */\n      dup3\n        /* \"Practical6-Apply-TTT-Token.sol\":8701:8751  updateUI(gameInformation[gameId]._options, gameId) */\n      mload(0x40)\n      tag_302\n      swap3\n      swap2\n      swap1\n      tag_303\n      jump\t// in\n    tag_302:\n      mload(0x40)\n      dup1\n      swap2\n      sub\n      swap1\n      log1\n        /* \"Practical6-Apply-TTT-Token.sol\":8859:8878  checkWinner(gameId) */\n      tag_304\n        /* \"Practical6-Apply-TTT-Token.sol\":8871:8877  gameId */\n      dup2\n        /* \"Practical6-Apply-TTT-Token.sol\":8859:8870  checkWinner */\n      tag_305\n        /* \"Practical6-Apply-TTT-Token.sol\":8859:8878  checkWinner(gameId) */\n      jump\t// in\n    tag_304:\n        /* \"Practical6-Apply-TTT-Token.sol\":7876:8922  function userInput(uint input, uint gameId) external {... */\n      pop\n      pop\n      jump\t// out\n        /* \"Practical6-Apply-TTT-Token.sol\":1065:1098  GameInfo[] public gameInformation */\n    tag_63:\n      0x07\n      dup2\n      dup2\n      sload\n      dup2\n      lt\n      tag_306\n      jumpi\n      0x00\n      dup1\n      revert\n    tag_306:\n      0x00\n      swap2\n      dup3\n      mstore\n      0x20\n      swap1\n      swap2\n      keccak256\n      0x0b\n      swap1\n      swap2\n      mul\n      add\n      dup1\n      sload\n      0x01\n      dup3\n      add\n      dup1\n      sload\n      0xff\n      swap1\n      swap3\n      and\n      swap4\n      pop\n      swap1\n      tag_308\n      swap1\n      tag_214\n      jump\t// in\n    tag_308:\n      dup1\n      0x1f\n      add\n      0x20\n      dup1\n      swap2\n      div\n      mul\n      0x20\n      add\n      mload(0x40)\n      swap1\n      dup2\n      add\n      0x40\n      mstore\n      dup1\n      swap3\n      swap2\n      swap1\n      dup2\n      dup2\n      mstore\n      0x20\n      add\n      dup3\n      dup1\n      sload\n      tag_309\n      swap1\n      tag_214\n      jump\t// in\n    tag_309:\n      dup1\n      iszero\n      tag_310\n      jumpi\n      dup1\n      0x1f\n      lt\n      tag_311\n      jumpi\n      0x0100\n      dup1\n      dup4\n      sload\n      div\n      mul\n      dup4\n      mstore\n      swap2\n      0x20\n      add\n      swap2\n      jump(tag_310)\n    tag_311:\n      dup3\n      add\n      swap2\n      swap1\n      0x00\n      mstore\n      keccak256(0x00, 0x20)\n      swap1\n    tag_312:\n      dup2\n      sload\n      dup2\n      mstore\n      swap1\n      0x01\n      add\n      swap1\n      0x20\n      add\n      dup1\n      dup4\n      gt\n      tag_312\n      jumpi\n      dup3\n      swap1\n      sub\n      0x1f\n      and\n      dup3\n      add\n      swap2\n    tag_310:\n      pop\n      pop\n      pop\n      0x04\n      dup5\n      add\n      sload\n      0x05\n      dup6\n      add\n      sload\n      0x06\n      dup7\n      add\n      sload\n      0x07\n      dup8\n      add\n      sload\n      0x08\n      dup9\n      add\n      sload\n      0x09\n      dup10\n      add\n      sload\n      0x0a\n      swap1\n      swap10\n      add\n      sload\n      swap8\n      swap9\n      sub(shl(0xa0, 0x01), 0x01)\n      swap6\n      dup7\n      and\n      swap9\n      swap5\n      dup7\n      and\n      swap8\n      pop\n      swap3\n      swap6\n      pop\n      swap4\n      and\n      swap3\n      swap2\n      dup10\n      jump\t// out\n        /* \"Practical6-Apply-TTT-Token.sol\":2973:3220  function getExcessBalance() external onlyOwner{... */\n    tag_67:\n        /* \"Practical6-Apply-TTT-Token.sol\":3342:3347  owner */\n      and(sub(shl(0xa0, 0x01), 0x01), sload(0x06))\n        /* \"Practical6-Apply-TTT-Token.sol\":3328:3338  msg.sender */\n      caller\n        /* \"Practical6-Apply-TTT-Token.sol\":3328:3347  msg.sender == owner */\n      eq\n        /* \"Practical6-Apply-TTT-Token.sol\":3320:3365  require(msg.sender == owner, \"Not the owner\") */\n      tag_314\n      jumpi\n      mload(0x40)\n      shl(0xe5, 0x461bcd)\n      dup2\n      mstore\n        /* \"#utility.yul\":20262:20264   */\n      0x20\n        /* \"Practical6-Apply-TTT-Token.sol\":3320:3365  require(msg.sender == owner, \"Not the owner\") */\n      0x04\n      dup3\n      add\n        /* \"#utility.yul\":20244:20265   */\n      mstore\n        /* \"#utility.yul\":20301:20303   */\n      0x0d\n        /* \"#utility.yul\":20281:20299   */\n      0x24\n      dup3\n      add\n        /* \"#utility.yul\":20274:20304   */\n      mstore\n      shl(0x99, 0x2737ba103a34329037bbb732b9)\n        /* \"#utility.yul\":20320:20338   */\n      0x44\n      dup3\n      add\n        /* \"#utility.yul\":20313:20356   */\n      mstore\n        /* \"#utility.yul\":20373:20391   */\n      0x64\n      add\n        /* \"Practical6-Apply-TTT-Token.sol\":3320:3365  require(msg.sender == owner, \"Not the owner\") */\n      tag_103\n        /* \"#utility.yul\":20060:20397   */\n      jump\n        /* \"Practical6-Apply-TTT-Token.sol\":3320:3365  require(msg.sender == owner, \"Not the owner\") */\n    tag_314:\n        /* \"Practical6-Apply-TTT-Token.sol\":3078:3089  totalAmount */\n      sload(0x05)\n        /* \"Practical6-Apply-TTT-Token.sol\":3092:3093  0 */\n      0x00\n        /* \"Practical6-Apply-TTT-Token.sol\":3042:3050  TTTToken */\n      dup1\n      sload\n        /* \"Practical6-Apply-TTT-Token.sol\":3042:3075  TTTToken.balanceOf(address(this)) */\n      mload(0x40)\n      shl(0xe0, 0x70a08231)\n      dup2\n      mstore\n        /* \"Practical6-Apply-TTT-Token.sol\":3069:3073  this */\n      address\n        /* \"Practical6-Apply-TTT-Token.sol\":3042:3075  TTTToken.balanceOf(address(this)) */\n      0x04\n      dup3\n      add\n        /* \"#utility.yul\":5328:5379   */\n      mstore\n        /* \"Practical6-Apply-TTT-Token.sol\":3092:3093  0 */\n      swap2\n      swap3\n        /* \"Practical6-Apply-TTT-Token.sol\":3078:3089  totalAmount */\n      swap2\n      sub(shl(0xa0, 0x01), 0x01)\n        /* \"Practical6-Apply-TTT-Token.sol\":3042:3050  TTTToken */\n      swap1\n      swap2\n      and\n      swap1\n        /* \"Practical6-Apply-TTT-Token.sol\":3042:3060  TTTToken.balanceOf */\n      0x70a08231\n      swap1\n        /* \"#utility.yul\":5301:5319   */\n      0x24\n      add\n        /* \"Practical6-Apply-TTT-Token.sol\":3042:3075  TTTToken.balanceOf(address(this)) */\n      0x20\n      mload(0x40)\n      dup1\n      dup4\n      sub\n      dup2\n      dup7\n      gas\n      staticcall\n      iszero\n      dup1\n      iszero\n      tag_320\n      jumpi\n      returndatasize\n      0x00\n      dup1\n      returndatacopy\n      revert(0x00, returndatasize)\n    tag_320:\n      pop\n      pop\n      pop\n      pop\n      mload(0x40)\n      returndatasize\n      not(0x1f)\n      0x1f\n      dup3\n      add\n      and\n      dup3\n      add\n      dup1\n      0x40\n      mstore\n      pop\n      dup2\n      add\n      swap1\n      tag_321\n      swap2\n      swap1\n      tag_110\n      jump\t// in\n    tag_321:\n        /* \"Practical6-Apply-TTT-Token.sol\":3042:3089  TTTToken.balanceOf(address(this)) - totalAmount */\n      tag_322\n      swap2\n      swap1\n      tag_124\n      jump\t// in\n    tag_322:\n        /* \"Practical6-Apply-TTT-Token.sol\":3042:3093  TTTToken.balanceOf(address(this)) - totalAmount > 0 */\n      gt\n        /* \"Practical6-Apply-TTT-Token.sol\":3034:3120  require(TTTToken.balanceOf(address(this)) - totalAmount > 0, \"The token is not extra\") */\n      tag_323\n      jumpi\n      mload(0x40)\n      shl(0xe5, 0x461bcd)\n      dup2\n      mstore\n        /* \"#utility.yul\":20604:20606   */\n      0x20\n        /* \"Practical6-Apply-TTT-Token.sol\":3034:3120  require(TTTToken.balanceOf(address(this)) - totalAmount > 0, \"The token is not extra\") */\n      0x04\n      dup3\n      add\n        /* \"#utility.yul\":20586:20607   */\n      mstore\n        /* \"#utility.yul\":20643:20645   */\n      0x16\n        /* \"#utility.yul\":20623:20641   */\n      0x24\n      dup3\n      add\n        /* \"#utility.yul\":20616:20646   */\n      mstore\n      shl(0x50, 0x54686520746f6b656e206973206e6f74206578747261)\n        /* \"#utility.yul\":20662:20680   */\n      0x44\n      dup3\n      add\n        /* \"#utility.yul\":20655:20707   */\n      mstore\n        /* \"#utility.yul\":20724:20742   */\n      0x64\n      add\n        /* \"Practical6-Apply-TTT-Token.sol\":3034:3120  require(TTTToken.balanceOf(address(this)) - totalAmount > 0, \"The token is not extra\") */\n      tag_103\n        /* \"#utility.yul\":20402:20748   */\n      jump\n        /* \"Practical6-Apply-TTT-Token.sol\":3034:3120  require(TTTToken.balanceOf(address(this)) - totalAmount > 0, \"The token is not extra\") */\n    tag_323:\n        /* \"Practical6-Apply-TTT-Token.sol\":3135:3143  TTTToken */\n      sload(0x00)\n        /* \"Practical6-Apply-TTT-Token.sol\":3153:3158  owner */\n      sload(0x06)\n        /* \"Practical6-Apply-TTT-Token.sol\":3196:3207  totalAmount */\n      sload(0x05)\n        /* \"Practical6-Apply-TTT-Token.sol\":3160:3193  TTTToken.balanceOf(address(this)) */\n      mload(0x40)\n      shl(0xe0, 0x70a08231)\n      dup2\n      mstore\n        /* \"Practical6-Apply-TTT-Token.sol\":3187:3191  this */\n      address\n        /* \"Practical6-Apply-TTT-Token.sol\":3160:3193  TTTToken.balanceOf(address(this)) */\n      0x04\n      dup3\n      add\n        /* \"#utility.yul\":5328:5379   */\n      mstore\n      sub(shl(0xa0, 0x01), 0x01)\n        /* \"Practical6-Apply-TTT-Token.sol\":3135:3143  TTTToken */\n      swap4\n      dup5\n      and\n      swap4\n        /* \"Practical6-Apply-TTT-Token.sol\":3135:3152  TTTToken.transfer */\n      0xa9059cbb\n      swap4\n        /* \"Practical6-Apply-TTT-Token.sol\":3153:3158  owner */\n      and\n      swap2\n        /* \"Practical6-Apply-TTT-Token.sol\":3196:3207  totalAmount */\n      swap1\n        /* \"Practical6-Apply-TTT-Token.sol\":3135:3143  TTTToken */\n      dup5\n      swap1\n        /* \"Practical6-Apply-TTT-Token.sol\":3160:3178  TTTToken.balanceOf */\n      0x70a08231\n      swap1\n        /* \"#utility.yul\":5301:5319   */\n      0x24\n      add\n        /* \"Practical6-Apply-TTT-Token.sol\":3160:3193  TTTToken.balanceOf(address(this)) */\n      0x20\n      mload(0x40)\n      dup1\n      dup4\n      sub\n      dup2\n      dup7\n      gas\n      staticcall\n      iszero\n      dup1\n      iszero\n      tag_328\n      jumpi\n      returndatasize\n      0x00\n      dup1\n      returndatacopy\n      revert(0x00, returndatasize)\n    tag_328:\n      pop\n      pop\n      pop\n      pop\n      mload(0x40)\n      returndatasize\n      not(0x1f)\n      0x1f\n      dup3\n      add\n      and\n      dup3\n      add\n      dup1\n      0x40\n      mstore\n      pop\n      dup2\n      add\n      swap1\n      tag_329\n      swap2\n      swap1\n      tag_110\n      jump\t// in\n    tag_329:\n        /* \"Practical6-Apply-TTT-Token.sol\":3160:3207  TTTToken.balanceOf(address(this)) - totalAmount */\n      tag_330\n      swap2\n      swap1\n      tag_124\n      jump\t// in\n    tag_330:\n        /* \"Practical6-Apply-TTT-Token.sol\":3135:3208  TTTToken.transfer(owner, TTTToken.balanceOf(address(this)) - totalAmount) */\n      mload(0x40)\n      not(sub(shl(0xe0, 0x01), 0x01))\n      0xe0\n      dup6\n      swap1\n      shl\n      and\n      dup2\n      mstore\n      sub(shl(0xa0, 0x01), 0x01)\n        /* \"#utility.yul\":20945:20977   */\n      swap1\n      swap3\n      and\n        /* \"Practical6-Apply-TTT-Token.sol\":3135:3208  TTTToken.transfer(owner, TTTToken.balanceOf(address(this)) - totalAmount) */\n      0x04\n      dup4\n      add\n        /* \"#utility.yul\":20927:20978   */\n      mstore\n        /* \"#utility.yul\":20994:21012   */\n      0x24\n      dup3\n      add\n        /* \"#utility.yul\":20987:21021   */\n      mstore\n        /* \"#utility.yul\":20900:20918   */\n      0x44\n      add\n        /* \"Practical6-Apply-TTT-Token.sol\":3135:3208  TTTToken.transfer(owner, TTTToken.balanceOf(address(this)) - totalAmount) */\n      0x20\n      mload(0x40)\n      dup1\n      dup4\n      sub\n      dup2\n      0x00\n      dup8\n      gas\n      call\n      iszero\n      dup1\n      iszero\n      tag_334\n      jumpi\n      returndatasize\n      0x00\n      dup1\n      returndatacopy\n      revert(0x00, returndatasize)\n    tag_334:\n      pop\n      pop\n      pop\n      pop\n      mload(0x40)\n      returndatasize\n      not(0x1f)\n      0x1f\n      dup3\n      add\n      and\n      dup3\n      add\n      dup1\n      0x40\n      mstore\n      pop\n      dup2\n      add\n      swap1\n      tag_208\n      swap2\n      swap1\n      tag_131\n      jump\t// in\n        /* \"Practical6-Apply-TTT-Token.sol\":4005:4143  function getGameInformation (uint gameId) external view returns (GameInfo memory){... */\n    tag_73:\n        /* \"Practical6-Apply-TTT-Token.sol\":4070:4085  GameInfo memory */\n      tag_336\n      tag_143\n      jump\t// in\n    tag_336:\n        /* \"Practical6-Apply-TTT-Token.sol\":4108:4123  gameInformation */\n      0x07\n        /* \"Practical6-Apply-TTT-Token.sol\":4124:4130  gameId */\n      dup3\n        /* \"Practical6-Apply-TTT-Token.sol\":4108:4131  gameInformation[gameId] */\n      dup2\n      sload\n      dup2\n      lt\n      tag_339\n      jumpi\n      tag_339\n      tag_154\n      jump\t// in\n    tag_339:\n      0x00\n      swap2\n      dup3\n      mstore\n      0x20\n      swap2\n      dup3\n      swap1\n      keccak256\n        /* \"Practical6-Apply-TTT-Token.sol\":4101:4131  return gameInformation[gameId] */\n      0x40\n      dup1\n      mload\n      0x0160\n      dup2\n      add\n      swap1\n      swap2\n      mstore\n        /* \"Practical6-Apply-TTT-Token.sol\":4108:4131  gameInformation[gameId] */\n      0x0b\n      swap1\n      swap3\n      mul\n      add\n        /* \"Practical6-Apply-TTT-Token.sol\":4101:4131  return gameInformation[gameId] */\n      dup1\n      sload\n      0xff\n      and\n      iszero\n      iszero\n      dup3\n      mstore\n      0x01\n      dup2\n      add\n      dup1\n      sload\n      swap3\n      swap4\n        /* \"Practical6-Apply-TTT-Token.sol\":4108:4131  gameInformation[gameId] */\n      swap2\n      swap3\n        /* \"Practical6-Apply-TTT-Token.sol\":4101:4131  return gameInformation[gameId] */\n      swap2\n      dup5\n      add\n      swap2\n      tag_341\n      swap1\n      tag_214\n      jump\t// in\n    tag_341:\n      dup1\n      0x1f\n      add\n      0x20\n      dup1\n      swap2\n      div\n      mul\n      0x20\n      add\n      mload(0x40)\n      swap1\n      dup2\n      add\n      0x40\n      mstore\n      dup1\n      swap3\n      swap2\n      swap1\n      dup2\n      dup2\n      mstore\n      0x20\n      add\n      dup3\n      dup1\n      sload\n      tag_342\n      swap1\n      tag_214\n      jump\t// in\n    tag_342:\n      dup1\n      iszero\n      tag_343\n      jumpi\n      dup1\n      0x1f\n      lt\n      tag_344\n      jumpi\n      0x0100\n      dup1\n      dup4\n      sload\n      div\n      mul\n      dup4\n      mstore\n      swap2\n      0x20\n      add\n      swap2\n      jump(tag_343)\n    tag_344:\n      dup3\n      add\n      swap2\n      swap1\n      0x00\n      mstore\n      keccak256(0x00, 0x20)\n      swap1\n    tag_345:\n      dup2\n      sload\n      dup2\n      mstore\n      swap1\n      0x01\n      add\n      swap1\n      0x20\n      add\n      dup1\n      dup4\n      gt\n      tag_345\n      jumpi\n      dup3\n      swap1\n      sub\n      0x1f\n      and\n      dup3\n      add\n      swap2\n    tag_343:\n      pop\n      pop\n      pop\n      pop\n      pop\n      dup2\n      mstore\n      0x20\n      add\n      0x02\n      dup3\n      add\n      dup1\n      sload\n      dup1\n      0x20\n      mul\n      0x20\n      add\n      mload(0x40)\n      swap1\n      dup2\n      add\n      0x40\n      mstore\n      dup1\n      swap3\n      swap2\n      swap1\n      dup2\n      dup2\n      mstore\n      0x20\n      add\n      0x00\n      swap1\n    tag_346:\n      dup3\n      dup3\n      lt\n      iszero\n      tag_347\n      jumpi\n      dup4\n      dup3\n      swap1\n      0x00\n      mstore\n      keccak256(0x00, 0x20)\n      add\n      dup1\n      sload\n      tag_349\n      swap1\n      tag_214\n      jump\t// in\n    tag_349:\n      dup1\n      0x1f\n      add\n      0x20\n      dup1\n      swap2\n      div\n      mul\n      0x20\n      add\n      mload(0x40)\n      swap1\n      dup2\n      add\n      0x40\n      mstore\n      dup1\n      swap3\n      swap2\n      swap1\n      dup2\n      dup2\n      mstore\n      0x20\n      add\n      dup3\n      dup1\n      sload\n      tag_350\n      swap1\n      tag_214\n      jump\t// in\n    tag_350:\n      dup1\n      iszero\n      tag_351\n      jumpi\n      dup1\n      0x1f\n      lt\n      tag_352\n      jumpi\n      0x0100\n      dup1\n      dup4\n      sload\n      div\n      mul\n      dup4\n      mstore\n      swap2\n      0x20\n      add\n      swap2\n      jump(tag_351)\n    tag_352:\n      dup3\n      add\n      swap2\n      swap1\n      0x00\n      mstore\n      keccak256(0x00, 0x20)\n      swap1\n    tag_353:\n      dup2\n      sload\n      dup2\n      mstore\n      swap1\n      0x01\n      add\n      swap1\n      0x20\n      add\n      dup1\n      dup4\n      gt\n      tag_353\n      jumpi\n      dup3\n      swap1\n      sub\n      0x1f\n      and\n      dup3\n      add\n      swap2\n    tag_351:\n      pop\n      pop\n      pop\n      pop\n      pop\n      dup2\n      mstore\n      0x20\n      add\n      swap1\n      0x01\n      add\n      swap1\n      jump(tag_346)\n    tag_347:\n      pop\n      pop\n      pop\n      pop\n      dup2\n      mstore\n      0x20\n      add\n      0x03\n      dup3\n      add\n      dup1\n      sload\n      dup1\n      0x20\n      mul\n      0x20\n      add\n      mload(0x40)\n      swap1\n      dup2\n      add\n      0x40\n      mstore\n      dup1\n      swap3\n      swap2\n      swap1\n      dup2\n      dup2\n      mstore\n      0x20\n      add\n      dup3\n      dup1\n      sload\n      dup1\n      iszero\n      tag_354\n      jumpi\n      0x20\n      mul\n      dup3\n      add\n      swap2\n      swap1\n      0x00\n      mstore\n      keccak256(0x00, 0x20)\n      swap1\n    tag_355:\n      dup2\n      sload\n      dup2\n      mstore\n      0x20\n      add\n      swap1\n      0x01\n      add\n      swap1\n      dup1\n      dup4\n      gt\n      tag_355\n      jumpi\n    tag_354:\n      pop\n      pop\n      pop\n      swap2\n      dup4\n      mstore\n      pop\n      pop\n      0x04\n      dup3\n      add\n      sload\n      sub(shl(0xa0, 0x01), 0x01)\n      swap1\n      dup2\n      and\n      0x20\n      dup4\n      add\n      mstore\n      0x05\n      dup4\n      add\n      sload\n      dup2\n      and\n      0x40\n      dup4\n      add\n      mstore\n      0x06\n      dup4\n      add\n      sload\n      0x60\n      dup4\n      add\n      mstore\n      0x07\n      dup4\n      add\n      sload\n      and\n      0x80\n      dup3\n      add\n      mstore\n      0x08\n      dup3\n      add\n      sload\n      0xa0\n      dup3\n      add\n      mstore\n      0x09\n      dup3\n      add\n      sload\n      0xc0\n      dup3\n      add\n      mstore\n      0x0a\n      swap1\n      swap2\n      add\n      sload\n      0xe0\n      swap1\n      swap2\n      add\n      mstore\n      swap3\n        /* \"Practical6-Apply-TTT-Token.sol\":4005:4143  function getGameInformation (uint gameId) external view returns (GameInfo memory){... */\n      swap2\n      pop\n      pop\n      jump\t// out\n        /* \"Practical6-Apply-TTT-Token.sol\":5824:7758  function joinGame (uint gameId, uint256 betAmount) external noReentrancy {... */\n    tag_78:\n        /* \"Practical6-Apply-TTT-Token.sol\":3478:3484  locked */\n      sload(0x06)\n      shl(0xa0, 0x01)\n      swap1\n      div\n      0xff\n      and\n        /* \"Practical6-Apply-TTT-Token.sol\":3477:3484  !locked */\n      iszero\n        /* \"Practical6-Apply-TTT-Token.sol\":3469:3510  require(!locked, \"Error: Reentrant call\") */\n      tag_357\n      jumpi\n      mload(0x40)\n      shl(0xe5, 0x461bcd)\n      dup2\n      mstore\n        /* \"#utility.yul\":9376:9378   */\n      0x20\n        /* \"Practical6-Apply-TTT-Token.sol\":3469:3510  require(!locked, \"Error: Reentrant call\") */\n      0x04\n      dup3\n      add\n        /* \"#utility.yul\":9358:9379   */\n      mstore\n        /* \"#utility.yul\":9415:9417   */\n      0x15\n        /* \"#utility.yul\":9395:9413   */\n      0x24\n      dup3\n      add\n        /* \"#utility.yul\":9388:9418   */\n      mstore\n      shl(0x5a, 0x115c9c9bdc8e881499595b9d1c985b9d0818d85b1b)\n        /* \"#utility.yul\":9434:9452   */\n      0x44\n      dup3\n      add\n        /* \"#utility.yul\":9427:9478   */\n      mstore\n        /* \"#utility.yul\":9495:9513   */\n      0x64\n      add\n        /* \"Practical6-Apply-TTT-Token.sol\":3469:3510  require(!locked, \"Error: Reentrant call\") */\n      tag_103\n        /* \"#utility.yul\":9174:9519   */\n      jump\n        /* \"Practical6-Apply-TTT-Token.sol\":3469:3510  require(!locked, \"Error: Reentrant call\") */\n    tag_357:\n        /* \"Practical6-Apply-TTT-Token.sol\":3525:3531  locked */\n      0x06\n        /* \"Practical6-Apply-TTT-Token.sol\":3525:3538  locked = true */\n      dup1\n      sload\n      not(shl(0xa0, 0xff))\n      and\n      shl(0xa0, 0x01)\n      or\n      swap1\n      sstore\n        /* \"Practical6-Apply-TTT-Token.sol\":5990:6005  gameInformation */\n      0x07\n        /* \"Practical6-Apply-TTT-Token.sol\":5990:6013  gameInformation[gameId] */\n      dup1\n      sload\n        /* \"Practical6-Apply-TTT-Token.sol\":6006:6012  gameId */\n      dup4\n      swap1\n        /* \"Practical6-Apply-TTT-Token.sol\":5990:6013  gameInformation[gameId] */\n      dup2\n      lt\n      tag_361\n      jumpi\n      tag_361\n      tag_154\n      jump\t// in\n    tag_361:\n      swap1\n      0x00\n      mstore\n      keccak256(0x00, 0x20)\n      swap1\n      0x0b\n      mul\n      add\n        /* \"Practical6-Apply-TTT-Token.sol\":5990:6026  gameInformation[gameId]._playerCount */\n      0x06\n      add\n      sload\n        /* \"Practical6-Apply-TTT-Token.sol\":6030:6031  1 */\n      0x01\n        /* \"Practical6-Apply-TTT-Token.sol\":5990:6031  gameInformation[gameId]._playerCount == 1 */\n      sub\n        /* \"Practical6-Apply-TTT-Token.sol\":5987:7641  if(gameInformation[gameId]._playerCount == 1){... */\n      tag_363\n      jumpi\n        /* \"Practical6-Apply-TTT-Token.sol\":6093:6108  gameInformation */\n      0x07\n        /* \"Practical6-Apply-TTT-Token.sol\":6109:6115  gameId */\n      dup3\n        /* \"Practical6-Apply-TTT-Token.sol\":6093:6116  gameInformation[gameId] */\n      dup2\n      sload\n      dup2\n      lt\n      tag_365\n      jumpi\n      tag_365\n      tag_154\n      jump\t// in\n    tag_365:\n      0x00\n      swap2\n      dup3\n      mstore\n      0x20\n      dup3\n      keccak256\n      0x0b\n      swap2\n      swap1\n      swap2\n      mul\n      add\n        /* \"Practical6-Apply-TTT-Token.sol\":6093:6128  gameInformation[gameId]._player1Bet */\n      0x08\n      add\n      sload\n        /* \"Practical6-Apply-TTT-Token.sol\":6059:6067  TTTToken */\n      swap1\n      sload\n        /* \"Practical6-Apply-TTT-Token.sol\":6059:6089  TTTToken.balanceOf(msg.sender) */\n      mload(0x40)\n      shl(0xe0, 0x70a08231)\n      dup2\n      mstore\n        /* \"Practical6-Apply-TTT-Token.sol\":6078:6088  msg.sender */\n      caller\n        /* \"Practical6-Apply-TTT-Token.sol\":6059:6089  TTTToken.balanceOf(msg.sender) */\n      0x04\n      dup3\n      add\n        /* \"#utility.yul\":5328:5379   */\n      mstore\n      sub(shl(0xa0, 0x01), 0x01)\n        /* \"Practical6-Apply-TTT-Token.sol\":6059:6067  TTTToken */\n      swap1\n      swap2\n      and\n      swap1\n        /* \"Practical6-Apply-TTT-Token.sol\":6059:6077  TTTToken.balanceOf */\n      0x70a08231\n      swap1\n        /* \"#utility.yul\":5301:5319   */\n      0x24\n      add\n        /* \"Practical6-Apply-TTT-Token.sol\":6059:6089  TTTToken.balanceOf(msg.sender) */\n      0x20\n      mload(0x40)\n      dup1\n      dup4\n      sub\n      dup2\n      dup7\n      gas\n      staticcall\n      iszero\n      dup1\n      iszero\n      tag_369\n      jumpi\n      returndatasize\n      0x00\n      dup1\n      returndatacopy\n      revert(0x00, returndatasize)\n    tag_369:\n      pop\n      pop\n      pop\n      pop\n      mload(0x40)\n      returndatasize\n      not(0x1f)\n      0x1f\n      dup3\n      add\n      and\n      dup3\n      add\n      dup1\n      0x40\n      mstore\n      pop\n      dup2\n      add\n      swap1\n      tag_370\n      swap2\n      swap1\n      tag_110\n      jump\t// in\n    tag_370:\n        /* \"Practical6-Apply-TTT-Token.sol\":6059:6128  TTTToken.balanceOf(msg.sender) >= gameInformation[gameId]._player1Bet */\n      lt\n      iszero\n        /* \"Practical6-Apply-TTT-Token.sol\":6051:6151  require(TTTToken.balanceOf(msg.sender) >= gameInformation[gameId]._player1Bet, \"Not enough balance\") */\n      tag_371\n      jumpi\n      mload(0x40)\n      shl(0xe5, 0x461bcd)\n      dup2\n      mstore\n        /* \"#utility.yul\":9915:9917   */\n      0x20\n        /* \"Practical6-Apply-TTT-Token.sol\":6051:6151  require(TTTToken.balanceOf(msg.sender) >= gameInformation[gameId]._player1Bet, \"Not enough balance\") */\n      0x04\n      dup3\n      add\n        /* \"#utility.yul\":9897:9918   */\n      mstore\n        /* \"#utility.yul\":9954:9956   */\n      0x12\n        /* \"#utility.yul\":9934:9952   */\n      0x24\n      dup3\n      add\n        /* \"#utility.yul\":9927:9957   */\n      mstore\n      shl(0x70, 0x4e6f7420656e6f7567682062616c616e6365)\n        /* \"#utility.yul\":9973:9991   */\n      0x44\n      dup3\n      add\n        /* \"#utility.yul\":9966:10014   */\n      mstore\n        /* \"#utility.yul\":10031:10049   */\n      0x64\n      add\n        /* \"Practical6-Apply-TTT-Token.sol\":6051:6151  require(TTTToken.balanceOf(msg.sender) >= gameInformation[gameId]._player1Bet, \"Not enough balance\") */\n      tag_103\n        /* \"#utility.yul\":9713:10055   */\n      jump\n        /* \"Practical6-Apply-TTT-Token.sol\":6051:6151  require(TTTToken.balanceOf(msg.sender) >= gameInformation[gameId]._player1Bet, \"Not enough balance\") */\n    tag_371:\n        /* \"Practical6-Apply-TTT-Token.sol\":6191:6206  gameInformation */\n      0x07\n        /* \"Practical6-Apply-TTT-Token.sol\":6207:6213  gameId */\n      dup3\n        /* \"Practical6-Apply-TTT-Token.sol\":6191:6214  gameInformation[gameId] */\n      dup2\n      sload\n      dup2\n      lt\n      tag_374\n      jumpi\n      tag_374\n      tag_154\n      jump\t// in\n    tag_374:\n      swap1\n      0x00\n      mstore\n      keccak256(0x00, 0x20)\n      swap1\n      0x0b\n      mul\n      add\n        /* \"Practical6-Apply-TTT-Token.sol\":6191:6226  gameInformation[gameId]._player1Bet */\n      0x08\n      add\n      sload\n        /* \"Practical6-Apply-TTT-Token.sol\":6178:6187  betAmount */\n      dup2\n        /* \"Practical6-Apply-TTT-Token.sol\":6178:6226  betAmount == gameInformation[gameId]._player1Bet */\n      eq\n        /* \"Practical6-Apply-TTT-Token.sol\":6170:6257  require(betAmount == gameInformation[gameId]._player1Bet, \"Need to pay min bet amount\") */\n      tag_376\n      jumpi\n      mload(0x40)\n      shl(0xe5, 0x461bcd)\n      dup2\n      mstore\n        /* \"#utility.yul\":10262:10264   */\n      0x20\n        /* \"Practical6-Apply-TTT-Token.sol\":6170:6257  require(betAmount == gameInformation[gameId]._player1Bet, \"Need to pay min bet amount\") */\n      0x04\n      dup3\n      add\n        /* \"#utility.yul\":10244:10265   */\n      mstore\n        /* \"#utility.yul\":10301:10303   */\n      0x1a\n        /* \"#utility.yul\":10281:10299   */\n      0x24\n      dup3\n      add\n        /* \"#utility.yul\":10274:10304   */\n      mstore\n        /* \"#utility.yul\":10340:10368   */\n      0x4e65656420746f20706179206d696e2062657420616d6f756e74000000000000\n        /* \"#utility.yul\":10320:10338   */\n      0x44\n      dup3\n      add\n        /* \"#utility.yul\":10313:10369   */\n      mstore\n        /* \"#utility.yul\":10386:10404   */\n      0x64\n      add\n        /* \"Practical6-Apply-TTT-Token.sol\":6170:6257  require(betAmount == gameInformation[gameId]._player1Bet, \"Need to pay min bet amount\") */\n      tag_103\n        /* \"#utility.yul\":10060:10410   */\n      jump\n        /* \"Practical6-Apply-TTT-Token.sol\":6170:6257  require(betAmount == gameInformation[gameId]._player1Bet, \"Need to pay min bet amount\") */\n    tag_376:\n        /* \"Practical6-Apply-TTT-Token.sol\":6278:6296  uint256 burnAmount */\n      0x00\n        /* \"Practical6-Apply-TTT-Token.sol\":6323:6326  100 */\n      0x64\n        /* \"Practical6-Apply-TTT-Token.sol\":6312:6319  burnFee */\n      sload(0x03)\n        /* \"Practical6-Apply-TTT-Token.sol\":6300:6309  betAmount */\n      dup4\n        /* \"Practical6-Apply-TTT-Token.sol\":6300:6319  betAmount * burnFee */\n      tag_378\n      swap2\n      swap1\n      tag_118\n      jump\t// in\n    tag_378:\n        /* \"Practical6-Apply-TTT-Token.sol\":6299:6326  (betAmount * burnFee) / 100 */\n      tag_379\n      swap2\n      swap1\n      tag_120\n      jump\t// in\n    tag_379:\n        /* \"Practical6-Apply-TTT-Token.sol\":6278:6326  uint256 burnAmount = (betAmount * burnFee) / 100 */\n      swap1\n      pop\n        /* \"Practical6-Apply-TTT-Token.sol\":6345:6367  uint256 treasuryAmount */\n      0x00\n        /* \"Practical6-Apply-TTT-Token.sol\":6398:6401  100 */\n      0x64\n        /* \"Practical6-Apply-TTT-Token.sol\":6383:6394  treasuryFee */\n      sload(0x04)\n        /* \"Practical6-Apply-TTT-Token.sol\":6371:6380  betAmount */\n      dup5\n        /* \"Practical6-Apply-TTT-Token.sol\":6371:6394  betAmount * treasuryFee */\n      tag_380\n      swap2\n      swap1\n      tag_118\n      jump\t// in\n    tag_380:\n        /* \"Practical6-Apply-TTT-Token.sol\":6370:6401  (betAmount * treasuryFee) / 100 */\n      tag_381\n      swap2\n      swap1\n      tag_120\n      jump\t// in\n    tag_381:\n        /* \"Practical6-Apply-TTT-Token.sol\":6345:6401  uint256 treasuryAmount = (betAmount * treasuryFee) / 100 */\n      swap1\n      pop\n        /* \"Practical6-Apply-TTT-Token.sol\":6420:6440  uint256 rewardAmount */\n      0x00\n        /* \"Practical6-Apply-TTT-Token.sol\":6345:6401  uint256 treasuryAmount = (betAmount * treasuryFee) / 100 */\n      dup2\n        /* \"Practical6-Apply-TTT-Token.sol\":6443:6465  betAmount - burnAmount */\n      tag_382\n        /* \"Practical6-Apply-TTT-Token.sol\":6455:6465  burnAmount */\n      dup5\n        /* \"Practical6-Apply-TTT-Token.sol\":6443:6452  betAmount */\n      dup7\n        /* \"Practical6-Apply-TTT-Token.sol\":6443:6465  betAmount - burnAmount */\n      tag_124\n      jump\t// in\n    tag_382:\n        /* \"Practical6-Apply-TTT-Token.sol\":6443:6482  betAmount - burnAmount - treasuryAmount */\n      tag_383\n      swap2\n      swap1\n      tag_124\n      jump\t// in\n    tag_383:\n        /* \"Practical6-Apply-TTT-Token.sol\":6503:6511  TTTToken */\n      sload(0x00)\n        /* \"Practical6-Apply-TTT-Token.sol\":6503:6565  TTTToken.transferFrom(msg.sender, address(0xdead), burnAmount) */\n      mload(0x40)\n      shl(0xe0, 0x23b872dd)\n      dup2\n      mstore\n        /* \"Practical6-Apply-TTT-Token.sol\":6420:6482  uint256 rewardAmount = betAmount - burnAmount - treasuryAmount */\n      swap2\n      swap3\n      pop\n      sub(shl(0xa0, 0x01), 0x01)\n        /* \"Practical6-Apply-TTT-Token.sol\":6503:6511  TTTToken */\n      and\n      swap1\n        /* \"Practical6-Apply-TTT-Token.sol\":6503:6524  TTTToken.transferFrom */\n      0x23b872dd\n      swap1\n        /* \"Practical6-Apply-TTT-Token.sol\":6503:6565  TTTToken.transferFrom(msg.sender, address(0xdead), burnAmount) */\n      tag_384\n      swap1\n        /* \"Practical6-Apply-TTT-Token.sol\":6525:6535  msg.sender */\n      caller\n      swap1\n        /* \"Practical6-Apply-TTT-Token.sol\":6545:6551  0xdead */\n      0xdead\n      swap1\n        /* \"Practical6-Apply-TTT-Token.sol\":6554:6564  burnAmount */\n      dup9\n      swap1\n        /* \"Practical6-Apply-TTT-Token.sol\":6503:6565  TTTToken.transferFrom(msg.sender, address(0xdead), burnAmount) */\n      0x04\n      add\n      tag_127\n      jump\t// in\n    tag_384:\n      0x20\n      mload(0x40)\n      dup1\n      dup4\n      sub\n      dup2\n      0x00\n      dup8\n      gas\n      call\n      iszero\n      dup1\n      iszero\n      tag_386\n      jumpi\n      returndatasize\n      0x00\n      dup1\n      returndatacopy\n      revert(0x00, returndatasize)\n    tag_386:\n      pop\n      pop\n      pop\n      pop\n      mload(0x40)\n      returndatasize\n      not(0x1f)\n      0x1f\n      dup3\n      add\n      and\n      dup3\n      add\n      dup1\n      0x40\n      mstore\n      pop\n      dup2\n      add\n      swap1\n      tag_387\n      swap2\n      swap1\n      tag_131\n      jump\t// in\n    tag_387:\n      pop\n        /* \"Practical6-Apply-TTT-Token.sol\":6584:6592  TTTToken */\n      sload(0x00)\n        /* \"Practical6-Apply-TTT-Token.sol\":6618:6626  treasury */\n      sload(0x02)\n        /* \"Practical6-Apply-TTT-Token.sol\":6584:6643  TTTToken.transferFrom(msg.sender, treasury, treasuryAmount) */\n      mload(0x40)\n      shl(0xe0, 0x23b872dd)\n      dup2\n      mstore\n      sub(shl(0xa0, 0x01), 0x01)\n        /* \"Practical6-Apply-TTT-Token.sol\":6584:6592  TTTToken */\n      swap3\n      dup4\n      and\n      swap3\n        /* \"Practical6-Apply-TTT-Token.sol\":6584:6605  TTTToken.transferFrom */\n      0x23b872dd\n      swap3\n        /* \"Practical6-Apply-TTT-Token.sol\":6584:6643  TTTToken.transferFrom(msg.sender, treasury, treasuryAmount) */\n      tag_388\n      swap3\n        /* \"Practical6-Apply-TTT-Token.sol\":6606:6616  msg.sender */\n      caller\n      swap3\n        /* \"Practical6-Apply-TTT-Token.sol\":6618:6626  treasury */\n      swap1\n      swap2\n      and\n      swap1\n        /* \"Practical6-Apply-TTT-Token.sol\":6628:6642  treasuryAmount */\n      dup8\n      swap1\n        /* \"Practical6-Apply-TTT-Token.sol\":6584:6643  TTTToken.transferFrom(msg.sender, treasury, treasuryAmount) */\n      0x04\n      add\n      tag_127\n      jump\t// in\n    tag_388:\n      0x20\n      mload(0x40)\n      dup1\n      dup4\n      sub\n      dup2\n      0x00\n      dup8\n      gas\n      call\n      iszero\n      dup1\n      iszero\n      tag_390\n      jumpi\n      returndatasize\n      0x00\n      dup1\n      returndatacopy\n      revert(0x00, returndatasize)\n    tag_390:\n      pop\n      pop\n      pop\n      pop\n      mload(0x40)\n      returndatasize\n      not(0x1f)\n      0x1f\n      dup3\n      add\n      and\n      dup3\n      add\n      dup1\n      0x40\n      mstore\n      pop\n      dup2\n      add\n      swap1\n      tag_391\n      swap2\n      swap1\n      tag_131\n      jump\t// in\n    tag_391:\n      pop\n        /* \"Practical6-Apply-TTT-Token.sol\":6662:6670  TTTToken */\n      sload(0x00)\n        /* \"Practical6-Apply-TTT-Token.sol\":6662:6724  TTTToken.transferFrom(msg.sender, address(this), rewardAmount) */\n      mload(0x40)\n      shl(0xe0, 0x23b872dd)\n      dup2\n      mstore\n      sub(shl(0xa0, 0x01), 0x01)\n        /* \"Practical6-Apply-TTT-Token.sol\":6662:6670  TTTToken */\n      swap1\n      swap2\n      and\n      swap1\n        /* \"Practical6-Apply-TTT-Token.sol\":6662:6683  TTTToken.transferFrom */\n      0x23b872dd\n      swap1\n        /* \"Practical6-Apply-TTT-Token.sol\":6662:6724  TTTToken.transferFrom(msg.sender, address(this), rewardAmount) */\n      tag_392\n      swap1\n        /* \"Practical6-Apply-TTT-Token.sol\":6684:6694  msg.sender */\n      caller\n      swap1\n        /* \"Practical6-Apply-TTT-Token.sol\":6704:6708  this */\n      address\n      swap1\n        /* \"Practical6-Apply-TTT-Token.sol\":6711:6723  rewardAmount */\n      dup7\n      swap1\n        /* \"Practical6-Apply-TTT-Token.sol\":6662:6724  TTTToken.transferFrom(msg.sender, address(this), rewardAmount) */\n      0x04\n      add\n      tag_127\n      jump\t// in\n    tag_392:\n      0x20\n      mload(0x40)\n      dup1\n      dup4\n      sub\n      dup2\n      0x00\n      dup8\n      gas\n      call\n      iszero\n      dup1\n      iszero\n      tag_394\n      jumpi\n      returndatasize\n      0x00\n      dup1\n      returndatacopy\n      revert(0x00, returndatasize)\n    tag_394:\n      pop\n      pop\n      pop\n      pop\n      mload(0x40)\n      returndatasize\n      not(0x1f)\n      0x1f\n      dup3\n      add\n      and\n      dup3\n      add\n      dup1\n      0x40\n      mstore\n      pop\n      dup2\n      add\n      swap1\n      tag_395\n      swap2\n      swap1\n      tag_131\n      jump\t// in\n    tag_395:\n      pop\n        /* \"Practical6-Apply-TTT-Token.sol\":6760:6772  rewardAmount */\n      dup1\n        /* \"Practical6-Apply-TTT-Token.sol\":6745:6756  totalAmount */\n      0x05\n      0x00\n        /* \"Practical6-Apply-TTT-Token.sol\":6745:6772  totalAmount += rewardAmount */\n      dup3\n      dup3\n      sload\n      tag_396\n      swap2\n      swap1\n      tag_141\n      jump\t// in\n    tag_396:\n      swap1\n      swap2\n      sstore\n      pop\n      pop\n        /* \"Practical6-Apply-TTT-Token.sol\":6817:6832  gameInformation */\n      0x07\n        /* \"Practical6-Apply-TTT-Token.sol\":6817:6840  gameInformation[gameId] */\n      dup1\n      sload\n        /* \"Practical6-Apply-TTT-Token.sol\":6833:6839  gameId */\n      dup7\n      swap1\n        /* \"Practical6-Apply-TTT-Token.sol\":6817:6840  gameInformation[gameId] */\n      dup2\n      lt\n      tag_398\n      jumpi\n      tag_398\n      tag_154\n      jump\t// in\n    tag_398:\n      0x00\n      swap2\n      dup3\n      mstore\n      0x20\n      swap1\n      swap2\n      keccak256\n        /* \"Practical6-Apply-TTT-Token.sol\":6817:6856  gameInformation[gameId]._player1address */\n      0x04\n        /* \"Practical6-Apply-TTT-Token.sol\":6817:6840  gameInformation[gameId] */\n      0x0b\n      swap1\n      swap3\n      mul\n      add\n        /* \"Practical6-Apply-TTT-Token.sol\":6817:6856  gameInformation[gameId]._player1address */\n      add\n      sload\n      sub(shl(0xa0, 0x01), 0x01)\n      and\n        /* \"Practical6-Apply-TTT-Token.sol\":6802:6812  msg.sender */\n      caller\n        /* \"Practical6-Apply-TTT-Token.sol\":6802:6856  msg.sender !=  gameInformation[gameId]._player1address */\n      sub\n        /* \"Practical6-Apply-TTT-Token.sol\":6793:6898  require((msg.sender !=  gameInformation[gameId]._player1address), \"Error: You cannot play with yourself\") */\n      tag_400\n      jumpi\n      mload(0x40)\n      shl(0xe5, 0x461bcd)\n      dup2\n      mstore\n        /* \"#utility.yul\":21234:21236   */\n      0x20\n        /* \"Practical6-Apply-TTT-Token.sol\":6793:6898  require((msg.sender !=  gameInformation[gameId]._player1address), \"Error: You cannot play with yourself\") */\n      0x04\n      dup3\n      add\n        /* \"#utility.yul\":21216:21237   */\n      mstore\n        /* \"#utility.yul\":21273:21275   */\n      0x24\n        /* \"#utility.yul\":21253:21271   */\n      dup1\n      dup3\n      add\n        /* \"#utility.yul\":21246:21276   */\n      mstore\n        /* \"#utility.yul\":21312:21346   */\n      0x4572726f723a20596f752063616e6e6f7420706c6179207769746820796f7572\n        /* \"#utility.yul\":21292:21310   */\n      0x44\n      dup3\n      add\n        /* \"#utility.yul\":21285:21347   */\n      mstore\n      shl(0xe1, 0x39b2b633)\n        /* \"#utility.yul\":21363:21381   */\n      0x64\n      dup3\n      add\n        /* \"#utility.yul\":21356:21390   */\n      mstore\n        /* \"#utility.yul\":21407:21426   */\n      0x84\n      add\n        /* \"Practical6-Apply-TTT-Token.sol\":6793:6898  require((msg.sender !=  gameInformation[gameId]._player1address), \"Error: You cannot play with yourself\") */\n      tag_103\n        /* \"#utility.yul\":21032:21432   */\n      jump\n        /* \"Practical6-Apply-TTT-Token.sol\":6793:6898  require((msg.sender !=  gameInformation[gameId]._player1address), \"Error: You cannot play with yourself\") */\n    tag_400:\n        /* \"Practical6-Apply-TTT-Token.sol\":6959:6969  msg.sender */\n      caller\n        /* \"Practical6-Apply-TTT-Token.sol\":6917:6932  gameInformation */\n      0x07\n        /* \"Practical6-Apply-TTT-Token.sol\":6933:6939  gameId */\n      dup7\n        /* \"Practical6-Apply-TTT-Token.sol\":6917:6940  gameInformation[gameId] */\n      dup2\n      sload\n      dup2\n      lt\n      tag_404\n      jumpi\n      tag_404\n      tag_154\n      jump\t// in\n    tag_404:\n      swap1\n      0x00\n      mstore\n      keccak256(0x00, 0x20)\n      swap1\n      0x0b\n      mul\n      add\n        /* \"Practical6-Apply-TTT-Token.sol\":6917:6956  gameInformation[gameId]._player2address */\n      0x05\n      add\n      0x00\n        /* \"Practical6-Apply-TTT-Token.sol\":6917:6969  gameInformation[gameId]._player2address = msg.sender */\n      0x0100\n      exp\n      dup2\n      sload\n      dup2\n      sub(shl(0xa0, 0x01), 0x01)\n      mul\n      not\n      and\n      swap1\n      dup4\n      sub(shl(0xa0, 0x01), 0x01)\n      and\n      mul\n      or\n      swap1\n      sstore\n      pop\n        /* \"Practical6-Apply-TTT-Token.sol\":7027:7028  2 */\n      0x02\n        /* \"Practical6-Apply-TTT-Token.sol\":6988:7003  gameInformation */\n      0x07\n        /* \"Practical6-Apply-TTT-Token.sol\":7004:7010  gameId */\n      dup7\n        /* \"Practical6-Apply-TTT-Token.sol\":6988:7011  gameInformation[gameId] */\n      dup2\n      sload\n      dup2\n      lt\n      tag_407\n      jumpi\n      tag_407\n      tag_154\n      jump\t// in\n    tag_407:\n      swap1\n      0x00\n      mstore\n      keccak256(0x00, 0x20)\n      swap1\n      0x0b\n      mul\n      add\n        /* \"Practical6-Apply-TTT-Token.sol\":6988:7024  gameInformation[gameId]._playerCount */\n      0x06\n      add\n        /* \"Practical6-Apply-TTT-Token.sol\":6988:7028  gameInformation[gameId]._playerCount = 2 */\n      dup2\n      swap1\n      sstore\n      pop\n        /* \"Practical6-Apply-TTT-Token.sol\":7083:7087  true */\n      0x01\n        /* \"Practical6-Apply-TTT-Token.sol\":7047:7062  gameInformation */\n      0x07\n        /* \"Practical6-Apply-TTT-Token.sol\":7063:7069  gameId */\n      dup7\n        /* \"Practical6-Apply-TTT-Token.sol\":7047:7070  gameInformation[gameId] */\n      dup2\n      sload\n      dup2\n      lt\n      tag_410\n      jumpi\n      tag_410\n      tag_154\n      jump\t// in\n    tag_410:\n      swap1\n      0x00\n      mstore\n      keccak256(0x00, 0x20)\n      swap1\n      0x0b\n      mul\n      add\n        /* \"Practical6-Apply-TTT-Token.sol\":7047:7080  gameInformation[gameId]._activate */\n      0x00\n      add\n      0x00\n        /* \"Practical6-Apply-TTT-Token.sol\":7047:7087  gameInformation[gameId]._activate = true */\n      0x0100\n      exp\n      dup2\n      sload\n      dup2\n      0xff\n      mul\n      not\n      and\n      swap1\n      dup4\n      iszero\n      iszero\n      mul\n      or\n      swap1\n      sstore\n      pop\n        /* \"Practical6-Apply-TTT-Token.sol\":7144:7153  betAmount */\n      dup4\n        /* \"Practical6-Apply-TTT-Token.sol\":7106:7121  gameInformation */\n      0x07\n        /* \"Practical6-Apply-TTT-Token.sol\":7122:7128  gameId */\n      dup7\n        /* \"Practical6-Apply-TTT-Token.sol\":7106:7129  gameInformation[gameId] */\n      dup2\n      sload\n      dup2\n      lt\n      tag_413\n      jumpi\n      tag_413\n      tag_154\n      jump\t// in\n    tag_413:\n      swap1\n      0x00\n      mstore\n      keccak256(0x00, 0x20)\n      swap1\n      0x0b\n      mul\n      add\n        /* \"Practical6-Apply-TTT-Token.sol\":7106:7141  gameInformation[gameId]._player2Bet */\n      0x09\n      add\n        /* \"Practical6-Apply-TTT-Token.sol\":7106:7153  gameInformation[gameId]._player2Bet = betAmount */\n      dup2\n      swap1\n      sstore\n      pop\n        /* \"Practical6-Apply-TTT-Token.sol\":7288:7402  startGame(\"Start game!\", gameInformation[gameId]._player1address, gameInformation[gameId]._player2address, gameId) */\n      0x2f78808c539fd07cb45456a5d5561c76d3d4005246faccb297481e511abc321a\n        /* \"Practical6-Apply-TTT-Token.sol\":7313:7328  gameInformation */\n      0x07\n        /* \"Practical6-Apply-TTT-Token.sol\":7329:7335  gameId */\n      dup7\n        /* \"Practical6-Apply-TTT-Token.sol\":7313:7336  gameInformation[gameId] */\n      dup2\n      sload\n      dup2\n      lt\n      tag_416\n      jumpi\n      tag_416\n      tag_154\n      jump\t// in\n    tag_416:\n      swap1\n      0x00\n      mstore\n      keccak256(0x00, 0x20)\n      swap1\n      0x0b\n      mul\n      add\n        /* \"Practical6-Apply-TTT-Token.sol\":7313:7352  gameInformation[gameId]._player1address */\n      0x04\n      add\n      0x00\n      swap1\n      sload\n      swap1\n      0x0100\n      exp\n      swap1\n      div\n      sub(shl(0xa0, 0x01), 0x01)\n      and\n        /* \"Practical6-Apply-TTT-Token.sol\":7354:7369  gameInformation */\n      0x07\n        /* \"Practical6-Apply-TTT-Token.sol\":7370:7376  gameId */\n      dup8\n        /* \"Practical6-Apply-TTT-Token.sol\":7354:7377  gameInformation[gameId] */\n      dup2\n      sload\n      dup2\n      lt\n      tag_419\n      jumpi\n      tag_419\n      tag_154\n      jump\t// in\n    tag_419:\n      0x00\n      swap2\n      dup3\n      mstore\n      0x20\n      swap2\n      dup3\n      swap1\n      keccak256\n      0x0b\n      swap2\n      dup3\n      mul\n      add\n        /* \"Practical6-Apply-TTT-Token.sol\":7354:7393  gameInformation[gameId]._player2address */\n      0x05\n      add\n      sload\n        /* \"Practical6-Apply-TTT-Token.sol\":7288:7402  startGame(\"Start game!\", gameInformation[gameId]._player1address, gameInformation[gameId]._player2address, gameId) */\n      0x40\n      dup1\n      mload\n        /* \"#utility.yul\":21723:21726   */\n      0x80\n        /* \"#utility.yul\":21705:21727   */\n      dup1\n      dup3\n      mstore\n        /* \"#utility.yul\":21743:21762   */\n      dup2\n      add\n        /* \"#utility.yul\":21736:21767   */\n      swap4\n      swap1\n      swap4\n      mstore\n      shl(0xa8, 0x53746172742067616d6521)\n        /* \"#utility.yul\":21798:21801   */\n      0xa0\n        /* \"#utility.yul\":21783:21802   */\n      dup5\n      add\n        /* \"#utility.yul\":21776:21818   */\n      mstore\n      sub(shl(0xa0, 0x01), 0x01)\n        /* \"#utility.yul\":21930:21945   */\n      swap5\n      dup6\n      and\n        /* \"#utility.yul\":21908:21928   */\n      swap4\n      dup4\n      add\n        /* \"#utility.yul\":21901:21946   */\n      swap4\n      swap1\n      swap4\n      mstore\n        /* \"Practical6-Apply-TTT-Token.sol\":7354:7393  gameInformation[gameId]._player2address */\n      swap3\n      swap1\n      swap3\n      and\n        /* \"#utility.yul\":21962:21980   */\n      swap1\n      dup3\n      add\n        /* \"#utility.yul\":21955:21998   */\n      mstore\n      0x60\n        /* \"#utility.yul\":22014:22032   */\n      dup2\n      add\n        /* \"#utility.yul\":22007:22041   */\n      dup8\n      swap1\n      mstore\n        /* \"#utility.yul\":21850:21853   */\n      0xc0\n        /* \"#utility.yul\":21835:21854   */\n      add\n        /* \"Practical6-Apply-TTT-Token.sol\":7288:7402  startGame(\"Start game!\", gameInformation[gameId]._player1address, gameInformation[gameId]._player2address, gameId) */\n      mload(0x40)\n      dup1\n      swap2\n      sub\n      swap1\n      log1\n        /* \"Practical6-Apply-TTT-Token.sol\":6032:7420  {... */\n      pop\n      pop\n      pop\n        /* \"Practical6-Apply-TTT-Token.sol\":5987:7641  if(gameInformation[gameId]._playerCount == 1){... */\n      jump(tag_427)\n    tag_363:\n        /* \"Practical6-Apply-TTT-Token.sol\":7518:7533  gameInformation */\n      0x07\n        /* \"Practical6-Apply-TTT-Token.sol\":7534:7540  gameId */\n      dup3\n        /* \"Practical6-Apply-TTT-Token.sol\":7518:7541  gameInformation[gameId] */\n      dup2\n      sload\n      dup2\n      lt\n      tag_425\n      jumpi\n      tag_425\n      tag_154\n      jump\t// in\n    tag_425:\n      swap1\n      0x00\n      mstore\n      keccak256(0x00, 0x20)\n      swap1\n      0x0b\n      mul\n      add\n        /* \"Practical6-Apply-TTT-Token.sol\":7518:7554  gameInformation[gameId]._playerCount */\n      0x06\n      add\n      sload\n        /* \"Practical6-Apply-TTT-Token.sol\":7558:7559  2 */\n      0x02\n        /* \"Practical6-Apply-TTT-Token.sol\":7518:7559  gameInformation[gameId]._playerCount == 2 */\n      eq\n        /* \"Practical6-Apply-TTT-Token.sol\":7510:7625  require(gameInformation[gameId]._playerCount == 2,\"Now queue is full, try later. Game already full pls join other\") */\n      tag_427\n      jumpi\n      mload(0x40)\n      shl(0xe5, 0x461bcd)\n      dup2\n      mstore\n        /* \"#utility.yul\":22254:22256   */\n      0x20\n        /* \"Practical6-Apply-TTT-Token.sol\":7510:7625  require(gameInformation[gameId]._playerCount == 2,\"Now queue is full, try later. Game already full pls join other\") */\n      0x04\n      dup3\n      add\n        /* \"#utility.yul\":22236:22257   */\n      mstore\n        /* \"#utility.yul\":22293:22295   */\n      0x3e\n        /* \"#utility.yul\":22273:22291   */\n      0x24\n      dup3\n      add\n        /* \"#utility.yul\":22266:22296   */\n      mstore\n        /* \"#utility.yul\":22332:22366   */\n      0x4e6f772071756575652069732066756c6c2c20747279206c617465722e204761\n        /* \"#utility.yul\":22312:22330   */\n      0x44\n      dup3\n      add\n        /* \"#utility.yul\":22305:22367   */\n      mstore\n        /* \"#utility.yul\":22403:22435   */\n      0x6d6520616c72656164792066756c6c20706c73206a6f696e206f746865720000\n        /* \"#utility.yul\":22383:22401   */\n      0x64\n      dup3\n      add\n        /* \"#utility.yul\":22376:22436   */\n      mstore\n        /* \"#utility.yul\":22453:22472   */\n      0x84\n      add\n        /* \"Practical6-Apply-TTT-Token.sol\":7510:7625  require(gameInformation[gameId]._playerCount == 2,\"Now queue is full, try later. Game already full pls join other\") */\n      tag_103\n        /* \"#utility.yul\":22052:22478   */\n      jump\n        /* \"Practical6-Apply-TTT-Token.sol\":7510:7625  require(gameInformation[gameId]._playerCount == 2,\"Now queue is full, try later. Game already full pls join other\") */\n    tag_427:\n        /* \"Practical6-Apply-TTT-Token.sol\":7705:7746  joinRoom(gameInformation[gameId], gameId) */\n      0x50370b40bd566613cb1b12508c3114409e62c5c8de11be443cafc84462cf5699\n        /* \"Practical6-Apply-TTT-Token.sol\":7714:7729  gameInformation */\n      0x07\n        /* \"Practical6-Apply-TTT-Token.sol\":7730:7736  gameId */\n      dup4\n        /* \"Practical6-Apply-TTT-Token.sol\":7714:7737  gameInformation[gameId] */\n      dup2\n      sload\n      dup2\n      lt\n      tag_431\n      jumpi\n      tag_431\n      tag_154\n      jump\t// in\n    tag_431:\n      swap1\n      0x00\n      mstore\n      keccak256(0x00, 0x20)\n      swap1\n      0x0b\n      mul\n      add\n        /* \"Practical6-Apply-TTT-Token.sol\":7739:7745  gameId */\n      dup4\n        /* \"Practical6-Apply-TTT-Token.sol\":7705:7746  joinRoom(gameInformation[gameId], gameId) */\n      mload(0x40)\n      tag_433\n      swap3\n      swap2\n      swap1\n      tag_434\n      jump\t// in\n    tag_433:\n      mload(0x40)\n      dup1\n      swap2\n      sub\n      swap1\n      log1\n      pop\n      pop\n        /* \"Practical6-Apply-TTT-Token.sol\":3569:3575  locked */\n      0x06\n        /* \"Practical6-Apply-TTT-Token.sol\":3569:3583  locked = false */\n      dup1\n      sload\n      not(shl(0xa0, 0xff))\n      and\n      swap1\n      sstore\n        /* \"Practical6-Apply-TTT-Token.sol\":5824:7758  function joinGame (uint gameId, uint256 betAmount) external noReentrancy {... */\n      jump\t// out\n        /* \"Practical6-Apply-TTT-Token.sol\":13290:13549  function compareStrings(string memory a, string memory b) public pure returns (bool) {... */\n    tag_82:\n        /* \"Practical6-Apply-TTT-Token.sol\":13369:13373  bool */\n      0x00\n        /* \"Practical6-Apply-TTT-Token.sol\":13534:13535  b */\n      dup2\n        /* \"Practical6-Apply-TTT-Token.sol\":13517:13536  abi.encodePacked(b) */\n      add(0x20, mload(0x40))\n      tag_436\n      swap2\n      swap1\n      tag_437\n      jump\t// in\n    tag_436:\n      mload(0x40)\n      0x20\n      dup2\n      dup4\n      sub\n      sub\n      dup2\n      mstore\n      swap1\n      0x40\n      mstore\n        /* \"Practical6-Apply-TTT-Token.sol\":13507:13537  keccak256(abi.encodePacked(b)) */\n      dup1\n      mload\n      swap1\n      0x20\n      add\n      keccak256\n        /* \"Practical6-Apply-TTT-Token.sol\":13500:13501  a */\n      dup4\n        /* \"Practical6-Apply-TTT-Token.sol\":13483:13502  abi.encodePacked(a) */\n      add(0x20, mload(0x40))\n      tag_438\n      swap2\n      swap1\n      tag_437\n      jump\t// in\n    tag_438:\n      mload(0x40)\n      0x20\n      dup2\n      dup4\n      sub\n      sub\n      dup2\n      mstore\n      swap1\n      0x40\n      mstore\n        /* \"Practical6-Apply-TTT-Token.sol\":13473:13503  keccak256(abi.encodePacked(a)) */\n      dup1\n      mload\n      swap1\n      0x20\n      add\n      keccak256\n        /* \"Practical6-Apply-TTT-Token.sol\":13473:13537  keccak256(abi.encodePacked(a)) == keccak256(abi.encodePacked(b)) */\n      eq\n        /* \"Practical6-Apply-TTT-Token.sol\":13466:13537  return keccak256(abi.encodePacked(a)) == keccak256(abi.encodePacked(b)) */\n      swap1\n      pop\n        /* \"Practical6-Apply-TTT-Token.sol\":13290:13549  function compareStrings(string memory a, string memory b) public pure returns (bool) {... */\n    tag_435:\n      swap3\n      swap2\n      pop\n      pop\n      jump\t// out\n        /* \"Practical6-Apply-TTT-Token.sol\":3645:3783  function getoption (uint gameId) external view returns (string[] memory){... */\n    tag_90:\n        /* \"Practical6-Apply-TTT-Token.sol\":3701:3716  string[] memory */\n      0x60\n        /* \"Practical6-Apply-TTT-Token.sol\":3739:3754  gameInformation */\n      0x07\n        /* \"Practical6-Apply-TTT-Token.sol\":3755:3761  gameId */\n      dup3\n        /* \"Practical6-Apply-TTT-Token.sol\":3739:3762  gameInformation[gameId] */\n      dup2\n      sload\n      dup2\n      lt\n      tag_441\n      jumpi\n      tag_441\n      tag_154\n      jump\t// in\n    tag_441:\n      swap1\n      0x00\n      mstore\n      keccak256(0x00, 0x20)\n      swap1\n      0x0b\n      mul\n      add\n        /* \"Practical6-Apply-TTT-Token.sol\":3739:3771  gameInformation[gameId]._options */\n      0x02\n      add\n        /* \"Practical6-Apply-TTT-Token.sol\":3732:3771  return gameInformation[gameId]._options */\n      dup1\n      sload\n      dup1\n      0x20\n      mul\n      0x20\n      add\n      mload(0x40)\n      swap1\n      dup2\n      add\n      0x40\n      mstore\n      dup1\n      swap3\n      swap2\n      swap1\n      dup2\n      dup2\n      mstore\n      0x20\n      add\n      0x00\n      swap1\n    tag_443:\n      dup3\n      dup3\n      lt\n      iszero\n      tag_444\n      jumpi\n      dup4\n      dup3\n      swap1\n      0x00\n      mstore\n      keccak256(0x00, 0x20)\n      add\n      dup1\n      sload\n      tag_446\n      swap1\n      tag_214\n      jump\t// in\n    tag_446:\n      dup1\n      0x1f\n      add\n      0x20\n      dup1\n      swap2\n      div\n      mul\n      0x20\n      add\n      mload(0x40)\n      swap1\n      dup2\n      add\n      0x40\n      mstore\n      dup1\n      swap3\n      swap2\n      swap1\n      dup2\n      dup2\n      mstore\n      0x20\n      add\n      dup3\n      dup1\n      sload\n      tag_447\n      swap1\n      tag_214\n      jump\t// in\n    tag_447:\n      dup1\n      iszero\n      tag_448\n      jumpi\n      dup1\n      0x1f\n      lt\n      tag_449\n      jumpi\n      0x0100\n      dup1\n      dup4\n      sload\n      div\n      mul\n      dup4\n      mstore\n      swap2\n      0x20\n      add\n      swap2\n      jump(tag_448)\n    tag_449:\n      dup3\n      add\n      swap2\n      swap1\n      0x00\n      mstore\n      keccak256(0x00, 0x20)\n      swap1\n    tag_450:\n      dup2\n      sload\n      dup2\n      mstore\n      swap1\n      0x01\n      add\n      swap1\n      0x20\n      add\n      dup1\n      dup4\n      gt\n      tag_450\n      jumpi\n      dup3\n      swap1\n      sub\n      0x1f\n      and\n      dup3\n      add\n      swap2\n    tag_448:\n      pop\n      pop\n      pop\n      pop\n      pop\n      dup2\n      mstore\n      0x20\n      add\n      swap1\n      0x01\n      add\n      swap1\n      jump(tag_443)\n    tag_444:\n      pop\n      pop\n      pop\n      pop\n      swap1\n      pop\n        /* \"Practical6-Apply-TTT-Token.sol\":3645:3783  function getoption (uint gameId) external view returns (string[] memory){... */\n      swap2\n      swap1\n      pop\n      jump\t// out\n        /* \"Practical6-Apply-TTT-Token.sol\":2834:2961  function getAllMoney() external onlyOwner{... */\n    tag_94:\n        /* \"Practical6-Apply-TTT-Token.sol\":3342:3347  owner */\n      and(sub(shl(0xa0, 0x01), 0x01), sload(0x06))\n        /* \"Practical6-Apply-TTT-Token.sol\":3328:3338  msg.sender */\n      caller\n        /* \"Practical6-Apply-TTT-Token.sol\":3328:3347  msg.sender == owner */\n      eq\n        /* \"Practical6-Apply-TTT-Token.sol\":3320:3365  require(msg.sender == owner, \"Not the owner\") */\n      tag_452\n      jumpi\n      mload(0x40)\n      shl(0xe5, 0x461bcd)\n      dup2\n      mstore\n        /* \"#utility.yul\":20262:20264   */\n      0x20\n        /* \"Practical6-Apply-TTT-Token.sol\":3320:3365  require(msg.sender == owner, \"Not the owner\") */\n      0x04\n      dup3\n      add\n        /* \"#utility.yul\":20244:20265   */\n      mstore\n        /* \"#utility.yul\":20301:20303   */\n      0x0d\n        /* \"#utility.yul\":20281:20299   */\n      0x24\n      dup3\n      add\n        /* \"#utility.yul\":20274:20304   */\n      mstore\n      shl(0x99, 0x2737ba103a34329037bbb732b9)\n        /* \"#utility.yul\":20320:20338   */\n      0x44\n      dup3\n      add\n        /* \"#utility.yul\":20313:20356   */\n      mstore\n        /* \"#utility.yul\":20373:20391   */\n      0x64\n      add\n        /* \"Practical6-Apply-TTT-Token.sol\":3320:3365  require(msg.sender == owner, \"Not the owner\") */\n      tag_103\n        /* \"#utility.yul\":20060:20397   */\n      jump\n        /* \"Practical6-Apply-TTT-Token.sol\":3320:3365  require(msg.sender == owner, \"Not the owner\") */\n    tag_452:\n        /* \"Practical6-Apply-TTT-Token.sol\":2890:2898  TTTToken */\n      sload(0x00)\n        /* \"Practical6-Apply-TTT-Token.sol\":2908:2913  owner */\n      sload(0x06)\n        /* \"Practical6-Apply-TTT-Token.sol\":2915:2948  TTTToken.balanceOf(address(this)) */\n      mload(0x40)\n      shl(0xe0, 0x70a08231)\n      dup2\n      mstore\n        /* \"Practical6-Apply-TTT-Token.sol\":2942:2946  this */\n      address\n        /* \"Practical6-Apply-TTT-Token.sol\":2915:2948  TTTToken.balanceOf(address(this)) */\n      0x04\n      dup3\n      add\n        /* \"#utility.yul\":5328:5379   */\n      mstore\n      sub(shl(0xa0, 0x01), 0x01)\n        /* \"Practical6-Apply-TTT-Token.sol\":2890:2898  TTTToken */\n      swap3\n      dup4\n      and\n      swap3\n        /* \"Practical6-Apply-TTT-Token.sol\":2890:2907  TTTToken.transfer */\n      0xa9059cbb\n      swap3\n        /* \"Practical6-Apply-TTT-Token.sol\":2908:2913  owner */\n      and\n      swap1\n        /* \"Practical6-Apply-TTT-Token.sol\":2890:2898  TTTToken */\n      dup4\n      swap1\n        /* \"Practical6-Apply-TTT-Token.sol\":2915:2933  TTTToken.balanceOf */\n      0x70a08231\n      swap1\n        /* \"#utility.yul\":5301:5319   */\n      0x24\n      add\n        /* \"Practical6-Apply-TTT-Token.sol\":2915:2948  TTTToken.balanceOf(address(this)) */\n      0x20\n      mload(0x40)\n      dup1\n      dup4\n      sub\n      dup2\n      dup7\n      gas\n      staticcall\n      iszero\n      dup1\n      iszero\n      tag_457\n      jumpi\n      returndatasize\n      0x00\n      dup1\n      returndatacopy\n      revert(0x00, returndatasize)\n    tag_457:\n      pop\n      pop\n      pop\n      pop\n      mload(0x40)\n      returndatasize\n      not(0x1f)\n      0x1f\n      dup3\n      add\n      and\n      dup3\n      add\n      dup1\n      0x40\n      mstore\n      pop\n      dup2\n      add\n      swap1\n      tag_330\n      swap2\n      swap1\n      tag_110\n      jump\t// in\n        /* \"Practical6-Apply-TTT-Token.sol\":13985:14209  function checkAddress (uint gameId) private view returns (bool) {... */\n    tag_198:\n        /* \"Practical6-Apply-TTT-Token.sol\":14043:14047  bool */\n      0x00\n        /* \"Practical6-Apply-TTT-Token.sol\":14085:14100  gameInformation */\n      0x07\n        /* \"Practical6-Apply-TTT-Token.sol\":14101:14107  gameId */\n      dup3\n        /* \"Practical6-Apply-TTT-Token.sol\":14085:14108  gameInformation[gameId] */\n      dup2\n      sload\n      dup2\n      lt\n      tag_465\n      jumpi\n      tag_465\n      tag_154\n      jump\t// in\n    tag_465:\n      0x00\n      swap2\n      dup3\n      mstore\n      0x20\n      swap1\n      swap2\n      keccak256\n      0x0b\n      swap1\n      swap2\n      mul\n      add\n        /* \"Practical6-Apply-TTT-Token.sol\":14085:14124  gameInformation[gameId]._player1address */\n      0x04\n      add\n      sload\n      sub(shl(0xa0, 0x01), 0x01)\n      and\n        /* \"Practical6-Apply-TTT-Token.sol\":14071:14081  msg.sender */\n      caller\n        /* \"Practical6-Apply-TTT-Token.sol\":14071:14124  msg.sender == gameInformation[gameId]._player1address */\n      eq\n      dup1\n        /* \"Practical6-Apply-TTT-Token.sol\":14071:14181  msg.sender == gameInformation[gameId]._player1address || msg.sender == gameInformation[gameId]._player2address */\n      tag_467\n      jumpi\n      pop\n        /* \"Practical6-Apply-TTT-Token.sol\":14142:14157  gameInformation */\n      0x07\n        /* \"Practical6-Apply-TTT-Token.sol\":14158:14164  gameId */\n      dup3\n        /* \"Practical6-Apply-TTT-Token.sol\":14142:14165  gameInformation[gameId] */\n      dup2\n      sload\n      dup2\n      lt\n      tag_469\n      jumpi\n      tag_469\n      tag_154\n      jump\t// in\n    tag_469:\n      0x00\n      swap2\n      dup3\n      mstore\n      0x20\n      swap1\n      swap2\n      keccak256\n      0x0b\n      swap1\n      swap2\n      mul\n      add\n        /* \"Practical6-Apply-TTT-Token.sol\":14142:14181  gameInformation[gameId]._player2address */\n      0x05\n      add\n      sload\n      sub(shl(0xa0, 0x01), 0x01)\n      and\n        /* \"Practical6-Apply-TTT-Token.sol\":14128:14138  msg.sender */\n      caller\n        /* \"Practical6-Apply-TTT-Token.sol\":14128:14181  msg.sender == gameInformation[gameId]._player2address */\n      eq\n        /* \"Practical6-Apply-TTT-Token.sol\":14071:14181  msg.sender == gameInformation[gameId]._player1address || msg.sender == gameInformation[gameId]._player2address */\n    tag_467:\n        /* \"Practical6-Apply-TTT-Token.sol\":14071:14196  msg.sender == gameInformation[gameId]._player1address || msg.sender == gameInformation[gameId]._player2address ? true : false */\n      tag_471\n      jumpi\n        /* \"Practical6-Apply-TTT-Token.sol\":14191:14196  false */\n      0x00\n        /* \"Practical6-Apply-TTT-Token.sol\":14071:14196  msg.sender == gameInformation[gameId]._player1address || msg.sender == gameInformation[gameId]._player2address ? true : false */\n      jump(tag_435)\n    tag_471:\n        /* \"Practical6-Apply-TTT-Token.sol\":14184:14188  true */\n      0x01\n        /* \"Practical6-Apply-TTT-Token.sol\":14064:14196  return msg.sender == gameInformation[gameId]._player1address || msg.sender == gameInformation[gameId]._player2address ? true : false */\n      swap3\n        /* \"Practical6-Apply-TTT-Token.sol\":13985:14209  function checkAddress (uint gameId) private view returns (bool) {... */\n      swap2\n      pop\n      pop\n      jump\t// out\n        /* \"Practical6-Apply-TTT-Token.sol\":8973:11956  function checkWinner (uint gameId) private {... */\n    tag_305:\n        /* \"Practical6-Apply-TTT-Token.sol\":9031:9043  bool userWon */\n      0x00\n        /* \"Practical6-Apply-TTT-Token.sol\":9177:9183  uint i */\n      dup1\n        /* \"Practical6-Apply-TTT-Token.sol\":9173:10656  for(uint i = 0 ; i < winConditionSet.length; i++){... */\n    tag_474:\n        /* \"Practical6-Apply-TTT-Token.sol\":9194:9209  winConditionSet */\n      0x08\n        /* \"Practical6-Apply-TTT-Token.sol\":9194:9216  winConditionSet.length */\n      sload\n        /* \"Practical6-Apply-TTT-Token.sol\":9190:9216  i < winConditionSet.length */\n      dup2\n      lt\n        /* \"Practical6-Apply-TTT-Token.sol\":9173:10656  for(uint i = 0 ; i < winConditionSet.length; i++){... */\n      iszero\n      tag_475\n      jumpi\n        /* \"Practical6-Apply-TTT-Token.sol\":9241:9267  uint[] memory winCondition */\n      0x00\n        /* \"Practical6-Apply-TTT-Token.sol\":9270:9285  winConditionSet */\n      0x08\n        /* \"Practical6-Apply-TTT-Token.sol\":9286:9287  i */\n      dup3\n        /* \"Practical6-Apply-TTT-Token.sol\":9270:9288  winConditionSet[i] */\n      dup2\n      sload\n      dup2\n      lt\n      tag_478\n      jumpi\n      tag_478\n      tag_154\n      jump\t// in\n    tag_478:\n      swap1\n      0x00\n      mstore\n      keccak256(0x00, 0x20)\n      add\n        /* \"Practical6-Apply-TTT-Token.sol\":9241:9288  uint[] memory winCondition = winConditionSet[i] */\n      dup1\n      sload\n      dup1\n      0x20\n      mul\n      0x20\n      add\n      mload(0x40)\n      swap1\n      dup2\n      add\n      0x40\n      mstore\n      dup1\n      swap3\n      swap2\n      swap1\n      dup2\n      dup2\n      mstore\n      0x20\n      add\n      dup3\n      dup1\n      sload\n      dup1\n      iszero\n      tag_480\n      jumpi\n      0x20\n      mul\n      dup3\n      add\n      swap2\n      swap1\n      0x00\n      mstore\n      keccak256(0x00, 0x20)\n      swap1\n    tag_481:\n      dup2\n      sload\n      dup2\n      mstore\n      0x20\n      add\n      swap1\n      0x01\n      add\n      swap1\n      dup1\n      dup4\n      gt\n      tag_481\n      jumpi\n    tag_480:\n      pop\n      pop\n      pop\n      pop\n      pop\n      swap1\n      pop\n        /* \"Practical6-Apply-TTT-Token.sol\":9370:9391  string memory resultA */\n      0x00\n        /* \"Practical6-Apply-TTT-Token.sol\":9393:9408  gameInformation */\n      0x07\n        /* \"Practical6-Apply-TTT-Token.sol\":9409:9415  gameId */\n      dup6\n        /* \"Practical6-Apply-TTT-Token.sol\":9393:9416  gameInformation[gameId] */\n      dup2\n      sload\n      dup2\n      lt\n      tag_483\n      jumpi\n      tag_483\n      tag_154\n      jump\t// in\n    tag_483:\n      swap1\n      0x00\n      mstore\n      keccak256(0x00, 0x20)\n      swap1\n      0x0b\n      mul\n      add\n        /* \"Practical6-Apply-TTT-Token.sol\":9393:9425  gameInformation[gameId]._options */\n      0x02\n      add\n        /* \"Practical6-Apply-TTT-Token.sol\":9426:9438  winCondition */\n      dup3\n        /* \"Practical6-Apply-TTT-Token.sol\":9439:9440  0 */\n      0x00\n        /* \"Practical6-Apply-TTT-Token.sol\":9426:9441  winCondition[0] */\n      dup2\n      mload\n      dup2\n      lt\n      tag_486\n      jumpi\n      tag_486\n      tag_154\n      jump\t// in\n    tag_486:\n      0x20\n      mul\n      0x20\n      add\n      add\n      mload\n        /* \"Practical6-Apply-TTT-Token.sol\":9393:9442  gameInformation[gameId]._options[winCondition[0]] */\n      dup2\n      sload\n      dup2\n      lt\n      tag_488\n      jumpi\n      tag_488\n      tag_154\n      jump\t// in\n    tag_488:\n      swap1\n      0x00\n      mstore\n      keccak256(0x00, 0x20)\n      add\n        /* \"Practical6-Apply-TTT-Token.sol\":9370:9442  string memory resultA= gameInformation[gameId]._options[winCondition[0]] */\n      dup1\n      sload\n      tag_490\n      swap1\n      tag_214\n      jump\t// in\n    tag_490:\n      dup1\n      0x1f\n      add\n      0x20\n      dup1\n      swap2\n      div\n      mul\n      0x20\n      add\n      mload(0x40)\n      swap1\n      dup2\n      add\n      0x40\n      mstore\n      dup1\n      swap3\n      swap2\n      swap1\n      dup2\n      dup2\n      mstore\n      0x20\n      add\n      dup3\n      dup1\n      sload\n      tag_491\n      swap1\n      tag_214\n      jump\t// in\n    tag_491:\n      dup1\n      iszero\n      tag_492\n      jumpi\n      dup1\n      0x1f\n      lt\n      tag_493\n      jumpi\n      0x0100\n      dup1\n      dup4\n      sload\n      div\n      mul\n      dup4\n      mstore\n      swap2\n      0x20\n      add\n      swap2\n      jump(tag_492)\n    tag_493:\n      dup3\n      add\n      swap2\n      swap1\n      0x00\n      mstore\n      keccak256(0x00, 0x20)\n      swap1\n    tag_494:\n      dup2\n      sload\n      dup2\n      mstore\n      swap1\n      0x01\n      add\n      swap1\n      0x20\n      add\n      dup1\n      dup4\n      gt\n      tag_494\n      jumpi\n      dup3\n      swap1\n      sub\n      0x1f\n      and\n      dup3\n      add\n      swap2\n    tag_492:\n      pop\n      pop\n      pop\n      pop\n      pop\n      swap1\n      pop\n        /* \"Practical6-Apply-TTT-Token.sol\":9461:9482  string memory resultB */\n      0x00\n        /* \"Practical6-Apply-TTT-Token.sol\":9484:9499  gameInformation */\n      0x07\n        /* \"Practical6-Apply-TTT-Token.sol\":9500:9506  gameId */\n      dup7\n        /* \"Practical6-Apply-TTT-Token.sol\":9484:9507  gameInformation[gameId] */\n      dup2\n      sload\n      dup2\n      lt\n      tag_496\n      jumpi\n      tag_496\n      tag_154\n      jump\t// in\n    tag_496:\n      swap1\n      0x00\n      mstore\n      keccak256(0x00, 0x20)\n      swap1\n      0x0b\n      mul\n      add\n        /* \"Practical6-Apply-TTT-Token.sol\":9484:9516  gameInformation[gameId]._options */\n      0x02\n      add\n        /* \"Practical6-Apply-TTT-Token.sol\":9517:9529  winCondition */\n      dup4\n        /* \"Practical6-Apply-TTT-Token.sol\":9530:9531  1 */\n      0x01\n        /* \"Practical6-Apply-TTT-Token.sol\":9517:9532  winCondition[1] */\n      dup2\n      mload\n      dup2\n      lt\n      tag_499\n      jumpi\n      tag_499\n      tag_154\n      jump\t// in\n    tag_499:\n      0x20\n      mul\n      0x20\n      add\n      add\n      mload\n        /* \"Practical6-Apply-TTT-Token.sol\":9484:9533  gameInformation[gameId]._options[winCondition[1]] */\n      dup2\n      sload\n      dup2\n      lt\n      tag_501\n      jumpi\n      tag_501\n      tag_154\n      jump\t// in\n    tag_501:\n      swap1\n      0x00\n      mstore\n      keccak256(0x00, 0x20)\n      add\n        /* \"Practical6-Apply-TTT-Token.sol\":9461:9533  string memory resultB= gameInformation[gameId]._options[winCondition[1]] */\n      dup1\n      sload\n      tag_503\n      swap1\n      tag_214\n      jump\t// in\n    tag_503:\n      dup1\n      0x1f\n      add\n      0x20\n      dup1\n      swap2\n      div\n      mul\n      0x20\n      add\n      mload(0x40)\n      swap1\n      dup2\n      add\n      0x40\n      mstore\n      dup1\n      swap3\n      swap2\n      swap1\n      dup2\n      dup2\n      mstore\n      0x20\n      add\n      dup3\n      dup1\n      sload\n      tag_504\n      swap1\n      tag_214\n      jump\t// in\n    tag_504:\n      dup1\n      iszero\n      tag_505\n      jumpi\n      dup1\n      0x1f\n      lt\n      tag_506\n      jumpi\n      0x0100\n      dup1\n      dup4\n      sload\n      div\n      mul\n      dup4\n      mstore\n      swap2\n      0x20\n      add\n      swap2\n      jump(tag_505)\n    tag_506:\n      dup3\n      add\n      swap2\n      swap1\n      0x00\n      mstore\n      keccak256(0x00, 0x20)\n      swap1\n    tag_507:\n      dup2\n      sload\n      dup2\n      mstore\n      swap1\n      0x01\n      add\n      swap1\n      0x20\n      add\n      dup1\n      dup4\n      gt\n      tag_507\n      jumpi\n      dup3\n      swap1\n      sub\n      0x1f\n      and\n      dup3\n      add\n      swap2\n    tag_505:\n      pop\n      pop\n      pop\n      pop\n      pop\n      swap1\n      pop\n        /* \"Practical6-Apply-TTT-Token.sol\":9552:9573  string memory resultC */\n      0x00\n        /* \"Practical6-Apply-TTT-Token.sol\":9575:9590  gameInformation */\n      0x07\n        /* \"Practical6-Apply-TTT-Token.sol\":9591:9597  gameId */\n      dup8\n        /* \"Practical6-Apply-TTT-Token.sol\":9575:9598  gameInformation[gameId] */\n      dup2\n      sload\n      dup2\n      lt\n      tag_509\n      jumpi\n      tag_509\n      tag_154\n      jump\t// in\n    tag_509:\n      swap1\n      0x00\n      mstore\n      keccak256(0x00, 0x20)\n      swap1\n      0x0b\n      mul\n      add\n        /* \"Practical6-Apply-TTT-Token.sol\":9575:9607  gameInformation[gameId]._options */\n      0x02\n      add\n        /* \"Practical6-Apply-TTT-Token.sol\":9608:9620  winCondition */\n      dup5\n        /* \"Practical6-Apply-TTT-Token.sol\":9621:9622  2 */\n      0x02\n        /* \"Practical6-Apply-TTT-Token.sol\":9608:9623  winCondition[2] */\n      dup2\n      mload\n      dup2\n      lt\n      tag_512\n      jumpi\n      tag_512\n      tag_154\n      jump\t// in\n    tag_512:\n      0x20\n      mul\n      0x20\n      add\n      add\n      mload\n        /* \"Practical6-Apply-TTT-Token.sol\":9575:9624  gameInformation[gameId]._options[winCondition[2]] */\n      dup2\n      sload\n      dup2\n      lt\n      tag_514\n      jumpi\n      tag_514\n      tag_154\n      jump\t// in\n    tag_514:\n      swap1\n      0x00\n      mstore\n      keccak256(0x00, 0x20)\n      add\n        /* \"Practical6-Apply-TTT-Token.sol\":9552:9624  string memory resultC= gameInformation[gameId]._options[winCondition[2]] */\n      dup1\n      sload\n      tag_516\n      swap1\n      tag_214\n      jump\t// in\n    tag_516:\n      dup1\n      0x1f\n      add\n      0x20\n      dup1\n      swap2\n      div\n      mul\n      0x20\n      add\n      mload(0x40)\n      swap1\n      dup2\n      add\n      0x40\n      mstore\n      dup1\n      swap3\n      swap2\n      swap1\n      dup2\n      dup2\n      mstore\n      0x20\n      add\n      dup3\n      dup1\n      sload\n      tag_517\n      swap1\n      tag_214\n      jump\t// in\n    tag_517:\n      dup1\n      iszero\n      tag_518\n      jumpi\n      dup1\n      0x1f\n      lt\n      tag_519\n      jumpi\n      0x0100\n      dup1\n      dup4\n      sload\n      div\n      mul\n      dup4\n      mstore\n      swap2\n      0x20\n      add\n      swap2\n      jump(tag_518)\n    tag_519:\n      dup3\n      add\n      swap2\n      swap1\n      0x00\n      mstore\n      keccak256(0x00, 0x20)\n      swap1\n    tag_520:\n      dup2\n      sload\n      dup2\n      mstore\n      swap1\n      0x01\n      add\n      swap1\n      0x20\n      add\n      dup1\n      dup4\n      gt\n      tag_520\n      jumpi\n      dup3\n      swap1\n      sub\n      0x1f\n      and\n      dup3\n      add\n      swap2\n    tag_518:\n      pop\n      pop\n      pop\n      pop\n      pop\n      swap1\n      pop\n        /* \"Practical6-Apply-TTT-Token.sol\":9871:9898  compareStrings(resultA, \"\") */\n      tag_521\n        /* \"Practical6-Apply-TTT-Token.sol\":9886:9893  resultA */\n      dup4\n        /* \"Practical6-Apply-TTT-Token.sol\":9871:9898  compareStrings(resultA, \"\") */\n      mload(0x40)\n      dup1\n      0x20\n      add\n      0x40\n      mstore\n      dup1\n      0x00\n      dup2\n      mstore\n      pop\n        /* \"Practical6-Apply-TTT-Token.sol\":9871:9885  compareStrings */\n      tag_82\n        /* \"Practical6-Apply-TTT-Token.sol\":9871:9898  compareStrings(resultA, \"\") */\n      jump\t// in\n    tag_521:\n        /* \"Practical6-Apply-TTT-Token.sol\":9871:9927  compareStrings(resultA, \"\")||compareStrings(resultB, \"\") */\n      dup1\n      tag_523\n      jumpi\n      pop\n        /* \"Practical6-Apply-TTT-Token.sol\":9900:9927  compareStrings(resultB, \"\") */\n      tag_523\n        /* \"Practical6-Apply-TTT-Token.sol\":9915:9922  resultB */\n      dup3\n        /* \"Practical6-Apply-TTT-Token.sol\":9900:9927  compareStrings(resultB, \"\") */\n      mload(0x40)\n      dup1\n      0x20\n      add\n      0x40\n      mstore\n      dup1\n      0x00\n      dup2\n      mstore\n      pop\n        /* \"Practical6-Apply-TTT-Token.sol\":9900:9914  compareStrings */\n      tag_82\n        /* \"Practical6-Apply-TTT-Token.sol\":9900:9927  compareStrings(resultB, \"\") */\n      jump\t// in\n    tag_523:\n        /* \"Practical6-Apply-TTT-Token.sol\":9871:9956  compareStrings(resultA, \"\")||compareStrings(resultB, \"\")||compareStrings(resultC, \"\") */\n      dup1\n      tag_525\n      jumpi\n      pop\n        /* \"Practical6-Apply-TTT-Token.sol\":9929:9956  compareStrings(resultC, \"\") */\n      tag_525\n        /* \"Practical6-Apply-TTT-Token.sol\":9944:9951  resultC */\n      dup2\n        /* \"Practical6-Apply-TTT-Token.sol\":9929:9956  compareStrings(resultC, \"\") */\n      mload(0x40)\n      dup1\n      0x20\n      add\n      0x40\n      mstore\n      dup1\n      0x00\n      dup2\n      mstore\n      pop\n        /* \"Practical6-Apply-TTT-Token.sol\":9929:9943  compareStrings */\n      tag_82\n        /* \"Practical6-Apply-TTT-Token.sol\":9929:9956  compareStrings(resultC, \"\") */\n      jump\t// in\n    tag_525:\n        /* \"Practical6-Apply-TTT-Token.sol\":9868:10008  if(compareStrings(resultA, \"\")||compareStrings(resultB, \"\")||compareStrings(resultC, \"\")){... */\n      iszero\n      tag_526\n      jumpi\n        /* \"Practical6-Apply-TTT-Token.sol\":9980:9988  continue */\n      pop\n      pop\n      pop\n      pop\n      jump(tag_476)\n        /* \"Practical6-Apply-TTT-Token.sol\":9868:10008  if(compareStrings(resultA, \"\")||compareStrings(resultB, \"\")||compareStrings(resultC, \"\")){... */\n    tag_526:\n        /* \"Practical6-Apply-TTT-Token.sol\":10029:10061  compareStrings(resultA, resultB) */\n      tag_527\n        /* \"Practical6-Apply-TTT-Token.sol\":10044:10051  resultA */\n      dup4\n        /* \"Practical6-Apply-TTT-Token.sol\":10053:10060  resultB */\n      dup4\n        /* \"Practical6-Apply-TTT-Token.sol\":10029:10043  compareStrings */\n      tag_82\n        /* \"Practical6-Apply-TTT-Token.sol\":10029:10061  compareStrings(resultA, resultB) */\n      jump\t// in\n    tag_527:\n        /* \"Practical6-Apply-TTT-Token.sol\":10029:10097  compareStrings(resultA, resultB) && compareStrings(resultB, resultC) */\n      dup1\n      iszero\n      tag_529\n      jumpi\n      pop\n        /* \"Practical6-Apply-TTT-Token.sol\":10065:10097  compareStrings(resultB, resultC) */\n      tag_529\n        /* \"Practical6-Apply-TTT-Token.sol\":10080:10087  resultB */\n      dup3\n        /* \"Practical6-Apply-TTT-Token.sol\":10089:10096  resultC */\n      dup3\n        /* \"Practical6-Apply-TTT-Token.sol\":10065:10079  compareStrings */\n      tag_82\n        /* \"Practical6-Apply-TTT-Token.sol\":10065:10097  compareStrings(resultB, resultC) */\n      jump\t// in\n    tag_529:\n        /* \"Practical6-Apply-TTT-Token.sol\":10026:10641  if(compareStrings(resultA, resultB) && compareStrings(resultB, resultC)){... */\n      iszero\n      tag_530\n      jumpi\n        /* \"Practical6-Apply-TTT-Token.sol\":10163:10175  winCondition */\n      dup4\n        /* \"Practical6-Apply-TTT-Token.sol\":10121:10136  gameInformation */\n      0x07\n        /* \"Practical6-Apply-TTT-Token.sol\":10137:10143  gameId */\n      dup9\n        /* \"Practical6-Apply-TTT-Token.sol\":10121:10144  gameInformation[gameId] */\n      dup2\n      sload\n      dup2\n      lt\n      tag_532\n      jumpi\n      tag_532\n      tag_154\n      jump\t// in\n    tag_532:\n      swap1\n      0x00\n      mstore\n      keccak256(0x00, 0x20)\n      swap1\n      0x0b\n      mul\n      add\n        /* \"Practical6-Apply-TTT-Token.sol\":10121:10160  gameInformation[gameId]._finalWinOption */\n      0x03\n      add\n        /* \"Practical6-Apply-TTT-Token.sol\":10121:10175  gameInformation[gameId]._finalWinOption = winCondition */\n      swap1\n      dup1\n      mload\n      swap1\n      0x20\n      add\n      swap1\n      tag_534\n      swap3\n      swap2\n      swap1\n      tag_150\n      jump\t// in\n    tag_534:\n      pop\n        /* \"Practical6-Apply-TTT-Token.sol\":10223:10282  compareStrings(gameInformation[gameId]._currentPlayer, \"X\") */\n      tag_535\n        /* \"Practical6-Apply-TTT-Token.sol\":10238:10253  gameInformation */\n      0x07\n        /* \"Practical6-Apply-TTT-Token.sol\":10254:10260  gameId */\n      dup9\n        /* \"Practical6-Apply-TTT-Token.sol\":10238:10261  gameInformation[gameId] */\n      dup2\n      sload\n      dup2\n      lt\n      tag_267\n      jumpi\n      tag_267\n      tag_154\n      jump\t// in\n        /* \"Practical6-Apply-TTT-Token.sol\":10223:10282  compareStrings(gameInformation[gameId]._currentPlayer, \"X\") */\n    tag_535:\n        /* \"Practical6-Apply-TTT-Token.sol\":10220:10535  if(compareStrings(gameInformation[gameId]._currentPlayer, \"X\")){... */\n      iszero\n      tag_544\n      jumpi\n        /* \"Practical6-Apply-TTT-Token.sol\":10343:10358  gameInformation */\n      0x07\n        /* \"Practical6-Apply-TTT-Token.sol\":10359:10365  gameId */\n      dup8\n        /* \"Practical6-Apply-TTT-Token.sol\":10343:10366  gameInformation[gameId] */\n      dup2\n      sload\n      dup2\n      lt\n      tag_546\n      jumpi\n      tag_546\n      tag_154\n      jump\t// in\n    tag_546:\n      swap1\n      0x00\n      mstore\n      keccak256(0x00, 0x20)\n      swap1\n      0x0b\n      mul\n      add\n        /* \"Practical6-Apply-TTT-Token.sol\":10343:10382  gameInformation[gameId]._player1address */\n      0x04\n      add\n      0x00\n      swap1\n      sload\n      swap1\n      0x0100\n      exp\n      swap1\n      div\n      sub(shl(0xa0, 0x01), 0x01)\n      and\n        /* \"Practical6-Apply-TTT-Token.sol\":10310:10325  gameInformation */\n      0x07\n        /* \"Practical6-Apply-TTT-Token.sol\":10326:10332  gameId */\n      dup9\n        /* \"Practical6-Apply-TTT-Token.sol\":10310:10333  gameInformation[gameId] */\n      dup2\n      sload\n      dup2\n      lt\n      tag_549\n      jumpi\n      tag_549\n      tag_154\n      jump\t// in\n    tag_549:\n      swap1\n      0x00\n      mstore\n      keccak256(0x00, 0x20)\n      swap1\n      0x0b\n      mul\n      add\n        /* \"Practical6-Apply-TTT-Token.sol\":10310:10340  gameInformation[gameId]._winer */\n      0x07\n      add\n      0x00\n        /* \"Practical6-Apply-TTT-Token.sol\":10310:10382  gameInformation[gameId]._winer = gameInformation[gameId]._player1address */\n      0x0100\n      exp\n      dup2\n      sload\n      dup2\n      sub(shl(0xa0, 0x01), 0x01)\n      mul\n      not\n      and\n      swap1\n      dup4\n      sub(shl(0xa0, 0x01), 0x01)\n      and\n      mul\n      or\n      swap1\n      sstore\n      pop\n        /* \"Practical6-Apply-TTT-Token.sol\":10220:10535  if(compareStrings(gameInformation[gameId]._currentPlayer, \"X\")){... */\n      jump(tag_551)\n    tag_544:\n        /* \"Practical6-Apply-TTT-Token.sol\":10472:10487  gameInformation */\n      0x07\n        /* \"Practical6-Apply-TTT-Token.sol\":10488:10494  gameId */\n      dup8\n        /* \"Practical6-Apply-TTT-Token.sol\":10472:10495  gameInformation[gameId] */\n      dup2\n      sload\n      dup2\n      lt\n      tag_553\n      jumpi\n      tag_553\n      tag_154\n      jump\t// in\n    tag_553:\n      swap1\n      0x00\n      mstore\n      keccak256(0x00, 0x20)\n      swap1\n      0x0b\n      mul\n      add\n        /* \"Practical6-Apply-TTT-Token.sol\":10472:10511  gameInformation[gameId]._player2address */\n      0x05\n      add\n      0x00\n      swap1\n      sload\n      swap1\n      0x0100\n      exp\n      swap1\n      div\n      sub(shl(0xa0, 0x01), 0x01)\n      and\n        /* \"Practical6-Apply-TTT-Token.sol\":10439:10454  gameInformation */\n      0x07\n        /* \"Practical6-Apply-TTT-Token.sol\":10455:10461  gameId */\n      dup9\n        /* \"Practical6-Apply-TTT-Token.sol\":10439:10462  gameInformation[gameId] */\n      dup2\n      sload\n      dup2\n      lt\n      tag_556\n      jumpi\n      tag_556\n      tag_154\n      jump\t// in\n    tag_556:\n      swap1\n      0x00\n      mstore\n      keccak256(0x00, 0x20)\n      swap1\n      0x0b\n      mul\n      add\n        /* \"Practical6-Apply-TTT-Token.sol\":10439:10469  gameInformation[gameId]._winer */\n      0x07\n      add\n      0x00\n        /* \"Practical6-Apply-TTT-Token.sol\":10439:10511  gameInformation[gameId]._winer = gameInformation[gameId]._player2address */\n      0x0100\n      exp\n      dup2\n      sload\n      dup2\n      sub(shl(0xa0, 0x01), 0x01)\n      mul\n      not\n      and\n      swap1\n      dup4\n      sub(shl(0xa0, 0x01), 0x01)\n      and\n      mul\n      or\n      swap1\n      sstore\n      pop\n        /* \"Practical6-Apply-TTT-Token.sol\":10220:10535  if(compareStrings(gameInformation[gameId]._currentPlayer, \"X\")){... */\n    tag_551:\n        /* \"Practical6-Apply-TTT-Token.sol\":10589:10593  true */\n      0x01\n        /* \"Practical6-Apply-TTT-Token.sol\":10579:10593  userWon = true */\n      swap6\n      pop\n        /* \"Practical6-Apply-TTT-Token.sol\":10616:10621  break */\n      pop\n      pop\n      pop\n      pop\n      jump(tag_475)\n        /* \"Practical6-Apply-TTT-Token.sol\":10026:10641  if(compareStrings(resultA, resultB) && compareStrings(resultB, resultC)){... */\n    tag_530:\n        /* \"Practical6-Apply-TTT-Token.sol\":9222:10656  {... */\n      pop\n      pop\n      pop\n      pop\n        /* \"Practical6-Apply-TTT-Token.sol\":9173:10656  for(uint i = 0 ; i < winConditionSet.length; i++){... */\n    tag_476:\n        /* \"Practical6-Apply-TTT-Token.sol\":9218:9221  i++ */\n      dup1\n      tag_558\n      dup2\n      tag_187\n      jump\t// in\n    tag_558:\n      swap2\n      pop\n      pop\n        /* \"Practical6-Apply-TTT-Token.sol\":9173:10656  for(uint i = 0 ; i < winConditionSet.length; i++){... */\n      jump(tag_474)\n    tag_475:\n      pop\n        /* \"Practical6-Apply-TTT-Token.sol\":10786:10793  userWon */\n      dup1\n        /* \"Practical6-Apply-TTT-Token.sol\":10783:11945  if(userWon){... */\n      iszero\n      tag_559\n      jumpi\n        /* \"Practical6-Apply-TTT-Token.sol\":10860:10919  compareStrings(gameInformation[gameId]._currentPlayer, \"X\") */\n      tag_560\n        /* \"Practical6-Apply-TTT-Token.sol\":10875:10890  gameInformation */\n      0x07\n        /* \"Practical6-Apply-TTT-Token.sol\":10891:10897  gameId */\n      dup4\n        /* \"Practical6-Apply-TTT-Token.sol\":10875:10898  gameInformation[gameId] */\n      dup2\n      sload\n      dup2\n      lt\n      tag_267\n      jumpi\n      tag_267\n      tag_154\n      jump\t// in\n        /* \"Practical6-Apply-TTT-Token.sol\":10860:10919  compareStrings(gameInformation[gameId]._currentPlayer, \"X\") */\n    tag_560:\n        /* \"Practical6-Apply-TTT-Token.sol\":10857:11210  if(compareStrings(gameInformation[gameId]._currentPlayer, \"X\")){... */\n      iszero\n      tag_569\n      jumpi\n        /* \"Practical6-Apply-TTT-Token.sol\":10943:10951  TTTToken */\n      sload(0x00)\n        /* \"Practical6-Apply-TTT-Token.sol\":10961:10976  gameInformation */\n      0x07\n        /* \"Practical6-Apply-TTT-Token.sol\":10961:10984  gameInformation[gameId] */\n      dup1\n      sload\n      sub(shl(0xa0, 0x01), 0x01)\n        /* \"Practical6-Apply-TTT-Token.sol\":10943:10951  TTTToken */\n      swap1\n      swap3\n      and\n      swap2\n        /* \"Practical6-Apply-TTT-Token.sol\":10943:10960  TTTToken.transfer */\n      0xa9059cbb\n      swap2\n        /* \"Practical6-Apply-TTT-Token.sol\":10961:10976  gameInformation */\n      swap1\n        /* \"Practical6-Apply-TTT-Token.sol\":10977:10983  gameId */\n      dup6\n      swap1\n        /* \"Practical6-Apply-TTT-Token.sol\":10961:10984  gameInformation[gameId] */\n      dup2\n      lt\n      tag_571\n      jumpi\n      tag_571\n      tag_154\n      jump\t// in\n    tag_571:\n      swap1\n      0x00\n      mstore\n      keccak256(0x00, 0x20)\n      swap1\n      0x0b\n      mul\n      add\n        /* \"Practical6-Apply-TTT-Token.sol\":10961:11000  gameInformation[gameId]._player1address */\n      0x04\n      add\n      0x00\n      swap1\n      sload\n      swap1\n      0x0100\n      exp\n      swap1\n      div\n      sub(shl(0xa0, 0x01), 0x01)\n      and\n        /* \"Practical6-Apply-TTT-Token.sol\":11002:11017  gameInformation */\n      0x07\n        /* \"Practical6-Apply-TTT-Token.sol\":11018:11024  gameId */\n      dup6\n        /* \"Practical6-Apply-TTT-Token.sol\":11002:11025  gameInformation[gameId] */\n      dup2\n      sload\n      dup2\n      lt\n      tag_574\n      jumpi\n      tag_574\n      tag_154\n      jump\t// in\n    tag_574:\n      swap1\n      0x00\n      mstore\n      keccak256(0x00, 0x20)\n      swap1\n      0x0b\n      mul\n      add\n        /* \"Practical6-Apply-TTT-Token.sol\":11002:11039  gameInformation[gameId]._rewardAmount */\n      0x0a\n      add\n      sload\n        /* \"Practical6-Apply-TTT-Token.sol\":11040:11041  2 */\n      0x02\n        /* \"Practical6-Apply-TTT-Token.sol\":11002:11041  gameInformation[gameId]._rewardAmount*2 */\n      tag_576\n      swap2\n      swap1\n      tag_118\n      jump\t// in\n    tag_576:\n        /* \"Practical6-Apply-TTT-Token.sol\":10943:11042  TTTToken.transfer(gameInformation[gameId]._player1address, gameInformation[gameId]._rewardAmount*2) */\n      mload(0x40)\n      not(sub(shl(0xe0, 0x01), 0x01))\n      0xe0\n      dup6\n      swap1\n      shl\n      and\n      dup2\n      mstore\n      sub(shl(0xa0, 0x01), 0x01)\n        /* \"#utility.yul\":20945:20977   */\n      swap1\n      swap3\n      and\n        /* \"Practical6-Apply-TTT-Token.sol\":10943:11042  TTTToken.transfer(gameInformation[gameId]._player1address, gameInformation[gameId]._rewardAmount*2) */\n      0x04\n      dup4\n      add\n        /* \"#utility.yul\":20927:20978   */\n      mstore\n        /* \"#utility.yul\":20994:21012   */\n      0x24\n      dup3\n      add\n        /* \"#utility.yul\":20987:21021   */\n      mstore\n        /* \"#utility.yul\":20900:20918   */\n      0x44\n      add\n        /* \"Practical6-Apply-TTT-Token.sol\":10943:11042  TTTToken.transfer(gameInformation[gameId]._player1address, gameInformation[gameId]._rewardAmount*2) */\n      0x20\n      mload(0x40)\n      dup1\n      dup4\n      sub\n      dup2\n      0x00\n      dup8\n      gas\n      call\n      iszero\n      dup1\n      iszero\n      tag_579\n      jumpi\n      returndatasize\n      0x00\n      dup1\n      returndatacopy\n      revert(0x00, returndatasize)\n    tag_579:\n      pop\n      pop\n      pop\n      pop\n      mload(0x40)\n      returndatasize\n      not(0x1f)\n      0x1f\n      dup3\n      add\n      and\n      dup3\n      add\n      dup1\n      0x40\n      mstore\n      pop\n      dup2\n      add\n      swap1\n      tag_580\n      swap2\n      swap1\n      tag_131\n      jump\t// in\n    tag_580:\n      pop\n        /* \"Practical6-Apply-TTT-Token.sol\":10857:11210  if(compareStrings(gameInformation[gameId]._currentPlayer, \"X\")){... */\n      jump(tag_581)\n    tag_569:\n        /* \"Practical6-Apply-TTT-Token.sol\":11091:11099  TTTToken */\n      sload(0x00)\n        /* \"Practical6-Apply-TTT-Token.sol\":11109:11124  gameInformation */\n      0x07\n        /* \"Practical6-Apply-TTT-Token.sol\":11109:11132  gameInformation[gameId] */\n      dup1\n      sload\n      sub(shl(0xa0, 0x01), 0x01)\n        /* \"Practical6-Apply-TTT-Token.sol\":11091:11099  TTTToken */\n      swap1\n      swap3\n      and\n      swap2\n        /* \"Practical6-Apply-TTT-Token.sol\":11091:11108  TTTToken.transfer */\n      0xa9059cbb\n      swap2\n        /* \"Practical6-Apply-TTT-Token.sol\":11109:11124  gameInformation */\n      swap1\n        /* \"Practical6-Apply-TTT-Token.sol\":11125:11131  gameId */\n      dup6\n      swap1\n        /* \"Practical6-Apply-TTT-Token.sol\":11109:11132  gameInformation[gameId] */\n      dup2\n      lt\n      tag_583\n      jumpi\n      tag_583\n      tag_154\n      jump\t// in\n    tag_583:\n      swap1\n      0x00\n      mstore\n      keccak256(0x00, 0x20)\n      swap1\n      0x0b\n      mul\n      add\n        /* \"Practical6-Apply-TTT-Token.sol\":11109:11148  gameInformation[gameId]._player2address */\n      0x05\n      add\n      0x00\n      swap1\n      sload\n      swap1\n      0x0100\n      exp\n      swap1\n      div\n      sub(shl(0xa0, 0x01), 0x01)\n      and\n        /* \"Practical6-Apply-TTT-Token.sol\":11150:11165  gameInformation */\n      0x07\n        /* \"Practical6-Apply-TTT-Token.sol\":11166:11172  gameId */\n      dup6\n        /* \"Practical6-Apply-TTT-Token.sol\":11150:11173  gameInformation[gameId] */\n      dup2\n      sload\n      dup2\n      lt\n      tag_586\n      jumpi\n      tag_586\n      tag_154\n      jump\t// in\n    tag_586:\n      swap1\n      0x00\n      mstore\n      keccak256(0x00, 0x20)\n      swap1\n      0x0b\n      mul\n      add\n        /* \"Practical6-Apply-TTT-Token.sol\":11150:11187  gameInformation[gameId]._rewardAmount */\n      0x0a\n      add\n      sload\n        /* \"Practical6-Apply-TTT-Token.sol\":11188:11189  2 */\n      0x02\n        /* \"Practical6-Apply-TTT-Token.sol\":11150:11189  gameInformation[gameId]._rewardAmount*2 */\n      tag_588\n      swap2\n      swap1\n      tag_118\n      jump\t// in\n    tag_588:\n        /* \"Practical6-Apply-TTT-Token.sol\":11091:11190  TTTToken.transfer(gameInformation[gameId]._player2address, gameInformation[gameId]._rewardAmount*2) */\n      mload(0x40)\n      not(sub(shl(0xe0, 0x01), 0x01))\n      0xe0\n      dup6\n      swap1\n      shl\n      and\n      dup2\n      mstore\n      sub(shl(0xa0, 0x01), 0x01)\n        /* \"#utility.yul\":20945:20977   */\n      swap1\n      swap3\n      and\n        /* \"Practical6-Apply-TTT-Token.sol\":11091:11190  TTTToken.transfer(gameInformation[gameId]._player2address, gameInformation[gameId]._rewardAmount*2) */\n      0x04\n      dup4\n      add\n        /* \"#utility.yul\":20927:20978   */\n      mstore\n        /* \"#utility.yul\":20994:21012   */\n      0x24\n      dup3\n      add\n        /* \"#utility.yul\":20987:21021   */\n      mstore\n        /* \"#utility.yul\":20900:20918   */\n      0x44\n      add\n        /* \"Practical6-Apply-TTT-Token.sol\":11091:11190  TTTToken.transfer(gameInformation[gameId]._player2address, gameInformation[gameId]._rewardAmount*2) */\n      0x20\n      mload(0x40)\n      dup1\n      dup4\n      sub\n      dup2\n      0x00\n      dup8\n      gas\n      call\n      iszero\n      dup1\n      iszero\n      tag_591\n      jumpi\n      returndatasize\n      0x00\n      dup1\n      returndatacopy\n      revert(0x00, returndatasize)\n    tag_591:\n      pop\n      pop\n      pop\n      pop\n      mload(0x40)\n      returndatasize\n      not(0x1f)\n      0x1f\n      dup3\n      add\n      and\n      dup3\n      add\n      dup1\n      0x40\n      mstore\n      pop\n      dup2\n      add\n      swap1\n      tag_592\n      swap2\n      swap1\n      tag_131\n      jump\t// in\n    tag_592:\n      pop\n        /* \"Practical6-Apply-TTT-Token.sol\":10857:11210  if(compareStrings(gameInformation[gameId]._currentPlayer, \"X\")){... */\n    tag_581:\n        /* \"Practical6-Apply-TTT-Token.sol\":11243:11258  gameInformation */\n      0x07\n        /* \"Practical6-Apply-TTT-Token.sol\":11259:11265  gameId */\n      dup3\n        /* \"Practical6-Apply-TTT-Token.sol\":11243:11266  gameInformation[gameId] */\n      dup2\n      sload\n      dup2\n      lt\n      tag_594\n      jumpi\n      tag_594\n      tag_154\n      jump\t// in\n    tag_594:\n      swap1\n      0x00\n      mstore\n      keccak256(0x00, 0x20)\n      swap1\n      0x0b\n      mul\n      add\n        /* \"Practical6-Apply-TTT-Token.sol\":11243:11280  gameInformation[gameId]._rewardAmount */\n      0x0a\n      add\n      sload\n        /* \"Practical6-Apply-TTT-Token.sol\":11281:11282  2 */\n      0x02\n        /* \"Practical6-Apply-TTT-Token.sol\":11243:11282  gameInformation[gameId]._rewardAmount*2 */\n      tag_596\n      swap2\n      swap1\n      tag_118\n      jump\t// in\n    tag_596:\n        /* \"Practical6-Apply-TTT-Token.sol\":11228:11239  totalAmount */\n      0x05\n      0x00\n        /* \"Practical6-Apply-TTT-Token.sol\":11228:11282  totalAmount -= gameInformation[gameId]._rewardAmount*2 */\n      dup3\n      dup3\n      sload\n      tag_597\n      swap2\n      swap1\n      tag_124\n      jump\t// in\n    tag_597:\n      swap3\n      pop\n      pop\n      dup2\n      swap1\n      sstore\n      pop\n        /* \"Practical6-Apply-TTT-Token.sol\":11347:11405  showResult(gameInformation[gameId]._currentPlayer, gameId) */\n      0x938a1c44580c51d01225d61fb97878104148b1cdc734eb45bc5b5b50533a492d\n        /* \"Practical6-Apply-TTT-Token.sol\":11358:11373  gameInformation */\n      0x07\n        /* \"Practical6-Apply-TTT-Token.sol\":11374:11380  gameId */\n      dup4\n        /* \"Practical6-Apply-TTT-Token.sol\":11358:11381  gameInformation[gameId] */\n      dup2\n      sload\n      dup2\n      lt\n      tag_599\n      jumpi\n      tag_599\n      tag_154\n      jump\t// in\n    tag_599:\n      swap1\n      0x00\n      mstore\n      keccak256(0x00, 0x20)\n      swap1\n      0x0b\n      mul\n      add\n        /* \"Practical6-Apply-TTT-Token.sol\":11358:11396  gameInformation[gameId]._currentPlayer */\n      0x01\n      add\n        /* \"Practical6-Apply-TTT-Token.sol\":11398:11404  gameId */\n      dup4\n        /* \"Practical6-Apply-TTT-Token.sol\":11347:11405  showResult(gameInformation[gameId]._currentPlayer, gameId) */\n      mload(0x40)\n      tag_601\n      swap3\n      swap2\n      swap1\n      tag_602\n      jump\t// in\n    tag_601:\n      mload(0x40)\n      dup1\n      swap2\n      sub\n      swap1\n      log1\n        /* \"Practical6-Apply-TTT-Token.sol\":11521:11526  false */\n      0x00\n        /* \"Practical6-Apply-TTT-Token.sol\":11485:11500  gameInformation */\n      0x07\n        /* \"Practical6-Apply-TTT-Token.sol\":11501:11507  gameId */\n      dup4\n        /* \"Practical6-Apply-TTT-Token.sol\":11485:11508  gameInformation[gameId] */\n      dup2\n      sload\n      dup2\n      lt\n      tag_604\n      jumpi\n      tag_604\n      tag_154\n      jump\t// in\n    tag_604:\n      0x00\n      swap2\n      dup3\n      mstore\n      0x20\n      swap1\n      swap2\n      keccak256\n      0x0b\n      swap1\n      swap2\n      mul\n      add\n        /* \"Practical6-Apply-TTT-Token.sol\":11485:11526  gameInformation[gameId]._activate = false */\n      dup1\n      sload\n      not(0xff)\n      and\n      swap2\n      iszero\n      iszero\n      swap2\n      swap1\n      swap2\n      or\n      swap1\n      sstore\n      pop\n      pop\n        /* \"Practical6-Apply-TTT-Token.sol\":7876:8922  function userInput(uint input, uint gameId) external {... */\n      jump\t// out\n        /* \"Practical6-Apply-TTT-Token.sol\":10783:11945  if(userWon){... */\n    tag_559:\n        /* \"Practical6-Apply-TTT-Token.sol\":11555:11575  checkOptions(gameId) */\n      tag_607\n        /* \"Practical6-Apply-TTT-Token.sol\":11568:11574  gameId */\n      dup3\n        /* \"Practical6-Apply-TTT-Token.sol\":11555:11567  checkOptions */\n      tag_608\n        /* \"Practical6-Apply-TTT-Token.sol\":11555:11575  checkOptions(gameId) */\n      jump\t// in\n    tag_607:\n        /* \"Practical6-Apply-TTT-Token.sol\":11552:11945  if(checkOptions(gameId)){... */\n      iszero\n      tag_609\n      jumpi\n        /* \"Practical6-Apply-TTT-Token.sol\":11644:11670  showResult(\"Draw\", gameId) */\n      0x40\n      dup1\n      mload\n        /* \"#utility.yul\":25637:25658   */\n      dup2\n      dup2\n      mstore\n        /* \"#utility.yul\":25694:25695   */\n      0x04\n        /* \"#utility.yul\":25674:25692   */\n      swap2\n      dup2\n      add\n        /* \"#utility.yul\":25667:25696   */\n      swap2\n      swap1\n      swap2\n      mstore\n      shl(0xe0, 0x44726177)\n        /* \"#utility.yul\":25727:25729   */\n      0x60\n        /* \"#utility.yul\":25712:25730   */\n      dup3\n      add\n        /* \"#utility.yul\":25705:25739   */\n      mstore\n        /* \"#utility.yul\":25806:25810   */\n      0x20\n        /* \"#utility.yul\":25791:25811   */\n      dup2\n      add\n        /* \"#utility.yul\":25784:25820   */\n      dup4\n      swap1\n      mstore\n        /* \"Practical6-Apply-TTT-Token.sol\":11644:11670  showResult(\"Draw\", gameId) */\n      0x938a1c44580c51d01225d61fb97878104148b1cdc734eb45bc5b5b50533a492d\n      swap1\n        /* \"#utility.yul\":25771:25774   */\n      0x80\n        /* \"#utility.yul\":25756:25775   */\n      add\n        /* \"Practical6-Apply-TTT-Token.sol\":11644:11670  showResult(\"Draw\", gameId) */\n      tag_601\n        /* \"#utility.yul\":25425:25826   */\n      jump\n        /* \"Practical6-Apply-TTT-Token.sol\":11552:11945  if(checkOptions(gameId)){... */\n    tag_609:\n        /* \"Practical6-Apply-TTT-Token.sol\":11909:11929  changePlayer(gameId) */\n      tag_304\n        /* \"Practical6-Apply-TTT-Token.sol\":11922:11928  gameId */\n      dup3\n        /* \"Practical6-Apply-TTT-Token.sol\":11909:11921  changePlayer */\n      tag_617\n        /* \"Practical6-Apply-TTT-Token.sol\":11909:11929  changePlayer(gameId) */\n      jump\t// in\n        /* \"Practical6-Apply-TTT-Token.sol\":12780:13224  function checkOptions(uint gameId) private view returns (bool) {... */\n    tag_608:\n        /* \"Practical6-Apply-TTT-Token.sol\":12837:12841  bool */\n      0x00\n      dup1\n        /* \"Practical6-Apply-TTT-Token.sol\":12973:13187  for(uint i = 0 ; i < gameInformation[gameId]._options.length; i++){... */\n    tag_619:\n        /* \"Practical6-Apply-TTT-Token.sol\":12994:13009  gameInformation */\n      0x07\n        /* \"Practical6-Apply-TTT-Token.sol\":13010:13016  gameId */\n      dup4\n        /* \"Practical6-Apply-TTT-Token.sol\":12994:13017  gameInformation[gameId] */\n      dup2\n      sload\n      dup2\n      lt\n      tag_623\n      jumpi\n      tag_623\n      tag_154\n      jump\t// in\n    tag_623:\n      swap1\n      0x00\n      mstore\n      keccak256(0x00, 0x20)\n      swap1\n      0x0b\n      mul\n      add\n        /* \"Practical6-Apply-TTT-Token.sol\":12994:13026  gameInformation[gameId]._options */\n      0x02\n      add\n        /* \"Practical6-Apply-TTT-Token.sol\":12994:13033  gameInformation[gameId]._options.length */\n      dup1\n      sload\n      swap1\n      pop\n        /* \"Practical6-Apply-TTT-Token.sol\":12990:12991  i */\n      dup2\n        /* \"Practical6-Apply-TTT-Token.sol\":12990:13033  i < gameInformation[gameId]._options.length */\n      lt\n        /* \"Practical6-Apply-TTT-Token.sol\":12973:13187  for(uint i = 0 ; i < gameInformation[gameId]._options.length; i++){... */\n      iszero\n      tag_620\n      jumpi\n        /* \"Practical6-Apply-TTT-Token.sol\":13061:13116  compareStrings(gameInformation[gameId]._options[i], \"\") */\n      tag_625\n        /* \"Practical6-Apply-TTT-Token.sol\":13076:13091  gameInformation */\n      0x07\n        /* \"Practical6-Apply-TTT-Token.sol\":13092:13098  gameId */\n      dup5\n        /* \"Practical6-Apply-TTT-Token.sol\":13076:13099  gameInformation[gameId] */\n      dup2\n      sload\n      dup2\n      lt\n      tag_627\n      jumpi\n      tag_627\n      tag_154\n      jump\t// in\n    tag_627:\n      swap1\n      0x00\n      mstore\n      keccak256(0x00, 0x20)\n      swap1\n      0x0b\n      mul\n      add\n        /* \"Practical6-Apply-TTT-Token.sol\":13076:13108  gameInformation[gameId]._options */\n      0x02\n      add\n        /* \"Practical6-Apply-TTT-Token.sol\":13109:13110  i */\n      dup3\n        /* \"Practical6-Apply-TTT-Token.sol\":13076:13111  gameInformation[gameId]._options[i] */\n      dup2\n      sload\n      dup2\n      lt\n      tag_255\n      jumpi\n      tag_255\n      tag_154\n      jump\t// in\n        /* \"Practical6-Apply-TTT-Token.sol\":13061:13116  compareStrings(gameInformation[gameId]._options[i], \"\") */\n    tag_625:\n        /* \"Practical6-Apply-TTT-Token.sol\":13058:13172  if(compareStrings(gameInformation[gameId]._options[i], \"\")){... */\n      iszero\n      tag_637\n      jumpi\n      pop\n        /* \"Practical6-Apply-TTT-Token.sol\":13147:13152  false */\n      0x00\n      swap3\n        /* \"Practical6-Apply-TTT-Token.sol\":12780:13224  function checkOptions(uint gameId) private view returns (bool) {... */\n      swap2\n      pop\n      pop\n      jump\t// out\n        /* \"Practical6-Apply-TTT-Token.sol\":13058:13172  if(compareStrings(gameInformation[gameId]._options[i], \"\")){... */\n    tag_637:\n        /* \"Practical6-Apply-TTT-Token.sol\":13035:13038  i++ */\n      dup1\n      tag_638\n      dup2\n      tag_187\n      jump\t// in\n    tag_638:\n      swap2\n      pop\n      pop\n        /* \"Practical6-Apply-TTT-Token.sol\":12973:13187  for(uint i = 0 ; i < gameInformation[gameId]._options.length; i++){... */\n      jump(tag_619)\n    tag_620:\n      pop\n        /* \"Practical6-Apply-TTT-Token.sol\":13208:13212  true */\n      0x01\n      swap3\n        /* \"Practical6-Apply-TTT-Token.sol\":12780:13224  function checkOptions(uint gameId) private view returns (bool) {... */\n      swap2\n      pop\n      pop\n      jump\t// out\n        /* \"Practical6-Apply-TTT-Token.sol\":12001:12711  function changePlayer(uint gameId) private {... */\n    tag_617:\n        /* \"Practical6-Apply-TTT-Token.sol\":12107:12166  compareStrings(gameInformation[gameId]._currentPlayer, \"X\") */\n      tag_640\n        /* \"Practical6-Apply-TTT-Token.sol\":12122:12137  gameInformation */\n      0x07\n        /* \"Practical6-Apply-TTT-Token.sol\":12138:12144  gameId */\n      dup3\n        /* \"Practical6-Apply-TTT-Token.sol\":12122:12145  gameInformation[gameId] */\n      dup2\n      sload\n      dup2\n      lt\n      tag_267\n      jumpi\n      tag_267\n      tag_154\n      jump\t// in\n        /* \"Practical6-Apply-TTT-Token.sol\":12107:12166  compareStrings(gameInformation[gameId]._currentPlayer, \"X\") */\n    tag_640:\n        /* \"Practical6-Apply-TTT-Token.sol\":12104:12417  if(compareStrings(gameInformation[gameId]._currentPlayer, \"X\")){... */\n      iszero\n      tag_649\n      jumpi\n        /* \"Practical6-Apply-TTT-Token.sol\":12191:12248  nextUser(gameInformation[gameId]._player2address, gameId) */\n      0xeefc3fd775b975165c9d067e02fcd5bf5889d58041ae6ddaf94f2cc853007272\n        /* \"Practical6-Apply-TTT-Token.sol\":12200:12215  gameInformation */\n      0x07\n        /* \"Practical6-Apply-TTT-Token.sol\":12216:12222  gameId */\n      dup3\n        /* \"Practical6-Apply-TTT-Token.sol\":12200:12223  gameInformation[gameId] */\n      dup2\n      sload\n      dup2\n      lt\n      tag_651\n      jumpi\n      tag_651\n      tag_154\n      jump\t// in\n    tag_651:\n      0x00\n      swap2\n      dup3\n      mstore\n      0x20\n      swap2\n      dup3\n      swap1\n      keccak256\n      0x0b\n      swap1\n      swap2\n      mul\n      add\n        /* \"Practical6-Apply-TTT-Token.sol\":12200:12239  gameInformation[gameId]._player2address */\n      0x05\n      add\n      sload\n        /* \"Practical6-Apply-TTT-Token.sol\":12191:12248  nextUser(gameInformation[gameId]._player2address, gameId) */\n      0x40\n      dup1\n      mload\n      sub(shl(0xa0, 0x01), 0x01)\n        /* \"Practical6-Apply-TTT-Token.sol\":12200:12239  gameInformation[gameId]._player2address */\n      swap1\n      swap3\n      and\n        /* \"#utility.yul\":20927:20978   */\n      dup3\n      mstore\n        /* \"#utility.yul\":20994:21012   */\n      swap2\n      dup2\n      add\n        /* \"#utility.yul\":20987:21021   */\n      dup5\n      swap1\n      mstore\n        /* \"#utility.yul\":20900:20918   */\n      add\n        /* \"Practical6-Apply-TTT-Token.sol\":12191:12248  nextUser(gameInformation[gameId]._player2address, gameId) */\n      mload(0x40)\n      dup1\n      swap2\n      sub\n      swap1\n      log1\n        /* \"Practical6-Apply-TTT-Token.sol\":12104:12417  if(compareStrings(gameInformation[gameId]._currentPlayer, \"X\")){... */\n      jump(tag_654)\n    tag_649:\n        /* \"Practical6-Apply-TTT-Token.sol\":12318:12375  nextUser(gameInformation[gameId]._player1address, gameId) */\n      0xeefc3fd775b975165c9d067e02fcd5bf5889d58041ae6ddaf94f2cc853007272\n        /* \"Practical6-Apply-TTT-Token.sol\":12327:12342  gameInformation */\n      0x07\n        /* \"Practical6-Apply-TTT-Token.sol\":12343:12349  gameId */\n      dup3\n        /* \"Practical6-Apply-TTT-Token.sol\":12327:12350  gameInformation[gameId] */\n      dup2\n      sload\n      dup2\n      lt\n      tag_656\n      jumpi\n      tag_656\n      tag_154\n      jump\t// in\n    tag_656:\n      0x00\n      swap2\n      dup3\n      mstore\n      0x20\n      swap2\n      dup3\n      swap1\n      keccak256\n      0x0b\n      swap1\n      swap2\n      mul\n      add\n        /* \"Practical6-Apply-TTT-Token.sol\":12327:12366  gameInformation[gameId]._player1address */\n      0x04\n      add\n      sload\n        /* \"Practical6-Apply-TTT-Token.sol\":12318:12375  nextUser(gameInformation[gameId]._player1address, gameId) */\n      0x40\n      dup1\n      mload\n      sub(shl(0xa0, 0x01), 0x01)\n        /* \"Practical6-Apply-TTT-Token.sol\":12327:12366  gameInformation[gameId]._player1address */\n      swap1\n      swap3\n      and\n        /* \"#utility.yul\":20927:20978   */\n      dup3\n      mstore\n        /* \"#utility.yul\":20994:21012   */\n      swap2\n      dup2\n      add\n        /* \"#utility.yul\":20987:21021   */\n      dup5\n      swap1\n      mstore\n        /* \"#utility.yul\":20900:20918   */\n      add\n        /* \"Practical6-Apply-TTT-Token.sol\":12318:12375  nextUser(gameInformation[gameId]._player1address, gameId) */\n      mload(0x40)\n      dup1\n      swap2\n      sub\n      swap1\n      log1\n        /* \"Practical6-Apply-TTT-Token.sol\":12104:12417  if(compareStrings(gameInformation[gameId]._currentPlayer, \"X\")){... */\n    tag_654:\n        /* \"Practical6-Apply-TTT-Token.sol\":12506:12565  compareStrings(gameInformation[gameId]._currentPlayer, \"X\") */\n      tag_659\n        /* \"Practical6-Apply-TTT-Token.sol\":12521:12536  gameInformation */\n      0x07\n        /* \"Practical6-Apply-TTT-Token.sol\":12537:12543  gameId */\n      dup3\n        /* \"Practical6-Apply-TTT-Token.sol\":12521:12544  gameInformation[gameId] */\n      dup2\n      sload\n      dup2\n      lt\n      tag_267\n      jumpi\n      tag_267\n      tag_154\n      jump\t// in\n        /* \"Practical6-Apply-TTT-Token.sol\":12506:12565  compareStrings(gameInformation[gameId]._currentPlayer, \"X\") */\n    tag_659:\n        /* \"Practical6-Apply-TTT-Token.sol\":12505:12578  (compareStrings(gameInformation[gameId]._currentPlayer, \"X\")) ? \"O\" : \"X\" */\n      tag_668\n      jumpi\n      mload(0x40)\n      dup1\n      0x40\n      add\n      0x40\n      mstore\n      dup1\n      0x01\n      dup2\n      mstore\n      0x20\n      add\n      shl(0xfb, 0x0b)\n      dup2\n      mstore\n      pop\n      jump(tag_669)\n    tag_668:\n      mload(0x40)\n      dup1\n      0x40\n      add\n      0x40\n      mstore\n      dup1\n      0x01\n      dup2\n      mstore\n      0x20\n      add\n      shl(0xf8, 0x4f)\n      dup2\n      mstore\n      pop\n    tag_669:\n        /* \"Practical6-Apply-TTT-Token.sol\":12464:12479  gameInformation */\n      0x07\n        /* \"Practical6-Apply-TTT-Token.sol\":12480:12486  gameId */\n      dup3\n        /* \"Practical6-Apply-TTT-Token.sol\":12464:12487  gameInformation[gameId] */\n      dup2\n      sload\n      dup2\n      lt\n      tag_671\n      jumpi\n      tag_671\n      tag_154\n      jump\t// in\n    tag_671:\n      swap1\n      0x00\n      mstore\n      keccak256(0x00, 0x20)\n      swap1\n      0x0b\n      mul\n      add\n        /* \"Practical6-Apply-TTT-Token.sol\":12464:12502  gameInformation[gameId]._currentPlayer */\n      0x01\n      add\n        /* \"Practical6-Apply-TTT-Token.sol\":12464:12578  gameInformation[gameId]._currentPlayer = (compareStrings(gameInformation[gameId]._currentPlayer, \"X\")) ? \"O\" : \"X\" */\n      swap1\n      dup2\n      tag_673\n      swap2\n      swap1\n      tag_146\n      jump\t// in\n    tag_673:\n      pop\n        /* \"Practical6-Apply-TTT-Token.sol\":12640:12699  nextUesrStr(gameInformation[gameId]._currentPlayer, gameId) */\n      0xa6d1cb5f730b987124c37c3876130fddba49456449948ec4257360f5ab2851c0\n        /* \"Practical6-Apply-TTT-Token.sol\":12652:12667  gameInformation */\n      0x07\n        /* \"Practical6-Apply-TTT-Token.sol\":12668:12674  gameId */\n      dup3\n        /* \"Practical6-Apply-TTT-Token.sol\":12652:12675  gameInformation[gameId] */\n      dup2\n      sload\n      dup2\n      lt\n      tag_675\n      jumpi\n      tag_675\n      tag_154\n      jump\t// in\n    tag_675:\n      swap1\n      0x00\n      mstore\n      keccak256(0x00, 0x20)\n      swap1\n      0x0b\n      mul\n      add\n        /* \"Practical6-Apply-TTT-Token.sol\":12652:12690  gameInformation[gameId]._currentPlayer */\n      0x01\n      add\n        /* \"Practical6-Apply-TTT-Token.sol\":12692:12698  gameId */\n      dup3\n        /* \"Practical6-Apply-TTT-Token.sol\":12640:12699  nextUesrStr(gameInformation[gameId]._currentPlayer, gameId) */\n      mload(0x40)\n      tag_242\n      swap3\n      swap2\n      swap1\n      tag_602\n      jump\t// in\n    tag_143:\n      mload(0x40)\n      dup1\n      0x0160\n      add\n      0x40\n      mstore\n      dup1\n      iszero(iszero(0x00))\n      dup2\n      mstore\n      0x20\n      add\n      0x60\n      dup2\n      mstore\n      0x20\n      add\n      0x60\n      dup2\n      mstore\n      0x20\n      add\n      0x60\n      dup2\n      mstore\n      0x20\n      add\n      and(sub(shl(0xa0, 0x01), 0x01), 0x00)\n      dup2\n      mstore\n      0x20\n      add\n      and(sub(shl(0xa0, 0x01), 0x01), 0x00)\n      dup2\n      mstore\n      0x20\n      add\n      0x00\n      dup2\n      mstore\n      0x20\n      add\n      and(sub(shl(0xa0, 0x01), 0x01), 0x00)\n      dup2\n      mstore\n      0x20\n      add\n      0x00\n      dup2\n      mstore\n      0x20\n      add\n      0x00\n      dup2\n      mstore\n      0x20\n      add\n      0x00\n      dup2\n      mstore\n      pop\n      swap1\n      jump\t// out\n    tag_148:\n      dup3\n      dup1\n      sload\n      dup3\n      dup3\n      sstore\n      swap1\n      0x00\n      mstore\n      keccak256(0x00, 0x20)\n      swap1\n      dup2\n      add\n      swap3\n      dup3\n      iszero\n      tag_680\n      jumpi\n      swap2\n      0x20\n      mul\n      dup3\n      add\n    tag_679:\n      dup3\n      dup2\n      gt\n      iszero\n      tag_680\n      jumpi\n      dup3\n      mload\n      dup3\n      swap1\n      tag_681\n      swap1\n      dup3\n      tag_146\n      jump\t// in\n    tag_681:\n      pop\n      swap2\n      0x20\n      add\n      swap2\n      swap1\n      0x01\n      add\n      swap1\n      jump(tag_679)\n    tag_680:\n      pop\n      tag_682\n      swap3\n      swap2\n      pop\n      tag_683\n      jump\t// in\n    tag_682:\n      pop\n      swap1\n      jump\t// out\n    tag_150:\n      dup3\n      dup1\n      sload\n      dup3\n      dup3\n      sstore\n      swap1\n      0x00\n      mstore\n      keccak256(0x00, 0x20)\n      swap1\n      dup2\n      add\n      swap3\n      dup3\n      iszero\n      tag_686\n      jumpi\n      swap2\n      0x20\n      mul\n      dup3\n      add\n    tag_685:\n      dup3\n      dup2\n      gt\n      iszero\n      tag_686\n      jumpi\n      dup3\n      mload\n      dup3\n      sstore\n      swap2\n      0x20\n      add\n      swap2\n      swap1\n      0x01\n      add\n      swap1\n      jump(tag_685)\n    tag_686:\n      pop\n      tag_682\n      swap3\n      swap2\n      pop\n      tag_688\n      jump\t// in\n    tag_238:\n      dup3\n      dup1\n      sload\n      dup3\n      dup3\n      sstore\n      swap1\n      0x00\n      mstore\n      keccak256(0x00, 0x20)\n      swap1\n      dup2\n      add\n      swap3\n      dup3\n      iszero\n      tag_680\n      jumpi\n      swap2\n      0x20\n      mul\n      dup3\n      add\n    tag_690:\n      dup3\n      dup2\n      gt\n      iszero\n      tag_680\n      jumpi\n      dup3\n      mload\n      dup3\n      swap1\n      tag_692\n      swap1\n      dup3\n      tag_146\n      jump\t// in\n    tag_692:\n      pop\n      swap2\n      0x20\n      add\n      swap2\n      swap1\n      0x01\n      add\n      swap1\n      jump(tag_690)\n    tag_683:\n      dup1\n      dup3\n      gt\n      iszero\n      tag_682\n      jumpi\n      0x00\n      tag_696\n      dup3\n      dup3\n      tag_697\n      jump\t// in\n    tag_696:\n      pop\n      0x01\n      add\n      jump(tag_683)\n    tag_688:\n    tag_698:\n      dup1\n      dup3\n      gt\n      iszero\n      tag_682\n      jumpi\n      0x00\n      dup2\n      sstore\n      0x01\n      add\n      jump(tag_698)\n    tag_697:\n      pop\n      dup1\n      sload\n      tag_700\n      swap1\n      tag_214\n      jump\t// in\n    tag_700:\n      0x00\n      dup3\n      sstore\n      dup1\n      0x1f\n      lt\n      tag_702\n      jumpi\n      pop\n      pop\n      jump\t// out\n    tag_702:\n      0x1f\n      add\n      0x20\n      swap1\n      div\n      swap1\n      0x00\n      mstore\n      keccak256(0x00, 0x20)\n      swap1\n      dup2\n      add\n      swap1\n      tag_208\n      swap2\n      swap1\n      tag_688\n      jump\t// in\n        /* \"#utility.yul\":14:194   */\n    tag_28:\n        /* \"#utility.yul\":73:79   */\n      0x00\n        /* \"#utility.yul\":126:128   */\n      0x20\n        /* \"#utility.yul\":114:123   */\n      dup3\n        /* \"#utility.yul\":105:112   */\n      dup5\n        /* \"#utility.yul\":101:124   */\n      sub\n        /* \"#utility.yul\":97:129   */\n      slt\n        /* \"#utility.yul\":94:146   */\n      iszero\n      tag_724\n      jumpi\n        /* \"#utility.yul\":142:143   */\n      0x00\n        /* \"#utility.yul\":139:140   */\n      dup1\n        /* \"#utility.yul\":132:144   */\n      revert\n        /* \"#utility.yul\":94:146   */\n    tag_724:\n      pop\n        /* \"#utility.yul\":165:188   */\n      calldataload\n      swap2\n        /* \"#utility.yul\":14:194   */\n      swap1\n      pop\n      jump\t// out\n        /* \"#utility.yul\":199:831   */\n    tag_34:\n        /* \"#utility.yul\":370:372   */\n      0x20\n        /* \"#utility.yul\":422:443   */\n      dup1\n      dup3\n      mstore\n        /* \"#utility.yul\":492:505   */\n      dup3\n      mload\n        /* \"#utility.yul\":395:413   */\n      dup3\n      dup3\n      add\n        /* \"#utility.yul\":514:536   */\n      dup2\n      swap1\n      mstore\n        /* \"#utility.yul\":341:345   */\n      0x00\n      swap2\n        /* \"#utility.yul\":370:372   */\n      swap1\n        /* \"#utility.yul\":593:608   */\n      dup5\n      dup3\n      add\n      swap1\n        /* \"#utility.yul\":567:569   */\n      0x40\n        /* \"#utility.yul\":552:570   */\n      dup6\n      add\n      swap1\n        /* \"#utility.yul\":341:345   */\n      dup5\n        /* \"#utility.yul\":636:805   */\n    tag_726:\n        /* \"#utility.yul\":650:656   */\n      dup2\n        /* \"#utility.yul\":647:648   */\n      dup2\n        /* \"#utility.yul\":644:657   */\n      lt\n        /* \"#utility.yul\":636:805   */\n      iszero\n      tag_728\n      jumpi\n        /* \"#utility.yul\":711:724   */\n      dup4\n      mload\n        /* \"#utility.yul\":699:725   */\n      dup4\n      mstore\n        /* \"#utility.yul\":780:795   */\n      swap3\n      dup5\n      add\n      swap3\n        /* \"#utility.yul\":745:757   */\n      swap2\n      dup5\n      add\n      swap2\n        /* \"#utility.yul\":672:673   */\n      0x01\n        /* \"#utility.yul\":665:674   */\n      add\n        /* \"#utility.yul\":636:805   */\n      jump(tag_726)\n    tag_728:\n      pop\n        /* \"#utility.yul\":822:825   */\n      swap1\n      swap7\n        /* \"#utility.yul\":199:831   */\n      swap6\n      pop\n      pop\n      pop\n      pop\n      pop\n      pop\n      jump\t// out\n        /* \"#utility.yul\":1114:1364   */\n    tag_705:\n        /* \"#utility.yul\":1199:1200   */\n      0x00\n        /* \"#utility.yul\":1209:1322   */\n    tag_732:\n        /* \"#utility.yul\":1223:1229   */\n      dup4\n        /* \"#utility.yul\":1220:1221   */\n      dup2\n        /* \"#utility.yul\":1217:1230   */\n      lt\n        /* \"#utility.yul\":1209:1322   */\n      iszero\n      tag_734\n      jumpi\n        /* \"#utility.yul\":1299:1310   */\n      dup2\n      dup2\n      add\n        /* \"#utility.yul\":1293:1311   */\n      mload\n        /* \"#utility.yul\":1280:1291   */\n      dup4\n      dup3\n      add\n        /* \"#utility.yul\":1273:1312   */\n      mstore\n        /* \"#utility.yul\":1245:1247   */\n      0x20\n        /* \"#utility.yul\":1238:1248   */\n      add\n        /* \"#utility.yul\":1209:1322   */\n      jump(tag_732)\n    tag_734:\n      pop\n      pop\n        /* \"#utility.yul\":1356:1357   */\n      0x00\n        /* \"#utility.yul\":1338:1354   */\n      swap2\n      add\n        /* \"#utility.yul\":1331:1358   */\n      mstore\n        /* \"#utility.yul\":1114:1364   */\n      jump\t// out\n        /* \"#utility.yul\":1369:1640   */\n    tag_706:\n        /* \"#utility.yul\":1411:1414   */\n      0x00\n        /* \"#utility.yul\":1449:1454   */\n      dup2\n        /* \"#utility.yul\":1443:1455   */\n      mload\n        /* \"#utility.yul\":1476:1482   */\n      dup1\n        /* \"#utility.yul\":1471:1474   */\n      dup5\n        /* \"#utility.yul\":1464:1483   */\n      mstore\n        /* \"#utility.yul\":1492:1568   */\n      tag_736\n        /* \"#utility.yul\":1561:1567   */\n      dup2\n        /* \"#utility.yul\":1554:1558   */\n      0x20\n        /* \"#utility.yul\":1549:1552   */\n      dup7\n        /* \"#utility.yul\":1545:1559   */\n      add\n        /* \"#utility.yul\":1538:1542   */\n      0x20\n        /* \"#utility.yul\":1531:1536   */\n      dup7\n        /* \"#utility.yul\":1527:1543   */\n      add\n        /* \"#utility.yul\":1492:1568   */\n      tag_705\n      jump\t// in\n    tag_736:\n        /* \"#utility.yul\":1622:1624   */\n      0x1f\n        /* \"#utility.yul\":1601:1616   */\n      add\n      not(0x1f)\n        /* \"#utility.yul\":1597:1626   */\n      and\n        /* \"#utility.yul\":1588:1627   */\n      swap3\n      swap1\n      swap3\n      add\n        /* \"#utility.yul\":1629:1633   */\n      0x20\n        /* \"#utility.yul\":1584:1634   */\n      add\n      swap3\n        /* \"#utility.yul\":1369:1640   */\n      swap2\n      pop\n      pop\n      jump\t// out\n        /* \"#utility.yul\":1645:2237   */\n    tag_707:\n        /* \"#utility.yul\":1697:1700   */\n      0x00\n        /* \"#utility.yul\":1728:1731   */\n      dup3\n        /* \"#utility.yul\":1760:1765   */\n      dup3\n        /* \"#utility.yul\":1754:1766   */\n      mload\n        /* \"#utility.yul\":1787:1793   */\n      dup1\n        /* \"#utility.yul\":1782:1785   */\n      dup6\n        /* \"#utility.yul\":1775:1794   */\n      mstore\n        /* \"#utility.yul\":1813:1817   */\n      0x20\n        /* \"#utility.yul\":1842:1844   */\n      dup1\n        /* \"#utility.yul\":1837:1840   */\n      dup7\n        /* \"#utility.yul\":1833:1845   */\n      add\n        /* \"#utility.yul\":1826:1845   */\n      swap6\n      pop\n        /* \"#utility.yul\":1898:1900   */\n      dup1\n        /* \"#utility.yul\":1888:1894   */\n      dup3\n        /* \"#utility.yul\":1885:1886   */\n      0x05\n        /* \"#utility.yul\":1881:1895   */\n      shl\n        /* \"#utility.yul\":1874:1879   */\n      dup5\n        /* \"#utility.yul\":1870:1896   */\n      add\n        /* \"#utility.yul\":1866:1901   */\n      add\n        /* \"#utility.yul\":1935:1937   */\n      dup2\n        /* \"#utility.yul\":1928:1933   */\n      dup7\n        /* \"#utility.yul\":1924:1938   */\n      add\n        /* \"#utility.yul\":1956:1957   */\n      0x00\n        /* \"#utility.yul\":1966:2211   */\n    tag_738:\n        /* \"#utility.yul\":1980:1986   */\n      dup5\n        /* \"#utility.yul\":1977:1978   */\n      dup2\n        /* \"#utility.yul\":1974:1987   */\n      lt\n        /* \"#utility.yul\":1966:2211   */\n      iszero\n      tag_740\n      jumpi\n        /* \"#utility.yul\":2067:2069   */\n      0x1f\n        /* \"#utility.yul\":2063:2070   */\n      not\n        /* \"#utility.yul\":2055:2060   */\n      dup7\n        /* \"#utility.yul\":2049:2053   */\n      dup5\n        /* \"#utility.yul\":2045:2061   */\n      sub\n        /* \"#utility.yul\":2041:2071   */\n      add\n        /* \"#utility.yul\":2036:2039   */\n      dup10\n        /* \"#utility.yul\":2029:2072   */\n      mstore\n        /* \"#utility.yul\":2093:2131   */\n      tag_741\n        /* \"#utility.yul\":2126:2130   */\n      dup4\n        /* \"#utility.yul\":2117:2123   */\n      dup4\n        /* \"#utility.yul\":2111:2124   */\n      mload\n        /* \"#utility.yul\":2093:2131   */\n      tag_706\n      jump\t// in\n    tag_741:\n        /* \"#utility.yul\":2189:2201   */\n      swap9\n      dup5\n      add\n      swap9\n        /* \"#utility.yul\":2085:2131   */\n      swap3\n      pop\n        /* \"#utility.yul\":2154:2169   */\n      swap1\n      dup4\n      add\n      swap1\n        /* \"#utility.yul\":2002:2003   */\n      0x01\n        /* \"#utility.yul\":1995:2004   */\n      add\n        /* \"#utility.yul\":1966:2211   */\n      jump(tag_738)\n    tag_740:\n      pop\n        /* \"#utility.yul\":2227:2231   */\n      swap1\n      swap8\n        /* \"#utility.yul\":1645:2237   */\n      swap7\n      pop\n      pop\n      pop\n      pop\n      pop\n      pop\n      pop\n      jump\t// out\n        /* \"#utility.yul\":2242:2677   */\n    tag_708:\n        /* \"#utility.yul\":2295:2298   */\n      0x00\n        /* \"#utility.yul\":2333:2338   */\n      dup2\n        /* \"#utility.yul\":2327:2339   */\n      mload\n        /* \"#utility.yul\":2360:2366   */\n      dup1\n        /* \"#utility.yul\":2355:2358   */\n      dup5\n        /* \"#utility.yul\":2348:2367   */\n      mstore\n        /* \"#utility.yul\":2386:2390   */\n      0x20\n        /* \"#utility.yul\":2415:2417   */\n      dup1\n        /* \"#utility.yul\":2410:2413   */\n      dup6\n        /* \"#utility.yul\":2406:2418   */\n      add\n        /* \"#utility.yul\":2399:2418   */\n      swap5\n      pop\n        /* \"#utility.yul\":2452:2454   */\n      dup1\n        /* \"#utility.yul\":2445:2450   */\n      dup5\n        /* \"#utility.yul\":2441:2455   */\n      add\n        /* \"#utility.yul\":2473:2474   */\n      0x00\n        /* \"#utility.yul\":2483:2652   */\n    tag_743:\n        /* \"#utility.yul\":2497:2503   */\n      dup4\n        /* \"#utility.yul\":2494:2495   */\n      dup2\n        /* \"#utility.yul\":2491:2504   */\n      lt\n        /* \"#utility.yul\":2483:2652   */\n      iszero\n      tag_745\n      jumpi\n        /* \"#utility.yul\":2558:2571   */\n      dup2\n      mload\n        /* \"#utility.yul\":2546:2572   */\n      dup8\n      mstore\n        /* \"#utility.yul\":2592:2604   */\n      swap6\n      dup3\n      add\n      swap6\n        /* \"#utility.yul\":2627:2642   */\n      swap1\n      dup3\n      add\n      swap1\n        /* \"#utility.yul\":2519:2520   */\n      0x01\n        /* \"#utility.yul\":2512:2521   */\n      add\n        /* \"#utility.yul\":2483:2652   */\n      jump(tag_743)\n    tag_745:\n      pop\n        /* \"#utility.yul\":2668:2671   */\n      swap5\n      swap6\n        /* \"#utility.yul\":2242:2677   */\n      swap5\n      pop\n      pop\n      pop\n      pop\n      pop\n      jump\t// out\n        /* \"#utility.yul\":2791:4077   */\n    tag_710:\n        /* \"#utility.yul\":2901:2913   */\n      dup1\n      mload\n        /* \"#utility.yul\":1088:1101   */\n      iszero\n        /* \"#utility.yul\":1081:1102   */\n      iszero\n        /* \"#utility.yul\":1069:1103   */\n      dup3\n      mstore\n        /* \"#utility.yul\":2842:2845   */\n      0x00\n        /* \"#utility.yul\":2870:2876   */\n      0x0160\n        /* \"#utility.yul\":2965:2969   */\n      0x20\n        /* \"#utility.yul\":2958:2963   */\n      dup4\n        /* \"#utility.yul\":2954:2970   */\n      add\n        /* \"#utility.yul\":2948:2971   */\n      mload\n        /* \"#utility.yul\":3003:3005   */\n      dup2\n        /* \"#utility.yul\":2996:3000   */\n      0x20\n        /* \"#utility.yul\":2991:2994   */\n      dup7\n        /* \"#utility.yul\":2987:3001   */\n      add\n        /* \"#utility.yul\":2980:3006   */\n      mstore\n        /* \"#utility.yul\":3027:3072   */\n      tag_749\n        /* \"#utility.yul\":3068:3070   */\n      dup3\n        /* \"#utility.yul\":3063:3066   */\n      dup7\n        /* \"#utility.yul\":3059:3071   */\n      add\n        /* \"#utility.yul\":3045:3057   */\n      dup3\n        /* \"#utility.yul\":3027:3072   */\n      tag_706\n      jump\t// in\n    tag_749:\n        /* \"#utility.yul\":3015:3072   */\n      swap2\n      pop\n      pop\n        /* \"#utility.yul\":3120:3124   */\n      0x40\n        /* \"#utility.yul\":3113:3118   */\n      dup4\n        /* \"#utility.yul\":3109:3125   */\n      add\n        /* \"#utility.yul\":3103:3126   */\n      mload\n        /* \"#utility.yul\":3168:3171   */\n      dup5\n        /* \"#utility.yul\":3162:3166   */\n      dup3\n        /* \"#utility.yul\":3158:3172   */\n      sub\n        /* \"#utility.yul\":3151:3155   */\n      0x40\n        /* \"#utility.yul\":3146:3149   */\n      dup7\n        /* \"#utility.yul\":3142:3156   */\n      add\n        /* \"#utility.yul\":3135:3173   */\n      mstore\n        /* \"#utility.yul\":3196:3245   */\n      tag_750\n        /* \"#utility.yul\":3240:3244   */\n      dup3\n        /* \"#utility.yul\":3224:3238   */\n      dup3\n        /* \"#utility.yul\":3196:3245   */\n      tag_707\n      jump\t// in\n    tag_750:\n        /* \"#utility.yul\":3182:3245   */\n      swap2\n      pop\n      pop\n        /* \"#utility.yul\":3293:3297   */\n      0x60\n        /* \"#utility.yul\":3286:3291   */\n      dup4\n        /* \"#utility.yul\":3282:3298   */\n      add\n        /* \"#utility.yul\":3276:3299   */\n      mload\n        /* \"#utility.yul\":3343:3346   */\n      dup5\n        /* \"#utility.yul\":3335:3341   */\n      dup3\n        /* \"#utility.yul\":3331:3347   */\n      sub\n        /* \"#utility.yul\":3324:3328   */\n      0x60\n        /* \"#utility.yul\":3319:3322   */\n      dup7\n        /* \"#utility.yul\":3315:3329   */\n      add\n        /* \"#utility.yul\":3308:3348   */\n      mstore\n        /* \"#utility.yul\":3371:3423   */\n      tag_751\n        /* \"#utility.yul\":3416:3422   */\n      dup3\n        /* \"#utility.yul\":3400:3414   */\n      dup3\n        /* \"#utility.yul\":3371:3423   */\n      tag_708\n      jump\t// in\n    tag_751:\n        /* \"#utility.yul\":3357:3423   */\n      swap2\n      pop\n      pop\n        /* \"#utility.yul\":3471:3475   */\n      0x80\n        /* \"#utility.yul\":3464:3469   */\n      dup4\n        /* \"#utility.yul\":3460:3476   */\n      add\n        /* \"#utility.yul\":3454:3477   */\n      mload\n        /* \"#utility.yul\":3486:3536   */\n      tag_752\n        /* \"#utility.yul\":3530:3534   */\n      0x80\n        /* \"#utility.yul\":3525:3528   */\n      dup7\n        /* \"#utility.yul\":3521:3535   */\n      add\n        /* \"#utility.yul\":3505:3519   */\n      dup3\n      sub(shl(0xa0, 0x01), 0x01)\n        /* \"#utility.yul\":2748:2779   */\n      and\n        /* \"#utility.yul\":2736:2780   */\n      swap1\n      mstore\n        /* \"#utility.yul\":2682:2786   */\n      jump\n        /* \"#utility.yul\":3486:3536   */\n    tag_752:\n      pop\n        /* \"#utility.yul\":3584:3588   */\n      0xa0\n        /* \"#utility.yul\":3577:3582   */\n      dup4\n        /* \"#utility.yul\":3573:3589   */\n      add\n        /* \"#utility.yul\":3567:3590   */\n      mload\n        /* \"#utility.yul\":3599:3649   */\n      tag_753\n        /* \"#utility.yul\":3643:3647   */\n      0xa0\n        /* \"#utility.yul\":3638:3641   */\n      dup7\n        /* \"#utility.yul\":3634:3648   */\n      add\n        /* \"#utility.yul\":3618:3632   */\n      dup3\n      sub(shl(0xa0, 0x01), 0x01)\n        /* \"#utility.yul\":2748:2779   */\n      and\n        /* \"#utility.yul\":2736:2780   */\n      swap1\n      mstore\n        /* \"#utility.yul\":2682:2786   */\n      jump\n        /* \"#utility.yul\":3599:3649   */\n    tag_753:\n      pop\n        /* \"#utility.yul\":3698:3702   */\n      0xc0\n        /* \"#utility.yul\":3691:3696   */\n      dup4\n        /* \"#utility.yul\":3687:3703   */\n      add\n        /* \"#utility.yul\":3681:3704   */\n      mload\n        /* \"#utility.yul\":3674:3678   */\n      0xc0\n        /* \"#utility.yul\":3669:3672   */\n      dup6\n        /* \"#utility.yul\":3665:3679   */\n      add\n        /* \"#utility.yul\":3658:3705   */\n      mstore\n        /* \"#utility.yul\":3753:3757   */\n      0xe0\n        /* \"#utility.yul\":3746:3751   */\n      dup4\n        /* \"#utility.yul\":3742:3758   */\n      add\n        /* \"#utility.yul\":3736:3759   */\n      mload\n        /* \"#utility.yul\":3768:3818   */\n      tag_754\n        /* \"#utility.yul\":3812:3816   */\n      0xe0\n        /* \"#utility.yul\":3807:3810   */\n      dup7\n        /* \"#utility.yul\":3803:3817   */\n      add\n        /* \"#utility.yul\":3787:3801   */\n      dup3\n      sub(shl(0xa0, 0x01), 0x01)\n        /* \"#utility.yul\":2748:2779   */\n      and\n        /* \"#utility.yul\":2736:2780   */\n      swap1\n      mstore\n        /* \"#utility.yul\":2682:2786   */\n      jump\n        /* \"#utility.yul\":3768:3818   */\n    tag_754:\n      pop\n        /* \"#utility.yul\":3837:3843   */\n      0x0100\n        /* \"#utility.yul\":3879:3893   */\n      dup4\n      dup2\n      add\n        /* \"#utility.yul\":3873:3894   */\n      mload\n        /* \"#utility.yul\":3859:3871   */\n      swap1\n      dup6\n      add\n        /* \"#utility.yul\":3852:3895   */\n      mstore\n        /* \"#utility.yul\":3914:3920   */\n      0x0120\n        /* \"#utility.yul\":3956:3970   */\n      dup1\n      dup5\n      add\n        /* \"#utility.yul\":3950:3971   */\n      mload\n        /* \"#utility.yul\":3936:3948   */\n      swap1\n      dup6\n      add\n        /* \"#utility.yul\":3929:3972   */\n      mstore\n        /* \"#utility.yul\":3991:3997   */\n      0x0140\n        /* \"#utility.yul\":4033:4047   */\n      swap3\n      dup4\n      add\n        /* \"#utility.yul\":4027:4048   */\n      mload\n        /* \"#utility.yul\":4013:4025   */\n      swap3\n      swap1\n      swap4\n      add\n        /* \"#utility.yul\":4006:4049   */\n      swap2\n      swap1\n      swap2\n      mstore\n      pop\n        /* \"#utility.yul\":4065:4071   */\n      swap1\n        /* \"#utility.yul\":2791:4077   */\n      jump\t// out\n        /* \"#utility.yul\":4082:4924   */\n    tag_45:\n        /* \"#utility.yul\":4274:4278   */\n      0x00\n        /* \"#utility.yul\":4303:4305   */\n      0x20\n        /* \"#utility.yul\":4343:4345   */\n      dup1\n        /* \"#utility.yul\":4332:4341   */\n      dup4\n        /* \"#utility.yul\":4328:4346   */\n      add\n        /* \"#utility.yul\":4373:4375   */\n      dup2\n        /* \"#utility.yul\":4362:4371   */\n      dup5\n        /* \"#utility.yul\":4355:4376   */\n      mstore\n        /* \"#utility.yul\":4396:4402   */\n      dup1\n        /* \"#utility.yul\":4431:4437   */\n      dup6\n        /* \"#utility.yul\":4425:4438   */\n      mload\n        /* \"#utility.yul\":4462:4468   */\n      dup1\n        /* \"#utility.yul\":4454:4460   */\n      dup4\n        /* \"#utility.yul\":4447:4469   */\n      mstore\n        /* \"#utility.yul\":4500:4502   */\n      0x40\n        /* \"#utility.yul\":4489:4498   */\n      dup7\n        /* \"#utility.yul\":4485:4503   */\n      add\n        /* \"#utility.yul\":4478:4503   */\n      swap2\n      pop\n        /* \"#utility.yul\":4562:4564   */\n      0x40\n        /* \"#utility.yul\":4552:4558   */\n      dup2\n        /* \"#utility.yul\":4549:4550   */\n      0x05\n        /* \"#utility.yul\":4545:4559   */\n      shl\n        /* \"#utility.yul\":4534:4543   */\n      dup8\n        /* \"#utility.yul\":4530:4560   */\n      add\n        /* \"#utility.yul\":4526:4565   */\n      add\n        /* \"#utility.yul\":4512:4565   */\n      swap3\n      pop\n        /* \"#utility.yul\":4600:4602   */\n      dup4\n        /* \"#utility.yul\":4592:4598   */\n      dup8\n        /* \"#utility.yul\":4588:4603   */\n      add\n        /* \"#utility.yul\":4621:4622   */\n      0x00\n        /* \"#utility.yul\":4631:4895   */\n    tag_756:\n        /* \"#utility.yul\":4645:4651   */\n      dup3\n        /* \"#utility.yul\":4642:4643   */\n      dup2\n        /* \"#utility.yul\":4639:4652   */\n      lt\n        /* \"#utility.yul\":4631:4895   */\n      iszero\n      tag_758\n      jumpi\n        /* \"#utility.yul\":4738:4740   */\n      0x3f\n        /* \"#utility.yul\":4734:4741   */\n      not\n        /* \"#utility.yul\":4722:4731   */\n      dup9\n        /* \"#utility.yul\":4714:4720   */\n      dup7\n        /* \"#utility.yul\":4710:4732   */\n      sub\n        /* \"#utility.yul\":4706:4742   */\n      add\n        /* \"#utility.yul\":4701:4704   */\n      dup5\n        /* \"#utility.yul\":4694:4743   */\n      mstore\n        /* \"#utility.yul\":4766:4815   */\n      tag_759\n        /* \"#utility.yul\":4808:4814   */\n      dup6\n        /* \"#utility.yul\":4799:4805   */\n      dup4\n        /* \"#utility.yul\":4793:4806   */\n      mload\n        /* \"#utility.yul\":4766:4815   */\n      tag_710\n      jump\t// in\n    tag_759:\n        /* \"#utility.yul\":4756:4815   */\n      swap5\n      pop\n        /* \"#utility.yul\":4873:4885   */\n      swap3\n      dup6\n      add\n      swap3\n        /* \"#utility.yul\":4838:4853   */\n      swap1\n      dup6\n      add\n      swap1\n        /* \"#utility.yul\":4667:4668   */\n      0x01\n        /* \"#utility.yul\":4660:4669   */\n      add\n        /* \"#utility.yul\":4631:4895   */\n      jump(tag_756)\n    tag_758:\n      pop\n        /* \"#utility.yul\":4912:4918   */\n      swap3\n      swap8\n        /* \"#utility.yul\":4082:4924   */\n      swap7\n      pop\n      pop\n      pop\n      pop\n      pop\n      pop\n      pop\n      jump\t// out\n        /* \"#utility.yul\":4929:5177   */\n    tag_51:\n        /* \"#utility.yul\":4997:5003   */\n      0x00\n        /* \"#utility.yul\":5005:5011   */\n      dup1\n        /* \"#utility.yul\":5058:5060   */\n      0x40\n        /* \"#utility.yul\":5046:5055   */\n      dup4\n        /* \"#utility.yul\":5037:5044   */\n      dup6\n        /* \"#utility.yul\":5033:5056   */\n      sub\n        /* \"#utility.yul\":5029:5061   */\n      slt\n        /* \"#utility.yul\":5026:5078   */\n      iszero\n      tag_761\n      jumpi\n        /* \"#utility.yul\":5074:5075   */\n      0x00\n        /* \"#utility.yul\":5071:5072   */\n      dup1\n        /* \"#utility.yul\":5064:5076   */\n      revert\n        /* \"#utility.yul\":5026:5078   */\n    tag_761:\n      pop\n      pop\n        /* \"#utility.yul\":5097:5120   */\n      dup1\n      calldataload\n      swap3\n        /* \"#utility.yul\":5167:5169   */\n      0x20\n        /* \"#utility.yul\":5152:5170   */\n      swap1\n      swap2\n      add\n        /* \"#utility.yul\":5139:5171   */\n      calldataload\n      swap2\n      pop\n        /* \"#utility.yul\":4929:5177   */\n      jump\t// out\n        /* \"#utility.yul\":5611:6501   */\n    tag_65:\n        /* \"#utility.yul\":5941:5945   */\n      0x00\n        /* \"#utility.yul\":5970:5973   */\n      0x0120\n        /* \"#utility.yul\":6014:6020   */\n      dup12\n        /* \"#utility.yul\":6007:6021   */\n      iszero\n        /* \"#utility.yul\":6000:6022   */\n      iszero\n        /* \"#utility.yul\":5989:5998   */\n      dup4\n        /* \"#utility.yul\":5982:6023   */\n      mstore\n        /* \"#utility.yul\":6059:6061   */\n      dup1\n        /* \"#utility.yul\":6054:6056   */\n      0x20\n        /* \"#utility.yul\":6043:6052   */\n      dup5\n        /* \"#utility.yul\":6039:6057   */\n      add\n        /* \"#utility.yul\":6032:6062   */\n      mstore\n        /* \"#utility.yul\":6079:6124   */\n      tag_765\n        /* \"#utility.yul\":6120:6122   */\n      dup2\n        /* \"#utility.yul\":6109:6118   */\n      dup5\n        /* \"#utility.yul\":6105:6123   */\n      add\n        /* \"#utility.yul\":6097:6103   */\n      dup13\n        /* \"#utility.yul\":6079:6124   */\n      tag_706\n      jump\t// in\n    tag_765:\n      sub(shl(0xa0, 0x01), 0x01)\n        /* \"#utility.yul\":6198:6213   */\n      swap11\n      dup12\n      and\n        /* \"#utility.yul\":6193:6195   */\n      0x40\n        /* \"#utility.yul\":6178:6196   */\n      dup6\n      add\n        /* \"#utility.yul\":6171:6214   */\n      mstore\n        /* \"#utility.yul\":6250:6265   */\n      swap9\n      dup11\n      and\n        /* \"#utility.yul\":6245:6247   */\n      0x60\n        /* \"#utility.yul\":6230:6248   */\n      dup5\n      add\n        /* \"#utility.yul\":6223:6266   */\n      mstore\n      pop\n      pop\n        /* \"#utility.yul\":6297:6300   */\n      0x80\n        /* \"#utility.yul\":6282:6301   */\n      dup2\n      add\n        /* \"#utility.yul\":6275:6310   */\n      swap6\n      swap1\n      swap6\n      mstore\n        /* \"#utility.yul\":6347:6362   */\n      swap3\n      swap1\n      swap6\n      and\n        /* \"#utility.yul\":6151:6154   */\n      0xa0\n        /* \"#utility.yul\":6326:6345   */\n      dup5\n      add\n        /* \"#utility.yul\":6319:6363   */\n      mstore\n        /* \"#utility.yul\":6394:6397   */\n      0xc0\n        /* \"#utility.yul\":6379:6398   */\n      dup4\n      add\n        /* \"#utility.yul\":6372:6407   */\n      mstore\n        /* \"#utility.yul\":6438:6441   */\n      0xe0\n        /* \"#utility.yul\":6423:6442   */\n      dup3\n      add\n        /* \"#utility.yul\":6416:6451   */\n      swap4\n      swap1\n      swap4\n      mstore\n        /* \"#utility.yul\":6482:6485   */\n      0x0100\n        /* \"#utility.yul\":6467:6486   */\n      add\n        /* \"#utility.yul\":6460:6495   */\n      swap2\n      swap1\n      swap2\n      mstore\n        /* \"#utility.yul\":6071:6124   */\n      swap3\n        /* \"#utility.yul\":5611:6501   */\n      swap2\n      pop\n      pop\n      jump\t// out\n        /* \"#utility.yul\":6506:6765   */\n    tag_75:\n        /* \"#utility.yul\":6685:6687   */\n      0x20\n        /* \"#utility.yul\":6674:6683   */\n      dup2\n        /* \"#utility.yul\":6667:6688   */\n      mstore\n        /* \"#utility.yul\":6648:6652   */\n      0x00\n        /* \"#utility.yul\":6705:6759   */\n      tag_767\n        /* \"#utility.yul\":6755:6757   */\n      0x20\n        /* \"#utility.yul\":6744:6753   */\n      dup4\n        /* \"#utility.yul\":6740:6758   */\n      add\n        /* \"#utility.yul\":6732:6738   */\n      dup5\n        /* \"#utility.yul\":6705:6759   */\n      tag_710\n      jump\t// in\n    tag_767:\n        /* \"#utility.yul\":6697:6759   */\n      swap4\n        /* \"#utility.yul\":6506:6765   */\n      swap3\n      pop\n      pop\n      pop\n      jump\t// out\n        /* \"#utility.yul\":6770:6897   */\n    tag_711:\n        /* \"#utility.yul\":6831:6841   */\n      0x4e487b71\n        /* \"#utility.yul\":6826:6829   */\n      0xe0\n        /* \"#utility.yul\":6822:6842   */\n      shl\n        /* \"#utility.yul\":6819:6820   */\n      0x00\n        /* \"#utility.yul\":6812:6843   */\n      mstore\n        /* \"#utility.yul\":6862:6866   */\n      0x41\n        /* \"#utility.yul\":6859:6860   */\n      0x04\n        /* \"#utility.yul\":6852:6867   */\n      mstore\n        /* \"#utility.yul\":6886:6890   */\n      0x24\n        /* \"#utility.yul\":6883:6884   */\n      0x00\n        /* \"#utility.yul\":6876:6891   */\n      revert\n        /* \"#utility.yul\":6902:7621   */\n    tag_712:\n        /* \"#utility.yul\":6945:6950   */\n      0x00\n        /* \"#utility.yul\":6998:7001   */\n      dup3\n        /* \"#utility.yul\":6991:6995   */\n      0x1f\n        /* \"#utility.yul\":6983:6989   */\n      dup4\n        /* \"#utility.yul\":6979:6996   */\n      add\n        /* \"#utility.yul\":6975:7002   */\n      slt\n        /* \"#utility.yul\":6965:7020   */\n      tag_770\n      jumpi\n        /* \"#utility.yul\":7016:7017   */\n      0x00\n        /* \"#utility.yul\":7013:7014   */\n      dup1\n        /* \"#utility.yul\":7006:7018   */\n      revert\n        /* \"#utility.yul\":6965:7020   */\n    tag_770:\n        /* \"#utility.yul\":7052:7058   */\n      dup2\n        /* \"#utility.yul\":7039:7059   */\n      calldataload\n        /* \"#utility.yul\":7078:7096   */\n      0xffffffffffffffff\n        /* \"#utility.yul\":7115:7117   */\n      dup1\n        /* \"#utility.yul\":7111:7113   */\n      dup3\n        /* \"#utility.yul\":7108:7118   */\n      gt\n        /* \"#utility.yul\":7105:7141   */\n      iszero\n      tag_772\n      jumpi\n        /* \"#utility.yul\":7121:7139   */\n      tag_772\n      tag_711\n      jump\t// in\n    tag_772:\n        /* \"#utility.yul\":7196:7198   */\n      0x40\n        /* \"#utility.yul\":7190:7199   */\n      mload\n        /* \"#utility.yul\":7164:7166   */\n      0x1f\n        /* \"#utility.yul\":7250:7263   */\n      dup4\n      add\n      not(0x1f)\n        /* \"#utility.yul\":7246:7268   */\n      swap1\n      dup2\n      and\n        /* \"#utility.yul\":7270:7272   */\n      0x3f\n        /* \"#utility.yul\":7242:7273   */\n      add\n        /* \"#utility.yul\":7238:7278   */\n      and\n        /* \"#utility.yul\":7226:7279   */\n      dup2\n      add\n      swap1\n        /* \"#utility.yul\":7294:7312   */\n      dup3\n      dup3\n      gt\n        /* \"#utility.yul\":7314:7336   */\n      dup2\n      dup4\n      lt\n        /* \"#utility.yul\":7291:7337   */\n      or\n        /* \"#utility.yul\":7288:7360   */\n      iszero\n      tag_774\n      jumpi\n        /* \"#utility.yul\":7340:7358   */\n      tag_774\n      tag_711\n      jump\t// in\n    tag_774:\n        /* \"#utility.yul\":7380:7390   */\n      dup2\n        /* \"#utility.yul\":7376:7378   */\n      0x40\n        /* \"#utility.yul\":7369:7391   */\n      mstore\n        /* \"#utility.yul\":7415:7417   */\n      dup4\n        /* \"#utility.yul\":7407:7413   */\n      dup2\n        /* \"#utility.yul\":7400:7418   */\n      mstore\n        /* \"#utility.yul\":7461:7464   */\n      dup7\n        /* \"#utility.yul\":7454:7458   */\n      0x20\n        /* \"#utility.yul\":7449:7451   */\n      dup6\n        /* \"#utility.yul\":7441:7447   */\n      dup9\n        /* \"#utility.yul\":7437:7452   */\n      add\n        /* \"#utility.yul\":7433:7459   */\n      add\n        /* \"#utility.yul\":7430:7465   */\n      gt\n        /* \"#utility.yul\":7427:7482   */\n      iszero\n      tag_775\n      jumpi\n        /* \"#utility.yul\":7478:7479   */\n      0x00\n        /* \"#utility.yul\":7475:7476   */\n      dup1\n        /* \"#utility.yul\":7468:7480   */\n      revert\n        /* \"#utility.yul\":7427:7482   */\n    tag_775:\n        /* \"#utility.yul\":7542:7544   */\n      dup4\n        /* \"#utility.yul\":7535:7539   */\n      0x20\n        /* \"#utility.yul\":7527:7533   */\n      dup8\n        /* \"#utility.yul\":7523:7540   */\n      add\n        /* \"#utility.yul\":7516:7520   */\n      0x20\n        /* \"#utility.yul\":7508:7514   */\n      dup4\n        /* \"#utility.yul\":7504:7521   */\n      add\n        /* \"#utility.yul\":7491:7545   */\n      calldatacopy\n        /* \"#utility.yul\":7589:7590   */\n      0x00\n        /* \"#utility.yul\":7582:7586   */\n      0x20\n        /* \"#utility.yul\":7577:7579   */\n      dup6\n        /* \"#utility.yul\":7569:7575   */\n      dup4\n        /* \"#utility.yul\":7565:7580   */\n      add\n        /* \"#utility.yul\":7561:7587   */\n      add\n        /* \"#utility.yul\":7554:7591   */\n      mstore\n        /* \"#utility.yul\":7609:7615   */\n      dup1\n        /* \"#utility.yul\":7600:7615   */\n      swap5\n      pop\n      pop\n      pop\n      pop\n      pop\n        /* \"#utility.yul\":6902:7621   */\n      swap3\n      swap2\n      pop\n      pop\n      jump\t// out\n        /* \"#utility.yul\":7626:8169   */\n    tag_81:\n        /* \"#utility.yul\":7714:7720   */\n      0x00\n        /* \"#utility.yul\":7722:7728   */\n      dup1\n        /* \"#utility.yul\":7775:7777   */\n      0x40\n        /* \"#utility.yul\":7763:7772   */\n      dup4\n        /* \"#utility.yul\":7754:7761   */\n      dup6\n        /* \"#utility.yul\":7750:7773   */\n      sub\n        /* \"#utility.yul\":7746:7778   */\n      slt\n        /* \"#utility.yul\":7743:7795   */\n      iszero\n      tag_777\n      jumpi\n        /* \"#utility.yul\":7791:7792   */\n      0x00\n        /* \"#utility.yul\":7788:7789   */\n      dup1\n        /* \"#utility.yul\":7781:7793   */\n      revert\n        /* \"#utility.yul\":7743:7795   */\n    tag_777:\n        /* \"#utility.yul\":7831:7840   */\n      dup3\n        /* \"#utility.yul\":7818:7841   */\n      calldataload\n        /* \"#utility.yul\":7860:7878   */\n      0xffffffffffffffff\n        /* \"#utility.yul\":7901:7903   */\n      dup1\n        /* \"#utility.yul\":7893:7899   */\n      dup3\n        /* \"#utility.yul\":7890:7904   */\n      gt\n        /* \"#utility.yul\":7887:7921   */\n      iszero\n      tag_778\n      jumpi\n        /* \"#utility.yul\":7917:7918   */\n      0x00\n        /* \"#utility.yul\":7914:7915   */\n      dup1\n        /* \"#utility.yul\":7907:7919   */\n      revert\n        /* \"#utility.yul\":7887:7921   */\n    tag_778:\n        /* \"#utility.yul\":7940:7990   */\n      tag_779\n        /* \"#utility.yul\":7982:7989   */\n      dup7\n        /* \"#utility.yul\":7973:7979   */\n      dup4\n        /* \"#utility.yul\":7962:7971   */\n      dup8\n        /* \"#utility.yul\":7958:7980   */\n      add\n        /* \"#utility.yul\":7940:7990   */\n      tag_712\n      jump\t// in\n    tag_779:\n        /* \"#utility.yul\":7930:7990   */\n      swap4\n      pop\n        /* \"#utility.yul\":8043:8045   */\n      0x20\n        /* \"#utility.yul\":8032:8041   */\n      dup6\n        /* \"#utility.yul\":8028:8046   */\n      add\n        /* \"#utility.yul\":8015:8047   */\n      calldataload\n        /* \"#utility.yul\":7999:8047   */\n      swap2\n      pop\n        /* \"#utility.yul\":8072:8074   */\n      dup1\n        /* \"#utility.yul\":8062:8070   */\n      dup3\n        /* \"#utility.yul\":8059:8075   */\n      gt\n        /* \"#utility.yul\":8056:8092   */\n      iszero\n      tag_780\n      jumpi\n        /* \"#utility.yul\":8088:8089   */\n      0x00\n        /* \"#utility.yul\":8085:8086   */\n      dup1\n        /* \"#utility.yul\":8078:8090   */\n      revert\n        /* \"#utility.yul\":8056:8092   */\n    tag_780:\n      pop\n        /* \"#utility.yul\":8111:8163   */\n      tag_781\n        /* \"#utility.yul\":8155:8162   */\n      dup6\n        /* \"#utility.yul\":8144:8152   */\n      dup3\n        /* \"#utility.yul\":8133:8142   */\n      dup7\n        /* \"#utility.yul\":8129:8153   */\n      add\n        /* \"#utility.yul\":8111:8163   */\n      tag_712\n      jump\t// in\n    tag_781:\n        /* \"#utility.yul\":8101:8163   */\n      swap2\n      pop\n      pop\n        /* \"#utility.yul\":7626:8169   */\n      swap3\n      pop\n      swap3\n      swap1\n      pop\n      jump\t// out\n        /* \"#utility.yul\":8366:9169   */\n    tag_92:\n        /* \"#utility.yul\":8528:8532   */\n      0x00\n        /* \"#utility.yul\":8557:8559   */\n      0x20\n        /* \"#utility.yul\":8597:8599   */\n      dup1\n        /* \"#utility.yul\":8586:8595   */\n      dup4\n        /* \"#utility.yul\":8582:8600   */\n      add\n        /* \"#utility.yul\":8627:8629   */\n      dup2\n        /* \"#utility.yul\":8616:8625   */\n      dup5\n        /* \"#utility.yul\":8609:8630   */\n      mstore\n        /* \"#utility.yul\":8650:8656   */\n      dup1\n        /* \"#utility.yul\":8685:8691   */\n      dup6\n        /* \"#utility.yul\":8679:8692   */\n      mload\n        /* \"#utility.yul\":8716:8722   */\n      dup1\n        /* \"#utility.yul\":8708:8714   */\n      dup4\n        /* \"#utility.yul\":8701:8723   */\n      mstore\n        /* \"#utility.yul\":8754:8756   */\n      0x40\n        /* \"#utility.yul\":8743:8752   */\n      dup7\n        /* \"#utility.yul\":8739:8757   */\n      add\n        /* \"#utility.yul\":8732:8757   */\n      swap2\n      pop\n        /* \"#utility.yul\":8816:8818   */\n      0x40\n        /* \"#utility.yul\":8806:8812   */\n      dup2\n        /* \"#utility.yul\":8803:8804   */\n      0x05\n        /* \"#utility.yul\":8799:8813   */\n      shl\n        /* \"#utility.yul\":8788:8797   */\n      dup8\n        /* \"#utility.yul\":8784:8814   */\n      add\n        /* \"#utility.yul\":8780:8819   */\n      add\n        /* \"#utility.yul\":8766:8819   */\n      swap3\n      pop\n        /* \"#utility.yul\":8854:8856   */\n      dup4\n        /* \"#utility.yul\":8846:8852   */\n      dup8\n        /* \"#utility.yul\":8842:8857   */\n      add\n        /* \"#utility.yul\":8875:8876   */\n      0x00\n        /* \"#utility.yul\":8885:9140   */\n    tag_784:\n        /* \"#utility.yul\":8899:8905   */\n      dup3\n        /* \"#utility.yul\":8896:8897   */\n      dup2\n        /* \"#utility.yul\":8893:8906   */\n      lt\n        /* \"#utility.yul\":8885:9140   */\n      iszero\n      tag_758\n      jumpi\n        /* \"#utility.yul\":8992:8994   */\n      0x3f\n        /* \"#utility.yul\":8988:8995   */\n      not\n        /* \"#utility.yul\":8976:8985   */\n      dup9\n        /* \"#utility.yul\":8968:8974   */\n      dup7\n        /* \"#utility.yul\":8964:8986   */\n      sub\n        /* \"#utility.yul\":8960:8996   */\n      add\n        /* \"#utility.yul\":8955:8958   */\n      dup5\n        /* \"#utility.yul\":8948:8997   */\n      mstore\n        /* \"#utility.yul\":9020:9060   */\n      tag_787\n        /* \"#utility.yul\":9053:9059   */\n      dup6\n        /* \"#utility.yul\":9044:9050   */\n      dup4\n        /* \"#utility.yul\":9038:9051   */\n      mload\n        /* \"#utility.yul\":9020:9060   */\n      tag_706\n      jump\t// in\n    tag_787:\n        /* \"#utility.yul\":9010:9060   */\n      swap5\n      pop\n        /* \"#utility.yul\":9118:9130   */\n      swap3\n      dup6\n      add\n      swap3\n        /* \"#utility.yul\":9083:9098   */\n      swap1\n      dup6\n      add\n      swap1\n        /* \"#utility.yul\":8921:8922   */\n      0x01\n        /* \"#utility.yul\":8914:8923   */\n      add\n        /* \"#utility.yul\":8885:9140   */\n      jump(tag_784)\n        /* \"#utility.yul\":9524:9708   */\n    tag_110:\n        /* \"#utility.yul\":9594:9600   */\n      0x00\n        /* \"#utility.yul\":9647:9649   */\n      0x20\n        /* \"#utility.yul\":9635:9644   */\n      dup3\n        /* \"#utility.yul\":9626:9633   */\n      dup5\n        /* \"#utility.yul\":9622:9645   */\n      sub\n        /* \"#utility.yul\":9618:9650   */\n      slt\n        /* \"#utility.yul\":9615:9667   */\n      iszero\n      tag_790\n      jumpi\n        /* \"#utility.yul\":9663:9664   */\n      0x00\n        /* \"#utility.yul\":9660:9661   */\n      dup1\n        /* \"#utility.yul\":9653:9665   */\n      revert\n        /* \"#utility.yul\":9615:9667   */\n    tag_790:\n      pop\n        /* \"#utility.yul\":9686:9702   */\n      mload\n      swap2\n        /* \"#utility.yul\":9524:9708   */\n      swap1\n      pop\n      jump\t// out\n        /* \"#utility.yul\":10415:10542   */\n    tag_713:\n        /* \"#utility.yul\":10476:10486   */\n      0x4e487b71\n        /* \"#utility.yul\":10471:10474   */\n      0xe0\n        /* \"#utility.yul\":10467:10487   */\n      shl\n        /* \"#utility.yul\":10464:10465   */\n      0x00\n        /* \"#utility.yul\":10457:10488   */\n      mstore\n        /* \"#utility.yul\":10507:10511   */\n      0x11\n        /* \"#utility.yul\":10504:10505   */\n      0x04\n        /* \"#utility.yul\":10497:10512   */\n      mstore\n        /* \"#utility.yul\":10531:10535   */\n      0x24\n        /* \"#utility.yul\":10528:10529   */\n      0x00\n        /* \"#utility.yul\":10521:10536   */\n      revert\n        /* \"#utility.yul\":10547:10715   */\n    tag_118:\n        /* \"#utility.yul\":10620:10629   */\n      dup1\n      dup3\n      mul\n        /* \"#utility.yul\":10651:10660   */\n      dup2\n      iszero\n        /* \"#utility.yul\":10668:10683   */\n      dup3\n      dup3\n      div\n        /* \"#utility.yul\":10662:10684   */\n      dup5\n      eq\n        /* \"#utility.yul\":10648:10685   */\n      or\n        /* \"#utility.yul\":10638:10709   */\n      tag_435\n      jumpi\n        /* \"#utility.yul\":10689:10707   */\n      tag_435\n      tag_713\n      jump\t// in\n        /* \"#utility.yul\":10720:10937   */\n    tag_120:\n        /* \"#utility.yul\":10760:10761   */\n      0x00\n        /* \"#utility.yul\":10786:10787   */\n      dup3\n        /* \"#utility.yul\":10776:10908   */\n      tag_798\n      jumpi\n        /* \"#utility.yul\":10830:10840   */\n      0x4e487b71\n        /* \"#utility.yul\":10825:10828   */\n      0xe0\n        /* \"#utility.yul\":10821:10841   */\n      shl\n        /* \"#utility.yul\":10818:10819   */\n      0x00\n        /* \"#utility.yul\":10811:10842   */\n      mstore\n        /* \"#utility.yul\":10865:10869   */\n      0x12\n        /* \"#utility.yul\":10862:10863   */\n      0x04\n        /* \"#utility.yul\":10855:10870   */\n      mstore\n        /* \"#utility.yul\":10893:10897   */\n      0x24\n        /* \"#utility.yul\":10890:10891   */\n      0x00\n        /* \"#utility.yul\":10883:10898   */\n      revert\n        /* \"#utility.yul\":10776:10908   */\n    tag_798:\n      pop\n        /* \"#utility.yul\":10922:10931   */\n      div\n      swap1\n        /* \"#utility.yul\":10720:10937   */\n      jump\t// out\n        /* \"#utility.yul\":10942:11070   */\n    tag_124:\n        /* \"#utility.yul\":11009:11018   */\n      dup2\n      dup2\n      sub\n        /* \"#utility.yul\":11030:11041   */\n      dup2\n      dup2\n      gt\n        /* \"#utility.yul\":11027:11064   */\n      iszero\n      tag_435\n      jumpi\n        /* \"#utility.yul\":11044:11062   */\n      tag_435\n      tag_713\n      jump\t// in\n        /* \"#utility.yul\":11075:11450   */\n    tag_127:\n      sub(shl(0xa0, 0x01), 0x01)\n        /* \"#utility.yul\":11333:11348   */\n      swap4\n      dup5\n      and\n        /* \"#utility.yul\":11315:11349   */\n      dup2\n      mstore\n        /* \"#utility.yul\":11385:11400   */\n      swap2\n      swap1\n      swap3\n      and\n        /* \"#utility.yul\":11380:11382   */\n      0x20\n        /* \"#utility.yul\":11365:11383   */\n      dup3\n      add\n        /* \"#utility.yul\":11358:11401   */\n      mstore\n        /* \"#utility.yul\":11432:11434   */\n      0x40\n        /* \"#utility.yul\":11417:11435   */\n      dup2\n      add\n        /* \"#utility.yul\":11410:11444   */\n      swap2\n      swap1\n      swap2\n      mstore\n        /* \"#utility.yul\":11265:11267   */\n      0x60\n        /* \"#utility.yul\":11250:11268   */\n      add\n      swap1\n        /* \"#utility.yul\":11075:11450   */\n      jump\t// out\n        /* \"#utility.yul\":11455:11732   */\n    tag_131:\n        /* \"#utility.yul\":11522:11528   */\n      0x00\n        /* \"#utility.yul\":11575:11577   */\n      0x20\n        /* \"#utility.yul\":11563:11572   */\n      dup3\n        /* \"#utility.yul\":11554:11561   */\n      dup5\n        /* \"#utility.yul\":11550:11573   */\n      sub\n        /* \"#utility.yul\":11546:11578   */\n      slt\n        /* \"#utility.yul\":11543:11595   */\n      iszero\n      tag_804\n      jumpi\n        /* \"#utility.yul\":11591:11592   */\n      0x00\n        /* \"#utility.yul\":11588:11589   */\n      dup1\n        /* \"#utility.yul\":11581:11593   */\n      revert\n        /* \"#utility.yul\":11543:11595   */\n    tag_804:\n        /* \"#utility.yul\":11623:11632   */\n      dup2\n        /* \"#utility.yul\":11617:11633   */\n      mload\n        /* \"#utility.yul\":11676:11681   */\n      dup1\n        /* \"#utility.yul\":11669:11682   */\n      iszero\n        /* \"#utility.yul\":11662:11683   */\n      iszero\n        /* \"#utility.yul\":11655:11660   */\n      dup2\n        /* \"#utility.yul\":11652:11684   */\n      eq\n        /* \"#utility.yul\":11642:11702   */\n      tag_767\n      jumpi\n        /* \"#utility.yul\":11698:11699   */\n      0x00\n        /* \"#utility.yul\":11695:11696   */\n      dup1\n        /* \"#utility.yul\":11688:11700   */\n      revert\n        /* \"#utility.yul\":11737:11862   */\n    tag_141:\n        /* \"#utility.yul\":11802:11811   */\n      dup1\n      dup3\n      add\n        /* \"#utility.yul\":11823:11833   */\n      dup1\n      dup3\n      gt\n        /* \"#utility.yul\":11820:11856   */\n      iszero\n      tag_435\n      jumpi\n        /* \"#utility.yul\":11836:11854   */\n      tag_435\n      tag_713\n      jump\t// in\n        /* \"#utility.yul\":11867:12247   */\n    tag_214:\n        /* \"#utility.yul\":11946:11947   */\n      0x01\n        /* \"#utility.yul\":11942:11954   */\n      dup2\n      dup2\n      shr\n      swap1\n        /* \"#utility.yul\":11989:12001   */\n      dup3\n      and\n      dup1\n        /* \"#utility.yul\":12010:12071   */\n      tag_810\n      jumpi\n        /* \"#utility.yul\":12064:12068   */\n      0x7f\n        /* \"#utility.yul\":12056:12062   */\n      dup3\n        /* \"#utility.yul\":12052:12069   */\n      and\n        /* \"#utility.yul\":12042:12069   */\n      swap2\n      pop\n        /* \"#utility.yul\":12010:12071   */\n    tag_810:\n        /* \"#utility.yul\":12117:12119   */\n      0x20\n        /* \"#utility.yul\":12109:12115   */\n      dup3\n        /* \"#utility.yul\":12106:12120   */\n      lt\n        /* \"#utility.yul\":12086:12104   */\n      dup2\n        /* \"#utility.yul\":12083:12121   */\n      sub\n        /* \"#utility.yul\":12080:12241   */\n      tag_811\n      jumpi\n        /* \"#utility.yul\":12163:12173   */\n      0x4e487b71\n        /* \"#utility.yul\":12158:12161   */\n      0xe0\n        /* \"#utility.yul\":12154:12174   */\n      shl\n        /* \"#utility.yul\":12151:12152   */\n      0x00\n        /* \"#utility.yul\":12144:12175   */\n      mstore\n        /* \"#utility.yul\":12198:12202   */\n      0x22\n        /* \"#utility.yul\":12195:12196   */\n      0x04\n        /* \"#utility.yul\":12188:12203   */\n      mstore\n        /* \"#utility.yul\":12226:12230   */\n      0x24\n        /* \"#utility.yul\":12223:12224   */\n      0x00\n        /* \"#utility.yul\":12216:12231   */\n      revert\n        /* \"#utility.yul\":12080:12241   */\n    tag_811:\n      pop\n        /* \"#utility.yul\":11867:12247   */\n      swap2\n      swap1\n      pop\n      jump\t// out\n        /* \"#utility.yul\":12378:12923   */\n    tag_715:\n        /* \"#utility.yul\":12480:12482   */\n      0x1f\n        /* \"#utility.yul\":12475:12478   */\n      dup3\n        /* \"#utility.yul\":12472:12483   */\n      gt\n        /* \"#utility.yul\":12469:12917   */\n      iszero\n      tag_814\n      jumpi\n        /* \"#utility.yul\":12516:12517   */\n      0x00\n        /* \"#utility.yul\":12541:12546   */\n      dup2\n        /* \"#utility.yul\":12537:12539   */\n      dup2\n        /* \"#utility.yul\":12530:12547   */\n      mstore\n        /* \"#utility.yul\":12586:12590   */\n      0x20\n        /* \"#utility.yul\":12582:12584   */\n      dup2\n        /* \"#utility.yul\":12572:12591   */\n      keccak256\n        /* \"#utility.yul\":12656:12658   */\n      0x1f\n        /* \"#utility.yul\":12644:12654   */\n      dup6\n        /* \"#utility.yul\":12640:12659   */\n      add\n        /* \"#utility.yul\":12637:12638   */\n      0x05\n        /* \"#utility.yul\":12633:12660   */\n      shr\n        /* \"#utility.yul\":12627:12631   */\n      dup2\n        /* \"#utility.yul\":12623:12661   */\n      add\n        /* \"#utility.yul\":12692:12696   */\n      0x20\n        /* \"#utility.yul\":12680:12690   */\n      dup7\n        /* \"#utility.yul\":12677:12697   */\n      lt\n        /* \"#utility.yul\":12674:12721   */\n      iszero\n      tag_815\n      jumpi\n      pop\n        /* \"#utility.yul\":12715:12719   */\n      dup1\n        /* \"#utility.yul\":12674:12721   */\n    tag_815:\n        /* \"#utility.yul\":12770:12772   */\n      0x1f\n        /* \"#utility.yul\":12765:12768   */\n      dup6\n        /* \"#utility.yul\":12761:12773   */\n      add\n        /* \"#utility.yul\":12758:12759   */\n      0x05\n        /* \"#utility.yul\":12754:12774   */\n      shr\n        /* \"#utility.yul\":12748:12752   */\n      dup3\n        /* \"#utility.yul\":12744:12775   */\n      add\n        /* \"#utility.yul\":12734:12775   */\n      swap2\n      pop\n        /* \"#utility.yul\":12825:12907   */\n    tag_816:\n        /* \"#utility.yul\":12843:12845   */\n      dup2\n        /* \"#utility.yul\":12836:12841   */\n      dup2\n        /* \"#utility.yul\":12833:12846   */\n      lt\n        /* \"#utility.yul\":12825:12907   */\n      iszero\n      tag_818\n      jumpi\n        /* \"#utility.yul\":12888:12905   */\n      dup3\n      dup2\n      sstore\n        /* \"#utility.yul\":12869:12870   */\n      0x01\n        /* \"#utility.yul\":12858:12871   */\n      add\n        /* \"#utility.yul\":12825:12907   */\n      jump(tag_816)\n    tag_818:\n        /* \"#utility.yul\":12829:12832   */\n      pop\n      pop\n      pop\n        /* \"#utility.yul\":12469:12917   */\n    tag_814:\n        /* \"#utility.yul\":12378:12923   */\n      pop\n      pop\n      pop\n      jump\t// out\n        /* \"#utility.yul\":13099:14451   */\n    tag_146:\n        /* \"#utility.yul\":13225:13228   */\n      dup2\n        /* \"#utility.yul\":13219:13229   */\n      mload\n        /* \"#utility.yul\":13252:13270   */\n      0xffffffffffffffff\n        /* \"#utility.yul\":13244:13250   */\n      dup2\n        /* \"#utility.yul\":13241:13271   */\n      gt\n        /* \"#utility.yul\":13238:13294   */\n      iszero\n      tag_822\n      jumpi\n        /* \"#utility.yul\":13274:13292   */\n      tag_822\n      tag_711\n      jump\t// in\n    tag_822:\n        /* \"#utility.yul\":13303:13400   */\n      tag_823\n        /* \"#utility.yul\":13393:13399   */\n      dup2\n        /* \"#utility.yul\":13353:13391   */\n      tag_824\n        /* \"#utility.yul\":13385:13389   */\n      dup5\n        /* \"#utility.yul\":13379:13390   */\n      sload\n        /* \"#utility.yul\":13353:13391   */\n      tag_214\n      jump\t// in\n    tag_824:\n        /* \"#utility.yul\":13347:13351   */\n      dup5\n        /* \"#utility.yul\":13303:13400   */\n      tag_715\n      jump\t// in\n    tag_823:\n        /* \"#utility.yul\":13455:13459   */\n      0x20\n      dup1\n        /* \"#utility.yul\":13519:13521   */\n      0x1f\n        /* \"#utility.yul\":13508:13522   */\n      dup4\n      gt\n        /* \"#utility.yul\":13536:13537   */\n      0x01\n        /* \"#utility.yul\":13531:14194   */\n      dup2\n      eq\n      tag_826\n      jumpi\n        /* \"#utility.yul\":14238:14239   */\n      0x00\n        /* \"#utility.yul\":14255:14261   */\n      dup5\n        /* \"#utility.yul\":14252:14341   */\n      iszero\n      tag_827\n      jumpi\n      pop\n        /* \"#utility.yul\":14307:14326   */\n      dup6\n      dup4\n      add\n        /* \"#utility.yul\":14301:14327   */\n      mload\n        /* \"#utility.yul\":14252:14341   */\n    tag_827:\n      not(0x00)\n        /* \"#utility.yul\":13056:13057   */\n      0x03\n        /* \"#utility.yul\":13052:13063   */\n      dup7\n      swap1\n      shl\n        /* \"#utility.yul\":13048:13072   */\n      shr\n        /* \"#utility.yul\":13044:13073   */\n      not\n        /* \"#utility.yul\":13034:13074   */\n      and\n        /* \"#utility.yul\":13080:13081   */\n      0x01\n        /* \"#utility.yul\":13076:13087   */\n      dup6\n      swap1\n      shl\n        /* \"#utility.yul\":13031:13088   */\n      or\n        /* \"#utility.yul\":14354:14435   */\n      dup6\n      sstore\n        /* \"#utility.yul\":13501:14445   */\n      jump(tag_818)\n        /* \"#utility.yul\":13531:14194   */\n    tag_826:\n        /* \"#utility.yul\":12325:12326   */\n      0x00\n        /* \"#utility.yul\":12318:12332   */\n      dup6\n      dup2\n      mstore\n        /* \"#utility.yul\":12362:12366   */\n      0x20\n        /* \"#utility.yul\":12349:12367   */\n      dup2\n      keccak256\n      not(0x1f)\n        /* \"#utility.yul\":13567:13587   */\n      dup7\n      and\n      swap2\n        /* \"#utility.yul\":13685:13921   */\n    tag_830:\n        /* \"#utility.yul\":13699:13706   */\n      dup3\n        /* \"#utility.yul\":13696:13697   */\n      dup2\n        /* \"#utility.yul\":13693:13707   */\n      lt\n        /* \"#utility.yul\":13685:13921   */\n      iszero\n      tag_832\n      jumpi\n        /* \"#utility.yul\":13788:13807   */\n      dup9\n      dup7\n      add\n        /* \"#utility.yul\":13782:13808   */\n      mload\n        /* \"#utility.yul\":13767:13809   */\n      dup3\n      sstore\n        /* \"#utility.yul\":13880:13907   */\n      swap5\n      dup5\n      add\n      swap5\n        /* \"#utility.yul\":13848:13849   */\n      0x01\n        /* \"#utility.yul\":13836:13850   */\n      swap1\n      swap2\n      add\n      swap1\n        /* \"#utility.yul\":13715:13734   */\n      dup5\n      add\n        /* \"#utility.yul\":13685:13921   */\n      jump(tag_830)\n    tag_832:\n        /* \"#utility.yul\":13689:13692   */\n      pop\n        /* \"#utility.yul\":13949:13955   */\n      dup6\n        /* \"#utility.yul\":13940:13947   */\n      dup3\n        /* \"#utility.yul\":13937:13956   */\n      lt\n        /* \"#utility.yul\":13934:14135   */\n      iszero\n      tag_833\n      jumpi\n        /* \"#utility.yul\":14010:14029   */\n      dup8\n      dup6\n      add\n        /* \"#utility.yul\":14004:14030   */\n      mload\n      not(0x00)\n        /* \"#utility.yul\":14093:14094   */\n      0x03\n        /* \"#utility.yul\":14089:14103   */\n      dup9\n      swap1\n      shl\n        /* \"#utility.yul\":14105:14108   */\n      0xf8\n        /* \"#utility.yul\":14085:14109   */\n      and\n        /* \"#utility.yul\":14081:14118   */\n      shr\n        /* \"#utility.yul\":14077:14119   */\n      not\n        /* \"#utility.yul\":14062:14120   */\n      and\n        /* \"#utility.yul\":14047:14121   */\n      dup2\n      sstore\n        /* \"#utility.yul\":13934:14135   */\n    tag_833:\n      pop\n      pop\n      pop\n      pop\n      pop\n        /* \"#utility.yul\":14181:14182   */\n      0x01\n        /* \"#utility.yul\":14165:14179   */\n      swap1\n      dup2\n      shl\n        /* \"#utility.yul\":14161:14183   */\n      add\n        /* \"#utility.yul\":14148:14184   */\n      swap1\n      sstore\n      pop\n        /* \"#utility.yul\":13099:14451   */\n      jump\t// out\n        /* \"#utility.yul\":14456:14583   */\n    tag_154:\n        /* \"#utility.yul\":14517:14527   */\n      0x4e487b71\n        /* \"#utility.yul\":14512:14515   */\n      0xe0\n        /* \"#utility.yul\":14508:14528   */\n      shl\n        /* \"#utility.yul\":14505:14506   */\n      0x00\n        /* \"#utility.yul\":14498:14529   */\n      mstore\n        /* \"#utility.yul\":14548:14552   */\n      0x32\n        /* \"#utility.yul\":14545:14546   */\n      0x04\n        /* \"#utility.yul\":14538:14553   */\n      mstore\n        /* \"#utility.yul\":14572:14576   */\n      0x24\n        /* \"#utility.yul\":14569:14570   */\n      0x00\n        /* \"#utility.yul\":14562:14577   */\n      revert\n        /* \"#utility.yul\":14588:14723   */\n    tag_187:\n        /* \"#utility.yul\":14627:14630   */\n      0x00\n        /* \"#utility.yul\":14648:14665   */\n      0x01\n      dup3\n      add\n        /* \"#utility.yul\":14645:14688   */\n      tag_837\n      jumpi\n        /* \"#utility.yul\":14668:14686   */\n      tag_837\n      tag_713\n      jump\t// in\n    tag_837:\n      pop\n        /* \"#utility.yul\":14715:14716   */\n      0x01\n        /* \"#utility.yul\":14704:14717   */\n      add\n      swap1\n        /* \"#utility.yul\":14588:14723   */\n      jump\t// out\n        /* \"#utility.yul\":16829:18264   */\n    tag_298:\n        /* \"#utility.yul\":16948:16951   */\n      dup2\n        /* \"#utility.yul\":16942:16946   */\n      dup2\n        /* \"#utility.yul\":16939:16952   */\n      sub\n        /* \"#utility.yul\":16936:16962   */\n      tag_845\n      jumpi\n        /* \"#utility.yul\":16955:16960   */\n      pop\n      pop\n        /* \"#utility.yul\":16829:18264   */\n      jump\t// out\n        /* \"#utility.yul\":16936:16962   */\n    tag_845:\n        /* \"#utility.yul\":16985:17022   */\n      tag_846\n        /* \"#utility.yul\":17017:17020   */\n      dup3\n        /* \"#utility.yul\":17011:17021   */\n      sload\n        /* \"#utility.yul\":16985:17022   */\n      tag_214\n      jump\t// in\n    tag_846:\n        /* \"#utility.yul\":17045:17063   */\n      0xffffffffffffffff\n        /* \"#utility.yul\":17037:17043   */\n      dup2\n        /* \"#utility.yul\":17034:17064   */\n      gt\n        /* \"#utility.yul\":17031:17087   */\n      iszero\n      tag_848\n      jumpi\n        /* \"#utility.yul\":17067:17085   */\n      tag_848\n      tag_711\n      jump\t// in\n    tag_848:\n        /* \"#utility.yul\":17096:17193   */\n      tag_849\n        /* \"#utility.yul\":17186:17192   */\n      dup2\n        /* \"#utility.yul\":17146:17184   */\n      tag_824\n        /* \"#utility.yul\":17178:17182   */\n      dup5\n        /* \"#utility.yul\":17172:17183   */\n      sload\n        /* \"#utility.yul\":17146:17184   */\n      tag_214\n      jump\t// in\n        /* \"#utility.yul\":17096:17193   */\n    tag_849:\n        /* \"#utility.yul\":17219:17220   */\n      0x00\n        /* \"#utility.yul\":17247:17249   */\n      0x1f\n        /* \"#utility.yul\":17239:17245   */\n      dup3\n        /* \"#utility.yul\":17236:17250   */\n      gt\n        /* \"#utility.yul\":17264:17265   */\n      0x01\n        /* \"#utility.yul\":17259:18007   */\n      dup2\n      eq\n      tag_852\n      jumpi\n        /* \"#utility.yul\":18051:18052   */\n      0x00\n        /* \"#utility.yul\":18068:18074   */\n      dup4\n        /* \"#utility.yul\":18065:18154   */\n      iszero\n      tag_853\n      jumpi\n      pop\n        /* \"#utility.yul\":18120:18139   */\n      dup5\n      dup3\n      add\n        /* \"#utility.yul\":18114:18140   */\n      sload\n        /* \"#utility.yul\":18065:18154   */\n    tag_853:\n      not(0x00)\n        /* \"#utility.yul\":13056:13057   */\n      0x03\n        /* \"#utility.yul\":13052:13063   */\n      dup6\n      swap1\n      shl\n        /* \"#utility.yul\":13048:13072   */\n      shr\n        /* \"#utility.yul\":13044:13073   */\n      not\n        /* \"#utility.yul\":13034:13074   */\n      and\n        /* \"#utility.yul\":13080:13081   */\n      0x01\n        /* \"#utility.yul\":13076:13087   */\n      dup5\n      swap1\n      shl\n        /* \"#utility.yul\":13031:13088   */\n      or\n        /* \"#utility.yul\":18167:18248   */\n      dup5\n      sstore\n        /* \"#utility.yul\":17229:18258   */\n      jump(tag_851)\n        /* \"#utility.yul\":17259:18007   */\n    tag_852:\n        /* \"#utility.yul\":12325:12326   */\n      0x00\n        /* \"#utility.yul\":12318:12332   */\n      dup6\n      dup2\n      mstore\n        /* \"#utility.yul\":12362:12366   */\n      0x20\n        /* \"#utility.yul\":12349:12367   */\n      swap1\n      keccak256\n      not(0x1f)\n        /* \"#utility.yul\":17295:17315   */\n      dup5\n      and\n      swap1\n        /* \"#utility.yul\":12325:12326   */\n      0x00\n        /* \"#utility.yul\":12318:12332   */\n      dup7\n      dup2\n      mstore\n        /* \"#utility.yul\":12362:12366   */\n      0x20\n        /* \"#utility.yul\":12349:12367   */\n      swap1\n      keccak256\n        /* \"#utility.yul\":17459:17468   */\n      dup5\n        /* \"#utility.yul\":17481:17732   */\n    tag_857:\n        /* \"#utility.yul\":17495:17502   */\n      dup4\n        /* \"#utility.yul\":17492:17493   */\n      dup2\n        /* \"#utility.yul\":17489:17503   */\n      lt\n        /* \"#utility.yul\":17481:17732   */\n      iszero\n      tag_859\n      jumpi\n        /* \"#utility.yul\":17577:17598   */\n      dup3\n      dup7\n      add\n        /* \"#utility.yul\":17571:17599   */\n      sload\n        /* \"#utility.yul\":17556:17600   */\n      dup3\n      sstore\n        /* \"#utility.yul\":17627:17628   */\n      0x01\n        /* \"#utility.yul\":17700:17718   */\n      swap6\n      dup7\n      add\n      swap6\n        /* \"#utility.yul\":17655:17670   */\n      swap1\n      swap2\n      add\n      swap1\n        /* \"#utility.yul\":17518:17522   */\n      0x20\n        /* \"#utility.yul\":17511:17523   */\n      add\n        /* \"#utility.yul\":17481:17732   */\n      jump(tag_857)\n    tag_859:\n        /* \"#utility.yul\":17485:17488   */\n      pop\n        /* \"#utility.yul\":17760:17766   */\n      dup6\n        /* \"#utility.yul\":17751:17758   */\n      dup4\n        /* \"#utility.yul\":17748:17767   */\n      lt\n        /* \"#utility.yul\":17745:17948   */\n      iszero\n      tag_860\n      jumpi\n        /* \"#utility.yul\":17821:17842   */\n      dup2\n      dup6\n      add\n        /* \"#utility.yul\":17815:17843   */\n      sload\n      not(0x00)\n        /* \"#utility.yul\":17906:17907   */\n      0x03\n        /* \"#utility.yul\":17902:17916   */\n      dup9\n      swap1\n      shl\n        /* \"#utility.yul\":17918:17921   */\n      0xf8\n        /* \"#utility.yul\":17898:17922   */\n      and\n        /* \"#utility.yul\":17894:17931   */\n      shr\n        /* \"#utility.yul\":17890:17932   */\n      not\n        /* \"#utility.yul\":17875:17933   */\n      and\n        /* \"#utility.yul\":17860:17934   */\n      dup2\n      sstore\n        /* \"#utility.yul\":17745:17948   */\n    tag_860:\n      pop\n      pop\n      pop\n        /* \"#utility.yul\":17994:17995   */\n      0x01\n        /* \"#utility.yul\":17985:17991   */\n      dup4\n        /* \"#utility.yul\":17982:17983   */\n      0x01\n        /* \"#utility.yul\":17978:17992   */\n      shl\n        /* \"#utility.yul\":17974:17996   */\n      add\n        /* \"#utility.yul\":17968:17972   */\n      dup5\n        /* \"#utility.yul\":17961:17997   */\n      sstore\n        /* \"#utility.yul\":17229:18258   */\n    tag_851:\n      pop\n      pop\n      pop\n        /* \"#utility.yul\":16829:18264   */\n      pop\n      pop\n      jump\t// out\n        /* \"#utility.yul\":18269:19041   */\n    tag_717:\n        /* \"#utility.yul\":18319:18322   */\n      0x00\n        /* \"#utility.yul\":18360:18365   */\n      dup2\n        /* \"#utility.yul\":18354:18366   */\n      sload\n        /* \"#utility.yul\":18389:18425   */\n      tag_862\n        /* \"#utility.yul\":18415:18424   */\n      dup2\n        /* \"#utility.yul\":18389:18425   */\n      tag_214\n      jump\t// in\n    tag_862:\n        /* \"#utility.yul\":18434:18453   */\n      dup1\n      dup6\n      mstore\n        /* \"#utility.yul\":18472:18476   */\n      0x20\n        /* \"#utility.yul\":18495:18496   */\n      0x01\n        /* \"#utility.yul\":18512:18530   */\n      dup4\n      dup2\n      and\n        /* \"#utility.yul\":18539:18685   */\n      dup1\n      iszero\n      tag_864\n      jumpi\n        /* \"#utility.yul\":18699:18700   */\n      0x01\n        /* \"#utility.yul\":18694:19035   */\n      dup2\n      eq\n      tag_865\n      jumpi\n        /* \"#utility.yul\":18505:19035   */\n      jump(tag_863)\n        /* \"#utility.yul\":18539:18685   */\n    tag_864:\n      not(0xff)\n        /* \"#utility.yul\":18581:18605   */\n      dup6\n      and\n        /* \"#utility.yul\":18567:18579   */\n      dup9\n      dup5\n      add\n        /* \"#utility.yul\":18560:18606   */\n      mstore\n        /* \"#utility.yul\":18653:18667   */\n      dup4\n      iszero\n        /* \"#utility.yul\":18646:18668   */\n      iszero\n        /* \"#utility.yul\":18643:18644   */\n      0x05\n        /* \"#utility.yul\":18639:18669   */\n      shl\n        /* \"#utility.yul\":18630:18670   */\n      dup9\n      add\n        /* \"#utility.yul\":18626:18675   */\n      dup4\n      add\n      swap6\n      pop\n        /* \"#utility.yul\":18539:18685   */\n      jump(tag_863)\n        /* \"#utility.yul\":18694:19035   */\n    tag_865:\n        /* \"#utility.yul\":18725:18730   */\n      dup7\n        /* \"#utility.yul\":18722:18723   */\n      0x00\n        /* \"#utility.yul\":18715:18731   */\n      mstore\n        /* \"#utility.yul\":18772:18774   */\n      dup3\n        /* \"#utility.yul\":18769:18770   */\n      0x00\n        /* \"#utility.yul\":18759:18775   */\n      keccak256\n        /* \"#utility.yul\":18797:18798   */\n      0x00\n        /* \"#utility.yul\":18811:18985   */\n    tag_866:\n        /* \"#utility.yul\":18825:18831   */\n      dup6\n        /* \"#utility.yul\":18822:18823   */\n      dup2\n        /* \"#utility.yul\":18819:18832   */\n      lt\n        /* \"#utility.yul\":18811:18985   */\n      iszero\n      tag_868\n      jumpi\n        /* \"#utility.yul\":18912:18926   */\n      dup2\n      sload\n        /* \"#utility.yul\":18894:18905   */\n      dup11\n      dup3\n      add\n        /* \"#utility.yul\":18890:18910   */\n      dup7\n      add\n        /* \"#utility.yul\":18883:18927   */\n      mstore\n        /* \"#utility.yul\":18955:18971   */\n      swap1\n      dup4\n      add\n      swap1\n        /* \"#utility.yul\":18840:18850   */\n      dup5\n      add\n        /* \"#utility.yul\":18811:18985   */\n      jump(tag_866)\n    tag_868:\n        /* \"#utility.yul\":19009:19020   */\n      dup10\n      add\n        /* \"#utility.yul\":19005:19025   */\n      dup5\n      add\n      swap7\n      pop\n      pop\n        /* \"#utility.yul\":18505:19035   */\n    tag_863:\n      pop\n      pop\n      pop\n      pop\n      pop\n        /* \"#utility.yul\":18269:19041   */\n      swap3\n      swap2\n      pop\n      pop\n      jump\t// out\n        /* \"#utility.yul\":19046:19697   */\n    tag_718:\n        /* \"#utility.yul\":19106:19109   */\n      0x00\n        /* \"#utility.yul\":19144:19149   */\n      dup2\n        /* \"#utility.yul\":19138:19150   */\n      sload\n        /* \"#utility.yul\":19171:19177   */\n      dup1\n        /* \"#utility.yul\":19166:19169   */\n      dup5\n        /* \"#utility.yul\":19159:19178   */\n      mstore\n        /* \"#utility.yul\":19197:19201   */\n      0x20\n        /* \"#utility.yul\":19238:19240   */\n      dup1\n        /* \"#utility.yul\":19233:19236   */\n      dup6\n        /* \"#utility.yul\":19229:19241   */\n      add\n        /* \"#utility.yul\":19263:19274   */\n      dup1\n        /* \"#utility.yul\":19290:19301   */\n      dup2\n        /* \"#utility.yul\":19283:19301   */\n      swap7\n      pop\n        /* \"#utility.yul\":19340:19346   */\n      dup4\n        /* \"#utility.yul\":19337:19338   */\n      0x05\n        /* \"#utility.yul\":19333:19347   */\n      shl\n        /* \"#utility.yul\":19326:19331   */\n      dup2\n        /* \"#utility.yul\":19322:19348   */\n      add\n        /* \"#utility.yul\":19310:19348   */\n      swap2\n      pop\n        /* \"#utility.yul\":19367:19372   */\n      dup6\n        /* \"#utility.yul\":19364:19365   */\n      0x00\n        /* \"#utility.yul\":19357:19373   */\n      mstore\n        /* \"#utility.yul\":19409:19411   */\n      dup3\n        /* \"#utility.yul\":19406:19407   */\n      0x00\n        /* \"#utility.yul\":19396:19412   */\n      keccak256\n        /* \"#utility.yul\":19430:19431   */\n      0x00\n        /* \"#utility.yul\":19440:19671   */\n    tag_870:\n        /* \"#utility.yul\":19454:19460   */\n      dup6\n        /* \"#utility.yul\":19451:19452   */\n      dup2\n        /* \"#utility.yul\":19448:19461   */\n      lt\n        /* \"#utility.yul\":19440:19671   */\n      iszero\n      tag_872\n      jumpi\n        /* \"#utility.yul\":19525:19530   */\n      dup3\n        /* \"#utility.yul\":19519:19523   */\n      dup5\n        /* \"#utility.yul\":19515:19531   */\n      sub\n        /* \"#utility.yul\":19510:19513   */\n      dup10\n        /* \"#utility.yul\":19503:19532   */\n      mstore\n        /* \"#utility.yul\":19553:19592   */\n      tag_873\n        /* \"#utility.yul\":19587:19591   */\n      dup5\n        /* \"#utility.yul\":19579:19585   */\n      dup4\n        /* \"#utility.yul\":19553:19592   */\n      tag_717\n      jump\t// in\n    tag_873:\n        /* \"#utility.yul\":19649:19661   */\n      swap9\n      dup6\n      add\n      swap9\n        /* \"#utility.yul\":19545:19592   */\n      swap4\n      pop\n        /* \"#utility.yul\":19627:19628   */\n      0x01\n        /* \"#utility.yul\":19615:19629   */\n      swap2\n      dup3\n      add\n      swap2\n        /* \"#utility.yul\":19469:19478   */\n      add\n        /* \"#utility.yul\":19440:19671   */\n      jump(tag_870)\n    tag_872:\n      pop\n        /* \"#utility.yul\":19687:19691   */\n      swap2\n      swap8\n        /* \"#utility.yul\":19046:19697   */\n      swap7\n      pop\n      pop\n      pop\n      pop\n      pop\n      pop\n      pop\n      jump\t// out\n        /* \"#utility.yul\":19702:20055   */\n    tag_303:\n        /* \"#utility.yul\":19923:19925   */\n      0x40\n        /* \"#utility.yul\":19912:19921   */\n      dup2\n        /* \"#utility.yul\":19905:19926   */\n      mstore\n        /* \"#utility.yul\":19886:19890   */\n      0x00\n        /* \"#utility.yul\":19943:20006   */\n      tag_875\n        /* \"#utility.yul\":20002:20004   */\n      0x40\n        /* \"#utility.yul\":19991:20000   */\n      dup4\n        /* \"#utility.yul\":19987:20005   */\n      add\n        /* \"#utility.yul\":19979:19985   */\n      dup6\n        /* \"#utility.yul\":19943:20006   */\n      tag_718\n      jump\t// in\n    tag_875:\n        /* \"#utility.yul\":19935:20006   */\n      swap1\n      pop\n        /* \"#utility.yul\":20042:20048   */\n      dup3\n        /* \"#utility.yul\":20037:20039   */\n      0x20\n        /* \"#utility.yul\":20026:20035   */\n      dup4\n        /* \"#utility.yul\":20022:20040   */\n      add\n        /* \"#utility.yul\":20015:20049   */\n      mstore\n        /* \"#utility.yul\":19702:20055   */\n      swap4\n      swap3\n      pop\n      pop\n      pop\n      jump\t// out\n        /* \"#utility.yul\":22608:23077   */\n    tag_720:\n        /* \"#utility.yul\":22669:22672   */\n      0x00\n        /* \"#utility.yul\":22707:22712   */\n      dup2\n        /* \"#utility.yul\":22701:22713   */\n      sload\n        /* \"#utility.yul\":22734:22740   */\n      dup1\n        /* \"#utility.yul\":22729:22732   */\n      dup5\n        /* \"#utility.yul\":22722:22741   */\n      mstore\n        /* \"#utility.yul\":22760:22764   */\n      0x20\n        /* \"#utility.yul\":22789:22791   */\n      dup1\n        /* \"#utility.yul\":22784:22787   */\n      dup6\n        /* \"#utility.yul\":22780:22792   */\n      add\n        /* \"#utility.yul\":22773:22792   */\n      swap5\n      pop\n        /* \"#utility.yul\":22811:22816   */\n      dup4\n        /* \"#utility.yul\":22808:22809   */\n      0x00\n        /* \"#utility.yul\":22801:22817   */\n      mstore\n        /* \"#utility.yul\":22853:22855   */\n      dup1\n        /* \"#utility.yul\":22850:22851   */\n      0x00\n        /* \"#utility.yul\":22840:22856   */\n      keccak256\n        /* \"#utility.yul\":22874:22875   */\n      0x00\n        /* \"#utility.yul\":22884:23052   */\n    tag_884:\n        /* \"#utility.yul\":22898:22904   */\n      dup4\n        /* \"#utility.yul\":22895:22896   */\n      dup2\n        /* \"#utility.yul\":22892:22905   */\n      lt\n        /* \"#utility.yul\":22884:23052   */\n      iszero\n      tag_745\n      jumpi\n        /* \"#utility.yul\":22959:22972   */\n      dup2\n      sload\n        /* \"#utility.yul\":22947:22973   */\n      dup8\n      mstore\n        /* \"#utility.yul\":22993:23005   */\n      swap6\n      dup3\n      add\n      swap6\n        /* \"#utility.yul\":23040:23041   */\n      0x01\n        /* \"#utility.yul\":23028:23042   */\n      swap2\n      dup3\n      add\n      swap2\n        /* \"#utility.yul\":22913:22922   */\n      add\n        /* \"#utility.yul\":22884:23052   */\n      jump(tag_884)\n        /* \"#utility.yul\":23225:24825   */\n    tag_434:\n        /* \"#utility.yul\":23429:23431   */\n      0x40\n        /* \"#utility.yul\":23418:23427   */\n      dup2\n        /* \"#utility.yul\":23411:23432   */\n      mstore\n        /* \"#utility.yul\":23441:23532   */\n      tag_889\n        /* \"#utility.yul\":23528:23530   */\n      0x40\n        /* \"#utility.yul\":23517:23526   */\n      dup3\n        /* \"#utility.yul\":23513:23531   */\n      add\n        /* \"#utility.yul\":23457:23511   */\n      tag_890\n        /* \"#utility.yul\":23503:23509   */\n      dup6\n        /* \"#utility.yul\":23497:23510   */\n      sload\n        /* \"#utility.yul\":22592:22596   */\n      0xff\n        /* \"#utility.yul\":22576:22597   */\n      and\n      swap1\n        /* \"#utility.yul\":22483:22603   */\n      jump\n        /* \"#utility.yul\":23457:23511   */\n    tag_890:\n        /* \"#utility.yul\":1088:1101   */\n      iszero\n        /* \"#utility.yul\":1081:1102   */\n      iszero\n        /* \"#utility.yul\":1069:1103   */\n      swap1\n      mstore\n        /* \"#utility.yul\":1018:1109   */\n      jump\n        /* \"#utility.yul\":23441:23532   */\n    tag_889:\n        /* \"#utility.yul\":23392:23396   */\n      0x00\n        /* \"#utility.yul\":23551:23557   */\n      0x0160\n        /* \"#utility.yul\":23593:23595   */\n      dup1\n        /* \"#utility.yul\":23588:23590   */\n      0x60\n        /* \"#utility.yul\":23577:23586   */\n      dup5\n        /* \"#utility.yul\":23573:23591   */\n      add\n        /* \"#utility.yul\":23566:23596   */\n      mstore\n        /* \"#utility.yul\":23619:23684   */\n      tag_891\n        /* \"#utility.yul\":23679:23682   */\n      0x01a0\n        /* \"#utility.yul\":23668:23677   */\n      dup5\n        /* \"#utility.yul\":23664:23683   */\n      add\n        /* \"#utility.yul\":23657:23661   */\n      0x01\n        /* \"#utility.yul\":23649:23655   */\n      dup8\n        /* \"#utility.yul\":23645:23662   */\n      add\n        /* \"#utility.yul\":23619:23684   */\n      tag_717\n      jump\t// in\n    tag_891:\n        /* \"#utility.yul\":23707:23709   */\n      0x3f\n        /* \"#utility.yul\":23703:23710   */\n      not\n        /* \"#utility.yul\":23775:23777   */\n      dup1\n        /* \"#utility.yul\":23763:23772   */\n      dup6\n        /* \"#utility.yul\":23755:23761   */\n      dup4\n        /* \"#utility.yul\":23751:23773   */\n      sub\n        /* \"#utility.yul\":23747:23778   */\n      add\n        /* \"#utility.yul\":23741:23744   */\n      0x80\n        /* \"#utility.yul\":23730:23739   */\n      dup7\n        /* \"#utility.yul\":23726:23745   */\n      add\n        /* \"#utility.yul\":23719:23779   */\n      mstore\n        /* \"#utility.yul\":23802:23864   */\n      tag_892\n        /* \"#utility.yul\":23857:23863   */\n      dup3\n        /* \"#utility.yul\":23850:23854   */\n      0x02\n        /* \"#utility.yul\":23842:23848   */\n      dup10\n        /* \"#utility.yul\":23838:23855   */\n      add\n        /* \"#utility.yul\":23802:23864   */\n      tag_718\n      jump\t// in\n    tag_892:\n        /* \"#utility.yul\":23788:23864   */\n      swap2\n      pop\n        /* \"#utility.yul\":23929:23931   */\n      dup1\n        /* \"#utility.yul\":23917:23926   */\n      dup6\n        /* \"#utility.yul\":23909:23915   */\n      dup4\n        /* \"#utility.yul\":23905:23927   */\n      sub\n        /* \"#utility.yul\":23901:23932   */\n      add\n        /* \"#utility.yul\":23895:23898   */\n      0xa0\n        /* \"#utility.yul\":23884:23893   */\n      dup7\n        /* \"#utility.yul\":23880:23899   */\n      add\n        /* \"#utility.yul\":23873:23933   */\n      mstore\n      pop\n        /* \"#utility.yul\":23956:24019   */\n      tag_893\n        /* \"#utility.yul\":24012:24018   */\n      dup2\n        /* \"#utility.yul\":24005:24009   */\n      0x03\n        /* \"#utility.yul\":23997:24003   */\n      dup9\n        /* \"#utility.yul\":23993:24010   */\n      add\n        /* \"#utility.yul\":23956:24019   */\n      tag_720\n      jump\t// in\n    tag_893:\n        /* \"#utility.yul\":23942:24019   */\n      swap1\n      pop\n        /* \"#utility.yul\":24048:24116   */\n      tag_894\n        /* \"#utility.yul\":24109:24113   */\n      0x04\n        /* \"#utility.yul\":24101:24107   */\n      dup8\n        /* \"#utility.yul\":24097:24114   */\n      add\n        /* \"#utility.yul\":24091:24115   */\n      sload\n      sub(shl(0xa0, 0x01), 0x01)\n        /* \"#utility.yul\":23178:23214   */\n      and\n      swap1\n        /* \"#utility.yul\":23082:23220   */\n      jump\n        /* \"#utility.yul\":24048:24116   */\n    tag_894:\n      sub(shl(0xa0, 0x01), 0x01)\n        /* \"#utility.yul\":2748:2779   */\n      swap1\n      dup2\n      and\n        /* \"#utility.yul\":24173:24176   */\n      0xc0\n        /* \"#utility.yul\":24158:24177   */\n      dup7\n      add\n        /* \"#utility.yul\":2736:2780   */\n      mstore\n        /* \"#utility.yul\":24270:24274   */\n      0x05\n        /* \"#utility.yul\":24258:24275   */\n      dup8\n      add\n        /* \"#utility.yul\":24252:24276   */\n      sload\n        /* \"#utility.yul\":23178:23214   */\n      dup2\n      and\n        /* \"#utility.yul\":24336:24339   */\n      0xe0\n        /* \"#utility.yul\":24321:24340   */\n      dup7\n      add\n        /* \"#utility.yul\":2736:2780   */\n      mstore\n        /* \"#utility.yul\":24396:24400   */\n      0x06\n        /* \"#utility.yul\":24384:24401   */\n      dup8\n      add\n        /* \"#utility.yul\":24378:24402   */\n      sload\n        /* \"#utility.yul\":24372:24375   */\n      0x0100\n        /* \"#utility.yul\":24357:24376   */\n      dup7\n      add\n        /* \"#utility.yul\":24350:24403   */\n      mstore\n        /* \"#utility.yul\":24495:24499   */\n      0x07\n        /* \"#utility.yul\":24483:24500   */\n      dup8\n      add\n        /* \"#utility.yul\":24477:24501   */\n      sload\n        /* \"#utility.yul\":23178:23214   */\n      and\n        /* \"#utility.yul\":24561:24564   */\n      0x0120\n        /* \"#utility.yul\":24546:24565   */\n      dup6\n      add\n        /* \"#utility.yul\":2736:2780   */\n      mstore\n        /* \"#utility.yul\":24621:24625   */\n      0x08\n        /* \"#utility.yul\":24609:24626   */\n      dup7\n      add\n        /* \"#utility.yul\":24603:24627   */\n      sload\n        /* \"#utility.yul\":24597:24600   */\n      0x0140\n        /* \"#utility.yul\":24582:24601   */\n      dup6\n      add\n        /* \"#utility.yul\":24575:24628   */\n      mstore\n        /* \"#utility.yul\":24682:24686   */\n      0x09\n        /* \"#utility.yul\":24670:24687   */\n      dup7\n      add\n        /* \"#utility.yul\":24664:24688   */\n      sload\n        /* \"#utility.yul\":24644:24662   */\n      swap2\n      dup5\n      add\n        /* \"#utility.yul\":24637:24689   */\n      swap2\n      swap1\n      swap2\n      mstore\n        /* \"#utility.yul\":24744:24748   */\n      0x0a\n        /* \"#utility.yul\":24732:24749   */\n      swap1\n      swap5\n      add\n        /* \"#utility.yul\":24726:24750   */\n      sload\n        /* \"#utility.yul\":24720:24723   */\n      0x0180\n        /* \"#utility.yul\":24705:24724   */\n      dup4\n      add\n        /* \"#utility.yul\":24698:24751   */\n      mstore\n      pop\n        /* \"#utility.yul\":24805:24809   */\n      0x20\n        /* \"#utility.yul\":24790:24810   */\n      add\n        /* \"#utility.yul\":24783:24819   */\n      mstore\n        /* \"#utility.yul\":24637:24689   */\n      swap1\n        /* \"#utility.yul\":23225:24825   */\n      jump\t// out\n        /* \"#utility.yul\":24830:25119   */\n    tag_437:\n        /* \"#utility.yul\":24961:24964   */\n      0x00\n        /* \"#utility.yul\":24999:25005   */\n      dup3\n        /* \"#utility.yul\":24993:25006   */\n      mload\n        /* \"#utility.yul\":25015:25081   */\n      tag_901\n        /* \"#utility.yul\":25074:25080   */\n      dup2\n        /* \"#utility.yul\":25069:25072   */\n      dup5\n        /* \"#utility.yul\":25062:25066   */\n      0x20\n        /* \"#utility.yul\":25054:25060   */\n      dup8\n        /* \"#utility.yul\":25050:25067   */\n      add\n        /* \"#utility.yul\":25015:25081   */\n      tag_705\n      jump\t// in\n    tag_901:\n        /* \"#utility.yul\":25097:25113   */\n      swap2\n      swap1\n      swap2\n      add\n      swap3\n        /* \"#utility.yul\":24830:25119   */\n      swap2\n      pop\n      pop\n      jump\t// out\n        /* \"#utility.yul\":25124:25420   */\n    tag_602:\n        /* \"#utility.yul\":25298:25300   */\n      0x40\n        /* \"#utility.yul\":25287:25296   */\n      dup2\n        /* \"#utility.yul\":25280:25301   */\n      mstore\n        /* \"#utility.yul\":25261:25265   */\n      0x00\n        /* \"#utility.yul\":25318:25371   */\n      tag_875\n        /* \"#utility.yul\":25367:25369   */\n      0x40\n        /* \"#utility.yul\":25356:25365   */\n      dup4\n        /* \"#utility.yul\":25352:25370   */\n      add\n        /* \"#utility.yul\":25344:25350   */\n      dup6\n        /* \"#utility.yul\":25318:25371   */\n      tag_717\n      jump\t// in\n\n    auxdata: 0xa2646970667358221220c33b4be4a581132895858604d8e41f08cb345b6cc9367a220773b0a4e838644664736f6c63430008130033\n}\n",
				"bytecode": {
					"linkReferences": {},
					"object": "600080546001600160a01b031990811673c6bddcd0da1c50281f02a57b8d2ada2ebf76aec7178255678ac7230489e80000600190815560028054909216733ce5a8a72820585c60f659896338d573471969911782556005600381815560048281556101808681526101a08590526101c086905260809081526101e083815261020083905261022085905260a05260066102408181526007610260819052600861028081905260c0929092526102a08a81526102c0969096526102e083905260e0959095526103009687526103208490526103409490945261010095909552610360868152610380949094526103a0839052610120939093526103c09586526103e0819052610400829052610140959095526104806040526104209384526104409490945261046091909152610160919091526200013e91908162000165565b503480156200014c57600080fd5b50600680546001600160a01b031916331790556200026f565b828054828255906000526020600020908101928215620001b1579160200282015b82811115620001b1578251620001a09083906003620001c3565b509160200191906001019062000186565b50620001bf92915062000214565b5090565b82805482825590600052602060002090810192821562000206579160200282015b8281111562000206578251829060ff16905591602001919060010190620001e4565b50620001bf92915062000235565b80821115620001bf5760006200022b82826200024c565b5060010162000214565b5b80821115620001bf576000815560010162000236565b50805460008255906000526020600020908101906200026c919062000235565b50565b6138e1806200027f6000396000f3fe608060405234801561001057600080fd5b506004361061012c5760003560e01c8063888b042f116100ad578063cc32d17611610071578063cc32d176146102ab578063dc572c6e146102b4578063edb84ff7146102d4578063fa968eea146102dc578063fce589d8146102e557600080fd5b8063888b042f1461023a5780638da5cb5b14610242578063b2182be414610255578063b60b9fcb14610275578063bed34bba1461028857600080fd5b80634a968391116100f45780634a968391146101ae57806352bc3410146101c157806361d027b3146101d45780637effb427146101ff57806387052fab1461021257600080fd5b806306139e8d1461013157806317b44960146101465780631a39d8ef1461016f57806334fd351814610186578063491f013614610199575b600080fd5b61014461013f366004612ecf565b6102ee565b005b610159610154366004612ecf565b6109bd565b6040516101669190612ee8565b60405180910390f35b61017860055481565b604051908152602001610166565b610144610194366004612ecf565b610a39565b6101a1610b03565b60405161016691906130ec565b6101446101bc366004612ecf565b610d94565b6101446101cf36600461314e565b610f14565b6002546101e7906001600160a01b031681565b6040516001600160a01b039091168152602001610166565b6000546101e7906001600160a01b031681565b610225610220366004612ecf565b61133f565b60405161016699989796959493929190613170565b610144611435565b6006546101e7906001600160a01b031681565b610268610263366004612ecf565b611638565b60405161016691906131d2565b61014461028336600461314e565b61189e565b61029b61029636600461328f565b611f92565b6040519015158152602001610166565b61017860045481565b6102c76102c2366004612ecf565b611fec565b60405161016691906132f3565b6101446120e9565b61017860015481565b61017860035481565b600654600160a01b900460ff16156103455760405162461bcd60e51b8152602060048201526015602482015274115c9c9bdc8e881499595b9d1c985b9d0818d85b1b605a1b60448201526064015b60405180910390fd5b6006805460ff60a01b1916600160a01b1790556000546040516370a0823160e01b815233600482015282916001600160a01b0316906370a0823190602401602060405180830381865afa1580156103a0573d6000803e3d6000fd5b505050506040513d601f19601f820116820180604052508101906103c49190613348565b10156104075760405162461bcd60e51b81526020600482015260126024820152714e6f7420656e6f7567682062616c616e636560701b604482015260640161033c565b6001548110156104595760405162461bcd60e51b815260206004820152601a60248201527f4e65656420746f20706179206d696e2062657420616d6f756e74000000000000604482015260640161033c565b600060646003548361046b9190613377565b610475919061338e565b905060006064600454846104899190613377565b610493919061338e565b90506000816104a284866133b0565b6104ac91906133b0565b6000546040516323b872dd60e01b81529192506001600160a01b0316906323b872dd906104e390339061dead9088906004016133c3565b6020604051808303816000875af1158015610502573d6000803e3d6000fd5b505050506040513d601f19601f8201168201806040525081019061052691906133e7565b506000546002546040516323b872dd60e01b81526001600160a01b03928316926323b872dd926105609233929091169087906004016133c3565b6020604051808303816000875af115801561057f573d6000803e3d6000fd5b505050506040513d601f19601f820116820180604052508101906105a391906133e7565b506000546040516323b872dd60e01b81526001600160a01b03909116906323b872dd906105d8903390309086906004016133c3565b6020604051808303816000875af11580156105f7573d6000803e3d6000fd5b505050506040513d601f19601f8201168201806040525081019061061b91906133e7565b50806005600082825461062e9190613409565b9091555061063c9050612d09565b6007805460018101825560009190915281517fa66cc928b5edb82af9bd49922954155ab7b0942694bea4ce44661d9a8736c688600b909202918201805460ff1916911515919091178155602083015183927fa66cc928b5edb82af9bd49922954155ab7b0942694bea4ce44661d9a8736c68901906106ba90826134a5565b50604082015180516106d6916002840191602090910190612d80565b50606082015180516106f2916003840191602090910190612dd6565b5060808201516004820180546001600160a01b03199081166001600160a01b039384161790915560a0840151600584018054831691841691909117905560c0840151600684015560e084015160078085018054909316919093161790556101008301516008830155610120830151600983015561014090920151600a9091015580549033906107826001846133b0565b8154811061079257610792613565565b600091825260208220600b919091020160040180546001600160a01b0319166001600160a01b03939093169290921790915560076107d16001846133b0565b815481106107e1576107e1613565565b60009182526020909120600b90910201805460ff19169115159190911790556001600761080e82846133b0565b8154811061081e5761081e613565565b90600052602060002090600b020160060181905550604051806040016040528060018152602001600b60fb1b815250600760018361085c91906133b0565b8154811061086c5761086c613565565b90600052602060002090600b0201600101908161088991906134a5565b508560076108986001846133b0565b815481106108a8576108a8613565565b600091825260209091206008600b9092020101558260076108ca6001846133b0565b815481106108da576108da613565565b90600052602060002090600b0201600a018190555060005b600981101561096a5760076109086001846133b0565b8154811061091857610918613565565b600091825260208083206002600b90930201919091018054600181018255908352818320604080519384019052928252919091019061095790826134a5565b50806109628161357b565b9150506108f2565b507fbbba82573073a1190d559566d39447b5e1ad7724b88b63bc98867d229a645b6b6109976001836133b0565b60405190815260200160405180910390a150506006805460ff60a01b1916905550505050565b6060600782815481106109d2576109d2613565565b90600052602060002090600b0201600301805480602002602001604051908101604052809291908181526020018280548015610a2d57602002820191906000526020600020905b815481526020019060010190808311610a19575b50505050509050919050565b610a42816121ac565b610a8e5760405162461bcd60e51b815260206004820152601c60248201527f796f7520617265206e6f7420746869732067616d6520706c6179657200000000604482015260640161033c565b60078181548110610aa157610aa1613565565b60009182526020909120600b909102015460ff1615610af75760405162461bcd60e51b815260206004820152601260248201527147616d65207374696c6c20706c6179696e6760701b604482015260640161033c565b610b0081610d94565b50565b60606007805480602002602001604051908101604052809291908181526020016000905b82821015610d8b576000848152602090819020604080516101608101909152600b8502909101805460ff16151582526001810180549293919291840191610b6d9061341c565b80601f0160208091040260200160405190810160405280929190818152602001828054610b999061341c565b8015610be65780601f10610bbb57610100808354040283529160200191610be6565b820191906000526020600020905b815481529060010190602001808311610bc957829003601f168201915b5050505050815260200160028201805480602002602001604051908101604052809291908181526020016000905b82821015610cc0578382906000526020600020018054610c339061341c565b80601f0160208091040260200160405190810160405280929190818152602001828054610c5f9061341c565b8015610cac5780601f10610c8157610100808354040283529160200191610cac565b820191906000526020600020905b815481529060010190602001808311610c8f57829003601f168201915b505050505081526020019060010190610c14565b50505050815260200160038201805480602002602001604051908101604052809291908181526020018280548015610d1757602002820191906000526020600020905b815481526020019060010190808311610d03575b505050918352505060048201546001600160a01b039081166020808401919091526005840154821660408401526006840154606084015260078401549091166080830152600883015460a0830152600983015460c0830152600a9092015460e0909101529082526001929092019101610b27565b50505050905090565b604051806040016040528060018152602001600b60fb1b81525060078281548110610dc157610dc1613565565b90600052602060002090600b02016001019081610dde91906134a5565b5060408051610140810182526000610120820181815282528251602081810185528282528084019190915283518082018552828152838501528351808201855282815260608401528351808201855282815260808401528351808201855282815260a08401528351808201855282815260c08401528351808201855282815260e0840152835190810190935282526101008101919091526007805483908110610e8957610e89613565565b90600052602060002090600b0201600201906009610ea8929190612e1d565b50600160078281548110610ebe57610ebe613565565b6000918252602091829020600b90910201805460ff1916921515929092179091556040518281527fc5478e3fe602c65e5cdd37abe42a8e007ff762d266b9e8256769194c1fa1361e91015b60405180910390a150565b60078181548110610f2757610f27613565565b60009182526020909120600b909102015460ff16610f875760405162461bcd60e51b815260206004820152601c60248201527f5468652067616d65207374696c6c206e6f742073746172742079657400000000604482015260640161033c565b61106760078281548110610f9d57610f9d613565565b90600052602060002090600b02016002018381548110610fbf57610fbf613565565b906000526020600020018054610fd49061341c565b80601f01602080910402602001604051908101604052809291908181526020018280546110009061341c565b801561104d5780601f106110225761010080835404028352916020019161104d565b820191906000526020600020905b81548152906001019060200180831161103057829003601f168201915b505050505060405180602001604052806000815250611f92565b6110a35760405162461bcd60e51b815260206004820152600d60248201526c125b9d985b1a59081a5b9c1d5d609a1b604482015260640161033c565b611172600782815481106110b9576110b9613565565b90600052602060002090600b020160010180546110d59061341c565b80601f01602080910402602001604051908101604052809291908181526020018280546111019061341c565b801561114e5780601f106111235761010080835404028352916020019161114e565b820191906000526020600020905b81548152906001019060200180831161113157829003601f168201915b5050505050604051806040016040528060018152602001600b60fb1b815250611f92565b156111f1576007818154811061118a5761118a613565565b60009182526020909120600b90910201600401546001600160a01b031633146111ec5760405162461bcd60e51b8152602060048201526014602482015273596f7520617265206e6f7420706c61796572203160601b604482015260640161033c565b611266565b6007818154811061120457611204613565565b60009182526020909120600b90910201600501546001600160a01b031633146112665760405162461bcd60e51b81526020600482015260146024820152732cb7ba9030b932903737ba10383630bcb2b9101960611b604482015260640161033c565b6007818154811061127957611279613565565b90600052602060002090600b02016001016007828154811061129d5761129d613565565b90600052602060002090600b020160020183815481106112bf576112bf613565565b9060005260206000200190816112d59190613594565b507f9659242f3970136bf08cba261398ae9f0bc58a676137d79d3c2040dcdacbc18b6007828154811061130a5761130a613565565b90600052602060002090600b02016002018260405161132a929190613745565b60405180910390a161133b8161222c565b5050565b6007818154811061134f57600080fd5b60009182526020909120600b90910201805460018201805460ff9092169350906113789061341c565b80601f01602080910402602001604051908101604052809291908181526020018280546113a49061341c565b80156113f15780601f106113c6576101008083540402835291602001916113f1565b820191906000526020600020905b8154815290600101906020018083116113d457829003601f168201915b505050600484015460058501546006860154600787015460088801546009890154600a9099015497986001600160a01b039586169894861697509295509316929189565b6006546001600160a01b0316331461147f5760405162461bcd60e51b815260206004820152600d60248201526c2737ba103a34329037bbb732b960991b604482015260640161033c565b600554600080546040516370a0823160e01b81523060048201529192916001600160a01b03909116906370a0823190602401602060405180830381865afa1580156114ce573d6000803e3d6000fd5b505050506040513d601f19601f820116820180604052508101906114f29190613348565b6114fc91906133b0565b116115425760405162461bcd60e51b815260206004820152601660248201527554686520746f6b656e206973206e6f7420657874726160501b604482015260640161033c565b6000546006546005546040516370a0823160e01b81523060048201526001600160a01b039384169363a9059cbb9316919084906370a0823190602401602060405180830381865afa15801561159b573d6000803e3d6000fd5b505050506040513d601f19601f820116820180604052508101906115bf9190613348565b6115c991906133b0565b6040516001600160e01b031960e085901b1681526001600160a01b03909216600483015260248201526044016020604051808303816000875af1158015611614573d6000803e3d6000fd5b505050506040513d601f19601f82011682018060405250810190610b0091906133e7565b611640612d09565b6007828154811061165357611653613565565b6000918252602091829020604080516101608101909152600b90920201805460ff161515825260018101805492939192918401916116909061341c565b80601f01602080910402602001604051908101604052809291908181526020018280546116bc9061341c565b80156117095780601f106116de57610100808354040283529160200191611709565b820191906000526020600020905b8154815290600101906020018083116116ec57829003601f168201915b5050505050815260200160028201805480602002602001604051908101604052809291908181526020016000905b828210156117e35783829060005260206000200180546117569061341c565b80601f01602080910402602001604051908101604052809291908181526020018280546117829061341c565b80156117cf5780601f106117a4576101008083540402835291602001916117cf565b820191906000526020600020905b8154815290600101906020018083116117b257829003601f168201915b505050505081526020019060010190611737565b5050505081526020016003820180548060200260200160405190810160405280929190818152602001828054801561183a57602002820191906000526020600020905b815481526020019060010190808311611826575b505050918352505060048201546001600160a01b039081166020830152600583015481166040830152600683015460608301526007830154166080820152600882015460a0820152600982015460c0820152600a9091015460e09091015292915050565b600654600160a01b900460ff16156118f05760405162461bcd60e51b8152602060048201526015602482015274115c9c9bdc8e881499595b9d1c985b9d0818d85b1b605a1b604482015260640161033c565b6006805460ff60a01b1916600160a01b179055600780548390811061191757611917613565565b90600052602060002090600b020160060154600103611e8e576007828154811061194357611943613565565b600091825260208220600b91909102016008015490546040516370a0823160e01b81523360048201526001600160a01b03909116906370a0823190602401602060405180830381865afa15801561199e573d6000803e3d6000fd5b505050506040513d601f19601f820116820180604052508101906119c29190613348565b1015611a055760405162461bcd60e51b81526020600482015260126024820152714e6f7420656e6f7567682062616c616e636560701b604482015260640161033c565b60078281548110611a1857611a18613565565b90600052602060002090600b0201600801548114611a785760405162461bcd60e51b815260206004820152601a60248201527f4e65656420746f20706179206d696e2062657420616d6f756e74000000000000604482015260640161033c565b6000606460035483611a8a9190613377565b611a94919061338e565b90506000606460045484611aa89190613377565b611ab2919061338e565b9050600081611ac184866133b0565b611acb91906133b0565b6000546040516323b872dd60e01b81529192506001600160a01b0316906323b872dd90611b0290339061dead9088906004016133c3565b6020604051808303816000875af1158015611b21573d6000803e3d6000fd5b505050506040513d601f19601f82011682018060405250810190611b4591906133e7565b506000546002546040516323b872dd60e01b81526001600160a01b03928316926323b872dd92611b7f9233929091169087906004016133c3565b6020604051808303816000875af1158015611b9e573d6000803e3d6000fd5b505050506040513d601f19601f82011682018060405250810190611bc291906133e7565b506000546040516323b872dd60e01b81526001600160a01b03909116906323b872dd90611bf7903390309086906004016133c3565b6020604051808303816000875af1158015611c16573d6000803e3d6000fd5b505050506040513d601f19601f82011682018060405250810190611c3a91906133e7565b508060056000828254611c4d9190613409565b90915550506007805486908110611c6657611c66613565565b600091825260209091206004600b9092020101546001600160a01b03163303611cdd5760405162461bcd60e51b8152602060048201526024808201527f4572726f723a20596f752063616e6e6f7420706c6179207769746820796f757260448201526339b2b63360e11b606482015260840161033c565b3360078681548110611cf157611cf1613565565b90600052602060002090600b020160050160006101000a8154816001600160a01b0302191690836001600160a01b03160217905550600260078681548110611d3b57611d3b613565565b90600052602060002090600b020160060181905550600160078681548110611d6557611d65613565565b90600052602060002090600b020160000160006101000a81548160ff0219169083151502179055508360078681548110611da157611da1613565565b90600052602060002090600b0201600901819055507f2f78808c539fd07cb45456a5d5561c76d3d4005246faccb297481e511abc321a60078681548110611dea57611dea613565565b90600052602060002090600b020160040160009054906101000a90046001600160a01b031660078781548110611e2257611e22613565565b6000918252602091829020600b91820201600501546040805160808082528101939093526a53746172742067616d652160a81b60a08401526001600160a01b039485169383019390935292909216908201526060810187905260c00160405180910390a1505050611f28565b60078281548110611ea157611ea1613565565b90600052602060002090600b020160060154600214611f285760405162461bcd60e51b815260206004820152603e60248201527f4e6f772071756575652069732066756c6c2c20747279206c617465722e20476160448201527f6d6520616c72656164792066756c6c20706c73206a6f696e206f746865720000606482015260840161033c565b7f50370b40bd566613cb1b12508c3114409e62c5c8de11be443cafc84462cf569960078381548110611f5c57611f5c613565565b90600052602060002090600b020183604051611f7992919061379c565b60405180910390a150506006805460ff60a01b19169055565b600081604051602001611fa5919061387c565b6040516020818303038152906040528051906020012083604051602001611fcc919061387c565b604051602081830303815290604052805190602001201490505b92915050565b60606007828154811061200157612001613565565b90600052602060002090600b0201600201805480602002602001604051908101604052809291908181526020016000905b828210156120de5783829060005260206000200180546120519061341c565b80601f016020809104026020016040519081016040528092919081815260200182805461207d9061341c565b80156120ca5780601f1061209f576101008083540402835291602001916120ca565b820191906000526020600020905b8154815290600101906020018083116120ad57829003601f168201915b505050505081526020019060010190612032565b505050509050919050565b6006546001600160a01b031633146121335760405162461bcd60e51b815260206004820152600d60248201526c2737ba103a34329037bbb732b960991b604482015260640161033c565b6000546006546040516370a0823160e01b81523060048201526001600160a01b039283169263a9059cbb92169083906370a0823190602401602060405180830381865afa158015612188573d6000803e3d6000fd5b505050506040513d601f19601f820116820180604052508101906115c99190613348565b6000600782815481106121c1576121c1613565565b60009182526020909120600b90910201600401546001600160a01b03163314806122195750600782815481106121f9576121f9613565565b60009182526020909120600b90910201600501546001600160a01b031633145b612224576000611fe6565b600192915050565b6000805b60085481101561275f5760006008828154811061224f5761224f613565565b906000526020600020018054806020026020016040519081016040528092919081815260200182805480156122a357602002820191906000526020600020905b81548152602001906001019080831161228f575b505050505090506000600785815481106122bf576122bf613565565b90600052602060002090600b0201600201826000815181106122e3576122e3613565565b6020026020010151815481106122fb576122fb613565565b9060005260206000200180546123109061341c565b80601f016020809104026020016040519081016040528092919081815260200182805461233c9061341c565b80156123895780601f1061235e57610100808354040283529160200191612389565b820191906000526020600020905b81548152906001019060200180831161236c57829003601f168201915b505050505090506000600786815481106123a5576123a5613565565b90600052602060002090600b0201600201836001815181106123c9576123c9613565565b6020026020010151815481106123e1576123e1613565565b9060005260206000200180546123f69061341c565b80601f01602080910402602001604051908101604052809291908181526020018280546124229061341c565b801561246f5780601f106124445761010080835404028352916020019161246f565b820191906000526020600020905b81548152906001019060200180831161245257829003601f168201915b5050505050905060006007878154811061248b5761248b613565565b90600052602060002090600b0201600201846002815181106124af576124af613565565b6020026020010151815481106124c7576124c7613565565b9060005260206000200180546124dc9061341c565b80601f01602080910402602001604051908101604052809291908181526020018280546125089061341c565b80156125555780601f1061252a57610100808354040283529160200191612555565b820191906000526020600020905b81548152906001019060200180831161253857829003601f168201915b505050505090506125758360405180602001604052806000815250611f92565b8061259457506125948260405180602001604052806000815250611f92565b806125b357506125b38160405180602001604052806000815250611f92565b156125c1575050505061274d565b6125cb8383611f92565b80156125dc57506125dc8282611f92565b156127485783600788815481106125f5576125f5613565565b90600052602060002090600b02016003019080519060200190612619929190612dd6565b50612630600788815481106110b9576110b9613565565b156126ba576007878154811061264857612648613565565b90600052602060002090600b020160040160009054906101000a90046001600160a01b03166007888154811061268057612680613565565b90600052602060002090600b020160070160006101000a8154816001600160a01b0302191690836001600160a01b0316021790555061273b565b600787815481106126cd576126cd613565565b90600052602060002090600b020160050160009054906101000a90046001600160a01b03166007888154811061270557612705613565565b90600052602060002090600b020160070160006101000a8154816001600160a01b0302191690836001600160a01b031602179055505b600195505050505061275f565b505050505b806127578161357b565b915050612230565b508015612a445761277c600783815481106110b9576110b9613565565b1561287657600054600780546001600160a01b039092169163a9059cbb9190859081106127ab576127ab613565565b90600052602060002090600b020160040160009054906101000a90046001600160a01b0316600785815481106127e3576127e3613565565b90600052602060002090600b0201600a015460026128019190613377565b6040516001600160e01b031960e085901b1681526001600160a01b03909216600483015260248201526044016020604051808303816000875af115801561284c573d6000803e3d6000fd5b505050506040513d601f19601f8201168201806040525081019061287091906133e7565b50612967565b600054600780546001600160a01b039092169163a9059cbb9190859081106128a0576128a0613565565b90600052602060002090600b020160050160009054906101000a90046001600160a01b0316600785815481106128d8576128d8613565565b90600052602060002090600b0201600a015460026128f69190613377565b6040516001600160e01b031960e085901b1681526001600160a01b03909216600483015260248201526044016020604051808303816000875af1158015612941573d6000803e3d6000fd5b505050506040513d601f19601f8201168201806040525081019061296591906133e7565b505b6007828154811061297a5761297a613565565b90600052602060002090600b0201600a015460026129989190613377565b600560008282546129a991906133b0565b925050819055507f938a1c44580c51d01225d61fb97878104148b1cdc734eb45bc5b5b50533a492d600783815481106129e4576129e4613565565b90600052602060002090600b020160010183604051612a04929190613898565b60405180910390a1600060078381548110612a2157612a21613565565b60009182526020909120600b90910201805460ff19169115159190911790555050565b612a4d82612aa9565b15612aa05760408051818152600491810191909152634472617760e01b6060820152602081018390527f938a1c44580c51d01225d61fb97878104148b1cdc734eb45bc5b5b50533a492d90608001612a04565b61133b82612b3d565b6000805b60078381548110612ac057612ac0613565565b90600052602060002090600b020160020180549050811015612b3457612b1460078481548110612af257612af2613565565b90600052602060002090600b02016002018281548110610fbf57610fbf613565565b15612b225750600092915050565b80612b2c8161357b565b915050612aad565b50600192915050565b612b53600782815481106110b9576110b9613565565b15612bc6577feefc3fd775b975165c9d067e02fcd5bf5889d58041ae6ddaf94f2cc85300727260078281548110612b8c57612b8c613565565b6000918252602091829020600b9091020160050154604080516001600160a01b0390921682529181018490520160405180910390a1612c30565b7feefc3fd775b975165c9d067e02fcd5bf5889d58041ae6ddaf94f2cc85300727260078281548110612bfa57612bfa613565565b6000918252602091829020600b9091020160040154604080516001600160a01b0390921682529181018490520160405180910390a15b612c46600782815481106110b9576110b9613565565b612c6957604051806040016040528060018152602001600b60fb1b815250612c84565b604051806040016040528060018152602001604f60f81b8152505b60078281548110612c9757612c97613565565b90600052602060002090600b02016001019081612cb491906134a5565b507fa6d1cb5f730b987124c37c3876130fddba49456449948ec4257360f5ab2851c060078281548110612ce957612ce9613565565b90600052602060002090600b020160010182604051610f09929190613898565b60405180610160016040528060001515815260200160608152602001606081526020016060815260200160006001600160a01b0316815260200160006001600160a01b031681526020016000815260200160006001600160a01b031681526020016000815260200160008152602001600081525090565b828054828255906000526020600020908101928215612dc6579160200282015b82811115612dc65782518290612db690826134a5565b5091602001919060010190612da0565b50612dd2929150612e63565b5090565b828054828255906000526020600020908101928215612e11579160200282015b82811115612e11578251825591602001919060010190612df6565b50612dd2929150612e80565b828054828255906000526020600020908101928215612dc6579160200282015b82811115612dc65782518290612e5390826134a5565b5091602001919060010190612e3d565b80821115612dd2576000612e778282612e95565b50600101612e63565b5b80821115612dd25760008155600101612e81565b508054612ea19061341c565b6000825580601f10612eb1575050565b601f016020900490600052602060002090810190610b009190612e80565b600060208284031215612ee157600080fd5b5035919050565b6020808252825182820181905260009190848201906040850190845b81811015612f2057835183529284019291840191600101612f04565b50909695505050505050565b60005b83811015612f47578181015183820152602001612f2f565b50506000910152565b60008151808452612f68816020860160208601612f2c565b601f01601f19169290920160200192915050565b600082825180855260208086019550808260051b84010181860160005b84811015612fc757601f19868403018952612fb5838351612f50565b98840198925090830190600101612f99565b5090979650505050505050565b600081518084526020808501945080840160005b8381101561300457815187529582019590820190600101612fe8565b509495945050505050565b8051151582526000610160602083015181602086015261303182860182612f50565b9150506040830151848203604086015261304b8282612f7c565b915050606083015184820360608601526130658282612fd4565b915050608083015161308260808601826001600160a01b03169052565b5060a083015161309d60a08601826001600160a01b03169052565b5060c083015160c085015260e08301516130c260e08601826001600160a01b03169052565b50610100838101519085015261012080840151908501526101409283015192909301919091525090565b6000602080830181845280855180835260408601915060408160051b870101925083870160005b8281101561314157603f1988860301845261312f85835161300f565b94509285019290850190600101613113565b5092979650505050505050565b6000806040838503121561316157600080fd5b50508035926020909101359150565b60006101208b1515835280602084015261318c8184018c612f50565b6001600160a01b039a8b166040850152988a166060840152505060808101959095529290951660a084015260c083015260e0820193909352610100019190915292915050565b6020815260006131e5602083018461300f565b9392505050565b634e487b7160e01b600052604160045260246000fd5b600082601f83011261321357600080fd5b813567ffffffffffffffff8082111561322e5761322e6131ec565b604051601f8301601f19908116603f01168101908282118183101715613256576132566131ec565b8160405283815286602085880101111561326f57600080fd5b836020870160208301376000602085830101528094505050505092915050565b600080604083850312156132a257600080fd5b823567ffffffffffffffff808211156132ba57600080fd5b6132c686838701613202565b935060208501359150808211156132dc57600080fd5b506132e985828601613202565b9150509250929050565b6000602080830181845280855180835260408601915060408160051b870101925083870160005b8281101561314157603f19888603018452613336858351612f50565b9450928501929085019060010161331a565b60006020828403121561335a57600080fd5b5051919050565b634e487b7160e01b600052601160045260246000fd5b8082028115828204841417611fe657611fe6613361565b6000826133ab57634e487b7160e01b600052601260045260246000fd5b500490565b81810381811115611fe657611fe6613361565b6001600160a01b039384168152919092166020820152604081019190915260600190565b6000602082840312156133f957600080fd5b815180151581146131e557600080fd5b80820180821115611fe657611fe6613361565b600181811c9082168061343057607f821691505b60208210810361345057634e487b7160e01b600052602260045260246000fd5b50919050565b601f8211156134a057600081815260208120601f850160051c8101602086101561347d5750805b601f850160051c820191505b8181101561349c57828155600101613489565b5050505b505050565b815167ffffffffffffffff8111156134bf576134bf6131ec565b6134d3816134cd845461341c565b84613456565b602080601f83116001811461350857600084156134f05750858301515b600019600386901b1c1916600185901b17855561349c565b600085815260208120601f198616915b8281101561353757888601518255948401946001909101908401613518565b50858210156135555787850151600019600388901b60f8161c191681555b5050505050600190811b01905550565b634e487b7160e01b600052603260045260246000fd5b60006001820161358d5761358d613361565b5060010190565b81810361359f575050565b6135a9825461341c565b67ffffffffffffffff8111156135c1576135c16131ec565b6135cf816134cd845461341c565b6000601f82116001811461360357600083156135eb5750848201545b600019600385901b1c1916600184901b178455613668565b600085815260209020601f19841690600086815260209020845b8381101561363d578286015482556001958601959091019060200161361d565b508583101561365b5781850154600019600388901b60f8161c191681555b50505060018360011b0184555b5050505050565b6000815461367c8161341c565b80855260206001838116801561369957600181146136b3576136e1565b60ff1985168884015283151560051b8801830195506136e1565b866000528260002060005b858110156136d95781548a82018601529083019084016136be565b890184019650505b505050505092915050565b600081548084526020808501808196508360051b81019150856000528260002060005b85811015613738578284038952613726848361366f565b9885019893506001918201910161370f565b5091979650505050505050565b60408152600061375860408301856136ec565b90508260208301529392505050565b6000815480845260208085019450836000528060002060005b8381101561300457815487529582019560019182019101613780565b604081526137b8604082016137b2855460ff1690565b15159052565b60006101608060608401526137d46101a084016001870161366f565b603f19808583030160808601526137ee82600289016136ec565b9150808583030160a0860152506138088160038801613767565b905061381e60048701546001600160a01b031690565b6001600160a01b0390811660c08601526005870154811660e086015260068701546101008601526007870154166101208501526008860154610140850152600986015491840191909152600a90940154610180830152506020015290565b6000825161388e818460208701612f2c565b9190910192915050565b604081526000613758604083018561366f56fea2646970667358221220c33b4be4a581132895858604d8e41f08cb345b6cc9367a220773b0a4e838644664736f6c63430008130033",
					"opcodes": "PUSH1 0x0 DUP1 SLOAD PUSH1 0x1 PUSH1 0x1 PUSH1 0xA0 SHL SUB NOT SWAP1 DUP2 AND PUSH20 0xC6BDDCD0DA1C50281F02A57B8D2ADA2EBF76AEC7 OR DUP3 SSTORE PUSH8 0x8AC7230489E80000 PUSH1 0x1 SWAP1 DUP2 SSTORE PUSH1 0x2 DUP1 SLOAD SWAP1 SWAP3 AND PUSH20 0x3CE5A8A72820585C60F659896338D57347196991 OR DUP3 SSTORE PUSH1 0x5 PUSH1 0x3 DUP2 DUP2 SSTORE PUSH1 0x4 DUP3 DUP2 SSTORE PUSH2 0x180 DUP7 DUP2 MSTORE PUSH2 0x1A0 DUP6 SWAP1 MSTORE PUSH2 0x1C0 DUP7 SWAP1 MSTORE PUSH1 0x80 SWAP1 DUP2 MSTORE PUSH2 0x1E0 DUP4 DUP2 MSTORE PUSH2 0x200 DUP4 SWAP1 MSTORE PUSH2 0x220 DUP6 SWAP1 MSTORE PUSH1 0xA0 MSTORE PUSH1 0x6 PUSH2 0x240 DUP2 DUP2 MSTORE PUSH1 0x7 PUSH2 0x260 DUP2 SWAP1 MSTORE PUSH1 0x8 PUSH2 0x280 DUP2 SWAP1 MSTORE PUSH1 0xC0 SWAP3 SWAP1 SWAP3 MSTORE PUSH2 0x2A0 DUP11 DUP2 MSTORE PUSH2 0x2C0 SWAP7 SWAP1 SWAP7 MSTORE PUSH2 0x2E0 DUP4 SWAP1 MSTORE PUSH1 0xE0 SWAP6 SWAP1 SWAP6 MSTORE PUSH2 0x300 SWAP7 DUP8 MSTORE PUSH2 0x320 DUP5 SWAP1 MSTORE PUSH2 0x340 SWAP5 SWAP1 SWAP5 MSTORE PUSH2 0x100 SWAP6 SWAP1 SWAP6 MSTORE PUSH2 0x360 DUP7 DUP2 MSTORE PUSH2 0x380 SWAP5 SWAP1 SWAP5 MSTORE PUSH2 0x3A0 DUP4 SWAP1 MSTORE PUSH2 0x120 SWAP4 SWAP1 SWAP4 MSTORE PUSH2 0x3C0 SWAP6 DUP7 MSTORE PUSH2 0x3E0 DUP2 SWAP1 MSTORE PUSH2 0x400 DUP3 SWAP1 MSTORE PUSH2 0x140 SWAP6 SWAP1 SWAP6 MSTORE PUSH2 0x480 PUSH1 0x40 MSTORE PUSH2 0x420 SWAP4 DUP5 MSTORE PUSH2 0x440 SWAP5 SWAP1 SWAP5 MSTORE PUSH2 0x460 SWAP2 SWAP1 SWAP2 MSTORE PUSH2 0x160 SWAP2 SWAP1 SWAP2 MSTORE PUSH3 0x13E SWAP2 SWAP1 DUP2 PUSH3 0x165 JUMP JUMPDEST POP CALLVALUE DUP1 ISZERO PUSH3 0x14C JUMPI PUSH1 0x0 DUP1 REVERT JUMPDEST POP PUSH1 0x6 DUP1 SLOAD PUSH1 0x1 PUSH1 0x1 PUSH1 0xA0 SHL SUB NOT AND CALLER OR SWAP1 SSTORE PUSH3 0x26F JUMP JUMPDEST DUP3 DUP1 SLOAD DUP3 DUP3 SSTORE SWAP1 PUSH1 0x0 MSTORE PUSH1 0x20 PUSH1 0x0 KECCAK256 SWAP1 DUP2 ADD SWAP3 DUP3 ISZERO PUSH3 0x1B1 JUMPI SWAP2 PUSH1 0x20 MUL DUP3 ADD JUMPDEST DUP3 DUP2 GT ISZERO PUSH3 0x1B1 JUMPI DUP3 MLOAD PUSH3 0x1A0 SWAP1 DUP4 SWAP1 PUSH1 0x3 PUSH3 0x1C3 JUMP JUMPDEST POP SWAP2 PUSH1 0x20 ADD SWAP2 SWAP1 PUSH1 0x1 ADD SWAP1 PUSH3 0x186 JUMP JUMPDEST POP PUSH3 0x1BF SWAP3 SWAP2 POP PUSH3 0x214 JUMP JUMPDEST POP SWAP1 JUMP JUMPDEST DUP3 DUP1 SLOAD DUP3 DUP3 SSTORE SWAP1 PUSH1 0x0 MSTORE PUSH1 0x20 PUSH1 0x0 KECCAK256 SWAP1 DUP2 ADD SWAP3 DUP3 ISZERO PUSH3 0x206 JUMPI SWAP2 PUSH1 0x20 MUL DUP3 ADD JUMPDEST DUP3 DUP2 GT ISZERO PUSH3 0x206 JUMPI DUP3 MLOAD DUP3 SWAP1 PUSH1 0xFF AND SWAP1 SSTORE SWAP2 PUSH1 0x20 ADD SWAP2 SWAP1 PUSH1 0x1 ADD SWAP1 PUSH3 0x1E4 JUMP JUMPDEST POP PUSH3 0x1BF SWAP3 SWAP2 POP PUSH3 0x235 JUMP JUMPDEST DUP1 DUP3 GT ISZERO PUSH3 0x1BF JUMPI PUSH1 0x0 PUSH3 0x22B DUP3 DUP3 PUSH3 0x24C JUMP JUMPDEST POP PUSH1 0x1 ADD PUSH3 0x214 JUMP JUMPDEST JUMPDEST DUP1 DUP3 GT ISZERO PUSH3 0x1BF JUMPI PUSH1 0x0 DUP2 SSTORE PUSH1 0x1 ADD PUSH3 0x236 JUMP JUMPDEST POP DUP1 SLOAD PUSH1 0x0 DUP3 SSTORE SWAP1 PUSH1 0x0 MSTORE PUSH1 0x20 PUSH1 0x0 KECCAK256 SWAP1 DUP2 ADD SWAP1 PUSH3 0x26C SWAP2 SWAP1 PUSH3 0x235 JUMP JUMPDEST POP JUMP JUMPDEST PUSH2 0x38E1 DUP1 PUSH3 0x27F PUSH1 0x0 CODECOPY PUSH1 0x0 RETURN INVALID PUSH1 0x80 PUSH1 0x40 MSTORE CALLVALUE DUP1 ISZERO PUSH2 0x10 JUMPI PUSH1 0x0 DUP1 REVERT JUMPDEST POP PUSH1 0x4 CALLDATASIZE LT PUSH2 0x12C JUMPI PUSH1 0x0 CALLDATALOAD PUSH1 0xE0 SHR DUP1 PUSH4 0x888B042F GT PUSH2 0xAD JUMPI DUP1 PUSH4 0xCC32D176 GT PUSH2 0x71 JUMPI DUP1 PUSH4 0xCC32D176 EQ PUSH2 0x2AB JUMPI DUP1 PUSH4 0xDC572C6E EQ PUSH2 0x2B4 JUMPI DUP1 PUSH4 0xEDB84FF7 EQ PUSH2 0x2D4 JUMPI DUP1 PUSH4 0xFA968EEA EQ PUSH2 0x2DC JUMPI DUP1 PUSH4 0xFCE589D8 EQ PUSH2 0x2E5 JUMPI PUSH1 0x0 DUP1 REVERT JUMPDEST DUP1 PUSH4 0x888B042F EQ PUSH2 0x23A JUMPI DUP1 PUSH4 0x8DA5CB5B EQ PUSH2 0x242 JUMPI DUP1 PUSH4 0xB2182BE4 EQ PUSH2 0x255 JUMPI DUP1 PUSH4 0xB60B9FCB EQ PUSH2 0x275 JUMPI DUP1 PUSH4 0xBED34BBA EQ PUSH2 0x288 JUMPI PUSH1 0x0 DUP1 REVERT JUMPDEST DUP1 PUSH4 0x4A968391 GT PUSH2 0xF4 JUMPI DUP1 PUSH4 0x4A968391 EQ PUSH2 0x1AE JUMPI DUP1 PUSH4 0x52BC3410 EQ PUSH2 0x1C1 JUMPI DUP1 PUSH4 0x61D027B3 EQ PUSH2 0x1D4 JUMPI DUP1 PUSH4 0x7EFFB427 EQ PUSH2 0x1FF JUMPI DUP1 PUSH4 0x87052FAB EQ PUSH2 0x212 JUMPI PUSH1 0x0 DUP1 REVERT JUMPDEST DUP1 PUSH4 0x6139E8D EQ PUSH2 0x131 JUMPI DUP1 PUSH4 0x17B44960 EQ PUSH2 0x146 JUMPI DUP1 PUSH4 0x1A39D8EF EQ PUSH2 0x16F JUMPI DUP1 PUSH4 0x34FD3518 EQ PUSH2 0x186 JUMPI DUP1 PUSH4 0x491F0136 EQ PUSH2 0x199 JUMPI JUMPDEST PUSH1 0x0 DUP1 REVERT JUMPDEST PUSH2 0x144 PUSH2 0x13F CALLDATASIZE PUSH1 0x4 PUSH2 0x2ECF JUMP JUMPDEST PUSH2 0x2EE JUMP JUMPDEST STOP JUMPDEST PUSH2 0x159 PUSH2 0x154 CALLDATASIZE PUSH1 0x4 PUSH2 0x2ECF JUMP JUMPDEST PUSH2 0x9BD JUMP JUMPDEST PUSH1 0x40 MLOAD PUSH2 0x166 SWAP2 SWAP1 PUSH2 0x2EE8 JUMP JUMPDEST PUSH1 0x40 MLOAD DUP1 SWAP2 SUB SWAP1 RETURN JUMPDEST PUSH2 0x178 PUSH1 0x5 SLOAD DUP2 JUMP JUMPDEST PUSH1 0x40 MLOAD SWAP1 DUP2 MSTORE PUSH1 0x20 ADD PUSH2 0x166 JUMP JUMPDEST PUSH2 0x144 PUSH2 0x194 CALLDATASIZE PUSH1 0x4 PUSH2 0x2ECF JUMP JUMPDEST PUSH2 0xA39 JUMP JUMPDEST PUSH2 0x1A1 PUSH2 0xB03 JUMP JUMPDEST PUSH1 0x40 MLOAD PUSH2 0x166 SWAP2 SWAP1 PUSH2 0x30EC JUMP JUMPDEST PUSH2 0x144 PUSH2 0x1BC CALLDATASIZE PUSH1 0x4 PUSH2 0x2ECF JUMP JUMPDEST PUSH2 0xD94 JUMP JUMPDEST PUSH2 0x144 PUSH2 0x1CF CALLDATASIZE PUSH1 0x4 PUSH2 0x314E JUMP JUMPDEST PUSH2 0xF14 JUMP JUMPDEST PUSH1 0x2 SLOAD PUSH2 0x1E7 SWAP1 PUSH1 0x1 PUSH1 0x1 PUSH1 0xA0 SHL SUB AND DUP2 JUMP JUMPDEST PUSH1 0x40 MLOAD PUSH1 0x1 PUSH1 0x1 PUSH1 0xA0 SHL SUB SWAP1 SWAP2 AND DUP2 MSTORE PUSH1 0x20 ADD PUSH2 0x166 JUMP JUMPDEST PUSH1 0x0 SLOAD PUSH2 0x1E7 SWAP1 PUSH1 0x1 PUSH1 0x1 PUSH1 0xA0 SHL SUB AND DUP2 JUMP JUMPDEST PUSH2 0x225 PUSH2 0x220 CALLDATASIZE PUSH1 0x4 PUSH2 0x2ECF JUMP JUMPDEST PUSH2 0x133F JUMP JUMPDEST PUSH1 0x40 MLOAD PUSH2 0x166 SWAP10 SWAP9 SWAP8 SWAP7 SWAP6 SWAP5 SWAP4 SWAP3 SWAP2 SWAP1 PUSH2 0x3170 JUMP JUMPDEST PUSH2 0x144 PUSH2 0x1435 JUMP JUMPDEST PUSH1 0x6 SLOAD PUSH2 0x1E7 SWAP1 PUSH1 0x1 PUSH1 0x1 PUSH1 0xA0 SHL SUB AND DUP2 JUMP JUMPDEST PUSH2 0x268 PUSH2 0x263 CALLDATASIZE PUSH1 0x4 PUSH2 0x2ECF JUMP JUMPDEST PUSH2 0x1638 JUMP JUMPDEST PUSH1 0x40 MLOAD PUSH2 0x166 SWAP2 SWAP1 PUSH2 0x31D2 JUMP JUMPDEST PUSH2 0x144 PUSH2 0x283 CALLDATASIZE PUSH1 0x4 PUSH2 0x314E JUMP JUMPDEST PUSH2 0x189E JUMP JUMPDEST PUSH2 0x29B PUSH2 0x296 CALLDATASIZE PUSH1 0x4 PUSH2 0x328F JUMP JUMPDEST PUSH2 0x1F92 JUMP JUMPDEST PUSH1 0x40 MLOAD SWAP1 ISZERO ISZERO DUP2 MSTORE PUSH1 0x20 ADD PUSH2 0x166 JUMP JUMPDEST PUSH2 0x178 PUSH1 0x4 SLOAD DUP2 JUMP JUMPDEST PUSH2 0x2C7 PUSH2 0x2C2 CALLDATASIZE PUSH1 0x4 PUSH2 0x2ECF JUMP JUMPDEST PUSH2 0x1FEC JUMP JUMPDEST PUSH1 0x40 MLOAD PUSH2 0x166 SWAP2 SWAP1 PUSH2 0x32F3 JUMP JUMPDEST PUSH2 0x144 PUSH2 0x20E9 JUMP JUMPDEST PUSH2 0x178 PUSH1 0x1 SLOAD DUP2 JUMP JUMPDEST PUSH2 0x178 PUSH1 0x3 SLOAD DUP2 JUMP JUMPDEST PUSH1 0x6 SLOAD PUSH1 0x1 PUSH1 0xA0 SHL SWAP1 DIV PUSH1 0xFF AND ISZERO PUSH2 0x345 JUMPI PUSH1 0x40 MLOAD PUSH3 0x461BCD PUSH1 0xE5 SHL DUP2 MSTORE PUSH1 0x20 PUSH1 0x4 DUP3 ADD MSTORE PUSH1 0x15 PUSH1 0x24 DUP3 ADD MSTORE PUSH21 0x115C9C9BDC8E881499595B9D1C985B9D0818D85B1B PUSH1 0x5A SHL PUSH1 0x44 DUP3 ADD MSTORE PUSH1 0x64 ADD JUMPDEST PUSH1 0x40 MLOAD DUP1 SWAP2 SUB SWAP1 REVERT JUMPDEST PUSH1 0x6 DUP1 SLOAD PUSH1 0xFF PUSH1 0xA0 SHL NOT AND PUSH1 0x1 PUSH1 0xA0 SHL OR SWAP1 SSTORE PUSH1 0x0 SLOAD PUSH1 0x40 MLOAD PUSH4 0x70A08231 PUSH1 0xE0 SHL DUP2 MSTORE CALLER PUSH1 0x4 DUP3 ADD MSTORE DUP3 SWAP2 PUSH1 0x1 PUSH1 0x1 PUSH1 0xA0 SHL SUB AND SWAP1 PUSH4 0x70A08231 SWAP1 PUSH1 0x24 ADD PUSH1 0x20 PUSH1 0x40 MLOAD DUP1 DUP4 SUB DUP2 DUP7 GAS STATICCALL ISZERO DUP1 ISZERO PUSH2 0x3A0 JUMPI RETURNDATASIZE PUSH1 0x0 DUP1 RETURNDATACOPY RETURNDATASIZE PUSH1 0x0 REVERT JUMPDEST POP POP POP POP PUSH1 0x40 MLOAD RETURNDATASIZE PUSH1 0x1F NOT PUSH1 0x1F DUP3 ADD AND DUP3 ADD DUP1 PUSH1 0x40 MSTORE POP DUP2 ADD SWAP1 PUSH2 0x3C4 SWAP2 SWAP1 PUSH2 0x3348 JUMP JUMPDEST LT ISZERO PUSH2 0x407 JUMPI PUSH1 0x40 MLOAD PUSH3 0x461BCD PUSH1 0xE5 SHL DUP2 MSTORE PUSH1 0x20 PUSH1 0x4 DUP3 ADD MSTORE PUSH1 0x12 PUSH1 0x24 DUP3 ADD MSTORE PUSH18 0x4E6F7420656E6F7567682062616C616E6365 PUSH1 0x70 SHL PUSH1 0x44 DUP3 ADD MSTORE PUSH1 0x64 ADD PUSH2 0x33C JUMP JUMPDEST PUSH1 0x1 SLOAD DUP2 LT ISZERO PUSH2 0x459 JUMPI PUSH1 0x40 MLOAD PUSH3 0x461BCD PUSH1 0xE5 SHL DUP2 MSTORE PUSH1 0x20 PUSH1 0x4 DUP3 ADD MSTORE PUSH1 0x1A PUSH1 0x24 DUP3 ADD MSTORE PUSH32 0x4E65656420746F20706179206D696E2062657420616D6F756E74000000000000 PUSH1 0x44 DUP3 ADD MSTORE PUSH1 0x64 ADD PUSH2 0x33C JUMP JUMPDEST PUSH1 0x0 PUSH1 0x64 PUSH1 0x3 SLOAD DUP4 PUSH2 0x46B SWAP2 SWAP1 PUSH2 0x3377 JUMP JUMPDEST PUSH2 0x475 SWAP2 SWAP1 PUSH2 0x338E JUMP JUMPDEST SWAP1 POP PUSH1 0x0 PUSH1 0x64 PUSH1 0x4 SLOAD DUP5 PUSH2 0x489 SWAP2 SWAP1 PUSH2 0x3377 JUMP JUMPDEST PUSH2 0x493 SWAP2 SWAP1 PUSH2 0x338E JUMP JUMPDEST SWAP1 POP PUSH1 0x0 DUP2 PUSH2 0x4A2 DUP5 DUP7 PUSH2 0x33B0 JUMP JUMPDEST PUSH2 0x4AC SWAP2 SWAP1 PUSH2 0x33B0 JUMP JUMPDEST PUSH1 0x0 SLOAD PUSH1 0x40 MLOAD PUSH4 0x23B872DD PUSH1 0xE0 SHL DUP2 MSTORE SWAP2 SWAP3 POP PUSH1 0x1 PUSH1 0x1 PUSH1 0xA0 SHL SUB AND SWAP1 PUSH4 0x23B872DD SWAP1 PUSH2 0x4E3 SWAP1 CALLER SWAP1 PUSH2 0xDEAD SWAP1 DUP9 SWAP1 PUSH1 0x4 ADD PUSH2 0x33C3 JUMP JUMPDEST PUSH1 0x20 PUSH1 0x40 MLOAD DUP1 DUP4 SUB DUP2 PUSH1 0x0 DUP8 GAS CALL ISZERO DUP1 ISZERO PUSH2 0x502 JUMPI RETURNDATASIZE PUSH1 0x0 DUP1 RETURNDATACOPY RETURNDATASIZE PUSH1 0x0 REVERT JUMPDEST POP POP POP POP PUSH1 0x40 MLOAD RETURNDATASIZE PUSH1 0x1F NOT PUSH1 0x1F DUP3 ADD AND DUP3 ADD DUP1 PUSH1 0x40 MSTORE POP DUP2 ADD SWAP1 PUSH2 0x526 SWAP2 SWAP1 PUSH2 0x33E7 JUMP JUMPDEST POP PUSH1 0x0 SLOAD PUSH1 0x2 SLOAD PUSH1 0x40 MLOAD PUSH4 0x23B872DD PUSH1 0xE0 SHL DUP2 MSTORE PUSH1 0x1 PUSH1 0x1 PUSH1 0xA0 SHL SUB SWAP3 DUP4 AND SWAP3 PUSH4 0x23B872DD SWAP3 PUSH2 0x560 SWAP3 CALLER SWAP3 SWAP1 SWAP2 AND SWAP1 DUP8 SWAP1 PUSH1 0x4 ADD PUSH2 0x33C3 JUMP JUMPDEST PUSH1 0x20 PUSH1 0x40 MLOAD DUP1 DUP4 SUB DUP2 PUSH1 0x0 DUP8 GAS CALL ISZERO DUP1 ISZERO PUSH2 0x57F JUMPI RETURNDATASIZE PUSH1 0x0 DUP1 RETURNDATACOPY RETURNDATASIZE PUSH1 0x0 REVERT JUMPDEST POP POP POP POP PUSH1 0x40 MLOAD RETURNDATASIZE PUSH1 0x1F NOT PUSH1 0x1F DUP3 ADD AND DUP3 ADD DUP1 PUSH1 0x40 MSTORE POP DUP2 ADD SWAP1 PUSH2 0x5A3 SWAP2 SWAP1 PUSH2 0x33E7 JUMP JUMPDEST POP PUSH1 0x0 SLOAD PUSH1 0x40 MLOAD PUSH4 0x23B872DD PUSH1 0xE0 SHL DUP2 MSTORE PUSH1 0x1 PUSH1 0x1 PUSH1 0xA0 SHL SUB SWAP1 SWAP2 AND SWAP1 PUSH4 0x23B872DD SWAP1 PUSH2 0x5D8 SWAP1 CALLER SWAP1 ADDRESS SWAP1 DUP7 SWAP1 PUSH1 0x4 ADD PUSH2 0x33C3 JUMP JUMPDEST PUSH1 0x20 PUSH1 0x40 MLOAD DUP1 DUP4 SUB DUP2 PUSH1 0x0 DUP8 GAS CALL ISZERO DUP1 ISZERO PUSH2 0x5F7 JUMPI RETURNDATASIZE PUSH1 0x0 DUP1 RETURNDATACOPY RETURNDATASIZE PUSH1 0x0 REVERT JUMPDEST POP POP POP POP PUSH1 0x40 MLOAD RETURNDATASIZE PUSH1 0x1F NOT PUSH1 0x1F DUP3 ADD AND DUP3 ADD DUP1 PUSH1 0x40 MSTORE POP DUP2 ADD SWAP1 PUSH2 0x61B SWAP2 SWAP1 PUSH2 0x33E7 JUMP JUMPDEST POP DUP1 PUSH1 0x5 PUSH1 0x0 DUP3 DUP3 SLOAD PUSH2 0x62E SWAP2 SWAP1 PUSH2 0x3409 JUMP JUMPDEST SWAP1 SWAP2 SSTORE POP PUSH2 0x63C SWAP1 POP PUSH2 0x2D09 JUMP JUMPDEST PUSH1 0x7 DUP1 SLOAD PUSH1 0x1 DUP2 ADD DUP3 SSTORE PUSH1 0x0 SWAP2 SWAP1 SWAP2 MSTORE DUP2 MLOAD PUSH32 0xA66CC928B5EDB82AF9BD49922954155AB7B0942694BEA4CE44661D9A8736C688 PUSH1 0xB SWAP1 SWAP3 MUL SWAP2 DUP3 ADD DUP1 SLOAD PUSH1 0xFF NOT AND SWAP2 ISZERO ISZERO SWAP2 SWAP1 SWAP2 OR DUP2 SSTORE PUSH1 0x20 DUP4 ADD MLOAD DUP4 SWAP3 PUSH32 0xA66CC928B5EDB82AF9BD49922954155AB7B0942694BEA4CE44661D9A8736C689 ADD SWAP1 PUSH2 0x6BA SWAP1 DUP3 PUSH2 0x34A5 JUMP JUMPDEST POP PUSH1 0x40 DUP3 ADD MLOAD DUP1 MLOAD PUSH2 0x6D6 SWAP2 PUSH1 0x2 DUP5 ADD SWAP2 PUSH1 0x20 SWAP1 SWAP2 ADD SWAP1 PUSH2 0x2D80 JUMP JUMPDEST POP PUSH1 0x60 DUP3 ADD MLOAD DUP1 MLOAD PUSH2 0x6F2 SWAP2 PUSH1 0x3 DUP5 ADD SWAP2 PUSH1 0x20 SWAP1 SWAP2 ADD SWAP1 PUSH2 0x2DD6 JUMP JUMPDEST POP PUSH1 0x80 DUP3 ADD MLOAD PUSH1 0x4 DUP3 ADD DUP1 SLOAD PUSH1 0x1 PUSH1 0x1 PUSH1 0xA0 SHL SUB NOT SWAP1 DUP2 AND PUSH1 0x1 PUSH1 0x1 PUSH1 0xA0 SHL SUB SWAP4 DUP5 AND OR SWAP1 SWAP2 SSTORE PUSH1 0xA0 DUP5 ADD MLOAD PUSH1 0x5 DUP5 ADD DUP1 SLOAD DUP4 AND SWAP2 DUP5 AND SWAP2 SWAP1 SWAP2 OR SWAP1 SSTORE PUSH1 0xC0 DUP5 ADD MLOAD PUSH1 0x6 DUP5 ADD SSTORE PUSH1 0xE0 DUP5 ADD MLOAD PUSH1 0x7 DUP1 DUP6 ADD DUP1 SLOAD SWAP1 SWAP4 AND SWAP2 SWAP1 SWAP4 AND OR SWAP1 SSTORE PUSH2 0x100 DUP4 ADD MLOAD PUSH1 0x8 DUP4 ADD SSTORE PUSH2 0x120 DUP4 ADD MLOAD PUSH1 0x9 DUP4 ADD SSTORE PUSH2 0x140 SWAP1 SWAP3 ADD MLOAD PUSH1 0xA SWAP1 SWAP2 ADD SSTORE DUP1 SLOAD SWAP1 CALLER SWAP1 PUSH2 0x782 PUSH1 0x1 DUP5 PUSH2 0x33B0 JUMP JUMPDEST DUP2 SLOAD DUP2 LT PUSH2 0x792 JUMPI PUSH2 0x792 PUSH2 0x3565 JUMP JUMPDEST PUSH1 0x0 SWAP2 DUP3 MSTORE PUSH1 0x20 DUP3 KECCAK256 PUSH1 0xB SWAP2 SWAP1 SWAP2 MUL ADD PUSH1 0x4 ADD DUP1 SLOAD PUSH1 0x1 PUSH1 0x1 PUSH1 0xA0 SHL SUB NOT AND PUSH1 0x1 PUSH1 0x1 PUSH1 0xA0 SHL SUB SWAP4 SWAP1 SWAP4 AND SWAP3 SWAP1 SWAP3 OR SWAP1 SWAP2 SSTORE PUSH1 0x7 PUSH2 0x7D1 PUSH1 0x1 DUP5 PUSH2 0x33B0 JUMP JUMPDEST DUP2 SLOAD DUP2 LT PUSH2 0x7E1 JUMPI PUSH2 0x7E1 PUSH2 0x3565 JUMP JUMPDEST PUSH1 0x0 SWAP2 DUP3 MSTORE PUSH1 0x20 SWAP1 SWAP2 KECCAK256 PUSH1 0xB SWAP1 SWAP2 MUL ADD DUP1 SLOAD PUSH1 0xFF NOT AND SWAP2 ISZERO ISZERO SWAP2 SWAP1 SWAP2 OR SWAP1 SSTORE PUSH1 0x1 PUSH1 0x7 PUSH2 0x80E DUP3 DUP5 PUSH2 0x33B0 JUMP JUMPDEST DUP2 SLOAD DUP2 LT PUSH2 0x81E JUMPI PUSH2 0x81E PUSH2 0x3565 JUMP JUMPDEST SWAP1 PUSH1 0x0 MSTORE PUSH1 0x20 PUSH1 0x0 KECCAK256 SWAP1 PUSH1 0xB MUL ADD PUSH1 0x6 ADD DUP2 SWAP1 SSTORE POP PUSH1 0x40 MLOAD DUP1 PUSH1 0x40 ADD PUSH1 0x40 MSTORE DUP1 PUSH1 0x1 DUP2 MSTORE PUSH1 0x20 ADD PUSH1 0xB PUSH1 0xFB SHL DUP2 MSTORE POP PUSH1 0x7 PUSH1 0x1 DUP4 PUSH2 0x85C SWAP2 SWAP1 PUSH2 0x33B0 JUMP JUMPDEST DUP2 SLOAD DUP2 LT PUSH2 0x86C JUMPI PUSH2 0x86C PUSH2 0x3565 JUMP JUMPDEST SWAP1 PUSH1 0x0 MSTORE PUSH1 0x20 PUSH1 0x0 KECCAK256 SWAP1 PUSH1 0xB MUL ADD PUSH1 0x1 ADD SWAP1 DUP2 PUSH2 0x889 SWAP2 SWAP1 PUSH2 0x34A5 JUMP JUMPDEST POP DUP6 PUSH1 0x7 PUSH2 0x898 PUSH1 0x1 DUP5 PUSH2 0x33B0 JUMP JUMPDEST DUP2 SLOAD DUP2 LT PUSH2 0x8A8 JUMPI PUSH2 0x8A8 PUSH2 0x3565 JUMP JUMPDEST PUSH1 0x0 SWAP2 DUP3 MSTORE PUSH1 0x20 SWAP1 SWAP2 KECCAK256 PUSH1 0x8 PUSH1 0xB SWAP1 SWAP3 MUL ADD ADD SSTORE DUP3 PUSH1 0x7 PUSH2 0x8CA PUSH1 0x1 DUP5 PUSH2 0x33B0 JUMP JUMPDEST DUP2 SLOAD DUP2 LT PUSH2 0x8DA JUMPI PUSH2 0x8DA PUSH2 0x3565 JUMP JUMPDEST SWAP1 PUSH1 0x0 MSTORE PUSH1 0x20 PUSH1 0x0 KECCAK256 SWAP1 PUSH1 0xB MUL ADD PUSH1 0xA ADD DUP2 SWAP1 SSTORE POP PUSH1 0x0 JUMPDEST PUSH1 0x9 DUP2 LT ISZERO PUSH2 0x96A JUMPI PUSH1 0x7 PUSH2 0x908 PUSH1 0x1 DUP5 PUSH2 0x33B0 JUMP JUMPDEST DUP2 SLOAD DUP2 LT PUSH2 0x918 JUMPI PUSH2 0x918 PUSH2 0x3565 JUMP JUMPDEST PUSH1 0x0 SWAP2 DUP3 MSTORE PUSH1 0x20 DUP1 DUP4 KECCAK256 PUSH1 0x2 PUSH1 0xB SWAP1 SWAP4 MUL ADD SWAP2 SWAP1 SWAP2 ADD DUP1 SLOAD PUSH1 0x1 DUP2 ADD DUP3 SSTORE SWAP1 DUP4 MSTORE DUP2 DUP4 KECCAK256 PUSH1 0x40 DUP1 MLOAD SWAP4 DUP5 ADD SWAP1 MSTORE SWAP3 DUP3 MSTORE SWAP2 SWAP1 SWAP2 ADD SWAP1 PUSH2 0x957 SWAP1 DUP3 PUSH2 0x34A5 JUMP JUMPDEST POP DUP1 PUSH2 0x962 DUP2 PUSH2 0x357B JUMP JUMPDEST SWAP2 POP POP PUSH2 0x8F2 JUMP JUMPDEST POP PUSH32 0xBBBA82573073A1190D559566D39447B5E1AD7724B88B63BC98867D229A645B6B PUSH2 0x997 PUSH1 0x1 DUP4 PUSH2 0x33B0 JUMP JUMPDEST PUSH1 0x40 MLOAD SWAP1 DUP2 MSTORE PUSH1 0x20 ADD PUSH1 0x40 MLOAD DUP1 SWAP2 SUB SWAP1 LOG1 POP POP PUSH1 0x6 DUP1 SLOAD PUSH1 0xFF PUSH1 0xA0 SHL NOT AND SWAP1 SSTORE POP POP POP POP JUMP JUMPDEST PUSH1 0x60 PUSH1 0x7 DUP3 DUP2 SLOAD DUP2 LT PUSH2 0x9D2 JUMPI PUSH2 0x9D2 PUSH2 0x3565 JUMP JUMPDEST SWAP1 PUSH1 0x0 MSTORE PUSH1 0x20 PUSH1 0x0 KECCAK256 SWAP1 PUSH1 0xB MUL ADD PUSH1 0x3 ADD DUP1 SLOAD DUP1 PUSH1 0x20 MUL PUSH1 0x20 ADD PUSH1 0x40 MLOAD SWAP1 DUP2 ADD PUSH1 0x40 MSTORE DUP1 SWAP3 SWAP2 SWAP1 DUP2 DUP2 MSTORE PUSH1 0x20 ADD DUP3 DUP1 SLOAD DUP1 ISZERO PUSH2 0xA2D JUMPI PUSH1 0x20 MUL DUP3 ADD SWAP2 SWAP1 PUSH1 0x0 MSTORE PUSH1 0x20 PUSH1 0x0 KECCAK256 SWAP1 JUMPDEST DUP2 SLOAD DUP2 MSTORE PUSH1 0x20 ADD SWAP1 PUSH1 0x1 ADD SWAP1 DUP1 DUP4 GT PUSH2 0xA19 JUMPI JUMPDEST POP POP POP POP POP SWAP1 POP SWAP2 SWAP1 POP JUMP JUMPDEST PUSH2 0xA42 DUP2 PUSH2 0x21AC JUMP JUMPDEST PUSH2 0xA8E JUMPI PUSH1 0x40 MLOAD PUSH3 0x461BCD PUSH1 0xE5 SHL DUP2 MSTORE PUSH1 0x20 PUSH1 0x4 DUP3 ADD MSTORE PUSH1 0x1C PUSH1 0x24 DUP3 ADD MSTORE PUSH32 0x796F7520617265206E6F7420746869732067616D6520706C6179657200000000 PUSH1 0x44 DUP3 ADD MSTORE PUSH1 0x64 ADD PUSH2 0x33C JUMP JUMPDEST PUSH1 0x7 DUP2 DUP2 SLOAD DUP2 LT PUSH2 0xAA1 JUMPI PUSH2 0xAA1 PUSH2 0x3565 JUMP JUMPDEST PUSH1 0x0 SWAP2 DUP3 MSTORE PUSH1 0x20 SWAP1 SWAP2 KECCAK256 PUSH1 0xB SWAP1 SWAP2 MUL ADD SLOAD PUSH1 0xFF AND ISZERO PUSH2 0xAF7 JUMPI PUSH1 0x40 MLOAD PUSH3 0x461BCD PUSH1 0xE5 SHL DUP2 MSTORE PUSH1 0x20 PUSH1 0x4 DUP3 ADD MSTORE PUSH1 0x12 PUSH1 0x24 DUP3 ADD MSTORE PUSH18 0x47616D65207374696C6C20706C6179696E67 PUSH1 0x70 SHL PUSH1 0x44 DUP3 ADD MSTORE PUSH1 0x64 ADD PUSH2 0x33C JUMP JUMPDEST PUSH2 0xB00 DUP2 PUSH2 0xD94 JUMP JUMPDEST POP JUMP JUMPDEST PUSH1 0x60 PUSH1 0x7 DUP1 SLOAD DUP1 PUSH1 0x20 MUL PUSH1 0x20 ADD PUSH1 0x40 MLOAD SWAP1 DUP2 ADD PUSH1 0x40 MSTORE DUP1 SWAP3 SWAP2 SWAP1 DUP2 DUP2 MSTORE PUSH1 0x20 ADD PUSH1 0x0 SWAP1 JUMPDEST DUP3 DUP3 LT ISZERO PUSH2 0xD8B JUMPI PUSH1 0x0 DUP5 DUP2 MSTORE PUSH1 0x20 SWAP1 DUP2 SWAP1 KECCAK256 PUSH1 0x40 DUP1 MLOAD PUSH2 0x160 DUP2 ADD SWAP1 SWAP2 MSTORE PUSH1 0xB DUP6 MUL SWAP1 SWAP2 ADD DUP1 SLOAD PUSH1 0xFF AND ISZERO ISZERO DUP3 MSTORE PUSH1 0x1 DUP2 ADD DUP1 SLOAD SWAP3 SWAP4 SWAP2 SWAP3 SWAP2 DUP5 ADD SWAP2 PUSH2 0xB6D SWAP1 PUSH2 0x341C JUMP JUMPDEST DUP1 PUSH1 0x1F ADD PUSH1 0x20 DUP1 SWAP2 DIV MUL PUSH1 0x20 ADD PUSH1 0x40 MLOAD SWAP1 DUP2 ADD PUSH1 0x40 MSTORE DUP1 SWAP3 SWAP2 SWAP1 DUP2 DUP2 MSTORE PUSH1 0x20 ADD DUP3 DUP1 SLOAD PUSH2 0xB99 SWAP1 PUSH2 0x341C JUMP JUMPDEST DUP1 ISZERO PUSH2 0xBE6 JUMPI DUP1 PUSH1 0x1F LT PUSH2 0xBBB JUMPI PUSH2 0x100 DUP1 DUP4 SLOAD DIV MUL DUP4 MSTORE SWAP2 PUSH1 0x20 ADD SWAP2 PUSH2 0xBE6 JUMP JUMPDEST DUP3 ADD SWAP2 SWAP1 PUSH1 0x0 MSTORE PUSH1 0x20 PUSH1 0x0 KECCAK256 SWAP1 JUMPDEST DUP2 SLOAD DUP2 MSTORE SWAP1 PUSH1 0x1 ADD SWAP1 PUSH1 0x20 ADD DUP1 DUP4 GT PUSH2 0xBC9 JUMPI DUP3 SWAP1 SUB PUSH1 0x1F AND DUP3 ADD SWAP2 JUMPDEST POP POP POP POP POP DUP2 MSTORE PUSH1 0x20 ADD PUSH1 0x2 DUP3 ADD DUP1 SLOAD DUP1 PUSH1 0x20 MUL PUSH1 0x20 ADD PUSH1 0x40 MLOAD SWAP1 DUP2 ADD PUSH1 0x40 MSTORE DUP1 SWAP3 SWAP2 SWAP1 DUP2 DUP2 MSTORE PUSH1 0x20 ADD PUSH1 0x0 SWAP1 JUMPDEST DUP3 DUP3 LT ISZERO PUSH2 0xCC0 JUMPI DUP4 DUP3 SWAP1 PUSH1 0x0 MSTORE PUSH1 0x20 PUSH1 0x0 KECCAK256 ADD DUP1 SLOAD PUSH2 0xC33 SWAP1 PUSH2 0x341C JUMP JUMPDEST DUP1 PUSH1 0x1F ADD PUSH1 0x20 DUP1 SWAP2 DIV MUL PUSH1 0x20 ADD PUSH1 0x40 MLOAD SWAP1 DUP2 ADD PUSH1 0x40 MSTORE DUP1 SWAP3 SWAP2 SWAP1 DUP2 DUP2 MSTORE PUSH1 0x20 ADD DUP3 DUP1 SLOAD PUSH2 0xC5F SWAP1 PUSH2 0x341C JUMP JUMPDEST DUP1 ISZERO PUSH2 0xCAC JUMPI DUP1 PUSH1 0x1F LT PUSH2 0xC81 JUMPI PUSH2 0x100 DUP1 DUP4 SLOAD DIV MUL DUP4 MSTORE SWAP2 PUSH1 0x20 ADD SWAP2 PUSH2 0xCAC JUMP JUMPDEST DUP3 ADD SWAP2 SWAP1 PUSH1 0x0 MSTORE PUSH1 0x20 PUSH1 0x0 KECCAK256 SWAP1 JUMPDEST DUP2 SLOAD DUP2 MSTORE SWAP1 PUSH1 0x1 ADD SWAP1 PUSH1 0x20 ADD DUP1 DUP4 GT PUSH2 0xC8F JUMPI DUP3 SWAP1 SUB PUSH1 0x1F AND DUP3 ADD SWAP2 JUMPDEST POP POP POP POP POP DUP2 MSTORE PUSH1 0x20 ADD SWAP1 PUSH1 0x1 ADD SWAP1 PUSH2 0xC14 JUMP JUMPDEST POP POP POP POP DUP2 MSTORE PUSH1 0x20 ADD PUSH1 0x3 DUP3 ADD DUP1 SLOAD DUP1 PUSH1 0x20 MUL PUSH1 0x20 ADD PUSH1 0x40 MLOAD SWAP1 DUP2 ADD PUSH1 0x40 MSTORE DUP1 SWAP3 SWAP2 SWAP1 DUP2 DUP2 MSTORE PUSH1 0x20 ADD DUP3 DUP1 SLOAD DUP1 ISZERO PUSH2 0xD17 JUMPI PUSH1 0x20 MUL DUP3 ADD SWAP2 SWAP1 PUSH1 0x0 MSTORE PUSH1 0x20 PUSH1 0x0 KECCAK256 SWAP1 JUMPDEST DUP2 SLOAD DUP2 MSTORE PUSH1 0x20 ADD SWAP1 PUSH1 0x1 ADD SWAP1 DUP1 DUP4 GT PUSH2 0xD03 JUMPI JUMPDEST POP POP POP SWAP2 DUP4 MSTORE POP POP PUSH1 0x4 DUP3 ADD SLOAD PUSH1 0x1 PUSH1 0x1 PUSH1 0xA0 SHL SUB SWAP1 DUP2 AND PUSH1 0x20 DUP1 DUP5 ADD SWAP2 SWAP1 SWAP2 MSTORE PUSH1 0x5 DUP5 ADD SLOAD DUP3 AND PUSH1 0x40 DUP5 ADD MSTORE PUSH1 0x6 DUP5 ADD SLOAD PUSH1 0x60 DUP5 ADD MSTORE PUSH1 0x7 DUP5 ADD SLOAD SWAP1 SWAP2 AND PUSH1 0x80 DUP4 ADD MSTORE PUSH1 0x8 DUP4 ADD SLOAD PUSH1 0xA0 DUP4 ADD MSTORE PUSH1 0x9 DUP4 ADD SLOAD PUSH1 0xC0 DUP4 ADD MSTORE PUSH1 0xA SWAP1 SWAP3 ADD SLOAD PUSH1 0xE0 SWAP1 SWAP2 ADD MSTORE SWAP1 DUP3 MSTORE PUSH1 0x1 SWAP3 SWAP1 SWAP3 ADD SWAP2 ADD PUSH2 0xB27 JUMP JUMPDEST POP POP POP POP SWAP1 POP SWAP1 JUMP JUMPDEST PUSH1 0x40 MLOAD DUP1 PUSH1 0x40 ADD PUSH1 0x40 MSTORE DUP1 PUSH1 0x1 DUP2 MSTORE PUSH1 0x20 ADD PUSH1 0xB PUSH1 0xFB SHL DUP2 MSTORE POP PUSH1 0x7 DUP3 DUP2 SLOAD DUP2 LT PUSH2 0xDC1 JUMPI PUSH2 0xDC1 PUSH2 0x3565 JUMP JUMPDEST SWAP1 PUSH1 0x0 MSTORE PUSH1 0x20 PUSH1 0x0 KECCAK256 SWAP1 PUSH1 0xB MUL ADD PUSH1 0x1 ADD SWAP1 DUP2 PUSH2 0xDDE SWAP2 SWAP1 PUSH2 0x34A5 JUMP JUMPDEST POP PUSH1 0x40 DUP1 MLOAD PUSH2 0x140 DUP2 ADD DUP3 MSTORE PUSH1 0x0 PUSH2 0x120 DUP3 ADD DUP2 DUP2 MSTORE DUP3 MSTORE DUP3 MLOAD PUSH1 0x20 DUP2 DUP2 ADD DUP6 MSTORE DUP3 DUP3 MSTORE DUP1 DUP5 ADD SWAP2 SWAP1 SWAP2 MSTORE DUP4 MLOAD DUP1 DUP3 ADD DUP6 MSTORE DUP3 DUP2 MSTORE DUP4 DUP6 ADD MSTORE DUP4 MLOAD DUP1 DUP3 ADD DUP6 MSTORE DUP3 DUP2 MSTORE PUSH1 0x60 DUP5 ADD MSTORE DUP4 MLOAD DUP1 DUP3 ADD DUP6 MSTORE DUP3 DUP2 MSTORE PUSH1 0x80 DUP5 ADD MSTORE DUP4 MLOAD DUP1 DUP3 ADD DUP6 MSTORE DUP3 DUP2 MSTORE PUSH1 0xA0 DUP5 ADD MSTORE DUP4 MLOAD DUP1 DUP3 ADD DUP6 MSTORE DUP3 DUP2 MSTORE PUSH1 0xC0 DUP5 ADD MSTORE DUP4 MLOAD DUP1 DUP3 ADD DUP6 MSTORE DUP3 DUP2 MSTORE PUSH1 0xE0 DUP5 ADD MSTORE DUP4 MLOAD SWAP1 DUP2 ADD SWAP1 SWAP4 MSTORE DUP3 MSTORE PUSH2 0x100 DUP2 ADD SWAP2 SWAP1 SWAP2 MSTORE PUSH1 0x7 DUP1 SLOAD DUP4 SWAP1 DUP2 LT PUSH2 0xE89 JUMPI PUSH2 0xE89 PUSH2 0x3565 JUMP JUMPDEST SWAP1 PUSH1 0x0 MSTORE PUSH1 0x20 PUSH1 0x0 KECCAK256 SWAP1 PUSH1 0xB MUL ADD PUSH1 0x2 ADD SWAP1 PUSH1 0x9 PUSH2 0xEA8 SWAP3 SWAP2 SWAP1 PUSH2 0x2E1D JUMP JUMPDEST POP PUSH1 0x1 PUSH1 0x7 DUP3 DUP2 SLOAD DUP2 LT PUSH2 0xEBE JUMPI PUSH2 0xEBE PUSH2 0x3565 JUMP JUMPDEST PUSH1 0x0 SWAP2 DUP3 MSTORE PUSH1 0x20 SWAP2 DUP3 SWAP1 KECCAK256 PUSH1 0xB SWAP1 SWAP2 MUL ADD DUP1 SLOAD PUSH1 0xFF NOT AND SWAP3 ISZERO ISZERO SWAP3 SWAP1 SWAP3 OR SWAP1 SWAP2 SSTORE PUSH1 0x40 MLOAD DUP3 DUP2 MSTORE PUSH32 0xC5478E3FE602C65E5CDD37ABE42A8E007FF762D266B9E8256769194C1FA1361E SWAP2 ADD JUMPDEST PUSH1 0x40 MLOAD DUP1 SWAP2 SUB SWAP1 LOG1 POP JUMP JUMPDEST PUSH1 0x7 DUP2 DUP2 SLOAD DUP2 LT PUSH2 0xF27 JUMPI PUSH2 0xF27 PUSH2 0x3565 JUMP JUMPDEST PUSH1 0x0 SWAP2 DUP3 MSTORE PUSH1 0x20 SWAP1 SWAP2 KECCAK256 PUSH1 0xB SWAP1 SWAP2 MUL ADD SLOAD PUSH1 0xFF AND PUSH2 0xF87 JUMPI PUSH1 0x40 MLOAD PUSH3 0x461BCD PUSH1 0xE5 SHL DUP2 MSTORE PUSH1 0x20 PUSH1 0x4 DUP3 ADD MSTORE PUSH1 0x1C PUSH1 0x24 DUP3 ADD MSTORE PUSH32 0x5468652067616D65207374696C6C206E6F742073746172742079657400000000 PUSH1 0x44 DUP3 ADD MSTORE PUSH1 0x64 ADD PUSH2 0x33C JUMP JUMPDEST PUSH2 0x1067 PUSH1 0x7 DUP3 DUP2 SLOAD DUP2 LT PUSH2 0xF9D JUMPI PUSH2 0xF9D PUSH2 0x3565 JUMP JUMPDEST SWAP1 PUSH1 0x0 MSTORE PUSH1 0x20 PUSH1 0x0 KECCAK256 SWAP1 PUSH1 0xB MUL ADD PUSH1 0x2 ADD DUP4 DUP2 SLOAD DUP2 LT PUSH2 0xFBF JUMPI PUSH2 0xFBF PUSH2 0x3565 JUMP JUMPDEST SWAP1 PUSH1 0x0 MSTORE PUSH1 0x20 PUSH1 0x0 KECCAK256 ADD DUP1 SLOAD PUSH2 0xFD4 SWAP1 PUSH2 0x341C JUMP JUMPDEST DUP1 PUSH1 0x1F ADD PUSH1 0x20 DUP1 SWAP2 DIV MUL PUSH1 0x20 ADD PUSH1 0x40 MLOAD SWAP1 DUP2 ADD PUSH1 0x40 MSTORE DUP1 SWAP3 SWAP2 SWAP1 DUP2 DUP2 MSTORE PUSH1 0x20 ADD DUP3 DUP1 SLOAD PUSH2 0x1000 SWAP1 PUSH2 0x341C JUMP JUMPDEST DUP1 ISZERO PUSH2 0x104D JUMPI DUP1 PUSH1 0x1F LT PUSH2 0x1022 JUMPI PUSH2 0x100 DUP1 DUP4 SLOAD DIV MUL DUP4 MSTORE SWAP2 PUSH1 0x20 ADD SWAP2 PUSH2 0x104D JUMP JUMPDEST DUP3 ADD SWAP2 SWAP1 PUSH1 0x0 MSTORE PUSH1 0x20 PUSH1 0x0 KECCAK256 SWAP1 JUMPDEST DUP2 SLOAD DUP2 MSTORE SWAP1 PUSH1 0x1 ADD SWAP1 PUSH1 0x20 ADD DUP1 DUP4 GT PUSH2 0x1030 JUMPI DUP3 SWAP1 SUB PUSH1 0x1F AND DUP3 ADD SWAP2 JUMPDEST POP POP POP POP POP PUSH1 0x40 MLOAD DUP1 PUSH1 0x20 ADD PUSH1 0x40 MSTORE DUP1 PUSH1 0x0 DUP2 MSTORE POP PUSH2 0x1F92 JUMP JUMPDEST PUSH2 0x10A3 JUMPI PUSH1 0x40 MLOAD PUSH3 0x461BCD PUSH1 0xE5 SHL DUP2 MSTORE PUSH1 0x20 PUSH1 0x4 DUP3 ADD MSTORE PUSH1 0xD PUSH1 0x24 DUP3 ADD MSTORE PUSH13 0x125B9D985B1A59081A5B9C1D5D PUSH1 0x9A SHL PUSH1 0x44 DUP3 ADD MSTORE PUSH1 0x64 ADD PUSH2 0x33C JUMP JUMPDEST PUSH2 0x1172 PUSH1 0x7 DUP3 DUP2 SLOAD DUP2 LT PUSH2 0x10B9 JUMPI PUSH2 0x10B9 PUSH2 0x3565 JUMP JUMPDEST SWAP1 PUSH1 0x0 MSTORE PUSH1 0x20 PUSH1 0x0 KECCAK256 SWAP1 PUSH1 0xB MUL ADD PUSH1 0x1 ADD DUP1 SLOAD PUSH2 0x10D5 SWAP1 PUSH2 0x341C JUMP JUMPDEST DUP1 PUSH1 0x1F ADD PUSH1 0x20 DUP1 SWAP2 DIV MUL PUSH1 0x20 ADD PUSH1 0x40 MLOAD SWAP1 DUP2 ADD PUSH1 0x40 MSTORE DUP1 SWAP3 SWAP2 SWAP1 DUP2 DUP2 MSTORE PUSH1 0x20 ADD DUP3 DUP1 SLOAD PUSH2 0x1101 SWAP1 PUSH2 0x341C JUMP JUMPDEST DUP1 ISZERO PUSH2 0x114E JUMPI DUP1 PUSH1 0x1F LT PUSH2 0x1123 JUMPI PUSH2 0x100 DUP1 DUP4 SLOAD DIV MUL DUP4 MSTORE SWAP2 PUSH1 0x20 ADD SWAP2 PUSH2 0x114E JUMP JUMPDEST DUP3 ADD SWAP2 SWAP1 PUSH1 0x0 MSTORE PUSH1 0x20 PUSH1 0x0 KECCAK256 SWAP1 JUMPDEST DUP2 SLOAD DUP2 MSTORE SWAP1 PUSH1 0x1 ADD SWAP1 PUSH1 0x20 ADD DUP1 DUP4 GT PUSH2 0x1131 JUMPI DUP3 SWAP1 SUB PUSH1 0x1F AND DUP3 ADD SWAP2 JUMPDEST POP POP POP POP POP PUSH1 0x40 MLOAD DUP1 PUSH1 0x40 ADD PUSH1 0x40 MSTORE DUP1 PUSH1 0x1 DUP2 MSTORE PUSH1 0x20 ADD PUSH1 0xB PUSH1 0xFB SHL DUP2 MSTORE POP PUSH2 0x1F92 JUMP JUMPDEST ISZERO PUSH2 0x11F1 JUMPI PUSH1 0x7 DUP2 DUP2 SLOAD DUP2 LT PUSH2 0x118A JUMPI PUSH2 0x118A PUSH2 0x3565 JUMP JUMPDEST PUSH1 0x0 SWAP2 DUP3 MSTORE PUSH1 0x20 SWAP1 SWAP2 KECCAK256 PUSH1 0xB SWAP1 SWAP2 MUL ADD PUSH1 0x4 ADD SLOAD PUSH1 0x1 PUSH1 0x1 PUSH1 0xA0 SHL SUB AND CALLER EQ PUSH2 0x11EC JUMPI PUSH1 0x40 MLOAD PUSH3 0x461BCD PUSH1 0xE5 SHL DUP2 MSTORE PUSH1 0x20 PUSH1 0x4 DUP3 ADD MSTORE PUSH1 0x14 PUSH1 0x24 DUP3 ADD MSTORE PUSH20 0x596F7520617265206E6F7420706C617965722031 PUSH1 0x60 SHL PUSH1 0x44 DUP3 ADD MSTORE PUSH1 0x64 ADD PUSH2 0x33C JUMP JUMPDEST PUSH2 0x1266 JUMP JUMPDEST PUSH1 0x7 DUP2 DUP2 SLOAD DUP2 LT PUSH2 0x1204 JUMPI PUSH2 0x1204 PUSH2 0x3565 JUMP JUMPDEST PUSH1 0x0 SWAP2 DUP3 MSTORE PUSH1 0x20 SWAP1 SWAP2 KECCAK256 PUSH1 0xB SWAP1 SWAP2 MUL ADD PUSH1 0x5 ADD SLOAD PUSH1 0x1 PUSH1 0x1 PUSH1 0xA0 SHL SUB AND CALLER EQ PUSH2 0x1266 JUMPI PUSH1 0x40 MLOAD PUSH3 0x461BCD PUSH1 0xE5 SHL DUP2 MSTORE PUSH1 0x20 PUSH1 0x4 DUP3 ADD MSTORE PUSH1 0x14 PUSH1 0x24 DUP3 ADD MSTORE PUSH20 0x2CB7BA9030B932903737BA10383630BCB2B91019 PUSH1 0x61 SHL PUSH1 0x44 DUP3 ADD MSTORE PUSH1 0x64 ADD PUSH2 0x33C JUMP JUMPDEST PUSH1 0x7 DUP2 DUP2 SLOAD DUP2 LT PUSH2 0x1279 JUMPI PUSH2 0x1279 PUSH2 0x3565 JUMP JUMPDEST SWAP1 PUSH1 0x0 MSTORE PUSH1 0x20 PUSH1 0x0 KECCAK256 SWAP1 PUSH1 0xB MUL ADD PUSH1 0x1 ADD PUSH1 0x7 DUP3 DUP2 SLOAD DUP2 LT PUSH2 0x129D JUMPI PUSH2 0x129D PUSH2 0x3565 JUMP JUMPDEST SWAP1 PUSH1 0x0 MSTORE PUSH1 0x20 PUSH1 0x0 KECCAK256 SWAP1 PUSH1 0xB MUL ADD PUSH1 0x2 ADD DUP4 DUP2 SLOAD DUP2 LT PUSH2 0x12BF JUMPI PUSH2 0x12BF PUSH2 0x3565 JUMP JUMPDEST SWAP1 PUSH1 0x0 MSTORE PUSH1 0x20 PUSH1 0x0 KECCAK256 ADD SWAP1 DUP2 PUSH2 0x12D5 SWAP2 SWAP1 PUSH2 0x3594 JUMP JUMPDEST POP PUSH32 0x9659242F3970136BF08CBA261398AE9F0BC58A676137D79D3C2040DCDACBC18B PUSH1 0x7 DUP3 DUP2 SLOAD DUP2 LT PUSH2 0x130A JUMPI PUSH2 0x130A PUSH2 0x3565 JUMP JUMPDEST SWAP1 PUSH1 0x0 MSTORE PUSH1 0x20 PUSH1 0x0 KECCAK256 SWAP1 PUSH1 0xB MUL ADD PUSH1 0x2 ADD DUP3 PUSH1 0x40 MLOAD PUSH2 0x132A SWAP3 SWAP2 SWAP1 PUSH2 0x3745 JUMP JUMPDEST PUSH1 0x40 MLOAD DUP1 SWAP2 SUB SWAP1 LOG1 PUSH2 0x133B DUP2 PUSH2 0x222C JUMP JUMPDEST POP POP JUMP JUMPDEST PUSH1 0x7 DUP2 DUP2 SLOAD DUP2 LT PUSH2 0x134F JUMPI PUSH1 0x0 DUP1 REVERT JUMPDEST PUSH1 0x0 SWAP2 DUP3 MSTORE PUSH1 0x20 SWAP1 SWAP2 KECCAK256 PUSH1 0xB SWAP1 SWAP2 MUL ADD DUP1 SLOAD PUSH1 0x1 DUP3 ADD DUP1 SLOAD PUSH1 0xFF SWAP1 SWAP3 AND SWAP4 POP SWAP1 PUSH2 0x1378 SWAP1 PUSH2 0x341C JUMP JUMPDEST DUP1 PUSH1 0x1F ADD PUSH1 0x20 DUP1 SWAP2 DIV MUL PUSH1 0x20 ADD PUSH1 0x40 MLOAD SWAP1 DUP2 ADD PUSH1 0x40 MSTORE DUP1 SWAP3 SWAP2 SWAP1 DUP2 DUP2 MSTORE PUSH1 0x20 ADD DUP3 DUP1 SLOAD PUSH2 0x13A4 SWAP1 PUSH2 0x341C JUMP JUMPDEST DUP1 ISZERO PUSH2 0x13F1 JUMPI DUP1 PUSH1 0x1F LT PUSH2 0x13C6 JUMPI PUSH2 0x100 DUP1 DUP4 SLOAD DIV MUL DUP4 MSTORE SWAP2 PUSH1 0x20 ADD SWAP2 PUSH2 0x13F1 JUMP JUMPDEST DUP3 ADD SWAP2 SWAP1 PUSH1 0x0 MSTORE PUSH1 0x20 PUSH1 0x0 KECCAK256 SWAP1 JUMPDEST DUP2 SLOAD DUP2 MSTORE SWAP1 PUSH1 0x1 ADD SWAP1 PUSH1 0x20 ADD DUP1 DUP4 GT PUSH2 0x13D4 JUMPI DUP3 SWAP1 SUB PUSH1 0x1F AND DUP3 ADD SWAP2 JUMPDEST POP POP POP PUSH1 0x4 DUP5 ADD SLOAD PUSH1 0x5 DUP6 ADD SLOAD PUSH1 0x6 DUP7 ADD SLOAD PUSH1 0x7 DUP8 ADD SLOAD PUSH1 0x8 DUP9 ADD SLOAD PUSH1 0x9 DUP10 ADD SLOAD PUSH1 0xA SWAP1 SWAP10 ADD SLOAD SWAP8 SWAP9 PUSH1 0x1 PUSH1 0x1 PUSH1 0xA0 SHL SUB SWAP6 DUP7 AND SWAP9 SWAP5 DUP7 AND SWAP8 POP SWAP3 SWAP6 POP SWAP4 AND SWAP3 SWAP2 DUP10 JUMP JUMPDEST PUSH1 0x6 SLOAD PUSH1 0x1 PUSH1 0x1 PUSH1 0xA0 SHL SUB AND CALLER EQ PUSH2 0x147F JUMPI PUSH1 0x40 MLOAD PUSH3 0x461BCD PUSH1 0xE5 SHL DUP2 MSTORE PUSH1 0x20 PUSH1 0x4 DUP3 ADD MSTORE PUSH1 0xD PUSH1 0x24 DUP3 ADD MSTORE PUSH13 0x2737BA103A34329037BBB732B9 PUSH1 0x99 SHL PUSH1 0x44 DUP3 ADD MSTORE PUSH1 0x64 ADD PUSH2 0x33C JUMP JUMPDEST PUSH1 0x5 SLOAD PUSH1 0x0 DUP1 SLOAD PUSH1 0x40 MLOAD PUSH4 0x70A08231 PUSH1 0xE0 SHL DUP2 MSTORE ADDRESS PUSH1 0x4 DUP3 ADD MSTORE SWAP2 SWAP3 SWAP2 PUSH1 0x1 PUSH1 0x1 PUSH1 0xA0 SHL SUB SWAP1 SWAP2 AND SWAP1 PUSH4 0x70A08231 SWAP1 PUSH1 0x24 ADD PUSH1 0x20 PUSH1 0x40 MLOAD DUP1 DUP4 SUB DUP2 DUP7 GAS STATICCALL ISZERO DUP1 ISZERO PUSH2 0x14CE JUMPI RETURNDATASIZE PUSH1 0x0 DUP1 RETURNDATACOPY RETURNDATASIZE PUSH1 0x0 REVERT JUMPDEST POP POP POP POP PUSH1 0x40 MLOAD RETURNDATASIZE PUSH1 0x1F NOT PUSH1 0x1F DUP3 ADD AND DUP3 ADD DUP1 PUSH1 0x40 MSTORE POP DUP2 ADD SWAP1 PUSH2 0x14F2 SWAP2 SWAP1 PUSH2 0x3348 JUMP JUMPDEST PUSH2 0x14FC SWAP2 SWAP1 PUSH2 0x33B0 JUMP JUMPDEST GT PUSH2 0x1542 JUMPI PUSH1 0x40 MLOAD PUSH3 0x461BCD PUSH1 0xE5 SHL DUP2 MSTORE PUSH1 0x20 PUSH1 0x4 DUP3 ADD MSTORE PUSH1 0x16 PUSH1 0x24 DUP3 ADD MSTORE PUSH22 0x54686520746F6B656E206973206E6F74206578747261 PUSH1 0x50 SHL PUSH1 0x44 DUP3 ADD MSTORE PUSH1 0x64 ADD PUSH2 0x33C JUMP JUMPDEST PUSH1 0x0 SLOAD PUSH1 0x6 SLOAD PUSH1 0x5 SLOAD PUSH1 0x40 MLOAD PUSH4 0x70A08231 PUSH1 0xE0 SHL DUP2 MSTORE ADDRESS PUSH1 0x4 DUP3 ADD MSTORE PUSH1 0x1 PUSH1 0x1 PUSH1 0xA0 SHL SUB SWAP4 DUP5 AND SWAP4 PUSH4 0xA9059CBB SWAP4 AND SWAP2 SWAP1 DUP5 SWAP1 PUSH4 0x70A08231 SWAP1 PUSH1 0x24 ADD PUSH1 0x20 PUSH1 0x40 MLOAD DUP1 DUP4 SUB DUP2 DUP7 GAS STATICCALL ISZERO DUP1 ISZERO PUSH2 0x159B JUMPI RETURNDATASIZE PUSH1 0x0 DUP1 RETURNDATACOPY RETURNDATASIZE PUSH1 0x0 REVERT JUMPDEST POP POP POP POP PUSH1 0x40 MLOAD RETURNDATASIZE PUSH1 0x1F NOT PUSH1 0x1F DUP3 ADD AND DUP3 ADD DUP1 PUSH1 0x40 MSTORE POP DUP2 ADD SWAP1 PUSH2 0x15BF SWAP2 SWAP1 PUSH2 0x3348 JUMP JUMPDEST PUSH2 0x15C9 SWAP2 SWAP1 PUSH2 0x33B0 JUMP JUMPDEST PUSH1 0x40 MLOAD PUSH1 0x1 PUSH1 0x1 PUSH1 0xE0 SHL SUB NOT PUSH1 0xE0 DUP6 SWAP1 SHL AND DUP2 MSTORE PUSH1 0x1 PUSH1 0x1 PUSH1 0xA0 SHL SUB SWAP1 SWAP3 AND PUSH1 0x4 DUP4 ADD MSTORE PUSH1 0x24 DUP3 ADD MSTORE PUSH1 0x44 ADD PUSH1 0x20 PUSH1 0x40 MLOAD DUP1 DUP4 SUB DUP2 PUSH1 0x0 DUP8 GAS CALL ISZERO DUP1 ISZERO PUSH2 0x1614 JUMPI RETURNDATASIZE PUSH1 0x0 DUP1 RETURNDATACOPY RETURNDATASIZE PUSH1 0x0 REVERT JUMPDEST POP POP POP POP PUSH1 0x40 MLOAD RETURNDATASIZE PUSH1 0x1F NOT PUSH1 0x1F DUP3 ADD AND DUP3 ADD DUP1 PUSH1 0x40 MSTORE POP DUP2 ADD SWAP1 PUSH2 0xB00 SWAP2 SWAP1 PUSH2 0x33E7 JUMP JUMPDEST PUSH2 0x1640 PUSH2 0x2D09 JUMP JUMPDEST PUSH1 0x7 DUP3 DUP2 SLOAD DUP2 LT PUSH2 0x1653 JUMPI PUSH2 0x1653 PUSH2 0x3565 JUMP JUMPDEST PUSH1 0x0 SWAP2 DUP3 MSTORE PUSH1 0x20 SWAP2 DUP3 SWAP1 KECCAK256 PUSH1 0x40 DUP1 MLOAD PUSH2 0x160 DUP2 ADD SWAP1 SWAP2 MSTORE PUSH1 0xB SWAP1 SWAP3 MUL ADD DUP1 SLOAD PUSH1 0xFF AND ISZERO ISZERO DUP3 MSTORE PUSH1 0x1 DUP2 ADD DUP1 SLOAD SWAP3 SWAP4 SWAP2 SWAP3 SWAP2 DUP5 ADD SWAP2 PUSH2 0x1690 SWAP1 PUSH2 0x341C JUMP JUMPDEST DUP1 PUSH1 0x1F ADD PUSH1 0x20 DUP1 SWAP2 DIV MUL PUSH1 0x20 ADD PUSH1 0x40 MLOAD SWAP1 DUP2 ADD PUSH1 0x40 MSTORE DUP1 SWAP3 SWAP2 SWAP1 DUP2 DUP2 MSTORE PUSH1 0x20 ADD DUP3 DUP1 SLOAD PUSH2 0x16BC SWAP1 PUSH2 0x341C JUMP JUMPDEST DUP1 ISZERO PUSH2 0x1709 JUMPI DUP1 PUSH1 0x1F LT PUSH2 0x16DE JUMPI PUSH2 0x100 DUP1 DUP4 SLOAD DIV MUL DUP4 MSTORE SWAP2 PUSH1 0x20 ADD SWAP2 PUSH2 0x1709 JUMP JUMPDEST DUP3 ADD SWAP2 SWAP1 PUSH1 0x0 MSTORE PUSH1 0x20 PUSH1 0x0 KECCAK256 SWAP1 JUMPDEST DUP2 SLOAD DUP2 MSTORE SWAP1 PUSH1 0x1 ADD SWAP1 PUSH1 0x20 ADD DUP1 DUP4 GT PUSH2 0x16EC JUMPI DUP3 SWAP1 SUB PUSH1 0x1F AND DUP3 ADD SWAP2 JUMPDEST POP POP POP POP POP DUP2 MSTORE PUSH1 0x20 ADD PUSH1 0x2 DUP3 ADD DUP1 SLOAD DUP1 PUSH1 0x20 MUL PUSH1 0x20 ADD PUSH1 0x40 MLOAD SWAP1 DUP2 ADD PUSH1 0x40 MSTORE DUP1 SWAP3 SWAP2 SWAP1 DUP2 DUP2 MSTORE PUSH1 0x20 ADD PUSH1 0x0 SWAP1 JUMPDEST DUP3 DUP3 LT ISZERO PUSH2 0x17E3 JUMPI DUP4 DUP3 SWAP1 PUSH1 0x0 MSTORE PUSH1 0x20 PUSH1 0x0 KECCAK256 ADD DUP1 SLOAD PUSH2 0x1756 SWAP1 PUSH2 0x341C JUMP JUMPDEST DUP1 PUSH1 0x1F ADD PUSH1 0x20 DUP1 SWAP2 DIV MUL PUSH1 0x20 ADD PUSH1 0x40 MLOAD SWAP1 DUP2 ADD PUSH1 0x40 MSTORE DUP1 SWAP3 SWAP2 SWAP1 DUP2 DUP2 MSTORE PUSH1 0x20 ADD DUP3 DUP1 SLOAD PUSH2 0x1782 SWAP1 PUSH2 0x341C JUMP JUMPDEST DUP1 ISZERO PUSH2 0x17CF JUMPI DUP1 PUSH1 0x1F LT PUSH2 0x17A4 JUMPI PUSH2 0x100 DUP1 DUP4 SLOAD DIV MUL DUP4 MSTORE SWAP2 PUSH1 0x20 ADD SWAP2 PUSH2 0x17CF JUMP JUMPDEST DUP3 ADD SWAP2 SWAP1 PUSH1 0x0 MSTORE PUSH1 0x20 PUSH1 0x0 KECCAK256 SWAP1 JUMPDEST DUP2 SLOAD DUP2 MSTORE SWAP1 PUSH1 0x1 ADD SWAP1 PUSH1 0x20 ADD DUP1 DUP4 GT PUSH2 0x17B2 JUMPI DUP3 SWAP1 SUB PUSH1 0x1F AND DUP3 ADD SWAP2 JUMPDEST POP POP POP POP POP DUP2 MSTORE PUSH1 0x20 ADD SWAP1 PUSH1 0x1 ADD SWAP1 PUSH2 0x1737 JUMP JUMPDEST POP POP POP POP DUP2 MSTORE PUSH1 0x20 ADD PUSH1 0x3 DUP3 ADD DUP1 SLOAD DUP1 PUSH1 0x20 MUL PUSH1 0x20 ADD PUSH1 0x40 MLOAD SWAP1 DUP2 ADD PUSH1 0x40 MSTORE DUP1 SWAP3 SWAP2 SWAP1 DUP2 DUP2 MSTORE PUSH1 0x20 ADD DUP3 DUP1 SLOAD DUP1 ISZERO PUSH2 0x183A JUMPI PUSH1 0x20 MUL DUP3 ADD SWAP2 SWAP1 PUSH1 0x0 MSTORE PUSH1 0x20 PUSH1 0x0 KECCAK256 SWAP1 JUMPDEST DUP2 SLOAD DUP2 MSTORE PUSH1 0x20 ADD SWAP1 PUSH1 0x1 ADD SWAP1 DUP1 DUP4 GT PUSH2 0x1826 JUMPI JUMPDEST POP POP POP SWAP2 DUP4 MSTORE POP POP PUSH1 0x4 DUP3 ADD SLOAD PUSH1 0x1 PUSH1 0x1 PUSH1 0xA0 SHL SUB SWAP1 DUP2 AND PUSH1 0x20 DUP4 ADD MSTORE PUSH1 0x5 DUP4 ADD SLOAD DUP2 AND PUSH1 0x40 DUP4 ADD MSTORE PUSH1 0x6 DUP4 ADD SLOAD PUSH1 0x60 DUP4 ADD MSTORE PUSH1 0x7 DUP4 ADD SLOAD AND PUSH1 0x80 DUP3 ADD MSTORE PUSH1 0x8 DUP3 ADD SLOAD PUSH1 0xA0 DUP3 ADD MSTORE PUSH1 0x9 DUP3 ADD SLOAD PUSH1 0xC0 DUP3 ADD MSTORE PUSH1 0xA SWAP1 SWAP2 ADD SLOAD PUSH1 0xE0 SWAP1 SWAP2 ADD MSTORE SWAP3 SWAP2 POP POP JUMP JUMPDEST PUSH1 0x6 SLOAD PUSH1 0x1 PUSH1 0xA0 SHL SWAP1 DIV PUSH1 0xFF AND ISZERO PUSH2 0x18F0 JUMPI PUSH1 0x40 MLOAD PUSH3 0x461BCD PUSH1 0xE5 SHL DUP2 MSTORE PUSH1 0x20 PUSH1 0x4 DUP3 ADD MSTORE PUSH1 0x15 PUSH1 0x24 DUP3 ADD MSTORE PUSH21 0x115C9C9BDC8E881499595B9D1C985B9D0818D85B1B PUSH1 0x5A SHL PUSH1 0x44 DUP3 ADD MSTORE PUSH1 0x64 ADD PUSH2 0x33C JUMP JUMPDEST PUSH1 0x6 DUP1 SLOAD PUSH1 0xFF PUSH1 0xA0 SHL NOT AND PUSH1 0x1 PUSH1 0xA0 SHL OR SWAP1 SSTORE PUSH1 0x7 DUP1 SLOAD DUP4 SWAP1 DUP2 LT PUSH2 0x1917 JUMPI PUSH2 0x1917 PUSH2 0x3565 JUMP JUMPDEST SWAP1 PUSH1 0x0 MSTORE PUSH1 0x20 PUSH1 0x0 KECCAK256 SWAP1 PUSH1 0xB MUL ADD PUSH1 0x6 ADD SLOAD PUSH1 0x1 SUB PUSH2 0x1E8E JUMPI PUSH1 0x7 DUP3 DUP2 SLOAD DUP2 LT PUSH2 0x1943 JUMPI PUSH2 0x1943 PUSH2 0x3565 JUMP JUMPDEST PUSH1 0x0 SWAP2 DUP3 MSTORE PUSH1 0x20 DUP3 KECCAK256 PUSH1 0xB SWAP2 SWAP1 SWAP2 MUL ADD PUSH1 0x8 ADD SLOAD SWAP1 SLOAD PUSH1 0x40 MLOAD PUSH4 0x70A08231 PUSH1 0xE0 SHL DUP2 MSTORE CALLER PUSH1 0x4 DUP3 ADD MSTORE PUSH1 0x1 PUSH1 0x1 PUSH1 0xA0 SHL SUB SWAP1 SWAP2 AND SWAP1 PUSH4 0x70A08231 SWAP1 PUSH1 0x24 ADD PUSH1 0x20 PUSH1 0x40 MLOAD DUP1 DUP4 SUB DUP2 DUP7 GAS STATICCALL ISZERO DUP1 ISZERO PUSH2 0x199E JUMPI RETURNDATASIZE PUSH1 0x0 DUP1 RETURNDATACOPY RETURNDATASIZE PUSH1 0x0 REVERT JUMPDEST POP POP POP POP PUSH1 0x40 MLOAD RETURNDATASIZE PUSH1 0x1F NOT PUSH1 0x1F DUP3 ADD AND DUP3 ADD DUP1 PUSH1 0x40 MSTORE POP DUP2 ADD SWAP1 PUSH2 0x19C2 SWAP2 SWAP1 PUSH2 0x3348 JUMP JUMPDEST LT ISZERO PUSH2 0x1A05 JUMPI PUSH1 0x40 MLOAD PUSH3 0x461BCD PUSH1 0xE5 SHL DUP2 MSTORE PUSH1 0x20 PUSH1 0x4 DUP3 ADD MSTORE PUSH1 0x12 PUSH1 0x24 DUP3 ADD MSTORE PUSH18 0x4E6F7420656E6F7567682062616C616E6365 PUSH1 0x70 SHL PUSH1 0x44 DUP3 ADD MSTORE PUSH1 0x64 ADD PUSH2 0x33C JUMP JUMPDEST PUSH1 0x7 DUP3 DUP2 SLOAD DUP2 LT PUSH2 0x1A18 JUMPI PUSH2 0x1A18 PUSH2 0x3565 JUMP JUMPDEST SWAP1 PUSH1 0x0 MSTORE PUSH1 0x20 PUSH1 0x0 KECCAK256 SWAP1 PUSH1 0xB MUL ADD PUSH1 0x8 ADD SLOAD DUP2 EQ PUSH2 0x1A78 JUMPI PUSH1 0x40 MLOAD PUSH3 0x461BCD PUSH1 0xE5 SHL DUP2 MSTORE PUSH1 0x20 PUSH1 0x4 DUP3 ADD MSTORE PUSH1 0x1A PUSH1 0x24 DUP3 ADD MSTORE PUSH32 0x4E65656420746F20706179206D696E2062657420616D6F756E74000000000000 PUSH1 0x44 DUP3 ADD MSTORE PUSH1 0x64 ADD PUSH2 0x33C JUMP JUMPDEST PUSH1 0x0 PUSH1 0x64 PUSH1 0x3 SLOAD DUP4 PUSH2 0x1A8A SWAP2 SWAP1 PUSH2 0x3377 JUMP JUMPDEST PUSH2 0x1A94 SWAP2 SWAP1 PUSH2 0x338E JUMP JUMPDEST SWAP1 POP PUSH1 0x0 PUSH1 0x64 PUSH1 0x4 SLOAD DUP5 PUSH2 0x1AA8 SWAP2 SWAP1 PUSH2 0x3377 JUMP JUMPDEST PUSH2 0x1AB2 SWAP2 SWAP1 PUSH2 0x338E JUMP JUMPDEST SWAP1 POP PUSH1 0x0 DUP2 PUSH2 0x1AC1 DUP5 DUP7 PUSH2 0x33B0 JUMP JUMPDEST PUSH2 0x1ACB SWAP2 SWAP1 PUSH2 0x33B0 JUMP JUMPDEST PUSH1 0x0 SLOAD PUSH1 0x40 MLOAD PUSH4 0x23B872DD PUSH1 0xE0 SHL DUP2 MSTORE SWAP2 SWAP3 POP PUSH1 0x1 PUSH1 0x1 PUSH1 0xA0 SHL SUB AND SWAP1 PUSH4 0x23B872DD SWAP1 PUSH2 0x1B02 SWAP1 CALLER SWAP1 PUSH2 0xDEAD SWAP1 DUP9 SWAP1 PUSH1 0x4 ADD PUSH2 0x33C3 JUMP JUMPDEST PUSH1 0x20 PUSH1 0x40 MLOAD DUP1 DUP4 SUB DUP2 PUSH1 0x0 DUP8 GAS CALL ISZERO DUP1 ISZERO PUSH2 0x1B21 JUMPI RETURNDATASIZE PUSH1 0x0 DUP1 RETURNDATACOPY RETURNDATASIZE PUSH1 0x0 REVERT JUMPDEST POP POP POP POP PUSH1 0x40 MLOAD RETURNDATASIZE PUSH1 0x1F NOT PUSH1 0x1F DUP3 ADD AND DUP3 ADD DUP1 PUSH1 0x40 MSTORE POP DUP2 ADD SWAP1 PUSH2 0x1B45 SWAP2 SWAP1 PUSH2 0x33E7 JUMP JUMPDEST POP PUSH1 0x0 SLOAD PUSH1 0x2 SLOAD PUSH1 0x40 MLOAD PUSH4 0x23B872DD PUSH1 0xE0 SHL DUP2 MSTORE PUSH1 0x1 PUSH1 0x1 PUSH1 0xA0 SHL SUB SWAP3 DUP4 AND SWAP3 PUSH4 0x23B872DD SWAP3 PUSH2 0x1B7F SWAP3 CALLER SWAP3 SWAP1 SWAP2 AND SWAP1 DUP8 SWAP1 PUSH1 0x4 ADD PUSH2 0x33C3 JUMP JUMPDEST PUSH1 0x20 PUSH1 0x40 MLOAD DUP1 DUP4 SUB DUP2 PUSH1 0x0 DUP8 GAS CALL ISZERO DUP1 ISZERO PUSH2 0x1B9E JUMPI RETURNDATASIZE PUSH1 0x0 DUP1 RETURNDATACOPY RETURNDATASIZE PUSH1 0x0 REVERT JUMPDEST POP POP POP POP PUSH1 0x40 MLOAD RETURNDATASIZE PUSH1 0x1F NOT PUSH1 0x1F DUP3 ADD AND DUP3 ADD DUP1 PUSH1 0x40 MSTORE POP DUP2 ADD SWAP1 PUSH2 0x1BC2 SWAP2 SWAP1 PUSH2 0x33E7 JUMP JUMPDEST POP PUSH1 0x0 SLOAD PUSH1 0x40 MLOAD PUSH4 0x23B872DD PUSH1 0xE0 SHL DUP2 MSTORE PUSH1 0x1 PUSH1 0x1 PUSH1 0xA0 SHL SUB SWAP1 SWAP2 AND SWAP1 PUSH4 0x23B872DD SWAP1 PUSH2 0x1BF7 SWAP1 CALLER SWAP1 ADDRESS SWAP1 DUP7 SWAP1 PUSH1 0x4 ADD PUSH2 0x33C3 JUMP JUMPDEST PUSH1 0x20 PUSH1 0x40 MLOAD DUP1 DUP4 SUB DUP2 PUSH1 0x0 DUP8 GAS CALL ISZERO DUP1 ISZERO PUSH2 0x1C16 JUMPI RETURNDATASIZE PUSH1 0x0 DUP1 RETURNDATACOPY RETURNDATASIZE PUSH1 0x0 REVERT JUMPDEST POP POP POP POP PUSH1 0x40 MLOAD RETURNDATASIZE PUSH1 0x1F NOT PUSH1 0x1F DUP3 ADD AND DUP3 ADD DUP1 PUSH1 0x40 MSTORE POP DUP2 ADD SWAP1 PUSH2 0x1C3A SWAP2 SWAP1 PUSH2 0x33E7 JUMP JUMPDEST POP DUP1 PUSH1 0x5 PUSH1 0x0 DUP3 DUP3 SLOAD PUSH2 0x1C4D SWAP2 SWAP1 PUSH2 0x3409 JUMP JUMPDEST SWAP1 SWAP2 SSTORE POP POP PUSH1 0x7 DUP1 SLOAD DUP7 SWAP1 DUP2 LT PUSH2 0x1C66 JUMPI PUSH2 0x1C66 PUSH2 0x3565 JUMP JUMPDEST PUSH1 0x0 SWAP2 DUP3 MSTORE PUSH1 0x20 SWAP1 SWAP2 KECCAK256 PUSH1 0x4 PUSH1 0xB SWAP1 SWAP3 MUL ADD ADD SLOAD PUSH1 0x1 PUSH1 0x1 PUSH1 0xA0 SHL SUB AND CALLER SUB PUSH2 0x1CDD JUMPI PUSH1 0x40 MLOAD PUSH3 0x461BCD PUSH1 0xE5 SHL DUP2 MSTORE PUSH1 0x20 PUSH1 0x4 DUP3 ADD MSTORE PUSH1 0x24 DUP1 DUP3 ADD MSTORE PUSH32 0x4572726F723A20596F752063616E6E6F7420706C6179207769746820796F7572 PUSH1 0x44 DUP3 ADD MSTORE PUSH4 0x39B2B633 PUSH1 0xE1 SHL PUSH1 0x64 DUP3 ADD MSTORE PUSH1 0x84 ADD PUSH2 0x33C JUMP JUMPDEST CALLER PUSH1 0x7 DUP7 DUP2 SLOAD DUP2 LT PUSH2 0x1CF1 JUMPI PUSH2 0x1CF1 PUSH2 0x3565 JUMP JUMPDEST SWAP1 PUSH1 0x0 MSTORE PUSH1 0x20 PUSH1 0x0 KECCAK256 SWAP1 PUSH1 0xB MUL ADD PUSH1 0x5 ADD PUSH1 0x0 PUSH2 0x100 EXP DUP2 SLOAD DUP2 PUSH1 0x1 PUSH1 0x1 PUSH1 0xA0 SHL SUB MUL NOT AND SWAP1 DUP4 PUSH1 0x1 PUSH1 0x1 PUSH1 0xA0 SHL SUB AND MUL OR SWAP1 SSTORE POP PUSH1 0x2 PUSH1 0x7 DUP7 DUP2 SLOAD DUP2 LT PUSH2 0x1D3B JUMPI PUSH2 0x1D3B PUSH2 0x3565 JUMP JUMPDEST SWAP1 PUSH1 0x0 MSTORE PUSH1 0x20 PUSH1 0x0 KECCAK256 SWAP1 PUSH1 0xB MUL ADD PUSH1 0x6 ADD DUP2 SWAP1 SSTORE POP PUSH1 0x1 PUSH1 0x7 DUP7 DUP2 SLOAD DUP2 LT PUSH2 0x1D65 JUMPI PUSH2 0x1D65 PUSH2 0x3565 JUMP JUMPDEST SWAP1 PUSH1 0x0 MSTORE PUSH1 0x20 PUSH1 0x0 KECCAK256 SWAP1 PUSH1 0xB MUL ADD PUSH1 0x0 ADD PUSH1 0x0 PUSH2 0x100 EXP DUP2 SLOAD DUP2 PUSH1 0xFF MUL NOT AND SWAP1 DUP4 ISZERO ISZERO MUL OR SWAP1 SSTORE POP DUP4 PUSH1 0x7 DUP7 DUP2 SLOAD DUP2 LT PUSH2 0x1DA1 JUMPI PUSH2 0x1DA1 PUSH2 0x3565 JUMP JUMPDEST SWAP1 PUSH1 0x0 MSTORE PUSH1 0x20 PUSH1 0x0 KECCAK256 SWAP1 PUSH1 0xB MUL ADD PUSH1 0x9 ADD DUP2 SWAP1 SSTORE POP PUSH32 0x2F78808C539FD07CB45456A5D5561C76D3D4005246FACCB297481E511ABC321A PUSH1 0x7 DUP7 DUP2 SLOAD DUP2 LT PUSH2 0x1DEA JUMPI PUSH2 0x1DEA PUSH2 0x3565 JUMP JUMPDEST SWAP1 PUSH1 0x0 MSTORE PUSH1 0x20 PUSH1 0x0 KECCAK256 SWAP1 PUSH1 0xB MUL ADD PUSH1 0x4 ADD PUSH1 0x0 SWAP1 SLOAD SWAP1 PUSH2 0x100 EXP SWAP1 DIV PUSH1 0x1 PUSH1 0x1 PUSH1 0xA0 SHL SUB AND PUSH1 0x7 DUP8 DUP2 SLOAD DUP2 LT PUSH2 0x1E22 JUMPI PUSH2 0x1E22 PUSH2 0x3565 JUMP JUMPDEST PUSH1 0x0 SWAP2 DUP3 MSTORE PUSH1 0x20 SWAP2 DUP3 SWAP1 KECCAK256 PUSH1 0xB SWAP2 DUP3 MUL ADD PUSH1 0x5 ADD SLOAD PUSH1 0x40 DUP1 MLOAD PUSH1 0x80 DUP1 DUP3 MSTORE DUP2 ADD SWAP4 SWAP1 SWAP4 MSTORE PUSH11 0x53746172742067616D6521 PUSH1 0xA8 SHL PUSH1 0xA0 DUP5 ADD MSTORE PUSH1 0x1 PUSH1 0x1 PUSH1 0xA0 SHL SUB SWAP5 DUP6 AND SWAP4 DUP4 ADD SWAP4 SWAP1 SWAP4 MSTORE SWAP3 SWAP1 SWAP3 AND SWAP1 DUP3 ADD MSTORE PUSH1 0x60 DUP2 ADD DUP8 SWAP1 MSTORE PUSH1 0xC0 ADD PUSH1 0x40 MLOAD DUP1 SWAP2 SUB SWAP1 LOG1 POP POP POP PUSH2 0x1F28 JUMP JUMPDEST PUSH1 0x7 DUP3 DUP2 SLOAD DUP2 LT PUSH2 0x1EA1 JUMPI PUSH2 0x1EA1 PUSH2 0x3565 JUMP JUMPDEST SWAP1 PUSH1 0x0 MSTORE PUSH1 0x20 PUSH1 0x0 KECCAK256 SWAP1 PUSH1 0xB MUL ADD PUSH1 0x6 ADD SLOAD PUSH1 0x2 EQ PUSH2 0x1F28 JUMPI PUSH1 0x40 MLOAD PUSH3 0x461BCD PUSH1 0xE5 SHL DUP2 MSTORE PUSH1 0x20 PUSH1 0x4 DUP3 ADD MSTORE PUSH1 0x3E PUSH1 0x24 DUP3 ADD MSTORE PUSH32 0x4E6F772071756575652069732066756C6C2C20747279206C617465722E204761 PUSH1 0x44 DUP3 ADD MSTORE PUSH32 0x6D6520616C72656164792066756C6C20706C73206A6F696E206F746865720000 PUSH1 0x64 DUP3 ADD MSTORE PUSH1 0x84 ADD PUSH2 0x33C JUMP JUMPDEST PUSH32 0x50370B40BD566613CB1B12508C3114409E62C5C8DE11BE443CAFC84462CF5699 PUSH1 0x7 DUP4 DUP2 SLOAD DUP2 LT PUSH2 0x1F5C JUMPI PUSH2 0x1F5C PUSH2 0x3565 JUMP JUMPDEST SWAP1 PUSH1 0x0 MSTORE PUSH1 0x20 PUSH1 0x0 KECCAK256 SWAP1 PUSH1 0xB MUL ADD DUP4 PUSH1 0x40 MLOAD PUSH2 0x1F79 SWAP3 SWAP2 SWAP1 PUSH2 0x379C JUMP JUMPDEST PUSH1 0x40 MLOAD DUP1 SWAP2 SUB SWAP1 LOG1 POP POP PUSH1 0x6 DUP1 SLOAD PUSH1 0xFF PUSH1 0xA0 SHL NOT AND SWAP1 SSTORE JUMP JUMPDEST PUSH1 0x0 DUP2 PUSH1 0x40 MLOAD PUSH1 0x20 ADD PUSH2 0x1FA5 SWAP2 SWAP1 PUSH2 0x387C JUMP JUMPDEST PUSH1 0x40 MLOAD PUSH1 0x20 DUP2 DUP4 SUB SUB DUP2 MSTORE SWAP1 PUSH1 0x40 MSTORE DUP1 MLOAD SWAP1 PUSH1 0x20 ADD KECCAK256 DUP4 PUSH1 0x40 MLOAD PUSH1 0x20 ADD PUSH2 0x1FCC SWAP2 SWAP1 PUSH2 0x387C JUMP JUMPDEST PUSH1 0x40 MLOAD PUSH1 0x20 DUP2 DUP4 SUB SUB DUP2 MSTORE SWAP1 PUSH1 0x40 MSTORE DUP1 MLOAD SWAP1 PUSH1 0x20 ADD KECCAK256 EQ SWAP1 POP JUMPDEST SWAP3 SWAP2 POP POP JUMP JUMPDEST PUSH1 0x60 PUSH1 0x7 DUP3 DUP2 SLOAD DUP2 LT PUSH2 0x2001 JUMPI PUSH2 0x2001 PUSH2 0x3565 JUMP JUMPDEST SWAP1 PUSH1 0x0 MSTORE PUSH1 0x20 PUSH1 0x0 KECCAK256 SWAP1 PUSH1 0xB MUL ADD PUSH1 0x2 ADD DUP1 SLOAD DUP1 PUSH1 0x20 MUL PUSH1 0x20 ADD PUSH1 0x40 MLOAD SWAP1 DUP2 ADD PUSH1 0x40 MSTORE DUP1 SWAP3 SWAP2 SWAP1 DUP2 DUP2 MSTORE PUSH1 0x20 ADD PUSH1 0x0 SWAP1 JUMPDEST DUP3 DUP3 LT ISZERO PUSH2 0x20DE JUMPI DUP4 DUP3 SWAP1 PUSH1 0x0 MSTORE PUSH1 0x20 PUSH1 0x0 KECCAK256 ADD DUP1 SLOAD PUSH2 0x2051 SWAP1 PUSH2 0x341C JUMP JUMPDEST DUP1 PUSH1 0x1F ADD PUSH1 0x20 DUP1 SWAP2 DIV MUL PUSH1 0x20 ADD PUSH1 0x40 MLOAD SWAP1 DUP2 ADD PUSH1 0x40 MSTORE DUP1 SWAP3 SWAP2 SWAP1 DUP2 DUP2 MSTORE PUSH1 0x20 ADD DUP3 DUP1 SLOAD PUSH2 0x207D SWAP1 PUSH2 0x341C JUMP JUMPDEST DUP1 ISZERO PUSH2 0x20CA JUMPI DUP1 PUSH1 0x1F LT PUSH2 0x209F JUMPI PUSH2 0x100 DUP1 DUP4 SLOAD DIV MUL DUP4 MSTORE SWAP2 PUSH1 0x20 ADD SWAP2 PUSH2 0x20CA JUMP JUMPDEST DUP3 ADD SWAP2 SWAP1 PUSH1 0x0 MSTORE PUSH1 0x20 PUSH1 0x0 KECCAK256 SWAP1 JUMPDEST DUP2 SLOAD DUP2 MSTORE SWAP1 PUSH1 0x1 ADD SWAP1 PUSH1 0x20 ADD DUP1 DUP4 GT PUSH2 0x20AD JUMPI DUP3 SWAP1 SUB PUSH1 0x1F AND DUP3 ADD SWAP2 JUMPDEST POP POP POP POP POP DUP2 MSTORE PUSH1 0x20 ADD SWAP1 PUSH1 0x1 ADD SWAP1 PUSH2 0x2032 JUMP JUMPDEST POP POP POP POP SWAP1 POP SWAP2 SWAP1 POP JUMP JUMPDEST PUSH1 0x6 SLOAD PUSH1 0x1 PUSH1 0x1 PUSH1 0xA0 SHL SUB AND CALLER EQ PUSH2 0x2133 JUMPI PUSH1 0x40 MLOAD PUSH3 0x461BCD PUSH1 0xE5 SHL DUP2 MSTORE PUSH1 0x20 PUSH1 0x4 DUP3 ADD MSTORE PUSH1 0xD PUSH1 0x24 DUP3 ADD MSTORE PUSH13 0x2737BA103A34329037BBB732B9 PUSH1 0x99 SHL PUSH1 0x44 DUP3 ADD MSTORE PUSH1 0x64 ADD PUSH2 0x33C JUMP JUMPDEST PUSH1 0x0 SLOAD PUSH1 0x6 SLOAD PUSH1 0x40 MLOAD PUSH4 0x70A08231 PUSH1 0xE0 SHL DUP2 MSTORE ADDRESS PUSH1 0x4 DUP3 ADD MSTORE PUSH1 0x1 PUSH1 0x1 PUSH1 0xA0 SHL SUB SWAP3 DUP4 AND SWAP3 PUSH4 0xA9059CBB SWAP3 AND SWAP1 DUP4 SWAP1 PUSH4 0x70A08231 SWAP1 PUSH1 0x24 ADD PUSH1 0x20 PUSH1 0x40 MLOAD DUP1 DUP4 SUB DUP2 DUP7 GAS STATICCALL ISZERO DUP1 ISZERO PUSH2 0x2188 JUMPI RETURNDATASIZE PUSH1 0x0 DUP1 RETURNDATACOPY RETURNDATASIZE PUSH1 0x0 REVERT JUMPDEST POP POP POP POP PUSH1 0x40 MLOAD RETURNDATASIZE PUSH1 0x1F NOT PUSH1 0x1F DUP3 ADD AND DUP3 ADD DUP1 PUSH1 0x40 MSTORE POP DUP2 ADD SWAP1 PUSH2 0x15C9 SWAP2 SWAP1 PUSH2 0x3348 JUMP JUMPDEST PUSH1 0x0 PUSH1 0x7 DUP3 DUP2 SLOAD DUP2 LT PUSH2 0x21C1 JUMPI PUSH2 0x21C1 PUSH2 0x3565 JUMP JUMPDEST PUSH1 0x0 SWAP2 DUP3 MSTORE PUSH1 0x20 SWAP1 SWAP2 KECCAK256 PUSH1 0xB SWAP1 SWAP2 MUL ADD PUSH1 0x4 ADD SLOAD PUSH1 0x1 PUSH1 0x1 PUSH1 0xA0 SHL SUB AND CALLER EQ DUP1 PUSH2 0x2219 JUMPI POP PUSH1 0x7 DUP3 DUP2 SLOAD DUP2 LT PUSH2 0x21F9 JUMPI PUSH2 0x21F9 PUSH2 0x3565 JUMP JUMPDEST PUSH1 0x0 SWAP2 DUP3 MSTORE PUSH1 0x20 SWAP1 SWAP2 KECCAK256 PUSH1 0xB SWAP1 SWAP2 MUL ADD PUSH1 0x5 ADD SLOAD PUSH1 0x1 PUSH1 0x1 PUSH1 0xA0 SHL SUB AND CALLER EQ JUMPDEST PUSH2 0x2224 JUMPI PUSH1 0x0 PUSH2 0x1FE6 JUMP JUMPDEST PUSH1 0x1 SWAP3 SWAP2 POP POP JUMP JUMPDEST PUSH1 0x0 DUP1 JUMPDEST PUSH1 0x8 SLOAD DUP2 LT ISZERO PUSH2 0x275F JUMPI PUSH1 0x0 PUSH1 0x8 DUP3 DUP2 SLOAD DUP2 LT PUSH2 0x224F JUMPI PUSH2 0x224F PUSH2 0x3565 JUMP JUMPDEST SWAP1 PUSH1 0x0 MSTORE PUSH1 0x20 PUSH1 0x0 KECCAK256 ADD DUP1 SLOAD DUP1 PUSH1 0x20 MUL PUSH1 0x20 ADD PUSH1 0x40 MLOAD SWAP1 DUP2 ADD PUSH1 0x40 MSTORE DUP1 SWAP3 SWAP2 SWAP1 DUP2 DUP2 MSTORE PUSH1 0x20 ADD DUP3 DUP1 SLOAD DUP1 ISZERO PUSH2 0x22A3 JUMPI PUSH1 0x20 MUL DUP3 ADD SWAP2 SWAP1 PUSH1 0x0 MSTORE PUSH1 0x20 PUSH1 0x0 KECCAK256 SWAP1 JUMPDEST DUP2 SLOAD DUP2 MSTORE PUSH1 0x20 ADD SWAP1 PUSH1 0x1 ADD SWAP1 DUP1 DUP4 GT PUSH2 0x228F JUMPI JUMPDEST POP POP POP POP POP SWAP1 POP PUSH1 0x0 PUSH1 0x7 DUP6 DUP2 SLOAD DUP2 LT PUSH2 0x22BF JUMPI PUSH2 0x22BF PUSH2 0x3565 JUMP JUMPDEST SWAP1 PUSH1 0x0 MSTORE PUSH1 0x20 PUSH1 0x0 KECCAK256 SWAP1 PUSH1 0xB MUL ADD PUSH1 0x2 ADD DUP3 PUSH1 0x0 DUP2 MLOAD DUP2 LT PUSH2 0x22E3 JUMPI PUSH2 0x22E3 PUSH2 0x3565 JUMP JUMPDEST PUSH1 0x20 MUL PUSH1 0x20 ADD ADD MLOAD DUP2 SLOAD DUP2 LT PUSH2 0x22FB JUMPI PUSH2 0x22FB PUSH2 0x3565 JUMP JUMPDEST SWAP1 PUSH1 0x0 MSTORE PUSH1 0x20 PUSH1 0x0 KECCAK256 ADD DUP1 SLOAD PUSH2 0x2310 SWAP1 PUSH2 0x341C JUMP JUMPDEST DUP1 PUSH1 0x1F ADD PUSH1 0x20 DUP1 SWAP2 DIV MUL PUSH1 0x20 ADD PUSH1 0x40 MLOAD SWAP1 DUP2 ADD PUSH1 0x40 MSTORE DUP1 SWAP3 SWAP2 SWAP1 DUP2 DUP2 MSTORE PUSH1 0x20 ADD DUP3 DUP1 SLOAD PUSH2 0x233C SWAP1 PUSH2 0x341C JUMP JUMPDEST DUP1 ISZERO PUSH2 0x2389 JUMPI DUP1 PUSH1 0x1F LT PUSH2 0x235E JUMPI PUSH2 0x100 DUP1 DUP4 SLOAD DIV MUL DUP4 MSTORE SWAP2 PUSH1 0x20 ADD SWAP2 PUSH2 0x2389 JUMP JUMPDEST DUP3 ADD SWAP2 SWAP1 PUSH1 0x0 MSTORE PUSH1 0x20 PUSH1 0x0 KECCAK256 SWAP1 JUMPDEST DUP2 SLOAD DUP2 MSTORE SWAP1 PUSH1 0x1 ADD SWAP1 PUSH1 0x20 ADD DUP1 DUP4 GT PUSH2 0x236C JUMPI DUP3 SWAP1 SUB PUSH1 0x1F AND DUP3 ADD SWAP2 JUMPDEST POP POP POP POP POP SWAP1 POP PUSH1 0x0 PUSH1 0x7 DUP7 DUP2 SLOAD DUP2 LT PUSH2 0x23A5 JUMPI PUSH2 0x23A5 PUSH2 0x3565 JUMP JUMPDEST SWAP1 PUSH1 0x0 MSTORE PUSH1 0x20 PUSH1 0x0 KECCAK256 SWAP1 PUSH1 0xB MUL ADD PUSH1 0x2 ADD DUP4 PUSH1 0x1 DUP2 MLOAD DUP2 LT PUSH2 0x23C9 JUMPI PUSH2 0x23C9 PUSH2 0x3565 JUMP JUMPDEST PUSH1 0x20 MUL PUSH1 0x20 ADD ADD MLOAD DUP2 SLOAD DUP2 LT PUSH2 0x23E1 JUMPI PUSH2 0x23E1 PUSH2 0x3565 JUMP JUMPDEST SWAP1 PUSH1 0x0 MSTORE PUSH1 0x20 PUSH1 0x0 KECCAK256 ADD DUP1 SLOAD PUSH2 0x23F6 SWAP1 PUSH2 0x341C JUMP JUMPDEST DUP1 PUSH1 0x1F ADD PUSH1 0x20 DUP1 SWAP2 DIV MUL PUSH1 0x20 ADD PUSH1 0x40 MLOAD SWAP1 DUP2 ADD PUSH1 0x40 MSTORE DUP1 SWAP3 SWAP2 SWAP1 DUP2 DUP2 MSTORE PUSH1 0x20 ADD DUP3 DUP1 SLOAD PUSH2 0x2422 SWAP1 PUSH2 0x341C JUMP JUMPDEST DUP1 ISZERO PUSH2 0x246F JUMPI DUP1 PUSH1 0x1F LT PUSH2 0x2444 JUMPI PUSH2 0x100 DUP1 DUP4 SLOAD DIV MUL DUP4 MSTORE SWAP2 PUSH1 0x20 ADD SWAP2 PUSH2 0x246F JUMP JUMPDEST DUP3 ADD SWAP2 SWAP1 PUSH1 0x0 MSTORE PUSH1 0x20 PUSH1 0x0 KECCAK256 SWAP1 JUMPDEST DUP2 SLOAD DUP2 MSTORE SWAP1 PUSH1 0x1 ADD SWAP1 PUSH1 0x20 ADD DUP1 DUP4 GT PUSH2 0x2452 JUMPI DUP3 SWAP1 SUB PUSH1 0x1F AND DUP3 ADD SWAP2 JUMPDEST POP POP POP POP POP SWAP1 POP PUSH1 0x0 PUSH1 0x7 DUP8 DUP2 SLOAD DUP2 LT PUSH2 0x248B JUMPI PUSH2 0x248B PUSH2 0x3565 JUMP JUMPDEST SWAP1 PUSH1 0x0 MSTORE PUSH1 0x20 PUSH1 0x0 KECCAK256 SWAP1 PUSH1 0xB MUL ADD PUSH1 0x2 ADD DUP5 PUSH1 0x2 DUP2 MLOAD DUP2 LT PUSH2 0x24AF JUMPI PUSH2 0x24AF PUSH2 0x3565 JUMP JUMPDEST PUSH1 0x20 MUL PUSH1 0x20 ADD ADD MLOAD DUP2 SLOAD DUP2 LT PUSH2 0x24C7 JUMPI PUSH2 0x24C7 PUSH2 0x3565 JUMP JUMPDEST SWAP1 PUSH1 0x0 MSTORE PUSH1 0x20 PUSH1 0x0 KECCAK256 ADD DUP1 SLOAD PUSH2 0x24DC SWAP1 PUSH2 0x341C JUMP JUMPDEST DUP1 PUSH1 0x1F ADD PUSH1 0x20 DUP1 SWAP2 DIV MUL PUSH1 0x20 ADD PUSH1 0x40 MLOAD SWAP1 DUP2 ADD PUSH1 0x40 MSTORE DUP1 SWAP3 SWAP2 SWAP1 DUP2 DUP2 MSTORE PUSH1 0x20 ADD DUP3 DUP1 SLOAD PUSH2 0x2508 SWAP1 PUSH2 0x341C JUMP JUMPDEST DUP1 ISZERO PUSH2 0x2555 JUMPI DUP1 PUSH1 0x1F LT PUSH2 0x252A JUMPI PUSH2 0x100 DUP1 DUP4 SLOAD DIV MUL DUP4 MSTORE SWAP2 PUSH1 0x20 ADD SWAP2 PUSH2 0x2555 JUMP JUMPDEST DUP3 ADD SWAP2 SWAP1 PUSH1 0x0 MSTORE PUSH1 0x20 PUSH1 0x0 KECCAK256 SWAP1 JUMPDEST DUP2 SLOAD DUP2 MSTORE SWAP1 PUSH1 0x1 ADD SWAP1 PUSH1 0x20 ADD DUP1 DUP4 GT PUSH2 0x2538 JUMPI DUP3 SWAP1 SUB PUSH1 0x1F AND DUP3 ADD SWAP2 JUMPDEST POP POP POP POP POP SWAP1 POP PUSH2 0x2575 DUP4 PUSH1 0x40 MLOAD DUP1 PUSH1 0x20 ADD PUSH1 0x40 MSTORE DUP1 PUSH1 0x0 DUP2 MSTORE POP PUSH2 0x1F92 JUMP JUMPDEST DUP1 PUSH2 0x2594 JUMPI POP PUSH2 0x2594 DUP3 PUSH1 0x40 MLOAD DUP1 PUSH1 0x20 ADD PUSH1 0x40 MSTORE DUP1 PUSH1 0x0 DUP2 MSTORE POP PUSH2 0x1F92 JUMP JUMPDEST DUP1 PUSH2 0x25B3 JUMPI POP PUSH2 0x25B3 DUP2 PUSH1 0x40 MLOAD DUP1 PUSH1 0x20 ADD PUSH1 0x40 MSTORE DUP1 PUSH1 0x0 DUP2 MSTORE POP PUSH2 0x1F92 JUMP JUMPDEST ISZERO PUSH2 0x25C1 JUMPI POP POP POP POP PUSH2 0x274D JUMP JUMPDEST PUSH2 0x25CB DUP4 DUP4 PUSH2 0x1F92 JUMP JUMPDEST DUP1 ISZERO PUSH2 0x25DC JUMPI POP PUSH2 0x25DC DUP3 DUP3 PUSH2 0x1F92 JUMP JUMPDEST ISZERO PUSH2 0x2748 JUMPI DUP4 PUSH1 0x7 DUP9 DUP2 SLOAD DUP2 LT PUSH2 0x25F5 JUMPI PUSH2 0x25F5 PUSH2 0x3565 JUMP JUMPDEST SWAP1 PUSH1 0x0 MSTORE PUSH1 0x20 PUSH1 0x0 KECCAK256 SWAP1 PUSH1 0xB MUL ADD PUSH1 0x3 ADD SWAP1 DUP1 MLOAD SWAP1 PUSH1 0x20 ADD SWAP1 PUSH2 0x2619 SWAP3 SWAP2 SWAP1 PUSH2 0x2DD6 JUMP JUMPDEST POP PUSH2 0x2630 PUSH1 0x7 DUP9 DUP2 SLOAD DUP2 LT PUSH2 0x10B9 JUMPI PUSH2 0x10B9 PUSH2 0x3565 JUMP JUMPDEST ISZERO PUSH2 0x26BA JUMPI PUSH1 0x7 DUP8 DUP2 SLOAD DUP2 LT PUSH2 0x2648 JUMPI PUSH2 0x2648 PUSH2 0x3565 JUMP JUMPDEST SWAP1 PUSH1 0x0 MSTORE PUSH1 0x20 PUSH1 0x0 KECCAK256 SWAP1 PUSH1 0xB MUL ADD PUSH1 0x4 ADD PUSH1 0x0 SWAP1 SLOAD SWAP1 PUSH2 0x100 EXP SWAP1 DIV PUSH1 0x1 PUSH1 0x1 PUSH1 0xA0 SHL SUB AND PUSH1 0x7 DUP9 DUP2 SLOAD DUP2 LT PUSH2 0x2680 JUMPI PUSH2 0x2680 PUSH2 0x3565 JUMP JUMPDEST SWAP1 PUSH1 0x0 MSTORE PUSH1 0x20 PUSH1 0x0 KECCAK256 SWAP1 PUSH1 0xB MUL ADD PUSH1 0x7 ADD PUSH1 0x0 PUSH2 0x100 EXP DUP2 SLOAD DUP2 PUSH1 0x1 PUSH1 0x1 PUSH1 0xA0 SHL SUB MUL NOT AND SWAP1 DUP4 PUSH1 0x1 PUSH1 0x1 PUSH1 0xA0 SHL SUB AND MUL OR SWAP1 SSTORE POP PUSH2 0x273B JUMP JUMPDEST PUSH1 0x7 DUP8 DUP2 SLOAD DUP2 LT PUSH2 0x26CD JUMPI PUSH2 0x26CD PUSH2 0x3565 JUMP JUMPDEST SWAP1 PUSH1 0x0 MSTORE PUSH1 0x20 PUSH1 0x0 KECCAK256 SWAP1 PUSH1 0xB MUL ADD PUSH1 0x5 ADD PUSH1 0x0 SWAP1 SLOAD SWAP1 PUSH2 0x100 EXP SWAP1 DIV PUSH1 0x1 PUSH1 0x1 PUSH1 0xA0 SHL SUB AND PUSH1 0x7 DUP9 DUP2 SLOAD DUP2 LT PUSH2 0x2705 JUMPI PUSH2 0x2705 PUSH2 0x3565 JUMP JUMPDEST SWAP1 PUSH1 0x0 MSTORE PUSH1 0x20 PUSH1 0x0 KECCAK256 SWAP1 PUSH1 0xB MUL ADD PUSH1 0x7 ADD PUSH1 0x0 PUSH2 0x100 EXP DUP2 SLOAD DUP2 PUSH1 0x1 PUSH1 0x1 PUSH1 0xA0 SHL SUB MUL NOT AND SWAP1 DUP4 PUSH1 0x1 PUSH1 0x1 PUSH1 0xA0 SHL SUB AND MUL OR SWAP1 SSTORE POP JUMPDEST PUSH1 0x1 SWAP6 POP POP POP POP POP PUSH2 0x275F JUMP JUMPDEST POP POP POP POP JUMPDEST DUP1 PUSH2 0x2757 DUP2 PUSH2 0x357B JUMP JUMPDEST SWAP2 POP POP PUSH2 0x2230 JUMP JUMPDEST POP DUP1 ISZERO PUSH2 0x2A44 JUMPI PUSH2 0x277C PUSH1 0x7 DUP4 DUP2 SLOAD DUP2 LT PUSH2 0x10B9 JUMPI PUSH2 0x10B9 PUSH2 0x3565 JUMP JUMPDEST ISZERO PUSH2 0x2876 JUMPI PUSH1 0x0 SLOAD PUSH1 0x7 DUP1 SLOAD PUSH1 0x1 PUSH1 0x1 PUSH1 0xA0 SHL SUB SWAP1 SWAP3 AND SWAP2 PUSH4 0xA9059CBB SWAP2 SWAP1 DUP6 SWAP1 DUP2 LT PUSH2 0x27AB JUMPI PUSH2 0x27AB PUSH2 0x3565 JUMP JUMPDEST SWAP1 PUSH1 0x0 MSTORE PUSH1 0x20 PUSH1 0x0 KECCAK256 SWAP1 PUSH1 0xB MUL ADD PUSH1 0x4 ADD PUSH1 0x0 SWAP1 SLOAD SWAP1 PUSH2 0x100 EXP SWAP1 DIV PUSH1 0x1 PUSH1 0x1 PUSH1 0xA0 SHL SUB AND PUSH1 0x7 DUP6 DUP2 SLOAD DUP2 LT PUSH2 0x27E3 JUMPI PUSH2 0x27E3 PUSH2 0x3565 JUMP JUMPDEST SWAP1 PUSH1 0x0 MSTORE PUSH1 0x20 PUSH1 0x0 KECCAK256 SWAP1 PUSH1 0xB MUL ADD PUSH1 0xA ADD SLOAD PUSH1 0x2 PUSH2 0x2801 SWAP2 SWAP1 PUSH2 0x3377 JUMP JUMPDEST PUSH1 0x40 MLOAD PUSH1 0x1 PUSH1 0x1 PUSH1 0xE0 SHL SUB NOT PUSH1 0xE0 DUP6 SWAP1 SHL AND DUP2 MSTORE PUSH1 0x1 PUSH1 0x1 PUSH1 0xA0 SHL SUB SWAP1 SWAP3 AND PUSH1 0x4 DUP4 ADD MSTORE PUSH1 0x24 DUP3 ADD MSTORE PUSH1 0x44 ADD PUSH1 0x20 PUSH1 0x40 MLOAD DUP1 DUP4 SUB DUP2 PUSH1 0x0 DUP8 GAS CALL ISZERO DUP1 ISZERO PUSH2 0x284C JUMPI RETURNDATASIZE PUSH1 0x0 DUP1 RETURNDATACOPY RETURNDATASIZE PUSH1 0x0 REVERT JUMPDEST POP POP POP POP PUSH1 0x40 MLOAD RETURNDATASIZE PUSH1 0x1F NOT PUSH1 0x1F DUP3 ADD AND DUP3 ADD DUP1 PUSH1 0x40 MSTORE POP DUP2 ADD SWAP1 PUSH2 0x2870 SWAP2 SWAP1 PUSH2 0x33E7 JUMP JUMPDEST POP PUSH2 0x2967 JUMP JUMPDEST PUSH1 0x0 SLOAD PUSH1 0x7 DUP1 SLOAD PUSH1 0x1 PUSH1 0x1 PUSH1 0xA0 SHL SUB SWAP1 SWAP3 AND SWAP2 PUSH4 0xA9059CBB SWAP2 SWAP1 DUP6 SWAP1 DUP2 LT PUSH2 0x28A0 JUMPI PUSH2 0x28A0 PUSH2 0x3565 JUMP JUMPDEST SWAP1 PUSH1 0x0 MSTORE PUSH1 0x20 PUSH1 0x0 KECCAK256 SWAP1 PUSH1 0xB MUL ADD PUSH1 0x5 ADD PUSH1 0x0 SWAP1 SLOAD SWAP1 PUSH2 0x100 EXP SWAP1 DIV PUSH1 0x1 PUSH1 0x1 PUSH1 0xA0 SHL SUB AND PUSH1 0x7 DUP6 DUP2 SLOAD DUP2 LT PUSH2 0x28D8 JUMPI PUSH2 0x28D8 PUSH2 0x3565 JUMP JUMPDEST SWAP1 PUSH1 0x0 MSTORE PUSH1 0x20 PUSH1 0x0 KECCAK256 SWAP1 PUSH1 0xB MUL ADD PUSH1 0xA ADD SLOAD PUSH1 0x2 PUSH2 0x28F6 SWAP2 SWAP1 PUSH2 0x3377 JUMP JUMPDEST PUSH1 0x40 MLOAD PUSH1 0x1 PUSH1 0x1 PUSH1 0xE0 SHL SUB NOT PUSH1 0xE0 DUP6 SWAP1 SHL AND DUP2 MSTORE PUSH1 0x1 PUSH1 0x1 PUSH1 0xA0 SHL SUB SWAP1 SWAP3 AND PUSH1 0x4 DUP4 ADD MSTORE PUSH1 0x24 DUP3 ADD MSTORE PUSH1 0x44 ADD PUSH1 0x20 PUSH1 0x40 MLOAD DUP1 DUP4 SUB DUP2 PUSH1 0x0 DUP8 GAS CALL ISZERO DUP1 ISZERO PUSH2 0x2941 JUMPI RETURNDATASIZE PUSH1 0x0 DUP1 RETURNDATACOPY RETURNDATASIZE PUSH1 0x0 REVERT JUMPDEST POP POP POP POP PUSH1 0x40 MLOAD RETURNDATASIZE PUSH1 0x1F NOT PUSH1 0x1F DUP3 ADD AND DUP3 ADD DUP1 PUSH1 0x40 MSTORE POP DUP2 ADD SWAP1 PUSH2 0x2965 SWAP2 SWAP1 PUSH2 0x33E7 JUMP JUMPDEST POP JUMPDEST PUSH1 0x7 DUP3 DUP2 SLOAD DUP2 LT PUSH2 0x297A JUMPI PUSH2 0x297A PUSH2 0x3565 JUMP JUMPDEST SWAP1 PUSH1 0x0 MSTORE PUSH1 0x20 PUSH1 0x0 KECCAK256 SWAP1 PUSH1 0xB MUL ADD PUSH1 0xA ADD SLOAD PUSH1 0x2 PUSH2 0x2998 SWAP2 SWAP1 PUSH2 0x3377 JUMP JUMPDEST PUSH1 0x5 PUSH1 0x0 DUP3 DUP3 SLOAD PUSH2 0x29A9 SWAP2 SWAP1 PUSH2 0x33B0 JUMP JUMPDEST SWAP3 POP POP DUP2 SWAP1 SSTORE POP PUSH32 0x938A1C44580C51D01225D61FB97878104148B1CDC734EB45BC5B5B50533A492D PUSH1 0x7 DUP4 DUP2 SLOAD DUP2 LT PUSH2 0x29E4 JUMPI PUSH2 0x29E4 PUSH2 0x3565 JUMP JUMPDEST SWAP1 PUSH1 0x0 MSTORE PUSH1 0x20 PUSH1 0x0 KECCAK256 SWAP1 PUSH1 0xB MUL ADD PUSH1 0x1 ADD DUP4 PUSH1 0x40 MLOAD PUSH2 0x2A04 SWAP3 SWAP2 SWAP1 PUSH2 0x3898 JUMP JUMPDEST PUSH1 0x40 MLOAD DUP1 SWAP2 SUB SWAP1 LOG1 PUSH1 0x0 PUSH1 0x7 DUP4 DUP2 SLOAD DUP2 LT PUSH2 0x2A21 JUMPI PUSH2 0x2A21 PUSH2 0x3565 JUMP JUMPDEST PUSH1 0x0 SWAP2 DUP3 MSTORE PUSH1 0x20 SWAP1 SWAP2 KECCAK256 PUSH1 0xB SWAP1 SWAP2 MUL ADD DUP1 SLOAD PUSH1 0xFF NOT AND SWAP2 ISZERO ISZERO SWAP2 SWAP1 SWAP2 OR SWAP1 SSTORE POP POP JUMP JUMPDEST PUSH2 0x2A4D DUP3 PUSH2 0x2AA9 JUMP JUMPDEST ISZERO PUSH2 0x2AA0 JUMPI PUSH1 0x40 DUP1 MLOAD DUP2 DUP2 MSTORE PUSH1 0x4 SWAP2 DUP2 ADD SWAP2 SWAP1 SWAP2 MSTORE PUSH4 0x44726177 PUSH1 0xE0 SHL PUSH1 0x60 DUP3 ADD MSTORE PUSH1 0x20 DUP2 ADD DUP4 SWAP1 MSTORE PUSH32 0x938A1C44580C51D01225D61FB97878104148B1CDC734EB45BC5B5B50533A492D SWAP1 PUSH1 0x80 ADD PUSH2 0x2A04 JUMP JUMPDEST PUSH2 0x133B DUP3 PUSH2 0x2B3D JUMP JUMPDEST PUSH1 0x0 DUP1 JUMPDEST PUSH1 0x7 DUP4 DUP2 SLOAD DUP2 LT PUSH2 0x2AC0 JUMPI PUSH2 0x2AC0 PUSH2 0x3565 JUMP JUMPDEST SWAP1 PUSH1 0x0 MSTORE PUSH1 0x20 PUSH1 0x0 KECCAK256 SWAP1 PUSH1 0xB MUL ADD PUSH1 0x2 ADD DUP1 SLOAD SWAP1 POP DUP2 LT ISZERO PUSH2 0x2B34 JUMPI PUSH2 0x2B14 PUSH1 0x7 DUP5 DUP2 SLOAD DUP2 LT PUSH2 0x2AF2 JUMPI PUSH2 0x2AF2 PUSH2 0x3565 JUMP JUMPDEST SWAP1 PUSH1 0x0 MSTORE PUSH1 0x20 PUSH1 0x0 KECCAK256 SWAP1 PUSH1 0xB MUL ADD PUSH1 0x2 ADD DUP3 DUP2 SLOAD DUP2 LT PUSH2 0xFBF JUMPI PUSH2 0xFBF PUSH2 0x3565 JUMP JUMPDEST ISZERO PUSH2 0x2B22 JUMPI POP PUSH1 0x0 SWAP3 SWAP2 POP POP JUMP JUMPDEST DUP1 PUSH2 0x2B2C DUP2 PUSH2 0x357B JUMP JUMPDEST SWAP2 POP POP PUSH2 0x2AAD JUMP JUMPDEST POP PUSH1 0x1 SWAP3 SWAP2 POP POP JUMP JUMPDEST PUSH2 0x2B53 PUSH1 0x7 DUP3 DUP2 SLOAD DUP2 LT PUSH2 0x10B9 JUMPI PUSH2 0x10B9 PUSH2 0x3565 JUMP JUMPDEST ISZERO PUSH2 0x2BC6 JUMPI PUSH32 0xEEFC3FD775B975165C9D067E02FCD5BF5889D58041AE6DDAF94F2CC853007272 PUSH1 0x7 DUP3 DUP2 SLOAD DUP2 LT PUSH2 0x2B8C JUMPI PUSH2 0x2B8C PUSH2 0x3565 JUMP JUMPDEST PUSH1 0x0 SWAP2 DUP3 MSTORE PUSH1 0x20 SWAP2 DUP3 SWAP1 KECCAK256 PUSH1 0xB SWAP1 SWAP2 MUL ADD PUSH1 0x5 ADD SLOAD PUSH1 0x40 DUP1 MLOAD PUSH1 0x1 PUSH1 0x1 PUSH1 0xA0 SHL SUB SWAP1 SWAP3 AND DUP3 MSTORE SWAP2 DUP2 ADD DUP5 SWAP1 MSTORE ADD PUSH1 0x40 MLOAD DUP1 SWAP2 SUB SWAP1 LOG1 PUSH2 0x2C30 JUMP JUMPDEST PUSH32 0xEEFC3FD775B975165C9D067E02FCD5BF5889D58041AE6DDAF94F2CC853007272 PUSH1 0x7 DUP3 DUP2 SLOAD DUP2 LT PUSH2 0x2BFA JUMPI PUSH2 0x2BFA PUSH2 0x3565 JUMP JUMPDEST PUSH1 0x0 SWAP2 DUP3 MSTORE PUSH1 0x20 SWAP2 DUP3 SWAP1 KECCAK256 PUSH1 0xB SWAP1 SWAP2 MUL ADD PUSH1 0x4 ADD SLOAD PUSH1 0x40 DUP1 MLOAD PUSH1 0x1 PUSH1 0x1 PUSH1 0xA0 SHL SUB SWAP1 SWAP3 AND DUP3 MSTORE SWAP2 DUP2 ADD DUP5 SWAP1 MSTORE ADD PUSH1 0x40 MLOAD DUP1 SWAP2 SUB SWAP1 LOG1 JUMPDEST PUSH2 0x2C46 PUSH1 0x7 DUP3 DUP2 SLOAD DUP2 LT PUSH2 0x10B9 JUMPI PUSH2 0x10B9 PUSH2 0x3565 JUMP JUMPDEST PUSH2 0x2C69 JUMPI PUSH1 0x40 MLOAD DUP1 PUSH1 0x40 ADD PUSH1 0x40 MSTORE DUP1 PUSH1 0x1 DUP2 MSTORE PUSH1 0x20 ADD PUSH1 0xB PUSH1 0xFB SHL DUP2 MSTORE POP PUSH2 0x2C84 JUMP JUMPDEST PUSH1 0x40 MLOAD DUP1 PUSH1 0x40 ADD PUSH1 0x40 MSTORE DUP1 PUSH1 0x1 DUP2 MSTORE PUSH1 0x20 ADD PUSH1 0x4F PUSH1 0xF8 SHL DUP2 MSTORE POP JUMPDEST PUSH1 0x7 DUP3 DUP2 SLOAD DUP2 LT PUSH2 0x2C97 JUMPI PUSH2 0x2C97 PUSH2 0x3565 JUMP JUMPDEST SWAP1 PUSH1 0x0 MSTORE PUSH1 0x20 PUSH1 0x0 KECCAK256 SWAP1 PUSH1 0xB MUL ADD PUSH1 0x1 ADD SWAP1 DUP2 PUSH2 0x2CB4 SWAP2 SWAP1 PUSH2 0x34A5 JUMP JUMPDEST POP PUSH32 0xA6D1CB5F730B987124C37C3876130FDDBA49456449948EC4257360F5AB2851C0 PUSH1 0x7 DUP3 DUP2 SLOAD DUP2 LT PUSH2 0x2CE9 JUMPI PUSH2 0x2CE9 PUSH2 0x3565 JUMP JUMPDEST SWAP1 PUSH1 0x0 MSTORE PUSH1 0x20 PUSH1 0x0 KECCAK256 SWAP1 PUSH1 0xB MUL ADD PUSH1 0x1 ADD DUP3 PUSH1 0x40 MLOAD PUSH2 0xF09 SWAP3 SWAP2 SWAP1 PUSH2 0x3898 JUMP JUMPDEST PUSH1 0x40 MLOAD DUP1 PUSH2 0x160 ADD PUSH1 0x40 MSTORE DUP1 PUSH1 0x0 ISZERO ISZERO DUP2 MSTORE PUSH1 0x20 ADD PUSH1 0x60 DUP2 MSTORE PUSH1 0x20 ADD PUSH1 0x60 DUP2 MSTORE PUSH1 0x20 ADD PUSH1 0x60 DUP2 MSTORE PUSH1 0x20 ADD PUSH1 0x0 PUSH1 0x1 PUSH1 0x1 PUSH1 0xA0 SHL SUB AND DUP2 MSTORE PUSH1 0x20 ADD PUSH1 0x0 PUSH1 0x1 PUSH1 0x1 PUSH1 0xA0 SHL SUB AND DUP2 MSTORE PUSH1 0x20 ADD PUSH1 0x0 DUP2 MSTORE PUSH1 0x20 ADD PUSH1 0x0 PUSH1 0x1 PUSH1 0x1 PUSH1 0xA0 SHL SUB AND DUP2 MSTORE PUSH1 0x20 ADD PUSH1 0x0 DUP2 MSTORE PUSH1 0x20 ADD PUSH1 0x0 DUP2 MSTORE PUSH1 0x20 ADD PUSH1 0x0 DUP2 MSTORE POP SWAP1 JUMP JUMPDEST DUP3 DUP1 SLOAD DUP3 DUP3 SSTORE SWAP1 PUSH1 0x0 MSTORE PUSH1 0x20 PUSH1 0x0 KECCAK256 SWAP1 DUP2 ADD SWAP3 DUP3 ISZERO PUSH2 0x2DC6 JUMPI SWAP2 PUSH1 0x20 MUL DUP3 ADD JUMPDEST DUP3 DUP2 GT ISZERO PUSH2 0x2DC6 JUMPI DUP3 MLOAD DUP3 SWAP1 PUSH2 0x2DB6 SWAP1 DUP3 PUSH2 0x34A5 JUMP JUMPDEST POP SWAP2 PUSH1 0x20 ADD SWAP2 SWAP1 PUSH1 0x1 ADD SWAP1 PUSH2 0x2DA0 JUMP JUMPDEST POP PUSH2 0x2DD2 SWAP3 SWAP2 POP PUSH2 0x2E63 JUMP JUMPDEST POP SWAP1 JUMP JUMPDEST DUP3 DUP1 SLOAD DUP3 DUP3 SSTORE SWAP1 PUSH1 0x0 MSTORE PUSH1 0x20 PUSH1 0x0 KECCAK256 SWAP1 DUP2 ADD SWAP3 DUP3 ISZERO PUSH2 0x2E11 JUMPI SWAP2 PUSH1 0x20 MUL DUP3 ADD JUMPDEST DUP3 DUP2 GT ISZERO PUSH2 0x2E11 JUMPI DUP3 MLOAD DUP3 SSTORE SWAP2 PUSH1 0x20 ADD SWAP2 SWAP1 PUSH1 0x1 ADD SWAP1 PUSH2 0x2DF6 JUMP JUMPDEST POP PUSH2 0x2DD2 SWAP3 SWAP2 POP PUSH2 0x2E80 JUMP JUMPDEST DUP3 DUP1 SLOAD DUP3 DUP3 SSTORE SWAP1 PUSH1 0x0 MSTORE PUSH1 0x20 PUSH1 0x0 KECCAK256 SWAP1 DUP2 ADD SWAP3 DUP3 ISZERO PUSH2 0x2DC6 JUMPI SWAP2 PUSH1 0x20 MUL DUP3 ADD JUMPDEST DUP3 DUP2 GT ISZERO PUSH2 0x2DC6 JUMPI DUP3 MLOAD DUP3 SWAP1 PUSH2 0x2E53 SWAP1 DUP3 PUSH2 0x34A5 JUMP JUMPDEST POP SWAP2 PUSH1 0x20 ADD SWAP2 SWAP1 PUSH1 0x1 ADD SWAP1 PUSH2 0x2E3D JUMP JUMPDEST DUP1 DUP3 GT ISZERO PUSH2 0x2DD2 JUMPI PUSH1 0x0 PUSH2 0x2E77 DUP3 DUP3 PUSH2 0x2E95 JUMP JUMPDEST POP PUSH1 0x1 ADD PUSH2 0x2E63 JUMP JUMPDEST JUMPDEST DUP1 DUP3 GT ISZERO PUSH2 0x2DD2 JUMPI PUSH1 0x0 DUP2 SSTORE PUSH1 0x1 ADD PUSH2 0x2E81 JUMP JUMPDEST POP DUP1 SLOAD PUSH2 0x2EA1 SWAP1 PUSH2 0x341C JUMP JUMPDEST PUSH1 0x0 DUP3 SSTORE DUP1 PUSH1 0x1F LT PUSH2 0x2EB1 JUMPI POP POP JUMP JUMPDEST PUSH1 0x1F ADD PUSH1 0x20 SWAP1 DIV SWAP1 PUSH1 0x0 MSTORE PUSH1 0x20 PUSH1 0x0 KECCAK256 SWAP1 DUP2 ADD SWAP1 PUSH2 0xB00 SWAP2 SWAP1 PUSH2 0x2E80 JUMP JUMPDEST PUSH1 0x0 PUSH1 0x20 DUP3 DUP5 SUB SLT ISZERO PUSH2 0x2EE1 JUMPI PUSH1 0x0 DUP1 REVERT JUMPDEST POP CALLDATALOAD SWAP2 SWAP1 POP JUMP JUMPDEST PUSH1 0x20 DUP1 DUP3 MSTORE DUP3 MLOAD DUP3 DUP3 ADD DUP2 SWAP1 MSTORE PUSH1 0x0 SWAP2 SWAP1 DUP5 DUP3 ADD SWAP1 PUSH1 0x40 DUP6 ADD SWAP1 DUP5 JUMPDEST DUP2 DUP2 LT ISZERO PUSH2 0x2F20 JUMPI DUP4 MLOAD DUP4 MSTORE SWAP3 DUP5 ADD SWAP3 SWAP2 DUP5 ADD SWAP2 PUSH1 0x1 ADD PUSH2 0x2F04 JUMP JUMPDEST POP SWAP1 SWAP7 SWAP6 POP POP POP POP POP POP JUMP JUMPDEST PUSH1 0x0 JUMPDEST DUP4 DUP2 LT ISZERO PUSH2 0x2F47 JUMPI DUP2 DUP2 ADD MLOAD DUP4 DUP3 ADD MSTORE PUSH1 0x20 ADD PUSH2 0x2F2F JUMP JUMPDEST POP POP PUSH1 0x0 SWAP2 ADD MSTORE JUMP JUMPDEST PUSH1 0x0 DUP2 MLOAD DUP1 DUP5 MSTORE PUSH2 0x2F68 DUP2 PUSH1 0x20 DUP7 ADD PUSH1 0x20 DUP7 ADD PUSH2 0x2F2C JUMP JUMPDEST PUSH1 0x1F ADD PUSH1 0x1F NOT AND SWAP3 SWAP1 SWAP3 ADD PUSH1 0x20 ADD SWAP3 SWAP2 POP POP JUMP JUMPDEST PUSH1 0x0 DUP3 DUP3 MLOAD DUP1 DUP6 MSTORE PUSH1 0x20 DUP1 DUP7 ADD SWAP6 POP DUP1 DUP3 PUSH1 0x5 SHL DUP5 ADD ADD DUP2 DUP7 ADD PUSH1 0x0 JUMPDEST DUP5 DUP2 LT ISZERO PUSH2 0x2FC7 JUMPI PUSH1 0x1F NOT DUP7 DUP5 SUB ADD DUP10 MSTORE PUSH2 0x2FB5 DUP4 DUP4 MLOAD PUSH2 0x2F50 JUMP JUMPDEST SWAP9 DUP5 ADD SWAP9 SWAP3 POP SWAP1 DUP4 ADD SWAP1 PUSH1 0x1 ADD PUSH2 0x2F99 JUMP JUMPDEST POP SWAP1 SWAP8 SWAP7 POP POP POP POP POP POP POP JUMP JUMPDEST PUSH1 0x0 DUP2 MLOAD DUP1 DUP5 MSTORE PUSH1 0x20 DUP1 DUP6 ADD SWAP5 POP DUP1 DUP5 ADD PUSH1 0x0 JUMPDEST DUP4 DUP2 LT ISZERO PUSH2 0x3004 JUMPI DUP2 MLOAD DUP8 MSTORE SWAP6 DUP3 ADD SWAP6 SWAP1 DUP3 ADD SWAP1 PUSH1 0x1 ADD PUSH2 0x2FE8 JUMP JUMPDEST POP SWAP5 SWAP6 SWAP5 POP POP POP POP POP JUMP JUMPDEST DUP1 MLOAD ISZERO ISZERO DUP3 MSTORE PUSH1 0x0 PUSH2 0x160 PUSH1 0x20 DUP4 ADD MLOAD DUP2 PUSH1 0x20 DUP7 ADD MSTORE PUSH2 0x3031 DUP3 DUP7 ADD DUP3 PUSH2 0x2F50 JUMP JUMPDEST SWAP2 POP POP PUSH1 0x40 DUP4 ADD MLOAD DUP5 DUP3 SUB PUSH1 0x40 DUP7 ADD MSTORE PUSH2 0x304B DUP3 DUP3 PUSH2 0x2F7C JUMP JUMPDEST SWAP2 POP POP PUSH1 0x60 DUP4 ADD MLOAD DUP5 DUP3 SUB PUSH1 0x60 DUP7 ADD MSTORE PUSH2 0x3065 DUP3 DUP3 PUSH2 0x2FD4 JUMP JUMPDEST SWAP2 POP POP PUSH1 0x80 DUP4 ADD MLOAD PUSH2 0x3082 PUSH1 0x80 DUP7 ADD DUP3 PUSH1 0x1 PUSH1 0x1 PUSH1 0xA0 SHL SUB AND SWAP1 MSTORE JUMP JUMPDEST POP PUSH1 0xA0 DUP4 ADD MLOAD PUSH2 0x309D PUSH1 0xA0 DUP7 ADD DUP3 PUSH1 0x1 PUSH1 0x1 PUSH1 0xA0 SHL SUB AND SWAP1 MSTORE JUMP JUMPDEST POP PUSH1 0xC0 DUP4 ADD MLOAD PUSH1 0xC0 DUP6 ADD MSTORE PUSH1 0xE0 DUP4 ADD MLOAD PUSH2 0x30C2 PUSH1 0xE0 DUP7 ADD DUP3 PUSH1 0x1 PUSH1 0x1 PUSH1 0xA0 SHL SUB AND SWAP1 MSTORE JUMP JUMPDEST POP PUSH2 0x100 DUP4 DUP2 ADD MLOAD SWAP1 DUP6 ADD MSTORE PUSH2 0x120 DUP1 DUP5 ADD MLOAD SWAP1 DUP6 ADD MSTORE PUSH2 0x140 SWAP3 DUP4 ADD MLOAD SWAP3 SWAP1 SWAP4 ADD SWAP2 SWAP1 SWAP2 MSTORE POP SWAP1 JUMP JUMPDEST PUSH1 0x0 PUSH1 0x20 DUP1 DUP4 ADD DUP2 DUP5 MSTORE DUP1 DUP6 MLOAD DUP1 DUP4 MSTORE PUSH1 0x40 DUP7 ADD SWAP2 POP PUSH1 0x40 DUP2 PUSH1 0x5 SHL DUP8 ADD ADD SWAP3 POP DUP4 DUP8 ADD PUSH1 0x0 JUMPDEST DUP3 DUP2 LT ISZERO PUSH2 0x3141 JUMPI PUSH1 0x3F NOT DUP9 DUP7 SUB ADD DUP5 MSTORE PUSH2 0x312F DUP6 DUP4 MLOAD PUSH2 0x300F JUMP JUMPDEST SWAP5 POP SWAP3 DUP6 ADD SWAP3 SWAP1 DUP6 ADD SWAP1 PUSH1 0x1 ADD PUSH2 0x3113 JUMP JUMPDEST POP SWAP3 SWAP8 SWAP7 POP POP POP POP POP POP POP JUMP JUMPDEST PUSH1 0x0 DUP1 PUSH1 0x40 DUP4 DUP6 SUB SLT ISZERO PUSH2 0x3161 JUMPI PUSH1 0x0 DUP1 REVERT JUMPDEST POP POP DUP1 CALLDATALOAD SWAP3 PUSH1 0x20 SWAP1 SWAP2 ADD CALLDATALOAD SWAP2 POP JUMP JUMPDEST PUSH1 0x0 PUSH2 0x120 DUP12 ISZERO ISZERO DUP4 MSTORE DUP1 PUSH1 0x20 DUP5 ADD MSTORE PUSH2 0x318C DUP2 DUP5 ADD DUP13 PUSH2 0x2F50 JUMP JUMPDEST PUSH1 0x1 PUSH1 0x1 PUSH1 0xA0 SHL SUB SWAP11 DUP12 AND PUSH1 0x40 DUP6 ADD MSTORE SWAP9 DUP11 AND PUSH1 0x60 DUP5 ADD MSTORE POP POP PUSH1 0x80 DUP2 ADD SWAP6 SWAP1 SWAP6 MSTORE SWAP3 SWAP1 SWAP6 AND PUSH1 0xA0 DUP5 ADD MSTORE PUSH1 0xC0 DUP4 ADD MSTORE PUSH1 0xE0 DUP3 ADD SWAP4 SWAP1 SWAP4 MSTORE PUSH2 0x100 ADD SWAP2 SWAP1 SWAP2 MSTORE SWAP3 SWAP2 POP POP JUMP JUMPDEST PUSH1 0x20 DUP2 MSTORE PUSH1 0x0 PUSH2 0x31E5 PUSH1 0x20 DUP4 ADD DUP5 PUSH2 0x300F JUMP JUMPDEST SWAP4 SWAP3 POP POP POP JUMP JUMPDEST PUSH4 0x4E487B71 PUSH1 0xE0 SHL PUSH1 0x0 MSTORE PUSH1 0x41 PUSH1 0x4 MSTORE PUSH1 0x24 PUSH1 0x0 REVERT JUMPDEST PUSH1 0x0 DUP3 PUSH1 0x1F DUP4 ADD SLT PUSH2 0x3213 JUMPI PUSH1 0x0 DUP1 REVERT JUMPDEST DUP2 CALLDATALOAD PUSH8 0xFFFFFFFFFFFFFFFF DUP1 DUP3 GT ISZERO PUSH2 0x322E JUMPI PUSH2 0x322E PUSH2 0x31EC JUMP JUMPDEST PUSH1 0x40 MLOAD PUSH1 0x1F DUP4 ADD PUSH1 0x1F NOT SWAP1 DUP2 AND PUSH1 0x3F ADD AND DUP2 ADD SWAP1 DUP3 DUP3 GT DUP2 DUP4 LT OR ISZERO PUSH2 0x3256 JUMPI PUSH2 0x3256 PUSH2 0x31EC JUMP JUMPDEST DUP2 PUSH1 0x40 MSTORE DUP4 DUP2 MSTORE DUP7 PUSH1 0x20 DUP6 DUP9 ADD ADD GT ISZERO PUSH2 0x326F JUMPI PUSH1 0x0 DUP1 REVERT JUMPDEST DUP4 PUSH1 0x20 DUP8 ADD PUSH1 0x20 DUP4 ADD CALLDATACOPY PUSH1 0x0 PUSH1 0x20 DUP6 DUP4 ADD ADD MSTORE DUP1 SWAP5 POP POP POP POP POP SWAP3 SWAP2 POP POP JUMP JUMPDEST PUSH1 0x0 DUP1 PUSH1 0x40 DUP4 DUP6 SUB SLT ISZERO PUSH2 0x32A2 JUMPI PUSH1 0x0 DUP1 REVERT JUMPDEST DUP3 CALLDATALOAD PUSH8 0xFFFFFFFFFFFFFFFF DUP1 DUP3 GT ISZERO PUSH2 0x32BA JUMPI PUSH1 0x0 DUP1 REVERT JUMPDEST PUSH2 0x32C6 DUP7 DUP4 DUP8 ADD PUSH2 0x3202 JUMP JUMPDEST SWAP4 POP PUSH1 0x20 DUP6 ADD CALLDATALOAD SWAP2 POP DUP1 DUP3 GT ISZERO PUSH2 0x32DC JUMPI PUSH1 0x0 DUP1 REVERT JUMPDEST POP PUSH2 0x32E9 DUP6 DUP3 DUP7 ADD PUSH2 0x3202 JUMP JUMPDEST SWAP2 POP POP SWAP3 POP SWAP3 SWAP1 POP JUMP JUMPDEST PUSH1 0x0 PUSH1 0x20 DUP1 DUP4 ADD DUP2 DUP5 MSTORE DUP1 DUP6 MLOAD DUP1 DUP4 MSTORE PUSH1 0x40 DUP7 ADD SWAP2 POP PUSH1 0x40 DUP2 PUSH1 0x5 SHL DUP8 ADD ADD SWAP3 POP DUP4 DUP8 ADD PUSH1 0x0 JUMPDEST DUP3 DUP2 LT ISZERO PUSH2 0x3141 JUMPI PUSH1 0x3F NOT DUP9 DUP7 SUB ADD DUP5 MSTORE PUSH2 0x3336 DUP6 DUP4 MLOAD PUSH2 0x2F50 JUMP JUMPDEST SWAP5 POP SWAP3 DUP6 ADD SWAP3 SWAP1 DUP6 ADD SWAP1 PUSH1 0x1 ADD PUSH2 0x331A JUMP JUMPDEST PUSH1 0x0 PUSH1 0x20 DUP3 DUP5 SUB SLT ISZERO PUSH2 0x335A JUMPI PUSH1 0x0 DUP1 REVERT JUMPDEST POP MLOAD SWAP2 SWAP1 POP JUMP JUMPDEST PUSH4 0x4E487B71 PUSH1 0xE0 SHL PUSH1 0x0 MSTORE PUSH1 0x11 PUSH1 0x4 MSTORE PUSH1 0x24 PUSH1 0x0 REVERT JUMPDEST DUP1 DUP3 MUL DUP2 ISZERO DUP3 DUP3 DIV DUP5 EQ OR PUSH2 0x1FE6 JUMPI PUSH2 0x1FE6 PUSH2 0x3361 JUMP JUMPDEST PUSH1 0x0 DUP3 PUSH2 0x33AB JUMPI PUSH4 0x4E487B71 PUSH1 0xE0 SHL PUSH1 0x0 MSTORE PUSH1 0x12 PUSH1 0x4 MSTORE PUSH1 0x24 PUSH1 0x0 REVERT JUMPDEST POP DIV SWAP1 JUMP JUMPDEST DUP2 DUP2 SUB DUP2 DUP2 GT ISZERO PUSH2 0x1FE6 JUMPI PUSH2 0x1FE6 PUSH2 0x3361 JUMP JUMPDEST PUSH1 0x1 PUSH1 0x1 PUSH1 0xA0 SHL SUB SWAP4 DUP5 AND DUP2 MSTORE SWAP2 SWAP1 SWAP3 AND PUSH1 0x20 DUP3 ADD MSTORE PUSH1 0x40 DUP2 ADD SWAP2 SWAP1 SWAP2 MSTORE PUSH1 0x60 ADD SWAP1 JUMP JUMPDEST PUSH1 0x0 PUSH1 0x20 DUP3 DUP5 SUB SLT ISZERO PUSH2 0x33F9 JUMPI PUSH1 0x0 DUP1 REVERT JUMPDEST DUP2 MLOAD DUP1 ISZERO ISZERO DUP2 EQ PUSH2 0x31E5 JUMPI PUSH1 0x0 DUP1 REVERT JUMPDEST DUP1 DUP3 ADD DUP1 DUP3 GT ISZERO PUSH2 0x1FE6 JUMPI PUSH2 0x1FE6 PUSH2 0x3361 JUMP JUMPDEST PUSH1 0x1 DUP2 DUP2 SHR SWAP1 DUP3 AND DUP1 PUSH2 0x3430 JUMPI PUSH1 0x7F DUP3 AND SWAP2 POP JUMPDEST PUSH1 0x20 DUP3 LT DUP2 SUB PUSH2 0x3450 JUMPI PUSH4 0x4E487B71 PUSH1 0xE0 SHL PUSH1 0x0 MSTORE PUSH1 0x22 PUSH1 0x4 MSTORE PUSH1 0x24 PUSH1 0x0 REVERT JUMPDEST POP SWAP2 SWAP1 POP JUMP JUMPDEST PUSH1 0x1F DUP3 GT ISZERO PUSH2 0x34A0 JUMPI PUSH1 0x0 DUP2 DUP2 MSTORE PUSH1 0x20 DUP2 KECCAK256 PUSH1 0x1F DUP6 ADD PUSH1 0x5 SHR DUP2 ADD PUSH1 0x20 DUP7 LT ISZERO PUSH2 0x347D JUMPI POP DUP1 JUMPDEST PUSH1 0x1F DUP6 ADD PUSH1 0x5 SHR DUP3 ADD SWAP2 POP JUMPDEST DUP2 DUP2 LT ISZERO PUSH2 0x349C JUMPI DUP3 DUP2 SSTORE PUSH1 0x1 ADD PUSH2 0x3489 JUMP JUMPDEST POP POP POP JUMPDEST POP POP POP JUMP JUMPDEST DUP2 MLOAD PUSH8 0xFFFFFFFFFFFFFFFF DUP2 GT ISZERO PUSH2 0x34BF JUMPI PUSH2 0x34BF PUSH2 0x31EC JUMP JUMPDEST PUSH2 0x34D3 DUP2 PUSH2 0x34CD DUP5 SLOAD PUSH2 0x341C JUMP JUMPDEST DUP5 PUSH2 0x3456 JUMP JUMPDEST PUSH1 0x20 DUP1 PUSH1 0x1F DUP4 GT PUSH1 0x1 DUP2 EQ PUSH2 0x3508 JUMPI PUSH1 0x0 DUP5 ISZERO PUSH2 0x34F0 JUMPI POP DUP6 DUP4 ADD MLOAD JUMPDEST PUSH1 0x0 NOT PUSH1 0x3 DUP7 SWAP1 SHL SHR NOT AND PUSH1 0x1 DUP6 SWAP1 SHL OR DUP6 SSTORE PUSH2 0x349C JUMP JUMPDEST PUSH1 0x0 DUP6 DUP2 MSTORE PUSH1 0x20 DUP2 KECCAK256 PUSH1 0x1F NOT DUP7 AND SWAP2 JUMPDEST DUP3 DUP2 LT ISZERO PUSH2 0x3537 JUMPI DUP9 DUP7 ADD MLOAD DUP3 SSTORE SWAP5 DUP5 ADD SWAP5 PUSH1 0x1 SWAP1 SWAP2 ADD SWAP1 DUP5 ADD PUSH2 0x3518 JUMP JUMPDEST POP DUP6 DUP3 LT ISZERO PUSH2 0x3555 JUMPI DUP8 DUP6 ADD MLOAD PUSH1 0x0 NOT PUSH1 0x3 DUP9 SWAP1 SHL PUSH1 0xF8 AND SHR NOT AND DUP2 SSTORE JUMPDEST POP POP POP POP POP PUSH1 0x1 SWAP1 DUP2 SHL ADD SWAP1 SSTORE POP JUMP JUMPDEST PUSH4 0x4E487B71 PUSH1 0xE0 SHL PUSH1 0x0 MSTORE PUSH1 0x32 PUSH1 0x4 MSTORE PUSH1 0x24 PUSH1 0x0 REVERT JUMPDEST PUSH1 0x0 PUSH1 0x1 DUP3 ADD PUSH2 0x358D JUMPI PUSH2 0x358D PUSH2 0x3361 JUMP JUMPDEST POP PUSH1 0x1 ADD SWAP1 JUMP JUMPDEST DUP2 DUP2 SUB PUSH2 0x359F JUMPI POP POP JUMP JUMPDEST PUSH2 0x35A9 DUP3 SLOAD PUSH2 0x341C JUMP JUMPDEST PUSH8 0xFFFFFFFFFFFFFFFF DUP2 GT ISZERO PUSH2 0x35C1 JUMPI PUSH2 0x35C1 PUSH2 0x31EC JUMP JUMPDEST PUSH2 0x35CF DUP2 PUSH2 0x34CD DUP5 SLOAD PUSH2 0x341C JUMP JUMPDEST PUSH1 0x0 PUSH1 0x1F DUP3 GT PUSH1 0x1 DUP2 EQ PUSH2 0x3603 JUMPI PUSH1 0x0 DUP4 ISZERO PUSH2 0x35EB JUMPI POP DUP5 DUP3 ADD SLOAD JUMPDEST PUSH1 0x0 NOT PUSH1 0x3 DUP6 SWAP1 SHL SHR NOT AND PUSH1 0x1 DUP5 SWAP1 SHL OR DUP5 SSTORE PUSH2 0x3668 JUMP JUMPDEST PUSH1 0x0 DUP6 DUP2 MSTORE PUSH1 0x20 SWAP1 KECCAK256 PUSH1 0x1F NOT DUP5 AND SWAP1 PUSH1 0x0 DUP7 DUP2 MSTORE PUSH1 0x20 SWAP1 KECCAK256 DUP5 JUMPDEST DUP4 DUP2 LT ISZERO PUSH2 0x363D JUMPI DUP3 DUP7 ADD SLOAD DUP3 SSTORE PUSH1 0x1 SWAP6 DUP7 ADD SWAP6 SWAP1 SWAP2 ADD SWAP1 PUSH1 0x20 ADD PUSH2 0x361D JUMP JUMPDEST POP DUP6 DUP4 LT ISZERO PUSH2 0x365B JUMPI DUP2 DUP6 ADD SLOAD PUSH1 0x0 NOT PUSH1 0x3 DUP9 SWAP1 SHL PUSH1 0xF8 AND SHR NOT AND DUP2 SSTORE JUMPDEST POP POP POP PUSH1 0x1 DUP4 PUSH1 0x1 SHL ADD DUP5 SSTORE JUMPDEST POP POP POP POP POP JUMP JUMPDEST PUSH1 0x0 DUP2 SLOAD PUSH2 0x367C DUP2 PUSH2 0x341C JUMP JUMPDEST DUP1 DUP6 MSTORE PUSH1 0x20 PUSH1 0x1 DUP4 DUP2 AND DUP1 ISZERO PUSH2 0x3699 JUMPI PUSH1 0x1 DUP2 EQ PUSH2 0x36B3 JUMPI PUSH2 0x36E1 JUMP JUMPDEST PUSH1 0xFF NOT DUP6 AND DUP9 DUP5 ADD MSTORE DUP4 ISZERO ISZERO PUSH1 0x5 SHL DUP9 ADD DUP4 ADD SWAP6 POP PUSH2 0x36E1 JUMP JUMPDEST DUP7 PUSH1 0x0 MSTORE DUP3 PUSH1 0x0 KECCAK256 PUSH1 0x0 JUMPDEST DUP6 DUP2 LT ISZERO PUSH2 0x36D9 JUMPI DUP2 SLOAD DUP11 DUP3 ADD DUP7 ADD MSTORE SWAP1 DUP4 ADD SWAP1 DUP5 ADD PUSH2 0x36BE JUMP JUMPDEST DUP10 ADD DUP5 ADD SWAP7 POP POP JUMPDEST POP POP POP POP POP SWAP3 SWAP2 POP POP JUMP JUMPDEST PUSH1 0x0 DUP2 SLOAD DUP1 DUP5 MSTORE PUSH1 0x20 DUP1 DUP6 ADD DUP1 DUP2 SWAP7 POP DUP4 PUSH1 0x5 SHL DUP2 ADD SWAP2 POP DUP6 PUSH1 0x0 MSTORE DUP3 PUSH1 0x0 KECCAK256 PUSH1 0x0 JUMPDEST DUP6 DUP2 LT ISZERO PUSH2 0x3738 JUMPI DUP3 DUP5 SUB DUP10 MSTORE PUSH2 0x3726 DUP5 DUP4 PUSH2 0x366F JUMP JUMPDEST SWAP9 DUP6 ADD SWAP9 SWAP4 POP PUSH1 0x1 SWAP2 DUP3 ADD SWAP2 ADD PUSH2 0x370F JUMP JUMPDEST POP SWAP2 SWAP8 SWAP7 POP POP POP POP POP POP POP JUMP JUMPDEST PUSH1 0x40 DUP2 MSTORE PUSH1 0x0 PUSH2 0x3758 PUSH1 0x40 DUP4 ADD DUP6 PUSH2 0x36EC JUMP JUMPDEST SWAP1 POP DUP3 PUSH1 0x20 DUP4 ADD MSTORE SWAP4 SWAP3 POP POP POP JUMP JUMPDEST PUSH1 0x0 DUP2 SLOAD DUP1 DUP5 MSTORE PUSH1 0x20 DUP1 DUP6 ADD SWAP5 POP DUP4 PUSH1 0x0 MSTORE DUP1 PUSH1 0x0 KECCAK256 PUSH1 0x0 JUMPDEST DUP4 DUP2 LT ISZERO PUSH2 0x3004 JUMPI DUP2 SLOAD DUP8 MSTORE SWAP6 DUP3 ADD SWAP6 PUSH1 0x1 SWAP2 DUP3 ADD SWAP2 ADD PUSH2 0x3780 JUMP JUMPDEST PUSH1 0x40 DUP2 MSTORE PUSH2 0x37B8 PUSH1 0x40 DUP3 ADD PUSH2 0x37B2 DUP6 SLOAD PUSH1 0xFF AND SWAP1 JUMP JUMPDEST ISZERO ISZERO SWAP1 MSTORE JUMP JUMPDEST PUSH1 0x0 PUSH2 0x160 DUP1 PUSH1 0x60 DUP5 ADD MSTORE PUSH2 0x37D4 PUSH2 0x1A0 DUP5 ADD PUSH1 0x1 DUP8 ADD PUSH2 0x366F JUMP JUMPDEST PUSH1 0x3F NOT DUP1 DUP6 DUP4 SUB ADD PUSH1 0x80 DUP7 ADD MSTORE PUSH2 0x37EE DUP3 PUSH1 0x2 DUP10 ADD PUSH2 0x36EC JUMP JUMPDEST SWAP2 POP DUP1 DUP6 DUP4 SUB ADD PUSH1 0xA0 DUP7 ADD MSTORE POP PUSH2 0x3808 DUP2 PUSH1 0x3 DUP9 ADD PUSH2 0x3767 JUMP JUMPDEST SWAP1 POP PUSH2 0x381E PUSH1 0x4 DUP8 ADD SLOAD PUSH1 0x1 PUSH1 0x1 PUSH1 0xA0 SHL SUB AND SWAP1 JUMP JUMPDEST PUSH1 0x1 PUSH1 0x1 PUSH1 0xA0 SHL SUB SWAP1 DUP2 AND PUSH1 0xC0 DUP7 ADD MSTORE PUSH1 0x5 DUP8 ADD SLOAD DUP2 AND PUSH1 0xE0 DUP7 ADD MSTORE PUSH1 0x6 DUP8 ADD SLOAD PUSH2 0x100 DUP7 ADD MSTORE PUSH1 0x7 DUP8 ADD SLOAD AND PUSH2 0x120 DUP6 ADD MSTORE PUSH1 0x8 DUP7 ADD SLOAD PUSH2 0x140 DUP6 ADD MSTORE PUSH1 0x9 DUP7 ADD SLOAD SWAP2 DUP5 ADD SWAP2 SWAP1 SWAP2 MSTORE PUSH1 0xA SWAP1 SWAP5 ADD SLOAD PUSH2 0x180 DUP4 ADD MSTORE POP PUSH1 0x20 ADD MSTORE SWAP1 JUMP JUMPDEST PUSH1 0x0 DUP3 MLOAD PUSH2 0x388E DUP2 DUP5 PUSH1 0x20 DUP8 ADD PUSH2 0x2F2C JUMP JUMPDEST SWAP2 SWAP1 SWAP2 ADD SWAP3 SWAP2 POP POP JUMP JUMPDEST PUSH1 0x40 DUP2 MSTORE PUSH1 0x0 PUSH2 0x3758 PUSH1 0x40 DUP4 ADD DUP6 PUSH2 0x366F JUMP INVALID LOG2 PUSH5 0x6970667358 0x22 SLT KECCAK256 0xC3 EXTCODESIZE 0x4B 0xE4 0xA5 DUP2 SGT 0x28 SWAP6 DUP6 DUP7 DIV 0xD8 0xE4 0x1F ADDMOD 0xCB CALLVALUE JUMPDEST PUSH13 0xC9367A220773B0A4E838644664 PUSH20 0x6F6C634300081300330000000000000000000000 "
				},
				"gasEstimates": {
					"creation": {
						"codeDepositCost": "2912200",
						"executionCost": "infinite",
						"totalCost": "infinite"
					},
					"external": {
						"TTTToken()": "2426",
						"burnFee()": "2405",
						"compareStrings(string,string)": "infinite",
						"createGameRoom(uint256)": "infinite",
						"gameInformation(uint256)": "infinite",
						"getAllGameInformation()": "infinite",
						"getAllMoney()": "infinite",
						"getExcessBalance()": "infinite",
						"getFinalWinOption(uint256)": "infinite",
						"getGameInformation(uint256)": "infinite",
						"getoption(uint256)": "infinite",
						"joinGame(uint256,uint256)": "infinite",
						"minBetAmount()": "2383",
						"owner()": "2382",
						"restartGame(uint256)": "infinite",
						"totalAmount()": "2363",
						"treasury()": "2404",
						"treasuryFee()": "2317",
						"userInput(uint256,uint256)": "infinite",
						"validateRestartPlayer(uint256)": "9183"
					},
					"internal": {
						"changePlayer(uint256)": "infinite",
						"checkAddress(uint256)": "8736",
						"checkOptions(uint256)": "infinite",
						"checkWinner(uint256)": "infinite"
					}
				},
				"methodIdentifiers": {
					"TTTToken()": "7effb427",
					"burnFee()": "fce589d8",
					"compareStrings(string,string)": "bed34bba",
					"createGameRoom(uint256)": "06139e8d",
					"gameInformation(uint256)": "87052fab",
					"getAllGameInformation()": "491f0136",
					"getAllMoney()": "edb84ff7",
					"getExcessBalance()": "888b042f",
					"getFinalWinOption(uint256)": "17b44960",
					"getGameInformation(uint256)": "b2182be4",
					"getoption(uint256)": "dc572c6e",
					"joinGame(uint256,uint256)": "b60b9fcb",
					"minBetAmount()": "fa968eea",
					"owner()": "8da5cb5b",
					"restartGame(uint256)": "4a968391",
					"totalAmount()": "1a39d8ef",
					"treasury()": "61d027b3",
					"treasuryFee()": "cc32d176",
					"userInput(uint256,uint256)": "52bc3410",
					"validateRestartPlayer(uint256)": "34fd3518"
				}
			},
			"storageLayout": {
				"storage": [
					{
						"astId": 86,
						"contract": "Practical6-Apply-TTT-Token.sol:TickTackToe",
						"label": "TTTToken",
						"offset": 0,
						"slot": "0",
						"type": "t_contract(IERC20)77"
					},
					{
						"astId": 89,
						"contract": "Practical6-Apply-TTT-Token.sol:TickTackToe",
						"label": "minBetAmount",
						"offset": 0,
						"slot": "1",
						"type": "t_uint256"
					},
					{
						"astId": 92,
						"contract": "Practical6-Apply-TTT-Token.sol:TickTackToe",
						"label": "treasury",
						"offset": 0,
						"slot": "2",
						"type": "t_address"
					},
					{
						"astId": 95,
						"contract": "Practical6-Apply-TTT-Token.sol:TickTackToe",
						"label": "burnFee",
						"offset": 0,
						"slot": "3",
						"type": "t_uint256"
					},
					{
						"astId": 98,
						"contract": "Practical6-Apply-TTT-Token.sol:TickTackToe",
						"label": "treasuryFee",
						"offset": 0,
						"slot": "4",
						"type": "t_uint256"
					},
					{
						"astId": 100,
						"contract": "Practical6-Apply-TTT-Token.sol:TickTackToe",
						"label": "totalAmount",
						"offset": 0,
						"slot": "5",
						"type": "t_uint256"
					},
					{
						"astId": 102,
						"contract": "Practical6-Apply-TTT-Token.sol:TickTackToe",
						"label": "owner",
						"offset": 0,
						"slot": "6",
						"type": "t_address"
					},
					{
						"astId": 104,
						"contract": "Practical6-Apply-TTT-Token.sol:TickTackToe",
						"label": "locked",
						"offset": 20,
						"slot": "6",
						"type": "t_bool"
					},
					{
						"astId": 133,
						"contract": "Practical6-Apply-TTT-Token.sol:TickTackToe",
						"label": "gameInformation",
						"offset": 0,
						"slot": "7",
						"type": "t_array(t_struct(GameInfo)129_storage)dyn_storage"
					},
					{
						"astId": 170,
						"contract": "Practical6-Apply-TTT-Token.sol:TickTackToe",
						"label": "winConditionSet",
						"offset": 0,
						"slot": "8",
						"type": "t_array(t_array(t_uint256)dyn_storage)dyn_storage"
					}
				],
				"types": {
					"t_address": {
						"encoding": "inplace",
						"label": "address",
						"numberOfBytes": "20"
					},
					"t_array(t_array(t_uint256)dyn_storage)dyn_storage": {
						"base": "t_array(t_uint256)dyn_storage",
						"encoding": "dynamic_array",
						"label": "uint256[][]",
						"numberOfBytes": "32"
					},
					"t_array(t_string_storage)dyn_storage": {
						"base": "t_string_storage",
						"encoding": "dynamic_array",
						"label": "string[]",
						"numberOfBytes": "32"
					},
					"t_array(t_struct(GameInfo)129_storage)dyn_storage": {
						"base": "t_struct(GameInfo)129_storage",
						"encoding": "dynamic_array",
						"label": "struct TickTackToe.GameInfo[]",
						"numberOfBytes": "32"
					},
					"t_array(t_uint256)dyn_storage": {
						"base": "t_uint256",
						"encoding": "dynamic_array",
						"label": "uint256[]",
						"numberOfBytes": "32"
					},
					"t_bool": {
						"encoding": "inplace",
						"label": "bool",
						"numberOfBytes": "1"
					},
					"t_contract(IERC20)77": {
						"encoding": "inplace",
						"label": "contract IERC20",
						"numberOfBytes": "20"
					},
					"t_string_storage": {
						"encoding": "bytes",
						"label": "string",
						"numberOfBytes": "32"
					},
					"t_struct(GameInfo)129_storage": {
						"encoding": "inplace",
						"label": "struct TickTackToe.GameInfo",
						"members": [
							{
								"astId": 106,
								"contract": "Practical6-Apply-TTT-Token.sol:TickTackToe",
								"label": "_activate",
								"offset": 0,
								"slot": "0",
								"type": "t_bool"
							},
							{
								"astId": 108,
								"contract": "Practical6-Apply-TTT-Token.sol:TickTackToe",
								"label": "_currentPlayer",
								"offset": 0,
								"slot": "1",
								"type": "t_string_storage"
							},
							{
								"astId": 111,
								"contract": "Practical6-Apply-TTT-Token.sol:TickTackToe",
								"label": "_options",
								"offset": 0,
								"slot": "2",
								"type": "t_array(t_string_storage)dyn_storage"
							},
							{
								"astId": 114,
								"contract": "Practical6-Apply-TTT-Token.sol:TickTackToe",
								"label": "_finalWinOption",
								"offset": 0,
								"slot": "3",
								"type": "t_array(t_uint256)dyn_storage"
							},
							{
								"astId": 116,
								"contract": "Practical6-Apply-TTT-Token.sol:TickTackToe",
								"label": "_player1address",
								"offset": 0,
								"slot": "4",
								"type": "t_address"
							},
							{
								"astId": 118,
								"contract": "Practical6-Apply-TTT-Token.sol:TickTackToe",
								"label": "_player2address",
								"offset": 0,
								"slot": "5",
								"type": "t_address"
							},
							{
								"astId": 120,
								"contract": "Practical6-Apply-TTT-Token.sol:TickTackToe",
								"label": "_playerCount",
								"offset": 0,
								"slot": "6",
								"type": "t_uint256"
							},
							{
								"astId": 122,
								"contract": "Practical6-Apply-TTT-Token.sol:TickTackToe",
								"label": "_winer",
								"offset": 0,
								"slot": "7",
								"type": "t_address"
							},
							{
								"astId": 124,
								"contract": "Practical6-Apply-TTT-Token.sol:TickTackToe",
								"label": "_player1Bet",
								"offset": 0,
								"slot": "8",
								"type": "t_uint256"
							},
							{
								"astId": 126,
								"contract": "Practical6-Apply-TTT-Token.sol:TickTackToe",
								"label": "_player2Bet",
								"offset": 0,
								"slot": "9",
								"type": "t_uint256"
							},
							{
								"astId": 128,
								"contract": "Practical6-Apply-TTT-Token.sol:TickTackToe",
								"label": "_rewardAmount",
								"offset": 0,
								"slot": "10",
								"type": "t_uint256"
							}
						],
						"numberOfBytes": "352"
					},
					"t_uint256": {
						"encoding": "inplace",
						"label": "uint256",
						"numberOfBytes": "32"
					}
				}
			},
			"userdoc": {
				"kind": "user",
				"methods": {},
				"version": 1
			}
		}
	}
}