{
	"Practical4-Tick-Tack-Toe-Jason.sol": {
		"TickTackToe": {
			"abi": [
				{
					"anonymous": false,
					"inputs": [
						{
							"indexed": false,
							"internalType": "string",
							"name": "message",
							"type": "string"
						}
					],
					"name": "metchSuccessful",
					"type": "event"
				},
				{
					"anonymous": false,
					"inputs": [
						{
							"indexed": false,
							"internalType": "address",
							"name": "nestUser",
							"type": "address"
						}
					],
					"name": "nextUser",
					"type": "event"
				},
				{
					"anonymous": false,
					"inputs": [
						{
							"indexed": false,
							"internalType": "string",
							"name": "message",
							"type": "string"
						}
					],
					"name": "queueFull",
					"type": "event"
				},
				{
					"anonymous": false,
					"inputs": [
						{
							"indexed": false,
							"internalType": "string",
							"name": "result",
							"type": "string"
						}
					],
					"name": "showResult",
					"type": "event"
				},
				{
					"anonymous": false,
					"inputs": [
						{
							"indexed": false,
							"internalType": "string",
							"name": "message",
							"type": "string"
						},
						{
							"indexed": false,
							"internalType": "address",
							"name": "player1",
							"type": "address"
						},
						{
							"indexed": false,
							"internalType": "address",
							"name": "player2",
							"type": "address"
						}
					],
					"name": "startGame",
					"type": "event"
				},
				{
					"inputs": [
						{
							"internalType": "string",
							"name": "a",
							"type": "string"
						},
						{
							"internalType": "string",
							"name": "b",
							"type": "string"
						}
					],
					"name": "compareStrings",
					"outputs": [
						{
							"internalType": "bool",
							"name": "",
							"type": "bool"
						}
					],
					"stateMutability": "pure",
					"type": "function"
				},
				{
					"inputs": [],
					"name": "getoption",
					"outputs": [
						{
							"internalType": "string[]",
							"name": "",
							"type": "string[]"
						}
					],
					"stateMutability": "view",
					"type": "function"
				},
				{
					"inputs": [],
					"name": "joinGame",
					"outputs": [],
					"stateMutability": "nonpayable",
					"type": "function"
				},
				{
					"inputs": [
						{
							"internalType": "uint256",
							"name": "",
							"type": "uint256"
						}
					],
					"name": "options",
					"outputs": [
						{
							"internalType": "string",
							"name": "",
							"type": "string"
						}
					],
					"stateMutability": "view",
					"type": "function"
				},
				{
					"inputs": [],
					"name": "player1address",
					"outputs": [
						{
							"internalType": "address",
							"name": "",
							"type": "address"
						}
					],
					"stateMutability": "view",
					"type": "function"
				},
				{
					"inputs": [],
					"name": "player2address",
					"outputs": [
						{
							"internalType": "address",
							"name": "",
							"type": "address"
						}
					],
					"stateMutability": "view",
					"type": "function"
				},
				{
					"inputs": [],
					"name": "restartGame",
					"outputs": [],
					"stateMutability": "nonpayable",
					"type": "function"
				},
				{
					"inputs": [
						{
							"internalType": "uint256",
							"name": "input",
							"type": "uint256"
						}
					],
					"name": "userInput",
					"outputs": [],
					"stateMutability": "nonpayable",
					"type": "function"
				}
			],
			"devdoc": {
				"kind": "dev",
				"methods": {},
				"version": 1
			},
			"evm": {
				"assembly": "    /* \"Practical4-Tick-Tack-Toe-Jason.sol\":249:250  0 */\n  0x00\n    /* \"Practical4-Tick-Tack-Toe-Jason.sol\":230:250  uint playerCount = 0 */\n  0x02\n  dup2\n  swap1\n  sstore\n    /* \"Practical4-Tick-Tack-Toe-Jason.sol\":331:393  string[] public options = [\"\", \"\", \"\", \"\", \"\", \"\", \"\", \"\", \"\"] */\n  0x01a0\n  dup2\n  dup2\n  mstore\n    /* \"Practical4-Tick-Tack-Toe-Jason.sol\":60:3856  contract TickTackToe{... */\n  0x80\n    /* \"Practical4-Tick-Tack-Toe-Jason.sol\":331:393  string[] public options = [\"\", \"\", \"\", \"\", \"\", \"\", \"\", \"\", \"\"] */\n  swap1\n  dup2\n  mstore\n  0x01c0\n  dup3\n  dup2\n  mstore\n  0xa0\n  mstore\n  0x01e0\n  dup3\n  dup2\n  mstore\n  0xc0\n  mstore\n  0x0200\n  dup3\n  dup2\n  mstore\n  0xe0\n  mstore\n  0x0220\n  dup3\n  dup2\n  mstore\n  0x0100\n  mstore\n  0x0240\n  dup3\n  dup2\n  mstore\n  0x0120\n  mstore\n  0x0260\n  dup3\n  dup2\n  mstore\n  0x0140\n  mstore\n  0x0280\n  dup3\n  dup2\n  mstore\n  0x0160\n  mstore\n  0x02c0\n    /* \"Practical4-Tick-Tack-Toe-Jason.sol\":60:3856  contract TickTackToe{... */\n  0x40\n    /* \"Practical4-Tick-Tack-Toe-Jason.sol\":331:393  string[] public options = [\"\", \"\", \"\", \"\", \"\", \"\", \"\", \"\", \"\"] */\n  mstore\n  0x02a0\n  swap2\n  dup3\n  mstore\n  0x0180\n  swap2\n  swap1\n  swap2\n  mstore\n  tag_1\n  swap1\n  0x03\n  swap1\n  0x09\n  tag_2\n  jump\t// in\ntag_1:\n  pop\n    /* \"Practical4-Tick-Tack-Toe-Jason.sol\":400:420  bool activate = true */\n  0x04\n  dup1\n  sload\n  not(0xff)\n  and\n    /* \"Practical4-Tick-Tack-Toe-Jason.sol\":416:420  true */\n  0x01\n    /* \"Practical4-Tick-Tack-Toe-Jason.sol\":400:420  bool activate = true */\n  swap1\n  dup2\n  or\n  swap1\n  swap2\n  sstore\n    /* \"Practical4-Tick-Tack-Toe-Jason.sol\":427:453  string currentPlayer = \"X\" */\n  0x40\n  dup1\n  mload\n  dup1\n  dup3\n  add\n  swap1\n  swap2\n  mstore\n  swap1\n  dup2\n  mstore\n  shl(0xfb, 0x0b)\n  0x20\n  dup3\n  add\n  mstore\n  0x05\n  swap1\n  tag_3\n  swap1\n  dup3\n  tag_4\n  jump\t// in\ntag_3:\n  pop\n    /* \"Practical4-Tick-Tack-Toe-Jason.sol\":460:623  uint[][] private winConditionSet= ... */\n  0x40\n  dup1\n  mload\n  0x0160\n  dup2\n  add\n  dup3\n  mstore\n  0x00\n  0x0100\n  dup3\n  add\n  dup2\n  dup2\n  mstore\n    /* \"Practical4-Tick-Tack-Toe-Jason.sol\":505:506  1 */\n  0x01\n    /* \"Practical4-Tick-Tack-Toe-Jason.sol\":460:623  uint[][] private winConditionSet= ... */\n  0x0120\n  dup5\n  add\n  dup2\n  swap1\n  mstore\n    /* \"Practical4-Tick-Tack-Toe-Jason.sol\":508:509  2 */\n  0x02\n    /* \"Practical4-Tick-Tack-Toe-Jason.sol\":460:623  uint[][] private winConditionSet= ... */\n  0x0140\n  dup6\n  add\n  dup2\n  swap1\n  mstore\n  swap2\n  dup5\n  mstore\n  dup5\n  mload\n  0x60\n  dup2\n  dup2\n  add\n  dup8\n  mstore\n    /* \"Practical4-Tick-Tack-Toe-Jason.sol\":518:519  3 */\n  0x03\n    /* \"Practical4-Tick-Tack-Toe-Jason.sol\":460:623  uint[][] private winConditionSet= ... */\n  dup1\n  dup4\n  mstore\n    /* \"Practical4-Tick-Tack-Toe-Jason.sol\":521:522  4 */\n  0x04\n    /* \"Practical4-Tick-Tack-Toe-Jason.sol\":460:623  uint[][] private winConditionSet= ... */\n  0x20\n  dup5\n  dup2\n  add\n  dup3\n  swap1\n  mstore\n    /* \"Practical4-Tick-Tack-Toe-Jason.sol\":524:525  5 */\n  0x05\n    /* \"Practical4-Tick-Tack-Toe-Jason.sol\":460:623  uint[][] private winConditionSet= ... */\n  dup6\n  dup12\n  add\n  dup2\n  swap1\n  mstore\n  dup2\n  dup11\n  add\n  swap6\n  swap1\n  swap6\n  mstore\n  dup10\n  mload\n  dup1\n  dup6\n  add\n  dup12\n  mstore\n    /* \"Practical4-Tick-Tack-Toe-Jason.sol\":534:535  6 */\n  0x06\n    /* \"Practical4-Tick-Tack-Toe-Jason.sol\":460:623  uint[][] private winConditionSet= ... */\n  dup1\n  dup3\n  mstore\n    /* \"Practical4-Tick-Tack-Toe-Jason.sol\":537:538  7 */\n  0x07\n    /* \"Practical4-Tick-Tack-Toe-Jason.sol\":460:623  uint[][] private winConditionSet= ... */\n  dup3\n  dup5\n  add\n  dup2\n  swap1\n  mstore\n    /* \"Practical4-Tick-Tack-Toe-Jason.sol\":540:541  8 */\n  0x08\n    /* \"Practical4-Tick-Tack-Toe-Jason.sol\":460:623  uint[][] private winConditionSet= ... */\n  dup4\n  dup15\n  add\n  dup2\n  swap1\n  mstore\n  dup13\n  dup15\n  add\n  swap4\n  swap1\n  swap4\n  mstore\n  dup13\n  mload\n  dup1\n  dup9\n  add\n  dup15\n  mstore\n  dup12\n  dup2\n  mstore\n  dup1\n  dup6\n  add\n  swap7\n  swap1\n  swap7\n  mstore\n  dup6\n  dup14\n  add\n  dup3\n  swap1\n  mstore\n  dup7\n  dup13\n  add\n  swap6\n  swap1\n  swap6\n  mstore\n  dup12\n  mload\n  dup1\n  dup8\n  add\n  dup14\n  mstore\n  swap8\n  dup9\n  mstore\n  dup8\n  dup4\n  add\n  dup5\n  swap1\n  mstore\n  dup8\n  dup13\n  add\n  swap5\n  swap1\n  swap5\n  mstore\n  0x80\n  dup11\n  add\n  swap7\n  swap1\n  swap7\n  mstore\n  dup10\n  mload\n  dup1\n  dup6\n  add\n  dup12\n  mstore\n  dup8\n  dup2\n  mstore\n  dup1\n  dup3\n  add\n  swap6\n  swap1\n  swap6\n  mstore\n  dup5\n  dup11\n  add\n  dup7\n  swap1\n  mstore\n  0xa0\n  dup10\n  add\n  swap5\n  swap1\n  swap5\n  mstore\n  dup9\n  mload\n  dup1\n  dup5\n  add\n  dup11\n  mstore\n  swap7\n  dup8\n  mstore\n  dup7\n  dup5\n  add\n  dup2\n  swap1\n  mstore\n  dup7\n  dup10\n  add\n  dup6\n  swap1\n  mstore\n  0xc0\n  dup9\n  add\n  swap7\n  swap1\n  swap7\n  mstore\n  dup8\n  mload\n  swap2\n  dup3\n  add\n  dup9\n  mstore\n  swap4\n  dup2\n  mstore\n  swap1\n  dup2\n  add\n  swap4\n  swap1\n  swap4\n  mstore\n  swap4\n  dup3\n  add\n  dup2\n  swap1\n  mstore\n  0xe0\n  dup4\n  add\n  swap2\n  swap1\n  swap2\n  mstore\n  tag_5\n  swap3\n    /* \"Practical4-Tick-Tack-Toe-Jason.sol\":534:535  6 */\n  swap1\n  swap2\n    /* \"Practical4-Tick-Tack-Toe-Jason.sol\":460:623  uint[][] private winConditionSet= ... */\n  swap1\n  tag_6\n  jump\t// in\ntag_5:\n  pop\n    /* \"Practical4-Tick-Tack-Toe-Jason.sol\":60:3856  contract TickTackToe{... */\n  callvalue\n  dup1\n  iszero\n  tag_7\n  jumpi\n  0x00\n  dup1\n  revert\ntag_7:\n  pop\n  jump(tag_48)\ntag_2:\n  dup3\n  dup1\n  sload\n  dup3\n  dup3\n  sstore\n  swap1\n  0x00\n  mstore\n  keccak256(0x00, 0x20)\n  swap1\n  dup2\n  add\n  swap3\n  dup3\n  iszero\n  tag_11\n  jumpi\n  swap2\n  0x20\n  mul\n  dup3\n  add\ntag_10:\n  dup3\n  dup2\n  gt\n  iszero\n  tag_11\n  jumpi\n  dup3\n  mload\n  dup3\n  swap1\n  tag_12\n  swap1\n  dup3\n  tag_4\n  jump\t// in\ntag_12:\n  pop\n  swap2\n  0x20\n  add\n  swap2\n  swap1\n  0x01\n  add\n  swap1\n  jump(tag_10)\ntag_11:\n  pop\n  tag_13\n  swap3\n  swap2\n  pop\n  tag_14\n  jump\t// in\ntag_13:\n  pop\n  swap1\n  jump\t// out\ntag_6:\n  dup3\n  dup1\n  sload\n  dup3\n  dup3\n  sstore\n  swap1\n  0x00\n  mstore\n  keccak256(0x00, 0x20)\n  swap1\n  dup2\n  add\n  swap3\n  dup3\n  iszero\n  tag_17\n  jumpi\n  swap2\n  0x20\n  mul\n  dup3\n  add\ntag_16:\n  dup3\n  dup2\n  gt\n  iszero\n  tag_17\n  jumpi\n  dup3\n  mload\n  tag_18\n  swap1\n  dup4\n  swap1\n  0x03\n  tag_19\n  jump\t// in\ntag_18:\n  pop\n  swap2\n  0x20\n  add\n  swap2\n  swap1\n  0x01\n  add\n  swap1\n  jump(tag_16)\ntag_17:\n  pop\n  tag_13\n  swap3\n  swap2\n  pop\n  tag_21\n  jump\t// in\ntag_14:\n  dup1\n  dup3\n  gt\n  iszero\n  tag_13\n  jumpi\n  0x00\n  tag_24\n  dup3\n  dup3\n  tag_25\n  jump\t// in\ntag_24:\n  pop\n  0x01\n  add\n  jump(tag_14)\ntag_19:\n  dup3\n  dup1\n  sload\n  dup3\n  dup3\n  sstore\n  swap1\n  0x00\n  mstore\n  keccak256(0x00, 0x20)\n  swap1\n  dup2\n  add\n  swap3\n  dup3\n  iszero\n  tag_28\n  jumpi\n  swap2\n  0x20\n  mul\n  dup3\n  add\ntag_27:\n  dup3\n  dup2\n  gt\n  iszero\n  tag_28\n  jumpi\n  dup3\n  mload\n  dup3\n  swap1\n  0xff\n  and\n  swap1\n  sstore\n  swap2\n  0x20\n  add\n  swap2\n  swap1\n  0x01\n  add\n  swap1\n  jump(tag_27)\ntag_28:\n  pop\n  tag_13\n  swap3\n  swap2\n  pop\n  tag_30\n  jump\t// in\ntag_21:\n  dup1\n  dup3\n  gt\n  iszero\n  tag_13\n  jumpi\n  0x00\n  tag_33\n  dup3\n  dup3\n  tag_34\n  jump\t// in\ntag_33:\n  pop\n  0x01\n  add\n  jump(tag_21)\ntag_25:\n  pop\n  dup1\n  sload\n  tag_35\n  swap1\n  tag_36\n  jump\t// in\ntag_35:\n  0x00\n  dup3\n  sstore\n  dup1\n  0x1f\n  lt\n  tag_38\n  jumpi\n  pop\n  pop\n  jump\t// out\ntag_38:\n  0x1f\n  add\n  0x20\n  swap1\n  div\n  swap1\n  0x00\n  mstore\n  keccak256(0x00, 0x20)\n  swap1\n  dup2\n  add\n  swap1\n  tag_39\n  swap2\n  swap1\n  tag_30\n  jump\t// in\ntag_39:\n  pop\n  jump\t// out\ntag_30:\ntag_40:\n  dup1\n  dup3\n  gt\n  iszero\n  tag_13\n  jumpi\n  0x00\n  dup2\n  sstore\n  0x01\n  add\n  jump(tag_40)\ntag_34:\n  pop\n  dup1\n  sload\n  0x00\n  dup3\n  sstore\n  swap1\n  0x00\n  mstore\n  keccak256(0x00, 0x20)\n  swap1\n  dup2\n  add\n  swap1\n  tag_39\n  swap2\n  swap1\n  tag_30\n  jump\t// in\n    /* \"#utility.yul\":14:141   */\ntag_44:\n    /* \"#utility.yul\":75:85   */\n  0x4e487b71\n    /* \"#utility.yul\":70:73   */\n  0xe0\n    /* \"#utility.yul\":66:86   */\n  shl\n    /* \"#utility.yul\":63:64   */\n  0x00\n    /* \"#utility.yul\":56:87   */\n  mstore\n    /* \"#utility.yul\":106:110   */\n  0x41\n    /* \"#utility.yul\":103:104   */\n  0x04\n    /* \"#utility.yul\":96:111   */\n  mstore\n    /* \"#utility.yul\":130:134   */\n  0x24\n    /* \"#utility.yul\":127:128   */\n  0x00\n    /* \"#utility.yul\":120:135   */\n  revert\n    /* \"#utility.yul\":146:526   */\ntag_36:\n    /* \"#utility.yul\":225:226   */\n  0x01\n    /* \"#utility.yul\":221:233   */\n  dup2\n  dup2\n  shr\n  swap1\n    /* \"#utility.yul\":268:280   */\n  dup3\n  and\n  dup1\n    /* \"#utility.yul\":289:350   */\n  tag_51\n  jumpi\n    /* \"#utility.yul\":343:347   */\n  0x7f\n    /* \"#utility.yul\":335:341   */\n  dup3\n    /* \"#utility.yul\":331:348   */\n  and\n    /* \"#utility.yul\":321:348   */\n  swap2\n  pop\n    /* \"#utility.yul\":289:350   */\ntag_51:\n    /* \"#utility.yul\":396:398   */\n  0x20\n    /* \"#utility.yul\":388:394   */\n  dup3\n    /* \"#utility.yul\":385:399   */\n  lt\n    /* \"#utility.yul\":365:383   */\n  dup2\n    /* \"#utility.yul\":362:400   */\n  sub\n    /* \"#utility.yul\":359:520   */\n  tag_52\n  jumpi\n    /* \"#utility.yul\":442:452   */\n  0x4e487b71\n    /* \"#utility.yul\":437:440   */\n  0xe0\n    /* \"#utility.yul\":433:453   */\n  shl\n    /* \"#utility.yul\":430:431   */\n  0x00\n    /* \"#utility.yul\":423:454   */\n  mstore\n    /* \"#utility.yul\":477:481   */\n  0x22\n    /* \"#utility.yul\":474:475   */\n  0x04\n    /* \"#utility.yul\":467:482   */\n  mstore\n    /* \"#utility.yul\":505:509   */\n  0x24\n    /* \"#utility.yul\":502:503   */\n  0x00\n    /* \"#utility.yul\":495:510   */\n  revert\n    /* \"#utility.yul\":359:520   */\ntag_52:\n  pop\n    /* \"#utility.yul\":146:526   */\n  swap2\n  swap1\n  pop\n  jump\t// out\n    /* \"#utility.yul\":657:1202   */\ntag_46:\n    /* \"#utility.yul\":759:761   */\n  0x1f\n    /* \"#utility.yul\":754:757   */\n  dup3\n    /* \"#utility.yul\":751:762   */\n  gt\n    /* \"#utility.yul\":748:1196   */\n  iszero\n  tag_55\n  jumpi\n    /* \"#utility.yul\":795:796   */\n  0x00\n    /* \"#utility.yul\":820:825   */\n  dup2\n    /* \"#utility.yul\":816:818   */\n  dup2\n    /* \"#utility.yul\":809:826   */\n  mstore\n    /* \"#utility.yul\":865:869   */\n  0x20\n    /* \"#utility.yul\":861:863   */\n  dup2\n    /* \"#utility.yul\":851:870   */\n  keccak256\n    /* \"#utility.yul\":935:937   */\n  0x1f\n    /* \"#utility.yul\":923:933   */\n  dup6\n    /* \"#utility.yul\":919:938   */\n  add\n    /* \"#utility.yul\":916:917   */\n  0x05\n    /* \"#utility.yul\":912:939   */\n  shr\n    /* \"#utility.yul\":906:910   */\n  dup2\n    /* \"#utility.yul\":902:940   */\n  add\n    /* \"#utility.yul\":971:975   */\n  0x20\n    /* \"#utility.yul\":959:969   */\n  dup7\n    /* \"#utility.yul\":956:976   */\n  lt\n    /* \"#utility.yul\":953:1000   */\n  iszero\n  tag_56\n  jumpi\n  pop\n    /* \"#utility.yul\":994:998   */\n  dup1\n    /* \"#utility.yul\":953:1000   */\ntag_56:\n    /* \"#utility.yul\":1049:1051   */\n  0x1f\n    /* \"#utility.yul\":1044:1047   */\n  dup6\n    /* \"#utility.yul\":1040:1052   */\n  add\n    /* \"#utility.yul\":1037:1038   */\n  0x05\n    /* \"#utility.yul\":1033:1053   */\n  shr\n    /* \"#utility.yul\":1027:1031   */\n  dup3\n    /* \"#utility.yul\":1023:1054   */\n  add\n    /* \"#utility.yul\":1013:1054   */\n  swap2\n  pop\n    /* \"#utility.yul\":1104:1186   */\ntag_57:\n    /* \"#utility.yul\":1122:1124   */\n  dup2\n    /* \"#utility.yul\":1115:1120   */\n  dup2\n    /* \"#utility.yul\":1112:1125   */\n  lt\n    /* \"#utility.yul\":1104:1186   */\n  iszero\n  tag_59\n  jumpi\n    /* \"#utility.yul\":1167:1184   */\n  dup3\n  dup2\n  sstore\n    /* \"#utility.yul\":1148:1149   */\n  0x01\n    /* \"#utility.yul\":1137:1150   */\n  add\n    /* \"#utility.yul\":1104:1186   */\n  jump(tag_57)\ntag_59:\n    /* \"#utility.yul\":1108:1111   */\n  pop\n  pop\n  pop\n    /* \"#utility.yul\":748:1196   */\ntag_55:\n    /* \"#utility.yul\":657:1202   */\n  pop\n  pop\n  pop\n  jump\t// out\n    /* \"#utility.yul\":1378:2730   */\ntag_4:\n    /* \"#utility.yul\":1498:1508   */\n  dup2\n  mload\n  sub(shl(0x40, 0x01), 0x01)\n    /* \"#utility.yul\":1520:1550   */\n  dup2\n  gt\n    /* \"#utility.yul\":1517:1573   */\n  iszero\n  tag_63\n  jumpi\n    /* \"#utility.yul\":1553:1571   */\n  tag_63\n  tag_44\n  jump\t// in\ntag_63:\n    /* \"#utility.yul\":1582:1679   */\n  tag_64\n    /* \"#utility.yul\":1672:1678   */\n  dup2\n    /* \"#utility.yul\":1632:1670   */\n  tag_65\n    /* \"#utility.yul\":1664:1668   */\n  dup5\n    /* \"#utility.yul\":1658:1669   */\n  sload\n    /* \"#utility.yul\":1632:1670   */\n  tag_36\n  jump\t// in\ntag_65:\n    /* \"#utility.yul\":1626:1630   */\n  dup5\n    /* \"#utility.yul\":1582:1679   */\n  tag_46\n  jump\t// in\ntag_64:\n    /* \"#utility.yul\":1734:1738   */\n  0x20\n  dup1\n    /* \"#utility.yul\":1798:1800   */\n  0x1f\n    /* \"#utility.yul\":1787:1801   */\n  dup4\n  gt\n    /* \"#utility.yul\":1815:1816   */\n  0x01\n    /* \"#utility.yul\":1810:2473   */\n  dup2\n  eq\n  tag_67\n  jumpi\n    /* \"#utility.yul\":2517:2518   */\n  0x00\n    /* \"#utility.yul\":2534:2540   */\n  dup5\n    /* \"#utility.yul\":2531:2620   */\n  iszero\n  tag_68\n  jumpi\n  pop\n    /* \"#utility.yul\":2586:2605   */\n  dup6\n  dup4\n  add\n    /* \"#utility.yul\":2580:2606   */\n  mload\n    /* \"#utility.yul\":2531:2620   */\ntag_68:\n  not(0x00)\n    /* \"#utility.yul\":1335:1336   */\n  0x03\n    /* \"#utility.yul\":1331:1342   */\n  dup7\n  swap1\n  shl\n    /* \"#utility.yul\":1327:1351   */\n  shr\n    /* \"#utility.yul\":1323:1352   */\n  not\n    /* \"#utility.yul\":1313:1353   */\n  and\n    /* \"#utility.yul\":1359:1360   */\n  0x01\n    /* \"#utility.yul\":1355:1366   */\n  dup6\n  swap1\n  shl\n    /* \"#utility.yul\":1310:1367   */\n  or\n    /* \"#utility.yul\":2633:2714   */\n  dup6\n  sstore\n    /* \"#utility.yul\":1780:2724   */\n  jump(tag_59)\n    /* \"#utility.yul\":1810:2473   */\ntag_67:\n    /* \"#utility.yul\":604:605   */\n  0x00\n    /* \"#utility.yul\":597:611   */\n  dup6\n  dup2\n  mstore\n    /* \"#utility.yul\":641:645   */\n  0x20\n    /* \"#utility.yul\":628:646   */\n  dup2\n  keccak256\n  not(0x1f)\n    /* \"#utility.yul\":1846:1866   */\n  dup7\n  and\n  swap2\n    /* \"#utility.yul\":1964:2200   */\ntag_71:\n    /* \"#utility.yul\":1978:1985   */\n  dup3\n    /* \"#utility.yul\":1975:1976   */\n  dup2\n    /* \"#utility.yul\":1972:1986   */\n  lt\n    /* \"#utility.yul\":1964:2200   */\n  iszero\n  tag_73\n  jumpi\n    /* \"#utility.yul\":2067:2086   */\n  dup9\n  dup7\n  add\n    /* \"#utility.yul\":2061:2087   */\n  mload\n    /* \"#utility.yul\":2046:2088   */\n  dup3\n  sstore\n    /* \"#utility.yul\":2159:2186   */\n  swap5\n  dup5\n  add\n  swap5\n    /* \"#utility.yul\":2127:2128   */\n  0x01\n    /* \"#utility.yul\":2115:2129   */\n  swap1\n  swap2\n  add\n  swap1\n    /* \"#utility.yul\":1994:2013   */\n  dup5\n  add\n    /* \"#utility.yul\":1964:2200   */\n  jump(tag_71)\ntag_73:\n    /* \"#utility.yul\":1968:1971   */\n  pop\n    /* \"#utility.yul\":2228:2234   */\n  dup6\n    /* \"#utility.yul\":2219:2226   */\n  dup3\n    /* \"#utility.yul\":2216:2235   */\n  lt\n    /* \"#utility.yul\":2213:2414   */\n  iszero\n  tag_74\n  jumpi\n    /* \"#utility.yul\":2289:2308   */\n  dup8\n  dup6\n  add\n    /* \"#utility.yul\":2283:2309   */\n  mload\n  not(0x00)\n    /* \"#utility.yul\":2372:2373   */\n  0x03\n    /* \"#utility.yul\":2368:2382   */\n  dup9\n  swap1\n  shl\n    /* \"#utility.yul\":2384:2387   */\n  0xf8\n    /* \"#utility.yul\":2364:2388   */\n  and\n    /* \"#utility.yul\":2360:2397   */\n  shr\n    /* \"#utility.yul\":2356:2398   */\n  not\n    /* \"#utility.yul\":2341:2399   */\n  and\n    /* \"#utility.yul\":2326:2400   */\n  dup2\n  sstore\n    /* \"#utility.yul\":2213:2414   */\ntag_74:\n  pop\n  pop\n  pop\n  pop\n  pop\n    /* \"#utility.yul\":2460:2461   */\n  0x01\n    /* \"#utility.yul\":2444:2458   */\n  swap1\n  dup2\n  shl\n    /* \"#utility.yul\":2440:2462   */\n  add\n    /* \"#utility.yul\":2427:2463   */\n  swap1\n  sstore\n  pop\n    /* \"#utility.yul\":1378:2730   */\n  jump\t// out\ntag_48:\n    /* \"Practical4-Tick-Tack-Toe-Jason.sol\":60:3856  contract TickTackToe{... */\n  dataSize(sub_0)\n  dup1\n  dataOffset(sub_0)\n  0x00\n  codecopy\n  0x00\n  return\nstop\n\nsub_0: assembly {\n        /* \"Practical4-Tick-Tack-Toe-Jason.sol\":60:3856  contract TickTackToe{... */\n      mstore(0x40, 0x80)\n      callvalue\n      dup1\n      iszero\n      tag_1\n      jumpi\n      0x00\n      dup1\n      revert\n    tag_1:\n      pop\n      jumpi(tag_2, lt(calldatasize, 0x04))\n      shr(0xe0, calldataload(0x00))\n      dup1\n      0x7d39620b\n      gt\n      tag_11\n      jumpi\n      dup1\n      0x7d39620b\n      eq\n      tag_7\n      jumpi\n      dup1\n      0x8d25af04\n      eq\n      tag_8\n      jumpi\n      dup1\n      0xbed34bba\n      eq\n      tag_9\n      jumpi\n      dup1\n      0xd4f77b1c\n      eq\n      tag_10\n      jumpi\n      0x00\n      dup1\n      revert\n    tag_11:\n      dup1\n      0x409e2205\n      eq\n      tag_3\n      jumpi\n      dup1\n      0x52fc4855\n      eq\n      tag_4\n      jumpi\n      dup1\n      0x55a5c301\n      eq\n      tag_5\n      jumpi\n      dup1\n      0x63f4150e\n      eq\n      tag_6\n      jumpi\n    tag_2:\n      0x00\n      dup1\n      revert\n        /* \"Practical4-Tick-Tack-Toe-Jason.sol\":331:393  string[] public options = [\"\", \"\", \"\", \"\", \"\", \"\", \"\", \"\", \"\"] */\n    tag_3:\n      tag_12\n      tag_13\n      calldatasize\n      0x04\n      tag_14\n      jump\t// in\n    tag_13:\n      tag_15\n      jump\t// in\n    tag_12:\n      mload(0x40)\n      tag_16\n      swap2\n      swap1\n      tag_17\n      jump\t// in\n    tag_16:\n      mload(0x40)\n      dup1\n      swap2\n      sub\n      swap1\n      return\n        /* \"Practical4-Tick-Tack-Toe-Jason.sol\":1579:1822  function userInput(uint input) external {... */\n    tag_4:\n      tag_18\n      tag_19\n      calldatasize\n      0x04\n      tag_14\n      jump\t// in\n    tag_19:\n      tag_20\n      jump\t// in\n    tag_18:\n      stop\n        /* \"Practical4-Tick-Tack-Toe-Jason.sol\":112:141  address public player1address */\n    tag_5:\n      sload(0x00)\n      tag_21\n      swap1\n      sub(shl(0xa0, 0x01), 0x01)\n      and\n      dup2\n      jump\n    tag_21:\n      mload(0x40)\n      sub(shl(0xa0, 0x01), 0x01)\n        /* \"#utility.yul\":1119:1151   */\n      swap1\n      swap2\n      and\n        /* \"#utility.yul\":1101:1152   */\n      dup2\n      mstore\n        /* \"#utility.yul\":1089:1091   */\n      0x20\n        /* \"#utility.yul\":1074:1092   */\n      add\n        /* \"Practical4-Tick-Tack-Toe-Jason.sol\":112:141  address public player1address */\n      tag_16\n        /* \"#utility.yul\":955:1158   */\n      jump\n        /* \"Practical4-Tick-Tack-Toe-Jason.sol\":870:964  function getoption () external view returns (string[] memory){... */\n    tag_6:\n      tag_25\n      tag_26\n      jump\t// in\n    tag_25:\n      mload(0x40)\n      tag_16\n      swap2\n      swap1\n      tag_28\n      jump\t// in\n        /* \"Practical4-Tick-Tack-Toe-Jason.sol\":171:200  address public player2address */\n    tag_7:\n      sload(0x01)\n      tag_21\n      swap1\n      sub(shl(0xa0, 0x01), 0x01)\n      and\n      dup2\n      jump\n        /* \"Practical4-Tick-Tack-Toe-Jason.sol\":3698:3851  function restartGame() external {... */\n    tag_8:\n      tag_18\n      tag_33\n      jump\t// in\n        /* \"Practical4-Tick-Tack-Toe-Jason.sol\":3441:3688  function compareStrings(string memory a, string memory b) public pure returns (bool) {... */\n    tag_9:\n      tag_34\n      tag_35\n      calldatasize\n      0x04\n      tag_36\n      jump\t// in\n    tag_35:\n      tag_37\n      jump\t// in\n    tag_34:\n      mload(0x40)\n        /* \"#utility.yul\":3540:3554   */\n      swap1\n      iszero\n        /* \"#utility.yul\":3533:3555   */\n      iszero\n        /* \"#utility.yul\":3515:3556   */\n      dup2\n      mstore\n        /* \"#utility.yul\":3503:3505   */\n      0x20\n        /* \"#utility.yul\":3488:3506   */\n      add\n        /* \"Practical4-Tick-Tack-Toe-Jason.sol\":3441:3688  function compareStrings(string memory a, string memory b) public pure returns (bool) {... */\n      tag_16\n        /* \"#utility.yul\":3375:3562   */\n      jump\n        /* \"Practical4-Tick-Tack-Toe-Jason.sol\":991:1545  function joinGame () external {... */\n    tag_10:\n      tag_18\n      tag_41\n      jump\t// in\n        /* \"Practical4-Tick-Tack-Toe-Jason.sol\":331:393  string[] public options = [\"\", \"\", \"\", \"\", \"\", \"\", \"\", \"\", \"\"] */\n    tag_15:\n      0x03\n      dup2\n      dup2\n      sload\n      dup2\n      lt\n      tag_42\n      jumpi\n      0x00\n      dup1\n      revert\n    tag_42:\n      swap1\n      0x00\n      mstore\n      keccak256(0x00, 0x20)\n      add\n      0x00\n      swap2\n      pop\n      swap1\n      pop\n      dup1\n      sload\n      tag_44\n      swap1\n      tag_45\n      jump\t// in\n    tag_44:\n      dup1\n      0x1f\n      add\n      0x20\n      dup1\n      swap2\n      div\n      mul\n      0x20\n      add\n      mload(0x40)\n      swap1\n      dup2\n      add\n      0x40\n      mstore\n      dup1\n      swap3\n      swap2\n      swap1\n      dup2\n      dup2\n      mstore\n      0x20\n      add\n      dup3\n      dup1\n      sload\n      tag_46\n      swap1\n      tag_45\n      jump\t// in\n    tag_46:\n      dup1\n      iszero\n      tag_47\n      jumpi\n      dup1\n      0x1f\n      lt\n      tag_48\n      jumpi\n      0x0100\n      dup1\n      dup4\n      sload\n      div\n      mul\n      dup4\n      mstore\n      swap2\n      0x20\n      add\n      swap2\n      jump(tag_47)\n    tag_48:\n      dup3\n      add\n      swap2\n      swap1\n      0x00\n      mstore\n      keccak256(0x00, 0x20)\n      swap1\n    tag_49:\n      dup2\n      sload\n      dup2\n      mstore\n      swap1\n      0x01\n      add\n      swap1\n      0x20\n      add\n      dup1\n      dup4\n      gt\n      tag_49\n      jumpi\n      dup3\n      swap1\n      sub\n      0x1f\n      and\n      dup3\n      add\n      swap2\n    tag_47:\n      pop\n      pop\n      pop\n      pop\n      pop\n      dup2\n      jump\t// out\n        /* \"Practical4-Tick-Tack-Toe-Jason.sol\":1579:1822  function userInput(uint input) external {... */\n    tag_20:\n        /* \"Practical4-Tick-Tack-Toe-Jason.sol\":1638:1646  activate */\n      and(0xff, sload(0x04))\n        /* \"Practical4-Tick-Tack-Toe-Jason.sol\":1630:1678  require(activate,\"The game still not start yet\") */\n      tag_51\n      jumpi\n      mload(0x40)\n      shl(0xe5, 0x461bcd)\n      dup2\n      mstore\n        /* \"#utility.yul\":4154:4156   */\n      0x20\n        /* \"Practical4-Tick-Tack-Toe-Jason.sol\":1630:1678  require(activate,\"The game still not start yet\") */\n      0x04\n      dup3\n      add\n        /* \"#utility.yul\":4136:4157   */\n      mstore\n        /* \"#utility.yul\":4193:4195   */\n      0x1c\n        /* \"#utility.yul\":4173:4191   */\n      0x24\n      dup3\n      add\n        /* \"#utility.yul\":4166:4196   */\n      mstore\n        /* \"#utility.yul\":4232:4262   */\n      0x5468652067616d65207374696c6c206e6f742073746172742079657400000000\n        /* \"#utility.yul\":4212:4230   */\n      0x44\n      dup3\n      add\n        /* \"#utility.yul\":4205:4263   */\n      mstore\n        /* \"#utility.yul\":4280:4298   */\n      0x64\n      add\n        /* \"Practical4-Tick-Tack-Toe-Jason.sol\":1630:1678  require(activate,\"The game still not start yet\") */\n    tag_52:\n      mload(0x40)\n      dup1\n      swap2\n      sub\n      swap1\n      revert\n    tag_51:\n        /* \"Practical4-Tick-Tack-Toe-Jason.sol\":1697:1730  compareStrings(options[input],\"\") */\n      tag_54\n        /* \"Practical4-Tick-Tack-Toe-Jason.sol\":1712:1719  options */\n      0x03\n        /* \"Practical4-Tick-Tack-Toe-Jason.sol\":1720:1725  input */\n      dup3\n        /* \"Practical4-Tick-Tack-Toe-Jason.sol\":1712:1726  options[input] */\n      dup2\n      sload\n      dup2\n      lt\n      tag_56\n      jumpi\n      tag_56\n      tag_57\n      jump\t// in\n    tag_56:\n      swap1\n      0x00\n      mstore\n      keccak256(0x00, 0x20)\n      add\n        /* \"Practical4-Tick-Tack-Toe-Jason.sol\":1697:1730  compareStrings(options[input],\"\") */\n      dup1\n      sload\n      tag_59\n      swap1\n      tag_45\n      jump\t// in\n    tag_59:\n      dup1\n      0x1f\n      add\n      0x20\n      dup1\n      swap2\n      div\n      mul\n      0x20\n      add\n      mload(0x40)\n      swap1\n      dup2\n      add\n      0x40\n      mstore\n      dup1\n      swap3\n      swap2\n      swap1\n      dup2\n      dup2\n      mstore\n      0x20\n      add\n      dup3\n      dup1\n      sload\n      tag_60\n      swap1\n      tag_45\n      jump\t// in\n    tag_60:\n      dup1\n      iszero\n      tag_61\n      jumpi\n      dup1\n      0x1f\n      lt\n      tag_62\n      jumpi\n      0x0100\n      dup1\n      dup4\n      sload\n      div\n      mul\n      dup4\n      mstore\n      swap2\n      0x20\n      add\n      swap2\n      jump(tag_61)\n    tag_62:\n      dup3\n      add\n      swap2\n      swap1\n      0x00\n      mstore\n      keccak256(0x00, 0x20)\n      swap1\n    tag_63:\n      dup2\n      sload\n      dup2\n      mstore\n      swap1\n      0x01\n      add\n      swap1\n      0x20\n      add\n      dup1\n      dup4\n      gt\n      tag_63\n      jumpi\n      dup3\n      swap1\n      sub\n      0x1f\n      and\n      dup3\n      add\n      swap2\n    tag_61:\n      pop\n      pop\n      pop\n      pop\n      pop\n      mload(0x40)\n      dup1\n      0x20\n      add\n      0x40\n      mstore\n      dup1\n      0x00\n      dup2\n      mstore\n      pop\n        /* \"Practical4-Tick-Tack-Toe-Jason.sol\":1697:1711  compareStrings */\n      tag_37\n        /* \"Practical4-Tick-Tack-Toe-Jason.sol\":1697:1730  compareStrings(options[input],\"\") */\n      jump\t// in\n    tag_54:\n        /* \"Practical4-Tick-Tack-Toe-Jason.sol\":1689:1747  require(compareStrings(options[input],\"\"),\"Invalid input\") */\n      tag_64\n      jumpi\n      mload(0x40)\n      shl(0xe5, 0x461bcd)\n      dup2\n      mstore\n        /* \"#utility.yul\":4643:4645   */\n      0x20\n        /* \"Practical4-Tick-Tack-Toe-Jason.sol\":1689:1747  require(compareStrings(options[input],\"\"),\"Invalid input\") */\n      0x04\n      dup3\n      add\n        /* \"#utility.yul\":4625:4646   */\n      mstore\n        /* \"#utility.yul\":4682:4684   */\n      0x0d\n        /* \"#utility.yul\":4662:4680   */\n      0x24\n      dup3\n      add\n        /* \"#utility.yul\":4655:4685   */\n      mstore\n      shl(0x9a, 0x125b9d985b1a59081a5b9c1d5d)\n        /* \"#utility.yul\":4701:4719   */\n      0x44\n      dup3\n      add\n        /* \"#utility.yul\":4694:4737   */\n      mstore\n        /* \"#utility.yul\":4754:4772   */\n      0x64\n      add\n        /* \"Practical4-Tick-Tack-Toe-Jason.sol\":1689:1747  require(compareStrings(options[input],\"\"),\"Invalid input\") */\n      tag_52\n        /* \"#utility.yul\":4441:4778   */\n      jump\n        /* \"Practical4-Tick-Tack-Toe-Jason.sol\":1689:1747  require(compareStrings(options[input],\"\"),\"Invalid input\") */\n    tag_64:\n        /* \"Practical4-Tick-Tack-Toe-Jason.sol\":1775:1788  currentPlayer */\n      0x05\n        /* \"Practical4-Tick-Tack-Toe-Jason.sol\":1758:1765  options */\n      0x03\n        /* \"Practical4-Tick-Tack-Toe-Jason.sol\":1766:1771  input */\n      dup3\n        /* \"Practical4-Tick-Tack-Toe-Jason.sol\":1758:1772  options[input] */\n      dup2\n      sload\n      dup2\n      lt\n      tag_68\n      jumpi\n      tag_68\n      tag_57\n      jump\t// in\n    tag_68:\n      swap1\n      0x00\n      mstore\n      keccak256(0x00, 0x20)\n      add\n        /* \"Practical4-Tick-Tack-Toe-Jason.sol\":1758:1788  options[input] = currentPlayer */\n      swap1\n      dup2\n      tag_70\n      swap2\n      swap1\n      tag_71\n      jump\t// in\n    tag_70:\n      pop\n        /* \"Practical4-Tick-Tack-Toe-Jason.sol\":1801:1814  checkWinner() */\n      tag_72\n        /* \"Practical4-Tick-Tack-Toe-Jason.sol\":1801:1812  checkWinner */\n      tag_73\n        /* \"Practical4-Tick-Tack-Toe-Jason.sol\":1801:1814  checkWinner() */\n      jump\t// in\n    tag_72:\n        /* \"Practical4-Tick-Tack-Toe-Jason.sol\":1579:1822  function userInput(uint input) external {... */\n      pop\n      jump\t// out\n        /* \"Practical4-Tick-Tack-Toe-Jason.sol\":870:964  function getoption () external view returns (string[] memory){... */\n    tag_26:\n        /* \"Practical4-Tick-Tack-Toe-Jason.sol\":915:930  string[] memory */\n      0x60\n        /* \"Practical4-Tick-Tack-Toe-Jason.sol\":949:956  options */\n      0x03\n        /* \"Practical4-Tick-Tack-Toe-Jason.sol\":942:956  return options */\n      dup1\n      sload\n      dup1\n      0x20\n      mul\n      0x20\n      add\n      mload(0x40)\n      swap1\n      dup2\n      add\n      0x40\n      mstore\n      dup1\n      swap3\n      swap2\n      swap1\n      dup2\n      dup2\n      mstore\n      0x20\n      add\n      0x00\n      swap1\n    tag_75:\n      dup3\n      dup3\n      lt\n      iszero\n      tag_76\n      jumpi\n      dup4\n      dup3\n      swap1\n      0x00\n      mstore\n      keccak256(0x00, 0x20)\n      add\n      dup1\n      sload\n      tag_78\n      swap1\n      tag_45\n      jump\t// in\n    tag_78:\n      dup1\n      0x1f\n      add\n      0x20\n      dup1\n      swap2\n      div\n      mul\n      0x20\n      add\n      mload(0x40)\n      swap1\n      dup2\n      add\n      0x40\n      mstore\n      dup1\n      swap3\n      swap2\n      swap1\n      dup2\n      dup2\n      mstore\n      0x20\n      add\n      dup3\n      dup1\n      sload\n      tag_79\n      swap1\n      tag_45\n      jump\t// in\n    tag_79:\n      dup1\n      iszero\n      tag_80\n      jumpi\n      dup1\n      0x1f\n      lt\n      tag_81\n      jumpi\n      0x0100\n      dup1\n      dup4\n      sload\n      div\n      mul\n      dup4\n      mstore\n      swap2\n      0x20\n      add\n      swap2\n      jump(tag_80)\n    tag_81:\n      dup3\n      add\n      swap2\n      swap1\n      0x00\n      mstore\n      keccak256(0x00, 0x20)\n      swap1\n    tag_82:\n      dup2\n      sload\n      dup2\n      mstore\n      swap1\n      0x01\n      add\n      swap1\n      0x20\n      add\n      dup1\n      dup4\n      gt\n      tag_82\n      jumpi\n      dup3\n      swap1\n      sub\n      0x1f\n      and\n      dup3\n      add\n      swap2\n    tag_80:\n      pop\n      pop\n      pop\n      pop\n      pop\n      dup2\n      mstore\n      0x20\n      add\n      swap1\n      0x01\n      add\n      swap1\n      jump(tag_75)\n    tag_76:\n      pop\n      pop\n      pop\n      pop\n      swap1\n      pop\n        /* \"Practical4-Tick-Tack-Toe-Jason.sol\":870:964  function getoption () external view returns (string[] memory){... */\n      swap1\n      jump\t// out\n        /* \"Practical4-Tick-Tack-Toe-Jason.sol\":3698:3851  function restartGame() external {... */\n    tag_33:\n        /* \"Practical4-Tick-Tack-Toe-Jason.sol\":3741:3760  currentPlayer = \"X\" */\n      0x40\n      dup1\n      mload\n      dup1\n      dup3\n      add\n      swap1\n      swap2\n      mstore\n      0x01\n      dup2\n      mstore\n      shl(0xfb, 0x0b)\n      0x20\n      dup3\n      add\n      mstore\n        /* \"Practical4-Tick-Tack-Toe-Jason.sol\":3741:3754  currentPlayer */\n      0x05\n      swap1\n        /* \"Practical4-Tick-Tack-Toe-Jason.sol\":3741:3760  currentPlayer = \"X\" */\n      tag_84\n      swap1\n        /* \"Practical4-Tick-Tack-Toe-Jason.sol\":3741:3754  currentPlayer */\n      dup3\n        /* \"Practical4-Tick-Tack-Toe-Jason.sol\":3741:3760  currentPlayer = \"X\" */\n      tag_85\n      jump\t// in\n    tag_84:\n      pop\n        /* \"Practical4-Tick-Tack-Toe-Jason.sol\":3771:3817  options = [\"\", \"\", \"\", \"\", \"\", \"\", \"\", \"\", \"\"] */\n      0x40\n      dup1\n      mload\n      0x0140\n      dup2\n      add\n      dup3\n      mstore\n      0x00\n      0x0120\n      dup3\n      add\n      dup2\n      dup2\n      mstore\n      dup3\n      mstore\n      dup3\n      mload\n      0x20\n      dup2\n      dup2\n      add\n      dup6\n      mstore\n      dup3\n      dup3\n      mstore\n      dup1\n      dup5\n      add\n      swap2\n      swap1\n      swap2\n      mstore\n      dup4\n      mload\n      dup1\n      dup3\n      add\n      dup6\n      mstore\n      dup3\n      dup2\n      mstore\n      dup4\n      dup6\n      add\n      mstore\n      dup4\n      mload\n      dup1\n      dup3\n      add\n      dup6\n      mstore\n      dup3\n      dup2\n      mstore\n      0x60\n      dup5\n      add\n      mstore\n      dup4\n      mload\n      dup1\n      dup3\n      add\n      dup6\n      mstore\n      dup3\n      dup2\n      mstore\n      0x80\n      dup5\n      add\n      mstore\n      dup4\n      mload\n      dup1\n      dup3\n      add\n      dup6\n      mstore\n      dup3\n      dup2\n      mstore\n      0xa0\n      dup5\n      add\n      mstore\n      dup4\n      mload\n      dup1\n      dup3\n      add\n      dup6\n      mstore\n      dup3\n      dup2\n      mstore\n      0xc0\n      dup5\n      add\n      mstore\n      dup4\n      mload\n      dup1\n      dup3\n      add\n      dup6\n      mstore\n      dup3\n      dup2\n      mstore\n      0xe0\n      dup5\n      add\n      mstore\n      dup4\n      mload\n      swap1\n      dup2\n      add\n      swap1\n      swap4\n      mstore\n      dup3\n      mstore\n      0x0100\n      dup2\n      add\n      swap2\n      swap1\n      swap2\n      mstore\n      tag_86\n      swap1\n        /* \"Practical4-Tick-Tack-Toe-Jason.sol\":3771:3778  options */\n      0x03\n      swap1\n        /* \"Practical4-Tick-Tack-Toe-Jason.sol\":3771:3817  options = [\"\", \"\", \"\", \"\", \"\", \"\", \"\", \"\", \"\"] */\n      0x09\n      tag_87\n      jump\t// in\n    tag_86:\n      pop\n        /* \"Practical4-Tick-Tack-Toe-Jason.sol\":3828:3836  activate */\n      0x04\n        /* \"Practical4-Tick-Tack-Toe-Jason.sol\":3828:3843  activate = true */\n      dup1\n      sload\n      not(0xff)\n      and\n        /* \"Practical4-Tick-Tack-Toe-Jason.sol\":3839:3843  true */\n      0x01\n        /* \"Practical4-Tick-Tack-Toe-Jason.sol\":3828:3843  activate = true */\n      or\n      swap1\n      sstore\n        /* \"Practical4-Tick-Tack-Toe-Jason.sol\":3698:3851  function restartGame() external {... */\n      jump\t// out\n        /* \"Practical4-Tick-Tack-Toe-Jason.sol\":3441:3688  function compareStrings(string memory a, string memory b) public pure returns (bool) {... */\n    tag_37:\n        /* \"Practical4-Tick-Tack-Toe-Jason.sol\":3520:3524  bool */\n      0x00\n        /* \"Practical4-Tick-Tack-Toe-Jason.sol\":3677:3678  b */\n      dup2\n        /* \"Practical4-Tick-Tack-Toe-Jason.sol\":3660:3679  abi.encodePacked(b) */\n      add(0x20, mload(0x40))\n      tag_89\n      swap2\n      swap1\n      tag_90\n      jump\t// in\n    tag_89:\n      mload(0x40)\n      0x20\n      dup2\n      dup4\n      sub\n      sub\n      dup2\n      mstore\n      swap1\n      0x40\n      mstore\n        /* \"Practical4-Tick-Tack-Toe-Jason.sol\":3650:3680  keccak256(abi.encodePacked(b)) */\n      dup1\n      mload\n      swap1\n      0x20\n      add\n      keccak256\n        /* \"Practical4-Tick-Tack-Toe-Jason.sol\":3643:3644  a */\n      dup4\n        /* \"Practical4-Tick-Tack-Toe-Jason.sol\":3626:3645  abi.encodePacked(a) */\n      add(0x20, mload(0x40))\n      tag_91\n      swap2\n      swap1\n      tag_90\n      jump\t// in\n    tag_91:\n      mload(0x40)\n      0x20\n      dup2\n      dup4\n      sub\n      sub\n      dup2\n      mstore\n      swap1\n      0x40\n      mstore\n        /* \"Practical4-Tick-Tack-Toe-Jason.sol\":3616:3646  keccak256(abi.encodePacked(a)) */\n      dup1\n      mload\n      swap1\n      0x20\n      add\n      keccak256\n        /* \"Practical4-Tick-Tack-Toe-Jason.sol\":3616:3680  keccak256(abi.encodePacked(a)) == keccak256(abi.encodePacked(b)) */\n      eq\n        /* \"Practical4-Tick-Tack-Toe-Jason.sol\":3609:3680  return keccak256(abi.encodePacked(a)) == keccak256(abi.encodePacked(b)) */\n      swap1\n      pop\n        /* \"Practical4-Tick-Tack-Toe-Jason.sol\":3441:3688  function compareStrings(string memory a, string memory b) public pure returns (bool) {... */\n      swap3\n      swap2\n      pop\n      pop\n      jump\t// out\n        /* \"Practical4-Tick-Tack-Toe-Jason.sol\":991:1545  function joinGame () external {... */\n    tag_41:\n        /* \"Practical4-Tick-Tack-Toe-Jason.sol\":1035:1046  playerCount */\n      sload(0x02)\n        /* \"Practical4-Tick-Tack-Toe-Jason.sol\":1050:1051  0 */\n      0x00\n        /* \"Practical4-Tick-Tack-Toe-Jason.sol\":1035:1051  playerCount == 0 */\n      sub\n        /* \"Practical4-Tick-Tack-Toe-Jason.sol\":1032:1538  if(playerCount == 0){... */\n      tag_93\n      jumpi\n        /* \"Practical4-Tick-Tack-Toe-Jason.sol\":1067:1081  player1address */\n      0x00\n        /* \"Practical4-Tick-Tack-Toe-Jason.sol\":1067:1094  player1address = msg.sender */\n      dup1\n      sload\n      not(sub(shl(0xa0, 0x01), 0x01))\n      and\n        /* \"Practical4-Tick-Tack-Toe-Jason.sol\":1084:1094  msg.sender */\n      caller\n        /* \"Practical4-Tick-Tack-Toe-Jason.sol\":1067:1094  player1address = msg.sender */\n      or\n      dup2\n      sstore\n        /* \"Practical4-Tick-Tack-Toe-Jason.sol\":1109:1120  playerCount */\n      0x02\n        /* \"Practical4-Tick-Tack-Toe-Jason.sol\":1109:1122  playerCount++ */\n      dup1\n      sload\n      swap2\n      tag_94\n      dup4\n      tag_95\n      jump\t// in\n    tag_94:\n      swap2\n      swap1\n      pop\n      sstore\n      pop\n        /* \"Practical4-Tick-Tack-Toe-Jason.sol\":991:1545  function joinGame () external {... */\n      jump\t// out\n        /* \"Practical4-Tick-Tack-Toe-Jason.sol\":1032:1538  if(playerCount == 0){... */\n    tag_93:\n        /* \"Practical4-Tick-Tack-Toe-Jason.sol\":1142:1153  playerCount */\n      sload(0x02)\n        /* \"Practical4-Tick-Tack-Toe-Jason.sol\":1157:1158  1 */\n      0x01\n        /* \"Practical4-Tick-Tack-Toe-Jason.sol\":1142:1158  playerCount == 1 */\n      sub\n        /* \"Practical4-Tick-Tack-Toe-Jason.sol\":1139:1538  if(playerCount == 1){... */\n      tag_97\n      jumpi\n        /* \"Practical4-Tick-Tack-Toe-Jason.sol\":1197:1211  player1address */\n      and(sub(shl(0xa0, 0x01), 0x01), sload(0x00))\n        /* \"Practical4-Tick-Tack-Toe-Jason.sol\":1183:1193  msg.sender */\n      caller\n        /* \"Practical4-Tick-Tack-Toe-Jason.sol\":1183:1211  msg.sender != player1address */\n      sub\n        /* \"Practical4-Tick-Tack-Toe-Jason.sol\":1174:1253  require((msg.sender != player1address), \"Error: You cannot play with yourself\") */\n      tag_98\n      jumpi\n      mload(0x40)\n      shl(0xe5, 0x461bcd)\n      dup2\n      mstore\n        /* \"#utility.yul\":9160:9162   */\n      0x20\n        /* \"Practical4-Tick-Tack-Toe-Jason.sol\":1174:1253  require((msg.sender != player1address), \"Error: You cannot play with yourself\") */\n      0x04\n      dup3\n      add\n        /* \"#utility.yul\":9142:9163   */\n      mstore\n        /* \"#utility.yul\":9199:9201   */\n      0x24\n        /* \"#utility.yul\":9179:9197   */\n      dup1\n      dup3\n      add\n        /* \"#utility.yul\":9172:9202   */\n      mstore\n        /* \"#utility.yul\":9238:9272   */\n      0x4572726f723a20596f752063616e6e6f7420706c6179207769746820796f7572\n        /* \"#utility.yul\":9218:9236   */\n      0x44\n      dup3\n      add\n        /* \"#utility.yul\":9211:9273   */\n      mstore\n      shl(0xe1, 0x39b2b633)\n        /* \"#utility.yul\":9289:9307   */\n      0x64\n      dup3\n      add\n        /* \"#utility.yul\":9282:9316   */\n      mstore\n        /* \"#utility.yul\":9333:9352   */\n      0x84\n      add\n        /* \"Practical4-Tick-Tack-Toe-Jason.sol\":1174:1253  require((msg.sender != player1address), \"Error: You cannot play with yourself\") */\n      tag_52\n        /* \"#utility.yul\":8958:9358   */\n      jump\n        /* \"Practical4-Tick-Tack-Toe-Jason.sol\":1174:1253  require((msg.sender != player1address), \"Error: You cannot play with yourself\") */\n    tag_98:\n        /* \"Practical4-Tick-Tack-Toe-Jason.sol\":1311:1322  playerCount */\n      0x02\n        /* \"Practical4-Tick-Tack-Toe-Jason.sol\":1311:1324  playerCount++ */\n      dup1\n      sload\n      swap1\n        /* \"Practical4-Tick-Tack-Toe-Jason.sol\":1268:1282  player2address */\n      0x00\n        /* \"Practical4-Tick-Tack-Toe-Jason.sol\":1311:1324  playerCount++ */\n      tag_101\n      dup4\n      tag_95\n      jump\t// in\n    tag_101:\n      swap1\n      swap2\n      sstore\n      pop\n      pop\n        /* \"Practical4-Tick-Tack-Toe-Jason.sol\":1418:1432  player1address */\n      sload(0x00)\n      0x01\n        /* \"Practical4-Tick-Tack-Toe-Jason.sol\":1434:1448  player2address */\n      sload\n        /* \"Practical4-Tick-Tack-Toe-Jason.sol\":1393:1449  startGame(\"Start game!\", player1address, player2address) */\n      0x40\n      dup1\n      mload\n        /* \"#utility.yul\":9621:9623   */\n      0x60\n        /* \"#utility.yul\":9603:9624   */\n      dup1\n      dup3\n      mstore\n        /* \"#utility.yul\":9660:9662   */\n      0x0b\n        /* \"#utility.yul\":9640:9658   */\n      swap1\n      dup3\n      add\n        /* \"#utility.yul\":9633:9663   */\n      mstore\n      shl(0xa8, 0x53746172742067616d6521)\n        /* \"#utility.yul\":9694:9697   */\n      0x80\n        /* \"#utility.yul\":9679:9698   */\n      dup3\n      add\n        /* \"#utility.yul\":9672:9714   */\n      mstore\n      sub(shl(0xa0, 0x01), 0x01)\n        /* \"Practical4-Tick-Tack-Toe-Jason.sol\":1418:1432  player1address */\n      swap4\n      dup5\n      and\n        /* \"#utility.yul\":9819:9823   */\n      0x20\n        /* \"#utility.yul\":9804:9824   */\n      dup3\n      add\n        /* \"#utility.yul\":9797:9842   */\n      mstore\n        /* \"Practical4-Tick-Tack-Toe-Jason.sol\":1434:1448  player2address */\n      swap3\n      swap1\n      swap2\n      and\n        /* \"#utility.yul\":9858:9876   */\n      swap1\n      dup3\n      add\n        /* \"#utility.yul\":9851:9894   */\n      mstore\n        /* \"Practical4-Tick-Tack-Toe-Jason.sol\":1393:1449  startGame(\"Start game!\", player1address, player2address) */\n      0xe731305b65099c3b743324657b0ef6cc0638875c5469a8e5bde1765300c0b9b2\n      swap1\n        /* \"#utility.yul\":9746:9749   */\n      0xa0\n        /* \"#utility.yul\":9731:9750   */\n      add\n        /* \"Practical4-Tick-Tack-Toe-Jason.sol\":1393:1449  startGame(\"Start game!\", player1address, player2address) */\n    tag_102:\n      mload(0x40)\n      dup1\n      swap2\n      sub\n      swap1\n      log1\n        /* \"Practical4-Tick-Tack-Toe-Jason.sol\":991:1545  function joinGame () external {... */\n      jump\t// out\n        /* \"Practical4-Tick-Tack-Toe-Jason.sol\":1139:1538  if(playerCount == 1){... */\n    tag_97:\n        /* \"Practical4-Tick-Tack-Toe-Jason.sol\":1485:1526  queueFull(\"Now queue is full, try later\") */\n      0xe955ccaf7888efcaf9248f6fe09c3ce81cc6c6b8d5049b7e597604b9fda4f5a0\n      mload(0x40)\n      tag_102\n      swap1\n        /* \"#utility.yul\":10107:10109   */\n      0x20\n        /* \"#utility.yul\":10089:10110   */\n      dup1\n      dup3\n      mstore\n        /* \"#utility.yul\":10146:10148   */\n      0x1c\n        /* \"#utility.yul\":10126:10144   */\n      swap1\n      dup3\n      add\n        /* \"#utility.yul\":10119:10149   */\n      mstore\n        /* \"#utility.yul\":10185:10215   */\n      0x4e6f772071756575652069732066756c6c2c20747279206c6174657200000000\n        /* \"#utility.yul\":10180:10182   */\n      0x40\n        /* \"#utility.yul\":10165:10183   */\n      dup3\n      add\n        /* \"#utility.yul\":10158:10216   */\n      mstore\n        /* \"#utility.yul\":10248:10250   */\n      0x60\n        /* \"#utility.yul\":10233:10251   */\n      add\n      swap1\n        /* \"#utility.yul\":9905:10257   */\n      jump\n        /* \"Practical4-Tick-Tack-Toe-Jason.sol\":1830:2971  function checkWinner () private {... */\n    tag_73:\n        /* \"Practical4-Tick-Tack-Toe-Jason.sol\":1873:1885  bool userWon */\n      0x00\n        /* \"Practical4-Tick-Tack-Toe-Jason.sol\":1908:1914  uint i */\n      dup1\n        /* \"Practical4-Tick-Tack-Toe-Jason.sol\":1904:2520  for(uint i = 0 ; i < winConditionSet.length; i++){... */\n    tag_108:\n        /* \"Practical4-Tick-Tack-Toe-Jason.sol\":1925:1940  winConditionSet */\n      0x06\n        /* \"Practical4-Tick-Tack-Toe-Jason.sol\":1925:1947  winConditionSet.length */\n      sload\n        /* \"Practical4-Tick-Tack-Toe-Jason.sol\":1921:1947  i < winConditionSet.length */\n      dup2\n      lt\n        /* \"Practical4-Tick-Tack-Toe-Jason.sol\":1904:2520  for(uint i = 0 ; i < winConditionSet.length; i++){... */\n      iszero\n      tag_109\n      jumpi\n        /* \"Practical4-Tick-Tack-Toe-Jason.sol\":1968:1994  uint[] memory winCondition */\n      0x00\n        /* \"Practical4-Tick-Tack-Toe-Jason.sol\":1997:2012  winConditionSet */\n      0x06\n        /* \"Practical4-Tick-Tack-Toe-Jason.sol\":2013:2014  i */\n      dup3\n        /* \"Practical4-Tick-Tack-Toe-Jason.sol\":1997:2015  winConditionSet[i] */\n      dup2\n      sload\n      dup2\n      lt\n      tag_112\n      jumpi\n      tag_112\n      tag_57\n      jump\t// in\n    tag_112:\n      swap1\n      0x00\n      mstore\n      keccak256(0x00, 0x20)\n      add\n        /* \"Practical4-Tick-Tack-Toe-Jason.sol\":1968:2015  uint[] memory winCondition = winConditionSet[i] */\n      dup1\n      sload\n      dup1\n      0x20\n      mul\n      0x20\n      add\n      mload(0x40)\n      swap1\n      dup2\n      add\n      0x40\n      mstore\n      dup1\n      swap3\n      swap2\n      swap1\n      dup2\n      dup2\n      mstore\n      0x20\n      add\n      dup3\n      dup1\n      sload\n      dup1\n      iszero\n      tag_114\n      jumpi\n      0x20\n      mul\n      dup3\n      add\n      swap2\n      swap1\n      0x00\n      mstore\n      keccak256(0x00, 0x20)\n      swap1\n    tag_115:\n      dup2\n      sload\n      dup2\n      mstore\n      0x20\n      add\n      swap1\n      0x01\n      add\n      swap1\n      dup1\n      dup4\n      gt\n      tag_115\n      jumpi\n    tag_114:\n      pop\n      pop\n      pop\n      pop\n      pop\n      swap1\n      pop\n        /* \"Practical4-Tick-Tack-Toe-Jason.sol\":2030:2051  string memory resultA */\n      0x00\n        /* \"Practical4-Tick-Tack-Toe-Jason.sol\":2053:2060  options */\n      0x03\n        /* \"Practical4-Tick-Tack-Toe-Jason.sol\":2061:2073  winCondition */\n      dup3\n        /* \"Practical4-Tick-Tack-Toe-Jason.sol\":2074:2075  0 */\n      0x00\n        /* \"Practical4-Tick-Tack-Toe-Jason.sol\":2061:2076  winCondition[0] */\n      dup2\n      mload\n      dup2\n      lt\n      tag_117\n      jumpi\n      tag_117\n      tag_57\n      jump\t// in\n    tag_117:\n      0x20\n      mul\n      0x20\n      add\n      add\n      mload\n        /* \"Practical4-Tick-Tack-Toe-Jason.sol\":2053:2077  options[winCondition[0]] */\n      dup2\n      sload\n      dup2\n      lt\n      tag_119\n      jumpi\n      tag_119\n      tag_57\n      jump\t// in\n    tag_119:\n      swap1\n      0x00\n      mstore\n      keccak256(0x00, 0x20)\n      add\n        /* \"Practical4-Tick-Tack-Toe-Jason.sol\":2030:2077  string memory resultA= options[winCondition[0]] */\n      dup1\n      sload\n      tag_121\n      swap1\n      tag_45\n      jump\t// in\n    tag_121:\n      dup1\n      0x1f\n      add\n      0x20\n      dup1\n      swap2\n      div\n      mul\n      0x20\n      add\n      mload(0x40)\n      swap1\n      dup2\n      add\n      0x40\n      mstore\n      dup1\n      swap3\n      swap2\n      swap1\n      dup2\n      dup2\n      mstore\n      0x20\n      add\n      dup3\n      dup1\n      sload\n      tag_122\n      swap1\n      tag_45\n      jump\t// in\n    tag_122:\n      dup1\n      iszero\n      tag_123\n      jumpi\n      dup1\n      0x1f\n      lt\n      tag_124\n      jumpi\n      0x0100\n      dup1\n      dup4\n      sload\n      div\n      mul\n      dup4\n      mstore\n      swap2\n      0x20\n      add\n      swap2\n      jump(tag_123)\n    tag_124:\n      dup3\n      add\n      swap2\n      swap1\n      0x00\n      mstore\n      keccak256(0x00, 0x20)\n      swap1\n    tag_125:\n      dup2\n      sload\n      dup2\n      mstore\n      swap1\n      0x01\n      add\n      swap1\n      0x20\n      add\n      dup1\n      dup4\n      gt\n      tag_125\n      jumpi\n      dup3\n      swap1\n      sub\n      0x1f\n      and\n      dup3\n      add\n      swap2\n    tag_123:\n      pop\n      pop\n      pop\n      pop\n      pop\n      swap1\n      pop\n        /* \"Practical4-Tick-Tack-Toe-Jason.sol\":2092:2113  string memory resultB */\n      0x00\n        /* \"Practical4-Tick-Tack-Toe-Jason.sol\":2115:2122  options */\n      0x03\n        /* \"Practical4-Tick-Tack-Toe-Jason.sol\":2123:2135  winCondition */\n      dup4\n        /* \"Practical4-Tick-Tack-Toe-Jason.sol\":2136:2137  1 */\n      0x01\n        /* \"Practical4-Tick-Tack-Toe-Jason.sol\":2123:2138  winCondition[1] */\n      dup2\n      mload\n      dup2\n      lt\n      tag_127\n      jumpi\n      tag_127\n      tag_57\n      jump\t// in\n    tag_127:\n      0x20\n      mul\n      0x20\n      add\n      add\n      mload\n        /* \"Practical4-Tick-Tack-Toe-Jason.sol\":2115:2139  options[winCondition[1]] */\n      dup2\n      sload\n      dup2\n      lt\n      tag_129\n      jumpi\n      tag_129\n      tag_57\n      jump\t// in\n    tag_129:\n      swap1\n      0x00\n      mstore\n      keccak256(0x00, 0x20)\n      add\n        /* \"Practical4-Tick-Tack-Toe-Jason.sol\":2092:2139  string memory resultB= options[winCondition[1]] */\n      dup1\n      sload\n      tag_131\n      swap1\n      tag_45\n      jump\t// in\n    tag_131:\n      dup1\n      0x1f\n      add\n      0x20\n      dup1\n      swap2\n      div\n      mul\n      0x20\n      add\n      mload(0x40)\n      swap1\n      dup2\n      add\n      0x40\n      mstore\n      dup1\n      swap3\n      swap2\n      swap1\n      dup2\n      dup2\n      mstore\n      0x20\n      add\n      dup3\n      dup1\n      sload\n      tag_132\n      swap1\n      tag_45\n      jump\t// in\n    tag_132:\n      dup1\n      iszero\n      tag_133\n      jumpi\n      dup1\n      0x1f\n      lt\n      tag_134\n      jumpi\n      0x0100\n      dup1\n      dup4\n      sload\n      div\n      mul\n      dup4\n      mstore\n      swap2\n      0x20\n      add\n      swap2\n      jump(tag_133)\n    tag_134:\n      dup3\n      add\n      swap2\n      swap1\n      0x00\n      mstore\n      keccak256(0x00, 0x20)\n      swap1\n    tag_135:\n      dup2\n      sload\n      dup2\n      mstore\n      swap1\n      0x01\n      add\n      swap1\n      0x20\n      add\n      dup1\n      dup4\n      gt\n      tag_135\n      jumpi\n      dup3\n      swap1\n      sub\n      0x1f\n      and\n      dup3\n      add\n      swap2\n    tag_133:\n      pop\n      pop\n      pop\n      pop\n      pop\n      swap1\n      pop\n        /* \"Practical4-Tick-Tack-Toe-Jason.sol\":2154:2175  string memory resultC */\n      0x00\n        /* \"Practical4-Tick-Tack-Toe-Jason.sol\":2177:2184  options */\n      0x03\n        /* \"Practical4-Tick-Tack-Toe-Jason.sol\":2185:2197  winCondition */\n      dup5\n        /* \"Practical4-Tick-Tack-Toe-Jason.sol\":2198:2199  2 */\n      0x02\n        /* \"Practical4-Tick-Tack-Toe-Jason.sol\":2185:2200  winCondition[2] */\n      dup2\n      mload\n      dup2\n      lt\n      tag_137\n      jumpi\n      tag_137\n      tag_57\n      jump\t// in\n    tag_137:\n      0x20\n      mul\n      0x20\n      add\n      add\n      mload\n        /* \"Practical4-Tick-Tack-Toe-Jason.sol\":2177:2201  options[winCondition[2]] */\n      dup2\n      sload\n      dup2\n      lt\n      tag_139\n      jumpi\n      tag_139\n      tag_57\n      jump\t// in\n    tag_139:\n      swap1\n      0x00\n      mstore\n      keccak256(0x00, 0x20)\n      add\n        /* \"Practical4-Tick-Tack-Toe-Jason.sol\":2154:2201  string memory resultC= options[winCondition[2]] */\n      dup1\n      sload\n      tag_141\n      swap1\n      tag_45\n      jump\t// in\n    tag_141:\n      dup1\n      0x1f\n      add\n      0x20\n      dup1\n      swap2\n      div\n      mul\n      0x20\n      add\n      mload(0x40)\n      swap1\n      dup2\n      add\n      0x40\n      mstore\n      dup1\n      swap3\n      swap2\n      swap1\n      dup2\n      dup2\n      mstore\n      0x20\n      add\n      dup3\n      dup1\n      sload\n      tag_142\n      swap1\n      tag_45\n      jump\t// in\n    tag_142:\n      dup1\n      iszero\n      tag_143\n      jumpi\n      dup1\n      0x1f\n      lt\n      tag_144\n      jumpi\n      0x0100\n      dup1\n      dup4\n      sload\n      div\n      mul\n      dup4\n      mstore\n      swap2\n      0x20\n      add\n      swap2\n      jump(tag_143)\n    tag_144:\n      dup3\n      add\n      swap2\n      swap1\n      0x00\n      mstore\n      keccak256(0x00, 0x20)\n      swap1\n    tag_145:\n      dup2\n      sload\n      dup2\n      mstore\n      swap1\n      0x01\n      add\n      swap1\n      0x20\n      add\n      dup1\n      dup4\n      gt\n      tag_145\n      jumpi\n      dup3\n      swap1\n      sub\n      0x1f\n      and\n      dup3\n      add\n      swap2\n    tag_143:\n      pop\n      pop\n      pop\n      pop\n      pop\n      swap1\n      pop\n        /* \"Practical4-Tick-Tack-Toe-Jason.sol\":2221:2248  compareStrings(resultA, \"\") */\n      tag_146\n        /* \"Practical4-Tick-Tack-Toe-Jason.sol\":2236:2243  resultA */\n      dup4\n        /* \"Practical4-Tick-Tack-Toe-Jason.sol\":2221:2248  compareStrings(resultA, \"\") */\n      mload(0x40)\n      dup1\n      0x20\n      add\n      0x40\n      mstore\n      dup1\n      0x00\n      dup2\n      mstore\n      pop\n        /* \"Practical4-Tick-Tack-Toe-Jason.sol\":2221:2235  compareStrings */\n      tag_37\n        /* \"Practical4-Tick-Tack-Toe-Jason.sol\":2221:2248  compareStrings(resultA, \"\") */\n      jump\t// in\n    tag_146:\n        /* \"Practical4-Tick-Tack-Toe-Jason.sol\":2221:2277  compareStrings(resultA, \"\")||compareStrings(resultB, \"\") */\n      dup1\n      tag_148\n      jumpi\n      pop\n        /* \"Practical4-Tick-Tack-Toe-Jason.sol\":2250:2277  compareStrings(resultB, \"\") */\n      tag_148\n        /* \"Practical4-Tick-Tack-Toe-Jason.sol\":2265:2272  resultB */\n      dup3\n        /* \"Practical4-Tick-Tack-Toe-Jason.sol\":2250:2277  compareStrings(resultB, \"\") */\n      mload(0x40)\n      dup1\n      0x20\n      add\n      0x40\n      mstore\n      dup1\n      0x00\n      dup2\n      mstore\n      pop\n        /* \"Practical4-Tick-Tack-Toe-Jason.sol\":2250:2264  compareStrings */\n      tag_37\n        /* \"Practical4-Tick-Tack-Toe-Jason.sol\":2250:2277  compareStrings(resultB, \"\") */\n      jump\t// in\n    tag_148:\n        /* \"Practical4-Tick-Tack-Toe-Jason.sol\":2221:2306  compareStrings(resultA, \"\")||compareStrings(resultB, \"\")||compareStrings(resultC, \"\") */\n      dup1\n      tag_150\n      jumpi\n      pop\n        /* \"Practical4-Tick-Tack-Toe-Jason.sol\":2279:2306  compareStrings(resultC, \"\") */\n      tag_150\n        /* \"Practical4-Tick-Tack-Toe-Jason.sol\":2294:2301  resultC */\n      dup2\n        /* \"Practical4-Tick-Tack-Toe-Jason.sol\":2279:2306  compareStrings(resultC, \"\") */\n      mload(0x40)\n      dup1\n      0x20\n      add\n      0x40\n      mstore\n      dup1\n      0x00\n      dup2\n      mstore\n      pop\n        /* \"Practical4-Tick-Tack-Toe-Jason.sol\":2279:2293  compareStrings */\n      tag_37\n        /* \"Practical4-Tick-Tack-Toe-Jason.sol\":2279:2306  compareStrings(resultC, \"\") */\n      jump\t// in\n    tag_150:\n        /* \"Practical4-Tick-Tack-Toe-Jason.sol\":2218:2350  if(compareStrings(resultA, \"\")||compareStrings(resultB, \"\")||compareStrings(resultC, \"\")){... */\n      iszero\n      tag_151\n      jumpi\n        /* \"Practical4-Tick-Tack-Toe-Jason.sol\":2326:2334  continue */\n      pop\n      pop\n      pop\n      pop\n      jump(tag_110)\n        /* \"Practical4-Tick-Tack-Toe-Jason.sol\":2218:2350  if(compareStrings(resultA, \"\")||compareStrings(resultB, \"\")||compareStrings(resultC, \"\")){... */\n    tag_151:\n        /* \"Practical4-Tick-Tack-Toe-Jason.sol\":2367:2399  compareStrings(resultA, resultB) */\n      tag_152\n        /* \"Practical4-Tick-Tack-Toe-Jason.sol\":2382:2389  resultA */\n      dup4\n        /* \"Practical4-Tick-Tack-Toe-Jason.sol\":2391:2398  resultB */\n      dup4\n        /* \"Practical4-Tick-Tack-Toe-Jason.sol\":2367:2381  compareStrings */\n      tag_37\n        /* \"Practical4-Tick-Tack-Toe-Jason.sol\":2367:2399  compareStrings(resultA, resultB) */\n      jump\t// in\n    tag_152:\n        /* \"Practical4-Tick-Tack-Toe-Jason.sol\":2367:2435  compareStrings(resultA, resultB) && compareStrings(resultB, resultC) */\n      dup1\n      iszero\n      tag_154\n      jumpi\n      pop\n        /* \"Practical4-Tick-Tack-Toe-Jason.sol\":2403:2435  compareStrings(resultB, resultC) */\n      tag_154\n        /* \"Practical4-Tick-Tack-Toe-Jason.sol\":2418:2425  resultB */\n      dup3\n        /* \"Practical4-Tick-Tack-Toe-Jason.sol\":2427:2434  resultC */\n      dup3\n        /* \"Practical4-Tick-Tack-Toe-Jason.sol\":2403:2417  compareStrings */\n      tag_37\n        /* \"Practical4-Tick-Tack-Toe-Jason.sol\":2403:2435  compareStrings(resultB, resultC) */\n      jump\t// in\n    tag_154:\n        /* \"Practical4-Tick-Tack-Toe-Jason.sol\":2364:2509  if(compareStrings(resultA, resultB) && compareStrings(resultB, resultC)){... */\n      iszero\n      tag_155\n      jumpi\n        /* \"Practical4-Tick-Tack-Toe-Jason.sol\":2465:2469  true */\n      0x01\n        /* \"Practical4-Tick-Tack-Toe-Jason.sol\":2455:2469  userWon = true */\n      swap6\n      pop\n        /* \"Practical4-Tick-Tack-Toe-Jason.sol\":2488:2493  break */\n      pop\n      pop\n      pop\n      pop\n      jump(tag_109)\n        /* \"Practical4-Tick-Tack-Toe-Jason.sol\":2364:2509  if(compareStrings(resultA, resultB) && compareStrings(resultB, resultC)){... */\n    tag_155:\n        /* \"Practical4-Tick-Tack-Toe-Jason.sol\":1953:2520  {... */\n      pop\n      pop\n      pop\n      pop\n        /* \"Practical4-Tick-Tack-Toe-Jason.sol\":1904:2520  for(uint i = 0 ; i < winConditionSet.length; i++){... */\n    tag_110:\n        /* \"Practical4-Tick-Tack-Toe-Jason.sol\":1949:1952  i++ */\n      dup1\n      tag_156\n      dup2\n      tag_95\n      jump\t// in\n    tag_156:\n      swap2\n      pop\n      pop\n        /* \"Practical4-Tick-Tack-Toe-Jason.sol\":1904:2520  for(uint i = 0 ; i < winConditionSet.length; i++){... */\n      jump(tag_108)\n    tag_109:\n      pop\n        /* \"Practical4-Tick-Tack-Toe-Jason.sol\":2535:2542  userWon */\n      dup1\n        /* \"Practical4-Tick-Tack-Toe-Jason.sol\":2532:2964  if(userWon){... */\n      iszero\n      tag_157\n      jumpi\n        /* \"Practical4-Tick-Tack-Toe-Jason.sol\":2591:2616  showResult(currentPlayer) */\n      0xcde5c32c0a45fd8aa4b65ea8003fc9da9acd5e2c6c24a9fcce6ab79cabbd9122\n        /* \"Practical4-Tick-Tack-Toe-Jason.sol\":2602:2615  currentPlayer */\n      0x05\n        /* \"Practical4-Tick-Tack-Toe-Jason.sol\":2591:2616  showResult(currentPlayer) */\n      mload(0x40)\n      tag_158\n      swap2\n      swap1\n      tag_159\n      jump\t// in\n    tag_158:\n      mload(0x40)\n      dup1\n      swap2\n      sub\n      swap1\n      log1\n        /* \"Practical4-Tick-Tack-Toe-Jason.sol\":2631:2639  activate */\n      0x04\n        /* \"Practical4-Tick-Tack-Toe-Jason.sol\":2631:2647  activate = false */\n      dup1\n      sload\n      not(0xff)\n      and\n      swap1\n      sstore\n        /* \"Practical4-Tick-Tack-Toe-Jason.sol\":1579:1822  function userInput(uint input) external {... */\n      pop\n      jump\t// out\n        /* \"Practical4-Tick-Tack-Toe-Jason.sol\":2532:2964  if(userWon){... */\n    tag_157:\n        /* \"Practical4-Tick-Tack-Toe-Jason.sol\":2668:2682  checkOptions() */\n      tag_161\n        /* \"Practical4-Tick-Tack-Toe-Jason.sol\":2668:2680  checkOptions */\n      tag_162\n        /* \"Practical4-Tick-Tack-Toe-Jason.sol\":2668:2682  checkOptions() */\n      jump\t// in\n    tag_161:\n        /* \"Practical4-Tick-Tack-Toe-Jason.sol\":2665:2964  if(checkOptions()){... */\n      iszero\n      tag_163\n      jumpi\n        /* \"Practical4-Tick-Tack-Toe-Jason.sol\":2703:2721  showResult(\"Draw\") */\n      0xcde5c32c0a45fd8aa4b65ea8003fc9da9acd5e2c6c24a9fcce6ab79cabbd9122\n      mload(0x40)\n      tag_164\n      swap1\n        /* \"#utility.yul\":11432:11434   */\n      0x20\n        /* \"#utility.yul\":11414:11435   */\n      dup1\n      dup3\n      mstore\n        /* \"#utility.yul\":11471:11472   */\n      0x04\n        /* \"#utility.yul\":11451:11469   */\n      swap1\n      dup3\n      add\n        /* \"#utility.yul\":11444:11473   */\n      mstore\n      shl(0xe0, 0x44726177)\n        /* \"#utility.yul\":11504:11506   */\n      0x40\n        /* \"#utility.yul\":11489:11507   */\n      dup3\n      add\n        /* \"#utility.yul\":11482:11516   */\n      mstore\n        /* \"#utility.yul\":11548:11550   */\n      0x60\n        /* \"#utility.yul\":11533:11551   */\n      add\n      swap1\n        /* \"#utility.yul\":11230:11557   */\n      jump\n        /* \"Practical4-Tick-Tack-Toe-Jason.sol\":2703:2721  showResult(\"Draw\") */\n    tag_164:\n      mload(0x40)\n      dup1\n      swap2\n      sub\n      swap1\n      log1\n        /* \"Practical4-Tick-Tack-Toe-Jason.sol\":1579:1822  function userInput(uint input) external {... */\n      pop\n      jump\t// out\n        /* \"Practical4-Tick-Tack-Toe-Jason.sol\":2665:2964  if(checkOptions()){... */\n    tag_163:\n        /* \"Practical4-Tick-Tack-Toe-Jason.sol\":2757:2791  compareStrings(currentPlayer, \"X\") */\n      tag_167\n        /* \"Practical4-Tick-Tack-Toe-Jason.sol\":2772:2785  currentPlayer */\n      0x05\n        /* \"Practical4-Tick-Tack-Toe-Jason.sol\":2757:2791  compareStrings(currentPlayer, \"X\") */\n      dup1\n      sload\n      tag_168\n      swap1\n      tag_45\n      jump\t// in\n    tag_168:\n      dup1\n      0x1f\n      add\n      0x20\n      dup1\n      swap2\n      div\n      mul\n      0x20\n      add\n      mload(0x40)\n      swap1\n      dup2\n      add\n      0x40\n      mstore\n      dup1\n      swap3\n      swap2\n      swap1\n      dup2\n      dup2\n      mstore\n      0x20\n      add\n      dup3\n      dup1\n      sload\n      tag_169\n      swap1\n      tag_45\n      jump\t// in\n    tag_169:\n      dup1\n      iszero\n      tag_170\n      jumpi\n      dup1\n      0x1f\n      lt\n      tag_171\n      jumpi\n      0x0100\n      dup1\n      dup4\n      sload\n      div\n      mul\n      dup4\n      mstore\n      swap2\n      0x20\n      add\n      swap2\n      jump(tag_170)\n    tag_171:\n      dup3\n      add\n      swap2\n      swap1\n      0x00\n      mstore\n      keccak256(0x00, 0x20)\n      swap1\n    tag_172:\n      dup2\n      sload\n      dup2\n      mstore\n      swap1\n      0x01\n      add\n      swap1\n      0x20\n      add\n      dup1\n      dup4\n      gt\n      tag_172\n      jumpi\n      dup3\n      swap1\n      sub\n      0x1f\n      and\n      dup3\n      add\n      swap2\n    tag_170:\n      pop\n      pop\n      pop\n      pop\n      pop\n      mload(0x40)\n      dup1\n      0x40\n      add\n      0x40\n      mstore\n      dup1\n      0x01\n      dup2\n      mstore\n      0x20\n      add\n      shl(0xfb, 0x0b)\n      dup2\n      mstore\n      pop\n        /* \"Practical4-Tick-Tack-Toe-Jason.sol\":2757:2771  compareStrings */\n      tag_37\n        /* \"Practical4-Tick-Tack-Toe-Jason.sol\":2757:2791  compareStrings(currentPlayer, \"X\") */\n      jump\t// in\n    tag_167:\n        /* \"Practical4-Tick-Tack-Toe-Jason.sol\":2754:2924  if(compareStrings(currentPlayer, \"X\")){... */\n      iszero\n      tag_173\n      jumpi\n        /* \"Practical4-Tick-Tack-Toe-Jason.sol\":2825:2839  player2address */\n      sload(0x01)\n        /* \"Practical4-Tick-Tack-Toe-Jason.sol\":2816:2840  nextUser(player2address) */\n      mload(0x40)\n      sub(shl(0xa0, 0x01), 0x01)\n        /* \"Practical4-Tick-Tack-Toe-Jason.sol\":2825:2839  player2address */\n      swap1\n      swap2\n      and\n        /* \"#utility.yul\":1101:1152   */\n      dup2\n      mstore\n        /* \"Practical4-Tick-Tack-Toe-Jason.sol\":2816:2840  nextUser(player2address) */\n      0xec121debab367dc6fc2da219ef2d5cf4e97e648e71f3a199511cf3b4d7d59304\n      swap1\n        /* \"#utility.yul\":1089:1091   */\n      0x20\n        /* \"#utility.yul\":1074:1092   */\n      add\n        /* \"Practical4-Tick-Tack-Toe-Jason.sol\":2816:2840  nextUser(player2address) */\n      mload(0x40)\n      dup1\n      swap2\n      sub\n      swap1\n      log1\n        /* \"Practical4-Tick-Tack-Toe-Jason.sol\":2754:2924  if(compareStrings(currentPlayer, \"X\")){... */\n      jump(tag_175)\n    tag_173:\n        /* \"Practical4-Tick-Tack-Toe-Jason.sol\":2893:2907  player1address */\n      sload(0x00)\n        /* \"Practical4-Tick-Tack-Toe-Jason.sol\":2884:2908  nextUser(player1address) */\n      mload(0x40)\n      sub(shl(0xa0, 0x01), 0x01)\n        /* \"Practical4-Tick-Tack-Toe-Jason.sol\":2893:2907  player1address */\n      swap1\n      swap2\n      and\n        /* \"#utility.yul\":1101:1152   */\n      dup2\n      mstore\n        /* \"Practical4-Tick-Tack-Toe-Jason.sol\":2884:2908  nextUser(player1address) */\n      0xec121debab367dc6fc2da219ef2d5cf4e97e648e71f3a199511cf3b4d7d59304\n      swap1\n        /* \"#utility.yul\":1089:1091   */\n      0x20\n        /* \"#utility.yul\":1074:1092   */\n      add\n        /* \"Practical4-Tick-Tack-Toe-Jason.sol\":2884:2908  nextUser(player1address) */\n      mload(0x40)\n      dup1\n      swap2\n      sub\n      swap1\n      log1\n        /* \"Practical4-Tick-Tack-Toe-Jason.sol\":2754:2924  if(compareStrings(currentPlayer, \"X\")){... */\n    tag_175:\n        /* \"Practical4-Tick-Tack-Toe-Jason.sol\":2938:2952  changePlayer() */\n      tag_72\n        /* \"Practical4-Tick-Tack-Toe-Jason.sol\":2938:2950  changePlayer */\n      tag_178\n        /* \"Practical4-Tick-Tack-Toe-Jason.sol\":2938:2952  changePlayer() */\n      jump\t// in\n        /* \"Practical4-Tick-Tack-Toe-Jason.sol\":3141:3381  function checkOptions() private view returns (bool) {... */\n    tag_162:\n        /* \"Practical4-Tick-Tack-Toe-Jason.sol\":3187:3191  bool */\n      0x00\n      dup1\n        /* \"Practical4-Tick-Tack-Toe-Jason.sol\":3204:3352  for(uint i = 0 ; i < options.length; i++){... */\n    tag_180:\n        /* \"Practical4-Tick-Tack-Toe-Jason.sol\":3225:3232  options */\n      0x03\n        /* \"Practical4-Tick-Tack-Toe-Jason.sol\":3225:3239  options.length */\n      sload\n        /* \"Practical4-Tick-Tack-Toe-Jason.sol\":3221:3239  i < options.length */\n      dup2\n      lt\n        /* \"Practical4-Tick-Tack-Toe-Jason.sol\":3204:3352  for(uint i = 0 ; i < options.length; i++){... */\n      iszero\n      tag_181\n      jumpi\n        /* \"Practical4-Tick-Tack-Toe-Jason.sol\":3263:3293  compareStrings(options[i], \"\") */\n      tag_183\n        /* \"Practical4-Tick-Tack-Toe-Jason.sol\":3278:3285  options */\n      0x03\n        /* \"Practical4-Tick-Tack-Toe-Jason.sol\":3286:3287  i */\n      dup3\n        /* \"Practical4-Tick-Tack-Toe-Jason.sol\":3278:3288  options[i] */\n      dup2\n      sload\n      dup2\n      lt\n      tag_56\n      jumpi\n      tag_56\n      tag_57\n      jump\t// in\n        /* \"Practical4-Tick-Tack-Toe-Jason.sol\":3263:3293  compareStrings(options[i], \"\") */\n    tag_183:\n        /* \"Practical4-Tick-Tack-Toe-Jason.sol\":3260:3341  if(compareStrings(options[i], \"\")){... */\n      iszero\n      tag_192\n      jumpi\n        /* \"Practical4-Tick-Tack-Toe-Jason.sol\":3320:3325  false */\n      0x00\n        /* \"Practical4-Tick-Tack-Toe-Jason.sol\":3313:3325  return false */\n      swap2\n      pop\n      pop\n        /* \"Practical4-Tick-Tack-Toe-Jason.sol\":3141:3381  function checkOptions() private view returns (bool) {... */\n      swap1\n      jump\t// out\n        /* \"Practical4-Tick-Tack-Toe-Jason.sol\":3260:3341  if(compareStrings(options[i], \"\")){... */\n    tag_192:\n        /* \"Practical4-Tick-Tack-Toe-Jason.sol\":3241:3244  i++ */\n      dup1\n      tag_193\n      dup2\n      tag_95\n      jump\t// in\n    tag_193:\n      swap2\n      pop\n      pop\n        /* \"Practical4-Tick-Tack-Toe-Jason.sol\":3204:3352  for(uint i = 0 ; i < options.length; i++){... */\n      jump(tag_180)\n    tag_181:\n      pop\n        /* \"Practical4-Tick-Tack-Toe-Jason.sol\":3369:3373  true */\n      0x01\n        /* \"Practical4-Tick-Tack-Toe-Jason.sol\":3362:3373  return true */\n      swap1\n      pop\n        /* \"Practical4-Tick-Tack-Toe-Jason.sol\":3141:3381  function checkOptions() private view returns (bool) {... */\n      swap1\n      jump\t// out\n        /* \"Practical4-Tick-Tack-Toe-Jason.sol\":2979:3133  function changePlayer() private {... */\n    tag_178:\n        /* \"Practical4-Tick-Tack-Toe-Jason.sol\":3078:3112  compareStrings(currentPlayer, \"X\") */\n      tag_195\n        /* \"Practical4-Tick-Tack-Toe-Jason.sol\":3093:3106  currentPlayer */\n      0x05\n        /* \"Practical4-Tick-Tack-Toe-Jason.sol\":3078:3112  compareStrings(currentPlayer, \"X\") */\n      dup1\n      sload\n      tag_168\n      swap1\n      tag_45\n      jump\t// in\n    tag_195:\n        /* \"Practical4-Tick-Tack-Toe-Jason.sol\":3077:3125  (compareStrings(currentPlayer, \"X\")) ? \"O\" : \"X\" */\n      tag_201\n      jumpi\n      mload(0x40)\n      dup1\n      0x40\n      add\n      0x40\n      mstore\n      dup1\n      0x01\n      dup2\n      mstore\n      0x20\n      add\n      shl(0xfb, 0x0b)\n      dup2\n      mstore\n      pop\n      jump(tag_202)\n    tag_201:\n      mload(0x40)\n      dup1\n      0x40\n      add\n      0x40\n      mstore\n      dup1\n      0x01\n      dup2\n      mstore\n      0x20\n      add\n      shl(0xf8, 0x4f)\n      dup2\n      mstore\n      pop\n    tag_202:\n        /* \"Practical4-Tick-Tack-Toe-Jason.sol\":3061:3074  currentPlayer */\n      0x05\n      swap1\n        /* \"Practical4-Tick-Tack-Toe-Jason.sol\":3061:3125  currentPlayer = (compareStrings(currentPlayer, \"X\")) ? \"O\" : \"X\" */\n      tag_72\n      swap1\n        /* \"Practical4-Tick-Tack-Toe-Jason.sol\":3061:3074  currentPlayer */\n      dup3\n        /* \"Practical4-Tick-Tack-Toe-Jason.sol\":3061:3125  currentPlayer = (compareStrings(currentPlayer, \"X\")) ? \"O\" : \"X\" */\n      tag_85\n      jump\t// in\n    tag_87:\n      dup3\n      dup1\n      sload\n      dup3\n      dup3\n      sstore\n      swap1\n      0x00\n      mstore\n      keccak256(0x00, 0x20)\n      swap1\n      dup2\n      add\n      swap3\n      dup3\n      iszero\n      tag_206\n      jumpi\n      swap2\n      0x20\n      mul\n      dup3\n      add\n    tag_205:\n      dup3\n      dup2\n      gt\n      iszero\n      tag_206\n      jumpi\n      dup3\n      mload\n      dup3\n      swap1\n      tag_207\n      swap1\n      dup3\n      tag_85\n      jump\t// in\n    tag_207:\n      pop\n      swap2\n      0x20\n      add\n      swap2\n      swap1\n      0x01\n      add\n      swap1\n      jump(tag_205)\n    tag_206:\n      pop\n      tag_208\n      swap3\n      swap2\n      pop\n      tag_209\n      jump\t// in\n    tag_208:\n      pop\n      swap1\n      jump\t// out\n    tag_209:\n      dup1\n      dup3\n      gt\n      iszero\n      tag_208\n      jumpi\n      0x00\n      tag_212\n      dup3\n      dup3\n      tag_213\n      jump\t// in\n    tag_212:\n      pop\n      0x01\n      add\n      jump(tag_209)\n    tag_213:\n      pop\n      dup1\n      sload\n      tag_214\n      swap1\n      tag_45\n      jump\t// in\n    tag_214:\n      0x00\n      dup3\n      sstore\n      dup1\n      0x1f\n      lt\n      tag_216\n      jumpi\n      pop\n      pop\n      jump\t// out\n    tag_216:\n      0x1f\n      add\n      0x20\n      swap1\n      div\n      swap1\n      0x00\n      mstore\n      keccak256(0x00, 0x20)\n      swap1\n      dup2\n      add\n      swap1\n      tag_72\n      swap2\n      swap1\n    tag_219:\n      dup1\n      dup3\n      gt\n      iszero\n      tag_208\n      jumpi\n      0x00\n      dup2\n      sstore\n      0x01\n      add\n      jump(tag_219)\n        /* \"#utility.yul\":14:194   */\n    tag_14:\n        /* \"#utility.yul\":73:79   */\n      0x00\n        /* \"#utility.yul\":126:128   */\n      0x20\n        /* \"#utility.yul\":114:123   */\n      dup3\n        /* \"#utility.yul\":105:112   */\n      dup5\n        /* \"#utility.yul\":101:124   */\n      sub\n        /* \"#utility.yul\":97:129   */\n      slt\n        /* \"#utility.yul\":94:146   */\n      iszero\n      tag_230\n      jumpi\n        /* \"#utility.yul\":142:143   */\n      0x00\n        /* \"#utility.yul\":139:140   */\n      dup1\n        /* \"#utility.yul\":132:144   */\n      revert\n        /* \"#utility.yul\":94:146   */\n    tag_230:\n      pop\n        /* \"#utility.yul\":165:188   */\n      calldataload\n      swap2\n        /* \"#utility.yul\":14:194   */\n      swap1\n      pop\n      jump\t// out\n        /* \"#utility.yul\":199:449   */\n    tag_221:\n        /* \"#utility.yul\":284:285   */\n      0x00\n        /* \"#utility.yul\":294:407   */\n    tag_232:\n        /* \"#utility.yul\":308:314   */\n      dup4\n        /* \"#utility.yul\":305:306   */\n      dup2\n        /* \"#utility.yul\":302:315   */\n      lt\n        /* \"#utility.yul\":294:407   */\n      iszero\n      tag_234\n      jumpi\n        /* \"#utility.yul\":384:395   */\n      dup2\n      dup2\n      add\n        /* \"#utility.yul\":378:396   */\n      mload\n        /* \"#utility.yul\":365:376   */\n      dup4\n      dup3\n      add\n        /* \"#utility.yul\":358:397   */\n      mstore\n        /* \"#utility.yul\":330:332   */\n      0x20\n        /* \"#utility.yul\":323:333   */\n      add\n        /* \"#utility.yul\":294:407   */\n      jump(tag_232)\n    tag_234:\n      pop\n      pop\n        /* \"#utility.yul\":441:442   */\n      0x00\n        /* \"#utility.yul\":423:439   */\n      swap2\n      add\n        /* \"#utility.yul\":416:443   */\n      mstore\n        /* \"#utility.yul\":199:449   */\n      jump\t// out\n        /* \"#utility.yul\":454:725   */\n    tag_222:\n        /* \"#utility.yul\":496:499   */\n      0x00\n        /* \"#utility.yul\":534:539   */\n      dup2\n        /* \"#utility.yul\":528:540   */\n      mload\n        /* \"#utility.yul\":561:567   */\n      dup1\n        /* \"#utility.yul\":556:559   */\n      dup5\n        /* \"#utility.yul\":549:568   */\n      mstore\n        /* \"#utility.yul\":577:653   */\n      tag_236\n        /* \"#utility.yul\":646:652   */\n      dup2\n        /* \"#utility.yul\":639:643   */\n      0x20\n        /* \"#utility.yul\":634:637   */\n      dup7\n        /* \"#utility.yul\":630:644   */\n      add\n        /* \"#utility.yul\":623:627   */\n      0x20\n        /* \"#utility.yul\":616:621   */\n      dup7\n        /* \"#utility.yul\":612:628   */\n      add\n        /* \"#utility.yul\":577:653   */\n      tag_221\n      jump\t// in\n    tag_236:\n        /* \"#utility.yul\":707:709   */\n      0x1f\n        /* \"#utility.yul\":686:701   */\n      add\n      not(0x1f)\n        /* \"#utility.yul\":682:711   */\n      and\n        /* \"#utility.yul\":673:712   */\n      swap3\n      swap1\n      swap3\n      add\n        /* \"#utility.yul\":714:718   */\n      0x20\n        /* \"#utility.yul\":669:719   */\n      add\n      swap3\n        /* \"#utility.yul\":454:725   */\n      swap2\n      pop\n      pop\n      jump\t// out\n        /* \"#utility.yul\":730:950   */\n    tag_17:\n        /* \"#utility.yul\":879:881   */\n      0x20\n        /* \"#utility.yul\":868:877   */\n      dup2\n        /* \"#utility.yul\":861:882   */\n      mstore\n        /* \"#utility.yul\":842:846   */\n      0x00\n        /* \"#utility.yul\":899:944   */\n      tag_238\n        /* \"#utility.yul\":940:942   */\n      0x20\n        /* \"#utility.yul\":929:938   */\n      dup4\n        /* \"#utility.yul\":925:943   */\n      add\n        /* \"#utility.yul\":917:923   */\n      dup5\n        /* \"#utility.yul\":899:944   */\n      tag_222\n      jump\t// in\n    tag_238:\n        /* \"#utility.yul\":891:944   */\n      swap4\n        /* \"#utility.yul\":730:950   */\n      swap3\n      pop\n      pop\n      pop\n      jump\t// out\n        /* \"#utility.yul\":1163:1966   */\n    tag_28:\n        /* \"#utility.yul\":1325:1329   */\n      0x00\n        /* \"#utility.yul\":1354:1356   */\n      0x20\n        /* \"#utility.yul\":1394:1396   */\n      dup1\n        /* \"#utility.yul\":1383:1392   */\n      dup4\n        /* \"#utility.yul\":1379:1397   */\n      add\n        /* \"#utility.yul\":1424:1426   */\n      dup2\n        /* \"#utility.yul\":1413:1422   */\n      dup5\n        /* \"#utility.yul\":1406:1427   */\n      mstore\n        /* \"#utility.yul\":1447:1453   */\n      dup1\n        /* \"#utility.yul\":1482:1488   */\n      dup6\n        /* \"#utility.yul\":1476:1489   */\n      mload\n        /* \"#utility.yul\":1513:1519   */\n      dup1\n        /* \"#utility.yul\":1505:1511   */\n      dup4\n        /* \"#utility.yul\":1498:1520   */\n      mstore\n        /* \"#utility.yul\":1551:1553   */\n      0x40\n        /* \"#utility.yul\":1540:1549   */\n      dup7\n        /* \"#utility.yul\":1536:1554   */\n      add\n        /* \"#utility.yul\":1529:1554   */\n      swap2\n      pop\n        /* \"#utility.yul\":1613:1615   */\n      0x40\n        /* \"#utility.yul\":1603:1609   */\n      dup2\n        /* \"#utility.yul\":1600:1601   */\n      0x05\n        /* \"#utility.yul\":1596:1610   */\n      shl\n        /* \"#utility.yul\":1585:1594   */\n      dup8\n        /* \"#utility.yul\":1581:1611   */\n      add\n        /* \"#utility.yul\":1577:1616   */\n      add\n        /* \"#utility.yul\":1563:1616   */\n      swap3\n      pop\n        /* \"#utility.yul\":1651:1653   */\n      dup4\n        /* \"#utility.yul\":1643:1649   */\n      dup8\n        /* \"#utility.yul\":1639:1654   */\n      add\n        /* \"#utility.yul\":1672:1673   */\n      0x00\n        /* \"#utility.yul\":1682:1937   */\n    tag_241:\n        /* \"#utility.yul\":1696:1702   */\n      dup3\n        /* \"#utility.yul\":1693:1694   */\n      dup2\n        /* \"#utility.yul\":1690:1703   */\n      lt\n        /* \"#utility.yul\":1682:1937   */\n      iszero\n      tag_243\n      jumpi\n        /* \"#utility.yul\":1789:1791   */\n      0x3f\n        /* \"#utility.yul\":1785:1792   */\n      not\n        /* \"#utility.yul\":1773:1782   */\n      dup9\n        /* \"#utility.yul\":1765:1771   */\n      dup7\n        /* \"#utility.yul\":1761:1783   */\n      sub\n        /* \"#utility.yul\":1757:1793   */\n      add\n        /* \"#utility.yul\":1752:1755   */\n      dup5\n        /* \"#utility.yul\":1745:1794   */\n      mstore\n        /* \"#utility.yul\":1817:1857   */\n      tag_244\n        /* \"#utility.yul\":1850:1856   */\n      dup6\n        /* \"#utility.yul\":1841:1847   */\n      dup4\n        /* \"#utility.yul\":1835:1848   */\n      mload\n        /* \"#utility.yul\":1817:1857   */\n      tag_222\n      jump\t// in\n    tag_244:\n        /* \"#utility.yul\":1807:1857   */\n      swap5\n      pop\n        /* \"#utility.yul\":1915:1927   */\n      swap3\n      dup6\n      add\n      swap3\n        /* \"#utility.yul\":1880:1895   */\n      swap1\n      dup6\n      add\n      swap1\n        /* \"#utility.yul\":1718:1719   */\n      0x01\n        /* \"#utility.yul\":1711:1720   */\n      add\n        /* \"#utility.yul\":1682:1937   */\n      jump(tag_241)\n    tag_243:\n      pop\n        /* \"#utility.yul\":1954:1960   */\n      swap3\n      swap8\n        /* \"#utility.yul\":1163:1966   */\n      swap7\n      pop\n      pop\n      pop\n      pop\n      pop\n      pop\n      pop\n      jump\t// out\n        /* \"#utility.yul\":1971:2098   */\n    tag_223:\n        /* \"#utility.yul\":2032:2042   */\n      0x4e487b71\n        /* \"#utility.yul\":2027:2030   */\n      0xe0\n        /* \"#utility.yul\":2023:2043   */\n      shl\n        /* \"#utility.yul\":2020:2021   */\n      0x00\n        /* \"#utility.yul\":2013:2044   */\n      mstore\n        /* \"#utility.yul\":2063:2067   */\n      0x41\n        /* \"#utility.yul\":2060:2061   */\n      0x04\n        /* \"#utility.yul\":2053:2068   */\n      mstore\n        /* \"#utility.yul\":2087:2091   */\n      0x24\n        /* \"#utility.yul\":2084:2085   */\n      0x00\n        /* \"#utility.yul\":2077:2092   */\n      revert\n        /* \"#utility.yul\":2103:2822   */\n    tag_224:\n        /* \"#utility.yul\":2146:2151   */\n      0x00\n        /* \"#utility.yul\":2199:2202   */\n      dup3\n        /* \"#utility.yul\":2192:2196   */\n      0x1f\n        /* \"#utility.yul\":2184:2190   */\n      dup4\n        /* \"#utility.yul\":2180:2197   */\n      add\n        /* \"#utility.yul\":2176:2203   */\n      slt\n        /* \"#utility.yul\":2166:2221   */\n      tag_247\n      jumpi\n        /* \"#utility.yul\":2217:2218   */\n      0x00\n        /* \"#utility.yul\":2214:2215   */\n      dup1\n        /* \"#utility.yul\":2207:2219   */\n      revert\n        /* \"#utility.yul\":2166:2221   */\n    tag_247:\n        /* \"#utility.yul\":2253:2259   */\n      dup2\n        /* \"#utility.yul\":2240:2260   */\n      calldataload\n        /* \"#utility.yul\":2279:2297   */\n      0xffffffffffffffff\n        /* \"#utility.yul\":2316:2318   */\n      dup1\n        /* \"#utility.yul\":2312:2314   */\n      dup3\n        /* \"#utility.yul\":2309:2319   */\n      gt\n        /* \"#utility.yul\":2306:2342   */\n      iszero\n      tag_249\n      jumpi\n        /* \"#utility.yul\":2322:2340   */\n      tag_249\n      tag_223\n      jump\t// in\n    tag_249:\n        /* \"#utility.yul\":2397:2399   */\n      0x40\n        /* \"#utility.yul\":2391:2400   */\n      mload\n        /* \"#utility.yul\":2365:2367   */\n      0x1f\n        /* \"#utility.yul\":2451:2464   */\n      dup4\n      add\n      not(0x1f)\n        /* \"#utility.yul\":2447:2469   */\n      swap1\n      dup2\n      and\n        /* \"#utility.yul\":2471:2473   */\n      0x3f\n        /* \"#utility.yul\":2443:2474   */\n      add\n        /* \"#utility.yul\":2439:2479   */\n      and\n        /* \"#utility.yul\":2427:2480   */\n      dup2\n      add\n      swap1\n        /* \"#utility.yul\":2495:2513   */\n      dup3\n      dup3\n      gt\n        /* \"#utility.yul\":2515:2537   */\n      dup2\n      dup4\n      lt\n        /* \"#utility.yul\":2492:2538   */\n      or\n        /* \"#utility.yul\":2489:2561   */\n      iszero\n      tag_251\n      jumpi\n        /* \"#utility.yul\":2541:2559   */\n      tag_251\n      tag_223\n      jump\t// in\n    tag_251:\n        /* \"#utility.yul\":2581:2591   */\n      dup2\n        /* \"#utility.yul\":2577:2579   */\n      0x40\n        /* \"#utility.yul\":2570:2592   */\n      mstore\n        /* \"#utility.yul\":2616:2618   */\n      dup4\n        /* \"#utility.yul\":2608:2614   */\n      dup2\n        /* \"#utility.yul\":2601:2619   */\n      mstore\n        /* \"#utility.yul\":2662:2665   */\n      dup7\n        /* \"#utility.yul\":2655:2659   */\n      0x20\n        /* \"#utility.yul\":2650:2652   */\n      dup6\n        /* \"#utility.yul\":2642:2648   */\n      dup9\n        /* \"#utility.yul\":2638:2653   */\n      add\n        /* \"#utility.yul\":2634:2660   */\n      add\n        /* \"#utility.yul\":2631:2666   */\n      gt\n        /* \"#utility.yul\":2628:2683   */\n      iszero\n      tag_252\n      jumpi\n        /* \"#utility.yul\":2679:2680   */\n      0x00\n        /* \"#utility.yul\":2676:2677   */\n      dup1\n        /* \"#utility.yul\":2669:2681   */\n      revert\n        /* \"#utility.yul\":2628:2683   */\n    tag_252:\n        /* \"#utility.yul\":2743:2745   */\n      dup4\n        /* \"#utility.yul\":2736:2740   */\n      0x20\n        /* \"#utility.yul\":2728:2734   */\n      dup8\n        /* \"#utility.yul\":2724:2741   */\n      add\n        /* \"#utility.yul\":2717:2721   */\n      0x20\n        /* \"#utility.yul\":2709:2715   */\n      dup4\n        /* \"#utility.yul\":2705:2722   */\n      add\n        /* \"#utility.yul\":2692:2746   */\n      calldatacopy\n        /* \"#utility.yul\":2790:2791   */\n      0x00\n        /* \"#utility.yul\":2783:2787   */\n      0x20\n        /* \"#utility.yul\":2778:2780   */\n      dup6\n        /* \"#utility.yul\":2770:2776   */\n      dup4\n        /* \"#utility.yul\":2766:2781   */\n      add\n        /* \"#utility.yul\":2762:2788   */\n      add\n        /* \"#utility.yul\":2755:2792   */\n      mstore\n        /* \"#utility.yul\":2810:2816   */\n      dup1\n        /* \"#utility.yul\":2801:2816   */\n      swap5\n      pop\n      pop\n      pop\n      pop\n      pop\n        /* \"#utility.yul\":2103:2822   */\n      swap3\n      swap2\n      pop\n      pop\n      jump\t// out\n        /* \"#utility.yul\":2827:3370   */\n    tag_36:\n        /* \"#utility.yul\":2915:2921   */\n      0x00\n        /* \"#utility.yul\":2923:2929   */\n      dup1\n        /* \"#utility.yul\":2976:2978   */\n      0x40\n        /* \"#utility.yul\":2964:2973   */\n      dup4\n        /* \"#utility.yul\":2955:2962   */\n      dup6\n        /* \"#utility.yul\":2951:2974   */\n      sub\n        /* \"#utility.yul\":2947:2979   */\n      slt\n        /* \"#utility.yul\":2944:2996   */\n      iszero\n      tag_254\n      jumpi\n        /* \"#utility.yul\":2992:2993   */\n      0x00\n        /* \"#utility.yul\":2989:2990   */\n      dup1\n        /* \"#utility.yul\":2982:2994   */\n      revert\n        /* \"#utility.yul\":2944:2996   */\n    tag_254:\n        /* \"#utility.yul\":3032:3041   */\n      dup3\n        /* \"#utility.yul\":3019:3042   */\n      calldataload\n        /* \"#utility.yul\":3061:3079   */\n      0xffffffffffffffff\n        /* \"#utility.yul\":3102:3104   */\n      dup1\n        /* \"#utility.yul\":3094:3100   */\n      dup3\n        /* \"#utility.yul\":3091:3105   */\n      gt\n        /* \"#utility.yul\":3088:3122   */\n      iszero\n      tag_255\n      jumpi\n        /* \"#utility.yul\":3118:3119   */\n      0x00\n        /* \"#utility.yul\":3115:3116   */\n      dup1\n        /* \"#utility.yul\":3108:3120   */\n      revert\n        /* \"#utility.yul\":3088:3122   */\n    tag_255:\n        /* \"#utility.yul\":3141:3191   */\n      tag_256\n        /* \"#utility.yul\":3183:3190   */\n      dup7\n        /* \"#utility.yul\":3174:3180   */\n      dup4\n        /* \"#utility.yul\":3163:3172   */\n      dup8\n        /* \"#utility.yul\":3159:3181   */\n      add\n        /* \"#utility.yul\":3141:3191   */\n      tag_224\n      jump\t// in\n    tag_256:\n        /* \"#utility.yul\":3131:3191   */\n      swap4\n      pop\n        /* \"#utility.yul\":3244:3246   */\n      0x20\n        /* \"#utility.yul\":3233:3242   */\n      dup6\n        /* \"#utility.yul\":3229:3247   */\n      add\n        /* \"#utility.yul\":3216:3248   */\n      calldataload\n        /* \"#utility.yul\":3200:3248   */\n      swap2\n      pop\n        /* \"#utility.yul\":3273:3275   */\n      dup1\n        /* \"#utility.yul\":3263:3271   */\n      dup3\n        /* \"#utility.yul\":3260:3276   */\n      gt\n        /* \"#utility.yul\":3257:3293   */\n      iszero\n      tag_257\n      jumpi\n        /* \"#utility.yul\":3289:3290   */\n      0x00\n        /* \"#utility.yul\":3286:3287   */\n      dup1\n        /* \"#utility.yul\":3279:3291   */\n      revert\n        /* \"#utility.yul\":3257:3293   */\n    tag_257:\n      pop\n        /* \"#utility.yul\":3312:3364   */\n      tag_258\n        /* \"#utility.yul\":3356:3363   */\n      dup6\n        /* \"#utility.yul\":3345:3353   */\n      dup3\n        /* \"#utility.yul\":3334:3343   */\n      dup7\n        /* \"#utility.yul\":3330:3354   */\n      add\n        /* \"#utility.yul\":3312:3364   */\n      tag_224\n      jump\t// in\n    tag_258:\n        /* \"#utility.yul\":3302:3364   */\n      swap2\n      pop\n      pop\n        /* \"#utility.yul\":2827:3370   */\n      swap3\n      pop\n      swap3\n      swap1\n      pop\n      jump\t// out\n        /* \"#utility.yul\":3567:3947   */\n    tag_45:\n        /* \"#utility.yul\":3646:3647   */\n      0x01\n        /* \"#utility.yul\":3642:3654   */\n      dup2\n      dup2\n      shr\n      swap1\n        /* \"#utility.yul\":3689:3701   */\n      dup3\n      and\n      dup1\n        /* \"#utility.yul\":3710:3771   */\n      tag_261\n      jumpi\n        /* \"#utility.yul\":3764:3768   */\n      0x7f\n        /* \"#utility.yul\":3756:3762   */\n      dup3\n        /* \"#utility.yul\":3752:3769   */\n      and\n        /* \"#utility.yul\":3742:3769   */\n      swap2\n      pop\n        /* \"#utility.yul\":3710:3771   */\n    tag_261:\n        /* \"#utility.yul\":3817:3819   */\n      0x20\n        /* \"#utility.yul\":3809:3815   */\n      dup3\n        /* \"#utility.yul\":3806:3820   */\n      lt\n        /* \"#utility.yul\":3786:3804   */\n      dup2\n        /* \"#utility.yul\":3783:3821   */\n      sub\n        /* \"#utility.yul\":3780:3941   */\n      tag_262\n      jumpi\n        /* \"#utility.yul\":3863:3873   */\n      0x4e487b71\n        /* \"#utility.yul\":3858:3861   */\n      0xe0\n        /* \"#utility.yul\":3854:3874   */\n      shl\n        /* \"#utility.yul\":3851:3852   */\n      0x00\n        /* \"#utility.yul\":3844:3875   */\n      mstore\n        /* \"#utility.yul\":3898:3902   */\n      0x22\n        /* \"#utility.yul\":3895:3896   */\n      0x04\n        /* \"#utility.yul\":3888:3903   */\n      mstore\n        /* \"#utility.yul\":3926:3930   */\n      0x24\n        /* \"#utility.yul\":3923:3924   */\n      0x00\n        /* \"#utility.yul\":3916:3931   */\n      revert\n        /* \"#utility.yul\":3780:3941   */\n    tag_262:\n      pop\n        /* \"#utility.yul\":3567:3947   */\n      swap2\n      swap1\n      pop\n      jump\t// out\n        /* \"#utility.yul\":4309:4436   */\n    tag_57:\n        /* \"#utility.yul\":4370:4380   */\n      0x4e487b71\n        /* \"#utility.yul\":4365:4368   */\n      0xe0\n        /* \"#utility.yul\":4361:4381   */\n      shl\n        /* \"#utility.yul\":4358:4359   */\n      0x00\n        /* \"#utility.yul\":4351:4382   */\n      mstore\n        /* \"#utility.yul\":4401:4405   */\n      0x32\n        /* \"#utility.yul\":4398:4399   */\n      0x04\n        /* \"#utility.yul\":4391:4406   */\n      mstore\n        /* \"#utility.yul\":4425:4429   */\n      0x24\n        /* \"#utility.yul\":4422:4423   */\n      0x00\n        /* \"#utility.yul\":4415:4430   */\n      revert\n        /* \"#utility.yul\":4909:5454   */\n    tag_226:\n        /* \"#utility.yul\":5011:5013   */\n      0x1f\n        /* \"#utility.yul\":5006:5009   */\n      dup3\n        /* \"#utility.yul\":5003:5014   */\n      gt\n        /* \"#utility.yul\":5000:5448   */\n      iszero\n      tag_268\n      jumpi\n        /* \"#utility.yul\":5047:5048   */\n      0x00\n        /* \"#utility.yul\":5072:5077   */\n      dup2\n        /* \"#utility.yul\":5068:5070   */\n      dup2\n        /* \"#utility.yul\":5061:5078   */\n      mstore\n        /* \"#utility.yul\":5117:5121   */\n      0x20\n        /* \"#utility.yul\":5113:5115   */\n      dup2\n        /* \"#utility.yul\":5103:5122   */\n      keccak256\n        /* \"#utility.yul\":5187:5189   */\n      0x1f\n        /* \"#utility.yul\":5175:5185   */\n      dup6\n        /* \"#utility.yul\":5171:5190   */\n      add\n        /* \"#utility.yul\":5168:5169   */\n      0x05\n        /* \"#utility.yul\":5164:5191   */\n      shr\n        /* \"#utility.yul\":5158:5162   */\n      dup2\n        /* \"#utility.yul\":5154:5192   */\n      add\n        /* \"#utility.yul\":5223:5227   */\n      0x20\n        /* \"#utility.yul\":5211:5221   */\n      dup7\n        /* \"#utility.yul\":5208:5228   */\n      lt\n        /* \"#utility.yul\":5205:5252   */\n      iszero\n      tag_269\n      jumpi\n      pop\n        /* \"#utility.yul\":5246:5250   */\n      dup1\n        /* \"#utility.yul\":5205:5252   */\n    tag_269:\n        /* \"#utility.yul\":5301:5303   */\n      0x1f\n        /* \"#utility.yul\":5296:5299   */\n      dup6\n        /* \"#utility.yul\":5292:5304   */\n      add\n        /* \"#utility.yul\":5289:5290   */\n      0x05\n        /* \"#utility.yul\":5285:5305   */\n      shr\n        /* \"#utility.yul\":5279:5283   */\n      dup3\n        /* \"#utility.yul\":5275:5306   */\n      add\n        /* \"#utility.yul\":5265:5306   */\n      swap2\n      pop\n        /* \"#utility.yul\":5356:5438   */\n    tag_270:\n        /* \"#utility.yul\":5374:5376   */\n      dup2\n        /* \"#utility.yul\":5367:5372   */\n      dup2\n        /* \"#utility.yul\":5364:5377   */\n      lt\n        /* \"#utility.yul\":5356:5438   */\n      iszero\n      tag_272\n      jumpi\n        /* \"#utility.yul\":5419:5436   */\n      dup3\n      dup2\n      sstore\n        /* \"#utility.yul\":5400:5401   */\n      0x01\n        /* \"#utility.yul\":5389:5402   */\n      add\n        /* \"#utility.yul\":5356:5438   */\n      jump(tag_270)\n    tag_272:\n        /* \"#utility.yul\":5360:5363   */\n      pop\n      pop\n      pop\n        /* \"#utility.yul\":5000:5448   */\n    tag_268:\n        /* \"#utility.yul\":4909:5454   */\n      pop\n      pop\n      pop\n      jump\t// out\n        /* \"#utility.yul\":5630:7065   */\n    tag_71:\n        /* \"#utility.yul\":5749:5752   */\n      dup2\n        /* \"#utility.yul\":5743:5747   */\n      dup2\n        /* \"#utility.yul\":5740:5753   */\n      sub\n        /* \"#utility.yul\":5737:5763   */\n      tag_275\n      jumpi\n        /* \"#utility.yul\":5756:5761   */\n      pop\n      pop\n        /* \"#utility.yul\":5630:7065   */\n      jump\t// out\n        /* \"#utility.yul\":5737:5763   */\n    tag_275:\n        /* \"#utility.yul\":5786:5823   */\n      tag_276\n        /* \"#utility.yul\":5818:5821   */\n      dup3\n        /* \"#utility.yul\":5812:5822   */\n      sload\n        /* \"#utility.yul\":5786:5823   */\n      tag_45\n      jump\t// in\n    tag_276:\n        /* \"#utility.yul\":5846:5864   */\n      0xffffffffffffffff\n        /* \"#utility.yul\":5838:5844   */\n      dup2\n        /* \"#utility.yul\":5835:5865   */\n      gt\n        /* \"#utility.yul\":5832:5888   */\n      iszero\n      tag_278\n      jumpi\n        /* \"#utility.yul\":5868:5886   */\n      tag_278\n      tag_223\n      jump\t// in\n    tag_278:\n        /* \"#utility.yul\":5897:5994   */\n      tag_279\n        /* \"#utility.yul\":5987:5993   */\n      dup2\n        /* \"#utility.yul\":5947:5985   */\n      tag_280\n        /* \"#utility.yul\":5979:5983   */\n      dup5\n        /* \"#utility.yul\":5973:5984   */\n      sload\n        /* \"#utility.yul\":5947:5985   */\n      tag_45\n      jump\t// in\n    tag_280:\n        /* \"#utility.yul\":5941:5945   */\n      dup5\n        /* \"#utility.yul\":5897:5994   */\n      tag_226\n      jump\t// in\n    tag_279:\n        /* \"#utility.yul\":6020:6021   */\n      0x00\n        /* \"#utility.yul\":6048:6050   */\n      0x1f\n        /* \"#utility.yul\":6040:6046   */\n      dup3\n        /* \"#utility.yul\":6037:6051   */\n      gt\n        /* \"#utility.yul\":6065:6066   */\n      0x01\n        /* \"#utility.yul\":6060:6808   */\n      dup2\n      eq\n      tag_282\n      jumpi\n        /* \"#utility.yul\":6852:6853   */\n      0x00\n        /* \"#utility.yul\":6869:6875   */\n      dup4\n        /* \"#utility.yul\":6866:6955   */\n      iszero\n      tag_283\n      jumpi\n      pop\n        /* \"#utility.yul\":6921:6940   */\n      dup5\n      dup3\n      add\n        /* \"#utility.yul\":6915:6941   */\n      sload\n        /* \"#utility.yul\":6866:6955   */\n    tag_283:\n      not(0x00)\n        /* \"#utility.yul\":5587:5588   */\n      0x03\n        /* \"#utility.yul\":5583:5594   */\n      dup6\n      swap1\n      shl\n        /* \"#utility.yul\":5579:5603   */\n      shr\n        /* \"#utility.yul\":5575:5604   */\n      not\n        /* \"#utility.yul\":5565:5605   */\n      and\n        /* \"#utility.yul\":5611:5612   */\n      0x01\n        /* \"#utility.yul\":5607:5618   */\n      dup5\n      swap1\n      shl\n        /* \"#utility.yul\":5562:5619   */\n      or\n        /* \"#utility.yul\":6968:7049   */\n      dup5\n      sstore\n        /* \"#utility.yul\":6030:7059   */\n      jump(tag_281)\n        /* \"#utility.yul\":6060:6808   */\n    tag_282:\n        /* \"#utility.yul\":4856:4857   */\n      0x00\n        /* \"#utility.yul\":4849:4863   */\n      dup6\n      dup2\n      mstore\n        /* \"#utility.yul\":4893:4897   */\n      0x20\n        /* \"#utility.yul\":4880:4898   */\n      swap1\n      keccak256\n      not(0x1f)\n        /* \"#utility.yul\":6096:6116   */\n      dup5\n      and\n      swap1\n        /* \"#utility.yul\":4856:4857   */\n      0x00\n        /* \"#utility.yul\":4849:4863   */\n      dup7\n      dup2\n      mstore\n        /* \"#utility.yul\":4893:4897   */\n      0x20\n        /* \"#utility.yul\":4880:4898   */\n      swap1\n      keccak256\n        /* \"#utility.yul\":6260:6269   */\n      dup5\n        /* \"#utility.yul\":6282:6533   */\n    tag_287:\n        /* \"#utility.yul\":6296:6303   */\n      dup4\n        /* \"#utility.yul\":6293:6294   */\n      dup2\n        /* \"#utility.yul\":6290:6304   */\n      lt\n        /* \"#utility.yul\":6282:6533   */\n      iszero\n      tag_289\n      jumpi\n        /* \"#utility.yul\":6378:6399   */\n      dup3\n      dup7\n      add\n        /* \"#utility.yul\":6372:6400   */\n      sload\n        /* \"#utility.yul\":6357:6401   */\n      dup3\n      sstore\n        /* \"#utility.yul\":6428:6429   */\n      0x01\n        /* \"#utility.yul\":6501:6519   */\n      swap6\n      dup7\n      add\n      swap6\n        /* \"#utility.yul\":6456:6471   */\n      swap1\n      swap2\n      add\n      swap1\n        /* \"#utility.yul\":6319:6323   */\n      0x20\n        /* \"#utility.yul\":6312:6324   */\n      add\n        /* \"#utility.yul\":6282:6533   */\n      jump(tag_287)\n    tag_289:\n        /* \"#utility.yul\":6286:6289   */\n      pop\n        /* \"#utility.yul\":6561:6567   */\n      dup6\n        /* \"#utility.yul\":6552:6559   */\n      dup4\n        /* \"#utility.yul\":6549:6568   */\n      lt\n        /* \"#utility.yul\":6546:6749   */\n      iszero\n      tag_290\n      jumpi\n        /* \"#utility.yul\":6622:6643   */\n      dup2\n      dup6\n      add\n        /* \"#utility.yul\":6616:6644   */\n      sload\n      not(0x00)\n        /* \"#utility.yul\":6707:6708   */\n      0x03\n        /* \"#utility.yul\":6703:6717   */\n      dup9\n      swap1\n      shl\n        /* \"#utility.yul\":6719:6722   */\n      0xf8\n        /* \"#utility.yul\":6699:6723   */\n      and\n        /* \"#utility.yul\":6695:6732   */\n      shr\n        /* \"#utility.yul\":6691:6733   */\n      not\n        /* \"#utility.yul\":6676:6734   */\n      and\n        /* \"#utility.yul\":6661:6735   */\n      dup2\n      sstore\n        /* \"#utility.yul\":6546:6749   */\n    tag_290:\n      pop\n      pop\n      pop\n        /* \"#utility.yul\":6795:6796   */\n      0x01\n        /* \"#utility.yul\":6786:6792   */\n      dup4\n        /* \"#utility.yul\":6783:6784   */\n      0x01\n        /* \"#utility.yul\":6779:6793   */\n      shl\n        /* \"#utility.yul\":6775:6797   */\n      add\n        /* \"#utility.yul\":6769:6773   */\n      dup5\n        /* \"#utility.yul\":6762:6798   */\n      sstore\n        /* \"#utility.yul\":6030:7059   */\n    tag_281:\n      pop\n      pop\n      pop\n        /* \"#utility.yul\":5630:7065   */\n      pop\n      pop\n      jump\t// out\n        /* \"#utility.yul\":7070:8422   */\n    tag_85:\n        /* \"#utility.yul\":7196:7199   */\n      dup2\n        /* \"#utility.yul\":7190:7200   */\n      mload\n        /* \"#utility.yul\":7223:7241   */\n      0xffffffffffffffff\n        /* \"#utility.yul\":7215:7221   */\n      dup2\n        /* \"#utility.yul\":7212:7242   */\n      gt\n        /* \"#utility.yul\":7209:7265   */\n      iszero\n      tag_293\n      jumpi\n        /* \"#utility.yul\":7245:7263   */\n      tag_293\n      tag_223\n      jump\t// in\n    tag_293:\n        /* \"#utility.yul\":7274:7371   */\n      tag_294\n        /* \"#utility.yul\":7364:7370   */\n      dup2\n        /* \"#utility.yul\":7324:7362   */\n      tag_280\n        /* \"#utility.yul\":7356:7360   */\n      dup5\n        /* \"#utility.yul\":7350:7361   */\n      sload\n        /* \"#utility.yul\":7324:7362   */\n      tag_45\n      jump\t// in\n        /* \"#utility.yul\":7274:7371   */\n    tag_294:\n        /* \"#utility.yul\":7426:7430   */\n      0x20\n      dup1\n        /* \"#utility.yul\":7490:7492   */\n      0x1f\n        /* \"#utility.yul\":7479:7493   */\n      dup4\n      gt\n        /* \"#utility.yul\":7507:7508   */\n      0x01\n        /* \"#utility.yul\":7502:8165   */\n      dup2\n      eq\n      tag_297\n      jumpi\n        /* \"#utility.yul\":8209:8210   */\n      0x00\n        /* \"#utility.yul\":8226:8232   */\n      dup5\n        /* \"#utility.yul\":8223:8312   */\n      iszero\n      tag_298\n      jumpi\n      pop\n        /* \"#utility.yul\":8278:8297   */\n      dup6\n      dup4\n      add\n        /* \"#utility.yul\":8272:8298   */\n      mload\n        /* \"#utility.yul\":8223:8312   */\n    tag_298:\n      not(0x00)\n        /* \"#utility.yul\":5587:5588   */\n      0x03\n        /* \"#utility.yul\":5583:5594   */\n      dup7\n      swap1\n      shl\n        /* \"#utility.yul\":5579:5603   */\n      shr\n        /* \"#utility.yul\":5575:5604   */\n      not\n        /* \"#utility.yul\":5565:5605   */\n      and\n        /* \"#utility.yul\":5611:5612   */\n      0x01\n        /* \"#utility.yul\":5607:5618   */\n      dup6\n      swap1\n      shl\n        /* \"#utility.yul\":5562:5619   */\n      or\n        /* \"#utility.yul\":8325:8406   */\n      dup6\n      sstore\n        /* \"#utility.yul\":7472:8416   */\n      jump(tag_272)\n        /* \"#utility.yul\":7502:8165   */\n    tag_297:\n        /* \"#utility.yul\":4856:4857   */\n      0x00\n        /* \"#utility.yul\":4849:4863   */\n      dup6\n      dup2\n      mstore\n        /* \"#utility.yul\":4893:4897   */\n      0x20\n        /* \"#utility.yul\":4880:4898   */\n      dup2\n      keccak256\n      not(0x1f)\n        /* \"#utility.yul\":7538:7558   */\n      dup7\n      and\n      swap2\n        /* \"#utility.yul\":7656:7892   */\n    tag_301:\n        /* \"#utility.yul\":7670:7677   */\n      dup3\n        /* \"#utility.yul\":7667:7668   */\n      dup2\n        /* \"#utility.yul\":7664:7678   */\n      lt\n        /* \"#utility.yul\":7656:7892   */\n      iszero\n      tag_303\n      jumpi\n        /* \"#utility.yul\":7759:7778   */\n      dup9\n      dup7\n      add\n        /* \"#utility.yul\":7753:7779   */\n      mload\n        /* \"#utility.yul\":7738:7780   */\n      dup3\n      sstore\n        /* \"#utility.yul\":7851:7878   */\n      swap5\n      dup5\n      add\n      swap5\n        /* \"#utility.yul\":7819:7820   */\n      0x01\n        /* \"#utility.yul\":7807:7821   */\n      swap1\n      swap2\n      add\n      swap1\n        /* \"#utility.yul\":7686:7705   */\n      dup5\n      add\n        /* \"#utility.yul\":7656:7892   */\n      jump(tag_301)\n    tag_303:\n        /* \"#utility.yul\":7660:7663   */\n      pop\n        /* \"#utility.yul\":7920:7926   */\n      dup6\n        /* \"#utility.yul\":7911:7918   */\n      dup3\n        /* \"#utility.yul\":7908:7927   */\n      lt\n        /* \"#utility.yul\":7905:8106   */\n      iszero\n      tag_304\n      jumpi\n        /* \"#utility.yul\":7981:8000   */\n      dup8\n      dup6\n      add\n        /* \"#utility.yul\":7975:8001   */\n      mload\n      not(0x00)\n        /* \"#utility.yul\":8064:8065   */\n      0x03\n        /* \"#utility.yul\":8060:8074   */\n      dup9\n      swap1\n      shl\n        /* \"#utility.yul\":8076:8079   */\n      0xf8\n        /* \"#utility.yul\":8056:8080   */\n      and\n        /* \"#utility.yul\":8052:8089   */\n      shr\n        /* \"#utility.yul\":8048:8090   */\n      not\n        /* \"#utility.yul\":8033:8091   */\n      and\n        /* \"#utility.yul\":8018:8092   */\n      dup2\n      sstore\n        /* \"#utility.yul\":7905:8106   */\n    tag_304:\n      pop\n      pop\n      pop\n      pop\n      pop\n        /* \"#utility.yul\":8152:8153   */\n      0x01\n        /* \"#utility.yul\":8136:8150   */\n      swap1\n      dup2\n      shl\n        /* \"#utility.yul\":8132:8154   */\n      add\n        /* \"#utility.yul\":8119:8155   */\n      swap1\n      sstore\n      pop\n        /* \"#utility.yul\":7070:8422   */\n      jump\t// out\n        /* \"#utility.yul\":8427:8716   */\n    tag_90:\n        /* \"#utility.yul\":8558:8561   */\n      0x00\n        /* \"#utility.yul\":8596:8602   */\n      dup3\n        /* \"#utility.yul\":8590:8603   */\n      mload\n        /* \"#utility.yul\":8612:8678   */\n      tag_306\n        /* \"#utility.yul\":8671:8677   */\n      dup2\n        /* \"#utility.yul\":8666:8669   */\n      dup5\n        /* \"#utility.yul\":8659:8663   */\n      0x20\n        /* \"#utility.yul\":8651:8657   */\n      dup8\n        /* \"#utility.yul\":8647:8664   */\n      add\n        /* \"#utility.yul\":8612:8678   */\n      tag_221\n      jump\t// in\n    tag_306:\n        /* \"#utility.yul\":8694:8710   */\n      swap2\n      swap1\n      swap2\n      add\n      swap3\n        /* \"#utility.yul\":8427:8716   */\n      swap2\n      pop\n      pop\n      jump\t// out\n        /* \"#utility.yul\":8721:8953   */\n    tag_95:\n        /* \"#utility.yul\":8760:8763   */\n      0x00\n        /* \"#utility.yul\":8781:8798   */\n      0x01\n      dup3\n      add\n        /* \"#utility.yul\":8778:8918   */\n      tag_308\n      jumpi\n        /* \"#utility.yul\":8840:8850   */\n      0x4e487b71\n        /* \"#utility.yul\":8835:8838   */\n      0xe0\n        /* \"#utility.yul\":8831:8851   */\n      shl\n        /* \"#utility.yul\":8828:8829   */\n      0x00\n        /* \"#utility.yul\":8821:8852   */\n      mstore\n        /* \"#utility.yul\":8875:8879   */\n      0x11\n        /* \"#utility.yul\":8872:8873   */\n      0x04\n        /* \"#utility.yul\":8865:8880   */\n      mstore\n        /* \"#utility.yul\":8903:8907   */\n      0x24\n        /* \"#utility.yul\":8900:8901   */\n      0x00\n        /* \"#utility.yul\":8893:8908   */\n      revert\n        /* \"#utility.yul\":8778:8918   */\n    tag_308:\n      pop\n        /* \"#utility.yul\":8945:8946   */\n      0x01\n        /* \"#utility.yul\":8934:8947   */\n      add\n      swap1\n        /* \"#utility.yul\":8721:8953   */\n      jump\t// out\n        /* \"#utility.yul\":10262:11225   */\n    tag_159:\n        /* \"#utility.yul\":10371:10375   */\n      0x00\n        /* \"#utility.yul\":10400:10402   */\n      0x20\n        /* \"#utility.yul\":10429:10431   */\n      dup1\n        /* \"#utility.yul\":10418:10427   */\n      dup4\n        /* \"#utility.yul\":10411:10432   */\n      mstore\n        /* \"#utility.yul\":10452:10453   */\n      0x00\n        /* \"#utility.yul\":10485:10491   */\n      dup5\n        /* \"#utility.yul\":10479:10492   */\n      sload\n        /* \"#utility.yul\":10515:10551   */\n      tag_313\n        /* \"#utility.yul\":10541:10550   */\n      dup2\n        /* \"#utility.yul\":10515:10551   */\n      tag_45\n      jump\t// in\n    tag_313:\n        /* \"#utility.yul\":10587:10593   */\n      dup1\n        /* \"#utility.yul\":10582:10584   */\n      dup5\n        /* \"#utility.yul\":10571:10580   */\n      dup8\n        /* \"#utility.yul\":10567:10585   */\n      add\n        /* \"#utility.yul\":10560:10594   */\n      mstore\n        /* \"#utility.yul\":10613:10615   */\n      0x40\n        /* \"#utility.yul\":10634:10635   */\n      0x01\n        /* \"#utility.yul\":10666:10668   */\n      dup1\n        /* \"#utility.yul\":10655:10664   */\n      dup5\n        /* \"#utility.yul\":10651:10669   */\n      and\n        /* \"#utility.yul\":10683:10684   */\n      0x00\n        /* \"#utility.yul\":10678:10836   */\n      dup2\n      eq\n      tag_315\n      jumpi\n        /* \"#utility.yul\":10850:10851   */\n      0x01\n        /* \"#utility.yul\":10845:11199   */\n      dup2\n      eq\n      tag_316\n      jumpi\n        /* \"#utility.yul\":10644:11199   */\n      jump(tag_314)\n        /* \"#utility.yul\":10678:10836   */\n    tag_315:\n      not(0xff)\n        /* \"#utility.yul\":10726:10750   */\n      dup6\n      and\n        /* \"#utility.yul\":10706:10724   */\n      dup10\n      dup5\n      add\n        /* \"#utility.yul\":10699:10751   */\n      mstore\n        /* \"#utility.yul\":10804:10818   */\n      dup4\n      iszero\n        /* \"#utility.yul\":10797:10819   */\n      iszero\n        /* \"#utility.yul\":10794:10795   */\n      0x05\n        /* \"#utility.yul\":10790:10820   */\n      shl\n        /* \"#utility.yul\":10775:10821   */\n      dup10\n      add\n        /* \"#utility.yul\":10771:10826   */\n      dup4\n      add\n      swap6\n      pop\n        /* \"#utility.yul\":10678:10836   */\n      jump(tag_314)\n        /* \"#utility.yul\":10845:11199   */\n    tag_316:\n        /* \"#utility.yul\":10876:10882   */\n      dup10\n        /* \"#utility.yul\":10873:10874   */\n      0x00\n        /* \"#utility.yul\":10866:10883   */\n      mstore\n        /* \"#utility.yul\":10924:10926   */\n      dup7\n        /* \"#utility.yul\":10921:10922   */\n      0x00\n        /* \"#utility.yul\":10911:10927   */\n      keccak256\n        /* \"#utility.yul\":10949:10950   */\n      0x00\n        /* \"#utility.yul\":10963:11143   */\n    tag_317:\n        /* \"#utility.yul\":10977:10983   */\n      dup6\n        /* \"#utility.yul\":10974:10975   */\n      dup2\n        /* \"#utility.yul\":10971:10984   */\n      lt\n        /* \"#utility.yul\":10963:11143   */\n      iszero\n      tag_319\n      jumpi\n        /* \"#utility.yul\":11070:11084   */\n      dup2\n      sload\n        /* \"#utility.yul\":11046:11063   */\n      dup12\n      dup3\n      add\n        /* \"#utility.yul\":11042:11068   */\n      dup7\n      add\n        /* \"#utility.yul\":11035:11085   */\n      mstore\n        /* \"#utility.yul\":11113:11129   */\n      swap1\n      dup4\n      add\n      swap1\n        /* \"#utility.yul\":10992:11002   */\n      dup9\n      add\n        /* \"#utility.yul\":10963:11143   */\n      jump(tag_317)\n    tag_319:\n        /* \"#utility.yul\":11167:11184   */\n      dup11\n      add\n        /* \"#utility.yul\":11163:11189   */\n      dup5\n      add\n      swap7\n      pop\n      pop\n        /* \"#utility.yul\":10644:11199   */\n    tag_314:\n      pop\n        /* \"#utility.yul\":11216:11219   */\n      swap4\n      swap9\n        /* \"#utility.yul\":10262:11225   */\n      swap8\n      pop\n      pop\n      pop\n      pop\n      pop\n      pop\n      pop\n      pop\n      jump\t// out\n\n    auxdata: 0xa26469706673582212202377d29a511b16b680ba9b0b680f196e9644042e228a5063ad7458b0b6312a0664736f6c63430008130033\n}\n",
				"bytecode": {
					"linkReferences": {},
					"object": "600060028190556101a081815260809081526101c082815260a0526101e082815260c05261020082815260e052610220828152610100526102408281526101205261026082815261014052610280828152610160526102c06040526102a09182526101809190915262000077906003906009620001e1565b506004805460ff1916600190811790915560408051808201909152908152600b60fb1b6020820152600590620000ae908262000449565b5060408051610160810182526000610100820181815260016101208401819052600261014085018190529184528451606081810187526003808352600460208481018290526005858b01819052818a019590955289518085018b52600680825260078284018190526008838e018190528c8e01939093528c518088018e528b815280850196909652858d01829052868c01959095528b518087018d52978852878301849052878c019490945260808a019690965289518085018b5287815280820195909552848a0186905260a089019490945288518084018a5296875286840181905286890185905260c0880196909652875191820188529381529081019390935293820181905260e0830191909152620001cc929091906200023e565b50348015620001da57600080fd5b5062000515565b8280548282559060005260206000209081019282156200022c579160200282015b828111156200022c57825182906200021b908262000449565b509160200191906001019062000202565b506200023a92915062000298565b5090565b8280548282559060005260206000209081019282156200028a579160200282015b828111156200028a578251620002799083906003620002b9565b50916020019190600101906200025f565b506200023a9291506200030a565b808211156200023a576000620002af82826200032b565b5060010162000298565b828054828255906000526020600020908101928215620002fc579160200282015b82811115620002fc578251829060ff16905591602001919060010190620002da565b506200023a9291506200036d565b808211156200023a57600062000321828262000384565b506001016200030a565b5080546200033990620003ba565b6000825580601f106200034a575050565b601f0160209004906000526020600020908101906200036a91906200036d565b50565b5b808211156200023a57600081556001016200036e565b50805460008255906000526020600020908101906200036a91906200036d565b634e487b7160e01b600052604160045260246000fd5b600181811c90821680620003cf57607f821691505b602082108103620003f057634e487b7160e01b600052602260045260246000fd5b50919050565b601f8211156200044457600081815260208120601f850160051c810160208610156200041f5750805b601f850160051c820191505b8181101562000440578281556001016200042b565b5050505b505050565b81516001600160401b03811115620004655762000465620003a4565b6200047d81620004768454620003ba565b84620003f6565b602080601f831160018114620004b557600084156200049c5750858301515b600019600386901b1c1916600185901b17855562000440565b600085815260208120601f198616915b82811015620004e657888601518255948401946001909101908401620004c5565b5085821015620005055787850151600019600388901b60f8161c191681555b5050505050600190811b01905550565b61130180620005256000396000f3fe608060405234801561001057600080fd5b50600436106100885760003560e01c80637d39620b1161005b5780637d39620b1461010b5780638d25af041461011e578063bed34bba14610126578063d4f77b1c1461014957600080fd5b8063409e22051461008d57806352fc4855146100b657806355a5c301146100cb57806363f4150e146100f6575b600080fd5b6100a061009b366004610dd7565b610151565b6040516100ad9190610e40565b60405180910390f35b6100c96100c4366004610dd7565b6101fd565b005b6000546100de906001600160a01b031681565b6040516001600160a01b0390911681526020016100ad565b6100fe610385565b6040516100ad9190610e5a565b6001546100de906001600160a01b031681565b6100c961045e565b610139610134366004610f5f565b610538565b60405190151581526020016100ad565b6100c9610591565b6003818154811061016157600080fd5b90600052602060002001600091509050805461017c90610fc3565b80601f01602080910402602001604051908101604052809291908181526020018280546101a890610fc3565b80156101f55780601f106101ca576101008083540402835291602001916101f5565b820191906000526020600020905b8154815290600101906020018083116101d857829003601f168201915b505050505081565b60045460ff166102545760405162461bcd60e51b815260206004820152601c60248201527f5468652067616d65207374696c6c206e6f74207374617274207965740000000060448201526064015b60405180910390fd5b6103126003828154811061026a5761026a610ffd565b90600052602060002001805461027f90610fc3565b80601f01602080910402602001604051908101604052809291908181526020018280546102ab90610fc3565b80156102f85780601f106102cd576101008083540402835291602001916102f8565b820191906000526020600020905b8154815290600101906020018083116102db57829003601f168201915b505050505060405180602001604052806000815250610538565b61034e5760405162461bcd60e51b815260206004820152600d60248201526c125b9d985b1a59081a5b9c1d5d609a1b604482015260640161024b565b60056003828154811061036357610363610ffd565b9060005260206000200190816103799190611062565b50610382610717565b50565b60606003805480602002602001604051908101604052809291908181526020016000905b828210156104555783829060005260206000200180546103c890610fc3565b80601f01602080910402602001604051908101604052809291908181526020018280546103f490610fc3565b80156104415780601f1061041657610100808354040283529160200191610441565b820191906000526020600020905b81548152906001019060200180831161042457829003601f168201915b5050505050815260200190600101906103a9565b50505050905090565b6040805180820190915260018152600b60fb1b60208201526005906104839082611143565b5060408051610140810182526000610120820181815282528251602081810185528282528084019190915283518082018552828152838501528351808201855282815260608401528351808201855282815260808401528351808201855282815260a08401528351808201855282815260c08401528351808201855282815260e084015283519081019093528252610100810191909152610528906003906009610d1a565b506004805460ff19166001179055565b60008160405160200161054b91906111fd565b604051602081830303815290604052805190602001208360405160200161057291906111fd565b6040516020818303038152906040528051906020012014905092915050565b6002546000036105c257600080546001600160a01b0319163317815560028054916105bb83611219565b9190505550565b6002546001036106b8576000546001600160a01b031633036106325760405162461bcd60e51b8152602060048201526024808201527f4572726f723a20596f752063616e6e6f7420706c6179207769746820796f757260448201526339b2b63360e11b606482015260840161024b565b6002805490600061064283611219565b9091555050600054600154604080516060808252600b908201526a53746172742067616d652160a81b60808201526001600160a01b03938416602082015292909116908201527fe731305b65099c3b743324657b0ef6cc0638875c5469a8e5bde1765300c0b9b29060a0015b60405180910390a1565b7fe955ccaf7888efcaf9248f6fe09c3ce81cc6c6b8d5049b7e597604b9fda4f5a06040516106ae906020808252601c908201527f4e6f772071756575652069732066756c6c2c20747279206c6174657200000000604082015260600190565b6000805b600654811015610a8a5760006006828154811061073a5761073a610ffd565b9060005260206000200180548060200260200160405190810160405280929190818152602001828054801561078e57602002820191906000526020600020905b81548152602001906001019080831161077a575b5050505050905060006003826000815181106107ac576107ac610ffd565b6020026020010151815481106107c4576107c4610ffd565b9060005260206000200180546107d990610fc3565b80601f016020809104026020016040519081016040528092919081815260200182805461080590610fc3565b80156108525780601f1061082757610100808354040283529160200191610852565b820191906000526020600020905b81548152906001019060200180831161083557829003601f168201915b50505050509050600060038360018151811061087057610870610ffd565b60200260200101518154811061088857610888610ffd565b90600052602060002001805461089d90610fc3565b80601f01602080910402602001604051908101604052809291908181526020018280546108c990610fc3565b80156109165780601f106108eb57610100808354040283529160200191610916565b820191906000526020600020905b8154815290600101906020018083116108f957829003601f168201915b50505050509050600060038460028151811061093457610934610ffd565b60200260200101518154811061094c5761094c610ffd565b90600052602060002001805461096190610fc3565b80601f016020809104026020016040519081016040528092919081815260200182805461098d90610fc3565b80156109da5780601f106109af576101008083540402835291602001916109da565b820191906000526020600020905b8154815290600101906020018083116109bd57829003601f168201915b505050505090506109fa8360405180602001604052806000815250610538565b80610a195750610a198260405180602001604052806000815250610538565b80610a385750610a388160405180602001604052806000815250610538565b15610a465750505050610a78565b610a508383610538565b8015610a615750610a618282610538565b15610a73576001955050505050610a8a565b505050505b80610a8281611219565b91505061071b565b508015610ad6577fcde5c32c0a45fd8aa4b65ea8003fc9da9acd5e2c6c24a9fcce6ab79cabbd91226005604051610ac19190611240565b60405180910390a16004805460ff1916905550565b610ade610c74565b15610b34577fcde5c32c0a45fd8aa4b65ea8003fc9da9acd5e2c6c24a9fcce6ab79cabbd9122604051610b29906020808252600490820152634472617760e01b604082015260600190565b60405180910390a150565b610be160058054610b4490610fc3565b80601f0160208091040260200160405190810160405280929190818152602001828054610b7090610fc3565b8015610bbd5780601f10610b9257610100808354040283529160200191610bbd565b820191906000526020600020905b815481529060010190602001808311610ba057829003601f168201915b5050505050604051806040016040528060018152602001600b60fb1b815250610538565b15610c2b576001546040516001600160a01b0390911681527fec121debab367dc6fc2da219ef2d5cf4e97e648e71f3a199511cf3b4d7d593049060200160405180910390a1610c6c565b6000546040516001600160a01b0390911681527fec121debab367dc6fc2da219ef2d5cf4e97e648e71f3a199511cf3b4d7d593049060200160405180910390a15b610382610cbf565b6000805b600354811015610cb757610c986003828154811061026a5761026a610ffd565b15610ca557600091505090565b80610caf81611219565b915050610c78565b506001905090565b610ccf60058054610b4490610fc3565b610cf257604051806040016040528060018152602001600b60fb1b815250610d0d565b604051806040016040528060018152602001604f60f81b8152505b6005906103829082611143565b828054828255906000526020600020908101928215610d60579160200282015b82811115610d605782518290610d509082611143565b5091602001919060010190610d3a565b50610d6c929150610d70565b5090565b80821115610d6c576000610d848282610d8d565b50600101610d70565b508054610d9990610fc3565b6000825580601f10610da9575050565b601f01602090049060005260206000209081019061038291905b80821115610d6c5760008155600101610dc3565b600060208284031215610de957600080fd5b5035919050565b60005b83811015610e0b578181015183820152602001610df3565b50506000910152565b60008151808452610e2c816020860160208601610df0565b601f01601f19169290920160200192915050565b602081526000610e536020830184610e14565b9392505050565b6000602080830181845280855180835260408601915060408160051b870101925083870160005b82811015610eaf57603f19888603018452610e9d858351610e14565b94509285019290850190600101610e81565b5092979650505050505050565b634e487b7160e01b600052604160045260246000fd5b600082601f830112610ee357600080fd5b813567ffffffffffffffff80821115610efe57610efe610ebc565b604051601f8301601f19908116603f01168101908282118183101715610f2657610f26610ebc565b81604052838152866020858801011115610f3f57600080fd5b836020870160208301376000602085830101528094505050505092915050565b60008060408385031215610f7257600080fd5b823567ffffffffffffffff80821115610f8a57600080fd5b610f9686838701610ed2565b93506020850135915080821115610fac57600080fd5b50610fb985828601610ed2565b9150509250929050565b600181811c90821680610fd757607f821691505b602082108103610ff757634e487b7160e01b600052602260045260246000fd5b50919050565b634e487b7160e01b600052603260045260246000fd5b601f82111561105d57600081815260208120601f850160051c8101602086101561103a5750805b601f850160051c820191505b8181101561105957828155600101611046565b5050505b505050565b81810361106d575050565b6110778254610fc3565b67ffffffffffffffff81111561108f5761108f610ebc565b6110a38161109d8454610fc3565b84611013565b6000601f8211600181146110d757600083156110bf5750848201545b600019600385901b1c1916600184901b17845561113c565b600085815260209020601f19841690600086815260209020845b8381101561111157828601548255600195860195909101906020016110f1565b508583101561112f5781850154600019600388901b60f8161c191681555b50505060018360011b0184555b5050505050565b815167ffffffffffffffff81111561115d5761115d610ebc565b61116b8161109d8454610fc3565b602080601f8311600181146111a057600084156111885750858301515b600019600386901b1c1916600185901b178555611059565b600085815260208120601f198616915b828110156111cf578886015182559484019460019091019084016111b0565b50858210156111ed5787850151600019600388901b60f8161c191681555b5050505050600190811b01905550565b6000825161120f818460208701610df0565b9190910192915050565b60006001820161123957634e487b7160e01b600052601160045260246000fd5b5060010190565b600060208083526000845461125481610fc3565b80848701526040600180841660008114611275576001811461128f576112bd565b60ff1985168984015283151560051b8901830195506112bd565b896000528660002060005b858110156112b55781548b820186015290830190880161129a565b8a0184019650505b50939897505050505050505056fea26469706673582212202377d29a511b16b680ba9b0b680f196e9644042e228a5063ad7458b0b6312a0664736f6c63430008130033",
					"opcodes": "PUSH1 0x0 PUSH1 0x2 DUP2 SWAP1 SSTORE PUSH2 0x1A0 DUP2 DUP2 MSTORE PUSH1 0x80 SWAP1 DUP2 MSTORE PUSH2 0x1C0 DUP3 DUP2 MSTORE PUSH1 0xA0 MSTORE PUSH2 0x1E0 DUP3 DUP2 MSTORE PUSH1 0xC0 MSTORE PUSH2 0x200 DUP3 DUP2 MSTORE PUSH1 0xE0 MSTORE PUSH2 0x220 DUP3 DUP2 MSTORE PUSH2 0x100 MSTORE PUSH2 0x240 DUP3 DUP2 MSTORE PUSH2 0x120 MSTORE PUSH2 0x260 DUP3 DUP2 MSTORE PUSH2 0x140 MSTORE PUSH2 0x280 DUP3 DUP2 MSTORE PUSH2 0x160 MSTORE PUSH2 0x2C0 PUSH1 0x40 MSTORE PUSH2 0x2A0 SWAP2 DUP3 MSTORE PUSH2 0x180 SWAP2 SWAP1 SWAP2 MSTORE PUSH3 0x77 SWAP1 PUSH1 0x3 SWAP1 PUSH1 0x9 PUSH3 0x1E1 JUMP JUMPDEST POP PUSH1 0x4 DUP1 SLOAD PUSH1 0xFF NOT AND PUSH1 0x1 SWAP1 DUP2 OR SWAP1 SWAP2 SSTORE PUSH1 0x40 DUP1 MLOAD DUP1 DUP3 ADD SWAP1 SWAP2 MSTORE SWAP1 DUP2 MSTORE PUSH1 0xB PUSH1 0xFB SHL PUSH1 0x20 DUP3 ADD MSTORE PUSH1 0x5 SWAP1 PUSH3 0xAE SWAP1 DUP3 PUSH3 0x449 JUMP JUMPDEST POP PUSH1 0x40 DUP1 MLOAD PUSH2 0x160 DUP2 ADD DUP3 MSTORE PUSH1 0x0 PUSH2 0x100 DUP3 ADD DUP2 DUP2 MSTORE PUSH1 0x1 PUSH2 0x120 DUP5 ADD DUP2 SWAP1 MSTORE PUSH1 0x2 PUSH2 0x140 DUP6 ADD DUP2 SWAP1 MSTORE SWAP2 DUP5 MSTORE DUP5 MLOAD PUSH1 0x60 DUP2 DUP2 ADD DUP8 MSTORE PUSH1 0x3 DUP1 DUP4 MSTORE PUSH1 0x4 PUSH1 0x20 DUP5 DUP2 ADD DUP3 SWAP1 MSTORE PUSH1 0x5 DUP6 DUP12 ADD DUP2 SWAP1 MSTORE DUP2 DUP11 ADD SWAP6 SWAP1 SWAP6 MSTORE DUP10 MLOAD DUP1 DUP6 ADD DUP12 MSTORE PUSH1 0x6 DUP1 DUP3 MSTORE PUSH1 0x7 DUP3 DUP5 ADD DUP2 SWAP1 MSTORE PUSH1 0x8 DUP4 DUP15 ADD DUP2 SWAP1 MSTORE DUP13 DUP15 ADD SWAP4 SWAP1 SWAP4 MSTORE DUP13 MLOAD DUP1 DUP9 ADD DUP15 MSTORE DUP12 DUP2 MSTORE DUP1 DUP6 ADD SWAP7 SWAP1 SWAP7 MSTORE DUP6 DUP14 ADD DUP3 SWAP1 MSTORE DUP7 DUP13 ADD SWAP6 SWAP1 SWAP6 MSTORE DUP12 MLOAD DUP1 DUP8 ADD DUP14 MSTORE SWAP8 DUP9 MSTORE DUP8 DUP4 ADD DUP5 SWAP1 MSTORE DUP8 DUP13 ADD SWAP5 SWAP1 SWAP5 MSTORE PUSH1 0x80 DUP11 ADD SWAP7 SWAP1 SWAP7 MSTORE DUP10 MLOAD DUP1 DUP6 ADD DUP12 MSTORE DUP8 DUP2 MSTORE DUP1 DUP3 ADD SWAP6 SWAP1 SWAP6 MSTORE DUP5 DUP11 ADD DUP7 SWAP1 MSTORE PUSH1 0xA0 DUP10 ADD SWAP5 SWAP1 SWAP5 MSTORE DUP9 MLOAD DUP1 DUP5 ADD DUP11 MSTORE SWAP7 DUP8 MSTORE DUP7 DUP5 ADD DUP2 SWAP1 MSTORE DUP7 DUP10 ADD DUP6 SWAP1 MSTORE PUSH1 0xC0 DUP9 ADD SWAP7 SWAP1 SWAP7 MSTORE DUP8 MLOAD SWAP2 DUP3 ADD DUP9 MSTORE SWAP4 DUP2 MSTORE SWAP1 DUP2 ADD SWAP4 SWAP1 SWAP4 MSTORE SWAP4 DUP3 ADD DUP2 SWAP1 MSTORE PUSH1 0xE0 DUP4 ADD SWAP2 SWAP1 SWAP2 MSTORE PUSH3 0x1CC SWAP3 SWAP1 SWAP2 SWAP1 PUSH3 0x23E JUMP JUMPDEST POP CALLVALUE DUP1 ISZERO PUSH3 0x1DA JUMPI PUSH1 0x0 DUP1 REVERT JUMPDEST POP PUSH3 0x515 JUMP JUMPDEST DUP3 DUP1 SLOAD DUP3 DUP3 SSTORE SWAP1 PUSH1 0x0 MSTORE PUSH1 0x20 PUSH1 0x0 KECCAK256 SWAP1 DUP2 ADD SWAP3 DUP3 ISZERO PUSH3 0x22C JUMPI SWAP2 PUSH1 0x20 MUL DUP3 ADD JUMPDEST DUP3 DUP2 GT ISZERO PUSH3 0x22C JUMPI DUP3 MLOAD DUP3 SWAP1 PUSH3 0x21B SWAP1 DUP3 PUSH3 0x449 JUMP JUMPDEST POP SWAP2 PUSH1 0x20 ADD SWAP2 SWAP1 PUSH1 0x1 ADD SWAP1 PUSH3 0x202 JUMP JUMPDEST POP PUSH3 0x23A SWAP3 SWAP2 POP PUSH3 0x298 JUMP JUMPDEST POP SWAP1 JUMP JUMPDEST DUP3 DUP1 SLOAD DUP3 DUP3 SSTORE SWAP1 PUSH1 0x0 MSTORE PUSH1 0x20 PUSH1 0x0 KECCAK256 SWAP1 DUP2 ADD SWAP3 DUP3 ISZERO PUSH3 0x28A JUMPI SWAP2 PUSH1 0x20 MUL DUP3 ADD JUMPDEST DUP3 DUP2 GT ISZERO PUSH3 0x28A JUMPI DUP3 MLOAD PUSH3 0x279 SWAP1 DUP4 SWAP1 PUSH1 0x3 PUSH3 0x2B9 JUMP JUMPDEST POP SWAP2 PUSH1 0x20 ADD SWAP2 SWAP1 PUSH1 0x1 ADD SWAP1 PUSH3 0x25F JUMP JUMPDEST POP PUSH3 0x23A SWAP3 SWAP2 POP PUSH3 0x30A JUMP JUMPDEST DUP1 DUP3 GT ISZERO PUSH3 0x23A JUMPI PUSH1 0x0 PUSH3 0x2AF DUP3 DUP3 PUSH3 0x32B JUMP JUMPDEST POP PUSH1 0x1 ADD PUSH3 0x298 JUMP JUMPDEST DUP3 DUP1 SLOAD DUP3 DUP3 SSTORE SWAP1 PUSH1 0x0 MSTORE PUSH1 0x20 PUSH1 0x0 KECCAK256 SWAP1 DUP2 ADD SWAP3 DUP3 ISZERO PUSH3 0x2FC JUMPI SWAP2 PUSH1 0x20 MUL DUP3 ADD JUMPDEST DUP3 DUP2 GT ISZERO PUSH3 0x2FC JUMPI DUP3 MLOAD DUP3 SWAP1 PUSH1 0xFF AND SWAP1 SSTORE SWAP2 PUSH1 0x20 ADD SWAP2 SWAP1 PUSH1 0x1 ADD SWAP1 PUSH3 0x2DA JUMP JUMPDEST POP PUSH3 0x23A SWAP3 SWAP2 POP PUSH3 0x36D JUMP JUMPDEST DUP1 DUP3 GT ISZERO PUSH3 0x23A JUMPI PUSH1 0x0 PUSH3 0x321 DUP3 DUP3 PUSH3 0x384 JUMP JUMPDEST POP PUSH1 0x1 ADD PUSH3 0x30A JUMP JUMPDEST POP DUP1 SLOAD PUSH3 0x339 SWAP1 PUSH3 0x3BA JUMP JUMPDEST PUSH1 0x0 DUP3 SSTORE DUP1 PUSH1 0x1F LT PUSH3 0x34A JUMPI POP POP JUMP JUMPDEST PUSH1 0x1F ADD PUSH1 0x20 SWAP1 DIV SWAP1 PUSH1 0x0 MSTORE PUSH1 0x20 PUSH1 0x0 KECCAK256 SWAP1 DUP2 ADD SWAP1 PUSH3 0x36A SWAP2 SWAP1 PUSH3 0x36D JUMP JUMPDEST POP JUMP JUMPDEST JUMPDEST DUP1 DUP3 GT ISZERO PUSH3 0x23A JUMPI PUSH1 0x0 DUP2 SSTORE PUSH1 0x1 ADD PUSH3 0x36E JUMP JUMPDEST POP DUP1 SLOAD PUSH1 0x0 DUP3 SSTORE SWAP1 PUSH1 0x0 MSTORE PUSH1 0x20 PUSH1 0x0 KECCAK256 SWAP1 DUP2 ADD SWAP1 PUSH3 0x36A SWAP2 SWAP1 PUSH3 0x36D JUMP JUMPDEST PUSH4 0x4E487B71 PUSH1 0xE0 SHL PUSH1 0x0 MSTORE PUSH1 0x41 PUSH1 0x4 MSTORE PUSH1 0x24 PUSH1 0x0 REVERT JUMPDEST PUSH1 0x1 DUP2 DUP2 SHR SWAP1 DUP3 AND DUP1 PUSH3 0x3CF JUMPI PUSH1 0x7F DUP3 AND SWAP2 POP JUMPDEST PUSH1 0x20 DUP3 LT DUP2 SUB PUSH3 0x3F0 JUMPI PUSH4 0x4E487B71 PUSH1 0xE0 SHL PUSH1 0x0 MSTORE PUSH1 0x22 PUSH1 0x4 MSTORE PUSH1 0x24 PUSH1 0x0 REVERT JUMPDEST POP SWAP2 SWAP1 POP JUMP JUMPDEST PUSH1 0x1F DUP3 GT ISZERO PUSH3 0x444 JUMPI PUSH1 0x0 DUP2 DUP2 MSTORE PUSH1 0x20 DUP2 KECCAK256 PUSH1 0x1F DUP6 ADD PUSH1 0x5 SHR DUP2 ADD PUSH1 0x20 DUP7 LT ISZERO PUSH3 0x41F JUMPI POP DUP1 JUMPDEST PUSH1 0x1F DUP6 ADD PUSH1 0x5 SHR DUP3 ADD SWAP2 POP JUMPDEST DUP2 DUP2 LT ISZERO PUSH3 0x440 JUMPI DUP3 DUP2 SSTORE PUSH1 0x1 ADD PUSH3 0x42B JUMP JUMPDEST POP POP POP JUMPDEST POP POP POP JUMP JUMPDEST DUP2 MLOAD PUSH1 0x1 PUSH1 0x1 PUSH1 0x40 SHL SUB DUP2 GT ISZERO PUSH3 0x465 JUMPI PUSH3 0x465 PUSH3 0x3A4 JUMP JUMPDEST PUSH3 0x47D DUP2 PUSH3 0x476 DUP5 SLOAD PUSH3 0x3BA JUMP JUMPDEST DUP5 PUSH3 0x3F6 JUMP JUMPDEST PUSH1 0x20 DUP1 PUSH1 0x1F DUP4 GT PUSH1 0x1 DUP2 EQ PUSH3 0x4B5 JUMPI PUSH1 0x0 DUP5 ISZERO PUSH3 0x49C JUMPI POP DUP6 DUP4 ADD MLOAD JUMPDEST PUSH1 0x0 NOT PUSH1 0x3 DUP7 SWAP1 SHL SHR NOT AND PUSH1 0x1 DUP6 SWAP1 SHL OR DUP6 SSTORE PUSH3 0x440 JUMP JUMPDEST PUSH1 0x0 DUP6 DUP2 MSTORE PUSH1 0x20 DUP2 KECCAK256 PUSH1 0x1F NOT DUP7 AND SWAP2 JUMPDEST DUP3 DUP2 LT ISZERO PUSH3 0x4E6 JUMPI DUP9 DUP7 ADD MLOAD DUP3 SSTORE SWAP5 DUP5 ADD SWAP5 PUSH1 0x1 SWAP1 SWAP2 ADD SWAP1 DUP5 ADD PUSH3 0x4C5 JUMP JUMPDEST POP DUP6 DUP3 LT ISZERO PUSH3 0x505 JUMPI DUP8 DUP6 ADD MLOAD PUSH1 0x0 NOT PUSH1 0x3 DUP9 SWAP1 SHL PUSH1 0xF8 AND SHR NOT AND DUP2 SSTORE JUMPDEST POP POP POP POP POP PUSH1 0x1 SWAP1 DUP2 SHL ADD SWAP1 SSTORE POP JUMP JUMPDEST PUSH2 0x1301 DUP1 PUSH3 0x525 PUSH1 0x0 CODECOPY PUSH1 0x0 RETURN INVALID PUSH1 0x80 PUSH1 0x40 MSTORE CALLVALUE DUP1 ISZERO PUSH2 0x10 JUMPI PUSH1 0x0 DUP1 REVERT JUMPDEST POP PUSH1 0x4 CALLDATASIZE LT PUSH2 0x88 JUMPI PUSH1 0x0 CALLDATALOAD PUSH1 0xE0 SHR DUP1 PUSH4 0x7D39620B GT PUSH2 0x5B JUMPI DUP1 PUSH4 0x7D39620B EQ PUSH2 0x10B JUMPI DUP1 PUSH4 0x8D25AF04 EQ PUSH2 0x11E JUMPI DUP1 PUSH4 0xBED34BBA EQ PUSH2 0x126 JUMPI DUP1 PUSH4 0xD4F77B1C EQ PUSH2 0x149 JUMPI PUSH1 0x0 DUP1 REVERT JUMPDEST DUP1 PUSH4 0x409E2205 EQ PUSH2 0x8D JUMPI DUP1 PUSH4 0x52FC4855 EQ PUSH2 0xB6 JUMPI DUP1 PUSH4 0x55A5C301 EQ PUSH2 0xCB JUMPI DUP1 PUSH4 0x63F4150E EQ PUSH2 0xF6 JUMPI JUMPDEST PUSH1 0x0 DUP1 REVERT JUMPDEST PUSH2 0xA0 PUSH2 0x9B CALLDATASIZE PUSH1 0x4 PUSH2 0xDD7 JUMP JUMPDEST PUSH2 0x151 JUMP JUMPDEST PUSH1 0x40 MLOAD PUSH2 0xAD SWAP2 SWAP1 PUSH2 0xE40 JUMP JUMPDEST PUSH1 0x40 MLOAD DUP1 SWAP2 SUB SWAP1 RETURN JUMPDEST PUSH2 0xC9 PUSH2 0xC4 CALLDATASIZE PUSH1 0x4 PUSH2 0xDD7 JUMP JUMPDEST PUSH2 0x1FD JUMP JUMPDEST STOP JUMPDEST PUSH1 0x0 SLOAD PUSH2 0xDE SWAP1 PUSH1 0x1 PUSH1 0x1 PUSH1 0xA0 SHL SUB AND DUP2 JUMP JUMPDEST PUSH1 0x40 MLOAD PUSH1 0x1 PUSH1 0x1 PUSH1 0xA0 SHL SUB SWAP1 SWAP2 AND DUP2 MSTORE PUSH1 0x20 ADD PUSH2 0xAD JUMP JUMPDEST PUSH2 0xFE PUSH2 0x385 JUMP JUMPDEST PUSH1 0x40 MLOAD PUSH2 0xAD SWAP2 SWAP1 PUSH2 0xE5A JUMP JUMPDEST PUSH1 0x1 SLOAD PUSH2 0xDE SWAP1 PUSH1 0x1 PUSH1 0x1 PUSH1 0xA0 SHL SUB AND DUP2 JUMP JUMPDEST PUSH2 0xC9 PUSH2 0x45E JUMP JUMPDEST PUSH2 0x139 PUSH2 0x134 CALLDATASIZE PUSH1 0x4 PUSH2 0xF5F JUMP JUMPDEST PUSH2 0x538 JUMP JUMPDEST PUSH1 0x40 MLOAD SWAP1 ISZERO ISZERO DUP2 MSTORE PUSH1 0x20 ADD PUSH2 0xAD JUMP JUMPDEST PUSH2 0xC9 PUSH2 0x591 JUMP JUMPDEST PUSH1 0x3 DUP2 DUP2 SLOAD DUP2 LT PUSH2 0x161 JUMPI PUSH1 0x0 DUP1 REVERT JUMPDEST SWAP1 PUSH1 0x0 MSTORE PUSH1 0x20 PUSH1 0x0 KECCAK256 ADD PUSH1 0x0 SWAP2 POP SWAP1 POP DUP1 SLOAD PUSH2 0x17C SWAP1 PUSH2 0xFC3 JUMP JUMPDEST DUP1 PUSH1 0x1F ADD PUSH1 0x20 DUP1 SWAP2 DIV MUL PUSH1 0x20 ADD PUSH1 0x40 MLOAD SWAP1 DUP2 ADD PUSH1 0x40 MSTORE DUP1 SWAP3 SWAP2 SWAP1 DUP2 DUP2 MSTORE PUSH1 0x20 ADD DUP3 DUP1 SLOAD PUSH2 0x1A8 SWAP1 PUSH2 0xFC3 JUMP JUMPDEST DUP1 ISZERO PUSH2 0x1F5 JUMPI DUP1 PUSH1 0x1F LT PUSH2 0x1CA JUMPI PUSH2 0x100 DUP1 DUP4 SLOAD DIV MUL DUP4 MSTORE SWAP2 PUSH1 0x20 ADD SWAP2 PUSH2 0x1F5 JUMP JUMPDEST DUP3 ADD SWAP2 SWAP1 PUSH1 0x0 MSTORE PUSH1 0x20 PUSH1 0x0 KECCAK256 SWAP1 JUMPDEST DUP2 SLOAD DUP2 MSTORE SWAP1 PUSH1 0x1 ADD SWAP1 PUSH1 0x20 ADD DUP1 DUP4 GT PUSH2 0x1D8 JUMPI DUP3 SWAP1 SUB PUSH1 0x1F AND DUP3 ADD SWAP2 JUMPDEST POP POP POP POP POP DUP2 JUMP JUMPDEST PUSH1 0x4 SLOAD PUSH1 0xFF AND PUSH2 0x254 JUMPI PUSH1 0x40 MLOAD PUSH3 0x461BCD PUSH1 0xE5 SHL DUP2 MSTORE PUSH1 0x20 PUSH1 0x4 DUP3 ADD MSTORE PUSH1 0x1C PUSH1 0x24 DUP3 ADD MSTORE PUSH32 0x5468652067616D65207374696C6C206E6F742073746172742079657400000000 PUSH1 0x44 DUP3 ADD MSTORE PUSH1 0x64 ADD JUMPDEST PUSH1 0x40 MLOAD DUP1 SWAP2 SUB SWAP1 REVERT JUMPDEST PUSH2 0x312 PUSH1 0x3 DUP3 DUP2 SLOAD DUP2 LT PUSH2 0x26A JUMPI PUSH2 0x26A PUSH2 0xFFD JUMP JUMPDEST SWAP1 PUSH1 0x0 MSTORE PUSH1 0x20 PUSH1 0x0 KECCAK256 ADD DUP1 SLOAD PUSH2 0x27F SWAP1 PUSH2 0xFC3 JUMP JUMPDEST DUP1 PUSH1 0x1F ADD PUSH1 0x20 DUP1 SWAP2 DIV MUL PUSH1 0x20 ADD PUSH1 0x40 MLOAD SWAP1 DUP2 ADD PUSH1 0x40 MSTORE DUP1 SWAP3 SWAP2 SWAP1 DUP2 DUP2 MSTORE PUSH1 0x20 ADD DUP3 DUP1 SLOAD PUSH2 0x2AB SWAP1 PUSH2 0xFC3 JUMP JUMPDEST DUP1 ISZERO PUSH2 0x2F8 JUMPI DUP1 PUSH1 0x1F LT PUSH2 0x2CD JUMPI PUSH2 0x100 DUP1 DUP4 SLOAD DIV MUL DUP4 MSTORE SWAP2 PUSH1 0x20 ADD SWAP2 PUSH2 0x2F8 JUMP JUMPDEST DUP3 ADD SWAP2 SWAP1 PUSH1 0x0 MSTORE PUSH1 0x20 PUSH1 0x0 KECCAK256 SWAP1 JUMPDEST DUP2 SLOAD DUP2 MSTORE SWAP1 PUSH1 0x1 ADD SWAP1 PUSH1 0x20 ADD DUP1 DUP4 GT PUSH2 0x2DB JUMPI DUP3 SWAP1 SUB PUSH1 0x1F AND DUP3 ADD SWAP2 JUMPDEST POP POP POP POP POP PUSH1 0x40 MLOAD DUP1 PUSH1 0x20 ADD PUSH1 0x40 MSTORE DUP1 PUSH1 0x0 DUP2 MSTORE POP PUSH2 0x538 JUMP JUMPDEST PUSH2 0x34E JUMPI PUSH1 0x40 MLOAD PUSH3 0x461BCD PUSH1 0xE5 SHL DUP2 MSTORE PUSH1 0x20 PUSH1 0x4 DUP3 ADD MSTORE PUSH1 0xD PUSH1 0x24 DUP3 ADD MSTORE PUSH13 0x125B9D985B1A59081A5B9C1D5D PUSH1 0x9A SHL PUSH1 0x44 DUP3 ADD MSTORE PUSH1 0x64 ADD PUSH2 0x24B JUMP JUMPDEST PUSH1 0x5 PUSH1 0x3 DUP3 DUP2 SLOAD DUP2 LT PUSH2 0x363 JUMPI PUSH2 0x363 PUSH2 0xFFD JUMP JUMPDEST SWAP1 PUSH1 0x0 MSTORE PUSH1 0x20 PUSH1 0x0 KECCAK256 ADD SWAP1 DUP2 PUSH2 0x379 SWAP2 SWAP1 PUSH2 0x1062 JUMP JUMPDEST POP PUSH2 0x382 PUSH2 0x717 JUMP JUMPDEST POP JUMP JUMPDEST PUSH1 0x60 PUSH1 0x3 DUP1 SLOAD DUP1 PUSH1 0x20 MUL PUSH1 0x20 ADD PUSH1 0x40 MLOAD SWAP1 DUP2 ADD PUSH1 0x40 MSTORE DUP1 SWAP3 SWAP2 SWAP1 DUP2 DUP2 MSTORE PUSH1 0x20 ADD PUSH1 0x0 SWAP1 JUMPDEST DUP3 DUP3 LT ISZERO PUSH2 0x455 JUMPI DUP4 DUP3 SWAP1 PUSH1 0x0 MSTORE PUSH1 0x20 PUSH1 0x0 KECCAK256 ADD DUP1 SLOAD PUSH2 0x3C8 SWAP1 PUSH2 0xFC3 JUMP JUMPDEST DUP1 PUSH1 0x1F ADD PUSH1 0x20 DUP1 SWAP2 DIV MUL PUSH1 0x20 ADD PUSH1 0x40 MLOAD SWAP1 DUP2 ADD PUSH1 0x40 MSTORE DUP1 SWAP3 SWAP2 SWAP1 DUP2 DUP2 MSTORE PUSH1 0x20 ADD DUP3 DUP1 SLOAD PUSH2 0x3F4 SWAP1 PUSH2 0xFC3 JUMP JUMPDEST DUP1 ISZERO PUSH2 0x441 JUMPI DUP1 PUSH1 0x1F LT PUSH2 0x416 JUMPI PUSH2 0x100 DUP1 DUP4 SLOAD DIV MUL DUP4 MSTORE SWAP2 PUSH1 0x20 ADD SWAP2 PUSH2 0x441 JUMP JUMPDEST DUP3 ADD SWAP2 SWAP1 PUSH1 0x0 MSTORE PUSH1 0x20 PUSH1 0x0 KECCAK256 SWAP1 JUMPDEST DUP2 SLOAD DUP2 MSTORE SWAP1 PUSH1 0x1 ADD SWAP1 PUSH1 0x20 ADD DUP1 DUP4 GT PUSH2 0x424 JUMPI DUP3 SWAP1 SUB PUSH1 0x1F AND DUP3 ADD SWAP2 JUMPDEST POP POP POP POP POP DUP2 MSTORE PUSH1 0x20 ADD SWAP1 PUSH1 0x1 ADD SWAP1 PUSH2 0x3A9 JUMP JUMPDEST POP POP POP POP SWAP1 POP SWAP1 JUMP JUMPDEST PUSH1 0x40 DUP1 MLOAD DUP1 DUP3 ADD SWAP1 SWAP2 MSTORE PUSH1 0x1 DUP2 MSTORE PUSH1 0xB PUSH1 0xFB SHL PUSH1 0x20 DUP3 ADD MSTORE PUSH1 0x5 SWAP1 PUSH2 0x483 SWAP1 DUP3 PUSH2 0x1143 JUMP JUMPDEST POP PUSH1 0x40 DUP1 MLOAD PUSH2 0x140 DUP2 ADD DUP3 MSTORE PUSH1 0x0 PUSH2 0x120 DUP3 ADD DUP2 DUP2 MSTORE DUP3 MSTORE DUP3 MLOAD PUSH1 0x20 DUP2 DUP2 ADD DUP6 MSTORE DUP3 DUP3 MSTORE DUP1 DUP5 ADD SWAP2 SWAP1 SWAP2 MSTORE DUP4 MLOAD DUP1 DUP3 ADD DUP6 MSTORE DUP3 DUP2 MSTORE DUP4 DUP6 ADD MSTORE DUP4 MLOAD DUP1 DUP3 ADD DUP6 MSTORE DUP3 DUP2 MSTORE PUSH1 0x60 DUP5 ADD MSTORE DUP4 MLOAD DUP1 DUP3 ADD DUP6 MSTORE DUP3 DUP2 MSTORE PUSH1 0x80 DUP5 ADD MSTORE DUP4 MLOAD DUP1 DUP3 ADD DUP6 MSTORE DUP3 DUP2 MSTORE PUSH1 0xA0 DUP5 ADD MSTORE DUP4 MLOAD DUP1 DUP3 ADD DUP6 MSTORE DUP3 DUP2 MSTORE PUSH1 0xC0 DUP5 ADD MSTORE DUP4 MLOAD DUP1 DUP3 ADD DUP6 MSTORE DUP3 DUP2 MSTORE PUSH1 0xE0 DUP5 ADD MSTORE DUP4 MLOAD SWAP1 DUP2 ADD SWAP1 SWAP4 MSTORE DUP3 MSTORE PUSH2 0x100 DUP2 ADD SWAP2 SWAP1 SWAP2 MSTORE PUSH2 0x528 SWAP1 PUSH1 0x3 SWAP1 PUSH1 0x9 PUSH2 0xD1A JUMP JUMPDEST POP PUSH1 0x4 DUP1 SLOAD PUSH1 0xFF NOT AND PUSH1 0x1 OR SWAP1 SSTORE JUMP JUMPDEST PUSH1 0x0 DUP2 PUSH1 0x40 MLOAD PUSH1 0x20 ADD PUSH2 0x54B SWAP2 SWAP1 PUSH2 0x11FD JUMP JUMPDEST PUSH1 0x40 MLOAD PUSH1 0x20 DUP2 DUP4 SUB SUB DUP2 MSTORE SWAP1 PUSH1 0x40 MSTORE DUP1 MLOAD SWAP1 PUSH1 0x20 ADD KECCAK256 DUP4 PUSH1 0x40 MLOAD PUSH1 0x20 ADD PUSH2 0x572 SWAP2 SWAP1 PUSH2 0x11FD JUMP JUMPDEST PUSH1 0x40 MLOAD PUSH1 0x20 DUP2 DUP4 SUB SUB DUP2 MSTORE SWAP1 PUSH1 0x40 MSTORE DUP1 MLOAD SWAP1 PUSH1 0x20 ADD KECCAK256 EQ SWAP1 POP SWAP3 SWAP2 POP POP JUMP JUMPDEST PUSH1 0x2 SLOAD PUSH1 0x0 SUB PUSH2 0x5C2 JUMPI PUSH1 0x0 DUP1 SLOAD PUSH1 0x1 PUSH1 0x1 PUSH1 0xA0 SHL SUB NOT AND CALLER OR DUP2 SSTORE PUSH1 0x2 DUP1 SLOAD SWAP2 PUSH2 0x5BB DUP4 PUSH2 0x1219 JUMP JUMPDEST SWAP2 SWAP1 POP SSTORE POP JUMP JUMPDEST PUSH1 0x2 SLOAD PUSH1 0x1 SUB PUSH2 0x6B8 JUMPI PUSH1 0x0 SLOAD PUSH1 0x1 PUSH1 0x1 PUSH1 0xA0 SHL SUB AND CALLER SUB PUSH2 0x632 JUMPI PUSH1 0x40 MLOAD PUSH3 0x461BCD PUSH1 0xE5 SHL DUP2 MSTORE PUSH1 0x20 PUSH1 0x4 DUP3 ADD MSTORE PUSH1 0x24 DUP1 DUP3 ADD MSTORE PUSH32 0x4572726F723A20596F752063616E6E6F7420706C6179207769746820796F7572 PUSH1 0x44 DUP3 ADD MSTORE PUSH4 0x39B2B633 PUSH1 0xE1 SHL PUSH1 0x64 DUP3 ADD MSTORE PUSH1 0x84 ADD PUSH2 0x24B JUMP JUMPDEST PUSH1 0x2 DUP1 SLOAD SWAP1 PUSH1 0x0 PUSH2 0x642 DUP4 PUSH2 0x1219 JUMP JUMPDEST SWAP1 SWAP2 SSTORE POP POP PUSH1 0x0 SLOAD PUSH1 0x1 SLOAD PUSH1 0x40 DUP1 MLOAD PUSH1 0x60 DUP1 DUP3 MSTORE PUSH1 0xB SWAP1 DUP3 ADD MSTORE PUSH11 0x53746172742067616D6521 PUSH1 0xA8 SHL PUSH1 0x80 DUP3 ADD MSTORE PUSH1 0x1 PUSH1 0x1 PUSH1 0xA0 SHL SUB SWAP4 DUP5 AND PUSH1 0x20 DUP3 ADD MSTORE SWAP3 SWAP1 SWAP2 AND SWAP1 DUP3 ADD MSTORE PUSH32 0xE731305B65099C3B743324657B0EF6CC0638875C5469A8E5BDE1765300C0B9B2 SWAP1 PUSH1 0xA0 ADD JUMPDEST PUSH1 0x40 MLOAD DUP1 SWAP2 SUB SWAP1 LOG1 JUMP JUMPDEST PUSH32 0xE955CCAF7888EFCAF9248F6FE09C3CE81CC6C6B8D5049B7E597604B9FDA4F5A0 PUSH1 0x40 MLOAD PUSH2 0x6AE SWAP1 PUSH1 0x20 DUP1 DUP3 MSTORE PUSH1 0x1C SWAP1 DUP3 ADD MSTORE PUSH32 0x4E6F772071756575652069732066756C6C2C20747279206C6174657200000000 PUSH1 0x40 DUP3 ADD MSTORE PUSH1 0x60 ADD SWAP1 JUMP JUMPDEST PUSH1 0x0 DUP1 JUMPDEST PUSH1 0x6 SLOAD DUP2 LT ISZERO PUSH2 0xA8A JUMPI PUSH1 0x0 PUSH1 0x6 DUP3 DUP2 SLOAD DUP2 LT PUSH2 0x73A JUMPI PUSH2 0x73A PUSH2 0xFFD JUMP JUMPDEST SWAP1 PUSH1 0x0 MSTORE PUSH1 0x20 PUSH1 0x0 KECCAK256 ADD DUP1 SLOAD DUP1 PUSH1 0x20 MUL PUSH1 0x20 ADD PUSH1 0x40 MLOAD SWAP1 DUP2 ADD PUSH1 0x40 MSTORE DUP1 SWAP3 SWAP2 SWAP1 DUP2 DUP2 MSTORE PUSH1 0x20 ADD DUP3 DUP1 SLOAD DUP1 ISZERO PUSH2 0x78E JUMPI PUSH1 0x20 MUL DUP3 ADD SWAP2 SWAP1 PUSH1 0x0 MSTORE PUSH1 0x20 PUSH1 0x0 KECCAK256 SWAP1 JUMPDEST DUP2 SLOAD DUP2 MSTORE PUSH1 0x20 ADD SWAP1 PUSH1 0x1 ADD SWAP1 DUP1 DUP4 GT PUSH2 0x77A JUMPI JUMPDEST POP POP POP POP POP SWAP1 POP PUSH1 0x0 PUSH1 0x3 DUP3 PUSH1 0x0 DUP2 MLOAD DUP2 LT PUSH2 0x7AC JUMPI PUSH2 0x7AC PUSH2 0xFFD JUMP JUMPDEST PUSH1 0x20 MUL PUSH1 0x20 ADD ADD MLOAD DUP2 SLOAD DUP2 LT PUSH2 0x7C4 JUMPI PUSH2 0x7C4 PUSH2 0xFFD JUMP JUMPDEST SWAP1 PUSH1 0x0 MSTORE PUSH1 0x20 PUSH1 0x0 KECCAK256 ADD DUP1 SLOAD PUSH2 0x7D9 SWAP1 PUSH2 0xFC3 JUMP JUMPDEST DUP1 PUSH1 0x1F ADD PUSH1 0x20 DUP1 SWAP2 DIV MUL PUSH1 0x20 ADD PUSH1 0x40 MLOAD SWAP1 DUP2 ADD PUSH1 0x40 MSTORE DUP1 SWAP3 SWAP2 SWAP1 DUP2 DUP2 MSTORE PUSH1 0x20 ADD DUP3 DUP1 SLOAD PUSH2 0x805 SWAP1 PUSH2 0xFC3 JUMP JUMPDEST DUP1 ISZERO PUSH2 0x852 JUMPI DUP1 PUSH1 0x1F LT PUSH2 0x827 JUMPI PUSH2 0x100 DUP1 DUP4 SLOAD DIV MUL DUP4 MSTORE SWAP2 PUSH1 0x20 ADD SWAP2 PUSH2 0x852 JUMP JUMPDEST DUP3 ADD SWAP2 SWAP1 PUSH1 0x0 MSTORE PUSH1 0x20 PUSH1 0x0 KECCAK256 SWAP1 JUMPDEST DUP2 SLOAD DUP2 MSTORE SWAP1 PUSH1 0x1 ADD SWAP1 PUSH1 0x20 ADD DUP1 DUP4 GT PUSH2 0x835 JUMPI DUP3 SWAP1 SUB PUSH1 0x1F AND DUP3 ADD SWAP2 JUMPDEST POP POP POP POP POP SWAP1 POP PUSH1 0x0 PUSH1 0x3 DUP4 PUSH1 0x1 DUP2 MLOAD DUP2 LT PUSH2 0x870 JUMPI PUSH2 0x870 PUSH2 0xFFD JUMP JUMPDEST PUSH1 0x20 MUL PUSH1 0x20 ADD ADD MLOAD DUP2 SLOAD DUP2 LT PUSH2 0x888 JUMPI PUSH2 0x888 PUSH2 0xFFD JUMP JUMPDEST SWAP1 PUSH1 0x0 MSTORE PUSH1 0x20 PUSH1 0x0 KECCAK256 ADD DUP1 SLOAD PUSH2 0x89D SWAP1 PUSH2 0xFC3 JUMP JUMPDEST DUP1 PUSH1 0x1F ADD PUSH1 0x20 DUP1 SWAP2 DIV MUL PUSH1 0x20 ADD PUSH1 0x40 MLOAD SWAP1 DUP2 ADD PUSH1 0x40 MSTORE DUP1 SWAP3 SWAP2 SWAP1 DUP2 DUP2 MSTORE PUSH1 0x20 ADD DUP3 DUP1 SLOAD PUSH2 0x8C9 SWAP1 PUSH2 0xFC3 JUMP JUMPDEST DUP1 ISZERO PUSH2 0x916 JUMPI DUP1 PUSH1 0x1F LT PUSH2 0x8EB JUMPI PUSH2 0x100 DUP1 DUP4 SLOAD DIV MUL DUP4 MSTORE SWAP2 PUSH1 0x20 ADD SWAP2 PUSH2 0x916 JUMP JUMPDEST DUP3 ADD SWAP2 SWAP1 PUSH1 0x0 MSTORE PUSH1 0x20 PUSH1 0x0 KECCAK256 SWAP1 JUMPDEST DUP2 SLOAD DUP2 MSTORE SWAP1 PUSH1 0x1 ADD SWAP1 PUSH1 0x20 ADD DUP1 DUP4 GT PUSH2 0x8F9 JUMPI DUP3 SWAP1 SUB PUSH1 0x1F AND DUP3 ADD SWAP2 JUMPDEST POP POP POP POP POP SWAP1 POP PUSH1 0x0 PUSH1 0x3 DUP5 PUSH1 0x2 DUP2 MLOAD DUP2 LT PUSH2 0x934 JUMPI PUSH2 0x934 PUSH2 0xFFD JUMP JUMPDEST PUSH1 0x20 MUL PUSH1 0x20 ADD ADD MLOAD DUP2 SLOAD DUP2 LT PUSH2 0x94C JUMPI PUSH2 0x94C PUSH2 0xFFD JUMP JUMPDEST SWAP1 PUSH1 0x0 MSTORE PUSH1 0x20 PUSH1 0x0 KECCAK256 ADD DUP1 SLOAD PUSH2 0x961 SWAP1 PUSH2 0xFC3 JUMP JUMPDEST DUP1 PUSH1 0x1F ADD PUSH1 0x20 DUP1 SWAP2 DIV MUL PUSH1 0x20 ADD PUSH1 0x40 MLOAD SWAP1 DUP2 ADD PUSH1 0x40 MSTORE DUP1 SWAP3 SWAP2 SWAP1 DUP2 DUP2 MSTORE PUSH1 0x20 ADD DUP3 DUP1 SLOAD PUSH2 0x98D SWAP1 PUSH2 0xFC3 JUMP JUMPDEST DUP1 ISZERO PUSH2 0x9DA JUMPI DUP1 PUSH1 0x1F LT PUSH2 0x9AF JUMPI PUSH2 0x100 DUP1 DUP4 SLOAD DIV MUL DUP4 MSTORE SWAP2 PUSH1 0x20 ADD SWAP2 PUSH2 0x9DA JUMP JUMPDEST DUP3 ADD SWAP2 SWAP1 PUSH1 0x0 MSTORE PUSH1 0x20 PUSH1 0x0 KECCAK256 SWAP1 JUMPDEST DUP2 SLOAD DUP2 MSTORE SWAP1 PUSH1 0x1 ADD SWAP1 PUSH1 0x20 ADD DUP1 DUP4 GT PUSH2 0x9BD JUMPI DUP3 SWAP1 SUB PUSH1 0x1F AND DUP3 ADD SWAP2 JUMPDEST POP POP POP POP POP SWAP1 POP PUSH2 0x9FA DUP4 PUSH1 0x40 MLOAD DUP1 PUSH1 0x20 ADD PUSH1 0x40 MSTORE DUP1 PUSH1 0x0 DUP2 MSTORE POP PUSH2 0x538 JUMP JUMPDEST DUP1 PUSH2 0xA19 JUMPI POP PUSH2 0xA19 DUP3 PUSH1 0x40 MLOAD DUP1 PUSH1 0x20 ADD PUSH1 0x40 MSTORE DUP1 PUSH1 0x0 DUP2 MSTORE POP PUSH2 0x538 JUMP JUMPDEST DUP1 PUSH2 0xA38 JUMPI POP PUSH2 0xA38 DUP2 PUSH1 0x40 MLOAD DUP1 PUSH1 0x20 ADD PUSH1 0x40 MSTORE DUP1 PUSH1 0x0 DUP2 MSTORE POP PUSH2 0x538 JUMP JUMPDEST ISZERO PUSH2 0xA46 JUMPI POP POP POP POP PUSH2 0xA78 JUMP JUMPDEST PUSH2 0xA50 DUP4 DUP4 PUSH2 0x538 JUMP JUMPDEST DUP1 ISZERO PUSH2 0xA61 JUMPI POP PUSH2 0xA61 DUP3 DUP3 PUSH2 0x538 JUMP JUMPDEST ISZERO PUSH2 0xA73 JUMPI PUSH1 0x1 SWAP6 POP POP POP POP POP PUSH2 0xA8A JUMP JUMPDEST POP POP POP POP JUMPDEST DUP1 PUSH2 0xA82 DUP2 PUSH2 0x1219 JUMP JUMPDEST SWAP2 POP POP PUSH2 0x71B JUMP JUMPDEST POP DUP1 ISZERO PUSH2 0xAD6 JUMPI PUSH32 0xCDE5C32C0A45FD8AA4B65EA8003FC9DA9ACD5E2C6C24A9FCCE6AB79CABBD9122 PUSH1 0x5 PUSH1 0x40 MLOAD PUSH2 0xAC1 SWAP2 SWAP1 PUSH2 0x1240 JUMP JUMPDEST PUSH1 0x40 MLOAD DUP1 SWAP2 SUB SWAP1 LOG1 PUSH1 0x4 DUP1 SLOAD PUSH1 0xFF NOT AND SWAP1 SSTORE POP JUMP JUMPDEST PUSH2 0xADE PUSH2 0xC74 JUMP JUMPDEST ISZERO PUSH2 0xB34 JUMPI PUSH32 0xCDE5C32C0A45FD8AA4B65EA8003FC9DA9ACD5E2C6C24A9FCCE6AB79CABBD9122 PUSH1 0x40 MLOAD PUSH2 0xB29 SWAP1 PUSH1 0x20 DUP1 DUP3 MSTORE PUSH1 0x4 SWAP1 DUP3 ADD MSTORE PUSH4 0x44726177 PUSH1 0xE0 SHL PUSH1 0x40 DUP3 ADD MSTORE PUSH1 0x60 ADD SWAP1 JUMP JUMPDEST PUSH1 0x40 MLOAD DUP1 SWAP2 SUB SWAP1 LOG1 POP JUMP JUMPDEST PUSH2 0xBE1 PUSH1 0x5 DUP1 SLOAD PUSH2 0xB44 SWAP1 PUSH2 0xFC3 JUMP JUMPDEST DUP1 PUSH1 0x1F ADD PUSH1 0x20 DUP1 SWAP2 DIV MUL PUSH1 0x20 ADD PUSH1 0x40 MLOAD SWAP1 DUP2 ADD PUSH1 0x40 MSTORE DUP1 SWAP3 SWAP2 SWAP1 DUP2 DUP2 MSTORE PUSH1 0x20 ADD DUP3 DUP1 SLOAD PUSH2 0xB70 SWAP1 PUSH2 0xFC3 JUMP JUMPDEST DUP1 ISZERO PUSH2 0xBBD JUMPI DUP1 PUSH1 0x1F LT PUSH2 0xB92 JUMPI PUSH2 0x100 DUP1 DUP4 SLOAD DIV MUL DUP4 MSTORE SWAP2 PUSH1 0x20 ADD SWAP2 PUSH2 0xBBD JUMP JUMPDEST DUP3 ADD SWAP2 SWAP1 PUSH1 0x0 MSTORE PUSH1 0x20 PUSH1 0x0 KECCAK256 SWAP1 JUMPDEST DUP2 SLOAD DUP2 MSTORE SWAP1 PUSH1 0x1 ADD SWAP1 PUSH1 0x20 ADD DUP1 DUP4 GT PUSH2 0xBA0 JUMPI DUP3 SWAP1 SUB PUSH1 0x1F AND DUP3 ADD SWAP2 JUMPDEST POP POP POP POP POP PUSH1 0x40 MLOAD DUP1 PUSH1 0x40 ADD PUSH1 0x40 MSTORE DUP1 PUSH1 0x1 DUP2 MSTORE PUSH1 0x20 ADD PUSH1 0xB PUSH1 0xFB SHL DUP2 MSTORE POP PUSH2 0x538 JUMP JUMPDEST ISZERO PUSH2 0xC2B JUMPI PUSH1 0x1 SLOAD PUSH1 0x40 MLOAD PUSH1 0x1 PUSH1 0x1 PUSH1 0xA0 SHL SUB SWAP1 SWAP2 AND DUP2 MSTORE PUSH32 0xEC121DEBAB367DC6FC2DA219EF2D5CF4E97E648E71F3A199511CF3B4D7D59304 SWAP1 PUSH1 0x20 ADD PUSH1 0x40 MLOAD DUP1 SWAP2 SUB SWAP1 LOG1 PUSH2 0xC6C JUMP JUMPDEST PUSH1 0x0 SLOAD PUSH1 0x40 MLOAD PUSH1 0x1 PUSH1 0x1 PUSH1 0xA0 SHL SUB SWAP1 SWAP2 AND DUP2 MSTORE PUSH32 0xEC121DEBAB367DC6FC2DA219EF2D5CF4E97E648E71F3A199511CF3B4D7D59304 SWAP1 PUSH1 0x20 ADD PUSH1 0x40 MLOAD DUP1 SWAP2 SUB SWAP1 LOG1 JUMPDEST PUSH2 0x382 PUSH2 0xCBF JUMP JUMPDEST PUSH1 0x0 DUP1 JUMPDEST PUSH1 0x3 SLOAD DUP2 LT ISZERO PUSH2 0xCB7 JUMPI PUSH2 0xC98 PUSH1 0x3 DUP3 DUP2 SLOAD DUP2 LT PUSH2 0x26A JUMPI PUSH2 0x26A PUSH2 0xFFD JUMP JUMPDEST ISZERO PUSH2 0xCA5 JUMPI PUSH1 0x0 SWAP2 POP POP SWAP1 JUMP JUMPDEST DUP1 PUSH2 0xCAF DUP2 PUSH2 0x1219 JUMP JUMPDEST SWAP2 POP POP PUSH2 0xC78 JUMP JUMPDEST POP PUSH1 0x1 SWAP1 POP SWAP1 JUMP JUMPDEST PUSH2 0xCCF PUSH1 0x5 DUP1 SLOAD PUSH2 0xB44 SWAP1 PUSH2 0xFC3 JUMP JUMPDEST PUSH2 0xCF2 JUMPI PUSH1 0x40 MLOAD DUP1 PUSH1 0x40 ADD PUSH1 0x40 MSTORE DUP1 PUSH1 0x1 DUP2 MSTORE PUSH1 0x20 ADD PUSH1 0xB PUSH1 0xFB SHL DUP2 MSTORE POP PUSH2 0xD0D JUMP JUMPDEST PUSH1 0x40 MLOAD DUP1 PUSH1 0x40 ADD PUSH1 0x40 MSTORE DUP1 PUSH1 0x1 DUP2 MSTORE PUSH1 0x20 ADD PUSH1 0x4F PUSH1 0xF8 SHL DUP2 MSTORE POP JUMPDEST PUSH1 0x5 SWAP1 PUSH2 0x382 SWAP1 DUP3 PUSH2 0x1143 JUMP JUMPDEST DUP3 DUP1 SLOAD DUP3 DUP3 SSTORE SWAP1 PUSH1 0x0 MSTORE PUSH1 0x20 PUSH1 0x0 KECCAK256 SWAP1 DUP2 ADD SWAP3 DUP3 ISZERO PUSH2 0xD60 JUMPI SWAP2 PUSH1 0x20 MUL DUP3 ADD JUMPDEST DUP3 DUP2 GT ISZERO PUSH2 0xD60 JUMPI DUP3 MLOAD DUP3 SWAP1 PUSH2 0xD50 SWAP1 DUP3 PUSH2 0x1143 JUMP JUMPDEST POP SWAP2 PUSH1 0x20 ADD SWAP2 SWAP1 PUSH1 0x1 ADD SWAP1 PUSH2 0xD3A JUMP JUMPDEST POP PUSH2 0xD6C SWAP3 SWAP2 POP PUSH2 0xD70 JUMP JUMPDEST POP SWAP1 JUMP JUMPDEST DUP1 DUP3 GT ISZERO PUSH2 0xD6C JUMPI PUSH1 0x0 PUSH2 0xD84 DUP3 DUP3 PUSH2 0xD8D JUMP JUMPDEST POP PUSH1 0x1 ADD PUSH2 0xD70 JUMP JUMPDEST POP DUP1 SLOAD PUSH2 0xD99 SWAP1 PUSH2 0xFC3 JUMP JUMPDEST PUSH1 0x0 DUP3 SSTORE DUP1 PUSH1 0x1F LT PUSH2 0xDA9 JUMPI POP POP JUMP JUMPDEST PUSH1 0x1F ADD PUSH1 0x20 SWAP1 DIV SWAP1 PUSH1 0x0 MSTORE PUSH1 0x20 PUSH1 0x0 KECCAK256 SWAP1 DUP2 ADD SWAP1 PUSH2 0x382 SWAP2 SWAP1 JUMPDEST DUP1 DUP3 GT ISZERO PUSH2 0xD6C JUMPI PUSH1 0x0 DUP2 SSTORE PUSH1 0x1 ADD PUSH2 0xDC3 JUMP JUMPDEST PUSH1 0x0 PUSH1 0x20 DUP3 DUP5 SUB SLT ISZERO PUSH2 0xDE9 JUMPI PUSH1 0x0 DUP1 REVERT JUMPDEST POP CALLDATALOAD SWAP2 SWAP1 POP JUMP JUMPDEST PUSH1 0x0 JUMPDEST DUP4 DUP2 LT ISZERO PUSH2 0xE0B JUMPI DUP2 DUP2 ADD MLOAD DUP4 DUP3 ADD MSTORE PUSH1 0x20 ADD PUSH2 0xDF3 JUMP JUMPDEST POP POP PUSH1 0x0 SWAP2 ADD MSTORE JUMP JUMPDEST PUSH1 0x0 DUP2 MLOAD DUP1 DUP5 MSTORE PUSH2 0xE2C DUP2 PUSH1 0x20 DUP7 ADD PUSH1 0x20 DUP7 ADD PUSH2 0xDF0 JUMP JUMPDEST PUSH1 0x1F ADD PUSH1 0x1F NOT AND SWAP3 SWAP1 SWAP3 ADD PUSH1 0x20 ADD SWAP3 SWAP2 POP POP JUMP JUMPDEST PUSH1 0x20 DUP2 MSTORE PUSH1 0x0 PUSH2 0xE53 PUSH1 0x20 DUP4 ADD DUP5 PUSH2 0xE14 JUMP JUMPDEST SWAP4 SWAP3 POP POP POP JUMP JUMPDEST PUSH1 0x0 PUSH1 0x20 DUP1 DUP4 ADD DUP2 DUP5 MSTORE DUP1 DUP6 MLOAD DUP1 DUP4 MSTORE PUSH1 0x40 DUP7 ADD SWAP2 POP PUSH1 0x40 DUP2 PUSH1 0x5 SHL DUP8 ADD ADD SWAP3 POP DUP4 DUP8 ADD PUSH1 0x0 JUMPDEST DUP3 DUP2 LT ISZERO PUSH2 0xEAF JUMPI PUSH1 0x3F NOT DUP9 DUP7 SUB ADD DUP5 MSTORE PUSH2 0xE9D DUP6 DUP4 MLOAD PUSH2 0xE14 JUMP JUMPDEST SWAP5 POP SWAP3 DUP6 ADD SWAP3 SWAP1 DUP6 ADD SWAP1 PUSH1 0x1 ADD PUSH2 0xE81 JUMP JUMPDEST POP SWAP3 SWAP8 SWAP7 POP POP POP POP POP POP POP JUMP JUMPDEST PUSH4 0x4E487B71 PUSH1 0xE0 SHL PUSH1 0x0 MSTORE PUSH1 0x41 PUSH1 0x4 MSTORE PUSH1 0x24 PUSH1 0x0 REVERT JUMPDEST PUSH1 0x0 DUP3 PUSH1 0x1F DUP4 ADD SLT PUSH2 0xEE3 JUMPI PUSH1 0x0 DUP1 REVERT JUMPDEST DUP2 CALLDATALOAD PUSH8 0xFFFFFFFFFFFFFFFF DUP1 DUP3 GT ISZERO PUSH2 0xEFE JUMPI PUSH2 0xEFE PUSH2 0xEBC JUMP JUMPDEST PUSH1 0x40 MLOAD PUSH1 0x1F DUP4 ADD PUSH1 0x1F NOT SWAP1 DUP2 AND PUSH1 0x3F ADD AND DUP2 ADD SWAP1 DUP3 DUP3 GT DUP2 DUP4 LT OR ISZERO PUSH2 0xF26 JUMPI PUSH2 0xF26 PUSH2 0xEBC JUMP JUMPDEST DUP2 PUSH1 0x40 MSTORE DUP4 DUP2 MSTORE DUP7 PUSH1 0x20 DUP6 DUP9 ADD ADD GT ISZERO PUSH2 0xF3F JUMPI PUSH1 0x0 DUP1 REVERT JUMPDEST DUP4 PUSH1 0x20 DUP8 ADD PUSH1 0x20 DUP4 ADD CALLDATACOPY PUSH1 0x0 PUSH1 0x20 DUP6 DUP4 ADD ADD MSTORE DUP1 SWAP5 POP POP POP POP POP SWAP3 SWAP2 POP POP JUMP JUMPDEST PUSH1 0x0 DUP1 PUSH1 0x40 DUP4 DUP6 SUB SLT ISZERO PUSH2 0xF72 JUMPI PUSH1 0x0 DUP1 REVERT JUMPDEST DUP3 CALLDATALOAD PUSH8 0xFFFFFFFFFFFFFFFF DUP1 DUP3 GT ISZERO PUSH2 0xF8A JUMPI PUSH1 0x0 DUP1 REVERT JUMPDEST PUSH2 0xF96 DUP7 DUP4 DUP8 ADD PUSH2 0xED2 JUMP JUMPDEST SWAP4 POP PUSH1 0x20 DUP6 ADD CALLDATALOAD SWAP2 POP DUP1 DUP3 GT ISZERO PUSH2 0xFAC JUMPI PUSH1 0x0 DUP1 REVERT JUMPDEST POP PUSH2 0xFB9 DUP6 DUP3 DUP7 ADD PUSH2 0xED2 JUMP JUMPDEST SWAP2 POP POP SWAP3 POP SWAP3 SWAP1 POP JUMP JUMPDEST PUSH1 0x1 DUP2 DUP2 SHR SWAP1 DUP3 AND DUP1 PUSH2 0xFD7 JUMPI PUSH1 0x7F DUP3 AND SWAP2 POP JUMPDEST PUSH1 0x20 DUP3 LT DUP2 SUB PUSH2 0xFF7 JUMPI PUSH4 0x4E487B71 PUSH1 0xE0 SHL PUSH1 0x0 MSTORE PUSH1 0x22 PUSH1 0x4 MSTORE PUSH1 0x24 PUSH1 0x0 REVERT JUMPDEST POP SWAP2 SWAP1 POP JUMP JUMPDEST PUSH4 0x4E487B71 PUSH1 0xE0 SHL PUSH1 0x0 MSTORE PUSH1 0x32 PUSH1 0x4 MSTORE PUSH1 0x24 PUSH1 0x0 REVERT JUMPDEST PUSH1 0x1F DUP3 GT ISZERO PUSH2 0x105D JUMPI PUSH1 0x0 DUP2 DUP2 MSTORE PUSH1 0x20 DUP2 KECCAK256 PUSH1 0x1F DUP6 ADD PUSH1 0x5 SHR DUP2 ADD PUSH1 0x20 DUP7 LT ISZERO PUSH2 0x103A JUMPI POP DUP1 JUMPDEST PUSH1 0x1F DUP6 ADD PUSH1 0x5 SHR DUP3 ADD SWAP2 POP JUMPDEST DUP2 DUP2 LT ISZERO PUSH2 0x1059 JUMPI DUP3 DUP2 SSTORE PUSH1 0x1 ADD PUSH2 0x1046 JUMP JUMPDEST POP POP POP JUMPDEST POP POP POP JUMP JUMPDEST DUP2 DUP2 SUB PUSH2 0x106D JUMPI POP POP JUMP JUMPDEST PUSH2 0x1077 DUP3 SLOAD PUSH2 0xFC3 JUMP JUMPDEST PUSH8 0xFFFFFFFFFFFFFFFF DUP2 GT ISZERO PUSH2 0x108F JUMPI PUSH2 0x108F PUSH2 0xEBC JUMP JUMPDEST PUSH2 0x10A3 DUP2 PUSH2 0x109D DUP5 SLOAD PUSH2 0xFC3 JUMP JUMPDEST DUP5 PUSH2 0x1013 JUMP JUMPDEST PUSH1 0x0 PUSH1 0x1F DUP3 GT PUSH1 0x1 DUP2 EQ PUSH2 0x10D7 JUMPI PUSH1 0x0 DUP4 ISZERO PUSH2 0x10BF JUMPI POP DUP5 DUP3 ADD SLOAD JUMPDEST PUSH1 0x0 NOT PUSH1 0x3 DUP6 SWAP1 SHL SHR NOT AND PUSH1 0x1 DUP5 SWAP1 SHL OR DUP5 SSTORE PUSH2 0x113C JUMP JUMPDEST PUSH1 0x0 DUP6 DUP2 MSTORE PUSH1 0x20 SWAP1 KECCAK256 PUSH1 0x1F NOT DUP5 AND SWAP1 PUSH1 0x0 DUP7 DUP2 MSTORE PUSH1 0x20 SWAP1 KECCAK256 DUP5 JUMPDEST DUP4 DUP2 LT ISZERO PUSH2 0x1111 JUMPI DUP3 DUP7 ADD SLOAD DUP3 SSTORE PUSH1 0x1 SWAP6 DUP7 ADD SWAP6 SWAP1 SWAP2 ADD SWAP1 PUSH1 0x20 ADD PUSH2 0x10F1 JUMP JUMPDEST POP DUP6 DUP4 LT ISZERO PUSH2 0x112F JUMPI DUP2 DUP6 ADD SLOAD PUSH1 0x0 NOT PUSH1 0x3 DUP9 SWAP1 SHL PUSH1 0xF8 AND SHR NOT AND DUP2 SSTORE JUMPDEST POP POP POP PUSH1 0x1 DUP4 PUSH1 0x1 SHL ADD DUP5 SSTORE JUMPDEST POP POP POP POP POP JUMP JUMPDEST DUP2 MLOAD PUSH8 0xFFFFFFFFFFFFFFFF DUP2 GT ISZERO PUSH2 0x115D JUMPI PUSH2 0x115D PUSH2 0xEBC JUMP JUMPDEST PUSH2 0x116B DUP2 PUSH2 0x109D DUP5 SLOAD PUSH2 0xFC3 JUMP JUMPDEST PUSH1 0x20 DUP1 PUSH1 0x1F DUP4 GT PUSH1 0x1 DUP2 EQ PUSH2 0x11A0 JUMPI PUSH1 0x0 DUP5 ISZERO PUSH2 0x1188 JUMPI POP DUP6 DUP4 ADD MLOAD JUMPDEST PUSH1 0x0 NOT PUSH1 0x3 DUP7 SWAP1 SHL SHR NOT AND PUSH1 0x1 DUP6 SWAP1 SHL OR DUP6 SSTORE PUSH2 0x1059 JUMP JUMPDEST PUSH1 0x0 DUP6 DUP2 MSTORE PUSH1 0x20 DUP2 KECCAK256 PUSH1 0x1F NOT DUP7 AND SWAP2 JUMPDEST DUP3 DUP2 LT ISZERO PUSH2 0x11CF JUMPI DUP9 DUP7 ADD MLOAD DUP3 SSTORE SWAP5 DUP5 ADD SWAP5 PUSH1 0x1 SWAP1 SWAP2 ADD SWAP1 DUP5 ADD PUSH2 0x11B0 JUMP JUMPDEST POP DUP6 DUP3 LT ISZERO PUSH2 0x11ED JUMPI DUP8 DUP6 ADD MLOAD PUSH1 0x0 NOT PUSH1 0x3 DUP9 SWAP1 SHL PUSH1 0xF8 AND SHR NOT AND DUP2 SSTORE JUMPDEST POP POP POP POP POP PUSH1 0x1 SWAP1 DUP2 SHL ADD SWAP1 SSTORE POP JUMP JUMPDEST PUSH1 0x0 DUP3 MLOAD PUSH2 0x120F DUP2 DUP5 PUSH1 0x20 DUP8 ADD PUSH2 0xDF0 JUMP JUMPDEST SWAP2 SWAP1 SWAP2 ADD SWAP3 SWAP2 POP POP JUMP JUMPDEST PUSH1 0x0 PUSH1 0x1 DUP3 ADD PUSH2 0x1239 JUMPI PUSH4 0x4E487B71 PUSH1 0xE0 SHL PUSH1 0x0 MSTORE PUSH1 0x11 PUSH1 0x4 MSTORE PUSH1 0x24 PUSH1 0x0 REVERT JUMPDEST POP PUSH1 0x1 ADD SWAP1 JUMP JUMPDEST PUSH1 0x0 PUSH1 0x20 DUP1 DUP4 MSTORE PUSH1 0x0 DUP5 SLOAD PUSH2 0x1254 DUP2 PUSH2 0xFC3 JUMP JUMPDEST DUP1 DUP5 DUP8 ADD MSTORE PUSH1 0x40 PUSH1 0x1 DUP1 DUP5 AND PUSH1 0x0 DUP2 EQ PUSH2 0x1275 JUMPI PUSH1 0x1 DUP2 EQ PUSH2 0x128F JUMPI PUSH2 0x12BD JUMP JUMPDEST PUSH1 0xFF NOT DUP6 AND DUP10 DUP5 ADD MSTORE DUP4 ISZERO ISZERO PUSH1 0x5 SHL DUP10 ADD DUP4 ADD SWAP6 POP PUSH2 0x12BD JUMP JUMPDEST DUP10 PUSH1 0x0 MSTORE DUP7 PUSH1 0x0 KECCAK256 PUSH1 0x0 JUMPDEST DUP6 DUP2 LT ISZERO PUSH2 0x12B5 JUMPI DUP2 SLOAD DUP12 DUP3 ADD DUP7 ADD MSTORE SWAP1 DUP4 ADD SWAP1 DUP9 ADD PUSH2 0x129A JUMP JUMPDEST DUP11 ADD DUP5 ADD SWAP7 POP POP JUMPDEST POP SWAP4 SWAP9 SWAP8 POP POP POP POP POP POP POP POP JUMP INVALID LOG2 PUSH5 0x6970667358 0x22 SLT KECCAK256 0x23 PUSH24 0xD29A511B16B680BA9B0B680F196E9644042E228A5063AD74 PC 0xB0 0xB6 BALANCE 0x2A MOD PUSH5 0x736F6C6343 STOP ADDMOD SGT STOP CALLER "
				},
				"gasEstimates": {
					"creation": {
						"codeDepositCost": "973000",
						"executionCost": "infinite",
						"totalCost": "infinite"
					},
					"external": {
						"compareStrings(string,string)": "infinite",
						"getoption()": "infinite",
						"joinGame()": "50850",
						"options(uint256)": "infinite",
						"player1address()": "2382",
						"player2address()": "2337",
						"restartGame()": "infinite",
						"userInput(uint256)": "infinite"
					},
					"internal": {
						"changePlayer()": "infinite",
						"checkOptions()": "infinite",
						"checkWinner()": "infinite"
					}
				},
				"methodIdentifiers": {
					"compareStrings(string,string)": "bed34bba",
					"getoption()": "63f4150e",
					"joinGame()": "d4f77b1c",
					"options(uint256)": "409e2205",
					"player1address()": "55a5c301",
					"player2address()": "7d39620b",
					"restartGame()": "8d25af04",
					"userInput(uint256)": "52fc4855"
				}
			},
			"storageLayout": {
				"storage": [
					{
						"astId": 3,
						"contract": "Practical4-Tick-Tack-Toe-Jason.sol:TickTackToe",
						"label": "player1address",
						"offset": 0,
						"slot": "0",
						"type": "t_address"
					},
					{
						"astId": 5,
						"contract": "Practical4-Tick-Tack-Toe-Jason.sol:TickTackToe",
						"label": "player2address",
						"offset": 0,
						"slot": "1",
						"type": "t_address"
					},
					{
						"astId": 8,
						"contract": "Practical4-Tick-Tack-Toe-Jason.sol:TickTackToe",
						"label": "playerCount",
						"offset": 0,
						"slot": "2",
						"type": "t_uint256"
					},
					{
						"astId": 21,
						"contract": "Practical4-Tick-Tack-Toe-Jason.sol:TickTackToe",
						"label": "options",
						"offset": 0,
						"slot": "3",
						"type": "t_array(t_string_storage)dyn_storage"
					},
					{
						"astId": 24,
						"contract": "Practical4-Tick-Tack-Toe-Jason.sol:TickTackToe",
						"label": "activate",
						"offset": 0,
						"slot": "4",
						"type": "t_bool"
					},
					{
						"astId": 27,
						"contract": "Practical4-Tick-Tack-Toe-Jason.sol:TickTackToe",
						"label": "currentPlayer",
						"offset": 0,
						"slot": "5",
						"type": "t_string_storage"
					},
					{
						"astId": 64,
						"contract": "Practical4-Tick-Tack-Toe-Jason.sol:TickTackToe",
						"label": "winConditionSet",
						"offset": 0,
						"slot": "6",
						"type": "t_array(t_array(t_uint256)dyn_storage)dyn_storage"
					}
				],
				"types": {
					"t_address": {
						"encoding": "inplace",
						"label": "address",
						"numberOfBytes": "20"
					},
					"t_array(t_array(t_uint256)dyn_storage)dyn_storage": {
						"base": "t_array(t_uint256)dyn_storage",
						"encoding": "dynamic_array",
						"label": "uint256[][]",
						"numberOfBytes": "32"
					},
					"t_array(t_string_storage)dyn_storage": {
						"base": "t_string_storage",
						"encoding": "dynamic_array",
						"label": "string[]",
						"numberOfBytes": "32"
					},
					"t_array(t_uint256)dyn_storage": {
						"base": "t_uint256",
						"encoding": "dynamic_array",
						"label": "uint256[]",
						"numberOfBytes": "32"
					},
					"t_bool": {
						"encoding": "inplace",
						"label": "bool",
						"numberOfBytes": "1"
					},
					"t_string_storage": {
						"encoding": "bytes",
						"label": "string",
						"numberOfBytes": "32"
					},
					"t_uint256": {
						"encoding": "inplace",
						"label": "uint256",
						"numberOfBytes": "32"
					}
				}
			},
			"userdoc": {
				"kind": "user",
				"methods": {},
				"version": 1
			}
		}
	}
}