{
	"data": {
		"bytecode": {
			"linkReferences": {},
			"object": "60806040526040518060400160405280600a81526020017f4172756e204b756d617200000000000000000000000000000000000000000000815250600090816200004a91906200034e565b50602c600155735b38da6a701c568545dcfcb03fcb875f56beddc4600260006101000a81548173ffffffffffffffffffffffffffffffffffffffff021916908373ffffffffffffffffffffffffffffffffffffffff1602179055506001600260146101000a81548160ff021916908315150217905550348015620000cd57600080fd5b5062000435565b600081519050919050565b7f4e487b7100000000000000000000000000000000000000000000000000000000600052604160045260246000fd5b7f4e487b7100000000000000000000000000000000000000000000000000000000600052602260045260246000fd5b600060028204905060018216806200015657607f821691505b6020821081036200016c576200016b6200010e565b5b50919050565b60008190508160005260206000209050919050565b60006020601f8301049050919050565b600082821b905092915050565b600060088302620001d67fffffffffffffffffffffffffffffffffffffffffffffffffffffffffffffffff8262000197565b620001e2868362000197565b95508019841693508086168417925050509392505050565b6000819050919050565b6000819050919050565b60006200022f620002296200022384620001fa565b62000204565b620001fa565b9050919050565b6000819050919050565b6200024b836200020e565b620002636200025a8262000236565b848454620001a4565b825550505050565b600090565b6200027a6200026b565b6200028781848462000240565b505050565b5b81811015620002af57620002a360008262000270565b6001810190506200028d565b5050565b601f821115620002fe57620002c88162000172565b620002d38462000187565b81016020851015620002e3578190505b620002fb620002f28562000187565b8301826200028c565b50505b505050565b600082821c905092915050565b6000620003236000198460080262000303565b1980831691505092915050565b60006200033e838362000310565b9150826002028217905092915050565b6200035982620000d4565b67ffffffffffffffff811115620003755762000374620000df565b5b6200038182546200013d565b6200038e828285620002b3565b600060209050601f831160018114620003c65760008415620003b1578287015190505b620003bd858262000330565b8655506200042d565b601f198416620003d68662000172565b60005b828110156200040057848901518255600182019150602085019450602081019050620003d9565b868310156200042057848901516200041c601f89168262000310565b8355505b6001600288020188555050505b505050505050565b61080880620004456000396000f3fe608060405234801561001057600080fd5b50600436106100565760003560e01c806274530a1461005b578063162ab9091461007957806323fd0e40146100a9578063b880b69a146100c7578063fae2dd4b146100e5575b600080fd5b610063610103565b6040516100709190610205565b60405180910390f35b610093600480360381019061008e919061037a565b610116565b6040516100a09190610442565b60405180910390f35b6100b1610130565b6040516100be919061047d565b60405180910390f35b6100cf610136565b6040516100dc91906104d9565b60405180910390f35b6100ed61015c565b6040516100fa9190610442565b60405180910390f35b600260149054906101000a900460ff1681565b606081600090816101279190610700565b50819050919050565b60015481565b600260009054906101000a900473ffffffffffffffffffffffffffffffffffffffff1681565b6000805461016990610523565b80601f016020809104026020016040519081016040528092919081815260200182805461019590610523565b80156101e25780601f106101b7576101008083540402835291602001916101e2565b820191906000526020600020905b8154815290600101906020018083116101c557829003601f168201915b505050505081565b60008115159050919050565b6101ff816101ea565b82525050565b600060208201905061021a60008301846101f6565b92915050565b6000604051905090565b600080fd5b600080fd5b600080fd5b600080fd5b6000601f19601f8301169050919050565b7f4e487b7100000000000000000000000000000000000000000000000000000000600052604160045260246000fd5b6102878261023e565b810181811067ffffffffffffffff821117156102a6576102a561024f565b5b80604052505050565b60006102b9610220565b90506102c5828261027e565b919050565b600067ffffffffffffffff8211156102e5576102e461024f565b5b6102ee8261023e565b9050602081019050919050565b82818337600083830152505050565b600061031d610318846102ca565b6102af565b90508281526020810184848401111561033957610338610239565b5b6103448482856102fb565b509392505050565b600082601f83011261036157610360610234565b5b813561037184826020860161030a565b91505092915050565b6000602082840312156103905761038f61022a565b5b600082013567ffffffffffffffff8111156103ae576103ad61022f565b5b6103ba8482850161034c565b91505092915050565b600081519050919050565b600082825260208201905092915050565b60005b838110156103fd5780820151818401526020810190506103e2565b60008484015250505050565b6000610414826103c3565b61041e81856103ce565b935061042e8185602086016103df565b6104378161023e565b840191505092915050565b6000602082019050818103600083015261045c8184610409565b905092915050565b6000819050919050565b61047781610464565b82525050565b6000602082019050610492600083018461046e565b92915050565b600073ffffffffffffffffffffffffffffffffffffffff82169050919050565b60006104c382610498565b9050919050565b6104d3816104b8565b82525050565b60006020820190506104ee60008301846104ca565b92915050565b7f4e487b7100000000000000000000000000000000000000000000000000000000600052602260045260246000fd5b6000600282049050600182168061053b57607f821691505b60208210810361054e5761054d6104f4565b5b50919050565b60008190508160005260206000209050919050565b60006020601f8301049050919050565b600082821b905092915050565b6000600883026105b67fffffffffffffffffffffffffffffffffffffffffffffffffffffffffffffffff82610579565b6105c08683610579565b95508019841693508086168417925050509392505050565b6000819050919050565b60006105fd6105f86105f384610464565b6105d8565b610464565b9050919050565b6000819050919050565b610617836105e2565b61062b61062382610604565b848454610586565b825550505050565b600090565b610640610633565b61064b81848461060e565b505050565b5b8181101561066f57610664600082610638565b600181019050610651565b5050565b601f8211156106b45761068581610554565b61068e84610569565b8101602085101561069d578190505b6106b16106a985610569565b830182610650565b50505b505050565b600082821c905092915050565b60006106d7600019846008026106b9565b1980831691505092915050565b60006106f083836106c6565b9150826002028217905092915050565b610709826103c3565b67ffffffffffffffff8111156107225761072161024f565b5b61072c8254610523565b610737828285610673565b600060209050601f83116001811461076a5760008415610758578287015190505b61076285826106e4565b8655506107ca565b601f19841661077886610554565b60005b828110156107a05784890151825560018201915060208501945060208101905061077b565b868310156107bd57848901516107b9601f8916826106c6565b8355505b6001600288020188555050505b50505050505056fea26469706673582212203a3526297257e86fdaa9e133b8665668927eb12928689eb077c806c68f670ef764736f6c63430008130033",
			"opcodes": "PUSH1 0x80 PUSH1 0x40 MSTORE PUSH1 0x40 MLOAD DUP1 PUSH1 0x40 ADD PUSH1 0x40 MSTORE DUP1 PUSH1 0xA DUP2 MSTORE PUSH1 0x20 ADD PUSH32 0x4172756E204B756D617200000000000000000000000000000000000000000000 DUP2 MSTORE POP PUSH1 0x0 SWAP1 DUP2 PUSH3 0x4A SWAP2 SWAP1 PUSH3 0x34E JUMP JUMPDEST POP PUSH1 0x2C PUSH1 0x1 SSTORE PUSH20 0x5B38DA6A701C568545DCFCB03FCB875F56BEDDC4 PUSH1 0x2 PUSH1 0x0 PUSH2 0x100 EXP DUP2 SLOAD DUP2 PUSH20 0xFFFFFFFFFFFFFFFFFFFFFFFFFFFFFFFFFFFFFFFF MUL NOT AND SWAP1 DUP4 PUSH20 0xFFFFFFFFFFFFFFFFFFFFFFFFFFFFFFFFFFFFFFFF AND MUL OR SWAP1 SSTORE POP PUSH1 0x1 PUSH1 0x2 PUSH1 0x14 PUSH2 0x100 EXP DUP2 SLOAD DUP2 PUSH1 0xFF MUL NOT AND SWAP1 DUP4 ISZERO ISZERO MUL OR SWAP1 SSTORE POP CALLVALUE DUP1 ISZERO PUSH3 0xCD JUMPI PUSH1 0x0 DUP1 REVERT JUMPDEST POP PUSH3 0x435 JUMP JUMPDEST PUSH1 0x0 DUP2 MLOAD SWAP1 POP SWAP2 SWAP1 POP JUMP JUMPDEST PUSH32 0x4E487B7100000000000000000000000000000000000000000000000000000000 PUSH1 0x0 MSTORE PUSH1 0x41 PUSH1 0x4 MSTORE PUSH1 0x24 PUSH1 0x0 REVERT JUMPDEST PUSH32 0x4E487B7100000000000000000000000000000000000000000000000000000000 PUSH1 0x0 MSTORE PUSH1 0x22 PUSH1 0x4 MSTORE PUSH1 0x24 PUSH1 0x0 REVERT JUMPDEST PUSH1 0x0 PUSH1 0x2 DUP3 DIV SWAP1 POP PUSH1 0x1 DUP3 AND DUP1 PUSH3 0x156 JUMPI PUSH1 0x7F DUP3 AND SWAP2 POP JUMPDEST PUSH1 0x20 DUP3 LT DUP2 SUB PUSH3 0x16C JUMPI PUSH3 0x16B PUSH3 0x10E JUMP JUMPDEST JUMPDEST POP SWAP2 SWAP1 POP JUMP JUMPDEST PUSH1 0x0 DUP2 SWAP1 POP DUP2 PUSH1 0x0 MSTORE PUSH1 0x20 PUSH1 0x0 KECCAK256 SWAP1 POP SWAP2 SWAP1 POP JUMP JUMPDEST PUSH1 0x0 PUSH1 0x20 PUSH1 0x1F DUP4 ADD DIV SWAP1 POP SWAP2 SWAP1 POP JUMP JUMPDEST PUSH1 0x0 DUP3 DUP3 SHL SWAP1 POP SWAP3 SWAP2 POP POP JUMP JUMPDEST PUSH1 0x0 PUSH1 0x8 DUP4 MUL PUSH3 0x1D6 PUSH32 0xFFFFFFFFFFFFFFFFFFFFFFFFFFFFFFFFFFFFFFFFFFFFFFFFFFFFFFFFFFFFFFFF DUP3 PUSH3 0x197 JUMP JUMPDEST PUSH3 0x1E2 DUP7 DUP4 PUSH3 0x197 JUMP JUMPDEST SWAP6 POP DUP1 NOT DUP5 AND SWAP4 POP DUP1 DUP7 AND DUP5 OR SWAP3 POP POP POP SWAP4 SWAP3 POP POP POP JUMP JUMPDEST PUSH1 0x0 DUP2 SWAP1 POP SWAP2 SWAP1 POP JUMP JUMPDEST PUSH1 0x0 DUP2 SWAP1 POP SWAP2 SWAP1 POP JUMP JUMPDEST PUSH1 0x0 PUSH3 0x22F PUSH3 0x229 PUSH3 0x223 DUP5 PUSH3 0x1FA JUMP JUMPDEST PUSH3 0x204 JUMP JUMPDEST PUSH3 0x1FA JUMP JUMPDEST SWAP1 POP SWAP2 SWAP1 POP JUMP JUMPDEST PUSH1 0x0 DUP2 SWAP1 POP SWAP2 SWAP1 POP JUMP JUMPDEST PUSH3 0x24B DUP4 PUSH3 0x20E JUMP JUMPDEST PUSH3 0x263 PUSH3 0x25A DUP3 PUSH3 0x236 JUMP JUMPDEST DUP5 DUP5 SLOAD PUSH3 0x1A4 JUMP JUMPDEST DUP3 SSTORE POP POP POP POP JUMP JUMPDEST PUSH1 0x0 SWAP1 JUMP JUMPDEST PUSH3 0x27A PUSH3 0x26B JUMP JUMPDEST PUSH3 0x287 DUP2 DUP5 DUP5 PUSH3 0x240 JUMP JUMPDEST POP POP POP JUMP JUMPDEST JUMPDEST DUP2 DUP2 LT ISZERO PUSH3 0x2AF JUMPI PUSH3 0x2A3 PUSH1 0x0 DUP3 PUSH3 0x270 JUMP JUMPDEST PUSH1 0x1 DUP2 ADD SWAP1 POP PUSH3 0x28D JUMP JUMPDEST POP POP JUMP JUMPDEST PUSH1 0x1F DUP3 GT ISZERO PUSH3 0x2FE JUMPI PUSH3 0x2C8 DUP2 PUSH3 0x172 JUMP JUMPDEST PUSH3 0x2D3 DUP5 PUSH3 0x187 JUMP JUMPDEST DUP2 ADD PUSH1 0x20 DUP6 LT ISZERO PUSH3 0x2E3 JUMPI DUP2 SWAP1 POP JUMPDEST PUSH3 0x2FB PUSH3 0x2F2 DUP6 PUSH3 0x187 JUMP JUMPDEST DUP4 ADD DUP3 PUSH3 0x28C JUMP JUMPDEST POP POP JUMPDEST POP POP POP JUMP JUMPDEST PUSH1 0x0 DUP3 DUP3 SHR SWAP1 POP SWAP3 SWAP2 POP POP JUMP JUMPDEST PUSH1 0x0 PUSH3 0x323 PUSH1 0x0 NOT DUP5 PUSH1 0x8 MUL PUSH3 0x303 JUMP JUMPDEST NOT DUP1 DUP4 AND SWAP2 POP POP SWAP3 SWAP2 POP POP JUMP JUMPDEST PUSH1 0x0 PUSH3 0x33E DUP4 DUP4 PUSH3 0x310 JUMP JUMPDEST SWAP2 POP DUP3 PUSH1 0x2 MUL DUP3 OR SWAP1 POP SWAP3 SWAP2 POP POP JUMP JUMPDEST PUSH3 0x359 DUP3 PUSH3 0xD4 JUMP JUMPDEST PUSH8 0xFFFFFFFFFFFFFFFF DUP2 GT ISZERO PUSH3 0x375 JUMPI PUSH3 0x374 PUSH3 0xDF JUMP JUMPDEST JUMPDEST PUSH3 0x381 DUP3 SLOAD PUSH3 0x13D JUMP JUMPDEST PUSH3 0x38E DUP3 DUP3 DUP6 PUSH3 0x2B3 JUMP JUMPDEST PUSH1 0x0 PUSH1 0x20 SWAP1 POP PUSH1 0x1F DUP4 GT PUSH1 0x1 DUP2 EQ PUSH3 0x3C6 JUMPI PUSH1 0x0 DUP5 ISZERO PUSH3 0x3B1 JUMPI DUP3 DUP8 ADD MLOAD SWAP1 POP JUMPDEST PUSH3 0x3BD DUP6 DUP3 PUSH3 0x330 JUMP JUMPDEST DUP7 SSTORE POP PUSH3 0x42D JUMP JUMPDEST PUSH1 0x1F NOT DUP5 AND PUSH3 0x3D6 DUP7 PUSH3 0x172 JUMP JUMPDEST PUSH1 0x0 JUMPDEST DUP3 DUP2 LT ISZERO PUSH3 0x400 JUMPI DUP5 DUP10 ADD MLOAD DUP3 SSTORE PUSH1 0x1 DUP3 ADD SWAP2 POP PUSH1 0x20 DUP6 ADD SWAP5 POP PUSH1 0x20 DUP2 ADD SWAP1 POP PUSH3 0x3D9 JUMP JUMPDEST DUP7 DUP4 LT ISZERO PUSH3 0x420 JUMPI DUP5 DUP10 ADD MLOAD PUSH3 0x41C PUSH1 0x1F DUP10 AND DUP3 PUSH3 0x310 JUMP JUMPDEST DUP4 SSTORE POP JUMPDEST PUSH1 0x1 PUSH1 0x2 DUP9 MUL ADD DUP9 SSTORE POP POP POP JUMPDEST POP POP POP POP POP POP JUMP JUMPDEST PUSH2 0x808 DUP1 PUSH3 0x445 PUSH1 0x0 CODECOPY PUSH1 0x0 RETURN INVALID PUSH1 0x80 PUSH1 0x40 MSTORE CALLVALUE DUP1 ISZERO PUSH2 0x10 JUMPI PUSH1 0x0 DUP1 REVERT JUMPDEST POP PUSH1 0x4 CALLDATASIZE LT PUSH2 0x56 JUMPI PUSH1 0x0 CALLDATALOAD PUSH1 0xE0 SHR DUP1 PUSH3 0x74530A EQ PUSH2 0x5B JUMPI DUP1 PUSH4 0x162AB909 EQ PUSH2 0x79 JUMPI DUP1 PUSH4 0x23FD0E40 EQ PUSH2 0xA9 JUMPI DUP1 PUSH4 0xB880B69A EQ PUSH2 0xC7 JUMPI DUP1 PUSH4 0xFAE2DD4B EQ PUSH2 0xE5 JUMPI JUMPDEST PUSH1 0x0 DUP1 REVERT JUMPDEST PUSH2 0x63 PUSH2 0x103 JUMP JUMPDEST PUSH1 0x40 MLOAD PUSH2 0x70 SWAP2 SWAP1 PUSH2 0x205 JUMP JUMPDEST PUSH1 0x40 MLOAD DUP1 SWAP2 SUB SWAP1 RETURN JUMPDEST PUSH2 0x93 PUSH1 0x4 DUP1 CALLDATASIZE SUB DUP2 ADD SWAP1 PUSH2 0x8E SWAP2 SWAP1 PUSH2 0x37A JUMP JUMPDEST PUSH2 0x116 JUMP JUMPDEST PUSH1 0x40 MLOAD PUSH2 0xA0 SWAP2 SWAP1 PUSH2 0x442 JUMP JUMPDEST PUSH1 0x40 MLOAD DUP1 SWAP2 SUB SWAP1 RETURN JUMPDEST PUSH2 0xB1 PUSH2 0x130 JUMP JUMPDEST PUSH1 0x40 MLOAD PUSH2 0xBE SWAP2 SWAP1 PUSH2 0x47D JUMP JUMPDEST PUSH1 0x40 MLOAD DUP1 SWAP2 SUB SWAP1 RETURN JUMPDEST PUSH2 0xCF PUSH2 0x136 JUMP JUMPDEST PUSH1 0x40 MLOAD PUSH2 0xDC SWAP2 SWAP1 PUSH2 0x4D9 JUMP JUMPDEST PUSH1 0x40 MLOAD DUP1 SWAP2 SUB SWAP1 RETURN JUMPDEST PUSH2 0xED PUSH2 0x15C JUMP JUMPDEST PUSH1 0x40 MLOAD PUSH2 0xFA SWAP2 SWAP1 PUSH2 0x442 JUMP JUMPDEST PUSH1 0x40 MLOAD DUP1 SWAP2 SUB SWAP1 RETURN JUMPDEST PUSH1 0x2 PUSH1 0x14 SWAP1 SLOAD SWAP1 PUSH2 0x100 EXP SWAP1 DIV PUSH1 0xFF AND DUP2 JUMP JUMPDEST PUSH1 0x60 DUP2 PUSH1 0x0 SWAP1 DUP2 PUSH2 0x127 SWAP2 SWAP1 PUSH2 0x700 JUMP JUMPDEST POP DUP2 SWAP1 POP SWAP2 SWAP1 POP JUMP JUMPDEST PUSH1 0x1 SLOAD DUP2 JUMP JUMPDEST PUSH1 0x2 PUSH1 0x0 SWAP1 SLOAD SWAP1 PUSH2 0x100 EXP SWAP1 DIV PUSH20 0xFFFFFFFFFFFFFFFFFFFFFFFFFFFFFFFFFFFFFFFF AND DUP2 JUMP JUMPDEST PUSH1 0x0 DUP1 SLOAD PUSH2 0x169 SWAP1 PUSH2 0x523 JUMP JUMPDEST DUP1 PUSH1 0x1F ADD PUSH1 0x20 DUP1 SWAP2 DIV MUL PUSH1 0x20 ADD PUSH1 0x40 MLOAD SWAP1 DUP2 ADD PUSH1 0x40 MSTORE DUP1 SWAP3 SWAP2 SWAP1 DUP2 DUP2 MSTORE PUSH1 0x20 ADD DUP3 DUP1 SLOAD PUSH2 0x195 SWAP1 PUSH2 0x523 JUMP JUMPDEST DUP1 ISZERO PUSH2 0x1E2 JUMPI DUP1 PUSH1 0x1F LT PUSH2 0x1B7 JUMPI PUSH2 0x100 DUP1 DUP4 SLOAD DIV MUL DUP4 MSTORE SWAP2 PUSH1 0x20 ADD SWAP2 PUSH2 0x1E2 JUMP JUMPDEST DUP3 ADD SWAP2 SWAP1 PUSH1 0x0 MSTORE PUSH1 0x20 PUSH1 0x0 KECCAK256 SWAP1 JUMPDEST DUP2 SLOAD DUP2 MSTORE SWAP1 PUSH1 0x1 ADD SWAP1 PUSH1 0x20 ADD DUP1 DUP4 GT PUSH2 0x1C5 JUMPI DUP3 SWAP1 SUB PUSH1 0x1F AND DUP3 ADD SWAP2 JUMPDEST POP POP POP POP POP DUP2 JUMP JUMPDEST PUSH1 0x0 DUP2 ISZERO ISZERO SWAP1 POP SWAP2 SWAP1 POP JUMP JUMPDEST PUSH2 0x1FF DUP2 PUSH2 0x1EA JUMP JUMPDEST DUP3 MSTORE POP POP JUMP JUMPDEST PUSH1 0x0 PUSH1 0x20 DUP3 ADD SWAP1 POP PUSH2 0x21A PUSH1 0x0 DUP4 ADD DUP5 PUSH2 0x1F6 JUMP JUMPDEST SWAP3 SWAP2 POP POP JUMP JUMPDEST PUSH1 0x0 PUSH1 0x40 MLOAD SWAP1 POP SWAP1 JUMP JUMPDEST PUSH1 0x0 DUP1 REVERT JUMPDEST PUSH1 0x0 DUP1 REVERT JUMPDEST PUSH1 0x0 DUP1 REVERT JUMPDEST PUSH1 0x0 DUP1 REVERT JUMPDEST PUSH1 0x0 PUSH1 0x1F NOT PUSH1 0x1F DUP4 ADD AND SWAP1 POP SWAP2 SWAP1 POP JUMP JUMPDEST PUSH32 0x4E487B7100000000000000000000000000000000000000000000000000000000 PUSH1 0x0 MSTORE PUSH1 0x41 PUSH1 0x4 MSTORE PUSH1 0x24 PUSH1 0x0 REVERT JUMPDEST PUSH2 0x287 DUP3 PUSH2 0x23E JUMP JUMPDEST DUP2 ADD DUP2 DUP2 LT PUSH8 0xFFFFFFFFFFFFFFFF DUP3 GT OR ISZERO PUSH2 0x2A6 JUMPI PUSH2 0x2A5 PUSH2 0x24F JUMP JUMPDEST JUMPDEST DUP1 PUSH1 0x40 MSTORE POP POP POP JUMP JUMPDEST PUSH1 0x0 PUSH2 0x2B9 PUSH2 0x220 JUMP JUMPDEST SWAP1 POP PUSH2 0x2C5 DUP3 DUP3 PUSH2 0x27E JUMP JUMPDEST SWAP2 SWAP1 POP JUMP JUMPDEST PUSH1 0x0 PUSH8 0xFFFFFFFFFFFFFFFF DUP3 GT ISZERO PUSH2 0x2E5 JUMPI PUSH2 0x2E4 PUSH2 0x24F JUMP JUMPDEST JUMPDEST PUSH2 0x2EE DUP3 PUSH2 0x23E JUMP JUMPDEST SWAP1 POP PUSH1 0x20 DUP2 ADD SWAP1 POP SWAP2 SWAP1 POP JUMP JUMPDEST DUP3 DUP2 DUP4 CALLDATACOPY PUSH1 0x0 DUP4 DUP4 ADD MSTORE POP POP POP JUMP JUMPDEST PUSH1 0x0 PUSH2 0x31D PUSH2 0x318 DUP5 PUSH2 0x2CA JUMP JUMPDEST PUSH2 0x2AF JUMP JUMPDEST SWAP1 POP DUP3 DUP2 MSTORE PUSH1 0x20 DUP2 ADD DUP5 DUP5 DUP5 ADD GT ISZERO PUSH2 0x339 JUMPI PUSH2 0x338 PUSH2 0x239 JUMP JUMPDEST JUMPDEST PUSH2 0x344 DUP5 DUP3 DUP6 PUSH2 0x2FB JUMP JUMPDEST POP SWAP4 SWAP3 POP POP POP JUMP JUMPDEST PUSH1 0x0 DUP3 PUSH1 0x1F DUP4 ADD SLT PUSH2 0x361 JUMPI PUSH2 0x360 PUSH2 0x234 JUMP JUMPDEST JUMPDEST DUP2 CALLDATALOAD PUSH2 0x371 DUP5 DUP3 PUSH1 0x20 DUP7 ADD PUSH2 0x30A JUMP JUMPDEST SWAP2 POP POP SWAP3 SWAP2 POP POP JUMP JUMPDEST PUSH1 0x0 PUSH1 0x20 DUP3 DUP5 SUB SLT ISZERO PUSH2 0x390 JUMPI PUSH2 0x38F PUSH2 0x22A JUMP JUMPDEST JUMPDEST PUSH1 0x0 DUP3 ADD CALLDATALOAD PUSH8 0xFFFFFFFFFFFFFFFF DUP2 GT ISZERO PUSH2 0x3AE JUMPI PUSH2 0x3AD PUSH2 0x22F JUMP JUMPDEST JUMPDEST PUSH2 0x3BA DUP5 DUP3 DUP6 ADD PUSH2 0x34C JUMP JUMPDEST SWAP2 POP POP SWAP3 SWAP2 POP POP JUMP JUMPDEST PUSH1 0x0 DUP2 MLOAD SWAP1 POP SWAP2 SWAP1 POP JUMP JUMPDEST PUSH1 0x0 DUP3 DUP3 MSTORE PUSH1 0x20 DUP3 ADD SWAP1 POP SWAP3 SWAP2 POP POP JUMP JUMPDEST PUSH1 0x0 JUMPDEST DUP4 DUP2 LT ISZERO PUSH2 0x3FD JUMPI DUP1 DUP3 ADD MLOAD DUP2 DUP5 ADD MSTORE PUSH1 0x20 DUP2 ADD SWAP1 POP PUSH2 0x3E2 JUMP JUMPDEST PUSH1 0x0 DUP5 DUP5 ADD MSTORE POP POP POP POP JUMP JUMPDEST PUSH1 0x0 PUSH2 0x414 DUP3 PUSH2 0x3C3 JUMP JUMPDEST PUSH2 0x41E DUP2 DUP6 PUSH2 0x3CE JUMP JUMPDEST SWAP4 POP PUSH2 0x42E DUP2 DUP6 PUSH1 0x20 DUP7 ADD PUSH2 0x3DF JUMP JUMPDEST PUSH2 0x437 DUP2 PUSH2 0x23E JUMP JUMPDEST DUP5 ADD SWAP2 POP POP SWAP3 SWAP2 POP POP JUMP JUMPDEST PUSH1 0x0 PUSH1 0x20 DUP3 ADD SWAP1 POP DUP2 DUP2 SUB PUSH1 0x0 DUP4 ADD MSTORE PUSH2 0x45C DUP2 DUP5 PUSH2 0x409 JUMP JUMPDEST SWAP1 POP SWAP3 SWAP2 POP POP JUMP JUMPDEST PUSH1 0x0 DUP2 SWAP1 POP SWAP2 SWAP1 POP JUMP JUMPDEST PUSH2 0x477 DUP2 PUSH2 0x464 JUMP JUMPDEST DUP3 MSTORE POP POP JUMP JUMPDEST PUSH1 0x0 PUSH1 0x20 DUP3 ADD SWAP1 POP PUSH2 0x492 PUSH1 0x0 DUP4 ADD DUP5 PUSH2 0x46E JUMP JUMPDEST SWAP3 SWAP2 POP POP JUMP JUMPDEST PUSH1 0x0 PUSH20 0xFFFFFFFFFFFFFFFFFFFFFFFFFFFFFFFFFFFFFFFF DUP3 AND SWAP1 POP SWAP2 SWAP1 POP JUMP JUMPDEST PUSH1 0x0 PUSH2 0x4C3 DUP3 PUSH2 0x498 JUMP JUMPDEST SWAP1 POP SWAP2 SWAP1 POP JUMP JUMPDEST PUSH2 0x4D3 DUP2 PUSH2 0x4B8 JUMP JUMPDEST DUP3 MSTORE POP POP JUMP JUMPDEST PUSH1 0x0 PUSH1 0x20 DUP3 ADD SWAP1 POP PUSH2 0x4EE PUSH1 0x0 DUP4 ADD DUP5 PUSH2 0x4CA JUMP JUMPDEST SWAP3 SWAP2 POP POP JUMP JUMPDEST PUSH32 0x4E487B7100000000000000000000000000000000000000000000000000000000 PUSH1 0x0 MSTORE PUSH1 0x22 PUSH1 0x4 MSTORE PUSH1 0x24 PUSH1 0x0 REVERT JUMPDEST PUSH1 0x0 PUSH1 0x2 DUP3 DIV SWAP1 POP PUSH1 0x1 DUP3 AND DUP1 PUSH2 0x53B JUMPI PUSH1 0x7F DUP3 AND SWAP2 POP JUMPDEST PUSH1 0x20 DUP3 LT DUP2 SUB PUSH2 0x54E JUMPI PUSH2 0x54D PUSH2 0x4F4 JUMP JUMPDEST JUMPDEST POP SWAP2 SWAP1 POP JUMP JUMPDEST PUSH1 0x0 DUP2 SWAP1 POP DUP2 PUSH1 0x0 MSTORE PUSH1 0x20 PUSH1 0x0 KECCAK256 SWAP1 POP SWAP2 SWAP1 POP JUMP JUMPDEST PUSH1 0x0 PUSH1 0x20 PUSH1 0x1F DUP4 ADD DIV SWAP1 POP SWAP2 SWAP1 POP JUMP JUMPDEST PUSH1 0x0 DUP3 DUP3 SHL SWAP1 POP SWAP3 SWAP2 POP POP JUMP JUMPDEST PUSH1 0x0 PUSH1 0x8 DUP4 MUL PUSH2 0x5B6 PUSH32 0xFFFFFFFFFFFFFFFFFFFFFFFFFFFFFFFFFFFFFFFFFFFFFFFFFFFFFFFFFFFFFFFF DUP3 PUSH2 0x579 JUMP JUMPDEST PUSH2 0x5C0 DUP7 DUP4 PUSH2 0x579 JUMP JUMPDEST SWAP6 POP DUP1 NOT DUP5 AND SWAP4 POP DUP1 DUP7 AND DUP5 OR SWAP3 POP POP POP SWAP4 SWAP3 POP POP POP JUMP JUMPDEST PUSH1 0x0 DUP2 SWAP1 POP SWAP2 SWAP1 POP JUMP JUMPDEST PUSH1 0x0 PUSH2 0x5FD PUSH2 0x5F8 PUSH2 0x5F3 DUP5 PUSH2 0x464 JUMP JUMPDEST PUSH2 0x5D8 JUMP JUMPDEST PUSH2 0x464 JUMP JUMPDEST SWAP1 POP SWAP2 SWAP1 POP JUMP JUMPDEST PUSH1 0x0 DUP2 SWAP1 POP SWAP2 SWAP1 POP JUMP JUMPDEST PUSH2 0x617 DUP4 PUSH2 0x5E2 JUMP JUMPDEST PUSH2 0x62B PUSH2 0x623 DUP3 PUSH2 0x604 JUMP JUMPDEST DUP5 DUP5 SLOAD PUSH2 0x586 JUMP JUMPDEST DUP3 SSTORE POP POP POP POP JUMP JUMPDEST PUSH1 0x0 SWAP1 JUMP JUMPDEST PUSH2 0x640 PUSH2 0x633 JUMP JUMPDEST PUSH2 0x64B DUP2 DUP5 DUP5 PUSH2 0x60E JUMP JUMPDEST POP POP POP JUMP JUMPDEST JUMPDEST DUP2 DUP2 LT ISZERO PUSH2 0x66F JUMPI PUSH2 0x664 PUSH1 0x0 DUP3 PUSH2 0x638 JUMP JUMPDEST PUSH1 0x1 DUP2 ADD SWAP1 POP PUSH2 0x651 JUMP JUMPDEST POP POP JUMP JUMPDEST PUSH1 0x1F DUP3 GT ISZERO PUSH2 0x6B4 JUMPI PUSH2 0x685 DUP2 PUSH2 0x554 JUMP JUMPDEST PUSH2 0x68E DUP5 PUSH2 0x569 JUMP JUMPDEST DUP2 ADD PUSH1 0x20 DUP6 LT ISZERO PUSH2 0x69D JUMPI DUP2 SWAP1 POP JUMPDEST PUSH2 0x6B1 PUSH2 0x6A9 DUP6 PUSH2 0x569 JUMP JUMPDEST DUP4 ADD DUP3 PUSH2 0x650 JUMP JUMPDEST POP POP JUMPDEST POP POP POP JUMP JUMPDEST PUSH1 0x0 DUP3 DUP3 SHR SWAP1 POP SWAP3 SWAP2 POP POP JUMP JUMPDEST PUSH1 0x0 PUSH2 0x6D7 PUSH1 0x0 NOT DUP5 PUSH1 0x8 MUL PUSH2 0x6B9 JUMP JUMPDEST NOT DUP1 DUP4 AND SWAP2 POP POP SWAP3 SWAP2 POP POP JUMP JUMPDEST PUSH1 0x0 PUSH2 0x6F0 DUP4 DUP4 PUSH2 0x6C6 JUMP JUMPDEST SWAP2 POP DUP3 PUSH1 0x2 MUL DUP3 OR SWAP1 POP SWAP3 SWAP2 POP POP JUMP JUMPDEST PUSH2 0x709 DUP3 PUSH2 0x3C3 JUMP JUMPDEST PUSH8 0xFFFFFFFFFFFFFFFF DUP2 GT ISZERO PUSH2 0x722 JUMPI PUSH2 0x721 PUSH2 0x24F JUMP JUMPDEST JUMPDEST PUSH2 0x72C DUP3 SLOAD PUSH2 0x523 JUMP JUMPDEST PUSH2 0x737 DUP3 DUP3 DUP6 PUSH2 0x673 JUMP JUMPDEST PUSH1 0x0 PUSH1 0x20 SWAP1 POP PUSH1 0x1F DUP4 GT PUSH1 0x1 DUP2 EQ PUSH2 0x76A JUMPI PUSH1 0x0 DUP5 ISZERO PUSH2 0x758 JUMPI DUP3 DUP8 ADD MLOAD SWAP1 POP JUMPDEST PUSH2 0x762 DUP6 DUP3 PUSH2 0x6E4 JUMP JUMPDEST DUP7 SSTORE POP PUSH2 0x7CA JUMP JUMPDEST PUSH1 0x1F NOT DUP5 AND PUSH2 0x778 DUP7 PUSH2 0x554 JUMP JUMPDEST PUSH1 0x0 JUMPDEST DUP3 DUP2 LT ISZERO PUSH2 0x7A0 JUMPI DUP5 DUP10 ADD MLOAD DUP3 SSTORE PUSH1 0x1 DUP3 ADD SWAP2 POP PUSH1 0x20 DUP6 ADD SWAP5 POP PUSH1 0x20 DUP2 ADD SWAP1 POP PUSH2 0x77B JUMP JUMPDEST DUP7 DUP4 LT ISZERO PUSH2 0x7BD JUMPI DUP5 DUP10 ADD MLOAD PUSH2 0x7B9 PUSH1 0x1F DUP10 AND DUP3 PUSH2 0x6C6 JUMP JUMPDEST DUP4 SSTORE POP JUMPDEST PUSH1 0x1 PUSH1 0x2 DUP9 MUL ADD DUP9 SSTORE POP POP POP JUMPDEST POP POP POP POP POP POP JUMP INVALID LOG2 PUSH5 0x6970667358 0x22 SLT KECCAK256 GASPRICE CALLDATALOAD 0x26 0x29 PUSH19 0x57E86FDAA9E133B8665668927EB12928689EB0 PUSH24 0xC806C68F670EF764736F6C63430008130033000000000000 "
		},
		"gasEstimates": {
			"creation": {
				"codeDepositCost": "411200",
				"executionCost": "infinite",
				"totalCost": "infinite"
			},
			"external": {
				"isTrue()": "2499",
				"myName()": "infinite",
				"myNumber()": "2451",
				"myWallet()": "2558",
				"updateMyName(string)": "infinite"
			}
		},
		"methodIdentifiers": {
			"isTrue()": "0074530a",
			"myName()": "fae2dd4b",
			"myNumber()": "23fd0e40",
			"myWallet()": "b880b69a",
			"updateMyName(string)": "162ab909"
		}
	},
	"abi": [
		{
			"inputs": [],
			"name": "isTrue",
			"outputs": [
				{
					"internalType": "bool",
					"name": "",
					"type": "bool"
				}
			],
			"stateMutability": "view",
			"type": "function"
		},
		{
			"inputs": [],
			"name": "myName",
			"outputs": [
				{
					"internalType": "string",
					"name": "",
					"type": "string"
				}
			],
			"stateMutability": "view",
			"type": "function"
		},
		{
			"inputs": [],
			"name": "myNumber",
			"outputs": [
				{
					"internalType": "uint256",
					"name": "",
					"type": "uint256"
				}
			],
			"stateMutability": "view",
			"type": "function"
		},
		{
			"inputs": [],
			"name": "myWallet",
			"outputs": [
				{
					"internalType": "address",
					"name": "",
					"type": "address"
				}
			],
			"stateMutability": "view",
			"type": "function"
		},
		{
			"inputs": [
				{
					"internalType": "string",
					"name": "newName",
					"type": "string"
				}
			],
			"name": "updateMyName",
			"outputs": [
				{
					"internalType": "string",
					"name": "_myName",
					"type": "string"
				}
			],
			"stateMutability": "nonpayable",
			"type": "function"
		}
	]
}