{
	"data": {
		"bytecode": {
			"linkReferences": {},
			"object": "608060405260048054610100600160a81b03191674ab8483f64d9c6d1ecf9b849ae677dd3315835cb20017905534801561003857600080fd5b5061043f806100486000396000f3fe6080604052600436106100915760003560e01c806370a0aa5c1161005957806370a0aa5c1461014957806371985c08146101695780638381f58a1461017f578063979f6ed014610195578063dbdff2c1146101b557600080fd5b80631b32ca5d146100965780633a4f6999146100b8578063486b7217146100e157806355b93031146100f657806361d027b31461010c575b600080fd5b3480156100a257600080fd5b506100b66100b136600461033e565b600155565b005b3480156100c457600080fd5b506100ce60015481565b6040519081526020015b60405180910390f35b3480156100ed57600080fd5b506100b66101ca565b34801561010257600080fd5b506100ce60025481565b34801561011857600080fd5b506004546101319061010090046001600160a01b031681565b6040516001600160a01b0390911681526020016100d8565b34801561015557600080fd5b506100b661016436600461033e565b600255565b34801561017557600080fd5b506100ce60005481565b34801561018b57600080fd5b506100ce60035481565b6101a86101a336600461033e565b6101d7565b6040516100d89190610357565b3480156101c157600080fd5b506100ce6102cc565b6101d26102cc565b600355565b60606101e16102cc565b600081905582036101fa576004805460ff191660011790555b60045460ff161561022a575050604080518082019091526009815268596f752077696e212160b81b602082015290565b610238565b60405180910390fd5b6004546040516000916001600160a01b0361010090910416903480156108fc029184818181858888f193505050509050806102a65760405162461bcd60e51b815260206004820152600e60248201526d11985a5b1959081d1bc81cd95b9960921b604482015260640161022f565b5050604080518082019091526008815267596f75206c6f737360c01b6020820152919050565b60008042436040516020016102eb929190918252602082015260400190565b6040516020818303038152906040528051906020012060001c905060025460025460015461031991906103bb565b6103249060016103d4565b61032e90836103e7565b61033891906103d4565b91505090565b60006020828403121561035057600080fd5b5035919050565b600060208083528351808285015260005b8181101561038457858101830151858201604001528201610368565b506000604082860101526040601f19601f8301168501019250505092915050565b634e487b7160e01b600052601160045260246000fd5b818103818111156103ce576103ce6103a5565b92915050565b808201808211156103ce576103ce6103a5565b60008261040457634e487b7160e01b600052601260045260246000fd5b50069056fea26469706673582212201cd08138122f4454ddcf107c4b830ef1fa3d6c4333433696de6dc709582bb3ee64736f6c63430008130033",
			"opcodes": "PUSH1 0x80 PUSH1 0x40 MSTORE PUSH1 0x4 DUP1 SLOAD PUSH2 0x100 PUSH1 0x1 PUSH1 0xA8 SHL SUB NOT AND PUSH21 0xAB8483F64D9C6D1ECF9B849AE677DD3315835CB200 OR SWAP1 SSTORE CALLVALUE DUP1 ISZERO PUSH2 0x38 JUMPI PUSH1 0x0 DUP1 REVERT JUMPDEST POP PUSH2 0x43F DUP1 PUSH2 0x48 PUSH1 0x0 CODECOPY PUSH1 0x0 RETURN INVALID PUSH1 0x80 PUSH1 0x40 MSTORE PUSH1 0x4 CALLDATASIZE LT PUSH2 0x91 JUMPI PUSH1 0x0 CALLDATALOAD PUSH1 0xE0 SHR DUP1 PUSH4 0x70A0AA5C GT PUSH2 0x59 JUMPI DUP1 PUSH4 0x70A0AA5C EQ PUSH2 0x149 JUMPI DUP1 PUSH4 0x71985C08 EQ PUSH2 0x169 JUMPI DUP1 PUSH4 0x8381F58A EQ PUSH2 0x17F JUMPI DUP1 PUSH4 0x979F6ED0 EQ PUSH2 0x195 JUMPI DUP1 PUSH4 0xDBDFF2C1 EQ PUSH2 0x1B5 JUMPI PUSH1 0x0 DUP1 REVERT JUMPDEST DUP1 PUSH4 0x1B32CA5D EQ PUSH2 0x96 JUMPI DUP1 PUSH4 0x3A4F6999 EQ PUSH2 0xB8 JUMPI DUP1 PUSH4 0x486B7217 EQ PUSH2 0xE1 JUMPI DUP1 PUSH4 0x55B93031 EQ PUSH2 0xF6 JUMPI DUP1 PUSH4 0x61D027B3 EQ PUSH2 0x10C JUMPI JUMPDEST PUSH1 0x0 DUP1 REVERT JUMPDEST CALLVALUE DUP1 ISZERO PUSH2 0xA2 JUMPI PUSH1 0x0 DUP1 REVERT JUMPDEST POP PUSH2 0xB6 PUSH2 0xB1 CALLDATASIZE PUSH1 0x4 PUSH2 0x33E JUMP JUMPDEST PUSH1 0x1 SSTORE JUMP JUMPDEST STOP JUMPDEST CALLVALUE DUP1 ISZERO PUSH2 0xC4 JUMPI PUSH1 0x0 DUP1 REVERT JUMPDEST POP PUSH2 0xCE PUSH1 0x1 SLOAD DUP2 JUMP JUMPDEST PUSH1 0x40 MLOAD SWAP1 DUP2 MSTORE PUSH1 0x20 ADD JUMPDEST PUSH1 0x40 MLOAD DUP1 SWAP2 SUB SWAP1 RETURN JUMPDEST CALLVALUE DUP1 ISZERO PUSH2 0xED JUMPI PUSH1 0x0 DUP1 REVERT JUMPDEST POP PUSH2 0xB6 PUSH2 0x1CA JUMP JUMPDEST CALLVALUE DUP1 ISZERO PUSH2 0x102 JUMPI PUSH1 0x0 DUP1 REVERT JUMPDEST POP PUSH2 0xCE PUSH1 0x2 SLOAD DUP2 JUMP JUMPDEST CALLVALUE DUP1 ISZERO PUSH2 0x118 JUMPI PUSH1 0x0 DUP1 REVERT JUMPDEST POP PUSH1 0x4 SLOAD PUSH2 0x131 SWAP1 PUSH2 0x100 SWAP1 DIV PUSH1 0x1 PUSH1 0x1 PUSH1 0xA0 SHL SUB AND DUP2 JUMP JUMPDEST PUSH1 0x40 MLOAD PUSH1 0x1 PUSH1 0x1 PUSH1 0xA0 SHL SUB SWAP1 SWAP2 AND DUP2 MSTORE PUSH1 0x20 ADD PUSH2 0xD8 JUMP JUMPDEST CALLVALUE DUP1 ISZERO PUSH2 0x155 JUMPI PUSH1 0x0 DUP1 REVERT JUMPDEST POP PUSH2 0xB6 PUSH2 0x164 CALLDATASIZE PUSH1 0x4 PUSH2 0x33E JUMP JUMPDEST PUSH1 0x2 SSTORE JUMP JUMPDEST CALLVALUE DUP1 ISZERO PUSH2 0x175 JUMPI PUSH1 0x0 DUP1 REVERT JUMPDEST POP PUSH2 0xCE PUSH1 0x0 SLOAD DUP2 JUMP JUMPDEST CALLVALUE DUP1 ISZERO PUSH2 0x18B JUMPI PUSH1 0x0 DUP1 REVERT JUMPDEST POP PUSH2 0xCE PUSH1 0x3 SLOAD DUP2 JUMP JUMPDEST PUSH2 0x1A8 PUSH2 0x1A3 CALLDATASIZE PUSH1 0x4 PUSH2 0x33E JUMP JUMPDEST PUSH2 0x1D7 JUMP JUMPDEST PUSH1 0x40 MLOAD PUSH2 0xD8 SWAP2 SWAP1 PUSH2 0x357 JUMP JUMPDEST CALLVALUE DUP1 ISZERO PUSH2 0x1C1 JUMPI PUSH1 0x0 DUP1 REVERT JUMPDEST POP PUSH2 0xCE PUSH2 0x2CC JUMP JUMPDEST PUSH2 0x1D2 PUSH2 0x2CC JUMP JUMPDEST PUSH1 0x3 SSTORE JUMP JUMPDEST PUSH1 0x60 PUSH2 0x1E1 PUSH2 0x2CC JUMP JUMPDEST PUSH1 0x0 DUP2 SWAP1 SSTORE DUP3 SUB PUSH2 0x1FA JUMPI PUSH1 0x4 DUP1 SLOAD PUSH1 0xFF NOT AND PUSH1 0x1 OR SWAP1 SSTORE JUMPDEST PUSH1 0x4 SLOAD PUSH1 0xFF AND ISZERO PUSH2 0x22A JUMPI POP POP PUSH1 0x40 DUP1 MLOAD DUP1 DUP3 ADD SWAP1 SWAP2 MSTORE PUSH1 0x9 DUP2 MSTORE PUSH9 0x596F752077696E2121 PUSH1 0xB8 SHL PUSH1 0x20 DUP3 ADD MSTORE SWAP1 JUMP JUMPDEST PUSH2 0x238 JUMP JUMPDEST PUSH1 0x40 MLOAD DUP1 SWAP2 SUB SWAP1 REVERT JUMPDEST PUSH1 0x4 SLOAD PUSH1 0x40 MLOAD PUSH1 0x0 SWAP2 PUSH1 0x1 PUSH1 0x1 PUSH1 0xA0 SHL SUB PUSH2 0x100 SWAP1 SWAP2 DIV AND SWAP1 CALLVALUE DUP1 ISZERO PUSH2 0x8FC MUL SWAP2 DUP5 DUP2 DUP2 DUP2 DUP6 DUP9 DUP9 CALL SWAP4 POP POP POP POP SWAP1 POP DUP1 PUSH2 0x2A6 JUMPI PUSH1 0x40 MLOAD PUSH3 0x461BCD PUSH1 0xE5 SHL DUP2 MSTORE PUSH1 0x20 PUSH1 0x4 DUP3 ADD MSTORE PUSH1 0xE PUSH1 0x24 DUP3 ADD MSTORE PUSH14 0x11985A5B1959081D1BC81CD95B99 PUSH1 0x92 SHL PUSH1 0x44 DUP3 ADD MSTORE PUSH1 0x64 ADD PUSH2 0x22F JUMP JUMPDEST POP POP PUSH1 0x40 DUP1 MLOAD DUP1 DUP3 ADD SWAP1 SWAP2 MSTORE PUSH1 0x8 DUP2 MSTORE PUSH8 0x596F75206C6F7373 PUSH1 0xC0 SHL PUSH1 0x20 DUP3 ADD MSTORE SWAP2 SWAP1 POP JUMP JUMPDEST PUSH1 0x0 DUP1 TIMESTAMP NUMBER PUSH1 0x40 MLOAD PUSH1 0x20 ADD PUSH2 0x2EB SWAP3 SWAP2 SWAP1 SWAP2 DUP3 MSTORE PUSH1 0x20 DUP3 ADD MSTORE PUSH1 0x40 ADD SWAP1 JUMP JUMPDEST PUSH1 0x40 MLOAD PUSH1 0x20 DUP2 DUP4 SUB SUB DUP2 MSTORE SWAP1 PUSH1 0x40 MSTORE DUP1 MLOAD SWAP1 PUSH1 0x20 ADD KECCAK256 PUSH1 0x0 SHR SWAP1 POP PUSH1 0x2 SLOAD PUSH1 0x2 SLOAD PUSH1 0x1 SLOAD PUSH2 0x319 SWAP2 SWAP1 PUSH2 0x3BB JUMP JUMPDEST PUSH2 0x324 SWAP1 PUSH1 0x1 PUSH2 0x3D4 JUMP JUMPDEST PUSH2 0x32E SWAP1 DUP4 PUSH2 0x3E7 JUMP JUMPDEST PUSH2 0x338 SWAP2 SWAP1 PUSH2 0x3D4 JUMP JUMPDEST SWAP2 POP POP SWAP1 JUMP JUMPDEST PUSH1 0x0 PUSH1 0x20 DUP3 DUP5 SUB SLT ISZERO PUSH2 0x350 JUMPI PUSH1 0x0 DUP1 REVERT JUMPDEST POP CALLDATALOAD SWAP2 SWAP1 POP JUMP JUMPDEST PUSH1 0x0 PUSH1 0x20 DUP1 DUP4 MSTORE DUP4 MLOAD DUP1 DUP3 DUP6 ADD MSTORE PUSH1 0x0 JUMPDEST DUP2 DUP2 LT ISZERO PUSH2 0x384 JUMPI DUP6 DUP2 ADD DUP4 ADD MLOAD DUP6 DUP3 ADD PUSH1 0x40 ADD MSTORE DUP3 ADD PUSH2 0x368 JUMP JUMPDEST POP PUSH1 0x0 PUSH1 0x40 DUP3 DUP7 ADD ADD MSTORE PUSH1 0x40 PUSH1 0x1F NOT PUSH1 0x1F DUP4 ADD AND DUP6 ADD ADD SWAP3 POP POP POP SWAP3 SWAP2 POP POP JUMP JUMPDEST PUSH4 0x4E487B71 PUSH1 0xE0 SHL PUSH1 0x0 MSTORE PUSH1 0x11 PUSH1 0x4 MSTORE PUSH1 0x24 PUSH1 0x0 REVERT JUMPDEST DUP2 DUP2 SUB DUP2 DUP2 GT ISZERO PUSH2 0x3CE JUMPI PUSH2 0x3CE PUSH2 0x3A5 JUMP JUMPDEST SWAP3 SWAP2 POP POP JUMP JUMPDEST DUP1 DUP3 ADD DUP1 DUP3 GT ISZERO PUSH2 0x3CE JUMPI PUSH2 0x3CE PUSH2 0x3A5 JUMP JUMPDEST PUSH1 0x0 DUP3 PUSH2 0x404 JUMPI PUSH4 0x4E487B71 PUSH1 0xE0 SHL PUSH1 0x0 MSTORE PUSH1 0x12 PUSH1 0x4 MSTORE PUSH1 0x24 PUSH1 0x0 REVERT JUMPDEST POP MOD SWAP1 JUMP INVALID LOG2 PUSH5 0x6970667358 0x22 SLT KECCAK256 SHR 0xD0 DUP2 CODESIZE SLT 0x2F PREVRANDAO SLOAD 0xDD 0xCF LT PUSH29 0x4B830EF1FA3D6C4333433696DE6DC709582BB3EE64736F6C6343000813 STOP CALLER "
		},
		"gasEstimates": {
			"creation": {
				"codeDepositCost": "217400",
				"executionCost": "24493",
				"totalCost": "241893"
			},
			"external": {
				"getRandomNumber()": "infinite",
				"getnumber()": "infinite",
				"logicCheck(uint256)": "infinite",
				"maxNumber()": "2307",
				"minNumber()": "2351",
				"number()": "2328",
				"setMaxNumber(uint256)": "22313",
				"setMinNumber(uint256)": "22312",
				"targetNumber()": "2306",
				"treasury()": "2437"
			}
		},
		"methodIdentifiers": {
			"getRandomNumber()": "dbdff2c1",
			"getnumber()": "486b7217",
			"logicCheck(uint256)": "979f6ed0",
			"maxNumber()": "3a4f6999",
			"minNumber()": "55b93031",
			"number()": "8381f58a",
			"setMaxNumber(uint256)": "1b32ca5d",
			"setMinNumber(uint256)": "70a0aa5c",
			"targetNumber()": "71985c08",
			"treasury()": "61d027b3"
		}
	},
	"abi": [
		{
			"inputs": [],
			"name": "getRandomNumber",
			"outputs": [
				{
					"internalType": "uint256",
					"name": "",
					"type": "uint256"
				}
			],
			"stateMutability": "view",
			"type": "function"
		},
		{
			"inputs": [],
			"name": "getnumber",
			"outputs": [],
			"stateMutability": "nonpayable",
			"type": "function"
		},
		{
			"inputs": [
				{
					"internalType": "uint256",
					"name": "guessNumber",
					"type": "uint256"
				}
			],
			"name": "logicCheck",
			"outputs": [
				{
					"internalType": "string",
					"name": "",
					"type": "string"
				}
			],
			"stateMutability": "payable",
			"type": "function"
		},
		{
			"inputs": [],
			"name": "maxNumber",
			"outputs": [
				{
					"internalType": "uint256",
					"name": "",
					"type": "uint256"
				}
			],
			"stateMutability": "view",
			"type": "function"
		},
		{
			"inputs": [],
			"name": "minNumber",
			"outputs": [
				{
					"internalType": "uint256",
					"name": "",
					"type": "uint256"
				}
			],
			"stateMutability": "view",
			"type": "function"
		},
		{
			"inputs": [],
			"name": "number",
			"outputs": [
				{
					"internalType": "uint256",
					"name": "",
					"type": "uint256"
				}
			],
			"stateMutability": "view",
			"type": "function"
		},
		{
			"inputs": [
				{
					"internalType": "uint256",
					"name": "_maxNumber",
					"type": "uint256"
				}
			],
			"name": "setMaxNumber",
			"outputs": [],
			"stateMutability": "nonpayable",
			"type": "function"
		},
		{
			"inputs": [
				{
					"internalType": "uint256",
					"name": "_minNumber",
					"type": "uint256"
				}
			],
			"name": "setMinNumber",
			"outputs": [],
			"stateMutability": "nonpayable",
			"type": "function"
		},
		{
			"inputs": [],
			"name": "targetNumber",
			"outputs": [
				{
					"internalType": "uint256",
					"name": "",
					"type": "uint256"
				}
			],
			"stateMutability": "view",
			"type": "function"
		},
		{
			"inputs": [],
			"name": "treasury",
			"outputs": [
				{
					"internalType": "address payable",
					"name": "",
					"type": "address"
				}
			],
			"stateMutability": "view",
			"type": "function"
		}
	]
}