{
	"data": {
		"bytecode": {
			"linkReferences": {},
			"object": "60806040526002805460ff1916905534801561001a57600080fd5b506102218061002a6000396000f3fe608060405234801561001057600080fd5b50600436106100575760003560e01c80630ff5df671461005c578063669997bc1461007857806371985c081461008d578063762f633514610096578063c12a19f4146100ab575b600080fd5b61006560015481565b6040519081526020015b60405180910390f35b6100806100be565b60405161006f919061015d565b61006560005481565b6100a96100a43660046101ab565b600155565b005b6100a96100b93660046101ab565b600055565b606060015b600281116100f657600054600154036100e4576002805460ff191660011790555b806100ee816101c4565b9150506100c3565b5060025460ff16156101265750604080518082019091526009815268596f752077696e212160b81b602082015290565b60405162461bcd60e51b8152602060048201526008602482015267596f75206c6f737360c01b604482015260640160405180910390fd5b600060208083528351808285015260005b8181101561018a5785810183015185820160400152820161016e565b506000604082860101526040601f19601f8301168501019250505092915050565b6000602082840312156101bd57600080fd5b5035919050565b6000600182016101e457634e487b7160e01b600052601160045260246000fd5b506001019056fea2646970667358221220589041554436f33d5efc3b6a2602bb9bec78497eebc040e7f12cd6735436bf5564736f6c63430008130033",
			"opcodes": "PUSH1 0x80 PUSH1 0x40 MSTORE PUSH1 0x2 DUP1 SLOAD PUSH1 0xFF NOT AND SWAP1 SSTORE CALLVALUE DUP1 ISZERO PUSH2 0x1A JUMPI PUSH1 0x0 DUP1 REVERT JUMPDEST POP PUSH2 0x221 DUP1 PUSH2 0x2A PUSH1 0x0 CODECOPY PUSH1 0x0 RETURN INVALID PUSH1 0x80 PUSH1 0x40 MSTORE CALLVALUE DUP1 ISZERO PUSH2 0x10 JUMPI PUSH1 0x0 DUP1 REVERT JUMPDEST POP PUSH1 0x4 CALLDATASIZE LT PUSH2 0x57 JUMPI PUSH1 0x0 CALLDATALOAD PUSH1 0xE0 SHR DUP1 PUSH4 0xFF5DF67 EQ PUSH2 0x5C JUMPI DUP1 PUSH4 0x669997BC EQ PUSH2 0x78 JUMPI DUP1 PUSH4 0x71985C08 EQ PUSH2 0x8D JUMPI DUP1 PUSH4 0x762F6335 EQ PUSH2 0x96 JUMPI DUP1 PUSH4 0xC12A19F4 EQ PUSH2 0xAB JUMPI JUMPDEST PUSH1 0x0 DUP1 REVERT JUMPDEST PUSH2 0x65 PUSH1 0x1 SLOAD DUP2 JUMP JUMPDEST PUSH1 0x40 MLOAD SWAP1 DUP2 MSTORE PUSH1 0x20 ADD JUMPDEST PUSH1 0x40 MLOAD DUP1 SWAP2 SUB SWAP1 RETURN JUMPDEST PUSH2 0x80 PUSH2 0xBE JUMP JUMPDEST PUSH1 0x40 MLOAD PUSH2 0x6F SWAP2 SWAP1 PUSH2 0x15D JUMP JUMPDEST PUSH2 0x65 PUSH1 0x0 SLOAD DUP2 JUMP JUMPDEST PUSH2 0xA9 PUSH2 0xA4 CALLDATASIZE PUSH1 0x4 PUSH2 0x1AB JUMP JUMPDEST PUSH1 0x1 SSTORE JUMP JUMPDEST STOP JUMPDEST PUSH2 0xA9 PUSH2 0xB9 CALLDATASIZE PUSH1 0x4 PUSH2 0x1AB JUMP JUMPDEST PUSH1 0x0 SSTORE JUMP JUMPDEST PUSH1 0x60 PUSH1 0x1 JUMPDEST PUSH1 0x2 DUP2 GT PUSH2 0xF6 JUMPI PUSH1 0x0 SLOAD PUSH1 0x1 SLOAD SUB PUSH2 0xE4 JUMPI PUSH1 0x2 DUP1 SLOAD PUSH1 0xFF NOT AND PUSH1 0x1 OR SWAP1 SSTORE JUMPDEST DUP1 PUSH2 0xEE DUP2 PUSH2 0x1C4 JUMP JUMPDEST SWAP2 POP POP PUSH2 0xC3 JUMP JUMPDEST POP PUSH1 0x2 SLOAD PUSH1 0xFF AND ISZERO PUSH2 0x126 JUMPI POP PUSH1 0x40 DUP1 MLOAD DUP1 DUP3 ADD SWAP1 SWAP2 MSTORE PUSH1 0x9 DUP2 MSTORE PUSH9 0x596F752077696E2121 PUSH1 0xB8 SHL PUSH1 0x20 DUP3 ADD MSTORE SWAP1 JUMP JUMPDEST PUSH1 0x40 MLOAD PUSH3 0x461BCD PUSH1 0xE5 SHL DUP2 MSTORE PUSH1 0x20 PUSH1 0x4 DUP3 ADD MSTORE PUSH1 0x8 PUSH1 0x24 DUP3 ADD MSTORE PUSH8 0x596F75206C6F7373 PUSH1 0xC0 SHL PUSH1 0x44 DUP3 ADD MSTORE PUSH1 0x64 ADD PUSH1 0x40 MLOAD DUP1 SWAP2 SUB SWAP1 REVERT JUMPDEST PUSH1 0x0 PUSH1 0x20 DUP1 DUP4 MSTORE DUP4 MLOAD DUP1 DUP3 DUP6 ADD MSTORE PUSH1 0x0 JUMPDEST DUP2 DUP2 LT ISZERO PUSH2 0x18A JUMPI DUP6 DUP2 ADD DUP4 ADD MLOAD DUP6 DUP3 ADD PUSH1 0x40 ADD MSTORE DUP3 ADD PUSH2 0x16E JUMP JUMPDEST POP PUSH1 0x0 PUSH1 0x40 DUP3 DUP7 ADD ADD MSTORE PUSH1 0x40 PUSH1 0x1F NOT PUSH1 0x1F DUP4 ADD AND DUP6 ADD ADD SWAP3 POP POP POP SWAP3 SWAP2 POP POP JUMP JUMPDEST PUSH1 0x0 PUSH1 0x20 DUP3 DUP5 SUB SLT ISZERO PUSH2 0x1BD JUMPI PUSH1 0x0 DUP1 REVERT JUMPDEST POP CALLDATALOAD SWAP2 SWAP1 POP JUMP JUMPDEST PUSH1 0x0 PUSH1 0x1 DUP3 ADD PUSH2 0x1E4 JUMPI PUSH4 0x4E487B71 PUSH1 0xE0 SHL PUSH1 0x0 MSTORE PUSH1 0x11 PUSH1 0x4 MSTORE PUSH1 0x24 PUSH1 0x0 REVERT JUMPDEST POP PUSH1 0x1 ADD SWAP1 JUMP INVALID LOG2 PUSH5 0x6970667358 0x22 SLT KECCAK256 PC SWAP1 COINBASE SSTORE PREVRANDAO CALLDATASIZE RETURN RETURNDATASIZE 0x5E 0xFC EXTCODESIZE PUSH11 0x2602BB9BEC78497EEBC040 0xE7 CALL 0x2C 0xD6 PUSH20 0x5436BF5564736F6C634300081300330000000000 "
		},
		"gasEstimates": {
			"creation": {
				"codeDepositCost": "109000",
				"executionCost": "24377",
				"totalCost": "133377"
			},
			"external": {
				"guessNumber()": "2262",
				"logicCheck()": "infinite",
				"setGuessNumber(uint256)": "22356",
				"setTargetNumber(uint256)": "22378",
				"targetNumber()": "2306"
			}
		},
		"methodIdentifiers": {
			"guessNumber()": "0ff5df67",
			"logicCheck()": "669997bc",
			"setGuessNumber(uint256)": "762f6335",
			"setTargetNumber(uint256)": "c12a19f4",
			"targetNumber()": "71985c08"
		}
	},
	"abi": [
		{
			"inputs": [],
			"name": "guessNumber",
			"outputs": [
				{
					"internalType": "uint256",
					"name": "",
					"type": "uint256"
				}
			],
			"stateMutability": "view",
			"type": "function"
		},
		{
			"inputs": [],
			"name": "logicCheck",
			"outputs": [
				{
					"internalType": "string",
					"name": "",
					"type": "string"
				}
			],
			"stateMutability": "nonpayable",
			"type": "function"
		},
		{
			"inputs": [
				{
					"internalType": "uint256",
					"name": "newGuessNumber",
					"type": "uint256"
				}
			],
			"name": "setGuessNumber",
			"outputs": [],
			"stateMutability": "nonpayable",
			"type": "function"
		},
		{
			"inputs": [
				{
					"internalType": "uint256",
					"name": "newTargetNubmer",
					"type": "uint256"
				}
			],
			"name": "setTargetNumber",
			"outputs": [],
			"stateMutability": "nonpayable",
			"type": "function"
		},
		{
			"inputs": [],
			"name": "targetNumber",
			"outputs": [
				{
					"internalType": "uint256",
					"name": "",
					"type": "uint256"
				}
			],
			"stateMutability": "view",
			"type": "function"
		}
	]
}