{
	"data": {
		"bytecode": {
			"linkReferences": {},
			"object": "60c0604052600a60809081526920b93ab71025bab6b0b960b11b60a0526000906100299082610107565b50602c600155600280546001600160a81b03191674015b38da6a701c568545dcfcb03fcb875f56beddc417905534801561006257600080fd5b506101c6565b634e487b7160e01b600052604160045260246000fd5b600181811c9082168061009257607f821691505b6020821081036100b257634e487b7160e01b600052602260045260246000fd5b50919050565b601f82111561010257600081815260208120601f850160051c810160208610156100df5750805b601f850160051c820191505b818110156100fe578281556001016100eb565b5050505b505050565b81516001600160401b0381111561012057610120610068565b6101348161012e845461007e565b846100b8565b602080601f83116001811461016957600084156101515750858301515b600019600386901b1c1916600185901b1785556100fe565b600085815260208120601f198616915b8281101561019857888601518255948401946001909101908401610179565b50858210156101b65787850151600019600388901b60f8161c191681555b5050505050600190811b01905550565b61057b806101d56000396000f3fe608060405234801561001057600080fd5b50600436106100925760003560e01c80637876b57f116100665780637876b57f1461010a578063b880b69a14610112578063b93d1d5a1461013d578063fae2dd4b14610150578063fdfa0a9a1461015857600080fd5b806274530a14610097578063162ab909146100c057806323fd0e40146100e057806364b067ec146100f7575b600080fd5b6002546100ab90600160a01b900460ff1681565b60405190151581526020015b60405180910390f35b6100d36100ce36600461026f565b61016b565b6040516100b79190610320565b6100e960015481565b6040519081526020016100b7565b6100e961010536600461036e565b610180565b6100e9610196565b600254610125906001600160a01b031681565b6040516001600160a01b0390911681526020016100b7565b6100e961014b36600461036e565b6101ab565b6100d36101bb565b6100e961016636600461036e565b610249565b606060006101798382610410565b5090919050565b60008160015461019091906104e6565b92915050565b6001546000906101a690806104f9565b905090565b6000816001546101909190610510565b600080546101c890610387565b80601f01602080910402602001604051908101604052809291908181526020018280546101f490610387565b80156102415780601f1061021657610100808354040283529160200191610241565b820191906000526020600020905b81548152906001019060200180831161022457829003601f168201915b505050505081565b6000816001546101909190610532565b634e487b7160e01b600052604160045260246000fd5b60006020828403121561028157600080fd5b813567ffffffffffffffff8082111561029957600080fd5b818401915084601f8301126102ad57600080fd5b8135818111156102bf576102bf610259565b604051601f8201601f19908116603f011681019083821181831017156102e7576102e7610259565b8160405282815287602084870101111561030057600080fd5b826020860160208301376000928101602001929092525095945050505050565b600060208083528351808285015260005b8181101561034d57858101830151858201604001528201610331565b506000604082860101526040601f19601f8301168501019250505092915050565b60006020828403121561038057600080fd5b5035919050565b600181811c9082168061039b57607f821691505b6020821081036103bb57634e487b7160e01b600052602260045260246000fd5b50919050565b601f82111561040b57600081815260208120601f850160051c810160208610156103e85750805b601f850160051c820191505b81811015610407578281556001016103f4565b5050505b505050565b815167ffffffffffffffff81111561042a5761042a610259565b61043e816104388454610387565b846103c1565b602080601f831160018114610473576000841561045b5750858301515b600019600386901b1c1916600185901b178555610407565b600085815260208120601f198616915b828110156104a257888601518255948401946001909101908401610483565b50858210156104c05787850151600019600388901b60f8161c191681555b5050505050600190811b01905550565b634e487b7160e01b600052601160045260246000fd5b81810381811115610190576101906104d0565b8082028115828204841417610190576101906104d0565b60008261052d57634e487b7160e01b600052601260045260246000fd5b500490565b80820180821115610190576101906104d056fea264697066735822122064df13da0a45484c9026a46341699ad2212b110223f6ec47dbca43cecf2bad3f64736f6c63430008130033",
			"opcodes": "PUSH1 0xC0 PUSH1 0x40 MSTORE PUSH1 0xA PUSH1 0x80 SWAP1 DUP2 MSTORE PUSH10 0x20B93AB71025BAB6B0B9 PUSH1 0xB1 SHL PUSH1 0xA0 MSTORE PUSH1 0x0 SWAP1 PUSH2 0x29 SWAP1 DUP3 PUSH2 0x107 JUMP JUMPDEST POP PUSH1 0x2C PUSH1 0x1 SSTORE PUSH1 0x2 DUP1 SLOAD PUSH1 0x1 PUSH1 0x1 PUSH1 0xA8 SHL SUB NOT AND PUSH21 0x15B38DA6A701C568545DCFCB03FCB875F56BEDDC4 OR SWAP1 SSTORE CALLVALUE DUP1 ISZERO PUSH2 0x62 JUMPI PUSH1 0x0 DUP1 REVERT JUMPDEST POP PUSH2 0x1C6 JUMP JUMPDEST PUSH4 0x4E487B71 PUSH1 0xE0 SHL PUSH1 0x0 MSTORE PUSH1 0x41 PUSH1 0x4 MSTORE PUSH1 0x24 PUSH1 0x0 REVERT JUMPDEST PUSH1 0x1 DUP2 DUP2 SHR SWAP1 DUP3 AND DUP1 PUSH2 0x92 JUMPI PUSH1 0x7F DUP3 AND SWAP2 POP JUMPDEST PUSH1 0x20 DUP3 LT DUP2 SUB PUSH2 0xB2 JUMPI PUSH4 0x4E487B71 PUSH1 0xE0 SHL PUSH1 0x0 MSTORE PUSH1 0x22 PUSH1 0x4 MSTORE PUSH1 0x24 PUSH1 0x0 REVERT JUMPDEST POP SWAP2 SWAP1 POP JUMP JUMPDEST PUSH1 0x1F DUP3 GT ISZERO PUSH2 0x102 JUMPI PUSH1 0x0 DUP2 DUP2 MSTORE PUSH1 0x20 DUP2 KECCAK256 PUSH1 0x1F DUP6 ADD PUSH1 0x5 SHR DUP2 ADD PUSH1 0x20 DUP7 LT ISZERO PUSH2 0xDF JUMPI POP DUP1 JUMPDEST PUSH1 0x1F DUP6 ADD PUSH1 0x5 SHR DUP3 ADD SWAP2 POP JUMPDEST DUP2 DUP2 LT ISZERO PUSH2 0xFE JUMPI DUP3 DUP2 SSTORE PUSH1 0x1 ADD PUSH2 0xEB JUMP JUMPDEST POP POP POP JUMPDEST POP POP POP JUMP JUMPDEST DUP2 MLOAD PUSH1 0x1 PUSH1 0x1 PUSH1 0x40 SHL SUB DUP2 GT ISZERO PUSH2 0x120 JUMPI PUSH2 0x120 PUSH2 0x68 JUMP JUMPDEST PUSH2 0x134 DUP2 PUSH2 0x12E DUP5 SLOAD PUSH2 0x7E JUMP JUMPDEST DUP5 PUSH2 0xB8 JUMP JUMPDEST PUSH1 0x20 DUP1 PUSH1 0x1F DUP4 GT PUSH1 0x1 DUP2 EQ PUSH2 0x169 JUMPI PUSH1 0x0 DUP5 ISZERO PUSH2 0x151 JUMPI POP DUP6 DUP4 ADD MLOAD JUMPDEST PUSH1 0x0 NOT PUSH1 0x3 DUP7 SWAP1 SHL SHR NOT AND PUSH1 0x1 DUP6 SWAP1 SHL OR DUP6 SSTORE PUSH2 0xFE JUMP JUMPDEST PUSH1 0x0 DUP6 DUP2 MSTORE PUSH1 0x20 DUP2 KECCAK256 PUSH1 0x1F NOT DUP7 AND SWAP2 JUMPDEST DUP3 DUP2 LT ISZERO PUSH2 0x198 JUMPI DUP9 DUP7 ADD MLOAD DUP3 SSTORE SWAP5 DUP5 ADD SWAP5 PUSH1 0x1 SWAP1 SWAP2 ADD SWAP1 DUP5 ADD PUSH2 0x179 JUMP JUMPDEST POP DUP6 DUP3 LT ISZERO PUSH2 0x1B6 JUMPI DUP8 DUP6 ADD MLOAD PUSH1 0x0 NOT PUSH1 0x3 DUP9 SWAP1 SHL PUSH1 0xF8 AND SHR NOT AND DUP2 SSTORE JUMPDEST POP POP POP POP POP PUSH1 0x1 SWAP1 DUP2 SHL ADD SWAP1 SSTORE POP JUMP JUMPDEST PUSH2 0x57B DUP1 PUSH2 0x1D5 PUSH1 0x0 CODECOPY PUSH1 0x0 RETURN INVALID PUSH1 0x80 PUSH1 0x40 MSTORE CALLVALUE DUP1 ISZERO PUSH2 0x10 JUMPI PUSH1 0x0 DUP1 REVERT JUMPDEST POP PUSH1 0x4 CALLDATASIZE LT PUSH2 0x92 JUMPI PUSH1 0x0 CALLDATALOAD PUSH1 0xE0 SHR DUP1 PUSH4 0x7876B57F GT PUSH2 0x66 JUMPI DUP1 PUSH4 0x7876B57F EQ PUSH2 0x10A JUMPI DUP1 PUSH4 0xB880B69A EQ PUSH2 0x112 JUMPI DUP1 PUSH4 0xB93D1D5A EQ PUSH2 0x13D JUMPI DUP1 PUSH4 0xFAE2DD4B EQ PUSH2 0x150 JUMPI DUP1 PUSH4 0xFDFA0A9A EQ PUSH2 0x158 JUMPI PUSH1 0x0 DUP1 REVERT JUMPDEST DUP1 PUSH3 0x74530A EQ PUSH2 0x97 JUMPI DUP1 PUSH4 0x162AB909 EQ PUSH2 0xC0 JUMPI DUP1 PUSH4 0x23FD0E40 EQ PUSH2 0xE0 JUMPI DUP1 PUSH4 0x64B067EC EQ PUSH2 0xF7 JUMPI JUMPDEST PUSH1 0x0 DUP1 REVERT JUMPDEST PUSH1 0x2 SLOAD PUSH2 0xAB SWAP1 PUSH1 0x1 PUSH1 0xA0 SHL SWAP1 DIV PUSH1 0xFF AND DUP2 JUMP JUMPDEST PUSH1 0x40 MLOAD SWAP1 ISZERO ISZERO DUP2 MSTORE PUSH1 0x20 ADD JUMPDEST PUSH1 0x40 MLOAD DUP1 SWAP2 SUB SWAP1 RETURN JUMPDEST PUSH2 0xD3 PUSH2 0xCE CALLDATASIZE PUSH1 0x4 PUSH2 0x26F JUMP JUMPDEST PUSH2 0x16B JUMP JUMPDEST PUSH1 0x40 MLOAD PUSH2 0xB7 SWAP2 SWAP1 PUSH2 0x320 JUMP JUMPDEST PUSH2 0xE9 PUSH1 0x1 SLOAD DUP2 JUMP JUMPDEST PUSH1 0x40 MLOAD SWAP1 DUP2 MSTORE PUSH1 0x20 ADD PUSH2 0xB7 JUMP JUMPDEST PUSH2 0xE9 PUSH2 0x105 CALLDATASIZE PUSH1 0x4 PUSH2 0x36E JUMP JUMPDEST PUSH2 0x180 JUMP JUMPDEST PUSH2 0xE9 PUSH2 0x196 JUMP JUMPDEST PUSH1 0x2 SLOAD PUSH2 0x125 SWAP1 PUSH1 0x1 PUSH1 0x1 PUSH1 0xA0 SHL SUB AND DUP2 JUMP JUMPDEST PUSH1 0x40 MLOAD PUSH1 0x1 PUSH1 0x1 PUSH1 0xA0 SHL SUB SWAP1 SWAP2 AND DUP2 MSTORE PUSH1 0x20 ADD PUSH2 0xB7 JUMP JUMPDEST PUSH2 0xE9 PUSH2 0x14B CALLDATASIZE PUSH1 0x4 PUSH2 0x36E JUMP JUMPDEST PUSH2 0x1AB JUMP JUMPDEST PUSH2 0xD3 PUSH2 0x1BB JUMP JUMPDEST PUSH2 0xE9 PUSH2 0x166 CALLDATASIZE PUSH1 0x4 PUSH2 0x36E JUMP JUMPDEST PUSH2 0x249 JUMP JUMPDEST PUSH1 0x60 PUSH1 0x0 PUSH2 0x179 DUP4 DUP3 PUSH2 0x410 JUMP JUMPDEST POP SWAP1 SWAP2 SWAP1 POP JUMP JUMPDEST PUSH1 0x0 DUP2 PUSH1 0x1 SLOAD PUSH2 0x190 SWAP2 SWAP1 PUSH2 0x4E6 JUMP JUMPDEST SWAP3 SWAP2 POP POP JUMP JUMPDEST PUSH1 0x1 SLOAD PUSH1 0x0 SWAP1 PUSH2 0x1A6 SWAP1 DUP1 PUSH2 0x4F9 JUMP JUMPDEST SWAP1 POP SWAP1 JUMP JUMPDEST PUSH1 0x0 DUP2 PUSH1 0x1 SLOAD PUSH2 0x190 SWAP2 SWAP1 PUSH2 0x510 JUMP JUMPDEST PUSH1 0x0 DUP1 SLOAD PUSH2 0x1C8 SWAP1 PUSH2 0x387 JUMP JUMPDEST DUP1 PUSH1 0x1F ADD PUSH1 0x20 DUP1 SWAP2 DIV MUL PUSH1 0x20 ADD PUSH1 0x40 MLOAD SWAP1 DUP2 ADD PUSH1 0x40 MSTORE DUP1 SWAP3 SWAP2 SWAP1 DUP2 DUP2 MSTORE PUSH1 0x20 ADD DUP3 DUP1 SLOAD PUSH2 0x1F4 SWAP1 PUSH2 0x387 JUMP JUMPDEST DUP1 ISZERO PUSH2 0x241 JUMPI DUP1 PUSH1 0x1F LT PUSH2 0x216 JUMPI PUSH2 0x100 DUP1 DUP4 SLOAD DIV MUL DUP4 MSTORE SWAP2 PUSH1 0x20 ADD SWAP2 PUSH2 0x241 JUMP JUMPDEST DUP3 ADD SWAP2 SWAP1 PUSH1 0x0 MSTORE PUSH1 0x20 PUSH1 0x0 KECCAK256 SWAP1 JUMPDEST DUP2 SLOAD DUP2 MSTORE SWAP1 PUSH1 0x1 ADD SWAP1 PUSH1 0x20 ADD DUP1 DUP4 GT PUSH2 0x224 JUMPI DUP3 SWAP1 SUB PUSH1 0x1F AND DUP3 ADD SWAP2 JUMPDEST POP POP POP POP POP DUP2 JUMP JUMPDEST PUSH1 0x0 DUP2 PUSH1 0x1 SLOAD PUSH2 0x190 SWAP2 SWAP1 PUSH2 0x532 JUMP JUMPDEST PUSH4 0x4E487B71 PUSH1 0xE0 SHL PUSH1 0x0 MSTORE PUSH1 0x41 PUSH1 0x4 MSTORE PUSH1 0x24 PUSH1 0x0 REVERT JUMPDEST PUSH1 0x0 PUSH1 0x20 DUP3 DUP5 SUB SLT ISZERO PUSH2 0x281 JUMPI PUSH1 0x0 DUP1 REVERT JUMPDEST DUP2 CALLDATALOAD PUSH8 0xFFFFFFFFFFFFFFFF DUP1 DUP3 GT ISZERO PUSH2 0x299 JUMPI PUSH1 0x0 DUP1 REVERT JUMPDEST DUP2 DUP5 ADD SWAP2 POP DUP5 PUSH1 0x1F DUP4 ADD SLT PUSH2 0x2AD JUMPI PUSH1 0x0 DUP1 REVERT JUMPDEST DUP2 CALLDATALOAD DUP2 DUP2 GT ISZERO PUSH2 0x2BF JUMPI PUSH2 0x2BF PUSH2 0x259 JUMP JUMPDEST PUSH1 0x40 MLOAD PUSH1 0x1F DUP3 ADD PUSH1 0x1F NOT SWAP1 DUP2 AND PUSH1 0x3F ADD AND DUP2 ADD SWAP1 DUP4 DUP3 GT DUP2 DUP4 LT OR ISZERO PUSH2 0x2E7 JUMPI PUSH2 0x2E7 PUSH2 0x259 JUMP JUMPDEST DUP2 PUSH1 0x40 MSTORE DUP3 DUP2 MSTORE DUP8 PUSH1 0x20 DUP5 DUP8 ADD ADD GT ISZERO PUSH2 0x300 JUMPI PUSH1 0x0 DUP1 REVERT JUMPDEST DUP3 PUSH1 0x20 DUP7 ADD PUSH1 0x20 DUP4 ADD CALLDATACOPY PUSH1 0x0 SWAP3 DUP2 ADD PUSH1 0x20 ADD SWAP3 SWAP1 SWAP3 MSTORE POP SWAP6 SWAP5 POP POP POP POP POP JUMP JUMPDEST PUSH1 0x0 PUSH1 0x20 DUP1 DUP4 MSTORE DUP4 MLOAD DUP1 DUP3 DUP6 ADD MSTORE PUSH1 0x0 JUMPDEST DUP2 DUP2 LT ISZERO PUSH2 0x34D JUMPI DUP6 DUP2 ADD DUP4 ADD MLOAD DUP6 DUP3 ADD PUSH1 0x40 ADD MSTORE DUP3 ADD PUSH2 0x331 JUMP JUMPDEST POP PUSH1 0x0 PUSH1 0x40 DUP3 DUP7 ADD ADD MSTORE PUSH1 0x40 PUSH1 0x1F NOT PUSH1 0x1F DUP4 ADD AND DUP6 ADD ADD SWAP3 POP POP POP SWAP3 SWAP2 POP POP JUMP JUMPDEST PUSH1 0x0 PUSH1 0x20 DUP3 DUP5 SUB SLT ISZERO PUSH2 0x380 JUMPI PUSH1 0x0 DUP1 REVERT JUMPDEST POP CALLDATALOAD SWAP2 SWAP1 POP JUMP JUMPDEST PUSH1 0x1 DUP2 DUP2 SHR SWAP1 DUP3 AND DUP1 PUSH2 0x39B JUMPI PUSH1 0x7F DUP3 AND SWAP2 POP JUMPDEST PUSH1 0x20 DUP3 LT DUP2 SUB PUSH2 0x3BB JUMPI PUSH4 0x4E487B71 PUSH1 0xE0 SHL PUSH1 0x0 MSTORE PUSH1 0x22 PUSH1 0x4 MSTORE PUSH1 0x24 PUSH1 0x0 REVERT JUMPDEST POP SWAP2 SWAP1 POP JUMP JUMPDEST PUSH1 0x1F DUP3 GT ISZERO PUSH2 0x40B JUMPI PUSH1 0x0 DUP2 DUP2 MSTORE PUSH1 0x20 DUP2 KECCAK256 PUSH1 0x1F DUP6 ADD PUSH1 0x5 SHR DUP2 ADD PUSH1 0x20 DUP7 LT ISZERO PUSH2 0x3E8 JUMPI POP DUP1 JUMPDEST PUSH1 0x1F DUP6 ADD PUSH1 0x5 SHR DUP3 ADD SWAP2 POP JUMPDEST DUP2 DUP2 LT ISZERO PUSH2 0x407 JUMPI DUP3 DUP2 SSTORE PUSH1 0x1 ADD PUSH2 0x3F4 JUMP JUMPDEST POP POP POP JUMPDEST POP POP POP JUMP JUMPDEST DUP2 MLOAD PUSH8 0xFFFFFFFFFFFFFFFF DUP2 GT ISZERO PUSH2 0x42A JUMPI PUSH2 0x42A PUSH2 0x259 JUMP JUMPDEST PUSH2 0x43E DUP2 PUSH2 0x438 DUP5 SLOAD PUSH2 0x387 JUMP JUMPDEST DUP5 PUSH2 0x3C1 JUMP JUMPDEST PUSH1 0x20 DUP1 PUSH1 0x1F DUP4 GT PUSH1 0x1 DUP2 EQ PUSH2 0x473 JUMPI PUSH1 0x0 DUP5 ISZERO PUSH2 0x45B JUMPI POP DUP6 DUP4 ADD MLOAD JUMPDEST PUSH1 0x0 NOT PUSH1 0x3 DUP7 SWAP1 SHL SHR NOT AND PUSH1 0x1 DUP6 SWAP1 SHL OR DUP6 SSTORE PUSH2 0x407 JUMP JUMPDEST PUSH1 0x0 DUP6 DUP2 MSTORE PUSH1 0x20 DUP2 KECCAK256 PUSH1 0x1F NOT DUP7 AND SWAP2 JUMPDEST DUP3 DUP2 LT ISZERO PUSH2 0x4A2 JUMPI DUP9 DUP7 ADD MLOAD DUP3 SSTORE SWAP5 DUP5 ADD SWAP5 PUSH1 0x1 SWAP1 SWAP2 ADD SWAP1 DUP5 ADD PUSH2 0x483 JUMP JUMPDEST POP DUP6 DUP3 LT ISZERO PUSH2 0x4C0 JUMPI DUP8 DUP6 ADD MLOAD PUSH1 0x0 NOT PUSH1 0x3 DUP9 SWAP1 SHL PUSH1 0xF8 AND SHR NOT AND DUP2 SSTORE JUMPDEST POP POP POP POP POP PUSH1 0x1 SWAP1 DUP2 SHL ADD SWAP1 SSTORE POP JUMP JUMPDEST PUSH4 0x4E487B71 PUSH1 0xE0 SHL PUSH1 0x0 MSTORE PUSH1 0x11 PUSH1 0x4 MSTORE PUSH1 0x24 PUSH1 0x0 REVERT JUMPDEST DUP2 DUP2 SUB DUP2 DUP2 GT ISZERO PUSH2 0x190 JUMPI PUSH2 0x190 PUSH2 0x4D0 JUMP JUMPDEST DUP1 DUP3 MUL DUP2 ISZERO DUP3 DUP3 DIV DUP5 EQ OR PUSH2 0x190 JUMPI PUSH2 0x190 PUSH2 0x4D0 JUMP JUMPDEST PUSH1 0x0 DUP3 PUSH2 0x52D JUMPI PUSH4 0x4E487B71 PUSH1 0xE0 SHL PUSH1 0x0 MSTORE PUSH1 0x12 PUSH1 0x4 MSTORE PUSH1 0x24 PUSH1 0x0 REVERT JUMPDEST POP DIV SWAP1 JUMP JUMPDEST DUP1 DUP3 ADD DUP1 DUP3 GT ISZERO PUSH2 0x190 JUMPI PUSH2 0x190 PUSH2 0x4D0 JUMP INVALID LOG2 PUSH5 0x6970667358 0x22 SLT KECCAK256 PUSH5 0xDF13DA0A45 BASEFEE 0x4C SWAP1 0x26 LOG4 PUSH4 0x41699AD2 0x21 0x2B GT MUL 0x23 0xF6 0xEC SELFBALANCE 0xDB 0xCA NUMBER 0xCE 0xCF 0x2B 0xAD EXTCODEHASH PUSH5 0x736F6C6343 STOP ADDMOD SGT STOP CALLER "
		},
		"gasEstimates": {
			"creation": {
				"codeDepositCost": "280600",
				"executionCost": "infinite",
				"totalCost": "infinite"
			},
			"external": {
				"addToMyNumber(uint256)": "infinite",
				"divideMyNumber(uint256)": "2501",
				"isTrue()": "2317",
				"myName()": "infinite",
				"myNumber()": "2340",
				"myWallet()": "2359",
				"squareOfMyNumber()": "2409",
				"subtractFromMyNumber(uint256)": "infinite",
				"updateMyName(string)": "infinite"
			}
		},
		"methodIdentifiers": {
			"addToMyNumber(uint256)": "fdfa0a9a",
			"divideMyNumber(uint256)": "b93d1d5a",
			"isTrue()": "0074530a",
			"myName()": "fae2dd4b",
			"myNumber()": "23fd0e40",
			"myWallet()": "b880b69a",
			"squareOfMyNumber()": "7876b57f",
			"subtractFromMyNumber(uint256)": "64b067ec",
			"updateMyName(string)": "162ab909"
		}
	},
	"abi": [
		{
			"inputs": [
				{
					"internalType": "uint256",
					"name": "numberToAdd",
					"type": "uint256"
				}
			],
			"name": "addToMyNumber",
			"outputs": [
				{
					"internalType": "uint256",
					"name": "",
					"type": "uint256"
				}
			],
			"stateMutability": "view",
			"type": "function"
		},
		{
			"inputs": [
				{
					"internalType": "uint256",
					"name": "divisor",
					"type": "uint256"
				}
			],
			"name": "divideMyNumber",
			"outputs": [
				{
					"internalType": "uint256",
					"name": "",
					"type": "uint256"
				}
			],
			"stateMutability": "view",
			"type": "function"
		},
		{
			"inputs": [],
			"name": "isTrue",
			"outputs": [
				{
					"internalType": "bool",
					"name": "",
					"type": "bool"
				}
			],
			"stateMutability": "view",
			"type": "function"
		},
		{
			"inputs": [],
			"name": "myName",
			"outputs": [
				{
					"internalType": "string",
					"name": "",
					"type": "string"
				}
			],
			"stateMutability": "view",
			"type": "function"
		},
		{
			"inputs": [],
			"name": "myNumber",
			"outputs": [
				{
					"internalType": "uint256",
					"name": "",
					"type": "uint256"
				}
			],
			"stateMutability": "view",
			"type": "function"
		},
		{
			"inputs": [],
			"name": "myWallet",
			"outputs": [
				{
					"internalType": "address",
					"name": "",
					"type": "address"
				}
			],
			"stateMutability": "view",
			"type": "function"
		},
		{
			"inputs": [],
			"name": "squareOfMyNumber",
			"outputs": [
				{
					"internalType": "uint256",
					"name": "",
					"type": "uint256"
				}
			],
			"stateMutability": "view",
			"type": "function"
		},
		{
			"inputs": [
				{
					"internalType": "uint256",
					"name": "numberToSubtract",
					"type": "uint256"
				}
			],
			"name": "subtractFromMyNumber",
			"outputs": [
				{
					"internalType": "uint256",
					"name": "",
					"type": "uint256"
				}
			],
			"stateMutability": "view",
			"type": "function"
		},
		{
			"inputs": [
				{
					"internalType": "string",
					"name": "newName",
					"type": "string"
				}
			],
			"name": "updateMyName",
			"outputs": [
				{
					"internalType": "string",
					"name": "_myName",
					"type": "string"
				}
			],
			"stateMutability": "nonpayable",
			"type": "function"
		}
	]
}