{
	"data": {
		"bytecode": {
			"linkReferences": {},
			"object": "60806040526000805560018055600280546001600160a01b0319163017905534801561002a57600080fd5b50600480546001600160a01b0319163317905561061e8061004c6000396000f3fe6080604052600436106100915760003560e01c80638da5cb5b116100595780638da5cb5b1461010b578063ac44600214610143578063dbdff2c114610158578063edb84ff71461016d578063f6b4dfb41461018257600080fd5b80630b01517c14610096578063103f90f4146100b957806312065fe0146100cf5780633f925f7a146100ee5780635873533d146100f8575b600080fd5b3480156100a257600080fd5b5033315b6040519081526020015b60405180910390f35b3480156100c557600080fd5b506100a660015481565b3480156100db57600080fd5b506002546001600160a01b0316316100a6565b6100f66101a2565b005b6100f6610106366004610552565b6101e6565b34801561011757600080fd5b5060045461012b906001600160a01b031681565b6040516001600160a01b0390911681526020016100b0565b34801561014f57600080fd5b506100f6610312565b34801561016457600080fd5b506100a66103d7565b34801561017957600080fd5b506100f66104cd565b34801561018e57600080fd5b5060025461012b906001600160a01b031681565b6002546040516001600160a01b039091163181527ff0b60c507a2e93235b6bed490cd5616aa2f43a849c3d167e96d6c5099b5524e5906020015b60405180910390a1565b600454600160a01b900460ff161561023d5760405162461bcd60e51b8152602060048201526015602482015274115c9c9bdc8e881499595b9d1c985b9d0818d85b1b605a1b60448201526064015b60405180910390fd5b6004805460ff60a01b1916600160a01b179055670de0b6b3a76400003410156102985760405162461bcd60e51b815260206004820152600d60248201526c73656e6420312065746865722160981b6044820152606401610234565b600a600154116102b857600180549060006102b283610581565b91905055505b806102c16103d7565b036102fa57600380546001600160a01b031916331790556102e0610312565b600380546001600160a01b03191690556002600155610302565b6103026101a2565b506004805460ff60a01b19169055565b6003546001600160a01b031633146103605760405162461bcd60e51b81526020600482015260116024820152702cb7ba9030b932903737ba103bb4b732b960791b6044820152606401610234565b60025460405133916001600160a01b03163180156108fc02916000818181858888f19350505050158015610398573d6000803e3d6000fd5b506002546040516001600160a01b039091163181527ff0b60c507a2e93235b6bed490cd5616aa2f43a849c3d167e96d6c5099b5524e5906020016101dc565b60008042446103e760014361059a565b60408051602081019490945283019190915240606082015260800160408051601f19818403018152828252805160209182012060008054928501829052928401919091529250906060016040516020818303038152906040528051906020012060001c9050600160008082825461045e91906105b3565b90915550506001547fed6ad2f84ff9379c0261f2ba89850d87d385f1f35c6d1254dd6b54f946a0567e9061049290836105c6565b61049d9060016105b3565b60405190815260200160405180910390a16001546104bb90826105c6565b6104c69060016105b3565b9250505090565b6004546001600160a01b031633146105175760405162461bcd60e51b815260206004820152600d60248201526c2737ba103a34329037bbb732b960991b6044820152606401610234565b60025460405133916001600160a01b03163180156108fc02916000818181858888f1935050505015801561054f573d6000803e3d6000fd5b50565b60006020828403121561056457600080fd5b5035919050565b634e487b7160e01b600052601160045260246000fd5b6000600182016105935761059361056b565b5060010190565b818103818111156105ad576105ad61056b565b92915050565b808201808211156105ad576105ad61056b565b6000826105e357634e487b7160e01b600052601260045260246000fd5b50069056fea2646970667358221220835c57a43aa956bd90af444489c13aee63edf69b64f911065c4e3f33379b636364736f6c63430008130033",
			"opcodes": "PUSH1 0x80 PUSH1 0x40 MSTORE PUSH1 0x0 DUP1 SSTORE PUSH1 0x1 DUP1 SSTORE PUSH1 0x2 DUP1 SLOAD PUSH1 0x1 PUSH1 0x1 PUSH1 0xA0 SHL SUB NOT AND ADDRESS OR SWAP1 SSTORE CALLVALUE DUP1 ISZERO PUSH2 0x2A JUMPI PUSH1 0x0 DUP1 REVERT JUMPDEST POP PUSH1 0x4 DUP1 SLOAD PUSH1 0x1 PUSH1 0x1 PUSH1 0xA0 SHL SUB NOT AND CALLER OR SWAP1 SSTORE PUSH2 0x61E DUP1 PUSH2 0x4C PUSH1 0x0 CODECOPY PUSH1 0x0 RETURN INVALID PUSH1 0x80 PUSH1 0x40 MSTORE PUSH1 0x4 CALLDATASIZE LT PUSH2 0x91 JUMPI PUSH1 0x0 CALLDATALOAD PUSH1 0xE0 SHR DUP1 PUSH4 0x8DA5CB5B GT PUSH2 0x59 JUMPI DUP1 PUSH4 0x8DA5CB5B EQ PUSH2 0x10B JUMPI DUP1 PUSH4 0xAC446002 EQ PUSH2 0x143 JUMPI DUP1 PUSH4 0xDBDFF2C1 EQ PUSH2 0x158 JUMPI DUP1 PUSH4 0xEDB84FF7 EQ PUSH2 0x16D JUMPI DUP1 PUSH4 0xF6B4DFB4 EQ PUSH2 0x182 JUMPI PUSH1 0x0 DUP1 REVERT JUMPDEST DUP1 PUSH4 0xB01517C EQ PUSH2 0x96 JUMPI DUP1 PUSH4 0x103F90F4 EQ PUSH2 0xB9 JUMPI DUP1 PUSH4 0x12065FE0 EQ PUSH2 0xCF JUMPI DUP1 PUSH4 0x3F925F7A EQ PUSH2 0xEE JUMPI DUP1 PUSH4 0x5873533D EQ PUSH2 0xF8 JUMPI JUMPDEST PUSH1 0x0 DUP1 REVERT JUMPDEST CALLVALUE DUP1 ISZERO PUSH2 0xA2 JUMPI PUSH1 0x0 DUP1 REVERT JUMPDEST POP CALLER BALANCE JUMPDEST PUSH1 0x40 MLOAD SWAP1 DUP2 MSTORE PUSH1 0x20 ADD JUMPDEST PUSH1 0x40 MLOAD DUP1 SWAP2 SUB SWAP1 RETURN JUMPDEST CALLVALUE DUP1 ISZERO PUSH2 0xC5 JUMPI PUSH1 0x0 DUP1 REVERT JUMPDEST POP PUSH2 0xA6 PUSH1 0x1 SLOAD DUP2 JUMP JUMPDEST CALLVALUE DUP1 ISZERO PUSH2 0xDB JUMPI PUSH1 0x0 DUP1 REVERT JUMPDEST POP PUSH1 0x2 SLOAD PUSH1 0x1 PUSH1 0x1 PUSH1 0xA0 SHL SUB AND BALANCE PUSH2 0xA6 JUMP JUMPDEST PUSH2 0xF6 PUSH2 0x1A2 JUMP JUMPDEST STOP JUMPDEST PUSH2 0xF6 PUSH2 0x106 CALLDATASIZE PUSH1 0x4 PUSH2 0x552 JUMP JUMPDEST PUSH2 0x1E6 JUMP JUMPDEST CALLVALUE DUP1 ISZERO PUSH2 0x117 JUMPI PUSH1 0x0 DUP1 REVERT JUMPDEST POP PUSH1 0x4 SLOAD PUSH2 0x12B SWAP1 PUSH1 0x1 PUSH1 0x1 PUSH1 0xA0 SHL SUB AND DUP2 JUMP JUMPDEST PUSH1 0x40 MLOAD PUSH1 0x1 PUSH1 0x1 PUSH1 0xA0 SHL SUB SWAP1 SWAP2 AND DUP2 MSTORE PUSH1 0x20 ADD PUSH2 0xB0 JUMP JUMPDEST CALLVALUE DUP1 ISZERO PUSH2 0x14F JUMPI PUSH1 0x0 DUP1 REVERT JUMPDEST POP PUSH2 0xF6 PUSH2 0x312 JUMP JUMPDEST CALLVALUE DUP1 ISZERO PUSH2 0x164 JUMPI PUSH1 0x0 DUP1 REVERT JUMPDEST POP PUSH2 0xA6 PUSH2 0x3D7 JUMP JUMPDEST CALLVALUE DUP1 ISZERO PUSH2 0x179 JUMPI PUSH1 0x0 DUP1 REVERT JUMPDEST POP PUSH2 0xF6 PUSH2 0x4CD JUMP JUMPDEST CALLVALUE DUP1 ISZERO PUSH2 0x18E JUMPI PUSH1 0x0 DUP1 REVERT JUMPDEST POP PUSH1 0x2 SLOAD PUSH2 0x12B SWAP1 PUSH1 0x1 PUSH1 0x1 PUSH1 0xA0 SHL SUB AND DUP2 JUMP JUMPDEST PUSH1 0x2 SLOAD PUSH1 0x40 MLOAD PUSH1 0x1 PUSH1 0x1 PUSH1 0xA0 SHL SUB SWAP1 SWAP2 AND BALANCE DUP2 MSTORE PUSH32 0xF0B60C507A2E93235B6BED490CD5616AA2F43A849C3D167E96D6C5099B5524E5 SWAP1 PUSH1 0x20 ADD JUMPDEST PUSH1 0x40 MLOAD DUP1 SWAP2 SUB SWAP1 LOG1 JUMP JUMPDEST PUSH1 0x4 SLOAD PUSH1 0x1 PUSH1 0xA0 SHL SWAP1 DIV PUSH1 0xFF AND ISZERO PUSH2 0x23D JUMPI PUSH1 0x40 MLOAD PUSH3 0x461BCD PUSH1 0xE5 SHL DUP2 MSTORE PUSH1 0x20 PUSH1 0x4 DUP3 ADD MSTORE PUSH1 0x15 PUSH1 0x24 DUP3 ADD MSTORE PUSH21 0x115C9C9BDC8E881499595B9D1C985B9D0818D85B1B PUSH1 0x5A SHL PUSH1 0x44 DUP3 ADD MSTORE PUSH1 0x64 ADD JUMPDEST PUSH1 0x40 MLOAD DUP1 SWAP2 SUB SWAP1 REVERT JUMPDEST PUSH1 0x4 DUP1 SLOAD PUSH1 0xFF PUSH1 0xA0 SHL NOT AND PUSH1 0x1 PUSH1 0xA0 SHL OR SWAP1 SSTORE PUSH8 0xDE0B6B3A7640000 CALLVALUE LT ISZERO PUSH2 0x298 JUMPI PUSH1 0x40 MLOAD PUSH3 0x461BCD PUSH1 0xE5 SHL DUP2 MSTORE PUSH1 0x20 PUSH1 0x4 DUP3 ADD MSTORE PUSH1 0xD PUSH1 0x24 DUP3 ADD MSTORE PUSH13 0x73656E64203120657468657221 PUSH1 0x98 SHL PUSH1 0x44 DUP3 ADD MSTORE PUSH1 0x64 ADD PUSH2 0x234 JUMP JUMPDEST PUSH1 0xA PUSH1 0x1 SLOAD GT PUSH2 0x2B8 JUMPI PUSH1 0x1 DUP1 SLOAD SWAP1 PUSH1 0x0 PUSH2 0x2B2 DUP4 PUSH2 0x581 JUMP JUMPDEST SWAP2 SWAP1 POP SSTORE POP JUMPDEST DUP1 PUSH2 0x2C1 PUSH2 0x3D7 JUMP JUMPDEST SUB PUSH2 0x2FA JUMPI PUSH1 0x3 DUP1 SLOAD PUSH1 0x1 PUSH1 0x1 PUSH1 0xA0 SHL SUB NOT AND CALLER OR SWAP1 SSTORE PUSH2 0x2E0 PUSH2 0x312 JUMP JUMPDEST PUSH1 0x3 DUP1 SLOAD PUSH1 0x1 PUSH1 0x1 PUSH1 0xA0 SHL SUB NOT AND SWAP1 SSTORE PUSH1 0x2 PUSH1 0x1 SSTORE PUSH2 0x302 JUMP JUMPDEST PUSH2 0x302 PUSH2 0x1A2 JUMP JUMPDEST POP PUSH1 0x4 DUP1 SLOAD PUSH1 0xFF PUSH1 0xA0 SHL NOT AND SWAP1 SSTORE JUMP JUMPDEST PUSH1 0x3 SLOAD PUSH1 0x1 PUSH1 0x1 PUSH1 0xA0 SHL SUB AND CALLER EQ PUSH2 0x360 JUMPI PUSH1 0x40 MLOAD PUSH3 0x461BCD PUSH1 0xE5 SHL DUP2 MSTORE PUSH1 0x20 PUSH1 0x4 DUP3 ADD MSTORE PUSH1 0x11 PUSH1 0x24 DUP3 ADD MSTORE PUSH17 0x2CB7BA9030B932903737BA103BB4B732B9 PUSH1 0x79 SHL PUSH1 0x44 DUP3 ADD MSTORE PUSH1 0x64 ADD PUSH2 0x234 JUMP JUMPDEST PUSH1 0x2 SLOAD PUSH1 0x40 MLOAD CALLER SWAP2 PUSH1 0x1 PUSH1 0x1 PUSH1 0xA0 SHL SUB AND BALANCE DUP1 ISZERO PUSH2 0x8FC MUL SWAP2 PUSH1 0x0 DUP2 DUP2 DUP2 DUP6 DUP9 DUP9 CALL SWAP4 POP POP POP POP ISZERO DUP1 ISZERO PUSH2 0x398 JUMPI RETURNDATASIZE PUSH1 0x0 DUP1 RETURNDATACOPY RETURNDATASIZE PUSH1 0x0 REVERT JUMPDEST POP PUSH1 0x2 SLOAD PUSH1 0x40 MLOAD PUSH1 0x1 PUSH1 0x1 PUSH1 0xA0 SHL SUB SWAP1 SWAP2 AND BALANCE DUP2 MSTORE PUSH32 0xF0B60C507A2E93235B6BED490CD5616AA2F43A849C3D167E96D6C5099B5524E5 SWAP1 PUSH1 0x20 ADD PUSH2 0x1DC JUMP JUMPDEST PUSH1 0x0 DUP1 TIMESTAMP PREVRANDAO PUSH2 0x3E7 PUSH1 0x1 NUMBER PUSH2 0x59A JUMP JUMPDEST PUSH1 0x40 DUP1 MLOAD PUSH1 0x20 DUP2 ADD SWAP5 SWAP1 SWAP5 MSTORE DUP4 ADD SWAP2 SWAP1 SWAP2 MSTORE BLOCKHASH PUSH1 0x60 DUP3 ADD MSTORE PUSH1 0x80 ADD PUSH1 0x40 DUP1 MLOAD PUSH1 0x1F NOT DUP2 DUP5 SUB ADD DUP2 MSTORE DUP3 DUP3 MSTORE DUP1 MLOAD PUSH1 0x20 SWAP2 DUP3 ADD KECCAK256 PUSH1 0x0 DUP1 SLOAD SWAP3 DUP6 ADD DUP3 SWAP1 MSTORE SWAP3 DUP5 ADD SWAP2 SWAP1 SWAP2 MSTORE SWAP3 POP SWAP1 PUSH1 0x60 ADD PUSH1 0x40 MLOAD PUSH1 0x20 DUP2 DUP4 SUB SUB DUP2 MSTORE SWAP1 PUSH1 0x40 MSTORE DUP1 MLOAD SWAP1 PUSH1 0x20 ADD KECCAK256 PUSH1 0x0 SHR SWAP1 POP PUSH1 0x1 PUSH1 0x0 DUP1 DUP3 DUP3 SLOAD PUSH2 0x45E SWAP2 SWAP1 PUSH2 0x5B3 JUMP JUMPDEST SWAP1 SWAP2 SSTORE POP POP PUSH1 0x1 SLOAD PUSH32 0xED6AD2F84FF9379C0261F2BA89850D87D385F1F35C6D1254DD6B54F946A0567E SWAP1 PUSH2 0x492 SWAP1 DUP4 PUSH2 0x5C6 JUMP JUMPDEST PUSH2 0x49D SWAP1 PUSH1 0x1 PUSH2 0x5B3 JUMP JUMPDEST PUSH1 0x40 MLOAD SWAP1 DUP2 MSTORE PUSH1 0x20 ADD PUSH1 0x40 MLOAD DUP1 SWAP2 SUB SWAP1 LOG1 PUSH1 0x1 SLOAD PUSH2 0x4BB SWAP1 DUP3 PUSH2 0x5C6 JUMP JUMPDEST PUSH2 0x4C6 SWAP1 PUSH1 0x1 PUSH2 0x5B3 JUMP JUMPDEST SWAP3 POP POP POP SWAP1 JUMP JUMPDEST PUSH1 0x4 SLOAD PUSH1 0x1 PUSH1 0x1 PUSH1 0xA0 SHL SUB AND CALLER EQ PUSH2 0x517 JUMPI PUSH1 0x40 MLOAD PUSH3 0x461BCD PUSH1 0xE5 SHL DUP2 MSTORE PUSH1 0x20 PUSH1 0x4 DUP3 ADD MSTORE PUSH1 0xD PUSH1 0x24 DUP3 ADD MSTORE PUSH13 0x2737BA103A34329037BBB732B9 PUSH1 0x99 SHL PUSH1 0x44 DUP3 ADD MSTORE PUSH1 0x64 ADD PUSH2 0x234 JUMP JUMPDEST PUSH1 0x2 SLOAD PUSH1 0x40 MLOAD CALLER SWAP2 PUSH1 0x1 PUSH1 0x1 PUSH1 0xA0 SHL SUB AND BALANCE DUP1 ISZERO PUSH2 0x8FC MUL SWAP2 PUSH1 0x0 DUP2 DUP2 DUP2 DUP6 DUP9 DUP9 CALL SWAP4 POP POP POP POP ISZERO DUP1 ISZERO PUSH2 0x54F JUMPI RETURNDATASIZE PUSH1 0x0 DUP1 RETURNDATACOPY RETURNDATASIZE PUSH1 0x0 REVERT JUMPDEST POP JUMP JUMPDEST PUSH1 0x0 PUSH1 0x20 DUP3 DUP5 SUB SLT ISZERO PUSH2 0x564 JUMPI PUSH1 0x0 DUP1 REVERT JUMPDEST POP CALLDATALOAD SWAP2 SWAP1 POP JUMP JUMPDEST PUSH4 0x4E487B71 PUSH1 0xE0 SHL PUSH1 0x0 MSTORE PUSH1 0x11 PUSH1 0x4 MSTORE PUSH1 0x24 PUSH1 0x0 REVERT JUMPDEST PUSH1 0x0 PUSH1 0x1 DUP3 ADD PUSH2 0x593 JUMPI PUSH2 0x593 PUSH2 0x56B JUMP JUMPDEST POP PUSH1 0x1 ADD SWAP1 JUMP JUMPDEST DUP2 DUP2 SUB DUP2 DUP2 GT ISZERO PUSH2 0x5AD JUMPI PUSH2 0x5AD PUSH2 0x56B JUMP JUMPDEST SWAP3 SWAP2 POP POP JUMP JUMPDEST DUP1 DUP3 ADD DUP1 DUP3 GT ISZERO PUSH2 0x5AD JUMPI PUSH2 0x5AD PUSH2 0x56B JUMP JUMPDEST PUSH1 0x0 DUP3 PUSH2 0x5E3 JUMPI PUSH4 0x4E487B71 PUSH1 0xE0 SHL PUSH1 0x0 MSTORE PUSH1 0x12 PUSH1 0x4 MSTORE PUSH1 0x24 PUSH1 0x0 REVERT JUMPDEST POP MOD SWAP1 JUMP INVALID LOG2 PUSH5 0x6970667358 0x22 SLT KECCAK256 DUP4 0x5C JUMPI LOG4 GASPRICE 0xA9 JUMP 0xBD SWAP1 0xAF PREVRANDAO PREVRANDAO DUP10 0xC1 GASPRICE 0xEE PUSH4 0xEDF69B64 0xF9 GT MOD 0x5C 0x4E EXTCODEHASH CALLER CALLDATACOPY SWAP12 PUSH4 0x6364736F PUSH13 0x63430008130033000000000000 "
		},
		"gasEstimates": {
			"creation": {
				"codeDepositCost": "313200",
				"executionCost": "75931",
				"totalCost": "389131"
			},
			"external": {
				"contractAddress()": "2425",
				"depositeMoney()": "5969",
				"getAllMoney()": "infinite",
				"getBalance()": "4944",
				"getPlayerBalance()": "2770",
				"getRandomNumber()": "infinite",
				"numberCount()": "2307",
				"owner()": "2337",
				"playGame(uint256)": "infinite",
				"withdrawMoney()": "infinite"
			}
		},
		"methodIdentifiers": {
			"contractAddress()": "f6b4dfb4",
			"depositeMoney()": "3f925f7a",
			"getAllMoney()": "edb84ff7",
			"getBalance()": "12065fe0",
			"getPlayerBalance()": "0b01517c",
			"getRandomNumber()": "dbdff2c1",
			"numberCount()": "103f90f4",
			"owner()": "8da5cb5b",
			"playGame(uint256)": "5873533d",
			"withdrawMoney()": "ac446002"
		}
	},
	"abi": [
		{
			"inputs": [],
			"stateMutability": "nonpayable",
			"type": "constructor"
		},
		{
			"anonymous": false,
			"inputs": [
				{
					"indexed": false,
					"internalType": "uint256",
					"name": "",
					"type": "uint256"
				}
			],
			"name": "showBalance",
			"type": "event"
		},
		{
			"anonymous": false,
			"inputs": [
				{
					"indexed": false,
					"internalType": "string",
					"name": "",
					"type": "string"
				}
			],
			"name": "showError",
			"type": "event"
		},
		{
			"anonymous": false,
			"inputs": [
				{
					"indexed": false,
					"internalType": "uint256",
					"name": "",
					"type": "uint256"
				}
			],
			"name": "showResult",
			"type": "event"
		},
		{
			"inputs": [],
			"name": "contractAddress",
			"outputs": [
				{
					"internalType": "address payable",
					"name": "",
					"type": "address"
				}
			],
			"stateMutability": "view",
			"type": "function"
		},
		{
			"inputs": [],
			"name": "depositeMoney",
			"outputs": [],
			"stateMutability": "payable",
			"type": "function"
		},
		{
			"inputs": [],
			"name": "getAllMoney",
			"outputs": [],
			"stateMutability": "nonpayable",
			"type": "function"
		},
		{
			"inputs": [],
			"name": "getBalance",
			"outputs": [
				{
					"internalType": "uint256",
					"name": "",
					"type": "uint256"
				}
			],
			"stateMutability": "view",
			"type": "function"
		},
		{
			"inputs": [],
			"name": "getPlayerBalance",
			"outputs": [
				{
					"internalType": "uint256",
					"name": "",
					"type": "uint256"
				}
			],
			"stateMutability": "view",
			"type": "function"
		},
		{
			"inputs": [],
			"name": "getRandomNumber",
			"outputs": [
				{
					"internalType": "uint256",
					"name": "",
					"type": "uint256"
				}
			],
			"stateMutability": "nonpayable",
			"type": "function"
		},
		{
			"inputs": [],
			"name": "numberCount",
			"outputs": [
				{
					"internalType": "uint256",
					"name": "",
					"type": "uint256"
				}
			],
			"stateMutability": "view",
			"type": "function"
		},
		{
			"inputs": [],
			"name": "owner",
			"outputs": [
				{
					"internalType": "address",
					"name": "",
					"type": "address"
				}
			],
			"stateMutability": "view",
			"type": "function"
		},
		{
			"inputs": [
				{
					"internalType": "uint256",
					"name": "guessNumber",
					"type": "uint256"
				}
			],
			"name": "playGame",
			"outputs": [],
			"stateMutability": "payable",
			"type": "function"
		},
		{
			"inputs": [],
			"name": "withdrawMoney",
			"outputs": [],
			"stateMutability": "nonpayable",
			"type": "function"
		}
	]
}