{
	"data": {
		"bytecode": {
			"linkReferences": {},
			"object": "60806040526000805560018055600280546001600160a01b0319163017905534801561002a57600080fd5b50600480546001600160a01b031916331790556106218061004c6000396000f3fe6080604052600436106100955760003560e01c80638da5cb5b116100595780638da5cb5b14610139578063ac44600214610171578063dbdff2c114610179578063edb84ff71461018e578063f6b4dfb41461019657600080fd5b80630b01517c146100c4578063103f90f4146100e757806312065fe0146100fd5780633f925f7a1461011c5780635873533d1461012657600080fd5b366100bf576002546040516001600160a01b03909116903480156108fc02916000818181858888f1005b600080fd5b3480156100d057600080fd5b5033315b6040519081526020015b60405180910390f35b3480156100f357600080fd5b506100d460015481565b34801561010957600080fd5b506002546001600160a01b0316316100d4565b6101246101b6565b005b610124610134366004610555565b610233565b34801561014557600080fd5b50600454610159906001600160a01b031681565b6040516001600160a01b0390911681526020016100de565b610124610354565b34801561018557600080fd5b506100d46103da565b6101246104d0565b3480156101a257600080fd5b50600254610159906001600160a01b031681565b6002546040516001600160a01b03909116903480156108fc02916000818181858888f193505050501580156101ef573d6000803e3d6000fd5b506002546040516001600160a01b039091163181527ff0b60c507a2e93235b6bed490cd5616aa2f43a849c3d167e96d6c5099b5524e59060200160405180910390a1565b600454600160a01b900460ff161561028a5760405162461bcd60e51b8152602060048201526015602482015274115c9c9bdc8e881499595b9d1c985b9d0818d85b1b605a1b60448201526064015b60405180910390fd5b6004805460ff60a01b1916600160a01b179055670de0b6b3a76400003410156102e55760405162461bcd60e51b815260206004820152600d60248201526c73656e6420312065746865722160981b6044820152606401610281565b600180549060006102f583610584565b9190505550806103036103da565b0361033c57600380546001600160a01b03191633179055610322610354565b600380546001600160a01b03191690556002600155610344565b6103446101b6565b506004805460ff60a01b19169055565b6003546001600160a01b031633146103a25760405162461bcd60e51b81526020600482015260116024820152702cb7ba9030b932903737ba103bb4b732b960791b6044820152606401610281565b60025460405133916001600160a01b03163180156108fc02916000818181858888f193505050501580156101ef573d6000803e3d6000fd5b60008042446103ea60014361059d565b60408051602081019490945283019190915240606082015260800160408051601f19818403018152828252805160209182012060008054928501829052928401919091529250906060016040516020818303038152906040528051906020012060001c9050600160008082825461046191906105b6565b90915550506001547fed6ad2f84ff9379c0261f2ba89850d87d385f1f35c6d1254dd6b54f946a0567e9061049590836105c9565b6104a09060016105b6565b60405190815260200160405180910390a16001546104be90826105c9565b6104c99060016105b6565b9250505090565b6004546001600160a01b0316331461051a5760405162461bcd60e51b815260206004820152600d60248201526c2737ba103a34329037bbb732b960991b6044820152606401610281565b60025460405133916001600160a01b03163180156108fc02916000818181858888f19350505050158015610552573d6000803e3d6000fd5b50565b60006020828403121561056757600080fd5b5035919050565b634e487b7160e01b600052601160045260246000fd5b6000600182016105965761059661056e565b5060010190565b818103818111156105b0576105b061056e565b92915050565b808201808211156105b0576105b061056e565b6000826105e657634e487b7160e01b600052601260045260246000fd5b50069056fea264697066735822122045c77483aaa45236e855d86b1299836d7b40a000a6d293b224e600a6aae1687964736f6c63430008130033",
			"opcodes": "PUSH1 0x80 PUSH1 0x40 MSTORE PUSH1 0x0 DUP1 SSTORE PUSH1 0x1 DUP1 SSTORE PUSH1 0x2 DUP1 SLOAD PUSH1 0x1 PUSH1 0x1 PUSH1 0xA0 SHL SUB NOT AND ADDRESS OR SWAP1 SSTORE CALLVALUE DUP1 ISZERO PUSH2 0x2A JUMPI PUSH1 0x0 DUP1 REVERT JUMPDEST POP PUSH1 0x4 DUP1 SLOAD PUSH1 0x1 PUSH1 0x1 PUSH1 0xA0 SHL SUB NOT AND CALLER OR SWAP1 SSTORE PUSH2 0x621 DUP1 PUSH2 0x4C PUSH1 0x0 CODECOPY PUSH1 0x0 RETURN INVALID PUSH1 0x80 PUSH1 0x40 MSTORE PUSH1 0x4 CALLDATASIZE LT PUSH2 0x95 JUMPI PUSH1 0x0 CALLDATALOAD PUSH1 0xE0 SHR DUP1 PUSH4 0x8DA5CB5B GT PUSH2 0x59 JUMPI DUP1 PUSH4 0x8DA5CB5B EQ PUSH2 0x139 JUMPI DUP1 PUSH4 0xAC446002 EQ PUSH2 0x171 JUMPI DUP1 PUSH4 0xDBDFF2C1 EQ PUSH2 0x179 JUMPI DUP1 PUSH4 0xEDB84FF7 EQ PUSH2 0x18E JUMPI DUP1 PUSH4 0xF6B4DFB4 EQ PUSH2 0x196 JUMPI PUSH1 0x0 DUP1 REVERT JUMPDEST DUP1 PUSH4 0xB01517C EQ PUSH2 0xC4 JUMPI DUP1 PUSH4 0x103F90F4 EQ PUSH2 0xE7 JUMPI DUP1 PUSH4 0x12065FE0 EQ PUSH2 0xFD JUMPI DUP1 PUSH4 0x3F925F7A EQ PUSH2 0x11C JUMPI DUP1 PUSH4 0x5873533D EQ PUSH2 0x126 JUMPI PUSH1 0x0 DUP1 REVERT JUMPDEST CALLDATASIZE PUSH2 0xBF JUMPI PUSH1 0x2 SLOAD PUSH1 0x40 MLOAD PUSH1 0x1 PUSH1 0x1 PUSH1 0xA0 SHL SUB SWAP1 SWAP2 AND SWAP1 CALLVALUE DUP1 ISZERO PUSH2 0x8FC MUL SWAP2 PUSH1 0x0 DUP2 DUP2 DUP2 DUP6 DUP9 DUP9 CALL STOP JUMPDEST PUSH1 0x0 DUP1 REVERT JUMPDEST CALLVALUE DUP1 ISZERO PUSH2 0xD0 JUMPI PUSH1 0x0 DUP1 REVERT JUMPDEST POP CALLER BALANCE JUMPDEST PUSH1 0x40 MLOAD SWAP1 DUP2 MSTORE PUSH1 0x20 ADD JUMPDEST PUSH1 0x40 MLOAD DUP1 SWAP2 SUB SWAP1 RETURN JUMPDEST CALLVALUE DUP1 ISZERO PUSH2 0xF3 JUMPI PUSH1 0x0 DUP1 REVERT JUMPDEST POP PUSH2 0xD4 PUSH1 0x1 SLOAD DUP2 JUMP JUMPDEST CALLVALUE DUP1 ISZERO PUSH2 0x109 JUMPI PUSH1 0x0 DUP1 REVERT JUMPDEST POP PUSH1 0x2 SLOAD PUSH1 0x1 PUSH1 0x1 PUSH1 0xA0 SHL SUB AND BALANCE PUSH2 0xD4 JUMP JUMPDEST PUSH2 0x124 PUSH2 0x1B6 JUMP JUMPDEST STOP JUMPDEST PUSH2 0x124 PUSH2 0x134 CALLDATASIZE PUSH1 0x4 PUSH2 0x555 JUMP JUMPDEST PUSH2 0x233 JUMP JUMPDEST CALLVALUE DUP1 ISZERO PUSH2 0x145 JUMPI PUSH1 0x0 DUP1 REVERT JUMPDEST POP PUSH1 0x4 SLOAD PUSH2 0x159 SWAP1 PUSH1 0x1 PUSH1 0x1 PUSH1 0xA0 SHL SUB AND DUP2 JUMP JUMPDEST PUSH1 0x40 MLOAD PUSH1 0x1 PUSH1 0x1 PUSH1 0xA0 SHL SUB SWAP1 SWAP2 AND DUP2 MSTORE PUSH1 0x20 ADD PUSH2 0xDE JUMP JUMPDEST PUSH2 0x124 PUSH2 0x354 JUMP JUMPDEST CALLVALUE DUP1 ISZERO PUSH2 0x185 JUMPI PUSH1 0x0 DUP1 REVERT JUMPDEST POP PUSH2 0xD4 PUSH2 0x3DA JUMP JUMPDEST PUSH2 0x124 PUSH2 0x4D0 JUMP JUMPDEST CALLVALUE DUP1 ISZERO PUSH2 0x1A2 JUMPI PUSH1 0x0 DUP1 REVERT JUMPDEST POP PUSH1 0x2 SLOAD PUSH2 0x159 SWAP1 PUSH1 0x1 PUSH1 0x1 PUSH1 0xA0 SHL SUB AND DUP2 JUMP JUMPDEST PUSH1 0x2 SLOAD PUSH1 0x40 MLOAD PUSH1 0x1 PUSH1 0x1 PUSH1 0xA0 SHL SUB SWAP1 SWAP2 AND SWAP1 CALLVALUE DUP1 ISZERO PUSH2 0x8FC MUL SWAP2 PUSH1 0x0 DUP2 DUP2 DUP2 DUP6 DUP9 DUP9 CALL SWAP4 POP POP POP POP ISZERO DUP1 ISZERO PUSH2 0x1EF JUMPI RETURNDATASIZE PUSH1 0x0 DUP1 RETURNDATACOPY RETURNDATASIZE PUSH1 0x0 REVERT JUMPDEST POP PUSH1 0x2 SLOAD PUSH1 0x40 MLOAD PUSH1 0x1 PUSH1 0x1 PUSH1 0xA0 SHL SUB SWAP1 SWAP2 AND BALANCE DUP2 MSTORE PUSH32 0xF0B60C507A2E93235B6BED490CD5616AA2F43A849C3D167E96D6C5099B5524E5 SWAP1 PUSH1 0x20 ADD PUSH1 0x40 MLOAD DUP1 SWAP2 SUB SWAP1 LOG1 JUMP JUMPDEST PUSH1 0x4 SLOAD PUSH1 0x1 PUSH1 0xA0 SHL SWAP1 DIV PUSH1 0xFF AND ISZERO PUSH2 0x28A JUMPI PUSH1 0x40 MLOAD PUSH3 0x461BCD PUSH1 0xE5 SHL DUP2 MSTORE PUSH1 0x20 PUSH1 0x4 DUP3 ADD MSTORE PUSH1 0x15 PUSH1 0x24 DUP3 ADD MSTORE PUSH21 0x115C9C9BDC8E881499595B9D1C985B9D0818D85B1B PUSH1 0x5A SHL PUSH1 0x44 DUP3 ADD MSTORE PUSH1 0x64 ADD JUMPDEST PUSH1 0x40 MLOAD DUP1 SWAP2 SUB SWAP1 REVERT JUMPDEST PUSH1 0x4 DUP1 SLOAD PUSH1 0xFF PUSH1 0xA0 SHL NOT AND PUSH1 0x1 PUSH1 0xA0 SHL OR SWAP1 SSTORE PUSH8 0xDE0B6B3A7640000 CALLVALUE LT ISZERO PUSH2 0x2E5 JUMPI PUSH1 0x40 MLOAD PUSH3 0x461BCD PUSH1 0xE5 SHL DUP2 MSTORE PUSH1 0x20 PUSH1 0x4 DUP3 ADD MSTORE PUSH1 0xD PUSH1 0x24 DUP3 ADD MSTORE PUSH13 0x73656E64203120657468657221 PUSH1 0x98 SHL PUSH1 0x44 DUP3 ADD MSTORE PUSH1 0x64 ADD PUSH2 0x281 JUMP JUMPDEST PUSH1 0x1 DUP1 SLOAD SWAP1 PUSH1 0x0 PUSH2 0x2F5 DUP4 PUSH2 0x584 JUMP JUMPDEST SWAP2 SWAP1 POP SSTORE POP DUP1 PUSH2 0x303 PUSH2 0x3DA JUMP JUMPDEST SUB PUSH2 0x33C JUMPI PUSH1 0x3 DUP1 SLOAD PUSH1 0x1 PUSH1 0x1 PUSH1 0xA0 SHL SUB NOT AND CALLER OR SWAP1 SSTORE PUSH2 0x322 PUSH2 0x354 JUMP JUMPDEST PUSH1 0x3 DUP1 SLOAD PUSH1 0x1 PUSH1 0x1 PUSH1 0xA0 SHL SUB NOT AND SWAP1 SSTORE PUSH1 0x2 PUSH1 0x1 SSTORE PUSH2 0x344 JUMP JUMPDEST PUSH2 0x344 PUSH2 0x1B6 JUMP JUMPDEST POP PUSH1 0x4 DUP1 SLOAD PUSH1 0xFF PUSH1 0xA0 SHL NOT AND SWAP1 SSTORE JUMP JUMPDEST PUSH1 0x3 SLOAD PUSH1 0x1 PUSH1 0x1 PUSH1 0xA0 SHL SUB AND CALLER EQ PUSH2 0x3A2 JUMPI PUSH1 0x40 MLOAD PUSH3 0x461BCD PUSH1 0xE5 SHL DUP2 MSTORE PUSH1 0x20 PUSH1 0x4 DUP3 ADD MSTORE PUSH1 0x11 PUSH1 0x24 DUP3 ADD MSTORE PUSH17 0x2CB7BA9030B932903737BA103BB4B732B9 PUSH1 0x79 SHL PUSH1 0x44 DUP3 ADD MSTORE PUSH1 0x64 ADD PUSH2 0x281 JUMP JUMPDEST PUSH1 0x2 SLOAD PUSH1 0x40 MLOAD CALLER SWAP2 PUSH1 0x1 PUSH1 0x1 PUSH1 0xA0 SHL SUB AND BALANCE DUP1 ISZERO PUSH2 0x8FC MUL SWAP2 PUSH1 0x0 DUP2 DUP2 DUP2 DUP6 DUP9 DUP9 CALL SWAP4 POP POP POP POP ISZERO DUP1 ISZERO PUSH2 0x1EF JUMPI RETURNDATASIZE PUSH1 0x0 DUP1 RETURNDATACOPY RETURNDATASIZE PUSH1 0x0 REVERT JUMPDEST PUSH1 0x0 DUP1 TIMESTAMP PREVRANDAO PUSH2 0x3EA PUSH1 0x1 NUMBER PUSH2 0x59D JUMP JUMPDEST PUSH1 0x40 DUP1 MLOAD PUSH1 0x20 DUP2 ADD SWAP5 SWAP1 SWAP5 MSTORE DUP4 ADD SWAP2 SWAP1 SWAP2 MSTORE BLOCKHASH PUSH1 0x60 DUP3 ADD MSTORE PUSH1 0x80 ADD PUSH1 0x40 DUP1 MLOAD PUSH1 0x1F NOT DUP2 DUP5 SUB ADD DUP2 MSTORE DUP3 DUP3 MSTORE DUP1 MLOAD PUSH1 0x20 SWAP2 DUP3 ADD KECCAK256 PUSH1 0x0 DUP1 SLOAD SWAP3 DUP6 ADD DUP3 SWAP1 MSTORE SWAP3 DUP5 ADD SWAP2 SWAP1 SWAP2 MSTORE SWAP3 POP SWAP1 PUSH1 0x60 ADD PUSH1 0x40 MLOAD PUSH1 0x20 DUP2 DUP4 SUB SUB DUP2 MSTORE SWAP1 PUSH1 0x40 MSTORE DUP1 MLOAD SWAP1 PUSH1 0x20 ADD KECCAK256 PUSH1 0x0 SHR SWAP1 POP PUSH1 0x1 PUSH1 0x0 DUP1 DUP3 DUP3 SLOAD PUSH2 0x461 SWAP2 SWAP1 PUSH2 0x5B6 JUMP JUMPDEST SWAP1 SWAP2 SSTORE POP POP PUSH1 0x1 SLOAD PUSH32 0xED6AD2F84FF9379C0261F2BA89850D87D385F1F35C6D1254DD6B54F946A0567E SWAP1 PUSH2 0x495 SWAP1 DUP4 PUSH2 0x5C9 JUMP JUMPDEST PUSH2 0x4A0 SWAP1 PUSH1 0x1 PUSH2 0x5B6 JUMP JUMPDEST PUSH1 0x40 MLOAD SWAP1 DUP2 MSTORE PUSH1 0x20 ADD PUSH1 0x40 MLOAD DUP1 SWAP2 SUB SWAP1 LOG1 PUSH1 0x1 SLOAD PUSH2 0x4BE SWAP1 DUP3 PUSH2 0x5C9 JUMP JUMPDEST PUSH2 0x4C9 SWAP1 PUSH1 0x1 PUSH2 0x5B6 JUMP JUMPDEST SWAP3 POP POP POP SWAP1 JUMP JUMPDEST PUSH1 0x4 SLOAD PUSH1 0x1 PUSH1 0x1 PUSH1 0xA0 SHL SUB AND CALLER EQ PUSH2 0x51A JUMPI PUSH1 0x40 MLOAD PUSH3 0x461BCD PUSH1 0xE5 SHL DUP2 MSTORE PUSH1 0x20 PUSH1 0x4 DUP3 ADD MSTORE PUSH1 0xD PUSH1 0x24 DUP3 ADD MSTORE PUSH13 0x2737BA103A34329037BBB732B9 PUSH1 0x99 SHL PUSH1 0x44 DUP3 ADD MSTORE PUSH1 0x64 ADD PUSH2 0x281 JUMP JUMPDEST PUSH1 0x2 SLOAD PUSH1 0x40 MLOAD CALLER SWAP2 PUSH1 0x1 PUSH1 0x1 PUSH1 0xA0 SHL SUB AND BALANCE DUP1 ISZERO PUSH2 0x8FC MUL SWAP2 PUSH1 0x0 DUP2 DUP2 DUP2 DUP6 DUP9 DUP9 CALL SWAP4 POP POP POP POP ISZERO DUP1 ISZERO PUSH2 0x552 JUMPI RETURNDATASIZE PUSH1 0x0 DUP1 RETURNDATACOPY RETURNDATASIZE PUSH1 0x0 REVERT JUMPDEST POP JUMP JUMPDEST PUSH1 0x0 PUSH1 0x20 DUP3 DUP5 SUB SLT ISZERO PUSH2 0x567 JUMPI PUSH1 0x0 DUP1 REVERT JUMPDEST POP CALLDATALOAD SWAP2 SWAP1 POP JUMP JUMPDEST PUSH4 0x4E487B71 PUSH1 0xE0 SHL PUSH1 0x0 MSTORE PUSH1 0x11 PUSH1 0x4 MSTORE PUSH1 0x24 PUSH1 0x0 REVERT JUMPDEST PUSH1 0x0 PUSH1 0x1 DUP3 ADD PUSH2 0x596 JUMPI PUSH2 0x596 PUSH2 0x56E JUMP JUMPDEST POP PUSH1 0x1 ADD SWAP1 JUMP JUMPDEST DUP2 DUP2 SUB DUP2 DUP2 GT ISZERO PUSH2 0x5B0 JUMPI PUSH2 0x5B0 PUSH2 0x56E JUMP JUMPDEST SWAP3 SWAP2 POP POP JUMP JUMPDEST DUP1 DUP3 ADD DUP1 DUP3 GT ISZERO PUSH2 0x5B0 JUMPI PUSH2 0x5B0 PUSH2 0x56E JUMP JUMPDEST PUSH1 0x0 DUP3 PUSH2 0x5E6 JUMPI PUSH4 0x4E487B71 PUSH1 0xE0 SHL PUSH1 0x0 MSTORE PUSH1 0x12 PUSH1 0x4 MSTORE PUSH1 0x24 PUSH1 0x0 REVERT JUMPDEST POP MOD SWAP1 JUMP INVALID LOG2 PUSH5 0x6970667358 0x22 SLT KECCAK256 GASLIMIT 0xC7 PUSH21 0x83AAA45236E855D86B1299836D7B40A000A6D293B2 0x24 0xE6 STOP 0xA6 0xAA 0xE1 PUSH9 0x7964736F6C63430008 SGT STOP CALLER "
		},
		"gasEstimates": {
			"creation": {
				"codeDepositCost": "313800",
				"executionCost": "75937",
				"totalCost": "389737"
			},
			"external": {
				"contractAddress()": "2425",
				"depositeMoney()": "infinite",
				"getAllMoney()": "infinite",
				"getBalance()": "4944",
				"getPlayerBalance()": "2770",
				"getRandomNumber()": "infinite",
				"numberCount()": "2307",
				"owner()": "2337",
				"playGame(uint256)": "infinite",
				"withdrawMoney()": "infinite"
			}
		},
		"methodIdentifiers": {
			"contractAddress()": "f6b4dfb4",
			"depositeMoney()": "3f925f7a",
			"getAllMoney()": "edb84ff7",
			"getBalance()": "12065fe0",
			"getPlayerBalance()": "0b01517c",
			"getRandomNumber()": "dbdff2c1",
			"numberCount()": "103f90f4",
			"owner()": "8da5cb5b",
			"playGame(uint256)": "5873533d",
			"withdrawMoney()": "ac446002"
		}
	},
	"abi": [
		{
			"inputs": [],
			"stateMutability": "nonpayable",
			"type": "constructor"
		},
		{
			"anonymous": false,
			"inputs": [
				{
					"indexed": false,
					"internalType": "uint256",
					"name": "",
					"type": "uint256"
				}
			],
			"name": "showBalance",
			"type": "event"
		},
		{
			"anonymous": false,
			"inputs": [
				{
					"indexed": false,
					"internalType": "string",
					"name": "",
					"type": "string"
				}
			],
			"name": "showError",
			"type": "event"
		},
		{
			"anonymous": false,
			"inputs": [
				{
					"indexed": false,
					"internalType": "uint256",
					"name": "",
					"type": "uint256"
				}
			],
			"name": "showResult",
			"type": "event"
		},
		{
			"inputs": [],
			"name": "contractAddress",
			"outputs": [
				{
					"internalType": "address payable",
					"name": "",
					"type": "address"
				}
			],
			"stateMutability": "view",
			"type": "function"
		},
		{
			"inputs": [],
			"name": "depositeMoney",
			"outputs": [],
			"stateMutability": "payable",
			"type": "function"
		},
		{
			"inputs": [],
			"name": "getAllMoney",
			"outputs": [],
			"stateMutability": "payable",
			"type": "function"
		},
		{
			"inputs": [],
			"name": "getBalance",
			"outputs": [
				{
					"internalType": "uint256",
					"name": "",
					"type": "uint256"
				}
			],
			"stateMutability": "view",
			"type": "function"
		},
		{
			"inputs": [],
			"name": "getPlayerBalance",
			"outputs": [
				{
					"internalType": "uint256",
					"name": "",
					"type": "uint256"
				}
			],
			"stateMutability": "view",
			"type": "function"
		},
		{
			"inputs": [],
			"name": "getRandomNumber",
			"outputs": [
				{
					"internalType": "uint256",
					"name": "",
					"type": "uint256"
				}
			],
			"stateMutability": "nonpayable",
			"type": "function"
		},
		{
			"inputs": [],
			"name": "numberCount",
			"outputs": [
				{
					"internalType": "uint256",
					"name": "",
					"type": "uint256"
				}
			],
			"stateMutability": "view",
			"type": "function"
		},
		{
			"inputs": [],
			"name": "owner",
			"outputs": [
				{
					"internalType": "address",
					"name": "",
					"type": "address"
				}
			],
			"stateMutability": "view",
			"type": "function"
		},
		{
			"inputs": [
				{
					"internalType": "uint256",
					"name": "guessNumber",
					"type": "uint256"
				}
			],
			"name": "playGame",
			"outputs": [],
			"stateMutability": "payable",
			"type": "function"
		},
		{
			"inputs": [],
			"name": "withdrawMoney",
			"outputs": [],
			"stateMutability": "payable",
			"type": "function"
		},
		{
			"stateMutability": "payable",
			"type": "receive"
		}
	]
}