{
	"data": {
		"bytecode": {
			"linkReferences": {},
			"object": "6080604052600160045534801561001557600080fd5b5061130a806100256000396000f3fe608060405234801561001057600080fd5b50600436106100ea5760003560e01c8063614b37571161008c57806394227ea71161006657806394227ea714610275578063ba16286814610293578063bed34bba146102b1578063dbdff2c1146102e1576100ea565b8063614b3757146101f75780636898f82b146102275780636ca495e214610257576100ea565b806312220fe3116100c857806312220fe31461015b578063233a1a761461018b5780634028e0de146101bb57806358da9da8146101d9576100ea565b8063010711e3146100ef578063060aa4ce1461010d5780631123d9b11461012b575b600080fd5b6100f76102ff565b6040516101049190610bf5565b60405180910390f35b610115610305565b6040516101229190610bf5565b60405180910390f35b61014560048036038101906101409190610c50565b61030b565b6040516101529190610d0d565b60405180910390f35b61017560048036038101906101709190610c50565b6104c0565b6040516101829190610bf5565b60405180910390f35b6101a560048036038101906101a09190610c50565b6104e4565b6040516101b29190610bf5565b60405180910390f35b6101c3610508565b6040516101d09190610bf5565b60405180910390f35b6101e161050e565b6040516101ee9190610d0d565b60405180910390f35b610211600480360381019061020c9190610c50565b610807565b60405161021e9190610ded565b60405180910390f35b610241600480360381019061023c9190610c50565b6108d7565b60405161024e9190610d0d565b60405180910390f35b61025f610a35565b60405161026c9190610ded565b60405180910390f35b61027d610a8d565b60405161028a9190610bf5565b60405180910390f35b61029b610a93565b6040516102a89190610bf5565b60405180910390f35b6102cb60048036038101906102c69190610f44565b610a99565b6040516102d89190610fd7565b60405180910390f35b6102e9610af2565b6040516102f69190610bf5565b60405180910390f35b60005481565b60065481565b60606003821115610351576040517f08c379a00000000000000000000000000000000000000000000000000000000081526004016103489061103e565b60405180910390fd5b600061035b61050e565b9050600061039e6040518060400160405280600481526020017f546965640000000000000000000000000000000000000000000000000000000081525083610a99565b156103a857600190505b6103e76040518060400160405280600781526020017f596f752057696e0000000000000000000000000000000000000000000000000081525083610a99565b156103f157600290505b6104306040518060400160405280600881526020017f596f75204c6f736500000000000000000000000000000000000000000000000081525083610a99565b1561043a57600390505b838103610480576040518060400160405280601481526020017f596f7520677565737320697320636f7272656374000000000000000000000000815250925050506104bb565b6040518060400160405280601281526020017f596f752067756573732069732077726f6e670000000000000000000000000000815250925050505b919050565b600281815481106104d057600080fd5b906000526020600020016000915090505481565b600381815481106104f457600080fd5b906000526020600020016000915090505481565b60015481565b60606003600061051e9190610b9e565b60006007819055506000600681905550600060058190555060005b600280549050811015610589576003610550610af2565b908060018154018082558091505060019003906000526020600020016000909190919091505580806105819061108d565b915050610539565b5060005b60028054905081101561073957600381815481106105ae576105ad6110d5565b5b9060005260206000200154600282815481106105cd576105cc6110d5565b5b9060005260206000200154036105fa57600760008154809291906105f09061108d565b9190505550610726565b6001600282815481106106105761060f6110d5565b5b90600052602060002001541480156106465750600260038281548110610639576106386110d5565b5b9060005260206000200154145b806106995750600360028281548110610662576106616110d5565b5b9060005260206000200154148015610698575060016003828154811061068b5761068a6110d5565b5b9060005260206000200154145b5b806106ea575060028082815481106106b4576106b36110d5565b5b90600052602060002001541480156106e9575060038082815481106106dc576106db6110d5565b5b9060005260206000200154145b5b1561070c57600660008154809291906107029061108d565b9190505550610725565b6005600081548092919061071f9061108d565b91905055505b5b80806107319061108d565b91505061058d565b5060065460055403610782576040518060400160405280600481526020017f54696564000000000000000000000000000000000000000000000000000000008152509050610804565b60065460055411156107cb576040518060400160405280600781526020017f596f752057696e000000000000000000000000000000000000000000000000008152509050610804565b6040518060400160405280600881526020017f596f75204c6f736500000000000000000000000000000000000000000000000081525090505b90565b6060600382111561084d576040517f08c379a00000000000000000000000000000000000000000000000000000000081526004016108449061103e565b60405180910390fd5b816001819055506002600154908060018154018082558091505060019003906000526020600020016000909190919091505560028054806020026020016040519081016040528092919081815260200182805480156108cb57602002820191906000526020600020905b8154815260200190600101908083116108b7575b50505050509050919050565b606060006108e3610af2565b9050806000819055506003831115610930576040517f08c379a00000000000000000000000000000000000000000000000000000000081526004016109279061103e565b60405180910390fd5b808303610975576040518060400160405280600481526020017f5469656400000000000000000000000000000000000000000000000000000000815250915050610a30565b6001831480156109855750600281145b8061099c575060038314801561099b5750600181145b5b806109b357506002831480156109b25750600381145b5b156109f6576040518060400160405280600881526020017f596f75206c6f7365000000000000000000000000000000000000000000000000815250915050610a30565b6040518060400160405280600781526020017f596f7520776f6e000000000000000000000000000000000000000000000000008152509150505b919050565b60606003805480602002602001604051908101604052809291908181526020018280548015610a8357602002820191906000526020600020905b815481526020019060010190808311610a6f575b5050505050905090565b60075481565b60055481565b600081604051602001610aac9190611140565b6040516020818303038152906040528051906020012083604051602001610ad39190611140565b6040516020818303038152906040528051906020012014905092915050565b6000804244600143610b049190611157565b40604051602001610b17939291906111d7565b6040516020818303038152906040528051906020012060001c9050600081600454604051602001610b49929190611214565b6040516020818303038152906040528051906020012060001c9050600160046000828254610b779190611240565b925050819055506001600382610b8d91906112a3565b610b979190611240565b9250505090565b5080546000825590600052602060002090810190610bbc9190610bbf565b50565b5b80821115610bd8576000816000905550600101610bc0565b5090565b6000819050919050565b610bef81610bdc565b82525050565b6000602082019050610c0a6000830184610be6565b92915050565b6000604051905090565b600080fd5b600080fd5b610c2d81610bdc565b8114610c3857600080fd5b50565b600081359050610c4a81610c24565b92915050565b600060208284031215610c6657610c65610c1a565b5b6000610c7484828501610c3b565b91505092915050565b600081519050919050565b600082825260208201905092915050565b60005b83811015610cb7578082015181840152602081019050610c9c565b60008484015250505050565b6000601f19601f8301169050919050565b6000610cdf82610c7d565b610ce98185610c88565b9350610cf9818560208601610c99565b610d0281610cc3565b840191505092915050565b60006020820190508181036000830152610d278184610cd4565b905092915050565b600081519050919050565b600082825260208201905092915050565b6000819050602082019050919050565b610d6481610bdc565b82525050565b6000610d768383610d5b565b60208301905092915050565b6000602082019050919050565b6000610d9a82610d2f565b610da48185610d3a565b9350610daf83610d4b565b8060005b83811015610de0578151610dc78882610d6a565b9750610dd283610d82565b925050600181019050610db3565b5085935050505092915050565b60006020820190508181036000830152610e078184610d8f565b905092915050565b600080fd5b600080fd5b7f4e487b7100000000000000000000000000000000000000000000000000000000600052604160045260246000fd5b610e5182610cc3565b810181811067ffffffffffffffff82111715610e7057610e6f610e19565b5b80604052505050565b6000610e83610c10565b9050610e8f8282610e48565b919050565b600067ffffffffffffffff821115610eaf57610eae610e19565b5b610eb882610cc3565b9050602081019050919050565b82818337600083830152505050565b6000610ee7610ee284610e94565b610e79565b905082815260208101848484011115610f0357610f02610e14565b5b610f0e848285610ec5565b509392505050565b600082601f830112610f2b57610f2a610e0f565b5b8135610f3b848260208601610ed4565b91505092915050565b60008060408385031215610f5b57610f5a610c1a565b5b600083013567ffffffffffffffff811115610f7957610f78610c1f565b5b610f8585828601610f16565b925050602083013567ffffffffffffffff811115610fa657610fa5610c1f565b5b610fb285828601610f16565b9150509250929050565b60008115159050919050565b610fd181610fbc565b82525050565b6000602082019050610fec6000830184610fc8565b92915050565b7f4572726f723a2043616e277420696e707574206d6f7265207468616e20330000600082015250565b6000611028601e83610c88565b915061103382610ff2565b602082019050919050565b600060208201905081810360008301526110578161101b565b9050919050565b7f4e487b7100000000000000000000000000000000000000000000000000000000600052601160045260246000fd5b600061109882610bdc565b91507fffffffffffffffffffffffffffffffffffffffffffffffffffffffffffffffff82036110ca576110c961105e565b5b600182019050919050565b7f4e487b7100000000000000000000000000000000000000000000000000000000600052603260045260246000fd5b600081905092915050565b600061111a82610c7d565b6111248185611104565b9350611134818560208601610c99565b80840191505092915050565b600061114c828461110f565b915081905092915050565b600061116282610bdc565b915061116d83610bdc565b92508282039050818111156111855761118461105e565b5b92915050565b6000819050919050565b6111a66111a182610bdc565b61118b565b82525050565b6000819050919050565b6000819050919050565b6111d16111cc826111ac565b6111b6565b82525050565b60006111e38286611195565b6020820191506111f38285611195565b60208201915061120382846111c0565b602082019150819050949350505050565b60006112208285611195565b6020820191506112308284611195565b6020820191508190509392505050565b600061124b82610bdc565b915061125683610bdc565b925082820190508082111561126e5761126d61105e565b5b92915050565b7f4e487b7100000000000000000000000000000000000000000000000000000000600052601260045260246000fd5b60006112ae82610bdc565b91506112b983610bdc565b9250826112c9576112c8611274565b5b82820690509291505056fea264697066735822122081b95058e4b3172ee14f03b795243d806c3b0e380c1771c8fcb25d12a0a7b5c664736f6c63430008130033",
			"opcodes": "PUSH1 0x80 PUSH1 0x40 MSTORE PUSH1 0x1 PUSH1 0x4 SSTORE CALLVALUE DUP1 ISZERO PUSH2 0x15 JUMPI PUSH1 0x0 DUP1 REVERT JUMPDEST POP PUSH2 0x130A DUP1 PUSH2 0x25 PUSH1 0x0 CODECOPY PUSH1 0x0 RETURN INVALID PUSH1 0x80 PUSH1 0x40 MSTORE CALLVALUE DUP1 ISZERO PUSH2 0x10 JUMPI PUSH1 0x0 DUP1 REVERT JUMPDEST POP PUSH1 0x4 CALLDATASIZE LT PUSH2 0xEA JUMPI PUSH1 0x0 CALLDATALOAD PUSH1 0xE0 SHR DUP1 PUSH4 0x614B3757 GT PUSH2 0x8C JUMPI DUP1 PUSH4 0x94227EA7 GT PUSH2 0x66 JUMPI DUP1 PUSH4 0x94227EA7 EQ PUSH2 0x275 JUMPI DUP1 PUSH4 0xBA162868 EQ PUSH2 0x293 JUMPI DUP1 PUSH4 0xBED34BBA EQ PUSH2 0x2B1 JUMPI DUP1 PUSH4 0xDBDFF2C1 EQ PUSH2 0x2E1 JUMPI PUSH2 0xEA JUMP JUMPDEST DUP1 PUSH4 0x614B3757 EQ PUSH2 0x1F7 JUMPI DUP1 PUSH4 0x6898F82B EQ PUSH2 0x227 JUMPI DUP1 PUSH4 0x6CA495E2 EQ PUSH2 0x257 JUMPI PUSH2 0xEA JUMP JUMPDEST DUP1 PUSH4 0x12220FE3 GT PUSH2 0xC8 JUMPI DUP1 PUSH4 0x12220FE3 EQ PUSH2 0x15B JUMPI DUP1 PUSH4 0x233A1A76 EQ PUSH2 0x18B JUMPI DUP1 PUSH4 0x4028E0DE EQ PUSH2 0x1BB JUMPI DUP1 PUSH4 0x58DA9DA8 EQ PUSH2 0x1D9 JUMPI PUSH2 0xEA JUMP JUMPDEST DUP1 PUSH4 0x10711E3 EQ PUSH2 0xEF JUMPI DUP1 PUSH4 0x60AA4CE EQ PUSH2 0x10D JUMPI DUP1 PUSH4 0x1123D9B1 EQ PUSH2 0x12B JUMPI JUMPDEST PUSH1 0x0 DUP1 REVERT JUMPDEST PUSH2 0xF7 PUSH2 0x2FF JUMP JUMPDEST PUSH1 0x40 MLOAD PUSH2 0x104 SWAP2 SWAP1 PUSH2 0xBF5 JUMP JUMPDEST PUSH1 0x40 MLOAD DUP1 SWAP2 SUB SWAP1 RETURN JUMPDEST PUSH2 0x115 PUSH2 0x305 JUMP JUMPDEST PUSH1 0x40 MLOAD PUSH2 0x122 SWAP2 SWAP1 PUSH2 0xBF5 JUMP JUMPDEST PUSH1 0x40 MLOAD DUP1 SWAP2 SUB SWAP1 RETURN JUMPDEST PUSH2 0x145 PUSH1 0x4 DUP1 CALLDATASIZE SUB DUP2 ADD SWAP1 PUSH2 0x140 SWAP2 SWAP1 PUSH2 0xC50 JUMP JUMPDEST PUSH2 0x30B JUMP JUMPDEST PUSH1 0x40 MLOAD PUSH2 0x152 SWAP2 SWAP1 PUSH2 0xD0D JUMP JUMPDEST PUSH1 0x40 MLOAD DUP1 SWAP2 SUB SWAP1 RETURN JUMPDEST PUSH2 0x175 PUSH1 0x4 DUP1 CALLDATASIZE SUB DUP2 ADD SWAP1 PUSH2 0x170 SWAP2 SWAP1 PUSH2 0xC50 JUMP JUMPDEST PUSH2 0x4C0 JUMP JUMPDEST PUSH1 0x40 MLOAD PUSH2 0x182 SWAP2 SWAP1 PUSH2 0xBF5 JUMP JUMPDEST PUSH1 0x40 MLOAD DUP1 SWAP2 SUB SWAP1 RETURN JUMPDEST PUSH2 0x1A5 PUSH1 0x4 DUP1 CALLDATASIZE SUB DUP2 ADD SWAP1 PUSH2 0x1A0 SWAP2 SWAP1 PUSH2 0xC50 JUMP JUMPDEST PUSH2 0x4E4 JUMP JUMPDEST PUSH1 0x40 MLOAD PUSH2 0x1B2 SWAP2 SWAP1 PUSH2 0xBF5 JUMP JUMPDEST PUSH1 0x40 MLOAD DUP1 SWAP2 SUB SWAP1 RETURN JUMPDEST PUSH2 0x1C3 PUSH2 0x508 JUMP JUMPDEST PUSH1 0x40 MLOAD PUSH2 0x1D0 SWAP2 SWAP1 PUSH2 0xBF5 JUMP JUMPDEST PUSH1 0x40 MLOAD DUP1 SWAP2 SUB SWAP1 RETURN JUMPDEST PUSH2 0x1E1 PUSH2 0x50E JUMP JUMPDEST PUSH1 0x40 MLOAD PUSH2 0x1EE SWAP2 SWAP1 PUSH2 0xD0D JUMP JUMPDEST PUSH1 0x40 MLOAD DUP1 SWAP2 SUB SWAP1 RETURN JUMPDEST PUSH2 0x211 PUSH1 0x4 DUP1 CALLDATASIZE SUB DUP2 ADD SWAP1 PUSH2 0x20C SWAP2 SWAP1 PUSH2 0xC50 JUMP JUMPDEST PUSH2 0x807 JUMP JUMPDEST PUSH1 0x40 MLOAD PUSH2 0x21E SWAP2 SWAP1 PUSH2 0xDED JUMP JUMPDEST PUSH1 0x40 MLOAD DUP1 SWAP2 SUB SWAP1 RETURN JUMPDEST PUSH2 0x241 PUSH1 0x4 DUP1 CALLDATASIZE SUB DUP2 ADD SWAP1 PUSH2 0x23C SWAP2 SWAP1 PUSH2 0xC50 JUMP JUMPDEST PUSH2 0x8D7 JUMP JUMPDEST PUSH1 0x40 MLOAD PUSH2 0x24E SWAP2 SWAP1 PUSH2 0xD0D JUMP JUMPDEST PUSH1 0x40 MLOAD DUP1 SWAP2 SUB SWAP1 RETURN JUMPDEST PUSH2 0x25F PUSH2 0xA35 JUMP JUMPDEST PUSH1 0x40 MLOAD PUSH2 0x26C SWAP2 SWAP1 PUSH2 0xDED JUMP JUMPDEST PUSH1 0x40 MLOAD DUP1 SWAP2 SUB SWAP1 RETURN JUMPDEST PUSH2 0x27D PUSH2 0xA8D JUMP JUMPDEST PUSH1 0x40 MLOAD PUSH2 0x28A SWAP2 SWAP1 PUSH2 0xBF5 JUMP JUMPDEST PUSH1 0x40 MLOAD DUP1 SWAP2 SUB SWAP1 RETURN JUMPDEST PUSH2 0x29B PUSH2 0xA93 JUMP JUMPDEST PUSH1 0x40 MLOAD PUSH2 0x2A8 SWAP2 SWAP1 PUSH2 0xBF5 JUMP JUMPDEST PUSH1 0x40 MLOAD DUP1 SWAP2 SUB SWAP1 RETURN JUMPDEST PUSH2 0x2CB PUSH1 0x4 DUP1 CALLDATASIZE SUB DUP2 ADD SWAP1 PUSH2 0x2C6 SWAP2 SWAP1 PUSH2 0xF44 JUMP JUMPDEST PUSH2 0xA99 JUMP JUMPDEST PUSH1 0x40 MLOAD PUSH2 0x2D8 SWAP2 SWAP1 PUSH2 0xFD7 JUMP JUMPDEST PUSH1 0x40 MLOAD DUP1 SWAP2 SUB SWAP1 RETURN JUMPDEST PUSH2 0x2E9 PUSH2 0xAF2 JUMP JUMPDEST PUSH1 0x40 MLOAD PUSH2 0x2F6 SWAP2 SWAP1 PUSH2 0xBF5 JUMP JUMPDEST PUSH1 0x40 MLOAD DUP1 SWAP2 SUB SWAP1 RETURN JUMPDEST PUSH1 0x0 SLOAD DUP2 JUMP JUMPDEST PUSH1 0x6 SLOAD DUP2 JUMP JUMPDEST PUSH1 0x60 PUSH1 0x3 DUP3 GT ISZERO PUSH2 0x351 JUMPI PUSH1 0x40 MLOAD PUSH32 0x8C379A000000000000000000000000000000000000000000000000000000000 DUP2 MSTORE PUSH1 0x4 ADD PUSH2 0x348 SWAP1 PUSH2 0x103E JUMP JUMPDEST PUSH1 0x40 MLOAD DUP1 SWAP2 SUB SWAP1 REVERT JUMPDEST PUSH1 0x0 PUSH2 0x35B PUSH2 0x50E JUMP JUMPDEST SWAP1 POP PUSH1 0x0 PUSH2 0x39E PUSH1 0x40 MLOAD DUP1 PUSH1 0x40 ADD PUSH1 0x40 MSTORE DUP1 PUSH1 0x4 DUP2 MSTORE PUSH1 0x20 ADD PUSH32 0x5469656400000000000000000000000000000000000000000000000000000000 DUP2 MSTORE POP DUP4 PUSH2 0xA99 JUMP JUMPDEST ISZERO PUSH2 0x3A8 JUMPI PUSH1 0x1 SWAP1 POP JUMPDEST PUSH2 0x3E7 PUSH1 0x40 MLOAD DUP1 PUSH1 0x40 ADD PUSH1 0x40 MSTORE DUP1 PUSH1 0x7 DUP2 MSTORE PUSH1 0x20 ADD PUSH32 0x596F752057696E00000000000000000000000000000000000000000000000000 DUP2 MSTORE POP DUP4 PUSH2 0xA99 JUMP JUMPDEST ISZERO PUSH2 0x3F1 JUMPI PUSH1 0x2 SWAP1 POP JUMPDEST PUSH2 0x430 PUSH1 0x40 MLOAD DUP1 PUSH1 0x40 ADD PUSH1 0x40 MSTORE DUP1 PUSH1 0x8 DUP2 MSTORE PUSH1 0x20 ADD PUSH32 0x596F75204C6F7365000000000000000000000000000000000000000000000000 DUP2 MSTORE POP DUP4 PUSH2 0xA99 JUMP JUMPDEST ISZERO PUSH2 0x43A JUMPI PUSH1 0x3 SWAP1 POP JUMPDEST DUP4 DUP2 SUB PUSH2 0x480 JUMPI PUSH1 0x40 MLOAD DUP1 PUSH1 0x40 ADD PUSH1 0x40 MSTORE DUP1 PUSH1 0x14 DUP2 MSTORE PUSH1 0x20 ADD PUSH32 0x596F7520677565737320697320636F7272656374000000000000000000000000 DUP2 MSTORE POP SWAP3 POP POP POP PUSH2 0x4BB JUMP JUMPDEST PUSH1 0x40 MLOAD DUP1 PUSH1 0x40 ADD PUSH1 0x40 MSTORE DUP1 PUSH1 0x12 DUP2 MSTORE PUSH1 0x20 ADD PUSH32 0x596F752067756573732069732077726F6E670000000000000000000000000000 DUP2 MSTORE POP SWAP3 POP POP POP JUMPDEST SWAP2 SWAP1 POP JUMP JUMPDEST PUSH1 0x2 DUP2 DUP2 SLOAD DUP2 LT PUSH2 0x4D0 JUMPI PUSH1 0x0 DUP1 REVERT JUMPDEST SWAP1 PUSH1 0x0 MSTORE PUSH1 0x20 PUSH1 0x0 KECCAK256 ADD PUSH1 0x0 SWAP2 POP SWAP1 POP SLOAD DUP2 JUMP JUMPDEST PUSH1 0x3 DUP2 DUP2 SLOAD DUP2 LT PUSH2 0x4F4 JUMPI PUSH1 0x0 DUP1 REVERT JUMPDEST SWAP1 PUSH1 0x0 MSTORE PUSH1 0x20 PUSH1 0x0 KECCAK256 ADD PUSH1 0x0 SWAP2 POP SWAP1 POP SLOAD DUP2 JUMP JUMPDEST PUSH1 0x1 SLOAD DUP2 JUMP JUMPDEST PUSH1 0x60 PUSH1 0x3 PUSH1 0x0 PUSH2 0x51E SWAP2 SWAP1 PUSH2 0xB9E JUMP JUMPDEST PUSH1 0x0 PUSH1 0x7 DUP2 SWAP1 SSTORE POP PUSH1 0x0 PUSH1 0x6 DUP2 SWAP1 SSTORE POP PUSH1 0x0 PUSH1 0x5 DUP2 SWAP1 SSTORE POP PUSH1 0x0 JUMPDEST PUSH1 0x2 DUP1 SLOAD SWAP1 POP DUP2 LT ISZERO PUSH2 0x589 JUMPI PUSH1 0x3 PUSH2 0x550 PUSH2 0xAF2 JUMP JUMPDEST SWAP1 DUP1 PUSH1 0x1 DUP2 SLOAD ADD DUP1 DUP3 SSTORE DUP1 SWAP2 POP POP PUSH1 0x1 SWAP1 SUB SWAP1 PUSH1 0x0 MSTORE PUSH1 0x20 PUSH1 0x0 KECCAK256 ADD PUSH1 0x0 SWAP1 SWAP2 SWAP1 SWAP2 SWAP1 SWAP2 POP SSTORE DUP1 DUP1 PUSH2 0x581 SWAP1 PUSH2 0x108D JUMP JUMPDEST SWAP2 POP POP PUSH2 0x539 JUMP JUMPDEST POP PUSH1 0x0 JUMPDEST PUSH1 0x2 DUP1 SLOAD SWAP1 POP DUP2 LT ISZERO PUSH2 0x739 JUMPI PUSH1 0x3 DUP2 DUP2 SLOAD DUP2 LT PUSH2 0x5AE JUMPI PUSH2 0x5AD PUSH2 0x10D5 JUMP JUMPDEST JUMPDEST SWAP1 PUSH1 0x0 MSTORE PUSH1 0x20 PUSH1 0x0 KECCAK256 ADD SLOAD PUSH1 0x2 DUP3 DUP2 SLOAD DUP2 LT PUSH2 0x5CD JUMPI PUSH2 0x5CC PUSH2 0x10D5 JUMP JUMPDEST JUMPDEST SWAP1 PUSH1 0x0 MSTORE PUSH1 0x20 PUSH1 0x0 KECCAK256 ADD SLOAD SUB PUSH2 0x5FA JUMPI PUSH1 0x7 PUSH1 0x0 DUP2 SLOAD DUP1 SWAP3 SWAP2 SWAP1 PUSH2 0x5F0 SWAP1 PUSH2 0x108D JUMP JUMPDEST SWAP2 SWAP1 POP SSTORE POP PUSH2 0x726 JUMP JUMPDEST PUSH1 0x1 PUSH1 0x2 DUP3 DUP2 SLOAD DUP2 LT PUSH2 0x610 JUMPI PUSH2 0x60F PUSH2 0x10D5 JUMP JUMPDEST JUMPDEST SWAP1 PUSH1 0x0 MSTORE PUSH1 0x20 PUSH1 0x0 KECCAK256 ADD SLOAD EQ DUP1 ISZERO PUSH2 0x646 JUMPI POP PUSH1 0x2 PUSH1 0x3 DUP3 DUP2 SLOAD DUP2 LT PUSH2 0x639 JUMPI PUSH2 0x638 PUSH2 0x10D5 JUMP JUMPDEST JUMPDEST SWAP1 PUSH1 0x0 MSTORE PUSH1 0x20 PUSH1 0x0 KECCAK256 ADD SLOAD EQ JUMPDEST DUP1 PUSH2 0x699 JUMPI POP PUSH1 0x3 PUSH1 0x2 DUP3 DUP2 SLOAD DUP2 LT PUSH2 0x662 JUMPI PUSH2 0x661 PUSH2 0x10D5 JUMP JUMPDEST JUMPDEST SWAP1 PUSH1 0x0 MSTORE PUSH1 0x20 PUSH1 0x0 KECCAK256 ADD SLOAD EQ DUP1 ISZERO PUSH2 0x698 JUMPI POP PUSH1 0x1 PUSH1 0x3 DUP3 DUP2 SLOAD DUP2 LT PUSH2 0x68B JUMPI PUSH2 0x68A PUSH2 0x10D5 JUMP JUMPDEST JUMPDEST SWAP1 PUSH1 0x0 MSTORE PUSH1 0x20 PUSH1 0x0 KECCAK256 ADD SLOAD EQ JUMPDEST JUMPDEST DUP1 PUSH2 0x6EA JUMPI POP PUSH1 0x2 DUP1 DUP3 DUP2 SLOAD DUP2 LT PUSH2 0x6B4 JUMPI PUSH2 0x6B3 PUSH2 0x10D5 JUMP JUMPDEST JUMPDEST SWAP1 PUSH1 0x0 MSTORE PUSH1 0x20 PUSH1 0x0 KECCAK256 ADD SLOAD EQ DUP1 ISZERO PUSH2 0x6E9 JUMPI POP PUSH1 0x3 DUP1 DUP3 DUP2 SLOAD DUP2 LT PUSH2 0x6DC JUMPI PUSH2 0x6DB PUSH2 0x10D5 JUMP JUMPDEST JUMPDEST SWAP1 PUSH1 0x0 MSTORE PUSH1 0x20 PUSH1 0x0 KECCAK256 ADD SLOAD EQ JUMPDEST JUMPDEST ISZERO PUSH2 0x70C JUMPI PUSH1 0x6 PUSH1 0x0 DUP2 SLOAD DUP1 SWAP3 SWAP2 SWAP1 PUSH2 0x702 SWAP1 PUSH2 0x108D JUMP JUMPDEST SWAP2 SWAP1 POP SSTORE POP PUSH2 0x725 JUMP JUMPDEST PUSH1 0x5 PUSH1 0x0 DUP2 SLOAD DUP1 SWAP3 SWAP2 SWAP1 PUSH2 0x71F SWAP1 PUSH2 0x108D JUMP JUMPDEST SWAP2 SWAP1 POP SSTORE POP JUMPDEST JUMPDEST DUP1 DUP1 PUSH2 0x731 SWAP1 PUSH2 0x108D JUMP JUMPDEST SWAP2 POP POP PUSH2 0x58D JUMP JUMPDEST POP PUSH1 0x6 SLOAD PUSH1 0x5 SLOAD SUB PUSH2 0x782 JUMPI PUSH1 0x40 MLOAD DUP1 PUSH1 0x40 ADD PUSH1 0x40 MSTORE DUP1 PUSH1 0x4 DUP2 MSTORE PUSH1 0x20 ADD PUSH32 0x5469656400000000000000000000000000000000000000000000000000000000 DUP2 MSTORE POP SWAP1 POP PUSH2 0x804 JUMP JUMPDEST PUSH1 0x6 SLOAD PUSH1 0x5 SLOAD GT ISZERO PUSH2 0x7CB JUMPI PUSH1 0x40 MLOAD DUP1 PUSH1 0x40 ADD PUSH1 0x40 MSTORE DUP1 PUSH1 0x7 DUP2 MSTORE PUSH1 0x20 ADD PUSH32 0x596F752057696E00000000000000000000000000000000000000000000000000 DUP2 MSTORE POP SWAP1 POP PUSH2 0x804 JUMP JUMPDEST PUSH1 0x40 MLOAD DUP1 PUSH1 0x40 ADD PUSH1 0x40 MSTORE DUP1 PUSH1 0x8 DUP2 MSTORE PUSH1 0x20 ADD PUSH32 0x596F75204C6F7365000000000000000000000000000000000000000000000000 DUP2 MSTORE POP SWAP1 POP JUMPDEST SWAP1 JUMP JUMPDEST PUSH1 0x60 PUSH1 0x3 DUP3 GT ISZERO PUSH2 0x84D JUMPI PUSH1 0x40 MLOAD PUSH32 0x8C379A000000000000000000000000000000000000000000000000000000000 DUP2 MSTORE PUSH1 0x4 ADD PUSH2 0x844 SWAP1 PUSH2 0x103E JUMP JUMPDEST PUSH1 0x40 MLOAD DUP1 SWAP2 SUB SWAP1 REVERT JUMPDEST DUP2 PUSH1 0x1 DUP2 SWAP1 SSTORE POP PUSH1 0x2 PUSH1 0x1 SLOAD SWAP1 DUP1 PUSH1 0x1 DUP2 SLOAD ADD DUP1 DUP3 SSTORE DUP1 SWAP2 POP POP PUSH1 0x1 SWAP1 SUB SWAP1 PUSH1 0x0 MSTORE PUSH1 0x20 PUSH1 0x0 KECCAK256 ADD PUSH1 0x0 SWAP1 SWAP2 SWAP1 SWAP2 SWAP1 SWAP2 POP SSTORE PUSH1 0x2 DUP1 SLOAD DUP1 PUSH1 0x20 MUL PUSH1 0x20 ADD PUSH1 0x40 MLOAD SWAP1 DUP2 ADD PUSH1 0x40 MSTORE DUP1 SWAP3 SWAP2 SWAP1 DUP2 DUP2 MSTORE PUSH1 0x20 ADD DUP3 DUP1 SLOAD DUP1 ISZERO PUSH2 0x8CB JUMPI PUSH1 0x20 MUL DUP3 ADD SWAP2 SWAP1 PUSH1 0x0 MSTORE PUSH1 0x20 PUSH1 0x0 KECCAK256 SWAP1 JUMPDEST DUP2 SLOAD DUP2 MSTORE PUSH1 0x20 ADD SWAP1 PUSH1 0x1 ADD SWAP1 DUP1 DUP4 GT PUSH2 0x8B7 JUMPI JUMPDEST POP POP POP POP POP SWAP1 POP SWAP2 SWAP1 POP JUMP JUMPDEST PUSH1 0x60 PUSH1 0x0 PUSH2 0x8E3 PUSH2 0xAF2 JUMP JUMPDEST SWAP1 POP DUP1 PUSH1 0x0 DUP2 SWAP1 SSTORE POP PUSH1 0x3 DUP4 GT ISZERO PUSH2 0x930 JUMPI PUSH1 0x40 MLOAD PUSH32 0x8C379A000000000000000000000000000000000000000000000000000000000 DUP2 MSTORE PUSH1 0x4 ADD PUSH2 0x927 SWAP1 PUSH2 0x103E JUMP JUMPDEST PUSH1 0x40 MLOAD DUP1 SWAP2 SUB SWAP1 REVERT JUMPDEST DUP1 DUP4 SUB PUSH2 0x975 JUMPI PUSH1 0x40 MLOAD DUP1 PUSH1 0x40 ADD PUSH1 0x40 MSTORE DUP1 PUSH1 0x4 DUP2 MSTORE PUSH1 0x20 ADD PUSH32 0x5469656400000000000000000000000000000000000000000000000000000000 DUP2 MSTORE POP SWAP2 POP POP PUSH2 0xA30 JUMP JUMPDEST PUSH1 0x1 DUP4 EQ DUP1 ISZERO PUSH2 0x985 JUMPI POP PUSH1 0x2 DUP2 EQ JUMPDEST DUP1 PUSH2 0x99C JUMPI POP PUSH1 0x3 DUP4 EQ DUP1 ISZERO PUSH2 0x99B JUMPI POP PUSH1 0x1 DUP2 EQ JUMPDEST JUMPDEST DUP1 PUSH2 0x9B3 JUMPI POP PUSH1 0x2 DUP4 EQ DUP1 ISZERO PUSH2 0x9B2 JUMPI POP PUSH1 0x3 DUP2 EQ JUMPDEST JUMPDEST ISZERO PUSH2 0x9F6 JUMPI PUSH1 0x40 MLOAD DUP1 PUSH1 0x40 ADD PUSH1 0x40 MSTORE DUP1 PUSH1 0x8 DUP2 MSTORE PUSH1 0x20 ADD PUSH32 0x596F75206C6F7365000000000000000000000000000000000000000000000000 DUP2 MSTORE POP SWAP2 POP POP PUSH2 0xA30 JUMP JUMPDEST PUSH1 0x40 MLOAD DUP1 PUSH1 0x40 ADD PUSH1 0x40 MSTORE DUP1 PUSH1 0x7 DUP2 MSTORE PUSH1 0x20 ADD PUSH32 0x596F7520776F6E00000000000000000000000000000000000000000000000000 DUP2 MSTORE POP SWAP2 POP POP JUMPDEST SWAP2 SWAP1 POP JUMP JUMPDEST PUSH1 0x60 PUSH1 0x3 DUP1 SLOAD DUP1 PUSH1 0x20 MUL PUSH1 0x20 ADD PUSH1 0x40 MLOAD SWAP1 DUP2 ADD PUSH1 0x40 MSTORE DUP1 SWAP3 SWAP2 SWAP1 DUP2 DUP2 MSTORE PUSH1 0x20 ADD DUP3 DUP1 SLOAD DUP1 ISZERO PUSH2 0xA83 JUMPI PUSH1 0x20 MUL DUP3 ADD SWAP2 SWAP1 PUSH1 0x0 MSTORE PUSH1 0x20 PUSH1 0x0 KECCAK256 SWAP1 JUMPDEST DUP2 SLOAD DUP2 MSTORE PUSH1 0x20 ADD SWAP1 PUSH1 0x1 ADD SWAP1 DUP1 DUP4 GT PUSH2 0xA6F JUMPI JUMPDEST POP POP POP POP POP SWAP1 POP SWAP1 JUMP JUMPDEST PUSH1 0x7 SLOAD DUP2 JUMP JUMPDEST PUSH1 0x5 SLOAD DUP2 JUMP JUMPDEST PUSH1 0x0 DUP2 PUSH1 0x40 MLOAD PUSH1 0x20 ADD PUSH2 0xAAC SWAP2 SWAP1 PUSH2 0x1140 JUMP JUMPDEST PUSH1 0x40 MLOAD PUSH1 0x20 DUP2 DUP4 SUB SUB DUP2 MSTORE SWAP1 PUSH1 0x40 MSTORE DUP1 MLOAD SWAP1 PUSH1 0x20 ADD KECCAK256 DUP4 PUSH1 0x40 MLOAD PUSH1 0x20 ADD PUSH2 0xAD3 SWAP2 SWAP1 PUSH2 0x1140 JUMP JUMPDEST PUSH1 0x40 MLOAD PUSH1 0x20 DUP2 DUP4 SUB SUB DUP2 MSTORE SWAP1 PUSH1 0x40 MSTORE DUP1 MLOAD SWAP1 PUSH1 0x20 ADD KECCAK256 EQ SWAP1 POP SWAP3 SWAP2 POP POP JUMP JUMPDEST PUSH1 0x0 DUP1 TIMESTAMP PREVRANDAO PUSH1 0x1 NUMBER PUSH2 0xB04 SWAP2 SWAP1 PUSH2 0x1157 JUMP JUMPDEST BLOCKHASH PUSH1 0x40 MLOAD PUSH1 0x20 ADD PUSH2 0xB17 SWAP4 SWAP3 SWAP2 SWAP1 PUSH2 0x11D7 JUMP JUMPDEST PUSH1 0x40 MLOAD PUSH1 0x20 DUP2 DUP4 SUB SUB DUP2 MSTORE SWAP1 PUSH1 0x40 MSTORE DUP1 MLOAD SWAP1 PUSH1 0x20 ADD KECCAK256 PUSH1 0x0 SHR SWAP1 POP PUSH1 0x0 DUP2 PUSH1 0x4 SLOAD PUSH1 0x40 MLOAD PUSH1 0x20 ADD PUSH2 0xB49 SWAP3 SWAP2 SWAP1 PUSH2 0x1214 JUMP JUMPDEST PUSH1 0x40 MLOAD PUSH1 0x20 DUP2 DUP4 SUB SUB DUP2 MSTORE SWAP1 PUSH1 0x40 MSTORE DUP1 MLOAD SWAP1 PUSH1 0x20 ADD KECCAK256 PUSH1 0x0 SHR SWAP1 POP PUSH1 0x1 PUSH1 0x4 PUSH1 0x0 DUP3 DUP3 SLOAD PUSH2 0xB77 SWAP2 SWAP1 PUSH2 0x1240 JUMP JUMPDEST SWAP3 POP POP DUP2 SWAP1 SSTORE POP PUSH1 0x1 PUSH1 0x3 DUP3 PUSH2 0xB8D SWAP2 SWAP1 PUSH2 0x12A3 JUMP JUMPDEST PUSH2 0xB97 SWAP2 SWAP1 PUSH2 0x1240 JUMP JUMPDEST SWAP3 POP POP POP SWAP1 JUMP JUMPDEST POP DUP1 SLOAD PUSH1 0x0 DUP3 SSTORE SWAP1 PUSH1 0x0 MSTORE PUSH1 0x20 PUSH1 0x0 KECCAK256 SWAP1 DUP2 ADD SWAP1 PUSH2 0xBBC SWAP2 SWAP1 PUSH2 0xBBF JUMP JUMPDEST POP JUMP JUMPDEST JUMPDEST DUP1 DUP3 GT ISZERO PUSH2 0xBD8 JUMPI PUSH1 0x0 DUP2 PUSH1 0x0 SWAP1 SSTORE POP PUSH1 0x1 ADD PUSH2 0xBC0 JUMP JUMPDEST POP SWAP1 JUMP JUMPDEST PUSH1 0x0 DUP2 SWAP1 POP SWAP2 SWAP1 POP JUMP JUMPDEST PUSH2 0xBEF DUP2 PUSH2 0xBDC JUMP JUMPDEST DUP3 MSTORE POP POP JUMP JUMPDEST PUSH1 0x0 PUSH1 0x20 DUP3 ADD SWAP1 POP PUSH2 0xC0A PUSH1 0x0 DUP4 ADD DUP5 PUSH2 0xBE6 JUMP JUMPDEST SWAP3 SWAP2 POP POP JUMP JUMPDEST PUSH1 0x0 PUSH1 0x40 MLOAD SWAP1 POP SWAP1 JUMP JUMPDEST PUSH1 0x0 DUP1 REVERT JUMPDEST PUSH1 0x0 DUP1 REVERT JUMPDEST PUSH2 0xC2D DUP2 PUSH2 0xBDC JUMP JUMPDEST DUP2 EQ PUSH2 0xC38 JUMPI PUSH1 0x0 DUP1 REVERT JUMPDEST POP JUMP JUMPDEST PUSH1 0x0 DUP2 CALLDATALOAD SWAP1 POP PUSH2 0xC4A DUP2 PUSH2 0xC24 JUMP JUMPDEST SWAP3 SWAP2 POP POP JUMP JUMPDEST PUSH1 0x0 PUSH1 0x20 DUP3 DUP5 SUB SLT ISZERO PUSH2 0xC66 JUMPI PUSH2 0xC65 PUSH2 0xC1A JUMP JUMPDEST JUMPDEST PUSH1 0x0 PUSH2 0xC74 DUP5 DUP3 DUP6 ADD PUSH2 0xC3B JUMP JUMPDEST SWAP2 POP POP SWAP3 SWAP2 POP POP JUMP JUMPDEST PUSH1 0x0 DUP2 MLOAD SWAP1 POP SWAP2 SWAP1 POP JUMP JUMPDEST PUSH1 0x0 DUP3 DUP3 MSTORE PUSH1 0x20 DUP3 ADD SWAP1 POP SWAP3 SWAP2 POP POP JUMP JUMPDEST PUSH1 0x0 JUMPDEST DUP4 DUP2 LT ISZERO PUSH2 0xCB7 JUMPI DUP1 DUP3 ADD MLOAD DUP2 DUP5 ADD MSTORE PUSH1 0x20 DUP2 ADD SWAP1 POP PUSH2 0xC9C JUMP JUMPDEST PUSH1 0x0 DUP5 DUP5 ADD MSTORE POP POP POP POP JUMP JUMPDEST PUSH1 0x0 PUSH1 0x1F NOT PUSH1 0x1F DUP4 ADD AND SWAP1 POP SWAP2 SWAP1 POP JUMP JUMPDEST PUSH1 0x0 PUSH2 0xCDF DUP3 PUSH2 0xC7D JUMP JUMPDEST PUSH2 0xCE9 DUP2 DUP6 PUSH2 0xC88 JUMP JUMPDEST SWAP4 POP PUSH2 0xCF9 DUP2 DUP6 PUSH1 0x20 DUP7 ADD PUSH2 0xC99 JUMP JUMPDEST PUSH2 0xD02 DUP2 PUSH2 0xCC3 JUMP JUMPDEST DUP5 ADD SWAP2 POP POP SWAP3 SWAP2 POP POP JUMP JUMPDEST PUSH1 0x0 PUSH1 0x20 DUP3 ADD SWAP1 POP DUP2 DUP2 SUB PUSH1 0x0 DUP4 ADD MSTORE PUSH2 0xD27 DUP2 DUP5 PUSH2 0xCD4 JUMP JUMPDEST SWAP1 POP SWAP3 SWAP2 POP POP JUMP JUMPDEST PUSH1 0x0 DUP2 MLOAD SWAP1 POP SWAP2 SWAP1 POP JUMP JUMPDEST PUSH1 0x0 DUP3 DUP3 MSTORE PUSH1 0x20 DUP3 ADD SWAP1 POP SWAP3 SWAP2 POP POP JUMP JUMPDEST PUSH1 0x0 DUP2 SWAP1 POP PUSH1 0x20 DUP3 ADD SWAP1 POP SWAP2 SWAP1 POP JUMP JUMPDEST PUSH2 0xD64 DUP2 PUSH2 0xBDC JUMP JUMPDEST DUP3 MSTORE POP POP JUMP JUMPDEST PUSH1 0x0 PUSH2 0xD76 DUP4 DUP4 PUSH2 0xD5B JUMP JUMPDEST PUSH1 0x20 DUP4 ADD SWAP1 POP SWAP3 SWAP2 POP POP JUMP JUMPDEST PUSH1 0x0 PUSH1 0x20 DUP3 ADD SWAP1 POP SWAP2 SWAP1 POP JUMP JUMPDEST PUSH1 0x0 PUSH2 0xD9A DUP3 PUSH2 0xD2F JUMP JUMPDEST PUSH2 0xDA4 DUP2 DUP6 PUSH2 0xD3A JUMP JUMPDEST SWAP4 POP PUSH2 0xDAF DUP4 PUSH2 0xD4B JUMP JUMPDEST DUP1 PUSH1 0x0 JUMPDEST DUP4 DUP2 LT ISZERO PUSH2 0xDE0 JUMPI DUP2 MLOAD PUSH2 0xDC7 DUP9 DUP3 PUSH2 0xD6A JUMP JUMPDEST SWAP8 POP PUSH2 0xDD2 DUP4 PUSH2 0xD82 JUMP JUMPDEST SWAP3 POP POP PUSH1 0x1 DUP2 ADD SWAP1 POP PUSH2 0xDB3 JUMP JUMPDEST POP DUP6 SWAP4 POP POP POP POP SWAP3 SWAP2 POP POP JUMP JUMPDEST PUSH1 0x0 PUSH1 0x20 DUP3 ADD SWAP1 POP DUP2 DUP2 SUB PUSH1 0x0 DUP4 ADD MSTORE PUSH2 0xE07 DUP2 DUP5 PUSH2 0xD8F JUMP JUMPDEST SWAP1 POP SWAP3 SWAP2 POP POP JUMP JUMPDEST PUSH1 0x0 DUP1 REVERT JUMPDEST PUSH1 0x0 DUP1 REVERT JUMPDEST PUSH32 0x4E487B7100000000000000000000000000000000000000000000000000000000 PUSH1 0x0 MSTORE PUSH1 0x41 PUSH1 0x4 MSTORE PUSH1 0x24 PUSH1 0x0 REVERT JUMPDEST PUSH2 0xE51 DUP3 PUSH2 0xCC3 JUMP JUMPDEST DUP2 ADD DUP2 DUP2 LT PUSH8 0xFFFFFFFFFFFFFFFF DUP3 GT OR ISZERO PUSH2 0xE70 JUMPI PUSH2 0xE6F PUSH2 0xE19 JUMP JUMPDEST JUMPDEST DUP1 PUSH1 0x40 MSTORE POP POP POP JUMP JUMPDEST PUSH1 0x0 PUSH2 0xE83 PUSH2 0xC10 JUMP JUMPDEST SWAP1 POP PUSH2 0xE8F DUP3 DUP3 PUSH2 0xE48 JUMP JUMPDEST SWAP2 SWAP1 POP JUMP JUMPDEST PUSH1 0x0 PUSH8 0xFFFFFFFFFFFFFFFF DUP3 GT ISZERO PUSH2 0xEAF JUMPI PUSH2 0xEAE PUSH2 0xE19 JUMP JUMPDEST JUMPDEST PUSH2 0xEB8 DUP3 PUSH2 0xCC3 JUMP JUMPDEST SWAP1 POP PUSH1 0x20 DUP2 ADD SWAP1 POP SWAP2 SWAP1 POP JUMP JUMPDEST DUP3 DUP2 DUP4 CALLDATACOPY PUSH1 0x0 DUP4 DUP4 ADD MSTORE POP POP POP JUMP JUMPDEST PUSH1 0x0 PUSH2 0xEE7 PUSH2 0xEE2 DUP5 PUSH2 0xE94 JUMP JUMPDEST PUSH2 0xE79 JUMP JUMPDEST SWAP1 POP DUP3 DUP2 MSTORE PUSH1 0x20 DUP2 ADD DUP5 DUP5 DUP5 ADD GT ISZERO PUSH2 0xF03 JUMPI PUSH2 0xF02 PUSH2 0xE14 JUMP JUMPDEST JUMPDEST PUSH2 0xF0E DUP5 DUP3 DUP6 PUSH2 0xEC5 JUMP JUMPDEST POP SWAP4 SWAP3 POP POP POP JUMP JUMPDEST PUSH1 0x0 DUP3 PUSH1 0x1F DUP4 ADD SLT PUSH2 0xF2B JUMPI PUSH2 0xF2A PUSH2 0xE0F JUMP JUMPDEST JUMPDEST DUP2 CALLDATALOAD PUSH2 0xF3B DUP5 DUP3 PUSH1 0x20 DUP7 ADD PUSH2 0xED4 JUMP JUMPDEST SWAP2 POP POP SWAP3 SWAP2 POP POP JUMP JUMPDEST PUSH1 0x0 DUP1 PUSH1 0x40 DUP4 DUP6 SUB SLT ISZERO PUSH2 0xF5B JUMPI PUSH2 0xF5A PUSH2 0xC1A JUMP JUMPDEST JUMPDEST PUSH1 0x0 DUP4 ADD CALLDATALOAD PUSH8 0xFFFFFFFFFFFFFFFF DUP2 GT ISZERO PUSH2 0xF79 JUMPI PUSH2 0xF78 PUSH2 0xC1F JUMP JUMPDEST JUMPDEST PUSH2 0xF85 DUP6 DUP3 DUP7 ADD PUSH2 0xF16 JUMP JUMPDEST SWAP3 POP POP PUSH1 0x20 DUP4 ADD CALLDATALOAD PUSH8 0xFFFFFFFFFFFFFFFF DUP2 GT ISZERO PUSH2 0xFA6 JUMPI PUSH2 0xFA5 PUSH2 0xC1F JUMP JUMPDEST JUMPDEST PUSH2 0xFB2 DUP6 DUP3 DUP7 ADD PUSH2 0xF16 JUMP JUMPDEST SWAP2 POP POP SWAP3 POP SWAP3 SWAP1 POP JUMP JUMPDEST PUSH1 0x0 DUP2 ISZERO ISZERO SWAP1 POP SWAP2 SWAP1 POP JUMP JUMPDEST PUSH2 0xFD1 DUP2 PUSH2 0xFBC JUMP JUMPDEST DUP3 MSTORE POP POP JUMP JUMPDEST PUSH1 0x0 PUSH1 0x20 DUP3 ADD SWAP1 POP PUSH2 0xFEC PUSH1 0x0 DUP4 ADD DUP5 PUSH2 0xFC8 JUMP JUMPDEST SWAP3 SWAP2 POP POP JUMP JUMPDEST PUSH32 0x4572726F723A2043616E277420696E707574206D6F7265207468616E20330000 PUSH1 0x0 DUP3 ADD MSTORE POP JUMP JUMPDEST PUSH1 0x0 PUSH2 0x1028 PUSH1 0x1E DUP4 PUSH2 0xC88 JUMP JUMPDEST SWAP2 POP PUSH2 0x1033 DUP3 PUSH2 0xFF2 JUMP JUMPDEST PUSH1 0x20 DUP3 ADD SWAP1 POP SWAP2 SWAP1 POP JUMP JUMPDEST PUSH1 0x0 PUSH1 0x20 DUP3 ADD SWAP1 POP DUP2 DUP2 SUB PUSH1 0x0 DUP4 ADD MSTORE PUSH2 0x1057 DUP2 PUSH2 0x101B JUMP JUMPDEST SWAP1 POP SWAP2 SWAP1 POP JUMP JUMPDEST PUSH32 0x4E487B7100000000000000000000000000000000000000000000000000000000 PUSH1 0x0 MSTORE PUSH1 0x11 PUSH1 0x4 MSTORE PUSH1 0x24 PUSH1 0x0 REVERT JUMPDEST PUSH1 0x0 PUSH2 0x1098 DUP3 PUSH2 0xBDC JUMP JUMPDEST SWAP2 POP PUSH32 0xFFFFFFFFFFFFFFFFFFFFFFFFFFFFFFFFFFFFFFFFFFFFFFFFFFFFFFFFFFFFFFFF DUP3 SUB PUSH2 0x10CA JUMPI PUSH2 0x10C9 PUSH2 0x105E JUMP JUMPDEST JUMPDEST PUSH1 0x1 DUP3 ADD SWAP1 POP SWAP2 SWAP1 POP JUMP JUMPDEST PUSH32 0x4E487B7100000000000000000000000000000000000000000000000000000000 PUSH1 0x0 MSTORE PUSH1 0x32 PUSH1 0x4 MSTORE PUSH1 0x24 PUSH1 0x0 REVERT JUMPDEST PUSH1 0x0 DUP2 SWAP1 POP SWAP3 SWAP2 POP POP JUMP JUMPDEST PUSH1 0x0 PUSH2 0x111A DUP3 PUSH2 0xC7D JUMP JUMPDEST PUSH2 0x1124 DUP2 DUP6 PUSH2 0x1104 JUMP JUMPDEST SWAP4 POP PUSH2 0x1134 DUP2 DUP6 PUSH1 0x20 DUP7 ADD PUSH2 0xC99 JUMP JUMPDEST DUP1 DUP5 ADD SWAP2 POP POP SWAP3 SWAP2 POP POP JUMP JUMPDEST PUSH1 0x0 PUSH2 0x114C DUP3 DUP5 PUSH2 0x110F JUMP JUMPDEST SWAP2 POP DUP2 SWAP1 POP SWAP3 SWAP2 POP POP JUMP JUMPDEST PUSH1 0x0 PUSH2 0x1162 DUP3 PUSH2 0xBDC JUMP JUMPDEST SWAP2 POP PUSH2 0x116D DUP4 PUSH2 0xBDC JUMP JUMPDEST SWAP3 POP DUP3 DUP3 SUB SWAP1 POP DUP2 DUP2 GT ISZERO PUSH2 0x1185 JUMPI PUSH2 0x1184 PUSH2 0x105E JUMP JUMPDEST JUMPDEST SWAP3 SWAP2 POP POP JUMP JUMPDEST PUSH1 0x0 DUP2 SWAP1 POP SWAP2 SWAP1 POP JUMP JUMPDEST PUSH2 0x11A6 PUSH2 0x11A1 DUP3 PUSH2 0xBDC JUMP JUMPDEST PUSH2 0x118B JUMP JUMPDEST DUP3 MSTORE POP POP JUMP JUMPDEST PUSH1 0x0 DUP2 SWAP1 POP SWAP2 SWAP1 POP JUMP JUMPDEST PUSH1 0x0 DUP2 SWAP1 POP SWAP2 SWAP1 POP JUMP JUMPDEST PUSH2 0x11D1 PUSH2 0x11CC DUP3 PUSH2 0x11AC JUMP JUMPDEST PUSH2 0x11B6 JUMP JUMPDEST DUP3 MSTORE POP POP JUMP JUMPDEST PUSH1 0x0 PUSH2 0x11E3 DUP3 DUP7 PUSH2 0x1195 JUMP JUMPDEST PUSH1 0x20 DUP3 ADD SWAP2 POP PUSH2 0x11F3 DUP3 DUP6 PUSH2 0x1195 JUMP JUMPDEST PUSH1 0x20 DUP3 ADD SWAP2 POP PUSH2 0x1203 DUP3 DUP5 PUSH2 0x11C0 JUMP JUMPDEST PUSH1 0x20 DUP3 ADD SWAP2 POP DUP2 SWAP1 POP SWAP5 SWAP4 POP POP POP POP JUMP JUMPDEST PUSH1 0x0 PUSH2 0x1220 DUP3 DUP6 PUSH2 0x1195 JUMP JUMPDEST PUSH1 0x20 DUP3 ADD SWAP2 POP PUSH2 0x1230 DUP3 DUP5 PUSH2 0x1195 JUMP JUMPDEST PUSH1 0x20 DUP3 ADD SWAP2 POP DUP2 SWAP1 POP SWAP4 SWAP3 POP POP POP JUMP JUMPDEST PUSH1 0x0 PUSH2 0x124B DUP3 PUSH2 0xBDC JUMP JUMPDEST SWAP2 POP PUSH2 0x1256 DUP4 PUSH2 0xBDC JUMP JUMPDEST SWAP3 POP DUP3 DUP3 ADD SWAP1 POP DUP1 DUP3 GT ISZERO PUSH2 0x126E JUMPI PUSH2 0x126D PUSH2 0x105E JUMP JUMPDEST JUMPDEST SWAP3 SWAP2 POP POP JUMP JUMPDEST PUSH32 0x4E487B7100000000000000000000000000000000000000000000000000000000 PUSH1 0x0 MSTORE PUSH1 0x12 PUSH1 0x4 MSTORE PUSH1 0x24 PUSH1 0x0 REVERT JUMPDEST PUSH1 0x0 PUSH2 0x12AE DUP3 PUSH2 0xBDC JUMP JUMPDEST SWAP2 POP PUSH2 0x12B9 DUP4 PUSH2 0xBDC JUMP JUMPDEST SWAP3 POP DUP3 PUSH2 0x12C9 JUMPI PUSH2 0x12C8 PUSH2 0x1274 JUMP JUMPDEST JUMPDEST DUP3 DUP3 MOD SWAP1 POP SWAP3 SWAP2 POP POP JUMP INVALID LOG2 PUSH5 0x6970667358 0x22 SLT KECCAK256 DUP2 0xB9 POP PC 0xE4 0xB3 OR 0x2E 0xE1 0x4F SUB 0xB7 SWAP6 0x24 RETURNDATASIZE DUP1 PUSH13 0x3B0E380C1771C8FCB25D12A0A7 0xB5 0xC6 PUSH5 0x736F6C6343 STOP ADDMOD SGT STOP CALLER "
		},
		"gasEstimates": {
			"creation": {
				"codeDepositCost": "974800",
				"executionCost": "23120",
				"totalCost": "997920"
			},
			"external": {
				"Options(uint256)": "infinite",
				"compareStrings(string,string)": "infinite",
				"enterOption(uint256)": "infinite",
				"getRandomNumber()": "infinite",
				"getRandomSet()": "infinite",
				"guessResult(uint256)": "infinite",
				"lastChoice()": "2453",
				"play(uint256)": "infinite",
				"playMutiTimes()": "infinite",
				"playerOption()": "2496",
				"randomNumSet(uint256)": "infinite",
				"systemWin()": "2475",
				"tied()": "2451",
				"userWin()": "2473"
			}
		},
		"methodIdentifiers": {
			"Options(uint256)": "12220fe3",
			"compareStrings(string,string)": "bed34bba",
			"enterOption(uint256)": "614b3757",
			"getRandomNumber()": "dbdff2c1",
			"getRandomSet()": "6ca495e2",
			"guessResult(uint256)": "1123d9b1",
			"lastChoice()": "010711e3",
			"play(uint256)": "6898f82b",
			"playMutiTimes()": "58da9da8",
			"playerOption()": "4028e0de",
			"randomNumSet(uint256)": "233a1a76",
			"systemWin()": "060aa4ce",
			"tied()": "94227ea7",
			"userWin()": "ba162868"
		}
	},
	"abi": [
		{
			"inputs": [
				{
					"internalType": "uint256",
					"name": "",
					"type": "uint256"
				}
			],
			"name": "Options",
			"outputs": [
				{
					"internalType": "uint256",
					"name": "",
					"type": "uint256"
				}
			],
			"stateMutability": "view",
			"type": "function"
		},
		{
			"inputs": [
				{
					"internalType": "string",
					"name": "a",
					"type": "string"
				},
				{
					"internalType": "string",
					"name": "b",
					"type": "string"
				}
			],
			"name": "compareStrings",
			"outputs": [
				{
					"internalType": "bool",
					"name": "",
					"type": "bool"
				}
			],
			"stateMutability": "pure",
			"type": "function"
		},
		{
			"inputs": [
				{
					"internalType": "uint256",
					"name": "userInput",
					"type": "uint256"
				}
			],
			"name": "enterOption",
			"outputs": [
				{
					"internalType": "uint256[]",
					"name": "result",
					"type": "uint256[]"
				}
			],
			"stateMutability": "nonpayable",
			"type": "function"
		},
		{
			"inputs": [],
			"name": "getRandomNumber",
			"outputs": [
				{
					"internalType": "uint256",
					"name": "",
					"type": "uint256"
				}
			],
			"stateMutability": "nonpayable",
			"type": "function"
		},
		{
			"inputs": [],
			"name": "getRandomSet",
			"outputs": [
				{
					"internalType": "uint256[]",
					"name": "result",
					"type": "uint256[]"
				}
			],
			"stateMutability": "view",
			"type": "function"
		},
		{
			"inputs": [
				{
					"internalType": "uint256",
					"name": "guessAnswer",
					"type": "uint256"
				}
			],
			"name": "guessResult",
			"outputs": [
				{
					"internalType": "string",
					"name": "result",
					"type": "string"
				}
			],
			"stateMutability": "nonpayable",
			"type": "function"
		},
		{
			"inputs": [],
			"name": "lastChoice",
			"outputs": [
				{
					"internalType": "uint256",
					"name": "",
					"type": "uint256"
				}
			],
			"stateMutability": "view",
			"type": "function"
		},
		{
			"inputs": [
				{
					"internalType": "uint256",
					"name": "option",
					"type": "uint256"
				}
			],
			"name": "play",
			"outputs": [
				{
					"internalType": "string",
					"name": "result",
					"type": "string"
				}
			],
			"stateMutability": "nonpayable",
			"type": "function"
		},
		{
			"inputs": [],
			"name": "playMutiTimes",
			"outputs": [
				{
					"internalType": "string",
					"name": "result",
					"type": "string"
				}
			],
			"stateMutability": "nonpayable",
			"type": "function"
		},
		{
			"inputs": [],
			"name": "playerOption",
			"outputs": [
				{
					"internalType": "uint256",
					"name": "",
					"type": "uint256"
				}
			],
			"stateMutability": "view",
			"type": "function"
		},
		{
			"inputs": [
				{
					"internalType": "uint256",
					"name": "",
					"type": "uint256"
				}
			],
			"name": "randomNumSet",
			"outputs": [
				{
					"internalType": "uint256",
					"name": "",
					"type": "uint256"
				}
			],
			"stateMutability": "view",
			"type": "function"
		},
		{
			"inputs": [],
			"name": "systemWin",
			"outputs": [
				{
					"internalType": "uint256",
					"name": "",
					"type": "uint256"
				}
			],
			"stateMutability": "view",
			"type": "function"
		},
		{
			"inputs": [],
			"name": "tied",
			"outputs": [
				{
					"internalType": "uint256",
					"name": "",
					"type": "uint256"
				}
			],
			"stateMutability": "view",
			"type": "function"
		},
		{
			"inputs": [],
			"name": "userWin",
			"outputs": [
				{
					"internalType": "uint256",
					"name": "",
					"type": "uint256"
				}
			],
			"stateMutability": "view",
			"type": "function"
		}
	]
}