{
	"data": {
		"bytecode": {
			"linkReferences": {},
			"object": "608060405260016000556000600155600160045534801561001f57600080fd5b506120308061002f6000396000f3fe608060405234801561001057600080fd5b50600436106100625760003560e01c80631db05a8814610067578063512ec5571461008357806376dad223146100a1578063adf496b5146100bf578063e16c9d59146100db578063f7c4efbb146100f9575b600080fd5b610081600480360381019061007c9190611346565b610129565b005b61008b61016c565b6040516100989190611594565b60405180910390f35b6100a9610345565b6040516100b691906115c5565b60405180910390f35b6100d960048036038101906100d49190611346565b61034b565b005b6100e36106d4565b6040516100f0919061168f565b60405180910390f35b610113600480360381019061010e9190611346565b610793565b6040516101209190611701565b60405180910390f35b806000819055507febaa1540a7a2f4fd56917205a7326b45cd094b271e1c175a4c5e472967e60e8460005460405161016191906115c5565b60405180910390a150565b60606002805480602002602001604051908101604052809291908181526020016000905b8282101561033c5783829060005260206000209060050201604051806060016040529081600082016040518060400160405290816000820160009054906101000a900473ffffffffffffffffffffffffffffffffffffffff1673ffffffffffffffffffffffffffffffffffffffff1673ffffffffffffffffffffffffffffffffffffffff1681526020016001820154815250508152602001600282016040518060400160405290816000820160009054906101000a900473ffffffffffffffffffffffffffffffffffffffff1673ffffffffffffffffffffffffffffffffffffffff1673ffffffffffffffffffffffffffffffffffffffff16815260200160018201548152505081526020016004820180546102ab90611752565b80601f01602080910402602001604051908101604052809291908181526020018280546102d790611752565b80156103245780601f106102f957610100808354040283529160200191610324565b820191906000526020600020905b81548152906001019060200180831161030757829003601f168201915b50505050508152505081526020019060010190610190565b50505050905090565b60005481565b600360009054906101000a900460ff161561039b576040517f08c379a0000000000000000000000000000000000000000000000000000000008152600401610392906117e0565b60405180910390fd5b6001600360006101000a81548160ff0219169083151502179055503373ffffffffffffffffffffffffffffffffffffffff167f6fd5bea3ad79492c3055c6f6b7b37ca66d63ba4ceef7d04dd901559affbe971a60405160405180910390a26000810361043c576040517f08c379a00000000000000000000000000000000000000000000000000000000081526004016104339061184c565b60405180910390fd5b6003811115610480576040517f08c379a0000000000000000000000000000000000000000000000000000000008152600401610477906118b8565b60405180910390fd5b600080600090505b60058054905081101561056657600581815481106104a9576104a86118d8565b5b906000526020600020906002020160000160009054906101000a900473ffffffffffffffffffffffffffffffffffffffff1673ffffffffffffffffffffffffffffffffffffffff163373ffffffffffffffffffffffffffffffffffffffff160361055357600191508115610552576040517f08c379a000000000000000000000000000000000000000000000000000000000815260040161054990611979565b60405180910390fd5b5b808061055e906119c8565b915050610488565b5061056f6112ae565b600581908060018154018082558091505060019003906000526020600020906002020160009091909190915060008201518160000160006101000a81548173ffffffffffffffffffffffffffffffffffffffff021916908373ffffffffffffffffffffffffffffffffffffffff16021790555060208201518160010155505033600560016005805490506106039190611a10565b81548110610614576106136118d8565b5b906000526020600020906002020160000160006101000a81548173ffffffffffffffffffffffffffffffffffffffff021916908373ffffffffffffffffffffffffffffffffffffffff16021790555082600560016005805490506106789190611a10565b81548110610689576106886118d8565b5b9060005260206000209060020201600101819055506006600580549050036106b4576106b3610991565b5b50506000600360006101000a81548160ff02191690831515021790555050565b60606005805480602002602001604051908101604052809291908181526020016000905b8282101561078a57838290600052602060002090600202016040518060400160405290816000820160009054906101000a900473ffffffffffffffffffffffffffffffffffffffff1673ffffffffffffffffffffffffffffffffffffffff1673ffffffffffffffffffffffffffffffffffffffff168152602001600182015481525050815260200190600101906106f8565b50505050905090565b61079b6112de565b6002805490508211156107e3576040517f08c379a00000000000000000000000000000000000000000000000000000000081526004016107da90611a90565b60405180910390fd5b600282815481106107f7576107f66118d8565b5b9060005260206000209060050201604051806060016040529081600082016040518060400160405290816000820160009054906101000a900473ffffffffffffffffffffffffffffffffffffffff1673ffffffffffffffffffffffffffffffffffffffff1673ffffffffffffffffffffffffffffffffffffffff1681526020016001820154815250508152602001600282016040518060400160405290816000820160009054906101000a900473ffffffffffffffffffffffffffffffffffffffff1673ffffffffffffffffffffffffffffffffffffffff1673ffffffffffffffffffffffffffffffffffffffff168152602001600182015481525050815260200160048201805461090890611752565b80601f016020809104026020016040519081016040528092919081815260200182805461093490611752565b80156109815780601f1061095657610100808354040283529160200191610981565b820191906000526020600020905b81548152906001019060200180831161096457829003601f168201915b5050505050815250509050919050565b5b600061099c610a01565b905060006109a8610a01565b90506109b48282610c69565b5050600060058054905003610992577f1f237084c29a99316238004a5870904571dbc9ff0d357b8b85cceacb5512a8506005805490506040516109f791906115c5565b60405180910390a1565b610a096112ae565b600060058054905011610a51576040517f08c379a0000000000000000000000000000000000000000000000000000000008152600401610a4890611afc565b60405180910390fd5b60006005805490504442600454604051602001610a7093929190611b3d565b6040516020818303038152906040528051906020012060001c610a939190611ba9565b905060046000815480929190610aa8906119c8565b9190505550600060058281548110610ac357610ac26118d8565b5b90600052602060002090600202016040518060400160405290816000820160009054906101000a900473ffffffffffffffffffffffffffffffffffffffff1673ffffffffffffffffffffffffffffffffffffffff1673ffffffffffffffffffffffffffffffffffffffff168152602001600182015481525050905060056001600580549050610b529190611a10565b81548110610b6357610b626118d8565b5b906000526020600020906002020160058381548110610b8557610b846118d8565b5b90600052602060002090600202016000820160009054906101000a900473ffffffffffffffffffffffffffffffffffffffff168160000160006101000a81548173ffffffffffffffffffffffffffffffffffffffff021916908373ffffffffffffffffffffffffffffffffffffffff160217905550600182015481600101559050506005805480610c1957610c18611bda565b5b6001900381819060005260206000209060020201600080820160006101000a81549073ffffffffffffffffffffffffffffffffffffffff0219169055600182016000905550509055809250505090565b610c716112de565b600281908060018154018082558091505060019003906000526020600020906005020160009091909190915060008201518160000160008201518160000160006101000a81548173ffffffffffffffffffffffffffffffffffffffff021916908373ffffffffffffffffffffffffffffffffffffffff16021790555060208201518160010155505060208201518160020160008201518160000160006101000a81548173ffffffffffffffffffffffffffffffffffffffff021916908373ffffffffffffffffffffffffffffffffffffffff1602179055506020820151816001015550506040820151816004019081610d6a9190611de4565b5050508260026001600280549050610d829190611a10565b81548110610d9357610d926118d8565b5b906000526020600020906005020160000160008201518160000160006101000a81548173ffffffffffffffffffffffffffffffffffffffff021916908373ffffffffffffffffffffffffffffffffffffffff160217905550602082015181600101559050508160026001600280549050610e0d9190611a10565b81548110610e1e57610e1d6118d8565b5b906000526020600020906005020160020160008201518160000160006101000a81548173ffffffffffffffffffffffffffffffffffffffff021916908373ffffffffffffffffffffffffffffffffffffffff1602179055506020820151816001015590505060026001600280549050610e979190611a10565b81548110610ea857610ea76118d8565b5b90600052602060002090600502016002016001015460026001600280549050610ed19190611a10565b81548110610ee257610ee16118d8565b5b90600052602060002090600502016000016001015403610faf576040518060400160405280600481526020017f546965640000000000000000000000000000000000000000000000000000000081525060026001600280549050610f469190611a10565b81548110610f5757610f566118d8565b5b90600052602060002090600502016004019081610f749190611de4565b507fcde5c32c0a45fd8aa4b65ea8003fc9da9acd5e2c6c24a9fcce6ab79cabbd9122604051610fa290611f02565b60405180910390a16112a9565b600160026001600280549050610fc59190611a10565b81548110610fd657610fd56118d8565b5b906000526020600020906005020160000160010154148015611030575060028060016002805490506110089190611a10565b81548110611019576110186118d8565b5b906000526020600020906005020160020160010154145b806110b9575060036002600160028054905061104c9190611a10565b8154811061105d5761105c6118d8565b5b9060005260206000209060050201600001600101541480156110b857506001600260016002805490506110909190611a10565b815481106110a1576110a06118d8565b5b906000526020600020906005020160020160010154145b5b80611141575060028060016002805490506110d49190611a10565b815481106110e5576110e46118d8565b5b90600052602060002090600502016000016001015414801561114057506003600260016002805490506111189190611a10565b81548110611129576111286118d8565b5b906000526020600020906005020160020160010154145b5b156111f9576040518060400160405280600981526020017f55736572322077696e0000000000000000000000000000000000000000000000815250600260016002805490506111909190611a10565b815481106111a1576111a06118d8565b5b906000526020600020906005020160040190816111be9190611de4565b507fcde5c32c0a45fd8aa4b65ea8003fc9da9acd5e2c6c24a9fcce6ab79cabbd91226040516111ec90611f6e565b60405180910390a16112a8565b6040518060400160405280600981526020017f55736572312077696e0000000000000000000000000000000000000000000000815250600260016002805490506112439190611a10565b81548110611254576112536118d8565b5b906000526020600020906005020160040190816112719190611de4565b507fcde5c32c0a45fd8aa4b65ea8003fc9da9acd5e2c6c24a9fcce6ab79cabbd912260405161129f90611fda565b60405180910390a15b5b505050565b6040518060400160405280600073ffffffffffffffffffffffffffffffffffffffff168152602001600081525090565b60405180606001604052806112f16112ae565b81526020016112fe6112ae565b8152602001606081525090565b600080fd5b6000819050919050565b61132381611310565b811461132e57600080fd5b50565b6000813590506113408161131a565b92915050565b60006020828403121561135c5761135b61130b565b5b600061136a84828501611331565b91505092915050565b600081519050919050565b600082825260208201905092915050565b6000819050602082019050919050565b600073ffffffffffffffffffffffffffffffffffffffff82169050919050565b60006113ca8261139f565b9050919050565b6113da816113bf565b82525050565b6113e981611310565b82525050565b60408201600082015161140560008501826113d1565b50602082015161141860208501826113e0565b50505050565b600081519050919050565b600082825260208201905092915050565b60005b8381101561145857808201518184015260208101905061143d565b60008484015250505050565b6000601f19601f8301169050919050565b60006114808261141e565b61148a8185611429565b935061149a81856020860161143a565b6114a381611464565b840191505092915050565b600060a0830160008301516114c660008601826113ef565b5060208301516114d960408601826113ef565b50604083015184820360808601526114f18282611475565b9150508091505092915050565b600061150a83836114ae565b905092915050565b6000602082019050919050565b600061152a82611373565b611534818561137e565b9350836020820285016115468561138f565b8060005b85811015611582578484038952815161156385826114fe565b945061156e83611512565b925060208a0199505060018101905061154a565b50829750879550505050505092915050565b600060208201905081810360008301526115ae818461151f565b905092915050565b6115bf81611310565b82525050565b60006020820190506115da60008301846115b6565b92915050565b600081519050919050565b600082825260208201905092915050565b6000819050602082019050919050565b600061161883836113ef565b60408301905092915050565b6000602082019050919050565b600061163c826115e0565b61164681856115eb565b9350611651836115fc565b8060005b83811015611682578151611669888261160c565b975061167483611624565b925050600181019050611655565b5085935050505092915050565b600060208201905081810360008301526116a98184611631565b905092915050565b600060a0830160008301516116c960008601826113ef565b5060208301516116dc60408601826113ef565b50604083015184820360808601526116f48282611475565b9150508091505092915050565b6000602082019050818103600083015261171b81846116b1565b905092915050565b7f4e487b7100000000000000000000000000000000000000000000000000000000600052602260045260246000fd5b6000600282049050600182168061176a57607f821691505b60208210810361177d5761177c611723565b5b50919050565b600082825260208201905092915050565b7f4572726f723a205265656e7472616e742063616c6c0000000000000000000000600082015250565b60006117ca601583611783565b91506117d582611794565b602082019050919050565b600060208201905081810360008301526117f9816117bd565b9050919050565b7f4572726f723a2043616e277420696e7075742030000000000000000000000000600082015250565b6000611836601483611783565b915061184182611800565b602082019050919050565b6000602082019050818103600083015261186581611829565b9050919050565b7f4572726f723a2043616e277420696e707574206d6f7265207468616e20330000600082015250565b60006118a2601e83611783565b91506118ad8261186c565b602082019050919050565b600060208201905081810360008301526118d181611895565b9050919050565b7f4e487b7100000000000000000000000000000000000000000000000000000000600052603260045260246000fd5b7f4572726f723a20596f7520616c726561647920696e207468652071756575652c60008201527f207761697420666f72206f7468657220706c6179206a6f696e00000000000000602082015250565b6000611963603983611783565b915061196e82611907565b604082019050919050565b6000602082019050818103600083015261199281611956565b9050919050565b7f4e487b7100000000000000000000000000000000000000000000000000000000600052601160045260246000fd5b60006119d382611310565b91507fffffffffffffffffffffffffffffffffffffffffffffffffffffffffffffffff8203611a0557611a04611999565b5b600182019050919050565b6000611a1b82611310565b9150611a2683611310565b9250828203905081811115611a3e57611a3d611999565b5b92915050565b7f4572726f723a20496e76616c6964206c656e6774680000000000000000000000600082015250565b6000611a7a601583611783565b9150611a8582611a44565b602082019050919050565b60006020820190508181036000830152611aa981611a6d565b9050919050565b7f417272617920697320656d707479000000000000000000000000000000000000600082015250565b6000611ae6600e83611783565b9150611af182611ab0565b602082019050919050565b60006020820190508181036000830152611b1581611ad9565b9050919050565b6000819050919050565b611b37611b3282611310565b611b1c565b82525050565b6000611b498286611b26565b602082019150611b598285611b26565b602082019150611b698284611b26565b602082019150819050949350505050565b7f4e487b7100000000000000000000000000000000000000000000000000000000600052601260045260246000fd5b6000611bb482611310565b9150611bbf83611310565b925082611bcf57611bce611b7a565b5b828206905092915050565b7f4e487b7100000000000000000000000000000000000000000000000000000000600052603160045260246000fd5b7f4e487b7100000000000000000000000000000000000000000000000000000000600052604160045260246000fd5b60008190508160005260206000209050919050565b60006020601f8301049050919050565b600082821b905092915050565b600060088302611c9a7fffffffffffffffffffffffffffffffffffffffffffffffffffffffffffffffff82611c5d565b611ca48683611c5d565b95508019841693508086168417925050509392505050565b6000819050919050565b6000611ce1611cdc611cd784611310565b611cbc565b611310565b9050919050565b6000819050919050565b611cfb83611cc6565b611d0f611d0782611ce8565b848454611c6a565b825550505050565b600090565b611d24611d17565b611d2f818484611cf2565b505050565b5b81811015611d5357611d48600082611d1c565b600181019050611d35565b5050565b601f821115611d9857611d6981611c38565b611d7284611c4d565b81016020851015611d81578190505b611d95611d8d85611c4d565b830182611d34565b50505b505050565b600082821c905092915050565b6000611dbb60001984600802611d9d565b1980831691505092915050565b6000611dd48383611daa565b9150826002028217905092915050565b611ded8261141e565b67ffffffffffffffff811115611e0657611e05611c09565b5b611e108254611752565b611e1b828285611d57565b600060209050601f831160018114611e4e5760008415611e3c578287015190505b611e468582611dc8565b865550611eae565b601f198416611e5c86611c38565b60005b82811015611e8457848901518255600182019150602085019450602081019050611e5f565b86831015611ea15784890151611e9d601f891682611daa565b8355505b6001600288020188555050505b505050505050565b7f5469656400000000000000000000000000000000000000000000000000000000600082015250565b6000611eec600483611783565b9150611ef782611eb6565b602082019050919050565b60006020820190508181036000830152611f1b81611edf565b9050919050565b7f55736572322077696e0000000000000000000000000000000000000000000000600082015250565b6000611f58600983611783565b9150611f6382611f22565b602082019050919050565b60006020820190508181036000830152611f8781611f4b565b9050919050565b7f55736572312077696e0000000000000000000000000000000000000000000000600082015250565b6000611fc4600983611783565b9150611fcf82611f8e565b602082019050919050565b60006020820190508181036000830152611ff381611fb7565b905091905056fea2646970667358221220897edcb5a464c409bb35e6c26675f8943eee3359fda3086865a556d7790b7a2c64736f6c63430008130033",
			"opcodes": "PUSH1 0x80 PUSH1 0x40 MSTORE PUSH1 0x1 PUSH1 0x0 SSTORE PUSH1 0x0 PUSH1 0x1 SSTORE PUSH1 0x1 PUSH1 0x4 SSTORE CALLVALUE DUP1 ISZERO PUSH2 0x1F JUMPI PUSH1 0x0 DUP1 REVERT JUMPDEST POP PUSH2 0x2030 DUP1 PUSH2 0x2F PUSH1 0x0 CODECOPY PUSH1 0x0 RETURN INVALID PUSH1 0x80 PUSH1 0x40 MSTORE CALLVALUE DUP1 ISZERO PUSH2 0x10 JUMPI PUSH1 0x0 DUP1 REVERT JUMPDEST POP PUSH1 0x4 CALLDATASIZE LT PUSH2 0x62 JUMPI PUSH1 0x0 CALLDATALOAD PUSH1 0xE0 SHR DUP1 PUSH4 0x1DB05A88 EQ PUSH2 0x67 JUMPI DUP1 PUSH4 0x512EC557 EQ PUSH2 0x83 JUMPI DUP1 PUSH4 0x76DAD223 EQ PUSH2 0xA1 JUMPI DUP1 PUSH4 0xADF496B5 EQ PUSH2 0xBF JUMPI DUP1 PUSH4 0xE16C9D59 EQ PUSH2 0xDB JUMPI DUP1 PUSH4 0xF7C4EFBB EQ PUSH2 0xF9 JUMPI JUMPDEST PUSH1 0x0 DUP1 REVERT JUMPDEST PUSH2 0x81 PUSH1 0x4 DUP1 CALLDATASIZE SUB DUP2 ADD SWAP1 PUSH2 0x7C SWAP2 SWAP1 PUSH2 0x1346 JUMP JUMPDEST PUSH2 0x129 JUMP JUMPDEST STOP JUMPDEST PUSH2 0x8B PUSH2 0x16C JUMP JUMPDEST PUSH1 0x40 MLOAD PUSH2 0x98 SWAP2 SWAP1 PUSH2 0x1594 JUMP JUMPDEST PUSH1 0x40 MLOAD DUP1 SWAP2 SUB SWAP1 RETURN JUMPDEST PUSH2 0xA9 PUSH2 0x345 JUMP JUMPDEST PUSH1 0x40 MLOAD PUSH2 0xB6 SWAP2 SWAP1 PUSH2 0x15C5 JUMP JUMPDEST PUSH1 0x40 MLOAD DUP1 SWAP2 SUB SWAP1 RETURN JUMPDEST PUSH2 0xD9 PUSH1 0x4 DUP1 CALLDATASIZE SUB DUP2 ADD SWAP1 PUSH2 0xD4 SWAP2 SWAP1 PUSH2 0x1346 JUMP JUMPDEST PUSH2 0x34B JUMP JUMPDEST STOP JUMPDEST PUSH2 0xE3 PUSH2 0x6D4 JUMP JUMPDEST PUSH1 0x40 MLOAD PUSH2 0xF0 SWAP2 SWAP1 PUSH2 0x168F JUMP JUMPDEST PUSH1 0x40 MLOAD DUP1 SWAP2 SUB SWAP1 RETURN JUMPDEST PUSH2 0x113 PUSH1 0x4 DUP1 CALLDATASIZE SUB DUP2 ADD SWAP1 PUSH2 0x10E SWAP2 SWAP1 PUSH2 0x1346 JUMP JUMPDEST PUSH2 0x793 JUMP JUMPDEST PUSH1 0x40 MLOAD PUSH2 0x120 SWAP2 SWAP1 PUSH2 0x1701 JUMP JUMPDEST PUSH1 0x40 MLOAD DUP1 SWAP2 SUB SWAP1 RETURN JUMPDEST DUP1 PUSH1 0x0 DUP2 SWAP1 SSTORE POP PUSH32 0xEBAA1540A7A2F4FD56917205A7326B45CD094B271E1C175A4C5E472967E60E84 PUSH1 0x0 SLOAD PUSH1 0x40 MLOAD PUSH2 0x161 SWAP2 SWAP1 PUSH2 0x15C5 JUMP JUMPDEST PUSH1 0x40 MLOAD DUP1 SWAP2 SUB SWAP1 LOG1 POP JUMP JUMPDEST PUSH1 0x60 PUSH1 0x2 DUP1 SLOAD DUP1 PUSH1 0x20 MUL PUSH1 0x20 ADD PUSH1 0x40 MLOAD SWAP1 DUP2 ADD PUSH1 0x40 MSTORE DUP1 SWAP3 SWAP2 SWAP1 DUP2 DUP2 MSTORE PUSH1 0x20 ADD PUSH1 0x0 SWAP1 JUMPDEST DUP3 DUP3 LT ISZERO PUSH2 0x33C JUMPI DUP4 DUP3 SWAP1 PUSH1 0x0 MSTORE PUSH1 0x20 PUSH1 0x0 KECCAK256 SWAP1 PUSH1 0x5 MUL ADD PUSH1 0x40 MLOAD DUP1 PUSH1 0x60 ADD PUSH1 0x40 MSTORE SWAP1 DUP2 PUSH1 0x0 DUP3 ADD PUSH1 0x40 MLOAD DUP1 PUSH1 0x40 ADD PUSH1 0x40 MSTORE SWAP1 DUP2 PUSH1 0x0 DUP3 ADD PUSH1 0x0 SWAP1 SLOAD SWAP1 PUSH2 0x100 EXP SWAP1 DIV PUSH20 0xFFFFFFFFFFFFFFFFFFFFFFFFFFFFFFFFFFFFFFFF AND PUSH20 0xFFFFFFFFFFFFFFFFFFFFFFFFFFFFFFFFFFFFFFFF AND PUSH20 0xFFFFFFFFFFFFFFFFFFFFFFFFFFFFFFFFFFFFFFFF AND DUP2 MSTORE PUSH1 0x20 ADD PUSH1 0x1 DUP3 ADD SLOAD DUP2 MSTORE POP POP DUP2 MSTORE PUSH1 0x20 ADD PUSH1 0x2 DUP3 ADD PUSH1 0x40 MLOAD DUP1 PUSH1 0x40 ADD PUSH1 0x40 MSTORE SWAP1 DUP2 PUSH1 0x0 DUP3 ADD PUSH1 0x0 SWAP1 SLOAD SWAP1 PUSH2 0x100 EXP SWAP1 DIV PUSH20 0xFFFFFFFFFFFFFFFFFFFFFFFFFFFFFFFFFFFFFFFF AND PUSH20 0xFFFFFFFFFFFFFFFFFFFFFFFFFFFFFFFFFFFFFFFF AND PUSH20 0xFFFFFFFFFFFFFFFFFFFFFFFFFFFFFFFFFFFFFFFF AND DUP2 MSTORE PUSH1 0x20 ADD PUSH1 0x1 DUP3 ADD SLOAD DUP2 MSTORE POP POP DUP2 MSTORE PUSH1 0x20 ADD PUSH1 0x4 DUP3 ADD DUP1 SLOAD PUSH2 0x2AB SWAP1 PUSH2 0x1752 JUMP JUMPDEST DUP1 PUSH1 0x1F ADD PUSH1 0x20 DUP1 SWAP2 DIV MUL PUSH1 0x20 ADD PUSH1 0x40 MLOAD SWAP1 DUP2 ADD PUSH1 0x40 MSTORE DUP1 SWAP3 SWAP2 SWAP1 DUP2 DUP2 MSTORE PUSH1 0x20 ADD DUP3 DUP1 SLOAD PUSH2 0x2D7 SWAP1 PUSH2 0x1752 JUMP JUMPDEST DUP1 ISZERO PUSH2 0x324 JUMPI DUP1 PUSH1 0x1F LT PUSH2 0x2F9 JUMPI PUSH2 0x100 DUP1 DUP4 SLOAD DIV MUL DUP4 MSTORE SWAP2 PUSH1 0x20 ADD SWAP2 PUSH2 0x324 JUMP JUMPDEST DUP3 ADD SWAP2 SWAP1 PUSH1 0x0 MSTORE PUSH1 0x20 PUSH1 0x0 KECCAK256 SWAP1 JUMPDEST DUP2 SLOAD DUP2 MSTORE SWAP1 PUSH1 0x1 ADD SWAP1 PUSH1 0x20 ADD DUP1 DUP4 GT PUSH2 0x307 JUMPI DUP3 SWAP1 SUB PUSH1 0x1F AND DUP3 ADD SWAP2 JUMPDEST POP POP POP POP POP DUP2 MSTORE POP POP DUP2 MSTORE PUSH1 0x20 ADD SWAP1 PUSH1 0x1 ADD SWAP1 PUSH2 0x190 JUMP JUMPDEST POP POP POP POP SWAP1 POP SWAP1 JUMP JUMPDEST PUSH1 0x0 SLOAD DUP2 JUMP JUMPDEST PUSH1 0x3 PUSH1 0x0 SWAP1 SLOAD SWAP1 PUSH2 0x100 EXP SWAP1 DIV PUSH1 0xFF AND ISZERO PUSH2 0x39B JUMPI PUSH1 0x40 MLOAD PUSH32 0x8C379A000000000000000000000000000000000000000000000000000000000 DUP2 MSTORE PUSH1 0x4 ADD PUSH2 0x392 SWAP1 PUSH2 0x17E0 JUMP JUMPDEST PUSH1 0x40 MLOAD DUP1 SWAP2 SUB SWAP1 REVERT JUMPDEST PUSH1 0x1 PUSH1 0x3 PUSH1 0x0 PUSH2 0x100 EXP DUP2 SLOAD DUP2 PUSH1 0xFF MUL NOT AND SWAP1 DUP4 ISZERO ISZERO MUL OR SWAP1 SSTORE POP CALLER PUSH20 0xFFFFFFFFFFFFFFFFFFFFFFFFFFFFFFFFFFFFFFFF AND PUSH32 0x6FD5BEA3AD79492C3055C6F6B7B37CA66D63BA4CEEF7D04DD901559AFFBE971A PUSH1 0x40 MLOAD PUSH1 0x40 MLOAD DUP1 SWAP2 SUB SWAP1 LOG2 PUSH1 0x0 DUP2 SUB PUSH2 0x43C JUMPI PUSH1 0x40 MLOAD PUSH32 0x8C379A000000000000000000000000000000000000000000000000000000000 DUP2 MSTORE PUSH1 0x4 ADD PUSH2 0x433 SWAP1 PUSH2 0x184C JUMP JUMPDEST PUSH1 0x40 MLOAD DUP1 SWAP2 SUB SWAP1 REVERT JUMPDEST PUSH1 0x3 DUP2 GT ISZERO PUSH2 0x480 JUMPI PUSH1 0x40 MLOAD PUSH32 0x8C379A000000000000000000000000000000000000000000000000000000000 DUP2 MSTORE PUSH1 0x4 ADD PUSH2 0x477 SWAP1 PUSH2 0x18B8 JUMP JUMPDEST PUSH1 0x40 MLOAD DUP1 SWAP2 SUB SWAP1 REVERT JUMPDEST PUSH1 0x0 DUP1 PUSH1 0x0 SWAP1 POP JUMPDEST PUSH1 0x5 DUP1 SLOAD SWAP1 POP DUP2 LT ISZERO PUSH2 0x566 JUMPI PUSH1 0x5 DUP2 DUP2 SLOAD DUP2 LT PUSH2 0x4A9 JUMPI PUSH2 0x4A8 PUSH2 0x18D8 JUMP JUMPDEST JUMPDEST SWAP1 PUSH1 0x0 MSTORE PUSH1 0x20 PUSH1 0x0 KECCAK256 SWAP1 PUSH1 0x2 MUL ADD PUSH1 0x0 ADD PUSH1 0x0 SWAP1 SLOAD SWAP1 PUSH2 0x100 EXP SWAP1 DIV PUSH20 0xFFFFFFFFFFFFFFFFFFFFFFFFFFFFFFFFFFFFFFFF AND PUSH20 0xFFFFFFFFFFFFFFFFFFFFFFFFFFFFFFFFFFFFFFFF AND CALLER PUSH20 0xFFFFFFFFFFFFFFFFFFFFFFFFFFFFFFFFFFFFFFFF AND SUB PUSH2 0x553 JUMPI PUSH1 0x1 SWAP2 POP DUP2 ISZERO PUSH2 0x552 JUMPI PUSH1 0x40 MLOAD PUSH32 0x8C379A000000000000000000000000000000000000000000000000000000000 DUP2 MSTORE PUSH1 0x4 ADD PUSH2 0x549 SWAP1 PUSH2 0x1979 JUMP JUMPDEST PUSH1 0x40 MLOAD DUP1 SWAP2 SUB SWAP1 REVERT JUMPDEST JUMPDEST DUP1 DUP1 PUSH2 0x55E SWAP1 PUSH2 0x19C8 JUMP JUMPDEST SWAP2 POP POP PUSH2 0x488 JUMP JUMPDEST POP PUSH2 0x56F PUSH2 0x12AE JUMP JUMPDEST PUSH1 0x5 DUP2 SWAP1 DUP1 PUSH1 0x1 DUP2 SLOAD ADD DUP1 DUP3 SSTORE DUP1 SWAP2 POP POP PUSH1 0x1 SWAP1 SUB SWAP1 PUSH1 0x0 MSTORE PUSH1 0x20 PUSH1 0x0 KECCAK256 SWAP1 PUSH1 0x2 MUL ADD PUSH1 0x0 SWAP1 SWAP2 SWAP1 SWAP2 SWAP1 SWAP2 POP PUSH1 0x0 DUP3 ADD MLOAD DUP2 PUSH1 0x0 ADD PUSH1 0x0 PUSH2 0x100 EXP DUP2 SLOAD DUP2 PUSH20 0xFFFFFFFFFFFFFFFFFFFFFFFFFFFFFFFFFFFFFFFF MUL NOT AND SWAP1 DUP4 PUSH20 0xFFFFFFFFFFFFFFFFFFFFFFFFFFFFFFFFFFFFFFFF AND MUL OR SWAP1 SSTORE POP PUSH1 0x20 DUP3 ADD MLOAD DUP2 PUSH1 0x1 ADD SSTORE POP POP CALLER PUSH1 0x5 PUSH1 0x1 PUSH1 0x5 DUP1 SLOAD SWAP1 POP PUSH2 0x603 SWAP2 SWAP1 PUSH2 0x1A10 JUMP JUMPDEST DUP2 SLOAD DUP2 LT PUSH2 0x614 JUMPI PUSH2 0x613 PUSH2 0x18D8 JUMP JUMPDEST JUMPDEST SWAP1 PUSH1 0x0 MSTORE PUSH1 0x20 PUSH1 0x0 KECCAK256 SWAP1 PUSH1 0x2 MUL ADD PUSH1 0x0 ADD PUSH1 0x0 PUSH2 0x100 EXP DUP2 SLOAD DUP2 PUSH20 0xFFFFFFFFFFFFFFFFFFFFFFFFFFFFFFFFFFFFFFFF MUL NOT AND SWAP1 DUP4 PUSH20 0xFFFFFFFFFFFFFFFFFFFFFFFFFFFFFFFFFFFFFFFF AND MUL OR SWAP1 SSTORE POP DUP3 PUSH1 0x5 PUSH1 0x1 PUSH1 0x5 DUP1 SLOAD SWAP1 POP PUSH2 0x678 SWAP2 SWAP1 PUSH2 0x1A10 JUMP JUMPDEST DUP2 SLOAD DUP2 LT PUSH2 0x689 JUMPI PUSH2 0x688 PUSH2 0x18D8 JUMP JUMPDEST JUMPDEST SWAP1 PUSH1 0x0 MSTORE PUSH1 0x20 PUSH1 0x0 KECCAK256 SWAP1 PUSH1 0x2 MUL ADD PUSH1 0x1 ADD DUP2 SWAP1 SSTORE POP PUSH1 0x6 PUSH1 0x5 DUP1 SLOAD SWAP1 POP SUB PUSH2 0x6B4 JUMPI PUSH2 0x6B3 PUSH2 0x991 JUMP JUMPDEST JUMPDEST POP POP PUSH1 0x0 PUSH1 0x3 PUSH1 0x0 PUSH2 0x100 EXP DUP2 SLOAD DUP2 PUSH1 0xFF MUL NOT AND SWAP1 DUP4 ISZERO ISZERO MUL OR SWAP1 SSTORE POP POP JUMP JUMPDEST PUSH1 0x60 PUSH1 0x5 DUP1 SLOAD DUP1 PUSH1 0x20 MUL PUSH1 0x20 ADD PUSH1 0x40 MLOAD SWAP1 DUP2 ADD PUSH1 0x40 MSTORE DUP1 SWAP3 SWAP2 SWAP1 DUP2 DUP2 MSTORE PUSH1 0x20 ADD PUSH1 0x0 SWAP1 JUMPDEST DUP3 DUP3 LT ISZERO PUSH2 0x78A JUMPI DUP4 DUP3 SWAP1 PUSH1 0x0 MSTORE PUSH1 0x20 PUSH1 0x0 KECCAK256 SWAP1 PUSH1 0x2 MUL ADD PUSH1 0x40 MLOAD DUP1 PUSH1 0x40 ADD PUSH1 0x40 MSTORE SWAP1 DUP2 PUSH1 0x0 DUP3 ADD PUSH1 0x0 SWAP1 SLOAD SWAP1 PUSH2 0x100 EXP SWAP1 DIV PUSH20 0xFFFFFFFFFFFFFFFFFFFFFFFFFFFFFFFFFFFFFFFF AND PUSH20 0xFFFFFFFFFFFFFFFFFFFFFFFFFFFFFFFFFFFFFFFF AND PUSH20 0xFFFFFFFFFFFFFFFFFFFFFFFFFFFFFFFFFFFFFFFF AND DUP2 MSTORE PUSH1 0x20 ADD PUSH1 0x1 DUP3 ADD SLOAD DUP2 MSTORE POP POP DUP2 MSTORE PUSH1 0x20 ADD SWAP1 PUSH1 0x1 ADD SWAP1 PUSH2 0x6F8 JUMP JUMPDEST POP POP POP POP SWAP1 POP SWAP1 JUMP JUMPDEST PUSH2 0x79B PUSH2 0x12DE JUMP JUMPDEST PUSH1 0x2 DUP1 SLOAD SWAP1 POP DUP3 GT ISZERO PUSH2 0x7E3 JUMPI PUSH1 0x40 MLOAD PUSH32 0x8C379A000000000000000000000000000000000000000000000000000000000 DUP2 MSTORE PUSH1 0x4 ADD PUSH2 0x7DA SWAP1 PUSH2 0x1A90 JUMP JUMPDEST PUSH1 0x40 MLOAD DUP1 SWAP2 SUB SWAP1 REVERT JUMPDEST PUSH1 0x2 DUP3 DUP2 SLOAD DUP2 LT PUSH2 0x7F7 JUMPI PUSH2 0x7F6 PUSH2 0x18D8 JUMP JUMPDEST JUMPDEST SWAP1 PUSH1 0x0 MSTORE PUSH1 0x20 PUSH1 0x0 KECCAK256 SWAP1 PUSH1 0x5 MUL ADD PUSH1 0x40 MLOAD DUP1 PUSH1 0x60 ADD PUSH1 0x40 MSTORE SWAP1 DUP2 PUSH1 0x0 DUP3 ADD PUSH1 0x40 MLOAD DUP1 PUSH1 0x40 ADD PUSH1 0x40 MSTORE SWAP1 DUP2 PUSH1 0x0 DUP3 ADD PUSH1 0x0 SWAP1 SLOAD SWAP1 PUSH2 0x100 EXP SWAP1 DIV PUSH20 0xFFFFFFFFFFFFFFFFFFFFFFFFFFFFFFFFFFFFFFFF AND PUSH20 0xFFFFFFFFFFFFFFFFFFFFFFFFFFFFFFFFFFFFFFFF AND PUSH20 0xFFFFFFFFFFFFFFFFFFFFFFFFFFFFFFFFFFFFFFFF AND DUP2 MSTORE PUSH1 0x20 ADD PUSH1 0x1 DUP3 ADD SLOAD DUP2 MSTORE POP POP DUP2 MSTORE PUSH1 0x20 ADD PUSH1 0x2 DUP3 ADD PUSH1 0x40 MLOAD DUP1 PUSH1 0x40 ADD PUSH1 0x40 MSTORE SWAP1 DUP2 PUSH1 0x0 DUP3 ADD PUSH1 0x0 SWAP1 SLOAD SWAP1 PUSH2 0x100 EXP SWAP1 DIV PUSH20 0xFFFFFFFFFFFFFFFFFFFFFFFFFFFFFFFFFFFFFFFF AND PUSH20 0xFFFFFFFFFFFFFFFFFFFFFFFFFFFFFFFFFFFFFFFF AND PUSH20 0xFFFFFFFFFFFFFFFFFFFFFFFFFFFFFFFFFFFFFFFF AND DUP2 MSTORE PUSH1 0x20 ADD PUSH1 0x1 DUP3 ADD SLOAD DUP2 MSTORE POP POP DUP2 MSTORE PUSH1 0x20 ADD PUSH1 0x4 DUP3 ADD DUP1 SLOAD PUSH2 0x908 SWAP1 PUSH2 0x1752 JUMP JUMPDEST DUP1 PUSH1 0x1F ADD PUSH1 0x20 DUP1 SWAP2 DIV MUL PUSH1 0x20 ADD PUSH1 0x40 MLOAD SWAP1 DUP2 ADD PUSH1 0x40 MSTORE DUP1 SWAP3 SWAP2 SWAP1 DUP2 DUP2 MSTORE PUSH1 0x20 ADD DUP3 DUP1 SLOAD PUSH2 0x934 SWAP1 PUSH2 0x1752 JUMP JUMPDEST DUP1 ISZERO PUSH2 0x981 JUMPI DUP1 PUSH1 0x1F LT PUSH2 0x956 JUMPI PUSH2 0x100 DUP1 DUP4 SLOAD DIV MUL DUP4 MSTORE SWAP2 PUSH1 0x20 ADD SWAP2 PUSH2 0x981 JUMP JUMPDEST DUP3 ADD SWAP2 SWAP1 PUSH1 0x0 MSTORE PUSH1 0x20 PUSH1 0x0 KECCAK256 SWAP1 JUMPDEST DUP2 SLOAD DUP2 MSTORE SWAP1 PUSH1 0x1 ADD SWAP1 PUSH1 0x20 ADD DUP1 DUP4 GT PUSH2 0x964 JUMPI DUP3 SWAP1 SUB PUSH1 0x1F AND DUP3 ADD SWAP2 JUMPDEST POP POP POP POP POP DUP2 MSTORE POP POP SWAP1 POP SWAP2 SWAP1 POP JUMP JUMPDEST JUMPDEST PUSH1 0x0 PUSH2 0x99C PUSH2 0xA01 JUMP JUMPDEST SWAP1 POP PUSH1 0x0 PUSH2 0x9A8 PUSH2 0xA01 JUMP JUMPDEST SWAP1 POP PUSH2 0x9B4 DUP3 DUP3 PUSH2 0xC69 JUMP JUMPDEST POP POP PUSH1 0x0 PUSH1 0x5 DUP1 SLOAD SWAP1 POP SUB PUSH2 0x992 JUMPI PUSH32 0x1F237084C29A99316238004A5870904571DBC9FF0D357B8B85CCEACB5512A850 PUSH1 0x5 DUP1 SLOAD SWAP1 POP PUSH1 0x40 MLOAD PUSH2 0x9F7 SWAP2 SWAP1 PUSH2 0x15C5 JUMP JUMPDEST PUSH1 0x40 MLOAD DUP1 SWAP2 SUB SWAP1 LOG1 JUMP JUMPDEST PUSH2 0xA09 PUSH2 0x12AE JUMP JUMPDEST PUSH1 0x0 PUSH1 0x5 DUP1 SLOAD SWAP1 POP GT PUSH2 0xA51 JUMPI PUSH1 0x40 MLOAD PUSH32 0x8C379A000000000000000000000000000000000000000000000000000000000 DUP2 MSTORE PUSH1 0x4 ADD PUSH2 0xA48 SWAP1 PUSH2 0x1AFC JUMP JUMPDEST PUSH1 0x40 MLOAD DUP1 SWAP2 SUB SWAP1 REVERT JUMPDEST PUSH1 0x0 PUSH1 0x5 DUP1 SLOAD SWAP1 POP PREVRANDAO TIMESTAMP PUSH1 0x4 SLOAD PUSH1 0x40 MLOAD PUSH1 0x20 ADD PUSH2 0xA70 SWAP4 SWAP3 SWAP2 SWAP1 PUSH2 0x1B3D JUMP JUMPDEST PUSH1 0x40 MLOAD PUSH1 0x20 DUP2 DUP4 SUB SUB DUP2 MSTORE SWAP1 PUSH1 0x40 MSTORE DUP1 MLOAD SWAP1 PUSH1 0x20 ADD KECCAK256 PUSH1 0x0 SHR PUSH2 0xA93 SWAP2 SWAP1 PUSH2 0x1BA9 JUMP JUMPDEST SWAP1 POP PUSH1 0x4 PUSH1 0x0 DUP2 SLOAD DUP1 SWAP3 SWAP2 SWAP1 PUSH2 0xAA8 SWAP1 PUSH2 0x19C8 JUMP JUMPDEST SWAP2 SWAP1 POP SSTORE POP PUSH1 0x0 PUSH1 0x5 DUP3 DUP2 SLOAD DUP2 LT PUSH2 0xAC3 JUMPI PUSH2 0xAC2 PUSH2 0x18D8 JUMP JUMPDEST JUMPDEST SWAP1 PUSH1 0x0 MSTORE PUSH1 0x20 PUSH1 0x0 KECCAK256 SWAP1 PUSH1 0x2 MUL ADD PUSH1 0x40 MLOAD DUP1 PUSH1 0x40 ADD PUSH1 0x40 MSTORE SWAP1 DUP2 PUSH1 0x0 DUP3 ADD PUSH1 0x0 SWAP1 SLOAD SWAP1 PUSH2 0x100 EXP SWAP1 DIV PUSH20 0xFFFFFFFFFFFFFFFFFFFFFFFFFFFFFFFFFFFFFFFF AND PUSH20 0xFFFFFFFFFFFFFFFFFFFFFFFFFFFFFFFFFFFFFFFF AND PUSH20 0xFFFFFFFFFFFFFFFFFFFFFFFFFFFFFFFFFFFFFFFF AND DUP2 MSTORE PUSH1 0x20 ADD PUSH1 0x1 DUP3 ADD SLOAD DUP2 MSTORE POP POP SWAP1 POP PUSH1 0x5 PUSH1 0x1 PUSH1 0x5 DUP1 SLOAD SWAP1 POP PUSH2 0xB52 SWAP2 SWAP1 PUSH2 0x1A10 JUMP JUMPDEST DUP2 SLOAD DUP2 LT PUSH2 0xB63 JUMPI PUSH2 0xB62 PUSH2 0x18D8 JUMP JUMPDEST JUMPDEST SWAP1 PUSH1 0x0 MSTORE PUSH1 0x20 PUSH1 0x0 KECCAK256 SWAP1 PUSH1 0x2 MUL ADD PUSH1 0x5 DUP4 DUP2 SLOAD DUP2 LT PUSH2 0xB85 JUMPI PUSH2 0xB84 PUSH2 0x18D8 JUMP JUMPDEST JUMPDEST SWAP1 PUSH1 0x0 MSTORE PUSH1 0x20 PUSH1 0x0 KECCAK256 SWAP1 PUSH1 0x2 MUL ADD PUSH1 0x0 DUP3 ADD PUSH1 0x0 SWAP1 SLOAD SWAP1 PUSH2 0x100 EXP SWAP1 DIV PUSH20 0xFFFFFFFFFFFFFFFFFFFFFFFFFFFFFFFFFFFFFFFF AND DUP2 PUSH1 0x0 ADD PUSH1 0x0 PUSH2 0x100 EXP DUP2 SLOAD DUP2 PUSH20 0xFFFFFFFFFFFFFFFFFFFFFFFFFFFFFFFFFFFFFFFF MUL NOT AND SWAP1 DUP4 PUSH20 0xFFFFFFFFFFFFFFFFFFFFFFFFFFFFFFFFFFFFFFFF AND MUL OR SWAP1 SSTORE POP PUSH1 0x1 DUP3 ADD SLOAD DUP2 PUSH1 0x1 ADD SSTORE SWAP1 POP POP PUSH1 0x5 DUP1 SLOAD DUP1 PUSH2 0xC19 JUMPI PUSH2 0xC18 PUSH2 0x1BDA JUMP JUMPDEST JUMPDEST PUSH1 0x1 SWAP1 SUB DUP2 DUP2 SWAP1 PUSH1 0x0 MSTORE PUSH1 0x20 PUSH1 0x0 KECCAK256 SWAP1 PUSH1 0x2 MUL ADD PUSH1 0x0 DUP1 DUP3 ADD PUSH1 0x0 PUSH2 0x100 EXP DUP2 SLOAD SWAP1 PUSH20 0xFFFFFFFFFFFFFFFFFFFFFFFFFFFFFFFFFFFFFFFF MUL NOT AND SWAP1 SSTORE PUSH1 0x1 DUP3 ADD PUSH1 0x0 SWAP1 SSTORE POP POP SWAP1 SSTORE DUP1 SWAP3 POP POP POP SWAP1 JUMP JUMPDEST PUSH2 0xC71 PUSH2 0x12DE JUMP JUMPDEST PUSH1 0x2 DUP2 SWAP1 DUP1 PUSH1 0x1 DUP2 SLOAD ADD DUP1 DUP3 SSTORE DUP1 SWAP2 POP POP PUSH1 0x1 SWAP1 SUB SWAP1 PUSH1 0x0 MSTORE PUSH1 0x20 PUSH1 0x0 KECCAK256 SWAP1 PUSH1 0x5 MUL ADD PUSH1 0x0 SWAP1 SWAP2 SWAP1 SWAP2 SWAP1 SWAP2 POP PUSH1 0x0 DUP3 ADD MLOAD DUP2 PUSH1 0x0 ADD PUSH1 0x0 DUP3 ADD MLOAD DUP2 PUSH1 0x0 ADD PUSH1 0x0 PUSH2 0x100 EXP DUP2 SLOAD DUP2 PUSH20 0xFFFFFFFFFFFFFFFFFFFFFFFFFFFFFFFFFFFFFFFF MUL NOT AND SWAP1 DUP4 PUSH20 0xFFFFFFFFFFFFFFFFFFFFFFFFFFFFFFFFFFFFFFFF AND MUL OR SWAP1 SSTORE POP PUSH1 0x20 DUP3 ADD MLOAD DUP2 PUSH1 0x1 ADD SSTORE POP POP PUSH1 0x20 DUP3 ADD MLOAD DUP2 PUSH1 0x2 ADD PUSH1 0x0 DUP3 ADD MLOAD DUP2 PUSH1 0x0 ADD PUSH1 0x0 PUSH2 0x100 EXP DUP2 SLOAD DUP2 PUSH20 0xFFFFFFFFFFFFFFFFFFFFFFFFFFFFFFFFFFFFFFFF MUL NOT AND SWAP1 DUP4 PUSH20 0xFFFFFFFFFFFFFFFFFFFFFFFFFFFFFFFFFFFFFFFF AND MUL OR SWAP1 SSTORE POP PUSH1 0x20 DUP3 ADD MLOAD DUP2 PUSH1 0x1 ADD SSTORE POP POP PUSH1 0x40 DUP3 ADD MLOAD DUP2 PUSH1 0x4 ADD SWAP1 DUP2 PUSH2 0xD6A SWAP2 SWAP1 PUSH2 0x1DE4 JUMP JUMPDEST POP POP POP DUP3 PUSH1 0x2 PUSH1 0x1 PUSH1 0x2 DUP1 SLOAD SWAP1 POP PUSH2 0xD82 SWAP2 SWAP1 PUSH2 0x1A10 JUMP JUMPDEST DUP2 SLOAD DUP2 LT PUSH2 0xD93 JUMPI PUSH2 0xD92 PUSH2 0x18D8 JUMP JUMPDEST JUMPDEST SWAP1 PUSH1 0x0 MSTORE PUSH1 0x20 PUSH1 0x0 KECCAK256 SWAP1 PUSH1 0x5 MUL ADD PUSH1 0x0 ADD PUSH1 0x0 DUP3 ADD MLOAD DUP2 PUSH1 0x0 ADD PUSH1 0x0 PUSH2 0x100 EXP DUP2 SLOAD DUP2 PUSH20 0xFFFFFFFFFFFFFFFFFFFFFFFFFFFFFFFFFFFFFFFF MUL NOT AND SWAP1 DUP4 PUSH20 0xFFFFFFFFFFFFFFFFFFFFFFFFFFFFFFFFFFFFFFFF AND MUL OR SWAP1 SSTORE POP PUSH1 0x20 DUP3 ADD MLOAD DUP2 PUSH1 0x1 ADD SSTORE SWAP1 POP POP DUP2 PUSH1 0x2 PUSH1 0x1 PUSH1 0x2 DUP1 SLOAD SWAP1 POP PUSH2 0xE0D SWAP2 SWAP1 PUSH2 0x1A10 JUMP JUMPDEST DUP2 SLOAD DUP2 LT PUSH2 0xE1E JUMPI PUSH2 0xE1D PUSH2 0x18D8 JUMP JUMPDEST JUMPDEST SWAP1 PUSH1 0x0 MSTORE PUSH1 0x20 PUSH1 0x0 KECCAK256 SWAP1 PUSH1 0x5 MUL ADD PUSH1 0x2 ADD PUSH1 0x0 DUP3 ADD MLOAD DUP2 PUSH1 0x0 ADD PUSH1 0x0 PUSH2 0x100 EXP DUP2 SLOAD DUP2 PUSH20 0xFFFFFFFFFFFFFFFFFFFFFFFFFFFFFFFFFFFFFFFF MUL NOT AND SWAP1 DUP4 PUSH20 0xFFFFFFFFFFFFFFFFFFFFFFFFFFFFFFFFFFFFFFFF AND MUL OR SWAP1 SSTORE POP PUSH1 0x20 DUP3 ADD MLOAD DUP2 PUSH1 0x1 ADD SSTORE SWAP1 POP POP PUSH1 0x2 PUSH1 0x1 PUSH1 0x2 DUP1 SLOAD SWAP1 POP PUSH2 0xE97 SWAP2 SWAP1 PUSH2 0x1A10 JUMP JUMPDEST DUP2 SLOAD DUP2 LT PUSH2 0xEA8 JUMPI PUSH2 0xEA7 PUSH2 0x18D8 JUMP JUMPDEST JUMPDEST SWAP1 PUSH1 0x0 MSTORE PUSH1 0x20 PUSH1 0x0 KECCAK256 SWAP1 PUSH1 0x5 MUL ADD PUSH1 0x2 ADD PUSH1 0x1 ADD SLOAD PUSH1 0x2 PUSH1 0x1 PUSH1 0x2 DUP1 SLOAD SWAP1 POP PUSH2 0xED1 SWAP2 SWAP1 PUSH2 0x1A10 JUMP JUMPDEST DUP2 SLOAD DUP2 LT PUSH2 0xEE2 JUMPI PUSH2 0xEE1 PUSH2 0x18D8 JUMP JUMPDEST JUMPDEST SWAP1 PUSH1 0x0 MSTORE PUSH1 0x20 PUSH1 0x0 KECCAK256 SWAP1 PUSH1 0x5 MUL ADD PUSH1 0x0 ADD PUSH1 0x1 ADD SLOAD SUB PUSH2 0xFAF JUMPI PUSH1 0x40 MLOAD DUP1 PUSH1 0x40 ADD PUSH1 0x40 MSTORE DUP1 PUSH1 0x4 DUP2 MSTORE PUSH1 0x20 ADD PUSH32 0x5469656400000000000000000000000000000000000000000000000000000000 DUP2 MSTORE POP PUSH1 0x2 PUSH1 0x1 PUSH1 0x2 DUP1 SLOAD SWAP1 POP PUSH2 0xF46 SWAP2 SWAP1 PUSH2 0x1A10 JUMP JUMPDEST DUP2 SLOAD DUP2 LT PUSH2 0xF57 JUMPI PUSH2 0xF56 PUSH2 0x18D8 JUMP JUMPDEST JUMPDEST SWAP1 PUSH1 0x0 MSTORE PUSH1 0x20 PUSH1 0x0 KECCAK256 SWAP1 PUSH1 0x5 MUL ADD PUSH1 0x4 ADD SWAP1 DUP2 PUSH2 0xF74 SWAP2 SWAP1 PUSH2 0x1DE4 JUMP JUMPDEST POP PUSH32 0xCDE5C32C0A45FD8AA4B65EA8003FC9DA9ACD5E2C6C24A9FCCE6AB79CABBD9122 PUSH1 0x40 MLOAD PUSH2 0xFA2 SWAP1 PUSH2 0x1F02 JUMP JUMPDEST PUSH1 0x40 MLOAD DUP1 SWAP2 SUB SWAP1 LOG1 PUSH2 0x12A9 JUMP JUMPDEST PUSH1 0x1 PUSH1 0x2 PUSH1 0x1 PUSH1 0x2 DUP1 SLOAD SWAP1 POP PUSH2 0xFC5 SWAP2 SWAP1 PUSH2 0x1A10 JUMP JUMPDEST DUP2 SLOAD DUP2 LT PUSH2 0xFD6 JUMPI PUSH2 0xFD5 PUSH2 0x18D8 JUMP JUMPDEST JUMPDEST SWAP1 PUSH1 0x0 MSTORE PUSH1 0x20 PUSH1 0x0 KECCAK256 SWAP1 PUSH1 0x5 MUL ADD PUSH1 0x0 ADD PUSH1 0x1 ADD SLOAD EQ DUP1 ISZERO PUSH2 0x1030 JUMPI POP PUSH1 0x2 DUP1 PUSH1 0x1 PUSH1 0x2 DUP1 SLOAD SWAP1 POP PUSH2 0x1008 SWAP2 SWAP1 PUSH2 0x1A10 JUMP JUMPDEST DUP2 SLOAD DUP2 LT PUSH2 0x1019 JUMPI PUSH2 0x1018 PUSH2 0x18D8 JUMP JUMPDEST JUMPDEST SWAP1 PUSH1 0x0 MSTORE PUSH1 0x20 PUSH1 0x0 KECCAK256 SWAP1 PUSH1 0x5 MUL ADD PUSH1 0x2 ADD PUSH1 0x1 ADD SLOAD EQ JUMPDEST DUP1 PUSH2 0x10B9 JUMPI POP PUSH1 0x3 PUSH1 0x2 PUSH1 0x1 PUSH1 0x2 DUP1 SLOAD SWAP1 POP PUSH2 0x104C SWAP2 SWAP1 PUSH2 0x1A10 JUMP JUMPDEST DUP2 SLOAD DUP2 LT PUSH2 0x105D JUMPI PUSH2 0x105C PUSH2 0x18D8 JUMP JUMPDEST JUMPDEST SWAP1 PUSH1 0x0 MSTORE PUSH1 0x20 PUSH1 0x0 KECCAK256 SWAP1 PUSH1 0x5 MUL ADD PUSH1 0x0 ADD PUSH1 0x1 ADD SLOAD EQ DUP1 ISZERO PUSH2 0x10B8 JUMPI POP PUSH1 0x1 PUSH1 0x2 PUSH1 0x1 PUSH1 0x2 DUP1 SLOAD SWAP1 POP PUSH2 0x1090 SWAP2 SWAP1 PUSH2 0x1A10 JUMP JUMPDEST DUP2 SLOAD DUP2 LT PUSH2 0x10A1 JUMPI PUSH2 0x10A0 PUSH2 0x18D8 JUMP JUMPDEST JUMPDEST SWAP1 PUSH1 0x0 MSTORE PUSH1 0x20 PUSH1 0x0 KECCAK256 SWAP1 PUSH1 0x5 MUL ADD PUSH1 0x2 ADD PUSH1 0x1 ADD SLOAD EQ JUMPDEST JUMPDEST DUP1 PUSH2 0x1141 JUMPI POP PUSH1 0x2 DUP1 PUSH1 0x1 PUSH1 0x2 DUP1 SLOAD SWAP1 POP PUSH2 0x10D4 SWAP2 SWAP1 PUSH2 0x1A10 JUMP JUMPDEST DUP2 SLOAD DUP2 LT PUSH2 0x10E5 JUMPI PUSH2 0x10E4 PUSH2 0x18D8 JUMP JUMPDEST JUMPDEST SWAP1 PUSH1 0x0 MSTORE PUSH1 0x20 PUSH1 0x0 KECCAK256 SWAP1 PUSH1 0x5 MUL ADD PUSH1 0x0 ADD PUSH1 0x1 ADD SLOAD EQ DUP1 ISZERO PUSH2 0x1140 JUMPI POP PUSH1 0x3 PUSH1 0x2 PUSH1 0x1 PUSH1 0x2 DUP1 SLOAD SWAP1 POP PUSH2 0x1118 SWAP2 SWAP1 PUSH2 0x1A10 JUMP JUMPDEST DUP2 SLOAD DUP2 LT PUSH2 0x1129 JUMPI PUSH2 0x1128 PUSH2 0x18D8 JUMP JUMPDEST JUMPDEST SWAP1 PUSH1 0x0 MSTORE PUSH1 0x20 PUSH1 0x0 KECCAK256 SWAP1 PUSH1 0x5 MUL ADD PUSH1 0x2 ADD PUSH1 0x1 ADD SLOAD EQ JUMPDEST JUMPDEST ISZERO PUSH2 0x11F9 JUMPI PUSH1 0x40 MLOAD DUP1 PUSH1 0x40 ADD PUSH1 0x40 MSTORE DUP1 PUSH1 0x9 DUP2 MSTORE PUSH1 0x20 ADD PUSH32 0x55736572322077696E0000000000000000000000000000000000000000000000 DUP2 MSTORE POP PUSH1 0x2 PUSH1 0x1 PUSH1 0x2 DUP1 SLOAD SWAP1 POP PUSH2 0x1190 SWAP2 SWAP1 PUSH2 0x1A10 JUMP JUMPDEST DUP2 SLOAD DUP2 LT PUSH2 0x11A1 JUMPI PUSH2 0x11A0 PUSH2 0x18D8 JUMP JUMPDEST JUMPDEST SWAP1 PUSH1 0x0 MSTORE PUSH1 0x20 PUSH1 0x0 KECCAK256 SWAP1 PUSH1 0x5 MUL ADD PUSH1 0x4 ADD SWAP1 DUP2 PUSH2 0x11BE SWAP2 SWAP1 PUSH2 0x1DE4 JUMP JUMPDEST POP PUSH32 0xCDE5C32C0A45FD8AA4B65EA8003FC9DA9ACD5E2C6C24A9FCCE6AB79CABBD9122 PUSH1 0x40 MLOAD PUSH2 0x11EC SWAP1 PUSH2 0x1F6E JUMP JUMPDEST PUSH1 0x40 MLOAD DUP1 SWAP2 SUB SWAP1 LOG1 PUSH2 0x12A8 JUMP JUMPDEST PUSH1 0x40 MLOAD DUP1 PUSH1 0x40 ADD PUSH1 0x40 MSTORE DUP1 PUSH1 0x9 DUP2 MSTORE PUSH1 0x20 ADD PUSH32 0x55736572312077696E0000000000000000000000000000000000000000000000 DUP2 MSTORE POP PUSH1 0x2 PUSH1 0x1 PUSH1 0x2 DUP1 SLOAD SWAP1 POP PUSH2 0x1243 SWAP2 SWAP1 PUSH2 0x1A10 JUMP JUMPDEST DUP2 SLOAD DUP2 LT PUSH2 0x1254 JUMPI PUSH2 0x1253 PUSH2 0x18D8 JUMP JUMPDEST JUMPDEST SWAP1 PUSH1 0x0 MSTORE PUSH1 0x20 PUSH1 0x0 KECCAK256 SWAP1 PUSH1 0x5 MUL ADD PUSH1 0x4 ADD SWAP1 DUP2 PUSH2 0x1271 SWAP2 SWAP1 PUSH2 0x1DE4 JUMP JUMPDEST POP PUSH32 0xCDE5C32C0A45FD8AA4B65EA8003FC9DA9ACD5E2C6C24A9FCCE6AB79CABBD9122 PUSH1 0x40 MLOAD PUSH2 0x129F SWAP1 PUSH2 0x1FDA JUMP JUMPDEST PUSH1 0x40 MLOAD DUP1 SWAP2 SUB SWAP1 LOG1 JUMPDEST JUMPDEST POP POP POP JUMP JUMPDEST PUSH1 0x40 MLOAD DUP1 PUSH1 0x40 ADD PUSH1 0x40 MSTORE DUP1 PUSH1 0x0 PUSH20 0xFFFFFFFFFFFFFFFFFFFFFFFFFFFFFFFFFFFFFFFF AND DUP2 MSTORE PUSH1 0x20 ADD PUSH1 0x0 DUP2 MSTORE POP SWAP1 JUMP JUMPDEST PUSH1 0x40 MLOAD DUP1 PUSH1 0x60 ADD PUSH1 0x40 MSTORE DUP1 PUSH2 0x12F1 PUSH2 0x12AE JUMP JUMPDEST DUP2 MSTORE PUSH1 0x20 ADD PUSH2 0x12FE PUSH2 0x12AE JUMP JUMPDEST DUP2 MSTORE PUSH1 0x20 ADD PUSH1 0x60 DUP2 MSTORE POP SWAP1 JUMP JUMPDEST PUSH1 0x0 DUP1 REVERT JUMPDEST PUSH1 0x0 DUP2 SWAP1 POP SWAP2 SWAP1 POP JUMP JUMPDEST PUSH2 0x1323 DUP2 PUSH2 0x1310 JUMP JUMPDEST DUP2 EQ PUSH2 0x132E JUMPI PUSH1 0x0 DUP1 REVERT JUMPDEST POP JUMP JUMPDEST PUSH1 0x0 DUP2 CALLDATALOAD SWAP1 POP PUSH2 0x1340 DUP2 PUSH2 0x131A JUMP JUMPDEST SWAP3 SWAP2 POP POP JUMP JUMPDEST PUSH1 0x0 PUSH1 0x20 DUP3 DUP5 SUB SLT ISZERO PUSH2 0x135C JUMPI PUSH2 0x135B PUSH2 0x130B JUMP JUMPDEST JUMPDEST PUSH1 0x0 PUSH2 0x136A DUP5 DUP3 DUP6 ADD PUSH2 0x1331 JUMP JUMPDEST SWAP2 POP POP SWAP3 SWAP2 POP POP JUMP JUMPDEST PUSH1 0x0 DUP2 MLOAD SWAP1 POP SWAP2 SWAP1 POP JUMP JUMPDEST PUSH1 0x0 DUP3 DUP3 MSTORE PUSH1 0x20 DUP3 ADD SWAP1 POP SWAP3 SWAP2 POP POP JUMP JUMPDEST PUSH1 0x0 DUP2 SWAP1 POP PUSH1 0x20 DUP3 ADD SWAP1 POP SWAP2 SWAP1 POP JUMP JUMPDEST PUSH1 0x0 PUSH20 0xFFFFFFFFFFFFFFFFFFFFFFFFFFFFFFFFFFFFFFFF DUP3 AND SWAP1 POP SWAP2 SWAP1 POP JUMP JUMPDEST PUSH1 0x0 PUSH2 0x13CA DUP3 PUSH2 0x139F JUMP JUMPDEST SWAP1 POP SWAP2 SWAP1 POP JUMP JUMPDEST PUSH2 0x13DA DUP2 PUSH2 0x13BF JUMP JUMPDEST DUP3 MSTORE POP POP JUMP JUMPDEST PUSH2 0x13E9 DUP2 PUSH2 0x1310 JUMP JUMPDEST DUP3 MSTORE POP POP JUMP JUMPDEST PUSH1 0x40 DUP3 ADD PUSH1 0x0 DUP3 ADD MLOAD PUSH2 0x1405 PUSH1 0x0 DUP6 ADD DUP3 PUSH2 0x13D1 JUMP JUMPDEST POP PUSH1 0x20 DUP3 ADD MLOAD PUSH2 0x1418 PUSH1 0x20 DUP6 ADD DUP3 PUSH2 0x13E0 JUMP JUMPDEST POP POP POP POP JUMP JUMPDEST PUSH1 0x0 DUP2 MLOAD SWAP1 POP SWAP2 SWAP1 POP JUMP JUMPDEST PUSH1 0x0 DUP3 DUP3 MSTORE PUSH1 0x20 DUP3 ADD SWAP1 POP SWAP3 SWAP2 POP POP JUMP JUMPDEST PUSH1 0x0 JUMPDEST DUP4 DUP2 LT ISZERO PUSH2 0x1458 JUMPI DUP1 DUP3 ADD MLOAD DUP2 DUP5 ADD MSTORE PUSH1 0x20 DUP2 ADD SWAP1 POP PUSH2 0x143D JUMP JUMPDEST PUSH1 0x0 DUP5 DUP5 ADD MSTORE POP POP POP POP JUMP JUMPDEST PUSH1 0x0 PUSH1 0x1F NOT PUSH1 0x1F DUP4 ADD AND SWAP1 POP SWAP2 SWAP1 POP JUMP JUMPDEST PUSH1 0x0 PUSH2 0x1480 DUP3 PUSH2 0x141E JUMP JUMPDEST PUSH2 0x148A DUP2 DUP6 PUSH2 0x1429 JUMP JUMPDEST SWAP4 POP PUSH2 0x149A DUP2 DUP6 PUSH1 0x20 DUP7 ADD PUSH2 0x143A JUMP JUMPDEST PUSH2 0x14A3 DUP2 PUSH2 0x1464 JUMP JUMPDEST DUP5 ADD SWAP2 POP POP SWAP3 SWAP2 POP POP JUMP JUMPDEST PUSH1 0x0 PUSH1 0xA0 DUP4 ADD PUSH1 0x0 DUP4 ADD MLOAD PUSH2 0x14C6 PUSH1 0x0 DUP7 ADD DUP3 PUSH2 0x13EF JUMP JUMPDEST POP PUSH1 0x20 DUP4 ADD MLOAD PUSH2 0x14D9 PUSH1 0x40 DUP7 ADD DUP3 PUSH2 0x13EF JUMP JUMPDEST POP PUSH1 0x40 DUP4 ADD MLOAD DUP5 DUP3 SUB PUSH1 0x80 DUP7 ADD MSTORE PUSH2 0x14F1 DUP3 DUP3 PUSH2 0x1475 JUMP JUMPDEST SWAP2 POP POP DUP1 SWAP2 POP POP SWAP3 SWAP2 POP POP JUMP JUMPDEST PUSH1 0x0 PUSH2 0x150A DUP4 DUP4 PUSH2 0x14AE JUMP JUMPDEST SWAP1 POP SWAP3 SWAP2 POP POP JUMP JUMPDEST PUSH1 0x0 PUSH1 0x20 DUP3 ADD SWAP1 POP SWAP2 SWAP1 POP JUMP JUMPDEST PUSH1 0x0 PUSH2 0x152A DUP3 PUSH2 0x1373 JUMP JUMPDEST PUSH2 0x1534 DUP2 DUP6 PUSH2 0x137E JUMP JUMPDEST SWAP4 POP DUP4 PUSH1 0x20 DUP3 MUL DUP6 ADD PUSH2 0x1546 DUP6 PUSH2 0x138F JUMP JUMPDEST DUP1 PUSH1 0x0 JUMPDEST DUP6 DUP2 LT ISZERO PUSH2 0x1582 JUMPI DUP5 DUP5 SUB DUP10 MSTORE DUP2 MLOAD PUSH2 0x1563 DUP6 DUP3 PUSH2 0x14FE JUMP JUMPDEST SWAP5 POP PUSH2 0x156E DUP4 PUSH2 0x1512 JUMP JUMPDEST SWAP3 POP PUSH1 0x20 DUP11 ADD SWAP10 POP POP PUSH1 0x1 DUP2 ADD SWAP1 POP PUSH2 0x154A JUMP JUMPDEST POP DUP3 SWAP8 POP DUP8 SWAP6 POP POP POP POP POP POP SWAP3 SWAP2 POP POP JUMP JUMPDEST PUSH1 0x0 PUSH1 0x20 DUP3 ADD SWAP1 POP DUP2 DUP2 SUB PUSH1 0x0 DUP4 ADD MSTORE PUSH2 0x15AE DUP2 DUP5 PUSH2 0x151F JUMP JUMPDEST SWAP1 POP SWAP3 SWAP2 POP POP JUMP JUMPDEST PUSH2 0x15BF DUP2 PUSH2 0x1310 JUMP JUMPDEST DUP3 MSTORE POP POP JUMP JUMPDEST PUSH1 0x0 PUSH1 0x20 DUP3 ADD SWAP1 POP PUSH2 0x15DA PUSH1 0x0 DUP4 ADD DUP5 PUSH2 0x15B6 JUMP JUMPDEST SWAP3 SWAP2 POP POP JUMP JUMPDEST PUSH1 0x0 DUP2 MLOAD SWAP1 POP SWAP2 SWAP1 POP JUMP JUMPDEST PUSH1 0x0 DUP3 DUP3 MSTORE PUSH1 0x20 DUP3 ADD SWAP1 POP SWAP3 SWAP2 POP POP JUMP JUMPDEST PUSH1 0x0 DUP2 SWAP1 POP PUSH1 0x20 DUP3 ADD SWAP1 POP SWAP2 SWAP1 POP JUMP JUMPDEST PUSH1 0x0 PUSH2 0x1618 DUP4 DUP4 PUSH2 0x13EF JUMP JUMPDEST PUSH1 0x40 DUP4 ADD SWAP1 POP SWAP3 SWAP2 POP POP JUMP JUMPDEST PUSH1 0x0 PUSH1 0x20 DUP3 ADD SWAP1 POP SWAP2 SWAP1 POP JUMP JUMPDEST PUSH1 0x0 PUSH2 0x163C DUP3 PUSH2 0x15E0 JUMP JUMPDEST PUSH2 0x1646 DUP2 DUP6 PUSH2 0x15EB JUMP JUMPDEST SWAP4 POP PUSH2 0x1651 DUP4 PUSH2 0x15FC JUMP JUMPDEST DUP1 PUSH1 0x0 JUMPDEST DUP4 DUP2 LT ISZERO PUSH2 0x1682 JUMPI DUP2 MLOAD PUSH2 0x1669 DUP9 DUP3 PUSH2 0x160C JUMP JUMPDEST SWAP8 POP PUSH2 0x1674 DUP4 PUSH2 0x1624 JUMP JUMPDEST SWAP3 POP POP PUSH1 0x1 DUP2 ADD SWAP1 POP PUSH2 0x1655 JUMP JUMPDEST POP DUP6 SWAP4 POP POP POP POP SWAP3 SWAP2 POP POP JUMP JUMPDEST PUSH1 0x0 PUSH1 0x20 DUP3 ADD SWAP1 POP DUP2 DUP2 SUB PUSH1 0x0 DUP4 ADD MSTORE PUSH2 0x16A9 DUP2 DUP5 PUSH2 0x1631 JUMP JUMPDEST SWAP1 POP SWAP3 SWAP2 POP POP JUMP JUMPDEST PUSH1 0x0 PUSH1 0xA0 DUP4 ADD PUSH1 0x0 DUP4 ADD MLOAD PUSH2 0x16C9 PUSH1 0x0 DUP7 ADD DUP3 PUSH2 0x13EF JUMP JUMPDEST POP PUSH1 0x20 DUP4 ADD MLOAD PUSH2 0x16DC PUSH1 0x40 DUP7 ADD DUP3 PUSH2 0x13EF JUMP JUMPDEST POP PUSH1 0x40 DUP4 ADD MLOAD DUP5 DUP3 SUB PUSH1 0x80 DUP7 ADD MSTORE PUSH2 0x16F4 DUP3 DUP3 PUSH2 0x1475 JUMP JUMPDEST SWAP2 POP POP DUP1 SWAP2 POP POP SWAP3 SWAP2 POP POP JUMP JUMPDEST PUSH1 0x0 PUSH1 0x20 DUP3 ADD SWAP1 POP DUP2 DUP2 SUB PUSH1 0x0 DUP4 ADD MSTORE PUSH2 0x171B DUP2 DUP5 PUSH2 0x16B1 JUMP JUMPDEST SWAP1 POP SWAP3 SWAP2 POP POP JUMP JUMPDEST PUSH32 0x4E487B7100000000000000000000000000000000000000000000000000000000 PUSH1 0x0 MSTORE PUSH1 0x22 PUSH1 0x4 MSTORE PUSH1 0x24 PUSH1 0x0 REVERT JUMPDEST PUSH1 0x0 PUSH1 0x2 DUP3 DIV SWAP1 POP PUSH1 0x1 DUP3 AND DUP1 PUSH2 0x176A JUMPI PUSH1 0x7F DUP3 AND SWAP2 POP JUMPDEST PUSH1 0x20 DUP3 LT DUP2 SUB PUSH2 0x177D JUMPI PUSH2 0x177C PUSH2 0x1723 JUMP JUMPDEST JUMPDEST POP SWAP2 SWAP1 POP JUMP JUMPDEST PUSH1 0x0 DUP3 DUP3 MSTORE PUSH1 0x20 DUP3 ADD SWAP1 POP SWAP3 SWAP2 POP POP JUMP JUMPDEST PUSH32 0x4572726F723A205265656E7472616E742063616C6C0000000000000000000000 PUSH1 0x0 DUP3 ADD MSTORE POP JUMP JUMPDEST PUSH1 0x0 PUSH2 0x17CA PUSH1 0x15 DUP4 PUSH2 0x1783 JUMP JUMPDEST SWAP2 POP PUSH2 0x17D5 DUP3 PUSH2 0x1794 JUMP JUMPDEST PUSH1 0x20 DUP3 ADD SWAP1 POP SWAP2 SWAP1 POP JUMP JUMPDEST PUSH1 0x0 PUSH1 0x20 DUP3 ADD SWAP1 POP DUP2 DUP2 SUB PUSH1 0x0 DUP4 ADD MSTORE PUSH2 0x17F9 DUP2 PUSH2 0x17BD JUMP JUMPDEST SWAP1 POP SWAP2 SWAP1 POP JUMP JUMPDEST PUSH32 0x4572726F723A2043616E277420696E7075742030000000000000000000000000 PUSH1 0x0 DUP3 ADD MSTORE POP JUMP JUMPDEST PUSH1 0x0 PUSH2 0x1836 PUSH1 0x14 DUP4 PUSH2 0x1783 JUMP JUMPDEST SWAP2 POP PUSH2 0x1841 DUP3 PUSH2 0x1800 JUMP JUMPDEST PUSH1 0x20 DUP3 ADD SWAP1 POP SWAP2 SWAP1 POP JUMP JUMPDEST PUSH1 0x0 PUSH1 0x20 DUP3 ADD SWAP1 POP DUP2 DUP2 SUB PUSH1 0x0 DUP4 ADD MSTORE PUSH2 0x1865 DUP2 PUSH2 0x1829 JUMP JUMPDEST SWAP1 POP SWAP2 SWAP1 POP JUMP JUMPDEST PUSH32 0x4572726F723A2043616E277420696E707574206D6F7265207468616E20330000 PUSH1 0x0 DUP3 ADD MSTORE POP JUMP JUMPDEST PUSH1 0x0 PUSH2 0x18A2 PUSH1 0x1E DUP4 PUSH2 0x1783 JUMP JUMPDEST SWAP2 POP PUSH2 0x18AD DUP3 PUSH2 0x186C JUMP JUMPDEST PUSH1 0x20 DUP3 ADD SWAP1 POP SWAP2 SWAP1 POP JUMP JUMPDEST PUSH1 0x0 PUSH1 0x20 DUP3 ADD SWAP1 POP DUP2 DUP2 SUB PUSH1 0x0 DUP4 ADD MSTORE PUSH2 0x18D1 DUP2 PUSH2 0x1895 JUMP JUMPDEST SWAP1 POP SWAP2 SWAP1 POP JUMP JUMPDEST PUSH32 0x4E487B7100000000000000000000000000000000000000000000000000000000 PUSH1 0x0 MSTORE PUSH1 0x32 PUSH1 0x4 MSTORE PUSH1 0x24 PUSH1 0x0 REVERT JUMPDEST PUSH32 0x4572726F723A20596F7520616C726561647920696E207468652071756575652C PUSH1 0x0 DUP3 ADD MSTORE PUSH32 0x207761697420666F72206F7468657220706C6179206A6F696E00000000000000 PUSH1 0x20 DUP3 ADD MSTORE POP JUMP JUMPDEST PUSH1 0x0 PUSH2 0x1963 PUSH1 0x39 DUP4 PUSH2 0x1783 JUMP JUMPDEST SWAP2 POP PUSH2 0x196E DUP3 PUSH2 0x1907 JUMP JUMPDEST PUSH1 0x40 DUP3 ADD SWAP1 POP SWAP2 SWAP1 POP JUMP JUMPDEST PUSH1 0x0 PUSH1 0x20 DUP3 ADD SWAP1 POP DUP2 DUP2 SUB PUSH1 0x0 DUP4 ADD MSTORE PUSH2 0x1992 DUP2 PUSH2 0x1956 JUMP JUMPDEST SWAP1 POP SWAP2 SWAP1 POP JUMP JUMPDEST PUSH32 0x4E487B7100000000000000000000000000000000000000000000000000000000 PUSH1 0x0 MSTORE PUSH1 0x11 PUSH1 0x4 MSTORE PUSH1 0x24 PUSH1 0x0 REVERT JUMPDEST PUSH1 0x0 PUSH2 0x19D3 DUP3 PUSH2 0x1310 JUMP JUMPDEST SWAP2 POP PUSH32 0xFFFFFFFFFFFFFFFFFFFFFFFFFFFFFFFFFFFFFFFFFFFFFFFFFFFFFFFFFFFFFFFF DUP3 SUB PUSH2 0x1A05 JUMPI PUSH2 0x1A04 PUSH2 0x1999 JUMP JUMPDEST JUMPDEST PUSH1 0x1 DUP3 ADD SWAP1 POP SWAP2 SWAP1 POP JUMP JUMPDEST PUSH1 0x0 PUSH2 0x1A1B DUP3 PUSH2 0x1310 JUMP JUMPDEST SWAP2 POP PUSH2 0x1A26 DUP4 PUSH2 0x1310 JUMP JUMPDEST SWAP3 POP DUP3 DUP3 SUB SWAP1 POP DUP2 DUP2 GT ISZERO PUSH2 0x1A3E JUMPI PUSH2 0x1A3D PUSH2 0x1999 JUMP JUMPDEST JUMPDEST SWAP3 SWAP2 POP POP JUMP JUMPDEST PUSH32 0x4572726F723A20496E76616C6964206C656E6774680000000000000000000000 PUSH1 0x0 DUP3 ADD MSTORE POP JUMP JUMPDEST PUSH1 0x0 PUSH2 0x1A7A PUSH1 0x15 DUP4 PUSH2 0x1783 JUMP JUMPDEST SWAP2 POP PUSH2 0x1A85 DUP3 PUSH2 0x1A44 JUMP JUMPDEST PUSH1 0x20 DUP3 ADD SWAP1 POP SWAP2 SWAP1 POP JUMP JUMPDEST PUSH1 0x0 PUSH1 0x20 DUP3 ADD SWAP1 POP DUP2 DUP2 SUB PUSH1 0x0 DUP4 ADD MSTORE PUSH2 0x1AA9 DUP2 PUSH2 0x1A6D JUMP JUMPDEST SWAP1 POP SWAP2 SWAP1 POP JUMP JUMPDEST PUSH32 0x417272617920697320656D707479000000000000000000000000000000000000 PUSH1 0x0 DUP3 ADD MSTORE POP JUMP JUMPDEST PUSH1 0x0 PUSH2 0x1AE6 PUSH1 0xE DUP4 PUSH2 0x1783 JUMP JUMPDEST SWAP2 POP PUSH2 0x1AF1 DUP3 PUSH2 0x1AB0 JUMP JUMPDEST PUSH1 0x20 DUP3 ADD SWAP1 POP SWAP2 SWAP1 POP JUMP JUMPDEST PUSH1 0x0 PUSH1 0x20 DUP3 ADD SWAP1 POP DUP2 DUP2 SUB PUSH1 0x0 DUP4 ADD MSTORE PUSH2 0x1B15 DUP2 PUSH2 0x1AD9 JUMP JUMPDEST SWAP1 POP SWAP2 SWAP1 POP JUMP JUMPDEST PUSH1 0x0 DUP2 SWAP1 POP SWAP2 SWAP1 POP JUMP JUMPDEST PUSH2 0x1B37 PUSH2 0x1B32 DUP3 PUSH2 0x1310 JUMP JUMPDEST PUSH2 0x1B1C JUMP JUMPDEST DUP3 MSTORE POP POP JUMP JUMPDEST PUSH1 0x0 PUSH2 0x1B49 DUP3 DUP7 PUSH2 0x1B26 JUMP JUMPDEST PUSH1 0x20 DUP3 ADD SWAP2 POP PUSH2 0x1B59 DUP3 DUP6 PUSH2 0x1B26 JUMP JUMPDEST PUSH1 0x20 DUP3 ADD SWAP2 POP PUSH2 0x1B69 DUP3 DUP5 PUSH2 0x1B26 JUMP JUMPDEST PUSH1 0x20 DUP3 ADD SWAP2 POP DUP2 SWAP1 POP SWAP5 SWAP4 POP POP POP POP JUMP JUMPDEST PUSH32 0x4E487B7100000000000000000000000000000000000000000000000000000000 PUSH1 0x0 MSTORE PUSH1 0x12 PUSH1 0x4 MSTORE PUSH1 0x24 PUSH1 0x0 REVERT JUMPDEST PUSH1 0x0 PUSH2 0x1BB4 DUP3 PUSH2 0x1310 JUMP JUMPDEST SWAP2 POP PUSH2 0x1BBF DUP4 PUSH2 0x1310 JUMP JUMPDEST SWAP3 POP DUP3 PUSH2 0x1BCF JUMPI PUSH2 0x1BCE PUSH2 0x1B7A JUMP JUMPDEST JUMPDEST DUP3 DUP3 MOD SWAP1 POP SWAP3 SWAP2 POP POP JUMP JUMPDEST PUSH32 0x4E487B7100000000000000000000000000000000000000000000000000000000 PUSH1 0x0 MSTORE PUSH1 0x31 PUSH1 0x4 MSTORE PUSH1 0x24 PUSH1 0x0 REVERT JUMPDEST PUSH32 0x4E487B7100000000000000000000000000000000000000000000000000000000 PUSH1 0x0 MSTORE PUSH1 0x41 PUSH1 0x4 MSTORE PUSH1 0x24 PUSH1 0x0 REVERT JUMPDEST PUSH1 0x0 DUP2 SWAP1 POP DUP2 PUSH1 0x0 MSTORE PUSH1 0x20 PUSH1 0x0 KECCAK256 SWAP1 POP SWAP2 SWAP1 POP JUMP JUMPDEST PUSH1 0x0 PUSH1 0x20 PUSH1 0x1F DUP4 ADD DIV SWAP1 POP SWAP2 SWAP1 POP JUMP JUMPDEST PUSH1 0x0 DUP3 DUP3 SHL SWAP1 POP SWAP3 SWAP2 POP POP JUMP JUMPDEST PUSH1 0x0 PUSH1 0x8 DUP4 MUL PUSH2 0x1C9A PUSH32 0xFFFFFFFFFFFFFFFFFFFFFFFFFFFFFFFFFFFFFFFFFFFFFFFFFFFFFFFFFFFFFFFF DUP3 PUSH2 0x1C5D JUMP JUMPDEST PUSH2 0x1CA4 DUP7 DUP4 PUSH2 0x1C5D JUMP JUMPDEST SWAP6 POP DUP1 NOT DUP5 AND SWAP4 POP DUP1 DUP7 AND DUP5 OR SWAP3 POP POP POP SWAP4 SWAP3 POP POP POP JUMP JUMPDEST PUSH1 0x0 DUP2 SWAP1 POP SWAP2 SWAP1 POP JUMP JUMPDEST PUSH1 0x0 PUSH2 0x1CE1 PUSH2 0x1CDC PUSH2 0x1CD7 DUP5 PUSH2 0x1310 JUMP JUMPDEST PUSH2 0x1CBC JUMP JUMPDEST PUSH2 0x1310 JUMP JUMPDEST SWAP1 POP SWAP2 SWAP1 POP JUMP JUMPDEST PUSH1 0x0 DUP2 SWAP1 POP SWAP2 SWAP1 POP JUMP JUMPDEST PUSH2 0x1CFB DUP4 PUSH2 0x1CC6 JUMP JUMPDEST PUSH2 0x1D0F PUSH2 0x1D07 DUP3 PUSH2 0x1CE8 JUMP JUMPDEST DUP5 DUP5 SLOAD PUSH2 0x1C6A JUMP JUMPDEST DUP3 SSTORE POP POP POP POP JUMP JUMPDEST PUSH1 0x0 SWAP1 JUMP JUMPDEST PUSH2 0x1D24 PUSH2 0x1D17 JUMP JUMPDEST PUSH2 0x1D2F DUP2 DUP5 DUP5 PUSH2 0x1CF2 JUMP JUMPDEST POP POP POP JUMP JUMPDEST JUMPDEST DUP2 DUP2 LT ISZERO PUSH2 0x1D53 JUMPI PUSH2 0x1D48 PUSH1 0x0 DUP3 PUSH2 0x1D1C JUMP JUMPDEST PUSH1 0x1 DUP2 ADD SWAP1 POP PUSH2 0x1D35 JUMP JUMPDEST POP POP JUMP JUMPDEST PUSH1 0x1F DUP3 GT ISZERO PUSH2 0x1D98 JUMPI PUSH2 0x1D69 DUP2 PUSH2 0x1C38 JUMP JUMPDEST PUSH2 0x1D72 DUP5 PUSH2 0x1C4D JUMP JUMPDEST DUP2 ADD PUSH1 0x20 DUP6 LT ISZERO PUSH2 0x1D81 JUMPI DUP2 SWAP1 POP JUMPDEST PUSH2 0x1D95 PUSH2 0x1D8D DUP6 PUSH2 0x1C4D JUMP JUMPDEST DUP4 ADD DUP3 PUSH2 0x1D34 JUMP JUMPDEST POP POP JUMPDEST POP POP POP JUMP JUMPDEST PUSH1 0x0 DUP3 DUP3 SHR SWAP1 POP SWAP3 SWAP2 POP POP JUMP JUMPDEST PUSH1 0x0 PUSH2 0x1DBB PUSH1 0x0 NOT DUP5 PUSH1 0x8 MUL PUSH2 0x1D9D JUMP JUMPDEST NOT DUP1 DUP4 AND SWAP2 POP POP SWAP3 SWAP2 POP POP JUMP JUMPDEST PUSH1 0x0 PUSH2 0x1DD4 DUP4 DUP4 PUSH2 0x1DAA JUMP JUMPDEST SWAP2 POP DUP3 PUSH1 0x2 MUL DUP3 OR SWAP1 POP SWAP3 SWAP2 POP POP JUMP JUMPDEST PUSH2 0x1DED DUP3 PUSH2 0x141E JUMP JUMPDEST PUSH8 0xFFFFFFFFFFFFFFFF DUP2 GT ISZERO PUSH2 0x1E06 JUMPI PUSH2 0x1E05 PUSH2 0x1C09 JUMP JUMPDEST JUMPDEST PUSH2 0x1E10 DUP3 SLOAD PUSH2 0x1752 JUMP JUMPDEST PUSH2 0x1E1B DUP3 DUP3 DUP6 PUSH2 0x1D57 JUMP JUMPDEST PUSH1 0x0 PUSH1 0x20 SWAP1 POP PUSH1 0x1F DUP4 GT PUSH1 0x1 DUP2 EQ PUSH2 0x1E4E JUMPI PUSH1 0x0 DUP5 ISZERO PUSH2 0x1E3C JUMPI DUP3 DUP8 ADD MLOAD SWAP1 POP JUMPDEST PUSH2 0x1E46 DUP6 DUP3 PUSH2 0x1DC8 JUMP JUMPDEST DUP7 SSTORE POP PUSH2 0x1EAE JUMP JUMPDEST PUSH1 0x1F NOT DUP5 AND PUSH2 0x1E5C DUP7 PUSH2 0x1C38 JUMP JUMPDEST PUSH1 0x0 JUMPDEST DUP3 DUP2 LT ISZERO PUSH2 0x1E84 JUMPI DUP5 DUP10 ADD MLOAD DUP3 SSTORE PUSH1 0x1 DUP3 ADD SWAP2 POP PUSH1 0x20 DUP6 ADD SWAP5 POP PUSH1 0x20 DUP2 ADD SWAP1 POP PUSH2 0x1E5F JUMP JUMPDEST DUP7 DUP4 LT ISZERO PUSH2 0x1EA1 JUMPI DUP5 DUP10 ADD MLOAD PUSH2 0x1E9D PUSH1 0x1F DUP10 AND DUP3 PUSH2 0x1DAA JUMP JUMPDEST DUP4 SSTORE POP JUMPDEST PUSH1 0x1 PUSH1 0x2 DUP9 MUL ADD DUP9 SSTORE POP POP POP JUMPDEST POP POP POP POP POP POP JUMP JUMPDEST PUSH32 0x5469656400000000000000000000000000000000000000000000000000000000 PUSH1 0x0 DUP3 ADD MSTORE POP JUMP JUMPDEST PUSH1 0x0 PUSH2 0x1EEC PUSH1 0x4 DUP4 PUSH2 0x1783 JUMP JUMPDEST SWAP2 POP PUSH2 0x1EF7 DUP3 PUSH2 0x1EB6 JUMP JUMPDEST PUSH1 0x20 DUP3 ADD SWAP1 POP SWAP2 SWAP1 POP JUMP JUMPDEST PUSH1 0x0 PUSH1 0x20 DUP3 ADD SWAP1 POP DUP2 DUP2 SUB PUSH1 0x0 DUP4 ADD MSTORE PUSH2 0x1F1B DUP2 PUSH2 0x1EDF JUMP JUMPDEST SWAP1 POP SWAP2 SWAP1 POP JUMP JUMPDEST PUSH32 0x55736572322077696E0000000000000000000000000000000000000000000000 PUSH1 0x0 DUP3 ADD MSTORE POP JUMP JUMPDEST PUSH1 0x0 PUSH2 0x1F58 PUSH1 0x9 DUP4 PUSH2 0x1783 JUMP JUMPDEST SWAP2 POP PUSH2 0x1F63 DUP3 PUSH2 0x1F22 JUMP JUMPDEST PUSH1 0x20 DUP3 ADD SWAP1 POP SWAP2 SWAP1 POP JUMP JUMPDEST PUSH1 0x0 PUSH1 0x20 DUP3 ADD SWAP1 POP DUP2 DUP2 SUB PUSH1 0x0 DUP4 ADD MSTORE PUSH2 0x1F87 DUP2 PUSH2 0x1F4B JUMP JUMPDEST SWAP1 POP SWAP2 SWAP1 POP JUMP JUMPDEST PUSH32 0x55736572312077696E0000000000000000000000000000000000000000000000 PUSH1 0x0 DUP3 ADD MSTORE POP JUMP JUMPDEST PUSH1 0x0 PUSH2 0x1FC4 PUSH1 0x9 DUP4 PUSH2 0x1783 JUMP JUMPDEST SWAP2 POP PUSH2 0x1FCF DUP3 PUSH2 0x1F8E JUMP JUMPDEST PUSH1 0x20 DUP3 ADD SWAP1 POP SWAP2 SWAP1 POP JUMP JUMPDEST PUSH1 0x0 PUSH1 0x20 DUP3 ADD SWAP1 POP DUP2 DUP2 SUB PUSH1 0x0 DUP4 ADD MSTORE PUSH2 0x1FF3 DUP2 PUSH2 0x1FB7 JUMP JUMPDEST SWAP1 POP SWAP2 SWAP1 POP JUMP INVALID LOG2 PUSH5 0x6970667358 0x22 SLT KECCAK256 DUP10 PUSH31 0xDCB5A464C409BB35E6C26675F8943EEE3359FDA3086865A556D7790B7A2C64 PUSH20 0x6F6C634300081300330000000000000000000000 "
		},
		"gasEstimates": {
			"creation": {
				"codeDepositCost": "1648000",
				"executionCost": "50947",
				"totalCost": "1698947"
			},
			"external": {
				"getGameHistory()": "infinite",
				"getSpecificGameHistory(uint256)": "infinite",
				"getUserOption(uint256)": "infinite",
				"showNumber()": "2451",
				"showWaitingPoll()": "infinite",
				"updateNumber(uint256)": "infinite"
			},
			"internal": {
				"ChooseRandomUser()": "infinite",
				"choosePlayerPlay()": "infinite",
				"game(struct RockPaperScissors.UserInfo memory,struct RockPaperScissors.UserInfo memory)": "infinite"
			}
		},
		"methodIdentifiers": {
			"getGameHistory()": "512ec557",
			"getSpecificGameHistory(uint256)": "f7c4efbb",
			"getUserOption(uint256)": "adf496b5",
			"showNumber()": "76dad223",
			"showWaitingPoll()": "e16c9d59",
			"updateNumber(uint256)": "1db05a88"
		}
	},
	"abi": [
		{
			"anonymous": false,
			"inputs": [
				{
					"indexed": false,
					"internalType": "uint256",
					"name": "",
					"type": "uint256"
				}
			],
			"name": "showArraylenght",
			"type": "event"
		},
		{
			"anonymous": false,
			"inputs": [
				{
					"indexed": false,
					"internalType": "uint256",
					"name": "currentNumber",
					"type": "uint256"
				}
			],
			"name": "showCurrentNumber",
			"type": "event"
		},
		{
			"anonymous": false,
			"inputs": [
				{
					"indexed": false,
					"internalType": "string",
					"name": "",
					"type": "string"
				}
			],
			"name": "showError",
			"type": "event"
		},
		{
			"anonymous": false,
			"inputs": [
				{
					"indexed": false,
					"internalType": "string",
					"name": "logResult",
					"type": "string"
				}
			],
			"name": "showResult",
			"type": "event"
		},
		{
			"anonymous": false,
			"inputs": [
				{
					"indexed": true,
					"internalType": "address",
					"name": "logUserAddress",
					"type": "address"
				}
			],
			"name": "showUserAddress",
			"type": "event"
		},
		{
			"inputs": [],
			"name": "getGameHistory",
			"outputs": [
				{
					"components": [
						{
							"components": [
								{
									"internalType": "address",
									"name": "userAddress",
									"type": "address"
								},
								{
									"internalType": "uint256",
									"name": "userOption",
									"type": "uint256"
								}
							],
							"internalType": "struct RockPaperScissors.UserInfo",
							"name": "user1",
							"type": "tuple"
						},
						{
							"components": [
								{
									"internalType": "address",
									"name": "userAddress",
									"type": "address"
								},
								{
									"internalType": "uint256",
									"name": "userOption",
									"type": "uint256"
								}
							],
							"internalType": "struct RockPaperScissors.UserInfo",
							"name": "user2",
							"type": "tuple"
						},
						{
							"internalType": "string",
							"name": "finalResult",
							"type": "string"
						}
					],
					"internalType": "struct RockPaperScissors.GameInfo[]",
					"name": "",
					"type": "tuple[]"
				}
			],
			"stateMutability": "view",
			"type": "function"
		},
		{
			"inputs": [
				{
					"internalType": "uint256",
					"name": "index",
					"type": "uint256"
				}
			],
			"name": "getSpecificGameHistory",
			"outputs": [
				{
					"components": [
						{
							"components": [
								{
									"internalType": "address",
									"name": "userAddress",
									"type": "address"
								},
								{
									"internalType": "uint256",
									"name": "userOption",
									"type": "uint256"
								}
							],
							"internalType": "struct RockPaperScissors.UserInfo",
							"name": "user1",
							"type": "tuple"
						},
						{
							"components": [
								{
									"internalType": "address",
									"name": "userAddress",
									"type": "address"
								},
								{
									"internalType": "uint256",
									"name": "userOption",
									"type": "uint256"
								}
							],
							"internalType": "struct RockPaperScissors.UserInfo",
							"name": "user2",
							"type": "tuple"
						},
						{
							"internalType": "string",
							"name": "finalResult",
							"type": "string"
						}
					],
					"internalType": "struct RockPaperScissors.GameInfo",
					"name": "",
					"type": "tuple"
				}
			],
			"stateMutability": "view",
			"type": "function"
		},
		{
			"inputs": [
				{
					"internalType": "uint256",
					"name": "option",
					"type": "uint256"
				}
			],
			"name": "getUserOption",
			"outputs": [],
			"stateMutability": "nonpayable",
			"type": "function"
		},
		{
			"inputs": [],
			"name": "showNumber",
			"outputs": [
				{
					"internalType": "uint256",
					"name": "",
					"type": "uint256"
				}
			],
			"stateMutability": "view",
			"type": "function"
		},
		{
			"inputs": [],
			"name": "showWaitingPoll",
			"outputs": [
				{
					"components": [
						{
							"internalType": "address",
							"name": "userAddress",
							"type": "address"
						},
						{
							"internalType": "uint256",
							"name": "userOption",
							"type": "uint256"
						}
					],
					"internalType": "struct RockPaperScissors.UserInfo[]",
					"name": "",
					"type": "tuple[]"
				}
			],
			"stateMutability": "view",
			"type": "function"
		},
		{
			"inputs": [
				{
					"internalType": "uint256",
					"name": "_number",
					"type": "uint256"
				}
			],
			"name": "updateNumber",
			"outputs": [],
			"stateMutability": "nonpayable",
			"type": "function"
		}
	]
}