{
	"data": {
		"bytecode": {
			"linkReferences": {},
			"object": "608060405234801561001057600080fd5b50610360806100206000396000f3fe608060405234801561001057600080fd5b50600436106100575760003560e01c80633bc0961c1461005c578063669997bc1461007157806381c7373a1461008f578063b2e43e15146100a6578063f054c589146100af575b600080fd5b61006f61006a3660046102c3565b6100c2565b005b61007961012b565b60405161008691906102dc565b60405180910390f35b61009860015481565b604051908152602001610086565b61009860005481565b61006f6100bd3660046102c3565b61029f565b80600114806100d15750806002145b806100dc5750806003145b156100e657600155565b60405162461bcd60e51b8152602060048201526016602482015275506c6561736520656e74657920312c2032206f72203360501b604482015260640160405180910390fd5b60606000546001036101b35760015460010361015f575060408051808201909152600381526254696560e81b602082015290565b60015460020361018e575060408051808201909152600a81526955736572322057696e2160b01b602082015290565b5060408051808201909152600a81526955736572312057696e2160b01b602082015290565b600054600203610214576001546002036101e5575060408051808201909152600381526254696560e81b602082015290565b60015460030361018e575060408051808201909152600a81526955736572322057696e2160b01b602082015290565b60005460030361027557600154600303610246575060408051808201909152600381526254696560e81b602082015290565b60015460010361018e575060408051808201909152600a81526955736572322057696e2160b01b602082015290565b5060408051808201909152600f81526e736f6d657468696e672077726f6e6760881b602082015290565b80600114806102ae5750806002145b806102b95750806003145b156100e657600055565b6000602082840312156102d557600080fd5b5035919050565b600060208083528351808285015260005b81811015610309578581018301518582016040015282016102ed565b506000604082860101526040601f19601f830116850101925050509291505056fea2646970667358221220f52a7dbc1f967e0f9a8efb639bde5bbebfa52f56d16de66033b36bf940dbc60764736f6c63430008130033",
			"opcodes": "PUSH1 0x80 PUSH1 0x40 MSTORE CALLVALUE DUP1 ISZERO PUSH2 0x10 JUMPI PUSH1 0x0 DUP1 REVERT JUMPDEST POP PUSH2 0x360 DUP1 PUSH2 0x20 PUSH1 0x0 CODECOPY PUSH1 0x0 RETURN INVALID PUSH1 0x80 PUSH1 0x40 MSTORE CALLVALUE DUP1 ISZERO PUSH2 0x10 JUMPI PUSH1 0x0 DUP1 REVERT JUMPDEST POP PUSH1 0x4 CALLDATASIZE LT PUSH2 0x57 JUMPI PUSH1 0x0 CALLDATALOAD PUSH1 0xE0 SHR DUP1 PUSH4 0x3BC0961C EQ PUSH2 0x5C JUMPI DUP1 PUSH4 0x669997BC EQ PUSH2 0x71 JUMPI DUP1 PUSH4 0x81C7373A EQ PUSH2 0x8F JUMPI DUP1 PUSH4 0xB2E43E15 EQ PUSH2 0xA6 JUMPI DUP1 PUSH4 0xF054C589 EQ PUSH2 0xAF JUMPI JUMPDEST PUSH1 0x0 DUP1 REVERT JUMPDEST PUSH2 0x6F PUSH2 0x6A CALLDATASIZE PUSH1 0x4 PUSH2 0x2C3 JUMP JUMPDEST PUSH2 0xC2 JUMP JUMPDEST STOP JUMPDEST PUSH2 0x79 PUSH2 0x12B JUMP JUMPDEST PUSH1 0x40 MLOAD PUSH2 0x86 SWAP2 SWAP1 PUSH2 0x2DC JUMP JUMPDEST PUSH1 0x40 MLOAD DUP1 SWAP2 SUB SWAP1 RETURN JUMPDEST PUSH2 0x98 PUSH1 0x1 SLOAD DUP2 JUMP JUMPDEST PUSH1 0x40 MLOAD SWAP1 DUP2 MSTORE PUSH1 0x20 ADD PUSH2 0x86 JUMP JUMPDEST PUSH2 0x98 PUSH1 0x0 SLOAD DUP2 JUMP JUMPDEST PUSH2 0x6F PUSH2 0xBD CALLDATASIZE PUSH1 0x4 PUSH2 0x2C3 JUMP JUMPDEST PUSH2 0x29F JUMP JUMPDEST DUP1 PUSH1 0x1 EQ DUP1 PUSH2 0xD1 JUMPI POP DUP1 PUSH1 0x2 EQ JUMPDEST DUP1 PUSH2 0xDC JUMPI POP DUP1 PUSH1 0x3 EQ JUMPDEST ISZERO PUSH2 0xE6 JUMPI PUSH1 0x1 SSTORE JUMP JUMPDEST PUSH1 0x40 MLOAD PUSH3 0x461BCD PUSH1 0xE5 SHL DUP2 MSTORE PUSH1 0x20 PUSH1 0x4 DUP3 ADD MSTORE PUSH1 0x16 PUSH1 0x24 DUP3 ADD MSTORE PUSH22 0x506C6561736520656E74657920312C2032206F722033 PUSH1 0x50 SHL PUSH1 0x44 DUP3 ADD MSTORE PUSH1 0x64 ADD PUSH1 0x40 MLOAD DUP1 SWAP2 SUB SWAP1 REVERT JUMPDEST PUSH1 0x60 PUSH1 0x0 SLOAD PUSH1 0x1 SUB PUSH2 0x1B3 JUMPI PUSH1 0x1 SLOAD PUSH1 0x1 SUB PUSH2 0x15F JUMPI POP PUSH1 0x40 DUP1 MLOAD DUP1 DUP3 ADD SWAP1 SWAP2 MSTORE PUSH1 0x3 DUP2 MSTORE PUSH3 0x546965 PUSH1 0xE8 SHL PUSH1 0x20 DUP3 ADD MSTORE SWAP1 JUMP JUMPDEST PUSH1 0x1 SLOAD PUSH1 0x2 SUB PUSH2 0x18E JUMPI POP PUSH1 0x40 DUP1 MLOAD DUP1 DUP3 ADD SWAP1 SWAP2 MSTORE PUSH1 0xA DUP2 MSTORE PUSH10 0x55736572322057696E21 PUSH1 0xB0 SHL PUSH1 0x20 DUP3 ADD MSTORE SWAP1 JUMP JUMPDEST POP PUSH1 0x40 DUP1 MLOAD DUP1 DUP3 ADD SWAP1 SWAP2 MSTORE PUSH1 0xA DUP2 MSTORE PUSH10 0x55736572312057696E21 PUSH1 0xB0 SHL PUSH1 0x20 DUP3 ADD MSTORE SWAP1 JUMP JUMPDEST PUSH1 0x0 SLOAD PUSH1 0x2 SUB PUSH2 0x214 JUMPI PUSH1 0x1 SLOAD PUSH1 0x2 SUB PUSH2 0x1E5 JUMPI POP PUSH1 0x40 DUP1 MLOAD DUP1 DUP3 ADD SWAP1 SWAP2 MSTORE PUSH1 0x3 DUP2 MSTORE PUSH3 0x546965 PUSH1 0xE8 SHL PUSH1 0x20 DUP3 ADD MSTORE SWAP1 JUMP JUMPDEST PUSH1 0x1 SLOAD PUSH1 0x3 SUB PUSH2 0x18E JUMPI POP PUSH1 0x40 DUP1 MLOAD DUP1 DUP3 ADD SWAP1 SWAP2 MSTORE PUSH1 0xA DUP2 MSTORE PUSH10 0x55736572322057696E21 PUSH1 0xB0 SHL PUSH1 0x20 DUP3 ADD MSTORE SWAP1 JUMP JUMPDEST PUSH1 0x0 SLOAD PUSH1 0x3 SUB PUSH2 0x275 JUMPI PUSH1 0x1 SLOAD PUSH1 0x3 SUB PUSH2 0x246 JUMPI POP PUSH1 0x40 DUP1 MLOAD DUP1 DUP3 ADD SWAP1 SWAP2 MSTORE PUSH1 0x3 DUP2 MSTORE PUSH3 0x546965 PUSH1 0xE8 SHL PUSH1 0x20 DUP3 ADD MSTORE SWAP1 JUMP JUMPDEST PUSH1 0x1 SLOAD PUSH1 0x1 SUB PUSH2 0x18E JUMPI POP PUSH1 0x40 DUP1 MLOAD DUP1 DUP3 ADD SWAP1 SWAP2 MSTORE PUSH1 0xA DUP2 MSTORE PUSH10 0x55736572322057696E21 PUSH1 0xB0 SHL PUSH1 0x20 DUP3 ADD MSTORE SWAP1 JUMP JUMPDEST POP PUSH1 0x40 DUP1 MLOAD DUP1 DUP3 ADD SWAP1 SWAP2 MSTORE PUSH1 0xF DUP2 MSTORE PUSH15 0x736F6D657468696E672077726F6E67 PUSH1 0x88 SHL PUSH1 0x20 DUP3 ADD MSTORE SWAP1 JUMP JUMPDEST DUP1 PUSH1 0x1 EQ DUP1 PUSH2 0x2AE JUMPI POP DUP1 PUSH1 0x2 EQ JUMPDEST DUP1 PUSH2 0x2B9 JUMPI POP DUP1 PUSH1 0x3 EQ JUMPDEST ISZERO PUSH2 0xE6 JUMPI PUSH1 0x0 SSTORE JUMP JUMPDEST PUSH1 0x0 PUSH1 0x20 DUP3 DUP5 SUB SLT ISZERO PUSH2 0x2D5 JUMPI PUSH1 0x0 DUP1 REVERT JUMPDEST POP CALLDATALOAD SWAP2 SWAP1 POP JUMP JUMPDEST PUSH1 0x0 PUSH1 0x20 DUP1 DUP4 MSTORE DUP4 MLOAD DUP1 DUP3 DUP6 ADD MSTORE PUSH1 0x0 JUMPDEST DUP2 DUP2 LT ISZERO PUSH2 0x309 JUMPI DUP6 DUP2 ADD DUP4 ADD MLOAD DUP6 DUP3 ADD PUSH1 0x40 ADD MSTORE DUP3 ADD PUSH2 0x2ED JUMP JUMPDEST POP PUSH1 0x0 PUSH1 0x40 DUP3 DUP7 ADD ADD MSTORE PUSH1 0x40 PUSH1 0x1F NOT PUSH1 0x1F DUP4 ADD AND DUP6 ADD ADD SWAP3 POP POP POP SWAP3 SWAP2 POP POP JUMP INVALID LOG2 PUSH5 0x6970667358 0x22 SLT KECCAK256 CREATE2 0x2A PUSH30 0xBC1F967E0F9A8EFB639BDE5BBEBFA52F56D16DE66033B36BF940DBC60764 PUSH20 0x6F6C634300081300330000000000000000000000 "
		},
		"gasEstimates": {
			"creation": {
				"codeDepositCost": "172800",
				"executionCost": "214",
				"totalCost": "173014"
			},
			"external": {
				"logicCheck()": "infinite",
				"user1Choose()": "2339",
				"user1Dicision(uint256)": "22471",
				"user2Choose()": "2317",
				"user2Dicision(uint256)": "22383"
			}
		},
		"methodIdentifiers": {
			"logicCheck()": "669997bc",
			"user1Choose()": "b2e43e15",
			"user1Dicision(uint256)": "f054c589",
			"user2Choose()": "81c7373a",
			"user2Dicision(uint256)": "3bc0961c"
		}
	},
	"abi": [
		{
			"inputs": [],
			"name": "logicCheck",
			"outputs": [
				{
					"internalType": "string",
					"name": "",
					"type": "string"
				}
			],
			"stateMutability": "view",
			"type": "function"
		},
		{
			"inputs": [],
			"name": "user1Choose",
			"outputs": [
				{
					"internalType": "uint256",
					"name": "",
					"type": "uint256"
				}
			],
			"stateMutability": "view",
			"type": "function"
		},
		{
			"inputs": [
				{
					"internalType": "uint256",
					"name": "decisionofRockPaperScissors",
					"type": "uint256"
				}
			],
			"name": "user1Dicision",
			"outputs": [],
			"stateMutability": "nonpayable",
			"type": "function"
		},
		{
			"inputs": [],
			"name": "user2Choose",
			"outputs": [
				{
					"internalType": "uint256",
					"name": "",
					"type": "uint256"
				}
			],
			"stateMutability": "view",
			"type": "function"
		},
		{
			"inputs": [
				{
					"internalType": "uint256",
					"name": "decisionofRockPaperScissors",
					"type": "uint256"
				}
			],
			"name": "user2Dicision",
			"outputs": [],
			"stateMutability": "nonpayable",
			"type": "function"
		}
	]
}