{
	"data": {
		"bytecode": {
			"linkReferences": {},
			"object": "608060405260008055600160035534801561001957600080fd5b50611210806100296000396000f3fe608060405234801561001057600080fd5b50600436106100575760003560e01c8063512ec5571461005c5780636898f82b1461007a578063adf496b51461008f578063e417f4a3146100a2578063f7c4efbb146100c2575b600080fd5b6100646100e2565b6040516100719190610f6c565b60405180910390f35b61008d610088366004610fce565b61021b565b005b61008d61009d366004610fce565b610638565b6100b56100b0366004610fce565b61081b565b6040516100719190610fe7565b6100d56100d0366004610fce565b6108c5565b6040516100719190611009565b60606001805480602002602001604051908101604052809291908181526020016000905b828210156102125760008481526020908190206040805160a0810182526005860290920180546001600160a01b03908116606085019081526001830154608086015284528251808401845260028301549091168152600382015481860152938301939093526004830180549293929184019161018190611023565b80601f01602080910402602001604051908101604052809291908181526020018280546101ad90611023565b80156101fa5780601f106101cf576101008083540402835291602001916101fa565b820191906000526020600020905b8154815290600101906020018083116101dd57829003601f168201915b50505050508152505081526020019060010190610106565b50505050905090565b60025460ff161561026b5760405162461bcd60e51b8152602060048201526015602482015274115c9c9bdc8e881499595b9d1c985b9d0818d85b1b605a1b60448201526064015b60405180910390fd5b6002805460ff1916600117905560405133907f6fd5bea3ad79492c3055c6f6b7b37ca66d63ba4ceef7d04dd901559affbe971a90600090a2806000036102ea5760405162461bcd60e51b815260206004820152601460248201527304572726f723a2043616e277420696e70757420360641b6044820152606401610262565b600381111561033b5760405162461bcd60e51b815260206004820152601e60248201527f4572726f723a2043616e277420696e707574206d6f7265207468616e203300006044820152606401610262565b6000546000036105025761034d610e86565b600180548082018255600091909152815180517fb10e2d527612073b26eecdfd717e6a320cf44b4afac2b0732d9fcbe2b7fa0cf6600590930292830180546001600160a01b03199081166001600160a01b039384161782556020938401517fb10e2d527612073b26eecdfd717e6a320cf44b4afac2b0732d9fcbe2b7fa0cf78601558386015180517fb10e2d527612073b26eecdfd717e6a320cf44b4afac2b0732d9fcbe2b7fa0cf88701805490931694169390931790559101517fb10e2d527612073b26eecdfd717e6a320cf44b4afac2b0732d9fcbe2b7fa0cf9830155604083015183927fb10e2d527612073b26eecdfd717e6a320cf44b4afac2b0732d9fcbe2b7fa0cfa019061046090826110c2565b505060018054339250610474908290611198565b81548110610484576104846111ab565b6000918252602090912060059091020180546001600160a01b0319166001600160a01b0392909216919091179055600180548391906104c4908290611198565b815481106104d4576104d46111ab565b60009182526020822060016005909202010191909155805490806104f7836111c1565b91905055505061062b565b60018054610511908290611198565b81548110610521576105216111ab565b60009182526020909120600590910201546001600160a01b031633036105955760405162461bcd60e51b8152602060048201526024808201527f4572726f723a20596f752063616e6e6f7420706c6179207769746820796f757260448201526339b2b63360e11b6064820152608401610262565b600180543391906105a7908290611198565b815481106105b7576105b76111ab565b6000918252602090912060059091020160020180546001600160a01b0319166001600160a01b0392909216919091179055600180548291906105fa908290611198565b8154811061060a5761060a6111ab565b6000918252602090912060036005909202010155610626610aaf565b600080555b506002805460ff19169055565b60405133907f6fd5bea3ad79492c3055c6f6b7b37ca66d63ba4ceef7d04dd901559affbe971a90600090a2806000036106aa5760405162461bcd60e51b815260206004820152601460248201527304572726f723a2043616e277420696e70757420360641b6044820152606401610262565b60038111156106fb5760405162461bcd60e51b815260206004820152601e60248201527f4572726f723a2043616e277420696e707574206d6f7265207468616e203300006044820152606401610262565b60408051808201909152600080825260208201526004805460018082018355600083905283517f8a35acfbc15ff81a39ae7d344fd709f28e8600b4aa8c65c6b64bfe7fe36bd19b600290930292830180546001600160a01b0319166001600160a01b0390921691909117905560208401517f8a35acfbc15ff81a39ae7d344fd709f28e8600b4aa8c65c6b64bfe7fe36bd19c9092019190915581543392916107a291611198565b815481106107b2576107b26111ab565b6000918252602090912060029091020180546001600160a01b0319166001600160a01b0392909216919091179055600480548391906107f390600190611198565b81548110610803576108036111ab565b60009182526020909120600160029092020101555050565b60408051808201909152600080825260208201526001548211156108795760405162461bcd60e51b815260206004820152601560248201527408ae4e4dee4744092dcecc2d8d2c840d8cadccee8d605b1b6044820152606401610262565b6001828154811061088c5761088c6111ab565b60009182526020918290206040805180820190915260059092020180546001600160a01b03168252600101549181019190915292915050565b6108cd610e86565b6001548211156109175760405162461bcd60e51b815260206004820152601560248201527408ae4e4dee4744092dcecc2d8d2c840d8cadccee8d605b1b6044820152606401610262565b60006001600160a01b031660018381548110610935576109356111ab565b60009182526020909120600260059092020101546001600160a01b03160361099f5760405162461bcd60e51b815260206004820152601e60248201527f4572726f723a205468652067616d65206e6f742066696e6973682079657400006044820152606401610262565b600182815481106109b2576109b26111ab565b60009182526020918290206040805160a081018252600590930290910180546001600160a01b039081166060850190815260018301546080860152845282518084018452600283015490911681526003820154818601529383019390935260048301805492939291840191610a2690611023565b80601f0160208091040260200160405190810160405280929190818152602001828054610a5290611023565b8015610a9f5780601f10610a7457610100808354040283529160200191610a9f565b820191906000526020600020905b815481529060010190602001808311610a8257829003601f168201915b5050505050815250509050919050565b60018054610abe908290611198565b81548110610ace57610ace6111ab565b600091825260209091206003600590920201015460018054610af1908290611198565b81548110610b0157610b016111ab565b90600052602060002090600502016000016001015403610bc357604080518082019091526004815263151a595960e21b602082015260018054610b45908290611198565b81548110610b5557610b556111ab565b90600052602060002090600502016004019081610b7291906110c2565b507fcde5c32c0a45fd8aa4b65ea8003fc9da9acd5e2c6c24a9fcce6ab79cabbd9122604051610bb990602080825260049082015263151a595960e21b604082015260600190565b60405180910390a1565b60018054610bd2908290611198565b81548110610be257610be26111ab565b9060005260206000209060050201600001600101546001148015610c39575060018054610c10908290611198565b81548110610c2057610c206111ab565b9060005260206000209060050201600201600101546002145b80610cb5575060018054610c4e908290611198565b81548110610c5e57610c5e6111ab565b9060005260206000209060050201600001600101546003148015610cb5575060018054610c8c908290611198565b81548110610c9c57610c9c6111ab565b9060005260206000209060050201600201600101546001145b80610d31575060018054610cca908290611198565b81548110610cda57610cda6111ab565b9060005260206000209060050201600001600101546002148015610d31575060018054610d08908290611198565b81548110610d1857610d186111ab565b9060005260206000209060050201600201600101546003145b15610dde576040805180820190915260098152682ab9b2b919103bb4b760b91b602082015260018054610d65908290611198565b81548110610d7557610d756111ab565b90600052602060002090600502016004019081610d9291906110c2565b507fcde5c32c0a45fd8aa4b65ea8003fc9da9acd5e2c6c24a9fcce6ab79cabbd9122604051610bb9906020808252600990820152682ab9b2b919103bb4b760b91b604082015260600190565b6040805180820190915260098152682ab9b2b918903bb4b760b91b602082015260018054610e0d908290611198565b81548110610e1d57610e1d6111ab565b90600052602060002090600502016004019081610e3a91906110c2565b507fcde5c32c0a45fd8aa4b65ea8003fc9da9acd5e2c6c24a9fcce6ab79cabbd9122604051610bb9906020808252600990820152682ab9b2b918903bb4b760b91b604082015260600190565b6040805160a08101909152600060608201818152608083019190915281908152602001610ec3604080518082019091526000808252602082015290565b8152602001606081525090565b610eee82825180516001600160a01b03168252602090810151910152565b6000602080830151610f16604086018280516001600160a01b03168252602090810151910152565b50604083015160a0608086015280518060a087015260005b81811015610f4a5782810184015187820160c001528301610f2e565b50600060c0828801015260c0601f19601f830116870101935050505092915050565b6000602080830181845280855180835260408601915060408160051b870101925083870160005b82811015610fc157603f19888603018452610faf858351610ed0565b94509285019290850190600101610f93565b5092979650505050505050565b600060208284031215610fe057600080fd5b5035919050565b81516001600160a01b0316815260208083015190820152604081015b92915050565b60208152600061101c6020830184610ed0565b9392505050565b600181811c9082168061103757607f821691505b60208210810361105757634e487b7160e01b600052602260045260246000fd5b50919050565b634e487b7160e01b600052604160045260246000fd5b601f8211156110bd57600081815260208120601f850160051c8101602086101561109a5750805b601f850160051c820191505b818110156110b9578281556001016110a6565b5050505b505050565b815167ffffffffffffffff8111156110dc576110dc61105d565b6110f0816110ea8454611023565b84611073565b602080601f831160018114611125576000841561110d5750858301515b600019600386901b1c1916600185901b1785556110b9565b600085815260208120601f198616915b8281101561115457888601518255948401946001909101908401611135565b50858210156111725787850151600019600388901b60f8161c191681555b5050505050600190811b01905550565b634e487b7160e01b600052601160045260246000fd5b8181038181111561100357611003611182565b634e487b7160e01b600052603260045260246000fd5b6000600182016111d3576111d3611182565b506001019056fea2646970667358221220fa4520ba6045fd38b9c5813e0a1e5e1184d557e8406cc8a53706f737c3d9c1da64736f6c63430008130033",
			"opcodes": "PUSH1 0x80 PUSH1 0x40 MSTORE PUSH1 0x0 DUP1 SSTORE PUSH1 0x1 PUSH1 0x3 SSTORE CALLVALUE DUP1 ISZERO PUSH2 0x19 JUMPI PUSH1 0x0 DUP1 REVERT JUMPDEST POP PUSH2 0x1210 DUP1 PUSH2 0x29 PUSH1 0x0 CODECOPY PUSH1 0x0 RETURN INVALID PUSH1 0x80 PUSH1 0x40 MSTORE CALLVALUE DUP1 ISZERO PUSH2 0x10 JUMPI PUSH1 0x0 DUP1 REVERT JUMPDEST POP PUSH1 0x4 CALLDATASIZE LT PUSH2 0x57 JUMPI PUSH1 0x0 CALLDATALOAD PUSH1 0xE0 SHR DUP1 PUSH4 0x512EC557 EQ PUSH2 0x5C JUMPI DUP1 PUSH4 0x6898F82B EQ PUSH2 0x7A JUMPI DUP1 PUSH4 0xADF496B5 EQ PUSH2 0x8F JUMPI DUP1 PUSH4 0xE417F4A3 EQ PUSH2 0xA2 JUMPI DUP1 PUSH4 0xF7C4EFBB EQ PUSH2 0xC2 JUMPI JUMPDEST PUSH1 0x0 DUP1 REVERT JUMPDEST PUSH2 0x64 PUSH2 0xE2 JUMP JUMPDEST PUSH1 0x40 MLOAD PUSH2 0x71 SWAP2 SWAP1 PUSH2 0xF6C JUMP JUMPDEST PUSH1 0x40 MLOAD DUP1 SWAP2 SUB SWAP1 RETURN JUMPDEST PUSH2 0x8D PUSH2 0x88 CALLDATASIZE PUSH1 0x4 PUSH2 0xFCE JUMP JUMPDEST PUSH2 0x21B JUMP JUMPDEST STOP JUMPDEST PUSH2 0x8D PUSH2 0x9D CALLDATASIZE PUSH1 0x4 PUSH2 0xFCE JUMP JUMPDEST PUSH2 0x638 JUMP JUMPDEST PUSH2 0xB5 PUSH2 0xB0 CALLDATASIZE PUSH1 0x4 PUSH2 0xFCE JUMP JUMPDEST PUSH2 0x81B JUMP JUMPDEST PUSH1 0x40 MLOAD PUSH2 0x71 SWAP2 SWAP1 PUSH2 0xFE7 JUMP JUMPDEST PUSH2 0xD5 PUSH2 0xD0 CALLDATASIZE PUSH1 0x4 PUSH2 0xFCE JUMP JUMPDEST PUSH2 0x8C5 JUMP JUMPDEST PUSH1 0x40 MLOAD PUSH2 0x71 SWAP2 SWAP1 PUSH2 0x1009 JUMP JUMPDEST PUSH1 0x60 PUSH1 0x1 DUP1 SLOAD DUP1 PUSH1 0x20 MUL PUSH1 0x20 ADD PUSH1 0x40 MLOAD SWAP1 DUP2 ADD PUSH1 0x40 MSTORE DUP1 SWAP3 SWAP2 SWAP1 DUP2 DUP2 MSTORE PUSH1 0x20 ADD PUSH1 0x0 SWAP1 JUMPDEST DUP3 DUP3 LT ISZERO PUSH2 0x212 JUMPI PUSH1 0x0 DUP5 DUP2 MSTORE PUSH1 0x20 SWAP1 DUP2 SWAP1 KECCAK256 PUSH1 0x40 DUP1 MLOAD PUSH1 0xA0 DUP2 ADD DUP3 MSTORE PUSH1 0x5 DUP7 MUL SWAP1 SWAP3 ADD DUP1 SLOAD PUSH1 0x1 PUSH1 0x1 PUSH1 0xA0 SHL SUB SWAP1 DUP2 AND PUSH1 0x60 DUP6 ADD SWAP1 DUP2 MSTORE PUSH1 0x1 DUP4 ADD SLOAD PUSH1 0x80 DUP7 ADD MSTORE DUP5 MSTORE DUP3 MLOAD DUP1 DUP5 ADD DUP5 MSTORE PUSH1 0x2 DUP4 ADD SLOAD SWAP1 SWAP2 AND DUP2 MSTORE PUSH1 0x3 DUP3 ADD SLOAD DUP2 DUP7 ADD MSTORE SWAP4 DUP4 ADD SWAP4 SWAP1 SWAP4 MSTORE PUSH1 0x4 DUP4 ADD DUP1 SLOAD SWAP3 SWAP4 SWAP3 SWAP2 DUP5 ADD SWAP2 PUSH2 0x181 SWAP1 PUSH2 0x1023 JUMP JUMPDEST DUP1 PUSH1 0x1F ADD PUSH1 0x20 DUP1 SWAP2 DIV MUL PUSH1 0x20 ADD PUSH1 0x40 MLOAD SWAP1 DUP2 ADD PUSH1 0x40 MSTORE DUP1 SWAP3 SWAP2 SWAP1 DUP2 DUP2 MSTORE PUSH1 0x20 ADD DUP3 DUP1 SLOAD PUSH2 0x1AD SWAP1 PUSH2 0x1023 JUMP JUMPDEST DUP1 ISZERO PUSH2 0x1FA JUMPI DUP1 PUSH1 0x1F LT PUSH2 0x1CF JUMPI PUSH2 0x100 DUP1 DUP4 SLOAD DIV MUL DUP4 MSTORE SWAP2 PUSH1 0x20 ADD SWAP2 PUSH2 0x1FA JUMP JUMPDEST DUP3 ADD SWAP2 SWAP1 PUSH1 0x0 MSTORE PUSH1 0x20 PUSH1 0x0 KECCAK256 SWAP1 JUMPDEST DUP2 SLOAD DUP2 MSTORE SWAP1 PUSH1 0x1 ADD SWAP1 PUSH1 0x20 ADD DUP1 DUP4 GT PUSH2 0x1DD JUMPI DUP3 SWAP1 SUB PUSH1 0x1F AND DUP3 ADD SWAP2 JUMPDEST POP POP POP POP POP DUP2 MSTORE POP POP DUP2 MSTORE PUSH1 0x20 ADD SWAP1 PUSH1 0x1 ADD SWAP1 PUSH2 0x106 JUMP JUMPDEST POP POP POP POP SWAP1 POP SWAP1 JUMP JUMPDEST PUSH1 0x2 SLOAD PUSH1 0xFF AND ISZERO PUSH2 0x26B JUMPI PUSH1 0x40 MLOAD PUSH3 0x461BCD PUSH1 0xE5 SHL DUP2 MSTORE PUSH1 0x20 PUSH1 0x4 DUP3 ADD MSTORE PUSH1 0x15 PUSH1 0x24 DUP3 ADD MSTORE PUSH21 0x115C9C9BDC8E881499595B9D1C985B9D0818D85B1B PUSH1 0x5A SHL PUSH1 0x44 DUP3 ADD MSTORE PUSH1 0x64 ADD JUMPDEST PUSH1 0x40 MLOAD DUP1 SWAP2 SUB SWAP1 REVERT JUMPDEST PUSH1 0x2 DUP1 SLOAD PUSH1 0xFF NOT AND PUSH1 0x1 OR SWAP1 SSTORE PUSH1 0x40 MLOAD CALLER SWAP1 PUSH32 0x6FD5BEA3AD79492C3055C6F6B7B37CA66D63BA4CEEF7D04DD901559AFFBE971A SWAP1 PUSH1 0x0 SWAP1 LOG2 DUP1 PUSH1 0x0 SUB PUSH2 0x2EA JUMPI PUSH1 0x40 MLOAD PUSH3 0x461BCD PUSH1 0xE5 SHL DUP2 MSTORE PUSH1 0x20 PUSH1 0x4 DUP3 ADD MSTORE PUSH1 0x14 PUSH1 0x24 DUP3 ADD MSTORE PUSH20 0x4572726F723A2043616E277420696E707574203 PUSH1 0x64 SHL PUSH1 0x44 DUP3 ADD MSTORE PUSH1 0x64 ADD PUSH2 0x262 JUMP JUMPDEST PUSH1 0x3 DUP2 GT ISZERO PUSH2 0x33B JUMPI PUSH1 0x40 MLOAD PUSH3 0x461BCD PUSH1 0xE5 SHL DUP2 MSTORE PUSH1 0x20 PUSH1 0x4 DUP3 ADD MSTORE PUSH1 0x1E PUSH1 0x24 DUP3 ADD MSTORE PUSH32 0x4572726F723A2043616E277420696E707574206D6F7265207468616E20330000 PUSH1 0x44 DUP3 ADD MSTORE PUSH1 0x64 ADD PUSH2 0x262 JUMP JUMPDEST PUSH1 0x0 SLOAD PUSH1 0x0 SUB PUSH2 0x502 JUMPI PUSH2 0x34D PUSH2 0xE86 JUMP JUMPDEST PUSH1 0x1 DUP1 SLOAD DUP1 DUP3 ADD DUP3 SSTORE PUSH1 0x0 SWAP2 SWAP1 SWAP2 MSTORE DUP2 MLOAD DUP1 MLOAD PUSH32 0xB10E2D527612073B26EECDFD717E6A320CF44B4AFAC2B0732D9FCBE2B7FA0CF6 PUSH1 0x5 SWAP1 SWAP4 MUL SWAP3 DUP4 ADD DUP1 SLOAD PUSH1 0x1 PUSH1 0x1 PUSH1 0xA0 SHL SUB NOT SWAP1 DUP2 AND PUSH1 0x1 PUSH1 0x1 PUSH1 0xA0 SHL SUB SWAP4 DUP5 AND OR DUP3 SSTORE PUSH1 0x20 SWAP4 DUP5 ADD MLOAD PUSH32 0xB10E2D527612073B26EECDFD717E6A320CF44B4AFAC2B0732D9FCBE2B7FA0CF7 DUP7 ADD SSTORE DUP4 DUP7 ADD MLOAD DUP1 MLOAD PUSH32 0xB10E2D527612073B26EECDFD717E6A320CF44B4AFAC2B0732D9FCBE2B7FA0CF8 DUP8 ADD DUP1 SLOAD SWAP1 SWAP4 AND SWAP5 AND SWAP4 SWAP1 SWAP4 OR SWAP1 SSTORE SWAP2 ADD MLOAD PUSH32 0xB10E2D527612073B26EECDFD717E6A320CF44B4AFAC2B0732D9FCBE2B7FA0CF9 DUP4 ADD SSTORE PUSH1 0x40 DUP4 ADD MLOAD DUP4 SWAP3 PUSH32 0xB10E2D527612073B26EECDFD717E6A320CF44B4AFAC2B0732D9FCBE2B7FA0CFA ADD SWAP1 PUSH2 0x460 SWAP1 DUP3 PUSH2 0x10C2 JUMP JUMPDEST POP POP PUSH1 0x1 DUP1 SLOAD CALLER SWAP3 POP PUSH2 0x474 SWAP1 DUP3 SWAP1 PUSH2 0x1198 JUMP JUMPDEST DUP2 SLOAD DUP2 LT PUSH2 0x484 JUMPI PUSH2 0x484 PUSH2 0x11AB JUMP JUMPDEST PUSH1 0x0 SWAP2 DUP3 MSTORE PUSH1 0x20 SWAP1 SWAP2 KECCAK256 PUSH1 0x5 SWAP1 SWAP2 MUL ADD DUP1 SLOAD PUSH1 0x1 PUSH1 0x1 PUSH1 0xA0 SHL SUB NOT AND PUSH1 0x1 PUSH1 0x1 PUSH1 0xA0 SHL SUB SWAP3 SWAP1 SWAP3 AND SWAP2 SWAP1 SWAP2 OR SWAP1 SSTORE PUSH1 0x1 DUP1 SLOAD DUP4 SWAP2 SWAP1 PUSH2 0x4C4 SWAP1 DUP3 SWAP1 PUSH2 0x1198 JUMP JUMPDEST DUP2 SLOAD DUP2 LT PUSH2 0x4D4 JUMPI PUSH2 0x4D4 PUSH2 0x11AB JUMP JUMPDEST PUSH1 0x0 SWAP2 DUP3 MSTORE PUSH1 0x20 DUP3 KECCAK256 PUSH1 0x1 PUSH1 0x5 SWAP1 SWAP3 MUL ADD ADD SWAP2 SWAP1 SWAP2 SSTORE DUP1 SLOAD SWAP1 DUP1 PUSH2 0x4F7 DUP4 PUSH2 0x11C1 JUMP JUMPDEST SWAP2 SWAP1 POP SSTORE POP POP PUSH2 0x62B JUMP JUMPDEST PUSH1 0x1 DUP1 SLOAD PUSH2 0x511 SWAP1 DUP3 SWAP1 PUSH2 0x1198 JUMP JUMPDEST DUP2 SLOAD DUP2 LT PUSH2 0x521 JUMPI PUSH2 0x521 PUSH2 0x11AB JUMP JUMPDEST PUSH1 0x0 SWAP2 DUP3 MSTORE PUSH1 0x20 SWAP1 SWAP2 KECCAK256 PUSH1 0x5 SWAP1 SWAP2 MUL ADD SLOAD PUSH1 0x1 PUSH1 0x1 PUSH1 0xA0 SHL SUB AND CALLER SUB PUSH2 0x595 JUMPI PUSH1 0x40 MLOAD PUSH3 0x461BCD PUSH1 0xE5 SHL DUP2 MSTORE PUSH1 0x20 PUSH1 0x4 DUP3 ADD MSTORE PUSH1 0x24 DUP1 DUP3 ADD MSTORE PUSH32 0x4572726F723A20596F752063616E6E6F7420706C6179207769746820796F7572 PUSH1 0x44 DUP3 ADD MSTORE PUSH4 0x39B2B633 PUSH1 0xE1 SHL PUSH1 0x64 DUP3 ADD MSTORE PUSH1 0x84 ADD PUSH2 0x262 JUMP JUMPDEST PUSH1 0x1 DUP1 SLOAD CALLER SWAP2 SWAP1 PUSH2 0x5A7 SWAP1 DUP3 SWAP1 PUSH2 0x1198 JUMP JUMPDEST DUP2 SLOAD DUP2 LT PUSH2 0x5B7 JUMPI PUSH2 0x5B7 PUSH2 0x11AB JUMP JUMPDEST PUSH1 0x0 SWAP2 DUP3 MSTORE PUSH1 0x20 SWAP1 SWAP2 KECCAK256 PUSH1 0x5 SWAP1 SWAP2 MUL ADD PUSH1 0x2 ADD DUP1 SLOAD PUSH1 0x1 PUSH1 0x1 PUSH1 0xA0 SHL SUB NOT AND PUSH1 0x1 PUSH1 0x1 PUSH1 0xA0 SHL SUB SWAP3 SWAP1 SWAP3 AND SWAP2 SWAP1 SWAP2 OR SWAP1 SSTORE PUSH1 0x1 DUP1 SLOAD DUP3 SWAP2 SWAP1 PUSH2 0x5FA SWAP1 DUP3 SWAP1 PUSH2 0x1198 JUMP JUMPDEST DUP2 SLOAD DUP2 LT PUSH2 0x60A JUMPI PUSH2 0x60A PUSH2 0x11AB JUMP JUMPDEST PUSH1 0x0 SWAP2 DUP3 MSTORE PUSH1 0x20 SWAP1 SWAP2 KECCAK256 PUSH1 0x3 PUSH1 0x5 SWAP1 SWAP3 MUL ADD ADD SSTORE PUSH2 0x626 PUSH2 0xAAF JUMP JUMPDEST PUSH1 0x0 DUP1 SSTORE JUMPDEST POP PUSH1 0x2 DUP1 SLOAD PUSH1 0xFF NOT AND SWAP1 SSTORE JUMP JUMPDEST PUSH1 0x40 MLOAD CALLER SWAP1 PUSH32 0x6FD5BEA3AD79492C3055C6F6B7B37CA66D63BA4CEEF7D04DD901559AFFBE971A SWAP1 PUSH1 0x0 SWAP1 LOG2 DUP1 PUSH1 0x0 SUB PUSH2 0x6AA JUMPI PUSH1 0x40 MLOAD PUSH3 0x461BCD PUSH1 0xE5 SHL DUP2 MSTORE PUSH1 0x20 PUSH1 0x4 DUP3 ADD MSTORE PUSH1 0x14 PUSH1 0x24 DUP3 ADD MSTORE PUSH20 0x4572726F723A2043616E277420696E707574203 PUSH1 0x64 SHL PUSH1 0x44 DUP3 ADD MSTORE PUSH1 0x64 ADD PUSH2 0x262 JUMP JUMPDEST PUSH1 0x3 DUP2 GT ISZERO PUSH2 0x6FB JUMPI PUSH1 0x40 MLOAD PUSH3 0x461BCD PUSH1 0xE5 SHL DUP2 MSTORE PUSH1 0x20 PUSH1 0x4 DUP3 ADD MSTORE PUSH1 0x1E PUSH1 0x24 DUP3 ADD MSTORE PUSH32 0x4572726F723A2043616E277420696E707574206D6F7265207468616E20330000 PUSH1 0x44 DUP3 ADD MSTORE PUSH1 0x64 ADD PUSH2 0x262 JUMP JUMPDEST PUSH1 0x40 DUP1 MLOAD DUP1 DUP3 ADD SWAP1 SWAP2 MSTORE PUSH1 0x0 DUP1 DUP3 MSTORE PUSH1 0x20 DUP3 ADD MSTORE PUSH1 0x4 DUP1 SLOAD PUSH1 0x1 DUP1 DUP3 ADD DUP4 SSTORE PUSH1 0x0 DUP4 SWAP1 MSTORE DUP4 MLOAD PUSH32 0x8A35ACFBC15FF81A39AE7D344FD709F28E8600B4AA8C65C6B64BFE7FE36BD19B PUSH1 0x2 SWAP1 SWAP4 MUL SWAP3 DUP4 ADD DUP1 SLOAD PUSH1 0x1 PUSH1 0x1 PUSH1 0xA0 SHL SUB NOT AND PUSH1 0x1 PUSH1 0x1 PUSH1 0xA0 SHL SUB SWAP1 SWAP3 AND SWAP2 SWAP1 SWAP2 OR SWAP1 SSTORE PUSH1 0x20 DUP5 ADD MLOAD PUSH32 0x8A35ACFBC15FF81A39AE7D344FD709F28E8600B4AA8C65C6B64BFE7FE36BD19C SWAP1 SWAP3 ADD SWAP2 SWAP1 SWAP2 SSTORE DUP2 SLOAD CALLER SWAP3 SWAP2 PUSH2 0x7A2 SWAP2 PUSH2 0x1198 JUMP JUMPDEST DUP2 SLOAD DUP2 LT PUSH2 0x7B2 JUMPI PUSH2 0x7B2 PUSH2 0x11AB JUMP JUMPDEST PUSH1 0x0 SWAP2 DUP3 MSTORE PUSH1 0x20 SWAP1 SWAP2 KECCAK256 PUSH1 0x2 SWAP1 SWAP2 MUL ADD DUP1 SLOAD PUSH1 0x1 PUSH1 0x1 PUSH1 0xA0 SHL SUB NOT AND PUSH1 0x1 PUSH1 0x1 PUSH1 0xA0 SHL SUB SWAP3 SWAP1 SWAP3 AND SWAP2 SWAP1 SWAP2 OR SWAP1 SSTORE PUSH1 0x4 DUP1 SLOAD DUP4 SWAP2 SWAP1 PUSH2 0x7F3 SWAP1 PUSH1 0x1 SWAP1 PUSH2 0x1198 JUMP JUMPDEST DUP2 SLOAD DUP2 LT PUSH2 0x803 JUMPI PUSH2 0x803 PUSH2 0x11AB JUMP JUMPDEST PUSH1 0x0 SWAP2 DUP3 MSTORE PUSH1 0x20 SWAP1 SWAP2 KECCAK256 PUSH1 0x1 PUSH1 0x2 SWAP1 SWAP3 MUL ADD ADD SSTORE POP POP JUMP JUMPDEST PUSH1 0x40 DUP1 MLOAD DUP1 DUP3 ADD SWAP1 SWAP2 MSTORE PUSH1 0x0 DUP1 DUP3 MSTORE PUSH1 0x20 DUP3 ADD MSTORE PUSH1 0x1 SLOAD DUP3 GT ISZERO PUSH2 0x879 JUMPI PUSH1 0x40 MLOAD PUSH3 0x461BCD PUSH1 0xE5 SHL DUP2 MSTORE PUSH1 0x20 PUSH1 0x4 DUP3 ADD MSTORE PUSH1 0x15 PUSH1 0x24 DUP3 ADD MSTORE PUSH21 0x8AE4E4DEE4744092DCECC2D8D2C840D8CADCCEE8D PUSH1 0x5B SHL PUSH1 0x44 DUP3 ADD MSTORE PUSH1 0x64 ADD PUSH2 0x262 JUMP JUMPDEST PUSH1 0x1 DUP3 DUP2 SLOAD DUP2 LT PUSH2 0x88C JUMPI PUSH2 0x88C PUSH2 0x11AB JUMP JUMPDEST PUSH1 0x0 SWAP2 DUP3 MSTORE PUSH1 0x20 SWAP2 DUP3 SWAP1 KECCAK256 PUSH1 0x40 DUP1 MLOAD DUP1 DUP3 ADD SWAP1 SWAP2 MSTORE PUSH1 0x5 SWAP1 SWAP3 MUL ADD DUP1 SLOAD PUSH1 0x1 PUSH1 0x1 PUSH1 0xA0 SHL SUB AND DUP3 MSTORE PUSH1 0x1 ADD SLOAD SWAP2 DUP2 ADD SWAP2 SWAP1 SWAP2 MSTORE SWAP3 SWAP2 POP POP JUMP JUMPDEST PUSH2 0x8CD PUSH2 0xE86 JUMP JUMPDEST PUSH1 0x1 SLOAD DUP3 GT ISZERO PUSH2 0x917 JUMPI PUSH1 0x40 MLOAD PUSH3 0x461BCD PUSH1 0xE5 SHL DUP2 MSTORE PUSH1 0x20 PUSH1 0x4 DUP3 ADD MSTORE PUSH1 0x15 PUSH1 0x24 DUP3 ADD MSTORE PUSH21 0x8AE4E4DEE4744092DCECC2D8D2C840D8CADCCEE8D PUSH1 0x5B SHL PUSH1 0x44 DUP3 ADD MSTORE PUSH1 0x64 ADD PUSH2 0x262 JUMP JUMPDEST PUSH1 0x0 PUSH1 0x1 PUSH1 0x1 PUSH1 0xA0 SHL SUB AND PUSH1 0x1 DUP4 DUP2 SLOAD DUP2 LT PUSH2 0x935 JUMPI PUSH2 0x935 PUSH2 0x11AB JUMP JUMPDEST PUSH1 0x0 SWAP2 DUP3 MSTORE PUSH1 0x20 SWAP1 SWAP2 KECCAK256 PUSH1 0x2 PUSH1 0x5 SWAP1 SWAP3 MUL ADD ADD SLOAD PUSH1 0x1 PUSH1 0x1 PUSH1 0xA0 SHL SUB AND SUB PUSH2 0x99F JUMPI PUSH1 0x40 MLOAD PUSH3 0x461BCD PUSH1 0xE5 SHL DUP2 MSTORE PUSH1 0x20 PUSH1 0x4 DUP3 ADD MSTORE PUSH1 0x1E PUSH1 0x24 DUP3 ADD MSTORE PUSH32 0x4572726F723A205468652067616D65206E6F742066696E697368207965740000 PUSH1 0x44 DUP3 ADD MSTORE PUSH1 0x64 ADD PUSH2 0x262 JUMP JUMPDEST PUSH1 0x1 DUP3 DUP2 SLOAD DUP2 LT PUSH2 0x9B2 JUMPI PUSH2 0x9B2 PUSH2 0x11AB JUMP JUMPDEST PUSH1 0x0 SWAP2 DUP3 MSTORE PUSH1 0x20 SWAP2 DUP3 SWAP1 KECCAK256 PUSH1 0x40 DUP1 MLOAD PUSH1 0xA0 DUP2 ADD DUP3 MSTORE PUSH1 0x5 SWAP1 SWAP4 MUL SWAP1 SWAP2 ADD DUP1 SLOAD PUSH1 0x1 PUSH1 0x1 PUSH1 0xA0 SHL SUB SWAP1 DUP2 AND PUSH1 0x60 DUP6 ADD SWAP1 DUP2 MSTORE PUSH1 0x1 DUP4 ADD SLOAD PUSH1 0x80 DUP7 ADD MSTORE DUP5 MSTORE DUP3 MLOAD DUP1 DUP5 ADD DUP5 MSTORE PUSH1 0x2 DUP4 ADD SLOAD SWAP1 SWAP2 AND DUP2 MSTORE PUSH1 0x3 DUP3 ADD SLOAD DUP2 DUP7 ADD MSTORE SWAP4 DUP4 ADD SWAP4 SWAP1 SWAP4 MSTORE PUSH1 0x4 DUP4 ADD DUP1 SLOAD SWAP3 SWAP4 SWAP3 SWAP2 DUP5 ADD SWAP2 PUSH2 0xA26 SWAP1 PUSH2 0x1023 JUMP JUMPDEST DUP1 PUSH1 0x1F ADD PUSH1 0x20 DUP1 SWAP2 DIV MUL PUSH1 0x20 ADD PUSH1 0x40 MLOAD SWAP1 DUP2 ADD PUSH1 0x40 MSTORE DUP1 SWAP3 SWAP2 SWAP1 DUP2 DUP2 MSTORE PUSH1 0x20 ADD DUP3 DUP1 SLOAD PUSH2 0xA52 SWAP1 PUSH2 0x1023 JUMP JUMPDEST DUP1 ISZERO PUSH2 0xA9F JUMPI DUP1 PUSH1 0x1F LT PUSH2 0xA74 JUMPI PUSH2 0x100 DUP1 DUP4 SLOAD DIV MUL DUP4 MSTORE SWAP2 PUSH1 0x20 ADD SWAP2 PUSH2 0xA9F JUMP JUMPDEST DUP3 ADD SWAP2 SWAP1 PUSH1 0x0 MSTORE PUSH1 0x20 PUSH1 0x0 KECCAK256 SWAP1 JUMPDEST DUP2 SLOAD DUP2 MSTORE SWAP1 PUSH1 0x1 ADD SWAP1 PUSH1 0x20 ADD DUP1 DUP4 GT PUSH2 0xA82 JUMPI DUP3 SWAP1 SUB PUSH1 0x1F AND DUP3 ADD SWAP2 JUMPDEST POP POP POP POP POP DUP2 MSTORE POP POP SWAP1 POP SWAP2 SWAP1 POP JUMP JUMPDEST PUSH1 0x1 DUP1 SLOAD PUSH2 0xABE SWAP1 DUP3 SWAP1 PUSH2 0x1198 JUMP JUMPDEST DUP2 SLOAD DUP2 LT PUSH2 0xACE JUMPI PUSH2 0xACE PUSH2 0x11AB JUMP JUMPDEST PUSH1 0x0 SWAP2 DUP3 MSTORE PUSH1 0x20 SWAP1 SWAP2 KECCAK256 PUSH1 0x3 PUSH1 0x5 SWAP1 SWAP3 MUL ADD ADD SLOAD PUSH1 0x1 DUP1 SLOAD PUSH2 0xAF1 SWAP1 DUP3 SWAP1 PUSH2 0x1198 JUMP JUMPDEST DUP2 SLOAD DUP2 LT PUSH2 0xB01 JUMPI PUSH2 0xB01 PUSH2 0x11AB JUMP JUMPDEST SWAP1 PUSH1 0x0 MSTORE PUSH1 0x20 PUSH1 0x0 KECCAK256 SWAP1 PUSH1 0x5 MUL ADD PUSH1 0x0 ADD PUSH1 0x1 ADD SLOAD SUB PUSH2 0xBC3 JUMPI PUSH1 0x40 DUP1 MLOAD DUP1 DUP3 ADD SWAP1 SWAP2 MSTORE PUSH1 0x4 DUP2 MSTORE PUSH4 0x151A5959 PUSH1 0xE2 SHL PUSH1 0x20 DUP3 ADD MSTORE PUSH1 0x1 DUP1 SLOAD PUSH2 0xB45 SWAP1 DUP3 SWAP1 PUSH2 0x1198 JUMP JUMPDEST DUP2 SLOAD DUP2 LT PUSH2 0xB55 JUMPI PUSH2 0xB55 PUSH2 0x11AB JUMP JUMPDEST SWAP1 PUSH1 0x0 MSTORE PUSH1 0x20 PUSH1 0x0 KECCAK256 SWAP1 PUSH1 0x5 MUL ADD PUSH1 0x4 ADD SWAP1 DUP2 PUSH2 0xB72 SWAP2 SWAP1 PUSH2 0x10C2 JUMP JUMPDEST POP PUSH32 0xCDE5C32C0A45FD8AA4B65EA8003FC9DA9ACD5E2C6C24A9FCCE6AB79CABBD9122 PUSH1 0x40 MLOAD PUSH2 0xBB9 SWAP1 PUSH1 0x20 DUP1 DUP3 MSTORE PUSH1 0x4 SWAP1 DUP3 ADD MSTORE PUSH4 0x151A5959 PUSH1 0xE2 SHL PUSH1 0x40 DUP3 ADD MSTORE PUSH1 0x60 ADD SWAP1 JUMP JUMPDEST PUSH1 0x40 MLOAD DUP1 SWAP2 SUB SWAP1 LOG1 JUMP JUMPDEST PUSH1 0x1 DUP1 SLOAD PUSH2 0xBD2 SWAP1 DUP3 SWAP1 PUSH2 0x1198 JUMP JUMPDEST DUP2 SLOAD DUP2 LT PUSH2 0xBE2 JUMPI PUSH2 0xBE2 PUSH2 0x11AB JUMP JUMPDEST SWAP1 PUSH1 0x0 MSTORE PUSH1 0x20 PUSH1 0x0 KECCAK256 SWAP1 PUSH1 0x5 MUL ADD PUSH1 0x0 ADD PUSH1 0x1 ADD SLOAD PUSH1 0x1 EQ DUP1 ISZERO PUSH2 0xC39 JUMPI POP PUSH1 0x1 DUP1 SLOAD PUSH2 0xC10 SWAP1 DUP3 SWAP1 PUSH2 0x1198 JUMP JUMPDEST DUP2 SLOAD DUP2 LT PUSH2 0xC20 JUMPI PUSH2 0xC20 PUSH2 0x11AB JUMP JUMPDEST SWAP1 PUSH1 0x0 MSTORE PUSH1 0x20 PUSH1 0x0 KECCAK256 SWAP1 PUSH1 0x5 MUL ADD PUSH1 0x2 ADD PUSH1 0x1 ADD SLOAD PUSH1 0x2 EQ JUMPDEST DUP1 PUSH2 0xCB5 JUMPI POP PUSH1 0x1 DUP1 SLOAD PUSH2 0xC4E SWAP1 DUP3 SWAP1 PUSH2 0x1198 JUMP JUMPDEST DUP2 SLOAD DUP2 LT PUSH2 0xC5E JUMPI PUSH2 0xC5E PUSH2 0x11AB JUMP JUMPDEST SWAP1 PUSH1 0x0 MSTORE PUSH1 0x20 PUSH1 0x0 KECCAK256 SWAP1 PUSH1 0x5 MUL ADD PUSH1 0x0 ADD PUSH1 0x1 ADD SLOAD PUSH1 0x3 EQ DUP1 ISZERO PUSH2 0xCB5 JUMPI POP PUSH1 0x1 DUP1 SLOAD PUSH2 0xC8C SWAP1 DUP3 SWAP1 PUSH2 0x1198 JUMP JUMPDEST DUP2 SLOAD DUP2 LT PUSH2 0xC9C JUMPI PUSH2 0xC9C PUSH2 0x11AB JUMP JUMPDEST SWAP1 PUSH1 0x0 MSTORE PUSH1 0x20 PUSH1 0x0 KECCAK256 SWAP1 PUSH1 0x5 MUL ADD PUSH1 0x2 ADD PUSH1 0x1 ADD SLOAD PUSH1 0x1 EQ JUMPDEST DUP1 PUSH2 0xD31 JUMPI POP PUSH1 0x1 DUP1 SLOAD PUSH2 0xCCA SWAP1 DUP3 SWAP1 PUSH2 0x1198 JUMP JUMPDEST DUP2 SLOAD DUP2 LT PUSH2 0xCDA JUMPI PUSH2 0xCDA PUSH2 0x11AB JUMP JUMPDEST SWAP1 PUSH1 0x0 MSTORE PUSH1 0x20 PUSH1 0x0 KECCAK256 SWAP1 PUSH1 0x5 MUL ADD PUSH1 0x0 ADD PUSH1 0x1 ADD SLOAD PUSH1 0x2 EQ DUP1 ISZERO PUSH2 0xD31 JUMPI POP PUSH1 0x1 DUP1 SLOAD PUSH2 0xD08 SWAP1 DUP3 SWAP1 PUSH2 0x1198 JUMP JUMPDEST DUP2 SLOAD DUP2 LT PUSH2 0xD18 JUMPI PUSH2 0xD18 PUSH2 0x11AB JUMP JUMPDEST SWAP1 PUSH1 0x0 MSTORE PUSH1 0x20 PUSH1 0x0 KECCAK256 SWAP1 PUSH1 0x5 MUL ADD PUSH1 0x2 ADD PUSH1 0x1 ADD SLOAD PUSH1 0x3 EQ JUMPDEST ISZERO PUSH2 0xDDE JUMPI PUSH1 0x40 DUP1 MLOAD DUP1 DUP3 ADD SWAP1 SWAP2 MSTORE PUSH1 0x9 DUP2 MSTORE PUSH9 0x2AB9B2B919103BB4B7 PUSH1 0xB9 SHL PUSH1 0x20 DUP3 ADD MSTORE PUSH1 0x1 DUP1 SLOAD PUSH2 0xD65 SWAP1 DUP3 SWAP1 PUSH2 0x1198 JUMP JUMPDEST DUP2 SLOAD DUP2 LT PUSH2 0xD75 JUMPI PUSH2 0xD75 PUSH2 0x11AB JUMP JUMPDEST SWAP1 PUSH1 0x0 MSTORE PUSH1 0x20 PUSH1 0x0 KECCAK256 SWAP1 PUSH1 0x5 MUL ADD PUSH1 0x4 ADD SWAP1 DUP2 PUSH2 0xD92 SWAP2 SWAP1 PUSH2 0x10C2 JUMP JUMPDEST POP PUSH32 0xCDE5C32C0A45FD8AA4B65EA8003FC9DA9ACD5E2C6C24A9FCCE6AB79CABBD9122 PUSH1 0x40 MLOAD PUSH2 0xBB9 SWAP1 PUSH1 0x20 DUP1 DUP3 MSTORE PUSH1 0x9 SWAP1 DUP3 ADD MSTORE PUSH9 0x2AB9B2B919103BB4B7 PUSH1 0xB9 SHL PUSH1 0x40 DUP3 ADD MSTORE PUSH1 0x60 ADD SWAP1 JUMP JUMPDEST PUSH1 0x40 DUP1 MLOAD DUP1 DUP3 ADD SWAP1 SWAP2 MSTORE PUSH1 0x9 DUP2 MSTORE PUSH9 0x2AB9B2B918903BB4B7 PUSH1 0xB9 SHL PUSH1 0x20 DUP3 ADD MSTORE PUSH1 0x1 DUP1 SLOAD PUSH2 0xE0D SWAP1 DUP3 SWAP1 PUSH2 0x1198 JUMP JUMPDEST DUP2 SLOAD DUP2 LT PUSH2 0xE1D JUMPI PUSH2 0xE1D PUSH2 0x11AB JUMP JUMPDEST SWAP1 PUSH1 0x0 MSTORE PUSH1 0x20 PUSH1 0x0 KECCAK256 SWAP1 PUSH1 0x5 MUL ADD PUSH1 0x4 ADD SWAP1 DUP2 PUSH2 0xE3A SWAP2 SWAP1 PUSH2 0x10C2 JUMP JUMPDEST POP PUSH32 0xCDE5C32C0A45FD8AA4B65EA8003FC9DA9ACD5E2C6C24A9FCCE6AB79CABBD9122 PUSH1 0x40 MLOAD PUSH2 0xBB9 SWAP1 PUSH1 0x20 DUP1 DUP3 MSTORE PUSH1 0x9 SWAP1 DUP3 ADD MSTORE PUSH9 0x2AB9B2B918903BB4B7 PUSH1 0xB9 SHL PUSH1 0x40 DUP3 ADD MSTORE PUSH1 0x60 ADD SWAP1 JUMP JUMPDEST PUSH1 0x40 DUP1 MLOAD PUSH1 0xA0 DUP2 ADD SWAP1 SWAP2 MSTORE PUSH1 0x0 PUSH1 0x60 DUP3 ADD DUP2 DUP2 MSTORE PUSH1 0x80 DUP4 ADD SWAP2 SWAP1 SWAP2 MSTORE DUP2 SWAP1 DUP2 MSTORE PUSH1 0x20 ADD PUSH2 0xEC3 PUSH1 0x40 DUP1 MLOAD DUP1 DUP3 ADD SWAP1 SWAP2 MSTORE PUSH1 0x0 DUP1 DUP3 MSTORE PUSH1 0x20 DUP3 ADD MSTORE SWAP1 JUMP JUMPDEST DUP2 MSTORE PUSH1 0x20 ADD PUSH1 0x60 DUP2 MSTORE POP SWAP1 JUMP JUMPDEST PUSH2 0xEEE DUP3 DUP3 MLOAD DUP1 MLOAD PUSH1 0x1 PUSH1 0x1 PUSH1 0xA0 SHL SUB AND DUP3 MSTORE PUSH1 0x20 SWAP1 DUP2 ADD MLOAD SWAP2 ADD MSTORE JUMP JUMPDEST PUSH1 0x0 PUSH1 0x20 DUP1 DUP4 ADD MLOAD PUSH2 0xF16 PUSH1 0x40 DUP7 ADD DUP3 DUP1 MLOAD PUSH1 0x1 PUSH1 0x1 PUSH1 0xA0 SHL SUB AND DUP3 MSTORE PUSH1 0x20 SWAP1 DUP2 ADD MLOAD SWAP2 ADD MSTORE JUMP JUMPDEST POP PUSH1 0x40 DUP4 ADD MLOAD PUSH1 0xA0 PUSH1 0x80 DUP7 ADD MSTORE DUP1 MLOAD DUP1 PUSH1 0xA0 DUP8 ADD MSTORE PUSH1 0x0 JUMPDEST DUP2 DUP2 LT ISZERO PUSH2 0xF4A JUMPI DUP3 DUP2 ADD DUP5 ADD MLOAD DUP8 DUP3 ADD PUSH1 0xC0 ADD MSTORE DUP4 ADD PUSH2 0xF2E JUMP JUMPDEST POP PUSH1 0x0 PUSH1 0xC0 DUP3 DUP9 ADD ADD MSTORE PUSH1 0xC0 PUSH1 0x1F NOT PUSH1 0x1F DUP4 ADD AND DUP8 ADD ADD SWAP4 POP POP POP POP SWAP3 SWAP2 POP POP JUMP JUMPDEST PUSH1 0x0 PUSH1 0x20 DUP1 DUP4 ADD DUP2 DUP5 MSTORE DUP1 DUP6 MLOAD DUP1 DUP4 MSTORE PUSH1 0x40 DUP7 ADD SWAP2 POP PUSH1 0x40 DUP2 PUSH1 0x5 SHL DUP8 ADD ADD SWAP3 POP DUP4 DUP8 ADD PUSH1 0x0 JUMPDEST DUP3 DUP2 LT ISZERO PUSH2 0xFC1 JUMPI PUSH1 0x3F NOT DUP9 DUP7 SUB ADD DUP5 MSTORE PUSH2 0xFAF DUP6 DUP4 MLOAD PUSH2 0xED0 JUMP JUMPDEST SWAP5 POP SWAP3 DUP6 ADD SWAP3 SWAP1 DUP6 ADD SWAP1 PUSH1 0x1 ADD PUSH2 0xF93 JUMP JUMPDEST POP SWAP3 SWAP8 SWAP7 POP POP POP POP POP POP POP JUMP JUMPDEST PUSH1 0x0 PUSH1 0x20 DUP3 DUP5 SUB SLT ISZERO PUSH2 0xFE0 JUMPI PUSH1 0x0 DUP1 REVERT JUMPDEST POP CALLDATALOAD SWAP2 SWAP1 POP JUMP JUMPDEST DUP2 MLOAD PUSH1 0x1 PUSH1 0x1 PUSH1 0xA0 SHL SUB AND DUP2 MSTORE PUSH1 0x20 DUP1 DUP4 ADD MLOAD SWAP1 DUP3 ADD MSTORE PUSH1 0x40 DUP2 ADD JUMPDEST SWAP3 SWAP2 POP POP JUMP JUMPDEST PUSH1 0x20 DUP2 MSTORE PUSH1 0x0 PUSH2 0x101C PUSH1 0x20 DUP4 ADD DUP5 PUSH2 0xED0 JUMP JUMPDEST SWAP4 SWAP3 POP POP POP JUMP JUMPDEST PUSH1 0x1 DUP2 DUP2 SHR SWAP1 DUP3 AND DUP1 PUSH2 0x1037 JUMPI PUSH1 0x7F DUP3 AND SWAP2 POP JUMPDEST PUSH1 0x20 DUP3 LT DUP2 SUB PUSH2 0x1057 JUMPI PUSH4 0x4E487B71 PUSH1 0xE0 SHL PUSH1 0x0 MSTORE PUSH1 0x22 PUSH1 0x4 MSTORE PUSH1 0x24 PUSH1 0x0 REVERT JUMPDEST POP SWAP2 SWAP1 POP JUMP JUMPDEST PUSH4 0x4E487B71 PUSH1 0xE0 SHL PUSH1 0x0 MSTORE PUSH1 0x41 PUSH1 0x4 MSTORE PUSH1 0x24 PUSH1 0x0 REVERT JUMPDEST PUSH1 0x1F DUP3 GT ISZERO PUSH2 0x10BD JUMPI PUSH1 0x0 DUP2 DUP2 MSTORE PUSH1 0x20 DUP2 KECCAK256 PUSH1 0x1F DUP6 ADD PUSH1 0x5 SHR DUP2 ADD PUSH1 0x20 DUP7 LT ISZERO PUSH2 0x109A JUMPI POP DUP1 JUMPDEST PUSH1 0x1F DUP6 ADD PUSH1 0x5 SHR DUP3 ADD SWAP2 POP JUMPDEST DUP2 DUP2 LT ISZERO PUSH2 0x10B9 JUMPI DUP3 DUP2 SSTORE PUSH1 0x1 ADD PUSH2 0x10A6 JUMP JUMPDEST POP POP POP JUMPDEST POP POP POP JUMP JUMPDEST DUP2 MLOAD PUSH8 0xFFFFFFFFFFFFFFFF DUP2 GT ISZERO PUSH2 0x10DC JUMPI PUSH2 0x10DC PUSH2 0x105D JUMP JUMPDEST PUSH2 0x10F0 DUP2 PUSH2 0x10EA DUP5 SLOAD PUSH2 0x1023 JUMP JUMPDEST DUP5 PUSH2 0x1073 JUMP JUMPDEST PUSH1 0x20 DUP1 PUSH1 0x1F DUP4 GT PUSH1 0x1 DUP2 EQ PUSH2 0x1125 JUMPI PUSH1 0x0 DUP5 ISZERO PUSH2 0x110D JUMPI POP DUP6 DUP4 ADD MLOAD JUMPDEST PUSH1 0x0 NOT PUSH1 0x3 DUP7 SWAP1 SHL SHR NOT AND PUSH1 0x1 DUP6 SWAP1 SHL OR DUP6 SSTORE PUSH2 0x10B9 JUMP JUMPDEST PUSH1 0x0 DUP6 DUP2 MSTORE PUSH1 0x20 DUP2 KECCAK256 PUSH1 0x1F NOT DUP7 AND SWAP2 JUMPDEST DUP3 DUP2 LT ISZERO PUSH2 0x1154 JUMPI DUP9 DUP7 ADD MLOAD DUP3 SSTORE SWAP5 DUP5 ADD SWAP5 PUSH1 0x1 SWAP1 SWAP2 ADD SWAP1 DUP5 ADD PUSH2 0x1135 JUMP JUMPDEST POP DUP6 DUP3 LT ISZERO PUSH2 0x1172 JUMPI DUP8 DUP6 ADD MLOAD PUSH1 0x0 NOT PUSH1 0x3 DUP9 SWAP1 SHL PUSH1 0xF8 AND SHR NOT AND DUP2 SSTORE JUMPDEST POP POP POP POP POP PUSH1 0x1 SWAP1 DUP2 SHL ADD SWAP1 SSTORE POP JUMP JUMPDEST PUSH4 0x4E487B71 PUSH1 0xE0 SHL PUSH1 0x0 MSTORE PUSH1 0x11 PUSH1 0x4 MSTORE PUSH1 0x24 PUSH1 0x0 REVERT JUMPDEST DUP2 DUP2 SUB DUP2 DUP2 GT ISZERO PUSH2 0x1003 JUMPI PUSH2 0x1003 PUSH2 0x1182 JUMP JUMPDEST PUSH4 0x4E487B71 PUSH1 0xE0 SHL PUSH1 0x0 MSTORE PUSH1 0x32 PUSH1 0x4 MSTORE PUSH1 0x24 PUSH1 0x0 REVERT JUMPDEST PUSH1 0x0 PUSH1 0x1 DUP3 ADD PUSH2 0x11D3 JUMPI PUSH2 0x11D3 PUSH2 0x1182 JUMP JUMPDEST POP PUSH1 0x1 ADD SWAP1 JUMP INVALID LOG2 PUSH5 0x6970667358 0x22 SLT KECCAK256 STATICCALL GASLIMIT KECCAK256 0xBA PUSH1 0x45 REVERT CODESIZE 0xB9 0xC5 DUP2 RETURNDATACOPY EXP 0x1E 0x5E GT DUP5 0xD5 JUMPI 0xE8 BLOCKHASH PUSH13 0xC8A53706F737C3D9C1DA64736F PUSH13 0x63430008130033000000000000 "
		},
		"gasEstimates": {
			"creation": {
				"codeDepositCost": "924800",
				"executionCost": "28074",
				"totalCost": "952874"
			},
			"external": {
				"getGameHistory()": "infinite",
				"getSpecificGameHistory(uint256)": "infinite",
				"getUser1(uint256)": "9091",
				"getUserOption(uint256)": "infinite",
				"play(uint256)": "infinite"
			},
			"internal": {
				"ChooseRandomUser()": "infinite",
				"game()": "infinite",
				"newgame()": "infinite"
			}
		},
		"methodIdentifiers": {
			"getGameHistory()": "512ec557",
			"getSpecificGameHistory(uint256)": "f7c4efbb",
			"getUser1(uint256)": "e417f4a3",
			"getUserOption(uint256)": "adf496b5",
			"play(uint256)": "6898f82b"
		}
	},
	"abi": [
		{
			"anonymous": false,
			"inputs": [
				{
					"indexed": false,
					"internalType": "string",
					"name": "",
					"type": "string"
				}
			],
			"name": "showError",
			"type": "event"
		},
		{
			"anonymous": false,
			"inputs": [
				{
					"indexed": false,
					"internalType": "string",
					"name": "logResult",
					"type": "string"
				}
			],
			"name": "showResult",
			"type": "event"
		},
		{
			"anonymous": false,
			"inputs": [
				{
					"indexed": true,
					"internalType": "address",
					"name": "logUserAddress",
					"type": "address"
				}
			],
			"name": "showUserAddress",
			"type": "event"
		},
		{
			"inputs": [],
			"name": "getGameHistory",
			"outputs": [
				{
					"components": [
						{
							"components": [
								{
									"internalType": "address",
									"name": "userAddress",
									"type": "address"
								},
								{
									"internalType": "uint256",
									"name": "userOption",
									"type": "uint256"
								}
							],
							"internalType": "struct RockPaperScissors.UserInfo",
							"name": "user1",
							"type": "tuple"
						},
						{
							"components": [
								{
									"internalType": "address",
									"name": "userAddress",
									"type": "address"
								},
								{
									"internalType": "uint256",
									"name": "userOption",
									"type": "uint256"
								}
							],
							"internalType": "struct RockPaperScissors.UserInfo",
							"name": "user2",
							"type": "tuple"
						},
						{
							"internalType": "string",
							"name": "finalResult",
							"type": "string"
						}
					],
					"internalType": "struct RockPaperScissors.GameInfo[]",
					"name": "",
					"type": "tuple[]"
				}
			],
			"stateMutability": "view",
			"type": "function"
		},
		{
			"inputs": [
				{
					"internalType": "uint256",
					"name": "index",
					"type": "uint256"
				}
			],
			"name": "getSpecificGameHistory",
			"outputs": [
				{
					"components": [
						{
							"components": [
								{
									"internalType": "address",
									"name": "userAddress",
									"type": "address"
								},
								{
									"internalType": "uint256",
									"name": "userOption",
									"type": "uint256"
								}
							],
							"internalType": "struct RockPaperScissors.UserInfo",
							"name": "user1",
							"type": "tuple"
						},
						{
							"components": [
								{
									"internalType": "address",
									"name": "userAddress",
									"type": "address"
								},
								{
									"internalType": "uint256",
									"name": "userOption",
									"type": "uint256"
								}
							],
							"internalType": "struct RockPaperScissors.UserInfo",
							"name": "user2",
							"type": "tuple"
						},
						{
							"internalType": "string",
							"name": "finalResult",
							"type": "string"
						}
					],
					"internalType": "struct RockPaperScissors.GameInfo",
					"name": "",
					"type": "tuple"
				}
			],
			"stateMutability": "view",
			"type": "function"
		},
		{
			"inputs": [
				{
					"internalType": "uint256",
					"name": "index",
					"type": "uint256"
				}
			],
			"name": "getUser1",
			"outputs": [
				{
					"components": [
						{
							"internalType": "address",
							"name": "userAddress",
							"type": "address"
						},
						{
							"internalType": "uint256",
							"name": "userOption",
							"type": "uint256"
						}
					],
					"internalType": "struct RockPaperScissors.UserInfo",
					"name": "",
					"type": "tuple"
				}
			],
			"stateMutability": "view",
			"type": "function"
		},
		{
			"inputs": [
				{
					"internalType": "uint256",
					"name": "option",
					"type": "uint256"
				}
			],
			"name": "getUserOption",
			"outputs": [],
			"stateMutability": "nonpayable",
			"type": "function"
		},
		{
			"inputs": [
				{
					"internalType": "uint256",
					"name": "option",
					"type": "uint256"
				}
			],
			"name": "play",
			"outputs": [],
			"stateMutability": "nonpayable",
			"type": "function"
		}
	]
}