{
	"data": {
		"bytecode": {
			"linkReferences": {},
			"object": "600080546001600160a01b031990811673927e818ddcab12d025495b228a4ce1dae82798ec178255678ac7230489e80000600190815560028054909216733ce5a8a72820585c60f659896338d573471969911782556005600381815560048281556101808681526101a08590526101c086905260809081526101e083815261020083905261022085905260a05260066102408181526007610260819052600861028081905260c0929092526102a08a81526102c0969096526102e083905260e0959095526103009687526103208490526103409490945261010095909552610360868152610380949094526103a0839052610120939093526103c09586526103e0819052610400829052610140959095526104806040526104209384526104409490945261046091909152610160919091526200013e91908162000165565b503480156200014c57600080fd5b50600680546001600160a01b031916331790556200026f565b828054828255906000526020600020908101928215620001b1579160200282015b82811115620001b1578251620001a09083906003620001c3565b509160200191906001019062000186565b50620001bf92915062000214565b5090565b82805482825590600052602060002090810192821562000206579160200282015b8281111562000206578251829060ff16905591602001919060010190620001e4565b50620001bf92915062000235565b80821115620001bf5760006200022b82826200024c565b5060010162000214565b5b80821115620001bf576000815560010162000236565b50805460008255906000526020600020908101906200026c919062000235565b50565b613b36806200027f6000396000f3fe608060405234801561001057600080fd5b50600436106101375760003560e01c8063888b042f116100b8578063bed34bba1161007c578063bed34bba1461029b578063cc32d176146102be578063dc572c6e146102c7578063edb84ff7146102e7578063fa968eea146102ef578063fce589d8146102f857600080fd5b8063888b042f146102455780638da5cb5b1461024d578063b2182be414610260578063b60b9fcb14610280578063b7b524a11461029357600080fd5b80634a968391116100ff5780634a968391146101b957806352bc3410146101cc57806361d027b3146101df5780637effb4271461020a57806387052fab1461021d57600080fd5b806306139e8d1461013c57806317b44960146101515780631a39d8ef1461017a57806334fd351814610191578063491f0136146101a4575b600080fd5b61014f61014a366004613124565b610301565b005b61016461015f366004613124565b6109d0565b604051610171919061313d565b60405180910390f35b61018360055481565b604051908152602001610171565b61014f61019f366004613124565b610a4c565b6101ac610b16565b6040516101719190613341565b61014f6101c7366004613124565b610da7565b61014f6101da3660046133a3565b610f27565b6002546101f2906001600160a01b031681565b6040516001600160a01b039091168152602001610171565b6000546101f2906001600160a01b031681565b61023061022b366004613124565b611352565b604051610171999897969594939291906133c5565b61014f611448565b6006546101f2906001600160a01b031681565b61027361026e366004613124565b61164b565b6040516101719190613427565b61014f61028e3660046133a3565b6118b1565b61014f611fa5565b6102ae6102a93660046134e4565b6121e7565b6040519015158152602001610171565b61018360045481565b6102da6102d5366004613124565b612241565b6040516101719190613548565b61014f61233e565b61018360015481565b61018360035481565b600654600160a01b900460ff16156103585760405162461bcd60e51b8152602060048201526015602482015274115c9c9bdc8e881499595b9d1c985b9d0818d85b1b605a1b60448201526064015b60405180910390fd5b6006805460ff60a01b1916600160a01b1790556000546040516370a0823160e01b815233600482015282916001600160a01b0316906370a0823190602401602060405180830381865afa1580156103b3573d6000803e3d6000fd5b505050506040513d601f19601f820116820180604052508101906103d7919061359d565b101561041a5760405162461bcd60e51b81526020600482015260126024820152714e6f7420656e6f7567682062616c616e636560701b604482015260640161034f565b60015481101561046c5760405162461bcd60e51b815260206004820152601a60248201527f4e65656420746f20706179206d696e2062657420616d6f756e74000000000000604482015260640161034f565b600060646003548361047e91906135cc565b61048891906135e3565b9050600060646004548461049c91906135cc565b6104a691906135e3565b90506000816104b58486613605565b6104bf9190613605565b6000546040516323b872dd60e01b81529192506001600160a01b0316906323b872dd906104f690339061dead908890600401613618565b6020604051808303816000875af1158015610515573d6000803e3d6000fd5b505050506040513d601f19601f82011682018060405250810190610539919061363c565b506000546002546040516323b872dd60e01b81526001600160a01b03928316926323b872dd92610573923392909116908790600401613618565b6020604051808303816000875af1158015610592573d6000803e3d6000fd5b505050506040513d601f19601f820116820180604052508101906105b6919061363c565b506000546040516323b872dd60e01b81526001600160a01b03909116906323b872dd906105eb90339030908690600401613618565b6020604051808303816000875af115801561060a573d6000803e3d6000fd5b505050506040513d601f19601f8201168201806040525081019061062e919061363c565b508060056000828254610641919061365e565b9091555061064f9050612f5e565b6007805460018101825560009190915281517fa66cc928b5edb82af9bd49922954155ab7b0942694bea4ce44661d9a8736c688600b909202918201805460ff1916911515919091178155602083015183927fa66cc928b5edb82af9bd49922954155ab7b0942694bea4ce44661d9a8736c68901906106cd90826136fa565b50604082015180516106e9916002840191602090910190612fd5565b506060820151805161070591600384019160209091019061302b565b5060808201516004820180546001600160a01b03199081166001600160a01b039384161790915560a0840151600584018054831691841691909117905560c0840151600684015560e084015160078085018054909316919093161790556101008301516008830155610120830151600983015561014090920151600a909101558054903390610795600184613605565b815481106107a5576107a56137ba565b600091825260208220600b919091020160040180546001600160a01b0319166001600160a01b03939093169290921790915560076107e4600184613605565b815481106107f4576107f46137ba565b60009182526020909120600b90910201805460ff1916911515919091179055600160076108218284613605565b81548110610831576108316137ba565b90600052602060002090600b020160060181905550604051806040016040528060018152602001600b60fb1b815250600760018361086f9190613605565b8154811061087f5761087f6137ba565b90600052602060002090600b0201600101908161089c91906136fa565b508560076108ab600184613605565b815481106108bb576108bb6137ba565b600091825260209091206008600b9092020101558260076108dd600184613605565b815481106108ed576108ed6137ba565b90600052602060002090600b0201600a018190555060005b600981101561097d57600761091b600184613605565b8154811061092b5761092b6137ba565b600091825260208083206002600b90930201919091018054600181018255908352818320604080519384019052928252919091019061096a90826136fa565b5080610975816137d0565b915050610905565b507fbbba82573073a1190d559566d39447b5e1ad7724b88b63bc98867d229a645b6b6109aa600183613605565b60405190815260200160405180910390a150506006805460ff60a01b1916905550505050565b6060600782815481106109e5576109e56137ba565b90600052602060002090600b0201600301805480602002602001604051908101604052809291908181526020018280548015610a4057602002820191906000526020600020905b815481526020019060010190808311610a2c575b50505050509050919050565b610a5581612401565b610aa15760405162461bcd60e51b815260206004820152601c60248201527f796f7520617265206e6f7420746869732067616d6520706c6179657200000000604482015260640161034f565b60078181548110610ab457610ab46137ba565b60009182526020909120600b909102015460ff1615610b0a5760405162461bcd60e51b815260206004820152601260248201527147616d65207374696c6c20706c6179696e6760701b604482015260640161034f565b610b1381610da7565b50565b60606007805480602002602001604051908101604052809291908181526020016000905b82821015610d9e576000848152602090819020604080516101608101909152600b8502909101805460ff16151582526001810180549293919291840191610b8090613671565b80601f0160208091040260200160405190810160405280929190818152602001828054610bac90613671565b8015610bf95780601f10610bce57610100808354040283529160200191610bf9565b820191906000526020600020905b815481529060010190602001808311610bdc57829003601f168201915b5050505050815260200160028201805480602002602001604051908101604052809291908181526020016000905b82821015610cd3578382906000526020600020018054610c4690613671565b80601f0160208091040260200160405190810160405280929190818152602001828054610c7290613671565b8015610cbf5780601f10610c9457610100808354040283529160200191610cbf565b820191906000526020600020905b815481529060010190602001808311610ca257829003601f168201915b505050505081526020019060010190610c27565b50505050815260200160038201805480602002602001604051908101604052809291908181526020018280548015610d2a57602002820191906000526020600020905b815481526020019060010190808311610d16575b505050918352505060048201546001600160a01b039081166020808401919091526005840154821660408401526006840154606084015260078401549091166080830152600883015460a0830152600983015460c0830152600a9092015460e0909101529082526001929092019101610b3a565b50505050905090565b604051806040016040528060018152602001600b60fb1b81525060078281548110610dd457610dd46137ba565b90600052602060002090600b02016001019081610df191906136fa565b5060408051610140810182526000610120820181815282528251602081810185528282528084019190915283518082018552828152838501528351808201855282815260608401528351808201855282815260808401528351808201855282815260a08401528351808201855282815260c08401528351808201855282815260e0840152835190810190935282526101008101919091526007805483908110610e9c57610e9c6137ba565b90600052602060002090600b0201600201906009610ebb929190613072565b50600160078281548110610ed157610ed16137ba565b6000918252602091829020600b90910201805460ff1916921515929092179091556040518281527fc5478e3fe602c65e5cdd37abe42a8e007ff762d266b9e8256769194c1fa1361e91015b60405180910390a150565b60078181548110610f3a57610f3a6137ba565b60009182526020909120600b909102015460ff16610f9a5760405162461bcd60e51b815260206004820152601c60248201527f5468652067616d65207374696c6c206e6f742073746172742079657400000000604482015260640161034f565b61107a60078281548110610fb057610fb06137ba565b90600052602060002090600b02016002018381548110610fd257610fd26137ba565b906000526020600020018054610fe790613671565b80601f016020809104026020016040519081016040528092919081815260200182805461101390613671565b80156110605780601f1061103557610100808354040283529160200191611060565b820191906000526020600020905b81548152906001019060200180831161104357829003601f168201915b5050505050604051806020016040528060008152506121e7565b6110b65760405162461bcd60e51b815260206004820152600d60248201526c125b9d985b1a59081a5b9c1d5d609a1b604482015260640161034f565b611185600782815481106110cc576110cc6137ba565b90600052602060002090600b020160010180546110e890613671565b80601f016020809104026020016040519081016040528092919081815260200182805461111490613671565b80156111615780601f1061113657610100808354040283529160200191611161565b820191906000526020600020905b81548152906001019060200180831161114457829003601f168201915b5050505050604051806040016040528060018152602001600b60fb1b8152506121e7565b15611204576007818154811061119d5761119d6137ba565b60009182526020909120600b90910201600401546001600160a01b031633146111ff5760405162461bcd60e51b8152602060048201526014602482015273596f7520617265206e6f7420706c61796572203160601b604482015260640161034f565b611279565b60078181548110611217576112176137ba565b60009182526020909120600b90910201600501546001600160a01b031633146112795760405162461bcd60e51b81526020600482015260146024820152732cb7ba9030b932903737ba10383630bcb2b9101960611b604482015260640161034f565b6007818154811061128c5761128c6137ba565b90600052602060002090600b0201600101600782815481106112b0576112b06137ba565b90600052602060002090600b020160020183815481106112d2576112d26137ba565b9060005260206000200190816112e891906137e9565b507f9659242f3970136bf08cba261398ae9f0bc58a676137d79d3c2040dcdacbc18b6007828154811061131d5761131d6137ba565b90600052602060002090600b02016002018260405161133d92919061399a565b60405180910390a161134e81612481565b5050565b6007818154811061136257600080fd5b60009182526020909120600b90910201805460018201805460ff90921693509061138b90613671565b80601f01602080910402602001604051908101604052809291908181526020018280546113b790613671565b80156114045780601f106113d957610100808354040283529160200191611404565b820191906000526020600020905b8154815290600101906020018083116113e757829003601f168201915b505050600484015460058501546006860154600787015460088801546009890154600a9099015497986001600160a01b039586169894861697509295509316929189565b6006546001600160a01b031633146114925760405162461bcd60e51b815260206004820152600d60248201526c2737ba103a34329037bbb732b960991b604482015260640161034f565b600554600080546040516370a0823160e01b81523060048201529192916001600160a01b03909116906370a0823190602401602060405180830381865afa1580156114e1573d6000803e3d6000fd5b505050506040513d601f19601f82011682018060405250810190611505919061359d565b61150f9190613605565b116115555760405162461bcd60e51b815260206004820152601660248201527554686520746f6b656e206973206e6f7420657874726160501b604482015260640161034f565b6000546006546005546040516370a0823160e01b81523060048201526001600160a01b039384169363a9059cbb9316919084906370a0823190602401602060405180830381865afa1580156115ae573d6000803e3d6000fd5b505050506040513d601f19601f820116820180604052508101906115d2919061359d565b6115dc9190613605565b6040516001600160e01b031960e085901b1681526001600160a01b03909216600483015260248201526044016020604051808303816000875af1158015611627573d6000803e3d6000fd5b505050506040513d601f19601f82011682018060405250810190610b13919061363c565b611653612f5e565b60078281548110611666576116666137ba565b6000918252602091829020604080516101608101909152600b90920201805460ff161515825260018101805492939192918401916116a390613671565b80601f01602080910402602001604051908101604052809291908181526020018280546116cf90613671565b801561171c5780601f106116f15761010080835404028352916020019161171c565b820191906000526020600020905b8154815290600101906020018083116116ff57829003601f168201915b5050505050815260200160028201805480602002602001604051908101604052809291908181526020016000905b828210156117f657838290600052602060002001805461176990613671565b80601f016020809104026020016040519081016040528092919081815260200182805461179590613671565b80156117e25780601f106117b7576101008083540402835291602001916117e2565b820191906000526020600020905b8154815290600101906020018083116117c557829003601f168201915b50505050508152602001906001019061174a565b5050505081526020016003820180548060200260200160405190810160405280929190818152602001828054801561184d57602002820191906000526020600020905b815481526020019060010190808311611839575b505050918352505060048201546001600160a01b039081166020830152600583015481166040830152600683015460608301526007830154166080820152600882015460a0820152600982015460c0820152600a9091015460e09091015292915050565b600654600160a01b900460ff16156119035760405162461bcd60e51b8152602060048201526015602482015274115c9c9bdc8e881499595b9d1c985b9d0818d85b1b605a1b604482015260640161034f565b6006805460ff60a01b1916600160a01b179055600780548390811061192a5761192a6137ba565b90600052602060002090600b020160060154600103611ea15760078281548110611956576119566137ba565b600091825260208220600b91909102016008015490546040516370a0823160e01b81523360048201526001600160a01b03909116906370a0823190602401602060405180830381865afa1580156119b1573d6000803e3d6000fd5b505050506040513d601f19601f820116820180604052508101906119d5919061359d565b1015611a185760405162461bcd60e51b81526020600482015260126024820152714e6f7420656e6f7567682062616c616e636560701b604482015260640161034f565b60078281548110611a2b57611a2b6137ba565b90600052602060002090600b0201600801548114611a8b5760405162461bcd60e51b815260206004820152601a60248201527f4e65656420746f20706179206d696e2062657420616d6f756e74000000000000604482015260640161034f565b6000606460035483611a9d91906135cc565b611aa791906135e3565b90506000606460045484611abb91906135cc565b611ac591906135e3565b9050600081611ad48486613605565b611ade9190613605565b6000546040516323b872dd60e01b81529192506001600160a01b0316906323b872dd90611b1590339061dead908890600401613618565b6020604051808303816000875af1158015611b34573d6000803e3d6000fd5b505050506040513d601f19601f82011682018060405250810190611b58919061363c565b506000546002546040516323b872dd60e01b81526001600160a01b03928316926323b872dd92611b92923392909116908790600401613618565b6020604051808303816000875af1158015611bb1573d6000803e3d6000fd5b505050506040513d601f19601f82011682018060405250810190611bd5919061363c565b506000546040516323b872dd60e01b81526001600160a01b03909116906323b872dd90611c0a90339030908690600401613618565b6020604051808303816000875af1158015611c29573d6000803e3d6000fd5b505050506040513d601f19601f82011682018060405250810190611c4d919061363c565b508060056000828254611c60919061365e565b90915550506007805486908110611c7957611c796137ba565b600091825260209091206004600b9092020101546001600160a01b03163303611cf05760405162461bcd60e51b8152602060048201526024808201527f4572726f723a20596f752063616e6e6f7420706c6179207769746820796f757260448201526339b2b63360e11b606482015260840161034f565b3360078681548110611d0457611d046137ba565b90600052602060002090600b020160050160006101000a8154816001600160a01b0302191690836001600160a01b03160217905550600260078681548110611d4e57611d4e6137ba565b90600052602060002090600b020160060181905550600160078681548110611d7857611d786137ba565b90600052602060002090600b020160000160006101000a81548160ff0219169083151502179055508360078681548110611db457611db46137ba565b90600052602060002090600b0201600901819055507f2f78808c539fd07cb45456a5d5561c76d3d4005246faccb297481e511abc321a60078681548110611dfd57611dfd6137ba565b90600052602060002090600b020160040160009054906101000a90046001600160a01b031660078781548110611e3557611e356137ba565b6000918252602091829020600b91820201600501546040805160808082528101939093526a53746172742067616d652160a81b60a08401526001600160a01b039485169383019390935292909216908201526060810187905260c00160405180910390a1505050611f3b565b60078281548110611eb457611eb46137ba565b90600052602060002090600b020160060154600214611f3b5760405162461bcd60e51b815260206004820152603e60248201527f4e6f772071756575652069732066756c6c2c20747279206c617465722e20476160448201527f6d6520616c72656164792066756c6c20706c73206a6f696e206f746865720000606482015260840161034f565b7f50370b40bd566613cb1b12508c3114409e62c5c8de11be443cafc84462cf569960078381548110611f6f57611f6f6137ba565b90600052602060002090600b020183604051611f8c9291906139f1565b60405180910390a150506006805460ff60a01b19169055565b6000546040516370a0823160e01b81523060048201526064916001600160a01b0316906370a0823190602401602060405180830381865afa158015611fee573d6000803e3d6000fd5b505050506040513d601f19601f82011682018060405250810190612012919061359d565b116120755760405162461bcd60e51b815260206004820152602d60248201527f54686520636f6e747261637420646f6573206e6f74206861766520746f6b656e60448201526c39903a3790383937bb34b2329760991b606482015260840161034f565b6000546040516370a0823160e01b8152336004820152600a916001600160a01b0316906370a0823190602401602060405180830381865afa1580156120be573d6000803e3d6000fd5b505050506040513d601f19601f820116820180604052508101906120e2919061359d565b1061212f5760405162461bcd60e51b815260206004820152601a60248201527f596f75207374696c6c20676f7420656e6f75676820746f6b656e000000000000604482015260640161034f565b6000805460405163a9059cbb60e01b815233600482015268056bc75e2d6310000060248201526001600160a01b039091169063a9059cbb906044016020604051808303816000875af1158015612189573d6000803e3d6000fd5b505050506040513d601f19601f820116820180604052508101906121ad919061363c565b6040805133815282151560208201529192507f1d67794760bb3ea2174b2ccc7b8aa2d786ef61a72e7be363dab04929e3510b1c9101610f1c565b6000816040516020016121fa9190613ad1565b60405160208183030381529060405280519060200120836040516020016122219190613ad1565b604051602081830303815290604052805190602001201490505b92915050565b606060078281548110612256576122566137ba565b90600052602060002090600b0201600201805480602002602001604051908101604052809291908181526020016000905b828210156123335783829060005260206000200180546122a690613671565b80601f01602080910402602001604051908101604052809291908181526020018280546122d290613671565b801561231f5780601f106122f45761010080835404028352916020019161231f565b820191906000526020600020905b81548152906001019060200180831161230257829003601f168201915b505050505081526020019060010190612287565b505050509050919050565b6006546001600160a01b031633146123885760405162461bcd60e51b815260206004820152600d60248201526c2737ba103a34329037bbb732b960991b604482015260640161034f565b6000546006546040516370a0823160e01b81523060048201526001600160a01b039283169263a9059cbb92169083906370a0823190602401602060405180830381865afa1580156123dd573d6000803e3d6000fd5b505050506040513d601f19601f820116820180604052508101906115dc919061359d565b600060078281548110612416576124166137ba565b60009182526020909120600b90910201600401546001600160a01b031633148061246e57506007828154811061244e5761244e6137ba565b60009182526020909120600b90910201600501546001600160a01b031633145b61247957600061223b565b600192915050565b6000805b6008548110156129b4576000600882815481106124a4576124a46137ba565b906000526020600020018054806020026020016040519081016040528092919081815260200182805480156124f857602002820191906000526020600020905b8154815260200190600101908083116124e4575b50505050509050600060078581548110612514576125146137ba565b90600052602060002090600b020160020182600081518110612538576125386137ba565b602002602001015181548110612550576125506137ba565b90600052602060002001805461256590613671565b80601f016020809104026020016040519081016040528092919081815260200182805461259190613671565b80156125de5780601f106125b3576101008083540402835291602001916125de565b820191906000526020600020905b8154815290600101906020018083116125c157829003601f168201915b505050505090506000600786815481106125fa576125fa6137ba565b90600052602060002090600b02016002018360018151811061261e5761261e6137ba565b602002602001015181548110612636576126366137ba565b90600052602060002001805461264b90613671565b80601f016020809104026020016040519081016040528092919081815260200182805461267790613671565b80156126c45780601f10612699576101008083540402835291602001916126c4565b820191906000526020600020905b8154815290600101906020018083116126a757829003601f168201915b505050505090506000600787815481106126e0576126e06137ba565b90600052602060002090600b020160020184600281518110612704576127046137ba565b60200260200101518154811061271c5761271c6137ba565b90600052602060002001805461273190613671565b80601f016020809104026020016040519081016040528092919081815260200182805461275d90613671565b80156127aa5780601f1061277f576101008083540402835291602001916127aa565b820191906000526020600020905b81548152906001019060200180831161278d57829003601f168201915b505050505090506127ca83604051806020016040528060008152506121e7565b806127e957506127e982604051806020016040528060008152506121e7565b80612808575061280881604051806020016040528060008152506121e7565b1561281657505050506129a2565b61282083836121e7565b8015612831575061283182826121e7565b1561299d57836007888154811061284a5761284a6137ba565b90600052602060002090600b0201600301908051906020019061286e92919061302b565b50612885600788815481106110cc576110cc6137ba565b1561290f576007878154811061289d5761289d6137ba565b90600052602060002090600b020160040160009054906101000a90046001600160a01b0316600788815481106128d5576128d56137ba565b90600052602060002090600b020160070160006101000a8154816001600160a01b0302191690836001600160a01b03160217905550612990565b60078781548110612922576129226137ba565b90600052602060002090600b020160050160009054906101000a90046001600160a01b03166007888154811061295a5761295a6137ba565b90600052602060002090600b020160070160006101000a8154816001600160a01b0302191690836001600160a01b031602179055505b60019550505050506129b4565b505050505b806129ac816137d0565b915050612485565b508015612c99576129d1600783815481106110cc576110cc6137ba565b15612acb57600054600780546001600160a01b039092169163a9059cbb919085908110612a0057612a006137ba565b90600052602060002090600b020160040160009054906101000a90046001600160a01b031660078581548110612a3857612a386137ba565b90600052602060002090600b0201600a01546002612a5691906135cc565b6040516001600160e01b031960e085901b1681526001600160a01b03909216600483015260248201526044016020604051808303816000875af1158015612aa1573d6000803e3d6000fd5b505050506040513d601f19601f82011682018060405250810190612ac5919061363c565b50612bbc565b600054600780546001600160a01b039092169163a9059cbb919085908110612af557612af56137ba565b90600052602060002090600b020160050160009054906101000a90046001600160a01b031660078581548110612b2d57612b2d6137ba565b90600052602060002090600b0201600a01546002612b4b91906135cc565b6040516001600160e01b031960e085901b1681526001600160a01b03909216600483015260248201526044016020604051808303816000875af1158015612b96573d6000803e3d6000fd5b505050506040513d601f19601f82011682018060405250810190612bba919061363c565b505b60078281548110612bcf57612bcf6137ba565b90600052602060002090600b0201600a01546002612bed91906135cc565b60056000828254612bfe9190613605565b925050819055507f938a1c44580c51d01225d61fb97878104148b1cdc734eb45bc5b5b50533a492d60078381548110612c3957612c396137ba565b90600052602060002090600b020160010183604051612c59929190613aed565b60405180910390a1600060078381548110612c7657612c766137ba565b60009182526020909120600b90910201805460ff19169115159190911790555050565b612ca282612cfe565b15612cf55760408051818152600491810191909152634472617760e01b6060820152602081018390527f938a1c44580c51d01225d61fb97878104148b1cdc734eb45bc5b5b50533a492d90608001612c59565b61134e82612d92565b6000805b60078381548110612d1557612d156137ba565b90600052602060002090600b020160020180549050811015612d8957612d6960078481548110612d4757612d476137ba565b90600052602060002090600b02016002018281548110610fd257610fd26137ba565b15612d775750600092915050565b80612d81816137d0565b915050612d02565b50600192915050565b612da8600782815481106110cc576110cc6137ba565b15612e1b577feefc3fd775b975165c9d067e02fcd5bf5889d58041ae6ddaf94f2cc85300727260078281548110612de157612de16137ba565b6000918252602091829020600b9091020160050154604080516001600160a01b0390921682529181018490520160405180910390a1612e85565b7feefc3fd775b975165c9d067e02fcd5bf5889d58041ae6ddaf94f2cc85300727260078281548110612e4f57612e4f6137ba565b6000918252602091829020600b9091020160040154604080516001600160a01b0390921682529181018490520160405180910390a15b612e9b600782815481106110cc576110cc6137ba565b612ebe57604051806040016040528060018152602001600b60fb1b815250612ed9565b604051806040016040528060018152602001604f60f81b8152505b60078281548110612eec57612eec6137ba565b90600052602060002090600b02016001019081612f0991906136fa565b507fa6d1cb5f730b987124c37c3876130fddba49456449948ec4257360f5ab2851c060078281548110612f3e57612f3e6137ba565b90600052602060002090600b020160010182604051610f1c929190613aed565b60405180610160016040528060001515815260200160608152602001606081526020016060815260200160006001600160a01b0316815260200160006001600160a01b031681526020016000815260200160006001600160a01b031681526020016000815260200160008152602001600081525090565b82805482825590600052602060002090810192821561301b579160200282015b8281111561301b578251829061300b90826136fa565b5091602001919060010190612ff5565b506130279291506130b8565b5090565b828054828255906000526020600020908101928215613066579160200282015b8281111561306657825182559160200191906001019061304b565b506130279291506130d5565b82805482825590600052602060002090810192821561301b579160200282015b8281111561301b57825182906130a890826136fa565b5091602001919060010190613092565b808211156130275760006130cc82826130ea565b506001016130b8565b5b8082111561302757600081556001016130d6565b5080546130f690613671565b6000825580601f10613106575050565b601f016020900490600052602060002090810190610b1391906130d5565b60006020828403121561313657600080fd5b5035919050565b6020808252825182820181905260009190848201906040850190845b8181101561317557835183529284019291840191600101613159565b50909695505050505050565b60005b8381101561319c578181015183820152602001613184565b50506000910152565b600081518084526131bd816020860160208601613181565b601f01601f19169290920160200192915050565b600082825180855260208086019550808260051b84010181860160005b8481101561321c57601f1986840301895261320a8383516131a5565b988401989250908301906001016131ee565b5090979650505050505050565b600081518084526020808501945080840160005b838110156132595781518752958201959082019060010161323d565b509495945050505050565b80511515825260006101606020830151816020860152613286828601826131a5565b915050604083015184820360408601526132a082826131d1565b915050606083015184820360608601526132ba8282613229565b91505060808301516132d760808601826001600160a01b03169052565b5060a08301516132f260a08601826001600160a01b03169052565b5060c083015160c085015260e083015161331760e08601826001600160a01b03169052565b50610100838101519085015261012080840151908501526101409283015192909301919091525090565b6000602080830181845280855180835260408601915060408160051b870101925083870160005b8281101561339657603f19888603018452613384858351613264565b94509285019290850190600101613368565b5092979650505050505050565b600080604083850312156133b657600080fd5b50508035926020909101359150565b60006101208b151583528060208401526133e18184018c6131a5565b6001600160a01b039a8b166040850152988a166060840152505060808101959095529290951660a084015260c083015260e0820193909352610100019190915292915050565b60208152600061343a6020830184613264565b9392505050565b634e487b7160e01b600052604160045260246000fd5b600082601f83011261346857600080fd5b813567ffffffffffffffff8082111561348357613483613441565b604051601f8301601f19908116603f011681019082821181831017156134ab576134ab613441565b816040528381528660208588010111156134c457600080fd5b836020870160208301376000602085830101528094505050505092915050565b600080604083850312156134f757600080fd5b823567ffffffffffffffff8082111561350f57600080fd5b61351b86838701613457565b9350602085013591508082111561353157600080fd5b5061353e85828601613457565b9150509250929050565b6000602080830181845280855180835260408601915060408160051b870101925083870160005b8281101561339657603f1988860301845261358b8583516131a5565b9450928501929085019060010161356f565b6000602082840312156135af57600080fd5b5051919050565b634e487b7160e01b600052601160045260246000fd5b808202811582820484141761223b5761223b6135b6565b60008261360057634e487b7160e01b600052601260045260246000fd5b500490565b8181038181111561223b5761223b6135b6565b6001600160a01b039384168152919092166020820152604081019190915260600190565b60006020828403121561364e57600080fd5b8151801515811461343a57600080fd5b8082018082111561223b5761223b6135b6565b600181811c9082168061368557607f821691505b6020821081036136a557634e487b7160e01b600052602260045260246000fd5b50919050565b601f8211156136f557600081815260208120601f850160051c810160208610156136d25750805b601f850160051c820191505b818110156136f1578281556001016136de565b5050505b505050565b815167ffffffffffffffff81111561371457613714613441565b613728816137228454613671565b846136ab565b602080601f83116001811461375d57600084156137455750858301515b600019600386901b1c1916600185901b1785556136f1565b600085815260208120601f198616915b8281101561378c5788860151825594840194600190910190840161376d565b50858210156137aa5787850151600019600388901b60f8161c191681555b5050505050600190811b01905550565b634e487b7160e01b600052603260045260246000fd5b6000600182016137e2576137e26135b6565b5060010190565b8181036137f4575050565b6137fe8254613671565b67ffffffffffffffff81111561381657613816613441565b613824816137228454613671565b6000601f82116001811461385857600083156138405750848201545b600019600385901b1c1916600184901b1784556138bd565b600085815260209020601f19841690600086815260209020845b838110156138925782860154825560019586019590910190602001613872565b50858310156138b05781850154600019600388901b60f8161c191681555b50505060018360011b0184555b5050505050565b600081546138d181613671565b8085526020600183811680156138ee576001811461390857613936565b60ff1985168884015283151560051b880183019550613936565b866000528260002060005b8581101561392e5781548a8201860152908301908401613913565b890184019650505b505050505092915050565b600081548084526020808501808196508360051b81019150856000528260002060005b8581101561398d57828403895261397b84836138c4565b98850198935060019182019101613964565b5091979650505050505050565b6040815260006139ad6040830185613941565b90508260208301529392505050565b6000815480845260208085019450836000528060002060005b83811015613259578154875295820195600191820191016139d5565b60408152613a0d60408201613a07855460ff1690565b15159052565b6000610160806060840152613a296101a08401600187016138c4565b603f1980858303016080860152613a438260028901613941565b9150808583030160a086015250613a5d81600388016139bc565b9050613a7360048701546001600160a01b031690565b6001600160a01b0390811660c08601526005870154811660e086015260068701546101008601526007870154166101208501526008860154610140850152600986015491840191909152600a90940154610180830152506020015290565b60008251613ae3818460208701613181565b9190910192915050565b6040815260006139ad60408301856138c456fea2646970667358221220c228eb6b1b7490ebd3c10f6d9ea9beefb7362b2d2a00ddf9423c5c3ebad40bdf64736f6c63430008130033",
			"opcodes": "PUSH1 0x0 DUP1 SLOAD PUSH1 0x1 PUSH1 0x1 PUSH1 0xA0 SHL SUB NOT SWAP1 DUP2 AND PUSH20 0x927E818DDCAB12D025495B228A4CE1DAE82798EC OR DUP3 SSTORE PUSH8 0x8AC7230489E80000 PUSH1 0x1 SWAP1 DUP2 SSTORE PUSH1 0x2 DUP1 SLOAD SWAP1 SWAP3 AND PUSH20 0x3CE5A8A72820585C60F659896338D57347196991 OR DUP3 SSTORE PUSH1 0x5 PUSH1 0x3 DUP2 DUP2 SSTORE PUSH1 0x4 DUP3 DUP2 SSTORE PUSH2 0x180 DUP7 DUP2 MSTORE PUSH2 0x1A0 DUP6 SWAP1 MSTORE PUSH2 0x1C0 DUP7 SWAP1 MSTORE PUSH1 0x80 SWAP1 DUP2 MSTORE PUSH2 0x1E0 DUP4 DUP2 MSTORE PUSH2 0x200 DUP4 SWAP1 MSTORE PUSH2 0x220 DUP6 SWAP1 MSTORE PUSH1 0xA0 MSTORE PUSH1 0x6 PUSH2 0x240 DUP2 DUP2 MSTORE PUSH1 0x7 PUSH2 0x260 DUP2 SWAP1 MSTORE PUSH1 0x8 PUSH2 0x280 DUP2 SWAP1 MSTORE PUSH1 0xC0 SWAP3 SWAP1 SWAP3 MSTORE PUSH2 0x2A0 DUP11 DUP2 MSTORE PUSH2 0x2C0 SWAP7 SWAP1 SWAP7 MSTORE PUSH2 0x2E0 DUP4 SWAP1 MSTORE PUSH1 0xE0 SWAP6 SWAP1 SWAP6 MSTORE PUSH2 0x300 SWAP7 DUP8 MSTORE PUSH2 0x320 DUP5 SWAP1 MSTORE PUSH2 0x340 SWAP5 SWAP1 SWAP5 MSTORE PUSH2 0x100 SWAP6 SWAP1 SWAP6 MSTORE PUSH2 0x360 DUP7 DUP2 MSTORE PUSH2 0x380 SWAP5 SWAP1 SWAP5 MSTORE PUSH2 0x3A0 DUP4 SWAP1 MSTORE PUSH2 0x120 SWAP4 SWAP1 SWAP4 MSTORE PUSH2 0x3C0 SWAP6 DUP7 MSTORE PUSH2 0x3E0 DUP2 SWAP1 MSTORE PUSH2 0x400 DUP3 SWAP1 MSTORE PUSH2 0x140 SWAP6 SWAP1 SWAP6 MSTORE PUSH2 0x480 PUSH1 0x40 MSTORE PUSH2 0x420 SWAP4 DUP5 MSTORE PUSH2 0x440 SWAP5 SWAP1 SWAP5 MSTORE PUSH2 0x460 SWAP2 SWAP1 SWAP2 MSTORE PUSH2 0x160 SWAP2 SWAP1 SWAP2 MSTORE PUSH3 0x13E SWAP2 SWAP1 DUP2 PUSH3 0x165 JUMP JUMPDEST POP CALLVALUE DUP1 ISZERO PUSH3 0x14C JUMPI PUSH1 0x0 DUP1 REVERT JUMPDEST POP PUSH1 0x6 DUP1 SLOAD PUSH1 0x1 PUSH1 0x1 PUSH1 0xA0 SHL SUB NOT AND CALLER OR SWAP1 SSTORE PUSH3 0x26F JUMP JUMPDEST DUP3 DUP1 SLOAD DUP3 DUP3 SSTORE SWAP1 PUSH1 0x0 MSTORE PUSH1 0x20 PUSH1 0x0 KECCAK256 SWAP1 DUP2 ADD SWAP3 DUP3 ISZERO PUSH3 0x1B1 JUMPI SWAP2 PUSH1 0x20 MUL DUP3 ADD JUMPDEST DUP3 DUP2 GT ISZERO PUSH3 0x1B1 JUMPI DUP3 MLOAD PUSH3 0x1A0 SWAP1 DUP4 SWAP1 PUSH1 0x3 PUSH3 0x1C3 JUMP JUMPDEST POP SWAP2 PUSH1 0x20 ADD SWAP2 SWAP1 PUSH1 0x1 ADD SWAP1 PUSH3 0x186 JUMP JUMPDEST POP PUSH3 0x1BF SWAP3 SWAP2 POP PUSH3 0x214 JUMP JUMPDEST POP SWAP1 JUMP JUMPDEST DUP3 DUP1 SLOAD DUP3 DUP3 SSTORE SWAP1 PUSH1 0x0 MSTORE PUSH1 0x20 PUSH1 0x0 KECCAK256 SWAP1 DUP2 ADD SWAP3 DUP3 ISZERO PUSH3 0x206 JUMPI SWAP2 PUSH1 0x20 MUL DUP3 ADD JUMPDEST DUP3 DUP2 GT ISZERO PUSH3 0x206 JUMPI DUP3 MLOAD DUP3 SWAP1 PUSH1 0xFF AND SWAP1 SSTORE SWAP2 PUSH1 0x20 ADD SWAP2 SWAP1 PUSH1 0x1 ADD SWAP1 PUSH3 0x1E4 JUMP JUMPDEST POP PUSH3 0x1BF SWAP3 SWAP2 POP PUSH3 0x235 JUMP JUMPDEST DUP1 DUP3 GT ISZERO PUSH3 0x1BF JUMPI PUSH1 0x0 PUSH3 0x22B DUP3 DUP3 PUSH3 0x24C JUMP JUMPDEST POP PUSH1 0x1 ADD PUSH3 0x214 JUMP JUMPDEST JUMPDEST DUP1 DUP3 GT ISZERO PUSH3 0x1BF JUMPI PUSH1 0x0 DUP2 SSTORE PUSH1 0x1 ADD PUSH3 0x236 JUMP JUMPDEST POP DUP1 SLOAD PUSH1 0x0 DUP3 SSTORE SWAP1 PUSH1 0x0 MSTORE PUSH1 0x20 PUSH1 0x0 KECCAK256 SWAP1 DUP2 ADD SWAP1 PUSH3 0x26C SWAP2 SWAP1 PUSH3 0x235 JUMP JUMPDEST POP JUMP JUMPDEST PUSH2 0x3B36 DUP1 PUSH3 0x27F PUSH1 0x0 CODECOPY PUSH1 0x0 RETURN INVALID PUSH1 0x80 PUSH1 0x40 MSTORE CALLVALUE DUP1 ISZERO PUSH2 0x10 JUMPI PUSH1 0x0 DUP1 REVERT JUMPDEST POP PUSH1 0x4 CALLDATASIZE LT PUSH2 0x137 JUMPI PUSH1 0x0 CALLDATALOAD PUSH1 0xE0 SHR DUP1 PUSH4 0x888B042F GT PUSH2 0xB8 JUMPI DUP1 PUSH4 0xBED34BBA GT PUSH2 0x7C JUMPI DUP1 PUSH4 0xBED34BBA EQ PUSH2 0x29B JUMPI DUP1 PUSH4 0xCC32D176 EQ PUSH2 0x2BE JUMPI DUP1 PUSH4 0xDC572C6E EQ PUSH2 0x2C7 JUMPI DUP1 PUSH4 0xEDB84FF7 EQ PUSH2 0x2E7 JUMPI DUP1 PUSH4 0xFA968EEA EQ PUSH2 0x2EF JUMPI DUP1 PUSH4 0xFCE589D8 EQ PUSH2 0x2F8 JUMPI PUSH1 0x0 DUP1 REVERT JUMPDEST DUP1 PUSH4 0x888B042F EQ PUSH2 0x245 JUMPI DUP1 PUSH4 0x8DA5CB5B EQ PUSH2 0x24D JUMPI DUP1 PUSH4 0xB2182BE4 EQ PUSH2 0x260 JUMPI DUP1 PUSH4 0xB60B9FCB EQ PUSH2 0x280 JUMPI DUP1 PUSH4 0xB7B524A1 EQ PUSH2 0x293 JUMPI PUSH1 0x0 DUP1 REVERT JUMPDEST DUP1 PUSH4 0x4A968391 GT PUSH2 0xFF JUMPI DUP1 PUSH4 0x4A968391 EQ PUSH2 0x1B9 JUMPI DUP1 PUSH4 0x52BC3410 EQ PUSH2 0x1CC JUMPI DUP1 PUSH4 0x61D027B3 EQ PUSH2 0x1DF JUMPI DUP1 PUSH4 0x7EFFB427 EQ PUSH2 0x20A JUMPI DUP1 PUSH4 0x87052FAB EQ PUSH2 0x21D JUMPI PUSH1 0x0 DUP1 REVERT JUMPDEST DUP1 PUSH4 0x6139E8D EQ PUSH2 0x13C JUMPI DUP1 PUSH4 0x17B44960 EQ PUSH2 0x151 JUMPI DUP1 PUSH4 0x1A39D8EF EQ PUSH2 0x17A JUMPI DUP1 PUSH4 0x34FD3518 EQ PUSH2 0x191 JUMPI DUP1 PUSH4 0x491F0136 EQ PUSH2 0x1A4 JUMPI JUMPDEST PUSH1 0x0 DUP1 REVERT JUMPDEST PUSH2 0x14F PUSH2 0x14A CALLDATASIZE PUSH1 0x4 PUSH2 0x3124 JUMP JUMPDEST PUSH2 0x301 JUMP JUMPDEST STOP JUMPDEST PUSH2 0x164 PUSH2 0x15F CALLDATASIZE PUSH1 0x4 PUSH2 0x3124 JUMP JUMPDEST PUSH2 0x9D0 JUMP JUMPDEST PUSH1 0x40 MLOAD PUSH2 0x171 SWAP2 SWAP1 PUSH2 0x313D JUMP JUMPDEST PUSH1 0x40 MLOAD DUP1 SWAP2 SUB SWAP1 RETURN JUMPDEST PUSH2 0x183 PUSH1 0x5 SLOAD DUP2 JUMP JUMPDEST PUSH1 0x40 MLOAD SWAP1 DUP2 MSTORE PUSH1 0x20 ADD PUSH2 0x171 JUMP JUMPDEST PUSH2 0x14F PUSH2 0x19F CALLDATASIZE PUSH1 0x4 PUSH2 0x3124 JUMP JUMPDEST PUSH2 0xA4C JUMP JUMPDEST PUSH2 0x1AC PUSH2 0xB16 JUMP JUMPDEST PUSH1 0x40 MLOAD PUSH2 0x171 SWAP2 SWAP1 PUSH2 0x3341 JUMP JUMPDEST PUSH2 0x14F PUSH2 0x1C7 CALLDATASIZE PUSH1 0x4 PUSH2 0x3124 JUMP JUMPDEST PUSH2 0xDA7 JUMP JUMPDEST PUSH2 0x14F PUSH2 0x1DA CALLDATASIZE PUSH1 0x4 PUSH2 0x33A3 JUMP JUMPDEST PUSH2 0xF27 JUMP JUMPDEST PUSH1 0x2 SLOAD PUSH2 0x1F2 SWAP1 PUSH1 0x1 PUSH1 0x1 PUSH1 0xA0 SHL SUB AND DUP2 JUMP JUMPDEST PUSH1 0x40 MLOAD PUSH1 0x1 PUSH1 0x1 PUSH1 0xA0 SHL SUB SWAP1 SWAP2 AND DUP2 MSTORE PUSH1 0x20 ADD PUSH2 0x171 JUMP JUMPDEST PUSH1 0x0 SLOAD PUSH2 0x1F2 SWAP1 PUSH1 0x1 PUSH1 0x1 PUSH1 0xA0 SHL SUB AND DUP2 JUMP JUMPDEST PUSH2 0x230 PUSH2 0x22B CALLDATASIZE PUSH1 0x4 PUSH2 0x3124 JUMP JUMPDEST PUSH2 0x1352 JUMP JUMPDEST PUSH1 0x40 MLOAD PUSH2 0x171 SWAP10 SWAP9 SWAP8 SWAP7 SWAP6 SWAP5 SWAP4 SWAP3 SWAP2 SWAP1 PUSH2 0x33C5 JUMP JUMPDEST PUSH2 0x14F PUSH2 0x1448 JUMP JUMPDEST PUSH1 0x6 SLOAD PUSH2 0x1F2 SWAP1 PUSH1 0x1 PUSH1 0x1 PUSH1 0xA0 SHL SUB AND DUP2 JUMP JUMPDEST PUSH2 0x273 PUSH2 0x26E CALLDATASIZE PUSH1 0x4 PUSH2 0x3124 JUMP JUMPDEST PUSH2 0x164B JUMP JUMPDEST PUSH1 0x40 MLOAD PUSH2 0x171 SWAP2 SWAP1 PUSH2 0x3427 JUMP JUMPDEST PUSH2 0x14F PUSH2 0x28E CALLDATASIZE PUSH1 0x4 PUSH2 0x33A3 JUMP JUMPDEST PUSH2 0x18B1 JUMP JUMPDEST PUSH2 0x14F PUSH2 0x1FA5 JUMP JUMPDEST PUSH2 0x2AE PUSH2 0x2A9 CALLDATASIZE PUSH1 0x4 PUSH2 0x34E4 JUMP JUMPDEST PUSH2 0x21E7 JUMP JUMPDEST PUSH1 0x40 MLOAD SWAP1 ISZERO ISZERO DUP2 MSTORE PUSH1 0x20 ADD PUSH2 0x171 JUMP JUMPDEST PUSH2 0x183 PUSH1 0x4 SLOAD DUP2 JUMP JUMPDEST PUSH2 0x2DA PUSH2 0x2D5 CALLDATASIZE PUSH1 0x4 PUSH2 0x3124 JUMP JUMPDEST PUSH2 0x2241 JUMP JUMPDEST PUSH1 0x40 MLOAD PUSH2 0x171 SWAP2 SWAP1 PUSH2 0x3548 JUMP JUMPDEST PUSH2 0x14F PUSH2 0x233E JUMP JUMPDEST PUSH2 0x183 PUSH1 0x1 SLOAD DUP2 JUMP JUMPDEST PUSH2 0x183 PUSH1 0x3 SLOAD DUP2 JUMP JUMPDEST PUSH1 0x6 SLOAD PUSH1 0x1 PUSH1 0xA0 SHL SWAP1 DIV PUSH1 0xFF AND ISZERO PUSH2 0x358 JUMPI PUSH1 0x40 MLOAD PUSH3 0x461BCD PUSH1 0xE5 SHL DUP2 MSTORE PUSH1 0x20 PUSH1 0x4 DUP3 ADD MSTORE PUSH1 0x15 PUSH1 0x24 DUP3 ADD MSTORE PUSH21 0x115C9C9BDC8E881499595B9D1C985B9D0818D85B1B PUSH1 0x5A SHL PUSH1 0x44 DUP3 ADD MSTORE PUSH1 0x64 ADD JUMPDEST PUSH1 0x40 MLOAD DUP1 SWAP2 SUB SWAP1 REVERT JUMPDEST PUSH1 0x6 DUP1 SLOAD PUSH1 0xFF PUSH1 0xA0 SHL NOT AND PUSH1 0x1 PUSH1 0xA0 SHL OR SWAP1 SSTORE PUSH1 0x0 SLOAD PUSH1 0x40 MLOAD PUSH4 0x70A08231 PUSH1 0xE0 SHL DUP2 MSTORE CALLER PUSH1 0x4 DUP3 ADD MSTORE DUP3 SWAP2 PUSH1 0x1 PUSH1 0x1 PUSH1 0xA0 SHL SUB AND SWAP1 PUSH4 0x70A08231 SWAP1 PUSH1 0x24 ADD PUSH1 0x20 PUSH1 0x40 MLOAD DUP1 DUP4 SUB DUP2 DUP7 GAS STATICCALL ISZERO DUP1 ISZERO PUSH2 0x3B3 JUMPI RETURNDATASIZE PUSH1 0x0 DUP1 RETURNDATACOPY RETURNDATASIZE PUSH1 0x0 REVERT JUMPDEST POP POP POP POP PUSH1 0x40 MLOAD RETURNDATASIZE PUSH1 0x1F NOT PUSH1 0x1F DUP3 ADD AND DUP3 ADD DUP1 PUSH1 0x40 MSTORE POP DUP2 ADD SWAP1 PUSH2 0x3D7 SWAP2 SWAP1 PUSH2 0x359D JUMP JUMPDEST LT ISZERO PUSH2 0x41A JUMPI PUSH1 0x40 MLOAD PUSH3 0x461BCD PUSH1 0xE5 SHL DUP2 MSTORE PUSH1 0x20 PUSH1 0x4 DUP3 ADD MSTORE PUSH1 0x12 PUSH1 0x24 DUP3 ADD MSTORE PUSH18 0x4E6F7420656E6F7567682062616C616E6365 PUSH1 0x70 SHL PUSH1 0x44 DUP3 ADD MSTORE PUSH1 0x64 ADD PUSH2 0x34F JUMP JUMPDEST PUSH1 0x1 SLOAD DUP2 LT ISZERO PUSH2 0x46C JUMPI PUSH1 0x40 MLOAD PUSH3 0x461BCD PUSH1 0xE5 SHL DUP2 MSTORE PUSH1 0x20 PUSH1 0x4 DUP3 ADD MSTORE PUSH1 0x1A PUSH1 0x24 DUP3 ADD MSTORE PUSH32 0x4E65656420746F20706179206D696E2062657420616D6F756E74000000000000 PUSH1 0x44 DUP3 ADD MSTORE PUSH1 0x64 ADD PUSH2 0x34F JUMP JUMPDEST PUSH1 0x0 PUSH1 0x64 PUSH1 0x3 SLOAD DUP4 PUSH2 0x47E SWAP2 SWAP1 PUSH2 0x35CC JUMP JUMPDEST PUSH2 0x488 SWAP2 SWAP1 PUSH2 0x35E3 JUMP JUMPDEST SWAP1 POP PUSH1 0x0 PUSH1 0x64 PUSH1 0x4 SLOAD DUP5 PUSH2 0x49C SWAP2 SWAP1 PUSH2 0x35CC JUMP JUMPDEST PUSH2 0x4A6 SWAP2 SWAP1 PUSH2 0x35E3 JUMP JUMPDEST SWAP1 POP PUSH1 0x0 DUP2 PUSH2 0x4B5 DUP5 DUP7 PUSH2 0x3605 JUMP JUMPDEST PUSH2 0x4BF SWAP2 SWAP1 PUSH2 0x3605 JUMP JUMPDEST PUSH1 0x0 SLOAD PUSH1 0x40 MLOAD PUSH4 0x23B872DD PUSH1 0xE0 SHL DUP2 MSTORE SWAP2 SWAP3 POP PUSH1 0x1 PUSH1 0x1 PUSH1 0xA0 SHL SUB AND SWAP1 PUSH4 0x23B872DD SWAP1 PUSH2 0x4F6 SWAP1 CALLER SWAP1 PUSH2 0xDEAD SWAP1 DUP9 SWAP1 PUSH1 0x4 ADD PUSH2 0x3618 JUMP JUMPDEST PUSH1 0x20 PUSH1 0x40 MLOAD DUP1 DUP4 SUB DUP2 PUSH1 0x0 DUP8 GAS CALL ISZERO DUP1 ISZERO PUSH2 0x515 JUMPI RETURNDATASIZE PUSH1 0x0 DUP1 RETURNDATACOPY RETURNDATASIZE PUSH1 0x0 REVERT JUMPDEST POP POP POP POP PUSH1 0x40 MLOAD RETURNDATASIZE PUSH1 0x1F NOT PUSH1 0x1F DUP3 ADD AND DUP3 ADD DUP1 PUSH1 0x40 MSTORE POP DUP2 ADD SWAP1 PUSH2 0x539 SWAP2 SWAP1 PUSH2 0x363C JUMP JUMPDEST POP PUSH1 0x0 SLOAD PUSH1 0x2 SLOAD PUSH1 0x40 MLOAD PUSH4 0x23B872DD PUSH1 0xE0 SHL DUP2 MSTORE PUSH1 0x1 PUSH1 0x1 PUSH1 0xA0 SHL SUB SWAP3 DUP4 AND SWAP3 PUSH4 0x23B872DD SWAP3 PUSH2 0x573 SWAP3 CALLER SWAP3 SWAP1 SWAP2 AND SWAP1 DUP8 SWAP1 PUSH1 0x4 ADD PUSH2 0x3618 JUMP JUMPDEST PUSH1 0x20 PUSH1 0x40 MLOAD DUP1 DUP4 SUB DUP2 PUSH1 0x0 DUP8 GAS CALL ISZERO DUP1 ISZERO PUSH2 0x592 JUMPI RETURNDATASIZE PUSH1 0x0 DUP1 RETURNDATACOPY RETURNDATASIZE PUSH1 0x0 REVERT JUMPDEST POP POP POP POP PUSH1 0x40 MLOAD RETURNDATASIZE PUSH1 0x1F NOT PUSH1 0x1F DUP3 ADD AND DUP3 ADD DUP1 PUSH1 0x40 MSTORE POP DUP2 ADD SWAP1 PUSH2 0x5B6 SWAP2 SWAP1 PUSH2 0x363C JUMP JUMPDEST POP PUSH1 0x0 SLOAD PUSH1 0x40 MLOAD PUSH4 0x23B872DD PUSH1 0xE0 SHL DUP2 MSTORE PUSH1 0x1 PUSH1 0x1 PUSH1 0xA0 SHL SUB SWAP1 SWAP2 AND SWAP1 PUSH4 0x23B872DD SWAP1 PUSH2 0x5EB SWAP1 CALLER SWAP1 ADDRESS SWAP1 DUP7 SWAP1 PUSH1 0x4 ADD PUSH2 0x3618 JUMP JUMPDEST PUSH1 0x20 PUSH1 0x40 MLOAD DUP1 DUP4 SUB DUP2 PUSH1 0x0 DUP8 GAS CALL ISZERO DUP1 ISZERO PUSH2 0x60A JUMPI RETURNDATASIZE PUSH1 0x0 DUP1 RETURNDATACOPY RETURNDATASIZE PUSH1 0x0 REVERT JUMPDEST POP POP POP POP PUSH1 0x40 MLOAD RETURNDATASIZE PUSH1 0x1F NOT PUSH1 0x1F DUP3 ADD AND DUP3 ADD DUP1 PUSH1 0x40 MSTORE POP DUP2 ADD SWAP1 PUSH2 0x62E SWAP2 SWAP1 PUSH2 0x363C JUMP JUMPDEST POP DUP1 PUSH1 0x5 PUSH1 0x0 DUP3 DUP3 SLOAD PUSH2 0x641 SWAP2 SWAP1 PUSH2 0x365E JUMP JUMPDEST SWAP1 SWAP2 SSTORE POP PUSH2 0x64F SWAP1 POP PUSH2 0x2F5E JUMP JUMPDEST PUSH1 0x7 DUP1 SLOAD PUSH1 0x1 DUP2 ADD DUP3 SSTORE PUSH1 0x0 SWAP2 SWAP1 SWAP2 MSTORE DUP2 MLOAD PUSH32 0xA66CC928B5EDB82AF9BD49922954155AB7B0942694BEA4CE44661D9A8736C688 PUSH1 0xB SWAP1 SWAP3 MUL SWAP2 DUP3 ADD DUP1 SLOAD PUSH1 0xFF NOT AND SWAP2 ISZERO ISZERO SWAP2 SWAP1 SWAP2 OR DUP2 SSTORE PUSH1 0x20 DUP4 ADD MLOAD DUP4 SWAP3 PUSH32 0xA66CC928B5EDB82AF9BD49922954155AB7B0942694BEA4CE44661D9A8736C689 ADD SWAP1 PUSH2 0x6CD SWAP1 DUP3 PUSH2 0x36FA JUMP JUMPDEST POP PUSH1 0x40 DUP3 ADD MLOAD DUP1 MLOAD PUSH2 0x6E9 SWAP2 PUSH1 0x2 DUP5 ADD SWAP2 PUSH1 0x20 SWAP1 SWAP2 ADD SWAP1 PUSH2 0x2FD5 JUMP JUMPDEST POP PUSH1 0x60 DUP3 ADD MLOAD DUP1 MLOAD PUSH2 0x705 SWAP2 PUSH1 0x3 DUP5 ADD SWAP2 PUSH1 0x20 SWAP1 SWAP2 ADD SWAP1 PUSH2 0x302B JUMP JUMPDEST POP PUSH1 0x80 DUP3 ADD MLOAD PUSH1 0x4 DUP3 ADD DUP1 SLOAD PUSH1 0x1 PUSH1 0x1 PUSH1 0xA0 SHL SUB NOT SWAP1 DUP2 AND PUSH1 0x1 PUSH1 0x1 PUSH1 0xA0 SHL SUB SWAP4 DUP5 AND OR SWAP1 SWAP2 SSTORE PUSH1 0xA0 DUP5 ADD MLOAD PUSH1 0x5 DUP5 ADD DUP1 SLOAD DUP4 AND SWAP2 DUP5 AND SWAP2 SWAP1 SWAP2 OR SWAP1 SSTORE PUSH1 0xC0 DUP5 ADD MLOAD PUSH1 0x6 DUP5 ADD SSTORE PUSH1 0xE0 DUP5 ADD MLOAD PUSH1 0x7 DUP1 DUP6 ADD DUP1 SLOAD SWAP1 SWAP4 AND SWAP2 SWAP1 SWAP4 AND OR SWAP1 SSTORE PUSH2 0x100 DUP4 ADD MLOAD PUSH1 0x8 DUP4 ADD SSTORE PUSH2 0x120 DUP4 ADD MLOAD PUSH1 0x9 DUP4 ADD SSTORE PUSH2 0x140 SWAP1 SWAP3 ADD MLOAD PUSH1 0xA SWAP1 SWAP2 ADD SSTORE DUP1 SLOAD SWAP1 CALLER SWAP1 PUSH2 0x795 PUSH1 0x1 DUP5 PUSH2 0x3605 JUMP JUMPDEST DUP2 SLOAD DUP2 LT PUSH2 0x7A5 JUMPI PUSH2 0x7A5 PUSH2 0x37BA JUMP JUMPDEST PUSH1 0x0 SWAP2 DUP3 MSTORE PUSH1 0x20 DUP3 KECCAK256 PUSH1 0xB SWAP2 SWAP1 SWAP2 MUL ADD PUSH1 0x4 ADD DUP1 SLOAD PUSH1 0x1 PUSH1 0x1 PUSH1 0xA0 SHL SUB NOT AND PUSH1 0x1 PUSH1 0x1 PUSH1 0xA0 SHL SUB SWAP4 SWAP1 SWAP4 AND SWAP3 SWAP1 SWAP3 OR SWAP1 SWAP2 SSTORE PUSH1 0x7 PUSH2 0x7E4 PUSH1 0x1 DUP5 PUSH2 0x3605 JUMP JUMPDEST DUP2 SLOAD DUP2 LT PUSH2 0x7F4 JUMPI PUSH2 0x7F4 PUSH2 0x37BA JUMP JUMPDEST PUSH1 0x0 SWAP2 DUP3 MSTORE PUSH1 0x20 SWAP1 SWAP2 KECCAK256 PUSH1 0xB SWAP1 SWAP2 MUL ADD DUP1 SLOAD PUSH1 0xFF NOT AND SWAP2 ISZERO ISZERO SWAP2 SWAP1 SWAP2 OR SWAP1 SSTORE PUSH1 0x1 PUSH1 0x7 PUSH2 0x821 DUP3 DUP5 PUSH2 0x3605 JUMP JUMPDEST DUP2 SLOAD DUP2 LT PUSH2 0x831 JUMPI PUSH2 0x831 PUSH2 0x37BA JUMP JUMPDEST SWAP1 PUSH1 0x0 MSTORE PUSH1 0x20 PUSH1 0x0 KECCAK256 SWAP1 PUSH1 0xB MUL ADD PUSH1 0x6 ADD DUP2 SWAP1 SSTORE POP PUSH1 0x40 MLOAD DUP1 PUSH1 0x40 ADD PUSH1 0x40 MSTORE DUP1 PUSH1 0x1 DUP2 MSTORE PUSH1 0x20 ADD PUSH1 0xB PUSH1 0xFB SHL DUP2 MSTORE POP PUSH1 0x7 PUSH1 0x1 DUP4 PUSH2 0x86F SWAP2 SWAP1 PUSH2 0x3605 JUMP JUMPDEST DUP2 SLOAD DUP2 LT PUSH2 0x87F JUMPI PUSH2 0x87F PUSH2 0x37BA JUMP JUMPDEST SWAP1 PUSH1 0x0 MSTORE PUSH1 0x20 PUSH1 0x0 KECCAK256 SWAP1 PUSH1 0xB MUL ADD PUSH1 0x1 ADD SWAP1 DUP2 PUSH2 0x89C SWAP2 SWAP1 PUSH2 0x36FA JUMP JUMPDEST POP DUP6 PUSH1 0x7 PUSH2 0x8AB PUSH1 0x1 DUP5 PUSH2 0x3605 JUMP JUMPDEST DUP2 SLOAD DUP2 LT PUSH2 0x8BB JUMPI PUSH2 0x8BB PUSH2 0x37BA JUMP JUMPDEST PUSH1 0x0 SWAP2 DUP3 MSTORE PUSH1 0x20 SWAP1 SWAP2 KECCAK256 PUSH1 0x8 PUSH1 0xB SWAP1 SWAP3 MUL ADD ADD SSTORE DUP3 PUSH1 0x7 PUSH2 0x8DD PUSH1 0x1 DUP5 PUSH2 0x3605 JUMP JUMPDEST DUP2 SLOAD DUP2 LT PUSH2 0x8ED JUMPI PUSH2 0x8ED PUSH2 0x37BA JUMP JUMPDEST SWAP1 PUSH1 0x0 MSTORE PUSH1 0x20 PUSH1 0x0 KECCAK256 SWAP1 PUSH1 0xB MUL ADD PUSH1 0xA ADD DUP2 SWAP1 SSTORE POP PUSH1 0x0 JUMPDEST PUSH1 0x9 DUP2 LT ISZERO PUSH2 0x97D JUMPI PUSH1 0x7 PUSH2 0x91B PUSH1 0x1 DUP5 PUSH2 0x3605 JUMP JUMPDEST DUP2 SLOAD DUP2 LT PUSH2 0x92B JUMPI PUSH2 0x92B PUSH2 0x37BA JUMP JUMPDEST PUSH1 0x0 SWAP2 DUP3 MSTORE PUSH1 0x20 DUP1 DUP4 KECCAK256 PUSH1 0x2 PUSH1 0xB SWAP1 SWAP4 MUL ADD SWAP2 SWAP1 SWAP2 ADD DUP1 SLOAD PUSH1 0x1 DUP2 ADD DUP3 SSTORE SWAP1 DUP4 MSTORE DUP2 DUP4 KECCAK256 PUSH1 0x40 DUP1 MLOAD SWAP4 DUP5 ADD SWAP1 MSTORE SWAP3 DUP3 MSTORE SWAP2 SWAP1 SWAP2 ADD SWAP1 PUSH2 0x96A SWAP1 DUP3 PUSH2 0x36FA JUMP JUMPDEST POP DUP1 PUSH2 0x975 DUP2 PUSH2 0x37D0 JUMP JUMPDEST SWAP2 POP POP PUSH2 0x905 JUMP JUMPDEST POP PUSH32 0xBBBA82573073A1190D559566D39447B5E1AD7724B88B63BC98867D229A645B6B PUSH2 0x9AA PUSH1 0x1 DUP4 PUSH2 0x3605 JUMP JUMPDEST PUSH1 0x40 MLOAD SWAP1 DUP2 MSTORE PUSH1 0x20 ADD PUSH1 0x40 MLOAD DUP1 SWAP2 SUB SWAP1 LOG1 POP POP PUSH1 0x6 DUP1 SLOAD PUSH1 0xFF PUSH1 0xA0 SHL NOT AND SWAP1 SSTORE POP POP POP POP JUMP JUMPDEST PUSH1 0x60 PUSH1 0x7 DUP3 DUP2 SLOAD DUP2 LT PUSH2 0x9E5 JUMPI PUSH2 0x9E5 PUSH2 0x37BA JUMP JUMPDEST SWAP1 PUSH1 0x0 MSTORE PUSH1 0x20 PUSH1 0x0 KECCAK256 SWAP1 PUSH1 0xB MUL ADD PUSH1 0x3 ADD DUP1 SLOAD DUP1 PUSH1 0x20 MUL PUSH1 0x20 ADD PUSH1 0x40 MLOAD SWAP1 DUP2 ADD PUSH1 0x40 MSTORE DUP1 SWAP3 SWAP2 SWAP1 DUP2 DUP2 MSTORE PUSH1 0x20 ADD DUP3 DUP1 SLOAD DUP1 ISZERO PUSH2 0xA40 JUMPI PUSH1 0x20 MUL DUP3 ADD SWAP2 SWAP1 PUSH1 0x0 MSTORE PUSH1 0x20 PUSH1 0x0 KECCAK256 SWAP1 JUMPDEST DUP2 SLOAD DUP2 MSTORE PUSH1 0x20 ADD SWAP1 PUSH1 0x1 ADD SWAP1 DUP1 DUP4 GT PUSH2 0xA2C JUMPI JUMPDEST POP POP POP POP POP SWAP1 POP SWAP2 SWAP1 POP JUMP JUMPDEST PUSH2 0xA55 DUP2 PUSH2 0x2401 JUMP JUMPDEST PUSH2 0xAA1 JUMPI PUSH1 0x40 MLOAD PUSH3 0x461BCD PUSH1 0xE5 SHL DUP2 MSTORE PUSH1 0x20 PUSH1 0x4 DUP3 ADD MSTORE PUSH1 0x1C PUSH1 0x24 DUP3 ADD MSTORE PUSH32 0x796F7520617265206E6F7420746869732067616D6520706C6179657200000000 PUSH1 0x44 DUP3 ADD MSTORE PUSH1 0x64 ADD PUSH2 0x34F JUMP JUMPDEST PUSH1 0x7 DUP2 DUP2 SLOAD DUP2 LT PUSH2 0xAB4 JUMPI PUSH2 0xAB4 PUSH2 0x37BA JUMP JUMPDEST PUSH1 0x0 SWAP2 DUP3 MSTORE PUSH1 0x20 SWAP1 SWAP2 KECCAK256 PUSH1 0xB SWAP1 SWAP2 MUL ADD SLOAD PUSH1 0xFF AND ISZERO PUSH2 0xB0A JUMPI PUSH1 0x40 MLOAD PUSH3 0x461BCD PUSH1 0xE5 SHL DUP2 MSTORE PUSH1 0x20 PUSH1 0x4 DUP3 ADD MSTORE PUSH1 0x12 PUSH1 0x24 DUP3 ADD MSTORE PUSH18 0x47616D65207374696C6C20706C6179696E67 PUSH1 0x70 SHL PUSH1 0x44 DUP3 ADD MSTORE PUSH1 0x64 ADD PUSH2 0x34F JUMP JUMPDEST PUSH2 0xB13 DUP2 PUSH2 0xDA7 JUMP JUMPDEST POP JUMP JUMPDEST PUSH1 0x60 PUSH1 0x7 DUP1 SLOAD DUP1 PUSH1 0x20 MUL PUSH1 0x20 ADD PUSH1 0x40 MLOAD SWAP1 DUP2 ADD PUSH1 0x40 MSTORE DUP1 SWAP3 SWAP2 SWAP1 DUP2 DUP2 MSTORE PUSH1 0x20 ADD PUSH1 0x0 SWAP1 JUMPDEST DUP3 DUP3 LT ISZERO PUSH2 0xD9E JUMPI PUSH1 0x0 DUP5 DUP2 MSTORE PUSH1 0x20 SWAP1 DUP2 SWAP1 KECCAK256 PUSH1 0x40 DUP1 MLOAD PUSH2 0x160 DUP2 ADD SWAP1 SWAP2 MSTORE PUSH1 0xB DUP6 MUL SWAP1 SWAP2 ADD DUP1 SLOAD PUSH1 0xFF AND ISZERO ISZERO DUP3 MSTORE PUSH1 0x1 DUP2 ADD DUP1 SLOAD SWAP3 SWAP4 SWAP2 SWAP3 SWAP2 DUP5 ADD SWAP2 PUSH2 0xB80 SWAP1 PUSH2 0x3671 JUMP JUMPDEST DUP1 PUSH1 0x1F ADD PUSH1 0x20 DUP1 SWAP2 DIV MUL PUSH1 0x20 ADD PUSH1 0x40 MLOAD SWAP1 DUP2 ADD PUSH1 0x40 MSTORE DUP1 SWAP3 SWAP2 SWAP1 DUP2 DUP2 MSTORE PUSH1 0x20 ADD DUP3 DUP1 SLOAD PUSH2 0xBAC SWAP1 PUSH2 0x3671 JUMP JUMPDEST DUP1 ISZERO PUSH2 0xBF9 JUMPI DUP1 PUSH1 0x1F LT PUSH2 0xBCE JUMPI PUSH2 0x100 DUP1 DUP4 SLOAD DIV MUL DUP4 MSTORE SWAP2 PUSH1 0x20 ADD SWAP2 PUSH2 0xBF9 JUMP JUMPDEST DUP3 ADD SWAP2 SWAP1 PUSH1 0x0 MSTORE PUSH1 0x20 PUSH1 0x0 KECCAK256 SWAP1 JUMPDEST DUP2 SLOAD DUP2 MSTORE SWAP1 PUSH1 0x1 ADD SWAP1 PUSH1 0x20 ADD DUP1 DUP4 GT PUSH2 0xBDC JUMPI DUP3 SWAP1 SUB PUSH1 0x1F AND DUP3 ADD SWAP2 JUMPDEST POP POP POP POP POP DUP2 MSTORE PUSH1 0x20 ADD PUSH1 0x2 DUP3 ADD DUP1 SLOAD DUP1 PUSH1 0x20 MUL PUSH1 0x20 ADD PUSH1 0x40 MLOAD SWAP1 DUP2 ADD PUSH1 0x40 MSTORE DUP1 SWAP3 SWAP2 SWAP1 DUP2 DUP2 MSTORE PUSH1 0x20 ADD PUSH1 0x0 SWAP1 JUMPDEST DUP3 DUP3 LT ISZERO PUSH2 0xCD3 JUMPI DUP4 DUP3 SWAP1 PUSH1 0x0 MSTORE PUSH1 0x20 PUSH1 0x0 KECCAK256 ADD DUP1 SLOAD PUSH2 0xC46 SWAP1 PUSH2 0x3671 JUMP JUMPDEST DUP1 PUSH1 0x1F ADD PUSH1 0x20 DUP1 SWAP2 DIV MUL PUSH1 0x20 ADD PUSH1 0x40 MLOAD SWAP1 DUP2 ADD PUSH1 0x40 MSTORE DUP1 SWAP3 SWAP2 SWAP1 DUP2 DUP2 MSTORE PUSH1 0x20 ADD DUP3 DUP1 SLOAD PUSH2 0xC72 SWAP1 PUSH2 0x3671 JUMP JUMPDEST DUP1 ISZERO PUSH2 0xCBF JUMPI DUP1 PUSH1 0x1F LT PUSH2 0xC94 JUMPI PUSH2 0x100 DUP1 DUP4 SLOAD DIV MUL DUP4 MSTORE SWAP2 PUSH1 0x20 ADD SWAP2 PUSH2 0xCBF JUMP JUMPDEST DUP3 ADD SWAP2 SWAP1 PUSH1 0x0 MSTORE PUSH1 0x20 PUSH1 0x0 KECCAK256 SWAP1 JUMPDEST DUP2 SLOAD DUP2 MSTORE SWAP1 PUSH1 0x1 ADD SWAP1 PUSH1 0x20 ADD DUP1 DUP4 GT PUSH2 0xCA2 JUMPI DUP3 SWAP1 SUB PUSH1 0x1F AND DUP3 ADD SWAP2 JUMPDEST POP POP POP POP POP DUP2 MSTORE PUSH1 0x20 ADD SWAP1 PUSH1 0x1 ADD SWAP1 PUSH2 0xC27 JUMP JUMPDEST POP POP POP POP DUP2 MSTORE PUSH1 0x20 ADD PUSH1 0x3 DUP3 ADD DUP1 SLOAD DUP1 PUSH1 0x20 MUL PUSH1 0x20 ADD PUSH1 0x40 MLOAD SWAP1 DUP2 ADD PUSH1 0x40 MSTORE DUP1 SWAP3 SWAP2 SWAP1 DUP2 DUP2 MSTORE PUSH1 0x20 ADD DUP3 DUP1 SLOAD DUP1 ISZERO PUSH2 0xD2A JUMPI PUSH1 0x20 MUL DUP3 ADD SWAP2 SWAP1 PUSH1 0x0 MSTORE PUSH1 0x20 PUSH1 0x0 KECCAK256 SWAP1 JUMPDEST DUP2 SLOAD DUP2 MSTORE PUSH1 0x20 ADD SWAP1 PUSH1 0x1 ADD SWAP1 DUP1 DUP4 GT PUSH2 0xD16 JUMPI JUMPDEST POP POP POP SWAP2 DUP4 MSTORE POP POP PUSH1 0x4 DUP3 ADD SLOAD PUSH1 0x1 PUSH1 0x1 PUSH1 0xA0 SHL SUB SWAP1 DUP2 AND PUSH1 0x20 DUP1 DUP5 ADD SWAP2 SWAP1 SWAP2 MSTORE PUSH1 0x5 DUP5 ADD SLOAD DUP3 AND PUSH1 0x40 DUP5 ADD MSTORE PUSH1 0x6 DUP5 ADD SLOAD PUSH1 0x60 DUP5 ADD MSTORE PUSH1 0x7 DUP5 ADD SLOAD SWAP1 SWAP2 AND PUSH1 0x80 DUP4 ADD MSTORE PUSH1 0x8 DUP4 ADD SLOAD PUSH1 0xA0 DUP4 ADD MSTORE PUSH1 0x9 DUP4 ADD SLOAD PUSH1 0xC0 DUP4 ADD MSTORE PUSH1 0xA SWAP1 SWAP3 ADD SLOAD PUSH1 0xE0 SWAP1 SWAP2 ADD MSTORE SWAP1 DUP3 MSTORE PUSH1 0x1 SWAP3 SWAP1 SWAP3 ADD SWAP2 ADD PUSH2 0xB3A JUMP JUMPDEST POP POP POP POP SWAP1 POP SWAP1 JUMP JUMPDEST PUSH1 0x40 MLOAD DUP1 PUSH1 0x40 ADD PUSH1 0x40 MSTORE DUP1 PUSH1 0x1 DUP2 MSTORE PUSH1 0x20 ADD PUSH1 0xB PUSH1 0xFB SHL DUP2 MSTORE POP PUSH1 0x7 DUP3 DUP2 SLOAD DUP2 LT PUSH2 0xDD4 JUMPI PUSH2 0xDD4 PUSH2 0x37BA JUMP JUMPDEST SWAP1 PUSH1 0x0 MSTORE PUSH1 0x20 PUSH1 0x0 KECCAK256 SWAP1 PUSH1 0xB MUL ADD PUSH1 0x1 ADD SWAP1 DUP2 PUSH2 0xDF1 SWAP2 SWAP1 PUSH2 0x36FA JUMP JUMPDEST POP PUSH1 0x40 DUP1 MLOAD PUSH2 0x140 DUP2 ADD DUP3 MSTORE PUSH1 0x0 PUSH2 0x120 DUP3 ADD DUP2 DUP2 MSTORE DUP3 MSTORE DUP3 MLOAD PUSH1 0x20 DUP2 DUP2 ADD DUP6 MSTORE DUP3 DUP3 MSTORE DUP1 DUP5 ADD SWAP2 SWAP1 SWAP2 MSTORE DUP4 MLOAD DUP1 DUP3 ADD DUP6 MSTORE DUP3 DUP2 MSTORE DUP4 DUP6 ADD MSTORE DUP4 MLOAD DUP1 DUP3 ADD DUP6 MSTORE DUP3 DUP2 MSTORE PUSH1 0x60 DUP5 ADD MSTORE DUP4 MLOAD DUP1 DUP3 ADD DUP6 MSTORE DUP3 DUP2 MSTORE PUSH1 0x80 DUP5 ADD MSTORE DUP4 MLOAD DUP1 DUP3 ADD DUP6 MSTORE DUP3 DUP2 MSTORE PUSH1 0xA0 DUP5 ADD MSTORE DUP4 MLOAD DUP1 DUP3 ADD DUP6 MSTORE DUP3 DUP2 MSTORE PUSH1 0xC0 DUP5 ADD MSTORE DUP4 MLOAD DUP1 DUP3 ADD DUP6 MSTORE DUP3 DUP2 MSTORE PUSH1 0xE0 DUP5 ADD MSTORE DUP4 MLOAD SWAP1 DUP2 ADD SWAP1 SWAP4 MSTORE DUP3 MSTORE PUSH2 0x100 DUP2 ADD SWAP2 SWAP1 SWAP2 MSTORE PUSH1 0x7 DUP1 SLOAD DUP4 SWAP1 DUP2 LT PUSH2 0xE9C JUMPI PUSH2 0xE9C PUSH2 0x37BA JUMP JUMPDEST SWAP1 PUSH1 0x0 MSTORE PUSH1 0x20 PUSH1 0x0 KECCAK256 SWAP1 PUSH1 0xB MUL ADD PUSH1 0x2 ADD SWAP1 PUSH1 0x9 PUSH2 0xEBB SWAP3 SWAP2 SWAP1 PUSH2 0x3072 JUMP JUMPDEST POP PUSH1 0x1 PUSH1 0x7 DUP3 DUP2 SLOAD DUP2 LT PUSH2 0xED1 JUMPI PUSH2 0xED1 PUSH2 0x37BA JUMP JUMPDEST PUSH1 0x0 SWAP2 DUP3 MSTORE PUSH1 0x20 SWAP2 DUP3 SWAP1 KECCAK256 PUSH1 0xB SWAP1 SWAP2 MUL ADD DUP1 SLOAD PUSH1 0xFF NOT AND SWAP3 ISZERO ISZERO SWAP3 SWAP1 SWAP3 OR SWAP1 SWAP2 SSTORE PUSH1 0x40 MLOAD DUP3 DUP2 MSTORE PUSH32 0xC5478E3FE602C65E5CDD37ABE42A8E007FF762D266B9E8256769194C1FA1361E SWAP2 ADD JUMPDEST PUSH1 0x40 MLOAD DUP1 SWAP2 SUB SWAP1 LOG1 POP JUMP JUMPDEST PUSH1 0x7 DUP2 DUP2 SLOAD DUP2 LT PUSH2 0xF3A JUMPI PUSH2 0xF3A PUSH2 0x37BA JUMP JUMPDEST PUSH1 0x0 SWAP2 DUP3 MSTORE PUSH1 0x20 SWAP1 SWAP2 KECCAK256 PUSH1 0xB SWAP1 SWAP2 MUL ADD SLOAD PUSH1 0xFF AND PUSH2 0xF9A JUMPI PUSH1 0x40 MLOAD PUSH3 0x461BCD PUSH1 0xE5 SHL DUP2 MSTORE PUSH1 0x20 PUSH1 0x4 DUP3 ADD MSTORE PUSH1 0x1C PUSH1 0x24 DUP3 ADD MSTORE PUSH32 0x5468652067616D65207374696C6C206E6F742073746172742079657400000000 PUSH1 0x44 DUP3 ADD MSTORE PUSH1 0x64 ADD PUSH2 0x34F JUMP JUMPDEST PUSH2 0x107A PUSH1 0x7 DUP3 DUP2 SLOAD DUP2 LT PUSH2 0xFB0 JUMPI PUSH2 0xFB0 PUSH2 0x37BA JUMP JUMPDEST SWAP1 PUSH1 0x0 MSTORE PUSH1 0x20 PUSH1 0x0 KECCAK256 SWAP1 PUSH1 0xB MUL ADD PUSH1 0x2 ADD DUP4 DUP2 SLOAD DUP2 LT PUSH2 0xFD2 JUMPI PUSH2 0xFD2 PUSH2 0x37BA JUMP JUMPDEST SWAP1 PUSH1 0x0 MSTORE PUSH1 0x20 PUSH1 0x0 KECCAK256 ADD DUP1 SLOAD PUSH2 0xFE7 SWAP1 PUSH2 0x3671 JUMP JUMPDEST DUP1 PUSH1 0x1F ADD PUSH1 0x20 DUP1 SWAP2 DIV MUL PUSH1 0x20 ADD PUSH1 0x40 MLOAD SWAP1 DUP2 ADD PUSH1 0x40 MSTORE DUP1 SWAP3 SWAP2 SWAP1 DUP2 DUP2 MSTORE PUSH1 0x20 ADD DUP3 DUP1 SLOAD PUSH2 0x1013 SWAP1 PUSH2 0x3671 JUMP JUMPDEST DUP1 ISZERO PUSH2 0x1060 JUMPI DUP1 PUSH1 0x1F LT PUSH2 0x1035 JUMPI PUSH2 0x100 DUP1 DUP4 SLOAD DIV MUL DUP4 MSTORE SWAP2 PUSH1 0x20 ADD SWAP2 PUSH2 0x1060 JUMP JUMPDEST DUP3 ADD SWAP2 SWAP1 PUSH1 0x0 MSTORE PUSH1 0x20 PUSH1 0x0 KECCAK256 SWAP1 JUMPDEST DUP2 SLOAD DUP2 MSTORE SWAP1 PUSH1 0x1 ADD SWAP1 PUSH1 0x20 ADD DUP1 DUP4 GT PUSH2 0x1043 JUMPI DUP3 SWAP1 SUB PUSH1 0x1F AND DUP3 ADD SWAP2 JUMPDEST POP POP POP POP POP PUSH1 0x40 MLOAD DUP1 PUSH1 0x20 ADD PUSH1 0x40 MSTORE DUP1 PUSH1 0x0 DUP2 MSTORE POP PUSH2 0x21E7 JUMP JUMPDEST PUSH2 0x10B6 JUMPI PUSH1 0x40 MLOAD PUSH3 0x461BCD PUSH1 0xE5 SHL DUP2 MSTORE PUSH1 0x20 PUSH1 0x4 DUP3 ADD MSTORE PUSH1 0xD PUSH1 0x24 DUP3 ADD MSTORE PUSH13 0x125B9D985B1A59081A5B9C1D5D PUSH1 0x9A SHL PUSH1 0x44 DUP3 ADD MSTORE PUSH1 0x64 ADD PUSH2 0x34F JUMP JUMPDEST PUSH2 0x1185 PUSH1 0x7 DUP3 DUP2 SLOAD DUP2 LT PUSH2 0x10CC JUMPI PUSH2 0x10CC PUSH2 0x37BA JUMP JUMPDEST SWAP1 PUSH1 0x0 MSTORE PUSH1 0x20 PUSH1 0x0 KECCAK256 SWAP1 PUSH1 0xB MUL ADD PUSH1 0x1 ADD DUP1 SLOAD PUSH2 0x10E8 SWAP1 PUSH2 0x3671 JUMP JUMPDEST DUP1 PUSH1 0x1F ADD PUSH1 0x20 DUP1 SWAP2 DIV MUL PUSH1 0x20 ADD PUSH1 0x40 MLOAD SWAP1 DUP2 ADD PUSH1 0x40 MSTORE DUP1 SWAP3 SWAP2 SWAP1 DUP2 DUP2 MSTORE PUSH1 0x20 ADD DUP3 DUP1 SLOAD PUSH2 0x1114 SWAP1 PUSH2 0x3671 JUMP JUMPDEST DUP1 ISZERO PUSH2 0x1161 JUMPI DUP1 PUSH1 0x1F LT PUSH2 0x1136 JUMPI PUSH2 0x100 DUP1 DUP4 SLOAD DIV MUL DUP4 MSTORE SWAP2 PUSH1 0x20 ADD SWAP2 PUSH2 0x1161 JUMP JUMPDEST DUP3 ADD SWAP2 SWAP1 PUSH1 0x0 MSTORE PUSH1 0x20 PUSH1 0x0 KECCAK256 SWAP1 JUMPDEST DUP2 SLOAD DUP2 MSTORE SWAP1 PUSH1 0x1 ADD SWAP1 PUSH1 0x20 ADD DUP1 DUP4 GT PUSH2 0x1144 JUMPI DUP3 SWAP1 SUB PUSH1 0x1F AND DUP3 ADD SWAP2 JUMPDEST POP POP POP POP POP PUSH1 0x40 MLOAD DUP1 PUSH1 0x40 ADD PUSH1 0x40 MSTORE DUP1 PUSH1 0x1 DUP2 MSTORE PUSH1 0x20 ADD PUSH1 0xB PUSH1 0xFB SHL DUP2 MSTORE POP PUSH2 0x21E7 JUMP JUMPDEST ISZERO PUSH2 0x1204 JUMPI PUSH1 0x7 DUP2 DUP2 SLOAD DUP2 LT PUSH2 0x119D JUMPI PUSH2 0x119D PUSH2 0x37BA JUMP JUMPDEST PUSH1 0x0 SWAP2 DUP3 MSTORE PUSH1 0x20 SWAP1 SWAP2 KECCAK256 PUSH1 0xB SWAP1 SWAP2 MUL ADD PUSH1 0x4 ADD SLOAD PUSH1 0x1 PUSH1 0x1 PUSH1 0xA0 SHL SUB AND CALLER EQ PUSH2 0x11FF JUMPI PUSH1 0x40 MLOAD PUSH3 0x461BCD PUSH1 0xE5 SHL DUP2 MSTORE PUSH1 0x20 PUSH1 0x4 DUP3 ADD MSTORE PUSH1 0x14 PUSH1 0x24 DUP3 ADD MSTORE PUSH20 0x596F7520617265206E6F7420706C617965722031 PUSH1 0x60 SHL PUSH1 0x44 DUP3 ADD MSTORE PUSH1 0x64 ADD PUSH2 0x34F JUMP JUMPDEST PUSH2 0x1279 JUMP JUMPDEST PUSH1 0x7 DUP2 DUP2 SLOAD DUP2 LT PUSH2 0x1217 JUMPI PUSH2 0x1217 PUSH2 0x37BA JUMP JUMPDEST PUSH1 0x0 SWAP2 DUP3 MSTORE PUSH1 0x20 SWAP1 SWAP2 KECCAK256 PUSH1 0xB SWAP1 SWAP2 MUL ADD PUSH1 0x5 ADD SLOAD PUSH1 0x1 PUSH1 0x1 PUSH1 0xA0 SHL SUB AND CALLER EQ PUSH2 0x1279 JUMPI PUSH1 0x40 MLOAD PUSH3 0x461BCD PUSH1 0xE5 SHL DUP2 MSTORE PUSH1 0x20 PUSH1 0x4 DUP3 ADD MSTORE PUSH1 0x14 PUSH1 0x24 DUP3 ADD MSTORE PUSH20 0x2CB7BA9030B932903737BA10383630BCB2B91019 PUSH1 0x61 SHL PUSH1 0x44 DUP3 ADD MSTORE PUSH1 0x64 ADD PUSH2 0x34F JUMP JUMPDEST PUSH1 0x7 DUP2 DUP2 SLOAD DUP2 LT PUSH2 0x128C JUMPI PUSH2 0x128C PUSH2 0x37BA JUMP JUMPDEST SWAP1 PUSH1 0x0 MSTORE PUSH1 0x20 PUSH1 0x0 KECCAK256 SWAP1 PUSH1 0xB MUL ADD PUSH1 0x1 ADD PUSH1 0x7 DUP3 DUP2 SLOAD DUP2 LT PUSH2 0x12B0 JUMPI PUSH2 0x12B0 PUSH2 0x37BA JUMP JUMPDEST SWAP1 PUSH1 0x0 MSTORE PUSH1 0x20 PUSH1 0x0 KECCAK256 SWAP1 PUSH1 0xB MUL ADD PUSH1 0x2 ADD DUP4 DUP2 SLOAD DUP2 LT PUSH2 0x12D2 JUMPI PUSH2 0x12D2 PUSH2 0x37BA JUMP JUMPDEST SWAP1 PUSH1 0x0 MSTORE PUSH1 0x20 PUSH1 0x0 KECCAK256 ADD SWAP1 DUP2 PUSH2 0x12E8 SWAP2 SWAP1 PUSH2 0x37E9 JUMP JUMPDEST POP PUSH32 0x9659242F3970136BF08CBA261398AE9F0BC58A676137D79D3C2040DCDACBC18B PUSH1 0x7 DUP3 DUP2 SLOAD DUP2 LT PUSH2 0x131D JUMPI PUSH2 0x131D PUSH2 0x37BA JUMP JUMPDEST SWAP1 PUSH1 0x0 MSTORE PUSH1 0x20 PUSH1 0x0 KECCAK256 SWAP1 PUSH1 0xB MUL ADD PUSH1 0x2 ADD DUP3 PUSH1 0x40 MLOAD PUSH2 0x133D SWAP3 SWAP2 SWAP1 PUSH2 0x399A JUMP JUMPDEST PUSH1 0x40 MLOAD DUP1 SWAP2 SUB SWAP1 LOG1 PUSH2 0x134E DUP2 PUSH2 0x2481 JUMP JUMPDEST POP POP JUMP JUMPDEST PUSH1 0x7 DUP2 DUP2 SLOAD DUP2 LT PUSH2 0x1362 JUMPI PUSH1 0x0 DUP1 REVERT JUMPDEST PUSH1 0x0 SWAP2 DUP3 MSTORE PUSH1 0x20 SWAP1 SWAP2 KECCAK256 PUSH1 0xB SWAP1 SWAP2 MUL ADD DUP1 SLOAD PUSH1 0x1 DUP3 ADD DUP1 SLOAD PUSH1 0xFF SWAP1 SWAP3 AND SWAP4 POP SWAP1 PUSH2 0x138B SWAP1 PUSH2 0x3671 JUMP JUMPDEST DUP1 PUSH1 0x1F ADD PUSH1 0x20 DUP1 SWAP2 DIV MUL PUSH1 0x20 ADD PUSH1 0x40 MLOAD SWAP1 DUP2 ADD PUSH1 0x40 MSTORE DUP1 SWAP3 SWAP2 SWAP1 DUP2 DUP2 MSTORE PUSH1 0x20 ADD DUP3 DUP1 SLOAD PUSH2 0x13B7 SWAP1 PUSH2 0x3671 JUMP JUMPDEST DUP1 ISZERO PUSH2 0x1404 JUMPI DUP1 PUSH1 0x1F LT PUSH2 0x13D9 JUMPI PUSH2 0x100 DUP1 DUP4 SLOAD DIV MUL DUP4 MSTORE SWAP2 PUSH1 0x20 ADD SWAP2 PUSH2 0x1404 JUMP JUMPDEST DUP3 ADD SWAP2 SWAP1 PUSH1 0x0 MSTORE PUSH1 0x20 PUSH1 0x0 KECCAK256 SWAP1 JUMPDEST DUP2 SLOAD DUP2 MSTORE SWAP1 PUSH1 0x1 ADD SWAP1 PUSH1 0x20 ADD DUP1 DUP4 GT PUSH2 0x13E7 JUMPI DUP3 SWAP1 SUB PUSH1 0x1F AND DUP3 ADD SWAP2 JUMPDEST POP POP POP PUSH1 0x4 DUP5 ADD SLOAD PUSH1 0x5 DUP6 ADD SLOAD PUSH1 0x6 DUP7 ADD SLOAD PUSH1 0x7 DUP8 ADD SLOAD PUSH1 0x8 DUP9 ADD SLOAD PUSH1 0x9 DUP10 ADD SLOAD PUSH1 0xA SWAP1 SWAP10 ADD SLOAD SWAP8 SWAP9 PUSH1 0x1 PUSH1 0x1 PUSH1 0xA0 SHL SUB SWAP6 DUP7 AND SWAP9 SWAP5 DUP7 AND SWAP8 POP SWAP3 SWAP6 POP SWAP4 AND SWAP3 SWAP2 DUP10 JUMP JUMPDEST PUSH1 0x6 SLOAD PUSH1 0x1 PUSH1 0x1 PUSH1 0xA0 SHL SUB AND CALLER EQ PUSH2 0x1492 JUMPI PUSH1 0x40 MLOAD PUSH3 0x461BCD PUSH1 0xE5 SHL DUP2 MSTORE PUSH1 0x20 PUSH1 0x4 DUP3 ADD MSTORE PUSH1 0xD PUSH1 0x24 DUP3 ADD MSTORE PUSH13 0x2737BA103A34329037BBB732B9 PUSH1 0x99 SHL PUSH1 0x44 DUP3 ADD MSTORE PUSH1 0x64 ADD PUSH2 0x34F JUMP JUMPDEST PUSH1 0x5 SLOAD PUSH1 0x0 DUP1 SLOAD PUSH1 0x40 MLOAD PUSH4 0x70A08231 PUSH1 0xE0 SHL DUP2 MSTORE ADDRESS PUSH1 0x4 DUP3 ADD MSTORE SWAP2 SWAP3 SWAP2 PUSH1 0x1 PUSH1 0x1 PUSH1 0xA0 SHL SUB SWAP1 SWAP2 AND SWAP1 PUSH4 0x70A08231 SWAP1 PUSH1 0x24 ADD PUSH1 0x20 PUSH1 0x40 MLOAD DUP1 DUP4 SUB DUP2 DUP7 GAS STATICCALL ISZERO DUP1 ISZERO PUSH2 0x14E1 JUMPI RETURNDATASIZE PUSH1 0x0 DUP1 RETURNDATACOPY RETURNDATASIZE PUSH1 0x0 REVERT JUMPDEST POP POP POP POP PUSH1 0x40 MLOAD RETURNDATASIZE PUSH1 0x1F NOT PUSH1 0x1F DUP3 ADD AND DUP3 ADD DUP1 PUSH1 0x40 MSTORE POP DUP2 ADD SWAP1 PUSH2 0x1505 SWAP2 SWAP1 PUSH2 0x359D JUMP JUMPDEST PUSH2 0x150F SWAP2 SWAP1 PUSH2 0x3605 JUMP JUMPDEST GT PUSH2 0x1555 JUMPI PUSH1 0x40 MLOAD PUSH3 0x461BCD PUSH1 0xE5 SHL DUP2 MSTORE PUSH1 0x20 PUSH1 0x4 DUP3 ADD MSTORE PUSH1 0x16 PUSH1 0x24 DUP3 ADD MSTORE PUSH22 0x54686520746F6B656E206973206E6F74206578747261 PUSH1 0x50 SHL PUSH1 0x44 DUP3 ADD MSTORE PUSH1 0x64 ADD PUSH2 0x34F JUMP JUMPDEST PUSH1 0x0 SLOAD PUSH1 0x6 SLOAD PUSH1 0x5 SLOAD PUSH1 0x40 MLOAD PUSH4 0x70A08231 PUSH1 0xE0 SHL DUP2 MSTORE ADDRESS PUSH1 0x4 DUP3 ADD MSTORE PUSH1 0x1 PUSH1 0x1 PUSH1 0xA0 SHL SUB SWAP4 DUP5 AND SWAP4 PUSH4 0xA9059CBB SWAP4 AND SWAP2 SWAP1 DUP5 SWAP1 PUSH4 0x70A08231 SWAP1 PUSH1 0x24 ADD PUSH1 0x20 PUSH1 0x40 MLOAD DUP1 DUP4 SUB DUP2 DUP7 GAS STATICCALL ISZERO DUP1 ISZERO PUSH2 0x15AE JUMPI RETURNDATASIZE PUSH1 0x0 DUP1 RETURNDATACOPY RETURNDATASIZE PUSH1 0x0 REVERT JUMPDEST POP POP POP POP PUSH1 0x40 MLOAD RETURNDATASIZE PUSH1 0x1F NOT PUSH1 0x1F DUP3 ADD AND DUP3 ADD DUP1 PUSH1 0x40 MSTORE POP DUP2 ADD SWAP1 PUSH2 0x15D2 SWAP2 SWAP1 PUSH2 0x359D JUMP JUMPDEST PUSH2 0x15DC SWAP2 SWAP1 PUSH2 0x3605 JUMP JUMPDEST PUSH1 0x40 MLOAD PUSH1 0x1 PUSH1 0x1 PUSH1 0xE0 SHL SUB NOT PUSH1 0xE0 DUP6 SWAP1 SHL AND DUP2 MSTORE PUSH1 0x1 PUSH1 0x1 PUSH1 0xA0 SHL SUB SWAP1 SWAP3 AND PUSH1 0x4 DUP4 ADD MSTORE PUSH1 0x24 DUP3 ADD MSTORE PUSH1 0x44 ADD PUSH1 0x20 PUSH1 0x40 MLOAD DUP1 DUP4 SUB DUP2 PUSH1 0x0 DUP8 GAS CALL ISZERO DUP1 ISZERO PUSH2 0x1627 JUMPI RETURNDATASIZE PUSH1 0x0 DUP1 RETURNDATACOPY RETURNDATASIZE PUSH1 0x0 REVERT JUMPDEST POP POP POP POP PUSH1 0x40 MLOAD RETURNDATASIZE PUSH1 0x1F NOT PUSH1 0x1F DUP3 ADD AND DUP3 ADD DUP1 PUSH1 0x40 MSTORE POP DUP2 ADD SWAP1 PUSH2 0xB13 SWAP2 SWAP1 PUSH2 0x363C JUMP JUMPDEST PUSH2 0x1653 PUSH2 0x2F5E JUMP JUMPDEST PUSH1 0x7 DUP3 DUP2 SLOAD DUP2 LT PUSH2 0x1666 JUMPI PUSH2 0x1666 PUSH2 0x37BA JUMP JUMPDEST PUSH1 0x0 SWAP2 DUP3 MSTORE PUSH1 0x20 SWAP2 DUP3 SWAP1 KECCAK256 PUSH1 0x40 DUP1 MLOAD PUSH2 0x160 DUP2 ADD SWAP1 SWAP2 MSTORE PUSH1 0xB SWAP1 SWAP3 MUL ADD DUP1 SLOAD PUSH1 0xFF AND ISZERO ISZERO DUP3 MSTORE PUSH1 0x1 DUP2 ADD DUP1 SLOAD SWAP3 SWAP4 SWAP2 SWAP3 SWAP2 DUP5 ADD SWAP2 PUSH2 0x16A3 SWAP1 PUSH2 0x3671 JUMP JUMPDEST DUP1 PUSH1 0x1F ADD PUSH1 0x20 DUP1 SWAP2 DIV MUL PUSH1 0x20 ADD PUSH1 0x40 MLOAD SWAP1 DUP2 ADD PUSH1 0x40 MSTORE DUP1 SWAP3 SWAP2 SWAP1 DUP2 DUP2 MSTORE PUSH1 0x20 ADD DUP3 DUP1 SLOAD PUSH2 0x16CF SWAP1 PUSH2 0x3671 JUMP JUMPDEST DUP1 ISZERO PUSH2 0x171C JUMPI DUP1 PUSH1 0x1F LT PUSH2 0x16F1 JUMPI PUSH2 0x100 DUP1 DUP4 SLOAD DIV MUL DUP4 MSTORE SWAP2 PUSH1 0x20 ADD SWAP2 PUSH2 0x171C JUMP JUMPDEST DUP3 ADD SWAP2 SWAP1 PUSH1 0x0 MSTORE PUSH1 0x20 PUSH1 0x0 KECCAK256 SWAP1 JUMPDEST DUP2 SLOAD DUP2 MSTORE SWAP1 PUSH1 0x1 ADD SWAP1 PUSH1 0x20 ADD DUP1 DUP4 GT PUSH2 0x16FF JUMPI DUP3 SWAP1 SUB PUSH1 0x1F AND DUP3 ADD SWAP2 JUMPDEST POP POP POP POP POP DUP2 MSTORE PUSH1 0x20 ADD PUSH1 0x2 DUP3 ADD DUP1 SLOAD DUP1 PUSH1 0x20 MUL PUSH1 0x20 ADD PUSH1 0x40 MLOAD SWAP1 DUP2 ADD PUSH1 0x40 MSTORE DUP1 SWAP3 SWAP2 SWAP1 DUP2 DUP2 MSTORE PUSH1 0x20 ADD PUSH1 0x0 SWAP1 JUMPDEST DUP3 DUP3 LT ISZERO PUSH2 0x17F6 JUMPI DUP4 DUP3 SWAP1 PUSH1 0x0 MSTORE PUSH1 0x20 PUSH1 0x0 KECCAK256 ADD DUP1 SLOAD PUSH2 0x1769 SWAP1 PUSH2 0x3671 JUMP JUMPDEST DUP1 PUSH1 0x1F ADD PUSH1 0x20 DUP1 SWAP2 DIV MUL PUSH1 0x20 ADD PUSH1 0x40 MLOAD SWAP1 DUP2 ADD PUSH1 0x40 MSTORE DUP1 SWAP3 SWAP2 SWAP1 DUP2 DUP2 MSTORE PUSH1 0x20 ADD DUP3 DUP1 SLOAD PUSH2 0x1795 SWAP1 PUSH2 0x3671 JUMP JUMPDEST DUP1 ISZERO PUSH2 0x17E2 JUMPI DUP1 PUSH1 0x1F LT PUSH2 0x17B7 JUMPI PUSH2 0x100 DUP1 DUP4 SLOAD DIV MUL DUP4 MSTORE SWAP2 PUSH1 0x20 ADD SWAP2 PUSH2 0x17E2 JUMP JUMPDEST DUP3 ADD SWAP2 SWAP1 PUSH1 0x0 MSTORE PUSH1 0x20 PUSH1 0x0 KECCAK256 SWAP1 JUMPDEST DUP2 SLOAD DUP2 MSTORE SWAP1 PUSH1 0x1 ADD SWAP1 PUSH1 0x20 ADD DUP1 DUP4 GT PUSH2 0x17C5 JUMPI DUP3 SWAP1 SUB PUSH1 0x1F AND DUP3 ADD SWAP2 JUMPDEST POP POP POP POP POP DUP2 MSTORE PUSH1 0x20 ADD SWAP1 PUSH1 0x1 ADD SWAP1 PUSH2 0x174A JUMP JUMPDEST POP POP POP POP DUP2 MSTORE PUSH1 0x20 ADD PUSH1 0x3 DUP3 ADD DUP1 SLOAD DUP1 PUSH1 0x20 MUL PUSH1 0x20 ADD PUSH1 0x40 MLOAD SWAP1 DUP2 ADD PUSH1 0x40 MSTORE DUP1 SWAP3 SWAP2 SWAP1 DUP2 DUP2 MSTORE PUSH1 0x20 ADD DUP3 DUP1 SLOAD DUP1 ISZERO PUSH2 0x184D JUMPI PUSH1 0x20 MUL DUP3 ADD SWAP2 SWAP1 PUSH1 0x0 MSTORE PUSH1 0x20 PUSH1 0x0 KECCAK256 SWAP1 JUMPDEST DUP2 SLOAD DUP2 MSTORE PUSH1 0x20 ADD SWAP1 PUSH1 0x1 ADD SWAP1 DUP1 DUP4 GT PUSH2 0x1839 JUMPI JUMPDEST POP POP POP SWAP2 DUP4 MSTORE POP POP PUSH1 0x4 DUP3 ADD SLOAD PUSH1 0x1 PUSH1 0x1 PUSH1 0xA0 SHL SUB SWAP1 DUP2 AND PUSH1 0x20 DUP4 ADD MSTORE PUSH1 0x5 DUP4 ADD SLOAD DUP2 AND PUSH1 0x40 DUP4 ADD MSTORE PUSH1 0x6 DUP4 ADD SLOAD PUSH1 0x60 DUP4 ADD MSTORE PUSH1 0x7 DUP4 ADD SLOAD AND PUSH1 0x80 DUP3 ADD MSTORE PUSH1 0x8 DUP3 ADD SLOAD PUSH1 0xA0 DUP3 ADD MSTORE PUSH1 0x9 DUP3 ADD SLOAD PUSH1 0xC0 DUP3 ADD MSTORE PUSH1 0xA SWAP1 SWAP2 ADD SLOAD PUSH1 0xE0 SWAP1 SWAP2 ADD MSTORE SWAP3 SWAP2 POP POP JUMP JUMPDEST PUSH1 0x6 SLOAD PUSH1 0x1 PUSH1 0xA0 SHL SWAP1 DIV PUSH1 0xFF AND ISZERO PUSH2 0x1903 JUMPI PUSH1 0x40 MLOAD PUSH3 0x461BCD PUSH1 0xE5 SHL DUP2 MSTORE PUSH1 0x20 PUSH1 0x4 DUP3 ADD MSTORE PUSH1 0x15 PUSH1 0x24 DUP3 ADD MSTORE PUSH21 0x115C9C9BDC8E881499595B9D1C985B9D0818D85B1B PUSH1 0x5A SHL PUSH1 0x44 DUP3 ADD MSTORE PUSH1 0x64 ADD PUSH2 0x34F JUMP JUMPDEST PUSH1 0x6 DUP1 SLOAD PUSH1 0xFF PUSH1 0xA0 SHL NOT AND PUSH1 0x1 PUSH1 0xA0 SHL OR SWAP1 SSTORE PUSH1 0x7 DUP1 SLOAD DUP4 SWAP1 DUP2 LT PUSH2 0x192A JUMPI PUSH2 0x192A PUSH2 0x37BA JUMP JUMPDEST SWAP1 PUSH1 0x0 MSTORE PUSH1 0x20 PUSH1 0x0 KECCAK256 SWAP1 PUSH1 0xB MUL ADD PUSH1 0x6 ADD SLOAD PUSH1 0x1 SUB PUSH2 0x1EA1 JUMPI PUSH1 0x7 DUP3 DUP2 SLOAD DUP2 LT PUSH2 0x1956 JUMPI PUSH2 0x1956 PUSH2 0x37BA JUMP JUMPDEST PUSH1 0x0 SWAP2 DUP3 MSTORE PUSH1 0x20 DUP3 KECCAK256 PUSH1 0xB SWAP2 SWAP1 SWAP2 MUL ADD PUSH1 0x8 ADD SLOAD SWAP1 SLOAD PUSH1 0x40 MLOAD PUSH4 0x70A08231 PUSH1 0xE0 SHL DUP2 MSTORE CALLER PUSH1 0x4 DUP3 ADD MSTORE PUSH1 0x1 PUSH1 0x1 PUSH1 0xA0 SHL SUB SWAP1 SWAP2 AND SWAP1 PUSH4 0x70A08231 SWAP1 PUSH1 0x24 ADD PUSH1 0x20 PUSH1 0x40 MLOAD DUP1 DUP4 SUB DUP2 DUP7 GAS STATICCALL ISZERO DUP1 ISZERO PUSH2 0x19B1 JUMPI RETURNDATASIZE PUSH1 0x0 DUP1 RETURNDATACOPY RETURNDATASIZE PUSH1 0x0 REVERT JUMPDEST POP POP POP POP PUSH1 0x40 MLOAD RETURNDATASIZE PUSH1 0x1F NOT PUSH1 0x1F DUP3 ADD AND DUP3 ADD DUP1 PUSH1 0x40 MSTORE POP DUP2 ADD SWAP1 PUSH2 0x19D5 SWAP2 SWAP1 PUSH2 0x359D JUMP JUMPDEST LT ISZERO PUSH2 0x1A18 JUMPI PUSH1 0x40 MLOAD PUSH3 0x461BCD PUSH1 0xE5 SHL DUP2 MSTORE PUSH1 0x20 PUSH1 0x4 DUP3 ADD MSTORE PUSH1 0x12 PUSH1 0x24 DUP3 ADD MSTORE PUSH18 0x4E6F7420656E6F7567682062616C616E6365 PUSH1 0x70 SHL PUSH1 0x44 DUP3 ADD MSTORE PUSH1 0x64 ADD PUSH2 0x34F JUMP JUMPDEST PUSH1 0x7 DUP3 DUP2 SLOAD DUP2 LT PUSH2 0x1A2B JUMPI PUSH2 0x1A2B PUSH2 0x37BA JUMP JUMPDEST SWAP1 PUSH1 0x0 MSTORE PUSH1 0x20 PUSH1 0x0 KECCAK256 SWAP1 PUSH1 0xB MUL ADD PUSH1 0x8 ADD SLOAD DUP2 EQ PUSH2 0x1A8B JUMPI PUSH1 0x40 MLOAD PUSH3 0x461BCD PUSH1 0xE5 SHL DUP2 MSTORE PUSH1 0x20 PUSH1 0x4 DUP3 ADD MSTORE PUSH1 0x1A PUSH1 0x24 DUP3 ADD MSTORE PUSH32 0x4E65656420746F20706179206D696E2062657420616D6F756E74000000000000 PUSH1 0x44 DUP3 ADD MSTORE PUSH1 0x64 ADD PUSH2 0x34F JUMP JUMPDEST PUSH1 0x0 PUSH1 0x64 PUSH1 0x3 SLOAD DUP4 PUSH2 0x1A9D SWAP2 SWAP1 PUSH2 0x35CC JUMP JUMPDEST PUSH2 0x1AA7 SWAP2 SWAP1 PUSH2 0x35E3 JUMP JUMPDEST SWAP1 POP PUSH1 0x0 PUSH1 0x64 PUSH1 0x4 SLOAD DUP5 PUSH2 0x1ABB SWAP2 SWAP1 PUSH2 0x35CC JUMP JUMPDEST PUSH2 0x1AC5 SWAP2 SWAP1 PUSH2 0x35E3 JUMP JUMPDEST SWAP1 POP PUSH1 0x0 DUP2 PUSH2 0x1AD4 DUP5 DUP7 PUSH2 0x3605 JUMP JUMPDEST PUSH2 0x1ADE SWAP2 SWAP1 PUSH2 0x3605 JUMP JUMPDEST PUSH1 0x0 SLOAD PUSH1 0x40 MLOAD PUSH4 0x23B872DD PUSH1 0xE0 SHL DUP2 MSTORE SWAP2 SWAP3 POP PUSH1 0x1 PUSH1 0x1 PUSH1 0xA0 SHL SUB AND SWAP1 PUSH4 0x23B872DD SWAP1 PUSH2 0x1B15 SWAP1 CALLER SWAP1 PUSH2 0xDEAD SWAP1 DUP9 SWAP1 PUSH1 0x4 ADD PUSH2 0x3618 JUMP JUMPDEST PUSH1 0x20 PUSH1 0x40 MLOAD DUP1 DUP4 SUB DUP2 PUSH1 0x0 DUP8 GAS CALL ISZERO DUP1 ISZERO PUSH2 0x1B34 JUMPI RETURNDATASIZE PUSH1 0x0 DUP1 RETURNDATACOPY RETURNDATASIZE PUSH1 0x0 REVERT JUMPDEST POP POP POP POP PUSH1 0x40 MLOAD RETURNDATASIZE PUSH1 0x1F NOT PUSH1 0x1F DUP3 ADD AND DUP3 ADD DUP1 PUSH1 0x40 MSTORE POP DUP2 ADD SWAP1 PUSH2 0x1B58 SWAP2 SWAP1 PUSH2 0x363C JUMP JUMPDEST POP PUSH1 0x0 SLOAD PUSH1 0x2 SLOAD PUSH1 0x40 MLOAD PUSH4 0x23B872DD PUSH1 0xE0 SHL DUP2 MSTORE PUSH1 0x1 PUSH1 0x1 PUSH1 0xA0 SHL SUB SWAP3 DUP4 AND SWAP3 PUSH4 0x23B872DD SWAP3 PUSH2 0x1B92 SWAP3 CALLER SWAP3 SWAP1 SWAP2 AND SWAP1 DUP8 SWAP1 PUSH1 0x4 ADD PUSH2 0x3618 JUMP JUMPDEST PUSH1 0x20 PUSH1 0x40 MLOAD DUP1 DUP4 SUB DUP2 PUSH1 0x0 DUP8 GAS CALL ISZERO DUP1 ISZERO PUSH2 0x1BB1 JUMPI RETURNDATASIZE PUSH1 0x0 DUP1 RETURNDATACOPY RETURNDATASIZE PUSH1 0x0 REVERT JUMPDEST POP POP POP POP PUSH1 0x40 MLOAD RETURNDATASIZE PUSH1 0x1F NOT PUSH1 0x1F DUP3 ADD AND DUP3 ADD DUP1 PUSH1 0x40 MSTORE POP DUP2 ADD SWAP1 PUSH2 0x1BD5 SWAP2 SWAP1 PUSH2 0x363C JUMP JUMPDEST POP PUSH1 0x0 SLOAD PUSH1 0x40 MLOAD PUSH4 0x23B872DD PUSH1 0xE0 SHL DUP2 MSTORE PUSH1 0x1 PUSH1 0x1 PUSH1 0xA0 SHL SUB SWAP1 SWAP2 AND SWAP1 PUSH4 0x23B872DD SWAP1 PUSH2 0x1C0A SWAP1 CALLER SWAP1 ADDRESS SWAP1 DUP7 SWAP1 PUSH1 0x4 ADD PUSH2 0x3618 JUMP JUMPDEST PUSH1 0x20 PUSH1 0x40 MLOAD DUP1 DUP4 SUB DUP2 PUSH1 0x0 DUP8 GAS CALL ISZERO DUP1 ISZERO PUSH2 0x1C29 JUMPI RETURNDATASIZE PUSH1 0x0 DUP1 RETURNDATACOPY RETURNDATASIZE PUSH1 0x0 REVERT JUMPDEST POP POP POP POP PUSH1 0x40 MLOAD RETURNDATASIZE PUSH1 0x1F NOT PUSH1 0x1F DUP3 ADD AND DUP3 ADD DUP1 PUSH1 0x40 MSTORE POP DUP2 ADD SWAP1 PUSH2 0x1C4D SWAP2 SWAP1 PUSH2 0x363C JUMP JUMPDEST POP DUP1 PUSH1 0x5 PUSH1 0x0 DUP3 DUP3 SLOAD PUSH2 0x1C60 SWAP2 SWAP1 PUSH2 0x365E JUMP JUMPDEST SWAP1 SWAP2 SSTORE POP POP PUSH1 0x7 DUP1 SLOAD DUP7 SWAP1 DUP2 LT PUSH2 0x1C79 JUMPI PUSH2 0x1C79 PUSH2 0x37BA JUMP JUMPDEST PUSH1 0x0 SWAP2 DUP3 MSTORE PUSH1 0x20 SWAP1 SWAP2 KECCAK256 PUSH1 0x4 PUSH1 0xB SWAP1 SWAP3 MUL ADD ADD SLOAD PUSH1 0x1 PUSH1 0x1 PUSH1 0xA0 SHL SUB AND CALLER SUB PUSH2 0x1CF0 JUMPI PUSH1 0x40 MLOAD PUSH3 0x461BCD PUSH1 0xE5 SHL DUP2 MSTORE PUSH1 0x20 PUSH1 0x4 DUP3 ADD MSTORE PUSH1 0x24 DUP1 DUP3 ADD MSTORE PUSH32 0x4572726F723A20596F752063616E6E6F7420706C6179207769746820796F7572 PUSH1 0x44 DUP3 ADD MSTORE PUSH4 0x39B2B633 PUSH1 0xE1 SHL PUSH1 0x64 DUP3 ADD MSTORE PUSH1 0x84 ADD PUSH2 0x34F JUMP JUMPDEST CALLER PUSH1 0x7 DUP7 DUP2 SLOAD DUP2 LT PUSH2 0x1D04 JUMPI PUSH2 0x1D04 PUSH2 0x37BA JUMP JUMPDEST SWAP1 PUSH1 0x0 MSTORE PUSH1 0x20 PUSH1 0x0 KECCAK256 SWAP1 PUSH1 0xB MUL ADD PUSH1 0x5 ADD PUSH1 0x0 PUSH2 0x100 EXP DUP2 SLOAD DUP2 PUSH1 0x1 PUSH1 0x1 PUSH1 0xA0 SHL SUB MUL NOT AND SWAP1 DUP4 PUSH1 0x1 PUSH1 0x1 PUSH1 0xA0 SHL SUB AND MUL OR SWAP1 SSTORE POP PUSH1 0x2 PUSH1 0x7 DUP7 DUP2 SLOAD DUP2 LT PUSH2 0x1D4E JUMPI PUSH2 0x1D4E PUSH2 0x37BA JUMP JUMPDEST SWAP1 PUSH1 0x0 MSTORE PUSH1 0x20 PUSH1 0x0 KECCAK256 SWAP1 PUSH1 0xB MUL ADD PUSH1 0x6 ADD DUP2 SWAP1 SSTORE POP PUSH1 0x1 PUSH1 0x7 DUP7 DUP2 SLOAD DUP2 LT PUSH2 0x1D78 JUMPI PUSH2 0x1D78 PUSH2 0x37BA JUMP JUMPDEST SWAP1 PUSH1 0x0 MSTORE PUSH1 0x20 PUSH1 0x0 KECCAK256 SWAP1 PUSH1 0xB MUL ADD PUSH1 0x0 ADD PUSH1 0x0 PUSH2 0x100 EXP DUP2 SLOAD DUP2 PUSH1 0xFF MUL NOT AND SWAP1 DUP4 ISZERO ISZERO MUL OR SWAP1 SSTORE POP DUP4 PUSH1 0x7 DUP7 DUP2 SLOAD DUP2 LT PUSH2 0x1DB4 JUMPI PUSH2 0x1DB4 PUSH2 0x37BA JUMP JUMPDEST SWAP1 PUSH1 0x0 MSTORE PUSH1 0x20 PUSH1 0x0 KECCAK256 SWAP1 PUSH1 0xB MUL ADD PUSH1 0x9 ADD DUP2 SWAP1 SSTORE POP PUSH32 0x2F78808C539FD07CB45456A5D5561C76D3D4005246FACCB297481E511ABC321A PUSH1 0x7 DUP7 DUP2 SLOAD DUP2 LT PUSH2 0x1DFD JUMPI PUSH2 0x1DFD PUSH2 0x37BA JUMP JUMPDEST SWAP1 PUSH1 0x0 MSTORE PUSH1 0x20 PUSH1 0x0 KECCAK256 SWAP1 PUSH1 0xB MUL ADD PUSH1 0x4 ADD PUSH1 0x0 SWAP1 SLOAD SWAP1 PUSH2 0x100 EXP SWAP1 DIV PUSH1 0x1 PUSH1 0x1 PUSH1 0xA0 SHL SUB AND PUSH1 0x7 DUP8 DUP2 SLOAD DUP2 LT PUSH2 0x1E35 JUMPI PUSH2 0x1E35 PUSH2 0x37BA JUMP JUMPDEST PUSH1 0x0 SWAP2 DUP3 MSTORE PUSH1 0x20 SWAP2 DUP3 SWAP1 KECCAK256 PUSH1 0xB SWAP2 DUP3 MUL ADD PUSH1 0x5 ADD SLOAD PUSH1 0x40 DUP1 MLOAD PUSH1 0x80 DUP1 DUP3 MSTORE DUP2 ADD SWAP4 SWAP1 SWAP4 MSTORE PUSH11 0x53746172742067616D6521 PUSH1 0xA8 SHL PUSH1 0xA0 DUP5 ADD MSTORE PUSH1 0x1 PUSH1 0x1 PUSH1 0xA0 SHL SUB SWAP5 DUP6 AND SWAP4 DUP4 ADD SWAP4 SWAP1 SWAP4 MSTORE SWAP3 SWAP1 SWAP3 AND SWAP1 DUP3 ADD MSTORE PUSH1 0x60 DUP2 ADD DUP8 SWAP1 MSTORE PUSH1 0xC0 ADD PUSH1 0x40 MLOAD DUP1 SWAP2 SUB SWAP1 LOG1 POP POP POP PUSH2 0x1F3B JUMP JUMPDEST PUSH1 0x7 DUP3 DUP2 SLOAD DUP2 LT PUSH2 0x1EB4 JUMPI PUSH2 0x1EB4 PUSH2 0x37BA JUMP JUMPDEST SWAP1 PUSH1 0x0 MSTORE PUSH1 0x20 PUSH1 0x0 KECCAK256 SWAP1 PUSH1 0xB MUL ADD PUSH1 0x6 ADD SLOAD PUSH1 0x2 EQ PUSH2 0x1F3B JUMPI PUSH1 0x40 MLOAD PUSH3 0x461BCD PUSH1 0xE5 SHL DUP2 MSTORE PUSH1 0x20 PUSH1 0x4 DUP3 ADD MSTORE PUSH1 0x3E PUSH1 0x24 DUP3 ADD MSTORE PUSH32 0x4E6F772071756575652069732066756C6C2C20747279206C617465722E204761 PUSH1 0x44 DUP3 ADD MSTORE PUSH32 0x6D6520616C72656164792066756C6C20706C73206A6F696E206F746865720000 PUSH1 0x64 DUP3 ADD MSTORE PUSH1 0x84 ADD PUSH2 0x34F JUMP JUMPDEST PUSH32 0x50370B40BD566613CB1B12508C3114409E62C5C8DE11BE443CAFC84462CF5699 PUSH1 0x7 DUP4 DUP2 SLOAD DUP2 LT PUSH2 0x1F6F JUMPI PUSH2 0x1F6F PUSH2 0x37BA JUMP JUMPDEST SWAP1 PUSH1 0x0 MSTORE PUSH1 0x20 PUSH1 0x0 KECCAK256 SWAP1 PUSH1 0xB MUL ADD DUP4 PUSH1 0x40 MLOAD PUSH2 0x1F8C SWAP3 SWAP2 SWAP1 PUSH2 0x39F1 JUMP JUMPDEST PUSH1 0x40 MLOAD DUP1 SWAP2 SUB SWAP1 LOG1 POP POP PUSH1 0x6 DUP1 SLOAD PUSH1 0xFF PUSH1 0xA0 SHL NOT AND SWAP1 SSTORE JUMP JUMPDEST PUSH1 0x0 SLOAD PUSH1 0x40 MLOAD PUSH4 0x70A08231 PUSH1 0xE0 SHL DUP2 MSTORE ADDRESS PUSH1 0x4 DUP3 ADD MSTORE PUSH1 0x64 SWAP2 PUSH1 0x1 PUSH1 0x1 PUSH1 0xA0 SHL SUB AND SWAP1 PUSH4 0x70A08231 SWAP1 PUSH1 0x24 ADD PUSH1 0x20 PUSH1 0x40 MLOAD DUP1 DUP4 SUB DUP2 DUP7 GAS STATICCALL ISZERO DUP1 ISZERO PUSH2 0x1FEE JUMPI RETURNDATASIZE PUSH1 0x0 DUP1 RETURNDATACOPY RETURNDATASIZE PUSH1 0x0 REVERT JUMPDEST POP POP POP POP PUSH1 0x40 MLOAD RETURNDATASIZE PUSH1 0x1F NOT PUSH1 0x1F DUP3 ADD AND DUP3 ADD DUP1 PUSH1 0x40 MSTORE POP DUP2 ADD SWAP1 PUSH2 0x2012 SWAP2 SWAP1 PUSH2 0x359D JUMP JUMPDEST GT PUSH2 0x2075 JUMPI PUSH1 0x40 MLOAD PUSH3 0x461BCD PUSH1 0xE5 SHL DUP2 MSTORE PUSH1 0x20 PUSH1 0x4 DUP3 ADD MSTORE PUSH1 0x2D PUSH1 0x24 DUP3 ADD MSTORE PUSH32 0x54686520636F6E747261637420646F6573206E6F74206861766520746F6B656E PUSH1 0x44 DUP3 ADD MSTORE PUSH13 0x39903A3790383937BB34B23297 PUSH1 0x99 SHL PUSH1 0x64 DUP3 ADD MSTORE PUSH1 0x84 ADD PUSH2 0x34F JUMP JUMPDEST PUSH1 0x0 SLOAD PUSH1 0x40 MLOAD PUSH4 0x70A08231 PUSH1 0xE0 SHL DUP2 MSTORE CALLER PUSH1 0x4 DUP3 ADD MSTORE PUSH1 0xA SWAP2 PUSH1 0x1 PUSH1 0x1 PUSH1 0xA0 SHL SUB AND SWAP1 PUSH4 0x70A08231 SWAP1 PUSH1 0x24 ADD PUSH1 0x20 PUSH1 0x40 MLOAD DUP1 DUP4 SUB DUP2 DUP7 GAS STATICCALL ISZERO DUP1 ISZERO PUSH2 0x20BE JUMPI RETURNDATASIZE PUSH1 0x0 DUP1 RETURNDATACOPY RETURNDATASIZE PUSH1 0x0 REVERT JUMPDEST POP POP POP POP PUSH1 0x40 MLOAD RETURNDATASIZE PUSH1 0x1F NOT PUSH1 0x1F DUP3 ADD AND DUP3 ADD DUP1 PUSH1 0x40 MSTORE POP DUP2 ADD SWAP1 PUSH2 0x20E2 SWAP2 SWAP1 PUSH2 0x359D JUMP JUMPDEST LT PUSH2 0x212F JUMPI PUSH1 0x40 MLOAD PUSH3 0x461BCD PUSH1 0xE5 SHL DUP2 MSTORE PUSH1 0x20 PUSH1 0x4 DUP3 ADD MSTORE PUSH1 0x1A PUSH1 0x24 DUP3 ADD MSTORE PUSH32 0x596F75207374696C6C20676F7420656E6F75676820746F6B656E000000000000 PUSH1 0x44 DUP3 ADD MSTORE PUSH1 0x64 ADD PUSH2 0x34F JUMP JUMPDEST PUSH1 0x0 DUP1 SLOAD PUSH1 0x40 MLOAD PUSH4 0xA9059CBB PUSH1 0xE0 SHL DUP2 MSTORE CALLER PUSH1 0x4 DUP3 ADD MSTORE PUSH9 0x56BC75E2D63100000 PUSH1 0x24 DUP3 ADD MSTORE PUSH1 0x1 PUSH1 0x1 PUSH1 0xA0 SHL SUB SWAP1 SWAP2 AND SWAP1 PUSH4 0xA9059CBB SWAP1 PUSH1 0x44 ADD PUSH1 0x20 PUSH1 0x40 MLOAD DUP1 DUP4 SUB DUP2 PUSH1 0x0 DUP8 GAS CALL ISZERO DUP1 ISZERO PUSH2 0x2189 JUMPI RETURNDATASIZE PUSH1 0x0 DUP1 RETURNDATACOPY RETURNDATASIZE PUSH1 0x0 REVERT JUMPDEST POP POP POP POP PUSH1 0x40 MLOAD RETURNDATASIZE PUSH1 0x1F NOT PUSH1 0x1F DUP3 ADD AND DUP3 ADD DUP1 PUSH1 0x40 MSTORE POP DUP2 ADD SWAP1 PUSH2 0x21AD SWAP2 SWAP1 PUSH2 0x363C JUMP JUMPDEST PUSH1 0x40 DUP1 MLOAD CALLER DUP2 MSTORE DUP3 ISZERO ISZERO PUSH1 0x20 DUP3 ADD MSTORE SWAP2 SWAP3 POP PUSH32 0x1D67794760BB3EA2174B2CCC7B8AA2D786EF61A72E7BE363DAB04929E3510B1C SWAP2 ADD PUSH2 0xF1C JUMP JUMPDEST PUSH1 0x0 DUP2 PUSH1 0x40 MLOAD PUSH1 0x20 ADD PUSH2 0x21FA SWAP2 SWAP1 PUSH2 0x3AD1 JUMP JUMPDEST PUSH1 0x40 MLOAD PUSH1 0x20 DUP2 DUP4 SUB SUB DUP2 MSTORE SWAP1 PUSH1 0x40 MSTORE DUP1 MLOAD SWAP1 PUSH1 0x20 ADD KECCAK256 DUP4 PUSH1 0x40 MLOAD PUSH1 0x20 ADD PUSH2 0x2221 SWAP2 SWAP1 PUSH2 0x3AD1 JUMP JUMPDEST PUSH1 0x40 MLOAD PUSH1 0x20 DUP2 DUP4 SUB SUB DUP2 MSTORE SWAP1 PUSH1 0x40 MSTORE DUP1 MLOAD SWAP1 PUSH1 0x20 ADD KECCAK256 EQ SWAP1 POP JUMPDEST SWAP3 SWAP2 POP POP JUMP JUMPDEST PUSH1 0x60 PUSH1 0x7 DUP3 DUP2 SLOAD DUP2 LT PUSH2 0x2256 JUMPI PUSH2 0x2256 PUSH2 0x37BA JUMP JUMPDEST SWAP1 PUSH1 0x0 MSTORE PUSH1 0x20 PUSH1 0x0 KECCAK256 SWAP1 PUSH1 0xB MUL ADD PUSH1 0x2 ADD DUP1 SLOAD DUP1 PUSH1 0x20 MUL PUSH1 0x20 ADD PUSH1 0x40 MLOAD SWAP1 DUP2 ADD PUSH1 0x40 MSTORE DUP1 SWAP3 SWAP2 SWAP1 DUP2 DUP2 MSTORE PUSH1 0x20 ADD PUSH1 0x0 SWAP1 JUMPDEST DUP3 DUP3 LT ISZERO PUSH2 0x2333 JUMPI DUP4 DUP3 SWAP1 PUSH1 0x0 MSTORE PUSH1 0x20 PUSH1 0x0 KECCAK256 ADD DUP1 SLOAD PUSH2 0x22A6 SWAP1 PUSH2 0x3671 JUMP JUMPDEST DUP1 PUSH1 0x1F ADD PUSH1 0x20 DUP1 SWAP2 DIV MUL PUSH1 0x20 ADD PUSH1 0x40 MLOAD SWAP1 DUP2 ADD PUSH1 0x40 MSTORE DUP1 SWAP3 SWAP2 SWAP1 DUP2 DUP2 MSTORE PUSH1 0x20 ADD DUP3 DUP1 SLOAD PUSH2 0x22D2 SWAP1 PUSH2 0x3671 JUMP JUMPDEST DUP1 ISZERO PUSH2 0x231F JUMPI DUP1 PUSH1 0x1F LT PUSH2 0x22F4 JUMPI PUSH2 0x100 DUP1 DUP4 SLOAD DIV MUL DUP4 MSTORE SWAP2 PUSH1 0x20 ADD SWAP2 PUSH2 0x231F JUMP JUMPDEST DUP3 ADD SWAP2 SWAP1 PUSH1 0x0 MSTORE PUSH1 0x20 PUSH1 0x0 KECCAK256 SWAP1 JUMPDEST DUP2 SLOAD DUP2 MSTORE SWAP1 PUSH1 0x1 ADD SWAP1 PUSH1 0x20 ADD DUP1 DUP4 GT PUSH2 0x2302 JUMPI DUP3 SWAP1 SUB PUSH1 0x1F AND DUP3 ADD SWAP2 JUMPDEST POP POP POP POP POP DUP2 MSTORE PUSH1 0x20 ADD SWAP1 PUSH1 0x1 ADD SWAP1 PUSH2 0x2287 JUMP JUMPDEST POP POP POP POP SWAP1 POP SWAP2 SWAP1 POP JUMP JUMPDEST PUSH1 0x6 SLOAD PUSH1 0x1 PUSH1 0x1 PUSH1 0xA0 SHL SUB AND CALLER EQ PUSH2 0x2388 JUMPI PUSH1 0x40 MLOAD PUSH3 0x461BCD PUSH1 0xE5 SHL DUP2 MSTORE PUSH1 0x20 PUSH1 0x4 DUP3 ADD MSTORE PUSH1 0xD PUSH1 0x24 DUP3 ADD MSTORE PUSH13 0x2737BA103A34329037BBB732B9 PUSH1 0x99 SHL PUSH1 0x44 DUP3 ADD MSTORE PUSH1 0x64 ADD PUSH2 0x34F JUMP JUMPDEST PUSH1 0x0 SLOAD PUSH1 0x6 SLOAD PUSH1 0x40 MLOAD PUSH4 0x70A08231 PUSH1 0xE0 SHL DUP2 MSTORE ADDRESS PUSH1 0x4 DUP3 ADD MSTORE PUSH1 0x1 PUSH1 0x1 PUSH1 0xA0 SHL SUB SWAP3 DUP4 AND SWAP3 PUSH4 0xA9059CBB SWAP3 AND SWAP1 DUP4 SWAP1 PUSH4 0x70A08231 SWAP1 PUSH1 0x24 ADD PUSH1 0x20 PUSH1 0x40 MLOAD DUP1 DUP4 SUB DUP2 DUP7 GAS STATICCALL ISZERO DUP1 ISZERO PUSH2 0x23DD JUMPI RETURNDATASIZE PUSH1 0x0 DUP1 RETURNDATACOPY RETURNDATASIZE PUSH1 0x0 REVERT JUMPDEST POP POP POP POP PUSH1 0x40 MLOAD RETURNDATASIZE PUSH1 0x1F NOT PUSH1 0x1F DUP3 ADD AND DUP3 ADD DUP1 PUSH1 0x40 MSTORE POP DUP2 ADD SWAP1 PUSH2 0x15DC SWAP2 SWAP1 PUSH2 0x359D JUMP JUMPDEST PUSH1 0x0 PUSH1 0x7 DUP3 DUP2 SLOAD DUP2 LT PUSH2 0x2416 JUMPI PUSH2 0x2416 PUSH2 0x37BA JUMP JUMPDEST PUSH1 0x0 SWAP2 DUP3 MSTORE PUSH1 0x20 SWAP1 SWAP2 KECCAK256 PUSH1 0xB SWAP1 SWAP2 MUL ADD PUSH1 0x4 ADD SLOAD PUSH1 0x1 PUSH1 0x1 PUSH1 0xA0 SHL SUB AND CALLER EQ DUP1 PUSH2 0x246E JUMPI POP PUSH1 0x7 DUP3 DUP2 SLOAD DUP2 LT PUSH2 0x244E JUMPI PUSH2 0x244E PUSH2 0x37BA JUMP JUMPDEST PUSH1 0x0 SWAP2 DUP3 MSTORE PUSH1 0x20 SWAP1 SWAP2 KECCAK256 PUSH1 0xB SWAP1 SWAP2 MUL ADD PUSH1 0x5 ADD SLOAD PUSH1 0x1 PUSH1 0x1 PUSH1 0xA0 SHL SUB AND CALLER EQ JUMPDEST PUSH2 0x2479 JUMPI PUSH1 0x0 PUSH2 0x223B JUMP JUMPDEST PUSH1 0x1 SWAP3 SWAP2 POP POP JUMP JUMPDEST PUSH1 0x0 DUP1 JUMPDEST PUSH1 0x8 SLOAD DUP2 LT ISZERO PUSH2 0x29B4 JUMPI PUSH1 0x0 PUSH1 0x8 DUP3 DUP2 SLOAD DUP2 LT PUSH2 0x24A4 JUMPI PUSH2 0x24A4 PUSH2 0x37BA JUMP JUMPDEST SWAP1 PUSH1 0x0 MSTORE PUSH1 0x20 PUSH1 0x0 KECCAK256 ADD DUP1 SLOAD DUP1 PUSH1 0x20 MUL PUSH1 0x20 ADD PUSH1 0x40 MLOAD SWAP1 DUP2 ADD PUSH1 0x40 MSTORE DUP1 SWAP3 SWAP2 SWAP1 DUP2 DUP2 MSTORE PUSH1 0x20 ADD DUP3 DUP1 SLOAD DUP1 ISZERO PUSH2 0x24F8 JUMPI PUSH1 0x20 MUL DUP3 ADD SWAP2 SWAP1 PUSH1 0x0 MSTORE PUSH1 0x20 PUSH1 0x0 KECCAK256 SWAP1 JUMPDEST DUP2 SLOAD DUP2 MSTORE PUSH1 0x20 ADD SWAP1 PUSH1 0x1 ADD SWAP1 DUP1 DUP4 GT PUSH2 0x24E4 JUMPI JUMPDEST POP POP POP POP POP SWAP1 POP PUSH1 0x0 PUSH1 0x7 DUP6 DUP2 SLOAD DUP2 LT PUSH2 0x2514 JUMPI PUSH2 0x2514 PUSH2 0x37BA JUMP JUMPDEST SWAP1 PUSH1 0x0 MSTORE PUSH1 0x20 PUSH1 0x0 KECCAK256 SWAP1 PUSH1 0xB MUL ADD PUSH1 0x2 ADD DUP3 PUSH1 0x0 DUP2 MLOAD DUP2 LT PUSH2 0x2538 JUMPI PUSH2 0x2538 PUSH2 0x37BA JUMP JUMPDEST PUSH1 0x20 MUL PUSH1 0x20 ADD ADD MLOAD DUP2 SLOAD DUP2 LT PUSH2 0x2550 JUMPI PUSH2 0x2550 PUSH2 0x37BA JUMP JUMPDEST SWAP1 PUSH1 0x0 MSTORE PUSH1 0x20 PUSH1 0x0 KECCAK256 ADD DUP1 SLOAD PUSH2 0x2565 SWAP1 PUSH2 0x3671 JUMP JUMPDEST DUP1 PUSH1 0x1F ADD PUSH1 0x20 DUP1 SWAP2 DIV MUL PUSH1 0x20 ADD PUSH1 0x40 MLOAD SWAP1 DUP2 ADD PUSH1 0x40 MSTORE DUP1 SWAP3 SWAP2 SWAP1 DUP2 DUP2 MSTORE PUSH1 0x20 ADD DUP3 DUP1 SLOAD PUSH2 0x2591 SWAP1 PUSH2 0x3671 JUMP JUMPDEST DUP1 ISZERO PUSH2 0x25DE JUMPI DUP1 PUSH1 0x1F LT PUSH2 0x25B3 JUMPI PUSH2 0x100 DUP1 DUP4 SLOAD DIV MUL DUP4 MSTORE SWAP2 PUSH1 0x20 ADD SWAP2 PUSH2 0x25DE JUMP JUMPDEST DUP3 ADD SWAP2 SWAP1 PUSH1 0x0 MSTORE PUSH1 0x20 PUSH1 0x0 KECCAK256 SWAP1 JUMPDEST DUP2 SLOAD DUP2 MSTORE SWAP1 PUSH1 0x1 ADD SWAP1 PUSH1 0x20 ADD DUP1 DUP4 GT PUSH2 0x25C1 JUMPI DUP3 SWAP1 SUB PUSH1 0x1F AND DUP3 ADD SWAP2 JUMPDEST POP POP POP POP POP SWAP1 POP PUSH1 0x0 PUSH1 0x7 DUP7 DUP2 SLOAD DUP2 LT PUSH2 0x25FA JUMPI PUSH2 0x25FA PUSH2 0x37BA JUMP JUMPDEST SWAP1 PUSH1 0x0 MSTORE PUSH1 0x20 PUSH1 0x0 KECCAK256 SWAP1 PUSH1 0xB MUL ADD PUSH1 0x2 ADD DUP4 PUSH1 0x1 DUP2 MLOAD DUP2 LT PUSH2 0x261E JUMPI PUSH2 0x261E PUSH2 0x37BA JUMP JUMPDEST PUSH1 0x20 MUL PUSH1 0x20 ADD ADD MLOAD DUP2 SLOAD DUP2 LT PUSH2 0x2636 JUMPI PUSH2 0x2636 PUSH2 0x37BA JUMP JUMPDEST SWAP1 PUSH1 0x0 MSTORE PUSH1 0x20 PUSH1 0x0 KECCAK256 ADD DUP1 SLOAD PUSH2 0x264B SWAP1 PUSH2 0x3671 JUMP JUMPDEST DUP1 PUSH1 0x1F ADD PUSH1 0x20 DUP1 SWAP2 DIV MUL PUSH1 0x20 ADD PUSH1 0x40 MLOAD SWAP1 DUP2 ADD PUSH1 0x40 MSTORE DUP1 SWAP3 SWAP2 SWAP1 DUP2 DUP2 MSTORE PUSH1 0x20 ADD DUP3 DUP1 SLOAD PUSH2 0x2677 SWAP1 PUSH2 0x3671 JUMP JUMPDEST DUP1 ISZERO PUSH2 0x26C4 JUMPI DUP1 PUSH1 0x1F LT PUSH2 0x2699 JUMPI PUSH2 0x100 DUP1 DUP4 SLOAD DIV MUL DUP4 MSTORE SWAP2 PUSH1 0x20 ADD SWAP2 PUSH2 0x26C4 JUMP JUMPDEST DUP3 ADD SWAP2 SWAP1 PUSH1 0x0 MSTORE PUSH1 0x20 PUSH1 0x0 KECCAK256 SWAP1 JUMPDEST DUP2 SLOAD DUP2 MSTORE SWAP1 PUSH1 0x1 ADD SWAP1 PUSH1 0x20 ADD DUP1 DUP4 GT PUSH2 0x26A7 JUMPI DUP3 SWAP1 SUB PUSH1 0x1F AND DUP3 ADD SWAP2 JUMPDEST POP POP POP POP POP SWAP1 POP PUSH1 0x0 PUSH1 0x7 DUP8 DUP2 SLOAD DUP2 LT PUSH2 0x26E0 JUMPI PUSH2 0x26E0 PUSH2 0x37BA JUMP JUMPDEST SWAP1 PUSH1 0x0 MSTORE PUSH1 0x20 PUSH1 0x0 KECCAK256 SWAP1 PUSH1 0xB MUL ADD PUSH1 0x2 ADD DUP5 PUSH1 0x2 DUP2 MLOAD DUP2 LT PUSH2 0x2704 JUMPI PUSH2 0x2704 PUSH2 0x37BA JUMP JUMPDEST PUSH1 0x20 MUL PUSH1 0x20 ADD ADD MLOAD DUP2 SLOAD DUP2 LT PUSH2 0x271C JUMPI PUSH2 0x271C PUSH2 0x37BA JUMP JUMPDEST SWAP1 PUSH1 0x0 MSTORE PUSH1 0x20 PUSH1 0x0 KECCAK256 ADD DUP1 SLOAD PUSH2 0x2731 SWAP1 PUSH2 0x3671 JUMP JUMPDEST DUP1 PUSH1 0x1F ADD PUSH1 0x20 DUP1 SWAP2 DIV MUL PUSH1 0x20 ADD PUSH1 0x40 MLOAD SWAP1 DUP2 ADD PUSH1 0x40 MSTORE DUP1 SWAP3 SWAP2 SWAP1 DUP2 DUP2 MSTORE PUSH1 0x20 ADD DUP3 DUP1 SLOAD PUSH2 0x275D SWAP1 PUSH2 0x3671 JUMP JUMPDEST DUP1 ISZERO PUSH2 0x27AA JUMPI DUP1 PUSH1 0x1F LT PUSH2 0x277F JUMPI PUSH2 0x100 DUP1 DUP4 SLOAD DIV MUL DUP4 MSTORE SWAP2 PUSH1 0x20 ADD SWAP2 PUSH2 0x27AA JUMP JUMPDEST DUP3 ADD SWAP2 SWAP1 PUSH1 0x0 MSTORE PUSH1 0x20 PUSH1 0x0 KECCAK256 SWAP1 JUMPDEST DUP2 SLOAD DUP2 MSTORE SWAP1 PUSH1 0x1 ADD SWAP1 PUSH1 0x20 ADD DUP1 DUP4 GT PUSH2 0x278D JUMPI DUP3 SWAP1 SUB PUSH1 0x1F AND DUP3 ADD SWAP2 JUMPDEST POP POP POP POP POP SWAP1 POP PUSH2 0x27CA DUP4 PUSH1 0x40 MLOAD DUP1 PUSH1 0x20 ADD PUSH1 0x40 MSTORE DUP1 PUSH1 0x0 DUP2 MSTORE POP PUSH2 0x21E7 JUMP JUMPDEST DUP1 PUSH2 0x27E9 JUMPI POP PUSH2 0x27E9 DUP3 PUSH1 0x40 MLOAD DUP1 PUSH1 0x20 ADD PUSH1 0x40 MSTORE DUP1 PUSH1 0x0 DUP2 MSTORE POP PUSH2 0x21E7 JUMP JUMPDEST DUP1 PUSH2 0x2808 JUMPI POP PUSH2 0x2808 DUP2 PUSH1 0x40 MLOAD DUP1 PUSH1 0x20 ADD PUSH1 0x40 MSTORE DUP1 PUSH1 0x0 DUP2 MSTORE POP PUSH2 0x21E7 JUMP JUMPDEST ISZERO PUSH2 0x2816 JUMPI POP POP POP POP PUSH2 0x29A2 JUMP JUMPDEST PUSH2 0x2820 DUP4 DUP4 PUSH2 0x21E7 JUMP JUMPDEST DUP1 ISZERO PUSH2 0x2831 JUMPI POP PUSH2 0x2831 DUP3 DUP3 PUSH2 0x21E7 JUMP JUMPDEST ISZERO PUSH2 0x299D JUMPI DUP4 PUSH1 0x7 DUP9 DUP2 SLOAD DUP2 LT PUSH2 0x284A JUMPI PUSH2 0x284A PUSH2 0x37BA JUMP JUMPDEST SWAP1 PUSH1 0x0 MSTORE PUSH1 0x20 PUSH1 0x0 KECCAK256 SWAP1 PUSH1 0xB MUL ADD PUSH1 0x3 ADD SWAP1 DUP1 MLOAD SWAP1 PUSH1 0x20 ADD SWAP1 PUSH2 0x286E SWAP3 SWAP2 SWAP1 PUSH2 0x302B JUMP JUMPDEST POP PUSH2 0x2885 PUSH1 0x7 DUP9 DUP2 SLOAD DUP2 LT PUSH2 0x10CC JUMPI PUSH2 0x10CC PUSH2 0x37BA JUMP JUMPDEST ISZERO PUSH2 0x290F JUMPI PUSH1 0x7 DUP8 DUP2 SLOAD DUP2 LT PUSH2 0x289D JUMPI PUSH2 0x289D PUSH2 0x37BA JUMP JUMPDEST SWAP1 PUSH1 0x0 MSTORE PUSH1 0x20 PUSH1 0x0 KECCAK256 SWAP1 PUSH1 0xB MUL ADD PUSH1 0x4 ADD PUSH1 0x0 SWAP1 SLOAD SWAP1 PUSH2 0x100 EXP SWAP1 DIV PUSH1 0x1 PUSH1 0x1 PUSH1 0xA0 SHL SUB AND PUSH1 0x7 DUP9 DUP2 SLOAD DUP2 LT PUSH2 0x28D5 JUMPI PUSH2 0x28D5 PUSH2 0x37BA JUMP JUMPDEST SWAP1 PUSH1 0x0 MSTORE PUSH1 0x20 PUSH1 0x0 KECCAK256 SWAP1 PUSH1 0xB MUL ADD PUSH1 0x7 ADD PUSH1 0x0 PUSH2 0x100 EXP DUP2 SLOAD DUP2 PUSH1 0x1 PUSH1 0x1 PUSH1 0xA0 SHL SUB MUL NOT AND SWAP1 DUP4 PUSH1 0x1 PUSH1 0x1 PUSH1 0xA0 SHL SUB AND MUL OR SWAP1 SSTORE POP PUSH2 0x2990 JUMP JUMPDEST PUSH1 0x7 DUP8 DUP2 SLOAD DUP2 LT PUSH2 0x2922 JUMPI PUSH2 0x2922 PUSH2 0x37BA JUMP JUMPDEST SWAP1 PUSH1 0x0 MSTORE PUSH1 0x20 PUSH1 0x0 KECCAK256 SWAP1 PUSH1 0xB MUL ADD PUSH1 0x5 ADD PUSH1 0x0 SWAP1 SLOAD SWAP1 PUSH2 0x100 EXP SWAP1 DIV PUSH1 0x1 PUSH1 0x1 PUSH1 0xA0 SHL SUB AND PUSH1 0x7 DUP9 DUP2 SLOAD DUP2 LT PUSH2 0x295A JUMPI PUSH2 0x295A PUSH2 0x37BA JUMP JUMPDEST SWAP1 PUSH1 0x0 MSTORE PUSH1 0x20 PUSH1 0x0 KECCAK256 SWAP1 PUSH1 0xB MUL ADD PUSH1 0x7 ADD PUSH1 0x0 PUSH2 0x100 EXP DUP2 SLOAD DUP2 PUSH1 0x1 PUSH1 0x1 PUSH1 0xA0 SHL SUB MUL NOT AND SWAP1 DUP4 PUSH1 0x1 PUSH1 0x1 PUSH1 0xA0 SHL SUB AND MUL OR SWAP1 SSTORE POP JUMPDEST PUSH1 0x1 SWAP6 POP POP POP POP POP PUSH2 0x29B4 JUMP JUMPDEST POP POP POP POP JUMPDEST DUP1 PUSH2 0x29AC DUP2 PUSH2 0x37D0 JUMP JUMPDEST SWAP2 POP POP PUSH2 0x2485 JUMP JUMPDEST POP DUP1 ISZERO PUSH2 0x2C99 JUMPI PUSH2 0x29D1 PUSH1 0x7 DUP4 DUP2 SLOAD DUP2 LT PUSH2 0x10CC JUMPI PUSH2 0x10CC PUSH2 0x37BA JUMP JUMPDEST ISZERO PUSH2 0x2ACB JUMPI PUSH1 0x0 SLOAD PUSH1 0x7 DUP1 SLOAD PUSH1 0x1 PUSH1 0x1 PUSH1 0xA0 SHL SUB SWAP1 SWAP3 AND SWAP2 PUSH4 0xA9059CBB SWAP2 SWAP1 DUP6 SWAP1 DUP2 LT PUSH2 0x2A00 JUMPI PUSH2 0x2A00 PUSH2 0x37BA JUMP JUMPDEST SWAP1 PUSH1 0x0 MSTORE PUSH1 0x20 PUSH1 0x0 KECCAK256 SWAP1 PUSH1 0xB MUL ADD PUSH1 0x4 ADD PUSH1 0x0 SWAP1 SLOAD SWAP1 PUSH2 0x100 EXP SWAP1 DIV PUSH1 0x1 PUSH1 0x1 PUSH1 0xA0 SHL SUB AND PUSH1 0x7 DUP6 DUP2 SLOAD DUP2 LT PUSH2 0x2A38 JUMPI PUSH2 0x2A38 PUSH2 0x37BA JUMP JUMPDEST SWAP1 PUSH1 0x0 MSTORE PUSH1 0x20 PUSH1 0x0 KECCAK256 SWAP1 PUSH1 0xB MUL ADD PUSH1 0xA ADD SLOAD PUSH1 0x2 PUSH2 0x2A56 SWAP2 SWAP1 PUSH2 0x35CC JUMP JUMPDEST PUSH1 0x40 MLOAD PUSH1 0x1 PUSH1 0x1 PUSH1 0xE0 SHL SUB NOT PUSH1 0xE0 DUP6 SWAP1 SHL AND DUP2 MSTORE PUSH1 0x1 PUSH1 0x1 PUSH1 0xA0 SHL SUB SWAP1 SWAP3 AND PUSH1 0x4 DUP4 ADD MSTORE PUSH1 0x24 DUP3 ADD MSTORE PUSH1 0x44 ADD PUSH1 0x20 PUSH1 0x40 MLOAD DUP1 DUP4 SUB DUP2 PUSH1 0x0 DUP8 GAS CALL ISZERO DUP1 ISZERO PUSH2 0x2AA1 JUMPI RETURNDATASIZE PUSH1 0x0 DUP1 RETURNDATACOPY RETURNDATASIZE PUSH1 0x0 REVERT JUMPDEST POP POP POP POP PUSH1 0x40 MLOAD RETURNDATASIZE PUSH1 0x1F NOT PUSH1 0x1F DUP3 ADD AND DUP3 ADD DUP1 PUSH1 0x40 MSTORE POP DUP2 ADD SWAP1 PUSH2 0x2AC5 SWAP2 SWAP1 PUSH2 0x363C JUMP JUMPDEST POP PUSH2 0x2BBC JUMP JUMPDEST PUSH1 0x0 SLOAD PUSH1 0x7 DUP1 SLOAD PUSH1 0x1 PUSH1 0x1 PUSH1 0xA0 SHL SUB SWAP1 SWAP3 AND SWAP2 PUSH4 0xA9059CBB SWAP2 SWAP1 DUP6 SWAP1 DUP2 LT PUSH2 0x2AF5 JUMPI PUSH2 0x2AF5 PUSH2 0x37BA JUMP JUMPDEST SWAP1 PUSH1 0x0 MSTORE PUSH1 0x20 PUSH1 0x0 KECCAK256 SWAP1 PUSH1 0xB MUL ADD PUSH1 0x5 ADD PUSH1 0x0 SWAP1 SLOAD SWAP1 PUSH2 0x100 EXP SWAP1 DIV PUSH1 0x1 PUSH1 0x1 PUSH1 0xA0 SHL SUB AND PUSH1 0x7 DUP6 DUP2 SLOAD DUP2 LT PUSH2 0x2B2D JUMPI PUSH2 0x2B2D PUSH2 0x37BA JUMP JUMPDEST SWAP1 PUSH1 0x0 MSTORE PUSH1 0x20 PUSH1 0x0 KECCAK256 SWAP1 PUSH1 0xB MUL ADD PUSH1 0xA ADD SLOAD PUSH1 0x2 PUSH2 0x2B4B SWAP2 SWAP1 PUSH2 0x35CC JUMP JUMPDEST PUSH1 0x40 MLOAD PUSH1 0x1 PUSH1 0x1 PUSH1 0xE0 SHL SUB NOT PUSH1 0xE0 DUP6 SWAP1 SHL AND DUP2 MSTORE PUSH1 0x1 PUSH1 0x1 PUSH1 0xA0 SHL SUB SWAP1 SWAP3 AND PUSH1 0x4 DUP4 ADD MSTORE PUSH1 0x24 DUP3 ADD MSTORE PUSH1 0x44 ADD PUSH1 0x20 PUSH1 0x40 MLOAD DUP1 DUP4 SUB DUP2 PUSH1 0x0 DUP8 GAS CALL ISZERO DUP1 ISZERO PUSH2 0x2B96 JUMPI RETURNDATASIZE PUSH1 0x0 DUP1 RETURNDATACOPY RETURNDATASIZE PUSH1 0x0 REVERT JUMPDEST POP POP POP POP PUSH1 0x40 MLOAD RETURNDATASIZE PUSH1 0x1F NOT PUSH1 0x1F DUP3 ADD AND DUP3 ADD DUP1 PUSH1 0x40 MSTORE POP DUP2 ADD SWAP1 PUSH2 0x2BBA SWAP2 SWAP1 PUSH2 0x363C JUMP JUMPDEST POP JUMPDEST PUSH1 0x7 DUP3 DUP2 SLOAD DUP2 LT PUSH2 0x2BCF JUMPI PUSH2 0x2BCF PUSH2 0x37BA JUMP JUMPDEST SWAP1 PUSH1 0x0 MSTORE PUSH1 0x20 PUSH1 0x0 KECCAK256 SWAP1 PUSH1 0xB MUL ADD PUSH1 0xA ADD SLOAD PUSH1 0x2 PUSH2 0x2BED SWAP2 SWAP1 PUSH2 0x35CC JUMP JUMPDEST PUSH1 0x5 PUSH1 0x0 DUP3 DUP3 SLOAD PUSH2 0x2BFE SWAP2 SWAP1 PUSH2 0x3605 JUMP JUMPDEST SWAP3 POP POP DUP2 SWAP1 SSTORE POP PUSH32 0x938A1C44580C51D01225D61FB97878104148B1CDC734EB45BC5B5B50533A492D PUSH1 0x7 DUP4 DUP2 SLOAD DUP2 LT PUSH2 0x2C39 JUMPI PUSH2 0x2C39 PUSH2 0x37BA JUMP JUMPDEST SWAP1 PUSH1 0x0 MSTORE PUSH1 0x20 PUSH1 0x0 KECCAK256 SWAP1 PUSH1 0xB MUL ADD PUSH1 0x1 ADD DUP4 PUSH1 0x40 MLOAD PUSH2 0x2C59 SWAP3 SWAP2 SWAP1 PUSH2 0x3AED JUMP JUMPDEST PUSH1 0x40 MLOAD DUP1 SWAP2 SUB SWAP1 LOG1 PUSH1 0x0 PUSH1 0x7 DUP4 DUP2 SLOAD DUP2 LT PUSH2 0x2C76 JUMPI PUSH2 0x2C76 PUSH2 0x37BA JUMP JUMPDEST PUSH1 0x0 SWAP2 DUP3 MSTORE PUSH1 0x20 SWAP1 SWAP2 KECCAK256 PUSH1 0xB SWAP1 SWAP2 MUL ADD DUP1 SLOAD PUSH1 0xFF NOT AND SWAP2 ISZERO ISZERO SWAP2 SWAP1 SWAP2 OR SWAP1 SSTORE POP POP JUMP JUMPDEST PUSH2 0x2CA2 DUP3 PUSH2 0x2CFE JUMP JUMPDEST ISZERO PUSH2 0x2CF5 JUMPI PUSH1 0x40 DUP1 MLOAD DUP2 DUP2 MSTORE PUSH1 0x4 SWAP2 DUP2 ADD SWAP2 SWAP1 SWAP2 MSTORE PUSH4 0x44726177 PUSH1 0xE0 SHL PUSH1 0x60 DUP3 ADD MSTORE PUSH1 0x20 DUP2 ADD DUP4 SWAP1 MSTORE PUSH32 0x938A1C44580C51D01225D61FB97878104148B1CDC734EB45BC5B5B50533A492D SWAP1 PUSH1 0x80 ADD PUSH2 0x2C59 JUMP JUMPDEST PUSH2 0x134E DUP3 PUSH2 0x2D92 JUMP JUMPDEST PUSH1 0x0 DUP1 JUMPDEST PUSH1 0x7 DUP4 DUP2 SLOAD DUP2 LT PUSH2 0x2D15 JUMPI PUSH2 0x2D15 PUSH2 0x37BA JUMP JUMPDEST SWAP1 PUSH1 0x0 MSTORE PUSH1 0x20 PUSH1 0x0 KECCAK256 SWAP1 PUSH1 0xB MUL ADD PUSH1 0x2 ADD DUP1 SLOAD SWAP1 POP DUP2 LT ISZERO PUSH2 0x2D89 JUMPI PUSH2 0x2D69 PUSH1 0x7 DUP5 DUP2 SLOAD DUP2 LT PUSH2 0x2D47 JUMPI PUSH2 0x2D47 PUSH2 0x37BA JUMP JUMPDEST SWAP1 PUSH1 0x0 MSTORE PUSH1 0x20 PUSH1 0x0 KECCAK256 SWAP1 PUSH1 0xB MUL ADD PUSH1 0x2 ADD DUP3 DUP2 SLOAD DUP2 LT PUSH2 0xFD2 JUMPI PUSH2 0xFD2 PUSH2 0x37BA JUMP JUMPDEST ISZERO PUSH2 0x2D77 JUMPI POP PUSH1 0x0 SWAP3 SWAP2 POP POP JUMP JUMPDEST DUP1 PUSH2 0x2D81 DUP2 PUSH2 0x37D0 JUMP JUMPDEST SWAP2 POP POP PUSH2 0x2D02 JUMP JUMPDEST POP PUSH1 0x1 SWAP3 SWAP2 POP POP JUMP JUMPDEST PUSH2 0x2DA8 PUSH1 0x7 DUP3 DUP2 SLOAD DUP2 LT PUSH2 0x10CC JUMPI PUSH2 0x10CC PUSH2 0x37BA JUMP JUMPDEST ISZERO PUSH2 0x2E1B JUMPI PUSH32 0xEEFC3FD775B975165C9D067E02FCD5BF5889D58041AE6DDAF94F2CC853007272 PUSH1 0x7 DUP3 DUP2 SLOAD DUP2 LT PUSH2 0x2DE1 JUMPI PUSH2 0x2DE1 PUSH2 0x37BA JUMP JUMPDEST PUSH1 0x0 SWAP2 DUP3 MSTORE PUSH1 0x20 SWAP2 DUP3 SWAP1 KECCAK256 PUSH1 0xB SWAP1 SWAP2 MUL ADD PUSH1 0x5 ADD SLOAD PUSH1 0x40 DUP1 MLOAD PUSH1 0x1 PUSH1 0x1 PUSH1 0xA0 SHL SUB SWAP1 SWAP3 AND DUP3 MSTORE SWAP2 DUP2 ADD DUP5 SWAP1 MSTORE ADD PUSH1 0x40 MLOAD DUP1 SWAP2 SUB SWAP1 LOG1 PUSH2 0x2E85 JUMP JUMPDEST PUSH32 0xEEFC3FD775B975165C9D067E02FCD5BF5889D58041AE6DDAF94F2CC853007272 PUSH1 0x7 DUP3 DUP2 SLOAD DUP2 LT PUSH2 0x2E4F JUMPI PUSH2 0x2E4F PUSH2 0x37BA JUMP JUMPDEST PUSH1 0x0 SWAP2 DUP3 MSTORE PUSH1 0x20 SWAP2 DUP3 SWAP1 KECCAK256 PUSH1 0xB SWAP1 SWAP2 MUL ADD PUSH1 0x4 ADD SLOAD PUSH1 0x40 DUP1 MLOAD PUSH1 0x1 PUSH1 0x1 PUSH1 0xA0 SHL SUB SWAP1 SWAP3 AND DUP3 MSTORE SWAP2 DUP2 ADD DUP5 SWAP1 MSTORE ADD PUSH1 0x40 MLOAD DUP1 SWAP2 SUB SWAP1 LOG1 JUMPDEST PUSH2 0x2E9B PUSH1 0x7 DUP3 DUP2 SLOAD DUP2 LT PUSH2 0x10CC JUMPI PUSH2 0x10CC PUSH2 0x37BA JUMP JUMPDEST PUSH2 0x2EBE JUMPI PUSH1 0x40 MLOAD DUP1 PUSH1 0x40 ADD PUSH1 0x40 MSTORE DUP1 PUSH1 0x1 DUP2 MSTORE PUSH1 0x20 ADD PUSH1 0xB PUSH1 0xFB SHL DUP2 MSTORE POP PUSH2 0x2ED9 JUMP JUMPDEST PUSH1 0x40 MLOAD DUP1 PUSH1 0x40 ADD PUSH1 0x40 MSTORE DUP1 PUSH1 0x1 DUP2 MSTORE PUSH1 0x20 ADD PUSH1 0x4F PUSH1 0xF8 SHL DUP2 MSTORE POP JUMPDEST PUSH1 0x7 DUP3 DUP2 SLOAD DUP2 LT PUSH2 0x2EEC JUMPI PUSH2 0x2EEC PUSH2 0x37BA JUMP JUMPDEST SWAP1 PUSH1 0x0 MSTORE PUSH1 0x20 PUSH1 0x0 KECCAK256 SWAP1 PUSH1 0xB MUL ADD PUSH1 0x1 ADD SWAP1 DUP2 PUSH2 0x2F09 SWAP2 SWAP1 PUSH2 0x36FA JUMP JUMPDEST POP PUSH32 0xA6D1CB5F730B987124C37C3876130FDDBA49456449948EC4257360F5AB2851C0 PUSH1 0x7 DUP3 DUP2 SLOAD DUP2 LT PUSH2 0x2F3E JUMPI PUSH2 0x2F3E PUSH2 0x37BA JUMP JUMPDEST SWAP1 PUSH1 0x0 MSTORE PUSH1 0x20 PUSH1 0x0 KECCAK256 SWAP1 PUSH1 0xB MUL ADD PUSH1 0x1 ADD DUP3 PUSH1 0x40 MLOAD PUSH2 0xF1C SWAP3 SWAP2 SWAP1 PUSH2 0x3AED JUMP JUMPDEST PUSH1 0x40 MLOAD DUP1 PUSH2 0x160 ADD PUSH1 0x40 MSTORE DUP1 PUSH1 0x0 ISZERO ISZERO DUP2 MSTORE PUSH1 0x20 ADD PUSH1 0x60 DUP2 MSTORE PUSH1 0x20 ADD PUSH1 0x60 DUP2 MSTORE PUSH1 0x20 ADD PUSH1 0x60 DUP2 MSTORE PUSH1 0x20 ADD PUSH1 0x0 PUSH1 0x1 PUSH1 0x1 PUSH1 0xA0 SHL SUB AND DUP2 MSTORE PUSH1 0x20 ADD PUSH1 0x0 PUSH1 0x1 PUSH1 0x1 PUSH1 0xA0 SHL SUB AND DUP2 MSTORE PUSH1 0x20 ADD PUSH1 0x0 DUP2 MSTORE PUSH1 0x20 ADD PUSH1 0x0 PUSH1 0x1 PUSH1 0x1 PUSH1 0xA0 SHL SUB AND DUP2 MSTORE PUSH1 0x20 ADD PUSH1 0x0 DUP2 MSTORE PUSH1 0x20 ADD PUSH1 0x0 DUP2 MSTORE PUSH1 0x20 ADD PUSH1 0x0 DUP2 MSTORE POP SWAP1 JUMP JUMPDEST DUP3 DUP1 SLOAD DUP3 DUP3 SSTORE SWAP1 PUSH1 0x0 MSTORE PUSH1 0x20 PUSH1 0x0 KECCAK256 SWAP1 DUP2 ADD SWAP3 DUP3 ISZERO PUSH2 0x301B JUMPI SWAP2 PUSH1 0x20 MUL DUP3 ADD JUMPDEST DUP3 DUP2 GT ISZERO PUSH2 0x301B JUMPI DUP3 MLOAD DUP3 SWAP1 PUSH2 0x300B SWAP1 DUP3 PUSH2 0x36FA JUMP JUMPDEST POP SWAP2 PUSH1 0x20 ADD SWAP2 SWAP1 PUSH1 0x1 ADD SWAP1 PUSH2 0x2FF5 JUMP JUMPDEST POP PUSH2 0x3027 SWAP3 SWAP2 POP PUSH2 0x30B8 JUMP JUMPDEST POP SWAP1 JUMP JUMPDEST DUP3 DUP1 SLOAD DUP3 DUP3 SSTORE SWAP1 PUSH1 0x0 MSTORE PUSH1 0x20 PUSH1 0x0 KECCAK256 SWAP1 DUP2 ADD SWAP3 DUP3 ISZERO PUSH2 0x3066 JUMPI SWAP2 PUSH1 0x20 MUL DUP3 ADD JUMPDEST DUP3 DUP2 GT ISZERO PUSH2 0x3066 JUMPI DUP3 MLOAD DUP3 SSTORE SWAP2 PUSH1 0x20 ADD SWAP2 SWAP1 PUSH1 0x1 ADD SWAP1 PUSH2 0x304B JUMP JUMPDEST POP PUSH2 0x3027 SWAP3 SWAP2 POP PUSH2 0x30D5 JUMP JUMPDEST DUP3 DUP1 SLOAD DUP3 DUP3 SSTORE SWAP1 PUSH1 0x0 MSTORE PUSH1 0x20 PUSH1 0x0 KECCAK256 SWAP1 DUP2 ADD SWAP3 DUP3 ISZERO PUSH2 0x301B JUMPI SWAP2 PUSH1 0x20 MUL DUP3 ADD JUMPDEST DUP3 DUP2 GT ISZERO PUSH2 0x301B JUMPI DUP3 MLOAD DUP3 SWAP1 PUSH2 0x30A8 SWAP1 DUP3 PUSH2 0x36FA JUMP JUMPDEST POP SWAP2 PUSH1 0x20 ADD SWAP2 SWAP1 PUSH1 0x1 ADD SWAP1 PUSH2 0x3092 JUMP JUMPDEST DUP1 DUP3 GT ISZERO PUSH2 0x3027 JUMPI PUSH1 0x0 PUSH2 0x30CC DUP3 DUP3 PUSH2 0x30EA JUMP JUMPDEST POP PUSH1 0x1 ADD PUSH2 0x30B8 JUMP JUMPDEST JUMPDEST DUP1 DUP3 GT ISZERO PUSH2 0x3027 JUMPI PUSH1 0x0 DUP2 SSTORE PUSH1 0x1 ADD PUSH2 0x30D6 JUMP JUMPDEST POP DUP1 SLOAD PUSH2 0x30F6 SWAP1 PUSH2 0x3671 JUMP JUMPDEST PUSH1 0x0 DUP3 SSTORE DUP1 PUSH1 0x1F LT PUSH2 0x3106 JUMPI POP POP JUMP JUMPDEST PUSH1 0x1F ADD PUSH1 0x20 SWAP1 DIV SWAP1 PUSH1 0x0 MSTORE PUSH1 0x20 PUSH1 0x0 KECCAK256 SWAP1 DUP2 ADD SWAP1 PUSH2 0xB13 SWAP2 SWAP1 PUSH2 0x30D5 JUMP JUMPDEST PUSH1 0x0 PUSH1 0x20 DUP3 DUP5 SUB SLT ISZERO PUSH2 0x3136 JUMPI PUSH1 0x0 DUP1 REVERT JUMPDEST POP CALLDATALOAD SWAP2 SWAP1 POP JUMP JUMPDEST PUSH1 0x20 DUP1 DUP3 MSTORE DUP3 MLOAD DUP3 DUP3 ADD DUP2 SWAP1 MSTORE PUSH1 0x0 SWAP2 SWAP1 DUP5 DUP3 ADD SWAP1 PUSH1 0x40 DUP6 ADD SWAP1 DUP5 JUMPDEST DUP2 DUP2 LT ISZERO PUSH2 0x3175 JUMPI DUP4 MLOAD DUP4 MSTORE SWAP3 DUP5 ADD SWAP3 SWAP2 DUP5 ADD SWAP2 PUSH1 0x1 ADD PUSH2 0x3159 JUMP JUMPDEST POP SWAP1 SWAP7 SWAP6 POP POP POP POP POP POP JUMP JUMPDEST PUSH1 0x0 JUMPDEST DUP4 DUP2 LT ISZERO PUSH2 0x319C JUMPI DUP2 DUP2 ADD MLOAD DUP4 DUP3 ADD MSTORE PUSH1 0x20 ADD PUSH2 0x3184 JUMP JUMPDEST POP POP PUSH1 0x0 SWAP2 ADD MSTORE JUMP JUMPDEST PUSH1 0x0 DUP2 MLOAD DUP1 DUP5 MSTORE PUSH2 0x31BD DUP2 PUSH1 0x20 DUP7 ADD PUSH1 0x20 DUP7 ADD PUSH2 0x3181 JUMP JUMPDEST PUSH1 0x1F ADD PUSH1 0x1F NOT AND SWAP3 SWAP1 SWAP3 ADD PUSH1 0x20 ADD SWAP3 SWAP2 POP POP JUMP JUMPDEST PUSH1 0x0 DUP3 DUP3 MLOAD DUP1 DUP6 MSTORE PUSH1 0x20 DUP1 DUP7 ADD SWAP6 POP DUP1 DUP3 PUSH1 0x5 SHL DUP5 ADD ADD DUP2 DUP7 ADD PUSH1 0x0 JUMPDEST DUP5 DUP2 LT ISZERO PUSH2 0x321C JUMPI PUSH1 0x1F NOT DUP7 DUP5 SUB ADD DUP10 MSTORE PUSH2 0x320A DUP4 DUP4 MLOAD PUSH2 0x31A5 JUMP JUMPDEST SWAP9 DUP5 ADD SWAP9 SWAP3 POP SWAP1 DUP4 ADD SWAP1 PUSH1 0x1 ADD PUSH2 0x31EE JUMP JUMPDEST POP SWAP1 SWAP8 SWAP7 POP POP POP POP POP POP POP JUMP JUMPDEST PUSH1 0x0 DUP2 MLOAD DUP1 DUP5 MSTORE PUSH1 0x20 DUP1 DUP6 ADD SWAP5 POP DUP1 DUP5 ADD PUSH1 0x0 JUMPDEST DUP4 DUP2 LT ISZERO PUSH2 0x3259 JUMPI DUP2 MLOAD DUP8 MSTORE SWAP6 DUP3 ADD SWAP6 SWAP1 DUP3 ADD SWAP1 PUSH1 0x1 ADD PUSH2 0x323D JUMP JUMPDEST POP SWAP5 SWAP6 SWAP5 POP POP POP POP POP JUMP JUMPDEST DUP1 MLOAD ISZERO ISZERO DUP3 MSTORE PUSH1 0x0 PUSH2 0x160 PUSH1 0x20 DUP4 ADD MLOAD DUP2 PUSH1 0x20 DUP7 ADD MSTORE PUSH2 0x3286 DUP3 DUP7 ADD DUP3 PUSH2 0x31A5 JUMP JUMPDEST SWAP2 POP POP PUSH1 0x40 DUP4 ADD MLOAD DUP5 DUP3 SUB PUSH1 0x40 DUP7 ADD MSTORE PUSH2 0x32A0 DUP3 DUP3 PUSH2 0x31D1 JUMP JUMPDEST SWAP2 POP POP PUSH1 0x60 DUP4 ADD MLOAD DUP5 DUP3 SUB PUSH1 0x60 DUP7 ADD MSTORE PUSH2 0x32BA DUP3 DUP3 PUSH2 0x3229 JUMP JUMPDEST SWAP2 POP POP PUSH1 0x80 DUP4 ADD MLOAD PUSH2 0x32D7 PUSH1 0x80 DUP7 ADD DUP3 PUSH1 0x1 PUSH1 0x1 PUSH1 0xA0 SHL SUB AND SWAP1 MSTORE JUMP JUMPDEST POP PUSH1 0xA0 DUP4 ADD MLOAD PUSH2 0x32F2 PUSH1 0xA0 DUP7 ADD DUP3 PUSH1 0x1 PUSH1 0x1 PUSH1 0xA0 SHL SUB AND SWAP1 MSTORE JUMP JUMPDEST POP PUSH1 0xC0 DUP4 ADD MLOAD PUSH1 0xC0 DUP6 ADD MSTORE PUSH1 0xE0 DUP4 ADD MLOAD PUSH2 0x3317 PUSH1 0xE0 DUP7 ADD DUP3 PUSH1 0x1 PUSH1 0x1 PUSH1 0xA0 SHL SUB AND SWAP1 MSTORE JUMP JUMPDEST POP PUSH2 0x100 DUP4 DUP2 ADD MLOAD SWAP1 DUP6 ADD MSTORE PUSH2 0x120 DUP1 DUP5 ADD MLOAD SWAP1 DUP6 ADD MSTORE PUSH2 0x140 SWAP3 DUP4 ADD MLOAD SWAP3 SWAP1 SWAP4 ADD SWAP2 SWAP1 SWAP2 MSTORE POP SWAP1 JUMP JUMPDEST PUSH1 0x0 PUSH1 0x20 DUP1 DUP4 ADD DUP2 DUP5 MSTORE DUP1 DUP6 MLOAD DUP1 DUP4 MSTORE PUSH1 0x40 DUP7 ADD SWAP2 POP PUSH1 0x40 DUP2 PUSH1 0x5 SHL DUP8 ADD ADD SWAP3 POP DUP4 DUP8 ADD PUSH1 0x0 JUMPDEST DUP3 DUP2 LT ISZERO PUSH2 0x3396 JUMPI PUSH1 0x3F NOT DUP9 DUP7 SUB ADD DUP5 MSTORE PUSH2 0x3384 DUP6 DUP4 MLOAD PUSH2 0x3264 JUMP JUMPDEST SWAP5 POP SWAP3 DUP6 ADD SWAP3 SWAP1 DUP6 ADD SWAP1 PUSH1 0x1 ADD PUSH2 0x3368 JUMP JUMPDEST POP SWAP3 SWAP8 SWAP7 POP POP POP POP POP POP POP JUMP JUMPDEST PUSH1 0x0 DUP1 PUSH1 0x40 DUP4 DUP6 SUB SLT ISZERO PUSH2 0x33B6 JUMPI PUSH1 0x0 DUP1 REVERT JUMPDEST POP POP DUP1 CALLDATALOAD SWAP3 PUSH1 0x20 SWAP1 SWAP2 ADD CALLDATALOAD SWAP2 POP JUMP JUMPDEST PUSH1 0x0 PUSH2 0x120 DUP12 ISZERO ISZERO DUP4 MSTORE DUP1 PUSH1 0x20 DUP5 ADD MSTORE PUSH2 0x33E1 DUP2 DUP5 ADD DUP13 PUSH2 0x31A5 JUMP JUMPDEST PUSH1 0x1 PUSH1 0x1 PUSH1 0xA0 SHL SUB SWAP11 DUP12 AND PUSH1 0x40 DUP6 ADD MSTORE SWAP9 DUP11 AND PUSH1 0x60 DUP5 ADD MSTORE POP POP PUSH1 0x80 DUP2 ADD SWAP6 SWAP1 SWAP6 MSTORE SWAP3 SWAP1 SWAP6 AND PUSH1 0xA0 DUP5 ADD MSTORE PUSH1 0xC0 DUP4 ADD MSTORE PUSH1 0xE0 DUP3 ADD SWAP4 SWAP1 SWAP4 MSTORE PUSH2 0x100 ADD SWAP2 SWAP1 SWAP2 MSTORE SWAP3 SWAP2 POP POP JUMP JUMPDEST PUSH1 0x20 DUP2 MSTORE PUSH1 0x0 PUSH2 0x343A PUSH1 0x20 DUP4 ADD DUP5 PUSH2 0x3264 JUMP JUMPDEST SWAP4 SWAP3 POP POP POP JUMP JUMPDEST PUSH4 0x4E487B71 PUSH1 0xE0 SHL PUSH1 0x0 MSTORE PUSH1 0x41 PUSH1 0x4 MSTORE PUSH1 0x24 PUSH1 0x0 REVERT JUMPDEST PUSH1 0x0 DUP3 PUSH1 0x1F DUP4 ADD SLT PUSH2 0x3468 JUMPI PUSH1 0x0 DUP1 REVERT JUMPDEST DUP2 CALLDATALOAD PUSH8 0xFFFFFFFFFFFFFFFF DUP1 DUP3 GT ISZERO PUSH2 0x3483 JUMPI PUSH2 0x3483 PUSH2 0x3441 JUMP JUMPDEST PUSH1 0x40 MLOAD PUSH1 0x1F DUP4 ADD PUSH1 0x1F NOT SWAP1 DUP2 AND PUSH1 0x3F ADD AND DUP2 ADD SWAP1 DUP3 DUP3 GT DUP2 DUP4 LT OR ISZERO PUSH2 0x34AB JUMPI PUSH2 0x34AB PUSH2 0x3441 JUMP JUMPDEST DUP2 PUSH1 0x40 MSTORE DUP4 DUP2 MSTORE DUP7 PUSH1 0x20 DUP6 DUP9 ADD ADD GT ISZERO PUSH2 0x34C4 JUMPI PUSH1 0x0 DUP1 REVERT JUMPDEST DUP4 PUSH1 0x20 DUP8 ADD PUSH1 0x20 DUP4 ADD CALLDATACOPY PUSH1 0x0 PUSH1 0x20 DUP6 DUP4 ADD ADD MSTORE DUP1 SWAP5 POP POP POP POP POP SWAP3 SWAP2 POP POP JUMP JUMPDEST PUSH1 0x0 DUP1 PUSH1 0x40 DUP4 DUP6 SUB SLT ISZERO PUSH2 0x34F7 JUMPI PUSH1 0x0 DUP1 REVERT JUMPDEST DUP3 CALLDATALOAD PUSH8 0xFFFFFFFFFFFFFFFF DUP1 DUP3 GT ISZERO PUSH2 0x350F JUMPI PUSH1 0x0 DUP1 REVERT JUMPDEST PUSH2 0x351B DUP7 DUP4 DUP8 ADD PUSH2 0x3457 JUMP JUMPDEST SWAP4 POP PUSH1 0x20 DUP6 ADD CALLDATALOAD SWAP2 POP DUP1 DUP3 GT ISZERO PUSH2 0x3531 JUMPI PUSH1 0x0 DUP1 REVERT JUMPDEST POP PUSH2 0x353E DUP6 DUP3 DUP7 ADD PUSH2 0x3457 JUMP JUMPDEST SWAP2 POP POP SWAP3 POP SWAP3 SWAP1 POP JUMP JUMPDEST PUSH1 0x0 PUSH1 0x20 DUP1 DUP4 ADD DUP2 DUP5 MSTORE DUP1 DUP6 MLOAD DUP1 DUP4 MSTORE PUSH1 0x40 DUP7 ADD SWAP2 POP PUSH1 0x40 DUP2 PUSH1 0x5 SHL DUP8 ADD ADD SWAP3 POP DUP4 DUP8 ADD PUSH1 0x0 JUMPDEST DUP3 DUP2 LT ISZERO PUSH2 0x3396 JUMPI PUSH1 0x3F NOT DUP9 DUP7 SUB ADD DUP5 MSTORE PUSH2 0x358B DUP6 DUP4 MLOAD PUSH2 0x31A5 JUMP JUMPDEST SWAP5 POP SWAP3 DUP6 ADD SWAP3 SWAP1 DUP6 ADD SWAP1 PUSH1 0x1 ADD PUSH2 0x356F JUMP JUMPDEST PUSH1 0x0 PUSH1 0x20 DUP3 DUP5 SUB SLT ISZERO PUSH2 0x35AF JUMPI PUSH1 0x0 DUP1 REVERT JUMPDEST POP MLOAD SWAP2 SWAP1 POP JUMP JUMPDEST PUSH4 0x4E487B71 PUSH1 0xE0 SHL PUSH1 0x0 MSTORE PUSH1 0x11 PUSH1 0x4 MSTORE PUSH1 0x24 PUSH1 0x0 REVERT JUMPDEST DUP1 DUP3 MUL DUP2 ISZERO DUP3 DUP3 DIV DUP5 EQ OR PUSH2 0x223B JUMPI PUSH2 0x223B PUSH2 0x35B6 JUMP JUMPDEST PUSH1 0x0 DUP3 PUSH2 0x3600 JUMPI PUSH4 0x4E487B71 PUSH1 0xE0 SHL PUSH1 0x0 MSTORE PUSH1 0x12 PUSH1 0x4 MSTORE PUSH1 0x24 PUSH1 0x0 REVERT JUMPDEST POP DIV SWAP1 JUMP JUMPDEST DUP2 DUP2 SUB DUP2 DUP2 GT ISZERO PUSH2 0x223B JUMPI PUSH2 0x223B PUSH2 0x35B6 JUMP JUMPDEST PUSH1 0x1 PUSH1 0x1 PUSH1 0xA0 SHL SUB SWAP4 DUP5 AND DUP2 MSTORE SWAP2 SWAP1 SWAP3 AND PUSH1 0x20 DUP3 ADD MSTORE PUSH1 0x40 DUP2 ADD SWAP2 SWAP1 SWAP2 MSTORE PUSH1 0x60 ADD SWAP1 JUMP JUMPDEST PUSH1 0x0 PUSH1 0x20 DUP3 DUP5 SUB SLT ISZERO PUSH2 0x364E JUMPI PUSH1 0x0 DUP1 REVERT JUMPDEST DUP2 MLOAD DUP1 ISZERO ISZERO DUP2 EQ PUSH2 0x343A JUMPI PUSH1 0x0 DUP1 REVERT JUMPDEST DUP1 DUP3 ADD DUP1 DUP3 GT ISZERO PUSH2 0x223B JUMPI PUSH2 0x223B PUSH2 0x35B6 JUMP JUMPDEST PUSH1 0x1 DUP2 DUP2 SHR SWAP1 DUP3 AND DUP1 PUSH2 0x3685 JUMPI PUSH1 0x7F DUP3 AND SWAP2 POP JUMPDEST PUSH1 0x20 DUP3 LT DUP2 SUB PUSH2 0x36A5 JUMPI PUSH4 0x4E487B71 PUSH1 0xE0 SHL PUSH1 0x0 MSTORE PUSH1 0x22 PUSH1 0x4 MSTORE PUSH1 0x24 PUSH1 0x0 REVERT JUMPDEST POP SWAP2 SWAP1 POP JUMP JUMPDEST PUSH1 0x1F DUP3 GT ISZERO PUSH2 0x36F5 JUMPI PUSH1 0x0 DUP2 DUP2 MSTORE PUSH1 0x20 DUP2 KECCAK256 PUSH1 0x1F DUP6 ADD PUSH1 0x5 SHR DUP2 ADD PUSH1 0x20 DUP7 LT ISZERO PUSH2 0x36D2 JUMPI POP DUP1 JUMPDEST PUSH1 0x1F DUP6 ADD PUSH1 0x5 SHR DUP3 ADD SWAP2 POP JUMPDEST DUP2 DUP2 LT ISZERO PUSH2 0x36F1 JUMPI DUP3 DUP2 SSTORE PUSH1 0x1 ADD PUSH2 0x36DE JUMP JUMPDEST POP POP POP JUMPDEST POP POP POP JUMP JUMPDEST DUP2 MLOAD PUSH8 0xFFFFFFFFFFFFFFFF DUP2 GT ISZERO PUSH2 0x3714 JUMPI PUSH2 0x3714 PUSH2 0x3441 JUMP JUMPDEST PUSH2 0x3728 DUP2 PUSH2 0x3722 DUP5 SLOAD PUSH2 0x3671 JUMP JUMPDEST DUP5 PUSH2 0x36AB JUMP JUMPDEST PUSH1 0x20 DUP1 PUSH1 0x1F DUP4 GT PUSH1 0x1 DUP2 EQ PUSH2 0x375D JUMPI PUSH1 0x0 DUP5 ISZERO PUSH2 0x3745 JUMPI POP DUP6 DUP4 ADD MLOAD JUMPDEST PUSH1 0x0 NOT PUSH1 0x3 DUP7 SWAP1 SHL SHR NOT AND PUSH1 0x1 DUP6 SWAP1 SHL OR DUP6 SSTORE PUSH2 0x36F1 JUMP JUMPDEST PUSH1 0x0 DUP6 DUP2 MSTORE PUSH1 0x20 DUP2 KECCAK256 PUSH1 0x1F NOT DUP7 AND SWAP2 JUMPDEST DUP3 DUP2 LT ISZERO PUSH2 0x378C JUMPI DUP9 DUP7 ADD MLOAD DUP3 SSTORE SWAP5 DUP5 ADD SWAP5 PUSH1 0x1 SWAP1 SWAP2 ADD SWAP1 DUP5 ADD PUSH2 0x376D JUMP JUMPDEST POP DUP6 DUP3 LT ISZERO PUSH2 0x37AA JUMPI DUP8 DUP6 ADD MLOAD PUSH1 0x0 NOT PUSH1 0x3 DUP9 SWAP1 SHL PUSH1 0xF8 AND SHR NOT AND DUP2 SSTORE JUMPDEST POP POP POP POP POP PUSH1 0x1 SWAP1 DUP2 SHL ADD SWAP1 SSTORE POP JUMP JUMPDEST PUSH4 0x4E487B71 PUSH1 0xE0 SHL PUSH1 0x0 MSTORE PUSH1 0x32 PUSH1 0x4 MSTORE PUSH1 0x24 PUSH1 0x0 REVERT JUMPDEST PUSH1 0x0 PUSH1 0x1 DUP3 ADD PUSH2 0x37E2 JUMPI PUSH2 0x37E2 PUSH2 0x35B6 JUMP JUMPDEST POP PUSH1 0x1 ADD SWAP1 JUMP JUMPDEST DUP2 DUP2 SUB PUSH2 0x37F4 JUMPI POP POP JUMP JUMPDEST PUSH2 0x37FE DUP3 SLOAD PUSH2 0x3671 JUMP JUMPDEST PUSH8 0xFFFFFFFFFFFFFFFF DUP2 GT ISZERO PUSH2 0x3816 JUMPI PUSH2 0x3816 PUSH2 0x3441 JUMP JUMPDEST PUSH2 0x3824 DUP2 PUSH2 0x3722 DUP5 SLOAD PUSH2 0x3671 JUMP JUMPDEST PUSH1 0x0 PUSH1 0x1F DUP3 GT PUSH1 0x1 DUP2 EQ PUSH2 0x3858 JUMPI PUSH1 0x0 DUP4 ISZERO PUSH2 0x3840 JUMPI POP DUP5 DUP3 ADD SLOAD JUMPDEST PUSH1 0x0 NOT PUSH1 0x3 DUP6 SWAP1 SHL SHR NOT AND PUSH1 0x1 DUP5 SWAP1 SHL OR DUP5 SSTORE PUSH2 0x38BD JUMP JUMPDEST PUSH1 0x0 DUP6 DUP2 MSTORE PUSH1 0x20 SWAP1 KECCAK256 PUSH1 0x1F NOT DUP5 AND SWAP1 PUSH1 0x0 DUP7 DUP2 MSTORE PUSH1 0x20 SWAP1 KECCAK256 DUP5 JUMPDEST DUP4 DUP2 LT ISZERO PUSH2 0x3892 JUMPI DUP3 DUP7 ADD SLOAD DUP3 SSTORE PUSH1 0x1 SWAP6 DUP7 ADD SWAP6 SWAP1 SWAP2 ADD SWAP1 PUSH1 0x20 ADD PUSH2 0x3872 JUMP JUMPDEST POP DUP6 DUP4 LT ISZERO PUSH2 0x38B0 JUMPI DUP2 DUP6 ADD SLOAD PUSH1 0x0 NOT PUSH1 0x3 DUP9 SWAP1 SHL PUSH1 0xF8 AND SHR NOT AND DUP2 SSTORE JUMPDEST POP POP POP PUSH1 0x1 DUP4 PUSH1 0x1 SHL ADD DUP5 SSTORE JUMPDEST POP POP POP POP POP JUMP JUMPDEST PUSH1 0x0 DUP2 SLOAD PUSH2 0x38D1 DUP2 PUSH2 0x3671 JUMP JUMPDEST DUP1 DUP6 MSTORE PUSH1 0x20 PUSH1 0x1 DUP4 DUP2 AND DUP1 ISZERO PUSH2 0x38EE JUMPI PUSH1 0x1 DUP2 EQ PUSH2 0x3908 JUMPI PUSH2 0x3936 JUMP JUMPDEST PUSH1 0xFF NOT DUP6 AND DUP9 DUP5 ADD MSTORE DUP4 ISZERO ISZERO PUSH1 0x5 SHL DUP9 ADD DUP4 ADD SWAP6 POP PUSH2 0x3936 JUMP JUMPDEST DUP7 PUSH1 0x0 MSTORE DUP3 PUSH1 0x0 KECCAK256 PUSH1 0x0 JUMPDEST DUP6 DUP2 LT ISZERO PUSH2 0x392E JUMPI DUP2 SLOAD DUP11 DUP3 ADD DUP7 ADD MSTORE SWAP1 DUP4 ADD SWAP1 DUP5 ADD PUSH2 0x3913 JUMP JUMPDEST DUP10 ADD DUP5 ADD SWAP7 POP POP JUMPDEST POP POP POP POP POP SWAP3 SWAP2 POP POP JUMP JUMPDEST PUSH1 0x0 DUP2 SLOAD DUP1 DUP5 MSTORE PUSH1 0x20 DUP1 DUP6 ADD DUP1 DUP2 SWAP7 POP DUP4 PUSH1 0x5 SHL DUP2 ADD SWAP2 POP DUP6 PUSH1 0x0 MSTORE DUP3 PUSH1 0x0 KECCAK256 PUSH1 0x0 JUMPDEST DUP6 DUP2 LT ISZERO PUSH2 0x398D JUMPI DUP3 DUP5 SUB DUP10 MSTORE PUSH2 0x397B DUP5 DUP4 PUSH2 0x38C4 JUMP JUMPDEST SWAP9 DUP6 ADD SWAP9 SWAP4 POP PUSH1 0x1 SWAP2 DUP3 ADD SWAP2 ADD PUSH2 0x3964 JUMP JUMPDEST POP SWAP2 SWAP8 SWAP7 POP POP POP POP POP POP POP JUMP JUMPDEST PUSH1 0x40 DUP2 MSTORE PUSH1 0x0 PUSH2 0x39AD PUSH1 0x40 DUP4 ADD DUP6 PUSH2 0x3941 JUMP JUMPDEST SWAP1 POP DUP3 PUSH1 0x20 DUP4 ADD MSTORE SWAP4 SWAP3 POP POP POP JUMP JUMPDEST PUSH1 0x0 DUP2 SLOAD DUP1 DUP5 MSTORE PUSH1 0x20 DUP1 DUP6 ADD SWAP5 POP DUP4 PUSH1 0x0 MSTORE DUP1 PUSH1 0x0 KECCAK256 PUSH1 0x0 JUMPDEST DUP4 DUP2 LT ISZERO PUSH2 0x3259 JUMPI DUP2 SLOAD DUP8 MSTORE SWAP6 DUP3 ADD SWAP6 PUSH1 0x1 SWAP2 DUP3 ADD SWAP2 ADD PUSH2 0x39D5 JUMP JUMPDEST PUSH1 0x40 DUP2 MSTORE PUSH2 0x3A0D PUSH1 0x40 DUP3 ADD PUSH2 0x3A07 DUP6 SLOAD PUSH1 0xFF AND SWAP1 JUMP JUMPDEST ISZERO ISZERO SWAP1 MSTORE JUMP JUMPDEST PUSH1 0x0 PUSH2 0x160 DUP1 PUSH1 0x60 DUP5 ADD MSTORE PUSH2 0x3A29 PUSH2 0x1A0 DUP5 ADD PUSH1 0x1 DUP8 ADD PUSH2 0x38C4 JUMP JUMPDEST PUSH1 0x3F NOT DUP1 DUP6 DUP4 SUB ADD PUSH1 0x80 DUP7 ADD MSTORE PUSH2 0x3A43 DUP3 PUSH1 0x2 DUP10 ADD PUSH2 0x3941 JUMP JUMPDEST SWAP2 POP DUP1 DUP6 DUP4 SUB ADD PUSH1 0xA0 DUP7 ADD MSTORE POP PUSH2 0x3A5D DUP2 PUSH1 0x3 DUP9 ADD PUSH2 0x39BC JUMP JUMPDEST SWAP1 POP PUSH2 0x3A73 PUSH1 0x4 DUP8 ADD SLOAD PUSH1 0x1 PUSH1 0x1 PUSH1 0xA0 SHL SUB AND SWAP1 JUMP JUMPDEST PUSH1 0x1 PUSH1 0x1 PUSH1 0xA0 SHL SUB SWAP1 DUP2 AND PUSH1 0xC0 DUP7 ADD MSTORE PUSH1 0x5 DUP8 ADD SLOAD DUP2 AND PUSH1 0xE0 DUP7 ADD MSTORE PUSH1 0x6 DUP8 ADD SLOAD PUSH2 0x100 DUP7 ADD MSTORE PUSH1 0x7 DUP8 ADD SLOAD AND PUSH2 0x120 DUP6 ADD MSTORE PUSH1 0x8 DUP7 ADD SLOAD PUSH2 0x140 DUP6 ADD MSTORE PUSH1 0x9 DUP7 ADD SLOAD SWAP2 DUP5 ADD SWAP2 SWAP1 SWAP2 MSTORE PUSH1 0xA SWAP1 SWAP5 ADD SLOAD PUSH2 0x180 DUP4 ADD MSTORE POP PUSH1 0x20 ADD MSTORE SWAP1 JUMP JUMPDEST PUSH1 0x0 DUP3 MLOAD PUSH2 0x3AE3 DUP2 DUP5 PUSH1 0x20 DUP8 ADD PUSH2 0x3181 JUMP JUMPDEST SWAP2 SWAP1 SWAP2 ADD SWAP3 SWAP2 POP POP JUMP JUMPDEST PUSH1 0x40 DUP2 MSTORE PUSH1 0x0 PUSH2 0x39AD PUSH1 0x40 DUP4 ADD DUP6 PUSH2 0x38C4 JUMP INVALID LOG2 PUSH5 0x6970667358 0x22 SLT KECCAK256 0xC2 0x28 0xEB PUSH12 0x1B7490EBD3C10F6D9EA9BEEF 0xB7 CALLDATASIZE 0x2B 0x2D 0x2A STOP 0xDD 0xF9 TIMESTAMP EXTCODECOPY 0x5C RETURNDATACOPY 0xBA 0xD4 SIGNEXTEND 0xDF PUSH5 0x736F6C6343 STOP ADDMOD SGT STOP CALLER "
		},
		"gasEstimates": {
			"creation": {
				"codeDepositCost": "3031600",
				"executionCost": "infinite",
				"totalCost": "infinite"
			},
			"external": {
				"TTTToken()": "2426",
				"burnFee()": "2427",
				"compareStrings(string,string)": "infinite",
				"createGameRoom(uint256)": "infinite",
				"faucetToken()": "infinite",
				"gameInformation(uint256)": "infinite",
				"getAllGameInformation()": "infinite",
				"getAllMoney()": "infinite",
				"getExcessBalance()": "infinite",
				"getFinalWinOption(uint256)": "infinite",
				"getGameInformation(uint256)": "infinite",
				"getoption(uint256)": "infinite",
				"joinGame(uint256,uint256)": "infinite",
				"minBetAmount()": "2405",
				"owner()": "2382",
				"restartGame(uint256)": "infinite",
				"totalAmount()": "2363",
				"treasury()": "2404",
				"treasuryFee()": "2339",
				"userInput(uint256,uint256)": "infinite",
				"validateRestartPlayer(uint256)": "9183"
			},
			"internal": {
				"changePlayer(uint256)": "infinite",
				"checkAddress(uint256)": "8736",
				"checkOptions(uint256)": "infinite",
				"checkWinner(uint256)": "infinite"
			}
		},
		"methodIdentifiers": {
			"TTTToken()": "7effb427",
			"burnFee()": "fce589d8",
			"compareStrings(string,string)": "bed34bba",
			"createGameRoom(uint256)": "06139e8d",
			"faucetToken()": "b7b524a1",
			"gameInformation(uint256)": "87052fab",
			"getAllGameInformation()": "491f0136",
			"getAllMoney()": "edb84ff7",
			"getExcessBalance()": "888b042f",
			"getFinalWinOption(uint256)": "17b44960",
			"getGameInformation(uint256)": "b2182be4",
			"getoption(uint256)": "dc572c6e",
			"joinGame(uint256,uint256)": "b60b9fcb",
			"minBetAmount()": "fa968eea",
			"owner()": "8da5cb5b",
			"restartGame(uint256)": "4a968391",
			"totalAmount()": "1a39d8ef",
			"treasury()": "61d027b3",
			"treasuryFee()": "cc32d176",
			"userInput(uint256,uint256)": "52bc3410",
			"validateRestartPlayer(uint256)": "34fd3518"
		}
	},
	"abi": [
		{
			"inputs": [],
			"stateMutability": "nonpayable",
			"type": "constructor"
		},
		{
			"anonymous": false,
			"inputs": [
				{
					"indexed": false,
					"internalType": "uint256",
					"name": "gameId",
					"type": "uint256"
				}
			],
			"name": "createRoom",
			"type": "event"
		},
		{
			"anonymous": false,
			"inputs": [
				{
					"indexed": false,
					"internalType": "address",
					"name": "msgSender",
					"type": "address"
				},
				{
					"indexed": false,
					"internalType": "bool",
					"name": "successful",
					"type": "bool"
				}
			],
			"name": "faucet",
			"type": "event"
		},
		{
			"anonymous": false,
			"inputs": [
				{
					"components": [
						{
							"internalType": "bool",
							"name": "_activate",
							"type": "bool"
						},
						{
							"internalType": "string",
							"name": "_currentPlayer",
							"type": "string"
						},
						{
							"internalType": "string[]",
							"name": "_options",
							"type": "string[]"
						},
						{
							"internalType": "uint256[]",
							"name": "_finalWinOption",
							"type": "uint256[]"
						},
						{
							"internalType": "address",
							"name": "_player1address",
							"type": "address"
						},
						{
							"internalType": "address",
							"name": "_player2address",
							"type": "address"
						},
						{
							"internalType": "uint256",
							"name": "_playerCount",
							"type": "uint256"
						},
						{
							"internalType": "address",
							"name": "_winer",
							"type": "address"
						},
						{
							"internalType": "uint256",
							"name": "_player1Bet",
							"type": "uint256"
						},
						{
							"internalType": "uint256",
							"name": "_player2Bet",
							"type": "uint256"
						},
						{
							"internalType": "uint256",
							"name": "_rewardAmount",
							"type": "uint256"
						}
					],
					"indexed": false,
					"internalType": "struct TickTackToe.GameInfo",
					"name": "gameinfo",
					"type": "tuple"
				},
				{
					"indexed": false,
					"internalType": "uint256",
					"name": "gameId",
					"type": "uint256"
				}
			],
			"name": "joinRoom",
			"type": "event"
		},
		{
			"anonymous": false,
			"inputs": [
				{
					"indexed": false,
					"internalType": "string",
					"name": "next",
					"type": "string"
				},
				{
					"indexed": false,
					"internalType": "uint256",
					"name": "gameId",
					"type": "uint256"
				}
			],
			"name": "nextUesrStr",
			"type": "event"
		},
		{
			"anonymous": false,
			"inputs": [
				{
					"indexed": false,
					"internalType": "address",
					"name": "nextUser",
					"type": "address"
				},
				{
					"indexed": false,
					"internalType": "uint256",
					"name": "gameId",
					"type": "uint256"
				}
			],
			"name": "nextUser",
			"type": "event"
		},
		{
			"anonymous": false,
			"inputs": [
				{
					"indexed": false,
					"internalType": "uint256",
					"name": "gameId",
					"type": "uint256"
				}
			],
			"name": "resetUI",
			"type": "event"
		},
		{
			"anonymous": false,
			"inputs": [
				{
					"indexed": false,
					"internalType": "address",
					"name": "player1Address",
					"type": "address"
				},
				{
					"indexed": false,
					"internalType": "uint256",
					"name": "gameId",
					"type": "uint256"
				}
			],
			"name": "showFirstPlayer",
			"type": "event"
		},
		{
			"anonymous": false,
			"inputs": [
				{
					"indexed": false,
					"internalType": "string",
					"name": "result",
					"type": "string"
				},
				{
					"indexed": false,
					"internalType": "uint256",
					"name": "gameId",
					"type": "uint256"
				}
			],
			"name": "showResult",
			"type": "event"
		},
		{
			"anonymous": false,
			"inputs": [
				{
					"indexed": false,
					"internalType": "string",
					"name": "message",
					"type": "string"
				},
				{
					"indexed": false,
					"internalType": "address",
					"name": "player1",
					"type": "address"
				},
				{
					"indexed": false,
					"internalType": "address",
					"name": "player2",
					"type": "address"
				},
				{
					"indexed": false,
					"internalType": "uint256",
					"name": "gameId",
					"type": "uint256"
				}
			],
			"name": "startGame",
			"type": "event"
		},
		{
			"anonymous": false,
			"inputs": [
				{
					"indexed": false,
					"internalType": "string[]",
					"name": "options",
					"type": "string[]"
				},
				{
					"indexed": false,
					"internalType": "uint256",
					"name": "gameId",
					"type": "uint256"
				}
			],
			"name": "updateUI",
			"type": "event"
		},
		{
			"inputs": [],
			"name": "TTTToken",
			"outputs": [
				{
					"internalType": "contract IERC20",
					"name": "",
					"type": "address"
				}
			],
			"stateMutability": "view",
			"type": "function"
		},
		{
			"inputs": [],
			"name": "burnFee",
			"outputs": [
				{
					"internalType": "uint256",
					"name": "",
					"type": "uint256"
				}
			],
			"stateMutability": "view",
			"type": "function"
		},
		{
			"inputs": [
				{
					"internalType": "string",
					"name": "a",
					"type": "string"
				},
				{
					"internalType": "string",
					"name": "b",
					"type": "string"
				}
			],
			"name": "compareStrings",
			"outputs": [
				{
					"internalType": "bool",
					"name": "",
					"type": "bool"
				}
			],
			"stateMutability": "pure",
			"type": "function"
		},
		{
			"inputs": [
				{
					"internalType": "uint256",
					"name": "betAmount",
					"type": "uint256"
				}
			],
			"name": "createGameRoom",
			"outputs": [],
			"stateMutability": "nonpayable",
			"type": "function"
		},
		{
			"inputs": [],
			"name": "faucetToken",
			"outputs": [],
			"stateMutability": "nonpayable",
			"type": "function"
		},
		{
			"inputs": [
				{
					"internalType": "uint256",
					"name": "",
					"type": "uint256"
				}
			],
			"name": "gameInformation",
			"outputs": [
				{
					"internalType": "bool",
					"name": "_activate",
					"type": "bool"
				},
				{
					"internalType": "string",
					"name": "_currentPlayer",
					"type": "string"
				},
				{
					"internalType": "address",
					"name": "_player1address",
					"type": "address"
				},
				{
					"internalType": "address",
					"name": "_player2address",
					"type": "address"
				},
				{
					"internalType": "uint256",
					"name": "_playerCount",
					"type": "uint256"
				},
				{
					"internalType": "address",
					"name": "_winer",
					"type": "address"
				},
				{
					"internalType": "uint256",
					"name": "_player1Bet",
					"type": "uint256"
				},
				{
					"internalType": "uint256",
					"name": "_player2Bet",
					"type": "uint256"
				},
				{
					"internalType": "uint256",
					"name": "_rewardAmount",
					"type": "uint256"
				}
			],
			"stateMutability": "view",
			"type": "function"
		},
		{
			"inputs": [],
			"name": "getAllGameInformation",
			"outputs": [
				{
					"components": [
						{
							"internalType": "bool",
							"name": "_activate",
							"type": "bool"
						},
						{
							"internalType": "string",
							"name": "_currentPlayer",
							"type": "string"
						},
						{
							"internalType": "string[]",
							"name": "_options",
							"type": "string[]"
						},
						{
							"internalType": "uint256[]",
							"name": "_finalWinOption",
							"type": "uint256[]"
						},
						{
							"internalType": "address",
							"name": "_player1address",
							"type": "address"
						},
						{
							"internalType": "address",
							"name": "_player2address",
							"type": "address"
						},
						{
							"internalType": "uint256",
							"name": "_playerCount",
							"type": "uint256"
						},
						{
							"internalType": "address",
							"name": "_winer",
							"type": "address"
						},
						{
							"internalType": "uint256",
							"name": "_player1Bet",
							"type": "uint256"
						},
						{
							"internalType": "uint256",
							"name": "_player2Bet",
							"type": "uint256"
						},
						{
							"internalType": "uint256",
							"name": "_rewardAmount",
							"type": "uint256"
						}
					],
					"internalType": "struct TickTackToe.GameInfo[]",
					"name": "",
					"type": "tuple[]"
				}
			],
			"stateMutability": "view",
			"type": "function"
		},
		{
			"inputs": [],
			"name": "getAllMoney",
			"outputs": [],
			"stateMutability": "nonpayable",
			"type": "function"
		},
		{
			"inputs": [],
			"name": "getExcessBalance",
			"outputs": [],
			"stateMutability": "nonpayable",
			"type": "function"
		},
		{
			"inputs": [
				{
					"internalType": "uint256",
					"name": "gameId",
					"type": "uint256"
				}
			],
			"name": "getFinalWinOption",
			"outputs": [
				{
					"internalType": "uint256[]",
					"name": "",
					"type": "uint256[]"
				}
			],
			"stateMutability": "view",
			"type": "function"
		},
		{
			"inputs": [
				{
					"internalType": "uint256",
					"name": "gameId",
					"type": "uint256"
				}
			],
			"name": "getGameInformation",
			"outputs": [
				{
					"components": [
						{
							"internalType": "bool",
							"name": "_activate",
							"type": "bool"
						},
						{
							"internalType": "string",
							"name": "_currentPlayer",
							"type": "string"
						},
						{
							"internalType": "string[]",
							"name": "_options",
							"type": "string[]"
						},
						{
							"internalType": "uint256[]",
							"name": "_finalWinOption",
							"type": "uint256[]"
						},
						{
							"internalType": "address",
							"name": "_player1address",
							"type": "address"
						},
						{
							"internalType": "address",
							"name": "_player2address",
							"type": "address"
						},
						{
							"internalType": "uint256",
							"name": "_playerCount",
							"type": "uint256"
						},
						{
							"internalType": "address",
							"name": "_winer",
							"type": "address"
						},
						{
							"internalType": "uint256",
							"name": "_player1Bet",
							"type": "uint256"
						},
						{
							"internalType": "uint256",
							"name": "_player2Bet",
							"type": "uint256"
						},
						{
							"internalType": "uint256",
							"name": "_rewardAmount",
							"type": "uint256"
						}
					],
					"internalType": "struct TickTackToe.GameInfo",
					"name": "",
					"type": "tuple"
				}
			],
			"stateMutability": "view",
			"type": "function"
		},
		{
			"inputs": [
				{
					"internalType": "uint256",
					"name": "gameId",
					"type": "uint256"
				}
			],
			"name": "getoption",
			"outputs": [
				{
					"internalType": "string[]",
					"name": "",
					"type": "string[]"
				}
			],
			"stateMutability": "view",
			"type": "function"
		},
		{
			"inputs": [
				{
					"internalType": "uint256",
					"name": "gameId",
					"type": "uint256"
				},
				{
					"internalType": "uint256",
					"name": "betAmount",
					"type": "uint256"
				}
			],
			"name": "joinGame",
			"outputs": [],
			"stateMutability": "nonpayable",
			"type": "function"
		},
		{
			"inputs": [],
			"name": "minBetAmount",
			"outputs": [
				{
					"internalType": "uint256",
					"name": "",
					"type": "uint256"
				}
			],
			"stateMutability": "view",
			"type": "function"
		},
		{
			"inputs": [],
			"name": "owner",
			"outputs": [
				{
					"internalType": "address",
					"name": "",
					"type": "address"
				}
			],
			"stateMutability": "view",
			"type": "function"
		},
		{
			"inputs": [
				{
					"internalType": "uint256",
					"name": "gameId",
					"type": "uint256"
				}
			],
			"name": "restartGame",
			"outputs": [],
			"stateMutability": "nonpayable",
			"type": "function"
		},
		{
			"inputs": [],
			"name": "totalAmount",
			"outputs": [
				{
					"internalType": "uint256",
					"name": "",
					"type": "uint256"
				}
			],
			"stateMutability": "view",
			"type": "function"
		},
		{
			"inputs": [],
			"name": "treasury",
			"outputs": [
				{
					"internalType": "address",
					"name": "",
					"type": "address"
				}
			],
			"stateMutability": "view",
			"type": "function"
		},
		{
			"inputs": [],
			"name": "treasuryFee",
			"outputs": [
				{
					"internalType": "uint256",
					"name": "",
					"type": "uint256"
				}
			],
			"stateMutability": "view",
			"type": "function"
		},
		{
			"inputs": [
				{
					"internalType": "uint256",
					"name": "input",
					"type": "uint256"
				},
				{
					"internalType": "uint256",
					"name": "gameId",
					"type": "uint256"
				}
			],
			"name": "userInput",
			"outputs": [],
			"stateMutability": "nonpayable",
			"type": "function"
		},
		{
			"inputs": [
				{
					"internalType": "uint256",
					"name": "gameId",
					"type": "uint256"
				}
			],
			"name": "validateRestartPlayer",
			"outputs": [],
			"stateMutability": "nonpayable",
			"type": "function"
		}
	]
}