{
	"data": {
		"bytecode": {
			"linkReferences": {},
			"object": "600060028190556101a081815260809081526101c082815260a0526101e082815260c05261020082815260e052610220828152610100526102408281526101205261026082815261014052610280828152610160526102c06040526102a09182526101809190915262000077906003906009620001dc565b506004805460ff191690556040805180820190915260018152600b60fb1b6020820152600590620000a9908262000444565b5060408051610160810182526000610100820181815260016101208401819052600261014085018190529184528451606081810187526003808352600460208481018290526005858b01819052818a019590955289518085018b52600680825260078284018190526008838e018190528c8e01939093528c518088018e528b815280850196909652858d01829052868c01959095528b518087018d52978852878301849052878c019490945260808a019690965289518085018b5287815280820195909552848a0186905260a089019490945288518084018a5296875286840181905286890185905260c0880196909652875191820188529381529081019390935293820181905260e0830191909152620001c79290919062000239565b50348015620001d557600080fd5b5062000510565b82805482825590600052602060002090810192821562000227579160200282015b8281111562000227578251829062000216908262000444565b5091602001919060010190620001fd565b506200023592915062000293565b5090565b82805482825590600052602060002090810192821562000285579160200282015b8281111562000285578251620002749083906003620002b4565b50916020019190600101906200025a565b506200023592915062000305565b8082111562000235576000620002aa828262000326565b5060010162000293565b828054828255906000526020600020908101928215620002f7579160200282015b82811115620002f7578251829060ff16905591602001919060010190620002d5565b506200023592915062000368565b80821115620002355760006200031c82826200037f565b5060010162000305565b5080546200033490620003b5565b6000825580601f1062000345575050565b601f01602090049060005260206000209081019062000365919062000368565b50565b5b8082111562000235576000815560010162000369565b508054600082559060005260206000209081019062000365919062000368565b634e487b7160e01b600052604160045260246000fd5b600181811c90821680620003ca57607f821691505b602082108103620003eb57634e487b7160e01b600052602260045260246000fd5b50919050565b601f8211156200043f57600081815260208120601f850160051c810160208610156200041a5750805b601f850160051c820191505b818110156200043b5782815560010162000426565b5050505b505050565b81516001600160401b038111156200046057620004606200039f565b6200047881620004718454620003b5565b84620003f1565b602080601f831160018114620004b05760008415620004975750858301515b600019600386901b1c1916600185901b1785556200043b565b600085815260208120601f198616915b82811015620004e157888601518255948401946001909101908401620004c0565b5085821015620005005787850151600019600388901b60f8161c191681555b5050505050600190811b01905550565b61154980620005206000396000f3fe608060405234801561001057600080fd5b50600436106100a95760003560e01c806355a5c3011161007157806355a5c3011461012457806363f4150e1461014f5780637d39620b146101645780638d25af0414610177578063bed34bba1461017f578063d4f77b1c1461019257600080fd5b80630f15f4c0146100ae578063302bcc57146100d0578063409e2205146100e75780634404a4381461010757806352fc48551461010f575b600080fd5b6004546100bb9060ff1681565b60405190151581526020015b60405180910390f35b6100d960025481565b6040519081526020016100c7565b6100fa6100f5366004610fc1565b61019a565b6040516100c7919061102a565b6100fa610246565b61012261011d366004610fc1565b610253565b005b600054610137906001600160a01b031681565b6040516001600160a01b0390911681526020016100c7565b61015761056c565b6040516100c79190611044565b600154610137906001600160a01b031681565b610122610645565b6100bb61018d366004611149565b61076b565b6101226107c4565b600381815481106101aa57600080fd5b9060005260206000200160009150905080546101c5906111ad565b80601f01602080910402602001604051908101604052809291908181526020018280546101f1906111ad565b801561023e5780601f106102135761010080835404028352916020019161023e565b820191906000526020600020905b81548152906001019060200180831161022157829003601f168201915b505050505081565b600580546101c5906111ad565b60045460ff166102aa5760405162461bcd60e51b815260206004820152601c60248201527f5468652067616d65207374696c6c206e6f74207374617274207965740000000060448201526064015b60405180910390fd5b610368600382815481106102c0576102c06111e7565b9060005260206000200180546102d5906111ad565b80601f0160208091040260200160405190810160405280929190818152602001828054610301906111ad565b801561034e5780601f106103235761010080835404028352916020019161034e565b820191906000526020600020905b81548152906001019060200180831161033157829003601f168201915b50505050506040518060200160405280600081525061076b565b6103a45760405162461bcd60e51b815260206004820152600d60248201526c125b9d985b1a59081a5b9c1d5d609a1b60448201526064016102a1565b610451600580546103b4906111ad565b80601f01602080910402602001604051908101604052809291908181526020018280546103e0906111ad565b801561042d5780601f106104025761010080835404028352916020019161042d565b820191906000526020600020905b81548152906001019060200180831161041057829003601f168201915b5050505050604051806040016040528060018152602001600b60fb1b81525061076b565b156104ac576000546001600160a01b031633146104a75760405162461bcd60e51b8152602060048201526014602482015273596f7520617265206e6f7420706c61796572203160601b60448201526064016102a1565b6104fd565b6001546001600160a01b031633146104fd5760405162461bcd60e51b81526020600482015260146024820152732cb7ba9030b932903737ba10383630bcb2b9101960611b60448201526064016102a1565b600560038281548110610512576105126111e7565b906000526020600020019081610528919061124c565b507fd77f94cc29111f7dbd8555e9587fc989a0cf9fa417821f33e2f02913794bebb0600360405161055991906113aa565b60405180910390a1610569610973565b50565b60606003805480602002602001604051908101604052809291908181526020016000905b8282101561063c5783829060005260206000200180546105af906111ad565b80601f01602080910402602001604051908101604052809291908181526020018280546105db906111ad565b80156106285780601f106105fd57610100808354040283529160200191610628565b820191906000526020600020905b81548152906001019060200180831161060b57829003601f168201915b505050505081526020019060010190610590565b50505050905090565b6040805180820190915260018152600b60fb1b602082015260059061066a9082611403565b5060408051610140810182526000610120820181815282528251602081810185528282528084019190915283518082018552828152838501528351808201855282815260608401528351808201855282815260808401528351808201855282815260a08401528351808201855282815260c08401528351808201855282815260e08401528351908101909352825261010081019190915261070f906003906009610f04565b507f12028463284aa79a2cec858ff157451112ecff237cda43248ebb797c814f661c600560405161074091906114bd565b60405180910390a16000600281905580546001600160a01b0319908116909155600180549091169055565b60008160405160200161077e91906114d0565b60405160208183030381529060405280519060200120836040516020016107a591906114d0565b6040516020818303038152906040528051906020012014905092915050565b6002546000036107fd576107d6610645565b600080546001600160a01b0319163317815560028054916107f6836114ec565b9190505550565b600254600103610914576000546001600160a01b0316330361086d5760405162461bcd60e51b8152602060048201526024808201527f4572726f723a20596f752063616e6e6f7420706c6179207769746820796f757260448201526339b2b63360e11b60648201526084016102a1565b600180546001600160a01b031916331790556002805490600061088f836114ec565b90915550506004805460ff191660019081179091556000549054604080516060808252600b908201526a53746172742067616d652160a81b60808201526001600160a01b03938416602082015292909116908201527fe731305b65099c3b743324657b0ef6cc0638875c5469a8e5bde1765300c0b9b29060a0015b60405180910390a1565b7fe955ccaf7888efcaf9248f6fe09c3ce81cc6c6b8d5049b7e597604b9fda4f5a060405161090a906020808252601c908201527f4e6f772071756575652069732066756c6c2c20747279206c6174657200000000604082015260600190565b6000805b600654811015610ce657600060068281548110610996576109966111e7565b906000526020600020018054806020026020016040519081016040528092919081815260200182805480156109ea57602002820191906000526020600020905b8154815260200190600101908083116109d6575b505050505090506000600382600081518110610a0857610a086111e7565b602002602001015181548110610a2057610a206111e7565b906000526020600020018054610a35906111ad565b80601f0160208091040260200160405190810160405280929190818152602001828054610a61906111ad565b8015610aae5780601f10610a8357610100808354040283529160200191610aae565b820191906000526020600020905b815481529060010190602001808311610a9157829003601f168201915b505050505090506000600383600181518110610acc57610acc6111e7565b602002602001015181548110610ae457610ae46111e7565b906000526020600020018054610af9906111ad565b80601f0160208091040260200160405190810160405280929190818152602001828054610b25906111ad565b8015610b725780601f10610b4757610100808354040283529160200191610b72565b820191906000526020600020905b815481529060010190602001808311610b5557829003601f168201915b505050505090506000600384600281518110610b9057610b906111e7565b602002602001015181548110610ba857610ba86111e7565b906000526020600020018054610bbd906111ad565b80601f0160208091040260200160405190810160405280929190818152602001828054610be9906111ad565b8015610c365780601f10610c0b57610100808354040283529160200191610c36565b820191906000526020600020905b815481529060010190602001808311610c1957829003601f168201915b50505050509050610c56836040518060200160405280600081525061076b565b80610c755750610c75826040518060200160405280600081525061076b565b80610c945750610c94816040518060200160405280600081525061076b565b15610ca25750505050610cd4565b610cac838361076b565b8015610cbd5750610cbd828261076b565b15610ccf576001955050505050610ce6565b505050505b80610cde816114ec565b915050610977565b508015610d37577fcde5c32c0a45fd8aa4b65ea8003fc9da9acd5e2c6c24a9fcce6ab79cabbd91226005604051610d1d91906114bd565b60405180910390a16004805460ff19169055600060025550565b610d3f610d92565b15610d8a577fcde5c32c0a45fd8aa4b65ea8003fc9da9acd5e2c6c24a9fcce6ab79cabbd9122604051610d1d906020808252600490820152634472617760e01b604082015260600190565b610569610ddd565b6000805b600354811015610dd557610db6600382815481106102c0576102c06111e7565b15610dc357600091505090565b80610dcd816114ec565b915050610d96565b506001905090565b610ded600580546103b4906111ad565b15610e37576001546040516001600160a01b0390911681527fec121debab367dc6fc2da219ef2d5cf4e97e648e71f3a199511cf3b4d7d593049060200160405180910390a1610e78565b6000546040516001600160a01b0390911681527fec121debab367dc6fc2da219ef2d5cf4e97e648e71f3a199511cf3b4d7d593049060200160405180910390a15b610e88600580546103b4906111ad565b610eab57604051806040016040528060018152602001600b60fb1b815250610ec6565b604051806040016040528060018152602001604f60f81b8152505b600590610ed39082611403565b507ffec15e35ec3d19c0b090bded48bc70fcf6e183fb77f32b0f92b463d5fec3a0d1600560405161090a91906114bd565b828054828255906000526020600020908101928215610f4a579160200282015b82811115610f4a5782518290610f3a9082611403565b5091602001919060010190610f24565b50610f56929150610f5a565b5090565b80821115610f56576000610f6e8282610f77565b50600101610f5a565b508054610f83906111ad565b6000825580601f10610f93575050565b601f01602090049060005260206000209081019061056991905b80821115610f565760008155600101610fad565b600060208284031215610fd357600080fd5b5035919050565b60005b83811015610ff5578181015183820152602001610fdd565b50506000910152565b60008151808452611016816020860160208601610fda565b601f01601f19169290920160200192915050565b60208152600061103d6020830184610ffe565b9392505050565b6000602080830181845280855180835260408601915060408160051b870101925083870160005b8281101561109957603f19888603018452611087858351610ffe565b9450928501929085019060010161106b565b5092979650505050505050565b634e487b7160e01b600052604160045260246000fd5b600082601f8301126110cd57600080fd5b813567ffffffffffffffff808211156110e8576110e86110a6565b604051601f8301601f19908116603f01168101908282118183101715611110576111106110a6565b8160405283815286602085880101111561112957600080fd5b836020870160208301376000602085830101528094505050505092915050565b6000806040838503121561115c57600080fd5b823567ffffffffffffffff8082111561117457600080fd5b611180868387016110bc565b9350602085013591508082111561119657600080fd5b506111a3858286016110bc565b9150509250929050565b600181811c908216806111c157607f821691505b6020821081036111e157634e487b7160e01b600052602260045260246000fd5b50919050565b634e487b7160e01b600052603260045260246000fd5b601f82111561124757600081815260208120601f850160051c810160208610156112245750805b601f850160051c820191505b8181101561124357828155600101611230565b5050505b505050565b818103611257575050565b61126182546111ad565b67ffffffffffffffff811115611279576112796110a6565b61128d8161128784546111ad565b846111fd565b6000601f8211600181146112c157600083156112a95750848201545b600019600385901b1c1916600184901b178455611326565b600085815260209020601f19841690600086815260209020845b838110156112fb57828601548255600195860195909101906020016112db565b50858310156113195781850154600019600388901b60f8161c191681555b50505060018360011b0184555b5050505050565b6000815461133a816111ad565b80855260206001838116801561135757600181146113715761139f565b60ff1985168884015283151560051b88018301955061139f565b866000528260002060005b858110156113975781548a820186015290830190840161137c565b890184019650505b505050505092915050565b6000602080830181845280855480835260408601915060408160051b8701019250866000528360002060005b8281101561109957878503603f190184526113f1858361132d565b945092850192600191820191016113d6565b815167ffffffffffffffff81111561141d5761141d6110a6565b61142b8161128784546111ad565b602080601f83116001811461146057600084156114485750858301515b600019600386901b1c1916600185901b178555611243565b600085815260208120601f198616915b8281101561148f57888601518255948401946001909101908401611470565b50858210156114ad5787850151600019600388901b60f8161c191681555b5050505050600190811b01905550565b60208152600061103d602083018461132d565b600082516114e2818460208701610fda565b9190910192915050565b60006001820161150c57634e487b7160e01b600052601160045260246000fd5b506001019056fea2646970667358221220cd415cf04e7957a0f506b3f6ac9d666813633bb1fbcd725631b33ed089a800f864736f6c63430008130033",
			"opcodes": "PUSH1 0x0 PUSH1 0x2 DUP2 SWAP1 SSTORE PUSH2 0x1A0 DUP2 DUP2 MSTORE PUSH1 0x80 SWAP1 DUP2 MSTORE PUSH2 0x1C0 DUP3 DUP2 MSTORE PUSH1 0xA0 MSTORE PUSH2 0x1E0 DUP3 DUP2 MSTORE PUSH1 0xC0 MSTORE PUSH2 0x200 DUP3 DUP2 MSTORE PUSH1 0xE0 MSTORE PUSH2 0x220 DUP3 DUP2 MSTORE PUSH2 0x100 MSTORE PUSH2 0x240 DUP3 DUP2 MSTORE PUSH2 0x120 MSTORE PUSH2 0x260 DUP3 DUP2 MSTORE PUSH2 0x140 MSTORE PUSH2 0x280 DUP3 DUP2 MSTORE PUSH2 0x160 MSTORE PUSH2 0x2C0 PUSH1 0x40 MSTORE PUSH2 0x2A0 SWAP2 DUP3 MSTORE PUSH2 0x180 SWAP2 SWAP1 SWAP2 MSTORE PUSH3 0x77 SWAP1 PUSH1 0x3 SWAP1 PUSH1 0x9 PUSH3 0x1DC JUMP JUMPDEST POP PUSH1 0x4 DUP1 SLOAD PUSH1 0xFF NOT AND SWAP1 SSTORE PUSH1 0x40 DUP1 MLOAD DUP1 DUP3 ADD SWAP1 SWAP2 MSTORE PUSH1 0x1 DUP2 MSTORE PUSH1 0xB PUSH1 0xFB SHL PUSH1 0x20 DUP3 ADD MSTORE PUSH1 0x5 SWAP1 PUSH3 0xA9 SWAP1 DUP3 PUSH3 0x444 JUMP JUMPDEST POP PUSH1 0x40 DUP1 MLOAD PUSH2 0x160 DUP2 ADD DUP3 MSTORE PUSH1 0x0 PUSH2 0x100 DUP3 ADD DUP2 DUP2 MSTORE PUSH1 0x1 PUSH2 0x120 DUP5 ADD DUP2 SWAP1 MSTORE PUSH1 0x2 PUSH2 0x140 DUP6 ADD DUP2 SWAP1 MSTORE SWAP2 DUP5 MSTORE DUP5 MLOAD PUSH1 0x60 DUP2 DUP2 ADD DUP8 MSTORE PUSH1 0x3 DUP1 DUP4 MSTORE PUSH1 0x4 PUSH1 0x20 DUP5 DUP2 ADD DUP3 SWAP1 MSTORE PUSH1 0x5 DUP6 DUP12 ADD DUP2 SWAP1 MSTORE DUP2 DUP11 ADD SWAP6 SWAP1 SWAP6 MSTORE DUP10 MLOAD DUP1 DUP6 ADD DUP12 MSTORE PUSH1 0x6 DUP1 DUP3 MSTORE PUSH1 0x7 DUP3 DUP5 ADD DUP2 SWAP1 MSTORE PUSH1 0x8 DUP4 DUP15 ADD DUP2 SWAP1 MSTORE DUP13 DUP15 ADD SWAP4 SWAP1 SWAP4 MSTORE DUP13 MLOAD DUP1 DUP9 ADD DUP15 MSTORE DUP12 DUP2 MSTORE DUP1 DUP6 ADD SWAP7 SWAP1 SWAP7 MSTORE DUP6 DUP14 ADD DUP3 SWAP1 MSTORE DUP7 DUP13 ADD SWAP6 SWAP1 SWAP6 MSTORE DUP12 MLOAD DUP1 DUP8 ADD DUP14 MSTORE SWAP8 DUP9 MSTORE DUP8 DUP4 ADD DUP5 SWAP1 MSTORE DUP8 DUP13 ADD SWAP5 SWAP1 SWAP5 MSTORE PUSH1 0x80 DUP11 ADD SWAP7 SWAP1 SWAP7 MSTORE DUP10 MLOAD DUP1 DUP6 ADD DUP12 MSTORE DUP8 DUP2 MSTORE DUP1 DUP3 ADD SWAP6 SWAP1 SWAP6 MSTORE DUP5 DUP11 ADD DUP7 SWAP1 MSTORE PUSH1 0xA0 DUP10 ADD SWAP5 SWAP1 SWAP5 MSTORE DUP9 MLOAD DUP1 DUP5 ADD DUP11 MSTORE SWAP7 DUP8 MSTORE DUP7 DUP5 ADD DUP2 SWAP1 MSTORE DUP7 DUP10 ADD DUP6 SWAP1 MSTORE PUSH1 0xC0 DUP9 ADD SWAP7 SWAP1 SWAP7 MSTORE DUP8 MLOAD SWAP2 DUP3 ADD DUP9 MSTORE SWAP4 DUP2 MSTORE SWAP1 DUP2 ADD SWAP4 SWAP1 SWAP4 MSTORE SWAP4 DUP3 ADD DUP2 SWAP1 MSTORE PUSH1 0xE0 DUP4 ADD SWAP2 SWAP1 SWAP2 MSTORE PUSH3 0x1C7 SWAP3 SWAP1 SWAP2 SWAP1 PUSH3 0x239 JUMP JUMPDEST POP CALLVALUE DUP1 ISZERO PUSH3 0x1D5 JUMPI PUSH1 0x0 DUP1 REVERT JUMPDEST POP PUSH3 0x510 JUMP JUMPDEST DUP3 DUP1 SLOAD DUP3 DUP3 SSTORE SWAP1 PUSH1 0x0 MSTORE PUSH1 0x20 PUSH1 0x0 KECCAK256 SWAP1 DUP2 ADD SWAP3 DUP3 ISZERO PUSH3 0x227 JUMPI SWAP2 PUSH1 0x20 MUL DUP3 ADD JUMPDEST DUP3 DUP2 GT ISZERO PUSH3 0x227 JUMPI DUP3 MLOAD DUP3 SWAP1 PUSH3 0x216 SWAP1 DUP3 PUSH3 0x444 JUMP JUMPDEST POP SWAP2 PUSH1 0x20 ADD SWAP2 SWAP1 PUSH1 0x1 ADD SWAP1 PUSH3 0x1FD JUMP JUMPDEST POP PUSH3 0x235 SWAP3 SWAP2 POP PUSH3 0x293 JUMP JUMPDEST POP SWAP1 JUMP JUMPDEST DUP3 DUP1 SLOAD DUP3 DUP3 SSTORE SWAP1 PUSH1 0x0 MSTORE PUSH1 0x20 PUSH1 0x0 KECCAK256 SWAP1 DUP2 ADD SWAP3 DUP3 ISZERO PUSH3 0x285 JUMPI SWAP2 PUSH1 0x20 MUL DUP3 ADD JUMPDEST DUP3 DUP2 GT ISZERO PUSH3 0x285 JUMPI DUP3 MLOAD PUSH3 0x274 SWAP1 DUP4 SWAP1 PUSH1 0x3 PUSH3 0x2B4 JUMP JUMPDEST POP SWAP2 PUSH1 0x20 ADD SWAP2 SWAP1 PUSH1 0x1 ADD SWAP1 PUSH3 0x25A JUMP JUMPDEST POP PUSH3 0x235 SWAP3 SWAP2 POP PUSH3 0x305 JUMP JUMPDEST DUP1 DUP3 GT ISZERO PUSH3 0x235 JUMPI PUSH1 0x0 PUSH3 0x2AA DUP3 DUP3 PUSH3 0x326 JUMP JUMPDEST POP PUSH1 0x1 ADD PUSH3 0x293 JUMP JUMPDEST DUP3 DUP1 SLOAD DUP3 DUP3 SSTORE SWAP1 PUSH1 0x0 MSTORE PUSH1 0x20 PUSH1 0x0 KECCAK256 SWAP1 DUP2 ADD SWAP3 DUP3 ISZERO PUSH3 0x2F7 JUMPI SWAP2 PUSH1 0x20 MUL DUP3 ADD JUMPDEST DUP3 DUP2 GT ISZERO PUSH3 0x2F7 JUMPI DUP3 MLOAD DUP3 SWAP1 PUSH1 0xFF AND SWAP1 SSTORE SWAP2 PUSH1 0x20 ADD SWAP2 SWAP1 PUSH1 0x1 ADD SWAP1 PUSH3 0x2D5 JUMP JUMPDEST POP PUSH3 0x235 SWAP3 SWAP2 POP PUSH3 0x368 JUMP JUMPDEST DUP1 DUP3 GT ISZERO PUSH3 0x235 JUMPI PUSH1 0x0 PUSH3 0x31C DUP3 DUP3 PUSH3 0x37F JUMP JUMPDEST POP PUSH1 0x1 ADD PUSH3 0x305 JUMP JUMPDEST POP DUP1 SLOAD PUSH3 0x334 SWAP1 PUSH3 0x3B5 JUMP JUMPDEST PUSH1 0x0 DUP3 SSTORE DUP1 PUSH1 0x1F LT PUSH3 0x345 JUMPI POP POP JUMP JUMPDEST PUSH1 0x1F ADD PUSH1 0x20 SWAP1 DIV SWAP1 PUSH1 0x0 MSTORE PUSH1 0x20 PUSH1 0x0 KECCAK256 SWAP1 DUP2 ADD SWAP1 PUSH3 0x365 SWAP2 SWAP1 PUSH3 0x368 JUMP JUMPDEST POP JUMP JUMPDEST JUMPDEST DUP1 DUP3 GT ISZERO PUSH3 0x235 JUMPI PUSH1 0x0 DUP2 SSTORE PUSH1 0x1 ADD PUSH3 0x369 JUMP JUMPDEST POP DUP1 SLOAD PUSH1 0x0 DUP3 SSTORE SWAP1 PUSH1 0x0 MSTORE PUSH1 0x20 PUSH1 0x0 KECCAK256 SWAP1 DUP2 ADD SWAP1 PUSH3 0x365 SWAP2 SWAP1 PUSH3 0x368 JUMP JUMPDEST PUSH4 0x4E487B71 PUSH1 0xE0 SHL PUSH1 0x0 MSTORE PUSH1 0x41 PUSH1 0x4 MSTORE PUSH1 0x24 PUSH1 0x0 REVERT JUMPDEST PUSH1 0x1 DUP2 DUP2 SHR SWAP1 DUP3 AND DUP1 PUSH3 0x3CA JUMPI PUSH1 0x7F DUP3 AND SWAP2 POP JUMPDEST PUSH1 0x20 DUP3 LT DUP2 SUB PUSH3 0x3EB JUMPI PUSH4 0x4E487B71 PUSH1 0xE0 SHL PUSH1 0x0 MSTORE PUSH1 0x22 PUSH1 0x4 MSTORE PUSH1 0x24 PUSH1 0x0 REVERT JUMPDEST POP SWAP2 SWAP1 POP JUMP JUMPDEST PUSH1 0x1F DUP3 GT ISZERO PUSH3 0x43F JUMPI PUSH1 0x0 DUP2 DUP2 MSTORE PUSH1 0x20 DUP2 KECCAK256 PUSH1 0x1F DUP6 ADD PUSH1 0x5 SHR DUP2 ADD PUSH1 0x20 DUP7 LT ISZERO PUSH3 0x41A JUMPI POP DUP1 JUMPDEST PUSH1 0x1F DUP6 ADD PUSH1 0x5 SHR DUP3 ADD SWAP2 POP JUMPDEST DUP2 DUP2 LT ISZERO PUSH3 0x43B JUMPI DUP3 DUP2 SSTORE PUSH1 0x1 ADD PUSH3 0x426 JUMP JUMPDEST POP POP POP JUMPDEST POP POP POP JUMP JUMPDEST DUP2 MLOAD PUSH1 0x1 PUSH1 0x1 PUSH1 0x40 SHL SUB DUP2 GT ISZERO PUSH3 0x460 JUMPI PUSH3 0x460 PUSH3 0x39F JUMP JUMPDEST PUSH3 0x478 DUP2 PUSH3 0x471 DUP5 SLOAD PUSH3 0x3B5 JUMP JUMPDEST DUP5 PUSH3 0x3F1 JUMP JUMPDEST PUSH1 0x20 DUP1 PUSH1 0x1F DUP4 GT PUSH1 0x1 DUP2 EQ PUSH3 0x4B0 JUMPI PUSH1 0x0 DUP5 ISZERO PUSH3 0x497 JUMPI POP DUP6 DUP4 ADD MLOAD JUMPDEST PUSH1 0x0 NOT PUSH1 0x3 DUP7 SWAP1 SHL SHR NOT AND PUSH1 0x1 DUP6 SWAP1 SHL OR DUP6 SSTORE PUSH3 0x43B JUMP JUMPDEST PUSH1 0x0 DUP6 DUP2 MSTORE PUSH1 0x20 DUP2 KECCAK256 PUSH1 0x1F NOT DUP7 AND SWAP2 JUMPDEST DUP3 DUP2 LT ISZERO PUSH3 0x4E1 JUMPI DUP9 DUP7 ADD MLOAD DUP3 SSTORE SWAP5 DUP5 ADD SWAP5 PUSH1 0x1 SWAP1 SWAP2 ADD SWAP1 DUP5 ADD PUSH3 0x4C0 JUMP JUMPDEST POP DUP6 DUP3 LT ISZERO PUSH3 0x500 JUMPI DUP8 DUP6 ADD MLOAD PUSH1 0x0 NOT PUSH1 0x3 DUP9 SWAP1 SHL PUSH1 0xF8 AND SHR NOT AND DUP2 SSTORE JUMPDEST POP POP POP POP POP PUSH1 0x1 SWAP1 DUP2 SHL ADD SWAP1 SSTORE POP JUMP JUMPDEST PUSH2 0x1549 DUP1 PUSH3 0x520 PUSH1 0x0 CODECOPY PUSH1 0x0 RETURN INVALID PUSH1 0x80 PUSH1 0x40 MSTORE CALLVALUE DUP1 ISZERO PUSH2 0x10 JUMPI PUSH1 0x0 DUP1 REVERT JUMPDEST POP PUSH1 0x4 CALLDATASIZE LT PUSH2 0xA9 JUMPI PUSH1 0x0 CALLDATALOAD PUSH1 0xE0 SHR DUP1 PUSH4 0x55A5C301 GT PUSH2 0x71 JUMPI DUP1 PUSH4 0x55A5C301 EQ PUSH2 0x124 JUMPI DUP1 PUSH4 0x63F4150E EQ PUSH2 0x14F JUMPI DUP1 PUSH4 0x7D39620B EQ PUSH2 0x164 JUMPI DUP1 PUSH4 0x8D25AF04 EQ PUSH2 0x177 JUMPI DUP1 PUSH4 0xBED34BBA EQ PUSH2 0x17F JUMPI DUP1 PUSH4 0xD4F77B1C EQ PUSH2 0x192 JUMPI PUSH1 0x0 DUP1 REVERT JUMPDEST DUP1 PUSH4 0xF15F4C0 EQ PUSH2 0xAE JUMPI DUP1 PUSH4 0x302BCC57 EQ PUSH2 0xD0 JUMPI DUP1 PUSH4 0x409E2205 EQ PUSH2 0xE7 JUMPI DUP1 PUSH4 0x4404A438 EQ PUSH2 0x107 JUMPI DUP1 PUSH4 0x52FC4855 EQ PUSH2 0x10F JUMPI JUMPDEST PUSH1 0x0 DUP1 REVERT JUMPDEST PUSH1 0x4 SLOAD PUSH2 0xBB SWAP1 PUSH1 0xFF AND DUP2 JUMP JUMPDEST PUSH1 0x40 MLOAD SWAP1 ISZERO ISZERO DUP2 MSTORE PUSH1 0x20 ADD JUMPDEST PUSH1 0x40 MLOAD DUP1 SWAP2 SUB SWAP1 RETURN JUMPDEST PUSH2 0xD9 PUSH1 0x2 SLOAD DUP2 JUMP JUMPDEST PUSH1 0x40 MLOAD SWAP1 DUP2 MSTORE PUSH1 0x20 ADD PUSH2 0xC7 JUMP JUMPDEST PUSH2 0xFA PUSH2 0xF5 CALLDATASIZE PUSH1 0x4 PUSH2 0xFC1 JUMP JUMPDEST PUSH2 0x19A JUMP JUMPDEST PUSH1 0x40 MLOAD PUSH2 0xC7 SWAP2 SWAP1 PUSH2 0x102A JUMP JUMPDEST PUSH2 0xFA PUSH2 0x246 JUMP JUMPDEST PUSH2 0x122 PUSH2 0x11D CALLDATASIZE PUSH1 0x4 PUSH2 0xFC1 JUMP JUMPDEST PUSH2 0x253 JUMP JUMPDEST STOP JUMPDEST PUSH1 0x0 SLOAD PUSH2 0x137 SWAP1 PUSH1 0x1 PUSH1 0x1 PUSH1 0xA0 SHL SUB AND DUP2 JUMP JUMPDEST PUSH1 0x40 MLOAD PUSH1 0x1 PUSH1 0x1 PUSH1 0xA0 SHL SUB SWAP1 SWAP2 AND DUP2 MSTORE PUSH1 0x20 ADD PUSH2 0xC7 JUMP JUMPDEST PUSH2 0x157 PUSH2 0x56C JUMP JUMPDEST PUSH1 0x40 MLOAD PUSH2 0xC7 SWAP2 SWAP1 PUSH2 0x1044 JUMP JUMPDEST PUSH1 0x1 SLOAD PUSH2 0x137 SWAP1 PUSH1 0x1 PUSH1 0x1 PUSH1 0xA0 SHL SUB AND DUP2 JUMP JUMPDEST PUSH2 0x122 PUSH2 0x645 JUMP JUMPDEST PUSH2 0xBB PUSH2 0x18D CALLDATASIZE PUSH1 0x4 PUSH2 0x1149 JUMP JUMPDEST PUSH2 0x76B JUMP JUMPDEST PUSH2 0x122 PUSH2 0x7C4 JUMP JUMPDEST PUSH1 0x3 DUP2 DUP2 SLOAD DUP2 LT PUSH2 0x1AA JUMPI PUSH1 0x0 DUP1 REVERT JUMPDEST SWAP1 PUSH1 0x0 MSTORE PUSH1 0x20 PUSH1 0x0 KECCAK256 ADD PUSH1 0x0 SWAP2 POP SWAP1 POP DUP1 SLOAD PUSH2 0x1C5 SWAP1 PUSH2 0x11AD JUMP JUMPDEST DUP1 PUSH1 0x1F ADD PUSH1 0x20 DUP1 SWAP2 DIV MUL PUSH1 0x20 ADD PUSH1 0x40 MLOAD SWAP1 DUP2 ADD PUSH1 0x40 MSTORE DUP1 SWAP3 SWAP2 SWAP1 DUP2 DUP2 MSTORE PUSH1 0x20 ADD DUP3 DUP1 SLOAD PUSH2 0x1F1 SWAP1 PUSH2 0x11AD JUMP JUMPDEST DUP1 ISZERO PUSH2 0x23E JUMPI DUP1 PUSH1 0x1F LT PUSH2 0x213 JUMPI PUSH2 0x100 DUP1 DUP4 SLOAD DIV MUL DUP4 MSTORE SWAP2 PUSH1 0x20 ADD SWAP2 PUSH2 0x23E JUMP JUMPDEST DUP3 ADD SWAP2 SWAP1 PUSH1 0x0 MSTORE PUSH1 0x20 PUSH1 0x0 KECCAK256 SWAP1 JUMPDEST DUP2 SLOAD DUP2 MSTORE SWAP1 PUSH1 0x1 ADD SWAP1 PUSH1 0x20 ADD DUP1 DUP4 GT PUSH2 0x221 JUMPI DUP3 SWAP1 SUB PUSH1 0x1F AND DUP3 ADD SWAP2 JUMPDEST POP POP POP POP POP DUP2 JUMP JUMPDEST PUSH1 0x5 DUP1 SLOAD PUSH2 0x1C5 SWAP1 PUSH2 0x11AD JUMP JUMPDEST PUSH1 0x4 SLOAD PUSH1 0xFF AND PUSH2 0x2AA JUMPI PUSH1 0x40 MLOAD PUSH3 0x461BCD PUSH1 0xE5 SHL DUP2 MSTORE PUSH1 0x20 PUSH1 0x4 DUP3 ADD MSTORE PUSH1 0x1C PUSH1 0x24 DUP3 ADD MSTORE PUSH32 0x5468652067616D65207374696C6C206E6F742073746172742079657400000000 PUSH1 0x44 DUP3 ADD MSTORE PUSH1 0x64 ADD JUMPDEST PUSH1 0x40 MLOAD DUP1 SWAP2 SUB SWAP1 REVERT JUMPDEST PUSH2 0x368 PUSH1 0x3 DUP3 DUP2 SLOAD DUP2 LT PUSH2 0x2C0 JUMPI PUSH2 0x2C0 PUSH2 0x11E7 JUMP JUMPDEST SWAP1 PUSH1 0x0 MSTORE PUSH1 0x20 PUSH1 0x0 KECCAK256 ADD DUP1 SLOAD PUSH2 0x2D5 SWAP1 PUSH2 0x11AD JUMP JUMPDEST DUP1 PUSH1 0x1F ADD PUSH1 0x20 DUP1 SWAP2 DIV MUL PUSH1 0x20 ADD PUSH1 0x40 MLOAD SWAP1 DUP2 ADD PUSH1 0x40 MSTORE DUP1 SWAP3 SWAP2 SWAP1 DUP2 DUP2 MSTORE PUSH1 0x20 ADD DUP3 DUP1 SLOAD PUSH2 0x301 SWAP1 PUSH2 0x11AD JUMP JUMPDEST DUP1 ISZERO PUSH2 0x34E JUMPI DUP1 PUSH1 0x1F LT PUSH2 0x323 JUMPI PUSH2 0x100 DUP1 DUP4 SLOAD DIV MUL DUP4 MSTORE SWAP2 PUSH1 0x20 ADD SWAP2 PUSH2 0x34E JUMP JUMPDEST DUP3 ADD SWAP2 SWAP1 PUSH1 0x0 MSTORE PUSH1 0x20 PUSH1 0x0 KECCAK256 SWAP1 JUMPDEST DUP2 SLOAD DUP2 MSTORE SWAP1 PUSH1 0x1 ADD SWAP1 PUSH1 0x20 ADD DUP1 DUP4 GT PUSH2 0x331 JUMPI DUP3 SWAP1 SUB PUSH1 0x1F AND DUP3 ADD SWAP2 JUMPDEST POP POP POP POP POP PUSH1 0x40 MLOAD DUP1 PUSH1 0x20 ADD PUSH1 0x40 MSTORE DUP1 PUSH1 0x0 DUP2 MSTORE POP PUSH2 0x76B JUMP JUMPDEST PUSH2 0x3A4 JUMPI PUSH1 0x40 MLOAD PUSH3 0x461BCD PUSH1 0xE5 SHL DUP2 MSTORE PUSH1 0x20 PUSH1 0x4 DUP3 ADD MSTORE PUSH1 0xD PUSH1 0x24 DUP3 ADD MSTORE PUSH13 0x125B9D985B1A59081A5B9C1D5D PUSH1 0x9A SHL PUSH1 0x44 DUP3 ADD MSTORE PUSH1 0x64 ADD PUSH2 0x2A1 JUMP JUMPDEST PUSH2 0x451 PUSH1 0x5 DUP1 SLOAD PUSH2 0x3B4 SWAP1 PUSH2 0x11AD JUMP JUMPDEST DUP1 PUSH1 0x1F ADD PUSH1 0x20 DUP1 SWAP2 DIV MUL PUSH1 0x20 ADD PUSH1 0x40 MLOAD SWAP1 DUP2 ADD PUSH1 0x40 MSTORE DUP1 SWAP3 SWAP2 SWAP1 DUP2 DUP2 MSTORE PUSH1 0x20 ADD DUP3 DUP1 SLOAD PUSH2 0x3E0 SWAP1 PUSH2 0x11AD JUMP JUMPDEST DUP1 ISZERO PUSH2 0x42D JUMPI DUP1 PUSH1 0x1F LT PUSH2 0x402 JUMPI PUSH2 0x100 DUP1 DUP4 SLOAD DIV MUL DUP4 MSTORE SWAP2 PUSH1 0x20 ADD SWAP2 PUSH2 0x42D JUMP JUMPDEST DUP3 ADD SWAP2 SWAP1 PUSH1 0x0 MSTORE PUSH1 0x20 PUSH1 0x0 KECCAK256 SWAP1 JUMPDEST DUP2 SLOAD DUP2 MSTORE SWAP1 PUSH1 0x1 ADD SWAP1 PUSH1 0x20 ADD DUP1 DUP4 GT PUSH2 0x410 JUMPI DUP3 SWAP1 SUB PUSH1 0x1F AND DUP3 ADD SWAP2 JUMPDEST POP POP POP POP POP PUSH1 0x40 MLOAD DUP1 PUSH1 0x40 ADD PUSH1 0x40 MSTORE DUP1 PUSH1 0x1 DUP2 MSTORE PUSH1 0x20 ADD PUSH1 0xB PUSH1 0xFB SHL DUP2 MSTORE POP PUSH2 0x76B JUMP JUMPDEST ISZERO PUSH2 0x4AC JUMPI PUSH1 0x0 SLOAD PUSH1 0x1 PUSH1 0x1 PUSH1 0xA0 SHL SUB AND CALLER EQ PUSH2 0x4A7 JUMPI PUSH1 0x40 MLOAD PUSH3 0x461BCD PUSH1 0xE5 SHL DUP2 MSTORE PUSH1 0x20 PUSH1 0x4 DUP3 ADD MSTORE PUSH1 0x14 PUSH1 0x24 DUP3 ADD MSTORE PUSH20 0x596F7520617265206E6F7420706C617965722031 PUSH1 0x60 SHL PUSH1 0x44 DUP3 ADD MSTORE PUSH1 0x64 ADD PUSH2 0x2A1 JUMP JUMPDEST PUSH2 0x4FD JUMP JUMPDEST PUSH1 0x1 SLOAD PUSH1 0x1 PUSH1 0x1 PUSH1 0xA0 SHL SUB AND CALLER EQ PUSH2 0x4FD JUMPI PUSH1 0x40 MLOAD PUSH3 0x461BCD PUSH1 0xE5 SHL DUP2 MSTORE PUSH1 0x20 PUSH1 0x4 DUP3 ADD MSTORE PUSH1 0x14 PUSH1 0x24 DUP3 ADD MSTORE PUSH20 0x2CB7BA9030B932903737BA10383630BCB2B91019 PUSH1 0x61 SHL PUSH1 0x44 DUP3 ADD MSTORE PUSH1 0x64 ADD PUSH2 0x2A1 JUMP JUMPDEST PUSH1 0x5 PUSH1 0x3 DUP3 DUP2 SLOAD DUP2 LT PUSH2 0x512 JUMPI PUSH2 0x512 PUSH2 0x11E7 JUMP JUMPDEST SWAP1 PUSH1 0x0 MSTORE PUSH1 0x20 PUSH1 0x0 KECCAK256 ADD SWAP1 DUP2 PUSH2 0x528 SWAP2 SWAP1 PUSH2 0x124C JUMP JUMPDEST POP PUSH32 0xD77F94CC29111F7DBD8555E9587FC989A0CF9FA417821F33E2F02913794BEBB0 PUSH1 0x3 PUSH1 0x40 MLOAD PUSH2 0x559 SWAP2 SWAP1 PUSH2 0x13AA JUMP JUMPDEST PUSH1 0x40 MLOAD DUP1 SWAP2 SUB SWAP1 LOG1 PUSH2 0x569 PUSH2 0x973 JUMP JUMPDEST POP JUMP JUMPDEST PUSH1 0x60 PUSH1 0x3 DUP1 SLOAD DUP1 PUSH1 0x20 MUL PUSH1 0x20 ADD PUSH1 0x40 MLOAD SWAP1 DUP2 ADD PUSH1 0x40 MSTORE DUP1 SWAP3 SWAP2 SWAP1 DUP2 DUP2 MSTORE PUSH1 0x20 ADD PUSH1 0x0 SWAP1 JUMPDEST DUP3 DUP3 LT ISZERO PUSH2 0x63C JUMPI DUP4 DUP3 SWAP1 PUSH1 0x0 MSTORE PUSH1 0x20 PUSH1 0x0 KECCAK256 ADD DUP1 SLOAD PUSH2 0x5AF SWAP1 PUSH2 0x11AD JUMP JUMPDEST DUP1 PUSH1 0x1F ADD PUSH1 0x20 DUP1 SWAP2 DIV MUL PUSH1 0x20 ADD PUSH1 0x40 MLOAD SWAP1 DUP2 ADD PUSH1 0x40 MSTORE DUP1 SWAP3 SWAP2 SWAP1 DUP2 DUP2 MSTORE PUSH1 0x20 ADD DUP3 DUP1 SLOAD PUSH2 0x5DB SWAP1 PUSH2 0x11AD JUMP JUMPDEST DUP1 ISZERO PUSH2 0x628 JUMPI DUP1 PUSH1 0x1F LT PUSH2 0x5FD JUMPI PUSH2 0x100 DUP1 DUP4 SLOAD DIV MUL DUP4 MSTORE SWAP2 PUSH1 0x20 ADD SWAP2 PUSH2 0x628 JUMP JUMPDEST DUP3 ADD SWAP2 SWAP1 PUSH1 0x0 MSTORE PUSH1 0x20 PUSH1 0x0 KECCAK256 SWAP1 JUMPDEST DUP2 SLOAD DUP2 MSTORE SWAP1 PUSH1 0x1 ADD SWAP1 PUSH1 0x20 ADD DUP1 DUP4 GT PUSH2 0x60B JUMPI DUP3 SWAP1 SUB PUSH1 0x1F AND DUP3 ADD SWAP2 JUMPDEST POP POP POP POP POP DUP2 MSTORE PUSH1 0x20 ADD SWAP1 PUSH1 0x1 ADD SWAP1 PUSH2 0x590 JUMP JUMPDEST POP POP POP POP SWAP1 POP SWAP1 JUMP JUMPDEST PUSH1 0x40 DUP1 MLOAD DUP1 DUP3 ADD SWAP1 SWAP2 MSTORE PUSH1 0x1 DUP2 MSTORE PUSH1 0xB PUSH1 0xFB SHL PUSH1 0x20 DUP3 ADD MSTORE PUSH1 0x5 SWAP1 PUSH2 0x66A SWAP1 DUP3 PUSH2 0x1403 JUMP JUMPDEST POP PUSH1 0x40 DUP1 MLOAD PUSH2 0x140 DUP2 ADD DUP3 MSTORE PUSH1 0x0 PUSH2 0x120 DUP3 ADD DUP2 DUP2 MSTORE DUP3 MSTORE DUP3 MLOAD PUSH1 0x20 DUP2 DUP2 ADD DUP6 MSTORE DUP3 DUP3 MSTORE DUP1 DUP5 ADD SWAP2 SWAP1 SWAP2 MSTORE DUP4 MLOAD DUP1 DUP3 ADD DUP6 MSTORE DUP3 DUP2 MSTORE DUP4 DUP6 ADD MSTORE DUP4 MLOAD DUP1 DUP3 ADD DUP6 MSTORE DUP3 DUP2 MSTORE PUSH1 0x60 DUP5 ADD MSTORE DUP4 MLOAD DUP1 DUP3 ADD DUP6 MSTORE DUP3 DUP2 MSTORE PUSH1 0x80 DUP5 ADD MSTORE DUP4 MLOAD DUP1 DUP3 ADD DUP6 MSTORE DUP3 DUP2 MSTORE PUSH1 0xA0 DUP5 ADD MSTORE DUP4 MLOAD DUP1 DUP3 ADD DUP6 MSTORE DUP3 DUP2 MSTORE PUSH1 0xC0 DUP5 ADD MSTORE DUP4 MLOAD DUP1 DUP3 ADD DUP6 MSTORE DUP3 DUP2 MSTORE PUSH1 0xE0 DUP5 ADD MSTORE DUP4 MLOAD SWAP1 DUP2 ADD SWAP1 SWAP4 MSTORE DUP3 MSTORE PUSH2 0x100 DUP2 ADD SWAP2 SWAP1 SWAP2 MSTORE PUSH2 0x70F SWAP1 PUSH1 0x3 SWAP1 PUSH1 0x9 PUSH2 0xF04 JUMP JUMPDEST POP PUSH32 0x12028463284AA79A2CEC858FF157451112ECFF237CDA43248EBB797C814F661C PUSH1 0x5 PUSH1 0x40 MLOAD PUSH2 0x740 SWAP2 SWAP1 PUSH2 0x14BD JUMP JUMPDEST PUSH1 0x40 MLOAD DUP1 SWAP2 SUB SWAP1 LOG1 PUSH1 0x0 PUSH1 0x2 DUP2 SWAP1 SSTORE DUP1 SLOAD PUSH1 0x1 PUSH1 0x1 PUSH1 0xA0 SHL SUB NOT SWAP1 DUP2 AND SWAP1 SWAP2 SSTORE PUSH1 0x1 DUP1 SLOAD SWAP1 SWAP2 AND SWAP1 SSTORE JUMP JUMPDEST PUSH1 0x0 DUP2 PUSH1 0x40 MLOAD PUSH1 0x20 ADD PUSH2 0x77E SWAP2 SWAP1 PUSH2 0x14D0 JUMP JUMPDEST PUSH1 0x40 MLOAD PUSH1 0x20 DUP2 DUP4 SUB SUB DUP2 MSTORE SWAP1 PUSH1 0x40 MSTORE DUP1 MLOAD SWAP1 PUSH1 0x20 ADD KECCAK256 DUP4 PUSH1 0x40 MLOAD PUSH1 0x20 ADD PUSH2 0x7A5 SWAP2 SWAP1 PUSH2 0x14D0 JUMP JUMPDEST PUSH1 0x40 MLOAD PUSH1 0x20 DUP2 DUP4 SUB SUB DUP2 MSTORE SWAP1 PUSH1 0x40 MSTORE DUP1 MLOAD SWAP1 PUSH1 0x20 ADD KECCAK256 EQ SWAP1 POP SWAP3 SWAP2 POP POP JUMP JUMPDEST PUSH1 0x2 SLOAD PUSH1 0x0 SUB PUSH2 0x7FD JUMPI PUSH2 0x7D6 PUSH2 0x645 JUMP JUMPDEST PUSH1 0x0 DUP1 SLOAD PUSH1 0x1 PUSH1 0x1 PUSH1 0xA0 SHL SUB NOT AND CALLER OR DUP2 SSTORE PUSH1 0x2 DUP1 SLOAD SWAP2 PUSH2 0x7F6 DUP4 PUSH2 0x14EC JUMP JUMPDEST SWAP2 SWAP1 POP SSTORE POP JUMP JUMPDEST PUSH1 0x2 SLOAD PUSH1 0x1 SUB PUSH2 0x914 JUMPI PUSH1 0x0 SLOAD PUSH1 0x1 PUSH1 0x1 PUSH1 0xA0 SHL SUB AND CALLER SUB PUSH2 0x86D JUMPI PUSH1 0x40 MLOAD PUSH3 0x461BCD PUSH1 0xE5 SHL DUP2 MSTORE PUSH1 0x20 PUSH1 0x4 DUP3 ADD MSTORE PUSH1 0x24 DUP1 DUP3 ADD MSTORE PUSH32 0x4572726F723A20596F752063616E6E6F7420706C6179207769746820796F7572 PUSH1 0x44 DUP3 ADD MSTORE PUSH4 0x39B2B633 PUSH1 0xE1 SHL PUSH1 0x64 DUP3 ADD MSTORE PUSH1 0x84 ADD PUSH2 0x2A1 JUMP JUMPDEST PUSH1 0x1 DUP1 SLOAD PUSH1 0x1 PUSH1 0x1 PUSH1 0xA0 SHL SUB NOT AND CALLER OR SWAP1 SSTORE PUSH1 0x2 DUP1 SLOAD SWAP1 PUSH1 0x0 PUSH2 0x88F DUP4 PUSH2 0x14EC JUMP JUMPDEST SWAP1 SWAP2 SSTORE POP POP PUSH1 0x4 DUP1 SLOAD PUSH1 0xFF NOT AND PUSH1 0x1 SWAP1 DUP2 OR SWAP1 SWAP2 SSTORE PUSH1 0x0 SLOAD SWAP1 SLOAD PUSH1 0x40 DUP1 MLOAD PUSH1 0x60 DUP1 DUP3 MSTORE PUSH1 0xB SWAP1 DUP3 ADD MSTORE PUSH11 0x53746172742067616D6521 PUSH1 0xA8 SHL PUSH1 0x80 DUP3 ADD MSTORE PUSH1 0x1 PUSH1 0x1 PUSH1 0xA0 SHL SUB SWAP4 DUP5 AND PUSH1 0x20 DUP3 ADD MSTORE SWAP3 SWAP1 SWAP2 AND SWAP1 DUP3 ADD MSTORE PUSH32 0xE731305B65099C3B743324657B0EF6CC0638875C5469A8E5BDE1765300C0B9B2 SWAP1 PUSH1 0xA0 ADD JUMPDEST PUSH1 0x40 MLOAD DUP1 SWAP2 SUB SWAP1 LOG1 JUMP JUMPDEST PUSH32 0xE955CCAF7888EFCAF9248F6FE09C3CE81CC6C6B8D5049B7E597604B9FDA4F5A0 PUSH1 0x40 MLOAD PUSH2 0x90A SWAP1 PUSH1 0x20 DUP1 DUP3 MSTORE PUSH1 0x1C SWAP1 DUP3 ADD MSTORE PUSH32 0x4E6F772071756575652069732066756C6C2C20747279206C6174657200000000 PUSH1 0x40 DUP3 ADD MSTORE PUSH1 0x60 ADD SWAP1 JUMP JUMPDEST PUSH1 0x0 DUP1 JUMPDEST PUSH1 0x6 SLOAD DUP2 LT ISZERO PUSH2 0xCE6 JUMPI PUSH1 0x0 PUSH1 0x6 DUP3 DUP2 SLOAD DUP2 LT PUSH2 0x996 JUMPI PUSH2 0x996 PUSH2 0x11E7 JUMP JUMPDEST SWAP1 PUSH1 0x0 MSTORE PUSH1 0x20 PUSH1 0x0 KECCAK256 ADD DUP1 SLOAD DUP1 PUSH1 0x20 MUL PUSH1 0x20 ADD PUSH1 0x40 MLOAD SWAP1 DUP2 ADD PUSH1 0x40 MSTORE DUP1 SWAP3 SWAP2 SWAP1 DUP2 DUP2 MSTORE PUSH1 0x20 ADD DUP3 DUP1 SLOAD DUP1 ISZERO PUSH2 0x9EA JUMPI PUSH1 0x20 MUL DUP3 ADD SWAP2 SWAP1 PUSH1 0x0 MSTORE PUSH1 0x20 PUSH1 0x0 KECCAK256 SWAP1 JUMPDEST DUP2 SLOAD DUP2 MSTORE PUSH1 0x20 ADD SWAP1 PUSH1 0x1 ADD SWAP1 DUP1 DUP4 GT PUSH2 0x9D6 JUMPI JUMPDEST POP POP POP POP POP SWAP1 POP PUSH1 0x0 PUSH1 0x3 DUP3 PUSH1 0x0 DUP2 MLOAD DUP2 LT PUSH2 0xA08 JUMPI PUSH2 0xA08 PUSH2 0x11E7 JUMP JUMPDEST PUSH1 0x20 MUL PUSH1 0x20 ADD ADD MLOAD DUP2 SLOAD DUP2 LT PUSH2 0xA20 JUMPI PUSH2 0xA20 PUSH2 0x11E7 JUMP JUMPDEST SWAP1 PUSH1 0x0 MSTORE PUSH1 0x20 PUSH1 0x0 KECCAK256 ADD DUP1 SLOAD PUSH2 0xA35 SWAP1 PUSH2 0x11AD JUMP JUMPDEST DUP1 PUSH1 0x1F ADD PUSH1 0x20 DUP1 SWAP2 DIV MUL PUSH1 0x20 ADD PUSH1 0x40 MLOAD SWAP1 DUP2 ADD PUSH1 0x40 MSTORE DUP1 SWAP3 SWAP2 SWAP1 DUP2 DUP2 MSTORE PUSH1 0x20 ADD DUP3 DUP1 SLOAD PUSH2 0xA61 SWAP1 PUSH2 0x11AD JUMP JUMPDEST DUP1 ISZERO PUSH2 0xAAE JUMPI DUP1 PUSH1 0x1F LT PUSH2 0xA83 JUMPI PUSH2 0x100 DUP1 DUP4 SLOAD DIV MUL DUP4 MSTORE SWAP2 PUSH1 0x20 ADD SWAP2 PUSH2 0xAAE JUMP JUMPDEST DUP3 ADD SWAP2 SWAP1 PUSH1 0x0 MSTORE PUSH1 0x20 PUSH1 0x0 KECCAK256 SWAP1 JUMPDEST DUP2 SLOAD DUP2 MSTORE SWAP1 PUSH1 0x1 ADD SWAP1 PUSH1 0x20 ADD DUP1 DUP4 GT PUSH2 0xA91 JUMPI DUP3 SWAP1 SUB PUSH1 0x1F AND DUP3 ADD SWAP2 JUMPDEST POP POP POP POP POP SWAP1 POP PUSH1 0x0 PUSH1 0x3 DUP4 PUSH1 0x1 DUP2 MLOAD DUP2 LT PUSH2 0xACC JUMPI PUSH2 0xACC PUSH2 0x11E7 JUMP JUMPDEST PUSH1 0x20 MUL PUSH1 0x20 ADD ADD MLOAD DUP2 SLOAD DUP2 LT PUSH2 0xAE4 JUMPI PUSH2 0xAE4 PUSH2 0x11E7 JUMP JUMPDEST SWAP1 PUSH1 0x0 MSTORE PUSH1 0x20 PUSH1 0x0 KECCAK256 ADD DUP1 SLOAD PUSH2 0xAF9 SWAP1 PUSH2 0x11AD JUMP JUMPDEST DUP1 PUSH1 0x1F ADD PUSH1 0x20 DUP1 SWAP2 DIV MUL PUSH1 0x20 ADD PUSH1 0x40 MLOAD SWAP1 DUP2 ADD PUSH1 0x40 MSTORE DUP1 SWAP3 SWAP2 SWAP1 DUP2 DUP2 MSTORE PUSH1 0x20 ADD DUP3 DUP1 SLOAD PUSH2 0xB25 SWAP1 PUSH2 0x11AD JUMP JUMPDEST DUP1 ISZERO PUSH2 0xB72 JUMPI DUP1 PUSH1 0x1F LT PUSH2 0xB47 JUMPI PUSH2 0x100 DUP1 DUP4 SLOAD DIV MUL DUP4 MSTORE SWAP2 PUSH1 0x20 ADD SWAP2 PUSH2 0xB72 JUMP JUMPDEST DUP3 ADD SWAP2 SWAP1 PUSH1 0x0 MSTORE PUSH1 0x20 PUSH1 0x0 KECCAK256 SWAP1 JUMPDEST DUP2 SLOAD DUP2 MSTORE SWAP1 PUSH1 0x1 ADD SWAP1 PUSH1 0x20 ADD DUP1 DUP4 GT PUSH2 0xB55 JUMPI DUP3 SWAP1 SUB PUSH1 0x1F AND DUP3 ADD SWAP2 JUMPDEST POP POP POP POP POP SWAP1 POP PUSH1 0x0 PUSH1 0x3 DUP5 PUSH1 0x2 DUP2 MLOAD DUP2 LT PUSH2 0xB90 JUMPI PUSH2 0xB90 PUSH2 0x11E7 JUMP JUMPDEST PUSH1 0x20 MUL PUSH1 0x20 ADD ADD MLOAD DUP2 SLOAD DUP2 LT PUSH2 0xBA8 JUMPI PUSH2 0xBA8 PUSH2 0x11E7 JUMP JUMPDEST SWAP1 PUSH1 0x0 MSTORE PUSH1 0x20 PUSH1 0x0 KECCAK256 ADD DUP1 SLOAD PUSH2 0xBBD SWAP1 PUSH2 0x11AD JUMP JUMPDEST DUP1 PUSH1 0x1F ADD PUSH1 0x20 DUP1 SWAP2 DIV MUL PUSH1 0x20 ADD PUSH1 0x40 MLOAD SWAP1 DUP2 ADD PUSH1 0x40 MSTORE DUP1 SWAP3 SWAP2 SWAP1 DUP2 DUP2 MSTORE PUSH1 0x20 ADD DUP3 DUP1 SLOAD PUSH2 0xBE9 SWAP1 PUSH2 0x11AD JUMP JUMPDEST DUP1 ISZERO PUSH2 0xC36 JUMPI DUP1 PUSH1 0x1F LT PUSH2 0xC0B JUMPI PUSH2 0x100 DUP1 DUP4 SLOAD DIV MUL DUP4 MSTORE SWAP2 PUSH1 0x20 ADD SWAP2 PUSH2 0xC36 JUMP JUMPDEST DUP3 ADD SWAP2 SWAP1 PUSH1 0x0 MSTORE PUSH1 0x20 PUSH1 0x0 KECCAK256 SWAP1 JUMPDEST DUP2 SLOAD DUP2 MSTORE SWAP1 PUSH1 0x1 ADD SWAP1 PUSH1 0x20 ADD DUP1 DUP4 GT PUSH2 0xC19 JUMPI DUP3 SWAP1 SUB PUSH1 0x1F AND DUP3 ADD SWAP2 JUMPDEST POP POP POP POP POP SWAP1 POP PUSH2 0xC56 DUP4 PUSH1 0x40 MLOAD DUP1 PUSH1 0x20 ADD PUSH1 0x40 MSTORE DUP1 PUSH1 0x0 DUP2 MSTORE POP PUSH2 0x76B JUMP JUMPDEST DUP1 PUSH2 0xC75 JUMPI POP PUSH2 0xC75 DUP3 PUSH1 0x40 MLOAD DUP1 PUSH1 0x20 ADD PUSH1 0x40 MSTORE DUP1 PUSH1 0x0 DUP2 MSTORE POP PUSH2 0x76B JUMP JUMPDEST DUP1 PUSH2 0xC94 JUMPI POP PUSH2 0xC94 DUP2 PUSH1 0x40 MLOAD DUP1 PUSH1 0x20 ADD PUSH1 0x40 MSTORE DUP1 PUSH1 0x0 DUP2 MSTORE POP PUSH2 0x76B JUMP JUMPDEST ISZERO PUSH2 0xCA2 JUMPI POP POP POP POP PUSH2 0xCD4 JUMP JUMPDEST PUSH2 0xCAC DUP4 DUP4 PUSH2 0x76B JUMP JUMPDEST DUP1 ISZERO PUSH2 0xCBD JUMPI POP PUSH2 0xCBD DUP3 DUP3 PUSH2 0x76B JUMP JUMPDEST ISZERO PUSH2 0xCCF JUMPI PUSH1 0x1 SWAP6 POP POP POP POP POP PUSH2 0xCE6 JUMP JUMPDEST POP POP POP POP JUMPDEST DUP1 PUSH2 0xCDE DUP2 PUSH2 0x14EC JUMP JUMPDEST SWAP2 POP POP PUSH2 0x977 JUMP JUMPDEST POP DUP1 ISZERO PUSH2 0xD37 JUMPI PUSH32 0xCDE5C32C0A45FD8AA4B65EA8003FC9DA9ACD5E2C6C24A9FCCE6AB79CABBD9122 PUSH1 0x5 PUSH1 0x40 MLOAD PUSH2 0xD1D SWAP2 SWAP1 PUSH2 0x14BD JUMP JUMPDEST PUSH1 0x40 MLOAD DUP1 SWAP2 SUB SWAP1 LOG1 PUSH1 0x4 DUP1 SLOAD PUSH1 0xFF NOT AND SWAP1 SSTORE PUSH1 0x0 PUSH1 0x2 SSTORE POP JUMP JUMPDEST PUSH2 0xD3F PUSH2 0xD92 JUMP JUMPDEST ISZERO PUSH2 0xD8A JUMPI PUSH32 0xCDE5C32C0A45FD8AA4B65EA8003FC9DA9ACD5E2C6C24A9FCCE6AB79CABBD9122 PUSH1 0x40 MLOAD PUSH2 0xD1D SWAP1 PUSH1 0x20 DUP1 DUP3 MSTORE PUSH1 0x4 SWAP1 DUP3 ADD MSTORE PUSH4 0x44726177 PUSH1 0xE0 SHL PUSH1 0x40 DUP3 ADD MSTORE PUSH1 0x60 ADD SWAP1 JUMP JUMPDEST PUSH2 0x569 PUSH2 0xDDD JUMP JUMPDEST PUSH1 0x0 DUP1 JUMPDEST PUSH1 0x3 SLOAD DUP2 LT ISZERO PUSH2 0xDD5 JUMPI PUSH2 0xDB6 PUSH1 0x3 DUP3 DUP2 SLOAD DUP2 LT PUSH2 0x2C0 JUMPI PUSH2 0x2C0 PUSH2 0x11E7 JUMP JUMPDEST ISZERO PUSH2 0xDC3 JUMPI PUSH1 0x0 SWAP2 POP POP SWAP1 JUMP JUMPDEST DUP1 PUSH2 0xDCD DUP2 PUSH2 0x14EC JUMP JUMPDEST SWAP2 POP POP PUSH2 0xD96 JUMP JUMPDEST POP PUSH1 0x1 SWAP1 POP SWAP1 JUMP JUMPDEST PUSH2 0xDED PUSH1 0x5 DUP1 SLOAD PUSH2 0x3B4 SWAP1 PUSH2 0x11AD JUMP JUMPDEST ISZERO PUSH2 0xE37 JUMPI PUSH1 0x1 SLOAD PUSH1 0x40 MLOAD PUSH1 0x1 PUSH1 0x1 PUSH1 0xA0 SHL SUB SWAP1 SWAP2 AND DUP2 MSTORE PUSH32 0xEC121DEBAB367DC6FC2DA219EF2D5CF4E97E648E71F3A199511CF3B4D7D59304 SWAP1 PUSH1 0x20 ADD PUSH1 0x40 MLOAD DUP1 SWAP2 SUB SWAP1 LOG1 PUSH2 0xE78 JUMP JUMPDEST PUSH1 0x0 SLOAD PUSH1 0x40 MLOAD PUSH1 0x1 PUSH1 0x1 PUSH1 0xA0 SHL SUB SWAP1 SWAP2 AND DUP2 MSTORE PUSH32 0xEC121DEBAB367DC6FC2DA219EF2D5CF4E97E648E71F3A199511CF3B4D7D59304 SWAP1 PUSH1 0x20 ADD PUSH1 0x40 MLOAD DUP1 SWAP2 SUB SWAP1 LOG1 JUMPDEST PUSH2 0xE88 PUSH1 0x5 DUP1 SLOAD PUSH2 0x3B4 SWAP1 PUSH2 0x11AD JUMP JUMPDEST PUSH2 0xEAB JUMPI PUSH1 0x40 MLOAD DUP1 PUSH1 0x40 ADD PUSH1 0x40 MSTORE DUP1 PUSH1 0x1 DUP2 MSTORE PUSH1 0x20 ADD PUSH1 0xB PUSH1 0xFB SHL DUP2 MSTORE POP PUSH2 0xEC6 JUMP JUMPDEST PUSH1 0x40 MLOAD DUP1 PUSH1 0x40 ADD PUSH1 0x40 MSTORE DUP1 PUSH1 0x1 DUP2 MSTORE PUSH1 0x20 ADD PUSH1 0x4F PUSH1 0xF8 SHL DUP2 MSTORE POP JUMPDEST PUSH1 0x5 SWAP1 PUSH2 0xED3 SWAP1 DUP3 PUSH2 0x1403 JUMP JUMPDEST POP PUSH32 0xFEC15E35EC3D19C0B090BDED48BC70FCF6E183FB77F32B0F92B463D5FEC3A0D1 PUSH1 0x5 PUSH1 0x40 MLOAD PUSH2 0x90A SWAP2 SWAP1 PUSH2 0x14BD JUMP JUMPDEST DUP3 DUP1 SLOAD DUP3 DUP3 SSTORE SWAP1 PUSH1 0x0 MSTORE PUSH1 0x20 PUSH1 0x0 KECCAK256 SWAP1 DUP2 ADD SWAP3 DUP3 ISZERO PUSH2 0xF4A JUMPI SWAP2 PUSH1 0x20 MUL DUP3 ADD JUMPDEST DUP3 DUP2 GT ISZERO PUSH2 0xF4A JUMPI DUP3 MLOAD DUP3 SWAP1 PUSH2 0xF3A SWAP1 DUP3 PUSH2 0x1403 JUMP JUMPDEST POP SWAP2 PUSH1 0x20 ADD SWAP2 SWAP1 PUSH1 0x1 ADD SWAP1 PUSH2 0xF24 JUMP JUMPDEST POP PUSH2 0xF56 SWAP3 SWAP2 POP PUSH2 0xF5A JUMP JUMPDEST POP SWAP1 JUMP JUMPDEST DUP1 DUP3 GT ISZERO PUSH2 0xF56 JUMPI PUSH1 0x0 PUSH2 0xF6E DUP3 DUP3 PUSH2 0xF77 JUMP JUMPDEST POP PUSH1 0x1 ADD PUSH2 0xF5A JUMP JUMPDEST POP DUP1 SLOAD PUSH2 0xF83 SWAP1 PUSH2 0x11AD JUMP JUMPDEST PUSH1 0x0 DUP3 SSTORE DUP1 PUSH1 0x1F LT PUSH2 0xF93 JUMPI POP POP JUMP JUMPDEST PUSH1 0x1F ADD PUSH1 0x20 SWAP1 DIV SWAP1 PUSH1 0x0 MSTORE PUSH1 0x20 PUSH1 0x0 KECCAK256 SWAP1 DUP2 ADD SWAP1 PUSH2 0x569 SWAP2 SWAP1 JUMPDEST DUP1 DUP3 GT ISZERO PUSH2 0xF56 JUMPI PUSH1 0x0 DUP2 SSTORE PUSH1 0x1 ADD PUSH2 0xFAD JUMP JUMPDEST PUSH1 0x0 PUSH1 0x20 DUP3 DUP5 SUB SLT ISZERO PUSH2 0xFD3 JUMPI PUSH1 0x0 DUP1 REVERT JUMPDEST POP CALLDATALOAD SWAP2 SWAP1 POP JUMP JUMPDEST PUSH1 0x0 JUMPDEST DUP4 DUP2 LT ISZERO PUSH2 0xFF5 JUMPI DUP2 DUP2 ADD MLOAD DUP4 DUP3 ADD MSTORE PUSH1 0x20 ADD PUSH2 0xFDD JUMP JUMPDEST POP POP PUSH1 0x0 SWAP2 ADD MSTORE JUMP JUMPDEST PUSH1 0x0 DUP2 MLOAD DUP1 DUP5 MSTORE PUSH2 0x1016 DUP2 PUSH1 0x20 DUP7 ADD PUSH1 0x20 DUP7 ADD PUSH2 0xFDA JUMP JUMPDEST PUSH1 0x1F ADD PUSH1 0x1F NOT AND SWAP3 SWAP1 SWAP3 ADD PUSH1 0x20 ADD SWAP3 SWAP2 POP POP JUMP JUMPDEST PUSH1 0x20 DUP2 MSTORE PUSH1 0x0 PUSH2 0x103D PUSH1 0x20 DUP4 ADD DUP5 PUSH2 0xFFE JUMP JUMPDEST SWAP4 SWAP3 POP POP POP JUMP JUMPDEST PUSH1 0x0 PUSH1 0x20 DUP1 DUP4 ADD DUP2 DUP5 MSTORE DUP1 DUP6 MLOAD DUP1 DUP4 MSTORE PUSH1 0x40 DUP7 ADD SWAP2 POP PUSH1 0x40 DUP2 PUSH1 0x5 SHL DUP8 ADD ADD SWAP3 POP DUP4 DUP8 ADD PUSH1 0x0 JUMPDEST DUP3 DUP2 LT ISZERO PUSH2 0x1099 JUMPI PUSH1 0x3F NOT DUP9 DUP7 SUB ADD DUP5 MSTORE PUSH2 0x1087 DUP6 DUP4 MLOAD PUSH2 0xFFE JUMP JUMPDEST SWAP5 POP SWAP3 DUP6 ADD SWAP3 SWAP1 DUP6 ADD SWAP1 PUSH1 0x1 ADD PUSH2 0x106B JUMP JUMPDEST POP SWAP3 SWAP8 SWAP7 POP POP POP POP POP POP POP JUMP JUMPDEST PUSH4 0x4E487B71 PUSH1 0xE0 SHL PUSH1 0x0 MSTORE PUSH1 0x41 PUSH1 0x4 MSTORE PUSH1 0x24 PUSH1 0x0 REVERT JUMPDEST PUSH1 0x0 DUP3 PUSH1 0x1F DUP4 ADD SLT PUSH2 0x10CD JUMPI PUSH1 0x0 DUP1 REVERT JUMPDEST DUP2 CALLDATALOAD PUSH8 0xFFFFFFFFFFFFFFFF DUP1 DUP3 GT ISZERO PUSH2 0x10E8 JUMPI PUSH2 0x10E8 PUSH2 0x10A6 JUMP JUMPDEST PUSH1 0x40 MLOAD PUSH1 0x1F DUP4 ADD PUSH1 0x1F NOT SWAP1 DUP2 AND PUSH1 0x3F ADD AND DUP2 ADD SWAP1 DUP3 DUP3 GT DUP2 DUP4 LT OR ISZERO PUSH2 0x1110 JUMPI PUSH2 0x1110 PUSH2 0x10A6 JUMP JUMPDEST DUP2 PUSH1 0x40 MSTORE DUP4 DUP2 MSTORE DUP7 PUSH1 0x20 DUP6 DUP9 ADD ADD GT ISZERO PUSH2 0x1129 JUMPI PUSH1 0x0 DUP1 REVERT JUMPDEST DUP4 PUSH1 0x20 DUP8 ADD PUSH1 0x20 DUP4 ADD CALLDATACOPY PUSH1 0x0 PUSH1 0x20 DUP6 DUP4 ADD ADD MSTORE DUP1 SWAP5 POP POP POP POP POP SWAP3 SWAP2 POP POP JUMP JUMPDEST PUSH1 0x0 DUP1 PUSH1 0x40 DUP4 DUP6 SUB SLT ISZERO PUSH2 0x115C JUMPI PUSH1 0x0 DUP1 REVERT JUMPDEST DUP3 CALLDATALOAD PUSH8 0xFFFFFFFFFFFFFFFF DUP1 DUP3 GT ISZERO PUSH2 0x1174 JUMPI PUSH1 0x0 DUP1 REVERT JUMPDEST PUSH2 0x1180 DUP7 DUP4 DUP8 ADD PUSH2 0x10BC JUMP JUMPDEST SWAP4 POP PUSH1 0x20 DUP6 ADD CALLDATALOAD SWAP2 POP DUP1 DUP3 GT ISZERO PUSH2 0x1196 JUMPI PUSH1 0x0 DUP1 REVERT JUMPDEST POP PUSH2 0x11A3 DUP6 DUP3 DUP7 ADD PUSH2 0x10BC JUMP JUMPDEST SWAP2 POP POP SWAP3 POP SWAP3 SWAP1 POP JUMP JUMPDEST PUSH1 0x1 DUP2 DUP2 SHR SWAP1 DUP3 AND DUP1 PUSH2 0x11C1 JUMPI PUSH1 0x7F DUP3 AND SWAP2 POP JUMPDEST PUSH1 0x20 DUP3 LT DUP2 SUB PUSH2 0x11E1 JUMPI PUSH4 0x4E487B71 PUSH1 0xE0 SHL PUSH1 0x0 MSTORE PUSH1 0x22 PUSH1 0x4 MSTORE PUSH1 0x24 PUSH1 0x0 REVERT JUMPDEST POP SWAP2 SWAP1 POP JUMP JUMPDEST PUSH4 0x4E487B71 PUSH1 0xE0 SHL PUSH1 0x0 MSTORE PUSH1 0x32 PUSH1 0x4 MSTORE PUSH1 0x24 PUSH1 0x0 REVERT JUMPDEST PUSH1 0x1F DUP3 GT ISZERO PUSH2 0x1247 JUMPI PUSH1 0x0 DUP2 DUP2 MSTORE PUSH1 0x20 DUP2 KECCAK256 PUSH1 0x1F DUP6 ADD PUSH1 0x5 SHR DUP2 ADD PUSH1 0x20 DUP7 LT ISZERO PUSH2 0x1224 JUMPI POP DUP1 JUMPDEST PUSH1 0x1F DUP6 ADD PUSH1 0x5 SHR DUP3 ADD SWAP2 POP JUMPDEST DUP2 DUP2 LT ISZERO PUSH2 0x1243 JUMPI DUP3 DUP2 SSTORE PUSH1 0x1 ADD PUSH2 0x1230 JUMP JUMPDEST POP POP POP JUMPDEST POP POP POP JUMP JUMPDEST DUP2 DUP2 SUB PUSH2 0x1257 JUMPI POP POP JUMP JUMPDEST PUSH2 0x1261 DUP3 SLOAD PUSH2 0x11AD JUMP JUMPDEST PUSH8 0xFFFFFFFFFFFFFFFF DUP2 GT ISZERO PUSH2 0x1279 JUMPI PUSH2 0x1279 PUSH2 0x10A6 JUMP JUMPDEST PUSH2 0x128D DUP2 PUSH2 0x1287 DUP5 SLOAD PUSH2 0x11AD JUMP JUMPDEST DUP5 PUSH2 0x11FD JUMP JUMPDEST PUSH1 0x0 PUSH1 0x1F DUP3 GT PUSH1 0x1 DUP2 EQ PUSH2 0x12C1 JUMPI PUSH1 0x0 DUP4 ISZERO PUSH2 0x12A9 JUMPI POP DUP5 DUP3 ADD SLOAD JUMPDEST PUSH1 0x0 NOT PUSH1 0x3 DUP6 SWAP1 SHL SHR NOT AND PUSH1 0x1 DUP5 SWAP1 SHL OR DUP5 SSTORE PUSH2 0x1326 JUMP JUMPDEST PUSH1 0x0 DUP6 DUP2 MSTORE PUSH1 0x20 SWAP1 KECCAK256 PUSH1 0x1F NOT DUP5 AND SWAP1 PUSH1 0x0 DUP7 DUP2 MSTORE PUSH1 0x20 SWAP1 KECCAK256 DUP5 JUMPDEST DUP4 DUP2 LT ISZERO PUSH2 0x12FB JUMPI DUP3 DUP7 ADD SLOAD DUP3 SSTORE PUSH1 0x1 SWAP6 DUP7 ADD SWAP6 SWAP1 SWAP2 ADD SWAP1 PUSH1 0x20 ADD PUSH2 0x12DB JUMP JUMPDEST POP DUP6 DUP4 LT ISZERO PUSH2 0x1319 JUMPI DUP2 DUP6 ADD SLOAD PUSH1 0x0 NOT PUSH1 0x3 DUP9 SWAP1 SHL PUSH1 0xF8 AND SHR NOT AND DUP2 SSTORE JUMPDEST POP POP POP PUSH1 0x1 DUP4 PUSH1 0x1 SHL ADD DUP5 SSTORE JUMPDEST POP POP POP POP POP JUMP JUMPDEST PUSH1 0x0 DUP2 SLOAD PUSH2 0x133A DUP2 PUSH2 0x11AD JUMP JUMPDEST DUP1 DUP6 MSTORE PUSH1 0x20 PUSH1 0x1 DUP4 DUP2 AND DUP1 ISZERO PUSH2 0x1357 JUMPI PUSH1 0x1 DUP2 EQ PUSH2 0x1371 JUMPI PUSH2 0x139F JUMP JUMPDEST PUSH1 0xFF NOT DUP6 AND DUP9 DUP5 ADD MSTORE DUP4 ISZERO ISZERO PUSH1 0x5 SHL DUP9 ADD DUP4 ADD SWAP6 POP PUSH2 0x139F JUMP JUMPDEST DUP7 PUSH1 0x0 MSTORE DUP3 PUSH1 0x0 KECCAK256 PUSH1 0x0 JUMPDEST DUP6 DUP2 LT ISZERO PUSH2 0x1397 JUMPI DUP2 SLOAD DUP11 DUP3 ADD DUP7 ADD MSTORE SWAP1 DUP4 ADD SWAP1 DUP5 ADD PUSH2 0x137C JUMP JUMPDEST DUP10 ADD DUP5 ADD SWAP7 POP POP JUMPDEST POP POP POP POP POP SWAP3 SWAP2 POP POP JUMP JUMPDEST PUSH1 0x0 PUSH1 0x20 DUP1 DUP4 ADD DUP2 DUP5 MSTORE DUP1 DUP6 SLOAD DUP1 DUP4 MSTORE PUSH1 0x40 DUP7 ADD SWAP2 POP PUSH1 0x40 DUP2 PUSH1 0x5 SHL DUP8 ADD ADD SWAP3 POP DUP7 PUSH1 0x0 MSTORE DUP4 PUSH1 0x0 KECCAK256 PUSH1 0x0 JUMPDEST DUP3 DUP2 LT ISZERO PUSH2 0x1099 JUMPI DUP8 DUP6 SUB PUSH1 0x3F NOT ADD DUP5 MSTORE PUSH2 0x13F1 DUP6 DUP4 PUSH2 0x132D JUMP JUMPDEST SWAP5 POP SWAP3 DUP6 ADD SWAP3 PUSH1 0x1 SWAP2 DUP3 ADD SWAP2 ADD PUSH2 0x13D6 JUMP JUMPDEST DUP2 MLOAD PUSH8 0xFFFFFFFFFFFFFFFF DUP2 GT ISZERO PUSH2 0x141D JUMPI PUSH2 0x141D PUSH2 0x10A6 JUMP JUMPDEST PUSH2 0x142B DUP2 PUSH2 0x1287 DUP5 SLOAD PUSH2 0x11AD JUMP JUMPDEST PUSH1 0x20 DUP1 PUSH1 0x1F DUP4 GT PUSH1 0x1 DUP2 EQ PUSH2 0x1460 JUMPI PUSH1 0x0 DUP5 ISZERO PUSH2 0x1448 JUMPI POP DUP6 DUP4 ADD MLOAD JUMPDEST PUSH1 0x0 NOT PUSH1 0x3 DUP7 SWAP1 SHL SHR NOT AND PUSH1 0x1 DUP6 SWAP1 SHL OR DUP6 SSTORE PUSH2 0x1243 JUMP JUMPDEST PUSH1 0x0 DUP6 DUP2 MSTORE PUSH1 0x20 DUP2 KECCAK256 PUSH1 0x1F NOT DUP7 AND SWAP2 JUMPDEST DUP3 DUP2 LT ISZERO PUSH2 0x148F JUMPI DUP9 DUP7 ADD MLOAD DUP3 SSTORE SWAP5 DUP5 ADD SWAP5 PUSH1 0x1 SWAP1 SWAP2 ADD SWAP1 DUP5 ADD PUSH2 0x1470 JUMP JUMPDEST POP DUP6 DUP3 LT ISZERO PUSH2 0x14AD JUMPI DUP8 DUP6 ADD MLOAD PUSH1 0x0 NOT PUSH1 0x3 DUP9 SWAP1 SHL PUSH1 0xF8 AND SHR NOT AND DUP2 SSTORE JUMPDEST POP POP POP POP POP PUSH1 0x1 SWAP1 DUP2 SHL ADD SWAP1 SSTORE POP JUMP JUMPDEST PUSH1 0x20 DUP2 MSTORE PUSH1 0x0 PUSH2 0x103D PUSH1 0x20 DUP4 ADD DUP5 PUSH2 0x132D JUMP JUMPDEST PUSH1 0x0 DUP3 MLOAD PUSH2 0x14E2 DUP2 DUP5 PUSH1 0x20 DUP8 ADD PUSH2 0xFDA JUMP JUMPDEST SWAP2 SWAP1 SWAP2 ADD SWAP3 SWAP2 POP POP JUMP JUMPDEST PUSH1 0x0 PUSH1 0x1 DUP3 ADD PUSH2 0x150C JUMPI PUSH4 0x4E487B71 PUSH1 0xE0 SHL PUSH1 0x0 MSTORE PUSH1 0x11 PUSH1 0x4 MSTORE PUSH1 0x24 PUSH1 0x0 REVERT JUMPDEST POP PUSH1 0x1 ADD SWAP1 JUMP INVALID LOG2 PUSH5 0x6970667358 0x22 SLT KECCAK256 0xCD COINBASE 0x5C CREATE 0x4E PUSH26 0x57A0F506B3F6AC9D666813633BB1FBCD725631B33ED089A800F8 PUSH5 0x736F6C6343 STOP ADDMOD SGT STOP CALLER "
		},
		"gasEstimates": {
			"creation": {
				"codeDepositCost": "1089800",
				"executionCost": "infinite",
				"totalCost": "infinite"
			},
			"external": {
				"activate()": "2300",
				"compareStrings(string,string)": "infinite",
				"currentPlayer()": "infinite",
				"getoption()": "infinite",
				"joinGame()": "infinite",
				"options(uint256)": "infinite",
				"player1address()": "2337",
				"player2address()": "2381",
				"playerCount()": "2318",
				"restartGame()": "infinite",
				"userInput(uint256)": "infinite"
			},
			"internal": {
				"changePlayer()": "infinite",
				"checkOptions()": "infinite",
				"checkWinner()": "infinite"
			}
		},
		"methodIdentifiers": {
			"activate()": "0f15f4c0",
			"compareStrings(string,string)": "bed34bba",
			"currentPlayer()": "4404a438",
			"getoption()": "63f4150e",
			"joinGame()": "d4f77b1c",
			"options(uint256)": "409e2205",
			"player1address()": "55a5c301",
			"player2address()": "7d39620b",
			"playerCount()": "302bcc57",
			"restartGame()": "8d25af04",
			"userInput(uint256)": "52fc4855"
		}
	},
	"abi": [
		{
			"anonymous": false,
			"inputs": [
				{
					"indexed": false,
					"internalType": "string",
					"name": "message",
					"type": "string"
				}
			],
			"name": "metchSuccessful",
			"type": "event"
		},
		{
			"anonymous": false,
			"inputs": [
				{
					"indexed": false,
					"internalType": "string",
					"name": "next",
					"type": "string"
				}
			],
			"name": "nextUesrStr",
			"type": "event"
		},
		{
			"anonymous": false,
			"inputs": [
				{
					"indexed": false,
					"internalType": "address",
					"name": "nextUser",
					"type": "address"
				}
			],
			"name": "nextUser",
			"type": "event"
		},
		{
			"anonymous": false,
			"inputs": [
				{
					"indexed": false,
					"internalType": "string",
					"name": "message",
					"type": "string"
				}
			],
			"name": "queueFull",
			"type": "event"
		},
		{
			"anonymous": false,
			"inputs": [
				{
					"indexed": false,
					"internalType": "string",
					"name": "initPLayer",
					"type": "string"
				}
			],
			"name": "resetUI",
			"type": "event"
		},
		{
			"anonymous": false,
			"inputs": [
				{
					"indexed": false,
					"internalType": "string",
					"name": "result",
					"type": "string"
				}
			],
			"name": "showResult",
			"type": "event"
		},
		{
			"anonymous": false,
			"inputs": [
				{
					"indexed": false,
					"internalType": "string",
					"name": "message",
					"type": "string"
				},
				{
					"indexed": false,
					"internalType": "address",
					"name": "player1",
					"type": "address"
				},
				{
					"indexed": false,
					"internalType": "address",
					"name": "player2",
					"type": "address"
				}
			],
			"name": "startGame",
			"type": "event"
		},
		{
			"anonymous": false,
			"inputs": [
				{
					"indexed": false,
					"internalType": "string[]",
					"name": "options",
					"type": "string[]"
				}
			],
			"name": "updateUI",
			"type": "event"
		},
		{
			"inputs": [],
			"name": "activate",
			"outputs": [
				{
					"internalType": "bool",
					"name": "",
					"type": "bool"
				}
			],
			"stateMutability": "view",
			"type": "function"
		},
		{
			"inputs": [
				{
					"internalType": "string",
					"name": "a",
					"type": "string"
				},
				{
					"internalType": "string",
					"name": "b",
					"type": "string"
				}
			],
			"name": "compareStrings",
			"outputs": [
				{
					"internalType": "bool",
					"name": "",
					"type": "bool"
				}
			],
			"stateMutability": "pure",
			"type": "function"
		},
		{
			"inputs": [],
			"name": "currentPlayer",
			"outputs": [
				{
					"internalType": "string",
					"name": "",
					"type": "string"
				}
			],
			"stateMutability": "view",
			"type": "function"
		},
		{
			"inputs": [],
			"name": "getoption",
			"outputs": [
				{
					"internalType": "string[]",
					"name": "",
					"type": "string[]"
				}
			],
			"stateMutability": "view",
			"type": "function"
		},
		{
			"inputs": [],
			"name": "joinGame",
			"outputs": [],
			"stateMutability": "nonpayable",
			"type": "function"
		},
		{
			"inputs": [
				{
					"internalType": "uint256",
					"name": "",
					"type": "uint256"
				}
			],
			"name": "options",
			"outputs": [
				{
					"internalType": "string",
					"name": "",
					"type": "string"
				}
			],
			"stateMutability": "view",
			"type": "function"
		},
		{
			"inputs": [],
			"name": "player1address",
			"outputs": [
				{
					"internalType": "address",
					"name": "",
					"type": "address"
				}
			],
			"stateMutability": "view",
			"type": "function"
		},
		{
			"inputs": [],
			"name": "player2address",
			"outputs": [
				{
					"internalType": "address",
					"name": "",
					"type": "address"
				}
			],
			"stateMutability": "view",
			"type": "function"
		},
		{
			"inputs": [],
			"name": "playerCount",
			"outputs": [
				{
					"internalType": "uint256",
					"name": "",
					"type": "uint256"
				}
			],
			"stateMutability": "view",
			"type": "function"
		},
		{
			"inputs": [],
			"name": "restartGame",
			"outputs": [],
			"stateMutability": "nonpayable",
			"type": "function"
		},
		{
			"inputs": [
				{
					"internalType": "uint256",
					"name": "input",
					"type": "uint256"
				}
			],
			"name": "userInput",
			"outputs": [],
			"stateMutability": "nonpayable",
			"type": "function"
		}
	]
}