{
	"data": {
		"bytecode": {
			"linkReferences": {},
			"object": "600080546001600160a01b031990811673c6bddcd0da1c50281f02a57b8d2ada2ebf76aec7178255600a600190815560028054909216733ce5a8a72820585c60f659896338d573471969911782556005600381815560048281556101808681526101a08590526101c086905260809081526101e083815261020083905261022085905260a05260066102408181526007610260819052600861028081905260c0929092526102a08a81526102c0969096526102e083905260e0959095526103009687526103208490526103409490945261010095909552610360868152610380949094526103a0839052610120939093526103c09586526103e081905261040082905261014095909552610480604052610420938452610440949094526104609190915261016091909152620001379190816200015e565b503480156200014557600080fd5b50600680546001600160a01b0319163317905562000268565b828054828255906000526020600020908101928215620001aa579160200282015b82811115620001aa578251620001999083906003620001bc565b50916020019190600101906200017f565b50620001b89291506200020d565b5090565b828054828255906000526020600020908101928215620001ff579160200282015b82811115620001ff578251829060ff16905591602001919060010190620001dd565b50620001b89291506200022e565b80821115620001b857600062000224828262000245565b506001016200020d565b5b80821115620001b857600081556001016200022f565b50805460008255906000526020600020908101906200026591906200022e565b50565b6139ee80620002786000396000f3fe608060405234801561001057600080fd5b50600436106101375760003560e01c8063888b042f116100b8578063bed34bba1161007c578063bed34bba1461029b578063cc32d176146102be578063dc572c6e146102c7578063edb84ff7146102e7578063fa968eea146102ef578063fce589d8146102f857600080fd5b8063888b042f146102455780638da5cb5b1461024d578063b2182be414610260578063b60b9fcb14610280578063b7b524a11461029357600080fd5b80634a968391116100ff5780634a968391146101b957806352bc3410146101cc57806361d027b3146101df5780637effb4271461020a57806387052fab1461021d57600080fd5b806306139e8d1461013c57806317b44960146101515780631a39d8ef1461017a57806334fd351814610191578063491f0136146101a4575b600080fd5b61014f61014a366004612fdc565b610301565b005b61016461015f366004612fdc565b6109d0565b6040516101719190612ff5565b60405180910390f35b61018360055481565b604051908152602001610171565b61014f61019f366004612fdc565b610a4c565b6101ac610b16565b60405161017191906131f9565b61014f6101c7366004612fdc565b610da7565b61014f6101da36600461325b565b610f27565b6002546101f2906001600160a01b031681565b6040516001600160a01b039091168152602001610171565b6000546101f2906001600160a01b031681565b61023061022b366004612fdc565b611352565b6040516101719998979695949392919061327d565b61014f611448565b6006546101f2906001600160a01b031681565b61027361026e366004612fdc565b61164c565b60405161017191906132df565b61014f61028e36600461325b565b6118b2565b61014f611fa6565b6102ae6102a936600461339c565b61209f565b6040519015158152602001610171565b61018360045481565b6102da6102d5366004612fdc565b6120f9565b6040516101719190613400565b61014f6121f6565b61018360015481565b61018360035481565b600654600160a01b900460ff16156103585760405162461bcd60e51b8152602060048201526015602482015274115c9c9bdc8e881499595b9d1c985b9d0818d85b1b605a1b60448201526064015b60405180910390fd5b6006805460ff60a01b1916600160a01b1790556000546040516370a0823160e01b815233600482015282916001600160a01b0316906370a0823190602401602060405180830381865afa1580156103b3573d6000803e3d6000fd5b505050506040513d601f19601f820116820180604052508101906103d79190613455565b101561041a5760405162461bcd60e51b81526020600482015260126024820152714e6f7420656e6f7567682062616c616e636560701b604482015260640161034f565b60015481101561046c5760405162461bcd60e51b815260206004820152601a60248201527f4e65656420746f20706179206d696e2062657420616d6f756e74000000000000604482015260640161034f565b600060646003548361047e9190613484565b610488919061349b565b9050600060646004548461049c9190613484565b6104a6919061349b565b90506000816104b584866134bd565b6104bf91906134bd565b6000546040516323b872dd60e01b81529192506001600160a01b0316906323b872dd906104f690339061dead9088906004016134d0565b6020604051808303816000875af1158015610515573d6000803e3d6000fd5b505050506040513d601f19601f8201168201806040525081019061053991906134f4565b506000546002546040516323b872dd60e01b81526001600160a01b03928316926323b872dd926105739233929091169087906004016134d0565b6020604051808303816000875af1158015610592573d6000803e3d6000fd5b505050506040513d601f19601f820116820180604052508101906105b691906134f4565b506000546040516323b872dd60e01b81526001600160a01b03909116906323b872dd906105eb903390309086906004016134d0565b6020604051808303816000875af115801561060a573d6000803e3d6000fd5b505050506040513d601f19601f8201168201806040525081019061062e91906134f4565b5080600560008282546106419190613516565b9091555061064f9050612e16565b6007805460018101825560009190915281517fa66cc928b5edb82af9bd49922954155ab7b0942694bea4ce44661d9a8736c688600b909202918201805460ff1916911515919091178155602083015183927fa66cc928b5edb82af9bd49922954155ab7b0942694bea4ce44661d9a8736c68901906106cd90826135b2565b50604082015180516106e9916002840191602090910190612e8d565b5060608201518051610705916003840191602090910190612ee3565b5060808201516004820180546001600160a01b03199081166001600160a01b039384161790915560a0840151600584018054831691841691909117905560c0840151600684015560e084015160078085018054909316919093161790556101008301516008830155610120830151600983015561014090920151600a9091015580549033906107956001846134bd565b815481106107a5576107a5613672565b600091825260208220600b919091020160040180546001600160a01b0319166001600160a01b03939093169290921790915560076107e46001846134bd565b815481106107f4576107f4613672565b60009182526020909120600b90910201805460ff19169115159190911790556001600761082182846134bd565b8154811061083157610831613672565b90600052602060002090600b020160060181905550604051806040016040528060018152602001600b60fb1b815250600760018361086f91906134bd565b8154811061087f5761087f613672565b90600052602060002090600b0201600101908161089c91906135b2565b508560076108ab6001846134bd565b815481106108bb576108bb613672565b600091825260209091206008600b9092020101558260076108dd6001846134bd565b815481106108ed576108ed613672565b90600052602060002090600b0201600a018190555060005b600981101561097d57600761091b6001846134bd565b8154811061092b5761092b613672565b600091825260208083206002600b90930201919091018054600181018255908352818320604080519384019052928252919091019061096a90826135b2565b508061097581613688565b915050610905565b507fbbba82573073a1190d559566d39447b5e1ad7724b88b63bc98867d229a645b6b6109aa6001836134bd565b60405190815260200160405180910390a150506006805460ff60a01b1916905550505050565b6060600782815481106109e5576109e5613672565b90600052602060002090600b0201600301805480602002602001604051908101604052809291908181526020018280548015610a4057602002820191906000526020600020905b815481526020019060010190808311610a2c575b50505050509050919050565b610a55816122b9565b610aa15760405162461bcd60e51b815260206004820152601c60248201527f796f7520617265206e6f7420746869732067616d6520706c6179657200000000604482015260640161034f565b60078181548110610ab457610ab4613672565b60009182526020909120600b909102015460ff1615610b0a5760405162461bcd60e51b815260206004820152601260248201527147616d65207374696c6c20706c6179696e6760701b604482015260640161034f565b610b1381610da7565b50565b60606007805480602002602001604051908101604052809291908181526020016000905b82821015610d9e576000848152602090819020604080516101608101909152600b8502909101805460ff16151582526001810180549293919291840191610b8090613529565b80601f0160208091040260200160405190810160405280929190818152602001828054610bac90613529565b8015610bf95780601f10610bce57610100808354040283529160200191610bf9565b820191906000526020600020905b815481529060010190602001808311610bdc57829003601f168201915b5050505050815260200160028201805480602002602001604051908101604052809291908181526020016000905b82821015610cd3578382906000526020600020018054610c4690613529565b80601f0160208091040260200160405190810160405280929190818152602001828054610c7290613529565b8015610cbf5780601f10610c9457610100808354040283529160200191610cbf565b820191906000526020600020905b815481529060010190602001808311610ca257829003601f168201915b505050505081526020019060010190610c27565b50505050815260200160038201805480602002602001604051908101604052809291908181526020018280548015610d2a57602002820191906000526020600020905b815481526020019060010190808311610d16575b505050918352505060048201546001600160a01b039081166020808401919091526005840154821660408401526006840154606084015260078401549091166080830152600883015460a0830152600983015460c0830152600a9092015460e0909101529082526001929092019101610b3a565b50505050905090565b604051806040016040528060018152602001600b60fb1b81525060078281548110610dd457610dd4613672565b90600052602060002090600b02016001019081610df191906135b2565b5060408051610140810182526000610120820181815282528251602081810185528282528084019190915283518082018552828152838501528351808201855282815260608401528351808201855282815260808401528351808201855282815260a08401528351808201855282815260c08401528351808201855282815260e0840152835190810190935282526101008101919091526007805483908110610e9c57610e9c613672565b90600052602060002090600b0201600201906009610ebb929190612f2a565b50600160078281548110610ed157610ed1613672565b6000918252602091829020600b90910201805460ff1916921515929092179091556040518281527fc5478e3fe602c65e5cdd37abe42a8e007ff762d266b9e8256769194c1fa1361e91015b60405180910390a150565b60078181548110610f3a57610f3a613672565b60009182526020909120600b909102015460ff16610f9a5760405162461bcd60e51b815260206004820152601c60248201527f5468652067616d65207374696c6c206e6f742073746172742079657400000000604482015260640161034f565b61107a60078281548110610fb057610fb0613672565b90600052602060002090600b02016002018381548110610fd257610fd2613672565b906000526020600020018054610fe790613529565b80601f016020809104026020016040519081016040528092919081815260200182805461101390613529565b80156110605780601f1061103557610100808354040283529160200191611060565b820191906000526020600020905b81548152906001019060200180831161104357829003601f168201915b50505050506040518060200160405280600081525061209f565b6110b65760405162461bcd60e51b815260206004820152600d60248201526c125b9d985b1a59081a5b9c1d5d609a1b604482015260640161034f565b611185600782815481106110cc576110cc613672565b90600052602060002090600b020160010180546110e890613529565b80601f016020809104026020016040519081016040528092919081815260200182805461111490613529565b80156111615780601f1061113657610100808354040283529160200191611161565b820191906000526020600020905b81548152906001019060200180831161114457829003601f168201915b5050505050604051806040016040528060018152602001600b60fb1b81525061209f565b15611204576007818154811061119d5761119d613672565b60009182526020909120600b90910201600401546001600160a01b031633146111ff5760405162461bcd60e51b8152602060048201526014602482015273596f7520617265206e6f7420706c61796572203160601b604482015260640161034f565b611279565b6007818154811061121757611217613672565b60009182526020909120600b90910201600501546001600160a01b031633146112795760405162461bcd60e51b81526020600482015260146024820152732cb7ba9030b932903737ba10383630bcb2b9101960611b604482015260640161034f565b6007818154811061128c5761128c613672565b90600052602060002090600b0201600101600782815481106112b0576112b0613672565b90600052602060002090600b020160020183815481106112d2576112d2613672565b9060005260206000200190816112e891906136a1565b507f9659242f3970136bf08cba261398ae9f0bc58a676137d79d3c2040dcdacbc18b6007828154811061131d5761131d613672565b90600052602060002090600b02016002018260405161133d929190613852565b60405180910390a161134e81612339565b5050565b6007818154811061136257600080fd5b60009182526020909120600b90910201805460018201805460ff90921693509061138b90613529565b80601f01602080910402602001604051908101604052809291908181526020018280546113b790613529565b80156114045780601f106113d957610100808354040283529160200191611404565b820191906000526020600020905b8154815290600101906020018083116113e757829003601f168201915b505050600484015460058501546006860154600787015460088801546009890154600a9099015497986001600160a01b039586169894861697509295509316929189565b6006546001600160a01b031633146114925760405162461bcd60e51b815260206004820152600d60248201526c2737ba103a34329037bbb732b960991b604482015260640161034f565b600554600080546040516370a0823160e01b81523060048201529192916001600160a01b03909116906370a0823190602401602060405180830381865afa1580156114e1573d6000803e3d6000fd5b505050506040513d601f19601f820116820180604052508101906115059190613455565b61150f91906134bd565b116115555760405162461bcd60e51b815260206004820152601660248201527554686520746f6b656e206973206e6f7420657874726160501b604482015260640161034f565b6000546006546005546040516370a0823160e01b81523060048201526001600160a01b039384169363a9059cbb9316919084906370a0823190602401602060405180830381865afa1580156115ae573d6000803e3d6000fd5b505050506040513d601f19601f820116820180604052508101906115d29190613455565b6115dc91906134bd565b6040516001600160e01b031960e085901b1681526001600160a01b03909216600483015260248201526044015b6020604051808303816000875af1158015611628573d6000803e3d6000fd5b505050506040513d601f19601f82011682018060405250810190610b1391906134f4565b611654612e16565b6007828154811061166757611667613672565b6000918252602091829020604080516101608101909152600b90920201805460ff161515825260018101805492939192918401916116a490613529565b80601f01602080910402602001604051908101604052809291908181526020018280546116d090613529565b801561171d5780601f106116f25761010080835404028352916020019161171d565b820191906000526020600020905b81548152906001019060200180831161170057829003601f168201915b5050505050815260200160028201805480602002602001604051908101604052809291908181526020016000905b828210156117f757838290600052602060002001805461176a90613529565b80601f016020809104026020016040519081016040528092919081815260200182805461179690613529565b80156117e35780601f106117b8576101008083540402835291602001916117e3565b820191906000526020600020905b8154815290600101906020018083116117c657829003601f168201915b50505050508152602001906001019061174b565b5050505081526020016003820180548060200260200160405190810160405280929190818152602001828054801561184e57602002820191906000526020600020905b81548152602001906001019080831161183a575b505050918352505060048201546001600160a01b039081166020830152600583015481166040830152600683015460608301526007830154166080820152600882015460a0820152600982015460c0820152600a9091015460e09091015292915050565b600654600160a01b900460ff16156119045760405162461bcd60e51b8152602060048201526015602482015274115c9c9bdc8e881499595b9d1c985b9d0818d85b1b605a1b604482015260640161034f565b6006805460ff60a01b1916600160a01b179055600780548390811061192b5761192b613672565b90600052602060002090600b020160060154600103611ea2576007828154811061195757611957613672565b600091825260208220600b91909102016008015490546040516370a0823160e01b81523360048201526001600160a01b03909116906370a0823190602401602060405180830381865afa1580156119b2573d6000803e3d6000fd5b505050506040513d601f19601f820116820180604052508101906119d69190613455565b1015611a195760405162461bcd60e51b81526020600482015260126024820152714e6f7420656e6f7567682062616c616e636560701b604482015260640161034f565b60078281548110611a2c57611a2c613672565b90600052602060002090600b0201600801548114611a8c5760405162461bcd60e51b815260206004820152601a60248201527f4e65656420746f20706179206d696e2062657420616d6f756e74000000000000604482015260640161034f565b6000606460035483611a9e9190613484565b611aa8919061349b565b90506000606460045484611abc9190613484565b611ac6919061349b565b9050600081611ad584866134bd565b611adf91906134bd565b6000546040516323b872dd60e01b81529192506001600160a01b0316906323b872dd90611b1690339061dead9088906004016134d0565b6020604051808303816000875af1158015611b35573d6000803e3d6000fd5b505050506040513d601f19601f82011682018060405250810190611b5991906134f4565b506000546002546040516323b872dd60e01b81526001600160a01b03928316926323b872dd92611b939233929091169087906004016134d0565b6020604051808303816000875af1158015611bb2573d6000803e3d6000fd5b505050506040513d601f19601f82011682018060405250810190611bd691906134f4565b506000546040516323b872dd60e01b81526001600160a01b03909116906323b872dd90611c0b903390309086906004016134d0565b6020604051808303816000875af1158015611c2a573d6000803e3d6000fd5b505050506040513d601f19601f82011682018060405250810190611c4e91906134f4565b508060056000828254611c619190613516565b90915550506007805486908110611c7a57611c7a613672565b600091825260209091206004600b9092020101546001600160a01b03163303611cf15760405162461bcd60e51b8152602060048201526024808201527f4572726f723a20596f752063616e6e6f7420706c6179207769746820796f757260448201526339b2b63360e11b606482015260840161034f565b3360078681548110611d0557611d05613672565b90600052602060002090600b020160050160006101000a8154816001600160a01b0302191690836001600160a01b03160217905550600260078681548110611d4f57611d4f613672565b90600052602060002090600b020160060181905550600160078681548110611d7957611d79613672565b90600052602060002090600b020160000160006101000a81548160ff0219169083151502179055508360078681548110611db557611db5613672565b90600052602060002090600b0201600901819055507f2f78808c539fd07cb45456a5d5561c76d3d4005246faccb297481e511abc321a60078681548110611dfe57611dfe613672565b90600052602060002090600b020160040160009054906101000a90046001600160a01b031660078781548110611e3657611e36613672565b6000918252602091829020600b91820201600501546040805160808082528101939093526a53746172742067616d652160a81b60a08401526001600160a01b039485169383019390935292909216908201526060810187905260c00160405180910390a1505050611f3c565b60078281548110611eb557611eb5613672565b90600052602060002090600b020160060154600214611f3c5760405162461bcd60e51b815260206004820152603e60248201527f4e6f772071756575652069732066756c6c2c20747279206c617465722e20476160448201527f6d6520616c72656164792066756c6c20706c73206a6f696e206f746865720000606482015260840161034f565b7f50370b40bd566613cb1b12508c3114409e62c5c8de11be443cafc84462cf569960078381548110611f7057611f70613672565b90600052602060002090600b020183604051611f8d9291906138a9565b60405180910390a150506006805460ff60a01b19169055565b6000546040516370a0823160e01b8152336004820152600a916001600160a01b0316906370a0823190602401602060405180830381865afa158015611fef573d6000803e3d6000fd5b505050506040513d601f19601f820116820180604052508101906120139190613455565b106120605760405162461bcd60e51b815260206004820152601b60248201527f596f75207374696c6c20676f7420656e6f7567687420746f6b656e0000000000604482015260640161034f565b60005460405163a9059cbb60e01b815233600482015268056bc75e2d6310000060248201526001600160a01b039091169063a9059cbb90604401611609565b6000816040516020016120b29190613989565b60405160208183030381529060405280519060200120836040516020016120d99190613989565b604051602081830303815290604052805190602001201490505b92915050565b60606007828154811061210e5761210e613672565b90600052602060002090600b0201600201805480602002602001604051908101604052809291908181526020016000905b828210156121eb57838290600052602060002001805461215e90613529565b80601f016020809104026020016040519081016040528092919081815260200182805461218a90613529565b80156121d75780601f106121ac576101008083540402835291602001916121d7565b820191906000526020600020905b8154815290600101906020018083116121ba57829003601f168201915b50505050508152602001906001019061213f565b505050509050919050565b6006546001600160a01b031633146122405760405162461bcd60e51b815260206004820152600d60248201526c2737ba103a34329037bbb732b960991b604482015260640161034f565b6000546006546040516370a0823160e01b81523060048201526001600160a01b039283169263a9059cbb92169083906370a0823190602401602060405180830381865afa158015612295573d6000803e3d6000fd5b505050506040513d601f19601f820116820180604052508101906115dc9190613455565b6000600782815481106122ce576122ce613672565b60009182526020909120600b90910201600401546001600160a01b031633148061232657506007828154811061230657612306613672565b60009182526020909120600b90910201600501546001600160a01b031633145b6123315760006120f3565b600192915050565b6000805b60085481101561286c5760006008828154811061235c5761235c613672565b906000526020600020018054806020026020016040519081016040528092919081815260200182805480156123b057602002820191906000526020600020905b81548152602001906001019080831161239c575b505050505090506000600785815481106123cc576123cc613672565b90600052602060002090600b0201600201826000815181106123f0576123f0613672565b60200260200101518154811061240857612408613672565b90600052602060002001805461241d90613529565b80601f016020809104026020016040519081016040528092919081815260200182805461244990613529565b80156124965780601f1061246b57610100808354040283529160200191612496565b820191906000526020600020905b81548152906001019060200180831161247957829003601f168201915b505050505090506000600786815481106124b2576124b2613672565b90600052602060002090600b0201600201836001815181106124d6576124d6613672565b6020026020010151815481106124ee576124ee613672565b90600052602060002001805461250390613529565b80601f016020809104026020016040519081016040528092919081815260200182805461252f90613529565b801561257c5780601f106125515761010080835404028352916020019161257c565b820191906000526020600020905b81548152906001019060200180831161255f57829003601f168201915b5050505050905060006007878154811061259857612598613672565b90600052602060002090600b0201600201846002815181106125bc576125bc613672565b6020026020010151815481106125d4576125d4613672565b9060005260206000200180546125e990613529565b80601f016020809104026020016040519081016040528092919081815260200182805461261590613529565b80156126625780601f1061263757610100808354040283529160200191612662565b820191906000526020600020905b81548152906001019060200180831161264557829003601f168201915b50505050509050612682836040518060200160405280600081525061209f565b806126a157506126a1826040518060200160405280600081525061209f565b806126c057506126c0816040518060200160405280600081525061209f565b156126ce575050505061285a565b6126d8838361209f565b80156126e957506126e9828261209f565b1561285557836007888154811061270257612702613672565b90600052602060002090600b02016003019080519060200190612726929190612ee3565b5061273d600788815481106110cc576110cc613672565b156127c7576007878154811061275557612755613672565b90600052602060002090600b020160040160009054906101000a90046001600160a01b03166007888154811061278d5761278d613672565b90600052602060002090600b020160070160006101000a8154816001600160a01b0302191690836001600160a01b03160217905550612848565b600787815481106127da576127da613672565b90600052602060002090600b020160050160009054906101000a90046001600160a01b03166007888154811061281257612812613672565b90600052602060002090600b020160070160006101000a8154816001600160a01b0302191690836001600160a01b031602179055505b600195505050505061286c565b505050505b8061286481613688565b91505061233d565b508015612b5157612889600783815481106110cc576110cc613672565b1561298357600054600780546001600160a01b039092169163a9059cbb9190859081106128b8576128b8613672565b90600052602060002090600b020160040160009054906101000a90046001600160a01b0316600785815481106128f0576128f0613672565b90600052602060002090600b0201600a0154600261290e9190613484565b6040516001600160e01b031960e085901b1681526001600160a01b03909216600483015260248201526044016020604051808303816000875af1158015612959573d6000803e3d6000fd5b505050506040513d601f19601f8201168201806040525081019061297d91906134f4565b50612a74565b600054600780546001600160a01b039092169163a9059cbb9190859081106129ad576129ad613672565b90600052602060002090600b020160050160009054906101000a90046001600160a01b0316600785815481106129e5576129e5613672565b90600052602060002090600b0201600a01546002612a039190613484565b6040516001600160e01b031960e085901b1681526001600160a01b03909216600483015260248201526044016020604051808303816000875af1158015612a4e573d6000803e3d6000fd5b505050506040513d601f19601f82011682018060405250810190612a7291906134f4565b505b60078281548110612a8757612a87613672565b90600052602060002090600b0201600a01546002612aa59190613484565b60056000828254612ab691906134bd565b925050819055507f938a1c44580c51d01225d61fb97878104148b1cdc734eb45bc5b5b50533a492d60078381548110612af157612af1613672565b90600052602060002090600b020160010183604051612b119291906139a5565b60405180910390a1600060078381548110612b2e57612b2e613672565b60009182526020909120600b90910201805460ff19169115159190911790555050565b612b5a82612bb6565b15612bad5760408051818152600491810191909152634472617760e01b6060820152602081018390527f938a1c44580c51d01225d61fb97878104148b1cdc734eb45bc5b5b50533a492d90608001612b11565b61134e82612c4a565b6000805b60078381548110612bcd57612bcd613672565b90600052602060002090600b020160020180549050811015612c4157612c2160078481548110612bff57612bff613672565b90600052602060002090600b02016002018281548110610fd257610fd2613672565b15612c2f5750600092915050565b80612c3981613688565b915050612bba565b50600192915050565b612c60600782815481106110cc576110cc613672565b15612cd3577feefc3fd775b975165c9d067e02fcd5bf5889d58041ae6ddaf94f2cc85300727260078281548110612c9957612c99613672565b6000918252602091829020600b9091020160050154604080516001600160a01b0390921682529181018490520160405180910390a1612d3d565b7feefc3fd775b975165c9d067e02fcd5bf5889d58041ae6ddaf94f2cc85300727260078281548110612d0757612d07613672565b6000918252602091829020600b9091020160040154604080516001600160a01b0390921682529181018490520160405180910390a15b612d53600782815481106110cc576110cc613672565b612d7657604051806040016040528060018152602001600b60fb1b815250612d91565b604051806040016040528060018152602001604f60f81b8152505b60078281548110612da457612da4613672565b90600052602060002090600b02016001019081612dc191906135b2565b507fa6d1cb5f730b987124c37c3876130fddba49456449948ec4257360f5ab2851c060078281548110612df657612df6613672565b90600052602060002090600b020160010182604051610f1c9291906139a5565b60405180610160016040528060001515815260200160608152602001606081526020016060815260200160006001600160a01b0316815260200160006001600160a01b031681526020016000815260200160006001600160a01b031681526020016000815260200160008152602001600081525090565b828054828255906000526020600020908101928215612ed3579160200282015b82811115612ed35782518290612ec390826135b2565b5091602001919060010190612ead565b50612edf929150612f70565b5090565b828054828255906000526020600020908101928215612f1e579160200282015b82811115612f1e578251825591602001919060010190612f03565b50612edf929150612f8d565b828054828255906000526020600020908101928215612ed3579160200282015b82811115612ed35782518290612f6090826135b2565b5091602001919060010190612f4a565b80821115612edf576000612f848282612fa2565b50600101612f70565b5b80821115612edf5760008155600101612f8e565b508054612fae90613529565b6000825580601f10612fbe575050565b601f016020900490600052602060002090810190610b139190612f8d565b600060208284031215612fee57600080fd5b5035919050565b6020808252825182820181905260009190848201906040850190845b8181101561302d57835183529284019291840191600101613011565b50909695505050505050565b60005b8381101561305457818101518382015260200161303c565b50506000910152565b60008151808452613075816020860160208601613039565b601f01601f19169290920160200192915050565b600082825180855260208086019550808260051b84010181860160005b848110156130d457601f198684030189526130c283835161305d565b988401989250908301906001016130a6565b5090979650505050505050565b600081518084526020808501945080840160005b83811015613111578151875295820195908201906001016130f5565b509495945050505050565b8051151582526000610160602083015181602086015261313e8286018261305d565b915050604083015184820360408601526131588282613089565b9150506060830151848203606086015261317282826130e1565b915050608083015161318f60808601826001600160a01b03169052565b5060a08301516131aa60a08601826001600160a01b03169052565b5060c083015160c085015260e08301516131cf60e08601826001600160a01b03169052565b50610100838101519085015261012080840151908501526101409283015192909301919091525090565b6000602080830181845280855180835260408601915060408160051b870101925083870160005b8281101561324e57603f1988860301845261323c85835161311c565b94509285019290850190600101613220565b5092979650505050505050565b6000806040838503121561326e57600080fd5b50508035926020909101359150565b60006101208b151583528060208401526132998184018c61305d565b6001600160a01b039a8b166040850152988a166060840152505060808101959095529290951660a084015260c083015260e0820193909352610100019190915292915050565b6020815260006132f2602083018461311c565b9392505050565b634e487b7160e01b600052604160045260246000fd5b600082601f83011261332057600080fd5b813567ffffffffffffffff8082111561333b5761333b6132f9565b604051601f8301601f19908116603f01168101908282118183101715613363576133636132f9565b8160405283815286602085880101111561337c57600080fd5b836020870160208301376000602085830101528094505050505092915050565b600080604083850312156133af57600080fd5b823567ffffffffffffffff808211156133c757600080fd5b6133d38683870161330f565b935060208501359150808211156133e957600080fd5b506133f68582860161330f565b9150509250929050565b6000602080830181845280855180835260408601915060408160051b870101925083870160005b8281101561324e57603f1988860301845261344385835161305d565b94509285019290850190600101613427565b60006020828403121561346757600080fd5b5051919050565b634e487b7160e01b600052601160045260246000fd5b80820281158282048414176120f3576120f361346e565b6000826134b857634e487b7160e01b600052601260045260246000fd5b500490565b818103818111156120f3576120f361346e565b6001600160a01b039384168152919092166020820152604081019190915260600190565b60006020828403121561350657600080fd5b815180151581146132f257600080fd5b808201808211156120f3576120f361346e565b600181811c9082168061353d57607f821691505b60208210810361355d57634e487b7160e01b600052602260045260246000fd5b50919050565b601f8211156135ad57600081815260208120601f850160051c8101602086101561358a5750805b601f850160051c820191505b818110156135a957828155600101613596565b5050505b505050565b815167ffffffffffffffff8111156135cc576135cc6132f9565b6135e0816135da8454613529565b84613563565b602080601f83116001811461361557600084156135fd5750858301515b600019600386901b1c1916600185901b1785556135a9565b600085815260208120601f198616915b8281101561364457888601518255948401946001909101908401613625565b50858210156136625787850151600019600388901b60f8161c191681555b5050505050600190811b01905550565b634e487b7160e01b600052603260045260246000fd5b60006001820161369a5761369a61346e565b5060010190565b8181036136ac575050565b6136b68254613529565b67ffffffffffffffff8111156136ce576136ce6132f9565b6136dc816135da8454613529565b6000601f82116001811461371057600083156136f85750848201545b600019600385901b1c1916600184901b178455613775565b600085815260209020601f19841690600086815260209020845b8381101561374a578286015482556001958601959091019060200161372a565b50858310156137685781850154600019600388901b60f8161c191681555b50505060018360011b0184555b5050505050565b6000815461378981613529565b8085526020600183811680156137a657600181146137c0576137ee565b60ff1985168884015283151560051b8801830195506137ee565b866000528260002060005b858110156137e65781548a82018601529083019084016137cb565b890184019650505b505050505092915050565b600081548084526020808501808196508360051b81019150856000528260002060005b85811015613845578284038952613833848361377c565b9885019893506001918201910161381c565b5091979650505050505050565b60408152600061386560408301856137f9565b90508260208301529392505050565b6000815480845260208085019450836000528060002060005b838110156131115781548752958201956001918201910161388d565b604081526138c5604082016138bf855460ff1690565b15159052565b60006101608060608401526138e16101a084016001870161377c565b603f19808583030160808601526138fb82600289016137f9565b9150808583030160a0860152506139158160038801613874565b905061392b60048701546001600160a01b031690565b6001600160a01b0390811660c08601526005870154811660e086015260068701546101008601526007870154166101208501526008860154610140850152600986015491840191909152600a90940154610180830152506020015290565b6000825161399b818460208701613039565b9190910192915050565b604081526000613865604083018561377c56fea2646970667358221220d96f601d153ab01379af3dd0b673a07461a383fc632f94185b5deb3bdcc8ed7a64736f6c63430008130033",
			"opcodes": "PUSH1 0x0 DUP1 SLOAD PUSH1 0x1 PUSH1 0x1 PUSH1 0xA0 SHL SUB NOT SWAP1 DUP2 AND PUSH20 0xC6BDDCD0DA1C50281F02A57B8D2ADA2EBF76AEC7 OR DUP3 SSTORE PUSH1 0xA PUSH1 0x1 SWAP1 DUP2 SSTORE PUSH1 0x2 DUP1 SLOAD SWAP1 SWAP3 AND PUSH20 0x3CE5A8A72820585C60F659896338D57347196991 OR DUP3 SSTORE PUSH1 0x5 PUSH1 0x3 DUP2 DUP2 SSTORE PUSH1 0x4 DUP3 DUP2 SSTORE PUSH2 0x180 DUP7 DUP2 MSTORE PUSH2 0x1A0 DUP6 SWAP1 MSTORE PUSH2 0x1C0 DUP7 SWAP1 MSTORE PUSH1 0x80 SWAP1 DUP2 MSTORE PUSH2 0x1E0 DUP4 DUP2 MSTORE PUSH2 0x200 DUP4 SWAP1 MSTORE PUSH2 0x220 DUP6 SWAP1 MSTORE PUSH1 0xA0 MSTORE PUSH1 0x6 PUSH2 0x240 DUP2 DUP2 MSTORE PUSH1 0x7 PUSH2 0x260 DUP2 SWAP1 MSTORE PUSH1 0x8 PUSH2 0x280 DUP2 SWAP1 MSTORE PUSH1 0xC0 SWAP3 SWAP1 SWAP3 MSTORE PUSH2 0x2A0 DUP11 DUP2 MSTORE PUSH2 0x2C0 SWAP7 SWAP1 SWAP7 MSTORE PUSH2 0x2E0 DUP4 SWAP1 MSTORE PUSH1 0xE0 SWAP6 SWAP1 SWAP6 MSTORE PUSH2 0x300 SWAP7 DUP8 MSTORE PUSH2 0x320 DUP5 SWAP1 MSTORE PUSH2 0x340 SWAP5 SWAP1 SWAP5 MSTORE PUSH2 0x100 SWAP6 SWAP1 SWAP6 MSTORE PUSH2 0x360 DUP7 DUP2 MSTORE PUSH2 0x380 SWAP5 SWAP1 SWAP5 MSTORE PUSH2 0x3A0 DUP4 SWAP1 MSTORE PUSH2 0x120 SWAP4 SWAP1 SWAP4 MSTORE PUSH2 0x3C0 SWAP6 DUP7 MSTORE PUSH2 0x3E0 DUP2 SWAP1 MSTORE PUSH2 0x400 DUP3 SWAP1 MSTORE PUSH2 0x140 SWAP6 SWAP1 SWAP6 MSTORE PUSH2 0x480 PUSH1 0x40 MSTORE PUSH2 0x420 SWAP4 DUP5 MSTORE PUSH2 0x440 SWAP5 SWAP1 SWAP5 MSTORE PUSH2 0x460 SWAP2 SWAP1 SWAP2 MSTORE PUSH2 0x160 SWAP2 SWAP1 SWAP2 MSTORE PUSH3 0x137 SWAP2 SWAP1 DUP2 PUSH3 0x15E JUMP JUMPDEST POP CALLVALUE DUP1 ISZERO PUSH3 0x145 JUMPI PUSH1 0x0 DUP1 REVERT JUMPDEST POP PUSH1 0x6 DUP1 SLOAD PUSH1 0x1 PUSH1 0x1 PUSH1 0xA0 SHL SUB NOT AND CALLER OR SWAP1 SSTORE PUSH3 0x268 JUMP JUMPDEST DUP3 DUP1 SLOAD DUP3 DUP3 SSTORE SWAP1 PUSH1 0x0 MSTORE PUSH1 0x20 PUSH1 0x0 KECCAK256 SWAP1 DUP2 ADD SWAP3 DUP3 ISZERO PUSH3 0x1AA JUMPI SWAP2 PUSH1 0x20 MUL DUP3 ADD JUMPDEST DUP3 DUP2 GT ISZERO PUSH3 0x1AA JUMPI DUP3 MLOAD PUSH3 0x199 SWAP1 DUP4 SWAP1 PUSH1 0x3 PUSH3 0x1BC JUMP JUMPDEST POP SWAP2 PUSH1 0x20 ADD SWAP2 SWAP1 PUSH1 0x1 ADD SWAP1 PUSH3 0x17F JUMP JUMPDEST POP PUSH3 0x1B8 SWAP3 SWAP2 POP PUSH3 0x20D JUMP JUMPDEST POP SWAP1 JUMP JUMPDEST DUP3 DUP1 SLOAD DUP3 DUP3 SSTORE SWAP1 PUSH1 0x0 MSTORE PUSH1 0x20 PUSH1 0x0 KECCAK256 SWAP1 DUP2 ADD SWAP3 DUP3 ISZERO PUSH3 0x1FF JUMPI SWAP2 PUSH1 0x20 MUL DUP3 ADD JUMPDEST DUP3 DUP2 GT ISZERO PUSH3 0x1FF JUMPI DUP3 MLOAD DUP3 SWAP1 PUSH1 0xFF AND SWAP1 SSTORE SWAP2 PUSH1 0x20 ADD SWAP2 SWAP1 PUSH1 0x1 ADD SWAP1 PUSH3 0x1DD JUMP JUMPDEST POP PUSH3 0x1B8 SWAP3 SWAP2 POP PUSH3 0x22E JUMP JUMPDEST DUP1 DUP3 GT ISZERO PUSH3 0x1B8 JUMPI PUSH1 0x0 PUSH3 0x224 DUP3 DUP3 PUSH3 0x245 JUMP JUMPDEST POP PUSH1 0x1 ADD PUSH3 0x20D JUMP JUMPDEST JUMPDEST DUP1 DUP3 GT ISZERO PUSH3 0x1B8 JUMPI PUSH1 0x0 DUP2 SSTORE PUSH1 0x1 ADD PUSH3 0x22F JUMP JUMPDEST POP DUP1 SLOAD PUSH1 0x0 DUP3 SSTORE SWAP1 PUSH1 0x0 MSTORE PUSH1 0x20 PUSH1 0x0 KECCAK256 SWAP1 DUP2 ADD SWAP1 PUSH3 0x265 SWAP2 SWAP1 PUSH3 0x22E JUMP JUMPDEST POP JUMP JUMPDEST PUSH2 0x39EE DUP1 PUSH3 0x278 PUSH1 0x0 CODECOPY PUSH1 0x0 RETURN INVALID PUSH1 0x80 PUSH1 0x40 MSTORE CALLVALUE DUP1 ISZERO PUSH2 0x10 JUMPI PUSH1 0x0 DUP1 REVERT JUMPDEST POP PUSH1 0x4 CALLDATASIZE LT PUSH2 0x137 JUMPI PUSH1 0x0 CALLDATALOAD PUSH1 0xE0 SHR DUP1 PUSH4 0x888B042F GT PUSH2 0xB8 JUMPI DUP1 PUSH4 0xBED34BBA GT PUSH2 0x7C JUMPI DUP1 PUSH4 0xBED34BBA EQ PUSH2 0x29B JUMPI DUP1 PUSH4 0xCC32D176 EQ PUSH2 0x2BE JUMPI DUP1 PUSH4 0xDC572C6E EQ PUSH2 0x2C7 JUMPI DUP1 PUSH4 0xEDB84FF7 EQ PUSH2 0x2E7 JUMPI DUP1 PUSH4 0xFA968EEA EQ PUSH2 0x2EF JUMPI DUP1 PUSH4 0xFCE589D8 EQ PUSH2 0x2F8 JUMPI PUSH1 0x0 DUP1 REVERT JUMPDEST DUP1 PUSH4 0x888B042F EQ PUSH2 0x245 JUMPI DUP1 PUSH4 0x8DA5CB5B EQ PUSH2 0x24D JUMPI DUP1 PUSH4 0xB2182BE4 EQ PUSH2 0x260 JUMPI DUP1 PUSH4 0xB60B9FCB EQ PUSH2 0x280 JUMPI DUP1 PUSH4 0xB7B524A1 EQ PUSH2 0x293 JUMPI PUSH1 0x0 DUP1 REVERT JUMPDEST DUP1 PUSH4 0x4A968391 GT PUSH2 0xFF JUMPI DUP1 PUSH4 0x4A968391 EQ PUSH2 0x1B9 JUMPI DUP1 PUSH4 0x52BC3410 EQ PUSH2 0x1CC JUMPI DUP1 PUSH4 0x61D027B3 EQ PUSH2 0x1DF JUMPI DUP1 PUSH4 0x7EFFB427 EQ PUSH2 0x20A JUMPI DUP1 PUSH4 0x87052FAB EQ PUSH2 0x21D JUMPI PUSH1 0x0 DUP1 REVERT JUMPDEST DUP1 PUSH4 0x6139E8D EQ PUSH2 0x13C JUMPI DUP1 PUSH4 0x17B44960 EQ PUSH2 0x151 JUMPI DUP1 PUSH4 0x1A39D8EF EQ PUSH2 0x17A JUMPI DUP1 PUSH4 0x34FD3518 EQ PUSH2 0x191 JUMPI DUP1 PUSH4 0x491F0136 EQ PUSH2 0x1A4 JUMPI JUMPDEST PUSH1 0x0 DUP1 REVERT JUMPDEST PUSH2 0x14F PUSH2 0x14A CALLDATASIZE PUSH1 0x4 PUSH2 0x2FDC JUMP JUMPDEST PUSH2 0x301 JUMP JUMPDEST STOP JUMPDEST PUSH2 0x164 PUSH2 0x15F CALLDATASIZE PUSH1 0x4 PUSH2 0x2FDC JUMP JUMPDEST PUSH2 0x9D0 JUMP JUMPDEST PUSH1 0x40 MLOAD PUSH2 0x171 SWAP2 SWAP1 PUSH2 0x2FF5 JUMP JUMPDEST PUSH1 0x40 MLOAD DUP1 SWAP2 SUB SWAP1 RETURN JUMPDEST PUSH2 0x183 PUSH1 0x5 SLOAD DUP2 JUMP JUMPDEST PUSH1 0x40 MLOAD SWAP1 DUP2 MSTORE PUSH1 0x20 ADD PUSH2 0x171 JUMP JUMPDEST PUSH2 0x14F PUSH2 0x19F CALLDATASIZE PUSH1 0x4 PUSH2 0x2FDC JUMP JUMPDEST PUSH2 0xA4C JUMP JUMPDEST PUSH2 0x1AC PUSH2 0xB16 JUMP JUMPDEST PUSH1 0x40 MLOAD PUSH2 0x171 SWAP2 SWAP1 PUSH2 0x31F9 JUMP JUMPDEST PUSH2 0x14F PUSH2 0x1C7 CALLDATASIZE PUSH1 0x4 PUSH2 0x2FDC JUMP JUMPDEST PUSH2 0xDA7 JUMP JUMPDEST PUSH2 0x14F PUSH2 0x1DA CALLDATASIZE PUSH1 0x4 PUSH2 0x325B JUMP JUMPDEST PUSH2 0xF27 JUMP JUMPDEST PUSH1 0x2 SLOAD PUSH2 0x1F2 SWAP1 PUSH1 0x1 PUSH1 0x1 PUSH1 0xA0 SHL SUB AND DUP2 JUMP JUMPDEST PUSH1 0x40 MLOAD PUSH1 0x1 PUSH1 0x1 PUSH1 0xA0 SHL SUB SWAP1 SWAP2 AND DUP2 MSTORE PUSH1 0x20 ADD PUSH2 0x171 JUMP JUMPDEST PUSH1 0x0 SLOAD PUSH2 0x1F2 SWAP1 PUSH1 0x1 PUSH1 0x1 PUSH1 0xA0 SHL SUB AND DUP2 JUMP JUMPDEST PUSH2 0x230 PUSH2 0x22B CALLDATASIZE PUSH1 0x4 PUSH2 0x2FDC JUMP JUMPDEST PUSH2 0x1352 JUMP JUMPDEST PUSH1 0x40 MLOAD PUSH2 0x171 SWAP10 SWAP9 SWAP8 SWAP7 SWAP6 SWAP5 SWAP4 SWAP3 SWAP2 SWAP1 PUSH2 0x327D JUMP JUMPDEST PUSH2 0x14F PUSH2 0x1448 JUMP JUMPDEST PUSH1 0x6 SLOAD PUSH2 0x1F2 SWAP1 PUSH1 0x1 PUSH1 0x1 PUSH1 0xA0 SHL SUB AND DUP2 JUMP JUMPDEST PUSH2 0x273 PUSH2 0x26E CALLDATASIZE PUSH1 0x4 PUSH2 0x2FDC JUMP JUMPDEST PUSH2 0x164C JUMP JUMPDEST PUSH1 0x40 MLOAD PUSH2 0x171 SWAP2 SWAP1 PUSH2 0x32DF JUMP JUMPDEST PUSH2 0x14F PUSH2 0x28E CALLDATASIZE PUSH1 0x4 PUSH2 0x325B JUMP JUMPDEST PUSH2 0x18B2 JUMP JUMPDEST PUSH2 0x14F PUSH2 0x1FA6 JUMP JUMPDEST PUSH2 0x2AE PUSH2 0x2A9 CALLDATASIZE PUSH1 0x4 PUSH2 0x339C JUMP JUMPDEST PUSH2 0x209F JUMP JUMPDEST PUSH1 0x40 MLOAD SWAP1 ISZERO ISZERO DUP2 MSTORE PUSH1 0x20 ADD PUSH2 0x171 JUMP JUMPDEST PUSH2 0x183 PUSH1 0x4 SLOAD DUP2 JUMP JUMPDEST PUSH2 0x2DA PUSH2 0x2D5 CALLDATASIZE PUSH1 0x4 PUSH2 0x2FDC JUMP JUMPDEST PUSH2 0x20F9 JUMP JUMPDEST PUSH1 0x40 MLOAD PUSH2 0x171 SWAP2 SWAP1 PUSH2 0x3400 JUMP JUMPDEST PUSH2 0x14F PUSH2 0x21F6 JUMP JUMPDEST PUSH2 0x183 PUSH1 0x1 SLOAD DUP2 JUMP JUMPDEST PUSH2 0x183 PUSH1 0x3 SLOAD DUP2 JUMP JUMPDEST PUSH1 0x6 SLOAD PUSH1 0x1 PUSH1 0xA0 SHL SWAP1 DIV PUSH1 0xFF AND ISZERO PUSH2 0x358 JUMPI PUSH1 0x40 MLOAD PUSH3 0x461BCD PUSH1 0xE5 SHL DUP2 MSTORE PUSH1 0x20 PUSH1 0x4 DUP3 ADD MSTORE PUSH1 0x15 PUSH1 0x24 DUP3 ADD MSTORE PUSH21 0x115C9C9BDC8E881499595B9D1C985B9D0818D85B1B PUSH1 0x5A SHL PUSH1 0x44 DUP3 ADD MSTORE PUSH1 0x64 ADD JUMPDEST PUSH1 0x40 MLOAD DUP1 SWAP2 SUB SWAP1 REVERT JUMPDEST PUSH1 0x6 DUP1 SLOAD PUSH1 0xFF PUSH1 0xA0 SHL NOT AND PUSH1 0x1 PUSH1 0xA0 SHL OR SWAP1 SSTORE PUSH1 0x0 SLOAD PUSH1 0x40 MLOAD PUSH4 0x70A08231 PUSH1 0xE0 SHL DUP2 MSTORE CALLER PUSH1 0x4 DUP3 ADD MSTORE DUP3 SWAP2 PUSH1 0x1 PUSH1 0x1 PUSH1 0xA0 SHL SUB AND SWAP1 PUSH4 0x70A08231 SWAP1 PUSH1 0x24 ADD PUSH1 0x20 PUSH1 0x40 MLOAD DUP1 DUP4 SUB DUP2 DUP7 GAS STATICCALL ISZERO DUP1 ISZERO PUSH2 0x3B3 JUMPI RETURNDATASIZE PUSH1 0x0 DUP1 RETURNDATACOPY RETURNDATASIZE PUSH1 0x0 REVERT JUMPDEST POP POP POP POP PUSH1 0x40 MLOAD RETURNDATASIZE PUSH1 0x1F NOT PUSH1 0x1F DUP3 ADD AND DUP3 ADD DUP1 PUSH1 0x40 MSTORE POP DUP2 ADD SWAP1 PUSH2 0x3D7 SWAP2 SWAP1 PUSH2 0x3455 JUMP JUMPDEST LT ISZERO PUSH2 0x41A JUMPI PUSH1 0x40 MLOAD PUSH3 0x461BCD PUSH1 0xE5 SHL DUP2 MSTORE PUSH1 0x20 PUSH1 0x4 DUP3 ADD MSTORE PUSH1 0x12 PUSH1 0x24 DUP3 ADD MSTORE PUSH18 0x4E6F7420656E6F7567682062616C616E6365 PUSH1 0x70 SHL PUSH1 0x44 DUP3 ADD MSTORE PUSH1 0x64 ADD PUSH2 0x34F JUMP JUMPDEST PUSH1 0x1 SLOAD DUP2 LT ISZERO PUSH2 0x46C JUMPI PUSH1 0x40 MLOAD PUSH3 0x461BCD PUSH1 0xE5 SHL DUP2 MSTORE PUSH1 0x20 PUSH1 0x4 DUP3 ADD MSTORE PUSH1 0x1A PUSH1 0x24 DUP3 ADD MSTORE PUSH32 0x4E65656420746F20706179206D696E2062657420616D6F756E74000000000000 PUSH1 0x44 DUP3 ADD MSTORE PUSH1 0x64 ADD PUSH2 0x34F JUMP JUMPDEST PUSH1 0x0 PUSH1 0x64 PUSH1 0x3 SLOAD DUP4 PUSH2 0x47E SWAP2 SWAP1 PUSH2 0x3484 JUMP JUMPDEST PUSH2 0x488 SWAP2 SWAP1 PUSH2 0x349B JUMP JUMPDEST SWAP1 POP PUSH1 0x0 PUSH1 0x64 PUSH1 0x4 SLOAD DUP5 PUSH2 0x49C SWAP2 SWAP1 PUSH2 0x3484 JUMP JUMPDEST PUSH2 0x4A6 SWAP2 SWAP1 PUSH2 0x349B JUMP JUMPDEST SWAP1 POP PUSH1 0x0 DUP2 PUSH2 0x4B5 DUP5 DUP7 PUSH2 0x34BD JUMP JUMPDEST PUSH2 0x4BF SWAP2 SWAP1 PUSH2 0x34BD JUMP JUMPDEST PUSH1 0x0 SLOAD PUSH1 0x40 MLOAD PUSH4 0x23B872DD PUSH1 0xE0 SHL DUP2 MSTORE SWAP2 SWAP3 POP PUSH1 0x1 PUSH1 0x1 PUSH1 0xA0 SHL SUB AND SWAP1 PUSH4 0x23B872DD SWAP1 PUSH2 0x4F6 SWAP1 CALLER SWAP1 PUSH2 0xDEAD SWAP1 DUP9 SWAP1 PUSH1 0x4 ADD PUSH2 0x34D0 JUMP JUMPDEST PUSH1 0x20 PUSH1 0x40 MLOAD DUP1 DUP4 SUB DUP2 PUSH1 0x0 DUP8 GAS CALL ISZERO DUP1 ISZERO PUSH2 0x515 JUMPI RETURNDATASIZE PUSH1 0x0 DUP1 RETURNDATACOPY RETURNDATASIZE PUSH1 0x0 REVERT JUMPDEST POP POP POP POP PUSH1 0x40 MLOAD RETURNDATASIZE PUSH1 0x1F NOT PUSH1 0x1F DUP3 ADD AND DUP3 ADD DUP1 PUSH1 0x40 MSTORE POP DUP2 ADD SWAP1 PUSH2 0x539 SWAP2 SWAP1 PUSH2 0x34F4 JUMP JUMPDEST POP PUSH1 0x0 SLOAD PUSH1 0x2 SLOAD PUSH1 0x40 MLOAD PUSH4 0x23B872DD PUSH1 0xE0 SHL DUP2 MSTORE PUSH1 0x1 PUSH1 0x1 PUSH1 0xA0 SHL SUB SWAP3 DUP4 AND SWAP3 PUSH4 0x23B872DD SWAP3 PUSH2 0x573 SWAP3 CALLER SWAP3 SWAP1 SWAP2 AND SWAP1 DUP8 SWAP1 PUSH1 0x4 ADD PUSH2 0x34D0 JUMP JUMPDEST PUSH1 0x20 PUSH1 0x40 MLOAD DUP1 DUP4 SUB DUP2 PUSH1 0x0 DUP8 GAS CALL ISZERO DUP1 ISZERO PUSH2 0x592 JUMPI RETURNDATASIZE PUSH1 0x0 DUP1 RETURNDATACOPY RETURNDATASIZE PUSH1 0x0 REVERT JUMPDEST POP POP POP POP PUSH1 0x40 MLOAD RETURNDATASIZE PUSH1 0x1F NOT PUSH1 0x1F DUP3 ADD AND DUP3 ADD DUP1 PUSH1 0x40 MSTORE POP DUP2 ADD SWAP1 PUSH2 0x5B6 SWAP2 SWAP1 PUSH2 0x34F4 JUMP JUMPDEST POP PUSH1 0x0 SLOAD PUSH1 0x40 MLOAD PUSH4 0x23B872DD PUSH1 0xE0 SHL DUP2 MSTORE PUSH1 0x1 PUSH1 0x1 PUSH1 0xA0 SHL SUB SWAP1 SWAP2 AND SWAP1 PUSH4 0x23B872DD SWAP1 PUSH2 0x5EB SWAP1 CALLER SWAP1 ADDRESS SWAP1 DUP7 SWAP1 PUSH1 0x4 ADD PUSH2 0x34D0 JUMP JUMPDEST PUSH1 0x20 PUSH1 0x40 MLOAD DUP1 DUP4 SUB DUP2 PUSH1 0x0 DUP8 GAS CALL ISZERO DUP1 ISZERO PUSH2 0x60A JUMPI RETURNDATASIZE PUSH1 0x0 DUP1 RETURNDATACOPY RETURNDATASIZE PUSH1 0x0 REVERT JUMPDEST POP POP POP POP PUSH1 0x40 MLOAD RETURNDATASIZE PUSH1 0x1F NOT PUSH1 0x1F DUP3 ADD AND DUP3 ADD DUP1 PUSH1 0x40 MSTORE POP DUP2 ADD SWAP1 PUSH2 0x62E SWAP2 SWAP1 PUSH2 0x34F4 JUMP JUMPDEST POP DUP1 PUSH1 0x5 PUSH1 0x0 DUP3 DUP3 SLOAD PUSH2 0x641 SWAP2 SWAP1 PUSH2 0x3516 JUMP JUMPDEST SWAP1 SWAP2 SSTORE POP PUSH2 0x64F SWAP1 POP PUSH2 0x2E16 JUMP JUMPDEST PUSH1 0x7 DUP1 SLOAD PUSH1 0x1 DUP2 ADD DUP3 SSTORE PUSH1 0x0 SWAP2 SWAP1 SWAP2 MSTORE DUP2 MLOAD PUSH32 0xA66CC928B5EDB82AF9BD49922954155AB7B0942694BEA4CE44661D9A8736C688 PUSH1 0xB SWAP1 SWAP3 MUL SWAP2 DUP3 ADD DUP1 SLOAD PUSH1 0xFF NOT AND SWAP2 ISZERO ISZERO SWAP2 SWAP1 SWAP2 OR DUP2 SSTORE PUSH1 0x20 DUP4 ADD MLOAD DUP4 SWAP3 PUSH32 0xA66CC928B5EDB82AF9BD49922954155AB7B0942694BEA4CE44661D9A8736C689 ADD SWAP1 PUSH2 0x6CD SWAP1 DUP3 PUSH2 0x35B2 JUMP JUMPDEST POP PUSH1 0x40 DUP3 ADD MLOAD DUP1 MLOAD PUSH2 0x6E9 SWAP2 PUSH1 0x2 DUP5 ADD SWAP2 PUSH1 0x20 SWAP1 SWAP2 ADD SWAP1 PUSH2 0x2E8D JUMP JUMPDEST POP PUSH1 0x60 DUP3 ADD MLOAD DUP1 MLOAD PUSH2 0x705 SWAP2 PUSH1 0x3 DUP5 ADD SWAP2 PUSH1 0x20 SWAP1 SWAP2 ADD SWAP1 PUSH2 0x2EE3 JUMP JUMPDEST POP PUSH1 0x80 DUP3 ADD MLOAD PUSH1 0x4 DUP3 ADD DUP1 SLOAD PUSH1 0x1 PUSH1 0x1 PUSH1 0xA0 SHL SUB NOT SWAP1 DUP2 AND PUSH1 0x1 PUSH1 0x1 PUSH1 0xA0 SHL SUB SWAP4 DUP5 AND OR SWAP1 SWAP2 SSTORE PUSH1 0xA0 DUP5 ADD MLOAD PUSH1 0x5 DUP5 ADD DUP1 SLOAD DUP4 AND SWAP2 DUP5 AND SWAP2 SWAP1 SWAP2 OR SWAP1 SSTORE PUSH1 0xC0 DUP5 ADD MLOAD PUSH1 0x6 DUP5 ADD SSTORE PUSH1 0xE0 DUP5 ADD MLOAD PUSH1 0x7 DUP1 DUP6 ADD DUP1 SLOAD SWAP1 SWAP4 AND SWAP2 SWAP1 SWAP4 AND OR SWAP1 SSTORE PUSH2 0x100 DUP4 ADD MLOAD PUSH1 0x8 DUP4 ADD SSTORE PUSH2 0x120 DUP4 ADD MLOAD PUSH1 0x9 DUP4 ADD SSTORE PUSH2 0x140 SWAP1 SWAP3 ADD MLOAD PUSH1 0xA SWAP1 SWAP2 ADD SSTORE DUP1 SLOAD SWAP1 CALLER SWAP1 PUSH2 0x795 PUSH1 0x1 DUP5 PUSH2 0x34BD JUMP JUMPDEST DUP2 SLOAD DUP2 LT PUSH2 0x7A5 JUMPI PUSH2 0x7A5 PUSH2 0x3672 JUMP JUMPDEST PUSH1 0x0 SWAP2 DUP3 MSTORE PUSH1 0x20 DUP3 KECCAK256 PUSH1 0xB SWAP2 SWAP1 SWAP2 MUL ADD PUSH1 0x4 ADD DUP1 SLOAD PUSH1 0x1 PUSH1 0x1 PUSH1 0xA0 SHL SUB NOT AND PUSH1 0x1 PUSH1 0x1 PUSH1 0xA0 SHL SUB SWAP4 SWAP1 SWAP4 AND SWAP3 SWAP1 SWAP3 OR SWAP1 SWAP2 SSTORE PUSH1 0x7 PUSH2 0x7E4 PUSH1 0x1 DUP5 PUSH2 0x34BD JUMP JUMPDEST DUP2 SLOAD DUP2 LT PUSH2 0x7F4 JUMPI PUSH2 0x7F4 PUSH2 0x3672 JUMP JUMPDEST PUSH1 0x0 SWAP2 DUP3 MSTORE PUSH1 0x20 SWAP1 SWAP2 KECCAK256 PUSH1 0xB SWAP1 SWAP2 MUL ADD DUP1 SLOAD PUSH1 0xFF NOT AND SWAP2 ISZERO ISZERO SWAP2 SWAP1 SWAP2 OR SWAP1 SSTORE PUSH1 0x1 PUSH1 0x7 PUSH2 0x821 DUP3 DUP5 PUSH2 0x34BD JUMP JUMPDEST DUP2 SLOAD DUP2 LT PUSH2 0x831 JUMPI PUSH2 0x831 PUSH2 0x3672 JUMP JUMPDEST SWAP1 PUSH1 0x0 MSTORE PUSH1 0x20 PUSH1 0x0 KECCAK256 SWAP1 PUSH1 0xB MUL ADD PUSH1 0x6 ADD DUP2 SWAP1 SSTORE POP PUSH1 0x40 MLOAD DUP1 PUSH1 0x40 ADD PUSH1 0x40 MSTORE DUP1 PUSH1 0x1 DUP2 MSTORE PUSH1 0x20 ADD PUSH1 0xB PUSH1 0xFB SHL DUP2 MSTORE POP PUSH1 0x7 PUSH1 0x1 DUP4 PUSH2 0x86F SWAP2 SWAP1 PUSH2 0x34BD JUMP JUMPDEST DUP2 SLOAD DUP2 LT PUSH2 0x87F JUMPI PUSH2 0x87F PUSH2 0x3672 JUMP JUMPDEST SWAP1 PUSH1 0x0 MSTORE PUSH1 0x20 PUSH1 0x0 KECCAK256 SWAP1 PUSH1 0xB MUL ADD PUSH1 0x1 ADD SWAP1 DUP2 PUSH2 0x89C SWAP2 SWAP1 PUSH2 0x35B2 JUMP JUMPDEST POP DUP6 PUSH1 0x7 PUSH2 0x8AB PUSH1 0x1 DUP5 PUSH2 0x34BD JUMP JUMPDEST DUP2 SLOAD DUP2 LT PUSH2 0x8BB JUMPI PUSH2 0x8BB PUSH2 0x3672 JUMP JUMPDEST PUSH1 0x0 SWAP2 DUP3 MSTORE PUSH1 0x20 SWAP1 SWAP2 KECCAK256 PUSH1 0x8 PUSH1 0xB SWAP1 SWAP3 MUL ADD ADD SSTORE DUP3 PUSH1 0x7 PUSH2 0x8DD PUSH1 0x1 DUP5 PUSH2 0x34BD JUMP JUMPDEST DUP2 SLOAD DUP2 LT PUSH2 0x8ED JUMPI PUSH2 0x8ED PUSH2 0x3672 JUMP JUMPDEST SWAP1 PUSH1 0x0 MSTORE PUSH1 0x20 PUSH1 0x0 KECCAK256 SWAP1 PUSH1 0xB MUL ADD PUSH1 0xA ADD DUP2 SWAP1 SSTORE POP PUSH1 0x0 JUMPDEST PUSH1 0x9 DUP2 LT ISZERO PUSH2 0x97D JUMPI PUSH1 0x7 PUSH2 0x91B PUSH1 0x1 DUP5 PUSH2 0x34BD JUMP JUMPDEST DUP2 SLOAD DUP2 LT PUSH2 0x92B JUMPI PUSH2 0x92B PUSH2 0x3672 JUMP JUMPDEST PUSH1 0x0 SWAP2 DUP3 MSTORE PUSH1 0x20 DUP1 DUP4 KECCAK256 PUSH1 0x2 PUSH1 0xB SWAP1 SWAP4 MUL ADD SWAP2 SWAP1 SWAP2 ADD DUP1 SLOAD PUSH1 0x1 DUP2 ADD DUP3 SSTORE SWAP1 DUP4 MSTORE DUP2 DUP4 KECCAK256 PUSH1 0x40 DUP1 MLOAD SWAP4 DUP5 ADD SWAP1 MSTORE SWAP3 DUP3 MSTORE SWAP2 SWAP1 SWAP2 ADD SWAP1 PUSH2 0x96A SWAP1 DUP3 PUSH2 0x35B2 JUMP JUMPDEST POP DUP1 PUSH2 0x975 DUP2 PUSH2 0x3688 JUMP JUMPDEST SWAP2 POP POP PUSH2 0x905 JUMP JUMPDEST POP PUSH32 0xBBBA82573073A1190D559566D39447B5E1AD7724B88B63BC98867D229A645B6B PUSH2 0x9AA PUSH1 0x1 DUP4 PUSH2 0x34BD JUMP JUMPDEST PUSH1 0x40 MLOAD SWAP1 DUP2 MSTORE PUSH1 0x20 ADD PUSH1 0x40 MLOAD DUP1 SWAP2 SUB SWAP1 LOG1 POP POP PUSH1 0x6 DUP1 SLOAD PUSH1 0xFF PUSH1 0xA0 SHL NOT AND SWAP1 SSTORE POP POP POP POP JUMP JUMPDEST PUSH1 0x60 PUSH1 0x7 DUP3 DUP2 SLOAD DUP2 LT PUSH2 0x9E5 JUMPI PUSH2 0x9E5 PUSH2 0x3672 JUMP JUMPDEST SWAP1 PUSH1 0x0 MSTORE PUSH1 0x20 PUSH1 0x0 KECCAK256 SWAP1 PUSH1 0xB MUL ADD PUSH1 0x3 ADD DUP1 SLOAD DUP1 PUSH1 0x20 MUL PUSH1 0x20 ADD PUSH1 0x40 MLOAD SWAP1 DUP2 ADD PUSH1 0x40 MSTORE DUP1 SWAP3 SWAP2 SWAP1 DUP2 DUP2 MSTORE PUSH1 0x20 ADD DUP3 DUP1 SLOAD DUP1 ISZERO PUSH2 0xA40 JUMPI PUSH1 0x20 MUL DUP3 ADD SWAP2 SWAP1 PUSH1 0x0 MSTORE PUSH1 0x20 PUSH1 0x0 KECCAK256 SWAP1 JUMPDEST DUP2 SLOAD DUP2 MSTORE PUSH1 0x20 ADD SWAP1 PUSH1 0x1 ADD SWAP1 DUP1 DUP4 GT PUSH2 0xA2C JUMPI JUMPDEST POP POP POP POP POP SWAP1 POP SWAP2 SWAP1 POP JUMP JUMPDEST PUSH2 0xA55 DUP2 PUSH2 0x22B9 JUMP JUMPDEST PUSH2 0xAA1 JUMPI PUSH1 0x40 MLOAD PUSH3 0x461BCD PUSH1 0xE5 SHL DUP2 MSTORE PUSH1 0x20 PUSH1 0x4 DUP3 ADD MSTORE PUSH1 0x1C PUSH1 0x24 DUP3 ADD MSTORE PUSH32 0x796F7520617265206E6F7420746869732067616D6520706C6179657200000000 PUSH1 0x44 DUP3 ADD MSTORE PUSH1 0x64 ADD PUSH2 0x34F JUMP JUMPDEST PUSH1 0x7 DUP2 DUP2 SLOAD DUP2 LT PUSH2 0xAB4 JUMPI PUSH2 0xAB4 PUSH2 0x3672 JUMP JUMPDEST PUSH1 0x0 SWAP2 DUP3 MSTORE PUSH1 0x20 SWAP1 SWAP2 KECCAK256 PUSH1 0xB SWAP1 SWAP2 MUL ADD SLOAD PUSH1 0xFF AND ISZERO PUSH2 0xB0A JUMPI PUSH1 0x40 MLOAD PUSH3 0x461BCD PUSH1 0xE5 SHL DUP2 MSTORE PUSH1 0x20 PUSH1 0x4 DUP3 ADD MSTORE PUSH1 0x12 PUSH1 0x24 DUP3 ADD MSTORE PUSH18 0x47616D65207374696C6C20706C6179696E67 PUSH1 0x70 SHL PUSH1 0x44 DUP3 ADD MSTORE PUSH1 0x64 ADD PUSH2 0x34F JUMP JUMPDEST PUSH2 0xB13 DUP2 PUSH2 0xDA7 JUMP JUMPDEST POP JUMP JUMPDEST PUSH1 0x60 PUSH1 0x7 DUP1 SLOAD DUP1 PUSH1 0x20 MUL PUSH1 0x20 ADD PUSH1 0x40 MLOAD SWAP1 DUP2 ADD PUSH1 0x40 MSTORE DUP1 SWAP3 SWAP2 SWAP1 DUP2 DUP2 MSTORE PUSH1 0x20 ADD PUSH1 0x0 SWAP1 JUMPDEST DUP3 DUP3 LT ISZERO PUSH2 0xD9E JUMPI PUSH1 0x0 DUP5 DUP2 MSTORE PUSH1 0x20 SWAP1 DUP2 SWAP1 KECCAK256 PUSH1 0x40 DUP1 MLOAD PUSH2 0x160 DUP2 ADD SWAP1 SWAP2 MSTORE PUSH1 0xB DUP6 MUL SWAP1 SWAP2 ADD DUP1 SLOAD PUSH1 0xFF AND ISZERO ISZERO DUP3 MSTORE PUSH1 0x1 DUP2 ADD DUP1 SLOAD SWAP3 SWAP4 SWAP2 SWAP3 SWAP2 DUP5 ADD SWAP2 PUSH2 0xB80 SWAP1 PUSH2 0x3529 JUMP JUMPDEST DUP1 PUSH1 0x1F ADD PUSH1 0x20 DUP1 SWAP2 DIV MUL PUSH1 0x20 ADD PUSH1 0x40 MLOAD SWAP1 DUP2 ADD PUSH1 0x40 MSTORE DUP1 SWAP3 SWAP2 SWAP1 DUP2 DUP2 MSTORE PUSH1 0x20 ADD DUP3 DUP1 SLOAD PUSH2 0xBAC SWAP1 PUSH2 0x3529 JUMP JUMPDEST DUP1 ISZERO PUSH2 0xBF9 JUMPI DUP1 PUSH1 0x1F LT PUSH2 0xBCE JUMPI PUSH2 0x100 DUP1 DUP4 SLOAD DIV MUL DUP4 MSTORE SWAP2 PUSH1 0x20 ADD SWAP2 PUSH2 0xBF9 JUMP JUMPDEST DUP3 ADD SWAP2 SWAP1 PUSH1 0x0 MSTORE PUSH1 0x20 PUSH1 0x0 KECCAK256 SWAP1 JUMPDEST DUP2 SLOAD DUP2 MSTORE SWAP1 PUSH1 0x1 ADD SWAP1 PUSH1 0x20 ADD DUP1 DUP4 GT PUSH2 0xBDC JUMPI DUP3 SWAP1 SUB PUSH1 0x1F AND DUP3 ADD SWAP2 JUMPDEST POP POP POP POP POP DUP2 MSTORE PUSH1 0x20 ADD PUSH1 0x2 DUP3 ADD DUP1 SLOAD DUP1 PUSH1 0x20 MUL PUSH1 0x20 ADD PUSH1 0x40 MLOAD SWAP1 DUP2 ADD PUSH1 0x40 MSTORE DUP1 SWAP3 SWAP2 SWAP1 DUP2 DUP2 MSTORE PUSH1 0x20 ADD PUSH1 0x0 SWAP1 JUMPDEST DUP3 DUP3 LT ISZERO PUSH2 0xCD3 JUMPI DUP4 DUP3 SWAP1 PUSH1 0x0 MSTORE PUSH1 0x20 PUSH1 0x0 KECCAK256 ADD DUP1 SLOAD PUSH2 0xC46 SWAP1 PUSH2 0x3529 JUMP JUMPDEST DUP1 PUSH1 0x1F ADD PUSH1 0x20 DUP1 SWAP2 DIV MUL PUSH1 0x20 ADD PUSH1 0x40 MLOAD SWAP1 DUP2 ADD PUSH1 0x40 MSTORE DUP1 SWAP3 SWAP2 SWAP1 DUP2 DUP2 MSTORE PUSH1 0x20 ADD DUP3 DUP1 SLOAD PUSH2 0xC72 SWAP1 PUSH2 0x3529 JUMP JUMPDEST DUP1 ISZERO PUSH2 0xCBF JUMPI DUP1 PUSH1 0x1F LT PUSH2 0xC94 JUMPI PUSH2 0x100 DUP1 DUP4 SLOAD DIV MUL DUP4 MSTORE SWAP2 PUSH1 0x20 ADD SWAP2 PUSH2 0xCBF JUMP JUMPDEST DUP3 ADD SWAP2 SWAP1 PUSH1 0x0 MSTORE PUSH1 0x20 PUSH1 0x0 KECCAK256 SWAP1 JUMPDEST DUP2 SLOAD DUP2 MSTORE SWAP1 PUSH1 0x1 ADD SWAP1 PUSH1 0x20 ADD DUP1 DUP4 GT PUSH2 0xCA2 JUMPI DUP3 SWAP1 SUB PUSH1 0x1F AND DUP3 ADD SWAP2 JUMPDEST POP POP POP POP POP DUP2 MSTORE PUSH1 0x20 ADD SWAP1 PUSH1 0x1 ADD SWAP1 PUSH2 0xC27 JUMP JUMPDEST POP POP POP POP DUP2 MSTORE PUSH1 0x20 ADD PUSH1 0x3 DUP3 ADD DUP1 SLOAD DUP1 PUSH1 0x20 MUL PUSH1 0x20 ADD PUSH1 0x40 MLOAD SWAP1 DUP2 ADD PUSH1 0x40 MSTORE DUP1 SWAP3 SWAP2 SWAP1 DUP2 DUP2 MSTORE PUSH1 0x20 ADD DUP3 DUP1 SLOAD DUP1 ISZERO PUSH2 0xD2A JUMPI PUSH1 0x20 MUL DUP3 ADD SWAP2 SWAP1 PUSH1 0x0 MSTORE PUSH1 0x20 PUSH1 0x0 KECCAK256 SWAP1 JUMPDEST DUP2 SLOAD DUP2 MSTORE PUSH1 0x20 ADD SWAP1 PUSH1 0x1 ADD SWAP1 DUP1 DUP4 GT PUSH2 0xD16 JUMPI JUMPDEST POP POP POP SWAP2 DUP4 MSTORE POP POP PUSH1 0x4 DUP3 ADD SLOAD PUSH1 0x1 PUSH1 0x1 PUSH1 0xA0 SHL SUB SWAP1 DUP2 AND PUSH1 0x20 DUP1 DUP5 ADD SWAP2 SWAP1 SWAP2 MSTORE PUSH1 0x5 DUP5 ADD SLOAD DUP3 AND PUSH1 0x40 DUP5 ADD MSTORE PUSH1 0x6 DUP5 ADD SLOAD PUSH1 0x60 DUP5 ADD MSTORE PUSH1 0x7 DUP5 ADD SLOAD SWAP1 SWAP2 AND PUSH1 0x80 DUP4 ADD MSTORE PUSH1 0x8 DUP4 ADD SLOAD PUSH1 0xA0 DUP4 ADD MSTORE PUSH1 0x9 DUP4 ADD SLOAD PUSH1 0xC0 DUP4 ADD MSTORE PUSH1 0xA SWAP1 SWAP3 ADD SLOAD PUSH1 0xE0 SWAP1 SWAP2 ADD MSTORE SWAP1 DUP3 MSTORE PUSH1 0x1 SWAP3 SWAP1 SWAP3 ADD SWAP2 ADD PUSH2 0xB3A JUMP JUMPDEST POP POP POP POP SWAP1 POP SWAP1 JUMP JUMPDEST PUSH1 0x40 MLOAD DUP1 PUSH1 0x40 ADD PUSH1 0x40 MSTORE DUP1 PUSH1 0x1 DUP2 MSTORE PUSH1 0x20 ADD PUSH1 0xB PUSH1 0xFB SHL DUP2 MSTORE POP PUSH1 0x7 DUP3 DUP2 SLOAD DUP2 LT PUSH2 0xDD4 JUMPI PUSH2 0xDD4 PUSH2 0x3672 JUMP JUMPDEST SWAP1 PUSH1 0x0 MSTORE PUSH1 0x20 PUSH1 0x0 KECCAK256 SWAP1 PUSH1 0xB MUL ADD PUSH1 0x1 ADD SWAP1 DUP2 PUSH2 0xDF1 SWAP2 SWAP1 PUSH2 0x35B2 JUMP JUMPDEST POP PUSH1 0x40 DUP1 MLOAD PUSH2 0x140 DUP2 ADD DUP3 MSTORE PUSH1 0x0 PUSH2 0x120 DUP3 ADD DUP2 DUP2 MSTORE DUP3 MSTORE DUP3 MLOAD PUSH1 0x20 DUP2 DUP2 ADD DUP6 MSTORE DUP3 DUP3 MSTORE DUP1 DUP5 ADD SWAP2 SWAP1 SWAP2 MSTORE DUP4 MLOAD DUP1 DUP3 ADD DUP6 MSTORE DUP3 DUP2 MSTORE DUP4 DUP6 ADD MSTORE DUP4 MLOAD DUP1 DUP3 ADD DUP6 MSTORE DUP3 DUP2 MSTORE PUSH1 0x60 DUP5 ADD MSTORE DUP4 MLOAD DUP1 DUP3 ADD DUP6 MSTORE DUP3 DUP2 MSTORE PUSH1 0x80 DUP5 ADD MSTORE DUP4 MLOAD DUP1 DUP3 ADD DUP6 MSTORE DUP3 DUP2 MSTORE PUSH1 0xA0 DUP5 ADD MSTORE DUP4 MLOAD DUP1 DUP3 ADD DUP6 MSTORE DUP3 DUP2 MSTORE PUSH1 0xC0 DUP5 ADD MSTORE DUP4 MLOAD DUP1 DUP3 ADD DUP6 MSTORE DUP3 DUP2 MSTORE PUSH1 0xE0 DUP5 ADD MSTORE DUP4 MLOAD SWAP1 DUP2 ADD SWAP1 SWAP4 MSTORE DUP3 MSTORE PUSH2 0x100 DUP2 ADD SWAP2 SWAP1 SWAP2 MSTORE PUSH1 0x7 DUP1 SLOAD DUP4 SWAP1 DUP2 LT PUSH2 0xE9C JUMPI PUSH2 0xE9C PUSH2 0x3672 JUMP JUMPDEST SWAP1 PUSH1 0x0 MSTORE PUSH1 0x20 PUSH1 0x0 KECCAK256 SWAP1 PUSH1 0xB MUL ADD PUSH1 0x2 ADD SWAP1 PUSH1 0x9 PUSH2 0xEBB SWAP3 SWAP2 SWAP1 PUSH2 0x2F2A JUMP JUMPDEST POP PUSH1 0x1 PUSH1 0x7 DUP3 DUP2 SLOAD DUP2 LT PUSH2 0xED1 JUMPI PUSH2 0xED1 PUSH2 0x3672 JUMP JUMPDEST PUSH1 0x0 SWAP2 DUP3 MSTORE PUSH1 0x20 SWAP2 DUP3 SWAP1 KECCAK256 PUSH1 0xB SWAP1 SWAP2 MUL ADD DUP1 SLOAD PUSH1 0xFF NOT AND SWAP3 ISZERO ISZERO SWAP3 SWAP1 SWAP3 OR SWAP1 SWAP2 SSTORE PUSH1 0x40 MLOAD DUP3 DUP2 MSTORE PUSH32 0xC5478E3FE602C65E5CDD37ABE42A8E007FF762D266B9E8256769194C1FA1361E SWAP2 ADD JUMPDEST PUSH1 0x40 MLOAD DUP1 SWAP2 SUB SWAP1 LOG1 POP JUMP JUMPDEST PUSH1 0x7 DUP2 DUP2 SLOAD DUP2 LT PUSH2 0xF3A JUMPI PUSH2 0xF3A PUSH2 0x3672 JUMP JUMPDEST PUSH1 0x0 SWAP2 DUP3 MSTORE PUSH1 0x20 SWAP1 SWAP2 KECCAK256 PUSH1 0xB SWAP1 SWAP2 MUL ADD SLOAD PUSH1 0xFF AND PUSH2 0xF9A JUMPI PUSH1 0x40 MLOAD PUSH3 0x461BCD PUSH1 0xE5 SHL DUP2 MSTORE PUSH1 0x20 PUSH1 0x4 DUP3 ADD MSTORE PUSH1 0x1C PUSH1 0x24 DUP3 ADD MSTORE PUSH32 0x5468652067616D65207374696C6C206E6F742073746172742079657400000000 PUSH1 0x44 DUP3 ADD MSTORE PUSH1 0x64 ADD PUSH2 0x34F JUMP JUMPDEST PUSH2 0x107A PUSH1 0x7 DUP3 DUP2 SLOAD DUP2 LT PUSH2 0xFB0 JUMPI PUSH2 0xFB0 PUSH2 0x3672 JUMP JUMPDEST SWAP1 PUSH1 0x0 MSTORE PUSH1 0x20 PUSH1 0x0 KECCAK256 SWAP1 PUSH1 0xB MUL ADD PUSH1 0x2 ADD DUP4 DUP2 SLOAD DUP2 LT PUSH2 0xFD2 JUMPI PUSH2 0xFD2 PUSH2 0x3672 JUMP JUMPDEST SWAP1 PUSH1 0x0 MSTORE PUSH1 0x20 PUSH1 0x0 KECCAK256 ADD DUP1 SLOAD PUSH2 0xFE7 SWAP1 PUSH2 0x3529 JUMP JUMPDEST DUP1 PUSH1 0x1F ADD PUSH1 0x20 DUP1 SWAP2 DIV MUL PUSH1 0x20 ADD PUSH1 0x40 MLOAD SWAP1 DUP2 ADD PUSH1 0x40 MSTORE DUP1 SWAP3 SWAP2 SWAP1 DUP2 DUP2 MSTORE PUSH1 0x20 ADD DUP3 DUP1 SLOAD PUSH2 0x1013 SWAP1 PUSH2 0x3529 JUMP JUMPDEST DUP1 ISZERO PUSH2 0x1060 JUMPI DUP1 PUSH1 0x1F LT PUSH2 0x1035 JUMPI PUSH2 0x100 DUP1 DUP4 SLOAD DIV MUL DUP4 MSTORE SWAP2 PUSH1 0x20 ADD SWAP2 PUSH2 0x1060 JUMP JUMPDEST DUP3 ADD SWAP2 SWAP1 PUSH1 0x0 MSTORE PUSH1 0x20 PUSH1 0x0 KECCAK256 SWAP1 JUMPDEST DUP2 SLOAD DUP2 MSTORE SWAP1 PUSH1 0x1 ADD SWAP1 PUSH1 0x20 ADD DUP1 DUP4 GT PUSH2 0x1043 JUMPI DUP3 SWAP1 SUB PUSH1 0x1F AND DUP3 ADD SWAP2 JUMPDEST POP POP POP POP POP PUSH1 0x40 MLOAD DUP1 PUSH1 0x20 ADD PUSH1 0x40 MSTORE DUP1 PUSH1 0x0 DUP2 MSTORE POP PUSH2 0x209F JUMP JUMPDEST PUSH2 0x10B6 JUMPI PUSH1 0x40 MLOAD PUSH3 0x461BCD PUSH1 0xE5 SHL DUP2 MSTORE PUSH1 0x20 PUSH1 0x4 DUP3 ADD MSTORE PUSH1 0xD PUSH1 0x24 DUP3 ADD MSTORE PUSH13 0x125B9D985B1A59081A5B9C1D5D PUSH1 0x9A SHL PUSH1 0x44 DUP3 ADD MSTORE PUSH1 0x64 ADD PUSH2 0x34F JUMP JUMPDEST PUSH2 0x1185 PUSH1 0x7 DUP3 DUP2 SLOAD DUP2 LT PUSH2 0x10CC JUMPI PUSH2 0x10CC PUSH2 0x3672 JUMP JUMPDEST SWAP1 PUSH1 0x0 MSTORE PUSH1 0x20 PUSH1 0x0 KECCAK256 SWAP1 PUSH1 0xB MUL ADD PUSH1 0x1 ADD DUP1 SLOAD PUSH2 0x10E8 SWAP1 PUSH2 0x3529 JUMP JUMPDEST DUP1 PUSH1 0x1F ADD PUSH1 0x20 DUP1 SWAP2 DIV MUL PUSH1 0x20 ADD PUSH1 0x40 MLOAD SWAP1 DUP2 ADD PUSH1 0x40 MSTORE DUP1 SWAP3 SWAP2 SWAP1 DUP2 DUP2 MSTORE PUSH1 0x20 ADD DUP3 DUP1 SLOAD PUSH2 0x1114 SWAP1 PUSH2 0x3529 JUMP JUMPDEST DUP1 ISZERO PUSH2 0x1161 JUMPI DUP1 PUSH1 0x1F LT PUSH2 0x1136 JUMPI PUSH2 0x100 DUP1 DUP4 SLOAD DIV MUL DUP4 MSTORE SWAP2 PUSH1 0x20 ADD SWAP2 PUSH2 0x1161 JUMP JUMPDEST DUP3 ADD SWAP2 SWAP1 PUSH1 0x0 MSTORE PUSH1 0x20 PUSH1 0x0 KECCAK256 SWAP1 JUMPDEST DUP2 SLOAD DUP2 MSTORE SWAP1 PUSH1 0x1 ADD SWAP1 PUSH1 0x20 ADD DUP1 DUP4 GT PUSH2 0x1144 JUMPI DUP3 SWAP1 SUB PUSH1 0x1F AND DUP3 ADD SWAP2 JUMPDEST POP POP POP POP POP PUSH1 0x40 MLOAD DUP1 PUSH1 0x40 ADD PUSH1 0x40 MSTORE DUP1 PUSH1 0x1 DUP2 MSTORE PUSH1 0x20 ADD PUSH1 0xB PUSH1 0xFB SHL DUP2 MSTORE POP PUSH2 0x209F JUMP JUMPDEST ISZERO PUSH2 0x1204 JUMPI PUSH1 0x7 DUP2 DUP2 SLOAD DUP2 LT PUSH2 0x119D JUMPI PUSH2 0x119D PUSH2 0x3672 JUMP JUMPDEST PUSH1 0x0 SWAP2 DUP3 MSTORE PUSH1 0x20 SWAP1 SWAP2 KECCAK256 PUSH1 0xB SWAP1 SWAP2 MUL ADD PUSH1 0x4 ADD SLOAD PUSH1 0x1 PUSH1 0x1 PUSH1 0xA0 SHL SUB AND CALLER EQ PUSH2 0x11FF JUMPI PUSH1 0x40 MLOAD PUSH3 0x461BCD PUSH1 0xE5 SHL DUP2 MSTORE PUSH1 0x20 PUSH1 0x4 DUP3 ADD MSTORE PUSH1 0x14 PUSH1 0x24 DUP3 ADD MSTORE PUSH20 0x596F7520617265206E6F7420706C617965722031 PUSH1 0x60 SHL PUSH1 0x44 DUP3 ADD MSTORE PUSH1 0x64 ADD PUSH2 0x34F JUMP JUMPDEST PUSH2 0x1279 JUMP JUMPDEST PUSH1 0x7 DUP2 DUP2 SLOAD DUP2 LT PUSH2 0x1217 JUMPI PUSH2 0x1217 PUSH2 0x3672 JUMP JUMPDEST PUSH1 0x0 SWAP2 DUP3 MSTORE PUSH1 0x20 SWAP1 SWAP2 KECCAK256 PUSH1 0xB SWAP1 SWAP2 MUL ADD PUSH1 0x5 ADD SLOAD PUSH1 0x1 PUSH1 0x1 PUSH1 0xA0 SHL SUB AND CALLER EQ PUSH2 0x1279 JUMPI PUSH1 0x40 MLOAD PUSH3 0x461BCD PUSH1 0xE5 SHL DUP2 MSTORE PUSH1 0x20 PUSH1 0x4 DUP3 ADD MSTORE PUSH1 0x14 PUSH1 0x24 DUP3 ADD MSTORE PUSH20 0x2CB7BA9030B932903737BA10383630BCB2B91019 PUSH1 0x61 SHL PUSH1 0x44 DUP3 ADD MSTORE PUSH1 0x64 ADD PUSH2 0x34F JUMP JUMPDEST PUSH1 0x7 DUP2 DUP2 SLOAD DUP2 LT PUSH2 0x128C JUMPI PUSH2 0x128C PUSH2 0x3672 JUMP JUMPDEST SWAP1 PUSH1 0x0 MSTORE PUSH1 0x20 PUSH1 0x0 KECCAK256 SWAP1 PUSH1 0xB MUL ADD PUSH1 0x1 ADD PUSH1 0x7 DUP3 DUP2 SLOAD DUP2 LT PUSH2 0x12B0 JUMPI PUSH2 0x12B0 PUSH2 0x3672 JUMP JUMPDEST SWAP1 PUSH1 0x0 MSTORE PUSH1 0x20 PUSH1 0x0 KECCAK256 SWAP1 PUSH1 0xB MUL ADD PUSH1 0x2 ADD DUP4 DUP2 SLOAD DUP2 LT PUSH2 0x12D2 JUMPI PUSH2 0x12D2 PUSH2 0x3672 JUMP JUMPDEST SWAP1 PUSH1 0x0 MSTORE PUSH1 0x20 PUSH1 0x0 KECCAK256 ADD SWAP1 DUP2 PUSH2 0x12E8 SWAP2 SWAP1 PUSH2 0x36A1 JUMP JUMPDEST POP PUSH32 0x9659242F3970136BF08CBA261398AE9F0BC58A676137D79D3C2040DCDACBC18B PUSH1 0x7 DUP3 DUP2 SLOAD DUP2 LT PUSH2 0x131D JUMPI PUSH2 0x131D PUSH2 0x3672 JUMP JUMPDEST SWAP1 PUSH1 0x0 MSTORE PUSH1 0x20 PUSH1 0x0 KECCAK256 SWAP1 PUSH1 0xB MUL ADD PUSH1 0x2 ADD DUP3 PUSH1 0x40 MLOAD PUSH2 0x133D SWAP3 SWAP2 SWAP1 PUSH2 0x3852 JUMP JUMPDEST PUSH1 0x40 MLOAD DUP1 SWAP2 SUB SWAP1 LOG1 PUSH2 0x134E DUP2 PUSH2 0x2339 JUMP JUMPDEST POP POP JUMP JUMPDEST PUSH1 0x7 DUP2 DUP2 SLOAD DUP2 LT PUSH2 0x1362 JUMPI PUSH1 0x0 DUP1 REVERT JUMPDEST PUSH1 0x0 SWAP2 DUP3 MSTORE PUSH1 0x20 SWAP1 SWAP2 KECCAK256 PUSH1 0xB SWAP1 SWAP2 MUL ADD DUP1 SLOAD PUSH1 0x1 DUP3 ADD DUP1 SLOAD PUSH1 0xFF SWAP1 SWAP3 AND SWAP4 POP SWAP1 PUSH2 0x138B SWAP1 PUSH2 0x3529 JUMP JUMPDEST DUP1 PUSH1 0x1F ADD PUSH1 0x20 DUP1 SWAP2 DIV MUL PUSH1 0x20 ADD PUSH1 0x40 MLOAD SWAP1 DUP2 ADD PUSH1 0x40 MSTORE DUP1 SWAP3 SWAP2 SWAP1 DUP2 DUP2 MSTORE PUSH1 0x20 ADD DUP3 DUP1 SLOAD PUSH2 0x13B7 SWAP1 PUSH2 0x3529 JUMP JUMPDEST DUP1 ISZERO PUSH2 0x1404 JUMPI DUP1 PUSH1 0x1F LT PUSH2 0x13D9 JUMPI PUSH2 0x100 DUP1 DUP4 SLOAD DIV MUL DUP4 MSTORE SWAP2 PUSH1 0x20 ADD SWAP2 PUSH2 0x1404 JUMP JUMPDEST DUP3 ADD SWAP2 SWAP1 PUSH1 0x0 MSTORE PUSH1 0x20 PUSH1 0x0 KECCAK256 SWAP1 JUMPDEST DUP2 SLOAD DUP2 MSTORE SWAP1 PUSH1 0x1 ADD SWAP1 PUSH1 0x20 ADD DUP1 DUP4 GT PUSH2 0x13E7 JUMPI DUP3 SWAP1 SUB PUSH1 0x1F AND DUP3 ADD SWAP2 JUMPDEST POP POP POP PUSH1 0x4 DUP5 ADD SLOAD PUSH1 0x5 DUP6 ADD SLOAD PUSH1 0x6 DUP7 ADD SLOAD PUSH1 0x7 DUP8 ADD SLOAD PUSH1 0x8 DUP9 ADD SLOAD PUSH1 0x9 DUP10 ADD SLOAD PUSH1 0xA SWAP1 SWAP10 ADD SLOAD SWAP8 SWAP9 PUSH1 0x1 PUSH1 0x1 PUSH1 0xA0 SHL SUB SWAP6 DUP7 AND SWAP9 SWAP5 DUP7 AND SWAP8 POP SWAP3 SWAP6 POP SWAP4 AND SWAP3 SWAP2 DUP10 JUMP JUMPDEST PUSH1 0x6 SLOAD PUSH1 0x1 PUSH1 0x1 PUSH1 0xA0 SHL SUB AND CALLER EQ PUSH2 0x1492 JUMPI PUSH1 0x40 MLOAD PUSH3 0x461BCD PUSH1 0xE5 SHL DUP2 MSTORE PUSH1 0x20 PUSH1 0x4 DUP3 ADD MSTORE PUSH1 0xD PUSH1 0x24 DUP3 ADD MSTORE PUSH13 0x2737BA103A34329037BBB732B9 PUSH1 0x99 SHL PUSH1 0x44 DUP3 ADD MSTORE PUSH1 0x64 ADD PUSH2 0x34F JUMP JUMPDEST PUSH1 0x5 SLOAD PUSH1 0x0 DUP1 SLOAD PUSH1 0x40 MLOAD PUSH4 0x70A08231 PUSH1 0xE0 SHL DUP2 MSTORE ADDRESS PUSH1 0x4 DUP3 ADD MSTORE SWAP2 SWAP3 SWAP2 PUSH1 0x1 PUSH1 0x1 PUSH1 0xA0 SHL SUB SWAP1 SWAP2 AND SWAP1 PUSH4 0x70A08231 SWAP1 PUSH1 0x24 ADD PUSH1 0x20 PUSH1 0x40 MLOAD DUP1 DUP4 SUB DUP2 DUP7 GAS STATICCALL ISZERO DUP1 ISZERO PUSH2 0x14E1 JUMPI RETURNDATASIZE PUSH1 0x0 DUP1 RETURNDATACOPY RETURNDATASIZE PUSH1 0x0 REVERT JUMPDEST POP POP POP POP PUSH1 0x40 MLOAD RETURNDATASIZE PUSH1 0x1F NOT PUSH1 0x1F DUP3 ADD AND DUP3 ADD DUP1 PUSH1 0x40 MSTORE POP DUP2 ADD SWAP1 PUSH2 0x1505 SWAP2 SWAP1 PUSH2 0x3455 JUMP JUMPDEST PUSH2 0x150F SWAP2 SWAP1 PUSH2 0x34BD JUMP JUMPDEST GT PUSH2 0x1555 JUMPI PUSH1 0x40 MLOAD PUSH3 0x461BCD PUSH1 0xE5 SHL DUP2 MSTORE PUSH1 0x20 PUSH1 0x4 DUP3 ADD MSTORE PUSH1 0x16 PUSH1 0x24 DUP3 ADD MSTORE PUSH22 0x54686520746F6B656E206973206E6F74206578747261 PUSH1 0x50 SHL PUSH1 0x44 DUP3 ADD MSTORE PUSH1 0x64 ADD PUSH2 0x34F JUMP JUMPDEST PUSH1 0x0 SLOAD PUSH1 0x6 SLOAD PUSH1 0x5 SLOAD PUSH1 0x40 MLOAD PUSH4 0x70A08231 PUSH1 0xE0 SHL DUP2 MSTORE ADDRESS PUSH1 0x4 DUP3 ADD MSTORE PUSH1 0x1 PUSH1 0x1 PUSH1 0xA0 SHL SUB SWAP4 DUP5 AND SWAP4 PUSH4 0xA9059CBB SWAP4 AND SWAP2 SWAP1 DUP5 SWAP1 PUSH4 0x70A08231 SWAP1 PUSH1 0x24 ADD PUSH1 0x20 PUSH1 0x40 MLOAD DUP1 DUP4 SUB DUP2 DUP7 GAS STATICCALL ISZERO DUP1 ISZERO PUSH2 0x15AE JUMPI RETURNDATASIZE PUSH1 0x0 DUP1 RETURNDATACOPY RETURNDATASIZE PUSH1 0x0 REVERT JUMPDEST POP POP POP POP PUSH1 0x40 MLOAD RETURNDATASIZE PUSH1 0x1F NOT PUSH1 0x1F DUP3 ADD AND DUP3 ADD DUP1 PUSH1 0x40 MSTORE POP DUP2 ADD SWAP1 PUSH2 0x15D2 SWAP2 SWAP1 PUSH2 0x3455 JUMP JUMPDEST PUSH2 0x15DC SWAP2 SWAP1 PUSH2 0x34BD JUMP JUMPDEST PUSH1 0x40 MLOAD PUSH1 0x1 PUSH1 0x1 PUSH1 0xE0 SHL SUB NOT PUSH1 0xE0 DUP6 SWAP1 SHL AND DUP2 MSTORE PUSH1 0x1 PUSH1 0x1 PUSH1 0xA0 SHL SUB SWAP1 SWAP3 AND PUSH1 0x4 DUP4 ADD MSTORE PUSH1 0x24 DUP3 ADD MSTORE PUSH1 0x44 ADD JUMPDEST PUSH1 0x20 PUSH1 0x40 MLOAD DUP1 DUP4 SUB DUP2 PUSH1 0x0 DUP8 GAS CALL ISZERO DUP1 ISZERO PUSH2 0x1628 JUMPI RETURNDATASIZE PUSH1 0x0 DUP1 RETURNDATACOPY RETURNDATASIZE PUSH1 0x0 REVERT JUMPDEST POP POP POP POP PUSH1 0x40 MLOAD RETURNDATASIZE PUSH1 0x1F NOT PUSH1 0x1F DUP3 ADD AND DUP3 ADD DUP1 PUSH1 0x40 MSTORE POP DUP2 ADD SWAP1 PUSH2 0xB13 SWAP2 SWAP1 PUSH2 0x34F4 JUMP JUMPDEST PUSH2 0x1654 PUSH2 0x2E16 JUMP JUMPDEST PUSH1 0x7 DUP3 DUP2 SLOAD DUP2 LT PUSH2 0x1667 JUMPI PUSH2 0x1667 PUSH2 0x3672 JUMP JUMPDEST PUSH1 0x0 SWAP2 DUP3 MSTORE PUSH1 0x20 SWAP2 DUP3 SWAP1 KECCAK256 PUSH1 0x40 DUP1 MLOAD PUSH2 0x160 DUP2 ADD SWAP1 SWAP2 MSTORE PUSH1 0xB SWAP1 SWAP3 MUL ADD DUP1 SLOAD PUSH1 0xFF AND ISZERO ISZERO DUP3 MSTORE PUSH1 0x1 DUP2 ADD DUP1 SLOAD SWAP3 SWAP4 SWAP2 SWAP3 SWAP2 DUP5 ADD SWAP2 PUSH2 0x16A4 SWAP1 PUSH2 0x3529 JUMP JUMPDEST DUP1 PUSH1 0x1F ADD PUSH1 0x20 DUP1 SWAP2 DIV MUL PUSH1 0x20 ADD PUSH1 0x40 MLOAD SWAP1 DUP2 ADD PUSH1 0x40 MSTORE DUP1 SWAP3 SWAP2 SWAP1 DUP2 DUP2 MSTORE PUSH1 0x20 ADD DUP3 DUP1 SLOAD PUSH2 0x16D0 SWAP1 PUSH2 0x3529 JUMP JUMPDEST DUP1 ISZERO PUSH2 0x171D JUMPI DUP1 PUSH1 0x1F LT PUSH2 0x16F2 JUMPI PUSH2 0x100 DUP1 DUP4 SLOAD DIV MUL DUP4 MSTORE SWAP2 PUSH1 0x20 ADD SWAP2 PUSH2 0x171D JUMP JUMPDEST DUP3 ADD SWAP2 SWAP1 PUSH1 0x0 MSTORE PUSH1 0x20 PUSH1 0x0 KECCAK256 SWAP1 JUMPDEST DUP2 SLOAD DUP2 MSTORE SWAP1 PUSH1 0x1 ADD SWAP1 PUSH1 0x20 ADD DUP1 DUP4 GT PUSH2 0x1700 JUMPI DUP3 SWAP1 SUB PUSH1 0x1F AND DUP3 ADD SWAP2 JUMPDEST POP POP POP POP POP DUP2 MSTORE PUSH1 0x20 ADD PUSH1 0x2 DUP3 ADD DUP1 SLOAD DUP1 PUSH1 0x20 MUL PUSH1 0x20 ADD PUSH1 0x40 MLOAD SWAP1 DUP2 ADD PUSH1 0x40 MSTORE DUP1 SWAP3 SWAP2 SWAP1 DUP2 DUP2 MSTORE PUSH1 0x20 ADD PUSH1 0x0 SWAP1 JUMPDEST DUP3 DUP3 LT ISZERO PUSH2 0x17F7 JUMPI DUP4 DUP3 SWAP1 PUSH1 0x0 MSTORE PUSH1 0x20 PUSH1 0x0 KECCAK256 ADD DUP1 SLOAD PUSH2 0x176A SWAP1 PUSH2 0x3529 JUMP JUMPDEST DUP1 PUSH1 0x1F ADD PUSH1 0x20 DUP1 SWAP2 DIV MUL PUSH1 0x20 ADD PUSH1 0x40 MLOAD SWAP1 DUP2 ADD PUSH1 0x40 MSTORE DUP1 SWAP3 SWAP2 SWAP1 DUP2 DUP2 MSTORE PUSH1 0x20 ADD DUP3 DUP1 SLOAD PUSH2 0x1796 SWAP1 PUSH2 0x3529 JUMP JUMPDEST DUP1 ISZERO PUSH2 0x17E3 JUMPI DUP1 PUSH1 0x1F LT PUSH2 0x17B8 JUMPI PUSH2 0x100 DUP1 DUP4 SLOAD DIV MUL DUP4 MSTORE SWAP2 PUSH1 0x20 ADD SWAP2 PUSH2 0x17E3 JUMP JUMPDEST DUP3 ADD SWAP2 SWAP1 PUSH1 0x0 MSTORE PUSH1 0x20 PUSH1 0x0 KECCAK256 SWAP1 JUMPDEST DUP2 SLOAD DUP2 MSTORE SWAP1 PUSH1 0x1 ADD SWAP1 PUSH1 0x20 ADD DUP1 DUP4 GT PUSH2 0x17C6 JUMPI DUP3 SWAP1 SUB PUSH1 0x1F AND DUP3 ADD SWAP2 JUMPDEST POP POP POP POP POP DUP2 MSTORE PUSH1 0x20 ADD SWAP1 PUSH1 0x1 ADD SWAP1 PUSH2 0x174B JUMP JUMPDEST POP POP POP POP DUP2 MSTORE PUSH1 0x20 ADD PUSH1 0x3 DUP3 ADD DUP1 SLOAD DUP1 PUSH1 0x20 MUL PUSH1 0x20 ADD PUSH1 0x40 MLOAD SWAP1 DUP2 ADD PUSH1 0x40 MSTORE DUP1 SWAP3 SWAP2 SWAP1 DUP2 DUP2 MSTORE PUSH1 0x20 ADD DUP3 DUP1 SLOAD DUP1 ISZERO PUSH2 0x184E JUMPI PUSH1 0x20 MUL DUP3 ADD SWAP2 SWAP1 PUSH1 0x0 MSTORE PUSH1 0x20 PUSH1 0x0 KECCAK256 SWAP1 JUMPDEST DUP2 SLOAD DUP2 MSTORE PUSH1 0x20 ADD SWAP1 PUSH1 0x1 ADD SWAP1 DUP1 DUP4 GT PUSH2 0x183A JUMPI JUMPDEST POP POP POP SWAP2 DUP4 MSTORE POP POP PUSH1 0x4 DUP3 ADD SLOAD PUSH1 0x1 PUSH1 0x1 PUSH1 0xA0 SHL SUB SWAP1 DUP2 AND PUSH1 0x20 DUP4 ADD MSTORE PUSH1 0x5 DUP4 ADD SLOAD DUP2 AND PUSH1 0x40 DUP4 ADD MSTORE PUSH1 0x6 DUP4 ADD SLOAD PUSH1 0x60 DUP4 ADD MSTORE PUSH1 0x7 DUP4 ADD SLOAD AND PUSH1 0x80 DUP3 ADD MSTORE PUSH1 0x8 DUP3 ADD SLOAD PUSH1 0xA0 DUP3 ADD MSTORE PUSH1 0x9 DUP3 ADD SLOAD PUSH1 0xC0 DUP3 ADD MSTORE PUSH1 0xA SWAP1 SWAP2 ADD SLOAD PUSH1 0xE0 SWAP1 SWAP2 ADD MSTORE SWAP3 SWAP2 POP POP JUMP JUMPDEST PUSH1 0x6 SLOAD PUSH1 0x1 PUSH1 0xA0 SHL SWAP1 DIV PUSH1 0xFF AND ISZERO PUSH2 0x1904 JUMPI PUSH1 0x40 MLOAD PUSH3 0x461BCD PUSH1 0xE5 SHL DUP2 MSTORE PUSH1 0x20 PUSH1 0x4 DUP3 ADD MSTORE PUSH1 0x15 PUSH1 0x24 DUP3 ADD MSTORE PUSH21 0x115C9C9BDC8E881499595B9D1C985B9D0818D85B1B PUSH1 0x5A SHL PUSH1 0x44 DUP3 ADD MSTORE PUSH1 0x64 ADD PUSH2 0x34F JUMP JUMPDEST PUSH1 0x6 DUP1 SLOAD PUSH1 0xFF PUSH1 0xA0 SHL NOT AND PUSH1 0x1 PUSH1 0xA0 SHL OR SWAP1 SSTORE PUSH1 0x7 DUP1 SLOAD DUP4 SWAP1 DUP2 LT PUSH2 0x192B JUMPI PUSH2 0x192B PUSH2 0x3672 JUMP JUMPDEST SWAP1 PUSH1 0x0 MSTORE PUSH1 0x20 PUSH1 0x0 KECCAK256 SWAP1 PUSH1 0xB MUL ADD PUSH1 0x6 ADD SLOAD PUSH1 0x1 SUB PUSH2 0x1EA2 JUMPI PUSH1 0x7 DUP3 DUP2 SLOAD DUP2 LT PUSH2 0x1957 JUMPI PUSH2 0x1957 PUSH2 0x3672 JUMP JUMPDEST PUSH1 0x0 SWAP2 DUP3 MSTORE PUSH1 0x20 DUP3 KECCAK256 PUSH1 0xB SWAP2 SWAP1 SWAP2 MUL ADD PUSH1 0x8 ADD SLOAD SWAP1 SLOAD PUSH1 0x40 MLOAD PUSH4 0x70A08231 PUSH1 0xE0 SHL DUP2 MSTORE CALLER PUSH1 0x4 DUP3 ADD MSTORE PUSH1 0x1 PUSH1 0x1 PUSH1 0xA0 SHL SUB SWAP1 SWAP2 AND SWAP1 PUSH4 0x70A08231 SWAP1 PUSH1 0x24 ADD PUSH1 0x20 PUSH1 0x40 MLOAD DUP1 DUP4 SUB DUP2 DUP7 GAS STATICCALL ISZERO DUP1 ISZERO PUSH2 0x19B2 JUMPI RETURNDATASIZE PUSH1 0x0 DUP1 RETURNDATACOPY RETURNDATASIZE PUSH1 0x0 REVERT JUMPDEST POP POP POP POP PUSH1 0x40 MLOAD RETURNDATASIZE PUSH1 0x1F NOT PUSH1 0x1F DUP3 ADD AND DUP3 ADD DUP1 PUSH1 0x40 MSTORE POP DUP2 ADD SWAP1 PUSH2 0x19D6 SWAP2 SWAP1 PUSH2 0x3455 JUMP JUMPDEST LT ISZERO PUSH2 0x1A19 JUMPI PUSH1 0x40 MLOAD PUSH3 0x461BCD PUSH1 0xE5 SHL DUP2 MSTORE PUSH1 0x20 PUSH1 0x4 DUP3 ADD MSTORE PUSH1 0x12 PUSH1 0x24 DUP3 ADD MSTORE PUSH18 0x4E6F7420656E6F7567682062616C616E6365 PUSH1 0x70 SHL PUSH1 0x44 DUP3 ADD MSTORE PUSH1 0x64 ADD PUSH2 0x34F JUMP JUMPDEST PUSH1 0x7 DUP3 DUP2 SLOAD DUP2 LT PUSH2 0x1A2C JUMPI PUSH2 0x1A2C PUSH2 0x3672 JUMP JUMPDEST SWAP1 PUSH1 0x0 MSTORE PUSH1 0x20 PUSH1 0x0 KECCAK256 SWAP1 PUSH1 0xB MUL ADD PUSH1 0x8 ADD SLOAD DUP2 EQ PUSH2 0x1A8C JUMPI PUSH1 0x40 MLOAD PUSH3 0x461BCD PUSH1 0xE5 SHL DUP2 MSTORE PUSH1 0x20 PUSH1 0x4 DUP3 ADD MSTORE PUSH1 0x1A PUSH1 0x24 DUP3 ADD MSTORE PUSH32 0x4E65656420746F20706179206D696E2062657420616D6F756E74000000000000 PUSH1 0x44 DUP3 ADD MSTORE PUSH1 0x64 ADD PUSH2 0x34F JUMP JUMPDEST PUSH1 0x0 PUSH1 0x64 PUSH1 0x3 SLOAD DUP4 PUSH2 0x1A9E SWAP2 SWAP1 PUSH2 0x3484 JUMP JUMPDEST PUSH2 0x1AA8 SWAP2 SWAP1 PUSH2 0x349B JUMP JUMPDEST SWAP1 POP PUSH1 0x0 PUSH1 0x64 PUSH1 0x4 SLOAD DUP5 PUSH2 0x1ABC SWAP2 SWAP1 PUSH2 0x3484 JUMP JUMPDEST PUSH2 0x1AC6 SWAP2 SWAP1 PUSH2 0x349B JUMP JUMPDEST SWAP1 POP PUSH1 0x0 DUP2 PUSH2 0x1AD5 DUP5 DUP7 PUSH2 0x34BD JUMP JUMPDEST PUSH2 0x1ADF SWAP2 SWAP1 PUSH2 0x34BD JUMP JUMPDEST PUSH1 0x0 SLOAD PUSH1 0x40 MLOAD PUSH4 0x23B872DD PUSH1 0xE0 SHL DUP2 MSTORE SWAP2 SWAP3 POP PUSH1 0x1 PUSH1 0x1 PUSH1 0xA0 SHL SUB AND SWAP1 PUSH4 0x23B872DD SWAP1 PUSH2 0x1B16 SWAP1 CALLER SWAP1 PUSH2 0xDEAD SWAP1 DUP9 SWAP1 PUSH1 0x4 ADD PUSH2 0x34D0 JUMP JUMPDEST PUSH1 0x20 PUSH1 0x40 MLOAD DUP1 DUP4 SUB DUP2 PUSH1 0x0 DUP8 GAS CALL ISZERO DUP1 ISZERO PUSH2 0x1B35 JUMPI RETURNDATASIZE PUSH1 0x0 DUP1 RETURNDATACOPY RETURNDATASIZE PUSH1 0x0 REVERT JUMPDEST POP POP POP POP PUSH1 0x40 MLOAD RETURNDATASIZE PUSH1 0x1F NOT PUSH1 0x1F DUP3 ADD AND DUP3 ADD DUP1 PUSH1 0x40 MSTORE POP DUP2 ADD SWAP1 PUSH2 0x1B59 SWAP2 SWAP1 PUSH2 0x34F4 JUMP JUMPDEST POP PUSH1 0x0 SLOAD PUSH1 0x2 SLOAD PUSH1 0x40 MLOAD PUSH4 0x23B872DD PUSH1 0xE0 SHL DUP2 MSTORE PUSH1 0x1 PUSH1 0x1 PUSH1 0xA0 SHL SUB SWAP3 DUP4 AND SWAP3 PUSH4 0x23B872DD SWAP3 PUSH2 0x1B93 SWAP3 CALLER SWAP3 SWAP1 SWAP2 AND SWAP1 DUP8 SWAP1 PUSH1 0x4 ADD PUSH2 0x34D0 JUMP JUMPDEST PUSH1 0x20 PUSH1 0x40 MLOAD DUP1 DUP4 SUB DUP2 PUSH1 0x0 DUP8 GAS CALL ISZERO DUP1 ISZERO PUSH2 0x1BB2 JUMPI RETURNDATASIZE PUSH1 0x0 DUP1 RETURNDATACOPY RETURNDATASIZE PUSH1 0x0 REVERT JUMPDEST POP POP POP POP PUSH1 0x40 MLOAD RETURNDATASIZE PUSH1 0x1F NOT PUSH1 0x1F DUP3 ADD AND DUP3 ADD DUP1 PUSH1 0x40 MSTORE POP DUP2 ADD SWAP1 PUSH2 0x1BD6 SWAP2 SWAP1 PUSH2 0x34F4 JUMP JUMPDEST POP PUSH1 0x0 SLOAD PUSH1 0x40 MLOAD PUSH4 0x23B872DD PUSH1 0xE0 SHL DUP2 MSTORE PUSH1 0x1 PUSH1 0x1 PUSH1 0xA0 SHL SUB SWAP1 SWAP2 AND SWAP1 PUSH4 0x23B872DD SWAP1 PUSH2 0x1C0B SWAP1 CALLER SWAP1 ADDRESS SWAP1 DUP7 SWAP1 PUSH1 0x4 ADD PUSH2 0x34D0 JUMP JUMPDEST PUSH1 0x20 PUSH1 0x40 MLOAD DUP1 DUP4 SUB DUP2 PUSH1 0x0 DUP8 GAS CALL ISZERO DUP1 ISZERO PUSH2 0x1C2A JUMPI RETURNDATASIZE PUSH1 0x0 DUP1 RETURNDATACOPY RETURNDATASIZE PUSH1 0x0 REVERT JUMPDEST POP POP POP POP PUSH1 0x40 MLOAD RETURNDATASIZE PUSH1 0x1F NOT PUSH1 0x1F DUP3 ADD AND DUP3 ADD DUP1 PUSH1 0x40 MSTORE POP DUP2 ADD SWAP1 PUSH2 0x1C4E SWAP2 SWAP1 PUSH2 0x34F4 JUMP JUMPDEST POP DUP1 PUSH1 0x5 PUSH1 0x0 DUP3 DUP3 SLOAD PUSH2 0x1C61 SWAP2 SWAP1 PUSH2 0x3516 JUMP JUMPDEST SWAP1 SWAP2 SSTORE POP POP PUSH1 0x7 DUP1 SLOAD DUP7 SWAP1 DUP2 LT PUSH2 0x1C7A JUMPI PUSH2 0x1C7A PUSH2 0x3672 JUMP JUMPDEST PUSH1 0x0 SWAP2 DUP3 MSTORE PUSH1 0x20 SWAP1 SWAP2 KECCAK256 PUSH1 0x4 PUSH1 0xB SWAP1 SWAP3 MUL ADD ADD SLOAD PUSH1 0x1 PUSH1 0x1 PUSH1 0xA0 SHL SUB AND CALLER SUB PUSH2 0x1CF1 JUMPI PUSH1 0x40 MLOAD PUSH3 0x461BCD PUSH1 0xE5 SHL DUP2 MSTORE PUSH1 0x20 PUSH1 0x4 DUP3 ADD MSTORE PUSH1 0x24 DUP1 DUP3 ADD MSTORE PUSH32 0x4572726F723A20596F752063616E6E6F7420706C6179207769746820796F7572 PUSH1 0x44 DUP3 ADD MSTORE PUSH4 0x39B2B633 PUSH1 0xE1 SHL PUSH1 0x64 DUP3 ADD MSTORE PUSH1 0x84 ADD PUSH2 0x34F JUMP JUMPDEST CALLER PUSH1 0x7 DUP7 DUP2 SLOAD DUP2 LT PUSH2 0x1D05 JUMPI PUSH2 0x1D05 PUSH2 0x3672 JUMP JUMPDEST SWAP1 PUSH1 0x0 MSTORE PUSH1 0x20 PUSH1 0x0 KECCAK256 SWAP1 PUSH1 0xB MUL ADD PUSH1 0x5 ADD PUSH1 0x0 PUSH2 0x100 EXP DUP2 SLOAD DUP2 PUSH1 0x1 PUSH1 0x1 PUSH1 0xA0 SHL SUB MUL NOT AND SWAP1 DUP4 PUSH1 0x1 PUSH1 0x1 PUSH1 0xA0 SHL SUB AND MUL OR SWAP1 SSTORE POP PUSH1 0x2 PUSH1 0x7 DUP7 DUP2 SLOAD DUP2 LT PUSH2 0x1D4F JUMPI PUSH2 0x1D4F PUSH2 0x3672 JUMP JUMPDEST SWAP1 PUSH1 0x0 MSTORE PUSH1 0x20 PUSH1 0x0 KECCAK256 SWAP1 PUSH1 0xB MUL ADD PUSH1 0x6 ADD DUP2 SWAP1 SSTORE POP PUSH1 0x1 PUSH1 0x7 DUP7 DUP2 SLOAD DUP2 LT PUSH2 0x1D79 JUMPI PUSH2 0x1D79 PUSH2 0x3672 JUMP JUMPDEST SWAP1 PUSH1 0x0 MSTORE PUSH1 0x20 PUSH1 0x0 KECCAK256 SWAP1 PUSH1 0xB MUL ADD PUSH1 0x0 ADD PUSH1 0x0 PUSH2 0x100 EXP DUP2 SLOAD DUP2 PUSH1 0xFF MUL NOT AND SWAP1 DUP4 ISZERO ISZERO MUL OR SWAP1 SSTORE POP DUP4 PUSH1 0x7 DUP7 DUP2 SLOAD DUP2 LT PUSH2 0x1DB5 JUMPI PUSH2 0x1DB5 PUSH2 0x3672 JUMP JUMPDEST SWAP1 PUSH1 0x0 MSTORE PUSH1 0x20 PUSH1 0x0 KECCAK256 SWAP1 PUSH1 0xB MUL ADD PUSH1 0x9 ADD DUP2 SWAP1 SSTORE POP PUSH32 0x2F78808C539FD07CB45456A5D5561C76D3D4005246FACCB297481E511ABC321A PUSH1 0x7 DUP7 DUP2 SLOAD DUP2 LT PUSH2 0x1DFE JUMPI PUSH2 0x1DFE PUSH2 0x3672 JUMP JUMPDEST SWAP1 PUSH1 0x0 MSTORE PUSH1 0x20 PUSH1 0x0 KECCAK256 SWAP1 PUSH1 0xB MUL ADD PUSH1 0x4 ADD PUSH1 0x0 SWAP1 SLOAD SWAP1 PUSH2 0x100 EXP SWAP1 DIV PUSH1 0x1 PUSH1 0x1 PUSH1 0xA0 SHL SUB AND PUSH1 0x7 DUP8 DUP2 SLOAD DUP2 LT PUSH2 0x1E36 JUMPI PUSH2 0x1E36 PUSH2 0x3672 JUMP JUMPDEST PUSH1 0x0 SWAP2 DUP3 MSTORE PUSH1 0x20 SWAP2 DUP3 SWAP1 KECCAK256 PUSH1 0xB SWAP2 DUP3 MUL ADD PUSH1 0x5 ADD SLOAD PUSH1 0x40 DUP1 MLOAD PUSH1 0x80 DUP1 DUP3 MSTORE DUP2 ADD SWAP4 SWAP1 SWAP4 MSTORE PUSH11 0x53746172742067616D6521 PUSH1 0xA8 SHL PUSH1 0xA0 DUP5 ADD MSTORE PUSH1 0x1 PUSH1 0x1 PUSH1 0xA0 SHL SUB SWAP5 DUP6 AND SWAP4 DUP4 ADD SWAP4 SWAP1 SWAP4 MSTORE SWAP3 SWAP1 SWAP3 AND SWAP1 DUP3 ADD MSTORE PUSH1 0x60 DUP2 ADD DUP8 SWAP1 MSTORE PUSH1 0xC0 ADD PUSH1 0x40 MLOAD DUP1 SWAP2 SUB SWAP1 LOG1 POP POP POP PUSH2 0x1F3C JUMP JUMPDEST PUSH1 0x7 DUP3 DUP2 SLOAD DUP2 LT PUSH2 0x1EB5 JUMPI PUSH2 0x1EB5 PUSH2 0x3672 JUMP JUMPDEST SWAP1 PUSH1 0x0 MSTORE PUSH1 0x20 PUSH1 0x0 KECCAK256 SWAP1 PUSH1 0xB MUL ADD PUSH1 0x6 ADD SLOAD PUSH1 0x2 EQ PUSH2 0x1F3C JUMPI PUSH1 0x40 MLOAD PUSH3 0x461BCD PUSH1 0xE5 SHL DUP2 MSTORE PUSH1 0x20 PUSH1 0x4 DUP3 ADD MSTORE PUSH1 0x3E PUSH1 0x24 DUP3 ADD MSTORE PUSH32 0x4E6F772071756575652069732066756C6C2C20747279206C617465722E204761 PUSH1 0x44 DUP3 ADD MSTORE PUSH32 0x6D6520616C72656164792066756C6C20706C73206A6F696E206F746865720000 PUSH1 0x64 DUP3 ADD MSTORE PUSH1 0x84 ADD PUSH2 0x34F JUMP JUMPDEST PUSH32 0x50370B40BD566613CB1B12508C3114409E62C5C8DE11BE443CAFC84462CF5699 PUSH1 0x7 DUP4 DUP2 SLOAD DUP2 LT PUSH2 0x1F70 JUMPI PUSH2 0x1F70 PUSH2 0x3672 JUMP JUMPDEST SWAP1 PUSH1 0x0 MSTORE PUSH1 0x20 PUSH1 0x0 KECCAK256 SWAP1 PUSH1 0xB MUL ADD DUP4 PUSH1 0x40 MLOAD PUSH2 0x1F8D SWAP3 SWAP2 SWAP1 PUSH2 0x38A9 JUMP JUMPDEST PUSH1 0x40 MLOAD DUP1 SWAP2 SUB SWAP1 LOG1 POP POP PUSH1 0x6 DUP1 SLOAD PUSH1 0xFF PUSH1 0xA0 SHL NOT AND SWAP1 SSTORE JUMP JUMPDEST PUSH1 0x0 SLOAD PUSH1 0x40 MLOAD PUSH4 0x70A08231 PUSH1 0xE0 SHL DUP2 MSTORE CALLER PUSH1 0x4 DUP3 ADD MSTORE PUSH1 0xA SWAP2 PUSH1 0x1 PUSH1 0x1 PUSH1 0xA0 SHL SUB AND SWAP1 PUSH4 0x70A08231 SWAP1 PUSH1 0x24 ADD PUSH1 0x20 PUSH1 0x40 MLOAD DUP1 DUP4 SUB DUP2 DUP7 GAS STATICCALL ISZERO DUP1 ISZERO PUSH2 0x1FEF JUMPI RETURNDATASIZE PUSH1 0x0 DUP1 RETURNDATACOPY RETURNDATASIZE PUSH1 0x0 REVERT JUMPDEST POP POP POP POP PUSH1 0x40 MLOAD RETURNDATASIZE PUSH1 0x1F NOT PUSH1 0x1F DUP3 ADD AND DUP3 ADD DUP1 PUSH1 0x40 MSTORE POP DUP2 ADD SWAP1 PUSH2 0x2013 SWAP2 SWAP1 PUSH2 0x3455 JUMP JUMPDEST LT PUSH2 0x2060 JUMPI PUSH1 0x40 MLOAD PUSH3 0x461BCD PUSH1 0xE5 SHL DUP2 MSTORE PUSH1 0x20 PUSH1 0x4 DUP3 ADD MSTORE PUSH1 0x1B PUSH1 0x24 DUP3 ADD MSTORE PUSH32 0x596F75207374696C6C20676F7420656E6F7567687420746F6B656E0000000000 PUSH1 0x44 DUP3 ADD MSTORE PUSH1 0x64 ADD PUSH2 0x34F JUMP JUMPDEST PUSH1 0x0 SLOAD PUSH1 0x40 MLOAD PUSH4 0xA9059CBB PUSH1 0xE0 SHL DUP2 MSTORE CALLER PUSH1 0x4 DUP3 ADD MSTORE PUSH9 0x56BC75E2D63100000 PUSH1 0x24 DUP3 ADD MSTORE PUSH1 0x1 PUSH1 0x1 PUSH1 0xA0 SHL SUB SWAP1 SWAP2 AND SWAP1 PUSH4 0xA9059CBB SWAP1 PUSH1 0x44 ADD PUSH2 0x1609 JUMP JUMPDEST PUSH1 0x0 DUP2 PUSH1 0x40 MLOAD PUSH1 0x20 ADD PUSH2 0x20B2 SWAP2 SWAP1 PUSH2 0x3989 JUMP JUMPDEST PUSH1 0x40 MLOAD PUSH1 0x20 DUP2 DUP4 SUB SUB DUP2 MSTORE SWAP1 PUSH1 0x40 MSTORE DUP1 MLOAD SWAP1 PUSH1 0x20 ADD KECCAK256 DUP4 PUSH1 0x40 MLOAD PUSH1 0x20 ADD PUSH2 0x20D9 SWAP2 SWAP1 PUSH2 0x3989 JUMP JUMPDEST PUSH1 0x40 MLOAD PUSH1 0x20 DUP2 DUP4 SUB SUB DUP2 MSTORE SWAP1 PUSH1 0x40 MSTORE DUP1 MLOAD SWAP1 PUSH1 0x20 ADD KECCAK256 EQ SWAP1 POP JUMPDEST SWAP3 SWAP2 POP POP JUMP JUMPDEST PUSH1 0x60 PUSH1 0x7 DUP3 DUP2 SLOAD DUP2 LT PUSH2 0x210E JUMPI PUSH2 0x210E PUSH2 0x3672 JUMP JUMPDEST SWAP1 PUSH1 0x0 MSTORE PUSH1 0x20 PUSH1 0x0 KECCAK256 SWAP1 PUSH1 0xB MUL ADD PUSH1 0x2 ADD DUP1 SLOAD DUP1 PUSH1 0x20 MUL PUSH1 0x20 ADD PUSH1 0x40 MLOAD SWAP1 DUP2 ADD PUSH1 0x40 MSTORE DUP1 SWAP3 SWAP2 SWAP1 DUP2 DUP2 MSTORE PUSH1 0x20 ADD PUSH1 0x0 SWAP1 JUMPDEST DUP3 DUP3 LT ISZERO PUSH2 0x21EB JUMPI DUP4 DUP3 SWAP1 PUSH1 0x0 MSTORE PUSH1 0x20 PUSH1 0x0 KECCAK256 ADD DUP1 SLOAD PUSH2 0x215E SWAP1 PUSH2 0x3529 JUMP JUMPDEST DUP1 PUSH1 0x1F ADD PUSH1 0x20 DUP1 SWAP2 DIV MUL PUSH1 0x20 ADD PUSH1 0x40 MLOAD SWAP1 DUP2 ADD PUSH1 0x40 MSTORE DUP1 SWAP3 SWAP2 SWAP1 DUP2 DUP2 MSTORE PUSH1 0x20 ADD DUP3 DUP1 SLOAD PUSH2 0x218A SWAP1 PUSH2 0x3529 JUMP JUMPDEST DUP1 ISZERO PUSH2 0x21D7 JUMPI DUP1 PUSH1 0x1F LT PUSH2 0x21AC JUMPI PUSH2 0x100 DUP1 DUP4 SLOAD DIV MUL DUP4 MSTORE SWAP2 PUSH1 0x20 ADD SWAP2 PUSH2 0x21D7 JUMP JUMPDEST DUP3 ADD SWAP2 SWAP1 PUSH1 0x0 MSTORE PUSH1 0x20 PUSH1 0x0 KECCAK256 SWAP1 JUMPDEST DUP2 SLOAD DUP2 MSTORE SWAP1 PUSH1 0x1 ADD SWAP1 PUSH1 0x20 ADD DUP1 DUP4 GT PUSH2 0x21BA JUMPI DUP3 SWAP1 SUB PUSH1 0x1F AND DUP3 ADD SWAP2 JUMPDEST POP POP POP POP POP DUP2 MSTORE PUSH1 0x20 ADD SWAP1 PUSH1 0x1 ADD SWAP1 PUSH2 0x213F JUMP JUMPDEST POP POP POP POP SWAP1 POP SWAP2 SWAP1 POP JUMP JUMPDEST PUSH1 0x6 SLOAD PUSH1 0x1 PUSH1 0x1 PUSH1 0xA0 SHL SUB AND CALLER EQ PUSH2 0x2240 JUMPI PUSH1 0x40 MLOAD PUSH3 0x461BCD PUSH1 0xE5 SHL DUP2 MSTORE PUSH1 0x20 PUSH1 0x4 DUP3 ADD MSTORE PUSH1 0xD PUSH1 0x24 DUP3 ADD MSTORE PUSH13 0x2737BA103A34329037BBB732B9 PUSH1 0x99 SHL PUSH1 0x44 DUP3 ADD MSTORE PUSH1 0x64 ADD PUSH2 0x34F JUMP JUMPDEST PUSH1 0x0 SLOAD PUSH1 0x6 SLOAD PUSH1 0x40 MLOAD PUSH4 0x70A08231 PUSH1 0xE0 SHL DUP2 MSTORE ADDRESS PUSH1 0x4 DUP3 ADD MSTORE PUSH1 0x1 PUSH1 0x1 PUSH1 0xA0 SHL SUB SWAP3 DUP4 AND SWAP3 PUSH4 0xA9059CBB SWAP3 AND SWAP1 DUP4 SWAP1 PUSH4 0x70A08231 SWAP1 PUSH1 0x24 ADD PUSH1 0x20 PUSH1 0x40 MLOAD DUP1 DUP4 SUB DUP2 DUP7 GAS STATICCALL ISZERO DUP1 ISZERO PUSH2 0x2295 JUMPI RETURNDATASIZE PUSH1 0x0 DUP1 RETURNDATACOPY RETURNDATASIZE PUSH1 0x0 REVERT JUMPDEST POP POP POP POP PUSH1 0x40 MLOAD RETURNDATASIZE PUSH1 0x1F NOT PUSH1 0x1F DUP3 ADD AND DUP3 ADD DUP1 PUSH1 0x40 MSTORE POP DUP2 ADD SWAP1 PUSH2 0x15DC SWAP2 SWAP1 PUSH2 0x3455 JUMP JUMPDEST PUSH1 0x0 PUSH1 0x7 DUP3 DUP2 SLOAD DUP2 LT PUSH2 0x22CE JUMPI PUSH2 0x22CE PUSH2 0x3672 JUMP JUMPDEST PUSH1 0x0 SWAP2 DUP3 MSTORE PUSH1 0x20 SWAP1 SWAP2 KECCAK256 PUSH1 0xB SWAP1 SWAP2 MUL ADD PUSH1 0x4 ADD SLOAD PUSH1 0x1 PUSH1 0x1 PUSH1 0xA0 SHL SUB AND CALLER EQ DUP1 PUSH2 0x2326 JUMPI POP PUSH1 0x7 DUP3 DUP2 SLOAD DUP2 LT PUSH2 0x2306 JUMPI PUSH2 0x2306 PUSH2 0x3672 JUMP JUMPDEST PUSH1 0x0 SWAP2 DUP3 MSTORE PUSH1 0x20 SWAP1 SWAP2 KECCAK256 PUSH1 0xB SWAP1 SWAP2 MUL ADD PUSH1 0x5 ADD SLOAD PUSH1 0x1 PUSH1 0x1 PUSH1 0xA0 SHL SUB AND CALLER EQ JUMPDEST PUSH2 0x2331 JUMPI PUSH1 0x0 PUSH2 0x20F3 JUMP JUMPDEST PUSH1 0x1 SWAP3 SWAP2 POP POP JUMP JUMPDEST PUSH1 0x0 DUP1 JUMPDEST PUSH1 0x8 SLOAD DUP2 LT ISZERO PUSH2 0x286C JUMPI PUSH1 0x0 PUSH1 0x8 DUP3 DUP2 SLOAD DUP2 LT PUSH2 0x235C JUMPI PUSH2 0x235C PUSH2 0x3672 JUMP JUMPDEST SWAP1 PUSH1 0x0 MSTORE PUSH1 0x20 PUSH1 0x0 KECCAK256 ADD DUP1 SLOAD DUP1 PUSH1 0x20 MUL PUSH1 0x20 ADD PUSH1 0x40 MLOAD SWAP1 DUP2 ADD PUSH1 0x40 MSTORE DUP1 SWAP3 SWAP2 SWAP1 DUP2 DUP2 MSTORE PUSH1 0x20 ADD DUP3 DUP1 SLOAD DUP1 ISZERO PUSH2 0x23B0 JUMPI PUSH1 0x20 MUL DUP3 ADD SWAP2 SWAP1 PUSH1 0x0 MSTORE PUSH1 0x20 PUSH1 0x0 KECCAK256 SWAP1 JUMPDEST DUP2 SLOAD DUP2 MSTORE PUSH1 0x20 ADD SWAP1 PUSH1 0x1 ADD SWAP1 DUP1 DUP4 GT PUSH2 0x239C JUMPI JUMPDEST POP POP POP POP POP SWAP1 POP PUSH1 0x0 PUSH1 0x7 DUP6 DUP2 SLOAD DUP2 LT PUSH2 0x23CC JUMPI PUSH2 0x23CC PUSH2 0x3672 JUMP JUMPDEST SWAP1 PUSH1 0x0 MSTORE PUSH1 0x20 PUSH1 0x0 KECCAK256 SWAP1 PUSH1 0xB MUL ADD PUSH1 0x2 ADD DUP3 PUSH1 0x0 DUP2 MLOAD DUP2 LT PUSH2 0x23F0 JUMPI PUSH2 0x23F0 PUSH2 0x3672 JUMP JUMPDEST PUSH1 0x20 MUL PUSH1 0x20 ADD ADD MLOAD DUP2 SLOAD DUP2 LT PUSH2 0x2408 JUMPI PUSH2 0x2408 PUSH2 0x3672 JUMP JUMPDEST SWAP1 PUSH1 0x0 MSTORE PUSH1 0x20 PUSH1 0x0 KECCAK256 ADD DUP1 SLOAD PUSH2 0x241D SWAP1 PUSH2 0x3529 JUMP JUMPDEST DUP1 PUSH1 0x1F ADD PUSH1 0x20 DUP1 SWAP2 DIV MUL PUSH1 0x20 ADD PUSH1 0x40 MLOAD SWAP1 DUP2 ADD PUSH1 0x40 MSTORE DUP1 SWAP3 SWAP2 SWAP1 DUP2 DUP2 MSTORE PUSH1 0x20 ADD DUP3 DUP1 SLOAD PUSH2 0x2449 SWAP1 PUSH2 0x3529 JUMP JUMPDEST DUP1 ISZERO PUSH2 0x2496 JUMPI DUP1 PUSH1 0x1F LT PUSH2 0x246B JUMPI PUSH2 0x100 DUP1 DUP4 SLOAD DIV MUL DUP4 MSTORE SWAP2 PUSH1 0x20 ADD SWAP2 PUSH2 0x2496 JUMP JUMPDEST DUP3 ADD SWAP2 SWAP1 PUSH1 0x0 MSTORE PUSH1 0x20 PUSH1 0x0 KECCAK256 SWAP1 JUMPDEST DUP2 SLOAD DUP2 MSTORE SWAP1 PUSH1 0x1 ADD SWAP1 PUSH1 0x20 ADD DUP1 DUP4 GT PUSH2 0x2479 JUMPI DUP3 SWAP1 SUB PUSH1 0x1F AND DUP3 ADD SWAP2 JUMPDEST POP POP POP POP POP SWAP1 POP PUSH1 0x0 PUSH1 0x7 DUP7 DUP2 SLOAD DUP2 LT PUSH2 0x24B2 JUMPI PUSH2 0x24B2 PUSH2 0x3672 JUMP JUMPDEST SWAP1 PUSH1 0x0 MSTORE PUSH1 0x20 PUSH1 0x0 KECCAK256 SWAP1 PUSH1 0xB MUL ADD PUSH1 0x2 ADD DUP4 PUSH1 0x1 DUP2 MLOAD DUP2 LT PUSH2 0x24D6 JUMPI PUSH2 0x24D6 PUSH2 0x3672 JUMP JUMPDEST PUSH1 0x20 MUL PUSH1 0x20 ADD ADD MLOAD DUP2 SLOAD DUP2 LT PUSH2 0x24EE JUMPI PUSH2 0x24EE PUSH2 0x3672 JUMP JUMPDEST SWAP1 PUSH1 0x0 MSTORE PUSH1 0x20 PUSH1 0x0 KECCAK256 ADD DUP1 SLOAD PUSH2 0x2503 SWAP1 PUSH2 0x3529 JUMP JUMPDEST DUP1 PUSH1 0x1F ADD PUSH1 0x20 DUP1 SWAP2 DIV MUL PUSH1 0x20 ADD PUSH1 0x40 MLOAD SWAP1 DUP2 ADD PUSH1 0x40 MSTORE DUP1 SWAP3 SWAP2 SWAP1 DUP2 DUP2 MSTORE PUSH1 0x20 ADD DUP3 DUP1 SLOAD PUSH2 0x252F SWAP1 PUSH2 0x3529 JUMP JUMPDEST DUP1 ISZERO PUSH2 0x257C JUMPI DUP1 PUSH1 0x1F LT PUSH2 0x2551 JUMPI PUSH2 0x100 DUP1 DUP4 SLOAD DIV MUL DUP4 MSTORE SWAP2 PUSH1 0x20 ADD SWAP2 PUSH2 0x257C JUMP JUMPDEST DUP3 ADD SWAP2 SWAP1 PUSH1 0x0 MSTORE PUSH1 0x20 PUSH1 0x0 KECCAK256 SWAP1 JUMPDEST DUP2 SLOAD DUP2 MSTORE SWAP1 PUSH1 0x1 ADD SWAP1 PUSH1 0x20 ADD DUP1 DUP4 GT PUSH2 0x255F JUMPI DUP3 SWAP1 SUB PUSH1 0x1F AND DUP3 ADD SWAP2 JUMPDEST POP POP POP POP POP SWAP1 POP PUSH1 0x0 PUSH1 0x7 DUP8 DUP2 SLOAD DUP2 LT PUSH2 0x2598 JUMPI PUSH2 0x2598 PUSH2 0x3672 JUMP JUMPDEST SWAP1 PUSH1 0x0 MSTORE PUSH1 0x20 PUSH1 0x0 KECCAK256 SWAP1 PUSH1 0xB MUL ADD PUSH1 0x2 ADD DUP5 PUSH1 0x2 DUP2 MLOAD DUP2 LT PUSH2 0x25BC JUMPI PUSH2 0x25BC PUSH2 0x3672 JUMP JUMPDEST PUSH1 0x20 MUL PUSH1 0x20 ADD ADD MLOAD DUP2 SLOAD DUP2 LT PUSH2 0x25D4 JUMPI PUSH2 0x25D4 PUSH2 0x3672 JUMP JUMPDEST SWAP1 PUSH1 0x0 MSTORE PUSH1 0x20 PUSH1 0x0 KECCAK256 ADD DUP1 SLOAD PUSH2 0x25E9 SWAP1 PUSH2 0x3529 JUMP JUMPDEST DUP1 PUSH1 0x1F ADD PUSH1 0x20 DUP1 SWAP2 DIV MUL PUSH1 0x20 ADD PUSH1 0x40 MLOAD SWAP1 DUP2 ADD PUSH1 0x40 MSTORE DUP1 SWAP3 SWAP2 SWAP1 DUP2 DUP2 MSTORE PUSH1 0x20 ADD DUP3 DUP1 SLOAD PUSH2 0x2615 SWAP1 PUSH2 0x3529 JUMP JUMPDEST DUP1 ISZERO PUSH2 0x2662 JUMPI DUP1 PUSH1 0x1F LT PUSH2 0x2637 JUMPI PUSH2 0x100 DUP1 DUP4 SLOAD DIV MUL DUP4 MSTORE SWAP2 PUSH1 0x20 ADD SWAP2 PUSH2 0x2662 JUMP JUMPDEST DUP3 ADD SWAP2 SWAP1 PUSH1 0x0 MSTORE PUSH1 0x20 PUSH1 0x0 KECCAK256 SWAP1 JUMPDEST DUP2 SLOAD DUP2 MSTORE SWAP1 PUSH1 0x1 ADD SWAP1 PUSH1 0x20 ADD DUP1 DUP4 GT PUSH2 0x2645 JUMPI DUP3 SWAP1 SUB PUSH1 0x1F AND DUP3 ADD SWAP2 JUMPDEST POP POP POP POP POP SWAP1 POP PUSH2 0x2682 DUP4 PUSH1 0x40 MLOAD DUP1 PUSH1 0x20 ADD PUSH1 0x40 MSTORE DUP1 PUSH1 0x0 DUP2 MSTORE POP PUSH2 0x209F JUMP JUMPDEST DUP1 PUSH2 0x26A1 JUMPI POP PUSH2 0x26A1 DUP3 PUSH1 0x40 MLOAD DUP1 PUSH1 0x20 ADD PUSH1 0x40 MSTORE DUP1 PUSH1 0x0 DUP2 MSTORE POP PUSH2 0x209F JUMP JUMPDEST DUP1 PUSH2 0x26C0 JUMPI POP PUSH2 0x26C0 DUP2 PUSH1 0x40 MLOAD DUP1 PUSH1 0x20 ADD PUSH1 0x40 MSTORE DUP1 PUSH1 0x0 DUP2 MSTORE POP PUSH2 0x209F JUMP JUMPDEST ISZERO PUSH2 0x26CE JUMPI POP POP POP POP PUSH2 0x285A JUMP JUMPDEST PUSH2 0x26D8 DUP4 DUP4 PUSH2 0x209F JUMP JUMPDEST DUP1 ISZERO PUSH2 0x26E9 JUMPI POP PUSH2 0x26E9 DUP3 DUP3 PUSH2 0x209F JUMP JUMPDEST ISZERO PUSH2 0x2855 JUMPI DUP4 PUSH1 0x7 DUP9 DUP2 SLOAD DUP2 LT PUSH2 0x2702 JUMPI PUSH2 0x2702 PUSH2 0x3672 JUMP JUMPDEST SWAP1 PUSH1 0x0 MSTORE PUSH1 0x20 PUSH1 0x0 KECCAK256 SWAP1 PUSH1 0xB MUL ADD PUSH1 0x3 ADD SWAP1 DUP1 MLOAD SWAP1 PUSH1 0x20 ADD SWAP1 PUSH2 0x2726 SWAP3 SWAP2 SWAP1 PUSH2 0x2EE3 JUMP JUMPDEST POP PUSH2 0x273D PUSH1 0x7 DUP9 DUP2 SLOAD DUP2 LT PUSH2 0x10CC JUMPI PUSH2 0x10CC PUSH2 0x3672 JUMP JUMPDEST ISZERO PUSH2 0x27C7 JUMPI PUSH1 0x7 DUP8 DUP2 SLOAD DUP2 LT PUSH2 0x2755 JUMPI PUSH2 0x2755 PUSH2 0x3672 JUMP JUMPDEST SWAP1 PUSH1 0x0 MSTORE PUSH1 0x20 PUSH1 0x0 KECCAK256 SWAP1 PUSH1 0xB MUL ADD PUSH1 0x4 ADD PUSH1 0x0 SWAP1 SLOAD SWAP1 PUSH2 0x100 EXP SWAP1 DIV PUSH1 0x1 PUSH1 0x1 PUSH1 0xA0 SHL SUB AND PUSH1 0x7 DUP9 DUP2 SLOAD DUP2 LT PUSH2 0x278D JUMPI PUSH2 0x278D PUSH2 0x3672 JUMP JUMPDEST SWAP1 PUSH1 0x0 MSTORE PUSH1 0x20 PUSH1 0x0 KECCAK256 SWAP1 PUSH1 0xB MUL ADD PUSH1 0x7 ADD PUSH1 0x0 PUSH2 0x100 EXP DUP2 SLOAD DUP2 PUSH1 0x1 PUSH1 0x1 PUSH1 0xA0 SHL SUB MUL NOT AND SWAP1 DUP4 PUSH1 0x1 PUSH1 0x1 PUSH1 0xA0 SHL SUB AND MUL OR SWAP1 SSTORE POP PUSH2 0x2848 JUMP JUMPDEST PUSH1 0x7 DUP8 DUP2 SLOAD DUP2 LT PUSH2 0x27DA JUMPI PUSH2 0x27DA PUSH2 0x3672 JUMP JUMPDEST SWAP1 PUSH1 0x0 MSTORE PUSH1 0x20 PUSH1 0x0 KECCAK256 SWAP1 PUSH1 0xB MUL ADD PUSH1 0x5 ADD PUSH1 0x0 SWAP1 SLOAD SWAP1 PUSH2 0x100 EXP SWAP1 DIV PUSH1 0x1 PUSH1 0x1 PUSH1 0xA0 SHL SUB AND PUSH1 0x7 DUP9 DUP2 SLOAD DUP2 LT PUSH2 0x2812 JUMPI PUSH2 0x2812 PUSH2 0x3672 JUMP JUMPDEST SWAP1 PUSH1 0x0 MSTORE PUSH1 0x20 PUSH1 0x0 KECCAK256 SWAP1 PUSH1 0xB MUL ADD PUSH1 0x7 ADD PUSH1 0x0 PUSH2 0x100 EXP DUP2 SLOAD DUP2 PUSH1 0x1 PUSH1 0x1 PUSH1 0xA0 SHL SUB MUL NOT AND SWAP1 DUP4 PUSH1 0x1 PUSH1 0x1 PUSH1 0xA0 SHL SUB AND MUL OR SWAP1 SSTORE POP JUMPDEST PUSH1 0x1 SWAP6 POP POP POP POP POP PUSH2 0x286C JUMP JUMPDEST POP POP POP POP JUMPDEST DUP1 PUSH2 0x2864 DUP2 PUSH2 0x3688 JUMP JUMPDEST SWAP2 POP POP PUSH2 0x233D JUMP JUMPDEST POP DUP1 ISZERO PUSH2 0x2B51 JUMPI PUSH2 0x2889 PUSH1 0x7 DUP4 DUP2 SLOAD DUP2 LT PUSH2 0x10CC JUMPI PUSH2 0x10CC PUSH2 0x3672 JUMP JUMPDEST ISZERO PUSH2 0x2983 JUMPI PUSH1 0x0 SLOAD PUSH1 0x7 DUP1 SLOAD PUSH1 0x1 PUSH1 0x1 PUSH1 0xA0 SHL SUB SWAP1 SWAP3 AND SWAP2 PUSH4 0xA9059CBB SWAP2 SWAP1 DUP6 SWAP1 DUP2 LT PUSH2 0x28B8 JUMPI PUSH2 0x28B8 PUSH2 0x3672 JUMP JUMPDEST SWAP1 PUSH1 0x0 MSTORE PUSH1 0x20 PUSH1 0x0 KECCAK256 SWAP1 PUSH1 0xB MUL ADD PUSH1 0x4 ADD PUSH1 0x0 SWAP1 SLOAD SWAP1 PUSH2 0x100 EXP SWAP1 DIV PUSH1 0x1 PUSH1 0x1 PUSH1 0xA0 SHL SUB AND PUSH1 0x7 DUP6 DUP2 SLOAD DUP2 LT PUSH2 0x28F0 JUMPI PUSH2 0x28F0 PUSH2 0x3672 JUMP JUMPDEST SWAP1 PUSH1 0x0 MSTORE PUSH1 0x20 PUSH1 0x0 KECCAK256 SWAP1 PUSH1 0xB MUL ADD PUSH1 0xA ADD SLOAD PUSH1 0x2 PUSH2 0x290E SWAP2 SWAP1 PUSH2 0x3484 JUMP JUMPDEST PUSH1 0x40 MLOAD PUSH1 0x1 PUSH1 0x1 PUSH1 0xE0 SHL SUB NOT PUSH1 0xE0 DUP6 SWAP1 SHL AND DUP2 MSTORE PUSH1 0x1 PUSH1 0x1 PUSH1 0xA0 SHL SUB SWAP1 SWAP3 AND PUSH1 0x4 DUP4 ADD MSTORE PUSH1 0x24 DUP3 ADD MSTORE PUSH1 0x44 ADD PUSH1 0x20 PUSH1 0x40 MLOAD DUP1 DUP4 SUB DUP2 PUSH1 0x0 DUP8 GAS CALL ISZERO DUP1 ISZERO PUSH2 0x2959 JUMPI RETURNDATASIZE PUSH1 0x0 DUP1 RETURNDATACOPY RETURNDATASIZE PUSH1 0x0 REVERT JUMPDEST POP POP POP POP PUSH1 0x40 MLOAD RETURNDATASIZE PUSH1 0x1F NOT PUSH1 0x1F DUP3 ADD AND DUP3 ADD DUP1 PUSH1 0x40 MSTORE POP DUP2 ADD SWAP1 PUSH2 0x297D SWAP2 SWAP1 PUSH2 0x34F4 JUMP JUMPDEST POP PUSH2 0x2A74 JUMP JUMPDEST PUSH1 0x0 SLOAD PUSH1 0x7 DUP1 SLOAD PUSH1 0x1 PUSH1 0x1 PUSH1 0xA0 SHL SUB SWAP1 SWAP3 AND SWAP2 PUSH4 0xA9059CBB SWAP2 SWAP1 DUP6 SWAP1 DUP2 LT PUSH2 0x29AD JUMPI PUSH2 0x29AD PUSH2 0x3672 JUMP JUMPDEST SWAP1 PUSH1 0x0 MSTORE PUSH1 0x20 PUSH1 0x0 KECCAK256 SWAP1 PUSH1 0xB MUL ADD PUSH1 0x5 ADD PUSH1 0x0 SWAP1 SLOAD SWAP1 PUSH2 0x100 EXP SWAP1 DIV PUSH1 0x1 PUSH1 0x1 PUSH1 0xA0 SHL SUB AND PUSH1 0x7 DUP6 DUP2 SLOAD DUP2 LT PUSH2 0x29E5 JUMPI PUSH2 0x29E5 PUSH2 0x3672 JUMP JUMPDEST SWAP1 PUSH1 0x0 MSTORE PUSH1 0x20 PUSH1 0x0 KECCAK256 SWAP1 PUSH1 0xB MUL ADD PUSH1 0xA ADD SLOAD PUSH1 0x2 PUSH2 0x2A03 SWAP2 SWAP1 PUSH2 0x3484 JUMP JUMPDEST PUSH1 0x40 MLOAD PUSH1 0x1 PUSH1 0x1 PUSH1 0xE0 SHL SUB NOT PUSH1 0xE0 DUP6 SWAP1 SHL AND DUP2 MSTORE PUSH1 0x1 PUSH1 0x1 PUSH1 0xA0 SHL SUB SWAP1 SWAP3 AND PUSH1 0x4 DUP4 ADD MSTORE PUSH1 0x24 DUP3 ADD MSTORE PUSH1 0x44 ADD PUSH1 0x20 PUSH1 0x40 MLOAD DUP1 DUP4 SUB DUP2 PUSH1 0x0 DUP8 GAS CALL ISZERO DUP1 ISZERO PUSH2 0x2A4E JUMPI RETURNDATASIZE PUSH1 0x0 DUP1 RETURNDATACOPY RETURNDATASIZE PUSH1 0x0 REVERT JUMPDEST POP POP POP POP PUSH1 0x40 MLOAD RETURNDATASIZE PUSH1 0x1F NOT PUSH1 0x1F DUP3 ADD AND DUP3 ADD DUP1 PUSH1 0x40 MSTORE POP DUP2 ADD SWAP1 PUSH2 0x2A72 SWAP2 SWAP1 PUSH2 0x34F4 JUMP JUMPDEST POP JUMPDEST PUSH1 0x7 DUP3 DUP2 SLOAD DUP2 LT PUSH2 0x2A87 JUMPI PUSH2 0x2A87 PUSH2 0x3672 JUMP JUMPDEST SWAP1 PUSH1 0x0 MSTORE PUSH1 0x20 PUSH1 0x0 KECCAK256 SWAP1 PUSH1 0xB MUL ADD PUSH1 0xA ADD SLOAD PUSH1 0x2 PUSH2 0x2AA5 SWAP2 SWAP1 PUSH2 0x3484 JUMP JUMPDEST PUSH1 0x5 PUSH1 0x0 DUP3 DUP3 SLOAD PUSH2 0x2AB6 SWAP2 SWAP1 PUSH2 0x34BD JUMP JUMPDEST SWAP3 POP POP DUP2 SWAP1 SSTORE POP PUSH32 0x938A1C44580C51D01225D61FB97878104148B1CDC734EB45BC5B5B50533A492D PUSH1 0x7 DUP4 DUP2 SLOAD DUP2 LT PUSH2 0x2AF1 JUMPI PUSH2 0x2AF1 PUSH2 0x3672 JUMP JUMPDEST SWAP1 PUSH1 0x0 MSTORE PUSH1 0x20 PUSH1 0x0 KECCAK256 SWAP1 PUSH1 0xB MUL ADD PUSH1 0x1 ADD DUP4 PUSH1 0x40 MLOAD PUSH2 0x2B11 SWAP3 SWAP2 SWAP1 PUSH2 0x39A5 JUMP JUMPDEST PUSH1 0x40 MLOAD DUP1 SWAP2 SUB SWAP1 LOG1 PUSH1 0x0 PUSH1 0x7 DUP4 DUP2 SLOAD DUP2 LT PUSH2 0x2B2E JUMPI PUSH2 0x2B2E PUSH2 0x3672 JUMP JUMPDEST PUSH1 0x0 SWAP2 DUP3 MSTORE PUSH1 0x20 SWAP1 SWAP2 KECCAK256 PUSH1 0xB SWAP1 SWAP2 MUL ADD DUP1 SLOAD PUSH1 0xFF NOT AND SWAP2 ISZERO ISZERO SWAP2 SWAP1 SWAP2 OR SWAP1 SSTORE POP POP JUMP JUMPDEST PUSH2 0x2B5A DUP3 PUSH2 0x2BB6 JUMP JUMPDEST ISZERO PUSH2 0x2BAD JUMPI PUSH1 0x40 DUP1 MLOAD DUP2 DUP2 MSTORE PUSH1 0x4 SWAP2 DUP2 ADD SWAP2 SWAP1 SWAP2 MSTORE PUSH4 0x44726177 PUSH1 0xE0 SHL PUSH1 0x60 DUP3 ADD MSTORE PUSH1 0x20 DUP2 ADD DUP4 SWAP1 MSTORE PUSH32 0x938A1C44580C51D01225D61FB97878104148B1CDC734EB45BC5B5B50533A492D SWAP1 PUSH1 0x80 ADD PUSH2 0x2B11 JUMP JUMPDEST PUSH2 0x134E DUP3 PUSH2 0x2C4A JUMP JUMPDEST PUSH1 0x0 DUP1 JUMPDEST PUSH1 0x7 DUP4 DUP2 SLOAD DUP2 LT PUSH2 0x2BCD JUMPI PUSH2 0x2BCD PUSH2 0x3672 JUMP JUMPDEST SWAP1 PUSH1 0x0 MSTORE PUSH1 0x20 PUSH1 0x0 KECCAK256 SWAP1 PUSH1 0xB MUL ADD PUSH1 0x2 ADD DUP1 SLOAD SWAP1 POP DUP2 LT ISZERO PUSH2 0x2C41 JUMPI PUSH2 0x2C21 PUSH1 0x7 DUP5 DUP2 SLOAD DUP2 LT PUSH2 0x2BFF JUMPI PUSH2 0x2BFF PUSH2 0x3672 JUMP JUMPDEST SWAP1 PUSH1 0x0 MSTORE PUSH1 0x20 PUSH1 0x0 KECCAK256 SWAP1 PUSH1 0xB MUL ADD PUSH1 0x2 ADD DUP3 DUP2 SLOAD DUP2 LT PUSH2 0xFD2 JUMPI PUSH2 0xFD2 PUSH2 0x3672 JUMP JUMPDEST ISZERO PUSH2 0x2C2F JUMPI POP PUSH1 0x0 SWAP3 SWAP2 POP POP JUMP JUMPDEST DUP1 PUSH2 0x2C39 DUP2 PUSH2 0x3688 JUMP JUMPDEST SWAP2 POP POP PUSH2 0x2BBA JUMP JUMPDEST POP PUSH1 0x1 SWAP3 SWAP2 POP POP JUMP JUMPDEST PUSH2 0x2C60 PUSH1 0x7 DUP3 DUP2 SLOAD DUP2 LT PUSH2 0x10CC JUMPI PUSH2 0x10CC PUSH2 0x3672 JUMP JUMPDEST ISZERO PUSH2 0x2CD3 JUMPI PUSH32 0xEEFC3FD775B975165C9D067E02FCD5BF5889D58041AE6DDAF94F2CC853007272 PUSH1 0x7 DUP3 DUP2 SLOAD DUP2 LT PUSH2 0x2C99 JUMPI PUSH2 0x2C99 PUSH2 0x3672 JUMP JUMPDEST PUSH1 0x0 SWAP2 DUP3 MSTORE PUSH1 0x20 SWAP2 DUP3 SWAP1 KECCAK256 PUSH1 0xB SWAP1 SWAP2 MUL ADD PUSH1 0x5 ADD SLOAD PUSH1 0x40 DUP1 MLOAD PUSH1 0x1 PUSH1 0x1 PUSH1 0xA0 SHL SUB SWAP1 SWAP3 AND DUP3 MSTORE SWAP2 DUP2 ADD DUP5 SWAP1 MSTORE ADD PUSH1 0x40 MLOAD DUP1 SWAP2 SUB SWAP1 LOG1 PUSH2 0x2D3D JUMP JUMPDEST PUSH32 0xEEFC3FD775B975165C9D067E02FCD5BF5889D58041AE6DDAF94F2CC853007272 PUSH1 0x7 DUP3 DUP2 SLOAD DUP2 LT PUSH2 0x2D07 JUMPI PUSH2 0x2D07 PUSH2 0x3672 JUMP JUMPDEST PUSH1 0x0 SWAP2 DUP3 MSTORE PUSH1 0x20 SWAP2 DUP3 SWAP1 KECCAK256 PUSH1 0xB SWAP1 SWAP2 MUL ADD PUSH1 0x4 ADD SLOAD PUSH1 0x40 DUP1 MLOAD PUSH1 0x1 PUSH1 0x1 PUSH1 0xA0 SHL SUB SWAP1 SWAP3 AND DUP3 MSTORE SWAP2 DUP2 ADD DUP5 SWAP1 MSTORE ADD PUSH1 0x40 MLOAD DUP1 SWAP2 SUB SWAP1 LOG1 JUMPDEST PUSH2 0x2D53 PUSH1 0x7 DUP3 DUP2 SLOAD DUP2 LT PUSH2 0x10CC JUMPI PUSH2 0x10CC PUSH2 0x3672 JUMP JUMPDEST PUSH2 0x2D76 JUMPI PUSH1 0x40 MLOAD DUP1 PUSH1 0x40 ADD PUSH1 0x40 MSTORE DUP1 PUSH1 0x1 DUP2 MSTORE PUSH1 0x20 ADD PUSH1 0xB PUSH1 0xFB SHL DUP2 MSTORE POP PUSH2 0x2D91 JUMP JUMPDEST PUSH1 0x40 MLOAD DUP1 PUSH1 0x40 ADD PUSH1 0x40 MSTORE DUP1 PUSH1 0x1 DUP2 MSTORE PUSH1 0x20 ADD PUSH1 0x4F PUSH1 0xF8 SHL DUP2 MSTORE POP JUMPDEST PUSH1 0x7 DUP3 DUP2 SLOAD DUP2 LT PUSH2 0x2DA4 JUMPI PUSH2 0x2DA4 PUSH2 0x3672 JUMP JUMPDEST SWAP1 PUSH1 0x0 MSTORE PUSH1 0x20 PUSH1 0x0 KECCAK256 SWAP1 PUSH1 0xB MUL ADD PUSH1 0x1 ADD SWAP1 DUP2 PUSH2 0x2DC1 SWAP2 SWAP1 PUSH2 0x35B2 JUMP JUMPDEST POP PUSH32 0xA6D1CB5F730B987124C37C3876130FDDBA49456449948EC4257360F5AB2851C0 PUSH1 0x7 DUP3 DUP2 SLOAD DUP2 LT PUSH2 0x2DF6 JUMPI PUSH2 0x2DF6 PUSH2 0x3672 JUMP JUMPDEST SWAP1 PUSH1 0x0 MSTORE PUSH1 0x20 PUSH1 0x0 KECCAK256 SWAP1 PUSH1 0xB MUL ADD PUSH1 0x1 ADD DUP3 PUSH1 0x40 MLOAD PUSH2 0xF1C SWAP3 SWAP2 SWAP1 PUSH2 0x39A5 JUMP JUMPDEST PUSH1 0x40 MLOAD DUP1 PUSH2 0x160 ADD PUSH1 0x40 MSTORE DUP1 PUSH1 0x0 ISZERO ISZERO DUP2 MSTORE PUSH1 0x20 ADD PUSH1 0x60 DUP2 MSTORE PUSH1 0x20 ADD PUSH1 0x60 DUP2 MSTORE PUSH1 0x20 ADD PUSH1 0x60 DUP2 MSTORE PUSH1 0x20 ADD PUSH1 0x0 PUSH1 0x1 PUSH1 0x1 PUSH1 0xA0 SHL SUB AND DUP2 MSTORE PUSH1 0x20 ADD PUSH1 0x0 PUSH1 0x1 PUSH1 0x1 PUSH1 0xA0 SHL SUB AND DUP2 MSTORE PUSH1 0x20 ADD PUSH1 0x0 DUP2 MSTORE PUSH1 0x20 ADD PUSH1 0x0 PUSH1 0x1 PUSH1 0x1 PUSH1 0xA0 SHL SUB AND DUP2 MSTORE PUSH1 0x20 ADD PUSH1 0x0 DUP2 MSTORE PUSH1 0x20 ADD PUSH1 0x0 DUP2 MSTORE PUSH1 0x20 ADD PUSH1 0x0 DUP2 MSTORE POP SWAP1 JUMP JUMPDEST DUP3 DUP1 SLOAD DUP3 DUP3 SSTORE SWAP1 PUSH1 0x0 MSTORE PUSH1 0x20 PUSH1 0x0 KECCAK256 SWAP1 DUP2 ADD SWAP3 DUP3 ISZERO PUSH2 0x2ED3 JUMPI SWAP2 PUSH1 0x20 MUL DUP3 ADD JUMPDEST DUP3 DUP2 GT ISZERO PUSH2 0x2ED3 JUMPI DUP3 MLOAD DUP3 SWAP1 PUSH2 0x2EC3 SWAP1 DUP3 PUSH2 0x35B2 JUMP JUMPDEST POP SWAP2 PUSH1 0x20 ADD SWAP2 SWAP1 PUSH1 0x1 ADD SWAP1 PUSH2 0x2EAD JUMP JUMPDEST POP PUSH2 0x2EDF SWAP3 SWAP2 POP PUSH2 0x2F70 JUMP JUMPDEST POP SWAP1 JUMP JUMPDEST DUP3 DUP1 SLOAD DUP3 DUP3 SSTORE SWAP1 PUSH1 0x0 MSTORE PUSH1 0x20 PUSH1 0x0 KECCAK256 SWAP1 DUP2 ADD SWAP3 DUP3 ISZERO PUSH2 0x2F1E JUMPI SWAP2 PUSH1 0x20 MUL DUP3 ADD JUMPDEST DUP3 DUP2 GT ISZERO PUSH2 0x2F1E JUMPI DUP3 MLOAD DUP3 SSTORE SWAP2 PUSH1 0x20 ADD SWAP2 SWAP1 PUSH1 0x1 ADD SWAP1 PUSH2 0x2F03 JUMP JUMPDEST POP PUSH2 0x2EDF SWAP3 SWAP2 POP PUSH2 0x2F8D JUMP JUMPDEST DUP3 DUP1 SLOAD DUP3 DUP3 SSTORE SWAP1 PUSH1 0x0 MSTORE PUSH1 0x20 PUSH1 0x0 KECCAK256 SWAP1 DUP2 ADD SWAP3 DUP3 ISZERO PUSH2 0x2ED3 JUMPI SWAP2 PUSH1 0x20 MUL DUP3 ADD JUMPDEST DUP3 DUP2 GT ISZERO PUSH2 0x2ED3 JUMPI DUP3 MLOAD DUP3 SWAP1 PUSH2 0x2F60 SWAP1 DUP3 PUSH2 0x35B2 JUMP JUMPDEST POP SWAP2 PUSH1 0x20 ADD SWAP2 SWAP1 PUSH1 0x1 ADD SWAP1 PUSH2 0x2F4A JUMP JUMPDEST DUP1 DUP3 GT ISZERO PUSH2 0x2EDF JUMPI PUSH1 0x0 PUSH2 0x2F84 DUP3 DUP3 PUSH2 0x2FA2 JUMP JUMPDEST POP PUSH1 0x1 ADD PUSH2 0x2F70 JUMP JUMPDEST JUMPDEST DUP1 DUP3 GT ISZERO PUSH2 0x2EDF JUMPI PUSH1 0x0 DUP2 SSTORE PUSH1 0x1 ADD PUSH2 0x2F8E JUMP JUMPDEST POP DUP1 SLOAD PUSH2 0x2FAE SWAP1 PUSH2 0x3529 JUMP JUMPDEST PUSH1 0x0 DUP3 SSTORE DUP1 PUSH1 0x1F LT PUSH2 0x2FBE JUMPI POP POP JUMP JUMPDEST PUSH1 0x1F ADD PUSH1 0x20 SWAP1 DIV SWAP1 PUSH1 0x0 MSTORE PUSH1 0x20 PUSH1 0x0 KECCAK256 SWAP1 DUP2 ADD SWAP1 PUSH2 0xB13 SWAP2 SWAP1 PUSH2 0x2F8D JUMP JUMPDEST PUSH1 0x0 PUSH1 0x20 DUP3 DUP5 SUB SLT ISZERO PUSH2 0x2FEE JUMPI PUSH1 0x0 DUP1 REVERT JUMPDEST POP CALLDATALOAD SWAP2 SWAP1 POP JUMP JUMPDEST PUSH1 0x20 DUP1 DUP3 MSTORE DUP3 MLOAD DUP3 DUP3 ADD DUP2 SWAP1 MSTORE PUSH1 0x0 SWAP2 SWAP1 DUP5 DUP3 ADD SWAP1 PUSH1 0x40 DUP6 ADD SWAP1 DUP5 JUMPDEST DUP2 DUP2 LT ISZERO PUSH2 0x302D JUMPI DUP4 MLOAD DUP4 MSTORE SWAP3 DUP5 ADD SWAP3 SWAP2 DUP5 ADD SWAP2 PUSH1 0x1 ADD PUSH2 0x3011 JUMP JUMPDEST POP SWAP1 SWAP7 SWAP6 POP POP POP POP POP POP JUMP JUMPDEST PUSH1 0x0 JUMPDEST DUP4 DUP2 LT ISZERO PUSH2 0x3054 JUMPI DUP2 DUP2 ADD MLOAD DUP4 DUP3 ADD MSTORE PUSH1 0x20 ADD PUSH2 0x303C JUMP JUMPDEST POP POP PUSH1 0x0 SWAP2 ADD MSTORE JUMP JUMPDEST PUSH1 0x0 DUP2 MLOAD DUP1 DUP5 MSTORE PUSH2 0x3075 DUP2 PUSH1 0x20 DUP7 ADD PUSH1 0x20 DUP7 ADD PUSH2 0x3039 JUMP JUMPDEST PUSH1 0x1F ADD PUSH1 0x1F NOT AND SWAP3 SWAP1 SWAP3 ADD PUSH1 0x20 ADD SWAP3 SWAP2 POP POP JUMP JUMPDEST PUSH1 0x0 DUP3 DUP3 MLOAD DUP1 DUP6 MSTORE PUSH1 0x20 DUP1 DUP7 ADD SWAP6 POP DUP1 DUP3 PUSH1 0x5 SHL DUP5 ADD ADD DUP2 DUP7 ADD PUSH1 0x0 JUMPDEST DUP5 DUP2 LT ISZERO PUSH2 0x30D4 JUMPI PUSH1 0x1F NOT DUP7 DUP5 SUB ADD DUP10 MSTORE PUSH2 0x30C2 DUP4 DUP4 MLOAD PUSH2 0x305D JUMP JUMPDEST SWAP9 DUP5 ADD SWAP9 SWAP3 POP SWAP1 DUP4 ADD SWAP1 PUSH1 0x1 ADD PUSH2 0x30A6 JUMP JUMPDEST POP SWAP1 SWAP8 SWAP7 POP POP POP POP POP POP POP JUMP JUMPDEST PUSH1 0x0 DUP2 MLOAD DUP1 DUP5 MSTORE PUSH1 0x20 DUP1 DUP6 ADD SWAP5 POP DUP1 DUP5 ADD PUSH1 0x0 JUMPDEST DUP4 DUP2 LT ISZERO PUSH2 0x3111 JUMPI DUP2 MLOAD DUP8 MSTORE SWAP6 DUP3 ADD SWAP6 SWAP1 DUP3 ADD SWAP1 PUSH1 0x1 ADD PUSH2 0x30F5 JUMP JUMPDEST POP SWAP5 SWAP6 SWAP5 POP POP POP POP POP JUMP JUMPDEST DUP1 MLOAD ISZERO ISZERO DUP3 MSTORE PUSH1 0x0 PUSH2 0x160 PUSH1 0x20 DUP4 ADD MLOAD DUP2 PUSH1 0x20 DUP7 ADD MSTORE PUSH2 0x313E DUP3 DUP7 ADD DUP3 PUSH2 0x305D JUMP JUMPDEST SWAP2 POP POP PUSH1 0x40 DUP4 ADD MLOAD DUP5 DUP3 SUB PUSH1 0x40 DUP7 ADD MSTORE PUSH2 0x3158 DUP3 DUP3 PUSH2 0x3089 JUMP JUMPDEST SWAP2 POP POP PUSH1 0x60 DUP4 ADD MLOAD DUP5 DUP3 SUB PUSH1 0x60 DUP7 ADD MSTORE PUSH2 0x3172 DUP3 DUP3 PUSH2 0x30E1 JUMP JUMPDEST SWAP2 POP POP PUSH1 0x80 DUP4 ADD MLOAD PUSH2 0x318F PUSH1 0x80 DUP7 ADD DUP3 PUSH1 0x1 PUSH1 0x1 PUSH1 0xA0 SHL SUB AND SWAP1 MSTORE JUMP JUMPDEST POP PUSH1 0xA0 DUP4 ADD MLOAD PUSH2 0x31AA PUSH1 0xA0 DUP7 ADD DUP3 PUSH1 0x1 PUSH1 0x1 PUSH1 0xA0 SHL SUB AND SWAP1 MSTORE JUMP JUMPDEST POP PUSH1 0xC0 DUP4 ADD MLOAD PUSH1 0xC0 DUP6 ADD MSTORE PUSH1 0xE0 DUP4 ADD MLOAD PUSH2 0x31CF PUSH1 0xE0 DUP7 ADD DUP3 PUSH1 0x1 PUSH1 0x1 PUSH1 0xA0 SHL SUB AND SWAP1 MSTORE JUMP JUMPDEST POP PUSH2 0x100 DUP4 DUP2 ADD MLOAD SWAP1 DUP6 ADD MSTORE PUSH2 0x120 DUP1 DUP5 ADD MLOAD SWAP1 DUP6 ADD MSTORE PUSH2 0x140 SWAP3 DUP4 ADD MLOAD SWAP3 SWAP1 SWAP4 ADD SWAP2 SWAP1 SWAP2 MSTORE POP SWAP1 JUMP JUMPDEST PUSH1 0x0 PUSH1 0x20 DUP1 DUP4 ADD DUP2 DUP5 MSTORE DUP1 DUP6 MLOAD DUP1 DUP4 MSTORE PUSH1 0x40 DUP7 ADD SWAP2 POP PUSH1 0x40 DUP2 PUSH1 0x5 SHL DUP8 ADD ADD SWAP3 POP DUP4 DUP8 ADD PUSH1 0x0 JUMPDEST DUP3 DUP2 LT ISZERO PUSH2 0x324E JUMPI PUSH1 0x3F NOT DUP9 DUP7 SUB ADD DUP5 MSTORE PUSH2 0x323C DUP6 DUP4 MLOAD PUSH2 0x311C JUMP JUMPDEST SWAP5 POP SWAP3 DUP6 ADD SWAP3 SWAP1 DUP6 ADD SWAP1 PUSH1 0x1 ADD PUSH2 0x3220 JUMP JUMPDEST POP SWAP3 SWAP8 SWAP7 POP POP POP POP POP POP POP JUMP JUMPDEST PUSH1 0x0 DUP1 PUSH1 0x40 DUP4 DUP6 SUB SLT ISZERO PUSH2 0x326E JUMPI PUSH1 0x0 DUP1 REVERT JUMPDEST POP POP DUP1 CALLDATALOAD SWAP3 PUSH1 0x20 SWAP1 SWAP2 ADD CALLDATALOAD SWAP2 POP JUMP JUMPDEST PUSH1 0x0 PUSH2 0x120 DUP12 ISZERO ISZERO DUP4 MSTORE DUP1 PUSH1 0x20 DUP5 ADD MSTORE PUSH2 0x3299 DUP2 DUP5 ADD DUP13 PUSH2 0x305D JUMP JUMPDEST PUSH1 0x1 PUSH1 0x1 PUSH1 0xA0 SHL SUB SWAP11 DUP12 AND PUSH1 0x40 DUP6 ADD MSTORE SWAP9 DUP11 AND PUSH1 0x60 DUP5 ADD MSTORE POP POP PUSH1 0x80 DUP2 ADD SWAP6 SWAP1 SWAP6 MSTORE SWAP3 SWAP1 SWAP6 AND PUSH1 0xA0 DUP5 ADD MSTORE PUSH1 0xC0 DUP4 ADD MSTORE PUSH1 0xE0 DUP3 ADD SWAP4 SWAP1 SWAP4 MSTORE PUSH2 0x100 ADD SWAP2 SWAP1 SWAP2 MSTORE SWAP3 SWAP2 POP POP JUMP JUMPDEST PUSH1 0x20 DUP2 MSTORE PUSH1 0x0 PUSH2 0x32F2 PUSH1 0x20 DUP4 ADD DUP5 PUSH2 0x311C JUMP JUMPDEST SWAP4 SWAP3 POP POP POP JUMP JUMPDEST PUSH4 0x4E487B71 PUSH1 0xE0 SHL PUSH1 0x0 MSTORE PUSH1 0x41 PUSH1 0x4 MSTORE PUSH1 0x24 PUSH1 0x0 REVERT JUMPDEST PUSH1 0x0 DUP3 PUSH1 0x1F DUP4 ADD SLT PUSH2 0x3320 JUMPI PUSH1 0x0 DUP1 REVERT JUMPDEST DUP2 CALLDATALOAD PUSH8 0xFFFFFFFFFFFFFFFF DUP1 DUP3 GT ISZERO PUSH2 0x333B JUMPI PUSH2 0x333B PUSH2 0x32F9 JUMP JUMPDEST PUSH1 0x40 MLOAD PUSH1 0x1F DUP4 ADD PUSH1 0x1F NOT SWAP1 DUP2 AND PUSH1 0x3F ADD AND DUP2 ADD SWAP1 DUP3 DUP3 GT DUP2 DUP4 LT OR ISZERO PUSH2 0x3363 JUMPI PUSH2 0x3363 PUSH2 0x32F9 JUMP JUMPDEST DUP2 PUSH1 0x40 MSTORE DUP4 DUP2 MSTORE DUP7 PUSH1 0x20 DUP6 DUP9 ADD ADD GT ISZERO PUSH2 0x337C JUMPI PUSH1 0x0 DUP1 REVERT JUMPDEST DUP4 PUSH1 0x20 DUP8 ADD PUSH1 0x20 DUP4 ADD CALLDATACOPY PUSH1 0x0 PUSH1 0x20 DUP6 DUP4 ADD ADD MSTORE DUP1 SWAP5 POP POP POP POP POP SWAP3 SWAP2 POP POP JUMP JUMPDEST PUSH1 0x0 DUP1 PUSH1 0x40 DUP4 DUP6 SUB SLT ISZERO PUSH2 0x33AF JUMPI PUSH1 0x0 DUP1 REVERT JUMPDEST DUP3 CALLDATALOAD PUSH8 0xFFFFFFFFFFFFFFFF DUP1 DUP3 GT ISZERO PUSH2 0x33C7 JUMPI PUSH1 0x0 DUP1 REVERT JUMPDEST PUSH2 0x33D3 DUP7 DUP4 DUP8 ADD PUSH2 0x330F JUMP JUMPDEST SWAP4 POP PUSH1 0x20 DUP6 ADD CALLDATALOAD SWAP2 POP DUP1 DUP3 GT ISZERO PUSH2 0x33E9 JUMPI PUSH1 0x0 DUP1 REVERT JUMPDEST POP PUSH2 0x33F6 DUP6 DUP3 DUP7 ADD PUSH2 0x330F JUMP JUMPDEST SWAP2 POP POP SWAP3 POP SWAP3 SWAP1 POP JUMP JUMPDEST PUSH1 0x0 PUSH1 0x20 DUP1 DUP4 ADD DUP2 DUP5 MSTORE DUP1 DUP6 MLOAD DUP1 DUP4 MSTORE PUSH1 0x40 DUP7 ADD SWAP2 POP PUSH1 0x40 DUP2 PUSH1 0x5 SHL DUP8 ADD ADD SWAP3 POP DUP4 DUP8 ADD PUSH1 0x0 JUMPDEST DUP3 DUP2 LT ISZERO PUSH2 0x324E JUMPI PUSH1 0x3F NOT DUP9 DUP7 SUB ADD DUP5 MSTORE PUSH2 0x3443 DUP6 DUP4 MLOAD PUSH2 0x305D JUMP JUMPDEST SWAP5 POP SWAP3 DUP6 ADD SWAP3 SWAP1 DUP6 ADD SWAP1 PUSH1 0x1 ADD PUSH2 0x3427 JUMP JUMPDEST PUSH1 0x0 PUSH1 0x20 DUP3 DUP5 SUB SLT ISZERO PUSH2 0x3467 JUMPI PUSH1 0x0 DUP1 REVERT JUMPDEST POP MLOAD SWAP2 SWAP1 POP JUMP JUMPDEST PUSH4 0x4E487B71 PUSH1 0xE0 SHL PUSH1 0x0 MSTORE PUSH1 0x11 PUSH1 0x4 MSTORE PUSH1 0x24 PUSH1 0x0 REVERT JUMPDEST DUP1 DUP3 MUL DUP2 ISZERO DUP3 DUP3 DIV DUP5 EQ OR PUSH2 0x20F3 JUMPI PUSH2 0x20F3 PUSH2 0x346E JUMP JUMPDEST PUSH1 0x0 DUP3 PUSH2 0x34B8 JUMPI PUSH4 0x4E487B71 PUSH1 0xE0 SHL PUSH1 0x0 MSTORE PUSH1 0x12 PUSH1 0x4 MSTORE PUSH1 0x24 PUSH1 0x0 REVERT JUMPDEST POP DIV SWAP1 JUMP JUMPDEST DUP2 DUP2 SUB DUP2 DUP2 GT ISZERO PUSH2 0x20F3 JUMPI PUSH2 0x20F3 PUSH2 0x346E JUMP JUMPDEST PUSH1 0x1 PUSH1 0x1 PUSH1 0xA0 SHL SUB SWAP4 DUP5 AND DUP2 MSTORE SWAP2 SWAP1 SWAP3 AND PUSH1 0x20 DUP3 ADD MSTORE PUSH1 0x40 DUP2 ADD SWAP2 SWAP1 SWAP2 MSTORE PUSH1 0x60 ADD SWAP1 JUMP JUMPDEST PUSH1 0x0 PUSH1 0x20 DUP3 DUP5 SUB SLT ISZERO PUSH2 0x3506 JUMPI PUSH1 0x0 DUP1 REVERT JUMPDEST DUP2 MLOAD DUP1 ISZERO ISZERO DUP2 EQ PUSH2 0x32F2 JUMPI PUSH1 0x0 DUP1 REVERT JUMPDEST DUP1 DUP3 ADD DUP1 DUP3 GT ISZERO PUSH2 0x20F3 JUMPI PUSH2 0x20F3 PUSH2 0x346E JUMP JUMPDEST PUSH1 0x1 DUP2 DUP2 SHR SWAP1 DUP3 AND DUP1 PUSH2 0x353D JUMPI PUSH1 0x7F DUP3 AND SWAP2 POP JUMPDEST PUSH1 0x20 DUP3 LT DUP2 SUB PUSH2 0x355D JUMPI PUSH4 0x4E487B71 PUSH1 0xE0 SHL PUSH1 0x0 MSTORE PUSH1 0x22 PUSH1 0x4 MSTORE PUSH1 0x24 PUSH1 0x0 REVERT JUMPDEST POP SWAP2 SWAP1 POP JUMP JUMPDEST PUSH1 0x1F DUP3 GT ISZERO PUSH2 0x35AD JUMPI PUSH1 0x0 DUP2 DUP2 MSTORE PUSH1 0x20 DUP2 KECCAK256 PUSH1 0x1F DUP6 ADD PUSH1 0x5 SHR DUP2 ADD PUSH1 0x20 DUP7 LT ISZERO PUSH2 0x358A JUMPI POP DUP1 JUMPDEST PUSH1 0x1F DUP6 ADD PUSH1 0x5 SHR DUP3 ADD SWAP2 POP JUMPDEST DUP2 DUP2 LT ISZERO PUSH2 0x35A9 JUMPI DUP3 DUP2 SSTORE PUSH1 0x1 ADD PUSH2 0x3596 JUMP JUMPDEST POP POP POP JUMPDEST POP POP POP JUMP JUMPDEST DUP2 MLOAD PUSH8 0xFFFFFFFFFFFFFFFF DUP2 GT ISZERO PUSH2 0x35CC JUMPI PUSH2 0x35CC PUSH2 0x32F9 JUMP JUMPDEST PUSH2 0x35E0 DUP2 PUSH2 0x35DA DUP5 SLOAD PUSH2 0x3529 JUMP JUMPDEST DUP5 PUSH2 0x3563 JUMP JUMPDEST PUSH1 0x20 DUP1 PUSH1 0x1F DUP4 GT PUSH1 0x1 DUP2 EQ PUSH2 0x3615 JUMPI PUSH1 0x0 DUP5 ISZERO PUSH2 0x35FD JUMPI POP DUP6 DUP4 ADD MLOAD JUMPDEST PUSH1 0x0 NOT PUSH1 0x3 DUP7 SWAP1 SHL SHR NOT AND PUSH1 0x1 DUP6 SWAP1 SHL OR DUP6 SSTORE PUSH2 0x35A9 JUMP JUMPDEST PUSH1 0x0 DUP6 DUP2 MSTORE PUSH1 0x20 DUP2 KECCAK256 PUSH1 0x1F NOT DUP7 AND SWAP2 JUMPDEST DUP3 DUP2 LT ISZERO PUSH2 0x3644 JUMPI DUP9 DUP7 ADD MLOAD DUP3 SSTORE SWAP5 DUP5 ADD SWAP5 PUSH1 0x1 SWAP1 SWAP2 ADD SWAP1 DUP5 ADD PUSH2 0x3625 JUMP JUMPDEST POP DUP6 DUP3 LT ISZERO PUSH2 0x3662 JUMPI DUP8 DUP6 ADD MLOAD PUSH1 0x0 NOT PUSH1 0x3 DUP9 SWAP1 SHL PUSH1 0xF8 AND SHR NOT AND DUP2 SSTORE JUMPDEST POP POP POP POP POP PUSH1 0x1 SWAP1 DUP2 SHL ADD SWAP1 SSTORE POP JUMP JUMPDEST PUSH4 0x4E487B71 PUSH1 0xE0 SHL PUSH1 0x0 MSTORE PUSH1 0x32 PUSH1 0x4 MSTORE PUSH1 0x24 PUSH1 0x0 REVERT JUMPDEST PUSH1 0x0 PUSH1 0x1 DUP3 ADD PUSH2 0x369A JUMPI PUSH2 0x369A PUSH2 0x346E JUMP JUMPDEST POP PUSH1 0x1 ADD SWAP1 JUMP JUMPDEST DUP2 DUP2 SUB PUSH2 0x36AC JUMPI POP POP JUMP JUMPDEST PUSH2 0x36B6 DUP3 SLOAD PUSH2 0x3529 JUMP JUMPDEST PUSH8 0xFFFFFFFFFFFFFFFF DUP2 GT ISZERO PUSH2 0x36CE JUMPI PUSH2 0x36CE PUSH2 0x32F9 JUMP JUMPDEST PUSH2 0x36DC DUP2 PUSH2 0x35DA DUP5 SLOAD PUSH2 0x3529 JUMP JUMPDEST PUSH1 0x0 PUSH1 0x1F DUP3 GT PUSH1 0x1 DUP2 EQ PUSH2 0x3710 JUMPI PUSH1 0x0 DUP4 ISZERO PUSH2 0x36F8 JUMPI POP DUP5 DUP3 ADD SLOAD JUMPDEST PUSH1 0x0 NOT PUSH1 0x3 DUP6 SWAP1 SHL SHR NOT AND PUSH1 0x1 DUP5 SWAP1 SHL OR DUP5 SSTORE PUSH2 0x3775 JUMP JUMPDEST PUSH1 0x0 DUP6 DUP2 MSTORE PUSH1 0x20 SWAP1 KECCAK256 PUSH1 0x1F NOT DUP5 AND SWAP1 PUSH1 0x0 DUP7 DUP2 MSTORE PUSH1 0x20 SWAP1 KECCAK256 DUP5 JUMPDEST DUP4 DUP2 LT ISZERO PUSH2 0x374A JUMPI DUP3 DUP7 ADD SLOAD DUP3 SSTORE PUSH1 0x1 SWAP6 DUP7 ADD SWAP6 SWAP1 SWAP2 ADD SWAP1 PUSH1 0x20 ADD PUSH2 0x372A JUMP JUMPDEST POP DUP6 DUP4 LT ISZERO PUSH2 0x3768 JUMPI DUP2 DUP6 ADD SLOAD PUSH1 0x0 NOT PUSH1 0x3 DUP9 SWAP1 SHL PUSH1 0xF8 AND SHR NOT AND DUP2 SSTORE JUMPDEST POP POP POP PUSH1 0x1 DUP4 PUSH1 0x1 SHL ADD DUP5 SSTORE JUMPDEST POP POP POP POP POP JUMP JUMPDEST PUSH1 0x0 DUP2 SLOAD PUSH2 0x3789 DUP2 PUSH2 0x3529 JUMP JUMPDEST DUP1 DUP6 MSTORE PUSH1 0x20 PUSH1 0x1 DUP4 DUP2 AND DUP1 ISZERO PUSH2 0x37A6 JUMPI PUSH1 0x1 DUP2 EQ PUSH2 0x37C0 JUMPI PUSH2 0x37EE JUMP JUMPDEST PUSH1 0xFF NOT DUP6 AND DUP9 DUP5 ADD MSTORE DUP4 ISZERO ISZERO PUSH1 0x5 SHL DUP9 ADD DUP4 ADD SWAP6 POP PUSH2 0x37EE JUMP JUMPDEST DUP7 PUSH1 0x0 MSTORE DUP3 PUSH1 0x0 KECCAK256 PUSH1 0x0 JUMPDEST DUP6 DUP2 LT ISZERO PUSH2 0x37E6 JUMPI DUP2 SLOAD DUP11 DUP3 ADD DUP7 ADD MSTORE SWAP1 DUP4 ADD SWAP1 DUP5 ADD PUSH2 0x37CB JUMP JUMPDEST DUP10 ADD DUP5 ADD SWAP7 POP POP JUMPDEST POP POP POP POP POP SWAP3 SWAP2 POP POP JUMP JUMPDEST PUSH1 0x0 DUP2 SLOAD DUP1 DUP5 MSTORE PUSH1 0x20 DUP1 DUP6 ADD DUP1 DUP2 SWAP7 POP DUP4 PUSH1 0x5 SHL DUP2 ADD SWAP2 POP DUP6 PUSH1 0x0 MSTORE DUP3 PUSH1 0x0 KECCAK256 PUSH1 0x0 JUMPDEST DUP6 DUP2 LT ISZERO PUSH2 0x3845 JUMPI DUP3 DUP5 SUB DUP10 MSTORE PUSH2 0x3833 DUP5 DUP4 PUSH2 0x377C JUMP JUMPDEST SWAP9 DUP6 ADD SWAP9 SWAP4 POP PUSH1 0x1 SWAP2 DUP3 ADD SWAP2 ADD PUSH2 0x381C JUMP JUMPDEST POP SWAP2 SWAP8 SWAP7 POP POP POP POP POP POP POP JUMP JUMPDEST PUSH1 0x40 DUP2 MSTORE PUSH1 0x0 PUSH2 0x3865 PUSH1 0x40 DUP4 ADD DUP6 PUSH2 0x37F9 JUMP JUMPDEST SWAP1 POP DUP3 PUSH1 0x20 DUP4 ADD MSTORE SWAP4 SWAP3 POP POP POP JUMP JUMPDEST PUSH1 0x0 DUP2 SLOAD DUP1 DUP5 MSTORE PUSH1 0x20 DUP1 DUP6 ADD SWAP5 POP DUP4 PUSH1 0x0 MSTORE DUP1 PUSH1 0x0 KECCAK256 PUSH1 0x0 JUMPDEST DUP4 DUP2 LT ISZERO PUSH2 0x3111 JUMPI DUP2 SLOAD DUP8 MSTORE SWAP6 DUP3 ADD SWAP6 PUSH1 0x1 SWAP2 DUP3 ADD SWAP2 ADD PUSH2 0x388D JUMP JUMPDEST PUSH1 0x40 DUP2 MSTORE PUSH2 0x38C5 PUSH1 0x40 DUP3 ADD PUSH2 0x38BF DUP6 SLOAD PUSH1 0xFF AND SWAP1 JUMP JUMPDEST ISZERO ISZERO SWAP1 MSTORE JUMP JUMPDEST PUSH1 0x0 PUSH2 0x160 DUP1 PUSH1 0x60 DUP5 ADD MSTORE PUSH2 0x38E1 PUSH2 0x1A0 DUP5 ADD PUSH1 0x1 DUP8 ADD PUSH2 0x377C JUMP JUMPDEST PUSH1 0x3F NOT DUP1 DUP6 DUP4 SUB ADD PUSH1 0x80 DUP7 ADD MSTORE PUSH2 0x38FB DUP3 PUSH1 0x2 DUP10 ADD PUSH2 0x37F9 JUMP JUMPDEST SWAP2 POP DUP1 DUP6 DUP4 SUB ADD PUSH1 0xA0 DUP7 ADD MSTORE POP PUSH2 0x3915 DUP2 PUSH1 0x3 DUP9 ADD PUSH2 0x3874 JUMP JUMPDEST SWAP1 POP PUSH2 0x392B PUSH1 0x4 DUP8 ADD SLOAD PUSH1 0x1 PUSH1 0x1 PUSH1 0xA0 SHL SUB AND SWAP1 JUMP JUMPDEST PUSH1 0x1 PUSH1 0x1 PUSH1 0xA0 SHL SUB SWAP1 DUP2 AND PUSH1 0xC0 DUP7 ADD MSTORE PUSH1 0x5 DUP8 ADD SLOAD DUP2 AND PUSH1 0xE0 DUP7 ADD MSTORE PUSH1 0x6 DUP8 ADD SLOAD PUSH2 0x100 DUP7 ADD MSTORE PUSH1 0x7 DUP8 ADD SLOAD AND PUSH2 0x120 DUP6 ADD MSTORE PUSH1 0x8 DUP7 ADD SLOAD PUSH2 0x140 DUP6 ADD MSTORE PUSH1 0x9 DUP7 ADD SLOAD SWAP2 DUP5 ADD SWAP2 SWAP1 SWAP2 MSTORE PUSH1 0xA SWAP1 SWAP5 ADD SLOAD PUSH2 0x180 DUP4 ADD MSTORE POP PUSH1 0x20 ADD MSTORE SWAP1 JUMP JUMPDEST PUSH1 0x0 DUP3 MLOAD PUSH2 0x399B DUP2 DUP5 PUSH1 0x20 DUP8 ADD PUSH2 0x3039 JUMP JUMPDEST SWAP2 SWAP1 SWAP2 ADD SWAP3 SWAP2 POP POP JUMP JUMPDEST PUSH1 0x40 DUP2 MSTORE PUSH1 0x0 PUSH2 0x3865 PUSH1 0x40 DUP4 ADD DUP6 PUSH2 0x377C JUMP INVALID LOG2 PUSH5 0x6970667358 0x22 SLT KECCAK256 0xD9 PUSH16 0x601D153AB01379AF3DD0B673A07461A3 DUP4 0xFC PUSH4 0x2F94185B 0x5D 0xEB EXTCODESIZE 0xDC 0xC8 0xED PUSH27 0x64736F6C6343000813003300000000000000000000000000000000 "
		},
		"gasEstimates": {
			"creation": {
				"codeDepositCost": "2966000",
				"executionCost": "infinite",
				"totalCost": "infinite"
			},
			"external": {
				"TTTToken()": "2426",
				"burnFee()": "2427",
				"compareStrings(string,string)": "infinite",
				"createGameRoom(uint256)": "infinite",
				"faucetToken()": "infinite",
				"gameInformation(uint256)": "infinite",
				"getAllGameInformation()": "infinite",
				"getAllMoney()": "infinite",
				"getExcessBalance()": "infinite",
				"getFinalWinOption(uint256)": "infinite",
				"getGameInformation(uint256)": "infinite",
				"getoption(uint256)": "infinite",
				"joinGame(uint256,uint256)": "infinite",
				"minBetAmount()": "2405",
				"owner()": "2382",
				"restartGame(uint256)": "infinite",
				"totalAmount()": "2363",
				"treasury()": "2404",
				"treasuryFee()": "2339",
				"userInput(uint256,uint256)": "infinite",
				"validateRestartPlayer(uint256)": "9183"
			},
			"internal": {
				"changePlayer(uint256)": "infinite",
				"checkAddress(uint256)": "8736",
				"checkOptions(uint256)": "infinite",
				"checkWinner(uint256)": "infinite"
			}
		},
		"methodIdentifiers": {
			"TTTToken()": "7effb427",
			"burnFee()": "fce589d8",
			"compareStrings(string,string)": "bed34bba",
			"createGameRoom(uint256)": "06139e8d",
			"faucetToken()": "b7b524a1",
			"gameInformation(uint256)": "87052fab",
			"getAllGameInformation()": "491f0136",
			"getAllMoney()": "edb84ff7",
			"getExcessBalance()": "888b042f",
			"getFinalWinOption(uint256)": "17b44960",
			"getGameInformation(uint256)": "b2182be4",
			"getoption(uint256)": "dc572c6e",
			"joinGame(uint256,uint256)": "b60b9fcb",
			"minBetAmount()": "fa968eea",
			"owner()": "8da5cb5b",
			"restartGame(uint256)": "4a968391",
			"totalAmount()": "1a39d8ef",
			"treasury()": "61d027b3",
			"treasuryFee()": "cc32d176",
			"userInput(uint256,uint256)": "52bc3410",
			"validateRestartPlayer(uint256)": "34fd3518"
		}
	},
	"abi": [
		{
			"inputs": [],
			"stateMutability": "nonpayable",
			"type": "constructor"
		},
		{
			"anonymous": false,
			"inputs": [
				{
					"indexed": false,
					"internalType": "uint256",
					"name": "gameId",
					"type": "uint256"
				}
			],
			"name": "createRoom",
			"type": "event"
		},
		{
			"anonymous": false,
			"inputs": [
				{
					"components": [
						{
							"internalType": "bool",
							"name": "_activate",
							"type": "bool"
						},
						{
							"internalType": "string",
							"name": "_currentPlayer",
							"type": "string"
						},
						{
							"internalType": "string[]",
							"name": "_options",
							"type": "string[]"
						},
						{
							"internalType": "uint256[]",
							"name": "_finalWinOption",
							"type": "uint256[]"
						},
						{
							"internalType": "address",
							"name": "_player1address",
							"type": "address"
						},
						{
							"internalType": "address",
							"name": "_player2address",
							"type": "address"
						},
						{
							"internalType": "uint256",
							"name": "_playerCount",
							"type": "uint256"
						},
						{
							"internalType": "address",
							"name": "_winer",
							"type": "address"
						},
						{
							"internalType": "uint256",
							"name": "_player1Bet",
							"type": "uint256"
						},
						{
							"internalType": "uint256",
							"name": "_player2Bet",
							"type": "uint256"
						},
						{
							"internalType": "uint256",
							"name": "_rewardAmount",
							"type": "uint256"
						}
					],
					"indexed": false,
					"internalType": "struct TickTackToe.GameInfo",
					"name": "gameinfo",
					"type": "tuple"
				},
				{
					"indexed": false,
					"internalType": "uint256",
					"name": "gameId",
					"type": "uint256"
				}
			],
			"name": "joinRoom",
			"type": "event"
		},
		{
			"anonymous": false,
			"inputs": [
				{
					"indexed": false,
					"internalType": "string",
					"name": "next",
					"type": "string"
				},
				{
					"indexed": false,
					"internalType": "uint256",
					"name": "gameId",
					"type": "uint256"
				}
			],
			"name": "nextUesrStr",
			"type": "event"
		},
		{
			"anonymous": false,
			"inputs": [
				{
					"indexed": false,
					"internalType": "address",
					"name": "nextUser",
					"type": "address"
				},
				{
					"indexed": false,
					"internalType": "uint256",
					"name": "gameId",
					"type": "uint256"
				}
			],
			"name": "nextUser",
			"type": "event"
		},
		{
			"anonymous": false,
			"inputs": [
				{
					"indexed": false,
					"internalType": "uint256",
					"name": "gameId",
					"type": "uint256"
				}
			],
			"name": "resetUI",
			"type": "event"
		},
		{
			"anonymous": false,
			"inputs": [
				{
					"indexed": false,
					"internalType": "address",
					"name": "player1Address",
					"type": "address"
				},
				{
					"indexed": false,
					"internalType": "uint256",
					"name": "gameId",
					"type": "uint256"
				}
			],
			"name": "showFirstPlayer",
			"type": "event"
		},
		{
			"anonymous": false,
			"inputs": [
				{
					"indexed": false,
					"internalType": "string",
					"name": "result",
					"type": "string"
				},
				{
					"indexed": false,
					"internalType": "uint256",
					"name": "gameId",
					"type": "uint256"
				}
			],
			"name": "showResult",
			"type": "event"
		},
		{
			"anonymous": false,
			"inputs": [
				{
					"indexed": false,
					"internalType": "string",
					"name": "message",
					"type": "string"
				},
				{
					"indexed": false,
					"internalType": "address",
					"name": "player1",
					"type": "address"
				},
				{
					"indexed": false,
					"internalType": "address",
					"name": "player2",
					"type": "address"
				},
				{
					"indexed": false,
					"internalType": "uint256",
					"name": "gameId",
					"type": "uint256"
				}
			],
			"name": "startGame",
			"type": "event"
		},
		{
			"anonymous": false,
			"inputs": [
				{
					"indexed": false,
					"internalType": "string[]",
					"name": "options",
					"type": "string[]"
				},
				{
					"indexed": false,
					"internalType": "uint256",
					"name": "gameId",
					"type": "uint256"
				}
			],
			"name": "updateUI",
			"type": "event"
		},
		{
			"inputs": [],
			"name": "TTTToken",
			"outputs": [
				{
					"internalType": "contract IERC20",
					"name": "",
					"type": "address"
				}
			],
			"stateMutability": "view",
			"type": "function"
		},
		{
			"inputs": [],
			"name": "burnFee",
			"outputs": [
				{
					"internalType": "uint256",
					"name": "",
					"type": "uint256"
				}
			],
			"stateMutability": "view",
			"type": "function"
		},
		{
			"inputs": [
				{
					"internalType": "string",
					"name": "a",
					"type": "string"
				},
				{
					"internalType": "string",
					"name": "b",
					"type": "string"
				}
			],
			"name": "compareStrings",
			"outputs": [
				{
					"internalType": "bool",
					"name": "",
					"type": "bool"
				}
			],
			"stateMutability": "pure",
			"type": "function"
		},
		{
			"inputs": [
				{
					"internalType": "uint256",
					"name": "betAmount",
					"type": "uint256"
				}
			],
			"name": "createGameRoom",
			"outputs": [],
			"stateMutability": "nonpayable",
			"type": "function"
		},
		{
			"inputs": [],
			"name": "faucetToken",
			"outputs": [],
			"stateMutability": "nonpayable",
			"type": "function"
		},
		{
			"inputs": [
				{
					"internalType": "uint256",
					"name": "",
					"type": "uint256"
				}
			],
			"name": "gameInformation",
			"outputs": [
				{
					"internalType": "bool",
					"name": "_activate",
					"type": "bool"
				},
				{
					"internalType": "string",
					"name": "_currentPlayer",
					"type": "string"
				},
				{
					"internalType": "address",
					"name": "_player1address",
					"type": "address"
				},
				{
					"internalType": "address",
					"name": "_player2address",
					"type": "address"
				},
				{
					"internalType": "uint256",
					"name": "_playerCount",
					"type": "uint256"
				},
				{
					"internalType": "address",
					"name": "_winer",
					"type": "address"
				},
				{
					"internalType": "uint256",
					"name": "_player1Bet",
					"type": "uint256"
				},
				{
					"internalType": "uint256",
					"name": "_player2Bet",
					"type": "uint256"
				},
				{
					"internalType": "uint256",
					"name": "_rewardAmount",
					"type": "uint256"
				}
			],
			"stateMutability": "view",
			"type": "function"
		},
		{
			"inputs": [],
			"name": "getAllGameInformation",
			"outputs": [
				{
					"components": [
						{
							"internalType": "bool",
							"name": "_activate",
							"type": "bool"
						},
						{
							"internalType": "string",
							"name": "_currentPlayer",
							"type": "string"
						},
						{
							"internalType": "string[]",
							"name": "_options",
							"type": "string[]"
						},
						{
							"internalType": "uint256[]",
							"name": "_finalWinOption",
							"type": "uint256[]"
						},
						{
							"internalType": "address",
							"name": "_player1address",
							"type": "address"
						},
						{
							"internalType": "address",
							"name": "_player2address",
							"type": "address"
						},
						{
							"internalType": "uint256",
							"name": "_playerCount",
							"type": "uint256"
						},
						{
							"internalType": "address",
							"name": "_winer",
							"type": "address"
						},
						{
							"internalType": "uint256",
							"name": "_player1Bet",
							"type": "uint256"
						},
						{
							"internalType": "uint256",
							"name": "_player2Bet",
							"type": "uint256"
						},
						{
							"internalType": "uint256",
							"name": "_rewardAmount",
							"type": "uint256"
						}
					],
					"internalType": "struct TickTackToe.GameInfo[]",
					"name": "",
					"type": "tuple[]"
				}
			],
			"stateMutability": "view",
			"type": "function"
		},
		{
			"inputs": [],
			"name": "getAllMoney",
			"outputs": [],
			"stateMutability": "nonpayable",
			"type": "function"
		},
		{
			"inputs": [],
			"name": "getExcessBalance",
			"outputs": [],
			"stateMutability": "nonpayable",
			"type": "function"
		},
		{
			"inputs": [
				{
					"internalType": "uint256",
					"name": "gameId",
					"type": "uint256"
				}
			],
			"name": "getFinalWinOption",
			"outputs": [
				{
					"internalType": "uint256[]",
					"name": "",
					"type": "uint256[]"
				}
			],
			"stateMutability": "view",
			"type": "function"
		},
		{
			"inputs": [
				{
					"internalType": "uint256",
					"name": "gameId",
					"type": "uint256"
				}
			],
			"name": "getGameInformation",
			"outputs": [
				{
					"components": [
						{
							"internalType": "bool",
							"name": "_activate",
							"type": "bool"
						},
						{
							"internalType": "string",
							"name": "_currentPlayer",
							"type": "string"
						},
						{
							"internalType": "string[]",
							"name": "_options",
							"type": "string[]"
						},
						{
							"internalType": "uint256[]",
							"name": "_finalWinOption",
							"type": "uint256[]"
						},
						{
							"internalType": "address",
							"name": "_player1address",
							"type": "address"
						},
						{
							"internalType": "address",
							"name": "_player2address",
							"type": "address"
						},
						{
							"internalType": "uint256",
							"name": "_playerCount",
							"type": "uint256"
						},
						{
							"internalType": "address",
							"name": "_winer",
							"type": "address"
						},
						{
							"internalType": "uint256",
							"name": "_player1Bet",
							"type": "uint256"
						},
						{
							"internalType": "uint256",
							"name": "_player2Bet",
							"type": "uint256"
						},
						{
							"internalType": "uint256",
							"name": "_rewardAmount",
							"type": "uint256"
						}
					],
					"internalType": "struct TickTackToe.GameInfo",
					"name": "",
					"type": "tuple"
				}
			],
			"stateMutability": "view",
			"type": "function"
		},
		{
			"inputs": [
				{
					"internalType": "uint256",
					"name": "gameId",
					"type": "uint256"
				}
			],
			"name": "getoption",
			"outputs": [
				{
					"internalType": "string[]",
					"name": "",
					"type": "string[]"
				}
			],
			"stateMutability": "view",
			"type": "function"
		},
		{
			"inputs": [
				{
					"internalType": "uint256",
					"name": "gameId",
					"type": "uint256"
				},
				{
					"internalType": "uint256",
					"name": "betAmount",
					"type": "uint256"
				}
			],
			"name": "joinGame",
			"outputs": [],
			"stateMutability": "nonpayable",
			"type": "function"
		},
		{
			"inputs": [],
			"name": "minBetAmount",
			"outputs": [
				{
					"internalType": "uint256",
					"name": "",
					"type": "uint256"
				}
			],
			"stateMutability": "view",
			"type": "function"
		},
		{
			"inputs": [],
			"name": "owner",
			"outputs": [
				{
					"internalType": "address",
					"name": "",
					"type": "address"
				}
			],
			"stateMutability": "view",
			"type": "function"
		},
		{
			"inputs": [
				{
					"internalType": "uint256",
					"name": "gameId",
					"type": "uint256"
				}
			],
			"name": "restartGame",
			"outputs": [],
			"stateMutability": "nonpayable",
			"type": "function"
		},
		{
			"inputs": [],
			"name": "totalAmount",
			"outputs": [
				{
					"internalType": "uint256",
					"name": "",
					"type": "uint256"
				}
			],
			"stateMutability": "view",
			"type": "function"
		},
		{
			"inputs": [],
			"name": "treasury",
			"outputs": [
				{
					"internalType": "address",
					"name": "",
					"type": "address"
				}
			],
			"stateMutability": "view",
			"type": "function"
		},
		{
			"inputs": [],
			"name": "treasuryFee",
			"outputs": [
				{
					"internalType": "uint256",
					"name": "",
					"type": "uint256"
				}
			],
			"stateMutability": "view",
			"type": "function"
		},
		{
			"inputs": [
				{
					"internalType": "uint256",
					"name": "input",
					"type": "uint256"
				},
				{
					"internalType": "uint256",
					"name": "gameId",
					"type": "uint256"
				}
			],
			"name": "userInput",
			"outputs": [],
			"stateMutability": "nonpayable",
			"type": "function"
		},
		{
			"inputs": [
				{
					"internalType": "uint256",
					"name": "gameId",
					"type": "uint256"
				}
			],
			"name": "validateRestartPlayer",
			"outputs": [],
			"stateMutability": "nonpayable",
			"type": "function"
		}
	]
}