{
	"data": {
		"bytecode": {
			"linkReferences": {},
			"object": "600480546001600160a01b031990811673927e818ddcab12d025495b228a4ce1dae82798ec17825560058054821673a911cf7636d9e2abe9aaf05035efa47b14160965178155678ac7230489e80000600690815560078054909316733ce5a8a72820585c60f659896338d5734719699117835560088281556009839055600061018081815260016101a081905260026101c0819052608092835260036101e08181526102008b905261022089905260a0526102408781526102608a905261028087905260c0526102a08581526102c0919091526102e087905260e0526103009182526103208990526103409790975261010052610360868152610380959095526103a0839052610120949094526103c09081526103e0869052610400829052610140526104806040526104209384526104409490945261046052610160919091526200014f91600d91906200025d565b503480156200015d57600080fd5b506040805160208101909152600081526200017f6301ffc9a760e01b620001c7565b6200018a816200024b565b6200019c636cdb3d1360e11b620001c7565b620001ae6303a24d0760e21b620001c7565b50600b80546001600160a01b03191633179055620004d8565b6001600160e01b03198082169003620002265760405162461bcd60e51b815260206004820152601c60248201527f4552433136353a20696e76616c696420696e7465726661636520696400000000604482015260640160405180910390fd5b6001600160e01b0319166000908152602081905260409020805460ff19166001179055565b60036200025982826200040c565b5050565b828054828255906000526020600020908101928215620002a9579160200282015b82811115620002a9578251620002989083906003620002bb565b50916020019190600101906200027e565b50620002b79291506200030c565b5090565b828054828255906000526020600020908101928215620002fe579160200282015b82811115620002fe578251829060ff16905591602001919060010190620002dc565b50620002b79291506200032d565b80821115620002b757600062000323828262000344565b506001016200030c565b5b80821115620002b757600081556001016200032e565b50805460008255906000526020600020908101906200036491906200032d565b50565b634e487b7160e01b600052604160045260246000fd5b600181811c908216806200039257607f821691505b602082108103620003b357634e487b7160e01b600052602260045260246000fd5b50919050565b601f8211156200040757600081815260208120601f850160051c81016020861015620003e25750805b601f850160051c820191505b818110156200040357828155600101620003ee565b5050505b505050565b81516001600160401b0381111562000428576200042862000367565b62000440816200043984546200037d565b84620003b9565b602080601f8311600181146200047857600084156200045f5750858301515b600019600386901b1c1916600185901b17855562000403565b600085815260208120601f198616915b82811015620004a95788860151825594840194600190910190840162000488565b5085821015620004c85787850151600019600388901b60f8161c191681555b5050505050600190811b01905550565b614e4380620004e86000396000f3fe608060405234801561001057600080fd5b50600436106101d95760003560e01c8063888b042f11610104578063bed34bba116100a2578063edb84ff711610071578063edb84ff71461046d578063f242432a14610475578063fa968eea14610488578063fce589d81461049157600080fd5b8063bed34bba146103f5578063cc32d17614610408578063dc572c6e14610411578063e985e9c51461043157600080fd5b8063b2182be4116100de578063b2182be4146103a7578063b4606e4e146103c7578063b60b9fcb146103da578063b7b524a1146103ed57600080fd5b8063888b042f146103795780638da5cb5b14610381578063a22cb4651461039457600080fd5b806334fd35181161017c57806352bc34101161014b57806352bc34101461030057806361d027b3146103135780637effb4271461033e57806387052fab1461035157600080fd5b806334fd3518146102b2578063491f0136146102c55780634a968391146102da5780634e1273f4146102ed57600080fd5b80630e89341c116101b85780630e89341c1461025657806317b44960146102765780631a39d8ef146102965780632eb2c2d61461029f57600080fd5b8062fdd58e146101de57806301ffc9a71461020457806306139e8d14610241575b600080fd5b6101f16101ec366004613f20565b61049a565b6040519081526020015b60405180910390f35b610231610212366004613f60565b6001600160e01b03191660009081526020819052604090205460ff1690565b60405190151581526020016101fb565b61025461024f366004613f7d565b610536565b005b610269610264366004613f7d565b610c02565b6040516101fb9190613fe6565b610289610284366004613f7d565b610c96565b6040516101fb9190614034565b6101f1600a5481565b6102546102ad366004614193565b610d11565b6102546102c0366004613f7d565b610fa5565b6102cd61106f565b6040516101fb919061436f565b6102546102e8366004613f7d565b611300565b6102896102fb3660046143d1565b611480565b61025461030e36600461449c565b6115aa565b600754610326906001600160a01b031681565b6040516001600160a01b0390911681526020016101fb565b600454610326906001600160a01b031681565b61036461035f366004613f7d565b6119d5565b6040516101fb999897969594939291906144be565b610254611acb565b600b54610326906001600160a01b031681565b6102546103a236600461452e565b611cd5565b6103ba6103b5366004613f7d565b611dab565b6040516101fb9190614565565b600554610326906001600160a01b031681565b6102546103e836600461449c565b612011565b610254612703565b610231610403366004614578565b612954565b6101f160095481565b61042461041f366004613f7d565b6129ad565b6040516101fb91906145d2565b61023161043f3660046145e5565b6001600160a01b03918216600090815260026020908152604080832093909416825291909152205460ff1690565b610254612aaa565b610254610483366004614618565b612b72565b6101f160065481565b6101f160085481565b60006001600160a01b03831661050b5760405162461bcd60e51b815260206004820152602b60248201527f455243313135353a2062616c616e636520717565727920666f7220746865207a60448201526a65726f206164647265737360a81b60648201526084015b60405180910390fd5b5060008181526001602090815260408083206001600160a01b03861684529091529020545b92915050565b600b54600160a01b900460ff16156105885760405162461bcd60e51b8152602060048201526015602482015274115c9c9bdc8e881499595b9d1c985b9d0818d85b1b605a1b6044820152606401610502565b600b805460ff60a01b1916600160a01b179055600480546040516370a0823160e01b8152339281019290925282916001600160a01b03909116906370a0823190602401602060405180830381865afa1580156105e8573d6000803e3d6000fd5b505050506040513d601f19601f8201168201806040525081019061060c919061467d565b101561064f5760405162461bcd60e51b81526020600482015260126024820152714e6f7420656e6f7567682062616c616e636560701b6044820152606401610502565b6006548110156106a15760405162461bcd60e51b815260206004820152601a60248201527f4e65656420746f20706179206d696e2062657420616d6f756e740000000000006044820152606401610502565b60006064600854836106b391906146ac565b6106bd91906146c3565b905060006064600954846106d191906146ac565b6106db91906146c3565b90506000816106ea84866146e5565b6106f491906146e5565b600480546040516323b872dd60e01b81529293506001600160a01b0316916323b872dd9161072a91339161dead918991016146f8565b6020604051808303816000875af1158015610749573d6000803e3d6000fd5b505050506040513d601f19601f8201168201806040525081019061076d919061471c565b50600480546007546040516323b872dd60e01b81526001600160a01b03928316936323b872dd936107a59333939116918891016146f8565b6020604051808303816000875af11580156107c4573d6000803e3d6000fd5b505050506040513d601f19601f820116820180604052508101906107e8919061471c565b50600480546040516323b872dd60e01b81526001600160a01b03909116916323b872dd9161081c91339130918791016146f8565b6020604051808303816000875af115801561083b573d6000803e3d6000fd5b505050506040513d601f19601f8201168201806040525081019061085f919061471c565b5080600a60008282546108729190614739565b909155506108809050613d3e565b600c805460018101825560009190915281517fdf6966c971051c3d54ec59162606531493a51404a002842f56009d7e5cf4a8c7600b909202918201805460ff1916911515919091178155602083015183927fdf6966c971051c3d54ec59162606531493a51404a002842f56009d7e5cf4a8c801906108fe90826147d1565b506040820151805161091a916002840191602090910190613db5565b5060608201518051610936916003840191602090910190613e0b565b5060808201516004820180546001600160a01b039283166001600160a01b03199182161790915560a084015160058401805491841691831691909117905560c0840151600684015560e08401516007840180549190931691161790556101008201516008820155610120820151600982015561014090910151600a90910155600c80549033906109c76001846146e5565b815481106109d7576109d7614891565b600091825260208220600b919091020160040180546001600160a01b0319166001600160a01b039390931692909217909155600c610a166001846146e5565b81548110610a2657610a26614891565b60009182526020909120600b90910201805460ff19169115159190911790556001600c610a5382846146e5565b81548110610a6357610a63614891565b90600052602060002090600b020160060181905550604051806040016040528060018152602001600b60fb1b815250600c600183610aa191906146e5565b81548110610ab157610ab1614891565b90600052602060002090600b02016001019081610ace91906147d1565b5085600c610add6001846146e5565b81548110610aed57610aed614891565b600091825260209091206008600b90920201015582600c610b0f6001846146e5565b81548110610b1f57610b1f614891565b90600052602060002090600b0201600a018190555060005b6009811015610baf57600c610b4d6001846146e5565b81548110610b5d57610b5d614891565b600091825260208083206002600b909302019190910180546001810182559083528183206040805193840190529282529190910190610b9c90826147d1565b5080610ba7816148a7565b915050610b37565b507fbbba82573073a1190d559566d39447b5e1ad7724b88b63bc98867d229a645b6b610bdc6001836146e5565b60405190815260200160405180910390a15050600b805460ff60a01b1916905550505050565b606060038054610c119061474c565b80601f0160208091040260200160405190810160405280929190818152602001828054610c3d9061474c565b8015610c8a5780601f10610c5f57610100808354040283529160200191610c8a565b820191906000526020600020905b815481529060010190602001808311610c6d57829003601f168201915b50505050509050919050565b6060600c8281548110610cab57610cab614891565b90600052602060002090600b0201600301805480602002602001604051908101604052809291908181526020018280548015610c8a57602002820191906000526020600020905b815481526020019060010190808311610cf25750505050509050919050565b8151835114610d735760405162461bcd60e51b815260206004820152602860248201527f455243313135353a2069647320616e6420616d6f756e7473206c656e677468206044820152670dad2e6dac2e8c6d60c31b6064820152608401610502565b6001600160a01b038416610d995760405162461bcd60e51b8152600401610502906148c0565b6001600160a01b038516331480610db55750610db5853361043f565b610e1c5760405162461bcd60e51b815260206004820152603260248201527f455243313135353a207472616e736665722063616c6c6572206973206e6f74206044820152711bdddb995c881b9bdc88185c1c1c9bdd995960721b6064820152608401610502565b3360005b8451811015610f37576000858281518110610e3d57610e3d614891565b602002602001015190506000858381518110610e5b57610e5b614891565b60200260200101519050610ec8816040518060600160405280602a8152602001614de4602a91396001600086815260200190815260200160002060008d6001600160a01b03166001600160a01b0316815260200190815260200160002054612d259092919063ffffffff16565b60008381526001602090815260408083206001600160a01b038e811685529252808320939093558a1681522054610eff9082612d5c565b60009283526001602090815260408085206001600160a01b038c1686529091529092209190915550610f30816148a7565b9050610e20565b50846001600160a01b0316866001600160a01b0316826001600160a01b03167f4a39dc06d4c0dbc64b70af90fd698a233a518aa5d07e595d983b8c0526c8f7fb8787604051610f87929190614905565b60405180910390a4610f9d818787878787612dc2565b505050505050565b610fae81612f26565b610ffa5760405162461bcd60e51b815260206004820152601c60248201527f796f7520617265206e6f7420746869732067616d6520706c61796572000000006044820152606401610502565b600c818154811061100d5761100d614891565b60009182526020909120600b909102015460ff16156110635760405162461bcd60e51b815260206004820152601260248201527147616d65207374696c6c20706c6179696e6760701b6044820152606401610502565b61106c81611300565b50565b6060600c805480602002602001604051908101604052809291908181526020016000905b828210156112f7576000848152602090819020604080516101608101909152600b8502909101805460ff161515825260018101805492939192918401916110d99061474c565b80601f01602080910402602001604051908101604052809291908181526020018280546111059061474c565b80156111525780601f1061112757610100808354040283529160200191611152565b820191906000526020600020905b81548152906001019060200180831161113557829003601f168201915b5050505050815260200160028201805480602002602001604051908101604052809291908181526020016000905b8282101561122c57838290600052602060002001805461119f9061474c565b80601f01602080910402602001604051908101604052809291908181526020018280546111cb9061474c565b80156112185780601f106111ed57610100808354040283529160200191611218565b820191906000526020600020905b8154815290600101906020018083116111fb57829003601f168201915b505050505081526020019060010190611180565b5050505081526020016003820180548060200260200160405190810160405280929190818152602001828054801561128357602002820191906000526020600020905b81548152602001906001019080831161126f575b505050918352505060048201546001600160a01b039081166020808401919091526005840154821660408401526006840154606084015260078401549091166080830152600883015460a0830152600983015460c0830152600a9092015460e0909101529082526001929092019101611093565b50505050905090565b604051806040016040528060018152602001600b60fb1b815250600c828154811061132d5761132d614891565b90600052602060002090600b0201600101908161134a91906147d1565b5060408051610140810182526000610120820181815282528251602081810185528282528084019190915283518082018552828152838501528351808201855282815260608401528351808201855282815260808401528351808201855282815260a08401528351808201855282815260c08401528351808201855282815260e084015283519081019093528252610100810191909152600c8054839081106113f5576113f5614891565b90600052602060002090600b0201600201906009611414929190613e52565b506001600c828154811061142a5761142a614891565b6000918252602091829020600b90910201805460ff1916921515929092179091556040518281527fc5478e3fe602c65e5cdd37abe42a8e007ff762d266b9e8256769194c1fa1361e91015b60405180910390a150565b606081518351146114e55760405162461bcd60e51b815260206004820152602960248201527f455243313135353a206163636f756e747320616e6420696473206c656e677468604482015268040dad2e6dac2e8c6d60bb1b6064820152608401610502565b6000835167ffffffffffffffff81111561150157611501614047565b60405190808252806020026020018201604052801561152a578160200160208202803683370190505b50905060005b84518110156115a25761157585828151811061154e5761154e614891565b602002602001015185838151811061156857611568614891565b602002602001015161049a565b82828151811061158757611587614891565b602090810291909101015261159b816148a7565b9050611530565b509392505050565b600c81815481106115bd576115bd614891565b60009182526020909120600b909102015460ff1661161d5760405162461bcd60e51b815260206004820152601c60248201527f5468652067616d65207374696c6c206e6f7420737461727420796574000000006044820152606401610502565b6116fd600c828154811061163357611633614891565b90600052602060002090600b0201600201838154811061165557611655614891565b90600052602060002001805461166a9061474c565b80601f01602080910402602001604051908101604052809291908181526020018280546116969061474c565b80156116e35780601f106116b8576101008083540402835291602001916116e3565b820191906000526020600020905b8154815290600101906020018083116116c657829003601f168201915b505050505060405180602001604052806000815250612954565b6117395760405162461bcd60e51b815260206004820152600d60248201526c125b9d985b1a59081a5b9c1d5d609a1b6044820152606401610502565b611808600c828154811061174f5761174f614891565b90600052602060002090600b0201600101805461176b9061474c565b80601f01602080910402602001604051908101604052809291908181526020018280546117979061474c565b80156117e45780601f106117b9576101008083540402835291602001916117e4565b820191906000526020600020905b8154815290600101906020018083116117c757829003601f168201915b5050505050604051806040016040528060018152602001600b60fb1b815250612954565b1561188757600c818154811061182057611820614891565b60009182526020909120600b90910201600401546001600160a01b031633146118825760405162461bcd60e51b8152602060048201526014602482015273596f7520617265206e6f7420706c61796572203160601b6044820152606401610502565b6118fc565b600c818154811061189a5761189a614891565b60009182526020909120600b90910201600501546001600160a01b031633146118fc5760405162461bcd60e51b81526020600482015260146024820152732cb7ba9030b932903737ba10383630bcb2b9101960611b6044820152606401610502565b600c818154811061190f5761190f614891565b90600052602060002090600b0201600101600c828154811061193357611933614891565b90600052602060002090600b0201600201838154811061195557611955614891565b90600052602060002001908161196b9190614933565b507f9659242f3970136bf08cba261398ae9f0bc58a676137d79d3c2040dcdacbc18b600c82815481106119a0576119a0614891565b90600052602060002090600b0201600201826040516119c0929190614acf565b60405180910390a16119d181612fa6565b5050565b600c81815481106119e557600080fd5b60009182526020909120600b90910201805460018201805460ff909216935090611a0e9061474c565b80601f0160208091040260200160405190810160405280929190818152602001828054611a3a9061474c565b8015611a875780601f10611a5c57610100808354040283529160200191611a87565b820191906000526020600020905b815481529060010190602001808311611a6a57829003601f168201915b505050600484015460058501546006860154600787015460088801546009890154600a9099015497986001600160a01b039586169894861697509295509316929189565b600b546001600160a01b03163314611b155760405162461bcd60e51b815260206004820152600d60248201526c2737ba103a34329037bbb732b960991b6044820152606401610502565b600a54600480546040516370a0823160e01b81523092810192909252600092916001600160a01b03909116906370a0823190602401602060405180830381865afa158015611b67573d6000803e3d6000fd5b505050506040513d601f19601f82011682018060405250810190611b8b919061467d565b611b9591906146e5565b11611bdb5760405162461bcd60e51b815260206004820152601660248201527554686520746f6b656e206973206e6f7420657874726160501b6044820152606401610502565b60048054600b54600a546040516370a0823160e01b815230948101949094526001600160a01b039283169363a9059cbb939092169184906370a0823190602401602060405180830381865afa158015611c38573d6000803e3d6000fd5b505050506040513d601f19601f82011682018060405250810190611c5c919061467d565b611c6691906146e5565b6040516001600160e01b031960e085901b1681526001600160a01b03909216600483015260248201526044016020604051808303816000875af1158015611cb1573d6000803e3d6000fd5b505050506040513d601f19601f8201168201806040525081019061106c919061471c565b6001600160a01b0382163303611d3f5760405162461bcd60e51b815260206004820152602960248201527f455243313135353a2073657474696e6720617070726f76616c20737461747573604482015268103337b91039b2b63360b91b6064820152608401610502565b3360008181526002602090815260408083206001600160a01b03871680855290835292819020805460ff191686151590811790915590519081529192917f17307eab39ab6107e8899845ad3d59bd9653f200f220920489ca2b5937696c31910160405180910390a35050565b611db3613d3e565b600c8281548110611dc657611dc6614891565b6000918252602091829020604080516101608101909152600b90920201805460ff16151582526001810180549293919291840191611e039061474c565b80601f0160208091040260200160405190810160405280929190818152602001828054611e2f9061474c565b8015611e7c5780601f10611e5157610100808354040283529160200191611e7c565b820191906000526020600020905b815481529060010190602001808311611e5f57829003601f168201915b5050505050815260200160028201805480602002602001604051908101604052809291908181526020016000905b82821015611f56578382906000526020600020018054611ec99061474c565b80601f0160208091040260200160405190810160405280929190818152602001828054611ef59061474c565b8015611f425780601f10611f1757610100808354040283529160200191611f42565b820191906000526020600020905b815481529060010190602001808311611f2557829003601f168201915b505050505081526020019060010190611eaa565b50505050815260200160038201805480602002602001604051908101604052809291908181526020018280548015611fad57602002820191906000526020600020905b815481526020019060010190808311611f99575b505050918352505060048201546001600160a01b039081166020830152600583015481166040830152600683015460608301526007830154166080820152600882015460a0820152600982015460c0820152600a9091015460e09091015292915050565b600b54600160a01b900460ff16156120635760405162461bcd60e51b8152602060048201526015602482015274115c9c9bdc8e881499595b9d1c985b9d0818d85b1b605a1b6044820152606401610502565b600b805460ff60a01b1916600160a01b179055600c80548390811061208a5761208a614891565b90600052602060002090600b0201600601546001036125ff57600c82815481106120b6576120b6614891565b60009182526020909120600b9091020160080154600480546040516370a0823160e01b815233928101929092526001600160a01b0316906370a0823190602401602060405180830381865afa158015612113573d6000803e3d6000fd5b505050506040513d601f19601f82011682018060405250810190612137919061467d565b101561217a5760405162461bcd60e51b81526020600482015260126024820152714e6f7420656e6f7567682062616c616e636560701b6044820152606401610502565b600c828154811061218d5761218d614891565b90600052602060002090600b02016008015481146121ed5760405162461bcd60e51b815260206004820152601a60248201527f4e65656420746f20706179206d696e2062657420616d6f756e740000000000006044820152606401610502565b60006064600854836121ff91906146ac565b61220991906146c3565b9050600060646009548461221d91906146ac565b61222791906146c3565b905060008161223684866146e5565b61224091906146e5565b600480546040516323b872dd60e01b81529293506001600160a01b0316916323b872dd9161227691339161dead918991016146f8565b6020604051808303816000875af1158015612295573d6000803e3d6000fd5b505050506040513d601f19601f820116820180604052508101906122b9919061471c565b50600480546007546040516323b872dd60e01b81526001600160a01b03928316936323b872dd936122f19333939116918891016146f8565b6020604051808303816000875af1158015612310573d6000803e3d6000fd5b505050506040513d601f19601f82011682018060405250810190612334919061471c565b50600480546040516323b872dd60e01b81526001600160a01b03909116916323b872dd9161236891339130918791016146f8565b6020604051808303816000875af1158015612387573d6000803e3d6000fd5b505050506040513d601f19601f820116820180604052508101906123ab919061471c565b5080600a60008282546123be9190614739565b9091555050600c8054869081106123d7576123d7614891565b600091825260209091206004600b9092020101546001600160a01b0316330361244e5760405162461bcd60e51b8152602060048201526024808201527f4572726f723a20596f752063616e6e6f7420706c6179207769746820796f757260448201526339b2b63360e11b6064820152608401610502565b33600c868154811061246257612462614891565b90600052602060002090600b020160050160006101000a8154816001600160a01b0302191690836001600160a01b031602179055506002600c86815481106124ac576124ac614891565b90600052602060002090600b0201600601819055506001600c86815481106124d6576124d6614891565b90600052602060002090600b020160000160006101000a81548160ff02191690831515021790555083600c868154811061251257612512614891565b90600052602060002090600b0201600901819055507f2f78808c539fd07cb45456a5d5561c76d3d4005246faccb297481e511abc321a600c868154811061255b5761255b614891565b90600052602060002090600b020160040160009054906101000a90046001600160a01b0316600c878154811061259357612593614891565b6000918252602091829020600b91820201600501546040805160808082528101939093526a53746172742067616d652160a81b60a08401526001600160a01b039485169383019390935292909216908201526060810187905260c00160405180910390a1505050612699565b600c828154811061261257612612614891565b90600052602060002090600b0201600601546002146126995760405162461bcd60e51b815260206004820152603e60248201527f4e6f772071756575652069732066756c6c2c20747279206c617465722e20476160448201527f6d6520616c72656164792066756c6c20706c73206a6f696e206f7468657200006064820152608401610502565b7f50370b40bd566613cb1b12508c3114409e62c5c8de11be443cafc84462cf5699600c83815481106126cd576126cd614891565b90600052602060002090600b0201836040516126ea929190614b26565b60405180910390a15050600b805460ff60a01b19169055565b600480546040516370a0823160e01b815230928101929092526064916001600160a01b03909116906370a0823190602401602060405180830381865afa158015612751573d6000803e3d6000fd5b505050506040513d601f19601f82011682018060405250810190612775919061467d565b116127d85760405162461bcd60e51b815260206004820152602d60248201527f54686520636f6e747261637420646f6573206e6f74206861766520746f6b656e60448201526c39903a3790383937bb34b2329760991b6064820152608401610502565b600480546040516370a0823160e01b81523392810192909252600a916001600160a01b03909116906370a0823190602401602060405180830381865afa158015612826573d6000803e3d6000fd5b505050506040513d601f19601f8201168201806040525081019061284a919061467d565b106128975760405162461bcd60e51b815260206004820152601a60248201527f596f75207374696c6c20676f7420656e6f75676820746f6b656e0000000000006044820152606401610502565b6004805460405163a9059cbb60e01b8152339281019290925268056bc75e2d6310000060248301526000916001600160a01b039091169063a9059cbb906044016020604051808303816000875af11580156128f6573d6000803e3d6000fd5b505050506040513d601f19601f8201168201806040525081019061291a919061471c565b6040805133815282151560208201529192507f1d67794760bb3ea2174b2ccc7b8aa2d786ef61a72e7be363dab04929e3510b1c9101611475565b6000816040516020016129679190614c06565b604051602081830303815290604052805190602001208360405160200161298e9190614c06565b6040516020818303038152906040528051906020012014905092915050565b6060600c82815481106129c2576129c2614891565b90600052602060002090600b0201600201805480602002602001604051908101604052809291908181526020016000905b82821015612a9f578382906000526020600020018054612a129061474c565b80601f0160208091040260200160405190810160405280929190818152602001828054612a3e9061474c565b8015612a8b5780601f10612a6057610100808354040283529160200191612a8b565b820191906000526020600020905b815481529060010190602001808311612a6e57829003601f168201915b5050505050815260200190600101906129f3565b505050509050919050565b600b546001600160a01b03163314612af45760405162461bcd60e51b815260206004820152600d60248201526c2737ba103a34329037bbb732b960991b6044820152606401610502565b60048054600b546040516370a0823160e01b815230938101939093526001600160a01b039182169263a9059cbb929091169083906370a0823190602401602060405180830381865afa158015612b4e573d6000803e3d6000fd5b505050506040513d601f19601f82011682018060405250810190611c66919061467d565b6001600160a01b038416612b985760405162461bcd60e51b8152600401610502906148c0565b6001600160a01b038516331480612bb45750612bb4853361043f565b612c125760405162461bcd60e51b815260206004820152602960248201527f455243313135353a2063616c6c6572206973206e6f74206f776e6572206e6f7260448201526808185c1c1c9bdd995960ba1b6064820152608401610502565b33612c32818787612c22886138c8565b612c2b886138c8565b5050505050565b612c79836040518060600160405280602a8152602001614de4602a913960008781526001602090815260408083206001600160a01b038d1684529091529020549190612d25565b60008581526001602090815260408083206001600160a01b038b81168552925280832093909355871681522054612cb09084612d5c565b60008581526001602090815260408083206001600160a01b038a811680865291845293829020949094558051888152918201879052898316928516917fc3d58168c5ae7397731d063d5bbf3d657854427343f4c083240f7aacaa2d0f62910160405180910390a4610f9d818787878787613913565b60008184841115612d495760405162461bcd60e51b81526004016105029190613fe6565b50612d5483856146e5565b949350505050565b600080612d698385614739565b905083811015612dbb5760405162461bcd60e51b815260206004820152601b60248201527f536166654d6174683a206164646974696f6e206f766572666c6f7700000000006044820152606401610502565b9392505050565b6001600160a01b0384163b15610f9d5760405163bc197c8160e01b81526001600160a01b0385169063bc197c8190612e069089908990889088908890600401614c22565b6020604051808303816000875af1925050508015612e41575060408051601f3d908101601f19168201909252612e3e91810190614c80565b60015b612eed57612e4d614c9d565b806308c379a003612e865750612e61614cb9565b80612e6c5750612e88565b8060405162461bcd60e51b81526004016105029190613fe6565b505b60405162461bcd60e51b815260206004820152603460248201527f455243313135353a207472616e7366657220746f206e6f6e20455243313135356044820152732932b1b2b4bb32b91034b6b83632b6b2b73a32b960611b6064820152608401610502565b6001600160e01b0319811663bc197c8160e01b14612f1d5760405162461bcd60e51b815260040161050290614d43565b50505050505050565b6000600c8281548110612f3b57612f3b614891565b60009182526020909120600b90910201600401546001600160a01b0316331480612f935750600c8281548110612f7357612f73614891565b60009182526020909120600b90910201600501546001600160a01b031633145b612f9e576000610530565b600192915050565b6000805b600d548110156134d9576000600d8281548110612fc957612fc9614891565b9060005260206000200180548060200260200160405190810160405280929190818152602001828054801561301d57602002820191906000526020600020905b815481526020019060010190808311613009575b505050505090506000600c858154811061303957613039614891565b90600052602060002090600b02016002018260008151811061305d5761305d614891565b60200260200101518154811061307557613075614891565b90600052602060002001805461308a9061474c565b80601f01602080910402602001604051908101604052809291908181526020018280546130b69061474c565b80156131035780601f106130d857610100808354040283529160200191613103565b820191906000526020600020905b8154815290600101906020018083116130e657829003601f168201915b505050505090506000600c868154811061311f5761311f614891565b90600052602060002090600b02016002018360018151811061314357613143614891565b60200260200101518154811061315b5761315b614891565b9060005260206000200180546131709061474c565b80601f016020809104026020016040519081016040528092919081815260200182805461319c9061474c565b80156131e95780601f106131be576101008083540402835291602001916131e9565b820191906000526020600020905b8154815290600101906020018083116131cc57829003601f168201915b505050505090506000600c878154811061320557613205614891565b90600052602060002090600b02016002018460028151811061322957613229614891565b60200260200101518154811061324157613241614891565b9060005260206000200180546132569061474c565b80601f01602080910402602001604051908101604052809291908181526020018280546132829061474c565b80156132cf5780601f106132a4576101008083540402835291602001916132cf565b820191906000526020600020905b8154815290600101906020018083116132b257829003601f168201915b505050505090506132ef8360405180602001604052806000815250612954565b8061330e575061330e8260405180602001604052806000815250612954565b8061332d575061332d8160405180602001604052806000815250612954565b1561333b57505050506134c7565b6133458383612954565b801561335657506133568282612954565b156134c25783600c888154811061336f5761336f614891565b90600052602060002090600b02016003019080519060200190613393929190613e0b565b506133aa600c888154811061174f5761174f614891565b1561343457600c87815481106133c2576133c2614891565b90600052602060002090600b020160040160009054906101000a90046001600160a01b0316600c88815481106133fa576133fa614891565b90600052602060002090600b020160070160006101000a8154816001600160a01b0302191690836001600160a01b031602179055506134b5565b600c878154811061344757613447614891565b90600052602060002090600b020160050160009054906101000a90046001600160a01b0316600c888154811061347f5761347f614891565b90600052602060002090600b020160070160006101000a8154816001600160a01b0302191690836001600160a01b031602179055505b60019550505050506134d9565b505050505b806134d1816148a7565b915050612faa565b508015613863576134f6600c838154811061174f5761174f614891565b1561364357600454600c80546001600160a01b039092169163a9059cbb91908590811061352557613525614891565b90600052602060002090600b020160040160009054906101000a90046001600160a01b0316600c858154811061355d5761355d614891565b90600052602060002090600b0201600a0154600261357b91906146ac565b6040516001600160e01b031960e085901b1681526001600160a01b03909216600483015260248201526044016020604051808303816000875af11580156135c6573d6000803e3d6000fd5b505050506040513d601f19601f820116820180604052508101906135ea919061471c565b5061363e600c838154811061360157613601614891565b90600052602060002090600b020160040160009054906101000a90046001600160a01b0316836001604051806020016040528060008152506139ce565b613786565b600454600c80546001600160a01b039092169163a9059cbb91908590811061366d5761366d614891565b90600052602060002090600b020160050160009054906101000a90046001600160a01b0316600c85815481106136a5576136a5614891565b90600052602060002090600b0201600a015460026136c391906146ac565b6040516001600160e01b031960e085901b1681526001600160a01b03909216600483015260248201526044016020604051808303816000875af115801561370e573d6000803e3d6000fd5b505050506040513d601f19601f82011682018060405250810190613732919061471c565b50613786600c838154811061374957613749614891565b90600052602060002090600b020160050160009054906101000a90046001600160a01b0316836001604051806020016040528060008152506139ce565b600c828154811061379957613799614891565b90600052602060002090600b0201600a015460026137b791906146ac565b600a60008282546137c891906146e5565b925050819055507f938a1c44580c51d01225d61fb97878104148b1cdc734eb45bc5b5b50533a492d600c838154811061380357613803614891565b90600052602060002090600b020160010183604051613823929190614d8b565b60405180910390a16000600c838154811061384057613840614891565b60009182526020909120600b90910201805460ff19169115159190911790555050565b61386c82613ade565b156138bf5760408051818152600491810191909152634472617760e01b6060820152602081018390527f938a1c44580c51d01225d61fb97878104148b1cdc734eb45bc5b5b50533a492d90608001613823565b6119d182613b72565b6040805160018082528183019092526060916000919060208083019080368337019050509050828160008151811061390257613902614891565b602090810291909101015292915050565b6001600160a01b0384163b15610f9d5760405163f23a6e6160e01b81526001600160a01b0385169063f23a6e61906139579089908990889088908890600401614d9e565b6020604051808303816000875af1925050508015613992575060408051601f3d908101601f1916820190925261398f91810190614c80565b60015b61399e57612e4d614c9d565b6001600160e01b0319811663f23a6e6160e01b14612f1d5760405162461bcd60e51b815260040161050290614d43565b6001600160a01b038416613a2e5760405162461bcd60e51b815260206004820152602160248201527f455243313135353a206d696e7420746f20746865207a65726f206164647265736044820152607360f81b6064820152608401610502565b33613a3f81600087612c22886138c8565b60008481526001602090815260408083206001600160a01b0389168452909152902054613a6c9084612d5c565b60008581526001602090815260408083206001600160a01b038a8116808652918452828520959095558151898152928301889052938516917fc3d58168c5ae7397731d063d5bbf3d657854427343f4c083240f7aacaa2d0f62910160405180910390a4612c2b81600087878787613913565b6000805b600c8381548110613af557613af5614891565b90600052602060002090600b020160020180549050811015613b6957613b49600c8481548110613b2757613b27614891565b90600052602060002090600b0201600201828154811061165557611655614891565b15613b575750600092915050565b80613b61816148a7565b915050613ae2565b50600192915050565b613b88600c828154811061174f5761174f614891565b15613bfb577feefc3fd775b975165c9d067e02fcd5bf5889d58041ae6ddaf94f2cc853007272600c8281548110613bc157613bc1614891565b6000918252602091829020600b9091020160050154604080516001600160a01b0390921682529181018490520160405180910390a1613c65565b7feefc3fd775b975165c9d067e02fcd5bf5889d58041ae6ddaf94f2cc853007272600c8281548110613c2f57613c2f614891565b6000918252602091829020600b9091020160040154604080516001600160a01b0390921682529181018490520160405180910390a15b613c7b600c828154811061174f5761174f614891565b613c9e57604051806040016040528060018152602001600b60fb1b815250613cb9565b604051806040016040528060018152602001604f60f81b8152505b600c8281548110613ccc57613ccc614891565b90600052602060002090600b02016001019081613ce991906147d1565b507fa6d1cb5f730b987124c37c3876130fddba49456449948ec4257360f5ab2851c0600c8281548110613d1e57613d1e614891565b90600052602060002090600b020160010182604051611475929190614d8b565b60405180610160016040528060001515815260200160608152602001606081526020016060815260200160006001600160a01b0316815260200160006001600160a01b031681526020016000815260200160006001600160a01b031681526020016000815260200160008152602001600081525090565b828054828255906000526020600020908101928215613dfb579160200282015b82811115613dfb5782518290613deb90826147d1565b5091602001919060010190613dd5565b50613e07929150613e98565b5090565b828054828255906000526020600020908101928215613e46579160200282015b82811115613e46578251825591602001919060010190613e2b565b50613e07929150613eb5565b828054828255906000526020600020908101928215613dfb579160200282015b82811115613dfb5782518290613e8890826147d1565b5091602001919060010190613e72565b80821115613e07576000613eac8282613eca565b50600101613e98565b5b80821115613e075760008155600101613eb6565b508054613ed69061474c565b6000825580601f10613ee6575050565b601f01602090049060005260206000209081019061106c9190613eb5565b80356001600160a01b0381168114613f1b57600080fd5b919050565b60008060408385031215613f3357600080fd5b613f3c83613f04565b946020939093013593505050565b6001600160e01b03198116811461106c57600080fd5b600060208284031215613f7257600080fd5b8135612dbb81613f4a565b600060208284031215613f8f57600080fd5b5035919050565b60005b83811015613fb1578181015183820152602001613f99565b50506000910152565b60008151808452613fd2816020860160208601613f96565b601f01601f19169290920160200192915050565b602081526000612dbb6020830184613fba565b600081518084526020808501945080840160005b838110156140295781518752958201959082019060010161400d565b509495945050505050565b602081526000612dbb6020830184613ff9565b634e487b7160e01b600052604160045260246000fd5b601f8201601f1916810167ffffffffffffffff8111828210171561408357614083614047565b6040525050565b600067ffffffffffffffff8211156140a4576140a4614047565b5060051b60200190565b600082601f8301126140bf57600080fd5b813560206140cc8261408a565b6040516140d9828261405d565b83815260059390931b85018201928281019150868411156140f957600080fd5b8286015b8481101561411457803583529183019183016140fd565b509695505050505050565b600082601f83011261413057600080fd5b813567ffffffffffffffff81111561414a5761414a614047565b604051614161601f8301601f19166020018261405d565b81815284602083860101111561417657600080fd5b816020850160208301376000918101602001919091529392505050565b600080600080600060a086880312156141ab57600080fd5b6141b486613f04565b94506141c260208701613f04565b9350604086013567ffffffffffffffff808211156141df57600080fd5b6141eb89838a016140ae565b9450606088013591508082111561420157600080fd5b61420d89838a016140ae565b9350608088013591508082111561422357600080fd5b506142308882890161411f565b9150509295509295909350565b600081518084526020808501808196508360051b8101915082860160005b85811015614285578284038952614273848351613fba565b9885019893509084019060010161425b565b5091979650505050505050565b805115158252600061016060208301518160208601526142b482860182613fba565b915050604083015184820360408601526142ce828261423d565b915050606083015184820360608601526142e88282613ff9565b915050608083015161430560808601826001600160a01b03169052565b5060a083015161432060a08601826001600160a01b03169052565b5060c083015160c085015260e083015161434560e08601826001600160a01b03169052565b50610100838101519085015261012080840151908501526101409283015192909301919091525090565b6000602080830181845280855180835260408601915060408160051b870101925083870160005b828110156143c457603f198886030184526143b2858351614292565b94509285019290850190600101614396565b5092979650505050505050565b600080604083850312156143e457600080fd5b823567ffffffffffffffff808211156143fc57600080fd5b818501915085601f83011261441057600080fd5b8135602061441d8261408a565b60405161442a828261405d565b83815260059390931b850182019282810191508984111561444a57600080fd5b948201945b8386101561446f5761446086613f04565b8252948201949082019061444f565b9650508601359250508082111561448557600080fd5b50614492858286016140ae565b9150509250929050565b600080604083850312156144af57600080fd5b50508035926020909101359150565b60006101208b151583528060208401526144da8184018c613fba565b6001600160a01b039a8b166040850152988a166060840152505060808101959095529290951660a084015260c083015260e0820193909352610100019190915292915050565b801515811461106c57600080fd5b6000806040838503121561454157600080fd5b61454a83613f04565b9150602083013561455a81614520565b809150509250929050565b602081526000612dbb6020830184614292565b6000806040838503121561458b57600080fd5b823567ffffffffffffffff808211156145a357600080fd5b6145af8683870161411f565b935060208501359150808211156145c557600080fd5b506144928582860161411f565b602081526000612dbb602083018461423d565b600080604083850312156145f857600080fd5b61460183613f04565b915061460f60208401613f04565b90509250929050565b600080600080600060a0868803121561463057600080fd5b61463986613f04565b945061464760208701613f04565b93506040860135925060608601359150608086013567ffffffffffffffff81111561467157600080fd5b6142308882890161411f565b60006020828403121561468f57600080fd5b5051919050565b634e487b7160e01b600052601160045260246000fd5b808202811582820484141761053057610530614696565b6000826146e057634e487b7160e01b600052601260045260246000fd5b500490565b8181038181111561053057610530614696565b6001600160a01b039384168152919092166020820152604081019190915260600190565b60006020828403121561472e57600080fd5b8151612dbb81614520565b8082018082111561053057610530614696565b600181811c9082168061476057607f821691505b60208210810361478057634e487b7160e01b600052602260045260246000fd5b50919050565b601f8211156147cc57600081815260208120601f850160051c810160208610156147ad5750805b601f850160051c820191505b81811015610f9d578281556001016147b9565b505050565b815167ffffffffffffffff8111156147eb576147eb614047565b6147ff816147f9845461474c565b84614786565b602080601f831160018114614834576000841561481c5750858301515b600019600386901b1c1916600185901b178555610f9d565b600085815260208120601f198616915b8281101561486357888601518255948401946001909101908401614844565b50858210156148815787850151600019600388901b60f8161c191681555b5050505050600190811b01905550565b634e487b7160e01b600052603260045260246000fd5b6000600182016148b9576148b9614696565b5060010190565b60208082526025908201527f455243313135353a207472616e7366657220746f20746865207a65726f206164604082015264647265737360d81b606082015260800190565b6040815260006149186040830185613ff9565b828103602084015261492a8185613ff9565b95945050505050565b81810361493e575050565b614948825461474c565b67ffffffffffffffff81111561496057614960614047565b61496e816147f9845461474c565b6000601f8211600181146149a2576000831561498a5750848201545b600019600385901b1c1916600184901b178455612c2b565b600085815260209020601f19841690600086815260209020845b838110156149dc57828601548255600195860195909101906020016149bc565b50858310156148815793015460001960f8600387901b161c19169092555050600190811b01905550565b60008154614a138161474c565b808552602060018381168015614a305760018114614a4a57614a78565b60ff1985168884015283151560051b880183019550614a78565b866000528260002060005b85811015614a705781548a8201860152908301908401614a55565b890184019650505b505050505092915050565b600081548084526020808501808196508360051b81019150856000528260002060005b85811015614285578284038952614abd8483614a06565b98850198935060019182019101614aa6565b604081526000614ae26040830185614a83565b90508260208301529392505050565b6000815480845260208085019450836000528060002060005b8381101561402957815487529582019560019182019101614b0a565b60408152614b4260408201614b3c855460ff1690565b15159052565b6000610160806060840152614b5e6101a0840160018701614a06565b603f1980858303016080860152614b788260028901614a83565b9150808583030160a086015250614b928160038801614af1565b9050614ba860048701546001600160a01b031690565b6001600160a01b0390811660c08601526005870154811660e086015260068701546101008601526007870154166101208501526008860154610140850152600986015491840191909152600a90940154610180830152506020015290565b60008251614c18818460208701613f96565b9190910192915050565b6001600160a01b0386811682528516602082015260a060408201819052600090614c4e90830186613ff9565b8281036060840152614c608186613ff9565b90508281036080840152614c748185613fba565b98975050505050505050565b600060208284031215614c9257600080fd5b8151612dbb81613f4a565b600060033d1115614cb65760046000803e5060005160e01c5b90565b600060443d1015614cc75790565b6040516003193d81016004833e81513d67ffffffffffffffff8160248401118184111715614cf757505050505090565b8285019150815181811115614d0f5750505050505090565b843d8701016020828501011115614d295750505050505090565b614d386020828601018761405d565b509095945050505050565b60208082526028908201527f455243313135353a204552433131353552656365697665722072656a656374656040820152676420746f6b656e7360c01b606082015260800190565b604081526000614ae26040830185614a06565b6001600160a01b03868116825285166020820152604081018490526060810183905260a060808201819052600090614dd890830184613fba565b97965050505050505056fe455243313135353a20696e73756666696369656e742062616c616e636520666f72207472616e73666572a26469706673582212208affcc582a62c45da7dabfdc09c830bf08203c2a643004fb1239912a200ded8b64736f6c63430008130033",
			"opcodes": "PUSH1 0x4 DUP1 SLOAD PUSH1 0x1 PUSH1 0x1 PUSH1 0xA0 SHL SUB NOT SWAP1 DUP2 AND PUSH20 0x927E818DDCAB12D025495B228A4CE1DAE82798EC OR DUP3 SSTORE PUSH1 0x5 DUP1 SLOAD DUP3 AND PUSH20 0xA911CF7636D9E2ABE9AAF05035EFA47B14160965 OR DUP2 SSTORE PUSH8 0x8AC7230489E80000 PUSH1 0x6 SWAP1 DUP2 SSTORE PUSH1 0x7 DUP1 SLOAD SWAP1 SWAP4 AND PUSH20 0x3CE5A8A72820585C60F659896338D57347196991 OR DUP4 SSTORE PUSH1 0x8 DUP3 DUP2 SSTORE PUSH1 0x9 DUP4 SWAP1 SSTORE PUSH1 0x0 PUSH2 0x180 DUP2 DUP2 MSTORE PUSH1 0x1 PUSH2 0x1A0 DUP2 SWAP1 MSTORE PUSH1 0x2 PUSH2 0x1C0 DUP2 SWAP1 MSTORE PUSH1 0x80 SWAP3 DUP4 MSTORE PUSH1 0x3 PUSH2 0x1E0 DUP2 DUP2 MSTORE PUSH2 0x200 DUP12 SWAP1 MSTORE PUSH2 0x220 DUP10 SWAP1 MSTORE PUSH1 0xA0 MSTORE PUSH2 0x240 DUP8 DUP2 MSTORE PUSH2 0x260 DUP11 SWAP1 MSTORE PUSH2 0x280 DUP8 SWAP1 MSTORE PUSH1 0xC0 MSTORE PUSH2 0x2A0 DUP6 DUP2 MSTORE PUSH2 0x2C0 SWAP2 SWAP1 SWAP2 MSTORE PUSH2 0x2E0 DUP8 SWAP1 MSTORE PUSH1 0xE0 MSTORE PUSH2 0x300 SWAP2 DUP3 MSTORE PUSH2 0x320 DUP10 SWAP1 MSTORE PUSH2 0x340 SWAP8 SWAP1 SWAP8 MSTORE PUSH2 0x100 MSTORE PUSH2 0x360 DUP7 DUP2 MSTORE PUSH2 0x380 SWAP6 SWAP1 SWAP6 MSTORE PUSH2 0x3A0 DUP4 SWAP1 MSTORE PUSH2 0x120 SWAP5 SWAP1 SWAP5 MSTORE PUSH2 0x3C0 SWAP1 DUP2 MSTORE PUSH2 0x3E0 DUP7 SWAP1 MSTORE PUSH2 0x400 DUP3 SWAP1 MSTORE PUSH2 0x140 MSTORE PUSH2 0x480 PUSH1 0x40 MSTORE PUSH2 0x420 SWAP4 DUP5 MSTORE PUSH2 0x440 SWAP5 SWAP1 SWAP5 MSTORE PUSH2 0x460 MSTORE PUSH2 0x160 SWAP2 SWAP1 SWAP2 MSTORE PUSH3 0x14F SWAP2 PUSH1 0xD SWAP2 SWAP1 PUSH3 0x25D JUMP JUMPDEST POP CALLVALUE DUP1 ISZERO PUSH3 0x15D JUMPI PUSH1 0x0 DUP1 REVERT JUMPDEST POP PUSH1 0x40 DUP1 MLOAD PUSH1 0x20 DUP2 ADD SWAP1 SWAP2 MSTORE PUSH1 0x0 DUP2 MSTORE PUSH3 0x17F PUSH4 0x1FFC9A7 PUSH1 0xE0 SHL PUSH3 0x1C7 JUMP JUMPDEST PUSH3 0x18A DUP2 PUSH3 0x24B JUMP JUMPDEST PUSH3 0x19C PUSH4 0x6CDB3D13 PUSH1 0xE1 SHL PUSH3 0x1C7 JUMP JUMPDEST PUSH3 0x1AE PUSH4 0x3A24D07 PUSH1 0xE2 SHL PUSH3 0x1C7 JUMP JUMPDEST POP PUSH1 0xB DUP1 SLOAD PUSH1 0x1 PUSH1 0x1 PUSH1 0xA0 SHL SUB NOT AND CALLER OR SWAP1 SSTORE PUSH3 0x4D8 JUMP JUMPDEST PUSH1 0x1 PUSH1 0x1 PUSH1 0xE0 SHL SUB NOT DUP1 DUP3 AND SWAP1 SUB PUSH3 0x226 JUMPI PUSH1 0x40 MLOAD PUSH3 0x461BCD PUSH1 0xE5 SHL DUP2 MSTORE PUSH1 0x20 PUSH1 0x4 DUP3 ADD MSTORE PUSH1 0x1C PUSH1 0x24 DUP3 ADD MSTORE PUSH32 0x4552433136353A20696E76616C696420696E7465726661636520696400000000 PUSH1 0x44 DUP3 ADD MSTORE PUSH1 0x64 ADD PUSH1 0x40 MLOAD DUP1 SWAP2 SUB SWAP1 REVERT JUMPDEST PUSH1 0x1 PUSH1 0x1 PUSH1 0xE0 SHL SUB NOT AND PUSH1 0x0 SWAP1 DUP2 MSTORE PUSH1 0x20 DUP2 SWAP1 MSTORE PUSH1 0x40 SWAP1 KECCAK256 DUP1 SLOAD PUSH1 0xFF NOT AND PUSH1 0x1 OR SWAP1 SSTORE JUMP JUMPDEST PUSH1 0x3 PUSH3 0x259 DUP3 DUP3 PUSH3 0x40C JUMP JUMPDEST POP POP JUMP JUMPDEST DUP3 DUP1 SLOAD DUP3 DUP3 SSTORE SWAP1 PUSH1 0x0 MSTORE PUSH1 0x20 PUSH1 0x0 KECCAK256 SWAP1 DUP2 ADD SWAP3 DUP3 ISZERO PUSH3 0x2A9 JUMPI SWAP2 PUSH1 0x20 MUL DUP3 ADD JUMPDEST DUP3 DUP2 GT ISZERO PUSH3 0x2A9 JUMPI DUP3 MLOAD PUSH3 0x298 SWAP1 DUP4 SWAP1 PUSH1 0x3 PUSH3 0x2BB JUMP JUMPDEST POP SWAP2 PUSH1 0x20 ADD SWAP2 SWAP1 PUSH1 0x1 ADD SWAP1 PUSH3 0x27E JUMP JUMPDEST POP PUSH3 0x2B7 SWAP3 SWAP2 POP PUSH3 0x30C JUMP JUMPDEST POP SWAP1 JUMP JUMPDEST DUP3 DUP1 SLOAD DUP3 DUP3 SSTORE SWAP1 PUSH1 0x0 MSTORE PUSH1 0x20 PUSH1 0x0 KECCAK256 SWAP1 DUP2 ADD SWAP3 DUP3 ISZERO PUSH3 0x2FE JUMPI SWAP2 PUSH1 0x20 MUL DUP3 ADD JUMPDEST DUP3 DUP2 GT ISZERO PUSH3 0x2FE JUMPI DUP3 MLOAD DUP3 SWAP1 PUSH1 0xFF AND SWAP1 SSTORE SWAP2 PUSH1 0x20 ADD SWAP2 SWAP1 PUSH1 0x1 ADD SWAP1 PUSH3 0x2DC JUMP JUMPDEST POP PUSH3 0x2B7 SWAP3 SWAP2 POP PUSH3 0x32D JUMP JUMPDEST DUP1 DUP3 GT ISZERO PUSH3 0x2B7 JUMPI PUSH1 0x0 PUSH3 0x323 DUP3 DUP3 PUSH3 0x344 JUMP JUMPDEST POP PUSH1 0x1 ADD PUSH3 0x30C JUMP JUMPDEST JUMPDEST DUP1 DUP3 GT ISZERO PUSH3 0x2B7 JUMPI PUSH1 0x0 DUP2 SSTORE PUSH1 0x1 ADD PUSH3 0x32E JUMP JUMPDEST POP DUP1 SLOAD PUSH1 0x0 DUP3 SSTORE SWAP1 PUSH1 0x0 MSTORE PUSH1 0x20 PUSH1 0x0 KECCAK256 SWAP1 DUP2 ADD SWAP1 PUSH3 0x364 SWAP2 SWAP1 PUSH3 0x32D JUMP JUMPDEST POP JUMP JUMPDEST PUSH4 0x4E487B71 PUSH1 0xE0 SHL PUSH1 0x0 MSTORE PUSH1 0x41 PUSH1 0x4 MSTORE PUSH1 0x24 PUSH1 0x0 REVERT JUMPDEST PUSH1 0x1 DUP2 DUP2 SHR SWAP1 DUP3 AND DUP1 PUSH3 0x392 JUMPI PUSH1 0x7F DUP3 AND SWAP2 POP JUMPDEST PUSH1 0x20 DUP3 LT DUP2 SUB PUSH3 0x3B3 JUMPI PUSH4 0x4E487B71 PUSH1 0xE0 SHL PUSH1 0x0 MSTORE PUSH1 0x22 PUSH1 0x4 MSTORE PUSH1 0x24 PUSH1 0x0 REVERT JUMPDEST POP SWAP2 SWAP1 POP JUMP JUMPDEST PUSH1 0x1F DUP3 GT ISZERO PUSH3 0x407 JUMPI PUSH1 0x0 DUP2 DUP2 MSTORE PUSH1 0x20 DUP2 KECCAK256 PUSH1 0x1F DUP6 ADD PUSH1 0x5 SHR DUP2 ADD PUSH1 0x20 DUP7 LT ISZERO PUSH3 0x3E2 JUMPI POP DUP1 JUMPDEST PUSH1 0x1F DUP6 ADD PUSH1 0x5 SHR DUP3 ADD SWAP2 POP JUMPDEST DUP2 DUP2 LT ISZERO PUSH3 0x403 JUMPI DUP3 DUP2 SSTORE PUSH1 0x1 ADD PUSH3 0x3EE JUMP JUMPDEST POP POP POP JUMPDEST POP POP POP JUMP JUMPDEST DUP2 MLOAD PUSH1 0x1 PUSH1 0x1 PUSH1 0x40 SHL SUB DUP2 GT ISZERO PUSH3 0x428 JUMPI PUSH3 0x428 PUSH3 0x367 JUMP JUMPDEST PUSH3 0x440 DUP2 PUSH3 0x439 DUP5 SLOAD PUSH3 0x37D JUMP JUMPDEST DUP5 PUSH3 0x3B9 JUMP JUMPDEST PUSH1 0x20 DUP1 PUSH1 0x1F DUP4 GT PUSH1 0x1 DUP2 EQ PUSH3 0x478 JUMPI PUSH1 0x0 DUP5 ISZERO PUSH3 0x45F JUMPI POP DUP6 DUP4 ADD MLOAD JUMPDEST PUSH1 0x0 NOT PUSH1 0x3 DUP7 SWAP1 SHL SHR NOT AND PUSH1 0x1 DUP6 SWAP1 SHL OR DUP6 SSTORE PUSH3 0x403 JUMP JUMPDEST PUSH1 0x0 DUP6 DUP2 MSTORE PUSH1 0x20 DUP2 KECCAK256 PUSH1 0x1F NOT DUP7 AND SWAP2 JUMPDEST DUP3 DUP2 LT ISZERO PUSH3 0x4A9 JUMPI DUP9 DUP7 ADD MLOAD DUP3 SSTORE SWAP5 DUP5 ADD SWAP5 PUSH1 0x1 SWAP1 SWAP2 ADD SWAP1 DUP5 ADD PUSH3 0x488 JUMP JUMPDEST POP DUP6 DUP3 LT ISZERO PUSH3 0x4C8 JUMPI DUP8 DUP6 ADD MLOAD PUSH1 0x0 NOT PUSH1 0x3 DUP9 SWAP1 SHL PUSH1 0xF8 AND SHR NOT AND DUP2 SSTORE JUMPDEST POP POP POP POP POP PUSH1 0x1 SWAP1 DUP2 SHL ADD SWAP1 SSTORE POP JUMP JUMPDEST PUSH2 0x4E43 DUP1 PUSH3 0x4E8 PUSH1 0x0 CODECOPY PUSH1 0x0 RETURN INVALID PUSH1 0x80 PUSH1 0x40 MSTORE CALLVALUE DUP1 ISZERO PUSH2 0x10 JUMPI PUSH1 0x0 DUP1 REVERT JUMPDEST POP PUSH1 0x4 CALLDATASIZE LT PUSH2 0x1D9 JUMPI PUSH1 0x0 CALLDATALOAD PUSH1 0xE0 SHR DUP1 PUSH4 0x888B042F GT PUSH2 0x104 JUMPI DUP1 PUSH4 0xBED34BBA GT PUSH2 0xA2 JUMPI DUP1 PUSH4 0xEDB84FF7 GT PUSH2 0x71 JUMPI DUP1 PUSH4 0xEDB84FF7 EQ PUSH2 0x46D JUMPI DUP1 PUSH4 0xF242432A EQ PUSH2 0x475 JUMPI DUP1 PUSH4 0xFA968EEA EQ PUSH2 0x488 JUMPI DUP1 PUSH4 0xFCE589D8 EQ PUSH2 0x491 JUMPI PUSH1 0x0 DUP1 REVERT JUMPDEST DUP1 PUSH4 0xBED34BBA EQ PUSH2 0x3F5 JUMPI DUP1 PUSH4 0xCC32D176 EQ PUSH2 0x408 JUMPI DUP1 PUSH4 0xDC572C6E EQ PUSH2 0x411 JUMPI DUP1 PUSH4 0xE985E9C5 EQ PUSH2 0x431 JUMPI PUSH1 0x0 DUP1 REVERT JUMPDEST DUP1 PUSH4 0xB2182BE4 GT PUSH2 0xDE JUMPI DUP1 PUSH4 0xB2182BE4 EQ PUSH2 0x3A7 JUMPI DUP1 PUSH4 0xB4606E4E EQ PUSH2 0x3C7 JUMPI DUP1 PUSH4 0xB60B9FCB EQ PUSH2 0x3DA JUMPI DUP1 PUSH4 0xB7B524A1 EQ PUSH2 0x3ED JUMPI PUSH1 0x0 DUP1 REVERT JUMPDEST DUP1 PUSH4 0x888B042F EQ PUSH2 0x379 JUMPI DUP1 PUSH4 0x8DA5CB5B EQ PUSH2 0x381 JUMPI DUP1 PUSH4 0xA22CB465 EQ PUSH2 0x394 JUMPI PUSH1 0x0 DUP1 REVERT JUMPDEST DUP1 PUSH4 0x34FD3518 GT PUSH2 0x17C JUMPI DUP1 PUSH4 0x52BC3410 GT PUSH2 0x14B JUMPI DUP1 PUSH4 0x52BC3410 EQ PUSH2 0x300 JUMPI DUP1 PUSH4 0x61D027B3 EQ PUSH2 0x313 JUMPI DUP1 PUSH4 0x7EFFB427 EQ PUSH2 0x33E JUMPI DUP1 PUSH4 0x87052FAB EQ PUSH2 0x351 JUMPI PUSH1 0x0 DUP1 REVERT JUMPDEST DUP1 PUSH4 0x34FD3518 EQ PUSH2 0x2B2 JUMPI DUP1 PUSH4 0x491F0136 EQ PUSH2 0x2C5 JUMPI DUP1 PUSH4 0x4A968391 EQ PUSH2 0x2DA JUMPI DUP1 PUSH4 0x4E1273F4 EQ PUSH2 0x2ED JUMPI PUSH1 0x0 DUP1 REVERT JUMPDEST DUP1 PUSH4 0xE89341C GT PUSH2 0x1B8 JUMPI DUP1 PUSH4 0xE89341C EQ PUSH2 0x256 JUMPI DUP1 PUSH4 0x17B44960 EQ PUSH2 0x276 JUMPI DUP1 PUSH4 0x1A39D8EF EQ PUSH2 0x296 JUMPI DUP1 PUSH4 0x2EB2C2D6 EQ PUSH2 0x29F JUMPI PUSH1 0x0 DUP1 REVERT JUMPDEST DUP1 PUSH3 0xFDD58E EQ PUSH2 0x1DE JUMPI DUP1 PUSH4 0x1FFC9A7 EQ PUSH2 0x204 JUMPI DUP1 PUSH4 0x6139E8D EQ PUSH2 0x241 JUMPI JUMPDEST PUSH1 0x0 DUP1 REVERT JUMPDEST PUSH2 0x1F1 PUSH2 0x1EC CALLDATASIZE PUSH1 0x4 PUSH2 0x3F20 JUMP JUMPDEST PUSH2 0x49A JUMP JUMPDEST PUSH1 0x40 MLOAD SWAP1 DUP2 MSTORE PUSH1 0x20 ADD JUMPDEST PUSH1 0x40 MLOAD DUP1 SWAP2 SUB SWAP1 RETURN JUMPDEST PUSH2 0x231 PUSH2 0x212 CALLDATASIZE PUSH1 0x4 PUSH2 0x3F60 JUMP JUMPDEST PUSH1 0x1 PUSH1 0x1 PUSH1 0xE0 SHL SUB NOT AND PUSH1 0x0 SWAP1 DUP2 MSTORE PUSH1 0x20 DUP2 SWAP1 MSTORE PUSH1 0x40 SWAP1 KECCAK256 SLOAD PUSH1 0xFF AND SWAP1 JUMP JUMPDEST PUSH1 0x40 MLOAD SWAP1 ISZERO ISZERO DUP2 MSTORE PUSH1 0x20 ADD PUSH2 0x1FB JUMP JUMPDEST PUSH2 0x254 PUSH2 0x24F CALLDATASIZE PUSH1 0x4 PUSH2 0x3F7D JUMP JUMPDEST PUSH2 0x536 JUMP JUMPDEST STOP JUMPDEST PUSH2 0x269 PUSH2 0x264 CALLDATASIZE PUSH1 0x4 PUSH2 0x3F7D JUMP JUMPDEST PUSH2 0xC02 JUMP JUMPDEST PUSH1 0x40 MLOAD PUSH2 0x1FB SWAP2 SWAP1 PUSH2 0x3FE6 JUMP JUMPDEST PUSH2 0x289 PUSH2 0x284 CALLDATASIZE PUSH1 0x4 PUSH2 0x3F7D JUMP JUMPDEST PUSH2 0xC96 JUMP JUMPDEST PUSH1 0x40 MLOAD PUSH2 0x1FB SWAP2 SWAP1 PUSH2 0x4034 JUMP JUMPDEST PUSH2 0x1F1 PUSH1 0xA SLOAD DUP2 JUMP JUMPDEST PUSH2 0x254 PUSH2 0x2AD CALLDATASIZE PUSH1 0x4 PUSH2 0x4193 JUMP JUMPDEST PUSH2 0xD11 JUMP JUMPDEST PUSH2 0x254 PUSH2 0x2C0 CALLDATASIZE PUSH1 0x4 PUSH2 0x3F7D JUMP JUMPDEST PUSH2 0xFA5 JUMP JUMPDEST PUSH2 0x2CD PUSH2 0x106F JUMP JUMPDEST PUSH1 0x40 MLOAD PUSH2 0x1FB SWAP2 SWAP1 PUSH2 0x436F JUMP JUMPDEST PUSH2 0x254 PUSH2 0x2E8 CALLDATASIZE PUSH1 0x4 PUSH2 0x3F7D JUMP JUMPDEST PUSH2 0x1300 JUMP JUMPDEST PUSH2 0x289 PUSH2 0x2FB CALLDATASIZE PUSH1 0x4 PUSH2 0x43D1 JUMP JUMPDEST PUSH2 0x1480 JUMP JUMPDEST PUSH2 0x254 PUSH2 0x30E CALLDATASIZE PUSH1 0x4 PUSH2 0x449C JUMP JUMPDEST PUSH2 0x15AA JUMP JUMPDEST PUSH1 0x7 SLOAD PUSH2 0x326 SWAP1 PUSH1 0x1 PUSH1 0x1 PUSH1 0xA0 SHL SUB AND DUP2 JUMP JUMPDEST PUSH1 0x40 MLOAD PUSH1 0x1 PUSH1 0x1 PUSH1 0xA0 SHL SUB SWAP1 SWAP2 AND DUP2 MSTORE PUSH1 0x20 ADD PUSH2 0x1FB JUMP JUMPDEST PUSH1 0x4 SLOAD PUSH2 0x326 SWAP1 PUSH1 0x1 PUSH1 0x1 PUSH1 0xA0 SHL SUB AND DUP2 JUMP JUMPDEST PUSH2 0x364 PUSH2 0x35F CALLDATASIZE PUSH1 0x4 PUSH2 0x3F7D JUMP JUMPDEST PUSH2 0x19D5 JUMP JUMPDEST PUSH1 0x40 MLOAD PUSH2 0x1FB SWAP10 SWAP9 SWAP8 SWAP7 SWAP6 SWAP5 SWAP4 SWAP3 SWAP2 SWAP1 PUSH2 0x44BE JUMP JUMPDEST PUSH2 0x254 PUSH2 0x1ACB JUMP JUMPDEST PUSH1 0xB SLOAD PUSH2 0x326 SWAP1 PUSH1 0x1 PUSH1 0x1 PUSH1 0xA0 SHL SUB AND DUP2 JUMP JUMPDEST PUSH2 0x254 PUSH2 0x3A2 CALLDATASIZE PUSH1 0x4 PUSH2 0x452E JUMP JUMPDEST PUSH2 0x1CD5 JUMP JUMPDEST PUSH2 0x3BA PUSH2 0x3B5 CALLDATASIZE PUSH1 0x4 PUSH2 0x3F7D JUMP JUMPDEST PUSH2 0x1DAB JUMP JUMPDEST PUSH1 0x40 MLOAD PUSH2 0x1FB SWAP2 SWAP1 PUSH2 0x4565 JUMP JUMPDEST PUSH1 0x5 SLOAD PUSH2 0x326 SWAP1 PUSH1 0x1 PUSH1 0x1 PUSH1 0xA0 SHL SUB AND DUP2 JUMP JUMPDEST PUSH2 0x254 PUSH2 0x3E8 CALLDATASIZE PUSH1 0x4 PUSH2 0x449C JUMP JUMPDEST PUSH2 0x2011 JUMP JUMPDEST PUSH2 0x254 PUSH2 0x2703 JUMP JUMPDEST PUSH2 0x231 PUSH2 0x403 CALLDATASIZE PUSH1 0x4 PUSH2 0x4578 JUMP JUMPDEST PUSH2 0x2954 JUMP JUMPDEST PUSH2 0x1F1 PUSH1 0x9 SLOAD DUP2 JUMP JUMPDEST PUSH2 0x424 PUSH2 0x41F CALLDATASIZE PUSH1 0x4 PUSH2 0x3F7D JUMP JUMPDEST PUSH2 0x29AD JUMP JUMPDEST PUSH1 0x40 MLOAD PUSH2 0x1FB SWAP2 SWAP1 PUSH2 0x45D2 JUMP JUMPDEST PUSH2 0x231 PUSH2 0x43F CALLDATASIZE PUSH1 0x4 PUSH2 0x45E5 JUMP JUMPDEST PUSH1 0x1 PUSH1 0x1 PUSH1 0xA0 SHL SUB SWAP2 DUP3 AND PUSH1 0x0 SWAP1 DUP2 MSTORE PUSH1 0x2 PUSH1 0x20 SWAP1 DUP2 MSTORE PUSH1 0x40 DUP1 DUP4 KECCAK256 SWAP4 SWAP1 SWAP5 AND DUP3 MSTORE SWAP2 SWAP1 SWAP2 MSTORE KECCAK256 SLOAD PUSH1 0xFF AND SWAP1 JUMP JUMPDEST PUSH2 0x254 PUSH2 0x2AAA JUMP JUMPDEST PUSH2 0x254 PUSH2 0x483 CALLDATASIZE PUSH1 0x4 PUSH2 0x4618 JUMP JUMPDEST PUSH2 0x2B72 JUMP JUMPDEST PUSH2 0x1F1 PUSH1 0x6 SLOAD DUP2 JUMP JUMPDEST PUSH2 0x1F1 PUSH1 0x8 SLOAD DUP2 JUMP JUMPDEST PUSH1 0x0 PUSH1 0x1 PUSH1 0x1 PUSH1 0xA0 SHL SUB DUP4 AND PUSH2 0x50B JUMPI PUSH1 0x40 MLOAD PUSH3 0x461BCD PUSH1 0xE5 SHL DUP2 MSTORE PUSH1 0x20 PUSH1 0x4 DUP3 ADD MSTORE PUSH1 0x2B PUSH1 0x24 DUP3 ADD MSTORE PUSH32 0x455243313135353A2062616C616E636520717565727920666F7220746865207A PUSH1 0x44 DUP3 ADD MSTORE PUSH11 0x65726F2061646472657373 PUSH1 0xA8 SHL PUSH1 0x64 DUP3 ADD MSTORE PUSH1 0x84 ADD JUMPDEST PUSH1 0x40 MLOAD DUP1 SWAP2 SUB SWAP1 REVERT JUMPDEST POP PUSH1 0x0 DUP2 DUP2 MSTORE PUSH1 0x1 PUSH1 0x20 SWAP1 DUP2 MSTORE PUSH1 0x40 DUP1 DUP4 KECCAK256 PUSH1 0x1 PUSH1 0x1 PUSH1 0xA0 SHL SUB DUP7 AND DUP5 MSTORE SWAP1 SWAP2 MSTORE SWAP1 KECCAK256 SLOAD JUMPDEST SWAP3 SWAP2 POP POP JUMP JUMPDEST PUSH1 0xB SLOAD PUSH1 0x1 PUSH1 0xA0 SHL SWAP1 DIV PUSH1 0xFF AND ISZERO PUSH2 0x588 JUMPI PUSH1 0x40 MLOAD PUSH3 0x461BCD PUSH1 0xE5 SHL DUP2 MSTORE PUSH1 0x20 PUSH1 0x4 DUP3 ADD MSTORE PUSH1 0x15 PUSH1 0x24 DUP3 ADD MSTORE PUSH21 0x115C9C9BDC8E881499595B9D1C985B9D0818D85B1B PUSH1 0x5A SHL PUSH1 0x44 DUP3 ADD MSTORE PUSH1 0x64 ADD PUSH2 0x502 JUMP JUMPDEST PUSH1 0xB DUP1 SLOAD PUSH1 0xFF PUSH1 0xA0 SHL NOT AND PUSH1 0x1 PUSH1 0xA0 SHL OR SWAP1 SSTORE PUSH1 0x4 DUP1 SLOAD PUSH1 0x40 MLOAD PUSH4 0x70A08231 PUSH1 0xE0 SHL DUP2 MSTORE CALLER SWAP3 DUP2 ADD SWAP3 SWAP1 SWAP3 MSTORE DUP3 SWAP2 PUSH1 0x1 PUSH1 0x1 PUSH1 0xA0 SHL SUB SWAP1 SWAP2 AND SWAP1 PUSH4 0x70A08231 SWAP1 PUSH1 0x24 ADD PUSH1 0x20 PUSH1 0x40 MLOAD DUP1 DUP4 SUB DUP2 DUP7 GAS STATICCALL ISZERO DUP1 ISZERO PUSH2 0x5E8 JUMPI RETURNDATASIZE PUSH1 0x0 DUP1 RETURNDATACOPY RETURNDATASIZE PUSH1 0x0 REVERT JUMPDEST POP POP POP POP PUSH1 0x40 MLOAD RETURNDATASIZE PUSH1 0x1F NOT PUSH1 0x1F DUP3 ADD AND DUP3 ADD DUP1 PUSH1 0x40 MSTORE POP DUP2 ADD SWAP1 PUSH2 0x60C SWAP2 SWAP1 PUSH2 0x467D JUMP JUMPDEST LT ISZERO PUSH2 0x64F JUMPI PUSH1 0x40 MLOAD PUSH3 0x461BCD PUSH1 0xE5 SHL DUP2 MSTORE PUSH1 0x20 PUSH1 0x4 DUP3 ADD MSTORE PUSH1 0x12 PUSH1 0x24 DUP3 ADD MSTORE PUSH18 0x4E6F7420656E6F7567682062616C616E6365 PUSH1 0x70 SHL PUSH1 0x44 DUP3 ADD MSTORE PUSH1 0x64 ADD PUSH2 0x502 JUMP JUMPDEST PUSH1 0x6 SLOAD DUP2 LT ISZERO PUSH2 0x6A1 JUMPI PUSH1 0x40 MLOAD PUSH3 0x461BCD PUSH1 0xE5 SHL DUP2 MSTORE PUSH1 0x20 PUSH1 0x4 DUP3 ADD MSTORE PUSH1 0x1A PUSH1 0x24 DUP3 ADD MSTORE PUSH32 0x4E65656420746F20706179206D696E2062657420616D6F756E74000000000000 PUSH1 0x44 DUP3 ADD MSTORE PUSH1 0x64 ADD PUSH2 0x502 JUMP JUMPDEST PUSH1 0x0 PUSH1 0x64 PUSH1 0x8 SLOAD DUP4 PUSH2 0x6B3 SWAP2 SWAP1 PUSH2 0x46AC JUMP JUMPDEST PUSH2 0x6BD SWAP2 SWAP1 PUSH2 0x46C3 JUMP JUMPDEST SWAP1 POP PUSH1 0x0 PUSH1 0x64 PUSH1 0x9 SLOAD DUP5 PUSH2 0x6D1 SWAP2 SWAP1 PUSH2 0x46AC JUMP JUMPDEST PUSH2 0x6DB SWAP2 SWAP1 PUSH2 0x46C3 JUMP JUMPDEST SWAP1 POP PUSH1 0x0 DUP2 PUSH2 0x6EA DUP5 DUP7 PUSH2 0x46E5 JUMP JUMPDEST PUSH2 0x6F4 SWAP2 SWAP1 PUSH2 0x46E5 JUMP JUMPDEST PUSH1 0x4 DUP1 SLOAD PUSH1 0x40 MLOAD PUSH4 0x23B872DD PUSH1 0xE0 SHL DUP2 MSTORE SWAP3 SWAP4 POP PUSH1 0x1 PUSH1 0x1 PUSH1 0xA0 SHL SUB AND SWAP2 PUSH4 0x23B872DD SWAP2 PUSH2 0x72A SWAP2 CALLER SWAP2 PUSH2 0xDEAD SWAP2 DUP10 SWAP2 ADD PUSH2 0x46F8 JUMP JUMPDEST PUSH1 0x20 PUSH1 0x40 MLOAD DUP1 DUP4 SUB DUP2 PUSH1 0x0 DUP8 GAS CALL ISZERO DUP1 ISZERO PUSH2 0x749 JUMPI RETURNDATASIZE PUSH1 0x0 DUP1 RETURNDATACOPY RETURNDATASIZE PUSH1 0x0 REVERT JUMPDEST POP POP POP POP PUSH1 0x40 MLOAD RETURNDATASIZE PUSH1 0x1F NOT PUSH1 0x1F DUP3 ADD AND DUP3 ADD DUP1 PUSH1 0x40 MSTORE POP DUP2 ADD SWAP1 PUSH2 0x76D SWAP2 SWAP1 PUSH2 0x471C JUMP JUMPDEST POP PUSH1 0x4 DUP1 SLOAD PUSH1 0x7 SLOAD PUSH1 0x40 MLOAD PUSH4 0x23B872DD PUSH1 0xE0 SHL DUP2 MSTORE PUSH1 0x1 PUSH1 0x1 PUSH1 0xA0 SHL SUB SWAP3 DUP4 AND SWAP4 PUSH4 0x23B872DD SWAP4 PUSH2 0x7A5 SWAP4 CALLER SWAP4 SWAP2 AND SWAP2 DUP9 SWAP2 ADD PUSH2 0x46F8 JUMP JUMPDEST PUSH1 0x20 PUSH1 0x40 MLOAD DUP1 DUP4 SUB DUP2 PUSH1 0x0 DUP8 GAS CALL ISZERO DUP1 ISZERO PUSH2 0x7C4 JUMPI RETURNDATASIZE PUSH1 0x0 DUP1 RETURNDATACOPY RETURNDATASIZE PUSH1 0x0 REVERT JUMPDEST POP POP POP POP PUSH1 0x40 MLOAD RETURNDATASIZE PUSH1 0x1F NOT PUSH1 0x1F DUP3 ADD AND DUP3 ADD DUP1 PUSH1 0x40 MSTORE POP DUP2 ADD SWAP1 PUSH2 0x7E8 SWAP2 SWAP1 PUSH2 0x471C JUMP JUMPDEST POP PUSH1 0x4 DUP1 SLOAD PUSH1 0x40 MLOAD PUSH4 0x23B872DD PUSH1 0xE0 SHL DUP2 MSTORE PUSH1 0x1 PUSH1 0x1 PUSH1 0xA0 SHL SUB SWAP1 SWAP2 AND SWAP2 PUSH4 0x23B872DD SWAP2 PUSH2 0x81C SWAP2 CALLER SWAP2 ADDRESS SWAP2 DUP8 SWAP2 ADD PUSH2 0x46F8 JUMP JUMPDEST PUSH1 0x20 PUSH1 0x40 MLOAD DUP1 DUP4 SUB DUP2 PUSH1 0x0 DUP8 GAS CALL ISZERO DUP1 ISZERO PUSH2 0x83B JUMPI RETURNDATASIZE PUSH1 0x0 DUP1 RETURNDATACOPY RETURNDATASIZE PUSH1 0x0 REVERT JUMPDEST POP POP POP POP PUSH1 0x40 MLOAD RETURNDATASIZE PUSH1 0x1F NOT PUSH1 0x1F DUP3 ADD AND DUP3 ADD DUP1 PUSH1 0x40 MSTORE POP DUP2 ADD SWAP1 PUSH2 0x85F SWAP2 SWAP1 PUSH2 0x471C JUMP JUMPDEST POP DUP1 PUSH1 0xA PUSH1 0x0 DUP3 DUP3 SLOAD PUSH2 0x872 SWAP2 SWAP1 PUSH2 0x4739 JUMP JUMPDEST SWAP1 SWAP2 SSTORE POP PUSH2 0x880 SWAP1 POP PUSH2 0x3D3E JUMP JUMPDEST PUSH1 0xC DUP1 SLOAD PUSH1 0x1 DUP2 ADD DUP3 SSTORE PUSH1 0x0 SWAP2 SWAP1 SWAP2 MSTORE DUP2 MLOAD PUSH32 0xDF6966C971051C3D54EC59162606531493A51404A002842F56009D7E5CF4A8C7 PUSH1 0xB SWAP1 SWAP3 MUL SWAP2 DUP3 ADD DUP1 SLOAD PUSH1 0xFF NOT AND SWAP2 ISZERO ISZERO SWAP2 SWAP1 SWAP2 OR DUP2 SSTORE PUSH1 0x20 DUP4 ADD MLOAD DUP4 SWAP3 PUSH32 0xDF6966C971051C3D54EC59162606531493A51404A002842F56009D7E5CF4A8C8 ADD SWAP1 PUSH2 0x8FE SWAP1 DUP3 PUSH2 0x47D1 JUMP JUMPDEST POP PUSH1 0x40 DUP3 ADD MLOAD DUP1 MLOAD PUSH2 0x91A SWAP2 PUSH1 0x2 DUP5 ADD SWAP2 PUSH1 0x20 SWAP1 SWAP2 ADD SWAP1 PUSH2 0x3DB5 JUMP JUMPDEST POP PUSH1 0x60 DUP3 ADD MLOAD DUP1 MLOAD PUSH2 0x936 SWAP2 PUSH1 0x3 DUP5 ADD SWAP2 PUSH1 0x20 SWAP1 SWAP2 ADD SWAP1 PUSH2 0x3E0B JUMP JUMPDEST POP PUSH1 0x80 DUP3 ADD MLOAD PUSH1 0x4 DUP3 ADD DUP1 SLOAD PUSH1 0x1 PUSH1 0x1 PUSH1 0xA0 SHL SUB SWAP3 DUP4 AND PUSH1 0x1 PUSH1 0x1 PUSH1 0xA0 SHL SUB NOT SWAP2 DUP3 AND OR SWAP1 SWAP2 SSTORE PUSH1 0xA0 DUP5 ADD MLOAD PUSH1 0x5 DUP5 ADD DUP1 SLOAD SWAP2 DUP5 AND SWAP2 DUP4 AND SWAP2 SWAP1 SWAP2 OR SWAP1 SSTORE PUSH1 0xC0 DUP5 ADD MLOAD PUSH1 0x6 DUP5 ADD SSTORE PUSH1 0xE0 DUP5 ADD MLOAD PUSH1 0x7 DUP5 ADD DUP1 SLOAD SWAP2 SWAP1 SWAP4 AND SWAP2 AND OR SWAP1 SSTORE PUSH2 0x100 DUP3 ADD MLOAD PUSH1 0x8 DUP3 ADD SSTORE PUSH2 0x120 DUP3 ADD MLOAD PUSH1 0x9 DUP3 ADD SSTORE PUSH2 0x140 SWAP1 SWAP2 ADD MLOAD PUSH1 0xA SWAP1 SWAP2 ADD SSTORE PUSH1 0xC DUP1 SLOAD SWAP1 CALLER SWAP1 PUSH2 0x9C7 PUSH1 0x1 DUP5 PUSH2 0x46E5 JUMP JUMPDEST DUP2 SLOAD DUP2 LT PUSH2 0x9D7 JUMPI PUSH2 0x9D7 PUSH2 0x4891 JUMP JUMPDEST PUSH1 0x0 SWAP2 DUP3 MSTORE PUSH1 0x20 DUP3 KECCAK256 PUSH1 0xB SWAP2 SWAP1 SWAP2 MUL ADD PUSH1 0x4 ADD DUP1 SLOAD PUSH1 0x1 PUSH1 0x1 PUSH1 0xA0 SHL SUB NOT AND PUSH1 0x1 PUSH1 0x1 PUSH1 0xA0 SHL SUB SWAP4 SWAP1 SWAP4 AND SWAP3 SWAP1 SWAP3 OR SWAP1 SWAP2 SSTORE PUSH1 0xC PUSH2 0xA16 PUSH1 0x1 DUP5 PUSH2 0x46E5 JUMP JUMPDEST DUP2 SLOAD DUP2 LT PUSH2 0xA26 JUMPI PUSH2 0xA26 PUSH2 0x4891 JUMP JUMPDEST PUSH1 0x0 SWAP2 DUP3 MSTORE PUSH1 0x20 SWAP1 SWAP2 KECCAK256 PUSH1 0xB SWAP1 SWAP2 MUL ADD DUP1 SLOAD PUSH1 0xFF NOT AND SWAP2 ISZERO ISZERO SWAP2 SWAP1 SWAP2 OR SWAP1 SSTORE PUSH1 0x1 PUSH1 0xC PUSH2 0xA53 DUP3 DUP5 PUSH2 0x46E5 JUMP JUMPDEST DUP2 SLOAD DUP2 LT PUSH2 0xA63 JUMPI PUSH2 0xA63 PUSH2 0x4891 JUMP JUMPDEST SWAP1 PUSH1 0x0 MSTORE PUSH1 0x20 PUSH1 0x0 KECCAK256 SWAP1 PUSH1 0xB MUL ADD PUSH1 0x6 ADD DUP2 SWAP1 SSTORE POP PUSH1 0x40 MLOAD DUP1 PUSH1 0x40 ADD PUSH1 0x40 MSTORE DUP1 PUSH1 0x1 DUP2 MSTORE PUSH1 0x20 ADD PUSH1 0xB PUSH1 0xFB SHL DUP2 MSTORE POP PUSH1 0xC PUSH1 0x1 DUP4 PUSH2 0xAA1 SWAP2 SWAP1 PUSH2 0x46E5 JUMP JUMPDEST DUP2 SLOAD DUP2 LT PUSH2 0xAB1 JUMPI PUSH2 0xAB1 PUSH2 0x4891 JUMP JUMPDEST SWAP1 PUSH1 0x0 MSTORE PUSH1 0x20 PUSH1 0x0 KECCAK256 SWAP1 PUSH1 0xB MUL ADD PUSH1 0x1 ADD SWAP1 DUP2 PUSH2 0xACE SWAP2 SWAP1 PUSH2 0x47D1 JUMP JUMPDEST POP DUP6 PUSH1 0xC PUSH2 0xADD PUSH1 0x1 DUP5 PUSH2 0x46E5 JUMP JUMPDEST DUP2 SLOAD DUP2 LT PUSH2 0xAED JUMPI PUSH2 0xAED PUSH2 0x4891 JUMP JUMPDEST PUSH1 0x0 SWAP2 DUP3 MSTORE PUSH1 0x20 SWAP1 SWAP2 KECCAK256 PUSH1 0x8 PUSH1 0xB SWAP1 SWAP3 MUL ADD ADD SSTORE DUP3 PUSH1 0xC PUSH2 0xB0F PUSH1 0x1 DUP5 PUSH2 0x46E5 JUMP JUMPDEST DUP2 SLOAD DUP2 LT PUSH2 0xB1F JUMPI PUSH2 0xB1F PUSH2 0x4891 JUMP JUMPDEST SWAP1 PUSH1 0x0 MSTORE PUSH1 0x20 PUSH1 0x0 KECCAK256 SWAP1 PUSH1 0xB MUL ADD PUSH1 0xA ADD DUP2 SWAP1 SSTORE POP PUSH1 0x0 JUMPDEST PUSH1 0x9 DUP2 LT ISZERO PUSH2 0xBAF JUMPI PUSH1 0xC PUSH2 0xB4D PUSH1 0x1 DUP5 PUSH2 0x46E5 JUMP JUMPDEST DUP2 SLOAD DUP2 LT PUSH2 0xB5D JUMPI PUSH2 0xB5D PUSH2 0x4891 JUMP JUMPDEST PUSH1 0x0 SWAP2 DUP3 MSTORE PUSH1 0x20 DUP1 DUP4 KECCAK256 PUSH1 0x2 PUSH1 0xB SWAP1 SWAP4 MUL ADD SWAP2 SWAP1 SWAP2 ADD DUP1 SLOAD PUSH1 0x1 DUP2 ADD DUP3 SSTORE SWAP1 DUP4 MSTORE DUP2 DUP4 KECCAK256 PUSH1 0x40 DUP1 MLOAD SWAP4 DUP5 ADD SWAP1 MSTORE SWAP3 DUP3 MSTORE SWAP2 SWAP1 SWAP2 ADD SWAP1 PUSH2 0xB9C SWAP1 DUP3 PUSH2 0x47D1 JUMP JUMPDEST POP DUP1 PUSH2 0xBA7 DUP2 PUSH2 0x48A7 JUMP JUMPDEST SWAP2 POP POP PUSH2 0xB37 JUMP JUMPDEST POP PUSH32 0xBBBA82573073A1190D559566D39447B5E1AD7724B88B63BC98867D229A645B6B PUSH2 0xBDC PUSH1 0x1 DUP4 PUSH2 0x46E5 JUMP JUMPDEST PUSH1 0x40 MLOAD SWAP1 DUP2 MSTORE PUSH1 0x20 ADD PUSH1 0x40 MLOAD DUP1 SWAP2 SUB SWAP1 LOG1 POP POP PUSH1 0xB DUP1 SLOAD PUSH1 0xFF PUSH1 0xA0 SHL NOT AND SWAP1 SSTORE POP POP POP POP JUMP JUMPDEST PUSH1 0x60 PUSH1 0x3 DUP1 SLOAD PUSH2 0xC11 SWAP1 PUSH2 0x474C JUMP JUMPDEST DUP1 PUSH1 0x1F ADD PUSH1 0x20 DUP1 SWAP2 DIV MUL PUSH1 0x20 ADD PUSH1 0x40 MLOAD SWAP1 DUP2 ADD PUSH1 0x40 MSTORE DUP1 SWAP3 SWAP2 SWAP1 DUP2 DUP2 MSTORE PUSH1 0x20 ADD DUP3 DUP1 SLOAD PUSH2 0xC3D SWAP1 PUSH2 0x474C JUMP JUMPDEST DUP1 ISZERO PUSH2 0xC8A JUMPI DUP1 PUSH1 0x1F LT PUSH2 0xC5F JUMPI PUSH2 0x100 DUP1 DUP4 SLOAD DIV MUL DUP4 MSTORE SWAP2 PUSH1 0x20 ADD SWAP2 PUSH2 0xC8A JUMP JUMPDEST DUP3 ADD SWAP2 SWAP1 PUSH1 0x0 MSTORE PUSH1 0x20 PUSH1 0x0 KECCAK256 SWAP1 JUMPDEST DUP2 SLOAD DUP2 MSTORE SWAP1 PUSH1 0x1 ADD SWAP1 PUSH1 0x20 ADD DUP1 DUP4 GT PUSH2 0xC6D JUMPI DUP3 SWAP1 SUB PUSH1 0x1F AND DUP3 ADD SWAP2 JUMPDEST POP POP POP POP POP SWAP1 POP SWAP2 SWAP1 POP JUMP JUMPDEST PUSH1 0x60 PUSH1 0xC DUP3 DUP2 SLOAD DUP2 LT PUSH2 0xCAB JUMPI PUSH2 0xCAB PUSH2 0x4891 JUMP JUMPDEST SWAP1 PUSH1 0x0 MSTORE PUSH1 0x20 PUSH1 0x0 KECCAK256 SWAP1 PUSH1 0xB MUL ADD PUSH1 0x3 ADD DUP1 SLOAD DUP1 PUSH1 0x20 MUL PUSH1 0x20 ADD PUSH1 0x40 MLOAD SWAP1 DUP2 ADD PUSH1 0x40 MSTORE DUP1 SWAP3 SWAP2 SWAP1 DUP2 DUP2 MSTORE PUSH1 0x20 ADD DUP3 DUP1 SLOAD DUP1 ISZERO PUSH2 0xC8A JUMPI PUSH1 0x20 MUL DUP3 ADD SWAP2 SWAP1 PUSH1 0x0 MSTORE PUSH1 0x20 PUSH1 0x0 KECCAK256 SWAP1 JUMPDEST DUP2 SLOAD DUP2 MSTORE PUSH1 0x20 ADD SWAP1 PUSH1 0x1 ADD SWAP1 DUP1 DUP4 GT PUSH2 0xCF2 JUMPI POP POP POP POP POP SWAP1 POP SWAP2 SWAP1 POP JUMP JUMPDEST DUP2 MLOAD DUP4 MLOAD EQ PUSH2 0xD73 JUMPI PUSH1 0x40 MLOAD PUSH3 0x461BCD PUSH1 0xE5 SHL DUP2 MSTORE PUSH1 0x20 PUSH1 0x4 DUP3 ADD MSTORE PUSH1 0x28 PUSH1 0x24 DUP3 ADD MSTORE PUSH32 0x455243313135353A2069647320616E6420616D6F756E7473206C656E67746820 PUSH1 0x44 DUP3 ADD MSTORE PUSH8 0xDAD2E6DAC2E8C6D PUSH1 0xC3 SHL PUSH1 0x64 DUP3 ADD MSTORE PUSH1 0x84 ADD PUSH2 0x502 JUMP JUMPDEST PUSH1 0x1 PUSH1 0x1 PUSH1 0xA0 SHL SUB DUP5 AND PUSH2 0xD99 JUMPI PUSH1 0x40 MLOAD PUSH3 0x461BCD PUSH1 0xE5 SHL DUP2 MSTORE PUSH1 0x4 ADD PUSH2 0x502 SWAP1 PUSH2 0x48C0 JUMP JUMPDEST PUSH1 0x1 PUSH1 0x1 PUSH1 0xA0 SHL SUB DUP6 AND CALLER EQ DUP1 PUSH2 0xDB5 JUMPI POP PUSH2 0xDB5 DUP6 CALLER PUSH2 0x43F JUMP JUMPDEST PUSH2 0xE1C JUMPI PUSH1 0x40 MLOAD PUSH3 0x461BCD PUSH1 0xE5 SHL DUP2 MSTORE PUSH1 0x20 PUSH1 0x4 DUP3 ADD MSTORE PUSH1 0x32 PUSH1 0x24 DUP3 ADD MSTORE PUSH32 0x455243313135353A207472616E736665722063616C6C6572206973206E6F7420 PUSH1 0x44 DUP3 ADD MSTORE PUSH18 0x1BDDDB995C881B9BDC88185C1C1C9BDD9959 PUSH1 0x72 SHL PUSH1 0x64 DUP3 ADD MSTORE PUSH1 0x84 ADD PUSH2 0x502 JUMP JUMPDEST CALLER PUSH1 0x0 JUMPDEST DUP5 MLOAD DUP2 LT ISZERO PUSH2 0xF37 JUMPI PUSH1 0x0 DUP6 DUP3 DUP2 MLOAD DUP2 LT PUSH2 0xE3D JUMPI PUSH2 0xE3D PUSH2 0x4891 JUMP JUMPDEST PUSH1 0x20 MUL PUSH1 0x20 ADD ADD MLOAD SWAP1 POP PUSH1 0x0 DUP6 DUP4 DUP2 MLOAD DUP2 LT PUSH2 0xE5B JUMPI PUSH2 0xE5B PUSH2 0x4891 JUMP JUMPDEST PUSH1 0x20 MUL PUSH1 0x20 ADD ADD MLOAD SWAP1 POP PUSH2 0xEC8 DUP2 PUSH1 0x40 MLOAD DUP1 PUSH1 0x60 ADD PUSH1 0x40 MSTORE DUP1 PUSH1 0x2A DUP2 MSTORE PUSH1 0x20 ADD PUSH2 0x4DE4 PUSH1 0x2A SWAP2 CODECOPY PUSH1 0x1 PUSH1 0x0 DUP7 DUP2 MSTORE PUSH1 0x20 ADD SWAP1 DUP2 MSTORE PUSH1 0x20 ADD PUSH1 0x0 KECCAK256 PUSH1 0x0 DUP14 PUSH1 0x1 PUSH1 0x1 PUSH1 0xA0 SHL SUB AND PUSH1 0x1 PUSH1 0x1 PUSH1 0xA0 SHL SUB AND DUP2 MSTORE PUSH1 0x20 ADD SWAP1 DUP2 MSTORE PUSH1 0x20 ADD PUSH1 0x0 KECCAK256 SLOAD PUSH2 0x2D25 SWAP1 SWAP3 SWAP2 SWAP1 PUSH4 0xFFFFFFFF AND JUMP JUMPDEST PUSH1 0x0 DUP4 DUP2 MSTORE PUSH1 0x1 PUSH1 0x20 SWAP1 DUP2 MSTORE PUSH1 0x40 DUP1 DUP4 KECCAK256 PUSH1 0x1 PUSH1 0x1 PUSH1 0xA0 SHL SUB DUP15 DUP2 AND DUP6 MSTORE SWAP3 MSTORE DUP1 DUP4 KECCAK256 SWAP4 SWAP1 SWAP4 SSTORE DUP11 AND DUP2 MSTORE KECCAK256 SLOAD PUSH2 0xEFF SWAP1 DUP3 PUSH2 0x2D5C JUMP JUMPDEST PUSH1 0x0 SWAP3 DUP4 MSTORE PUSH1 0x1 PUSH1 0x20 SWAP1 DUP2 MSTORE PUSH1 0x40 DUP1 DUP6 KECCAK256 PUSH1 0x1 PUSH1 0x1 PUSH1 0xA0 SHL SUB DUP13 AND DUP7 MSTORE SWAP1 SWAP2 MSTORE SWAP1 SWAP3 KECCAK256 SWAP2 SWAP1 SWAP2 SSTORE POP PUSH2 0xF30 DUP2 PUSH2 0x48A7 JUMP JUMPDEST SWAP1 POP PUSH2 0xE20 JUMP JUMPDEST POP DUP5 PUSH1 0x1 PUSH1 0x1 PUSH1 0xA0 SHL SUB AND DUP7 PUSH1 0x1 PUSH1 0x1 PUSH1 0xA0 SHL SUB AND DUP3 PUSH1 0x1 PUSH1 0x1 PUSH1 0xA0 SHL SUB AND PUSH32 0x4A39DC06D4C0DBC64B70AF90FD698A233A518AA5D07E595D983B8C0526C8F7FB DUP8 DUP8 PUSH1 0x40 MLOAD PUSH2 0xF87 SWAP3 SWAP2 SWAP1 PUSH2 0x4905 JUMP JUMPDEST PUSH1 0x40 MLOAD DUP1 SWAP2 SUB SWAP1 LOG4 PUSH2 0xF9D DUP2 DUP8 DUP8 DUP8 DUP8 DUP8 PUSH2 0x2DC2 JUMP JUMPDEST POP POP POP POP POP POP JUMP JUMPDEST PUSH2 0xFAE DUP2 PUSH2 0x2F26 JUMP JUMPDEST PUSH2 0xFFA JUMPI PUSH1 0x40 MLOAD PUSH3 0x461BCD PUSH1 0xE5 SHL DUP2 MSTORE PUSH1 0x20 PUSH1 0x4 DUP3 ADD MSTORE PUSH1 0x1C PUSH1 0x24 DUP3 ADD MSTORE PUSH32 0x796F7520617265206E6F7420746869732067616D6520706C6179657200000000 PUSH1 0x44 DUP3 ADD MSTORE PUSH1 0x64 ADD PUSH2 0x502 JUMP JUMPDEST PUSH1 0xC DUP2 DUP2 SLOAD DUP2 LT PUSH2 0x100D JUMPI PUSH2 0x100D PUSH2 0x4891 JUMP JUMPDEST PUSH1 0x0 SWAP2 DUP3 MSTORE PUSH1 0x20 SWAP1 SWAP2 KECCAK256 PUSH1 0xB SWAP1 SWAP2 MUL ADD SLOAD PUSH1 0xFF AND ISZERO PUSH2 0x1063 JUMPI PUSH1 0x40 MLOAD PUSH3 0x461BCD PUSH1 0xE5 SHL DUP2 MSTORE PUSH1 0x20 PUSH1 0x4 DUP3 ADD MSTORE PUSH1 0x12 PUSH1 0x24 DUP3 ADD MSTORE PUSH18 0x47616D65207374696C6C20706C6179696E67 PUSH1 0x70 SHL PUSH1 0x44 DUP3 ADD MSTORE PUSH1 0x64 ADD PUSH2 0x502 JUMP JUMPDEST PUSH2 0x106C DUP2 PUSH2 0x1300 JUMP JUMPDEST POP JUMP JUMPDEST PUSH1 0x60 PUSH1 0xC DUP1 SLOAD DUP1 PUSH1 0x20 MUL PUSH1 0x20 ADD PUSH1 0x40 MLOAD SWAP1 DUP2 ADD PUSH1 0x40 MSTORE DUP1 SWAP3 SWAP2 SWAP1 DUP2 DUP2 MSTORE PUSH1 0x20 ADD PUSH1 0x0 SWAP1 JUMPDEST DUP3 DUP3 LT ISZERO PUSH2 0x12F7 JUMPI PUSH1 0x0 DUP5 DUP2 MSTORE PUSH1 0x20 SWAP1 DUP2 SWAP1 KECCAK256 PUSH1 0x40 DUP1 MLOAD PUSH2 0x160 DUP2 ADD SWAP1 SWAP2 MSTORE PUSH1 0xB DUP6 MUL SWAP1 SWAP2 ADD DUP1 SLOAD PUSH1 0xFF AND ISZERO ISZERO DUP3 MSTORE PUSH1 0x1 DUP2 ADD DUP1 SLOAD SWAP3 SWAP4 SWAP2 SWAP3 SWAP2 DUP5 ADD SWAP2 PUSH2 0x10D9 SWAP1 PUSH2 0x474C JUMP JUMPDEST DUP1 PUSH1 0x1F ADD PUSH1 0x20 DUP1 SWAP2 DIV MUL PUSH1 0x20 ADD PUSH1 0x40 MLOAD SWAP1 DUP2 ADD PUSH1 0x40 MSTORE DUP1 SWAP3 SWAP2 SWAP1 DUP2 DUP2 MSTORE PUSH1 0x20 ADD DUP3 DUP1 SLOAD PUSH2 0x1105 SWAP1 PUSH2 0x474C JUMP JUMPDEST DUP1 ISZERO PUSH2 0x1152 JUMPI DUP1 PUSH1 0x1F LT PUSH2 0x1127 JUMPI PUSH2 0x100 DUP1 DUP4 SLOAD DIV MUL DUP4 MSTORE SWAP2 PUSH1 0x20 ADD SWAP2 PUSH2 0x1152 JUMP JUMPDEST DUP3 ADD SWAP2 SWAP1 PUSH1 0x0 MSTORE PUSH1 0x20 PUSH1 0x0 KECCAK256 SWAP1 JUMPDEST DUP2 SLOAD DUP2 MSTORE SWAP1 PUSH1 0x1 ADD SWAP1 PUSH1 0x20 ADD DUP1 DUP4 GT PUSH2 0x1135 JUMPI DUP3 SWAP1 SUB PUSH1 0x1F AND DUP3 ADD SWAP2 JUMPDEST POP POP POP POP POP DUP2 MSTORE PUSH1 0x20 ADD PUSH1 0x2 DUP3 ADD DUP1 SLOAD DUP1 PUSH1 0x20 MUL PUSH1 0x20 ADD PUSH1 0x40 MLOAD SWAP1 DUP2 ADD PUSH1 0x40 MSTORE DUP1 SWAP3 SWAP2 SWAP1 DUP2 DUP2 MSTORE PUSH1 0x20 ADD PUSH1 0x0 SWAP1 JUMPDEST DUP3 DUP3 LT ISZERO PUSH2 0x122C JUMPI DUP4 DUP3 SWAP1 PUSH1 0x0 MSTORE PUSH1 0x20 PUSH1 0x0 KECCAK256 ADD DUP1 SLOAD PUSH2 0x119F SWAP1 PUSH2 0x474C JUMP JUMPDEST DUP1 PUSH1 0x1F ADD PUSH1 0x20 DUP1 SWAP2 DIV MUL PUSH1 0x20 ADD PUSH1 0x40 MLOAD SWAP1 DUP2 ADD PUSH1 0x40 MSTORE DUP1 SWAP3 SWAP2 SWAP1 DUP2 DUP2 MSTORE PUSH1 0x20 ADD DUP3 DUP1 SLOAD PUSH2 0x11CB SWAP1 PUSH2 0x474C JUMP JUMPDEST DUP1 ISZERO PUSH2 0x1218 JUMPI DUP1 PUSH1 0x1F LT PUSH2 0x11ED JUMPI PUSH2 0x100 DUP1 DUP4 SLOAD DIV MUL DUP4 MSTORE SWAP2 PUSH1 0x20 ADD SWAP2 PUSH2 0x1218 JUMP JUMPDEST DUP3 ADD SWAP2 SWAP1 PUSH1 0x0 MSTORE PUSH1 0x20 PUSH1 0x0 KECCAK256 SWAP1 JUMPDEST DUP2 SLOAD DUP2 MSTORE SWAP1 PUSH1 0x1 ADD SWAP1 PUSH1 0x20 ADD DUP1 DUP4 GT PUSH2 0x11FB JUMPI DUP3 SWAP1 SUB PUSH1 0x1F AND DUP3 ADD SWAP2 JUMPDEST POP POP POP POP POP DUP2 MSTORE PUSH1 0x20 ADD SWAP1 PUSH1 0x1 ADD SWAP1 PUSH2 0x1180 JUMP JUMPDEST POP POP POP POP DUP2 MSTORE PUSH1 0x20 ADD PUSH1 0x3 DUP3 ADD DUP1 SLOAD DUP1 PUSH1 0x20 MUL PUSH1 0x20 ADD PUSH1 0x40 MLOAD SWAP1 DUP2 ADD PUSH1 0x40 MSTORE DUP1 SWAP3 SWAP2 SWAP1 DUP2 DUP2 MSTORE PUSH1 0x20 ADD DUP3 DUP1 SLOAD DUP1 ISZERO PUSH2 0x1283 JUMPI PUSH1 0x20 MUL DUP3 ADD SWAP2 SWAP1 PUSH1 0x0 MSTORE PUSH1 0x20 PUSH1 0x0 KECCAK256 SWAP1 JUMPDEST DUP2 SLOAD DUP2 MSTORE PUSH1 0x20 ADD SWAP1 PUSH1 0x1 ADD SWAP1 DUP1 DUP4 GT PUSH2 0x126F JUMPI JUMPDEST POP POP POP SWAP2 DUP4 MSTORE POP POP PUSH1 0x4 DUP3 ADD SLOAD PUSH1 0x1 PUSH1 0x1 PUSH1 0xA0 SHL SUB SWAP1 DUP2 AND PUSH1 0x20 DUP1 DUP5 ADD SWAP2 SWAP1 SWAP2 MSTORE PUSH1 0x5 DUP5 ADD SLOAD DUP3 AND PUSH1 0x40 DUP5 ADD MSTORE PUSH1 0x6 DUP5 ADD SLOAD PUSH1 0x60 DUP5 ADD MSTORE PUSH1 0x7 DUP5 ADD SLOAD SWAP1 SWAP2 AND PUSH1 0x80 DUP4 ADD MSTORE PUSH1 0x8 DUP4 ADD SLOAD PUSH1 0xA0 DUP4 ADD MSTORE PUSH1 0x9 DUP4 ADD SLOAD PUSH1 0xC0 DUP4 ADD MSTORE PUSH1 0xA SWAP1 SWAP3 ADD SLOAD PUSH1 0xE0 SWAP1 SWAP2 ADD MSTORE SWAP1 DUP3 MSTORE PUSH1 0x1 SWAP3 SWAP1 SWAP3 ADD SWAP2 ADD PUSH2 0x1093 JUMP JUMPDEST POP POP POP POP SWAP1 POP SWAP1 JUMP JUMPDEST PUSH1 0x40 MLOAD DUP1 PUSH1 0x40 ADD PUSH1 0x40 MSTORE DUP1 PUSH1 0x1 DUP2 MSTORE PUSH1 0x20 ADD PUSH1 0xB PUSH1 0xFB SHL DUP2 MSTORE POP PUSH1 0xC DUP3 DUP2 SLOAD DUP2 LT PUSH2 0x132D JUMPI PUSH2 0x132D PUSH2 0x4891 JUMP JUMPDEST SWAP1 PUSH1 0x0 MSTORE PUSH1 0x20 PUSH1 0x0 KECCAK256 SWAP1 PUSH1 0xB MUL ADD PUSH1 0x1 ADD SWAP1 DUP2 PUSH2 0x134A SWAP2 SWAP1 PUSH2 0x47D1 JUMP JUMPDEST POP PUSH1 0x40 DUP1 MLOAD PUSH2 0x140 DUP2 ADD DUP3 MSTORE PUSH1 0x0 PUSH2 0x120 DUP3 ADD DUP2 DUP2 MSTORE DUP3 MSTORE DUP3 MLOAD PUSH1 0x20 DUP2 DUP2 ADD DUP6 MSTORE DUP3 DUP3 MSTORE DUP1 DUP5 ADD SWAP2 SWAP1 SWAP2 MSTORE DUP4 MLOAD DUP1 DUP3 ADD DUP6 MSTORE DUP3 DUP2 MSTORE DUP4 DUP6 ADD MSTORE DUP4 MLOAD DUP1 DUP3 ADD DUP6 MSTORE DUP3 DUP2 MSTORE PUSH1 0x60 DUP5 ADD MSTORE DUP4 MLOAD DUP1 DUP3 ADD DUP6 MSTORE DUP3 DUP2 MSTORE PUSH1 0x80 DUP5 ADD MSTORE DUP4 MLOAD DUP1 DUP3 ADD DUP6 MSTORE DUP3 DUP2 MSTORE PUSH1 0xA0 DUP5 ADD MSTORE DUP4 MLOAD DUP1 DUP3 ADD DUP6 MSTORE DUP3 DUP2 MSTORE PUSH1 0xC0 DUP5 ADD MSTORE DUP4 MLOAD DUP1 DUP3 ADD DUP6 MSTORE DUP3 DUP2 MSTORE PUSH1 0xE0 DUP5 ADD MSTORE DUP4 MLOAD SWAP1 DUP2 ADD SWAP1 SWAP4 MSTORE DUP3 MSTORE PUSH2 0x100 DUP2 ADD SWAP2 SWAP1 SWAP2 MSTORE PUSH1 0xC DUP1 SLOAD DUP4 SWAP1 DUP2 LT PUSH2 0x13F5 JUMPI PUSH2 0x13F5 PUSH2 0x4891 JUMP JUMPDEST SWAP1 PUSH1 0x0 MSTORE PUSH1 0x20 PUSH1 0x0 KECCAK256 SWAP1 PUSH1 0xB MUL ADD PUSH1 0x2 ADD SWAP1 PUSH1 0x9 PUSH2 0x1414 SWAP3 SWAP2 SWAP1 PUSH2 0x3E52 JUMP JUMPDEST POP PUSH1 0x1 PUSH1 0xC DUP3 DUP2 SLOAD DUP2 LT PUSH2 0x142A JUMPI PUSH2 0x142A PUSH2 0x4891 JUMP JUMPDEST PUSH1 0x0 SWAP2 DUP3 MSTORE PUSH1 0x20 SWAP2 DUP3 SWAP1 KECCAK256 PUSH1 0xB SWAP1 SWAP2 MUL ADD DUP1 SLOAD PUSH1 0xFF NOT AND SWAP3 ISZERO ISZERO SWAP3 SWAP1 SWAP3 OR SWAP1 SWAP2 SSTORE PUSH1 0x40 MLOAD DUP3 DUP2 MSTORE PUSH32 0xC5478E3FE602C65E5CDD37ABE42A8E007FF762D266B9E8256769194C1FA1361E SWAP2 ADD JUMPDEST PUSH1 0x40 MLOAD DUP1 SWAP2 SUB SWAP1 LOG1 POP JUMP JUMPDEST PUSH1 0x60 DUP2 MLOAD DUP4 MLOAD EQ PUSH2 0x14E5 JUMPI PUSH1 0x40 MLOAD PUSH3 0x461BCD PUSH1 0xE5 SHL DUP2 MSTORE PUSH1 0x20 PUSH1 0x4 DUP3 ADD MSTORE PUSH1 0x29 PUSH1 0x24 DUP3 ADD MSTORE PUSH32 0x455243313135353A206163636F756E747320616E6420696473206C656E677468 PUSH1 0x44 DUP3 ADD MSTORE PUSH9 0x40DAD2E6DAC2E8C6D PUSH1 0xBB SHL PUSH1 0x64 DUP3 ADD MSTORE PUSH1 0x84 ADD PUSH2 0x502 JUMP JUMPDEST PUSH1 0x0 DUP4 MLOAD PUSH8 0xFFFFFFFFFFFFFFFF DUP2 GT ISZERO PUSH2 0x1501 JUMPI PUSH2 0x1501 PUSH2 0x4047 JUMP JUMPDEST PUSH1 0x40 MLOAD SWAP1 DUP1 DUP3 MSTORE DUP1 PUSH1 0x20 MUL PUSH1 0x20 ADD DUP3 ADD PUSH1 0x40 MSTORE DUP1 ISZERO PUSH2 0x152A JUMPI DUP2 PUSH1 0x20 ADD PUSH1 0x20 DUP3 MUL DUP1 CALLDATASIZE DUP4 CALLDATACOPY ADD SWAP1 POP JUMPDEST POP SWAP1 POP PUSH1 0x0 JUMPDEST DUP5 MLOAD DUP2 LT ISZERO PUSH2 0x15A2 JUMPI PUSH2 0x1575 DUP6 DUP3 DUP2 MLOAD DUP2 LT PUSH2 0x154E JUMPI PUSH2 0x154E PUSH2 0x4891 JUMP JUMPDEST PUSH1 0x20 MUL PUSH1 0x20 ADD ADD MLOAD DUP6 DUP4 DUP2 MLOAD DUP2 LT PUSH2 0x1568 JUMPI PUSH2 0x1568 PUSH2 0x4891 JUMP JUMPDEST PUSH1 0x20 MUL PUSH1 0x20 ADD ADD MLOAD PUSH2 0x49A JUMP JUMPDEST DUP3 DUP3 DUP2 MLOAD DUP2 LT PUSH2 0x1587 JUMPI PUSH2 0x1587 PUSH2 0x4891 JUMP JUMPDEST PUSH1 0x20 SWAP1 DUP2 MUL SWAP2 SWAP1 SWAP2 ADD ADD MSTORE PUSH2 0x159B DUP2 PUSH2 0x48A7 JUMP JUMPDEST SWAP1 POP PUSH2 0x1530 JUMP JUMPDEST POP SWAP4 SWAP3 POP POP POP JUMP JUMPDEST PUSH1 0xC DUP2 DUP2 SLOAD DUP2 LT PUSH2 0x15BD JUMPI PUSH2 0x15BD PUSH2 0x4891 JUMP JUMPDEST PUSH1 0x0 SWAP2 DUP3 MSTORE PUSH1 0x20 SWAP1 SWAP2 KECCAK256 PUSH1 0xB SWAP1 SWAP2 MUL ADD SLOAD PUSH1 0xFF AND PUSH2 0x161D JUMPI PUSH1 0x40 MLOAD PUSH3 0x461BCD PUSH1 0xE5 SHL DUP2 MSTORE PUSH1 0x20 PUSH1 0x4 DUP3 ADD MSTORE PUSH1 0x1C PUSH1 0x24 DUP3 ADD MSTORE PUSH32 0x5468652067616D65207374696C6C206E6F742073746172742079657400000000 PUSH1 0x44 DUP3 ADD MSTORE PUSH1 0x64 ADD PUSH2 0x502 JUMP JUMPDEST PUSH2 0x16FD PUSH1 0xC DUP3 DUP2 SLOAD DUP2 LT PUSH2 0x1633 JUMPI PUSH2 0x1633 PUSH2 0x4891 JUMP JUMPDEST SWAP1 PUSH1 0x0 MSTORE PUSH1 0x20 PUSH1 0x0 KECCAK256 SWAP1 PUSH1 0xB MUL ADD PUSH1 0x2 ADD DUP4 DUP2 SLOAD DUP2 LT PUSH2 0x1655 JUMPI PUSH2 0x1655 PUSH2 0x4891 JUMP JUMPDEST SWAP1 PUSH1 0x0 MSTORE PUSH1 0x20 PUSH1 0x0 KECCAK256 ADD DUP1 SLOAD PUSH2 0x166A SWAP1 PUSH2 0x474C JUMP JUMPDEST DUP1 PUSH1 0x1F ADD PUSH1 0x20 DUP1 SWAP2 DIV MUL PUSH1 0x20 ADD PUSH1 0x40 MLOAD SWAP1 DUP2 ADD PUSH1 0x40 MSTORE DUP1 SWAP3 SWAP2 SWAP1 DUP2 DUP2 MSTORE PUSH1 0x20 ADD DUP3 DUP1 SLOAD PUSH2 0x1696 SWAP1 PUSH2 0x474C JUMP JUMPDEST DUP1 ISZERO PUSH2 0x16E3 JUMPI DUP1 PUSH1 0x1F LT PUSH2 0x16B8 JUMPI PUSH2 0x100 DUP1 DUP4 SLOAD DIV MUL DUP4 MSTORE SWAP2 PUSH1 0x20 ADD SWAP2 PUSH2 0x16E3 JUMP JUMPDEST DUP3 ADD SWAP2 SWAP1 PUSH1 0x0 MSTORE PUSH1 0x20 PUSH1 0x0 KECCAK256 SWAP1 JUMPDEST DUP2 SLOAD DUP2 MSTORE SWAP1 PUSH1 0x1 ADD SWAP1 PUSH1 0x20 ADD DUP1 DUP4 GT PUSH2 0x16C6 JUMPI DUP3 SWAP1 SUB PUSH1 0x1F AND DUP3 ADD SWAP2 JUMPDEST POP POP POP POP POP PUSH1 0x40 MLOAD DUP1 PUSH1 0x20 ADD PUSH1 0x40 MSTORE DUP1 PUSH1 0x0 DUP2 MSTORE POP PUSH2 0x2954 JUMP JUMPDEST PUSH2 0x1739 JUMPI PUSH1 0x40 MLOAD PUSH3 0x461BCD PUSH1 0xE5 SHL DUP2 MSTORE PUSH1 0x20 PUSH1 0x4 DUP3 ADD MSTORE PUSH1 0xD PUSH1 0x24 DUP3 ADD MSTORE PUSH13 0x125B9D985B1A59081A5B9C1D5D PUSH1 0x9A SHL PUSH1 0x44 DUP3 ADD MSTORE PUSH1 0x64 ADD PUSH2 0x502 JUMP JUMPDEST PUSH2 0x1808 PUSH1 0xC DUP3 DUP2 SLOAD DUP2 LT PUSH2 0x174F JUMPI PUSH2 0x174F PUSH2 0x4891 JUMP JUMPDEST SWAP1 PUSH1 0x0 MSTORE PUSH1 0x20 PUSH1 0x0 KECCAK256 SWAP1 PUSH1 0xB MUL ADD PUSH1 0x1 ADD DUP1 SLOAD PUSH2 0x176B SWAP1 PUSH2 0x474C JUMP JUMPDEST DUP1 PUSH1 0x1F ADD PUSH1 0x20 DUP1 SWAP2 DIV MUL PUSH1 0x20 ADD PUSH1 0x40 MLOAD SWAP1 DUP2 ADD PUSH1 0x40 MSTORE DUP1 SWAP3 SWAP2 SWAP1 DUP2 DUP2 MSTORE PUSH1 0x20 ADD DUP3 DUP1 SLOAD PUSH2 0x1797 SWAP1 PUSH2 0x474C JUMP JUMPDEST DUP1 ISZERO PUSH2 0x17E4 JUMPI DUP1 PUSH1 0x1F LT PUSH2 0x17B9 JUMPI PUSH2 0x100 DUP1 DUP4 SLOAD DIV MUL DUP4 MSTORE SWAP2 PUSH1 0x20 ADD SWAP2 PUSH2 0x17E4 JUMP JUMPDEST DUP3 ADD SWAP2 SWAP1 PUSH1 0x0 MSTORE PUSH1 0x20 PUSH1 0x0 KECCAK256 SWAP1 JUMPDEST DUP2 SLOAD DUP2 MSTORE SWAP1 PUSH1 0x1 ADD SWAP1 PUSH1 0x20 ADD DUP1 DUP4 GT PUSH2 0x17C7 JUMPI DUP3 SWAP1 SUB PUSH1 0x1F AND DUP3 ADD SWAP2 JUMPDEST POP POP POP POP POP PUSH1 0x40 MLOAD DUP1 PUSH1 0x40 ADD PUSH1 0x40 MSTORE DUP1 PUSH1 0x1 DUP2 MSTORE PUSH1 0x20 ADD PUSH1 0xB PUSH1 0xFB SHL DUP2 MSTORE POP PUSH2 0x2954 JUMP JUMPDEST ISZERO PUSH2 0x1887 JUMPI PUSH1 0xC DUP2 DUP2 SLOAD DUP2 LT PUSH2 0x1820 JUMPI PUSH2 0x1820 PUSH2 0x4891 JUMP JUMPDEST PUSH1 0x0 SWAP2 DUP3 MSTORE PUSH1 0x20 SWAP1 SWAP2 KECCAK256 PUSH1 0xB SWAP1 SWAP2 MUL ADD PUSH1 0x4 ADD SLOAD PUSH1 0x1 PUSH1 0x1 PUSH1 0xA0 SHL SUB AND CALLER EQ PUSH2 0x1882 JUMPI PUSH1 0x40 MLOAD PUSH3 0x461BCD PUSH1 0xE5 SHL DUP2 MSTORE PUSH1 0x20 PUSH1 0x4 DUP3 ADD MSTORE PUSH1 0x14 PUSH1 0x24 DUP3 ADD MSTORE PUSH20 0x596F7520617265206E6F7420706C617965722031 PUSH1 0x60 SHL PUSH1 0x44 DUP3 ADD MSTORE PUSH1 0x64 ADD PUSH2 0x502 JUMP JUMPDEST PUSH2 0x18FC JUMP JUMPDEST PUSH1 0xC DUP2 DUP2 SLOAD DUP2 LT PUSH2 0x189A JUMPI PUSH2 0x189A PUSH2 0x4891 JUMP JUMPDEST PUSH1 0x0 SWAP2 DUP3 MSTORE PUSH1 0x20 SWAP1 SWAP2 KECCAK256 PUSH1 0xB SWAP1 SWAP2 MUL ADD PUSH1 0x5 ADD SLOAD PUSH1 0x1 PUSH1 0x1 PUSH1 0xA0 SHL SUB AND CALLER EQ PUSH2 0x18FC JUMPI PUSH1 0x40 MLOAD PUSH3 0x461BCD PUSH1 0xE5 SHL DUP2 MSTORE PUSH1 0x20 PUSH1 0x4 DUP3 ADD MSTORE PUSH1 0x14 PUSH1 0x24 DUP3 ADD MSTORE PUSH20 0x2CB7BA9030B932903737BA10383630BCB2B91019 PUSH1 0x61 SHL PUSH1 0x44 DUP3 ADD MSTORE PUSH1 0x64 ADD PUSH2 0x502 JUMP JUMPDEST PUSH1 0xC DUP2 DUP2 SLOAD DUP2 LT PUSH2 0x190F JUMPI PUSH2 0x190F PUSH2 0x4891 JUMP JUMPDEST SWAP1 PUSH1 0x0 MSTORE PUSH1 0x20 PUSH1 0x0 KECCAK256 SWAP1 PUSH1 0xB MUL ADD PUSH1 0x1 ADD PUSH1 0xC DUP3 DUP2 SLOAD DUP2 LT PUSH2 0x1933 JUMPI PUSH2 0x1933 PUSH2 0x4891 JUMP JUMPDEST SWAP1 PUSH1 0x0 MSTORE PUSH1 0x20 PUSH1 0x0 KECCAK256 SWAP1 PUSH1 0xB MUL ADD PUSH1 0x2 ADD DUP4 DUP2 SLOAD DUP2 LT PUSH2 0x1955 JUMPI PUSH2 0x1955 PUSH2 0x4891 JUMP JUMPDEST SWAP1 PUSH1 0x0 MSTORE PUSH1 0x20 PUSH1 0x0 KECCAK256 ADD SWAP1 DUP2 PUSH2 0x196B SWAP2 SWAP1 PUSH2 0x4933 JUMP JUMPDEST POP PUSH32 0x9659242F3970136BF08CBA261398AE9F0BC58A676137D79D3C2040DCDACBC18B PUSH1 0xC DUP3 DUP2 SLOAD DUP2 LT PUSH2 0x19A0 JUMPI PUSH2 0x19A0 PUSH2 0x4891 JUMP JUMPDEST SWAP1 PUSH1 0x0 MSTORE PUSH1 0x20 PUSH1 0x0 KECCAK256 SWAP1 PUSH1 0xB MUL ADD PUSH1 0x2 ADD DUP3 PUSH1 0x40 MLOAD PUSH2 0x19C0 SWAP3 SWAP2 SWAP1 PUSH2 0x4ACF JUMP JUMPDEST PUSH1 0x40 MLOAD DUP1 SWAP2 SUB SWAP1 LOG1 PUSH2 0x19D1 DUP2 PUSH2 0x2FA6 JUMP JUMPDEST POP POP JUMP JUMPDEST PUSH1 0xC DUP2 DUP2 SLOAD DUP2 LT PUSH2 0x19E5 JUMPI PUSH1 0x0 DUP1 REVERT JUMPDEST PUSH1 0x0 SWAP2 DUP3 MSTORE PUSH1 0x20 SWAP1 SWAP2 KECCAK256 PUSH1 0xB SWAP1 SWAP2 MUL ADD DUP1 SLOAD PUSH1 0x1 DUP3 ADD DUP1 SLOAD PUSH1 0xFF SWAP1 SWAP3 AND SWAP4 POP SWAP1 PUSH2 0x1A0E SWAP1 PUSH2 0x474C JUMP JUMPDEST DUP1 PUSH1 0x1F ADD PUSH1 0x20 DUP1 SWAP2 DIV MUL PUSH1 0x20 ADD PUSH1 0x40 MLOAD SWAP1 DUP2 ADD PUSH1 0x40 MSTORE DUP1 SWAP3 SWAP2 SWAP1 DUP2 DUP2 MSTORE PUSH1 0x20 ADD DUP3 DUP1 SLOAD PUSH2 0x1A3A SWAP1 PUSH2 0x474C JUMP JUMPDEST DUP1 ISZERO PUSH2 0x1A87 JUMPI DUP1 PUSH1 0x1F LT PUSH2 0x1A5C JUMPI PUSH2 0x100 DUP1 DUP4 SLOAD DIV MUL DUP4 MSTORE SWAP2 PUSH1 0x20 ADD SWAP2 PUSH2 0x1A87 JUMP JUMPDEST DUP3 ADD SWAP2 SWAP1 PUSH1 0x0 MSTORE PUSH1 0x20 PUSH1 0x0 KECCAK256 SWAP1 JUMPDEST DUP2 SLOAD DUP2 MSTORE SWAP1 PUSH1 0x1 ADD SWAP1 PUSH1 0x20 ADD DUP1 DUP4 GT PUSH2 0x1A6A JUMPI DUP3 SWAP1 SUB PUSH1 0x1F AND DUP3 ADD SWAP2 JUMPDEST POP POP POP PUSH1 0x4 DUP5 ADD SLOAD PUSH1 0x5 DUP6 ADD SLOAD PUSH1 0x6 DUP7 ADD SLOAD PUSH1 0x7 DUP8 ADD SLOAD PUSH1 0x8 DUP9 ADD SLOAD PUSH1 0x9 DUP10 ADD SLOAD PUSH1 0xA SWAP1 SWAP10 ADD SLOAD SWAP8 SWAP9 PUSH1 0x1 PUSH1 0x1 PUSH1 0xA0 SHL SUB SWAP6 DUP7 AND SWAP9 SWAP5 DUP7 AND SWAP8 POP SWAP3 SWAP6 POP SWAP4 AND SWAP3 SWAP2 DUP10 JUMP JUMPDEST PUSH1 0xB SLOAD PUSH1 0x1 PUSH1 0x1 PUSH1 0xA0 SHL SUB AND CALLER EQ PUSH2 0x1B15 JUMPI PUSH1 0x40 MLOAD PUSH3 0x461BCD PUSH1 0xE5 SHL DUP2 MSTORE PUSH1 0x20 PUSH1 0x4 DUP3 ADD MSTORE PUSH1 0xD PUSH1 0x24 DUP3 ADD MSTORE PUSH13 0x2737BA103A34329037BBB732B9 PUSH1 0x99 SHL PUSH1 0x44 DUP3 ADD MSTORE PUSH1 0x64 ADD PUSH2 0x502 JUMP JUMPDEST PUSH1 0xA SLOAD PUSH1 0x4 DUP1 SLOAD PUSH1 0x40 MLOAD PUSH4 0x70A08231 PUSH1 0xE0 SHL DUP2 MSTORE ADDRESS SWAP3 DUP2 ADD SWAP3 SWAP1 SWAP3 MSTORE PUSH1 0x0 SWAP3 SWAP2 PUSH1 0x1 PUSH1 0x1 PUSH1 0xA0 SHL SUB SWAP1 SWAP2 AND SWAP1 PUSH4 0x70A08231 SWAP1 PUSH1 0x24 ADD PUSH1 0x20 PUSH1 0x40 MLOAD DUP1 DUP4 SUB DUP2 DUP7 GAS STATICCALL ISZERO DUP1 ISZERO PUSH2 0x1B67 JUMPI RETURNDATASIZE PUSH1 0x0 DUP1 RETURNDATACOPY RETURNDATASIZE PUSH1 0x0 REVERT JUMPDEST POP POP POP POP PUSH1 0x40 MLOAD RETURNDATASIZE PUSH1 0x1F NOT PUSH1 0x1F DUP3 ADD AND DUP3 ADD DUP1 PUSH1 0x40 MSTORE POP DUP2 ADD SWAP1 PUSH2 0x1B8B SWAP2 SWAP1 PUSH2 0x467D JUMP JUMPDEST PUSH2 0x1B95 SWAP2 SWAP1 PUSH2 0x46E5 JUMP JUMPDEST GT PUSH2 0x1BDB JUMPI PUSH1 0x40 MLOAD PUSH3 0x461BCD PUSH1 0xE5 SHL DUP2 MSTORE PUSH1 0x20 PUSH1 0x4 DUP3 ADD MSTORE PUSH1 0x16 PUSH1 0x24 DUP3 ADD MSTORE PUSH22 0x54686520746F6B656E206973206E6F74206578747261 PUSH1 0x50 SHL PUSH1 0x44 DUP3 ADD MSTORE PUSH1 0x64 ADD PUSH2 0x502 JUMP JUMPDEST PUSH1 0x4 DUP1 SLOAD PUSH1 0xB SLOAD PUSH1 0xA SLOAD PUSH1 0x40 MLOAD PUSH4 0x70A08231 PUSH1 0xE0 SHL DUP2 MSTORE ADDRESS SWAP5 DUP2 ADD SWAP5 SWAP1 SWAP5 MSTORE PUSH1 0x1 PUSH1 0x1 PUSH1 0xA0 SHL SUB SWAP3 DUP4 AND SWAP4 PUSH4 0xA9059CBB SWAP4 SWAP1 SWAP3 AND SWAP2 DUP5 SWAP1 PUSH4 0x70A08231 SWAP1 PUSH1 0x24 ADD PUSH1 0x20 PUSH1 0x40 MLOAD DUP1 DUP4 SUB DUP2 DUP7 GAS STATICCALL ISZERO DUP1 ISZERO PUSH2 0x1C38 JUMPI RETURNDATASIZE PUSH1 0x0 DUP1 RETURNDATACOPY RETURNDATASIZE PUSH1 0x0 REVERT JUMPDEST POP POP POP POP PUSH1 0x40 MLOAD RETURNDATASIZE PUSH1 0x1F NOT PUSH1 0x1F DUP3 ADD AND DUP3 ADD DUP1 PUSH1 0x40 MSTORE POP DUP2 ADD SWAP1 PUSH2 0x1C5C SWAP2 SWAP1 PUSH2 0x467D JUMP JUMPDEST PUSH2 0x1C66 SWAP2 SWAP1 PUSH2 0x46E5 JUMP JUMPDEST PUSH1 0x40 MLOAD PUSH1 0x1 PUSH1 0x1 PUSH1 0xE0 SHL SUB NOT PUSH1 0xE0 DUP6 SWAP1 SHL AND DUP2 MSTORE PUSH1 0x1 PUSH1 0x1 PUSH1 0xA0 SHL SUB SWAP1 SWAP3 AND PUSH1 0x4 DUP4 ADD MSTORE PUSH1 0x24 DUP3 ADD MSTORE PUSH1 0x44 ADD PUSH1 0x20 PUSH1 0x40 MLOAD DUP1 DUP4 SUB DUP2 PUSH1 0x0 DUP8 GAS CALL ISZERO DUP1 ISZERO PUSH2 0x1CB1 JUMPI RETURNDATASIZE PUSH1 0x0 DUP1 RETURNDATACOPY RETURNDATASIZE PUSH1 0x0 REVERT JUMPDEST POP POP POP POP PUSH1 0x40 MLOAD RETURNDATASIZE PUSH1 0x1F NOT PUSH1 0x1F DUP3 ADD AND DUP3 ADD DUP1 PUSH1 0x40 MSTORE POP DUP2 ADD SWAP1 PUSH2 0x106C SWAP2 SWAP1 PUSH2 0x471C JUMP JUMPDEST PUSH1 0x1 PUSH1 0x1 PUSH1 0xA0 SHL SUB DUP3 AND CALLER SUB PUSH2 0x1D3F JUMPI PUSH1 0x40 MLOAD PUSH3 0x461BCD PUSH1 0xE5 SHL DUP2 MSTORE PUSH1 0x20 PUSH1 0x4 DUP3 ADD MSTORE PUSH1 0x29 PUSH1 0x24 DUP3 ADD MSTORE PUSH32 0x455243313135353A2073657474696E6720617070726F76616C20737461747573 PUSH1 0x44 DUP3 ADD MSTORE PUSH9 0x103337B91039B2B633 PUSH1 0xB9 SHL PUSH1 0x64 DUP3 ADD MSTORE PUSH1 0x84 ADD PUSH2 0x502 JUMP JUMPDEST CALLER PUSH1 0x0 DUP2 DUP2 MSTORE PUSH1 0x2 PUSH1 0x20 SWAP1 DUP2 MSTORE PUSH1 0x40 DUP1 DUP4 KECCAK256 PUSH1 0x1 PUSH1 0x1 PUSH1 0xA0 SHL SUB DUP8 AND DUP1 DUP6 MSTORE SWAP1 DUP4 MSTORE SWAP3 DUP2 SWAP1 KECCAK256 DUP1 SLOAD PUSH1 0xFF NOT AND DUP7 ISZERO ISZERO SWAP1 DUP2 OR SWAP1 SWAP2 SSTORE SWAP1 MLOAD SWAP1 DUP2 MSTORE SWAP2 SWAP3 SWAP2 PUSH32 0x17307EAB39AB6107E8899845AD3D59BD9653F200F220920489CA2B5937696C31 SWAP2 ADD PUSH1 0x40 MLOAD DUP1 SWAP2 SUB SWAP1 LOG3 POP POP JUMP JUMPDEST PUSH2 0x1DB3 PUSH2 0x3D3E JUMP JUMPDEST PUSH1 0xC DUP3 DUP2 SLOAD DUP2 LT PUSH2 0x1DC6 JUMPI PUSH2 0x1DC6 PUSH2 0x4891 JUMP JUMPDEST PUSH1 0x0 SWAP2 DUP3 MSTORE PUSH1 0x20 SWAP2 DUP3 SWAP1 KECCAK256 PUSH1 0x40 DUP1 MLOAD PUSH2 0x160 DUP2 ADD SWAP1 SWAP2 MSTORE PUSH1 0xB SWAP1 SWAP3 MUL ADD DUP1 SLOAD PUSH1 0xFF AND ISZERO ISZERO DUP3 MSTORE PUSH1 0x1 DUP2 ADD DUP1 SLOAD SWAP3 SWAP4 SWAP2 SWAP3 SWAP2 DUP5 ADD SWAP2 PUSH2 0x1E03 SWAP1 PUSH2 0x474C JUMP JUMPDEST DUP1 PUSH1 0x1F ADD PUSH1 0x20 DUP1 SWAP2 DIV MUL PUSH1 0x20 ADD PUSH1 0x40 MLOAD SWAP1 DUP2 ADD PUSH1 0x40 MSTORE DUP1 SWAP3 SWAP2 SWAP1 DUP2 DUP2 MSTORE PUSH1 0x20 ADD DUP3 DUP1 SLOAD PUSH2 0x1E2F SWAP1 PUSH2 0x474C JUMP JUMPDEST DUP1 ISZERO PUSH2 0x1E7C JUMPI DUP1 PUSH1 0x1F LT PUSH2 0x1E51 JUMPI PUSH2 0x100 DUP1 DUP4 SLOAD DIV MUL DUP4 MSTORE SWAP2 PUSH1 0x20 ADD SWAP2 PUSH2 0x1E7C JUMP JUMPDEST DUP3 ADD SWAP2 SWAP1 PUSH1 0x0 MSTORE PUSH1 0x20 PUSH1 0x0 KECCAK256 SWAP1 JUMPDEST DUP2 SLOAD DUP2 MSTORE SWAP1 PUSH1 0x1 ADD SWAP1 PUSH1 0x20 ADD DUP1 DUP4 GT PUSH2 0x1E5F JUMPI DUP3 SWAP1 SUB PUSH1 0x1F AND DUP3 ADD SWAP2 JUMPDEST POP POP POP POP POP DUP2 MSTORE PUSH1 0x20 ADD PUSH1 0x2 DUP3 ADD DUP1 SLOAD DUP1 PUSH1 0x20 MUL PUSH1 0x20 ADD PUSH1 0x40 MLOAD SWAP1 DUP2 ADD PUSH1 0x40 MSTORE DUP1 SWAP3 SWAP2 SWAP1 DUP2 DUP2 MSTORE PUSH1 0x20 ADD PUSH1 0x0 SWAP1 JUMPDEST DUP3 DUP3 LT ISZERO PUSH2 0x1F56 JUMPI DUP4 DUP3 SWAP1 PUSH1 0x0 MSTORE PUSH1 0x20 PUSH1 0x0 KECCAK256 ADD DUP1 SLOAD PUSH2 0x1EC9 SWAP1 PUSH2 0x474C JUMP JUMPDEST DUP1 PUSH1 0x1F ADD PUSH1 0x20 DUP1 SWAP2 DIV MUL PUSH1 0x20 ADD PUSH1 0x40 MLOAD SWAP1 DUP2 ADD PUSH1 0x40 MSTORE DUP1 SWAP3 SWAP2 SWAP1 DUP2 DUP2 MSTORE PUSH1 0x20 ADD DUP3 DUP1 SLOAD PUSH2 0x1EF5 SWAP1 PUSH2 0x474C JUMP JUMPDEST DUP1 ISZERO PUSH2 0x1F42 JUMPI DUP1 PUSH1 0x1F LT PUSH2 0x1F17 JUMPI PUSH2 0x100 DUP1 DUP4 SLOAD DIV MUL DUP4 MSTORE SWAP2 PUSH1 0x20 ADD SWAP2 PUSH2 0x1F42 JUMP JUMPDEST DUP3 ADD SWAP2 SWAP1 PUSH1 0x0 MSTORE PUSH1 0x20 PUSH1 0x0 KECCAK256 SWAP1 JUMPDEST DUP2 SLOAD DUP2 MSTORE SWAP1 PUSH1 0x1 ADD SWAP1 PUSH1 0x20 ADD DUP1 DUP4 GT PUSH2 0x1F25 JUMPI DUP3 SWAP1 SUB PUSH1 0x1F AND DUP3 ADD SWAP2 JUMPDEST POP POP POP POP POP DUP2 MSTORE PUSH1 0x20 ADD SWAP1 PUSH1 0x1 ADD SWAP1 PUSH2 0x1EAA JUMP JUMPDEST POP POP POP POP DUP2 MSTORE PUSH1 0x20 ADD PUSH1 0x3 DUP3 ADD DUP1 SLOAD DUP1 PUSH1 0x20 MUL PUSH1 0x20 ADD PUSH1 0x40 MLOAD SWAP1 DUP2 ADD PUSH1 0x40 MSTORE DUP1 SWAP3 SWAP2 SWAP1 DUP2 DUP2 MSTORE PUSH1 0x20 ADD DUP3 DUP1 SLOAD DUP1 ISZERO PUSH2 0x1FAD JUMPI PUSH1 0x20 MUL DUP3 ADD SWAP2 SWAP1 PUSH1 0x0 MSTORE PUSH1 0x20 PUSH1 0x0 KECCAK256 SWAP1 JUMPDEST DUP2 SLOAD DUP2 MSTORE PUSH1 0x20 ADD SWAP1 PUSH1 0x1 ADD SWAP1 DUP1 DUP4 GT PUSH2 0x1F99 JUMPI JUMPDEST POP POP POP SWAP2 DUP4 MSTORE POP POP PUSH1 0x4 DUP3 ADD SLOAD PUSH1 0x1 PUSH1 0x1 PUSH1 0xA0 SHL SUB SWAP1 DUP2 AND PUSH1 0x20 DUP4 ADD MSTORE PUSH1 0x5 DUP4 ADD SLOAD DUP2 AND PUSH1 0x40 DUP4 ADD MSTORE PUSH1 0x6 DUP4 ADD SLOAD PUSH1 0x60 DUP4 ADD MSTORE PUSH1 0x7 DUP4 ADD SLOAD AND PUSH1 0x80 DUP3 ADD MSTORE PUSH1 0x8 DUP3 ADD SLOAD PUSH1 0xA0 DUP3 ADD MSTORE PUSH1 0x9 DUP3 ADD SLOAD PUSH1 0xC0 DUP3 ADD MSTORE PUSH1 0xA SWAP1 SWAP2 ADD SLOAD PUSH1 0xE0 SWAP1 SWAP2 ADD MSTORE SWAP3 SWAP2 POP POP JUMP JUMPDEST PUSH1 0xB SLOAD PUSH1 0x1 PUSH1 0xA0 SHL SWAP1 DIV PUSH1 0xFF AND ISZERO PUSH2 0x2063 JUMPI PUSH1 0x40 MLOAD PUSH3 0x461BCD PUSH1 0xE5 SHL DUP2 MSTORE PUSH1 0x20 PUSH1 0x4 DUP3 ADD MSTORE PUSH1 0x15 PUSH1 0x24 DUP3 ADD MSTORE PUSH21 0x115C9C9BDC8E881499595B9D1C985B9D0818D85B1B PUSH1 0x5A SHL PUSH1 0x44 DUP3 ADD MSTORE PUSH1 0x64 ADD PUSH2 0x502 JUMP JUMPDEST PUSH1 0xB DUP1 SLOAD PUSH1 0xFF PUSH1 0xA0 SHL NOT AND PUSH1 0x1 PUSH1 0xA0 SHL OR SWAP1 SSTORE PUSH1 0xC DUP1 SLOAD DUP4 SWAP1 DUP2 LT PUSH2 0x208A JUMPI PUSH2 0x208A PUSH2 0x4891 JUMP JUMPDEST SWAP1 PUSH1 0x0 MSTORE PUSH1 0x20 PUSH1 0x0 KECCAK256 SWAP1 PUSH1 0xB MUL ADD PUSH1 0x6 ADD SLOAD PUSH1 0x1 SUB PUSH2 0x25FF JUMPI PUSH1 0xC DUP3 DUP2 SLOAD DUP2 LT PUSH2 0x20B6 JUMPI PUSH2 0x20B6 PUSH2 0x4891 JUMP JUMPDEST PUSH1 0x0 SWAP2 DUP3 MSTORE PUSH1 0x20 SWAP1 SWAP2 KECCAK256 PUSH1 0xB SWAP1 SWAP2 MUL ADD PUSH1 0x8 ADD SLOAD PUSH1 0x4 DUP1 SLOAD PUSH1 0x40 MLOAD PUSH4 0x70A08231 PUSH1 0xE0 SHL DUP2 MSTORE CALLER SWAP3 DUP2 ADD SWAP3 SWAP1 SWAP3 MSTORE PUSH1 0x1 PUSH1 0x1 PUSH1 0xA0 SHL SUB AND SWAP1 PUSH4 0x70A08231 SWAP1 PUSH1 0x24 ADD PUSH1 0x20 PUSH1 0x40 MLOAD DUP1 DUP4 SUB DUP2 DUP7 GAS STATICCALL ISZERO DUP1 ISZERO PUSH2 0x2113 JUMPI RETURNDATASIZE PUSH1 0x0 DUP1 RETURNDATACOPY RETURNDATASIZE PUSH1 0x0 REVERT JUMPDEST POP POP POP POP PUSH1 0x40 MLOAD RETURNDATASIZE PUSH1 0x1F NOT PUSH1 0x1F DUP3 ADD AND DUP3 ADD DUP1 PUSH1 0x40 MSTORE POP DUP2 ADD SWAP1 PUSH2 0x2137 SWAP2 SWAP1 PUSH2 0x467D JUMP JUMPDEST LT ISZERO PUSH2 0x217A JUMPI PUSH1 0x40 MLOAD PUSH3 0x461BCD PUSH1 0xE5 SHL DUP2 MSTORE PUSH1 0x20 PUSH1 0x4 DUP3 ADD MSTORE PUSH1 0x12 PUSH1 0x24 DUP3 ADD MSTORE PUSH18 0x4E6F7420656E6F7567682062616C616E6365 PUSH1 0x70 SHL PUSH1 0x44 DUP3 ADD MSTORE PUSH1 0x64 ADD PUSH2 0x502 JUMP JUMPDEST PUSH1 0xC DUP3 DUP2 SLOAD DUP2 LT PUSH2 0x218D JUMPI PUSH2 0x218D PUSH2 0x4891 JUMP JUMPDEST SWAP1 PUSH1 0x0 MSTORE PUSH1 0x20 PUSH1 0x0 KECCAK256 SWAP1 PUSH1 0xB MUL ADD PUSH1 0x8 ADD SLOAD DUP2 EQ PUSH2 0x21ED JUMPI PUSH1 0x40 MLOAD PUSH3 0x461BCD PUSH1 0xE5 SHL DUP2 MSTORE PUSH1 0x20 PUSH1 0x4 DUP3 ADD MSTORE PUSH1 0x1A PUSH1 0x24 DUP3 ADD MSTORE PUSH32 0x4E65656420746F20706179206D696E2062657420616D6F756E74000000000000 PUSH1 0x44 DUP3 ADD MSTORE PUSH1 0x64 ADD PUSH2 0x502 JUMP JUMPDEST PUSH1 0x0 PUSH1 0x64 PUSH1 0x8 SLOAD DUP4 PUSH2 0x21FF SWAP2 SWAP1 PUSH2 0x46AC JUMP JUMPDEST PUSH2 0x2209 SWAP2 SWAP1 PUSH2 0x46C3 JUMP JUMPDEST SWAP1 POP PUSH1 0x0 PUSH1 0x64 PUSH1 0x9 SLOAD DUP5 PUSH2 0x221D SWAP2 SWAP1 PUSH2 0x46AC JUMP JUMPDEST PUSH2 0x2227 SWAP2 SWAP1 PUSH2 0x46C3 JUMP JUMPDEST SWAP1 POP PUSH1 0x0 DUP2 PUSH2 0x2236 DUP5 DUP7 PUSH2 0x46E5 JUMP JUMPDEST PUSH2 0x2240 SWAP2 SWAP1 PUSH2 0x46E5 JUMP JUMPDEST PUSH1 0x4 DUP1 SLOAD PUSH1 0x40 MLOAD PUSH4 0x23B872DD PUSH1 0xE0 SHL DUP2 MSTORE SWAP3 SWAP4 POP PUSH1 0x1 PUSH1 0x1 PUSH1 0xA0 SHL SUB AND SWAP2 PUSH4 0x23B872DD SWAP2 PUSH2 0x2276 SWAP2 CALLER SWAP2 PUSH2 0xDEAD SWAP2 DUP10 SWAP2 ADD PUSH2 0x46F8 JUMP JUMPDEST PUSH1 0x20 PUSH1 0x40 MLOAD DUP1 DUP4 SUB DUP2 PUSH1 0x0 DUP8 GAS CALL ISZERO DUP1 ISZERO PUSH2 0x2295 JUMPI RETURNDATASIZE PUSH1 0x0 DUP1 RETURNDATACOPY RETURNDATASIZE PUSH1 0x0 REVERT JUMPDEST POP POP POP POP PUSH1 0x40 MLOAD RETURNDATASIZE PUSH1 0x1F NOT PUSH1 0x1F DUP3 ADD AND DUP3 ADD DUP1 PUSH1 0x40 MSTORE POP DUP2 ADD SWAP1 PUSH2 0x22B9 SWAP2 SWAP1 PUSH2 0x471C JUMP JUMPDEST POP PUSH1 0x4 DUP1 SLOAD PUSH1 0x7 SLOAD PUSH1 0x40 MLOAD PUSH4 0x23B872DD PUSH1 0xE0 SHL DUP2 MSTORE PUSH1 0x1 PUSH1 0x1 PUSH1 0xA0 SHL SUB SWAP3 DUP4 AND SWAP4 PUSH4 0x23B872DD SWAP4 PUSH2 0x22F1 SWAP4 CALLER SWAP4 SWAP2 AND SWAP2 DUP9 SWAP2 ADD PUSH2 0x46F8 JUMP JUMPDEST PUSH1 0x20 PUSH1 0x40 MLOAD DUP1 DUP4 SUB DUP2 PUSH1 0x0 DUP8 GAS CALL ISZERO DUP1 ISZERO PUSH2 0x2310 JUMPI RETURNDATASIZE PUSH1 0x0 DUP1 RETURNDATACOPY RETURNDATASIZE PUSH1 0x0 REVERT JUMPDEST POP POP POP POP PUSH1 0x40 MLOAD RETURNDATASIZE PUSH1 0x1F NOT PUSH1 0x1F DUP3 ADD AND DUP3 ADD DUP1 PUSH1 0x40 MSTORE POP DUP2 ADD SWAP1 PUSH2 0x2334 SWAP2 SWAP1 PUSH2 0x471C JUMP JUMPDEST POP PUSH1 0x4 DUP1 SLOAD PUSH1 0x40 MLOAD PUSH4 0x23B872DD PUSH1 0xE0 SHL DUP2 MSTORE PUSH1 0x1 PUSH1 0x1 PUSH1 0xA0 SHL SUB SWAP1 SWAP2 AND SWAP2 PUSH4 0x23B872DD SWAP2 PUSH2 0x2368 SWAP2 CALLER SWAP2 ADDRESS SWAP2 DUP8 SWAP2 ADD PUSH2 0x46F8 JUMP JUMPDEST PUSH1 0x20 PUSH1 0x40 MLOAD DUP1 DUP4 SUB DUP2 PUSH1 0x0 DUP8 GAS CALL ISZERO DUP1 ISZERO PUSH2 0x2387 JUMPI RETURNDATASIZE PUSH1 0x0 DUP1 RETURNDATACOPY RETURNDATASIZE PUSH1 0x0 REVERT JUMPDEST POP POP POP POP PUSH1 0x40 MLOAD RETURNDATASIZE PUSH1 0x1F NOT PUSH1 0x1F DUP3 ADD AND DUP3 ADD DUP1 PUSH1 0x40 MSTORE POP DUP2 ADD SWAP1 PUSH2 0x23AB SWAP2 SWAP1 PUSH2 0x471C JUMP JUMPDEST POP DUP1 PUSH1 0xA PUSH1 0x0 DUP3 DUP3 SLOAD PUSH2 0x23BE SWAP2 SWAP1 PUSH2 0x4739 JUMP JUMPDEST SWAP1 SWAP2 SSTORE POP POP PUSH1 0xC DUP1 SLOAD DUP7 SWAP1 DUP2 LT PUSH2 0x23D7 JUMPI PUSH2 0x23D7 PUSH2 0x4891 JUMP JUMPDEST PUSH1 0x0 SWAP2 DUP3 MSTORE PUSH1 0x20 SWAP1 SWAP2 KECCAK256 PUSH1 0x4 PUSH1 0xB SWAP1 SWAP3 MUL ADD ADD SLOAD PUSH1 0x1 PUSH1 0x1 PUSH1 0xA0 SHL SUB AND CALLER SUB PUSH2 0x244E JUMPI PUSH1 0x40 MLOAD PUSH3 0x461BCD PUSH1 0xE5 SHL DUP2 MSTORE PUSH1 0x20 PUSH1 0x4 DUP3 ADD MSTORE PUSH1 0x24 DUP1 DUP3 ADD MSTORE PUSH32 0x4572726F723A20596F752063616E6E6F7420706C6179207769746820796F7572 PUSH1 0x44 DUP3 ADD MSTORE PUSH4 0x39B2B633 PUSH1 0xE1 SHL PUSH1 0x64 DUP3 ADD MSTORE PUSH1 0x84 ADD PUSH2 0x502 JUMP JUMPDEST CALLER PUSH1 0xC DUP7 DUP2 SLOAD DUP2 LT PUSH2 0x2462 JUMPI PUSH2 0x2462 PUSH2 0x4891 JUMP JUMPDEST SWAP1 PUSH1 0x0 MSTORE PUSH1 0x20 PUSH1 0x0 KECCAK256 SWAP1 PUSH1 0xB MUL ADD PUSH1 0x5 ADD PUSH1 0x0 PUSH2 0x100 EXP DUP2 SLOAD DUP2 PUSH1 0x1 PUSH1 0x1 PUSH1 0xA0 SHL SUB MUL NOT AND SWAP1 DUP4 PUSH1 0x1 PUSH1 0x1 PUSH1 0xA0 SHL SUB AND MUL OR SWAP1 SSTORE POP PUSH1 0x2 PUSH1 0xC DUP7 DUP2 SLOAD DUP2 LT PUSH2 0x24AC JUMPI PUSH2 0x24AC PUSH2 0x4891 JUMP JUMPDEST SWAP1 PUSH1 0x0 MSTORE PUSH1 0x20 PUSH1 0x0 KECCAK256 SWAP1 PUSH1 0xB MUL ADD PUSH1 0x6 ADD DUP2 SWAP1 SSTORE POP PUSH1 0x1 PUSH1 0xC DUP7 DUP2 SLOAD DUP2 LT PUSH2 0x24D6 JUMPI PUSH2 0x24D6 PUSH2 0x4891 JUMP JUMPDEST SWAP1 PUSH1 0x0 MSTORE PUSH1 0x20 PUSH1 0x0 KECCAK256 SWAP1 PUSH1 0xB MUL ADD PUSH1 0x0 ADD PUSH1 0x0 PUSH2 0x100 EXP DUP2 SLOAD DUP2 PUSH1 0xFF MUL NOT AND SWAP1 DUP4 ISZERO ISZERO MUL OR SWAP1 SSTORE POP DUP4 PUSH1 0xC DUP7 DUP2 SLOAD DUP2 LT PUSH2 0x2512 JUMPI PUSH2 0x2512 PUSH2 0x4891 JUMP JUMPDEST SWAP1 PUSH1 0x0 MSTORE PUSH1 0x20 PUSH1 0x0 KECCAK256 SWAP1 PUSH1 0xB MUL ADD PUSH1 0x9 ADD DUP2 SWAP1 SSTORE POP PUSH32 0x2F78808C539FD07CB45456A5D5561C76D3D4005246FACCB297481E511ABC321A PUSH1 0xC DUP7 DUP2 SLOAD DUP2 LT PUSH2 0x255B JUMPI PUSH2 0x255B PUSH2 0x4891 JUMP JUMPDEST SWAP1 PUSH1 0x0 MSTORE PUSH1 0x20 PUSH1 0x0 KECCAK256 SWAP1 PUSH1 0xB MUL ADD PUSH1 0x4 ADD PUSH1 0x0 SWAP1 SLOAD SWAP1 PUSH2 0x100 EXP SWAP1 DIV PUSH1 0x1 PUSH1 0x1 PUSH1 0xA0 SHL SUB AND PUSH1 0xC DUP8 DUP2 SLOAD DUP2 LT PUSH2 0x2593 JUMPI PUSH2 0x2593 PUSH2 0x4891 JUMP JUMPDEST PUSH1 0x0 SWAP2 DUP3 MSTORE PUSH1 0x20 SWAP2 DUP3 SWAP1 KECCAK256 PUSH1 0xB SWAP2 DUP3 MUL ADD PUSH1 0x5 ADD SLOAD PUSH1 0x40 DUP1 MLOAD PUSH1 0x80 DUP1 DUP3 MSTORE DUP2 ADD SWAP4 SWAP1 SWAP4 MSTORE PUSH11 0x53746172742067616D6521 PUSH1 0xA8 SHL PUSH1 0xA0 DUP5 ADD MSTORE PUSH1 0x1 PUSH1 0x1 PUSH1 0xA0 SHL SUB SWAP5 DUP6 AND SWAP4 DUP4 ADD SWAP4 SWAP1 SWAP4 MSTORE SWAP3 SWAP1 SWAP3 AND SWAP1 DUP3 ADD MSTORE PUSH1 0x60 DUP2 ADD DUP8 SWAP1 MSTORE PUSH1 0xC0 ADD PUSH1 0x40 MLOAD DUP1 SWAP2 SUB SWAP1 LOG1 POP POP POP PUSH2 0x2699 JUMP JUMPDEST PUSH1 0xC DUP3 DUP2 SLOAD DUP2 LT PUSH2 0x2612 JUMPI PUSH2 0x2612 PUSH2 0x4891 JUMP JUMPDEST SWAP1 PUSH1 0x0 MSTORE PUSH1 0x20 PUSH1 0x0 KECCAK256 SWAP1 PUSH1 0xB MUL ADD PUSH1 0x6 ADD SLOAD PUSH1 0x2 EQ PUSH2 0x2699 JUMPI PUSH1 0x40 MLOAD PUSH3 0x461BCD PUSH1 0xE5 SHL DUP2 MSTORE PUSH1 0x20 PUSH1 0x4 DUP3 ADD MSTORE PUSH1 0x3E PUSH1 0x24 DUP3 ADD MSTORE PUSH32 0x4E6F772071756575652069732066756C6C2C20747279206C617465722E204761 PUSH1 0x44 DUP3 ADD MSTORE PUSH32 0x6D6520616C72656164792066756C6C20706C73206A6F696E206F746865720000 PUSH1 0x64 DUP3 ADD MSTORE PUSH1 0x84 ADD PUSH2 0x502 JUMP JUMPDEST PUSH32 0x50370B40BD566613CB1B12508C3114409E62C5C8DE11BE443CAFC84462CF5699 PUSH1 0xC DUP4 DUP2 SLOAD DUP2 LT PUSH2 0x26CD JUMPI PUSH2 0x26CD PUSH2 0x4891 JUMP JUMPDEST SWAP1 PUSH1 0x0 MSTORE PUSH1 0x20 PUSH1 0x0 KECCAK256 SWAP1 PUSH1 0xB MUL ADD DUP4 PUSH1 0x40 MLOAD PUSH2 0x26EA SWAP3 SWAP2 SWAP1 PUSH2 0x4B26 JUMP JUMPDEST PUSH1 0x40 MLOAD DUP1 SWAP2 SUB SWAP1 LOG1 POP POP PUSH1 0xB DUP1 SLOAD PUSH1 0xFF PUSH1 0xA0 SHL NOT AND SWAP1 SSTORE JUMP JUMPDEST PUSH1 0x4 DUP1 SLOAD PUSH1 0x40 MLOAD PUSH4 0x70A08231 PUSH1 0xE0 SHL DUP2 MSTORE ADDRESS SWAP3 DUP2 ADD SWAP3 SWAP1 SWAP3 MSTORE PUSH1 0x64 SWAP2 PUSH1 0x1 PUSH1 0x1 PUSH1 0xA0 SHL SUB SWAP1 SWAP2 AND SWAP1 PUSH4 0x70A08231 SWAP1 PUSH1 0x24 ADD PUSH1 0x20 PUSH1 0x40 MLOAD DUP1 DUP4 SUB DUP2 DUP7 GAS STATICCALL ISZERO DUP1 ISZERO PUSH2 0x2751 JUMPI RETURNDATASIZE PUSH1 0x0 DUP1 RETURNDATACOPY RETURNDATASIZE PUSH1 0x0 REVERT JUMPDEST POP POP POP POP PUSH1 0x40 MLOAD RETURNDATASIZE PUSH1 0x1F NOT PUSH1 0x1F DUP3 ADD AND DUP3 ADD DUP1 PUSH1 0x40 MSTORE POP DUP2 ADD SWAP1 PUSH2 0x2775 SWAP2 SWAP1 PUSH2 0x467D JUMP JUMPDEST GT PUSH2 0x27D8 JUMPI PUSH1 0x40 MLOAD PUSH3 0x461BCD PUSH1 0xE5 SHL DUP2 MSTORE PUSH1 0x20 PUSH1 0x4 DUP3 ADD MSTORE PUSH1 0x2D PUSH1 0x24 DUP3 ADD MSTORE PUSH32 0x54686520636F6E747261637420646F6573206E6F74206861766520746F6B656E PUSH1 0x44 DUP3 ADD MSTORE PUSH13 0x39903A3790383937BB34B23297 PUSH1 0x99 SHL PUSH1 0x64 DUP3 ADD MSTORE PUSH1 0x84 ADD PUSH2 0x502 JUMP JUMPDEST PUSH1 0x4 DUP1 SLOAD PUSH1 0x40 MLOAD PUSH4 0x70A08231 PUSH1 0xE0 SHL DUP2 MSTORE CALLER SWAP3 DUP2 ADD SWAP3 SWAP1 SWAP3 MSTORE PUSH1 0xA SWAP2 PUSH1 0x1 PUSH1 0x1 PUSH1 0xA0 SHL SUB SWAP1 SWAP2 AND SWAP1 PUSH4 0x70A08231 SWAP1 PUSH1 0x24 ADD PUSH1 0x20 PUSH1 0x40 MLOAD DUP1 DUP4 SUB DUP2 DUP7 GAS STATICCALL ISZERO DUP1 ISZERO PUSH2 0x2826 JUMPI RETURNDATASIZE PUSH1 0x0 DUP1 RETURNDATACOPY RETURNDATASIZE PUSH1 0x0 REVERT JUMPDEST POP POP POP POP PUSH1 0x40 MLOAD RETURNDATASIZE PUSH1 0x1F NOT PUSH1 0x1F DUP3 ADD AND DUP3 ADD DUP1 PUSH1 0x40 MSTORE POP DUP2 ADD SWAP1 PUSH2 0x284A SWAP2 SWAP1 PUSH2 0x467D JUMP JUMPDEST LT PUSH2 0x2897 JUMPI PUSH1 0x40 MLOAD PUSH3 0x461BCD PUSH1 0xE5 SHL DUP2 MSTORE PUSH1 0x20 PUSH1 0x4 DUP3 ADD MSTORE PUSH1 0x1A PUSH1 0x24 DUP3 ADD MSTORE PUSH32 0x596F75207374696C6C20676F7420656E6F75676820746F6B656E000000000000 PUSH1 0x44 DUP3 ADD MSTORE PUSH1 0x64 ADD PUSH2 0x502 JUMP JUMPDEST PUSH1 0x4 DUP1 SLOAD PUSH1 0x40 MLOAD PUSH4 0xA9059CBB PUSH1 0xE0 SHL DUP2 MSTORE CALLER SWAP3 DUP2 ADD SWAP3 SWAP1 SWAP3 MSTORE PUSH9 0x56BC75E2D63100000 PUSH1 0x24 DUP4 ADD MSTORE PUSH1 0x0 SWAP2 PUSH1 0x1 PUSH1 0x1 PUSH1 0xA0 SHL SUB SWAP1 SWAP2 AND SWAP1 PUSH4 0xA9059CBB SWAP1 PUSH1 0x44 ADD PUSH1 0x20 PUSH1 0x40 MLOAD DUP1 DUP4 SUB DUP2 PUSH1 0x0 DUP8 GAS CALL ISZERO DUP1 ISZERO PUSH2 0x28F6 JUMPI RETURNDATASIZE PUSH1 0x0 DUP1 RETURNDATACOPY RETURNDATASIZE PUSH1 0x0 REVERT JUMPDEST POP POP POP POP PUSH1 0x40 MLOAD RETURNDATASIZE PUSH1 0x1F NOT PUSH1 0x1F DUP3 ADD AND DUP3 ADD DUP1 PUSH1 0x40 MSTORE POP DUP2 ADD SWAP1 PUSH2 0x291A SWAP2 SWAP1 PUSH2 0x471C JUMP JUMPDEST PUSH1 0x40 DUP1 MLOAD CALLER DUP2 MSTORE DUP3 ISZERO ISZERO PUSH1 0x20 DUP3 ADD MSTORE SWAP2 SWAP3 POP PUSH32 0x1D67794760BB3EA2174B2CCC7B8AA2D786EF61A72E7BE363DAB04929E3510B1C SWAP2 ADD PUSH2 0x1475 JUMP JUMPDEST PUSH1 0x0 DUP2 PUSH1 0x40 MLOAD PUSH1 0x20 ADD PUSH2 0x2967 SWAP2 SWAP1 PUSH2 0x4C06 JUMP JUMPDEST PUSH1 0x40 MLOAD PUSH1 0x20 DUP2 DUP4 SUB SUB DUP2 MSTORE SWAP1 PUSH1 0x40 MSTORE DUP1 MLOAD SWAP1 PUSH1 0x20 ADD KECCAK256 DUP4 PUSH1 0x40 MLOAD PUSH1 0x20 ADD PUSH2 0x298E SWAP2 SWAP1 PUSH2 0x4C06 JUMP JUMPDEST PUSH1 0x40 MLOAD PUSH1 0x20 DUP2 DUP4 SUB SUB DUP2 MSTORE SWAP1 PUSH1 0x40 MSTORE DUP1 MLOAD SWAP1 PUSH1 0x20 ADD KECCAK256 EQ SWAP1 POP SWAP3 SWAP2 POP POP JUMP JUMPDEST PUSH1 0x60 PUSH1 0xC DUP3 DUP2 SLOAD DUP2 LT PUSH2 0x29C2 JUMPI PUSH2 0x29C2 PUSH2 0x4891 JUMP JUMPDEST SWAP1 PUSH1 0x0 MSTORE PUSH1 0x20 PUSH1 0x0 KECCAK256 SWAP1 PUSH1 0xB MUL ADD PUSH1 0x2 ADD DUP1 SLOAD DUP1 PUSH1 0x20 MUL PUSH1 0x20 ADD PUSH1 0x40 MLOAD SWAP1 DUP2 ADD PUSH1 0x40 MSTORE DUP1 SWAP3 SWAP2 SWAP1 DUP2 DUP2 MSTORE PUSH1 0x20 ADD PUSH1 0x0 SWAP1 JUMPDEST DUP3 DUP3 LT ISZERO PUSH2 0x2A9F JUMPI DUP4 DUP3 SWAP1 PUSH1 0x0 MSTORE PUSH1 0x20 PUSH1 0x0 KECCAK256 ADD DUP1 SLOAD PUSH2 0x2A12 SWAP1 PUSH2 0x474C JUMP JUMPDEST DUP1 PUSH1 0x1F ADD PUSH1 0x20 DUP1 SWAP2 DIV MUL PUSH1 0x20 ADD PUSH1 0x40 MLOAD SWAP1 DUP2 ADD PUSH1 0x40 MSTORE DUP1 SWAP3 SWAP2 SWAP1 DUP2 DUP2 MSTORE PUSH1 0x20 ADD DUP3 DUP1 SLOAD PUSH2 0x2A3E SWAP1 PUSH2 0x474C JUMP JUMPDEST DUP1 ISZERO PUSH2 0x2A8B JUMPI DUP1 PUSH1 0x1F LT PUSH2 0x2A60 JUMPI PUSH2 0x100 DUP1 DUP4 SLOAD DIV MUL DUP4 MSTORE SWAP2 PUSH1 0x20 ADD SWAP2 PUSH2 0x2A8B JUMP JUMPDEST DUP3 ADD SWAP2 SWAP1 PUSH1 0x0 MSTORE PUSH1 0x20 PUSH1 0x0 KECCAK256 SWAP1 JUMPDEST DUP2 SLOAD DUP2 MSTORE SWAP1 PUSH1 0x1 ADD SWAP1 PUSH1 0x20 ADD DUP1 DUP4 GT PUSH2 0x2A6E JUMPI DUP3 SWAP1 SUB PUSH1 0x1F AND DUP3 ADD SWAP2 JUMPDEST POP POP POP POP POP DUP2 MSTORE PUSH1 0x20 ADD SWAP1 PUSH1 0x1 ADD SWAP1 PUSH2 0x29F3 JUMP JUMPDEST POP POP POP POP SWAP1 POP SWAP2 SWAP1 POP JUMP JUMPDEST PUSH1 0xB SLOAD PUSH1 0x1 PUSH1 0x1 PUSH1 0xA0 SHL SUB AND CALLER EQ PUSH2 0x2AF4 JUMPI PUSH1 0x40 MLOAD PUSH3 0x461BCD PUSH1 0xE5 SHL DUP2 MSTORE PUSH1 0x20 PUSH1 0x4 DUP3 ADD MSTORE PUSH1 0xD PUSH1 0x24 DUP3 ADD MSTORE PUSH13 0x2737BA103A34329037BBB732B9 PUSH1 0x99 SHL PUSH1 0x44 DUP3 ADD MSTORE PUSH1 0x64 ADD PUSH2 0x502 JUMP JUMPDEST PUSH1 0x4 DUP1 SLOAD PUSH1 0xB SLOAD PUSH1 0x40 MLOAD PUSH4 0x70A08231 PUSH1 0xE0 SHL DUP2 MSTORE ADDRESS SWAP4 DUP2 ADD SWAP4 SWAP1 SWAP4 MSTORE PUSH1 0x1 PUSH1 0x1 PUSH1 0xA0 SHL SUB SWAP2 DUP3 AND SWAP3 PUSH4 0xA9059CBB SWAP3 SWAP1 SWAP2 AND SWAP1 DUP4 SWAP1 PUSH4 0x70A08231 SWAP1 PUSH1 0x24 ADD PUSH1 0x20 PUSH1 0x40 MLOAD DUP1 DUP4 SUB DUP2 DUP7 GAS STATICCALL ISZERO DUP1 ISZERO PUSH2 0x2B4E JUMPI RETURNDATASIZE PUSH1 0x0 DUP1 RETURNDATACOPY RETURNDATASIZE PUSH1 0x0 REVERT JUMPDEST POP POP POP POP PUSH1 0x40 MLOAD RETURNDATASIZE PUSH1 0x1F NOT PUSH1 0x1F DUP3 ADD AND DUP3 ADD DUP1 PUSH1 0x40 MSTORE POP DUP2 ADD SWAP1 PUSH2 0x1C66 SWAP2 SWAP1 PUSH2 0x467D JUMP JUMPDEST PUSH1 0x1 PUSH1 0x1 PUSH1 0xA0 SHL SUB DUP5 AND PUSH2 0x2B98 JUMPI PUSH1 0x40 MLOAD PUSH3 0x461BCD PUSH1 0xE5 SHL DUP2 MSTORE PUSH1 0x4 ADD PUSH2 0x502 SWAP1 PUSH2 0x48C0 JUMP JUMPDEST PUSH1 0x1 PUSH1 0x1 PUSH1 0xA0 SHL SUB DUP6 AND CALLER EQ DUP1 PUSH2 0x2BB4 JUMPI POP PUSH2 0x2BB4 DUP6 CALLER PUSH2 0x43F JUMP JUMPDEST PUSH2 0x2C12 JUMPI PUSH1 0x40 MLOAD PUSH3 0x461BCD PUSH1 0xE5 SHL DUP2 MSTORE PUSH1 0x20 PUSH1 0x4 DUP3 ADD MSTORE PUSH1 0x29 PUSH1 0x24 DUP3 ADD MSTORE PUSH32 0x455243313135353A2063616C6C6572206973206E6F74206F776E6572206E6F72 PUSH1 0x44 DUP3 ADD MSTORE PUSH9 0x8185C1C1C9BDD9959 PUSH1 0xBA SHL PUSH1 0x64 DUP3 ADD MSTORE PUSH1 0x84 ADD PUSH2 0x502 JUMP JUMPDEST CALLER PUSH2 0x2C32 DUP2 DUP8 DUP8 PUSH2 0x2C22 DUP9 PUSH2 0x38C8 JUMP JUMPDEST PUSH2 0x2C2B DUP9 PUSH2 0x38C8 JUMP JUMPDEST POP POP POP POP POP JUMP JUMPDEST PUSH2 0x2C79 DUP4 PUSH1 0x40 MLOAD DUP1 PUSH1 0x60 ADD PUSH1 0x40 MSTORE DUP1 PUSH1 0x2A DUP2 MSTORE PUSH1 0x20 ADD PUSH2 0x4DE4 PUSH1 0x2A SWAP2 CODECOPY PUSH1 0x0 DUP8 DUP2 MSTORE PUSH1 0x1 PUSH1 0x20 SWAP1 DUP2 MSTORE PUSH1 0x40 DUP1 DUP4 KECCAK256 PUSH1 0x1 PUSH1 0x1 PUSH1 0xA0 SHL SUB DUP14 AND DUP5 MSTORE SWAP1 SWAP2 MSTORE SWAP1 KECCAK256 SLOAD SWAP2 SWAP1 PUSH2 0x2D25 JUMP JUMPDEST PUSH1 0x0 DUP6 DUP2 MSTORE PUSH1 0x1 PUSH1 0x20 SWAP1 DUP2 MSTORE PUSH1 0x40 DUP1 DUP4 KECCAK256 PUSH1 0x1 PUSH1 0x1 PUSH1 0xA0 SHL SUB DUP12 DUP2 AND DUP6 MSTORE SWAP3 MSTORE DUP1 DUP4 KECCAK256 SWAP4 SWAP1 SWAP4 SSTORE DUP8 AND DUP2 MSTORE KECCAK256 SLOAD PUSH2 0x2CB0 SWAP1 DUP5 PUSH2 0x2D5C JUMP JUMPDEST PUSH1 0x0 DUP6 DUP2 MSTORE PUSH1 0x1 PUSH1 0x20 SWAP1 DUP2 MSTORE PUSH1 0x40 DUP1 DUP4 KECCAK256 PUSH1 0x1 PUSH1 0x1 PUSH1 0xA0 SHL SUB DUP11 DUP2 AND DUP1 DUP7 MSTORE SWAP2 DUP5 MSTORE SWAP4 DUP3 SWAP1 KECCAK256 SWAP5 SWAP1 SWAP5 SSTORE DUP1 MLOAD DUP9 DUP2 MSTORE SWAP2 DUP3 ADD DUP8 SWAP1 MSTORE DUP10 DUP4 AND SWAP3 DUP6 AND SWAP2 PUSH32 0xC3D58168C5AE7397731D063D5BBF3D657854427343F4C083240F7AACAA2D0F62 SWAP2 ADD PUSH1 0x40 MLOAD DUP1 SWAP2 SUB SWAP1 LOG4 PUSH2 0xF9D DUP2 DUP8 DUP8 DUP8 DUP8 DUP8 PUSH2 0x3913 JUMP JUMPDEST PUSH1 0x0 DUP2 DUP5 DUP5 GT ISZERO PUSH2 0x2D49 JUMPI PUSH1 0x40 MLOAD PUSH3 0x461BCD PUSH1 0xE5 SHL DUP2 MSTORE PUSH1 0x4 ADD PUSH2 0x502 SWAP2 SWAP1 PUSH2 0x3FE6 JUMP JUMPDEST POP PUSH2 0x2D54 DUP4 DUP6 PUSH2 0x46E5 JUMP JUMPDEST SWAP5 SWAP4 POP POP POP POP JUMP JUMPDEST PUSH1 0x0 DUP1 PUSH2 0x2D69 DUP4 DUP6 PUSH2 0x4739 JUMP JUMPDEST SWAP1 POP DUP4 DUP2 LT ISZERO PUSH2 0x2DBB JUMPI PUSH1 0x40 MLOAD PUSH3 0x461BCD PUSH1 0xE5 SHL DUP2 MSTORE PUSH1 0x20 PUSH1 0x4 DUP3 ADD MSTORE PUSH1 0x1B PUSH1 0x24 DUP3 ADD MSTORE PUSH32 0x536166654D6174683A206164646974696F6E206F766572666C6F770000000000 PUSH1 0x44 DUP3 ADD MSTORE PUSH1 0x64 ADD PUSH2 0x502 JUMP JUMPDEST SWAP4 SWAP3 POP POP POP JUMP JUMPDEST PUSH1 0x1 PUSH1 0x1 PUSH1 0xA0 SHL SUB DUP5 AND EXTCODESIZE ISZERO PUSH2 0xF9D JUMPI PUSH1 0x40 MLOAD PUSH4 0xBC197C81 PUSH1 0xE0 SHL DUP2 MSTORE PUSH1 0x1 PUSH1 0x1 PUSH1 0xA0 SHL SUB DUP6 AND SWAP1 PUSH4 0xBC197C81 SWAP1 PUSH2 0x2E06 SWAP1 DUP10 SWAP1 DUP10 SWAP1 DUP9 SWAP1 DUP9 SWAP1 DUP9 SWAP1 PUSH1 0x4 ADD PUSH2 0x4C22 JUMP JUMPDEST PUSH1 0x20 PUSH1 0x40 MLOAD DUP1 DUP4 SUB DUP2 PUSH1 0x0 DUP8 GAS CALL SWAP3 POP POP POP DUP1 ISZERO PUSH2 0x2E41 JUMPI POP PUSH1 0x40 DUP1 MLOAD PUSH1 0x1F RETURNDATASIZE SWAP1 DUP2 ADD PUSH1 0x1F NOT AND DUP3 ADD SWAP1 SWAP3 MSTORE PUSH2 0x2E3E SWAP2 DUP2 ADD SWAP1 PUSH2 0x4C80 JUMP JUMPDEST PUSH1 0x1 JUMPDEST PUSH2 0x2EED JUMPI PUSH2 0x2E4D PUSH2 0x4C9D JUMP JUMPDEST DUP1 PUSH4 0x8C379A0 SUB PUSH2 0x2E86 JUMPI POP PUSH2 0x2E61 PUSH2 0x4CB9 JUMP JUMPDEST DUP1 PUSH2 0x2E6C JUMPI POP PUSH2 0x2E88 JUMP JUMPDEST DUP1 PUSH1 0x40 MLOAD PUSH3 0x461BCD PUSH1 0xE5 SHL DUP2 MSTORE PUSH1 0x4 ADD PUSH2 0x502 SWAP2 SWAP1 PUSH2 0x3FE6 JUMP JUMPDEST POP JUMPDEST PUSH1 0x40 MLOAD PUSH3 0x461BCD PUSH1 0xE5 SHL DUP2 MSTORE PUSH1 0x20 PUSH1 0x4 DUP3 ADD MSTORE PUSH1 0x34 PUSH1 0x24 DUP3 ADD MSTORE PUSH32 0x455243313135353A207472616E7366657220746F206E6F6E2045524331313535 PUSH1 0x44 DUP3 ADD MSTORE PUSH20 0x2932B1B2B4BB32B91034B6B83632B6B2B73A32B9 PUSH1 0x61 SHL PUSH1 0x64 DUP3 ADD MSTORE PUSH1 0x84 ADD PUSH2 0x502 JUMP JUMPDEST PUSH1 0x1 PUSH1 0x1 PUSH1 0xE0 SHL SUB NOT DUP2 AND PUSH4 0xBC197C81 PUSH1 0xE0 SHL EQ PUSH2 0x2F1D JUMPI PUSH1 0x40 MLOAD PUSH3 0x461BCD PUSH1 0xE5 SHL DUP2 MSTORE PUSH1 0x4 ADD PUSH2 0x502 SWAP1 PUSH2 0x4D43 JUMP JUMPDEST POP POP POP POP POP POP POP JUMP JUMPDEST PUSH1 0x0 PUSH1 0xC DUP3 DUP2 SLOAD DUP2 LT PUSH2 0x2F3B JUMPI PUSH2 0x2F3B PUSH2 0x4891 JUMP JUMPDEST PUSH1 0x0 SWAP2 DUP3 MSTORE PUSH1 0x20 SWAP1 SWAP2 KECCAK256 PUSH1 0xB SWAP1 SWAP2 MUL ADD PUSH1 0x4 ADD SLOAD PUSH1 0x1 PUSH1 0x1 PUSH1 0xA0 SHL SUB AND CALLER EQ DUP1 PUSH2 0x2F93 JUMPI POP PUSH1 0xC DUP3 DUP2 SLOAD DUP2 LT PUSH2 0x2F73 JUMPI PUSH2 0x2F73 PUSH2 0x4891 JUMP JUMPDEST PUSH1 0x0 SWAP2 DUP3 MSTORE PUSH1 0x20 SWAP1 SWAP2 KECCAK256 PUSH1 0xB SWAP1 SWAP2 MUL ADD PUSH1 0x5 ADD SLOAD PUSH1 0x1 PUSH1 0x1 PUSH1 0xA0 SHL SUB AND CALLER EQ JUMPDEST PUSH2 0x2F9E JUMPI PUSH1 0x0 PUSH2 0x530 JUMP JUMPDEST PUSH1 0x1 SWAP3 SWAP2 POP POP JUMP JUMPDEST PUSH1 0x0 DUP1 JUMPDEST PUSH1 0xD SLOAD DUP2 LT ISZERO PUSH2 0x34D9 JUMPI PUSH1 0x0 PUSH1 0xD DUP3 DUP2 SLOAD DUP2 LT PUSH2 0x2FC9 JUMPI PUSH2 0x2FC9 PUSH2 0x4891 JUMP JUMPDEST SWAP1 PUSH1 0x0 MSTORE PUSH1 0x20 PUSH1 0x0 KECCAK256 ADD DUP1 SLOAD DUP1 PUSH1 0x20 MUL PUSH1 0x20 ADD PUSH1 0x40 MLOAD SWAP1 DUP2 ADD PUSH1 0x40 MSTORE DUP1 SWAP3 SWAP2 SWAP1 DUP2 DUP2 MSTORE PUSH1 0x20 ADD DUP3 DUP1 SLOAD DUP1 ISZERO PUSH2 0x301D JUMPI PUSH1 0x20 MUL DUP3 ADD SWAP2 SWAP1 PUSH1 0x0 MSTORE PUSH1 0x20 PUSH1 0x0 KECCAK256 SWAP1 JUMPDEST DUP2 SLOAD DUP2 MSTORE PUSH1 0x20 ADD SWAP1 PUSH1 0x1 ADD SWAP1 DUP1 DUP4 GT PUSH2 0x3009 JUMPI JUMPDEST POP POP POP POP POP SWAP1 POP PUSH1 0x0 PUSH1 0xC DUP6 DUP2 SLOAD DUP2 LT PUSH2 0x3039 JUMPI PUSH2 0x3039 PUSH2 0x4891 JUMP JUMPDEST SWAP1 PUSH1 0x0 MSTORE PUSH1 0x20 PUSH1 0x0 KECCAK256 SWAP1 PUSH1 0xB MUL ADD PUSH1 0x2 ADD DUP3 PUSH1 0x0 DUP2 MLOAD DUP2 LT PUSH2 0x305D JUMPI PUSH2 0x305D PUSH2 0x4891 JUMP JUMPDEST PUSH1 0x20 MUL PUSH1 0x20 ADD ADD MLOAD DUP2 SLOAD DUP2 LT PUSH2 0x3075 JUMPI PUSH2 0x3075 PUSH2 0x4891 JUMP JUMPDEST SWAP1 PUSH1 0x0 MSTORE PUSH1 0x20 PUSH1 0x0 KECCAK256 ADD DUP1 SLOAD PUSH2 0x308A SWAP1 PUSH2 0x474C JUMP JUMPDEST DUP1 PUSH1 0x1F ADD PUSH1 0x20 DUP1 SWAP2 DIV MUL PUSH1 0x20 ADD PUSH1 0x40 MLOAD SWAP1 DUP2 ADD PUSH1 0x40 MSTORE DUP1 SWAP3 SWAP2 SWAP1 DUP2 DUP2 MSTORE PUSH1 0x20 ADD DUP3 DUP1 SLOAD PUSH2 0x30B6 SWAP1 PUSH2 0x474C JUMP JUMPDEST DUP1 ISZERO PUSH2 0x3103 JUMPI DUP1 PUSH1 0x1F LT PUSH2 0x30D8 JUMPI PUSH2 0x100 DUP1 DUP4 SLOAD DIV MUL DUP4 MSTORE SWAP2 PUSH1 0x20 ADD SWAP2 PUSH2 0x3103 JUMP JUMPDEST DUP3 ADD SWAP2 SWAP1 PUSH1 0x0 MSTORE PUSH1 0x20 PUSH1 0x0 KECCAK256 SWAP1 JUMPDEST DUP2 SLOAD DUP2 MSTORE SWAP1 PUSH1 0x1 ADD SWAP1 PUSH1 0x20 ADD DUP1 DUP4 GT PUSH2 0x30E6 JUMPI DUP3 SWAP1 SUB PUSH1 0x1F AND DUP3 ADD SWAP2 JUMPDEST POP POP POP POP POP SWAP1 POP PUSH1 0x0 PUSH1 0xC DUP7 DUP2 SLOAD DUP2 LT PUSH2 0x311F JUMPI PUSH2 0x311F PUSH2 0x4891 JUMP JUMPDEST SWAP1 PUSH1 0x0 MSTORE PUSH1 0x20 PUSH1 0x0 KECCAK256 SWAP1 PUSH1 0xB MUL ADD PUSH1 0x2 ADD DUP4 PUSH1 0x1 DUP2 MLOAD DUP2 LT PUSH2 0x3143 JUMPI PUSH2 0x3143 PUSH2 0x4891 JUMP JUMPDEST PUSH1 0x20 MUL PUSH1 0x20 ADD ADD MLOAD DUP2 SLOAD DUP2 LT PUSH2 0x315B JUMPI PUSH2 0x315B PUSH2 0x4891 JUMP JUMPDEST SWAP1 PUSH1 0x0 MSTORE PUSH1 0x20 PUSH1 0x0 KECCAK256 ADD DUP1 SLOAD PUSH2 0x3170 SWAP1 PUSH2 0x474C JUMP JUMPDEST DUP1 PUSH1 0x1F ADD PUSH1 0x20 DUP1 SWAP2 DIV MUL PUSH1 0x20 ADD PUSH1 0x40 MLOAD SWAP1 DUP2 ADD PUSH1 0x40 MSTORE DUP1 SWAP3 SWAP2 SWAP1 DUP2 DUP2 MSTORE PUSH1 0x20 ADD DUP3 DUP1 SLOAD PUSH2 0x319C SWAP1 PUSH2 0x474C JUMP JUMPDEST DUP1 ISZERO PUSH2 0x31E9 JUMPI DUP1 PUSH1 0x1F LT PUSH2 0x31BE JUMPI PUSH2 0x100 DUP1 DUP4 SLOAD DIV MUL DUP4 MSTORE SWAP2 PUSH1 0x20 ADD SWAP2 PUSH2 0x31E9 JUMP JUMPDEST DUP3 ADD SWAP2 SWAP1 PUSH1 0x0 MSTORE PUSH1 0x20 PUSH1 0x0 KECCAK256 SWAP1 JUMPDEST DUP2 SLOAD DUP2 MSTORE SWAP1 PUSH1 0x1 ADD SWAP1 PUSH1 0x20 ADD DUP1 DUP4 GT PUSH2 0x31CC JUMPI DUP3 SWAP1 SUB PUSH1 0x1F AND DUP3 ADD SWAP2 JUMPDEST POP POP POP POP POP SWAP1 POP PUSH1 0x0 PUSH1 0xC DUP8 DUP2 SLOAD DUP2 LT PUSH2 0x3205 JUMPI PUSH2 0x3205 PUSH2 0x4891 JUMP JUMPDEST SWAP1 PUSH1 0x0 MSTORE PUSH1 0x20 PUSH1 0x0 KECCAK256 SWAP1 PUSH1 0xB MUL ADD PUSH1 0x2 ADD DUP5 PUSH1 0x2 DUP2 MLOAD DUP2 LT PUSH2 0x3229 JUMPI PUSH2 0x3229 PUSH2 0x4891 JUMP JUMPDEST PUSH1 0x20 MUL PUSH1 0x20 ADD ADD MLOAD DUP2 SLOAD DUP2 LT PUSH2 0x3241 JUMPI PUSH2 0x3241 PUSH2 0x4891 JUMP JUMPDEST SWAP1 PUSH1 0x0 MSTORE PUSH1 0x20 PUSH1 0x0 KECCAK256 ADD DUP1 SLOAD PUSH2 0x3256 SWAP1 PUSH2 0x474C JUMP JUMPDEST DUP1 PUSH1 0x1F ADD PUSH1 0x20 DUP1 SWAP2 DIV MUL PUSH1 0x20 ADD PUSH1 0x40 MLOAD SWAP1 DUP2 ADD PUSH1 0x40 MSTORE DUP1 SWAP3 SWAP2 SWAP1 DUP2 DUP2 MSTORE PUSH1 0x20 ADD DUP3 DUP1 SLOAD PUSH2 0x3282 SWAP1 PUSH2 0x474C JUMP JUMPDEST DUP1 ISZERO PUSH2 0x32CF JUMPI DUP1 PUSH1 0x1F LT PUSH2 0x32A4 JUMPI PUSH2 0x100 DUP1 DUP4 SLOAD DIV MUL DUP4 MSTORE SWAP2 PUSH1 0x20 ADD SWAP2 PUSH2 0x32CF JUMP JUMPDEST DUP3 ADD SWAP2 SWAP1 PUSH1 0x0 MSTORE PUSH1 0x20 PUSH1 0x0 KECCAK256 SWAP1 JUMPDEST DUP2 SLOAD DUP2 MSTORE SWAP1 PUSH1 0x1 ADD SWAP1 PUSH1 0x20 ADD DUP1 DUP4 GT PUSH2 0x32B2 JUMPI DUP3 SWAP1 SUB PUSH1 0x1F AND DUP3 ADD SWAP2 JUMPDEST POP POP POP POP POP SWAP1 POP PUSH2 0x32EF DUP4 PUSH1 0x40 MLOAD DUP1 PUSH1 0x20 ADD PUSH1 0x40 MSTORE DUP1 PUSH1 0x0 DUP2 MSTORE POP PUSH2 0x2954 JUMP JUMPDEST DUP1 PUSH2 0x330E JUMPI POP PUSH2 0x330E DUP3 PUSH1 0x40 MLOAD DUP1 PUSH1 0x20 ADD PUSH1 0x40 MSTORE DUP1 PUSH1 0x0 DUP2 MSTORE POP PUSH2 0x2954 JUMP JUMPDEST DUP1 PUSH2 0x332D JUMPI POP PUSH2 0x332D DUP2 PUSH1 0x40 MLOAD DUP1 PUSH1 0x20 ADD PUSH1 0x40 MSTORE DUP1 PUSH1 0x0 DUP2 MSTORE POP PUSH2 0x2954 JUMP JUMPDEST ISZERO PUSH2 0x333B JUMPI POP POP POP POP PUSH2 0x34C7 JUMP JUMPDEST PUSH2 0x3345 DUP4 DUP4 PUSH2 0x2954 JUMP JUMPDEST DUP1 ISZERO PUSH2 0x3356 JUMPI POP PUSH2 0x3356 DUP3 DUP3 PUSH2 0x2954 JUMP JUMPDEST ISZERO PUSH2 0x34C2 JUMPI DUP4 PUSH1 0xC DUP9 DUP2 SLOAD DUP2 LT PUSH2 0x336F JUMPI PUSH2 0x336F PUSH2 0x4891 JUMP JUMPDEST SWAP1 PUSH1 0x0 MSTORE PUSH1 0x20 PUSH1 0x0 KECCAK256 SWAP1 PUSH1 0xB MUL ADD PUSH1 0x3 ADD SWAP1 DUP1 MLOAD SWAP1 PUSH1 0x20 ADD SWAP1 PUSH2 0x3393 SWAP3 SWAP2 SWAP1 PUSH2 0x3E0B JUMP JUMPDEST POP PUSH2 0x33AA PUSH1 0xC DUP9 DUP2 SLOAD DUP2 LT PUSH2 0x174F JUMPI PUSH2 0x174F PUSH2 0x4891 JUMP JUMPDEST ISZERO PUSH2 0x3434 JUMPI PUSH1 0xC DUP8 DUP2 SLOAD DUP2 LT PUSH2 0x33C2 JUMPI PUSH2 0x33C2 PUSH2 0x4891 JUMP JUMPDEST SWAP1 PUSH1 0x0 MSTORE PUSH1 0x20 PUSH1 0x0 KECCAK256 SWAP1 PUSH1 0xB MUL ADD PUSH1 0x4 ADD PUSH1 0x0 SWAP1 SLOAD SWAP1 PUSH2 0x100 EXP SWAP1 DIV PUSH1 0x1 PUSH1 0x1 PUSH1 0xA0 SHL SUB AND PUSH1 0xC DUP9 DUP2 SLOAD DUP2 LT PUSH2 0x33FA JUMPI PUSH2 0x33FA PUSH2 0x4891 JUMP JUMPDEST SWAP1 PUSH1 0x0 MSTORE PUSH1 0x20 PUSH1 0x0 KECCAK256 SWAP1 PUSH1 0xB MUL ADD PUSH1 0x7 ADD PUSH1 0x0 PUSH2 0x100 EXP DUP2 SLOAD DUP2 PUSH1 0x1 PUSH1 0x1 PUSH1 0xA0 SHL SUB MUL NOT AND SWAP1 DUP4 PUSH1 0x1 PUSH1 0x1 PUSH1 0xA0 SHL SUB AND MUL OR SWAP1 SSTORE POP PUSH2 0x34B5 JUMP JUMPDEST PUSH1 0xC DUP8 DUP2 SLOAD DUP2 LT PUSH2 0x3447 JUMPI PUSH2 0x3447 PUSH2 0x4891 JUMP JUMPDEST SWAP1 PUSH1 0x0 MSTORE PUSH1 0x20 PUSH1 0x0 KECCAK256 SWAP1 PUSH1 0xB MUL ADD PUSH1 0x5 ADD PUSH1 0x0 SWAP1 SLOAD SWAP1 PUSH2 0x100 EXP SWAP1 DIV PUSH1 0x1 PUSH1 0x1 PUSH1 0xA0 SHL SUB AND PUSH1 0xC DUP9 DUP2 SLOAD DUP2 LT PUSH2 0x347F JUMPI PUSH2 0x347F PUSH2 0x4891 JUMP JUMPDEST SWAP1 PUSH1 0x0 MSTORE PUSH1 0x20 PUSH1 0x0 KECCAK256 SWAP1 PUSH1 0xB MUL ADD PUSH1 0x7 ADD PUSH1 0x0 PUSH2 0x100 EXP DUP2 SLOAD DUP2 PUSH1 0x1 PUSH1 0x1 PUSH1 0xA0 SHL SUB MUL NOT AND SWAP1 DUP4 PUSH1 0x1 PUSH1 0x1 PUSH1 0xA0 SHL SUB AND MUL OR SWAP1 SSTORE POP JUMPDEST PUSH1 0x1 SWAP6 POP POP POP POP POP PUSH2 0x34D9 JUMP JUMPDEST POP POP POP POP JUMPDEST DUP1 PUSH2 0x34D1 DUP2 PUSH2 0x48A7 JUMP JUMPDEST SWAP2 POP POP PUSH2 0x2FAA JUMP JUMPDEST POP DUP1 ISZERO PUSH2 0x3863 JUMPI PUSH2 0x34F6 PUSH1 0xC DUP4 DUP2 SLOAD DUP2 LT PUSH2 0x174F JUMPI PUSH2 0x174F PUSH2 0x4891 JUMP JUMPDEST ISZERO PUSH2 0x3643 JUMPI PUSH1 0x4 SLOAD PUSH1 0xC DUP1 SLOAD PUSH1 0x1 PUSH1 0x1 PUSH1 0xA0 SHL SUB SWAP1 SWAP3 AND SWAP2 PUSH4 0xA9059CBB SWAP2 SWAP1 DUP6 SWAP1 DUP2 LT PUSH2 0x3525 JUMPI PUSH2 0x3525 PUSH2 0x4891 JUMP JUMPDEST SWAP1 PUSH1 0x0 MSTORE PUSH1 0x20 PUSH1 0x0 KECCAK256 SWAP1 PUSH1 0xB MUL ADD PUSH1 0x4 ADD PUSH1 0x0 SWAP1 SLOAD SWAP1 PUSH2 0x100 EXP SWAP1 DIV PUSH1 0x1 PUSH1 0x1 PUSH1 0xA0 SHL SUB AND PUSH1 0xC DUP6 DUP2 SLOAD DUP2 LT PUSH2 0x355D JUMPI PUSH2 0x355D PUSH2 0x4891 JUMP JUMPDEST SWAP1 PUSH1 0x0 MSTORE PUSH1 0x20 PUSH1 0x0 KECCAK256 SWAP1 PUSH1 0xB MUL ADD PUSH1 0xA ADD SLOAD PUSH1 0x2 PUSH2 0x357B SWAP2 SWAP1 PUSH2 0x46AC JUMP JUMPDEST PUSH1 0x40 MLOAD PUSH1 0x1 PUSH1 0x1 PUSH1 0xE0 SHL SUB NOT PUSH1 0xE0 DUP6 SWAP1 SHL AND DUP2 MSTORE PUSH1 0x1 PUSH1 0x1 PUSH1 0xA0 SHL SUB SWAP1 SWAP3 AND PUSH1 0x4 DUP4 ADD MSTORE PUSH1 0x24 DUP3 ADD MSTORE PUSH1 0x44 ADD PUSH1 0x20 PUSH1 0x40 MLOAD DUP1 DUP4 SUB DUP2 PUSH1 0x0 DUP8 GAS CALL ISZERO DUP1 ISZERO PUSH2 0x35C6 JUMPI RETURNDATASIZE PUSH1 0x0 DUP1 RETURNDATACOPY RETURNDATASIZE PUSH1 0x0 REVERT JUMPDEST POP POP POP POP PUSH1 0x40 MLOAD RETURNDATASIZE PUSH1 0x1F NOT PUSH1 0x1F DUP3 ADD AND DUP3 ADD DUP1 PUSH1 0x40 MSTORE POP DUP2 ADD SWAP1 PUSH2 0x35EA SWAP2 SWAP1 PUSH2 0x471C JUMP JUMPDEST POP PUSH2 0x363E PUSH1 0xC DUP4 DUP2 SLOAD DUP2 LT PUSH2 0x3601 JUMPI PUSH2 0x3601 PUSH2 0x4891 JUMP JUMPDEST SWAP1 PUSH1 0x0 MSTORE PUSH1 0x20 PUSH1 0x0 KECCAK256 SWAP1 PUSH1 0xB MUL ADD PUSH1 0x4 ADD PUSH1 0x0 SWAP1 SLOAD SWAP1 PUSH2 0x100 EXP SWAP1 DIV PUSH1 0x1 PUSH1 0x1 PUSH1 0xA0 SHL SUB AND DUP4 PUSH1 0x1 PUSH1 0x40 MLOAD DUP1 PUSH1 0x20 ADD PUSH1 0x40 MSTORE DUP1 PUSH1 0x0 DUP2 MSTORE POP PUSH2 0x39CE JUMP JUMPDEST PUSH2 0x3786 JUMP JUMPDEST PUSH1 0x4 SLOAD PUSH1 0xC DUP1 SLOAD PUSH1 0x1 PUSH1 0x1 PUSH1 0xA0 SHL SUB SWAP1 SWAP3 AND SWAP2 PUSH4 0xA9059CBB SWAP2 SWAP1 DUP6 SWAP1 DUP2 LT PUSH2 0x366D JUMPI PUSH2 0x366D PUSH2 0x4891 JUMP JUMPDEST SWAP1 PUSH1 0x0 MSTORE PUSH1 0x20 PUSH1 0x0 KECCAK256 SWAP1 PUSH1 0xB MUL ADD PUSH1 0x5 ADD PUSH1 0x0 SWAP1 SLOAD SWAP1 PUSH2 0x100 EXP SWAP1 DIV PUSH1 0x1 PUSH1 0x1 PUSH1 0xA0 SHL SUB AND PUSH1 0xC DUP6 DUP2 SLOAD DUP2 LT PUSH2 0x36A5 JUMPI PUSH2 0x36A5 PUSH2 0x4891 JUMP JUMPDEST SWAP1 PUSH1 0x0 MSTORE PUSH1 0x20 PUSH1 0x0 KECCAK256 SWAP1 PUSH1 0xB MUL ADD PUSH1 0xA ADD SLOAD PUSH1 0x2 PUSH2 0x36C3 SWAP2 SWAP1 PUSH2 0x46AC JUMP JUMPDEST PUSH1 0x40 MLOAD PUSH1 0x1 PUSH1 0x1 PUSH1 0xE0 SHL SUB NOT PUSH1 0xE0 DUP6 SWAP1 SHL AND DUP2 MSTORE PUSH1 0x1 PUSH1 0x1 PUSH1 0xA0 SHL SUB SWAP1 SWAP3 AND PUSH1 0x4 DUP4 ADD MSTORE PUSH1 0x24 DUP3 ADD MSTORE PUSH1 0x44 ADD PUSH1 0x20 PUSH1 0x40 MLOAD DUP1 DUP4 SUB DUP2 PUSH1 0x0 DUP8 GAS CALL ISZERO DUP1 ISZERO PUSH2 0x370E JUMPI RETURNDATASIZE PUSH1 0x0 DUP1 RETURNDATACOPY RETURNDATASIZE PUSH1 0x0 REVERT JUMPDEST POP POP POP POP PUSH1 0x40 MLOAD RETURNDATASIZE PUSH1 0x1F NOT PUSH1 0x1F DUP3 ADD AND DUP3 ADD DUP1 PUSH1 0x40 MSTORE POP DUP2 ADD SWAP1 PUSH2 0x3732 SWAP2 SWAP1 PUSH2 0x471C JUMP JUMPDEST POP PUSH2 0x3786 PUSH1 0xC DUP4 DUP2 SLOAD DUP2 LT PUSH2 0x3749 JUMPI PUSH2 0x3749 PUSH2 0x4891 JUMP JUMPDEST SWAP1 PUSH1 0x0 MSTORE PUSH1 0x20 PUSH1 0x0 KECCAK256 SWAP1 PUSH1 0xB MUL ADD PUSH1 0x5 ADD PUSH1 0x0 SWAP1 SLOAD SWAP1 PUSH2 0x100 EXP SWAP1 DIV PUSH1 0x1 PUSH1 0x1 PUSH1 0xA0 SHL SUB AND DUP4 PUSH1 0x1 PUSH1 0x40 MLOAD DUP1 PUSH1 0x20 ADD PUSH1 0x40 MSTORE DUP1 PUSH1 0x0 DUP2 MSTORE POP PUSH2 0x39CE JUMP JUMPDEST PUSH1 0xC DUP3 DUP2 SLOAD DUP2 LT PUSH2 0x3799 JUMPI PUSH2 0x3799 PUSH2 0x4891 JUMP JUMPDEST SWAP1 PUSH1 0x0 MSTORE PUSH1 0x20 PUSH1 0x0 KECCAK256 SWAP1 PUSH1 0xB MUL ADD PUSH1 0xA ADD SLOAD PUSH1 0x2 PUSH2 0x37B7 SWAP2 SWAP1 PUSH2 0x46AC JUMP JUMPDEST PUSH1 0xA PUSH1 0x0 DUP3 DUP3 SLOAD PUSH2 0x37C8 SWAP2 SWAP1 PUSH2 0x46E5 JUMP JUMPDEST SWAP3 POP POP DUP2 SWAP1 SSTORE POP PUSH32 0x938A1C44580C51D01225D61FB97878104148B1CDC734EB45BC5B5B50533A492D PUSH1 0xC DUP4 DUP2 SLOAD DUP2 LT PUSH2 0x3803 JUMPI PUSH2 0x3803 PUSH2 0x4891 JUMP JUMPDEST SWAP1 PUSH1 0x0 MSTORE PUSH1 0x20 PUSH1 0x0 KECCAK256 SWAP1 PUSH1 0xB MUL ADD PUSH1 0x1 ADD DUP4 PUSH1 0x40 MLOAD PUSH2 0x3823 SWAP3 SWAP2 SWAP1 PUSH2 0x4D8B JUMP JUMPDEST PUSH1 0x40 MLOAD DUP1 SWAP2 SUB SWAP1 LOG1 PUSH1 0x0 PUSH1 0xC DUP4 DUP2 SLOAD DUP2 LT PUSH2 0x3840 JUMPI PUSH2 0x3840 PUSH2 0x4891 JUMP JUMPDEST PUSH1 0x0 SWAP2 DUP3 MSTORE PUSH1 0x20 SWAP1 SWAP2 KECCAK256 PUSH1 0xB SWAP1 SWAP2 MUL ADD DUP1 SLOAD PUSH1 0xFF NOT AND SWAP2 ISZERO ISZERO SWAP2 SWAP1 SWAP2 OR SWAP1 SSTORE POP POP JUMP JUMPDEST PUSH2 0x386C DUP3 PUSH2 0x3ADE JUMP JUMPDEST ISZERO PUSH2 0x38BF JUMPI PUSH1 0x40 DUP1 MLOAD DUP2 DUP2 MSTORE PUSH1 0x4 SWAP2 DUP2 ADD SWAP2 SWAP1 SWAP2 MSTORE PUSH4 0x44726177 PUSH1 0xE0 SHL PUSH1 0x60 DUP3 ADD MSTORE PUSH1 0x20 DUP2 ADD DUP4 SWAP1 MSTORE PUSH32 0x938A1C44580C51D01225D61FB97878104148B1CDC734EB45BC5B5B50533A492D SWAP1 PUSH1 0x80 ADD PUSH2 0x3823 JUMP JUMPDEST PUSH2 0x19D1 DUP3 PUSH2 0x3B72 JUMP JUMPDEST PUSH1 0x40 DUP1 MLOAD PUSH1 0x1 DUP1 DUP3 MSTORE DUP2 DUP4 ADD SWAP1 SWAP3 MSTORE PUSH1 0x60 SWAP2 PUSH1 0x0 SWAP2 SWAP1 PUSH1 0x20 DUP1 DUP4 ADD SWAP1 DUP1 CALLDATASIZE DUP4 CALLDATACOPY ADD SWAP1 POP POP SWAP1 POP DUP3 DUP2 PUSH1 0x0 DUP2 MLOAD DUP2 LT PUSH2 0x3902 JUMPI PUSH2 0x3902 PUSH2 0x4891 JUMP JUMPDEST PUSH1 0x20 SWAP1 DUP2 MUL SWAP2 SWAP1 SWAP2 ADD ADD MSTORE SWAP3 SWAP2 POP POP JUMP JUMPDEST PUSH1 0x1 PUSH1 0x1 PUSH1 0xA0 SHL SUB DUP5 AND EXTCODESIZE ISZERO PUSH2 0xF9D JUMPI PUSH1 0x40 MLOAD PUSH4 0xF23A6E61 PUSH1 0xE0 SHL DUP2 MSTORE PUSH1 0x1 PUSH1 0x1 PUSH1 0xA0 SHL SUB DUP6 AND SWAP1 PUSH4 0xF23A6E61 SWAP1 PUSH2 0x3957 SWAP1 DUP10 SWAP1 DUP10 SWAP1 DUP9 SWAP1 DUP9 SWAP1 DUP9 SWAP1 PUSH1 0x4 ADD PUSH2 0x4D9E JUMP JUMPDEST PUSH1 0x20 PUSH1 0x40 MLOAD DUP1 DUP4 SUB DUP2 PUSH1 0x0 DUP8 GAS CALL SWAP3 POP POP POP DUP1 ISZERO PUSH2 0x3992 JUMPI POP PUSH1 0x40 DUP1 MLOAD PUSH1 0x1F RETURNDATASIZE SWAP1 DUP2 ADD PUSH1 0x1F NOT AND DUP3 ADD SWAP1 SWAP3 MSTORE PUSH2 0x398F SWAP2 DUP2 ADD SWAP1 PUSH2 0x4C80 JUMP JUMPDEST PUSH1 0x1 JUMPDEST PUSH2 0x399E JUMPI PUSH2 0x2E4D PUSH2 0x4C9D JUMP JUMPDEST PUSH1 0x1 PUSH1 0x1 PUSH1 0xE0 SHL SUB NOT DUP2 AND PUSH4 0xF23A6E61 PUSH1 0xE0 SHL EQ PUSH2 0x2F1D JUMPI PUSH1 0x40 MLOAD PUSH3 0x461BCD PUSH1 0xE5 SHL DUP2 MSTORE PUSH1 0x4 ADD PUSH2 0x502 SWAP1 PUSH2 0x4D43 JUMP JUMPDEST PUSH1 0x1 PUSH1 0x1 PUSH1 0xA0 SHL SUB DUP5 AND PUSH2 0x3A2E JUMPI PUSH1 0x40 MLOAD PUSH3 0x461BCD PUSH1 0xE5 SHL DUP2 MSTORE PUSH1 0x20 PUSH1 0x4 DUP3 ADD MSTORE PUSH1 0x21 PUSH1 0x24 DUP3 ADD MSTORE PUSH32 0x455243313135353A206D696E7420746F20746865207A65726F20616464726573 PUSH1 0x44 DUP3 ADD MSTORE PUSH1 0x73 PUSH1 0xF8 SHL PUSH1 0x64 DUP3 ADD MSTORE PUSH1 0x84 ADD PUSH2 0x502 JUMP JUMPDEST CALLER PUSH2 0x3A3F DUP2 PUSH1 0x0 DUP8 PUSH2 0x2C22 DUP9 PUSH2 0x38C8 JUMP JUMPDEST PUSH1 0x0 DUP5 DUP2 MSTORE PUSH1 0x1 PUSH1 0x20 SWAP1 DUP2 MSTORE PUSH1 0x40 DUP1 DUP4 KECCAK256 PUSH1 0x1 PUSH1 0x1 PUSH1 0xA0 SHL SUB DUP10 AND DUP5 MSTORE SWAP1 SWAP2 MSTORE SWAP1 KECCAK256 SLOAD PUSH2 0x3A6C SWAP1 DUP5 PUSH2 0x2D5C JUMP JUMPDEST PUSH1 0x0 DUP6 DUP2 MSTORE PUSH1 0x1 PUSH1 0x20 SWAP1 DUP2 MSTORE PUSH1 0x40 DUP1 DUP4 KECCAK256 PUSH1 0x1 PUSH1 0x1 PUSH1 0xA0 SHL SUB DUP11 DUP2 AND DUP1 DUP7 MSTORE SWAP2 DUP5 MSTORE DUP3 DUP6 KECCAK256 SWAP6 SWAP1 SWAP6 SSTORE DUP2 MLOAD DUP10 DUP2 MSTORE SWAP3 DUP4 ADD DUP9 SWAP1 MSTORE SWAP4 DUP6 AND SWAP2 PUSH32 0xC3D58168C5AE7397731D063D5BBF3D657854427343F4C083240F7AACAA2D0F62 SWAP2 ADD PUSH1 0x40 MLOAD DUP1 SWAP2 SUB SWAP1 LOG4 PUSH2 0x2C2B DUP2 PUSH1 0x0 DUP8 DUP8 DUP8 DUP8 PUSH2 0x3913 JUMP JUMPDEST PUSH1 0x0 DUP1 JUMPDEST PUSH1 0xC DUP4 DUP2 SLOAD DUP2 LT PUSH2 0x3AF5 JUMPI PUSH2 0x3AF5 PUSH2 0x4891 JUMP JUMPDEST SWAP1 PUSH1 0x0 MSTORE PUSH1 0x20 PUSH1 0x0 KECCAK256 SWAP1 PUSH1 0xB MUL ADD PUSH1 0x2 ADD DUP1 SLOAD SWAP1 POP DUP2 LT ISZERO PUSH2 0x3B69 JUMPI PUSH2 0x3B49 PUSH1 0xC DUP5 DUP2 SLOAD DUP2 LT PUSH2 0x3B27 JUMPI PUSH2 0x3B27 PUSH2 0x4891 JUMP JUMPDEST SWAP1 PUSH1 0x0 MSTORE PUSH1 0x20 PUSH1 0x0 KECCAK256 SWAP1 PUSH1 0xB MUL ADD PUSH1 0x2 ADD DUP3 DUP2 SLOAD DUP2 LT PUSH2 0x1655 JUMPI PUSH2 0x1655 PUSH2 0x4891 JUMP JUMPDEST ISZERO PUSH2 0x3B57 JUMPI POP PUSH1 0x0 SWAP3 SWAP2 POP POP JUMP JUMPDEST DUP1 PUSH2 0x3B61 DUP2 PUSH2 0x48A7 JUMP JUMPDEST SWAP2 POP POP PUSH2 0x3AE2 JUMP JUMPDEST POP PUSH1 0x1 SWAP3 SWAP2 POP POP JUMP JUMPDEST PUSH2 0x3B88 PUSH1 0xC DUP3 DUP2 SLOAD DUP2 LT PUSH2 0x174F JUMPI PUSH2 0x174F PUSH2 0x4891 JUMP JUMPDEST ISZERO PUSH2 0x3BFB JUMPI PUSH32 0xEEFC3FD775B975165C9D067E02FCD5BF5889D58041AE6DDAF94F2CC853007272 PUSH1 0xC DUP3 DUP2 SLOAD DUP2 LT PUSH2 0x3BC1 JUMPI PUSH2 0x3BC1 PUSH2 0x4891 JUMP JUMPDEST PUSH1 0x0 SWAP2 DUP3 MSTORE PUSH1 0x20 SWAP2 DUP3 SWAP1 KECCAK256 PUSH1 0xB SWAP1 SWAP2 MUL ADD PUSH1 0x5 ADD SLOAD PUSH1 0x40 DUP1 MLOAD PUSH1 0x1 PUSH1 0x1 PUSH1 0xA0 SHL SUB SWAP1 SWAP3 AND DUP3 MSTORE SWAP2 DUP2 ADD DUP5 SWAP1 MSTORE ADD PUSH1 0x40 MLOAD DUP1 SWAP2 SUB SWAP1 LOG1 PUSH2 0x3C65 JUMP JUMPDEST PUSH32 0xEEFC3FD775B975165C9D067E02FCD5BF5889D58041AE6DDAF94F2CC853007272 PUSH1 0xC DUP3 DUP2 SLOAD DUP2 LT PUSH2 0x3C2F JUMPI PUSH2 0x3C2F PUSH2 0x4891 JUMP JUMPDEST PUSH1 0x0 SWAP2 DUP3 MSTORE PUSH1 0x20 SWAP2 DUP3 SWAP1 KECCAK256 PUSH1 0xB SWAP1 SWAP2 MUL ADD PUSH1 0x4 ADD SLOAD PUSH1 0x40 DUP1 MLOAD PUSH1 0x1 PUSH1 0x1 PUSH1 0xA0 SHL SUB SWAP1 SWAP3 AND DUP3 MSTORE SWAP2 DUP2 ADD DUP5 SWAP1 MSTORE ADD PUSH1 0x40 MLOAD DUP1 SWAP2 SUB SWAP1 LOG1 JUMPDEST PUSH2 0x3C7B PUSH1 0xC DUP3 DUP2 SLOAD DUP2 LT PUSH2 0x174F JUMPI PUSH2 0x174F PUSH2 0x4891 JUMP JUMPDEST PUSH2 0x3C9E JUMPI PUSH1 0x40 MLOAD DUP1 PUSH1 0x40 ADD PUSH1 0x40 MSTORE DUP1 PUSH1 0x1 DUP2 MSTORE PUSH1 0x20 ADD PUSH1 0xB PUSH1 0xFB SHL DUP2 MSTORE POP PUSH2 0x3CB9 JUMP JUMPDEST PUSH1 0x40 MLOAD DUP1 PUSH1 0x40 ADD PUSH1 0x40 MSTORE DUP1 PUSH1 0x1 DUP2 MSTORE PUSH1 0x20 ADD PUSH1 0x4F PUSH1 0xF8 SHL DUP2 MSTORE POP JUMPDEST PUSH1 0xC DUP3 DUP2 SLOAD DUP2 LT PUSH2 0x3CCC JUMPI PUSH2 0x3CCC PUSH2 0x4891 JUMP JUMPDEST SWAP1 PUSH1 0x0 MSTORE PUSH1 0x20 PUSH1 0x0 KECCAK256 SWAP1 PUSH1 0xB MUL ADD PUSH1 0x1 ADD SWAP1 DUP2 PUSH2 0x3CE9 SWAP2 SWAP1 PUSH2 0x47D1 JUMP JUMPDEST POP PUSH32 0xA6D1CB5F730B987124C37C3876130FDDBA49456449948EC4257360F5AB2851C0 PUSH1 0xC DUP3 DUP2 SLOAD DUP2 LT PUSH2 0x3D1E JUMPI PUSH2 0x3D1E PUSH2 0x4891 JUMP JUMPDEST SWAP1 PUSH1 0x0 MSTORE PUSH1 0x20 PUSH1 0x0 KECCAK256 SWAP1 PUSH1 0xB MUL ADD PUSH1 0x1 ADD DUP3 PUSH1 0x40 MLOAD PUSH2 0x1475 SWAP3 SWAP2 SWAP1 PUSH2 0x4D8B JUMP JUMPDEST PUSH1 0x40 MLOAD DUP1 PUSH2 0x160 ADD PUSH1 0x40 MSTORE DUP1 PUSH1 0x0 ISZERO ISZERO DUP2 MSTORE PUSH1 0x20 ADD PUSH1 0x60 DUP2 MSTORE PUSH1 0x20 ADD PUSH1 0x60 DUP2 MSTORE PUSH1 0x20 ADD PUSH1 0x60 DUP2 MSTORE PUSH1 0x20 ADD PUSH1 0x0 PUSH1 0x1 PUSH1 0x1 PUSH1 0xA0 SHL SUB AND DUP2 MSTORE PUSH1 0x20 ADD PUSH1 0x0 PUSH1 0x1 PUSH1 0x1 PUSH1 0xA0 SHL SUB AND DUP2 MSTORE PUSH1 0x20 ADD PUSH1 0x0 DUP2 MSTORE PUSH1 0x20 ADD PUSH1 0x0 PUSH1 0x1 PUSH1 0x1 PUSH1 0xA0 SHL SUB AND DUP2 MSTORE PUSH1 0x20 ADD PUSH1 0x0 DUP2 MSTORE PUSH1 0x20 ADD PUSH1 0x0 DUP2 MSTORE PUSH1 0x20 ADD PUSH1 0x0 DUP2 MSTORE POP SWAP1 JUMP JUMPDEST DUP3 DUP1 SLOAD DUP3 DUP3 SSTORE SWAP1 PUSH1 0x0 MSTORE PUSH1 0x20 PUSH1 0x0 KECCAK256 SWAP1 DUP2 ADD SWAP3 DUP3 ISZERO PUSH2 0x3DFB JUMPI SWAP2 PUSH1 0x20 MUL DUP3 ADD JUMPDEST DUP3 DUP2 GT ISZERO PUSH2 0x3DFB JUMPI DUP3 MLOAD DUP3 SWAP1 PUSH2 0x3DEB SWAP1 DUP3 PUSH2 0x47D1 JUMP JUMPDEST POP SWAP2 PUSH1 0x20 ADD SWAP2 SWAP1 PUSH1 0x1 ADD SWAP1 PUSH2 0x3DD5 JUMP JUMPDEST POP PUSH2 0x3E07 SWAP3 SWAP2 POP PUSH2 0x3E98 JUMP JUMPDEST POP SWAP1 JUMP JUMPDEST DUP3 DUP1 SLOAD DUP3 DUP3 SSTORE SWAP1 PUSH1 0x0 MSTORE PUSH1 0x20 PUSH1 0x0 KECCAK256 SWAP1 DUP2 ADD SWAP3 DUP3 ISZERO PUSH2 0x3E46 JUMPI SWAP2 PUSH1 0x20 MUL DUP3 ADD JUMPDEST DUP3 DUP2 GT ISZERO PUSH2 0x3E46 JUMPI DUP3 MLOAD DUP3 SSTORE SWAP2 PUSH1 0x20 ADD SWAP2 SWAP1 PUSH1 0x1 ADD SWAP1 PUSH2 0x3E2B JUMP JUMPDEST POP PUSH2 0x3E07 SWAP3 SWAP2 POP PUSH2 0x3EB5 JUMP JUMPDEST DUP3 DUP1 SLOAD DUP3 DUP3 SSTORE SWAP1 PUSH1 0x0 MSTORE PUSH1 0x20 PUSH1 0x0 KECCAK256 SWAP1 DUP2 ADD SWAP3 DUP3 ISZERO PUSH2 0x3DFB JUMPI SWAP2 PUSH1 0x20 MUL DUP3 ADD JUMPDEST DUP3 DUP2 GT ISZERO PUSH2 0x3DFB JUMPI DUP3 MLOAD DUP3 SWAP1 PUSH2 0x3E88 SWAP1 DUP3 PUSH2 0x47D1 JUMP JUMPDEST POP SWAP2 PUSH1 0x20 ADD SWAP2 SWAP1 PUSH1 0x1 ADD SWAP1 PUSH2 0x3E72 JUMP JUMPDEST DUP1 DUP3 GT ISZERO PUSH2 0x3E07 JUMPI PUSH1 0x0 PUSH2 0x3EAC DUP3 DUP3 PUSH2 0x3ECA JUMP JUMPDEST POP PUSH1 0x1 ADD PUSH2 0x3E98 JUMP JUMPDEST JUMPDEST DUP1 DUP3 GT ISZERO PUSH2 0x3E07 JUMPI PUSH1 0x0 DUP2 SSTORE PUSH1 0x1 ADD PUSH2 0x3EB6 JUMP JUMPDEST POP DUP1 SLOAD PUSH2 0x3ED6 SWAP1 PUSH2 0x474C JUMP JUMPDEST PUSH1 0x0 DUP3 SSTORE DUP1 PUSH1 0x1F LT PUSH2 0x3EE6 JUMPI POP POP JUMP JUMPDEST PUSH1 0x1F ADD PUSH1 0x20 SWAP1 DIV SWAP1 PUSH1 0x0 MSTORE PUSH1 0x20 PUSH1 0x0 KECCAK256 SWAP1 DUP2 ADD SWAP1 PUSH2 0x106C SWAP2 SWAP1 PUSH2 0x3EB5 JUMP JUMPDEST DUP1 CALLDATALOAD PUSH1 0x1 PUSH1 0x1 PUSH1 0xA0 SHL SUB DUP2 AND DUP2 EQ PUSH2 0x3F1B JUMPI PUSH1 0x0 DUP1 REVERT JUMPDEST SWAP2 SWAP1 POP JUMP JUMPDEST PUSH1 0x0 DUP1 PUSH1 0x40 DUP4 DUP6 SUB SLT ISZERO PUSH2 0x3F33 JUMPI PUSH1 0x0 DUP1 REVERT JUMPDEST PUSH2 0x3F3C DUP4 PUSH2 0x3F04 JUMP JUMPDEST SWAP5 PUSH1 0x20 SWAP4 SWAP1 SWAP4 ADD CALLDATALOAD SWAP4 POP POP POP JUMP JUMPDEST PUSH1 0x1 PUSH1 0x1 PUSH1 0xE0 SHL SUB NOT DUP2 AND DUP2 EQ PUSH2 0x106C JUMPI PUSH1 0x0 DUP1 REVERT JUMPDEST PUSH1 0x0 PUSH1 0x20 DUP3 DUP5 SUB SLT ISZERO PUSH2 0x3F72 JUMPI PUSH1 0x0 DUP1 REVERT JUMPDEST DUP2 CALLDATALOAD PUSH2 0x2DBB DUP2 PUSH2 0x3F4A JUMP JUMPDEST PUSH1 0x0 PUSH1 0x20 DUP3 DUP5 SUB SLT ISZERO PUSH2 0x3F8F JUMPI PUSH1 0x0 DUP1 REVERT JUMPDEST POP CALLDATALOAD SWAP2 SWAP1 POP JUMP JUMPDEST PUSH1 0x0 JUMPDEST DUP4 DUP2 LT ISZERO PUSH2 0x3FB1 JUMPI DUP2 DUP2 ADD MLOAD DUP4 DUP3 ADD MSTORE PUSH1 0x20 ADD PUSH2 0x3F99 JUMP JUMPDEST POP POP PUSH1 0x0 SWAP2 ADD MSTORE JUMP JUMPDEST PUSH1 0x0 DUP2 MLOAD DUP1 DUP5 MSTORE PUSH2 0x3FD2 DUP2 PUSH1 0x20 DUP7 ADD PUSH1 0x20 DUP7 ADD PUSH2 0x3F96 JUMP JUMPDEST PUSH1 0x1F ADD PUSH1 0x1F NOT AND SWAP3 SWAP1 SWAP3 ADD PUSH1 0x20 ADD SWAP3 SWAP2 POP POP JUMP JUMPDEST PUSH1 0x20 DUP2 MSTORE PUSH1 0x0 PUSH2 0x2DBB PUSH1 0x20 DUP4 ADD DUP5 PUSH2 0x3FBA JUMP JUMPDEST PUSH1 0x0 DUP2 MLOAD DUP1 DUP5 MSTORE PUSH1 0x20 DUP1 DUP6 ADD SWAP5 POP DUP1 DUP5 ADD PUSH1 0x0 JUMPDEST DUP4 DUP2 LT ISZERO PUSH2 0x4029 JUMPI DUP2 MLOAD DUP8 MSTORE SWAP6 DUP3 ADD SWAP6 SWAP1 DUP3 ADD SWAP1 PUSH1 0x1 ADD PUSH2 0x400D JUMP JUMPDEST POP SWAP5 SWAP6 SWAP5 POP POP POP POP POP JUMP JUMPDEST PUSH1 0x20 DUP2 MSTORE PUSH1 0x0 PUSH2 0x2DBB PUSH1 0x20 DUP4 ADD DUP5 PUSH2 0x3FF9 JUMP JUMPDEST PUSH4 0x4E487B71 PUSH1 0xE0 SHL PUSH1 0x0 MSTORE PUSH1 0x41 PUSH1 0x4 MSTORE PUSH1 0x24 PUSH1 0x0 REVERT JUMPDEST PUSH1 0x1F DUP3 ADD PUSH1 0x1F NOT AND DUP2 ADD PUSH8 0xFFFFFFFFFFFFFFFF DUP2 GT DUP3 DUP3 LT OR ISZERO PUSH2 0x4083 JUMPI PUSH2 0x4083 PUSH2 0x4047 JUMP JUMPDEST PUSH1 0x40 MSTORE POP POP JUMP JUMPDEST PUSH1 0x0 PUSH8 0xFFFFFFFFFFFFFFFF DUP3 GT ISZERO PUSH2 0x40A4 JUMPI PUSH2 0x40A4 PUSH2 0x4047 JUMP JUMPDEST POP PUSH1 0x5 SHL PUSH1 0x20 ADD SWAP1 JUMP JUMPDEST PUSH1 0x0 DUP3 PUSH1 0x1F DUP4 ADD SLT PUSH2 0x40BF JUMPI PUSH1 0x0 DUP1 REVERT JUMPDEST DUP2 CALLDATALOAD PUSH1 0x20 PUSH2 0x40CC DUP3 PUSH2 0x408A JUMP JUMPDEST PUSH1 0x40 MLOAD PUSH2 0x40D9 DUP3 DUP3 PUSH2 0x405D JUMP JUMPDEST DUP4 DUP2 MSTORE PUSH1 0x5 SWAP4 SWAP1 SWAP4 SHL DUP6 ADD DUP3 ADD SWAP3 DUP3 DUP2 ADD SWAP2 POP DUP7 DUP5 GT ISZERO PUSH2 0x40F9 JUMPI PUSH1 0x0 DUP1 REVERT JUMPDEST DUP3 DUP7 ADD JUMPDEST DUP5 DUP2 LT ISZERO PUSH2 0x4114 JUMPI DUP1 CALLDATALOAD DUP4 MSTORE SWAP2 DUP4 ADD SWAP2 DUP4 ADD PUSH2 0x40FD JUMP JUMPDEST POP SWAP7 SWAP6 POP POP POP POP POP POP JUMP JUMPDEST PUSH1 0x0 DUP3 PUSH1 0x1F DUP4 ADD SLT PUSH2 0x4130 JUMPI PUSH1 0x0 DUP1 REVERT JUMPDEST DUP2 CALLDATALOAD PUSH8 0xFFFFFFFFFFFFFFFF DUP2 GT ISZERO PUSH2 0x414A JUMPI PUSH2 0x414A PUSH2 0x4047 JUMP JUMPDEST PUSH1 0x40 MLOAD PUSH2 0x4161 PUSH1 0x1F DUP4 ADD PUSH1 0x1F NOT AND PUSH1 0x20 ADD DUP3 PUSH2 0x405D JUMP JUMPDEST DUP2 DUP2 MSTORE DUP5 PUSH1 0x20 DUP4 DUP7 ADD ADD GT ISZERO PUSH2 0x4176 JUMPI PUSH1 0x0 DUP1 REVERT JUMPDEST DUP2 PUSH1 0x20 DUP6 ADD PUSH1 0x20 DUP4 ADD CALLDATACOPY PUSH1 0x0 SWAP2 DUP2 ADD PUSH1 0x20 ADD SWAP2 SWAP1 SWAP2 MSTORE SWAP4 SWAP3 POP POP POP JUMP JUMPDEST PUSH1 0x0 DUP1 PUSH1 0x0 DUP1 PUSH1 0x0 PUSH1 0xA0 DUP7 DUP9 SUB SLT ISZERO PUSH2 0x41AB JUMPI PUSH1 0x0 DUP1 REVERT JUMPDEST PUSH2 0x41B4 DUP7 PUSH2 0x3F04 JUMP JUMPDEST SWAP5 POP PUSH2 0x41C2 PUSH1 0x20 DUP8 ADD PUSH2 0x3F04 JUMP JUMPDEST SWAP4 POP PUSH1 0x40 DUP7 ADD CALLDATALOAD PUSH8 0xFFFFFFFFFFFFFFFF DUP1 DUP3 GT ISZERO PUSH2 0x41DF JUMPI PUSH1 0x0 DUP1 REVERT JUMPDEST PUSH2 0x41EB DUP10 DUP4 DUP11 ADD PUSH2 0x40AE JUMP JUMPDEST SWAP5 POP PUSH1 0x60 DUP9 ADD CALLDATALOAD SWAP2 POP DUP1 DUP3 GT ISZERO PUSH2 0x4201 JUMPI PUSH1 0x0 DUP1 REVERT JUMPDEST PUSH2 0x420D DUP10 DUP4 DUP11 ADD PUSH2 0x40AE JUMP JUMPDEST SWAP4 POP PUSH1 0x80 DUP9 ADD CALLDATALOAD SWAP2 POP DUP1 DUP3 GT ISZERO PUSH2 0x4223 JUMPI PUSH1 0x0 DUP1 REVERT JUMPDEST POP PUSH2 0x4230 DUP9 DUP3 DUP10 ADD PUSH2 0x411F JUMP JUMPDEST SWAP2 POP POP SWAP3 SWAP6 POP SWAP3 SWAP6 SWAP1 SWAP4 POP JUMP JUMPDEST PUSH1 0x0 DUP2 MLOAD DUP1 DUP5 MSTORE PUSH1 0x20 DUP1 DUP6 ADD DUP1 DUP2 SWAP7 POP DUP4 PUSH1 0x5 SHL DUP2 ADD SWAP2 POP DUP3 DUP7 ADD PUSH1 0x0 JUMPDEST DUP6 DUP2 LT ISZERO PUSH2 0x4285 JUMPI DUP3 DUP5 SUB DUP10 MSTORE PUSH2 0x4273 DUP5 DUP4 MLOAD PUSH2 0x3FBA JUMP JUMPDEST SWAP9 DUP6 ADD SWAP9 SWAP4 POP SWAP1 DUP5 ADD SWAP1 PUSH1 0x1 ADD PUSH2 0x425B JUMP JUMPDEST POP SWAP2 SWAP8 SWAP7 POP POP POP POP POP POP POP JUMP JUMPDEST DUP1 MLOAD ISZERO ISZERO DUP3 MSTORE PUSH1 0x0 PUSH2 0x160 PUSH1 0x20 DUP4 ADD MLOAD DUP2 PUSH1 0x20 DUP7 ADD MSTORE PUSH2 0x42B4 DUP3 DUP7 ADD DUP3 PUSH2 0x3FBA JUMP JUMPDEST SWAP2 POP POP PUSH1 0x40 DUP4 ADD MLOAD DUP5 DUP3 SUB PUSH1 0x40 DUP7 ADD MSTORE PUSH2 0x42CE DUP3 DUP3 PUSH2 0x423D JUMP JUMPDEST SWAP2 POP POP PUSH1 0x60 DUP4 ADD MLOAD DUP5 DUP3 SUB PUSH1 0x60 DUP7 ADD MSTORE PUSH2 0x42E8 DUP3 DUP3 PUSH2 0x3FF9 JUMP JUMPDEST SWAP2 POP POP PUSH1 0x80 DUP4 ADD MLOAD PUSH2 0x4305 PUSH1 0x80 DUP7 ADD DUP3 PUSH1 0x1 PUSH1 0x1 PUSH1 0xA0 SHL SUB AND SWAP1 MSTORE JUMP JUMPDEST POP PUSH1 0xA0 DUP4 ADD MLOAD PUSH2 0x4320 PUSH1 0xA0 DUP7 ADD DUP3 PUSH1 0x1 PUSH1 0x1 PUSH1 0xA0 SHL SUB AND SWAP1 MSTORE JUMP JUMPDEST POP PUSH1 0xC0 DUP4 ADD MLOAD PUSH1 0xC0 DUP6 ADD MSTORE PUSH1 0xE0 DUP4 ADD MLOAD PUSH2 0x4345 PUSH1 0xE0 DUP7 ADD DUP3 PUSH1 0x1 PUSH1 0x1 PUSH1 0xA0 SHL SUB AND SWAP1 MSTORE JUMP JUMPDEST POP PUSH2 0x100 DUP4 DUP2 ADD MLOAD SWAP1 DUP6 ADD MSTORE PUSH2 0x120 DUP1 DUP5 ADD MLOAD SWAP1 DUP6 ADD MSTORE PUSH2 0x140 SWAP3 DUP4 ADD MLOAD SWAP3 SWAP1 SWAP4 ADD SWAP2 SWAP1 SWAP2 MSTORE POP SWAP1 JUMP JUMPDEST PUSH1 0x0 PUSH1 0x20 DUP1 DUP4 ADD DUP2 DUP5 MSTORE DUP1 DUP6 MLOAD DUP1 DUP4 MSTORE PUSH1 0x40 DUP7 ADD SWAP2 POP PUSH1 0x40 DUP2 PUSH1 0x5 SHL DUP8 ADD ADD SWAP3 POP DUP4 DUP8 ADD PUSH1 0x0 JUMPDEST DUP3 DUP2 LT ISZERO PUSH2 0x43C4 JUMPI PUSH1 0x3F NOT DUP9 DUP7 SUB ADD DUP5 MSTORE PUSH2 0x43B2 DUP6 DUP4 MLOAD PUSH2 0x4292 JUMP JUMPDEST SWAP5 POP SWAP3 DUP6 ADD SWAP3 SWAP1 DUP6 ADD SWAP1 PUSH1 0x1 ADD PUSH2 0x4396 JUMP JUMPDEST POP SWAP3 SWAP8 SWAP7 POP POP POP POP POP POP POP JUMP JUMPDEST PUSH1 0x0 DUP1 PUSH1 0x40 DUP4 DUP6 SUB SLT ISZERO PUSH2 0x43E4 JUMPI PUSH1 0x0 DUP1 REVERT JUMPDEST DUP3 CALLDATALOAD PUSH8 0xFFFFFFFFFFFFFFFF DUP1 DUP3 GT ISZERO PUSH2 0x43FC JUMPI PUSH1 0x0 DUP1 REVERT JUMPDEST DUP2 DUP6 ADD SWAP2 POP DUP6 PUSH1 0x1F DUP4 ADD SLT PUSH2 0x4410 JUMPI PUSH1 0x0 DUP1 REVERT JUMPDEST DUP2 CALLDATALOAD PUSH1 0x20 PUSH2 0x441D DUP3 PUSH2 0x408A JUMP JUMPDEST PUSH1 0x40 MLOAD PUSH2 0x442A DUP3 DUP3 PUSH2 0x405D JUMP JUMPDEST DUP4 DUP2 MSTORE PUSH1 0x5 SWAP4 SWAP1 SWAP4 SHL DUP6 ADD DUP3 ADD SWAP3 DUP3 DUP2 ADD SWAP2 POP DUP10 DUP5 GT ISZERO PUSH2 0x444A JUMPI PUSH1 0x0 DUP1 REVERT JUMPDEST SWAP5 DUP3 ADD SWAP5 JUMPDEST DUP4 DUP7 LT ISZERO PUSH2 0x446F JUMPI PUSH2 0x4460 DUP7 PUSH2 0x3F04 JUMP JUMPDEST DUP3 MSTORE SWAP5 DUP3 ADD SWAP5 SWAP1 DUP3 ADD SWAP1 PUSH2 0x444F JUMP JUMPDEST SWAP7 POP POP DUP7 ADD CALLDATALOAD SWAP3 POP POP DUP1 DUP3 GT ISZERO PUSH2 0x4485 JUMPI PUSH1 0x0 DUP1 REVERT JUMPDEST POP PUSH2 0x4492 DUP6 DUP3 DUP7 ADD PUSH2 0x40AE JUMP JUMPDEST SWAP2 POP POP SWAP3 POP SWAP3 SWAP1 POP JUMP JUMPDEST PUSH1 0x0 DUP1 PUSH1 0x40 DUP4 DUP6 SUB SLT ISZERO PUSH2 0x44AF JUMPI PUSH1 0x0 DUP1 REVERT JUMPDEST POP POP DUP1 CALLDATALOAD SWAP3 PUSH1 0x20 SWAP1 SWAP2 ADD CALLDATALOAD SWAP2 POP JUMP JUMPDEST PUSH1 0x0 PUSH2 0x120 DUP12 ISZERO ISZERO DUP4 MSTORE DUP1 PUSH1 0x20 DUP5 ADD MSTORE PUSH2 0x44DA DUP2 DUP5 ADD DUP13 PUSH2 0x3FBA JUMP JUMPDEST PUSH1 0x1 PUSH1 0x1 PUSH1 0xA0 SHL SUB SWAP11 DUP12 AND PUSH1 0x40 DUP6 ADD MSTORE SWAP9 DUP11 AND PUSH1 0x60 DUP5 ADD MSTORE POP POP PUSH1 0x80 DUP2 ADD SWAP6 SWAP1 SWAP6 MSTORE SWAP3 SWAP1 SWAP6 AND PUSH1 0xA0 DUP5 ADD MSTORE PUSH1 0xC0 DUP4 ADD MSTORE PUSH1 0xE0 DUP3 ADD SWAP4 SWAP1 SWAP4 MSTORE PUSH2 0x100 ADD SWAP2 SWAP1 SWAP2 MSTORE SWAP3 SWAP2 POP POP JUMP JUMPDEST DUP1 ISZERO ISZERO DUP2 EQ PUSH2 0x106C JUMPI PUSH1 0x0 DUP1 REVERT JUMPDEST PUSH1 0x0 DUP1 PUSH1 0x40 DUP4 DUP6 SUB SLT ISZERO PUSH2 0x4541 JUMPI PUSH1 0x0 DUP1 REVERT JUMPDEST PUSH2 0x454A DUP4 PUSH2 0x3F04 JUMP JUMPDEST SWAP2 POP PUSH1 0x20 DUP4 ADD CALLDATALOAD PUSH2 0x455A DUP2 PUSH2 0x4520 JUMP JUMPDEST DUP1 SWAP2 POP POP SWAP3 POP SWAP3 SWAP1 POP JUMP JUMPDEST PUSH1 0x20 DUP2 MSTORE PUSH1 0x0 PUSH2 0x2DBB PUSH1 0x20 DUP4 ADD DUP5 PUSH2 0x4292 JUMP JUMPDEST PUSH1 0x0 DUP1 PUSH1 0x40 DUP4 DUP6 SUB SLT ISZERO PUSH2 0x458B JUMPI PUSH1 0x0 DUP1 REVERT JUMPDEST DUP3 CALLDATALOAD PUSH8 0xFFFFFFFFFFFFFFFF DUP1 DUP3 GT ISZERO PUSH2 0x45A3 JUMPI PUSH1 0x0 DUP1 REVERT JUMPDEST PUSH2 0x45AF DUP7 DUP4 DUP8 ADD PUSH2 0x411F JUMP JUMPDEST SWAP4 POP PUSH1 0x20 DUP6 ADD CALLDATALOAD SWAP2 POP DUP1 DUP3 GT ISZERO PUSH2 0x45C5 JUMPI PUSH1 0x0 DUP1 REVERT JUMPDEST POP PUSH2 0x4492 DUP6 DUP3 DUP7 ADD PUSH2 0x411F JUMP JUMPDEST PUSH1 0x20 DUP2 MSTORE PUSH1 0x0 PUSH2 0x2DBB PUSH1 0x20 DUP4 ADD DUP5 PUSH2 0x423D JUMP JUMPDEST PUSH1 0x0 DUP1 PUSH1 0x40 DUP4 DUP6 SUB SLT ISZERO PUSH2 0x45F8 JUMPI PUSH1 0x0 DUP1 REVERT JUMPDEST PUSH2 0x4601 DUP4 PUSH2 0x3F04 JUMP JUMPDEST SWAP2 POP PUSH2 0x460F PUSH1 0x20 DUP5 ADD PUSH2 0x3F04 JUMP JUMPDEST SWAP1 POP SWAP3 POP SWAP3 SWAP1 POP JUMP JUMPDEST PUSH1 0x0 DUP1 PUSH1 0x0 DUP1 PUSH1 0x0 PUSH1 0xA0 DUP7 DUP9 SUB SLT ISZERO PUSH2 0x4630 JUMPI PUSH1 0x0 DUP1 REVERT JUMPDEST PUSH2 0x4639 DUP7 PUSH2 0x3F04 JUMP JUMPDEST SWAP5 POP PUSH2 0x4647 PUSH1 0x20 DUP8 ADD PUSH2 0x3F04 JUMP JUMPDEST SWAP4 POP PUSH1 0x40 DUP7 ADD CALLDATALOAD SWAP3 POP PUSH1 0x60 DUP7 ADD CALLDATALOAD SWAP2 POP PUSH1 0x80 DUP7 ADD CALLDATALOAD PUSH8 0xFFFFFFFFFFFFFFFF DUP2 GT ISZERO PUSH2 0x4671 JUMPI PUSH1 0x0 DUP1 REVERT JUMPDEST PUSH2 0x4230 DUP9 DUP3 DUP10 ADD PUSH2 0x411F JUMP JUMPDEST PUSH1 0x0 PUSH1 0x20 DUP3 DUP5 SUB SLT ISZERO PUSH2 0x468F JUMPI PUSH1 0x0 DUP1 REVERT JUMPDEST POP MLOAD SWAP2 SWAP1 POP JUMP JUMPDEST PUSH4 0x4E487B71 PUSH1 0xE0 SHL PUSH1 0x0 MSTORE PUSH1 0x11 PUSH1 0x4 MSTORE PUSH1 0x24 PUSH1 0x0 REVERT JUMPDEST DUP1 DUP3 MUL DUP2 ISZERO DUP3 DUP3 DIV DUP5 EQ OR PUSH2 0x530 JUMPI PUSH2 0x530 PUSH2 0x4696 JUMP JUMPDEST PUSH1 0x0 DUP3 PUSH2 0x46E0 JUMPI PUSH4 0x4E487B71 PUSH1 0xE0 SHL PUSH1 0x0 MSTORE PUSH1 0x12 PUSH1 0x4 MSTORE PUSH1 0x24 PUSH1 0x0 REVERT JUMPDEST POP DIV SWAP1 JUMP JUMPDEST DUP2 DUP2 SUB DUP2 DUP2 GT ISZERO PUSH2 0x530 JUMPI PUSH2 0x530 PUSH2 0x4696 JUMP JUMPDEST PUSH1 0x1 PUSH1 0x1 PUSH1 0xA0 SHL SUB SWAP4 DUP5 AND DUP2 MSTORE SWAP2 SWAP1 SWAP3 AND PUSH1 0x20 DUP3 ADD MSTORE PUSH1 0x40 DUP2 ADD SWAP2 SWAP1 SWAP2 MSTORE PUSH1 0x60 ADD SWAP1 JUMP JUMPDEST PUSH1 0x0 PUSH1 0x20 DUP3 DUP5 SUB SLT ISZERO PUSH2 0x472E JUMPI PUSH1 0x0 DUP1 REVERT JUMPDEST DUP2 MLOAD PUSH2 0x2DBB DUP2 PUSH2 0x4520 JUMP JUMPDEST DUP1 DUP3 ADD DUP1 DUP3 GT ISZERO PUSH2 0x530 JUMPI PUSH2 0x530 PUSH2 0x4696 JUMP JUMPDEST PUSH1 0x1 DUP2 DUP2 SHR SWAP1 DUP3 AND DUP1 PUSH2 0x4760 JUMPI PUSH1 0x7F DUP3 AND SWAP2 POP JUMPDEST PUSH1 0x20 DUP3 LT DUP2 SUB PUSH2 0x4780 JUMPI PUSH4 0x4E487B71 PUSH1 0xE0 SHL PUSH1 0x0 MSTORE PUSH1 0x22 PUSH1 0x4 MSTORE PUSH1 0x24 PUSH1 0x0 REVERT JUMPDEST POP SWAP2 SWAP1 POP JUMP JUMPDEST PUSH1 0x1F DUP3 GT ISZERO PUSH2 0x47CC JUMPI PUSH1 0x0 DUP2 DUP2 MSTORE PUSH1 0x20 DUP2 KECCAK256 PUSH1 0x1F DUP6 ADD PUSH1 0x5 SHR DUP2 ADD PUSH1 0x20 DUP7 LT ISZERO PUSH2 0x47AD JUMPI POP DUP1 JUMPDEST PUSH1 0x1F DUP6 ADD PUSH1 0x5 SHR DUP3 ADD SWAP2 POP JUMPDEST DUP2 DUP2 LT ISZERO PUSH2 0xF9D JUMPI DUP3 DUP2 SSTORE PUSH1 0x1 ADD PUSH2 0x47B9 JUMP JUMPDEST POP POP POP JUMP JUMPDEST DUP2 MLOAD PUSH8 0xFFFFFFFFFFFFFFFF DUP2 GT ISZERO PUSH2 0x47EB JUMPI PUSH2 0x47EB PUSH2 0x4047 JUMP JUMPDEST PUSH2 0x47FF DUP2 PUSH2 0x47F9 DUP5 SLOAD PUSH2 0x474C JUMP JUMPDEST DUP5 PUSH2 0x4786 JUMP JUMPDEST PUSH1 0x20 DUP1 PUSH1 0x1F DUP4 GT PUSH1 0x1 DUP2 EQ PUSH2 0x4834 JUMPI PUSH1 0x0 DUP5 ISZERO PUSH2 0x481C JUMPI POP DUP6 DUP4 ADD MLOAD JUMPDEST PUSH1 0x0 NOT PUSH1 0x3 DUP7 SWAP1 SHL SHR NOT AND PUSH1 0x1 DUP6 SWAP1 SHL OR DUP6 SSTORE PUSH2 0xF9D JUMP JUMPDEST PUSH1 0x0 DUP6 DUP2 MSTORE PUSH1 0x20 DUP2 KECCAK256 PUSH1 0x1F NOT DUP7 AND SWAP2 JUMPDEST DUP3 DUP2 LT ISZERO PUSH2 0x4863 JUMPI DUP9 DUP7 ADD MLOAD DUP3 SSTORE SWAP5 DUP5 ADD SWAP5 PUSH1 0x1 SWAP1 SWAP2 ADD SWAP1 DUP5 ADD PUSH2 0x4844 JUMP JUMPDEST POP DUP6 DUP3 LT ISZERO PUSH2 0x4881 JUMPI DUP8 DUP6 ADD MLOAD PUSH1 0x0 NOT PUSH1 0x3 DUP9 SWAP1 SHL PUSH1 0xF8 AND SHR NOT AND DUP2 SSTORE JUMPDEST POP POP POP POP POP PUSH1 0x1 SWAP1 DUP2 SHL ADD SWAP1 SSTORE POP JUMP JUMPDEST PUSH4 0x4E487B71 PUSH1 0xE0 SHL PUSH1 0x0 MSTORE PUSH1 0x32 PUSH1 0x4 MSTORE PUSH1 0x24 PUSH1 0x0 REVERT JUMPDEST PUSH1 0x0 PUSH1 0x1 DUP3 ADD PUSH2 0x48B9 JUMPI PUSH2 0x48B9 PUSH2 0x4696 JUMP JUMPDEST POP PUSH1 0x1 ADD SWAP1 JUMP JUMPDEST PUSH1 0x20 DUP1 DUP3 MSTORE PUSH1 0x25 SWAP1 DUP3 ADD MSTORE PUSH32 0x455243313135353A207472616E7366657220746F20746865207A65726F206164 PUSH1 0x40 DUP3 ADD MSTORE PUSH5 0x6472657373 PUSH1 0xD8 SHL PUSH1 0x60 DUP3 ADD MSTORE PUSH1 0x80 ADD SWAP1 JUMP JUMPDEST PUSH1 0x40 DUP2 MSTORE PUSH1 0x0 PUSH2 0x4918 PUSH1 0x40 DUP4 ADD DUP6 PUSH2 0x3FF9 JUMP JUMPDEST DUP3 DUP2 SUB PUSH1 0x20 DUP5 ADD MSTORE PUSH2 0x492A DUP2 DUP6 PUSH2 0x3FF9 JUMP JUMPDEST SWAP6 SWAP5 POP POP POP POP POP JUMP JUMPDEST DUP2 DUP2 SUB PUSH2 0x493E JUMPI POP POP JUMP JUMPDEST PUSH2 0x4948 DUP3 SLOAD PUSH2 0x474C JUMP JUMPDEST PUSH8 0xFFFFFFFFFFFFFFFF DUP2 GT ISZERO PUSH2 0x4960 JUMPI PUSH2 0x4960 PUSH2 0x4047 JUMP JUMPDEST PUSH2 0x496E DUP2 PUSH2 0x47F9 DUP5 SLOAD PUSH2 0x474C JUMP JUMPDEST PUSH1 0x0 PUSH1 0x1F DUP3 GT PUSH1 0x1 DUP2 EQ PUSH2 0x49A2 JUMPI PUSH1 0x0 DUP4 ISZERO PUSH2 0x498A JUMPI POP DUP5 DUP3 ADD SLOAD JUMPDEST PUSH1 0x0 NOT PUSH1 0x3 DUP6 SWAP1 SHL SHR NOT AND PUSH1 0x1 DUP5 SWAP1 SHL OR DUP5 SSTORE PUSH2 0x2C2B JUMP JUMPDEST PUSH1 0x0 DUP6 DUP2 MSTORE PUSH1 0x20 SWAP1 KECCAK256 PUSH1 0x1F NOT DUP5 AND SWAP1 PUSH1 0x0 DUP7 DUP2 MSTORE PUSH1 0x20 SWAP1 KECCAK256 DUP5 JUMPDEST DUP4 DUP2 LT ISZERO PUSH2 0x49DC JUMPI DUP3 DUP7 ADD SLOAD DUP3 SSTORE PUSH1 0x1 SWAP6 DUP7 ADD SWAP6 SWAP1 SWAP2 ADD SWAP1 PUSH1 0x20 ADD PUSH2 0x49BC JUMP JUMPDEST POP DUP6 DUP4 LT ISZERO PUSH2 0x4881 JUMPI SWAP4 ADD SLOAD PUSH1 0x0 NOT PUSH1 0xF8 PUSH1 0x3 DUP8 SWAP1 SHL AND SHR NOT AND SWAP1 SWAP3 SSTORE POP POP PUSH1 0x1 SWAP1 DUP2 SHL ADD SWAP1 SSTORE POP JUMP JUMPDEST PUSH1 0x0 DUP2 SLOAD PUSH2 0x4A13 DUP2 PUSH2 0x474C JUMP JUMPDEST DUP1 DUP6 MSTORE PUSH1 0x20 PUSH1 0x1 DUP4 DUP2 AND DUP1 ISZERO PUSH2 0x4A30 JUMPI PUSH1 0x1 DUP2 EQ PUSH2 0x4A4A JUMPI PUSH2 0x4A78 JUMP JUMPDEST PUSH1 0xFF NOT DUP6 AND DUP9 DUP5 ADD MSTORE DUP4 ISZERO ISZERO PUSH1 0x5 SHL DUP9 ADD DUP4 ADD SWAP6 POP PUSH2 0x4A78 JUMP JUMPDEST DUP7 PUSH1 0x0 MSTORE DUP3 PUSH1 0x0 KECCAK256 PUSH1 0x0 JUMPDEST DUP6 DUP2 LT ISZERO PUSH2 0x4A70 JUMPI DUP2 SLOAD DUP11 DUP3 ADD DUP7 ADD MSTORE SWAP1 DUP4 ADD SWAP1 DUP5 ADD PUSH2 0x4A55 JUMP JUMPDEST DUP10 ADD DUP5 ADD SWAP7 POP POP JUMPDEST POP POP POP POP POP SWAP3 SWAP2 POP POP JUMP JUMPDEST PUSH1 0x0 DUP2 SLOAD DUP1 DUP5 MSTORE PUSH1 0x20 DUP1 DUP6 ADD DUP1 DUP2 SWAP7 POP DUP4 PUSH1 0x5 SHL DUP2 ADD SWAP2 POP DUP6 PUSH1 0x0 MSTORE DUP3 PUSH1 0x0 KECCAK256 PUSH1 0x0 JUMPDEST DUP6 DUP2 LT ISZERO PUSH2 0x4285 JUMPI DUP3 DUP5 SUB DUP10 MSTORE PUSH2 0x4ABD DUP5 DUP4 PUSH2 0x4A06 JUMP JUMPDEST SWAP9 DUP6 ADD SWAP9 SWAP4 POP PUSH1 0x1 SWAP2 DUP3 ADD SWAP2 ADD PUSH2 0x4AA6 JUMP JUMPDEST PUSH1 0x40 DUP2 MSTORE PUSH1 0x0 PUSH2 0x4AE2 PUSH1 0x40 DUP4 ADD DUP6 PUSH2 0x4A83 JUMP JUMPDEST SWAP1 POP DUP3 PUSH1 0x20 DUP4 ADD MSTORE SWAP4 SWAP3 POP POP POP JUMP JUMPDEST PUSH1 0x0 DUP2 SLOAD DUP1 DUP5 MSTORE PUSH1 0x20 DUP1 DUP6 ADD SWAP5 POP DUP4 PUSH1 0x0 MSTORE DUP1 PUSH1 0x0 KECCAK256 PUSH1 0x0 JUMPDEST DUP4 DUP2 LT ISZERO PUSH2 0x4029 JUMPI DUP2 SLOAD DUP8 MSTORE SWAP6 DUP3 ADD SWAP6 PUSH1 0x1 SWAP2 DUP3 ADD SWAP2 ADD PUSH2 0x4B0A JUMP JUMPDEST PUSH1 0x40 DUP2 MSTORE PUSH2 0x4B42 PUSH1 0x40 DUP3 ADD PUSH2 0x4B3C DUP6 SLOAD PUSH1 0xFF AND SWAP1 JUMP JUMPDEST ISZERO ISZERO SWAP1 MSTORE JUMP JUMPDEST PUSH1 0x0 PUSH2 0x160 DUP1 PUSH1 0x60 DUP5 ADD MSTORE PUSH2 0x4B5E PUSH2 0x1A0 DUP5 ADD PUSH1 0x1 DUP8 ADD PUSH2 0x4A06 JUMP JUMPDEST PUSH1 0x3F NOT DUP1 DUP6 DUP4 SUB ADD PUSH1 0x80 DUP7 ADD MSTORE PUSH2 0x4B78 DUP3 PUSH1 0x2 DUP10 ADD PUSH2 0x4A83 JUMP JUMPDEST SWAP2 POP DUP1 DUP6 DUP4 SUB ADD PUSH1 0xA0 DUP7 ADD MSTORE POP PUSH2 0x4B92 DUP2 PUSH1 0x3 DUP9 ADD PUSH2 0x4AF1 JUMP JUMPDEST SWAP1 POP PUSH2 0x4BA8 PUSH1 0x4 DUP8 ADD SLOAD PUSH1 0x1 PUSH1 0x1 PUSH1 0xA0 SHL SUB AND SWAP1 JUMP JUMPDEST PUSH1 0x1 PUSH1 0x1 PUSH1 0xA0 SHL SUB SWAP1 DUP2 AND PUSH1 0xC0 DUP7 ADD MSTORE PUSH1 0x5 DUP8 ADD SLOAD DUP2 AND PUSH1 0xE0 DUP7 ADD MSTORE PUSH1 0x6 DUP8 ADD SLOAD PUSH2 0x100 DUP7 ADD MSTORE PUSH1 0x7 DUP8 ADD SLOAD AND PUSH2 0x120 DUP6 ADD MSTORE PUSH1 0x8 DUP7 ADD SLOAD PUSH2 0x140 DUP6 ADD MSTORE PUSH1 0x9 DUP7 ADD SLOAD SWAP2 DUP5 ADD SWAP2 SWAP1 SWAP2 MSTORE PUSH1 0xA SWAP1 SWAP5 ADD SLOAD PUSH2 0x180 DUP4 ADD MSTORE POP PUSH1 0x20 ADD MSTORE SWAP1 JUMP JUMPDEST PUSH1 0x0 DUP3 MLOAD PUSH2 0x4C18 DUP2 DUP5 PUSH1 0x20 DUP8 ADD PUSH2 0x3F96 JUMP JUMPDEST SWAP2 SWAP1 SWAP2 ADD SWAP3 SWAP2 POP POP JUMP JUMPDEST PUSH1 0x1 PUSH1 0x1 PUSH1 0xA0 SHL SUB DUP7 DUP2 AND DUP3 MSTORE DUP6 AND PUSH1 0x20 DUP3 ADD MSTORE PUSH1 0xA0 PUSH1 0x40 DUP3 ADD DUP2 SWAP1 MSTORE PUSH1 0x0 SWAP1 PUSH2 0x4C4E SWAP1 DUP4 ADD DUP7 PUSH2 0x3FF9 JUMP JUMPDEST DUP3 DUP2 SUB PUSH1 0x60 DUP5 ADD MSTORE PUSH2 0x4C60 DUP2 DUP7 PUSH2 0x3FF9 JUMP JUMPDEST SWAP1 POP DUP3 DUP2 SUB PUSH1 0x80 DUP5 ADD MSTORE PUSH2 0x4C74 DUP2 DUP6 PUSH2 0x3FBA JUMP JUMPDEST SWAP9 SWAP8 POP POP POP POP POP POP POP POP JUMP JUMPDEST PUSH1 0x0 PUSH1 0x20 DUP3 DUP5 SUB SLT ISZERO PUSH2 0x4C92 JUMPI PUSH1 0x0 DUP1 REVERT JUMPDEST DUP2 MLOAD PUSH2 0x2DBB DUP2 PUSH2 0x3F4A JUMP JUMPDEST PUSH1 0x0 PUSH1 0x3 RETURNDATASIZE GT ISZERO PUSH2 0x4CB6 JUMPI PUSH1 0x4 PUSH1 0x0 DUP1 RETURNDATACOPY POP PUSH1 0x0 MLOAD PUSH1 0xE0 SHR JUMPDEST SWAP1 JUMP JUMPDEST PUSH1 0x0 PUSH1 0x44 RETURNDATASIZE LT ISZERO PUSH2 0x4CC7 JUMPI SWAP1 JUMP JUMPDEST PUSH1 0x40 MLOAD PUSH1 0x3 NOT RETURNDATASIZE DUP2 ADD PUSH1 0x4 DUP4 RETURNDATACOPY DUP2 MLOAD RETURNDATASIZE PUSH8 0xFFFFFFFFFFFFFFFF DUP2 PUSH1 0x24 DUP5 ADD GT DUP2 DUP5 GT OR ISZERO PUSH2 0x4CF7 JUMPI POP POP POP POP POP SWAP1 JUMP JUMPDEST DUP3 DUP6 ADD SWAP2 POP DUP2 MLOAD DUP2 DUP2 GT ISZERO PUSH2 0x4D0F JUMPI POP POP POP POP POP POP SWAP1 JUMP JUMPDEST DUP5 RETURNDATASIZE DUP8 ADD ADD PUSH1 0x20 DUP3 DUP6 ADD ADD GT ISZERO PUSH2 0x4D29 JUMPI POP POP POP POP POP POP SWAP1 JUMP JUMPDEST PUSH2 0x4D38 PUSH1 0x20 DUP3 DUP7 ADD ADD DUP8 PUSH2 0x405D JUMP JUMPDEST POP SWAP1 SWAP6 SWAP5 POP POP POP POP POP JUMP JUMPDEST PUSH1 0x20 DUP1 DUP3 MSTORE PUSH1 0x28 SWAP1 DUP3 ADD MSTORE PUSH32 0x455243313135353A204552433131353552656365697665722072656A65637465 PUSH1 0x40 DUP3 ADD MSTORE PUSH8 0x6420746F6B656E73 PUSH1 0xC0 SHL PUSH1 0x60 DUP3 ADD MSTORE PUSH1 0x80 ADD SWAP1 JUMP JUMPDEST PUSH1 0x40 DUP2 MSTORE PUSH1 0x0 PUSH2 0x4AE2 PUSH1 0x40 DUP4 ADD DUP6 PUSH2 0x4A06 JUMP JUMPDEST PUSH1 0x1 PUSH1 0x1 PUSH1 0xA0 SHL SUB DUP7 DUP2 AND DUP3 MSTORE DUP6 AND PUSH1 0x20 DUP3 ADD MSTORE PUSH1 0x40 DUP2 ADD DUP5 SWAP1 MSTORE PUSH1 0x60 DUP2 ADD DUP4 SWAP1 MSTORE PUSH1 0xA0 PUSH1 0x80 DUP3 ADD DUP2 SWAP1 MSTORE PUSH1 0x0 SWAP1 PUSH2 0x4DD8 SWAP1 DUP4 ADD DUP5 PUSH2 0x3FBA JUMP JUMPDEST SWAP8 SWAP7 POP POP POP POP POP POP POP JUMP INVALID GASLIMIT MSTORE NUMBER BALANCE BALANCE CALLDATALOAD CALLDATALOAD GASPRICE KECCAK256 PUSH10 0x6E73756666696369656E PUSH21 0x2062616C616E636520666F72207472616E73666572 LOG2 PUSH5 0x6970667358 0x22 SLT KECCAK256 DUP11 SELFDESTRUCT 0xCC PC 0x2A PUSH3 0xC45DA7 0xDA 0xBF 0xDC MULMOD 0xC8 ADDRESS 0xBF ADDMOD KECCAK256 EXTCODECOPY 0x2A PUSH5 0x3004FB1239 SWAP2 0x2A KECCAK256 0xD 0xED DUP12 PUSH5 0x736F6C6343 STOP ADDMOD SGT STOP CALLER "
		},
		"gasEstimates": {
			"creation": {
				"codeDepositCost": "4007000",
				"executionCost": "infinite",
				"totalCost": "infinite"
			},
			"external": {
				"TTT1155Token()": "2404",
				"TTTToken()": "2426",
				"balanceOf(address,uint256)": "2726",
				"balanceOfBatch(address[],uint256[])": "infinite",
				"burnFee()": "2394",
				"compareStrings(string,string)": "infinite",
				"createGameRoom(uint256)": "infinite",
				"faucetToken()": "infinite",
				"gameInformation(uint256)": "infinite",
				"getAllGameInformation()": "infinite",
				"getAllMoney()": "infinite",
				"getExcessBalance()": "infinite",
				"getFinalWinOption(uint256)": "infinite",
				"getGameInformation(uint256)": "infinite",
				"getoption(uint256)": "infinite",
				"isApprovedForAll(address,address)": "infinite",
				"joinGame(uint256,uint256)": "infinite",
				"minBetAmount()": "2372",
				"owner()": "2405",
				"restartGame(uint256)": "infinite",
				"safeBatchTransferFrom(address,address,uint256[],uint256[],bytes)": "infinite",
				"safeTransferFrom(address,address,uint256,uint256,bytes)": "infinite",
				"setApprovalForAll(address,bool)": "26744",
				"supportsInterface(bytes4)": "2621",
				"totalAmount()": "2374",
				"treasury()": "2404",
				"treasuryFee()": "2351",
				"uri(uint256)": "infinite",
				"userInput(uint256,uint256)": "infinite",
				"validateRestartPlayer(uint256)": "infinite"
			},
			"internal": {
				"changePlayer(uint256)": "infinite",
				"checkAddress(uint256)": "8736",
				"checkOptions(uint256)": "infinite",
				"checkWinner(uint256)": "infinite",
				"mint(address,uint256,uint256)": "infinite"
			}
		},
		"methodIdentifiers": {
			"TTT1155Token()": "b4606e4e",
			"TTTToken()": "7effb427",
			"balanceOf(address,uint256)": "00fdd58e",
			"balanceOfBatch(address[],uint256[])": "4e1273f4",
			"burnFee()": "fce589d8",
			"compareStrings(string,string)": "bed34bba",
			"createGameRoom(uint256)": "06139e8d",
			"faucetToken()": "b7b524a1",
			"gameInformation(uint256)": "87052fab",
			"getAllGameInformation()": "491f0136",
			"getAllMoney()": "edb84ff7",
			"getExcessBalance()": "888b042f",
			"getFinalWinOption(uint256)": "17b44960",
			"getGameInformation(uint256)": "b2182be4",
			"getoption(uint256)": "dc572c6e",
			"isApprovedForAll(address,address)": "e985e9c5",
			"joinGame(uint256,uint256)": "b60b9fcb",
			"minBetAmount()": "fa968eea",
			"owner()": "8da5cb5b",
			"restartGame(uint256)": "4a968391",
			"safeBatchTransferFrom(address,address,uint256[],uint256[],bytes)": "2eb2c2d6",
			"safeTransferFrom(address,address,uint256,uint256,bytes)": "f242432a",
			"setApprovalForAll(address,bool)": "a22cb465",
			"supportsInterface(bytes4)": "01ffc9a7",
			"totalAmount()": "1a39d8ef",
			"treasury()": "61d027b3",
			"treasuryFee()": "cc32d176",
			"uri(uint256)": "0e89341c",
			"userInput(uint256,uint256)": "52bc3410",
			"validateRestartPlayer(uint256)": "34fd3518"
		}
	},
	"abi": [
		{
			"inputs": [],
			"stateMutability": "nonpayable",
			"type": "constructor"
		},
		{
			"anonymous": false,
			"inputs": [
				{
					"indexed": true,
					"internalType": "address",
					"name": "account",
					"type": "address"
				},
				{
					"indexed": true,
					"internalType": "address",
					"name": "operator",
					"type": "address"
				},
				{
					"indexed": false,
					"internalType": "bool",
					"name": "approved",
					"type": "bool"
				}
			],
			"name": "ApprovalForAll",
			"type": "event"
		},
		{
			"anonymous": false,
			"inputs": [
				{
					"indexed": true,
					"internalType": "address",
					"name": "operator",
					"type": "address"
				},
				{
					"indexed": true,
					"internalType": "address",
					"name": "from",
					"type": "address"
				},
				{
					"indexed": true,
					"internalType": "address",
					"name": "to",
					"type": "address"
				},
				{
					"indexed": false,
					"internalType": "uint256[]",
					"name": "ids",
					"type": "uint256[]"
				},
				{
					"indexed": false,
					"internalType": "uint256[]",
					"name": "values",
					"type": "uint256[]"
				}
			],
			"name": "TransferBatch",
			"type": "event"
		},
		{
			"anonymous": false,
			"inputs": [
				{
					"indexed": true,
					"internalType": "address",
					"name": "operator",
					"type": "address"
				},
				{
					"indexed": true,
					"internalType": "address",
					"name": "from",
					"type": "address"
				},
				{
					"indexed": true,
					"internalType": "address",
					"name": "to",
					"type": "address"
				},
				{
					"indexed": false,
					"internalType": "uint256",
					"name": "id",
					"type": "uint256"
				},
				{
					"indexed": false,
					"internalType": "uint256",
					"name": "value",
					"type": "uint256"
				}
			],
			"name": "TransferSingle",
			"type": "event"
		},
		{
			"anonymous": false,
			"inputs": [
				{
					"indexed": false,
					"internalType": "string",
					"name": "value",
					"type": "string"
				},
				{
					"indexed": true,
					"internalType": "uint256",
					"name": "id",
					"type": "uint256"
				}
			],
			"name": "URI",
			"type": "event"
		},
		{
			"anonymous": false,
			"inputs": [
				{
					"indexed": false,
					"internalType": "uint256",
					"name": "gameId",
					"type": "uint256"
				}
			],
			"name": "createRoom",
			"type": "event"
		},
		{
			"anonymous": false,
			"inputs": [
				{
					"indexed": false,
					"internalType": "address",
					"name": "msgSender",
					"type": "address"
				},
				{
					"indexed": false,
					"internalType": "bool",
					"name": "successful",
					"type": "bool"
				}
			],
			"name": "faucet",
			"type": "event"
		},
		{
			"anonymous": false,
			"inputs": [
				{
					"components": [
						{
							"internalType": "bool",
							"name": "_activate",
							"type": "bool"
						},
						{
							"internalType": "string",
							"name": "_currentPlayer",
							"type": "string"
						},
						{
							"internalType": "string[]",
							"name": "_options",
							"type": "string[]"
						},
						{
							"internalType": "uint256[]",
							"name": "_finalWinOption",
							"type": "uint256[]"
						},
						{
							"internalType": "address",
							"name": "_player1address",
							"type": "address"
						},
						{
							"internalType": "address",
							"name": "_player2address",
							"type": "address"
						},
						{
							"internalType": "uint256",
							"name": "_playerCount",
							"type": "uint256"
						},
						{
							"internalType": "address",
							"name": "_winer",
							"type": "address"
						},
						{
							"internalType": "uint256",
							"name": "_player1Bet",
							"type": "uint256"
						},
						{
							"internalType": "uint256",
							"name": "_player2Bet",
							"type": "uint256"
						},
						{
							"internalType": "uint256",
							"name": "_rewardAmount",
							"type": "uint256"
						}
					],
					"indexed": false,
					"internalType": "struct TickTackToe.GameInfo",
					"name": "gameinfo",
					"type": "tuple"
				},
				{
					"indexed": false,
					"internalType": "uint256",
					"name": "gameId",
					"type": "uint256"
				}
			],
			"name": "joinRoom",
			"type": "event"
		},
		{
			"anonymous": false,
			"inputs": [
				{
					"indexed": false,
					"internalType": "string",
					"name": "next",
					"type": "string"
				},
				{
					"indexed": false,
					"internalType": "uint256",
					"name": "gameId",
					"type": "uint256"
				}
			],
			"name": "nextUesrStr",
			"type": "event"
		},
		{
			"anonymous": false,
			"inputs": [
				{
					"indexed": false,
					"internalType": "address",
					"name": "nextUser",
					"type": "address"
				},
				{
					"indexed": false,
					"internalType": "uint256",
					"name": "gameId",
					"type": "uint256"
				}
			],
			"name": "nextUser",
			"type": "event"
		},
		{
			"anonymous": false,
			"inputs": [
				{
					"indexed": false,
					"internalType": "uint256",
					"name": "gameId",
					"type": "uint256"
				}
			],
			"name": "resetUI",
			"type": "event"
		},
		{
			"anonymous": false,
			"inputs": [
				{
					"indexed": false,
					"internalType": "address",
					"name": "player1Address",
					"type": "address"
				},
				{
					"indexed": false,
					"internalType": "uint256",
					"name": "gameId",
					"type": "uint256"
				}
			],
			"name": "showFirstPlayer",
			"type": "event"
		},
		{
			"anonymous": false,
			"inputs": [
				{
					"indexed": false,
					"internalType": "string",
					"name": "result",
					"type": "string"
				},
				{
					"indexed": false,
					"internalType": "uint256",
					"name": "gameId",
					"type": "uint256"
				}
			],
			"name": "showResult",
			"type": "event"
		},
		{
			"anonymous": false,
			"inputs": [
				{
					"indexed": false,
					"internalType": "string",
					"name": "message",
					"type": "string"
				},
				{
					"indexed": false,
					"internalType": "address",
					"name": "player1",
					"type": "address"
				},
				{
					"indexed": false,
					"internalType": "address",
					"name": "player2",
					"type": "address"
				},
				{
					"indexed": false,
					"internalType": "uint256",
					"name": "gameId",
					"type": "uint256"
				}
			],
			"name": "startGame",
			"type": "event"
		},
		{
			"anonymous": false,
			"inputs": [
				{
					"indexed": false,
					"internalType": "string[]",
					"name": "options",
					"type": "string[]"
				},
				{
					"indexed": false,
					"internalType": "uint256",
					"name": "gameId",
					"type": "uint256"
				}
			],
			"name": "updateUI",
			"type": "event"
		},
		{
			"inputs": [],
			"name": "TTT1155Token",
			"outputs": [
				{
					"internalType": "contract ERC1155",
					"name": "",
					"type": "address"
				}
			],
			"stateMutability": "view",
			"type": "function"
		},
		{
			"inputs": [],
			"name": "TTTToken",
			"outputs": [
				{
					"internalType": "contract IERC20",
					"name": "",
					"type": "address"
				}
			],
			"stateMutability": "view",
			"type": "function"
		},
		{
			"inputs": [
				{
					"internalType": "address",
					"name": "account",
					"type": "address"
				},
				{
					"internalType": "uint256",
					"name": "id",
					"type": "uint256"
				}
			],
			"name": "balanceOf",
			"outputs": [
				{
					"internalType": "uint256",
					"name": "",
					"type": "uint256"
				}
			],
			"stateMutability": "view",
			"type": "function"
		},
		{
			"inputs": [
				{
					"internalType": "address[]",
					"name": "accounts",
					"type": "address[]"
				},
				{
					"internalType": "uint256[]",
					"name": "ids",
					"type": "uint256[]"
				}
			],
			"name": "balanceOfBatch",
			"outputs": [
				{
					"internalType": "uint256[]",
					"name": "",
					"type": "uint256[]"
				}
			],
			"stateMutability": "view",
			"type": "function"
		},
		{
			"inputs": [],
			"name": "burnFee",
			"outputs": [
				{
					"internalType": "uint256",
					"name": "",
					"type": "uint256"
				}
			],
			"stateMutability": "view",
			"type": "function"
		},
		{
			"inputs": [
				{
					"internalType": "string",
					"name": "a",
					"type": "string"
				},
				{
					"internalType": "string",
					"name": "b",
					"type": "string"
				}
			],
			"name": "compareStrings",
			"outputs": [
				{
					"internalType": "bool",
					"name": "",
					"type": "bool"
				}
			],
			"stateMutability": "pure",
			"type": "function"
		},
		{
			"inputs": [
				{
					"internalType": "uint256",
					"name": "betAmount",
					"type": "uint256"
				}
			],
			"name": "createGameRoom",
			"outputs": [],
			"stateMutability": "nonpayable",
			"type": "function"
		},
		{
			"inputs": [],
			"name": "faucetToken",
			"outputs": [],
			"stateMutability": "nonpayable",
			"type": "function"
		},
		{
			"inputs": [
				{
					"internalType": "uint256",
					"name": "",
					"type": "uint256"
				}
			],
			"name": "gameInformation",
			"outputs": [
				{
					"internalType": "bool",
					"name": "_activate",
					"type": "bool"
				},
				{
					"internalType": "string",
					"name": "_currentPlayer",
					"type": "string"
				},
				{
					"internalType": "address",
					"name": "_player1address",
					"type": "address"
				},
				{
					"internalType": "address",
					"name": "_player2address",
					"type": "address"
				},
				{
					"internalType": "uint256",
					"name": "_playerCount",
					"type": "uint256"
				},
				{
					"internalType": "address",
					"name": "_winer",
					"type": "address"
				},
				{
					"internalType": "uint256",
					"name": "_player1Bet",
					"type": "uint256"
				},
				{
					"internalType": "uint256",
					"name": "_player2Bet",
					"type": "uint256"
				},
				{
					"internalType": "uint256",
					"name": "_rewardAmount",
					"type": "uint256"
				}
			],
			"stateMutability": "view",
			"type": "function"
		},
		{
			"inputs": [],
			"name": "getAllGameInformation",
			"outputs": [
				{
					"components": [
						{
							"internalType": "bool",
							"name": "_activate",
							"type": "bool"
						},
						{
							"internalType": "string",
							"name": "_currentPlayer",
							"type": "string"
						},
						{
							"internalType": "string[]",
							"name": "_options",
							"type": "string[]"
						},
						{
							"internalType": "uint256[]",
							"name": "_finalWinOption",
							"type": "uint256[]"
						},
						{
							"internalType": "address",
							"name": "_player1address",
							"type": "address"
						},
						{
							"internalType": "address",
							"name": "_player2address",
							"type": "address"
						},
						{
							"internalType": "uint256",
							"name": "_playerCount",
							"type": "uint256"
						},
						{
							"internalType": "address",
							"name": "_winer",
							"type": "address"
						},
						{
							"internalType": "uint256",
							"name": "_player1Bet",
							"type": "uint256"
						},
						{
							"internalType": "uint256",
							"name": "_player2Bet",
							"type": "uint256"
						},
						{
							"internalType": "uint256",
							"name": "_rewardAmount",
							"type": "uint256"
						}
					],
					"internalType": "struct TickTackToe.GameInfo[]",
					"name": "",
					"type": "tuple[]"
				}
			],
			"stateMutability": "view",
			"type": "function"
		},
		{
			"inputs": [],
			"name": "getAllMoney",
			"outputs": [],
			"stateMutability": "nonpayable",
			"type": "function"
		},
		{
			"inputs": [],
			"name": "getExcessBalance",
			"outputs": [],
			"stateMutability": "nonpayable",
			"type": "function"
		},
		{
			"inputs": [
				{
					"internalType": "uint256",
					"name": "gameId",
					"type": "uint256"
				}
			],
			"name": "getFinalWinOption",
			"outputs": [
				{
					"internalType": "uint256[]",
					"name": "",
					"type": "uint256[]"
				}
			],
			"stateMutability": "view",
			"type": "function"
		},
		{
			"inputs": [
				{
					"internalType": "uint256",
					"name": "gameId",
					"type": "uint256"
				}
			],
			"name": "getGameInformation",
			"outputs": [
				{
					"components": [
						{
							"internalType": "bool",
							"name": "_activate",
							"type": "bool"
						},
						{
							"internalType": "string",
							"name": "_currentPlayer",
							"type": "string"
						},
						{
							"internalType": "string[]",
							"name": "_options",
							"type": "string[]"
						},
						{
							"internalType": "uint256[]",
							"name": "_finalWinOption",
							"type": "uint256[]"
						},
						{
							"internalType": "address",
							"name": "_player1address",
							"type": "address"
						},
						{
							"internalType": "address",
							"name": "_player2address",
							"type": "address"
						},
						{
							"internalType": "uint256",
							"name": "_playerCount",
							"type": "uint256"
						},
						{
							"internalType": "address",
							"name": "_winer",
							"type": "address"
						},
						{
							"internalType": "uint256",
							"name": "_player1Bet",
							"type": "uint256"
						},
						{
							"internalType": "uint256",
							"name": "_player2Bet",
							"type": "uint256"
						},
						{
							"internalType": "uint256",
							"name": "_rewardAmount",
							"type": "uint256"
						}
					],
					"internalType": "struct TickTackToe.GameInfo",
					"name": "",
					"type": "tuple"
				}
			],
			"stateMutability": "view",
			"type": "function"
		},
		{
			"inputs": [
				{
					"internalType": "uint256",
					"name": "gameId",
					"type": "uint256"
				}
			],
			"name": "getoption",
			"outputs": [
				{
					"internalType": "string[]",
					"name": "",
					"type": "string[]"
				}
			],
			"stateMutability": "view",
			"type": "function"
		},
		{
			"inputs": [
				{
					"internalType": "address",
					"name": "account",
					"type": "address"
				},
				{
					"internalType": "address",
					"name": "operator",
					"type": "address"
				}
			],
			"name": "isApprovedForAll",
			"outputs": [
				{
					"internalType": "bool",
					"name": "",
					"type": "bool"
				}
			],
			"stateMutability": "view",
			"type": "function"
		},
		{
			"inputs": [
				{
					"internalType": "uint256",
					"name": "gameId",
					"type": "uint256"
				},
				{
					"internalType": "uint256",
					"name": "betAmount",
					"type": "uint256"
				}
			],
			"name": "joinGame",
			"outputs": [],
			"stateMutability": "nonpayable",
			"type": "function"
		},
		{
			"inputs": [],
			"name": "minBetAmount",
			"outputs": [
				{
					"internalType": "uint256",
					"name": "",
					"type": "uint256"
				}
			],
			"stateMutability": "view",
			"type": "function"
		},
		{
			"inputs": [],
			"name": "owner",
			"outputs": [
				{
					"internalType": "address",
					"name": "",
					"type": "address"
				}
			],
			"stateMutability": "view",
			"type": "function"
		},
		{
			"inputs": [
				{
					"internalType": "uint256",
					"name": "gameId",
					"type": "uint256"
				}
			],
			"name": "restartGame",
			"outputs": [],
			"stateMutability": "nonpayable",
			"type": "function"
		},
		{
			"inputs": [
				{
					"internalType": "address",
					"name": "from",
					"type": "address"
				},
				{
					"internalType": "address",
					"name": "to",
					"type": "address"
				},
				{
					"internalType": "uint256[]",
					"name": "ids",
					"type": "uint256[]"
				},
				{
					"internalType": "uint256[]",
					"name": "amounts",
					"type": "uint256[]"
				},
				{
					"internalType": "bytes",
					"name": "data",
					"type": "bytes"
				}
			],
			"name": "safeBatchTransferFrom",
			"outputs": [],
			"stateMutability": "nonpayable",
			"type": "function"
		},
		{
			"inputs": [
				{
					"internalType": "address",
					"name": "from",
					"type": "address"
				},
				{
					"internalType": "address",
					"name": "to",
					"type": "address"
				},
				{
					"internalType": "uint256",
					"name": "id",
					"type": "uint256"
				},
				{
					"internalType": "uint256",
					"name": "amount",
					"type": "uint256"
				},
				{
					"internalType": "bytes",
					"name": "data",
					"type": "bytes"
				}
			],
			"name": "safeTransferFrom",
			"outputs": [],
			"stateMutability": "nonpayable",
			"type": "function"
		},
		{
			"inputs": [
				{
					"internalType": "address",
					"name": "operator",
					"type": "address"
				},
				{
					"internalType": "bool",
					"name": "approved",
					"type": "bool"
				}
			],
			"name": "setApprovalForAll",
			"outputs": [],
			"stateMutability": "nonpayable",
			"type": "function"
		},
		{
			"inputs": [
				{
					"internalType": "bytes4",
					"name": "interfaceId",
					"type": "bytes4"
				}
			],
			"name": "supportsInterface",
			"outputs": [
				{
					"internalType": "bool",
					"name": "",
					"type": "bool"
				}
			],
			"stateMutability": "view",
			"type": "function"
		},
		{
			"inputs": [],
			"name": "totalAmount",
			"outputs": [
				{
					"internalType": "uint256",
					"name": "",
					"type": "uint256"
				}
			],
			"stateMutability": "view",
			"type": "function"
		},
		{
			"inputs": [],
			"name": "treasury",
			"outputs": [
				{
					"internalType": "address",
					"name": "",
					"type": "address"
				}
			],
			"stateMutability": "view",
			"type": "function"
		},
		{
			"inputs": [],
			"name": "treasuryFee",
			"outputs": [
				{
					"internalType": "uint256",
					"name": "",
					"type": "uint256"
				}
			],
			"stateMutability": "view",
			"type": "function"
		},
		{
			"inputs": [
				{
					"internalType": "uint256",
					"name": "",
					"type": "uint256"
				}
			],
			"name": "uri",
			"outputs": [
				{
					"internalType": "string",
					"name": "",
					"type": "string"
				}
			],
			"stateMutability": "view",
			"type": "function"
		},
		{
			"inputs": [
				{
					"internalType": "uint256",
					"name": "input",
					"type": "uint256"
				},
				{
					"internalType": "uint256",
					"name": "gameId",
					"type": "uint256"
				}
			],
			"name": "userInput",
			"outputs": [],
			"stateMutability": "nonpayable",
			"type": "function"
		},
		{
			"inputs": [
				{
					"internalType": "uint256",
					"name": "gameId",
					"type": "uint256"
				}
			],
			"name": "validateRestartPlayer",
			"outputs": [],
			"stateMutability": "nonpayable",
			"type": "function"
		}
	]
}